{
  "contracts/multisig/EtherForwarder.sol": {
    "EtherForwarder": {
      "abi": [
        {
          "inputs": [],
          "name": "ReentrancyGuardReentrantCall",
          "type": "error"
        },
        {
          "inputs": [
            {
              "internalType": "address",
              "name": "target",
              "type": "address"
            }
          ],
          "name": "forward",
          "outputs": [],
          "stateMutability": "payable",
          "type": "function"
        }
      ],
      "evm": {
        "bytecode": {
          "linkReferences": {},
          "object": "6080604052348015600e575f5ffd5b506102048061001c5f395ff3fe60806040526004361061001d575f3560e01c8063101e895214610021575b5f5ffd5b61003461002f3660046101a1565b610036565b005b61003e610101565b5f816001600160a01b0316346040515f6040518083038185875af1925050503d805f8114610087576040519150601f19603f3d011682016040523d82523d5f602084013e61008c565b606091505b50509050806100f55760405162461bcd60e51b815260206004820152602b60248201527f4661696c656420746f2073656e64204574686572207468726f7567682045746860448201526a32b92337b93bb0b93232b960a91b606482015260840160405180910390fd5b506100fe610170565b50565b7f9b779b17422d0df92223018b32b4d1fa46e071723d6817e2486d003becc55f005c1561014157604051633ee5aeb560e01b815260040160405180910390fd5b61016e60017f9b779b17422d0df92223018b32b4d1fa46e071723d6817e2486d003becc55f005b9061019a565b565b61016e5f7f9b779b17422d0df92223018b32b4d1fa46e071723d6817e2486d003becc55f00610168565b80825d5050565b5f602082840312156101b1575f5ffd5b81356001600160a01b03811681146101c7575f5ffd5b939250505056fea264697066735822122056711b7ad3ec75407decc50539cc94c4fb86318eef584b3f077b93815cbee5c064736f6c634300081d0033",
          "opcodes": "PUSH1 0x80 PUSH1 0x40 MSTORE CALLVALUE DUP1 ISZERO PUSH1 0xE JUMPI PUSH0 PUSH0 REVERT JUMPDEST POP PUSH2 0x204 DUP1 PUSH2 0x1C PUSH0 CODECOPY PUSH0 RETURN INVALID PUSH1 0x80 PUSH1 0x40 MSTORE PUSH1 0x4 CALLDATASIZE LT PUSH2 0x1D JUMPI PUSH0 CALLDATALOAD PUSH1 0xE0 SHR DUP1 PUSH4 0x101E8952 EQ PUSH2 0x21 JUMPI JUMPDEST PUSH0 PUSH0 REVERT JUMPDEST PUSH2 0x34 PUSH2 0x2F CALLDATASIZE PUSH1 0x4 PUSH2 0x1A1 JUMP JUMPDEST PUSH2 0x36 JUMP JUMPDEST STOP JUMPDEST PUSH2 0x3E PUSH2 0x101 JUMP JUMPDEST PUSH0 DUP2 PUSH1 0x1 PUSH1 0x1 PUSH1 0xA0 SHL SUB AND CALLVALUE PUSH1 0x40 MLOAD PUSH0 PUSH1 0x40 MLOAD DUP1 DUP4 SUB DUP2 DUP6 DUP8 GAS CALL SWAP3 POP POP POP RETURNDATASIZE DUP1 PUSH0 DUP2 EQ PUSH2 0x87 JUMPI PUSH1 0x40 MLOAD SWAP2 POP PUSH1 0x1F NOT PUSH1 0x3F RETURNDATASIZE ADD AND DUP3 ADD PUSH1 0x40 MSTORE RETURNDATASIZE DUP3 MSTORE RETURNDATASIZE PUSH0 PUSH1 0x20 DUP5 ADD RETURNDATACOPY PUSH2 0x8C JUMP JUMPDEST PUSH1 0x60 SWAP2 POP JUMPDEST POP POP SWAP1 POP DUP1 PUSH2 0xF5 JUMPI PUSH1 0x40 MLOAD PUSH3 0x461BCD PUSH1 0xE5 SHL DUP2 MSTORE PUSH1 0x20 PUSH1 0x4 DUP3 ADD MSTORE PUSH1 0x2B PUSH1 0x24 DUP3 ADD MSTORE PUSH32 0x4661696C656420746F2073656E64204574686572207468726F75676820457468 PUSH1 0x44 DUP3 ADD MSTORE PUSH11 0x32B92337B93BB0B93232B9 PUSH1 0xA9 SHL PUSH1 0x64 DUP3 ADD MSTORE PUSH1 0x84 ADD PUSH1 0x40 MLOAD DUP1 SWAP2 SUB SWAP1 REVERT JUMPDEST POP PUSH2 0xFE PUSH2 0x170 JUMP JUMPDEST POP JUMP JUMPDEST PUSH32 0x9B779B17422D0DF92223018B32B4D1FA46E071723D6817E2486D003BECC55F00 TLOAD ISZERO PUSH2 0x141 JUMPI PUSH1 0x40 MLOAD PUSH4 0x3EE5AEB5 PUSH1 0xE0 SHL DUP2 MSTORE PUSH1 0x4 ADD PUSH1 0x40 MLOAD DUP1 SWAP2 SUB SWAP1 REVERT JUMPDEST PUSH2 0x16E PUSH1 0x1 PUSH32 0x9B779B17422D0DF92223018B32B4D1FA46E071723D6817E2486D003BECC55F00 JUMPDEST SWAP1 PUSH2 0x19A JUMP JUMPDEST JUMP JUMPDEST PUSH2 0x16E PUSH0 PUSH32 0x9B779B17422D0DF92223018B32B4D1FA46E071723D6817E2486D003BECC55F00 PUSH2 0x168 JUMP JUMPDEST DUP1 DUP3 TSTORE POP POP JUMP JUMPDEST PUSH0 PUSH1 0x20 DUP3 DUP5 SUB SLT ISZERO PUSH2 0x1B1 JUMPI PUSH0 PUSH0 REVERT JUMPDEST DUP2 CALLDATALOAD PUSH1 0x1 PUSH1 0x1 PUSH1 0xA0 SHL SUB DUP2 AND DUP2 EQ PUSH2 0x1C7 JUMPI PUSH0 PUSH0 REVERT JUMPDEST SWAP4 SWAP3 POP POP POP JUMP INVALID LOG2 PUSH5 0x6970667358 0x22 SLT KECCAK256 JUMP PUSH18 0x1B7AD3EC75407DECC50539CC94C4FB86318E 0xEF PC 0x4B EXTCODEHASH SMOD PUSH28 0x93815CBEE5C064736F6C634300081D00330000000000000000000000 "
        },
        "methodIdentifiers": {
          "forward(address)": "101e8952"
        }
      }
    }
  }
}