{
  "address": "0x5a90E48b81Edf50813192E5F5Da0ED934Bf94c93",
  "abi": [
    {
      "anonymous": false,
      "inputs": [
        {
          "indexed": false,
          "internalType": "address",
          "name": "contractAddress",
          "type": "address"
        },
        {
          "indexed": false,
          "internalType": "string",
          "name": "typeName",
          "type": "string"
        }
      ],
      "name": "OfferCreated",
      "type": "event"
    },
    {
      "inputs": [
        {
          "internalType": "bytes32",
          "name": "salt",
          "type": "bytes32"
        },
        {
          "internalType": "address",
          "name": "buyer",
          "type": "address"
        },
        {
          "internalType": "uint256",
          "name": "pricePerShare",
          "type": "uint256"
        },
        {
          "internalType": "address",
          "name": "currency",
          "type": "address"
        },
        {
          "internalType": "uint256",
          "name": "quorum",
          "type": "uint256"
        },
        {
          "internalType": "uint256",
          "name": "votePeriod",
          "type": "uint256"
        }
      ],
      "name": "create",
      "outputs": [
        {
          "internalType": "address",
          "name": "",
          "type": "address"
        }
      ],
      "stateMutability": "payable",
      "type": "function"
    },
    {
      "inputs": [
        {
          "internalType": "bytes32",
          "name": "salt",
          "type": "bytes32"
        },
        {
          "internalType": "address",
          "name": "buyer",
          "type": "address"
        },
        {
          "internalType": "address",
          "name": "token",
          "type": "address"
        },
        {
          "internalType": "uint256",
          "name": "pricePerShare",
          "type": "uint256"
        },
        {
          "internalType": "address",
          "name": "currency",
          "type": "address"
        },
        {
          "internalType": "uint256",
          "name": "quorum",
          "type": "uint256"
        },
        {
          "internalType": "uint256",
          "name": "votePeriod",
          "type": "uint256"
        }
      ],
      "name": "predict",
      "outputs": [
        {
          "internalType": "address",
          "name": "",
          "type": "address"
        }
      ],
      "stateMutability": "view",
      "type": "function"
    }
  ],
  "transactionHash": "0x505af64b93088bb55d95f2780c2e6e98e18fe38613ba6349ee0df0a69e7d3335",
  "args": [],
  "numDeployments": 2,
  "solcInputHash": "79803b37f9f5c1fe49ee98f562930e9e",
  "bytecode": "0x608060405234801561001057600080fd5b50611f45806100206000396000f3fe6080604052600436106100295760003560e01c80634dc5e4311461002e578063a80104301461005d575b600080fd5b61004161003c366004610235565b61007d565b6040516001600160a01b03909116815260200160405180910390f35b34801561006957600080fd5b506100416100783660046101cb565b6100d1565b600080348890883389898989604051610095906101a2565b6100a4969594939291906102e5565b82906040518091039083f5915050801580156100c4573d6000803e3d6000fd5b5098975050505050505050565b600080604051806020016100e4906101a2565b601f1982820381018352601f909101166040819052610111908a908a908a908a908a908a906020016102e5565b60408051601f198184030181529082905261012f92916020016102c8565b60408051601f1981840301815282825280516020918201206001600160f81b0319828501523060601b6bffffffffffffffffffffffff19166021850152603584019c909c5260558084019c909c528151808403909c018c5260759092019052895199019890982098975050505050505050565b611bf08061032083390190565b80356001600160a01b03811681146101c657600080fd5b919050565b600080600080600080600060e0888a0312156101e657600080fd5b873596506101f6602089016101af565b9550610204604089016101af565b945060608801359350610219608089016101af565b925060a0880135915060c0880135905092959891949750929550565b60008060008060008060c0878903121561024e57600080fd5b8635955061025e602088016101af565b945060408701359350610273606088016101af565b92506080870135915060a087013590509295509295509295565b6000815160005b818110156102ae5760208185018101518683015201610294565b818111156102bd576000828601525b509290920192915050565b60006102dd6102d7838661028d565b8461028d565b949350505050565b6001600160a01b0396871681529486166020860152604085019390935293166060830152608082019290925260a081019190915260c0019056fe61014060405260405162001bf038038062001bf0833981016040819052620000279162000122565b6001600160601b0319606087811b821660c05286811b821660a05284901b1660e052610100849052608082905262000060814262000188565b610120526040517329fe8914e76da5ce2d90de98a64d0055f199d06d906000906729a2241af62c00009082818181858883f19350505050158015620000a9573d6000803e3d6000fd5b50604080516001600160a01b03878116825260208201879052858116828401529151918816917f4f05be72ad7f57c27e555ace8452f56d8b1e82c9e6e1cd4fd282f34518b7729a9181900360600190a2505050505050620001af565b80516001600160a01b03811681146200011d57600080fd5b919050565b60008060008060008060c087890312156200013c57600080fd5b620001478762000105565b9550620001576020880162000105565b9450604087015193506200016e6060880162000105565b92506080870151915060a087015190509295509295509295565b60008219821115620001aa57634e487b7160e01b600052601160045260246000fd5b500190565b60805160a05160601c60c05160601c60e05160601c61010051610120516118ec6200030460003960008181610298015281816103190152818161048e0152818161087e01528181610cb701528181611293015261169201526000818161025501528181610f7b01526111890152600081816102da015281816103b4015281816106bb015281816107b60152610f490152600081816101f3015281816103870152818161059f015281816106610152818161078e01528181610dcf0152818161113c015281816114d2015261153501526000818161034e015281816104b501528181610689015281816107de015281816108a7015281816109d301528181610ab301528181610b4401528181610c7801528181610e430152818161116701528181611352015281816113dc015261145f01526000818161017e0152818161054a0152818161093e015261099801526118ec6000f3fe608060405234801561001057600080fd5b50600436106101585760003560e01c8063a035b1fe116100c3578063e5a6b10f1161007c578063e5a6b10f146102d5578063ea8a1af0146102fc578063f6c8c41e14610304578063fa7f1bae14610317578063fb286c6514610340578063fc0c546a1461034957600080fd5b8063a035b1fe14610250578063b5b47f4214610277578063bd3bc1d314610280578063ddbe8f0914610293578063e1a1810f146102ba578063e3ac83da146102cd57600080fd5b80635051a5ec116101155780635051a5ec146101de57806361461954146101e65780637150d8ae146101ee5780638f1b4c6f1461022d57806390cf581c146102405780639b4e88aa1461024857600080fd5b806311a439a01461015d5780631703a01814610179578063354e5629146101a05780633f5e3e7f146101a957806341c12a70146101c1578063448ab4c6146101cb575b600080fd5b61016660045481565b6040519081526020015b60405180910390f35b6101667f000000000000000000000000000000000000000000000000000000000000000081565b61016660035481565b6101b1610370565b6040519015158152602001610170565b6101c9610445565b005b6101b16101d93660046116c1565b610451565b6101b161048a565b6101c9610594565b6102157f000000000000000000000000000000000000000000000000000000000000000081565b6040516001600160a01b039091168152602001610170565b6101b161023b3660046116c1565b610867565b6101c9610870565b6101b161087a565b6101667f000000000000000000000000000000000000000000000000000000000000000081565b61016660025481565b6101c961028e36600461177e565b6109d1565b6101667f000000000000000000000000000000000000000000000000000000000000000081565b6101c96102c8366004611702565b610c6d565b6101c9610d19565b6102157f000000000000000000000000000000000000000000000000000000000000000081565b6101c9610dc4565b6101c96103123660046116c1565b610e38565b7f00000000000000000000000000000000000000000000000000000000000000004211156101b1565b61016660015481565b6102157f000000000000000000000000000000000000000000000000000000000000000081565b6040516370a0823160e01b81526001600160a01b037f00000000000000000000000000000000000000000000000000000000000000008116600483015260009182917f000000000000000000000000000000000000000000000000000000000000000016906370a082319060240160206040518083038186803b1580156103f657600080fd5b505afa15801561040a573d6000803e3d6000fd5b505050506040513d601f19601f8201168201806040525081019061042e9190611765565b9050600061043a611125565b919091111592915050565b61044f6002611291565b565b600060015b6001600160a01b03831660009081526020819052604090205460ff1660028111156104835761048361188b565b1492915050565b60007f00000000000000000000000000000000000000000000000000000000000000004211610584577f00000000000000000000000000000000000000000000000000000000000000006001600160a01b0316630a81b2de6040518163ffffffff1660e01b815260040160206040518083038186803b15801561050c57600080fd5b505afa158015610520573d6000803e3d6000fd5b505050506040513d601f19601f820116820180604052508101906105449190611765565b61056e907f000000000000000000000000000000000000000000000000000000000000000061183f565b60015461057d9061271061183f565b1015905090565b6002546001546105449190611827565b336001600160a01b037f000000000000000000000000000000000000000000000000000000000000000016146105fd5760405162461bcd60e51b81526020600482015260096024820152683737ba10313abcb2b960b91b60448201526064015b60405180910390fd5b61060561048a565b6106405760405162461bcd60e51b815260206004820152600c60248201526b1b9bdd081858d8d95c1d195960a21b60448201526064016105f4565b600061064a611125565b6040516323b872dd60e01b81526001600160a01b037f0000000000000000000000000000000000000000000000000000000000000000811660048301527f000000000000000000000000000000000000000000000000000000000000000081166024830152604482018390529192507f0000000000000000000000000000000000000000000000000000000000000000909116906323b872dd90606401602060405180830381600087803b15801561070157600080fd5b505af1158015610715573d6000803e3d6000fd5b505050506040513d601f19601f820116820180604052508101906107399190611743565b6107775760405162461bcd60e51b815260206004820152600f60248201526e1d1c985b9cd9995c8819985a5b1959608a1b60448201526064016105f4565b604051637e5bcd3f60e11b81526001600160a01b037f0000000000000000000000000000000000000000000000000000000000000000811660048301527f0000000000000000000000000000000000000000000000000000000000000000811660248301527f0000000000000000000000000000000000000000000000000000000000000000169063fcb79a7e90604401600060405180830381600087803b15801561082257600080fd5b505af1158015610836573d6000803e3d6000fd5b505050506108646001604051806040016040528060078152602001667375636365737360c81b81525061145d565b50565b60006002610456565b61044f6001611291565b60007f000000000000000000000000000000000000000000000000000000000000000042116109825760007f00000000000000000000000000000000000000000000000000000000000000006001600160a01b0316630a81b2de6040518163ffffffff1660e01b815260040160206040518083038186803b1580156108fe57600080fd5b505afa158015610912573d6000803e3d6000fd5b505050506040513d601f19601f820116820180604052508101906109369190611765565b9050610962817f000000000000000000000000000000000000000000000000000000000000000061183f565b60025461096f908361185e565b61097b9061271061183f565b1091505090565b6002546001546109929190611827565b6109bc907f000000000000000000000000000000000000000000000000000000000000000061183f565b6001546109cb9061271061183f565b10905090565b7f00000000000000000000000000000000000000000000000000000000000000006001600160a01b031663833b1fce6040518163ffffffff1660e01b8152600401602060405180830381600087803b158015610a2c57600080fd5b505af1158015610a40573d6000803e3d6000fd5b505050506040513d601f19601f82011682018060405250810190610a6491906116e5565b6001600160a01b0316336001600160a01b031614610ab15760405162461bcd60e51b815260206004820152600a6024820152696e6f74206f7261636c6560b01b60448201526064016105f4565b7f00000000000000000000000000000000000000000000000000000000000000006001600160a01b0316630a81b2de6040518163ffffffff1660e01b815260040160206040518083038186803b158015610b0a57600080fd5b505afa158015610b1e573d6000803e3d6000fd5b505050506040513d601f19601f82011682018060405250810190610b429190611765565b7f00000000000000000000000000000000000000000000000000000000000000006001600160a01b03166318160ddd6040518163ffffffff1660e01b815260040160206040518083038186803b158015610b9b57600080fd5b505afa158015610baf573d6000803e3d6000fd5b505050506040513d601f19601f82011682018060405250810190610bd39190611765565b610bdd8385611827565b610be79190611827565b1115610c265760405162461bcd60e51b815260206004820152600e60248201526d746f6f206d616e7920766f74657360901b60448201526064016105f4565b81600454600154610c37919061185e565b610c419190611827565b6001556003546002548291610c559161185e565b610c5f9190611827565b600255600491909155600355565b336001600160a01b037f00000000000000000000000000000000000000000000000000000000000000001614610cb55760405162461bcd60e51b81526004016105f4906117ff565b7f00000000000000000000000000000000000000000000000000000000000000004211610d14576001600160a01b0380841660009081526020819052604080822054928516825290205460ff9182169116610d1182828561155f565b50505b505050565b610d2161168b565b15610d505761044f600060405180604001604052806007815260200166195e1c1a5c995960ca1b81525061145d565b610d5861087a565b15610d885761044f600060405180604001604052806008815260200167191958db1a5b995960c21b81525061145d565b610d90610370565b61044f5761044f60006040518060400160405280600d81526020016c6c61636b206f662066756e647360981b81525061145d565b336001600160a01b037f00000000000000000000000000000000000000000000000000000000000000001614610e0c5760405162461bcd60e51b81526004016105f4906117ff565b61044f60006040518060400160405280600981526020016818d85b98d95b1b195960ba1b81525061145d565b336001600160a01b037f00000000000000000000000000000000000000000000000000000000000000001614610e805760405162461bcd60e51b81526004016105f4906117ff565b80610e8961048a565b15610ecd5760405162461bcd60e51b81526020600482015260146024820152731bdb1908185b1c9958591e481858d8d95c1d195960621b60448201526064016105f4565b806001600160a01b031663e5a6b10f6040518163ffffffff1660e01b815260040160206040518083038186803b158015610f0657600080fd5b505afa158015610f1a573d6000803e3d6000fd5b505050506040513d601f19601f82011682018060405250810190610f3e91906116e5565b6001600160a01b03167f00000000000000000000000000000000000000000000000000000000000000006001600160a01b031614801561100d57507f0000000000000000000000000000000000000000000000000000000000000000816001600160a01b031663a035b1fe6040518163ffffffff1660e01b815260040160206040518083038186803b158015610fd357600080fd5b505afa158015610fe7573d6000803e3d6000fd5b505050506040513d601f19601f8201168201806040525081019061100b9190611765565b115b61104c5760405162461bcd60e51b815260206004820152601060248201526f37b6321037b33332b9103132ba3a32b960811b60448201526064016105f4565b806001600160a01b0316633f5e3e7f6040518163ffffffff1660e01b815260040160206040518083038186803b15801561108557600080fd5b505afa158015611099573d6000803e3d6000fd5b505050506040513d601f19601f820116820180604052508101906110bd9190611743565b6110f65760405162461bcd60e51b815260206004820152600a6024820152691b9bdd08199d5b99195960b21b60448201526064016105f4565b6111216000604051806040016040528060088152602001671c995c1b1858d95960c21b81525061145d565b5050565b6040516370a0823160e01b81526001600160a01b037f0000000000000000000000000000000000000000000000000000000000000000811660048301526000917f0000000000000000000000000000000000000000000000000000000000000000917f000000000000000000000000000000000000000000000000000000000000000091908316906370a082319060240160206040518083038186803b1580156111ce57600080fd5b505afa1580156111e2573d6000803e3d6000fd5b505050506040513d601f19601f820116820180604052508101906112069190611765565b826001600160a01b03166318160ddd6040518163ffffffff1660e01b815260040160206040518083038186803b15801561123f57600080fd5b505afa158015611253573d6000803e3d6000fd5b505050506040513d601f19601f820116820180604052508101906112779190611765565b611281919061185e565b61128b919061183f565b91505090565b7f00000000000000000000000000000000000000000000000000000000000000004211156112ee5760405162461bcd60e51b815260206004820152600a6024820152691d9bdd1948195b99195960b21b60448201526064016105f4565b336000908152602081905260409020805460ff811691839160ff1916600183600281111561131e5761131e61188b565b021790555060008160028111156113375761133761188b565b14156113b7576040516345c8a62b60e01b81523360048201527f00000000000000000000000000000000000000000000000000000000000000006001600160a01b0316906345c8a62b90602401600060405180830381600087803b15801561139e57600080fd5b505af11580156113b2573d6000803e3d6000fd5b505050505b60405163603a39fb60e11b815233600482015261112190829084906001600160a01b037f0000000000000000000000000000000000000000000000000000000000000000169063c07473f690602401602060405180830381600087803b15801561142057600080fd5b505af1158015611434573d6000803e3d6000fd5b505050506040513d601f19601f820116820180604052508101906114589190611765565b61155f565b7f00000000000000000000000000000000000000000000000000000000000000006001600160a01b03166332bc320b6040518163ffffffff1660e01b8152600401600060405180830381600087803b1580156114b857600080fd5b505af11580156114cc573d6000803e3d6000fd5b505050507f00000000000000000000000000000000000000000000000000000000000000006001600160a01b03167fba01adb1638f647e6baa43cb5d8d3a05ed7e59ac18415bf4c64adba235c5b2b0838360405161152b9291906117a0565b60405180910390a27f00000000000000000000000000000000000000000000000000000000000000006001600160a01b0316ff5b8160028111156115715761157161188b565b8360028111156115835761158361188b565b14610d1457600283600281111561159c5761159c61188b565b14156115b857806002546115b0919061185e565b6002556115e4565b60018360028111156115cc576115cc61188b565b14156115e457806001546115e0919061185e565b6001555b60028260028111156115f8576115f861188b565b1415611614578060025461160c9190611827565b600255611640565b60018260028111156116285761162861188b565b1415611640578060015461163c9190611827565b6001555b7f8fcc50c2c4edd06d51ae66e9e21ed76b32a1766c57f491788e1aa24a1b58c25660015460025460405161167e929190918252602082015260400190565b60405180910390a1505050565b60006116ba7f000000000000000000000000000000000000000000000000000000000000000062278d00611827565b4211905090565b6000602082840312156116d357600080fd5b81356116de816118a1565b9392505050565b6000602082840312156116f757600080fd5b81516116de816118a1565b60008060006060848603121561171757600080fd5b8335611722816118a1565b92506020840135611732816118a1565b929592945050506040919091013590565b60006020828403121561175557600080fd5b815180151581146116de57600080fd5b60006020828403121561177757600080fd5b5051919050565b6000806040838503121561179157600080fd5b50508035926020909101359150565b821515815260006020604081840152835180604085015260005b818110156117d6578581018301518582016060015282016117ba565b818111156117e8576000606083870101525b50601f01601f191692909201606001949350505050565b6020808252600e908201526d34b73b30b634b21031b0b63632b960911b604082015260600190565b6000821982111561183a5761183a611875565b500190565b600081600019048311821515161561185957611859611875565b500290565b60008282101561187057611870611875565b500390565b634e487b7160e01b600052601160045260246000fd5b634e487b7160e01b600052602160045260246000fd5b6001600160a01b038116811461086457600080fdfea26469706673582212207396e966b1e047a7fdc28423ebff111bbc9dff79e274b75d17261ca36f5caf5f64736f6c63430008070033a264697066735822122000c82055f14c402a53556572f3815db07b6f9b22846a59635a21b5ca74d4436b64736f6c63430008070033",
  "devdoc": {
    "kind": "dev",
    "methods": {},
    "version": 1
  },
  "userdoc": {
    "kind": "user",
    "methods": {},
    "version": 1
  },
  "storageLayout": {
    "storage": [],
    "types": null
  }
}