{
  "address": "0x31A531fc56F5a5680E931783982CaD29D01A9CD8",
  "abi": [
    {
      "inputs": [
        {
          "internalType": "address",
          "name": "_aggregatorCHFUSD",
          "type": "address"
        },
        {
          "internalType": "address",
          "name": "_aggregatorETHUSD",
          "type": "address"
        }
      ],
      "stateMutability": "nonpayable",
      "type": "constructor"
    },
    {
      "inputs": [],
      "name": "getLatestPriceCHFUSD",
      "outputs": [
        {
          "internalType": "int256",
          "name": "",
          "type": "int256"
        }
      ],
      "stateMutability": "view",
      "type": "function"
    },
    {
      "inputs": [],
      "name": "getLatestPriceETHUSD",
      "outputs": [
        {
          "internalType": "int256",
          "name": "",
          "type": "int256"
        }
      ],
      "stateMutability": "view",
      "type": "function"
    },
    {
      "inputs": [
        {
          "internalType": "uint256",
          "name": "amountInBase",
          "type": "uint256"
        },
        {
          "internalType": "address",
          "name": "brokerBot",
          "type": "address"
        }
      ],
      "name": "getPriceInEther",
      "outputs": [
        {
          "internalType": "uint256",
          "name": "",
          "type": "uint256"
        }
      ],
      "stateMutability": "nonpayable",
      "type": "function"
    },
    {
      "inputs": [
        {
          "internalType": "uint256",
          "name": "amountInBase",
          "type": "uint256"
        },
        {
          "internalType": "address",
          "name": "base",
          "type": "address"
        }
      ],
      "name": "getPriceInEtherFromOracle",
      "outputs": [
        {
          "internalType": "uint256",
          "name": "",
          "type": "uint256"
        }
      ],
      "stateMutability": "view",
      "type": "function"
    },
    {
      "inputs": [
        {
          "internalType": "uint256",
          "name": "amountInBase",
          "type": "uint256"
        }
      ],
      "name": "getPriceInUSD",
      "outputs": [
        {
          "internalType": "uint256",
          "name": "",
          "type": "uint256"
        }
      ],
      "stateMutability": "view",
      "type": "function"
    },
    {
      "inputs": [
        {
          "internalType": "address",
          "name": "recipient",
          "type": "address"
        }
      ],
      "name": "hasSettingKeepEther",
      "outputs": [
        {
          "internalType": "bool",
          "name": "",
          "type": "bool"
        }
      ],
      "stateMutability": "view",
      "type": "function"
    },
    {
      "inputs": [
        {
          "internalType": "address",
          "name": "token",
          "type": "address"
        },
        {
          "internalType": "address[]",
          "name": "recipients",
          "type": "address[]"
        },
        {
          "internalType": "uint256[]",
          "name": "amounts",
          "type": "uint256[]"
        }
      ],
      "name": "multiPay",
      "outputs": [],
      "stateMutability": "nonpayable",
      "type": "function"
    },
    {
      "inputs": [
        {
          "internalType": "address",
          "name": "token",
          "type": "address"
        },
        {
          "internalType": "address[]",
          "name": "recipients",
          "type": "address[]"
        },
        {
          "internalType": "uint256[]",
          "name": "amounts",
          "type": "uint256[]"
        },
        {
          "internalType": "bytes",
          "name": "ref",
          "type": "bytes"
        }
      ],
      "name": "multiPayAndNotify",
      "outputs": [],
      "stateMutability": "nonpayable",
      "type": "function"
    },
    {
      "inputs": [
        {
          "internalType": "address",
          "name": "recipient",
          "type": "address"
        },
        {
          "internalType": "uint256",
          "name": "amountInBase",
          "type": "uint256"
        },
        {
          "internalType": "bytes",
          "name": "ref",
          "type": "bytes"
        }
      ],
      "name": "payAndNotify",
      "outputs": [],
      "stateMutability": "nonpayable",
      "type": "function"
    },
    {
      "inputs": [
        {
          "internalType": "address",
          "name": "token",
          "type": "address"
        },
        {
          "internalType": "address",
          "name": "recipient",
          "type": "address"
        },
        {
          "internalType": "uint256",
          "name": "amount",
          "type": "uint256"
        },
        {
          "internalType": "bytes",
          "name": "ref",
          "type": "bytes"
        }
      ],
      "name": "payAndNotify",
      "outputs": [],
      "stateMutability": "nonpayable",
      "type": "function"
    },
    {
      "inputs": [
        {
          "internalType": "address",
          "name": "recipient",
          "type": "address"
        },
        {
          "internalType": "uint256",
          "name": "amountInBase",
          "type": "uint256"
        },
        {
          "internalType": "address",
          "name": "base",
          "type": "address"
        }
      ],
      "name": "payFromEther",
      "outputs": [],
      "stateMutability": "payable",
      "type": "function"
    },
    {
      "inputs": [
        {
          "internalType": "address",
          "name": "recipient",
          "type": "address"
        },
        {
          "internalType": "uint256",
          "name": "amountInBase",
          "type": "uint256"
        },
        {
          "internalType": "bytes",
          "name": "ref",
          "type": "bytes"
        }
      ],
      "name": "payFromEtherAndNotify",
      "outputs": [],
      "stateMutability": "payable",
      "type": "function"
    },
    {
      "inputs": [
        {
          "internalType": "address",
          "name": "ercAddress",
          "type": "address"
        },
        {
          "internalType": "address",
          "name": "to",
          "type": "address"
        },
        {
          "internalType": "uint256",
          "name": "amount",
          "type": "uint256"
        }
      ],
      "name": "recover",
      "outputs": [],
      "stateMutability": "nonpayable",
      "type": "function"
    },
    {
      "inputs": [],
      "name": "weth",
      "outputs": [
        {
          "internalType": "address",
          "name": "",
          "type": "address"
        }
      ],
      "stateMutability": "view",
      "type": "function"
    },
    {
      "stateMutability": "payable",
      "type": "receive"
    }
  ],
  "transactionHash": "0x2129d176d708bfad59e5608658a89f66fa7b7b9b2f7cacbff9db1725894df306",
  "args": [
    "0x449d117117838fFA61263B61dA6301AA2a88B13A",
    "0x5f4eC3Df9cbd43714FE2740f5E3616155c5b8419"
  ],
  "numDeployments": 2,
  "solcInputHash": "79803b37f9f5c1fe49ee98f562930e9e",
  "bytecode": "0x60e06040523480156200001157600080fd5b506040516200151038038062001510833981016040819052620000349162000125565b73b27308f9f90d607463bb33ea1bebb41c27ce5ab66001600160a01b0316634aa4a4fc6040518163ffffffff1660e01b815260040160206040518083038186803b1580156200008257600080fd5b505afa15801562000097573d6000803e3d6000fd5b505050506040513d601f19601f82011682018060405250810190620000bd919062000100565b6001600160601b0319606091821b811660805292811b831660a0521b1660c0526200015d565b80516001600160a01b0381168114620000fb57600080fd5b919050565b6000602082840312156200011357600080fd5b6200011e82620000e3565b9392505050565b600080604083850312156200013957600080fd5b6200014483620000e3565b91506200015460208401620000e3565b90509250929050565b60805160601c60a05160601c60c05160601c61136c620001a46000396000610a26015260006102d20152600081816101bb015281816108500152610c9b015261136c6000f3fe6080604052600436106100e05760003560e01c8063568f32541161007f578063c1d8e08a11610059578063c1d8e08a1461023d578063c8978fdb1461026d578063d3b3ca771461028d578063e25b37c6146102ad57600080fd5b8063568f3254146101f55780636fb0c7dc1461021557806395fe863c1461022857600080fd5b80631945b784116100bb5780631945b784146101495780631c9af2e3146101695780631ec82cb8146101895780633fc8cef3146101a957600080fd5b8062124e3d146100ec578063040c037a1461011457806317f565d21461012957600080fd5b366100e757005b600080fd5b3480156100f857600080fd5b506101016102cd565b6040519081526020015b60405180910390f35b6101276101223660046110fb565b61036c565b005b34801561013557600080fd5b506101276101443660046110fb565b610565565b34801561015557600080fd5b506101016101643660046111ab565b6105e8565b34801561017557600080fd5b50610127610184366004610f9a565b610651565b34801561019557600080fd5b506101276101a4366004610ee6565b610747565b3480156101b557600080fd5b506101dd7f000000000000000000000000000000000000000000000000000000000000000081565b6040516001600160a01b03909116815260200161010b565b34801561020157600080fd5b5061012761021036600461100c565b6107c9565b6101276102233660046110b9565b61083b565b34801561023457600080fd5b50610101610a21565b34801561024957600080fd5b5061025d610258366004610ea5565b610a7d565b604051901515815260200161010b565b34801561027957600080fd5b50610101610288366004611179565b610afd565b34801561029957600080fd5b506101276102a8366004610f27565b610b21565b3480156102b957600080fd5b506101016102c83660046111ab565b610bde565b6000807f00000000000000000000000000000000000000000000000000000000000000006001600160a01b031663feaf968c6040518163ffffffff1660e01b815260040160a06040518083038186803b15801561032957600080fd5b505afa15801561033d573d6000803e3d6000fd5b505050506040513d601f19601f8201168201806040525081019061036191906111db565b509195945050505050565b6000846001600160a01b0316635001f3b56040518163ffffffff1660e01b815260040160206040518083038186803b1580156103a757600080fd5b505afa1580156103bb573d6000803e3d6000fd5b505050506040513d601f19601f820116820180604052508101906103df9190610ec9565b90506103ea85610a7d565b156104cb5760006103fb85836105e8565b9050856001600160a01b03166369365c528284338989896040518763ffffffff1660e01b815260040161043295949392919061122b565b6020604051808303818588803b15801561044b57600080fd5b505af115801561045f573d6000803e3d6000fd5b50505050506040513d601f19601f820116820180604052508101906104849190611192565b50348110156104c557336108fc61049b83346112c0565b6040518115909202916000818181858888f193505050501580156104c3573d6000803e3d6000fd5b505b5061055e565b6104d685858361083b565b60405163349b2e2960e11b81526001600160a01b038616906369365c529061050a908490339089908990899060040161122b565b602060405180830381600087803b15801561052457600080fd5b505af1158015610538573d6000803e3d6000fd5b505050506040513d601f19601f8201168201806040525081019061055c9190611192565b505b5050505050565b6105e2846001600160a01b0316635001f3b56040518163ffffffff1660e01b815260040160206040518083038186803b1580156105a157600080fd5b505afa1580156105b5573d6000803e3d6000fd5b505050506040513d601f19601f820116820180604052508101906105d99190610ec9565b85858585610b21565b50505050565b60006105f382610dc1565b1561062857610600610a21565b61060984610afd565b610617906305f5e1006112a1565b610621919061127f565b905061064b565b610630610a21565b61063e846305f5e1006112a1565b610648919061127f565b90505b92915050565b60005b8381101561055c57856001600160a01b03166323b872dd3387878581811061067e5761067e611308565b90506020020160208101906106939190610ea5565b8686868181106106a5576106a5611308565b6040516001600160e01b031960e088901b1681526001600160a01b03958616600482015294909316602485015250602090910201356044820152606401602060405180830381600087803b1580156106fc57600080fd5b505af1158015610710573d6000803e3d6000fd5b505050506040513d601f19601f820116820180604052508101906107349190611157565b508061073f816112d7565b915050610654565b60405163a9059cbb60e01b81526001600160a01b0383811660048301526024820183905284169063a9059cbb90604401602060405180830381600087803b15801561079157600080fd5b505af11580156107a5573d6000803e3d6000fd5b505050506040513d601f19601f820116820180604052508101906105e29190611157565b60005b858110156108315761081f888888848181106107ea576107ea611308565b90506020020160208101906107ff9190610ea5565b87878581811061081157610811611308565b905060200201358686610b21565b80610829816112d7565b9150506107cc565b5050505050505050565b60408051610100810182526001600160a01b037f00000000000000000000000000000000000000000000000000000000000000008116825283811660208301908152610bb883850190815287831660608501908152426080860190815260a086018981523460c08801818152600060e08a018181529a51631b67c43360e31b81528a518a166004820152975189166024890152955162ffffff166044880152935187166064870152915160848601525160a4850152905160c4840152945190921660e48201529192909173e592427a0aece92de3edee1f18e0157c058615649163db3e219891610104016020604051808303818588803b15801561093e57600080fd5b505af1158015610952573d6000803e3d6000fd5b50505050506040513d601f19601f820116820180604052508101906109779190611192565b90503481101561055e5773e592427a0aece92de3edee1f18e0157c058615646001600160a01b03166312210e8a6040518163ffffffff1660e01b8152600401600060405180830381600087803b1580156109d057600080fd5b505af11580156109e4573d6000803e3d6000fd5b503392506108fc91506109f9905083346112c0565b6040518115909202916000818181858888f1935050505015801561055c573d6000803e3d6000fd5b6000807f00000000000000000000000000000000000000000000000000000000000000006001600160a01b031663feaf968c6040518163ffffffff1660e01b815260040160a06040518083038186803b15801561032957600080fd5b6000816001600160a01b031663e06174e46040518163ffffffff1660e01b815260040160206040518083038186803b158015610ab857600080fd5b505afa158015610acc573d6000803e3d6000fd5b505050506040513d601f19601f82011682018060405250810190610af09190611192565b6004166004149050919050565b60006305f5e10082610b0d6102cd565b610b1791906112a1565b61064b919061127f565b6040516323b872dd60e01b81523360048201526001600160a01b038581166024830152604482018590528616906323b872dd90606401602060405180830381600087803b158015610b7157600080fd5b505af1158015610b85573d6000803e3d6000fd5b505050506040513d601f19601f82011682018060405250810190610ba99190611157565b5060405163349b2e2960e11b81526001600160a01b038516906369365c529061050a908890339088908890889060040161122b565b60006001600160a01b03821615801590610bfc5750610bfc82610a7d565b15610c765761062183836001600160a01b0316635001f3b56040518163ffffffff1660e01b815260040160206040518083038186803b158015610c3e57600080fd5b505afa158015610c52573d6000803e3d6000fd5b505050506040513d601f19601f820116820180604052508101906101649190610ec9565b73b27308f9f90d607463bb33ea1bebb41c27ce5ab66001600160a01b03166330d07f217f0000000000000000000000000000000000000000000000000000000000000000846001600160a01b0316635001f3b56040518163ffffffff1660e01b815260040160206040518083038186803b158015610cf357600080fd5b505afa158015610d07573d6000803e3d6000fd5b505050506040513d601f19601f82011682018060405250810190610d2b9190610ec9565b6040516001600160e01b031960e085901b1681526001600160a01b03928316600482015291166024820152610bb86044820152606481018690526000608482015260a401602060405180830381600087803b158015610d8957600080fd5b505af1158015610d9d573d6000803e3d6000fd5b505050506040513d601f19601f820116820180604052508101906106219190611192565b60006001600160a01b03821673b4272071ecadd69d933adcd19ca99fe80664fc081415610df057506001919050565b506000919050565b60008083601f840112610e0a57600080fd5b50813567ffffffffffffffff811115610e2257600080fd5b6020830191508360208260051b8501011115610e3d57600080fd5b9250929050565b60008083601f840112610e5657600080fd5b50813567ffffffffffffffff811115610e6e57600080fd5b602083019150836020828501011115610e3d57600080fd5b805169ffffffffffffffffffff81168114610ea057600080fd5b919050565b600060208284031215610eb757600080fd5b8135610ec28161131e565b9392505050565b600060208284031215610edb57600080fd5b8151610ec28161131e565b600080600060608486031215610efb57600080fd5b8335610f068161131e565b92506020840135610f168161131e565b929592945050506040919091013590565b600080600080600060808688031215610f3f57600080fd5b8535610f4a8161131e565b94506020860135610f5a8161131e565b935060408601359250606086013567ffffffffffffffff811115610f7d57600080fd5b610f8988828901610e44565b969995985093965092949392505050565b600080600080600060608688031215610fb257600080fd5b8535610fbd8161131e565b9450602086013567ffffffffffffffff80821115610fda57600080fd5b610fe689838a01610df8565b90965094506040880135915080821115610fff57600080fd5b50610f8988828901610df8565b60008060008060008060006080888a03121561102757600080fd5b87356110328161131e565b9650602088013567ffffffffffffffff8082111561104f57600080fd5b61105b8b838c01610df8565b909850965060408a013591508082111561107457600080fd5b6110808b838c01610df8565b909650945060608a013591508082111561109957600080fd5b506110a68a828b01610e44565b989b979a50959850939692959293505050565b6000806000606084860312156110ce57600080fd5b83356110d98161131e565b92506020840135915060408401356110f08161131e565b809150509250925092565b6000806000806060858703121561111157600080fd5b843561111c8161131e565b935060208501359250604085013567ffffffffffffffff81111561113f57600080fd5b61114b87828801610e44565b95989497509550505050565b60006020828403121561116957600080fd5b81518015158114610ec257600080fd5b60006020828403121561118b57600080fd5b5035919050565b6000602082840312156111a457600080fd5b5051919050565b600080604083850312156111be57600080fd5b8235915060208301356111d08161131e565b809150509250929050565b600080600080600060a086880312156111f357600080fd5b6111fc86610e86565b945060208601519350604086015192506060860151915061121f60808701610e86565b90509295509295909350565b6001600160a01b038681168252851660208201526040810184905260806060820181905281018290526000828460a0840137600060a0848401015260a0601f19601f85011683010190509695505050505050565b60008261129c57634e487b7160e01b600052601260045260246000fd5b500490565b60008160001904831182151516156112bb576112bb6112f2565b500290565b6000828210156112d2576112d26112f2565b500390565b60006000198214156112eb576112eb6112f2565b5060010190565b634e487b7160e01b600052601160045260246000fd5b634e487b7160e01b600052603260045260246000fd5b6001600160a01b038116811461133357600080fd5b5056fea2646970667358221220bf9597afa36cf337c5eabaf751f10ffca09a8f68139b4bb6ba29b7c1e95e954a64736f6c63430008070033",
  "devdoc": {
    "kind": "dev",
    "methods": {},
    "version": 1
  },
  "userdoc": {
    "kind": "user",
    "methods": {
      "getLatestPriceCHFUSD()": {
        "notice": "Returns the latest price of chf/usd pair from chainlink with 8 decimals"
      },
      "getLatestPriceETHUSD()": {
        "notice": "Returns the latest price of eth/usd pair from chainlink with 8 decimals"
      },
      "getPriceInEther(uint256,address)": {
        "notice": "Get price in Ether depding on brokerbot setting. If keep ETH is set price is from oracle. This is the method that the Brokerbot widget should use to quote the price to the user."
      },
      "getPriceInEtherFromOracle(uint256,address)": {
        "notice": "Price in ETH with 18 decimals"
      },
      "getPriceInUSD(uint256)": {
        "notice": "Price in USD with 18 decimals"
      },
      "hasSettingKeepEther(address)": {
        "notice": "Checks if the recipient(brokerbot) has setting enabled to keep ether"
      },
      "multiPayAndNotify(address,address[],uint256[],bytes)": {
        "notice": "Can (at least in theory) save some gas as the sender balance only is touched in one transaction."
      },
      "payFromEther(address,uint256,address)": {
        "notice": "Convenience method to swap ether into currency and pay a target address"
      },
      "recover(address,address,uint256)": {
        "notice": "In case tokens have been accidentally sent directly to this contract. Make sure to be fast as anyone can call this!"
      }
    },
    "notice": "A hub for payments. This allows tokens that do not support ERC 677 to enjoy similar functionality, namely interacting with a token-handling smart contract in one transaction, without having to set an allowance first. Instead, an allowance needs to be set only once, namely for this contract. Further, it supports automatic conversion from Ether to the payment currency through Uniswap or the reception of Ether using the current exchange rate as found in the chainlink oracle.",
    "version": 1
  },
  "storageLayout": {
    "storage": [],
    "types": null
  }
}