{
  "address": "0xFFD6F1b3bc223C6D3AB4AF32167B4A93a148CA39",
  "abi": [
    {
      "inputs": [
        {
          "internalType": "address",
          "name": "_currency",
          "type": "address"
        },
        {
          "internalType": "address",
          "name": "_aggregatorCHFUSD",
          "type": "address"
        },
        {
          "internalType": "address",
          "name": "_aggregatorETHUSD",
          "type": "address"
        }
      ],
      "stateMutability": "nonpayable",
      "type": "constructor"
    },
    {
      "inputs": [],
      "name": "currency",
      "outputs": [
        {
          "internalType": "address",
          "name": "",
          "type": "address"
        }
      ],
      "stateMutability": "view",
      "type": "function"
    },
    {
      "inputs": [],
      "name": "getLatestPriceCHFUSD",
      "outputs": [
        {
          "internalType": "int256",
          "name": "",
          "type": "int256"
        }
      ],
      "stateMutability": "view",
      "type": "function"
    },
    {
      "inputs": [],
      "name": "getLatestPriceETHUSD",
      "outputs": [
        {
          "internalType": "int256",
          "name": "",
          "type": "int256"
        }
      ],
      "stateMutability": "view",
      "type": "function"
    },
    {
      "inputs": [
        {
          "internalType": "uint256",
          "name": "amountOfXCHF",
          "type": "uint256"
        }
      ],
      "name": "getPriceInEther",
      "outputs": [
        {
          "internalType": "uint256",
          "name": "",
          "type": "uint256"
        }
      ],
      "stateMutability": "nonpayable",
      "type": "function"
    },
    {
      "inputs": [
        {
          "internalType": "uint256",
          "name": "amountOfXCHF",
          "type": "uint256"
        },
        {
          "internalType": "address",
          "name": "brokerBot",
          "type": "address"
        }
      ],
      "name": "getPriceInEther",
      "outputs": [
        {
          "internalType": "uint256",
          "name": "",
          "type": "uint256"
        }
      ],
      "stateMutability": "nonpayable",
      "type": "function"
    },
    {
      "inputs": [
        {
          "internalType": "uint256",
          "name": "amountOfXCHF",
          "type": "uint256"
        }
      ],
      "name": "getPriceInEtherFromOracle",
      "outputs": [
        {
          "internalType": "uint256",
          "name": "",
          "type": "uint256"
        }
      ],
      "stateMutability": "view",
      "type": "function"
    },
    {
      "inputs": [
        {
          "internalType": "uint256",
          "name": "amountOfCHF",
          "type": "uint256"
        }
      ],
      "name": "getPriceInUSD",
      "outputs": [
        {
          "internalType": "uint256",
          "name": "",
          "type": "uint256"
        }
      ],
      "stateMutability": "view",
      "type": "function"
    },
    {
      "inputs": [
        {
          "internalType": "address",
          "name": "recipient",
          "type": "address"
        }
      ],
      "name": "hasSettingKeepEther",
      "outputs": [
        {
          "internalType": "bool",
          "name": "",
          "type": "bool"
        }
      ],
      "stateMutability": "view",
      "type": "function"
    },
    {
      "inputs": [
        {
          "internalType": "address",
          "name": "token",
          "type": "address"
        },
        {
          "internalType": "address[]",
          "name": "recipients",
          "type": "address[]"
        },
        {
          "internalType": "uint256[]",
          "name": "amounts",
          "type": "uint256[]"
        }
      ],
      "name": "multiPay",
      "outputs": [],
      "stateMutability": "nonpayable",
      "type": "function"
    },
    {
      "inputs": [
        {
          "internalType": "address[]",
          "name": "recipients",
          "type": "address[]"
        },
        {
          "internalType": "uint256[]",
          "name": "amounts",
          "type": "uint256[]"
        }
      ],
      "name": "multiPay",
      "outputs": [],
      "stateMutability": "nonpayable",
      "type": "function"
    },
    {
      "inputs": [
        {
          "internalType": "address",
          "name": "token",
          "type": "address"
        },
        {
          "internalType": "address[]",
          "name": "recipients",
          "type": "address[]"
        },
        {
          "internalType": "uint256[]",
          "name": "amounts",
          "type": "uint256[]"
        },
        {
          "internalType": "bytes",
          "name": "ref",
          "type": "bytes"
        }
      ],
      "name": "multiPayAndNotify",
      "outputs": [],
      "stateMutability": "nonpayable",
      "type": "function"
    },
    {
      "inputs": [
        {
          "internalType": "address",
          "name": "recipient",
          "type": "address"
        },
        {
          "internalType": "uint256",
          "name": "xchfamount",
          "type": "uint256"
        },
        {
          "internalType": "bytes",
          "name": "ref",
          "type": "bytes"
        }
      ],
      "name": "payAndNotify",
      "outputs": [],
      "stateMutability": "nonpayable",
      "type": "function"
    },
    {
      "inputs": [
        {
          "internalType": "address",
          "name": "token",
          "type": "address"
        },
        {
          "internalType": "address",
          "name": "recipient",
          "type": "address"
        },
        {
          "internalType": "uint256",
          "name": "amount",
          "type": "uint256"
        },
        {
          "internalType": "bytes",
          "name": "ref",
          "type": "bytes"
        }
      ],
      "name": "payAndNotify",
      "outputs": [],
      "stateMutability": "nonpayable",
      "type": "function"
    },
    {
      "inputs": [
        {
          "internalType": "address",
          "name": "recipient",
          "type": "address"
        },
        {
          "internalType": "uint256",
          "name": "xchfamount",
          "type": "uint256"
        }
      ],
      "name": "payFromEther",
      "outputs": [],
      "stateMutability": "payable",
      "type": "function"
    },
    {
      "inputs": [
        {
          "internalType": "address",
          "name": "recipient",
          "type": "address"
        },
        {
          "internalType": "uint256",
          "name": "xchfamount",
          "type": "uint256"
        },
        {
          "internalType": "bytes",
          "name": "ref",
          "type": "bytes"
        }
      ],
      "name": "payFromEtherAndNotify",
      "outputs": [],
      "stateMutability": "payable",
      "type": "function"
    },
    {
      "inputs": [
        {
          "internalType": "address",
          "name": "ercAddress",
          "type": "address"
        },
        {
          "internalType": "address",
          "name": "to",
          "type": "address"
        },
        {
          "internalType": "uint256",
          "name": "amount",
          "type": "uint256"
        }
      ],
      "name": "recover",
      "outputs": [],
      "stateMutability": "nonpayable",
      "type": "function"
    },
    {
      "inputs": [],
      "name": "weth",
      "outputs": [
        {
          "internalType": "address",
          "name": "",
          "type": "address"
        }
      ],
      "stateMutability": "view",
      "type": "function"
    },
    {
      "stateMutability": "payable",
      "type": "receive"
    }
  ],
  "transactionHash": "0xf2cbb7f4a11df5bcc6d9acade1459eafcde16b155bb6f9c2523d8502ee9f120e",
  "args": [
    "0xB4272071eCAdd69d933AdcD19cA99fe80664fc08",
    "0x449d117117838fFA61263B61dA6301AA2a88B13A",
    "0x5f4eC3Df9cbd43714FE2740f5E3616155c5b8419"
  ],
  "solcInputHash": "069943096be5d6e3b9b819d8e086a0bc",
  "bytecode": "0x60c06040523480156200001157600080fd5b50604051620014a0380380620014a0833981016040819052620000349162000153565b6001600160601b0319606084901b1660a052604080516312a9293f60e21b8152905173b27308f9f90d607463bb33ea1bebb41c27ce5ab691634aa4a4fc916004808301926020929190829003018186803b1580156200009257600080fd5b505afa158015620000a7573d6000803e3d6000fd5b505050506040513d601f19601f82011682018060405250810190620000cd91906200012e565b60601b6001600160601b031916608052600080546001600160a01b03199081166001600160a01b03948516179091556001805490911691909216179055506200019d565b80516001600160a01b03811681146200012957600080fd5b919050565b6000602082840312156200014157600080fd5b6200014c8262000111565b9392505050565b6000806000606084860312156200016957600080fd5b620001748462000111565b9250620001846020850162000111565b9150620001946040850162000111565b90509250925092565b60805160601c60a05160601c61129f620002016000396000818161034001528181610417015281816105210152818161058f015281816107a40152818161086a0152610c6a0152600081816101bc015281816108450152610c42015261129f6000f3fe6080604052600436106101015760003560e01c806395fe863c11610095578063c8978fdb11610064578063c8978fdb146102ae578063cbb30245146102ce578063d3b3ca77146102ee578063e25b37c61461030e578063e5a6b10f1461032e57600080fd5b806395fe863c14610236578063ae539d801461024b578063b5a1ad921461026b578063c1d8e08a1461027e57600080fd5b80631ec82cb8116100d15780631ec82cb81461018a5780633fc8cef3146101aa578063568f3254146101f65780639520bd461461021657600080fd5b8062124e3d1461010d578063040c037a1461013557806317f565d21461014a5780631c9af2e31461016a57600080fd5b3661010857005b600080fd5b34801561011957600080fd5b50610122610362565b6040519081526020015b60405180910390f35b610148610143366004610fec565b6103ea565b005b34801561015657600080fd5b50610148610165366004610fec565b61058a565b34801561017657600080fd5b50610148610185366004610ea7565b6105b7565b34801561019657600080fd5b506101486101a5366004610dfc565b6106b5565b3480156101b657600080fd5b506101de7f000000000000000000000000000000000000000000000000000000000000000081565b6040516001600160a01b03909116815260200161012c565b34801561020257600080fd5b50610148610211366004610f17565b610737565b34801561022257600080fd5b50610148610231366004611046565b61079f565b34801561024257600080fd5b506101226107cc565b34801561025757600080fd5b506101226102663660046110c8565b61081d565b610148610279366004610fc2565b610830565b34801561028a57600080fd5b5061029e610299366004610dda565b610a3d565b604051901515815260200161012c565b3480156102ba57600080fd5b506101226102c93660046110c8565b610abd565b3480156102da57600080fd5b506101226102e93660046110c8565b610ae1565b3480156102fa57600080fd5b50610148610309366004610e38565b610b02565b34801561031a57600080fd5b506101226103293660046110fa565b610bf8565b34801561033a57600080fd5b506101de7f000000000000000000000000000000000000000000000000000000000000000081565b6000805460408051633fabe5a360e21b8152905183926001600160a01b03169163feaf968c9160048083019260a0929190829003018186803b1580156103a757600080fd5b505afa1580156103bb573d6000803e3d6000fd5b505050506040513d601f19601f820116820180604052508101906103df9190611126565b509195945050505050565b6103f384610a3d565b156104f357600061040384610ae1565b9050846001600160a01b03166369365c52827f0000000000000000000000000000000000000000000000000000000000000000338888886040518763ffffffff1660e01b815260040161045a959493929190611176565b6020604051808303818588803b15801561047357600080fd5b505af1158015610487573d6000803e3d6000fd5b50505050506040513d601f19601f820116820180604052508101906104ac91906110e1565b50348110156104ed57336108fc6104c3833461120b565b6040518115909202916000818181858888f193505050501580156104eb573d6000803e3d6000fd5b505b50610584565b6104fd8484610830565b604051631afc0d9560e31b81526001600160a01b0385169063d7e06ca890610551907f0000000000000000000000000000000000000000000000000000000000000000903390889088908890600401611176565b600060405180830381600087803b15801561056b57600080fd5b505af115801561057f573d6000803e3d6000fd5b505050505b50505050565b6105847f000000000000000000000000000000000000000000000000000000000000000085858585610b02565b60005b838110156106ad57856001600160a01b03166323b872dd338787858181106105e4576105e4611253565b90506020020160208101906105f99190610dda565b86868681811061060b5761060b611253565b6040516001600160e01b031960e088901b1681526001600160a01b03958616600482015294909316602485015250602090910201356044820152606401602060405180830381600087803b15801561066257600080fd5b505af1158015610676573d6000803e3d6000fd5b505050506040513d601f19601f8201168201806040525081019061069a91906110a6565b50806106a581611222565b9150506105ba565b505050505050565b60405163a9059cbb60e01b81526001600160a01b0383811660048301526024820183905284169063a9059cbb90604401602060405180830381600087803b1580156106ff57600080fd5b505af1158015610713573d6000803e3d6000fd5b505050506040513d601f19601f8201168201806040525081019061058491906110a6565b60005b8581101561057f5761078d8888888481811061075857610758611253565b905060200201602081019061076d9190610dda565b87878581811061077f5761077f611253565b905060200201358686610b02565b8061079781611222565b91505061073a565b6105847f0000000000000000000000000000000000000000000000000000000000000000858585856105b7565b600080600160009054906101000a90046001600160a01b03166001600160a01b031663feaf968c6040518163ffffffff1660e01b815260040160a06040518083038186803b1580156103a757600080fd5b600061082a826000610bf8565b92915050565b60408051610100810182526001600160a01b037f0000000000000000000000000000000000000000000000000000000000000000811682527f0000000000000000000000000000000000000000000000000000000000000000811660208301908152610bb883850190815286831660608501908152426080860190815260a086018881523460c08801818152600060e08a018181529a51631b67c43360e31b81528a518a166004820152975189166024890152955162ffffff166044880152935187166064870152915160848601525160a4850152905160c4840152945190921660e48201529192909173e592427a0aece92de3edee1f18e0157c058615649163db3e219891610104016020604051808303818588803b15801561095357600080fd5b505af1158015610967573d6000803e3d6000fd5b50505050506040513d601f19601f8201168201806040525081019061098c91906110e1565b9050348110156105845773e592427a0aece92de3edee1f18e0157c058615646001600160a01b03166312210e8a6040518163ffffffff1660e01b8152600401600060405180830381600087803b1580156109e557600080fd5b505af11580156109f9573d6000803e3d6000fd5b503392506108fc9150610a0e9050833461120b565b6040518115909202916000818181858888f19350505050158015610a36573d6000803e3d6000fd5b5050505050565b6000816001600160a01b031663e06174e46040518163ffffffff1660e01b815260040160206040518083038186803b158015610a7857600080fd5b505afa158015610a8c573d6000803e3d6000fd5b505050506040513d601f19601f82011682018060405250810190610ab091906110e1565b6004166004149050919050565b60006305f5e10082610acd610362565b610ad791906111ec565b61082a91906111ca565b6000610aeb6107cc565b610af483610abd565b610ad7906305f5e1006111ec565b6040516323b872dd60e01b81523360048201526001600160a01b038581166024830152604482018590528616906323b872dd90606401602060405180830381600087803b158015610b5257600080fd5b505af1158015610b66573d6000803e3d6000fd5b505050506040513d601f19601f82011682018060405250810190610b8a91906110a6565b50604051631afc0d9560e31b81526001600160a01b0385169063d7e06ca890610bbf9088903390889088908890600401611176565b600060405180830381600087803b158015610bd957600080fd5b505af1158015610bed573d6000803e3d6000fd5b505050505050505050565b60006001600160a01b03821615801590610c165750610c1682610a3d565b15610c2b57610c2483610ae1565b905061082a565b6040516330d07f2160e01b81526001600160a01b037f0000000000000000000000000000000000000000000000000000000000000000811660048301527f0000000000000000000000000000000000000000000000000000000000000000166024820152610bb86044820152606481018490526000608482015273b27308f9f90d607463bb33ea1bebb41c27ce5ab6906330d07f219060a401602060405180830381600087803b158015610cde57600080fd5b505af1158015610cf2573d6000803e3d6000fd5b505050506040513d601f19601f82011682018060405250810190610c2491906110e1565b80356001600160a01b0381168114610d2d57600080fd5b919050565b60008083601f840112610d4457600080fd5b50813567ffffffffffffffff811115610d5c57600080fd5b6020830191508360208260051b8501011115610d7757600080fd5b9250929050565b60008083601f840112610d9057600080fd5b50813567ffffffffffffffff811115610da857600080fd5b602083019150836020828501011115610d7757600080fd5b805169ffffffffffffffffffff81168114610d2d57600080fd5b600060208284031215610dec57600080fd5b610df582610d16565b9392505050565b600080600060608486031215610e1157600080fd5b610e1a84610d16565b9250610e2860208501610d16565b9150604084013590509250925092565b600080600080600060808688031215610e5057600080fd5b610e5986610d16565b9450610e6760208701610d16565b935060408601359250606086013567ffffffffffffffff811115610e8a57600080fd5b610e9688828901610d7e565b969995985093965092949392505050565b600080600080600060608688031215610ebf57600080fd5b610ec886610d16565b9450602086013567ffffffffffffffff80821115610ee557600080fd5b610ef189838a01610d32565b90965094506040880135915080821115610f0a57600080fd5b50610e9688828901610d32565b60008060008060008060006080888a031215610f3257600080fd5b610f3b88610d16565b9650602088013567ffffffffffffffff80821115610f5857600080fd5b610f648b838c01610d32565b909850965060408a0135915080821115610f7d57600080fd5b610f898b838c01610d32565b909650945060608a0135915080821115610fa257600080fd5b50610faf8a828b01610d7e565b989b979a50959850939692959293505050565b60008060408385031215610fd557600080fd5b610fde83610d16565b946020939093013593505050565b6000806000806060858703121561100257600080fd5b61100b85610d16565b935060208501359250604085013567ffffffffffffffff81111561102e57600080fd5b61103a87828801610d7e565b95989497509550505050565b6000806000806040858703121561105c57600080fd5b843567ffffffffffffffff8082111561107457600080fd5b61108088838901610d32565b9096509450602087013591508082111561109957600080fd5b5061103a87828801610d32565b6000602082840312156110b857600080fd5b81518015158114610df557600080fd5b6000602082840312156110da57600080fd5b5035919050565b6000602082840312156110f357600080fd5b5051919050565b6000806040838503121561110d57600080fd5b8235915061111d60208401610d16565b90509250929050565b600080600080600060a0868803121561113e57600080fd5b61114786610dc0565b945060208601519350604086015192506060860151915061116a60808701610dc0565b90509295509295909350565b6001600160a01b038681168252851660208201526040810184905260806060820181905281018290526000828460a0840137600060a0848401015260a0601f19601f85011683010190509695505050505050565b6000826111e757634e487b7160e01b600052601260045260246000fd5b500490565b60008160001904831182151516156112065761120661123d565b500290565b60008282101561121d5761121d61123d565b500390565b60006000198214156112365761123661123d565b5060010190565b634e487b7160e01b600052601160045260246000fd5b634e487b7160e01b600052603260045260246000fdfea26469706673582212204760df4373527f1d8bc6a047ff96d8470a7b8ac579f1ae33c7cd0168047f3b3364736f6c63430008070033",
  "devdoc": {
    "kind": "dev",
    "methods": {},
    "version": 1
  },
  "userdoc": {
    "kind": "user",
    "methods": {
      "getLatestPriceCHFUSD()": {
        "notice": "Returns the latest price of chf/usd pair from chainlink with 8 decimals"
      },
      "getLatestPriceETHUSD()": {
        "notice": "Returns the latest price of eth/usd pair from chainlink with 8 decimals"
      },
      "getPriceInEther(uint256,address)": {
        "notice": "Get price in Ether depding on brokerbot setting. If keep ETH is set price is from oracle. This is the method that the Brokerbot widget should use to quote the price to the user."
      },
      "getPriceInEtherFromOracle(uint256)": {
        "notice": "Price in ETH with 18 decimals"
      },
      "getPriceInUSD(uint256)": {
        "notice": "Price in USD with 18 decimals"
      },
      "hasSettingKeepEther(address)": {
        "notice": "Checks if the recipient(brokerbot) has setting enabled to keep ether"
      },
      "multiPayAndNotify(address,address[],uint256[],bytes)": {
        "notice": "Can (at least in theory) save some gas as the sender balance only is touched in one transaction."
      },
      "payFromEther(address,uint256)": {
        "notice": "Convenience method to swap ether into currency and pay a target address"
      },
      "recover(address,address,uint256)": {
        "notice": "In case tokens have been accidentally sent directly to this contract. Make sure to be fast as anyone can call this!"
      }
    },
    "notice": "A hub for payments. This allows tokens that do not support ERC 677 to enjoy similar functionality, namely interacting with a token-handling smart contract in one transaction, without having to set an allowance first. Instead, an allowance needs to be set only once, namely for this contract. Further, it supports automatic conversion from Ether to the payment currency through Uniswap.",
    "version": 1
  },
  "storageLayout": {
    "storage": [
      {
        "astId": 16835,
        "contract": "src/shares/PaymentHub.sol:PaymentHub",
        "label": "priceFeedCHFUSD",
        "offset": 0,
        "slot": "0",
        "type": "t_contract(AggregatorV3Interface)45"
      },
      {
        "astId": 16838,
        "contract": "src/shares/PaymentHub.sol:PaymentHub",
        "label": "priceFeedETHUSD",
        "offset": 0,
        "slot": "1",
        "type": "t_contract(AggregatorV3Interface)45"
      }
    ],
    "types": {
      "t_contract(AggregatorV3Interface)45": {
        "encoding": "inplace",
        "label": "contract AggregatorV3Interface",
        "numberOfBytes": "20"
      }
    }
  }
}