{
  "address": "0x7686a6F82715Debd78fd6a507b60B9A752A0a2D6",
  "abi": [
    {
      "inputs": [
        {
          "internalType": "string",
          "name": "_terms",
          "type": "string"
        },
        {
          "internalType": "address",
          "name": "_wrappedToken",
          "type": "address"
        },
        {
          "internalType": "uint256",
          "name": "_quorumBps",
          "type": "uint256"
        },
        {
          "internalType": "uint256",
          "name": "_votePeriodSeconds",
          "type": "uint256"
        },
        {
          "internalType": "address",
          "name": "_recoveryHub",
          "type": "address"
        },
        {
          "internalType": "address",
          "name": "_offerFactory",
          "type": "address"
        },
        {
          "internalType": "address",
          "name": "_oracle",
          "type": "address"
        }
      ],
      "stateMutability": "nonpayable",
      "type": "constructor"
    },
    {
      "anonymous": false,
      "inputs": [
        {
          "indexed": true,
          "internalType": "address",
          "name": "owner",
          "type": "address"
        },
        {
          "indexed": true,
          "internalType": "address",
          "name": "spender",
          "type": "address"
        },
        {
          "indexed": false,
          "internalType": "uint256",
          "name": "value",
          "type": "uint256"
        }
      ],
      "name": "Approval",
      "type": "event"
    },
    {
      "anonymous": false,
      "inputs": [
        {
          "indexed": false,
          "internalType": "address",
          "name": "newContractAddress",
          "type": "address"
        },
        {
          "indexed": false,
          "internalType": "uint256",
          "name": "yesVotes",
          "type": "uint256"
        },
        {
          "indexed": false,
          "internalType": "uint256",
          "name": "oracleVotes",
          "type": "uint256"
        },
        {
          "indexed": false,
          "internalType": "uint256",
          "name": "totalVotingPower",
          "type": "uint256"
        }
      ],
      "name": "MigrationSucceeded",
      "type": "event"
    },
    {
      "anonymous": false,
      "inputs": [
        {
          "indexed": false,
          "internalType": "string",
          "name": "name",
          "type": "string"
        },
        {
          "indexed": false,
          "internalType": "string",
          "name": "symbol",
          "type": "string"
        }
      ],
      "name": "NameChanged",
      "type": "event"
    },
    {
      "anonymous": false,
      "inputs": [
        {
          "indexed": true,
          "internalType": "address",
          "name": "from",
          "type": "address"
        },
        {
          "indexed": true,
          "internalType": "address",
          "name": "to",
          "type": "address"
        },
        {
          "indexed": false,
          "internalType": "uint256",
          "name": "value",
          "type": "uint256"
        }
      ],
      "name": "Transfer",
      "type": "event"
    },
    {
      "inputs": [
        {
          "internalType": "address",
          "name": "owner",
          "type": "address"
        },
        {
          "internalType": "address",
          "name": "spender",
          "type": "address"
        }
      ],
      "name": "allowance",
      "outputs": [
        {
          "internalType": "uint256",
          "name": "",
          "type": "uint256"
        }
      ],
      "stateMutability": "view",
      "type": "function"
    },
    {
      "inputs": [
        {
          "internalType": "address",
          "name": "spender",
          "type": "address"
        },
        {
          "internalType": "uint256",
          "name": "value",
          "type": "uint256"
        }
      ],
      "name": "approve",
      "outputs": [
        {
          "internalType": "bool",
          "name": "",
          "type": "bool"
        }
      ],
      "stateMutability": "nonpayable",
      "type": "function"
    },
    {
      "inputs": [
        {
          "internalType": "address",
          "name": "account",
          "type": "address"
        }
      ],
      "name": "balanceOf",
      "outputs": [
        {
          "internalType": "uint256",
          "name": "",
          "type": "uint256"
        }
      ],
      "stateMutability": "view",
      "type": "function"
    },
    {
      "inputs": [
        {
          "internalType": "uint256",
          "name": "amount",
          "type": "uint256"
        }
      ],
      "name": "burn",
      "outputs": [],
      "stateMutability": "nonpayable",
      "type": "function"
    },
    {
      "inputs": [],
      "name": "claimPeriod",
      "outputs": [
        {
          "internalType": "uint256",
          "name": "",
          "type": "uint256"
        }
      ],
      "stateMutability": "pure",
      "type": "function"
    },
    {
      "inputs": [],
      "name": "customCollateralAddress",
      "outputs": [
        {
          "internalType": "address",
          "name": "",
          "type": "address"
        }
      ],
      "stateMutability": "view",
      "type": "function"
    },
    {
      "inputs": [],
      "name": "customCollateralRate",
      "outputs": [
        {
          "internalType": "uint256",
          "name": "",
          "type": "uint256"
        }
      ],
      "stateMutability": "view",
      "type": "function"
    },
    {
      "inputs": [],
      "name": "decimals",
      "outputs": [
        {
          "internalType": "uint8",
          "name": "",
          "type": "uint8"
        }
      ],
      "stateMutability": "view",
      "type": "function"
    },
    {
      "inputs": [
        {
          "internalType": "address",
          "name": "lostAddress",
          "type": "address"
        }
      ],
      "name": "deleteClaim",
      "outputs": [],
      "stateMutability": "nonpayable",
      "type": "function"
    },
    {
      "inputs": [
        {
          "internalType": "address",
          "name": "buyer",
          "type": "address"
        },
        {
          "internalType": "address",
          "name": "currency",
          "type": "address"
        }
      ],
      "name": "drag",
      "outputs": [],
      "stateMutability": "nonpayable",
      "type": "function"
    },
    {
      "inputs": [],
      "name": "factory",
      "outputs": [
        {
          "internalType": "contract IOfferFactory",
          "name": "",
          "type": "address"
        }
      ],
      "stateMutability": "view",
      "type": "function"
    },
    {
      "inputs": [],
      "name": "getClaimDeleter",
      "outputs": [
        {
          "internalType": "address",
          "name": "",
          "type": "address"
        }
      ],
      "stateMutability": "view",
      "type": "function"
    },
    {
      "inputs": [
        {
          "internalType": "address",
          "name": "collateralType",
          "type": "address"
        }
      ],
      "name": "getCollateralRate",
      "outputs": [
        {
          "internalType": "uint256",
          "name": "",
          "type": "uint256"
        }
      ],
      "stateMutability": "view",
      "type": "function"
    },
    {
      "inputs": [],
      "name": "getOracle",
      "outputs": [
        {
          "internalType": "address",
          "name": "",
          "type": "address"
        }
      ],
      "stateMutability": "view",
      "type": "function"
    },
    {
      "inputs": [
        {
          "internalType": "address",
          "name": "account",
          "type": "address"
        },
        {
          "internalType": "uint8",
          "name": "number",
          "type": "uint8"
        }
      ],
      "name": "hasFlag",
      "outputs": [
        {
          "internalType": "bool",
          "name": "",
          "type": "bool"
        }
      ],
      "stateMutability": "view",
      "type": "function"
    },
    {
      "inputs": [],
      "name": "isBinding",
      "outputs": [
        {
          "internalType": "bool",
          "name": "",
          "type": "bool"
        }
      ],
      "stateMutability": "view",
      "type": "function"
    },
    {
      "inputs": [
        {
          "internalType": "bytes32",
          "name": "salt",
          "type": "bytes32"
        },
        {
          "internalType": "uint256",
          "name": "pricePerShare",
          "type": "uint256"
        },
        {
          "internalType": "address",
          "name": "currency",
          "type": "address"
        }
      ],
      "name": "makeAcquisitionOffer",
      "outputs": [],
      "stateMutability": "payable",
      "type": "function"
    },
    {
      "inputs": [],
      "name": "migrate",
      "outputs": [],
      "stateMutability": "nonpayable",
      "type": "function"
    },
    {
      "inputs": [
        {
          "internalType": "address",
          "name": "target",
          "type": "address"
        },
        {
          "internalType": "uint256",
          "name": "externalSupportingVotes",
          "type": "uint256"
        }
      ],
      "name": "migrateWithExternalApproval",
      "outputs": [],
      "stateMutability": "nonpayable",
      "type": "function"
    },
    {
      "inputs": [],
      "name": "name",
      "outputs": [
        {
          "internalType": "string",
          "name": "",
          "type": "string"
        }
      ],
      "stateMutability": "view",
      "type": "function"
    },
    {
      "inputs": [
        {
          "internalType": "address",
          "name": "target",
          "type": "address"
        }
      ],
      "name": "notifyClaimDeleted",
      "outputs": [],
      "stateMutability": "nonpayable",
      "type": "function"
    },
    {
      "inputs": [
        {
          "internalType": "address",
          "name": "target",
          "type": "address"
        }
      ],
      "name": "notifyClaimMade",
      "outputs": [],
      "stateMutability": "nonpayable",
      "type": "function"
    },
    {
      "inputs": [],
      "name": "notifyOfferEnded",
      "outputs": [],
      "stateMutability": "nonpayable",
      "type": "function"
    },
    {
      "inputs": [
        {
          "internalType": "address",
          "name": "voter",
          "type": "address"
        }
      ],
      "name": "notifyVoted",
      "outputs": [],
      "stateMutability": "nonpayable",
      "type": "function"
    },
    {
      "inputs": [],
      "name": "offer",
      "outputs": [
        {
          "internalType": "contract IOffer",
          "name": "",
          "type": "address"
        }
      ],
      "stateMutability": "view",
      "type": "function"
    },
    {
      "inputs": [
        {
          "internalType": "address",
          "name": "from",
          "type": "address"
        },
        {
          "internalType": "uint256",
          "name": "amount",
          "type": "uint256"
        },
        {
          "internalType": "bytes",
          "name": "",
          "type": "bytes"
        }
      ],
      "name": "onTokenTransfer",
      "outputs": [
        {
          "internalType": "bool",
          "name": "",
          "type": "bool"
        }
      ],
      "stateMutability": "nonpayable",
      "type": "function"
    },
    {
      "inputs": [],
      "name": "quorum",
      "outputs": [
        {
          "internalType": "uint256",
          "name": "",
          "type": "uint256"
        }
      ],
      "stateMutability": "view",
      "type": "function"
    },
    {
      "inputs": [
        {
          "internalType": "address",
          "name": "oldAddress",
          "type": "address"
        },
        {
          "internalType": "address",
          "name": "newAddress",
          "type": "address"
        }
      ],
      "name": "recover",
      "outputs": [],
      "stateMutability": "nonpayable",
      "type": "function"
    },
    {
      "inputs": [],
      "name": "recovery",
      "outputs": [
        {
          "internalType": "contract IRecoveryHub",
          "name": "",
          "type": "address"
        }
      ],
      "stateMutability": "view",
      "type": "function"
    },
    {
      "inputs": [
        {
          "internalType": "address",
          "name": "newOracle",
          "type": "address"
        }
      ],
      "name": "setOracle",
      "outputs": [],
      "stateMutability": "nonpayable",
      "type": "function"
    },
    {
      "inputs": [],
      "name": "symbol",
      "outputs": [
        {
          "internalType": "string",
          "name": "",
          "type": "string"
        }
      ],
      "stateMutability": "view",
      "type": "function"
    },
    {
      "inputs": [],
      "name": "terms",
      "outputs": [
        {
          "internalType": "string",
          "name": "",
          "type": "string"
        }
      ],
      "stateMutability": "view",
      "type": "function"
    },
    {
      "inputs": [],
      "name": "totalSupply",
      "outputs": [
        {
          "internalType": "uint256",
          "name": "",
          "type": "uint256"
        }
      ],
      "stateMutability": "view",
      "type": "function"
    },
    {
      "inputs": [],
      "name": "totalVotingTokens",
      "outputs": [
        {
          "internalType": "uint256",
          "name": "",
          "type": "uint256"
        }
      ],
      "stateMutability": "view",
      "type": "function"
    },
    {
      "inputs": [
        {
          "internalType": "address",
          "name": "to",
          "type": "address"
        },
        {
          "internalType": "uint256",
          "name": "value",
          "type": "uint256"
        }
      ],
      "name": "transfer",
      "outputs": [
        {
          "internalType": "bool",
          "name": "",
          "type": "bool"
        }
      ],
      "stateMutability": "nonpayable",
      "type": "function"
    },
    {
      "inputs": [
        {
          "internalType": "address",
          "name": "recipient",
          "type": "address"
        },
        {
          "internalType": "uint256",
          "name": "amount",
          "type": "uint256"
        },
        {
          "internalType": "bytes",
          "name": "data",
          "type": "bytes"
        }
      ],
      "name": "transferAndCall",
      "outputs": [
        {
          "internalType": "bool",
          "name": "",
          "type": "bool"
        }
      ],
      "stateMutability": "nonpayable",
      "type": "function"
    },
    {
      "inputs": [
        {
          "internalType": "address",
          "name": "sender",
          "type": "address"
        },
        {
          "internalType": "address",
          "name": "recipient",
          "type": "address"
        },
        {
          "internalType": "uint256",
          "name": "amount",
          "type": "uint256"
        }
      ],
      "name": "transferFrom",
      "outputs": [
        {
          "internalType": "bool",
          "name": "",
          "type": "bool"
        }
      ],
      "stateMutability": "nonpayable",
      "type": "function"
    },
    {
      "inputs": [
        {
          "internalType": "uint256",
          "name": "amount",
          "type": "uint256"
        }
      ],
      "name": "unwrap",
      "outputs": [],
      "stateMutability": "nonpayable",
      "type": "function"
    },
    {
      "inputs": [],
      "name": "unwrapConversionFactor",
      "outputs": [
        {
          "internalType": "uint256",
          "name": "",
          "type": "uint256"
        }
      ],
      "stateMutability": "view",
      "type": "function"
    },
    {
      "inputs": [],
      "name": "votePeriod",
      "outputs": [
        {
          "internalType": "uint256",
          "name": "",
          "type": "uint256"
        }
      ],
      "stateMutability": "view",
      "type": "function"
    },
    {
      "inputs": [
        {
          "internalType": "address",
          "name": "voter",
          "type": "address"
        }
      ],
      "name": "votingPower",
      "outputs": [
        {
          "internalType": "uint256",
          "name": "",
          "type": "uint256"
        }
      ],
      "stateMutability": "view",
      "type": "function"
    },
    {
      "inputs": [
        {
          "internalType": "address",
          "name": "shareholder",
          "type": "address"
        },
        {
          "internalType": "uint256",
          "name": "amount",
          "type": "uint256"
        }
      ],
      "name": "wrap",
      "outputs": [],
      "stateMutability": "nonpayable",
      "type": "function"
    },
    {
      "inputs": [],
      "name": "wrapped",
      "outputs": [
        {
          "internalType": "contract IERC20",
          "name": "",
          "type": "address"
        }
      ],
      "stateMutability": "view",
      "type": "function"
    }
  ],
  "transactionHash": "0xc4f7d2375be95822c808df8a3eed14838072d40c7af59af70a657c8f5c478cff",
  "args": [
    "https://swissshore.com/investor-relations",
    "0x4b104294650323000a9073519E2Af16c633F335c",
    7500,
    5184000,
    "0xfE9098d62aF73EF8a24Bf48a1d0dAD19d7D592e9",
    "0x5a90E48b81Edf50813192E5F5Da0ED934Bf94c93",
    "0x1eeAE347c477803215ebc02fcc08bc1c587a5134"
  ],
  "numDeployments": 1,
  "solcInputHash": "79803b37f9f5c1fe49ee98f562930e9e",
  "bytecode": "0x61010060405260006006553480156200001757600080fd5b50604051620027af380380620027af8339810160408190526200003a91620001dd565b6003805460ff191690556001600160601b0319606084811b8216608052600580546001600160a01b03808b166001600160a01b03199283161790925560c089905260e08890529185901b90921660a05260088054928416929091169190911790558651620000b09060099060208a01906200011a565b50604051636427ed9760e01b8152600060048201526001600160a01b03841690636427ed9790602401600060405180830381600087803b158015620000f457600080fd5b505af115801562000109573d6000803e3d6000fd5b50505050505050505050506200036c565b828054620001289062000319565b90600052602060002090601f0160209004810192826200014c576000855562000197565b82601f106200016757805160ff191683800117855562000197565b8280016001018555821562000197579182015b82811115620001975782518255916020019190600101906200017a565b50620001a5929150620001a9565b5090565b5b80821115620001a55760008155600101620001aa565b80516001600160a01b0381168114620001d857600080fd5b919050565b600080600080600080600060e0888a031215620001f957600080fd5b87516001600160401b03808211156200021157600080fd5b818a0191508a601f8301126200022657600080fd5b8151818111156200023b576200023b62000356565b604051601f8201601f19908116603f0116810190838211818310171562000266576200026662000356565b81604052828152602093508d848487010111156200028357600080fd5b600091505b82821015620002a7578482018401518183018501529083019062000288565b82821115620002b95760008484830101525b9a50620002cb9150508a8201620001c0565b975050506040880151945060608801519350620002eb60808901620001c0565b9250620002fb60a08901620001c0565b91506200030b60c08901620001c0565b905092959891949750929550565b600181811c908216806200032e57607f821691505b602082108114156200035057634e487b7160e01b600052602260045260246000fd5b50919050565b634e487b7160e01b600052604160045260246000fd5b60805160601c60a05160601c60c05160e0516123c4620003eb600039600081816105ef01526111f3015260008181610344015281816111cd01526115190152600081816106c3015261121c01526000818161076501528181610b6d01528181610d45015281816110a201528181611376015261182f01526123c46000f3fe60806040526004361061025c5760003560e01c80637adbf97311610144578063c07473f6116100b6578063dd62ed3e1161007a578063dd62ed3e1461070d578063ddceafa914610753578063de0e9a3e14610787578063e5b824ec146107a7578063f5c0b95f146107c7578063fcb79a7e146107e757600080fd5b8063c07473f614610671578063c18172c414610691578063c45a0155146106b1578063d5025625146106e5578063dcc7d4ad146106fa57600080fd5b80639e4b5745116101085780639e4b5745146105a7578063a4c0ed36146105bd578063a7813587146105dd578063a9059cbb14610611578063bf376c7a14610631578063c028df061461065157600080fd5b80637adbf973146105295780637dc2cd9814610549578063833b1fce1461055f5780638fd3ab801461057d57806395d89b411461059257600080fd5b8063313ce567116101dd57806345c8a62b116101a157806345c8a62b1461047357806350e70d481461049357806360918117146104b3578063648bf774146104c957806370a08231146104e957806377e071ad1461050957600080fd5b8063313ce567146103d257806332a7ae95146103fe57806332bc320b1461041e5780634000aea01461043357806342966c681461045357600080fd5b80631703a018116102245780631703a0181461033257806318160ddd14610366578063198453541461037b57806323b872dd1461039d5780632a0a4ed5146103bd57600080fd5b806306fdde03146102615780630832e4701461028c578063095ea7b3146102b05780630a81b2de146102e05780630c6f0e5d146102f5575b600080fd5b34801561026d57600080fd5b50610276610807565b60405161028391906121bd565b60405180910390f35b34801561029857600080fd5b506102a260065481565b604051908152602001610283565b3480156102bc57600080fd5b506102d06102cb366004611eab565b610960565b6040519015158152602001610283565b3480156102ec57600080fd5b506102a2610976565b34801561030157600080fd5b5060035461031a9061010090046001600160a01b031681565b6040516001600160a01b039091168152602001610283565b34801561033e57600080fd5b506102a27f000000000000000000000000000000000000000000000000000000000000000081565b34801561037257600080fd5b506002546102a2565b34801561038757600080fd5b5061039b610396366004611eab565b6109f8565b005b3480156103a957600080fd5b506102d06103b8366004611e6a565b610aa4565b3480156103c957600080fd5b5061031a610b02565b3480156103de57600080fd5b506003546103ec9060ff1681565b60405160ff9091168152602001610283565b34801561040a57600080fd5b5061039b610419366004611df7565b610b16565b34801561042a57600080fd5b5061039b610bcc565b34801561043f57600080fd5b506102d061044e366004611ed7565b610bf2565b34801561045f57600080fd5b5061039b61046e36600461209c565b610c97565b34801561047f57600080fd5b5061039b61048e366004611df7565b610d2e565b34801561049f57600080fd5b5060055461031a906001600160a01b031681565b3480156104bf57600080fd5b506102a260045481565b3480156104d557600080fd5b5061039b6104e4366004611e31565b610d3a565b3480156104f557600080fd5b506102a2610504366004611df7565b610d95565b34801561051557600080fd5b506102a2610524366004611df7565b610db9565b34801561053557600080fd5b5061039b610544366004611df7565b610e83565b34801561055557600080fd5b5062ed4e006102a2565b34801561056b57600080fd5b506008546001600160a01b031661031a565b34801561058957600080fd5b5061039b610eec565b34801561059e57600080fd5b50610276610ef7565b3480156105b357600080fd5b50600654156102d0565b3480156105c957600080fd5b506102d06105d8366004611ed7565b610f88565b3480156105e957600080fd5b506102a27f000000000000000000000000000000000000000000000000000000000000000081565b34801561061d57600080fd5b506102d061062c366004611eab565b610fca565b34801561063d57600080fd5b5061039b61064c366004611eab565b610fd6565b34801561065d57600080fd5b5060075461031a906001600160a01b031681565b34801561067d57600080fd5b506102a261068c366004611df7565b611086565b34801561069d57600080fd5b5061039b6106ac366004611df7565b611097565b3480156106bd57600080fd5b5061031a7f000000000000000000000000000000000000000000000000000000000000000081565b3480156106f157600080fd5b506102766110ec565b61039b610708366004611fb6565b61117a565b34801561071957600080fd5b506102a2610728366004611e31565b6001600160a01b03918216600090815260016020908152604080832093909416825291909152205490565b34801561075f57600080fd5b5061031a7f000000000000000000000000000000000000000000000000000000000000000081565b34801561079357600080fd5b5061039b6107a236600461209c565b61133c565b3480156107b357600080fd5b5061039b6107c2366004611df7565b61136b565b3480156107d357600080fd5b506102d06107e2366004611f60565b6113c0565b3480156107f357600080fd5b5061039b610802366004611e31565b6113cc565b60606108136006541590565b156108c657600560009054906101000a90046001600160a01b03166001600160a01b03166306fdde036040518163ffffffff1660e01b815260040160006040518083038186803b15801561086657600080fd5b505afa15801561087a573d6000803e3d6000fd5b505050506040513d6000823e601f3d908101601f191682016040526108a29190810190611fef565b6040516020016108b29190612128565b604051602081830303815290604052905090565b600560009054906101000a90046001600160a01b03166001600160a01b03166306fdde036040518163ffffffff1660e01b815260040160006040518083038186803b15801561091457600080fd5b505afa158015610928573d6000803e3d6000fd5b505050506040513d6000823e601f3d908101601f191682016040526109509190810190611fef565b6040516020016108b291906120fa565b600061096d338484611414565b50600192915050565b60055460408051633a98ef3960e01b815290516000926001600160a01b031691633a98ef39916004808301926020929190829003018186803b1580156109bb57600080fd5b505afa1580156109cf573d6000803e3d6000fd5b505050506040513d601f19601f820116820180604052508101906109f391906120b5565b905090565b6008546001600160a01b03163314610a445760405162461bcd60e51b815260206004820152600a6024820152696e6f74206f7261636c6560b01b60448201526064015b60405180910390fd5b610a4c610976565b81610a5660025490565b610a609190612257565b1115610a965760405162461bcd60e51b8152602060048201526005602482015264766f74657360d81b6044820152606401610a3b565b610aa08282611476565b5050565b6000610ab18484846115e2565b6001600160a01b0384166000908152600160209081526040808320338452909152902054600160ff1b811015610af557610af58533610af086856122d5565b611414565b60019150505b9392505050565b60006109f36008546001600160a01b031690565b610b1e610b02565b6001600160a01b0316336001600160a01b031614610b4e5760405162461bcd60e51b8152600401610a3b90612215565b6040516332a7ae9560e01b81526001600160a01b0382811660048301527f000000000000000000000000000000000000000000000000000000000000000016906332a7ae9590602401600060405180830381600087803b158015610bb157600080fd5b505af1158015610bc5573d6000803e3d6000fd5b5050505050565b6007546001600160a01b0316331415610bf057600780546001600160a01b03191690555b565b600080610bff8686610fca565b90508015610c8e57604051635260769b60e11b81526001600160a01b0387169063a4c0ed3690610c39903390899089908990600401612175565b602060405180830381600087803b158015610c5357600080fd5b505af1158015610c67573d6000803e3d6000fd5b505050506040513d601f19601f82011682018060405250810190610c8b9190611f94565b90505b95945050505050565b610ca1338261166a565b6000610cad6006541590565b610cb957600654610cbc565b60015b6005549091506001600160a01b03166342966c68610cda83856122b6565b6040518263ffffffff1660e01b8152600401610cf891815260200190565b600060405180830381600087803b158015610d1257600080fd5b505af1158015610d26573d6000803e3d6000fd5b505050505050565b610aa081600180611700565b336001600160a01b037f00000000000000000000000000000000000000000000000000000000000000001614610d825760405162461bcd60e51b8152600401610a3b90612215565b610aa08282610d9085610d95565b6115e2565b6001600160a01b03166000908152602081905260409020546001600160e01b031690565b600080610dc583611730565b90508015610dd35792915050565b6005546001600160a01b0384811691161415610df3575050600654919050565b6006546005546040516377e071ad60e01b81526001600160a01b038681166004830152909116906377e071ad9060240160206040518083038186803b158015610e3b57600080fd5b505afa158015610e4f573d6000803e3d6000fd5b505050506040513d601f19601f82011682018060405250810190610e7391906120b5565b610afb91906122b6565b50919050565b6008546001600160a01b03163314610eca5760405162461bcd60e51b815260206004820152600a6024820152696e6f74206f7261636c6560b01b6044820152606401610a3b565b600880546001600160a01b0319166001600160a01b0392909216919091179055565b610bf0336000611476565b600554604080516395d89b4160e01b815290516060926001600160a01b0316916395d89b41916004808301926000929190829003018186803b158015610f3c57600080fd5b505afa158015610f50573d6000803e3d6000fd5b505050506040513d6000823e601f3d908101601f19168201604052610f789190810190611fef565b6040516020016108b29190612150565b6005546000906001600160a01b03163314610fb55760405162461bcd60e51b8152600401610a3b90612215565b610fbf8585611776565b506001949350505050565b6000610afb83836117e2565b6005546040516323b872dd60e01b8152336004820152306024820152604481018390526001600160a01b03909116906323b872dd90606401602060405180830381600087803b15801561102857600080fd5b505af115801561103c573d6000803e3d6000fd5b505050506040513d601f19601f820116820180604052508101906110609190611f94565b61107c5760405162461bcd60e51b8152600401610a3b90612235565b610aa08282611776565b600061109182610d95565b92915050565b336001600160a01b037f000000000000000000000000000000000000000000000000000000000000000016146110df5760405162461bcd60e51b8152600401610a3b90612215565b610aa081600a6001611700565b600980546110f990612318565b80601f016020809104026020016040519081016040528092919081815260200182805461112590612318565b80156111725780601f1061114757610100808354040283529160200191611172565b820191906000526020600020905b81548152906001019060200180831161115557829003601f168201915b505050505081565b6006541561119a5760405162461bcd60e51b8152600401610a3b906121f5565b604051634dc5e43160e01b815260048101849052336024820152604481018390526001600160a01b0382811660648301527f000000000000000000000000000000000000000000000000000000000000000060848301527f000000000000000000000000000000000000000000000000000000000000000060a48301526000917f000000000000000000000000000000000000000000000000000000000000000090911690634dc5e43190349060c4016020604051808303818588803b15801561126357600080fd5b505af1158015611277573d6000803e3d6000fd5b50505050506040513d601f19601f8201168201806040525081019061129c9190611e14565b90506112b26007546001600160a01b0316151590565b1561131757600754604051637b64620f60e11b81526001600160a01b0383811660048301529091169063f6c8c41e90602401600060405180830381600087803b1580156112fe57600080fd5b505af1158015611312573d6000803e3d6000fd5b505050505b600780546001600160a01b0319166001600160a01b0392909216919091179055505050565b60065461135b5760405162461bcd60e51b8152600401610a3b906121f5565b611368338260065461189c565b50565b336001600160a01b037f000000000000000000000000000000000000000000000000000000000000000016146113b35760405162461bcd60e51b8152600401610a3b90612215565b610aa081600a6000611700565b6000610afb8383611961565b6007546001600160a01b031633146113f65760405162461bcd60e51b8152600401610a3b90612215565b61140a8261140384610d95565b600161189c565b610aa081836119a1565b6001600160a01b0383811660008181526001602090815260408083209487168084529482529182902085905590518481527f8c5be1e5ebec7d5bd14f71427d1e84f3dd0314c0f7b2291e5b200ac8c7c3b92591015b60405180910390a3505050565b600061148183610d95565b61148b9083612257565b90506000611497610976565b90508082106114d05760405162461bcd60e51b8152602060048201526005602482015264766f74657360d81b6044820152606401610a3b565b6007546001600160a01b0316156115145760405162461bcd60e51b815260206004820152600860248201526737379037b33332b960c11b6044820152606401610a3b565b61153e7f0000000000000000000000000000000000000000000000000000000000000000826122b6565b61154a836127106122b6565b10156115815760405162461bcd60e51b815260206004820152600660248201526571756f72756d60d01b6044820152606401610a3b565b61158b84856119a1565b604080516001600160a01b038616815260208101849052908101849052606081018290527f85e5711a70a7d2bae18e1232af474d82c98600b0e62fe079a28208520b58568e9060800160405180910390a150505050565b6115ed838383611b8c565b6001600160a01b038316600090815260208190526040812080548392906116159084906122d5565b9091555061162590508282611b97565b816001600160a01b0316836001600160a01b03167fddf252ad1be2c89b69c2b068fc378daa952ba7f163c4a11628f55a4df523b3ef8360405161146991815260200190565b61167682600083611b8c565b806002600082825461168891906122d5565b90915550506001600160a01b038216600090815260208190526040812080548392906116b59084906122d5565b90915550506040518181526000906001600160a01b038416907fddf252ad1be2c89b69c2b068fc378daa952ba7f163c4a11628f55a4df523b3ef906020015b60405180910390a35050565b600081151561170f8585611961565b151514611728576117208484611c6d565b506001610afb565b506000610afb565b60006001600160a01b03821630141561174b57506001919050565b6003546001600160a01b0383811661010090920416141561176e57505060045490565b506000919050565b61178260008383611b8c565b80600260008282546117949190612257565b909155506117a490508282611b97565b6040518181526001600160a01b038316906000907fddf252ad1be2c89b69c2b068fc378daa952ba7f163c4a11628f55a4df523b3ef906020016116f4565b60006117ee8383611cab565b61180a5760405162461bcd60e51b8152600401610a3b90612235565b61181533600a611961565b1561096d576040516304d301a360e41b81523360048201527f00000000000000000000000000000000000000000000000000000000000000006001600160a01b031690634d301a3090602401600060405180830381600087803b15801561187b57600080fd5b505af115801561188f573d6000803e3d6000fd5b5050505050600192915050565b6118a6838361166a565b6005546001600160a01b031663a9059cbb846118c284866122b6565b6040516001600160e01b031960e085901b1681526001600160a01b0390921660048301526024820152604401602060405180830381600087803b15801561190857600080fd5b505af115801561191c573d6000803e3d6000fd5b505050506040513d601f19601f820116820180604052508101906119409190611f94565b61195c5760405162461bcd60e51b8152600401610a3b90612235565b505050565b60008061196f8360e061226f565b6001600160a01b038516600090815260208190526040902054600160ff929092169190911b9081161491505092915050565b600654156119c15760405162461bcd60e51b8152600401610a3b906121f5565b6005546040516370a0823160e01b81523060048201526001600160a01b039091169063a9059cbb90839083906370a082319060240160206040518083038186803b158015611a0e57600080fd5b505afa158015611a22573d6000803e3d6000fd5b505050506040513d601f19601f82011682018060405250810190611a4691906120b5565b6040516001600160e01b031960e085901b1681526001600160a01b0390921660048301526024820152604401602060405180830381600087803b158015611a8c57600080fd5b505af1158015611aa0573d6000803e3d6000fd5b505050506040513d601f19601f82011682018060405250810190611ac49190611f94565b611ae05760405162461bcd60e51b8152600401610a3b90612235565b600580546001600160a01b0319166001600160a01b038416179055600254610aa0906005546040516370a0823160e01b81523060048201526001600160a01b03909116906370a082319060240160206040518083038186803b158015611b4557600080fd5b505afa158015611b59573d6000803e3d6000fd5b505050506040513d601f19601f82011682018060405250810190611b7d91906120b5565b611b879190612294565b611cb8565b61195c838383611d28565b6001600160a01b038216611bd35760405162461bcd60e51b815260206004820152600360248201526203078360ec1b6044820152606401610a3b565b6001600160a01b038216600090815260208190526040812054906001600160e01b0319821690611c038484612257565b90506001600160e01b03198116828114611c4a5760405162461bcd60e51b81526020600482015260086024820152676f766572666c6f7760c01b6044820152606401610a3b565b506001600160a01b03909416600090815260208190526040902093909355505050565b6000611c7a8260e061226f565b6001600160a01b039390931660009081526020819052604090208054600160ff9095169490941b9093189092555050565b600061096d3384846115e2565b6001811015611cd95760405162461bcd60e51b8152600401610a3b906121f5565b60068190557f6c20b91d1723b78732eba64ff11ebd7966a6e4af568a00fa4f6b72c20f58b02a611d07610807565b611d0f610ef7565b604051611d1d9291906121d0565b60405180910390a150565b611d3183611dea565b80611d405750611d4082611dea565b1561195c576007546001600160a01b031615611dc95760075460405163e1a1810f60e01b81526001600160a01b0385811660048301528481166024830152604482018490529091169063e1a1810f90606401600060405180830381600087803b158015611dac57600080fd5b505af1158015611dc0573d6000803e3d6000fd5b50505050505050565b611dd68360016000611700565b50611de48260016000611700565b50505050565b6000611091826001611961565b600060208284031215611e0957600080fd5b8135610afb81612379565b600060208284031215611e2657600080fd5b8151610afb81612379565b60008060408385031215611e4457600080fd5b8235611e4f81612379565b91506020830135611e5f81612379565b809150509250929050565b600080600060608486031215611e7f57600080fd5b8335611e8a81612379565b92506020840135611e9a81612379565b929592945050506040919091013590565b60008060408385031215611ebe57600080fd5b8235611ec981612379565b946020939093013593505050565b60008060008060608587031215611eed57600080fd5b8435611ef881612379565b935060208501359250604085013567ffffffffffffffff80821115611f1c57600080fd5b818701915087601f830112611f3057600080fd5b813581811115611f3f57600080fd5b886020828501011115611f5157600080fd5b95989497505060200194505050565b60008060408385031215611f7357600080fd5b8235611f7e81612379565b9150602083013560ff81168114611e5f57600080fd5b600060208284031215611fa657600080fd5b81518015158114610afb57600080fd5b600080600060608486031215611fcb57600080fd5b83359250602084013591506040840135611fe481612379565b809150509250925092565b60006020828403121561200157600080fd5b815167ffffffffffffffff8082111561201957600080fd5b818401915084601f83011261202d57600080fd5b81518181111561203f5761203f612363565b604051601f8201601f19908116603f0116810190838211818310171561206757612067612363565b8160405282815287602084870101111561208057600080fd5b6120918360208301602088016122ec565b979650505050505050565b6000602082840312156120ae57600080fd5b5035919050565b6000602082840312156120c757600080fd5b5051919050565b600081518084526120e68160208601602086016122ec565b601f01601f19169290920160200192915050565b6000825161210c8184602087016122ec565b692028577261707065642960b01b920191825250600a01919050565b6000825161213a8184602087016122ec565b632053484160e01b920191825250600401919050565b600082516121628184602087016122ec565b605360f81b920191825250600101919050565b6001600160a01b0385168152602081018490526060604082018190528101829052818360808301376000818301608090810191909152601f909201601f191601019392505050565b602081526000610afb60208301846120ce565b6040815260006121e360408301856120ce565b8281036020840152610c8e81856120ce565b6020808252600690820152653330b1ba37b960d11b604082015260600190565b60208082526006908201526539b2b73232b960d11b604082015260600190565b6020808252600890820152673a3930b739b332b960c11b604082015260600190565b6000821982111561226a5761226a61234d565b500190565b600060ff821660ff84168060ff0382111561228c5761228c61234d565b019392505050565b6000826122b157634e487b7160e01b600052601260045260246000fd5b500490565b60008160001904831182151516156122d0576122d061234d565b500290565b6000828210156122e7576122e761234d565b500390565b60005b838110156123075781810151838201526020016122ef565b83811115611de45750506000910152565b600181811c9082168061232c57607f821691505b60208210811415610e7d57634e487b7160e01b600052602260045260246000fd5b634e487b7160e01b600052601160045260246000fd5b634e487b7160e01b600052604160045260246000fd5b6001600160a01b038116811461136857600080fdfea26469706673582212206bb93d4789cf78b1d23a489c3ecff3900c0c15b07ead4bd44bb590afa097c79f64736f6c63430008070033",
  "devdoc": {
    "author": "Luzius Meisser, luzius@aktionariat.com This is an ERC-20 token representing share tokens of CompanyName AG that are bound to a shareholder agreement that can be found at the URL defined in the constant 'terms'.",
    "kind": "dev",
    "methods": {
      "allowance(address,address)": {
        "details": "See `IERC20.allowance`."
      },
      "approve(address,uint256)": {
        "details": "See `IERC20.approve`. Requirements: - `spender` cannot be the zero address."
      },
      "balanceOf(address)": {
        "details": "See `IERC20.balanceOf`."
      },
      "totalSupply()": {
        "details": "See `IERC20.totalSupply`."
      },
      "transferFrom(address,address,uint256)": {
        "details": "See `IERC20.transferFrom`. Emits an `Approval` event indicating the updated allowance. This is not required by the EIP. See the note at the beginning of `ERC20`; Requirements: - `sender` and `recipient` cannot be the zero address. - `sender` must have a balance of at least `value`. - the caller must have allowance for `sender`'s tokens of at least `amount`."
      }
    },
    "title": "CompanyName AG Shares SHA",
    "version": 1
  },
  "userdoc": {
    "kind": "user",
    "methods": {
      "burn(uint256)": {
        "notice": "Burns both the token itself as well as the wrapped token! If you want to get out of the shareholder agreement, use unwrap after it has been deactivated by a majority vote or acquisition. Burning only works if wrapped token supports burning. Also, the exact meaning of this operation might depend on the circumstances. Burning and reussing the wrapped token does not free the sender from the legal obligations of the shareholder agreement."
      },
      "getClaimDeleter()": {
        "notice": "Let the oracle act as deleter of invalid claims. In earlier versions, this was referring to the claim deleter of the wrapped token. But that stops working after a successful acquisition as the acquisition currency most likely does not have a claim deleter."
      },
      "getCollateralRate(address)": {
        "notice": "Returns the collateral rate for the given collateral type and 0 if that type of collateral is not accepted. By default, only the token itself is accepted at a rate of 1:1. Subclasses should override this method if they want to add additional types of collateral."
      },
      "isBinding()": {
        "notice": "Indicates that the token holders are bound to the token terms and that: - Conversion back to the wrapped token (unwrap) is not allowed - A drag-along can be performed by making an according offer - They can be migrated to a new version of this contract in accordance with the terms"
      },
      "name()": {
        "notice": "Current recommended naming convention is to add the postfix \"SHA\" to the plain shares in order to indicate that this token represents shares bound to a shareholder agreement."
      },
      "unwrap(uint256)": {
        "notice": "Decrease the number of drag-along tokens. The user gets back their shares in return "
      },
      "wrap(address,uint256)": {
        "notice": "Wraps additional tokens, thereby creating more ERC20Draggable tokens. "
      }
    },
    "version": 1
  },
  "storageLayout": {
    "storage": [
      {
        "astId": 521,
        "contract": "src/shares/DraggableShares.sol:DraggableShares",
        "label": "_balances",
        "offset": 0,
        "slot": "0",
        "type": "t_mapping(t_address,t_uint256)"
      },
      {
        "astId": 527,
        "contract": "src/shares/DraggableShares.sol:DraggableShares",
        "label": "_allowances",
        "offset": 0,
        "slot": "1",
        "type": "t_mapping(t_address,t_mapping(t_address,t_uint256))"
      },
      {
        "astId": 529,
        "contract": "src/shares/DraggableShares.sol:DraggableShares",
        "label": "_totalSupply",
        "offset": 0,
        "slot": "2",
        "type": "t_uint256"
      },
      {
        "astId": 532,
        "contract": "src/shares/DraggableShares.sol:DraggableShares",
        "label": "decimals",
        "offset": 0,
        "slot": "3",
        "type": "t_uint8"
      },
      {
        "astId": 6328,
        "contract": "src/shares/DraggableShares.sol:DraggableShares",
        "label": "customCollateralAddress",
        "offset": 1,
        "slot": "3",
        "type": "t_address"
      },
      {
        "astId": 6330,
        "contract": "src/shares/DraggableShares.sol:DraggableShares",
        "label": "customCollateralRate",
        "offset": 0,
        "slot": "4",
        "type": "t_uint256"
      },
      {
        "astId": 3073,
        "contract": "src/shares/DraggableShares.sol:DraggableShares",
        "label": "wrapped",
        "offset": 0,
        "slot": "5",
        "type": "t_contract(IERC20)1179"
      },
      {
        "astId": 3079,
        "contract": "src/shares/DraggableShares.sol:DraggableShares",
        "label": "unwrapConversionFactor",
        "offset": 0,
        "slot": "6",
        "type": "t_uint256"
      },
      {
        "astId": 3082,
        "contract": "src/shares/DraggableShares.sol:DraggableShares",
        "label": "offer",
        "offset": 0,
        "slot": "7",
        "type": "t_contract(IOffer)3794"
      },
      {
        "astId": 3088,
        "contract": "src/shares/DraggableShares.sol:DraggableShares",
        "label": "oracle",
        "offset": 0,
        "slot": "8",
        "type": "t_address"
      },
      {
        "astId": 7405,
        "contract": "src/shares/DraggableShares.sol:DraggableShares",
        "label": "terms",
        "offset": 0,
        "slot": "9",
        "type": "t_string_storage"
      }
    ],
    "types": {
      "t_address": {
        "encoding": "inplace",
        "label": "address",
        "numberOfBytes": "20"
      },
      "t_contract(IERC20)1179": {
        "encoding": "inplace",
        "label": "contract IERC20",
        "numberOfBytes": "20"
      },
      "t_contract(IOffer)3794": {
        "encoding": "inplace",
        "label": "contract IOffer",
        "numberOfBytes": "20"
      },
      "t_mapping(t_address,t_mapping(t_address,t_uint256))": {
        "encoding": "mapping",
        "key": "t_address",
        "label": "mapping(address => mapping(address => uint256))",
        "numberOfBytes": "32",
        "value": "t_mapping(t_address,t_uint256)"
      },
      "t_mapping(t_address,t_uint256)": {
        "encoding": "mapping",
        "key": "t_address",
        "label": "mapping(address => uint256)",
        "numberOfBytes": "32",
        "value": "t_uint256"
      },
      "t_string_storage": {
        "encoding": "bytes",
        "label": "string",
        "numberOfBytes": "32"
      },
      "t_uint256": {
        "encoding": "inplace",
        "label": "uint256",
        "numberOfBytes": "32"
      },
      "t_uint8": {
        "encoding": "inplace",
        "label": "uint8",
        "numberOfBytes": "1"
      }
    }
  }
}