{
  "_format": "hh-sol-artifact-1",
  "contractName": "ForceSend",
  "sourceName": "ext/ForceSend.sol",
  "abi": [
    {
      "inputs": [
        {
          "internalType": "address payable",
          "name": "victim",
          "type": "address"
        }
      ],
      "name": "send",
      "outputs": [],
      "stateMutability": "payable",
      "type": "function"
    }
  ],
  "bytecode": "0x6080604052348015600f57600080fd5b5060a28061001e6000396000f3fe608060405260043610601c5760003560e01c80633e58c58c146021575b600080fd5b6030602c366004603e565b6032565b005b806001600160a01b0316ff5b600060208284031215604f57600080fd5b81356001600160a01b0381168114606557600080fd5b939250505056fea26469706673582212208817e03002949395a6c6749ba11cb613f937bdc78f1492555f86d238f6fd44c464736f6c63430008070033",
  "linkReferences": {},
  "deployedLinkReferences": {}
}