{
    "contractName": "ServiceHunterShares",
    "abi": [
        {
            "constant": true,
            "inputs": [],
            "name": "name",
            "outputs": [
                {
                    "name": "",
                    "type": "string"
                }
            ],
            "payable": false,
            "stateMutability": "view",
            "type": "function"
        },
        {
            "constant": false,
            "inputs": [
                {
                    "name": "spender",
                    "type": "address"
                },
                {
                    "name": "value",
                    "type": "uint256"
                }
            ],
            "name": "approve",
            "outputs": [
                {
                    "name": "",
                    "type": "bool"
                }
            ],
            "payable": false,
            "stateMutability": "nonpayable",
            "type": "function"
        },
        {
            "constant": true,
            "inputs": [],
            "name": "customCollateralAddress",
            "outputs": [
                {
                    "name": "",
                    "type": "address"
                }
            ],
            "payable": false,
            "stateMutability": "view",
            "type": "function"
        },
        {
            "constant": true,
            "inputs": [],
            "name": "totalSupply",
            "outputs": [
                {
                    "name": "",
                    "type": "uint256"
                }
            ],
            "payable": false,
            "stateMutability": "view",
            "type": "function"
        },
        {
            "constant": false,
            "inputs": [
                {
                    "name": "contractAddress",
                    "type": "address"
                }
            ],
            "name": "removeSubRegister",
            "outputs": [],
            "payable": false,
            "stateMutability": "nonpayable",
            "type": "function"
        },
        {
            "constant": true,
            "inputs": [
                {
                    "name": "lostAddress",
                    "type": "address"
                }
            ],
            "name": "getClaimant",
            "outputs": [
                {
                    "name": "",
                    "type": "address"
                }
            ],
            "payable": false,
            "stateMutability": "view",
            "type": "function"
        },
        {
            "constant": false,
            "inputs": [
                {
                    "name": "message",
                    "type": "string"
                }
            ],
            "name": "announcement",
            "outputs": [],
            "payable": false,
            "stateMutability": "nonpayable",
            "type": "function"
        },
        {
            "constant": false,
            "inputs": [
                {
                    "name": "sender",
                    "type": "address"
                },
                {
                    "name": "recipient",
                    "type": "address"
                },
                {
                    "name": "amount",
                    "type": "uint256"
                }
            ],
            "name": "transferFrom",
            "outputs": [
                {
                    "name": "",
                    "type": "bool"
                }
            ],
            "payable": false,
            "stateMutability": "nonpayable",
            "type": "function"
        },
        {
            "constant": true,
            "inputs": [
                {
                    "name": "claimerAddress",
                    "type": "address"
                }
            ],
            "name": "getMsgHash",
            "outputs": [
                {
                    "name": "",
                    "type": "bytes32"
                }
            ],
            "payable": false,
            "stateMutability": "view",
            "type": "function"
        },
        {
            "constant": false,
            "inputs": [],
            "name": "getClaimDeleter",
            "outputs": [
                {
                    "name": "",
                    "type": "address"
                }
            ],
            "payable": false,
            "stateMutability": "nonpayable",
            "type": "function"
        },
        {
            "constant": true,
            "inputs": [],
            "name": "decimals",
            "outputs": [
                {
                    "name": "",
                    "type": "uint8"
                }
            ],
            "payable": false,
            "stateMutability": "view",
            "type": "function"
        },
        {
            "constant": false,
            "inputs": [
                {
                    "name": "lostAddress",
                    "type": "address"
                }
            ],
            "name": "deleteClaim",
            "outputs": [],
            "payable": false,
            "stateMutability": "nonpayable",
            "type": "function"
        },
        {
            "constant": false,
            "inputs": [
                {
                    "name": "enabled",
                    "type": "bool"
                }
            ],
            "name": "setClaimable",
            "outputs": [],
            "payable": false,
            "stateMutability": "nonpayable",
            "type": "function"
        },
        {
            "constant": true,
            "inputs": [],
            "name": "invalidTokens",
            "outputs": [
                {
                    "name": "",
                    "type": "uint256"
                }
            ],
            "payable": false,
            "stateMutability": "view",
            "type": "function"
        },
        {
            "constant": false,
            "inputs": [
                {
                    "name": "spender",
                    "type": "address"
                },
                {
                    "name": "addedValue",
                    "type": "uint256"
                }
            ],
            "name": "increaseAllowance",
            "outputs": [
                {
                    "name": "",
                    "type": "bool"
                }
            ],
            "payable": false,
            "stateMutability": "nonpayable",
            "type": "function"
        },
        {
            "constant": false,
            "inputs": [
                {
                    "name": "collateral",
                    "type": "address"
                },
                {
                    "name": "rate",
                    "type": "uint256"
                }
            ],
            "name": "setCustomClaimCollateral",
            "outputs": [],
            "payable": false,
            "stateMutability": "nonpayable",
            "type": "function"
        },
        {
            "constant": true,
            "inputs": [],
            "name": "totalShares",
            "outputs": [
                {
                    "name": "",
                    "type": "uint256"
                }
            ],
            "payable": false,
            "stateMutability": "view",
            "type": "function"
        },
        {
            "constant": true,
            "inputs": [
                {
                    "name": "lostAddress",
                    "type": "address"
                }
            ],
            "name": "getCollateralType",
            "outputs": [
                {
                    "name": "",
                    "type": "address"
                }
            ],
            "payable": false,
            "stateMutability": "view",
            "type": "function"
        },
        {
            "constant": false,
            "inputs": [
                {
                    "name": "shareholder",
                    "type": "address"
                },
                {
                    "name": "_amount",
                    "type": "uint256"
                }
            ],
            "name": "mint",
            "outputs": [],
            "payable": false,
            "stateMutability": "nonpayable",
            "type": "function"
        },
        {
            "constant": false,
            "inputs": [
                {
                    "name": "_amount",
                    "type": "uint256"
                }
            ],
            "name": "burn",
            "outputs": [],
            "payable": false,
            "stateMutability": "nonpayable",
            "type": "function"
        },
        {
            "constant": true,
            "inputs": [
                {
                    "name": "",
                    "type": "address"
                }
            ],
            "name": "preClaims",
            "outputs": [
                {
                    "name": "msghash",
                    "type": "bytes32"
                },
                {
                    "name": "timestamp",
                    "type": "uint256"
                }
            ],
            "payable": false,
            "stateMutability": "view",
            "type": "function"
        },
        {
            "constant": true,
            "inputs": [
                {
                    "name": "",
                    "type": "uint256"
                }
            ],
            "name": "subregisters",
            "outputs": [
                {
                    "name": "",
                    "type": "address"
                }
            ],
            "payable": false,
            "stateMutability": "view",
            "type": "function"
        },
        {
            "constant": false,
            "inputs": [
                {
                    "name": "hashedpackage",
                    "type": "bytes32"
                }
            ],
            "name": "prepareClaim",
            "outputs": [],
            "payable": false,
            "stateMutability": "nonpayable",
            "type": "function"
        },
        {
            "constant": true,
            "inputs": [],
            "name": "paused",
            "outputs": [
                {
                    "name": "",
                    "type": "bool"
                }
            ],
            "payable": false,
            "stateMutability": "view",
            "type": "function"
        },
        {
            "constant": false,
            "inputs": [
                {
                    "name": "holder",
                    "type": "address"
                },
                {
                    "name": "amount",
                    "type": "uint256"
                },
                {
                    "name": "message",
                    "type": "string"
                }
            ],
            "name": "declareInvalid",
            "outputs": [],
            "payable": false,
            "stateMutability": "nonpayable",
            "type": "function"
        },
        {
            "constant": true,
            "inputs": [],
            "name": "customCollateralRate",
            "outputs": [
                {
                    "name": "",
                    "type": "uint256"
                }
            ],
            "payable": false,
            "stateMutability": "view",
            "type": "function"
        },
        {
            "constant": false,
            "inputs": [
                {
                    "name": "shareholder",
                    "type": "address"
                },
                {
                    "name": "firstShareNumber",
                    "type": "uint256"
                },
                {
                    "name": "lastShareNumber",
                    "type": "uint256"
                }
            ],
            "name": "mintNumbered",
            "outputs": [],
            "payable": false,
            "stateMutability": "nonpayable",
            "type": "function"
        },
        {
            "constant": false,
            "inputs": [],
            "name": "clearClaim",
            "outputs": [],
            "payable": false,
            "stateMutability": "nonpayable",
            "type": "function"
        },
        {
            "constant": true,
            "inputs": [
                {
                    "name": "account",
                    "type": "address"
                }
            ],
            "name": "balanceOf",
            "outputs": [
                {
                    "name": "",
                    "type": "uint256"
                }
            ],
            "payable": false,
            "stateMutability": "view",
            "type": "function"
        },
        {
            "constant": false,
            "inputs": [],
            "name": "renounceOwnership",
            "outputs": [],
            "payable": false,
            "stateMutability": "nonpayable",
            "type": "function"
        },
        {
            "constant": true,
            "inputs": [
                {
                    "name": "claimerAddress",
                    "type": "address"
                }
            ],
            "name": "getPreClaimTimeStamp",
            "outputs": [
                {
                    "name": "",
                    "type": "uint256"
                }
            ],
            "payable": false,
            "stateMutability": "view",
            "type": "function"
        },
        {
            "constant": true,
            "inputs": [
                {
                    "name": "collateralType",
                    "type": "address"
                }
            ],
            "name": "getCollateralRate",
            "outputs": [
                {
                    "name": "",
                    "type": "uint256"
                }
            ],
            "payable": false,
            "stateMutability": "view",
            "type": "function"
        },
        {
            "constant": true,
            "inputs": [],
            "name": "claimPeriod",
            "outputs": [
                {
                    "name": "",
                    "type": "uint256"
                }
            ],
            "payable": false,
            "stateMutability": "view",
            "type": "function"
        },
        {
            "constant": true,
            "inputs": [],
            "name": "preClaimPeriodEnd",
            "outputs": [
                {
                    "name": "",
                    "type": "uint256"
                }
            ],
            "payable": false,
            "stateMutability": "view",
            "type": "function"
        },
        {
            "constant": true,
            "inputs": [],
            "name": "owner",
            "outputs": [
                {
                    "name": "",
                    "type": "address"
                }
            ],
            "payable": false,
            "stateMutability": "view",
            "type": "function"
        },
        {
            "constant": true,
            "inputs": [
                {
                    "name": "",
                    "type": "address"
                }
            ],
            "name": "claimingDisabled",
            "outputs": [
                {
                    "name": "",
                    "type": "bool"
                }
            ],
            "payable": false,
            "stateMutability": "view",
            "type": "function"
        },
        {
            "constant": false,
            "inputs": [
                {
                    "name": "lostAddress",
                    "type": "address"
                }
            ],
            "name": "resolveClaim",
            "outputs": [],
            "payable": false,
            "stateMutability": "nonpayable",
            "type": "function"
        },
        {
            "constant": true,
            "inputs": [],
            "name": "symbol",
            "outputs": [
                {
                    "name": "",
                    "type": "string"
                }
            ],
            "payable": false,
            "stateMutability": "view",
            "type": "function"
        },
        {
            "constant": false,
            "inputs": [
                {
                    "name": "_pause",
                    "type": "bool"
                },
                {
                    "name": "_message",
                    "type": "string"
                },
                {
                    "name": "_newAddress",
                    "type": "address"
                },
                {
                    "name": "_fromBlock",
                    "type": "uint256"
                }
            ],
            "name": "pause",
            "outputs": [],
            "payable": false,
            "stateMutability": "nonpayable",
            "type": "function"
        },
        {
            "constant": true,
            "inputs": [
                {
                    "name": "lostAddress",
                    "type": "address"
                }
            ],
            "name": "getCollateral",
            "outputs": [
                {
                    "name": "",
                    "type": "uint256"
                }
            ],
            "payable": false,
            "stateMutability": "view",
            "type": "function"
        },
        {
            "constant": true,
            "inputs": [
                {
                    "name": "holder",
                    "type": "address"
                }
            ],
            "name": "balanceOfDeep",
            "outputs": [
                {
                    "name": "",
                    "type": "uint256"
                }
            ],
            "payable": false,
            "stateMutability": "view",
            "type": "function"
        },
        {
            "constant": false,
            "inputs": [
                {
                    "name": "spender",
                    "type": "address"
                },
                {
                    "name": "subtractedValue",
                    "type": "uint256"
                }
            ],
            "name": "decreaseAllowance",
            "outputs": [
                {
                    "name": "",
                    "type": "bool"
                }
            ],
            "payable": false,
            "stateMutability": "nonpayable",
            "type": "function"
        },
        {
            "constant": false,
            "inputs": [
                {
                    "name": "_newTotalShares",
                    "type": "uint256"
                }
            ],
            "name": "setTotalShares",
            "outputs": [],
            "payable": false,
            "stateMutability": "nonpayable",
            "type": "function"
        },
        {
            "constant": false,
            "inputs": [
                {
                    "name": "recipient",
                    "type": "address"
                },
                {
                    "name": "amount",
                    "type": "uint256"
                }
            ],
            "name": "transfer",
            "outputs": [
                {
                    "name": "",
                    "type": "bool"
                }
            ],
            "payable": false,
            "stateMutability": "nonpayable",
            "type": "function"
        },
        {
            "constant": true,
            "inputs": [],
            "name": "totalValidSupply",
            "outputs": [
                {
                    "name": "",
                    "type": "uint256"
                }
            ],
            "payable": false,
            "stateMutability": "view",
            "type": "function"
        },
        {
            "constant": true,
            "inputs": [
                {
                    "name": "",
                    "type": "address"
                }
            ],
            "name": "claims",
            "outputs": [
                {
                    "name": "claimant",
                    "type": "address"
                },
                {
                    "name": "collateral",
                    "type": "uint256"
                },
                {
                    "name": "timestamp",
                    "type": "uint32"
                },
                {
                    "name": "currencyUsed",
                    "type": "address"
                }
            ],
            "payable": false,
            "stateMutability": "view",
            "type": "function"
        },
        {
            "constant": false,
            "inputs": [
                {
                    "name": "contractAddress",
                    "type": "address"
                }
            ],
            "name": "recognizeSubRegister",
            "outputs": [],
            "payable": false,
            "stateMutability": "nonpayable",
            "type": "function"
        },
        {
            "constant": false,
            "inputs": [
                {
                    "name": "claimPeriodInDays",
                    "type": "uint256"
                }
            ],
            "name": "setClaimPeriod",
            "outputs": [],
            "payable": false,
            "stateMutability": "nonpayable",
            "type": "function"
        },
        {
            "constant": true,
            "inputs": [],
            "name": "terms",
            "outputs": [
                {
                    "name": "",
                    "type": "string"
                }
            ],
            "payable": false,
            "stateMutability": "view",
            "type": "function"
        },
        {
            "constant": true,
            "inputs": [
                {
                    "name": "owner",
                    "type": "address"
                },
                {
                    "name": "spender",
                    "type": "address"
                }
            ],
            "name": "allowance",
            "outputs": [
                {
                    "name": "",
                    "type": "uint256"
                }
            ],
            "payable": false,
            "stateMutability": "view",
            "type": "function"
        },
        {
            "constant": false,
            "inputs": [
                {
                    "name": "collateralType",
                    "type": "address"
                },
                {
                    "name": "lostAddress",
                    "type": "address"
                },
                {
                    "name": "nonce",
                    "type": "bytes32"
                }
            ],
            "name": "declareLost",
            "outputs": [],
            "payable": false,
            "stateMutability": "nonpayable",
            "type": "function"
        },
        {
            "constant": true,
            "inputs": [
                {
                    "name": "lostAddress",
                    "type": "address"
                }
            ],
            "name": "getTimeStamp",
            "outputs": [
                {
                    "name": "",
                    "type": "uint256"
                }
            ],
            "payable": false,
            "stateMutability": "view",
            "type": "function"
        },
        {
            "constant": true,
            "inputs": [],
            "name": "preClaimPeriod",
            "outputs": [
                {
                    "name": "",
                    "type": "uint256"
                }
            ],
            "payable": false,
            "stateMutability": "view",
            "type": "function"
        },
        {
            "constant": false,
            "inputs": [
                {
                    "name": "_newOwner",
                    "type": "address"
                }
            ],
            "name": "transferOwnership",
            "outputs": [],
            "payable": false,
            "stateMutability": "nonpayable",
            "type": "function"
        },
        {
            "constant": true,
            "inputs": [
                {
                    "name": "target",
                    "type": "address"
                }
            ],
            "name": "isClaimsEnabled",
            "outputs": [
                {
                    "name": "",
                    "type": "bool"
                }
            ],
            "payable": false,
            "stateMutability": "view",
            "type": "function"
        },
        {
            "anonymous": false,
            "inputs": [
                {
                    "indexed": false,
                    "name": "message",
                    "type": "string"
                }
            ],
            "name": "Announcement",
            "type": "event"
        },
        {
            "anonymous": false,
            "inputs": [
                {
                    "indexed": false,
                    "name": "holder",
                    "type": "address"
                },
                {
                    "indexed": false,
                    "name": "amount",
                    "type": "uint256"
                },
                {
                    "indexed": false,
                    "name": "message",
                    "type": "string"
                }
            ],
            "name": "TokensDeclaredInvalid",
            "type": "event"
        },
        {
            "anonymous": false,
            "inputs": [
                {
                    "indexed": false,
                    "name": "holder",
                    "type": "address"
                },
                {
                    "indexed": false,
                    "name": "firstInclusive",
                    "type": "uint256"
                },
                {
                    "indexed": false,
                    "name": "lastInclusive",
                    "type": "uint256"
                }
            ],
            "name": "ShareNumberingEvent",
            "type": "event"
        },
        {
            "anonymous": false,
            "inputs": [
                {
                    "indexed": false,
                    "name": "contractAddress",
                    "type": "address"
                }
            ],
            "name": "SubRegisterAdded",
            "type": "event"
        },
        {
            "anonymous": false,
            "inputs": [
                {
                    "indexed": false,
                    "name": "contractAddress",
                    "type": "address"
                }
            ],
            "name": "SubRegisterRemoved",
            "type": "event"
        },
        {
            "anonymous": false,
            "inputs": [
                {
                    "indexed": false,
                    "name": "paused",
                    "type": "bool"
                },
                {
                    "indexed": false,
                    "name": "message",
                    "type": "string"
                },
                {
                    "indexed": false,
                    "name": "newAddress",
                    "type": "address"
                },
                {
                    "indexed": false,
                    "name": "fromBlock",
                    "type": "uint256"
                }
            ],
            "name": "Pause",
            "type": "event"
        },
        {
            "anonymous": false,
            "inputs": [
                {
                    "indexed": true,
                    "name": "previousOwner",
                    "type": "address"
                }
            ],
            "name": "OwnershipRenounced",
            "type": "event"
        },
        {
            "anonymous": false,
            "inputs": [
                {
                    "indexed": true,
                    "name": "previousOwner",
                    "type": "address"
                },
                {
                    "indexed": true,
                    "name": "newOwner",
                    "type": "address"
                }
            ],
            "name": "OwnershipTransferred",
            "type": "event"
        },
        {
            "anonymous": false,
            "inputs": [
                {
                    "indexed": true,
                    "name": "lostAddress",
                    "type": "address"
                },
                {
                    "indexed": true,
                    "name": "claimant",
                    "type": "address"
                },
                {
                    "indexed": false,
                    "name": "balance",
                    "type": "uint256"
                }
            ],
            "name": "ClaimMade",
            "type": "event"
        },
        {
            "anonymous": false,
            "inputs": [
                {
                    "indexed": true,
                    "name": "claimer",
                    "type": "address"
                }
            ],
            "name": "ClaimPrepared",
            "type": "event"
        },
        {
            "anonymous": false,
            "inputs": [
                {
                    "indexed": true,
                    "name": "lostAddress",
                    "type": "address"
                },
                {
                    "indexed": false,
                    "name": "collateral",
                    "type": "uint256"
                }
            ],
            "name": "ClaimCleared",
            "type": "event"
        },
        {
            "anonymous": false,
            "inputs": [
                {
                    "indexed": true,
                    "name": "lostAddress",
                    "type": "address"
                },
                {
                    "indexed": true,
                    "name": "claimant",
                    "type": "address"
                },
                {
                    "indexed": false,
                    "name": "collateral",
                    "type": "uint256"
                }
            ],
            "name": "ClaimDeleted",
            "type": "event"
        },
        {
            "anonymous": false,
            "inputs": [
                {
                    "indexed": true,
                    "name": "lostAddress",
                    "type": "address"
                },
                {
                    "indexed": true,
                    "name": "claimant",
                    "type": "address"
                },
                {
                    "indexed": false,
                    "name": "collateral",
                    "type": "uint256"
                }
            ],
            "name": "ClaimResolved",
            "type": "event"
        },
        {
            "anonymous": false,
            "inputs": [
                {
                    "indexed": false,
                    "name": "newClaimPeriodInDays",
                    "type": "uint256"
                }
            ],
            "name": "ClaimPeriodChanged",
            "type": "event"
        },
        {
            "anonymous": false,
            "inputs": [
                {
                    "indexed": false,
                    "name": "newCustomCollateralAddress",
                    "type": "address"
                },
                {
                    "indexed": false,
                    "name": "newCustomCollareralRate",
                    "type": "uint256"
                }
            ],
            "name": "CustomClaimCollateralChanged",
            "type": "event"
        },
        {
            "anonymous": false,
            "inputs": [
                {
                    "indexed": true,
                    "name": "from",
                    "type": "address"
                },
                {
                    "indexed": true,
                    "name": "to",
                    "type": "address"
                },
                {
                    "indexed": false,
                    "name": "value",
                    "type": "uint256"
                }
            ],
            "name": "Transfer",
            "type": "event"
        },
        {
            "anonymous": false,
            "inputs": [
                {
                    "indexed": true,
                    "name": "owner",
                    "type": "address"
                },
                {
                    "indexed": true,
                    "name": "spender",
                    "type": "address"
                },
                {
                    "indexed": false,
                    "name": "value",
                    "type": "uint256"
                }
            ],
            "name": "Approval",
            "type": "event"
        }
    ],
    "bytecode": "608060405262ed4e00600355620151806004556202a300600555600b8054613d1f600c556000600d556001600160a81b0319163317905561317e806100456000396000f3fe608060405234801561001057600080fd5b506004361061035d5760003560e01c80636b03ed5f116101d3578063a457c2d711610104578063d5025625116100a2578063eb470ebf1161007c578063eb470ebf14610b40578063ee18d99e14610b66578063f2fde38b14610b6e578063f66f145a14610b945761035d565b8063d502562514610ad4578063dd62ed3e14610adc578063e5a8765a14610b0a5761035d565b8063b0d04c7a116100de578063b0d04c7a14610a2a578063c6788bdd14610a32578063cc51e14314610a91578063d2c04f4314610ab75761035d565b8063a457c2d7146109b5578063a77384c1146109e1578063a9059cbb146109fe5761035d565b80638da5cb5b1161017157806395d89b411161014b57806395d89b41146108db578063980591f4146108e35780639b56d6c914610969578063a26cf59f1461098f5761035d565b80638da5cb5b146108875780638e0597c11461088f57806394d645a8146108b55761035d565b806375a88bcf116101ad57806375a88bcf1461082b57806377e071ad146108515780637dc2cd98146108775780637dde2a021461087f5761035d565b80636b03ed5f146107f557806370a08231146107fd578063715018a6146108235761035d565b806337a8129c116102ad578063493c160f1161024b5780635c975abb116102255780635c975abb146107305780635d6624b71461073857806360918117146107bb57806369f721e2146107c35761035d565b8063493c160f146106b75780634ae5e630146106f65780635b1c1625146107135761035d565b80633a98ef39116102875780633a98ef39146106405780633bcc45ba1461064857806340c10f191461066e57806342966c681461069a5761035d565b806337a8129c146105e057806339509351146105e85780633a1cdf32146106145761035d565b80631f0f06aa1161031a5780632a0a4ed5116102f45780632a0a4ed514610575578063313ce5671461057d57806332a7ae951461059b578063378c93ad146105c15761035d565b80631f0f06aa146104ab57806323b872dd1461051957806324b50e431461054f5761035d565b806306fdde0314610362578063095ea7b3146103df5780630c6f0e5d1461041f57806318160ddd146104435780631993982d1461045d5780631e3b9de514610485575b600080fd5b61036a610bba565b6040805160208082528351818301528351919283929083019185019080838360005b838110156103a457818101518382015260200161038c565b50505050905090810190601f1680156103d15780820380516001836020036101000a031916815260200191505b509250505060405180910390f35b61040b600480360360408110156103f557600080fd5b506001600160a01b038135169060200135610bf3565b604080519115158252519081900360200190f35b610427610c0a565b604080516001600160a01b039092168252519081900360200190f35b61044b610c19565b60408051918252519081900360200190f35b6104836004803603602081101561047357600080fd5b50356001600160a01b0316610c1f565b005b6104276004803603602081101561049b57600080fd5b50356001600160a01b0316610d89565b610483600480360360208110156104c157600080fd5b810190602081018135600160201b8111156104db57600080fd5b8201836020820111156104ed57600080fd5b803590602001918460018302840111600160201b8311171561050e57600080fd5b509092509050610daa565b61040b6004803603606081101561052f57600080fd5b506001600160a01b03813581169160208101359091169060400135610e57565b61044b6004803603602081101561056557600080fd5b50356001600160a01b0316610eae565b610427610ec9565b610585610ed8565b6040805160ff9092168252519081900360200190f35b610483600480360360208110156105b157600080fd5b50356001600160a01b0316610edd565b610483600480360360208110156105d757600080fd5b50351515611143565b61044b611162565b61040b600480360360408110156105fe57600080fd5b506001600160a01b038135169060200135611168565b6104836004803603604081101561062a57600080fd5b506001600160a01b0381351690602001356111a4565b61044b6111f7565b6104276004803603602081101561065e57600080fd5b50356001600160a01b03166111fd565b6104836004803603604081101561068457600080fd5b506001600160a01b038135169060200135611225565b610483600480360360208110156106b057600080fd5b50356112d0565b6106dd600480360360208110156106cd57600080fd5b50356001600160a01b0316611345565b6040805192835260208301919091528051918290030190f35b6104276004803603602081101561070c57600080fd5b503561135e565b6104836004803603602081101561072957600080fd5b5035611385565b61040b6113e0565b6104836004803603606081101561074e57600080fd5b6001600160a01b0382351691602081013591810190606081016040820135600160201b81111561077d57600080fd5b82018360208201111561078f57600080fd5b803590602001918460018302840111600160201b831117156107b057600080fd5b5090925090506113f0565b61044b61151e565b610483600480360360608110156107d957600080fd5b506001600160a01b038135169060208101359060400135611524565b6104836115d9565b61044b6004803603602081101561081357600080fd5b50356001600160a01b031661173e565b610483611759565b61044b6004803603602081101561084157600080fd5b50356001600160a01b03166117ec565b61044b6004803603602081101561086757600080fd5b50356001600160a01b031661180a565b61044b61184c565b61044b611852565b610427611858565b61040b600480360360208110156108a557600080fd5b50356001600160a01b0316611867565b610483600480360360208110156108cb57600080fd5b50356001600160a01b031661187c565b61036a611b65565b610483600480360360808110156108f957600080fd5b813515159190810190604081016020820135600160201b81111561091c57600080fd5b82018360208201111561092e57600080fd5b803590602001918460018302840111600160201b8311171561094f57600080fd5b91935091506001600160a01b038135169060200135611b84565b61044b6004803603602081101561097f57600080fd5b50356001600160a01b0316611c76565b61044b600480360360208110156109a557600080fd5b50356001600160a01b0316611c94565b61040b600480360360408110156109cb57600080fd5b506001600160a01b038135169060200135611d63565b610483600480360360208110156109f757600080fd5b5035611d9f565b61040b60048036036040811015610a1457600080fd5b506001600160a01b038135169060200135611e33565b61044b611e8a565b610a5860048036036020811015610a4857600080fd5b50356001600160a01b0316611eab565b604080516001600160a01b039586168152602081019490945263ffffffff90921683830152909216606082015290519081900360800190f35b61048360048036036020811015610aa757600080fd5b50356001600160a01b0316611ee6565b61048360048036036020811015610acd57600080fd5b5035611fb3565b61036a612005565b61044b60048036036040811015610af257600080fd5b506001600160a01b0381358116916020013516612034565b61048360048036036060811015610b2057600080fd5b506001600160a01b0381358116916020810135909116906040013561205f565b61044b60048036036020811015610b5657600080fd5b50356001600160a01b03166125cc565b61044b6125f0565b61048360048036036020811015610b8457600080fd5b50356001600160a01b03166125f6565b61040b60048036036020811015610baa57600080fd5b50356001600160a01b0316612651565b6040518060400160405280601781526020017f5365727669636548756e7465722041472053686172657300000000000000000081525081565b6000610c00338484612670565b5060015b92915050565b6009546001600160a01b031681565b60025490565b600b546001600160a01b03163314610c685760405162461bcd60e51b81526004018080602001828103825260268152602001806130166026913960400191505060405180910390fd5b60005b600e54811015610d8557816001600160a01b0316600e8281548110610c8c57fe5b6000918252602090912001546001600160a01b03161415610d7d57600e80546000198101908110610cb957fe5b600091825260209091200154600e80546001600160a01b039092169183908110610cdf57fe5b9060005260206000200160006101000a8154816001600160a01b0302191690836001600160a01b03160217905550600e805480610d1857fe5b6000828152602090819020820160001990810180546001600160a01b0319169055909101909155604080516001600160a01b038516815290517fc3f6f866f10921ec4857ee8fe667183cd1751e53ed509c992689bece36ca1898929181900390910190a15b600101610c6b565b5050565b6001600160a01b03808216600090815260066020526040902054165b919050565b600b546001600160a01b03163314610df35760405162461bcd60e51b81526004018080602001828103825260268152602001806130166026913960400191505060405180910390fd5b7f07ce702fc13ca0620c174dab22996a6d5fd9e7accb663555a4e85323692706ba828260405180806020018281038252848482818152602001925080828437600083820152604051601f909101601f19169092018290039550909350505050a15050565b6000610e6484848461275c565b6001600160a01b038416600090815260016020908152604080832033808552925290912054610ea4918691610e9f908663ffffffff6127c016565b612670565b5060019392505050565b6001600160a01b031660009081526007602052604090205490565b600b546001600160a01b031690565b600081565b610ee5610ec9565b6001600160a01b0316336001600160a01b031614610f4a576040805162461bcd60e51b815260206004820152601860248201527f596f752063616e6e6f742064656c65746520636c61696d730000000000000000604482015290519081900360640190fd5b610f52612ef1565b506001600160a01b038082166000908152600660209081526040918290208251608081018452815485168152600182015492810183905260029091015463ffffffff811693820193909352600160201b909204909216606082018190529091610ff3576040805162461bcd60e51b815260206004820152600e60248201526d139bc818db185a5b48199bdd5b9960921b604482015290519081900360640190fd5b6001600160a01b03808416600090815260066020908152604080832080546001600160a01b03191681556001810184905560020180546001600160c01b0319169055855186830151825163a9059cbb60e01b81529186166004830152602482015290519385169363a9059cbb93604480840194938390030190829087803b15801561107d57600080fd5b505af1158015611091573d6000803e3d6000fd5b505050506040513d60208110156110a757600080fd5b50516110f7576040805162461bcd60e51b815260206004820152601a60248201527910dbdb1b185d195c985b081d1c985b9cd9995c8819985a5b195960321b604482015290519081900360640190fd5b815160208084015160408051918252516001600160a01b03938416938716927fbb036e629a9f4c0897ee5d48440dfdb36f7e772117723a2ed603a6514244c2d5928290030190a3505050565b336000908152600860205260409020805460ff19169115919091179055565b600d5481565b3360008181526001602090815260408083206001600160a01b03871684529091528120549091610c00918590610e9f908663ffffffff6127d216565b600b546001600160a01b031633146111ed5760405162461bcd60e51b81526004018080602001828103825260268152602001806130166026913960400191505060405180910390fd5b610d8582826127df565b600c5481565b6001600160a01b03908116600090815260066020526040902060020154600160201b90041690565b600b546001600160a01b0316331461126e5760405162461bcd60e51b81526004018080602001828103825260268152602001806130166026913960400191505060405180910390fd5b600c546112898261127d611e8a565b9063ffffffff6127d216565b11156112c65760405162461bcd60e51b815260040180806020018281038252602d81526020018061311d602d913960400191505060405180910390fd5b610d8582826128b2565b6112d93361173e565b81111561132d576040805162461bcd60e51b815260206004820152601b60248201527f4e6f7420656e6f7567682073686172657320617661696c61626c650000000000604482015290519081900360640190fd5b61133833308361275c565b61134230826129a2565b50565b6007602052600090815260409020805460019091015482565b600e818154811061136b57fe5b6000918252602090912001546001600160a01b0316905081565b604080518082018252828152426020808301918252336000818152600790925284822093518455915160019093019290925591517f4c767b7b6b4e5b19edbb3ce0f841c467aa366beda334c58254bb264371819a119190a250565b600b54600160a01b900460ff1681565b600b546001600160a01b031633146114395760405162461bcd60e51b81526004018080602001828103825260268152602001806130166026913960400191505060405180910390fd5b60006114448561173e565b9050808411156114855760405162461bcd60e51b8152600401808060200182810382526032815260200180612f9a6032913960400191505060405180910390fd5b600d54611498908563ffffffff6127d216565b600d55604080516001600160a01b03871681526020810186905260609181018281529181018490527f0a605cd1294f60fa3b73548ac68428f33300a051f225afcdcc75e56083c96ee791879187918791879160808201848480828437600083820152604051601f909101601f191690920182900397509095505050505050a15050505050565b600a5481565b600b546001600160a01b0316331461156d5760405162461bcd60e51b81526004018080602001828103825260268152602001806130166026913960400191505060405180910390fd5b61158b83611586600161127d858763ffffffff6127c016565b611225565b604080516001600160a01b03851681526020810184905280820183905290517f7b37b2b4bba7b5ea40a69f93db727c289fbbaa632be8186cfa85e0297e0013199181900360600190a1505050565b336000908152600660205260409020600101541561173c5733600081815260066020908152604080832060018101805460028301805484546001600160a01b031916909455918690556001600160c01b03198316909155825163a9059cbb60e01b815260048101969096526024860181905291519194600160201b9091046001600160a01b031693849363a9059cbb93604480850194929391928390030190829087803b15801561168957600080fd5b505af115801561169d573d6000803e3d6000fd5b505050506040513d60208110156116b357600080fd5b5051611703576040805162461bcd60e51b815260206004820152601a60248201527910dbdb1b185d195c985b081d1c985b9cd9995c8819985a5b195960321b604482015290519081900360640190fd5b60408051838152905133917f203627483d943880619f4b7e0cca21dbefd6204b4d85b124eb99540e17ba86dd919081900360200190a250505b565b6001600160a01b031660009081526020819052604090205490565b600b546001600160a01b031633146117a25760405162461bcd60e51b81526004018080602001828103825260268152602001806130166026913960400191505060405180910390fd5b600b546040516001600160a01b03909116907ff8df31144d9c2f0f6b59d69b8b98abd5459d07f2742c4df920b25aae33c6482090600090a2600b80546001600160a01b0319169055565b6001600160a01b031660009081526007602052604090206001015490565b60006001600160a01b03821630141561182557506001610da5565b6009546001600160a01b03838116911614156118445750600a54610da5565b506000610da5565b60035481565b60055481565b600b546001600160a01b031681565b60086020526000908152604090205460ff1681565b611884612ef1565b506001600160a01b038082166000908152600660209081526040918290208251608081018452815485168152600182015492810183905260029091015463ffffffff811693820193909352600160201b9092049092166060820181905290919081611927576040805162461bcd60e51b815260206004820152600e60248201526d139bc818db185a5b48199bdd5b9960921b604482015290519081900360640190fd5b82516001600160a01b03163314611985576040805162461bcd60e51b815260206004820152601f60248201527f4f6e6c7920636c61696d616e742063616e207265736f6c766520636c61696d00604482015290519081900360640190fd5b426119ab60035463ffffffff16856040015163ffffffff166127d290919063ffffffff16565b11156119fe576040805162461bcd60e51b815260206004820152601960248201527f436c61696d20706572696f64206e6f74206f7665722079657400000000000000604482015290519081900360640190fd5b82516001600160a01b03808616600090815260066020908152604080832080546001600160a01b03191681556001810184905560020180546001600160c01b0319169055805163a9059cbb60e01b815284861660048201526024810188905290519386169363a9059cbb93604480840194938390030190829087803b158015611a8657600080fd5b505af1158015611a9a573d6000803e3d6000fd5b505050506040513d6020811015611ab057600080fd5b5051611b00576040805162461bcd60e51b815260206004820152601a60248201527910dbdb1b185d195c985b081d1c985b9cd9995c8819985a5b195960321b604482015290519081900360640190fd5b611b138582611b0e8861173e565b61275c565b806001600160a01b0316856001600160a01b03167f52a5c2b28bc6eb9712d0ced43463103b486b13ccc9cda499fd3b2d7b6a74a8ee856040518082815260200191505060405180910390a35050505050565b6040518060400160405280600381526020016253485360e81b81525081565b600b546001600160a01b03163314611bcd5760405162461bcd60e51b81526004018080602001828103825260268152602001806130166026913960400191505060405180910390fd5b600b805460ff60a01b1916600160a01b87151590810291909117909155604080519182526001600160a01b03841690820152606081018290526080602082018181529082018590527f016e2c313f98497b8330a5114aff9a72424bdf37c47e7cba23fc54dd480bc6dd918791879187918791879160a08201868680828437600083820152604051601f909101601f19169092018290039850909650505050505050a15050505050565b6001600160a01b031660009081526006602052604090206001015490565b600080611ca08361173e565b905060005b600e54811015611d5c576000600e8281548110611cbe57fe5b60009182526020918290200154604080516370a0823160e01b81526001600160a01b0389811660048301529151919092169350611d519284926370a082319260248083019392829003018186803b158015611d1857600080fd5b505afa158015611d2c573d6000803e3d6000fd5b505050506040513d6020811015611d4257600080fd5b5051849063ffffffff6127d216565b925050600101611ca5565b5092915050565b3360008181526001602090815260408083206001600160a01b03871684529091528120549091610c00918590610e9f908663ffffffff6127c016565b600b546001600160a01b03163314611de85760405162461bcd60e51b81526004018080602001828103825260268152602001806130166026913960400191505060405180910390fd5b611df0611e8a565b811015611e2e5760405162461bcd60e51b8152600401808060200182810382526027815260200180612fef6027913960400191505060405180910390fd5b600c55565b6000611e3f8383612a7b565b611e82576040805162461bcd60e51b815260206004820152600f60248201526e151c985b9cd9995c8819985a5b1959608a1b604482015290519081900360640190fd5b610c006115d9565b6000611ea6600d54611e9a610c19565b9063ffffffff6127c016565b905090565b6006602052600090815260409020805460018201546002909201546001600160a01b03918216929163ffffffff821691600160201b90041684565b600b546001600160a01b03163314611f2f5760405162461bcd60e51b81526004018080602001828103825260268152602001806130166026913960400191505060405180910390fd5b600e80546001810182556000919091527fbb7b4a454dc3493923482f07822329ed19e8244eff582cc204f8554c3620c3fd0180546001600160a01b0383166001600160a01b0319909116811790915560408051918252517f7417b75095e577f15d994b058af7a3a71f67be4ae2f288725d1b922f6bb67a679181900360200190a150565b600b546001600160a01b03163314611ffc5760405162461bcd60e51b81526004018080602001828103825260268152602001806130166026913960400191505060405180910390fd5b61134281612a88565b6040518060400160405280601381526020017238bab4ba3a1731b417b4b73b32b9ba37b932b760691b81525081565b6001600160a01b03918216600090815260016020908152604080832093909416825291909152205490565b6001600160a01b0382166120ba576040805162461bcd60e51b815260206004820152601860248201527f43616e277420636c61696d207a65726f20616464726573730000000000000000604482015290519081900360640190fd5b6120c382612651565b612114576040805162461bcd60e51b815260206004820181905260248201527f436c61696d732064697361626c656420666f7220746869732061646472657373604482015290519081900360640190fd5b600061211f8461180a565b905060008111612176576040805162461bcd60e51b815260206004820152601b60248201527f556e737570706f7274656420636f6c6c61746572616c20747970650000000000604482015290519081900360640190fd5b3360006121828561173e565b90506000612196828563ffffffff612b1c16565b905086826121eb576040805162461bcd60e51b815260206004820152601f60248201527f436c61696d6564206164647265737320686f6c6473206e6f2073686172657300604482015290519081900360640190fd5b60408051636eb1769f60e11b81526001600160a01b0386811660048301523060248301529151849284169163dd62ed3e916044808301926020929190829003018186803b15801561223b57600080fd5b505afa15801561224f573d6000803e3d6000fd5b505050506040513d602081101561226557600080fd5b505110156122ba576040805162461bcd60e51b815260206004820152601f60248201527f43757272656e637920616c6c6f77616e636520696e73756666696369656e7400604482015290519081900360640190fd5b81816001600160a01b03166370a08231866040518263ffffffff1660e01b815260040180826001600160a01b03166001600160a01b0316815260200191505060206040518083038186803b15801561231157600080fd5b505afa158015612325573d6000803e3d6000fd5b505050506040513d602081101561233b57600080fd5b50511015612390576040805162461bcd60e51b815260206004820152601d60248201527f43757272656e63792062616c616e636520696e73756666696369656e74000000604482015290519081900360640190fd5b6001600160a01b038716600090815260066020526040902060010154156123fe576040805162461bcd60e51b815260206004820152601760248201527f4164647265737320616c726561647920636c61696d6564000000000000000000604482015290519081900360640190fd5b6124088787612b41565b604080516323b872dd60e01b81526001600160a01b038681166004830152306024830152604482018590529151918316916323b872dd916064808201926020929091908290030181600087803b15801561246157600080fd5b505af1158015612475573d6000803e3d6000fd5b505050506040513d602081101561248b57600080fd5b50516124db576040805162461bcd60e51b815260206004820152601a60248201527910dbdb1b185d195c985b081d1c985b9cd9995c8819985a5b195960321b604482015290519081900360640190fd5b604080516080810182526001600160a01b0386811680835260208084018781524263ffffffff9081168688019081528f8616606088019081528f87166000818152600687528a812099518a546001600160a01b031916908a16178a5594516001808b0191909155925160029099018054925163ffffffff199093169990941698909817640100000000600160c01b031916600160201b919097160295909517905582815260078252858120818155909301929092558351878152935190937f1982ca8958fc8a8176cb52be509260f4bc5af7ce04e1533711793f1c56dd535992908290030190a35050505050505050565b6001600160a01b031660009081526006602052604090206002015463ffffffff1690565b60045481565b33731b5aed8cc7b7b8f02de451f7cda5292d629c045f146126485760405162461bcd60e51b815260040180806020018281038252602781526020018061303c6027913960400191505060405180910390fd5b61134281612d0e565b6001600160a01b031660009081526008602052604090205460ff161590565b6001600160a01b0383166126b55760405162461bcd60e51b81526004018080602001828103825260248152602001806130d46024913960400191505060405180910390fd5b6001600160a01b0382166126fa5760405162461bcd60e51b8152600401808060200182810382526022815260200180612f536022913960400191505060405180910390fd5b6001600160a01b03808416600081815260016020908152604080832094871680845294825291829020859055815185815291517f8c5be1e5ebec7d5bd14f71427d1e84f3dd0314c0f7b2291e5b200ac8c7c3b9259281900390910190a3505050565b600b54600160a01b900460ff16156127b0576040805162461bcd60e51b815260206004820152601260248201527110dbdb9d1c9858dd081a5cc81c185d5cd95960721b604482015290519081900360640190fd5b6127bb838383612daf565b505050565b6000828211156127cc57fe5b50900390565b81810182811015610c0457fe5b600980546001600160a01b0319166001600160a01b0384811691909117918290551661280f576000600a5561286a565b60008111612864576040805162461bcd60e51b815260206004820152601d60248201527f436f6c6c61746572616c20726174652063616e2774206265207a65726f000000604482015290519081900360640190fd5b600a8190555b604080516001600160a01b03841681526020810183905281517f94238858463adf0fecc0e064844831a54bccf8467c86f0b93d2a9508e0596853929181900390910190a15050565b6001600160a01b03821661290d576040805162461bcd60e51b815260206004820152601f60248201527f45524332303a206d696e7420746f20746865207a65726f206164647265737300604482015290519081900360640190fd5b600254612920908263ffffffff6127d216565b6002556001600160a01b03821660009081526020819052604090205461294c908263ffffffff6127d216565b6001600160a01b0383166000818152602081815260408083209490945583518581529351929391927fddf252ad1be2c89b69c2b068fc378daa952ba7f163c4a11628f55a4df523b3ef9281900390910190a35050565b6001600160a01b0382166129e75760405162461bcd60e51b81526004018080602001828103825260218152602001806130636021913960400191505060405180910390fd5b6002546129fa908263ffffffff6127c016565b6002556001600160a01b038216600090815260208190526040902054612a26908263ffffffff6127c016565b6001600160a01b038316600081815260208181526040808320949094558351858152935191937fddf252ad1be2c89b69c2b068fc378daa952ba7f163c4a11628f55a4df523b3ef929081900390910190a35050565b6000610c0033848461275c565b605a8111612ac75760405162461bcd60e51b81526004018080602001828103825260258152602001806130f86025913960400191505060405180910390fd5b6000612adc826201518063ffffffff612b1c16565b60038190556040805182815290519192507ffde5ae686f4fb7b301820b66139fa5cbed90c4b91428ce2fe961558fcac47ba6919081900360200190a15050565b600082612b2b57506000610c04565b5081810281838281612b3957fe5b0414610c0457fe5b612b49612f18565b50336000908152600760209081526040918290208251808401909352805480845260019091015491830191909152612bc8576040805162461bcd60e51b815260206004820152601a60248201527f4d65737361676520686173682063616e2774206265207a65726f000000000000604482015290519081900360640190fd5b42612be260045483602001516127d290919063ffffffff16565b1115612c1f5760405162461bcd60e51b815260040180806020018281038252602b8152602001806130a9602b913960400191505060405180910390fd5b42612c3960055483602001516127d290919063ffffffff16565b1015612c765760405162461bcd60e51b8152600401808060200182810382526025815260200180612f756025913960400191505060405180910390fd5b60408051602080820185905233606090811b8385015286901b6bffffffffffffffffffffffff1916605483015282518083036048018152606890920190925280519101208151146127bb576040805162461bcd60e51b815260206004820152601e60248201527f5061636b61676520636f756c64206e6f742062652076616c6964617465640000604482015290519081900360640190fd5b6001600160a01b038116612d535760405162461bcd60e51b8152600401808060200182810382526023815260200180612fcc6023913960400191505060405180910390fd5b600b546040516001600160a01b038084169216907f8be0079c531659141344cd1fd0a4f28419497f9722a3daafe3b4186f6b6457e090600090a3600b80546001600160a01b0319166001600160a01b0392909216919091179055565b6001600160a01b038316612df45760405162461bcd60e51b81526004018080602001828103825260258152602001806130846025913960400191505060405180910390fd5b6001600160a01b038216612e395760405162461bcd60e51b8152600401808060200182810382526023815260200180612f306023913960400191505060405180910390fd5b6001600160a01b038316600090815260208190526040902054612e62908263ffffffff6127c016565b6001600160a01b038085166000908152602081905260408082209390935590841681522054612e97908263ffffffff6127d216565b6001600160a01b038084166000818152602081815260409182902094909455805185815290519193928716927fddf252ad1be2c89b69c2b068fc378daa952ba7f163c4a11628f55a4df523b3ef92918290030190a3505050565b60408051608081018252600080825260208201819052918101829052606081019190915290565b60408051808201909152600080825260208201529056fe45524332303a207472616e7366657220746f20746865207a65726f206164647265737345524332303a20617070726f766520746f20746865207a65726f2061646472657373507265636c61696d20706572696f6420656e642e20436c61696d656420746f6f206c61746543616e6e6f7420696e76616c6964617465206d6f726520746f6b656e73207468616e2068656c6420627920616464726573735a65726f20616464726573732063616e2774206f776e2074686520636f6e747261637454686572652063616e277420626520666577657220746f6b656e73207468616e20736861726573596f7520617265206e6f7420746865206f776e6572206f66207468697320636f6e7472616374596f7520617265206e6f7420746865206d6173746572206f66207468697320636f6e747261637445524332303a206275726e2066726f6d20746865207a65726f206164647265737345524332303a207472616e736665722066726f6d20746865207a65726f2061646472657373507265636c61696d20706572696f642076696f6c617465642e20436c61696d656420746f6f206561726c7945524332303a20617070726f76652066726f6d20746865207a65726f2061646472657373436c61696d20706572696f64206d757374206265206174206c65617374203930206461797354686572652063616e277420626520666577657220736861726573207468616e2076616c696420746f6b656e73a265627a7a72305820918b3b3c5401f116366c0cba5ac7ec156d9ea4bffab03b168b4dd2f805782b6864736f6c634300050a0032",
    "sourcePath": "c:/Users/luziu/Documents/aktionariat/contracts/ext/SHS.sol",
    "compiler": {
        "name": "solc",
        "version": "0.5.10+commit.5a6ea5b1"
    },
    "functionHashes": {
        "allowance(address,address)": "dd62ed3e",
        "announcement(string)": "1f0f06aa",
        "approve(address,uint256)": "095ea7b3",
        "balanceOf(address)": "70a08231",
        "balanceOfDeep(address)": "a26cf59f",
        "burn(uint256)": "42966c68",
        "claimPeriod()": "7dc2cd98",
        "claimingDisabled(address)": "8e0597c1",
        "claims(address)": "c6788bdd",
        "clearClaim()": "6b03ed5f",
        "customCollateralAddress()": "0c6f0e5d",
        "customCollateralRate()": "60918117",
        "decimals()": "313ce567",
        "declareInvalid(address,uint256,string)": "5d6624b7",
        "declareLost(address,address,bytes32)": "e5a8765a",
        "decreaseAllowance(address,uint256)": "a457c2d7",
        "deleteClaim(address)": "32a7ae95",
        "getClaimDeleter()": "2a0a4ed5",
        "getClaimant(address)": "1e3b9de5",
        "getCollateral(address)": "9b56d6c9",
        "getCollateralRate(address)": "77e071ad",
        "getCollateralType(address)": "3bcc45ba",
        "getMsgHash(address)": "24b50e43",
        "getPreClaimTimeStamp(address)": "75a88bcf",
        "getTimeStamp(address)": "eb470ebf",
        "increaseAllowance(address,uint256)": "39509351",
        "invalidTokens()": "37a8129c",
        "isClaimsEnabled(address)": "f66f145a",
        "mint(address,uint256)": "40c10f19",
        "mintNumbered(address,uint256,uint256)": "69f721e2",
        "name()": "06fdde03",
        "owner()": "8da5cb5b",
        "pause(bool,string,address,uint256)": "980591f4",
        "paused()": "5c975abb",
        "preClaimPeriod()": "ee18d99e",
        "preClaimPeriodEnd()": "7dde2a02",
        "preClaims(address)": "493c160f",
        "prepareClaim(bytes32)": "5b1c1625",
        "recognizeSubRegister(address)": "cc51e143",
        "removeSubRegister(address)": "1993982d",
        "renounceOwnership()": "715018a6",
        "resolveClaim(address)": "94d645a8",
        "setClaimPeriod(uint256)": "d2c04f43",
        "setClaimable(bool)": "378c93ad",
        "setCustomClaimCollateral(address,uint256)": "3a1cdf32",
        "setTotalShares(uint256)": "a77384c1",
        "subregisters(uint256)": "4ae5e630",
        "symbol()": "95d89b41",
        "terms()": "d5025625",
        "totalShares()": "3a98ef39",
        "totalSupply()": "18160ddd",
        "totalValidSupply()": "b0d04c7a",
        "transfer(address,uint256)": "a9059cbb",
        "transferFrom(address,address,uint256)": "23b872dd",
        "transferOwnership(address)": "f2fde38b"
    },
    "gasEstimates": {
        "creation": {
            "codeDepositCost": "2534000",
            "executionCost": "107974",
            "totalCost": "2641974"
        },
        "external": {
            "allowance(address,address)": "739",
            "announcement(string)": "infinite",
            "approve(address,uint256)": "infinite",
            "balanceOf(address)": "636",
            "balanceOfDeep(address)": "infinite",
            "burn(uint256)": "infinite",
            "claimPeriod()": "510",
            "claimingDisabled(address)": "626",
            "claims(address)": "1198",
            "clearClaim()": "infinite",
            "customCollateralAddress()": "528",
            "customCollateralRate()": "509",
            "decimals()": "297",
            "declareInvalid(address,uint256,string)": "infinite",
            "declareLost(address,address,bytes32)": "infinite",
            "decreaseAllowance(address,uint256)": "infinite",
            "deleteClaim(address)": "infinite",
            "getClaimDeleter()": "505",
            "getClaimant(address)": "735",
            "getCollateral(address)": "659",
            "getCollateralRate(address)": "865",
            "getCollateralType(address)": "685",
            "getMsgHash(address)": "655",
            "getPreClaimTimeStamp(address)": "616",
            "getTimeStamp(address)": "620",
            "increaseAllowance(address,uint256)": "infinite",
            "invalidTokens()": "467",
            "isClaimsEnabled(address)": "689",
            "mint(address,uint256)": "infinite",
            "mintNumbered(address,uint256,uint256)": "infinite",
            "name()": "infinite",
            "owner()": "505",
            "pause(bool,string,address,uint256)": "infinite",
            "paused()": "494",
            "preClaimPeriod()": "486",
            "preClaimPeriodEnd()": "532",
            "preClaims(address)": "831",
            "prepareClaim(bytes32)": "41615",
            "recognizeSubRegister(address)": "infinite",
            "removeSubRegister(address)": "infinite",
            "renounceOwnership()": "infinite",
            "resolveClaim(address)": "infinite",
            "setClaimPeriod(uint256)": "infinite",
            "setClaimable(bool)": "20630",
            "setCustomClaimCollateral(address,uint256)": "infinite",
            "setTotalShares(uint256)": "infinite",
            "subregisters(uint256)": "860",
            "symbol()": "infinite",
            "terms()": "infinite",
            "totalShares()": "466",
            "totalSupply()": "511",
            "totalValidSupply()": "infinite",
            "transfer(address,uint256)": "infinite",
            "transferFrom(address,address,uint256)": "infinite",
            "transferOwnership(address)": "infinite"
        },
        "internal": {
            "_transfer(address,address,uint256)": "infinite"
        }
    }
}