{
  "address": "0x0Ce81520a08157985f66288542a04Db2d958C749",
  "abi": [
    {
      "inputs": [
        {
          "internalType": "address",
          "name": "_weth",
          "type": "address"
        },
        {
          "internalType": "contract IQuoter",
          "name": "_Quoter",
          "type": "address"
        },
        {
          "internalType": "contract BrokerbotRegistry",
          "name": "_registry",
          "type": "address"
        }
      ],
      "stateMutability": "nonpayable",
      "type": "constructor"
    },
    {
      "inputs": [],
      "name": "Brokerbot_Not_Found",
      "type": "error"
    },
    {
      "inputs": [],
      "name": "WETH9",
      "outputs": [
        {
          "internalType": "address",
          "name": "",
          "type": "address"
        }
      ],
      "stateMutability": "view",
      "type": "function"
    },
    {
      "inputs": [
        {
          "internalType": "bytes",
          "name": "path",
          "type": "bytes"
        },
        {
          "internalType": "uint256",
          "name": "amountIn",
          "type": "uint256"
        }
      ],
      "name": "quoteExactInput",
      "outputs": [
        {
          "internalType": "uint256",
          "name": "amountOut",
          "type": "uint256"
        }
      ],
      "stateMutability": "nonpayable",
      "type": "function"
    },
    {
      "inputs": [
        {
          "internalType": "address",
          "name": "tokenIn",
          "type": "address"
        },
        {
          "internalType": "address",
          "name": "tokenOut",
          "type": "address"
        },
        {
          "internalType": "uint24",
          "name": "",
          "type": "uint24"
        },
        {
          "internalType": "uint256",
          "name": "amountIn",
          "type": "uint256"
        },
        {
          "internalType": "uint160",
          "name": "",
          "type": "uint160"
        }
      ],
      "name": "quoteExactInputSingle",
      "outputs": [
        {
          "internalType": "uint256",
          "name": "amountOut",
          "type": "uint256"
        }
      ],
      "stateMutability": "view",
      "type": "function"
    },
    {
      "inputs": [
        {
          "internalType": "bytes",
          "name": "path",
          "type": "bytes"
        },
        {
          "internalType": "uint256",
          "name": "amountOut",
          "type": "uint256"
        }
      ],
      "name": "quoteExactOutput",
      "outputs": [
        {
          "internalType": "uint256",
          "name": "amountIn",
          "type": "uint256"
        }
      ],
      "stateMutability": "nonpayable",
      "type": "function"
    },
    {
      "inputs": [
        {
          "internalType": "address",
          "name": "tokenIn",
          "type": "address"
        },
        {
          "internalType": "address",
          "name": "tokenOut",
          "type": "address"
        },
        {
          "internalType": "uint24",
          "name": "",
          "type": "uint24"
        },
        {
          "internalType": "uint256",
          "name": "amountOut",
          "type": "uint256"
        },
        {
          "internalType": "uint160",
          "name": "",
          "type": "uint160"
        }
      ],
      "name": "quoteExactOutputSingle",
      "outputs": [
        {
          "internalType": "uint256",
          "name": "amountIn",
          "type": "uint256"
        }
      ],
      "stateMutability": "view",
      "type": "function"
    }
  ],
  "transactionHash": "0x1ca3813c3372a467561667c2ed62a5e3f18798a3dd68133e68a64eb6238d2358",
  "args": [
    "0xC02aaA39b223FE8D0A0e5C4F27eAD9083C756Cc2",
    "0xb27308f9F90D607463bb33eA1BeBb41C27CE5AB6",
    "0xec0739be570c77c9b544802e4c06a95be719ee5f"
  ],
  "numDeployments": 1,
  "solcInputHash": "52da0c8ebd6b37bb8f91e29cfaaf8064",
  "bytecode": "0x60e060405234801561001057600080fd5b50604051610ba2380380610ba283398101604081905261002f91610064565b6001600160a01b0392831660805290821660a0521660c0526100b1565b6001600160a01b038116811461006157600080fd5b50565b60008060006060848603121561007957600080fd5b83516100848161004c565b60208501519093506100958161004c565b60408501519092506100a68161004c565b809150509250925092565b60805160a05160c051610aa76100fb6000396000818161010c0152818161026001528181610319015261041e0152600081816101d201526103df0152600060a20152610aa76000f3fe608060405234801561001057600080fd5b50600436106100575760003560e01c80632f80bb1d1461005c57806330d07f21146100825780634aa4a4fc14610095578063cdca1753146100cc578063f7729d43146100df575b600080fd5b61006f61006a366004610866565b6100f2565b6040519081526020015b60405180910390f35b61006f610090366004610933565b610258565b6040516001600160a01b037f0000000000000000000000000000000000000000000000000000000000000000168152602001610079565b61006f6100da366004610866565b6102ff565b61006f6100ed366004610933565b610416565b600080600061010085610475565b509150915060006101327f000000000000000000000000000000000000000000000000000000000000000083856104b1565b5060405163023536c560e21b8152600481018790529091506001600160a01b038216906308d4db1490602401602060405180830381865afa15801561017b573d6000803e3d6000fd5b505050506040513d601f19601f8201168201806040525081019061019f91906109a3565b93506101aa866105bd565b1561024f576101b8866105f7565b604051632f80bb1d60e01b81529096506001600160a01b037f00000000000000000000000000000000000000000000000000000000000000001690632f80bb1d9061020990899088906004016109bc565b6020604051808303816000875af1158015610228573d6000803e3d6000fd5b505050506040513d601f19601f8201168201806040525081019061024c91906109a3565b93505b50505092915050565b6000806102867f000000000000000000000000000000000000000000000000000000000000000088886104b1565b5060405163023536c560e21b8152600481018690529091506001600160a01b038216906308d4db14906024015b602060405180830381865afa1580156102d0573d6000803e3d6000fd5b505050506040513d601f19601f820116820180604052508101906102f491906109a3565b979650505050505050565b600080600061030d85610475565b5091509150600061033f7f000000000000000000000000000000000000000000000000000000000000000083856104b1565b5060405163ba730e5360e01b8152600481018790529091506001600160a01b0382169063ba730e5390602401602060405180830381865afa158015610388573d6000803e3d6000fd5b505050506040513d601f19601f820116820180604052508101906103ac91906109a3565b93506103b7866105bd565b1561024f576103c5866105f7565b60405163cdca175360e01b81529096506001600160a01b037f0000000000000000000000000000000000000000000000000000000000000000169063cdca17539061020990899088906004016109bc565b6000806104447f000000000000000000000000000000000000000000000000000000000000000087896104b1565b5060405163ba730e5360e01b8152600481018690529091506001600160a01b0382169063ba730e53906024016102b3565b60008080610483848261062e565b9250610490846014610698565b90506104a86104a160036014610a27565b859061062e565b91509193909250565b604051633b55df8560e11b81526001600160a01b038381166004830152828116602483015260009182918616906376abbf0a90604401602060405180830381865afa158015610504573d6000803e3d6000fd5b505050506040513d601f19601f820116820180604052508101906105289190610a3a565b91506001600160a01b038216610551576040516325ef27af60e01b815260040160405180910390fd5b816001600160a01b031663777adcf06040518163ffffffff1660e01b8152600401602060405180830381865afa15801561058f573d6000803e3d6000fd5b505050506040513d601f19601f820116820180604052508101906105b39190610a3a565b9050935093915050565b60006105cb60036014610a27565b60146105d8600382610a27565b6105e29190610a27565b6105ec9190610a27565b825110159050919050565b606061062861060860036014610a27565b61061460036014610a27565b84516106209190610a5e565b849190610743565b92915050565b600061063b826014610a27565b835110156106885760405162461bcd60e51b8152602060048201526015602482015274746f416464726573735f6f75744f66426f756e647360581b60448201526064015b60405180910390fd5b500160200151600160601b900490565b6000816106a6816003610a27565b10156106e85760405162461bcd60e51b8152602060048201526011602482015270746f55696e7432345f6f766572666c6f7760781b604482015260640161067f565b6106f3826003610a27565b8351101561073a5760405162461bcd60e51b8152602060048201526014602482015273746f55696e7432345f6f75744f66426f756e647360601b604482015260640161067f565b50016003015190565b60608161075181601f610a27565b10156107905760405162461bcd60e51b815260206004820152600e60248201526d736c6963655f6f766572666c6f7760901b604482015260640161067f565b61079a8284610a27565b845110156107de5760405162461bcd60e51b8152602060048201526011602482015270736c6963655f6f75744f66426f756e647360781b604482015260640161067f565b6060821580156107fd5760405191506000825260208201604052610847565b6040519150601f8416801560200281840101858101878315602002848b0101015b8183101561083657805183526020928301920161081e565b5050858452601f01601f1916604052505b50949350505050565b634e487b7160e01b600052604160045260246000fd5b6000806040838503121561087957600080fd5b823567ffffffffffffffff8082111561089157600080fd5b818501915085601f8301126108a557600080fd5b8135818111156108b7576108b7610850565b604051601f8201601f19908116603f011681019083821181831017156108df576108df610850565b816040528281528860208487010111156108f857600080fd5b826020860160208301376000602093820184015298969091013596505050505050565b6001600160a01b038116811461093057600080fd5b50565b600080600080600060a0868803121561094b57600080fd5b85356109568161091b565b945060208601356109668161091b565b9350604086013562ffffff8116811461097e57600080fd5b92506060860135915060808601356109958161091b565b809150509295509295909350565b6000602082840312156109b557600080fd5b5051919050565b604081526000835180604084015260005b818110156109ea57602081870181015160608684010152016109cd565b506000606082850101526060601f19601f8301168401019150508260208301529392505050565b634e487b7160e01b600052601160045260246000fd5b8082018082111561062857610628610a11565b600060208284031215610a4c57600080fd5b8151610a578161091b565b9392505050565b8181038181111561062857610628610a1156fea264697066735822122072798a28c0eb3c4f7fbd6f87708a83e4de4553765d80cccaa4eba0319aec9f2364736f6c63430008150033",
  "devdoc": {
    "author": "Bernhard Ruf, bernhard@aktionariat.com ",
    "kind": "dev",
    "methods": {
      "quoteExactInput(bytes,uint256)": {
        "params": {
          "amountIn": "The amount of the first token to swap",
          "path": "The path of the swap, i.e. each token pair and the pool fee"
        },
        "returns": {
          "amountOut": "The amount of the last token that would be received"
        }
      },
      "quoteExactInputSingle(address,address,uint24,uint256,uint160)": {
        "details": "only used for selling shares for base currency",
        "params": {
          "amountIn": "The desired input amount",
          "fee": "The fee of the token pool to consider for the pair",
          "sqrtPriceLimitX96": "The price limit of the pool that cannot be exceeded by the swap",
          "tokenIn": "The token being swapped in",
          "tokenOut": "The token being swapped out"
        },
        "returns": {
          "amountOut": "The amount of `tokenOut` that would be received"
        }
      },
      "quoteExactOutput(bytes,uint256)": {
        "params": {
          "amountOut": "The amount of the last token to receive",
          "path": "The path of the swap, i.e. each token pair and the pool fee. Path must be provided in reverse order"
        },
        "returns": {
          "amountIn": "The amount of first token required to be paid"
        }
      },
      "quoteExactOutputSingle(address,address,uint24,uint256,uint160)": {
        "details": "only used for buying shares with base currency",
        "params": {
          "amountOut": "The desired output amount",
          "fee": "The fee of the token pool to consider for the pair",
          "sqrtPriceLimitX96": "The price limit of the pool that cannot be exceeded by the swap",
          "tokenIn": "The token being swapped in",
          "tokenOut": "The token being swapped out"
        },
        "returns": {
          "amountIn": "The amount required as the input for the swap in order to receive `amountOut`"
        }
      }
    },
    "title": "Brokerbot Swap Quoter",
    "version": 1
  },
  "userdoc": {
    "kind": "user",
    "methods": {
      "quoteExactInput(bytes,uint256)": {
        "notice": "Returns the amount out received for a given exact input swap without executing the swap"
      },
      "quoteExactInputSingle(address,address,uint24,uint256,uint160)": {
        "notice": "Returns the amount out received for a given exact input but for a swap of a single pool"
      },
      "quoteExactOutput(bytes,uint256)": {
        "notice": "Returns the amount in required for a given exact output swap without executing the swap"
      },
      "quoteExactOutputSingle(address,address,uint24,uint256,uint160)": {
        "notice": "Returns the amount in required to receive the given exact output amount but for a swap of a single pool"
      }
    },
    "version": 1
  },
  "storageLayout": {
    "storage": [],
    "types": null
  }
}