{
  "address": "0xb4dC570b6Aa16d431771c0b01cB78029E0bE559e",
  "abi": [
    {
      "inputs": [
        {
          "internalType": "address",
          "name": "_owner",
          "type": "address"
        }
      ],
      "stateMutability": "nonpayable",
      "type": "constructor"
    },
    {
      "inputs": [
        {
          "internalType": "address",
          "name": "sender",
          "type": "address"
        }
      ],
      "name": "Ownable_NotOwner",
      "type": "error"
    },
    {
      "anonymous": false,
      "inputs": [
        {
          "indexed": true,
          "internalType": "address",
          "name": "brokerbot",
          "type": "address"
        }
      ],
      "name": "BrokerbotDeactivated",
      "type": "event"
    },
    {
      "anonymous": false,
      "inputs": [
        {
          "indexed": false,
          "internalType": "contract IBrokerbot",
          "name": "brokerbot",
          "type": "address"
        },
        {
          "indexed": true,
          "internalType": "contract IERC20",
          "name": "base",
          "type": "address"
        },
        {
          "indexed": true,
          "internalType": "contract IERC20",
          "name": "token",
          "type": "address"
        }
      ],
      "name": "BrokerbotRegistered",
      "type": "event"
    },
    {
      "anonymous": false,
      "inputs": [
        {
          "indexed": true,
          "internalType": "contract IBrokerbot",
          "name": "brokerbot",
          "type": "address"
        }
      ],
      "name": "BrokerbotSync",
      "type": "event"
    },
    {
      "anonymous": false,
      "inputs": [
        {
          "indexed": true,
          "internalType": "address",
          "name": "previousOwner",
          "type": "address"
        },
        {
          "indexed": true,
          "internalType": "address",
          "name": "newOwner",
          "type": "address"
        }
      ],
      "name": "OwnershipTransferred",
      "type": "event"
    },
    {
      "inputs": [
        {
          "internalType": "address",
          "name": "brokerbot",
          "type": "address"
        }
      ],
      "name": "deactivateBrokerbot",
      "outputs": [],
      "stateMutability": "nonpayable",
      "type": "function"
    },
    {
      "inputs": [],
      "name": "getAllActiveBrokerbots",
      "outputs": [
        {
          "internalType": "address[]",
          "name": "brokerbots",
          "type": "address[]"
        }
      ],
      "stateMutability": "view",
      "type": "function"
    },
    {
      "inputs": [],
      "name": "getAllBrokerbots",
      "outputs": [
        {
          "internalType": "address[]",
          "name": "brokerbots",
          "type": "address[]"
        }
      ],
      "stateMutability": "view",
      "type": "function"
    },
    {
      "inputs": [
        {
          "internalType": "contract IERC20",
          "name": "",
          "type": "address"
        },
        {
          "internalType": "contract IERC20",
          "name": "",
          "type": "address"
        }
      ],
      "name": "getBrokerbot",
      "outputs": [
        {
          "internalType": "contract IBrokerbot",
          "name": "",
          "type": "address"
        }
      ],
      "stateMutability": "view",
      "type": "function"
    },
    {
      "inputs": [],
      "name": "owner",
      "outputs": [
        {
          "internalType": "address",
          "name": "",
          "type": "address"
        }
      ],
      "stateMutability": "view",
      "type": "function"
    },
    {
      "inputs": [
        {
          "internalType": "contract IBrokerbot",
          "name": "_brokerbot",
          "type": "address"
        },
        {
          "internalType": "contract TokenRegistry",
          "name": "_tokenRegistry",
          "type": "address"
        }
      ],
      "name": "registerBrokerbot",
      "outputs": [],
      "stateMutability": "nonpayable",
      "type": "function"
    },
    {
      "inputs": [
        {
          "internalType": "contract IBrokerbot",
          "name": "_brokerbot",
          "type": "address"
        }
      ],
      "name": "syncBrokerbot",
      "outputs": [],
      "stateMutability": "nonpayable",
      "type": "function"
    },
    {
      "inputs": [
        {
          "internalType": "address",
          "name": "newOwner",
          "type": "address"
        }
      ],
      "name": "transferOwnership",
      "outputs": [],
      "stateMutability": "nonpayable",
      "type": "function"
    }
  ],
  "transactionHash": "0x28272694b336dcc2beb709884a34d5a8f7188f1845a173f6db00015b2c86e946",
  "args": [
    "0x447ffD9a116efb3D77f47802cc4869C3730f723C"
  ],
  "numDeployments": 2,
  "solcInputHash": "9075dcaa43b87f5f25553f1d48893652",
  "bytecode": "0x6080604052348015600f57600080fd5b5060405161088f38038061088f833981016040819052602c91607a565b600080546001600160a01b0319166001600160a01b03831690811782556040518392907f8be0079c531659141344cd1fd0a4f28419497f9722a3daafe3b4186f6b6457e0908290a3505060a8565b600060208284031215608b57600080fd5b81516001600160a01b038116811460a157600080fd5b9392505050565b6107d8806100b76000396000f3fe608060405234801561001057600080fd5b50600436106100885760003560e01c80639abad75e1161005b5780639abad75e14610112578063c836ff5114610127578063e55121c61461013a578063f2fde38b1461014d57600080fd5b8063333fbcbd1461008d57806349855b7f146100ab57806376abbf0a146100b35780638da5cb5b146100ff575b600080fd5b610095610160565b6040516100a2919061065b565b60405180910390f35b610095610171565b6100e76100c13660046106c0565b60056020908152600092835260408084209091529082529020546001600160a01b031681565b6040516001600160a01b0390911681526020016100a2565b6000546100e7906001600160a01b031681565b6101256101203660046106f9565b61017d565b005b6101256101353660046106f9565b6101b4565b6101256101483660046106c0565b6101ff565b61012561015b3660046106f9565b6103e0565b606061016c6003610443565b905090565b606061016c6001610443565b6040516001600160a01b038216907f1bd881792b0d79aba94eb5d1d39a71fa269fddf813d39e564e5c7e7f57b0f6b390600090a250565b6101bc610457565b6101c760038261048a565b506040516001600160a01b038216907f7efc451e1a01eefc5e0bfb9dc4157e88f06fafb3069671710b8c8e1bdf97bafd90600090a250565b610207610457565b60006102146001846104a8565b905080156103db576000836001600160a01b031663fc0c546a6040518163ffffffff1660e01b8152600401602060405180830381865afa15801561025c573d6000803e3d6000fd5b505050506040513d601f19601f820116820180604052508101906102809190610716565b90506000846001600160a01b0316635001f3b56040518163ffffffff1660e01b8152600401602060405180830381865afa1580156102c2573d6000803e3d6000fd5b505050506040513d601f19601f820116820180604052508101906102e69190610716565b90506102f36003866104a8565b506001600160a01b03818116600090815260056020908152604080832086851680855292529182902080546001600160a01b0319168985161790559051636473b10760e01b8152600481019190915290851690636473b107906024016020604051808303816000875af115801561036e573d6000803e3d6000fd5b505050506040513d601f19601f820116820180604052508101906103929190610733565b506040516001600160a01b03868116825280841691908316907fac80c540c8dc2c7a0089104140c6231a322ae630a8153c382c30350a009e743f9060200160405180910390a350505b505050565b6103e8610457565b600080546040516001600160a01b03808516939216917f8be0079c531659141344cd1fd0a4f28419497f9722a3daafe3b4186f6b6457e091a3600080546001600160a01b0319166001600160a01b0392909216919091179055565b60606000610450836104bd565b9392505050565b6000546001600160a01b03163314610488576040516396a19be960e01b815233600482015260240160405180910390fd5b565b600061049f836001600160a01b038416610519565b90505b92915050565b600061049f836001600160a01b03841661060c565b60608160000180548060200260200160405190810160405280929190818152602001828054801561050d57602002820191906000526020600020905b8154815260200190600101908083116104f9575b50505050509050919050565b6000818152600183016020526040812054801561060257600061053d600183610755565b855490915060009061055190600190610755565b90508082146105b657600086600001828154811061057157610571610776565b906000526020600020015490508087600001848154811061059457610594610776565b6000918252602080832090910192909255918252600188019052604090208390555b85548690806105c7576105c761078c565b6001900381819060005260206000200160009055905585600101600086815260200190815260200160002060009055600193505050506104a2565b60009150506104a2565b6000818152600183016020526040812054610653575081546001818101845560008481526020808220909301849055845484825282860190935260409020919091556104a2565b5060006104a2565b6020808252825182820181905260009190848201906040850190845b8181101561069c5783516001600160a01b031683529284019291840191600101610677565b50909695505050505050565b6001600160a01b03811681146106bd57600080fd5b50565b600080604083850312156106d357600080fd5b82356106de816106a8565b915060208301356106ee816106a8565b809150509250929050565b60006020828403121561070b57600080fd5b8135610450816106a8565b60006020828403121561072857600080fd5b8151610450816106a8565b60006020828403121561074557600080fd5b8151801515811461045057600080fd5b818103818111156104a257634e487b7160e01b600052601160045260246000fd5b634e487b7160e01b600052603260045260246000fd5b634e487b7160e01b600052603160045260246000fdfea2646970667358221220e92d928a39f2c29f546c225a2f3a657c59017ff451735d19f66ccf4258f1cbdc64736f6c63430008190033",
  "devdoc": {
    "author": "rube-de ",
    "details": "This contract is used to register and manage brokerbots",
    "events": {
      "BrokerbotDeactivated(address)": {
        "params": {
          "brokerbot": "The deactivated brokerbot address"
        }
      },
      "BrokerbotRegistered(address,address,address)": {
        "params": {
          "base": "The address of the base currency",
          "brokerbot": "The address of the registered brokerbot",
          "token": "The address of the share token"
        }
      },
      "BrokerbotSync(address)": {
        "params": {
          "brokerbot": "The brokerbot address that is synced"
        }
      }
    },
    "kind": "dev",
    "methods": {
      "constructor": {
        "params": {
          "_owner": "The address of the owner"
        }
      },
      "deactivateBrokerbot(address)": {
        "params": {
          "brokerbot": "The address of the brokerbot to deactivate"
        }
      },
      "getAllActiveBrokerbots()": {
        "returns": {
          "brokerbots": "An array of active brokerbot addresses"
        }
      },
      "getAllBrokerbots()": {
        "returns": {
          "brokerbots": "An array of all registered brokerbot addresses"
        }
      },
      "registerBrokerbot(address,address)": {
        "details": "Per network, only one active brokerbot should exist per base/share token pair ",
        "params": {
          "_brokerbot": "The brokerbot contract to be registered",
          "_tokenRegistry": "The token registry contract"
        }
      },
      "syncBrokerbot(address)": {
        "details": "This event is useful for indexers/subgraphs to update token balances which are not tracked with other events ",
        "params": {
          "_brokerbot": "The brokerbot to sync"
        }
      },
      "transferOwnership(address)": {
        "details": "Transfers ownership of the contract to a new account (`newOwner`). Can only be called by the current owner."
      }
    },
    "stateVariables": {
      "getBrokerbot": {
        "details": "mapping is [base][token] = brokerbotAddress ",
        "return": "brokerbot The brokerbot address",
        "returns": {
          "_0": "brokerbot The brokerbot address"
        }
      }
    },
    "title": "Brokerbot Registry",
    "version": 1
  },
  "userdoc": {
    "events": {
      "BrokerbotDeactivated(address)": {
        "notice": "Emitted when a brokerbot is deactivated "
      },
      "BrokerbotRegistered(address,address,address)": {
        "notice": "Emitted when a brokerbot is registered "
      },
      "BrokerbotSync(address)": {
        "notice": "Emitted when calling the syncBrokerbot function "
      }
    },
    "kind": "user",
    "methods": {
      "constructor": {
        "notice": "Constructor that sets the owner "
      },
      "deactivateBrokerbot(address)": {
        "notice": "Deactivates a brokerbot "
      },
      "getAllActiveBrokerbots()": {
        "notice": "Gets all active brokerbots "
      },
      "getAllBrokerbots()": {
        "notice": "Gets all registered brokerbots "
      },
      "getBrokerbot(address,address)": {
        "notice": "Returns the brokerbot address for a given base and share token pair, or address 0 if it does not exist "
      },
      "registerBrokerbot(address,address)": {
        "notice": "Registers a new brokerbot "
      },
      "syncBrokerbot(address)": {
        "notice": "Syncs a brokerbot "
      }
    },
    "notice": "Holds a registry of all deployed active brokerbots ",
    "version": 1
  },
  "storageLayout": {
    "storage": [
      {
        "astId": 4850,
        "contract": "src/brokerbot/BrokerbotRegistry.sol:BrokerbotRegistry",
        "label": "owner",
        "offset": 0,
        "slot": "0",
        "type": "t_address"
      },
      {
        "astId": 2144,
        "contract": "src/brokerbot/BrokerbotRegistry.sol:BrokerbotRegistry",
        "label": "_brokerbotSet",
        "offset": 0,
        "slot": "1",
        "type": "t_struct(AddressSet)325_storage"
      },
      {
        "astId": 2147,
        "contract": "src/brokerbot/BrokerbotRegistry.sol:BrokerbotRegistry",
        "label": "_activeBrokerbotSet",
        "offset": 0,
        "slot": "3",
        "type": "t_struct(AddressSet)325_storage"
      },
      {
        "astId": 2157,
        "contract": "src/brokerbot/BrokerbotRegistry.sol:BrokerbotRegistry",
        "label": "getBrokerbot",
        "offset": 0,
        "slot": "5",
        "type": "t_mapping(t_contract(IERC20)705,t_mapping(t_contract(IERC20)705,t_contract(IBrokerbot)3111))"
      }
    ],
    "types": {
      "t_address": {
        "encoding": "inplace",
        "label": "address",
        "numberOfBytes": "20"
      },
      "t_array(t_bytes32)dyn_storage": {
        "base": "t_bytes32",
        "encoding": "dynamic_array",
        "label": "bytes32[]",
        "numberOfBytes": "32"
      },
      "t_bytes32": {
        "encoding": "inplace",
        "label": "bytes32",
        "numberOfBytes": "32"
      },
      "t_contract(IBrokerbot)3111": {
        "encoding": "inplace",
        "label": "contract IBrokerbot",
        "numberOfBytes": "20"
      },
      "t_contract(IERC20)705": {
        "encoding": "inplace",
        "label": "contract IERC20",
        "numberOfBytes": "20"
      },
      "t_mapping(t_bytes32,t_uint256)": {
        "encoding": "mapping",
        "key": "t_bytes32",
        "label": "mapping(bytes32 => uint256)",
        "numberOfBytes": "32",
        "value": "t_uint256"
      },
      "t_mapping(t_contract(IERC20)705,t_contract(IBrokerbot)3111)": {
        "encoding": "mapping",
        "key": "t_contract(IERC20)705",
        "label": "mapping(contract IERC20 => contract IBrokerbot)",
        "numberOfBytes": "32",
        "value": "t_contract(IBrokerbot)3111"
      },
      "t_mapping(t_contract(IERC20)705,t_mapping(t_contract(IERC20)705,t_contract(IBrokerbot)3111))": {
        "encoding": "mapping",
        "key": "t_contract(IERC20)705",
        "label": "mapping(contract IERC20 => mapping(contract IERC20 => contract IBrokerbot))",
        "numberOfBytes": "32",
        "value": "t_mapping(t_contract(IERC20)705,t_contract(IBrokerbot)3111)"
      },
      "t_struct(AddressSet)325_storage": {
        "encoding": "inplace",
        "label": "struct EnumerableSet.AddressSet",
        "members": [
          {
            "astId": 324,
            "contract": "src/brokerbot/BrokerbotRegistry.sol:BrokerbotRegistry",
            "label": "_inner",
            "offset": 0,
            "slot": "0",
            "type": "t_struct(Set)10_storage"
          }
        ],
        "numberOfBytes": "64"
      },
      "t_struct(Set)10_storage": {
        "encoding": "inplace",
        "label": "struct EnumerableSet.Set",
        "members": [
          {
            "astId": 5,
            "contract": "src/brokerbot/BrokerbotRegistry.sol:BrokerbotRegistry",
            "label": "_values",
            "offset": 0,
            "slot": "0",
            "type": "t_array(t_bytes32)dyn_storage"
          },
          {
            "astId": 9,
            "contract": "src/brokerbot/BrokerbotRegistry.sol:BrokerbotRegistry",
            "label": "_positions",
            "offset": 0,
            "slot": "1",
            "type": "t_mapping(t_bytes32,t_uint256)"
          }
        ],
        "numberOfBytes": "64"
      },
      "t_uint256": {
        "encoding": "inplace",
        "label": "uint256",
        "numberOfBytes": "32"
      }
    }
  }
}