{
  "address": "0xec0739be570c77c9b544802e4c06a95be719ee5f",
  "abi": [
    {
      "inputs": [
        {
          "internalType": "address",
          "name": "_owner",
          "type": "address"
        }
      ],
      "stateMutability": "nonpayable",
      "type": "constructor"
    },
    {
      "inputs": [
        {
          "internalType": "address",
          "name": "sender",
          "type": "address"
        }
      ],
      "name": "Ownable_NotOwner",
      "type": "error"
    },
    {
      "anonymous": false,
      "inputs": [
        {
          "indexed": true,
          "internalType": "address",
          "name": "previousOwner",
          "type": "address"
        },
        {
          "indexed": true,
          "internalType": "address",
          "name": "newOwner",
          "type": "address"
        }
      ],
      "name": "OwnershipTransferred",
      "type": "event"
    },
    {
      "anonymous": false,
      "inputs": [
        {
          "indexed": false,
          "internalType": "contract IBrokerbot",
          "name": "brokerbot",
          "type": "address"
        },
        {
          "indexed": true,
          "internalType": "contract IERC20",
          "name": "base",
          "type": "address"
        },
        {
          "indexed": true,
          "internalType": "contract IERC20",
          "name": "token",
          "type": "address"
        }
      ],
      "name": "RegisterBrokerbot",
      "type": "event"
    },
    {
      "anonymous": false,
      "inputs": [
        {
          "indexed": true,
          "internalType": "contract IBrokerbot",
          "name": "brokerbot",
          "type": "address"
        }
      ],
      "name": "SyncBrokerbot",
      "type": "event"
    },
    {
      "inputs": [
        {
          "internalType": "contract IERC20",
          "name": "",
          "type": "address"
        },
        {
          "internalType": "contract IERC20",
          "name": "",
          "type": "address"
        }
      ],
      "name": "getBrokerbot",
      "outputs": [
        {
          "internalType": "contract IBrokerbot",
          "name": "",
          "type": "address"
        }
      ],
      "stateMutability": "view",
      "type": "function"
    },
    {
      "inputs": [],
      "name": "owner",
      "outputs": [
        {
          "internalType": "address",
          "name": "",
          "type": "address"
        }
      ],
      "stateMutability": "view",
      "type": "function"
    },
    {
      "inputs": [
        {
          "internalType": "contract IBrokerbot",
          "name": "_brokerbot",
          "type": "address"
        },
        {
          "internalType": "contract IERC20",
          "name": "_base",
          "type": "address"
        },
        {
          "internalType": "contract IERC20",
          "name": "_token",
          "type": "address"
        }
      ],
      "name": "registerBrokerbot",
      "outputs": [],
      "stateMutability": "nonpayable",
      "type": "function"
    },
    {
      "inputs": [
        {
          "internalType": "contract IBrokerbot",
          "name": "_brokerbot",
          "type": "address"
        }
      ],
      "name": "syncBrokerbot",
      "outputs": [],
      "stateMutability": "nonpayable",
      "type": "function"
    },
    {
      "inputs": [
        {
          "internalType": "address",
          "name": "newOwner",
          "type": "address"
        }
      ],
      "name": "transferOwnership",
      "outputs": [],
      "stateMutability": "nonpayable",
      "type": "function"
    }
  ],
  "transactionHash": "0x2dd2430d93e7969bde35244484d7d7695b6157690c9a10c112b733417e11dac1",
  "args": [
    "0x447ffD9a116efb3D77f47802cc4869C3730f723C"
  ],
  "numDeployments": 1,
  "solcInputHash": "52da0c8ebd6b37bb8f91e29cfaaf8064",
  "bytecode": "0x608060405234801561001057600080fd5b506040516103f53803806103f583398101604081905261002f9161007e565b600080546001600160a01b0319166001600160a01b03831690811782556040518392907f8be0079c531659141344cd1fd0a4f28419497f9722a3daafe3b4186f6b6457e0908290a350506100ae565b60006020828403121561009057600080fd5b81516001600160a01b03811681146100a757600080fd5b9392505050565b610338806100bd6000396000f3fe608060405234801561001057600080fd5b50600436106100575760003560e01c806309f793711461005c57806376abbf0a146100715780638da5cb5b146100c15780639abad75e146100d4578063f2fde38b146100e7575b600080fd5b61006f61006a36600461025a565b6100fa565b005b6100a561007f3660046102a5565b60016020908152600092835260408084209091529082529020546001600160a01b031681565b6040516001600160a01b03909116815260200160405180910390f35b6000546100a5906001600160a01b031681565b61006f6100e23660046102de565b610175565b61006f6100f53660046102de565b6101ac565b61010261020f565b6001600160a01b0382811660008181526001602090815260408083208686168085529083529281902080546001600160a01b03191695891695861790555193845290927f3cc22fa2b08c920913fb7245fcc72114373ad796b1be5d44ee1ff6ad60b3a65a910160405180910390a3505050565b6040516001600160a01b038216907f8709efa7ee1ccd26c55d0d4770969d05389572dec0bc4e3b34acfdf89f1b64f990600090a250565b6101b461020f565b600080546040516001600160a01b03808516939216917f8be0079c531659141344cd1fd0a4f28419497f9722a3daafe3b4186f6b6457e091a3600080546001600160a01b0319166001600160a01b0392909216919091179055565b6000546001600160a01b03163314610240576040516396a19be960e01b815233600482015260240160405180910390fd5b565b6001600160a01b038116811461025757600080fd5b50565b60008060006060848603121561026f57600080fd5b833561027a81610242565b9250602084013561028a81610242565b9150604084013561029a81610242565b809150509250925092565b600080604083850312156102b857600080fd5b82356102c381610242565b915060208301356102d381610242565b809150509250929050565b6000602082840312156102f057600080fd5b81356102fb81610242565b939250505056fea26469706673582212205b7e29f3d56ce9e9696aa8901cae24cdf99842d4135753964ace66f4ebdbdef564736f6c63430008150033",
  "devdoc": {
    "events": {
      "RegisterBrokerbot(address,address,address)": {
        "params": {
          "base": "The address of the base currency",
          "brokerbot": "The address of the brokerbot",
          "token": "The address of the share token"
        }
      },
      "SyncBrokerbot(address)": {
        "params": {
          "brokerbot": "The brokerbot address that is synced"
        }
      }
    },
    "kind": "dev",
    "methods": {
      "registerBrokerbot(address,address,address)": {
        "params": {
          "_base": "The contract of the base currency of the brokerbot.",
          "_brokerbot": "The brokerbot contract that should be registered.",
          "_token": "The contract of the share token of the brokerbot."
        }
      },
      "syncBrokerbot(address)": {
        "params": {
          "_brokerbot": "The brokerbot that should be synced"
        }
      },
      "transferOwnership(address)": {
        "details": "Transfers ownership of the contract to a new account (`newOwner`). Can only be called by the current owner."
      }
    },
    "stateVariables": {
      "getBrokerbot": {
        "details": "mapping is [base][token] = brokerbotAddress",
        "return": "brokerbot The brokerbot address",
        "returns": {
          "_0": "brokerbot The brokerbot address"
        }
      }
    },
    "title": "Brokerbot Registry",
    "version": 1
  },
  "userdoc": {
    "events": {
      "RegisterBrokerbot(address,address,address)": {
        "notice": "Emitted when brokerbot is registered."
      },
      "SyncBrokerbot(address)": {
        "notice": "Emmitted when calling syncBrokerbot function"
      }
    },
    "kind": "user",
    "methods": {
      "getBrokerbot(address,address)": {
        "notice": "Returns the brokerbot address for a given pair base and share token, or address 0 if it does not exist"
      },
      "registerBrokerbot(address,address,address)": {
        "notice": "Per network only one active brokerbot should exist per base/share pair"
      },
      "syncBrokerbot(address)": {
        "notice": "This event is usful for indexers/subgraphs to update token balances which are not tracked with other events"
      }
    },
    "notice": "Holds a registry from all deployed active brokerbots",
    "version": 1
  },
  "storageLayout": {
    "storage": [
      {
        "astId": 11416,
        "contract": "src/brokerbot/BrokerbotRegistry.sol:BrokerbotRegistry",
        "label": "owner",
        "offset": 0,
        "slot": "0",
        "type": "t_address"
      },
      {
        "astId": 2812,
        "contract": "src/brokerbot/BrokerbotRegistry.sol:BrokerbotRegistry",
        "label": "getBrokerbot",
        "offset": 0,
        "slot": "1",
        "type": "t_mapping(t_contract(IERC20)1376,t_mapping(t_contract(IERC20)1376,t_contract(IBrokerbot)3681))"
      }
    ],
    "types": {
      "t_address": {
        "encoding": "inplace",
        "label": "address",
        "numberOfBytes": "20"
      },
      "t_contract(IBrokerbot)3681": {
        "encoding": "inplace",
        "label": "contract IBrokerbot",
        "numberOfBytes": "20"
      },
      "t_contract(IERC20)1376": {
        "encoding": "inplace",
        "label": "contract IERC20",
        "numberOfBytes": "20"
      },
      "t_mapping(t_contract(IERC20)1376,t_contract(IBrokerbot)3681)": {
        "encoding": "mapping",
        "key": "t_contract(IERC20)1376",
        "label": "mapping(contract IERC20 => contract IBrokerbot)",
        "numberOfBytes": "32",
        "value": "t_contract(IBrokerbot)3681"
      },
      "t_mapping(t_contract(IERC20)1376,t_mapping(t_contract(IERC20)1376,t_contract(IBrokerbot)3681))": {
        "encoding": "mapping",
        "key": "t_contract(IERC20)1376",
        "label": "mapping(contract IERC20 => mapping(contract IERC20 => contract IBrokerbot))",
        "numberOfBytes": "32",
        "value": "t_mapping(t_contract(IERC20)1376,t_contract(IBrokerbot)3681)"
      }
    }
  }
}