{
  "address": "0x3f3dBa58C3c2CCFfC8aBA6170050A86af4916F60",
  "abi": [
    {
      "inputs": [
        {
          "internalType": "address",
          "name": "_trustedForwarder",
          "type": "address"
        },
        {
          "internalType": "contract IQuoter",
          "name": "_quoter",
          "type": "address"
        },
        {
          "internalType": "contract ISwapRouter",
          "name": "swapRouter",
          "type": "address"
        }
      ],
      "stateMutability": "nonpayable",
      "type": "constructor"
    },
    {
      "inputs": [
        {
          "internalType": "address",
          "name": "target",
          "type": "address"
        }
      ],
      "name": "Address_NotTransferNorContract",
      "type": "error"
    },
    {
      "inputs": [
        {
          "internalType": "address",
          "name": "sender",
          "type": "address"
        }
      ],
      "name": "PaymentHub_InvalidSender",
      "type": "error"
    },
    {
      "inputs": [
        {
          "internalType": "uint256",
          "name": "amountBase",
          "type": "uint256"
        },
        {
          "internalType": "uint256",
          "name": "swappedAmount",
          "type": "uint256"
        }
      ],
      "name": "PaymentHub_SwapError",
      "type": "error"
    },
    {
      "inputs": [],
      "name": "PaymentHub_TransferFailed",
      "type": "error"
    },
    {
      "inputs": [
        {
          "internalType": "address",
          "name": "token",
          "type": "address"
        }
      ],
      "name": "SafeERC20FailedOperation",
      "type": "error"
    },
    {
      "anonymous": false,
      "inputs": [
        {
          "indexed": true,
          "internalType": "address",
          "name": "_oldForwarder",
          "type": "address"
        },
        {
          "indexed": true,
          "internalType": "address",
          "name": "_newForwarder",
          "type": "address"
        }
      ],
      "name": "ForwarderChanged",
      "type": "event"
    },
    {
      "inputs": [],
      "name": "VERSION",
      "outputs": [
        {
          "internalType": "uint8",
          "name": "",
          "type": "uint8"
        }
      ],
      "stateMutability": "view",
      "type": "function"
    },
    {
      "inputs": [
        {
          "internalType": "address",
          "name": "erc20In",
          "type": "address"
        }
      ],
      "name": "approveERC20",
      "outputs": [],
      "stateMutability": "nonpayable",
      "type": "function"
    },
    {
      "inputs": [
        {
          "internalType": "address",
          "name": "newForwarder",
          "type": "address"
        }
      ],
      "name": "changeForwarder",
      "outputs": [],
      "stateMutability": "nonpayable",
      "type": "function"
    },
    {
      "inputs": [
        {
          "internalType": "uint256",
          "name": "amount",
          "type": "uint256"
        },
        {
          "internalType": "bytes",
          "name": "path",
          "type": "bytes"
        },
        {
          "internalType": "bool",
          "name": "exactOutput",
          "type": "bool"
        }
      ],
      "name": "getPriceERC20",
      "outputs": [
        {
          "internalType": "uint256",
          "name": "",
          "type": "uint256"
        }
      ],
      "stateMutability": "nonpayable",
      "type": "function"
    },
    {
      "inputs": [
        {
          "internalType": "uint256",
          "name": "amountInBase",
          "type": "uint256"
        },
        {
          "internalType": "bytes",
          "name": "path",
          "type": "bytes"
        }
      ],
      "name": "getPriceInERC20",
      "outputs": [
        {
          "internalType": "uint256",
          "name": "",
          "type": "uint256"
        }
      ],
      "stateMutability": "nonpayable",
      "type": "function"
    },
    {
      "inputs": [
        {
          "internalType": "uint256",
          "name": "amountInBase",
          "type": "uint256"
        },
        {
          "internalType": "contract IBrokerbot",
          "name": "brokerBot",
          "type": "address"
        }
      ],
      "name": "getPriceInEther",
      "outputs": [
        {
          "internalType": "uint256",
          "name": "",
          "type": "uint256"
        }
      ],
      "stateMutability": "nonpayable",
      "type": "function"
    },
    {
      "inputs": [
        {
          "internalType": "contract IBrokerbot",
          "name": "brokerbot",
          "type": "address"
        }
      ],
      "name": "hasSettingKeepEther",
      "outputs": [
        {
          "internalType": "bool",
          "name": "",
          "type": "bool"
        }
      ],
      "stateMutability": "view",
      "type": "function"
    },
    {
      "inputs": [
        {
          "internalType": "contract IERC20",
          "name": "token",
          "type": "address"
        },
        {
          "internalType": "address[]",
          "name": "recipients",
          "type": "address[]"
        },
        {
          "internalType": "uint256[]",
          "name": "amounts",
          "type": "uint256[]"
        }
      ],
      "name": "multiPay",
      "outputs": [],
      "stateMutability": "nonpayable",
      "type": "function"
    },
    {
      "inputs": [
        {
          "internalType": "contract IERC20",
          "name": "token",
          "type": "address"
        },
        {
          "internalType": "contract IBrokerbot[]",
          "name": "brokerbots",
          "type": "address[]"
        },
        {
          "internalType": "uint256[]",
          "name": "amounts",
          "type": "uint256[]"
        },
        {
          "internalType": "bytes",
          "name": "ref",
          "type": "bytes"
        }
      ],
      "name": "multiPayAndNotify",
      "outputs": [],
      "stateMutability": "nonpayable",
      "type": "function"
    },
    {
      "inputs": [
        {
          "internalType": "contract IBrokerbot",
          "name": "brokerbot",
          "type": "address"
        },
        {
          "internalType": "uint256",
          "name": "amountInBase",
          "type": "uint256"
        },
        {
          "internalType": "bytes",
          "name": "ref",
          "type": "bytes"
        }
      ],
      "name": "payAndNotify",
      "outputs": [
        {
          "internalType": "uint256",
          "name": "",
          "type": "uint256"
        }
      ],
      "stateMutability": "nonpayable",
      "type": "function"
    },
    {
      "inputs": [
        {
          "internalType": "contract IERC20",
          "name": "token",
          "type": "address"
        },
        {
          "internalType": "contract IBrokerbot",
          "name": "brokerbot",
          "type": "address"
        },
        {
          "internalType": "uint256",
          "name": "amount",
          "type": "uint256"
        },
        {
          "internalType": "bytes",
          "name": "ref",
          "type": "bytes"
        }
      ],
      "name": "payAndNotify",
      "outputs": [
        {
          "internalType": "uint256",
          "name": "",
          "type": "uint256"
        }
      ],
      "stateMutability": "nonpayable",
      "type": "function"
    },
    {
      "inputs": [
        {
          "internalType": "uint256",
          "name": "amountOut",
          "type": "uint256"
        },
        {
          "internalType": "uint256",
          "name": "amountInMaximum",
          "type": "uint256"
        },
        {
          "internalType": "address",
          "name": "erc20In",
          "type": "address"
        },
        {
          "internalType": "bytes",
          "name": "path",
          "type": "bytes"
        },
        {
          "internalType": "address",
          "name": "recipient",
          "type": "address"
        }
      ],
      "name": "payFromERC20",
      "outputs": [
        {
          "internalType": "uint256",
          "name": "amountIn",
          "type": "uint256"
        }
      ],
      "stateMutability": "nonpayable",
      "type": "function"
    },
    {
      "inputs": [
        {
          "internalType": "contract IBrokerbot",
          "name": "brokerbot",
          "type": "address"
        },
        {
          "internalType": "uint256",
          "name": "amountBase",
          "type": "uint256"
        },
        {
          "internalType": "address",
          "name": "erc20",
          "type": "address"
        },
        {
          "internalType": "uint256",
          "name": "amountInMaximum",
          "type": "uint256"
        },
        {
          "internalType": "bytes",
          "name": "path",
          "type": "bytes"
        },
        {
          "internalType": "bytes",
          "name": "ref",
          "type": "bytes"
        }
      ],
      "name": "payFromERC20AndNotify",
      "outputs": [
        {
          "internalType": "uint256",
          "name": "amountIn",
          "type": "uint256"
        },
        {
          "internalType": "uint256",
          "name": "amountOut",
          "type": "uint256"
        }
      ],
      "stateMutability": "nonpayable",
      "type": "function"
    },
    {
      "inputs": [
        {
          "internalType": "address",
          "name": "recipient",
          "type": "address"
        },
        {
          "internalType": "uint256",
          "name": "amountInBase",
          "type": "uint256"
        },
        {
          "internalType": "contract IERC20",
          "name": "base",
          "type": "address"
        }
      ],
      "name": "payFromEther",
      "outputs": [
        {
          "internalType": "uint256",
          "name": "amountIn",
          "type": "uint256"
        }
      ],
      "stateMutability": "payable",
      "type": "function"
    },
    {
      "inputs": [
        {
          "internalType": "contract IBrokerbot",
          "name": "brokerbot",
          "type": "address"
        },
        {
          "internalType": "uint256",
          "name": "amountInBase",
          "type": "uint256"
        },
        {
          "internalType": "bytes",
          "name": "ref",
          "type": "bytes"
        }
      ],
      "name": "payFromEtherAndNotify",
      "outputs": [
        {
          "internalType": "uint256",
          "name": "priceInEther",
          "type": "uint256"
        },
        {
          "internalType": "uint256",
          "name": "sharesOut",
          "type": "uint256"
        }
      ],
      "stateMutability": "payable",
      "type": "function"
    },
    {
      "inputs": [
        {
          "internalType": "contract IERC20",
          "name": "ercAddress",
          "type": "address"
        },
        {
          "internalType": "address",
          "name": "to",
          "type": "address"
        },
        {
          "internalType": "uint256",
          "name": "amount",
          "type": "uint256"
        }
      ],
      "name": "recover",
      "outputs": [],
      "stateMutability": "nonpayable",
      "type": "function"
    },
    {
      "inputs": [
        {
          "internalType": "contract IBrokerbot",
          "name": "brokerbot",
          "type": "address"
        },
        {
          "internalType": "contract IERC20",
          "name": "shares",
          "type": "address"
        },
        {
          "internalType": "uint256",
          "name": "amountToSell",
          "type": "uint256"
        },
        {
          "internalType": "bytes",
          "name": "ref",
          "type": "bytes"
        },
        {
          "components": [
            {
              "internalType": "bytes",
              "name": "path",
              "type": "bytes"
            },
            {
              "internalType": "address",
              "name": "recipient",
              "type": "address"
            },
            {
              "internalType": "uint256",
              "name": "deadline",
              "type": "uint256"
            },
            {
              "internalType": "uint256",
              "name": "amountIn",
              "type": "uint256"
            },
            {
              "internalType": "uint256",
              "name": "amountOutMinimum",
              "type": "uint256"
            }
          ],
          "internalType": "struct ISwapRouter.ExactInputParams",
          "name": "params",
          "type": "tuple"
        },
        {
          "internalType": "bool",
          "name": "unwrapWeth",
          "type": "bool"
        }
      ],
      "name": "sellSharesAndSwap",
      "outputs": [
        {
          "internalType": "uint256",
          "name": "",
          "type": "uint256"
        }
      ],
      "stateMutability": "nonpayable",
      "type": "function"
    },
    {
      "inputs": [
        {
          "internalType": "contract IBrokerbot",
          "name": "brokerbot",
          "type": "address"
        },
        {
          "internalType": "contract IERC20Permit",
          "name": "shares",
          "type": "address"
        },
        {
          "internalType": "address",
          "name": "seller",
          "type": "address"
        },
        {
          "internalType": "address",
          "name": "recipient",
          "type": "address"
        },
        {
          "internalType": "uint256",
          "name": "amountToSell",
          "type": "uint256"
        },
        {
          "internalType": "bytes",
          "name": "ref",
          "type": "bytes"
        },
        {
          "components": [
            {
              "internalType": "uint256",
              "name": "exFee",
              "type": "uint256"
            },
            {
              "internalType": "uint256",
              "name": "deadline",
              "type": "uint256"
            },
            {
              "internalType": "uint8",
              "name": "v",
              "type": "uint8"
            },
            {
              "internalType": "bytes32",
              "name": "r",
              "type": "bytes32"
            },
            {
              "internalType": "bytes32",
              "name": "s",
              "type": "bytes32"
            }
          ],
          "internalType": "struct PaymentHub.PermitInfo",
          "name": "permitInfo",
          "type": "tuple"
        }
      ],
      "name": "sellSharesWithPermit",
      "outputs": [
        {
          "internalType": "uint256",
          "name": "",
          "type": "uint256"
        }
      ],
      "stateMutability": "nonpayable",
      "type": "function"
    },
    {
      "inputs": [
        {
          "internalType": "contract IBrokerbot",
          "name": "brokerbot",
          "type": "address"
        },
        {
          "internalType": "contract IERC20Permit",
          "name": "shares",
          "type": "address"
        },
        {
          "internalType": "address",
          "name": "seller",
          "type": "address"
        },
        {
          "internalType": "uint256",
          "name": "amountToSell",
          "type": "uint256"
        },
        {
          "internalType": "bytes",
          "name": "ref",
          "type": "bytes"
        },
        {
          "components": [
            {
              "internalType": "uint256",
              "name": "exFee",
              "type": "uint256"
            },
            {
              "internalType": "uint256",
              "name": "deadline",
              "type": "uint256"
            },
            {
              "internalType": "uint8",
              "name": "v",
              "type": "uint8"
            },
            {
              "internalType": "bytes32",
              "name": "r",
              "type": "bytes32"
            },
            {
              "internalType": "bytes32",
              "name": "s",
              "type": "bytes32"
            }
          ],
          "internalType": "struct PaymentHub.PermitInfo",
          "name": "permitInfo",
          "type": "tuple"
        },
        {
          "components": [
            {
              "internalType": "bytes",
              "name": "path",
              "type": "bytes"
            },
            {
              "internalType": "address",
              "name": "recipient",
              "type": "address"
            },
            {
              "internalType": "uint256",
              "name": "deadline",
              "type": "uint256"
            },
            {
              "internalType": "uint256",
              "name": "amountIn",
              "type": "uint256"
            },
            {
              "internalType": "uint256",
              "name": "amountOutMinimum",
              "type": "uint256"
            }
          ],
          "internalType": "struct ISwapRouter.ExactInputParams",
          "name": "params",
          "type": "tuple"
        },
        {
          "internalType": "bool",
          "name": "unwrapWeth",
          "type": "bool"
        }
      ],
      "name": "sellSharesWithPermitAndSwap",
      "outputs": [
        {
          "internalType": "uint256",
          "name": "",
          "type": "uint256"
        }
      ],
      "stateMutability": "nonpayable",
      "type": "function"
    },
    {
      "inputs": [
        {
          "internalType": "address",
          "name": "to",
          "type": "address"
        }
      ],
      "name": "transferEther",
      "outputs": [],
      "stateMutability": "payable",
      "type": "function"
    },
    {
      "inputs": [],
      "name": "trustedForwarder",
      "outputs": [
        {
          "internalType": "address",
          "name": "",
          "type": "address"
        }
      ],
      "stateMutability": "view",
      "type": "function"
    },
    {
      "inputs": [
        {
          "internalType": "address",
          "name": "to",
          "type": "address"
        },
        {
          "internalType": "uint256",
          "name": "amount",
          "type": "uint256"
        }
      ],
      "name": "withdrawEther",
      "outputs": [],
      "stateMutability": "nonpayable",
      "type": "function"
    },
    {
      "stateMutability": "payable",
      "type": "receive"
    }
  ],
  "transactionHash": "0x1bc83c81cffb8fc29fe77ecebe1311047d5dd6b3359c52e17c0c30a0f75ef518",
  "args": [
    "0x59f0941e75f2F77cA4577E48c3c5333a3F8D277b",
    "0xb27308f9F90D607463bb33eA1BeBb41C27CE5AB6",
    "0xE592427A0AEce92De3Edee1F18E0157C05861564"
  ],
  "numDeployments": 1,
  "solcInputHash": "52da0c8ebd6b37bb8f91e29cfaaf8064",
  "bytecode": "0x60c06040523480156200001157600080fd5b50604051620025fc380380620025fc833981016040819052620000349162000079565b600080546001600160a01b0319166001600160a01b039485161790559082166080521660a052620000cd565b6001600160a01b03811681146200007657600080fd5b50565b6000806000606084860312156200008f57600080fd5b83516200009c8162000060565b6020850151909350620000af8162000060565b6040850151909250620000c28162000060565b809150509250925092565b60805160a0516124d16200012b6000396000818161055f01528181610e770152818161126b0152611832015260008181610d4001528181611057015281816110ef0152818161136f0152818161139e015261165201526124d16000f3fe6080604052600436106101395760003560e01c80636b55e991116100ab578063c1d8e08a1161006f578063c1d8e08a14610360578063d3b3ca7714610390578063d4927148146103b0578063d64d4ba5146103d0578063e25b37c6146103f0578063ffa1ad741461041057600080fd5b80636b55e991146102c25780636fb0c7dc146102d5578063753f9447146102e85780637da0a8771461030857806388e3b76a1461034057600080fd5b80631da5f315116100fd5780631da5f315146102025780631ec82cb814610222578063415a218714610242578063522f681514610262578063568f3254146102825780635daf206a146102a257600080fd5b8063040c037a14610145578063078aa9641461017257806311e8701c146101a057806317f565d2146101c25780631c9af2e3146101e257600080fd5b3661014057005b600080fd5b610158610153366004611a46565b610437565b604080519283526020830191909152015b60405180910390f35b34801561017e57600080fd5b5061019261018d366004611b43565b610531565b604051908152602001610169565b3480156101ac57600080fd5b506101c06101bb366004611b89565b610548565b005b3480156101ce57600080fd5b506101926101dd366004611a46565b6105e0565b3480156101ee57600080fd5b506101c06101fd366004611bea565b610659565b34801561020e57600080fd5b5061019261021d366004611c84565b6106dc565b34801561022e57600080fd5b506101c061023d366004611d2d565b6108c3565b34801561024e57600080fd5b506101c061025d366004611b89565b610909565b34801561026e57600080fd5b506101c061027d366004611d6e565b610981565b34801561028e57600080fd5b506101c061029d366004611d9a565b610a22565b3480156102ae57600080fd5b506101586102bd366004611e46565b610a95565b6101c06102d0366004611b89565b610cbb565b6101926102e3366004611ec8565b610d2f565b3480156102f457600080fd5b50610192610303366004611faf565b610fc3565b34801561031457600080fd5b50600054610328906001600160a01b031681565b6040516001600160a01b039091168152602001610169565b34801561034c57600080fd5b5061019261035b366004612084565b611038565b34801561036c57600080fd5b5061038061037b366004611b89565b61112d565b6040519015158152602001610169565b34801561039c57600080fd5b506101926103ab3660046120d3565b6111a3565b3480156103bc57600080fd5b506101926103cb366004612134565b61123b565b3480156103dc57600080fd5b506101926103eb3660046121e0565b611267565b3480156103fc57600080fd5b5061019261040b366004612257565b61136b565b34801561041c57600080fd5b50610425600881565b60405160ff9091168152602001610169565b6000806000866001600160a01b0316635001f3b56040518163ffffffff1660e01b8152600401602060405180830381865afa15801561047a573d6000803e3d6000fd5b505050506040513d601f19601f8201168201806040525081019061049e9190612287565b90506104ab878783610d2f565b60405163349b2e2960e11b81529093506001600160a01b038816906369365c52906104e290849033908b908b908b906004016122a4565b6020604051808303816000875af1158015610501573d6000803e3d6000fd5b505050506040513d601f19601f8201168201806040525081019061052591906122f8565b91505094509492505050565b600061053f83836001611038565b90505b92915050565b60405163095ea7b360e01b81526001600160a01b037f000000000000000000000000000000000000000000000000000000000000000081166004830152600019602483015282169063095ea7b3906044016020604051808303816000875af11580156105b8573d6000803e3d6000fd5b505050506040513d601f19601f820116820180604052508101906105dc9190612311565b5050565b6000610650856001600160a01b0316635001f3b56040518163ffffffff1660e01b8152600401602060405180830381865afa158015610623573d6000803e3d6000fd5b505050506040513d601f19601f820116820180604052508101906106479190612287565b868686866111a3565b95945050505050565b60005b838110156106d4576106c23386868481811061067a5761067a61232e565b905060200201602081019061068f9190611b89565b8585858181106106a1576106a161232e565b90506020020135896001600160a01b0316611507909392919063ffffffff16565b806106cc8161235a565b91505061065c565b505050505050565b6000805487906001600160a01b031633148015906107035750336001600160a01b03821614155b15610728576040516340b3b69360e11b81523360048201526024015b60405180910390fd5b6001600160a01b03891663d505accf893089602088013561074f60608a0160408b01612373565b6040516001600160e01b031960e088901b1681526001600160a01b0395861660048201529490931660248501526044840191909152606483015260ff166084820152606086013560a4820152608086013560c482015260e401600060405180830381600087803b1580156107c257600080fd5b505af11580156107d6573d6000803e3d6000fd5b50505083351590506108a45760006107f38b8b8b308b8b8b611574565b905060008b6001600160a01b0316635001f3b56040518163ffffffff1660e01b8152600401602060405180830381865afa158015610835573d6000803e3d6000fd5b505050506040513d601f19601f820116820180604052508101906108599190612287565b90506108706001600160a01b038216338735611602565b6108908961087f873585612396565b6001600160a01b0384169190611602565b61089b853583612396565b935050506108b6565b6108b38a8a8a8a8a8a8a611574565b91505b5098975050505050505050565b6000546001600160a01b031633146108f0576040516340b3b69360e11b815233600482015260240161071f565b6109046001600160a01b0384168383611602565b505050565b6000546001600160a01b03163314610936576040516340b3b69360e11b815233600482015260240161071f565b600080546001600160a01b0319166001600160a01b0383169081178255604051909133917f6b1afd5bf12dcac0f44e8afd235c6681297d3124624a7a7a0d34abd84b7986259190a350565b6000546001600160a01b031633146109ae576040516340b3b69360e11b815233600482015260240161071f565b6000826001600160a01b03168260405160006040518083038185875af1925050503d80600081146109fb576040519150601f19603f3d011682016040523d82523d6000602084013e610a00565b606091505b50509050806109045760405163f82a0ab760e01b815260040160405180910390fd5b60005b85811015610a8b57610a7888888884818110610a4357610a4361232e565b9050602002016020810190610a589190611b89565b878785818110610a6a57610a6a61232e565b9050602002013586866111a3565b5080610a838161235a565b915050610a25565b5050505050505050565b6000806000896001600160a01b0316635001f3b56040518163ffffffff1660e01b8152600401602060405180830381865afa158015610ad8573d6000803e3d6000fd5b505050506040513d601f19601f82011682018060405250810190610afc9190612287565b6040516370a0823160e01b81526001600160a01b038c811660048301529192506000918316906370a0823190602401602060405180830381865afa158015610b48573d6000803e3d6000fd5b505050506040513d601f19601f82011682018060405250810190610b6c91906122f8565b9050610b7b8a898b8a8f611267565b6040516370a0823160e01b81526001600160a01b038d811660048301529195506000918416906370a0823190602401602060405180830381865afa158015610bc7573d6000803e3d6000fd5b505050506040513d601f19601f82011682018060405250810190610beb91906122f8565b9050610bf78282612396565b8b14610c2a578a610c088383612396565b604051630a720dfb60e01b81526004810192909252602482015260440161071f565b6001600160a01b038c166369365c528433610c458686612396565b8b8b6040518663ffffffff1660e01b8152600401610c679594939291906122a4565b6020604051808303816000875af1158015610c86573d6000803e3d6000fd5b505050506040513d601f19601f82011682018060405250810190610caa91906122f8565b935050505097509795505050505050565b6000816001600160a01b03163460405160006040518083038185875af1925050503d8060008114610d08576040519150601f19603f3d011682016040523d82523d6000602084013e610d0d565b606091505b50509050806105dc5760405163f82a0ab760e01b815260040160405180910390fd5b6000806040518061010001604052807f00000000000000000000000000000000000000000000000000000000000000006001600160a01b0316634aa4a4fc6040518163ffffffff1660e01b8152600401602060405180830381865afa158015610d9c573d6000803e3d6000fd5b505050506040513d601f19601f82011682018060405250810190610dc09190612287565b6001600160a01b039081168252858116602080840191909152610bb86040808501919091528983166060808601919091524260808087019190915260a08087018c90523460c0808901829052600060e0998a01528551631b67c43360e31b81528a5189166004820152968a0151881660248801529489015162ffffff166044870152928801518616606486015290870151608485015286015160a48401529085015160c483015292840151821660e48201529293507f0000000000000000000000000000000000000000000000000000000000000000929083169163db3e2198916101040160206040518083038185885af1158015610ec3573d6000803e3d6000fd5b50505050506040513d601f19601f82011682018060405250810190610ee891906122f8565b925034831015610fba57806001600160a01b03166312210e8a6040518163ffffffff1660e01b8152600401600060405180830381600087803b158015610f2d57600080fd5b505af1158015610f41573d6000803e3d6000fd5b5060009250339150610f5590508534612396565b604051600081818185875af1925050503d8060008114610f91576040519150601f19603f3d011682016040523d82523d6000602084013e610f96565b606091505b5050905080610fb85760405163f82a0ab760e01b815260040160405180910390fd5b505b50509392505050565b6000805488906001600160a01b03163314801590610fea5750336001600160a01b03821614155b1561100a576040516340b3b69360e11b815233600482015260240161071f565b61101a8b8b8b308c8c8c8c6106dc565b60608501526110298484611633565b9b9a5050505050505050505050565b600081156110d857604051632f80bb1d60e01b81526001600160a01b037f00000000000000000000000000000000000000000000000000000000000000001690632f80bb1d9061108e90869088906004016123f9565b6020604051808303816000875af11580156110ad573d6000803e3d6000fd5b505050506040513d601f19601f820116820180604052508101906110d191906122f8565b9050611126565b60405163cdca175360e01b81526001600160a01b037f0000000000000000000000000000000000000000000000000000000000000000169063cdca17539061108e90869088906004016123f9565b9392505050565b6000600460ff16600460ff16836001600160a01b031663e06174e46040518163ffffffff1660e01b8152600401602060405180830381865afa158015611177573d6000803e3d6000fd5b505050506040513d601f19601f8201168201806040525081019061119b91906122f8565b161492915050565b60006111ba6001600160a01b038716338787611507565b60405163349b2e2960e11b81526001600160a01b038616906369365c52906111ee90899033908990899089906004016122a4565b6020604051808303816000875af115801561120d573d6000803e3d6000fd5b505050506040513d601f19601f8201168201806040525081019061123191906122f8565b9695505050505050565b600061124c888833308a8a8a611574565b606084015261125b8383611633565b98975050505050505050565b60007f000000000000000000000000000000000000000000000000000000000000000061129f6001600160a01b038616333089611507565b6040805160a0810182528581526001600160a01b0380861660208301524282840152606082018a9052608082018990529151631e51809360e31b8152909183169063f28c0498906112f490849060040161246c565b6020604051808303816000875af1158015611313573d6000803e3d6000fd5b505050506040513d601f19601f8201168201806040525081019061133791906122f8565b925086831015611360576113603361134f858a612396565b6001600160a01b0389169190611602565b505095945050505050565b60007f00000000000000000000000000000000000000000000000000000000000000006001600160a01b03166330d07f217f00000000000000000000000000000000000000000000000000000000000000006001600160a01b0316634aa4a4fc6040518163ffffffff1660e01b8152600401602060405180830381865afa1580156113fa573d6000803e3d6000fd5b505050506040513d601f19601f8201168201806040525081019061141e9190612287565b846001600160a01b0316635001f3b56040518163ffffffff1660e01b8152600401602060405180830381865afa15801561145c573d6000803e3d6000fd5b505050506040513d601f19601f820116820180604052508101906114809190612287565b6040516001600160e01b031960e085901b1681526001600160a01b03928316600482015291166024820152610bb86044820152606481018690526000608482015260a4016020604051808303816000875af11580156114e3573d6000803e3d6000fd5b505050506040513d601f19601f8201168201806040525081019061053f91906122f8565b6040516001600160a01b03848116602483015283811660448301526064820183905261156e9186918216906323b872dd906084015b604051602081830303815290604052915060e01b6020820180516001600160e01b0383818316178352505050506117b5565b50505050565b600061158b6001600160a01b038816878a87611507565b60405163349b2e2960e11b81526001600160a01b038916906369365c52906115bf908a9089908990899089906004016122a4565b6020604051808303816000875af11580156115de573d6000803e3d6000fd5b505050506040513d601f19601f8201168201806040525081019061125b91906122f8565b6040516001600160a01b0383811660248301526044820183905261090491859182169063a9059cbb9060640161153c565b600081156117ac576020830180513090915261164e84611818565b91507f00000000000000000000000000000000000000000000000000000000000000006001600160a01b0316634aa4a4fc6040518163ffffffff1660e01b8152600401602060405180830381865afa1580156116ae573d6000803e3d6000fd5b505050506040513d601f19601f820116820180604052508101906116d29190612287565b6001600160a01b0316632e1a7d4d836040518263ffffffff1660e01b81526004016116ff91815260200190565b600060405180830381600087803b15801561171957600080fd5b505af115801561172d573d6000803e3d6000fd5b505050506000816001600160a01b03168360405160006040518083038185875af1925050503d806000811461177e576040519150601f19603f3d011682016040523d82523d6000602084013e611783565b606091505b50509050806117a55760405163f82a0ab760e01b815260040160405180910390fd5b5050610542565b61053f83611818565b60006117ca6001600160a01b038416836118e6565b905080516000141580156117ef5750808060200190518101906117ed9190612311565b155b1561090457604051635274afe760e01b81526001600160a01b038416600482015260240161071f565b60405163c04b8d5960e01b81526000906001600160a01b037f0000000000000000000000000000000000000000000000000000000000000000169063c04b8d599061186790859060040161246c565b6020604051808303816000875af1158015611886573d6000803e3d6000fd5b505050506040513d601f19601f820116820180604052508101906118aa91906122f8565b905081608001518110156118e1576080820151604051630a720dfb60e01b815260048101919091526024810182905260440161071f565b919050565b606061053f838360006060825160001415801561190b57506001600160a01b0384163b155b1561193457604051639eb1341360e01b81526001600160a01b038516600482015260240161071f565b600080856001600160a01b03168486604051611950919061247f565b60006040518083038185875af1925050503d806000811461198d576040519150601f19603f3d011682016040523d82523d6000602084013e611992565b606091505b509150915081156119a65791506111269050565b8051156119b557805160208201fd5b60405162461bcd60e51b815260206004820152600660248201526519985a5b195960d21b604482015260640161071f565b6001600160a01b03811681146119fb57600080fd5b50565b60008083601f840112611a1057600080fd5b5081356001600160401b03811115611a2757600080fd5b602083019150836020828501011115611a3f57600080fd5b9250929050565b60008060008060608587031215611a5c57600080fd5b8435611a67816119e6565b93506020850135925060408501356001600160401b03811115611a8957600080fd5b611a95878288016119fe565b95989497509550505050565b634e487b7160e01b600052604160045260246000fd5b600082601f830112611ac857600080fd5b81356001600160401b0380821115611ae257611ae2611aa1565b604051601f8301601f19908116603f01168101908282118183101715611b0a57611b0a611aa1565b81604052838152866020858801011115611b2357600080fd5b836020870160208301376000602085830101528094505050505092915050565b60008060408385031215611b5657600080fd5b8235915060208301356001600160401b03811115611b7357600080fd5b611b7f85828601611ab7565b9150509250929050565b600060208284031215611b9b57600080fd5b8135611126816119e6565b60008083601f840112611bb857600080fd5b5081356001600160401b03811115611bcf57600080fd5b6020830191508360208260051b8501011115611a3f57600080fd5b600080600080600060608688031215611c0257600080fd5b8535611c0d816119e6565b945060208601356001600160401b0380821115611c2957600080fd5b611c3589838a01611ba6565b90965094506040880135915080821115611c4e57600080fd5b50611c5b88828901611ba6565b969995985093965092949392505050565b600060a08284031215611c7e57600080fd5b50919050565b600080600080600080600080610160898b031215611ca157600080fd5b8835611cac816119e6565b97506020890135611cbc816119e6565b96506040890135611ccc816119e6565b95506060890135611cdc816119e6565b94506080890135935060a08901356001600160401b03811115611cfe57600080fd5b611d0a8b828c016119fe565b9094509250611d1e90508a60c08b01611c6c565b90509295985092959890939650565b600080600060608486031215611d4257600080fd5b8335611d4d816119e6565b92506020840135611d5d816119e6565b929592945050506040919091013590565b60008060408385031215611d8157600080fd5b8235611d8c816119e6565b946020939093013593505050565b60008060008060008060006080888a031215611db557600080fd5b8735611dc0816119e6565b965060208801356001600160401b0380821115611ddc57600080fd5b611de88b838c01611ba6565b909850965060408a0135915080821115611e0157600080fd5b611e0d8b838c01611ba6565b909650945060608a0135915080821115611e2657600080fd5b50611e338a828b016119fe565b989b979a50959850939692959293505050565b600080600080600080600060c0888a031215611e6157600080fd5b8735611e6c816119e6565b9650602088013595506040880135611e83816119e6565b94506060880135935060808801356001600160401b0380821115611ea657600080fd5b611eb28b838c01611ab7565b945060a08a0135915080821115611e2657600080fd5b600080600060608486031215611edd57600080fd5b8335611ee8816119e6565b9250602084013591506040840135611eff816119e6565b809150509250925092565b600060a08284031215611f1c57600080fd5b60405160a081016001600160401b038282108183111715611f3f57611f3f611aa1565b816040528293508435915080821115611f5757600080fd5b50611f6485828601611ab7565b8252506020830135611f75816119e6565b806020830152506040830135604082015260608301356060820152608083013560808201525092915050565b80151581146119fb57600080fd5b60008060008060008060008060006101808a8c031215611fce57600080fd5b8935611fd9816119e6565b985060208a0135611fe9816119e6565b975060408a0135611ff9816119e6565b965060608a0135955060808a01356001600160401b038082111561201c57600080fd5b6120288d838e016119fe565b909750955085915061203d8d60a08e01611c6c565b94506101408c013591508082111561205457600080fd5b506120618c828d01611f0a565b9250506101608a013561207381611fa1565b809150509295985092959850929598565b60008060006060848603121561209957600080fd5b8335925060208401356001600160401b038111156120b657600080fd5b6120c286828701611ab7565b9250506040840135611eff81611fa1565b6000806000806000608086880312156120eb57600080fd5b85356120f6816119e6565b94506020860135612106816119e6565b93506040860135925060608601356001600160401b0381111561212857600080fd5b611c5b888289016119fe565b600080600080600080600060c0888a03121561214f57600080fd5b873561215a816119e6565b9650602088013561216a816119e6565b95506040880135945060608801356001600160401b038082111561218d57600080fd5b6121998b838c016119fe565b909650945060808a01359150808211156121b257600080fd5b506121bf8a828b01611f0a565b92505060a08801356121d081611fa1565b8091505092959891949750929550565b600080600080600060a086880312156121f857600080fd5b85359450602086013593506040860135612211816119e6565b925060608601356001600160401b0381111561222c57600080fd5b61223888828901611ab7565b9250506080860135612249816119e6565b809150509295509295909350565b6000806040838503121561226a57600080fd5b82359150602083013561227c816119e6565b809150509250929050565b60006020828403121561229957600080fd5b8151611126816119e6565b6001600160a01b038681168252851660208201526040810184905260806060820181905281018290526000828460a0840137600060a0848401015260a0601f19601f85011683010190509695505050505050565b60006020828403121561230a57600080fd5b5051919050565b60006020828403121561232357600080fd5b815161112681611fa1565b634e487b7160e01b600052603260045260246000fd5b634e487b7160e01b600052601160045260246000fd5b60006001820161236c5761236c612344565b5060010190565b60006020828403121561238557600080fd5b813560ff8116811461112657600080fd5b8181038181111561054257610542612344565b60005b838110156123c45781810151838201526020016123ac565b50506000910152565b600081518084526123e58160208601602086016123a9565b601f01601f19169290920160200192915050565b60408152600061240c60408301856123cd565b90508260208301529392505050565b6000815160a0845261243060a08501826123cd565b6020848101516001600160a01b031690860152604080850151908601526060808501519086015260809384015193909401929092525090919050565b60208152600061053f602083018461241b565b600082516124918184602087016123a9565b919091019291505056fea2646970667358221220e0e738373d8dc69aeb03fb2365fe7bcc8cc2d39df3d238712317743ec525cc5064736f6c63430008150033",
  "devdoc": {
    "errors": {
      "Address_NotTransferNorContract(address)": [
        {
          "params": {
            "target": "Target address to call the function on."
          }
        }
      ],
      "PaymentHub_InvalidSender(address)": [
        {
          "params": {
            "sender": "The msg.sender of this transaction."
          }
        }
      ],
      "PaymentHub_SwapError(uint256,uint256)": [
        {
          "params": {
            "amountBase": "Required amount.",
            "swappedAmount": "Swapped amount."
          }
        }
      ],
      "SafeERC20FailedOperation(address)": [
        {
          "details": "An operation with an ERC20 token failed."
        }
      ]
    },
    "kind": "dev",
    "methods": {
      "approveERC20(address)": {
        "details": "This function needs to be called before using the PaymentHub the first time with a new ERC20 token.",
        "params": {
          "erc20In": "The erc20 addresse to approve."
        }
      },
      "changeForwarder(address)": {
        "params": {
          "newForwarder": "The new trusted forwarder."
        }
      },
      "getPriceERC20(uint256,bytes,bool)": {
        "params": {
          "amount": "The exact amount which you want get out (exactOutput) or you put in (exactInput).",
          "exactOutput": "True if exactOutput should be used or false if exactInput should be used.",
          "path": "The path of the swap (inreverse order for exactOutput)."
        }
      },
      "getPriceInERC20(uint256,bytes)": {
        "params": {
          "amountInBase": "The amount of the base currency for the exact output.",
          "path": "The encoded path of the swap from erc20 to base."
        },
        "returns": {
          "_0": "amount quoted to pay"
        }
      },
      "getPriceInEther(uint256,address)": {
        "returns": {
          "_0": "The price in wei."
        }
      },
      "payAndNotify(address,uint256,bytes)": {
        "details": "Equivalent to xchf.transferAndCall(brokerbot, amountInBase)",
        "params": {
          "amountInBase": "The amount of base currency used to buy shares.",
          "brokerbot": "The brokerbot to pay and receive the shares from.",
          "ref": "The reference data blob."
        },
        "returns": {
          "_0": "The amount of shares bought"
        }
      },
      "payFromERC20(uint256,uint256,address,bytes,address)": {
        "details": "The calling address must approve this contract to spend its ERC20 for this function to succeed. As the amount of input ERC20 is variable, the calling address will need to approve for a slightly higher or infinit amount, anticipating some variance.",
        "params": {
          "amountInMaximum": "The maximum amount of ERC20 willing to be swapped for the specified amountOut of baseCurrency.",
          "amountOut": "The desired amount of baseCurrency.",
          "erc20In": "The address of the erc20 token to pay with.",
          "path": "The encoded path of the swap from erc20 to base.",
          "recipient": "The reciving address - brokerbot."
        },
        "returns": {
          "amountIn": "The amountIn of ERC20 actually spent to receive the desired amountOut."
        }
      },
      "payFromEtherAndNotify(address,uint256,bytes)": {
        "params": {
          "amountInBase": "The amount of base currency used to buy shares.",
          "brokerbot": "The brokerbot to pay and receive the shares from.",
          "ref": "The reference data blob."
        },
        "returns": {
          "priceInEther": "The amount of Ether spent.",
          "sharesOut": "The amount of shares bought."
        }
      },
      "recover(address,address,uint256)": {
        "params": {
          "amount": "The amount of tokens to transfer.",
          "ercAddress": "The erc20 address.",
          "to": "The address to transfer tokens to."
        }
      },
      "sellSharesAndSwap(address,address,uint256,bytes,(bytes,address,uint256,uint256,uint256),bool)": {
        "params": {
          "amountToSell": "The amount of shares to sell.",
          "brokerbot": "The brokerbot of the shares to sell.",
          "params": "Information about the swap.",
          "ref": "Reference e.g. insider declaration and the type of sell.",
          "shares": "The (draggable)shares address."
        },
        "returns": {
          "_0": "The output amount of the swap to the desired token."
        }
      },
      "sellSharesWithPermit(address,address,address,address,uint256,bytes,(uint256,uint256,uint8,bytes32,bytes32))": {
        "params": {
          "amountToSell": "The amount the seller wants to sell.",
          "brokerbot": "The brokerbot to recive the shares.",
          "permitInfo": "Information about the permit.",
          "recipient": "The address of the recipient of the sell preceeds.",
          "ref": "Reference e.g. insider declaration and the type of sell.",
          "seller": "The address of the seller."
        },
        "returns": {
          "_0": "The base currency amount for the selling of the shares."
        }
      },
      "sellSharesWithPermitAndSwap(address,address,address,uint256,bytes,(uint256,uint256,uint8,bytes32,bytes32),(bytes,address,uint256,uint256,uint256),bool)": {
        "params": {
          "amountToSell": "The amount of shares to sell.",
          "brokerbot": "The brokerbot of the shares to sell.",
          "params": "Information about the swap.",
          "permitInfo": "Information about the permit.",
          "ref": "Reference e.g. insider declaration and the type of sell.",
          "seller": "The seller address.",
          "shares": "The (draggable)shares address."
        },
        "returns": {
          "_0": "The output amount of the swap to the desired token."
        }
      },
      "transferEther(address)": {
        "details": "Used with the mutlisigwallet.",
        "params": {
          "to": "The address to transfer ether to."
        }
      },
      "withdrawEther(address,uint256)": {
        "params": {
          "to": "The address to transfer ether to."
        }
      }
    },
    "version": 1
  },
  "userdoc": {
    "errors": {
      "PaymentHub_InvalidSender(address)": [
        {
          "notice": "Sender not trusted."
        }
      ],
      "PaymentHub_SwapError(uint256,uint256)": [
        {
          "notice": "swap with less base token as required."
        }
      ],
      "PaymentHub_TransferFailed()": [
        {
          "notice": "Failguard when an erc20 transfer returns false. "
        }
      ]
    },
    "kind": "user",
    "methods": {
      "approveERC20(address)": {
        "notice": "This function appoves infinite allowance for Uniswap, this is safe as the paymenthub should never hold any token (see also recover() )."
      },
      "changeForwarder(address)": {
        "notice": "Change the trusted forwarder."
      },
      "getPriceERC20(uint256,bytes,bool)": {
        "notice": "Get price for given amount and path swapped via uniswap. "
      },
      "getPriceInERC20(uint256,bytes)": {
        "notice": "Get price in ERC20 This is the method that the Brokerbot widget should use to quote the price to the user."
      },
      "getPriceInEther(uint256,address)": {
        "notice": "Get price in Ether depding on brokerbot setting. If keep ETH is set price is from oracle. This is the method that the Brokerbot widget should use to quote the price to the user."
      },
      "hasSettingKeepEther(address)": {
        "notice": "Checks if the brokerbot has setting enabled to keep ether"
      },
      "multiPayAndNotify(address,address[],uint256[],bytes)": {
        "notice": "Can (at least in theory) save some gas as the sender balance only is touched in one transaction."
      },
      "payAndNotify(address,uint256,bytes)": {
        "notice": "Allows to make a base currency payment from the sender to the brokerbot, given an allowance to this contract."
      },
      "payFromEther(address,uint256,address)": {
        "notice": "Convenience method to swap ether into base and pay a target address"
      },
      "payFromEtherAndNotify(address,uint256,bytes)": {
        "notice": "Pay with Ether to buy shares."
      },
      "recover(address,address,uint256)": {
        "notice": "In case tokens have been accidentally sent directly to this contract. Only Forwarder can withdraw, else a MEV bot will intercept it."
      },
      "sellSharesAndSwap(address,address,uint256,bytes,(bytes,address,uint256,uint256,uint256),bool)": {
        "notice": "With this function a user can sell shares and swap them to a desired token. The user has to approve the paymenthub before on the shares contract."
      },
      "sellSharesWithPermit(address,address,address,address,uint256,bytes,(uint256,uint256,uint8,bytes32,bytes32))": {
        "notice": "Sell shares with permit"
      },
      "sellSharesWithPermitAndSwap(address,address,address,uint256,bytes,(uint256,uint256,uint8,bytes32,bytes32),(bytes,address,uint256,uint256,uint256),bool)": {
        "notice": "With this function a user can sell shares with permit and swap them to a desired token."
      },
      "transferEther(address)": {
        "notice": "Transfer ether to a given address."
      },
      "withdrawEther(address,uint256)": {
        "notice": "Transfer ether to a given address. Only Forwarder can withdraw, else a MEV bot will intercept it."
      }
    },
    "notice": "A hub for payments. This allows tokens that do not support ERC 677 to enjoy similar functionality, namely interacting with a token-handling smart contract in one transaction, without having to set an allowance first. Instead, an allowance needs to be set only once, namely for this contract. Further, it supports automatic conversion from Ether to the payment currency through Uniswap or the reception of Ether using the current exchange rate as found in the chainlink oracle.",
    "version": 1
  },
  "storageLayout": {
    "storage": [
      {
        "astId": 3870,
        "contract": "src/brokerbot/PaymentHub.sol:PaymentHub",
        "label": "trustedForwarder",
        "offset": 0,
        "slot": "0",
        "type": "t_address"
      }
    ],
    "types": {
      "t_address": {
        "encoding": "inplace",
        "label": "address",
        "numberOfBytes": "20"
      }
    }
  }
}