{
  "address": "0x3eeffebd88a3b4bc1fe600bfcd1c0a8c8b813980",
  "abi": [
    {
      "inputs": [
        {
          "internalType": "address",
          "name": "_trustedForwarder",
          "type": "address"
        },
        {
          "internalType": "contract IQuoter",
          "name": "_quoter",
          "type": "address"
        },
        {
          "internalType": "contract ISwapRouter",
          "name": "swapRouter",
          "type": "address"
        }
      ],
      "stateMutability": "nonpayable",
      "type": "constructor"
    },
    {
      "inputs": [
        {
          "internalType": "address",
          "name": "target",
          "type": "address"
        }
      ],
      "name": "Address_NotTransferNorContract",
      "type": "error"
    },
    {
      "inputs": [
        {
          "internalType": "address",
          "name": "sender",
          "type": "address"
        }
      ],
      "name": "PaymentHub_InvalidSender",
      "type": "error"
    },
    {
      "inputs": [
        {
          "internalType": "uint256",
          "name": "amountBase",
          "type": "uint256"
        },
        {
          "internalType": "uint256",
          "name": "swappedAmount",
          "type": "uint256"
        }
      ],
      "name": "PaymentHub_SwapError",
      "type": "error"
    },
    {
      "inputs": [],
      "name": "PaymentHub_TransferFailed",
      "type": "error"
    },
    {
      "inputs": [
        {
          "internalType": "address",
          "name": "token",
          "type": "address"
        }
      ],
      "name": "SafeERC20FailedOperation",
      "type": "error"
    },
    {
      "anonymous": false,
      "inputs": [
        {
          "indexed": true,
          "internalType": "address",
          "name": "_oldForwarder",
          "type": "address"
        },
        {
          "indexed": true,
          "internalType": "address",
          "name": "_newForwarder",
          "type": "address"
        }
      ],
      "name": "ForwarderChanged",
      "type": "event"
    },
    {
      "inputs": [],
      "name": "VERSION",
      "outputs": [
        {
          "internalType": "uint256",
          "name": "",
          "type": "uint256"
        }
      ],
      "stateMutability": "view",
      "type": "function"
    },
    {
      "inputs": [
        {
          "internalType": "address",
          "name": "erc20In",
          "type": "address"
        }
      ],
      "name": "approveERC20",
      "outputs": [],
      "stateMutability": "nonpayable",
      "type": "function"
    },
    {
      "inputs": [
        {
          "internalType": "address",
          "name": "newForwarder",
          "type": "address"
        }
      ],
      "name": "changeForwarder",
      "outputs": [],
      "stateMutability": "nonpayable",
      "type": "function"
    },
    {
      "inputs": [
        {
          "internalType": "uint256",
          "name": "amount",
          "type": "uint256"
        },
        {
          "internalType": "bytes",
          "name": "path",
          "type": "bytes"
        },
        {
          "internalType": "bool",
          "name": "exactOutput",
          "type": "bool"
        }
      ],
      "name": "getPriceERC20",
      "outputs": [
        {
          "internalType": "uint256",
          "name": "",
          "type": "uint256"
        }
      ],
      "stateMutability": "nonpayable",
      "type": "function"
    },
    {
      "inputs": [
        {
          "internalType": "uint256",
          "name": "amountInBase",
          "type": "uint256"
        },
        {
          "internalType": "bytes",
          "name": "path",
          "type": "bytes"
        }
      ],
      "name": "getPriceInERC20",
      "outputs": [
        {
          "internalType": "uint256",
          "name": "",
          "type": "uint256"
        }
      ],
      "stateMutability": "nonpayable",
      "type": "function"
    },
    {
      "inputs": [
        {
          "internalType": "uint256",
          "name": "amountInBase",
          "type": "uint256"
        },
        {
          "internalType": "contract IBrokerbot",
          "name": "brokerBot",
          "type": "address"
        },
        {
          "internalType": "bytes",
          "name": "path",
          "type": "bytes"
        }
      ],
      "name": "getPriceInEther",
      "outputs": [
        {
          "internalType": "uint256",
          "name": "",
          "type": "uint256"
        }
      ],
      "stateMutability": "nonpayable",
      "type": "function"
    },
    {
      "inputs": [
        {
          "internalType": "contract IERC20",
          "name": "token",
          "type": "address"
        },
        {
          "internalType": "address[]",
          "name": "recipients",
          "type": "address[]"
        },
        {
          "internalType": "uint256[]",
          "name": "amounts",
          "type": "uint256[]"
        }
      ],
      "name": "multiPay",
      "outputs": [],
      "stateMutability": "nonpayable",
      "type": "function"
    },
    {
      "inputs": [
        {
          "internalType": "contract IERC20",
          "name": "token",
          "type": "address"
        },
        {
          "internalType": "contract IBrokerbot[]",
          "name": "brokerbots",
          "type": "address[]"
        },
        {
          "internalType": "uint256[]",
          "name": "amounts",
          "type": "uint256[]"
        },
        {
          "internalType": "bytes",
          "name": "ref",
          "type": "bytes"
        }
      ],
      "name": "multiPayAndNotify",
      "outputs": [],
      "stateMutability": "nonpayable",
      "type": "function"
    },
    {
      "inputs": [
        {
          "internalType": "contract IBrokerbot",
          "name": "brokerbot",
          "type": "address"
        },
        {
          "internalType": "uint256",
          "name": "amountInBase",
          "type": "uint256"
        },
        {
          "internalType": "bytes",
          "name": "ref",
          "type": "bytes"
        }
      ],
      "name": "payAndNotify",
      "outputs": [
        {
          "internalType": "uint256",
          "name": "",
          "type": "uint256"
        }
      ],
      "stateMutability": "nonpayable",
      "type": "function"
    },
    {
      "inputs": [
        {
          "internalType": "contract IERC20",
          "name": "token",
          "type": "address"
        },
        {
          "internalType": "contract IBrokerbot",
          "name": "brokerbot",
          "type": "address"
        },
        {
          "internalType": "uint256",
          "name": "amount",
          "type": "uint256"
        },
        {
          "internalType": "bytes",
          "name": "ref",
          "type": "bytes"
        }
      ],
      "name": "payAndNotify",
      "outputs": [
        {
          "internalType": "uint256",
          "name": "",
          "type": "uint256"
        }
      ],
      "stateMutability": "nonpayable",
      "type": "function"
    },
    {
      "inputs": [
        {
          "internalType": "uint256",
          "name": "amountOut",
          "type": "uint256"
        },
        {
          "internalType": "uint256",
          "name": "amountInMaximum",
          "type": "uint256"
        },
        {
          "internalType": "address",
          "name": "erc20In",
          "type": "address"
        },
        {
          "internalType": "bytes",
          "name": "path",
          "type": "bytes"
        },
        {
          "internalType": "address",
          "name": "recipient",
          "type": "address"
        }
      ],
      "name": "payFromERC20",
      "outputs": [
        {
          "internalType": "uint256",
          "name": "amountIn",
          "type": "uint256"
        }
      ],
      "stateMutability": "nonpayable",
      "type": "function"
    },
    {
      "inputs": [
        {
          "internalType": "contract IBrokerbot",
          "name": "brokerbot",
          "type": "address"
        },
        {
          "internalType": "uint256",
          "name": "amountBase",
          "type": "uint256"
        },
        {
          "internalType": "address",
          "name": "erc20",
          "type": "address"
        },
        {
          "internalType": "uint256",
          "name": "amountInMaximum",
          "type": "uint256"
        },
        {
          "internalType": "bytes",
          "name": "path",
          "type": "bytes"
        },
        {
          "internalType": "bytes",
          "name": "ref",
          "type": "bytes"
        }
      ],
      "name": "payFromERC20AndNotify",
      "outputs": [
        {
          "internalType": "uint256",
          "name": "amountIn",
          "type": "uint256"
        },
        {
          "internalType": "uint256",
          "name": "amountOut",
          "type": "uint256"
        }
      ],
      "stateMutability": "nonpayable",
      "type": "function"
    },
    {
      "inputs": [
        {
          "internalType": "address",
          "name": "recipient",
          "type": "address"
        },
        {
          "internalType": "uint256",
          "name": "amountInBase",
          "type": "uint256"
        },
        {
          "internalType": "bytes",
          "name": "path",
          "type": "bytes"
        }
      ],
      "name": "payFromEther",
      "outputs": [
        {
          "internalType": "uint256",
          "name": "amountIn",
          "type": "uint256"
        }
      ],
      "stateMutability": "payable",
      "type": "function"
    },
    {
      "inputs": [
        {
          "internalType": "contract IBrokerbot",
          "name": "brokerbot",
          "type": "address"
        },
        {
          "internalType": "uint256",
          "name": "amountBase",
          "type": "uint256"
        },
        {
          "internalType": "bytes",
          "name": "ref",
          "type": "bytes"
        },
        {
          "internalType": "bytes",
          "name": "path",
          "type": "bytes"
        }
      ],
      "name": "payFromEtherAndNotify",
      "outputs": [
        {
          "internalType": "uint256",
          "name": "priceInEther",
          "type": "uint256"
        },
        {
          "internalType": "uint256",
          "name": "sharesOut",
          "type": "uint256"
        }
      ],
      "stateMutability": "payable",
      "type": "function"
    },
    {
      "inputs": [
        {
          "internalType": "contract IERC20",
          "name": "ercAddress",
          "type": "address"
        },
        {
          "internalType": "address",
          "name": "to",
          "type": "address"
        },
        {
          "internalType": "uint256",
          "name": "amount",
          "type": "uint256"
        }
      ],
      "name": "recover",
      "outputs": [],
      "stateMutability": "nonpayable",
      "type": "function"
    },
    {
      "inputs": [
        {
          "internalType": "contract IBrokerbot",
          "name": "brokerbot",
          "type": "address"
        },
        {
          "internalType": "contract IERC20",
          "name": "shares",
          "type": "address"
        },
        {
          "internalType": "uint256",
          "name": "amountToSell",
          "type": "uint256"
        },
        {
          "internalType": "bytes",
          "name": "ref",
          "type": "bytes"
        },
        {
          "components": [
            {
              "internalType": "bytes",
              "name": "path",
              "type": "bytes"
            },
            {
              "internalType": "address",
              "name": "recipient",
              "type": "address"
            },
            {
              "internalType": "uint256",
              "name": "deadline",
              "type": "uint256"
            },
            {
              "internalType": "uint256",
              "name": "amountIn",
              "type": "uint256"
            },
            {
              "internalType": "uint256",
              "name": "amountOutMinimum",
              "type": "uint256"
            }
          ],
          "internalType": "struct ISwapRouter.ExactInputParams",
          "name": "params",
          "type": "tuple"
        },
        {
          "internalType": "bool",
          "name": "unwrapWeth",
          "type": "bool"
        }
      ],
      "name": "sellSharesAndSwap",
      "outputs": [
        {
          "internalType": "uint256",
          "name": "",
          "type": "uint256"
        }
      ],
      "stateMutability": "nonpayable",
      "type": "function"
    },
    {
      "inputs": [
        {
          "internalType": "contract IBrokerbot",
          "name": "brokerbot",
          "type": "address"
        },
        {
          "internalType": "contract IERC20Permit",
          "name": "shares",
          "type": "address"
        },
        {
          "internalType": "address",
          "name": "seller",
          "type": "address"
        },
        {
          "internalType": "address",
          "name": "recipient",
          "type": "address"
        },
        {
          "internalType": "uint256",
          "name": "amountToSell",
          "type": "uint256"
        },
        {
          "internalType": "bytes",
          "name": "ref",
          "type": "bytes"
        },
        {
          "components": [
            {
              "internalType": "uint256",
              "name": "exFee",
              "type": "uint256"
            },
            {
              "internalType": "uint256",
              "name": "deadline",
              "type": "uint256"
            },
            {
              "internalType": "uint8",
              "name": "v",
              "type": "uint8"
            },
            {
              "internalType": "bytes32",
              "name": "r",
              "type": "bytes32"
            },
            {
              "internalType": "bytes32",
              "name": "s",
              "type": "bytes32"
            }
          ],
          "internalType": "struct PaymentHub.PermitInfo",
          "name": "permitInfo",
          "type": "tuple"
        }
      ],
      "name": "sellSharesWithPermit",
      "outputs": [
        {
          "internalType": "uint256",
          "name": "",
          "type": "uint256"
        }
      ],
      "stateMutability": "nonpayable",
      "type": "function"
    },
    {
      "inputs": [
        {
          "internalType": "contract IBrokerbot",
          "name": "brokerbot",
          "type": "address"
        },
        {
          "internalType": "contract IERC20Permit",
          "name": "shares",
          "type": "address"
        },
        {
          "internalType": "address",
          "name": "seller",
          "type": "address"
        },
        {
          "internalType": "uint256",
          "name": "amountToSell",
          "type": "uint256"
        },
        {
          "internalType": "bytes",
          "name": "ref",
          "type": "bytes"
        },
        {
          "components": [
            {
              "internalType": "uint256",
              "name": "exFee",
              "type": "uint256"
            },
            {
              "internalType": "uint256",
              "name": "deadline",
              "type": "uint256"
            },
            {
              "internalType": "uint8",
              "name": "v",
              "type": "uint8"
            },
            {
              "internalType": "bytes32",
              "name": "r",
              "type": "bytes32"
            },
            {
              "internalType": "bytes32",
              "name": "s",
              "type": "bytes32"
            }
          ],
          "internalType": "struct PaymentHub.PermitInfo",
          "name": "permitInfo",
          "type": "tuple"
        },
        {
          "components": [
            {
              "internalType": "bytes",
              "name": "path",
              "type": "bytes"
            },
            {
              "internalType": "address",
              "name": "recipient",
              "type": "address"
            },
            {
              "internalType": "uint256",
              "name": "deadline",
              "type": "uint256"
            },
            {
              "internalType": "uint256",
              "name": "amountIn",
              "type": "uint256"
            },
            {
              "internalType": "uint256",
              "name": "amountOutMinimum",
              "type": "uint256"
            }
          ],
          "internalType": "struct ISwapRouter.ExactInputParams",
          "name": "params",
          "type": "tuple"
        },
        {
          "internalType": "bool",
          "name": "unwrapWeth",
          "type": "bool"
        }
      ],
      "name": "sellSharesWithPermitAndSwap",
      "outputs": [
        {
          "internalType": "uint256",
          "name": "",
          "type": "uint256"
        }
      ],
      "stateMutability": "nonpayable",
      "type": "function"
    },
    {
      "inputs": [
        {
          "internalType": "address",
          "name": "to",
          "type": "address"
        }
      ],
      "name": "transferEther",
      "outputs": [],
      "stateMutability": "payable",
      "type": "function"
    },
    {
      "inputs": [],
      "name": "trustedForwarder",
      "outputs": [
        {
          "internalType": "address",
          "name": "",
          "type": "address"
        }
      ],
      "stateMutability": "view",
      "type": "function"
    },
    {
      "inputs": [
        {
          "internalType": "address",
          "name": "to",
          "type": "address"
        },
        {
          "internalType": "uint256",
          "name": "amount",
          "type": "uint256"
        }
      ],
      "name": "withdrawEther",
      "outputs": [],
      "stateMutability": "nonpayable",
      "type": "function"
    },
    {
      "stateMutability": "payable",
      "type": "receive"
    }
  ],
  "transactionHash": "0x729e85617e540a1f7550234b9cca706bacb1143e1a1c66129e3fec5b4d57bf4c",
  "args": [
    "0x59f0941e75f2F77cA4577E48c3c5333a3F8D277b",
    "0xb27308f9F90D607463bb33eA1BeBb41C27CE5AB6",
    "0xE592427A0AEce92De3Edee1F18E0157C05861564"
  ],
  "numDeployments": 3,
  "solcInputHash": "83214f1fbffc5658be3cb2753dec8430",
  "bytecode": "0x60c060405234801561001057600080fd5b5060405161244438038061244483398101604081905261002f91610072565b600080546001600160a01b0319166001600160a01b039485161790559082166080521660a0526100bf565b6001600160a01b038116811461006f57600080fd5b50565b60008060006060848603121561008757600080fd5b83516100928161005a565b60208501519093506100a38161005a565b60408501519092506100b48161005a565b809150509250925092565b60805160a05161233d6101076000396000818161041801528181611042015281816111840152611606015260008181610ea401528181610f3c0152611426015261233d6000f3fe60806040526004361061012e5760003560e01c806359c57ee2116100ab57806388e3b76a1161006f57806388e3b76a14610342578063d3b3ca7714610362578063d492714814610382578063d64d4ba5146103a2578063fb4daeec146103c2578063ffa1ad74146103d557600080fd5b806359c57ee2146102975780635daf206a146102b75780636b55e991146102d7578063753f9447146102ea5780637da0a8771461030a57600080fd5b80631ec82cb8116100f25780631ec82cb8146101ef578063415a21871461020f578063435fd56d1461022f578063522f681514610257578063568f32541461027757600080fd5b8063078aa9641461013a57806311e8701c1461016d57806317f565d21461018f5780631c9af2e3146101af5780631da5f315146101cf57600080fd5b3661013557005b600080fd5b34801561014657600080fd5b5061015a61015536600461185c565b6103ea565b6040519081526020015b60405180910390f35b34801561017957600080fd5b5061018d6101883660046118ba565b610401565b005b34801561019b57600080fd5b5061015a6101aa36600461191f565b610499565b3480156101bb57600080fd5b5061018d6101ca3660046119be565b610512565b3480156101db57600080fd5b5061015a6101ea366004611a58565b61058b565b3480156101fb57600080fd5b5061018d61020a366004611b01565b610772565b34801561021b57600080fd5b5061018d61022a3660046118ba565b6107b8565b61024261023d366004611b42565b610830565b60408051928352602083019190915201610164565b34801561026357600080fd5b5061018d610272366004611bc7565b610a49565b34801561028357600080fd5b5061018d610292366004611bf3565b610aea565b3480156102a357600080fd5b5061015a6102b2366004611c9f565b610b53565b3480156102c357600080fd5b506102426102d2366004611ce2565b610b98565b61018d6102e53660046118ba565b610d9c565b3480156102f657600080fd5b5061015a610305366004611e09565b610e10565b34801561031657600080fd5b5060005461032a906001600160a01b031681565b6040516001600160a01b039091168152602001610164565b34801561034e57600080fd5b5061015a61035d366004611ede565b610e85565b34801561036e57600080fd5b5061015a61037d366004611f38565b610f7a565b34801561038e57600080fd5b5061015a61039d366004611f99565b611012565b3480156103ae57600080fd5b5061015a6103bd366004612045565b61103e565b61015a6103d03660046120bc565b611142565b3480156103e157600080fd5b5061015a600981565b60006103f883836001610e85565b90505b92915050565b60405163095ea7b360e01b81526001600160a01b037f000000000000000000000000000000000000000000000000000000000000000081166004830152600019602483015282169063095ea7b3906044016020604051808303816000875af1158015610471573d6000803e3d6000fd5b505050506040513d601f19601f820116820180604052508101906104959190612114565b5050565b6000610509856001600160a01b0316635001f3b56040518163ffffffff1660e01b8152600401602060405180830381865afa1580156104dc573d6000803e3d6000fd5b505050506040513d601f19601f820116820180604052508101906105009190612131565b86868686610f7a565b95945050505050565b60005b838110156105835761057b338686848181106105335761053361214e565b905060200201602081019061054891906118ba565b85858581811061055a5761055a61214e565b90506020020135896001600160a01b03166112db909392919063ffffffff16565b600101610515565b505050505050565b6000805487906001600160a01b031633148015906105b25750336001600160a01b03821614155b156105d7576040516340b3b69360e11b81523360048201526024015b60405180910390fd5b6001600160a01b03891663d505accf89308960208801356105fe60608a0160408b01612164565b6040516001600160e01b031960e088901b1681526001600160a01b0395861660048201529490931660248501526044840191909152606483015260ff166084820152606086013560a4820152608086013560c482015260e401600060405180830381600087803b15801561067157600080fd5b505af1158015610685573d6000803e3d6000fd5b50505083351590506107535760006106a28b8b8b308b8b8b611348565b905060008b6001600160a01b0316635001f3b56040518163ffffffff1660e01b8152600401602060405180830381865afa1580156106e4573d6000803e3d6000fd5b505050506040513d601f19601f820116820180604052508101906107089190612131565b905061071f6001600160a01b0382163387356113d6565b61073f8961072e873585612187565b6001600160a01b03841691906113d6565b61074a853583612187565b93505050610765565b6107628a8a8a8a8a8a8a611348565b91505b5098975050505050505050565b6000546001600160a01b0316331461079f576040516340b3b69360e11b81523360048201526024016105ce565b6107b36001600160a01b03841683836113d6565b505050565b6000546001600160a01b031633146107e5576040516340b3b69360e11b81523360048201526024016105ce565b600080546001600160a01b0319166001600160a01b0383169081178255604051909133917f6b1afd5bf12dcac0f44e8afd235c6681297d3124624a7a7a0d34abd84b7986259190a350565b6000806000876001600160a01b0316635001f3b56040518163ffffffff1660e01b8152600401602060405180830381865afa158015610873573d6000803e3d6000fd5b505050506040513d601f19601f820116820180604052508101906108979190612131565b6040516370a0823160e01b81526001600160a01b038a811660048301529192506000918316906370a0823190602401602060405180830381865afa1580156108e3573d6000803e3d6000fd5b505050506040513d601f19601f8201168201806040525081019061090791906121a8565b9050610914898987611142565b6040516370a0823160e01b81526001600160a01b038b811660048301529195506000918416906370a0823190602401602060405180830381865afa158015610960573d6000803e3d6000fd5b505050506040513d601f19601f8201168201806040525081019061098491906121a8565b90506109908282612187565b89146109c357886109a18383612187565b604051630a720dfb60e01b8152600481019290925260248201526044016105ce565b60405163349b2e2960e11b81526001600160a01b038b16906369365c52906109f790869033908e908e908e906004016121c1565b6020604051808303816000875af1158015610a16573d6000803e3d6000fd5b505050506040513d601f19601f82011682018060405250810190610a3a91906121a8565b93505050509550959350505050565b6000546001600160a01b03163314610a76576040516340b3b69360e11b81523360048201526024016105ce565b6000826001600160a01b03168260405160006040518083038185875af1925050503d8060008114610ac3576040519150601f19603f3d011682016040523d82523d6000602084013e610ac8565b606091505b50509050806107b35760405163f82a0ab760e01b815260040160405180910390fd5b60005b85811015610b4957610b4088888884818110610b0b57610b0b61214e565b9050602002016020810190610b2091906118ba565b878785818110610b3257610b3261214e565b905060200201358686610f7a565b50600101610aed565b5050505050505050565b60006105098584848080601f01602080910402602001604051908101604052809392919081815260200183838082843760009201919091525060019250610e85915050565b6000806000896001600160a01b0316635001f3b56040518163ffffffff1660e01b8152600401602060405180830381865afa158015610bdb573d6000803e3d6000fd5b505050506040513d601f19601f82011682018060405250810190610bff9190612131565b6040516370a0823160e01b81526001600160a01b038c811660048301529192506000918316906370a0823190602401602060405180830381865afa158015610c4b573d6000803e3d6000fd5b505050506040513d601f19601f82011682018060405250810190610c6f91906121a8565b9050610c7e8a898b8a8f61103e565b6040516370a0823160e01b81526001600160a01b038d811660048301529195506000918416906370a0823190602401602060405180830381865afa158015610cca573d6000803e3d6000fd5b505050506040513d601f19601f82011682018060405250810190610cee91906121a8565b9050610cfa8282612187565b8b14610d0b578a6109a18383612187565b6001600160a01b038c166369365c528433610d268686612187565b8b8b6040518663ffffffff1660e01b8152600401610d489594939291906121c1565b6020604051808303816000875af1158015610d67573d6000803e3d6000fd5b505050506040513d601f19601f82011682018060405250810190610d8b91906121a8565b935050505097509795505050505050565b6000816001600160a01b03163460405160006040518083038185875af1925050503d8060008114610de9576040519150601f19603f3d011682016040523d82523d6000602084013e610dee565b606091505b50509050806104955760405163f82a0ab760e01b815260040160405180910390fd5b6000805488906001600160a01b03163314801590610e375750336001600160a01b03821614155b15610e57576040516340b3b69360e11b81523360048201526024016105ce565b610e678b8b8b308c8c8c8c61058b565b6060850152610e768484611407565b9b9a5050505050505050505050565b60008115610f2557604051632f80bb1d60e01b81526001600160a01b037f00000000000000000000000000000000000000000000000000000000000000001690632f80bb1d90610edb9086908890600401612265565b6020604051808303816000875af1158015610efa573d6000803e3d6000fd5b505050506040513d601f19601f82011682018060405250810190610f1e91906121a8565b9050610f73565b60405163cdca175360e01b81526001600160a01b037f0000000000000000000000000000000000000000000000000000000000000000169063cdca175390610edb9086908890600401612265565b9392505050565b6000610f916001600160a01b0387163387876112db565b60405163349b2e2960e11b81526001600160a01b038616906369365c5290610fc590899033908990899089906004016121c1565b6020604051808303816000875af1158015610fe4573d6000803e3d6000fd5b505050506040513d601f19601f8201168201806040525081019061100891906121a8565b9695505050505050565b6000611023888833308a8a8a611348565b60608401526110328383611407565b98975050505050505050565b60007f00000000000000000000000000000000000000000000000000000000000000006110766001600160a01b0386163330896112db565b6040805160a0810182528581526001600160a01b0380861660208301524282840152606082018a9052608082018990529151631e51809360e31b8152909183169063f28c0498906110cb9084906004016122d8565b6020604051808303816000875af11580156110ea573d6000803e3d6000fd5b505050506040513d601f19601f8201168201806040525081019061110e91906121a8565b9250868310156111375761113733611126858a612187565b6001600160a01b03891691906113d6565b505095945050505050565b6040805160a0810182528281526001600160a01b03808616602083015242828401526060820185905234608083018190529251631e51809360e31b81526000937f0000000000000000000000000000000000000000000000000000000000000000939284169163f28c049891906111bd9085906004016122d8565b60206040518083038185885af11580156111db573d6000803e3d6000fd5b50505050506040513d601f19601f8201168201806040525081019061120091906121a8565b9250348310156112d257816001600160a01b03166312210e8a6040518163ffffffff1660e01b8152600401600060405180830381600087803b15801561124557600080fd5b505af1158015611259573d6000803e3d6000fd5b506000925033915061126d90508534612187565b604051600081818185875af1925050503d80600081146112a9576040519150601f19603f3d011682016040523d82523d6000602084013e6112ae565b606091505b50509050806112d05760405163f82a0ab760e01b815260040160405180910390fd5b505b50509392505050565b6040516001600160a01b0384811660248301528381166044830152606482018390526113429186918216906323b872dd906084015b604051602081830303815290604052915060e01b6020820180516001600160e01b038381831617835250505050611589565b50505050565b600061135f6001600160a01b038816878a876112db565b60405163349b2e2960e11b81526001600160a01b038916906369365c5290611393908a9089908990899089906004016121c1565b6020604051808303816000875af11580156113b2573d6000803e3d6000fd5b505050506040513d601f19601f8201168201806040525081019061103291906121a8565b6040516001600160a01b038381166024830152604482018390526107b391859182169063a9059cbb90606401611310565b600081156115805760208301805130909152611422846115ec565b91507f00000000000000000000000000000000000000000000000000000000000000006001600160a01b0316634aa4a4fc6040518163ffffffff1660e01b8152600401602060405180830381865afa158015611482573d6000803e3d6000fd5b505050506040513d601f19601f820116820180604052508101906114a69190612131565b6001600160a01b0316632e1a7d4d836040518263ffffffff1660e01b81526004016114d391815260200190565b600060405180830381600087803b1580156114ed57600080fd5b505af1158015611501573d6000803e3d6000fd5b505050506000816001600160a01b03168360405160006040518083038185875af1925050503d8060008114611552576040519150601f19603f3d011682016040523d82523d6000602084013e611557565b606091505b50509050806115795760405163f82a0ab760e01b815260040160405180910390fd5b50506103fb565b6103f8836115ec565b600061159e6001600160a01b038416836116ba565b905080516000141580156115c35750808060200190518101906115c19190612114565b155b156107b357604051635274afe760e01b81526001600160a01b03841660048201526024016105ce565b60405163c04b8d5960e01b81526000906001600160a01b037f0000000000000000000000000000000000000000000000000000000000000000169063c04b8d599061163b9085906004016122d8565b6020604051808303816000875af115801561165a573d6000803e3d6000fd5b505050506040513d601f19601f8201168201806040525081019061167e91906121a8565b905081608001518110156116b5576080820151604051630a720dfb60e01b81526004810191909152602481018290526044016105ce565b919050565b60606103f883836000606082516000141580156116df57506001600160a01b0384163b155b1561170857604051639eb1341360e01b81526001600160a01b03851660048201526024016105ce565b600080856001600160a01b0316848660405161172491906122eb565b60006040518083038185875af1925050503d8060008114611761576040519150601f19603f3d011682016040523d82523d6000602084013e611766565b606091505b5091509150811561177a579150610f739050565b80511561178957805160208201fd5b60405162461bcd60e51b815260206004820152600660248201526519985a5b195960d21b60448201526064016105ce565b634e487b7160e01b600052604160045260246000fd5b600082601f8301126117e157600080fd5b81356001600160401b03808211156117fb576117fb6117ba565b604051601f8301601f19908116603f01168101908282118183101715611823576118236117ba565b8160405283815286602085880101111561183c57600080fd5b836020870160208301376000602085830101528094505050505092915050565b6000806040838503121561186f57600080fd5b8235915060208301356001600160401b0381111561188c57600080fd5b611898858286016117d0565b9150509250929050565b6001600160a01b03811681146118b757600080fd5b50565b6000602082840312156118cc57600080fd5b8135610f73816118a2565b60008083601f8401126118e957600080fd5b5081356001600160401b0381111561190057600080fd5b60208301915083602082850101111561191857600080fd5b9250929050565b6000806000806060858703121561193557600080fd5b8435611940816118a2565b93506020850135925060408501356001600160401b0381111561196257600080fd5b61196e878288016118d7565b95989497509550505050565b60008083601f84011261198c57600080fd5b5081356001600160401b038111156119a357600080fd5b6020830191508360208260051b850101111561191857600080fd5b6000806000806000606086880312156119d657600080fd5b85356119e1816118a2565b945060208601356001600160401b03808211156119fd57600080fd5b611a0989838a0161197a565b90965094506040880135915080821115611a2257600080fd5b50611a2f8882890161197a565b969995985093965092949392505050565b600060a08284031215611a5257600080fd5b50919050565b600080600080600080600080610160898b031215611a7557600080fd5b8835611a80816118a2565b97506020890135611a90816118a2565b96506040890135611aa0816118a2565b95506060890135611ab0816118a2565b94506080890135935060a08901356001600160401b03811115611ad257600080fd5b611ade8b828c016118d7565b9094509250611af290508a60c08b01611a40565b90509295985092959890939650565b600080600060608486031215611b1657600080fd5b8335611b21816118a2565b92506020840135611b31816118a2565b929592945050506040919091013590565b600080600080600060808688031215611b5a57600080fd5b8535611b65816118a2565b94506020860135935060408601356001600160401b0380821115611b8857600080fd5b611b9489838a016118d7565b90955093506060880135915080821115611bad57600080fd5b50611bba888289016117d0565b9150509295509295909350565b60008060408385031215611bda57600080fd5b8235611be5816118a2565b946020939093013593505050565b60008060008060008060006080888a031215611c0e57600080fd5b8735611c19816118a2565b965060208801356001600160401b0380821115611c3557600080fd5b611c418b838c0161197a565b909850965060408a0135915080821115611c5a57600080fd5b611c668b838c0161197a565b909650945060608a0135915080821115611c7f57600080fd5b50611c8c8a828b016118d7565b989b979a50959850939692959293505050565b60008060008060608587031215611cb557600080fd5b843593506020850135611cc7816118a2565b925060408501356001600160401b0381111561196257600080fd5b600080600080600080600060c0888a031215611cfd57600080fd5b8735611d08816118a2565b9650602088013595506040880135611d1f816118a2565b94506060880135935060808801356001600160401b0380821115611d4257600080fd5b611d4e8b838c016117d0565b945060a08a0135915080821115611c7f57600080fd5b600060a08284031215611d7657600080fd5b60405160a081016001600160401b038282108183111715611d9957611d996117ba565b816040528293508435915080821115611db157600080fd5b50611dbe858286016117d0565b8252506020830135611dcf816118a2565b806020830152506040830135604082015260608301356060820152608083013560808201525092915050565b80151581146118b757600080fd5b60008060008060008060008060006101808a8c031215611e2857600080fd5b8935611e33816118a2565b985060208a0135611e43816118a2565b975060408a0135611e53816118a2565b965060608a0135955060808a01356001600160401b0380821115611e7657600080fd5b611e828d838e016118d7565b9097509550859150611e978d60a08e01611a40565b94506101408c0135915080821115611eae57600080fd5b50611ebb8c828d01611d64565b9250506101608a0135611ecd81611dfb565b809150509295985092959850929598565b600080600060608486031215611ef357600080fd5b8335925060208401356001600160401b03811115611f1057600080fd5b611f1c868287016117d0565b9250506040840135611f2d81611dfb565b809150509250925092565b600080600080600060808688031215611f5057600080fd5b8535611f5b816118a2565b94506020860135611f6b816118a2565b93506040860135925060608601356001600160401b03811115611f8d57600080fd5b611a2f888289016118d7565b600080600080600080600060c0888a031215611fb457600080fd5b8735611fbf816118a2565b96506020880135611fcf816118a2565b95506040880135945060608801356001600160401b0380821115611ff257600080fd5b611ffe8b838c016118d7565b909650945060808a013591508082111561201757600080fd5b506120248a828b01611d64565b92505060a088013561203581611dfb565b8091505092959891949750929550565b600080600080600060a0868803121561205d57600080fd5b85359450602086013593506040860135612076816118a2565b925060608601356001600160401b0381111561209157600080fd5b61209d888289016117d0565b92505060808601356120ae816118a2565b809150509295509295909350565b6000806000606084860312156120d157600080fd5b83356120dc816118a2565b92506020840135915060408401356001600160401b038111156120fe57600080fd5b61210a868287016117d0565b9150509250925092565b60006020828403121561212657600080fd5b8151610f7381611dfb565b60006020828403121561214357600080fd5b8151610f73816118a2565b634e487b7160e01b600052603260045260246000fd5b60006020828403121561217657600080fd5b813560ff81168114610f7357600080fd5b818103818111156103fb57634e487b7160e01b600052601160045260246000fd5b6000602082840312156121ba57600080fd5b5051919050565b6001600160a01b038681168252851660208201526040810184905260806060820181905281018290526000828460a0840137600060a0848401015260a0601f19601f85011683010190509695505050505050565b60005b83811015612230578181015183820152602001612218565b50506000910152565b60008151808452612251816020860160208601612215565b601f01601f19169290920160200192915050565b6040815260006122786040830185612239565b90508260208301529392505050565b6000815160a0845261229c60a0850182612239565b6020848101516001600160a01b031690860152604080850151908601526060808501519086015260809384015193909401929092525090919050565b6020815260006103f86020830184612287565b600082516122fd818460208701612215565b919091019291505056fea264697066735822122020ed52fbd074b604b9651a955ec5651239dccce4b9dbbb760121b6f9f75c4b3464736f6c63430008190033",
  "devdoc": {
    "errors": {
      "Address_NotTransferNorContract(address)": [
        {
          "params": {
            "target": "Target address to call the function on."
          }
        }
      ],
      "PaymentHub_InvalidSender(address)": [
        {
          "params": {
            "sender": "The msg.sender of this transaction."
          }
        }
      ],
      "PaymentHub_SwapError(uint256,uint256)": [
        {
          "params": {
            "amountBase": "Required amount.",
            "swappedAmount": "Swapped amount."
          }
        }
      ],
      "SafeERC20FailedOperation(address)": [
        {
          "details": "An operation with an ERC20 token failed."
        }
      ]
    },
    "kind": "dev",
    "methods": {
      "approveERC20(address)": {
        "details": "This function needs to be called before using the PaymentHub the first time with a new ERC20 token.",
        "params": {
          "erc20In": "The erc20 addresse to approve."
        }
      },
      "changeForwarder(address)": {
        "params": {
          "newForwarder": "The new trusted forwarder."
        }
      },
      "getPriceERC20(uint256,bytes,bool)": {
        "params": {
          "amount": "The exact amount which you want get out (exactOutput) or you put in (exactInput).",
          "exactOutput": "True if exactOutput should be used or false if exactInput should be used.",
          "path": "The path of the swap (inreverse order for exactOutput)."
        }
      },
      "getPriceInERC20(uint256,bytes)": {
        "params": {
          "amountInBase": "The amount of the base currency for the exact output.",
          "path": "The encoded path of the swap from erc20 to base."
        },
        "returns": {
          "_0": "amount quoted to pay"
        }
      },
      "getPriceInEther(uint256,address,bytes)": {
        "returns": {
          "_0": "The price in wei."
        }
      },
      "payAndNotify(address,uint256,bytes)": {
        "details": "Equivalent to xchf.transferAndCall(brokerbot, amountInBase)",
        "params": {
          "amountInBase": "The amount of base currency used to buy shares.",
          "brokerbot": "The brokerbot to pay and receive the shares from.",
          "ref": "The reference data blob."
        },
        "returns": {
          "_0": "The amount of shares bought"
        }
      },
      "payFromERC20(uint256,uint256,address,bytes,address)": {
        "details": "The calling address must approve this contract to spend its ERC20 for this function to succeed. As the amount of input ERC20 is variable, the calling address will need to approve for a slightly higher or infinit amount, anticipating some variance.",
        "params": {
          "amountInMaximum": "The maximum amount of ERC20 willing to be swapped for the specified amountOut of baseCurrency.",
          "amountOut": "The desired amount of baseCurrency.",
          "erc20In": "The address of the erc20 token to pay with.",
          "path": "The encoded path of the swap from erc20 to base.",
          "recipient": "The reciving address - brokerbot."
        },
        "returns": {
          "amountIn": "The amountIn of ERC20 actually spent to receive the desired amountOut."
        }
      },
      "payFromEtherAndNotify(address,uint256,bytes,bytes)": {
        "params": {
          "amountBase": "The amount of base currency used to buy shares.",
          "brokerbot": "The brokerbot to pay and receive the shares from.",
          "path": "The Uniswap path from ETH to base currency (uses exactOuput => reverse order)",
          "ref": "The reference data blob."
        },
        "returns": {
          "priceInEther": "The amount of Ether spent.",
          "sharesOut": "The amount of shares bought."
        }
      },
      "recover(address,address,uint256)": {
        "params": {
          "amount": "The amount of tokens to transfer.",
          "ercAddress": "The erc20 address.",
          "to": "The address to transfer tokens to."
        }
      },
      "sellSharesAndSwap(address,address,uint256,bytes,(bytes,address,uint256,uint256,uint256),bool)": {
        "params": {
          "amountToSell": "The amount of shares to sell.",
          "brokerbot": "The brokerbot of the shares to sell.",
          "params": "Information about the swap.",
          "ref": "Reference e.g. insider declaration and the type of sell.",
          "shares": "The (draggable)shares address."
        },
        "returns": {
          "_0": "The output amount of the swap to the desired token."
        }
      },
      "sellSharesWithPermit(address,address,address,address,uint256,bytes,(uint256,uint256,uint8,bytes32,bytes32))": {
        "params": {
          "amountToSell": "The amount the seller wants to sell.",
          "brokerbot": "The brokerbot to recive the shares.",
          "permitInfo": "Information about the permit.",
          "recipient": "The address of the recipient of the sell preceeds.",
          "ref": "Reference e.g. insider declaration and the type of sell.",
          "seller": "The address of the seller."
        },
        "returns": {
          "_0": "The base currency amount for the selling of the shares."
        }
      },
      "sellSharesWithPermitAndSwap(address,address,address,uint256,bytes,(uint256,uint256,uint8,bytes32,bytes32),(bytes,address,uint256,uint256,uint256),bool)": {
        "params": {
          "amountToSell": "The amount of shares to sell.",
          "brokerbot": "The brokerbot of the shares to sell.",
          "params": "Information about the swap.",
          "permitInfo": "Information about the permit.",
          "ref": "Reference e.g. insider declaration and the type of sell.",
          "seller": "The seller address.",
          "shares": "The (draggable)shares address."
        },
        "returns": {
          "_0": "The output amount of the swap to the desired token."
        }
      },
      "transferEther(address)": {
        "details": "Used with the mutlisigwallet.",
        "params": {
          "to": "The address to transfer ether to."
        }
      },
      "withdrawEther(address,uint256)": {
        "params": {
          "to": "The address to transfer ether to."
        }
      }
    },
    "version": 1
  },
  "userdoc": {
    "errors": {
      "PaymentHub_InvalidSender(address)": [
        {
          "notice": "Sender not trusted."
        }
      ],
      "PaymentHub_SwapError(uint256,uint256)": [
        {
          "notice": "swap with less base token as required."
        }
      ],
      "PaymentHub_TransferFailed()": [
        {
          "notice": "Failguard when an erc20 transfer returns false. "
        }
      ]
    },
    "kind": "user",
    "methods": {
      "approveERC20(address)": {
        "notice": "This function appoves infinite allowance for Uniswap, this is safe as the paymenthub should never hold any token (see also recover() )."
      },
      "changeForwarder(address)": {
        "notice": "Change the trusted forwarder."
      },
      "getPriceERC20(uint256,bytes,bool)": {
        "notice": "Get price for given amount and path swapped via uniswap. "
      },
      "getPriceInERC20(uint256,bytes)": {
        "notice": "Get price in ERC20 This is the method that the Brokerbot widget should use to quote the price to the user."
      },
      "getPriceInEther(uint256,address,bytes)": {
        "notice": "Get price in Ether via swap path (no oracle on polygon) This is the method that the Brokerbot widget should use to quote the price to the user."
      },
      "multiPayAndNotify(address,address[],uint256[],bytes)": {
        "notice": "Can (at least in theory) save some gas as the sender balance only is touched in one transaction."
      },
      "payAndNotify(address,uint256,bytes)": {
        "notice": "Allows to make a base currency payment from the sender to the brokerbot, given an allowance to this contract."
      },
      "payFromEther(address,uint256,bytes)": {
        "notice": "Convenience method to swap ether into base and pay a target address"
      },
      "payFromEtherAndNotify(address,uint256,bytes,bytes)": {
        "notice": "Pay with Ether to buy shares."
      },
      "recover(address,address,uint256)": {
        "notice": "In case tokens have been accidentally sent directly to this contract. Only Forwarder can withdraw, else a MEV bot will intercept it."
      },
      "sellSharesAndSwap(address,address,uint256,bytes,(bytes,address,uint256,uint256,uint256),bool)": {
        "notice": "With this function a user can sell shares and swap them to a desired token. The user has to approve the paymenthub before on the shares contract."
      },
      "sellSharesWithPermit(address,address,address,address,uint256,bytes,(uint256,uint256,uint8,bytes32,bytes32))": {
        "notice": "Sell shares with permit"
      },
      "sellSharesWithPermitAndSwap(address,address,address,uint256,bytes,(uint256,uint256,uint8,bytes32,bytes32),(bytes,address,uint256,uint256,uint256),bool)": {
        "notice": "With this function a user can sell shares with permit and swap them to a desired token."
      },
      "transferEther(address)": {
        "notice": "Transfer ether to a given address."
      },
      "withdrawEther(address,uint256)": {
        "notice": "Transfer ether to a given address. Only Forwarder can withdraw, else a MEV bot will intercept it."
      }
    },
    "notice": "A hub for payments. This allows tokens that do not support ERC 677 to enjoy similar functionality, namely interacting with a token-handling smart contract in one transaction, without having to set an allowance first. Instead, an allowance needs to be set only once, namely for this contract. Further, it supports automatic conversion from Ether to the payment currency through Uniswap or the reception of Ether using the current exchange rate as found in the chainlink oracle.",
    "version": 1
  },
  "storageLayout": {
    "storage": [
      {
        "astId": 3880,
        "contract": "src/brokerbot/PaymentHub.sol:PaymentHub",
        "label": "trustedForwarder",
        "offset": 0,
        "slot": "0",
        "type": "t_address"
      }
    ],
    "types": {
      "t_address": {
        "encoding": "inplace",
        "label": "address",
        "numberOfBytes": "20"
      }
    }
  }
}