{
  "address": "0xF08c085748711078C32338e3356c0E533a4a22aC",
  "abi": [
    {
      "inputs": [
        {
          "internalType": "address",
          "name": "_permit2",
          "type": "address"
        },
        {
          "internalType": "address",
          "name": "_owner",
          "type": "address"
        }
      ],
      "stateMutability": "nonpayable",
      "type": "constructor"
    },
    {
      "inputs": [
        {
          "internalType": "address",
          "name": "sender",
          "type": "address"
        }
      ],
      "name": "Ownable_NotOwner",
      "type": "error"
    },
    {
      "anonymous": false,
      "inputs": [
        {
          "indexed": false,
          "internalType": "bool",
          "name": "newSetting",
          "type": "bool"
        }
      ],
      "name": "ChangedPermit2",
      "type": "event"
    },
    {
      "anonymous": false,
      "inputs": [
        {
          "indexed": true,
          "internalType": "address",
          "name": "previousOwner",
          "type": "address"
        },
        {
          "indexed": true,
          "internalType": "address",
          "name": "newOwner",
          "type": "address"
        }
      ],
      "name": "OwnershipTransferred",
      "type": "event"
    },
    {
      "inputs": [
        {
          "internalType": "address",
          "name": "owner",
          "type": "address"
        },
        {
          "internalType": "address",
          "name": "spender",
          "type": "address"
        }
      ],
      "name": "isPermit2Enabled",
      "outputs": [
        {
          "internalType": "bool",
          "name": "",
          "type": "bool"
        }
      ],
      "stateMutability": "view",
      "type": "function"
    },
    {
      "inputs": [],
      "name": "owner",
      "outputs": [
        {
          "internalType": "address",
          "name": "",
          "type": "address"
        }
      ],
      "stateMutability": "view",
      "type": "function"
    },
    {
      "inputs": [],
      "name": "permit2",
      "outputs": [
        {
          "internalType": "address",
          "name": "",
          "type": "address"
        }
      ],
      "stateMutability": "view",
      "type": "function"
    },
    {
      "inputs": [],
      "name": "permit2Disabled",
      "outputs": [
        {
          "internalType": "bool",
          "name": "",
          "type": "bool"
        }
      ],
      "stateMutability": "view",
      "type": "function"
    },
    {
      "inputs": [
        {
          "internalType": "address",
          "name": "",
          "type": "address"
        }
      ],
      "name": "permit2DisabledForAddress",
      "outputs": [
        {
          "internalType": "bool",
          "name": "",
          "type": "bool"
        }
      ],
      "stateMutability": "view",
      "type": "function"
    },
    {
      "inputs": [
        {
          "internalType": "bool",
          "name": "enabled",
          "type": "bool"
        }
      ],
      "name": "setPermit2",
      "outputs": [],
      "stateMutability": "nonpayable",
      "type": "function"
    },
    {
      "inputs": [],
      "name": "togglePermit2",
      "outputs": [],
      "stateMutability": "nonpayable",
      "type": "function"
    },
    {
      "inputs": [
        {
          "internalType": "address",
          "name": "newOwner",
          "type": "address"
        }
      ],
      "name": "transferOwnership",
      "outputs": [],
      "stateMutability": "nonpayable",
      "type": "function"
    }
  ],
  "transactionHash": "0xb9a530291979dc86aee557f7db8becee161a0b64a0484419341dbcfa5a1b30e8",
  "args": [
    "0x000000000022d473030f116ddee9f6b43ac78ba3",
    "0x447ffD9a116efb3D77f47802cc4869C3730f723C"
  ],
  "numDeployments": 1,
  "solcInputHash": "3359475364d1609ea42a90507e98b6cb",
  "bytecode": "0x60a06040526000805460ff60a01b1916905534801561001d57600080fd5b506040516104ce3803806104ce83398101604081905261003c916100b3565b600080546001600160a01b0319166001600160a01b03831690811782556040518392907f8be0079c531659141344cd1fd0a4f28419497f9722a3daafe3b4186f6b6457e0908290a350506001600160a01b03166080526100e6565b80516001600160a01b03811681146100ae57600080fd5b919050565b600080604083850312156100c657600080fd5b6100cf83610097565b91506100dd60208401610097565b90509250929050565b6080516103c76101076000396000818160c1015261018c01526103c76000f3fe608060405234801561001057600080fd5b50600436106100885760003560e01c80638da5cb5b1161005b5780638da5cb5b14610137578063a032ed881461014a578063aa479e7114610152578063f2fde38b1461017557600080fd5b806307a67a001461008d57806312261ee7146100bc5780635f6d6a6214610100578063785e119e14610123575b600080fd5b6100ba61009b366004610305565b336000908152600160205260409020805460ff19169115919091179055565b005b6100e37f000000000000000000000000000000000000000000000000000000000000000081565b6040516001600160a01b0390911681526020015b60405180910390f35b61011361010e366004610343565b610188565b60405190151581526020016100f7565b60005461011390600160a01b900460ff1681565b6000546100e3906001600160a01b031681565b6100ba610201565b610113610160366004610376565b60016020526000908152604090205460ff1681565b6100ba610183366004610376565b61026f565b60007f00000000000000000000000000000000000000000000000000000000000000006001600160a01b0316826001600160a01b03161480156101d55750600054600160a01b900460ff16155b80156101fa57506001600160a01b03831660009081526001602052604090205460ff16155b9392505050565b6102096102d2565b6000805460ff600160a01b808304821615810260ff60a01b1990931692909217928390556040517fe3c1e5f5d1ba3bc21b987e34409602b4a33f0a2d3fbe3ae5d6ac169bfe706f88936102659390049091161515815260200190565b60405180910390a1565b6102776102d2565b600080546040516001600160a01b03808516939216917f8be0079c531659141344cd1fd0a4f28419497f9722a3daafe3b4186f6b6457e091a3600080546001600160a01b0319166001600160a01b0392909216919091179055565b6000546001600160a01b03163314610303576040516396a19be960e01b815233600482015260240160405180910390fd5b565b60006020828403121561031757600080fd5b813580151581146101fa57600080fd5b80356001600160a01b038116811461033e57600080fd5b919050565b6000806040838503121561035657600080fd5b61035f83610327565b915061036d60208401610327565b90509250929050565b60006020828403121561038857600080fd5b6101fa8261032756fea2646970667358221220cad27d8b24349cfd59c1219b1f2fd4b7d3243ed8dcec77d116eace94529784f664736f6c63430008150033",
  "devdoc": {
    "details": "This contract manages the Permit2 functionality and access control.",
    "events": {
      "ChangedPermit2(bool)": {
        "details": "Emitted when the Permit2 setting is changed."
      }
    },
    "kind": "dev",
    "methods": {
      "constructor": {
        "details": "Initializes the Permit2Hub contract with the provided Permit2 address and owner address.",
        "params": {
          "_owner": "The address of the owner.",
          "_permit2": "The address of the Permit2 contract."
        }
      },
      "isPermit2Enabled(address,address)": {
        "details": "Checks if Permit2 is enabled for the given owner and spender addresses.",
        "params": {
          "owner": "The owner address.",
          "spender": "The spender address, needs to be the permit2 contract."
        },
        "returns": {
          "_0": "A boolean indicating whether Permit2 is enabled."
        }
      },
      "setPermit2(bool)": {
        "details": "Sets the Permit2 status for a specific address.",
        "params": {
          "enabled": "The status to set for the address."
        }
      },
      "togglePermit2()": {
        "details": "Toggles the global Permit2 setting. Can only be called by the owner."
      },
      "transferOwnership(address)": {
        "details": "Transfers ownership of the contract to a new account (`newOwner`). Can only be called by the current owner."
      }
    },
    "stateVariables": {
      "permit2": {
        "details": "The address of the Permit2 contract."
      },
      "permit2Disabled": {
        "details": "Flag to indicate whether Permit2 is disabled."
      },
      "permit2DisabledForAddress": {
        "details": "Mapping to track addresses for which Permit2 is disabled."
      }
    },
    "title": "Permit2Hub",
    "version": 1
  },
  "userdoc": {
    "kind": "user",
    "methods": {},
    "version": 1
  },
  "storageLayout": {
    "storage": [
      {
        "astId": 10842,
        "contract": "src/utils/Permit2Hub.sol:Permit2Hub",
        "label": "owner",
        "offset": 0,
        "slot": "0",
        "type": "t_address"
      },
      {
        "astId": 11043,
        "contract": "src/utils/Permit2Hub.sol:Permit2Hub",
        "label": "permit2Disabled",
        "offset": 20,
        "slot": "0",
        "type": "t_bool"
      },
      {
        "astId": 11048,
        "contract": "src/utils/Permit2Hub.sol:Permit2Hub",
        "label": "permit2DisabledForAddress",
        "offset": 0,
        "slot": "1",
        "type": "t_mapping(t_address,t_bool)"
      }
    ],
    "types": {
      "t_address": {
        "encoding": "inplace",
        "label": "address",
        "numberOfBytes": "20"
      },
      "t_bool": {
        "encoding": "inplace",
        "label": "bool",
        "numberOfBytes": "1"
      },
      "t_mapping(t_address,t_bool)": {
        "encoding": "mapping",
        "key": "t_address",
        "label": "mapping(address => bool)",
        "numberOfBytes": "32",
        "value": "t_bool"
      }
    }
  }
}