{
  "address": "0x416076a1957b1b3b180269e10f64f9DFcE492551",
  "abi": [
    {
      "inputs": [
        {
          "internalType": "string",
          "name": "_terms",
          "type": "string"
        },
        {
          "components": [
            {
              "internalType": "contract IERC20",
              "name": "wrappedToken",
              "type": "address"
            },
            {
              "internalType": "uint256",
              "name": "quorumDrag",
              "type": "uint256"
            },
            {
              "internalType": "uint256",
              "name": "quorumMigration",
              "type": "uint256"
            },
            {
              "internalType": "uint256",
              "name": "votePeriod",
              "type": "uint256"
            }
          ],
          "internalType": "struct ERC20Draggable.DraggableParams",
          "name": "_params",
          "type": "tuple"
        },
        {
          "internalType": "contract IRecoveryHub",
          "name": "_recoveryHub",
          "type": "address"
        },
        {
          "internalType": "contract IOfferFactory",
          "name": "_offerFactory",
          "type": "address"
        },
        {
          "internalType": "address",
          "name": "_oracle",
          "type": "address"
        },
        {
          "internalType": "contract Permit2Hub",
          "name": "_permit2Hub",
          "type": "address"
        }
      ],
      "stateMutability": "nonpayable",
      "type": "constructor"
    },
    {
      "inputs": [
        {
          "internalType": "address",
          "name": "target",
          "type": "address"
        }
      ],
      "name": "Address_NotTransferNorContract",
      "type": "error"
    },
    {
      "inputs": [],
      "name": "Draggable_FactorZero",
      "type": "error"
    },
    {
      "inputs": [],
      "name": "Draggable_IsBinding",
      "type": "error"
    },
    {
      "inputs": [],
      "name": "Draggable_NotBinding",
      "type": "error"
    },
    {
      "inputs": [],
      "name": "Draggable_OpenOffer",
      "type": "error"
    },
    {
      "inputs": [
        {
          "internalType": "uint256",
          "name": "needed",
          "type": "uint256"
        },
        {
          "internalType": "uint256",
          "name": "actual",
          "type": "uint256"
        }
      ],
      "name": "Draggable_QuorumNotReached",
      "type": "error"
    },
    {
      "inputs": [
        {
          "internalType": "uint256",
          "name": "maxVotes",
          "type": "uint256"
        },
        {
          "internalType": "uint256",
          "name": "reportedVotes",
          "type": "uint256"
        }
      ],
      "name": "Draggable_TooManyVotes",
      "type": "error"
    },
    {
      "inputs": [
        {
          "internalType": "address",
          "name": "receiver",
          "type": "address"
        },
        {
          "internalType": "uint256",
          "name": "balance",
          "type": "uint256"
        },
        {
          "internalType": "uint256",
          "name": "amount",
          "type": "uint256"
        }
      ],
      "name": "ERC20BalanceOverflow",
      "type": "error"
    },
    {
      "inputs": [
        {
          "internalType": "address",
          "name": "spender",
          "type": "address"
        },
        {
          "internalType": "uint256",
          "name": "allowance",
          "type": "uint256"
        },
        {
          "internalType": "uint256",
          "name": "needed",
          "type": "uint256"
        }
      ],
      "name": "ERC20InsufficientAllowance",
      "type": "error"
    },
    {
      "inputs": [
        {
          "internalType": "address",
          "name": "sender",
          "type": "address"
        },
        {
          "internalType": "uint256",
          "name": "balance",
          "type": "uint256"
        },
        {
          "internalType": "uint256",
          "name": "needed",
          "type": "uint256"
        }
      ],
      "name": "ERC20InsufficientBalance",
      "type": "error"
    },
    {
      "inputs": [
        {
          "internalType": "address",
          "name": "approver",
          "type": "address"
        }
      ],
      "name": "ERC20InvalidApprover",
      "type": "error"
    },
    {
      "inputs": [
        {
          "internalType": "address",
          "name": "receiver",
          "type": "address"
        }
      ],
      "name": "ERC20InvalidReceiver",
      "type": "error"
    },
    {
      "inputs": [
        {
          "internalType": "address",
          "name": "sender",
          "type": "address"
        }
      ],
      "name": "ERC20InvalidSender",
      "type": "error"
    },
    {
      "inputs": [
        {
          "internalType": "address",
          "name": "spender",
          "type": "address"
        }
      ],
      "name": "ERC20InvalidSpender",
      "type": "error"
    },
    {
      "inputs": [],
      "name": "IERC677_OnTokenTransferFailed",
      "type": "error"
    },
    {
      "inputs": [
        {
          "internalType": "uint256",
          "name": "deadline",
          "type": "uint256"
        },
        {
          "internalType": "uint256",
          "name": "blockTimestamp",
          "type": "uint256"
        }
      ],
      "name": "Permit_DeadlineExpired",
      "type": "error"
    },
    {
      "inputs": [
        {
          "internalType": "address",
          "name": "signerAddress",
          "type": "address"
        }
      ],
      "name": "Permit_InvalidSigner",
      "type": "error"
    },
    {
      "inputs": [],
      "name": "Recoverable_RateZero",
      "type": "error"
    },
    {
      "inputs": [
        {
          "internalType": "address",
          "name": "token",
          "type": "address"
        }
      ],
      "name": "SafeERC20FailedOperation",
      "type": "error"
    },
    {
      "anonymous": false,
      "inputs": [
        {
          "indexed": true,
          "internalType": "address",
          "name": "owner",
          "type": "address"
        },
        {
          "indexed": true,
          "internalType": "address",
          "name": "spender",
          "type": "address"
        },
        {
          "indexed": false,
          "internalType": "uint256",
          "name": "value",
          "type": "uint256"
        }
      ],
      "name": "Approval",
      "type": "event"
    },
    {
      "anonymous": false,
      "inputs": [
        {
          "indexed": false,
          "internalType": "address",
          "name": "oracle",
          "type": "address"
        }
      ],
      "name": "ChangeOracle",
      "type": "event"
    },
    {
      "anonymous": false,
      "inputs": [
        {
          "indexed": false,
          "internalType": "string",
          "name": "terms",
          "type": "string"
        }
      ],
      "name": "ChangeTerms",
      "type": "event"
    },
    {
      "anonymous": false,
      "inputs": [
        {
          "indexed": false,
          "internalType": "address",
          "name": "newContractAddress",
          "type": "address"
        },
        {
          "indexed": false,
          "internalType": "uint256",
          "name": "yesVotes",
          "type": "uint256"
        },
        {
          "indexed": false,
          "internalType": "uint256",
          "name": "oracleVotes",
          "type": "uint256"
        },
        {
          "indexed": false,
          "internalType": "uint256",
          "name": "totalVotingPower",
          "type": "uint256"
        }
      ],
      "name": "MigrationSucceeded",
      "type": "event"
    },
    {
      "anonymous": false,
      "inputs": [
        {
          "indexed": false,
          "internalType": "string",
          "name": "name",
          "type": "string"
        },
        {
          "indexed": false,
          "internalType": "string",
          "name": "symbol",
          "type": "string"
        }
      ],
      "name": "NameChanged",
      "type": "event"
    },
    {
      "anonymous": false,
      "inputs": [
        {
          "indexed": true,
          "internalType": "address",
          "name": "from",
          "type": "address"
        },
        {
          "indexed": true,
          "internalType": "address",
          "name": "to",
          "type": "address"
        },
        {
          "indexed": false,
          "internalType": "uint256",
          "name": "value",
          "type": "uint256"
        }
      ],
      "name": "Transfer",
      "type": "event"
    },
    {
      "inputs": [],
      "name": "DOMAIN_SEPARATOR",
      "outputs": [
        {
          "internalType": "bytes32",
          "name": "",
          "type": "bytes32"
        }
      ],
      "stateMutability": "view",
      "type": "function"
    },
    {
      "inputs": [],
      "name": "VERSION",
      "outputs": [
        {
          "internalType": "uint8",
          "name": "",
          "type": "uint8"
        }
      ],
      "stateMutability": "view",
      "type": "function"
    },
    {
      "inputs": [
        {
          "internalType": "address",
          "name": "owner",
          "type": "address"
        },
        {
          "internalType": "address",
          "name": "spender",
          "type": "address"
        }
      ],
      "name": "allowance",
      "outputs": [
        {
          "internalType": "uint256",
          "name": "",
          "type": "uint256"
        }
      ],
      "stateMutability": "view",
      "type": "function"
    },
    {
      "inputs": [
        {
          "internalType": "address",
          "name": "spender",
          "type": "address"
        },
        {
          "internalType": "uint256",
          "name": "value",
          "type": "uint256"
        }
      ],
      "name": "approve",
      "outputs": [
        {
          "internalType": "bool",
          "name": "",
          "type": "bool"
        }
      ],
      "stateMutability": "nonpayable",
      "type": "function"
    },
    {
      "inputs": [
        {
          "internalType": "address",
          "name": "account",
          "type": "address"
        }
      ],
      "name": "balanceOf",
      "outputs": [
        {
          "internalType": "uint256",
          "name": "",
          "type": "uint256"
        }
      ],
      "stateMutability": "view",
      "type": "function"
    },
    {
      "inputs": [
        {
          "internalType": "uint256",
          "name": "amount",
          "type": "uint256"
        }
      ],
      "name": "burn",
      "outputs": [],
      "stateMutability": "nonpayable",
      "type": "function"
    },
    {
      "inputs": [],
      "name": "claimPeriod",
      "outputs": [
        {
          "internalType": "uint256",
          "name": "",
          "type": "uint256"
        }
      ],
      "stateMutability": "pure",
      "type": "function"
    },
    {
      "inputs": [],
      "name": "customCollateralAddress",
      "outputs": [
        {
          "internalType": "contract IERC20",
          "name": "",
          "type": "address"
        }
      ],
      "stateMutability": "view",
      "type": "function"
    },
    {
      "inputs": [],
      "name": "customCollateralRate",
      "outputs": [
        {
          "internalType": "uint256",
          "name": "",
          "type": "uint256"
        }
      ],
      "stateMutability": "view",
      "type": "function"
    },
    {
      "inputs": [],
      "name": "decimals",
      "outputs": [
        {
          "internalType": "uint8",
          "name": "",
          "type": "uint8"
        }
      ],
      "stateMutability": "view",
      "type": "function"
    },
    {
      "inputs": [
        {
          "internalType": "address",
          "name": "lostAddress",
          "type": "address"
        }
      ],
      "name": "deleteClaim",
      "outputs": [],
      "stateMutability": "nonpayable",
      "type": "function"
    },
    {
      "inputs": [
        {
          "internalType": "address",
          "name": "buyer",
          "type": "address"
        },
        {
          "internalType": "contract IERC20",
          "name": "currency",
          "type": "address"
        }
      ],
      "name": "drag",
      "outputs": [],
      "stateMutability": "nonpayable",
      "type": "function"
    },
    {
      "inputs": [],
      "name": "factory",
      "outputs": [
        {
          "internalType": "contract IOfferFactory",
          "name": "",
          "type": "address"
        }
      ],
      "stateMutability": "view",
      "type": "function"
    },
    {
      "inputs": [],
      "name": "getClaimDeleter",
      "outputs": [
        {
          "internalType": "address",
          "name": "",
          "type": "address"
        }
      ],
      "stateMutability": "view",
      "type": "function"
    },
    {
      "inputs": [
        {
          "internalType": "contract IERC20",
          "name": "collateralType",
          "type": "address"
        }
      ],
      "name": "getCollateralRate",
      "outputs": [
        {
          "internalType": "uint256",
          "name": "",
          "type": "uint256"
        }
      ],
      "stateMutability": "view",
      "type": "function"
    },
    {
      "inputs": [
        {
          "internalType": "address",
          "name": "account",
          "type": "address"
        },
        {
          "internalType": "uint8",
          "name": "number",
          "type": "uint8"
        }
      ],
      "name": "hasFlag",
      "outputs": [
        {
          "internalType": "bool",
          "name": "",
          "type": "bool"
        }
      ],
      "stateMutability": "view",
      "type": "function"
    },
    {
      "inputs": [],
      "name": "isBinding",
      "outputs": [
        {
          "internalType": "bool",
          "name": "",
          "type": "bool"
        }
      ],
      "stateMutability": "view",
      "type": "function"
    },
    {
      "inputs": [
        {
          "internalType": "bytes32",
          "name": "salt",
          "type": "bytes32"
        },
        {
          "internalType": "uint256",
          "name": "pricePerShare",
          "type": "uint256"
        },
        {
          "internalType": "contract IERC20",
          "name": "currency",
          "type": "address"
        }
      ],
      "name": "makeAcquisitionOffer",
      "outputs": [],
      "stateMutability": "payable",
      "type": "function"
    },
    {
      "inputs": [],
      "name": "migrate",
      "outputs": [],
      "stateMutability": "nonpayable",
      "type": "function"
    },
    {
      "inputs": [
        {
          "internalType": "address",
          "name": "successor",
          "type": "address"
        },
        {
          "internalType": "uint256",
          "name": "additionalVotes",
          "type": "uint256"
        }
      ],
      "name": "migrateWithExternalApproval",
      "outputs": [],
      "stateMutability": "nonpayable",
      "type": "function"
    },
    {
      "inputs": [],
      "name": "name",
      "outputs": [
        {
          "internalType": "string",
          "name": "",
          "type": "string"
        }
      ],
      "stateMutability": "view",
      "type": "function"
    },
    {
      "inputs": [
        {
          "internalType": "address",
          "name": "",
          "type": "address"
        }
      ],
      "name": "nonces",
      "outputs": [
        {
          "internalType": "uint256",
          "name": "",
          "type": "uint256"
        }
      ],
      "stateMutability": "view",
      "type": "function"
    },
    {
      "inputs": [
        {
          "internalType": "address",
          "name": "target",
          "type": "address"
        }
      ],
      "name": "notifyClaimDeleted",
      "outputs": [],
      "stateMutability": "nonpayable",
      "type": "function"
    },
    {
      "inputs": [
        {
          "internalType": "address",
          "name": "target",
          "type": "address"
        }
      ],
      "name": "notifyClaimMade",
      "outputs": [],
      "stateMutability": "nonpayable",
      "type": "function"
    },
    {
      "inputs": [],
      "name": "notifyOfferEnded",
      "outputs": [],
      "stateMutability": "nonpayable",
      "type": "function"
    },
    {
      "inputs": [
        {
          "internalType": "address",
          "name": "voter",
          "type": "address"
        }
      ],
      "name": "notifyVoted",
      "outputs": [],
      "stateMutability": "nonpayable",
      "type": "function"
    },
    {
      "inputs": [],
      "name": "offer",
      "outputs": [
        {
          "internalType": "contract IOffer",
          "name": "",
          "type": "address"
        }
      ],
      "stateMutability": "view",
      "type": "function"
    },
    {
      "inputs": [
        {
          "internalType": "address",
          "name": "from",
          "type": "address"
        },
        {
          "internalType": "uint256",
          "name": "amount",
          "type": "uint256"
        },
        {
          "internalType": "bytes",
          "name": "",
          "type": "bytes"
        }
      ],
      "name": "onTokenTransfer",
      "outputs": [
        {
          "internalType": "bool",
          "name": "",
          "type": "bool"
        }
      ],
      "stateMutability": "nonpayable",
      "type": "function"
    },
    {
      "inputs": [],
      "name": "oracle",
      "outputs": [
        {
          "internalType": "address",
          "name": "",
          "type": "address"
        }
      ],
      "stateMutability": "view",
      "type": "function"
    },
    {
      "inputs": [
        {
          "internalType": "address",
          "name": "owner",
          "type": "address"
        },
        {
          "internalType": "address",
          "name": "spender",
          "type": "address"
        },
        {
          "internalType": "uint256",
          "name": "value",
          "type": "uint256"
        },
        {
          "internalType": "uint256",
          "name": "deadline",
          "type": "uint256"
        },
        {
          "internalType": "uint8",
          "name": "v",
          "type": "uint8"
        },
        {
          "internalType": "bytes32",
          "name": "r",
          "type": "bytes32"
        },
        {
          "internalType": "bytes32",
          "name": "s",
          "type": "bytes32"
        }
      ],
      "name": "permit",
      "outputs": [],
      "stateMutability": "nonpayable",
      "type": "function"
    },
    {
      "inputs": [],
      "name": "permit2Hub",
      "outputs": [
        {
          "internalType": "contract Permit2Hub",
          "name": "",
          "type": "address"
        }
      ],
      "stateMutability": "view",
      "type": "function"
    },
    {
      "inputs": [],
      "name": "quorum",
      "outputs": [
        {
          "internalType": "uint256",
          "name": "",
          "type": "uint256"
        }
      ],
      "stateMutability": "view",
      "type": "function"
    },
    {
      "inputs": [],
      "name": "quorumMigration",
      "outputs": [
        {
          "internalType": "uint256",
          "name": "",
          "type": "uint256"
        }
      ],
      "stateMutability": "view",
      "type": "function"
    },
    {
      "inputs": [
        {
          "internalType": "address",
          "name": "oldAddress",
          "type": "address"
        },
        {
          "internalType": "address",
          "name": "newAddress",
          "type": "address"
        }
      ],
      "name": "recover",
      "outputs": [],
      "stateMutability": "nonpayable",
      "type": "function"
    },
    {
      "inputs": [],
      "name": "recovery",
      "outputs": [
        {
          "internalType": "contract IRecoveryHub",
          "name": "",
          "type": "address"
        }
      ],
      "stateMutability": "view",
      "type": "function"
    },
    {
      "inputs": [
        {
          "internalType": "address",
          "name": "newOracle",
          "type": "address"
        }
      ],
      "name": "setOracle",
      "outputs": [],
      "stateMutability": "nonpayable",
      "type": "function"
    },
    {
      "inputs": [
        {
          "internalType": "string",
          "name": "_terms",
          "type": "string"
        }
      ],
      "name": "setTerms",
      "outputs": [],
      "stateMutability": "nonpayable",
      "type": "function"
    },
    {
      "inputs": [],
      "name": "symbol",
      "outputs": [
        {
          "internalType": "string",
          "name": "",
          "type": "string"
        }
      ],
      "stateMutability": "view",
      "type": "function"
    },
    {
      "inputs": [],
      "name": "terms",
      "outputs": [
        {
          "internalType": "string",
          "name": "",
          "type": "string"
        }
      ],
      "stateMutability": "view",
      "type": "function"
    },
    {
      "inputs": [],
      "name": "totalSupply",
      "outputs": [
        {
          "internalType": "uint256",
          "name": "",
          "type": "uint256"
        }
      ],
      "stateMutability": "view",
      "type": "function"
    },
    {
      "inputs": [],
      "name": "totalVotingTokens",
      "outputs": [
        {
          "internalType": "uint256",
          "name": "",
          "type": "uint256"
        }
      ],
      "stateMutability": "view",
      "type": "function"
    },
    {
      "inputs": [
        {
          "internalType": "address",
          "name": "to",
          "type": "address"
        },
        {
          "internalType": "uint256",
          "name": "value",
          "type": "uint256"
        }
      ],
      "name": "transfer",
      "outputs": [
        {
          "internalType": "bool",
          "name": "",
          "type": "bool"
        }
      ],
      "stateMutability": "nonpayable",
      "type": "function"
    },
    {
      "inputs": [
        {
          "internalType": "address",
          "name": "recipient",
          "type": "address"
        },
        {
          "internalType": "uint256",
          "name": "amount",
          "type": "uint256"
        },
        {
          "internalType": "bytes",
          "name": "data",
          "type": "bytes"
        }
      ],
      "name": "transferAndCall",
      "outputs": [
        {
          "internalType": "bool",
          "name": "",
          "type": "bool"
        }
      ],
      "stateMutability": "nonpayable",
      "type": "function"
    },
    {
      "inputs": [
        {
          "internalType": "address",
          "name": "sender",
          "type": "address"
        },
        {
          "internalType": "address",
          "name": "recipient",
          "type": "address"
        },
        {
          "internalType": "uint256",
          "name": "amount",
          "type": "uint256"
        }
      ],
      "name": "transferFrom",
      "outputs": [
        {
          "internalType": "bool",
          "name": "",
          "type": "bool"
        }
      ],
      "stateMutability": "nonpayable",
      "type": "function"
    },
    {
      "inputs": [
        {
          "internalType": "uint256",
          "name": "amount",
          "type": "uint256"
        }
      ],
      "name": "unwrap",
      "outputs": [],
      "stateMutability": "nonpayable",
      "type": "function"
    },
    {
      "inputs": [],
      "name": "unwrapConversionFactor",
      "outputs": [
        {
          "internalType": "uint256",
          "name": "",
          "type": "uint256"
        }
      ],
      "stateMutability": "view",
      "type": "function"
    },
    {
      "inputs": [],
      "name": "votePeriod",
      "outputs": [
        {
          "internalType": "uint256",
          "name": "",
          "type": "uint256"
        }
      ],
      "stateMutability": "view",
      "type": "function"
    },
    {
      "inputs": [
        {
          "internalType": "address",
          "name": "voter",
          "type": "address"
        }
      ],
      "name": "votingPower",
      "outputs": [
        {
          "internalType": "uint256",
          "name": "",
          "type": "uint256"
        }
      ],
      "stateMutability": "view",
      "type": "function"
    },
    {
      "inputs": [
        {
          "internalType": "address",
          "name": "shareholder",
          "type": "address"
        },
        {
          "internalType": "uint256",
          "name": "amount",
          "type": "uint256"
        }
      ],
      "name": "wrap",
      "outputs": [],
      "stateMutability": "nonpayable",
      "type": "function"
    },
    {
      "inputs": [],
      "name": "wrapped",
      "outputs": [
        {
          "internalType": "contract IERC20",
          "name": "",
          "type": "address"
        }
      ],
      "stateMutability": "view",
      "type": "function"
    }
  ],
  "transactionHash": "0x4699873ff39a5ef560e38df24a5c5b481aeb950266f1c2681b9d8cda7530397c",
  "args": [
    "aktien.photointernational.com",
    {
      "wrappedToken": "0xa1CB133f32D054433E0BCC73234363adcfFee23d",
      "quorumDrag": 6667,
      "quorumMigration": 6667,
      "votePeriod": 5184000
    },
    "0xaea2886cb865bab01fc43f3c3f51b27b720ae185",
    "0x339891af65dfc0ca929e5521978e07d162514f92",
    "0x161dffc7005Ef03B2e8C5fd390A6F5eCcc0F5F96",
    "0xc5e049019fd4c21de3685f60993fd41d3098dca5"
  ],
  "numDeployments": 1,
  "solcInputHash": "f203b3d28ef2595464a97252bfe4aea5",
  "bytecode": "0x610140604052600060045534801561001657600080fd5b50604051612f49380380612f49833981016040819052610035916101ec565b6003805486516001600160a81b03199091166101006001600160a01b03928316810291909117909255602087015160c052604087015160a052606087015160e052848116608052600680546001600160a01b031916858316179055858116909152811661012052600a6100a88782610377565b50604051636427ed9760e01b8152600060048201526001600160a01b03851690636427ed9790602401600060405180830381600087803b1580156100eb57600080fd5b505af11580156100ff573d6000803e3d6000fd5b50505050505050505050610436565b634e487b7160e01b600052604160045260246000fd5b604051601f8201601f191681016001600160401b038111828210171561014c5761014c61010e565b604052919050565b6001600160a01b038116811461016957600080fd5b50565b60006080828403121561017e57600080fd5b604051608081016001600160401b03811182821017156101a0576101a061010e565b806040525080915082516101b381610154565b808252506020830151602082015260408301516040820152606083015160608201525092915050565b80516101e781610154565b919050565b600080600080600080610120878903121561020657600080fd5b86516001600160401b038082111561021d57600080fd5b818901915089601f83011261023157600080fd5b8151818111156102435761024361010e565b60209150610259601f8201601f19168301610124565b8181528b8383860101111561026d57600080fd5b60005b8281101561028b578481018401518282018501528301610270565b50600083838301015280995050506102a58a828b0161016c565b965050506102b560a088016101dc565b93506102c360c088016101dc565b92506102d160e088016101dc565b91506102e061010088016101dc565b90509295509295509295565b600181811c9082168061030057607f821691505b60208210810361032057634e487b7160e01b600052602260045260246000fd5b50919050565b601f821115610372576000816000526020600020601f850160051c8101602086101561034f5750805b601f850160051c820191505b8181101561036e5782815560010161035b565b5050505b505050565b81516001600160401b038111156103905761039061010e565b6103a48161039e84546102ec565b84610326565b602080601f8311600181146103d957600084156103c15750858301515b600019600386901b1c1916600185901b17855561036e565b600085815260208120601f198616915b82811015610408578886015182559484019460019091019084016103e9565b50858210156104265787850151600019600388901b60f8161c191681555b5050505050600190811b01905550565b60805160a05160c05160e0516101005161012051612a776104d2600039600081816103f50152611bdc01526000818161086d01528181610bd801528181610dd3015281816110fe015281816115be0152611a430152600081816106fd015261141e0152600081816103ac01526113f80152600081816108e10152818161173401526117700152600081816107d101526114470152612a776000f3fe6080604052600436106102c95760003560e01c80637dc0d1d011610175578063c18172c4116100dc578063ddceafa911610095578063efa405121161006f578063efa40512146108cf578063f5c0b95f14610903578063fcb79a7e14610923578063ffa1ad741461094357600080fd5b8063ddceafa91461085b578063de0e9a3e1461088f578063e5b824ec146108af57600080fd5b8063c18172c41461079f578063c45a0155146107bf578063d5025625146107f3578063d505accf14610808578063dcc7d4ad14610828578063dd62ed3e1461083b57600080fd5b8063a4c0ed361161012e578063a4c0ed36146106cb578063a7813587146106eb578063a9059cbb1461071f578063bf376c7a1461073f578063c028df061461075f578063c07473f61461077f57600080fd5b80637dc0d1d0146106285780637dc2cd98146106485780637ecebe001461065e5780638fd3ab801461068b57806395d89b41146106a05780639e4b5745146106b557600080fd5b806332a7ae951161023457806350e70d48116101ed57806370a08231116101c757806370a08231146105a857806377e071ad146105c857806378f86afc146105e85780637adbf9731461060857600080fd5b806350e70d481461054d5780636091811714610572578063648bf7741461058857600080fd5b806332a7ae95146104a357806332bc320b146104c35780633644e515146104d85780634000aea0146104ed57806342966c681461050d57806345c8a62b1461052d57600080fd5b806318160ddd1161028657806318160ddd146103ce57806318efcce5146103e3578063198453541461041757806323b872dd146104395780632a0a4ed514610459578063313ce5671461047757600080fd5b806306fdde03146102ce5780630832e470146102f9578063095ea7b31461031d5780630a81b2de1461034d5780630c6f0e5d146103625780631703a0181461039a575b600080fd5b3480156102da57600080fd5b506102e3610958565b6040516102f091906122e8565b60405180910390f35b34801561030557600080fd5b5061030f60045481565b6040519081526020016102f0565b34801561032957600080fd5b5061033d610338366004612310565b610a1f565b60405190151581526020016102f0565b34801561035957600080fd5b5061030f610a36565b34801561036e57600080fd5b50600754610382906001600160a01b031681565b6040516001600160a01b0390911681526020016102f0565b3480156103a657600080fd5b5061030f7f000000000000000000000000000000000000000000000000000000000000000081565b3480156103da57600080fd5b5060025461030f565b3480156103ef57600080fd5b506103827f000000000000000000000000000000000000000000000000000000000000000081565b34801561042357600080fd5b50610437610432366004612310565b610ab4565b005b34801561044557600080fd5b5061033d61045436600461233c565b610b3c565b34801561046557600080fd5b506006546001600160a01b0316610382565b34801561048357600080fd5b506003546104919060ff1681565b60405160ff90911681526020016102f0565b3480156104af57600080fd5b506104376104be36600461237d565b610b9f565b3480156104cf57600080fd5b50610437610c38565b3480156104e457600080fd5b5061030f610c5f565b3480156104f957600080fd5b5061033d6105083660046123e3565b610cb8565b34801561051957600080fd5b5061043761052836600461243f565b610d49565b34801561053957600080fd5b5061043761054836600461237d565b610daa565b34801561055957600080fd5b506003546103829061010090046001600160a01b031681565b34801561057e57600080fd5b5061030f60085481565b34801561059457600080fd5b506104376105a3366004612458565b610dce565b3480156105b457600080fd5b5061030f6105c336600461237d565b610e0a565b3480156105d457600080fd5b5061030f6105e336600461237d565b610e2e565b3480156105f457600080fd5b50610437610603366004612491565b610f13565b34801561061457600080fd5b5061043761062336600461237d565b610f72565b34801561063457600080fd5b50600654610382906001600160a01b031681565b34801561065457600080fd5b5062ed4e0061030f565b34801561066a57600080fd5b5061030f61067936600461237d565b60096020526000908152604090205481565b34801561069757600080fd5b50610437610fdb565b3480156106ac57600080fd5b506102e3610fe8565b3480156106c157600080fd5b506004541561033d565b3480156106d757600080fd5b5061033d6106e63660046123e3565b611089565b3480156106f757600080fd5b5061030f7f000000000000000000000000000000000000000000000000000000000000000081565b34801561072b57600080fd5b5061033d61073a366004612310565b6110bb565b34801561074b57600080fd5b5061043761075a366004612310565b6110c7565b34801561076b57600080fd5b50600554610382906001600160a01b031681565b34801561078b57600080fd5b5061030f61079a36600461237d565b6110ee565b3480156107ab57600080fd5b506104376107ba36600461237d565b6110f9565b3480156107cb57600080fd5b506103827f000000000000000000000000000000000000000000000000000000000000000081565b3480156107ff57600080fd5b506102e361112f565b34801561081457600080fd5b506104376108233660046124e4565b6111bd565b610437610836366004612552565b611372565b34801561084757600080fd5b5061030f610856366004612458565b61154d565b34801561086757600080fd5b506103827f000000000000000000000000000000000000000000000000000000000000000081565b34801561089b57600080fd5b506104376108aa36600461243f565b611559565b3480156108bb57600080fd5b506104376108ca36600461237d565b6115b9565b3480156108db57600080fd5b5061030f7f000000000000000000000000000000000000000000000000000000000000000081565b34801561090f57600080fd5b5061033d61091e36600461258b565b6115ef565b34801561092f57600080fd5b5061043761093e366004612458565b6115fb565b34801561094f57600080fd5b50610491600381565b60606000600360019054906101000a90046001600160a01b03166001600160a01b03166306fdde036040518163ffffffff1660e01b8152600401600060405180830381865afa1580156109af573d6000803e3d6000fd5b505050506040513d6000823e601f3d908101601f191682016040526109d791908101906125d6565b90506109e36004541590565b15610a0e57806040516020016109f99190612683565b60405160208183030381529060405291505090565b806040516020016109f991906126ab565b6000610a2c33848461162e565b5060015b92915050565b6000600360019054906101000a90046001600160a01b03166001600160a01b0316633a98ef396040518163ffffffff1660e01b8152600401602060405180830381865afa158015610a8b573d6000803e3d6000fd5b505050506040513d601f19601f82011682018060405250810190610aaf91906126d9565b905090565b600654610ac9906001600160a01b0316611690565b610ad1610a36565b81610adb60025490565b610ae59190612708565b1115610b2e57610af3610a36565b81610afd60025490565b610b079190612708565b604051630429590f60e41b8152600481019290925260248201526044015b60405180910390fd5b610b3882826116bb565b5050565b6000610b49848484611824565b6000610b55853361154d565b9050600160ff1b811015610b9257610b6d838261271b565b6001600160a01b03861660009081526001602090815260408083203384529091529020555b60019150505b9392505050565b610bb9610bb46006546001600160a01b031690565b611690565b6040516332a7ae9560e01b81526001600160a01b0382811660048301527f000000000000000000000000000000000000000000000000000000000000000016906332a7ae95906024015b600060405180830381600087803b158015610c1d57600080fd5b505af1158015610c31573d6000803e3d6000fd5b5050505050565b600554610c4d906001600160a01b0316611690565b600580546001600160a01b0319169055565b604080517f47e79534a245952e8b16893a336b85a3d9ea9fa8c573f3d803afb92a794692186020820152469181019190915230606082015260009060800160405160208183030381529060405280519060200120905090565b6000610cc485856110bb565b8015610d405750604051635260769b60e11b81526001600160a01b0386169063a4c0ed3690610cfd90339088908890889060040161272e565b6020604051808303816000875af1158015610d1c573d6000803e3d6000fd5b505050506040513d601f19601f82011682018060405250810190610d409190612776565b95945050505050565b610d533382611888565b6003546001600160a01b03610100909104166342966c68610d746004541590565b610d8a57600454610d859084612798565b610d8c565b825b6040518263ffffffff1660e01b8152600401610c0391815260200190565b600554610dbf906001600160a01b0316611690565b610dcb816001806118fc565b50565b610df77f0000000000000000000000000000000000000000000000000000000000000000611690565b610b388282610e0585610e0a565b611824565b6001600160a01b03166000908152602081905260409020546001600160e01b031690565b600080610e3a83611960565b90508015610e485792915050565b6000610e546004541590565b610e6057600454610e63565b60015b6003549091506001600160a01b03610100909104811690851603610e88579392505050565b6003546040516377e071ad60e01b81526001600160a01b0386811660048301528392610100900416906377e071ad90602401602060405180830381865afa158015610ed7573d6000803e3d6000fd5b505050506040513d601f19601f82011682018060405250810190610efb91906126d9565b610f059190612798565b949350505050565b50919050565b600654610f28906001600160a01b0316611690565b600a610f35828483612833565b507fe9f2468ecc8d3dff15a70a5909151e6297cee4cf05268eff3d7ef0c696ec50f2600a604051610f6691906128f3565b60405180910390a15050565b600654610f87906001600160a01b0316611690565b600680546001600160a01b0319166001600160a01b0383169081179091556040519081527fc3977c9522c218453912bcab15964a7788968fbf3fe4d4e2965252c9f07055de9060200160405180910390a150565b610fe63360006116bb565b565b6060600360019054906101000a90046001600160a01b03166001600160a01b03166395d89b416040518163ffffffff1660e01b8152600401600060405180830381865afa15801561103d573d6000803e3d6000fd5b505050506040513d6000823e601f3d908101601f1916820160405261106591908101906125d6565b6040516020016110759190612983565b604051602081830303815290604052905090565b6003546000906110a69061010090046001600160a01b0316611690565b6110b085856119a5565b506001949350505050565b6000610b988383611a11565b6003546110e49061010090046001600160a01b0316333084611ab0565b610b3882826119a5565b6000610a3082610e0a565b6111227f0000000000000000000000000000000000000000000000000000000000000000611690565b610dcb81600a60016118fc565b600a805461113c906127af565b80601f0160208091040260200160405190810160405280929190818152602001828054611168906127af565b80156111b55780601f1061118a576101008083540402835291602001916111b5565b820191906000526020600020905b81548152906001019060200180831161119857829003601f168201915b505050505081565b428410156111e757604051630b99fc4b60e31b815260048101859052426024820152604401610b25565b600060016111f3610c5f565b6001600160a01b038a811660008181526009602090815260409182902080546001810190915582517f6e71edae12b1b97f4d1f60370fef10105fa2faae0126114a169c64845d6126c98184015280840194909452938d166060840152608083018c905260a083019390935260c08083018b90528151808403909101815260e08301909152805192019190912061190160f01b6101008301526101028201929092526101228101919091526101420160408051601f198184030181528282528051602091820120600084529083018083525260ff871690820152606081018590526080810184905260a0016020604051602081039080840390855afa1580156112ff573d6000803e3d6000fd5b5050604051601f1901519150506001600160a01b03811615806113345750876001600160a01b0316816001600160a01b031614155b1561135d57604051632f52260d60e11b81526001600160a01b0382166004820152602401610b25565b61136881888861162e565b5050505050505050565b600161137e6004541590565b1515811515146113c55780156113a7576040516305a34cd360e01b815260040160405180910390fd5b806113c55760405163291c3d8560e01b815260040160405180910390fd5b604051634dc5e43160e01b815260048101859052336024820152604481018490526001600160a01b0383811660648301527f000000000000000000000000000000000000000000000000000000000000000060848301527f000000000000000000000000000000000000000000000000000000000000000060a48301526000917f000000000000000000000000000000000000000000000000000000000000000090911690634dc5e43190349060c40160206040518083038185885af1158015611493573d6000803e3d6000fd5b50505050506040513d601f19601f820116820180604052508101906114b891906129a8565b90506114c2611b1d565b1561152757600554604051637b64620f60e11b81526001600160a01b0383811660048301529091169063f6c8c41e90602401600060405180830381600087803b15801561150e57600080fd5b505af1158015611522573d6000803e3d6000fd5b505050505b600580546001600160a01b0319166001600160a01b039290921691909117905550505050565b6000610b988383611bb2565b60006115656004541590565b1515811515146115ac57801561158e576040516305a34cd360e01b815260040160405180910390fd5b806115ac5760405163291c3d8560e01b815260040160405180910390fd5b610b383383600454611c83565b6115e27f0000000000000000000000000000000000000000000000000000000000000000611690565b610dcb81600a60006118fc565b6000610b988383611cb8565b600554611610906001600160a01b0316611690565b6116248261161d84610e0a565b6001611c83565b610b388183611cf8565b6001600160a01b0383811660008181526001602090815260408083209487168084529482529182902085905590518481527f8c5be1e5ebec7d5bd14f71427d1e84f3dd0314c0f7b2291e5b200ac8c7c3b92591015b60405180910390a3505050565b336001600160a01b03821614610dcb57604051634b637e8f60e11b8152336004820152602401610b25565b60006116c683610e0a565b6116d09083612708565b905060006116dc610a36565b90508082111561170957604051630429590f60e41b81526004810182905260248101839052604401610b25565b611711611b1d565b1561172f576040516331dec02560e21b815260040160405180910390fd5b6117597f000000000000000000000000000000000000000000000000000000000000000082612798565b61176561271084612798565b10156117c3576117957f000000000000000000000000000000000000000000000000000000000000000082612798565b6117a161271084612798565b604051634b2737cf60e11b815260048101929092526024820152604401610b25565b6117cd8485611cf8565b604080516001600160a01b038616815260208101849052908101849052606081018290527f85e5711a70a7d2bae18e1232af474d82c98600b0e62fe079a28208520b58568e9060800160405180910390a150505050565b61182f838383611ebb565b6118398382611ec6565b6118438282611f63565b816001600160a01b0316836001600160a01b03167fddf252ad1be2c89b69c2b068fc378daa952ba7f163c4a11628f55a4df523b3ef8360405161168391815260200190565b61189482600083611ebb565b80600260008282546118a6919061271b565b909155506118b690508282611ec6565b6040518181526000906001600160a01b038416907fddf252ad1be2c89b69c2b068fc378daa952ba7f163c4a11628f55a4df523b3ef906020015b60405180910390a35050565b60006119098360e06129c5565b6001600160a01b038516600090815260208190526040902054600160ff929092169190911b9150808216821483151514610c31576001600160a01b0394909416600090815260208190526040902093189092555050565b6000306001600160a01b0383160361197a57506001919050565b6007546001600160a01b039081169083160361199857505060085490565b506000919050565b919050565b6119b160008383611ebb565b80600260008282546119c39190612708565b909155506119d390508282611f63565b6040518181526001600160a01b038316906000907fddf252ad1be2c89b69c2b068fc378daa952ba7f163c4a11628f55a4df523b3ef906020016118f0565b6000611a1d8383612008565b50611a2933600a611cb8565b15610a2c576040516304d301a360e41b81523360048201527f00000000000000000000000000000000000000000000000000000000000000006001600160a01b031690634d301a3090602401600060405180830381600087803b158015611a8f57600080fd5b505af1158015611aa3573d6000803e3d6000fd5b5050505050600192915050565b6040516001600160a01b038481166024830152838116604483015260648201839052611b179186918216906323b872dd906084015b604051602081830303815290604052915060e01b6020820180516001600160e01b038381831617835250505050612015565b50505050565b6005546000906001600160a01b031615801590610aaf5750600560009054906101000a90046001600160a01b03166001600160a01b0316638fe8a1016040518163ffffffff1660e01b8152600401602060405180830381865afa158015611b88573d6000803e3d6000fd5b505050506040513d601f19601f82011682018060405250810190611bac9190612776565b15905090565b604051632fb6b53160e11b81526001600160a01b03838116600483015282811660248301526000917f000000000000000000000000000000000000000000000000000000000000000090911690635f6d6a6290604401602060405180830381865afa158015611c25573d6000803e3d6000fd5b505050506040513d601f19601f82011682018060405250810190611c499190612776565b15611c575750600019610a30565b506001600160a01b03828116600090815260016020908152604080832093851683529290522054610a30565b611c8d8383611888565b611cb383611c9b8385612798565b60035461010090046001600160a01b03169190612078565b505050565b600080611cc68360e06129c5565b6001600160a01b038516600090815260208190526040902054600160ff929092169190911b9081161491505092915050565b6001611d046004541590565b151581151514611d4b578015611d2d576040516305a34cd360e01b815260040160405180910390fd5b80611d4b5760405163291c3d8560e01b815260040160405180910390fd5b6003546040516370a0823160e01b8152306004820152611dc19184916101009091046001600160a01b0316906370a0823190602401602060405180830381865afa158015611d9d573d6000803e3d6000fd5b505050506040513d601f19601f82011682018060405250810190611c9b91906126d9565b60038054610100600160a81b0319166101006001600160a01b0386160217905560025460001015611e6f57611e6f611df860025490565b6040516370a0823160e01b81523060048201526001600160a01b038616906370a0823190602401602060405180830381865afa158015611e3c573d6000803e3d6000fd5b505050506040513d601f19601f82011682018060405250810190611e6091906126d9565b611e6a91906129de565b6120a9565b7f6c20b91d1723b78732eba64ff11ebd7966a6e4af568a00fa4f6b72c20f58b02a611e98610958565b611ea0610fe8565b604051611eae929190612a00565b60405180910390a1505050565b611cb38383836120cf565b6001600160a01b03821660009081526020819052604081205490611eea838361271b565b90506001600160e01b031981166001600160e01b0319831614611f425783611f1185610e0a565b60405163391434e360e21b81526001600160a01b039092166004830152602482015260448101849052606401610b25565b6001600160a01b039093166000908152602081905260409020929092555050565b6001600160a01b038216611f955760405163ec442f0560e01b81526001600160a01b0383166004820152602401610b25565b6001600160a01b03821660009081526020819052604081205490611fb98383612708565b90506001600160e01b031981166001600160e01b0319831614611f4257604051634a2e08e560e01b81526001600160a01b03851660048201526024810183905260448101849052606401610b25565b6000610a2c338484611824565b600061202a6001600160a01b03841683612186565b9050805160001415801561204f57508080602001905181019061204d9190612776565b155b15611cb357604051635274afe760e01b81526001600160a01b0384166004820152602401610b25565b6040516001600160a01b03838116602483015260448201839052611cb391859182169063a9059cbb90606401611ae5565b806000036120ca57604051631dca7a7560e11b815260040160405180910390fd5b600455565b6120d883612194565b806120e757506120e782612194565b15611cb3576120f4611b1d565b1561216c5760055460405163e1a1810f60e01b81526001600160a01b0385811660048301528481166024830152604482018490529091169063e1a1810f90606401600060405180830381600087803b15801561214f57600080fd5b505af1158015612163573d6000803e3d6000fd5b50505050505050565b61217983600160006118fc565b611cb382600160006118fc565b6060610b98838360006121a1565b6000610a30826001611cb8565b606082516000141580156121bd57506001600160a01b0384163b155b156121e657604051639eb1341360e01b81526001600160a01b0385166004820152602401610b25565b600080856001600160a01b031684866040516122029190612a25565b60006040518083038185875af1925050503d806000811461223f576040519150601f19603f3d011682016040523d82523d6000602084013e612244565b606091505b50915091508115612258579150610b989050565b80511561226757805160208201fd5b60405162461bcd60e51b815260206004820152600660248201526519985a5b195960d21b6044820152606401610b25565b60005b838110156122b357818101518382015260200161229b565b50506000910152565b600081518084526122d4816020860160208601612298565b601f01601f19169290920160200192915050565b602081526000610b9860208301846122bc565b6001600160a01b0381168114610dcb57600080fd5b6000806040838503121561232357600080fd5b823561232e816122fb565b946020939093013593505050565b60008060006060848603121561235157600080fd5b833561235c816122fb565b9250602084013561236c816122fb565b929592945050506040919091013590565b60006020828403121561238f57600080fd5b8135610b98816122fb565b60008083601f8401126123ac57600080fd5b50813567ffffffffffffffff8111156123c457600080fd5b6020830191508360208285010111156123dc57600080fd5b9250929050565b600080600080606085870312156123f957600080fd5b8435612404816122fb565b935060208501359250604085013567ffffffffffffffff81111561242757600080fd5b6124338782880161239a565b95989497509550505050565b60006020828403121561245157600080fd5b5035919050565b6000806040838503121561246b57600080fd5b8235612476816122fb565b91506020830135612486816122fb565b809150509250929050565b600080602083850312156124a457600080fd5b823567ffffffffffffffff8111156124bb57600080fd5b6124c78582860161239a565b90969095509350505050565b803560ff811681146119a057600080fd5b600080600080600080600060e0888a0312156124ff57600080fd5b873561250a816122fb565b9650602088013561251a816122fb565b95506040880135945060608801359350612536608089016124d3565b925060a0880135915060c0880135905092959891949750929550565b60008060006060848603121561256757600080fd5b83359250602084013591506040840135612580816122fb565b809150509250925092565b6000806040838503121561259e57600080fd5b82356125a9816122fb565b91506125b7602084016124d3565b90509250929050565b634e487b7160e01b600052604160045260246000fd5b6000602082840312156125e857600080fd5b815167ffffffffffffffff8082111561260057600080fd5b818401915084601f83011261261457600080fd5b815181811115612626576126266125c0565b604051601f8201601f19908116603f0116810190838211818310171561264e5761264e6125c0565b8160405282815287602084870101111561266757600080fd5b612678836020830160208801612298565b979650505050505050565b60008251612695818460208701612298565b632053484160e01b920191825250600401919050565b600082516126bd818460208701612298565b692028577261707065642960b01b920191825250600a01919050565b6000602082840312156126eb57600080fd5b5051919050565b634e487b7160e01b600052601160045260246000fd5b80820180821115610a3057610a306126f2565b81810381811115610a3057610a306126f2565b6001600160a01b0385168152602081018490526060604082018190528101829052818360808301376000818301608090810191909152601f909201601f191601019392505050565b60006020828403121561278857600080fd5b81518015158114610b9857600080fd5b8082028115828204841417610a3057610a306126f2565b600181811c908216806127c357607f821691505b602082108103610f0d57634e487b7160e01b600052602260045260246000fd5b601f821115611cb3576000816000526020600020601f850160051c8101602086101561280c5750805b601f850160051c820191505b8181101561282b57828155600101612818565b505050505050565b67ffffffffffffffff83111561284b5761284b6125c0565b61285f8361285983546127af565b836127e3565b6000601f841160018114612893576000851561287b5750838201355b600019600387901b1c1916600186901b178355610c31565b600083815260209020601f19861690835b828110156128c457868501358255602094850194600190920191016128a4565b50868210156128e15760001960f88860031b161c19848701351681555b505060018560011b0183555050505050565b6000602080835260008454612907816127af565b8060208701526040600180841660008114612929576001811461294557612975565b60ff19851660408a0152604084151560051b8a01019550612975565b89600052602060002060005b8581101561296c5781548b8201860152908301908801612951565b8a016040019650505b509398975050505050505050565b60008251612995818460208701612298565b605360f81b920191825250600101919050565b6000602082840312156129ba57600080fd5b8151610b98816122fb565b60ff8181168382160190811115610a3057610a306126f2565b6000826129fb57634e487b7160e01b600052601260045260246000fd5b500490565b604081526000612a1360408301856122bc565b8281036020840152610d4081856122bc565b60008251612a37818460208701612298565b919091019291505056fea26469706673582212205773848da731617132592685253616952f1e4c94479c7f92400be4798657177164736f6c63430008190033",
  "devdoc": {
    "author": "Luzius Meisser, luzius@aktionariat.com This is an ERC-20 token representing share tokens of CompanyName AG that are bound to a shareholder agreement that can be found at the URL defined in the constant 'terms'.",
    "errors": {
      "Address_NotTransferNorContract(address)": [
        {
          "params": {
            "target": "Target address to call the function on."
          }
        }
      ],
      "Draggable_QuorumNotReached(uint256,uint256)": [
        {
          "params": {
            "actual": "The current yes votes.",
            "needed": "The needed quorum."
          }
        }
      ],
      "Draggable_TooManyVotes(uint256,uint256)": [
        {
          "params": {
            "maxVotes": "The max voting tokens.",
            "reportedVotes": "The actual reported votes."
          }
        }
      ],
      "ERC20BalanceOverflow(address,uint256,uint256)": [
        {
          "params": {
            "amount": "The amount added, which result in the overflow. ",
            "balance": "The current balance of the receiver. ",
            "receiver": "The address were the balance overflows. "
          }
        }
      ],
      "Permit_DeadlineExpired(uint256,uint256)": [
        {
          "params": {
            "blockTimestamp": "The timestamp of the execution block.",
            "deadline": "The deadline of the permit."
          }
        }
      ],
      "Permit_InvalidSigner(address)": [
        {
          "params": {
            "signerAddress": "The recovered signer address."
          }
        }
      ],
      "SafeERC20FailedOperation(address)": [
        {
          "details": "An operation with an ERC20 token failed."
        }
      ]
    },
    "events": {
      "Approval(address,address,uint256)": {
        "details": "Emitted when the allowance of a `spender` for an `owner` is set by a call to `approve`. `value` is the new allowance."
      },
      "Transfer(address,address,uint256)": {
        "details": "Emitted when `value` tokens are moved from one account (`from`) to another (`to`). Note that `value` may be zero."
      }
    },
    "kind": "dev",
    "methods": {
      "DOMAIN_SEPARATOR()": {
        "details": "Returns the domain separator used in the encoding of the signature for {permit}, as defined by {EIP712}."
      },
      "approve(address,uint256)": {
        "details": "See `IERC20.approve`. Requirements: - `spender` cannot be the zero address."
      },
      "balanceOf(address)": {
        "details": "See `IERC20.balanceOf`."
      },
      "permit(address,address,uint256,uint256,uint8,bytes32,bytes32)": {
        "details": "Sets `value` as the allowance of `spender` over ``owner``'s tokens, given ``owner``'s signed approval. IMPORTANT: The same issues {IERC20-approve} has related to transaction ordering also apply here. Emits an {Approval} event. Requirements: - `spender` cannot be the zero address. - `deadline` must be a timestamp in the future. - `v`, `r` and `s` must be a valid `secp256k1` signature from `owner` over the EIP712-formatted function arguments. - the signature must use ``owner``'s current nonce (see {nonces}). For more information on the signature format, see the https://eips.ethereum.org/EIPS/eip-2612#specification[relevant EIP section]."
      },
      "setTerms(string)": {
        "params": {
          "_terms": "The new terms."
        }
      },
      "totalSupply()": {
        "details": "See `IERC20.totalSupply`."
      },
      "transferFrom(address,address,uint256)": {
        "details": "See `IERC20.transferFrom`. Emits an `Approval` event indicating the updated allowance. This is not required by the EIP. See the note at the beginning of `ERC20`; Requirements: - `sender` and `recipient` cannot be the zero address. - `sender` must have a balance of at least `value`. - the caller must have allowance for `sender`'s tokens of at least `amount`."
      }
    },
    "title": "CompanyName AG Shares SHA",
    "version": 1
  },
  "userdoc": {
    "errors": {
      "Draggable_FactorZero()": [
        {
          "notice": "conversion factor can't be 0 if binding gets deactivated."
        }
      ],
      "Draggable_IsBinding()": [
        {
          "notice": "conversion factor has to be = 0 for this transaction."
        }
      ],
      "Draggable_NotBinding()": [
        {
          "notice": "conversion factor has to be > 0 for this transaction."
        }
      ],
      "Draggable_OpenOffer()": [
        {
          "notice": "there is still an open offer that has to be canceled first"
        }
      ],
      "Draggable_QuorumNotReached(uint256,uint256)": [
        {
          "notice": "For migration the quorum needs to be reached."
        }
      ],
      "Draggable_TooManyVotes(uint256,uint256)": [
        {
          "notice": "the reported votes can't be > max voting tokens."
        }
      ],
      "ERC20BalanceOverflow(address,uint256,uint256)": [
        {
          "notice": "Overflow on minting, transfer. "
        }
      ],
      "Permit_DeadlineExpired(uint256,uint256)": [
        {
          "notice": "Block timestamp must to be before deadline."
        }
      ],
      "Permit_InvalidSigner(address)": [
        {
          "notice": "Recovered address must be owner and not zero address."
        }
      ],
      "Recoverable_RateZero()": [
        {
          "notice": "The new custom claim collateral rate has to be always > 0. "
        }
      ]
    },
    "events": {
      "ChangeTerms(string)": {
        "notice": "Event when the terms are changed with setTerms()."
      }
    },
    "kind": "user",
    "methods": {
      "burn(uint256)": {
        "notice": "Burns both the token itself as well as the wrapped token! If you want to get out of the shareholder agreement, use unwrap after it has been deactivated by a majority vote or acquisition. Burning only works if wrapped token supports burning. Also, the exact meaning of this operation might depend on the circumstances. Burning and reussing the wrapped token does not free the sender from the legal obligations of the shareholder agreement."
      },
      "getClaimDeleter()": {
        "notice": "Let the oracle act as deleter of invalid claims. In earlier versions, this was referring to the claim deleter of the wrapped token. But that stops working after a successful acquisition as the acquisition currency most likely does not have a claim deleter."
      },
      "getCollateralRate(address)": {
        "notice": "Returns the collateral rate for the given collateral type and 0 if that type of collateral is not accepted. By default, only the token itself is accepted at a rate of 1:1. Subclasses should override this method if they want to add additional types of collateral."
      },
      "isBinding()": {
        "notice": "Indicates that the token holders are bound to the token terms and that: - Conversion back to the wrapped token (unwrap) is not allowed - A drag-along can be performed by making an according offer - They can be migrated to a new version of this contract in accordance with the terms"
      },
      "name()": {
        "notice": "Current recommended naming convention is to add the postfix \"SHA\" to the plain shares in order to indicate that this token represents shares bound to a shareholder agreement."
      },
      "setTerms(string)": {
        "notice": "This function allows the oracle to set the terms."
      },
      "unwrap(uint256)": {
        "notice": "Decrease the number of drag-along tokens. The user gets back their shares in return "
      },
      "wrap(address,uint256)": {
        "notice": "Wraps additional tokens, thereby creating more ERC20Draggable tokens. "
      }
    },
    "version": 1
  },
  "storageLayout": {
    "storage": [
      {
        "astId": 469,
        "contract": "src/shares/DraggableShares.sol:DraggableShares",
        "label": "_balances",
        "offset": 0,
        "slot": "0",
        "type": "t_mapping(t_address,t_uint256)"
      },
      {
        "astId": 475,
        "contract": "src/shares/DraggableShares.sol:DraggableShares",
        "label": "_allowances",
        "offset": 0,
        "slot": "1",
        "type": "t_mapping(t_address,t_mapping(t_address,t_uint256))"
      },
      {
        "astId": 477,
        "contract": "src/shares/DraggableShares.sol:DraggableShares",
        "label": "_totalSupply",
        "offset": 0,
        "slot": "2",
        "type": "t_uint256"
      },
      {
        "astId": 480,
        "contract": "src/shares/DraggableShares.sol:DraggableShares",
        "label": "decimals",
        "offset": 0,
        "slot": "3",
        "type": "t_uint8"
      },
      {
        "astId": 5723,
        "contract": "src/shares/DraggableShares.sol:DraggableShares",
        "label": "wrapped",
        "offset": 1,
        "slot": "3",
        "type": "t_contract(IERC20)1352"
      },
      {
        "astId": 5729,
        "contract": "src/shares/DraggableShares.sol:DraggableShares",
        "label": "unwrapConversionFactor",
        "offset": 0,
        "slot": "4",
        "type": "t_uint256"
      },
      {
        "astId": 5733,
        "contract": "src/shares/DraggableShares.sol:DraggableShares",
        "label": "offer",
        "offset": 0,
        "slot": "5",
        "type": "t_contract(IOffer)6662"
      },
      {
        "astId": 5745,
        "contract": "src/shares/DraggableShares.sol:DraggableShares",
        "label": "oracle",
        "offset": 0,
        "slot": "6",
        "type": "t_address"
      },
      {
        "astId": 10167,
        "contract": "src/shares/DraggableShares.sol:DraggableShares",
        "label": "customCollateralAddress",
        "offset": 0,
        "slot": "7",
        "type": "t_contract(IERC20)1352"
      },
      {
        "astId": 10169,
        "contract": "src/shares/DraggableShares.sol:DraggableShares",
        "label": "customCollateralRate",
        "offset": 0,
        "slot": "8",
        "type": "t_uint256"
      },
      {
        "astId": 1148,
        "contract": "src/shares/DraggableShares.sol:DraggableShares",
        "label": "nonces",
        "offset": 0,
        "slot": "9",
        "type": "t_mapping(t_address,t_uint256)"
      },
      {
        "astId": 11334,
        "contract": "src/shares/DraggableShares.sol:DraggableShares",
        "label": "terms",
        "offset": 0,
        "slot": "10",
        "type": "t_string_storage"
      }
    ],
    "types": {
      "t_address": {
        "encoding": "inplace",
        "label": "address",
        "numberOfBytes": "20"
      },
      "t_contract(IERC20)1352": {
        "encoding": "inplace",
        "label": "contract IERC20",
        "numberOfBytes": "20"
      },
      "t_contract(IOffer)6662": {
        "encoding": "inplace",
        "label": "contract IOffer",
        "numberOfBytes": "20"
      },
      "t_mapping(t_address,t_mapping(t_address,t_uint256))": {
        "encoding": "mapping",
        "key": "t_address",
        "label": "mapping(address => mapping(address => uint256))",
        "numberOfBytes": "32",
        "value": "t_mapping(t_address,t_uint256)"
      },
      "t_mapping(t_address,t_uint256)": {
        "encoding": "mapping",
        "key": "t_address",
        "label": "mapping(address => uint256)",
        "numberOfBytes": "32",
        "value": "t_uint256"
      },
      "t_string_storage": {
        "encoding": "bytes",
        "label": "string",
        "numberOfBytes": "32"
      },
      "t_uint256": {
        "encoding": "inplace",
        "label": "uint256",
        "numberOfBytes": "32"
      },
      "t_uint8": {
        "encoding": "inplace",
        "label": "uint8",
        "numberOfBytes": "1"
      }
    }
  }
}