{
  "address": "0x7b6811a82B03eE0308885854D5Fb3B139B4f02c1",
  "abi": [
    {
      "inputs": [
        {
          "internalType": "string",
          "name": "_symbol",
          "type": "string"
        },
        {
          "internalType": "string",
          "name": "_name",
          "type": "string"
        },
        {
          "internalType": "string",
          "name": "_terms",
          "type": "string"
        },
        {
          "internalType": "uint256",
          "name": "_totalShares",
          "type": "uint256"
        },
        {
          "internalType": "address",
          "name": "_owner",
          "type": "address"
        },
        {
          "internalType": "contract IRecoveryHub",
          "name": "_recoveryHub",
          "type": "address"
        },
        {
          "internalType": "contract Permit2Hub",
          "name": "_permit2Hub",
          "type": "address"
        }
      ],
      "stateMutability": "nonpayable",
      "type": "constructor"
    },
    {
      "inputs": [
        {
          "internalType": "address",
          "name": "receiver",
          "type": "address"
        },
        {
          "internalType": "uint256",
          "name": "balance",
          "type": "uint256"
        },
        {
          "internalType": "uint256",
          "name": "amount",
          "type": "uint256"
        }
      ],
      "name": "ERC20BalanceOverflow",
      "type": "error"
    },
    {
      "inputs": [
        {
          "internalType": "address",
          "name": "spender",
          "type": "address"
        },
        {
          "internalType": "uint256",
          "name": "allowance",
          "type": "uint256"
        },
        {
          "internalType": "uint256",
          "name": "needed",
          "type": "uint256"
        }
      ],
      "name": "ERC20InsufficientAllowance",
      "type": "error"
    },
    {
      "inputs": [
        {
          "internalType": "address",
          "name": "sender",
          "type": "address"
        },
        {
          "internalType": "uint256",
          "name": "balance",
          "type": "uint256"
        },
        {
          "internalType": "uint256",
          "name": "needed",
          "type": "uint256"
        }
      ],
      "name": "ERC20InsufficientBalance",
      "type": "error"
    },
    {
      "inputs": [
        {
          "internalType": "address",
          "name": "approver",
          "type": "address"
        }
      ],
      "name": "ERC20InvalidApprover",
      "type": "error"
    },
    {
      "inputs": [
        {
          "internalType": "address",
          "name": "receiver",
          "type": "address"
        }
      ],
      "name": "ERC20InvalidReceiver",
      "type": "error"
    },
    {
      "inputs": [
        {
          "internalType": "address",
          "name": "sender",
          "type": "address"
        }
      ],
      "name": "ERC20InvalidSender",
      "type": "error"
    },
    {
      "inputs": [
        {
          "internalType": "address",
          "name": "spender",
          "type": "address"
        }
      ],
      "name": "ERC20InvalidSpender",
      "type": "error"
    },
    {
      "inputs": [],
      "name": "IERC677_OnTokenTransferFailed",
      "type": "error"
    },
    {
      "inputs": [
        {
          "internalType": "address",
          "name": "sender",
          "type": "address"
        }
      ],
      "name": "Ownable_NotOwner",
      "type": "error"
    },
    {
      "inputs": [
        {
          "internalType": "uint256",
          "name": "deadline",
          "type": "uint256"
        },
        {
          "internalType": "uint256",
          "name": "blockTimestamp",
          "type": "uint256"
        }
      ],
      "name": "Permit_DeadlineExpired",
      "type": "error"
    },
    {
      "inputs": [
        {
          "internalType": "address",
          "name": "signerAddress",
          "type": "address"
        }
      ],
      "name": "Permit_InvalidSigner",
      "type": "error"
    },
    {
      "inputs": [],
      "name": "Recoverable_RateZero",
      "type": "error"
    },
    {
      "inputs": [
        {
          "internalType": "uint256",
          "name": "totalShares",
          "type": "uint256"
        },
        {
          "internalType": "uint256",
          "name": "needed",
          "type": "uint256"
        }
      ],
      "name": "Shares_InsufficientTotalShares",
      "type": "error"
    },
    {
      "inputs": [
        {
          "internalType": "uint256",
          "name": "totalSupply",
          "type": "uint256"
        },
        {
          "internalType": "uint256",
          "name": "newTotalShares",
          "type": "uint256"
        }
      ],
      "name": "Shares_InvalidTotalShares",
      "type": "error"
    },
    {
      "inputs": [
        {
          "internalType": "uint256",
          "name": "targets",
          "type": "uint256"
        },
        {
          "internalType": "uint256",
          "name": "amount",
          "type": "uint256"
        }
      ],
      "name": "Shares_UnequalLength",
      "type": "error"
    },
    {
      "anonymous": false,
      "inputs": [
        {
          "indexed": false,
          "internalType": "string",
          "name": "message",
          "type": "string"
        }
      ],
      "name": "Announcement",
      "type": "event"
    },
    {
      "anonymous": false,
      "inputs": [
        {
          "indexed": true,
          "internalType": "address",
          "name": "owner",
          "type": "address"
        },
        {
          "indexed": true,
          "internalType": "address",
          "name": "spender",
          "type": "address"
        },
        {
          "indexed": false,
          "internalType": "uint256",
          "name": "value",
          "type": "uint256"
        }
      ],
      "name": "Approval",
      "type": "event"
    },
    {
      "anonymous": false,
      "inputs": [
        {
          "indexed": false,
          "internalType": "string",
          "name": "terms",
          "type": "string"
        }
      ],
      "name": "ChangeTerms",
      "type": "event"
    },
    {
      "anonymous": false,
      "inputs": [
        {
          "indexed": false,
          "internalType": "uint256",
          "name": "total",
          "type": "uint256"
        }
      ],
      "name": "ChangeTotalShares",
      "type": "event"
    },
    {
      "anonymous": false,
      "inputs": [
        {
          "indexed": false,
          "internalType": "string",
          "name": "name",
          "type": "string"
        },
        {
          "indexed": false,
          "internalType": "string",
          "name": "symbol",
          "type": "string"
        }
      ],
      "name": "NameChanged",
      "type": "event"
    },
    {
      "anonymous": false,
      "inputs": [
        {
          "indexed": true,
          "internalType": "address",
          "name": "previousOwner",
          "type": "address"
        },
        {
          "indexed": true,
          "internalType": "address",
          "name": "newOwner",
          "type": "address"
        }
      ],
      "name": "OwnershipTransferred",
      "type": "event"
    },
    {
      "anonymous": false,
      "inputs": [
        {
          "indexed": true,
          "internalType": "address",
          "name": "holder",
          "type": "address"
        },
        {
          "indexed": false,
          "internalType": "uint256",
          "name": "amount",
          "type": "uint256"
        },
        {
          "indexed": false,
          "internalType": "string",
          "name": "message",
          "type": "string"
        }
      ],
      "name": "TokensDeclaredInvalid",
      "type": "event"
    },
    {
      "anonymous": false,
      "inputs": [
        {
          "indexed": true,
          "internalType": "address",
          "name": "from",
          "type": "address"
        },
        {
          "indexed": true,
          "internalType": "address",
          "name": "to",
          "type": "address"
        },
        {
          "indexed": false,
          "internalType": "uint256",
          "name": "value",
          "type": "uint256"
        }
      ],
      "name": "Transfer",
      "type": "event"
    },
    {
      "inputs": [],
      "name": "DOMAIN_SEPARATOR",
      "outputs": [
        {
          "internalType": "bytes32",
          "name": "",
          "type": "bytes32"
        }
      ],
      "stateMutability": "view",
      "type": "function"
    },
    {
      "inputs": [],
      "name": "VERSION",
      "outputs": [
        {
          "internalType": "uint8",
          "name": "",
          "type": "uint8"
        }
      ],
      "stateMutability": "view",
      "type": "function"
    },
    {
      "inputs": [
        {
          "internalType": "address",
          "name": "owner",
          "type": "address"
        },
        {
          "internalType": "address",
          "name": "spender",
          "type": "address"
        }
      ],
      "name": "allowance",
      "outputs": [
        {
          "internalType": "uint256",
          "name": "",
          "type": "uint256"
        }
      ],
      "stateMutability": "view",
      "type": "function"
    },
    {
      "inputs": [
        {
          "internalType": "string",
          "name": "message",
          "type": "string"
        }
      ],
      "name": "announcement",
      "outputs": [],
      "stateMutability": "nonpayable",
      "type": "function"
    },
    {
      "inputs": [
        {
          "internalType": "address",
          "name": "spender",
          "type": "address"
        },
        {
          "internalType": "uint256",
          "name": "value",
          "type": "uint256"
        }
      ],
      "name": "approve",
      "outputs": [
        {
          "internalType": "bool",
          "name": "",
          "type": "bool"
        }
      ],
      "stateMutability": "nonpayable",
      "type": "function"
    },
    {
      "inputs": [
        {
          "internalType": "address",
          "name": "account",
          "type": "address"
        }
      ],
      "name": "balanceOf",
      "outputs": [
        {
          "internalType": "uint256",
          "name": "",
          "type": "uint256"
        }
      ],
      "stateMutability": "view",
      "type": "function"
    },
    {
      "inputs": [
        {
          "internalType": "uint256",
          "name": "_amount",
          "type": "uint256"
        }
      ],
      "name": "burn",
      "outputs": [],
      "stateMutability": "nonpayable",
      "type": "function"
    },
    {
      "inputs": [],
      "name": "claimPeriod",
      "outputs": [
        {
          "internalType": "uint256",
          "name": "",
          "type": "uint256"
        }
      ],
      "stateMutability": "pure",
      "type": "function"
    },
    {
      "inputs": [],
      "name": "customCollateralAddress",
      "outputs": [
        {
          "internalType": "contract IERC20",
          "name": "",
          "type": "address"
        }
      ],
      "stateMutability": "view",
      "type": "function"
    },
    {
      "inputs": [],
      "name": "customCollateralRate",
      "outputs": [
        {
          "internalType": "uint256",
          "name": "",
          "type": "uint256"
        }
      ],
      "stateMutability": "view",
      "type": "function"
    },
    {
      "inputs": [],
      "name": "decimals",
      "outputs": [
        {
          "internalType": "uint8",
          "name": "",
          "type": "uint8"
        }
      ],
      "stateMutability": "view",
      "type": "function"
    },
    {
      "inputs": [
        {
          "internalType": "address",
          "name": "holder",
          "type": "address"
        },
        {
          "internalType": "uint256",
          "name": "amount",
          "type": "uint256"
        },
        {
          "internalType": "string",
          "name": "message",
          "type": "string"
        }
      ],
      "name": "declareInvalid",
      "outputs": [],
      "stateMutability": "nonpayable",
      "type": "function"
    },
    {
      "inputs": [
        {
          "internalType": "address",
          "name": "lostAddress",
          "type": "address"
        }
      ],
      "name": "deleteClaim",
      "outputs": [],
      "stateMutability": "nonpayable",
      "type": "function"
    },
    {
      "inputs": [],
      "name": "getClaimDeleter",
      "outputs": [
        {
          "internalType": "address",
          "name": "",
          "type": "address"
        }
      ],
      "stateMutability": "view",
      "type": "function"
    },
    {
      "inputs": [
        {
          "internalType": "contract IERC20",
          "name": "collateralType",
          "type": "address"
        }
      ],
      "name": "getCollateralRate",
      "outputs": [
        {
          "internalType": "uint256",
          "name": "",
          "type": "uint256"
        }
      ],
      "stateMutability": "view",
      "type": "function"
    },
    {
      "inputs": [
        {
          "internalType": "address",
          "name": "account",
          "type": "address"
        },
        {
          "internalType": "uint8",
          "name": "number",
          "type": "uint8"
        }
      ],
      "name": "hasFlag",
      "outputs": [
        {
          "internalType": "bool",
          "name": "",
          "type": "bool"
        }
      ],
      "stateMutability": "view",
      "type": "function"
    },
    {
      "inputs": [],
      "name": "invalidTokens",
      "outputs": [
        {
          "internalType": "uint256",
          "name": "",
          "type": "uint256"
        }
      ],
      "stateMutability": "view",
      "type": "function"
    },
    {
      "inputs": [
        {
          "internalType": "address",
          "name": "target",
          "type": "address"
        },
        {
          "internalType": "uint256",
          "name": "amount",
          "type": "uint256"
        }
      ],
      "name": "mint",
      "outputs": [],
      "stateMutability": "nonpayable",
      "type": "function"
    },
    {
      "inputs": [
        {
          "internalType": "address",
          "name": "shareholder",
          "type": "address"
        },
        {
          "internalType": "address",
          "name": "callee",
          "type": "address"
        },
        {
          "internalType": "uint256",
          "name": "amount",
          "type": "uint256"
        },
        {
          "internalType": "bytes",
          "name": "data",
          "type": "bytes"
        }
      ],
      "name": "mintAndCall",
      "outputs": [],
      "stateMutability": "nonpayable",
      "type": "function"
    },
    {
      "inputs": [
        {
          "internalType": "address[]",
          "name": "target",
          "type": "address[]"
        },
        {
          "internalType": "uint256[]",
          "name": "amount",
          "type": "uint256[]"
        }
      ],
      "name": "mintMany",
      "outputs": [],
      "stateMutability": "nonpayable",
      "type": "function"
    },
    {
      "inputs": [
        {
          "internalType": "address[]",
          "name": "target",
          "type": "address[]"
        },
        {
          "internalType": "address",
          "name": "callee",
          "type": "address"
        },
        {
          "internalType": "uint256[]",
          "name": "amount",
          "type": "uint256[]"
        },
        {
          "internalType": "bytes",
          "name": "data",
          "type": "bytes"
        }
      ],
      "name": "mintManyAndCall",
      "outputs": [],
      "stateMutability": "nonpayable",
      "type": "function"
    },
    {
      "inputs": [],
      "name": "name",
      "outputs": [
        {
          "internalType": "string",
          "name": "",
          "type": "string"
        }
      ],
      "stateMutability": "view",
      "type": "function"
    },
    {
      "inputs": [
        {
          "internalType": "address",
          "name": "",
          "type": "address"
        }
      ],
      "name": "nonces",
      "outputs": [
        {
          "internalType": "uint256",
          "name": "",
          "type": "uint256"
        }
      ],
      "stateMutability": "view",
      "type": "function"
    },
    {
      "inputs": [
        {
          "internalType": "address",
          "name": "target",
          "type": "address"
        }
      ],
      "name": "notifyClaimDeleted",
      "outputs": [],
      "stateMutability": "nonpayable",
      "type": "function"
    },
    {
      "inputs": [
        {
          "internalType": "address",
          "name": "target",
          "type": "address"
        }
      ],
      "name": "notifyClaimMade",
      "outputs": [],
      "stateMutability": "nonpayable",
      "type": "function"
    },
    {
      "inputs": [],
      "name": "owner",
      "outputs": [
        {
          "internalType": "address",
          "name": "",
          "type": "address"
        }
      ],
      "stateMutability": "view",
      "type": "function"
    },
    {
      "inputs": [
        {
          "internalType": "address",
          "name": "owner",
          "type": "address"
        },
        {
          "internalType": "address",
          "name": "spender",
          "type": "address"
        },
        {
          "internalType": "uint256",
          "name": "value",
          "type": "uint256"
        },
        {
          "internalType": "uint256",
          "name": "deadline",
          "type": "uint256"
        },
        {
          "internalType": "uint8",
          "name": "v",
          "type": "uint8"
        },
        {
          "internalType": "bytes32",
          "name": "r",
          "type": "bytes32"
        },
        {
          "internalType": "bytes32",
          "name": "s",
          "type": "bytes32"
        }
      ],
      "name": "permit",
      "outputs": [],
      "stateMutability": "nonpayable",
      "type": "function"
    },
    {
      "inputs": [],
      "name": "permit2Hub",
      "outputs": [
        {
          "internalType": "contract Permit2Hub",
          "name": "",
          "type": "address"
        }
      ],
      "stateMutability": "view",
      "type": "function"
    },
    {
      "inputs": [
        {
          "internalType": "address",
          "name": "oldAddress",
          "type": "address"
        },
        {
          "internalType": "address",
          "name": "newAddress",
          "type": "address"
        }
      ],
      "name": "recover",
      "outputs": [],
      "stateMutability": "nonpayable",
      "type": "function"
    },
    {
      "inputs": [],
      "name": "recovery",
      "outputs": [
        {
          "internalType": "contract IRecoveryHub",
          "name": "",
          "type": "address"
        }
      ],
      "stateMutability": "view",
      "type": "function"
    },
    {
      "inputs": [
        {
          "internalType": "contract IERC20",
          "name": "collateral",
          "type": "address"
        },
        {
          "internalType": "uint256",
          "name": "rate",
          "type": "uint256"
        }
      ],
      "name": "setCustomClaimCollateral",
      "outputs": [],
      "stateMutability": "nonpayable",
      "type": "function"
    },
    {
      "inputs": [
        {
          "internalType": "string",
          "name": "_symbol",
          "type": "string"
        },
        {
          "internalType": "string",
          "name": "_name",
          "type": "string"
        }
      ],
      "name": "setName",
      "outputs": [],
      "stateMutability": "nonpayable",
      "type": "function"
    },
    {
      "inputs": [
        {
          "internalType": "string",
          "name": "_terms",
          "type": "string"
        }
      ],
      "name": "setTerms",
      "outputs": [],
      "stateMutability": "nonpayable",
      "type": "function"
    },
    {
      "inputs": [
        {
          "internalType": "uint256",
          "name": "_newTotalShares",
          "type": "uint256"
        }
      ],
      "name": "setTotalShares",
      "outputs": [],
      "stateMutability": "nonpayable",
      "type": "function"
    },
    {
      "inputs": [],
      "name": "symbol",
      "outputs": [
        {
          "internalType": "string",
          "name": "",
          "type": "string"
        }
      ],
      "stateMutability": "view",
      "type": "function"
    },
    {
      "inputs": [],
      "name": "terms",
      "outputs": [
        {
          "internalType": "string",
          "name": "",
          "type": "string"
        }
      ],
      "stateMutability": "view",
      "type": "function"
    },
    {
      "inputs": [],
      "name": "totalShares",
      "outputs": [
        {
          "internalType": "uint256",
          "name": "",
          "type": "uint256"
        }
      ],
      "stateMutability": "view",
      "type": "function"
    },
    {
      "inputs": [],
      "name": "totalSupply",
      "outputs": [
        {
          "internalType": "uint256",
          "name": "",
          "type": "uint256"
        }
      ],
      "stateMutability": "view",
      "type": "function"
    },
    {
      "inputs": [],
      "name": "totalValidSupply",
      "outputs": [
        {
          "internalType": "uint256",
          "name": "",
          "type": "uint256"
        }
      ],
      "stateMutability": "view",
      "type": "function"
    },
    {
      "inputs": [
        {
          "internalType": "address",
          "name": "to",
          "type": "address"
        },
        {
          "internalType": "uint256",
          "name": "value",
          "type": "uint256"
        }
      ],
      "name": "transfer",
      "outputs": [
        {
          "internalType": "bool",
          "name": "",
          "type": "bool"
        }
      ],
      "stateMutability": "nonpayable",
      "type": "function"
    },
    {
      "inputs": [
        {
          "internalType": "address",
          "name": "recipient",
          "type": "address"
        },
        {
          "internalType": "uint256",
          "name": "amount",
          "type": "uint256"
        },
        {
          "internalType": "bytes",
          "name": "data",
          "type": "bytes"
        }
      ],
      "name": "transferAndCall",
      "outputs": [
        {
          "internalType": "bool",
          "name": "",
          "type": "bool"
        }
      ],
      "stateMutability": "nonpayable",
      "type": "function"
    },
    {
      "inputs": [
        {
          "internalType": "address",
          "name": "sender",
          "type": "address"
        },
        {
          "internalType": "address",
          "name": "recipient",
          "type": "address"
        },
        {
          "internalType": "uint256",
          "name": "amount",
          "type": "uint256"
        }
      ],
      "name": "transferFrom",
      "outputs": [
        {
          "internalType": "bool",
          "name": "",
          "type": "bool"
        }
      ],
      "stateMutability": "nonpayable",
      "type": "function"
    },
    {
      "inputs": [
        {
          "internalType": "address",
          "name": "newOwner",
          "type": "address"
        }
      ],
      "name": "transferOwnership",
      "outputs": [],
      "stateMutability": "nonpayable",
      "type": "function"
    }
  ],
  "transactionHash": "0x660a141ed4fbb13a93ef989e212c7be4d9cb884a7200481ac44e06995bac78c0",
  "args": [
    "PNEX",
    "Polygon NEW Example Shares",
    "invest.nothing.com",
    "1000000000000000",
    "0xaa0e9f43b9B434B704b690B72ecFe6A9Bb3d7253",
    "0x0235FB5902b84885bA79BDbce417C49E3720eb2d",
    "0xF08c085748711078C32338e3356c0E533a4a22aC"
  ],
  "numDeployments": 1,
  "solcInputHash": "70217f562dd4d97f8edcb10ddf317c3c",
  "bytecode": "0x60c06040523480156200001157600080fd5b506040516200250138038062002501833981016040819052620000349162000290565b6003805460ff191690556001600160a01b03828116608052600580546001600160a01b03191691851691821790556040518291899189916000918891829184907f8be0079c531659141344cd1fd0a4f28419497f9722a3daafe3b4186f6b6457e0908290a350620000a684846200013b565b505050506001600160a01b031660a052600a8490556009620000c98682620003f7565b506000600b819055604051636427ed9760e01b815260048101919091526001600160a01b03831690636427ed9790602401600060405180830381600087803b1580156200011557600080fd5b505af11580156200012a573d6000803e3d6000fd5b505050505050505050505062000523565b6007620001498382620003f7565b506006620001588282620003f7565b507f6c20b91d1723b78732eba64ff11ebd7966a6e4af568a00fa4f6b72c20f58b02a81836040516200018c929190620004f1565b60405180910390a15050565b634e487b7160e01b600052604160045260246000fd5b60005b83811015620001cb578181015183820152602001620001b1565b50506000910152565b600082601f830112620001e657600080fd5b81516001600160401b038082111562000203576200020362000198565b604051601f8301601f19908116603f011681019082821181831017156200022e576200022e62000198565b816040528381528660208588010111156200024857600080fd5b6200025b846020830160208901620001ae565b9695505050505050565b6001600160a01b03811681146200027b57600080fd5b50565b80516200028b8162000265565b919050565b600080600080600080600060e0888a031215620002ac57600080fd5b87516001600160401b0380821115620002c457600080fd5b620002d28b838c01620001d4565b985060208a0151915080821115620002e957600080fd5b620002f78b838c01620001d4565b975060408a01519150808211156200030e57600080fd5b506200031d8a828b01620001d4565b955050606088015193506080880151620003378162000265565b60a08901519093506200034a8162000265565b91506200035a60c089016200027e565b905092959891949750929550565b600181811c908216806200037d57607f821691505b6020821081036200039e57634e487b7160e01b600052602260045260246000fd5b50919050565b601f821115620003f257600081815260208120601f850160051c81016020861015620003cd5750805b601f850160051c820191505b81811015620003ee57828155600101620003d9565b5050505b505050565b81516001600160401b0381111562000413576200041362000198565b6200042b8162000424845462000368565b84620003a4565b602080601f8311600181146200046357600084156200044a5750858301515b600019600386901b1c1916600185901b178555620003ee565b600085815260208120601f198616915b82811015620004945788860151825594840194600190910190840162000473565b5085821015620004b35787850151600019600388901b60f8161c191681555b5050505050600190811b01905550565b60008151808452620004dd816020860160208601620001ae565b601f01601f19169290920160200192915050565b604081526000620005066040830185620004c3565b82810360208401526200051a8185620004c3565b95945050505050565b60805160a051611f8e62000573600039600081816102f6015261143e0152600081816105420152818161073c01528181610ba801528181610d5201528181610f5601526113430152611f8e6000f3fe608060405234801561001057600080fd5b50600436106102695760003560e01c80636091811711610151578063b0d04c7a116100c3578063ddceafa911610087578063ddceafa91461053d578063e5b824ec14610564578063f2fde38b14610577578063f54fc0601461058a578063f5c0b95f1461059d578063ffa1ad74146105b057600080fd5b8063b0d04c7a146104f4578063c18172c4146104fc578063d50256251461050f578063d505accf14610517578063dd62ed3e1461052a57600080fd5b80637dc2cd98116101155780637dc2cd981461048a5780637ecebe00146104935780638da5cb5b146104b357806395d89b41146104c6578063a77384c1146104ce578063a9059cbb146104e157600080fd5b80636091811714610435578063648bf7741461043e57806370a082311461045157806377e071ad1461046457806378f86afc1461047757600080fd5b80633644e515116101ea5780634029a3ce116101ae5780634029a3ce146103c357806340c10f19146103d657806342966c68146103e9578063487346b2146103fc5780635c707f071461040f5780635d6624b71461042257600080fd5b80633644e5151461038357806337a8129c1461038b5780633a1cdf32146103945780633a98ef39146103a75780634000aea0146103b057600080fd5b80631f0f06aa116102315780631f0f06aa1461031857806323b872dd1461032d5780632a0a4ed514610340578063313ce5671461035157806332a7ae951461037057600080fd5b806306fdde031461026e578063095ea7b31461028c5780630c6f0e5d146102af57806318160ddd146102df57806318efcce5146102f1575b600080fd5b6102766105b8565b604051610283919061171a565b60405180910390f35b61029f61029a366004611742565b610646565b6040519015158152602001610283565b6003546102c79061010090046001600160a01b031681565b6040516001600160a01b039091168152602001610283565b6002545b604051908152602001610283565b6102c77f000000000000000000000000000000000000000000000000000000000000000081565b61032b6103263660046117b7565b61065d565b005b61029f61033b3660046117f9565b6106a2565b6005546001600160a01b03166102c7565b60035461035e9060ff1681565b60405160ff9091168152602001610283565b61032b61037e36600461183a565b610703565b6102e361079b565b6102e3600b5481565b61032b6103a2366004611742565b6107f4565b6102e3600a5481565b61029f6103be366004611857565b61080a565b61032b6103d13660046118f8565b61089b565b61032b6103e4366004611742565b610940565b61032b6103f7366004611958565b610952565b61032b61040a366004611971565b61096a565b61032b61041d366004611ac3565b610add565b61032b610430366004611857565b610aef565b6102e360045481565b61032b61044c366004611b27565b610ba3565b6102e361045f36600461183a565b610bdf565b6102e361047236600461183a565b610c03565b61032b610485366004611b60565b610c4d565b62ed4e006102e3565b6102e36104a136600461183a565b60086020526000908152604090205481565b6005546102c7906001600160a01b031681565b610276610c9c565b61032b6104dc366004611958565b610ca9565b61029f6104ef366004611742565b610d1d565b6102e3610d30565b61032b61050a36600461183a565b610d4d565b610276610d83565b61032b610525366004611bae565b610d90565b6102e3610538366004611b27565b610f45565b6102c77f000000000000000000000000000000000000000000000000000000000000000081565b61032b61057236600461183a565b610f51565b61032b61058536600461183a565b610f87565b61032b610598366004611c1c565b610feb565b61029f6105ab366004611c8f565b611087565b61035e600481565b600680546105c590611cc4565b80601f01602080910402602001604051908101604052809291908181526020018280546105f190611cc4565b801561063e5780601f106106135761010080835404028352916020019161063e565b820191906000526020600020905b81548152906001019060200180831161062157829003601f168201915b505050505081565b6000610653338484611093565b5060015b92915050565b6106656110f5565b7f07ce702fc13ca0620c174dab22996a6d5fd9e7accb663555a4e85323692706ba8282604051610696929190611d27565b60405180910390a15050565b60006106af848484611124565b60006106bb8533610f45565b9050600160ff1b8110156106f8576106d38382611d51565b6001600160a01b03861660009081526001602090815260408083203384529091529020555b506001949350505050565b61071d6107186005546001600160a01b031690565b61117d565b6040516332a7ae9560e01b81526001600160a01b0382811660048301527f000000000000000000000000000000000000000000000000000000000000000016906332a7ae9590602401600060405180830381600087803b15801561078057600080fd5b505af1158015610794573d6000803e3d6000fd5b5050505050565b604080517f47e79534a245952e8b16893a336b85a3d9ea9fa8c573f3d803afb92a794692186020820152469181019190915230606082015260009060800160405160208183030381529060405280519060200120905090565b6107fc6110f5565b61080682826111a8565b5050565b60006108168585610d1d565b80156108925750604051635260769b60e11b81526001600160a01b0386169063a4c0ed369061084f903390889088908890600401611d64565b6020604051808303816000875af115801561086e573d6000803e3d6000fd5b505050506040513d601f19601f820116820180604052508101906108929190611d96565b95945050505050565b6108a36110f5565b828181146108d357604051634ee401dd60e11b815260048101829052602481018390526044015b60405180910390fd5b60005b81811015610938576109268686838181106108f3576108f3611db8565b9050602002016020810190610908919061183a565b85858481811061091a5761091a611db8565b90506020020135611207565b8061093081611dce565b9150506108d6565b505050505050565b6109486110f5565b6108068282611207565b61095d333083611124565b610967308261125e565b50565b8583811461099557604051634ee401dd60e11b815260048101829052602481018590526044016108ca565b6000805b828110156109d9578686828181106109b3576109b3611db8565b90506020020135826109c59190611de7565b9150806109d181611dce565b915050610999565b506109e48782610940565b60005b82811015610ad157876001600160a01b031663a4c0ed368b8b84818110610a1057610a10611db8565b9050602002016020810190610a25919061183a565b898985818110610a3757610a37611db8565b9050602002013588886040518563ffffffff1660e01b8152600401610a5f9493929190611d64565b6020604051808303816000875af1158015610a7e573d6000803e3d6000fd5b505050506040513d601f19601f82011682018060405250810190610aa29190611d96565b610abf57604051631956a44d60e31b815260040160405180910390fd5b80610ac981611dce565b9150506109e7565b50505050505050505050565b610ae56110f5565b61080682826112c6565b610af76110f5565b6000610b0285610bdf565b905080841115610b3e5760405163391434e360e21b81526001600160a01b038616600482015260248101829052604481018590526064016108ca565b83600b6000828254610b509190611de7565b92505081905550846001600160a01b03167f0a605cd1294f60fa3b73548ac68428f33300a051f225afcdcc75e56083c96ee7858585604051610b9493929190611dfa565b60405180910390a25050505050565b610bcc7f000000000000000000000000000000000000000000000000000000000000000061117d565b6108068282610bda85610bdf565b611124565b6001600160a01b03166000908152602081905260409020546001600160e01b031690565b6000306001600160a01b03831603610c1d57506001919050565b6003546001600160a01b03610100909104811690831603610c4057505060045490565b506000919050565b919050565b610c556110f5565b6009610c618282611e5a565b507fe9f2468ecc8d3dff15a70a5909151e6297cee4cf05268eff3d7ef0c696ec50f281604051610c91919061171a565b60405180910390a150565b600780546105c590611cc4565b610cb16110f5565b6000610cbb610d30565b905080821015610ce85760405163e9ccb41b60e01b815260048101829052602481018390526044016108ca565b600a8290556040518281527fdcbf73bf1e396dbe03ccbcd29c0aa52eb8028ae24726098296357286de4f5b2690602001610696565b6000610d298383611311565b9392505050565b6000600b54610d3e60025490565b610d489190611d51565b905090565b610d767f000000000000000000000000000000000000000000000000000000000000000061117d565b61096781600a60016113b0565b600980546105c590611cc4565b42841015610dba57604051630b99fc4b60e31b8152600481018590524260248201526044016108ca565b60006001610dc661079b565b6001600160a01b038a811660008181526008602090815260409182902080546001810190915582517f6e71edae12b1b97f4d1f60370fef10105fa2faae0126114a169c64845d6126c98184015280840194909452938d166060840152608083018c905260a083019390935260c08083018b90528151808403909101815260e08301909152805192019190912061190160f01b6101008301526101028201929092526101228101919091526101420160408051601f198184030181528282528051602091820120600084529083018083525260ff871690820152606081018590526080810184905260a0016020604051602081039080840390855afa158015610ed2573d6000803e3d6000fd5b5050604051601f1901519150506001600160a01b0381161580610f075750876001600160a01b0316816001600160a01b031614155b15610f3057604051632f52260d60e11b81526001600160a01b03821660048201526024016108ca565b610f3b818888611093565b5050505050505050565b6000610d298383611414565b610f7a7f000000000000000000000000000000000000000000000000000000000000000061117d565b61096781600a60006113b0565b610f8f6110f5565b6005546040516001600160a01b038084169216907f8be0079c531659141344cd1fd0a4f28419497f9722a3daafe3b4186f6b6457e090600090a3600580546001600160a01b0319166001600160a01b0392909216919091179055565b610ff58484610940565b604051635260769b60e11b81526001600160a01b0385169063a4c0ed3690611027908890879087908790600401611d64565b6020604051808303816000875af1158015611046573d6000803e3d6000fd5b505050506040513d601f19601f8201168201806040525081019061106a9190611d96565b61079457604051631956a44d60e31b815260040160405180910390fd5b6000610d2983836114e5565b6001600160a01b0383811660008181526001602090815260408083209487168084529482529182902085905590518481527f8c5be1e5ebec7d5bd14f71427d1e84f3dd0314c0f7b2291e5b200ac8c7c3b92591015b60405180910390a3505050565b6005546001600160a01b03163314611122576040516396a19be960e01b81523360048201526024016108ca565b565b61112e8382611525565b61113882826115c2565b816001600160a01b0316836001600160a01b03167fddf252ad1be2c89b69c2b068fc378daa952ba7f163c4a11628f55a4df523b3ef836040516110e891815260200190565b336001600160a01b0382161461096757604051634b637e8f60e11b81523360048201526024016108ca565b60038054610100600160a81b0319166101006001600160a01b0385811682029290921792839055909104166111e05760006004555050565b8060000361120157604051630ece93db60e41b815260040160405180910390fd5b60045550565b600081611212610d30565b61121c9190611de7565b9050600a5481111561124f57600a546040516340a8005d60e11b81526004810191909152602481018290526044016108ca565b6112598383611667565b505050565b80600260008282546112709190611d51565b9091555061128090508282611525565b6040518181526000906001600160a01b038416907fddf252ad1be2c89b69c2b068fc378daa952ba7f163c4a11628f55a4df523b3ef906020015b60405180910390a35050565b60076112d28382611e5a565b5060066112df8282611e5a565b507f6c20b91d1723b78732eba64ff11ebd7966a6e4af568a00fa4f6b72c20f58b02a8183604051610696929190611f1a565b600061131d83836116c7565b5061132933600a6114e5565b15610653576040516304d301a360e41b81523360048201527f00000000000000000000000000000000000000000000000000000000000000006001600160a01b031690634d301a3090602401600060405180830381600087803b15801561138f57600080fd5b505af11580156113a3573d6000803e3d6000fd5b5050505050600192915050565b60006113bd8360e0611f3f565b6001600160a01b038516600090815260208190526040902054600160ff929092169190911b9150808216821483151514610794576001600160a01b0394909416600090815260208190526040902093189092555050565b604051632fb6b53160e11b81526001600160a01b03838116600483015282811660248301526000917f000000000000000000000000000000000000000000000000000000000000000090911690635f6d6a6290604401602060405180830381865afa158015611487573d6000803e3d6000fd5b505050506040513d601f19601f820116820180604052508101906114ab9190611d96565b156114b95750600019610657565b506001600160a01b03828116600090815260016020908152604080832093851683529290522054610657565b6000806114f38360e0611f3f565b6001600160a01b038516600090815260208190526040902054600160ff929092169190911b9081161491505092915050565b6001600160a01b038216600090815260208190526040812054906115498383611d51565b90506001600160e01b031981166001600160e01b03198316146115a1578361157085610bdf565b60405163391434e360e21b81526001600160a01b0390921660048301526024820152604481018490526064016108ca565b6001600160a01b039093166000908152602081905260409020929092555050565b6001600160a01b0382166115f45760405163ec442f0560e01b81526001600160a01b03831660048201526024016108ca565b6001600160a01b038216600090815260208190526040812054906116188383611de7565b90506001600160e01b031981166001600160e01b03198316146115a157604051634a2e08e560e01b81526001600160a01b038516600482015260248101839052604481018490526064016108ca565b80600260008282546116799190611de7565b90915550611689905082826115c2565b6040518181526001600160a01b038316906000907fddf252ad1be2c89b69c2b068fc378daa952ba7f163c4a11628f55a4df523b3ef906020016112ba565b6000610653338484611124565b6000815180845260005b818110156116fa576020818501810151868301820152016116de565b506000602082860101526020601f19601f83011685010191505092915050565b602081526000610d2960208301846116d4565b6001600160a01b038116811461096757600080fd5b6000806040838503121561175557600080fd5b82356117608161172d565b946020939093013593505050565b60008083601f84011261178057600080fd5b50813567ffffffffffffffff81111561179857600080fd5b6020830191508360208285010111156117b057600080fd5b9250929050565b600080602083850312156117ca57600080fd5b823567ffffffffffffffff8111156117e157600080fd5b6117ed8582860161176e565b90969095509350505050565b60008060006060848603121561180e57600080fd5b83356118198161172d565b925060208401356118298161172d565b929592945050506040919091013590565b60006020828403121561184c57600080fd5b8135610d298161172d565b6000806000806060858703121561186d57600080fd5b84356118788161172d565b935060208501359250604085013567ffffffffffffffff81111561189b57600080fd5b6118a78782880161176e565b95989497509550505050565b60008083601f8401126118c557600080fd5b50813567ffffffffffffffff8111156118dd57600080fd5b6020830191508360208260051b85010111156117b057600080fd5b6000806000806040858703121561190e57600080fd5b843567ffffffffffffffff8082111561192657600080fd5b611932888389016118b3565b9096509450602087013591508082111561194b57600080fd5b506118a7878288016118b3565b60006020828403121561196a57600080fd5b5035919050565b60008060008060008060006080888a03121561198c57600080fd5b873567ffffffffffffffff808211156119a457600080fd5b6119b08b838c016118b3565b909950975060208a013591506119c58261172d565b909550604089013590808211156119db57600080fd5b6119e78b838c016118b3565b909650945060608a0135915080821115611a0057600080fd5b50611a0d8a828b0161176e565b989b979a50959850939692959293505050565b634e487b7160e01b600052604160045260246000fd5b600082601f830112611a4757600080fd5b813567ffffffffffffffff80821115611a6257611a62611a20565b604051601f8301601f19908116603f01168101908282118183101715611a8a57611a8a611a20565b81604052838152866020858801011115611aa357600080fd5b836020870160208301376000602085830101528094505050505092915050565b60008060408385031215611ad657600080fd5b823567ffffffffffffffff80821115611aee57600080fd5b611afa86838701611a36565b93506020850135915080821115611b1057600080fd5b50611b1d85828601611a36565b9150509250929050565b60008060408385031215611b3a57600080fd5b8235611b458161172d565b91506020830135611b558161172d565b809150509250929050565b600060208284031215611b7257600080fd5b813567ffffffffffffffff811115611b8957600080fd5b611b9584828501611a36565b949350505050565b803560ff81168114610c4857600080fd5b600080600080600080600060e0888a031215611bc957600080fd5b8735611bd48161172d565b96506020880135611be48161172d565b95506040880135945060608801359350611c0060808901611b9d565b925060a0880135915060c0880135905092959891949750929550565b600080600080600060808688031215611c3457600080fd5b8535611c3f8161172d565b94506020860135611c4f8161172d565b935060408601359250606086013567ffffffffffffffff811115611c7257600080fd5b611c7e8882890161176e565b969995985093965092949392505050565b60008060408385031215611ca257600080fd5b8235611cad8161172d565b9150611cbb60208401611b9d565b90509250929050565b600181811c90821680611cd857607f821691505b602082108103611cf857634e487b7160e01b600052602260045260246000fd5b50919050565b81835281816020850137506000828201602090810191909152601f909101601f19169091010190565b602081526000611b95602083018486611cfe565b634e487b7160e01b600052601160045260246000fd5b8181038181111561065757610657611d3b565b60018060a01b0385168152836020820152606060408201526000611d8c606083018486611cfe565b9695505050505050565b600060208284031215611da857600080fd5b81518015158114610d2957600080fd5b634e487b7160e01b600052603260045260246000fd5b600060018201611de057611de0611d3b565b5060010190565b8082018082111561065757610657611d3b565b838152604060208201526000610892604083018486611cfe565b601f82111561125957600081815260208120601f850160051c81016020861015611e3b5750805b601f850160051c820191505b8181101561093857828155600101611e47565b815167ffffffffffffffff811115611e7457611e74611a20565b611e8881611e828454611cc4565b84611e14565b602080601f831160018114611ebd5760008415611ea55750858301515b600019600386901b1c1916600185901b178555610938565b600085815260208120601f198616915b82811015611eec57888601518255948401946001909101908401611ecd565b5085821015611f0a5787850151600019600388901b60f8161c191681555b5050505050600190811b01905550565b604081526000611f2d60408301856116d4565b828103602084015261089281856116d4565b60ff818116838216019081111561065757610657611d3b56fea2646970667358221220260a7a37d6a8541f4405c9de0fcb52ef4040c5654e664bf571369a90e406199764736f6c63430008150033",
  "devdoc": {
    "author": "Luzius Meisser, luzius@aktionariat.com These tokens represent ledger-based securities according to article 973d of the Swiss Code of Obligations. This smart contract serves as an ownership registry, enabling the token holders to register them as shareholders in the issuer's shareholder registry. This is equivalent to the traditional system of having physical share certificates kept at home by the shareholders and a shareholder registry run by the company. Just like with physical certificates, the owners of the tokens are the owners of the shares. However, in order to exercise their rights (for example receive a dividend), shareholders must register themselves. For example, in case the company pays out a dividend to a previous shareholder because the current shareholder did not register, the company cannot be held liable for paying the dividend to the \"wrong\" shareholder. In relation to the company, only the registered shareholders count as such.",
    "errors": {
      "ERC20BalanceOverflow(address,uint256,uint256)": [
        {
          "params": {
            "amount": "The amount added, which result in the overflow. ",
            "balance": "The current balance of the receiver. ",
            "receiver": "The address were the balance overflows. "
          }
        }
      ],
      "Permit_DeadlineExpired(uint256,uint256)": [
        {
          "params": {
            "blockTimestamp": "The timestamp of the execution block.",
            "deadline": "The deadline of the permit."
          }
        }
      ],
      "Permit_InvalidSigner(address)": [
        {
          "params": {
            "signerAddress": "The recovered signer address."
          }
        }
      ],
      "Shares_InsufficientTotalShares(uint256,uint256)": [
        {
          "params": {
            "needed": "The max amount of shares needed (current valid supply + new mint amount). ",
            "totalShares": "The max amount of shares. "
          }
        }
      ],
      "Shares_InvalidTotalShares(uint256,uint256)": [
        {
          "params": {
            "newTotalShares": "The new max shares. ",
            "totalSupply": "The current valid supply. "
          }
        }
      ],
      "Shares_UnequalLength(uint256,uint256)": [
        {
          "params": {
            "amount": "Array length of amounts. ",
            "targets": "Array length of targets. "
          }
        }
      ]
    },
    "events": {
      "Approval(address,address,uint256)": {
        "details": "Emitted when the allowance of a `spender` for an `owner` is set by a call to `approve`. `value` is the new allowance."
      },
      "Transfer(address,address,uint256)": {
        "details": "Emitted when `value` tokens are moved from one account (`from`) to another (`to`). Note that `value` may be zero."
      }
    },
    "kind": "dev",
    "methods": {
      "DOMAIN_SEPARATOR()": {
        "details": "Returns the domain separator used in the encoding of the signature for {permit}, as defined by {EIP712}."
      },
      "approve(address,uint256)": {
        "details": "See `IERC20.approve`. Requirements: - `spender` cannot be the zero address."
      },
      "balanceOf(address)": {
        "details": "See `IERC20.balanceOf`."
      },
      "permit(address,address,uint256,uint256,uint8,bytes32,bytes32)": {
        "details": "Sets `value` as the allowance of `spender` over ``owner``'s tokens, given ``owner``'s signed approval. IMPORTANT: The same issues {IERC20-approve} has related to transaction ordering also apply here. Emits an {Approval} event. Requirements: - `spender` cannot be the zero address. - `deadline` must be a timestamp in the future. - `v`, `r` and `s` must be a valid `secp256k1` signature from `owner` over the EIP712-formatted function arguments. - the signature must use ``owner``'s current nonce (see {nonces}). For more information on the signature format, see the https://eips.ethereum.org/EIPS/eip-2612#specification[relevant EIP section]."
      },
      "totalSupply()": {
        "details": "See `IERC20.totalSupply`."
      },
      "transferFrom(address,address,uint256)": {
        "details": "See `IERC20.transferFrom`. Emits an `Approval` event indicating the updated allowance. This is not required by the EIP. See the note at the beginning of `ERC20`; Requirements: - `sender` and `recipient` cannot be the zero address. - `sender` must have a balance of at least `value`. - the caller must have allowance for `sender`'s tokens of at least `amount`."
      },
      "transferOwnership(address)": {
        "details": "Transfers ownership of the contract to a new account (`newOwner`). Can only be called by the current owner."
      }
    },
    "title": "CompanyName AG Shares",
    "version": 1
  },
  "userdoc": {
    "errors": {
      "ERC20BalanceOverflow(address,uint256,uint256)": [
        {
          "notice": "Overflow on minting, transfer. "
        }
      ],
      "Permit_DeadlineExpired(uint256,uint256)": [
        {
          "notice": "Block timestamp must to be before deadline."
        }
      ],
      "Permit_InvalidSigner(address)": [
        {
          "notice": "Recovered address must be owner and not zero address."
        }
      ],
      "Recoverable_RateZero()": [
        {
          "notice": "The new custom claim collateral rate has to be always > 0. "
        }
      ],
      "Shares_InsufficientTotalShares(uint256,uint256)": [
        {
          "notice": "It isn't possible to mint more share token than max shares in existens. "
        }
      ],
      "Shares_InvalidTotalShares(uint256,uint256)": [
        {
          "notice": "New total shares can't be below current valid supply"
        }
      ],
      "Shares_UnequalLength(uint256,uint256)": [
        {
          "notice": "Array lengths have to be equal. "
        }
      ]
    },
    "kind": "user",
    "methods": {
      "announcement(string)": {
        "notice": "Allows the issuer to make public announcements that are visible on the blockchain."
      },
      "burn(uint256)": {
        "notice": "Transfers _amount tokens to the company and burns them. The meaning of this operation depends on the circumstances and the fate of the shares does not necessarily follow the fate of the tokens. For example, the company itself might call this function to implement a formal decision to destroy some of the outstanding shares. Also, this function might be called by an owner to return the shares to the company and get them back in another form under an according agreement (e.g. printed certificates or tokens on a different blockchain). It is not recommended to call this function without having agreed with the company on the further fate of the shares in question."
      },
      "declareInvalid(address,uint256,string)": {
        "notice": "Signals that the indicated tokens have been declared invalid (e.g. by a court ruling in accordance with article 973g of the Swiss Code of Obligations) and got detached from the underlying shares. Invalid tokens do not carry any shareholder rights any more. This function is purely declarative. It does not technically immobilize the affected tokens as that would give the issuer too much power."
      },
      "getCollateralRate(address)": {
        "notice": "Returns the collateral rate for the given collateral type and 0 if that type of collateral is not accepted. By default, only the token itself is accepted at a rate of 1:1. Subclasses should override this method if they want to add additional types of collateral."
      },
      "mintAndCall(address,address,uint256,bytes)": {
        "notice": "Allows the company to tokenize shares and transfer them e.g to the draggable contract and wrap them. If these shares are newly created, setTotalShares must be called first in order to adjust the total number of shares."
      },
      "setCustomClaimCollateral(address,uint256)": {
        "notice": "See parent method for collateral requirements."
      },
      "setTotalShares(uint256)": {
        "notice": "Declares the number of total shares, including those that have not been tokenized and those that are held by the company itself. This number can be substiantially higher than totalSupply() in case not all shares have been tokenized. Also, it can be lower than totalSupply() in case some tokens have become invalid."
      },
      "totalValidSupply()": {
        "notice": "The total number of valid tokens in circulation. In case some tokens have been declared invalid, this number might be lower than totalSupply(). Also, it will always be lower than or equal to totalShares()."
      }
    },
    "version": 1
  },
  "storageLayout": {
    "storage": [
      {
        "astId": 389,
        "contract": "src/shares/Shares.sol:Shares",
        "label": "_balances",
        "offset": 0,
        "slot": "0",
        "type": "t_mapping(t_address,t_uint256)"
      },
      {
        "astId": 395,
        "contract": "src/shares/Shares.sol:Shares",
        "label": "_allowances",
        "offset": 0,
        "slot": "1",
        "type": "t_mapping(t_address,t_mapping(t_address,t_uint256))"
      },
      {
        "astId": 397,
        "contract": "src/shares/Shares.sol:Shares",
        "label": "_totalSupply",
        "offset": 0,
        "slot": "2",
        "type": "t_uint256"
      },
      {
        "astId": 400,
        "contract": "src/shares/Shares.sol:Shares",
        "label": "decimals",
        "offset": 0,
        "slot": "3",
        "type": "t_uint8"
      },
      {
        "astId": 2345,
        "contract": "src/shares/Shares.sol:Shares",
        "label": "customCollateralAddress",
        "offset": 1,
        "slot": "3",
        "type": "t_contract(IERC20)1272"
      },
      {
        "astId": 2347,
        "contract": "src/shares/Shares.sol:Shares",
        "label": "customCollateralRate",
        "offset": 0,
        "slot": "4",
        "type": "t_uint256"
      },
      {
        "astId": 4028,
        "contract": "src/shares/Shares.sol:Shares",
        "label": "owner",
        "offset": 0,
        "slot": "5",
        "type": "t_address"
      },
      {
        "astId": 937,
        "contract": "src/shares/Shares.sol:Shares",
        "label": "name",
        "offset": 0,
        "slot": "6",
        "type": "t_string_storage"
      },
      {
        "astId": 940,
        "contract": "src/shares/Shares.sol:Shares",
        "label": "symbol",
        "offset": 0,
        "slot": "7",
        "type": "t_string_storage"
      },
      {
        "astId": 1068,
        "contract": "src/shares/Shares.sol:Shares",
        "label": "nonces",
        "offset": 0,
        "slot": "8",
        "type": "t_mapping(t_address,t_uint256)"
      },
      {
        "astId": 3421,
        "contract": "src/shares/Shares.sol:Shares",
        "label": "terms",
        "offset": 0,
        "slot": "9",
        "type": "t_string_storage"
      },
      {
        "astId": 3424,
        "contract": "src/shares/Shares.sol:Shares",
        "label": "totalShares",
        "offset": 0,
        "slot": "10",
        "type": "t_uint256"
      },
      {
        "astId": 3426,
        "contract": "src/shares/Shares.sol:Shares",
        "label": "invalidTokens",
        "offset": 0,
        "slot": "11",
        "type": "t_uint256"
      }
    ],
    "types": {
      "t_address": {
        "encoding": "inplace",
        "label": "address",
        "numberOfBytes": "20"
      },
      "t_contract(IERC20)1272": {
        "encoding": "inplace",
        "label": "contract IERC20",
        "numberOfBytes": "20"
      },
      "t_mapping(t_address,t_mapping(t_address,t_uint256))": {
        "encoding": "mapping",
        "key": "t_address",
        "label": "mapping(address => mapping(address => uint256))",
        "numberOfBytes": "32",
        "value": "t_mapping(t_address,t_uint256)"
      },
      "t_mapping(t_address,t_uint256)": {
        "encoding": "mapping",
        "key": "t_address",
        "label": "mapping(address => uint256)",
        "numberOfBytes": "32",
        "value": "t_uint256"
      },
      "t_string_storage": {
        "encoding": "bytes",
        "label": "string",
        "numberOfBytes": "32"
      },
      "t_uint256": {
        "encoding": "inplace",
        "label": "uint256",
        "numberOfBytes": "32"
      },
      "t_uint8": {
        "encoding": "inplace",
        "label": "uint8",
        "numberOfBytes": "1"
      }
    }
  }
}