{
  "address": "0x666a22cca1d155032ed2f6ae7797616ede16f21c",
  "abi": [
    {
      "inputs": [
        {
          "internalType": "uint256",
          "name": "maxAmount",
          "type": "uint256"
        }
      ],
      "name": "InvalidAmount",
      "type": "error"
    },
    {
      "inputs": [],
      "name": "InvalidContractSignature",
      "type": "error"
    },
    {
      "inputs": [],
      "name": "InvalidNonce",
      "type": "error"
    },
    {
      "inputs": [],
      "name": "InvalidSignature",
      "type": "error"
    },
    {
      "inputs": [],
      "name": "InvalidSignatureLength",
      "type": "error"
    },
    {
      "inputs": [],
      "name": "InvalidSigner",
      "type": "error"
    },
    {
      "inputs": [],
      "name": "LengthMismatch",
      "type": "error"
    },
    {
      "inputs": [],
      "name": "OverFilled",
      "type": "error"
    },
    {
      "inputs": [
        {
          "internalType": "uint256",
          "name": "signatureDeadline",
          "type": "uint256"
        }
      ],
      "name": "SignatureExpired",
      "type": "error"
    },
    {
      "anonymous": false,
      "inputs": [
        {
          "indexed": true,
          "internalType": "address",
          "name": "owner",
          "type": "address"
        },
        {
          "indexed": false,
          "internalType": "uint256",
          "name": "word",
          "type": "uint256"
        },
        {
          "indexed": false,
          "internalType": "uint256",
          "name": "mask",
          "type": "uint256"
        }
      ],
      "name": "UnorderedNonceInvalidation",
      "type": "event"
    },
    {
      "inputs": [],
      "name": "DOMAIN_SEPARATOR",
      "outputs": [
        {
          "internalType": "bytes32",
          "name": "",
          "type": "bytes32"
        }
      ],
      "stateMutability": "view",
      "type": "function"
    },
    {
      "inputs": [
        {
          "internalType": "address",
          "name": "owner",
          "type": "address"
        },
        {
          "internalType": "uint256",
          "name": "start",
          "type": "uint256"
        }
      ],
      "name": "findFreeNonce",
      "outputs": [
        {
          "internalType": "uint256",
          "name": "",
          "type": "uint256"
        }
      ],
      "stateMutability": "view",
      "type": "function"
    },
    {
      "inputs": [
        {
          "internalType": "address",
          "name": "owner",
          "type": "address"
        },
        {
          "components": [
            {
              "components": [
                {
                  "internalType": "address",
                  "name": "token",
                  "type": "address"
                },
                {
                  "internalType": "uint256",
                  "name": "amount",
                  "type": "uint256"
                }
              ],
              "internalType": "struct ISignatureTransfer.TokenPermissions",
              "name": "permitted",
              "type": "tuple"
            },
            {
              "internalType": "uint256",
              "name": "nonce",
              "type": "uint256"
            },
            {
              "internalType": "uint256",
              "name": "deadline",
              "type": "uint256"
            }
          ],
          "internalType": "struct ISignatureTransfer.PermitTransferFrom",
          "name": "permit",
          "type": "tuple"
        }
      ],
      "name": "getPermittedAmount",
      "outputs": [
        {
          "internalType": "uint256",
          "name": "",
          "type": "uint256"
        }
      ],
      "stateMutability": "view",
      "type": "function"
    },
    {
      "inputs": [
        {
          "internalType": "uint256",
          "name": "wordPos",
          "type": "uint256"
        },
        {
          "internalType": "uint256",
          "name": "mask",
          "type": "uint256"
        }
      ],
      "name": "invalidateUnorderedNonces",
      "outputs": [],
      "stateMutability": "nonpayable",
      "type": "function"
    },
    {
      "inputs": [
        {
          "internalType": "address",
          "name": "owner",
          "type": "address"
        },
        {
          "internalType": "uint256",
          "name": "nonce",
          "type": "uint256"
        }
      ],
      "name": "isFreeNonce",
      "outputs": [
        {
          "internalType": "bool",
          "name": "",
          "type": "bool"
        }
      ],
      "stateMutability": "view",
      "type": "function"
    },
    {
      "inputs": [
        {
          "internalType": "address",
          "name": "owner",
          "type": "address"
        },
        {
          "internalType": "uint256",
          "name": "nonce",
          "type": "uint256"
        }
      ],
      "name": "isUsedNonce",
      "outputs": [
        {
          "internalType": "bool",
          "name": "",
          "type": "bool"
        }
      ],
      "stateMutability": "view",
      "type": "function"
    },
    {
      "inputs": [
        {
          "internalType": "address",
          "name": "",
          "type": "address"
        },
        {
          "internalType": "uint256",
          "name": "",
          "type": "uint256"
        }
      ],
      "name": "nonceBitmap",
      "outputs": [
        {
          "internalType": "uint256",
          "name": "",
          "type": "uint256"
        }
      ],
      "stateMutability": "view",
      "type": "function"
    },
    {
      "inputs": [
        {
          "internalType": "address",
          "name": "",
          "type": "address"
        },
        {
          "internalType": "uint256",
          "name": "",
          "type": "uint256"
        }
      ],
      "name": "partialFills",
      "outputs": [
        {
          "internalType": "uint256",
          "name": "",
          "type": "uint256"
        }
      ],
      "stateMutability": "view",
      "type": "function"
    },
    {
      "inputs": [
        {
          "components": [
            {
              "components": [
                {
                  "internalType": "address",
                  "name": "token",
                  "type": "address"
                },
                {
                  "internalType": "uint256",
                  "name": "amount",
                  "type": "uint256"
                }
              ],
              "internalType": "struct ISignatureTransfer.TokenPermissions",
              "name": "permitted",
              "type": "tuple"
            },
            {
              "internalType": "uint256",
              "name": "nonce",
              "type": "uint256"
            },
            {
              "internalType": "uint256",
              "name": "deadline",
              "type": "uint256"
            }
          ],
          "internalType": "struct ISignatureTransfer.PermitTransferFrom",
          "name": "permit",
          "type": "tuple"
        },
        {
          "components": [
            {
              "internalType": "address",
              "name": "to",
              "type": "address"
            },
            {
              "internalType": "uint256",
              "name": "requestedAmount",
              "type": "uint256"
            }
          ],
          "internalType": "struct ISignatureTransfer.SignatureTransferDetails",
          "name": "transferDetails",
          "type": "tuple"
        },
        {
          "internalType": "address",
          "name": "owner",
          "type": "address"
        },
        {
          "internalType": "bytes",
          "name": "signature",
          "type": "bytes"
        }
      ],
      "name": "permitTransferFrom",
      "outputs": [],
      "stateMutability": "nonpayable",
      "type": "function"
    },
    {
      "inputs": [
        {
          "components": [
            {
              "components": [
                {
                  "internalType": "address",
                  "name": "token",
                  "type": "address"
                },
                {
                  "internalType": "uint256",
                  "name": "amount",
                  "type": "uint256"
                }
              ],
              "internalType": "struct ISignatureTransfer.TokenPermissions",
              "name": "permitted",
              "type": "tuple"
            },
            {
              "internalType": "uint256",
              "name": "nonce",
              "type": "uint256"
            },
            {
              "internalType": "uint256",
              "name": "deadline",
              "type": "uint256"
            }
          ],
          "internalType": "struct ISignatureTransfer.PermitTransferFrom",
          "name": "permit",
          "type": "tuple"
        },
        {
          "components": [
            {
              "internalType": "address",
              "name": "to",
              "type": "address"
            },
            {
              "internalType": "uint256",
              "name": "requestedAmount",
              "type": "uint256"
            }
          ],
          "internalType": "struct ISignatureTransfer.SignatureTransferDetails",
          "name": "transferDetails",
          "type": "tuple"
        },
        {
          "internalType": "address",
          "name": "owner",
          "type": "address"
        },
        {
          "internalType": "bytes32",
          "name": "witness",
          "type": "bytes32"
        },
        {
          "internalType": "string",
          "name": "witnessTypeString",
          "type": "string"
        },
        {
          "internalType": "bytes",
          "name": "signature",
          "type": "bytes"
        }
      ],
      "name": "permitWitnessTransferFrom",
      "outputs": [],
      "stateMutability": "nonpayable",
      "type": "function"
    }
  ],
  "transactionHash": "0xed5f280b952d9524e3f9b57caad94465ba77690df1fd4a3c6ad5eb753eb9cbe8",
  "args": [],
  "numDeployments": 2,
  "solcInputHash": "83214f1fbffc5658be3cb2753dec8430",
  "bytecode": "0x60c0604052348015600f57600080fd5b504660a0818152604080517f8cad95687ba82c2ce50e74f7b754645e5117c3a5bec8151c0726d5857980a8666020808301919091527f9ac997416e8ff9d2ff6bebeb7149f65cdae5e32e2b90440b566bb3044041d36a828401526060820194909452306080808301919091528251808303909101815292019052805191012060805260805160a051610f106100b6600039600061021c015260006102c20152610f106000f3fe608060405234801561001057600080fd5b506004361061009e5760003560e01c80634fe02b44116100665780634fe02b441461011c5780639444b48d146101445780639a157e6a1461016f5780639f09829314610182578063fddc23a61461019557600080fd5b80630ee60fa7146100a3578063137c29fe146100cb57806330f28b7a146100e05780633644e515146100f35780633ff9dcb114610109575b600080fd5b6100b66100b1366004610a50565b6101a8565b60405190151581526020015b60405180910390f35b6100de6100d9366004610b8d565b6101df565b005b6100de6100ee366004610c3d565b610202565b6100fb610218565b6040519081526020016100c2565b6100de610117366004610cb6565b6102e4565b6100fb61012a366004610a50565b600060208181529281526040808220909352908152205481565b6100fb610152366004610a50565b600160209081526000928352604080842090915290825290205481565b6100fb61017d366004610a50565b61033d565b6100fb610190366004610cd8565b610366565b6100b66101a3366004610a50565b6103bd565b6001600160a01b038216600090815260208181526040808320600885901c8452909152902054600160ff83161b1615155b92915050565b6101f88888886101f1838a8a8a6103fe565b86866104b1565b5050505050505050565b6102118585856101f1896105b2565b5050505050565b60007f000000000000000000000000000000000000000000000000000000000000000046146102bf5750604080517f8cad95687ba82c2ce50e74f7b754645e5117c3a5bec8151c0726d5857980a8666020808301919091527f9ac997416e8ff9d2ff6bebeb7149f65cdae5e32e2b90440b566bb3044041d36a82840152466060830152306080808401919091528351808403909101815260a0909201909252805191012090565b507f000000000000000000000000000000000000000000000000000000000000000090565b3360008181526020818152604080832086845282529182902080548517905581518581529081018490527f3704902f963766a4e561bbaab6e6cdc1b1dd12f6e9e99648da8843b3f46b918d910160405180910390a25050565b60005b61034a83836103bd565b610360578161035881610d2d565b925050610340565b50919050565b60006103768383604001356101a8565b15610383575060006101d9565b6001600160a01b03831660009081526001602090815260408083208582013584528252909120546103b691840135610d46565b90506101d9565b60006103c983836101a8565b1580156103f757506001600160a01b0383166000908152600160209081526040808320858452909152902054155b9392505050565b6000806040518060a0016040528060648152602001610e7760649139848460405160200161042e93929190610d59565b60405160208183030381529060405280519060200120905060006104558760000151610635565b6020808901516040808b01518151938401879052908301849052336060840152608083019190915260a082015260c0810188905290915060e0016040516020818303038152906040528051906020012092505050949350505050565b60408601516020860135904211156104ed57866040015160405163cd21db4f60e01b81526004016104e491815260200190565b60405180910390fd5b610505858860200151838a60000151602001516106a6565b61051b610511856107e8565b8490849088610817565b8651516001600160a01b03166323b872dd8661053a60208a018a610d97565b6040516001600160e01b031960e085901b1681526001600160a01b03928316600482015291166024820152604481018490526064016020604051808303816000875af115801561058e573d6000803e3d6000fd5b505050506040513d601f19601f820116820180604052508101906101f89190610db2565b6000806105c28360000151610635565b60208085015160408087015181517f939c21a48a8dbe3a9a2404a1d46691e4d39f6583d6ec6b35714604c986d8010694810194909452908301849052336060840152608083019190915260a082015290915060c00160405160208183030381529060405280519060200120915050919050565b60007f618358ac3db8dc274f0cd8829da7e234bd48cd73c4a740aede1adec9846d06a18260405160200161068992919091825280516001600160a01b03166020808401919091520151604082015260600190565b604051602081830303815290604052805190602001209050919050565b6001600160a01b038416600090815260208181526040808320600887901c80855292529091205460ff8516906001821b90818116156106f857604051633ab3447f60e11b815260040160405180910390fd5b6001600160a01b03881660009081526001602090815260408083208a8452909152902054856107278883610dd4565b11156107465760405163447f595960e11b815260040160405180910390fd5b856107518883610dd4565b101561078a576107618782610dd4565b6001600160a01b038a1660009081526001602090815260408083208c84529091529020556107dd565b80156107b5576001600160a01b03891660009081526001602090815260408083208b84529091528120555b6001600160a01b03891660009081526020818152604080832088845290915290208054841790555b505050505050505050565b60006107f2610218565b60405161190160f01b6020820152602281019190915260428101839052606201610689565b6000806000836001600160a01b03163b60000361098457604186900361086c5761084386880188610cb6565b90935091508686604081811061085b5761085b610de7565b919091013560f81c91506108c49050565b60408690036108ab57600061088387890189610cb6565b9094506001600160ff1b038116935090506108a360ff82901c601b610dfd565b9150506108c4565b604051634be6321b60e01b815260040160405180910390fd5b6040805160008082526020820180845288905260ff841692820192909252606081018590526080810184905260019060a0016020604051602081039080840390855afa158015610918573d6000803e3d6000fd5b5050604051601f1901519150506001600160a01b03811661094c57604051638baa579f60e01b815260040160405180910390fd5b846001600160a01b0316816001600160a01b03161461097e57604051632057875960e21b815260040160405180910390fd5b50610a2b565b604051630b135d3f60e11b81526000906001600160a01b03861690631626ba7e906109b79089908c908c90600401610e16565b602060405180830381865afa1580156109d4573d6000803e3d6000fd5b505050506040513d601f19601f820116820180604052508101906109f89190610e4c565b90506001600160e01b03198116630b135d3f60e11b146101f857604051632c19a72f60e21b815260040160405180910390fd5b50505050505050565b80356001600160a01b0381168114610a4b57600080fd5b919050565b60008060408385031215610a6357600080fd5b610a6c83610a34565b946020939093013593505050565b60008183036080811215610a8d57600080fd5b6040516060810167ffffffffffffffff8282108183111715610abf57634e487b7160e01b600052604160045260246000fd5b8294506040841215610ad057600080fd5b60a0830193508184108185111715610af857634e487b7160e01b600052604160045260246000fd5b5082604052610b0685610a34565b815260208501356080830152808252506040840135602082015260608401356040820152505092915050565b60006040828403121561036057600080fd5b60008083601f840112610b5657600080fd5b50813567ffffffffffffffff811115610b6e57600080fd5b602083019150836020828501011115610b8657600080fd5b9250929050565b600080600080600080600080610140898b031215610baa57600080fd5b610bb48a8a610a7a565b9750610bc38a60808b01610b32565b9650610bd160c08a01610a34565b955060e0890135945061010089013567ffffffffffffffff80821115610bf657600080fd5b610c028c838d01610b44565b90965094506101208b0135915080821115610c1c57600080fd5b50610c298b828c01610b44565b999c989b5096995094979396929594505050565b60008060008060006101008688031215610c5657600080fd5b610c608787610a7a565b9450610c6f8760808801610b32565b9350610c7d60c08701610a34565b925060e086013567ffffffffffffffff811115610c9957600080fd5b610ca588828901610b44565b969995985093965092949392505050565b60008060408385031215610cc957600080fd5b50508035926020909101359150565b60008082840360a0811215610cec57600080fd5b610cf584610a34565b92506080601f1982011215610d0957600080fd5b506020830190509250929050565b634e487b7160e01b600052601160045260246000fd5b600060018201610d3f57610d3f610d17565b5060010190565b818103818111156101d9576101d9610d17565b6000845160005b81811015610d7a5760208188018101518583015201610d60565b506000908301908152838582376000930192835250909392505050565b600060208284031215610da957600080fd5b6103f782610a34565b600060208284031215610dc457600080fd5b815180151581146103f757600080fd5b808201808211156101d9576101d9610d17565b634e487b7160e01b600052603260045260246000fd5b60ff81811683821601908111156101d9576101d9610d17565b83815260406020820152816040820152818360608301376000818301606090810191909152601f909201601f1916010192915050565b600060208284031215610e5e57600080fd5b81516001600160e01b0319811681146103f757600080fdfe5065726d69745769746e6573735472616e7366657246726f6d28546f6b656e5065726d697373696f6e73207065726d69747465642c61646472657373207370656e6465722c75696e74323536206e6f6e63652c75696e7432353620646561646c696e652ca2646970667358221220e08ce343863a89ea8c5e3c98a2bf7508b66dcf40ccecb0955fc26233019edefa64736f6c63430008190033",
  "devdoc": {
    "errors": {
      "InvalidAmount(uint256)": [
        {
          "params": {
            "maxAmount": "The maximum amount a spender can request to transfer"
          }
        }
      ],
      "LengthMismatch()": [
        {
          "details": "If the spender does not need to transfer the number of tokens permitted, the spender can request amount 0 to be transferred"
        }
      ],
      "SignatureExpired(uint256)": [
        {
          "params": {
            "signatureDeadline": "The timestamp at which a signature is no longer valid"
          }
        }
      ]
    },
    "kind": "dev",
    "methods": {
      "DOMAIN_SEPARATOR()": {
        "details": "Uses cached version if chainid and address are unchanged from construction."
      },
      "invalidateUnorderedNonces(uint256,uint256)": {
        "details": "The wordPos is maxed at type(uint248).max",
        "params": {
          "mask": "A bitmap masked against msg.sender's current bitmap at the word position",
          "wordPos": "A number to index the nonceBitmap at"
        }
      },
      "permitTransferFrom(((address,uint256),uint256,uint256),(address,uint256),address,bytes)": {
        "details": "Reverts if the requested amount is greater than the permitted signed amount",
        "params": {
          "owner": "The owner of the tokens to transfer",
          "permit": "The permit data signed over by the owner",
          "signature": "The signature to verify",
          "transferDetails": "The spender's requested transfer details for the permitted token"
        }
      },
      "permitWitnessTransferFrom(((address,uint256),uint256,uint256),(address,uint256),address,bytes32,string,bytes)": {
        "details": "The witness type string must follow EIP712 ordering of nested structs and must include the TokenPermissions type definitionReverts if the requested amount is greater than the permitted signed amount",
        "params": {
          "owner": "The owner of the tokens to transfer",
          "permit": "The permit data signed over by the owner",
          "signature": "The signature to verify",
          "transferDetails": "The spender's requested transfer details for the permitted token",
          "witness": "Extra data to include when checking the user signature",
          "witnessTypeString": "The EIP-712 type definition for remaining string stub of the typehash"
        }
      }
    },
    "stateVariables": {
      "nonceBitmap": {
        "details": "Uses unordered nonces so that permit messages do not need to be spent in a certain orderThe mapping is indexed first by the token owner, then by an index specified in the nonceIt returns a uint256 bitmapThe index, or wordPosition is capped at type(uint248).max"
      }
    },
    "version": 1
  },
  "userdoc": {
    "errors": {
      "InvalidAmount(uint256)": [
        {
          "notice": "Thrown when the requested amount for a transfer is larger than the permissioned amount"
        }
      ],
      "InvalidContractSignature()": [
        {
          "notice": "Thrown when the recovered contract signature is incorrect"
        }
      ],
      "InvalidNonce()": [
        {
          "notice": "Thrown when validating that the inputted nonce has not been used"
        }
      ],
      "InvalidSignature()": [
        {
          "notice": "Thrown when the recovered signer is equal to the zero address"
        }
      ],
      "InvalidSignatureLength()": [
        {
          "notice": "Thrown when the passed in signature is not a valid length"
        }
      ],
      "InvalidSigner()": [
        {
          "notice": "Thrown when the recovered signer does not equal the claimedSigner"
        }
      ],
      "LengthMismatch()": [
        {
          "notice": "Thrown when the number of tokens permissioned to a spender does not match the number of tokens being transferred"
        }
      ],
      "SignatureExpired(uint256)": [
        {
          "notice": "Thrown when validating an inputted signature that is stale"
        }
      ]
    },
    "events": {
      "UnorderedNonceInvalidation(address,uint256,uint256)": {
        "notice": "Emits an event when the owner successfully invalidates an unordered nonce."
      }
    },
    "kind": "user",
    "methods": {
      "DOMAIN_SEPARATOR()": {
        "notice": "Returns the domain separator for the current chain."
      },
      "findFreeNonce(address,uint256)": {
        "notice": "Find a nonce that looks free given the data on the blockchain. Of course, this method cannot take into account nonces of valid but unused permits."
      },
      "invalidateUnorderedNonces(uint256,uint256)": {
        "notice": "Invalidates the bits specified in mask for the bitmap at the word position"
      },
      "nonceBitmap(address,uint256)": {
        "notice": "A map from token owner address and a caller specified word index to a bitmap. Used to set bits in the bitmap to prevent against signature replay protection"
      },
      "permitTransferFrom(((address,uint256),uint256,uint256),(address,uint256),address,bytes)": {
        "notice": "Transfers a token using a signed permit message"
      },
      "permitWitnessTransferFrom(((address,uint256),uint256,uint256),(address,uint256),address,bytes32,string,bytes)": {
        "notice": "Transfers a token using a signed permit messageIncludes extra data provided by the caller to verify signature over"
      }
    },
    "version": 1
  },
  "storageLayout": {
    "storage": [
      {
        "astId": 8036,
        "contract": "src/lib/SignatureTransfer.sol:SignatureTransfer",
        "label": "nonceBitmap",
        "offset": 0,
        "slot": "0",
        "type": "t_mapping(t_address,t_mapping(t_uint256,t_uint256))"
      },
      {
        "astId": 8042,
        "contract": "src/lib/SignatureTransfer.sol:SignatureTransfer",
        "label": "partialFills",
        "offset": 0,
        "slot": "1",
        "type": "t_mapping(t_address,t_mapping(t_uint256,t_uint256))"
      }
    ],
    "types": {
      "t_address": {
        "encoding": "inplace",
        "label": "address",
        "numberOfBytes": "20"
      },
      "t_mapping(t_address,t_mapping(t_uint256,t_uint256))": {
        "encoding": "mapping",
        "key": "t_address",
        "label": "mapping(address => mapping(uint256 => uint256))",
        "numberOfBytes": "32",
        "value": "t_mapping(t_uint256,t_uint256)"
      },
      "t_mapping(t_uint256,t_uint256)": {
        "encoding": "mapping",
        "key": "t_uint256",
        "label": "mapping(uint256 => uint256)",
        "numberOfBytes": "32",
        "value": "t_uint256"
      },
      "t_uint256": {
        "encoding": "inplace",
        "label": "uint256",
        "numberOfBytes": "32"
      }
    }
  }
}