{
  "address": "0xd97F537f1d85FafBCf547e8B530A61e9AD50D778",
  "abi": [
    {
      "inputs": [
        {
          "internalType": "address",
          "name": "_owner",
          "type": "address"
        },
        {
          "internalType": "contract BrokerbotRegistry",
          "name": "_brokerbotRegistry",
          "type": "address"
        }
      ],
      "stateMutability": "nonpayable",
      "type": "constructor"
    },
    {
      "inputs": [
        {
          "internalType": "address",
          "name": "sender",
          "type": "address"
        }
      ],
      "name": "Ownable_NotOwner",
      "type": "error"
    },
    {
      "inputs": [],
      "name": "TokenRegistry__Unauthorized",
      "type": "error"
    },
    {
      "anonymous": false,
      "inputs": [
        {
          "indexed": false,
          "internalType": "contract BrokerbotRegistry",
          "name": "adr",
          "type": "address"
        }
      ],
      "name": "BrokerbotRegistryUpdated",
      "type": "event"
    },
    {
      "anonymous": false,
      "inputs": [
        {
          "indexed": true,
          "internalType": "address",
          "name": "previousOwner",
          "type": "address"
        },
        {
          "indexed": true,
          "internalType": "address",
          "name": "newOwner",
          "type": "address"
        }
      ],
      "name": "OwnershipTransferred",
      "type": "event"
    },
    {
      "anonymous": false,
      "inputs": [
        {
          "indexed": false,
          "internalType": "address",
          "name": "adr",
          "type": "address"
        }
      ],
      "name": "ShareTokenAdded",
      "type": "event"
    },
    {
      "anonymous": false,
      "inputs": [
        {
          "indexed": false,
          "internalType": "address",
          "name": "adr",
          "type": "address"
        }
      ],
      "name": "ShareTokenRemoved",
      "type": "event"
    },
    {
      "inputs": [
        {
          "internalType": "address",
          "name": "adr",
          "type": "address"
        }
      ],
      "name": "addShareToken",
      "outputs": [
        {
          "internalType": "bool",
          "name": "",
          "type": "bool"
        }
      ],
      "stateMutability": "nonpayable",
      "type": "function"
    },
    {
      "inputs": [],
      "name": "amountOfShareToken",
      "outputs": [
        {
          "internalType": "uint256",
          "name": "",
          "type": "uint256"
        }
      ],
      "stateMutability": "view",
      "type": "function"
    },
    {
      "inputs": [],
      "name": "brokerbotRegistry",
      "outputs": [
        {
          "internalType": "contract BrokerbotRegistry",
          "name": "",
          "type": "address"
        }
      ],
      "stateMutability": "view",
      "type": "function"
    },
    {
      "inputs": [
        {
          "internalType": "address",
          "name": "adr",
          "type": "address"
        }
      ],
      "name": "cointainsShareToken",
      "outputs": [
        {
          "internalType": "bool",
          "name": "",
          "type": "bool"
        }
      ],
      "stateMutability": "view",
      "type": "function"
    },
    {
      "inputs": [],
      "name": "getAllShareToken",
      "outputs": [
        {
          "internalType": "address[]",
          "name": "",
          "type": "address[]"
        }
      ],
      "stateMutability": "view",
      "type": "function"
    },
    {
      "inputs": [],
      "name": "owner",
      "outputs": [
        {
          "internalType": "address",
          "name": "",
          "type": "address"
        }
      ],
      "stateMutability": "view",
      "type": "function"
    },
    {
      "inputs": [
        {
          "internalType": "address",
          "name": "adr",
          "type": "address"
        }
      ],
      "name": "removeShareToken",
      "outputs": [
        {
          "internalType": "bool",
          "name": "",
          "type": "bool"
        }
      ],
      "stateMutability": "nonpayable",
      "type": "function"
    },
    {
      "inputs": [
        {
          "internalType": "contract BrokerbotRegistry",
          "name": "_brokerbotRegistry",
          "type": "address"
        }
      ],
      "name": "setBrokerbotRegistry",
      "outputs": [],
      "stateMutability": "nonpayable",
      "type": "function"
    },
    {
      "inputs": [
        {
          "internalType": "address",
          "name": "newOwner",
          "type": "address"
        }
      ],
      "name": "transferOwnership",
      "outputs": [],
      "stateMutability": "nonpayable",
      "type": "function"
    }
  ],
  "transactionHash": "0x12d74faab82931204fddec307b30573d76b3419b886f044e8e9f2dc3f21459c0",
  "args": [
    "0x447ffD9a116efb3D77f47802cc4869C3730f723C",
    "0xb4dC570b6Aa16d431771c0b01cB78029E0bE559e"
  ],
  "numDeployments": 1,
  "solcInputHash": "9075dcaa43b87f5f25553f1d48893652",
  "bytecode": "0x608060405234801561001057600080fd5b5060405161079538038061079583398101604081905261002f916100b6565b600080546001600160a01b0319166001600160a01b03841690811782556040518492907f8be0079c531659141344cd1fd0a4f28419497f9722a3daafe3b4186f6b6457e0908290a350600380546001600160a01b0319166001600160a01b0392909216919091179055506100f0565b6001600160a01b03811681146100b357600080fd5b50565b600080604083850312156100c957600080fd5b82516100d48161009e565b60208401519092506100e58161009e565b809150509250929050565b610696806100ff6000396000f3fe608060405234801561001057600080fd5b50600436106100935760003560e01c8063722417fa11610066578063722417fa146101165780638da5cb5b1461012b578063922e03411461013e578063c73a923114610151578063f2fde38b1461016457600080fd5b8063108f4d921461009857806312caccb0146100b35780634b07dff0146100c85780636473b107146100f3575b600080fd5b6100a0610177565b6040519081526020015b60405180910390f35b6100c66100c13660046105a9565b610188565b005b6003546100db906001600160a01b031681565b6040516001600160a01b0390911681526020016100aa565b6101066101013660046105a9565b6101e4565b60405190151581526020016100aa565b61011e610282565b6040516100aa91906105c6565b6000546100db906001600160a01b031681565b61010661014c3660046105a9565b61028e565b61010661015f3660046105a9565b61029b565b6100c66101723660046105a9565b6102f3565b60006101836001610356565b905090565b610190610360565b600380546001600160a01b0319166001600160a01b0383169081179091556040519081527f8505a344d55330f10fea7a22bcb9306aaf37f869d71897f28a2c12015d09f3759060200160405180910390a150565b600080546001600160a01b0316331480159061020b57506003546001600160a01b03163314155b156102295760405163e0536dc560e01b815260040160405180910390fd5b6000610236600184610393565b9050801561027c576040516001600160a01b03841681527f1348d9ad9d8e07acbfc7f2736471d69c114266906a35950eee33b78236645517906020015b60405180910390a15b92915050565b606061018360016103af565b600061027c6001836103bc565b60006102a5610360565b60006102b26001846103de565b9050801561027c576040516001600160a01b03841681527f5f18bd01993f97e6c096903334b98234a16920ce3b7d4d62a21897433b299d6d90602001610273565b6102fb610360565b600080546040516001600160a01b03808516939216917f8be0079c531659141344cd1fd0a4f28419497f9722a3daafe3b4186f6b6457e091a3600080546001600160a01b0319166001600160a01b0392909216919091179055565b600061027c825490565b6000546001600160a01b03163314610391576040516396a19be960e01b815233600482015260240160405180910390fd5b565b60006103a8836001600160a01b0384166103f3565b9392505050565b606060006103a883610442565b6001600160a01b038116600090815260018301602052604081205415156103a8565b60006103a8836001600160a01b03841661049e565b600081815260018301602052604081205461043a5750815460018181018455600084815260208082209093018490558454848252828601909352604090209190915561027c565b50600061027c565b60608160000180548060200260200160405190810160405280929190818152602001828054801561049257602002820191906000526020600020905b81548152602001906001019080831161047e575b50505050509050919050565b600081815260018301602052604081205480156105875760006104c2600183610613565b85549091506000906104d690600190610613565b905080821461053b5760008660000182815481106104f6576104f6610634565b906000526020600020015490508087600001848154811061051957610519610634565b6000918252602080832090910192909255918252600188019052604090208390555b855486908061054c5761054c61064a565b60019003818190600052602060002001600090559055856001016000868152602001908152602001600020600090556001935050505061027c565b600091505061027c565b6001600160a01b03811681146105a657600080fd5b50565b6000602082840312156105bb57600080fd5b81356103a881610591565b6020808252825182820181905260009190848201906040850190845b818110156106075783516001600160a01b0316835292840192918401916001016105e2565b50909695505050505050565b8181038181111561027c57634e487b7160e01b600052601160045260246000fd5b634e487b7160e01b600052603260045260246000fd5b634e487b7160e01b600052603160045260246000fdfea26469706673582212209ba9e09ca753f1965694bb51f00c3e0aabd636a9b201bb78691f332fa66ec6c564736f6c63430008190033",
  "devdoc": {
    "author": "rube-de",
    "details": "Only the contract owner or the BrokerbotRegistry contract can add tokens to the registry.",
    "errors": {
      "TokenRegistry__Unauthorized()": [
        {
          "details": "Error thrown when an unauthorized address tries to add a share token"
        }
      ]
    },
    "events": {
      "BrokerbotRegistryUpdated(address)": {
        "params": {
          "adr": "The new address of the BrokerbotRegistry contract"
        }
      },
      "ShareTokenAdded(address)": {
        "params": {
          "adr": "The address of the added share token"
        }
      },
      "ShareTokenRemoved(address)": {
        "params": {
          "adr": "The address of the removed share token"
        }
      }
    },
    "kind": "dev",
    "methods": {
      "addShareToken(address)": {
        "params": {
          "adr": "The address of the share token to be added"
        },
        "returns": {
          "_0": "bool True if the token was added successfully, false otherwise"
        }
      },
      "amountOfShareToken()": {
        "returns": {
          "_0": "uint256 The number of share tokens in the registry"
        }
      },
      "cointainsShareToken(address)": {
        "params": {
          "adr": "The address to check"
        },
        "returns": {
          "_0": "bool True if the address is a share token, false otherwise"
        }
      },
      "constructor": {
        "params": {
          "_brokerbotRegistry": "The address of the BrokerbotRegistry contract",
          "_owner": "The address of the contract owner"
        }
      },
      "getAllShareToken()": {
        "returns": {
          "_0": "address[] An array of share token addresses"
        }
      },
      "removeShareToken(address)": {
        "params": {
          "adr": "The address of the share token to be removed"
        },
        "returns": {
          "_0": "bool True if the token was removed successfully, false otherwise"
        }
      },
      "setBrokerbotRegistry(address)": {
        "params": {
          "_brokerbotRegistry": "The new address of the BrokerbotRegistry contract"
        }
      },
      "transferOwnership(address)": {
        "details": "Transfers ownership of the contract to a new account (`newOwner`). Can only be called by the current owner."
      }
    },
    "stateVariables": {
      "_shareTokenSet": {
        "details": "Set of share token addresses"
      },
      "brokerbotRegistry": {
        "details": "Address of the BrokerbotRegistry contract"
      }
    },
    "title": "TokenRegistry",
    "version": 1
  },
  "userdoc": {
    "events": {
      "BrokerbotRegistryUpdated(address)": {
        "notice": "Emitted when the BrokerbotRegistry address is updated"
      },
      "ShareTokenAdded(address)": {
        "notice": "Emitted when a new share token is added to the registry"
      },
      "ShareTokenRemoved(address)": {
        "notice": "Emitted when a share token is removed from the registry"
      }
    },
    "kind": "user",
    "methods": {
      "addShareToken(address)": {
        "notice": "Adds a new share token to the registry"
      },
      "amountOfShareToken()": {
        "notice": "Returns the number of share tokens in the registry"
      },
      "cointainsShareToken(address)": {
        "notice": "Checks if a given address is a share token in the registry"
      },
      "constructor": {
        "notice": "Constructor to set the contract owner and BrokerbotRegistry address"
      },
      "getAllShareToken()": {
        "notice": "Returns an array of all share token addresses in the registry"
      },
      "removeShareToken(address)": {
        "notice": "Removes a share token from the registry"
      },
      "setBrokerbotRegistry(address)": {
        "notice": "Updates the BrokerbotRegistry address"
      }
    },
    "notice": "This contract manages a registry of share tokens and allows adding/removing tokens from the registry.",
    "version": 1
  },
  "storageLayout": {
    "storage": [
      {
        "astId": 4850,
        "contract": "src/brokerbot/TokenRegistry.sol:TokenRegistry",
        "label": "owner",
        "offset": 0,
        "slot": "0",
        "type": "t_address"
      },
      {
        "astId": 4420,
        "contract": "src/brokerbot/TokenRegistry.sol:TokenRegistry",
        "label": "_shareTokenSet",
        "offset": 0,
        "slot": "1",
        "type": "t_struct(AddressSet)325_storage"
      },
      {
        "astId": 4424,
        "contract": "src/brokerbot/TokenRegistry.sol:TokenRegistry",
        "label": "brokerbotRegistry",
        "offset": 0,
        "slot": "3",
        "type": "t_contract(BrokerbotRegistry)2318"
      }
    ],
    "types": {
      "t_address": {
        "encoding": "inplace",
        "label": "address",
        "numberOfBytes": "20"
      },
      "t_array(t_bytes32)dyn_storage": {
        "base": "t_bytes32",
        "encoding": "dynamic_array",
        "label": "bytes32[]",
        "numberOfBytes": "32"
      },
      "t_bytes32": {
        "encoding": "inplace",
        "label": "bytes32",
        "numberOfBytes": "32"
      },
      "t_contract(BrokerbotRegistry)2318": {
        "encoding": "inplace",
        "label": "contract BrokerbotRegistry",
        "numberOfBytes": "20"
      },
      "t_mapping(t_bytes32,t_uint256)": {
        "encoding": "mapping",
        "key": "t_bytes32",
        "label": "mapping(bytes32 => uint256)",
        "numberOfBytes": "32",
        "value": "t_uint256"
      },
      "t_struct(AddressSet)325_storage": {
        "encoding": "inplace",
        "label": "struct EnumerableSet.AddressSet",
        "members": [
          {
            "astId": 324,
            "contract": "src/brokerbot/TokenRegistry.sol:TokenRegistry",
            "label": "_inner",
            "offset": 0,
            "slot": "0",
            "type": "t_struct(Set)10_storage"
          }
        ],
        "numberOfBytes": "64"
      },
      "t_struct(Set)10_storage": {
        "encoding": "inplace",
        "label": "struct EnumerableSet.Set",
        "members": [
          {
            "astId": 5,
            "contract": "src/brokerbot/TokenRegistry.sol:TokenRegistry",
            "label": "_values",
            "offset": 0,
            "slot": "0",
            "type": "t_array(t_bytes32)dyn_storage"
          },
          {
            "astId": 9,
            "contract": "src/brokerbot/TokenRegistry.sol:TokenRegistry",
            "label": "_positions",
            "offset": 0,
            "slot": "1",
            "type": "t_mapping(t_bytes32,t_uint256)"
          }
        ],
        "numberOfBytes": "64"
      },
      "t_uint256": {
        "encoding": "inplace",
        "label": "uint256",
        "numberOfBytes": "32"
      }
    }
  }
}