{
  "address": "0x95590998c2E30F3CfAAa9646691C86719dad0A26",
  "abi": [
    {
      "inputs": [
        {
          "internalType": "contract SignatureTransfer",
          "name": "_transfer",
          "type": "address"
        }
      ],
      "stateMutability": "nonpayable",
      "type": "constructor"
    },
    {
      "inputs": [],
      "name": "InvalidFiller",
      "type": "error"
    },
    {
      "inputs": [],
      "name": "OfferTooLow",
      "type": "error"
    },
    {
      "inputs": [],
      "name": "TokenMismatch",
      "type": "error"
    },
    {
      "anonymous": false,
      "inputs": [
        {
          "indexed": false,
          "internalType": "address",
          "name": "owner",
          "type": "address"
        },
        {
          "indexed": false,
          "internalType": "address",
          "name": "filler",
          "type": "address"
        },
        {
          "indexed": false,
          "internalType": "address",
          "name": "tokenOut",
          "type": "address"
        },
        {
          "indexed": false,
          "internalType": "uint160",
          "name": "amountOut",
          "type": "uint160"
        },
        {
          "indexed": false,
          "internalType": "address",
          "name": "tokenIn",
          "type": "address"
        },
        {
          "indexed": false,
          "internalType": "uint160",
          "name": "amountIn",
          "type": "uint160"
        },
        {
          "indexed": false,
          "internalType": "uint48",
          "name": "exp",
          "type": "uint48"
        },
        {
          "indexed": false,
          "internalType": "uint48",
          "name": "nonce",
          "type": "uint48"
        },
        {
          "indexed": false,
          "internalType": "bytes",
          "name": "data",
          "type": "bytes"
        },
        {
          "indexed": false,
          "internalType": "bytes",
          "name": "signature",
          "type": "bytes"
        }
      ],
      "name": "IntentSignal",
      "type": "event"
    },
    {
      "anonymous": false,
      "inputs": [
        {
          "indexed": false,
          "internalType": "address",
          "name": "seller",
          "type": "address"
        },
        {
          "indexed": false,
          "internalType": "address",
          "name": "buyer",
          "type": "address"
        },
        {
          "indexed": true,
          "internalType": "address",
          "name": "token",
          "type": "address"
        },
        {
          "indexed": false,
          "internalType": "uint256",
          "name": "amount",
          "type": "uint256"
        },
        {
          "indexed": false,
          "internalType": "address",
          "name": "currency",
          "type": "address"
        },
        {
          "indexed": false,
          "internalType": "uint256",
          "name": "price",
          "type": "uint256"
        },
        {
          "indexed": false,
          "internalType": "uint256",
          "name": "fee",
          "type": "uint256"
        }
      ],
      "name": "Trade",
      "type": "event"
    },
    {
      "inputs": [
        {
          "internalType": "contract PaymentHub",
          "name": "hub",
          "type": "address"
        },
        {
          "internalType": "contract IBrokerbot",
          "name": "bot",
          "type": "address"
        },
        {
          "components": [
            {
              "internalType": "address",
              "name": "owner",
              "type": "address"
            },
            {
              "internalType": "address",
              "name": "filler",
              "type": "address"
            },
            {
              "internalType": "address",
              "name": "tokenOut",
              "type": "address"
            },
            {
              "internalType": "uint160",
              "name": "amountOut",
              "type": "uint160"
            },
            {
              "internalType": "address",
              "name": "tokenIn",
              "type": "address"
            },
            {
              "internalType": "uint160",
              "name": "amountIn",
              "type": "uint160"
            },
            {
              "internalType": "uint48",
              "name": "expiration",
              "type": "uint48"
            },
            {
              "internalType": "uint48",
              "name": "nonce",
              "type": "uint48"
            },
            {
              "internalType": "bytes",
              "name": "data",
              "type": "bytes"
            }
          ],
          "internalType": "struct Intent",
          "name": "intent",
          "type": "tuple"
        },
        {
          "internalType": "bytes",
          "name": "signature",
          "type": "bytes"
        },
        {
          "internalType": "uint256",
          "name": "investAmount",
          "type": "uint256"
        }
      ],
      "name": "buyFromBrokerbot",
      "outputs": [
        {
          "internalType": "uint256",
          "name": "",
          "type": "uint256"
        }
      ],
      "stateMutability": "nonpayable",
      "type": "function"
    },
    {
      "inputs": [
        {
          "internalType": "contract IBrokerbot",
          "name": "bot",
          "type": "address"
        },
        {
          "components": [
            {
              "internalType": "address",
              "name": "owner",
              "type": "address"
            },
            {
              "internalType": "address",
              "name": "filler",
              "type": "address"
            },
            {
              "internalType": "address",
              "name": "tokenOut",
              "type": "address"
            },
            {
              "internalType": "uint160",
              "name": "amountOut",
              "type": "uint160"
            },
            {
              "internalType": "address",
              "name": "tokenIn",
              "type": "address"
            },
            {
              "internalType": "uint160",
              "name": "amountIn",
              "type": "uint160"
            },
            {
              "internalType": "uint48",
              "name": "expiration",
              "type": "uint48"
            },
            {
              "internalType": "uint48",
              "name": "nonce",
              "type": "uint48"
            },
            {
              "internalType": "bytes",
              "name": "data",
              "type": "bytes"
            }
          ],
          "internalType": "struct Intent",
          "name": "intent",
          "type": "tuple"
        },
        {
          "internalType": "bytes",
          "name": "signature",
          "type": "bytes"
        },
        {
          "internalType": "uint256",
          "name": "amount",
          "type": "uint256"
        }
      ],
      "name": "buyFromBrokerbot",
      "outputs": [
        {
          "internalType": "uint256",
          "name": "",
          "type": "uint256"
        }
      ],
      "stateMutability": "nonpayable",
      "type": "function"
    },
    {
      "inputs": [
        {
          "components": [
            {
              "internalType": "address",
              "name": "owner",
              "type": "address"
            },
            {
              "internalType": "address",
              "name": "filler",
              "type": "address"
            },
            {
              "internalType": "address",
              "name": "tokenOut",
              "type": "address"
            },
            {
              "internalType": "uint160",
              "name": "amountOut",
              "type": "uint160"
            },
            {
              "internalType": "address",
              "name": "tokenIn",
              "type": "address"
            },
            {
              "internalType": "uint160",
              "name": "amountIn",
              "type": "uint160"
            },
            {
              "internalType": "uint48",
              "name": "expiration",
              "type": "uint48"
            },
            {
              "internalType": "uint48",
              "name": "nonce",
              "type": "uint48"
            },
            {
              "internalType": "bytes",
              "name": "data",
              "type": "bytes"
            }
          ],
          "internalType": "struct Intent",
          "name": "intent",
          "type": "tuple"
        },
        {
          "internalType": "uint256",
          "name": "amount",
          "type": "uint256"
        }
      ],
      "name": "getAsk",
      "outputs": [
        {
          "internalType": "uint256",
          "name": "",
          "type": "uint256"
        }
      ],
      "stateMutability": "pure",
      "type": "function"
    },
    {
      "inputs": [
        {
          "components": [
            {
              "internalType": "address",
              "name": "owner",
              "type": "address"
            },
            {
              "internalType": "address",
              "name": "filler",
              "type": "address"
            },
            {
              "internalType": "address",
              "name": "tokenOut",
              "type": "address"
            },
            {
              "internalType": "uint160",
              "name": "amountOut",
              "type": "uint160"
            },
            {
              "internalType": "address",
              "name": "tokenIn",
              "type": "address"
            },
            {
              "internalType": "uint160",
              "name": "amountIn",
              "type": "uint160"
            },
            {
              "internalType": "uint48",
              "name": "expiration",
              "type": "uint48"
            },
            {
              "internalType": "uint48",
              "name": "nonce",
              "type": "uint48"
            },
            {
              "internalType": "bytes",
              "name": "data",
              "type": "bytes"
            }
          ],
          "internalType": "struct Intent",
          "name": "intent",
          "type": "tuple"
        },
        {
          "internalType": "uint256",
          "name": "amount",
          "type": "uint256"
        }
      ],
      "name": "getBid",
      "outputs": [
        {
          "internalType": "uint256",
          "name": "",
          "type": "uint256"
        }
      ],
      "stateMutability": "pure",
      "type": "function"
    },
    {
      "inputs": [
        {
          "components": [
            {
              "internalType": "address",
              "name": "owner",
              "type": "address"
            },
            {
              "internalType": "address",
              "name": "filler",
              "type": "address"
            },
            {
              "internalType": "address",
              "name": "tokenOut",
              "type": "address"
            },
            {
              "internalType": "uint160",
              "name": "amountOut",
              "type": "uint160"
            },
            {
              "internalType": "address",
              "name": "tokenIn",
              "type": "address"
            },
            {
              "internalType": "uint160",
              "name": "amountIn",
              "type": "uint160"
            },
            {
              "internalType": "uint48",
              "name": "expiration",
              "type": "uint48"
            },
            {
              "internalType": "uint48",
              "name": "nonce",
              "type": "uint48"
            },
            {
              "internalType": "bytes",
              "name": "data",
              "type": "bytes"
            }
          ],
          "internalType": "struct Intent",
          "name": "sellerIntent",
          "type": "tuple"
        },
        {
          "components": [
            {
              "internalType": "address",
              "name": "owner",
              "type": "address"
            },
            {
              "internalType": "address",
              "name": "filler",
              "type": "address"
            },
            {
              "internalType": "address",
              "name": "tokenOut",
              "type": "address"
            },
            {
              "internalType": "uint160",
              "name": "amountOut",
              "type": "uint160"
            },
            {
              "internalType": "address",
              "name": "tokenIn",
              "type": "address"
            },
            {
              "internalType": "uint160",
              "name": "amountIn",
              "type": "uint160"
            },
            {
              "internalType": "uint48",
              "name": "expiration",
              "type": "uint48"
            },
            {
              "internalType": "uint48",
              "name": "nonce",
              "type": "uint48"
            },
            {
              "internalType": "bytes",
              "name": "data",
              "type": "bytes"
            }
          ],
          "internalType": "struct Intent",
          "name": "buyerIntent",
          "type": "tuple"
        }
      ],
      "name": "getMaxValidAmount",
      "outputs": [
        {
          "internalType": "uint256",
          "name": "",
          "type": "uint256"
        }
      ],
      "stateMutability": "view",
      "type": "function"
    },
    {
      "inputs": [
        {
          "internalType": "address",
          "name": "feeRecipient",
          "type": "address"
        },
        {
          "components": [
            {
              "internalType": "address",
              "name": "owner",
              "type": "address"
            },
            {
              "internalType": "address",
              "name": "filler",
              "type": "address"
            },
            {
              "internalType": "address",
              "name": "tokenOut",
              "type": "address"
            },
            {
              "internalType": "uint160",
              "name": "amountOut",
              "type": "uint160"
            },
            {
              "internalType": "address",
              "name": "tokenIn",
              "type": "address"
            },
            {
              "internalType": "uint160",
              "name": "amountIn",
              "type": "uint160"
            },
            {
              "internalType": "uint48",
              "name": "expiration",
              "type": "uint48"
            },
            {
              "internalType": "uint48",
              "name": "nonce",
              "type": "uint48"
            },
            {
              "internalType": "bytes",
              "name": "data",
              "type": "bytes"
            }
          ],
          "internalType": "struct Intent",
          "name": "sellerIntent",
          "type": "tuple"
        },
        {
          "internalType": "bytes",
          "name": "sellerSig",
          "type": "bytes"
        },
        {
          "components": [
            {
              "internalType": "address",
              "name": "owner",
              "type": "address"
            },
            {
              "internalType": "address",
              "name": "filler",
              "type": "address"
            },
            {
              "internalType": "address",
              "name": "tokenOut",
              "type": "address"
            },
            {
              "internalType": "uint160",
              "name": "amountOut",
              "type": "uint160"
            },
            {
              "internalType": "address",
              "name": "tokenIn",
              "type": "address"
            },
            {
              "internalType": "uint160",
              "name": "amountIn",
              "type": "uint160"
            },
            {
              "internalType": "uint48",
              "name": "expiration",
              "type": "uint48"
            },
            {
              "internalType": "uint48",
              "name": "nonce",
              "type": "uint48"
            },
            {
              "internalType": "bytes",
              "name": "data",
              "type": "bytes"
            }
          ],
          "internalType": "struct Intent",
          "name": "buyerIntent",
          "type": "tuple"
        },
        {
          "internalType": "bytes",
          "name": "buyerSig",
          "type": "bytes"
        },
        {
          "internalType": "uint256",
          "name": "amount",
          "type": "uint256"
        }
      ],
      "name": "process",
      "outputs": [],
      "stateMutability": "nonpayable",
      "type": "function"
    },
    {
      "inputs": [
        {
          "internalType": "address",
          "name": "feeRecipient",
          "type": "address"
        },
        {
          "components": [
            {
              "internalType": "address",
              "name": "owner",
              "type": "address"
            },
            {
              "internalType": "address",
              "name": "filler",
              "type": "address"
            },
            {
              "internalType": "address",
              "name": "tokenOut",
              "type": "address"
            },
            {
              "internalType": "uint160",
              "name": "amountOut",
              "type": "uint160"
            },
            {
              "internalType": "address",
              "name": "tokenIn",
              "type": "address"
            },
            {
              "internalType": "uint160",
              "name": "amountIn",
              "type": "uint160"
            },
            {
              "internalType": "uint48",
              "name": "expiration",
              "type": "uint48"
            },
            {
              "internalType": "uint48",
              "name": "nonce",
              "type": "uint48"
            },
            {
              "internalType": "bytes",
              "name": "data",
              "type": "bytes"
            }
          ],
          "internalType": "struct Intent",
          "name": "sellerIntent",
          "type": "tuple"
        },
        {
          "internalType": "bytes",
          "name": "sellerSig",
          "type": "bytes"
        },
        {
          "components": [
            {
              "internalType": "address",
              "name": "owner",
              "type": "address"
            },
            {
              "internalType": "address",
              "name": "filler",
              "type": "address"
            },
            {
              "internalType": "address",
              "name": "tokenOut",
              "type": "address"
            },
            {
              "internalType": "uint160",
              "name": "amountOut",
              "type": "uint160"
            },
            {
              "internalType": "address",
              "name": "tokenIn",
              "type": "address"
            },
            {
              "internalType": "uint160",
              "name": "amountIn",
              "type": "uint160"
            },
            {
              "internalType": "uint48",
              "name": "expiration",
              "type": "uint48"
            },
            {
              "internalType": "uint48",
              "name": "nonce",
              "type": "uint48"
            },
            {
              "internalType": "bytes",
              "name": "data",
              "type": "bytes"
            }
          ],
          "internalType": "struct Intent",
          "name": "buyerIntent",
          "type": "tuple"
        },
        {
          "internalType": "bytes",
          "name": "buyerSig",
          "type": "bytes"
        }
      ],
      "name": "process",
      "outputs": [],
      "stateMutability": "nonpayable",
      "type": "function"
    },
    {
      "inputs": [
        {
          "internalType": "contract IBrokerbot",
          "name": "bot",
          "type": "address"
        },
        {
          "components": [
            {
              "internalType": "address",
              "name": "owner",
              "type": "address"
            },
            {
              "internalType": "address",
              "name": "filler",
              "type": "address"
            },
            {
              "internalType": "address",
              "name": "tokenOut",
              "type": "address"
            },
            {
              "internalType": "uint160",
              "name": "amountOut",
              "type": "uint160"
            },
            {
              "internalType": "address",
              "name": "tokenIn",
              "type": "address"
            },
            {
              "internalType": "uint160",
              "name": "amountIn",
              "type": "uint160"
            },
            {
              "internalType": "uint48",
              "name": "expiration",
              "type": "uint48"
            },
            {
              "internalType": "uint48",
              "name": "nonce",
              "type": "uint48"
            },
            {
              "internalType": "bytes",
              "name": "data",
              "type": "bytes"
            }
          ],
          "internalType": "struct Intent",
          "name": "intent",
          "type": "tuple"
        },
        {
          "internalType": "bytes",
          "name": "signature",
          "type": "bytes"
        },
        {
          "internalType": "uint256",
          "name": "soldShares",
          "type": "uint256"
        }
      ],
      "name": "sellToBrokerbot",
      "outputs": [
        {
          "internalType": "uint256",
          "name": "",
          "type": "uint256"
        }
      ],
      "stateMutability": "nonpayable",
      "type": "function"
    },
    {
      "inputs": [
        {
          "internalType": "contract PaymentHub",
          "name": "hub",
          "type": "address"
        },
        {
          "internalType": "contract IBrokerbot",
          "name": "bot",
          "type": "address"
        },
        {
          "components": [
            {
              "internalType": "address",
              "name": "owner",
              "type": "address"
            },
            {
              "internalType": "address",
              "name": "filler",
              "type": "address"
            },
            {
              "internalType": "address",
              "name": "tokenOut",
              "type": "address"
            },
            {
              "internalType": "uint160",
              "name": "amountOut",
              "type": "uint160"
            },
            {
              "internalType": "address",
              "name": "tokenIn",
              "type": "address"
            },
            {
              "internalType": "uint160",
              "name": "amountIn",
              "type": "uint160"
            },
            {
              "internalType": "uint48",
              "name": "expiration",
              "type": "uint48"
            },
            {
              "internalType": "uint48",
              "name": "nonce",
              "type": "uint48"
            },
            {
              "internalType": "bytes",
              "name": "data",
              "type": "bytes"
            }
          ],
          "internalType": "struct Intent",
          "name": "intent",
          "type": "tuple"
        },
        {
          "internalType": "bytes",
          "name": "signature",
          "type": "bytes"
        },
        {
          "internalType": "uint256",
          "name": "soldShares",
          "type": "uint256"
        }
      ],
      "name": "sellToBrokerbot",
      "outputs": [
        {
          "internalType": "uint256",
          "name": "",
          "type": "uint256"
        }
      ],
      "stateMutability": "nonpayable",
      "type": "function"
    },
    {
      "inputs": [
        {
          "components": [
            {
              "internalType": "address",
              "name": "owner",
              "type": "address"
            },
            {
              "internalType": "address",
              "name": "filler",
              "type": "address"
            },
            {
              "internalType": "address",
              "name": "tokenOut",
              "type": "address"
            },
            {
              "internalType": "uint160",
              "name": "amountOut",
              "type": "uint160"
            },
            {
              "internalType": "address",
              "name": "tokenIn",
              "type": "address"
            },
            {
              "internalType": "uint160",
              "name": "amountIn",
              "type": "uint160"
            },
            {
              "internalType": "uint48",
              "name": "expiration",
              "type": "uint48"
            },
            {
              "internalType": "uint48",
              "name": "nonce",
              "type": "uint48"
            },
            {
              "internalType": "bytes",
              "name": "data",
              "type": "bytes"
            }
          ],
          "internalType": "struct Intent",
          "name": "intent",
          "type": "tuple"
        },
        {
          "internalType": "bytes",
          "name": "signature",
          "type": "bytes"
        }
      ],
      "name": "signalIntent",
      "outputs": [],
      "stateMutability": "nonpayable",
      "type": "function"
    },
    {
      "inputs": [],
      "name": "transfer",
      "outputs": [
        {
          "internalType": "contract SignatureTransfer",
          "name": "",
          "type": "address"
        }
      ],
      "stateMutability": "view",
      "type": "function"
    }
  ],
  "transactionHash": "0x49a1e54a95388503db54037fd4a4db4b34ab8360f94b05a8e5bb002cfc92ba03",
  "args": [
    "0x7F32339263906f639e2a883603ff88C2658451d2"
  ],
  "numDeployments": 1,
  "solcInputHash": "3e473bf99a1e7b7e4b3feb6552bf7ee8",
  "bytecode": "0x60a0604052348015600f57600080fd5b50604051611e4b380380611e4b833981016040819052602c91603c565b6001600160a01b0316608052606a565b600060208284031215604d57600080fd5b81516001600160a01b0381168114606357600080fd5b9392505050565b608051611d9c6100af60003960008181610160015281816101cc01528181610514015281816105be0152818161091101528181610a0d0152610f120152611d9c6000f3fe608060405234801561001057600080fd5b50600436106100a95760003560e01c80633eae8237116100715780633eae8237146101205780634e03ba4b14610135578063548d4051146101485780638a4068dd1461015b578063befbde5d1461019a578063ebc0a967146101ad57600080fd5b806303ae7bd3146100ae57806305cc7606146100d45780631424404e146100e7578063214fe96c146100fa578063294623ce1461010d575b600080fd5b6100c16100bc3660046112df565b6101c0565b6040519081526020015b60405180910390f35b6100c16100e2366004611377565b610426565b6100c16100f5366004611377565b610478565b6100c16101083660046113bc565b610507565b6100c161011b366004611420565b610704565b61013361012e3660046114b1565b61077f565b005b610133610143366004611582565b610da4565b6100c1610156366004611420565b610dc1565b6101827f000000000000000000000000000000000000000000000000000000000000000081565b6040516001600160a01b0390911681526020016100cb565b6101336101a836600461164e565b610e32565b6100c16101bb3660046112df565b610f06565b60006001600160a01b037f0000000000000000000000000000000000000000000000000000000000000000166330f28b7a61027a6101fd8861179a565b6040805160a0810182526000606082018181526080830182905282526020820181905291810191909152506040805160a081018252828201516001600160a01b0390811660608084019182528501519091166080830152815260e083015165ffffffffffff908116602083015260c0909301519092169082015290565b61028430866110e4565b61029160208a018a61186d565b88886040518663ffffffff1660e01b81526004016102b39594939291906118f0565b600060405180830381600087803b1580156102cd57600080fd5b505af11580156102e1573d6000803e3d6000fd5b506102f692505050606086016040870161186d565b60405163095ea7b360e01b81526001600160a01b03898116600483015260248201859052919091169063095ea7b3906044016020604051808303816000875af1158015610347573d6000803e3d6000fd5b505050506040513d601f19601f8201168201806040525081019061036b9190611948565b5060006001600160a01b0388166317f565d2888561038d6101008b018b61196a565b6040518563ffffffff1660e01b81526004016103ac94939291906119b1565b6020604051808303816000875af11580156103cb573d6000803e3d6000fd5b505050506040513d601f19601f820116820180604052508101906103ef91906119d9565b90506103fb8682610426565b83111561041b576040516372351e5360e01b815260040160405180910390fd5b979650505050505050565b600061043860c0840160a0850161186d565b6001600160a01b031682610452608086016060870161186d565b6001600160a01b03166104659190611a08565b61046f9190611a1f565b90505b92915050565b600061048a608084016060850161186d565b6001600160a01b0316826104a4608086016060870161186d565b6001600160a01b03166104b79190611a41565b6104c760c0860160a0870161186d565b6001600160a01b03166104da9190611a08565b6104e49190611a1f565b6104f460c0850160a0860161186d565b6001600160a01b031661046f9190611a41565b6000806001600160a01b037f000000000000000000000000000000000000000000000000000000000000000016639f098293610546602087018761186d565b6105526101fd8861179a565b6040518363ffffffff1660e01b815260040161056f929190611a54565b602060405180830381865afa15801561058c573d6000803e3d6000fd5b505050506040513d601f19601f820116820180604052508101906105b091906119d9565b905060006001600160a01b037f000000000000000000000000000000000000000000000000000000000000000016639f0982936105f0602087018761186d565b6105fc6101fd8861179a565b6040518363ffffffff1660e01b8152600401610619929190611a54565b602060405180830381865afa158015610636573d6000803e3d6000fd5b505050506040513d601f19601f8201168201806040525081019061065a91906119d9565b9050600061066e608086016060870161186d565b6001600160a01b03168261068860c0880160a0890161186d565b6001600160a01b031661069b9190611a08565b6106a59190611a1f565b905060008382116106b657816106b8565b835b905060006106c68883610478565b905060006106d48884610426565b9050818110156106f7576040516372351e5360e01b815260040160405180910390fd5b5090979650505050505050565b6000610775866001600160a01b031663777adcf06040518163ffffffff1660e01b8152600401602060405180830381865afa158015610747573d6000803e3d6000fd5b505050506040513d601f19601f8201168201806040525081019061076b9190611a71565b87878787876101c0565b9695505050505050565b61078f60a085016080860161186d565b6001600160a01b03166107a86060890160408a0161186d565b6001600160a01b03161415806107ee57506107c9606085016040860161186d565b6001600160a01b03166107e260a0890160808a0161186d565b6001600160a01b031614155b1561080c5760405163936bb5ad60e01b815260040160405180910390fd5b600061081e6040890160208a0161186d565b6001600160a01b03161415801561084d5750336108416040890160208a0161186d565b6001600160a01b031614155b1561086b5760405163017ae39960e11b815260040160405180910390fd5b600061087d604086016020870161186d565b6001600160a01b0316141580156108ac5750336108a0604086016020870161186d565b6001600160a01b031614155b156108ca5760405163017ae39960e11b815260040160405180910390fd5b60006108d68883610478565b905060006108e48684610426565b905081811015610907576040516372351e5360e01b815260040160405180910390fd5b6001600160a01b037f00000000000000000000000000000000000000000000000000000000000000001663137c29fe6109426101fd8c61179a565b61094c30876110e4565b61095960208e018e61186d565b6109628e611115565b60405160200161097190611a8e565b60408051601f1981840301815260608301909152602e808352909190611d3960208301396040516020016109a6929190611ba1565b6040516020818303038152906040528e8e6040518863ffffffff1660e01b81526004016109d99796959493929190611bee565b600060405180830381600087803b1580156109f357600080fd5b505af1158015610a07573d6000803e3d6000fd5b505050507f00000000000000000000000000000000000000000000000000000000000000006001600160a01b031663137c29fe610a47886101fd9061179a565b610a5130856110e4565b610a5e60208b018b61186d565b610a678b611115565b604051602001610a7690611a8e565b60408051601f1981840301815260608301909152602e808352909190611d396020830139604051602001610aab929190611ba1565b6040516020818303038152906040528b8b6040518863ffffffff1660e01b8152600401610ade9796959493929190611bee565b600060405180830381600087803b158015610af857600080fd5b505af1158015610b0c573d6000803e3d6000fd5b50610b219250505060608a0160408b0161186d565b6001600160a01b031663a9059cbb610b3c602089018961186d565b6040516001600160e01b031960e084901b1681526001600160a01b039091166004820152602481018690526044016020604051808303816000875af1158015610b89573d6000803e3d6000fd5b505050506040513d601f19601f82011682018060405250810190610bad9190611948565b50610bbe60a08a0160808b0161186d565b6001600160a01b031663a9059cbb610bd960208c018c61186d565b6040516001600160e01b031960e084901b1681526001600160a01b039091166004820152602481018590526044016020604051808303816000875af1158015610c26573d6000803e3d6000fd5b505050506040513d601f19601f82011682018060405250810190610c4a9190611948565b50610c5b60a08a0160808b0161186d565b6001600160a01b031663a9059cbb8b610c748585611a41565b6040516001600160e01b031960e085901b1681526001600160a01b03909216600483015260248201526044016020604051808303816000875af1158015610cbf573d6000803e3d6000fd5b505050506040513d601f19601f82011682018060405250810190610ce39190611948565b50610cf460608a0160408b0161186d565b6001600160a01b03167f8a181b821b6fbc45fb158a5ade70964c9d58849c1ac3cd4078aa9cff7f5d2049610d2b60208c018c61186d565b610d3860208a018a61186d565b868d6080016020810190610d4c919061186d565b87610d578189611a41565b604080516001600160a01b039788168152958716602087015285019390935293166060830152608082019290925260a081019190915260c00160405180910390a250505050505050505050565b610db88787878787878761012e8e8c610507565b50505050505050565b6000610775866001600160a01b031663777adcf06040518163ffffffff1660e01b8152600401602060405180830381865afa158015610e04573d6000803e3d6000fd5b505050506040513d601f19601f82011682018060405250810190610e289190611a71565b8787878787610f06565b7f64d58e5a032b3dff51a1bebcb1818be4d39cf1e8a658e3ca52bba8542b638224610e60602085018561186d565b610e70604086016020870161186d565b610e80606087016040880161186d565b610e90608088016060890161186d565b610ea060a0890160808a0161186d565b610eb060c08a0160a08b0161186d565b610ec060e08b0160c08c01611c81565b610ed16101008c0160e08d01611c81565b610edf6101008d018d61196a565b8c8c604051610ef99c9b9a99989796959493929190611c9c565b60405180910390a1505050565b60006001600160a01b037f0000000000000000000000000000000000000000000000000000000000000000166330f28b7a610f436101fd8861179a565b610f4d30866110e4565b610f5a60208a018a61186d565b88886040518663ffffffff1660e01b8152600401610f7c9594939291906118f0565b600060405180830381600087803b158015610f9657600080fd5b505af1158015610faa573d6000803e3d6000fd5b50610fbf92505050606086016040870161186d565b60405163095ea7b360e01b81526001600160a01b03898116600483015260248201859052919091169063095ea7b3906044016020604051808303816000875af1158015611010573d6000803e3d6000fd5b505050506040513d601f19601f820116820180604052508101906110349190611948565b5060006001600160a01b0388166317f565d288856110566101008b018b61196a565b6040518563ffffffff1660e01b815260040161107594939291906119b1565b6020604051808303816000875af1158015611094573d6000803e3d6000fd5b505050506040513d601f19601f820116820180604052508101906110b891906119d9565b90506110c48682610478565b81101561041b576040516372351e5360e01b815260040160405180910390fd5b604080518082018252600080825260209182015281518083019092526001600160a01b039390931681529182015290565b600060405160200161112690611a8e565b60408051601f1981840301815291905280516020918201209061114b9084018461186d565b61115b604085016020860161186d565b61116b606086016040870161186d565b61117b608087016060880161186d565b61118b60a088016080890161186d565b61119b60c0890160a08a0161186d565b6111ab60e08a0160c08b01611c81565b6111bc6101008b0160e08c01611c81565b6111ca6101008c018c61196a565b6040516111d8929190611d28565b60408051918290038220602083019b909b526001600160a01b03998a16908201529688166060880152948716608087015292861660a086015290851660c085015290931660e083015265ffffffffffff9283166101008301529190911661012082015261014081019190915261016001604051602081830303815290604052805190602001209050919050565b6001600160a01b038116811461127a57600080fd5b50565b6000610120828403121561129057600080fd5b50919050565b60008083601f8401126112a857600080fd5b50813567ffffffffffffffff8111156112c057600080fd5b6020830191508360208285010111156112d857600080fd5b9250929050565b60008060008060008060a087890312156112f857600080fd5b863561130381611265565b9550602087013561131381611265565b9450604087013567ffffffffffffffff8082111561133057600080fd5b61133c8a838b0161127d565b9550606089013591508082111561135257600080fd5b5061135f89828a01611296565b979a9699509497949695608090950135949350505050565b6000806040838503121561138a57600080fd5b823567ffffffffffffffff8111156113a157600080fd5b6113ad8582860161127d565b95602094909401359450505050565b600080604083850312156113cf57600080fd5b823567ffffffffffffffff808211156113e757600080fd5b6113f38683870161127d565b9350602085013591508082111561140957600080fd5b506114168582860161127d565b9150509250929050565b60008060008060006080868803121561143857600080fd5b853561144381611265565b9450602086013567ffffffffffffffff8082111561146057600080fd5b61146c89838a0161127d565b9550604088013591508082111561148257600080fd5b5061148f88828901611296565b96999598509660600135949350505050565b80356114ac81611265565b919050565b60008060008060008060008060c0898b0312156114cd57600080fd5b6114d6896114a1565b9750602089013567ffffffffffffffff808211156114f357600080fd5b6114ff8c838d0161127d565b985060408b013591508082111561151557600080fd5b6115218c838d01611296565b909850965060608b013591508082111561153a57600080fd5b6115468c838d0161127d565b955060808b013591508082111561155c57600080fd5b506115698b828c01611296565b999c989b50969995989497949560a00135949350505050565b600080600080600080600060a0888a03121561159d57600080fd5b87356115a881611265565b9650602088013567ffffffffffffffff808211156115c557600080fd5b6115d18b838c0161127d565b975060408a01359150808211156115e757600080fd5b6115f38b838c01611296565b909750955060608a013591508082111561160c57600080fd5b6116188b838c0161127d565b945060808a013591508082111561162e57600080fd5b5061163b8a828b01611296565b989b979a50959850939692959293505050565b60008060006040848603121561166357600080fd5b833567ffffffffffffffff8082111561167b57600080fd5b6116878783880161127d565b9450602086013591508082111561169d57600080fd5b506116aa86828701611296565b9497909650939450505050565b634e487b7160e01b600052604160045260246000fd5b604051610120810167ffffffffffffffff811182821017156116f1576116f16116b7565b60405290565b803565ffffffffffff811681146114ac57600080fd5b600082601f83011261171e57600080fd5b813567ffffffffffffffff80821115611739576117396116b7565b604051601f8301601f19908116603f01168101908282118183101715611761576117616116b7565b8160405283815286602085880101111561177a57600080fd5b836020870160208301376000602085830101528094505050505092915050565b600061012082360312156117ad57600080fd5b6117b56116cd565b6117be836114a1565b81526117cc602084016114a1565b60208201526117dd604084016114a1565b60408201526117ee606084016114a1565b60608201526117ff608084016114a1565b608082015261181060a084016114a1565b60a082015261182160c084016116f7565b60c082015261183260e084016116f7565b60e08201526101008084013567ffffffffffffffff81111561185357600080fd5b61185f3682870161170d565b918301919091525092915050565b60006020828403121561187f57600080fd5b813561188a81611265565b9392505050565b6118af82825180516001600160a01b03168252602090810151910152565b60208101516040830152604081015160608301525050565b81835281816020850137506000828201602090810191909152601f909101601f19169091010190565b60006101006118ff8389611891565b86516001600160a01b03166080840152602087015160a08401526001600160a01b03861660c084015260e0830181905261193c81840185876118c7565b98975050505050505050565b60006020828403121561195a57600080fd5b8151801515811461188a57600080fd5b6000808335601e1984360301811261198157600080fd5b83018035915067ffffffffffffffff82111561199c57600080fd5b6020019150368190038213156112d857600080fd5b60018060a01b03851681528360208201526060604082015260006107756060830184866118c7565b6000602082840312156119eb57600080fd5b5051919050565b634e487b7160e01b600052601160045260246000fd5b8082028115828204841417610472576104726119f2565b600082611a3c57634e487b7160e01b600052601260045260246000fd5b500490565b81810381811115610472576104726119f2565b6001600160a01b038316815260a0810161188a6020830184611891565b600060208284031215611a8357600080fd5b815161188a81611265565b66092dce8cadce8560cb1b81526d1859191c995cdcc81bdddb995c8b60921b60078201526e1859191c995cdcc8199a5b1b195c8b608a1b6015820152701859191c995cdcc81d1bdad95b93dd5d0b607a1b6024820152711d5a5b9d0c4d8c08185b5bdd5b9d13dd5d0b60721b60358201526f1859191c995cdcc81d1bdad95b925b8b60821b6047820152701d5a5b9d0c4d8c08185b5bdd5b9d125b8b607a1b6057820152711d5a5b9d0d0e08195e1c1a5c985d1a5bdb8b60721b60688201526c1d5a5b9d0d0e081b9bdb98d94b609a1b607a8201526a627974657320646174612960a81b608782015260920190565b60005b83811015611b98578181015183820152602001611b80565b50506000910152565b6e496e74656e74207769746e6573732960881b815260008351611bcb81600f850160208801611b7d565b835190830190611be281600f840160208801611b7d565b01600f01949350505050565b6000610140611bfd838b611891565b88516001600160a01b03166080840152602089015160a08401526001600160a01b03881660c084015260e083018790526101008301819052855190830181905261016090611c518183860160208a01611b7d565b601f01601f191683018381038201610120850152611c7282820186886118c7565b9b9a5050505050505050505050565b600060208284031215611c9357600080fd5b61046f826116f7565b6001600160a01b038d811682528c811660208301528b811660408301528a811660608301528981166080830152881660a082015265ffffffffffff87811660c0830152861660e08201526101406101008201819052600090611d0190830186886118c7565b828103610120840152611d158185876118c7565b9f9e505050505050505050505050505050565b818382376000910190815291905056fe546f6b656e5065726d697373696f6e73286164647265737320746f6b656e2c75696e7432353620616d6f756e7429a26469706673582212202eb261fcce0071f3e5f19cc2c338ccab551a2785dd32fcee86005412e467796164736f6c63430008190033",
  "devdoc": {
    "details": "This contract uses the SignatureTransfer contract for secure transfers with signatures.",
    "events": {
      "IntentSignal(address,address,address,uint160,address,uint160,uint48,uint48,bytes,bytes)": {
        "details": "Emitted when an intent to trade is signaled.",
        "params": {
          "amountIn": "The amount of the tokenIn the owner wants to receive.",
          "amountOut": "The amount of the tokenOut the owner wants to sell or exchange.",
          "data": "Additional data that may be used in the trade execution.",
          "exp": "The expiration time of the intent.",
          "filler": "The address of the filler, if any, that the intent is specifically directed to.",
          "nonce": "A nonce to ensure the uniqueness of the intent.",
          "owner": "The address of the intent owner.",
          "signature": "The signature of the owner authorizing the intent.",
          "tokenIn": "The address of the token the owner wants to receive in exchange.",
          "tokenOut": "The address of the token the owner wants to sell or exchange."
        }
      }
    },
    "kind": "dev",
    "methods": {
      "buyFromBrokerbot(address,(address,address,address,uint160,address,uint160,uint48,uint48,bytes),bytes,uint256)": {
        "details": "This function allows a user to buy tokens from a Brokerbot by transferring the specified amount of investment token to the Brokerbot and receiving the purchased tokens in return. The function ensures that the offer is not too low by comparing the invested amount to the bid price.",
        "params": {
          "amount": "The amount of tokens to invest in the purchase.",
          "bot": "The Brokerbot from which tokens are being bought.",
          "intent": "The trade intent data structure.",
          "signature": "The signature of the intent owner."
        },
        "returns": {
          "_0": "The amount of tokens received from the Brokerbot."
        }
      },
      "buyFromBrokerbot(address,address,(address,address,address,uint160,address,uint160,uint48,uint48,bytes),bytes,uint256)": {
        "details": "This function allows a user to buy tokens from a Brokerbot through a specified PaymentHub. It transfers the specified amount of investment token to the Brokerbot and receives the purchased tokens in return. The function ensures that the offer is not too low by comparing the invested amount to the bid price.",
        "params": {
          "bot": "The Brokerbot from which tokens are being bought.",
          "hub": "The PaymentHub through which the transaction is processed.",
          "intent": "The trade intent data structure.",
          "investAmount": "The amount of tokens to invest in the purchase.",
          "signature": "The signature of the intent owner."
        },
        "returns": {
          "_0": "The amount of tokens received from the Brokerbot."
        }
      },
      "getAsk((address,address,address,uint160,address,uint160,uint48,uint48,bytes),uint256)": {
        "details": "Ideally called with an intent where tokenIn is a currency with many (e.g. 18) decimals.TokenOut can have very few decimals.",
        "params": {
          "amount": "The amount of tokenOut.",
          "intent": "The trade intent data structure."
        },
        "returns": {
          "_0": "The calculated asking price."
        }
      },
      "getBid((address,address,address,uint160,address,uint160,uint48,uint48,bytes),uint256)": {
        "details": "Ideally called with an intent where tokenOut is a currency with many (e.g. 18) decimals.TokenIn can have very few decimals.",
        "params": {
          "amount": "The amount of tokenIn.",
          "intent": "The trade intent data structure."
        },
        "returns": {
          "_0": "The calculated bidding price."
        }
      },
      "getMaxValidAmount((address,address,address,uint160,address,uint160,uint48,uint48,bytes),(address,address,address,uint160,address,uint160,uint48,uint48,bytes))": {
        "params": {
          "buyerIntent": "The buyer's trade intent.",
          "sellerIntent": "The seller's trade intent."
        },
        "returns": {
          "_0": "The maximum valid trade amount."
        }
      },
      "process(address,(address,address,address,uint160,address,uint160,uint48,uint48,bytes),bytes,(address,address,address,uint160,address,uint160,uint48,uint48,bytes),bytes)": {
        "params": {
          "buyerIntent": "The buyer's trade intent.",
          "buyerSig": "The buyer's signature.",
          "feeRecipient": "The address that will receive the fee.",
          "sellerIntent": "The seller's trade intent.",
          "sellerSig": "The seller's signature."
        }
      },
      "process(address,(address,address,address,uint160,address,uint160,uint48,uint48,bytes),bytes,(address,address,address,uint160,address,uint160,uint48,uint48,bytes),bytes,uint256)": {
        "params": {
          "amount": "The amount of the token to trade.",
          "buyerIntent": "The buyer's trade intent.",
          "buyerSig": "The buyer's signature.",
          "feeRecipient": "The address that will receive the fee.",
          "sellerIntent": "The seller's trade intent.",
          "sellerSig": "The seller's signature."
        }
      },
      "sellToBrokerbot(address,(address,address,address,uint160,address,uint160,uint48,uint48,bytes),bytes,uint256)": {
        "details": "This function allows a user to sell tokens to a Brokerbot by transferring the specified amount of tokens to the Brokerbot and receiving the payment in return. The function ensures that the received amount is not lower than the ask price.",
        "params": {
          "bot": "The Brokerbot to which tokens are being sold.",
          "intent": "The trade intent data structure.",
          "signature": "The signature of the intent owner.",
          "soldShares": "The amount of tokens being sold."
        },
        "returns": {
          "_0": "The amount of payment received from the Brokerbot."
        }
      },
      "sellToBrokerbot(address,address,(address,address,address,uint160,address,uint160,uint48,uint48,bytes),bytes,uint256)": {
        "details": "This function allows a user to sell tokens to a Brokerbot through a specified PaymentHub. It transfers the specified amount of tokens to the Brokerbot and receives the payment in return. The function ensures that the received amount is not lower than the ask price.",
        "params": {
          "bot": "The Brokerbot to which tokens are being sold.",
          "hub": "The PaymentHub through which the transaction is processed.",
          "intent": "The trade intent data structure.",
          "signature": "The signature of the intent owner.",
          "soldShares": "The amount of tokens being sold."
        },
        "returns": {
          "_0": "The amount of payment received from the Brokerbot."
        }
      },
      "signalIntent((address,address,address,uint160,address,uint160,uint48,uint48,bytes),bytes)": {
        "params": {
          "intent": "The trade intent data structure. ",
          "signature": "The signature of the intent owner."
        }
      }
    },
    "title": "TradeReactor Contract",
    "version": 1
  },
  "userdoc": {
    "kind": "user",
    "methods": {
      "buyFromBrokerbot(address,(address,address,address,uint160,address,uint160,uint48,uint48,bytes),bytes,uint256)": {
        "notice": "Buys tokens from a Brokerbot."
      },
      "buyFromBrokerbot(address,address,(address,address,address,uint160,address,uint160,uint48,uint48,bytes),bytes,uint256)": {
        "notice": "Buys tokens from a Brokerbot using a specific PaymentHub."
      },
      "getAsk((address,address,address,uint160,address,uint160,uint48,uint48,bytes),uint256)": {
        "notice": "Calculates the asking price for a given amount of tokenOut."
      },
      "getBid((address,address,address,uint160,address,uint160,uint48,uint48,bytes),uint256)": {
        "notice": "Calculates the bidding price for a given amount of tokenIn."
      },
      "getMaxValidAmount((address,address,address,uint160,address,uint160,uint48,uint48,bytes),(address,address,address,uint160,address,uint160,uint48,uint48,bytes))": {
        "notice": "Determines the maximum valid amount that can be traded based on seller and buyer intents."
      },
      "process(address,(address,address,address,uint160,address,uint160,uint48,uint48,bytes),bytes,(address,address,address,uint160,address,uint160,uint48,uint48,bytes),bytes)": {
        "notice": "Processes a trade between a seller and a buyer with the maximum valid amount."
      },
      "process(address,(address,address,address,uint160,address,uint160,uint48,uint48,bytes),bytes,(address,address,address,uint160,address,uint160,uint48,uint48,bytes),bytes,uint256)": {
        "notice": "Processes a trade between a seller and a buyer for a specified amount."
      },
      "sellToBrokerbot(address,(address,address,address,uint160,address,uint160,uint48,uint48,bytes),bytes,uint256)": {
        "notice": "Sells tokens to a Brokerbot."
      },
      "sellToBrokerbot(address,address,(address,address,address,uint160,address,uint160,uint48,uint48,bytes),bytes,uint256)": {
        "notice": "Sells tokens to a Brokerbot using a specific PaymentHub."
      },
      "signalIntent((address,address,address,uint160,address,uint160,uint48,uint48,bytes),bytes)": {
        "notice": "A function to publicly signal an intent to buy or sell a token so it can be picked up by the filler for processing. Alternaticely, the owner can directly communicate with the filler, without recording the intent on chain."
      }
    },
    "notice": "This contract handles the signaling and processing of trade intents between buyers and sellers.",
    "version": 1
  },
  "storageLayout": {
    "storage": [],
    "types": null
  }
}