{
  "address": "0xd6e98a2bde37b7bca4d265429d91af5c3ca3e74a",
  "abi": [
    {
      "inputs": [
        {
          "internalType": "contract SignatureTransfer",
          "name": "_transfer",
          "type": "address"
        }
      ],
      "stateMutability": "nonpayable",
      "type": "constructor"
    },
    {
      "inputs": [
        {
          "internalType": "address",
          "name": "target",
          "type": "address"
        }
      ],
      "name": "Address_NotTransferNorContract",
      "type": "error"
    },
    {
      "inputs": [
        {
          "internalType": "address",
          "name": "token",
          "type": "address"
        }
      ],
      "name": "SafeERC20FailedOperation",
      "type": "error"
    },
    {
      "inputs": [],
      "name": "TradeReactor_InvalidFiller",
      "type": "error"
    },
    {
      "inputs": [],
      "name": "TradeReactor_OfferTooLow",
      "type": "error"
    },
    {
      "inputs": [],
      "name": "TradeReactor_TokenMismatch",
      "type": "error"
    },
    {
      "anonymous": false,
      "inputs": [
        {
          "indexed": false,
          "internalType": "address",
          "name": "owner",
          "type": "address"
        },
        {
          "indexed": false,
          "internalType": "address",
          "name": "filler",
          "type": "address"
        },
        {
          "indexed": false,
          "internalType": "address",
          "name": "tokenOut",
          "type": "address"
        },
        {
          "indexed": false,
          "internalType": "uint160",
          "name": "amountOut",
          "type": "uint160"
        },
        {
          "indexed": false,
          "internalType": "address",
          "name": "tokenIn",
          "type": "address"
        },
        {
          "indexed": false,
          "internalType": "uint160",
          "name": "amountIn",
          "type": "uint160"
        },
        {
          "indexed": false,
          "internalType": "uint48",
          "name": "exp",
          "type": "uint48"
        },
        {
          "indexed": false,
          "internalType": "uint48",
          "name": "nonce",
          "type": "uint48"
        },
        {
          "indexed": false,
          "internalType": "bytes",
          "name": "data",
          "type": "bytes"
        },
        {
          "indexed": false,
          "internalType": "bytes",
          "name": "signature",
          "type": "bytes"
        }
      ],
      "name": "IntentSignal",
      "type": "event"
    },
    {
      "anonymous": false,
      "inputs": [
        {
          "indexed": false,
          "internalType": "address",
          "name": "seller",
          "type": "address"
        },
        {
          "indexed": false,
          "internalType": "address",
          "name": "buyer",
          "type": "address"
        },
        {
          "indexed": true,
          "internalType": "address",
          "name": "token",
          "type": "address"
        },
        {
          "indexed": false,
          "internalType": "uint256",
          "name": "amount",
          "type": "uint256"
        },
        {
          "indexed": false,
          "internalType": "address",
          "name": "currency",
          "type": "address"
        },
        {
          "indexed": false,
          "internalType": "uint256",
          "name": "price",
          "type": "uint256"
        },
        {
          "indexed": false,
          "internalType": "uint256",
          "name": "fee",
          "type": "uint256"
        }
      ],
      "name": "Trade",
      "type": "event"
    },
    {
      "inputs": [
        {
          "internalType": "contract IBrokerbot",
          "name": "bot",
          "type": "address"
        },
        {
          "components": [
            {
              "internalType": "address",
              "name": "owner",
              "type": "address"
            },
            {
              "internalType": "address",
              "name": "filler",
              "type": "address"
            },
            {
              "internalType": "address",
              "name": "tokenOut",
              "type": "address"
            },
            {
              "internalType": "uint160",
              "name": "amountOut",
              "type": "uint160"
            },
            {
              "internalType": "address",
              "name": "tokenIn",
              "type": "address"
            },
            {
              "internalType": "uint160",
              "name": "amountIn",
              "type": "uint160"
            },
            {
              "internalType": "uint48",
              "name": "expiration",
              "type": "uint48"
            },
            {
              "internalType": "uint48",
              "name": "nonce",
              "type": "uint48"
            },
            {
              "internalType": "bytes",
              "name": "data",
              "type": "bytes"
            }
          ],
          "internalType": "struct Intent",
          "name": "intent",
          "type": "tuple"
        },
        {
          "internalType": "bytes",
          "name": "signature",
          "type": "bytes"
        },
        {
          "internalType": "uint256",
          "name": "amount",
          "type": "uint256"
        }
      ],
      "name": "buyFromBrokerbot",
      "outputs": [
        {
          "internalType": "uint256",
          "name": "",
          "type": "uint256"
        }
      ],
      "stateMutability": "nonpayable",
      "type": "function"
    },
    {
      "inputs": [
        {
          "components": [
            {
              "internalType": "address",
              "name": "owner",
              "type": "address"
            },
            {
              "internalType": "address",
              "name": "filler",
              "type": "address"
            },
            {
              "internalType": "address",
              "name": "tokenOut",
              "type": "address"
            },
            {
              "internalType": "uint160",
              "name": "amountOut",
              "type": "uint160"
            },
            {
              "internalType": "address",
              "name": "tokenIn",
              "type": "address"
            },
            {
              "internalType": "uint160",
              "name": "amountIn",
              "type": "uint160"
            },
            {
              "internalType": "uint48",
              "name": "expiration",
              "type": "uint48"
            },
            {
              "internalType": "uint48",
              "name": "nonce",
              "type": "uint48"
            },
            {
              "internalType": "bytes",
              "name": "data",
              "type": "bytes"
            }
          ],
          "internalType": "struct Intent",
          "name": "intent",
          "type": "tuple"
        },
        {
          "internalType": "uint256",
          "name": "amount",
          "type": "uint256"
        }
      ],
      "name": "getAsk",
      "outputs": [
        {
          "internalType": "uint256",
          "name": "",
          "type": "uint256"
        }
      ],
      "stateMutability": "pure",
      "type": "function"
    },
    {
      "inputs": [
        {
          "components": [
            {
              "internalType": "address",
              "name": "owner",
              "type": "address"
            },
            {
              "internalType": "address",
              "name": "filler",
              "type": "address"
            },
            {
              "internalType": "address",
              "name": "tokenOut",
              "type": "address"
            },
            {
              "internalType": "uint160",
              "name": "amountOut",
              "type": "uint160"
            },
            {
              "internalType": "address",
              "name": "tokenIn",
              "type": "address"
            },
            {
              "internalType": "uint160",
              "name": "amountIn",
              "type": "uint160"
            },
            {
              "internalType": "uint48",
              "name": "expiration",
              "type": "uint48"
            },
            {
              "internalType": "uint48",
              "name": "nonce",
              "type": "uint48"
            },
            {
              "internalType": "bytes",
              "name": "data",
              "type": "bytes"
            }
          ],
          "internalType": "struct Intent",
          "name": "intent",
          "type": "tuple"
        },
        {
          "internalType": "uint256",
          "name": "amount",
          "type": "uint256"
        }
      ],
      "name": "getBid",
      "outputs": [
        {
          "internalType": "uint256",
          "name": "",
          "type": "uint256"
        }
      ],
      "stateMutability": "pure",
      "type": "function"
    },
    {
      "inputs": [
        {
          "components": [
            {
              "internalType": "address",
              "name": "owner",
              "type": "address"
            },
            {
              "internalType": "address",
              "name": "filler",
              "type": "address"
            },
            {
              "internalType": "address",
              "name": "tokenOut",
              "type": "address"
            },
            {
              "internalType": "uint160",
              "name": "amountOut",
              "type": "uint160"
            },
            {
              "internalType": "address",
              "name": "tokenIn",
              "type": "address"
            },
            {
              "internalType": "uint160",
              "name": "amountIn",
              "type": "uint160"
            },
            {
              "internalType": "uint48",
              "name": "expiration",
              "type": "uint48"
            },
            {
              "internalType": "uint48",
              "name": "nonce",
              "type": "uint48"
            },
            {
              "internalType": "bytes",
              "name": "data",
              "type": "bytes"
            }
          ],
          "internalType": "struct Intent",
          "name": "sellerIntent",
          "type": "tuple"
        },
        {
          "components": [
            {
              "internalType": "address",
              "name": "owner",
              "type": "address"
            },
            {
              "internalType": "address",
              "name": "filler",
              "type": "address"
            },
            {
              "internalType": "address",
              "name": "tokenOut",
              "type": "address"
            },
            {
              "internalType": "uint160",
              "name": "amountOut",
              "type": "uint160"
            },
            {
              "internalType": "address",
              "name": "tokenIn",
              "type": "address"
            },
            {
              "internalType": "uint160",
              "name": "amountIn",
              "type": "uint160"
            },
            {
              "internalType": "uint48",
              "name": "expiration",
              "type": "uint48"
            },
            {
              "internalType": "uint48",
              "name": "nonce",
              "type": "uint48"
            },
            {
              "internalType": "bytes",
              "name": "data",
              "type": "bytes"
            }
          ],
          "internalType": "struct Intent",
          "name": "buyerIntent",
          "type": "tuple"
        }
      ],
      "name": "getMaxValidAmount",
      "outputs": [
        {
          "internalType": "uint256",
          "name": "",
          "type": "uint256"
        }
      ],
      "stateMutability": "view",
      "type": "function"
    },
    {
      "inputs": [
        {
          "internalType": "address",
          "name": "feeRecipient",
          "type": "address"
        },
        {
          "components": [
            {
              "internalType": "address",
              "name": "owner",
              "type": "address"
            },
            {
              "internalType": "address",
              "name": "filler",
              "type": "address"
            },
            {
              "internalType": "address",
              "name": "tokenOut",
              "type": "address"
            },
            {
              "internalType": "uint160",
              "name": "amountOut",
              "type": "uint160"
            },
            {
              "internalType": "address",
              "name": "tokenIn",
              "type": "address"
            },
            {
              "internalType": "uint160",
              "name": "amountIn",
              "type": "uint160"
            },
            {
              "internalType": "uint48",
              "name": "expiration",
              "type": "uint48"
            },
            {
              "internalType": "uint48",
              "name": "nonce",
              "type": "uint48"
            },
            {
              "internalType": "bytes",
              "name": "data",
              "type": "bytes"
            }
          ],
          "internalType": "struct Intent",
          "name": "sellerIntent",
          "type": "tuple"
        },
        {
          "internalType": "bytes",
          "name": "sellerSig",
          "type": "bytes"
        },
        {
          "components": [
            {
              "internalType": "address",
              "name": "owner",
              "type": "address"
            },
            {
              "internalType": "address",
              "name": "filler",
              "type": "address"
            },
            {
              "internalType": "address",
              "name": "tokenOut",
              "type": "address"
            },
            {
              "internalType": "uint160",
              "name": "amountOut",
              "type": "uint160"
            },
            {
              "internalType": "address",
              "name": "tokenIn",
              "type": "address"
            },
            {
              "internalType": "uint160",
              "name": "amountIn",
              "type": "uint160"
            },
            {
              "internalType": "uint48",
              "name": "expiration",
              "type": "uint48"
            },
            {
              "internalType": "uint48",
              "name": "nonce",
              "type": "uint48"
            },
            {
              "internalType": "bytes",
              "name": "data",
              "type": "bytes"
            }
          ],
          "internalType": "struct Intent",
          "name": "buyerIntent",
          "type": "tuple"
        },
        {
          "internalType": "bytes",
          "name": "buyerSig",
          "type": "bytes"
        },
        {
          "internalType": "uint256",
          "name": "amount",
          "type": "uint256"
        }
      ],
      "name": "process",
      "outputs": [],
      "stateMutability": "nonpayable",
      "type": "function"
    },
    {
      "inputs": [
        {
          "internalType": "address",
          "name": "feeRecipient",
          "type": "address"
        },
        {
          "components": [
            {
              "internalType": "address",
              "name": "owner",
              "type": "address"
            },
            {
              "internalType": "address",
              "name": "filler",
              "type": "address"
            },
            {
              "internalType": "address",
              "name": "tokenOut",
              "type": "address"
            },
            {
              "internalType": "uint160",
              "name": "amountOut",
              "type": "uint160"
            },
            {
              "internalType": "address",
              "name": "tokenIn",
              "type": "address"
            },
            {
              "internalType": "uint160",
              "name": "amountIn",
              "type": "uint160"
            },
            {
              "internalType": "uint48",
              "name": "expiration",
              "type": "uint48"
            },
            {
              "internalType": "uint48",
              "name": "nonce",
              "type": "uint48"
            },
            {
              "internalType": "bytes",
              "name": "data",
              "type": "bytes"
            }
          ],
          "internalType": "struct Intent",
          "name": "sellerIntent",
          "type": "tuple"
        },
        {
          "internalType": "bytes",
          "name": "sellerSig",
          "type": "bytes"
        },
        {
          "components": [
            {
              "internalType": "address",
              "name": "owner",
              "type": "address"
            },
            {
              "internalType": "address",
              "name": "filler",
              "type": "address"
            },
            {
              "internalType": "address",
              "name": "tokenOut",
              "type": "address"
            },
            {
              "internalType": "uint160",
              "name": "amountOut",
              "type": "uint160"
            },
            {
              "internalType": "address",
              "name": "tokenIn",
              "type": "address"
            },
            {
              "internalType": "uint160",
              "name": "amountIn",
              "type": "uint160"
            },
            {
              "internalType": "uint48",
              "name": "expiration",
              "type": "uint48"
            },
            {
              "internalType": "uint48",
              "name": "nonce",
              "type": "uint48"
            },
            {
              "internalType": "bytes",
              "name": "data",
              "type": "bytes"
            }
          ],
          "internalType": "struct Intent",
          "name": "buyerIntent",
          "type": "tuple"
        },
        {
          "internalType": "bytes",
          "name": "buyerSig",
          "type": "bytes"
        }
      ],
      "name": "process",
      "outputs": [],
      "stateMutability": "nonpayable",
      "type": "function"
    },
    {
      "inputs": [
        {
          "internalType": "contract IBrokerbot",
          "name": "bot",
          "type": "address"
        },
        {
          "components": [
            {
              "internalType": "address",
              "name": "owner",
              "type": "address"
            },
            {
              "internalType": "address",
              "name": "filler",
              "type": "address"
            },
            {
              "internalType": "address",
              "name": "tokenOut",
              "type": "address"
            },
            {
              "internalType": "uint160",
              "name": "amountOut",
              "type": "uint160"
            },
            {
              "internalType": "address",
              "name": "tokenIn",
              "type": "address"
            },
            {
              "internalType": "uint160",
              "name": "amountIn",
              "type": "uint160"
            },
            {
              "internalType": "uint48",
              "name": "expiration",
              "type": "uint48"
            },
            {
              "internalType": "uint48",
              "name": "nonce",
              "type": "uint48"
            },
            {
              "internalType": "bytes",
              "name": "data",
              "type": "bytes"
            }
          ],
          "internalType": "struct Intent",
          "name": "intent",
          "type": "tuple"
        },
        {
          "internalType": "bytes",
          "name": "signature",
          "type": "bytes"
        },
        {
          "internalType": "uint256",
          "name": "soldShares",
          "type": "uint256"
        }
      ],
      "name": "sellToBrokerbot",
      "outputs": [
        {
          "internalType": "uint256",
          "name": "",
          "type": "uint256"
        }
      ],
      "stateMutability": "nonpayable",
      "type": "function"
    },
    {
      "inputs": [
        {
          "components": [
            {
              "internalType": "address",
              "name": "owner",
              "type": "address"
            },
            {
              "internalType": "address",
              "name": "filler",
              "type": "address"
            },
            {
              "internalType": "address",
              "name": "tokenOut",
              "type": "address"
            },
            {
              "internalType": "uint160",
              "name": "amountOut",
              "type": "uint160"
            },
            {
              "internalType": "address",
              "name": "tokenIn",
              "type": "address"
            },
            {
              "internalType": "uint160",
              "name": "amountIn",
              "type": "uint160"
            },
            {
              "internalType": "uint48",
              "name": "expiration",
              "type": "uint48"
            },
            {
              "internalType": "uint48",
              "name": "nonce",
              "type": "uint48"
            },
            {
              "internalType": "bytes",
              "name": "data",
              "type": "bytes"
            }
          ],
          "internalType": "struct Intent",
          "name": "intent",
          "type": "tuple"
        },
        {
          "internalType": "bytes",
          "name": "signature",
          "type": "bytes"
        }
      ],
      "name": "signalIntent",
      "outputs": [],
      "stateMutability": "nonpayable",
      "type": "function"
    },
    {
      "inputs": [],
      "name": "transfer",
      "outputs": [
        {
          "internalType": "contract SignatureTransfer",
          "name": "",
          "type": "address"
        }
      ],
      "stateMutability": "view",
      "type": "function"
    }
  ],
  "transactionHash": "0x06bbf06d4df61b9750eb86eff370b8600627f925af47c8bf926c006d5e385f49",
  "args": [
    "0x666a22cca1d155032ed2f6ae7797616ede16f21c"
  ],
  "numDeployments": 2,
  "solcInputHash": "83214f1fbffc5658be3cb2753dec8430",
  "bytecode": "0x60a0604052348015600f57600080fd5b50604051611f4c380380611f4c833981016040819052602c91603c565b6001600160a01b0316608052606a565b600060208284031215604d57600080fd5b81516001600160a01b0381168114606357600080fd5b9392505050565b608051611e9d6100af60003960008181610137015281816102720152818161039901528181610550015281816109e801528181610ae40152610d970152611e9d6000f3fe608060405234801561001057600080fd5b50600436106100935760003560e01c80633eae8237116100665780633eae8237146100f75780634e03ba4b1461010c578063548d40511461011f5780638a4068dd14610132578063befbde5d1461017157600080fd5b806305cc7606146100985780631424404e146100be578063214fe96c146100d1578063294623ce146100e4575b600080fd5b6100ab6100a636600461141c565b610184565b6040519081526020015b60405180910390f35b6100ab6100cc36600461141c565b6101d6565b6100ab6100df366004611461565b610265565b6100ab6100f2366004611526565b6104df565b61010a6101053660046115b7565b610856565b005b61010a61011a366004611688565b610d09565b6100ab61012d366004611526565b610d26565b6101597f000000000000000000000000000000000000000000000000000000000000000081565b6040516001600160a01b0390911681526020016100b5565b61010a61017f366004611754565b610fe8565b600061019660c0840160a085016117bd565b6001600160a01b0316826101b060808601606087016117bd565b6001600160a01b03166101c391906117f0565b6101cd9190611807565b90505b92915050565b60006101e860808401606085016117bd565b6001600160a01b03168261020260808601606087016117bd565b6001600160a01b03166102159190611829565b61022560c0860160a087016117bd565b6001600160a01b031661023891906117f0565b6102429190611807565b61025260c0850160a086016117bd565b6001600160a01b03166101cd9190611829565b6000806001600160a01b037f000000000000000000000000000000000000000000000000000000000000000016639f0982936102a460208701876117bd565b61032d6102b08861191f565b6040805160a0810182526000606082018181526080830182905282526020820181905291810191909152506040805160a081018252828201516001600160a01b0390811660608084019182528501519091166080830152815260e083015165ffffffffffff908116602083015260c0909301519092169082015290565b6040518363ffffffff1660e01b815260040161034a929190611a28565b602060405180830381865afa158015610367573d6000803e3d6000fd5b505050506040513d601f19601f8201168201806040525081019061038b9190611a45565b905060006001600160a01b037f000000000000000000000000000000000000000000000000000000000000000016639f0982936103cb60208701876117bd565b6103d76102b08861191f565b6040518363ffffffff1660e01b81526004016103f4929190611a28565b602060405180830381865afa158015610411573d6000803e3d6000fd5b505050506040513d601f19601f820116820180604052508101906104359190611a45565b9050600061044960808601606087016117bd565b6001600160a01b03168261046360c0880160a089016117bd565b6001600160a01b031661047691906117f0565b6104809190611807565b905060008382116104915781610493565b835b905060006104a188836101d6565b905060006104af8884610184565b9050818110156104d257604051633c4d934560e21b815260040160405180910390fd5b5090979650505050505050565b600080866001600160a01b031663777adcf06040518163ffffffff1660e01b8152600401602060405180830381865afa158015610520573d6000803e3d6000fd5b505050506040513d601f19601f820116820180604052508101906105449190611a5e565b90506001600160a01b037f00000000000000000000000000000000000000000000000000000000000000001663137c29fe6105816102b08961191f565b61058b30876110bc565b61059860208b018b6117bd565b6105a18b6110ed565b6040516020016105b090611a7b565b60408051601f1981840301815260608301909152602e808352909190611e3a60208301396040516020016105e5929190611b8e565b6040516020818303038152906040528b8b6040518863ffffffff1660e01b81526004016106189796959493929190611c04565b600060405180830381600087803b15801561063257600080fd5b505af1158015610646573d6000803e3d6000fd5b5061065b9250505060608701604088016117bd565b60405163095ea7b360e01b81526001600160a01b03838116600483015260248201869052919091169063095ea7b3906044016020604051808303816000875af11580156106ac573d6000803e3d6000fd5b505050506040513d601f19601f820116820180604052508101906106d09190611c97565b5060006001600160a01b0382166317f565d289866106f26101008c018c611cb9565b6040518563ffffffff1660e01b81526004016107119493929190611d00565b6020604051808303816000875af1158015610730573d6000803e3d6000fd5b505050506040513d601f19601f820116820180604052508101906107549190611a45565b90506107608782610184565b84111561078057604051633c4d934560e21b815260040160405180910390fd5b6107b161079060208901896117bd565b826107a160a08b0160808c016117bd565b6001600160a01b0316919061123d565b61084b6107c160208901896117bd565b6107d160608a0160408b016117bd565b6040516370a0823160e01b81523060048201526001600160a01b0391909116906370a0823190602401602060405180830381865afa158015610817573d6000803e3d6000fd5b505050506040513d601f19601f8201168201806040525081019061083b9190611a45565b6107a160608b0160408c016117bd565b979650505050505050565b61086660a08501608086016117bd565b6001600160a01b031661087f6060890160408a016117bd565b6001600160a01b03161415806108c557506108a060608501604086016117bd565b6001600160a01b03166108b960a0890160808a016117bd565b6001600160a01b031614155b156108e357604051634e0820f160e11b815260040160405180910390fd5b60006108f56040890160208a016117bd565b6001600160a01b0316141580156109245750336109186040890160208a016117bd565b6001600160a01b031614155b15610942576040516303db19b360e31b815260040160405180910390fd5b600061095460408601602087016117bd565b6001600160a01b03161415801561098357503361097760408601602087016117bd565b6001600160a01b031614155b156109a1576040516303db19b360e31b815260040160405180910390fd5b60006109ad88836101d6565b905060006109bb8684610184565b9050818110156109de57604051633c4d934560e21b815260040160405180910390fd5b6001600160a01b037f00000000000000000000000000000000000000000000000000000000000000001663137c29fe610a196102b08c61191f565b610a2330876110bc565b610a3060208e018e6117bd565b610a398e6110ed565b604051602001610a4890611a7b565b60408051601f1981840301815260608301909152602e808352909190611e3a6020830139604051602001610a7d929190611b8e565b6040516020818303038152906040528e8e6040518863ffffffff1660e01b8152600401610ab09796959493929190611c04565b600060405180830381600087803b158015610aca57600080fd5b505af1158015610ade573d6000803e3d6000fd5b505050507f00000000000000000000000000000000000000000000000000000000000000006001600160a01b031663137c29fe610b1e886102b09061191f565b610b2830856110bc565b610b3560208b018b6117bd565b610b3e8b6110ed565b604051602001610b4d90611a7b565b60408051601f1981840301815260608301909152602e808352909190611e3a6020830139604051602001610b82929190611b8e565b6040516020818303038152906040528b8b6040518863ffffffff1660e01b8152600401610bb59796959493929190611c04565b600060405180830381600087803b158015610bcf57600080fd5b505af1158015610be3573d6000803e3d6000fd5b50610c0a9250610bf991505060208801886117bd565b846107a160608d0160408e016117bd565b610c2b610c1a60208b018b6117bd565b836107a160a08d0160808e016117bd565b610c498a610c398484611829565b6107a160a08d0160808e016117bd565b610c5960608a0160408b016117bd565b6001600160a01b03167f8a181b821b6fbc45fb158a5ade70964c9d58849c1ac3cd4078aa9cff7f5d2049610c9060208c018c6117bd565b610c9d60208a018a6117bd565b868d6080016020810190610cb191906117bd565b87610cbc8189611829565b604080516001600160a01b039788168152958716602087015285019390935293166060830152608082019290925260a081019190915260c00160405180910390a250505050505050505050565b610d1d878787878787876101058e8c610265565b50505050505050565b600080866001600160a01b031663777adcf06040518163ffffffff1660e01b8152600401602060405180830381865afa158015610d67573d6000803e3d6000fd5b505050506040513d601f19601f82011682018060405250810190610d8b9190611a5e565b90506001600160a01b037f00000000000000000000000000000000000000000000000000000000000000001663137c29fe610dc86102b08961191f565b610dd230876110bc565b610ddf60208b018b6117bd565b610de88b6110ed565b604051602001610df790611a7b565b60408051601f1981840301815260608301909152602e808352909190611e3a6020830139604051602001610e2c929190611b8e565b6040516020818303038152906040528b8b6040518863ffffffff1660e01b8152600401610e5f9796959493929190611c04565b600060405180830381600087803b158015610e7957600080fd5b505af1158015610e8d573d6000803e3d6000fd5b50610ea29250505060608701604088016117bd565b60405163095ea7b360e01b81526001600160a01b03838116600483015260248201869052919091169063095ea7b3906044016020604051808303816000875af1158015610ef3573d6000803e3d6000fd5b505050506040513d601f19601f82011682018060405250810190610f179190611c97565b5060006001600160a01b03821663d3b3ca77610f3960608a0160408b016117bd565b8a87610f496101008d018d611cb9565b6040518663ffffffff1660e01b8152600401610f69959493929190611d32565b6020604051808303816000875af1158015610f88573d6000803e3d6000fd5b505050506040513d601f19601f82011682018060405250810190610fac9190611a45565b9050610fb887856101d6565b811015610fd857604051633c4d934560e21b815260040160405180910390fd5b61084b61079060208901896117bd565b7f64d58e5a032b3dff51a1bebcb1818be4d39cf1e8a658e3ca52bba8542b63822461101660208501856117bd565b61102660408601602087016117bd565b61103660608701604088016117bd565b61104660808801606089016117bd565b61105660a0890160808a016117bd565b61106660c08a0160a08b016117bd565b61107660e08b0160c08c01611d66565b6110876101008c0160e08d01611d66565b6110956101008d018d611cb9565b8c8c6040516110af9c9b9a99989796959493929190611d81565b60405180910390a1505050565b604080518082018252600080825260209182015281518083019092526001600160a01b039390931681529182015290565b60006040516020016110fe90611a7b565b60408051601f19818403018152919052805160209182012090611123908401846117bd565b61113360408501602086016117bd565b61114360608601604087016117bd565b61115360808701606088016117bd565b61116360a08801608089016117bd565b61117360c0890160a08a016117bd565b61118360e08a0160c08b01611d66565b6111946101008b0160e08c01611d66565b6111a26101008c018c611cb9565b6040516111b0929190611e0d565b60408051918290038220602083019b909b526001600160a01b03998a16908201529688166060880152948716608087015292861660a086015290851660c085015290931660e083015265ffffffffffff9283166101008301529190911661012082015261014081019190915261016001604051602081830303815290604052805190602001209050919050565b604080516001600160a01b038416602482015260448082018490528251808303909101815260649091019091526020810180516001600160e01b031663a9059cbb60e01b17905261128f908490611294565b505050565b60006112a96001600160a01b038416836112fc565b905080516000141580156112ce5750808060200190518101906112cc9190611c97565b155b1561128f57604051635274afe760e01b81526001600160a01b03841660048201526024015b60405180910390fd5b60606101cd838360006060825160001415801561132157506001600160a01b0384163b155b1561134a57604051639eb1341360e01b81526001600160a01b03851660048201526024016112f3565b600080856001600160a01b031684866040516113669190611e1d565b60006040518083038185875af1925050503d80600081146113a3576040519150601f19603f3d011682016040523d82523d6000602084013e6113a8565b606091505b509150915081156113bc5791506113fc9050565b8051156113cb57805160208201fd5b60405162461bcd60e51b815260206004820152600660248201526519985a5b195960d21b60448201526064016112f3565b9392505050565b6000610120828403121561141657600080fd5b50919050565b6000806040838503121561142f57600080fd5b823567ffffffffffffffff81111561144657600080fd5b61145285828601611403565b95602094909401359450505050565b6000806040838503121561147457600080fd5b823567ffffffffffffffff8082111561148c57600080fd5b61149886838701611403565b935060208501359150808211156114ae57600080fd5b506114bb85828601611403565b9150509250929050565b6001600160a01b03811681146114da57600080fd5b50565b60008083601f8401126114ef57600080fd5b50813567ffffffffffffffff81111561150757600080fd5b60208301915083602082850101111561151f57600080fd5b9250929050565b60008060008060006080868803121561153e57600080fd5b8535611549816114c5565b9450602086013567ffffffffffffffff8082111561156657600080fd5b61157289838a01611403565b9550604088013591508082111561158857600080fd5b50611595888289016114dd565b96999598509660600135949350505050565b80356115b2816114c5565b919050565b60008060008060008060008060c0898b0312156115d357600080fd5b6115dc896115a7565b9750602089013567ffffffffffffffff808211156115f957600080fd5b6116058c838d01611403565b985060408b013591508082111561161b57600080fd5b6116278c838d016114dd565b909850965060608b013591508082111561164057600080fd5b61164c8c838d01611403565b955060808b013591508082111561166257600080fd5b5061166f8b828c016114dd565b999c989b50969995989497949560a00135949350505050565b600080600080600080600060a0888a0312156116a357600080fd5b87356116ae816114c5565b9650602088013567ffffffffffffffff808211156116cb57600080fd5b6116d78b838c01611403565b975060408a01359150808211156116ed57600080fd5b6116f98b838c016114dd565b909750955060608a013591508082111561171257600080fd5b61171e8b838c01611403565b945060808a013591508082111561173457600080fd5b506117418a828b016114dd565b989b979a50959850939692959293505050565b60008060006040848603121561176957600080fd5b833567ffffffffffffffff8082111561178157600080fd5b61178d87838801611403565b945060208601359150808211156117a357600080fd5b506117b0868287016114dd565b9497909650939450505050565b6000602082840312156117cf57600080fd5b81356113fc816114c5565b634e487b7160e01b600052601160045260246000fd5b80820281158282048414176101d0576101d06117da565b60008261182457634e487b7160e01b600052601260045260246000fd5b500490565b818103818111156101d0576101d06117da565b634e487b7160e01b600052604160045260246000fd5b604051610120810167ffffffffffffffff811182821017156118765761187661183c565b60405290565b803565ffffffffffff811681146115b257600080fd5b600082601f8301126118a357600080fd5b813567ffffffffffffffff808211156118be576118be61183c565b604051601f8301601f19908116603f011681019082821181831017156118e6576118e661183c565b816040528381528660208588010111156118ff57600080fd5b836020870160208301376000602085830101528094505050505092915050565b6000610120823603121561193257600080fd5b61193a611852565b611943836115a7565b8152611951602084016115a7565b6020820152611962604084016115a7565b6040820152611973606084016115a7565b6060820152611984608084016115a7565b608082015261199560a084016115a7565b60a08201526119a660c0840161187c565b60c08201526119b760e0840161187c565b60e08201526101008084013567ffffffffffffffff8111156119d857600080fd5b6119e436828701611892565b918301919091525092915050565b611a1082825180516001600160a01b03168252602090810151910152565b60208101516040830152604081015160608301525050565b6001600160a01b038316815260a081016113fc60208301846119f2565b600060208284031215611a5757600080fd5b5051919050565b600060208284031215611a7057600080fd5b81516113fc816114c5565b66092dce8cadce8560cb1b81526d1859191c995cdcc81bdddb995c8b60921b60078201526e1859191c995cdcc8199a5b1b195c8b608a1b6015820152701859191c995cdcc81d1bdad95b93dd5d0b607a1b6024820152711d5a5b9d0c4d8c08185b5bdd5b9d13dd5d0b60721b60358201526f1859191c995cdcc81d1bdad95b925b8b60821b6047820152701d5a5b9d0c4d8c08185b5bdd5b9d125b8b607a1b6057820152711d5a5b9d0d0e08195e1c1a5c985d1a5bdb8b60721b60688201526c1d5a5b9d0d0e081b9bdb98d94b609a1b607a8201526a627974657320646174612960a81b608782015260920190565b60005b83811015611b85578181015183820152602001611b6d565b50506000910152565b6e496e74656e74207769746e6573732960881b815260008351611bb881600f850160208801611b6a565b835190830190611bcf81600f840160208801611b6a565b01600f01949350505050565b81835281816020850137506000828201602090810191909152601f909101601f19169091010190565b6000610140611c13838b6119f2565b88516001600160a01b03166080840152602089015160a08401526001600160a01b03881660c084015260e083018790526101008301819052855190830181905261016090611c678183860160208a01611b6a565b601f01601f191683018381038201610120850152611c888282018688611bdb565b9b9a5050505050505050505050565b600060208284031215611ca957600080fd5b815180151581146113fc57600080fd5b6000808335601e19843603018112611cd057600080fd5b83018035915067ffffffffffffffff821115611ceb57600080fd5b60200191503681900382131561151f57600080fd5b60018060a01b0385168152836020820152606060408201526000611d28606083018486611bdb565b9695505050505050565b6001600160a01b038681168252851660208201526040810184905260806060820181905260009061084b9083018486611bdb565b600060208284031215611d7857600080fd5b6101cd8261187c565b6001600160a01b038d811682528c811660208301528b811660408301528a811660608301528981166080830152881660a082015265ffffffffffff87811660c0830152861660e08201526101406101008201819052600090611de69083018688611bdb565b828103610120840152611dfa818587611bdb565b9f9e505050505050505050505050505050565b8183823760009101908152919050565b60008251611e2f818460208701611b6a565b919091019291505056fe546f6b656e5065726d697373696f6e73286164647265737320746f6b656e2c75696e7432353620616d6f756e7429a2646970667358221220aa3271870e0be5025cbd3fda9a35e253b423bbabbb10e4bee00a2b759175edf464736f6c63430008190033",
  "devdoc": {
    "details": "This contract uses the SignatureTransfer contract for secure transfers with signatures.",
    "errors": {
      "Address_NotTransferNorContract(address)": [
        {
          "params": {
            "target": "Target address to call the function on."
          }
        }
      ],
      "SafeERC20FailedOperation(address)": [
        {
          "details": "An operation with an ERC20 token failed."
        }
      ]
    },
    "events": {
      "IntentSignal(address,address,address,uint160,address,uint160,uint48,uint48,bytes,bytes)": {
        "details": "Emitted when an intent to trade is signaled.",
        "params": {
          "amountIn": "The amount of the tokenIn the owner wants to receive.",
          "amountOut": "The amount of the tokenOut the owner wants to sell or exchange.",
          "data": "Additional data that may be used in the trade execution.",
          "exp": "The expiration time of the intent.",
          "filler": "The address of the filler, if any, that the intent is specifically directed to.",
          "nonce": "A nonce to ensure the uniqueness of the intent.",
          "owner": "The address of the intent owner.",
          "signature": "The signature of the owner authorizing the intent.",
          "tokenIn": "The address of the token the owner wants to receive in exchange.",
          "tokenOut": "The address of the token the owner wants to sell or exchange."
        }
      }
    },
    "kind": "dev",
    "methods": {
      "buyFromBrokerbot(address,(address,address,address,uint160,address,uint160,uint48,uint48,bytes),bytes,uint256)": {
        "details": "This function allows a user to buy tokens from a Brokerbot by transferring the specified amount of investment token to the Brokerbot and receiving the purchased tokens in return. The function ensures that the offer is not too low by comparing the invested amount to the bid price.",
        "params": {
          "amount": "The amount of tokens to invest in the purchase.",
          "bot": "The Brokerbot from which tokens are being bought.",
          "intent": "The trade intent data structure.",
          "signature": "The signature of the intent owner."
        },
        "returns": {
          "_0": "The amount of tokens received from the Brokerbot."
        }
      },
      "getAsk((address,address,address,uint160,address,uint160,uint48,uint48,bytes),uint256)": {
        "details": "Ideally called with an intent where tokenIn is a currency with many (e.g. 18) decimals.TokenOut can have very few decimals.",
        "params": {
          "amount": "The amount of tokenOut.",
          "intent": "The trade intent data structure."
        },
        "returns": {
          "_0": "The calculated asking price."
        }
      },
      "getBid((address,address,address,uint160,address,uint160,uint48,uint48,bytes),uint256)": {
        "details": "Ideally called with an intent where tokenOut is a currency with many (e.g. 18) decimals.TokenIn can have very few decimals.",
        "params": {
          "amount": "The amount of tokenIn.",
          "intent": "The trade intent data structure."
        },
        "returns": {
          "_0": "The calculated bidding price."
        }
      },
      "getMaxValidAmount((address,address,address,uint160,address,uint160,uint48,uint48,bytes),(address,address,address,uint160,address,uint160,uint48,uint48,bytes))": {
        "params": {
          "buyerIntent": "The buyer's trade intent.",
          "sellerIntent": "The seller's trade intent."
        },
        "returns": {
          "_0": "The maximum valid trade amount."
        }
      },
      "process(address,(address,address,address,uint160,address,uint160,uint48,uint48,bytes),bytes,(address,address,address,uint160,address,uint160,uint48,uint48,bytes),bytes)": {
        "params": {
          "buyerIntent": "The buyer's trade intent.",
          "buyerSig": "The buyer's signature.",
          "feeRecipient": "The address that will receive the fee.",
          "sellerIntent": "The seller's trade intent.",
          "sellerSig": "The seller's signature."
        }
      },
      "process(address,(address,address,address,uint160,address,uint160,uint48,uint48,bytes),bytes,(address,address,address,uint160,address,uint160,uint48,uint48,bytes),bytes,uint256)": {
        "params": {
          "amount": "The amount of the token to trade.",
          "buyerIntent": "The buyer's trade intent.",
          "buyerSig": "The buyer's signature.",
          "feeRecipient": "The address that will receive the fee.",
          "sellerIntent": "The seller's trade intent.",
          "sellerSig": "The seller's signature."
        }
      },
      "sellToBrokerbot(address,(address,address,address,uint160,address,uint160,uint48,uint48,bytes),bytes,uint256)": {
        "details": "This function allows a user to sell tokens to a Brokerbot by transferring the specified amount of tokens to the Brokerbot and receiving the payment in return. The function ensures that the received amount is not lower than the ask price.",
        "params": {
          "bot": "The Brokerbot to which tokens are being sold.",
          "intent": "The trade intent data structure.",
          "signature": "The signature of the intent owner.",
          "soldShares": "The amount of tokens being sold."
        },
        "returns": {
          "_0": "The amount of payment received from the Brokerbot."
        }
      },
      "signalIntent((address,address,address,uint160,address,uint160,uint48,uint48,bytes),bytes)": {
        "params": {
          "intent": "The trade intent data structure. ",
          "signature": "The signature of the intent owner."
        }
      }
    },
    "title": "TradeReactor Contract",
    "version": 1
  },
  "userdoc": {
    "kind": "user",
    "methods": {
      "buyFromBrokerbot(address,(address,address,address,uint160,address,uint160,uint48,uint48,bytes),bytes,uint256)": {
        "notice": "Buys tokens from a Brokerbot."
      },
      "getAsk((address,address,address,uint160,address,uint160,uint48,uint48,bytes),uint256)": {
        "notice": "Calculates the asking price for a given amount of tokenOut."
      },
      "getBid((address,address,address,uint160,address,uint160,uint48,uint48,bytes),uint256)": {
        "notice": "Calculates the bidding price for a given amount of tokenIn."
      },
      "getMaxValidAmount((address,address,address,uint160,address,uint160,uint48,uint48,bytes),(address,address,address,uint160,address,uint160,uint48,uint48,bytes))": {
        "notice": "Determines the maximum valid amount that can be traded based on seller and buyer intents."
      },
      "process(address,(address,address,address,uint160,address,uint160,uint48,uint48,bytes),bytes,(address,address,address,uint160,address,uint160,uint48,uint48,bytes),bytes)": {
        "notice": "Processes a trade between a seller and a buyer with the maximum valid amount."
      },
      "process(address,(address,address,address,uint160,address,uint160,uint48,uint48,bytes),bytes,(address,address,address,uint160,address,uint160,uint48,uint48,bytes),bytes,uint256)": {
        "notice": "Processes a trade between a seller and a buyer for a specified amount."
      },
      "sellToBrokerbot(address,(address,address,address,uint160,address,uint160,uint48,uint48,bytes),bytes,uint256)": {
        "notice": "Sells tokens to a Brokerbot."
      },
      "signalIntent((address,address,address,uint160,address,uint160,uint48,uint48,bytes),bytes)": {
        "notice": "A function to publicly signal an intent to buy or sell a token so it can be picked up by the filler for processing. Alternaticely, the owner can directly communicate with the filler, without recording the intent on chain."
      }
    },
    "notice": "This contract handles the signaling and processing of trade intents between buyers and sellers.",
    "version": 1
  },
  "storageLayout": {
    "storage": [],
    "types": null
  }
}