{
  "address": "0xE939125eC91EB3A5830213896f9Db16e63bd194A",
  "abi": [
    {
      "inputs": [
        {
          "internalType": "string",
          "name": "_terms",
          "type": "string"
        },
        {
          "internalType": "contract IERC20",
          "name": "_wrappedToken",
          "type": "address"
        },
        {
          "internalType": "uint256",
          "name": "_quorumBps",
          "type": "uint256"
        },
        {
          "internalType": "uint256",
          "name": "_votePeriodSeconds",
          "type": "uint256"
        },
        {
          "internalType": "contract IRecoveryHub",
          "name": "_recoveryHub",
          "type": "address"
        },
        {
          "internalType": "contract IOfferFactory",
          "name": "_offerFactory",
          "type": "address"
        },
        {
          "internalType": "address",
          "name": "_oracle",
          "type": "address"
        }
      ],
      "stateMutability": "nonpayable",
      "type": "constructor"
    },
    {
      "anonymous": false,
      "inputs": [
        {
          "indexed": true,
          "internalType": "address",
          "name": "owner",
          "type": "address"
        },
        {
          "indexed": true,
          "internalType": "address",
          "name": "spender",
          "type": "address"
        },
        {
          "indexed": false,
          "internalType": "uint256",
          "name": "value",
          "type": "uint256"
        }
      ],
      "name": "Approval",
      "type": "event"
    },
    {
      "anonymous": false,
      "inputs": [
        {
          "indexed": false,
          "internalType": "address",
          "name": "oracle",
          "type": "address"
        }
      ],
      "name": "ChangeOracle",
      "type": "event"
    },
    {
      "anonymous": false,
      "inputs": [
        {
          "indexed": false,
          "internalType": "address",
          "name": "newContractAddress",
          "type": "address"
        },
        {
          "indexed": false,
          "internalType": "uint256",
          "name": "yesVotes",
          "type": "uint256"
        },
        {
          "indexed": false,
          "internalType": "uint256",
          "name": "oracleVotes",
          "type": "uint256"
        },
        {
          "indexed": false,
          "internalType": "uint256",
          "name": "totalVotingPower",
          "type": "uint256"
        }
      ],
      "name": "MigrationSucceeded",
      "type": "event"
    },
    {
      "anonymous": false,
      "inputs": [
        {
          "indexed": false,
          "internalType": "string",
          "name": "name",
          "type": "string"
        },
        {
          "indexed": false,
          "internalType": "string",
          "name": "symbol",
          "type": "string"
        }
      ],
      "name": "NameChanged",
      "type": "event"
    },
    {
      "anonymous": false,
      "inputs": [
        {
          "indexed": true,
          "internalType": "address",
          "name": "from",
          "type": "address"
        },
        {
          "indexed": true,
          "internalType": "address",
          "name": "to",
          "type": "address"
        },
        {
          "indexed": false,
          "internalType": "uint256",
          "name": "value",
          "type": "uint256"
        }
      ],
      "name": "Transfer",
      "type": "event"
    },
    {
      "inputs": [],
      "name": "DOMAIN_SEPARATOR",
      "outputs": [
        {
          "internalType": "bytes32",
          "name": "",
          "type": "bytes32"
        }
      ],
      "stateMutability": "view",
      "type": "function"
    },
    {
      "inputs": [
        {
          "internalType": "address",
          "name": "owner",
          "type": "address"
        },
        {
          "internalType": "address",
          "name": "spender",
          "type": "address"
        }
      ],
      "name": "allowance",
      "outputs": [
        {
          "internalType": "uint256",
          "name": "",
          "type": "uint256"
        }
      ],
      "stateMutability": "view",
      "type": "function"
    },
    {
      "inputs": [
        {
          "internalType": "address",
          "name": "spender",
          "type": "address"
        },
        {
          "internalType": "uint256",
          "name": "value",
          "type": "uint256"
        }
      ],
      "name": "approve",
      "outputs": [
        {
          "internalType": "bool",
          "name": "",
          "type": "bool"
        }
      ],
      "stateMutability": "nonpayable",
      "type": "function"
    },
    {
      "inputs": [
        {
          "internalType": "address",
          "name": "account",
          "type": "address"
        }
      ],
      "name": "balanceOf",
      "outputs": [
        {
          "internalType": "uint256",
          "name": "",
          "type": "uint256"
        }
      ],
      "stateMutability": "view",
      "type": "function"
    },
    {
      "inputs": [
        {
          "internalType": "uint256",
          "name": "amount",
          "type": "uint256"
        }
      ],
      "name": "burn",
      "outputs": [],
      "stateMutability": "nonpayable",
      "type": "function"
    },
    {
      "inputs": [],
      "name": "claimPeriod",
      "outputs": [
        {
          "internalType": "uint256",
          "name": "",
          "type": "uint256"
        }
      ],
      "stateMutability": "pure",
      "type": "function"
    },
    {
      "inputs": [],
      "name": "customCollateralAddress",
      "outputs": [
        {
          "internalType": "contract IERC20",
          "name": "",
          "type": "address"
        }
      ],
      "stateMutability": "view",
      "type": "function"
    },
    {
      "inputs": [],
      "name": "customCollateralRate",
      "outputs": [
        {
          "internalType": "uint256",
          "name": "",
          "type": "uint256"
        }
      ],
      "stateMutability": "view",
      "type": "function"
    },
    {
      "inputs": [],
      "name": "decimals",
      "outputs": [
        {
          "internalType": "uint8",
          "name": "",
          "type": "uint8"
        }
      ],
      "stateMutability": "view",
      "type": "function"
    },
    {
      "inputs": [
        {
          "internalType": "address",
          "name": "lostAddress",
          "type": "address"
        }
      ],
      "name": "deleteClaim",
      "outputs": [],
      "stateMutability": "nonpayable",
      "type": "function"
    },
    {
      "inputs": [
        {
          "internalType": "address",
          "name": "buyer",
          "type": "address"
        },
        {
          "internalType": "contract IERC20",
          "name": "currency",
          "type": "address"
        }
      ],
      "name": "drag",
      "outputs": [],
      "stateMutability": "nonpayable",
      "type": "function"
    },
    {
      "inputs": [],
      "name": "factory",
      "outputs": [
        {
          "internalType": "contract IOfferFactory",
          "name": "",
          "type": "address"
        }
      ],
      "stateMutability": "view",
      "type": "function"
    },
    {
      "inputs": [],
      "name": "getClaimDeleter",
      "outputs": [
        {
          "internalType": "address",
          "name": "",
          "type": "address"
        }
      ],
      "stateMutability": "view",
      "type": "function"
    },
    {
      "inputs": [
        {
          "internalType": "contract IERC20",
          "name": "collateralType",
          "type": "address"
        }
      ],
      "name": "getCollateralRate",
      "outputs": [
        {
          "internalType": "uint256",
          "name": "",
          "type": "uint256"
        }
      ],
      "stateMutability": "view",
      "type": "function"
    },
    {
      "inputs": [
        {
          "internalType": "address",
          "name": "account",
          "type": "address"
        },
        {
          "internalType": "uint8",
          "name": "number",
          "type": "uint8"
        }
      ],
      "name": "hasFlag",
      "outputs": [
        {
          "internalType": "bool",
          "name": "",
          "type": "bool"
        }
      ],
      "stateMutability": "view",
      "type": "function"
    },
    {
      "inputs": [],
      "name": "isBinding",
      "outputs": [
        {
          "internalType": "bool",
          "name": "",
          "type": "bool"
        }
      ],
      "stateMutability": "view",
      "type": "function"
    },
    {
      "inputs": [
        {
          "internalType": "bytes32",
          "name": "salt",
          "type": "bytes32"
        },
        {
          "internalType": "uint256",
          "name": "pricePerShare",
          "type": "uint256"
        },
        {
          "internalType": "contract IERC20",
          "name": "currency",
          "type": "address"
        }
      ],
      "name": "makeAcquisitionOffer",
      "outputs": [],
      "stateMutability": "payable",
      "type": "function"
    },
    {
      "inputs": [],
      "name": "migrate",
      "outputs": [],
      "stateMutability": "nonpayable",
      "type": "function"
    },
    {
      "inputs": [
        {
          "internalType": "address",
          "name": "successor",
          "type": "address"
        },
        {
          "internalType": "uint256",
          "name": "additionalVotes",
          "type": "uint256"
        }
      ],
      "name": "migrateWithExternalApproval",
      "outputs": [],
      "stateMutability": "nonpayable",
      "type": "function"
    },
    {
      "inputs": [],
      "name": "name",
      "outputs": [
        {
          "internalType": "string",
          "name": "",
          "type": "string"
        }
      ],
      "stateMutability": "view",
      "type": "function"
    },
    {
      "inputs": [
        {
          "internalType": "address",
          "name": "",
          "type": "address"
        }
      ],
      "name": "nonces",
      "outputs": [
        {
          "internalType": "uint256",
          "name": "",
          "type": "uint256"
        }
      ],
      "stateMutability": "view",
      "type": "function"
    },
    {
      "inputs": [
        {
          "internalType": "address",
          "name": "target",
          "type": "address"
        }
      ],
      "name": "notifyClaimDeleted",
      "outputs": [],
      "stateMutability": "nonpayable",
      "type": "function"
    },
    {
      "inputs": [
        {
          "internalType": "address",
          "name": "target",
          "type": "address"
        }
      ],
      "name": "notifyClaimMade",
      "outputs": [],
      "stateMutability": "nonpayable",
      "type": "function"
    },
    {
      "inputs": [],
      "name": "notifyOfferEnded",
      "outputs": [],
      "stateMutability": "nonpayable",
      "type": "function"
    },
    {
      "inputs": [
        {
          "internalType": "address",
          "name": "voter",
          "type": "address"
        }
      ],
      "name": "notifyVoted",
      "outputs": [],
      "stateMutability": "nonpayable",
      "type": "function"
    },
    {
      "inputs": [],
      "name": "offer",
      "outputs": [
        {
          "internalType": "contract IOffer",
          "name": "",
          "type": "address"
        }
      ],
      "stateMutability": "view",
      "type": "function"
    },
    {
      "inputs": [
        {
          "internalType": "address",
          "name": "from",
          "type": "address"
        },
        {
          "internalType": "uint256",
          "name": "amount",
          "type": "uint256"
        },
        {
          "internalType": "bytes",
          "name": "",
          "type": "bytes"
        }
      ],
      "name": "onTokenTransfer",
      "outputs": [
        {
          "internalType": "bool",
          "name": "",
          "type": "bool"
        }
      ],
      "stateMutability": "nonpayable",
      "type": "function"
    },
    {
      "inputs": [],
      "name": "oracle",
      "outputs": [
        {
          "internalType": "address",
          "name": "",
          "type": "address"
        }
      ],
      "stateMutability": "view",
      "type": "function"
    },
    {
      "inputs": [
        {
          "internalType": "address",
          "name": "owner",
          "type": "address"
        },
        {
          "internalType": "address",
          "name": "spender",
          "type": "address"
        },
        {
          "internalType": "uint256",
          "name": "value",
          "type": "uint256"
        },
        {
          "internalType": "uint256",
          "name": "deadline",
          "type": "uint256"
        },
        {
          "internalType": "uint8",
          "name": "v",
          "type": "uint8"
        },
        {
          "internalType": "bytes32",
          "name": "r",
          "type": "bytes32"
        },
        {
          "internalType": "bytes32",
          "name": "s",
          "type": "bytes32"
        }
      ],
      "name": "permit",
      "outputs": [],
      "stateMutability": "nonpayable",
      "type": "function"
    },
    {
      "inputs": [],
      "name": "quorum",
      "outputs": [
        {
          "internalType": "uint256",
          "name": "",
          "type": "uint256"
        }
      ],
      "stateMutability": "view",
      "type": "function"
    },
    {
      "inputs": [
        {
          "internalType": "address",
          "name": "oldAddress",
          "type": "address"
        },
        {
          "internalType": "address",
          "name": "newAddress",
          "type": "address"
        }
      ],
      "name": "recover",
      "outputs": [],
      "stateMutability": "nonpayable",
      "type": "function"
    },
    {
      "inputs": [],
      "name": "recovery",
      "outputs": [
        {
          "internalType": "contract IRecoveryHub",
          "name": "",
          "type": "address"
        }
      ],
      "stateMutability": "view",
      "type": "function"
    },
    {
      "inputs": [
        {
          "internalType": "address",
          "name": "newOracle",
          "type": "address"
        }
      ],
      "name": "setOracle",
      "outputs": [],
      "stateMutability": "nonpayable",
      "type": "function"
    },
    {
      "inputs": [],
      "name": "symbol",
      "outputs": [
        {
          "internalType": "string",
          "name": "",
          "type": "string"
        }
      ],
      "stateMutability": "view",
      "type": "function"
    },
    {
      "inputs": [],
      "name": "terms",
      "outputs": [
        {
          "internalType": "string",
          "name": "",
          "type": "string"
        }
      ],
      "stateMutability": "view",
      "type": "function"
    },
    {
      "inputs": [],
      "name": "totalSupply",
      "outputs": [
        {
          "internalType": "uint256",
          "name": "",
          "type": "uint256"
        }
      ],
      "stateMutability": "view",
      "type": "function"
    },
    {
      "inputs": [],
      "name": "totalVotingTokens",
      "outputs": [
        {
          "internalType": "uint256",
          "name": "",
          "type": "uint256"
        }
      ],
      "stateMutability": "view",
      "type": "function"
    },
    {
      "inputs": [
        {
          "internalType": "address",
          "name": "to",
          "type": "address"
        },
        {
          "internalType": "uint256",
          "name": "value",
          "type": "uint256"
        }
      ],
      "name": "transfer",
      "outputs": [
        {
          "internalType": "bool",
          "name": "",
          "type": "bool"
        }
      ],
      "stateMutability": "nonpayable",
      "type": "function"
    },
    {
      "inputs": [
        {
          "internalType": "address",
          "name": "recipient",
          "type": "address"
        },
        {
          "internalType": "uint256",
          "name": "amount",
          "type": "uint256"
        },
        {
          "internalType": "bytes",
          "name": "data",
          "type": "bytes"
        }
      ],
      "name": "transferAndCall",
      "outputs": [
        {
          "internalType": "bool",
          "name": "",
          "type": "bool"
        }
      ],
      "stateMutability": "nonpayable",
      "type": "function"
    },
    {
      "inputs": [
        {
          "internalType": "address",
          "name": "sender",
          "type": "address"
        },
        {
          "internalType": "address",
          "name": "recipient",
          "type": "address"
        },
        {
          "internalType": "uint256",
          "name": "amount",
          "type": "uint256"
        }
      ],
      "name": "transferFrom",
      "outputs": [
        {
          "internalType": "bool",
          "name": "",
          "type": "bool"
        }
      ],
      "stateMutability": "nonpayable",
      "type": "function"
    },
    {
      "inputs": [
        {
          "internalType": "uint256",
          "name": "amount",
          "type": "uint256"
        }
      ],
      "name": "unwrap",
      "outputs": [],
      "stateMutability": "nonpayable",
      "type": "function"
    },
    {
      "inputs": [],
      "name": "unwrapConversionFactor",
      "outputs": [
        {
          "internalType": "uint256",
          "name": "",
          "type": "uint256"
        }
      ],
      "stateMutability": "view",
      "type": "function"
    },
    {
      "inputs": [],
      "name": "votePeriod",
      "outputs": [
        {
          "internalType": "uint256",
          "name": "",
          "type": "uint256"
        }
      ],
      "stateMutability": "view",
      "type": "function"
    },
    {
      "inputs": [
        {
          "internalType": "address",
          "name": "voter",
          "type": "address"
        }
      ],
      "name": "votingPower",
      "outputs": [
        {
          "internalType": "uint256",
          "name": "",
          "type": "uint256"
        }
      ],
      "stateMutability": "view",
      "type": "function"
    },
    {
      "inputs": [
        {
          "internalType": "address",
          "name": "shareholder",
          "type": "address"
        },
        {
          "internalType": "uint256",
          "name": "amount",
          "type": "uint256"
        }
      ],
      "name": "wrap",
      "outputs": [],
      "stateMutability": "nonpayable",
      "type": "function"
    },
    {
      "inputs": [],
      "name": "wrapped",
      "outputs": [
        {
          "internalType": "contract IERC20",
          "name": "",
          "type": "address"
        }
      ],
      "stateMutability": "view",
      "type": "function"
    }
  ],
  "transactionHash": "0x05e77bc056b1c29a7dce3dcbefd2b57b058668e5a0650b6be13c471eed60b5c6",
  "args": [
    "www.terms.ch",
    "0x154829b990496a4e7edee55DC79aeFAC0aA4515E",
    7500,
    5184000,
    "0xd3b1c2f108F4613866FeD02bc398F5cBFfE4425F",
    "0x7aC3c6e4E68f5948901AA6FE3E4Ea09E3AC44469",
    "0x565264079861913F3Ee5cC3a4D39606608C7B0dd"
  ],
  "numDeployments": 1,
  "solcInputHash": "91afaafdcb9aac9433a4c41cf0b4eb46",
  "bytecode": "0x61010060405260006004553480156200001757600080fd5b5060405162002af138038062002af18339810160408190526200003a9162000135565b600380546001600160a81b0319166101006001600160a01b03898116919091029190911790915560a086905260c0859052828116608052600680546001600160a01b031916838316179055831660e052600a620000988882620002f7565b50604051636427ed9760e01b8152600060048201526001600160a01b03841690636427ed9790602401600060405180830381600087803b158015620000dc57600080fd5b505af1158015620000f1573d6000803e3d6000fd5b5050505050505050505050620003c3565b634e487b7160e01b600052604160045260246000fd5b80516001600160a01b03811681146200013057600080fd5b919050565b600080600080600080600060e0888a0312156200015157600080fd5b87516001600160401b03808211156200016957600080fd5b818a0191508a601f8301126200017e57600080fd5b81518181111562000193576200019362000102565b604051601f8201601f19908116603f01168101908382118183101715620001be57620001be62000102565b81604052828152602093508d84848701011115620001db57600080fd5b600091505b82821015620001ff5784820184015181830185015290830190620001e0565b6000848483010152809b505050506200021a818b0162000118565b9750505060408801519450606088015193506200023a6080890162000118565b92506200024a60a0890162000118565b91506200025a60c0890162000118565b905092959891949750929550565b600181811c908216806200027d57607f821691505b6020821081036200029e57634e487b7160e01b600052602260045260246000fd5b50919050565b601f821115620002f257600081815260208120601f850160051c81016020861015620002cd5750805b601f850160051c820191505b81811015620002ee57828155600101620002d9565b5050505b505050565b81516001600160401b0381111562000313576200031362000102565b6200032b8162000324845462000268565b84620002a4565b602080601f8311600181146200036357600084156200034a5750858301515b600019600386901b1c1916600185901b178555620002ee565b600085815260208120601f198616915b82811015620003945788860151825594840194600190910190840162000373565b5085821015620003b35787850151600019600388901b60f8161c191681555b5050505050600190811b01905550565b60805160a05160c05160e0516126b56200043c600039600081816107f301528181610b8101528181610dac015281816111590152818161160b0152611ab201526000818161065d015261149a0152600081816103600152818161147401526117af01526000818161073101526114c301526126b56000f3fe60806040526004361061027d5760003560e01c80637dc0d1d01161014f578063c07473f6116100c1578063dd62ed3e1161007a578063dd62ed3e1461079b578063ddceafa9146107e1578063de0e9a3e14610815578063e5b824ec14610835578063f5c0b95f14610855578063fcb79a7e1461087557600080fd5b8063c07473f6146106df578063c18172c4146106ff578063c45a01551461071f578063d502562514610753578063d505accf14610768578063dcc7d4ad1461078857600080fd5b80639e4b5745116101135780639e4b574514610615578063a4c0ed361461062b578063a78135871461064b578063a9059cbb1461067f578063bf376c7a1461069f578063c028df06146106bf57600080fd5b80637dc0d1d0146105885780637dc2cd98146105a85780637ecebe00146105be5780638fd3ab80146105eb57806395d89b411461060057600080fd5b806332a7ae95116101f357806350e70d48116101ac57806350e70d48146104cd57806360918117146104f2578063648bf7741461050857806370a082311461052857806377e071ad146105485780637adbf9731461056857600080fd5b806332a7ae951461042357806332bc320b146104435780633644e515146104585780634000aea01461046d57806342966c681461048d57806345c8a62b146104ad57600080fd5b80631703a018116102455780631703a0181461034e57806318160ddd14610382578063198453541461039757806323b872dd146103b95780632a0a4ed5146103d9578063313ce567146103f757600080fd5b806306fdde03146102825780630832e470146102ad578063095ea7b3146102d15780630a81b2de146103015780630c6f0e5d14610316575b600080fd5b34801561028e57600080fd5b50610297610895565b6040516102a491906120b8565b60405180910390f35b3480156102b957600080fd5b506102c360045481565b6040519081526020016102a4565b3480156102dd57600080fd5b506102f16102ec3660046120e0565b61095c565b60405190151581526020016102a4565b34801561030d57600080fd5b506102c3610973565b34801561032257600080fd5b50600754610336906001600160a01b031681565b6040516001600160a01b0390911681526020016102a4565b34801561035a57600080fd5b506102c37f000000000000000000000000000000000000000000000000000000000000000081565b34801561038e57600080fd5b506002546102c3565b3480156103a357600080fd5b506103b76103b23660046120e0565b6109f1565b005b3480156103c557600080fd5b506102f16103d436600461210c565b610a9d565b3480156103e557600080fd5b506006546001600160a01b0316610336565b34801561040357600080fd5b506003546104119060ff1681565b60405160ff90911681526020016102a4565b34801561042f57600080fd5b506103b761043e36600461214d565b610b14565b34801561044f57600080fd5b506103b7610be1565b34801561046457600080fd5b506102c3610c1d565b34801561047957600080fd5b506102f161048836600461216a565b610c76565b34801561049957600080fd5b506103b76104a83660046121f3565b610d07565b3480156104b957600080fd5b506103b76104c836600461214d565b610d68565b3480156104d957600080fd5b506003546103369061010090046001600160a01b031681565b3480156104fe57600080fd5b506102c360085481565b34801561051457600080fd5b506103b761052336600461220c565b610da1565b34801561053457600080fd5b506102c361054336600461214d565b610dfc565b34801561055457600080fd5b506102c361056336600461214d565b610e20565b34801561057457600080fd5b506103b761058336600461214d565b610f05565b34801561059457600080fd5b50600654610336906001600160a01b031681565b3480156105b457600080fd5b5062ed4e006102c3565b3480156105ca57600080fd5b506102c36105d936600461214d565b60096020526000908152604090205481565b3480156105f757600080fd5b506103b7610fa1565b34801561060c57600080fd5b50610297610fae565b34801561062157600080fd5b50600454156102f1565b34801561063757600080fd5b506102f161064636600461216a565b61104f565b34801561065757600080fd5b506102c37f000000000000000000000000000000000000000000000000000000000000000081565b34801561068b57600080fd5b506102f161069a3660046120e0565b61108b565b3480156106ab57600080fd5b506103b76106ba3660046120e0565b61109e565b3480156106cb57600080fd5b50600554610336906001600160a01b031681565b3480156106eb57600080fd5b506102c36106fa36600461214d565b611143565b34801561070b57600080fd5b506103b761071a36600461214d565b61114e565b34801561072b57600080fd5b506103367f000000000000000000000000000000000000000000000000000000000000000081565b34801561075f57600080fd5b506102976111a3565b34801561077457600080fd5b506103b7610783366004612256565b611231565b6103b76107963660046122c4565b611421565b3480156107a757600080fd5b506102c36107b636600461220c565b6001600160a01b03918216600090815260016020908152604080832093909416825291909152205490565b3480156107ed57600080fd5b506103367f000000000000000000000000000000000000000000000000000000000000000081565b34801561082157600080fd5b506103b76108303660046121f3565b6115d4565b34801561084157600080fd5b506103b761085036600461214d565b611600565b34801561086157600080fd5b506102f16108703660046122fd565b611655565b34801561088157600080fd5b506103b761089036600461220c565b611661565b60606000600360019054906101000a90046001600160a01b03166001600160a01b03166306fdde036040518163ffffffff1660e01b8152600401600060405180830381865afa1580156108ec573d6000803e3d6000fd5b505050506040513d6000823e601f3d908101601f191682016040526109149190810190612348565b90506109206004541590565b1561094b578060405160200161093691906123f5565b60405160208183030381529060405291505090565b80604051602001610936919061241d565b60006109693384846116a9565b5060015b92915050565b6000600360019054906101000a90046001600160a01b03166001600160a01b0316633a98ef396040518163ffffffff1660e01b8152600401602060405180830381865afa1580156109c8573d6000803e3d6000fd5b505050506040513d601f19601f820116820180604052508101906109ec919061244b565b905090565b6006546001600160a01b03163314610a3d5760405162461bcd60e51b815260206004820152600a6024820152696e6f74206f7261636c6560b01b60448201526064015b60405180910390fd5b610a45610973565b81610a4f60025490565b610a59919061247a565b1115610a8f5760405162461bcd60e51b8152602060048201526005602482015264766f74657360d81b6044820152606401610a34565b610a99828261170b565b5050565b6000610aaa848484611878565b6001600160a01b0384166000908152600160209081526040808320338452909152902054600160ff1b811015610b0957610ae4838261248d565b6001600160a01b03861660009081526001602090815260408083203384529091529020555b506001949350505050565b6006546001600160a01b03163314610b625760405162461bcd60e51b81526020600482015260116024820152703737ba1031b630b4b6903232b632ba32b960791b6044820152606401610a34565b6040516332a7ae9560e01b81526001600160a01b0382811660048301527f000000000000000000000000000000000000000000000000000000000000000016906332a7ae95906024015b600060405180830381600087803b158015610bc657600080fd5b505af1158015610bda573d6000803e3d6000fd5b5050505050565b6005546001600160a01b03163314610c0b5760405162461bcd60e51b8152600401610a34906124a0565b600580546001600160a01b0319169055565b604080517f47e79534a245952e8b16893a336b85a3d9ea9fa8c573f3d803afb92a794692186020820152469181019190915230606082015260009060800160405160208183030381529060405280519060200120905090565b6000610c82858561108b565b8015610cfe5750604051635260769b60e11b81526001600160a01b0386169063a4c0ed3690610cbb9033908890889088906004016124c0565b6020604051808303816000875af1158015610cda573d6000803e3d6000fd5b505050506040513d601f19601f82011682018060405250810190610cfe9190612508565b95945050505050565b610d1133826118dc565b6003546001600160a01b03610100909104166342966c68610d326004541590565b610d4857600454610d43908461252a565b610d4a565b825b6040518263ffffffff1660e01b8152600401610bac91815260200190565b6005546001600160a01b03163314610d925760405162461bcd60e51b8152600401610a34906124a0565b610d9e81600180611950565b50565b336001600160a01b037f00000000000000000000000000000000000000000000000000000000000000001614610de95760405162461bcd60e51b8152600401610a3490612541565b610a998282610df785610dfc565b611878565b6001600160a01b03166000908152602081905260409020546001600160e01b031690565b600080610e2c836119b4565b90508015610e3a5792915050565b6000610e466004541590565b610e5257600454610e55565b60015b6003549091506001600160a01b03610100909104811690851603610e7a579392505050565b6003546040516377e071ad60e01b81526001600160a01b0386811660048301528392610100900416906377e071ad90602401602060405180830381865afa158015610ec9573d6000803e3d6000fd5b505050506040513d601f19601f82011682018060405250810190610eed919061244b565b610ef7919061252a565b949350505050565b50919050565b6006546001600160a01b03163314610f4c5760405162461bcd60e51b815260206004820152600a6024820152696e6f74206f7261636c6560b01b6044820152606401610a34565b600680546001600160a01b0319166001600160a01b0383169081179091556040519081527fc3977c9522c218453912bcab15964a7788968fbf3fe4d4e2965252c9f07055de906020015b60405180910390a150565b610fac33600061170b565b565b6060600360019054906101000a90046001600160a01b03166001600160a01b03166395d89b416040518163ffffffff1660e01b8152600401600060405180830381865afa158015611003573d6000803e3d6000fd5b505050506040513d6000823e601f3d908101601f1916820160405261102b9190810190612348565b60405160200161103b9190612567565b604051602081830303815290604052905090565b60035460009061010090046001600160a01b031633146110815760405162461bcd60e51b8152600401610a34906124a0565b610b0985856119f9565b60006110978383611a65565b9392505050565b6003546040516323b872dd60e01b8152336004820152306024820152604481018390526101009091046001600160a01b0316906323b872dd906064016020604051808303816000875af11580156110f9573d6000803e3d6000fd5b505050506040513d601f19601f8201168201806040525081019061111d9190612508565b6111395760405162461bcd60e51b8152600401610a349061258c565b610a9982826119f9565b600061096d82610dfc565b336001600160a01b037f000000000000000000000000000000000000000000000000000000000000000016146111965760405162461bcd60e51b8152600401610a3490612541565b610d9e81600a6001611950565b600a80546111b0906125ae565b80601f01602080910402602001604051908101604052809291908181526020018280546111dc906125ae565b80156112295780601f106111fe57610100808354040283529160200191611229565b820191906000526020600020905b81548152906001019060200180831161120c57829003601f168201915b505050505081565b428410156112815760405162461bcd60e51b815260206004820152601760248201527f5045524d49545f444541444c494e455f455850495245440000000000000000006044820152606401610a34565b6000600161128d610c1d565b6001600160a01b038a811660008181526009602090815260409182902080546001810190915582517f6e71edae12b1b97f4d1f60370fef10105fa2faae0126114a169c64845d6126c98184015280840194909452938d166060840152608083018c905260a083019390935260c08083018b90528151808403909101815260e08301909152805192019190912061190160f01b6101008301526101028201929092526101228101919091526101420160408051601f198184030181528282528051602091820120600084529083018083525260ff871690820152606081018590526080810184905260a0016020604051602081039080840390855afa158015611399573d6000803e3d6000fd5b5050604051601f1901519150506001600160a01b038116158015906113cf5750876001600160a01b0316816001600160a01b0316145b61140c5760405162461bcd60e51b815260206004820152600e60248201526d24a72b20a624a22fa9a4a3a722a960911b6044820152606401610a34565b6114178188886116a9565b5050505050505050565b600454156114415760405162461bcd60e51b8152600401610a34906125e2565b604051634dc5e43160e01b815260048101849052336024820152604481018390526001600160a01b0382811660648301527f000000000000000000000000000000000000000000000000000000000000000060848301527f000000000000000000000000000000000000000000000000000000000000000060a48301526000917f000000000000000000000000000000000000000000000000000000000000000090911690634dc5e43190349060c40160206040518083038185885af115801561150f573d6000803e3d6000fd5b50505050506040513d601f19601f820116820180604052508101906115349190612602565b905061154a6005546001600160a01b0316151590565b156115af57600554604051637b64620f60e11b81526001600160a01b0383811660048301529091169063f6c8c41e90602401600060405180830381600087803b15801561159657600080fd5b505af11580156115aa573d6000803e3d6000fd5b505050505b600580546001600160a01b0319166001600160a01b0392909216919091179055505050565b6004546115f35760405162461bcd60e51b8152600401610a34906125e2565b610d9e3382600454611b1f565b336001600160a01b037f000000000000000000000000000000000000000000000000000000000000000016146116485760405162461bcd60e51b8152600401610a3490612541565b610d9e81600a6000611950565b60006110978383611bda565b6005546001600160a01b0316331461168b5760405162461bcd60e51b8152600401610a34906124a0565b61169f8261169884610dfc565b6001611b1f565b610a998183611c1a565b6001600160a01b0383811660008181526001602090815260408083209487168084529482529182902085905590518481527f8c5be1e5ebec7d5bd14f71427d1e84f3dd0314c0f7b2291e5b200ac8c7c3b92591015b60405180910390a3505050565b600061171683610dfc565b611720908361247a565b9050600061172c610973565b9050808211156117665760405162461bcd60e51b8152602060048201526005602482015264766f74657360d81b6044820152606401610a34565b6005546001600160a01b0316156117aa5760405162461bcd60e51b815260206004820152600860248201526737379037b33332b960c11b6044820152606401610a34565b6117d47f00000000000000000000000000000000000000000000000000000000000000008261252a565b6117e06127108461252a565b10156118175760405162461bcd60e51b815260206004820152600660248201526571756f72756d60d01b6044820152606401610a34565b6118218485611c1a565b604080516001600160a01b038616815260208101849052908101849052606081018290527f85e5711a70a7d2bae18e1232af474d82c98600b0e62fe079a28208520b58568e9060800160405180910390a150505050565b611883838383611ddd565b61188d8382611de8565b6118978282611e7e565b816001600160a01b0316836001600160a01b03167fddf252ad1be2c89b69c2b068fc378daa952ba7f163c4a11628f55a4df523b3ef836040516116fe91815260200190565b6118e882600083611ddd565b80600260008282546118fa919061248d565b9091555061190a90508282611de8565b6040518181526000906001600160a01b038416907fddf252ad1be2c89b69c2b068fc378daa952ba7f163c4a11628f55a4df523b3ef906020015b60405180910390a35050565b600061195d8360e061261f565b6001600160a01b038516600090815260208190526040902054600160ff929092169190911b9150808216821483151514610bda576001600160a01b0394909416600090815260208190526040902093189092555050565b6000306001600160a01b038316036119ce57506001919050565b6007546001600160a01b03908116908316036119ec57505060085490565b506000919050565b919050565b611a0560008383611ddd565b8060026000828254611a17919061247a565b90915550611a2790508282611e7e565b6040518181526001600160a01b038316906000907fddf252ad1be2c89b69c2b068fc378daa952ba7f163c4a11628f55a4df523b3ef90602001611944565b6000611a718383611f2e565b611a8d5760405162461bcd60e51b8152600401610a349061258c565b611a9833600a611bda565b15610969576040516304d301a360e41b81523360048201527f00000000000000000000000000000000000000000000000000000000000000006001600160a01b031690634d301a3090602401600060405180830381600087803b158015611afe57600080fd5b505af1158015611b12573d6000803e3d6000fd5b5050505050600192915050565b611b2983836118dc565b60035461010090046001600160a01b031663a9059cbb84611b4a848661252a565b6040516001600160e01b031960e085901b1681526001600160a01b03909216600483015260248201526044016020604051808303816000875af1158015611b95573d6000803e3d6000fd5b505050506040513d601f19601f82011682018060405250810190611bb99190612508565b611bd55760405162461bcd60e51b8152600401610a349061258c565b505050565b600080611be88360e061261f565b6001600160a01b038516600090815260208190526040902054600160ff929092169190911b9081161491505092915050565b60045415611c3a5760405162461bcd60e51b8152600401610a34906125e2565b6003546040516370a0823160e01b81523060048201526101009091046001600160a01b03169063a9059cbb90839083906370a0823190602401602060405180830381865afa158015611c90573d6000803e3d6000fd5b505050506040513d601f19601f82011682018060405250810190611cb4919061244b565b6040516001600160e01b031960e085901b1681526001600160a01b03909216600483015260248201526044016020604051808303816000875af1158015611cff573d6000803e3d6000fd5b505050506040513d601f19601f82011682018060405250810190611d239190612508565b611d3f5760405162461bcd60e51b8152600401610a349061258c565b60038054610100600160a81b0319166101006001600160a01b03851602179055600254610a99906040516370a0823160e01b81523060048201526001600160a01b038516906370a0823190602401602060405180830381865afa158015611daa573d6000803e3d6000fd5b505050506040513d601f19601f82011682018060405250810190611dce919061244b565b611dd89190612638565b611f3b565b611bd5838383611fa0565b6001600160a01b03821660009081526020819052604081205490611e0c838361248d565b90506001600160e01b031981166001600160e01b0319831614611e5d5760405162461bcd60e51b8152602060048201526009602482015268756e646572666c6f7760b81b6044820152606401610a34565b6001600160a01b039093166000908152602081905260409020929092555050565b6001600160a01b038216611eba5760405162461bcd60e51b815260206004820152600360248201526203078360ec1b6044820152606401610a34565b6001600160a01b03821660009081526020819052604081205490611ede838361247a565b90506001600160e01b031981166001600160e01b0319831614611e5d5760405162461bcd60e51b81526020600482015260086024820152676f766572666c6f7760c01b6044820152606401610a34565b6000610969338484611878565b6001811015611f5c5760405162461bcd60e51b8152600401610a34906125e2565b60048190557f6c20b91d1723b78732eba64ff11ebd7966a6e4af568a00fa4f6b72c20f58b02a611f8a610895565b611f92610fae565b604051610f9692919061265a565b611fa98361205b565b80611fb85750611fb88261205b565b15611bd5576005546001600160a01b0316156120415760055460405163e1a1810f60e01b81526001600160a01b0385811660048301528481166024830152604482018490529091169063e1a1810f90606401600060405180830381600087803b15801561202457600080fd5b505af1158015612038573d6000803e3d6000fd5b50505050505050565b61204e8360016000611950565b611bd58260016000611950565b600061096d826001611bda565b60005b8381101561208357818101518382015260200161206b565b50506000910152565b600081518084526120a4816020860160208601612068565b601f01601f19169290920160200192915050565b602081526000611097602083018461208c565b6001600160a01b0381168114610d9e57600080fd5b600080604083850312156120f357600080fd5b82356120fe816120cb565b946020939093013593505050565b60008060006060848603121561212157600080fd5b833561212c816120cb565b9250602084013561213c816120cb565b929592945050506040919091013590565b60006020828403121561215f57600080fd5b8135611097816120cb565b6000806000806060858703121561218057600080fd5b843561218b816120cb565b935060208501359250604085013567ffffffffffffffff808211156121af57600080fd5b818701915087601f8301126121c357600080fd5b8135818111156121d257600080fd5b8860208285010111156121e457600080fd5b95989497505060200194505050565b60006020828403121561220557600080fd5b5035919050565b6000806040838503121561221f57600080fd5b823561222a816120cb565b9150602083013561223a816120cb565b809150509250929050565b803560ff811681146119f457600080fd5b600080600080600080600060e0888a03121561227157600080fd5b873561227c816120cb565b9650602088013561228c816120cb565b955060408801359450606088013593506122a860808901612245565b925060a0880135915060c0880135905092959891949750929550565b6000806000606084860312156122d957600080fd5b833592506020840135915060408401356122f2816120cb565b809150509250925092565b6000806040838503121561231057600080fd5b823561231b816120cb565b915061232960208401612245565b90509250929050565b634e487b7160e01b600052604160045260246000fd5b60006020828403121561235a57600080fd5b815167ffffffffffffffff8082111561237257600080fd5b818401915084601f83011261238657600080fd5b81518181111561239857612398612332565b604051601f8201601f19908116603f011681019083821181831017156123c0576123c0612332565b816040528281528760208487010111156123d957600080fd5b6123ea836020830160208801612068565b979650505050505050565b60008251612407818460208701612068565b632053484160e01b920191825250600401919050565b6000825161242f818460208701612068565b692028577261707065642960b01b920191825250600a01919050565b60006020828403121561245d57600080fd5b5051919050565b634e487b7160e01b600052601160045260246000fd5b8082018082111561096d5761096d612464565b8181038181111561096d5761096d612464565b60208082526006908201526539b2b73232b960d11b604082015260600190565b6001600160a01b0385168152602081018490526060604082018190528101829052818360808301376000818301608090810191909152601f909201601f191601019392505050565b60006020828403121561251a57600080fd5b8151801515811461109757600080fd5b808202811582820484141761096d5761096d612464565b6020808252600c908201526b6e6f74207265636f7665727960a01b604082015260600190565b60008251612579818460208701612068565b605360f81b920191825250600101919050565b6020808252600890820152673a3930b739b332b960c11b604082015260600190565b600181811c908216806125c257607f821691505b602082108103610eff57634e487b7160e01b600052602260045260246000fd5b6020808252600690820152653330b1ba37b960d11b604082015260600190565b60006020828403121561261457600080fd5b8151611097816120cb565b60ff818116838216019081111561096d5761096d612464565b60008261265557634e487b7160e01b600052601260045260246000fd5b500490565b60408152600061266d604083018561208c565b8281036020840152610cfe818561208c56fea2646970667358221220430bb92da3773206f6f40f15ddc0e08b3750605f364acc1cdd764a717445edc264736f6c63430008130033",
  "devdoc": {
    "author": "Luzius Meisser, luzius@aktionariat.com This is an ERC-20 token representing share tokens of CompanyName AG that are bound to a shareholder agreement that can be found at the URL defined in the constant 'terms'.",
    "events": {
      "Approval(address,address,uint256)": {
        "details": "Emitted when the allowance of a `spender` for an `owner` is set by a call to `approve`. `value` is the new allowance."
      },
      "Transfer(address,address,uint256)": {
        "details": "Emitted when `value` tokens are moved from one account (`from`) to another (`to`). Note that `value` may be zero."
      }
    },
    "kind": "dev",
    "methods": {
      "DOMAIN_SEPARATOR()": {
        "details": "Returns the domain separator used in the encoding of the signature for {permit}, as defined by {EIP712}."
      },
      "allowance(address,address)": {
        "details": "See `IERC20.allowance`."
      },
      "approve(address,uint256)": {
        "details": "See `IERC20.approve`. Requirements: - `spender` cannot be the zero address."
      },
      "balanceOf(address)": {
        "details": "See `IERC20.balanceOf`."
      },
      "permit(address,address,uint256,uint256,uint8,bytes32,bytes32)": {
        "details": "Sets `value` as the allowance of `spender` over ``owner``'s tokens, given ``owner``'s signed approval. IMPORTANT: The same issues {IERC20-approve} has related to transaction ordering also apply here. Emits an {Approval} event. Requirements: - `spender` cannot be the zero address. - `deadline` must be a timestamp in the future. - `v`, `r` and `s` must be a valid `secp256k1` signature from `owner` over the EIP712-formatted function arguments. - the signature must use ``owner``'s current nonce (see {nonces}). For more information on the signature format, see the https://eips.ethereum.org/EIPS/eip-2612#specification[relevant EIP section]."
      },
      "totalSupply()": {
        "details": "See `IERC20.totalSupply`."
      },
      "transferFrom(address,address,uint256)": {
        "details": "See `IERC20.transferFrom`. Emits an `Approval` event indicating the updated allowance. This is not required by the EIP. See the note at the beginning of `ERC20`; Requirements: - `sender` and `recipient` cannot be the zero address. - `sender` must have a balance of at least `value`. - the caller must have allowance for `sender`'s tokens of at least `amount`."
      }
    },
    "title": "CompanyName AG Shares SHA",
    "version": 1
  },
  "userdoc": {
    "kind": "user",
    "methods": {
      "burn(uint256)": {
        "notice": "Burns both the token itself as well as the wrapped token! If you want to get out of the shareholder agreement, use unwrap after it has been deactivated by a majority vote or acquisition. Burning only works if wrapped token supports burning. Also, the exact meaning of this operation might depend on the circumstances. Burning and reussing the wrapped token does not free the sender from the legal obligations of the shareholder agreement."
      },
      "getClaimDeleter()": {
        "notice": "Let the oracle act as deleter of invalid claims. In earlier versions, this was referring to the claim deleter of the wrapped token. But that stops working after a successful acquisition as the acquisition currency most likely does not have a claim deleter."
      },
      "getCollateralRate(address)": {
        "notice": "Returns the collateral rate for the given collateral type and 0 if that type of collateral is not accepted. By default, only the token itself is accepted at a rate of 1:1. Subclasses should override this method if they want to add additional types of collateral."
      },
      "isBinding()": {
        "notice": "Indicates that the token holders are bound to the token terms and that: - Conversion back to the wrapped token (unwrap) is not allowed - A drag-along can be performed by making an according offer - They can be migrated to a new version of this contract in accordance with the terms"
      },
      "name()": {
        "notice": "Current recommended naming convention is to add the postfix \"SHA\" to the plain shares in order to indicate that this token represents shares bound to a shareholder agreement."
      },
      "unwrap(uint256)": {
        "notice": "Decrease the number of drag-along tokens. The user gets back their shares in return "
      },
      "wrap(address,uint256)": {
        "notice": "Wraps additional tokens, thereby creating more ERC20Draggable tokens. "
      }
    },
    "version": 1
  },
  "storageLayout": {
    "storage": [
      {
        "astId": 424,
        "contract": "src/shares/DraggableShares.sol:DraggableShares",
        "label": "_balances",
        "offset": 0,
        "slot": "0",
        "type": "t_mapping(t_address,t_uint256)"
      },
      {
        "astId": 430,
        "contract": "src/shares/DraggableShares.sol:DraggableShares",
        "label": "_allowances",
        "offset": 0,
        "slot": "1",
        "type": "t_mapping(t_address,t_mapping(t_address,t_uint256))"
      },
      {
        "astId": 432,
        "contract": "src/shares/DraggableShares.sol:DraggableShares",
        "label": "_totalSupply",
        "offset": 0,
        "slot": "2",
        "type": "t_uint256"
      },
      {
        "astId": 435,
        "contract": "src/shares/DraggableShares.sol:DraggableShares",
        "label": "decimals",
        "offset": 0,
        "slot": "3",
        "type": "t_uint8"
      },
      {
        "astId": 3551,
        "contract": "src/shares/DraggableShares.sol:DraggableShares",
        "label": "wrapped",
        "offset": 1,
        "slot": "3",
        "type": "t_contract(IERC20)1208"
      },
      {
        "astId": 3557,
        "contract": "src/shares/DraggableShares.sol:DraggableShares",
        "label": "unwrapConversionFactor",
        "offset": 0,
        "slot": "4",
        "type": "t_uint256"
      },
      {
        "astId": 3561,
        "contract": "src/shares/DraggableShares.sol:DraggableShares",
        "label": "offer",
        "offset": 0,
        "slot": "5",
        "type": "t_contract(IOffer)4350"
      },
      {
        "astId": 3571,
        "contract": "src/shares/DraggableShares.sol:DraggableShares",
        "label": "oracle",
        "offset": 0,
        "slot": "6",
        "type": "t_address"
      },
      {
        "astId": 8977,
        "contract": "src/shares/DraggableShares.sol:DraggableShares",
        "label": "customCollateralAddress",
        "offset": 0,
        "slot": "7",
        "type": "t_contract(IERC20)1208"
      },
      {
        "astId": 8979,
        "contract": "src/shares/DraggableShares.sol:DraggableShares",
        "label": "customCollateralRate",
        "offset": 0,
        "slot": "8",
        "type": "t_uint256"
      },
      {
        "astId": 1010,
        "contract": "src/shares/DraggableShares.sol:DraggableShares",
        "label": "nonces",
        "offset": 0,
        "slot": "9",
        "type": "t_mapping(t_address,t_uint256)"
      },
      {
        "astId": 10051,
        "contract": "src/shares/DraggableShares.sol:DraggableShares",
        "label": "terms",
        "offset": 0,
        "slot": "10",
        "type": "t_string_storage"
      }
    ],
    "types": {
      "t_address": {
        "encoding": "inplace",
        "label": "address",
        "numberOfBytes": "20"
      },
      "t_contract(IERC20)1208": {
        "encoding": "inplace",
        "label": "contract IERC20",
        "numberOfBytes": "20"
      },
      "t_contract(IOffer)4350": {
        "encoding": "inplace",
        "label": "contract IOffer",
        "numberOfBytes": "20"
      },
      "t_mapping(t_address,t_mapping(t_address,t_uint256))": {
        "encoding": "mapping",
        "key": "t_address",
        "label": "mapping(address => mapping(address => uint256))",
        "numberOfBytes": "32",
        "value": "t_mapping(t_address,t_uint256)"
      },
      "t_mapping(t_address,t_uint256)": {
        "encoding": "mapping",
        "key": "t_address",
        "label": "mapping(address => uint256)",
        "numberOfBytes": "32",
        "value": "t_uint256"
      },
      "t_string_storage": {
        "encoding": "bytes",
        "label": "string",
        "numberOfBytes": "32"
      },
      "t_uint256": {
        "encoding": "inplace",
        "label": "uint256",
        "numberOfBytes": "32"
      },
      "t_uint8": {
        "encoding": "inplace",
        "label": "uint8",
        "numberOfBytes": "1"
      }
    }
  }
}