{
  "address": "0xf6d15DaDA00860fc796D1029529AAE13152c9306",
  "abi": [
    {
      "inputs": [
        {
          "internalType": "contract IQuoter",
          "name": "_quoter",
          "type": "address"
        },
        {
          "internalType": "contract ISwapRouter",
          "name": "swapRouter",
          "type": "address"
        }
      ],
      "stateMutability": "nonpayable",
      "type": "constructor"
    },
    {
      "inputs": [
        {
          "internalType": "address",
          "name": "erc20In",
          "type": "address"
        }
      ],
      "name": "approveERC20",
      "outputs": [],
      "stateMutability": "nonpayable",
      "type": "function"
    },
    {
      "inputs": [
        {
          "internalType": "uint256",
          "name": "amountInBase",
          "type": "uint256"
        },
        {
          "internalType": "bytes",
          "name": "path",
          "type": "bytes"
        }
      ],
      "name": "getPriceInERC20",
      "outputs": [
        {
          "internalType": "uint256",
          "name": "",
          "type": "uint256"
        }
      ],
      "stateMutability": "nonpayable",
      "type": "function"
    },
    {
      "inputs": [
        {
          "internalType": "uint256",
          "name": "amountInBase",
          "type": "uint256"
        },
        {
          "internalType": "contract IBrokerbot",
          "name": "brokerBot",
          "type": "address"
        }
      ],
      "name": "getPriceInEther",
      "outputs": [
        {
          "internalType": "uint256",
          "name": "",
          "type": "uint256"
        }
      ],
      "stateMutability": "nonpayable",
      "type": "function"
    },
    {
      "inputs": [
        {
          "internalType": "contract IERC20",
          "name": "token",
          "type": "address"
        },
        {
          "internalType": "address[]",
          "name": "recipients",
          "type": "address[]"
        },
        {
          "internalType": "uint256[]",
          "name": "amounts",
          "type": "uint256[]"
        }
      ],
      "name": "multiPay",
      "outputs": [],
      "stateMutability": "nonpayable",
      "type": "function"
    },
    {
      "inputs": [
        {
          "internalType": "contract IERC20",
          "name": "token",
          "type": "address"
        },
        {
          "internalType": "address[]",
          "name": "recipients",
          "type": "address[]"
        },
        {
          "internalType": "uint256[]",
          "name": "amounts",
          "type": "uint256[]"
        },
        {
          "internalType": "bytes",
          "name": "ref",
          "type": "bytes"
        }
      ],
      "name": "multiPayAndNotify",
      "outputs": [],
      "stateMutability": "nonpayable",
      "type": "function"
    },
    {
      "inputs": [
        {
          "internalType": "address",
          "name": "recipient",
          "type": "address"
        },
        {
          "internalType": "uint256",
          "name": "amountInBase",
          "type": "uint256"
        },
        {
          "internalType": "bytes",
          "name": "ref",
          "type": "bytes"
        }
      ],
      "name": "payAndNotify",
      "outputs": [],
      "stateMutability": "nonpayable",
      "type": "function"
    },
    {
      "inputs": [
        {
          "internalType": "contract IERC20",
          "name": "token",
          "type": "address"
        },
        {
          "internalType": "address",
          "name": "recipient",
          "type": "address"
        },
        {
          "internalType": "uint256",
          "name": "amount",
          "type": "uint256"
        },
        {
          "internalType": "bytes",
          "name": "ref",
          "type": "bytes"
        }
      ],
      "name": "payAndNotify",
      "outputs": [],
      "stateMutability": "nonpayable",
      "type": "function"
    },
    {
      "inputs": [
        {
          "internalType": "uint256",
          "name": "amountOut",
          "type": "uint256"
        },
        {
          "internalType": "uint256",
          "name": "amountInMaximum",
          "type": "uint256"
        },
        {
          "internalType": "address",
          "name": "erc20In",
          "type": "address"
        },
        {
          "internalType": "bytes",
          "name": "path",
          "type": "bytes"
        },
        {
          "internalType": "address",
          "name": "recipient",
          "type": "address"
        }
      ],
      "name": "payFromERC20",
      "outputs": [
        {
          "internalType": "uint256",
          "name": "amountIn",
          "type": "uint256"
        }
      ],
      "stateMutability": "nonpayable",
      "type": "function"
    },
    {
      "inputs": [
        {
          "internalType": "address",
          "name": "recipient",
          "type": "address"
        },
        {
          "internalType": "uint256",
          "name": "amountBase",
          "type": "uint256"
        },
        {
          "internalType": "address",
          "name": "erc20",
          "type": "address"
        },
        {
          "internalType": "uint256",
          "name": "amountInMaximum",
          "type": "uint256"
        },
        {
          "internalType": "bytes",
          "name": "path",
          "type": "bytes"
        },
        {
          "internalType": "bytes",
          "name": "ref",
          "type": "bytes"
        }
      ],
      "name": "payFromERC20AndNotify",
      "outputs": [],
      "stateMutability": "nonpayable",
      "type": "function"
    },
    {
      "inputs": [
        {
          "internalType": "address",
          "name": "recipient",
          "type": "address"
        },
        {
          "internalType": "uint256",
          "name": "amountInBase",
          "type": "uint256"
        },
        {
          "internalType": "contract IERC20",
          "name": "base",
          "type": "address"
        }
      ],
      "name": "payFromEther",
      "outputs": [],
      "stateMutability": "payable",
      "type": "function"
    },
    {
      "inputs": [
        {
          "internalType": "contract IBrokerbot",
          "name": "recipient",
          "type": "address"
        },
        {
          "internalType": "uint256",
          "name": "amountInBase",
          "type": "uint256"
        },
        {
          "internalType": "bytes",
          "name": "ref",
          "type": "bytes"
        }
      ],
      "name": "payFromEtherAndNotify",
      "outputs": [],
      "stateMutability": "payable",
      "type": "function"
    },
    {
      "inputs": [
        {
          "internalType": "contract IERC20",
          "name": "ercAddress",
          "type": "address"
        },
        {
          "internalType": "address",
          "name": "to",
          "type": "address"
        },
        {
          "internalType": "uint256",
          "name": "amount",
          "type": "uint256"
        }
      ],
      "name": "recover",
      "outputs": [],
      "stateMutability": "nonpayable",
      "type": "function"
    },
    {
      "stateMutability": "payable",
      "type": "receive"
    }
  ],
  "transactionHash": "0x4fdfa537955c20f98fff623825cc9b2bbb6f4c0709b593e5ca794b782eb5eb63",
  "args": [
    "0xb27308f9F90D607463bb33eA1BeBb41C27CE5AB6",
    "0xE592427A0AEce92De3Edee1F18E0157C05861564"
  ],
  "numDeployments": 1,
  "solcInputHash": "dae060096d88d5b4f57834331ba9999b",
  "bytecode": "0x60c06040523480156200001157600080fd5b5060405162001b5d38038062001b5d833981016040819052620000349162000065565b6001600160a01b039182166080521660a052620000a4565b6001600160a01b03811681146200006257600080fd5b50565b600080604083850312156200007957600080fd5b825162000086816200004c565b602084015190925062000099816200004c565b809150509250929050565b60805160a051611a5b62000102600039600081816103d5015281816108dd0152610e2201526000818161033b0152818161094c01528181610a9d01528181611060015281816110ab015281816111b901526111e80152611a5b6000f3fe6080604052600436106100ab5760003560e01c8063568f325411610064578063568f32541461017e5780635daf206a1461019e5780636fb0c7dc146101be578063d3b3ca77146101d1578063d64d4ba5146101f1578063e25b37c61461021157600080fd5b8063040c037a146100b7578063078aa964146100cc57806311e8701c146100fe57806317f565d21461011e5780631c9af2e31461013e5780631ec82cb81461015e57600080fd5b366100b257005b600080fd5b6100ca6100c5366004611313565b610231565b005b3480156100d857600080fd5b506100ec6100e7366004611412565b610321565b60405190815260200160405180910390f35b34801561010a57600080fd5b506100ca610119366004611459565b6103be565b34801561012a57600080fd5b506100ca610139366004611313565b610458565b34801561014a57600080fd5b506100ca6101593660046114c2565b6104cc565b34801561016a57600080fd5b506100ca610179366004611545565b6105bb565b34801561018a57600080fd5b506100ca610199366004611586565b61063c565b3480156101aa57600080fd5b506100ca6101b9366004611633565b6106ae565b6100ca6101cc3660046116b6565b6108d9565b3480156101dd57600080fd5b506100ca6101ec3660046116f8565b610d47565b3480156101fd57600080fd5b506100ec61020c36600461175a565b610dfd565b34801561021d57600080fd5b506100ec61022c3660046117d2565b610fd2565b6000846001600160a01b0316635001f3b56040518163ffffffff1660e01b8152600401602060405180830381865afa158015610271573d6000803e3d6000fd5b505050506040513d601f19601f820116820180604052508101906102959190611802565b90506102a28585836108d9565b60405163349b2e2960e11b81526001600160a01b038616906369365c52906102d6908490339089908990899060040161181f565b6020604051808303816000875af11580156102f5573d6000803e3d6000fd5b505050506040513d601f19601f820116820180604052508101906103199190611873565b505050505050565b604051632f80bb1d60e01b81526000906001600160a01b037f00000000000000000000000000000000000000000000000000000000000000001690632f80bb1d9061037290859087906004016118d9565b6020604051808303816000875af1158015610391573d6000803e3d6000fd5b505050506040513d601f19601f820116820180604052508101906103b59190611873565b90505b92915050565b60405163095ea7b360e01b81526001600160a01b037f000000000000000000000000000000000000000000000000000000000000000081166004830152600160ff1b602483015282169063095ea7b3906044016020604051808303816000875af1158015610430573d6000803e3d6000fd5b505050506040513d601f19601f8201168201806040525081019061045491906118fb565b5050565b6104c6846001600160a01b0316635001f3b56040518163ffffffff1660e01b8152600401602060405180830381865afa158015610499573d6000803e3d6000fd5b505050506040513d601f19601f820116820180604052508101906104bd9190611802565b85858585610d47565b50505050565b60005b8381101561031957856001600160a01b03166323b872dd338787858181106104f9576104f961191d565b905060200201602081019061050e9190611459565b8686868181106105205761052061191d565b6040516001600160e01b031960e088901b1681526001600160a01b039586166004820152949093166024850152506020909102013560448201526064016020604051808303816000875af115801561057c573d6000803e3d6000fd5b505050506040513d601f19601f820116820180604052508101906105a091906118fb565b6105a957600080fd5b806105b381611949565b9150506104cf565b60405163a9059cbb60e01b81526001600160a01b0383811660048301526024820183905284169063a9059cbb906044016020604051808303816000875af115801561060a573d6000803e3d6000fd5b505050506040513d601f19601f8201168201806040525081019061062e91906118fb565b61063757600080fd5b505050565b60005b858110156106a4576106928888888481811061065d5761065d61191d565b90506020020160208101906106729190611459565b8787858181106106845761068461191d565b905060200201358686610d47565b8061069c81611949565b91505061063f565b5050505050505050565b6000876001600160a01b0316635001f3b56040518163ffffffff1660e01b8152600401602060405180830381865afa1580156106ee573d6000803e3d6000fd5b505050506040513d601f19601f820116820180604052508101906107129190611802565b6040516370a0823160e01b81526001600160a01b038a811660048301529192506000918316906370a0823190602401602060405180830381865afa15801561075e573d6000803e3d6000fd5b505050506040513d601f19601f820116820180604052508101906107829190611873565b9050610791888789888d610dfd565b506040516370a0823160e01b81526001600160a01b038a81166004830152600091908416906370a0823190602401602060405180830381865afa1580156107dc573d6000803e3d6000fd5b505050506040513d601f19601f820116820180604052508101906108009190611873565b905061080c8282611964565b891461084c5760405162461bcd60e51b815260206004820152600a60248201526939bbb0b81032b93937b960b11b60448201526064015b60405180910390fd5b6001600160a01b038a166369365c5284336108678686611964565b89896040518663ffffffff1660e01b815260040161088995949392919061181f565b6020604051808303816000875af11580156108a8573d6000803e3d6000fd5b505050506040513d601f19601f820116820180604052508101906108cc9190611873565b5050505050505050505050565b60007f00000000000000000000000000000000000000000000000000000000000000006001600160a01b03831673e4f27b04cc7729901876b44f4eaa5102ec1502651415610a8d5760006040518060a00160405280856101f473da10009cbd5d07dd0cecc66161fc93d7c9000da1610bb87f00000000000000000000000000000000000000000000000000000000000000006001600160a01b0316634aa4a4fc6040518163ffffffff1660e01b8152600401602060405180830381865afa1580156109a8573d6000803e3d6000fd5b505050506040513d601f19601f820116820180604052508101906109cc9190611802565b6040516020016109e095949392919061197b565b6040516020818303038152906040528152602001876001600160a01b03168152602001428152602001868152602001348152509050816001600160a01b031663f28c049834836040518363ffffffff1660e01b8152600401610a4291906119cd565b60206040518083038185885af1158015610a60573d6000803e3d6000fd5b50505050506040513d601f19601f82011682018060405250810190610a859190611873565b925050610c50565b60006040518061010001604052807f00000000000000000000000000000000000000000000000000000000000000006001600160a01b0316634aa4a4fc6040518163ffffffff1660e01b8152600401602060405180830381865afa158015610af9573d6000803e3d6000fd5b505050506040513d601f19601f82011682018060405250810190610b1d9190611802565b6001600160a01b03168152602001856001600160a01b03168152602001610bb862ffffff168152602001876001600160a01b0316815260200142815260200186815260200134815260200160006001600160a01b03168152509050816001600160a01b031663db3e219834836040518363ffffffff1660e01b8152600401610c09919081516001600160a01b03908116825260208084015182169083015260408084015162ffffff16908301526060808401518216908301526080808401519083015260a0838101519083015260c0808401519083015260e09283015116918101919091526101000190565b60206040518083038185885af1158015610c27573d6000803e3d6000fd5b50505050506040513d601f19601f82011682018060405250810190610c4c9190611873565b9250505b34821015610d4057806001600160a01b03166312210e8a6040518163ffffffff1660e01b8152600401600060405180830381600087803b158015610c9357600080fd5b505af1158015610ca7573d6000803e3d6000fd5b5060009250339150610cbb90508434611964565b604051600081818185875af1925050503d8060008114610cf7576040519150601f19603f3d011682016040523d82523d6000602084013e610cfc565b606091505b50509050806103195760405162461bcd60e51b815260206004820152601060248201526f2a3930b739b332b9103330b4b632b21760811b6044820152606401610843565b5050505050565b6040516323b872dd60e01b81523360048201526001600160a01b038581166024830152604482018590528616906323b872dd906064016020604051808303816000875af1158015610d9c573d6000803e3d6000fd5b505050506040513d601f19601f82011682018060405250810190610dc091906118fb565b610dc957600080fd5b60405163349b2e2960e11b81526001600160a01b038516906369365c52906102d6908890339088908890889060040161181f565b6040516323b872dd60e01b8152336004820152306024820152604481018590526000907f0000000000000000000000000000000000000000000000000000000000000000906001600160a01b038616906323b872dd906064016020604051808303816000875af1158015610e75573d6000803e3d6000fd5b505050506040513d601f19601f82011682018060405250810190610e9991906118fb565b506040805160a0810182528581526001600160a01b0380861660208301524282840152606082018a9052608082018990529151631e51809360e31b8152909183169063f28c049890610eef9084906004016119cd565b6020604051808303816000875af1158015610f0e573d6000803e3d6000fd5b505050506040513d601f19601f82011682018060405250810190610f329190611873565b925086831015610fc7576001600160a01b03861663a9059cbb33610f56868b611964565b6040516001600160e01b031960e085901b1681526001600160a01b03909216600483015260248201526044016020604051808303816000875af1158015610fa1573d6000803e3d6000fd5b505050506040513d601f19601f82011682018060405250810190610fc591906118fb565b505b505095945050505050565b600080826001600160a01b0316635001f3b56040518163ffffffff1660e01b8152600401602060405180830381865afa158015611013573d6000803e3d6000fd5b505050506040513d601f19601f820116820180604052508101906110379190611802565b90506001600160a01b03811673e4f27b04cc7729901876b44f4eaa5102ec15026514156111b7577f00000000000000000000000000000000000000000000000000000000000000006001600160a01b0316632f80bb1d826101f473da10009cbd5d07dd0cecc66161fc93d7c9000da1610bb87f00000000000000000000000000000000000000000000000000000000000000006001600160a01b0316634aa4a4fc6040518163ffffffff1660e01b8152600401602060405180830381865afa158015611107573d6000803e3d6000fd5b505050506040513d601f19601f8201168201806040525081019061112b9190611802565b60405160200161113f95949392919061197b565b604051602081830303815290604052866040518363ffffffff1660e01b815260040161116c9291906118d9565b6020604051808303816000875af115801561118b573d6000803e3d6000fd5b505050506040513d601f19601f820116820180604052508101906111af9190611873565b9150506103b8565b7f00000000000000000000000000000000000000000000000000000000000000006001600160a01b03166330d07f217f00000000000000000000000000000000000000000000000000000000000000006001600160a01b0316634aa4a4fc6040518163ffffffff1660e01b8152600401602060405180830381865afa158015611244573d6000803e3d6000fd5b505050506040513d601f19601f820116820180604052508101906112689190611802565b6040516001600160e01b031960e084901b1681526001600160a01b0391821660048201529084166024820152610bb86044820152606481018790526000608482015260a40161116c565b6001600160a01b03811681146112c757600080fd5b50565b60008083601f8401126112dc57600080fd5b50813567ffffffffffffffff8111156112f457600080fd5b60208301915083602082850101111561130c57600080fd5b9250929050565b6000806000806060858703121561132957600080fd5b8435611334816112b2565b935060208501359250604085013567ffffffffffffffff81111561135757600080fd5b611363878288016112ca565b95989497509550505050565b634e487b7160e01b600052604160045260246000fd5b600082601f83011261139657600080fd5b813567ffffffffffffffff808211156113b1576113b161136f565b604051601f8301601f19908116603f011681019082821181831017156113d9576113d961136f565b816040528381528660208588010111156113f257600080fd5b836020870160208301376000602085830101528094505050505092915050565b6000806040838503121561142557600080fd5b82359150602083013567ffffffffffffffff81111561144357600080fd5b61144f85828601611385565b9150509250929050565b60006020828403121561146b57600080fd5b8135611476816112b2565b9392505050565b60008083601f84011261148f57600080fd5b50813567ffffffffffffffff8111156114a757600080fd5b6020830191508360208260051b850101111561130c57600080fd5b6000806000806000606086880312156114da57600080fd5b85356114e5816112b2565b9450602086013567ffffffffffffffff8082111561150257600080fd5b61150e89838a0161147d565b9096509450604088013591508082111561152757600080fd5b506115348882890161147d565b969995985093965092949392505050565b60008060006060848603121561155a57600080fd5b8335611565816112b2565b92506020840135611575816112b2565b929592945050506040919091013590565b60008060008060008060006080888a0312156115a157600080fd5b87356115ac816112b2565b9650602088013567ffffffffffffffff808211156115c957600080fd5b6115d58b838c0161147d565b909850965060408a01359150808211156115ee57600080fd5b6115fa8b838c0161147d565b909650945060608a013591508082111561161357600080fd5b506116208a828b016112ca565b989b979a50959850939692959293505050565b600080600080600080600060c0888a03121561164e57600080fd5b8735611659816112b2565b9650602088013595506040880135611670816112b2565b945060608801359350608088013567ffffffffffffffff8082111561169457600080fd5b6116a08b838c01611385565b945060a08a013591508082111561161357600080fd5b6000806000606084860312156116cb57600080fd5b83356116d6816112b2565b92506020840135915060408401356116ed816112b2565b809150509250925092565b60008060008060006080868803121561171057600080fd5b853561171b816112b2565b9450602086013561172b816112b2565b935060408601359250606086013567ffffffffffffffff81111561174e57600080fd5b611534888289016112ca565b600080600080600060a0868803121561177257600080fd5b8535945060208601359350604086013561178b816112b2565b9250606086013567ffffffffffffffff8111156117a757600080fd5b6117b388828901611385565b92505060808601356117c4816112b2565b809150509295509295909350565b600080604083850312156117e557600080fd5b8235915060208301356117f7816112b2565b809150509250929050565b60006020828403121561181457600080fd5b8151611476816112b2565b6001600160a01b038681168252851660208201526040810184905260806060820181905281018290526000828460a0840137600060a0848401015260a0601f19601f85011683010190509695505050505050565b60006020828403121561188557600080fd5b5051919050565b6000815180845260005b818110156118b257602081850181015186830182015201611896565b818111156118c4576000602083870101525b50601f01601f19169290920160200192915050565b6040815260006118ec604083018561188c565b90508260208301529392505050565b60006020828403121561190d57600080fd5b8151801515811461147657600080fd5b634e487b7160e01b600052603260045260246000fd5b634e487b7160e01b600052601160045260246000fd5b600060001982141561195d5761195d611933565b5060010190565b60008282101561197657611976611933565b500390565b6bffffffffffffffffffffffff19606096871b811682526001600160e81b031960e896871b8116601484015294871b811660178301529290941b909216602b840152921b909116602e82015260420190565b602081526000825160a060208401526119e960c084018261188c565b905060018060a01b0360208501511660408401526040840151606084015260608401516080840152608084015160a0840152809150509291505056fea26469706673582212207c38a94554523e0ea1db8cf1e78e8f242133fb31dbdaef98b9644624479a828b64736f6c634300080c0033",
  "devdoc": {
    "kind": "dev",
    "methods": {
      "approveERC20(address)": {
        "details": "This function needs to be called before using the PaymentHub the first time with a new ERC20 token.",
        "params": {
          "erc20In": "The erc20 addresse to approve."
        }
      },
      "getPriceInEther(uint256,address)": {
        "returns": {
          "_0": "The price in wei."
        }
      },
      "payFromERC20(uint256,uint256,address,bytes,address)": {
        "details": "The calling address must approve this contract to spend its ERC20 for this function to succeed. As the amount of input ERC20 is variable, the calling address will need to approve for a slightly higher or infinit amount, anticipating some variance.",
        "params": {
          "amountInMaximum": "The maximum amount of ERC20 willing to be swapped for the specified amountOut of baseCurrency.",
          "amountOut": "The desired amount of baseCurrency.",
          "erc20In": "The address of the erc20 token to pay with.",
          "path": "The encoded path of the swap from erc20 to base.",
          "recipient": "The reciving address - brokerbot."
        },
        "returns": {
          "amountIn": "The amountIn of ERC20 actually spent to receive the desired amountOut."
        }
      }
    },
    "version": 1
  },
  "userdoc": {
    "kind": "user",
    "methods": {
      "approveERC20(address)": {
        "notice": "This function appoves infinite allowance for Uniswap, this is safe as the paymenthub should never hold any token (see also recover() )."
      },
      "getPriceInEther(uint256,address)": {
        "notice": "This is the method that the Brokerbot widget should use to quote the price to the user."
      },
      "multiPayAndNotify(address,address[],uint256[],bytes)": {
        "notice": "Can (at least in theory) save some gas as the sender balance only is touched in one transaction."
      },
      "payFromEther(address,uint256,address)": {
        "notice": "Convenience method to swap ether into base and pay a target address"
      },
      "recover(address,address,uint256)": {
        "notice": "In case tokens have been accidentally sent directly to this contract. Make sure to be fast as anyone can call this!"
      }
    },
    "notice": "A hub for payments. This allows tokens that do not support ERC 677 to enjoy similar functionality, namely interacting with a token-handling smart contract in one transaction, without having to set an allowance first. Instead, an allowance needs to be set only once, namely for this contract. Further, it supports automatic conversion from Ether to the payment currency through Uniswap or the reception of Ether using the current exchange rate as found in the chainlink oracle.",
    "version": 1
  },
  "storageLayout": {
    "storage": [],
    "types": null
  }
}