{
  "_format": "hh3-artifact-1",
  "contractName": "TradeReactor",
  "sourceName": "contracts/market/TradeReactor.sol",
  "abi": [
    {
      "inputs": [
        {
          "internalType": "address",
          "name": "target",
          "type": "address"
        }
      ],
      "name": "Address_NotTransferNorContract",
      "type": "error"
    },
    {
      "inputs": [
        {
          "internalType": "uint256",
          "name": "signatureDeadline",
          "type": "uint256"
        }
      ],
      "name": "IntentExpired",
      "type": "error"
    },
    {
      "inputs": [],
      "name": "InvalidFiller",
      "type": "error"
    },
    {
      "inputs": [],
      "name": "InvalidSignature",
      "type": "error"
    },
    {
      "inputs": [],
      "name": "InvalidSignatureLength",
      "type": "error"
    },
    {
      "inputs": [],
      "name": "InvalidSigner",
      "type": "error"
    },
    {
      "inputs": [],
      "name": "OfferTooLow",
      "type": "error"
    },
    {
      "inputs": [],
      "name": "OverFilled",
      "type": "error"
    },
    {
      "inputs": [
        {
          "internalType": "address",
          "name": "token",
          "type": "address"
        }
      ],
      "name": "SafeERC20FailedOperation",
      "type": "error"
    },
    {
      "inputs": [
        {
          "internalType": "uint256",
          "name": "bid",
          "type": "uint256"
        },
        {
          "internalType": "uint256",
          "name": "ask",
          "type": "uint256"
        },
        {
          "internalType": "uint16",
          "name": "minSpread",
          "type": "uint16"
        }
      ],
      "name": "SpreadTooLow",
      "type": "error"
    },
    {
      "inputs": [],
      "name": "TokenMismatch",
      "type": "error"
    },
    {
      "anonymous": false,
      "inputs": [
        {
          "indexed": false,
          "internalType": "address",
          "name": "owner",
          "type": "address"
        },
        {
          "indexed": false,
          "internalType": "address",
          "name": "filler",
          "type": "address"
        },
        {
          "indexed": false,
          "internalType": "address",
          "name": "tokenOut",
          "type": "address"
        },
        {
          "indexed": false,
          "internalType": "uint256",
          "name": "amountOut",
          "type": "uint256"
        },
        {
          "indexed": false,
          "internalType": "address",
          "name": "tokenIn",
          "type": "address"
        },
        {
          "indexed": false,
          "internalType": "uint256",
          "name": "amountIn",
          "type": "uint256"
        },
        {
          "indexed": false,
          "internalType": "uint256",
          "name": "creation",
          "type": "uint256"
        },
        {
          "indexed": false,
          "internalType": "uint256",
          "name": "expiration",
          "type": "uint256"
        },
        {
          "indexed": false,
          "internalType": "bytes",
          "name": "data",
          "type": "bytes"
        },
        {
          "indexed": false,
          "internalType": "bytes",
          "name": "signature",
          "type": "bytes"
        }
      ],
      "name": "IntentSignal",
      "type": "event"
    },
    {
      "inputs": [],
      "name": "VERSION",
      "outputs": [
        {
          "internalType": "uint16",
          "name": "",
          "type": "uint16"
        }
      ],
      "stateMutability": "view",
      "type": "function"
    },
    {
      "inputs": [
        {
          "components": [
            {
              "internalType": "address",
              "name": "owner",
              "type": "address"
            },
            {
              "internalType": "address",
              "name": "filler",
              "type": "address"
            },
            {
              "internalType": "address",
              "name": "tokenOut",
              "type": "address"
            },
            {
              "internalType": "uint256",
              "name": "amountOut",
              "type": "uint256"
            },
            {
              "internalType": "address",
              "name": "tokenIn",
              "type": "address"
            },
            {
              "internalType": "uint256",
              "name": "amountIn",
              "type": "uint256"
            },
            {
              "internalType": "uint256",
              "name": "creation",
              "type": "uint256"
            },
            {
              "internalType": "uint256",
              "name": "expiration",
              "type": "uint256"
            },
            {
              "internalType": "bytes",
              "name": "data",
              "type": "bytes"
            }
          ],
          "internalType": "struct Intent",
          "name": "intent",
          "type": "tuple"
        }
      ],
      "name": "cancelIntent",
      "outputs": [],
      "stateMutability": "nonpayable",
      "type": "function"
    },
    {
      "inputs": [
        {
          "components": [
            {
              "internalType": "address",
              "name": "owner",
              "type": "address"
            },
            {
              "internalType": "address",
              "name": "filler",
              "type": "address"
            },
            {
              "internalType": "address",
              "name": "tokenOut",
              "type": "address"
            },
            {
              "internalType": "uint256",
              "name": "amountOut",
              "type": "uint256"
            },
            {
              "internalType": "address",
              "name": "tokenIn",
              "type": "address"
            },
            {
              "internalType": "uint256",
              "name": "amountIn",
              "type": "uint256"
            },
            {
              "internalType": "uint256",
              "name": "creation",
              "type": "uint256"
            },
            {
              "internalType": "uint256",
              "name": "expiration",
              "type": "uint256"
            },
            {
              "internalType": "bytes",
              "name": "data",
              "type": "bytes"
            }
          ],
          "internalType": "struct Intent[]",
          "name": "intents",
          "type": "tuple[]"
        }
      ],
      "name": "cleanupExpiredIntentData",
      "outputs": [],
      "stateMutability": "nonpayable",
      "type": "function"
    },
    {
      "inputs": [
        {
          "internalType": "bytes32",
          "name": "",
          "type": "bytes32"
        }
      ],
      "name": "filledAmount",
      "outputs": [
        {
          "internalType": "uint256",
          "name": "",
          "type": "uint256"
        }
      ],
      "stateMutability": "view",
      "type": "function"
    },
    {
      "inputs": [
        {
          "components": [
            {
              "internalType": "address",
              "name": "owner",
              "type": "address"
            },
            {
              "internalType": "address",
              "name": "filler",
              "type": "address"
            },
            {
              "internalType": "address",
              "name": "tokenOut",
              "type": "address"
            },
            {
              "internalType": "uint256",
              "name": "amountOut",
              "type": "uint256"
            },
            {
              "internalType": "address",
              "name": "tokenIn",
              "type": "address"
            },
            {
              "internalType": "uint256",
              "name": "amountIn",
              "type": "uint256"
            },
            {
              "internalType": "uint256",
              "name": "creation",
              "type": "uint256"
            },
            {
              "internalType": "uint256",
              "name": "expiration",
              "type": "uint256"
            },
            {
              "internalType": "bytes",
              "name": "data",
              "type": "bytes"
            }
          ],
          "internalType": "struct Intent",
          "name": "intent",
          "type": "tuple"
        },
        {
          "internalType": "uint256",
          "name": "amount",
          "type": "uint256"
        }
      ],
      "name": "getAsk",
      "outputs": [
        {
          "internalType": "uint256",
          "name": "",
          "type": "uint256"
        }
      ],
      "stateMutability": "pure",
      "type": "function"
    },
    {
      "inputs": [
        {
          "components": [
            {
              "internalType": "address",
              "name": "owner",
              "type": "address"
            },
            {
              "internalType": "address",
              "name": "filler",
              "type": "address"
            },
            {
              "internalType": "address",
              "name": "tokenOut",
              "type": "address"
            },
            {
              "internalType": "uint256",
              "name": "amountOut",
              "type": "uint256"
            },
            {
              "internalType": "address",
              "name": "tokenIn",
              "type": "address"
            },
            {
              "internalType": "uint256",
              "name": "amountIn",
              "type": "uint256"
            },
            {
              "internalType": "uint256",
              "name": "creation",
              "type": "uint256"
            },
            {
              "internalType": "uint256",
              "name": "expiration",
              "type": "uint256"
            },
            {
              "internalType": "bytes",
              "name": "data",
              "type": "bytes"
            }
          ],
          "internalType": "struct Intent",
          "name": "intent",
          "type": "tuple"
        },
        {
          "internalType": "uint256",
          "name": "amount",
          "type": "uint256"
        }
      ],
      "name": "getBid",
      "outputs": [
        {
          "internalType": "uint256",
          "name": "",
          "type": "uint256"
        }
      ],
      "stateMutability": "pure",
      "type": "function"
    },
    {
      "inputs": [
        {
          "components": [
            {
              "internalType": "address",
              "name": "owner",
              "type": "address"
            },
            {
              "internalType": "address",
              "name": "filler",
              "type": "address"
            },
            {
              "internalType": "address",
              "name": "tokenOut",
              "type": "address"
            },
            {
              "internalType": "uint256",
              "name": "amountOut",
              "type": "uint256"
            },
            {
              "internalType": "address",
              "name": "tokenIn",
              "type": "address"
            },
            {
              "internalType": "uint256",
              "name": "amountIn",
              "type": "uint256"
            },
            {
              "internalType": "uint256",
              "name": "creation",
              "type": "uint256"
            },
            {
              "internalType": "uint256",
              "name": "expiration",
              "type": "uint256"
            },
            {
              "internalType": "bytes",
              "name": "data",
              "type": "bytes"
            }
          ],
          "internalType": "struct Intent",
          "name": "intent",
          "type": "tuple"
        }
      ],
      "name": "getFilledAmount",
      "outputs": [
        {
          "internalType": "uint256",
          "name": "",
          "type": "uint256"
        }
      ],
      "stateMutability": "view",
      "type": "function"
    },
    {
      "inputs": [
        {
          "components": [
            {
              "internalType": "address",
              "name": "owner",
              "type": "address"
            },
            {
              "internalType": "address",
              "name": "filler",
              "type": "address"
            },
            {
              "internalType": "address",
              "name": "tokenOut",
              "type": "address"
            },
            {
              "internalType": "uint256",
              "name": "amountOut",
              "type": "uint256"
            },
            {
              "internalType": "address",
              "name": "tokenIn",
              "type": "address"
            },
            {
              "internalType": "uint256",
              "name": "amountIn",
              "type": "uint256"
            },
            {
              "internalType": "uint256",
              "name": "creation",
              "type": "uint256"
            },
            {
              "internalType": "uint256",
              "name": "expiration",
              "type": "uint256"
            },
            {
              "internalType": "bytes",
              "name": "data",
              "type": "bytes"
            }
          ],
          "internalType": "struct Intent",
          "name": "buyerIntent",
          "type": "tuple"
        },
        {
          "components": [
            {
              "internalType": "address",
              "name": "owner",
              "type": "address"
            },
            {
              "internalType": "address",
              "name": "filler",
              "type": "address"
            },
            {
              "internalType": "address",
              "name": "tokenOut",
              "type": "address"
            },
            {
              "internalType": "uint256",
              "name": "amountOut",
              "type": "uint256"
            },
            {
              "internalType": "address",
              "name": "tokenIn",
              "type": "address"
            },
            {
              "internalType": "uint256",
              "name": "amountIn",
              "type": "uint256"
            },
            {
              "internalType": "uint256",
              "name": "creation",
              "type": "uint256"
            },
            {
              "internalType": "uint256",
              "name": "expiration",
              "type": "uint256"
            },
            {
              "internalType": "bytes",
              "name": "data",
              "type": "bytes"
            }
          ],
          "internalType": "struct Intent",
          "name": "sellerIntent",
          "type": "tuple"
        },
        {
          "internalType": "uint256",
          "name": "tradedAmount",
          "type": "uint256"
        }
      ],
      "name": "getTotalExecutionPrice",
      "outputs": [
        {
          "internalType": "uint256",
          "name": "",
          "type": "uint256"
        }
      ],
      "stateMutability": "pure",
      "type": "function"
    },
    {
      "inputs": [
        {
          "components": [
            {
              "internalType": "address",
              "name": "owner",
              "type": "address"
            },
            {
              "internalType": "address",
              "name": "filler",
              "type": "address"
            },
            {
              "internalType": "address",
              "name": "tokenOut",
              "type": "address"
            },
            {
              "internalType": "uint256",
              "name": "amountOut",
              "type": "uint256"
            },
            {
              "internalType": "address",
              "name": "tokenIn",
              "type": "address"
            },
            {
              "internalType": "uint256",
              "name": "amountIn",
              "type": "uint256"
            },
            {
              "internalType": "uint256",
              "name": "creation",
              "type": "uint256"
            },
            {
              "internalType": "uint256",
              "name": "expiration",
              "type": "uint256"
            },
            {
              "internalType": "bytes",
              "name": "data",
              "type": "bytes"
            }
          ],
          "internalType": "struct Intent",
          "name": "sellerIntent",
          "type": "tuple"
        },
        {
          "internalType": "bytes",
          "name": "sellerSig",
          "type": "bytes"
        },
        {
          "components": [
            {
              "internalType": "address",
              "name": "owner",
              "type": "address"
            },
            {
              "internalType": "address",
              "name": "filler",
              "type": "address"
            },
            {
              "internalType": "address",
              "name": "tokenOut",
              "type": "address"
            },
            {
              "internalType": "uint256",
              "name": "amountOut",
              "type": "uint256"
            },
            {
              "internalType": "address",
              "name": "tokenIn",
              "type": "address"
            },
            {
              "internalType": "uint256",
              "name": "amountIn",
              "type": "uint256"
            },
            {
              "internalType": "uint256",
              "name": "creation",
              "type": "uint256"
            },
            {
              "internalType": "uint256",
              "name": "expiration",
              "type": "uint256"
            },
            {
              "internalType": "bytes",
              "name": "data",
              "type": "bytes"
            }
          ],
          "internalType": "struct Intent",
          "name": "buyerIntent",
          "type": "tuple"
        },
        {
          "internalType": "bytes",
          "name": "buyerSig",
          "type": "bytes"
        },
        {
          "internalType": "uint256",
          "name": "tradedTokens",
          "type": "uint256"
        },
        {
          "internalType": "uint256",
          "name": "totalFee",
          "type": "uint256"
        }
      ],
      "name": "process",
      "outputs": [],
      "stateMutability": "nonpayable",
      "type": "function"
    },
    {
      "inputs": [
        {
          "components": [
            {
              "internalType": "address",
              "name": "owner",
              "type": "address"
            },
            {
              "internalType": "address",
              "name": "filler",
              "type": "address"
            },
            {
              "internalType": "address",
              "name": "tokenOut",
              "type": "address"
            },
            {
              "internalType": "uint256",
              "name": "amountOut",
              "type": "uint256"
            },
            {
              "internalType": "address",
              "name": "tokenIn",
              "type": "address"
            },
            {
              "internalType": "uint256",
              "name": "amountIn",
              "type": "uint256"
            },
            {
              "internalType": "uint256",
              "name": "creation",
              "type": "uint256"
            },
            {
              "internalType": "uint256",
              "name": "expiration",
              "type": "uint256"
            },
            {
              "internalType": "bytes",
              "name": "data",
              "type": "bytes"
            }
          ],
          "internalType": "struct Intent",
          "name": "intent",
          "type": "tuple"
        },
        {
          "internalType": "bytes",
          "name": "signature",
          "type": "bytes"
        }
      ],
      "name": "signalIntent",
      "outputs": [],
      "stateMutability": "nonpayable",
      "type": "function"
    },
    {
      "inputs": [
        {
          "components": [
            {
              "internalType": "address",
              "name": "owner",
              "type": "address"
            },
            {
              "internalType": "address",
              "name": "filler",
              "type": "address"
            },
            {
              "internalType": "address",
              "name": "tokenOut",
              "type": "address"
            },
            {
              "internalType": "uint256",
              "name": "amountOut",
              "type": "uint256"
            },
            {
              "internalType": "address",
              "name": "tokenIn",
              "type": "address"
            },
            {
              "internalType": "uint256",
              "name": "amountIn",
              "type": "uint256"
            },
            {
              "internalType": "uint256",
              "name": "creation",
              "type": "uint256"
            },
            {
              "internalType": "uint256",
              "name": "expiration",
              "type": "uint256"
            },
            {
              "internalType": "bytes",
              "name": "data",
              "type": "bytes"
            }
          ],
          "internalType": "struct Intent",
          "name": "intent",
          "type": "tuple"
        },
        {
          "internalType": "bytes",
          "name": "signature",
          "type": "bytes"
        }
      ],
      "name": "verify",
      "outputs": [],
      "stateMutability": "view",
      "type": "function"
    },
    {
      "inputs": [
        {
          "components": [
            {
              "internalType": "address",
              "name": "owner",
              "type": "address"
            },
            {
              "internalType": "address",
              "name": "filler",
              "type": "address"
            },
            {
              "internalType": "address",
              "name": "tokenOut",
              "type": "address"
            },
            {
              "internalType": "uint256",
              "name": "amountOut",
              "type": "uint256"
            },
            {
              "internalType": "address",
              "name": "tokenIn",
              "type": "address"
            },
            {
              "internalType": "uint256",
              "name": "amountIn",
              "type": "uint256"
            },
            {
              "internalType": "uint256",
              "name": "creation",
              "type": "uint256"
            },
            {
              "internalType": "uint256",
              "name": "expiration",
              "type": "uint256"
            },
            {
              "internalType": "bytes",
              "name": "data",
              "type": "bytes"
            }
          ],
          "internalType": "struct Intent",
          "name": "intent",
          "type": "tuple"
        },
        {
          "internalType": "bytes",
          "name": "sig",
          "type": "bytes"
        }
      ],
      "name": "verifyIntentSignature",
      "outputs": [],
      "stateMutability": "view",
      "type": "function"
    },
    {
      "inputs": [
        {
          "components": [
            {
              "internalType": "address",
              "name": "owner",
              "type": "address"
            },
            {
              "internalType": "address",
              "name": "filler",
              "type": "address"
            },
            {
              "internalType": "address",
              "name": "tokenOut",
              "type": "address"
            },
            {
              "internalType": "uint256",
              "name": "amountOut",
              "type": "uint256"
            },
            {
              "internalType": "address",
              "name": "tokenIn",
              "type": "address"
            },
            {
              "internalType": "uint256",
              "name": "amountIn",
              "type": "uint256"
            },
            {
              "internalType": "uint256",
              "name": "creation",
              "type": "uint256"
            },
            {
              "internalType": "uint256",
              "name": "expiration",
              "type": "uint256"
            },
            {
              "internalType": "bytes",
              "name": "data",
              "type": "bytes"
            }
          ],
          "internalType": "struct Intent",
          "name": "buyerIntent",
          "type": "tuple"
        },
        {
          "components": [
            {
              "internalType": "address",
              "name": "owner",
              "type": "address"
            },
            {
              "internalType": "address",
              "name": "filler",
              "type": "address"
            },
            {
              "internalType": "address",
              "name": "tokenOut",
              "type": "address"
            },
            {
              "internalType": "uint256",
              "name": "amountOut",
              "type": "uint256"
            },
            {
              "internalType": "address",
              "name": "tokenIn",
              "type": "address"
            },
            {
              "internalType": "uint256",
              "name": "amountIn",
              "type": "uint256"
            },
            {
              "internalType": "uint256",
              "name": "creation",
              "type": "uint256"
            },
            {
              "internalType": "uint256",
              "name": "expiration",
              "type": "uint256"
            },
            {
              "internalType": "bytes",
              "name": "data",
              "type": "bytes"
            }
          ],
          "internalType": "struct Intent",
          "name": "sellerIntent",
          "type": "tuple"
        }
      ],
      "name": "verifyPriceMatch",
      "outputs": [],
      "stateMutability": "pure",
      "type": "function"
    }
  ],
  "bytecode": "0x600b60808190526a151c985919525b9d195b9d60aa1b60a052600160c0908152603160f81b60e052610100919091526a185add1a5bdb985c9a585d60aa1b610120527fd87cd6ef79d4e2b95e15ce8abf732db51ec771f1ca2edccf22a46c729ac564726101609081527f571b3d6aee8a3ba2e5b3d4db2b1078b45d0039e23097f7b7922d0144997e86c1610180527fc89efdaa54c0f20c7adf612882df0950f5a951637e0307cdcb4c672f298b8bc66101a052466101c052306101e0527fb6128aea051691c801ac365e40bc0164657b14041190034bd8a4bb5b1a6de64961020052610140829052610220604052205f553480156100fb575f5ffd5b50611220806101095f395ff3fe608060405234801561000f575f5ffd5b50600436106100cb575f3560e01c8063b70d4e7811610088578063cbb1fe4e11610063578063cbb1fe4e1461019b578063d8921516146101ae578063ff77980c146101c1578063ffa1ad74146101d4575f5ffd5b8063b70d4e7814610162578063b7d8f3a614610175578063bb471a5814610188575f5ffd5b80630b20b7bc146100cf5780630fb490f7146101015780633af2d3de1461011657806360325914146101295780636e95f3801461013c578063b1e45f241461014f575b5f5ffd5b6100ee6100dd366004610c7a565b60016020525f908152604090205481565b6040519081526020015b60405180910390f35b61011461010f366004610cec565b6101ef565b005b610114610124366004610cec565b6102a1565b610114610137366004610d53565b61033f565b61011461014a366004610d8c565b6103cd565b6100ee61015d366004610dfb565b610430565b610114610170366004610e3c565b610457565b610114610183366004610cec565b61049a565b6100ee610196366004610e9f565b6105fb565b6100ee6101a9366004610dfb565b61063b565b6101146101bc366004610f0b565b610671565b6100ee6101cf366004610d53565b6108f3565b6101dc600281565b60405161ffff90911681526020016100f8565b6101fa8383836102a1565b7f88ef01740e0091e536d7d196b510fae0b96c3b682e90664b7fb5f5580d094f616102286020850185610fd9565b6102386040860160208701610fd9565b6102486060870160408801610fd9565b606087013561025d60a0890160808a01610fd9565b60a089013560c08a013560e08b013561027a6101008d018d610fff565b8c8c6040516102949c9b9a99989796959493929190611069565b60405180910390a1505050565b6102ac83838361049a565b8260e001354211156102dc57604051631f4dca1560e21b815260e084013560048201526024015b60405180910390fd5b336102ed6040850160208601610fd9565b6001600160a01b03161415801561031c57505f6103106040850160208601610fd9565b6001600160a01b031614155b1561033a5760405163017ae39960e11b815260040160405180910390fd5b505050565b61034c6020820182610fd9565b6001600160a01b0316336001600160a01b03161415801561038e57506103786040820160208301610fd9565b6001600160a01b0316336001600160a01b031614155b156103ac5760405163017ae39960e11b815260040160405180910390fd5b5f1960015f6103ba84610915565b815260208101919091526040015f205550565b5f5b8181101561033a57368383838181106103ea576103ea6110ea565b90506020028101906103fc91906110fe565b90508060e001354211156104275760015f61041683610915565b81526020019081526020015f205f90555b506001016103cf565b5f60a0830135610444836060860135611131565b61044e9190611148565b90505b92915050565b5f61046382600161063b565b90505f610471846001610430565b905081811015610494576040516372351e5360e01b815260040160405180910390fd5b50505050565b5f5f546104a685610915565b60405161190160f01b6020820152602281019290925260428201526062016040516020818303038152906040528051906020012090505f5f5f61051d86868080601f0160208091040260200160405190810160405280939291908181526020018383808284375f92019190915250610a2892505050565b9250925092505f6001858585856040515f815260200160405260405161055f949392919093845260ff9290921660208401526040830152606082015260800190565b6020604051602081039080840390855afa15801561057f573d5f5f3e3d5ffd5b5050604051601f1901519150506001600160a01b0381166105b357604051638baa579f60e01b815260040160405180910390fd5b6105c06020890189610fd9565b6001600160a01b0316816001600160a01b0316146105f157604051632057875960e21b815260040160405180910390fd5b5050505050505050565b5f6106068484610457565b5f8460c001358460c00135101561062657610621858461063b565b610630565b6106308484610430565b9150505b9392505050565b5f606083013561064b8382611167565b6106599060a0860135611131565b6106639190611148565b61044e9060a0850135611167565b61067c8888886102a1565b6106878585856102a1565b61069760a0860160808701610fd9565b6001600160a01b03166106b060608a0160408b01610fd9565b6001600160a01b0316146106d75760405163936bb5ad60e01b815260040160405180910390fd5b6106e76060860160408701610fd9565b6001600160a01b031661070060a08a0160808b01610fd9565b6001600160a01b0316146107275760405163936bb5ad60e01b815260040160405180910390fd5b60015f6107338a610915565b81526020019081526020015f205488606001356107509190611167565b8211156107705760405163447f595960e11b815260040160405180910390fd5b60015f61077c87610915565b81526020019081526020015f20548560a001356107999190611167565b8211156107b95760405163447f595960e11b815260040160405180910390fd5b8160015f6107c68b610915565b81526020019081526020015f205f8282546107e1919061117a565b9091555082905060015f6107f488610915565b81526020019081526020015f205f82825461080f919061117a565b909155505f9050610821868a856105fb565b905061085661083360208b018b610fd9565b308561084560608e0160408f01610fd9565b6001600160a01b0316929190610a87565b6108786108666020880188610fd9565b308361084560608b0160408c01610fd9565b6108a96108886020880188610fd9565b8461089960608d0160408e01610fd9565b6001600160a01b03169190610aee565b6108d36108b960208b018b610fd9565b6108c38484611167565b61089960a08d0160808e01610fd9565b6108e8338361089960a08d0160808e01610fd9565b505050505050505050565b5f60015f61090084610915565b81526020019081526020015f20549050919050565b5f7f034c5b389d8a563abef85c21c2424d5cff6b0c3b7b0e19c7f9a7a671cec7a3476109446020840184610fd9565b6109546040850160208601610fd9565b6109646060860160408701610fd9565b606086013561097960a0880160808901610fd9565b60a088013560c089013560e08a01356109966101008c018c610fff565b6040516109a492919061118d565b60408051918290038220602083019b909b526001600160a01b03998a16908201529688166060880152948716608087015260a0860193909352941660c084015260e083019390935261010082019290925261012081019190915261014081019190915261016001604051602081830303815290604052805190602001209050919050565b5f5f5f8351604103610a675750505060208101516040820151604183015160ff169190601b831015610a6257610a5f601b8461119c565b92505b610a80565b604051634be6321b60e01b815260040160405180910390fd5b9193909250565b6040516001600160a01b0384811660248301528381166044830152606482018390526104949186918216906323b872dd906084015b604051602081830303815290604052915060e01b6020820180516001600160e01b038381831617835250505050610b1f565b6040516001600160a01b0383811660248301526044820183905261033a91859182169063a9059cbb90606401610abc565b5f610b336001600160a01b03841683610b80565b905080515f14158015610b57575080806020019051810190610b5591906111b5565b155b1561033a57604051635274afe760e01b81526001600160a01b03841660048201526024016102d3565b606061044e83835f606082515f14158015610ba357506001600160a01b0384163b155b15610bcc57604051639eb1341360e01b81526001600160a01b03851660048201526024016102d3565b5f5f856001600160a01b03168486604051610be791906111d4565b5f6040518083038185875af1925050503d805f8114610c21576040519150601f19603f3d011682016040523d82523d5f602084013e610c26565b606091505b50915091508115610c3a5791506106349050565b805115610c4957805160208201fd5b60405162461bcd60e51b815260206004820152600660248201526519985a5b195960d21b60448201526064016102d3565b5f60208284031215610c8a575f5ffd5b5035919050565b5f6101208284031215610ca2575f5ffd5b50919050565b5f5f83601f840112610cb8575f5ffd5b5081356001600160401b03811115610cce575f5ffd5b602083019150836020828501011115610ce5575f5ffd5b9250929050565b5f5f5f60408486031215610cfe575f5ffd5b83356001600160401b03811115610d13575f5ffd5b610d1f86828701610c91565b93505060208401356001600160401b03811115610d3a575f5ffd5b610d4686828701610ca8565b9497909650939450505050565b5f60208284031215610d63575f5ffd5b81356001600160401b03811115610d78575f5ffd5b610d8484828501610c91565b949350505050565b5f5f60208385031215610d9d575f5ffd5b82356001600160401b03811115610db2575f5ffd5b8301601f81018513610dc2575f5ffd5b80356001600160401b03811115610dd7575f5ffd5b8560208260051b8401011115610deb575f5ffd5b6020919091019590945092505050565b5f5f60408385031215610e0c575f5ffd5b82356001600160401b03811115610e21575f5ffd5b610e2d85828601610c91565b95602094909401359450505050565b5f5f60408385031215610e4d575f5ffd5b82356001600160401b03811115610e62575f5ffd5b610e6e85828601610c91565b92505060208301356001600160401b03811115610e89575f5ffd5b610e9585828601610c91565b9150509250929050565b5f5f5f60608486031215610eb1575f5ffd5b83356001600160401b03811115610ec6575f5ffd5b610ed286828701610c91565b93505060208401356001600160401b03811115610eed575f5ffd5b610ef986828701610c91565b93969395505050506040919091013590565b5f5f5f5f5f5f5f5f60c0898b031215610f22575f5ffd5b88356001600160401b03811115610f37575f5ffd5b610f438b828c01610c91565b98505060208901356001600160401b03811115610f5e575f5ffd5b610f6a8b828c01610ca8565b90985096505060408901356001600160401b03811115610f88575f5ffd5b610f948b828c01610c91565b95505060608901356001600160401b03811115610faf575f5ffd5b610fbb8b828c01610ca8565b999c989b5096999598969760808701359660a0013595509350505050565b5f60208284031215610fe9575f5ffd5b81356001600160a01b0381168114610634575f5ffd5b5f5f8335601e19843603018112611014575f5ffd5b8301803591506001600160401b0382111561102d575f5ffd5b602001915036819003821315610ce5575f5ffd5b81835281816020850137505f828201602090810191909152601f909101601f19169091010190565b6001600160a01b038d811682528c811660208301528b81166040830152606082018b90528916608082015260a0810188905260c0810187905260e0810186905261014061010082018190525f906110c39083018688611041565b8281036101208401526110d7818587611041565b9f9e505050505050505050505050505050565b634e487b7160e01b5f52603260045260245ffd5b5f823561011e19833603018112611113575f5ffd5b9190910192915050565b634e487b7160e01b5f52601160045260245ffd5b80820281158282048414176104515761045161111d565b5f8261116257634e487b7160e01b5f52601260045260245ffd5b500490565b818103818111156104515761045161111d565b808201808211156104515761045161111d565b818382375f9101908152919050565b60ff81811683821601908111156104515761045161111d565b5f602082840312156111c5575f5ffd5b81518015158114610634575f5ffd5b5f82518060208501845e5f92019182525091905056fea26469706673582212207d258bc14e2bf3fc55ccd8b3394a3640d2f320748138e1570c9327a74718b14a64736f6c634300081e0033",
  "linkReferences": {},
  "deployedLinkReferences": {},
  "immutableReferences": {},
  "inputSourceName": "project/contracts/market/TradeReactor.sol",
  "buildInfoId": "solc-0_8_30-8f067e074b5cab00c1c04eac2a8de45e46e024ca"
}