{
    "contractName": "Acquisition",
    "abi": [
        {
            "inputs": [
                {
                    "internalType": "address payable",
                    "name": "buyer_",
                    "type": "address"
                },
                {
                    "internalType": "address",
                    "name": "currency_",
                    "type": "address"
                },
                {
                    "internalType": "uint256",
                    "name": "price_",
                    "type": "uint256"
                },
                {
                    "internalType": "uint256",
                    "name": "quorum_",
                    "type": "uint256"
                }
            ],
            "stateMutability": "nonpayable",
            "type": "constructor"
        },
        {
            "anonymous": false,
            "inputs": [
                {
                    "indexed": false,
                    "internalType": "uint256",
                    "name": "newYesVotes",
                    "type": "uint256"
                },
                {
                    "indexed": false,
                    "internalType": "uint256",
                    "name": "newNoVotes",
                    "type": "uint256"
                }
            ],
            "name": "VotesChanged",
            "type": "event"
        },
        {
            "inputs": [],
            "name": "VALIDITY_PERIOD",
            "outputs": [
                {
                    "internalType": "uint256",
                    "name": "",
                    "type": "uint256"
                }
            ],
            "stateMutability": "view",
            "type": "function"
        },
        {
            "inputs": [],
            "name": "VOTING_PERIOD",
            "outputs": [
                {
                    "internalType": "uint256",
                    "name": "",
                    "type": "uint256"
                }
            ],
            "stateMutability": "view",
            "type": "function"
        },
        {
            "inputs": [
                {
                    "internalType": "address",
                    "name": "from",
                    "type": "address"
                },
                {
                    "internalType": "address",
                    "name": "to",
                    "type": "address"
                },
                {
                    "internalType": "uint256",
                    "name": "value",
                    "type": "uint256"
                }
            ],
            "name": "adjustVotes",
            "outputs": [],
            "stateMutability": "nonpayable",
            "type": "function"
        },
        {
            "inputs": [],
            "name": "buyer",
            "outputs": [
                {
                    "internalType": "address payable",
                    "name": "",
                    "type": "address"
                }
            ],
            "stateMutability": "view",
            "type": "function"
        },
        {
            "inputs": [],
            "name": "currency",
            "outputs": [
                {
                    "internalType": "address",
                    "name": "",
                    "type": "address"
                }
            ],
            "stateMutability": "view",
            "type": "function"
        },
        {
            "inputs": [],
            "name": "hasExpired",
            "outputs": [
                {
                    "internalType": "bool",
                    "name": "",
                    "type": "bool"
                }
            ],
            "stateMutability": "view",
            "type": "function"
        },
        {
            "inputs": [
                {
                    "internalType": "address",
                    "name": "voter",
                    "type": "address"
                }
            ],
            "name": "hasVotedNo",
            "outputs": [
                {
                    "internalType": "bool",
                    "name": "",
                    "type": "bool"
                }
            ],
            "stateMutability": "view",
            "type": "function"
        },
        {
            "inputs": [
                {
                    "internalType": "address",
                    "name": "voter",
                    "type": "address"
                }
            ],
            "name": "hasVotedYes",
            "outputs": [
                {
                    "internalType": "bool",
                    "name": "",
                    "type": "bool"
                }
            ],
            "stateMutability": "view",
            "type": "function"
        },
        {
            "inputs": [],
            "name": "isQuorumReached",
            "outputs": [
                {
                    "internalType": "bool",
                    "name": "",
                    "type": "bool"
                }
            ],
            "stateMutability": "view",
            "type": "function"
        },
        {
            "inputs": [],
            "name": "isVotingOpen",
            "outputs": [
                {
                    "internalType": "bool",
                    "name": "",
                    "type": "bool"
                }
            ],
            "stateMutability": "view",
            "type": "function"
        },
        {
            "inputs": [
                {
                    "internalType": "uint256",
                    "name": "sharesToAcquire",
                    "type": "uint256"
                }
            ],
            "name": "isWellFunded",
            "outputs": [
                {
                    "internalType": "bool",
                    "name": "",
                    "type": "bool"
                }
            ],
            "stateMutability": "view",
            "type": "function"
        },
        {
            "inputs": [],
            "name": "kill",
            "outputs": [],
            "stateMutability": "nonpayable",
            "type": "function"
        },
        {
            "inputs": [],
            "name": "noVotes",
            "outputs": [
                {
                    "internalType": "uint256",
                    "name": "",
                    "type": "uint256"
                }
            ],
            "stateMutability": "view",
            "type": "function"
        },
        {
            "inputs": [],
            "name": "price",
            "outputs": [
                {
                    "internalType": "uint256",
                    "name": "",
                    "type": "uint256"
                }
            ],
            "stateMutability": "view",
            "type": "function"
        },
        {
            "inputs": [],
            "name": "quorum",
            "outputs": [
                {
                    "internalType": "uint256",
                    "name": "",
                    "type": "uint256"
                }
            ],
            "stateMutability": "view",
            "type": "function"
        },
        {
            "inputs": [],
            "name": "quorumHasFailed",
            "outputs": [
                {
                    "internalType": "bool",
                    "name": "",
                    "type": "bool"
                }
            ],
            "stateMutability": "view",
            "type": "function"
        },
        {
            "inputs": [],
            "name": "timestamp",
            "outputs": [
                {
                    "internalType": "uint256",
                    "name": "",
                    "type": "uint256"
                }
            ],
            "stateMutability": "view",
            "type": "function"
        },
        {
            "inputs": [
                {
                    "internalType": "address",
                    "name": "sender",
                    "type": "address"
                },
                {
                    "internalType": "uint256",
                    "name": "votes_",
                    "type": "uint256"
                }
            ],
            "name": "voteNo",
            "outputs": [],
            "stateMutability": "nonpayable",
            "type": "function"
        },
        {
            "inputs": [
                {
                    "internalType": "address",
                    "name": "sender",
                    "type": "address"
                },
                {
                    "internalType": "uint256",
                    "name": "votes_",
                    "type": "uint256"
                }
            ],
            "name": "voteYes",
            "outputs": [],
            "stateMutability": "nonpayable",
            "type": "function"
        },
        {
            "inputs": [],
            "name": "yesVotes",
            "outputs": [
                {
                    "internalType": "uint256",
                    "name": "",
                    "type": "uint256"
                }
            ],
            "stateMutability": "view",
            "type": "function"
        }
    ],
    "bytecode": "608060405234801561001057600080fd5b50604051610be9380380610be98339818101604052608081101561003357600080fd5b50805160208201516040830151606090930151919290918161008c576040805162461bcd60e51b815260206004820152600d60248201526c696e76616c696420707269636560981b604482015290519081900360640190fd5b600180546001600160a01b03199081163317909155600280546001600160a01b03968716908316179055600380549490951693169290921790925560049190915560005542600555610b06806100e36000396000f3fe608060405234801561001057600080fd5b506004361061012c5760003560e01c8063b1610d7e116100ad578063cf42a92711610071578063cf42a927146102b4578063d7be4e29146102bc578063e5a6b10f146102c4578063fa7f1bae146102cc578063fb286c65146102d45761012c565b8063b1610d7e14610249578063b28fa15214610251578063b5b47f421461026e578063b80777ea14610276578063c4814fae1461027e5761012c565b80635ff0cf84116100f45780635ff0cf84146101c35780637150d8ae146101ef5780638f1b4c6f1461021357806390e64d1314610239578063a035b1fe146102415761012c565b80630c43cd88146101315780631703a0181461014b57806341c0e1b514610153578063448ab4c61461015d5780634b91562e14610197575b600080fd5b6101396102dc565b60408051918252519081900360200190f35b6101396102e3565b61015b6102e9565b005b6101836004803603602081101561017357600080fd5b50356001600160a01b0316610343565b604080519115158252519081900360200190f35b61015b600480360360408110156101ad57600080fd5b506001600160a01b038135169060200135610376565b61015b600480360360408110156101d957600080fd5b506001600160a01b038135169060200135610421565b6101f76104c8565b604080516001600160a01b039092168252519081900360200190f35b6101836004803603602081101561022957600080fd5b50356001600160a01b03166104d7565b6101836104e0565b610139610504565b61013961050a565b6101836004803603602081101561026757600080fd5b5035610511565b61013961064e565b610139610654565b61015b6004803603606081101561029457600080fd5b506001600160a01b0381358116916020810135909116906040013561065a565b6101836106f0565b61018361083b565b6101f76108f4565b610183610903565b610139610927565b6276a70081565b60005481565b6001546001600160a01b03163314610335576040805162461bcd60e51b815260206004820152600a6024820152691b9bdd081c185c995b9d60b21b604482015290519081900360640190fd5b6002546001600160a01b0316ff5b600060015b6001600160a01b03831660009081526008602052604090205460ff16600281111561036f57fe5b1492915050565b6001546001600160a01b031633146103c2576040805162461bcd60e51b815260206004820152600a6024820152691b9bdd081c185c995b9d60b21b604482015290519081900360640190fd5b6103ca610903565b610411576040805162461bcd60e51b81526020600482015260136024820152722a3432903b37ba32903430b99032b73232b21760691b604482015290519081900360640190fd5b61041d6002828461092d565b5050565b6001546001600160a01b0316331461046d576040805162461bcd60e51b815260206004820152600a6024820152691b9bdd081c185c995b9d60b21b604482015290519081900360640190fd5b610475610903565b6104bc576040805162461bcd60e51b81526020600482015260136024820152722a3432903b37ba32903430b99032b73232b21760691b604482015290519081900360640190fd5b61041d6001828461092d565b6002546001600160a01b031681565b60006002610348565b6000806104f86005544261097390919063ffffffff16565b6276a700109150505b90565b60045481565b624f1a0081565b600354600254604080516370a0823160e01b81526001600160a01b03928316600482015290516000939290921691839183916370a0823191602480820192602092909190829003018186803b15801561056957600080fd5b505afa15801561057d573d6000803e3d6000fd5b505050506040513d602081101561059357600080fd5b505160025460015460408051636eb1769f60e11b81526001600160a01b0393841660048201529183166024830152519293506000929185169163dd62ed3e91604480820192602092909190829003018186803b1580156105f257600080fd5b505afa158015610606573d6000803e3d6000fd5b505050506040513d602081101561061c57600080fd5b505160045490915060009061063290879061098a565b90508281111580156106445750818111155b9695505050505050565b60065481565b60055481565b6001546001600160a01b031633146106a6576040805162461bcd60e51b815260206004820152600a6024820152691b9bdd081c185c995b9d60b21b604482015290519081900360640190fd5b6106ae610903565b156106eb576001600160a01b0380841660009081526008602052604080822054928516825290205460ff91821691166106e88282856109af565b50505b505050565b60006106fa610903565b1561080f57600054600154604080516318160ddd60e01b81529051610807926001600160a01b0316916318160ddd916004808301926020929190829003018186803b15801561074857600080fd5b505afa15801561075c573d6000803e3d6000fd5b505050506040513d602081101561077257600080fd5b5051600654600154604080516318160ddd60e01b8152905161080193612710936107fb9391926001600160a01b03909116916318160ddd916004808301926020929190829003018186803b1580156107c957600080fd5b505afa1580156107dd573d6000803e3d6000fd5b505050506040513d60208110156107f357600080fd5b505190610973565b9061098a565b90610ab0565b109050610501565b60005461080761082c600654600754610ac390919063ffffffff16565b6007546108019061271061098a565b6000610845610903565b156108d757600054600154604080516318160ddd60e01b815290516108ce926001600160a01b0316916318160ddd916004808301926020929190829003018186803b15801561089357600080fd5b505afa1580156108a7573d6000803e3d6000fd5b505050506040513d60208110156108bd57600080fd5b50516007546108019061271061098a565b10159050610501565b6000546108ce61082c600654600754610ac390919063ffffffff16565b6003546001600160a01b031681565b60008061091b6005544261097390919063ffffffff16565b624f1a00101591505090565b60075481565b6001600160a01b0381166000908152600860205260409020805460ff811691859182919060ff1916600183600281111561096357fe5b02179055506106e88282866109af565b60008282111561097f57fe5b508082035b92915050565b60008261099957506000610984565b50818102818382816109a757fe5b041461098457fe5b8160028111156109bb57fe5b8360028111156109c757fe5b146106eb5760028360028111156109da57fe5b14156109f5576006546109ed9082610973565b600655610a1a565b6001836002811115610a0357fe5b1415610a1a57600754610a169082610973565b6007555b6002826002811115610a2857fe5b1415610a4357600654610a3b9082610ac3565b600655610a68565b6001826002811115610a5157fe5b1415610a6857600754610a649082610ac3565b6007555b7f8fcc50c2c4edd06d51ae66e9e21ed76b32a1766c57f491788e1aa24a1b58c256600754600654604051808381526020018281526020019250505060405180910390a1505050565b6000818381610abb57fe5b049392505050565b8181018281101561098457fefea264697066735822122003198c9707537ce5959b3e8267a2b8a721cc26a72203a7d67ca0a492033fb5a264736f6c63430007010033",
    "sourcePath": "c:/Users/luziu/Documents/aktionariat/contracts/src/Acquisition.sol",
    "compiler": {
        "name": "solc",
        "version": "0.7.1+commit.f4a555be"
    },
    "functionHashes": {
        "VALIDITY_PERIOD()": "0c43cd88",
        "VOTING_PERIOD()": "b1610d7e",
        "adjustVotes(address,address,uint256)": "c4814fae",
        "buyer()": "7150d8ae",
        "currency()": "e5a6b10f",
        "hasExpired()": "90e64d13",
        "hasVotedNo(address)": "8f1b4c6f",
        "hasVotedYes(address)": "448ab4c6",
        "isQuorumReached()": "d7be4e29",
        "isVotingOpen()": "fa7f1bae",
        "isWellFunded(uint256)": "b28fa152",
        "kill()": "41c0e1b5",
        "noVotes()": "b5b47f42",
        "price()": "a035b1fe",
        "quorum()": "1703a018",
        "quorumHasFailed()": "cf42a927",
        "timestamp()": "b80777ea",
        "voteNo(address,uint256)": "4b91562e",
        "voteYes(address,uint256)": "5ff0cf84",
        "yesVotes()": "fb286c65"
    },
    "gasEstimates": {
        "creation": {
            "codeDepositCost": "564400",
            "executionCost": "infinite",
            "totalCost": "infinite"
        },
        "external": {
            "VALIDITY_PERIOD()": "222",
            "VOTING_PERIOD()": "221",
            "adjustVotes(address,address,uint256)": "infinite",
            "buyer()": "1082",
            "currency()": "1103",
            "hasExpired()": "infinite",
            "hasVotedNo(address)": "1278",
            "hasVotedYes(address)": "1290",
            "isQuorumReached()": "infinite",
            "isVotingOpen()": "infinite",
            "isWellFunded(uint256)": "infinite",
            "kill()": "31864",
            "noVotes()": "1065",
            "price()": "1109",
            "quorum()": "1044",
            "quorumHasFailed()": "infinite",
            "timestamp()": "1087",
            "voteNo(address,uint256)": "infinite",
            "voteYes(address,uint256)": "infinite",
            "yesVotes()": "1108"
        },
        "internal": {
            "update(enum Acquisition.Vote,enum Acquisition.Vote,uint256)": "infinite",
            "vote(enum Acquisition.Vote,uint256,address)": "infinite"
        }
    }
}