{
    "contractName": "Acquisition",
    "abi": [
        {
            "inputs": [
                {
                    "internalType": "address payable",
                    "name": "buyer_",
                    "type": "address"
                },
                {
                    "internalType": "uint256",
                    "name": "price_",
                    "type": "uint256"
                },
                {
                    "internalType": "uint256",
                    "name": "quorum_",
                    "type": "uint256"
                }
            ],
            "stateMutability": "nonpayable",
            "type": "constructor"
        },
        {
            "anonymous": false,
            "inputs": [
                {
                    "indexed": false,
                    "internalType": "uint256",
                    "name": "newYesVotes",
                    "type": "uint256"
                },
                {
                    "indexed": false,
                    "internalType": "uint256",
                    "name": "newNoVotes",
                    "type": "uint256"
                }
            ],
            "name": "VotesChanged",
            "type": "event"
        },
        {
            "inputs": [],
            "name": "VALIDITY_PERIOD",
            "outputs": [
                {
                    "internalType": "uint256",
                    "name": "",
                    "type": "uint256"
                }
            ],
            "stateMutability": "view",
            "type": "function"
        },
        {
            "inputs": [],
            "name": "VOTING_PERIOD",
            "outputs": [
                {
                    "internalType": "uint256",
                    "name": "",
                    "type": "uint256"
                }
            ],
            "stateMutability": "view",
            "type": "function"
        },
        {
            "inputs": [
                {
                    "internalType": "address",
                    "name": "from",
                    "type": "address"
                },
                {
                    "internalType": "address",
                    "name": "to",
                    "type": "address"
                },
                {
                    "internalType": "uint256",
                    "name": "value",
                    "type": "uint256"
                }
            ],
            "name": "adjustVotes",
            "outputs": [],
            "stateMutability": "nonpayable",
            "type": "function"
        },
        {
            "inputs": [],
            "name": "buyer",
            "outputs": [
                {
                    "internalType": "address payable",
                    "name": "",
                    "type": "address"
                }
            ],
            "stateMutability": "view",
            "type": "function"
        },
        {
            "inputs": [],
            "name": "hasExpired",
            "outputs": [
                {
                    "internalType": "bool",
                    "name": "",
                    "type": "bool"
                }
            ],
            "stateMutability": "view",
            "type": "function"
        },
        {
            "inputs": [
                {
                    "internalType": "address",
                    "name": "voter",
                    "type": "address"
                }
            ],
            "name": "hasVotedNo",
            "outputs": [
                {
                    "internalType": "bool",
                    "name": "",
                    "type": "bool"
                }
            ],
            "stateMutability": "view",
            "type": "function"
        },
        {
            "inputs": [
                {
                    "internalType": "address",
                    "name": "voter",
                    "type": "address"
                }
            ],
            "name": "hasVotedYes",
            "outputs": [
                {
                    "internalType": "bool",
                    "name": "",
                    "type": "bool"
                }
            ],
            "stateMutability": "view",
            "type": "function"
        },
        {
            "inputs": [],
            "name": "isQuorumReached",
            "outputs": [
                {
                    "internalType": "bool",
                    "name": "",
                    "type": "bool"
                }
            ],
            "stateMutability": "view",
            "type": "function"
        },
        {
            "inputs": [],
            "name": "isVotingOpen",
            "outputs": [
                {
                    "internalType": "bool",
                    "name": "",
                    "type": "bool"
                }
            ],
            "stateMutability": "view",
            "type": "function"
        },
        {
            "inputs": [
                {
                    "internalType": "address",
                    "name": "currency_",
                    "type": "address"
                },
                {
                    "internalType": "uint256",
                    "name": "sharesToAcquire",
                    "type": "uint256"
                }
            ],
            "name": "isWellFunded",
            "outputs": [
                {
                    "internalType": "bool",
                    "name": "",
                    "type": "bool"
                }
            ],
            "stateMutability": "view",
            "type": "function"
        },
        {
            "inputs": [],
            "name": "kill",
            "outputs": [],
            "stateMutability": "nonpayable",
            "type": "function"
        },
        {
            "inputs": [],
            "name": "noVotes",
            "outputs": [
                {
                    "internalType": "uint256",
                    "name": "",
                    "type": "uint256"
                }
            ],
            "stateMutability": "view",
            "type": "function"
        },
        {
            "inputs": [],
            "name": "price",
            "outputs": [
                {
                    "internalType": "uint256",
                    "name": "",
                    "type": "uint256"
                }
            ],
            "stateMutability": "view",
            "type": "function"
        },
        {
            "inputs": [],
            "name": "quorum",
            "outputs": [
                {
                    "internalType": "uint256",
                    "name": "",
                    "type": "uint256"
                }
            ],
            "stateMutability": "view",
            "type": "function"
        },
        {
            "inputs": [],
            "name": "quorumHasFailed",
            "outputs": [
                {
                    "internalType": "bool",
                    "name": "",
                    "type": "bool"
                }
            ],
            "stateMutability": "view",
            "type": "function"
        },
        {
            "inputs": [],
            "name": "timestamp",
            "outputs": [
                {
                    "internalType": "uint256",
                    "name": "",
                    "type": "uint256"
                }
            ],
            "stateMutability": "view",
            "type": "function"
        },
        {
            "inputs": [
                {
                    "internalType": "address",
                    "name": "sender",
                    "type": "address"
                },
                {
                    "internalType": "uint256",
                    "name": "votes_",
                    "type": "uint256"
                }
            ],
            "name": "voteNo",
            "outputs": [],
            "stateMutability": "nonpayable",
            "type": "function"
        },
        {
            "inputs": [
                {
                    "internalType": "address",
                    "name": "sender",
                    "type": "address"
                },
                {
                    "internalType": "uint256",
                    "name": "votes_",
                    "type": "uint256"
                }
            ],
            "name": "voteYes",
            "outputs": [],
            "stateMutability": "nonpayable",
            "type": "function"
        },
        {
            "inputs": [],
            "name": "yesVotes",
            "outputs": [
                {
                    "internalType": "uint256",
                    "name": "",
                    "type": "uint256"
                }
            ],
            "stateMutability": "view",
            "type": "function"
        }
    ],
    "bytecode": "608060405234801561001057600080fd5b50604051610be5380380610be58339818101604052606081101561003357600080fd5b508051602082015160409092015190919081610096576040805162461bcd60e51b815260206004820152601460248201527f50726963652063616e6e6f74206265207a65726f000000000000000000000000604482015290519081900360640190fd5b600180546001600160a01b03199081163317909155600280546001600160a01b0395909516949091169390931790925560035560005542600455610b06806100df6000396000f3fe608060405234801561001057600080fd5b50600436106101215760003560e01c80639890f824116100ad578063c4814fae11610071578063c4814fae14610282578063cf42a927146102b8578063d7be4e29146102c0578063fa7f1bae146102c8578063fb286c65146102d057610121565b80639890f82414610236578063a035b1fe14610262578063b1610d7e1461026a578063b5b47f4214610272578063b80777ea1461027a57610121565b80634b91562e116100f45780634b91562e1461018c5780635ff0cf84146101b85780637150d8ae146101e45780638f1b4c6f1461020857806390e64d131461022e57610121565b80630c43cd88146101265780631703a0181461014057806341c0e1b514610148578063448ab4c614610152575b600080fd5b61012e6102d8565b60408051918252519081900360200190f35b61012e6102df565b6101506102e5565b005b6101786004803603602081101561016857600080fd5b50356001600160a01b031661033c565b604080519115158252519081900360200190f35b610150600480360360408110156101a257600080fd5b506001600160a01b03813516906020013561036f565b610150600480360360408110156101ce57600080fd5b506001600160a01b038135169060200135610417565b6101ec6104bb565b604080516001600160a01b039092168252519081900360200190f35b6101786004803603602081101561021e57600080fd5b50356001600160a01b03166104ca565b6101786104d3565b6101786004803603604081101561024c57600080fd5b506001600160a01b0381351690602001356104f7565b61012e610633565b61012e610639565b61012e610640565b61012e610646565b6101506004803603606081101561029857600080fd5b506001600160a01b0381358116916020810135909116906040013561064c565b6101786106df565b61017861082a565b6101786108e3565b61012e610907565b6276a70081565b60005481565b6001546001600160a01b0316331461032e5760405162461bcd60e51b8152600401808060200182810382526025815260200180610aac6025913960400191505060405180910390fd5b6002546001600160a01b0316ff5b600060015b6001600160a01b03831660009081526007602052604090205460ff16600281111561036857fe5b1492915050565b6001546001600160a01b031633146103b85760405162461bcd60e51b8152600401808060200182810382526025815260200180610aac6025913960400191505060405180910390fd5b6103c06108e3565b610407576040805162461bcd60e51b81526020600482015260136024820152722a3432903b37ba32903430b99032b73232b21760691b604482015290519081900360640190fd5b6104136002828461090d565b5050565b6001546001600160a01b031633146104605760405162461bcd60e51b8152600401808060200182810382526025815260200180610aac6025913960400191505060405180910390fd5b6104686108e3565b6104af576040805162461bcd60e51b81526020600482015260136024820152722a3432903b37ba32903430b99032b73232b21760691b604482015290519081900360640190fd5b6104136001828461090d565b6002546001600160a01b031681565b60006002610341565b6000806104eb6004544261095390919063ffffffff16565b6276a700109150505b90565b600254604080516370a0823160e01b81526001600160a01b039283166004820152905160009285928492918416916370a0823191602480820192602092909190829003018186803b15801561054b57600080fd5b505afa15801561055f573d6000803e3d6000fd5b505050506040513d602081101561057557600080fd5b505160025460015460408051636eb1769f60e11b81526001600160a01b0393841660048201529183166024830152519293506000929185169163dd62ed3e91604480820192602092909190829003018186803b1580156105d457600080fd5b505afa1580156105e8573d6000803e3d6000fd5b505050506040513d60208110156105fe57600080fd5b5051600354909150600090610614908790610965565b90508281111580156106265750818111155b9450505050505b92915050565b60035481565b624f1a0081565b60055481565b60045481565b6001546001600160a01b031633146106955760405162461bcd60e51b8152600401808060200182810382526025815260200180610aac6025913960400191505060405180910390fd5b61069d6108e3565b156106da576001600160a01b0380841660009081526007602052604080822054928516825290205460ff91821691166106d782828561098a565b50505b505050565b60006106e96108e3565b156107fe57600054600154604080516318160ddd60e01b815290516107f6926001600160a01b0316916318160ddd916004808301926020929190829003018186803b15801561073757600080fd5b505afa15801561074b573d6000803e3d6000fd5b505050506040513d602081101561076157600080fd5b5051600554600154604080516318160ddd60e01b815290516107f093612710936107ea9391926001600160a01b03909116916318160ddd916004808301926020929190829003018186803b1580156107b857600080fd5b505afa1580156107cc573d6000803e3d6000fd5b505050506040513d60208110156107e257600080fd5b505190610953565b90610965565b90610a8b565b1090506104f4565b6000546107f661081b600554600654610a9e90919063ffffffff16565b6006546107f090612710610965565b60006108346108e3565b156108c657600054600154604080516318160ddd60e01b815290516108bd926001600160a01b0316916318160ddd916004808301926020929190829003018186803b15801561088257600080fd5b505afa158015610896573d6000803e3d6000fd5b505050506040513d60208110156108ac57600080fd5b50516006546107f090612710610965565b101590506104f4565b6000546108bd61081b600554600654610a9e90919063ffffffff16565b6000806108fb6004544261095390919063ffffffff16565b624f1a00101591505090565b60065481565b6001600160a01b0381166000908152600760205260409020805460ff811691859182919060ff1916600183600281111561094357fe5b02179055506106d782828661098a565b60008282111561095f57fe5b50900390565b6000826109745750600061062d565b508181028183828161098257fe5b041461062d57fe5b81600281111561099657fe5b8360028111156109a257fe5b146106da5760028360028111156109b557fe5b14156109d0576005546109c89082610953565b6005556109f5565b60018360028111156109de57fe5b14156109f5576006546109f19082610953565b6006555b6002826002811115610a0357fe5b1415610a1e57600554610a169082610a9e565b600555610a43565b6001826002811115610a2c57fe5b1415610a4357600654610a3f9082610a9e565b6006555b7f8fcc50c2c4edd06d51ae66e9e21ed76b32a1766c57f491788e1aa24a1b58c256600654600554604051808381526020018281526020019250505060405180910390a1505050565b6000818381610a9657fe5b049392505050565b8181018281101561062d57fefe43616e206f6e6c792062652063616c6c656420627920706172656e7420636f6e7472616374a2646970667358221220fa3060f939a1fd6494323f23b22f6fbd35fb241606baf5a62fb99dcec82b1cb864736f6c63430007000033",
    "sourcePath": "c:/Users/luziu/Documents/aktionariat/contracts/src/Acquisition.sol",
    "compiler": {
        "name": "solc",
        "version": "0.7.0+commit.9e61f92b"
    },
    "functionHashes": {
        "VALIDITY_PERIOD()": "0c43cd88",
        "VOTING_PERIOD()": "b1610d7e",
        "adjustVotes(address,address,uint256)": "c4814fae",
        "buyer()": "7150d8ae",
        "hasExpired()": "90e64d13",
        "hasVotedNo(address)": "8f1b4c6f",
        "hasVotedYes(address)": "448ab4c6",
        "isQuorumReached()": "d7be4e29",
        "isVotingOpen()": "fa7f1bae",
        "isWellFunded(address,uint256)": "9890f824",
        "kill()": "41c0e1b5",
        "noVotes()": "b5b47f42",
        "price()": "a035b1fe",
        "quorum()": "1703a018",
        "quorumHasFailed()": "cf42a927",
        "timestamp()": "b80777ea",
        "voteNo(address,uint256)": "4b91562e",
        "voteYes(address,uint256)": "5ff0cf84",
        "yesVotes()": "fb286c65"
    },
    "gasEstimates": {
        "creation": {
            "codeDepositCost": "564400",
            "executionCost": "infinite",
            "totalCost": "infinite"
        },
        "external": {
            "VALIDITY_PERIOD()": "222",
            "VOTING_PERIOD()": "265",
            "adjustVotes(address,address,uint256)": "infinite",
            "buyer()": "1104",
            "hasExpired()": "infinite",
            "hasVotedNo(address)": "1300",
            "hasVotedYes(address)": "1290",
            "isQuorumReached()": "infinite",
            "isVotingOpen()": "infinite",
            "isWellFunded(address,uint256)": "infinite",
            "kill()": "infinite",
            "noVotes()": "1087",
            "price()": "1043",
            "quorum()": "1044",
            "quorumHasFailed()": "infinite",
            "timestamp()": "1109",
            "voteNo(address,uint256)": "infinite",
            "voteYes(address,uint256)": "infinite",
            "yesVotes()": "1108"
        },
        "internal": {
            "update(enum Acquisition.Vote,enum Acquisition.Vote,uint256)": "infinite",
            "vote(enum Acquisition.Vote,uint256,address)": "infinite"
        }
    }
}