{
    "contractName": "AllowlistHook",
    "abi": [
        {
            "inputs": [
                {
                    "internalType": "address",
                    "name": "owner",
                    "type": "address"
                }
            ],
            "stateMutability": "nonpayable",
            "type": "constructor"
        },
        {
            "anonymous": false,
            "inputs": [
                {
                    "indexed": false,
                    "internalType": "address",
                    "name": "target",
                    "type": "address"
                }
            ],
            "name": "AllowListed",
            "type": "event"
        },
        {
            "anonymous": false,
            "inputs": [
                {
                    "indexed": false,
                    "internalType": "address",
                    "name": "target",
                    "type": "address"
                }
            ],
            "name": "AllowUnlisted",
            "type": "event"
        },
        {
            "anonymous": false,
            "inputs": [
                {
                    "indexed": true,
                    "internalType": "address",
                    "name": "previousOwner",
                    "type": "address"
                },
                {
                    "indexed": true,
                    "internalType": "address",
                    "name": "newOwner",
                    "type": "address"
                }
            ],
            "name": "OwnershipTransferred",
            "type": "event"
        },
        {
            "inputs": [
                {
                    "internalType": "address[]",
                    "name": "many",
                    "type": "address[]"
                }
            ],
            "name": "allow",
            "outputs": [],
            "stateMutability": "nonpayable",
            "type": "function"
        },
        {
            "inputs": [
                {
                    "internalType": "address",
                    "name": "target",
                    "type": "address"
                }
            ],
            "name": "allow",
            "outputs": [],
            "stateMutability": "nonpayable",
            "type": "function"
        },
        {
            "inputs": [
                {
                    "internalType": "address",
                    "name": "",
                    "type": "address"
                }
            ],
            "name": "allowed",
            "outputs": [
                {
                    "internalType": "bool",
                    "name": "",
                    "type": "bool"
                }
            ],
            "stateMutability": "view",
            "type": "function"
        },
        {
            "inputs": [
                {
                    "internalType": "address",
                    "name": "",
                    "type": "address"
                },
                {
                    "internalType": "address",
                    "name": "to",
                    "type": "address"
                },
                {
                    "internalType": "uint256",
                    "name": "",
                    "type": "uint256"
                }
            ],
            "name": "beforeTokenTransfer",
            "outputs": [],
            "stateMutability": "view",
            "type": "function"
        },
        {
            "inputs": [
                {
                    "internalType": "address",
                    "name": "target",
                    "type": "address"
                }
            ],
            "name": "disallow",
            "outputs": [],
            "stateMutability": "nonpayable",
            "type": "function"
        },
        {
            "inputs": [
                {
                    "internalType": "address[]",
                    "name": "many",
                    "type": "address[]"
                }
            ],
            "name": "disallow",
            "outputs": [],
            "stateMutability": "nonpayable",
            "type": "function"
        },
        {
            "inputs": [],
            "name": "owner",
            "outputs": [
                {
                    "internalType": "address",
                    "name": "",
                    "type": "address"
                }
            ],
            "stateMutability": "view",
            "type": "function"
        },
        {
            "inputs": [
                {
                    "internalType": "address",
                    "name": "newOwner",
                    "type": "address"
                }
            ],
            "name": "transferOwnership",
            "outputs": [],
            "stateMutability": "nonpayable",
            "type": "function"
        }
    ],
    "bytecode": "608060405234801561001057600080fd5b5060405161068238038061068283398101604081905261002f9161007e565b600080546001600160a01b0319166001600160a01b03831690811782556040518392907f8be0079c531659141344cd1fd0a4f28419497f9722a3daafe3b4186f6b6457e0908290a350506100ae565b60006020828403121561009057600080fd5b81516001600160a01b03811681146100a757600080fd5b9392505050565b6105c5806100bd6000396000f3fe608060405234801561001057600080fd5b50600436106100885760003560e01c8063ca091ef31161005b578063ca091ef3146100f8578063d63a8e111461010b578063f2fde38b1461013e578063ff9913e81461015157600080fd5b80637cbab1c71461008d5780638da5cb5b146100a2578063987c5ced146100d2578063a9ed9cb8146100e5575b600080fd5b6100a061009b36600461047c565b610164565b005b6000546100b5906001600160a01b031681565b6040516001600160a01b0390911681526020015b60405180910390f35b6100a06100e03660046104b8565b6101d6565b6100a06100f336600461045a565b610247565b6100a06101063660046104b8565b6102c9565b61012e61011936600461045a565b60016020526000908152604090205460ff1681565b60405190151581526020016100c9565b6100a061014c36600461045a565b61033a565b6100a061015f36600461045a565b6103bf565b6001600160a01b03821660009081526001602052604090205460ff166101d15760405162461bcd60e51b815260206004820152601a60248201527f5461726765742061646472657373206e6f7420616c6c6f77656400000000000060448201526064015b60405180910390fd5b505050565b6000546001600160a01b031633146102005760405162461bcd60e51b81526004016101c89061052d565b60005b818110156101d15761023583838381811061022057610220610579565b905060200201602081019061015f919061045a565b8061023f81610550565b915050610203565b6000546001600160a01b031633146102715760405162461bcd60e51b81526004016101c89061052d565b6001600160a01b038116600081815260016020908152604091829020805460ff1916905590519182527f504a42bd3473658d161e8b6419e9bed2afaf8baacfe1da6ce71f6d6b9157a5c191015b60405180910390a150565b6000546001600160a01b031633146102f35760405162461bcd60e51b81526004016101c89061052d565b60005b818110156101d15761032883838381811061031357610313610579565b90506020020160208101906100f3919061045a565b8061033281610550565b9150506102f6565b6000546001600160a01b031633146103645760405162461bcd60e51b81526004016101c89061052d565b600080546040516001600160a01b03808516939216917f8be0079c531659141344cd1fd0a4f28419497f9722a3daafe3b4186f6b6457e091a3600080546001600160a01b0319166001600160a01b0392909216919091179055565b6000546001600160a01b031633146103e95760405162461bcd60e51b81526004016101c89061052d565b6001600160a01b038116600081815260016020818152604092839020805460ff191690921790915590519182527f602bb10d2547317c3db570f278b05f7cd8d485d17c800da8cf81b7bc91ed913591016102be565b80356001600160a01b038116811461045557600080fd5b919050565b60006020828403121561046c57600080fd5b6104758261043e565b9392505050565b60008060006060848603121561049157600080fd5b61049a8461043e565b92506104a86020850161043e565b9150604084013590509250925092565b600080602083850312156104cb57600080fd5b823567ffffffffffffffff808211156104e357600080fd5b818501915085601f8301126104f757600080fd5b81358181111561050657600080fd5b8660208260051b850101111561051b57600080fd5b60209290920196919550909350505050565b6020808252600990820152683737ba1037bbb732b960b91b604082015260600190565b600060001982141561057257634e487b7160e01b600052601160045260246000fd5b5060010190565b634e487b7160e01b600052603260045260246000fdfea2646970667358221220ce3afe77457787f221b86d9f98420400ea857c69ea22143c95a2934552be764364736f6c63430008060033",
    "sourcePath": "c:/Users/luziu/Documents/GitHub/contracts/src/AllowlistHook.sol",
    "compiler": {
        "name": "solc",
        "version": "0.8.6+commit.11564f7e"
    },
    "functionHashes": {
        "allow(address)": "ff9913e8",
        "allow(address[])": "987c5ced",
        "allowed(address)": "d63a8e11",
        "beforeTokenTransfer(address,address,uint256)": "7cbab1c7",
        "disallow(address)": "a9ed9cb8",
        "disallow(address[])": "ca091ef3",
        "owner()": "8da5cb5b",
        "transferOwnership(address)": "f2fde38b"
    },
    "gasEstimates": {
        "creation": {
            "codeDepositCost": "295400",
            "executionCost": "infinite",
            "totalCost": "infinite"
        },
        "external": {
            "allow(address)": "27905",
            "allow(address[])": "infinite",
            "allowed(address)": "2553",
            "beforeTokenTransfer(address,address,uint256)": "infinite",
            "disallow(address)": "27883",
            "disallow(address[])": "infinite",
            "owner()": "2349",
            "transferOwnership(address)": "30409"
        }
    }
}