{
    "contractName": "AllowableDraggableShares",
    "abi": [
        {
            "inputs": [
                {
                    "internalType": "string",
                    "name": "_terms",
                    "type": "string"
                },
                {
                    "internalType": "address",
                    "name": "wrappedToken",
                    "type": "address"
                },
                {
                    "internalType": "uint256",
                    "name": "quorumBps",
                    "type": "uint256"
                },
                {
                    "internalType": "uint256",
                    "name": "votePeriodSeconds",
                    "type": "uint256"
                }
            ],
            "stateMutability": "nonpayable",
            "type": "constructor"
        },
        {
            "anonymous": false,
            "inputs": [
                {
                    "indexed": false,
                    "internalType": "address",
                    "name": "target",
                    "type": "address"
                }
            ],
            "name": "AllowListed",
            "type": "event"
        },
        {
            "anonymous": false,
            "inputs": [
                {
                    "indexed": false,
                    "internalType": "address",
                    "name": "target",
                    "type": "address"
                }
            ],
            "name": "AllowUnlisted",
            "type": "event"
        },
        {
            "anonymous": false,
            "inputs": [
                {
                    "indexed": true,
                    "internalType": "address",
                    "name": "owner",
                    "type": "address"
                },
                {
                    "indexed": true,
                    "internalType": "address",
                    "name": "spender",
                    "type": "address"
                },
                {
                    "indexed": false,
                    "internalType": "uint256",
                    "name": "value",
                    "type": "uint256"
                }
            ],
            "name": "Approval",
            "type": "event"
        },
        {
            "anonymous": false,
            "inputs": [
                {
                    "indexed": true,
                    "internalType": "address",
                    "name": "lostAddress",
                    "type": "address"
                },
                {
                    "indexed": false,
                    "internalType": "uint256",
                    "name": "collateral",
                    "type": "uint256"
                }
            ],
            "name": "ClaimCleared",
            "type": "event"
        },
        {
            "anonymous": false,
            "inputs": [
                {
                    "indexed": true,
                    "internalType": "address",
                    "name": "lostAddress",
                    "type": "address"
                },
                {
                    "indexed": true,
                    "internalType": "address",
                    "name": "claimant",
                    "type": "address"
                },
                {
                    "indexed": false,
                    "internalType": "uint256",
                    "name": "collateral",
                    "type": "uint256"
                }
            ],
            "name": "ClaimDeleted",
            "type": "event"
        },
        {
            "anonymous": false,
            "inputs": [
                {
                    "indexed": true,
                    "internalType": "address",
                    "name": "lostAddress",
                    "type": "address"
                },
                {
                    "indexed": true,
                    "internalType": "address",
                    "name": "claimant",
                    "type": "address"
                },
                {
                    "indexed": false,
                    "internalType": "uint256",
                    "name": "balance",
                    "type": "uint256"
                }
            ],
            "name": "ClaimMade",
            "type": "event"
        },
        {
            "anonymous": false,
            "inputs": [
                {
                    "indexed": true,
                    "internalType": "address",
                    "name": "lostAddress",
                    "type": "address"
                },
                {
                    "indexed": true,
                    "internalType": "address",
                    "name": "claimant",
                    "type": "address"
                },
                {
                    "indexed": false,
                    "internalType": "uint256",
                    "name": "collateral",
                    "type": "uint256"
                }
            ],
            "name": "ClaimResolved",
            "type": "event"
        },
        {
            "anonymous": false,
            "inputs": [
                {
                    "indexed": false,
                    "internalType": "address",
                    "name": "newCustomCollateralAddress",
                    "type": "address"
                },
                {
                    "indexed": false,
                    "internalType": "uint256",
                    "name": "newCustomCollareralRate",
                    "type": "uint256"
                }
            ],
            "name": "CustomClaimCollateralChanged",
            "type": "event"
        },
        {
            "anonymous": false,
            "inputs": [
                {
                    "indexed": false,
                    "internalType": "address",
                    "name": "newContractAddress",
                    "type": "address"
                }
            ],
            "name": "MigrationSucceeded",
            "type": "event"
        },
        {
            "anonymous": false,
            "inputs": [
                {
                    "indexed": false,
                    "internalType": "uint256",
                    "name": "time",
                    "type": "uint256"
                }
            ],
            "name": "TimeStamp",
            "type": "event"
        },
        {
            "anonymous": false,
            "inputs": [
                {
                    "indexed": true,
                    "internalType": "address",
                    "name": "from",
                    "type": "address"
                },
                {
                    "indexed": true,
                    "internalType": "address",
                    "name": "to",
                    "type": "address"
                },
                {
                    "indexed": false,
                    "internalType": "uint256",
                    "name": "value",
                    "type": "uint256"
                }
            ],
            "name": "Transfer",
            "type": "event"
        },
        {
            "inputs": [
                {
                    "internalType": "address",
                    "name": "target",
                    "type": "address"
                }
            ],
            "name": "allow",
            "outputs": [],
            "stateMutability": "nonpayable",
            "type": "function"
        },
        {
            "inputs": [
                {
                    "internalType": "address",
                    "name": "owner",
                    "type": "address"
                },
                {
                    "internalType": "address",
                    "name": "spender",
                    "type": "address"
                }
            ],
            "name": "allowance",
            "outputs": [
                {
                    "internalType": "uint256",
                    "name": "",
                    "type": "uint256"
                }
            ],
            "stateMutability": "view",
            "type": "function"
        },
        {
            "inputs": [
                {
                    "internalType": "address",
                    "name": "",
                    "type": "address"
                }
            ],
            "name": "allowed",
            "outputs": [
                {
                    "internalType": "bool",
                    "name": "",
                    "type": "bool"
                }
            ],
            "stateMutability": "view",
            "type": "function"
        },
        {
            "inputs": [
                {
                    "internalType": "address",
                    "name": "spender",
                    "type": "address"
                },
                {
                    "internalType": "uint256",
                    "name": "value",
                    "type": "uint256"
                }
            ],
            "name": "approve",
            "outputs": [
                {
                    "internalType": "bool",
                    "name": "",
                    "type": "bool"
                }
            ],
            "stateMutability": "nonpayable",
            "type": "function"
        },
        {
            "inputs": [
                {
                    "internalType": "address",
                    "name": "account",
                    "type": "address"
                }
            ],
            "name": "balanceOf",
            "outputs": [
                {
                    "internalType": "uint256",
                    "name": "",
                    "type": "uint256"
                }
            ],
            "stateMutability": "view",
            "type": "function"
        },
        {
            "inputs": [
                {
                    "internalType": "uint256",
                    "name": "amount",
                    "type": "uint256"
                }
            ],
            "name": "burn",
            "outputs": [],
            "stateMutability": "nonpayable",
            "type": "function"
        },
        {
            "inputs": [],
            "name": "claimPeriod",
            "outputs": [
                {
                    "internalType": "uint256",
                    "name": "",
                    "type": "uint256"
                }
            ],
            "stateMutability": "view",
            "type": "function"
        },
        {
            "inputs": [
                {
                    "internalType": "address",
                    "name": "",
                    "type": "address"
                }
            ],
            "name": "claims",
            "outputs": [
                {
                    "internalType": "address",
                    "name": "claimant",
                    "type": "address"
                },
                {
                    "internalType": "uint256",
                    "name": "collateral",
                    "type": "uint256"
                },
                {
                    "internalType": "uint256",
                    "name": "timestamp",
                    "type": "uint256"
                },
                {
                    "internalType": "address",
                    "name": "currencyUsed",
                    "type": "address"
                }
            ],
            "stateMutability": "view",
            "type": "function"
        },
        {
            "inputs": [],
            "name": "clearClaim",
            "outputs": [],
            "stateMutability": "nonpayable",
            "type": "function"
        },
        {
            "inputs": [],
            "name": "customCollateralAddress",
            "outputs": [
                {
                    "internalType": "address",
                    "name": "",
                    "type": "address"
                }
            ],
            "stateMutability": "view",
            "type": "function"
        },
        {
            "inputs": [],
            "name": "customCollateralRate",
            "outputs": [
                {
                    "internalType": "uint256",
                    "name": "",
                    "type": "uint256"
                }
            ],
            "stateMutability": "view",
            "type": "function"
        },
        {
            "inputs": [],
            "name": "decimals",
            "outputs": [
                {
                    "internalType": "uint8",
                    "name": "",
                    "type": "uint8"
                }
            ],
            "stateMutability": "view",
            "type": "function"
        },
        {
            "inputs": [
                {
                    "internalType": "address",
                    "name": "collateralType",
                    "type": "address"
                },
                {
                    "internalType": "address",
                    "name": "lostAddress",
                    "type": "address"
                }
            ],
            "name": "declareLost",
            "outputs": [],
            "stateMutability": "nonpayable",
            "type": "function"
        },
        {
            "inputs": [
                {
                    "internalType": "address",
                    "name": "lostAddress",
                    "type": "address"
                }
            ],
            "name": "deleteClaim",
            "outputs": [],
            "stateMutability": "nonpayable",
            "type": "function"
        },
        {
            "inputs": [],
            "name": "disableRecovery",
            "outputs": [],
            "stateMutability": "nonpayable",
            "type": "function"
        },
        {
            "inputs": [
                {
                    "internalType": "address",
                    "name": "target",
                    "type": "address"
                }
            ],
            "name": "disallow",
            "outputs": [],
            "stateMutability": "nonpayable",
            "type": "function"
        },
        {
            "inputs": [
                {
                    "internalType": "address",
                    "name": "buyer",
                    "type": "address"
                },
                {
                    "internalType": "address",
                    "name": "currency",
                    "type": "address"
                }
            ],
            "name": "drag",
            "outputs": [],
            "stateMutability": "nonpayable",
            "type": "function"
        },
        {
            "inputs": [],
            "name": "factory",
            "outputs": [
                {
                    "internalType": "contract IOfferFactory",
                    "name": "",
                    "type": "address"
                }
            ],
            "stateMutability": "view",
            "type": "function"
        },
        {
            "inputs": [],
            "name": "getClaimDeleter",
            "outputs": [
                {
                    "internalType": "address",
                    "name": "",
                    "type": "address"
                }
            ],
            "stateMutability": "view",
            "type": "function"
        },
        {
            "inputs": [
                {
                    "internalType": "address",
                    "name": "lostAddress",
                    "type": "address"
                }
            ],
            "name": "getClaimant",
            "outputs": [
                {
                    "internalType": "address",
                    "name": "",
                    "type": "address"
                }
            ],
            "stateMutability": "view",
            "type": "function"
        },
        {
            "inputs": [
                {
                    "internalType": "address",
                    "name": "lostAddress",
                    "type": "address"
                }
            ],
            "name": "getCollateral",
            "outputs": [
                {
                    "internalType": "uint256",
                    "name": "",
                    "type": "uint256"
                }
            ],
            "stateMutability": "view",
            "type": "function"
        },
        {
            "inputs": [
                {
                    "internalType": "address",
                    "name": "collateralType",
                    "type": "address"
                }
            ],
            "name": "getCollateralRate",
            "outputs": [
                {
                    "internalType": "uint256",
                    "name": "",
                    "type": "uint256"
                }
            ],
            "stateMutability": "view",
            "type": "function"
        },
        {
            "inputs": [
                {
                    "internalType": "address",
                    "name": "lostAddress",
                    "type": "address"
                }
            ],
            "name": "getCollateralType",
            "outputs": [
                {
                    "internalType": "address",
                    "name": "",
                    "type": "address"
                }
            ],
            "stateMutability": "view",
            "type": "function"
        },
        {
            "inputs": [
                {
                    "internalType": "address",
                    "name": "lostAddress",
                    "type": "address"
                }
            ],
            "name": "getTimeStamp",
            "outputs": [
                {
                    "internalType": "uint256",
                    "name": "",
                    "type": "uint256"
                }
            ],
            "stateMutability": "view",
            "type": "function"
        },
        {
            "inputs": [],
            "name": "isBinding",
            "outputs": [
                {
                    "internalType": "bool",
                    "name": "",
                    "type": "bool"
                }
            ],
            "stateMutability": "view",
            "type": "function"
        },
        {
            "inputs": [
                {
                    "internalType": "address",
                    "name": "target",
                    "type": "address"
                }
            ],
            "name": "isRecoveryEnabled",
            "outputs": [
                {
                    "internalType": "bool",
                    "name": "",
                    "type": "bool"
                }
            ],
            "stateMutability": "view",
            "type": "function"
        },
        {
            "inputs": [
                {
                    "internalType": "bytes32",
                    "name": "salt",
                    "type": "bytes32"
                },
                {
                    "internalType": "uint256",
                    "name": "pricePerShare",
                    "type": "uint256"
                },
                {
                    "internalType": "address",
                    "name": "currency",
                    "type": "address"
                }
            ],
            "name": "makeAcquisitionOffer",
            "outputs": [],
            "stateMutability": "payable",
            "type": "function"
        },
        {
            "inputs": [],
            "name": "migrate",
            "outputs": [],
            "stateMutability": "nonpayable",
            "type": "function"
        },
        {
            "inputs": [],
            "name": "name",
            "outputs": [
                {
                    "internalType": "string",
                    "name": "",
                    "type": "string"
                }
            ],
            "stateMutability": "view",
            "type": "function"
        },
        {
            "inputs": [],
            "name": "notifyOfferEnded",
            "outputs": [],
            "stateMutability": "nonpayable",
            "type": "function"
        },
        {
            "inputs": [],
            "name": "offer",
            "outputs": [
                {
                    "internalType": "contract IOffer",
                    "name": "",
                    "type": "address"
                }
            ],
            "stateMutability": "view",
            "type": "function"
        },
        {
            "inputs": [
                {
                    "internalType": "address",
                    "name": "from",
                    "type": "address"
                },
                {
                    "internalType": "uint256",
                    "name": "amount",
                    "type": "uint256"
                },
                {
                    "internalType": "bytes",
                    "name": "",
                    "type": "bytes"
                }
            ],
            "name": "onTokenTransfer",
            "outputs": [
                {
                    "internalType": "bool",
                    "name": "",
                    "type": "bool"
                }
            ],
            "stateMutability": "nonpayable",
            "type": "function"
        },
        {
            "inputs": [],
            "name": "quorum",
            "outputs": [
                {
                    "internalType": "uint256",
                    "name": "",
                    "type": "uint256"
                }
            ],
            "stateMutability": "view",
            "type": "function"
        },
        {
            "inputs": [
                {
                    "internalType": "address",
                    "name": "lostAddress",
                    "type": "address"
                }
            ],
            "name": "recover",
            "outputs": [],
            "stateMutability": "nonpayable",
            "type": "function"
        },
        {
            "inputs": [
                {
                    "internalType": "address",
                    "name": "",
                    "type": "address"
                }
            ],
            "name": "recoveryDisabled",
            "outputs": [
                {
                    "internalType": "bool",
                    "name": "",
                    "type": "bool"
                }
            ],
            "stateMutability": "view",
            "type": "function"
        },
        {
            "inputs": [
                {
                    "internalType": "bool",
                    "name": "enabled",
                    "type": "bool"
                }
            ],
            "name": "setRecoverable",
            "outputs": [],
            "stateMutability": "nonpayable",
            "type": "function"
        },
        {
            "inputs": [],
            "name": "symbol",
            "outputs": [
                {
                    "internalType": "string",
                    "name": "",
                    "type": "string"
                }
            ],
            "stateMutability": "view",
            "type": "function"
        },
        {
            "inputs": [],
            "name": "terms",
            "outputs": [
                {
                    "internalType": "string",
                    "name": "",
                    "type": "string"
                }
            ],
            "stateMutability": "view",
            "type": "function"
        },
        {
            "inputs": [],
            "name": "totalSupply",
            "outputs": [
                {
                    "internalType": "uint256",
                    "name": "",
                    "type": "uint256"
                }
            ],
            "stateMutability": "view",
            "type": "function"
        },
        {
            "inputs": [
                {
                    "internalType": "address",
                    "name": "to",
                    "type": "address"
                },
                {
                    "internalType": "uint256",
                    "name": "value",
                    "type": "uint256"
                }
            ],
            "name": "transfer",
            "outputs": [
                {
                    "internalType": "bool",
                    "name": "",
                    "type": "bool"
                }
            ],
            "stateMutability": "nonpayable",
            "type": "function"
        },
        {
            "inputs": [
                {
                    "internalType": "address",
                    "name": "recipient",
                    "type": "address"
                },
                {
                    "internalType": "uint256",
                    "name": "amount",
                    "type": "uint256"
                },
                {
                    "internalType": "bytes",
                    "name": "data",
                    "type": "bytes"
                }
            ],
            "name": "transferAndCall",
            "outputs": [
                {
                    "internalType": "bool",
                    "name": "",
                    "type": "bool"
                }
            ],
            "stateMutability": "nonpayable",
            "type": "function"
        },
        {
            "inputs": [
                {
                    "internalType": "address",
                    "name": "sender",
                    "type": "address"
                },
                {
                    "internalType": "address",
                    "name": "recipient",
                    "type": "address"
                },
                {
                    "internalType": "uint256",
                    "name": "amount",
                    "type": "uint256"
                }
            ],
            "name": "transferFrom",
            "outputs": [
                {
                    "internalType": "bool",
                    "name": "",
                    "type": "bool"
                }
            ],
            "stateMutability": "nonpayable",
            "type": "function"
        },
        {
            "inputs": [
                {
                    "internalType": "uint256",
                    "name": "amount",
                    "type": "uint256"
                }
            ],
            "name": "unwrap",
            "outputs": [],
            "stateMutability": "nonpayable",
            "type": "function"
        },
        {
            "inputs": [],
            "name": "unwrapConversionFactor",
            "outputs": [
                {
                    "internalType": "uint256",
                    "name": "",
                    "type": "uint256"
                }
            ],
            "stateMutability": "view",
            "type": "function"
        },
        {
            "inputs": [],
            "name": "votePeriod",
            "outputs": [
                {
                    "internalType": "uint256",
                    "name": "",
                    "type": "uint256"
                }
            ],
            "stateMutability": "view",
            "type": "function"
        },
        {
            "inputs": [
                {
                    "internalType": "address",
                    "name": "shareholder",
                    "type": "address"
                },
                {
                    "internalType": "uint256",
                    "name": "amount",
                    "type": "uint256"
                }
            ],
            "name": "wrap",
            "outputs": [],
            "stateMutability": "nonpayable",
            "type": "function"
        },
        {
            "inputs": [],
            "name": "wrapped",
            "outputs": [
                {
                    "internalType": "contract IERC20",
                    "name": "",
                    "type": "address"
                }
            ],
            "stateMutability": "view",
            "type": "function"
        }
    ],
    "bytecode": "608060405260006009553480156200001657600080fd5b5060405162002c6038038062002c60833981016040819052620000399162000157565b6003805460ff19169055600880546001600160a01b0319166001600160a01b038516179055600b829055600c819055835184908490849084906200008590600d90602087019062000094565b505050505050505050620002ab565b828054620000a29062000258565b90600052602060002090601f016020900481019282620000c6576000855562000111565b82601f10620000e157805160ff191683800117855562000111565b8280016001018555821562000111579182015b8281111562000111578251825591602001919060010190620000f4565b506200011f92915062000123565b5090565b5b808211156200011f576000815560010162000124565b80516001600160a01b03811681146200015257600080fd5b919050565b600080600080608085870312156200016e57600080fd5b84516001600160401b03808211156200018657600080fd5b818701915087601f8301126200019b57600080fd5b815181811115620001b057620001b062000295565b604051601f8201601f19908116603f01168101908382118183101715620001db57620001db62000295565b81604052828152602093508a84848701011115620001f857600080fd5b600091505b828210156200021c5784820184015181830185015290830190620001fd565b828211156200022e5760008484830101525b9750620002409150508782016200013a565b60408801516060909801519699909850945050505050565b600181811c908216806200026d57607f821691505b602082108114156200028f57634e487b7160e01b600052602260045260246000fd5b50919050565b634e487b7160e01b600052604160045260246000fd5b6129a580620002bb6000396000f3fe6080604052600436106102885760003560e01c80637dc2cd981161015a578063bf376c7a116100c1578063dcc7d4ad1161007a578063dcc7d4ad14610885578063dd62ed3e14610898578063de0e9a3e146108de578063eb470ebf146108fe578063fcb79a7e14610937578063ff9913e81461095757600080fd5b8063bf376c7a1461075c578063c028df061461077c578063c45a01551461079c578063c6788bdd146107c4578063d502562514610840578063d63a8e111461085557600080fd5b8063a3ec188311610113578063a3ec18831461067c578063a4c0ed36146106b6578063a7813587146106d6578063a9059cbb146106ec578063a9ed9cb81461070c578063b40e80d11461072c57600080fd5b80637dc2cd98146105d75780638fd3ab80146105ee5780638ff8831b1461060357806395d89b41146106185780639b56d6c91461062d5780639e4b57451461066657600080fd5b8063313ce567116101fe57806350e70d48116101b757806350e70d48146104fc578063609181171461051c5780636427ed97146105325780636b03ed5f1461056c57806370a082311461058157806377e071ad146105b757600080fd5b8063313ce5671461041f57806332a7ae951461044b57806332bc320b1461046b5780633bcc45ba146104805780634000aea0146104bc57806342966c68146104dc57600080fd5b80631703a018116102505780631703a0181461036657806318160ddd1461037c5780631e3b9de51461039157806323b872dd146103ca57806326773ddd146103ea5780632a0a4ed51461040a57600080fd5b806306fdde031461028d5780630832e470146102b8578063095ea7b3146102dc5780630c6f0e5d1461030c5780630cd865ec14610344575b600080fd5b34801561029957600080fd5b506102a2610977565b6040516102af919061281c565b60405180910390f35b3480156102c457600080fd5b506102ce60095481565b6040519081526020016102af565b3480156102e857600080fd5b506102fc6102f7366004612526565b610ad0565b60405190151581526020016102af565b34801561031857600080fd5b5060065461032c906001600160a01b031681565b6040516001600160a01b0390911681526020016102af565b34801561035057600080fd5b5061036461035f366004612472565b610ae6565b005b34801561037257600080fd5b506102ce600b5481565b34801561038857600080fd5b506002546102ce565b34801561039d57600080fd5b5061032c6103ac366004612472565b6001600160a01b039081166000908152600460205260409020541690565b3480156103d657600080fd5b506102fc6103e53660046124e5565b610d57565b3480156103f657600080fd5b506103646104053660046124ac565b610db3565b34801561041657600080fd5b5061032c611066565b34801561042b57600080fd5b506003546104399060ff1681565b60405160ff90911681526020016102af565b34801561045757600080fd5b50610364610466366004612472565b6110e8565b34801561047757600080fd5b506103646112fd565b34801561048c57600080fd5b5061032c61049b366004612472565b6001600160a01b039081166000908152600460205260409020600301541690565b3480156104c857600080fd5b506102fc6104d7366004612552565b611323565b3480156104e857600080fd5b506103646104f73660046126fb565b6113c8565b34801561050857600080fd5b5060085461032c906001600160a01b031681565b34801561052857600080fd5b506102ce60075481565b34801561053e57600080fd5b5061036461054d3660046125db565b336000908152600560205260409020805460ff19169115919091179055565b34801561057857600080fd5b5061036461145f565b34801561058d57600080fd5b506102ce61059c366004612472565b6001600160a01b031660009081526020819052604090205490565b3480156105c357600080fd5b506102ce6105d2366004612472565b61157d565b3480156105e357600080fd5b506102ce62ed4e0081565b3480156105fa57600080fd5b5061036461164e565b34801561060f57600080fd5b50610364611729565b34801561062457600080fd5b506102a2611789565b34801561063957600080fd5b506102ce610648366004612472565b6001600160a01b031660009081526004602052604090206001015490565b34801561067257600080fd5b50600954156102fc565b34801561068857600080fd5b506102fc610697366004612472565b6001600160a01b031660009081526005602052604090205460ff161590565b3480156106c257600080fd5b506102fc6106d1366004612552565b6118ce565b3480156106e257600080fd5b506102ce600c5481565b3480156106f857600080fd5b506102fc610707366004612526565b6118f2565b34801561071857600080fd5b50610364610727366004612472565b6118fe565b34801561073857600080fd5b506102fc610747366004612472565b60056020526000908152604090205460ff1681565b34801561076857600080fd5b50610364610777366004612526565b61199a565b34801561078857600080fd5b50600a5461032c906001600160a01b031681565b3480156107a857600080fd5b5061032c73f9f92751f272f0872e2edb6a280b0990f3e2b8a381565b3480156107d057600080fd5b506108116107df366004612472565b60046020526000908152604090208054600182015460028301546003909301546001600160a01b039283169391921684565b604080516001600160a01b039586168152602081019490945283019190915290911660608201526080016102af565b34801561084c57600080fd5b506102a2611a3b565b34801561086157600080fd5b506102fc610870366004612472565b600e6020526000908152604090205460ff1681565b610364610893366004612615565b611ac9565b3480156108a457600080fd5b506102ce6108b33660046124ac565b6001600160a01b03918216600090815260016020908152604080832093909416825291909152205490565b3480156108ea57600080fd5b506103646108f93660046126fb565b611cde565b34801561090a57600080fd5b506102ce610919366004612472565b6001600160a01b031660009081526004602052604090206002015490565b34801561094357600080fd5b506103646109523660046124ac565b611cfa565b34801561096357600080fd5b50610364610972366004612472565b611d45565b60606109836009541590565b15610a3657600860009054906101000a90046001600160a01b03166001600160a01b03166306fdde036040518163ffffffff1660e01b815260040160006040518083038186803b1580156109d657600080fd5b505afa1580156109ea573d6000803e3d6000fd5b505050506040513d6000823e601f3d908101601f19168201604052610a12919081019061264e565b604051602001610a229190612772565b604051602081830303815290604052905090565b600860009054906101000a90046001600160a01b03166001600160a01b03166306fdde036040518163ffffffff1660e01b815260040160006040518083038186803b158015610a8457600080fd5b505afa158015610a98573d6000803e3d6000fd5b505050506040513d6000823e601f3d908101601f19168201604052610ac0919081019061264e565b604051602001610a2291906127a4565b6000610add338484611de4565b50600192915050565b6001600160a01b0380821660009081526004602090815260409182902082516080810184528154851681526001820154928101839052600282015493810193909352600301549092166060820181905290919081610b775760405162461bcd60e51b81526020600482015260096024820152681b9bdd08199bdd5b9960ba1b60448201526064015b60405180910390fd5b82516001600160a01b03163314610bbf5760405162461bcd60e51b815260206004820152600c60248201526b1b9bdd0818db185a5b585b9d60a21b6044820152606401610b6e565b4262ed4e008460400151610bd3919061284f565b1115610c0d5760405162461bcd60e51b8152602060048201526009602482015268746f6f206561726c7960b81b6044820152606401610b6e565b82516001600160a01b03858116600090815260046020819052604080832080546001600160a01b031990811682556001820185905560028201949094556003018054909316909255905163a9059cbb60e01b815282841691810191909152602481018590529083169063a9059cbb90604401602060405180830381600087803b158015610c9957600080fd5b505af1158015610cad573d6000803e3d6000fd5b505050506040513d601f19601f82011682018060405250810190610cd191906125f8565b610cda57600080fd5b610d038582610cfe886001600160a01b031660009081526020819052604090205490565b611e3d565b806001600160a01b0316856001600160a01b03167f52a5c2b28bc6eb9712d0ced43463103b486b13ccc9cda499fd3b2d7b6a74a8ee85604051610d4891815260200190565b60405180910390a35050505050565b6000610d64848484611e3d565b6001600160a01b0384166000908152600160209081526040808320338452909152902054600160ff1b811015610da857610da88533610da386856128a8565b611de4565b506001949350505050565b6001600160a01b03811660009081526005602052604090205460ff1615610e075760405162461bcd60e51b8152602060048201526008602482015267191a5cd8589b195960c21b6044820152606401610b6e565b6000610e128361157d565b905060008111610e555760405162461bcd60e51b815260206004820152600e60248201526d1898590818dbdb1b185d195c985b60921b6044820152606401610b6e565b336000610e77846001600160a01b031660009081526020819052604090205490565b90506000610e858483612889565b90508582610ebd5760405162461bcd60e51b8152602060048201526005602482015264656d70747960d81b6044820152606401610b6e565b6001600160a01b03861660009081526004602052604090206001015415610f185760405162461bcd60e51b815260206004820152600f60248201526e185b1c9958591e4818db185a5b5959608a1b6044820152606401610b6e565b6040516323b872dd60e01b81526001600160a01b038581166004830152306024830152604482018490528216906323b872dd90606401602060405180830381600087803b158015610f6857600080fd5b505af1158015610f7c573d6000803e3d6000fd5b505050506040513d601f19601f82011682018060405250810190610fa091906125f8565b610fa957600080fd5b604080516080810182526001600160a01b038087168083526020808401878152428587019081528d8516606087019081528d86166000818152600490955293889020965187549087166001600160a01b0319918216178855925160018801559051600287015551600390950180549590941694169390931790915591517f1982ca8958fc8a8176cb52be509260f4bc5af7ce04e1533711793f1c56dd5359906110559087815260200190565b60405180910390a350505050505050565b60085460408051632a0a4ed560e01b815290516000926001600160a01b031691632a0a4ed5916004808301926020929190829003018186803b1580156110ab57600080fd5b505afa1580156110bf573d6000803e3d6000fd5b505050506040513d601f19601f820116820180604052508101906110e3919061248f565b905090565b6110f0611066565b6001600160a01b0316336001600160a01b03161461113c5760405162461bcd60e51b81526020600482015260096024820152686e6f2061636365737360b81b6044820152606401610b6e565b6001600160a01b0380821660009081526004602090815260409182902082516080810184528154851681526001820154928101839052600282015493810193909352600301549092166060820181905290916111c65760405162461bcd60e51b81526020600482015260096024820152681b9bdd08199bdd5b9960ba1b6044820152606401610b6e565b6001600160a01b03808416600090815260046020818152604080842080546001600160a01b031990811682556001820186905560028201959095556003018054909416909355855190860151925163a9059cbb60e01b81529385169363a9059cbb93611248939091016001600160a01b03929092168252602082015260400190565b602060405180830381600087803b15801561126257600080fd5b505af1158015611276573d6000803e3d6000fd5b505050506040513d601f19601f8201168201806040525081019061129a91906125f8565b6112a357600080fd5b81600001516001600160a01b0316836001600160a01b03167fbb036e629a9f4c0897ee5d48440dfdb36f7e772117723a2ed603a6514244c2d584602001516040516112f091815260200190565b60405180910390a3505050565b600a546001600160a01b031633141561132157600a80546001600160a01b03191690555b565b60008061133086866118f2565b905080156113bf57604051635260769b60e11b81526001600160a01b0387169063a4c0ed369061136a9033908990899089906004016127d4565b602060405180830381600087803b15801561138457600080fd5b505af1158015611398573d6000803e3d6000fd5b505050506040513d601f19601f820116820180604052508101906113bc91906125f8565b90505b95945050505050565b6113d23382611efc565b60006113de6009541590565b6113ea576009546113ed565b60015b6008549091506001600160a01b03166342966c6861140b8385612889565b6040518263ffffffff1660e01b815260040161142991815260200190565b600060405180830381600087803b15801561144357600080fd5b505af1158015611457573d6000803e3d6000fd5b505050505050565b33600090815260046020526040902060010154156113215733600081815260046020819052604080832060018101805460038301805484546001600160a01b0319908116865593889055600290940196909655908216909455905163a9059cbb60e01b8152918201939093526024810182905290916001600160a01b031690819063a9059cbb90604401602060405180830381600087803b15801561150357600080fd5b505af1158015611517573d6000803e3d6000fd5b505050506040513d601f19601f8201168201806040525081019061153b91906125f8565b61154457600080fd5b60405182815233907f203627483d943880619f4b7e0cca21dbefd6204b4d85b124eb99540e17ba86dd9060200160405180910390a25050565b60008061158983611f92565b905080156115975792915050565b6008546001600160a01b03848116911614156115b7575050600954919050565b6009546008546040516377e071ad60e01b81526001600160a01b038681166004830152909116906377e071ad9060240160206040518083038186803b1580156115ff57600080fd5b505afa158015611613573d6000803e3d6000fd5b505050506040513d601f19601f820116820180604052508101906116379190612714565b6116419190612889565b9392505050565b50919050565b33611663600a546001600160a01b0316151590565b1561166d57600080fd5b611f4061167960025490565b6116839190612889565b6001600160a01b0382166000908152602081905260409020546116a890612710612889565b10156116df5760405162461bcd60e51b815260206004820152600660248201526571756f72756d60d01b6044820152606401610b6e565b6116e98182611fd3565b6040516001600160a01b03821681527f3b6b79a09e9fd230e8591b65c97236bf7df7a604edf733db0658e66b0e6eb2a9906020015b60405180910390a150565b600854604051636427ed9760e01b8152600060048201526001600160a01b0390911690636427ed9790602401600060405180830381600087803b15801561176f57600080fd5b505af1158015611783573d6000803e3d6000fd5b50505050565b60606117956009541590565b1561183457600860009054906101000a90046001600160a01b03166001600160a01b03166395d89b416040518163ffffffff1660e01b815260040160006040518083038186803b1580156117e857600080fd5b505afa1580156117fc573d6000803e3d6000fd5b505050506040513d6000823e601f3d908101601f19168201604052611824919081019061264e565b604051602001610a22919061272d565b600860009054906101000a90046001600160a01b03166001600160a01b03166395d89b416040518163ffffffff1660e01b815260040160006040518083038186803b15801561188257600080fd5b505afa158015611896573d6000803e3d6000fd5b505050506040513d6000823e601f3d908101601f191682016040526118be919081019061264e565b604051602001610a229190612756565b6008546000906001600160a01b031633146118e857600080fd5b610da88585612198565b60006116418383612239565b33611907612245565b6001600160a01b0316146119495760405162461bcd60e51b81526020600482015260096024820152683737ba1030b236b4b760b91b6044820152606401610b6e565b6001600160a01b0381166000818152600e6020908152604091829020805460ff1916905590519182527f504a42bd3473658d161e8b6419e9bed2afaf8baacfe1da6ce71f6d6b9157a5c1910161171e565b6008546040516323b872dd60e01b8152336004820152306024820152604481018390526001600160a01b03909116906323b872dd90606401602060405180830381600087803b1580156119ec57600080fd5b505af1158015611a00573d6000803e3d6000fd5b505050506040513d601f19601f82011682018060405250810190611a2491906125f8565b611a2d57600080fd5b611a378282612198565b5050565b600d8054611a48906128eb565b80601f0160208091040260200160405190810160405280929190818152602001828054611a74906128eb565b8015611ac15780601f10611a9657610100808354040283529160200191611ac1565b820191906000526020600020905b815481529060010190602001808311611aa457829003601f168201915b505050505081565b60095415611ad657600080fd5b6040514281527fdfbf6547deaf4fa5dd154ec1daf5350032f31d34e4c755104dfbf6049163c0879060200160405180910390a1600b54600c54604051634dc5e43160e01b815260048101869052336024820152604481018590526001600160a01b0384166064820152608481019290925260a482015260009073f9f92751f272f0872e2edb6a280b0990f3e2b8a390634dc5e43190349060c4016020604051808303818588803b158015611b8957600080fd5b505af1158015611b9d573d6000803e3d6000fd5b50505050506040513d601f19601f82011682018060405250810190611bc2919061248f565b9050611bd8600a546001600160a01b0316151590565b15611cb957806001600160a01b0316633f5e3e7f6040518163ffffffff1660e01b8152600401602060405180830381600087803b158015611c1857600080fd5b505af1158015611c2c573d6000803e3d6000fd5b505050506040513d601f19601f82011682018060405250810190611c5091906125f8565b611c5957600080fd5b600a546040516306a169ed60e01b81526001600160a01b038381166004830152909116906306a169ed90602401600060405180830381600087803b158015611ca057600080fd5b505af1158015611cb4573d6000803e3d6000fd5b505050505b600a80546001600160a01b0319166001600160a01b0392909216919091179055505050565b600954611cea57600080fd5b611cf7338260095461224f565b50565b600a546001600160a01b03163314611d1157600080fd5b611d3b82611d34846001600160a01b031660009081526020819052604090205490565b600161224f565b611a378183611fd3565b33611d4e612245565b6001600160a01b031614611d905760405162461bcd60e51b81526020600482015260096024820152683737ba1030b236b4b760b91b6044820152606401610b6e565b6001600160a01b0381166000818152600e6020908152604091829020805460ff1916600117905590519182527f602bb10d2547317c3db570f278b05f7cd8d485d17c800da8cf81b7bc91ed9135910161171e565b6001600160a01b0383811660008181526001602090815260408083209487168084529482529182902085905590518481527f8c5be1e5ebec7d5bd14f71427d1e84f3dd0314c0f7b2291e5b200ac8c7c3b92591016112f0565b6001600160a01b038216611e5057600080fd5b611e5b838383612301565b6001600160a01b03831660009081526020819052604081208054839290611e839084906128a8565b90915550506001600160a01b03821660009081526020819052604081208054839290611eb090849061284f565b92505081905550816001600160a01b0316836001600160a01b03167fddf252ad1be2c89b69c2b068fc378daa952ba7f163c4a11628f55a4df523b3ef836040516112f091815260200190565b611f0882600083612301565b8060026000828254611f1a91906128a8565b90915550506001600160a01b03821660009081526020819052604081208054839290611f479084906128a8565b90915550506040518181526000906001600160a01b038416907fddf252ad1be2c89b69c2b068fc378daa952ba7f163c4a11628f55a4df523b3ef906020015b60405180910390a35050565b60006001600160a01b038216301415611fad57506001919050565b6006546001600160a01b0383811691161415611fcb57505060075490565b506000919050565b60095415611fe057600080fd5b6008546040516370a0823160e01b81523060048201526001600160a01b039091169063a9059cbb90839083906370a082319060240160206040518083038186803b15801561202d57600080fd5b505afa158015612041573d6000803e3d6000fd5b505050506040513d601f19601f820116820180604052508101906120659190612714565b6040516001600160e01b031960e085901b1681526001600160a01b0390921660048301526024820152604401602060405180830381600087803b1580156120ab57600080fd5b505af11580156120bf573d6000803e3d6000fd5b505050506040513d601f19601f820116820180604052508101906120e391906125f8565b6120ec57600080fd5b600880546001600160a01b0319166001600160a01b038416179055600254611a37906008546040516370a0823160e01b81523060048201526001600160a01b03909116906370a082319060240160206040518083038186803b15801561215157600080fd5b505afa158015612165573d6000803e3d6000fd5b505050506040513d601f19601f820116820180604052508101906121899190612714565b6121939190612867565b61230c565b6001600160a01b0382166121ab57600080fd5b6121b760008383612301565b80600260008282546121c9919061284f565b90915550506001600160a01b038216600090815260208190526040812080548392906121f690849061284f565b90915550506040518181526001600160a01b038316906000907fddf252ad1be2c89b69c2b068fc378daa952ba7f163c4a11628f55a4df523b3ef90602001611f86565b6000611641838361234b565b60006110e3611066565b6122598383611efc565b6008546001600160a01b031663a9059cbb846122758486612889565b6040516001600160e01b031960e085901b1681526001600160a01b0390921660048301526024820152604401602060405180830381600087803b1580156122bb57600080fd5b505af11580156122cf573d6000803e3d6000fd5b505050506040513d601f19601f820116820180604052508101906122f391906125f8565b6122fc57600080fd5b505050565b6122fc838383612368565b60018110156123465760405162461bcd60e51b81526020600482015260066024820152653330b1ba37b960d11b6044820152606401610b6e565b600955565b600061235783836123db565b61236057600080fd5b610add61145f565b6001600160a01b0382166000908152600e602052604090205460ff166123d05760405162461bcd60e51b815260206004820152601a60248201527f5461726765742061646472657373206e6f7420616c6c6f7765640000000000006044820152606401610b6e565b6122fc8383836123e8565b6000610add338484611e3d565b6122fc838383600a546001600160a01b0316156122fc57600a5460405163e1a1810f60e01b81526001600160a01b0385811660048301528481166024830152604482018490529091169063e1a1810f90606401600060405180830381600087803b15801561245557600080fd5b505af1158015612469573d6000803e3d6000fd5b50505050505050565b60006020828403121561248457600080fd5b81356116418161294c565b6000602082840312156124a157600080fd5b81516116418161294c565b600080604083850312156124bf57600080fd5b82356124ca8161294c565b915060208301356124da8161294c565b809150509250929050565b6000806000606084860312156124fa57600080fd5b83356125058161294c565b925060208401356125158161294c565b929592945050506040919091013590565b6000806040838503121561253957600080fd5b82356125448161294c565b946020939093013593505050565b6000806000806060858703121561256857600080fd5b84356125738161294c565b935060208501359250604085013567ffffffffffffffff8082111561259757600080fd5b818701915087601f8301126125ab57600080fd5b8135818111156125ba57600080fd5b8860208285010111156125cc57600080fd5b95989497505060200194505050565b6000602082840312156125ed57600080fd5b813561164181612961565b60006020828403121561260a57600080fd5b815161164181612961565b60008060006060848603121561262a57600080fd5b833592506020840135915060408401356126438161294c565b809150509250925092565b60006020828403121561266057600080fd5b815167ffffffffffffffff8082111561267857600080fd5b818401915084601f83011261268c57600080fd5b81518181111561269e5761269e612936565b604051601f8201601f19908116603f011681019083821181831017156126c6576126c6612936565b816040528281528760208487010111156126df57600080fd5b6126f08360208301602088016128bf565b979650505050505050565b60006020828403121561270d57600080fd5b5035919050565b60006020828403121561272657600080fd5b5051919050565b601160fa1b8152600082516127498160018501602087016128bf565b9190910160010192915050565b605760f81b8152600082516127498160018501602087016128bf565b690223930b3b3b0b13632960b51b81526000825161279781600a8501602087016128bf565b91909101600a0192915050565b6702bb930b83832b2160c51b8152600082516127c78160088501602087016128bf565b9190910160080192915050565b6001600160a01b0385168152602081018490526060604082018190528101829052818360808301376000818301608090810191909152601f909201601f191601019392505050565b602081526000825180602084015261283b8160408501602087016128bf565b601f01601f19169190910160400192915050565b6000821982111561286257612862612920565b500190565b60008261288457634e487b7160e01b600052601260045260246000fd5b500490565b60008160001904831182151516156128a3576128a3612920565b500290565b6000828210156128ba576128ba612920565b500390565b60005b838110156128da5781810151838201526020016128c2565b838111156117835750506000910152565b600181811c908216806128ff57607f821691505b6020821081141561164857634e487b7160e01b600052602260045260246000fd5b634e487b7160e01b600052601160045260246000fd5b634e487b7160e01b600052604160045260246000fd5b6001600160a01b0381168114611cf757600080fd5b8015158114611cf757600080fdfea26469706673582212206ea50d16447585383a90bb131b481c6502a82dfd28a956d0e32e4c69abb69bb964736f6c63430008060033",
    "sourcePath": "c:/Users/luziu/Documents/aktionariat/contracts/src/AllowableDraggableShares.sol",
    "compiler": {
        "name": "solc",
        "version": "0.8.6+commit.11564f7e"
    },
    "functionHashes": {
        "allow(address)": "ff9913e8",
        "allowance(address,address)": "dd62ed3e",
        "allowed(address)": "d63a8e11",
        "approve(address,uint256)": "095ea7b3",
        "balanceOf(address)": "70a08231",
        "burn(uint256)": "42966c68",
        "claimPeriod()": "7dc2cd98",
        "claims(address)": "c6788bdd",
        "clearClaim()": "6b03ed5f",
        "customCollateralAddress()": "0c6f0e5d",
        "customCollateralRate()": "60918117",
        "decimals()": "313ce567",
        "declareLost(address,address)": "26773ddd",
        "deleteClaim(address)": "32a7ae95",
        "disableRecovery()": "8ff8831b",
        "disallow(address)": "a9ed9cb8",
        "drag(address,address)": "fcb79a7e",
        "factory()": "c45a0155",
        "getClaimDeleter()": "2a0a4ed5",
        "getClaimant(address)": "1e3b9de5",
        "getCollateral(address)": "9b56d6c9",
        "getCollateralRate(address)": "77e071ad",
        "getCollateralType(address)": "3bcc45ba",
        "getTimeStamp(address)": "eb470ebf",
        "isBinding()": "9e4b5745",
        "isRecoveryEnabled(address)": "a3ec1883",
        "makeAcquisitionOffer(bytes32,uint256,address)": "dcc7d4ad",
        "migrate()": "8fd3ab80",
        "name()": "06fdde03",
        "notifyOfferEnded()": "32bc320b",
        "offer()": "c028df06",
        "onTokenTransfer(address,uint256,bytes)": "a4c0ed36",
        "quorum()": "1703a018",
        "recover(address)": "0cd865ec",
        "recoveryDisabled(address)": "b40e80d1",
        "setRecoverable(bool)": "6427ed97",
        "symbol()": "95d89b41",
        "terms()": "d5025625",
        "totalSupply()": "18160ddd",
        "transfer(address,uint256)": "a9059cbb",
        "transferAndCall(address,uint256,bytes)": "4000aea0",
        "transferFrom(address,address,uint256)": "23b872dd",
        "unwrap(uint256)": "de0e9a3e",
        "unwrapConversionFactor()": "0832e470",
        "votePeriod()": "a7813587",
        "wrap(address,uint256)": "bf376c7a",
        "wrapped()": "50e70d48"
    },
    "gasEstimates": {
        "creation": {
            "codeDepositCost": "2132200",
            "executionCost": "infinite",
            "totalCost": "infinite"
        },
        "external": {
            "allow(address)": "infinite",
            "allowance(address,address)": "infinite",
            "allowed(address)": "2680",
            "approve(address,uint256)": "24623",
            "balanceOf(address)": "2667",
            "burn(uint256)": "infinite",
            "claimPeriod()": "241",
            "claims(address)": "9086",
            "clearClaim()": "infinite",
            "customCollateralAddress()": "2450",
            "customCollateralRate()": "2362",
            "decimals()": "2359",
            "declareLost(address,address)": "infinite",
            "deleteClaim(address)": "infinite",
            "disableRecovery()": "infinite",
            "disallow(address)": "infinite",
            "drag(address,address)": "infinite",
            "factory()": "305",
            "getClaimDeleter()": "infinite",
            "getClaimant(address)": "2651",
            "getCollateral(address)": "2671",
            "getCollateralRate(address)": "infinite",
            "getCollateralType(address)": "2679",
            "getTimeStamp(address)": "2647",
            "isBinding()": "2457",
            "isRecoveryEnabled(address)": "2591",
            "makeAcquisitionOffer(bytes32,uint256,address)": "infinite",
            "migrate()": "infinite",
            "name()": "infinite",
            "notifyOfferEnded()": "26607",
            "offer()": "2404",
            "onTokenTransfer(address,uint256,bytes)": "infinite",
            "quorum()": "2341",
            "recover(address)": "infinite",
            "recoveryDisabled(address)": "2680",
            "setRecoverable(bool)": "24665",
            "symbol()": "infinite",
            "terms()": "infinite",
            "totalSupply()": "2360",
            "transfer(address,uint256)": "infinite",
            "transferAndCall(address,uint256,bytes)": "infinite",
            "transferFrom(address,address,uint256)": "infinite",
            "unwrap(uint256)": "infinite",
            "unwrapConversionFactor()": "2364",
            "votePeriod()": "2384",
            "wrap(address,uint256)": "infinite",
            "wrapped()": "2382"
        },
        "internal": {
            "_beforeTokenTransfer(address,address,uint256)": "infinite",
            "getAllowlistAdmin()": "infinite"
        }
    }
}