{
    "contractName": "AllowlistHook",
    "abi": [
        {
            "inputs": [
                {
                    "internalType": "address",
                    "name": "owner",
                    "type": "address"
                }
            ],
            "stateMutability": "nonpayable",
            "type": "constructor"
        },
        {
            "anonymous": false,
            "inputs": [
                {
                    "indexed": false,
                    "internalType": "address",
                    "name": "target",
                    "type": "address"
                }
            ],
            "name": "AllowListed",
            "type": "event"
        },
        {
            "anonymous": false,
            "inputs": [
                {
                    "indexed": false,
                    "internalType": "address",
                    "name": "target",
                    "type": "address"
                }
            ],
            "name": "AllowUnlisted",
            "type": "event"
        },
        {
            "anonymous": false,
            "inputs": [
                {
                    "indexed": true,
                    "internalType": "address",
                    "name": "previousOwner",
                    "type": "address"
                },
                {
                    "indexed": true,
                    "internalType": "address",
                    "name": "newOwner",
                    "type": "address"
                }
            ],
            "name": "OwnershipTransferred",
            "type": "event"
        },
        {
            "inputs": [
                {
                    "internalType": "address[]",
                    "name": "many",
                    "type": "address[]"
                }
            ],
            "name": "allow",
            "outputs": [],
            "stateMutability": "nonpayable",
            "type": "function"
        },
        {
            "inputs": [
                {
                    "internalType": "address",
                    "name": "target",
                    "type": "address"
                }
            ],
            "name": "allow",
            "outputs": [],
            "stateMutability": "nonpayable",
            "type": "function"
        },
        {
            "inputs": [
                {
                    "internalType": "address",
                    "name": "",
                    "type": "address"
                }
            ],
            "name": "allowed",
            "outputs": [
                {
                    "internalType": "bool",
                    "name": "",
                    "type": "bool"
                }
            ],
            "stateMutability": "view",
            "type": "function"
        },
        {
            "inputs": [
                {
                    "internalType": "address",
                    "name": "",
                    "type": "address"
                },
                {
                    "internalType": "address",
                    "name": "to",
                    "type": "address"
                },
                {
                    "internalType": "uint256",
                    "name": "",
                    "type": "uint256"
                }
            ],
            "name": "beforeTokenTransfer",
            "outputs": [],
            "stateMutability": "view",
            "type": "function"
        },
        {
            "inputs": [
                {
                    "internalType": "address",
                    "name": "target",
                    "type": "address"
                }
            ],
            "name": "disallow",
            "outputs": [],
            "stateMutability": "nonpayable",
            "type": "function"
        },
        {
            "inputs": [
                {
                    "internalType": "address[]",
                    "name": "many",
                    "type": "address[]"
                }
            ],
            "name": "disallow",
            "outputs": [],
            "stateMutability": "nonpayable",
            "type": "function"
        },
        {
            "inputs": [],
            "name": "owner",
            "outputs": [
                {
                    "internalType": "address",
                    "name": "",
                    "type": "address"
                }
            ],
            "stateMutability": "view",
            "type": "function"
        },
        {
            "inputs": [
                {
                    "internalType": "address",
                    "name": "newOwner",
                    "type": "address"
                }
            ],
            "name": "transferOwnership",
            "outputs": [],
            "stateMutability": "nonpayable",
            "type": "function"
        }
    ],
    "bytecode": "608060405234801561001057600080fd5b506040516108ff3803806108ff83398101604081905261002f9161007e565b600080546001600160a01b0319166001600160a01b03831690811782556040518392907f8be0079c531659141344cd1fd0a4f28419497f9722a3daafe3b4186f6b6457e0908290a350506100ae565b60006020828403121561009057600080fd5b81516001600160a01b03811681146100a757600080fd5b9392505050565b610842806100bd6000396000f3fe608060405234801561001057600080fd5b50600436106100885760003560e01c8063ca091ef31161005b578063ca091ef3146100f8578063d63a8e111461010b578063f2fde38b1461013e578063ff9913e81461015157600080fd5b80637cbab1c71461008d5780638da5cb5b146100a2578063987c5ced146100d2578063a9ed9cb8146100e5575b600080fd5b6100a061009b3660046106dc565b610164565b005b6000546100b5906001600160a01b031681565b6040516001600160a01b0390911681526020015b60405180910390f35b6100a06100e036600461071d565b6101d6565b6100a06100f336600461069b565b6102c0565b6100a061010636600461071d565b6103bb565b61012e61011936600461069b565b60016020526000908152604090205460ff1681565b60405190151581526020016100c9565b6100a061014c36600461069b565b6104a5565b6100a061015f36600461069b565b6105a3565b6001600160a01b03821660009081526001602052604090205460ff166101d15760405162461bcd60e51b815260206004820152601a60248201527f5461726765742061646472657373206e6f7420616c6c6f77656400000000000060448201526064015b60405180910390fd5b505050565b336001600160a01b0316306001600160a01b0316638da5cb5b6040518163ffffffff1660e01b8152600401602060405180830381600087803b15801561021b57600080fd5b505af115801561022f573d6000803e3d6000fd5b505050506040513d601f19601f8201168201806040525081019061025391906106bf565b6001600160a01b0316146102795760405162461bcd60e51b81526004016101c890610792565b60005b818110156101d1576102ae838383818110610299576102996107de565b905060200201602081019061015f919061069b565b806102b8816107b5565b91505061027c565b336001600160a01b0316306001600160a01b0316638da5cb5b6040518163ffffffff1660e01b8152600401602060405180830381600087803b15801561030557600080fd5b505af1158015610319573d6000803e3d6000fd5b505050506040513d601f19601f8201168201806040525081019061033d91906106bf565b6001600160a01b0316146103635760405162461bcd60e51b81526004016101c890610792565b6001600160a01b038116600081815260016020908152604091829020805460ff1916905590519182527f504a42bd3473658d161e8b6419e9bed2afaf8baacfe1da6ce71f6d6b9157a5c191015b60405180910390a150565b336001600160a01b0316306001600160a01b0316638da5cb5b6040518163ffffffff1660e01b8152600401602060405180830381600087803b15801561040057600080fd5b505af1158015610414573d6000803e3d6000fd5b505050506040513d601f19601f8201168201806040525081019061043891906106bf565b6001600160a01b03161461045e5760405162461bcd60e51b81526004016101c890610792565b60005b818110156101d15761049383838381811061047e5761047e6107de565b90506020020160208101906100f3919061069b565b8061049d816107b5565b915050610461565b336001600160a01b0316306001600160a01b0316638da5cb5b6040518163ffffffff1660e01b8152600401602060405180830381600087803b1580156104ea57600080fd5b505af11580156104fe573d6000803e3d6000fd5b505050506040513d601f19601f8201168201806040525081019061052291906106bf565b6001600160a01b0316146105485760405162461bcd60e51b81526004016101c890610792565b600080546040516001600160a01b03808516939216917f8be0079c531659141344cd1fd0a4f28419497f9722a3daafe3b4186f6b6457e091a3600080546001600160a01b0319166001600160a01b0392909216919091179055565b336001600160a01b0316306001600160a01b0316638da5cb5b6040518163ffffffff1660e01b8152600401602060405180830381600087803b1580156105e857600080fd5b505af11580156105fc573d6000803e3d6000fd5b505050506040513d601f19601f8201168201806040525081019061062091906106bf565b6001600160a01b0316146106465760405162461bcd60e51b81526004016101c890610792565b6001600160a01b038116600081815260016020818152604092839020805460ff191690921790915590519182527f602bb10d2547317c3db570f278b05f7cd8d485d17c800da8cf81b7bc91ed913591016103b0565b6000602082840312156106ad57600080fd5b81356106b8816107f4565b9392505050565b6000602082840312156106d157600080fd5b81516106b8816107f4565b6000806000606084860312156106f157600080fd5b83356106fc816107f4565b9250602084013561070c816107f4565b929592945050506040919091013590565b6000806020838503121561073057600080fd5b823567ffffffffffffffff8082111561074857600080fd5b818501915085601f83011261075c57600080fd5b81358181111561076b57600080fd5b8660208260051b850101111561078057600080fd5b60209290920196919550909350505050565b6020808252600990820152683737ba1037bbb732b960b91b604082015260600190565b60006000198214156107d757634e487b7160e01b600052601160045260246000fd5b5060010190565b634e487b7160e01b600052603260045260246000fd5b6001600160a01b038116811461080957600080fd5b5056fea2646970667358221220b3f61e59ed9e2733f42eb211ece071ff2103a905b23c23acade0107ef6a6add064736f6c63430008060033",
    "sourcePath": "c:/Users/luziu/Documents/GitHub/contracts/src/AllowlistHook.sol",
    "compiler": {
        "name": "solc",
        "version": "0.8.6+commit.11564f7e"
    },
    "functionHashes": {
        "allow(address)": "ff9913e8",
        "allow(address[])": "987c5ced",
        "allowed(address)": "d63a8e11",
        "beforeTokenTransfer(address,address,uint256)": "7cbab1c7",
        "disallow(address)": "a9ed9cb8",
        "disallow(address[])": "ca091ef3",
        "owner()": "8da5cb5b",
        "transferOwnership(address)": "f2fde38b"
    },
    "gasEstimates": {
        "creation": {
            "codeDepositCost": "422800",
            "executionCost": "infinite",
            "totalCost": "infinite"
        },
        "external": {
            "allow(address)": "infinite",
            "allow(address[])": "infinite",
            "allowed(address)": "2547",
            "beforeTokenTransfer(address,address,uint256)": "infinite",
            "disallow(address)": "infinite",
            "disallow(address[])": "infinite",
            "owner()": "2349",
            "transferOwnership(address)": "infinite"
        }
    }
}