{
    "contractName": "AutomatonFactory",
    "abi": [
        {
            "inputs": [
                {
                    "internalType": "bytes32",
                    "name": "salt",
                    "type": "bytes32"
                },
                {
                    "internalType": "address",
                    "name": "baseCurrency",
                    "type": "address"
                },
                {
                    "internalType": "address",
                    "name": "shareToken",
                    "type": "address"
                }
            ],
            "name": "create",
            "outputs": [
                {
                    "internalType": "address",
                    "name": "",
                    "type": "address"
                }
            ],
            "stateMutability": "nonpayable",
            "type": "function"
        }
    ],
    "bytecode": "608060405234801561001057600080fd5b50611d22806100206000396000f3fe608060405234801561001057600080fd5b506004361061002b5760003560e01c80637da9767714610030575b600080fd5b6100646004803603606081101561004657600080fd5b508035906001600160a01b0360208201358116916040013516610080565b604080516001600160a01b039092168252519081900360200190f35b6000838383604051610091906100d2565b6001600160a01b03928316815291166020820152604080518392819003909101906000f59050801580156100c9573d6000803e3d6000fd5b50949350505050565b611c0d806100e08339019056fe60806040526000805460ff60a01b1916905534801561001d57600080fd5b50604051611c0d380380611c0d8339818101604052604081101561004057600080fd5b508051602090910151604051339081906000907f8be0079c531659141344cd1fd0a4f28419497f9722a3daafe3b4186f6b6457e0908290a3600080546001600160a01b039283166001600160a01b03199182161782556001805495841695821695909517909455600280549390921692841692909217905560038054909216331790915542600655600755611b33806100da6000396000f3fe6080604052600436106101cd5760003560e01c8063a4c0ed36116100f7578063d09de08a11610095578063f2fde38b11610064578063f2fde38b14610792578063f496a610146107c5578063f7d9757714610855578063fc0c546a14610885576101cd565b8063d09de08a146106e6578063d9caed12146106fb578063e21ae4321461073e578063e757223014610768576101cd565b8063ae539d80116100d1578063ae539d8014610635578063ba730e531461065f578063ba8f1b6914610689578063c3b929f7146106b3576101cd565b8063a4c0ed3614610565578063a63ae9c7146105f5578063a6c677f61461060a576101cd565b8063756d095e1161016f57806388bbbe351161013e57806388bbbe35146104a45780638a07d3d0146105265780638da5cb5b1461053b57806398d5fdca14610550576101cd565b8063756d095e146103ae57806380aa0df7146103e0578063821895511461040d5780638456cb591461048f576101cd565b80633f4ba83a116101ab5780633f4ba83a146103135780635001f3b51461032a5780635c975abb1461035b5780636f7267b714610384576101cd565b806308d4db14146101d257806319f4d6b71461020e5780632535a65a1461029e575b600080fd5b3480156101de57600080fd5b506101fc600480360360208110156101f557600080fd5b503561089a565b60408051918252519081900360200190f35b34801561021a57600080fd5b506101fc6004803603606081101561023157600080fd5b6001600160a01b0382351691602081013591810190606081016040820135600160201b81111561026057600080fd5b82018360208201111561027257600080fd5b803590602001918460018302840111600160201b8311171561029357600080fd5b5090925090506108b5565b6101fc600480360360408110156102b457600080fd5b81359190810190604081016020820135600160201b8111156102d557600080fd5b8201836020820111156102e757600080fd5b803590602001918460018302840111600160201b8311171561030857600080fd5b5090925090506108cd565b34801561031f57600080fd5b50610328610b94565b005b34801561033657600080fd5b5061033f610c2b565b604080516001600160a01b039092168252519081900360200190f35b34801561036757600080fd5b50610370610c3a565b604080519115158252519081900360200190f35b34801561039057600080fd5b506101fc600480360360208110156103a757600080fd5b5035610c4a565b3480156103ba57600080fd5b50610328600480360360408110156103d157600080fd5b50803590602001351515610c58565b3480156103ec57600080fd5b506103286004803603602081101561040357600080fd5b503560ff16610ccf565b34801561041957600080fd5b506101fc6004803603604081101561043057600080fd5b81359190810190604081016020820135600160201b81111561045157600080fd5b82018360208201111561046357600080fd5b803590602001918460018302840111600160201b8311171561048457600080fd5b509092509050610d17565b34801561049b57600080fd5b50610328610d2d565b3480156104b057600080fd5b506101fc600480360360408110156104c757600080fd5b81359190810190604081016020820135600160201b8111156104e857600080fd5b8201836020820111156104fa57600080fd5b803590602001918460018302840111600160201b8311171561051b57600080fd5b509092509050610dcb565b34801561053257600080fd5b50610370610dd9565b34801561054757600080fd5b5061033f610de1565b34801561055c57600080fd5b506101fc610df0565b34801561057157600080fd5b506103706004803603606081101561058857600080fd5b6001600160a01b0382351691602081013591810190606081016040820135600160201b8111156105b757600080fd5b8201836020820111156105c957600080fd5b803590602001918460018302840111600160201b831117156105ea57600080fd5b509092509050610e00565b34801561060157600080fd5b5061033f610e7e565b34801561061657600080fd5b5061061f610e8d565b6040805160ff9092168252519081900360200190f35b34801561064157600080fd5b506101fc6004803603602081101561065857600080fd5b5035610e9d565b34801561066b57600080fd5b506101fc6004803603602081101561068257600080fd5b50356110a9565b34801561069557600080fd5b506101fc600480360360208110156106ac57600080fd5b50356110d4565b3480156106bf57600080fd5b50610328600480360360208110156106d657600080fd5b50356001600160a01b03166110fd565b3480156106f257600080fd5b506101fc611136565b34801561070757600080fd5b506103286004803603606081101561071e57600080fd5b506001600160a01b0381358116916020810135909116906040013561113c565b34801561074a57600080fd5b506101fc6004803603602081101561076157600080fd5b503561124f565b34801561077457600080fd5b506101fc6004803603602081101561078b57600080fd5b503561126e565b34801561079e57600080fd5b50610328600480360360208110156107b557600080fd5b50356001600160a01b03166112fe565b3480156107d157600080fd5b506101fc600480360360608110156107e857600080fd5b6001600160a01b0382351691602081013591810190606081016040820135600160201b81111561081757600080fd5b82018360208201111561082957600080fd5b803590602001918460018302840111600160201b8311171561084a57600080fd5b5090925090506113a4565b34801561086157600080fd5b506103286004803603604081101561087857600080fd5b50803590602001356113b5565b34801561089157600080fd5b5061033f61140f565b60006108ad6108a7610df0565b8361141e565b90505b919050565b60006108c4338686868661146d565b95945050505050565b6000806108d98561089a565b905060006108e686610e9d565b60408051600280825260608083018452939450909160208301908036833701905050905073c02aaa39b223fe8d0a0e5c4f27ead9083c756cc28160008151811061092c57fe5b6001600160a01b039283166020918202929092010152600180548351921691839190811061095657fe5b60200260200101906001600160a01b031690816001600160a01b0316815250506060737a250d5630b4cf539739df2c5dacb4c659f2488d6001600160a01b031663fb3bdb4184868530426040518663ffffffff1660e01b81526004018085815260200180602001846001600160a01b03168152602001838152602001828103825285818151815260200191508051906020019060200280838360005b83811015610a0a5781810151838201526020016109f2565b50505050905001955050505050506000604051808303818588803b158015610a3157600080fd5b505af1158015610a45573d6000803e3d6000fd5b50505050506040513d6000823e601f3d908101601f191682016040526020811015610a6f57600080fd5b8101908080516040519392919084600160201b821115610a8e57600080fd5b908301906020820185811115610aa357600080fd5b82518660208202830111600160201b82111715610abf57600080fd5b82525081516020918201928201910280838360005b83811015610aec578181015183820152602001610ad4565b50505050905001604052505050905080600181518110610b0857fe5b60200260200101518414610b1857fe5b610b3a33338a84600181518110610b2b57fe5b60200260200101518b8b611519565b50478015610b7157604051339082156108fc029083906000818181858888f19350505050158015610b6f573d6000803e3d6000fd5b505b81600081518110610b7e57fe5b6020026020010151955050505050509392505050565b6000546001600160a01b03163314610bdf576040805162461bcd60e51b81526020600482015260096024820152683737ba1037bbb732b960b91b604482015290519081900360640190fd5b600054600160a01b900460ff16610bf557600080fd5b6000805460ff60a01b191681556040517f7805862f689e2f13df9f062ff482ad3ad112aca9e0847911ed832e158c525b339190a1565b6001546001600160a01b031681565b600054600160a01b900460ff1681565b60006108ad82600454611802565b6000546001600160a01b03163314610ca3576040805162461bcd60e51b81526020600482015260096024820152683737ba1037bbb732b960b91b604482015290519081900360640190fd5b610cb6610cae610df0565b6005546113b5565b6007919091556008805460ff1916911515919091179055565b6003546001600160a01b03163314610ce657600080fd5b60648160ff161115610cf757600080fd5b6003805460ff909216600160a01b0260ff60a01b19909216919091179055565b6000610d25338585856113a4565b949350505050565b6000546001600160a01b03163314610d78576040805162461bcd60e51b81526020600482015260096024820152683737ba1037bbb732b960b91b604482015290519081900360640190fd5b600054600160a01b900460ff1615610d8f57600080fd5b6000805460ff60a01b1916600160a01b1781556040517f6985a02210a168e66602d3235cb6db0e70f92b3ba4d376a33c0f3d9434bff6259190a1565b6000610d25338585856108b5565b600754151590565b6000546001600160a01b031681565b6000610dfb4261126e565b905090565b6002546000906001600160a01b0316331480610e2657506001546001600160a01b031633145b610e2f57600080fd5b6002546001600160a01b0316331415610e5457610e4e85858585611854565b50610e73565b6001546001600160a01b03163314156101cd57610e7385858585611a83565b506001949350505050565b6003546001600160a01b031681565b600354600160a01b900460ff1681565b600080610ea98361089a565b60408051600280825260608083018452939450909160208301908036833701905050905073c02aaa39b223fe8d0a0e5c4f27ead9083c756cc281600081518110610eef57fe5b6001600160a01b0392831660209182029290920101526001805483519216918391908110610f1957fe5b6001600160a01b03909216602092830291909101820152604080516307c0329d60e21b81526004810185815260248201928352845160448301528451737a250d5630b4cf539739df2c5dacb4c659f2488d94631f00ca749488948894939192606490910191858201910280838360005b83811015610fa1578181015183820152602001610f89565b50505050905001935050505060006040518083038186803b158015610fc557600080fd5b505afa158015610fd9573d6000803e3d6000fd5b505050506040513d6000823e601f3d908101601f19168201604052602081101561100257600080fd5b8101908080516040519392919084600160201b82111561102157600080fd5b90830190602082018581111561103657600080fd5b82518660208202830111600160201b8211171561105257600080fd5b82525081516020918201928201910280838360005b8381101561107f578181015183820152602001611067565b5050505090500160405250505060008151811061109857fe5b602002602001015192505050919050565b60006108ad6108a76110c660055485611aa690919063ffffffff16565b6110ce610df0565b90611acb565b6003546000906108ad90612710906110f7908590600160a01b900460ff16611aa6565b90611add565b6003546001600160a01b0316331461111457600080fd5b600380546001600160a01b0319166001600160a01b0392909216919091179055565b60055481565b6000546001600160a01b03163314611187576040805162461bcd60e51b81526020600482015260096024820152683737ba1037bbb732b960b91b604482015290519081900360640190fd5b6040805163a9059cbb60e01b81526001600160a01b038481166004830152602482018490529151859283169163a9059cbb9160448083019260209291908290030181600087803b1580156111da57600080fd5b505af11580156111ee573d6000803e3d6000fd5b505050506040513d602081101561120457600080fd5b5051611249576040805162461bcd60e51b815260206004820152600f60248201526e151c985b9cd9995c8819985a5b1959608a1b604482015290519081900360640190fd5b50505050565b60008061125b836110a9565b9050611266816110d4565b900392915050565b6000611278610dd9565b156112f557600061129460065484611acb90919063ffffffff16565b905060006112b060055460075484816112a957fe5b0490611aa6565b60085490915060ff16156112d4576004546112cb9082611af0565b925050506108b0565b60045481106112e8576000925050506108b0565b6004540391506108b09050565b506004546108b0565b6000546001600160a01b03163314611349576040805162461bcd60e51b81526020600482015260096024820152683737ba1037bbb732b960b91b604482015290519081900360640190fd5b600080546040516001600160a01b03808516939216917f8be0079c531659141344cd1fd0a4f28419497f9722a3daafe3b4186f6b6457e091a3600080546001600160a01b0319166001600160a01b0392909216919091179055565b60006108c433868660008787611519565b6000546001600160a01b03163314611400576040805162461bcd60e51b81526020600482015260096024820152683737ba1037bbb732b960b91b604482015290519081900360640190fd5b60049190915560055542600655565b6002546001600160a01b031681565b6000600182101561142e57600080fd5b600061144860055460018503611aa690919063ffffffff16565b8401905061146383600261145c8785611af0565b816112a957fe5b9150505b92915050565b600254604080516323b872dd60e01b81526001600160a01b038881166004830152306024830152604482018790529151600093929092169182916323b872dd91606480830192602092919082900301818887803b1580156114cd57600080fd5b505af11580156114e1573d6000803e3d6000fd5b505050506040513d60208110156114f757600080fd5b505161150257600080fd5b61150e86868686611854565b979650505050505050565b6000806115258661089a565b6001549091506001600160a01b0316858211156115d057604080516323b872dd60e01b81526001600160a01b038b8116600483015230602483015288850360448301529151918316916323b872dd916064808201926020929091908290030181600087803b15801561159657600080fd5b505af11580156115aa573d6000803e3d6000fd5b505050506040513d60208110156115c057600080fd5b50516115cb57600080fd5b611666565b8582101561166657806001600160a01b031663a9059cbb8a8489036040518363ffffffff1660e01b815260040180836001600160a01b0316815260200182815260200192505050602060405180830381600087803b15801561163157600080fd5b505af1158015611645573d6000803e3d6000fd5b505050506040513d602081101561165b57600080fd5b505161166657600080fd5b6002546040805163a9059cbb60e01b81526001600160a01b038b81166004830152602482018b905291519190921691829163a9059cbb916044808201926020929091908290030181600087803b1580156116bf57600080fd5b505af11580156116d3573d6000803e3d6000fd5b505050506040513d60208110156116e957600080fd5b50516116f457600080fd5b61171561170c6005548a611aa690919063ffffffff16565b60045490611af0565b600481905550600260009054906101000a90046001600160a01b03166001600160a01b03167f424641a08047715d4b70195e1d90818d302683d9f65f41910ca13f5a486d37cc8b88888c600160009054906101000a90046001600160a01b031689600060045460405180896001600160a01b0316815260200180602001878152602001866001600160a01b031681526020018581526020018481526020018381526020018281038252898982818152602001925080828437600083820152604051601f909101601f19169092018290039b50909950505050505050505050a2509098975050505050505050565b60008183101561181457506000611467565b600060018303848161182257fe5b600554919004915081028303600061183a828461141e565b905061184881870383611802565b83019350505050611467565b600080611860856110a9565b6001549091506001600160a01b0316600061187a836110d4565b9050801561190d576003546040805163a9059cbb60e01b81526001600160a01b0392831660048201526024810184905290519184169163a9059cbb916044808201926020929091908290030181600087803b1580156118d857600080fd5b505af11580156118ec573d6000803e3d6000fd5b505050506040513d602081101561190257600080fd5b505161190d57600080fd5b816001600160a01b031663a9059cbb898386036040518363ffffffff1660e01b815260040180836001600160a01b0316815260200182815260200192505050602060405180830381600087803b15801561196657600080fd5b505af115801561197a573d6000803e3d6000fd5b505050506040513d602081101561199057600080fd5b505161199b57600080fd5b6119bc6119b360055489611aa690919063ffffffff16565b60045490611acb565b6004819055600254600154604080516001600160a01b038d8116825260008d9003928201839052928316606082018190526080820189905260a0820187905260c0820186905260e0602083018181529083018c905293909416947f424641a08047715d4b70195e1d90818d302683d9f65f41910ca13f5a486d37cc948e948d948d9490938c928b92906101008201898980828437600083820152604051601f909101601f19169092018290039b50909950505050505050505050a250909695505050505050565b6000611a8e84610c4a565b9050611a9e858683878787611519565b505050505050565b600082611ab557506000611467565b5081810281838281611ac357fe5b041461146757fe5b600082821115611ad757fe5b50900390565b6000818381611ae857fe5b049392505050565b8181018281101561146757fefea264697066735822122069f1903e7a713e57a4454e587e5677b3e92d5635a55bbb99b2d93e67ae4ce15164736f6c63430007030033a264697066735822122018fa9515a3c86652fbd17cbb2e74065e66c0671db031a22347e5c29e74fe548b64736f6c63430007030033",
    "sourcePath": "/Volumes/SSD/Repositories/aktionariat/contracts/src/AutomatonFactory.sol",
    "compiler": {
        "name": "solc",
        "version": "0.7.3+commit.9bfce1f6"
    },
    "functionHashes": {
        "create(bytes32,address,address)": "7da97677"
    },
    "gasEstimates": {
        "creation": {
            "codeDepositCost": "1491600",
            "executionCost": "1561",
            "totalCost": "1493161"
        },
        "external": {
            "create(bytes32,address,address)": "infinite"
        }
    }
}