{
    "contractName": "Automaton",
    "abi": [
        {
            "inputs": [
                {
                    "internalType": "address",
                    "name": "baseCurrency",
                    "type": "address"
                },
                {
                    "internalType": "address",
                    "name": "shareToken",
                    "type": "address"
                }
            ],
            "stateMutability": "nonpayable",
            "type": "constructor"
        },
        {
            "anonymous": false,
            "inputs": [
                {
                    "indexed": true,
                    "internalType": "address",
                    "name": "previousOwner",
                    "type": "address"
                },
                {
                    "indexed": true,
                    "internalType": "address",
                    "name": "newOwner",
                    "type": "address"
                }
            ],
            "name": "OwnershipTransferred",
            "type": "event"
        },
        {
            "anonymous": false,
            "inputs": [],
            "name": "Pause",
            "type": "event"
        },
        {
            "anonymous": false,
            "inputs": [
                {
                    "indexed": false,
                    "internalType": "address",
                    "name": "who",
                    "type": "address"
                },
                {
                    "indexed": false,
                    "internalType": "int256",
                    "name": "amount",
                    "type": "int256"
                },
                {
                    "indexed": false,
                    "internalType": "address",
                    "name": "token",
                    "type": "address"
                },
                {
                    "indexed": false,
                    "internalType": "uint256",
                    "name": "totPrice",
                    "type": "uint256"
                },
                {
                    "indexed": false,
                    "internalType": "uint256",
                    "name": "fee",
                    "type": "uint256"
                },
                {
                    "indexed": false,
                    "internalType": "address",
                    "name": "base",
                    "type": "address"
                },
                {
                    "indexed": false,
                    "internalType": "uint256",
                    "name": "price",
                    "type": "uint256"
                }
            ],
            "name": "Transaction",
            "type": "event"
        },
        {
            "anonymous": false,
            "inputs": [],
            "name": "Unpause",
            "type": "event"
        },
        {
            "inputs": [],
            "name": "base",
            "outputs": [
                {
                    "internalType": "address",
                    "name": "",
                    "type": "address"
                }
            ],
            "stateMutability": "view",
            "type": "function"
        },
        {
            "inputs": [
                {
                    "internalType": "address",
                    "name": "recipient",
                    "type": "address"
                },
                {
                    "internalType": "uint256",
                    "name": "numberOfSharesToBuy",
                    "type": "uint256"
                }
            ],
            "name": "buy",
            "outputs": [
                {
                    "internalType": "uint256",
                    "name": "",
                    "type": "uint256"
                }
            ],
            "stateMutability": "nonpayable",
            "type": "function"
        },
        {
            "inputs": [
                {
                    "internalType": "uint256",
                    "name": "numberOfSharesToBuy",
                    "type": "uint256"
                }
            ],
            "name": "buy",
            "outputs": [
                {
                    "internalType": "uint256",
                    "name": "",
                    "type": "uint256"
                }
            ],
            "stateMutability": "nonpayable",
            "type": "function"
        },
        {
            "inputs": [
                {
                    "internalType": "uint256",
                    "name": "shares",
                    "type": "uint256"
                }
            ],
            "name": "buyWithEther",
            "outputs": [
                {
                    "internalType": "uint256",
                    "name": "",
                    "type": "uint256"
                }
            ],
            "stateMutability": "payable",
            "type": "function"
        },
        {
            "inputs": [],
            "name": "copyright",
            "outputs": [
                {
                    "internalType": "address",
                    "name": "",
                    "type": "address"
                }
            ],
            "stateMutability": "view",
            "type": "function"
        },
        {
            "inputs": [
                {
                    "internalType": "uint256",
                    "name": "shares",
                    "type": "uint256"
                }
            ],
            "name": "getBuyPrice",
            "outputs": [
                {
                    "internalType": "uint256",
                    "name": "",
                    "type": "uint256"
                }
            ],
            "stateMutability": "view",
            "type": "function"
        },
        {
            "inputs": [],
            "name": "getPrice",
            "outputs": [
                {
                    "internalType": "uint256",
                    "name": "",
                    "type": "uint256"
                }
            ],
            "stateMutability": "view",
            "type": "function"
        },
        {
            "inputs": [
                {
                    "internalType": "uint256",
                    "name": "timestamp",
                    "type": "uint256"
                }
            ],
            "name": "getPrice",
            "outputs": [
                {
                    "internalType": "uint256",
                    "name": "",
                    "type": "uint256"
                }
            ],
            "stateMutability": "view",
            "type": "function"
        },
        {
            "inputs": [
                {
                    "internalType": "uint256",
                    "name": "shares",
                    "type": "uint256"
                }
            ],
            "name": "getPriceInEther",
            "outputs": [
                {
                    "internalType": "uint256",
                    "name": "",
                    "type": "uint256"
                }
            ],
            "stateMutability": "view",
            "type": "function"
        },
        {
            "inputs": [
                {
                    "internalType": "uint256",
                    "name": "totalPrice",
                    "type": "uint256"
                }
            ],
            "name": "getSaleFee",
            "outputs": [
                {
                    "internalType": "uint256",
                    "name": "",
                    "type": "uint256"
                }
            ],
            "stateMutability": "view",
            "type": "function"
        },
        {
            "inputs": [
                {
                    "internalType": "uint256",
                    "name": "shares",
                    "type": "uint256"
                }
            ],
            "name": "getSaleProceeds",
            "outputs": [
                {
                    "internalType": "uint256",
                    "name": "",
                    "type": "uint256"
                }
            ],
            "stateMutability": "view",
            "type": "function"
        },
        {
            "inputs": [
                {
                    "internalType": "uint256",
                    "name": "shares",
                    "type": "uint256"
                }
            ],
            "name": "getSellPrice",
            "outputs": [
                {
                    "internalType": "uint256",
                    "name": "",
                    "type": "uint256"
                }
            ],
            "stateMutability": "view",
            "type": "function"
        },
        {
            "inputs": [
                {
                    "internalType": "uint256",
                    "name": "money",
                    "type": "uint256"
                }
            ],
            "name": "getShares",
            "outputs": [
                {
                    "internalType": "uint256",
                    "name": "",
                    "type": "uint256"
                }
            ],
            "stateMutability": "view",
            "type": "function"
        },
        {
            "inputs": [],
            "name": "hasDrift",
            "outputs": [
                {
                    "internalType": "bool",
                    "name": "",
                    "type": "bool"
                }
            ],
            "stateMutability": "view",
            "type": "function"
        },
        {
            "inputs": [],
            "name": "increment",
            "outputs": [
                {
                    "internalType": "uint256",
                    "name": "",
                    "type": "uint256"
                }
            ],
            "stateMutability": "view",
            "type": "function"
        },
        {
            "inputs": [],
            "name": "licenseFeeBps",
            "outputs": [
                {
                    "internalType": "uint8",
                    "name": "",
                    "type": "uint8"
                }
            ],
            "stateMutability": "view",
            "type": "function"
        },
        {
            "inputs": [
                {
                    "internalType": "address",
                    "name": "from",
                    "type": "address"
                },
                {
                    "internalType": "uint256",
                    "name": "amount",
                    "type": "uint256"
                },
                {
                    "internalType": "bytes",
                    "name": "",
                    "type": "bytes"
                }
            ],
            "name": "onTokenTransfer",
            "outputs": [
                {
                    "internalType": "bool",
                    "name": "success",
                    "type": "bool"
                }
            ],
            "stateMutability": "nonpayable",
            "type": "function"
        },
        {
            "inputs": [],
            "name": "owner",
            "outputs": [
                {
                    "internalType": "address",
                    "name": "",
                    "type": "address"
                }
            ],
            "stateMutability": "view",
            "type": "function"
        },
        {
            "inputs": [],
            "name": "pause",
            "outputs": [],
            "stateMutability": "nonpayable",
            "type": "function"
        },
        {
            "inputs": [],
            "name": "paused",
            "outputs": [
                {
                    "internalType": "bool",
                    "name": "",
                    "type": "bool"
                }
            ],
            "stateMutability": "view",
            "type": "function"
        },
        {
            "inputs": [],
            "name": "renounceOwnership",
            "outputs": [],
            "stateMutability": "nonpayable",
            "type": "function"
        },
        {
            "inputs": [
                {
                    "internalType": "address",
                    "name": "recipient",
                    "type": "address"
                },
                {
                    "internalType": "uint256",
                    "name": "tokens",
                    "type": "uint256"
                }
            ],
            "name": "sell",
            "outputs": [
                {
                    "internalType": "uint256",
                    "name": "",
                    "type": "uint256"
                }
            ],
            "stateMutability": "nonpayable",
            "type": "function"
        },
        {
            "inputs": [
                {
                    "internalType": "uint256",
                    "name": "tokens",
                    "type": "uint256"
                }
            ],
            "name": "sell",
            "outputs": [
                {
                    "internalType": "uint256",
                    "name": "",
                    "type": "uint256"
                }
            ],
            "stateMutability": "nonpayable",
            "type": "function"
        },
        {
            "inputs": [
                {
                    "internalType": "address",
                    "name": "newOwner",
                    "type": "address"
                }
            ],
            "name": "setCopyright",
            "outputs": [],
            "stateMutability": "nonpayable",
            "type": "function"
        },
        {
            "inputs": [
                {
                    "internalType": "uint256",
                    "name": "secondsPerStep",
                    "type": "uint256"
                },
                {
                    "internalType": "bool",
                    "name": "upwards",
                    "type": "bool"
                }
            ],
            "name": "setDrift",
            "outputs": [],
            "stateMutability": "nonpayable",
            "type": "function"
        },
        {
            "inputs": [
                {
                    "internalType": "uint8",
                    "name": "bps",
                    "type": "uint8"
                }
            ],
            "name": "setLicenseFee",
            "outputs": [],
            "stateMutability": "nonpayable",
            "type": "function"
        },
        {
            "inputs": [
                {
                    "internalType": "uint256",
                    "name": "newPrice",
                    "type": "uint256"
                },
                {
                    "internalType": "uint256",
                    "name": "newIncrement",
                    "type": "uint256"
                }
            ],
            "name": "setPrice",
            "outputs": [],
            "stateMutability": "nonpayable",
            "type": "function"
        },
        {
            "inputs": [],
            "name": "token",
            "outputs": [
                {
                    "internalType": "address",
                    "name": "",
                    "type": "address"
                }
            ],
            "stateMutability": "view",
            "type": "function"
        },
        {
            "inputs": [
                {
                    "internalType": "address",
                    "name": "newOwner",
                    "type": "address"
                }
            ],
            "name": "transferOwnership",
            "outputs": [],
            "stateMutability": "nonpayable",
            "type": "function"
        },
        {
            "inputs": [],
            "name": "unpause",
            "outputs": [],
            "stateMutability": "nonpayable",
            "type": "function"
        },
        {
            "inputs": [
                {
                    "internalType": "address",
                    "name": "ercAddress",
                    "type": "address"
                },
                {
                    "internalType": "address",
                    "name": "to",
                    "type": "address"
                },
                {
                    "internalType": "uint256",
                    "name": "amount",
                    "type": "uint256"
                }
            ],
            "name": "withdraw",
            "outputs": [],
            "stateMutability": "nonpayable",
            "type": "function"
        }
    ],
    "bytecode": "60806040526000805460ff60a01b1916905534801561001d57600080fd5b50604051611ad3380380611ad38339818101604052604081101561004057600080fd5b508051602090910151600080546001600160a01b031916339081178255604051909182917f8be0079c531659141344cd1fd0a4f28419497f9722a3daafe3b4186f6b6457e0908290a350600180546001600160a01b039384166001600160a01b03199182161790915560028054929093169181169190911790915560038054909116331790554260065560006007556119f5806100de6000396000f3fe6080604052600436106101d85760003560e01c8063a63ae9c711610102578063d96a094a11610095578063e757223011610064578063e757223014610664578063f2fde38b1461068e578063f7d97577146106c1578063fc0c546a146106f1576101d8565b8063d96a094a146105a3578063d9caed12146105cd578063e21ae43214610610578063e4849b321461063a576101d8565b8063ba8f1b69116100d1578063ba8f1b69146104f8578063c3b929f714610522578063cce7ec1314610555578063d09de08a1461058e576101d8565b8063a63ae9c714610464578063a6c677f614610479578063ae539d80146104a4578063ba730e53146104ce576101d8565b8063715018a61161017a5780638a07d3d0116101495780638a07d3d0146103935780638da5cb5b146103a857806398d5fdca146103bd578063a4c0ed36146103d2576101d8565b8063715018a61461030a578063756d095e1461031f57806380aa0df7146103515780638456cb591461037e576101d8565b8063550b9c11116101b6578063550b9c11146102615780635c975abb1461027e5780636c197ff5146102a75780636f7267b7146102e0576101d8565b806308d4db14146101dd5780633f4ba83a146102195780635001f3b514610230575b600080fd5b3480156101e957600080fd5b506102076004803603602081101561020057600080fd5b5035610706565b60408051918252519081900360200190f35b34801561022557600080fd5b5061022e610721565b005b34801561023c57600080fd5b506102456107ba565b604080516001600160a01b039092168252519081900360200190f35b6102076004803603602081101561027757600080fd5b50356107c9565b34801561028a57600080fd5b50610293610a8e565b604080519115158252519081900360200190f35b3480156102b357600080fd5b50610207600480360360408110156102ca57600080fd5b506001600160a01b038135169060200135610a9e565b3480156102ec57600080fd5b506102076004803603602081101561030357600080fd5b5035610ab4565b34801561031657600080fd5b5061022e610ac2565b34801561032b57600080fd5b5061022e6004803603604081101561034257600080fd5b50803590602001351515610b59565b34801561035d57600080fd5b5061022e6004803603602081101561037457600080fd5b503560ff16610bd2565b34801561038a57600080fd5b5061022e610c19565b34801561039f57600080fd5b50610293610cb9565b3480156103b457600080fd5b50610245610cc1565b3480156103c957600080fd5b50610207610cd0565b3480156103de57600080fd5b50610293600480360360608110156103f557600080fd5b6001600160a01b038235169160208101359181019060608101604082013564010000000081111561042557600080fd5b82018360208201111561043757600080fd5b8035906020019184600183028401116401000000008311171561045957600080fd5b509092509050610ce0565b34801561047057600080fd5b50610245610d5a565b34801561048557600080fd5b5061048e610d69565b6040805160ff9092168252519081900360200190f35b3480156104b057600080fd5b50610207600480360360208110156104c757600080fd5b5035610d79565b3480156104da57600080fd5b50610207600480360360208110156104f157600080fd5b5035610f87565b34801561050457600080fd5b506102076004803603602081101561051b57600080fd5b5035610fb2565b34801561052e57600080fd5b5061022e6004803603602081101561054557600080fd5b50356001600160a01b0316610fdb565b34801561056157600080fd5b506102076004803603604081101561057857600080fd5b506001600160a01b038135169060200135611014565b34801561059a57600080fd5b50610207611023565b3480156105af57600080fd5b50610207600480360360208110156105c657600080fd5b5035611029565b3480156105d957600080fd5b5061022e600480360360608110156105f057600080fd5b506001600160a01b03813581169160208101359091169060400135611035565b34801561061c57600080fd5b506102076004803603602081101561063357600080fd5b503561114a565b34801561064657600080fd5b506102076004803603602081101561065d57600080fd5b5035611169565b34801561067057600080fd5b506102076004803603602081101561068757600080fd5b5035611175565b34801561069a57600080fd5b5061022e600480360360208110156106b157600080fd5b50356001600160a01b0316611205565b3480156106cd57600080fd5b5061022e600480360360408110156106e457600080fd5b50803590602001356112f2565b3480156106fd57600080fd5b5061024561134e565b6000610719610713610cd0565b8361135d565b90505b919050565b6000546001600160a01b0316331461076e576040805162461bcd60e51b815260206004820181905260248201526000805160206119a0833981519152604482015290519081900360640190fd5b600054600160a01b900460ff1661078457600080fd5b6000805460ff60a01b191681556040517f7805862f689e2f13df9f062ff482ad3ad112aca9e0847911ed832e158c525b339190a1565b6001546001600160a01b031681565b6000806107d583610706565b905060006107e284610d79565b60408051600280825260608083018452939450909160208301908036833701905050905073c02aaa39b223fe8d0a0e5c4f27ead9083c756cc28160008151811061082857fe5b6001600160a01b039283166020918202929092010152600180548351921691839190811061085257fe5b60200260200101906001600160a01b031690816001600160a01b0316815250506060737a250d5630b4cf539739df2c5dacb4c659f2488d6001600160a01b031663fb3bdb4184868530426040518663ffffffff1660e01b81526004018085815260200180602001846001600160a01b03168152602001838152602001828103825285818151815260200191508051906020019060200280838360005b838110156109065781810151838201526020016108ee565b50505050905001955050505050506000604051808303818588803b15801561092d57600080fd5b505af1158015610941573d6000803e3d6000fd5b50505050506040513d6000823e601f3d908101601f19168201604052602081101561096b57600080fd5b810190808051604051939291908464010000000082111561098b57600080fd5b9083019060208201858111156109a057600080fd5b82518660208202830111640100000000821117156109bd57600080fd5b82525081516020918201928201910280838360005b838110156109ea5781810151838201526020016109d2565b50505050905001604052505050905080600181518110610a0657fe5b60200260200101518414610a1657fe5b610a3633338884600181518110610a2957fe5b60200260200101516113aa565b50478015610a6d57604051339082156108fc029083906000818181858888f19350505050158015610a6b573d6000803e3d6000fd5b505b81600081518110610a7a57fe5b602002602001015195505050505050919050565b600054600160a01b900460ff1681565b6000610aab338484611626565b90505b92915050565b6000610719826004546116ce565b6000546001600160a01b03163314610b0f576040805162461bcd60e51b815260206004820181905260248201526000805160206119a0833981519152604482015290519081900360640190fd5b600080546040516001600160a01b03909116907f8be0079c531659141344cd1fd0a4f28419497f9722a3daafe3b4186f6b6457e0908390a3600080546001600160a01b0319169055565b6000546001600160a01b03163314610ba6576040805162461bcd60e51b815260206004820181905260248201526000805160206119a0833981519152604482015290519081900360640190fd5b610bb9610bb1610cd0565b6005546112f2565b6007919091556008805460ff1916911515919091179055565b6003546001600160a01b03163314610be957600080fd5b60648160ff1610610bf957600080fd5b6003805460ff909216600160a01b0260ff60a01b19909216919091179055565b6000546001600160a01b03163314610c66576040805162461bcd60e51b815260206004820181905260248201526000805160206119a0833981519152604482015290519081900360640190fd5b600054600160a01b900460ff1615610c7d57600080fd5b6000805460ff60a01b1916600160a01b1781556040517f6985a02210a168e66602d3235cb6db0e70f92b3ba4d376a33c0f3d9434bff6259190a1565b600754151590565b6000546001600160a01b031690565b6000610cdb42611175565b905090565b6002546000906001600160a01b0316331480610d0657506001546001600160a01b031633145b610d0f57600080fd5b6002546001600160a01b0316331415610d3257610d2c8585611720565b50610d4f565b6001546001600160a01b03163314156101d857610d4f8585611909565b506001949350505050565b6003546001600160a01b031681565b600354600160a01b900460ff1681565b600080610d8583610706565b60408051600280825260608083018452939450909160208301908036833701905050905073c02aaa39b223fe8d0a0e5c4f27ead9083c756cc281600081518110610dcb57fe5b6001600160a01b0392831660209182029290920101526001805483519216918391908110610df557fe5b6001600160a01b03909216602092830291909101820152604080516307c0329d60e21b81526004810185815260248201928352845160448301528451737a250d5630b4cf539739df2c5dacb4c659f2488d94631f00ca749488948894939192606490910191858201910280838360005b83811015610e7d578181015183820152602001610e65565b50505050905001935050505060006040518083038186803b158015610ea157600080fd5b505afa158015610eb5573d6000803e3d6000fd5b505050506040513d6000823e601f3d908101601f191682016040526020811015610ede57600080fd5b8101908080516040519392919084640100000000821115610efe57600080fd5b908301906020820185811115610f1357600080fd5b8251866020820283011164010000000082111715610f3057600080fd5b82525081516020918201928201910280838360005b83811015610f5d578181015183820152602001610f45565b50505050905001604052505050600081518110610f7657fe5b602002602001015192505050919050565b6000610719610713610fa46005548561192290919063ffffffff16565b610fac610cd0565b90611947565b6003546000906107199061271090610fd5908590600160a01b900460ff16611922565b90611959565b6003546001600160a01b03163314610ff257600080fd5b600380546001600160a01b0319166001600160a01b0392909216919091179055565b6000610aab33848460006113aa565b60055481565b60006107193383611014565b6000546001600160a01b03163314611082576040805162461bcd60e51b815260206004820181905260248201526000805160206119a0833981519152604482015290519081900360640190fd5b6040805163a9059cbb60e01b81526001600160a01b038481166004830152602482018490529151859283169163a9059cbb9160448083019260209291908290030181600087803b1580156110d557600080fd5b505af11580156110e9573d6000803e3d6000fd5b505050506040513d60208110156110ff57600080fd5b5051611144576040805162461bcd60e51b815260206004820152600f60248201526e151c985b9cd9995c8819985a5b1959608a1b604482015290519081900360640190fd5b50505050565b60008061115683610f87565b905061116181610fb2565b900392915050565b60006107193383610a9e565b600061117f610cb9565b156111fc57600061119b6006548461194790919063ffffffff16565b905060006111b760055460075484816111b057fe5b0490611922565b60085490915060ff16156111db576004546111d2908261196c565b9250505061071c565b60045481106111ef5760009250505061071c565b60045403915061071c9050565b5060045461071c565b6000546001600160a01b03163314611252576040805162461bcd60e51b815260206004820181905260248201526000805160206119a0833981519152604482015290519081900360640190fd5b6001600160a01b0381166112975760405162461bcd60e51b815260040180806020018281038252602681526020018061197a6026913960400191505060405180910390fd5b600080546040516001600160a01b03808516939216917f8be0079c531659141344cd1fd0a4f28419497f9722a3daafe3b4186f6b6457e091a3600080546001600160a01b0319166001600160a01b0392909216919091179055565b6000546001600160a01b0316331461133f576040805162461bcd60e51b815260206004820181905260248201526000805160206119a0833981519152604482015290519081900360640190fd5b60049190915560055542600655565b6002546001600160a01b031681565b6000600182101561136d57600080fd5b60006113876005546001850361192290919063ffffffff16565b840190506113a283600261139b878561196c565b816111b057fe5b949350505050565b6000806113b684610706565b6001549091506001600160a01b03168382111561146157604080516323b872dd60e01b81526001600160a01b03898116600483015230602483015286850360448301529151918316916323b872dd916064808201926020929091908290030181600087803b15801561142757600080fd5b505af115801561143b573d6000803e3d6000fd5b505050506040513d602081101561145157600080fd5b505161145c57600080fd5b6114f7565b838210156114f757806001600160a01b031663a9059cbb888487036040518363ffffffff1660e01b815260040180836001600160a01b0316815260200182815260200192505050602060405180830381600087803b1580156114c257600080fd5b505af11580156114d6573d6000803e3d6000fd5b505050506040513d60208110156114ec57600080fd5b50516114f757600080fd5b6002546040805163a9059cbb60e01b81526001600160a01b0389811660048301526024820189905291519190921691829163a9059cbb916044808201926020929091908290030181600087803b15801561155057600080fd5b505af1158015611564573d6000803e3d6000fd5b505050506040513d602081101561157a57600080fd5b505161158557600080fd5b6115a661159d6005548861192290919063ffffffff16565b6004549061196c565b6004819055600254600154604080516001600160a01b03808e168252602082018c90529384168183015260608101889052600060808201529190921660a082015260c0810192909252517f1d914d293d114e6a0a5b5ab89613368175ca7aec4a5f3995b94a6ce3cbdac2419181900360e00190a150909695505050505050565b600254604080516323b872dd60e01b81526001600160a01b038681166004830152306024830152604482018590529151600093929092169182916323b872dd91606480830192602092919082900301818887803b15801561168657600080fd5b505af115801561169a573d6000803e3d6000fd5b505050506040513d60208110156116b057600080fd5b50516116bb57600080fd5b6116c58484611720565b95945050505050565b6000818310156116e057506000610aae565b60006001830384816116ee57fe5b6005549190049150810283036000611706828461135d565b9050611714818703836116ce565b83019350505050610aae565b60008061172c83610f87565b6001549091506001600160a01b0316600061174683610fb2565b905080156117d9576003546040805163a9059cbb60e01b81526001600160a01b0392831660048201526024810184905290519184169163a9059cbb916044808201926020929091908290030181600087803b1580156117a457600080fd5b505af11580156117b8573d6000803e3d6000fd5b505050506040513d60208110156117ce57600080fd5b50516117d957600080fd5b816001600160a01b031663a9059cbb878386036040518363ffffffff1660e01b815260040180836001600160a01b0316815260200182815260200192505050602060405180830381600087803b15801561183257600080fd5b505af1158015611846573d6000803e3d6000fd5b505050506040513d602081101561185c57600080fd5b505161186757600080fd5b61188861187f6005548761192290919063ffffffff16565b60045490611947565b6004819055600254600154604080516001600160a01b03808c16825260008b900360208301529384168183015260608101889052608081018690529190921660a082015260c0810192909252517f1d914d293d114e6a0a5b5ab89613368175ca7aec4a5f3995b94a6ce3cbdac2419181900360e00190a15090949350505050565b600061191482610ab4565b9050611144838483856113aa565b60008261193157506000610aae565b508181028183828161193f57fe5b0414610aae57fe5b60008282111561195357fe5b50900390565b600081838161196457fe5b049392505050565b81810182811015610aae57fefe4f776e61626c653a206e6577206f776e657220697320746865207a65726f20616464726573734f776e61626c653a2063616c6c6572206973206e6f7420746865206f776e6572a2646970667358221220bd1d81b2928bf3fd0acda88c6af6adf5731938b1b4777aee25332185204ba86a64736f6c63430007000033",
    "sourcePath": "c:/Users/luziu/Documents/aktionariat/contracts/src/Automaton.sol",
    "compiler": {
        "name": "solc",
        "version": "0.7.0+commit.9e61f92b"
    },
    "functionHashes": {
        "base()": "5001f3b5",
        "buy(address,uint256)": "cce7ec13",
        "buy(uint256)": "d96a094a",
        "buyWithEther(uint256)": "550b9c11",
        "copyright()": "a63ae9c7",
        "getBuyPrice(uint256)": "08d4db14",
        "getPrice()": "98d5fdca",
        "getPrice(uint256)": "e7572230",
        "getPriceInEther(uint256)": "ae539d80",
        "getSaleFee(uint256)": "ba8f1b69",
        "getSaleProceeds(uint256)": "e21ae432",
        "getSellPrice(uint256)": "ba730e53",
        "getShares(uint256)": "6f7267b7",
        "hasDrift()": "8a07d3d0",
        "increment()": "d09de08a",
        "licenseFeeBps()": "a6c677f6",
        "onTokenTransfer(address,uint256,bytes)": "a4c0ed36",
        "owner()": "8da5cb5b",
        "pause()": "8456cb59",
        "paused()": "5c975abb",
        "renounceOwnership()": "715018a6",
        "sell(address,uint256)": "6c197ff5",
        "sell(uint256)": "e4849b32",
        "setCopyright(address)": "c3b929f7",
        "setDrift(uint256,bool)": "756d095e",
        "setLicenseFee(uint8)": "80aa0df7",
        "setPrice(uint256,uint256)": "f7d97577",
        "token()": "fc0c546a",
        "transferOwnership(address)": "f2fde38b",
        "unpause()": "3f4ba83a",
        "withdraw(address,address,uint256)": "d9caed12"
    },
    "gasEstimates": {
        "creation": {
            "codeDepositCost": "1329000",
            "executionCost": "infinite",
            "totalCost": "infinite"
        },
        "external": {
            "base()": "1128",
            "buy(address,uint256)": "infinite",
            "buy(uint256)": "infinite",
            "buyWithEther(uint256)": "infinite",
            "copyright()": "1083",
            "getBuyPrice(uint256)": "infinite",
            "getPrice()": "infinite",
            "getPrice(uint256)": "infinite",
            "getPriceInEther(uint256)": "infinite",
            "getSaleFee(uint256)": "1328",
            "getSaleProceeds(uint256)": "infinite",
            "getSellPrice(uint256)": "infinite",
            "getShares(uint256)": "infinite",
            "hasDrift()": "1055",
            "increment()": "1109",
            "licenseFeeBps()": "1098",
            "onTokenTransfer(address,uint256,bytes)": "infinite",
            "owner()": "1104",
            "pause()": "infinite",
            "paused()": "1095",
            "renounceOwnership()": "infinite",
            "sell(address,uint256)": "infinite",
            "sell(uint256)": "infinite",
            "setCopyright(address)": "21980",
            "setDrift(uint256,bool)": "infinite",
            "setLicenseFee(uint8)": "22019",
            "setPrice(uint256,uint256)": "infinite",
            "token()": "1147",
            "transferOwnership(address)": "infinite",
            "unpause()": "infinite",
            "withdraw(address,address,uint256)": "infinite"
        },
        "internal": {
            "_buy(address,address,uint256,uint256)": "infinite",
            "_notifyMoneyReceived(address,uint256)": "infinite",
            "_notifyTokensReceived(address,uint256)": "infinite",
            "_sell(address,address,uint256)": "infinite",
            "getPrice(uint256,uint256)": "infinite",
            "getShares(uint256,uint256)": "infinite"
        }
    }
}