{
    "contractName": "Brokerbot",
    "abi": [
        {
            "inputs": [
                {
                    "internalType": "address",
                    "name": "shareToken",
                    "type": "address"
                },
                {
                    "internalType": "uint256",
                    "name": "price_",
                    "type": "uint256"
                },
                {
                    "internalType": "uint256",
                    "name": "increment_",
                    "type": "uint256"
                },
                {
                    "internalType": "address",
                    "name": "baseCurrency",
                    "type": "address"
                },
                {
                    "internalType": "address",
                    "name": "owner",
                    "type": "address"
                }
            ],
            "stateMutability": "nonpayable",
            "type": "constructor"
        },
        {
            "anonymous": false,
            "inputs": [
                {
                    "indexed": true,
                    "internalType": "address",
                    "name": "previousOwner",
                    "type": "address"
                },
                {
                    "indexed": true,
                    "internalType": "address",
                    "name": "newOwner",
                    "type": "address"
                }
            ],
            "name": "OwnershipTransferred",
            "type": "event"
        },
        {
            "anonymous": false,
            "inputs": [
                {
                    "indexed": true,
                    "internalType": "address",
                    "name": "token",
                    "type": "address"
                },
                {
                    "indexed": false,
                    "internalType": "address",
                    "name": "who",
                    "type": "address"
                },
                {
                    "indexed": false,
                    "internalType": "bytes",
                    "name": "ref",
                    "type": "bytes"
                },
                {
                    "indexed": false,
                    "internalType": "int256",
                    "name": "amount",
                    "type": "int256"
                },
                {
                    "indexed": false,
                    "internalType": "address",
                    "name": "base",
                    "type": "address"
                },
                {
                    "indexed": false,
                    "internalType": "uint256",
                    "name": "totPrice",
                    "type": "uint256"
                },
                {
                    "indexed": false,
                    "internalType": "uint256",
                    "name": "fee",
                    "type": "uint256"
                },
                {
                    "indexed": false,
                    "internalType": "uint256",
                    "name": "newprice",
                    "type": "uint256"
                }
            ],
            "name": "Trade",
            "type": "event"
        },
        {
            "inputs": [
                {
                    "internalType": "address",
                    "name": "erc20",
                    "type": "address"
                },
                {
                    "internalType": "address",
                    "name": "who",
                    "type": "address"
                },
                {
                    "internalType": "uint256",
                    "name": "amount",
                    "type": "uint256"
                }
            ],
            "name": "approve",
            "outputs": [],
            "stateMutability": "nonpayable",
            "type": "function"
        },
        {
            "inputs": [],
            "name": "base",
            "outputs": [
                {
                    "internalType": "address",
                    "name": "",
                    "type": "address"
                }
            ],
            "stateMutability": "view",
            "type": "function"
        },
        {
            "inputs": [],
            "name": "buyingEnabled",
            "outputs": [
                {
                    "internalType": "bool",
                    "name": "",
                    "type": "bool"
                }
            ],
            "stateMutability": "view",
            "type": "function"
        },
        {
            "inputs": [],
            "name": "copyright",
            "outputs": [
                {
                    "internalType": "address",
                    "name": "",
                    "type": "address"
                }
            ],
            "stateMutability": "view",
            "type": "function"
        },
        {
            "inputs": [],
            "name": "driftIncrement",
            "outputs": [
                {
                    "internalType": "int256",
                    "name": "",
                    "type": "int256"
                }
            ],
            "stateMutability": "view",
            "type": "function"
        },
        {
            "inputs": [],
            "name": "driftStart",
            "outputs": [
                {
                    "internalType": "uint256",
                    "name": "",
                    "type": "uint256"
                }
            ],
            "stateMutability": "view",
            "type": "function"
        },
        {
            "inputs": [
                {
                    "internalType": "uint256",
                    "name": "shares",
                    "type": "uint256"
                }
            ],
            "name": "getBuyPrice",
            "outputs": [
                {
                    "internalType": "uint256",
                    "name": "",
                    "type": "uint256"
                }
            ],
            "stateMutability": "view",
            "type": "function"
        },
        {
            "inputs": [
                {
                    "internalType": "uint256",
                    "name": "totPrice",
                    "type": "uint256"
                }
            ],
            "name": "getLicenseFee",
            "outputs": [
                {
                    "internalType": "uint256",
                    "name": "",
                    "type": "uint256"
                }
            ],
            "stateMutability": "pure",
            "type": "function"
        },
        {
            "inputs": [],
            "name": "getPrice",
            "outputs": [
                {
                    "internalType": "uint256",
                    "name": "",
                    "type": "uint256"
                }
            ],
            "stateMutability": "view",
            "type": "function"
        },
        {
            "inputs": [
                {
                    "internalType": "uint256",
                    "name": "timestamp",
                    "type": "uint256"
                }
            ],
            "name": "getPriceAtTime",
            "outputs": [
                {
                    "internalType": "uint256",
                    "name": "",
                    "type": "uint256"
                }
            ],
            "stateMutability": "view",
            "type": "function"
        },
        {
            "inputs": [
                {
                    "internalType": "uint256",
                    "name": "shares",
                    "type": "uint256"
                }
            ],
            "name": "getSellPrice",
            "outputs": [
                {
                    "internalType": "uint256",
                    "name": "",
                    "type": "uint256"
                }
            ],
            "stateMutability": "view",
            "type": "function"
        },
        {
            "inputs": [
                {
                    "internalType": "uint256",
                    "name": "money",
                    "type": "uint256"
                }
            ],
            "name": "getShares",
            "outputs": [
                {
                    "internalType": "uint256",
                    "name": "",
                    "type": "uint256"
                }
            ],
            "stateMutability": "view",
            "type": "function"
        },
        {
            "inputs": [],
            "name": "hasDrift",
            "outputs": [
                {
                    "internalType": "bool",
                    "name": "",
                    "type": "bool"
                }
            ],
            "stateMutability": "view",
            "type": "function"
        },
        {
            "inputs": [],
            "name": "increment",
            "outputs": [
                {
                    "internalType": "uint256",
                    "name": "",
                    "type": "uint256"
                }
            ],
            "stateMutability": "view",
            "type": "function"
        },
        {
            "inputs": [
                {
                    "internalType": "address",
                    "name": "buyer",
                    "type": "address"
                },
                {
                    "internalType": "uint256",
                    "name": "shares",
                    "type": "uint256"
                },
                {
                    "internalType": "bytes",
                    "name": "ref",
                    "type": "bytes"
                }
            ],
            "name": "notifyTrade",
            "outputs": [],
            "stateMutability": "nonpayable",
            "type": "function"
        },
        {
            "inputs": [
                {
                    "internalType": "address",
                    "name": "buyer",
                    "type": "address"
                },
                {
                    "internalType": "uint256",
                    "name": "shares",
                    "type": "uint256"
                },
                {
                    "internalType": "bytes",
                    "name": "ref",
                    "type": "bytes"
                }
            ],
            "name": "notifyTradeAndTransfer",
            "outputs": [],
            "stateMutability": "nonpayable",
            "type": "function"
        },
        {
            "inputs": [
                {
                    "internalType": "address[]",
                    "name": "buyers",
                    "type": "address[]"
                },
                {
                    "internalType": "uint256[]",
                    "name": "shares",
                    "type": "uint256[]"
                },
                {
                    "internalType": "bytes[]",
                    "name": "ref",
                    "type": "bytes[]"
                }
            ],
            "name": "notifyTrades",
            "outputs": [],
            "stateMutability": "nonpayable",
            "type": "function"
        },
        {
            "inputs": [
                {
                    "internalType": "address[]",
                    "name": "buyers",
                    "type": "address[]"
                },
                {
                    "internalType": "uint256[]",
                    "name": "shares",
                    "type": "uint256[]"
                },
                {
                    "internalType": "bytes[]",
                    "name": "ref",
                    "type": "bytes[]"
                }
            ],
            "name": "notifyTradesAndTransfer",
            "outputs": [],
            "stateMutability": "nonpayable",
            "type": "function"
        },
        {
            "inputs": [
                {
                    "internalType": "address",
                    "name": "from",
                    "type": "address"
                },
                {
                    "internalType": "uint256",
                    "name": "amount",
                    "type": "uint256"
                },
                {
                    "internalType": "bytes",
                    "name": "ref",
                    "type": "bytes"
                }
            ],
            "name": "onTokenTransfer",
            "outputs": [
                {
                    "internalType": "bool",
                    "name": "",
                    "type": "bool"
                }
            ],
            "stateMutability": "nonpayable",
            "type": "function"
        },
        {
            "inputs": [
                {
                    "internalType": "address",
                    "name": "token_",
                    "type": "address"
                },
                {
                    "internalType": "address",
                    "name": "from",
                    "type": "address"
                },
                {
                    "internalType": "uint256",
                    "name": "amount",
                    "type": "uint256"
                },
                {
                    "internalType": "bytes",
                    "name": "ref",
                    "type": "bytes"
                }
            ],
            "name": "onTokenTransfer",
            "outputs": [],
            "stateMutability": "nonpayable",
            "type": "function"
        },
        {
            "inputs": [],
            "name": "owner",
            "outputs": [
                {
                    "internalType": "address",
                    "name": "",
                    "type": "address"
                }
            ],
            "stateMutability": "view",
            "type": "function"
        },
        {
            "inputs": [],
            "name": "paymenthub",
            "outputs": [
                {
                    "internalType": "address",
                    "name": "",
                    "type": "address"
                }
            ],
            "stateMutability": "view",
            "type": "function"
        },
        {
            "inputs": [
                {
                    "internalType": "address",
                    "name": "token_",
                    "type": "address"
                },
                {
                    "internalType": "address",
                    "name": "from",
                    "type": "address"
                },
                {
                    "internalType": "uint256",
                    "name": "amount",
                    "type": "uint256"
                },
                {
                    "internalType": "bytes",
                    "name": "ref",
                    "type": "bytes"
                }
            ],
            "name": "processIncoming",
            "outputs": [
                {
                    "internalType": "uint256",
                    "name": "",
                    "type": "uint256"
                }
            ],
            "stateMutability": "payable",
            "type": "function"
        },
        {
            "inputs": [],
            "name": "sellingEnabled",
            "outputs": [
                {
                    "internalType": "bool",
                    "name": "",
                    "type": "bool"
                }
            ],
            "stateMutability": "view",
            "type": "function"
        },
        {
            "inputs": [
                {
                    "internalType": "uint256",
                    "name": "secondsPerStep",
                    "type": "uint256"
                },
                {
                    "internalType": "int256",
                    "name": "newDriftIncrement",
                    "type": "int256"
                }
            ],
            "name": "setDrift",
            "outputs": [],
            "stateMutability": "nonpayable",
            "type": "function"
        },
        {
            "inputs": [
                {
                    "internalType": "bool",
                    "name": "newBuyingEnabled",
                    "type": "bool"
                },
                {
                    "internalType": "bool",
                    "name": "newSellingEnabled",
                    "type": "bool"
                }
            ],
            "name": "setEnabled",
            "outputs": [],
            "stateMutability": "nonpayable",
            "type": "function"
        },
        {
            "inputs": [
                {
                    "internalType": "address",
                    "name": "hub",
                    "type": "address"
                }
            ],
            "name": "setPaymentHub",
            "outputs": [],
            "stateMutability": "nonpayable",
            "type": "function"
        },
        {
            "inputs": [
                {
                    "internalType": "uint256",
                    "name": "newPrice",
                    "type": "uint256"
                },
                {
                    "internalType": "uint256",
                    "name": "newIncrement",
                    "type": "uint256"
                }
            ],
            "name": "setPrice",
            "outputs": [],
            "stateMutability": "nonpayable",
            "type": "function"
        },
        {
            "inputs": [
                {
                    "internalType": "uint256",
                    "name": "settings_",
                    "type": "uint256"
                }
            ],
            "name": "setSettings",
            "outputs": [],
            "stateMutability": "nonpayable",
            "type": "function"
        },
        {
            "inputs": [],
            "name": "settings",
            "outputs": [
                {
                    "internalType": "uint256",
                    "name": "",
                    "type": "uint256"
                }
            ],
            "stateMutability": "view",
            "type": "function"
        },
        {
            "inputs": [],
            "name": "timeToDrift",
            "outputs": [
                {
                    "internalType": "uint256",
                    "name": "",
                    "type": "uint256"
                }
            ],
            "stateMutability": "view",
            "type": "function"
        },
        {
            "inputs": [],
            "name": "token",
            "outputs": [
                {
                    "internalType": "address",
                    "name": "",
                    "type": "address"
                }
            ],
            "stateMutability": "view",
            "type": "function"
        },
        {
            "inputs": [
                {
                    "internalType": "address",
                    "name": "newOwner",
                    "type": "address"
                }
            ],
            "name": "transferOwnership",
            "outputs": [],
            "stateMutability": "nonpayable",
            "type": "function"
        },
        {
            "inputs": [
                {
                    "internalType": "address",
                    "name": "ercAddress",
                    "type": "address"
                },
                {
                    "internalType": "address",
                    "name": "to",
                    "type": "address"
                },
                {
                    "internalType": "uint256",
                    "name": "amount",
                    "type": "uint256"
                }
            ],
            "name": "withdraw",
            "outputs": [],
            "stateMutability": "nonpayable",
            "type": "function"
        },
        {
            "inputs": [
                {
                    "internalType": "uint256",
                    "name": "amount",
                    "type": "uint256"
                }
            ],
            "name": "withdrawEther",
            "outputs": [],
            "stateMutability": "nonpayable",
            "type": "function"
        }
    ],
    "bytecode": "60c060405260036007553480156200001657600080fd5b5060405162001c5538038062001c558339810160408190526200003991620000ee565b600080546001600160a01b0319166001600160a01b03831690811782556040518392907f8be0079c531659141344cd1fd0a4f28419497f9722a3daafe3b4186f6b6457e0908290a350506001600160601b0319606091821b811660805293901b90921660a052600255600355600180546001600160a01b031916733eabee781f6569328143c610700a99e9cee82cba1790556200014c565b80516001600160a01b0381168114620000e957600080fd5b919050565b600080600080600060a086880312156200010757600080fd5b6200011286620000d1565b945060208601519350604086015192506200013060608701620000d1565b91506200014060808701620000d1565b90509295509295909350565b60805160601c60a05160601c611a90620001c560003960008181610609015281816107e901528181610b380152818161117f0152818161132501526113fb015260008181610290015281816107a70152818161083601528181610fe1015281816111ce0152818161124f01526114420152611a906000f3fe6080604052600436106102045760003560e01c8063a4c0ed3611610118578063d9caed12116100a0578063f771cb651161006f578063f771cb65146105c2578063f7d97577146105d7578063fc0c546a146105f7578063fff4da1f1461062b578063fff897451461064b57600080fd5b8063d9caed121461054c578063e06174e41461056c578063e1f21c6714610582578063f2fde38b146105a257600080fd5b8063ba730e53116100e7578063ba730e53146104c0578063bf13d438146104e0578063c7780ab214610500578063d09de08a14610516578063d7e06ca81461052c57600080fd5b8063a4c0ed3614610438578063a63ae9c714610458578063afaefe9e14610480578063b03a13fe146104a057600080fd5b80637cd6a7fd1161019b5780638da5cb5b1161016a5780638da5cb5b146103ae5780638ed2fe91146103ce57806391be6ad5146103e357806398d5fdca146104035780639bb8c0fd1461041857600080fd5b80637cd6a7fd1461033d5780637ff6c1911461035d57806384b41fda146103735780638a07d3d01461038957600080fd5b80635c627935116101d75780635c627935146102ca57806369365c52146102ea5780636f7267b7146102fd578063777adcf01461031d57600080fd5b806308d4db141461020957806321bea8581461023c5780633bed33ce1461025c5780635001f3b51461027e575b600080fd5b34801561021557600080fd5b5061022961022436600461178f565b61066b565b6040519081526020015b60405180910390f35b34801561024857600080fd5b5061022961025736600461178f565b610684565b34801561026857600080fd5b5061027c61027736600461178f565b61069e565b005b34801561028a57600080fd5b506102b27f000000000000000000000000000000000000000000000000000000000000000081565b6040516001600160a01b039091168152602001610233565b3480156102d657600080fd5b5061027c6102e5366004611756565b610717565b6102296102f83660046115d6565b610788565b34801561030957600080fd5b5061022961031836600461178f565b610883565b34801561032957600080fd5b506001546102b2906001600160a01b031681565b34801561034957600080fd5b5061027c61035836600461178f565b6108fd565b34801561036957600080fd5b5061022960045481565b34801561037f57600080fd5b5061022960055481565b34801561039557600080fd5b5061039e61092c565b6040519015158152602001610233565b3480156103ba57600080fd5b506000546102b2906001600160a01b031681565b3480156103da57600080fd5b5061039e610941565b3480156103ef57600080fd5b5061027c6103fe36600461169f565b610951565b34801561040f57600080fd5b50610229610a08565b34801561042457600080fd5b5061027c610433366004611645565b610a13565b34801561044457600080fd5b5061039e610453366004611645565b610a50565b34801561046457600080fd5b506102b27329fe8914e76da5ce2d90de98a64d0055f199d06d81565b34801561048c57600080fd5b5061027c61049b3660046117a8565b610a6b565b3480156104ac57600080fd5b5061027c6104bb366004611645565b610adb565b3480156104cc57600080fd5b506102296104db36600461178f565b610bb4565b3480156104ec57600080fd5b506102296104fb36600461178f565b610bd9565b34801561050c57600080fd5b5061022960065481565b34801561052257600080fd5b5061022960035481565b34801561053857600080fd5b5061027c6105473660046115d6565b610c54565b34801561055857600080fd5b5061027c61056736600461159a565b610c69565b34801561057857600080fd5b5061022960075481565b34801561058e57600080fd5b5061027c61059d36600461159a565b610d31565b3480156105ae57600080fd5b5061027c6105bd36600461157f565b610d90565b3480156105ce57600080fd5b5061039e610e15565b3480156105e357600080fd5b5061027c6105f23660046117a8565b610e25565b34801561060357600080fd5b506102b27f000000000000000000000000000000000000000000000000000000000000000081565b34801561063757600080fd5b5061027c61064636600461157f565b610e62565b34801561065757600080fd5b5061027c61066636600461169f565b610eae565b600061067e610678610a08565b83610f62565b92915050565b6000612710610694605a846119af565b61067e9190611908565b6000546001600160a01b03163314806106c157506001546001600160a01b031633145b6106e65760405162461bcd60e51b81526004016106dd90611845565b60405180910390fd5b604051339082156108fc029083906000818181858888f19350505050158015610713573d6000803e3d6000fd5b5050565b6000546001600160a01b031633146107415760405162461bcd60e51b81526004016106dd90611845565b61074f600160075481161490565b151582151514610763576007805460011890555b610771600260075481161490565b151581151514610713576007805460021890555050565b6000336001600160a01b03871614806107c95750336001600160a01b037f000000000000000000000000000000000000000000000000000000000000000016145b806107de57506001546001600160a01b031633145b6107e757600080fd5b7f00000000000000000000000000000000000000000000000000000000000000006001600160a01b0316866001600160a01b031614156108345761082d85858585610fb9565b905061087a565b7f00000000000000000000000000000000000000000000000000000000000000006001600160a01b0316866001600160a01b031614156102045761082d8585858561121f565b95945050505050565b60008061088e610a08565b905060008061089d8386611908565b90505b808210156108f557600060026108b683856118f0565b6108c09190611908565b905060006108ce8583610f62565b9050808711156108ea576108e38260016118f0565b93506108ee565b8192505b50506108a0565b509392505050565b6000546001600160a01b031633146109275760405162461bcd60e51b81526004016106dd90611845565b600755565b600061093c600460075481161490565b905090565b600061093c600160075481161490565b6000546001600160a01b0316331461097b5760405162461bcd60e51b81526004016106dd90611845565b60005b858110156109ff576109ed87878381811061099b5761099b611a33565b90506020020160208101906109b0919061157f565b8686848181106109c2576109c2611a33565b905060200201358585858181106109db576109db611a33565b90506020028101906104bb9190611868565b806109f7816119e5565b91505061097e565b50505050505050565b600061093c42610bd9565b6000546001600160a01b03163314610a3d5760405162461bcd60e51b81526004016106dd90611845565b610a49848484846113ad565b5050505050565b6000610a5f3386868686610788565b50600195945050505050565b6000546001600160a01b03163314610a955760405162461bcd60e51b81526004016106dd90611845565b610aa9610aa0610a08565b60025542600455565b60058290556006819055610ac1600460075481161490565b600554151590151514610713576007805460041890555050565b6000546001600160a01b03163314610b055760405162461bcd60e51b81526004016106dd90611845565b610b11848484846113ad565b5060405163a9059cbb60e01b81526001600160a01b038581166004830152602482018590527f0000000000000000000000000000000000000000000000000000000000000000169063a9059cbb90604401602060405180830381600087803b158015610b7c57600080fd5b505af1158015610b90573d6000803e3d6000fd5b505050506040513d601f19601f82011682018060405250810190610a499190611739565b600061067e60035483610bc791906119af565b610bcf610a08565b61067891906119ce565b6000610be361092c565b15610c4757600060045483610bf891906119ce565b9050600060065460055483610c0d9190611908565b610c17919061192a565b9050600081600254610c2991906118af565b90506000811215610c3f57506000949350505050565b949350505050565b505060025490565b919050565b610c618585858585610788565b505050505050565b6000546001600160a01b0316331480610c8c57506001546001600160a01b031633145b610ca85760405162461bcd60e51b81526004016106dd90611845565b60405163a9059cbb60e01b81526001600160a01b0383811660048301526024820183905284169063a9059cbb906044015b602060405180830381600087803b158015610cf357600080fd5b505af1158015610d07573d6000803e3d6000fd5b505050506040513d601f19601f82011682018060405250810190610d2b9190611739565b50505050565b6000546001600160a01b03163314610d5b5760405162461bcd60e51b81526004016106dd90611845565b60405163095ea7b360e01b81526001600160a01b0383811660048301526024820183905284169063095ea7b390604401610cd9565b6000546001600160a01b03163314610dba5760405162461bcd60e51b81526004016106dd90611845565b600080546040516001600160a01b03808516939216917f8be0079c531659141344cd1fd0a4f28419497f9722a3daafe3b4186f6b6457e091a3600080546001600160a01b0319166001600160a01b0392909216919091179055565b600061093c600260075481161490565b6000546001600160a01b03163314610e4f5760405162461bcd60e51b81526004016106dd90611845565b610e5c8260025542600455565b60035550565b6000546001600160a01b03163314610e8c5760405162461bcd60e51b81526004016106dd90611845565b600180546001600160a01b0319166001600160a01b0392909216919091179055565b6000546001600160a01b03163314610ed85760405162461bcd60e51b81526004016106dd90611845565b60005b858110156109ff57610f4f878783818110610ef857610ef8611a33565b9050602002016020810190610f0d919061157f565b868684818110610f1f57610f1f611a33565b90506020020135858585818110610f3857610f38611a33565b9050602002810190610f4a9190611868565b6113ad565b5080610f5a816119e5565b915050610edb565b600081610f715750600061067e565b600354600090610f826001856119ce565b610f8c91906119af565b610f9690856118f0565b9050826002610fa583876118f0565b610faf9190611908565b610c3f91906119af565b6000610fc9600260075481161490565b610fd257600080fd5b6000610fdd85610bb4565b90507f0000000000000000000000000000000000000000000000000000000000000000600061100b83610684565b905080156110a95760405163a9059cbb60e01b81527329fe8914e76da5ce2d90de98a64d0055f199d06d6004820152602481018290526001600160a01b0383169063a9059cbb90604401602060405180830381600087803b15801561106f57600080fd5b505af1158015611083573d6000803e3d6000fd5b505050506040513d601f19601f820116820180604052508101906110a79190611739565b505b6110b38686611491565b15611152576001600160a01b03821663a9059cbb896110d284876119ce565b6040516001600160e01b031960e085901b1681526001600160a01b0390921660048301526024820152604401602060405180830381600087803b15801561111857600080fd5b505af115801561112c573d6000803e3d6000fd5b505050506040513d601f19601f820116820180604052508101906111509190611739565b505b60035461115f90886119af565b6002600082825461117091906119ce565b90915550506001600160a01b037f0000000000000000000000000000000000000000000000000000000000000000167f424641a08047715d4b70195e1d90818d302683d9f65f41910ca13f5a486d37cc8988886111cc8c611a00565b7f000000000000000000000000000000000000000000000000000000000000000089886111f7610a08565b60405161120b9897969594939291906117f3565b60405180910390a250909695505050505050565b60008061122b85610883565b9050600061123b878387876113ad565b9050858110156112ff576001600160a01b037f00000000000000000000000000000000000000000000000000000000000000001663a9059cbb8861127f848a6119ce565b6040516001600160e01b031960e085901b1681526001600160a01b0390921660048301526024820152604401602060405180830381600087803b1580156112c557600080fd5b505af11580156112d9573d6000803e3d6000fd5b505050506040513d601f19601f820116820180604052508101906112fd9190611739565b505b60405163a9059cbb60e01b81526001600160a01b038881166004830152602482018490527f0000000000000000000000000000000000000000000000000000000000000000169063a9059cbb90604401602060405180830381600087803b15801561136957600080fd5b505af115801561137d573d6000803e3d6000fd5b505050506040513d601f19601f820116820180604052508101906113a19190611739565b50909695505050505050565b60006113bd600160075481161490565b6113c657600080fd5b60006113d18561066b565b9050600354856113e191906119af565b6002546113ee91906118f0565b6002556001600160a01b037f0000000000000000000000000000000000000000000000000000000000000000167f424641a08047715d4b70195e1d90818d302683d9f65f41910ca13f5a486d37cc878686897f000000000000000000000000000000000000000000000000000000000000000087600061146c610a08565b6040516114809897969594939291906117f3565b60405180910390a295945050505050565b60008115806114a05750601482145b806114d35750600160f91b83836000816114bc576114bc611a33565b9050013560f81c60f81b6001600160f81b03191614155b9392505050565b80356001600160a01b0381168114610c4f57600080fd5b60008083601f84011261150357600080fd5b50813567ffffffffffffffff81111561151b57600080fd5b6020830191508360208260051b850101111561153657600080fd5b9250929050565b60008083601f84011261154f57600080fd5b50813567ffffffffffffffff81111561156757600080fd5b60208301915083602082850101111561153657600080fd5b60006020828403121561159157600080fd5b6114d3826114da565b6000806000606084860312156115af57600080fd5b6115b8846114da565b92506115c6602085016114da565b9150604084013590509250925092565b6000806000806000608086880312156115ee57600080fd5b6115f7866114da565b9450611605602087016114da565b935060408601359250606086013567ffffffffffffffff81111561162857600080fd5b6116348882890161153d565b969995985093965092949392505050565b6000806000806060858703121561165b57600080fd5b611664856114da565b935060208501359250604085013567ffffffffffffffff81111561168757600080fd5b6116938782880161153d565b95989497509550505050565b600080600080600080606087890312156116b857600080fd5b863567ffffffffffffffff808211156116d057600080fd5b6116dc8a838b016114f1565b909850965060208901359150808211156116f557600080fd5b6117018a838b016114f1565b9096509450604089013591508082111561171a57600080fd5b5061172789828a016114f1565b979a9699509497509295939492505050565b60006020828403121561174b57600080fd5b81516114d381611a49565b6000806040838503121561176957600080fd5b823561177481611a49565b9150602083013561178481611a49565b809150509250929050565b6000602082840312156117a157600080fd5b5035919050565b600080604083850312156117bb57600080fd5b50508035926020909101359150565b81835281816020850137506000828201602090810191909152601f909101601f19169091010190565b600060018060a01b03808b16835260e0602084015261181660e084018a8c6117ca565b6040840198909852959095166060820152608081019390935260a083019190915260c090910152509392505050565b6020808252600990820152683737ba1037bbb732b960b91b604082015260600190565b6000808335601e1984360301811261187f57600080fd5b83018035915067ffffffffffffffff82111561189a57600080fd5b60200191503681900382131561153657600080fd5b600080821280156001600160ff1b03849003851316156118d1576118d1611a1d565b600160ff1b83900384128116156118ea576118ea611a1d565b50500190565b6000821982111561190357611903611a1d565b500190565b60008261192557634e487b7160e01b600052601260045260246000fd5b500490565b60006001600160ff1b038184138284138082168684048611161561195057611950611a1d565b600160ff1b600087128281168783058912161561196f5761196f611a1d565b6000871292508782058712848416161561198b5761198b611a1d565b878505871281841616156119a1576119a1611a1d565b505050929093029392505050565b60008160001904831182151516156119c9576119c9611a1d565b500290565b6000828210156119e0576119e0611a1d565b500390565b60006000198214156119f9576119f9611a1d565b5060010190565b6000600160ff1b821415611a1657611a16611a1d565b5060000390565b634e487b7160e01b600052601160045260246000fd5b634e487b7160e01b600052603260045260246000fd5b8015158114611a5757600080fd5b5056fea2646970667358221220317020089ac93f5cc353d2aa4756c81d5d19c9276eb5ca6fe21ee2e27ec3797e64736f6c63430008070033",
    "sourcePath": "c:/Users/luziu/Documents/aktionariat/contracts/src/Brokerbot.sol",
    "compiler": {
        "name": "solc",
        "version": "0.8.7+commit.e28d00a7"
    },
    "functionHashes": {
        "approve(address,address,uint256)": "e1f21c67",
        "base()": "5001f3b5",
        "buyingEnabled()": "8ed2fe91",
        "copyright()": "a63ae9c7",
        "driftIncrement()": "c7780ab2",
        "driftStart()": "7ff6c191",
        "getBuyPrice(uint256)": "08d4db14",
        "getLicenseFee(uint256)": "21bea858",
        "getPrice()": "98d5fdca",
        "getPriceAtTime(uint256)": "bf13d438",
        "getSellPrice(uint256)": "ba730e53",
        "getShares(uint256)": "6f7267b7",
        "hasDrift()": "8a07d3d0",
        "increment()": "d09de08a",
        "notifyTrade(address,uint256,bytes)": "9bb8c0fd",
        "notifyTradeAndTransfer(address,uint256,bytes)": "b03a13fe",
        "notifyTrades(address[],uint256[],bytes[])": "fff89745",
        "notifyTradesAndTransfer(address[],uint256[],bytes[])": "91be6ad5",
        "onTokenTransfer(address,address,uint256,bytes)": "d7e06ca8",
        "onTokenTransfer(address,uint256,bytes)": "a4c0ed36",
        "owner()": "8da5cb5b",
        "paymenthub()": "777adcf0",
        "processIncoming(address,address,uint256,bytes)": "69365c52",
        "sellingEnabled()": "f771cb65",
        "setDrift(uint256,int256)": "afaefe9e",
        "setEnabled(bool,bool)": "5c627935",
        "setPaymentHub(address)": "fff4da1f",
        "setPrice(uint256,uint256)": "f7d97577",
        "setSettings(uint256)": "7cd6a7fd",
        "settings()": "e06174e4",
        "timeToDrift()": "84b41fda",
        "token()": "fc0c546a",
        "transferOwnership(address)": "f2fde38b",
        "withdraw(address,address,uint256)": "d9caed12",
        "withdrawEther(uint256)": "3bed33ce"
    },
    "gasEstimates": {
        "creation": {
            "codeDepositCost": "1360000",
            "executionCost": "infinite",
            "totalCost": "infinite"
        },
        "external": {
            "approve(address,address,uint256)": "infinite",
            "base()": "infinite",
            "buyingEnabled()": "2415",
            "copyright()": "284",
            "driftIncrement()": "2373",
            "driftStart()": "2352",
            "getBuyPrice(uint256)": "infinite",
            "getLicenseFee(uint256)": "504",
            "getPrice()": "infinite",
            "getPriceAtTime(uint256)": "11603",
            "getSellPrice(uint256)": "infinite",
            "getShares(uint256)": "infinite",
            "hasDrift()": "2460",
            "increment()": "2395",
            "notifyTrade(address,uint256,bytes)": "infinite",
            "notifyTradeAndTransfer(address,uint256,bytes)": "infinite",
            "notifyTrades(address[],uint256[],bytes[])": "infinite",
            "notifyTradesAndTransfer(address[],uint256[],bytes[])": "infinite",
            "onTokenTransfer(address,address,uint256,bytes)": "infinite",
            "onTokenTransfer(address,uint256,bytes)": "infinite",
            "owner()": "2382",
            "paymenthub()": "2449",
            "processIncoming(address,address,uint256,bytes)": "infinite",
            "sellingEnabled()": "2392",
            "setDrift(uint256,int256)": "infinite",
            "setEnabled(bool,bool)": "infinite",
            "setPaymentHub(address)": "26821",
            "setPrice(uint256,uint256)": "68778",
            "setSettings(uint256)": "24510",
            "settings()": "2351",
            "timeToDrift()": "2374",
            "token()": "infinite",
            "transferOwnership(address)": "30476",
            "withdraw(address,address,uint256)": "infinite",
            "withdrawEther(uint256)": "infinite"
        },
        "internal": {
            "anchorPrice(uint256)": "infinite",
            "buy(address,uint256,bytes calldata)": "infinite",
            "getPrice(uint256,uint256)": "infinite",
            "hasSetting(uint256)": "infinite",
            "isDirectSale(bytes calldata)": "162",
            "notifyTraded(address,uint256,bytes calldata)": "infinite",
            "sell(address,uint256,bytes calldata)": "infinite"
        }
    }
}