{
    "contractName": "DraggableShares",
    "abi": [
        {
            "inputs": [
                {
                    "internalType": "string",
                    "name": "_terms",
                    "type": "string"
                },
                {
                    "internalType": "address",
                    "name": "offerFactory",
                    "type": "address"
                },
                {
                    "internalType": "address",
                    "name": "wrappedToken",
                    "type": "address"
                },
                {
                    "internalType": "uint256",
                    "name": "quorum",
                    "type": "uint256"
                },
                {
                    "internalType": "uint256",
                    "name": "votePeriod",
                    "type": "uint256"
                }
            ],
            "stateMutability": "nonpayable",
            "type": "constructor"
        },
        {
            "anonymous": false,
            "inputs": [
                {
                    "indexed": true,
                    "internalType": "address",
                    "name": "owner",
                    "type": "address"
                },
                {
                    "indexed": true,
                    "internalType": "address",
                    "name": "spender",
                    "type": "address"
                },
                {
                    "indexed": false,
                    "internalType": "uint256",
                    "name": "value",
                    "type": "uint256"
                }
            ],
            "name": "Approval",
            "type": "event"
        },
        {
            "anonymous": false,
            "inputs": [
                {
                    "indexed": true,
                    "internalType": "address",
                    "name": "lostAddress",
                    "type": "address"
                },
                {
                    "indexed": false,
                    "internalType": "uint256",
                    "name": "collateral",
                    "type": "uint256"
                }
            ],
            "name": "ClaimCleared",
            "type": "event"
        },
        {
            "anonymous": false,
            "inputs": [
                {
                    "indexed": true,
                    "internalType": "address",
                    "name": "lostAddress",
                    "type": "address"
                },
                {
                    "indexed": true,
                    "internalType": "address",
                    "name": "claimant",
                    "type": "address"
                },
                {
                    "indexed": false,
                    "internalType": "uint256",
                    "name": "collateral",
                    "type": "uint256"
                }
            ],
            "name": "ClaimDeleted",
            "type": "event"
        },
        {
            "anonymous": false,
            "inputs": [
                {
                    "indexed": true,
                    "internalType": "address",
                    "name": "lostAddress",
                    "type": "address"
                },
                {
                    "indexed": true,
                    "internalType": "address",
                    "name": "claimant",
                    "type": "address"
                },
                {
                    "indexed": false,
                    "internalType": "uint256",
                    "name": "balance",
                    "type": "uint256"
                }
            ],
            "name": "ClaimMade",
            "type": "event"
        },
        {
            "anonymous": false,
            "inputs": [
                {
                    "indexed": false,
                    "internalType": "uint256",
                    "name": "newClaimPeriodInDays",
                    "type": "uint256"
                }
            ],
            "name": "ClaimPeriodChanged",
            "type": "event"
        },
        {
            "anonymous": false,
            "inputs": [
                {
                    "indexed": true,
                    "internalType": "address",
                    "name": "lostAddress",
                    "type": "address"
                },
                {
                    "indexed": true,
                    "internalType": "address",
                    "name": "claimant",
                    "type": "address"
                },
                {
                    "indexed": false,
                    "internalType": "uint256",
                    "name": "collateral",
                    "type": "uint256"
                }
            ],
            "name": "ClaimResolved",
            "type": "event"
        },
        {
            "anonymous": false,
            "inputs": [
                {
                    "indexed": false,
                    "internalType": "address",
                    "name": "newCustomCollateralAddress",
                    "type": "address"
                },
                {
                    "indexed": false,
                    "internalType": "uint256",
                    "name": "newCustomCollareralRate",
                    "type": "uint256"
                }
            ],
            "name": "CustomClaimCollateralChanged",
            "type": "event"
        },
        {
            "anonymous": false,
            "inputs": [
                {
                    "indexed": false,
                    "internalType": "address",
                    "name": "newContractAddress",
                    "type": "address"
                }
            ],
            "name": "MigrationSucceeded",
            "type": "event"
        },
        {
            "anonymous": false,
            "inputs": [
                {
                    "indexed": true,
                    "internalType": "address",
                    "name": "from",
                    "type": "address"
                },
                {
                    "indexed": true,
                    "internalType": "address",
                    "name": "to",
                    "type": "address"
                },
                {
                    "indexed": false,
                    "internalType": "uint256",
                    "name": "value",
                    "type": "uint256"
                }
            ],
            "name": "Transfer",
            "type": "event"
        },
        {
            "inputs": [
                {
                    "internalType": "address",
                    "name": "owner",
                    "type": "address"
                },
                {
                    "internalType": "address",
                    "name": "spender",
                    "type": "address"
                }
            ],
            "name": "allowance",
            "outputs": [
                {
                    "internalType": "uint256",
                    "name": "",
                    "type": "uint256"
                }
            ],
            "stateMutability": "view",
            "type": "function"
        },
        {
            "inputs": [
                {
                    "internalType": "address",
                    "name": "spender",
                    "type": "address"
                },
                {
                    "internalType": "uint256",
                    "name": "value",
                    "type": "uint256"
                }
            ],
            "name": "approve",
            "outputs": [
                {
                    "internalType": "bool",
                    "name": "",
                    "type": "bool"
                }
            ],
            "stateMutability": "nonpayable",
            "type": "function"
        },
        {
            "inputs": [
                {
                    "internalType": "address",
                    "name": "account",
                    "type": "address"
                }
            ],
            "name": "balanceOf",
            "outputs": [
                {
                    "internalType": "uint256",
                    "name": "",
                    "type": "uint256"
                }
            ],
            "stateMutability": "view",
            "type": "function"
        },
        {
            "inputs": [
                {
                    "internalType": "uint256",
                    "name": "amount",
                    "type": "uint256"
                }
            ],
            "name": "burn",
            "outputs": [],
            "stateMutability": "nonpayable",
            "type": "function"
        },
        {
            "inputs": [],
            "name": "claimPeriod",
            "outputs": [
                {
                    "internalType": "uint256",
                    "name": "",
                    "type": "uint256"
                }
            ],
            "stateMutability": "view",
            "type": "function"
        },
        {
            "inputs": [
                {
                    "internalType": "address",
                    "name": "",
                    "type": "address"
                }
            ],
            "name": "claims",
            "outputs": [
                {
                    "internalType": "address",
                    "name": "claimant",
                    "type": "address"
                },
                {
                    "internalType": "uint256",
                    "name": "collateral",
                    "type": "uint256"
                },
                {
                    "internalType": "uint256",
                    "name": "timestamp",
                    "type": "uint256"
                },
                {
                    "internalType": "address",
                    "name": "currencyUsed",
                    "type": "address"
                }
            ],
            "stateMutability": "view",
            "type": "function"
        },
        {
            "inputs": [],
            "name": "clearClaim",
            "outputs": [],
            "stateMutability": "nonpayable",
            "type": "function"
        },
        {
            "inputs": [],
            "name": "customCollateralAddress",
            "outputs": [
                {
                    "internalType": "address",
                    "name": "",
                    "type": "address"
                }
            ],
            "stateMutability": "view",
            "type": "function"
        },
        {
            "inputs": [],
            "name": "customCollateralRate",
            "outputs": [
                {
                    "internalType": "uint256",
                    "name": "",
                    "type": "uint256"
                }
            ],
            "stateMutability": "view",
            "type": "function"
        },
        {
            "inputs": [],
            "name": "decimals",
            "outputs": [
                {
                    "internalType": "uint8",
                    "name": "",
                    "type": "uint8"
                }
            ],
            "stateMutability": "view",
            "type": "function"
        },
        {
            "inputs": [
                {
                    "internalType": "address",
                    "name": "collateralType",
                    "type": "address"
                },
                {
                    "internalType": "address",
                    "name": "lostAddress",
                    "type": "address"
                }
            ],
            "name": "declareLost",
            "outputs": [],
            "stateMutability": "nonpayable",
            "type": "function"
        },
        {
            "inputs": [
                {
                    "internalType": "address",
                    "name": "spender",
                    "type": "address"
                },
                {
                    "internalType": "uint256",
                    "name": "subtractedValue",
                    "type": "uint256"
                }
            ],
            "name": "decreaseAllowance",
            "outputs": [
                {
                    "internalType": "bool",
                    "name": "",
                    "type": "bool"
                }
            ],
            "stateMutability": "nonpayable",
            "type": "function"
        },
        {
            "inputs": [
                {
                    "internalType": "address",
                    "name": "lostAddress",
                    "type": "address"
                }
            ],
            "name": "deleteClaim",
            "outputs": [],
            "stateMutability": "nonpayable",
            "type": "function"
        },
        {
            "inputs": [
                {
                    "internalType": "address",
                    "name": "buyer",
                    "type": "address"
                },
                {
                    "internalType": "address",
                    "name": "currency",
                    "type": "address"
                }
            ],
            "name": "drag",
            "outputs": [],
            "stateMutability": "nonpayable",
            "type": "function"
        },
        {
            "inputs": [],
            "name": "factory",
            "outputs": [
                {
                    "internalType": "contract IOfferFactory",
                    "name": "",
                    "type": "address"
                }
            ],
            "stateMutability": "view",
            "type": "function"
        },
        {
            "inputs": [],
            "name": "getClaimDeleter",
            "outputs": [
                {
                    "internalType": "address",
                    "name": "",
                    "type": "address"
                }
            ],
            "stateMutability": "view",
            "type": "function"
        },
        {
            "inputs": [
                {
                    "internalType": "address",
                    "name": "lostAddress",
                    "type": "address"
                }
            ],
            "name": "getClaimant",
            "outputs": [
                {
                    "internalType": "address",
                    "name": "",
                    "type": "address"
                }
            ],
            "stateMutability": "view",
            "type": "function"
        },
        {
            "inputs": [
                {
                    "internalType": "address",
                    "name": "lostAddress",
                    "type": "address"
                }
            ],
            "name": "getCollateral",
            "outputs": [
                {
                    "internalType": "uint256",
                    "name": "",
                    "type": "uint256"
                }
            ],
            "stateMutability": "view",
            "type": "function"
        },
        {
            "inputs": [
                {
                    "internalType": "address",
                    "name": "collateralType",
                    "type": "address"
                }
            ],
            "name": "getCollateralRate",
            "outputs": [
                {
                    "internalType": "uint256",
                    "name": "",
                    "type": "uint256"
                }
            ],
            "stateMutability": "view",
            "type": "function"
        },
        {
            "inputs": [
                {
                    "internalType": "address",
                    "name": "lostAddress",
                    "type": "address"
                }
            ],
            "name": "getCollateralType",
            "outputs": [
                {
                    "internalType": "address",
                    "name": "",
                    "type": "address"
                }
            ],
            "stateMutability": "view",
            "type": "function"
        },
        {
            "inputs": [
                {
                    "internalType": "address",
                    "name": "lostAddress",
                    "type": "address"
                }
            ],
            "name": "getTimeStamp",
            "outputs": [
                {
                    "internalType": "uint256",
                    "name": "",
                    "type": "uint256"
                }
            ],
            "stateMutability": "view",
            "type": "function"
        },
        {
            "inputs": [
                {
                    "internalType": "address",
                    "name": "spender",
                    "type": "address"
                },
                {
                    "internalType": "uint256",
                    "name": "addedValue",
                    "type": "uint256"
                }
            ],
            "name": "increaseAllowance",
            "outputs": [
                {
                    "internalType": "bool",
                    "name": "",
                    "type": "bool"
                }
            ],
            "stateMutability": "nonpayable",
            "type": "function"
        },
        {
            "inputs": [],
            "name": "isBinding",
            "outputs": [
                {
                    "internalType": "bool",
                    "name": "",
                    "type": "bool"
                }
            ],
            "stateMutability": "view",
            "type": "function"
        },
        {
            "inputs": [
                {
                    "internalType": "address",
                    "name": "target",
                    "type": "address"
                }
            ],
            "name": "isRecoveryEnabled",
            "outputs": [
                {
                    "internalType": "bool",
                    "name": "",
                    "type": "bool"
                }
            ],
            "stateMutability": "view",
            "type": "function"
        },
        {
            "inputs": [
                {
                    "internalType": "bytes32",
                    "name": "salt",
                    "type": "bytes32"
                },
                {
                    "internalType": "uint256",
                    "name": "pricePerShare",
                    "type": "uint256"
                },
                {
                    "internalType": "address",
                    "name": "currency",
                    "type": "address"
                }
            ],
            "name": "makeAcquisitionOffer",
            "outputs": [],
            "stateMutability": "payable",
            "type": "function"
        },
        {
            "inputs": [],
            "name": "migrate",
            "outputs": [],
            "stateMutability": "nonpayable",
            "type": "function"
        },
        {
            "inputs": [],
            "name": "name",
            "outputs": [
                {
                    "internalType": "string",
                    "name": "",
                    "type": "string"
                }
            ],
            "stateMutability": "view",
            "type": "function"
        },
        {
            "inputs": [],
            "name": "notifyOfferEnded",
            "outputs": [],
            "stateMutability": "nonpayable",
            "type": "function"
        },
        {
            "inputs": [],
            "name": "offer",
            "outputs": [
                {
                    "internalType": "contract IOffer",
                    "name": "",
                    "type": "address"
                }
            ],
            "stateMutability": "view",
            "type": "function"
        },
        {
            "inputs": [
                {
                    "internalType": "address",
                    "name": "from",
                    "type": "address"
                },
                {
                    "internalType": "uint256",
                    "name": "amount",
                    "type": "uint256"
                },
                {
                    "internalType": "bytes",
                    "name": "",
                    "type": "bytes"
                }
            ],
            "name": "onTokenTransfer",
            "outputs": [],
            "stateMutability": "nonpayable",
            "type": "function"
        },
        {
            "inputs": [],
            "name": "quorum",
            "outputs": [
                {
                    "internalType": "uint256",
                    "name": "",
                    "type": "uint256"
                }
            ],
            "stateMutability": "view",
            "type": "function"
        },
        {
            "inputs": [
                {
                    "internalType": "address",
                    "name": "lostAddress",
                    "type": "address"
                }
            ],
            "name": "recover",
            "outputs": [],
            "stateMutability": "nonpayable",
            "type": "function"
        },
        {
            "inputs": [
                {
                    "internalType": "address",
                    "name": "",
                    "type": "address"
                }
            ],
            "name": "recoveryDisabled",
            "outputs": [
                {
                    "internalType": "bool",
                    "name": "",
                    "type": "bool"
                }
            ],
            "stateMutability": "view",
            "type": "function"
        },
        {
            "inputs": [
                {
                    "internalType": "bool",
                    "name": "enabled",
                    "type": "bool"
                }
            ],
            "name": "setRecoverable",
            "outputs": [],
            "stateMutability": "nonpayable",
            "type": "function"
        },
        {
            "inputs": [],
            "name": "symbol",
            "outputs": [
                {
                    "internalType": "string",
                    "name": "",
                    "type": "string"
                }
            ],
            "stateMutability": "view",
            "type": "function"
        },
        {
            "inputs": [],
            "name": "terms",
            "outputs": [
                {
                    "internalType": "string",
                    "name": "",
                    "type": "string"
                }
            ],
            "stateMutability": "view",
            "type": "function"
        },
        {
            "inputs": [],
            "name": "totalSupply",
            "outputs": [
                {
                    "internalType": "uint256",
                    "name": "",
                    "type": "uint256"
                }
            ],
            "stateMutability": "view",
            "type": "function"
        },
        {
            "inputs": [
                {
                    "internalType": "address",
                    "name": "to",
                    "type": "address"
                },
                {
                    "internalType": "uint256",
                    "name": "value",
                    "type": "uint256"
                }
            ],
            "name": "transfer",
            "outputs": [
                {
                    "internalType": "bool",
                    "name": "",
                    "type": "bool"
                }
            ],
            "stateMutability": "nonpayable",
            "type": "function"
        },
        {
            "inputs": [
                {
                    "internalType": "address",
                    "name": "recipient",
                    "type": "address"
                },
                {
                    "internalType": "uint256",
                    "name": "amount",
                    "type": "uint256"
                },
                {
                    "internalType": "bytes",
                    "name": "data",
                    "type": "bytes"
                }
            ],
            "name": "transferAndCall",
            "outputs": [
                {
                    "internalType": "bool",
                    "name": "",
                    "type": "bool"
                }
            ],
            "stateMutability": "nonpayable",
            "type": "function"
        },
        {
            "inputs": [
                {
                    "internalType": "address",
                    "name": "sender",
                    "type": "address"
                },
                {
                    "internalType": "address",
                    "name": "recipient",
                    "type": "address"
                },
                {
                    "internalType": "uint256",
                    "name": "amount",
                    "type": "uint256"
                }
            ],
            "name": "transferFrom",
            "outputs": [
                {
                    "internalType": "bool",
                    "name": "",
                    "type": "bool"
                }
            ],
            "stateMutability": "nonpayable",
            "type": "function"
        },
        {
            "inputs": [
                {
                    "internalType": "uint256",
                    "name": "amount",
                    "type": "uint256"
                }
            ],
            "name": "unwrap",
            "outputs": [],
            "stateMutability": "nonpayable",
            "type": "function"
        },
        {
            "inputs": [],
            "name": "unwrapConversionFactor",
            "outputs": [
                {
                    "internalType": "uint256",
                    "name": "",
                    "type": "uint256"
                }
            ],
            "stateMutability": "view",
            "type": "function"
        },
        {
            "inputs": [],
            "name": "votePeriod",
            "outputs": [
                {
                    "internalType": "uint256",
                    "name": "",
                    "type": "uint256"
                }
            ],
            "stateMutability": "view",
            "type": "function"
        },
        {
            "inputs": [
                {
                    "internalType": "address",
                    "name": "shareholder",
                    "type": "address"
                },
                {
                    "internalType": "uint256",
                    "name": "amount",
                    "type": "uint256"
                }
            ],
            "name": "wrap",
            "outputs": [],
            "stateMutability": "nonpayable",
            "type": "function"
        },
        {
            "inputs": [],
            "name": "wrapped",
            "outputs": [
                {
                    "internalType": "contract IERC20",
                    "name": "",
                    "type": "address"
                }
            ],
            "stateMutability": "view",
            "type": "function"
        }
    ],
    "bytecode": "608060405262ed4e006004556000600b553480156200001d57600080fd5b5060405162002bdf38038062002bdf8339810160408190526200004091620001be565b6003805460ff19169055600a80546001600160a01b038087166001600160a01b031992831617909255600980549286169290911682179055600d839055600e829055604051636427ed9760e01b8152636427ed9790620000a690600090600401620002ce565b600060405180830381600087803b158015620000c157600080fd5b505af1158015620000d6573d6000803e3d6000fd5b50508651620000ef9250600f91506020880190620000fb565b5050505050506200032c565b8280546200010990620002d9565b90600052602060002090601f0160209004810192826200012d576000855562000178565b82601f106200014857805160ff191683800117855562000178565b8280016001018555821562000178579182015b82811115620001785782518255916020019190600101906200015b565b50620001869291506200018a565b5090565b5b808211156200018657600081556001016200018b565b80516001600160a01b0381168114620001b957600080fd5b919050565b600080600080600060a08688031215620001d6578081fd5b85516001600160401b0380821115620001ed578283fd5b818801915088601f83011262000201578283fd5b81518181111562000216576200021662000316565b604051601f8201601f19908116603f0116810190838211818310171562000241576200024162000316565b81604052828152602093508b848487010111156200025d578586fd5b8591505b8282101562000280578482018401518183018501529083019062000261565b828211156200029157858484830101525b9850620002a3915050888201620001a1565b95505050620002b560408701620001a1565b6060870151608090970151959894975095949392505050565b901515815260200190565b600281046001821680620002ee57607f821691505b602082108114156200031057634e487b7160e01b600052602260045260246000fd5b50919050565b634e487b7160e01b600052604160045260246000fd5b6128a3806200033c6000396000f3fe6080604052600436106102725760003560e01c806370a082311161014f578063a9059cbb116100c1578063d50256251161007a578063d5025625146106ed578063dcc7d4ad14610702578063dd62ed3e14610715578063de0e9a3e14610735578063eb470ebf14610755578063fcb79a7e1461077557610272565b8063a9059cbb14610633578063b40e80d114610653578063bf376c7a14610673578063c028df0614610693578063c45a0155146106a8578063c6788bdd146106bd57610272565b80639b56d6c9116101135780639b56d6c9146105895780639e4b5745146105a9578063a3ec1883146105be578063a457c2d7146105de578063a4c0ed36146105fe578063a78135871461061e57610272565b806370a082311461050a57806377e071ad1461052a5780637dc2cd981461054a5780638fd3ab801461055f57806395d89b411461057457610272565b8063313ce567116101e85780634000aea0116101ac5780634000aea01461046b57806342966c681461048b57806350e70d48146104ab57806360918117146104c05780636427ed97146104d55780636b03ed5f146104f557610272565b8063313ce567146103d457806332a7ae95146103f657806332bc320b14610416578063395093511461042b5780633bcc45ba1461044b57610272565b80631703a0181161023a5780631703a0181461033557806318160ddd1461034a5780631e3b9de51461035f57806323b872dd1461037f57806326773ddd1461039f5780632a0a4ed5146103bf57610272565b806306fdde03146102775780630832e470146102a2578063095ea7b3146102c45780630c6f0e5d146102f15780630cd865ec14610313575b600080fd5b34801561028357600080fd5b5061028c610795565b60405161029991906124d9565b60405180910390f35b3480156102ae57600080fd5b506102b76108f1565b6040516102999190612738565b3480156102d057600080fd5b506102e46102df366004612136565b6108f7565b6040516102999190612499565b3480156102fd57600080fd5b5061030661090d565b60405161029991906123d5565b34801561031f57600080fd5b5061033361032e366004612086565b61091c565b005b34801561034157600080fd5b506102b7610b2d565b34801561035657600080fd5b506102b7610b33565b34801561036b57600080fd5b5061030661037a366004612086565b610b39565b34801561038b57600080fd5b506102e461039a3660046120f6565b610b5a565b3480156103ab57600080fd5b506103336103ba3660046120be565b610bac565b3480156103cb57600080fd5b50610306610dca565b3480156103e057600080fd5b506103e9610e4c565b6040516102999190612741565b34801561040257600080fd5b50610333610411366004612086565b610e55565b34801561042257600080fd5b50610333611030565b34801561043757600080fd5b506102e4610446366004612136565b611056565b34801561045757600080fd5b50610306610466366004612086565b61108d565b34801561047757600080fd5b506102e4610486366004612161565b6110ae565b34801561049757600080fd5b506103336104a63660046122fe565b611131565b3480156104b757600080fd5b506103066111c4565b3480156104cc57600080fd5b506102b76111d3565b3480156104e157600080fd5b506103336104f03660046121e5565b6111d9565b34801561050157600080fd5b506103336111f8565b34801561051657600080fd5b506102b7610525366004612086565b611333565b34801561053657600080fd5b506102b7610545366004612086565b61134e565b34801561055657600080fd5b506102b7611424565b34801561056b57600080fd5b5061033361142a565b34801561058057600080fd5b5061028c6114c8565b34801561059557600080fd5b506102b76105a4366004612086565b61160b565b3480156105b557600080fd5b506102e4611629565b3480156105ca57600080fd5b506102e46105d9366004612086565b611630565b3480156105ea57600080fd5b506102e46105f9366004612136565b61164f565b34801561060a57600080fd5b50610333610619366004612161565b611686565b34801561062a57600080fd5b506102b76116ad565b34801561063f57600080fd5b506102e461064e366004612136565b6116b3565b34801561065f57600080fd5b506102e461066e366004612086565b6116c6565b34801561067f57600080fd5b5061033361068e366004612136565b6116db565b34801561069f57600080fd5b50610306611778565b3480156106b457600080fd5b50610306611787565b3480156106c957600080fd5b506106dd6106d8366004612086565b611796565b604051610299949392919061246e565b3480156106f957600080fd5b5061028c6117c8565b61033361071036600461221d565b611856565b34801561072157600080fd5b506102b76107303660046120be565b611a0d565b34801561074157600080fd5b506103336107503660046122fe565b611a38565b34801561076157600080fd5b506102b7610770366004612086565b611a5a565b34801561078157600080fd5b506103336107903660046120be565b611a78565b606061079f611629565b1561085457600960009054906101000a90046001600160a01b03166001600160a01b03166306fdde036040518163ffffffff1660e01b815260040160006040518083038186803b1580156107f257600080fd5b505afa158015610806573d6000803e3d6000fd5b505050506040513d6000823e601f3d908101601f1916820160405261082e9190810190612255565b60405160200161083e9190612373565b60405160208183030381529060405290506108ee565b600960009054906101000a90046001600160a01b03166001600160a01b03166306fdde036040518163ffffffff1660e01b815260040160006040518083038186803b1580156108a257600080fd5b505afa1580156108b6573d6000803e3d6000fd5b505050506040513d6000823e601f3d908101601f191682016040526108de9190810190612255565b60405160200161083e91906123a5565b90565b600b5481565b6000610904338484611aad565b50600192915050565b6007546001600160a01b031681565b6001600160a01b03808216600090815260056020908152604091829020825160808101845281548516815260018201549281018390526002820154938101939093526003015490921660608201819052909190816109955760405162461bcd60e51b815260040161098c906125d3565b60405180910390fd5b82516001600160a01b031633146109be5760405162461bcd60e51b815260040161098c9061250c565b4260045484604001516109d1919061274f565b11156109ef5760405162461bcd60e51b815260040161098c90612543565b82516001600160a01b0380861660009081526005602052604080822080546001600160a01b0319908116825560018201849055600282019390935560030180549092169091555163a9059cbb60e01b81529083169063a9059cbb90610a5a908490879060040161240d565b602060405180830381600087803b158015610a7457600080fd5b505af1158015610a88573d6000803e3d6000fd5b505050506040513d601f19601f82011682018060405250810190610aac9190612201565b610ac85760405162461bcd60e51b815260040161098c906125fb565b610adb8582610ad688611333565b611b08565b806001600160a01b0316856001600160a01b03167f52a5c2b28bc6eb9712d0ced43463103b486b13ccc9cda499fd3b2d7b6a74a8ee85604051610b1e9190612738565b60405180910390a35050505050565b600d5481565b60025490565b6001600160a01b03808216600090815260056020526040902054165b919050565b6000610b67848484611b08565b6001600160a01b038416600090815260016020908152604080832033808552925290912054610ba2918691610b9d9086906127a6565b611aad565b5060019392505050565b610bb581611630565b610bd15760405162461bcd60e51b815260040161098c90612632565b6000610bdc8361134e565b905060008111610bfe5760405162461bcd60e51b815260040161098c906125a3565b336000610c0a84611333565b90506000610c188483612787565b90508582610c385760405162461bcd60e51b815260040161098c906126ca565b6001600160a01b03861660009081526005602052604090206001015415610c715760405162461bcd60e51b815260040161098c90612667565b6040516323b872dd60e01b81526001600160a01b038216906323b872dd90610ca1908790309087906004016123e9565b602060405180830381600087803b158015610cbb57600080fd5b505af1158015610ccf573d6000803e3d6000fd5b505050506040513d601f19601f82011682018060405250810190610cf39190612201565b610d0f5760405162461bcd60e51b815260040161098c906125fb565b604080516080810182526001600160a01b038087168083526020808401878152428587019081528d8516606087019081528d86166000818152600590955293889020965187549087166001600160a01b0319918216178855925160018801559051600287015551600390950180549590941694169390931790915591517f1982ca8958fc8a8176cb52be509260f4bc5af7ce04e1533711793f1c56dd535990610db9908790612738565b60405180910390a350505050505050565b60095460408051632a0a4ed560e01b815290516000926001600160a01b031691632a0a4ed5916004808301926020929190829003018186803b158015610e0f57600080fd5b505afa158015610e23573d6000803e3d6000fd5b505050506040513d601f19601f82011682018060405250810190610e4791906120a2565b905090565b60035460ff1681565b610e5d610dca565b6001600160a01b0316336001600160a01b031614610e8d5760405162461bcd60e51b815260040161098c90612701565b6001600160a01b038082166000908152600560209081526040918290208251608081018452815485168152600182015492810183905260028201549381019390935260030154909216606082018190529091610efb5760405162461bcd60e51b815260040161098c906125d3565b6001600160a01b03808416600090815260056020908152604080832080546001600160a01b031990811682556001820185905560028201949094556003018054909316909255845190850151915163a9059cbb60e01b81529284169263a9059cbb92610f6a929160040161240d565b602060405180830381600087803b158015610f8457600080fd5b505af1158015610f98573d6000803e3d6000fd5b505050506040513d601f19601f82011682018060405250810190610fbc9190612201565b610fd85760405162461bcd60e51b815260040161098c906125fb565b81600001516001600160a01b0316836001600160a01b03167fbb036e629a9f4c0897ee5d48440dfdb36f7e772117723a2ed603a6514244c2d584602001516040516110239190612738565b60405180910390a3505050565b600c546001600160a01b031633141561105457600c80546001600160a01b03191690555b565b3360008181526001602090815260408083206001600160a01b03871684529091528120549091610904918590610b9d90869061274f565b6001600160a01b039081166000908152600560205260409020600301541690565b6000806110bb86866116b3565b9050801561112857604051635260769b60e11b81526001600160a01b0387169063a4c0ed36906110f5903390899089908990600401612426565b600060405180830381600087803b15801561110f57600080fd5b505af1158015611123573d6000803e3d6000fd5b505050505b95945050505050565b61113b3382611bc5565b6000611145611629565b61115157600b54611154565b60015b6009549091506001600160a01b03166342966c686111728385612787565b6040518263ffffffff1660e01b815260040161118e9190612738565b600060405180830381600087803b1580156111a857600080fd5b505af11580156111bc573d6000803e3d6000fd5b505050505050565b6009546001600160a01b031681565b60085481565b336000908152600660205260409020805460ff19169115919091179055565b3360009081526005602052604090206001015415611054573360008181526005602052604080822060018101805460038301805484546001600160a01b0319908116865593879055600290940195909555908216909355905163a9059cbb60e01b815291926001600160a01b0390911691829163a9059cbb916112809190869060040161240d565b602060405180830381600087803b15801561129a57600080fd5b505af11580156112ae573d6000803e3d6000fd5b505050506040513d601f19601f820116820180604052508101906112d29190612201565b6112ee5760405162461bcd60e51b815260040161098c906125fb565b336001600160a01b03167f203627483d943880619f4b7e0cca21dbefd6204b4d85b124eb99540e17ba86dd836040516113279190612738565b60405180910390a25050565b6001600160a01b031660009081526020819052604090205490565b60008061135a83611c5f565b90508015611369579050610b55565b6009546001600160a01b0384811691161415611389575050600b54610b55565b600b546009546040516377e071ad60e01b81526001600160a01b03909116906377e071ad906113bc9087906004016123d5565b60206040518083038186803b1580156113d457600080fd5b505afa1580156113e8573d6000803e3d6000fd5b505050506040513d601f19601f8201168201806040525081019061140c9190612316565b6114169190612787565b915050610b55565b50919050565b60045481565b33611433611ca1565b1561143d57600080fd5b611445610b33565b61145190611f40612787565b61145a82611333565b61146690612710612787565b10156114845760405162461bcd60e51b815260040161098c9061269e565b61148e8182611cb2565b7f3b6b79a09e9fd230e8591b65c97236bf7df7a604edf733db0658e66b0e6eb2a9816040516114bd91906123d5565b60405180910390a150565b60606114d2611629565b1561157157600960009054906101000a90046001600160a01b03166001600160a01b03166395d89b416040518163ffffffff1660e01b815260040160006040518083038186803b15801561152557600080fd5b505afa158015611539573d6000803e3d6000fd5b505050506040513d6000823e601f3d908101601f191682016040526115619190810190612255565b60405160200161083e919061232e565b600960009054906101000a90046001600160a01b03166001600160a01b03166395d89b416040518163ffffffff1660e01b815260040160006040518083038186803b1580156115bf57600080fd5b505afa1580156115d3573d6000803e3d6000fd5b505050506040513d6000823e601f3d908101601f191682016040526115fb9190810190612255565b60405160200161083e9190612357565b6001600160a01b031660009081526005602052604090206001015490565b600b541590565b6001600160a01b031660009081526006602052604090205460ff161590565b3360008181526001602090815260408083206001600160a01b03871684529091528120549091610904918590610b9d9086906127a6565b6009546001600160a01b0316331461169d57600080fd5b6116a78484611e7a565b50505050565b600e5481565b60006116bf8383611f1b565b9392505050565b60066020526000908152604090205460ff1681565b6009546040516323b872dd60e01b81526001600160a01b03909116906323b872dd9061170f903390309086906004016123e9565b602060405180830381600087803b15801561172957600080fd5b505af115801561173d573d6000803e3d6000fd5b505050506040513d601f19601f820116820180604052508101906117619190612201565b61176a57600080fd5b6117748282611e7a565b5050565b600c546001600160a01b031681565b600a546001600160a01b031681565b60056020526000908152604090208054600182015460028301546003909301546001600160a01b039283169391921684565b600f80546117d5906127e9565b80601f0160208091040260200160405190810160405280929190818152602001828054611801906127e9565b801561184e5780601f106118235761010080835404028352916020019161184e565b820191906000526020600020905b81548152906001019060200180831161183157829003601f168201915b505050505081565b61185e611629565b61186757600080fd5b600a54600d54600e54604051634dc5e43160e01b81526000936001600160a01b031692634dc5e4319234926118a8928a9233928b928b9290916004016124a4565b6020604051808303818588803b1580156118c157600080fd5b505af11580156118d5573d6000803e3d6000fd5b50505050506040513d601f19601f820116820180604052508101906118fa91906120a2565b9050611904611ca1565b156119e857806001600160a01b0316633f5e3e7f6040518163ffffffff1660e01b8152600401602060405180830381600087803b15801561194457600080fd5b505af1158015611958573d6000803e3d6000fd5b505050506040513d601f19601f8201168201806040525081019061197c9190612201565b61198557600080fd5b600c546040516306a169ed60e01b81526001600160a01b03909116906306a169ed906119b59084906004016123d5565b600060405180830381600087803b1580156119cf57600080fd5b505af11580156119e3573d6000803e3d6000fd5b505050505b600c80546001600160a01b0319166001600160a01b0392909216919091179055505050565b6001600160a01b03918216600090815260016020908152604080832093909416825291909152205490565b611a40611629565b15611a4a57600080fd5b611a573382600b54611f4b565b50565b6001600160a01b031660009081526005602052604090206002015490565b600c546001600160a01b03163314611a8f57600080fd5b611aa382611a9c84611333565b6001611f4b565b6117748183611cb2565b6001600160a01b0380841660008181526001602090815260408083209487168084529490915290819020849055517f8c5be1e5ebec7d5bd14f71427d1e84f3dd0314c0f7b2291e5b200ac8c7c3b92590611023908590612738565b6001600160a01b038216611b1b57600080fd5b611b26838383611fee565b6001600160a01b03831660009081526020819052604081208054839290611b4e9084906127a6565b90915550506001600160a01b03821660009081526020819052604081208054839290611b7b90849061274f565b92505081905550816001600160a01b0316836001600160a01b03167fddf252ad1be2c89b69c2b068fc378daa952ba7f163c4a11628f55a4df523b3ef836040516110239190612738565b611bd182600083611fee565b8060026000828254611be391906127a6565b90915550506001600160a01b03821660009081526020819052604081208054839290611c109084906127a6565b90915550506040516000906001600160a01b038416907fddf252ad1be2c89b69c2b068fc378daa952ba7f163c4a11628f55a4df523b3ef90611c53908590612738565b60405180910390a35050565b60006001600160a01b038216301415611c7a57506001610b55565b6007546001600160a01b0383811691161415611c995750600854610b55565b506000610b55565b600c546001600160a01b0316151590565b611cba611629565b611cc357600080fd5b6009546040516370a0823160e01b81526001600160a01b039091169063a9059cbb90839083906370a0823190611cfd9030906004016123d5565b60206040518083038186803b158015611d1557600080fd5b505afa158015611d29573d6000803e3d6000fd5b505050506040513d601f19601f82011682018060405250810190611d4d9190612316565b6040518363ffffffff1660e01b8152600401611d6a92919061240d565b602060405180830381600087803b158015611d8457600080fd5b505af1158015611d98573d6000803e3d6000fd5b505050506040513d601f19601f82011682018060405250810190611dbc9190612201565b611dc557600080fd5b600980546001600160a01b0319166001600160a01b038416179055611774611deb610b33565b6009546040516370a0823160e01b81526001600160a01b03909116906370a0823190611e1b9030906004016123d5565b60206040518083038186803b158015611e3357600080fd5b505afa158015611e47573d6000803e3d6000fd5b505050506040513d601f19601f82011682018060405250810190611e6b9190612316565b611e759190612767565b612066565b6001600160a01b038216611e8d57600080fd5b611e9960008383611fee565b8060026000828254611eab919061274f565b90915550506001600160a01b03821660009081526020819052604081208054839290611ed890849061274f565b90915550506040516001600160a01b038316906000907fddf252ad1be2c89b69c2b068fc378daa952ba7f163c4a11628f55a4df523b3ef90611c53908590612738565b6000611f278383612079565b611f435760405162461bcd60e51b815260040161098c9061257a565b6109046111f8565b611f558383611bc5565b6009546001600160a01b031663a9059cbb84611f718486612787565b6040518363ffffffff1660e01b8152600401611f8e92919061240d565b602060405180830381600087803b158015611fa857600080fd5b505af1158015611fbc573d6000803e3d6000fd5b505050506040513d601f19601f82011682018060405250810190611fe09190612201565b611fe957600080fd5b505050565b611ff6611ca1565b15611fe957600c5460405163e1a1810f60e01b81526001600160a01b039091169063e1a1810f9061202f908690869086906004016123e9565b600060405180830381600087803b15801561204957600080fd5b505af115801561205d573d6000803e3d6000fd5b50505050505050565b600181101561207457600080fd5b600b55565b6000610904338484611b08565b600060208284031215612097578081fd5b81356116bf8161284a565b6000602082840312156120b3578081fd5b81516116bf8161284a565b600080604083850312156120d0578081fd5b82356120db8161284a565b915060208301356120eb8161284a565b809150509250929050565b60008060006060848603121561210a578081fd5b83356121158161284a565b925060208401356121258161284a565b929592945050506040919091013590565b60008060408385031215612148578182fd5b82356121538161284a565b946020939093013593505050565b60008060008060608587031215612176578081fd5b84356121818161284a565b935060208501359250604085013567ffffffffffffffff808211156121a4578283fd5b818701915087601f8301126121b7578283fd5b8135818111156121c5578384fd5b8860208285010111156121d6578384fd5b95989497505060200194505050565b6000602082840312156121f6578081fd5b81356116bf8161285f565b600060208284031215612212578081fd5b81516116bf8161285f565b600080600060608486031215612231578283fd5b8335925060208401359150604084013561224a8161284a565b809150509250925092565b600060208284031215612266578081fd5b815167ffffffffffffffff8082111561227d578283fd5b818401915084601f830112612290578283fd5b8151818111156122a2576122a2612834565b604051601f8201601f19908116603f011681019083821181831017156122ca576122ca612834565b816040528281528760208487010111156122e2578586fd5b6122f38360208301602088016127bd565b979650505050505050565b60006020828403121561230f578081fd5b5035919050565b600060208284031215612327578081fd5b5051919050565b6000601160fa1b8252825161234a8160018501602087016127bd565b9190910160010192915050565b6000605760f81b8252825161234a8160018501602087016127bd565b6000690223930b3b3b0b13632960b51b8252825161239881600a8501602087016127bd565b91909101600a0192915050565b60006702bb930b83832b2160c51b825282516123c88160088501602087016127bd565b9190910160080192915050565b6001600160a01b0391909116815260200190565b6001600160a01b039384168152919092166020820152604081019190915260600190565b6001600160a01b03929092168252602082015260400190565b6001600160a01b0385168152602081018490526060604082018190528101829052600082846080840137818301608090810191909152601f909201601f191601019392505050565b6001600160a01b03948516815260208101939093526040830191909152909116606082015260800190565b901515815260200190565b9586526001600160a01b039485166020870152604086019390935292166060840152608083019190915260a082015260c00190565b60006020825282518060208401526124f88160408501602087016127bd565b601f01601f19169190910160400192915050565b6020808252601f908201527f4f6e6c7920636c61696d616e742063616e207265736f6c766520636c61696d00604082015260600190565b60208082526019908201527f436c61696d20706572696f64206e6f74206f7665722079657400000000000000604082015260600190565b6020808252600f908201526e151c985b9cd9995c8819985a5b1959608a1b604082015260600190565b602080825260169082015275155b9cdd5c1c1bdc9d19590818dbdb1b185d195c985b60521b604082015260600190565b6020808252600e908201526d139bc818db185a5b48199bdd5b9960921b604082015260600190565b6020808252601a908201527f436f6c6c61746572616c207472616e73666572206661696c6564000000000000604082015260600190565b6020808252818101527f436c61696d732064697361626c656420666f7220746869732061646472657373604082015260600190565b60208082526017908201527f4164647265737320616c726561647920636c61696d6564000000000000000000604082015260600190565b602080825260129082015271145d5bdc9d5b481b9bdd081c995858da195960721b604082015260600190565b6020808252601f908201527f436c61696d6564206164647265737320686f6c6473206e6f2073686172657300604082015260600190565b60208082526018908201527f596f752063616e6e6f742064656c65746520636c61696d730000000000000000604082015260600190565b90815260200190565b60ff91909116815260200190565b600082198211156127625761276261281e565b500190565b60008261278257634e487b7160e01b81526012600452602481fd5b500490565b60008160001904831182151516156127a1576127a161281e565b500290565b6000828210156127b8576127b861281e565b500390565b60005b838110156127d85781810151838201526020016127c0565b838111156116a75750506000910152565b6002810460018216806127fd57607f821691505b6020821081141561141e57634e487b7160e01b600052602260045260246000fd5b634e487b7160e01b600052601160045260246000fd5b634e487b7160e01b600052604160045260246000fd5b6001600160a01b0381168114611a5757600080fd5b8015158114611a5757600080fdfea2646970667358221220d0f14521c293fe962159c01fb4a60e9f1b718f0e199f1b629f370472c2098d9664736f6c63430008010033",
    "sourcePath": "c:/Users/luziu/Documents/aktionariat/contracts/src/DraggableShares.sol",
    "compiler": {
        "name": "solc",
        "version": "0.8.1+commit.df193b15"
    },
    "functionHashes": {
        "allowance(address,address)": "dd62ed3e",
        "approve(address,uint256)": "095ea7b3",
        "balanceOf(address)": "70a08231",
        "burn(uint256)": "42966c68",
        "claimPeriod()": "7dc2cd98",
        "claims(address)": "c6788bdd",
        "clearClaim()": "6b03ed5f",
        "customCollateralAddress()": "0c6f0e5d",
        "customCollateralRate()": "60918117",
        "decimals()": "313ce567",
        "declareLost(address,address)": "26773ddd",
        "decreaseAllowance(address,uint256)": "a457c2d7",
        "deleteClaim(address)": "32a7ae95",
        "drag(address,address)": "fcb79a7e",
        "factory()": "c45a0155",
        "getClaimDeleter()": "2a0a4ed5",
        "getClaimant(address)": "1e3b9de5",
        "getCollateral(address)": "9b56d6c9",
        "getCollateralRate(address)": "77e071ad",
        "getCollateralType(address)": "3bcc45ba",
        "getTimeStamp(address)": "eb470ebf",
        "increaseAllowance(address,uint256)": "39509351",
        "isBinding()": "9e4b5745",
        "isRecoveryEnabled(address)": "a3ec1883",
        "makeAcquisitionOffer(bytes32,uint256,address)": "dcc7d4ad",
        "migrate()": "8fd3ab80",
        "name()": "06fdde03",
        "notifyOfferEnded()": "32bc320b",
        "offer()": "c028df06",
        "onTokenTransfer(address,uint256,bytes)": "a4c0ed36",
        "quorum()": "1703a018",
        "recover(address)": "0cd865ec",
        "recoveryDisabled(address)": "b40e80d1",
        "setRecoverable(bool)": "6427ed97",
        "symbol()": "95d89b41",
        "terms()": "d5025625",
        "totalSupply()": "18160ddd",
        "transfer(address,uint256)": "a9059cbb",
        "transferAndCall(address,uint256,bytes)": "4000aea0",
        "transferFrom(address,address,uint256)": "23b872dd",
        "unwrap(uint256)": "de0e9a3e",
        "unwrapConversionFactor()": "0832e470",
        "votePeriod()": "a7813587",
        "wrap(address,uint256)": "bf376c7a",
        "wrapped()": "50e70d48"
    },
    "gasEstimates": {
        "creation": {
            "codeDepositCost": "2080600",
            "executionCost": "infinite",
            "totalCost": "infinite"
        },
        "external": {
            "allowance(address,address)": "infinite",
            "approve(address,uint256)": "22571",
            "balanceOf(address)": "1313",
            "burn(uint256)": "infinite",
            "claimPeriod()": "1118",
            "claims(address)": "3972",
            "clearClaim()": "infinite",
            "customCollateralAddress()": "1183",
            "customCollateralRate()": "1139",
            "decimals()": "1092",
            "declareLost(address,address)": "infinite",
            "decreaseAllowance(address,uint256)": "23626",
            "deleteClaim(address)": "infinite",
            "drag(address,address)": "infinite",
            "factory()": "1203",
            "getClaimDeleter()": "infinite",
            "getClaimant(address)": "1393",
            "getCollateral(address)": "1315",
            "getCollateralRate(address)": "infinite",
            "getCollateralType(address)": "1437",
            "getTimeStamp(address)": "1402",
            "increaseAllowance(address,uint256)": "23630",
            "isBinding()": "1104",
            "isRecoveryEnabled(address)": "1368",
            "makeAcquisitionOffer(bytes32,uint256,address)": "infinite",
            "migrate()": "infinite",
            "name()": "infinite",
            "notifyOfferEnded()": "21907",
            "offer()": "1181",
            "onTokenTransfer(address,uint256,bytes)": "infinite",
            "quorum()": "1074",
            "recover(address)": "infinite",
            "recoveryDisabled(address)": "1325",
            "setRecoverable(bool)": "21321",
            "symbol()": "infinite",
            "terms()": "infinite",
            "totalSupply()": "1096",
            "transfer(address,uint256)": "infinite",
            "transferAndCall(address,uint256,bytes)": "infinite",
            "transferFrom(address,address,uint256)": "infinite",
            "unwrap(uint256)": "infinite",
            "unwrapConversionFactor()": "1097",
            "votePeriod()": "1183",
            "wrap(address,uint256)": "infinite",
            "wrapped()": "1159"
        }
    }
}