{
    "contractName": "DraggableShares",
    "abi": [
        {
            "inputs": [
                {
                    "internalType": "string",
                    "name": "_terms",
                    "type": "string"
                },
                {
                    "internalType": "address",
                    "name": "wrappedToken",
                    "type": "address"
                },
                {
                    "internalType": "uint256",
                    "name": "quorumBps",
                    "type": "uint256"
                },
                {
                    "internalType": "uint256",
                    "name": "votePeriodSeconds",
                    "type": "uint256"
                }
            ],
            "stateMutability": "nonpayable",
            "type": "constructor"
        },
        {
            "anonymous": false,
            "inputs": [
                {
                    "indexed": true,
                    "internalType": "address",
                    "name": "owner",
                    "type": "address"
                },
                {
                    "indexed": true,
                    "internalType": "address",
                    "name": "spender",
                    "type": "address"
                },
                {
                    "indexed": false,
                    "internalType": "uint256",
                    "name": "value",
                    "type": "uint256"
                }
            ],
            "name": "Approval",
            "type": "event"
        },
        {
            "anonymous": false,
            "inputs": [
                {
                    "indexed": true,
                    "internalType": "address",
                    "name": "lostAddress",
                    "type": "address"
                },
                {
                    "indexed": false,
                    "internalType": "uint256",
                    "name": "collateral",
                    "type": "uint256"
                }
            ],
            "name": "ClaimCleared",
            "type": "event"
        },
        {
            "anonymous": false,
            "inputs": [
                {
                    "indexed": true,
                    "internalType": "address",
                    "name": "lostAddress",
                    "type": "address"
                },
                {
                    "indexed": true,
                    "internalType": "address",
                    "name": "claimant",
                    "type": "address"
                },
                {
                    "indexed": false,
                    "internalType": "uint256",
                    "name": "collateral",
                    "type": "uint256"
                }
            ],
            "name": "ClaimDeleted",
            "type": "event"
        },
        {
            "anonymous": false,
            "inputs": [
                {
                    "indexed": true,
                    "internalType": "address",
                    "name": "lostAddress",
                    "type": "address"
                },
                {
                    "indexed": true,
                    "internalType": "address",
                    "name": "claimant",
                    "type": "address"
                },
                {
                    "indexed": false,
                    "internalType": "uint256",
                    "name": "balance",
                    "type": "uint256"
                }
            ],
            "name": "ClaimMade",
            "type": "event"
        },
        {
            "anonymous": false,
            "inputs": [
                {
                    "indexed": true,
                    "internalType": "address",
                    "name": "lostAddress",
                    "type": "address"
                },
                {
                    "indexed": true,
                    "internalType": "address",
                    "name": "claimant",
                    "type": "address"
                },
                {
                    "indexed": false,
                    "internalType": "uint256",
                    "name": "collateral",
                    "type": "uint256"
                }
            ],
            "name": "ClaimResolved",
            "type": "event"
        },
        {
            "anonymous": false,
            "inputs": [
                {
                    "indexed": false,
                    "internalType": "address",
                    "name": "newCustomCollateralAddress",
                    "type": "address"
                },
                {
                    "indexed": false,
                    "internalType": "uint256",
                    "name": "newCustomCollareralRate",
                    "type": "uint256"
                }
            ],
            "name": "CustomClaimCollateralChanged",
            "type": "event"
        },
        {
            "anonymous": false,
            "inputs": [
                {
                    "indexed": false,
                    "internalType": "address",
                    "name": "newContractAddress",
                    "type": "address"
                }
            ],
            "name": "MigrationSucceeded",
            "type": "event"
        },
        {
            "anonymous": false,
            "inputs": [
                {
                    "indexed": false,
                    "internalType": "uint256",
                    "name": "time",
                    "type": "uint256"
                }
            ],
            "name": "TimeStamp",
            "type": "event"
        },
        {
            "anonymous": false,
            "inputs": [
                {
                    "indexed": true,
                    "internalType": "address",
                    "name": "from",
                    "type": "address"
                },
                {
                    "indexed": true,
                    "internalType": "address",
                    "name": "to",
                    "type": "address"
                },
                {
                    "indexed": false,
                    "internalType": "uint256",
                    "name": "value",
                    "type": "uint256"
                }
            ],
            "name": "Transfer",
            "type": "event"
        },
        {
            "inputs": [
                {
                    "internalType": "address",
                    "name": "owner",
                    "type": "address"
                },
                {
                    "internalType": "address",
                    "name": "spender",
                    "type": "address"
                }
            ],
            "name": "allowance",
            "outputs": [
                {
                    "internalType": "uint256",
                    "name": "",
                    "type": "uint256"
                }
            ],
            "stateMutability": "view",
            "type": "function"
        },
        {
            "inputs": [
                {
                    "internalType": "address",
                    "name": "spender",
                    "type": "address"
                },
                {
                    "internalType": "uint256",
                    "name": "value",
                    "type": "uint256"
                }
            ],
            "name": "approve",
            "outputs": [
                {
                    "internalType": "bool",
                    "name": "",
                    "type": "bool"
                }
            ],
            "stateMutability": "nonpayable",
            "type": "function"
        },
        {
            "inputs": [
                {
                    "internalType": "address",
                    "name": "account",
                    "type": "address"
                }
            ],
            "name": "balanceOf",
            "outputs": [
                {
                    "internalType": "uint256",
                    "name": "",
                    "type": "uint256"
                }
            ],
            "stateMutability": "view",
            "type": "function"
        },
        {
            "inputs": [
                {
                    "internalType": "uint256",
                    "name": "amount",
                    "type": "uint256"
                }
            ],
            "name": "burn",
            "outputs": [],
            "stateMutability": "nonpayable",
            "type": "function"
        },
        {
            "inputs": [],
            "name": "claimPeriod",
            "outputs": [
                {
                    "internalType": "uint256",
                    "name": "",
                    "type": "uint256"
                }
            ],
            "stateMutability": "view",
            "type": "function"
        },
        {
            "inputs": [
                {
                    "internalType": "address",
                    "name": "",
                    "type": "address"
                }
            ],
            "name": "claims",
            "outputs": [
                {
                    "internalType": "address",
                    "name": "claimant",
                    "type": "address"
                },
                {
                    "internalType": "uint256",
                    "name": "collateral",
                    "type": "uint256"
                },
                {
                    "internalType": "uint256",
                    "name": "timestamp",
                    "type": "uint256"
                },
                {
                    "internalType": "address",
                    "name": "currencyUsed",
                    "type": "address"
                }
            ],
            "stateMutability": "view",
            "type": "function"
        },
        {
            "inputs": [],
            "name": "clearClaim",
            "outputs": [],
            "stateMutability": "nonpayable",
            "type": "function"
        },
        {
            "inputs": [],
            "name": "customCollateralAddress",
            "outputs": [
                {
                    "internalType": "address",
                    "name": "",
                    "type": "address"
                }
            ],
            "stateMutability": "view",
            "type": "function"
        },
        {
            "inputs": [],
            "name": "customCollateralRate",
            "outputs": [
                {
                    "internalType": "uint256",
                    "name": "",
                    "type": "uint256"
                }
            ],
            "stateMutability": "view",
            "type": "function"
        },
        {
            "inputs": [],
            "name": "decimals",
            "outputs": [
                {
                    "internalType": "uint8",
                    "name": "",
                    "type": "uint8"
                }
            ],
            "stateMutability": "view",
            "type": "function"
        },
        {
            "inputs": [
                {
                    "internalType": "address",
                    "name": "collateralType",
                    "type": "address"
                },
                {
                    "internalType": "address",
                    "name": "lostAddress",
                    "type": "address"
                }
            ],
            "name": "declareLost",
            "outputs": [],
            "stateMutability": "nonpayable",
            "type": "function"
        },
        {
            "inputs": [
                {
                    "internalType": "address",
                    "name": "lostAddress",
                    "type": "address"
                }
            ],
            "name": "deleteClaim",
            "outputs": [],
            "stateMutability": "nonpayable",
            "type": "function"
        },
        {
            "inputs": [],
            "name": "disableRecovery",
            "outputs": [],
            "stateMutability": "nonpayable",
            "type": "function"
        },
        {
            "inputs": [
                {
                    "internalType": "address",
                    "name": "buyer",
                    "type": "address"
                },
                {
                    "internalType": "address",
                    "name": "currency",
                    "type": "address"
                }
            ],
            "name": "drag",
            "outputs": [],
            "stateMutability": "nonpayable",
            "type": "function"
        },
        {
            "inputs": [],
            "name": "factory",
            "outputs": [
                {
                    "internalType": "contract IOfferFactory",
                    "name": "",
                    "type": "address"
                }
            ],
            "stateMutability": "view",
            "type": "function"
        },
        {
            "inputs": [],
            "name": "getClaimDeleter",
            "outputs": [
                {
                    "internalType": "address",
                    "name": "",
                    "type": "address"
                }
            ],
            "stateMutability": "view",
            "type": "function"
        },
        {
            "inputs": [
                {
                    "internalType": "address",
                    "name": "lostAddress",
                    "type": "address"
                }
            ],
            "name": "getClaimant",
            "outputs": [
                {
                    "internalType": "address",
                    "name": "",
                    "type": "address"
                }
            ],
            "stateMutability": "view",
            "type": "function"
        },
        {
            "inputs": [
                {
                    "internalType": "address",
                    "name": "lostAddress",
                    "type": "address"
                }
            ],
            "name": "getCollateral",
            "outputs": [
                {
                    "internalType": "uint256",
                    "name": "",
                    "type": "uint256"
                }
            ],
            "stateMutability": "view",
            "type": "function"
        },
        {
            "inputs": [
                {
                    "internalType": "address",
                    "name": "collateralType",
                    "type": "address"
                }
            ],
            "name": "getCollateralRate",
            "outputs": [
                {
                    "internalType": "uint256",
                    "name": "",
                    "type": "uint256"
                }
            ],
            "stateMutability": "view",
            "type": "function"
        },
        {
            "inputs": [
                {
                    "internalType": "address",
                    "name": "lostAddress",
                    "type": "address"
                }
            ],
            "name": "getCollateralType",
            "outputs": [
                {
                    "internalType": "address",
                    "name": "",
                    "type": "address"
                }
            ],
            "stateMutability": "view",
            "type": "function"
        },
        {
            "inputs": [
                {
                    "internalType": "address",
                    "name": "lostAddress",
                    "type": "address"
                }
            ],
            "name": "getTimeStamp",
            "outputs": [
                {
                    "internalType": "uint256",
                    "name": "",
                    "type": "uint256"
                }
            ],
            "stateMutability": "view",
            "type": "function"
        },
        {
            "inputs": [],
            "name": "isBinding",
            "outputs": [
                {
                    "internalType": "bool",
                    "name": "",
                    "type": "bool"
                }
            ],
            "stateMutability": "view",
            "type": "function"
        },
        {
            "inputs": [
                {
                    "internalType": "address",
                    "name": "target",
                    "type": "address"
                }
            ],
            "name": "isRecoveryEnabled",
            "outputs": [
                {
                    "internalType": "bool",
                    "name": "",
                    "type": "bool"
                }
            ],
            "stateMutability": "view",
            "type": "function"
        },
        {
            "inputs": [
                {
                    "internalType": "bytes32",
                    "name": "salt",
                    "type": "bytes32"
                },
                {
                    "internalType": "uint256",
                    "name": "pricePerShare",
                    "type": "uint256"
                },
                {
                    "internalType": "address",
                    "name": "currency",
                    "type": "address"
                }
            ],
            "name": "makeAcquisitionOffer",
            "outputs": [],
            "stateMutability": "payable",
            "type": "function"
        },
        {
            "inputs": [],
            "name": "migrate",
            "outputs": [],
            "stateMutability": "nonpayable",
            "type": "function"
        },
        {
            "inputs": [],
            "name": "name",
            "outputs": [
                {
                    "internalType": "string",
                    "name": "",
                    "type": "string"
                }
            ],
            "stateMutability": "view",
            "type": "function"
        },
        {
            "inputs": [],
            "name": "notifyOfferEnded",
            "outputs": [],
            "stateMutability": "nonpayable",
            "type": "function"
        },
        {
            "inputs": [],
            "name": "offer",
            "outputs": [
                {
                    "internalType": "contract IOffer",
                    "name": "",
                    "type": "address"
                }
            ],
            "stateMutability": "view",
            "type": "function"
        },
        {
            "inputs": [
                {
                    "internalType": "address",
                    "name": "from",
                    "type": "address"
                },
                {
                    "internalType": "uint256",
                    "name": "amount",
                    "type": "uint256"
                },
                {
                    "internalType": "bytes",
                    "name": "",
                    "type": "bytes"
                }
            ],
            "name": "onTokenTransfer",
            "outputs": [
                {
                    "internalType": "bool",
                    "name": "",
                    "type": "bool"
                }
            ],
            "stateMutability": "nonpayable",
            "type": "function"
        },
        {
            "inputs": [],
            "name": "quorum",
            "outputs": [
                {
                    "internalType": "uint256",
                    "name": "",
                    "type": "uint256"
                }
            ],
            "stateMutability": "view",
            "type": "function"
        },
        {
            "inputs": [
                {
                    "internalType": "address",
                    "name": "lostAddress",
                    "type": "address"
                }
            ],
            "name": "recover",
            "outputs": [],
            "stateMutability": "nonpayable",
            "type": "function"
        },
        {
            "inputs": [
                {
                    "internalType": "address",
                    "name": "",
                    "type": "address"
                }
            ],
            "name": "recoveryDisabled",
            "outputs": [
                {
                    "internalType": "bool",
                    "name": "",
                    "type": "bool"
                }
            ],
            "stateMutability": "view",
            "type": "function"
        },
        {
            "inputs": [
                {
                    "internalType": "bool",
                    "name": "enabled",
                    "type": "bool"
                }
            ],
            "name": "setRecoverable",
            "outputs": [],
            "stateMutability": "nonpayable",
            "type": "function"
        },
        {
            "inputs": [],
            "name": "symbol",
            "outputs": [
                {
                    "internalType": "string",
                    "name": "",
                    "type": "string"
                }
            ],
            "stateMutability": "view",
            "type": "function"
        },
        {
            "inputs": [],
            "name": "terms",
            "outputs": [
                {
                    "internalType": "string",
                    "name": "",
                    "type": "string"
                }
            ],
            "stateMutability": "view",
            "type": "function"
        },
        {
            "inputs": [],
            "name": "totalSupply",
            "outputs": [
                {
                    "internalType": "uint256",
                    "name": "",
                    "type": "uint256"
                }
            ],
            "stateMutability": "view",
            "type": "function"
        },
        {
            "inputs": [
                {
                    "internalType": "address",
                    "name": "to",
                    "type": "address"
                },
                {
                    "internalType": "uint256",
                    "name": "value",
                    "type": "uint256"
                }
            ],
            "name": "transfer",
            "outputs": [
                {
                    "internalType": "bool",
                    "name": "",
                    "type": "bool"
                }
            ],
            "stateMutability": "nonpayable",
            "type": "function"
        },
        {
            "inputs": [
                {
                    "internalType": "address",
                    "name": "recipient",
                    "type": "address"
                },
                {
                    "internalType": "uint256",
                    "name": "amount",
                    "type": "uint256"
                },
                {
                    "internalType": "bytes",
                    "name": "data",
                    "type": "bytes"
                }
            ],
            "name": "transferAndCall",
            "outputs": [
                {
                    "internalType": "bool",
                    "name": "",
                    "type": "bool"
                }
            ],
            "stateMutability": "nonpayable",
            "type": "function"
        },
        {
            "inputs": [
                {
                    "internalType": "address",
                    "name": "sender",
                    "type": "address"
                },
                {
                    "internalType": "address",
                    "name": "recipient",
                    "type": "address"
                },
                {
                    "internalType": "uint256",
                    "name": "amount",
                    "type": "uint256"
                }
            ],
            "name": "transferFrom",
            "outputs": [
                {
                    "internalType": "bool",
                    "name": "",
                    "type": "bool"
                }
            ],
            "stateMutability": "nonpayable",
            "type": "function"
        },
        {
            "inputs": [
                {
                    "internalType": "uint256",
                    "name": "amount",
                    "type": "uint256"
                }
            ],
            "name": "unwrap",
            "outputs": [],
            "stateMutability": "nonpayable",
            "type": "function"
        },
        {
            "inputs": [],
            "name": "unwrapConversionFactor",
            "outputs": [
                {
                    "internalType": "uint256",
                    "name": "",
                    "type": "uint256"
                }
            ],
            "stateMutability": "view",
            "type": "function"
        },
        {
            "inputs": [],
            "name": "votePeriod",
            "outputs": [
                {
                    "internalType": "uint256",
                    "name": "",
                    "type": "uint256"
                }
            ],
            "stateMutability": "view",
            "type": "function"
        },
        {
            "inputs": [
                {
                    "internalType": "address",
                    "name": "shareholder",
                    "type": "address"
                },
                {
                    "internalType": "uint256",
                    "name": "amount",
                    "type": "uint256"
                }
            ],
            "name": "wrap",
            "outputs": [],
            "stateMutability": "nonpayable",
            "type": "function"
        },
        {
            "inputs": [],
            "name": "wrapped",
            "outputs": [
                {
                    "internalType": "contract IERC20",
                    "name": "",
                    "type": "address"
                }
            ],
            "stateMutability": "view",
            "type": "function"
        }
    ],
    "bytecode": "608060405260006009553480156200001657600080fd5b50604051620029183803806200291883398101604081905262000039916200014b565b6003805460ff19169055600880546001600160a01b0319166001600160a01b038516179055600b829055600c81905583516200007d90600d90602087019062000088565b50505050506200029f565b82805462000096906200024c565b90600052602060002090601f016020900481019282620000ba576000855562000105565b82601f10620000d557805160ff191683800117855562000105565b8280016001018555821562000105579182015b8281111562000105578251825591602001919060010190620000e8565b506200011392915062000117565b5090565b5b8082111562000113576000815560010162000118565b80516001600160a01b03811681146200014657600080fd5b919050565b600080600080608085870312156200016257600080fd5b84516001600160401b03808211156200017a57600080fd5b818701915087601f8301126200018f57600080fd5b815181811115620001a457620001a462000289565b604051601f8201601f19908116603f01168101908382118183101715620001cf57620001cf62000289565b81604052828152602093508a84848701011115620001ec57600080fd5b600091505b82821015620002105784820184015181830185015290830190620001f1565b82821115620002225760008484830101525b9750620002349150508782016200012e565b60408801516060909801519699909850945050505050565b600181811c908216806200026157607f821691505b602082108114156200028357634e487b7160e01b600052602260045260246000fd5b50919050565b634e487b7160e01b600052604160045260246000fd5b61266980620002af6000396000f3fe6080604052600436106102675760003560e01c806377e071ad11610144578063b40e80d1116100b6578063d50256251161007a578063d5025625146107ff578063dcc7d4ad14610814578063dd62ed3e14610827578063de0e9a3e1461086d578063eb470ebf1461088d578063fcb79a7e146108c657600080fd5b8063b40e80d1146106eb578063bf376c7a1461071b578063c028df061461073b578063c45a01551461075b578063c6788bdd1461078357600080fd5b80639b56d6c9116101085780639b56d6c91461060c5780639e4b574514610645578063a3ec18831461065b578063a4c0ed3614610695578063a7813587146106b5578063a9059cbb146106cb57600080fd5b806377e071ad146105965780637dc2cd98146105b65780638fd3ab80146105cd5780638ff8831b146105e257806395d89b41146105f757600080fd5b8063313ce567116101dd57806342966c68116101a157806342966c68146104bb57806350e70d48146104db57806360918117146104fb5780636427ed97146105115780636b03ed5f1461054b57806370a082311461056057600080fd5b8063313ce567146103fe57806332a7ae951461042a57806332bc320b1461044a5780633bcc45ba1461045f5780634000aea01461049b57600080fd5b80631703a0181161022f5780631703a0181461034557806318160ddd1461035b5780631e3b9de51461037057806323b872dd146103a957806326773ddd146103c95780632a0a4ed5146103e957600080fd5b806306fdde031461026c5780630832e47014610297578063095ea7b3146102bb5780630c6f0e5d146102eb5780630cd865ec14610323575b600080fd5b34801561027857600080fd5b506102816108e6565b60405161028e91906124e0565b60405180910390f35b3480156102a357600080fd5b506102ad60095481565b60405190815260200161028e565b3480156102c757600080fd5b506102db6102d6366004612216565b610a3f565b604051901515815260200161028e565b3480156102f757600080fd5b5060065461030b906001600160a01b031681565b6040516001600160a01b03909116815260200161028e565b34801561032f57600080fd5b5061034361033e366004612162565b610a55565b005b34801561035157600080fd5b506102ad600b5481565b34801561036757600080fd5b506002546102ad565b34801561037c57600080fd5b5061030b61038b366004612162565b6001600160a01b039081166000908152600460205260409020541690565b3480156103b557600080fd5b506102db6103c43660046121d5565b610cc6565b3480156103d557600080fd5b506103436103e436600461219c565b610d22565b3480156103f557600080fd5b5061030b610fd5565b34801561040a57600080fd5b506003546104189060ff1681565b60405160ff909116815260200161028e565b34801561043657600080fd5b50610343610445366004612162565b611057565b34801561045657600080fd5b5061034361126c565b34801561046b57600080fd5b5061030b61047a366004612162565b6001600160a01b039081166000908152600460205260409020600301541690565b3480156104a757600080fd5b506102db6104b6366004612242565b611292565b3480156104c757600080fd5b506103436104d63660046123eb565b611337565b3480156104e757600080fd5b5060085461030b906001600160a01b031681565b34801561050757600080fd5b506102ad60075481565b34801561051d57600080fd5b5061034361052c3660046122cb565b336000908152600560205260409020805460ff19169115919091179055565b34801561055757600080fd5b506103436113ce565b34801561056c57600080fd5b506102ad61057b366004612162565b6001600160a01b031660009081526020819052604090205490565b3480156105a257600080fd5b506102ad6105b1366004612162565b6114ec565b3480156105c257600080fd5b506102ad62ed4e0081565b3480156105d957600080fd5b506103436115bd565b3480156105ee57600080fd5b50610343611697565b34801561060357600080fd5b506102816116f7565b34801561061857600080fd5b506102ad610627366004612162565b6001600160a01b031660009081526004602052604090206001015490565b34801561065157600080fd5b50600954156102db565b34801561066757600080fd5b506102db610676366004612162565b6001600160a01b031660009081526005602052604090205460ff161590565b3480156106a157600080fd5b506102db6106b0366004612242565b611788565b3480156106c157600080fd5b506102ad600c5481565b3480156106d757600080fd5b506102db6106e6366004612216565b6117ac565b3480156106f757600080fd5b506102db610706366004612162565b60056020526000908152604090205460ff1681565b34801561072757600080fd5b50610343610736366004612216565b6117b8565b34801561074757600080fd5b50600a5461030b906001600160a01b031681565b34801561076757600080fd5b5061030b73f9f92751f272f0872e2edb6a280b0990f3e2b8a381565b34801561078f57600080fd5b506107d061079e366004612162565b60046020526000908152604090208054600182015460028301546003909301546001600160a01b039283169391921684565b604080516001600160a01b0395861681526020810194909452830191909152909116606082015260800161028e565b34801561080b57600080fd5b50610281611859565b610343610822366004612305565b6118e7565b34801561083357600080fd5b506102ad61084236600461219c565b6001600160a01b03918216600090815260016020908152604080832093909416825291909152205490565b34801561087957600080fd5b506103436108883660046123eb565b611afc565b34801561089957600080fd5b506102ad6108a8366004612162565b6001600160a01b031660009081526004602052604090206002015490565b3480156108d257600080fd5b506103436108e136600461219c565b611b18565b60606108f26009541590565b156109a557600860009054906101000a90046001600160a01b03166001600160a01b03166306fdde036040518163ffffffff1660e01b815260040160006040518083038186803b15801561094557600080fd5b505afa158015610959573d6000803e3d6000fd5b505050506040513d6000823e601f3d908101601f19168201604052610981919081019061233e565b604051602001610991919061244b565b604051602081830303815290604052905090565b600860009054906101000a90046001600160a01b03166001600160a01b03166306fdde036040518163ffffffff1660e01b815260040160006040518083038186803b1580156109f357600080fd5b505afa158015610a07573d6000803e3d6000fd5b505050506040513d6000823e601f3d908101601f19168201604052610a2f919081019061233e565b604051602001610991919061241d565b6000610a4c338484611b63565b50600192915050565b6001600160a01b0380821660009081526004602090815260409182902082516080810184528154851681526001820154928101839052600282015493810193909352600301549092166060820181905290919081610ae65760405162461bcd60e51b81526020600482015260096024820152681b9bdd08199bdd5b9960ba1b60448201526064015b60405180910390fd5b82516001600160a01b03163314610b2e5760405162461bcd60e51b815260206004820152600c60248201526b1b9bdd0818db185a5b585b9d60a21b6044820152606401610add565b4262ed4e008460400151610b429190612513565b1115610b7c5760405162461bcd60e51b8152602060048201526009602482015268746f6f206561726c7960b81b6044820152606401610add565b82516001600160a01b03858116600090815260046020819052604080832080546001600160a01b031990811682556001820185905560028201949094556003018054909316909255905163a9059cbb60e01b815282841691810191909152602481018590529083169063a9059cbb90604401602060405180830381600087803b158015610c0857600080fd5b505af1158015610c1c573d6000803e3d6000fd5b505050506040513d601f19601f82011682018060405250810190610c4091906122e8565b610c4957600080fd5b610c728582610c6d886001600160a01b031660009081526020819052604090205490565b611bbc565b806001600160a01b0316856001600160a01b03167f52a5c2b28bc6eb9712d0ced43463103b486b13ccc9cda499fd3b2d7b6a74a8ee85604051610cb791815260200190565b60405180910390a35050505050565b6000610cd3848484611bbc565b6001600160a01b0384166000908152600160209081526040808320338452909152902054600160ff1b811015610d1757610d178533610d12868561256c565b611b63565b506001949350505050565b6001600160a01b03811660009081526005602052604090205460ff1615610d765760405162461bcd60e51b8152602060048201526008602482015267191a5cd8589b195960c21b6044820152606401610add565b6000610d81836114ec565b905060008111610dc45760405162461bcd60e51b815260206004820152600e60248201526d1898590818dbdb1b185d195c985b60921b6044820152606401610add565b336000610de6846001600160a01b031660009081526020819052604090205490565b90506000610df4848361254d565b90508582610e2c5760405162461bcd60e51b8152602060048201526005602482015264656d70747960d81b6044820152606401610add565b6001600160a01b03861660009081526004602052604090206001015415610e875760405162461bcd60e51b815260206004820152600f60248201526e185b1c9958591e4818db185a5b5959608a1b6044820152606401610add565b6040516323b872dd60e01b81526001600160a01b038581166004830152306024830152604482018490528216906323b872dd90606401602060405180830381600087803b158015610ed757600080fd5b505af1158015610eeb573d6000803e3d6000fd5b505050506040513d601f19601f82011682018060405250810190610f0f91906122e8565b610f1857600080fd5b604080516080810182526001600160a01b038087168083526020808401878152428587019081528d8516606087019081528d86166000818152600490955293889020965187549087166001600160a01b0319918216178855925160018801559051600287015551600390950180549590941694169390931790915591517f1982ca8958fc8a8176cb52be509260f4bc5af7ce04e1533711793f1c56dd535990610fc49087815260200190565b60405180910390a350505050505050565b60085460408051632a0a4ed560e01b815290516000926001600160a01b031691632a0a4ed5916004808301926020929190829003018186803b15801561101a57600080fd5b505afa15801561102e573d6000803e3d6000fd5b505050506040513d601f19601f82011682018060405250810190611052919061217f565b905090565b61105f610fd5565b6001600160a01b0316336001600160a01b0316146110ab5760405162461bcd60e51b81526020600482015260096024820152686e6f2061636365737360b81b6044820152606401610add565b6001600160a01b0380821660009081526004602090815260409182902082516080810184528154851681526001820154928101839052600282015493810193909352600301549092166060820181905290916111355760405162461bcd60e51b81526020600482015260096024820152681b9bdd08199bdd5b9960ba1b6044820152606401610add565b6001600160a01b03808416600090815260046020818152604080842080546001600160a01b031990811682556001820186905560028201959095556003018054909416909355855190860151925163a9059cbb60e01b81529385169363a9059cbb936111b7939091016001600160a01b03929092168252602082015260400190565b602060405180830381600087803b1580156111d157600080fd5b505af11580156111e5573d6000803e3d6000fd5b505050506040513d601f19601f8201168201806040525081019061120991906122e8565b61121257600080fd5b81600001516001600160a01b0316836001600160a01b03167fbb036e629a9f4c0897ee5d48440dfdb36f7e772117723a2ed603a6514244c2d5846020015160405161125f91815260200190565b60405180910390a3505050565b600a546001600160a01b031633141561129057600a80546001600160a01b03191690555b565b60008061129f86866117ac565b9050801561132e57604051635260769b60e11b81526001600160a01b0387169063a4c0ed36906112d9903390899089908990600401612498565b602060405180830381600087803b1580156112f357600080fd5b505af1158015611307573d6000803e3d6000fd5b505050506040513d601f19601f8201168201806040525081019061132b91906122e8565b90505b95945050505050565b6113413382611c7b565b600061134d6009541590565b6113595760095461135c565b60015b6008549091506001600160a01b03166342966c6861137a838561254d565b6040518263ffffffff1660e01b815260040161139891815260200190565b600060405180830381600087803b1580156113b257600080fd5b505af11580156113c6573d6000803e3d6000fd5b505050505050565b33600090815260046020526040902060010154156112905733600081815260046020819052604080832060018101805460038301805484546001600160a01b0319908116865593889055600290940196909655908216909455905163a9059cbb60e01b8152918201939093526024810182905290916001600160a01b031690819063a9059cbb90604401602060405180830381600087803b15801561147257600080fd5b505af1158015611486573d6000803e3d6000fd5b505050506040513d601f19601f820116820180604052508101906114aa91906122e8565b6114b357600080fd5b60405182815233907f203627483d943880619f4b7e0cca21dbefd6204b4d85b124eb99540e17ba86dd9060200160405180910390a25050565b6000806114f883611d11565b905080156115065792915050565b6008546001600160a01b0384811691161415611526575050600954919050565b6009546008546040516377e071ad60e01b81526001600160a01b038681166004830152909116906377e071ad9060240160206040518083038186803b15801561156e57600080fd5b505afa158015611582573d6000803e3d6000fd5b505050506040513d601f19601f820116820180604052508101906115a69190612404565b6115b0919061254d565b9392505050565b50919050565b336115d2600a546001600160a01b0316151590565b156115dc57600080fd5b611d4c6115e860025490565b6115f2919061254d565b6001600160a01b0382166000908152602081905260409020546116179061271061254d565b101561164e5760405162461bcd60e51b815260206004820152600660248201526571756f72756d60d01b6044820152606401610add565b6116588182611d52565b6040516001600160a01b03821681527f3b6b79a09e9fd230e8591b65c97236bf7df7a604edf733db0658e66b0e6eb2a99060200160405180910390a150565b600854604051636427ed9760e01b8152600060048201526001600160a01b0390911690636427ed9790602401600060405180830381600087803b1580156116dd57600080fd5b505af11580156116f1573d6000803e3d6000fd5b50505050565b600854604080516395d89b4160e01b815290516060926001600160a01b0316916395d89b41916004808301926000929190829003018186803b15801561173c57600080fd5b505afa158015611750573d6000803e3d6000fd5b505050506040513d6000823e601f3d908101601f19168201604052611778919081019061233e565b6040516020016109919190612473565b6008546000906001600160a01b031633146117a257600080fd5b610d178585611f17565b60006115b08383611fb8565b6008546040516323b872dd60e01b8152336004820152306024820152604481018390526001600160a01b03909116906323b872dd90606401602060405180830381600087803b15801561180a57600080fd5b505af115801561181e573d6000803e3d6000fd5b505050506040513d601f19601f8201168201806040525081019061184291906122e8565b61184b57600080fd5b6118558282611f17565b5050565b600d8054611866906125af565b80601f0160208091040260200160405190810160405280929190818152602001828054611892906125af565b80156118df5780601f106118b4576101008083540402835291602001916118df565b820191906000526020600020905b8154815290600101906020018083116118c257829003601f168201915b505050505081565b600954156118f457600080fd5b6040514281527fdfbf6547deaf4fa5dd154ec1daf5350032f31d34e4c755104dfbf6049163c0879060200160405180910390a1600b54600c54604051634dc5e43160e01b815260048101869052336024820152604481018590526001600160a01b0384166064820152608481019290925260a482015260009073f9f92751f272f0872e2edb6a280b0990f3e2b8a390634dc5e43190349060c4016020604051808303818588803b1580156119a757600080fd5b505af11580156119bb573d6000803e3d6000fd5b50505050506040513d601f19601f820116820180604052508101906119e0919061217f565b90506119f6600a546001600160a01b0316151590565b15611ad757806001600160a01b0316633f5e3e7f6040518163ffffffff1660e01b8152600401602060405180830381600087803b158015611a3657600080fd5b505af1158015611a4a573d6000803e3d6000fd5b505050506040513d601f19601f82011682018060405250810190611a6e91906122e8565b611a7757600080fd5b600a546040516306a169ed60e01b81526001600160a01b038381166004830152909116906306a169ed90602401600060405180830381600087803b158015611abe57600080fd5b505af1158015611ad2573d6000803e3d6000fd5b505050505b600a80546001600160a01b0319166001600160a01b0392909216919091179055505050565b600954611b0857600080fd5b611b153382600954611fd5565b50565b600a546001600160a01b03163314611b2f57600080fd5b611b5982611b52846001600160a01b031660009081526020819052604090205490565b6001611fd5565b6118558183611d52565b6001600160a01b0383811660008181526001602090815260408083209487168084529482529182902085905590518481527f8c5be1e5ebec7d5bd14f71427d1e84f3dd0314c0f7b2291e5b200ac8c7c3b925910161125f565b6001600160a01b038216611bcf57600080fd5b611bda838383612087565b6001600160a01b03831660009081526020819052604081208054839290611c0290849061256c565b90915550506001600160a01b03821660009081526020819052604081208054839290611c2f908490612513565b92505081905550816001600160a01b0316836001600160a01b03167fddf252ad1be2c89b69c2b068fc378daa952ba7f163c4a11628f55a4df523b3ef8360405161125f91815260200190565b611c8782600083612087565b8060026000828254611c99919061256c565b90915550506001600160a01b03821660009081526020819052604081208054839290611cc690849061256c565b90915550506040518181526000906001600160a01b038416907fddf252ad1be2c89b69c2b068fc378daa952ba7f163c4a11628f55a4df523b3ef906020015b60405180910390a35050565b60006001600160a01b038216301415611d2c57506001919050565b6006546001600160a01b0383811691161415611d4a57505060075490565b506000919050565b60095415611d5f57600080fd5b6008546040516370a0823160e01b81523060048201526001600160a01b039091169063a9059cbb90839083906370a082319060240160206040518083038186803b158015611dac57600080fd5b505afa158015611dc0573d6000803e3d6000fd5b505050506040513d601f19601f82011682018060405250810190611de49190612404565b6040516001600160e01b031960e085901b1681526001600160a01b0390921660048301526024820152604401602060405180830381600087803b158015611e2a57600080fd5b505af1158015611e3e573d6000803e3d6000fd5b505050506040513d601f19601f82011682018060405250810190611e6291906122e8565b611e6b57600080fd5b600880546001600160a01b0319166001600160a01b038416179055600254611855906008546040516370a0823160e01b81523060048201526001600160a01b03909116906370a082319060240160206040518083038186803b158015611ed057600080fd5b505afa158015611ee4573d6000803e3d6000fd5b505050506040513d601f19601f82011682018060405250810190611f089190612404565b611f12919061252b565b612092565b6001600160a01b038216611f2a57600080fd5b611f3660008383612087565b8060026000828254611f489190612513565b90915550506001600160a01b03821660009081526020819052604081208054839290611f75908490612513565b90915550506040518181526001600160a01b038316906000907fddf252ad1be2c89b69c2b068fc378daa952ba7f163c4a11628f55a4df523b3ef90602001611d05565b6000611fc483836120d1565b611fcd57600080fd5b610a4c6113ce565b611fdf8383611c7b565b6008546001600160a01b031663a9059cbb84611ffb848661254d565b6040516001600160e01b031960e085901b1681526001600160a01b0390921660048301526024820152604401602060405180830381600087803b15801561204157600080fd5b505af1158015612055573d6000803e3d6000fd5b505050506040513d601f19601f8201168201806040525081019061207991906122e8565b61208257600080fd5b505050565b6120828383836120de565b60018110156120cc5760405162461bcd60e51b81526020600482015260066024820152653330b1ba37b960d11b6044820152606401610add565b600955565b6000610a4c338484611bbc565b600a546001600160a01b03161561208257600a5460405163e1a1810f60e01b81526001600160a01b0385811660048301528481166024830152604482018490529091169063e1a1810f90606401600060405180830381600087803b15801561214557600080fd5b505af1158015612159573d6000803e3d6000fd5b50505050505050565b60006020828403121561217457600080fd5b81356115b081612610565b60006020828403121561219157600080fd5b81516115b081612610565b600080604083850312156121af57600080fd5b82356121ba81612610565b915060208301356121ca81612610565b809150509250929050565b6000806000606084860312156121ea57600080fd5b83356121f581612610565b9250602084013561220581612610565b929592945050506040919091013590565b6000806040838503121561222957600080fd5b823561223481612610565b946020939093013593505050565b6000806000806060858703121561225857600080fd5b843561226381612610565b935060208501359250604085013567ffffffffffffffff8082111561228757600080fd5b818701915087601f83011261229b57600080fd5b8135818111156122aa57600080fd5b8860208285010111156122bc57600080fd5b95989497505060200194505050565b6000602082840312156122dd57600080fd5b81356115b081612625565b6000602082840312156122fa57600080fd5b81516115b081612625565b60008060006060848603121561231a57600080fd5b8335925060208401359150604084013561233381612610565b809150509250925092565b60006020828403121561235057600080fd5b815167ffffffffffffffff8082111561236857600080fd5b818401915084601f83011261237c57600080fd5b81518181111561238e5761238e6125fa565b604051601f8201601f19908116603f011681019083821181831017156123b6576123b66125fa565b816040528281528760208487010111156123cf57600080fd5b6123e0836020830160208801612583565b979650505050505050565b6000602082840312156123fd57600080fd5b5035919050565b60006020828403121561241657600080fd5b5051919050565b6000825161242f818460208701612583565b692028577261707065642960b01b920191825250600a01919050565b6000825161245d818460208701612583565b632053484160e01b920191825250600401919050565b60008251612485818460208701612583565b605360f81b920191825250600101919050565b6001600160a01b0385168152602081018490526060604082018190528101829052818360808301376000818301608090810191909152601f909201601f191601019392505050565b60208152600082518060208401526124ff816040850160208701612583565b601f01601f19169190910160400192915050565b60008219821115612526576125266125e4565b500190565b60008261254857634e487b7160e01b600052601260045260246000fd5b500490565b6000816000190483118215151615612567576125676125e4565b500290565b60008282101561257e5761257e6125e4565b500390565b60005b8381101561259e578181015183820152602001612586565b838111156116f15750506000910152565b600181811c908216806125c357607f821691505b602082108114156115b757634e487b7160e01b600052602260045260246000fd5b634e487b7160e01b600052601160045260246000fd5b634e487b7160e01b600052604160045260246000fd5b6001600160a01b0381168114611b1557600080fd5b8015158114611b1557600080fdfea26469706673582212208e231b5659b35992a4ec63c3650ed1b0fcd59f99c90d62e1e969736b8d14d97964736f6c63430008070033",
    "sourcePath": "c:/Users/luziu/Documents/aktionariat/contracts/src/DraggableShares.sol",
    "compiler": {
        "name": "solc",
        "version": "0.8.7+commit.e28d00a7"
    },
    "functionHashes": {
        "allowance(address,address)": "dd62ed3e",
        "approve(address,uint256)": "095ea7b3",
        "balanceOf(address)": "70a08231",
        "burn(uint256)": "42966c68",
        "claimPeriod()": "7dc2cd98",
        "claims(address)": "c6788bdd",
        "clearClaim()": "6b03ed5f",
        "customCollateralAddress()": "0c6f0e5d",
        "customCollateralRate()": "60918117",
        "decimals()": "313ce567",
        "declareLost(address,address)": "26773ddd",
        "deleteClaim(address)": "32a7ae95",
        "disableRecovery()": "8ff8831b",
        "drag(address,address)": "fcb79a7e",
        "factory()": "c45a0155",
        "getClaimDeleter()": "2a0a4ed5",
        "getClaimant(address)": "1e3b9de5",
        "getCollateral(address)": "9b56d6c9",
        "getCollateralRate(address)": "77e071ad",
        "getCollateralType(address)": "3bcc45ba",
        "getTimeStamp(address)": "eb470ebf",
        "isBinding()": "9e4b5745",
        "isRecoveryEnabled(address)": "a3ec1883",
        "makeAcquisitionOffer(bytes32,uint256,address)": "dcc7d4ad",
        "migrate()": "8fd3ab80",
        "name()": "06fdde03",
        "notifyOfferEnded()": "32bc320b",
        "offer()": "c028df06",
        "onTokenTransfer(address,uint256,bytes)": "a4c0ed36",
        "quorum()": "1703a018",
        "recover(address)": "0cd865ec",
        "recoveryDisabled(address)": "b40e80d1",
        "setRecoverable(bool)": "6427ed97",
        "symbol()": "95d89b41",
        "terms()": "d5025625",
        "totalSupply()": "18160ddd",
        "transfer(address,uint256)": "a9059cbb",
        "transferAndCall(address,uint256,bytes)": "4000aea0",
        "transferFrom(address,address,uint256)": "23b872dd",
        "unwrap(uint256)": "de0e9a3e",
        "unwrapConversionFactor()": "0832e470",
        "votePeriod()": "a7813587",
        "wrap(address,uint256)": "bf376c7a",
        "wrapped()": "50e70d48"
    },
    "gasEstimates": {
        "creation": {
            "codeDepositCost": "1966600",
            "executionCost": "infinite",
            "totalCost": "infinite"
        },
        "external": {
            "allowance(address,address)": "infinite",
            "approve(address,uint256)": "24623",
            "balanceOf(address)": "2689",
            "burn(uint256)": "infinite",
            "claimPeriod()": "263",
            "claims(address)": "9108",
            "clearClaim()": "infinite",
            "customCollateralAddress()": "2450",
            "customCollateralRate()": "2384",
            "decimals()": "2359",
            "declareLost(address,address)": "infinite",
            "deleteClaim(address)": "infinite",
            "disableRecovery()": "infinite",
            "drag(address,address)": "infinite",
            "factory()": "327",
            "getClaimDeleter()": "infinite",
            "getClaimant(address)": "2651",
            "getCollateral(address)": "2582",
            "getCollateralRate(address)": "infinite",
            "getCollateralType(address)": "2679",
            "getTimeStamp(address)": "2669",
            "isBinding()": "2368",
            "isRecoveryEnabled(address)": "2635",
            "makeAcquisitionOffer(bytes32,uint256,address)": "infinite",
            "migrate()": "infinite",
            "name()": "infinite",
            "notifyOfferEnded()": "26607",
            "offer()": "2426",
            "onTokenTransfer(address,uint256,bytes)": "infinite",
            "quorum()": "2341",
            "recover(address)": "infinite",
            "recoveryDisabled(address)": "2570",
            "setRecoverable(bool)": "24687",
            "symbol()": "infinite",
            "terms()": "infinite",
            "totalSupply()": "2360",
            "transfer(address,uint256)": "infinite",
            "transferAndCall(address,uint256,bytes)": "infinite",
            "transferFrom(address,address,uint256)": "infinite",
            "unwrap(uint256)": "infinite",
            "unwrapConversionFactor()": "2364",
            "votePeriod()": "2428",
            "wrap(address,uint256)": "infinite",
            "wrapped()": "2404"
        },
        "internal": {
            "_beforeTokenTransfer(address,address,uint256)": "infinite"
        }
    }
}