{
    "contractName": "DraggableShares",
    "abi": [
        {
            "inputs": [
                {
                    "internalType": "string",
                    "name": "_terms",
                    "type": "string"
                },
                {
                    "internalType": "address",
                    "name": "wrappedToken",
                    "type": "address"
                },
                {
                    "internalType": "uint256",
                    "name": "quorum",
                    "type": "uint256"
                }
            ],
            "stateMutability": "nonpayable",
            "type": "constructor"
        },
        {
            "anonymous": false,
            "inputs": [
                {
                    "indexed": true,
                    "internalType": "address",
                    "name": "owner",
                    "type": "address"
                },
                {
                    "indexed": true,
                    "internalType": "address",
                    "name": "spender",
                    "type": "address"
                },
                {
                    "indexed": false,
                    "internalType": "uint256",
                    "name": "value",
                    "type": "uint256"
                }
            ],
            "name": "Approval",
            "type": "event"
        },
        {
            "anonymous": false,
            "inputs": [
                {
                    "indexed": true,
                    "internalType": "address",
                    "name": "lostAddress",
                    "type": "address"
                },
                {
                    "indexed": false,
                    "internalType": "uint256",
                    "name": "collateral",
                    "type": "uint256"
                }
            ],
            "name": "ClaimCleared",
            "type": "event"
        },
        {
            "anonymous": false,
            "inputs": [
                {
                    "indexed": true,
                    "internalType": "address",
                    "name": "lostAddress",
                    "type": "address"
                },
                {
                    "indexed": true,
                    "internalType": "address",
                    "name": "claimant",
                    "type": "address"
                },
                {
                    "indexed": false,
                    "internalType": "uint256",
                    "name": "collateral",
                    "type": "uint256"
                }
            ],
            "name": "ClaimDeleted",
            "type": "event"
        },
        {
            "anonymous": false,
            "inputs": [
                {
                    "indexed": true,
                    "internalType": "address",
                    "name": "lostAddress",
                    "type": "address"
                },
                {
                    "indexed": true,
                    "internalType": "address",
                    "name": "claimant",
                    "type": "address"
                },
                {
                    "indexed": false,
                    "internalType": "uint256",
                    "name": "balance",
                    "type": "uint256"
                }
            ],
            "name": "ClaimMade",
            "type": "event"
        },
        {
            "anonymous": false,
            "inputs": [
                {
                    "indexed": false,
                    "internalType": "uint256",
                    "name": "newClaimPeriodInDays",
                    "type": "uint256"
                }
            ],
            "name": "ClaimPeriodChanged",
            "type": "event"
        },
        {
            "anonymous": false,
            "inputs": [
                {
                    "indexed": true,
                    "internalType": "address",
                    "name": "lostAddress",
                    "type": "address"
                },
                {
                    "indexed": true,
                    "internalType": "address",
                    "name": "claimant",
                    "type": "address"
                },
                {
                    "indexed": false,
                    "internalType": "uint256",
                    "name": "collateral",
                    "type": "uint256"
                }
            ],
            "name": "ClaimResolved",
            "type": "event"
        },
        {
            "anonymous": false,
            "inputs": [
                {
                    "indexed": false,
                    "internalType": "address",
                    "name": "newCustomCollateralAddress",
                    "type": "address"
                },
                {
                    "indexed": false,
                    "internalType": "uint256",
                    "name": "newCustomCollareralRate",
                    "type": "uint256"
                }
            ],
            "name": "CustomClaimCollateralChanged",
            "type": "event"
        },
        {
            "anonymous": false,
            "inputs": [
                {
                    "indexed": false,
                    "internalType": "address",
                    "name": "newContractAddress",
                    "type": "address"
                }
            ],
            "name": "MigrationSucceeded",
            "type": "event"
        },
        {
            "anonymous": false,
            "inputs": [
                {
                    "indexed": true,
                    "internalType": "address",
                    "name": "from",
                    "type": "address"
                },
                {
                    "indexed": true,
                    "internalType": "address",
                    "name": "to",
                    "type": "address"
                },
                {
                    "indexed": false,
                    "internalType": "uint256",
                    "name": "value",
                    "type": "uint256"
                }
            ],
            "name": "Transfer",
            "type": "event"
        },
        {
            "inputs": [],
            "name": "OFFER_FACTORY",
            "outputs": [
                {
                    "internalType": "address",
                    "name": "",
                    "type": "address"
                }
            ],
            "stateMutability": "view",
            "type": "function"
        },
        {
            "inputs": [],
            "name": "VALIDITY_PERIOD",
            "outputs": [
                {
                    "internalType": "uint256",
                    "name": "",
                    "type": "uint256"
                }
            ],
            "stateMutability": "view",
            "type": "function"
        },
        {
            "inputs": [],
            "name": "VOTING_PERIOD",
            "outputs": [
                {
                    "internalType": "uint256",
                    "name": "",
                    "type": "uint256"
                }
            ],
            "stateMutability": "view",
            "type": "function"
        },
        {
            "inputs": [
                {
                    "internalType": "address",
                    "name": "owner",
                    "type": "address"
                },
                {
                    "internalType": "address",
                    "name": "spender",
                    "type": "address"
                }
            ],
            "name": "allowance",
            "outputs": [
                {
                    "internalType": "uint256",
                    "name": "",
                    "type": "uint256"
                }
            ],
            "stateMutability": "view",
            "type": "function"
        },
        {
            "inputs": [
                {
                    "internalType": "address",
                    "name": "spender",
                    "type": "address"
                },
                {
                    "internalType": "uint256",
                    "name": "value",
                    "type": "uint256"
                }
            ],
            "name": "approve",
            "outputs": [
                {
                    "internalType": "bool",
                    "name": "",
                    "type": "bool"
                }
            ],
            "stateMutability": "nonpayable",
            "type": "function"
        },
        {
            "inputs": [
                {
                    "internalType": "address",
                    "name": "account",
                    "type": "address"
                }
            ],
            "name": "balanceOf",
            "outputs": [
                {
                    "internalType": "uint256",
                    "name": "",
                    "type": "uint256"
                }
            ],
            "stateMutability": "view",
            "type": "function"
        },
        {
            "inputs": [
                {
                    "internalType": "uint256",
                    "name": "amount",
                    "type": "uint256"
                }
            ],
            "name": "burn",
            "outputs": [],
            "stateMutability": "nonpayable",
            "type": "function"
        },
        {
            "inputs": [],
            "name": "claimPeriod",
            "outputs": [
                {
                    "internalType": "uint256",
                    "name": "",
                    "type": "uint256"
                }
            ],
            "stateMutability": "view",
            "type": "function"
        },
        {
            "inputs": [
                {
                    "internalType": "address",
                    "name": "",
                    "type": "address"
                }
            ],
            "name": "claims",
            "outputs": [
                {
                    "internalType": "address",
                    "name": "claimant",
                    "type": "address"
                },
                {
                    "internalType": "uint256",
                    "name": "collateral",
                    "type": "uint256"
                },
                {
                    "internalType": "uint256",
                    "name": "timestamp",
                    "type": "uint256"
                },
                {
                    "internalType": "address",
                    "name": "currencyUsed",
                    "type": "address"
                }
            ],
            "stateMutability": "view",
            "type": "function"
        },
        {
            "inputs": [],
            "name": "clearClaim",
            "outputs": [],
            "stateMutability": "nonpayable",
            "type": "function"
        },
        {
            "inputs": [],
            "name": "customCollateralAddress",
            "outputs": [
                {
                    "internalType": "address",
                    "name": "",
                    "type": "address"
                }
            ],
            "stateMutability": "view",
            "type": "function"
        },
        {
            "inputs": [],
            "name": "customCollateralRate",
            "outputs": [
                {
                    "internalType": "uint256",
                    "name": "",
                    "type": "uint256"
                }
            ],
            "stateMutability": "view",
            "type": "function"
        },
        {
            "inputs": [],
            "name": "decimals",
            "outputs": [
                {
                    "internalType": "uint8",
                    "name": "",
                    "type": "uint8"
                }
            ],
            "stateMutability": "view",
            "type": "function"
        },
        {
            "inputs": [
                {
                    "internalType": "address",
                    "name": "collateralType",
                    "type": "address"
                },
                {
                    "internalType": "address",
                    "name": "lostAddress",
                    "type": "address"
                }
            ],
            "name": "declareLost",
            "outputs": [],
            "stateMutability": "nonpayable",
            "type": "function"
        },
        {
            "inputs": [
                {
                    "internalType": "address",
                    "name": "spender",
                    "type": "address"
                },
                {
                    "internalType": "uint256",
                    "name": "subtractedValue",
                    "type": "uint256"
                }
            ],
            "name": "decreaseAllowance",
            "outputs": [
                {
                    "internalType": "bool",
                    "name": "",
                    "type": "bool"
                }
            ],
            "stateMutability": "nonpayable",
            "type": "function"
        },
        {
            "inputs": [
                {
                    "internalType": "address",
                    "name": "lostAddress",
                    "type": "address"
                }
            ],
            "name": "deleteClaim",
            "outputs": [],
            "stateMutability": "nonpayable",
            "type": "function"
        },
        {
            "inputs": [
                {
                    "internalType": "address",
                    "name": "buyer",
                    "type": "address"
                },
                {
                    "internalType": "address",
                    "name": "currency",
                    "type": "address"
                }
            ],
            "name": "drag",
            "outputs": [],
            "stateMutability": "nonpayable",
            "type": "function"
        },
        {
            "inputs": [],
            "name": "getClaimDeleter",
            "outputs": [
                {
                    "internalType": "address",
                    "name": "",
                    "type": "address"
                }
            ],
            "stateMutability": "view",
            "type": "function"
        },
        {
            "inputs": [
                {
                    "internalType": "address",
                    "name": "lostAddress",
                    "type": "address"
                }
            ],
            "name": "getClaimant",
            "outputs": [
                {
                    "internalType": "address",
                    "name": "",
                    "type": "address"
                }
            ],
            "stateMutability": "view",
            "type": "function"
        },
        {
            "inputs": [
                {
                    "internalType": "address",
                    "name": "lostAddress",
                    "type": "address"
                }
            ],
            "name": "getCollateral",
            "outputs": [
                {
                    "internalType": "uint256",
                    "name": "",
                    "type": "uint256"
                }
            ],
            "stateMutability": "view",
            "type": "function"
        },
        {
            "inputs": [
                {
                    "internalType": "address",
                    "name": "collateralType",
                    "type": "address"
                }
            ],
            "name": "getCollateralRate",
            "outputs": [
                {
                    "internalType": "uint256",
                    "name": "",
                    "type": "uint256"
                }
            ],
            "stateMutability": "view",
            "type": "function"
        },
        {
            "inputs": [
                {
                    "internalType": "address",
                    "name": "lostAddress",
                    "type": "address"
                }
            ],
            "name": "getCollateralType",
            "outputs": [
                {
                    "internalType": "address",
                    "name": "",
                    "type": "address"
                }
            ],
            "stateMutability": "view",
            "type": "function"
        },
        {
            "inputs": [
                {
                    "internalType": "address",
                    "name": "lostAddress",
                    "type": "address"
                }
            ],
            "name": "getTimeStamp",
            "outputs": [
                {
                    "internalType": "uint256",
                    "name": "",
                    "type": "uint256"
                }
            ],
            "stateMutability": "view",
            "type": "function"
        },
        {
            "inputs": [
                {
                    "internalType": "address",
                    "name": "spender",
                    "type": "address"
                },
                {
                    "internalType": "uint256",
                    "name": "addedValue",
                    "type": "uint256"
                }
            ],
            "name": "increaseAllowance",
            "outputs": [
                {
                    "internalType": "bool",
                    "name": "",
                    "type": "bool"
                }
            ],
            "stateMutability": "nonpayable",
            "type": "function"
        },
        {
            "inputs": [],
            "name": "isBinding",
            "outputs": [
                {
                    "internalType": "bool",
                    "name": "",
                    "type": "bool"
                }
            ],
            "stateMutability": "view",
            "type": "function"
        },
        {
            "inputs": [
                {
                    "internalType": "address",
                    "name": "target",
                    "type": "address"
                }
            ],
            "name": "isRecoveryEnabled",
            "outputs": [
                {
                    "internalType": "bool",
                    "name": "",
                    "type": "bool"
                }
            ],
            "stateMutability": "view",
            "type": "function"
        },
        {
            "inputs": [
                {
                    "internalType": "bytes32",
                    "name": "salt",
                    "type": "bytes32"
                },
                {
                    "internalType": "uint256",
                    "name": "pricePerShare",
                    "type": "uint256"
                },
                {
                    "internalType": "address",
                    "name": "currency",
                    "type": "address"
                }
            ],
            "name": "makeAcquisitionOffer",
            "outputs": [],
            "stateMutability": "nonpayable",
            "type": "function"
        },
        {
            "inputs": [],
            "name": "migrate",
            "outputs": [],
            "stateMutability": "nonpayable",
            "type": "function"
        },
        {
            "inputs": [],
            "name": "name",
            "outputs": [
                {
                    "internalType": "string",
                    "name": "",
                    "type": "string"
                }
            ],
            "stateMutability": "view",
            "type": "function"
        },
        {
            "inputs": [],
            "name": "notifyOfferEnded",
            "outputs": [],
            "stateMutability": "nonpayable",
            "type": "function"
        },
        {
            "inputs": [],
            "name": "offer",
            "outputs": [
                {
                    "internalType": "contract IOffer",
                    "name": "",
                    "type": "address"
                }
            ],
            "stateMutability": "view",
            "type": "function"
        },
        {
            "inputs": [
                {
                    "internalType": "address",
                    "name": "from",
                    "type": "address"
                },
                {
                    "internalType": "uint256",
                    "name": "amount",
                    "type": "uint256"
                },
                {
                    "internalType": "bytes",
                    "name": "",
                    "type": "bytes"
                }
            ],
            "name": "onTokenTransfer",
            "outputs": [],
            "stateMutability": "nonpayable",
            "type": "function"
        },
        {
            "inputs": [],
            "name": "quorum",
            "outputs": [
                {
                    "internalType": "uint256",
                    "name": "",
                    "type": "uint256"
                }
            ],
            "stateMutability": "view",
            "type": "function"
        },
        {
            "inputs": [
                {
                    "internalType": "address",
                    "name": "lostAddress",
                    "type": "address"
                }
            ],
            "name": "recover",
            "outputs": [],
            "stateMutability": "nonpayable",
            "type": "function"
        },
        {
            "inputs": [
                {
                    "internalType": "address",
                    "name": "",
                    "type": "address"
                }
            ],
            "name": "recoveryDisabled",
            "outputs": [
                {
                    "internalType": "bool",
                    "name": "",
                    "type": "bool"
                }
            ],
            "stateMutability": "view",
            "type": "function"
        },
        {
            "inputs": [
                {
                    "internalType": "bool",
                    "name": "enabled",
                    "type": "bool"
                }
            ],
            "name": "setRecoverable",
            "outputs": [],
            "stateMutability": "nonpayable",
            "type": "function"
        },
        {
            "inputs": [],
            "name": "symbol",
            "outputs": [
                {
                    "internalType": "string",
                    "name": "",
                    "type": "string"
                }
            ],
            "stateMutability": "view",
            "type": "function"
        },
        {
            "inputs": [],
            "name": "terms",
            "outputs": [
                {
                    "internalType": "string",
                    "name": "",
                    "type": "string"
                }
            ],
            "stateMutability": "view",
            "type": "function"
        },
        {
            "inputs": [],
            "name": "totalSupply",
            "outputs": [
                {
                    "internalType": "uint256",
                    "name": "",
                    "type": "uint256"
                }
            ],
            "stateMutability": "view",
            "type": "function"
        },
        {
            "inputs": [
                {
                    "internalType": "address",
                    "name": "to",
                    "type": "address"
                },
                {
                    "internalType": "uint256",
                    "name": "value",
                    "type": "uint256"
                }
            ],
            "name": "transfer",
            "outputs": [
                {
                    "internalType": "bool",
                    "name": "",
                    "type": "bool"
                }
            ],
            "stateMutability": "nonpayable",
            "type": "function"
        },
        {
            "inputs": [
                {
                    "internalType": "address",
                    "name": "recipient",
                    "type": "address"
                },
                {
                    "internalType": "uint256",
                    "name": "amount",
                    "type": "uint256"
                },
                {
                    "internalType": "bytes",
                    "name": "data",
                    "type": "bytes"
                }
            ],
            "name": "transferAndCall",
            "outputs": [
                {
                    "internalType": "bool",
                    "name": "",
                    "type": "bool"
                }
            ],
            "stateMutability": "nonpayable",
            "type": "function"
        },
        {
            "inputs": [
                {
                    "internalType": "address",
                    "name": "sender",
                    "type": "address"
                },
                {
                    "internalType": "address",
                    "name": "recipient",
                    "type": "address"
                },
                {
                    "internalType": "uint256",
                    "name": "amount",
                    "type": "uint256"
                }
            ],
            "name": "transferFrom",
            "outputs": [
                {
                    "internalType": "bool",
                    "name": "",
                    "type": "bool"
                }
            ],
            "stateMutability": "nonpayable",
            "type": "function"
        },
        {
            "inputs": [
                {
                    "internalType": "uint256",
                    "name": "amount",
                    "type": "uint256"
                }
            ],
            "name": "unwrap",
            "outputs": [],
            "stateMutability": "nonpayable",
            "type": "function"
        },
        {
            "inputs": [],
            "name": "unwrapConversionFactor",
            "outputs": [
                {
                    "internalType": "uint256",
                    "name": "",
                    "type": "uint256"
                }
            ],
            "stateMutability": "view",
            "type": "function"
        },
        {
            "inputs": [
                {
                    "internalType": "address",
                    "name": "shareholder",
                    "type": "address"
                },
                {
                    "internalType": "uint256",
                    "name": "amount",
                    "type": "uint256"
                }
            ],
            "name": "wrap",
            "outputs": [],
            "stateMutability": "nonpayable",
            "type": "function"
        },
        {
            "inputs": [],
            "name": "wrapped",
            "outputs": [
                {
                    "internalType": "contract IERC20",
                    "name": "",
                    "type": "address"
                }
            ],
            "stateMutability": "view",
            "type": "function"
        }
    ],
    "bytecode": "608060405262ed4e006004556000600a553480156200001d57600080fd5b5060405162002756380380620027568339810160408190526200004091620001a7565b6003805460ff19169055600980546001600160a01b0319166001600160a01b038416908117909155600c829055604051636427ed9760e01b8152636427ed9790620000919060009060040162000294565b600060405180830381600087803b158015620000ac57600080fd5b505af1158015620000c1573d6000803e3d6000fd5b50508451620000da9250600d91506020860190620000e4565b50505050620002f2565b828054620000f2906200029f565b90600052602060002090601f01602090048101928262000116576000855562000161565b82601f106200013157805160ff191683800117855562000161565b8280016001018555821562000161579182015b828111156200016157825182559160200191906001019062000144565b506200016f92915062000173565b5090565b5b808211156200016f576000815560010162000174565b80516001600160a01b0381168114620001a257600080fd5b919050565b600080600060608486031215620001bc578283fd5b83516001600160401b0380821115620001d3578485fd5b818601915086601f830112620001e7578485fd5b815181811115620001fc57620001fc620002dc565b6040516020601f8301601f1916820181018481118382101715620002245762000224620002dc565b60405282825284830181018a10156200023b578788fd5b8793505b828410156200025e57848401810151828501820152928301926200023f565b828411156200026f57878184840101525b8197506200027f818a016200018a565b96505050505050604084015190509250925092565b901515815260200190565b600281046001821680620002b457607f821691505b60208210811415620002d657634e487b7160e01b600052602260045260246000fd5b50919050565b634e487b7160e01b600052604160045260246000fd5b61245480620003026000396000f3fe608060405234801561001057600080fd5b506004361061028a5760003560e01c806370a082311161015c578063b1610d7e116100ce578063dcc7d4ad11610087578063dcc7d4ad14610512578063dd62ed3e14610525578063de0e9a3e14610538578063eb470ebf1461054b578063f46630751461055e578063fcb79a7e146105665761028a565b8063b1610d7e146104b1578063b40e80d1146104b9578063bf376c7a146104cc578063c028df06146104df578063c6788bdd146104e7578063d50256251461050a5761028a565b80639b56d6c9116101205780639b56d6c91461044a5780639e4b57451461045d578063a3ec188314610465578063a457c2d714610478578063a4c0ed361461048b578063a9059cbb1461049e5761028a565b806370a082311461040c57806377e071ad1461041f5780637dc2cd98146104325780638fd3ab801461043a57806395d89b41146104425761028a565b80632a0a4ed5116102005780634000aea0116101b95780634000aea0146103bb57806342966c68146103ce57806350e70d48146103e157806360918117146103e95780636427ed97146103f15780636b03ed5f146104045761028a565b80632a0a4ed51461035d578063313ce5671461036557806332a7ae951461037a57806332bc320b1461038d57806339509351146103955780633bcc45ba146103a85761028a565b80630cd865ec116102525780630cd865ec146102ff5780631703a0181461031457806318160ddd1461031c5780631e3b9de51461032457806323b872dd1461033757806326773ddd1461034a5761028a565b806306fdde031461028f5780630832e470146102ad578063095ea7b3146102c25780630c43cd88146102e25780630c6f0e5d146102ea575b600080fd5b610297610579565b6040516102a4919061208a565b60405180910390f35b6102b561061e565b6040516102a491906122e9565b6102d56102d0366004611d2f565b610624565b6040516102a49190612040565b6102b561063a565b6102f2610641565b6040516102a49190611f7c565b61031261030d366004611c7f565b610650565b005b6102b5610861565b6102b5610867565b6102f2610332366004611c7f565b61086d565b6102d5610345366004611cef565b61088e565b610312610358366004611cb7565b6108e0565b6102f2610afe565b61036d610b80565b6040516102a491906122f2565b610312610388366004611c7f565b610b89565b610312610d64565b6102d56103a3366004611d2f565b610d8a565b6102f26103b6366004611c7f565b610dc1565b6102d56103c9366004611d5a565b610de2565b6103126103dc366004611ef1565b610e65565b6102f2610ef8565b6102b5610f07565b6103126103ff366004611dde565b610f0d565b610312610f2c565b6102b561041a366004611c7f565b611067565b6102b561042d366004611c7f565b611082565b6102b5611158565b61031261115e565b6102976111fc565b6102b5610458366004611c7f565b61128d565b6102d56112ab565b6102d5610473366004611c7f565b6112b2565b6102d5610486366004611d2f565b6112d1565b610312610499366004611d5a565b611308565b6102d56104ac366004611d2f565b61132f565b6102b5611342565b6102d56104c7366004611c7f565b611349565b6103126104da366004611d2f565b61135e565b6102f26113fb565b6104fa6104f5366004611c7f565b61140a565b6040516102a49493929190612015565b61029761143c565b610312610520366004611e16565b6114ca565b6102b5610533366004611cb7565b611601565b610312610546366004611ef1565b61162c565b6102b5610559366004611c7f565b61164e565b6102f261166c565b610312610574366004611cb7565b611671565b600954604080516306fdde0360e01b815290516060926001600160a01b0316916306fdde03916004808301926000929190829003018186803b1580156105be57600080fd5b505afa1580156105d2573d6000803e3d6000fd5b505050506040513d6000823e601f3d908101601f191682016040526105fa9190810190611e4e565b60405160200161060a9190611f4a565b604051602081830303815290604052905090565b600a5481565b60006106313384846116a6565b50600192915050565b6276a70081565b6007546001600160a01b031681565b6001600160a01b03808216600090815260056020908152604091829020825160808101845281548516815260018201549281018390526002820154938101939093526003015490921660608201819052909190816106c95760405162461bcd60e51b81526004016106c090612184565b60405180910390fd5b82516001600160a01b031633146106f25760405162461bcd60e51b81526004016106c0906120bd565b4260045484604001516107059190612300565b11156107235760405162461bcd60e51b81526004016106c0906120f4565b82516001600160a01b0380861660009081526005602052604080822080546001600160a01b0319908116825560018201849055600282019390935560030180549092169091555163a9059cbb60e01b81529083169063a9059cbb9061078e9084908790600401611fb4565b602060405180830381600087803b1580156107a857600080fd5b505af11580156107bc573d6000803e3d6000fd5b505050506040513d601f19601f820116820180604052508101906107e09190611dfa565b6107fc5760405162461bcd60e51b81526004016106c0906121ac565b61080f858261080a88611067565b611701565b806001600160a01b0316856001600160a01b03167f52a5c2b28bc6eb9712d0ced43463103b486b13ccc9cda499fd3b2d7b6a74a8ee8560405161085291906122e9565b60405180910390a35050505050565b600c5481565b60025490565b6001600160a01b03808216600090815260056020526040902054165b919050565b600061089b848484611701565b6001600160a01b0384166000908152600160209081526040808320338085529252909120546108d69186916108d1908690612357565b6116a6565b5060019392505050565b6108e9816112b2565b6109055760405162461bcd60e51b81526004016106c0906121e3565b600061091083611082565b9050600081116109325760405162461bcd60e51b81526004016106c090612154565b33600061093e84611067565b9050600061094c8483612338565b9050858261096c5760405162461bcd60e51b81526004016106c09061227b565b6001600160a01b038616600090815260056020526040902060010154156109a55760405162461bcd60e51b81526004016106c090612218565b6040516323b872dd60e01b81526001600160a01b038216906323b872dd906109d590879030908790600401611f90565b602060405180830381600087803b1580156109ef57600080fd5b505af1158015610a03573d6000803e3d6000fd5b505050506040513d601f19601f82011682018060405250810190610a279190611dfa565b610a435760405162461bcd60e51b81526004016106c0906121ac565b604080516080810182526001600160a01b038087168083526020808401878152428587019081528d8516606087019081528d86166000818152600590955293889020965187549087166001600160a01b0319918216178855925160018801559051600287015551600390950180549590941694169390931790915591517f1982ca8958fc8a8176cb52be509260f4bc5af7ce04e1533711793f1c56dd535990610aed9087906122e9565b60405180910390a350505050505050565b60095460408051632a0a4ed560e01b815290516000926001600160a01b031691632a0a4ed5916004808301926020929190829003018186803b158015610b4357600080fd5b505afa158015610b57573d6000803e3d6000fd5b505050506040513d601f19601f82011682018060405250810190610b7b9190611c9b565b905090565b60035460ff1681565b610b91610afe565b6001600160a01b0316336001600160a01b031614610bc15760405162461bcd60e51b81526004016106c0906122b2565b6001600160a01b038082166000908152600560209081526040918290208251608081018452815485168152600182015492810183905260028201549381019390935260030154909216606082018190529091610c2f5760405162461bcd60e51b81526004016106c090612184565b6001600160a01b03808416600090815260056020908152604080832080546001600160a01b031990811682556001820185905560028201949094556003018054909316909255845190850151915163a9059cbb60e01b81529284169263a9059cbb92610c9e9291600401611fb4565b602060405180830381600087803b158015610cb857600080fd5b505af1158015610ccc573d6000803e3d6000fd5b505050506040513d601f19601f82011682018060405250810190610cf09190611dfa565b610d0c5760405162461bcd60e51b81526004016106c0906121ac565b81600001516001600160a01b0316836001600160a01b03167fbb036e629a9f4c0897ee5d48440dfdb36f7e772117723a2ed603a6514244c2d58460200151604051610d5791906122e9565b60405180910390a3505050565b600b546001600160a01b0316331415610d8857600b80546001600160a01b03191690555b565b3360008181526001602090815260408083206001600160a01b038716845290915281205490916106319185906108d1908690612300565b6001600160a01b039081166000908152600560205260409020600301541690565b600080610def868661132f565b90508015610e5c57604051635260769b60e11b81526001600160a01b0387169063a4c0ed3690610e29903390899089908990600401611fcd565b600060405180830381600087803b158015610e4357600080fd5b505af1158015610e57573d6000803e3d6000fd5b505050505b95945050505050565b610e6f33826117be565b6000610e796112ab565b610e8557600a54610e88565b60015b6009549091506001600160a01b03166342966c68610ea68385612338565b6040518263ffffffff1660e01b8152600401610ec291906122e9565b600060405180830381600087803b158015610edc57600080fd5b505af1158015610ef0573d6000803e3d6000fd5b505050505050565b6009546001600160a01b031681565b60085481565b336000908152600660205260409020805460ff19169115919091179055565b3360009081526005602052604090206001015415610d88573360008181526005602052604080822060018101805460038301805484546001600160a01b0319908116865593879055600290940195909555908216909355905163a9059cbb60e01b815291926001600160a01b0390911691829163a9059cbb91610fb491908690600401611fb4565b602060405180830381600087803b158015610fce57600080fd5b505af1158015610fe2573d6000803e3d6000fd5b505050506040513d601f19601f820116820180604052508101906110069190611dfa565b6110225760405162461bcd60e51b81526004016106c0906121ac565b336001600160a01b03167f203627483d943880619f4b7e0cca21dbefd6204b4d85b124eb99540e17ba86dd8360405161105b91906122e9565b60405180910390a25050565b6001600160a01b031660009081526020819052604090205490565b60008061108e83611858565b9050801561109d579050610889565b6009546001600160a01b03848116911614156110bd575050600a54610889565b600a546009546040516377e071ad60e01b81526001600160a01b03909116906377e071ad906110f0908790600401611f7c565b60206040518083038186803b15801561110857600080fd5b505afa15801561111c573d6000803e3d6000fd5b505050506040513d601f19601f820116820180604052508101906111409190611f09565b61114a9190612338565b915050610889565b50919050565b60045481565b3361116761189a565b1561117157600080fd5b611179610867565b61118590611f40612338565b61118e82611067565b61119a90612710612338565b10156111b85760405162461bcd60e51b81526004016106c09061224f565b6111c281826118ab565b7f3b6b79a09e9fd230e8591b65c97236bf7df7a604edf733db0658e66b0e6eb2a9816040516111f19190611f7c565b60405180910390a150565b600954604080516395d89b4160e01b815290516060926001600160a01b0316916395d89b41916004808301926000929190829003018186803b15801561124157600080fd5b505afa158015611255573d6000803e3d6000fd5b505050506040513d6000823e601f3d908101601f1916820160405261127d9190810190611e4e565b60405160200161060a9190611f21565b6001600160a01b031660009081526005602052604090206001015490565b600a541590565b6001600160a01b031660009081526006602052604090205460ff161590565b3360008181526001602090815260408083206001600160a01b038716845290915281205490916106319185906108d1908690612357565b6009546001600160a01b0316331461131f57600080fd5b6113298484611a73565b50505050565b600061133b8383611b14565b9392505050565b624f1a0081565b60066020526000908152604090205460ff1681565b6009546040516323b872dd60e01b81526001600160a01b03909116906323b872dd9061139290339030908690600401611f90565b602060405180830381600087803b1580156113ac57600080fd5b505af11580156113c0573d6000803e3d6000fd5b505050506040513d601f19601f820116820180604052508101906113e49190611dfa565b6113ed57600080fd5b6113f78282611a73565b5050565b600b546001600160a01b031681565b60056020526000908152604090208054600182015460028301546003909301546001600160a01b039283169391921684565b600d80546114499061239a565b80601f01602080910402602001604051908101604052809291908181526020018280546114759061239a565b80156114c25780601f10611497576101008083540402835291602001916114c2565b820191906000526020600020905b8154815290600101906020018083116114a557829003601f168201915b505050505081565b6114d26112ab565b6114db57600080fd5b600c5460405163eb57ed7b60e01b81526000918291829163eb57ed7b9161151791899133918a918a9190624f1a00906276a7009060040161204b565b602060405180830381600087803b15801561153157600080fd5b505af1158015611545573d6000803e3d6000fd5b505050506040513d601f19601f820116820180604052508101906115699190611c9b565b905061157361189a565b156115db57600b546040516306a169ed60e01b81526001600160a01b03909116906306a169ed906115a8908490600401611f7c565b600060405180830381600087803b1580156115c257600080fd5b505af11580156115d6573d6000803e3d6000fd5b505050505b600b80546001600160a01b0319166001600160a01b039290921691909117905550505050565b6001600160a01b03918216600090815260016020908152604080832093909416825291909152205490565b6116346112ab565b1561163e57600080fd5b61164b3382600a54611b44565b50565b6001600160a01b031660009081526005602052604090206002015490565b600081565b600b546001600160a01b0316331461168857600080fd5b61169c8261169584611067565b6001611b44565b6113f781836118ab565b6001600160a01b0380841660008181526001602090815260408083209487168084529490915290819020849055517f8c5be1e5ebec7d5bd14f71427d1e84f3dd0314c0f7b2291e5b200ac8c7c3b92590610d579085906122e9565b6001600160a01b03821661171457600080fd5b61171f838383611be7565b6001600160a01b03831660009081526020819052604081208054839290611747908490612357565b90915550506001600160a01b03821660009081526020819052604081208054839290611774908490612300565b92505081905550816001600160a01b0316836001600160a01b03167fddf252ad1be2c89b69c2b068fc378daa952ba7f163c4a11628f55a4df523b3ef83604051610d5791906122e9565b6117ca82600083611be7565b80600260008282546117dc9190612357565b90915550506001600160a01b03821660009081526020819052604081208054839290611809908490612357565b90915550506040516000906001600160a01b038416907fddf252ad1be2c89b69c2b068fc378daa952ba7f163c4a11628f55a4df523b3ef9061184c9085906122e9565b60405180910390a35050565b60006001600160a01b03821630141561187357506001610889565b6007546001600160a01b03838116911614156118925750600854610889565b506000610889565b600b546001600160a01b0316151590565b6118b36112ab565b6118bc57600080fd5b6009546040516370a0823160e01b81526001600160a01b039091169063a9059cbb90839083906370a08231906118f6903090600401611f7c565b60206040518083038186803b15801561190e57600080fd5b505afa158015611922573d6000803e3d6000fd5b505050506040513d601f19601f820116820180604052508101906119469190611f09565b6040518363ffffffff1660e01b8152600401611963929190611fb4565b602060405180830381600087803b15801561197d57600080fd5b505af1158015611991573d6000803e3d6000fd5b505050506040513d601f19601f820116820180604052508101906119b59190611dfa565b6119be57600080fd5b600980546001600160a01b0319166001600160a01b0384161790556113f76119e4610867565b6009546040516370a0823160e01b81526001600160a01b03909116906370a0823190611a14903090600401611f7c565b60206040518083038186803b158015611a2c57600080fd5b505afa158015611a40573d6000803e3d6000fd5b505050506040513d601f19601f82011682018060405250810190611a649190611f09565b611a6e9190612318565b611c5f565b6001600160a01b038216611a8657600080fd5b611a9260008383611be7565b8060026000828254611aa49190612300565b90915550506001600160a01b03821660009081526020819052604081208054839290611ad1908490612300565b90915550506040516001600160a01b038316906000907fddf252ad1be2c89b69c2b068fc378daa952ba7f163c4a11628f55a4df523b3ef9061184c9085906122e9565b6000611b208383611c72565b611b3c5760405162461bcd60e51b81526004016106c09061212b565b610631610f2c565b611b4e83836117be565b6009546001600160a01b031663a9059cbb84611b6a8486612338565b6040518363ffffffff1660e01b8152600401611b87929190611fb4565b602060405180830381600087803b158015611ba157600080fd5b505af1158015611bb5573d6000803e3d6000fd5b505050506040513d601f19601f82011682018060405250810190611bd99190611dfa565b611be257600080fd5b505050565b611bef61189a565b15611be257600b5460405163e1a1810f60e01b81526001600160a01b039091169063e1a1810f90611c2890869086908690600401611f90565b600060405180830381600087803b158015611c4257600080fd5b505af1158015611c56573d6000803e3d6000fd5b50505050505050565b6001811015611c6d57600080fd5b600a55565b6000610631338484611701565b600060208284031215611c90578081fd5b813561133b816123fb565b600060208284031215611cac578081fd5b815161133b816123fb565b60008060408385031215611cc9578081fd5b8235611cd4816123fb565b91506020830135611ce4816123fb565b809150509250929050565b600080600060608486031215611d03578081fd5b8335611d0e816123fb565b92506020840135611d1e816123fb565b929592945050506040919091013590565b60008060408385031215611d41578182fd5b8235611d4c816123fb565b946020939093013593505050565b60008060008060608587031215611d6f578081fd5b8435611d7a816123fb565b935060208501359250604085013567ffffffffffffffff80821115611d9d578283fd5b818701915087601f830112611db0578283fd5b813581811115611dbe578384fd5b886020828501011115611dcf578384fd5b95989497505060200194505050565b600060208284031215611def578081fd5b813561133b81612410565b600060208284031215611e0b578081fd5b815161133b81612410565b600080600060608486031215611e2a578283fd5b83359250602084013591506040840135611e43816123fb565b809150509250925092565b600060208284031215611e5f578081fd5b815167ffffffffffffffff80821115611e76578283fd5b818401915084601f830112611e89578283fd5b815181811115611e9b57611e9b6123e5565b604051601f8201601f191681016020018381118282101715611ebf57611ebf6123e5565b604052818152838201602001871015611ed6578485fd5b611ee782602083016020870161236e565b9695505050505050565b600060208284031215611f02578081fd5b5035919050565b600060208284031215611f1a578081fd5b5051919050565b6000601160fa1b82528251611f3d81600185016020870161236e565b9190910160010192915050565b6000690223930b3b3b0b13632960b51b82528251611f6f81600a85016020870161236e565b91909101600a0192915050565b6001600160a01b0391909116815260200190565b6001600160a01b039384168152919092166020820152604081019190915260600190565b6001600160a01b03929092168252602082015260400190565b6001600160a01b0385168152602081018490526060604082018190528101829052600082846080840137818301608090810191909152601f909201601f191601019392505050565b6001600160a01b03948516815260208101939093526040830191909152909116606082015260800190565b901515815260200190565b9687526001600160a01b0395861660208801526040870194909452919093166060850152608084019290925260a083019190915260c082015260e00190565b60006020825282518060208401526120a981604085016020870161236e565b601f01601f19169190910160400192915050565b6020808252601f908201527f4f6e6c7920636c61696d616e742063616e207265736f6c766520636c61696d00604082015260600190565b60208082526019908201527f436c61696d20706572696f64206e6f74206f7665722079657400000000000000604082015260600190565b6020808252600f908201526e151c985b9cd9995c8819985a5b1959608a1b604082015260600190565b602080825260169082015275155b9cdd5c1c1bdc9d19590818dbdb1b185d195c985b60521b604082015260600190565b6020808252600e908201526d139bc818db185a5b48199bdd5b9960921b604082015260600190565b6020808252601a908201527f436f6c6c61746572616c207472616e73666572206661696c6564000000000000604082015260600190565b6020808252818101527f436c61696d732064697361626c656420666f7220746869732061646472657373604082015260600190565b60208082526017908201527f4164647265737320616c726561647920636c61696d6564000000000000000000604082015260600190565b602080825260129082015271145d5bdc9d5b481b9bdd081c995858da195960721b604082015260600190565b6020808252601f908201527f436c61696d6564206164647265737320686f6c6473206e6f2073686172657300604082015260600190565b60208082526018908201527f596f752063616e6e6f742064656c65746520636c61696d730000000000000000604082015260600190565b90815260200190565b60ff91909116815260200190565b60008219821115612313576123136123cf565b500190565b60008261233357634e487b7160e01b81526012600452602481fd5b500490565b6000816000190483118215151615612352576123526123cf565b500290565b600082821015612369576123696123cf565b500390565b60005b83811015612389578181015183820152602001612371565b838111156113295750506000910152565b6002810460018216806123ae57607f821691505b6020821081141561115257634e487b7160e01b600052602260045260246000fd5b634e487b7160e01b600052601160045260246000fd5b634e487b7160e01b600052604160045260246000fd5b6001600160a01b038116811461164b57600080fd5b801515811461164b57600080fdfea264697066735822122024e67f28918bb5108f153443f416d3d92fa4c7fdaf65a5d9e2661af958c829c464736f6c63430008000033",
    "sourcePath": "c:/Users/luziu/Documents/aktionariat/contracts/src/DraggableShares.sol",
    "compiler": {
        "name": "solc",
        "version": "0.8.0+commit.c7dfd78e"
    },
    "functionHashes": {
        "OFFER_FACTORY()": "f4663075",
        "VALIDITY_PERIOD()": "0c43cd88",
        "VOTING_PERIOD()": "b1610d7e",
        "allowance(address,address)": "dd62ed3e",
        "approve(address,uint256)": "095ea7b3",
        "balanceOf(address)": "70a08231",
        "burn(uint256)": "42966c68",
        "claimPeriod()": "7dc2cd98",
        "claims(address)": "c6788bdd",
        "clearClaim()": "6b03ed5f",
        "customCollateralAddress()": "0c6f0e5d",
        "customCollateralRate()": "60918117",
        "decimals()": "313ce567",
        "declareLost(address,address)": "26773ddd",
        "decreaseAllowance(address,uint256)": "a457c2d7",
        "deleteClaim(address)": "32a7ae95",
        "drag(address,address)": "fcb79a7e",
        "getClaimDeleter()": "2a0a4ed5",
        "getClaimant(address)": "1e3b9de5",
        "getCollateral(address)": "9b56d6c9",
        "getCollateralRate(address)": "77e071ad",
        "getCollateralType(address)": "3bcc45ba",
        "getTimeStamp(address)": "eb470ebf",
        "increaseAllowance(address,uint256)": "39509351",
        "isBinding()": "9e4b5745",
        "isRecoveryEnabled(address)": "a3ec1883",
        "makeAcquisitionOffer(bytes32,uint256,address)": "dcc7d4ad",
        "migrate()": "8fd3ab80",
        "name()": "06fdde03",
        "notifyOfferEnded()": "32bc320b",
        "offer()": "c028df06",
        "onTokenTransfer(address,uint256,bytes)": "a4c0ed36",
        "quorum()": "1703a018",
        "recover(address)": "0cd865ec",
        "recoveryDisabled(address)": "b40e80d1",
        "setRecoverable(bool)": "6427ed97",
        "symbol()": "95d89b41",
        "terms()": "d5025625",
        "totalSupply()": "18160ddd",
        "transfer(address,uint256)": "a9059cbb",
        "transferAndCall(address,uint256,bytes)": "4000aea0",
        "transferFrom(address,address,uint256)": "23b872dd",
        "unwrap(uint256)": "de0e9a3e",
        "unwrapConversionFactor()": "0832e470",
        "wrap(address,uint256)": "bf376c7a",
        "wrapped()": "50e70d48"
    },
    "gasEstimates": {
        "creation": {
            "codeDepositCost": "1860000",
            "executionCost": "infinite",
            "totalCost": "infinite"
        },
        "external": {
            "OFFER_FACTORY()": "384",
            "VALIDITY_PERIOD()": "341",
            "VOTING_PERIOD()": "273",
            "allowance(address,address)": "infinite",
            "approve(address,uint256)": "22571",
            "balanceOf(address)": "1313",
            "burn(uint256)": "infinite",
            "claimPeriod()": "1118",
            "claims(address)": "3950",
            "clearClaim()": "infinite",
            "customCollateralAddress()": "1205",
            "customCollateralRate()": "1139",
            "decimals()": "1114",
            "declareLost(address,address)": "infinite",
            "decreaseAllowance(address,uint256)": "23626",
            "deleteClaim(address)": "infinite",
            "drag(address,address)": "infinite",
            "getClaimDeleter()": "infinite",
            "getClaimant(address)": "1415",
            "getCollateral(address)": "1315",
            "getCollateralRate(address)": "infinite",
            "getCollateralType(address)": "1459",
            "getTimeStamp(address)": "1380",
            "increaseAllowance(address,uint256)": "23652",
            "isBinding()": "1104",
            "isRecoveryEnabled(address)": "1368",
            "makeAcquisitionOffer(bytes32,uint256,address)": "infinite",
            "migrate()": "infinite",
            "name()": "infinite",
            "notifyOfferEnded()": "21929",
            "offer()": "1181",
            "onTokenTransfer(address,uint256,bytes)": "infinite",
            "quorum()": "1096",
            "recover(address)": "infinite",
            "recoveryDisabled(address)": "1325",
            "setRecoverable(bool)": "21321",
            "symbol()": "infinite",
            "terms()": "infinite",
            "totalSupply()": "1118",
            "transfer(address,uint256)": "infinite",
            "transferAndCall(address,uint256,bytes)": "infinite",
            "transferFrom(address,address,uint256)": "infinite",
            "unwrap(uint256)": "infinite",
            "unwrapConversionFactor()": "1097",
            "wrap(address,uint256)": "infinite",
            "wrapped()": "1159"
        }
    }
}