{
    "contractName": "DraggableShares",
    "abi": [
        {
            "inputs": [
                {
                    "internalType": "string",
                    "name": "_terms",
                    "type": "string"
                },
                {
                    "internalType": "address",
                    "name": "wrappedToken",
                    "type": "address"
                },
                {
                    "internalType": "uint256",
                    "name": "quorumBps",
                    "type": "uint256"
                },
                {
                    "internalType": "uint256",
                    "name": "votePeriodSeconds",
                    "type": "uint256"
                }
            ],
            "stateMutability": "nonpayable",
            "type": "constructor"
        },
        {
            "anonymous": false,
            "inputs": [
                {
                    "indexed": true,
                    "internalType": "address",
                    "name": "owner",
                    "type": "address"
                },
                {
                    "indexed": true,
                    "internalType": "address",
                    "name": "spender",
                    "type": "address"
                },
                {
                    "indexed": false,
                    "internalType": "uint256",
                    "name": "value",
                    "type": "uint256"
                }
            ],
            "name": "Approval",
            "type": "event"
        },
        {
            "anonymous": false,
            "inputs": [
                {
                    "indexed": false,
                    "internalType": "address",
                    "name": "newContractAddress",
                    "type": "address"
                },
                {
                    "indexed": false,
                    "internalType": "uint256",
                    "name": "yesVotes",
                    "type": "uint256"
                },
                {
                    "indexed": false,
                    "internalType": "uint256",
                    "name": "oracleVotes",
                    "type": "uint256"
                },
                {
                    "indexed": false,
                    "internalType": "uint256",
                    "name": "totalVotingPower",
                    "type": "uint256"
                }
            ],
            "name": "MigrationSucceeded",
            "type": "event"
        },
        {
            "anonymous": false,
            "inputs": [
                {
                    "indexed": true,
                    "internalType": "address",
                    "name": "from",
                    "type": "address"
                },
                {
                    "indexed": true,
                    "internalType": "address",
                    "name": "to",
                    "type": "address"
                },
                {
                    "indexed": false,
                    "internalType": "uint256",
                    "name": "value",
                    "type": "uint256"
                }
            ],
            "name": "Transfer",
            "type": "event"
        },
        {
            "inputs": [
                {
                    "internalType": "address",
                    "name": "owner",
                    "type": "address"
                },
                {
                    "internalType": "address",
                    "name": "spender",
                    "type": "address"
                }
            ],
            "name": "allowance",
            "outputs": [
                {
                    "internalType": "uint256",
                    "name": "",
                    "type": "uint256"
                }
            ],
            "stateMutability": "view",
            "type": "function"
        },
        {
            "inputs": [
                {
                    "internalType": "address",
                    "name": "spender",
                    "type": "address"
                },
                {
                    "internalType": "uint256",
                    "name": "value",
                    "type": "uint256"
                }
            ],
            "name": "approve",
            "outputs": [
                {
                    "internalType": "bool",
                    "name": "",
                    "type": "bool"
                }
            ],
            "stateMutability": "nonpayable",
            "type": "function"
        },
        {
            "inputs": [
                {
                    "internalType": "address",
                    "name": "account",
                    "type": "address"
                }
            ],
            "name": "balanceOf",
            "outputs": [
                {
                    "internalType": "uint256",
                    "name": "",
                    "type": "uint256"
                }
            ],
            "stateMutability": "view",
            "type": "function"
        },
        {
            "inputs": [
                {
                    "internalType": "uint256",
                    "name": "amount",
                    "type": "uint256"
                }
            ],
            "name": "burn",
            "outputs": [],
            "stateMutability": "nonpayable",
            "type": "function"
        },
        {
            "inputs": [],
            "name": "claimPeriod",
            "outputs": [
                {
                    "internalType": "uint256",
                    "name": "",
                    "type": "uint256"
                }
            ],
            "stateMutability": "pure",
            "type": "function"
        },
        {
            "inputs": [],
            "name": "customCollateralAddress",
            "outputs": [
                {
                    "internalType": "address",
                    "name": "",
                    "type": "address"
                }
            ],
            "stateMutability": "view",
            "type": "function"
        },
        {
            "inputs": [],
            "name": "customCollateralRate",
            "outputs": [
                {
                    "internalType": "uint256",
                    "name": "",
                    "type": "uint256"
                }
            ],
            "stateMutability": "view",
            "type": "function"
        },
        {
            "inputs": [],
            "name": "decimals",
            "outputs": [
                {
                    "internalType": "uint8",
                    "name": "",
                    "type": "uint8"
                }
            ],
            "stateMutability": "view",
            "type": "function"
        },
        {
            "inputs": [
                {
                    "internalType": "address",
                    "name": "lostAddress",
                    "type": "address"
                }
            ],
            "name": "deleteClaim",
            "outputs": [],
            "stateMutability": "nonpayable",
            "type": "function"
        },
        {
            "inputs": [
                {
                    "internalType": "address",
                    "name": "buyer",
                    "type": "address"
                },
                {
                    "internalType": "address",
                    "name": "currency",
                    "type": "address"
                }
            ],
            "name": "drag",
            "outputs": [],
            "stateMutability": "nonpayable",
            "type": "function"
        },
        {
            "inputs": [],
            "name": "factory",
            "outputs": [
                {
                    "internalType": "contract IOfferFactory",
                    "name": "",
                    "type": "address"
                }
            ],
            "stateMutability": "view",
            "type": "function"
        },
        {
            "inputs": [],
            "name": "getClaimDeleter",
            "outputs": [
                {
                    "internalType": "address",
                    "name": "",
                    "type": "address"
                }
            ],
            "stateMutability": "view",
            "type": "function"
        },
        {
            "inputs": [
                {
                    "internalType": "address",
                    "name": "collateralType",
                    "type": "address"
                }
            ],
            "name": "getCollateralRate",
            "outputs": [
                {
                    "internalType": "uint256",
                    "name": "",
                    "type": "uint256"
                }
            ],
            "stateMutability": "view",
            "type": "function"
        },
        {
            "inputs": [],
            "name": "getOracle",
            "outputs": [
                {
                    "internalType": "address",
                    "name": "",
                    "type": "address"
                }
            ],
            "stateMutability": "view",
            "type": "function"
        },
        {
            "inputs": [
                {
                    "internalType": "address",
                    "name": "account",
                    "type": "address"
                },
                {
                    "internalType": "uint8",
                    "name": "number",
                    "type": "uint8"
                }
            ],
            "name": "hasFlag",
            "outputs": [
                {
                    "internalType": "bool",
                    "name": "",
                    "type": "bool"
                }
            ],
            "stateMutability": "view",
            "type": "function"
        },
        {
            "inputs": [],
            "name": "isBinding",
            "outputs": [
                {
                    "internalType": "bool",
                    "name": "",
                    "type": "bool"
                }
            ],
            "stateMutability": "view",
            "type": "function"
        },
        {
            "inputs": [
                {
                    "internalType": "bytes32",
                    "name": "salt",
                    "type": "bytes32"
                },
                {
                    "internalType": "uint256",
                    "name": "pricePerShare",
                    "type": "uint256"
                },
                {
                    "internalType": "address",
                    "name": "currency",
                    "type": "address"
                }
            ],
            "name": "makeAcquisitionOffer",
            "outputs": [],
            "stateMutability": "payable",
            "type": "function"
        },
        {
            "inputs": [],
            "name": "migrate",
            "outputs": [],
            "stateMutability": "nonpayable",
            "type": "function"
        },
        {
            "inputs": [
                {
                    "internalType": "address",
                    "name": "target",
                    "type": "address"
                },
                {
                    "internalType": "uint256",
                    "name": "externalSupportingVotes",
                    "type": "uint256"
                }
            ],
            "name": "migrateWithExternalApproval",
            "outputs": [],
            "stateMutability": "nonpayable",
            "type": "function"
        },
        {
            "inputs": [],
            "name": "name",
            "outputs": [
                {
                    "internalType": "string",
                    "name": "",
                    "type": "string"
                }
            ],
            "stateMutability": "view",
            "type": "function"
        },
        {
            "inputs": [
                {
                    "internalType": "address",
                    "name": "target",
                    "type": "address"
                }
            ],
            "name": "notifyClaimDeleted",
            "outputs": [],
            "stateMutability": "nonpayable",
            "type": "function"
        },
        {
            "inputs": [
                {
                    "internalType": "address",
                    "name": "target",
                    "type": "address"
                }
            ],
            "name": "notifyClaimMade",
            "outputs": [],
            "stateMutability": "nonpayable",
            "type": "function"
        },
        {
            "inputs": [],
            "name": "notifyOfferEnded",
            "outputs": [],
            "stateMutability": "nonpayable",
            "type": "function"
        },
        {
            "inputs": [],
            "name": "offer",
            "outputs": [
                {
                    "internalType": "contract IOffer",
                    "name": "",
                    "type": "address"
                }
            ],
            "stateMutability": "view",
            "type": "function"
        },
        {
            "inputs": [
                {
                    "internalType": "address",
                    "name": "from",
                    "type": "address"
                },
                {
                    "internalType": "uint256",
                    "name": "amount",
                    "type": "uint256"
                },
                {
                    "internalType": "bytes",
                    "name": "",
                    "type": "bytes"
                }
            ],
            "name": "onTokenTransfer",
            "outputs": [
                {
                    "internalType": "bool",
                    "name": "",
                    "type": "bool"
                }
            ],
            "stateMutability": "nonpayable",
            "type": "function"
        },
        {
            "inputs": [],
            "name": "quorum",
            "outputs": [
                {
                    "internalType": "uint256",
                    "name": "",
                    "type": "uint256"
                }
            ],
            "stateMutability": "view",
            "type": "function"
        },
        {
            "inputs": [
                {
                    "internalType": "address",
                    "name": "oldAddress",
                    "type": "address"
                },
                {
                    "internalType": "address",
                    "name": "newAddress",
                    "type": "address"
                }
            ],
            "name": "recover",
            "outputs": [],
            "stateMutability": "nonpayable",
            "type": "function"
        },
        {
            "inputs": [],
            "name": "recovery",
            "outputs": [
                {
                    "internalType": "contract IRecoveryHub",
                    "name": "",
                    "type": "address"
                }
            ],
            "stateMutability": "view",
            "type": "function"
        },
        {
            "inputs": [
                {
                    "internalType": "address",
                    "name": "newOracle",
                    "type": "address"
                }
            ],
            "name": "setOracle",
            "outputs": [],
            "stateMutability": "nonpayable",
            "type": "function"
        },
        {
            "inputs": [],
            "name": "symbol",
            "outputs": [
                {
                    "internalType": "string",
                    "name": "",
                    "type": "string"
                }
            ],
            "stateMutability": "view",
            "type": "function"
        },
        {
            "inputs": [],
            "name": "terms",
            "outputs": [
                {
                    "internalType": "string",
                    "name": "",
                    "type": "string"
                }
            ],
            "stateMutability": "view",
            "type": "function"
        },
        {
            "inputs": [],
            "name": "totalSupply",
            "outputs": [
                {
                    "internalType": "uint256",
                    "name": "",
                    "type": "uint256"
                }
            ],
            "stateMutability": "view",
            "type": "function"
        },
        {
            "inputs": [],
            "name": "totalVotingTokens",
            "outputs": [
                {
                    "internalType": "uint256",
                    "name": "",
                    "type": "uint256"
                }
            ],
            "stateMutability": "view",
            "type": "function"
        },
        {
            "inputs": [
                {
                    "internalType": "address",
                    "name": "to",
                    "type": "address"
                },
                {
                    "internalType": "uint256",
                    "name": "value",
                    "type": "uint256"
                }
            ],
            "name": "transfer",
            "outputs": [
                {
                    "internalType": "bool",
                    "name": "",
                    "type": "bool"
                }
            ],
            "stateMutability": "nonpayable",
            "type": "function"
        },
        {
            "inputs": [
                {
                    "internalType": "address",
                    "name": "recipient",
                    "type": "address"
                },
                {
                    "internalType": "uint256",
                    "name": "amount",
                    "type": "uint256"
                },
                {
                    "internalType": "bytes",
                    "name": "data",
                    "type": "bytes"
                }
            ],
            "name": "transferAndCall",
            "outputs": [
                {
                    "internalType": "bool",
                    "name": "",
                    "type": "bool"
                }
            ],
            "stateMutability": "nonpayable",
            "type": "function"
        },
        {
            "inputs": [
                {
                    "internalType": "address",
                    "name": "sender",
                    "type": "address"
                },
                {
                    "internalType": "address",
                    "name": "recipient",
                    "type": "address"
                },
                {
                    "internalType": "uint256",
                    "name": "amount",
                    "type": "uint256"
                }
            ],
            "name": "transferFrom",
            "outputs": [
                {
                    "internalType": "bool",
                    "name": "",
                    "type": "bool"
                }
            ],
            "stateMutability": "nonpayable",
            "type": "function"
        },
        {
            "inputs": [
                {
                    "internalType": "uint256",
                    "name": "amount",
                    "type": "uint256"
                }
            ],
            "name": "unwrap",
            "outputs": [],
            "stateMutability": "nonpayable",
            "type": "function"
        },
        {
            "inputs": [],
            "name": "unwrapConversionFactor",
            "outputs": [
                {
                    "internalType": "uint256",
                    "name": "",
                    "type": "uint256"
                }
            ],
            "stateMutability": "view",
            "type": "function"
        },
        {
            "inputs": [],
            "name": "votePeriod",
            "outputs": [
                {
                    "internalType": "uint256",
                    "name": "",
                    "type": "uint256"
                }
            ],
            "stateMutability": "view",
            "type": "function"
        },
        {
            "inputs": [
                {
                    "internalType": "address",
                    "name": "voter",
                    "type": "address"
                }
            ],
            "name": "votingPower",
            "outputs": [
                {
                    "internalType": "uint256",
                    "name": "",
                    "type": "uint256"
                }
            ],
            "stateMutability": "view",
            "type": "function"
        },
        {
            "inputs": [
                {
                    "internalType": "address",
                    "name": "shareholder",
                    "type": "address"
                },
                {
                    "internalType": "uint256",
                    "name": "amount",
                    "type": "uint256"
                }
            ],
            "name": "wrap",
            "outputs": [],
            "stateMutability": "nonpayable",
            "type": "function"
        },
        {
            "inputs": [],
            "name": "wrapped",
            "outputs": [
                {
                    "internalType": "contract IERC20",
                    "name": "",
                    "type": "address"
                }
            ],
            "stateMutability": "view",
            "type": "function"
        }
    ],
    "bytecode": "60c060405260006006553480156200001657600080fd5b5060405162002325380380620023258339810160408190526200003991620001c4565b6003805460ff19169055600580546001600160a01b0319166001600160a01b038516179055608082905260a0819052604051636427ed9760e01b81526000600482015283908390839064012312312390636427ed9790602401600060405180830381600087803b158015620000ad57600080fd5b505af1158015620000c2573d6000803e3d6000fd5b50508851620000e095506009945060208a0193509150620000eb9050565b505050505062000302565b828054620000f990620002c5565b90600052602060002090601f0160209004810192826200011d576000855562000168565b82601f106200013857805160ff191683800117855562000168565b8280016001018555821562000168579182015b82811115620001685782518255916020019190600101906200014b565b50620001769291506200017a565b5090565b5b808211156200017657600081556001016200017b565b634e487b7160e01b600052604160045260246000fd5b80516001600160a01b0381168114620001bf57600080fd5b919050565b60008060008060808587031215620001db57600080fd5b84516001600160401b0380821115620001f357600080fd5b818701915087601f8301126200020857600080fd5b8151818111156200021d576200021d62000191565b604051601f8201601f19908116603f0116810190838211818310171562000248576200024862000191565b81604052828152602093508a848487010111156200026557600080fd5b600091505b828210156200028957848201840151818301850152908301906200026a565b828211156200029b5760008484830101525b9750620002ad915050878201620001a7565b60408801516060909801519699909850945050505050565b600181811c90821680620002da57607f821691505b60208210811415620002fc57634e487b7160e01b600052602260045260246000fd5b50919050565b60805160a051611fe86200033d600039600081816105c401526110680152600081816103390152818161104201526112c40152611fe86000f3fe6080604052600436106102515760003560e01c80637dc2cd9811610139578063c07473f6116100b6578063dd62ed3e1161007a578063dd62ed3e146106c3578063ddceafa914610709578063de0e9a3e14610726578063e5b824ec14610746578063f5c0b95f14610766578063fcb79a7e1461078657600080fd5b8063c07473f614610646578063c18172c414610666578063c45a015514610686578063d50256251461069b578063dcc7d4ad146106b057600080fd5b8063a4c0ed36116100fd578063a4c0ed3614610592578063a7813587146105b2578063a9059cbb146105e6578063bf376c7a14610606578063c028df061461062657600080fd5b80637dc2cd981461051e578063833b1fce146105345780638fd3ab801461055257806395d89b41146105675780639e4b57451461057c57600080fd5b8063313ce567116101d257806350e70d481161019657806350e70d48146104685780636091811714610488578063648bf7741461049e57806370a08231146104be57806377e071ad146104de5780637adbf973146104fe57600080fd5b8063313ce567146103c757806332a7ae95146103f357806332bc320b146104135780634000aea01461042857806342966c681461044857600080fd5b80631703a018116102195780631703a0181461032757806318160ddd1461035b578063198453541461037057806323b872dd146103925780632a0a4ed5146103b257600080fd5b806306fdde03146102565780630832e47014610281578063095ea7b3146102a55780630a81b2de146102d55780630c6f0e5d146102ea575b600080fd5b34801561026257600080fd5b5061026b6107a6565b6040516102789190611ada565b60405180910390f35b34801561028d57600080fd5b5061029760065481565b604051908152602001610278565b3480156102b157600080fd5b506102c56102c0366004611b22565b6108ff565b6040519015158152602001610278565b3480156102e157600080fd5b50610297610915565b3480156102f657600080fd5b5060035461030f9061010090046001600160a01b031681565b6040516001600160a01b039091168152602001610278565b34801561033357600080fd5b506102977f000000000000000000000000000000000000000000000000000000000000000081565b34801561036757600080fd5b50600254610297565b34801561037c57600080fd5b5061039061038b366004611b22565b610997565b005b34801561039e57600080fd5b506102c56103ad366004611b4e565b6109e3565b3480156103be57600080fd5b5061030f610a3f565b3480156103d357600080fd5b506003546103e19060ff1681565b60405160ff9091168152602001610278565b3480156103ff57600080fd5b5061039061040e366004611b8f565b610a53565b34801561041f57600080fd5b50610390610b11565b34801561043457600080fd5b506102c5610443366004611bac565b610b37565b34801561045457600080fd5b50610390610463366004611c35565b610bdc565b34801561047457600080fd5b5060055461030f906001600160a01b031681565b34801561049457600080fd5b5061029760045481565b3480156104aa57600080fd5b506103906104b9366004611c4e565b610c73565b3480156104ca57600080fd5b506102976104d9366004611b8f565b610c9b565b3480156104ea57600080fd5b506102976104f9366004611b8f565b610cbf565b34801561050a57600080fd5b50610390610519366004611b8f565b610d90565b34801561052a57600080fd5b5062ed4e00610297565b34801561054057600080fd5b506008546001600160a01b031661030f565b34801561055e57600080fd5b50610390610dc9565b34801561057357600080fd5b5061026b610dd4565b34801561058857600080fd5b50600654156102c5565b34801561059e57600080fd5b506102c56105ad366004611bac565b610e65565b3480156105be57600080fd5b506102977f000000000000000000000000000000000000000000000000000000000000000081565b3480156105f257600080fd5b506102c5610601366004611b22565b610e89565b34801561061257600080fd5b50610390610621366004611b22565b610e95565b34801561063257600080fd5b5060075461030f906001600160a01b031681565b34801561065257600080fd5b50610297610661366004611b8f565b610f32565b34801561067257600080fd5b50610390610681366004611b8f565b610f43565b34801561069257600080fd5b5061030f600081565b3480156106a757600080fd5b5061026b610f75565b6103906106be366004611c87565b611003565b3480156106cf57600080fd5b506102976106de366004611c4e565b6001600160a01b03918216600090815260016020908152604080832093909416825291909152205490565b34801561071557600080fd5b5061030f6812312312312312312381565b34801561073257600080fd5b50610390610741366004611c35565b61118e565b34801561075257600080fd5b50610390610761366004611b8f565b6111a7565b34801561077257600080fd5b506102c5610781366004611cc0565b6111d7565b34801561079257600080fd5b506103906107a1366004611c4e565b6111e3565b60606107b26006541590565b1561086557600560009054906101000a90046001600160a01b03166001600160a01b03166306fdde036040518163ffffffff1660e01b815260040160006040518083038186803b15801561080557600080fd5b505afa158015610819573d6000803e3d6000fd5b505050506040513d6000823e601f3d908101601f191682016040526108419190810190611d0a565b6040516020016108519190611db7565b604051602081830303815290604052905090565b600560009054906101000a90046001600160a01b03166001600160a01b03166306fdde036040518163ffffffff1660e01b815260040160006040518083038186803b1580156108b357600080fd5b505afa1580156108c7573d6000803e3d6000fd5b505050506040513d6000823e601f3d908101601f191682016040526108ef9190810190611d0a565b6040516020016108519190611ddf565b600061090c338484611218565b50600192915050565b60055460408051633a98ef3960e01b815290516000926001600160a01b031691633a98ef39916004808301926020929190829003018186803b15801561095a57600080fd5b505afa15801561096e573d6000803e3d6000fd5b505050506040513d601f19601f820116820180604052508101906109929190611e0d565b905090565b6008546001600160a01b031633146109ae57600080fd5b6109b6610915565b816109c060025490565b6109ca9190611e3c565b11156109d557600080fd5b6109df828261127a565b5050565b60006109f084848461138d565b6001600160a01b0384166000908152600160209081526040808320338452909152902054600160ff1b811015610a3457610a348533610a2f8685611e54565b611218565b506001949350505050565b60006109926008546001600160a01b031690565b610a5b610a3f565b6001600160a01b0316336001600160a01b031614610aac5760405162461bcd60e51b81526020600482015260096024820152686e6f2061636365737360b81b60448201526064015b60405180910390fd5b6040516332a7ae9560e01b81526001600160a01b038216600482015268123123123123123123906332a7ae9590602401600060405180830381600087803b158015610af657600080fd5b505af1158015610b0a573d6000803e3d6000fd5b5050505050565b6007546001600160a01b0316331415610b3557600780546001600160a01b03191690555b565b600080610b448686610e89565b90508015610bd357604051635260769b60e11b81526001600160a01b0387169063a4c0ed3690610b7e903390899089908990600401611e6b565b602060405180830381600087803b158015610b9857600080fd5b505af1158015610bac573d6000803e3d6000fd5b505050506040513d601f19601f82011682018060405250810190610bd09190611eb3565b90505b95945050505050565b610be63382611415565b6000610bf26006541590565b610bfe57600654610c01565b60015b6005549091506001600160a01b03166342966c68610c1f8385611ed5565b6040518263ffffffff1660e01b8152600401610c3d91815260200190565b600060405180830381600087803b158015610c5757600080fd5b505af1158015610c6b573d6000803e3d6000fd5b505050505050565b336812312312312312312314610c8857600080fd5b6109df8282610c9685610c9b565b61138d565b6001600160a01b03166000908152602081905260409020546001600160e01b031690565b600080610ccb836114ab565b90508015610cd95792915050565b6005546001600160a01b0384811691161415610cf9575050600654919050565b6006546005546040516377e071ad60e01b81526001600160a01b038681166004830152909116906377e071ad9060240160206040518083038186803b158015610d4157600080fd5b505afa158015610d55573d6000803e3d6000fd5b505050506040513d601f19601f82011682018060405250810190610d799190611e0d565b610d839190611ed5565b9392505050565b50919050565b6008546001600160a01b03163314610da757600080fd5b600880546001600160a01b0319166001600160a01b0392909216919091179055565b610b3533600061127a565b600554604080516395d89b4160e01b815290516060926001600160a01b0316916395d89b41916004808301926000929190829003018186803b158015610e1957600080fd5b505afa158015610e2d573d6000803e3d6000fd5b505050506040513d6000823e601f3d908101601f19168201604052610e559190810190611d0a565b6040516020016108519190611ef4565b6005546000906001600160a01b03163314610e7f57600080fd5b610a3485856114f1565b6000610d83838361155d565b6005546040516323b872dd60e01b8152336004820152306024820152604481018390526001600160a01b03909116906323b872dd90606401602060405180830381600087803b158015610ee757600080fd5b505af1158015610efb573d6000803e3d6000fd5b505050506040513d601f19601f82011682018060405250810190610f1f9190611eb3565b610f2857600080fd5b6109df82826114f1565b6000610f3d82610c9b565b92915050565b336812312312312312312314610f5857600080fd5b610f6381600a6115e4565b610f7257610f7281600a611624565b50565b60098054610f8290611f19565b80601f0160208091040260200160405190810160405280929190818152602001828054610fae90611f19565b8015610ffb5780601f10610fd057610100808354040283529160200191610ffb565b820191906000526020600020905b815481529060010190602001808311610fde57829003601f168201915b505050505081565b6006541561101057600080fd5b604051634dc5e43160e01b815260048101849052336024820152604481018390526001600160a01b03821660648201527f000000000000000000000000000000000000000000000000000000000000000060848201527f000000000000000000000000000000000000000000000000000000000000000060a48201526000908190634dc5e43190349060c4016020604051808303818588803b1580156110b557600080fd5b505af11580156110c9573d6000803e3d6000fd5b50505050506040513d601f19601f820116820180604052508101906110ee9190611f4e565b90506111046007546001600160a01b0316151590565b15611169576007546040516306a169ed60e01b81526001600160a01b038381166004830152909116906306a169ed90602401600060405180830381600087803b15801561115057600080fd5b505af1158015611164573d6000803e3d6000fd5b505050505b600780546001600160a01b0319166001600160a01b0392909216919091179055505050565b60065461119a57600080fd5b610f723382600654611662565b3368123123123123123123146111bc57600080fd5b6111c781600a6111d7565b15610f7257610f7281600a611624565b6000610d8383836115e4565b6007546001600160a01b031633146111fa57600080fd5b61120e8261120784610c9b565b6001611662565b6109df8183611714565b6001600160a01b0383811660008181526001602090815260408083209487168084529482529182902085905590518481527f8c5be1e5ebec7d5bd14f71427d1e84f3dd0314c0f7b2291e5b200ac8c7c3b92591015b60405180910390a3505050565b600061128583610c9b565b61128f9083611e3c565b9050600061129b610915565b90508082106112a957600080fd5b6007546001600160a01b0316156112bf57600080fd5b6112e97f000000000000000000000000000000000000000000000000000000000000000082611ed5565b6112f583612710611ed5565b101561132c5760405162461bcd60e51b815260206004820152600660248201526571756f72756d60d01b6044820152606401610aa3565b6113368485611714565b604080516001600160a01b038616815260208101849052908101849052606081018290527f85e5711a70a7d2bae18e1232af474d82c98600b0e62fe079a28208520b58568e9060800160405180910390a150505050565b6113988383836118d9565b6001600160a01b038316600090815260208190526040812080548392906113c0908490611e54565b909155506113d0905082826118e4565b816001600160a01b0316836001600160a01b03167fddf252ad1be2c89b69c2b068fc378daa952ba7f163c4a11628f55a4df523b3ef8360405161126d91815260200190565b611421826000836118d9565b80600260008282546114339190611e54565b90915550506001600160a01b03821660009081526020819052604081208054839290611460908490611e54565b90915550506040518181526000906001600160a01b038416907fddf252ad1be2c89b69c2b068fc378daa952ba7f163c4a11628f55a4df523b3ef906020015b60405180910390a35050565b60006001600160a01b0382163014156114c657506001919050565b6003546001600160a01b038381166101009092041614156114e957505060045490565b506000919050565b6114fd600083836118d9565b806002600082825461150f9190611e3c565b9091555061151f905082826118e4565b6040518181526001600160a01b038316906000907fddf252ad1be2c89b69c2b068fc378daa952ba7f163c4a11628f55a4df523b3ef9060200161149f565b6000611569838361197e565b61157257600080fd5b61157d33600a6115e4565b1561090c576040516304d301a360e41b81523360048201526812312312312312312390634d301a3090602401600060405180830381600087803b1580156115c357600080fd5b505af11580156115d7573d6000803e3d6000fd5b5050505050600192915050565b6000806115f28360e0611f6b565b6001600160a01b038516600090815260208190526040902054600160ff929092169190911b9081161491505092915050565b60006116318260e0611f6b565b6001600160a01b039390931660009081526020819052604090208054600160ff9095169490941b9093189092555050565b61166c8383611415565b6005546001600160a01b031663a9059cbb846116888486611ed5565b6040516001600160e01b031960e085901b1681526001600160a01b0390921660048301526024820152604401602060405180830381600087803b1580156116ce57600080fd5b505af11580156116e2573d6000803e3d6000fd5b505050506040513d601f19601f820116820180604052508101906117069190611eb3565b61170f57600080fd5b505050565b6006541561172157600080fd5b6005546040516370a0823160e01b81523060048201526001600160a01b039091169063a9059cbb90839083906370a082319060240160206040518083038186803b15801561176e57600080fd5b505afa158015611782573d6000803e3d6000fd5b505050506040513d601f19601f820116820180604052508101906117a69190611e0d565b6040516001600160e01b031960e085901b1681526001600160a01b0390921660048301526024820152604401602060405180830381600087803b1580156117ec57600080fd5b505af1158015611800573d6000803e3d6000fd5b505050506040513d601f19601f820116820180604052508101906118249190611eb3565b61182d57600080fd5b600580546001600160a01b0319166001600160a01b0384161790556002546109df906005546040516370a0823160e01b81523060048201526001600160a01b03909116906370a082319060240160206040518083038186803b15801561189257600080fd5b505afa1580156118a6573d6000803e3d6000fd5b505050506040513d601f19601f820116820180604052508101906118ca9190611e0d565b6118d49190611f90565b61198b565b61170f8383836119ca565b6001600160a01b038216600090815260208190526040812054906001600160e01b03198216906119148484611e3c565b90506001600160e01b0319811682811461195b5760405162461bcd60e51b81526020600482015260086024820152676f766572666c6f7760c01b6044820152606401610aa3565b506001600160a01b03909416600090815260208190526040902093909355505050565b600061090c33848461138d565b60018110156119c55760405162461bcd60e51b81526020600482015260066024820152653330b1ba37b960d11b6044820152606401610aa3565b600655565b6119d383611a9d565b806119e257506119e282611a9d565b1561170f576007546001600160a01b031615611a6b5760075460405163e1a1810f60e01b81526001600160a01b0385811660048301528481166024830152604482018490529091169063e1a1810f90606401600060405180830381600087803b158015611a4e57600080fd5b505af1158015611a62573d6000803e3d6000fd5b50505050505050565b611a7483611a9d565b15611a8457611a84836001611624565b611a8d82611a9d565b1561170f5761170f826001611624565b6000610f3d8260016115e4565b60005b83811015611ac5578181015183820152602001611aad565b83811115611ad4576000848401525b50505050565b6020815260008251806020840152611af9816040850160208701611aaa565b601f01601f19169190910160400192915050565b6001600160a01b0381168114610f7257600080fd5b60008060408385031215611b3557600080fd5b8235611b4081611b0d565b946020939093013593505050565b600080600060608486031215611b6357600080fd5b8335611b6e81611b0d565b92506020840135611b7e81611b0d565b929592945050506040919091013590565b600060208284031215611ba157600080fd5b8135610d8381611b0d565b60008060008060608587031215611bc257600080fd5b8435611bcd81611b0d565b935060208501359250604085013567ffffffffffffffff80821115611bf157600080fd5b818701915087601f830112611c0557600080fd5b813581811115611c1457600080fd5b886020828501011115611c2657600080fd5b95989497505060200194505050565b600060208284031215611c4757600080fd5b5035919050565b60008060408385031215611c6157600080fd5b8235611c6c81611b0d565b91506020830135611c7c81611b0d565b809150509250929050565b600080600060608486031215611c9c57600080fd5b83359250602084013591506040840135611cb581611b0d565b809150509250925092565b60008060408385031215611cd357600080fd5b8235611cde81611b0d565b9150602083013560ff81168114611c7c57600080fd5b634e487b7160e01b600052604160045260246000fd5b600060208284031215611d1c57600080fd5b815167ffffffffffffffff80821115611d3457600080fd5b818401915084601f830112611d4857600080fd5b815181811115611d5a57611d5a611cf4565b604051601f8201601f19908116603f01168101908382118183101715611d8257611d82611cf4565b81604052828152876020848701011115611d9b57600080fd5b611dac836020830160208801611aaa565b979650505050505050565b60008251611dc9818460208701611aaa565b632053484160e01b920191825250600401919050565b60008251611df1818460208701611aaa565b692028577261707065642960b01b920191825250600a01919050565b600060208284031215611e1f57600080fd5b5051919050565b634e487b7160e01b600052601160045260246000fd5b60008219821115611e4f57611e4f611e26565b500190565b600082821015611e6657611e66611e26565b500390565b6001600160a01b0385168152602081018490526060604082018190528101829052818360808301376000818301608090810191909152601f909201601f191601019392505050565b600060208284031215611ec557600080fd5b81518015158114610d8357600080fd5b6000816000190483118215151615611eef57611eef611e26565b500290565b60008251611f06818460208701611aaa565b605360f81b920191825250600101919050565b600181811c90821680611f2d57607f821691505b60208210811415610d8a57634e487b7160e01b600052602260045260246000fd5b600060208284031215611f6057600080fd5b8151610d8381611b0d565b600060ff821660ff84168060ff03821115611f8857611f88611e26565b019392505050565b600082611fad57634e487b7160e01b600052601260045260246000fd5b50049056fea2646970667358221220733c21b4964f1713e935e63d3455d64b30578802db5e210d43d24361c1543b4e64736f6c63430008090033",
    "sourcePath": "c:/Users/luziu/Documents/GitHub/contracts/src/DraggableShares.sol",
    "compiler": {
        "name": "solc",
        "version": "0.8.9+commit.e5eed63a"
    },
    "functionHashes": {
        "allowance(address,address)": "dd62ed3e",
        "approve(address,uint256)": "095ea7b3",
        "balanceOf(address)": "70a08231",
        "burn(uint256)": "42966c68",
        "claimPeriod()": "7dc2cd98",
        "customCollateralAddress()": "0c6f0e5d",
        "customCollateralRate()": "60918117",
        "decimals()": "313ce567",
        "deleteClaim(address)": "32a7ae95",
        "drag(address,address)": "fcb79a7e",
        "factory()": "c45a0155",
        "getClaimDeleter()": "2a0a4ed5",
        "getCollateralRate(address)": "77e071ad",
        "getOracle()": "833b1fce",
        "hasFlag(address,uint8)": "f5c0b95f",
        "isBinding()": "9e4b5745",
        "makeAcquisitionOffer(bytes32,uint256,address)": "dcc7d4ad",
        "migrate()": "8fd3ab80",
        "migrateWithExternalApproval(address,uint256)": "19845354",
        "name()": "06fdde03",
        "notifyClaimDeleted(address)": "e5b824ec",
        "notifyClaimMade(address)": "c18172c4",
        "notifyOfferEnded()": "32bc320b",
        "offer()": "c028df06",
        "onTokenTransfer(address,uint256,bytes)": "a4c0ed36",
        "quorum()": "1703a018",
        "recover(address,address)": "648bf774",
        "recovery()": "ddceafa9",
        "setOracle(address)": "7adbf973",
        "symbol()": "95d89b41",
        "terms()": "d5025625",
        "totalSupply()": "18160ddd",
        "totalVotingTokens()": "0a81b2de",
        "transfer(address,uint256)": "a9059cbb",
        "transferAndCall(address,uint256,bytes)": "4000aea0",
        "transferFrom(address,address,uint256)": "23b872dd",
        "unwrap(uint256)": "de0e9a3e",
        "unwrapConversionFactor()": "0832e470",
        "votePeriod()": "a7813587",
        "votingPower(address)": "c07473f6",
        "wrap(address,uint256)": "bf376c7a",
        "wrapped()": "50e70d48"
    },
    "gasEstimates": {
        "creation": {
            "codeDepositCost": "1633600",
            "executionCost": "infinite",
            "totalCost": "infinite"
        },
        "external": {
            "allowance(address,address)": "infinite",
            "approve(address,uint256)": "24612",
            "balanceOf(address)": "2675",
            "burn(uint256)": "infinite",
            "claimPeriod()": "238",
            "customCollateralAddress()": "2483",
            "customCollateralRate()": "2362",
            "decimals()": "2359",
            "deleteClaim(address)": "infinite",
            "drag(address,address)": "infinite",
            "factory()": "305",
            "getClaimDeleter()": "2503",
            "getCollateralRate(address)": "infinite",
            "getOracle()": "2399",
            "hasFlag(address,uint8)": "2952",
            "isBinding()": "2435",
            "makeAcquisitionOffer(bytes32,uint256,address)": "infinite",
            "migrate()": "infinite",
            "migrateWithExternalApproval(address,uint256)": "infinite",
            "name()": "infinite",
            "notifyClaimDeleted(address)": "infinite",
            "notifyClaimMade(address)": "infinite",
            "notifyOfferEnded()": "26607",
            "offer()": "2470",
            "onTokenTransfer(address,uint256,bytes)": "infinite",
            "quorum()": "infinite",
            "recover(address,address)": "infinite",
            "recovery()": "282",
            "setOracle(address)": "26860",
            "symbol()": "infinite",
            "terms()": "infinite",
            "totalSupply()": "2360",
            "totalVotingTokens()": "infinite",
            "transfer(address,uint256)": "infinite",
            "transferAndCall(address,uint256,bytes)": "infinite",
            "transferFrom(address,address,uint256)": "infinite",
            "unwrap(uint256)": "infinite",
            "unwrapConversionFactor()": "2364",
            "votePeriod()": "infinite",
            "votingPower(address)": "2649",
            "wrap(address,uint256)": "infinite",
            "wrapped()": "2382"
        },
        "internal": {
            "_beforeTokenTransfer(address,address,uint256)": "infinite"
        }
    }
}