{
    "contractName": "DraggableSharesWithPredecessor",
    "abi": [
        {
            "inputs": [
                {
                    "internalType": "address",
                    "name": "newBaseToken_",
                    "type": "address"
                },
                {
                    "internalType": "string",
                    "name": "_terms",
                    "type": "string"
                },
                {
                    "internalType": "address",
                    "name": "offerFactory",
                    "type": "address"
                },
                {
                    "internalType": "address",
                    "name": "predecessor",
                    "type": "address"
                },
                {
                    "internalType": "uint256",
                    "name": "quorum",
                    "type": "uint256"
                },
                {
                    "internalType": "uint256",
                    "name": "votePeriod",
                    "type": "uint256"
                }
            ],
            "stateMutability": "nonpayable",
            "type": "constructor"
        },
        {
            "anonymous": false,
            "inputs": [
                {
                    "indexed": true,
                    "internalType": "address",
                    "name": "owner",
                    "type": "address"
                },
                {
                    "indexed": true,
                    "internalType": "address",
                    "name": "spender",
                    "type": "address"
                },
                {
                    "indexed": false,
                    "internalType": "uint256",
                    "name": "value",
                    "type": "uint256"
                }
            ],
            "name": "Approval",
            "type": "event"
        },
        {
            "anonymous": false,
            "inputs": [
                {
                    "indexed": true,
                    "internalType": "address",
                    "name": "lostAddress",
                    "type": "address"
                },
                {
                    "indexed": false,
                    "internalType": "uint256",
                    "name": "collateral",
                    "type": "uint256"
                }
            ],
            "name": "ClaimCleared",
            "type": "event"
        },
        {
            "anonymous": false,
            "inputs": [
                {
                    "indexed": true,
                    "internalType": "address",
                    "name": "lostAddress",
                    "type": "address"
                },
                {
                    "indexed": true,
                    "internalType": "address",
                    "name": "claimant",
                    "type": "address"
                },
                {
                    "indexed": false,
                    "internalType": "uint256",
                    "name": "collateral",
                    "type": "uint256"
                }
            ],
            "name": "ClaimDeleted",
            "type": "event"
        },
        {
            "anonymous": false,
            "inputs": [
                {
                    "indexed": true,
                    "internalType": "address",
                    "name": "lostAddress",
                    "type": "address"
                },
                {
                    "indexed": true,
                    "internalType": "address",
                    "name": "claimant",
                    "type": "address"
                },
                {
                    "indexed": false,
                    "internalType": "uint256",
                    "name": "balance",
                    "type": "uint256"
                }
            ],
            "name": "ClaimMade",
            "type": "event"
        },
        {
            "anonymous": false,
            "inputs": [
                {
                    "indexed": true,
                    "internalType": "address",
                    "name": "lostAddress",
                    "type": "address"
                },
                {
                    "indexed": true,
                    "internalType": "address",
                    "name": "claimant",
                    "type": "address"
                },
                {
                    "indexed": false,
                    "internalType": "uint256",
                    "name": "collateral",
                    "type": "uint256"
                }
            ],
            "name": "ClaimResolved",
            "type": "event"
        },
        {
            "anonymous": false,
            "inputs": [
                {
                    "indexed": false,
                    "internalType": "address",
                    "name": "newCustomCollateralAddress",
                    "type": "address"
                },
                {
                    "indexed": false,
                    "internalType": "uint256",
                    "name": "newCustomCollareralRate",
                    "type": "uint256"
                }
            ],
            "name": "CustomClaimCollateralChanged",
            "type": "event"
        },
        {
            "anonymous": false,
            "inputs": [
                {
                    "indexed": false,
                    "internalType": "address",
                    "name": "newContractAddress",
                    "type": "address"
                }
            ],
            "name": "MigrationSucceeded",
            "type": "event"
        },
        {
            "anonymous": false,
            "inputs": [
                {
                    "indexed": true,
                    "internalType": "address",
                    "name": "from",
                    "type": "address"
                },
                {
                    "indexed": true,
                    "internalType": "address",
                    "name": "to",
                    "type": "address"
                },
                {
                    "indexed": false,
                    "internalType": "uint256",
                    "name": "value",
                    "type": "uint256"
                }
            ],
            "name": "Transfer",
            "type": "event"
        },
        {
            "inputs": [
                {
                    "internalType": "address",
                    "name": "owner",
                    "type": "address"
                },
                {
                    "internalType": "address",
                    "name": "spender",
                    "type": "address"
                }
            ],
            "name": "allowance",
            "outputs": [
                {
                    "internalType": "uint256",
                    "name": "",
                    "type": "uint256"
                }
            ],
            "stateMutability": "view",
            "type": "function"
        },
        {
            "inputs": [
                {
                    "internalType": "address",
                    "name": "spender",
                    "type": "address"
                },
                {
                    "internalType": "uint256",
                    "name": "value",
                    "type": "uint256"
                }
            ],
            "name": "approve",
            "outputs": [
                {
                    "internalType": "bool",
                    "name": "",
                    "type": "bool"
                }
            ],
            "stateMutability": "nonpayable",
            "type": "function"
        },
        {
            "inputs": [
                {
                    "internalType": "address",
                    "name": "account",
                    "type": "address"
                }
            ],
            "name": "balanceOf",
            "outputs": [
                {
                    "internalType": "uint256",
                    "name": "",
                    "type": "uint256"
                }
            ],
            "stateMutability": "view",
            "type": "function"
        },
        {
            "inputs": [
                {
                    "internalType": "uint256",
                    "name": "amount",
                    "type": "uint256"
                }
            ],
            "name": "burn",
            "outputs": [],
            "stateMutability": "nonpayable",
            "type": "function"
        },
        {
            "inputs": [],
            "name": "claimPeriod",
            "outputs": [
                {
                    "internalType": "uint256",
                    "name": "",
                    "type": "uint256"
                }
            ],
            "stateMutability": "view",
            "type": "function"
        },
        {
            "inputs": [
                {
                    "internalType": "address",
                    "name": "",
                    "type": "address"
                }
            ],
            "name": "claims",
            "outputs": [
                {
                    "internalType": "address",
                    "name": "claimant",
                    "type": "address"
                },
                {
                    "internalType": "uint256",
                    "name": "collateral",
                    "type": "uint256"
                },
                {
                    "internalType": "uint256",
                    "name": "timestamp",
                    "type": "uint256"
                },
                {
                    "internalType": "address",
                    "name": "currencyUsed",
                    "type": "address"
                }
            ],
            "stateMutability": "view",
            "type": "function"
        },
        {
            "inputs": [],
            "name": "clearClaim",
            "outputs": [],
            "stateMutability": "nonpayable",
            "type": "function"
        },
        {
            "inputs": [],
            "name": "convert",
            "outputs": [],
            "stateMutability": "nonpayable",
            "type": "function"
        },
        {
            "inputs": [],
            "name": "convert1",
            "outputs": [],
            "stateMutability": "nonpayable",
            "type": "function"
        },
        {
            "inputs": [
                {
                    "internalType": "address",
                    "name": "oldWrapped",
                    "type": "address"
                }
            ],
            "name": "convert2",
            "outputs": [],
            "stateMutability": "nonpayable",
            "type": "function"
        },
        {
            "inputs": [],
            "name": "customCollateralAddress",
            "outputs": [
                {
                    "internalType": "address",
                    "name": "",
                    "type": "address"
                }
            ],
            "stateMutability": "view",
            "type": "function"
        },
        {
            "inputs": [],
            "name": "customCollateralRate",
            "outputs": [
                {
                    "internalType": "uint256",
                    "name": "",
                    "type": "uint256"
                }
            ],
            "stateMutability": "view",
            "type": "function"
        },
        {
            "inputs": [],
            "name": "decimals",
            "outputs": [
                {
                    "internalType": "uint8",
                    "name": "",
                    "type": "uint8"
                }
            ],
            "stateMutability": "view",
            "type": "function"
        },
        {
            "inputs": [
                {
                    "internalType": "address",
                    "name": "collateralType",
                    "type": "address"
                },
                {
                    "internalType": "address",
                    "name": "lostAddress",
                    "type": "address"
                }
            ],
            "name": "declareLost",
            "outputs": [],
            "stateMutability": "nonpayable",
            "type": "function"
        },
        {
            "inputs": [
                {
                    "internalType": "address",
                    "name": "lostAddress",
                    "type": "address"
                }
            ],
            "name": "deleteClaim",
            "outputs": [],
            "stateMutability": "nonpayable",
            "type": "function"
        },
        {
            "inputs": [
                {
                    "internalType": "address",
                    "name": "buyer",
                    "type": "address"
                },
                {
                    "internalType": "address",
                    "name": "currency",
                    "type": "address"
                }
            ],
            "name": "drag",
            "outputs": [],
            "stateMutability": "nonpayable",
            "type": "function"
        },
        {
            "inputs": [],
            "name": "factory",
            "outputs": [
                {
                    "internalType": "contract IOfferFactory",
                    "name": "",
                    "type": "address"
                }
            ],
            "stateMutability": "view",
            "type": "function"
        },
        {
            "inputs": [],
            "name": "getClaimDeleter",
            "outputs": [
                {
                    "internalType": "address",
                    "name": "",
                    "type": "address"
                }
            ],
            "stateMutability": "view",
            "type": "function"
        },
        {
            "inputs": [
                {
                    "internalType": "address",
                    "name": "lostAddress",
                    "type": "address"
                }
            ],
            "name": "getClaimant",
            "outputs": [
                {
                    "internalType": "address",
                    "name": "",
                    "type": "address"
                }
            ],
            "stateMutability": "view",
            "type": "function"
        },
        {
            "inputs": [
                {
                    "internalType": "address",
                    "name": "lostAddress",
                    "type": "address"
                }
            ],
            "name": "getCollateral",
            "outputs": [
                {
                    "internalType": "uint256",
                    "name": "",
                    "type": "uint256"
                }
            ],
            "stateMutability": "view",
            "type": "function"
        },
        {
            "inputs": [
                {
                    "internalType": "address",
                    "name": "collateralType",
                    "type": "address"
                }
            ],
            "name": "getCollateralRate",
            "outputs": [
                {
                    "internalType": "uint256",
                    "name": "",
                    "type": "uint256"
                }
            ],
            "stateMutability": "view",
            "type": "function"
        },
        {
            "inputs": [
                {
                    "internalType": "address",
                    "name": "lostAddress",
                    "type": "address"
                }
            ],
            "name": "getCollateralType",
            "outputs": [
                {
                    "internalType": "address",
                    "name": "",
                    "type": "address"
                }
            ],
            "stateMutability": "view",
            "type": "function"
        },
        {
            "inputs": [],
            "name": "getOldBase",
            "outputs": [
                {
                    "internalType": "address",
                    "name": "",
                    "type": "address"
                }
            ],
            "stateMutability": "view",
            "type": "function"
        },
        {
            "inputs": [
                {
                    "internalType": "address",
                    "name": "lostAddress",
                    "type": "address"
                }
            ],
            "name": "getTimeStamp",
            "outputs": [
                {
                    "internalType": "uint256",
                    "name": "",
                    "type": "uint256"
                }
            ],
            "stateMutability": "view",
            "type": "function"
        },
        {
            "inputs": [],
            "name": "isBinding",
            "outputs": [
                {
                    "internalType": "bool",
                    "name": "",
                    "type": "bool"
                }
            ],
            "stateMutability": "view",
            "type": "function"
        },
        {
            "inputs": [
                {
                    "internalType": "address",
                    "name": "target",
                    "type": "address"
                }
            ],
            "name": "isRecoveryEnabled",
            "outputs": [
                {
                    "internalType": "bool",
                    "name": "",
                    "type": "bool"
                }
            ],
            "stateMutability": "view",
            "type": "function"
        },
        {
            "inputs": [
                {
                    "internalType": "bytes32",
                    "name": "salt",
                    "type": "bytes32"
                },
                {
                    "internalType": "uint256",
                    "name": "pricePerShare",
                    "type": "uint256"
                },
                {
                    "internalType": "address",
                    "name": "currency",
                    "type": "address"
                }
            ],
            "name": "makeAcquisitionOffer",
            "outputs": [],
            "stateMutability": "payable",
            "type": "function"
        },
        {
            "inputs": [],
            "name": "migrate",
            "outputs": [],
            "stateMutability": "nonpayable",
            "type": "function"
        },
        {
            "inputs": [],
            "name": "name",
            "outputs": [
                {
                    "internalType": "string",
                    "name": "",
                    "type": "string"
                }
            ],
            "stateMutability": "view",
            "type": "function"
        },
        {
            "inputs": [],
            "name": "notifyOfferEnded",
            "outputs": [],
            "stateMutability": "nonpayable",
            "type": "function"
        },
        {
            "inputs": [],
            "name": "offer",
            "outputs": [
                {
                    "internalType": "contract IOffer",
                    "name": "",
                    "type": "address"
                }
            ],
            "stateMutability": "view",
            "type": "function"
        },
        {
            "inputs": [
                {
                    "internalType": "address",
                    "name": "from",
                    "type": "address"
                },
                {
                    "internalType": "uint256",
                    "name": "amount",
                    "type": "uint256"
                },
                {
                    "internalType": "bytes",
                    "name": "",
                    "type": "bytes"
                }
            ],
            "name": "onTokenTransfer",
            "outputs": [
                {
                    "internalType": "bool",
                    "name": "",
                    "type": "bool"
                }
            ],
            "stateMutability": "nonpayable",
            "type": "function"
        },
        {
            "inputs": [],
            "name": "quorum",
            "outputs": [
                {
                    "internalType": "uint256",
                    "name": "",
                    "type": "uint256"
                }
            ],
            "stateMutability": "view",
            "type": "function"
        },
        {
            "inputs": [
                {
                    "internalType": "address",
                    "name": "lostAddress",
                    "type": "address"
                }
            ],
            "name": "recover",
            "outputs": [],
            "stateMutability": "nonpayable",
            "type": "function"
        },
        {
            "inputs": [
                {
                    "internalType": "address",
                    "name": "",
                    "type": "address"
                }
            ],
            "name": "recoveryDisabled",
            "outputs": [
                {
                    "internalType": "bool",
                    "name": "",
                    "type": "bool"
                }
            ],
            "stateMutability": "view",
            "type": "function"
        },
        {
            "inputs": [
                {
                    "internalType": "bool",
                    "name": "enabled",
                    "type": "bool"
                }
            ],
            "name": "setRecoverable",
            "outputs": [],
            "stateMutability": "nonpayable",
            "type": "function"
        },
        {
            "inputs": [],
            "name": "symbol",
            "outputs": [
                {
                    "internalType": "string",
                    "name": "",
                    "type": "string"
                }
            ],
            "stateMutability": "view",
            "type": "function"
        },
        {
            "inputs": [],
            "name": "terms",
            "outputs": [
                {
                    "internalType": "string",
                    "name": "",
                    "type": "string"
                }
            ],
            "stateMutability": "view",
            "type": "function"
        },
        {
            "inputs": [],
            "name": "totalSupply",
            "outputs": [
                {
                    "internalType": "uint256",
                    "name": "",
                    "type": "uint256"
                }
            ],
            "stateMutability": "view",
            "type": "function"
        },
        {
            "inputs": [
                {
                    "internalType": "address",
                    "name": "to",
                    "type": "address"
                },
                {
                    "internalType": "uint256",
                    "name": "value",
                    "type": "uint256"
                }
            ],
            "name": "transfer",
            "outputs": [
                {
                    "internalType": "bool",
                    "name": "",
                    "type": "bool"
                }
            ],
            "stateMutability": "nonpayable",
            "type": "function"
        },
        {
            "inputs": [
                {
                    "internalType": "address",
                    "name": "recipient",
                    "type": "address"
                },
                {
                    "internalType": "uint256",
                    "name": "amount",
                    "type": "uint256"
                },
                {
                    "internalType": "bytes",
                    "name": "data",
                    "type": "bytes"
                }
            ],
            "name": "transferAndCall",
            "outputs": [
                {
                    "internalType": "bool",
                    "name": "",
                    "type": "bool"
                }
            ],
            "stateMutability": "nonpayable",
            "type": "function"
        },
        {
            "inputs": [
                {
                    "internalType": "address",
                    "name": "sender",
                    "type": "address"
                },
                {
                    "internalType": "address",
                    "name": "recipient",
                    "type": "address"
                },
                {
                    "internalType": "uint256",
                    "name": "amount",
                    "type": "uint256"
                }
            ],
            "name": "transferFrom",
            "outputs": [
                {
                    "internalType": "bool",
                    "name": "",
                    "type": "bool"
                }
            ],
            "stateMutability": "nonpayable",
            "type": "function"
        },
        {
            "inputs": [
                {
                    "internalType": "uint256",
                    "name": "amount",
                    "type": "uint256"
                }
            ],
            "name": "unwrap",
            "outputs": [],
            "stateMutability": "nonpayable",
            "type": "function"
        },
        {
            "inputs": [],
            "name": "unwrapConversionFactor",
            "outputs": [
                {
                    "internalType": "uint256",
                    "name": "",
                    "type": "uint256"
                }
            ],
            "stateMutability": "view",
            "type": "function"
        },
        {
            "inputs": [],
            "name": "votePeriod",
            "outputs": [
                {
                    "internalType": "uint256",
                    "name": "",
                    "type": "uint256"
                }
            ],
            "stateMutability": "view",
            "type": "function"
        },
        {
            "inputs": [
                {
                    "internalType": "address",
                    "name": "shareholder",
                    "type": "address"
                },
                {
                    "internalType": "uint256",
                    "name": "amount",
                    "type": "uint256"
                }
            ],
            "name": "wrap",
            "outputs": [],
            "stateMutability": "nonpayable",
            "type": "function"
        },
        {
            "inputs": [],
            "name": "wrapped",
            "outputs": [
                {
                    "internalType": "contract IERC20",
                    "name": "",
                    "type": "address"
                }
            ],
            "stateMutability": "view",
            "type": "function"
        }
    ],
    "bytecode": "60a06040526000600a553480156200001657600080fd5b50604051620032c9380380620032c983398101604081905262000039916200029a565b6003805460ff19169055600980546001600160a01b0319166001600160a01b038616179055600c829055600d8190558484848484838383836200007c83620000ba565b50508651620000959250600e91506020880190620001d7565b505050505060609690961b6001600160601b031916608052506200044a945050505050565b604080518082018252601781527f7365745265636f76657261626c6528626f6f6c65616e29000000000000000000602090910152516001600160a01b038216907f0b40210b15aff3e3e4a5dfbf1cb4d5380d1319ece2bb84fe19077f99fdaaa9d2906200012d90600090602401620003b9565b60408051601f198184030181529181526020820180516001600160e01b03166001600160e01b03199094169390931790925290516200016d91906200039b565b6000604051808303816000865af19150503d8060008114620001ac576040519150601f19603f3d011682016040523d82523d6000602084013e620001b1565b606091505b5050600880546001600160a01b0319166001600160a01b03939093169290921790915550565b828054620001e590620003f7565b90600052602060002090601f01602090048101928262000209576000855562000254565b82601f106200022457805160ff191683800117855562000254565b8280016001018555821562000254579182015b828111156200025457825182559160200191906001019062000237565b506200026292915062000266565b5090565b5b8082111562000262576000815560010162000267565b80516001600160a01b03811681146200029557600080fd5b919050565b60008060008060008060c08789031215620002b3578182fd5b620002be876200027d565b60208801519096506001600160401b0380821115620002db578384fd5b818901915089601f830112620002ef578384fd5b81518181111562000304576200030462000434565b604051601f8201601f19908116603f011681019083821181831017156200032f576200032f62000434565b816040528281528c602084870101111562000348578687fd5b6200035b836020830160208801620003c4565b809950505050505062000371604088016200027d565b935062000381606088016200027d565b92506080870151915060a087015190509295509295509295565b60008251620003af818460208701620003c4565b9190910192915050565b901515815260200190565b60005b83811015620003e1578181015183820152602001620003c7565b83811115620003f1576000848401525b50505050565b6002810460018216806200040c57607f821691505b602082108114156200042e57634e487b7160e01b600052602260045260246000fd5b50919050565b634e487b7160e01b600052604160045260246000fd5b60805160601c612e4b6200047e6000396000818161172301528181611c2d01528181611d250152611d9b0152612e4b6000f3fe6080604052600436106102885760003560e01c80637dc2cd981161015a578063b40e80d1116100c1578063dcc7d4ad1161007a578063dcc7d4ad14610717578063dd62ed3e1461072a578063de0e9a3e1461074a578063e056a7651461076a578063eb470ebf1461078a578063fcb79a7e146107aa57610288565b8063b40e80d114610668578063bf376c7a14610688578063c028df06146106a8578063c45a0155146106bd578063c6788bdd146106d2578063d50256251461070257610288565b8063a09295f811610113578063a09295f8146105c9578063a3ec1883146105de578063a4c0ed36146105fe578063a78135871461061e578063a9059cbb14610633578063aa3f3b751461065357610288565b80637dc2cd98146105405780638fd3ab801461055557806391bbdcc71461056a57806395d89b411461057f5780639b56d6c9146105945780639e4b5745146105b457610288565b8063313ce567116101fe57806350e70d48116101b757806350e70d48146104a157806360918117146104b65780636427ed97146104cb5780636b03ed5f146104eb57806370a082311461050057806377e071ad1461052057610288565b8063313ce567146103ea57806332a7ae951461040c57806332bc320b1461042c5780633bcc45ba146104415780634000aea01461046157806342966c681461048157610288565b80631703a018116102505780631703a0181461034b57806318160ddd146103605780631e3b9de51461037557806323b872dd1461039557806326773ddd146103b55780632a0a4ed5146103d557610288565b806306fdde031461028d5780630832e470146102b8578063095ea7b3146102da5780630c6f0e5d146103075780630cd865ec14610329575b600080fd5b34801561029957600080fd5b506102a26107ca565b6040516102af9190612a17565b60405180910390f35b3480156102c457600080fd5b506102cd610926565b6040516102af9190612cdc565b3480156102e657600080fd5b506102fa6102f5366004612658565b61092c565b6040516102af91906129d7565b34801561031357600080fd5b5061031c610942565b6040516102af9190612913565b34801561033557600080fd5b506103496103443660046125a8565b610951565b005b34801561035757600080fd5b506102cd610b64565b34801561036c57600080fd5b506102cd610b6a565b34801561038157600080fd5b5061031c6103903660046125a8565b610b70565b3480156103a157600080fd5b506102fa6103b0366004612618565b610b91565b3480156103c157600080fd5b506103496103d03660046125e0565b610bed565b3480156103e157600080fd5b5061031c610e0b565b3480156103f657600080fd5b506103ff610e8d565b6040516102af9190612ce5565b34801561041857600080fd5b506103496104273660046125a8565b610e96565b34801561043857600080fd5b50610349611070565b34801561044d57600080fd5b5061031c61045c3660046125a8565b611096565b34801561046d57600080fd5b506102fa61047c366004612683565b6110b7565b34801561048d57600080fd5b5061034961049c366004612820565b61115c565b3480156104ad57600080fd5b5061031c6111ef565b3480156104c257600080fd5b506102cd6111fe565b3480156104d757600080fd5b506103496104e6366004612707565b611204565b3480156104f757600080fd5b50610349611223565b34801561050c57600080fd5b506102cd61051b3660046125a8565b61135f565b34801561052c57600080fd5b506102cd61053b3660046125a8565b61137a565b34801561054c57600080fd5b506102cd611450565b34801561056157600080fd5b50610349611457565b34801561057657600080fd5b506103496114f5565b34801561058b57600080fd5b506102a2611515565b3480156105a057600080fd5b506102cd6105af3660046125a8565b611658565b3480156105c057600080fd5b506102fa611676565b3480156105d557600080fd5b5061031c61167d565b3480156105ea57600080fd5b506102fa6105f93660046125a8565b6116c2565b34801561060a57600080fd5b506102fa610619366004612683565b6116e1565b34801561062a57600080fd5b506102cd611705565b34801561063f57600080fd5b506102fa61064e366004612658565b61170b565b34801561065f57600080fd5b5061034961171e565b34801561067457600080fd5b506102fa6106833660046125a8565b61187a565b34801561069457600080fd5b506103496106a3366004612658565b61188f565b3480156106b457600080fd5b5061031c61192c565b3480156106c957600080fd5b5061031c61193b565b3480156106de57600080fd5b506106f26106ed3660046125a8565b61194a565b6040516102af94939291906129ac565b34801561070e57600080fd5b506102a261197c565b61034961072536600461273f565b611a0a565b34801561073657600080fd5b506102cd6107453660046125e0565b611bc1565b34801561075657600080fd5b50610349610765366004612820565b611bec565b34801561077657600080fd5b506103496107853660046125a8565b611c0b565b34801561079657600080fd5b506102cd6107a53660046125a8565b611e64565b3480156107b657600080fd5b506103496107c53660046125e0565b611e82565b60606107d4611676565b1561088957600860009054906101000a90046001600160a01b03166001600160a01b03166306fdde036040518163ffffffff1660e01b815260040160006040518083038186803b15801561082757600080fd5b505afa15801561083b573d6000803e3d6000fd5b505050506040513d6000823e601f3d908101601f191682016040526108639190810190612777565b60405160200161087391906128b1565b6040516020818303038152906040529050610923565b600860009054906101000a90046001600160a01b03166001600160a01b03166306fdde036040518163ffffffff1660e01b815260040160006040518083038186803b1580156108d757600080fd5b505afa1580156108eb573d6000803e3d6000fd5b505050506040513d6000823e601f3d908101601f191682016040526109139190810190612777565b60405160200161087391906128e3565b90565b600a5481565b6000610939338484611eb7565b50600192915050565b6006546001600160a01b031681565b6001600160a01b03808216600090815260046020908152604091829020825160808101845281548516815260018201549281018390526002820154938101939093526003015490921660608201819052909190816109ca5760405162461bcd60e51b81526004016109c190612b51565b60405180910390fd5b82516001600160a01b031633146109f35760405162461bcd60e51b81526004016109c190612a4a565b4262ed4e008460400151610a079190612cf3565b1115610a255760405162461bcd60e51b81526004016109c190612a81565b82516001600160a01b03808616600090815260046020819052604080832080546001600160a01b031990811682556001820185905560028201949094556003018054909316909255905163a9059cbb60e01b81529184169163a9059cbb91610a9191859188910161294b565b602060405180830381600087803b158015610aab57600080fd5b505af1158015610abf573d6000803e3d6000fd5b505050506040513d601f19601f82011682018060405250810190610ae39190612723565b610aff5760405162461bcd60e51b81526004016109c190612b79565b610b128582610b0d8861135f565b611f12565b806001600160a01b0316856001600160a01b03167f52a5c2b28bc6eb9712d0ced43463103b486b13ccc9cda499fd3b2d7b6a74a8ee85604051610b559190612cdc565b60405180910390a35050505050565b600c5481565b60025490565b6001600160a01b03808216600090815260046020526040902054165b919050565b6000610b9e848484611f12565b6001600160a01b0384166000908152600160209081526040808320338452909152902054600160ff1b811015610be257610be28533610bdd8685612d4a565b611eb7565b506001949350505050565b610bf6816116c2565b610c125760405162461bcd60e51b81526004016109c190612bb0565b6000610c1d8361137a565b905060008111610c3f5760405162461bcd60e51b81526004016109c190612b21565b336000610c4b8461135f565b90506000610c598483612d2b565b90508582610c795760405162461bcd60e51b81526004016109c190612c1c565b6001600160a01b03861660009081526004602052604090206001015415610cb25760405162461bcd60e51b81526004016109c190612be5565b6040516323b872dd60e01b81526001600160a01b038216906323b872dd90610ce290879030908790600401612927565b602060405180830381600087803b158015610cfc57600080fd5b505af1158015610d10573d6000803e3d6000fd5b505050506040513d601f19601f82011682018060405250810190610d349190612723565b610d505760405162461bcd60e51b81526004016109c190612b79565b604080516080810182526001600160a01b038087168083526020808401878152428587019081528d8516606087019081528d86166000818152600490955293889020965187549087166001600160a01b0319918216178855925160018801559051600287015551600390950180549590941694169390931790915591517f1982ca8958fc8a8176cb52be509260f4bc5af7ce04e1533711793f1c56dd535990610dfa908790612cdc565b60405180910390a350505050505050565b60085460408051632a0a4ed560e01b815290516000926001600160a01b031691632a0a4ed5916004808301926020929190829003018186803b158015610e5057600080fd5b505afa158015610e64573d6000803e3d6000fd5b505050506040513d601f19601f82011682018060405250810190610e8891906125c4565b905090565b60035460ff1681565b610e9e610e0b565b6001600160a01b0316336001600160a01b031614610ece5760405162461bcd60e51b81526004016109c190612ca5565b6001600160a01b038082166000908152600460209081526040918290208251608081018452815485168152600182015492810183905260028201549381019390935260030154909216606082018190529091610f3c5760405162461bcd60e51b81526004016109c190612b51565b6001600160a01b03808416600090815260046020818152604080842080546001600160a01b031990811682556001820186905560028201959095556003018054909416909355855190860151925163a9059cbb60e01b81529385169363a9059cbb93610faa9390910161294b565b602060405180830381600087803b158015610fc457600080fd5b505af1158015610fd8573d6000803e3d6000fd5b505050506040513d601f19601f82011682018060405250810190610ffc9190612723565b6110185760405162461bcd60e51b81526004016109c190612b79565b81600001516001600160a01b0316836001600160a01b03167fbb036e629a9f4c0897ee5d48440dfdb36f7e772117723a2ed603a6514244c2d584602001516040516110639190612cdc565b60405180910390a3505050565b600b546001600160a01b031633141561109457600b80546001600160a01b03191690555b565b6001600160a01b039081166000908152600460205260409020600301541690565b6000806110c4868661170b565b9050801561115357604051635260769b60e11b81526001600160a01b0387169063a4c0ed36906110fe903390899089908990600401612964565b602060405180830381600087803b15801561111857600080fd5b505af115801561112c573d6000803e3d6000fd5b505050506040513d601f19601f820116820180604052508101906111509190612723565b90505b95945050505050565b6111663382611fcf565b6000611170611676565b61117c57600a5461117f565b60015b6008549091506001600160a01b03166342966c6861119d8385612d2b565b6040518263ffffffff1660e01b81526004016111b99190612cdc565b600060405180830381600087803b1580156111d357600080fd5b505af11580156111e7573d6000803e3d6000fd5b505050505050565b6008546001600160a01b031681565b60075481565b336000908152600560205260409020805460ff19169115919091179055565b33600090815260046020526040902060010154156110945733600081815260046020819052604080832060018101805460038301805484546001600160a01b0319908116865593889055600290940196909655908216909455905163a9059cbb60e01b815292936001600160a01b0390911692839263a9059cbb926112ac92909187910161294b565b602060405180830381600087803b1580156112c657600080fd5b505af11580156112da573d6000803e3d6000fd5b505050506040513d601f19601f820116820180604052508101906112fe9190612723565b61131a5760405162461bcd60e51b81526004016109c190612b79565b336001600160a01b03167f203627483d943880619f4b7e0cca21dbefd6204b4d85b124eb99540e17ba86dd836040516113539190612cdc565b60405180910390a25050565b6001600160a01b031660009081526020819052604090205490565b60008061138683612069565b90508015611395579050610b8c565b6008546001600160a01b03848116911614156113b5575050600a54610b8c565b600a546008546040516377e071ad60e01b81526001600160a01b03909116906377e071ad906113e8908790600401612913565b60206040518083038186803b15801561140057600080fd5b505afa158015611414573d6000803e3d6000fd5b505050506040513d601f19601f820116820180604052508101906114389190612838565b6114429190612d2b565b915050610b8c565b50919050565b62ed4e0081565b336114606120ab565b1561146a57600080fd5b611472610b6a565b61147e90611f40612d2b565b6114878261135f565b61149390612710612d2b565b10156114b15760405162461bcd60e51b81526004016109c190612b01565b6114bb81826120bc565b7f3b6b79a09e9fd230e8591b65c97236bf7df7a604edf733db0658e66b0e6eb2a9816040516114ea9190612913565b60405180910390a150565b60006114ff61167d565b905061150961171e565b61151281611c0b565b50565b606061151f611676565b156115be57600860009054906101000a90046001600160a01b03166001600160a01b03166395d89b416040518163ffffffff1660e01b815260040160006040518083038186803b15801561157257600080fd5b505afa158015611586573d6000803e3d6000fd5b505050506040513d6000823e601f3d908101601f191682016040526115ae9190810190612777565b604051602001610873919061286c565b600860009054906101000a90046001600160a01b03166001600160a01b03166395d89b416040518163ffffffff1660e01b815260040160006040518083038186803b15801561160c57600080fd5b505afa158015611620573d6000803e3d6000fd5b505050506040513d6000823e601f3d908101601f191682016040526116489190810190612777565b6040516020016108739190612895565b6001600160a01b031660009081526004602052604090206001015490565b600a541590565b60085460408051635804791360e01b815290516000926001600160a01b0316916358047913916004808301926020929190829003018186803b158015610e5057600080fd5b6001600160a01b031660009081526005602052604090205460ff161590565b6008546000906001600160a01b031633146116fb57600080fd5b610be28585612272565b600d5481565b60006117178383612313565b9392505050565b6008547f00000000000000000000000000000000000000000000000000000000000000006001600160a01b039081169116141561176d5760405162461bcd60e51b81526004016109c190612c53565b600854604080516318160ddd60e01b815290516001600160a01b039092169160009183916318160ddd9160048082019260209290919082900301818787803b1580156117b857600080fd5b505af11580156117cc573d6000803e3d6000fd5b505050506040513d601f19601f820116820180604052508101906117f09190612838565b905060006117fc610b6a565b9050600061180a8284612d4a565b90506118163082612272565b611821308583611eb7565b836001600160a01b0316638fd3ab806040518163ffffffff1660e01b8152600401600060405180830381600087803b15801561185c57600080fd5b505af1158015611870573d6000803e3d6000fd5b5050505050505050565b60056020526000908152604090205460ff1681565b6008546040516323b872dd60e01b81526001600160a01b03909116906323b872dd906118c390339030908690600401612927565b602060405180830381600087803b1580156118dd57600080fd5b505af11580156118f1573d6000803e3d6000fd5b505050506040513d601f19601f820116820180604052508101906119159190612723565b61191e57600080fd5b6119288282612272565b5050565b600b546001600160a01b031681565b6009546001600160a01b031681565b60046020526000908152604090208054600182015460028301546003909301546001600160a01b039283169391921684565b600e805461198990612d91565b80601f01602080910402602001604051908101604052809291908181526020018280546119b590612d91565b8015611a025780601f106119d757610100808354040283529160200191611a02565b820191906000526020600020905b8154815290600101906020018083116119e557829003601f168201915b505050505081565b611a12611676565b611a1b57600080fd5b600954600c54600d54604051634dc5e43160e01b81526000936001600160a01b031692634dc5e431923492611a5c928a9233928b928b9290916004016129e2565b6020604051808303818588803b158015611a7557600080fd5b505af1158015611a89573d6000803e3d6000fd5b50505050506040513d601f19601f82011682018060405250810190611aae91906125c4565b9050611ab86120ab565b15611b9c57806001600160a01b0316633f5e3e7f6040518163ffffffff1660e01b8152600401602060405180830381600087803b158015611af857600080fd5b505af1158015611b0c573d6000803e3d6000fd5b505050506040513d601f19601f82011682018060405250810190611b309190612723565b611b3957600080fd5b600b546040516306a169ed60e01b81526001600160a01b03909116906306a169ed90611b69908490600401612913565b600060405180830381600087803b158015611b8357600080fd5b505af1158015611b97573d6000803e3d6000fd5b505050505b600b80546001600160a01b0319166001600160a01b0392909216919091179055505050565b6001600160a01b03918216600090815260016020908152604080832093909416825291909152205490565b611bf4611676565b15611bfe57600080fd5b6115123382600a54612343565b6040516370a0823160e01b815281906001600160a01b0382169063095ea7b3907f00000000000000000000000000000000000000000000000000000000000000009083906370a0823190611c63903090600401612913565b60206040518083038186803b158015611c7b57600080fd5b505afa158015611c8f573d6000803e3d6000fd5b505050506040513d601f19601f82011682018060405250810190611cb39190612838565b6040518363ffffffff1660e01b8152600401611cd092919061294b565b602060405180830381600087803b158015611cea57600080fd5b505af1158015611cfe573d6000803e3d6000fd5b505050506040513d601f19601f82011682018060405250810190611d229190612723565b507f00000000000000000000000000000000000000000000000000000000000000006001600160a01b031663e9850eb36040518163ffffffff1660e01b8152600401600060405180830381600087803b158015611d7e57600080fd5b505af1158015611d92573d6000803e3d6000fd5b50505050611dbf7f00000000000000000000000000000000000000000000000000000000000000006123e6565b6008546040516370a0823160e01b81526001600160a01b03909116906370a0823190611def903090600401612913565b60206040518083038186803b158015611e0757600080fd5b505afa158015611e1b573d6000803e3d6000fd5b505050506040513d601f19601f82011682018060405250810190611e3f9190612838565b611e47610b6a565b146119285760405162461bcd60e51b81526004016109c190612c7e565b6001600160a01b031660009081526004602052604090206002015490565b600b546001600160a01b03163314611e9957600080fd5b611ead82611ea68461135f565b6001612343565b61192881836120bc565b6001600160a01b0380841660008181526001602090815260408083209487168084529490915290819020849055517f8c5be1e5ebec7d5bd14f71427d1e84f3dd0314c0f7b2291e5b200ac8c7c3b92590611063908590612cdc565b6001600160a01b038216611f2557600080fd5b611f308383836124fd565b6001600160a01b03831660009081526020819052604081208054839290611f58908490612d4a565b90915550506001600160a01b03821660009081526020819052604081208054839290611f85908490612cf3565b92505081905550816001600160a01b0316836001600160a01b03167fddf252ad1be2c89b69c2b068fc378daa952ba7f163c4a11628f55a4df523b3ef836040516110639190612cdc565b611fdb826000836124fd565b8060026000828254611fed9190612d4a565b90915550506001600160a01b0382166000908152602081905260408120805483929061201a908490612d4a565b90915550506040516000906001600160a01b038416907fddf252ad1be2c89b69c2b068fc378daa952ba7f163c4a11628f55a4df523b3ef9061205d908590612cdc565b60405180910390a35050565b60006001600160a01b03821630141561208457506001610b8c565b6006546001600160a01b03838116911614156120a35750600754610b8c565b506000610b8c565b600b546001600160a01b0316151590565b6120c4611676565b6120cd57600080fd5b6008546040516370a0823160e01b81526001600160a01b039091169063a9059cbb90839083906370a0823190612107903090600401612913565b60206040518083038186803b15801561211f57600080fd5b505afa158015612133573d6000803e3d6000fd5b505050506040513d601f19601f820116820180604052508101906121579190612838565b6040518363ffffffff1660e01b815260040161217492919061294b565b602060405180830381600087803b15801561218e57600080fd5b505af11580156121a2573d6000803e3d6000fd5b505050506040513d601f19601f820116820180604052508101906121c69190612723565b6121cf57600080fd5b6121d8826123e6565b6119286121e3610b6a565b6008546040516370a0823160e01b81526001600160a01b03909116906370a0823190612213903090600401612913565b60206040518083038186803b15801561222b57600080fd5b505afa15801561223f573d6000803e3d6000fd5b505050506040513d601f19601f820116820180604052508101906122639190612838565b61226d9190612d0b565b612575565b6001600160a01b03821661228557600080fd5b612291600083836124fd565b80600260008282546122a39190612cf3565b90915550506001600160a01b038216600090815260208190526040812080548392906122d0908490612cf3565b90915550506040516001600160a01b038316906000907fddf252ad1be2c89b69c2b068fc378daa952ba7f163c4a11628f55a4df523b3ef9061205d908590612cdc565b600061231f838361259b565b61233b5760405162461bcd60e51b81526004016109c190612ad8565b610939611223565b61234d8383611fcf565b6008546001600160a01b031663a9059cbb846123698486612d2b565b6040518363ffffffff1660e01b815260040161238692919061294b565b602060405180830381600087803b1580156123a057600080fd5b505af11580156123b4573d6000803e3d6000fd5b505050506040513d601f19601f820116820180604052508101906123d89190612723565b6123e157600080fd5b505050565b604080518082018252601781527f7365745265636f76657261626c6528626f6f6c65616e29000000000000000000602090910152516001600160a01b038216907f0b40210b15aff3e3e4a5dfbf1cb4d5380d1319ece2bb84fe19077f99fdaaa9d290612457906000906024016129d7565b60408051601f198184030181529181526020820180516001600160e01b03166001600160e01b03199094169390931790925290516124959190612850565b6000604051808303816000865af19150503d80600081146124d2576040519150601f19603f3d011682016040523d82523d6000602084013e6124d7565b606091505b5050600880546001600160a01b0319166001600160a01b03939093169290921790915550565b6125056120ab565b156123e157600b5460405163e1a1810f60e01b81526001600160a01b039091169063e1a1810f9061253e90869086908690600401612927565b600060405180830381600087803b15801561255857600080fd5b505af115801561256c573d6000803e3d6000fd5b50505050505050565b60018110156125965760405162461bcd60e51b81526004016109c190612ab8565b600a55565b6000610939338484611f12565b6000602082840312156125b9578081fd5b813561171781612df2565b6000602082840312156125d5578081fd5b815161171781612df2565b600080604083850312156125f2578081fd5b82356125fd81612df2565b9150602083013561260d81612df2565b809150509250929050565b60008060006060848603121561262c578081fd5b833561263781612df2565b9250602084013561264781612df2565b929592945050506040919091013590565b6000806040838503121561266a578182fd5b823561267581612df2565b946020939093013593505050565b60008060008060608587031215612698578081fd5b84356126a381612df2565b935060208501359250604085013567ffffffffffffffff808211156126c6578283fd5b818701915087601f8301126126d9578283fd5b8135818111156126e7578384fd5b8860208285010111156126f8578384fd5b95989497505060200194505050565b600060208284031215612718578081fd5b813561171781612e07565b600060208284031215612734578081fd5b815161171781612e07565b600080600060608486031215612753578283fd5b8335925060208401359150604084013561276c81612df2565b809150509250925092565b600060208284031215612788578081fd5b815167ffffffffffffffff8082111561279f578283fd5b818401915084601f8301126127b2578283fd5b8151818111156127c4576127c4612ddc565b604051601f8201601f19908116603f011681019083821181831017156127ec576127ec612ddc565b81604052828152876020848701011115612804578586fd5b612815836020830160208801612d61565b979650505050505050565b600060208284031215612831578081fd5b5035919050565b600060208284031215612849578081fd5b5051919050565b60008251612862818460208701612d61565b9190910192915050565b6000601160fa1b82528251612888816001850160208701612d61565b9190910160010192915050565b6000605760f81b82528251612888816001850160208701612d61565b6000690223930b3b3b0b13632960b51b825282516128d681600a850160208701612d61565b91909101600a0192915050565b60006702bb930b83832b2160c51b82528251612906816008850160208701612d61565b9190910160080192915050565b6001600160a01b0391909116815260200190565b6001600160a01b039384168152919092166020820152604081019190915260600190565b6001600160a01b03929092168252602082015260400190565b6001600160a01b0385168152602081018490526060604082018190528101829052600082846080840137818301608090810191909152601f909201601f191601019392505050565b6001600160a01b03948516815260208101939093526040830191909152909116606082015260800190565b901515815260200190565b9586526001600160a01b039485166020870152604086019390935292166060840152608083019190915260a082015260c00190565b6000602082528251806020840152612a36816040850160208701612d61565b601f01601f19169190910160400192915050565b6020808252601f908201527f4f6e6c7920636c61696d616e742063616e207265736f6c766520636c61696d00604082015260600190565b60208082526019908201527f436c61696d20706572696f64206e6f74206f7665722079657400000000000000604082015260600190565b6020808252600690820152653330b1ba37b960d11b604082015260600190565b6020808252600f908201526e151c985b9cd9995c8819985a5b1959608a1b604082015260600190565b60208082526006908201526571756f72756d60d01b604082015260600190565b602080825260169082015275155b9cdd5c1c1bdc9d19590818dbdb1b185d195c985b60521b604082015260600190565b6020808252600e908201526d139bc818db185a5b48199bdd5b9960921b604082015260600190565b6020808252601a908201527f436f6c6c61746572616c207472616e73666572206661696c6564000000000000604082015260600190565b6020808252818101527f436c61696d732064697361626c656420666f7220746869732061646472657373604082015260600190565b60208082526017908201527f4164647265737320616c726561647920636c61696d6564000000000000000000604082015260600190565b6020808252601f908201527f436c61696d6564206164647265737320686f6c6473206e6f2073686172657300604082015260600190565b602080825260119082015270185b1c9958591e4818dbdb9d995c9d1959607a1b604082015260600190565b6020808252600d908201526c77726f6e672062616c616e636560981b604082015260600190565b60208082526018908201527f596f752063616e6e6f742064656c65746520636c61696d730000000000000000604082015260600190565b90815260200190565b60ff91909116815260200190565b60008219821115612d0657612d06612dc6565b500190565b600082612d2657634e487b7160e01b81526012600452602481fd5b500490565b6000816000190483118215151615612d4557612d45612dc6565b500290565b600082821015612d5c57612d5c612dc6565b500390565b60005b83811015612d7c578181015183820152602001612d64565b83811115612d8b576000848401525b50505050565b600281046001821680612da557607f821691505b6020821081141561144a57634e487b7160e01b600052602260045260246000fd5b634e487b7160e01b600052601160045260246000fd5b634e487b7160e01b600052604160045260246000fd5b6001600160a01b038116811461151257600080fd5b801515811461151257600080fdfea2646970667358221220c30657e0e1a5bda81153ff7dedd7b054ebd9de2d8485297f67705972ce51b3ce64736f6c63430008010033",
    "sourcePath": "c:/Users/luziu/Documents/aktionariat/contracts/src/DraggableSharesWithPredecessor.sol",
    "compiler": {
        "name": "solc",
        "version": "0.8.1+commit.df193b15"
    },
    "functionHashes": {
        "allowance(address,address)": "dd62ed3e",
        "approve(address,uint256)": "095ea7b3",
        "balanceOf(address)": "70a08231",
        "burn(uint256)": "42966c68",
        "claimPeriod()": "7dc2cd98",
        "claims(address)": "c6788bdd",
        "clearClaim()": "6b03ed5f",
        "convert()": "91bbdcc7",
        "convert1()": "aa3f3b75",
        "convert2(address)": "e056a765",
        "customCollateralAddress()": "0c6f0e5d",
        "customCollateralRate()": "60918117",
        "decimals()": "313ce567",
        "declareLost(address,address)": "26773ddd",
        "deleteClaim(address)": "32a7ae95",
        "drag(address,address)": "fcb79a7e",
        "factory()": "c45a0155",
        "getClaimDeleter()": "2a0a4ed5",
        "getClaimant(address)": "1e3b9de5",
        "getCollateral(address)": "9b56d6c9",
        "getCollateralRate(address)": "77e071ad",
        "getCollateralType(address)": "3bcc45ba",
        "getOldBase()": "a09295f8",
        "getTimeStamp(address)": "eb470ebf",
        "isBinding()": "9e4b5745",
        "isRecoveryEnabled(address)": "a3ec1883",
        "makeAcquisitionOffer(bytes32,uint256,address)": "dcc7d4ad",
        "migrate()": "8fd3ab80",
        "name()": "06fdde03",
        "notifyOfferEnded()": "32bc320b",
        "offer()": "c028df06",
        "onTokenTransfer(address,uint256,bytes)": "a4c0ed36",
        "quorum()": "1703a018",
        "recover(address)": "0cd865ec",
        "recoveryDisabled(address)": "b40e80d1",
        "setRecoverable(bool)": "6427ed97",
        "symbol()": "95d89b41",
        "terms()": "d5025625",
        "totalSupply()": "18160ddd",
        "transfer(address,uint256)": "a9059cbb",
        "transferAndCall(address,uint256,bytes)": "4000aea0",
        "transferFrom(address,address,uint256)": "23b872dd",
        "unwrap(uint256)": "de0e9a3e",
        "unwrapConversionFactor()": "0832e470",
        "votePeriod()": "a7813587",
        "wrap(address,uint256)": "bf376c7a",
        "wrapped()": "50e70d48"
    },
    "gasEstimates": {
        "creation": {
            "codeDepositCost": "2370200",
            "executionCost": "infinite",
            "totalCost": "infinite"
        },
        "external": {
            "allowance(address,address)": "infinite",
            "approve(address,uint256)": "22571",
            "balanceOf(address)": "1400",
            "burn(uint256)": "infinite",
            "claimPeriod()": "274",
            "claims(address)": "3950",
            "clearClaim()": "infinite",
            "convert()": "infinite",
            "convert1()": "infinite",
            "convert2(address)": "infinite",
            "customCollateralAddress()": "1183",
            "customCollateralRate()": "1095",
            "decimals()": "1092",
            "declareLost(address,address)": "infinite",
            "deleteClaim(address)": "infinite",
            "drag(address,address)": "infinite",
            "factory()": "1181",
            "getClaimDeleter()": "infinite",
            "getClaimant(address)": "1393",
            "getCollateral(address)": "1404",
            "getCollateralRate(address)": "infinite",
            "getCollateralType(address)": "1415",
            "getOldBase()": "infinite",
            "getTimeStamp(address)": "1402",
            "isBinding()": "1193",
            "isRecoveryEnabled(address)": "1346",
            "makeAcquisitionOffer(bytes32,uint256,address)": "infinite",
            "migrate()": "infinite",
            "name()": "infinite",
            "notifyOfferEnded()": "21907",
            "offer()": "1159",
            "onTokenTransfer(address,uint256,bytes)": "infinite",
            "quorum()": "1074",
            "recover(address)": "infinite",
            "recoveryDisabled(address)": "1303",
            "setRecoverable(bool)": "21277",
            "symbol()": "infinite",
            "terms()": "infinite",
            "totalSupply()": "1096",
            "transfer(address,uint256)": "infinite",
            "transferAndCall(address,uint256,bytes)": "infinite",
            "transferFrom(address,address,uint256)": "infinite",
            "unwrap(uint256)": "infinite",
            "unwrapConversionFactor()": "1097",
            "votePeriod()": "1139",
            "wrap(address,uint256)": "infinite",
            "wrapped()": "1115"
        }
    }
}