{
    "contractName": "DraggableShares",
    "abi": [
        {
            "inputs": [
                {
                    "internalType": "string",
                    "name": "_terms",
                    "type": "string"
                },
                {
                    "internalType": "address",
                    "name": "wrappedToken",
                    "type": "address"
                },
                {
                    "internalType": "address",
                    "name": "xchfAddress",
                    "type": "address"
                }
            ],
            "stateMutability": "nonpayable",
            "type": "constructor"
        },
        {
            "anonymous": false,
            "inputs": [
                {
                    "indexed": true,
                    "internalType": "address",
                    "name": "owner",
                    "type": "address"
                },
                {
                    "indexed": true,
                    "internalType": "address",
                    "name": "spender",
                    "type": "address"
                },
                {
                    "indexed": false,
                    "internalType": "uint256",
                    "name": "value",
                    "type": "uint256"
                }
            ],
            "name": "Approval",
            "type": "event"
        },
        {
            "anonymous": false,
            "inputs": [
                {
                    "indexed": true,
                    "internalType": "address",
                    "name": "lostAddress",
                    "type": "address"
                },
                {
                    "indexed": false,
                    "internalType": "uint256",
                    "name": "collateral",
                    "type": "uint256"
                }
            ],
            "name": "ClaimCleared",
            "type": "event"
        },
        {
            "anonymous": false,
            "inputs": [
                {
                    "indexed": true,
                    "internalType": "address",
                    "name": "lostAddress",
                    "type": "address"
                },
                {
                    "indexed": true,
                    "internalType": "address",
                    "name": "claimant",
                    "type": "address"
                },
                {
                    "indexed": false,
                    "internalType": "uint256",
                    "name": "collateral",
                    "type": "uint256"
                }
            ],
            "name": "ClaimDeleted",
            "type": "event"
        },
        {
            "anonymous": false,
            "inputs": [
                {
                    "indexed": true,
                    "internalType": "address",
                    "name": "lostAddress",
                    "type": "address"
                },
                {
                    "indexed": true,
                    "internalType": "address",
                    "name": "claimant",
                    "type": "address"
                },
                {
                    "indexed": false,
                    "internalType": "uint256",
                    "name": "balance",
                    "type": "uint256"
                }
            ],
            "name": "ClaimMade",
            "type": "event"
        },
        {
            "anonymous": false,
            "inputs": [
                {
                    "indexed": false,
                    "internalType": "uint256",
                    "name": "newClaimPeriodInDays",
                    "type": "uint256"
                }
            ],
            "name": "ClaimPeriodChanged",
            "type": "event"
        },
        {
            "anonymous": false,
            "inputs": [
                {
                    "indexed": true,
                    "internalType": "address",
                    "name": "lostAddress",
                    "type": "address"
                },
                {
                    "indexed": true,
                    "internalType": "address",
                    "name": "claimant",
                    "type": "address"
                },
                {
                    "indexed": false,
                    "internalType": "uint256",
                    "name": "collateral",
                    "type": "uint256"
                }
            ],
            "name": "ClaimResolved",
            "type": "event"
        },
        {
            "anonymous": false,
            "inputs": [
                {
                    "indexed": false,
                    "internalType": "address",
                    "name": "newCustomCollateralAddress",
                    "type": "address"
                },
                {
                    "indexed": false,
                    "internalType": "uint256",
                    "name": "newCustomCollareralRate",
                    "type": "uint256"
                }
            ],
            "name": "CustomClaimCollateralChanged",
            "type": "event"
        },
        {
            "anonymous": false,
            "inputs": [
                {
                    "indexed": false,
                    "internalType": "address",
                    "name": "newContractAddress",
                    "type": "address"
                }
            ],
            "name": "MigrationSucceeded",
            "type": "event"
        },
        {
            "anonymous": false,
            "inputs": [
                {
                    "indexed": true,
                    "internalType": "address",
                    "name": "buyer",
                    "type": "address"
                },
                {
                    "indexed": false,
                    "internalType": "uint256",
                    "name": "pricePerShare",
                    "type": "uint256"
                },
                {
                    "indexed": false,
                    "internalType": "address",
                    "name": "offerContract",
                    "type": "address"
                }
            ],
            "name": "OfferCreated",
            "type": "event"
        },
        {
            "anonymous": false,
            "inputs": [
                {
                    "indexed": true,
                    "internalType": "address",
                    "name": "buyer",
                    "type": "address"
                },
                {
                    "indexed": false,
                    "internalType": "address",
                    "name": "sender",
                    "type": "address"
                },
                {
                    "indexed": false,
                    "internalType": "bool",
                    "name": "success",
                    "type": "bool"
                },
                {
                    "indexed": false,
                    "internalType": "string",
                    "name": "message",
                    "type": "string"
                },
                {
                    "indexed": false,
                    "internalType": "address",
                    "name": "offerContract",
                    "type": "address"
                }
            ],
            "name": "OfferEnded",
            "type": "event"
        },
        {
            "anonymous": false,
            "inputs": [
                {
                    "indexed": true,
                    "internalType": "address",
                    "name": "from",
                    "type": "address"
                },
                {
                    "indexed": true,
                    "internalType": "address",
                    "name": "to",
                    "type": "address"
                },
                {
                    "indexed": false,
                    "internalType": "uint256",
                    "name": "value",
                    "type": "uint256"
                }
            ],
            "name": "Transfer",
            "type": "event"
        },
        {
            "inputs": [],
            "name": "acquisitionQuorum",
            "outputs": [
                {
                    "internalType": "uint256",
                    "name": "",
                    "type": "uint256"
                }
            ],
            "stateMutability": "view",
            "type": "function"
        },
        {
            "inputs": [],
            "name": "active",
            "outputs": [
                {
                    "internalType": "bool",
                    "name": "",
                    "type": "bool"
                }
            ],
            "stateMutability": "view",
            "type": "function"
        },
        {
            "inputs": [
                {
                    "internalType": "address",
                    "name": "owner",
                    "type": "address"
                },
                {
                    "internalType": "address",
                    "name": "spender",
                    "type": "address"
                }
            ],
            "name": "allowance",
            "outputs": [
                {
                    "internalType": "uint256",
                    "name": "",
                    "type": "uint256"
                }
            ],
            "stateMutability": "view",
            "type": "function"
        },
        {
            "inputs": [
                {
                    "internalType": "address",
                    "name": "spender",
                    "type": "address"
                },
                {
                    "internalType": "uint256",
                    "name": "value",
                    "type": "uint256"
                }
            ],
            "name": "approve",
            "outputs": [
                {
                    "internalType": "bool",
                    "name": "",
                    "type": "bool"
                }
            ],
            "stateMutability": "nonpayable",
            "type": "function"
        },
        {
            "inputs": [
                {
                    "internalType": "address",
                    "name": "account",
                    "type": "address"
                }
            ],
            "name": "balanceOf",
            "outputs": [
                {
                    "internalType": "uint256",
                    "name": "",
                    "type": "uint256"
                }
            ],
            "stateMutability": "view",
            "type": "function"
        },
        {
            "inputs": [
                {
                    "internalType": "uint256",
                    "name": "amount",
                    "type": "uint256"
                }
            ],
            "name": "burn",
            "outputs": [],
            "stateMutability": "nonpayable",
            "type": "function"
        },
        {
            "inputs": [],
            "name": "cancelAcquisition",
            "outputs": [],
            "stateMutability": "nonpayable",
            "type": "function"
        },
        {
            "inputs": [],
            "name": "claimPeriod",
            "outputs": [
                {
                    "internalType": "uint256",
                    "name": "",
                    "type": "uint256"
                }
            ],
            "stateMutability": "view",
            "type": "function"
        },
        {
            "inputs": [
                {
                    "internalType": "address",
                    "name": "",
                    "type": "address"
                }
            ],
            "name": "claimingDisabled",
            "outputs": [
                {
                    "internalType": "bool",
                    "name": "",
                    "type": "bool"
                }
            ],
            "stateMutability": "view",
            "type": "function"
        },
        {
            "inputs": [
                {
                    "internalType": "address",
                    "name": "",
                    "type": "address"
                }
            ],
            "name": "claims",
            "outputs": [
                {
                    "internalType": "address",
                    "name": "claimant",
                    "type": "address"
                },
                {
                    "internalType": "uint256",
                    "name": "collateral",
                    "type": "uint256"
                },
                {
                    "internalType": "uint256",
                    "name": "timestamp",
                    "type": "uint256"
                },
                {
                    "internalType": "address",
                    "name": "currencyUsed",
                    "type": "address"
                }
            ],
            "stateMutability": "view",
            "type": "function"
        },
        {
            "inputs": [],
            "name": "clearClaim",
            "outputs": [],
            "stateMutability": "nonpayable",
            "type": "function"
        },
        {
            "inputs": [],
            "name": "completeAcquisition",
            "outputs": [],
            "stateMutability": "nonpayable",
            "type": "function"
        },
        {
            "inputs": [],
            "name": "contestAcquisition",
            "outputs": [],
            "stateMutability": "nonpayable",
            "type": "function"
        },
        {
            "inputs": [],
            "name": "customCollateralAddress",
            "outputs": [
                {
                    "internalType": "address",
                    "name": "",
                    "type": "address"
                }
            ],
            "stateMutability": "view",
            "type": "function"
        },
        {
            "inputs": [],
            "name": "customCollateralRate",
            "outputs": [
                {
                    "internalType": "uint256",
                    "name": "",
                    "type": "uint256"
                }
            ],
            "stateMutability": "view",
            "type": "function"
        },
        {
            "inputs": [],
            "name": "decimals",
            "outputs": [
                {
                    "internalType": "uint8",
                    "name": "",
                    "type": "uint8"
                }
            ],
            "stateMutability": "view",
            "type": "function"
        },
        {
            "inputs": [
                {
                    "internalType": "address",
                    "name": "collateralType",
                    "type": "address"
                },
                {
                    "internalType": "address",
                    "name": "lostAddress",
                    "type": "address"
                }
            ],
            "name": "declareLost",
            "outputs": [],
            "stateMutability": "nonpayable",
            "type": "function"
        },
        {
            "inputs": [
                {
                    "internalType": "address",
                    "name": "spender",
                    "type": "address"
                },
                {
                    "internalType": "uint256",
                    "name": "subtractedValue",
                    "type": "uint256"
                }
            ],
            "name": "decreaseAllowance",
            "outputs": [
                {
                    "internalType": "bool",
                    "name": "",
                    "type": "bool"
                }
            ],
            "stateMutability": "nonpayable",
            "type": "function"
        },
        {
            "inputs": [
                {
                    "internalType": "address",
                    "name": "lostAddress",
                    "type": "address"
                }
            ],
            "name": "deleteClaim",
            "outputs": [],
            "stateMutability": "nonpayable",
            "type": "function"
        },
        {
            "inputs": [],
            "name": "getClaimDeleter",
            "outputs": [
                {
                    "internalType": "address",
                    "name": "",
                    "type": "address"
                }
            ],
            "stateMutability": "view",
            "type": "function"
        },
        {
            "inputs": [
                {
                    "internalType": "address",
                    "name": "lostAddress",
                    "type": "address"
                }
            ],
            "name": "getClaimant",
            "outputs": [
                {
                    "internalType": "address",
                    "name": "",
                    "type": "address"
                }
            ],
            "stateMutability": "view",
            "type": "function"
        },
        {
            "inputs": [
                {
                    "internalType": "address",
                    "name": "lostAddress",
                    "type": "address"
                }
            ],
            "name": "getCollateral",
            "outputs": [
                {
                    "internalType": "uint256",
                    "name": "",
                    "type": "uint256"
                }
            ],
            "stateMutability": "view",
            "type": "function"
        },
        {
            "inputs": [
                {
                    "internalType": "address",
                    "name": "collateralType",
                    "type": "address"
                }
            ],
            "name": "getCollateralRate",
            "outputs": [
                {
                    "internalType": "uint256",
                    "name": "",
                    "type": "uint256"
                }
            ],
            "stateMutability": "view",
            "type": "function"
        },
        {
            "inputs": [
                {
                    "internalType": "address",
                    "name": "lostAddress",
                    "type": "address"
                }
            ],
            "name": "getCollateralType",
            "outputs": [
                {
                    "internalType": "address",
                    "name": "",
                    "type": "address"
                }
            ],
            "stateMutability": "view",
            "type": "function"
        },
        {
            "inputs": [],
            "name": "getCurrencyContract",
            "outputs": [
                {
                    "internalType": "address",
                    "name": "",
                    "type": "address"
                }
            ],
            "stateMutability": "view",
            "type": "function"
        },
        {
            "inputs": [],
            "name": "getPendingOffer",
            "outputs": [
                {
                    "internalType": "address",
                    "name": "",
                    "type": "address"
                }
            ],
            "stateMutability": "view",
            "type": "function"
        },
        {
            "inputs": [
                {
                    "internalType": "address",
                    "name": "lostAddress",
                    "type": "address"
                }
            ],
            "name": "getTimeStamp",
            "outputs": [
                {
                    "internalType": "uint256",
                    "name": "",
                    "type": "uint256"
                }
            ],
            "stateMutability": "view",
            "type": "function"
        },
        {
            "inputs": [],
            "name": "getWrappedContract",
            "outputs": [
                {
                    "internalType": "address",
                    "name": "",
                    "type": "address"
                }
            ],
            "stateMutability": "view",
            "type": "function"
        },
        {
            "inputs": [
                {
                    "internalType": "address",
                    "name": "spender",
                    "type": "address"
                },
                {
                    "internalType": "uint256",
                    "name": "addedValue",
                    "type": "uint256"
                }
            ],
            "name": "increaseAllowance",
            "outputs": [
                {
                    "internalType": "bool",
                    "name": "",
                    "type": "bool"
                }
            ],
            "stateMutability": "nonpayable",
            "type": "function"
        },
        {
            "inputs": [
                {
                    "internalType": "uint256",
                    "name": "pricePerShare",
                    "type": "uint256"
                }
            ],
            "name": "initiateAcquisition",
            "outputs": [],
            "stateMutability": "nonpayable",
            "type": "function"
        },
        {
            "inputs": [
                {
                    "internalType": "address",
                    "name": "target",
                    "type": "address"
                }
            ],
            "name": "isClaimsEnabled",
            "outputs": [
                {
                    "internalType": "bool",
                    "name": "",
                    "type": "bool"
                }
            ],
            "stateMutability": "view",
            "type": "function"
        },
        {
            "inputs": [],
            "name": "licenseFee",
            "outputs": [
                {
                    "internalType": "uint256",
                    "name": "",
                    "type": "uint256"
                }
            ],
            "stateMutability": "view",
            "type": "function"
        },
        {
            "inputs": [],
            "name": "licenseFeeRecipient",
            "outputs": [
                {
                    "internalType": "address",
                    "name": "",
                    "type": "address"
                }
            ],
            "stateMutability": "view",
            "type": "function"
        },
        {
            "inputs": [],
            "name": "migrate",
            "outputs": [],
            "stateMutability": "nonpayable",
            "type": "function"
        },
        {
            "inputs": [],
            "name": "migrationQuorum",
            "outputs": [
                {
                    "internalType": "uint256",
                    "name": "",
                    "type": "uint256"
                }
            ],
            "stateMutability": "view",
            "type": "function"
        },
        {
            "inputs": [],
            "name": "name",
            "outputs": [
                {
                    "internalType": "string",
                    "name": "",
                    "type": "string"
                }
            ],
            "stateMutability": "view",
            "type": "function"
        },
        {
            "inputs": [],
            "name": "offer",
            "outputs": [
                {
                    "internalType": "contract Acquisition",
                    "name": "",
                    "type": "address"
                }
            ],
            "stateMutability": "view",
            "type": "function"
        },
        {
            "inputs": [],
            "name": "offerExists",
            "outputs": [
                {
                    "internalType": "bool",
                    "name": "",
                    "type": "bool"
                }
            ],
            "stateMutability": "view",
            "type": "function"
        },
        {
            "inputs": [
                {
                    "internalType": "address",
                    "name": "from",
                    "type": "address"
                },
                {
                    "internalType": "uint256",
                    "name": "amount",
                    "type": "uint256"
                },
                {
                    "internalType": "bytes",
                    "name": "",
                    "type": "bytes"
                }
            ],
            "name": "onTokenTransfer",
            "outputs": [],
            "stateMutability": "nonpayable",
            "type": "function"
        },
        {
            "inputs": [
                {
                    "internalType": "address",
                    "name": "lostAddress",
                    "type": "address"
                }
            ],
            "name": "resolveClaim",
            "outputs": [],
            "stateMutability": "nonpayable",
            "type": "function"
        },
        {
            "inputs": [
                {
                    "internalType": "bool",
                    "name": "enabled",
                    "type": "bool"
                }
            ],
            "name": "setClaimable",
            "outputs": [],
            "stateMutability": "nonpayable",
            "type": "function"
        },
        {
            "inputs": [],
            "name": "symbol",
            "outputs": [
                {
                    "internalType": "string",
                    "name": "",
                    "type": "string"
                }
            ],
            "stateMutability": "view",
            "type": "function"
        },
        {
            "inputs": [],
            "name": "terms",
            "outputs": [
                {
                    "internalType": "string",
                    "name": "",
                    "type": "string"
                }
            ],
            "stateMutability": "view",
            "type": "function"
        },
        {
            "inputs": [],
            "name": "totalSupply",
            "outputs": [
                {
                    "internalType": "uint256",
                    "name": "",
                    "type": "uint256"
                }
            ],
            "stateMutability": "view",
            "type": "function"
        },
        {
            "inputs": [
                {
                    "internalType": "address",
                    "name": "to",
                    "type": "address"
                },
                {
                    "internalType": "uint256",
                    "name": "value",
                    "type": "uint256"
                }
            ],
            "name": "transfer",
            "outputs": [
                {
                    "internalType": "bool",
                    "name": "",
                    "type": "bool"
                }
            ],
            "stateMutability": "nonpayable",
            "type": "function"
        },
        {
            "inputs": [
                {
                    "internalType": "address",
                    "name": "recipient",
                    "type": "address"
                },
                {
                    "internalType": "uint256",
                    "name": "amount",
                    "type": "uint256"
                },
                {
                    "internalType": "bytes",
                    "name": "data",
                    "type": "bytes"
                }
            ],
            "name": "transferAndCall",
            "outputs": [
                {
                    "internalType": "bool",
                    "name": "",
                    "type": "bool"
                }
            ],
            "stateMutability": "nonpayable",
            "type": "function"
        },
        {
            "inputs": [
                {
                    "internalType": "address",
                    "name": "sender",
                    "type": "address"
                },
                {
                    "internalType": "address",
                    "name": "recipient",
                    "type": "address"
                },
                {
                    "internalType": "uint256",
                    "name": "amount",
                    "type": "uint256"
                }
            ],
            "name": "transferFrom",
            "outputs": [
                {
                    "internalType": "bool",
                    "name": "",
                    "type": "bool"
                }
            ],
            "stateMutability": "nonpayable",
            "type": "function"
        },
        {
            "inputs": [
                {
                    "internalType": "uint256",
                    "name": "amount",
                    "type": "uint256"
                }
            ],
            "name": "unwrap",
            "outputs": [],
            "stateMutability": "nonpayable",
            "type": "function"
        },
        {
            "inputs": [],
            "name": "unwrapConversionFactor",
            "outputs": [
                {
                    "internalType": "uint256",
                    "name": "",
                    "type": "uint256"
                }
            ],
            "stateMutability": "view",
            "type": "function"
        },
        {
            "inputs": [
                {
                    "internalType": "address",
                    "name": "newCurrency",
                    "type": "address"
                }
            ],
            "name": "updateCurrency",
            "outputs": [],
            "stateMutability": "nonpayable",
            "type": "function"
        },
        {
            "inputs": [],
            "name": "voteNo",
            "outputs": [],
            "stateMutability": "nonpayable",
            "type": "function"
        },
        {
            "inputs": [],
            "name": "voteYes",
            "outputs": [],
            "stateMutability": "nonpayable",
            "type": "function"
        },
        {
            "inputs": [],
            "name": "wasAcquired",
            "outputs": [
                {
                    "internalType": "bool",
                    "name": "",
                    "type": "bool"
                }
            ],
            "stateMutability": "view",
            "type": "function"
        },
        {
            "inputs": [
                {
                    "internalType": "address",
                    "name": "shareholder",
                    "type": "address"
                },
                {
                    "internalType": "uint256",
                    "name": "amount",
                    "type": "uint256"
                }
            ],
            "name": "wrap",
            "outputs": [],
            "stateMutability": "nonpayable",
            "type": "function"
        }
    ],
    "bytecode": "608060405262ed4e006004556001600a8190556011805460ff191690911790553480156200002c57600080fd5b50604051620051d4380380620051d4833981810160405260608110156200005257600080fd5b81019080805160405193929190846401000000008211156200007357600080fd5b9083019060208201858111156200008957600080fd5b8251640100000000811182820188101715620000a457600080fd5b82525081516020918201929091019080838360005b83811015620000d3578181015183820152602001620000b9565b50505050905090810190601f168015620001015780820380516001836020036101000a031916815260200191505b506040818152602083810151938201516003805460ff19169055600980546001600160a01b038088166001600160a01b03199283168117909355600d805483167329fe8914e76da5ce2d90de98a64d0055f199d06d17905569010f0cf064dd59200000600e55611d4c600f8190556010819055600c80549286169290931691909117909155633a98ef3960e01b865293519597509095508694929384938793633a98ef3992600480820193918290030181600087803b158015620001c457600080fd5b505af1158015620001d9573d6000803e3d6000fd5b505050506040513d6020811015620001f057600080fd5b50506040805163378c93ad60e01b815260006004820181905291516001600160a01b038916965063378c93ad955060248083019550929350919082900301818387803b1580156200024057600080fd5b505af115801562000255573d6000803e3d6000fd5b505084516200026e925060129150602086019062000278565b5050505062000314565b828054600181600116156101000203166002900490600052602060002090601f016020900481019282601f10620002bb57805160ff1916838001178555620002eb565b82800160010185558215620002eb579182015b82811115620002eb578251825591602001919060010190620002ce565b50620002f9929150620002fd565b5090565b5b80821115620002f95760008155600101620002fe565b614eb080620003246000396000f3fe60806040523480156200001157600080fd5b5060043610620003945760003560e01c806370a0823111620001e3578063a9d9d0c7116200011d578063dd62ed3e11620000b1578063e1b8c38e1162000087578063e1b8c38e1462000a60578063eb470ebf1462000a6a578063ec6580e21462000a93578063f66f145a1462000a9d5762000394565b8063dd62ed3e1462000a05578063de0e9a3e1462000a36578063de4946851462000a565762000394565b8063bf376c7a11620000f3578063bf376c7a146200095c578063c028df06146200098b578063c6788bdd1462000995578063d502562514620009fb5762000394565b8063a9d9d0c7146200093e578063bb6894721462000948578063bc1b1e7c14620009525762000394565b806394d645a811620001955780639e8a9a5a116200016b5780639e8a9a5a146200084d578063a457c2d71462000857578063a4c0ed361462000886578063a9059cbb146200090f5762000394565b806394d645a814620007f157806395d89b41146200081a5780639b56d6c914620008245762000394565b806370a08231146200075857806377e071ad14620007815780637dc2cd9814620007aa5780638e0597c114620007b45780638fd3ab8014620007dd57806390cf581c14620007e75762000394565b80633549788a11620002d35780634900ca51116200026757806360918117116200023d5780636091811714620007305780636467c09a146200073a5780636b03ed5f14620007445780636f4b18df146200074e5762000394565b80634900ca5114620006dd5780635804791314620006fd5780635e02760114620007075762000394565b80633bcc45ba11620002a95780633bcc45ba14620006015780634000aea0146200062a57806341c12a7014620006b357806342966c6814620006bd5762000394565b80633549788a14620005a6578063378c93ad14620005b05780633950935114620005d25762000394565b806318160ddd116200034b57806326773ddd116200032157806326773ddd14620005225780632a0a4ed51462000553578063313ce567146200055d57806332a7ae95146200057d5762000394565b806318160ddd14620004b65780631e3b9de514620004c057806323b872dd14620004e95762000394565b806302fb0c5e146200039957806306fdde0314620003b75780630832e4701462000439578063095ea7b314620004555780630c6f0e5d1462000484578063141c706814620004aa575b600080fd5b620003a362000ac6565b604080519115158252519081900360200190f35b620003c162000acf565b6040805160208082528351818301528351919283929083019185019080838360005b83811015620003fd578181015183820152602001620003e3565b50505050905090810190601f1680156200042b5780820380516001836020036101000a031916815260200191505b509250505060405180910390f35b6200044362000c8a565b60408051918252519081900360200190f35b620003a3600480360360408110156200046d57600080fd5b506001600160a01b03813516906020013562000c90565b6200048e62000ca9565b604080516001600160a01b039092168252519081900360200190f35b620004b462000cb8565b005b62000443620010a8565b6200048e60048036036020811015620004d857600080fd5b50356001600160a01b0316620010ae565b620003a3600480360360608110156200050157600080fd5b506001600160a01b03813581169160208101359091169060400135620010cf565b620004b4600480360360408110156200053a57600080fd5b506001600160a01b038135811691602001351662001126565b6200048e62001451565b62000567620014c9565b6040805160ff9092168252519081900360200190f35b620004b4600480360360208110156200059557600080fd5b50356001600160a01b0316620014d2565b620004436200173a565b620004b460048036036020811015620005c857600080fd5b5035151562001740565b620003a360048036036040811015620005ea57600080fd5b506001600160a01b0381351690602001356200175f565b6200048e600480360360208110156200061957600080fd5b50356001600160a01b031662001798565b620003a3600480360360608110156200064257600080fd5b6001600160a01b0382351691602081013591810190606081016040820135600160201b8111156200067257600080fd5b8201836020820111156200068557600080fd5b803590602001918460018302840111600160201b83111715620006a757600080fd5b509092509050620017b9565b620004b462001880565b620004b460048036036020811015620006d557600080fd5b50356200195c565b620004b460048036036020811015620006f557600080fd5b5035620019ce565b6200048e62001f02565b620004b4600480360360208110156200071f57600080fd5b50356001600160a01b031662001f11565b62000443620020b5565b6200048e620020bb565b620004b4620020ca565b620004b46200222f565b62000443600480360360208110156200077057600080fd5b50356001600160a01b031662002589565b62000443600480360360208110156200079957600080fd5b50356001600160a01b0316620025a4565b6200044362002659565b620003a360048036036020811015620007cc57600080fd5b50356001600160a01b03166200265f565b620004b462002674565b620004b462002909565b620004b4600480360360208110156200080957600080fd5b50356001600160a01b031662002982565b620003c162002c66565b62000443600480360360208110156200083c57600080fd5b50356001600160a01b031662002dde565b6200044362002dfc565b620003a3600480360360408110156200086f57600080fd5b506001600160a01b03813516906020013562002e02565b620004b4600480360360608110156200089e57600080fd5b6001600160a01b0382351691602081013591810190606081016040820135600160201b811115620008ce57600080fd5b820183602082011115620008e157600080fd5b803590602001918460018302840111600160201b831117156200090357600080fd5b50909250905062002e3b565b620003a3600480360360408110156200092757600080fd5b506001600160a01b03813516906020013562002e65565b6200044362002e7a565b6200048e62002e80565b620003a362002e8f565b620004b4600480360360408110156200097457600080fd5b506001600160a01b03813516906020013562002eac565b6200048e62002fe7565b620009be60048036036020811015620009ad57600080fd5b50356001600160a01b031662002ff6565b60405180856001600160a01b03168152602001848152602001838152602001826001600160a01b0316815260200194505050505060405180910390f35b620003c162003028565b620004436004803603604081101562000a1d57600080fd5b506001600160a01b0381358116916020013516620030ba565b620004b46004803603602081101562000a4e57600080fd5b5035620030e5565b6200048e6200321e565b620004b46200322d565b620004436004803603602081101562000a8257600080fd5b50356001600160a01b031662003381565b620003a36200339f565b620003a36004803603602081101562000ab557600080fd5b50356001600160a01b0316620033c5565b60115460ff1681565b600954604080516306fdde0360e01b815290516060926001600160a01b0316916306fdde03916004808301926000929190829003018186803b15801562000b1557600080fd5b505afa15801562000b2a573d6000803e3d6000fd5b505050506040513d6000823e601f3d908101601f19168201604052602081101562000b5457600080fd5b8101908080516040519392919084600160201b82111562000b7457600080fd5b90830190602082018581111562000b8a57600080fd5b8251600160201b81118282018810171562000ba457600080fd5b82525081516020918201929091019080838360005b8381101562000bd357818101518382015260200162000bb9565b50505050905090810190601f16801562000c015780820380516001836020036101000a031916815260200191505b506040525050506040516020018080690223930b3b3b0b13632960b51b815250600a0182805190602001908083835b6020831062000c515780518252601f19909201916020918201910162000c30565b6001836020036101000a038019825116818451168082178552505050505050905001915050604051602081830303815290604052905090565b600a5481565b600062000c9f338484620033e4565b5060015b92915050565b6007546001600160a01b031681565b62000cc262002e8f565b801562000cd1575060115460ff165b62000d12576040805162461bcd60e51b8152602060048201526019602482015260008051602062004d51833981519152604482015290519081900360640190fd5b600b54604080516338a86c5760e11b815290516000926001600160a01b031691637150d8ae916004808301926020929190829003018186803b15801562000d5857600080fd5b505afa15801562000d6d573d6000803e3d6000fd5b505050506040513d602081101562000d8457600080fd5b50519050336001600160a01b0382161462000dd15760405162461bcd60e51b815260040180806020018281038252603981526020018062004e096039913960400191505060405180910390fd5b600b60009054906101000a90046001600160a01b03166001600160a01b031663d7be4e296040518163ffffffff1660e01b815260040160206040518083038186803b15801562000e2057600080fd5b505afa15801562000e35573d6000803e3d6000fd5b505050506040513d602081101562000e4c57600080fd5b505162000ea0576040805162461bcd60e51b815260206004820181905260248201527f496e73756666696369656e74206e756d626572206f662079657320766f746573604482015290519081900360640190fd5b600b546001600160a01b0316639890f82462000ebb6200321e565b62000edb62000eca8562002589565b62000ed4620010a8565b90620034d4565b6040518363ffffffff1660e01b815260040180836001600160a01b031681526020018281526020019250505060206040518083038186803b15801562000f2057600080fd5b505afa15801562000f35573d6000803e3d6000fd5b505050506040513d602081101562000f4c57600080fd5b505162000fa0576040805162461bcd60e51b815260206004820152601b60248201527f4f6666657220696e73756666696369656e746c792066756e6465640000000000604482015290519081900360640190fd5b600c54600b546040805163501ad8ff60e11b81529051620010279385936001600160a01b039182169391169163a035b1fe91600480820192602092909190829003018186803b15801562000ff357600080fd5b505afa15801562001008573d6000803e3d6000fd5b505050506040513d60208110156200101f57600080fd5b5051620034e7565b600b5460408051338152600160208201526001600160a01b039283166060820152608081830181905260169082015275436f6d706c65746564207375636365737366756c6c7960501b60a08201529051918316917fc88f58ae9feb0742d9422f604dd3c1be6d02818f8dec340c5061f428b554e9759181900360c00190a250565b60025490565b6001600160a01b03808216600090815260056020526040902054165b919050565b6000620010de8484846200371e565b6001600160a01b0384166000908152600160209081526040808320338085529252909120546200111c918691620011169086620034d4565b620033e4565b5060019392505050565b6200113181620033c5565b62001183576040805162461bcd60e51b815260206004820181905260248201527f436c61696d732064697361626c656420666f7220746869732061646472657373604482015290519081900360640190fd5b60006200119083620025a4565b905060008111620011e1576040805162461bcd60e51b8152602060048201526016602482015275155b9cdd5c1c1bdc9d19590818dbdb1b185d195c985b60521b604482015290519081900360640190fd5b336000620011ef8462002589565b90506000620011ff828562003730565b9050858262001255576040805162461bcd60e51b815260206004820152601f60248201527f436c61696d6564206164647265737320686f6c6473206e6f2073686172657300604482015290519081900360640190fd5b6001600160a01b03861660009081526005602052604090206001015415620012c4576040805162461bcd60e51b815260206004820152601760248201527f4164647265737320616c726561647920636c61696d6564000000000000000000604482015290519081900360640190fd5b604080516323b872dd60e01b81526001600160a01b038681166004830152306024830152604482018590529151918316916323b872dd916064808201926020929091908290030181600087803b1580156200131e57600080fd5b505af115801562001333573d6000803e3d6000fd5b505050506040513d60208110156200134a57600080fd5b50516200139b576040805162461bcd60e51b815260206004820152601a60248201527910dbdb1b185d195c985b081d1c985b9cd9995c8819985a5b195960321b604482015290519081900360640190fd5b604080516080810182526001600160a01b038087168083526020808401878152428587019081528d8516606087019081528d8616600081815260058652899020975188549088166001600160a01b0319918216178955935160018901559151600288015551600390960180549690951695909116949094179092558351878152935190937f1982ca8958fc8a8176cb52be509260f4bc5af7ce04e1533711793f1c56dd535992908290030190a350505050505050565b60006200145d62001f02565b6001600160a01b0316632a0a4ed56040518163ffffffff1660e01b815260040160206040518083038186803b1580156200149657600080fd5b505afa158015620014ab573d6000803e3d6000fd5b505050506040513d6020811015620014c257600080fd5b5051905090565b60035460ff1681565b620014dc62001451565b6001600160a01b0316336001600160a01b03161462001542576040805162461bcd60e51b815260206004820152601860248201527f596f752063616e6e6f742064656c65746520636c61696d730000000000000000604482015290519081900360640190fd5b6200154c62003ff2565b506001600160a01b038082166000908152600560209081526040918290208251608081018452815485168152600182015492810183905260028201549381019390935260030154909216606082018190529091620015e2576040805162461bcd60e51b815260206004820152600e60248201526d139bc818db185a5b48199bdd5b9960921b604482015290519081900360640190fd5b6001600160a01b03808416600090815260056020908152604080832080546001600160a01b031990811682556001820185905560028201859055600390910180549091169055855186830151825163a9059cbb60e01b81529186166004830152602482015290519385169363a9059cbb93604480840194938390030190829087803b1580156200167157600080fd5b505af115801562001686573d6000803e3d6000fd5b505050506040513d60208110156200169d57600080fd5b5051620016ee576040805162461bcd60e51b815260206004820152601a60248201527910dbdb1b185d195c985b081d1c985b9cd9995c8819985a5b195960321b604482015290519081900360640190fd5b815160208084015160408051918252516001600160a01b03938416938716927fbb036e629a9f4c0897ee5d48440dfdb36f7e772117723a2ed603a6514244c2d5928290030190a3505050565b60105481565b336000908152600660205260409020805460ff19169115919091179055565b3360008181526001602090815260408083206001600160a01b0387168452909152812054909162000c9f91859062001116908662003759565b6001600160a01b039081166000908152600560205260409020600301541690565b600080620017c8868662002e65565b905080156200187757856001600160a01b031663a4c0ed36338787876040518563ffffffff1660e01b815260040180856001600160a01b03168152602001848152602001806020018281038252848482818152602001925080828437600081840152601f19601f82011690508083019250505095505050505050600060405180830381600087803b1580156200185d57600080fd5b505af115801562001872573d6000803e3d6000fd5b505050505b95945050505050565b6200188a62002e8f565b801562001899575060115460ff165b620018da576040805162461bcd60e51b8152602060048201526019602482015260008051602062004d51833981519152604482015290519081900360640190fd5b600b5433906001600160a01b0316634b91562e82620018f98162002589565b6040518363ffffffff1660e01b815260040180836001600160a01b0316815260200182815260200192505050600060405180830381600087803b1580156200194057600080fd5b505af115801562001955573d6000803e3d6000fd5b5050505050565b62001968338262003767565b6200197262001f02565b6001600160a01b03166342966c6862001997600a54846200373090919063ffffffff16565b6040518263ffffffff1660e01b815260040180828152602001915050600060405180830381600087803b1580156200194057600080fd5b60115460ff1662001a26576040805162461bcd60e51b815260206004820152601860248201527f416e206163636570746564206f66666572206578697374730000000000000000604482015290519081900360640190fd5b600062001a3262001f02565b6001600160a01b0316633a98ef396040518163ffffffff1660e01b8152600401602060405180830381600087803b15801562001a6d57600080fd5b505af115801562001a82573d6000803e3d6000fd5b505050506040513d602081101562001a9957600080fd5b505190503362001aba61271062001ab384610bb862003730565b9062003773565b62001ac4620010a8565b101562001b035760405162461bcd60e51b815260040180806020018281038252602e81526020018062004db7602e913960400191505060405180910390fd5b62001b1861271062001ab3846101f462003730565b62001b238262002589565b101562001b625760405162461bcd60e51b815260040180806020018281038252603981526020018062004e426039913960400191505060405180910390fd5b600c54600d54600e54604080516323b872dd60e01b81526001600160a01b038681166004830152938416602482015260448101929092525191909216916323b872dd9160648083019260209291908290030181600087803b15801562001bc757600080fd5b505af115801562001bdc573d6000803e3d6000fd5b505050506040513d602081101562001bf357600080fd5b505162001c47576040805162461bcd60e51b815260206004820152601860248201527f43757272656e6379207472616e73666572206661696c65640000000000000000604482015290519081900360640190fd5b6000338460105460405162001c5c906200402c565b80846001600160a01b031681526020018381526020018281526020019350505050604051809103906000f08015801562001c9a573d6000803e3d6000fd5b509050806001600160a01b0316639890f82462001cb66200321e565b62001cc18562002589565b62001ccb620010a8565b036040518363ffffffff1660e01b815260040180836001600160a01b031681526020018281526020019250505060206040518083038186803b15801562001d1157600080fd5b505afa15801562001d26573d6000803e3d6000fd5b505050506040513d602081101562001d3d57600080fd5b505162001d88576040805162461bcd60e51b8152602060048201526014602482015273496e73756666696369656e742066756e64696e6760601b604482015290519081900360640190fd5b62001d9262002e8f565b1562001e8e5762001e2a61271062001ab3612904600b60009054906101000a90046001600160a01b03166001600160a01b031663a035b1fe6040518163ffffffff1660e01b815260040160206040518083038186803b15801562001df557600080fd5b505afa15801562001e0a573d6000803e3d6000fd5b505050506040513d602081101562001e2157600080fd5b50519062003730565b84101562001e6a5760405162461bcd60e51b815260040180806020018281038252603c81526020018062004d15603c913960400191505060405180910390fd5b62001e8e60405180606001604052806022815260200162004c436022913962003787565b600b80546001600160a01b0319166001600160a01b038381169190911790915582167f9c00f159b1fa9eaebda7acaf50be0bf3a652277380f907b35cb681bd641a62d38562001edc620020bb565b604080519283526001600160a01b0390911660208301528051918290030190a250505050565b6009546001600160a01b031690565b62001f1b62002e8f565b1562001f69576040805162461bcd60e51b81526020600482015260186024820152772a3432b9329034b99030903832b73234b7339037b33332b960411b604482015290519081900360640190fd5b60115460ff1662001fba576040805162461bcd60e51b8152602060048201526016602482015275436f6e7472616374206973206e6f742061637469766560501b604482015290519081900360640190fd5b806001600160a01b031662001fce6200321e565b6001600160a01b031663ee5554d36040518163ffffffff1660e01b8152600401602060405180830381600087803b1580156200200957600080fd5b505af11580156200201e573d6000803e3d6000fd5b505050506040513d60208110156200203557600080fd5b50516001600160a01b03161462002093576040805162461bcd60e51b815260206004820152601760248201527f496e76616c69642063757272656e637920757064617465000000000000000000604482015290519081900360640190fd5b600c80546001600160a01b0319166001600160a01b0392909216919091179055565b60085481565b600b546001600160a01b031690565b33600090815260056020526040902060010154156200222d5733600081815260056020908152604080832060018101805460038301805484546001600160a01b03199081168655938890556002909401879055918316909155825163a9059cbb60e01b8152600481019690965260248601819052915191946001600160a01b0390911693849363a9059cbb93604480850194929391928390030190829087803b1580156200217757600080fd5b505af11580156200218c573d6000803e3d6000fd5b505050506040513d6020811015620021a357600080fd5b5051620021f4576040805162461bcd60e51b815260206004820152601a60248201527910dbdb1b185d195c985b081d1c985b9cd9995c8819985a5b195960321b604482015290519081900360640190fd5b60408051838152905133917f203627483d943880619f4b7e0cca21dbefd6204b4d85b124eb99540e17ba86dd919081900360200190a250505b565b6200223962002e8f565b801562002248575060115460ff165b62002289576040805162461bcd60e51b8152602060048201526019602482015260008051602062004d51833981519152604482015290519081900360640190fd5b600b60009054906101000a90046001600160a01b03166001600160a01b03166390e64d136040518163ffffffff1660e01b815260040160206040518083038186803b158015620022d857600080fd5b505afa158015620022ed573d6000803e3d6000fd5b505050506040513d60208110156200230457600080fd5b50511562002342576200233c6040518060400160405280600d81526020016c13d999995c88195e1c1a5c9959609a1b81525062003787565b6200222d565b600b60009054906101000a90046001600160a01b03166001600160a01b031663cf42a9276040518163ffffffff1660e01b815260040160206040518083038186803b1580156200239157600080fd5b505afa158015620023a6573d6000803e3d6000fd5b505050506040513d6020811015620023bd57600080fd5b505115620023fa576200233c60405180604001604052806012815260200171139bdd08195b9bdd59da081cdd5c1c1bdc9d60721b81525062003787565b600b546001600160a01b0316639890f824620024156200321e565b620024a062000eca600b60009054906101000a90046001600160a01b03166001600160a01b0316637150d8ae6040518163ffffffff1660e01b815260040160206040518083038186803b1580156200246c57600080fd5b505afa15801562002481573d6000803e3d6000fd5b505050506040513d60208110156200249857600080fd5b505162002589565b6040518363ffffffff1660e01b815260040180836001600160a01b031681526020018281526020019250505060206040518083038186803b158015620024e557600080fd5b505afa158015620024fa573d6000803e3d6000fd5b505050506040513d60208110156200251157600080fd5b50516200253c576200233c60405180606001604052806021815260200162004c876021913962003787565b6040805162461bcd60e51b815260206004820181905260248201527f4163717569736974696f6e20636f6e7465737420756e7375636365737366756c604482015290519081900360640190fd5b6001600160a01b031660009081526020819052604090205490565b600080620025b28362003957565b90508015620025c3579050620010ca565b620025cd62001f02565b6001600160a01b0316836001600160a01b03161415620025f2575050600a54620010ca565b62002650600a546200260362001f02565b6001600160a01b03166377e071ad866040518263ffffffff1660e01b815260040180826001600160a01b0316815260200191505060206040518083038186803b15801562001df557600080fd5b915050620010ca565b60045481565b60066020526000908152604090205460ff1681565b60115460ff16620026c5576040805162461bcd60e51b8152602060048201526016602482015275436f6e7472616374206973206e6f742061637469766560501b604482015290519081900360640190fd5b6000339050620026e961271062001ab3600f54620026e2620010a8565b9062003730565b620026f48262002589565b10156200273d576040805162461bcd60e51b8152602060048201526012602482015271145d5bdc9d5b481b9bdd081c995858da195960721b604482015290519081900360640190fd5b6200274762002e8f565b15620028bc57600b60009054906101000a90046001600160a01b03166001600160a01b031663cf42a9276040518163ffffffff1660e01b815260040160206040518083038186803b1580156200279c57600080fd5b505afa158015620027b1573d6000803e3d6000fd5b505050506040513d6020811015620027c857600080fd5b5051620028a057620027d962001880565b600b60009054906101000a90046001600160a01b03166001600160a01b031663cf42a9276040518163ffffffff1660e01b815260040160206040518083038186803b1580156200282857600080fd5b505afa1580156200283d573d6000803e3d6000fd5b505050506040513d60208110156200285457600080fd5b5051620028a0576040805162461bcd60e51b8152602060048201526015602482015274145d5bdc9d5b481a185cc81b9bdd0819985a5b1959605a1b604482015290519081900360640190fd5b620028aa6200222f565b620028b462002e8f565b15620028bc57fe5b620028ca81826001620034e7565b604080516001600160a01b038316815290517f3b6b79a09e9fd230e8591b65c97236bf7df7a604edf733db0658e66b0e6eb2a99181900360200190a150565b6200291362002e8f565b801562002922575060115460ff165b62002963576040805162461bcd60e51b8152602060048201526019602482015260008051602062004d51833981519152604482015290519081900360640190fd5b600b5433906001600160a01b0316635ff0cf8482620018f98162002589565b6200298c62003ff2565b506001600160a01b038082166000908152600560209081526040918290208251608081018452815485168152600182015492810183905260028201549381019390935260030154909216606082018190529091908162002a24576040805162461bcd60e51b815260206004820152600e60248201526d139bc818db185a5b48199bdd5b9960921b604482015290519081900360640190fd5b82516001600160a01b0316331462002a83576040805162461bcd60e51b815260206004820152601f60248201527f4f6e6c7920636c61696d616e742063616e207265736f6c766520636c61696d00604482015290519081900360640190fd5b4262002a9f60045485604001516200375990919063ffffffff16565b111562002af3576040805162461bcd60e51b815260206004820152601960248201527f436c61696d20706572696f64206e6f74206f7665722079657400000000000000604482015290519081900360640190fd5b82516001600160a01b03808616600090815260056020908152604080832080546001600160a01b031990811682556001820185905560028201859055600390910180549091169055805163a9059cbb60e01b815284861660048201526024810188905290519386169363a9059cbb93604480840194938390030190829087803b15801562002b8057600080fd5b505af115801562002b95573d6000803e3d6000fd5b505050506040513d602081101562002bac57600080fd5b505162002bfd576040805162461bcd60e51b815260206004820152601a60248201527910dbdb1b185d195c985b081d1c985b9cd9995c8819985a5b195960321b604482015290519081900360640190fd5b62002c14858262002c0e8862002589565b6200371e565b806001600160a01b0316856001600160a01b03167f52a5c2b28bc6eb9712d0ced43463103b486b13ccc9cda499fd3b2d7b6a74a8ee856040518082815260200191505060405180910390a35050505050565b600954604080516395d89b4160e01b815290516060926001600160a01b0316916395d89b41916004808301926000929190829003018186803b15801562002cac57600080fd5b505afa15801562002cc1573d6000803e3d6000fd5b505050506040513d6000823e601f3d908101601f19168201604052602081101562002ceb57600080fd5b8101908080516040519392919084600160201b82111562002d0b57600080fd5b90830190602082018581111562002d2157600080fd5b8251600160201b81118282018810171562002d3b57600080fd5b82525081516020918201929091019080838360005b8381101562002d6a57818101518382015260200162002d50565b50505050905090810190601f16801562002d985780820380516001836020036101000a031916815260200191505b506040525050506040516020018080601160fa1b81525060010182805190602001908083836020831062000c515780518252601f19909201916020918201910162000c30565b6001600160a01b031660009081526005602052604090206001015490565b600f5481565b3360008181526001602090815260408083206001600160a01b0387168452909152812054909162000c9f918590620011169086620034d4565b6009546001600160a01b0316331462002e5357600080fd5b62002e5f84846200399e565b50505050565b600062002e73838362003a5a565b5092915050565b600e5481565b600d546001600160a01b031681565b60008062002e9c620020bb565b6001600160a01b03161415905090565b62002eb662002e8f565b1562002f04576040805162461bcd60e51b81526020600482015260186024820152772a3432b9329034b99030903832b73234b7339037b33332b960411b604482015290519081900360640190fd5b600954604080516323b872dd60e01b81523360048201523060248201526044810184905290516001600160a01b03909216916323b872dd916064808201926020929091908290030181600087803b15801562002f5f57600080fd5b505af115801562002f74573d6000803e3d6000fd5b505050506040513d602081101562002f8b57600080fd5b505162002fd7576040805162461bcd60e51b815260206004820152601560248201527414da185c99481d1c985b9cd9995c8819985a5b1959605a1b604482015290519081900360640190fd5b62002fe382826200399e565b5050565b600b546001600160a01b031681565b60056020526000908152604090208054600182015460028301546003909301546001600160a01b039283169391921684565b6012805460408051602060026001851615610100026000190190941693909304601f81018490048402820184019092528181529291830182828015620030b25780601f106200308657610100808354040283529160200191620030b2565b820191906000526020600020905b8154815290600101906020018083116200309457829003601f168201915b505050505081565b6001600160a01b03918216600090815260016020908152604080832093909416825291909152205490565b60115460ff1615620031295760405162461bcd60e51b815260040180806020018281038252603681526020018062004ca86036913960400191505060405180910390fd5b62003135338262003767565b600954600a546001600160a01b039091169063a9059cbb9033906200315c90859062003730565b6040518363ffffffff1660e01b815260040180836001600160a01b0316815260200182815260200192505050602060405180830381600087803b158015620031a357600080fd5b505af1158015620031b8573d6000803e3d6000fd5b505050506040513d6020811015620031cf57600080fd5b50516200321b576040805162461bcd60e51b815260206004820152601560248201527414da185c99481d1c985b9cd9995c8819985a5b1959605a1b604482015290519081900360640190fd5b50565b600c546001600160a01b031690565b6200323762002e8f565b801562003246575060115460ff165b62003287576040805162461bcd60e51b8152602060048201526019602482015260008051602062004d51833981519152604482015290519081900360640190fd5b600b60009054906101000a90046001600160a01b03166001600160a01b0316637150d8ae6040518163ffffffff1660e01b815260040160206040518083038186803b158015620032d657600080fd5b505afa158015620032eb573d6000803e3d6000fd5b505050506040513d60208110156200330257600080fd5b50516001600160a01b031633146200334c5760405162461bcd60e51b815260040180806020018281038252603781526020018062004cde6037913960400191505060405180910390fd5b6200222d6040518060400160405280601281526020017121b0b731b2b63632b210313c90313abcb2b960711b81525062003787565b6001600160a01b031660009081526005602052604090206002015490565b6000620033ab62002e8f565b620033b8576000620033c0565b60115460ff16155b905090565b6001600160a01b031660009081526006602052604090205460ff161590565b6001600160a01b0383166200342b5760405162461bcd60e51b815260040180806020018281038252602481526020018062004de56024913960400191505060405180910390fd5b6001600160a01b038216620034725760405162461bcd60e51b815260040180806020018281038252602281526020018062004c656022913960400191505060405180910390fd5b6001600160a01b03808416600081815260016020908152604080832094871680845294825291829020859055815185815291517f8c5be1e5ebec7d5bd14f71427d1e84f3dd0314c0f7b2291e5b200ac8c7c3b9259281900390910190a3505050565b600082821115620034e157fe5b50900390565b6000620034f48462002589565b9050600062003502620010a8565b6011805460ff1916905590506200351982620030e5565b6000620035278284620034d4565b6009546040805163a9059cbb60e01b81526001600160a01b038a8116600483015260248201859052915193945091169163a9059cbb916044808201926020929091908290030181600087803b1580156200358057600080fd5b505af115801562003595573d6000803e3d6000fd5b505050506040513d6020811015620035ac57600080fd5b505162003600576040805162461bcd60e51b815260206004820152601d60248201527f5772617070656420746f6b656e207472616e73666572206661696c6564000000604482015290519081900360640190fd5b6001600160a01b0385166323b872dd87306200361d888662003730565b6040518463ffffffff1660e01b815260040180846001600160a01b03168152602001836001600160a01b031681526020018281526020019350505050602060405180830381600087803b1580156200367457600080fd5b505af115801562003689573d6000803e3d6000fd5b505050506040513d6020811015620036a057600080fd5b5051620036f4576040805162461bcd60e51b815260206004820152601760248201527f4261636b696e67207472616e73666572206661696c6564000000000000000000604482015290519081900360640190fd5b5050600980546001600160a01b0319166001600160a01b039490941693909317909255600a555050565b6200372b83838362003ab6565b505050565b600082620037415750600062000ca3565b50818102818382816200375057fe5b041462000ca357fe5b8181018281101562000ca357fe5b62002fe3828262003b5e565b60008183816200377f57fe5b049392505050565b600b54604080516338a86c5760e11b815290516000926001600160a01b031691637150d8ae916004808301926020929190829003018186803b158015620037cd57600080fd5b505afa158015620037e2573d6000803e3d6000fd5b505050506040513d6020811015620037f957600080fd5b505190506001600160a01b0381167fc88f58ae9feb0742d9422f604dd3c1be6d02818f8dec340c5061f428b554e9753360008562003836620020bb565b60405180856001600160a01b03168152602001841515815260200180602001836001600160a01b03168152602001828103825284818151815260200191508051906020019080838360005b838110156200389b57818101518382015260200162003881565b50505050905090810190601f168015620038c95780820380516001836020036101000a031916815260200191505b509550505050505060405180910390a2600b60009054906101000a90046001600160a01b03166001600160a01b03166341c0e1b56040518163ffffffff1660e01b8152600401600060405180830381600087803b1580156200392a57600080fd5b505af11580156200393f573d6000803e3d6000fd5b5050600b80546001600160a01b031916905550505050565b60006001600160a01b0382163014156200397457506001620010ca565b6007546001600160a01b0383811691161415620039955750600854620010ca565b506000620010ca565b620039a862002e8f565b15620039f6576040805162461bcd60e51b81526020600482015260186024820152772a3432b9329034b99030903832b73234b7339037b33332b960411b604482015290519081900360640190fd5b60115460ff1662003a4e576040805162461bcd60e51b815260206004820152601d60248201527f436f6e7472616374206e6f742061637469766520616e79206d6f72652e000000604482015290519081900360640190fd5b62002fe3828262003c58565b600062003a68838362003c64565b62003aac576040805162461bcd60e51b815260206004820152600f60248201526e151c985b9cd9995c8819985a5b1959608a1b604482015290519081900360640190fd5b62000c9f620020ca565b62003ac383838362003c73565b62003acd62002e8f565b801562003adc575060115460ff165b156200372b57600b5460408051636240a7d760e11b81526001600160a01b0386811660048301528581166024830152604482018590529151919092169163c4814fae91606480830192600092919082900301818387803b15801562003b4057600080fd5b505af115801562003b55573d6000803e3d6000fd5b50505050505050565b8062003b6a3362002589565b101562003bb5576040805162461bcd60e51b815260206004820152601460248201527310985b185b98d9481a5b9cdd59999a58da595b9d60621b604482015290519081900360640190fd5b62003bc1828262003db1565b62003bcb62002e8f565b801562003bda575060115460ff165b1562002fe357600b5460408051636240a7d760e11b81526001600160a01b03858116600483015260006024830181905260448301869052925193169263c4814fae9260648084019391929182900301818387803b15801562003c3b57600080fd5b505af115801562003c50573d6000803e3d6000fd5b505050505050565b62002fe3828262003e84565b600062000c9f3384846200371e565b6001600160a01b03831662003cba5760405162461bcd60e51b815260040180806020018281038252602581526020018062004d926025913960400191505060405180910390fd5b6001600160a01b03821662003d015760405162461bcd60e51b815260040180806020018281038252602381526020018062004c206023913960400191505060405180910390fd5b6001600160a01b03831660009081526020819052604090205462003d269082620034d4565b6001600160a01b03808516600090815260208190526040808220939093559084168152205462003d57908262003759565b6001600160a01b038084166000818152602081815260409182902094909455805185815290519193928716927fddf252ad1be2c89b69c2b068fc378daa952ba7f163c4a11628f55a4df523b3ef92918290030190a3505050565b6001600160a01b03821662003df85760405162461bcd60e51b815260040180806020018281038252602181526020018062004d716021913960400191505060405180910390fd5b60025462003e079082620034d4565b6002556001600160a01b03821660009081526020819052604090205462003e2f9082620034d4565b6001600160a01b038316600081815260208181526040808320949094558351858152935191937fddf252ad1be2c89b69c2b068fc378daa952ba7f163c4a11628f55a4df523b3ef929081900390910190a35050565b62003e90828262003f09565b62003e9a62002e8f565b801562003ea9575060115460ff165b1562002fe357600b5460408051636240a7d760e11b81526000600482018190526001600160a01b038681166024840152604483018690529251929093169263c4814fae9260648084019382900301818387803b15801562003c3b57600080fd5b6001600160a01b03821662003f65576040805162461bcd60e51b815260206004820152601f60248201527f45524332303a206d696e7420746f20746865207a65726f206164647265737300604482015290519081900360640190fd5b60025462003f74908262003759565b6002556001600160a01b03821660009081526020819052604090205462003f9c908262003759565b6001600160a01b0383166000818152602081815260408083209490945583518581529351929391927fddf252ad1be2c89b69c2b068fc378daa952ba7f163c4a11628f55a4df523b3ef9281900390910190a35050565b604051806080016040528060006001600160a01b03168152602001600081526020016000815260200160006001600160a01b031681525090565b610be5806200403b8339019056fe608060405234801561001057600080fd5b50604051610be5380380610be58339818101604052606081101561003357600080fd5b508051602082015160409092015190919081610096576040805162461bcd60e51b815260206004820152601460248201527f50726963652063616e6e6f74206265207a65726f000000000000000000000000604482015290519081900360640190fd5b600180546001600160a01b03199081163317909155600280546001600160a01b0395909516949091169390931790925560035560005542600455610b06806100df6000396000f3fe608060405234801561001057600080fd5b50600436106101215760003560e01c80639890f824116100ad578063c4814fae11610071578063c4814fae14610282578063cf42a927146102b8578063d7be4e29146102c0578063fa7f1bae146102c8578063fb286c65146102d057610121565b80639890f82414610236578063a035b1fe14610262578063b1610d7e1461026a578063b5b47f4214610272578063b80777ea1461027a57610121565b80634b91562e116100f45780634b91562e1461018c5780635ff0cf84146101b85780637150d8ae146101e45780638f1b4c6f1461020857806390e64d131461022e57610121565b80630c43cd88146101265780631703a0181461014057806341c0e1b514610148578063448ab4c614610152575b600080fd5b61012e6102d8565b60408051918252519081900360200190f35b61012e6102df565b6101506102e5565b005b6101786004803603602081101561016857600080fd5b50356001600160a01b031661033c565b604080519115158252519081900360200190f35b610150600480360360408110156101a257600080fd5b506001600160a01b03813516906020013561036f565b610150600480360360408110156101ce57600080fd5b506001600160a01b038135169060200135610417565b6101ec6104bb565b604080516001600160a01b039092168252519081900360200190f35b6101786004803603602081101561021e57600080fd5b50356001600160a01b03166104ca565b6101786104d3565b6101786004803603604081101561024c57600080fd5b506001600160a01b0381351690602001356104f7565b61012e610633565b61012e610639565b61012e610640565b61012e610646565b6101506004803603606081101561029857600080fd5b506001600160a01b0381358116916020810135909116906040013561064c565b6101786106df565b61017861082a565b6101786108e3565b61012e610907565b6276a70081565b60005481565b6001546001600160a01b0316331461032e5760405162461bcd60e51b8152600401808060200182810382526025815260200180610aac6025913960400191505060405180910390fd5b6002546001600160a01b0316ff5b600060015b6001600160a01b03831660009081526007602052604090205460ff16600281111561036857fe5b1492915050565b6001546001600160a01b031633146103b85760405162461bcd60e51b8152600401808060200182810382526025815260200180610aac6025913960400191505060405180910390fd5b6103c06108e3565b610407576040805162461bcd60e51b81526020600482015260136024820152722a3432903b37ba32903430b99032b73232b21760691b604482015290519081900360640190fd5b6104136002828461090d565b5050565b6001546001600160a01b031633146104605760405162461bcd60e51b8152600401808060200182810382526025815260200180610aac6025913960400191505060405180910390fd5b6104686108e3565b6104af576040805162461bcd60e51b81526020600482015260136024820152722a3432903b37ba32903430b99032b73232b21760691b604482015290519081900360640190fd5b6104136001828461090d565b6002546001600160a01b031681565b60006002610341565b6000806104eb6004544261095390919063ffffffff16565b6276a700109150505b90565b600254604080516370a0823160e01b81526001600160a01b039283166004820152905160009285928492918416916370a0823191602480820192602092909190829003018186803b15801561054b57600080fd5b505afa15801561055f573d6000803e3d6000fd5b505050506040513d602081101561057557600080fd5b505160025460015460408051636eb1769f60e11b81526001600160a01b0393841660048201529183166024830152519293506000929185169163dd62ed3e91604480820192602092909190829003018186803b1580156105d457600080fd5b505afa1580156105e8573d6000803e3d6000fd5b505050506040513d60208110156105fe57600080fd5b5051600354909150600090610614908790610965565b90508281111580156106265750818111155b9450505050505b92915050565b60035481565b624f1a0081565b60055481565b60045481565b6001546001600160a01b031633146106955760405162461bcd60e51b8152600401808060200182810382526025815260200180610aac6025913960400191505060405180910390fd5b61069d6108e3565b156106da576001600160a01b0380841660009081526007602052604080822054928516825290205460ff91821691166106d782828561098a565b50505b505050565b60006106e96108e3565b156107fe57600054600154604080516318160ddd60e01b815290516107f6926001600160a01b0316916318160ddd916004808301926020929190829003018186803b15801561073757600080fd5b505afa15801561074b573d6000803e3d6000fd5b505050506040513d602081101561076157600080fd5b5051600554600154604080516318160ddd60e01b815290516107f093612710936107ea9391926001600160a01b03909116916318160ddd916004808301926020929190829003018186803b1580156107b857600080fd5b505afa1580156107cc573d6000803e3d6000fd5b505050506040513d60208110156107e257600080fd5b505190610953565b90610965565b90610a8b565b1090506104f4565b6000546107f661081b600554600654610a9e90919063ffffffff16565b6006546107f090612710610965565b60006108346108e3565b156108c657600054600154604080516318160ddd60e01b815290516108bd926001600160a01b0316916318160ddd916004808301926020929190829003018186803b15801561088257600080fd5b505afa158015610896573d6000803e3d6000fd5b505050506040513d60208110156108ac57600080fd5b50516006546107f090612710610965565b101590506104f4565b6000546108bd61081b600554600654610a9e90919063ffffffff16565b6000806108fb6004544261095390919063ffffffff16565b624f1a00101591505090565b60065481565b6001600160a01b0381166000908152600760205260409020805460ff811691859182919060ff1916600183600281111561094357fe5b02179055506106d782828661098a565b60008282111561095f57fe5b50900390565b6000826109745750600061062d565b508181028183828161098257fe5b041461062d57fe5b81600281111561099657fe5b8360028111156109a257fe5b146106da5760028360028111156109b557fe5b14156109d0576005546109c89082610953565b6005556109f5565b60018360028111156109de57fe5b14156109f5576006546109f19082610953565b6006555b6002826002811115610a0357fe5b1415610a1e57600554610a169082610a9e565b600555610a43565b6001826002811115610a2c57fe5b1415610a4357600654610a3f9082610a9e565b6006555b7f8fcc50c2c4edd06d51ae66e9e21ed76b32a1766c57f491788e1aa24a1b58c256600654600554604051808381526020018281526020019250505060405180910390a1505050565b6000818381610a9657fe5b049392505050565b8181018281101561062d57fefe43616e206f6e6c792062652063616c6c656420627920706172656e7420636f6e7472616374a2646970667358221220fa3060f939a1fd6494323f23b22f6fbd35fb241606baf5a62fb99dcec82b1cb864736f6c6343000700003345524332303a207472616e7366657220746f20746865207a65726f20616464726573734f6666657220776173207265706c616365642062792061206869676865722062696445524332303a20617070726f766520746f20746865207a65726f20616464726573734f6666657220776173206e6f742073756666696369656e746c792066756e6465644173206c6f6e672061732074686520636f6e7472616374206973206163746976652c20796f752061726520626f756e6420746f206974596f7520617265206e6f7420617574686f72697a656420746f2063616e63656c2074686973206163717569736974696f6e206f666665724e6577206f6666657273206d757374206265206174206c6561737420352520686967686572207468616e207468652070656e64696e67206f666665725468657265206973206e6f2070656e64696e67206f666665720000000000000045524332303a206275726e2066726f6d20746865207a65726f206164647265737345524332303a207472616e736665722066726f6d20746865207a65726f20616464726573735468697320636f6e747261637420646f6573206e6f7420726570726573656e7420656e6f7567682065717569747945524332303a20617070726f76652066726f6d20746865207a65726f2061646472657373596f7520617265206e6f7420617574686f72697a656420746f20636f6d706c6574652074686973206163717569736974696f6e206f66666572596f75206e65656420746f20686f6c64206174206c65617374203525206f6620746865206669726d20746f206d616b6520616e206f66666572a2646970667358221220f13dd342eb2fddeedc7d260cb6411e81be1c2569370734eb098b7a07481e116264736f6c63430007000033",
    "sourcePath": "c:/Users/luziu/Documents/aktionariat/contracts/src/DraggableShares.sol",
    "compiler": {
        "name": "solc",
        "version": "0.7.0+commit.9e61f92b"
    },
    "functionHashes": {
        "acquisitionQuorum()": "3549788a",
        "active()": "02fb0c5e",
        "allowance(address,address)": "dd62ed3e",
        "approve(address,uint256)": "095ea7b3",
        "balanceOf(address)": "70a08231",
        "burn(uint256)": "42966c68",
        "cancelAcquisition()": "e1b8c38e",
        "claimPeriod()": "7dc2cd98",
        "claimingDisabled(address)": "8e0597c1",
        "claims(address)": "c6788bdd",
        "clearClaim()": "6b03ed5f",
        "completeAcquisition()": "141c7068",
        "contestAcquisition()": "6f4b18df",
        "customCollateralAddress()": "0c6f0e5d",
        "customCollateralRate()": "60918117",
        "decimals()": "313ce567",
        "declareLost(address,address)": "26773ddd",
        "decreaseAllowance(address,uint256)": "a457c2d7",
        "deleteClaim(address)": "32a7ae95",
        "getClaimDeleter()": "2a0a4ed5",
        "getClaimant(address)": "1e3b9de5",
        "getCollateral(address)": "9b56d6c9",
        "getCollateralRate(address)": "77e071ad",
        "getCollateralType(address)": "3bcc45ba",
        "getCurrencyContract()": "de494685",
        "getPendingOffer()": "6467c09a",
        "getTimeStamp(address)": "eb470ebf",
        "getWrappedContract()": "58047913",
        "increaseAllowance(address,uint256)": "39509351",
        "initiateAcquisition(uint256)": "4900ca51",
        "isClaimsEnabled(address)": "f66f145a",
        "licenseFee()": "a9d9d0c7",
        "licenseFeeRecipient()": "bb689472",
        "migrate()": "8fd3ab80",
        "migrationQuorum()": "9e8a9a5a",
        "name()": "06fdde03",
        "offer()": "c028df06",
        "offerExists()": "bc1b1e7c",
        "onTokenTransfer(address,uint256,bytes)": "a4c0ed36",
        "resolveClaim(address)": "94d645a8",
        "setClaimable(bool)": "378c93ad",
        "symbol()": "95d89b41",
        "terms()": "d5025625",
        "totalSupply()": "18160ddd",
        "transfer(address,uint256)": "a9059cbb",
        "transferAndCall(address,uint256,bytes)": "4000aea0",
        "transferFrom(address,address,uint256)": "23b872dd",
        "unwrap(uint256)": "de0e9a3e",
        "unwrapConversionFactor()": "0832e470",
        "updateCurrency(address)": "5e027601",
        "voteNo()": "41c12a70",
        "voteYes()": "90cf581c",
        "wasAcquired()": "ec6580e2",
        "wrap(address,uint256)": "bf376c7a"
    },
    "gasEstimates": {
        "creation": {
            "codeDepositCost": "4028800",
            "executionCost": "infinite",
            "totalCost": "infinite"
        },
        "external": {
            "acquisitionQuorum()": "1067",
            "active()": "1057",
            "allowance(address,address)": "1317",
            "approve(address,uint256)": "infinite",
            "balanceOf(address)": "1191",
            "burn(uint256)": "infinite",
            "cancelAcquisition()": "infinite",
            "claimPeriod()": "1088",
            "claimingDisabled(address)": "1248",
            "claims(address)": "3807",
            "clearClaim()": "infinite",
            "completeAcquisition()": "infinite",
            "contestAcquisition()": "infinite",
            "customCollateralAddress()": "1172",
            "customCollateralRate()": "1065",
            "decimals()": "1125",
            "declareLost(address,address)": "infinite",
            "decreaseAllowance(address,uint256)": "infinite",
            "deleteClaim(address)": "infinite",
            "getClaimDeleter()": "infinite",
            "getClaimant(address)": "1269",
            "getCollateral(address)": "1260",
            "getCollateralRate(address)": "infinite",
            "getCollateralType(address)": "1246",
            "getCurrencyContract()": "1148",
            "getPendingOffer()": "1126",
            "getTimeStamp(address)": "1236",
            "getWrappedContract()": "1127",
            "increaseAllowance(address,uint256)": "infinite",
            "initiateAcquisition(uint256)": "infinite",
            "isClaimsEnabled(address)": "1289",
            "licenseFee()": "1066",
            "licenseFeeRecipient()": "1127",
            "migrate()": "infinite",
            "migrationQuorum()": "1065",
            "name()": "infinite",
            "offer()": "1126",
            "offerExists()": "1196",
            "onTokenTransfer(address,uint256,bytes)": "infinite",
            "resolveClaim(address)": "infinite",
            "setClaimable(bool)": "21187",
            "symbol()": "infinite",
            "terms()": "infinite",
            "totalSupply()": "1067",
            "transfer(address,uint256)": "infinite",
            "transferAndCall(address,uint256,bytes)": "infinite",
            "transferFrom(address,address,uint256)": "infinite",
            "unwrap(uint256)": "infinite",
            "unwrapConversionFactor()": "1089",
            "updateCurrency(address)": "infinite",
            "voteNo()": "infinite",
            "voteYes()": "infinite",
            "wasAcquired()": "2056",
            "wrap(address,uint256)": "infinite"
        },
        "internal": {
            "_burn(address,uint256)": "infinite",
            "_mint(address,uint256)": "infinite",
            "_transfer(address,address,uint256)": "infinite"
        }
    }
}