{
    "contractName": "DraggableShares",
    "abi": [
        {
            "inputs": [
                {
                    "internalType": "string",
                    "name": "_terms",
                    "type": "string"
                },
                {
                    "internalType": "address",
                    "name": "offerFactory",
                    "type": "address"
                },
                {
                    "internalType": "address",
                    "name": "wrappedToken",
                    "type": "address"
                },
                {
                    "internalType": "uint256",
                    "name": "quorum",
                    "type": "uint256"
                }
            ],
            "stateMutability": "nonpayable",
            "type": "constructor"
        },
        {
            "anonymous": false,
            "inputs": [
                {
                    "indexed": true,
                    "internalType": "address",
                    "name": "owner",
                    "type": "address"
                },
                {
                    "indexed": true,
                    "internalType": "address",
                    "name": "spender",
                    "type": "address"
                },
                {
                    "indexed": false,
                    "internalType": "uint256",
                    "name": "value",
                    "type": "uint256"
                }
            ],
            "name": "Approval",
            "type": "event"
        },
        {
            "anonymous": false,
            "inputs": [
                {
                    "indexed": true,
                    "internalType": "address",
                    "name": "lostAddress",
                    "type": "address"
                },
                {
                    "indexed": false,
                    "internalType": "uint256",
                    "name": "collateral",
                    "type": "uint256"
                }
            ],
            "name": "ClaimCleared",
            "type": "event"
        },
        {
            "anonymous": false,
            "inputs": [
                {
                    "indexed": true,
                    "internalType": "address",
                    "name": "lostAddress",
                    "type": "address"
                },
                {
                    "indexed": true,
                    "internalType": "address",
                    "name": "claimant",
                    "type": "address"
                },
                {
                    "indexed": false,
                    "internalType": "uint256",
                    "name": "collateral",
                    "type": "uint256"
                }
            ],
            "name": "ClaimDeleted",
            "type": "event"
        },
        {
            "anonymous": false,
            "inputs": [
                {
                    "indexed": true,
                    "internalType": "address",
                    "name": "lostAddress",
                    "type": "address"
                },
                {
                    "indexed": true,
                    "internalType": "address",
                    "name": "claimant",
                    "type": "address"
                },
                {
                    "indexed": false,
                    "internalType": "uint256",
                    "name": "balance",
                    "type": "uint256"
                }
            ],
            "name": "ClaimMade",
            "type": "event"
        },
        {
            "anonymous": false,
            "inputs": [
                {
                    "indexed": false,
                    "internalType": "uint256",
                    "name": "newClaimPeriodInDays",
                    "type": "uint256"
                }
            ],
            "name": "ClaimPeriodChanged",
            "type": "event"
        },
        {
            "anonymous": false,
            "inputs": [
                {
                    "indexed": true,
                    "internalType": "address",
                    "name": "lostAddress",
                    "type": "address"
                },
                {
                    "indexed": true,
                    "internalType": "address",
                    "name": "claimant",
                    "type": "address"
                },
                {
                    "indexed": false,
                    "internalType": "uint256",
                    "name": "collateral",
                    "type": "uint256"
                }
            ],
            "name": "ClaimResolved",
            "type": "event"
        },
        {
            "anonymous": false,
            "inputs": [
                {
                    "indexed": false,
                    "internalType": "address",
                    "name": "newCustomCollateralAddress",
                    "type": "address"
                },
                {
                    "indexed": false,
                    "internalType": "uint256",
                    "name": "newCustomCollareralRate",
                    "type": "uint256"
                }
            ],
            "name": "CustomClaimCollateralChanged",
            "type": "event"
        },
        {
            "anonymous": false,
            "inputs": [
                {
                    "indexed": false,
                    "internalType": "address",
                    "name": "newContractAddress",
                    "type": "address"
                }
            ],
            "name": "MigrationSucceeded",
            "type": "event"
        },
        {
            "anonymous": false,
            "inputs": [
                {
                    "indexed": true,
                    "internalType": "address",
                    "name": "from",
                    "type": "address"
                },
                {
                    "indexed": true,
                    "internalType": "address",
                    "name": "to",
                    "type": "address"
                },
                {
                    "indexed": false,
                    "internalType": "uint256",
                    "name": "value",
                    "type": "uint256"
                }
            ],
            "name": "Transfer",
            "type": "event"
        },
        {
            "inputs": [],
            "name": "VALIDITY_PERIOD",
            "outputs": [
                {
                    "internalType": "uint256",
                    "name": "",
                    "type": "uint256"
                }
            ],
            "stateMutability": "view",
            "type": "function"
        },
        {
            "inputs": [],
            "name": "VOTING_PERIOD",
            "outputs": [
                {
                    "internalType": "uint256",
                    "name": "",
                    "type": "uint256"
                }
            ],
            "stateMutability": "view",
            "type": "function"
        },
        {
            "inputs": [
                {
                    "internalType": "address",
                    "name": "owner",
                    "type": "address"
                },
                {
                    "internalType": "address",
                    "name": "spender",
                    "type": "address"
                }
            ],
            "name": "allowance",
            "outputs": [
                {
                    "internalType": "uint256",
                    "name": "",
                    "type": "uint256"
                }
            ],
            "stateMutability": "view",
            "type": "function"
        },
        {
            "inputs": [
                {
                    "internalType": "address",
                    "name": "spender",
                    "type": "address"
                },
                {
                    "internalType": "uint256",
                    "name": "value",
                    "type": "uint256"
                }
            ],
            "name": "approve",
            "outputs": [
                {
                    "internalType": "bool",
                    "name": "",
                    "type": "bool"
                }
            ],
            "stateMutability": "nonpayable",
            "type": "function"
        },
        {
            "inputs": [
                {
                    "internalType": "address",
                    "name": "account",
                    "type": "address"
                }
            ],
            "name": "balanceOf",
            "outputs": [
                {
                    "internalType": "uint256",
                    "name": "",
                    "type": "uint256"
                }
            ],
            "stateMutability": "view",
            "type": "function"
        },
        {
            "inputs": [
                {
                    "internalType": "uint256",
                    "name": "amount",
                    "type": "uint256"
                }
            ],
            "name": "burn",
            "outputs": [],
            "stateMutability": "nonpayable",
            "type": "function"
        },
        {
            "inputs": [],
            "name": "claimPeriod",
            "outputs": [
                {
                    "internalType": "uint256",
                    "name": "",
                    "type": "uint256"
                }
            ],
            "stateMutability": "view",
            "type": "function"
        },
        {
            "inputs": [
                {
                    "internalType": "address",
                    "name": "",
                    "type": "address"
                }
            ],
            "name": "claims",
            "outputs": [
                {
                    "internalType": "address",
                    "name": "claimant",
                    "type": "address"
                },
                {
                    "internalType": "uint256",
                    "name": "collateral",
                    "type": "uint256"
                },
                {
                    "internalType": "uint256",
                    "name": "timestamp",
                    "type": "uint256"
                },
                {
                    "internalType": "address",
                    "name": "currencyUsed",
                    "type": "address"
                }
            ],
            "stateMutability": "view",
            "type": "function"
        },
        {
            "inputs": [],
            "name": "clearClaim",
            "outputs": [],
            "stateMutability": "nonpayable",
            "type": "function"
        },
        {
            "inputs": [],
            "name": "customCollateralAddress",
            "outputs": [
                {
                    "internalType": "address",
                    "name": "",
                    "type": "address"
                }
            ],
            "stateMutability": "view",
            "type": "function"
        },
        {
            "inputs": [],
            "name": "customCollateralRate",
            "outputs": [
                {
                    "internalType": "uint256",
                    "name": "",
                    "type": "uint256"
                }
            ],
            "stateMutability": "view",
            "type": "function"
        },
        {
            "inputs": [],
            "name": "decimals",
            "outputs": [
                {
                    "internalType": "uint8",
                    "name": "",
                    "type": "uint8"
                }
            ],
            "stateMutability": "view",
            "type": "function"
        },
        {
            "inputs": [
                {
                    "internalType": "address",
                    "name": "collateralType",
                    "type": "address"
                },
                {
                    "internalType": "address",
                    "name": "lostAddress",
                    "type": "address"
                }
            ],
            "name": "declareLost",
            "outputs": [],
            "stateMutability": "nonpayable",
            "type": "function"
        },
        {
            "inputs": [
                {
                    "internalType": "address",
                    "name": "spender",
                    "type": "address"
                },
                {
                    "internalType": "uint256",
                    "name": "subtractedValue",
                    "type": "uint256"
                }
            ],
            "name": "decreaseAllowance",
            "outputs": [
                {
                    "internalType": "bool",
                    "name": "",
                    "type": "bool"
                }
            ],
            "stateMutability": "nonpayable",
            "type": "function"
        },
        {
            "inputs": [
                {
                    "internalType": "address",
                    "name": "lostAddress",
                    "type": "address"
                }
            ],
            "name": "deleteClaim",
            "outputs": [],
            "stateMutability": "nonpayable",
            "type": "function"
        },
        {
            "inputs": [
                {
                    "internalType": "address",
                    "name": "buyer",
                    "type": "address"
                },
                {
                    "internalType": "address",
                    "name": "currency",
                    "type": "address"
                }
            ],
            "name": "drag",
            "outputs": [],
            "stateMutability": "nonpayable",
            "type": "function"
        },
        {
            "inputs": [],
            "name": "factory",
            "outputs": [
                {
                    "internalType": "contract IOfferFactory",
                    "name": "",
                    "type": "address"
                }
            ],
            "stateMutability": "view",
            "type": "function"
        },
        {
            "inputs": [],
            "name": "getClaimDeleter",
            "outputs": [
                {
                    "internalType": "address",
                    "name": "",
                    "type": "address"
                }
            ],
            "stateMutability": "view",
            "type": "function"
        },
        {
            "inputs": [
                {
                    "internalType": "address",
                    "name": "lostAddress",
                    "type": "address"
                }
            ],
            "name": "getClaimant",
            "outputs": [
                {
                    "internalType": "address",
                    "name": "",
                    "type": "address"
                }
            ],
            "stateMutability": "view",
            "type": "function"
        },
        {
            "inputs": [
                {
                    "internalType": "address",
                    "name": "lostAddress",
                    "type": "address"
                }
            ],
            "name": "getCollateral",
            "outputs": [
                {
                    "internalType": "uint256",
                    "name": "",
                    "type": "uint256"
                }
            ],
            "stateMutability": "view",
            "type": "function"
        },
        {
            "inputs": [
                {
                    "internalType": "address",
                    "name": "collateralType",
                    "type": "address"
                }
            ],
            "name": "getCollateralRate",
            "outputs": [
                {
                    "internalType": "uint256",
                    "name": "",
                    "type": "uint256"
                }
            ],
            "stateMutability": "view",
            "type": "function"
        },
        {
            "inputs": [
                {
                    "internalType": "address",
                    "name": "lostAddress",
                    "type": "address"
                }
            ],
            "name": "getCollateralType",
            "outputs": [
                {
                    "internalType": "address",
                    "name": "",
                    "type": "address"
                }
            ],
            "stateMutability": "view",
            "type": "function"
        },
        {
            "inputs": [
                {
                    "internalType": "address",
                    "name": "lostAddress",
                    "type": "address"
                }
            ],
            "name": "getTimeStamp",
            "outputs": [
                {
                    "internalType": "uint256",
                    "name": "",
                    "type": "uint256"
                }
            ],
            "stateMutability": "view",
            "type": "function"
        },
        {
            "inputs": [
                {
                    "internalType": "address",
                    "name": "spender",
                    "type": "address"
                },
                {
                    "internalType": "uint256",
                    "name": "addedValue",
                    "type": "uint256"
                }
            ],
            "name": "increaseAllowance",
            "outputs": [
                {
                    "internalType": "bool",
                    "name": "",
                    "type": "bool"
                }
            ],
            "stateMutability": "nonpayable",
            "type": "function"
        },
        {
            "inputs": [],
            "name": "isBinding",
            "outputs": [
                {
                    "internalType": "bool",
                    "name": "",
                    "type": "bool"
                }
            ],
            "stateMutability": "view",
            "type": "function"
        },
        {
            "inputs": [
                {
                    "internalType": "address",
                    "name": "target",
                    "type": "address"
                }
            ],
            "name": "isRecoveryEnabled",
            "outputs": [
                {
                    "internalType": "bool",
                    "name": "",
                    "type": "bool"
                }
            ],
            "stateMutability": "view",
            "type": "function"
        },
        {
            "inputs": [
                {
                    "internalType": "bytes32",
                    "name": "salt",
                    "type": "bytes32"
                },
                {
                    "internalType": "uint256",
                    "name": "pricePerShare",
                    "type": "uint256"
                },
                {
                    "internalType": "address",
                    "name": "currency",
                    "type": "address"
                }
            ],
            "name": "makeAcquisitionOffer",
            "outputs": [],
            "stateMutability": "payable",
            "type": "function"
        },
        {
            "inputs": [],
            "name": "migrate",
            "outputs": [],
            "stateMutability": "nonpayable",
            "type": "function"
        },
        {
            "inputs": [],
            "name": "name",
            "outputs": [
                {
                    "internalType": "string",
                    "name": "",
                    "type": "string"
                }
            ],
            "stateMutability": "view",
            "type": "function"
        },
        {
            "inputs": [],
            "name": "notifyOfferEnded",
            "outputs": [],
            "stateMutability": "nonpayable",
            "type": "function"
        },
        {
            "inputs": [],
            "name": "offer",
            "outputs": [
                {
                    "internalType": "contract IOffer",
                    "name": "",
                    "type": "address"
                }
            ],
            "stateMutability": "view",
            "type": "function"
        },
        {
            "inputs": [
                {
                    "internalType": "address",
                    "name": "from",
                    "type": "address"
                },
                {
                    "internalType": "uint256",
                    "name": "amount",
                    "type": "uint256"
                },
                {
                    "internalType": "bytes",
                    "name": "",
                    "type": "bytes"
                }
            ],
            "name": "onTokenTransfer",
            "outputs": [],
            "stateMutability": "nonpayable",
            "type": "function"
        },
        {
            "inputs": [],
            "name": "quorum",
            "outputs": [
                {
                    "internalType": "uint256",
                    "name": "",
                    "type": "uint256"
                }
            ],
            "stateMutability": "view",
            "type": "function"
        },
        {
            "inputs": [
                {
                    "internalType": "address",
                    "name": "lostAddress",
                    "type": "address"
                }
            ],
            "name": "recover",
            "outputs": [],
            "stateMutability": "nonpayable",
            "type": "function"
        },
        {
            "inputs": [
                {
                    "internalType": "address",
                    "name": "",
                    "type": "address"
                }
            ],
            "name": "recoveryDisabled",
            "outputs": [
                {
                    "internalType": "bool",
                    "name": "",
                    "type": "bool"
                }
            ],
            "stateMutability": "view",
            "type": "function"
        },
        {
            "inputs": [
                {
                    "internalType": "bool",
                    "name": "enabled",
                    "type": "bool"
                }
            ],
            "name": "setRecoverable",
            "outputs": [],
            "stateMutability": "nonpayable",
            "type": "function"
        },
        {
            "inputs": [],
            "name": "symbol",
            "outputs": [
                {
                    "internalType": "string",
                    "name": "",
                    "type": "string"
                }
            ],
            "stateMutability": "view",
            "type": "function"
        },
        {
            "inputs": [],
            "name": "terms",
            "outputs": [
                {
                    "internalType": "string",
                    "name": "",
                    "type": "string"
                }
            ],
            "stateMutability": "view",
            "type": "function"
        },
        {
            "inputs": [],
            "name": "totalSupply",
            "outputs": [
                {
                    "internalType": "uint256",
                    "name": "",
                    "type": "uint256"
                }
            ],
            "stateMutability": "view",
            "type": "function"
        },
        {
            "inputs": [
                {
                    "internalType": "address",
                    "name": "to",
                    "type": "address"
                },
                {
                    "internalType": "uint256",
                    "name": "value",
                    "type": "uint256"
                }
            ],
            "name": "transfer",
            "outputs": [
                {
                    "internalType": "bool",
                    "name": "",
                    "type": "bool"
                }
            ],
            "stateMutability": "nonpayable",
            "type": "function"
        },
        {
            "inputs": [
                {
                    "internalType": "address",
                    "name": "recipient",
                    "type": "address"
                },
                {
                    "internalType": "uint256",
                    "name": "amount",
                    "type": "uint256"
                },
                {
                    "internalType": "bytes",
                    "name": "data",
                    "type": "bytes"
                }
            ],
            "name": "transferAndCall",
            "outputs": [
                {
                    "internalType": "bool",
                    "name": "",
                    "type": "bool"
                }
            ],
            "stateMutability": "nonpayable",
            "type": "function"
        },
        {
            "inputs": [
                {
                    "internalType": "address",
                    "name": "sender",
                    "type": "address"
                },
                {
                    "internalType": "address",
                    "name": "recipient",
                    "type": "address"
                },
                {
                    "internalType": "uint256",
                    "name": "amount",
                    "type": "uint256"
                }
            ],
            "name": "transferFrom",
            "outputs": [
                {
                    "internalType": "bool",
                    "name": "",
                    "type": "bool"
                }
            ],
            "stateMutability": "nonpayable",
            "type": "function"
        },
        {
            "inputs": [
                {
                    "internalType": "uint256",
                    "name": "amount",
                    "type": "uint256"
                }
            ],
            "name": "unwrap",
            "outputs": [],
            "stateMutability": "nonpayable",
            "type": "function"
        },
        {
            "inputs": [],
            "name": "unwrapConversionFactor",
            "outputs": [
                {
                    "internalType": "uint256",
                    "name": "",
                    "type": "uint256"
                }
            ],
            "stateMutability": "view",
            "type": "function"
        },
        {
            "inputs": [
                {
                    "internalType": "address",
                    "name": "shareholder",
                    "type": "address"
                },
                {
                    "internalType": "uint256",
                    "name": "amount",
                    "type": "uint256"
                }
            ],
            "name": "wrap",
            "outputs": [],
            "stateMutability": "nonpayable",
            "type": "function"
        },
        {
            "inputs": [],
            "name": "wrapped",
            "outputs": [
                {
                    "internalType": "contract IERC20",
                    "name": "",
                    "type": "address"
                }
            ],
            "stateMutability": "view",
            "type": "function"
        }
    ],
    "bytecode": "608060405262ed4e006004556000600b553480156200001d57600080fd5b50604051620029c7380380620029c78339810160408190526200004091620001b8565b6003805460ff19169055600a80546001600160a01b038086166001600160a01b031992831617909255600980549285169290911682179055600d829055604051636427ed9760e01b8152636427ed9790620000a190600090600401620002b6565b600060405180830381600087803b158015620000bc57600080fd5b505af1158015620000d1573d6000803e3d6000fd5b50508551620000ea9250600e91506020870190620000f5565b505050505062000314565b8280546200010390620002c1565b90600052602060002090601f01602090048101928262000127576000855562000172565b82601f106200014257805160ff191683800117855562000172565b8280016001018555821562000172579182015b828111156200017257825182559160200191906001019062000155565b506200018092915062000184565b5090565b5b8082111562000180576000815560010162000185565b80516001600160a01b0381168114620001b357600080fd5b919050565b60008060008060808587031215620001ce578384fd5b84516001600160401b0380821115620001e5578586fd5b818701915087601f830112620001f9578586fd5b8151818111156200020e576200020e620002fe565b6040516020601f8301601f1916820181018481118382101715620002365762000236620002fe565b60405282825284830181018b10156200024d578889fd5b8893505b8284101562000270578484018101518285018201529283019262000251565b828411156200028157888184840101525b81985062000291818b016200019b565b97505050505050620002a6604086016200019b565b6060959095015193969295505050565b901515815260200190565b600281046001821680620002d657607f821691505b60208210811415620002f857634e487b7160e01b600052602260045260246000fd5b50919050565b634e487b7160e01b600052604160045260246000fd5b6126a380620003246000396000f3fe60806040526004361061027d5760003560e01c806370a082311161014f578063b1610d7e116100c1578063d50256251161007a578063d50256251461070d578063dcc7d4ad14610722578063dd62ed3e14610735578063de0e9a3e14610755578063eb470ebf14610775578063fcb79a7e146107955761027d565b8063b1610d7e1461065e578063b40e80d114610673578063bf376c7a14610693578063c028df06146106b3578063c45a0155146106c8578063c6788bdd146106dd5761027d565b80639b56d6c9116101135780639b56d6c9146105a95780639e4b5745146105c9578063a3ec1883146105de578063a457c2d7146105fe578063a4c0ed361461061e578063a9059cbb1461063e5761027d565b806370a082311461052a57806377e071ad1461054a5780637dc2cd981461056a5780638fd3ab801461057f57806395d89b41146105945761027d565b80632a0a4ed5116101f35780634000aea0116101ac5780634000aea01461048b57806342966c68146104ab57806350e70d48146104cb57806360918117146104e05780636427ed97146104f55780636b03ed5f146105155761027d565b80632a0a4ed5146103df578063313ce567146103f457806332a7ae951461041657806332bc320b14610436578063395093511461044b5780633bcc45ba1461046b5761027d565b80630cd865ec116102455780630cd865ec146103335780631703a0181461035557806318160ddd1461036a5780631e3b9de51461037f57806323b872dd1461039f57806326773ddd146103bf5761027d565b806306fdde03146102825780630832e470146102ad578063095ea7b3146102cf5780630c43cd88146102fc5780630c6f0e5d14610311575b600080fd5b34801561028e57600080fd5b506102976107b5565b6040516102a491906122d9565b60405180910390f35b3480156102b957600080fd5b506102c261085a565b6040516102a49190612538565b3480156102db57600080fd5b506102ef6102ea366004611f7e565b610860565b6040516102a4919061228f565b34801561030857600080fd5b506102c2610876565b34801561031d57600080fd5b5061032661087d565b6040516102a491906121cb565b34801561033f57600080fd5b5061035361034e366004611ece565b61088c565b005b34801561036157600080fd5b506102c2610a9d565b34801561037657600080fd5b506102c2610aa3565b34801561038b57600080fd5b5061032661039a366004611ece565b610aa9565b3480156103ab57600080fd5b506102ef6103ba366004611f3e565b610aca565b3480156103cb57600080fd5b506103536103da366004611f06565b610b1c565b3480156103eb57600080fd5b50610326610d3a565b34801561040057600080fd5b50610409610dbc565b6040516102a49190612541565b34801561042257600080fd5b50610353610431366004611ece565b610dc5565b34801561044257600080fd5b50610353610fa0565b34801561045757600080fd5b506102ef610466366004611f7e565b610fc6565b34801561047757600080fd5b50610326610486366004611ece565b610ffd565b34801561049757600080fd5b506102ef6104a6366004611fa9565b61101e565b3480156104b757600080fd5b506103536104c6366004612140565b6110a1565b3480156104d757600080fd5b50610326611134565b3480156104ec57600080fd5b506102c2611143565b34801561050157600080fd5b5061035361051036600461202d565b611149565b34801561052157600080fd5b50610353611168565b34801561053657600080fd5b506102c2610545366004611ece565b6112a3565b34801561055657600080fd5b506102c2610565366004611ece565b6112be565b34801561057657600080fd5b506102c2611394565b34801561058b57600080fd5b5061035361139a565b3480156105a057600080fd5b50610297611438565b3480156105b557600080fd5b506102c26105c4366004611ece565b6114c9565b3480156105d557600080fd5b506102ef6114e7565b3480156105ea57600080fd5b506102ef6105f9366004611ece565b6114ee565b34801561060a57600080fd5b506102ef610619366004611f7e565b61150d565b34801561062a57600080fd5b50610353610639366004611fa9565b611544565b34801561064a57600080fd5b506102ef610659366004611f7e565b61156b565b34801561066a57600080fd5b506102c261157e565b34801561067f57600080fd5b506102ef61068e366004611ece565b611585565b34801561069f57600080fd5b506103536106ae366004611f7e565b61159a565b3480156106bf57600080fd5b50610326611637565b3480156106d457600080fd5b50610326611646565b3480156106e957600080fd5b506106fd6106f8366004611ece565b611655565b6040516102a49493929190612264565b34801561071957600080fd5b50610297611687565b610353610730366004612065565b611715565b34801561074157600080fd5b506102c2610750366004611f06565b611855565b34801561076157600080fd5b50610353610770366004612140565b611880565b34801561078157600080fd5b506102c2610790366004611ece565b6118a2565b3480156107a157600080fd5b506103536107b0366004611f06565b6118c0565b600954604080516306fdde0360e01b815290516060926001600160a01b0316916306fdde03916004808301926000929190829003018186803b1580156107fa57600080fd5b505afa15801561080e573d6000803e3d6000fd5b505050506040513d6000823e601f3d908101601f19168201604052610836919081019061209d565b6040516020016108469190612199565b604051602081830303815290604052905090565b600b5481565b600061086d3384846118f5565b50600192915050565b6276a70081565b6007546001600160a01b031681565b6001600160a01b03808216600090815260056020908152604091829020825160808101845281548516815260018201549281018390526002820154938101939093526003015490921660608201819052909190816109055760405162461bcd60e51b81526004016108fc906123d3565b60405180910390fd5b82516001600160a01b0316331461092e5760405162461bcd60e51b81526004016108fc9061230c565b426004548460400151610941919061254f565b111561095f5760405162461bcd60e51b81526004016108fc90612343565b82516001600160a01b0380861660009081526005602052604080822080546001600160a01b0319908116825560018201849055600282019390935560030180549092169091555163a9059cbb60e01b81529083169063a9059cbb906109ca9084908790600401612203565b602060405180830381600087803b1580156109e457600080fd5b505af11580156109f8573d6000803e3d6000fd5b505050506040513d601f19601f82011682018060405250810190610a1c9190612049565b610a385760405162461bcd60e51b81526004016108fc906123fb565b610a4b8582610a46886112a3565b611950565b806001600160a01b0316856001600160a01b03167f52a5c2b28bc6eb9712d0ced43463103b486b13ccc9cda499fd3b2d7b6a74a8ee85604051610a8e9190612538565b60405180910390a35050505050565b600d5481565b60025490565b6001600160a01b03808216600090815260056020526040902054165b919050565b6000610ad7848484611950565b6001600160a01b038416600090815260016020908152604080832033808552925290912054610b12918691610b0d9086906125a6565b6118f5565b5060019392505050565b610b25816114ee565b610b415760405162461bcd60e51b81526004016108fc90612432565b6000610b4c836112be565b905060008111610b6e5760405162461bcd60e51b81526004016108fc906123a3565b336000610b7a846112a3565b90506000610b888483612587565b90508582610ba85760405162461bcd60e51b81526004016108fc906124ca565b6001600160a01b03861660009081526005602052604090206001015415610be15760405162461bcd60e51b81526004016108fc90612467565b6040516323b872dd60e01b81526001600160a01b038216906323b872dd90610c11908790309087906004016121df565b602060405180830381600087803b158015610c2b57600080fd5b505af1158015610c3f573d6000803e3d6000fd5b505050506040513d601f19601f82011682018060405250810190610c639190612049565b610c7f5760405162461bcd60e51b81526004016108fc906123fb565b604080516080810182526001600160a01b038087168083526020808401878152428587019081528d8516606087019081528d86166000818152600590955293889020965187549087166001600160a01b0319918216178855925160018801559051600287015551600390950180549590941694169390931790915591517f1982ca8958fc8a8176cb52be509260f4bc5af7ce04e1533711793f1c56dd535990610d29908790612538565b60405180910390a350505050505050565b60095460408051632a0a4ed560e01b815290516000926001600160a01b031691632a0a4ed5916004808301926020929190829003018186803b158015610d7f57600080fd5b505afa158015610d93573d6000803e3d6000fd5b505050506040513d601f19601f82011682018060405250810190610db79190611eea565b905090565b60035460ff1681565b610dcd610d3a565b6001600160a01b0316336001600160a01b031614610dfd5760405162461bcd60e51b81526004016108fc90612501565b6001600160a01b038082166000908152600560209081526040918290208251608081018452815485168152600182015492810183905260028201549381019390935260030154909216606082018190529091610e6b5760405162461bcd60e51b81526004016108fc906123d3565b6001600160a01b03808416600090815260056020908152604080832080546001600160a01b031990811682556001820185905560028201949094556003018054909316909255845190850151915163a9059cbb60e01b81529284169263a9059cbb92610eda9291600401612203565b602060405180830381600087803b158015610ef457600080fd5b505af1158015610f08573d6000803e3d6000fd5b505050506040513d601f19601f82011682018060405250810190610f2c9190612049565b610f485760405162461bcd60e51b81526004016108fc906123fb565b81600001516001600160a01b0316836001600160a01b03167fbb036e629a9f4c0897ee5d48440dfdb36f7e772117723a2ed603a6514244c2d58460200151604051610f939190612538565b60405180910390a3505050565b600c546001600160a01b0316331415610fc457600c80546001600160a01b03191690555b565b3360008181526001602090815260408083206001600160a01b0387168452909152812054909161086d918590610b0d90869061254f565b6001600160a01b039081166000908152600560205260409020600301541690565b60008061102b868661156b565b9050801561109857604051635260769b60e11b81526001600160a01b0387169063a4c0ed369061106590339089908990899060040161221c565b600060405180830381600087803b15801561107f57600080fd5b505af1158015611093573d6000803e3d6000fd5b505050505b95945050505050565b6110ab3382611a0d565b60006110b56114e7565b6110c157600b546110c4565b60015b6009549091506001600160a01b03166342966c686110e28385612587565b6040518263ffffffff1660e01b81526004016110fe9190612538565b600060405180830381600087803b15801561111857600080fd5b505af115801561112c573d6000803e3d6000fd5b505050505050565b6009546001600160a01b031681565b60085481565b336000908152600660205260409020805460ff19169115919091179055565b3360009081526005602052604090206001015415610fc4573360008181526005602052604080822060018101805460038301805484546001600160a01b0319908116865593879055600290940195909555908216909355905163a9059cbb60e01b815291926001600160a01b0390911691829163a9059cbb916111f091908690600401612203565b602060405180830381600087803b15801561120a57600080fd5b505af115801561121e573d6000803e3d6000fd5b505050506040513d601f19601f820116820180604052508101906112429190612049565b61125e5760405162461bcd60e51b81526004016108fc906123fb565b336001600160a01b03167f203627483d943880619f4b7e0cca21dbefd6204b4d85b124eb99540e17ba86dd836040516112979190612538565b60405180910390a25050565b6001600160a01b031660009081526020819052604090205490565b6000806112ca83611aa7565b905080156112d9579050610ac5565b6009546001600160a01b03848116911614156112f9575050600b54610ac5565b600b546009546040516377e071ad60e01b81526001600160a01b03909116906377e071ad9061132c9087906004016121cb565b60206040518083038186803b15801561134457600080fd5b505afa158015611358573d6000803e3d6000fd5b505050506040513d601f19601f8201168201806040525081019061137c9190612158565b6113869190612587565b915050610ac5565b50919050565b60045481565b336113a3611ae9565b156113ad57600080fd5b6113b5610aa3565b6113c190611f40612587565b6113ca826112a3565b6113d690612710612587565b10156113f45760405162461bcd60e51b81526004016108fc9061249e565b6113fe8182611afa565b7f3b6b79a09e9fd230e8591b65c97236bf7df7a604edf733db0658e66b0e6eb2a98160405161142d91906121cb565b60405180910390a150565b600954604080516395d89b4160e01b815290516060926001600160a01b0316916395d89b41916004808301926000929190829003018186803b15801561147d57600080fd5b505afa158015611491573d6000803e3d6000fd5b505050506040513d6000823e601f3d908101601f191682016040526114b9919081019061209d565b6040516020016108469190612170565b6001600160a01b031660009081526005602052604090206001015490565b600b541590565b6001600160a01b031660009081526006602052604090205460ff161590565b3360008181526001602090815260408083206001600160a01b0387168452909152812054909161086d918590610b0d9086906125a6565b6009546001600160a01b0316331461155b57600080fd5b6115658484611cc2565b50505050565b60006115778383611d63565b9392505050565b624f1a0081565b60066020526000908152604090205460ff1681565b6009546040516323b872dd60e01b81526001600160a01b03909116906323b872dd906115ce903390309086906004016121df565b602060405180830381600087803b1580156115e857600080fd5b505af11580156115fc573d6000803e3d6000fd5b505050506040513d601f19601f820116820180604052508101906116209190612049565b61162957600080fd5b6116338282611cc2565b5050565b600c546001600160a01b031681565b600a546001600160a01b031681565b60056020526000908152604090208054600182015460028301546003909301546001600160a01b039283169391921684565b600e8054611694906125e9565b80601f01602080910402602001604051908101604052809291908181526020018280546116c0906125e9565b801561170d5780601f106116e25761010080835404028352916020019161170d565b820191906000526020600020905b8154815290600101906020018083116116f057829003601f168201915b505050505081565b61171d6114e7565b61172657600080fd5b600a54600d5460405163eb57ed7b60e01b81526000926001600160a01b03169163eb57ed7b91349161176c91899133918a918a91624f1a00906276a7009060040161229a565b6020604051808303818588803b15801561178557600080fd5b505af1158015611799573d6000803e3d6000fd5b50505050506040513d601f19601f820116820180604052508101906117be9190611eea565b90506117c8611ae9565b1561183057600c546040516306a169ed60e01b81526001600160a01b03909116906306a169ed906117fd9084906004016121cb565b600060405180830381600087803b15801561181757600080fd5b505af115801561182b573d6000803e3d6000fd5b505050505b600c80546001600160a01b0319166001600160a01b0392909216919091179055505050565b6001600160a01b03918216600090815260016020908152604080832093909416825291909152205490565b6118886114e7565b1561189257600080fd5b61189f3382600b54611d93565b50565b6001600160a01b031660009081526005602052604090206002015490565b600c546001600160a01b031633146118d757600080fd5b6118eb826118e4846112a3565b6001611d93565b6116338183611afa565b6001600160a01b0380841660008181526001602090815260408083209487168084529490915290819020849055517f8c5be1e5ebec7d5bd14f71427d1e84f3dd0314c0f7b2291e5b200ac8c7c3b92590610f93908590612538565b6001600160a01b03821661196357600080fd5b61196e838383611e36565b6001600160a01b038316600090815260208190526040812080548392906119969084906125a6565b90915550506001600160a01b038216600090815260208190526040812080548392906119c390849061254f565b92505081905550816001600160a01b0316836001600160a01b03167fddf252ad1be2c89b69c2b068fc378daa952ba7f163c4a11628f55a4df523b3ef83604051610f939190612538565b611a1982600083611e36565b8060026000828254611a2b91906125a6565b90915550506001600160a01b03821660009081526020819052604081208054839290611a589084906125a6565b90915550506040516000906001600160a01b038416907fddf252ad1be2c89b69c2b068fc378daa952ba7f163c4a11628f55a4df523b3ef90611a9b908590612538565b60405180910390a35050565b60006001600160a01b038216301415611ac257506001610ac5565b6007546001600160a01b0383811691161415611ae15750600854610ac5565b506000610ac5565b600c546001600160a01b0316151590565b611b026114e7565b611b0b57600080fd5b6009546040516370a0823160e01b81526001600160a01b039091169063a9059cbb90839083906370a0823190611b459030906004016121cb565b60206040518083038186803b158015611b5d57600080fd5b505afa158015611b71573d6000803e3d6000fd5b505050506040513d601f19601f82011682018060405250810190611b959190612158565b6040518363ffffffff1660e01b8152600401611bb2929190612203565b602060405180830381600087803b158015611bcc57600080fd5b505af1158015611be0573d6000803e3d6000fd5b505050506040513d601f19601f82011682018060405250810190611c049190612049565b611c0d57600080fd5b600980546001600160a01b0319166001600160a01b038416179055611633611c33610aa3565b6009546040516370a0823160e01b81526001600160a01b03909116906370a0823190611c639030906004016121cb565b60206040518083038186803b158015611c7b57600080fd5b505afa158015611c8f573d6000803e3d6000fd5b505050506040513d601f19601f82011682018060405250810190611cb39190612158565b611cbd9190612567565b611eae565b6001600160a01b038216611cd557600080fd5b611ce160008383611e36565b8060026000828254611cf3919061254f565b90915550506001600160a01b03821660009081526020819052604081208054839290611d2090849061254f565b90915550506040516001600160a01b038316906000907fddf252ad1be2c89b69c2b068fc378daa952ba7f163c4a11628f55a4df523b3ef90611a9b908590612538565b6000611d6f8383611ec1565b611d8b5760405162461bcd60e51b81526004016108fc9061237a565b61086d611168565b611d9d8383611a0d565b6009546001600160a01b031663a9059cbb84611db98486612587565b6040518363ffffffff1660e01b8152600401611dd6929190612203565b602060405180830381600087803b158015611df057600080fd5b505af1158015611e04573d6000803e3d6000fd5b505050506040513d601f19601f82011682018060405250810190611e289190612049565b611e3157600080fd5b505050565b611e3e611ae9565b15611e3157600c5460405163e1a1810f60e01b81526001600160a01b039091169063e1a1810f90611e77908690869086906004016121df565b600060405180830381600087803b158015611e9157600080fd5b505af1158015611ea5573d6000803e3d6000fd5b50505050505050565b6001811015611ebc57600080fd5b600b55565b600061086d338484611950565b600060208284031215611edf578081fd5b81356115778161264a565b600060208284031215611efb578081fd5b81516115778161264a565b60008060408385031215611f18578081fd5b8235611f238161264a565b91506020830135611f338161264a565b809150509250929050565b600080600060608486031215611f52578081fd5b8335611f5d8161264a565b92506020840135611f6d8161264a565b929592945050506040919091013590565b60008060408385031215611f90578182fd5b8235611f9b8161264a565b946020939093013593505050565b60008060008060608587031215611fbe578081fd5b8435611fc98161264a565b935060208501359250604085013567ffffffffffffffff80821115611fec578283fd5b818701915087601f830112611fff578283fd5b81358181111561200d578384fd5b88602082850101111561201e578384fd5b95989497505060200194505050565b60006020828403121561203e578081fd5b81356115778161265f565b60006020828403121561205a578081fd5b81516115778161265f565b600080600060608486031215612079578283fd5b833592506020840135915060408401356120928161264a565b809150509250925092565b6000602082840312156120ae578081fd5b815167ffffffffffffffff808211156120c5578283fd5b818401915084601f8301126120d8578283fd5b8151818111156120ea576120ea612634565b604051601f8201601f19168101602001838111828210171561210e5761210e612634565b604052818152838201602001871015612125578485fd5b6121368260208301602087016125bd565b9695505050505050565b600060208284031215612151578081fd5b5035919050565b600060208284031215612169578081fd5b5051919050565b6000601160fa1b8252825161218c8160018501602087016125bd565b9190910160010192915050565b6000690223930b3b3b0b13632960b51b825282516121be81600a8501602087016125bd565b91909101600a0192915050565b6001600160a01b0391909116815260200190565b6001600160a01b039384168152919092166020820152604081019190915260600190565b6001600160a01b03929092168252602082015260400190565b6001600160a01b0385168152602081018490526060604082018190528101829052600082846080840137818301608090810191909152601f909201601f191601019392505050565b6001600160a01b03948516815260208101939093526040830191909152909116606082015260800190565b901515815260200190565b9687526001600160a01b0395861660208801526040870194909452919093166060850152608084019290925260a083019190915260c082015260e00190565b60006020825282518060208401526122f88160408501602087016125bd565b601f01601f19169190910160400192915050565b6020808252601f908201527f4f6e6c7920636c61696d616e742063616e207265736f6c766520636c61696d00604082015260600190565b60208082526019908201527f436c61696d20706572696f64206e6f74206f7665722079657400000000000000604082015260600190565b6020808252600f908201526e151c985b9cd9995c8819985a5b1959608a1b604082015260600190565b602080825260169082015275155b9cdd5c1c1bdc9d19590818dbdb1b185d195c985b60521b604082015260600190565b6020808252600e908201526d139bc818db185a5b48199bdd5b9960921b604082015260600190565b6020808252601a908201527f436f6c6c61746572616c207472616e73666572206661696c6564000000000000604082015260600190565b6020808252818101527f436c61696d732064697361626c656420666f7220746869732061646472657373604082015260600190565b60208082526017908201527f4164647265737320616c726561647920636c61696d6564000000000000000000604082015260600190565b602080825260129082015271145d5bdc9d5b481b9bdd081c995858da195960721b604082015260600190565b6020808252601f908201527f436c61696d6564206164647265737320686f6c6473206e6f2073686172657300604082015260600190565b60208082526018908201527f596f752063616e6e6f742064656c65746520636c61696d730000000000000000604082015260600190565b90815260200190565b60ff91909116815260200190565b600082198211156125625761256261261e565b500190565b60008261258257634e487b7160e01b81526012600452602481fd5b500490565b60008160001904831182151516156125a1576125a161261e565b500290565b6000828210156125b8576125b861261e565b500390565b60005b838110156125d85781810151838201526020016125c0565b838111156115655750506000910152565b6002810460018216806125fd57607f821691505b6020821081141561138e57634e487b7160e01b600052602260045260246000fd5b634e487b7160e01b600052601160045260246000fd5b634e487b7160e01b600052604160045260246000fd5b6001600160a01b038116811461189f57600080fd5b801515811461189f57600080fdfea2646970667358221220cca81f1a137c75e4f8220dce06a218f9aada80c95d3dc9f0fe351981533be45964736f6c63430008000033",
    "sourcePath": "c:/Users/luziu/Documents/aktionariat/contracts/src/DraggableShares.sol",
    "compiler": {
        "name": "solc",
        "version": "0.8.0+commit.c7dfd78e"
    },
    "functionHashes": {
        "VALIDITY_PERIOD()": "0c43cd88",
        "VOTING_PERIOD()": "b1610d7e",
        "allowance(address,address)": "dd62ed3e",
        "approve(address,uint256)": "095ea7b3",
        "balanceOf(address)": "70a08231",
        "burn(uint256)": "42966c68",
        "claimPeriod()": "7dc2cd98",
        "claims(address)": "c6788bdd",
        "clearClaim()": "6b03ed5f",
        "customCollateralAddress()": "0c6f0e5d",
        "customCollateralRate()": "60918117",
        "decimals()": "313ce567",
        "declareLost(address,address)": "26773ddd",
        "decreaseAllowance(address,uint256)": "a457c2d7",
        "deleteClaim(address)": "32a7ae95",
        "drag(address,address)": "fcb79a7e",
        "factory()": "c45a0155",
        "getClaimDeleter()": "2a0a4ed5",
        "getClaimant(address)": "1e3b9de5",
        "getCollateral(address)": "9b56d6c9",
        "getCollateralRate(address)": "77e071ad",
        "getCollateralType(address)": "3bcc45ba",
        "getTimeStamp(address)": "eb470ebf",
        "increaseAllowance(address,uint256)": "39509351",
        "isBinding()": "9e4b5745",
        "isRecoveryEnabled(address)": "a3ec1883",
        "makeAcquisitionOffer(bytes32,uint256,address)": "dcc7d4ad",
        "migrate()": "8fd3ab80",
        "name()": "06fdde03",
        "notifyOfferEnded()": "32bc320b",
        "offer()": "c028df06",
        "onTokenTransfer(address,uint256,bytes)": "a4c0ed36",
        "quorum()": "1703a018",
        "recover(address)": "0cd865ec",
        "recoveryDisabled(address)": "b40e80d1",
        "setRecoverable(bool)": "6427ed97",
        "symbol()": "95d89b41",
        "terms()": "d5025625",
        "totalSupply()": "18160ddd",
        "transfer(address,uint256)": "a9059cbb",
        "transferAndCall(address,uint256,bytes)": "4000aea0",
        "transferFrom(address,address,uint256)": "23b872dd",
        "unwrap(uint256)": "de0e9a3e",
        "unwrapConversionFactor()": "0832e470",
        "wrap(address,uint256)": "bf376c7a",
        "wrapped()": "50e70d48"
    },
    "gasEstimates": {
        "creation": {
            "codeDepositCost": "1978200",
            "executionCost": "infinite",
            "totalCost": "infinite"
        },
        "external": {
            "VALIDITY_PERIOD()": "341",
            "VOTING_PERIOD()": "273",
            "allowance(address,address)": "infinite",
            "approve(address,uint256)": "22571",
            "balanceOf(address)": "1313",
            "burn(uint256)": "infinite",
            "claimPeriod()": "1118",
            "claims(address)": "3972",
            "clearClaim()": "infinite",
            "customCollateralAddress()": "1205",
            "customCollateralRate()": "1139",
            "decimals()": "1114",
            "declareLost(address,address)": "infinite",
            "decreaseAllowance(address,uint256)": "23626",
            "deleteClaim(address)": "infinite",
            "drag(address,address)": "infinite",
            "factory()": "1203",
            "getClaimDeleter()": "infinite",
            "getClaimant(address)": "1415",
            "getCollateral(address)": "1315",
            "getCollateralRate(address)": "infinite",
            "getCollateralType(address)": "1459",
            "getTimeStamp(address)": "1402",
            "increaseAllowance(address,uint256)": "23652",
            "isBinding()": "1104",
            "isRecoveryEnabled(address)": "1368",
            "makeAcquisitionOffer(bytes32,uint256,address)": "infinite",
            "migrate()": "infinite",
            "name()": "infinite",
            "notifyOfferEnded()": "21929",
            "offer()": "1181",
            "onTokenTransfer(address,uint256,bytes)": "infinite",
            "quorum()": "1096",
            "recover(address)": "infinite",
            "recoveryDisabled(address)": "1325",
            "setRecoverable(bool)": "21321",
            "symbol()": "infinite",
            "terms()": "infinite",
            "totalSupply()": "1118",
            "transfer(address,uint256)": "infinite",
            "transferAndCall(address,uint256,bytes)": "infinite",
            "transferFrom(address,address,uint256)": "infinite",
            "unwrap(uint256)": "infinite",
            "unwrapConversionFactor()": "1097",
            "wrap(address,uint256)": "infinite",
            "wrapped()": "1159"
        }
    }
}