{
    "contractName": "DraggableShares",
    "abi": [
        {
            "inputs": [
                {
                    "internalType": "string",
                    "name": "_terms",
                    "type": "string"
                },
                {
                    "internalType": "address",
                    "name": "offerFactory",
                    "type": "address"
                },
                {
                    "internalType": "address",
                    "name": "wrappedToken",
                    "type": "address"
                },
                {
                    "internalType": "uint256",
                    "name": "quorum",
                    "type": "uint256"
                },
                {
                    "internalType": "uint256",
                    "name": "votePeriod",
                    "type": "uint256"
                }
            ],
            "stateMutability": "nonpayable",
            "type": "constructor"
        },
        {
            "anonymous": false,
            "inputs": [
                {
                    "indexed": true,
                    "internalType": "address",
                    "name": "owner",
                    "type": "address"
                },
                {
                    "indexed": true,
                    "internalType": "address",
                    "name": "spender",
                    "type": "address"
                },
                {
                    "indexed": false,
                    "internalType": "uint256",
                    "name": "value",
                    "type": "uint256"
                }
            ],
            "name": "Approval",
            "type": "event"
        },
        {
            "anonymous": false,
            "inputs": [
                {
                    "indexed": true,
                    "internalType": "address",
                    "name": "lostAddress",
                    "type": "address"
                },
                {
                    "indexed": false,
                    "internalType": "uint256",
                    "name": "collateral",
                    "type": "uint256"
                }
            ],
            "name": "ClaimCleared",
            "type": "event"
        },
        {
            "anonymous": false,
            "inputs": [
                {
                    "indexed": true,
                    "internalType": "address",
                    "name": "lostAddress",
                    "type": "address"
                },
                {
                    "indexed": true,
                    "internalType": "address",
                    "name": "claimant",
                    "type": "address"
                },
                {
                    "indexed": false,
                    "internalType": "uint256",
                    "name": "collateral",
                    "type": "uint256"
                }
            ],
            "name": "ClaimDeleted",
            "type": "event"
        },
        {
            "anonymous": false,
            "inputs": [
                {
                    "indexed": true,
                    "internalType": "address",
                    "name": "lostAddress",
                    "type": "address"
                },
                {
                    "indexed": true,
                    "internalType": "address",
                    "name": "claimant",
                    "type": "address"
                },
                {
                    "indexed": false,
                    "internalType": "uint256",
                    "name": "balance",
                    "type": "uint256"
                }
            ],
            "name": "ClaimMade",
            "type": "event"
        },
        {
            "anonymous": false,
            "inputs": [
                {
                    "indexed": false,
                    "internalType": "uint256",
                    "name": "newClaimPeriodInDays",
                    "type": "uint256"
                }
            ],
            "name": "ClaimPeriodChanged",
            "type": "event"
        },
        {
            "anonymous": false,
            "inputs": [
                {
                    "indexed": true,
                    "internalType": "address",
                    "name": "lostAddress",
                    "type": "address"
                },
                {
                    "indexed": true,
                    "internalType": "address",
                    "name": "claimant",
                    "type": "address"
                },
                {
                    "indexed": false,
                    "internalType": "uint256",
                    "name": "collateral",
                    "type": "uint256"
                }
            ],
            "name": "ClaimResolved",
            "type": "event"
        },
        {
            "anonymous": false,
            "inputs": [
                {
                    "indexed": false,
                    "internalType": "address",
                    "name": "newCustomCollateralAddress",
                    "type": "address"
                },
                {
                    "indexed": false,
                    "internalType": "uint256",
                    "name": "newCustomCollareralRate",
                    "type": "uint256"
                }
            ],
            "name": "CustomClaimCollateralChanged",
            "type": "event"
        },
        {
            "anonymous": false,
            "inputs": [
                {
                    "indexed": false,
                    "internalType": "address",
                    "name": "newContractAddress",
                    "type": "address"
                }
            ],
            "name": "MigrationSucceeded",
            "type": "event"
        },
        {
            "anonymous": false,
            "inputs": [
                {
                    "indexed": true,
                    "internalType": "address",
                    "name": "from",
                    "type": "address"
                },
                {
                    "indexed": true,
                    "internalType": "address",
                    "name": "to",
                    "type": "address"
                },
                {
                    "indexed": false,
                    "internalType": "uint256",
                    "name": "value",
                    "type": "uint256"
                }
            ],
            "name": "Transfer",
            "type": "event"
        },
        {
            "inputs": [
                {
                    "internalType": "address",
                    "name": "owner",
                    "type": "address"
                },
                {
                    "internalType": "address",
                    "name": "spender",
                    "type": "address"
                }
            ],
            "name": "allowance",
            "outputs": [
                {
                    "internalType": "uint256",
                    "name": "",
                    "type": "uint256"
                }
            ],
            "stateMutability": "view",
            "type": "function"
        },
        {
            "inputs": [
                {
                    "internalType": "address",
                    "name": "spender",
                    "type": "address"
                },
                {
                    "internalType": "uint256",
                    "name": "value",
                    "type": "uint256"
                }
            ],
            "name": "approve",
            "outputs": [
                {
                    "internalType": "bool",
                    "name": "",
                    "type": "bool"
                }
            ],
            "stateMutability": "nonpayable",
            "type": "function"
        },
        {
            "inputs": [
                {
                    "internalType": "address",
                    "name": "account",
                    "type": "address"
                }
            ],
            "name": "balanceOf",
            "outputs": [
                {
                    "internalType": "uint256",
                    "name": "",
                    "type": "uint256"
                }
            ],
            "stateMutability": "view",
            "type": "function"
        },
        {
            "inputs": [
                {
                    "internalType": "uint256",
                    "name": "amount",
                    "type": "uint256"
                }
            ],
            "name": "burn",
            "outputs": [],
            "stateMutability": "nonpayable",
            "type": "function"
        },
        {
            "inputs": [],
            "name": "claimPeriod",
            "outputs": [
                {
                    "internalType": "uint256",
                    "name": "",
                    "type": "uint256"
                }
            ],
            "stateMutability": "view",
            "type": "function"
        },
        {
            "inputs": [
                {
                    "internalType": "address",
                    "name": "",
                    "type": "address"
                }
            ],
            "name": "claims",
            "outputs": [
                {
                    "internalType": "address",
                    "name": "claimant",
                    "type": "address"
                },
                {
                    "internalType": "uint256",
                    "name": "collateral",
                    "type": "uint256"
                },
                {
                    "internalType": "uint256",
                    "name": "timestamp",
                    "type": "uint256"
                },
                {
                    "internalType": "address",
                    "name": "currencyUsed",
                    "type": "address"
                }
            ],
            "stateMutability": "view",
            "type": "function"
        },
        {
            "inputs": [],
            "name": "clearClaim",
            "outputs": [],
            "stateMutability": "nonpayable",
            "type": "function"
        },
        {
            "inputs": [],
            "name": "customCollateralAddress",
            "outputs": [
                {
                    "internalType": "address",
                    "name": "",
                    "type": "address"
                }
            ],
            "stateMutability": "view",
            "type": "function"
        },
        {
            "inputs": [],
            "name": "customCollateralRate",
            "outputs": [
                {
                    "internalType": "uint256",
                    "name": "",
                    "type": "uint256"
                }
            ],
            "stateMutability": "view",
            "type": "function"
        },
        {
            "inputs": [],
            "name": "decimals",
            "outputs": [
                {
                    "internalType": "uint8",
                    "name": "",
                    "type": "uint8"
                }
            ],
            "stateMutability": "view",
            "type": "function"
        },
        {
            "inputs": [
                {
                    "internalType": "address",
                    "name": "collateralType",
                    "type": "address"
                },
                {
                    "internalType": "address",
                    "name": "lostAddress",
                    "type": "address"
                }
            ],
            "name": "declareLost",
            "outputs": [],
            "stateMutability": "nonpayable",
            "type": "function"
        },
        {
            "inputs": [
                {
                    "internalType": "address",
                    "name": "spender",
                    "type": "address"
                },
                {
                    "internalType": "uint256",
                    "name": "subtractedValue",
                    "type": "uint256"
                }
            ],
            "name": "decreaseAllowance",
            "outputs": [
                {
                    "internalType": "bool",
                    "name": "",
                    "type": "bool"
                }
            ],
            "stateMutability": "nonpayable",
            "type": "function"
        },
        {
            "inputs": [
                {
                    "internalType": "address",
                    "name": "lostAddress",
                    "type": "address"
                }
            ],
            "name": "deleteClaim",
            "outputs": [],
            "stateMutability": "nonpayable",
            "type": "function"
        },
        {
            "inputs": [
                {
                    "internalType": "address",
                    "name": "buyer",
                    "type": "address"
                },
                {
                    "internalType": "address",
                    "name": "currency",
                    "type": "address"
                }
            ],
            "name": "drag",
            "outputs": [],
            "stateMutability": "nonpayable",
            "type": "function"
        },
        {
            "inputs": [],
            "name": "factory",
            "outputs": [
                {
                    "internalType": "contract IOfferFactory",
                    "name": "",
                    "type": "address"
                }
            ],
            "stateMutability": "view",
            "type": "function"
        },
        {
            "inputs": [],
            "name": "getClaimDeleter",
            "outputs": [
                {
                    "internalType": "address",
                    "name": "",
                    "type": "address"
                }
            ],
            "stateMutability": "view",
            "type": "function"
        },
        {
            "inputs": [
                {
                    "internalType": "address",
                    "name": "lostAddress",
                    "type": "address"
                }
            ],
            "name": "getClaimant",
            "outputs": [
                {
                    "internalType": "address",
                    "name": "",
                    "type": "address"
                }
            ],
            "stateMutability": "view",
            "type": "function"
        },
        {
            "inputs": [
                {
                    "internalType": "address",
                    "name": "lostAddress",
                    "type": "address"
                }
            ],
            "name": "getCollateral",
            "outputs": [
                {
                    "internalType": "uint256",
                    "name": "",
                    "type": "uint256"
                }
            ],
            "stateMutability": "view",
            "type": "function"
        },
        {
            "inputs": [
                {
                    "internalType": "address",
                    "name": "collateralType",
                    "type": "address"
                }
            ],
            "name": "getCollateralRate",
            "outputs": [
                {
                    "internalType": "uint256",
                    "name": "",
                    "type": "uint256"
                }
            ],
            "stateMutability": "view",
            "type": "function"
        },
        {
            "inputs": [
                {
                    "internalType": "address",
                    "name": "lostAddress",
                    "type": "address"
                }
            ],
            "name": "getCollateralType",
            "outputs": [
                {
                    "internalType": "address",
                    "name": "",
                    "type": "address"
                }
            ],
            "stateMutability": "view",
            "type": "function"
        },
        {
            "inputs": [
                {
                    "internalType": "address",
                    "name": "lostAddress",
                    "type": "address"
                }
            ],
            "name": "getTimeStamp",
            "outputs": [
                {
                    "internalType": "uint256",
                    "name": "",
                    "type": "uint256"
                }
            ],
            "stateMutability": "view",
            "type": "function"
        },
        {
            "inputs": [
                {
                    "internalType": "address",
                    "name": "spender",
                    "type": "address"
                },
                {
                    "internalType": "uint256",
                    "name": "addedValue",
                    "type": "uint256"
                }
            ],
            "name": "increaseAllowance",
            "outputs": [
                {
                    "internalType": "bool",
                    "name": "",
                    "type": "bool"
                }
            ],
            "stateMutability": "nonpayable",
            "type": "function"
        },
        {
            "inputs": [],
            "name": "isBinding",
            "outputs": [
                {
                    "internalType": "bool",
                    "name": "",
                    "type": "bool"
                }
            ],
            "stateMutability": "view",
            "type": "function"
        },
        {
            "inputs": [
                {
                    "internalType": "address",
                    "name": "target",
                    "type": "address"
                }
            ],
            "name": "isRecoveryEnabled",
            "outputs": [
                {
                    "internalType": "bool",
                    "name": "",
                    "type": "bool"
                }
            ],
            "stateMutability": "view",
            "type": "function"
        },
        {
            "inputs": [
                {
                    "internalType": "bytes32",
                    "name": "salt",
                    "type": "bytes32"
                },
                {
                    "internalType": "uint256",
                    "name": "pricePerShare",
                    "type": "uint256"
                },
                {
                    "internalType": "address",
                    "name": "currency",
                    "type": "address"
                }
            ],
            "name": "makeAcquisitionOffer",
            "outputs": [],
            "stateMutability": "payable",
            "type": "function"
        },
        {
            "inputs": [],
            "name": "migrate",
            "outputs": [],
            "stateMutability": "nonpayable",
            "type": "function"
        },
        {
            "inputs": [],
            "name": "name",
            "outputs": [
                {
                    "internalType": "string",
                    "name": "",
                    "type": "string"
                }
            ],
            "stateMutability": "view",
            "type": "function"
        },
        {
            "inputs": [],
            "name": "notifyOfferEnded",
            "outputs": [],
            "stateMutability": "nonpayable",
            "type": "function"
        },
        {
            "inputs": [],
            "name": "offer",
            "outputs": [
                {
                    "internalType": "contract IOffer",
                    "name": "",
                    "type": "address"
                }
            ],
            "stateMutability": "view",
            "type": "function"
        },
        {
            "inputs": [
                {
                    "internalType": "address",
                    "name": "from",
                    "type": "address"
                },
                {
                    "internalType": "uint256",
                    "name": "amount",
                    "type": "uint256"
                },
                {
                    "internalType": "bytes",
                    "name": "",
                    "type": "bytes"
                }
            ],
            "name": "onTokenTransfer",
            "outputs": [],
            "stateMutability": "nonpayable",
            "type": "function"
        },
        {
            "inputs": [],
            "name": "quorum",
            "outputs": [
                {
                    "internalType": "uint256",
                    "name": "",
                    "type": "uint256"
                }
            ],
            "stateMutability": "view",
            "type": "function"
        },
        {
            "inputs": [
                {
                    "internalType": "address",
                    "name": "lostAddress",
                    "type": "address"
                }
            ],
            "name": "recover",
            "outputs": [],
            "stateMutability": "nonpayable",
            "type": "function"
        },
        {
            "inputs": [
                {
                    "internalType": "address",
                    "name": "",
                    "type": "address"
                }
            ],
            "name": "recoveryDisabled",
            "outputs": [
                {
                    "internalType": "bool",
                    "name": "",
                    "type": "bool"
                }
            ],
            "stateMutability": "view",
            "type": "function"
        },
        {
            "inputs": [
                {
                    "internalType": "bool",
                    "name": "enabled",
                    "type": "bool"
                }
            ],
            "name": "setRecoverable",
            "outputs": [],
            "stateMutability": "nonpayable",
            "type": "function"
        },
        {
            "inputs": [],
            "name": "symbol",
            "outputs": [
                {
                    "internalType": "string",
                    "name": "",
                    "type": "string"
                }
            ],
            "stateMutability": "view",
            "type": "function"
        },
        {
            "inputs": [],
            "name": "terms",
            "outputs": [
                {
                    "internalType": "string",
                    "name": "",
                    "type": "string"
                }
            ],
            "stateMutability": "view",
            "type": "function"
        },
        {
            "inputs": [],
            "name": "totalSupply",
            "outputs": [
                {
                    "internalType": "uint256",
                    "name": "",
                    "type": "uint256"
                }
            ],
            "stateMutability": "view",
            "type": "function"
        },
        {
            "inputs": [
                {
                    "internalType": "address",
                    "name": "to",
                    "type": "address"
                },
                {
                    "internalType": "uint256",
                    "name": "value",
                    "type": "uint256"
                }
            ],
            "name": "transfer",
            "outputs": [
                {
                    "internalType": "bool",
                    "name": "",
                    "type": "bool"
                }
            ],
            "stateMutability": "nonpayable",
            "type": "function"
        },
        {
            "inputs": [
                {
                    "internalType": "address",
                    "name": "recipient",
                    "type": "address"
                },
                {
                    "internalType": "uint256",
                    "name": "amount",
                    "type": "uint256"
                },
                {
                    "internalType": "bytes",
                    "name": "data",
                    "type": "bytes"
                }
            ],
            "name": "transferAndCall",
            "outputs": [
                {
                    "internalType": "bool",
                    "name": "",
                    "type": "bool"
                }
            ],
            "stateMutability": "nonpayable",
            "type": "function"
        },
        {
            "inputs": [
                {
                    "internalType": "address",
                    "name": "sender",
                    "type": "address"
                },
                {
                    "internalType": "address",
                    "name": "recipient",
                    "type": "address"
                },
                {
                    "internalType": "uint256",
                    "name": "amount",
                    "type": "uint256"
                }
            ],
            "name": "transferFrom",
            "outputs": [
                {
                    "internalType": "bool",
                    "name": "",
                    "type": "bool"
                }
            ],
            "stateMutability": "nonpayable",
            "type": "function"
        },
        {
            "inputs": [
                {
                    "internalType": "uint256",
                    "name": "amount",
                    "type": "uint256"
                }
            ],
            "name": "unwrap",
            "outputs": [],
            "stateMutability": "nonpayable",
            "type": "function"
        },
        {
            "inputs": [],
            "name": "unwrapConversionFactor",
            "outputs": [
                {
                    "internalType": "uint256",
                    "name": "",
                    "type": "uint256"
                }
            ],
            "stateMutability": "view",
            "type": "function"
        },
        {
            "inputs": [],
            "name": "votePeriod",
            "outputs": [
                {
                    "internalType": "uint256",
                    "name": "",
                    "type": "uint256"
                }
            ],
            "stateMutability": "view",
            "type": "function"
        },
        {
            "inputs": [
                {
                    "internalType": "address",
                    "name": "shareholder",
                    "type": "address"
                },
                {
                    "internalType": "uint256",
                    "name": "amount",
                    "type": "uint256"
                }
            ],
            "name": "wrap",
            "outputs": [],
            "stateMutability": "nonpayable",
            "type": "function"
        },
        {
            "inputs": [],
            "name": "wrapped",
            "outputs": [
                {
                    "internalType": "contract IERC20",
                    "name": "",
                    "type": "address"
                }
            ],
            "stateMutability": "view",
            "type": "function"
        }
    ],
    "bytecode": "608060405262ed4e006004556000600b553480156200001d57600080fd5b50604051620029a1380380620029a18339810160408190526200004091620001be565b6003805460ff19169055600a80546001600160a01b038087166001600160a01b031992831617909255600980549286169290911682179055600d839055600e829055604051636427ed9760e01b8152636427ed9790620000a690600090600401620002c7565b600060405180830381600087803b158015620000c157600080fd5b505af1158015620000d6573d6000803e3d6000fd5b50508651620000ef9250600f91506020880190620000fb565b50505050505062000325565b8280546200010990620002d2565b90600052602060002090601f0160209004810192826200012d576000855562000178565b82601f106200014857805160ff191683800117855562000178565b8280016001018555821562000178579182015b82811115620001785782518255916020019190600101906200015b565b50620001869291506200018a565b5090565b5b808211156200018657600081556001016200018b565b80516001600160a01b0381168114620001b957600080fd5b919050565b600080600080600060a08688031215620001d6578081fd5b85516001600160401b0380821115620001ed578283fd5b818801915088601f83011262000201578283fd5b8151818111156200021657620002166200030f565b6040516020601f8301601f19168201810184811183821017156200023e576200023e6200030f565b60405282825284830181018c101562000255578586fd5b8593505b8284101562000278578484018101518285018201529283019262000259565b828411156200028957858184840101525b81995062000299818c01620001a1565b98505050505050620002ae60408701620001a1565b6060870151608090970151959894975095949392505050565b901515815260200190565b600281046001821680620002e757607f821691505b602082108114156200030957634e487b7160e01b600052602260045260246000fd5b50919050565b634e487b7160e01b600052604160045260246000fd5b61266c80620003356000396000f3fe6080604052600436106102725760003560e01c806370a082311161014f578063a9059cbb116100c1578063d50256251161007a578063d5025625146106ed578063dcc7d4ad14610702578063dd62ed3e14610715578063de0e9a3e14610735578063eb470ebf14610755578063fcb79a7e1461077557610272565b8063a9059cbb14610633578063b40e80d114610653578063bf376c7a14610673578063c028df0614610693578063c45a0155146106a8578063c6788bdd146106bd57610272565b80639b56d6c9116101135780639b56d6c9146105895780639e4b5745146105a9578063a3ec1883146105be578063a457c2d7146105de578063a4c0ed36146105fe578063a78135871461061e57610272565b806370a082311461050a57806377e071ad1461052a5780637dc2cd981461054a5780638fd3ab801461055f57806395d89b411461057457610272565b8063313ce567116101e85780634000aea0116101ac5780634000aea01461046b57806342966c681461048b57806350e70d48146104ab57806360918117146104c05780636427ed97146104d55780636b03ed5f146104f557610272565b8063313ce567146103d457806332a7ae95146103f657806332bc320b14610416578063395093511461042b5780633bcc45ba1461044b57610272565b80631703a0181161023a5780631703a0181461033557806318160ddd1461034a5780631e3b9de51461035f57806323b872dd1461037f57806326773ddd1461039f5780632a0a4ed5146103bf57610272565b806306fdde03146102775780630832e470146102a2578063095ea7b3146102c45780630c6f0e5d146102f15780630cd865ec14610313575b600080fd5b34801561028357600080fd5b5061028c610795565b60405161029991906122a2565b60405180910390f35b3480156102ae57600080fd5b506102b761083a565b6040516102999190612501565b3480156102d057600080fd5b506102e46102df366004611f51565b610840565b6040516102999190612262565b3480156102fd57600080fd5b50610306610856565b604051610299919061219e565b34801561031f57600080fd5b5061033361032e366004611ea1565b610865565b005b34801561034157600080fd5b506102b7610a76565b34801561035657600080fd5b506102b7610a7c565b34801561036b57600080fd5b5061030661037a366004611ea1565b610a82565b34801561038b57600080fd5b506102e461039a366004611f11565b610aa3565b3480156103ab57600080fd5b506103336103ba366004611ed9565b610af5565b3480156103cb57600080fd5b50610306610d13565b3480156103e057600080fd5b506103e9610d95565b604051610299919061250a565b34801561040257600080fd5b50610333610411366004611ea1565b610d9e565b34801561042257600080fd5b50610333610f79565b34801561043757600080fd5b506102e4610446366004611f51565b610f9f565b34801561045757600080fd5b50610306610466366004611ea1565b610fd6565b34801561047757600080fd5b506102e4610486366004611f7c565b610ff7565b34801561049757600080fd5b506103336104a6366004612113565b61107a565b3480156104b757600080fd5b5061030661110d565b3480156104cc57600080fd5b506102b761111c565b3480156104e157600080fd5b506103336104f0366004612000565b611122565b34801561050157600080fd5b50610333611141565b34801561051657600080fd5b506102b7610525366004611ea1565b61127c565b34801561053657600080fd5b506102b7610545366004611ea1565b611297565b34801561055657600080fd5b506102b761136d565b34801561056b57600080fd5b50610333611373565b34801561058057600080fd5b5061028c611411565b34801561059557600080fd5b506102b76105a4366004611ea1565b6114a2565b3480156105b557600080fd5b506102e46114c0565b3480156105ca57600080fd5b506102e46105d9366004611ea1565b6114c7565b3480156105ea57600080fd5b506102e46105f9366004611f51565b6114e6565b34801561060a57600080fd5b50610333610619366004611f7c565b61151d565b34801561062a57600080fd5b506102b7611544565b34801561063f57600080fd5b506102e461064e366004611f51565b61154a565b34801561065f57600080fd5b506102e461066e366004611ea1565b61155d565b34801561067f57600080fd5b5061033361068e366004611f51565b611572565b34801561069f57600080fd5b5061030661160f565b3480156106b457600080fd5b5061030661161e565b3480156106c957600080fd5b506106dd6106d8366004611ea1565b61162d565b6040516102999493929190612237565b3480156106f957600080fd5b5061028c61165f565b610333610710366004612038565b6116ed565b34801561072157600080fd5b506102b7610730366004611ed9565b611828565b34801561074157600080fd5b50610333610750366004612113565b611853565b34801561076157600080fd5b506102b7610770366004611ea1565b611875565b34801561078157600080fd5b50610333610790366004611ed9565b611893565b600954604080516306fdde0360e01b815290516060926001600160a01b0316916306fdde03916004808301926000929190829003018186803b1580156107da57600080fd5b505afa1580156107ee573d6000803e3d6000fd5b505050506040513d6000823e601f3d908101601f191682016040526108169190810190612070565b604051602001610826919061216c565b604051602081830303815290604052905090565b600b5481565b600061084d3384846118c8565b50600192915050565b6007546001600160a01b031681565b6001600160a01b03808216600090815260056020908152604091829020825160808101845281548516815260018201549281018390526002820154938101939093526003015490921660608201819052909190816108de5760405162461bcd60e51b81526004016108d59061239c565b60405180910390fd5b82516001600160a01b031633146109075760405162461bcd60e51b81526004016108d5906122d5565b42600454846040015161091a9190612518565b11156109385760405162461bcd60e51b81526004016108d59061230c565b82516001600160a01b0380861660009081526005602052604080822080546001600160a01b0319908116825560018201849055600282019390935560030180549092169091555163a9059cbb60e01b81529083169063a9059cbb906109a390849087906004016121d6565b602060405180830381600087803b1580156109bd57600080fd5b505af11580156109d1573d6000803e3d6000fd5b505050506040513d601f19601f820116820180604052508101906109f5919061201c565b610a115760405162461bcd60e51b81526004016108d5906123c4565b610a248582610a1f8861127c565b611923565b806001600160a01b0316856001600160a01b03167f52a5c2b28bc6eb9712d0ced43463103b486b13ccc9cda499fd3b2d7b6a74a8ee85604051610a679190612501565b60405180910390a35050505050565b600d5481565b60025490565b6001600160a01b03808216600090815260056020526040902054165b919050565b6000610ab0848484611923565b6001600160a01b038416600090815260016020908152604080832033808552925290912054610aeb918691610ae690869061256f565b6118c8565b5060019392505050565b610afe816114c7565b610b1a5760405162461bcd60e51b81526004016108d5906123fb565b6000610b2583611297565b905060008111610b475760405162461bcd60e51b81526004016108d59061236c565b336000610b538461127c565b90506000610b618483612550565b90508582610b815760405162461bcd60e51b81526004016108d590612493565b6001600160a01b03861660009081526005602052604090206001015415610bba5760405162461bcd60e51b81526004016108d590612430565b6040516323b872dd60e01b81526001600160a01b038216906323b872dd90610bea908790309087906004016121b2565b602060405180830381600087803b158015610c0457600080fd5b505af1158015610c18573d6000803e3d6000fd5b505050506040513d601f19601f82011682018060405250810190610c3c919061201c565b610c585760405162461bcd60e51b81526004016108d5906123c4565b604080516080810182526001600160a01b038087168083526020808401878152428587019081528d8516606087019081528d86166000818152600590955293889020965187549087166001600160a01b0319918216178855925160018801559051600287015551600390950180549590941694169390931790915591517f1982ca8958fc8a8176cb52be509260f4bc5af7ce04e1533711793f1c56dd535990610d02908790612501565b60405180910390a350505050505050565b60095460408051632a0a4ed560e01b815290516000926001600160a01b031691632a0a4ed5916004808301926020929190829003018186803b158015610d5857600080fd5b505afa158015610d6c573d6000803e3d6000fd5b505050506040513d601f19601f82011682018060405250810190610d909190611ebd565b905090565b60035460ff1681565b610da6610d13565b6001600160a01b0316336001600160a01b031614610dd65760405162461bcd60e51b81526004016108d5906124ca565b6001600160a01b038082166000908152600560209081526040918290208251608081018452815485168152600182015492810183905260028201549381019390935260030154909216606082018190529091610e445760405162461bcd60e51b81526004016108d59061239c565b6001600160a01b03808416600090815260056020908152604080832080546001600160a01b031990811682556001820185905560028201949094556003018054909316909255845190850151915163a9059cbb60e01b81529284169263a9059cbb92610eb392916004016121d6565b602060405180830381600087803b158015610ecd57600080fd5b505af1158015610ee1573d6000803e3d6000fd5b505050506040513d601f19601f82011682018060405250810190610f05919061201c565b610f215760405162461bcd60e51b81526004016108d5906123c4565b81600001516001600160a01b0316836001600160a01b03167fbb036e629a9f4c0897ee5d48440dfdb36f7e772117723a2ed603a6514244c2d58460200151604051610f6c9190612501565b60405180910390a3505050565b600c546001600160a01b0316331415610f9d57600c80546001600160a01b03191690555b565b3360008181526001602090815260408083206001600160a01b0387168452909152812054909161084d918590610ae6908690612518565b6001600160a01b039081166000908152600560205260409020600301541690565b600080611004868661154a565b9050801561107157604051635260769b60e11b81526001600160a01b0387169063a4c0ed369061103e9033908990899089906004016121ef565b600060405180830381600087803b15801561105857600080fd5b505af115801561106c573d6000803e3d6000fd5b505050505b95945050505050565b61108433826119e0565b600061108e6114c0565b61109a57600b5461109d565b60015b6009549091506001600160a01b03166342966c686110bb8385612550565b6040518263ffffffff1660e01b81526004016110d79190612501565b600060405180830381600087803b1580156110f157600080fd5b505af1158015611105573d6000803e3d6000fd5b505050505050565b6009546001600160a01b031681565b60085481565b336000908152600660205260409020805460ff19169115919091179055565b3360009081526005602052604090206001015415610f9d573360008181526005602052604080822060018101805460038301805484546001600160a01b0319908116865593879055600290940195909555908216909355905163a9059cbb60e01b815291926001600160a01b0390911691829163a9059cbb916111c9919086906004016121d6565b602060405180830381600087803b1580156111e357600080fd5b505af11580156111f7573d6000803e3d6000fd5b505050506040513d601f19601f8201168201806040525081019061121b919061201c565b6112375760405162461bcd60e51b81526004016108d5906123c4565b336001600160a01b03167f203627483d943880619f4b7e0cca21dbefd6204b4d85b124eb99540e17ba86dd836040516112709190612501565b60405180910390a25050565b6001600160a01b031660009081526020819052604090205490565b6000806112a383611a7a565b905080156112b2579050610a9e565b6009546001600160a01b03848116911614156112d2575050600b54610a9e565b600b546009546040516377e071ad60e01b81526001600160a01b03909116906377e071ad9061130590879060040161219e565b60206040518083038186803b15801561131d57600080fd5b505afa158015611331573d6000803e3d6000fd5b505050506040513d601f19601f82011682018060405250810190611355919061212b565b61135f9190612550565b915050610a9e565b50919050565b60045481565b3361137c611abc565b1561138657600080fd5b61138e610a7c565b61139a90611f40612550565b6113a38261127c565b6113af90612710612550565b10156113cd5760405162461bcd60e51b81526004016108d590612467565b6113d78182611acd565b7f3b6b79a09e9fd230e8591b65c97236bf7df7a604edf733db0658e66b0e6eb2a981604051611406919061219e565b60405180910390a150565b600954604080516395d89b4160e01b815290516060926001600160a01b0316916395d89b41916004808301926000929190829003018186803b15801561145657600080fd5b505afa15801561146a573d6000803e3d6000fd5b505050506040513d6000823e601f3d908101601f191682016040526114929190810190612070565b6040516020016108269190612143565b6001600160a01b031660009081526005602052604090206001015490565b600b541590565b6001600160a01b031660009081526006602052604090205460ff161590565b3360008181526001602090815260408083206001600160a01b0387168452909152812054909161084d918590610ae690869061256f565b6009546001600160a01b0316331461153457600080fd5b61153e8484611c95565b50505050565b600e5481565b60006115568383611d36565b9392505050565b60066020526000908152604090205460ff1681565b6009546040516323b872dd60e01b81526001600160a01b03909116906323b872dd906115a6903390309086906004016121b2565b602060405180830381600087803b1580156115c057600080fd5b505af11580156115d4573d6000803e3d6000fd5b505050506040513d601f19601f820116820180604052508101906115f8919061201c565b61160157600080fd5b61160b8282611c95565b5050565b600c546001600160a01b031681565b600a546001600160a01b031681565b60056020526000908152604090208054600182015460028301546003909301546001600160a01b039283169391921684565b600f805461166c906125b2565b80601f0160208091040260200160405190810160405280929190818152602001828054611698906125b2565b80156116e55780601f106116ba576101008083540402835291602001916116e5565b820191906000526020600020905b8154815290600101906020018083116116c857829003601f168201915b505050505081565b6116f56114c0565b6116fe57600080fd5b600a54600d54600e54604051634dc5e43160e01b81526000936001600160a01b031692634dc5e43192349261173f928a9233928b928b92909160040161226d565b6020604051808303818588803b15801561175857600080fd5b505af115801561176c573d6000803e3d6000fd5b50505050506040513d601f19601f820116820180604052508101906117919190611ebd565b905061179b611abc565b1561180357600c546040516306a169ed60e01b81526001600160a01b03909116906306a169ed906117d090849060040161219e565b600060405180830381600087803b1580156117ea57600080fd5b505af11580156117fe573d6000803e3d6000fd5b505050505b600c80546001600160a01b0319166001600160a01b0392909216919091179055505050565b6001600160a01b03918216600090815260016020908152604080832093909416825291909152205490565b61185b6114c0565b1561186557600080fd5b6118723382600b54611d66565b50565b6001600160a01b031660009081526005602052604090206002015490565b600c546001600160a01b031633146118aa57600080fd5b6118be826118b78461127c565b6001611d66565b61160b8183611acd565b6001600160a01b0380841660008181526001602090815260408083209487168084529490915290819020849055517f8c5be1e5ebec7d5bd14f71427d1e84f3dd0314c0f7b2291e5b200ac8c7c3b92590610f6c908590612501565b6001600160a01b03821661193657600080fd5b611941838383611e09565b6001600160a01b0383166000908152602081905260408120805483929061196990849061256f565b90915550506001600160a01b03821660009081526020819052604081208054839290611996908490612518565b92505081905550816001600160a01b0316836001600160a01b03167fddf252ad1be2c89b69c2b068fc378daa952ba7f163c4a11628f55a4df523b3ef83604051610f6c9190612501565b6119ec82600083611e09565b80600260008282546119fe919061256f565b90915550506001600160a01b03821660009081526020819052604081208054839290611a2b90849061256f565b90915550506040516000906001600160a01b038416907fddf252ad1be2c89b69c2b068fc378daa952ba7f163c4a11628f55a4df523b3ef90611a6e908590612501565b60405180910390a35050565b60006001600160a01b038216301415611a9557506001610a9e565b6007546001600160a01b0383811691161415611ab45750600854610a9e565b506000610a9e565b600c546001600160a01b0316151590565b611ad56114c0565b611ade57600080fd5b6009546040516370a0823160e01b81526001600160a01b039091169063a9059cbb90839083906370a0823190611b1890309060040161219e565b60206040518083038186803b158015611b3057600080fd5b505afa158015611b44573d6000803e3d6000fd5b505050506040513d601f19601f82011682018060405250810190611b68919061212b565b6040518363ffffffff1660e01b8152600401611b859291906121d6565b602060405180830381600087803b158015611b9f57600080fd5b505af1158015611bb3573d6000803e3d6000fd5b505050506040513d601f19601f82011682018060405250810190611bd7919061201c565b611be057600080fd5b600980546001600160a01b0319166001600160a01b03841617905561160b611c06610a7c565b6009546040516370a0823160e01b81526001600160a01b03909116906370a0823190611c3690309060040161219e565b60206040518083038186803b158015611c4e57600080fd5b505afa158015611c62573d6000803e3d6000fd5b505050506040513d601f19601f82011682018060405250810190611c86919061212b565b611c909190612530565b611e81565b6001600160a01b038216611ca857600080fd5b611cb460008383611e09565b8060026000828254611cc69190612518565b90915550506001600160a01b03821660009081526020819052604081208054839290611cf3908490612518565b90915550506040516001600160a01b038316906000907fddf252ad1be2c89b69c2b068fc378daa952ba7f163c4a11628f55a4df523b3ef90611a6e908590612501565b6000611d428383611e94565b611d5e5760405162461bcd60e51b81526004016108d590612343565b61084d611141565b611d7083836119e0565b6009546001600160a01b031663a9059cbb84611d8c8486612550565b6040518363ffffffff1660e01b8152600401611da99291906121d6565b602060405180830381600087803b158015611dc357600080fd5b505af1158015611dd7573d6000803e3d6000fd5b505050506040513d601f19601f82011682018060405250810190611dfb919061201c565b611e0457600080fd5b505050565b611e11611abc565b15611e0457600c5460405163e1a1810f60e01b81526001600160a01b039091169063e1a1810f90611e4a908690869086906004016121b2565b600060405180830381600087803b158015611e6457600080fd5b505af1158015611e78573d6000803e3d6000fd5b50505050505050565b6001811015611e8f57600080fd5b600b55565b600061084d338484611923565b600060208284031215611eb2578081fd5b813561155681612613565b600060208284031215611ece578081fd5b815161155681612613565b60008060408385031215611eeb578081fd5b8235611ef681612613565b91506020830135611f0681612613565b809150509250929050565b600080600060608486031215611f25578081fd5b8335611f3081612613565b92506020840135611f4081612613565b929592945050506040919091013590565b60008060408385031215611f63578182fd5b8235611f6e81612613565b946020939093013593505050565b60008060008060608587031215611f91578081fd5b8435611f9c81612613565b935060208501359250604085013567ffffffffffffffff80821115611fbf578283fd5b818701915087601f830112611fd2578283fd5b813581811115611fe0578384fd5b886020828501011115611ff1578384fd5b95989497505060200194505050565b600060208284031215612011578081fd5b813561155681612628565b60006020828403121561202d578081fd5b815161155681612628565b60008060006060848603121561204c578283fd5b8335925060208401359150604084013561206581612613565b809150509250925092565b600060208284031215612081578081fd5b815167ffffffffffffffff80821115612098578283fd5b818401915084601f8301126120ab578283fd5b8151818111156120bd576120bd6125fd565b604051601f8201601f1916810160200183811182821017156120e1576120e16125fd565b6040528181528382016020018710156120f8578485fd5b612109826020830160208701612586565b9695505050505050565b600060208284031215612124578081fd5b5035919050565b60006020828403121561213c578081fd5b5051919050565b6000601160fa1b8252825161215f816001850160208701612586565b9190910160010192915050565b6000690223930b3b3b0b13632960b51b8252825161219181600a850160208701612586565b91909101600a0192915050565b6001600160a01b0391909116815260200190565b6001600160a01b039384168152919092166020820152604081019190915260600190565b6001600160a01b03929092168252602082015260400190565b6001600160a01b0385168152602081018490526060604082018190528101829052600082846080840137818301608090810191909152601f909201601f191601019392505050565b6001600160a01b03948516815260208101939093526040830191909152909116606082015260800190565b901515815260200190565b9586526001600160a01b039485166020870152604086019390935292166060840152608083019190915260a082015260c00190565b60006020825282518060208401526122c1816040850160208701612586565b601f01601f19169190910160400192915050565b6020808252601f908201527f4f6e6c7920636c61696d616e742063616e207265736f6c766520636c61696d00604082015260600190565b60208082526019908201527f436c61696d20706572696f64206e6f74206f7665722079657400000000000000604082015260600190565b6020808252600f908201526e151c985b9cd9995c8819985a5b1959608a1b604082015260600190565b602080825260169082015275155b9cdd5c1c1bdc9d19590818dbdb1b185d195c985b60521b604082015260600190565b6020808252600e908201526d139bc818db185a5b48199bdd5b9960921b604082015260600190565b6020808252601a908201527f436f6c6c61746572616c207472616e73666572206661696c6564000000000000604082015260600190565b6020808252818101527f436c61696d732064697361626c656420666f7220746869732061646472657373604082015260600190565b60208082526017908201527f4164647265737320616c726561647920636c61696d6564000000000000000000604082015260600190565b602080825260129082015271145d5bdc9d5b481b9bdd081c995858da195960721b604082015260600190565b6020808252601f908201527f436c61696d6564206164647265737320686f6c6473206e6f2073686172657300604082015260600190565b60208082526018908201527f596f752063616e6e6f742064656c65746520636c61696d730000000000000000604082015260600190565b90815260200190565b60ff91909116815260200190565b6000821982111561252b5761252b6125e7565b500190565b60008261254b57634e487b7160e01b81526012600452602481fd5b500490565b600081600019048311821515161561256a5761256a6125e7565b500290565b600082821015612581576125816125e7565b500390565b60005b838110156125a1578181015183820152602001612589565b8381111561153e5750506000910152565b6002810460018216806125c657607f821691505b6020821081141561136757634e487b7160e01b600052602260045260246000fd5b634e487b7160e01b600052601160045260246000fd5b634e487b7160e01b600052604160045260246000fd5b6001600160a01b038116811461187257600080fd5b801515811461187257600080fdfea264697066735822122084d37691e812894700a4f932d3063b0c6739dc863f7af36e2ccecd6c08f9acad64736f6c63430008000033",
    "sourcePath": "c:/Users/luziu/Documents/aktionariat/contracts/src/DraggableShares.sol",
    "compiler": {
        "name": "solc",
        "version": "0.8.0+commit.c7dfd78e"
    },
    "functionHashes": {
        "allowance(address,address)": "dd62ed3e",
        "approve(address,uint256)": "095ea7b3",
        "balanceOf(address)": "70a08231",
        "burn(uint256)": "42966c68",
        "claimPeriod()": "7dc2cd98",
        "claims(address)": "c6788bdd",
        "clearClaim()": "6b03ed5f",
        "customCollateralAddress()": "0c6f0e5d",
        "customCollateralRate()": "60918117",
        "decimals()": "313ce567",
        "declareLost(address,address)": "26773ddd",
        "decreaseAllowance(address,uint256)": "a457c2d7",
        "deleteClaim(address)": "32a7ae95",
        "drag(address,address)": "fcb79a7e",
        "factory()": "c45a0155",
        "getClaimDeleter()": "2a0a4ed5",
        "getClaimant(address)": "1e3b9de5",
        "getCollateral(address)": "9b56d6c9",
        "getCollateralRate(address)": "77e071ad",
        "getCollateralType(address)": "3bcc45ba",
        "getTimeStamp(address)": "eb470ebf",
        "increaseAllowance(address,uint256)": "39509351",
        "isBinding()": "9e4b5745",
        "isRecoveryEnabled(address)": "a3ec1883",
        "makeAcquisitionOffer(bytes32,uint256,address)": "dcc7d4ad",
        "migrate()": "8fd3ab80",
        "name()": "06fdde03",
        "notifyOfferEnded()": "32bc320b",
        "offer()": "c028df06",
        "onTokenTransfer(address,uint256,bytes)": "a4c0ed36",
        "quorum()": "1703a018",
        "recover(address)": "0cd865ec",
        "recoveryDisabled(address)": "b40e80d1",
        "setRecoverable(bool)": "6427ed97",
        "symbol()": "95d89b41",
        "terms()": "d5025625",
        "totalSupply()": "18160ddd",
        "transfer(address,uint256)": "a9059cbb",
        "transferAndCall(address,uint256,bytes)": "4000aea0",
        "transferFrom(address,address,uint256)": "23b872dd",
        "unwrap(uint256)": "de0e9a3e",
        "unwrapConversionFactor()": "0832e470",
        "votePeriod()": "a7813587",
        "wrap(address,uint256)": "bf376c7a",
        "wrapped()": "50e70d48"
    },
    "gasEstimates": {
        "creation": {
            "codeDepositCost": "1967200",
            "executionCost": "infinite",
            "totalCost": "infinite"
        },
        "external": {
            "allowance(address,address)": "infinite",
            "approve(address,uint256)": "22571",
            "balanceOf(address)": "1313",
            "burn(uint256)": "infinite",
            "claimPeriod()": "1118",
            "claims(address)": "3972",
            "clearClaim()": "infinite",
            "customCollateralAddress()": "1183",
            "customCollateralRate()": "1139",
            "decimals()": "1092",
            "declareLost(address,address)": "infinite",
            "decreaseAllowance(address,uint256)": "23626",
            "deleteClaim(address)": "infinite",
            "drag(address,address)": "infinite",
            "factory()": "1203",
            "getClaimDeleter()": "infinite",
            "getClaimant(address)": "1393",
            "getCollateral(address)": "1315",
            "getCollateralRate(address)": "infinite",
            "getCollateralType(address)": "1437",
            "getTimeStamp(address)": "1402",
            "increaseAllowance(address,uint256)": "23630",
            "isBinding()": "1104",
            "isRecoveryEnabled(address)": "1368",
            "makeAcquisitionOffer(bytes32,uint256,address)": "infinite",
            "migrate()": "infinite",
            "name()": "infinite",
            "notifyOfferEnded()": "21907",
            "offer()": "1181",
            "onTokenTransfer(address,uint256,bytes)": "infinite",
            "quorum()": "1074",
            "recover(address)": "infinite",
            "recoveryDisabled(address)": "1325",
            "setRecoverable(bool)": "21321",
            "symbol()": "infinite",
            "terms()": "infinite",
            "totalSupply()": "1096",
            "transfer(address,uint256)": "infinite",
            "transferAndCall(address,uint256,bytes)": "infinite",
            "transferFrom(address,address,uint256)": "infinite",
            "unwrap(uint256)": "infinite",
            "unwrapConversionFactor()": "1097",
            "votePeriod()": "1183",
            "wrap(address,uint256)": "infinite",
            "wrapped()": "1159"
        }
    }
}