{
    "contractName": "DraggableShares",
    "abi": [
        {
            "inputs": [
                {
                    "internalType": "string",
                    "name": "_terms",
                    "type": "string"
                },
                {
                    "internalType": "address",
                    "name": "wrappedToken",
                    "type": "address"
                },
                {
                    "internalType": "address",
                    "name": "xchfAddress",
                    "type": "address"
                }
            ],
            "stateMutability": "nonpayable",
            "type": "constructor"
        },
        {
            "anonymous": false,
            "inputs": [
                {
                    "indexed": true,
                    "internalType": "address",
                    "name": "owner",
                    "type": "address"
                },
                {
                    "indexed": true,
                    "internalType": "address",
                    "name": "spender",
                    "type": "address"
                },
                {
                    "indexed": false,
                    "internalType": "uint256",
                    "name": "value",
                    "type": "uint256"
                }
            ],
            "name": "Approval",
            "type": "event"
        },
        {
            "anonymous": false,
            "inputs": [
                {
                    "indexed": true,
                    "internalType": "address",
                    "name": "lostAddress",
                    "type": "address"
                },
                {
                    "indexed": false,
                    "internalType": "uint256",
                    "name": "collateral",
                    "type": "uint256"
                }
            ],
            "name": "ClaimCleared",
            "type": "event"
        },
        {
            "anonymous": false,
            "inputs": [
                {
                    "indexed": true,
                    "internalType": "address",
                    "name": "lostAddress",
                    "type": "address"
                },
                {
                    "indexed": true,
                    "internalType": "address",
                    "name": "claimant",
                    "type": "address"
                },
                {
                    "indexed": false,
                    "internalType": "uint256",
                    "name": "collateral",
                    "type": "uint256"
                }
            ],
            "name": "ClaimDeleted",
            "type": "event"
        },
        {
            "anonymous": false,
            "inputs": [
                {
                    "indexed": true,
                    "internalType": "address",
                    "name": "lostAddress",
                    "type": "address"
                },
                {
                    "indexed": true,
                    "internalType": "address",
                    "name": "claimant",
                    "type": "address"
                },
                {
                    "indexed": false,
                    "internalType": "uint256",
                    "name": "balance",
                    "type": "uint256"
                }
            ],
            "name": "ClaimMade",
            "type": "event"
        },
        {
            "anonymous": false,
            "inputs": [
                {
                    "indexed": false,
                    "internalType": "uint256",
                    "name": "newClaimPeriodInDays",
                    "type": "uint256"
                }
            ],
            "name": "ClaimPeriodChanged",
            "type": "event"
        },
        {
            "anonymous": false,
            "inputs": [
                {
                    "indexed": true,
                    "internalType": "address",
                    "name": "claimer",
                    "type": "address"
                }
            ],
            "name": "ClaimPrepared",
            "type": "event"
        },
        {
            "anonymous": false,
            "inputs": [
                {
                    "indexed": true,
                    "internalType": "address",
                    "name": "lostAddress",
                    "type": "address"
                },
                {
                    "indexed": true,
                    "internalType": "address",
                    "name": "claimant",
                    "type": "address"
                },
                {
                    "indexed": false,
                    "internalType": "uint256",
                    "name": "collateral",
                    "type": "uint256"
                }
            ],
            "name": "ClaimResolved",
            "type": "event"
        },
        {
            "anonymous": false,
            "inputs": [
                {
                    "indexed": false,
                    "internalType": "address",
                    "name": "newCustomCollateralAddress",
                    "type": "address"
                },
                {
                    "indexed": false,
                    "internalType": "uint256",
                    "name": "newCustomCollareralRate",
                    "type": "uint256"
                }
            ],
            "name": "CustomClaimCollateralChanged",
            "type": "event"
        },
        {
            "anonymous": false,
            "inputs": [
                {
                    "indexed": false,
                    "internalType": "address",
                    "name": "newContractAddress",
                    "type": "address"
                }
            ],
            "name": "MigrationSucceeded",
            "type": "event"
        },
        {
            "anonymous": false,
            "inputs": [
                {
                    "indexed": true,
                    "internalType": "address",
                    "name": "buyer",
                    "type": "address"
                },
                {
                    "indexed": false,
                    "internalType": "uint256",
                    "name": "pricePerShare",
                    "type": "uint256"
                },
                {
                    "indexed": false,
                    "internalType": "address",
                    "name": "offerContract",
                    "type": "address"
                }
            ],
            "name": "OfferCreated",
            "type": "event"
        },
        {
            "anonymous": false,
            "inputs": [
                {
                    "indexed": true,
                    "internalType": "address",
                    "name": "buyer",
                    "type": "address"
                },
                {
                    "indexed": false,
                    "internalType": "address",
                    "name": "sender",
                    "type": "address"
                },
                {
                    "indexed": false,
                    "internalType": "bool",
                    "name": "success",
                    "type": "bool"
                },
                {
                    "indexed": false,
                    "internalType": "string",
                    "name": "message",
                    "type": "string"
                },
                {
                    "indexed": false,
                    "internalType": "address",
                    "name": "offerContract",
                    "type": "address"
                }
            ],
            "name": "OfferEnded",
            "type": "event"
        },
        {
            "anonymous": false,
            "inputs": [
                {
                    "indexed": true,
                    "internalType": "address",
                    "name": "from",
                    "type": "address"
                },
                {
                    "indexed": true,
                    "internalType": "address",
                    "name": "to",
                    "type": "address"
                },
                {
                    "indexed": false,
                    "internalType": "uint256",
                    "name": "value",
                    "type": "uint256"
                }
            ],
            "name": "Transfer",
            "type": "event"
        },
        {
            "inputs": [],
            "name": "acquisitionQuorum",
            "outputs": [
                {
                    "internalType": "uint256",
                    "name": "",
                    "type": "uint256"
                }
            ],
            "stateMutability": "view",
            "type": "function"
        },
        {
            "inputs": [],
            "name": "active",
            "outputs": [
                {
                    "internalType": "bool",
                    "name": "",
                    "type": "bool"
                }
            ],
            "stateMutability": "view",
            "type": "function"
        },
        {
            "inputs": [
                {
                    "internalType": "address",
                    "name": "owner",
                    "type": "address"
                },
                {
                    "internalType": "address",
                    "name": "spender",
                    "type": "address"
                }
            ],
            "name": "allowance",
            "outputs": [
                {
                    "internalType": "uint256",
                    "name": "",
                    "type": "uint256"
                }
            ],
            "stateMutability": "view",
            "type": "function"
        },
        {
            "inputs": [
                {
                    "internalType": "address",
                    "name": "spender",
                    "type": "address"
                },
                {
                    "internalType": "uint256",
                    "name": "value",
                    "type": "uint256"
                }
            ],
            "name": "approve",
            "outputs": [
                {
                    "internalType": "bool",
                    "name": "",
                    "type": "bool"
                }
            ],
            "stateMutability": "nonpayable",
            "type": "function"
        },
        {
            "inputs": [
                {
                    "internalType": "address",
                    "name": "account",
                    "type": "address"
                }
            ],
            "name": "balanceOf",
            "outputs": [
                {
                    "internalType": "uint256",
                    "name": "",
                    "type": "uint256"
                }
            ],
            "stateMutability": "view",
            "type": "function"
        },
        {
            "inputs": [
                {
                    "internalType": "uint256",
                    "name": "amount",
                    "type": "uint256"
                }
            ],
            "name": "burn",
            "outputs": [],
            "stateMutability": "nonpayable",
            "type": "function"
        },
        {
            "inputs": [],
            "name": "cancelAcquisition",
            "outputs": [],
            "stateMutability": "nonpayable",
            "type": "function"
        },
        {
            "inputs": [],
            "name": "claimPeriod",
            "outputs": [
                {
                    "internalType": "uint256",
                    "name": "",
                    "type": "uint256"
                }
            ],
            "stateMutability": "view",
            "type": "function"
        },
        {
            "inputs": [
                {
                    "internalType": "address",
                    "name": "",
                    "type": "address"
                }
            ],
            "name": "claimingDisabled",
            "outputs": [
                {
                    "internalType": "bool",
                    "name": "",
                    "type": "bool"
                }
            ],
            "stateMutability": "view",
            "type": "function"
        },
        {
            "inputs": [
                {
                    "internalType": "address",
                    "name": "",
                    "type": "address"
                }
            ],
            "name": "claims",
            "outputs": [
                {
                    "internalType": "address",
                    "name": "claimant",
                    "type": "address"
                },
                {
                    "internalType": "uint256",
                    "name": "collateral",
                    "type": "uint256"
                },
                {
                    "internalType": "uint32",
                    "name": "timestamp",
                    "type": "uint32"
                },
                {
                    "internalType": "address",
                    "name": "currencyUsed",
                    "type": "address"
                }
            ],
            "stateMutability": "view",
            "type": "function"
        },
        {
            "inputs": [],
            "name": "clearClaim",
            "outputs": [],
            "stateMutability": "nonpayable",
            "type": "function"
        },
        {
            "inputs": [],
            "name": "completeAcquisition",
            "outputs": [],
            "stateMutability": "nonpayable",
            "type": "function"
        },
        {
            "inputs": [],
            "name": "contestAcquisition",
            "outputs": [],
            "stateMutability": "nonpayable",
            "type": "function"
        },
        {
            "inputs": [],
            "name": "customCollateralAddress",
            "outputs": [
                {
                    "internalType": "address",
                    "name": "",
                    "type": "address"
                }
            ],
            "stateMutability": "view",
            "type": "function"
        },
        {
            "inputs": [],
            "name": "customCollateralRate",
            "outputs": [
                {
                    "internalType": "uint256",
                    "name": "",
                    "type": "uint256"
                }
            ],
            "stateMutability": "view",
            "type": "function"
        },
        {
            "inputs": [],
            "name": "decimals",
            "outputs": [
                {
                    "internalType": "uint8",
                    "name": "",
                    "type": "uint8"
                }
            ],
            "stateMutability": "view",
            "type": "function"
        },
        {
            "inputs": [
                {
                    "internalType": "address",
                    "name": "collateralType",
                    "type": "address"
                },
                {
                    "internalType": "address",
                    "name": "lostAddress",
                    "type": "address"
                },
                {
                    "internalType": "bytes32",
                    "name": "nonce",
                    "type": "bytes32"
                }
            ],
            "name": "declareLost",
            "outputs": [],
            "stateMutability": "nonpayable",
            "type": "function"
        },
        {
            "inputs": [
                {
                    "internalType": "address",
                    "name": "spender",
                    "type": "address"
                },
                {
                    "internalType": "uint256",
                    "name": "subtractedValue",
                    "type": "uint256"
                }
            ],
            "name": "decreaseAllowance",
            "outputs": [
                {
                    "internalType": "bool",
                    "name": "",
                    "type": "bool"
                }
            ],
            "stateMutability": "nonpayable",
            "type": "function"
        },
        {
            "inputs": [
                {
                    "internalType": "address",
                    "name": "lostAddress",
                    "type": "address"
                }
            ],
            "name": "deleteClaim",
            "outputs": [],
            "stateMutability": "nonpayable",
            "type": "function"
        },
        {
            "inputs": [],
            "name": "getClaimDeleter",
            "outputs": [
                {
                    "internalType": "address",
                    "name": "",
                    "type": "address"
                }
            ],
            "stateMutability": "view",
            "type": "function"
        },
        {
            "inputs": [
                {
                    "internalType": "address",
                    "name": "lostAddress",
                    "type": "address"
                }
            ],
            "name": "getClaimant",
            "outputs": [
                {
                    "internalType": "address",
                    "name": "",
                    "type": "address"
                }
            ],
            "stateMutability": "view",
            "type": "function"
        },
        {
            "inputs": [
                {
                    "internalType": "address",
                    "name": "lostAddress",
                    "type": "address"
                }
            ],
            "name": "getCollateral",
            "outputs": [
                {
                    "internalType": "uint256",
                    "name": "",
                    "type": "uint256"
                }
            ],
            "stateMutability": "view",
            "type": "function"
        },
        {
            "inputs": [
                {
                    "internalType": "address",
                    "name": "collateralType",
                    "type": "address"
                }
            ],
            "name": "getCollateralRate",
            "outputs": [
                {
                    "internalType": "uint256",
                    "name": "",
                    "type": "uint256"
                }
            ],
            "stateMutability": "view",
            "type": "function"
        },
        {
            "inputs": [
                {
                    "internalType": "address",
                    "name": "lostAddress",
                    "type": "address"
                }
            ],
            "name": "getCollateralType",
            "outputs": [
                {
                    "internalType": "address",
                    "name": "",
                    "type": "address"
                }
            ],
            "stateMutability": "view",
            "type": "function"
        },
        {
            "inputs": [],
            "name": "getCurrencyContract",
            "outputs": [
                {
                    "internalType": "address",
                    "name": "",
                    "type": "address"
                }
            ],
            "stateMutability": "view",
            "type": "function"
        },
        {
            "inputs": [
                {
                    "internalType": "address",
                    "name": "claimerAddress",
                    "type": "address"
                }
            ],
            "name": "getMsgHash",
            "outputs": [
                {
                    "internalType": "bytes32",
                    "name": "",
                    "type": "bytes32"
                }
            ],
            "stateMutability": "view",
            "type": "function"
        },
        {
            "inputs": [],
            "name": "getPendingOffer",
            "outputs": [
                {
                    "internalType": "address",
                    "name": "",
                    "type": "address"
                }
            ],
            "stateMutability": "view",
            "type": "function"
        },
        {
            "inputs": [
                {
                    "internalType": "address",
                    "name": "claimerAddress",
                    "type": "address"
                }
            ],
            "name": "getPreClaimTimeStamp",
            "outputs": [
                {
                    "internalType": "uint256",
                    "name": "",
                    "type": "uint256"
                }
            ],
            "stateMutability": "view",
            "type": "function"
        },
        {
            "inputs": [
                {
                    "internalType": "address",
                    "name": "lostAddress",
                    "type": "address"
                }
            ],
            "name": "getTimeStamp",
            "outputs": [
                {
                    "internalType": "uint256",
                    "name": "",
                    "type": "uint256"
                }
            ],
            "stateMutability": "view",
            "type": "function"
        },
        {
            "inputs": [],
            "name": "getWrappedContract",
            "outputs": [
                {
                    "internalType": "address",
                    "name": "",
                    "type": "address"
                }
            ],
            "stateMutability": "view",
            "type": "function"
        },
        {
            "inputs": [
                {
                    "internalType": "address",
                    "name": "spender",
                    "type": "address"
                },
                {
                    "internalType": "uint256",
                    "name": "addedValue",
                    "type": "uint256"
                }
            ],
            "name": "increaseAllowance",
            "outputs": [
                {
                    "internalType": "bool",
                    "name": "",
                    "type": "bool"
                }
            ],
            "stateMutability": "nonpayable",
            "type": "function"
        },
        {
            "inputs": [
                {
                    "internalType": "uint256",
                    "name": "pricePerShare",
                    "type": "uint256"
                }
            ],
            "name": "initiateAcquisition",
            "outputs": [],
            "stateMutability": "nonpayable",
            "type": "function"
        },
        {
            "inputs": [
                {
                    "internalType": "address",
                    "name": "target",
                    "type": "address"
                }
            ],
            "name": "isClaimsEnabled",
            "outputs": [
                {
                    "internalType": "bool",
                    "name": "",
                    "type": "bool"
                }
            ],
            "stateMutability": "view",
            "type": "function"
        },
        {
            "inputs": [],
            "name": "licenseFee",
            "outputs": [
                {
                    "internalType": "uint256",
                    "name": "",
                    "type": "uint256"
                }
            ],
            "stateMutability": "view",
            "type": "function"
        },
        {
            "inputs": [],
            "name": "licenseFeeRecipient",
            "outputs": [
                {
                    "internalType": "address",
                    "name": "",
                    "type": "address"
                }
            ],
            "stateMutability": "view",
            "type": "function"
        },
        {
            "inputs": [],
            "name": "migrate",
            "outputs": [],
            "stateMutability": "nonpayable",
            "type": "function"
        },
        {
            "inputs": [],
            "name": "migrationQuorum",
            "outputs": [
                {
                    "internalType": "uint256",
                    "name": "",
                    "type": "uint256"
                }
            ],
            "stateMutability": "view",
            "type": "function"
        },
        {
            "inputs": [],
            "name": "name",
            "outputs": [
                {
                    "internalType": "string",
                    "name": "",
                    "type": "string"
                }
            ],
            "stateMutability": "view",
            "type": "function"
        },
        {
            "inputs": [],
            "name": "offer",
            "outputs": [
                {
                    "internalType": "contract Acquisition",
                    "name": "",
                    "type": "address"
                }
            ],
            "stateMutability": "view",
            "type": "function"
        },
        {
            "inputs": [],
            "name": "offerExists",
            "outputs": [
                {
                    "internalType": "bool",
                    "name": "",
                    "type": "bool"
                }
            ],
            "stateMutability": "view",
            "type": "function"
        },
        {
            "inputs": [
                {
                    "internalType": "address",
                    "name": "from",
                    "type": "address"
                },
                {
                    "internalType": "uint256",
                    "name": "amount",
                    "type": "uint256"
                },
                {
                    "internalType": "bytes",
                    "name": "",
                    "type": "bytes"
                }
            ],
            "name": "onTokenTransfer",
            "outputs": [],
            "stateMutability": "nonpayable",
            "type": "function"
        },
        {
            "inputs": [],
            "name": "preClaimPeriod",
            "outputs": [
                {
                    "internalType": "uint256",
                    "name": "",
                    "type": "uint256"
                }
            ],
            "stateMutability": "view",
            "type": "function"
        },
        {
            "inputs": [],
            "name": "preClaimPeriodEnd",
            "outputs": [
                {
                    "internalType": "uint256",
                    "name": "",
                    "type": "uint256"
                }
            ],
            "stateMutability": "view",
            "type": "function"
        },
        {
            "inputs": [
                {
                    "internalType": "address",
                    "name": "",
                    "type": "address"
                }
            ],
            "name": "preClaims",
            "outputs": [
                {
                    "internalType": "bytes32",
                    "name": "msghash",
                    "type": "bytes32"
                },
                {
                    "internalType": "uint256",
                    "name": "timestamp",
                    "type": "uint256"
                }
            ],
            "stateMutability": "view",
            "type": "function"
        },
        {
            "inputs": [
                {
                    "internalType": "bytes32",
                    "name": "hashedpackage",
                    "type": "bytes32"
                }
            ],
            "name": "prepareClaim",
            "outputs": [],
            "stateMutability": "nonpayable",
            "type": "function"
        },
        {
            "inputs": [
                {
                    "internalType": "address",
                    "name": "lostAddress",
                    "type": "address"
                }
            ],
            "name": "resolveClaim",
            "outputs": [],
            "stateMutability": "nonpayable",
            "type": "function"
        },
        {
            "inputs": [
                {
                    "internalType": "bool",
                    "name": "enabled",
                    "type": "bool"
                }
            ],
            "name": "setClaimable",
            "outputs": [],
            "stateMutability": "nonpayable",
            "type": "function"
        },
        {
            "inputs": [],
            "name": "symbol",
            "outputs": [
                {
                    "internalType": "string",
                    "name": "",
                    "type": "string"
                }
            ],
            "stateMutability": "view",
            "type": "function"
        },
        {
            "inputs": [],
            "name": "terms",
            "outputs": [
                {
                    "internalType": "string",
                    "name": "",
                    "type": "string"
                }
            ],
            "stateMutability": "view",
            "type": "function"
        },
        {
            "inputs": [],
            "name": "totalSupply",
            "outputs": [
                {
                    "internalType": "uint256",
                    "name": "",
                    "type": "uint256"
                }
            ],
            "stateMutability": "view",
            "type": "function"
        },
        {
            "inputs": [
                {
                    "internalType": "address",
                    "name": "to",
                    "type": "address"
                },
                {
                    "internalType": "uint256",
                    "name": "value",
                    "type": "uint256"
                }
            ],
            "name": "transfer",
            "outputs": [
                {
                    "internalType": "bool",
                    "name": "",
                    "type": "bool"
                }
            ],
            "stateMutability": "nonpayable",
            "type": "function"
        },
        {
            "inputs": [
                {
                    "internalType": "address",
                    "name": "recipient",
                    "type": "address"
                },
                {
                    "internalType": "uint256",
                    "name": "amount",
                    "type": "uint256"
                },
                {
                    "internalType": "bytes",
                    "name": "data",
                    "type": "bytes"
                }
            ],
            "name": "transferAndCall",
            "outputs": [
                {
                    "internalType": "bool",
                    "name": "",
                    "type": "bool"
                }
            ],
            "stateMutability": "nonpayable",
            "type": "function"
        },
        {
            "inputs": [
                {
                    "internalType": "address",
                    "name": "sender",
                    "type": "address"
                },
                {
                    "internalType": "address",
                    "name": "recipient",
                    "type": "address"
                },
                {
                    "internalType": "uint256",
                    "name": "amount",
                    "type": "uint256"
                }
            ],
            "name": "transferFrom",
            "outputs": [
                {
                    "internalType": "bool",
                    "name": "",
                    "type": "bool"
                }
            ],
            "stateMutability": "nonpayable",
            "type": "function"
        },
        {
            "inputs": [
                {
                    "internalType": "uint256",
                    "name": "amount",
                    "type": "uint256"
                }
            ],
            "name": "unwrap",
            "outputs": [],
            "stateMutability": "nonpayable",
            "type": "function"
        },
        {
            "inputs": [],
            "name": "unwrapConversionFactor",
            "outputs": [
                {
                    "internalType": "uint256",
                    "name": "",
                    "type": "uint256"
                }
            ],
            "stateMutability": "view",
            "type": "function"
        },
        {
            "inputs": [
                {
                    "internalType": "address",
                    "name": "newCurrency",
                    "type": "address"
                }
            ],
            "name": "updateCurrency",
            "outputs": [],
            "stateMutability": "nonpayable",
            "type": "function"
        },
        {
            "inputs": [],
            "name": "voteNo",
            "outputs": [],
            "stateMutability": "nonpayable",
            "type": "function"
        },
        {
            "inputs": [],
            "name": "voteYes",
            "outputs": [],
            "stateMutability": "nonpayable",
            "type": "function"
        },
        {
            "inputs": [],
            "name": "wasAcquired",
            "outputs": [
                {
                    "internalType": "bool",
                    "name": "",
                    "type": "bool"
                }
            ],
            "stateMutability": "view",
            "type": "function"
        },
        {
            "inputs": [
                {
                    "internalType": "address",
                    "name": "shareholder",
                    "type": "address"
                },
                {
                    "internalType": "uint256",
                    "name": "amount",
                    "type": "uint256"
                }
            ],
            "name": "wrap",
            "outputs": [],
            "stateMutability": "nonpayable",
            "type": "function"
        }
    ],
    "bytecode": "608060405262ed4e00600455620151806005556202a3006006556001600d8190556014805460ff191690911790553480156200003a57600080fd5b506040516200588538038062005885833981810160405260608110156200006057600080fd5b81019080805160405193929190846401000000008211156200008157600080fd5b9083019060208201858111156200009757600080fd5b8251640100000000811182820188101715620000b257600080fd5b82525081516020918201929091019080838360005b83811015620000e1578181015183820152602001620000c7565b50505050905090810190601f1680156200010f5780820380516001836020036101000a031916815260200191505b506040818152602083810151938201516003805460ff19169055600c80546001600160a01b038088166001600160a01b031992831681179093556010805483167329fe8914e76da5ce2d90de98a64d0055f199d06d17905569010f0cf064dd59200000601155611d4c60128190556013819055600f80549286169290931691909117909155633a98ef3960e01b865293519597509095508694929384938793633a98ef3992600480820193918290030181600087803b158015620001d257600080fd5b505af1158015620001e7573d6000803e3d6000fd5b505050506040513d6020811015620001fe57600080fd5b50506040805163378c93ad60e01b815260006004820181905291516001600160a01b038916965063378c93ad955060248083019550929350919082900301818387803b1580156200024e57600080fd5b505af115801562000263573d6000803e3d6000fd5b505084516200027c925060159150602086019062000286565b5050505062000322565b828054600181600116156101000203166002900490600052602060002090601f016020900481019282601f10620002c957805160ff1916838001178555620002f9565b82800160010185558215620002f9579182015b82811115620002f9578251825591602001919060010190620002dc565b50620003079291506200030b565b5090565b5b808211156200030757600081556001016200030c565b61555380620003326000396000f3fe60806040523480156200001157600080fd5b5060043610620004005760003560e01c806375a88bcf1162000219578063bb6894721162000129578063de0e9a3e11620000bd578063eb470ebf1162000087578063eb470ebf1462000b98578063ec6580e21462000bc1578063ee18d99e1462000bcb578063f66f145a1462000bd55762000400565b8063de0e9a3e1462000b2b578063de4946851462000b4b578063e1b8c38e1462000b55578063e5a8765a1462000b5f5762000400565b8063c028df0611620000ff578063c028df061462000a84578063c6788bdd1462000a8e578063d50256251462000af0578063dd62ed3e1462000afa5762000400565b8063bb6894721462000a41578063bc1b1e7c1462000a4b578063bf376c7a1462000a555762000400565b806394d645a811620001ad578063a457c2d71162000177578063a457c2d71462000950578063a4c0ed36146200097f578063a9059cbb1462000a08578063a9d9d0c71462000a375762000400565b806394d645a814620008ea57806395d89b4114620009135780639b56d6c9146200091d5780639e8a9a5a14620009465762000400565b80637dde2a0211620001ef5780637dde2a0214620008a35780638e0597c114620008ad5780638fd3ab8014620008d657806390cf581c14620008e05762000400565b806375a88bcf146200084757806377e071ad14620008705780637dc2cd9814620008995762000400565b80633950935111620003155780635804791311620002a95780636467c09a11620002735780636467c09a14620008005780636b03ed5f146200080a5780636f4b18df146200081457806370a08231146200081e5762000400565b80635804791314620007a35780635b1c162514620007ad5780635e02760114620007cd5780636091811714620007f65762000400565b806341c12a7011620002eb57806341c12a70146200071757806342966c6814620007215780634900ca511462000741578063493c160f14620007615762000400565b80633950935114620006365780633bcc45ba14620006655780634000aea0146200068e5762000400565b80631e3b9de51162000399578063313ce5671162000363578063313ce56714620005c157806332a7ae9514620005e15780633549788a146200060a578063378c93ad14620006145762000400565b80631e3b9de5146200052c57806323b872dd146200055557806324b50e43146200058e5780632a0a4ed514620005b75762000400565b8063095ea7b311620003db578063095ea7b314620004c15780630c6f0e5d14620004f0578063141c7068146200051657806318160ddd14620005225762000400565b806302fb0c5e146200040557806306fdde0314620004235780630832e47014620004a5575b600080fd5b6200040f62000bfe565b604080519115158252519081900360200190f35b6200042d62000c07565b6040805160208082528351818301528351919283929083019185019080838360005b83811015620004695781810151838201526020016200044f565b50505050905090810190601f168015620004975780820380516001836020036101000a031916815260200191505b509250505060405180910390f35b620004af62000dc2565b60408051918252519081900360200190f35b6200040f60048036036040811015620004d957600080fd5b506001600160a01b03813516906020013562000dc8565b620004fa62000de1565b604080516001600160a01b039092168252519081900360200190f35b6200052062000df0565b005b620004af620011e0565b620004fa600480360360208110156200054457600080fd5b50356001600160a01b0316620011e6565b6200040f600480360360608110156200056d57600080fd5b506001600160a01b0381358116916020810135909116906040013562001207565b620004af60048036036020811015620005a657600080fd5b50356001600160a01b03166200125e565b620004fa62001279565b620005cb620012f1565b6040805160ff9092168252519081900360200190f35b6200052060048036036020811015620005f957600080fd5b50356001600160a01b0316620012fa565b620004af6200156a565b62000520600480360360208110156200062c57600080fd5b5035151562001570565b6200040f600480360360408110156200064e57600080fd5b506001600160a01b0381351690602001356200158f565b620004fa600480360360208110156200067d57600080fd5b50356001600160a01b0316620015c8565b6200040f60048036036060811015620006a657600080fd5b6001600160a01b0382351691602081013591810190606081016040820135600160201b811115620006d657600080fd5b820183602082011115620006e957600080fd5b803590602001918460018302840111600160201b831117156200070b57600080fd5b509092509050620015f0565b62000520620016b7565b62000520600480360360208110156200073957600080fd5b503562001793565b62000520600480360360208110156200075957600080fd5b503562001805565b6200078a600480360360208110156200077957600080fd5b50356001600160a01b031662001d39565b6040805192835260208301919091528051918290030190f35b620004fa62001d52565b6200052060048036036020811015620007c557600080fd5b503562001d61565b6200052060048036036020811015620007e557600080fd5b50356001600160a01b031662001dbc565b620004af62001f60565b620004fa62001f66565b6200052062001f75565b62000520620020df565b620004af600480360360208110156200083657600080fd5b50356001600160a01b031662002439565b620004af600480360360208110156200085f57600080fd5b50356001600160a01b031662002454565b620004af600480360360208110156200088857600080fd5b50356001600160a01b031662002472565b620004af62002527565b620004af6200252d565b6200040f60048036036020811015620008c557600080fd5b50356001600160a01b031662002533565b6200052062002548565b62000520620027dd565b62000520600480360360208110156200090257600080fd5b50356001600160a01b031662002856565b6200042d62002b4e565b620004af600480360360208110156200093557600080fd5b50356001600160a01b031662002cc6565b620004af62002ce4565b6200040f600480360360408110156200096857600080fd5b506001600160a01b03813516906020013562002cea565b62000520600480360360608110156200099757600080fd5b6001600160a01b0382351691602081013591810190606081016040820135600160201b811115620009c757600080fd5b820183602082011115620009da57600080fd5b803590602001918460018302840111600160201b83111715620009fc57600080fd5b50909250905062002d23565b6200040f6004803603604081101562000a2057600080fd5b506001600160a01b03813516906020013562002d4d565b620004af62002d62565b620004fa62002d68565b6200040f62002d77565b620005206004803603604081101562000a6d57600080fd5b506001600160a01b03813516906020013562002d94565b620004fa62002ecf565b62000ab76004803603602081101562000aa657600080fd5b50356001600160a01b031662002ede565b604080516001600160a01b039586168152602081019490945263ffffffff90921683830152909216606082015290519081900360800190f35b6200042d62002f19565b620004af6004803603604081101562000b1257600080fd5b506001600160a01b038135811691602001351662002fab565b620005206004803603602081101562000b4357600080fd5b503562002fd6565b620004fa6200310f565b620005206200311e565b620005206004803603606081101562000b7757600080fd5b506001600160a01b0381358116916020810135909116906040013562003272565b620004af6004803603602081101562000bb057600080fd5b50356001600160a01b0316620037eb565b6200040f6200380f565b620004af62003835565b6200040f6004803603602081101562000bed57600080fd5b50356001600160a01b03166200383b565b60145460ff1681565b600c54604080516306fdde0360e01b815290516060926001600160a01b0316916306fdde03916004808301926000929190829003018186803b15801562000c4d57600080fd5b505afa15801562000c62573d6000803e3d6000fd5b505050506040513d6000823e601f3d908101601f19168201604052602081101562000c8c57600080fd5b8101908080516040519392919084600160201b82111562000cac57600080fd5b90830190602082018581111562000cc257600080fd5b8251600160201b81118282018810171562000cdc57600080fd5b82525081516020918201929091019080838360005b8381101562000d0b57818101518382015260200162000cf1565b50505050905090810190601f16801562000d395780820380516001836020036101000a031916815260200191505b506040525050506040516020018080690223930b3b3b0b13632960b51b815250600a0182805190602001908083835b6020831062000d895780518252601f19909201916020918201910162000d68565b6001836020036101000a038019825116818451168082178552505050505050905001915050604051602081830303815290604052905090565b600d5481565b600062000dd73384846200385a565b5060015b92915050565b600a546001600160a01b031681565b62000dfa62002d77565b801562000e09575060145460ff165b62000e4a576040805162461bcd60e51b81526020600482015260196024820152600080516020620053c9833981519152604482015290519081900360640190fd5b600e54604080516338a86c5760e11b815290516000926001600160a01b031691637150d8ae916004808301926020929190829003018186803b15801562000e9057600080fd5b505afa15801562000ea5573d6000803e3d6000fd5b505050506040513d602081101562000ebc57600080fd5b50519050336001600160a01b0382161462000f095760405162461bcd60e51b8152600401808060200182810382526039815260200180620054ac6039913960400191505060405180910390fd5b600e60009054906101000a90046001600160a01b03166001600160a01b031663d7be4e296040518163ffffffff1660e01b815260040160206040518083038186803b15801562000f5857600080fd5b505afa15801562000f6d573d6000803e3d6000fd5b505050506040513d602081101562000f8457600080fd5b505162000fd8576040805162461bcd60e51b815260206004820181905260248201527f496e73756666696369656e74206e756d626572206f662079657320766f746573604482015290519081900360640190fd5b600e546001600160a01b0316639890f82462000ff36200310f565b62001013620010028562002439565b6200100c620011e0565b906200394a565b6040518363ffffffff1660e01b815260040180836001600160a01b031681526020018281526020019250505060206040518083038186803b1580156200105857600080fd5b505afa1580156200106d573d6000803e3d6000fd5b505050506040513d60208110156200108457600080fd5b5051620010d8576040805162461bcd60e51b815260206004820152601b60248201527f4f6666657220696e73756666696369656e746c792066756e6465640000000000604482015290519081900360640190fd5b600f54600e546040805163501ad8ff60e11b815290516200115f9385936001600160a01b039182169391169163a035b1fe91600480820192602092909190829003018186803b1580156200112b57600080fd5b505afa15801562001140573d6000803e3d6000fd5b505050506040513d60208110156200115757600080fd5b50516200395d565b600e5460408051338152600160208201526001600160a01b039283166060820152608081830181905260169082015275436f6d706c65746564207375636365737366756c6c7960501b60a08201529051918316917fc88f58ae9feb0742d9422f604dd3c1be6d02818f8dec340c5061f428b554e9759181900360c00190a250565b60025490565b6001600160a01b03808216600090815260076020526040902054165b919050565b60006200121684848462003b94565b6001600160a01b038416600090815260016020908152604080832033808552925290912054620012549186916200124e90866200394a565b6200385a565b5060019392505050565b6001600160a01b031660009081526008602052604090205490565b60006200128562001d52565b6001600160a01b0316632a0a4ed56040518163ffffffff1660e01b815260040160206040518083038186803b158015620012be57600080fd5b505afa158015620012d3573d6000803e3d6000fd5b505050506040513d6020811015620012ea57600080fd5b5051905090565b60035460ff1681565b6200130462001279565b6001600160a01b0316336001600160a01b0316146200136a576040805162461bcd60e51b815260206004820152601860248201527f596f752063616e6e6f742064656c65746520636c61696d730000000000000000604482015290519081900360640190fd5b6200137462004641565b506001600160a01b038082166000908152600760209081526040918290208251608081018452815485168152600182015492810183905260029091015463ffffffff811693820193909352600160201b90920490921660608201819052909162001416576040805162461bcd60e51b815260206004820152600e60248201526d139bc818db185a5b48199bdd5b9960921b604482015290519081900360640190fd5b6001600160a01b03808416600090815260076020908152604080832080546001600160a01b03191681556001810184905560020180546001600160c01b0319169055855186830151825163a9059cbb60e01b81529186166004830152602482015290519385169363a9059cbb93604480840194938390030190829087803b158015620014a157600080fd5b505af1158015620014b6573d6000803e3d6000fd5b505050506040513d6020811015620014cd57600080fd5b50516200151e576040805162461bcd60e51b815260206004820152601a60248201527910dbdb1b185d195c985b081d1c985b9cd9995c8819985a5b195960321b604482015290519081900360640190fd5b815160208084015160408051918252516001600160a01b03938416938716927fbb036e629a9f4c0897ee5d48440dfdb36f7e772117723a2ed603a6514244c2d5928290030190a3505050565b60135481565b336000908152600960205260409020805460ff19169115919091179055565b3360008181526001602090815260408083206001600160a01b0387168452909152812054909162000dd79185906200124e908662003ba6565b6001600160a01b03908116600090815260076020526040902060020154600160201b90041690565b600080620015ff868662002d4d565b90508015620016ae57856001600160a01b031663a4c0ed36338787876040518563ffffffff1660e01b815260040180856001600160a01b03168152602001848152602001806020018281038252848482818152602001925080828437600081840152601f19601f82011690508083019250505095505050505050600060405180830381600087803b1580156200169457600080fd5b505af1158015620016a9573d6000803e3d6000fd5b505050505b95945050505050565b620016c162002d77565b8015620016d0575060145460ff165b62001711576040805162461bcd60e51b81526020600482015260196024820152600080516020620053c9833981519152604482015290519081900360640190fd5b600e5433906001600160a01b0316634b91562e82620017308162002439565b6040518363ffffffff1660e01b815260040180836001600160a01b0316815260200182815260200192505050600060405180830381600087803b1580156200177757600080fd5b505af11580156200178c573d6000803e3d6000fd5b5050505050565b6200179f338262003bb4565b620017a962001d52565b6001600160a01b03166342966c68620017ce600d548462003bc090919063ffffffff16565b6040518263ffffffff1660e01b815260040180828152602001915050600060405180830381600087803b1580156200177757600080fd5b60145460ff166200185d576040805162461bcd60e51b815260206004820152601860248201527f416e206163636570746564206f66666572206578697374730000000000000000604482015290519081900360640190fd5b60006200186962001d52565b6001600160a01b0316633a98ef396040518163ffffffff1660e01b8152600401602060405180830381600087803b158015620018a457600080fd5b505af1158015620018b9573d6000803e3d6000fd5b505050506040513d6020811015620018d057600080fd5b5051905033620018f1612710620018ea84610bb862003bc0565b9062003be9565b620018fb620011e0565b10156200193a5760405162461bcd60e51b815260040180806020018281038252602e8152602001806200545a602e913960400191505060405180910390fd5b6200194f612710620018ea846101f462003bc0565b6200195a8262002439565b1015620019995760405162461bcd60e51b8152600401808060200182810382526039815260200180620054e56039913960400191505060405180910390fd5b600f54601054601154604080516323b872dd60e01b81526001600160a01b038681166004830152938416602482015260448101929092525191909216916323b872dd9160648083019260209291908290030181600087803b158015620019fe57600080fd5b505af115801562001a13573d6000803e3d6000fd5b505050506040513d602081101562001a2a57600080fd5b505162001a7e576040805162461bcd60e51b815260206004820152601860248201527f43757272656e6379207472616e73666572206661696c65640000000000000000604482015290519081900360640190fd5b6000338460135460405162001a939062004668565b80846001600160a01b031681526020018381526020018281526020019350505050604051809103906000f08015801562001ad1573d6000803e3d6000fd5b509050806001600160a01b0316639890f82462001aed6200310f565b62001af88562002439565b62001b02620011e0565b036040518363ffffffff1660e01b815260040180836001600160a01b031681526020018281526020019250505060206040518083038186803b15801562001b4857600080fd5b505afa15801562001b5d573d6000803e3d6000fd5b505050506040513d602081101562001b7457600080fd5b505162001bbf576040805162461bcd60e51b8152602060048201526014602482015273496e73756666696369656e742066756e64696e6760601b604482015290519081900360640190fd5b62001bc962002d77565b1562001cc55762001c61612710620018ea612904600e60009054906101000a90046001600160a01b03166001600160a01b031663a035b1fe6040518163ffffffff1660e01b815260040160206040518083038186803b15801562001c2c57600080fd5b505afa15801562001c41573d6000803e3d6000fd5b505050506040513d602081101562001c5857600080fd5b50519062003bc0565b84101562001ca15760405162461bcd60e51b815260040180806020018281038252603c8152602001806200538d603c913960400191505060405180910390fd5b62001cc5604051806060016040528060228152602001620052966022913962003bfd565b600e80546001600160a01b0319166001600160a01b038381169190911790915582167f9c00f159b1fa9eaebda7acaf50be0bf3a652277380f907b35cb681bd641a62d38562001d1362001f66565b604080519283526001600160a01b0390911660208301528051918290030190a250505050565b6008602052600090815260409020805460019091015482565b600c546001600160a01b031690565b604080518082018252828152426020808301918252336000818152600890925284822093518455915160019093019290925591517f4c767b7b6b4e5b19edbb3ce0f841c467aa366beda334c58254bb264371819a119190a250565b62001dc662002d77565b1562001e14576040805162461bcd60e51b81526020600482015260186024820152772a3432b9329034b99030903832b73234b7339037b33332b960411b604482015290519081900360640190fd5b60145460ff1662001e65576040805162461bcd60e51b8152602060048201526016602482015275436f6e7472616374206973206e6f742061637469766560501b604482015290519081900360640190fd5b806001600160a01b031662001e796200310f565b6001600160a01b031663ee5554d36040518163ffffffff1660e01b8152600401602060405180830381600087803b15801562001eb457600080fd5b505af115801562001ec9573d6000803e3d6000fd5b505050506040513d602081101562001ee057600080fd5b50516001600160a01b03161462001f3e576040805162461bcd60e51b815260206004820152601760248201527f496e76616c69642063757272656e637920757064617465000000000000000000604482015290519081900360640190fd5b600f80546001600160a01b0319166001600160a01b0392909216919091179055565b600b5481565b600e546001600160a01b031690565b3360009081526007602052604090206001015415620020dd5733600081815260076020908152604080832060018101805460028301805484546001600160a01b031916909455918690556001600160c01b03198316909155825163a9059cbb60e01b815260048101969096526024860181905291519194600160201b9091046001600160a01b031693849363a9059cbb93604480850194929391928390030190829087803b1580156200202757600080fd5b505af11580156200203c573d6000803e3d6000fd5b505050506040513d60208110156200205357600080fd5b5051620020a4576040805162461bcd60e51b815260206004820152601a60248201527910dbdb1b185d195c985b081d1c985b9cd9995c8819985a5b195960321b604482015290519081900360640190fd5b60408051838152905133917f203627483d943880619f4b7e0cca21dbefd6204b4d85b124eb99540e17ba86dd919081900360200190a250505b565b620020e962002d77565b8015620020f8575060145460ff165b62002139576040805162461bcd60e51b81526020600482015260196024820152600080516020620053c9833981519152604482015290519081900360640190fd5b600e60009054906101000a90046001600160a01b03166001600160a01b03166390e64d136040518163ffffffff1660e01b815260040160206040518083038186803b1580156200218857600080fd5b505afa1580156200219d573d6000803e3d6000fd5b505050506040513d6020811015620021b457600080fd5b505115620021f257620021ec6040518060400160405280600d81526020016c13d999995c88195e1c1a5c9959609a1b81525062003bfd565b620020dd565b600e60009054906101000a90046001600160a01b03166001600160a01b031663cf42a9276040518163ffffffff1660e01b815260040160206040518083038186803b1580156200224157600080fd5b505afa15801562002256573d6000803e3d6000fd5b505050506040513d60208110156200226d57600080fd5b505115620022aa57620021ec60405180604001604052806012815260200171139bdd08195b9bdd59da081cdd5c1c1bdc9d60721b81525062003bfd565b600e546001600160a01b0316639890f824620022c56200310f565b6200235062001002600e60009054906101000a90046001600160a01b03166001600160a01b0316637150d8ae6040518163ffffffff1660e01b815260040160206040518083038186803b1580156200231c57600080fd5b505afa15801562002331573d6000803e3d6000fd5b505050506040513d60208110156200234857600080fd5b505162002439565b6040518363ffffffff1660e01b815260040180836001600160a01b031681526020018281526020019250505060206040518083038186803b1580156200239557600080fd5b505afa158015620023aa573d6000803e3d6000fd5b505050506040513d6020811015620023c157600080fd5b5051620023ec57620021ec604051806060016040528060218152602001620052ff6021913962003bfd565b6040805162461bcd60e51b815260206004820181905260248201527f4163717569736974696f6e20636f6e7465737420756e7375636365737366756c604482015290519081900360640190fd5b6001600160a01b031660009081526020819052604090205490565b6001600160a01b031660009081526008602052604090206001015490565b600080620024808362003dcd565b905080156200249157905062001202565b6200249b62001d52565b6001600160a01b0316836001600160a01b03161415620024c0575050600d5462001202565b6200251e600d54620024d162001d52565b6001600160a01b03166377e071ad866040518263ffffffff1660e01b815260040180826001600160a01b0316815260200191505060206040518083038186803b15801562001c2c57600080fd5b91505062001202565b60045481565b60065481565b60096020526000908152604090205460ff1681565b60145460ff1662002599576040805162461bcd60e51b8152602060048201526016602482015275436f6e7472616374206973206e6f742061637469766560501b604482015290519081900360640190fd5b6000339050620025bd612710620018ea601254620025b6620011e0565b9062003bc0565b620025c88262002439565b101562002611576040805162461bcd60e51b8152602060048201526012602482015271145d5bdc9d5b481b9bdd081c995858da195960721b604482015290519081900360640190fd5b6200261b62002d77565b156200279057600e60009054906101000a90046001600160a01b03166001600160a01b031663cf42a9276040518163ffffffff1660e01b815260040160206040518083038186803b1580156200267057600080fd5b505afa15801562002685573d6000803e3d6000fd5b505050506040513d60208110156200269c57600080fd5b50516200277457620026ad620016b7565b600e60009054906101000a90046001600160a01b03166001600160a01b031663cf42a9276040518163ffffffff1660e01b815260040160206040518083038186803b158015620026fc57600080fd5b505afa15801562002711573d6000803e3d6000fd5b505050506040513d60208110156200272857600080fd5b505162002774576040805162461bcd60e51b8152602060048201526015602482015274145d5bdc9d5b481a185cc81b9bdd0819985a5b1959605a1b604482015290519081900360640190fd5b6200277e620020df565b6200278862002d77565b156200279057fe5b6200279e818260016200395d565b604080516001600160a01b038316815290517f3b6b79a09e9fd230e8591b65c97236bf7df7a604edf733db0658e66b0e6eb2a99181900360200190a150565b620027e762002d77565b8015620027f6575060145460ff165b62002837576040805162461bcd60e51b81526020600482015260196024820152600080516020620053c9833981519152604482015290519081900360640190fd5b600e5433906001600160a01b0316635ff0cf8482620017308162002439565b6200286062004641565b506001600160a01b038082166000908152600760209081526040918290208251608081018452815485168152600182015492810183905260029091015463ffffffff811693820193909352600160201b909204909216606082018190529091908162002904576040805162461bcd60e51b815260206004820152600e60248201526d139bc818db185a5b48199bdd5b9960921b604482015290519081900360640190fd5b82516001600160a01b0316331462002963576040805162461bcd60e51b815260206004820152601f60248201527f4f6e6c7920636c61696d616e742063616e207265736f6c766520636c61696d00604482015290519081900360640190fd5b426200298b60045463ffffffff16856040015163ffffffff1662003ba690919063ffffffff16565b1115620029df576040805162461bcd60e51b815260206004820152601960248201527f436c61696d20706572696f64206e6f74206f7665722079657400000000000000604482015290519081900360640190fd5b82516001600160a01b03808616600090815260076020908152604080832080546001600160a01b03191681556001810184905560020180546001600160c01b0319169055805163a9059cbb60e01b815284861660048201526024810188905290519386169363a9059cbb93604480840194938390030190829087803b15801562002a6857600080fd5b505af115801562002a7d573d6000803e3d6000fd5b505050506040513d602081101562002a9457600080fd5b505162002ae5576040805162461bcd60e51b815260206004820152601a60248201527910dbdb1b185d195c985b081d1c985b9cd9995c8819985a5b195960321b604482015290519081900360640190fd5b62002afc858262002af68862002439565b62003b94565b806001600160a01b0316856001600160a01b03167f52a5c2b28bc6eb9712d0ced43463103b486b13ccc9cda499fd3b2d7b6a74a8ee856040518082815260200191505060405180910390a35050505050565b600c54604080516395d89b4160e01b815290516060926001600160a01b0316916395d89b41916004808301926000929190829003018186803b15801562002b9457600080fd5b505afa15801562002ba9573d6000803e3d6000fd5b505050506040513d6000823e601f3d908101601f19168201604052602081101562002bd357600080fd5b8101908080516040519392919084600160201b82111562002bf357600080fd5b90830190602082018581111562002c0957600080fd5b8251600160201b81118282018810171562002c2357600080fd5b82525081516020918201929091019080838360005b8381101562002c5257818101518382015260200162002c38565b50505050905090810190601f16801562002c805780820380516001836020036101000a031916815260200191505b506040525050506040516020018080601160fa1b81525060010182805190602001908083836020831062000d895780518252601f19909201916020918201910162000d68565b6001600160a01b031660009081526007602052604090206001015490565b60125481565b3360008181526001602090815260408083206001600160a01b0387168452909152812054909162000dd79185906200124e90866200394a565b600c546001600160a01b0316331462002d3b57600080fd5b62002d47848462003e14565b50505050565b600062002d5b838362003ed0565b5092915050565b60115481565b6010546001600160a01b031681565b60008062002d8462001f66565b6001600160a01b03161415905090565b62002d9e62002d77565b1562002dec576040805162461bcd60e51b81526020600482015260186024820152772a3432b9329034b99030903832b73234b7339037b33332b960411b604482015290519081900360640190fd5b600c54604080516323b872dd60e01b81523360048201523060248201526044810184905290516001600160a01b03909216916323b872dd916064808201926020929091908290030181600087803b15801562002e4757600080fd5b505af115801562002e5c573d6000803e3d6000fd5b505050506040513d602081101562002e7357600080fd5b505162002ebf576040805162461bcd60e51b815260206004820152601560248201527414da185c99481d1c985b9cd9995c8819985a5b1959605a1b604482015290519081900360640190fd5b62002ecb828262003e14565b5050565b600e546001600160a01b031681565b6007602052600090815260409020805460018201546002909201546001600160a01b03918216929163ffffffff821691600160201b90041684565b6015805460408051602060026001851615610100026000190190941693909304601f8101849004840282018401909252818152929183018282801562002fa35780601f1062002f775761010080835404028352916020019162002fa3565b820191906000526020600020905b81548152906001019060200180831162002f8557829003601f168201915b505050505081565b6001600160a01b03918216600090815260016020908152604080832093909416825291909152205490565b60145460ff16156200301a5760405162461bcd60e51b8152600401808060200182810382526036815260200180620053206036913960400191505060405180910390fd5b62003026338262003bb4565b600c54600d546001600160a01b039091169063a9059cbb9033906200304d90859062003bc0565b6040518363ffffffff1660e01b815260040180836001600160a01b0316815260200182815260200192505050602060405180830381600087803b1580156200309457600080fd5b505af1158015620030a9573d6000803e3d6000fd5b505050506040513d6020811015620030c057600080fd5b50516200310c576040805162461bcd60e51b815260206004820152601560248201527414da185c99481d1c985b9cd9995c8819985a5b1959605a1b604482015290519081900360640190fd5b50565b600f546001600160a01b031690565b6200312862002d77565b801562003137575060145460ff165b62003178576040805162461bcd60e51b81526020600482015260196024820152600080516020620053c9833981519152604482015290519081900360640190fd5b600e60009054906101000a90046001600160a01b03166001600160a01b0316637150d8ae6040518163ffffffff1660e01b815260040160206040518083038186803b158015620031c757600080fd5b505afa158015620031dc573d6000803e3d6000fd5b505050506040513d6020811015620031f357600080fd5b50516001600160a01b031633146200323d5760405162461bcd60e51b8152600401808060200182810382526037815260200180620053566037913960400191505060405180910390fd5b620020dd6040518060400160405280601281526020017121b0b731b2b63632b210313c90313abcb2b960711b81525062003bfd565b6001600160a01b038216620032ce576040805162461bcd60e51b815260206004820152601860248201527f43616e277420636c61696d207a65726f20616464726573730000000000000000604482015290519081900360640190fd5b620032d9826200383b565b6200332b576040805162461bcd60e51b815260206004820181905260248201527f436c61696d732064697361626c656420666f7220746869732061646472657373604482015290519081900360640190fd5b6000620033388462002472565b90506000811162003390576040805162461bcd60e51b815260206004820152601b60248201527f556e737570706f7274656420636f6c6c61746572616c20747970650000000000604482015290519081900360640190fd5b3360006200339e8562002439565b90506000620033ae828562003bc0565b9050868262003404576040805162461bcd60e51b815260206004820152601f60248201527f436c61696d6564206164647265737320686f6c6473206e6f2073686172657300604482015290519081900360640190fd5b60408051636eb1769f60e11b81526001600160a01b0386811660048301523060248301529151849284169163dd62ed3e916044808301926020929190829003018186803b1580156200345557600080fd5b505afa1580156200346a573d6000803e3d6000fd5b505050506040513d60208110156200348157600080fd5b50511015620034d7576040805162461bcd60e51b815260206004820152601f60248201527f43757272656e637920616c6c6f77616e636520696e73756666696369656e7400604482015290519081900360640190fd5b81816001600160a01b03166370a08231866040518263ffffffff1660e01b815260040180826001600160a01b0316815260200191505060206040518083038186803b1580156200352657600080fd5b505afa1580156200353b573d6000803e3d6000fd5b505050506040513d60208110156200355257600080fd5b50511015620035a8576040805162461bcd60e51b815260206004820152601d60248201527f43757272656e63792062616c616e636520696e73756666696369656e74000000604482015290519081900360640190fd5b6001600160a01b0387166000908152600760205260409020600101541562003617576040805162461bcd60e51b815260206004820152601760248201527f4164647265737320616c726561647920636c61696d6564000000000000000000604482015290519081900360640190fd5b62003623878762003f2c565b604080516323b872dd60e01b81526001600160a01b038681166004830152306024830152604482018590529151918316916323b872dd916064808201926020929091908290030181600087803b1580156200367d57600080fd5b505af115801562003692573d6000803e3d6000fd5b505050506040513d6020811015620036a957600080fd5b5051620036fa576040805162461bcd60e51b815260206004820152601a60248201527910dbdb1b185d195c985b081d1c985b9cd9995c8819985a5b195960321b604482015290519081900360640190fd5b604080516080810182526001600160a01b0386811680835260208084018781524263ffffffff9081168688019081528f8616606088019081528f87166000818152600787528a812099518a546001600160a01b031916908a16178a5594516001808b0191909155925160029099018054925163ffffffff199093169990941698909817640100000000600160c01b031916600160201b919097160295909517905582815260088252858120818155909301929092558351878152935190937f1982ca8958fc8a8176cb52be509260f4bc5af7ce04e1533711793f1c56dd535992908290030190a35050505050505050565b6001600160a01b031660009081526007602052604090206002015463ffffffff1690565b60006200381b62002d77565b6200382857600062003830565b60145460ff16155b905090565b60055481565b6001600160a01b031660009081526009602052604090205460ff161590565b6001600160a01b038316620038a15760405162461bcd60e51b8152600401808060200182810382526024815260200180620054886024913960400191505060405180910390fd5b6001600160a01b038216620038e85760405162461bcd60e51b8152600401808060200182810382526022815260200180620052b86022913960400191505060405180910390fd5b6001600160a01b03808416600081815260016020908152604080832094871680845294825291829020859055815185815291517f8c5be1e5ebec7d5bd14f71427d1e84f3dd0314c0f7b2291e5b200ac8c7c3b9259281900390910190a3505050565b6000828211156200395757fe5b50900390565b60006200396a8462002439565b9050600062003978620011e0565b6014805460ff1916905590506200398f8262002fd6565b60006200399d82846200394a565b600c546040805163a9059cbb60e01b81526001600160a01b038a8116600483015260248201859052915193945091169163a9059cbb916044808201926020929091908290030181600087803b158015620039f657600080fd5b505af115801562003a0b573d6000803e3d6000fd5b505050506040513d602081101562003a2257600080fd5b505162003a76576040805162461bcd60e51b815260206004820152601d60248201527f5772617070656420746f6b656e207472616e73666572206661696c6564000000604482015290519081900360640190fd5b6001600160a01b0385166323b872dd873062003a93888662003bc0565b6040518463ffffffff1660e01b815260040180846001600160a01b03168152602001836001600160a01b031681526020018281526020019350505050602060405180830381600087803b15801562003aea57600080fd5b505af115801562003aff573d6000803e3d6000fd5b505050506040513d602081101562003b1657600080fd5b505162003b6a576040805162461bcd60e51b815260206004820152601760248201527f4261636b696e67207472616e73666572206661696c6564000000000000000000604482015290519081900360640190fd5b5050600c80546001600160a01b0319166001600160a01b039490941693909317909255600d555050565b62003ba183838362004105565b505050565b8181018281101562000ddb57fe5b62002ecb8282620041ad565b60008262003bd15750600062000ddb565b508181028183828162003be057fe5b041462000ddb57fe5b600081838162003bf557fe5b049392505050565b600e54604080516338a86c5760e11b815290516000926001600160a01b031691637150d8ae916004808301926020929190829003018186803b15801562003c4357600080fd5b505afa15801562003c58573d6000803e3d6000fd5b505050506040513d602081101562003c6f57600080fd5b505190506001600160a01b0381167fc88f58ae9feb0742d9422f604dd3c1be6d02818f8dec340c5061f428b554e9753360008562003cac62001f66565b60405180856001600160a01b03168152602001841515815260200180602001836001600160a01b03168152602001828103825284818151815260200191508051906020019080838360005b8381101562003d1157818101518382015260200162003cf7565b50505050905090810190601f16801562003d3f5780820380516001836020036101000a031916815260200191505b509550505050505060405180910390a2600e60009054906101000a90046001600160a01b03166001600160a01b03166341c0e1b56040518163ffffffff1660e01b8152600401600060405180830381600087803b15801562003da057600080fd5b505af115801562003db5573d6000803e3d6000fd5b5050600e80546001600160a01b031916905550505050565b60006001600160a01b03821630141562003dea5750600162001202565b600a546001600160a01b038381169116141562003e0b5750600b5462001202565b50600062001202565b62003e1e62002d77565b1562003e6c576040805162461bcd60e51b81526020600482015260186024820152772a3432b9329034b99030903832b73234b7339037b33332b960411b604482015290519081900360640190fd5b60145460ff1662003ec4576040805162461bcd60e51b815260206004820152601d60248201527f436f6e7472616374206e6f742061637469766520616e79206d6f72652e000000604482015290519081900360640190fd5b62002ecb8282620042a7565b600062003ede8383620042b3565b62003f22576040805162461bcd60e51b815260206004820152600f60248201526e151c985b9cd9995c8819985a5b1959608a1b604482015290519081900360640190fd5b62000dd762001f75565b62003f3662004676565b5033600090815260086020908152604091829020825180840190935280548084526001909101549183019190915262003fb6576040805162461bcd60e51b815260206004820152601a60248201527f4d65737361676520686173682063616e2774206265207a65726f000000000000604482015290519081900360640190fd5b4262003fd2600554836020015162003ba690919063ffffffff16565b1115620040115760405162461bcd60e51b815260040180806020018281038252602b8152602001806200542f602b913960400191505060405180910390fd5b426200402d600654836020015162003ba690919063ffffffff16565b10156200406c5760405162461bcd60e51b8152600401808060200182810382526025815260200180620052da6025913960400191505060405180910390fd5b60408051602080820185905233606090811b8385015286901b6bffffffffffffffffffffffff19166054830152825180830360480181526068909201909252805191012081511462003ba1576040805162461bcd60e51b815260206004820152601e60248201527f5061636b61676520636f756c64206e6f742062652076616c6964617465640000604482015290519081900360640190fd5b62004112838383620042c2565b6200411c62002d77565b80156200412b575060145460ff165b1562003ba157600e5460408051636240a7d760e11b81526001600160a01b0386811660048301528581166024830152604482018590529151919092169163c4814fae91606480830192600092919082900301818387803b1580156200418f57600080fd5b505af1158015620041a4573d6000803e3d6000fd5b50505050505050565b80620041b93362002439565b101562004204576040805162461bcd60e51b815260206004820152601460248201527310985b185b98d9481a5b9cdd59999a58da595b9d60621b604482015290519081900360640190fd5b62004210828262004400565b6200421a62002d77565b801562004229575060145460ff165b1562002ecb57600e5460408051636240a7d760e11b81526001600160a01b03858116600483015260006024830181905260448301869052925193169263c4814fae9260648084019391929182900301818387803b1580156200428a57600080fd5b505af11580156200429f573d6000803e3d6000fd5b505050505050565b62002ecb8282620044d3565b600062000dd733848462003b94565b6001600160a01b038316620043095760405162461bcd60e51b81526004018080602001828103825260258152602001806200540a6025913960400191505060405180910390fd5b6001600160a01b038216620043505760405162461bcd60e51b8152600401808060200182810382526023815260200180620052736023913960400191505060405180910390fd5b6001600160a01b0383166000908152602081905260409020546200437590826200394a565b6001600160a01b038085166000908152602081905260408082209390935590841681522054620043a6908262003ba6565b6001600160a01b038084166000818152602081815260409182902094909455805185815290519193928716927fddf252ad1be2c89b69c2b068fc378daa952ba7f163c4a11628f55a4df523b3ef92918290030190a3505050565b6001600160a01b038216620044475760405162461bcd60e51b8152600401808060200182810382526021815260200180620053e96021913960400191505060405180910390fd5b6002546200445690826200394a565b6002556001600160a01b0382166000908152602081905260409020546200447e90826200394a565b6001600160a01b038316600081815260208181526040808320949094558351858152935191937fddf252ad1be2c89b69c2b068fc378daa952ba7f163c4a11628f55a4df523b3ef929081900390910190a35050565b620044df828262004558565b620044e962002d77565b8015620044f8575060145460ff165b1562002ecb57600e5460408051636240a7d760e11b81526000600482018190526001600160a01b038681166024840152604483018690529251929093169263c4814fae9260648084019382900301818387803b1580156200428a57600080fd5b6001600160a01b038216620045b4576040805162461bcd60e51b815260206004820152601f60248201527f45524332303a206d696e7420746f20746865207a65726f206164647265737300604482015290519081900360640190fd5b600254620045c3908262003ba6565b6002556001600160a01b038216600090815260208190526040902054620045eb908262003ba6565b6001600160a01b0383166000818152602081815260408083209490945583518581529351929391927fddf252ad1be2c89b69c2b068fc378daa952ba7f163c4a11628f55a4df523b3ef9281900390910190a35050565b60408051608081018252600080825260208201819052918101829052606081019190915290565b610be5806200468e83390190565b60408051808201909152600080825260208201529056fe608060405234801561001057600080fd5b50604051610be5380380610be58339818101604052606081101561003357600080fd5b508051602082015160409092015190919081610096576040805162461bcd60e51b815260206004820152601460248201527f50726963652063616e6e6f74206265207a65726f000000000000000000000000604482015290519081900360640190fd5b600180546001600160a01b03199081163317909155600280546001600160a01b0395909516949091169390931790925560035560005542600455610b06806100df6000396000f3fe608060405234801561001057600080fd5b50600436106101215760003560e01c80639890f824116100ad578063c4814fae11610071578063c4814fae14610282578063cf42a927146102b8578063d7be4e29146102c0578063fa7f1bae146102c8578063fb286c65146102d057610121565b80639890f82414610236578063a035b1fe14610262578063b1610d7e1461026a578063b5b47f4214610272578063b80777ea1461027a57610121565b80634b91562e116100f45780634b91562e1461018c5780635ff0cf84146101b85780637150d8ae146101e45780638f1b4c6f1461020857806390e64d131461022e57610121565b80630c43cd88146101265780631703a0181461014057806341c0e1b514610148578063448ab4c614610152575b600080fd5b61012e6102d8565b60408051918252519081900360200190f35b61012e6102df565b6101506102e5565b005b6101786004803603602081101561016857600080fd5b50356001600160a01b031661033c565b604080519115158252519081900360200190f35b610150600480360360408110156101a257600080fd5b506001600160a01b03813516906020013561036f565b610150600480360360408110156101ce57600080fd5b506001600160a01b038135169060200135610417565b6101ec6104bb565b604080516001600160a01b039092168252519081900360200190f35b6101786004803603602081101561021e57600080fd5b50356001600160a01b03166104ca565b6101786104d3565b6101786004803603604081101561024c57600080fd5b506001600160a01b0381351690602001356104f7565b61012e610633565b61012e610639565b61012e610640565b61012e610646565b6101506004803603606081101561029857600080fd5b506001600160a01b0381358116916020810135909116906040013561064c565b6101786106df565b61017861082a565b6101786108e3565b61012e610907565b6276a70081565b60005481565b6001546001600160a01b0316331461032e5760405162461bcd60e51b8152600401808060200182810382526025815260200180610aac6025913960400191505060405180910390fd5b6002546001600160a01b0316ff5b600060015b6001600160a01b03831660009081526007602052604090205460ff16600281111561036857fe5b1492915050565b6001546001600160a01b031633146103b85760405162461bcd60e51b8152600401808060200182810382526025815260200180610aac6025913960400191505060405180910390fd5b6103c06108e3565b610407576040805162461bcd60e51b81526020600482015260136024820152722a3432903b37ba32903430b99032b73232b21760691b604482015290519081900360640190fd5b6104136002828461090d565b5050565b6001546001600160a01b031633146104605760405162461bcd60e51b8152600401808060200182810382526025815260200180610aac6025913960400191505060405180910390fd5b6104686108e3565b6104af576040805162461bcd60e51b81526020600482015260136024820152722a3432903b37ba32903430b99032b73232b21760691b604482015290519081900360640190fd5b6104136001828461090d565b6002546001600160a01b031681565b60006002610341565b6000806104eb6004544261095390919063ffffffff16565b6276a700109150505b90565b600254604080516370a0823160e01b81526001600160a01b039283166004820152905160009285928492918416916370a0823191602480820192602092909190829003018186803b15801561054b57600080fd5b505afa15801561055f573d6000803e3d6000fd5b505050506040513d602081101561057557600080fd5b505160025460015460408051636eb1769f60e11b81526001600160a01b0393841660048201529183166024830152519293506000929185169163dd62ed3e91604480820192602092909190829003018186803b1580156105d457600080fd5b505afa1580156105e8573d6000803e3d6000fd5b505050506040513d60208110156105fe57600080fd5b5051600354909150600090610614908790610965565b90508281111580156106265750818111155b9450505050505b92915050565b60035481565b624f1a0081565b60055481565b60045481565b6001546001600160a01b031633146106955760405162461bcd60e51b8152600401808060200182810382526025815260200180610aac6025913960400191505060405180910390fd5b61069d6108e3565b156106da576001600160a01b0380841660009081526007602052604080822054928516825290205460ff91821691166106d782828561098a565b50505b505050565b60006106e96108e3565b156107fe57600054600154604080516318160ddd60e01b815290516107f6926001600160a01b0316916318160ddd916004808301926020929190829003018186803b15801561073757600080fd5b505afa15801561074b573d6000803e3d6000fd5b505050506040513d602081101561076157600080fd5b5051600554600154604080516318160ddd60e01b815290516107f093612710936107ea9391926001600160a01b03909116916318160ddd916004808301926020929190829003018186803b1580156107b857600080fd5b505afa1580156107cc573d6000803e3d6000fd5b505050506040513d60208110156107e257600080fd5b505190610953565b90610965565b90610a8b565b1090506104f4565b6000546107f661081b600554600654610a9e90919063ffffffff16565b6006546107f090612710610965565b60006108346108e3565b156108c657600054600154604080516318160ddd60e01b815290516108bd926001600160a01b0316916318160ddd916004808301926020929190829003018186803b15801561088257600080fd5b505afa158015610896573d6000803e3d6000fd5b505050506040513d60208110156108ac57600080fd5b50516006546107f090612710610965565b101590506104f4565b6000546108bd61081b600554600654610a9e90919063ffffffff16565b6000806108fb6004544261095390919063ffffffff16565b624f1a00101591505090565b60065481565b6001600160a01b0381166000908152600760205260409020805460ff811691859182919060ff1916600183600281111561094357fe5b02179055506106d782828661098a565b60008282111561095f57fe5b50900390565b6000826109745750600061062d565b508181028183828161098257fe5b041461062d57fe5b81600281111561099657fe5b8360028111156109a257fe5b146106da5760028360028111156109b557fe5b14156109d0576005546109c89082610953565b6005556109f5565b60018360028111156109de57fe5b14156109f5576006546109f19082610953565b6006555b6002826002811115610a0357fe5b1415610a1e57600554610a169082610a9e565b600555610a43565b6001826002811115610a2c57fe5b1415610a4357600654610a3f9082610a9e565b6006555b7f8fcc50c2c4edd06d51ae66e9e21ed76b32a1766c57f491788e1aa24a1b58c256600654600554604051808381526020018281526020019250505060405180910390a1505050565b6000818381610a9657fe5b049392505050565b8181018281101561062d57fefe43616e206f6e6c792062652063616c6c656420627920706172656e7420636f6e7472616374a2646970667358221220afe27ad59ae21a2b88299b9d942bc5f0f304fc0a77263196edfcf45f1bd1fbfc64736f6c634300060c003345524332303a207472616e7366657220746f20746865207a65726f20616464726573734f6666657220776173207265706c616365642062792061206869676865722062696445524332303a20617070726f766520746f20746865207a65726f2061646472657373507265636c61696d20706572696f6420656e642e20436c61696d656420746f6f206c6174654f6666657220776173206e6f742073756666696369656e746c792066756e6465644173206c6f6e672061732074686520636f6e7472616374206973206163746976652c20796f752061726520626f756e6420746f206974596f7520617265206e6f7420617574686f72697a656420746f2063616e63656c2074686973206163717569736974696f6e206f666665724e6577206f6666657273206d757374206265206174206c6561737420352520686967686572207468616e207468652070656e64696e67206f666665725468657265206973206e6f2070656e64696e67206f666665720000000000000045524332303a206275726e2066726f6d20746865207a65726f206164647265737345524332303a207472616e736665722066726f6d20746865207a65726f2061646472657373507265636c61696d20706572696f642076696f6c617465642e20436c61696d656420746f6f206561726c795468697320636f6e747261637420646f6573206e6f7420726570726573656e7420656e6f7567682065717569747945524332303a20617070726f76652066726f6d20746865207a65726f2061646472657373596f7520617265206e6f7420617574686f72697a656420746f20636f6d706c6574652074686973206163717569736974696f6e206f66666572596f75206e65656420746f20686f6c64206174206c65617374203525206f6620746865206669726d20746f206d616b6520616e206f66666572a26469706673582212206d44ce23ef6f155e6e17bac8c2fbc8baa0941e82eb9d42d5270141f9c46cd11364736f6c634300060c0033",
    "sourcePath": "c:/Users/luziu/Documents/aktionariat/contracts/src/DraggableShares.sol",
    "compiler": {
        "name": "solc",
        "version": "0.6.12+commit.27d51765"
    },
    "functionHashes": {
        "acquisitionQuorum()": "3549788a",
        "active()": "02fb0c5e",
        "allowance(address,address)": "dd62ed3e",
        "approve(address,uint256)": "095ea7b3",
        "balanceOf(address)": "70a08231",
        "burn(uint256)": "42966c68",
        "cancelAcquisition()": "e1b8c38e",
        "claimPeriod()": "7dc2cd98",
        "claimingDisabled(address)": "8e0597c1",
        "claims(address)": "c6788bdd",
        "clearClaim()": "6b03ed5f",
        "completeAcquisition()": "141c7068",
        "contestAcquisition()": "6f4b18df",
        "customCollateralAddress()": "0c6f0e5d",
        "customCollateralRate()": "60918117",
        "decimals()": "313ce567",
        "declareLost(address,address,bytes32)": "e5a8765a",
        "decreaseAllowance(address,uint256)": "a457c2d7",
        "deleteClaim(address)": "32a7ae95",
        "getClaimDeleter()": "2a0a4ed5",
        "getClaimant(address)": "1e3b9de5",
        "getCollateral(address)": "9b56d6c9",
        "getCollateralRate(address)": "77e071ad",
        "getCollateralType(address)": "3bcc45ba",
        "getCurrencyContract()": "de494685",
        "getMsgHash(address)": "24b50e43",
        "getPendingOffer()": "6467c09a",
        "getPreClaimTimeStamp(address)": "75a88bcf",
        "getTimeStamp(address)": "eb470ebf",
        "getWrappedContract()": "58047913",
        "increaseAllowance(address,uint256)": "39509351",
        "initiateAcquisition(uint256)": "4900ca51",
        "isClaimsEnabled(address)": "f66f145a",
        "licenseFee()": "a9d9d0c7",
        "licenseFeeRecipient()": "bb689472",
        "migrate()": "8fd3ab80",
        "migrationQuorum()": "9e8a9a5a",
        "name()": "06fdde03",
        "offer()": "c028df06",
        "offerExists()": "bc1b1e7c",
        "onTokenTransfer(address,uint256,bytes)": "a4c0ed36",
        "preClaimPeriod()": "ee18d99e",
        "preClaimPeriodEnd()": "7dde2a02",
        "preClaims(address)": "493c160f",
        "prepareClaim(bytes32)": "5b1c1625",
        "resolveClaim(address)": "94d645a8",
        "setClaimable(bool)": "378c93ad",
        "symbol()": "95d89b41",
        "terms()": "d5025625",
        "totalSupply()": "18160ddd",
        "transfer(address,uint256)": "a9059cbb",
        "transferAndCall(address,uint256,bytes)": "4000aea0",
        "transferFrom(address,address,uint256)": "23b872dd",
        "unwrap(uint256)": "de0e9a3e",
        "unwrapConversionFactor()": "0832e470",
        "updateCurrency(address)": "5e027601",
        "voteNo()": "41c12a70",
        "voteYes()": "90cf581c",
        "wasAcquired()": "ec6580e2",
        "wrap(address,uint256)": "bf376c7a"
    },
    "gasEstimates": {
        "creation": {
            "codeDepositCost": "4368600",
            "executionCost": "infinite",
            "totalCost": "infinite"
        },
        "external": {
            "acquisitionQuorum()": "1110",
            "active()": "1080",
            "allowance(address,address)": "1383",
            "approve(address,uint256)": "infinite",
            "balanceOf(address)": "1278",
            "burn(uint256)": "infinite",
            "cancelAcquisition()": "infinite",
            "claimPeriod()": "1111",
            "claimingDisabled(address)": "1226",
            "claims(address)": "2998",
            "clearClaim()": "infinite",
            "completeAcquisition()": "infinite",
            "contestAcquisition()": "infinite",
            "customCollateralAddress()": "1128",
            "customCollateralRate()": "1132",
            "decimals()": "1081",
            "declareLost(address,address,bytes32)": "infinite",
            "decreaseAllowance(address,uint256)": "infinite",
            "deleteClaim(address)": "infinite",
            "getClaimDeleter()": "infinite",
            "getClaimant(address)": "1247",
            "getCollateral(address)": "1260",
            "getCollateralRate(address)": "infinite",
            "getCollateralType(address)": "1286",
            "getCurrencyContract()": "1126",
            "getMsgHash(address)": "1255",
            "getPendingOffer()": "1104",
            "getPreClaimTimeStamp(address)": "1217",
            "getTimeStamp(address)": "1220",
            "getWrappedContract()": "1105",
            "increaseAllowance(address,uint256)": "infinite",
            "initiateAcquisition(uint256)": "infinite",
            "isClaimsEnabled(address)": "1289",
            "licenseFee()": "1131",
            "licenseFeeRecipient()": "1105",
            "migrate()": "infinite",
            "migrationQuorum()": "1132",
            "name()": "infinite",
            "offer()": "1104",
            "offerExists()": "1174",
            "onTokenTransfer(address,uint256,bytes)": "infinite",
            "preClaimPeriod()": "1108",
            "preClaimPeriodEnd()": "1066",
            "preClaims(address)": "2097",
            "prepareClaim(bytes32)": "41593",
            "resolveClaim(address)": "infinite",
            "setClaimable(bool)": "21230",
            "symbol()": "infinite",
            "terms()": "infinite",
            "totalSupply()": "1133",
            "transfer(address,uint256)": "infinite",
            "transferAndCall(address,uint256,bytes)": "infinite",
            "transferFrom(address,address,uint256)": "infinite",
            "unwrap(uint256)": "infinite",
            "unwrapConversionFactor()": "1112",
            "updateCurrency(address)": "infinite",
            "voteNo()": "infinite",
            "voteYes()": "infinite",
            "wasAcquired()": "2034",
            "wrap(address,uint256)": "infinite"
        },
        "internal": {
            "_burn(address,uint256)": "infinite",
            "_mint(address,uint256)": "infinite",
            "_transfer(address,address,uint256)": "infinite"
        }
    }
}