{
    "contractName": "DraggableCompanyNameShares",
    "abi": [
        {
            "inputs": [
                {
                    "internalType": "string",
                    "name": "_ticker",
                    "type": "string"
                },
                {
                    "internalType": "string",
                    "name": "_name",
                    "type": "string"
                },
                {
                    "internalType": "string",
                    "name": "_terms",
                    "type": "string"
                },
                {
                    "internalType": "address",
                    "name": "wrappedToken",
                    "type": "address"
                },
                {
                    "internalType": "address",
                    "name": "xchfAddress",
                    "type": "address"
                }
            ],
            "stateMutability": "nonpayable",
            "type": "constructor"
        },
        {
            "anonymous": false,
            "inputs": [
                {
                    "indexed": true,
                    "internalType": "address",
                    "name": "owner",
                    "type": "address"
                },
                {
                    "indexed": true,
                    "internalType": "address",
                    "name": "spender",
                    "type": "address"
                },
                {
                    "indexed": false,
                    "internalType": "uint256",
                    "name": "value",
                    "type": "uint256"
                }
            ],
            "name": "Approval",
            "type": "event"
        },
        {
            "anonymous": false,
            "inputs": [
                {
                    "indexed": true,
                    "internalType": "address",
                    "name": "lostAddress",
                    "type": "address"
                },
                {
                    "indexed": false,
                    "internalType": "uint256",
                    "name": "collateral",
                    "type": "uint256"
                }
            ],
            "name": "ClaimCleared",
            "type": "event"
        },
        {
            "anonymous": false,
            "inputs": [
                {
                    "indexed": true,
                    "internalType": "address",
                    "name": "lostAddress",
                    "type": "address"
                },
                {
                    "indexed": true,
                    "internalType": "address",
                    "name": "claimant",
                    "type": "address"
                },
                {
                    "indexed": false,
                    "internalType": "uint256",
                    "name": "collateral",
                    "type": "uint256"
                }
            ],
            "name": "ClaimDeleted",
            "type": "event"
        },
        {
            "anonymous": false,
            "inputs": [
                {
                    "indexed": true,
                    "internalType": "address",
                    "name": "lostAddress",
                    "type": "address"
                },
                {
                    "indexed": true,
                    "internalType": "address",
                    "name": "claimant",
                    "type": "address"
                },
                {
                    "indexed": false,
                    "internalType": "uint256",
                    "name": "balance",
                    "type": "uint256"
                }
            ],
            "name": "ClaimMade",
            "type": "event"
        },
        {
            "anonymous": false,
            "inputs": [
                {
                    "indexed": false,
                    "internalType": "uint256",
                    "name": "newClaimPeriodInDays",
                    "type": "uint256"
                }
            ],
            "name": "ClaimPeriodChanged",
            "type": "event"
        },
        {
            "anonymous": false,
            "inputs": [
                {
                    "indexed": true,
                    "internalType": "address",
                    "name": "claimer",
                    "type": "address"
                }
            ],
            "name": "ClaimPrepared",
            "type": "event"
        },
        {
            "anonymous": false,
            "inputs": [
                {
                    "indexed": true,
                    "internalType": "address",
                    "name": "lostAddress",
                    "type": "address"
                },
                {
                    "indexed": true,
                    "internalType": "address",
                    "name": "claimant",
                    "type": "address"
                },
                {
                    "indexed": false,
                    "internalType": "uint256",
                    "name": "collateral",
                    "type": "uint256"
                }
            ],
            "name": "ClaimResolved",
            "type": "event"
        },
        {
            "anonymous": false,
            "inputs": [
                {
                    "indexed": false,
                    "internalType": "address",
                    "name": "newCustomCollateralAddress",
                    "type": "address"
                },
                {
                    "indexed": false,
                    "internalType": "uint256",
                    "name": "newCustomCollareralRate",
                    "type": "uint256"
                }
            ],
            "name": "CustomClaimCollateralChanged",
            "type": "event"
        },
        {
            "anonymous": false,
            "inputs": [
                {
                    "indexed": false,
                    "internalType": "address",
                    "name": "newContractAddress",
                    "type": "address"
                }
            ],
            "name": "MigrationSucceeded",
            "type": "event"
        },
        {
            "anonymous": false,
            "inputs": [
                {
                    "indexed": true,
                    "internalType": "address",
                    "name": "buyer",
                    "type": "address"
                },
                {
                    "indexed": false,
                    "internalType": "uint256",
                    "name": "pricePerShare",
                    "type": "uint256"
                },
                {
                    "indexed": false,
                    "internalType": "address",
                    "name": "offerContract",
                    "type": "address"
                }
            ],
            "name": "OfferCreated",
            "type": "event"
        },
        {
            "anonymous": false,
            "inputs": [
                {
                    "indexed": true,
                    "internalType": "address",
                    "name": "buyer",
                    "type": "address"
                },
                {
                    "indexed": false,
                    "internalType": "address",
                    "name": "sender",
                    "type": "address"
                },
                {
                    "indexed": false,
                    "internalType": "bool",
                    "name": "success",
                    "type": "bool"
                },
                {
                    "indexed": false,
                    "internalType": "string",
                    "name": "message",
                    "type": "string"
                },
                {
                    "indexed": false,
                    "internalType": "address",
                    "name": "offerContract",
                    "type": "address"
                }
            ],
            "name": "OfferEnded",
            "type": "event"
        },
        {
            "anonymous": false,
            "inputs": [
                {
                    "indexed": true,
                    "internalType": "address",
                    "name": "from",
                    "type": "address"
                },
                {
                    "indexed": true,
                    "internalType": "address",
                    "name": "to",
                    "type": "address"
                },
                {
                    "indexed": false,
                    "internalType": "uint256",
                    "name": "value",
                    "type": "uint256"
                }
            ],
            "name": "Transfer",
            "type": "event"
        },
        {
            "inputs": [],
            "name": "acquisitionQuorum",
            "outputs": [
                {
                    "internalType": "uint256",
                    "name": "",
                    "type": "uint256"
                }
            ],
            "stateMutability": "view",
            "type": "function"
        },
        {
            "inputs": [],
            "name": "active",
            "outputs": [
                {
                    "internalType": "bool",
                    "name": "",
                    "type": "bool"
                }
            ],
            "stateMutability": "view",
            "type": "function"
        },
        {
            "inputs": [
                {
                    "internalType": "address",
                    "name": "owner",
                    "type": "address"
                },
                {
                    "internalType": "address",
                    "name": "spender",
                    "type": "address"
                }
            ],
            "name": "allowance",
            "outputs": [
                {
                    "internalType": "uint256",
                    "name": "",
                    "type": "uint256"
                }
            ],
            "stateMutability": "view",
            "type": "function"
        },
        {
            "inputs": [
                {
                    "internalType": "address",
                    "name": "spender",
                    "type": "address"
                },
                {
                    "internalType": "uint256",
                    "name": "value",
                    "type": "uint256"
                }
            ],
            "name": "approve",
            "outputs": [
                {
                    "internalType": "bool",
                    "name": "",
                    "type": "bool"
                }
            ],
            "stateMutability": "nonpayable",
            "type": "function"
        },
        {
            "inputs": [
                {
                    "internalType": "address",
                    "name": "account",
                    "type": "address"
                }
            ],
            "name": "balanceOf",
            "outputs": [
                {
                    "internalType": "uint256",
                    "name": "",
                    "type": "uint256"
                }
            ],
            "stateMutability": "view",
            "type": "function"
        },
        {
            "inputs": [
                {
                    "internalType": "uint256",
                    "name": "amount",
                    "type": "uint256"
                }
            ],
            "name": "burn",
            "outputs": [],
            "stateMutability": "nonpayable",
            "type": "function"
        },
        {
            "inputs": [],
            "name": "cancelAcquisition",
            "outputs": [],
            "stateMutability": "nonpayable",
            "type": "function"
        },
        {
            "inputs": [],
            "name": "claimPeriod",
            "outputs": [
                {
                    "internalType": "uint256",
                    "name": "",
                    "type": "uint256"
                }
            ],
            "stateMutability": "view",
            "type": "function"
        },
        {
            "inputs": [
                {
                    "internalType": "address",
                    "name": "",
                    "type": "address"
                }
            ],
            "name": "claimingDisabled",
            "outputs": [
                {
                    "internalType": "bool",
                    "name": "",
                    "type": "bool"
                }
            ],
            "stateMutability": "view",
            "type": "function"
        },
        {
            "inputs": [
                {
                    "internalType": "address",
                    "name": "",
                    "type": "address"
                }
            ],
            "name": "claims",
            "outputs": [
                {
                    "internalType": "address",
                    "name": "claimant",
                    "type": "address"
                },
                {
                    "internalType": "uint256",
                    "name": "collateral",
                    "type": "uint256"
                },
                {
                    "internalType": "uint32",
                    "name": "timestamp",
                    "type": "uint32"
                },
                {
                    "internalType": "address",
                    "name": "currencyUsed",
                    "type": "address"
                }
            ],
            "stateMutability": "view",
            "type": "function"
        },
        {
            "inputs": [],
            "name": "clearClaim",
            "outputs": [],
            "stateMutability": "nonpayable",
            "type": "function"
        },
        {
            "inputs": [],
            "name": "completeAcquisition",
            "outputs": [],
            "stateMutability": "nonpayable",
            "type": "function"
        },
        {
            "inputs": [],
            "name": "contestAcquisition",
            "outputs": [],
            "stateMutability": "nonpayable",
            "type": "function"
        },
        {
            "inputs": [],
            "name": "customCollateralAddress",
            "outputs": [
                {
                    "internalType": "address",
                    "name": "",
                    "type": "address"
                }
            ],
            "stateMutability": "view",
            "type": "function"
        },
        {
            "inputs": [],
            "name": "customCollateralRate",
            "outputs": [
                {
                    "internalType": "uint256",
                    "name": "",
                    "type": "uint256"
                }
            ],
            "stateMutability": "view",
            "type": "function"
        },
        {
            "inputs": [],
            "name": "decimals",
            "outputs": [
                {
                    "internalType": "uint8",
                    "name": "",
                    "type": "uint8"
                }
            ],
            "stateMutability": "view",
            "type": "function"
        },
        {
            "inputs": [
                {
                    "internalType": "address",
                    "name": "collateralType",
                    "type": "address"
                },
                {
                    "internalType": "address",
                    "name": "lostAddress",
                    "type": "address"
                },
                {
                    "internalType": "bytes32",
                    "name": "nonce",
                    "type": "bytes32"
                }
            ],
            "name": "declareLost",
            "outputs": [],
            "stateMutability": "nonpayable",
            "type": "function"
        },
        {
            "inputs": [
                {
                    "internalType": "address",
                    "name": "spender",
                    "type": "address"
                },
                {
                    "internalType": "uint256",
                    "name": "subtractedValue",
                    "type": "uint256"
                }
            ],
            "name": "decreaseAllowance",
            "outputs": [
                {
                    "internalType": "bool",
                    "name": "",
                    "type": "bool"
                }
            ],
            "stateMutability": "nonpayable",
            "type": "function"
        },
        {
            "inputs": [
                {
                    "internalType": "address",
                    "name": "lostAddress",
                    "type": "address"
                }
            ],
            "name": "deleteClaim",
            "outputs": [],
            "stateMutability": "nonpayable",
            "type": "function"
        },
        {
            "inputs": [],
            "name": "getClaimDeleter",
            "outputs": [
                {
                    "internalType": "address",
                    "name": "",
                    "type": "address"
                }
            ],
            "stateMutability": "view",
            "type": "function"
        },
        {
            "inputs": [
                {
                    "internalType": "address",
                    "name": "lostAddress",
                    "type": "address"
                }
            ],
            "name": "getClaimant",
            "outputs": [
                {
                    "internalType": "address",
                    "name": "",
                    "type": "address"
                }
            ],
            "stateMutability": "view",
            "type": "function"
        },
        {
            "inputs": [
                {
                    "internalType": "address",
                    "name": "lostAddress",
                    "type": "address"
                }
            ],
            "name": "getCollateral",
            "outputs": [
                {
                    "internalType": "uint256",
                    "name": "",
                    "type": "uint256"
                }
            ],
            "stateMutability": "view",
            "type": "function"
        },
        {
            "inputs": [
                {
                    "internalType": "address",
                    "name": "collateralType",
                    "type": "address"
                }
            ],
            "name": "getCollateralRate",
            "outputs": [
                {
                    "internalType": "uint256",
                    "name": "",
                    "type": "uint256"
                }
            ],
            "stateMutability": "view",
            "type": "function"
        },
        {
            "inputs": [
                {
                    "internalType": "address",
                    "name": "lostAddress",
                    "type": "address"
                }
            ],
            "name": "getCollateralType",
            "outputs": [
                {
                    "internalType": "address",
                    "name": "",
                    "type": "address"
                }
            ],
            "stateMutability": "view",
            "type": "function"
        },
        {
            "inputs": [],
            "name": "getCurrencyContract",
            "outputs": [
                {
                    "internalType": "address",
                    "name": "",
                    "type": "address"
                }
            ],
            "stateMutability": "view",
            "type": "function"
        },
        {
            "inputs": [
                {
                    "internalType": "address",
                    "name": "claimerAddress",
                    "type": "address"
                }
            ],
            "name": "getMsgHash",
            "outputs": [
                {
                    "internalType": "bytes32",
                    "name": "",
                    "type": "bytes32"
                }
            ],
            "stateMutability": "view",
            "type": "function"
        },
        {
            "inputs": [],
            "name": "getPendingOffer",
            "outputs": [
                {
                    "internalType": "address",
                    "name": "",
                    "type": "address"
                }
            ],
            "stateMutability": "view",
            "type": "function"
        },
        {
            "inputs": [
                {
                    "internalType": "address",
                    "name": "claimerAddress",
                    "type": "address"
                }
            ],
            "name": "getPreClaimTimeStamp",
            "outputs": [
                {
                    "internalType": "uint256",
                    "name": "",
                    "type": "uint256"
                }
            ],
            "stateMutability": "view",
            "type": "function"
        },
        {
            "inputs": [
                {
                    "internalType": "address",
                    "name": "lostAddress",
                    "type": "address"
                }
            ],
            "name": "getTimeStamp",
            "outputs": [
                {
                    "internalType": "uint256",
                    "name": "",
                    "type": "uint256"
                }
            ],
            "stateMutability": "view",
            "type": "function"
        },
        {
            "inputs": [],
            "name": "getWrappedContract",
            "outputs": [
                {
                    "internalType": "address",
                    "name": "",
                    "type": "address"
                }
            ],
            "stateMutability": "view",
            "type": "function"
        },
        {
            "inputs": [
                {
                    "internalType": "address",
                    "name": "spender",
                    "type": "address"
                },
                {
                    "internalType": "uint256",
                    "name": "addedValue",
                    "type": "uint256"
                }
            ],
            "name": "increaseAllowance",
            "outputs": [
                {
                    "internalType": "bool",
                    "name": "",
                    "type": "bool"
                }
            ],
            "stateMutability": "nonpayable",
            "type": "function"
        },
        {
            "inputs": [
                {
                    "internalType": "uint256",
                    "name": "pricePerShare",
                    "type": "uint256"
                }
            ],
            "name": "initiateAcquisition",
            "outputs": [],
            "stateMutability": "nonpayable",
            "type": "function"
        },
        {
            "inputs": [
                {
                    "internalType": "address",
                    "name": "target",
                    "type": "address"
                }
            ],
            "name": "isClaimsEnabled",
            "outputs": [
                {
                    "internalType": "bool",
                    "name": "",
                    "type": "bool"
                }
            ],
            "stateMutability": "view",
            "type": "function"
        },
        {
            "inputs": [],
            "name": "licenseFee",
            "outputs": [
                {
                    "internalType": "uint256",
                    "name": "",
                    "type": "uint256"
                }
            ],
            "stateMutability": "view",
            "type": "function"
        },
        {
            "inputs": [],
            "name": "licenseFeeRecipient",
            "outputs": [
                {
                    "internalType": "address",
                    "name": "",
                    "type": "address"
                }
            ],
            "stateMutability": "view",
            "type": "function"
        },
        {
            "inputs": [],
            "name": "migrate",
            "outputs": [],
            "stateMutability": "nonpayable",
            "type": "function"
        },
        {
            "inputs": [],
            "name": "migrationQuorum",
            "outputs": [
                {
                    "internalType": "uint256",
                    "name": "",
                    "type": "uint256"
                }
            ],
            "stateMutability": "view",
            "type": "function"
        },
        {
            "inputs": [],
            "name": "name",
            "outputs": [
                {
                    "internalType": "string",
                    "name": "",
                    "type": "string"
                }
            ],
            "stateMutability": "view",
            "type": "function"
        },
        {
            "inputs": [],
            "name": "offer",
            "outputs": [
                {
                    "internalType": "contract Acquisition",
                    "name": "",
                    "type": "address"
                }
            ],
            "stateMutability": "view",
            "type": "function"
        },
        {
            "inputs": [],
            "name": "offerExists",
            "outputs": [
                {
                    "internalType": "bool",
                    "name": "",
                    "type": "bool"
                }
            ],
            "stateMutability": "view",
            "type": "function"
        },
        {
            "inputs": [
                {
                    "internalType": "address",
                    "name": "from",
                    "type": "address"
                },
                {
                    "internalType": "uint256",
                    "name": "amount",
                    "type": "uint256"
                },
                {
                    "internalType": "bytes",
                    "name": "",
                    "type": "bytes"
                }
            ],
            "name": "onTokenTransfer",
            "outputs": [],
            "stateMutability": "nonpayable",
            "type": "function"
        },
        {
            "inputs": [],
            "name": "preClaimPeriod",
            "outputs": [
                {
                    "internalType": "uint256",
                    "name": "",
                    "type": "uint256"
                }
            ],
            "stateMutability": "view",
            "type": "function"
        },
        {
            "inputs": [],
            "name": "preClaimPeriodEnd",
            "outputs": [
                {
                    "internalType": "uint256",
                    "name": "",
                    "type": "uint256"
                }
            ],
            "stateMutability": "view",
            "type": "function"
        },
        {
            "inputs": [
                {
                    "internalType": "address",
                    "name": "",
                    "type": "address"
                }
            ],
            "name": "preClaims",
            "outputs": [
                {
                    "internalType": "bytes32",
                    "name": "msghash",
                    "type": "bytes32"
                },
                {
                    "internalType": "uint256",
                    "name": "timestamp",
                    "type": "uint256"
                }
            ],
            "stateMutability": "view",
            "type": "function"
        },
        {
            "inputs": [
                {
                    "internalType": "bytes32",
                    "name": "hashedpackage",
                    "type": "bytes32"
                }
            ],
            "name": "prepareClaim",
            "outputs": [],
            "stateMutability": "nonpayable",
            "type": "function"
        },
        {
            "inputs": [
                {
                    "internalType": "address",
                    "name": "lostAddress",
                    "type": "address"
                }
            ],
            "name": "resolveClaim",
            "outputs": [],
            "stateMutability": "nonpayable",
            "type": "function"
        },
        {
            "inputs": [
                {
                    "internalType": "bool",
                    "name": "enabled",
                    "type": "bool"
                }
            ],
            "name": "setClaimable",
            "outputs": [],
            "stateMutability": "nonpayable",
            "type": "function"
        },
        {
            "inputs": [],
            "name": "terms",
            "outputs": [
                {
                    "internalType": "string",
                    "name": "",
                    "type": "string"
                }
            ],
            "stateMutability": "view",
            "type": "function"
        },
        {
            "inputs": [],
            "name": "ticker",
            "outputs": [
                {
                    "internalType": "string",
                    "name": "",
                    "type": "string"
                }
            ],
            "stateMutability": "view",
            "type": "function"
        },
        {
            "inputs": [],
            "name": "totalSupply",
            "outputs": [
                {
                    "internalType": "uint256",
                    "name": "",
                    "type": "uint256"
                }
            ],
            "stateMutability": "view",
            "type": "function"
        },
        {
            "inputs": [
                {
                    "internalType": "address",
                    "name": "to",
                    "type": "address"
                },
                {
                    "internalType": "uint256",
                    "name": "value",
                    "type": "uint256"
                }
            ],
            "name": "transfer",
            "outputs": [
                {
                    "internalType": "bool",
                    "name": "",
                    "type": "bool"
                }
            ],
            "stateMutability": "nonpayable",
            "type": "function"
        },
        {
            "inputs": [
                {
                    "internalType": "address",
                    "name": "recipient",
                    "type": "address"
                },
                {
                    "internalType": "uint256",
                    "name": "amount",
                    "type": "uint256"
                },
                {
                    "internalType": "bytes",
                    "name": "data",
                    "type": "bytes"
                }
            ],
            "name": "transferAndCall",
            "outputs": [
                {
                    "internalType": "bool",
                    "name": "",
                    "type": "bool"
                }
            ],
            "stateMutability": "nonpayable",
            "type": "function"
        },
        {
            "inputs": [
                {
                    "internalType": "address",
                    "name": "sender",
                    "type": "address"
                },
                {
                    "internalType": "address",
                    "name": "recipient",
                    "type": "address"
                },
                {
                    "internalType": "uint256",
                    "name": "amount",
                    "type": "uint256"
                }
            ],
            "name": "transferFrom",
            "outputs": [
                {
                    "internalType": "bool",
                    "name": "",
                    "type": "bool"
                }
            ],
            "stateMutability": "nonpayable",
            "type": "function"
        },
        {
            "inputs": [
                {
                    "internalType": "uint256",
                    "name": "amount",
                    "type": "uint256"
                }
            ],
            "name": "unwrap",
            "outputs": [],
            "stateMutability": "nonpayable",
            "type": "function"
        },
        {
            "inputs": [],
            "name": "unwrapConversionFactor",
            "outputs": [
                {
                    "internalType": "uint256",
                    "name": "",
                    "type": "uint256"
                }
            ],
            "stateMutability": "view",
            "type": "function"
        },
        {
            "inputs": [
                {
                    "internalType": "address",
                    "name": "newCurrency",
                    "type": "address"
                }
            ],
            "name": "updateCurrency",
            "outputs": [],
            "stateMutability": "nonpayable",
            "type": "function"
        },
        {
            "inputs": [],
            "name": "voteNo",
            "outputs": [],
            "stateMutability": "nonpayable",
            "type": "function"
        },
        {
            "inputs": [],
            "name": "voteYes",
            "outputs": [],
            "stateMutability": "nonpayable",
            "type": "function"
        },
        {
            "inputs": [],
            "name": "wasAcquired",
            "outputs": [
                {
                    "internalType": "bool",
                    "name": "",
                    "type": "bool"
                }
            ],
            "stateMutability": "view",
            "type": "function"
        },
        {
            "inputs": [
                {
                    "internalType": "address",
                    "name": "shareholder",
                    "type": "address"
                },
                {
                    "internalType": "uint256",
                    "name": "amount",
                    "type": "uint256"
                }
            ],
            "name": "wrap",
            "outputs": [],
            "stateMutability": "nonpayable",
            "type": "function"
        }
    ],
    "bytecode": "608060405262ed4e00600355620151806004556202a3006005556001600c8190556013805460ff191690911790553480156200003a57600080fd5b506040516200579238038062005792833981810160405260a08110156200006057600080fd5b81019080805160405193929190846401000000008211156200008157600080fd5b9083019060208201858111156200009757600080fd5b8251640100000000811182820188101715620000b257600080fd5b82525081516020918201929091019080838360005b83811015620000e1578181015183820152602001620000c7565b50505050905090810190601f1680156200010f5780820380516001836020036101000a031916815260200191505b50604052602001805160405193929190846401000000008211156200013357600080fd5b9083019060208201858111156200014957600080fd5b82516401000000008111828201881017156200016457600080fd5b82525081516020918201929091019080838360005b838110156200019357818101518382015260200162000179565b50505050905090810190601f168015620001c15780820380516001836020036101000a031916815260200191505b5060405260200180516040519392919084640100000000821115620001e557600080fd5b908301906020820185811115620001fb57600080fd5b82516401000000008111828201881017156200021657600080fd5b82525081516020918201929091019080838360005b83811015620002455781810151838201526020016200022b565b50505050905090810190601f168015620002735780820380516001836020036101000a031916815260200191505b50604081815260208381015193820151600b80546001600160a01b038088166001600160a01b03199283168117909355600f805483167329fe8914e76da5ce2d90de98a64d0055f199d06d17905569010f0cf064dd59200000601055611d4c60118190556012819055600e80549286169290931691909117909155633a98ef3960e01b865293519597509095508694929384938793633a98ef3992600480820193918290030181600087803b1580156200032c57600080fd5b505af115801562000341573d6000803e3d6000fd5b505050506040513d60208110156200035857600080fd5b50506040805163378c93ad60e01b815260006004820181905291516001600160a01b038916965063378c93ad955060248083019550929350919082900301818387803b158015620003a857600080fd5b505af1158015620003bd573d6000803e3d6000fd5b50508651620003d692506014915060208801906200040e565b508351620003ec9060159060208701906200040e565b508251620004029060169060208601906200040e565b505050505050620004aa565b828054600181600116156101000203166002900490600052602060002090601f016020900481019282601f106200045157805160ff191683800117855562000481565b8280016001018555821562000481579182015b828111156200048157825182559160200191906001019062000464565b506200048f92915062000493565b5090565b5b808211156200048f576000815560010162000494565b6152d880620004ba6000396000f3fe60806040523480156200001157600080fd5b5060043610620004005760003560e01c806375a88bcf1162000219578063bb6894721162000129578063de0e9a3e11620000bd578063eb470ebf1162000087578063eb470ebf1462000b98578063ec6580e21462000bc1578063ee18d99e1462000bcb578063f66f145a1462000bd55762000400565b8063de0e9a3e1462000b2b578063de4946851462000b4b578063e1b8c38e1462000b55578063e5a8765a1462000b5f5762000400565b8063c028df0611620000ff578063c028df061462000a84578063c6788bdd1462000a8e578063d50256251462000af0578063dd62ed3e1462000afa5762000400565b8063bb6894721462000a41578063bc1b1e7c1462000a4b578063bf376c7a1462000a555762000400565b806390cf581c11620001ad578063a457c2d71162000177578063a457c2d71462000950578063a4c0ed36146200097f578063a9059cbb1462000a08578063a9d9d0c71462000a375762000400565b806390cf581c14620008ea57806394d645a814620008f45780639b56d6c9146200091d5780639e8a9a5a14620009465762000400565b80637dde2a0211620001ef5780637dde2a0214620008a35780638ba47bdd14620008ad5780638e0597c114620008b75780638fd3ab8014620008e05762000400565b806375a88bcf146200084757806377e071ad14620008705780637dc2cd9814620008995762000400565b80633950935111620003155780635804791311620002a95780636467c09a11620002735780636467c09a14620008005780636b03ed5f146200080a5780636f4b18df146200081457806370a08231146200081e5762000400565b80635804791314620007a35780635b1c162514620007ad5780635e02760114620007cd5780636091811714620007f65762000400565b806341c12a7011620002eb57806341c12a70146200071757806342966c6814620007215780634900ca511462000741578063493c160f14620007615762000400565b80633950935114620006365780633bcc45ba14620006655780634000aea0146200068e5762000400565b80631e3b9de51162000399578063313ce5671162000363578063313ce56714620005c157806332a7ae9514620005e15780633549788a146200060a578063378c93ad14620006145762000400565b80631e3b9de5146200052c57806323b872dd146200055557806324b50e43146200058e5780632a0a4ed514620005b75762000400565b8063095ea7b311620003db578063095ea7b314620004c15780630c6f0e5d14620004f0578063141c7068146200051657806318160ddd14620005225762000400565b806302fb0c5e146200040557806306fdde0314620004235780630832e47014620004a5575b600080fd5b6200040f62000bfe565b604080519115158252519081900360200190f35b6200042d62000c07565b6040805160208082528351818301528351919283929083019185019080838360005b83811015620004695781810151838201526020016200044f565b50505050905090810190601f168015620004975780820380516001836020036101000a031916815260200191505b509250505060405180910390f35b620004af62000c99565b60408051918252519081900360200190f35b6200040f60048036036040811015620004d957600080fd5b506001600160a01b03813516906020013562000c9f565b620004fa62000cb8565b604080516001600160a01b039092168252519081900360200190f35b6200052062000cc7565b005b620004af620010b7565b620004fa600480360360208110156200054457600080fd5b50356001600160a01b0316620010bd565b6200040f600480360360608110156200056d57600080fd5b506001600160a01b03813581169160208101359091169060400135620010de565b620004af60048036036020811015620005a657600080fd5b50356001600160a01b031662001135565b620004fa62001150565b620005cb620011c8565b6040805160ff9092168252519081900360200190f35b6200052060048036036020811015620005f957600080fd5b50356001600160a01b0316620011cd565b620004af6200143d565b62000520600480360360208110156200062c57600080fd5b5035151562001443565b6200040f600480360360408110156200064e57600080fd5b506001600160a01b03813516906020013562001462565b620004fa600480360360208110156200067d57600080fd5b50356001600160a01b03166200149b565b6200040f60048036036060811015620006a657600080fd5b6001600160a01b0382351691602081013591810190606081016040820135600160201b811115620006d657600080fd5b820183602082011115620006e957600080fd5b803590602001918460018302840111600160201b831117156200070b57600080fd5b509092509050620014c3565b620005206200158a565b62000520600480360360208110156200073957600080fd5b503562001666565b62000520600480360360208110156200075957600080fd5b5035620016d8565b6200078a600480360360208110156200077957600080fd5b50356001600160a01b031662001c0c565b6040805192835260208301919091528051918290030190f35b620004fa62001c25565b6200052060048036036020811015620007c557600080fd5b503562001c34565b6200052060048036036020811015620007e557600080fd5b50356001600160a01b031662001c8f565b620004af62001e33565b620004fa62001e39565b6200052062001e48565b6200052062001fb2565b620004af600480360360208110156200083657600080fd5b50356001600160a01b03166200230c565b620004af600480360360208110156200085f57600080fd5b50356001600160a01b031662002327565b620004af600480360360208110156200088857600080fd5b50356001600160a01b031662002345565b620004af620023fa565b620004af62002400565b6200042d62002406565b6200040f60048036036020811015620008cf57600080fd5b50356001600160a01b031662002464565b6200052062002479565b620005206200270e565b62000520600480360360208110156200090c57600080fd5b50356001600160a01b031662002787565b620004af600480360360208110156200093557600080fd5b50356001600160a01b031662002a7f565b620004af62002a9d565b6200040f600480360360408110156200096857600080fd5b506001600160a01b03813516906020013562002aa3565b62000520600480360360608110156200099757600080fd5b6001600160a01b0382351691602081013591810190606081016040820135600160201b811115620009c757600080fd5b820183602082011115620009da57600080fd5b803590602001918460018302840111600160201b83111715620009fc57600080fd5b50909250905062002adc565b6200040f6004803603604081101562000a2057600080fd5b506001600160a01b03813516906020013562002b06565b620004af62002b1b565b620004fa62002b21565b6200040f62002b30565b620005206004803603604081101562000a6d57600080fd5b506001600160a01b03813516906020013562002b4d565b620004fa62002c88565b62000ab76004803603602081101562000aa657600080fd5b50356001600160a01b031662002c97565b604080516001600160a01b039586168152602081019490945263ffffffff90921683830152909216606082015290519081900360800190f35b6200042d62002cd2565b620004af6004803603604081101562000b1257600080fd5b506001600160a01b038135811691602001351662002d30565b620005206004803603602081101562000b4357600080fd5b503562002d5b565b620004fa62002e94565b6200052062002ea3565b620005206004803603606081101562000b7757600080fd5b506001600160a01b0381358116916020810135909116906040013562002ff7565b620004af6004803603602081101562000bb057600080fd5b50356001600160a01b031662003570565b6200040f62003594565b620004af620035ba565b6200040f6004803603602081101562000bed57600080fd5b50356001600160a01b0316620035c0565b60135460ff1681565b6015805460408051602060026001851615610100026000190190941693909304601f8101849004840282018401909252818152929183018282801562000c915780601f1062000c655761010080835404028352916020019162000c91565b820191906000526020600020905b81548152906001019060200180831162000c7357829003601f168201915b505050505081565b600c5481565b600062000cae338484620035df565b5060015b92915050565b6009546001600160a01b031681565b62000cd162002b30565b801562000ce0575060135460ff165b62000d21576040805162461bcd60e51b815260206004820152601960248201526000805160206200514e833981519152604482015290519081900360640190fd5b600d54604080516338a86c5760e11b815290516000926001600160a01b031691637150d8ae916004808301926020929190829003018186803b15801562000d6757600080fd5b505afa15801562000d7c573d6000803e3d6000fd5b505050506040513d602081101562000d9357600080fd5b50519050336001600160a01b0382161462000de05760405162461bcd60e51b8152600401808060200182810382526039815260200180620052316039913960400191505060405180910390fd5b600d60009054906101000a90046001600160a01b03166001600160a01b031663d7be4e296040518163ffffffff1660e01b815260040160206040518083038186803b15801562000e2f57600080fd5b505afa15801562000e44573d6000803e3d6000fd5b505050506040513d602081101562000e5b57600080fd5b505162000eaf576040805162461bcd60e51b815260206004820181905260248201527f496e73756666696369656e74206e756d626572206f662079657320766f746573604482015290519081900360640190fd5b600d546001600160a01b0316639890f82462000eca62002e94565b62000eea62000ed9856200230c565b62000ee3620010b7565b90620036cf565b6040518363ffffffff1660e01b815260040180836001600160a01b031681526020018281526020019250505060206040518083038186803b15801562000f2f57600080fd5b505afa15801562000f44573d6000803e3d6000fd5b505050506040513d602081101562000f5b57600080fd5b505162000faf576040805162461bcd60e51b815260206004820152601b60248201527f4f6666657220696e73756666696369656e746c792066756e6465640000000000604482015290519081900360640190fd5b600e54600d546040805163501ad8ff60e11b81529051620010369385936001600160a01b039182169391169163a035b1fe91600480820192602092909190829003018186803b1580156200100257600080fd5b505afa15801562001017573d6000803e3d6000fd5b505050506040513d60208110156200102e57600080fd5b5051620036e2565b600d5460408051338152600160208201526001600160a01b039283166060820152608081830181905260169082015275436f6d706c65746564207375636365737366756c6c7960501b60a08201529051918316917fc88f58ae9feb0742d9422f604dd3c1be6d02818f8dec340c5061f428b554e9759181900360c00190a250565b60025490565b6001600160a01b03808216600090815260066020526040902054165b919050565b6000620010ed84848462003919565b6001600160a01b0384166000908152600160209081526040808320338085529252909120546200112b918691620011259086620036cf565b620035df565b5060019392505050565b6001600160a01b031660009081526007602052604090205490565b60006200115c62001c25565b6001600160a01b0316632a0a4ed56040518163ffffffff1660e01b815260040160206040518083038186803b1580156200119557600080fd5b505afa158015620011aa573d6000803e3d6000fd5b505050506040513d6020811015620011c157600080fd5b5051905090565b600081565b620011d762001150565b6001600160a01b0316336001600160a01b0316146200123d576040805162461bcd60e51b815260206004820152601860248201527f596f752063616e6e6f742064656c65746520636c61696d730000000000000000604482015290519081900360640190fd5b62001247620043c6565b506001600160a01b038082166000908152600660209081526040918290208251608081018452815485168152600182015492810183905260029091015463ffffffff811693820193909352600160201b909204909216606082018190529091620012e9576040805162461bcd60e51b815260206004820152600e60248201526d139bc818db185a5b48199bdd5b9960921b604482015290519081900360640190fd5b6001600160a01b03808416600090815260066020908152604080832080546001600160a01b03191681556001810184905560020180546001600160c01b0319169055855186830151825163a9059cbb60e01b81529186166004830152602482015290519385169363a9059cbb93604480840194938390030190829087803b1580156200137457600080fd5b505af115801562001389573d6000803e3d6000fd5b505050506040513d6020811015620013a057600080fd5b5051620013f1576040805162461bcd60e51b815260206004820152601a60248201527910dbdb1b185d195c985b081d1c985b9cd9995c8819985a5b195960321b604482015290519081900360640190fd5b815160208084015160408051918252516001600160a01b03938416938716927fbb036e629a9f4c0897ee5d48440dfdb36f7e772117723a2ed603a6514244c2d5928290030190a3505050565b60125481565b336000908152600860205260409020805460ff19169115919091179055565b3360008181526001602090815260408083206001600160a01b0387168452909152812054909162000cae9185906200112590866200392b565b6001600160a01b03908116600090815260066020526040902060020154600160201b90041690565b600080620014d2868662002b06565b905080156200158157856001600160a01b031663a4c0ed36338787876040518563ffffffff1660e01b815260040180856001600160a01b03168152602001848152602001806020018281038252848482818152602001925080828437600081840152601f19601f82011690508083019250505095505050505050600060405180830381600087803b1580156200156757600080fd5b505af11580156200157c573d6000803e3d6000fd5b505050505b95945050505050565b6200159462002b30565b8015620015a3575060135460ff165b620015e4576040805162461bcd60e51b815260206004820152601960248201526000805160206200514e833981519152604482015290519081900360640190fd5b600d5433906001600160a01b0316634b91562e8262001603816200230c565b6040518363ffffffff1660e01b815260040180836001600160a01b0316815260200182815260200192505050600060405180830381600087803b1580156200164a57600080fd5b505af11580156200165f573d6000803e3d6000fd5b5050505050565b62001672338262003939565b6200167c62001c25565b6001600160a01b03166342966c68620016a1600c54846200394590919063ffffffff16565b6040518263ffffffff1660e01b815260040180828152602001915050600060405180830381600087803b1580156200164a57600080fd5b60135460ff1662001730576040805162461bcd60e51b815260206004820152601860248201527f416e206163636570746564206f66666572206578697374730000000000000000604482015290519081900360640190fd5b60006200173c62001c25565b6001600160a01b0316633a98ef396040518163ffffffff1660e01b8152600401602060405180830381600087803b1580156200177757600080fd5b505af11580156200178c573d6000803e3d6000fd5b505050506040513d6020811015620017a357600080fd5b5051905033620017c4612710620017bd84610bb862003945565b906200396e565b620017ce620010b7565b10156200180d5760405162461bcd60e51b815260040180806020018281038252602e815260200180620051df602e913960400191505060405180910390fd5b62001822612710620017bd846101f462003945565b6200182d826200230c565b10156200186c5760405162461bcd60e51b81526004018080602001828103825260398152602001806200526a6039913960400191505060405180910390fd5b600e54600f54601054604080516323b872dd60e01b81526001600160a01b038681166004830152938416602482015260448101929092525191909216916323b872dd9160648083019260209291908290030181600087803b158015620018d157600080fd5b505af1158015620018e6573d6000803e3d6000fd5b505050506040513d6020811015620018fd57600080fd5b505162001951576040805162461bcd60e51b815260206004820152601860248201527f43757272656e6379207472616e73666572206661696c65640000000000000000604482015290519081900360640190fd5b600033846012546040516200196690620043ed565b80846001600160a01b031681526020018381526020018281526020019350505050604051809103906000f080158015620019a4573d6000803e3d6000fd5b509050806001600160a01b0316639890f824620019c062002e94565b620019cb856200230c565b620019d5620010b7565b036040518363ffffffff1660e01b815260040180836001600160a01b031681526020018281526020019250505060206040518083038186803b15801562001a1b57600080fd5b505afa15801562001a30573d6000803e3d6000fd5b505050506040513d602081101562001a4757600080fd5b505162001a92576040805162461bcd60e51b8152602060048201526014602482015273496e73756666696369656e742066756e64696e6760601b604482015290519081900360640190fd5b62001a9c62002b30565b1562001b985762001b34612710620017bd612904600d60009054906101000a90046001600160a01b03166001600160a01b031663a035b1fe6040518163ffffffff1660e01b815260040160206040518083038186803b15801562001aff57600080fd5b505afa15801562001b14573d6000803e3d6000fd5b505050506040513d602081101562001b2b57600080fd5b50519062003945565b84101562001b745760405162461bcd60e51b815260040180806020018281038252603c81526020018062005112603c913960400191505060405180910390fd5b62001b986040518060600160405280602281526020016200501b6022913962003982565b600d80546001600160a01b0319166001600160a01b038381169190911790915582167f9c00f159b1fa9eaebda7acaf50be0bf3a652277380f907b35cb681bd641a62d38562001be662001e39565b604080519283526001600160a01b0390911660208301528051918290030190a250505050565b6007602052600090815260409020805460019091015482565b600b546001600160a01b031690565b604080518082018252828152426020808301918252336000818152600790925284822093518455915160019093019290925591517f4c767b7b6b4e5b19edbb3ce0f841c467aa366beda334c58254bb264371819a119190a250565b62001c9962002b30565b1562001ce7576040805162461bcd60e51b81526020600482015260186024820152772a3432b9329034b99030903832b73234b7339037b33332b960411b604482015290519081900360640190fd5b60135460ff1662001d38576040805162461bcd60e51b8152602060048201526016602482015275436f6e7472616374206973206e6f742061637469766560501b604482015290519081900360640190fd5b806001600160a01b031662001d4c62002e94565b6001600160a01b031663ee5554d36040518163ffffffff1660e01b8152600401602060405180830381600087803b15801562001d8757600080fd5b505af115801562001d9c573d6000803e3d6000fd5b505050506040513d602081101562001db357600080fd5b50516001600160a01b03161462001e11576040805162461bcd60e51b815260206004820152601760248201527f496e76616c69642063757272656e637920757064617465000000000000000000604482015290519081900360640190fd5b600e80546001600160a01b0319166001600160a01b0392909216919091179055565b600a5481565b600d546001600160a01b031690565b336000908152600660205260409020600101541562001fb05733600081815260066020908152604080832060018101805460028301805484546001600160a01b031916909455918690556001600160c01b03198316909155825163a9059cbb60e01b815260048101969096526024860181905291519194600160201b9091046001600160a01b031693849363a9059cbb93604480850194929391928390030190829087803b15801562001efa57600080fd5b505af115801562001f0f573d6000803e3d6000fd5b505050506040513d602081101562001f2657600080fd5b505162001f77576040805162461bcd60e51b815260206004820152601a60248201527910dbdb1b185d195c985b081d1c985b9cd9995c8819985a5b195960321b604482015290519081900360640190fd5b60408051838152905133917f203627483d943880619f4b7e0cca21dbefd6204b4d85b124eb99540e17ba86dd919081900360200190a250505b565b62001fbc62002b30565b801562001fcb575060135460ff165b6200200c576040805162461bcd60e51b815260206004820152601960248201526000805160206200514e833981519152604482015290519081900360640190fd5b600d60009054906101000a90046001600160a01b03166001600160a01b03166390e64d136040518163ffffffff1660e01b815260040160206040518083038186803b1580156200205b57600080fd5b505afa15801562002070573d6000803e3d6000fd5b505050506040513d60208110156200208757600080fd5b505115620020c557620020bf6040518060400160405280600d81526020016c13d999995c88195e1c1a5c9959609a1b81525062003982565b62001fb0565b600d60009054906101000a90046001600160a01b03166001600160a01b031663cf42a9276040518163ffffffff1660e01b815260040160206040518083038186803b1580156200211457600080fd5b505afa15801562002129573d6000803e3d6000fd5b505050506040513d60208110156200214057600080fd5b5051156200217d57620020bf60405180604001604052806012815260200171139bdd08195b9bdd59da081cdd5c1c1bdc9d60721b81525062003982565b600d546001600160a01b0316639890f8246200219862002e94565b6200222362000ed9600d60009054906101000a90046001600160a01b03166001600160a01b0316637150d8ae6040518163ffffffff1660e01b815260040160206040518083038186803b158015620021ef57600080fd5b505afa15801562002204573d6000803e3d6000fd5b505050506040513d60208110156200221b57600080fd5b50516200230c565b6040518363ffffffff1660e01b815260040180836001600160a01b031681526020018281526020019250505060206040518083038186803b1580156200226857600080fd5b505afa1580156200227d573d6000803e3d6000fd5b505050506040513d60208110156200229457600080fd5b5051620022bf57620020bf604051806060016040528060218152602001620050846021913962003982565b6040805162461bcd60e51b815260206004820181905260248201527f4163717569736974696f6e20636f6e7465737420756e7375636365737366756c604482015290519081900360640190fd5b6001600160a01b031660009081526020819052604090205490565b6001600160a01b031660009081526007602052604090206001015490565b600080620023538362003b52565b9050801562002364579050620010d9565b6200236e62001c25565b6001600160a01b0316836001600160a01b0316141562002393575050600c54620010d9565b620023f1600c54620023a462001c25565b6001600160a01b03166377e071ad866040518263ffffffff1660e01b815260040180826001600160a01b0316815260200191505060206040518083038186803b15801562001aff57600080fd5b915050620010d9565b60035481565b60055481565b6014805460408051602060026001851615610100026000190190941693909304601f8101849004840282018401909252818152929183018282801562000c915780601f1062000c655761010080835404028352916020019162000c91565b60086020526000908152604090205460ff1681565b60135460ff16620024ca576040805162461bcd60e51b8152602060048201526016602482015275436f6e7472616374206973206e6f742061637469766560501b604482015290519081900360640190fd5b6000339050620024ee612710620017bd601154620024e7620010b7565b9062003945565b620024f9826200230c565b101562002542576040805162461bcd60e51b8152602060048201526012602482015271145d5bdc9d5b481b9bdd081c995858da195960721b604482015290519081900360640190fd5b6200254c62002b30565b15620026c157600d60009054906101000a90046001600160a01b03166001600160a01b031663cf42a9276040518163ffffffff1660e01b815260040160206040518083038186803b158015620025a157600080fd5b505afa158015620025b6573d6000803e3d6000fd5b505050506040513d6020811015620025cd57600080fd5b5051620026a557620025de6200158a565b600d60009054906101000a90046001600160a01b03166001600160a01b031663cf42a9276040518163ffffffff1660e01b815260040160206040518083038186803b1580156200262d57600080fd5b505afa15801562002642573d6000803e3d6000fd5b505050506040513d60208110156200265957600080fd5b5051620026a5576040805162461bcd60e51b8152602060048201526015602482015274145d5bdc9d5b481a185cc81b9bdd0819985a5b1959605a1b604482015290519081900360640190fd5b620026af62001fb2565b620026b962002b30565b15620026c157fe5b620026cf81826001620036e2565b604080516001600160a01b038316815290517f3b6b79a09e9fd230e8591b65c97236bf7df7a604edf733db0658e66b0e6eb2a99181900360200190a150565b6200271862002b30565b801562002727575060135460ff165b62002768576040805162461bcd60e51b815260206004820152601960248201526000805160206200514e833981519152604482015290519081900360640190fd5b600d5433906001600160a01b0316635ff0cf848262001603816200230c565b62002791620043c6565b506001600160a01b038082166000908152600660209081526040918290208251608081018452815485168152600182015492810183905260029091015463ffffffff811693820193909352600160201b909204909216606082018190529091908162002835576040805162461bcd60e51b815260206004820152600e60248201526d139bc818db185a5b48199bdd5b9960921b604482015290519081900360640190fd5b82516001600160a01b0316331462002894576040805162461bcd60e51b815260206004820152601f60248201527f4f6e6c7920636c61696d616e742063616e207265736f6c766520636c61696d00604482015290519081900360640190fd5b42620028bc60035463ffffffff16856040015163ffffffff166200392b90919063ffffffff16565b111562002910576040805162461bcd60e51b815260206004820152601960248201527f436c61696d20706572696f64206e6f74206f7665722079657400000000000000604482015290519081900360640190fd5b82516001600160a01b03808616600090815260066020908152604080832080546001600160a01b03191681556001810184905560020180546001600160c01b0319169055805163a9059cbb60e01b815284861660048201526024810188905290519386169363a9059cbb93604480840194938390030190829087803b1580156200299957600080fd5b505af1158015620029ae573d6000803e3d6000fd5b505050506040513d6020811015620029c557600080fd5b505162002a16576040805162461bcd60e51b815260206004820152601a60248201527910dbdb1b185d195c985b081d1c985b9cd9995c8819985a5b195960321b604482015290519081900360640190fd5b62002a2d858262002a27886200230c565b62003919565b806001600160a01b0316856001600160a01b03167f52a5c2b28bc6eb9712d0ced43463103b486b13ccc9cda499fd3b2d7b6a74a8ee856040518082815260200191505060405180910390a35050505050565b6001600160a01b031660009081526006602052604090206001015490565b60115481565b3360008181526001602090815260408083206001600160a01b0387168452909152812054909162000cae918590620011259086620036cf565b600b546001600160a01b0316331462002af457600080fd5b62002b00848462003b99565b50505050565b600062002b14838362003c55565b5092915050565b60105481565b600f546001600160a01b031681565b60008062002b3d62001e39565b6001600160a01b03161415905090565b62002b5762002b30565b1562002ba5576040805162461bcd60e51b81526020600482015260186024820152772a3432b9329034b99030903832b73234b7339037b33332b960411b604482015290519081900360640190fd5b600b54604080516323b872dd60e01b81523360048201523060248201526044810184905290516001600160a01b03909216916323b872dd916064808201926020929091908290030181600087803b15801562002c0057600080fd5b505af115801562002c15573d6000803e3d6000fd5b505050506040513d602081101562002c2c57600080fd5b505162002c78576040805162461bcd60e51b815260206004820152601560248201527414da185c99481d1c985b9cd9995c8819985a5b1959605a1b604482015290519081900360640190fd5b62002c84828262003b99565b5050565b600d546001600160a01b031681565b6006602052600090815260409020805460018201546002909201546001600160a01b03918216929163ffffffff821691600160201b90041684565b6016805460408051602060026001851615610100026000190190941693909304601f8101849004840282018401909252818152929183018282801562000c915780601f1062000c655761010080835404028352916020019162000c91565b6001600160a01b03918216600090815260016020908152604080832093909416825291909152205490565b60135460ff161562002d9f5760405162461bcd60e51b8152600401808060200182810382526036815260200180620050a56036913960400191505060405180910390fd5b62002dab338262003939565b600b54600c546001600160a01b039091169063a9059cbb90339062002dd290859062003945565b6040518363ffffffff1660e01b815260040180836001600160a01b0316815260200182815260200192505050602060405180830381600087803b15801562002e1957600080fd5b505af115801562002e2e573d6000803e3d6000fd5b505050506040513d602081101562002e4557600080fd5b505162002e91576040805162461bcd60e51b815260206004820152601560248201527414da185c99481d1c985b9cd9995c8819985a5b1959605a1b604482015290519081900360640190fd5b50565b600e546001600160a01b031690565b62002ead62002b30565b801562002ebc575060135460ff165b62002efd576040805162461bcd60e51b815260206004820152601960248201526000805160206200514e833981519152604482015290519081900360640190fd5b600d60009054906101000a90046001600160a01b03166001600160a01b0316637150d8ae6040518163ffffffff1660e01b815260040160206040518083038186803b15801562002f4c57600080fd5b505afa15801562002f61573d6000803e3d6000fd5b505050506040513d602081101562002f7857600080fd5b50516001600160a01b0316331462002fc25760405162461bcd60e51b8152600401808060200182810382526037815260200180620050db6037913960400191505060405180910390fd5b62001fb06040518060400160405280601281526020017121b0b731b2b63632b210313c90313abcb2b960711b81525062003982565b6001600160a01b03821662003053576040805162461bcd60e51b815260206004820152601860248201527f43616e277420636c61696d207a65726f20616464726573730000000000000000604482015290519081900360640190fd5b6200305e82620035c0565b620030b0576040805162461bcd60e51b815260206004820181905260248201527f436c61696d732064697361626c656420666f7220746869732061646472657373604482015290519081900360640190fd5b6000620030bd8462002345565b90506000811162003115576040805162461bcd60e51b815260206004820152601b60248201527f556e737570706f7274656420636f6c6c61746572616c20747970650000000000604482015290519081900360640190fd5b33600062003123856200230c565b9050600062003133828562003945565b9050868262003189576040805162461bcd60e51b815260206004820152601f60248201527f436c61696d6564206164647265737320686f6c6473206e6f2073686172657300604482015290519081900360640190fd5b60408051636eb1769f60e11b81526001600160a01b0386811660048301523060248301529151849284169163dd62ed3e916044808301926020929190829003018186803b158015620031da57600080fd5b505afa158015620031ef573d6000803e3d6000fd5b505050506040513d60208110156200320657600080fd5b505110156200325c576040805162461bcd60e51b815260206004820152601f60248201527f43757272656e637920616c6c6f77616e636520696e73756666696369656e7400604482015290519081900360640190fd5b81816001600160a01b03166370a08231866040518263ffffffff1660e01b815260040180826001600160a01b0316815260200191505060206040518083038186803b158015620032ab57600080fd5b505afa158015620032c0573d6000803e3d6000fd5b505050506040513d6020811015620032d757600080fd5b505110156200332d576040805162461bcd60e51b815260206004820152601d60248201527f43757272656e63792062616c616e636520696e73756666696369656e74000000604482015290519081900360640190fd5b6001600160a01b038716600090815260066020526040902060010154156200339c576040805162461bcd60e51b815260206004820152601760248201527f4164647265737320616c726561647920636c61696d6564000000000000000000604482015290519081900360640190fd5b620033a8878762003cb1565b604080516323b872dd60e01b81526001600160a01b038681166004830152306024830152604482018590529151918316916323b872dd916064808201926020929091908290030181600087803b1580156200340257600080fd5b505af115801562003417573d6000803e3d6000fd5b505050506040513d60208110156200342e57600080fd5b50516200347f576040805162461bcd60e51b815260206004820152601a60248201527910dbdb1b185d195c985b081d1c985b9cd9995c8819985a5b195960321b604482015290519081900360640190fd5b604080516080810182526001600160a01b0386811680835260208084018781524263ffffffff9081168688019081528f8616606088019081528f87166000818152600687528a812099518a546001600160a01b031916908a16178a5594516001808b0191909155925160029099018054925163ffffffff199093169990941698909817640100000000600160c01b031916600160201b919097160295909517905582815260078252858120818155909301929092558351878152935190937f1982ca8958fc8a8176cb52be509260f4bc5af7ce04e1533711793f1c56dd535992908290030190a35050505050505050565b6001600160a01b031660009081526006602052604090206002015463ffffffff1690565b6000620035a062002b30565b620035ad576000620035b5565b60135460ff16155b905090565b60045481565b6001600160a01b031660009081526008602052604090205460ff161590565b6001600160a01b038316620036265760405162461bcd60e51b81526004018080602001828103825260248152602001806200520d6024913960400191505060405180910390fd5b6001600160a01b0382166200366d5760405162461bcd60e51b81526004018080602001828103825260228152602001806200503d6022913960400191505060405180910390fd5b6001600160a01b03808416600081815260016020908152604080832094871680845294825291829020859055815185815291517f8c5be1e5ebec7d5bd14f71427d1e84f3dd0314c0f7b2291e5b200ac8c7c3b9259281900390910190a3505050565b600082821115620036dc57fe5b50900390565b6000620036ef846200230c565b90506000620036fd620010b7565b6013805460ff191690559050620037148262002d5b565b6000620037228284620036cf565b600b546040805163a9059cbb60e01b81526001600160a01b038a8116600483015260248201859052915193945091169163a9059cbb916044808201926020929091908290030181600087803b1580156200377b57600080fd5b505af115801562003790573d6000803e3d6000fd5b505050506040513d6020811015620037a757600080fd5b5051620037fb576040805162461bcd60e51b815260206004820152601d60248201527f5772617070656420746f6b656e207472616e73666572206661696c6564000000604482015290519081900360640190fd5b6001600160a01b0385166323b872dd873062003818888662003945565b6040518463ffffffff1660e01b815260040180846001600160a01b03168152602001836001600160a01b031681526020018281526020019350505050602060405180830381600087803b1580156200386f57600080fd5b505af115801562003884573d6000803e3d6000fd5b505050506040513d60208110156200389b57600080fd5b5051620038ef576040805162461bcd60e51b815260206004820152601760248201527f4261636b696e67207472616e73666572206661696c6564000000000000000000604482015290519081900360640190fd5b5050600b80546001600160a01b0319166001600160a01b039490941693909317909255600c555050565b6200392683838362003e8a565b505050565b8181018281101562000cb257fe5b62002c84828262003f32565b600082620039565750600062000cb2565b50818102818382816200396557fe5b041462000cb257fe5b60008183816200397a57fe5b049392505050565b600d54604080516338a86c5760e11b815290516000926001600160a01b031691637150d8ae916004808301926020929190829003018186803b158015620039c857600080fd5b505afa158015620039dd573d6000803e3d6000fd5b505050506040513d6020811015620039f457600080fd5b505190506001600160a01b0381167fc88f58ae9feb0742d9422f604dd3c1be6d02818f8dec340c5061f428b554e9753360008562003a3162001e39565b60405180856001600160a01b03168152602001841515815260200180602001836001600160a01b03168152602001828103825284818151815260200191508051906020019080838360005b8381101562003a9657818101518382015260200162003a7c565b50505050905090810190601f16801562003ac45780820380516001836020036101000a031916815260200191505b509550505050505060405180910390a2600d60009054906101000a90046001600160a01b03166001600160a01b03166341c0e1b56040518163ffffffff1660e01b8152600401600060405180830381600087803b15801562003b2557600080fd5b505af115801562003b3a573d6000803e3d6000fd5b5050600d80546001600160a01b031916905550505050565b60006001600160a01b03821630141562003b6f57506001620010d9565b6009546001600160a01b038381169116141562003b905750600a54620010d9565b506000620010d9565b62003ba362002b30565b1562003bf1576040805162461bcd60e51b81526020600482015260186024820152772a3432b9329034b99030903832b73234b7339037b33332b960411b604482015290519081900360640190fd5b60135460ff1662003c49576040805162461bcd60e51b815260206004820152601d60248201527f436f6e7472616374206e6f742061637469766520616e79206d6f72652e000000604482015290519081900360640190fd5b62002c8482826200402c565b600062003c63838362004038565b62003ca7576040805162461bcd60e51b815260206004820152600f60248201526e151c985b9cd9995c8819985a5b1959608a1b604482015290519081900360640190fd5b62000cae62001e48565b62003cbb620043fb565b5033600090815260076020908152604091829020825180840190935280548084526001909101549183019190915262003d3b576040805162461bcd60e51b815260206004820152601a60248201527f4d65737361676520686173682063616e2774206265207a65726f000000000000604482015290519081900360640190fd5b4262003d5760045483602001516200392b90919063ffffffff16565b111562003d965760405162461bcd60e51b815260040180806020018281038252602b815260200180620051b4602b913960400191505060405180910390fd5b4262003db260055483602001516200392b90919063ffffffff16565b101562003df15760405162461bcd60e51b81526004018080602001828103825260258152602001806200505f6025913960400191505060405180910390fd5b60408051602080820185905233606090811b8385015286901b6bffffffffffffffffffffffff19166054830152825180830360480181526068909201909252805191012081511462003926576040805162461bcd60e51b815260206004820152601e60248201527f5061636b61676520636f756c64206e6f742062652076616c6964617465640000604482015290519081900360640190fd5b62003e9783838362004047565b62003ea162002b30565b801562003eb0575060135460ff165b156200392657600d5460408051636240a7d760e11b81526001600160a01b0386811660048301528581166024830152604482018590529151919092169163c4814fae91606480830192600092919082900301818387803b15801562003f1457600080fd5b505af115801562003f29573d6000803e3d6000fd5b50505050505050565b8062003f3e336200230c565b101562003f89576040805162461bcd60e51b815260206004820152601460248201527310985b185b98d9481a5b9cdd59999a58da595b9d60621b604482015290519081900360640190fd5b62003f95828262004185565b62003f9f62002b30565b801562003fae575060135460ff165b1562002c8457600d5460408051636240a7d760e11b81526001600160a01b03858116600483015260006024830181905260448301869052925193169263c4814fae9260648084019391929182900301818387803b1580156200400f57600080fd5b505af115801562004024573d6000803e3d6000fd5b505050505050565b62002c84828262004258565b600062000cae33848462003919565b6001600160a01b0383166200408e5760405162461bcd60e51b81526004018080602001828103825260258152602001806200518f6025913960400191505060405180910390fd5b6001600160a01b038216620040d55760405162461bcd60e51b815260040180806020018281038252602381526020018062004ff86023913960400191505060405180910390fd5b6001600160a01b038316600090815260208190526040902054620040fa9082620036cf565b6001600160a01b0380851660009081526020819052604080822093909355908416815220546200412b90826200392b565b6001600160a01b038084166000818152602081815260409182902094909455805185815290519193928716927fddf252ad1be2c89b69c2b068fc378daa952ba7f163c4a11628f55a4df523b3ef92918290030190a3505050565b6001600160a01b038216620041cc5760405162461bcd60e51b81526004018080602001828103825260218152602001806200516e6021913960400191505060405180910390fd5b600254620041db9082620036cf565b6002556001600160a01b038216600090815260208190526040902054620042039082620036cf565b6001600160a01b038316600081815260208181526040808320949094558351858152935191937fddf252ad1be2c89b69c2b068fc378daa952ba7f163c4a11628f55a4df523b3ef929081900390910190a35050565b620042648282620042dd565b6200426e62002b30565b80156200427d575060135460ff165b1562002c8457600d5460408051636240a7d760e11b81526000600482018190526001600160a01b038681166024840152604483018690529251929093169263c4814fae9260648084019382900301818387803b1580156200400f57600080fd5b6001600160a01b03821662004339576040805162461bcd60e51b815260206004820152601f60248201527f45524332303a206d696e7420746f20746865207a65726f206164647265737300604482015290519081900360640190fd5b6002546200434890826200392b565b6002556001600160a01b0382166000908152602081905260409020546200437090826200392b565b6001600160a01b0383166000818152602081815260408083209490945583518581529351929391927fddf252ad1be2c89b69c2b068fc378daa952ba7f163c4a11628f55a4df523b3ef9281900390910190a35050565b60408051608081018252600080825260208201819052918101829052606081019190915290565b610be5806200441383390190565b60408051808201909152600080825260208201529056fe608060405234801561001057600080fd5b50604051610be5380380610be58339818101604052606081101561003357600080fd5b508051602082015160409092015190919081610096576040805162461bcd60e51b815260206004820152601460248201527f50726963652063616e6e6f74206265207a65726f000000000000000000000000604482015290519081900360640190fd5b600180546001600160a01b03199081163317909155600280546001600160a01b0395909516949091169390931790925560035560005542600455610b06806100df6000396000f3fe608060405234801561001057600080fd5b50600436106101215760003560e01c80639890f824116100ad578063c4814fae11610071578063c4814fae14610282578063cf42a927146102b8578063d7be4e29146102c0578063fa7f1bae146102c8578063fb286c65146102d057610121565b80639890f82414610236578063a035b1fe14610262578063b1610d7e1461026a578063b5b47f4214610272578063b80777ea1461027a57610121565b80634b91562e116100f45780634b91562e1461018c5780635ff0cf84146101b85780637150d8ae146101e45780638f1b4c6f1461020857806390e64d131461022e57610121565b80630c43cd88146101265780631703a0181461014057806341c0e1b514610148578063448ab4c614610152575b600080fd5b61012e6102d8565b60408051918252519081900360200190f35b61012e6102df565b6101506102e5565b005b6101786004803603602081101561016857600080fd5b50356001600160a01b031661033c565b604080519115158252519081900360200190f35b610150600480360360408110156101a257600080fd5b506001600160a01b03813516906020013561036f565b610150600480360360408110156101ce57600080fd5b506001600160a01b038135169060200135610417565b6101ec6104bb565b604080516001600160a01b039092168252519081900360200190f35b6101786004803603602081101561021e57600080fd5b50356001600160a01b03166104ca565b6101786104d3565b6101786004803603604081101561024c57600080fd5b506001600160a01b0381351690602001356104f7565b61012e610633565b61012e610639565b61012e610640565b61012e610646565b6101506004803603606081101561029857600080fd5b506001600160a01b0381358116916020810135909116906040013561064c565b6101786106df565b61017861082a565b6101786108e3565b61012e610907565b6276a70081565b60005481565b6001546001600160a01b0316331461032e5760405162461bcd60e51b8152600401808060200182810382526025815260200180610aac6025913960400191505060405180910390fd5b6002546001600160a01b0316ff5b600060015b6001600160a01b03831660009081526007602052604090205460ff16600281111561036857fe5b1492915050565b6001546001600160a01b031633146103b85760405162461bcd60e51b8152600401808060200182810382526025815260200180610aac6025913960400191505060405180910390fd5b6103c06108e3565b610407576040805162461bcd60e51b81526020600482015260136024820152722a3432903b37ba32903430b99032b73232b21760691b604482015290519081900360640190fd5b6104136002828461090d565b5050565b6001546001600160a01b031633146104605760405162461bcd60e51b8152600401808060200182810382526025815260200180610aac6025913960400191505060405180910390fd5b6104686108e3565b6104af576040805162461bcd60e51b81526020600482015260136024820152722a3432903b37ba32903430b99032b73232b21760691b604482015290519081900360640190fd5b6104136001828461090d565b6002546001600160a01b031681565b60006002610341565b6000806104eb6004544261095390919063ffffffff16565b6276a700109150505b90565b600254604080516370a0823160e01b81526001600160a01b039283166004820152905160009285928492918416916370a0823191602480820192602092909190829003018186803b15801561054b57600080fd5b505afa15801561055f573d6000803e3d6000fd5b505050506040513d602081101561057557600080fd5b505160025460015460408051636eb1769f60e11b81526001600160a01b0393841660048201529183166024830152519293506000929185169163dd62ed3e91604480820192602092909190829003018186803b1580156105d457600080fd5b505afa1580156105e8573d6000803e3d6000fd5b505050506040513d60208110156105fe57600080fd5b5051600354909150600090610614908790610965565b90508281111580156106265750818111155b9450505050505b92915050565b60035481565b624f1a0081565b60055481565b60045481565b6001546001600160a01b031633146106955760405162461bcd60e51b8152600401808060200182810382526025815260200180610aac6025913960400191505060405180910390fd5b61069d6108e3565b156106da576001600160a01b0380841660009081526007602052604080822054928516825290205460ff91821691166106d782828561098a565b50505b505050565b60006106e96108e3565b156107fe57600054600154604080516318160ddd60e01b815290516107f6926001600160a01b0316916318160ddd916004808301926020929190829003018186803b15801561073757600080fd5b505afa15801561074b573d6000803e3d6000fd5b505050506040513d602081101561076157600080fd5b5051600554600154604080516318160ddd60e01b815290516107f093612710936107ea9391926001600160a01b03909116916318160ddd916004808301926020929190829003018186803b1580156107b857600080fd5b505afa1580156107cc573d6000803e3d6000fd5b505050506040513d60208110156107e257600080fd5b505190610953565b90610965565b90610a8b565b1090506104f4565b6000546107f661081b600554600654610a9e90919063ffffffff16565b6006546107f090612710610965565b60006108346108e3565b156108c657600054600154604080516318160ddd60e01b815290516108bd926001600160a01b0316916318160ddd916004808301926020929190829003018186803b15801561088257600080fd5b505afa158015610896573d6000803e3d6000fd5b505050506040513d60208110156108ac57600080fd5b50516006546107f090612710610965565b101590506104f4565b6000546108bd61081b600554600654610a9e90919063ffffffff16565b6000806108fb6004544261095390919063ffffffff16565b624f1a00101591505090565b60065481565b6001600160a01b0381166000908152600760205260409020805460ff811691859182919060ff1916600183600281111561094357fe5b02179055506106d782828661098a565b60008282111561095f57fe5b50900390565b6000826109745750600061062d565b508181028183828161098257fe5b041461062d57fe5b81600281111561099657fe5b8360028111156109a257fe5b146106da5760028360028111156109b557fe5b14156109d0576005546109c89082610953565b6005556109f5565b60018360028111156109de57fe5b14156109f5576006546109f19082610953565b6006555b6002826002811115610a0357fe5b1415610a1e57600554610a169082610a9e565b600555610a43565b6001826002811115610a2c57fe5b1415610a4357600654610a3f9082610a9e565b6006555b7f8fcc50c2c4edd06d51ae66e9e21ed76b32a1766c57f491788e1aa24a1b58c256600654600554604051808381526020018281526020019250505060405180910390a1505050565b6000818381610a9657fe5b049392505050565b8181018281101561062d57fefe43616e206f6e6c792062652063616c6c656420627920706172656e7420636f6e7472616374a2646970667358221220966ae58c4785a9b792aa8fd3f76d4375eae339875ae9a8da4dbd259da3f66ffc64736f6c634300060c003345524332303a207472616e7366657220746f20746865207a65726f20616464726573734f6666657220776173207265706c616365642062792061206869676865722062696445524332303a20617070726f766520746f20746865207a65726f2061646472657373507265636c61696d20706572696f6420656e642e20436c61696d656420746f6f206c6174654f6666657220776173206e6f742073756666696369656e746c792066756e6465644173206c6f6e672061732074686520636f6e7472616374206973206163746976652c20796f752061726520626f756e6420746f206974596f7520617265206e6f7420617574686f72697a656420746f2063616e63656c2074686973206163717569736974696f6e206f666665724e6577206f6666657273206d757374206265206174206c6561737420352520686967686572207468616e207468652070656e64696e67206f666665725468657265206973206e6f2070656e64696e67206f666665720000000000000045524332303a206275726e2066726f6d20746865207a65726f206164647265737345524332303a207472616e736665722066726f6d20746865207a65726f2061646472657373507265636c61696d20706572696f642076696f6c617465642e20436c61696d656420746f6f206561726c795468697320636f6e747261637420646f6573206e6f7420726570726573656e7420656e6f7567682065717569747945524332303a20617070726f76652066726f6d20746865207a65726f2061646472657373596f7520617265206e6f7420617574686f72697a656420746f20636f6d706c6574652074686973206163717569736974696f6e206f66666572596f75206e65656420746f20686f6c64206174206c65617374203525206f6620746865206669726d20746f206d616b6520616e206f66666572a264697066735822122098232a469185aa42b03c55584fdeee7c0189918314fde7cc9609e7998ecffd9f64736f6c634300060c0033",
    "sourcePath": "c:/Users/luziu/Documents/aktionariat/contracts/src/DraggableCompanyNameShares.sol",
    "compiler": {
        "name": "solc",
        "version": "0.6.12+commit.27d51765"
    },
    "functionHashes": {
        "acquisitionQuorum()": "3549788a",
        "active()": "02fb0c5e",
        "allowance(address,address)": "dd62ed3e",
        "approve(address,uint256)": "095ea7b3",
        "balanceOf(address)": "70a08231",
        "burn(uint256)": "42966c68",
        "cancelAcquisition()": "e1b8c38e",
        "claimPeriod()": "7dc2cd98",
        "claimingDisabled(address)": "8e0597c1",
        "claims(address)": "c6788bdd",
        "clearClaim()": "6b03ed5f",
        "completeAcquisition()": "141c7068",
        "contestAcquisition()": "6f4b18df",
        "customCollateralAddress()": "0c6f0e5d",
        "customCollateralRate()": "60918117",
        "decimals()": "313ce567",
        "declareLost(address,address,bytes32)": "e5a8765a",
        "decreaseAllowance(address,uint256)": "a457c2d7",
        "deleteClaim(address)": "32a7ae95",
        "getClaimDeleter()": "2a0a4ed5",
        "getClaimant(address)": "1e3b9de5",
        "getCollateral(address)": "9b56d6c9",
        "getCollateralRate(address)": "77e071ad",
        "getCollateralType(address)": "3bcc45ba",
        "getCurrencyContract()": "de494685",
        "getMsgHash(address)": "24b50e43",
        "getPendingOffer()": "6467c09a",
        "getPreClaimTimeStamp(address)": "75a88bcf",
        "getTimeStamp(address)": "eb470ebf",
        "getWrappedContract()": "58047913",
        "increaseAllowance(address,uint256)": "39509351",
        "initiateAcquisition(uint256)": "4900ca51",
        "isClaimsEnabled(address)": "f66f145a",
        "licenseFee()": "a9d9d0c7",
        "licenseFeeRecipient()": "bb689472",
        "migrate()": "8fd3ab80",
        "migrationQuorum()": "9e8a9a5a",
        "name()": "06fdde03",
        "offer()": "c028df06",
        "offerExists()": "bc1b1e7c",
        "onTokenTransfer(address,uint256,bytes)": "a4c0ed36",
        "preClaimPeriod()": "ee18d99e",
        "preClaimPeriodEnd()": "7dde2a02",
        "preClaims(address)": "493c160f",
        "prepareClaim(bytes32)": "5b1c1625",
        "resolveClaim(address)": "94d645a8",
        "setClaimable(bool)": "378c93ad",
        "terms()": "d5025625",
        "ticker()": "8ba47bdd",
        "totalSupply()": "18160ddd",
        "transfer(address,uint256)": "a9059cbb",
        "transferAndCall(address,uint256,bytes)": "4000aea0",
        "transferFrom(address,address,uint256)": "23b872dd",
        "unwrap(uint256)": "de0e9a3e",
        "unwrapConversionFactor()": "0832e470",
        "updateCurrency(address)": "5e027601",
        "voteNo()": "41c12a70",
        "voteYes()": "90cf581c",
        "wasAcquired()": "ec6580e2",
        "wrap(address,uint256)": "bf376c7a"
    },
    "gasEstimates": {
        "creation": {
            "codeDepositCost": "4241600",
            "executionCost": "infinite",
            "totalCost": "infinite"
        },
        "external": {
            "acquisitionQuorum()": "1110",
            "active()": "1080",
            "allowance(address,address)": "1383",
            "approve(address,uint256)": "infinite",
            "balanceOf(address)": "1278",
            "burn(uint256)": "infinite",
            "cancelAcquisition()": "infinite",
            "claimPeriod()": "1111",
            "claimingDisabled(address)": "1248",
            "claims(address)": "2998",
            "clearClaim()": "infinite",
            "completeAcquisition()": "infinite",
            "contestAcquisition()": "infinite",
            "customCollateralAddress()": "1128",
            "customCollateralRate()": "1132",
            "decimals()": "275",
            "declareLost(address,address,bytes32)": "infinite",
            "decreaseAllowance(address,uint256)": "infinite",
            "deleteClaim(address)": "infinite",
            "getClaimDeleter()": "infinite",
            "getClaimant(address)": "1247",
            "getCollateral(address)": "1260",
            "getCollateralRate(address)": "infinite",
            "getCollateralType(address)": "1286",
            "getCurrencyContract()": "1126",
            "getMsgHash(address)": "1255",
            "getPendingOffer()": "1104",
            "getPreClaimTimeStamp(address)": "1217",
            "getTimeStamp(address)": "1220",
            "getWrappedContract()": "1105",
            "increaseAllowance(address,uint256)": "infinite",
            "initiateAcquisition(uint256)": "infinite",
            "isClaimsEnabled(address)": "1289",
            "licenseFee()": "1131",
            "licenseFeeRecipient()": "1105",
            "migrate()": "infinite",
            "migrationQuorum()": "1132",
            "name()": "infinite",
            "offer()": "1104",
            "offerExists()": "1174",
            "onTokenTransfer(address,uint256,bytes)": "infinite",
            "preClaimPeriod()": "1108",
            "preClaimPeriodEnd()": "1066",
            "preClaims(address)": "2097",
            "prepareClaim(bytes32)": "41593",
            "resolveClaim(address)": "infinite",
            "setClaimable(bool)": "21230",
            "terms()": "infinite",
            "ticker()": "infinite",
            "totalSupply()": "1133",
            "transfer(address,uint256)": "infinite",
            "transferAndCall(address,uint256,bytes)": "infinite",
            "transferFrom(address,address,uint256)": "infinite",
            "unwrap(uint256)": "infinite",
            "unwrapConversionFactor()": "1112",
            "updateCurrency(address)": "infinite",
            "voteNo()": "infinite",
            "voteYes()": "infinite",
            "wasAcquired()": "2034",
            "wrap(address,uint256)": "infinite"
        },
        "internal": {
            "_burn(address,uint256)": "infinite",
            "_mint(address,uint256)": "infinite",
            "_transfer(address,address,uint256)": "infinite"
        }
    }
}