{
    "contractName": "DraggableShares",
    "abi": [
        {
            "inputs": [
                {
                    "internalType": "string",
                    "name": "_terms",
                    "type": "string"
                },
                {
                    "internalType": "address",
                    "name": "wrappedToken",
                    "type": "address"
                },
                {
                    "internalType": "uint256",
                    "name": "quorum",
                    "type": "uint256"
                }
            ],
            "stateMutability": "nonpayable",
            "type": "constructor"
        },
        {
            "anonymous": false,
            "inputs": [
                {
                    "indexed": true,
                    "internalType": "address",
                    "name": "owner",
                    "type": "address"
                },
                {
                    "indexed": true,
                    "internalType": "address",
                    "name": "spender",
                    "type": "address"
                },
                {
                    "indexed": false,
                    "internalType": "uint256",
                    "name": "value",
                    "type": "uint256"
                }
            ],
            "name": "Approval",
            "type": "event"
        },
        {
            "anonymous": false,
            "inputs": [
                {
                    "indexed": true,
                    "internalType": "address",
                    "name": "lostAddress",
                    "type": "address"
                },
                {
                    "indexed": false,
                    "internalType": "uint256",
                    "name": "collateral",
                    "type": "uint256"
                }
            ],
            "name": "ClaimCleared",
            "type": "event"
        },
        {
            "anonymous": false,
            "inputs": [
                {
                    "indexed": true,
                    "internalType": "address",
                    "name": "lostAddress",
                    "type": "address"
                },
                {
                    "indexed": true,
                    "internalType": "address",
                    "name": "claimant",
                    "type": "address"
                },
                {
                    "indexed": false,
                    "internalType": "uint256",
                    "name": "collateral",
                    "type": "uint256"
                }
            ],
            "name": "ClaimDeleted",
            "type": "event"
        },
        {
            "anonymous": false,
            "inputs": [
                {
                    "indexed": true,
                    "internalType": "address",
                    "name": "lostAddress",
                    "type": "address"
                },
                {
                    "indexed": true,
                    "internalType": "address",
                    "name": "claimant",
                    "type": "address"
                },
                {
                    "indexed": false,
                    "internalType": "uint256",
                    "name": "balance",
                    "type": "uint256"
                }
            ],
            "name": "ClaimMade",
            "type": "event"
        },
        {
            "anonymous": false,
            "inputs": [
                {
                    "indexed": false,
                    "internalType": "uint256",
                    "name": "newClaimPeriodInDays",
                    "type": "uint256"
                }
            ],
            "name": "ClaimPeriodChanged",
            "type": "event"
        },
        {
            "anonymous": false,
            "inputs": [
                {
                    "indexed": true,
                    "internalType": "address",
                    "name": "lostAddress",
                    "type": "address"
                },
                {
                    "indexed": true,
                    "internalType": "address",
                    "name": "claimant",
                    "type": "address"
                },
                {
                    "indexed": false,
                    "internalType": "uint256",
                    "name": "collateral",
                    "type": "uint256"
                }
            ],
            "name": "ClaimResolved",
            "type": "event"
        },
        {
            "anonymous": false,
            "inputs": [
                {
                    "indexed": false,
                    "internalType": "address",
                    "name": "newCustomCollateralAddress",
                    "type": "address"
                },
                {
                    "indexed": false,
                    "internalType": "uint256",
                    "name": "newCustomCollareralRate",
                    "type": "uint256"
                }
            ],
            "name": "CustomClaimCollateralChanged",
            "type": "event"
        },
        {
            "anonymous": false,
            "inputs": [
                {
                    "indexed": false,
                    "internalType": "address",
                    "name": "newContractAddress",
                    "type": "address"
                }
            ],
            "name": "MigrationSucceeded",
            "type": "event"
        },
        {
            "anonymous": false,
            "inputs": [
                {
                    "indexed": true,
                    "internalType": "address",
                    "name": "buyer",
                    "type": "address"
                },
                {
                    "indexed": false,
                    "internalType": "uint256",
                    "name": "pricePerShare",
                    "type": "uint256"
                },
                {
                    "indexed": false,
                    "internalType": "address",
                    "name": "currency",
                    "type": "address"
                },
                {
                    "indexed": false,
                    "internalType": "address",
                    "name": "offerContract",
                    "type": "address"
                }
            ],
            "name": "OfferCreated",
            "type": "event"
        },
        {
            "anonymous": false,
            "inputs": [
                {
                    "indexed": true,
                    "internalType": "address",
                    "name": "buyer",
                    "type": "address"
                },
                {
                    "indexed": false,
                    "internalType": "address",
                    "name": "sender",
                    "type": "address"
                },
                {
                    "indexed": false,
                    "internalType": "bool",
                    "name": "success",
                    "type": "bool"
                },
                {
                    "indexed": false,
                    "internalType": "string",
                    "name": "message",
                    "type": "string"
                },
                {
                    "indexed": false,
                    "internalType": "address",
                    "name": "offerContract",
                    "type": "address"
                }
            ],
            "name": "OfferEnded",
            "type": "event"
        },
        {
            "anonymous": false,
            "inputs": [
                {
                    "indexed": true,
                    "internalType": "address",
                    "name": "from",
                    "type": "address"
                },
                {
                    "indexed": true,
                    "internalType": "address",
                    "name": "to",
                    "type": "address"
                },
                {
                    "indexed": false,
                    "internalType": "uint256",
                    "name": "value",
                    "type": "uint256"
                }
            ],
            "name": "Transfer",
            "type": "event"
        },
        {
            "inputs": [],
            "name": "acquisitionQuorum",
            "outputs": [
                {
                    "internalType": "uint256",
                    "name": "",
                    "type": "uint256"
                }
            ],
            "stateMutability": "view",
            "type": "function"
        },
        {
            "inputs": [],
            "name": "active",
            "outputs": [
                {
                    "internalType": "bool",
                    "name": "",
                    "type": "bool"
                }
            ],
            "stateMutability": "view",
            "type": "function"
        },
        {
            "inputs": [
                {
                    "internalType": "address",
                    "name": "owner",
                    "type": "address"
                },
                {
                    "internalType": "address",
                    "name": "spender",
                    "type": "address"
                }
            ],
            "name": "allowance",
            "outputs": [
                {
                    "internalType": "uint256",
                    "name": "",
                    "type": "uint256"
                }
            ],
            "stateMutability": "view",
            "type": "function"
        },
        {
            "inputs": [
                {
                    "internalType": "address",
                    "name": "spender",
                    "type": "address"
                },
                {
                    "internalType": "uint256",
                    "name": "value",
                    "type": "uint256"
                }
            ],
            "name": "approve",
            "outputs": [
                {
                    "internalType": "bool",
                    "name": "",
                    "type": "bool"
                }
            ],
            "stateMutability": "nonpayable",
            "type": "function"
        },
        {
            "inputs": [
                {
                    "internalType": "address",
                    "name": "account",
                    "type": "address"
                }
            ],
            "name": "balanceOf",
            "outputs": [
                {
                    "internalType": "uint256",
                    "name": "",
                    "type": "uint256"
                }
            ],
            "stateMutability": "view",
            "type": "function"
        },
        {
            "inputs": [
                {
                    "internalType": "uint256",
                    "name": "amount",
                    "type": "uint256"
                }
            ],
            "name": "burn",
            "outputs": [],
            "stateMutability": "nonpayable",
            "type": "function"
        },
        {
            "inputs": [],
            "name": "cancelAcquisition",
            "outputs": [],
            "stateMutability": "nonpayable",
            "type": "function"
        },
        {
            "inputs": [],
            "name": "claimPeriod",
            "outputs": [
                {
                    "internalType": "uint256",
                    "name": "",
                    "type": "uint256"
                }
            ],
            "stateMutability": "view",
            "type": "function"
        },
        {
            "inputs": [
                {
                    "internalType": "address",
                    "name": "",
                    "type": "address"
                }
            ],
            "name": "claims",
            "outputs": [
                {
                    "internalType": "address",
                    "name": "claimant",
                    "type": "address"
                },
                {
                    "internalType": "uint256",
                    "name": "collateral",
                    "type": "uint256"
                },
                {
                    "internalType": "uint256",
                    "name": "timestamp",
                    "type": "uint256"
                },
                {
                    "internalType": "address",
                    "name": "currencyUsed",
                    "type": "address"
                }
            ],
            "stateMutability": "view",
            "type": "function"
        },
        {
            "inputs": [],
            "name": "clearClaim",
            "outputs": [],
            "stateMutability": "nonpayable",
            "type": "function"
        },
        {
            "inputs": [],
            "name": "completeAcquisition",
            "outputs": [],
            "stateMutability": "nonpayable",
            "type": "function"
        },
        {
            "inputs": [],
            "name": "contestAcquisition",
            "outputs": [],
            "stateMutability": "nonpayable",
            "type": "function"
        },
        {
            "inputs": [],
            "name": "customCollateralAddress",
            "outputs": [
                {
                    "internalType": "address",
                    "name": "",
                    "type": "address"
                }
            ],
            "stateMutability": "view",
            "type": "function"
        },
        {
            "inputs": [],
            "name": "customCollateralRate",
            "outputs": [
                {
                    "internalType": "uint256",
                    "name": "",
                    "type": "uint256"
                }
            ],
            "stateMutability": "view",
            "type": "function"
        },
        {
            "inputs": [],
            "name": "decimals",
            "outputs": [
                {
                    "internalType": "uint8",
                    "name": "",
                    "type": "uint8"
                }
            ],
            "stateMutability": "view",
            "type": "function"
        },
        {
            "inputs": [
                {
                    "internalType": "address",
                    "name": "collateralType",
                    "type": "address"
                },
                {
                    "internalType": "address",
                    "name": "lostAddress",
                    "type": "address"
                }
            ],
            "name": "declareLost",
            "outputs": [],
            "stateMutability": "nonpayable",
            "type": "function"
        },
        {
            "inputs": [
                {
                    "internalType": "address",
                    "name": "spender",
                    "type": "address"
                },
                {
                    "internalType": "uint256",
                    "name": "subtractedValue",
                    "type": "uint256"
                }
            ],
            "name": "decreaseAllowance",
            "outputs": [
                {
                    "internalType": "bool",
                    "name": "",
                    "type": "bool"
                }
            ],
            "stateMutability": "nonpayable",
            "type": "function"
        },
        {
            "inputs": [
                {
                    "internalType": "address",
                    "name": "lostAddress",
                    "type": "address"
                }
            ],
            "name": "deleteClaim",
            "outputs": [],
            "stateMutability": "nonpayable",
            "type": "function"
        },
        {
            "inputs": [],
            "name": "getClaimDeleter",
            "outputs": [
                {
                    "internalType": "address",
                    "name": "",
                    "type": "address"
                }
            ],
            "stateMutability": "view",
            "type": "function"
        },
        {
            "inputs": [
                {
                    "internalType": "address",
                    "name": "lostAddress",
                    "type": "address"
                }
            ],
            "name": "getClaimant",
            "outputs": [
                {
                    "internalType": "address",
                    "name": "",
                    "type": "address"
                }
            ],
            "stateMutability": "view",
            "type": "function"
        },
        {
            "inputs": [
                {
                    "internalType": "address",
                    "name": "lostAddress",
                    "type": "address"
                }
            ],
            "name": "getCollateral",
            "outputs": [
                {
                    "internalType": "uint256",
                    "name": "",
                    "type": "uint256"
                }
            ],
            "stateMutability": "view",
            "type": "function"
        },
        {
            "inputs": [
                {
                    "internalType": "address",
                    "name": "collateralType",
                    "type": "address"
                }
            ],
            "name": "getCollateralRate",
            "outputs": [
                {
                    "internalType": "uint256",
                    "name": "",
                    "type": "uint256"
                }
            ],
            "stateMutability": "view",
            "type": "function"
        },
        {
            "inputs": [
                {
                    "internalType": "address",
                    "name": "lostAddress",
                    "type": "address"
                }
            ],
            "name": "getCollateralType",
            "outputs": [
                {
                    "internalType": "address",
                    "name": "",
                    "type": "address"
                }
            ],
            "stateMutability": "view",
            "type": "function"
        },
        {
            "inputs": [
                {
                    "internalType": "address",
                    "name": "lostAddress",
                    "type": "address"
                }
            ],
            "name": "getTimeStamp",
            "outputs": [
                {
                    "internalType": "uint256",
                    "name": "",
                    "type": "uint256"
                }
            ],
            "stateMutability": "view",
            "type": "function"
        },
        {
            "inputs": [
                {
                    "internalType": "address",
                    "name": "spender",
                    "type": "address"
                },
                {
                    "internalType": "uint256",
                    "name": "addedValue",
                    "type": "uint256"
                }
            ],
            "name": "increaseAllowance",
            "outputs": [
                {
                    "internalType": "bool",
                    "name": "",
                    "type": "bool"
                }
            ],
            "stateMutability": "nonpayable",
            "type": "function"
        },
        {
            "inputs": [
                {
                    "internalType": "uint256",
                    "name": "pricePerShare",
                    "type": "uint256"
                },
                {
                    "internalType": "address",
                    "name": "currency",
                    "type": "address"
                }
            ],
            "name": "initiateAcquisition",
            "outputs": [],
            "stateMutability": "nonpayable",
            "type": "function"
        },
        {
            "inputs": [
                {
                    "internalType": "address",
                    "name": "target",
                    "type": "address"
                }
            ],
            "name": "isRecoveryEnabled",
            "outputs": [
                {
                    "internalType": "bool",
                    "name": "",
                    "type": "bool"
                }
            ],
            "stateMutability": "view",
            "type": "function"
        },
        {
            "inputs": [],
            "name": "migrate",
            "outputs": [],
            "stateMutability": "nonpayable",
            "type": "function"
        },
        {
            "inputs": [],
            "name": "migrationQuorum",
            "outputs": [
                {
                    "internalType": "uint256",
                    "name": "",
                    "type": "uint256"
                }
            ],
            "stateMutability": "view",
            "type": "function"
        },
        {
            "inputs": [],
            "name": "name",
            "outputs": [
                {
                    "internalType": "string",
                    "name": "",
                    "type": "string"
                }
            ],
            "stateMutability": "view",
            "type": "function"
        },
        {
            "inputs": [],
            "name": "offer",
            "outputs": [
                {
                    "internalType": "contract Acquisition",
                    "name": "",
                    "type": "address"
                }
            ],
            "stateMutability": "view",
            "type": "function"
        },
        {
            "inputs": [
                {
                    "internalType": "address",
                    "name": "from",
                    "type": "address"
                },
                {
                    "internalType": "uint256",
                    "name": "amount",
                    "type": "uint256"
                },
                {
                    "internalType": "bytes",
                    "name": "",
                    "type": "bytes"
                }
            ],
            "name": "onTokenTransfer",
            "outputs": [],
            "stateMutability": "nonpayable",
            "type": "function"
        },
        {
            "inputs": [
                {
                    "internalType": "address",
                    "name": "lostAddress",
                    "type": "address"
                }
            ],
            "name": "recover",
            "outputs": [],
            "stateMutability": "nonpayable",
            "type": "function"
        },
        {
            "inputs": [
                {
                    "internalType": "address",
                    "name": "",
                    "type": "address"
                }
            ],
            "name": "recoveryDisabled",
            "outputs": [
                {
                    "internalType": "bool",
                    "name": "",
                    "type": "bool"
                }
            ],
            "stateMutability": "view",
            "type": "function"
        },
        {
            "inputs": [
                {
                    "internalType": "bool",
                    "name": "enabled",
                    "type": "bool"
                }
            ],
            "name": "setRecoverable",
            "outputs": [],
            "stateMutability": "nonpayable",
            "type": "function"
        },
        {
            "inputs": [],
            "name": "symbol",
            "outputs": [
                {
                    "internalType": "string",
                    "name": "",
                    "type": "string"
                }
            ],
            "stateMutability": "view",
            "type": "function"
        },
        {
            "inputs": [],
            "name": "terms",
            "outputs": [
                {
                    "internalType": "string",
                    "name": "",
                    "type": "string"
                }
            ],
            "stateMutability": "view",
            "type": "function"
        },
        {
            "inputs": [],
            "name": "totalSupply",
            "outputs": [
                {
                    "internalType": "uint256",
                    "name": "",
                    "type": "uint256"
                }
            ],
            "stateMutability": "view",
            "type": "function"
        },
        {
            "inputs": [
                {
                    "internalType": "address",
                    "name": "to",
                    "type": "address"
                },
                {
                    "internalType": "uint256",
                    "name": "value",
                    "type": "uint256"
                }
            ],
            "name": "transfer",
            "outputs": [
                {
                    "internalType": "bool",
                    "name": "",
                    "type": "bool"
                }
            ],
            "stateMutability": "nonpayable",
            "type": "function"
        },
        {
            "inputs": [
                {
                    "internalType": "address",
                    "name": "recipient",
                    "type": "address"
                },
                {
                    "internalType": "uint256",
                    "name": "amount",
                    "type": "uint256"
                },
                {
                    "internalType": "bytes",
                    "name": "data",
                    "type": "bytes"
                }
            ],
            "name": "transferAndCall",
            "outputs": [
                {
                    "internalType": "bool",
                    "name": "",
                    "type": "bool"
                }
            ],
            "stateMutability": "nonpayable",
            "type": "function"
        },
        {
            "inputs": [
                {
                    "internalType": "address",
                    "name": "sender",
                    "type": "address"
                },
                {
                    "internalType": "address",
                    "name": "recipient",
                    "type": "address"
                },
                {
                    "internalType": "uint256",
                    "name": "amount",
                    "type": "uint256"
                }
            ],
            "name": "transferFrom",
            "outputs": [
                {
                    "internalType": "bool",
                    "name": "",
                    "type": "bool"
                }
            ],
            "stateMutability": "nonpayable",
            "type": "function"
        },
        {
            "inputs": [
                {
                    "internalType": "uint256",
                    "name": "amount",
                    "type": "uint256"
                }
            ],
            "name": "unwrap",
            "outputs": [
                {
                    "internalType": "address",
                    "name": "",
                    "type": "address"
                },
                {
                    "internalType": "uint256",
                    "name": "",
                    "type": "uint256"
                }
            ],
            "stateMutability": "nonpayable",
            "type": "function"
        },
        {
            "inputs": [],
            "name": "unwrapConversionFactor",
            "outputs": [
                {
                    "internalType": "uint256",
                    "name": "",
                    "type": "uint256"
                }
            ],
            "stateMutability": "view",
            "type": "function"
        },
        {
            "inputs": [],
            "name": "voteNo",
            "outputs": [],
            "stateMutability": "nonpayable",
            "type": "function"
        },
        {
            "inputs": [],
            "name": "voteYes",
            "outputs": [],
            "stateMutability": "nonpayable",
            "type": "function"
        },
        {
            "inputs": [
                {
                    "internalType": "address",
                    "name": "shareholder",
                    "type": "address"
                },
                {
                    "internalType": "uint256",
                    "name": "amount",
                    "type": "uint256"
                }
            ],
            "name": "wrap",
            "outputs": [],
            "stateMutability": "nonpayable",
            "type": "function"
        },
        {
            "inputs": [],
            "name": "wrapped",
            "outputs": [
                {
                    "internalType": "contract IERC20",
                    "name": "",
                    "type": "address"
                }
            ],
            "stateMutability": "view",
            "type": "function"
        }
    ],
    "bytecode": "608060405262ed4e006004556001600a819055600e805460ff191690911790553480156200002c57600080fd5b506040516200458838038062004588833981810160405260608110156200005257600080fd5b81019080805160405193929190846401000000008211156200007357600080fd5b9083019060208201858111156200008957600080fd5b8251640100000000811182820188101715620000a457600080fd5b82525081516020918201929091019080838360005b83811015620000d3578181015183820152602001620000b9565b50505050905090810190601f168015620001015780820380516001836020036101000a031916815260200191505b506040818152602083810151938201516003805460ff19169055600980546001600160a01b0319166001600160a01b038716908117909155600c829055600d829055633a98ef3960e01b85529251949650945085938593849392633a98ef39926004808401938290030181600087803b1580156200017e57600080fd5b505af115801562000193573d6000803e3d6000fd5b505050506040513d6020811015620001aa57600080fd5b505060408051636427ed9760e01b815260006004820181905291516001600160a01b0388169550636427ed97945060248083019450909182900301818387803b158015620001f757600080fd5b505af11580156200020c573d6000803e3d6000fd5b50508451620002259250600f915060208601906200022f565b50505050620002cb565b828054600181600116156101000203166002900490600052602060002090601f016020900481019282601f106200027257805160ff1916838001178555620002a2565b82800160010185558215620002a2579182015b82811115620002a257825182559160200191906001019062000285565b50620002b0929150620002b4565b5090565b5b80821115620002b05760008155600101620002b5565b6142ad80620002db6000396000f3fe60806040523480156200001157600080fd5b5060043610620002d45760003560e01c80636427ed971162000189578063a457c2d711620000e1578063c6788bdd1162000093578063c6788bdd14620008bc578063d50256251462000922578063dd62ed3e146200092c578063de0e9a3e146200095d578063e1b8c38e14620009a0578063eb470ebf14620009aa57620002d4565b8063a457c2d71462000773578063a4c0ed3614620007a2578063a9059cbb146200082b578063b40e80d1146200085a578063bf376c7a1462000883578063c028df0614620008b257620002d4565b80638fd3ab80116200013b5780638fd3ab8014620006f957806390cf581c146200070357806395d89b41146200070d5780639b56d6c914620007175780639e8a9a5a1462000740578063a3ec1883146200074a57620002d4565b80636427ed9714620006675780636b03ed5f14620006895780636f4b18df146200069357806370a08231146200069d57806377e071ad14620006c65780637dc2cd9814620006ef57620002d4565b80632a0a4ed5116200023d5780634000aea011620001ef5780634000aea0146200057157806341c12a7014620005fa57806342966c68146200060457806349b210b7146200062457806350e70d48146200065357806360918117146200065d57620002d4565b80632a0a4ed514620004bc578063313ce56714620004c657806332a7ae9514620004e65780633549788a146200050f5780633950935114620005195780633bcc45ba146200054857620002d4565b80630cd865ec11620002975780630cd865ec14620003ea578063141c7068146200041557806318160ddd146200041f5780631e3b9de5146200042957806323b872dd146200045257806326773ddd146200048b57620002d4565b806302fb0c5e14620002d957806306fdde0314620002f75780630832e4701462000379578063095ea7b314620003955780630c6f0e5d14620003c4575b600080fd5b620002e3620009d3565b604080519115158252519081900360200190f35b62000301620009dc565b6040805160208082528351818301528351919283929083019185019080838360005b838110156200033d57818101518382015260200162000323565b50505050905090810190601f1680156200036b5780820380516001836020036101000a031916815260200191505b509250505060405180910390f35b6200038362000b97565b60408051918252519081900360200190f35b620002e360048036036040811015620003ad57600080fd5b506001600160a01b03813516906020013562000b9d565b620003ce62000bb6565b604080516001600160a01b039092168252519081900360200190f35b62000413600480360360208110156200040257600080fd5b50356001600160a01b031662000bc5565b005b6200041362000ea9565b62000383620011ca565b620003ce600480360360208110156200044157600080fd5b50356001600160a01b0316620011d0565b620002e3600480360360608110156200046a57600080fd5b506001600160a01b03813581169160208101359091169060400135620011f1565b6200041360048036036040811015620004a357600080fd5b506001600160a01b038135811691602001351662001248565b620003ce62001573565b620004d0620015ec565b6040805160ff9092168252519081900360200190f35b6200041360048036036020811015620004fe57600080fd5b50356001600160a01b0316620015f5565b620003836200185d565b620002e3600480360360408110156200053157600080fd5b506001600160a01b03813516906020013562001863565b620003ce600480360360208110156200056057600080fd5b50356001600160a01b03166200189c565b620002e3600480360360608110156200058957600080fd5b6001600160a01b0382351691602081013591810190606081016040820135600160201b811115620005b957600080fd5b820183602082011115620005cc57600080fd5b803590602001918460018302840111600160201b83111715620005ee57600080fd5b509092509050620018bd565b6200041362001984565b62000413600480360360208110156200061c57600080fd5b503562001a61565b62000413600480360360408110156200063c57600080fd5b50803590602001356001600160a01b031662001ae5565b620003ce62001f73565b6200038362001f82565b62000413600480360360208110156200067f57600080fd5b5035151562001f88565b6200041362001fa7565b620004136200210c565b6200038360048036036020811015620006b557600080fd5b50356001600160a01b031662002403565b6200038360048036036020811015620006de57600080fd5b50356001600160a01b03166200241e565b62000383620024c0565b62000413620024c6565b6200041362002606565b6200030162002681565b62000383600480360360208110156200072f57600080fd5b50356001600160a01b0316620027f9565b6200038362002817565b620002e3600480360360208110156200076257600080fd5b50356001600160a01b03166200281d565b620002e3600480360360408110156200078b57600080fd5b506001600160a01b0381351690602001356200283c565b6200041360048036036060811015620007ba57600080fd5b6001600160a01b0382351691602081013591810190606081016040820135600160201b811115620007ea57600080fd5b820183602082011115620007fd57600080fd5b803590602001918460018302840111600160201b831117156200081f57600080fd5b50909250905062002875565b620002e3600480360360408110156200084357600080fd5b506001600160a01b03813516906020013562002899565b620002e3600480360360208110156200087257600080fd5b50356001600160a01b0316620028ae565b62000413600480360360408110156200089b57600080fd5b506001600160a01b038135169060200135620028c3565b620003ce620029b3565b620008e560048036036020811015620008d457600080fd5b50356001600160a01b0316620029c2565b60405180856001600160a01b03168152602001848152602001838152602001826001600160a01b0316815260200194505050505060405180910390f35b62000301620029f4565b62000383600480360360408110156200094457600080fd5b506001600160a01b038135811691602001351662002a86565b6200097d600480360360208110156200097557600080fd5b503562002ab1565b604080516001600160a01b03909316835260208301919091528051918290030190f35b6200041362002bc2565b6200038360048036036020811015620009c257600080fd5b50356001600160a01b031662002cde565b600e5460ff1681565b600954604080516306fdde0360e01b815290516060926001600160a01b0316916306fdde03916004808301926000929190829003018186803b15801562000a2257600080fd5b505afa15801562000a37573d6000803e3d6000fd5b505050506040513d6000823e601f3d908101601f19168201604052602081101562000a6157600080fd5b8101908080516040519392919084600160201b82111562000a8157600080fd5b90830190602082018581111562000a9757600080fd5b8251600160201b81118282018810171562000ab157600080fd5b82525081516020918201929091019080838360005b8381101562000ae057818101518382015260200162000ac6565b50505050905090810190601f16801562000b0e5780820380516001836020036101000a031916815260200191505b506040525050506040516020018080690223930b3b3b0b13632960b51b815250600a0182805190602001908083835b6020831062000b5e5780518252601f19909201916020918201910162000b3d565b6001836020036101000a038019825116818451168082178552505050505050905001915050604051602081830303815290604052905090565b600a5481565b600062000bac33848462002cfc565b5060015b92915050565b6007546001600160a01b031681565b62000bcf620035d9565b506001600160a01b038082166000908152600560209081526040918290208251608081018452815485168152600182015492810183905260028201549381019390935260030154909216606082018190529091908162000c67576040805162461bcd60e51b815260206004820152600e60248201526d139bc818db185a5b48199bdd5b9960921b604482015290519081900360640190fd5b82516001600160a01b0316331462000cc6576040805162461bcd60e51b815260206004820152601f60248201527f4f6e6c7920636c61696d616e742063616e207265736f6c766520636c61696d00604482015290519081900360640190fd5b4262000ce2600454856040015162002d5e90919063ffffffff16565b111562000d36576040805162461bcd60e51b815260206004820152601960248201527f436c61696d20706572696f64206e6f74206f7665722079657400000000000000604482015290519081900360640190fd5b82516001600160a01b03808616600090815260056020908152604080832080546001600160a01b031990811682556001820185905560028201859055600390910180549091169055805163a9059cbb60e01b815284861660048201526024810188905290519386169363a9059cbb93604480840194938390030190829087803b15801562000dc357600080fd5b505af115801562000dd8573d6000803e3d6000fd5b505050506040513d602081101562000def57600080fd5b505162000e40576040805162461bcd60e51b815260206004820152601a60248201527910dbdb1b185d195c985b081d1c985b9cd9995c8819985a5b195960321b604482015290519081900360640190fd5b62000e57858262000e518862002403565b62002d6c565b806001600160a01b0316856001600160a01b03167f52a5c2b28bc6eb9712d0ced43463103b486b13ccc9cda499fd3b2d7b6a74a8ee856040518082815260200191505060405180910390a35050505050565b62000eb362002d7e565b801562000ec25750600e5460ff165b62000f07576040805162461bcd60e51b815260206004820152601060248201526f3737903832b73234b7339037b33332b960811b604482015290519081900360640190fd5b600b60009054906101000a90046001600160a01b03166001600160a01b0316637150d8ae6040518163ffffffff1660e01b815260040160206040518083038186803b15801562000f5657600080fd5b505afa15801562000f6b573d6000803e3d6000fd5b505050506040513d602081101562000f8257600080fd5b50516001600160a01b0316331462000f9957600080fd5b600b60009054906101000a90046001600160a01b03166001600160a01b031663d7be4e296040518163ffffffff1660e01b815260040160206040518083038186803b15801562000fe857600080fd5b505afa15801562000ffd573d6000803e3d6000fd5b505050506040513d60208110156200101457600080fd5b50516200105f576040805162461bcd60e51b8152602060048201526014602482015273125b9cdd59999a58da595b9d081cdd5c1c1bdc9d60621b604482015290519081900360640190fd5b6200115b33600b60009054906101000a90046001600160a01b03166001600160a01b031663e5a6b10f6040518163ffffffff1660e01b815260040160206040518083038186803b158015620010b357600080fd5b505afa158015620010c8573d6000803e3d6000fd5b505050506040513d6020811015620010df57600080fd5b5051600b546040805163501ad8ff60e11b815290516001600160a01b039092169163a035b1fe91600480820192602092909190829003018186803b1580156200112757600080fd5b505afa1580156200113c573d6000803e3d6000fd5b505050506040513d60208110156200115357600080fd5b505162002d8f565b600b546040805133808252600160208301526001600160a01b039390931660608201526080818301819052600790820152665375636365737360c81b60a082015290517fc88f58ae9feb0742d9422f604dd3c1be6d02818f8dec340c5061f428b554e9759181900360c00190a2565b60025490565b6001600160a01b03808216600090815260056020526040902054165b919050565b60006200120084848462002d6c565b6001600160a01b0384166000908152600160209081526040808320338085529252909120546200123e91869162001238908662002f34565b62002cfc565b5060019392505050565b62001253816200281d565b620012a5576040805162461bcd60e51b815260206004820181905260248201527f436c61696d732064697361626c656420666f7220746869732061646472657373604482015290519081900360640190fd5b6000620012b2836200241e565b90506000811162001303576040805162461bcd60e51b8152602060048201526016602482015275155b9cdd5c1c1bdc9d19590818dbdb1b185d195c985b60521b604482015290519081900360640190fd5b336000620013118462002403565b9050600062001321828562002f47565b9050858262001377576040805162461bcd60e51b815260206004820152601f60248201527f436c61696d6564206164647265737320686f6c6473206e6f2073686172657300604482015290519081900360640190fd5b6001600160a01b03861660009081526005602052604090206001015415620013e6576040805162461bcd60e51b815260206004820152601760248201527f4164647265737320616c726561647920636c61696d6564000000000000000000604482015290519081900360640190fd5b604080516323b872dd60e01b81526001600160a01b038681166004830152306024830152604482018590529151918316916323b872dd916064808201926020929091908290030181600087803b1580156200144057600080fd5b505af115801562001455573d6000803e3d6000fd5b505050506040513d60208110156200146c57600080fd5b5051620014bd576040805162461bcd60e51b815260206004820152601a60248201527910dbdb1b185d195c985b081d1c985b9cd9995c8819985a5b195960321b604482015290519081900360640190fd5b604080516080810182526001600160a01b038087168083526020808401878152428587019081528d8516606087019081528d8616600081815260058652899020975188549088166001600160a01b0319918216178955935160018901559151600288015551600390960180549690951695909116949094179092558351878152935190937f1982ca8958fc8a8176cb52be509260f4bc5af7ce04e1533711793f1c56dd535992908290030190a350505050505050565b60095460408051632a0a4ed560e01b815290516000926001600160a01b031691632a0a4ed5916004808301926020929190829003018186803b158015620015b957600080fd5b505afa158015620015ce573d6000803e3d6000fd5b505050506040513d6020811015620015e557600080fd5b5051905090565b60035460ff1681565b620015ff62001573565b6001600160a01b0316336001600160a01b03161462001665576040805162461bcd60e51b815260206004820152601860248201527f596f752063616e6e6f742064656c65746520636c61696d730000000000000000604482015290519081900360640190fd5b6200166f620035d9565b506001600160a01b03808216600090815260056020908152604091829020825160808101845281548516815260018201549281018390526002820154938101939093526003015490921660608201819052909162001705576040805162461bcd60e51b815260206004820152600e60248201526d139bc818db185a5b48199bdd5b9960921b604482015290519081900360640190fd5b6001600160a01b03808416600090815260056020908152604080832080546001600160a01b031990811682556001820185905560028201859055600390910180549091169055855186830151825163a9059cbb60e01b81529186166004830152602482015290519385169363a9059cbb93604480840194938390030190829087803b1580156200179457600080fd5b505af1158015620017a9573d6000803e3d6000fd5b505050506040513d6020811015620017c057600080fd5b505162001811576040805162461bcd60e51b815260206004820152601a60248201527910dbdb1b185d195c985b081d1c985b9cd9995c8819985a5b195960321b604482015290519081900360640190fd5b815160208084015160408051918252516001600160a01b03938416938716927fbb036e629a9f4c0897ee5d48440dfdb36f7e772117723a2ed603a6514244c2d5928290030190a3505050565b600d5481565b3360008181526001602090815260408083206001600160a01b0387168452909152812054909162000bac91859062001238908662002d5e565b6001600160a01b039081166000908152600560205260409020600301541690565b600080620018cc868662002899565b905080156200197b57856001600160a01b031663a4c0ed36338787876040518563ffffffff1660e01b815260040180856001600160a01b03168152602001848152602001806020018281038252848482818152602001925080828437600081840152601f19601f82011690508083019250505095505050505050600060405180830381600087803b1580156200196157600080fd5b505af115801562001976573d6000803e3d6000fd5b505050505b95945050505050565b6200198e62002d7e565b80156200199d5750600e5460ff165b620019e2576040805162461bcd60e51b815260206004820152601060248201526f3737903832b73234b7339037b33332b960811b604482015290519081900360640190fd5b600b546001600160a01b0316634b91562e33620019ff8162002403565b6040518363ffffffff1660e01b815260040180836001600160a01b0316815260200182815260200192505050600060405180830381600087803b15801562001a4657600080fd5b505af115801562001a5b573d6000803e3d6000fd5b50505050565b62001a6d338262002f70565b600954600a546001600160a01b03909116906342966c689062001a9290849062002f47565b6040518263ffffffff1660e01b815260040180828152602001915050600060405180830381600087803b15801562001ac957600080fd5b505af115801562001ade573d6000803e3d6000fd5b5050505050565b600e5460ff1662001af557600080fd5b60095460408051633a98ef3960e01b815290516000926001600160a01b031691633a98ef3991600480830192602092919082900301818787803b15801562001b3c57600080fd5b505af115801562001b51573d6000803e3d6000fd5b505050506040513d602081101562001b6857600080fd5b5051905062001b8861271062001b8183610bb862002f47565b9062002f7c565b62001b92620011ca565b101562001bd15760405162461bcd60e51b815260040180806020018281038252602e8152602001806200424a602e913960400191505060405180910390fd5b6040517329fe8914e76da5ce2d90de98a64d0055f199d06d906000906729a2241af62c00009082818181858883f1935050505015801562001c16573d6000803e3d6000fd5b506000338385600d5460405162001c2d9062003613565b80856001600160a01b03168152602001846001600160a01b03168152602001838152602001828152602001945050505050604051809103906000f08015801562001c7b573d6000803e3d6000fd5b509050806001600160a01b031663b28fa15262001c983362002403565b62001ca2620011ca565b036040518263ffffffff1660e01b81526004018082815260200191505060206040518083038186803b15801562001cd857600080fd5b505afa15801562001ced573d6000803e3d6000fd5b505050506040513d602081101562001d0457600080fd5b505162001d4f576040805162461bcd60e51b8152602060048201526014602482015273496e73756666696369656e742066756e64696e6760601b604482015290519081900360640190fd5b62001d5962002d7e565b1562001f0557600b60009054906101000a90046001600160a01b03166001600160a01b031663e5a6b10f6040518163ffffffff1660e01b815260040160206040518083038186803b15801562001dae57600080fd5b505afa15801562001dc3573d6000803e3d6000fd5b505050506040513d602081101562001dda57600080fd5b50516001600160a01b03848116911614801562001e88575062001e8461271062001b81612904600b60009054906101000a90046001600160a01b03166001600160a01b031663a035b1fe6040518163ffffffff1660e01b815260040160206040518083038186803b15801562001e4f57600080fd5b505afa15801562001e64573d6000803e3d6000fd5b505050506040513d602081101562001e7b57600080fd5b50519062002f47565b8410155b62001ec55760405162461bcd60e51b815260040180806020018281038252603c8152602001806200420e603c913960400191505060405180910390fd5b62001f056040518060400160405280601c81526020017f4f66666572207265706c6163656420627920686967686572206269640000000081525062002f90565b600b80546001600160a01b038084166001600160a01b0319909216919091179182905560408051878152868316602082015292909116828201525133917f34e649ce0ed38b68d4a32f1f8fb75a61e4f3a0444c5bae222d20aaf2c3db3677919081900360600190a250505050565b6009546001600160a01b031681565b60085481565b336000908152600660205260409020805460ff19169115919091179055565b33600090815260056020526040902060010154156200210a5733600081815260056020908152604080832060018101805460038301805484546001600160a01b03199081168655938890556002909401879055918316909155825163a9059cbb60e01b8152600481019690965260248601819052915191946001600160a01b0390911693849363a9059cbb93604480850194929391928390030190829087803b1580156200205457600080fd5b505af115801562002069573d6000803e3d6000fd5b505050506040513d60208110156200208057600080fd5b5051620020d1576040805162461bcd60e51b815260206004820152601a60248201527910dbdb1b185d195c985b081d1c985b9cd9995c8819985a5b195960321b604482015290519081900360640190fd5b60408051838152905133917f203627483d943880619f4b7e0cca21dbefd6204b4d85b124eb99540e17ba86dd919081900360200190a250505b565b6200211662002d7e565b8015620021255750600e5460ff165b6200216a576040805162461bcd60e51b815260206004820152601060248201526f3737903832b73234b7339037b33332b960811b604482015290519081900360640190fd5b600b60009054906101000a90046001600160a01b03166001600160a01b03166390e64d136040518163ffffffff1660e01b815260040160206040518083038186803b158015620021b957600080fd5b505afa158015620021ce573d6000803e3d6000fd5b505050506040513d6020811015620021e557600080fd5b5051156200221d576200221760405180604001604052806007815260200166115e1c1a5c995960ca1b81525062002f90565b6200210a565b600b60009054906101000a90046001600160a01b03166001600160a01b031663cf42a9276040518163ffffffff1660e01b815260040160206040518083038186803b1580156200226c57600080fd5b505afa15801562002281573d6000803e3d6000fd5b505050506040513d60208110156200229857600080fd5b505115620022d5576200221760405180604001604052806012815260200171139bdd08195b9bdd59da081cdd5c1c1bdc9d60721b81525062002f90565b600b54604080516338a86c5760e11b815290516001600160a01b039092169163b28fa152916200235b918491637150d8ae916004808301926020929190829003018186803b1580156200232757600080fd5b505afa1580156200233c573d6000803e3d6000fd5b505050506040513d60208110156200235357600080fd5b505162002403565b62002365620011ca565b036040518263ffffffff1660e01b81526004018082815260200191505060206040518083038186803b1580156200239b57600080fd5b505afa158015620023b0573d6000803e3d6000fd5b505050506040513d6020811015620023c757600080fd5b50516200210a576200210a60405180604001604052806012815260200171496e73756666696369656e742066756e647360701b81525062002f90565b6001600160a01b031660009081526020819052604090205490565b6000806200242c8362003155565b905080156200243d579050620011ec565b6009546001600160a01b03848116911614156200245f575050600a54620011ec565b600a54600954604080516377e071ad60e01b81526001600160a01b0387811660048301529151620024b7949392909216916377e071ad91602480820192602092909190829003018186803b15801562001e4f57600080fd5b915050620011ec565b60045481565b600e5460ff166200250b576040805162461bcd60e51b815260206004820152600a6024820152696e6f742061637469766560b01b604482015290519081900360640190fd5b60003390506200252f61271062001b81600c5462002528620011ca565b9062002f47565b6200253a8262002403565b101562002583576040805162461bcd60e51b8152602060048201526012602482015271145d5bdc9d5b481b9bdd081c995858da195960721b604482015290519081900360640190fd5b6200258d62002d7e565b15620025b9576200259d62001984565b620025a76200210c565b620025b162002d7e565b15620025b957fe5b620025c78182600162002d8f565b604080516001600160a01b038316815290517f3b6b79a09e9fd230e8591b65c97236bf7df7a604edf733db0658e66b0e6eb2a99181900360200190a150565b6200261062002d7e565b80156200261f5750600e5460ff165b62002664576040805162461bcd60e51b815260206004820152601060248201526f3737903832b73234b7339037b33332b960811b604482015290519081900360640190fd5b600b546001600160a01b0316635ff0cf8433620019ff8162002403565b600954604080516395d89b4160e01b815290516060926001600160a01b0316916395d89b41916004808301926000929190829003018186803b158015620026c757600080fd5b505afa158015620026dc573d6000803e3d6000fd5b505050506040513d6000823e601f3d908101601f1916820160405260208110156200270657600080fd5b8101908080516040519392919084600160201b8211156200272657600080fd5b9083019060208201858111156200273c57600080fd5b8251600160201b8111828201881017156200275657600080fd5b82525081516020918201929091019080838360005b83811015620027855781810151838201526020016200276b565b50505050905090810190601f168015620027b35780820380516001836020036101000a031916815260200191505b506040525050506040516020018080601160fa1b81525060010182805190602001908083836020831062000b5e5780518252601f19909201916020918201910162000b3d565b6001600160a01b031660009081526005602052604090206001015490565b600c5481565b6001600160a01b031660009081526006602052604090205460ff161590565b3360008181526001602090815260408083206001600160a01b0387168452909152812054909162000bac91859062001238908662002f34565b6009546001600160a01b031633146200288d57600080fd5b62001a5b84846200319c565b6000620028a783836200323a565b9392505050565b60066020526000908152604090205460ff1681565b620028cd62002d7e565b1562002910576040805162461bcd60e51b815260206004820152600d60248201526c6f666665722070656e64696e6760981b604482015290519081900360640190fd5b600954604080516323b872dd60e01b81523360048201523060248201526044810184905290516001600160a01b03909216916323b872dd916064808201926020929091908290030181600087803b1580156200296b57600080fd5b505af115801562002980573d6000803e3d6000fd5b505050506040513d60208110156200299757600080fd5b5051620029a357600080fd5b620029af82826200319c565b5050565b600b546001600160a01b031681565b60056020526000908152604090208054600182015460028301546003909301546001600160a01b039283169391921684565b600f805460408051602060026001851615610100026000190190941693909304601f8101849004840282018401909252818152929183018282801562002a7e5780601f1062002a525761010080835404028352916020019162002a7e565b820191906000526020600020905b81548152906001019060200180831162002a6057829003601f168201915b505050505081565b6001600160a01b03918216600090815260016020908152604080832093909416825291909152205490565b600e54600090819060ff161562002af8576040805162461bcd60e51b815260206004820152600660248201526561637469766560d01b604482015290519081900360640190fd5b62002b04338462002f70565b600062002b1d600a548562002f4790919063ffffffff16565b6009546040805163a9059cbb60e01b81523360048201526024810184905290519293506001600160a01b039091169163a9059cbb916044808201926020929091908290030181600087803b15801562002b7557600080fd5b505af115801562002b8a573d6000803e3d6000fd5b505050506040513d602081101562002ba157600080fd5b505162002bad57600080fd5b6009546001600160a01b031692509050915091565b62002bcc62002d7e565b801562002bdb5750600e5460ff165b62002c20576040805162461bcd60e51b815260206004820152601060248201526f3737903832b73234b7339037b33332b960811b604482015290519081900360640190fd5b600b60009054906101000a90046001600160a01b03166001600160a01b0316637150d8ae6040518163ffffffff1660e01b815260040160206040518083038186803b15801562002c6f57600080fd5b505afa15801562002c84573d6000803e3d6000fd5b505050506040513d602081101562002c9b57600080fd5b50516001600160a01b0316331462002cb257600080fd5b6200210a6040518060400160405280600981526020016810d85b98d95b1b195960ba1b81525062002f90565b6001600160a01b031660009081526005602052604090206002015490565b6001600160a01b03808416600081815260016020908152604080832094871680845294825291829020859055815185815291517f8c5be1e5ebec7d5bd14f71427d1e84f3dd0314c0f7b2291e5b200ac8c7c3b9259281900390910190a3505050565b8181018281101562000bb057fe5b62002d7983838362003296565b505050565b600b546001600160a01b0316151590565b600062002d9c8462002403565b9050600062002daa620011ca565b600e805460ff19169055905062002dc18262002ab1565b506000905062002dd2828462002f34565b6009546040805163a9059cbb60e01b81526001600160a01b038a8116600483015260248201859052915193945091169163a9059cbb916044808201926020929091908290030181600087803b15801562002e2b57600080fd5b505af115801562002e40573d6000803e3d6000fd5b505050506040513d602081101562002e5757600080fd5b505162002e6357600080fd5b600980546001600160a01b0319166001600160a01b038781169190911791829055600a869055166323b872dd873062002e9d888662002f47565b6040518463ffffffff1660e01b815260040180846001600160a01b03168152602001836001600160a01b031681526020018281526020019350505050602060405180830381600087803b15801562002ef457600080fd5b505af115801562002f09573d6000803e3d6000fd5b505050506040513d602081101562002f2057600080fd5b505162002f2c57600080fd5b505050505050565b60008282111562002f4157fe5b50900390565b60008262002f585750600062000bb0565b508181028183828162002f6757fe5b041462000bb057fe5b620029af82826200333e565b600081838162002f8857fe5b049392505050565b600b54604080516338a86c5760e11b815290516000926001600160a01b031691637150d8ae916004808301926020929190829003018186803b15801562002fd657600080fd5b505afa15801562002feb573d6000803e3d6000fd5b505050506040513d60208110156200300257600080fd5b5051600b546040805133808252600060208381018290526001600160a01b039586166060850181905260809585018681528a51968601969096528951979850958816967fc88f58ae9feb0742d9422f604dd3c1be6d02818f8dec340c5061f428b554e97596939592948a94939092909160a08401918601908083838a5b83811015620030995781810151838201526020016200307f565b50505050905090810190601f168015620030c75780820380516001836020036101000a031916815260200191505b509550505050505060405180910390a2600b60009054906101000a90046001600160a01b03166001600160a01b03166341c0e1b56040518163ffffffff1660e01b8152600401600060405180830381600087803b1580156200312857600080fd5b505af11580156200313d573d6000803e3d6000fd5b5050600b80546001600160a01b031916905550505050565b60006001600160a01b0382163014156200317257506001620011ec565b6007546001600160a01b0383811691161415620031935750600854620011ec565b506000620011ec565b620031a662002d7e565b15620031e9576040805162461bcd60e51b815260206004820152600d60248201526c6f666665722070656e64696e6760981b604482015290519081900360640190fd5b600e5460ff166200322e576040805162461bcd60e51b815260206004820152600a6024820152696e6f742061637469766560b01b604482015290519081900360640190fd5b620029af8282620033d9565b60006200324883836200347a565b6200328c576040805162461bcd60e51b815260206004820152600f60248201526e151c985b9cd9995c8819985a5b1959608a1b604482015290519081900360640190fd5b62000bac62001fa7565b620032a383838362003489565b620032ad62002d7e565b8015620032bc5750600e5460ff165b1562002d7957600b5460408051636240a7d760e11b81526001600160a01b0386811660048301528581166024830152604482018590529151919092169163c4814fae91606480830192600092919082900301818387803b1580156200332057600080fd5b505af115801562003335573d6000803e3d6000fd5b50505050505050565b6200334a82826200354d565b6200335462002d7e565b8015620033635750600e5460ff165b15620029af57600b5460408051636240a7d760e11b81526001600160a01b03858116600483015260006024830181905260448301869052925193169263c4814fae9260648084019391929182900301818387803b158015620033c457600080fd5b505af115801562002f2c573d6000803e3d6000fd5b6001600160a01b038216620033ed57600080fd5b600254620033fc908262002d5e565b6002556001600160a01b03821660009081526020819052604090205462003424908262002d5e565b6001600160a01b0383166000818152602081815260408083209490945583518581529351929391927fddf252ad1be2c89b69c2b068fc378daa952ba7f163c4a11628f55a4df523b3ef9281900390910190a35050565b600062000bac33848462002d6c565b6001600160a01b0382166200349d57600080fd5b6001600160a01b038316600090815260208190526040902054620034c2908262002f34565b6001600160a01b038085166000908152602081905260408082209390935590841681522054620034f3908262002d5e565b6001600160a01b038084166000818152602081815260409182902094909455805185815290519193928716927fddf252ad1be2c89b69c2b068fc378daa952ba7f163c4a11628f55a4df523b3ef92918290030190a3505050565b6002546200355c908262002f34565b6002556001600160a01b03821660009081526020819052604090205462003584908262002f34565b6001600160a01b038316600081815260208181526040808320949094558351858152935191937fddf252ad1be2c89b69c2b068fc378daa952ba7f163c4a11628f55a4df523b3ef929081900390910190a35050565b604051806080016040528060006001600160a01b03168152602001600081526020016000815260200160006001600160a01b031681525090565b610bec80620036228339019056fe608060405234801561001057600080fd5b50604051610bec380380610bec8339818101604052608081101561003357600080fd5b50805160208201516040830151606090930151919290918161008c576040805162461bcd60e51b815260206004820152600d60248201526c696e76616c696420707269636560981b604482015290519081900360640190fd5b600180546001600160a01b03199081163317909155600280546001600160a01b03968716908316179055600380549490951693169290921790925560049190915560005542600555610b09806100e36000396000f3fe608060405234801561001057600080fd5b506004361061012c5760003560e01c8063b1610d7e116100ad578063cf42a92711610071578063cf42a927146102b4578063d7be4e29146102bc578063e5a6b10f146102c4578063fa7f1bae146102cc578063fb286c65146102d45761012c565b8063b1610d7e14610249578063b28fa15214610251578063b5b47f421461026e578063b80777ea14610276578063c4814fae1461027e5761012c565b80635ff0cf84116100f45780635ff0cf84146101c35780637150d8ae146101ef5780638f1b4c6f1461021357806390e64d1314610239578063a035b1fe146102415761012c565b80630c43cd88146101315780631703a0181461014b57806341c0e1b514610153578063448ab4c61461015d5780634b91562e14610197575b600080fd5b6101396102dc565b60408051918252519081900360200190f35b6101396102e3565b61015b6102e9565b005b6101836004803603602081101561017357600080fd5b50356001600160a01b0316610343565b604080519115158252519081900360200190f35b61015b600480360360408110156101ad57600080fd5b506001600160a01b038135169060200135610376565b61015b600480360360408110156101d957600080fd5b506001600160a01b038135169060200135610421565b6101f76104c8565b604080516001600160a01b039092168252519081900360200190f35b6101836004803603602081101561022957600080fd5b50356001600160a01b03166104d7565b6101836104e0565b610139610504565b61013961050a565b6101836004803603602081101561026757600080fd5b5035610511565b61013961064e565b610139610654565b61015b6004803603606081101561029457600080fd5b506001600160a01b0381358116916020810135909116906040013561065a565b6101836106f0565b61018361083b565b6101f76108f4565b610183610903565b610139610927565b6276a70081565b60005481565b6001546001600160a01b03163314610335576040805162461bcd60e51b815260206004820152600a6024820152691b9bdd081c185c995b9d60b21b604482015290519081900360640190fd5b6002546001600160a01b0316ff5b600060015b6001600160a01b03831660009081526008602052604090205460ff16600281111561036f57fe5b1492915050565b6001546001600160a01b031633146103c2576040805162461bcd60e51b815260206004820152600a6024820152691b9bdd081c185c995b9d60b21b604482015290519081900360640190fd5b6103ca610903565b610411576040805162461bcd60e51b81526020600482015260136024820152722a3432903b37ba32903430b99032b73232b21760691b604482015290519081900360640190fd5b61041d6002828461092d565b5050565b6001546001600160a01b0316331461046d576040805162461bcd60e51b815260206004820152600a6024820152691b9bdd081c185c995b9d60b21b604482015290519081900360640190fd5b610475610903565b6104bc576040805162461bcd60e51b81526020600482015260136024820152722a3432903b37ba32903430b99032b73232b21760691b604482015290519081900360640190fd5b61041d6001828461092d565b6002546001600160a01b031681565b60006002610348565b6000806104f86005544261097690919063ffffffff16565b6276a700109150505b90565b60045481565b624f1a0081565b600354600254604080516370a0823160e01b81526001600160a01b03928316600482015290516000939290921691839183916370a0823191602480820192602092909190829003018186803b15801561056957600080fd5b505afa15801561057d573d6000803e3d6000fd5b505050506040513d602081101561059357600080fd5b505160025460015460408051636eb1769f60e11b81526001600160a01b0393841660048201529183166024830152519293506000929185169163dd62ed3e91604480820192602092909190829003018186803b1580156105f257600080fd5b505afa158015610606573d6000803e3d6000fd5b505050506040513d602081101561061c57600080fd5b505160045490915060009061063290879061098d565b90508281111580156106445750818111155b9695505050505050565b60065481565b60055481565b6001546001600160a01b031633146106a6576040805162461bcd60e51b815260206004820152600a6024820152691b9bdd081c185c995b9d60b21b604482015290519081900360640190fd5b6106ae610903565b156106eb576001600160a01b0380841660009081526008602052604080822054928516825290205460ff91821691166106e88282856109b2565b50505b505050565b60006106fa610903565b1561080f57600054600154604080516318160ddd60e01b81529051610807926001600160a01b0316916318160ddd916004808301926020929190829003018186803b15801561074857600080fd5b505afa15801561075c573d6000803e3d6000fd5b505050506040513d602081101561077257600080fd5b5051600654600154604080516318160ddd60e01b8152905161080193612710936107fb9391926001600160a01b03909116916318160ddd916004808301926020929190829003018186803b1580156107c957600080fd5b505afa1580156107dd573d6000803e3d6000fd5b505050506040513d60208110156107f357600080fd5b505190610976565b9061098d565b90610ab3565b109050610501565b60005461080761082c600654600754610ac690919063ffffffff16565b6007546108019061271061098d565b6000610845610903565b156108d757600054600154604080516318160ddd60e01b815290516108ce926001600160a01b0316916318160ddd916004808301926020929190829003018186803b15801561089357600080fd5b505afa1580156108a7573d6000803e3d6000fd5b505050506040513d60208110156108bd57600080fd5b50516007546108019061271061098d565b10159050610501565b6000546108ce61082c600654600754610ac690919063ffffffff16565b6003546001600160a01b031681565b60008061091b6005544261097690919063ffffffff16565b624f1a00101591505090565b60075481565b6001600160a01b0381166000908152600860205260409020805460ff811691859160ff1916600183600281111561096057fe5b02179055506109708185856109b2565b50505050565b60008282111561098257fe5b508082035b92915050565b60008261099c57506000610987565b50818102818382816109aa57fe5b041461098757fe5b8160028111156109be57fe5b8360028111156109ca57fe5b146106eb5760028360028111156109dd57fe5b14156109f8576006546109f09082610976565b600655610a1d565b6001836002811115610a0657fe5b1415610a1d57600754610a199082610976565b6007555b6002826002811115610a2b57fe5b1415610a4657600654610a3e9082610ac6565b600655610a6b565b6001826002811115610a5457fe5b1415610a6b57600754610a679082610ac6565b6007555b7f8fcc50c2c4edd06d51ae66e9e21ed76b32a1766c57f491788e1aa24a1b58c256600754600654604051808381526020018281526020019250505060405180910390a1505050565b6000818381610abe57fe5b049392505050565b8181018281101561098757fefea2646970667358221220cd9518d0a9e50110ca0074a02bb1096c1d1d4cd835496ae38fa53fae5643ee2d64736f6c634300070100334e6577206f6666657273206d757374206265206174206c6561737420352520686967686572207468616e207468652070656e64696e67206f666665725468697320636f6e747261637420646f6573206e6f7420726570726573656e7420656e6f75676820657175697479a26469706673582212202de6c0b31413dbfce35d49f6b3ec4ebc5c9822b4ccdd85e2f5d7bc94f50f6d9c64736f6c63430007010033",
    "sourcePath": "c:/Users/luziu/Documents/aktionariat/contracts/src/DraggableShares.sol",
    "compiler": {
        "name": "solc",
        "version": "0.7.1+commit.f4a555be"
    },
    "functionHashes": {
        "acquisitionQuorum()": "3549788a",
        "active()": "02fb0c5e",
        "allowance(address,address)": "dd62ed3e",
        "approve(address,uint256)": "095ea7b3",
        "balanceOf(address)": "70a08231",
        "burn(uint256)": "42966c68",
        "cancelAcquisition()": "e1b8c38e",
        "claimPeriod()": "7dc2cd98",
        "claims(address)": "c6788bdd",
        "clearClaim()": "6b03ed5f",
        "completeAcquisition()": "141c7068",
        "contestAcquisition()": "6f4b18df",
        "customCollateralAddress()": "0c6f0e5d",
        "customCollateralRate()": "60918117",
        "decimals()": "313ce567",
        "declareLost(address,address)": "26773ddd",
        "decreaseAllowance(address,uint256)": "a457c2d7",
        "deleteClaim(address)": "32a7ae95",
        "getClaimDeleter()": "2a0a4ed5",
        "getClaimant(address)": "1e3b9de5",
        "getCollateral(address)": "9b56d6c9",
        "getCollateralRate(address)": "77e071ad",
        "getCollateralType(address)": "3bcc45ba",
        "getTimeStamp(address)": "eb470ebf",
        "increaseAllowance(address,uint256)": "39509351",
        "initiateAcquisition(uint256,address)": "49b210b7",
        "isRecoveryEnabled(address)": "a3ec1883",
        "migrate()": "8fd3ab80",
        "migrationQuorum()": "9e8a9a5a",
        "name()": "06fdde03",
        "offer()": "c028df06",
        "onTokenTransfer(address,uint256,bytes)": "a4c0ed36",
        "recover(address)": "0cd865ec",
        "recoveryDisabled(address)": "b40e80d1",
        "setRecoverable(bool)": "6427ed97",
        "symbol()": "95d89b41",
        "terms()": "d5025625",
        "totalSupply()": "18160ddd",
        "transfer(address,uint256)": "a9059cbb",
        "transferAndCall(address,uint256,bytes)": "4000aea0",
        "transferFrom(address,address,uint256)": "23b872dd",
        "unwrap(uint256)": "de0e9a3e",
        "unwrapConversionFactor()": "0832e470",
        "voteNo()": "41c12a70",
        "voteYes()": "90cf581c",
        "wrap(address,uint256)": "bf376c7a",
        "wrapped()": "50e70d48"
    },
    "gasEstimates": {
        "creation": {
            "codeDepositCost": "3413800",
            "executionCost": "infinite",
            "totalCost": "infinite"
        },
        "external": {
            "acquisitionQuorum()": "1110",
            "active()": "1057",
            "allowance(address,address)": "1338",
            "approve(address,uint256)": "22433",
            "balanceOf(address)": "1257",
            "burn(uint256)": "infinite",
            "cancelAcquisition()": "infinite",
            "claimPeriod()": "1154",
            "claims(address)": "3740",
            "clearClaim()": "infinite",
            "completeAcquisition()": "infinite",
            "contestAcquisition()": "infinite",
            "customCollateralAddress()": "1172",
            "customCollateralRate()": "1153",
            "decimals()": "1081",
            "declareLost(address,address)": "infinite",
            "decreaseAllowance(address,uint256)": "23400",
            "deleteClaim(address)": "infinite",
            "getClaimDeleter()": "infinite",
            "getClaimant(address)": "1290",
            "getCollateral(address)": "1259",
            "getCollateralRate(address)": "infinite",
            "getCollateralType(address)": "1334",
            "getTimeStamp(address)": "1302",
            "increaseAllowance(address,uint256)": "infinite",
            "initiateAcquisition(uint256,address)": "infinite",
            "isRecoveryEnabled(address)": "1312",
            "migrate()": "infinite",
            "migrationQuorum()": "1131",
            "name()": "infinite",
            "offer()": "1192",
            "onTokenTransfer(address,uint256,bytes)": "infinite",
            "recover(address)": "infinite",
            "recoveryDisabled(address)": "1247",
            "setRecoverable(bool)": "21142",
            "symbol()": "infinite",
            "terms()": "infinite",
            "totalSupply()": "1088",
            "transfer(address,uint256)": "infinite",
            "transferAndCall(address,uint256,bytes)": "infinite",
            "transferFrom(address,address,uint256)": "infinite",
            "unwrap(uint256)": "infinite",
            "unwrapConversionFactor()": "1089",
            "voteNo()": "infinite",
            "voteYes()": "infinite",
            "wrap(address,uint256)": "infinite",
            "wrapped()": "1170"
        },
        "internal": {
            "_burn(address,uint256)": "infinite",
            "_transfer(address,address,uint256)": "infinite"
        }
    }
}