{
    "contractName": "DraggableShares",
    "abi": [
        {
            "inputs": [
                {
                    "internalType": "string",
                    "name": "_terms",
                    "type": "string"
                },
                {
                    "internalType": "address",
                    "name": "wrappedToken",
                    "type": "address"
                },
                {
                    "internalType": "uint256",
                    "name": "quorum",
                    "type": "uint256"
                }
            ],
            "stateMutability": "nonpayable",
            "type": "constructor"
        },
        {
            "anonymous": false,
            "inputs": [
                {
                    "indexed": true,
                    "internalType": "address",
                    "name": "owner",
                    "type": "address"
                },
                {
                    "indexed": true,
                    "internalType": "address",
                    "name": "spender",
                    "type": "address"
                },
                {
                    "indexed": false,
                    "internalType": "uint256",
                    "name": "value",
                    "type": "uint256"
                }
            ],
            "name": "Approval",
            "type": "event"
        },
        {
            "anonymous": false,
            "inputs": [
                {
                    "indexed": true,
                    "internalType": "address",
                    "name": "lostAddress",
                    "type": "address"
                },
                {
                    "indexed": false,
                    "internalType": "uint256",
                    "name": "collateral",
                    "type": "uint256"
                }
            ],
            "name": "ClaimCleared",
            "type": "event"
        },
        {
            "anonymous": false,
            "inputs": [
                {
                    "indexed": true,
                    "internalType": "address",
                    "name": "lostAddress",
                    "type": "address"
                },
                {
                    "indexed": true,
                    "internalType": "address",
                    "name": "claimant",
                    "type": "address"
                },
                {
                    "indexed": false,
                    "internalType": "uint256",
                    "name": "collateral",
                    "type": "uint256"
                }
            ],
            "name": "ClaimDeleted",
            "type": "event"
        },
        {
            "anonymous": false,
            "inputs": [
                {
                    "indexed": true,
                    "internalType": "address",
                    "name": "lostAddress",
                    "type": "address"
                },
                {
                    "indexed": true,
                    "internalType": "address",
                    "name": "claimant",
                    "type": "address"
                },
                {
                    "indexed": false,
                    "internalType": "uint256",
                    "name": "balance",
                    "type": "uint256"
                }
            ],
            "name": "ClaimMade",
            "type": "event"
        },
        {
            "anonymous": false,
            "inputs": [
                {
                    "indexed": false,
                    "internalType": "uint256",
                    "name": "newClaimPeriodInDays",
                    "type": "uint256"
                }
            ],
            "name": "ClaimPeriodChanged",
            "type": "event"
        },
        {
            "anonymous": false,
            "inputs": [
                {
                    "indexed": true,
                    "internalType": "address",
                    "name": "lostAddress",
                    "type": "address"
                },
                {
                    "indexed": true,
                    "internalType": "address",
                    "name": "claimant",
                    "type": "address"
                },
                {
                    "indexed": false,
                    "internalType": "uint256",
                    "name": "collateral",
                    "type": "uint256"
                }
            ],
            "name": "ClaimResolved",
            "type": "event"
        },
        {
            "anonymous": false,
            "inputs": [
                {
                    "indexed": false,
                    "internalType": "address",
                    "name": "newCustomCollateralAddress",
                    "type": "address"
                },
                {
                    "indexed": false,
                    "internalType": "uint256",
                    "name": "newCustomCollareralRate",
                    "type": "uint256"
                }
            ],
            "name": "CustomClaimCollateralChanged",
            "type": "event"
        },
        {
            "anonymous": false,
            "inputs": [
                {
                    "indexed": false,
                    "internalType": "address",
                    "name": "newContractAddress",
                    "type": "address"
                }
            ],
            "name": "MigrationSucceeded",
            "type": "event"
        },
        {
            "anonymous": false,
            "inputs": [
                {
                    "indexed": true,
                    "internalType": "address",
                    "name": "buyer",
                    "type": "address"
                },
                {
                    "indexed": false,
                    "internalType": "uint256",
                    "name": "pricePerShare",
                    "type": "uint256"
                },
                {
                    "indexed": false,
                    "internalType": "address",
                    "name": "offerContract",
                    "type": "address"
                }
            ],
            "name": "OfferCreated",
            "type": "event"
        },
        {
            "anonymous": false,
            "inputs": [
                {
                    "indexed": true,
                    "internalType": "address",
                    "name": "buyer",
                    "type": "address"
                },
                {
                    "indexed": false,
                    "internalType": "address",
                    "name": "sender",
                    "type": "address"
                },
                {
                    "indexed": false,
                    "internalType": "bool",
                    "name": "success",
                    "type": "bool"
                },
                {
                    "indexed": false,
                    "internalType": "string",
                    "name": "message",
                    "type": "string"
                },
                {
                    "indexed": false,
                    "internalType": "address",
                    "name": "offerContract",
                    "type": "address"
                }
            ],
            "name": "OfferEnded",
            "type": "event"
        },
        {
            "anonymous": false,
            "inputs": [
                {
                    "indexed": true,
                    "internalType": "address",
                    "name": "from",
                    "type": "address"
                },
                {
                    "indexed": true,
                    "internalType": "address",
                    "name": "to",
                    "type": "address"
                },
                {
                    "indexed": false,
                    "internalType": "uint256",
                    "name": "value",
                    "type": "uint256"
                }
            ],
            "name": "Transfer",
            "type": "event"
        },
        {
            "inputs": [],
            "name": "acquisitionQuorum",
            "outputs": [
                {
                    "internalType": "uint256",
                    "name": "",
                    "type": "uint256"
                }
            ],
            "stateMutability": "view",
            "type": "function"
        },
        {
            "inputs": [],
            "name": "active",
            "outputs": [
                {
                    "internalType": "bool",
                    "name": "",
                    "type": "bool"
                }
            ],
            "stateMutability": "view",
            "type": "function"
        },
        {
            "inputs": [
                {
                    "internalType": "address",
                    "name": "owner",
                    "type": "address"
                },
                {
                    "internalType": "address",
                    "name": "spender",
                    "type": "address"
                }
            ],
            "name": "allowance",
            "outputs": [
                {
                    "internalType": "uint256",
                    "name": "",
                    "type": "uint256"
                }
            ],
            "stateMutability": "view",
            "type": "function"
        },
        {
            "inputs": [
                {
                    "internalType": "address",
                    "name": "spender",
                    "type": "address"
                },
                {
                    "internalType": "uint256",
                    "name": "value",
                    "type": "uint256"
                }
            ],
            "name": "approve",
            "outputs": [
                {
                    "internalType": "bool",
                    "name": "",
                    "type": "bool"
                }
            ],
            "stateMutability": "nonpayable",
            "type": "function"
        },
        {
            "inputs": [
                {
                    "internalType": "address",
                    "name": "account",
                    "type": "address"
                }
            ],
            "name": "balanceOf",
            "outputs": [
                {
                    "internalType": "uint256",
                    "name": "",
                    "type": "uint256"
                }
            ],
            "stateMutability": "view",
            "type": "function"
        },
        {
            "inputs": [
                {
                    "internalType": "uint256",
                    "name": "amount",
                    "type": "uint256"
                }
            ],
            "name": "burn",
            "outputs": [],
            "stateMutability": "nonpayable",
            "type": "function"
        },
        {
            "inputs": [],
            "name": "cancelAcquisition",
            "outputs": [],
            "stateMutability": "nonpayable",
            "type": "function"
        },
        {
            "inputs": [],
            "name": "claimPeriod",
            "outputs": [
                {
                    "internalType": "uint256",
                    "name": "",
                    "type": "uint256"
                }
            ],
            "stateMutability": "view",
            "type": "function"
        },
        {
            "inputs": [
                {
                    "internalType": "address",
                    "name": "",
                    "type": "address"
                }
            ],
            "name": "claims",
            "outputs": [
                {
                    "internalType": "address",
                    "name": "claimant",
                    "type": "address"
                },
                {
                    "internalType": "uint256",
                    "name": "collateral",
                    "type": "uint256"
                },
                {
                    "internalType": "uint256",
                    "name": "timestamp",
                    "type": "uint256"
                },
                {
                    "internalType": "address",
                    "name": "currencyUsed",
                    "type": "address"
                }
            ],
            "stateMutability": "view",
            "type": "function"
        },
        {
            "inputs": [],
            "name": "clearClaim",
            "outputs": [],
            "stateMutability": "nonpayable",
            "type": "function"
        },
        {
            "inputs": [],
            "name": "completeAcquisition",
            "outputs": [],
            "stateMutability": "nonpayable",
            "type": "function"
        },
        {
            "inputs": [],
            "name": "contestAcquisition",
            "outputs": [],
            "stateMutability": "nonpayable",
            "type": "function"
        },
        {
            "inputs": [],
            "name": "customCollateralAddress",
            "outputs": [
                {
                    "internalType": "address",
                    "name": "",
                    "type": "address"
                }
            ],
            "stateMutability": "view",
            "type": "function"
        },
        {
            "inputs": [],
            "name": "customCollateralRate",
            "outputs": [
                {
                    "internalType": "uint256",
                    "name": "",
                    "type": "uint256"
                }
            ],
            "stateMutability": "view",
            "type": "function"
        },
        {
            "inputs": [],
            "name": "decimals",
            "outputs": [
                {
                    "internalType": "uint8",
                    "name": "",
                    "type": "uint8"
                }
            ],
            "stateMutability": "view",
            "type": "function"
        },
        {
            "inputs": [
                {
                    "internalType": "address",
                    "name": "collateralType",
                    "type": "address"
                },
                {
                    "internalType": "address",
                    "name": "lostAddress",
                    "type": "address"
                }
            ],
            "name": "declareLost",
            "outputs": [],
            "stateMutability": "nonpayable",
            "type": "function"
        },
        {
            "inputs": [
                {
                    "internalType": "address",
                    "name": "spender",
                    "type": "address"
                },
                {
                    "internalType": "uint256",
                    "name": "subtractedValue",
                    "type": "uint256"
                }
            ],
            "name": "decreaseAllowance",
            "outputs": [
                {
                    "internalType": "bool",
                    "name": "",
                    "type": "bool"
                }
            ],
            "stateMutability": "nonpayable",
            "type": "function"
        },
        {
            "inputs": [
                {
                    "internalType": "address",
                    "name": "lostAddress",
                    "type": "address"
                }
            ],
            "name": "deleteClaim",
            "outputs": [],
            "stateMutability": "nonpayable",
            "type": "function"
        },
        {
            "inputs": [],
            "name": "getClaimDeleter",
            "outputs": [
                {
                    "internalType": "address",
                    "name": "",
                    "type": "address"
                }
            ],
            "stateMutability": "view",
            "type": "function"
        },
        {
            "inputs": [
                {
                    "internalType": "address",
                    "name": "lostAddress",
                    "type": "address"
                }
            ],
            "name": "getClaimant",
            "outputs": [
                {
                    "internalType": "address",
                    "name": "",
                    "type": "address"
                }
            ],
            "stateMutability": "view",
            "type": "function"
        },
        {
            "inputs": [
                {
                    "internalType": "address",
                    "name": "lostAddress",
                    "type": "address"
                }
            ],
            "name": "getCollateral",
            "outputs": [
                {
                    "internalType": "uint256",
                    "name": "",
                    "type": "uint256"
                }
            ],
            "stateMutability": "view",
            "type": "function"
        },
        {
            "inputs": [
                {
                    "internalType": "address",
                    "name": "collateralType",
                    "type": "address"
                }
            ],
            "name": "getCollateralRate",
            "outputs": [
                {
                    "internalType": "uint256",
                    "name": "",
                    "type": "uint256"
                }
            ],
            "stateMutability": "view",
            "type": "function"
        },
        {
            "inputs": [
                {
                    "internalType": "address",
                    "name": "lostAddress",
                    "type": "address"
                }
            ],
            "name": "getCollateralType",
            "outputs": [
                {
                    "internalType": "address",
                    "name": "",
                    "type": "address"
                }
            ],
            "stateMutability": "view",
            "type": "function"
        },
        {
            "inputs": [],
            "name": "getPendingOffer",
            "outputs": [
                {
                    "internalType": "address",
                    "name": "",
                    "type": "address"
                }
            ],
            "stateMutability": "view",
            "type": "function"
        },
        {
            "inputs": [
                {
                    "internalType": "address",
                    "name": "lostAddress",
                    "type": "address"
                }
            ],
            "name": "getTimeStamp",
            "outputs": [
                {
                    "internalType": "uint256",
                    "name": "",
                    "type": "uint256"
                }
            ],
            "stateMutability": "view",
            "type": "function"
        },
        {
            "inputs": [],
            "name": "getWrappedContract",
            "outputs": [
                {
                    "internalType": "address",
                    "name": "",
                    "type": "address"
                }
            ],
            "stateMutability": "view",
            "type": "function"
        },
        {
            "inputs": [
                {
                    "internalType": "address",
                    "name": "spender",
                    "type": "address"
                },
                {
                    "internalType": "uint256",
                    "name": "addedValue",
                    "type": "uint256"
                }
            ],
            "name": "increaseAllowance",
            "outputs": [
                {
                    "internalType": "bool",
                    "name": "",
                    "type": "bool"
                }
            ],
            "stateMutability": "nonpayable",
            "type": "function"
        },
        {
            "inputs": [
                {
                    "internalType": "uint256",
                    "name": "pricePerShare",
                    "type": "uint256"
                },
                {
                    "internalType": "address",
                    "name": "currency",
                    "type": "address"
                }
            ],
            "name": "initiateAcquisition",
            "outputs": [],
            "stateMutability": "nonpayable",
            "type": "function"
        },
        {
            "inputs": [
                {
                    "internalType": "address",
                    "name": "target",
                    "type": "address"
                }
            ],
            "name": "isRecoveryEnabled",
            "outputs": [
                {
                    "internalType": "bool",
                    "name": "",
                    "type": "bool"
                }
            ],
            "stateMutability": "view",
            "type": "function"
        },
        {
            "inputs": [],
            "name": "licenseFeeRecipient",
            "outputs": [
                {
                    "internalType": "address payable",
                    "name": "",
                    "type": "address"
                }
            ],
            "stateMutability": "view",
            "type": "function"
        },
        {
            "inputs": [],
            "name": "migrate",
            "outputs": [],
            "stateMutability": "nonpayable",
            "type": "function"
        },
        {
            "inputs": [],
            "name": "migrationQuorum",
            "outputs": [
                {
                    "internalType": "uint256",
                    "name": "",
                    "type": "uint256"
                }
            ],
            "stateMutability": "view",
            "type": "function"
        },
        {
            "inputs": [],
            "name": "name",
            "outputs": [
                {
                    "internalType": "string",
                    "name": "",
                    "type": "string"
                }
            ],
            "stateMutability": "view",
            "type": "function"
        },
        {
            "inputs": [],
            "name": "offer",
            "outputs": [
                {
                    "internalType": "contract Acquisition",
                    "name": "",
                    "type": "address"
                }
            ],
            "stateMutability": "view",
            "type": "function"
        },
        {
            "inputs": [],
            "name": "offerExists",
            "outputs": [
                {
                    "internalType": "bool",
                    "name": "",
                    "type": "bool"
                }
            ],
            "stateMutability": "view",
            "type": "function"
        },
        {
            "inputs": [
                {
                    "internalType": "address",
                    "name": "from",
                    "type": "address"
                },
                {
                    "internalType": "uint256",
                    "name": "amount",
                    "type": "uint256"
                },
                {
                    "internalType": "bytes",
                    "name": "",
                    "type": "bytes"
                }
            ],
            "name": "onTokenTransfer",
            "outputs": [],
            "stateMutability": "nonpayable",
            "type": "function"
        },
        {
            "inputs": [
                {
                    "internalType": "address",
                    "name": "lostAddress",
                    "type": "address"
                }
            ],
            "name": "recover",
            "outputs": [],
            "stateMutability": "nonpayable",
            "type": "function"
        },
        {
            "inputs": [
                {
                    "internalType": "address",
                    "name": "",
                    "type": "address"
                }
            ],
            "name": "recoveryDisabled",
            "outputs": [
                {
                    "internalType": "bool",
                    "name": "",
                    "type": "bool"
                }
            ],
            "stateMutability": "view",
            "type": "function"
        },
        {
            "inputs": [
                {
                    "internalType": "bool",
                    "name": "enabled",
                    "type": "bool"
                }
            ],
            "name": "setRecoverable",
            "outputs": [],
            "stateMutability": "nonpayable",
            "type": "function"
        },
        {
            "inputs": [],
            "name": "symbol",
            "outputs": [
                {
                    "internalType": "string",
                    "name": "",
                    "type": "string"
                }
            ],
            "stateMutability": "view",
            "type": "function"
        },
        {
            "inputs": [],
            "name": "terms",
            "outputs": [
                {
                    "internalType": "string",
                    "name": "",
                    "type": "string"
                }
            ],
            "stateMutability": "view",
            "type": "function"
        },
        {
            "inputs": [],
            "name": "totalSupply",
            "outputs": [
                {
                    "internalType": "uint256",
                    "name": "",
                    "type": "uint256"
                }
            ],
            "stateMutability": "view",
            "type": "function"
        },
        {
            "inputs": [
                {
                    "internalType": "address",
                    "name": "to",
                    "type": "address"
                },
                {
                    "internalType": "uint256",
                    "name": "value",
                    "type": "uint256"
                }
            ],
            "name": "transfer",
            "outputs": [
                {
                    "internalType": "bool",
                    "name": "",
                    "type": "bool"
                }
            ],
            "stateMutability": "nonpayable",
            "type": "function"
        },
        {
            "inputs": [
                {
                    "internalType": "address",
                    "name": "recipient",
                    "type": "address"
                },
                {
                    "internalType": "uint256",
                    "name": "amount",
                    "type": "uint256"
                },
                {
                    "internalType": "bytes",
                    "name": "data",
                    "type": "bytes"
                }
            ],
            "name": "transferAndCall",
            "outputs": [
                {
                    "internalType": "bool",
                    "name": "",
                    "type": "bool"
                }
            ],
            "stateMutability": "nonpayable",
            "type": "function"
        },
        {
            "inputs": [
                {
                    "internalType": "address",
                    "name": "sender",
                    "type": "address"
                },
                {
                    "internalType": "address",
                    "name": "recipient",
                    "type": "address"
                },
                {
                    "internalType": "uint256",
                    "name": "amount",
                    "type": "uint256"
                }
            ],
            "name": "transferFrom",
            "outputs": [
                {
                    "internalType": "bool",
                    "name": "",
                    "type": "bool"
                }
            ],
            "stateMutability": "nonpayable",
            "type": "function"
        },
        {
            "inputs": [
                {
                    "internalType": "uint256",
                    "name": "amount",
                    "type": "uint256"
                }
            ],
            "name": "unwrap",
            "outputs": [
                {
                    "internalType": "address",
                    "name": "",
                    "type": "address"
                },
                {
                    "internalType": "uint256",
                    "name": "",
                    "type": "uint256"
                }
            ],
            "stateMutability": "nonpayable",
            "type": "function"
        },
        {
            "inputs": [],
            "name": "unwrapConversionFactor",
            "outputs": [
                {
                    "internalType": "uint256",
                    "name": "",
                    "type": "uint256"
                }
            ],
            "stateMutability": "view",
            "type": "function"
        },
        {
            "inputs": [],
            "name": "voteNo",
            "outputs": [],
            "stateMutability": "nonpayable",
            "type": "function"
        },
        {
            "inputs": [],
            "name": "voteYes",
            "outputs": [],
            "stateMutability": "nonpayable",
            "type": "function"
        },
        {
            "inputs": [],
            "name": "wasAcquired",
            "outputs": [
                {
                    "internalType": "bool",
                    "name": "",
                    "type": "bool"
                }
            ],
            "stateMutability": "view",
            "type": "function"
        },
        {
            "inputs": [
                {
                    "internalType": "address",
                    "name": "shareholder",
                    "type": "address"
                },
                {
                    "internalType": "uint256",
                    "name": "amount",
                    "type": "uint256"
                }
            ],
            "name": "wrap",
            "outputs": [],
            "stateMutability": "nonpayable",
            "type": "function"
        }
    ],
    "bytecode": "608060405262ed4e006004556001600a819055600f805460ff191690911790553480156200002c57600080fd5b5060405162004e7438038062004e74833981810160405260608110156200005257600080fd5b81019080805160405193929190846401000000008211156200007357600080fd5b9083019060208201858111156200008957600080fd5b8251640100000000811182820188101715620000a457600080fd5b82525081516020918201929091019080838360005b83811015620000d3578181015183820152602001620000b9565b50505050905090810190601f168015620001015780820380516001836020036101000a031916815260200191505b506040818152602083810151938201516003805460ff19169055600980546001600160a01b0387166001600160a01b03199182168117909255600c80549091167329fe8914e76da5ce2d90de98a64d0055f199d06d179055600d829055600e829055633a98ef3960e01b85529251949650945085938593849392633a98ef39926004808401938290030181600087803b1580156200019e57600080fd5b505af1158015620001b3573d6000803e3d6000fd5b505050506040513d6020811015620001ca57600080fd5b505060408051636427ed9760e01b815260006004820181905291516001600160a01b0388169550636427ed97945060248083019450909182900301818387803b1580156200021757600080fd5b505af11580156200022c573d6000803e3d6000fd5b505084516200024592506010915060208601906200024f565b50505050620002eb565b828054600181600116156101000203166002900490600052602060002090601f016020900481019282601f106200029257805160ff1916838001178555620002c2565b82800160010185558215620002c2579182015b82811115620002c2578251825591602001919060010190620002a5565b50620002d0929150620002d4565b5090565b5b80821115620002d05760008155600101620002d5565b614b7980620002fb6000396000f3fe60806040523480156200001157600080fd5b50600436106200033a5760003560e01c80636b03ed5f11620001c5578063a9059cbb11620000ff578063c6788bdd11620000b1578063de0e9a3e1162000087578063de0e9a3e14620009e1578063e1b8c38e1462000a24578063eb470ebf1462000a2e578063ec6580e21462000a57576200033a565b8063c6788bdd1462000940578063d502562514620009a6578063dd62ed3e14620009b0576200033a565b8063a9059cbb146200089b578063b40e80d114620008ca578063bb68947214620008f3578063bc1b1e7c14620008fd578063bf376c7a1462000907578063c028df061462000936576200033a565b806390cf581c11620001775780639e8a9a5a116200014d5780639e8a9a5a14620007b0578063a3ec188314620007ba578063a457c2d714620007e3578063a4c0ed361462000812576200033a565b806390cf581c146200077357806395d89b41146200077d5780639b56d6c91462000787576200033a565b80636b03ed5f14620006f95780636f4b18df146200070357806370a08231146200070d57806377e071ad14620007365780637dc2cd98146200075f5780638fd3ab801462000769576200033a565b8063313ce567116200029757806341c12a70116200024957806358047913116200021f5780635804791314620006b95780636091811714620006c35780636427ed9714620006cd5780636467c09a14620006ef576200033a565b806341c12a70146200066057806342966c68146200066a57806349b210b7146200068a576200033a565b8063313ce567146200052c57806332a7ae95146200054c5780633549788a146200057557806339509351146200057f5780633bcc45ba14620005ae5780634000aea014620005d7576200033a565b8063141c706811620002f1578063141c7068146200047b57806318160ddd14620004855780631e3b9de5146200048f57806323b872dd14620004b857806326773ddd14620004f15780632a0a4ed51462000522576200033a565b806302fb0c5e146200033f57806306fdde03146200035d5780630832e47014620003df578063095ea7b314620003fb5780630c6f0e5d146200042a5780630cd865ec1462000450575b600080fd5b6200034962000a61565b604080519115158252519081900360200190f35b6200036762000a6a565b6040805160208082528351818301528351919283929083019185019080838360005b83811015620003a357818101518382015260200162000389565b50505050905090810190601f168015620003d15780820380516001836020036101000a031916815260200191505b509250505060405180910390f35b620003e962000c25565b60408051918252519081900360200190f35b62000349600480360360408110156200041357600080fd5b506001600160a01b03813516906020013562000c2b565b6200043462000c44565b604080516001600160a01b039092168252519081900360200190f35b62000479600480360360208110156200046857600080fd5b50356001600160a01b031662000c53565b005b6200047962000f37565b620003e962001378565b6200043460048036036020811015620004a757600080fd5b50356001600160a01b03166200137e565b6200034960048036036060811015620004d057600080fd5b506001600160a01b038135811691602081013590911690604001356200139f565b62000479600480360360408110156200050957600080fd5b506001600160a01b0381358116916020013516620013f6565b6200043462001721565b6200053662001799565b6040805160ff9092168252519081900360200190f35b62000479600480360360208110156200056457600080fd5b50356001600160a01b0316620017a2565b620003e962001a0a565b62000349600480360360408110156200059757600080fd5b506001600160a01b03813516906020013562001a10565b6200043460048036036020811015620005c657600080fd5b50356001600160a01b031662001a49565b6200034960048036036060811015620005ef57600080fd5b6001600160a01b0382351691602081013591810190606081016040820135600160201b8111156200061f57600080fd5b8201836020820111156200063257600080fd5b803590602001918460018302840111600160201b831117156200065457600080fd5b50909250905062001a6a565b6200047962001b31565b62000479600480360360208110156200068257600080fd5b503562001c0d565b6200047960048036036040811015620006a257600080fd5b50803590602001356001600160a01b031662001c7f565b6200043462002121565b620003e962002130565b6200047960048036036020811015620006e557600080fd5b5035151562002136565b6200043462002155565b6200047962002164565b62000479620022c9565b620003e9600480360360208110156200072557600080fd5b50356001600160a01b0316620025fe565b620003e9600480360360208110156200074e57600080fd5b50356001600160a01b031662002619565b620003e9620026ce565b62000479620026d4565b6200047962002969565b62000367620029e2565b620003e9600480360360208110156200079f57600080fd5b50356001600160a01b031662002b5a565b620003e962002b78565b6200034960048036036020811015620007d257600080fd5b50356001600160a01b031662002b7e565b6200034960048036036040811015620007fb57600080fd5b506001600160a01b03813516906020013562002b9d565b62000479600480360360608110156200082a57600080fd5b6001600160a01b0382351691602081013591810190606081016040820135600160201b8111156200085a57600080fd5b8201836020820111156200086d57600080fd5b803590602001918460018302840111600160201b831117156200088f57600080fd5b50909250905062002bd6565b6200034960048036036040811015620008b357600080fd5b506001600160a01b03813516906020013562002c00565b6200034960048036036020811015620008e257600080fd5b50356001600160a01b031662002c15565b6200043462002c2a565b6200034962002c39565b62000479600480360360408110156200091f57600080fd5b506001600160a01b03813516906020013562002c56565b6200043462002d91565b62000969600480360360208110156200095857600080fd5b50356001600160a01b031662002da0565b60405180856001600160a01b03168152602001848152602001838152602001826001600160a01b0316815260200194505050505060405180910390f35b6200036762002dd2565b620003e960048036036040811015620009c857600080fd5b506001600160a01b038135811691602001351662002e64565b62000a0160048036036020811015620009f957600080fd5b503562002e8f565b604080516001600160a01b03909316835260208301919091528051918290030190f35b6200047962002fa2565b620003e96004803603602081101562000a4657600080fd5b50356001600160a01b0316620030f6565b6200034962003114565b600f5460ff1681565b600954604080516306fdde0360e01b815290516060926001600160a01b0316916306fdde03916004808301926000929190829003018186803b15801562000ab057600080fd5b505afa15801562000ac5573d6000803e3d6000fd5b505050506040513d6000823e601f3d908101601f19168201604052602081101562000aef57600080fd5b8101908080516040519392919084600160201b82111562000b0f57600080fd5b90830190602082018581111562000b2557600080fd5b8251600160201b81118282018810171562000b3f57600080fd5b82525081516020918201929091019080838360005b8381101562000b6e57818101518382015260200162000b54565b50505050905090810190601f16801562000b9c5780820380516001836020036101000a031916815260200191505b506040525050506040516020018080690223930b3b3b0b13632960b51b815250600a0182805190602001908083835b6020831062000bec5780518252601f19909201916020918201910162000bcb565b6001836020036101000a038019825116818451168082178552505050505050905001915050604051602081830303815290604052905090565b600a5481565b600062000c3a3384846200313a565b5060015b92915050565b6007546001600160a01b031681565b62000c5d62003cd9565b506001600160a01b038082166000908152600560209081526040918290208251608081018452815485168152600182015492810183905260028201549381019390935260030154909216606082018190529091908162000cf5576040805162461bcd60e51b815260206004820152600e60248201526d139bc818db185a5b48199bdd5b9960921b604482015290519081900360640190fd5b82516001600160a01b0316331462000d54576040805162461bcd60e51b815260206004820152601f60248201527f4f6e6c7920636c61696d616e742063616e207265736f6c766520636c61696d00604482015290519081900360640190fd5b4262000d7060045485604001516200322a90919063ffffffff16565b111562000dc4576040805162461bcd60e51b815260206004820152601960248201527f436c61696d20706572696f64206e6f74206f7665722079657400000000000000604482015290519081900360640190fd5b82516001600160a01b03808616600090815260056020908152604080832080546001600160a01b031990811682556001820185905560028201859055600390910180549091169055805163a9059cbb60e01b815284861660048201526024810188905290519386169363a9059cbb93604480840194938390030190829087803b15801562000e5157600080fd5b505af115801562000e66573d6000803e3d6000fd5b505050506040513d602081101562000e7d57600080fd5b505162000ece576040805162461bcd60e51b815260206004820152601a60248201527910dbdb1b185d195c985b081d1c985b9cd9995c8819985a5b195960321b604482015290519081900360640190fd5b62000ee5858262000edf88620025fe565b62003238565b806001600160a01b0316856001600160a01b03167f52a5c2b28bc6eb9712d0ced43463103b486b13ccc9cda499fd3b2d7b6a74a8ee856040518082815260200191505060405180910390a35050505050565b62000f4162002c39565b801562000f505750600f5460ff165b62000f91576040805162461bcd60e51b8152602060048201526019602482015260008051602062004a1a833981519152604482015290519081900360640190fd5b600b54604080516338a86c5760e11b815290516000926001600160a01b031691637150d8ae916004808301926020929190829003018186803b15801562000fd757600080fd5b505afa15801562000fec573d6000803e3d6000fd5b505050506040513d60208110156200100357600080fd5b50519050336001600160a01b03821614620010505760405162461bcd60e51b815260040180806020018281038252603981526020018062004ad26039913960400191505060405180910390fd5b600b60009054906101000a90046001600160a01b03166001600160a01b031663d7be4e296040518163ffffffff1660e01b815260040160206040518083038186803b1580156200109f57600080fd5b505afa158015620010b4573d6000803e3d6000fd5b505050506040513d6020811015620010cb57600080fd5b50516200111f576040805162461bcd60e51b815260206004820181905260248201527f496e73756666696369656e74206e756d626572206f662079657320766f746573604482015290519081900360640190fd5b600b546001600160a01b031663b28fa1526200113b83620025fe565b6200114562001378565b036040518263ffffffff1660e01b81526004018082815260200191505060206040518083038186803b1580156200117b57600080fd5b505afa15801562001190573d6000803e3d6000fd5b505050506040513d6020811015620011a757600080fd5b5051620011fb576040805162461bcd60e51b815260206004820152601b60248201527f4f6666657220696e73756666696369656e746c792066756e6465640000000000604482015290519081900360640190fd5b620012f781600b60009054906101000a90046001600160a01b03166001600160a01b031663e5a6b10f6040518163ffffffff1660e01b815260040160206040518083038186803b1580156200124f57600080fd5b505afa15801562001264573d6000803e3d6000fd5b505050506040513d60208110156200127b57600080fd5b5051600b546040805163501ad8ff60e11b815290516001600160a01b039092169163a035b1fe91600480820192602092909190829003018186803b158015620012c357600080fd5b505afa158015620012d8573d6000803e3d6000fd5b505050506040513d6020811015620012ef57600080fd5b50516200324a565b600b5460408051338152600160208201526001600160a01b039283166060820152608081830181905260169082015275436f6d706c65746564207375636365737366756c6c7960501b60a08201529051918316917fc88f58ae9feb0742d9422f604dd3c1be6d02818f8dec340c5061f428b554e9759181900360c00190a250565b60025490565b6001600160a01b03808216600090815260056020526040902054165b919050565b6000620013ae84848462003238565b6001600160a01b038416600090815260016020908152604080832033808552925290912054620013ec918691620013e6908662003471565b6200313a565b5060019392505050565b620014018162002b7e565b62001453576040805162461bcd60e51b815260206004820181905260248201527f436c61696d732064697361626c656420666f7220746869732061646472657373604482015290519081900360640190fd5b6000620014608362002619565b905060008111620014b1576040805162461bcd60e51b8152602060048201526016602482015275155b9cdd5c1c1bdc9d19590818dbdb1b185d195c985b60521b604482015290519081900360640190fd5b336000620014bf84620025fe565b90506000620014cf828562003484565b9050858262001525576040805162461bcd60e51b815260206004820152601f60248201527f436c61696d6564206164647265737320686f6c6473206e6f2073686172657300604482015290519081900360640190fd5b6001600160a01b0386166000908152600560205260409020600101541562001594576040805162461bcd60e51b815260206004820152601760248201527f4164647265737320616c726561647920636c61696d6564000000000000000000604482015290519081900360640190fd5b604080516323b872dd60e01b81526001600160a01b038681166004830152306024830152604482018590529151918316916323b872dd916064808201926020929091908290030181600087803b158015620015ee57600080fd5b505af115801562001603573d6000803e3d6000fd5b505050506040513d60208110156200161a57600080fd5b50516200166b576040805162461bcd60e51b815260206004820152601a60248201527910dbdb1b185d195c985b081d1c985b9cd9995c8819985a5b195960321b604482015290519081900360640190fd5b604080516080810182526001600160a01b038087168083526020808401878152428587019081528d8516606087019081528d8616600081815260058652899020975188549088166001600160a01b0319918216178955935160018901559151600288015551600390960180549690951695909116949094179092558351878152935190937f1982ca8958fc8a8176cb52be509260f4bc5af7ce04e1533711793f1c56dd535992908290030190a350505050505050565b60006200172d62002121565b6001600160a01b0316632a0a4ed56040518163ffffffff1660e01b815260040160206040518083038186803b1580156200176657600080fd5b505afa1580156200177b573d6000803e3d6000fd5b505050506040513d60208110156200179257600080fd5b5051905090565b60035460ff1681565b620017ac62001721565b6001600160a01b0316336001600160a01b03161462001812576040805162461bcd60e51b815260206004820152601860248201527f596f752063616e6e6f742064656c65746520636c61696d730000000000000000604482015290519081900360640190fd5b6200181c62003cd9565b506001600160a01b038082166000908152600560209081526040918290208251608081018452815485168152600182015492810183905260028201549381019390935260030154909216606082018190529091620018b2576040805162461bcd60e51b815260206004820152600e60248201526d139bc818db185a5b48199bdd5b9960921b604482015290519081900360640190fd5b6001600160a01b03808416600090815260056020908152604080832080546001600160a01b031990811682556001820185905560028201859055600390910180549091169055855186830151825163a9059cbb60e01b81529186166004830152602482015290519385169363a9059cbb93604480840194938390030190829087803b1580156200194157600080fd5b505af115801562001956573d6000803e3d6000fd5b505050506040513d60208110156200196d57600080fd5b5051620019be576040805162461bcd60e51b815260206004820152601a60248201527910dbdb1b185d195c985b081d1c985b9cd9995c8819985a5b195960321b604482015290519081900360640190fd5b815160208084015160408051918252516001600160a01b03938416938716927fbb036e629a9f4c0897ee5d48440dfdb36f7e772117723a2ed603a6514244c2d5928290030190a3505050565b600e5481565b3360008181526001602090815260408083206001600160a01b0387168452909152812054909162000c3a918590620013e690866200322a565b6001600160a01b039081166000908152600560205260409020600301541690565b60008062001a79868662002c00565b9050801562001b2857856001600160a01b031663a4c0ed36338787876040518563ffffffff1660e01b815260040180856001600160a01b03168152602001848152602001806020018281038252848482818152602001925080828437600081840152601f19601f82011690508083019250505095505050505050600060405180830381600087803b15801562001b0e57600080fd5b505af115801562001b23573d6000803e3d6000fd5b505050505b95945050505050565b62001b3b62002c39565b801562001b4a5750600f5460ff165b62001b8b576040805162461bcd60e51b8152602060048201526019602482015260008051602062004a1a833981519152604482015290519081900360640190fd5b600b5433906001600160a01b0316634b91562e8262001baa81620025fe565b6040518363ffffffff1660e01b815260040180836001600160a01b0316815260200182815260200192505050600060405180830381600087803b15801562001bf157600080fd5b505af115801562001c06573d6000803e3d6000fd5b5050505050565b62001c193382620034ad565b62001c2362002121565b6001600160a01b03166342966c6862001c48600a54846200348490919063ffffffff16565b6040518263ffffffff1660e01b815260040180828152602001915050600060405180830381600087803b15801562001bf157600080fd5b600f5460ff1662001cd7576040805162461bcd60e51b815260206004820152601860248201527f416e206163636570746564206f66666572206578697374730000000000000000604482015290519081900360640190fd5b600062001ce362002121565b6001600160a01b0316633a98ef396040518163ffffffff1660e01b8152600401602060405180830381600087803b15801562001d1e57600080fd5b505af115801562001d33573d6000803e3d6000fd5b505050506040513d602081101562001d4a57600080fd5b505190503362001d6b61271062001d6484610bb862003484565b90620034b9565b62001d7562001378565b101562001db45760405162461bcd60e51b815260040180806020018281038252602e81526020018062004a80602e913960400191505060405180910390fd5b62001dc961271062001d64846101f462003484565b62001dd482620025fe565b101562001e135760405162461bcd60e51b815260040180806020018281038252603981526020018062004b0b6039913960400191505060405180910390fd5b600c546040516001600160a01b0390911690600090670de0b6b3a76400009082818181858883f1935050505015801562001e51573d6000803e3d6000fd5b506000338486600e5460405162001e689062003d13565b80856001600160a01b03168152602001846001600160a01b03168152602001838152602001828152602001945050505050604051809103906000f08015801562001eb6573d6000803e3d6000fd5b509050806001600160a01b031663b28fa15262001ed384620025fe565b62001edd62001378565b036040518263ffffffff1660e01b81526004018082815260200191505060206040518083038186803b15801562001f1357600080fd5b505afa15801562001f28573d6000803e3d6000fd5b505050506040513d602081101562001f3f57600080fd5b505162001f8a576040805162461bcd60e51b8152602060048201526014602482015273496e73756666696369656e742066756e64696e6760601b604482015290519081900360640190fd5b62001f9462002c39565b15620020ac576200202c61271062001d64612904600b60009054906101000a90046001600160a01b03166001600160a01b031663a035b1fe6040518163ffffffff1660e01b815260040160206040518083038186803b15801562001ff757600080fd5b505afa1580156200200c573d6000803e3d6000fd5b505050506040513d60208110156200202357600080fd5b50519062003484565b8510156200206c5760405162461bcd60e51b815260040180806020018281038252603c815260200180620049de603c913960400191505060405180910390fd5b620020ac6040518060400160405280601c81526020017f4f66666572207265706c61636564206279206869676865722062696400000000815250620034cd565b600b80546001600160a01b0319166001600160a01b038381169190911790915582167f9c00f159b1fa9eaebda7acaf50be0bf3a652277380f907b35cb681bd641a62d386620020fa62002155565b604080519283526001600160a01b0390911660208301528051918290030190a25050505050565b6009546001600160a01b031690565b60085481565b336000908152600660205260409020805460ff19169115919091179055565b600b546001600160a01b031690565b3360009081526005602052604090206001015415620022c75733600081815260056020908152604080832060018101805460038301805484546001600160a01b03199081168655938890556002909401879055918316909155825163a9059cbb60e01b8152600481019690965260248601819052915191946001600160a01b0390911693849363a9059cbb93604480850194929391928390030190829087803b1580156200221157600080fd5b505af115801562002226573d6000803e3d6000fd5b505050506040513d60208110156200223d57600080fd5b50516200228e576040805162461bcd60e51b815260206004820152601a60248201527910dbdb1b185d195c985b081d1c985b9cd9995c8819985a5b195960321b604482015290519081900360640190fd5b60408051838152905133917f203627483d943880619f4b7e0cca21dbefd6204b4d85b124eb99540e17ba86dd919081900360200190a250505b565b620022d362002c39565b8015620022e25750600f5460ff165b62002323576040805162461bcd60e51b8152602060048201526019602482015260008051602062004a1a833981519152604482015290519081900360640190fd5b600b60009054906101000a90046001600160a01b03166001600160a01b03166390e64d136040518163ffffffff1660e01b815260040160206040518083038186803b1580156200237257600080fd5b505afa15801562002387573d6000803e3d6000fd5b505050506040513d60208110156200239e57600080fd5b505115620023dc57620023d66040518060400160405280600d81526020016c13d999995c88195e1c1a5c9959609a1b815250620034cd565b620022c7565b600b60009054906101000a90046001600160a01b03166001600160a01b031663cf42a9276040518163ffffffff1660e01b815260040160206040518083038186803b1580156200242b57600080fd5b505afa15801562002440573d6000803e3d6000fd5b505050506040513d60208110156200245757600080fd5b5051156200249457620023d660405180604001604052806012815260200171139bdd08195b9bdd59da081cdd5c1c1bdc9d60721b815250620034cd565b600b54604080516338a86c5760e11b815290516001600160a01b039092169163b28fa152916200251a918491637150d8ae916004808301926020929190829003018186803b158015620024e657600080fd5b505afa158015620024fb573d6000803e3d6000fd5b505050506040513d60208110156200251257600080fd5b5051620025fe565b6200252462001378565b036040518263ffffffff1660e01b81526004018082815260200191505060206040518083038186803b1580156200255a57600080fd5b505afa1580156200256f573d6000803e3d6000fd5b505050506040513d60208110156200258657600080fd5b5051620025b157620023d66040518060600160405280602181526020016200495060219139620034cd565b6040805162461bcd60e51b815260206004820181905260248201527f4163717569736974696f6e20636f6e7465737420756e7375636365737366756c604482015290519081900360640190fd5b6001600160a01b031660009081526020819052604090205490565b60008062002627836200369d565b90508015620026385790506200139a565b6200264262002121565b6001600160a01b0316836001600160a01b0316141562002667575050600a546200139a565b620026c5600a546200267862002121565b6001600160a01b03166377e071ad866040518263ffffffff1660e01b815260040180826001600160a01b0316815260200191505060206040518083038186803b15801562001ff757600080fd5b9150506200139a565b60045481565b600f5460ff1662002725576040805162461bcd60e51b8152602060048201526016602482015275436f6e7472616374206973206e6f742061637469766560501b604482015290519081900360640190fd5b60003390506200274961271062001d64600d546200274262001378565b9062003484565b6200275482620025fe565b10156200279d576040805162461bcd60e51b8152602060048201526012602482015271145d5bdc9d5b481b9bdd081c995858da195960721b604482015290519081900360640190fd5b620027a762002c39565b156200291c57600b60009054906101000a90046001600160a01b03166001600160a01b031663cf42a9276040518163ffffffff1660e01b815260040160206040518083038186803b158015620027fc57600080fd5b505afa15801562002811573d6000803e3d6000fd5b505050506040513d60208110156200282857600080fd5b505162002900576200283962001b31565b600b60009054906101000a90046001600160a01b03166001600160a01b031663cf42a9276040518163ffffffff1660e01b815260040160206040518083038186803b1580156200288857600080fd5b505afa1580156200289d573d6000803e3d6000fd5b505050506040513d6020811015620028b457600080fd5b505162002900576040805162461bcd60e51b8152602060048201526015602482015274145d5bdc9d5b481a185cc81b9bdd0819985a5b1959605a1b604482015290519081900360640190fd5b6200290a620022c9565b6200291462002c39565b156200291c57fe5b6200292a818260016200324a565b604080516001600160a01b038316815290517f3b6b79a09e9fd230e8591b65c97236bf7df7a604edf733db0658e66b0e6eb2a99181900360200190a150565b6200297362002c39565b8015620029825750600f5460ff165b620029c3576040805162461bcd60e51b8152602060048201526019602482015260008051602062004a1a833981519152604482015290519081900360640190fd5b600b5433906001600160a01b0316635ff0cf848262001baa81620025fe565b600954604080516395d89b4160e01b815290516060926001600160a01b0316916395d89b41916004808301926000929190829003018186803b15801562002a2857600080fd5b505afa15801562002a3d573d6000803e3d6000fd5b505050506040513d6000823e601f3d908101601f19168201604052602081101562002a6757600080fd5b8101908080516040519392919084600160201b82111562002a8757600080fd5b90830190602082018581111562002a9d57600080fd5b8251600160201b81118282018810171562002ab757600080fd5b82525081516020918201929091019080838360005b8381101562002ae657818101518382015260200162002acc565b50505050905090810190601f16801562002b145780820380516001836020036101000a031916815260200191505b506040525050506040516020018080601160fa1b81525060010182805190602001908083836020831062000bec5780518252601f19909201916020918201910162000bcb565b6001600160a01b031660009081526005602052604090206001015490565b600d5481565b6001600160a01b031660009081526006602052604090205460ff161590565b3360008181526001602090815260408083206001600160a01b0387168452909152812054909162000c3a918590620013e6908662003471565b6009546001600160a01b0316331462002bee57600080fd5b62002bfa8484620036e4565b50505050565b600062002c0e8383620037a0565b9392505050565b60066020526000908152604090205460ff1681565b600c546001600160a01b031681565b60008062002c4662002155565b6001600160a01b03161415905090565b62002c6062002c39565b1562002cae576040805162461bcd60e51b81526020600482015260186024820152772a3432b9329034b99030903832b73234b7339037b33332b960411b604482015290519081900360640190fd5b600954604080516323b872dd60e01b81523360048201523060248201526044810184905290516001600160a01b03909216916323b872dd916064808201926020929091908290030181600087803b15801562002d0957600080fd5b505af115801562002d1e573d6000803e3d6000fd5b505050506040513d602081101562002d3557600080fd5b505162002d81576040805162461bcd60e51b815260206004820152601560248201527414da185c99481d1c985b9cd9995c8819985a5b1959605a1b604482015290519081900360640190fd5b62002d8d8282620036e4565b5050565b600b546001600160a01b031681565b60056020526000908152604090208054600182015460028301546003909301546001600160a01b039283169391921684565b6010805460408051602060026001851615610100026000190190941693909304601f8101849004840282018401909252818152929183018282801562002e5c5780601f1062002e305761010080835404028352916020019162002e5c565b820191906000526020600020905b81548152906001019060200180831162002e3e57829003601f168201915b505050505081565b6001600160a01b03918216600090815260016020908152604080832093909416825291909152205490565b600f54600090819060ff161562002ed85760405162461bcd60e51b8152600401808060200182810382526036815260200180620049716036913960400191505060405180910390fd5b62002ee43384620034ad565b600062002efd600a54856200348490919063ffffffff16565b6009546040805163a9059cbb60e01b81523360048201526024810184905290519293506001600160a01b039091169163a9059cbb916044808201926020929091908290030181600087803b15801562002f5557600080fd5b505af115801562002f6a573d6000803e3d6000fd5b505050506040513d602081101562002f8157600080fd5b505162002f8d57600080fd5b6009546001600160a01b031692509050915091565b62002fac62002c39565b801562002fbb5750600f5460ff165b62002ffc576040805162461bcd60e51b8152602060048201526019602482015260008051602062004a1a833981519152604482015290519081900360640190fd5b600b60009054906101000a90046001600160a01b03166001600160a01b0316637150d8ae6040518163ffffffff1660e01b815260040160206040518083038186803b1580156200304b57600080fd5b505afa15801562003060573d6000803e3d6000fd5b505050506040513d60208110156200307757600080fd5b50516001600160a01b03163314620030c15760405162461bcd60e51b8152600401808060200182810382526037815260200180620049a76037913960400191505060405180910390fd5b620022c76040518060400160405280601281526020017121b0b731b2b63632b210313c90313abcb2b960711b815250620034cd565b6001600160a01b031660009081526005602052604090206002015490565b60006200312062002c39565b6200312d57600062003135565b600f5460ff16155b905090565b6001600160a01b038316620031815760405162461bcd60e51b815260040180806020018281038252602481526020018062004aae6024913960400191505060405180910390fd5b6001600160a01b038216620031c85760405162461bcd60e51b81526004018080602001828103825260228152602001806200492e6022913960400191505060405180910390fd5b6001600160a01b03808416600081815260016020908152604080832094871680845294825291829020859055815185815291517f8c5be1e5ebec7d5bd14f71427d1e84f3dd0314c0f7b2291e5b200ac8c7c3b9259281900390910190a3505050565b8181018281101562000c3e57fe5b62003245838383620037fc565b505050565b60006200325784620025fe565b905060006200326562001378565b600f805460ff1916905590506200327c8262002e8f565b50600090506200328d828462003471565b6009546040805163a9059cbb60e01b81526001600160a01b038a8116600483015260248201859052915193945091169163a9059cbb916044808201926020929091908290030181600087803b158015620032e657600080fd5b505af1158015620032fb573d6000803e3d6000fd5b505050506040513d60208110156200331257600080fd5b505162003358576040805162461bcd60e51b815260206004820152600f60248201526e1d1c985b9cd9995c8819985a5b1959608a1b604482015290519081900360640190fd5b600980546001600160a01b0319166001600160a01b038781169190911791829055600a869055166323b872dd873062003392888662003484565b6040518463ffffffff1660e01b815260040180846001600160a01b03168152602001836001600160a01b031681526020018281526020019350505050602060405180830381600087803b158015620033e957600080fd5b505af1158015620033fe573d6000803e3d6000fd5b505050506040513d60208110156200341557600080fd5b505162003469576040805162461bcd60e51b815260206004820152601760248201527f4261636b696e67207472616e73666572206661696c6564000000000000000000604482015290519081900360640190fd5b505050505050565b6000828211156200347e57fe5b50900390565b600082620034955750600062000c3e565b5081810281838281620034a457fe5b041462000c3e57fe5b62002d8d8282620038a4565b6000818381620034c557fe5b049392505050565b600b54604080516338a86c5760e11b815290516000926001600160a01b031691637150d8ae916004808301926020929190829003018186803b1580156200351357600080fd5b505afa15801562003528573d6000803e3d6000fd5b505050506040513d60208110156200353f57600080fd5b505190506001600160a01b0381167fc88f58ae9feb0742d9422f604dd3c1be6d02818f8dec340c5061f428b554e975336000856200357c62002155565b60405180856001600160a01b03168152602001841515815260200180602001836001600160a01b03168152602001828103825284818151815260200191508051906020019080838360005b83811015620035e1578181015183820152602001620035c7565b50505050905090810190601f1680156200360f5780820380516001836020036101000a031916815260200191505b509550505050505060405180910390a2600b60009054906101000a90046001600160a01b03166001600160a01b03166341c0e1b56040518163ffffffff1660e01b8152600401600060405180830381600087803b1580156200367057600080fd5b505af115801562003685573d6000803e3d6000fd5b5050600b80546001600160a01b031916905550505050565b60006001600160a01b038216301415620036ba575060016200139a565b6007546001600160a01b0383811691161415620036db57506008546200139a565b5060006200139a565b620036ee62002c39565b156200373c576040805162461bcd60e51b81526020600482015260186024820152772a3432b9329034b99030903832b73234b7339037b33332b960411b604482015290519081900360640190fd5b600f5460ff1662003794576040805162461bcd60e51b815260206004820152601d60248201527f436f6e7472616374206e6f742061637469766520616e79206d6f72652e000000604482015290519081900360640190fd5b62002d8d82826200393f565b6000620037ae83836200394b565b620037f2576040805162461bcd60e51b815260206004820152600f60248201526e151c985b9cd9995c8819985a5b1959608a1b604482015290519081900360640190fd5b62000c3a62002164565b620038098383836200395a565b6200381362002c39565b8015620038225750600f5460ff165b156200324557600b5460408051636240a7d760e11b81526001600160a01b0386811660048301528581166024830152604482018590529151919092169163c4814fae91606480830192600092919082900301818387803b1580156200388657600080fd5b505af11580156200389b573d6000803e3d6000fd5b50505050505050565b620038b0828262003a98565b620038ba62002c39565b8015620038c95750600f5460ff165b1562002d8d57600b5460408051636240a7d760e11b81526001600160a01b03858116600483015260006024830181905260448301869052925193169263c4814fae9260648084019391929182900301818387803b1580156200392a57600080fd5b505af115801562003469573d6000803e3d6000fd5b62002d8d828262003b6b565b600062000c3a33848462003238565b6001600160a01b038316620039a15760405162461bcd60e51b815260040180806020018281038252602581526020018062004a5b6025913960400191505060405180910390fd5b6001600160a01b038216620039e85760405162461bcd60e51b81526004018080602001828103825260238152602001806200490b6023913960400191505060405180910390fd5b6001600160a01b03831660009081526020819052604090205462003a0d908262003471565b6001600160a01b03808516600090815260208190526040808220939093559084168152205462003a3e90826200322a565b6001600160a01b038084166000818152602081815260409182902094909455805185815290519193928716927fddf252ad1be2c89b69c2b068fc378daa952ba7f163c4a11628f55a4df523b3ef92918290030190a3505050565b6001600160a01b03821662003adf5760405162461bcd60e51b815260040180806020018281038252602181526020018062004a3a6021913960400191505060405180910390fd5b60025462003aee908262003471565b6002556001600160a01b03821660009081526020819052604090205462003b16908262003471565b6001600160a01b038316600081815260208181526040808320949094558351858152935191937fddf252ad1be2c89b69c2b068fc378daa952ba7f163c4a11628f55a4df523b3ef929081900390910190a35050565b62003b77828262003bf0565b62003b8162002c39565b801562003b905750600f5460ff165b1562002d8d57600b5460408051636240a7d760e11b81526000600482018190526001600160a01b038681166024840152604483018690529251929093169263c4814fae9260648084019382900301818387803b1580156200392a57600080fd5b6001600160a01b03821662003c4c576040805162461bcd60e51b815260206004820152601f60248201527f45524332303a206d696e7420746f20746865207a65726f206164647265737300604482015290519081900360640190fd5b60025462003c5b90826200322a565b6002556001600160a01b03821660009081526020819052604090205462003c8390826200322a565b6001600160a01b0383166000818152602081815260408083209490945583518581529351929391927fddf252ad1be2c89b69c2b068fc378daa952ba7f163c4a11628f55a4df523b3ef9281900390910190a35050565b604051806080016040528060006001600160a01b03168152602001600081526020016000815260200160006001600160a01b031681525090565b610be98062003d228339019056fe608060405234801561001057600080fd5b50604051610be9380380610be98339818101604052608081101561003357600080fd5b50805160208201516040830151606090930151919290918161008c576040805162461bcd60e51b815260206004820152600d60248201526c696e76616c696420707269636560981b604482015290519081900360640190fd5b600180546001600160a01b03199081163317909155600280546001600160a01b03968716908316179055600380549490951693169290921790925560049190915560005542600555610b06806100e36000396000f3fe608060405234801561001057600080fd5b506004361061012c5760003560e01c8063b1610d7e116100ad578063cf42a92711610071578063cf42a927146102b4578063d7be4e29146102bc578063e5a6b10f146102c4578063fa7f1bae146102cc578063fb286c65146102d45761012c565b8063b1610d7e14610249578063b28fa15214610251578063b5b47f421461026e578063b80777ea14610276578063c4814fae1461027e5761012c565b80635ff0cf84116100f45780635ff0cf84146101c35780637150d8ae146101ef5780638f1b4c6f1461021357806390e64d1314610239578063a035b1fe146102415761012c565b80630c43cd88146101315780631703a0181461014b57806341c0e1b514610153578063448ab4c61461015d5780634b91562e14610197575b600080fd5b6101396102dc565b60408051918252519081900360200190f35b6101396102e3565b61015b6102e9565b005b6101836004803603602081101561017357600080fd5b50356001600160a01b0316610343565b604080519115158252519081900360200190f35b61015b600480360360408110156101ad57600080fd5b506001600160a01b038135169060200135610376565b61015b600480360360408110156101d957600080fd5b506001600160a01b038135169060200135610421565b6101f76104c8565b604080516001600160a01b039092168252519081900360200190f35b6101836004803603602081101561022957600080fd5b50356001600160a01b03166104d7565b6101836104e0565b610139610504565b61013961050a565b6101836004803603602081101561026757600080fd5b5035610511565b61013961064e565b610139610654565b61015b6004803603606081101561029457600080fd5b506001600160a01b0381358116916020810135909116906040013561065a565b6101836106f0565b61018361083b565b6101f76108f4565b610183610903565b610139610927565b6276a70081565b60005481565b6001546001600160a01b03163314610335576040805162461bcd60e51b815260206004820152600a6024820152691b9bdd081c185c995b9d60b21b604482015290519081900360640190fd5b6002546001600160a01b0316ff5b600060015b6001600160a01b03831660009081526008602052604090205460ff16600281111561036f57fe5b1492915050565b6001546001600160a01b031633146103c2576040805162461bcd60e51b815260206004820152600a6024820152691b9bdd081c185c995b9d60b21b604482015290519081900360640190fd5b6103ca610903565b610411576040805162461bcd60e51b81526020600482015260136024820152722a3432903b37ba32903430b99032b73232b21760691b604482015290519081900360640190fd5b61041d6002828461092d565b5050565b6001546001600160a01b0316331461046d576040805162461bcd60e51b815260206004820152600a6024820152691b9bdd081c185c995b9d60b21b604482015290519081900360640190fd5b610475610903565b6104bc576040805162461bcd60e51b81526020600482015260136024820152722a3432903b37ba32903430b99032b73232b21760691b604482015290519081900360640190fd5b61041d6001828461092d565b6002546001600160a01b031681565b60006002610348565b6000806104f86005544261097390919063ffffffff16565b6276a700109150505b90565b60045481565b624f1a0081565b600354600254604080516370a0823160e01b81526001600160a01b03928316600482015290516000939290921691839183916370a0823191602480820192602092909190829003018186803b15801561056957600080fd5b505afa15801561057d573d6000803e3d6000fd5b505050506040513d602081101561059357600080fd5b505160025460015460408051636eb1769f60e11b81526001600160a01b0393841660048201529183166024830152519293506000929185169163dd62ed3e91604480820192602092909190829003018186803b1580156105f257600080fd5b505afa158015610606573d6000803e3d6000fd5b505050506040513d602081101561061c57600080fd5b505160045490915060009061063290879061098a565b90508281111580156106445750818111155b9695505050505050565b60065481565b60055481565b6001546001600160a01b031633146106a6576040805162461bcd60e51b815260206004820152600a6024820152691b9bdd081c185c995b9d60b21b604482015290519081900360640190fd5b6106ae610903565b156106eb576001600160a01b0380841660009081526008602052604080822054928516825290205460ff91821691166106e88282856109af565b50505b505050565b60006106fa610903565b1561080f57600054600154604080516318160ddd60e01b81529051610807926001600160a01b0316916318160ddd916004808301926020929190829003018186803b15801561074857600080fd5b505afa15801561075c573d6000803e3d6000fd5b505050506040513d602081101561077257600080fd5b5051600654600154604080516318160ddd60e01b8152905161080193612710936107fb9391926001600160a01b03909116916318160ddd916004808301926020929190829003018186803b1580156107c957600080fd5b505afa1580156107dd573d6000803e3d6000fd5b505050506040513d60208110156107f357600080fd5b505190610973565b9061098a565b90610ab0565b109050610501565b60005461080761082c600654600754610ac390919063ffffffff16565b6007546108019061271061098a565b6000610845610903565b156108d757600054600154604080516318160ddd60e01b815290516108ce926001600160a01b0316916318160ddd916004808301926020929190829003018186803b15801561089357600080fd5b505afa1580156108a7573d6000803e3d6000fd5b505050506040513d60208110156108bd57600080fd5b50516007546108019061271061098a565b10159050610501565b6000546108ce61082c600654600754610ac390919063ffffffff16565b6003546001600160a01b031681565b60008061091b6005544261097390919063ffffffff16565b624f1a00101591505090565b60075481565b6001600160a01b0381166000908152600860205260409020805460ff811691859182919060ff1916600183600281111561096357fe5b02179055506106e88282866109af565b60008282111561097f57fe5b508082035b92915050565b60008261099957506000610984565b50818102818382816109a757fe5b041461098457fe5b8160028111156109bb57fe5b8360028111156109c757fe5b146106eb5760028360028111156109da57fe5b14156109f5576006546109ed9082610973565b600655610a1a565b6001836002811115610a0357fe5b1415610a1a57600754610a169082610973565b6007555b6002826002811115610a2857fe5b1415610a4357600654610a3b9082610ac3565b600655610a68565b6001826002811115610a5157fe5b1415610a6857600754610a649082610ac3565b6007555b7f8fcc50c2c4edd06d51ae66e9e21ed76b32a1766c57f491788e1aa24a1b58c256600754600654604051808381526020018281526020019250505060405180910390a1505050565b6000818381610abb57fe5b049392505050565b8181018281101561098457fefea264697066735822122003198c9707537ce5959b3e8267a2b8a721cc26a72203a7d67ca0a492033fb5a264736f6c6343000701003345524332303a207472616e7366657220746f20746865207a65726f206164647265737345524332303a20617070726f766520746f20746865207a65726f20616464726573734f6666657220776173206e6f742073756666696369656e746c792066756e6465644173206c6f6e672061732074686520636f6e7472616374206973206163746976652c20796f752061726520626f756e6420746f206974596f7520617265206e6f7420617574686f72697a656420746f2063616e63656c2074686973206163717569736974696f6e206f666665724e6577206f6666657273206d757374206265206174206c6561737420352520686967686572207468616e207468652070656e64696e67206f666665725468657265206973206e6f2070656e64696e67206f666665720000000000000045524332303a206275726e2066726f6d20746865207a65726f206164647265737345524332303a207472616e736665722066726f6d20746865207a65726f20616464726573735468697320636f6e747261637420646f6573206e6f7420726570726573656e7420656e6f7567682065717569747945524332303a20617070726f76652066726f6d20746865207a65726f2061646472657373596f7520617265206e6f7420617574686f72697a656420746f20636f6d706c6574652074686973206163717569736974696f6e206f66666572596f75206e65656420746f20686f6c64206174206c65617374203525206f6620746865206669726d20746f206d616b6520616e206f66666572a2646970667358221220b7bf33a6d48efe6ed7833b1b28d7f306c248bfc21dc4632599841f582c0ed25664736f6c63430007010033",
    "sourcePath": "c:/Users/luziu/Documents/aktionariat/contracts/src/DraggableShares.sol",
    "compiler": {
        "name": "solc",
        "version": "0.7.1+commit.f4a555be"
    },
    "functionHashes": {
        "acquisitionQuorum()": "3549788a",
        "active()": "02fb0c5e",
        "allowance(address,address)": "dd62ed3e",
        "approve(address,uint256)": "095ea7b3",
        "balanceOf(address)": "70a08231",
        "burn(uint256)": "42966c68",
        "cancelAcquisition()": "e1b8c38e",
        "claimPeriod()": "7dc2cd98",
        "claims(address)": "c6788bdd",
        "clearClaim()": "6b03ed5f",
        "completeAcquisition()": "141c7068",
        "contestAcquisition()": "6f4b18df",
        "customCollateralAddress()": "0c6f0e5d",
        "customCollateralRate()": "60918117",
        "decimals()": "313ce567",
        "declareLost(address,address)": "26773ddd",
        "decreaseAllowance(address,uint256)": "a457c2d7",
        "deleteClaim(address)": "32a7ae95",
        "getClaimDeleter()": "2a0a4ed5",
        "getClaimant(address)": "1e3b9de5",
        "getCollateral(address)": "9b56d6c9",
        "getCollateralRate(address)": "77e071ad",
        "getCollateralType(address)": "3bcc45ba",
        "getPendingOffer()": "6467c09a",
        "getTimeStamp(address)": "eb470ebf",
        "getWrappedContract()": "58047913",
        "increaseAllowance(address,uint256)": "39509351",
        "initiateAcquisition(uint256,address)": "49b210b7",
        "isRecoveryEnabled(address)": "a3ec1883",
        "licenseFeeRecipient()": "bb689472",
        "migrate()": "8fd3ab80",
        "migrationQuorum()": "9e8a9a5a",
        "name()": "06fdde03",
        "offer()": "c028df06",
        "offerExists()": "bc1b1e7c",
        "onTokenTransfer(address,uint256,bytes)": "a4c0ed36",
        "recover(address)": "0cd865ec",
        "recoveryDisabled(address)": "b40e80d1",
        "setRecoverable(bool)": "6427ed97",
        "symbol()": "95d89b41",
        "terms()": "d5025625",
        "totalSupply()": "18160ddd",
        "transfer(address,uint256)": "a9059cbb",
        "transferAndCall(address,uint256,bytes)": "4000aea0",
        "transferFrom(address,address,uint256)": "23b872dd",
        "unwrap(uint256)": "de0e9a3e",
        "unwrapConversionFactor()": "0832e470",
        "voteNo()": "41c12a70",
        "voteYes()": "90cf581c",
        "wasAcquired()": "ec6580e2",
        "wrap(address,uint256)": "bf376c7a"
    },
    "gasEstimates": {
        "creation": {
            "codeDepositCost": "3864200",
            "executionCost": "infinite",
            "totalCost": "infinite"
        },
        "external": {
            "acquisitionQuorum()": "1088",
            "active()": "1057",
            "allowance(address,address)": "1361",
            "approve(address,uint256)": "infinite",
            "balanceOf(address)": "1235",
            "burn(uint256)": "infinite",
            "cancelAcquisition()": "infinite",
            "claimPeriod()": "1132",
            "claims(address)": "3763",
            "clearClaim()": "infinite",
            "completeAcquisition()": "infinite",
            "contestAcquisition()": "infinite",
            "customCollateralAddress()": "1172",
            "customCollateralRate()": "1087",
            "decimals()": "1059",
            "declareLost(address,address)": "infinite",
            "decreaseAllowance(address,uint256)": "infinite",
            "deleteClaim(address)": "infinite",
            "getClaimDeleter()": "infinite",
            "getClaimant(address)": "1268",
            "getCollateral(address)": "1260",
            "getCollateralRate(address)": "infinite",
            "getCollateralType(address)": "1312",
            "getPendingOffer()": "1170",
            "getTimeStamp(address)": "1258",
            "getWrappedContract()": "1104",
            "increaseAllowance(address,uint256)": "infinite",
            "initiateAcquisition(uint256,address)": "infinite",
            "isRecoveryEnabled(address)": "1246",
            "licenseFeeRecipient()": "1126",
            "migrate()": "infinite",
            "migrationQuorum()": "1065",
            "name()": "infinite",
            "offer()": "1192",
            "offerExists()": "1195",
            "onTokenTransfer(address,uint256,bytes)": "infinite",
            "recover(address)": "infinite",
            "recoveryDisabled(address)": "1203",
            "setRecoverable(bool)": "21207",
            "symbol()": "infinite",
            "terms()": "infinite",
            "totalSupply()": "1066",
            "transfer(address,uint256)": "infinite",
            "transferAndCall(address,uint256,bytes)": "infinite",
            "transferFrom(address,address,uint256)": "infinite",
            "unwrap(uint256)": "infinite",
            "unwrapConversionFactor()": "1089",
            "voteNo()": "infinite",
            "voteYes()": "infinite",
            "wasAcquired()": "2078",
            "wrap(address,uint256)": "infinite"
        },
        "internal": {
            "_burn(address,uint256)": "infinite",
            "_mint(address,uint256)": "infinite",
            "_transfer(address,address,uint256)": "infinite"
        }
    }
}