{
    "contractName": "DraggableShares",
    "abi": [
        {
            "inputs": [
                {
                    "internalType": "string",
                    "name": "_terms",
                    "type": "string"
                },
                {
                    "internalType": "address",
                    "name": "wrappedToken",
                    "type": "address"
                },
                {
                    "internalType": "address",
                    "name": "xchfAddress",
                    "type": "address"
                }
            ],
            "stateMutability": "nonpayable",
            "type": "constructor"
        },
        {
            "anonymous": false,
            "inputs": [
                {
                    "indexed": true,
                    "internalType": "address",
                    "name": "owner",
                    "type": "address"
                },
                {
                    "indexed": true,
                    "internalType": "address",
                    "name": "spender",
                    "type": "address"
                },
                {
                    "indexed": false,
                    "internalType": "uint256",
                    "name": "value",
                    "type": "uint256"
                }
            ],
            "name": "Approval",
            "type": "event"
        },
        {
            "anonymous": false,
            "inputs": [
                {
                    "indexed": true,
                    "internalType": "address",
                    "name": "lostAddress",
                    "type": "address"
                },
                {
                    "indexed": false,
                    "internalType": "uint256",
                    "name": "collateral",
                    "type": "uint256"
                }
            ],
            "name": "ClaimCleared",
            "type": "event"
        },
        {
            "anonymous": false,
            "inputs": [
                {
                    "indexed": true,
                    "internalType": "address",
                    "name": "lostAddress",
                    "type": "address"
                },
                {
                    "indexed": true,
                    "internalType": "address",
                    "name": "claimant",
                    "type": "address"
                },
                {
                    "indexed": false,
                    "internalType": "uint256",
                    "name": "collateral",
                    "type": "uint256"
                }
            ],
            "name": "ClaimDeleted",
            "type": "event"
        },
        {
            "anonymous": false,
            "inputs": [
                {
                    "indexed": true,
                    "internalType": "address",
                    "name": "lostAddress",
                    "type": "address"
                },
                {
                    "indexed": true,
                    "internalType": "address",
                    "name": "claimant",
                    "type": "address"
                },
                {
                    "indexed": false,
                    "internalType": "uint256",
                    "name": "balance",
                    "type": "uint256"
                }
            ],
            "name": "ClaimMade",
            "type": "event"
        },
        {
            "anonymous": false,
            "inputs": [
                {
                    "indexed": false,
                    "internalType": "uint256",
                    "name": "newClaimPeriodInDays",
                    "type": "uint256"
                }
            ],
            "name": "ClaimPeriodChanged",
            "type": "event"
        },
        {
            "anonymous": false,
            "inputs": [
                {
                    "indexed": true,
                    "internalType": "address",
                    "name": "lostAddress",
                    "type": "address"
                },
                {
                    "indexed": true,
                    "internalType": "address",
                    "name": "claimant",
                    "type": "address"
                },
                {
                    "indexed": false,
                    "internalType": "uint256",
                    "name": "collateral",
                    "type": "uint256"
                }
            ],
            "name": "ClaimResolved",
            "type": "event"
        },
        {
            "anonymous": false,
            "inputs": [
                {
                    "indexed": false,
                    "internalType": "address",
                    "name": "newCustomCollateralAddress",
                    "type": "address"
                },
                {
                    "indexed": false,
                    "internalType": "uint256",
                    "name": "newCustomCollareralRate",
                    "type": "uint256"
                }
            ],
            "name": "CustomClaimCollateralChanged",
            "type": "event"
        },
        {
            "anonymous": false,
            "inputs": [
                {
                    "indexed": false,
                    "internalType": "address",
                    "name": "newContractAddress",
                    "type": "address"
                }
            ],
            "name": "MigrationSucceeded",
            "type": "event"
        },
        {
            "anonymous": false,
            "inputs": [
                {
                    "indexed": true,
                    "internalType": "address",
                    "name": "buyer",
                    "type": "address"
                },
                {
                    "indexed": false,
                    "internalType": "uint256",
                    "name": "pricePerShare",
                    "type": "uint256"
                },
                {
                    "indexed": false,
                    "internalType": "address",
                    "name": "offerContract",
                    "type": "address"
                }
            ],
            "name": "OfferCreated",
            "type": "event"
        },
        {
            "anonymous": false,
            "inputs": [
                {
                    "indexed": true,
                    "internalType": "address",
                    "name": "buyer",
                    "type": "address"
                },
                {
                    "indexed": false,
                    "internalType": "address",
                    "name": "sender",
                    "type": "address"
                },
                {
                    "indexed": false,
                    "internalType": "bool",
                    "name": "success",
                    "type": "bool"
                },
                {
                    "indexed": false,
                    "internalType": "string",
                    "name": "message",
                    "type": "string"
                },
                {
                    "indexed": false,
                    "internalType": "address",
                    "name": "offerContract",
                    "type": "address"
                }
            ],
            "name": "OfferEnded",
            "type": "event"
        },
        {
            "anonymous": false,
            "inputs": [
                {
                    "indexed": true,
                    "internalType": "address",
                    "name": "from",
                    "type": "address"
                },
                {
                    "indexed": true,
                    "internalType": "address",
                    "name": "to",
                    "type": "address"
                },
                {
                    "indexed": false,
                    "internalType": "uint256",
                    "name": "value",
                    "type": "uint256"
                }
            ],
            "name": "Transfer",
            "type": "event"
        },
        {
            "inputs": [],
            "name": "acquisitionQuorum",
            "outputs": [
                {
                    "internalType": "uint256",
                    "name": "",
                    "type": "uint256"
                }
            ],
            "stateMutability": "view",
            "type": "function"
        },
        {
            "inputs": [],
            "name": "active",
            "outputs": [
                {
                    "internalType": "bool",
                    "name": "",
                    "type": "bool"
                }
            ],
            "stateMutability": "view",
            "type": "function"
        },
        {
            "inputs": [
                {
                    "internalType": "address",
                    "name": "owner",
                    "type": "address"
                },
                {
                    "internalType": "address",
                    "name": "spender",
                    "type": "address"
                }
            ],
            "name": "allowance",
            "outputs": [
                {
                    "internalType": "uint256",
                    "name": "",
                    "type": "uint256"
                }
            ],
            "stateMutability": "view",
            "type": "function"
        },
        {
            "inputs": [
                {
                    "internalType": "address",
                    "name": "spender",
                    "type": "address"
                },
                {
                    "internalType": "uint256",
                    "name": "value",
                    "type": "uint256"
                }
            ],
            "name": "approve",
            "outputs": [
                {
                    "internalType": "bool",
                    "name": "",
                    "type": "bool"
                }
            ],
            "stateMutability": "nonpayable",
            "type": "function"
        },
        {
            "inputs": [
                {
                    "internalType": "address",
                    "name": "account",
                    "type": "address"
                }
            ],
            "name": "balanceOf",
            "outputs": [
                {
                    "internalType": "uint256",
                    "name": "",
                    "type": "uint256"
                }
            ],
            "stateMutability": "view",
            "type": "function"
        },
        {
            "inputs": [
                {
                    "internalType": "uint256",
                    "name": "amount",
                    "type": "uint256"
                }
            ],
            "name": "burn",
            "outputs": [],
            "stateMutability": "nonpayable",
            "type": "function"
        },
        {
            "inputs": [],
            "name": "cancelAcquisition",
            "outputs": [],
            "stateMutability": "nonpayable",
            "type": "function"
        },
        {
            "inputs": [],
            "name": "claimPeriod",
            "outputs": [
                {
                    "internalType": "uint256",
                    "name": "",
                    "type": "uint256"
                }
            ],
            "stateMutability": "view",
            "type": "function"
        },
        {
            "inputs": [
                {
                    "internalType": "address",
                    "name": "",
                    "type": "address"
                }
            ],
            "name": "claims",
            "outputs": [
                {
                    "internalType": "address",
                    "name": "claimant",
                    "type": "address"
                },
                {
                    "internalType": "uint256",
                    "name": "collateral",
                    "type": "uint256"
                },
                {
                    "internalType": "uint256",
                    "name": "timestamp",
                    "type": "uint256"
                },
                {
                    "internalType": "address",
                    "name": "currencyUsed",
                    "type": "address"
                }
            ],
            "stateMutability": "view",
            "type": "function"
        },
        {
            "inputs": [],
            "name": "clearClaim",
            "outputs": [],
            "stateMutability": "nonpayable",
            "type": "function"
        },
        {
            "inputs": [],
            "name": "completeAcquisition",
            "outputs": [],
            "stateMutability": "nonpayable",
            "type": "function"
        },
        {
            "inputs": [],
            "name": "contestAcquisition",
            "outputs": [],
            "stateMutability": "nonpayable",
            "type": "function"
        },
        {
            "inputs": [],
            "name": "customCollateralAddress",
            "outputs": [
                {
                    "internalType": "address",
                    "name": "",
                    "type": "address"
                }
            ],
            "stateMutability": "view",
            "type": "function"
        },
        {
            "inputs": [],
            "name": "customCollateralRate",
            "outputs": [
                {
                    "internalType": "uint256",
                    "name": "",
                    "type": "uint256"
                }
            ],
            "stateMutability": "view",
            "type": "function"
        },
        {
            "inputs": [],
            "name": "decimals",
            "outputs": [
                {
                    "internalType": "uint8",
                    "name": "",
                    "type": "uint8"
                }
            ],
            "stateMutability": "view",
            "type": "function"
        },
        {
            "inputs": [
                {
                    "internalType": "address",
                    "name": "collateralType",
                    "type": "address"
                },
                {
                    "internalType": "address",
                    "name": "lostAddress",
                    "type": "address"
                }
            ],
            "name": "declareLost",
            "outputs": [],
            "stateMutability": "nonpayable",
            "type": "function"
        },
        {
            "inputs": [
                {
                    "internalType": "address",
                    "name": "spender",
                    "type": "address"
                },
                {
                    "internalType": "uint256",
                    "name": "subtractedValue",
                    "type": "uint256"
                }
            ],
            "name": "decreaseAllowance",
            "outputs": [
                {
                    "internalType": "bool",
                    "name": "",
                    "type": "bool"
                }
            ],
            "stateMutability": "nonpayable",
            "type": "function"
        },
        {
            "inputs": [
                {
                    "internalType": "address",
                    "name": "lostAddress",
                    "type": "address"
                }
            ],
            "name": "deleteClaim",
            "outputs": [],
            "stateMutability": "nonpayable",
            "type": "function"
        },
        {
            "inputs": [],
            "name": "getClaimDeleter",
            "outputs": [
                {
                    "internalType": "address",
                    "name": "",
                    "type": "address"
                }
            ],
            "stateMutability": "view",
            "type": "function"
        },
        {
            "inputs": [
                {
                    "internalType": "address",
                    "name": "lostAddress",
                    "type": "address"
                }
            ],
            "name": "getClaimant",
            "outputs": [
                {
                    "internalType": "address",
                    "name": "",
                    "type": "address"
                }
            ],
            "stateMutability": "view",
            "type": "function"
        },
        {
            "inputs": [
                {
                    "internalType": "address",
                    "name": "lostAddress",
                    "type": "address"
                }
            ],
            "name": "getCollateral",
            "outputs": [
                {
                    "internalType": "uint256",
                    "name": "",
                    "type": "uint256"
                }
            ],
            "stateMutability": "view",
            "type": "function"
        },
        {
            "inputs": [
                {
                    "internalType": "address",
                    "name": "collateralType",
                    "type": "address"
                }
            ],
            "name": "getCollateralRate",
            "outputs": [
                {
                    "internalType": "uint256",
                    "name": "",
                    "type": "uint256"
                }
            ],
            "stateMutability": "view",
            "type": "function"
        },
        {
            "inputs": [
                {
                    "internalType": "address",
                    "name": "lostAddress",
                    "type": "address"
                }
            ],
            "name": "getCollateralType",
            "outputs": [
                {
                    "internalType": "address",
                    "name": "",
                    "type": "address"
                }
            ],
            "stateMutability": "view",
            "type": "function"
        },
        {
            "inputs": [],
            "name": "getCurrencyContract",
            "outputs": [
                {
                    "internalType": "address",
                    "name": "",
                    "type": "address"
                }
            ],
            "stateMutability": "view",
            "type": "function"
        },
        {
            "inputs": [],
            "name": "getPendingOffer",
            "outputs": [
                {
                    "internalType": "address",
                    "name": "",
                    "type": "address"
                }
            ],
            "stateMutability": "view",
            "type": "function"
        },
        {
            "inputs": [
                {
                    "internalType": "address",
                    "name": "lostAddress",
                    "type": "address"
                }
            ],
            "name": "getTimeStamp",
            "outputs": [
                {
                    "internalType": "uint256",
                    "name": "",
                    "type": "uint256"
                }
            ],
            "stateMutability": "view",
            "type": "function"
        },
        {
            "inputs": [],
            "name": "getWrappedContract",
            "outputs": [
                {
                    "internalType": "address",
                    "name": "",
                    "type": "address"
                }
            ],
            "stateMutability": "view",
            "type": "function"
        },
        {
            "inputs": [
                {
                    "internalType": "address",
                    "name": "spender",
                    "type": "address"
                },
                {
                    "internalType": "uint256",
                    "name": "addedValue",
                    "type": "uint256"
                }
            ],
            "name": "increaseAllowance",
            "outputs": [
                {
                    "internalType": "bool",
                    "name": "",
                    "type": "bool"
                }
            ],
            "stateMutability": "nonpayable",
            "type": "function"
        },
        {
            "inputs": [
                {
                    "internalType": "uint256",
                    "name": "pricePerShare",
                    "type": "uint256"
                }
            ],
            "name": "initiateAcquisition",
            "outputs": [],
            "stateMutability": "nonpayable",
            "type": "function"
        },
        {
            "inputs": [
                {
                    "internalType": "address",
                    "name": "target",
                    "type": "address"
                }
            ],
            "name": "isRecoveryEnabled",
            "outputs": [
                {
                    "internalType": "bool",
                    "name": "",
                    "type": "bool"
                }
            ],
            "stateMutability": "view",
            "type": "function"
        },
        {
            "inputs": [],
            "name": "licenseFee",
            "outputs": [
                {
                    "internalType": "uint256",
                    "name": "",
                    "type": "uint256"
                }
            ],
            "stateMutability": "view",
            "type": "function"
        },
        {
            "inputs": [],
            "name": "licenseFeeRecipient",
            "outputs": [
                {
                    "internalType": "address",
                    "name": "",
                    "type": "address"
                }
            ],
            "stateMutability": "view",
            "type": "function"
        },
        {
            "inputs": [],
            "name": "migrate",
            "outputs": [],
            "stateMutability": "nonpayable",
            "type": "function"
        },
        {
            "inputs": [],
            "name": "migrationQuorum",
            "outputs": [
                {
                    "internalType": "uint256",
                    "name": "",
                    "type": "uint256"
                }
            ],
            "stateMutability": "view",
            "type": "function"
        },
        {
            "inputs": [],
            "name": "name",
            "outputs": [
                {
                    "internalType": "string",
                    "name": "",
                    "type": "string"
                }
            ],
            "stateMutability": "view",
            "type": "function"
        },
        {
            "inputs": [],
            "name": "offer",
            "outputs": [
                {
                    "internalType": "contract Acquisition",
                    "name": "",
                    "type": "address"
                }
            ],
            "stateMutability": "view",
            "type": "function"
        },
        {
            "inputs": [],
            "name": "offerExists",
            "outputs": [
                {
                    "internalType": "bool",
                    "name": "",
                    "type": "bool"
                }
            ],
            "stateMutability": "view",
            "type": "function"
        },
        {
            "inputs": [
                {
                    "internalType": "address",
                    "name": "from",
                    "type": "address"
                },
                {
                    "internalType": "uint256",
                    "name": "amount",
                    "type": "uint256"
                },
                {
                    "internalType": "bytes",
                    "name": "",
                    "type": "bytes"
                }
            ],
            "name": "onTokenTransfer",
            "outputs": [],
            "stateMutability": "nonpayable",
            "type": "function"
        },
        {
            "inputs": [
                {
                    "internalType": "address",
                    "name": "lostAddress",
                    "type": "address"
                }
            ],
            "name": "recover",
            "outputs": [],
            "stateMutability": "nonpayable",
            "type": "function"
        },
        {
            "inputs": [
                {
                    "internalType": "address",
                    "name": "",
                    "type": "address"
                }
            ],
            "name": "recoveryDisabled",
            "outputs": [
                {
                    "internalType": "bool",
                    "name": "",
                    "type": "bool"
                }
            ],
            "stateMutability": "view",
            "type": "function"
        },
        {
            "inputs": [
                {
                    "internalType": "bool",
                    "name": "enabled",
                    "type": "bool"
                }
            ],
            "name": "setRecoverable",
            "outputs": [],
            "stateMutability": "nonpayable",
            "type": "function"
        },
        {
            "inputs": [],
            "name": "symbol",
            "outputs": [
                {
                    "internalType": "string",
                    "name": "",
                    "type": "string"
                }
            ],
            "stateMutability": "view",
            "type": "function"
        },
        {
            "inputs": [],
            "name": "terms",
            "outputs": [
                {
                    "internalType": "string",
                    "name": "",
                    "type": "string"
                }
            ],
            "stateMutability": "view",
            "type": "function"
        },
        {
            "inputs": [],
            "name": "totalSupply",
            "outputs": [
                {
                    "internalType": "uint256",
                    "name": "",
                    "type": "uint256"
                }
            ],
            "stateMutability": "view",
            "type": "function"
        },
        {
            "inputs": [
                {
                    "internalType": "address",
                    "name": "to",
                    "type": "address"
                },
                {
                    "internalType": "uint256",
                    "name": "value",
                    "type": "uint256"
                }
            ],
            "name": "transfer",
            "outputs": [
                {
                    "internalType": "bool",
                    "name": "",
                    "type": "bool"
                }
            ],
            "stateMutability": "nonpayable",
            "type": "function"
        },
        {
            "inputs": [
                {
                    "internalType": "address",
                    "name": "recipient",
                    "type": "address"
                },
                {
                    "internalType": "uint256",
                    "name": "amount",
                    "type": "uint256"
                },
                {
                    "internalType": "bytes",
                    "name": "data",
                    "type": "bytes"
                }
            ],
            "name": "transferAndCall",
            "outputs": [
                {
                    "internalType": "bool",
                    "name": "",
                    "type": "bool"
                }
            ],
            "stateMutability": "nonpayable",
            "type": "function"
        },
        {
            "inputs": [
                {
                    "internalType": "address",
                    "name": "sender",
                    "type": "address"
                },
                {
                    "internalType": "address",
                    "name": "recipient",
                    "type": "address"
                },
                {
                    "internalType": "uint256",
                    "name": "amount",
                    "type": "uint256"
                }
            ],
            "name": "transferFrom",
            "outputs": [
                {
                    "internalType": "bool",
                    "name": "",
                    "type": "bool"
                }
            ],
            "stateMutability": "nonpayable",
            "type": "function"
        },
        {
            "inputs": [
                {
                    "internalType": "uint256",
                    "name": "amount",
                    "type": "uint256"
                }
            ],
            "name": "unwrap",
            "outputs": [],
            "stateMutability": "nonpayable",
            "type": "function"
        },
        {
            "inputs": [],
            "name": "unwrapConversionFactor",
            "outputs": [
                {
                    "internalType": "uint256",
                    "name": "",
                    "type": "uint256"
                }
            ],
            "stateMutability": "view",
            "type": "function"
        },
        {
            "inputs": [
                {
                    "internalType": "address",
                    "name": "newCurrency",
                    "type": "address"
                }
            ],
            "name": "updateCurrency",
            "outputs": [],
            "stateMutability": "nonpayable",
            "type": "function"
        },
        {
            "inputs": [],
            "name": "voteNo",
            "outputs": [],
            "stateMutability": "nonpayable",
            "type": "function"
        },
        {
            "inputs": [],
            "name": "voteYes",
            "outputs": [],
            "stateMutability": "nonpayable",
            "type": "function"
        },
        {
            "inputs": [],
            "name": "wasAcquired",
            "outputs": [
                {
                    "internalType": "bool",
                    "name": "",
                    "type": "bool"
                }
            ],
            "stateMutability": "view",
            "type": "function"
        },
        {
            "inputs": [
                {
                    "internalType": "address",
                    "name": "shareholder",
                    "type": "address"
                },
                {
                    "internalType": "uint256",
                    "name": "amount",
                    "type": "uint256"
                }
            ],
            "name": "wrap",
            "outputs": [],
            "stateMutability": "nonpayable",
            "type": "function"
        }
    ],
    "bytecode": "608060405262ed4e006004556001600a8190556011805460ff191690911790553480156200002c57600080fd5b50604051620051d4380380620051d4833981810160405260608110156200005257600080fd5b81019080805160405193929190846401000000008211156200007357600080fd5b9083019060208201858111156200008957600080fd5b8251640100000000811182820188101715620000a457600080fd5b82525081516020918201929091019080838360005b83811015620000d3578181015183820152602001620000b9565b50505050905090810190601f168015620001015780820380516001836020036101000a031916815260200191505b506040818152602083810151938201516003805460ff19169055600980546001600160a01b038088166001600160a01b03199283168117909355600d805483167329fe8914e76da5ce2d90de98a64d0055f199d06d17905569010f0cf064dd59200000600e55611d4c600f8190556010819055600c80549286169290931691909117909155633a98ef3960e01b865293519597509095508694929384938793633a98ef3992600480820193918290030181600087803b158015620001c457600080fd5b505af1158015620001d9573d6000803e3d6000fd5b505050506040513d6020811015620001f057600080fd5b505060408051636427ed9760e01b815260006004820181905291516001600160a01b0389169650636427ed97955060248083019550929350919082900301818387803b1580156200024057600080fd5b505af115801562000255573d6000803e3d6000fd5b505084516200026e925060129150602086019062000278565b5050505062000314565b828054600181600116156101000203166002900490600052602060002090601f016020900481019282601f10620002bb57805160ff1916838001178555620002eb565b82800160010185558215620002eb579182015b82811115620002eb578251825591602001919060010190620002ce565b50620002f9929150620002fd565b5090565b5b80821115620002f95760008155600101620002fe565b614eb080620003246000396000f3fe60806040523480156200001157600080fd5b5060043610620003945760003560e01c80636f4b18df11620001e3578063a9d9d0c7116200011d578063d502562511620000b1578063de4946851162000087578063de4946851462000a7f578063e1b8c38e1462000a89578063eb470ebf1462000a93578063ec6580e21462000abc5762000394565b8063d50256251462000a24578063dd62ed3e1462000a2e578063de0e9a3e1462000a5f5762000394565b8063bc1b1e7c11620000f3578063bc1b1e7c146200097b578063bf376c7a1462000985578063c028df0614620009b4578063c6788bdd14620009be5762000394565b8063a9d9d0c7146200093e578063b40e80d11462000948578063bb68947214620009715762000394565b806395d89b411162000195578063a3ec1883116200016b578063a3ec1883146200082e578063a457c2d71462000857578063a4c0ed361462000886578063a9059cbb146200090f5762000394565b806395d89b4114620007f15780639b56d6c914620007fb5780639e8a9a5a14620008245762000394565b80636f4b18df146200077757806370a08231146200078157806377e071ad14620007aa5780637dc2cd9814620007d35780638fd3ab8014620007dd57806390cf581c14620007e75762000394565b806332a7ae9511620002d35780634900ca51116200026757806360918117116200023d5780636091811714620007375780636427ed9714620007415780636467c09a14620007635780636b03ed5f146200076d5762000394565b80634900ca5114620006e45780635804791314620007045780635e027601146200070e5762000394565b80633bcc45ba11620002a95780633bcc45ba14620006085780634000aea0146200063157806341c12a7014620006ba57806342966c6814620006c45762000394565b806332a7ae9514620005a65780633549788a14620005cf5780633950935114620005d95762000394565b8063141c7068116200034b57806323b872dd116200032157806323b872dd146200051257806326773ddd146200054b5780632a0a4ed5146200057c578063313ce56714620005865762000394565b8063141c706814620004d557806318160ddd14620004df5780631e3b9de514620004e95762000394565b806302fb0c5e146200039957806306fdde0314620003b75780630832e4701462000439578063095ea7b314620004555780630c6f0e5d14620004845780630cd865ec14620004aa575b600080fd5b620003a362000ac6565b604080519115158252519081900360200190f35b620003c162000acf565b6040805160208082528351818301528351919283929083019185019080838360005b83811015620003fd578181015183820152602001620003e3565b50505050905090810190601f1680156200042b5780820380516001836020036101000a031916815260200191505b509250505060405180910390f35b6200044362000c8a565b60408051918252519081900360200190f35b620003a3600480360360408110156200046d57600080fd5b506001600160a01b03813516906020013562000c90565b6200048e62000ca9565b604080516001600160a01b039092168252519081900360200190f35b620004d360048036036020811015620004c257600080fd5b50356001600160a01b031662000cb8565b005b620004d362000f9c565b620004436200138c565b6200048e600480360360208110156200050157600080fd5b50356001600160a01b031662001392565b620003a3600480360360608110156200052a57600080fd5b506001600160a01b03813581169160208101359091169060400135620013b3565b620004d3600480360360408110156200056357600080fd5b506001600160a01b03813581169160200135166200140a565b6200048e62001735565b62000590620017ad565b6040805160ff9092168252519081900360200190f35b620004d360048036036020811015620005be57600080fd5b50356001600160a01b0316620017b6565b6200044362001a1e565b620003a360048036036040811015620005f157600080fd5b506001600160a01b03813516906020013562001a24565b6200048e600480360360208110156200062057600080fd5b50356001600160a01b031662001a5d565b620003a3600480360360608110156200064957600080fd5b6001600160a01b0382351691602081013591810190606081016040820135600160201b8111156200067957600080fd5b8201836020820111156200068c57600080fd5b803590602001918460018302840111600160201b83111715620006ae57600080fd5b50909250905062001a7e565b620004d362001b45565b620004d360048036036020811015620006dc57600080fd5b503562001c21565b620004d360048036036020811015620006fc57600080fd5b503562001c93565b6200048e620021c7565b620004d3600480360360208110156200072657600080fd5b50356001600160a01b0316620021d6565b620004436200237a565b620004d3600480360360208110156200075957600080fd5b5035151562002380565b6200048e6200239f565b620004d3620023ae565b620004d362002513565b62000443600480360360208110156200079957600080fd5b50356001600160a01b03166200286d565b6200044360048036036020811015620007c257600080fd5b50356001600160a01b031662002888565b620004436200293d565b620004d362002943565b620004d362002bd8565b620003c162002c51565b62000443600480360360208110156200081357600080fd5b50356001600160a01b031662002dc9565b6200044362002de7565b620003a3600480360360208110156200084657600080fd5b50356001600160a01b031662002ded565b620003a3600480360360408110156200086f57600080fd5b506001600160a01b03813516906020013562002e0c565b620004d3600480360360608110156200089e57600080fd5b6001600160a01b0382351691602081013591810190606081016040820135600160201b811115620008ce57600080fd5b820183602082011115620008e157600080fd5b803590602001918460018302840111600160201b831117156200090357600080fd5b50909250905062002e45565b620003a3600480360360408110156200092757600080fd5b506001600160a01b03813516906020013562002e6f565b6200044362002e84565b620003a3600480360360208110156200096057600080fd5b50356001600160a01b031662002e8a565b6200048e62002e9f565b620003a362002eae565b620004d3600480360360408110156200099d57600080fd5b506001600160a01b03813516906020013562002ecb565b6200048e62003006565b620009e760048036036020811015620009d657600080fd5b50356001600160a01b031662003015565b60405180856001600160a01b03168152602001848152602001838152602001826001600160a01b0316815260200194505050505060405180910390f35b620003c162003047565b620004436004803603604081101562000a4657600080fd5b506001600160a01b0381358116916020013516620030d9565b620004d36004803603602081101562000a7757600080fd5b503562003104565b6200048e6200323d565b620004d36200324c565b620004436004803603602081101562000aab57600080fd5b50356001600160a01b0316620033a0565b620003a3620033be565b60115460ff1681565b600954604080516306fdde0360e01b815290516060926001600160a01b0316916306fdde03916004808301926000929190829003018186803b15801562000b1557600080fd5b505afa15801562000b2a573d6000803e3d6000fd5b505050506040513d6000823e601f3d908101601f19168201604052602081101562000b5457600080fd5b8101908080516040519392919084600160201b82111562000b7457600080fd5b90830190602082018581111562000b8a57600080fd5b8251600160201b81118282018810171562000ba457600080fd5b82525081516020918201929091019080838360005b8381101562000bd357818101518382015260200162000bb9565b50505050905090810190601f16801562000c015780820380516001836020036101000a031916815260200191505b506040525050506040516020018080690223930b3b3b0b13632960b51b815250600a0182805190602001908083835b6020831062000c515780518252601f19909201916020918201910162000c30565b6001836020036101000a038019825116818451168082178552505050505050905001915050604051602081830303815290604052905090565b600a5481565b600062000c9f338484620033e4565b5060015b92915050565b6007546001600160a01b031681565b62000cc262003ff2565b506001600160a01b038082166000908152600560209081526040918290208251608081018452815485168152600182015492810183905260028201549381019390935260030154909216606082018190529091908162000d5a576040805162461bcd60e51b815260206004820152600e60248201526d139bc818db185a5b48199bdd5b9960921b604482015290519081900360640190fd5b82516001600160a01b0316331462000db9576040805162461bcd60e51b815260206004820152601f60248201527f4f6e6c7920636c61696d616e742063616e207265736f6c766520636c61696d00604482015290519081900360640190fd5b4262000dd56004548560400151620034d490919063ffffffff16565b111562000e29576040805162461bcd60e51b815260206004820152601960248201527f436c61696d20706572696f64206e6f74206f7665722079657400000000000000604482015290519081900360640190fd5b82516001600160a01b03808616600090815260056020908152604080832080546001600160a01b031990811682556001820185905560028201859055600390910180549091169055805163a9059cbb60e01b815284861660048201526024810188905290519386169363a9059cbb93604480840194938390030190829087803b15801562000eb657600080fd5b505af115801562000ecb573d6000803e3d6000fd5b505050506040513d602081101562000ee257600080fd5b505162000f33576040805162461bcd60e51b815260206004820152601a60248201527910dbdb1b185d195c985b081d1c985b9cd9995c8819985a5b195960321b604482015290519081900360640190fd5b62000f4a858262000f44886200286d565b620034e2565b806001600160a01b0316856001600160a01b03167f52a5c2b28bc6eb9712d0ced43463103b486b13ccc9cda499fd3b2d7b6a74a8ee856040518082815260200191505060405180910390a35050505050565b62000fa662002eae565b801562000fb5575060115460ff165b62000ff6576040805162461bcd60e51b8152602060048201526019602482015260008051602062004d51833981519152604482015290519081900360640190fd5b600b54604080516338a86c5760e11b815290516000926001600160a01b031691637150d8ae916004808301926020929190829003018186803b1580156200103c57600080fd5b505afa15801562001051573d6000803e3d6000fd5b505050506040513d60208110156200106857600080fd5b50519050336001600160a01b03821614620010b55760405162461bcd60e51b815260040180806020018281038252603981526020018062004e096039913960400191505060405180910390fd5b600b60009054906101000a90046001600160a01b03166001600160a01b031663d7be4e296040518163ffffffff1660e01b815260040160206040518083038186803b1580156200110457600080fd5b505afa15801562001119573d6000803e3d6000fd5b505050506040513d60208110156200113057600080fd5b505162001184576040805162461bcd60e51b815260206004820181905260248201527f496e73756666696369656e74206e756d626572206f662079657320766f746573604482015290519081900360640190fd5b600b546001600160a01b0316639890f8246200119f6200323d565b620011bf620011ae856200286d565b620011b86200138c565b90620034f4565b6040518363ffffffff1660e01b815260040180836001600160a01b031681526020018281526020019250505060206040518083038186803b1580156200120457600080fd5b505afa15801562001219573d6000803e3d6000fd5b505050506040513d60208110156200123057600080fd5b505162001284576040805162461bcd60e51b815260206004820152601b60248201527f4f6666657220696e73756666696369656e746c792066756e6465640000000000604482015290519081900360640190fd5b600c54600b546040805163501ad8ff60e11b815290516200130b9385936001600160a01b039182169391169163a035b1fe91600480820192602092909190829003018186803b158015620012d757600080fd5b505afa158015620012ec573d6000803e3d6000fd5b505050506040513d60208110156200130357600080fd5b505162003507565b600b5460408051338152600160208201526001600160a01b039283166060820152608081830181905260169082015275436f6d706c65746564207375636365737366756c6c7960501b60a08201529051918316917fc88f58ae9feb0742d9422f604dd3c1be6d02818f8dec340c5061f428b554e9759181900360c00190a250565b60025490565b6001600160a01b03808216600090815260056020526040902054165b919050565b6000620013c2848484620034e2565b6001600160a01b03841660009081526001602090815260408083203380855292529091205462001400918691620013fa9086620034f4565b620033e4565b5060019392505050565b620014158162002ded565b62001467576040805162461bcd60e51b815260206004820181905260248201527f436c61696d732064697361626c656420666f7220746869732061646472657373604482015290519081900360640190fd5b6000620014748362002888565b905060008111620014c5576040805162461bcd60e51b8152602060048201526016602482015275155b9cdd5c1c1bdc9d19590818dbdb1b185d195c985b60521b604482015290519081900360640190fd5b336000620014d3846200286d565b90506000620014e382856200373e565b9050858262001539576040805162461bcd60e51b815260206004820152601f60248201527f436c61696d6564206164647265737320686f6c6473206e6f2073686172657300604482015290519081900360640190fd5b6001600160a01b03861660009081526005602052604090206001015415620015a8576040805162461bcd60e51b815260206004820152601760248201527f4164647265737320616c726561647920636c61696d6564000000000000000000604482015290519081900360640190fd5b604080516323b872dd60e01b81526001600160a01b038681166004830152306024830152604482018590529151918316916323b872dd916064808201926020929091908290030181600087803b1580156200160257600080fd5b505af115801562001617573d6000803e3d6000fd5b505050506040513d60208110156200162e57600080fd5b50516200167f576040805162461bcd60e51b815260206004820152601a60248201527910dbdb1b185d195c985b081d1c985b9cd9995c8819985a5b195960321b604482015290519081900360640190fd5b604080516080810182526001600160a01b038087168083526020808401878152428587019081528d8516606087019081528d8616600081815260058652899020975188549088166001600160a01b0319918216178955935160018901559151600288015551600390960180549690951695909116949094179092558351878152935190937f1982ca8958fc8a8176cb52be509260f4bc5af7ce04e1533711793f1c56dd535992908290030190a350505050505050565b600062001741620021c7565b6001600160a01b0316632a0a4ed56040518163ffffffff1660e01b815260040160206040518083038186803b1580156200177a57600080fd5b505afa1580156200178f573d6000803e3d6000fd5b505050506040513d6020811015620017a657600080fd5b5051905090565b60035460ff1681565b620017c062001735565b6001600160a01b0316336001600160a01b03161462001826576040805162461bcd60e51b815260206004820152601860248201527f596f752063616e6e6f742064656c65746520636c61696d730000000000000000604482015290519081900360640190fd5b6200183062003ff2565b506001600160a01b038082166000908152600560209081526040918290208251608081018452815485168152600182015492810183905260028201549381019390935260030154909216606082018190529091620018c6576040805162461bcd60e51b815260206004820152600e60248201526d139bc818db185a5b48199bdd5b9960921b604482015290519081900360640190fd5b6001600160a01b03808416600090815260056020908152604080832080546001600160a01b031990811682556001820185905560028201859055600390910180549091169055855186830151825163a9059cbb60e01b81529186166004830152602482015290519385169363a9059cbb93604480840194938390030190829087803b1580156200195557600080fd5b505af11580156200196a573d6000803e3d6000fd5b505050506040513d60208110156200198157600080fd5b5051620019d2576040805162461bcd60e51b815260206004820152601a60248201527910dbdb1b185d195c985b081d1c985b9cd9995c8819985a5b195960321b604482015290519081900360640190fd5b815160208084015160408051918252516001600160a01b03938416938716927fbb036e629a9f4c0897ee5d48440dfdb36f7e772117723a2ed603a6514244c2d5928290030190a3505050565b60105481565b3360008181526001602090815260408083206001600160a01b0387168452909152812054909162000c9f918590620013fa9086620034d4565b6001600160a01b039081166000908152600560205260409020600301541690565b60008062001a8d868662002e6f565b9050801562001b3c57856001600160a01b031663a4c0ed36338787876040518563ffffffff1660e01b815260040180856001600160a01b03168152602001848152602001806020018281038252848482818152602001925080828437600081840152601f19601f82011690508083019250505095505050505050600060405180830381600087803b15801562001b2257600080fd5b505af115801562001b37573d6000803e3d6000fd5b505050505b95945050505050565b62001b4f62002eae565b801562001b5e575060115460ff165b62001b9f576040805162461bcd60e51b8152602060048201526019602482015260008051602062004d51833981519152604482015290519081900360640190fd5b600b5433906001600160a01b0316634b91562e8262001bbe816200286d565b6040518363ffffffff1660e01b815260040180836001600160a01b0316815260200182815260200192505050600060405180830381600087803b15801562001c0557600080fd5b505af115801562001c1a573d6000803e3d6000fd5b5050505050565b62001c2d338262003767565b62001c37620021c7565b6001600160a01b03166342966c6862001c5c600a54846200373e90919063ffffffff16565b6040518263ffffffff1660e01b815260040180828152602001915050600060405180830381600087803b15801562001c0557600080fd5b60115460ff1662001ceb576040805162461bcd60e51b815260206004820152601860248201527f416e206163636570746564206f66666572206578697374730000000000000000604482015290519081900360640190fd5b600062001cf7620021c7565b6001600160a01b0316633a98ef396040518163ffffffff1660e01b8152600401602060405180830381600087803b15801562001d3257600080fd5b505af115801562001d47573d6000803e3d6000fd5b505050506040513d602081101562001d5e57600080fd5b505190503362001d7f61271062001d7884610bb86200373e565b9062003773565b62001d896200138c565b101562001dc85760405162461bcd60e51b815260040180806020018281038252602e81526020018062004db7602e913960400191505060405180910390fd5b62001ddd61271062001d78846101f46200373e565b62001de8826200286d565b101562001e275760405162461bcd60e51b815260040180806020018281038252603981526020018062004e426039913960400191505060405180910390fd5b600c54600d54600e54604080516323b872dd60e01b81526001600160a01b038681166004830152938416602482015260448101929092525191909216916323b872dd9160648083019260209291908290030181600087803b15801562001e8c57600080fd5b505af115801562001ea1573d6000803e3d6000fd5b505050506040513d602081101562001eb857600080fd5b505162001f0c576040805162461bcd60e51b815260206004820152601860248201527f43757272656e6379207472616e73666572206661696c65640000000000000000604482015290519081900360640190fd5b6000338460105460405162001f21906200402c565b80846001600160a01b031681526020018381526020018281526020019350505050604051809103906000f08015801562001f5f573d6000803e3d6000fd5b509050806001600160a01b0316639890f82462001f7b6200323d565b62001f86856200286d565b62001f906200138c565b036040518363ffffffff1660e01b815260040180836001600160a01b031681526020018281526020019250505060206040518083038186803b15801562001fd657600080fd5b505afa15801562001feb573d6000803e3d6000fd5b505050506040513d60208110156200200257600080fd5b50516200204d576040805162461bcd60e51b8152602060048201526014602482015273496e73756666696369656e742066756e64696e6760601b604482015290519081900360640190fd5b6200205762002eae565b156200215357620020ef61271062001d78612904600b60009054906101000a90046001600160a01b03166001600160a01b031663a035b1fe6040518163ffffffff1660e01b815260040160206040518083038186803b158015620020ba57600080fd5b505afa158015620020cf573d6000803e3d6000fd5b505050506040513d6020811015620020e657600080fd5b5051906200373e565b8410156200212f5760405162461bcd60e51b815260040180806020018281038252603c81526020018062004d15603c913960400191505060405180910390fd5b6200215360405180606001604052806022815260200162004c436022913962003787565b600b80546001600160a01b0319166001600160a01b038381169190911790915582167f9c00f159b1fa9eaebda7acaf50be0bf3a652277380f907b35cb681bd641a62d385620021a16200239f565b604080519283526001600160a01b0390911660208301528051918290030190a250505050565b6009546001600160a01b031690565b620021e062002eae565b156200222e576040805162461bcd60e51b81526020600482015260186024820152772a3432b9329034b99030903832b73234b7339037b33332b960411b604482015290519081900360640190fd5b60115460ff166200227f576040805162461bcd60e51b8152602060048201526016602482015275436f6e7472616374206973206e6f742061637469766560501b604482015290519081900360640190fd5b806001600160a01b0316620022936200323d565b6001600160a01b031663ee5554d36040518163ffffffff1660e01b8152600401602060405180830381600087803b158015620022ce57600080fd5b505af1158015620022e3573d6000803e3d6000fd5b505050506040513d6020811015620022fa57600080fd5b50516001600160a01b03161462002358576040805162461bcd60e51b815260206004820152601760248201527f496e76616c69642063757272656e637920757064617465000000000000000000604482015290519081900360640190fd5b600c80546001600160a01b0319166001600160a01b0392909216919091179055565b60085481565b336000908152600660205260409020805460ff19169115919091179055565b600b546001600160a01b031690565b3360009081526005602052604090206001015415620025115733600081815260056020908152604080832060018101805460038301805484546001600160a01b03199081168655938890556002909401879055918316909155825163a9059cbb60e01b8152600481019690965260248601819052915191946001600160a01b0390911693849363a9059cbb93604480850194929391928390030190829087803b1580156200245b57600080fd5b505af115801562002470573d6000803e3d6000fd5b505050506040513d60208110156200248757600080fd5b5051620024d8576040805162461bcd60e51b815260206004820152601a60248201527910dbdb1b185d195c985b081d1c985b9cd9995c8819985a5b195960321b604482015290519081900360640190fd5b60408051838152905133917f203627483d943880619f4b7e0cca21dbefd6204b4d85b124eb99540e17ba86dd919081900360200190a250505b565b6200251d62002eae565b80156200252c575060115460ff165b6200256d576040805162461bcd60e51b8152602060048201526019602482015260008051602062004d51833981519152604482015290519081900360640190fd5b600b60009054906101000a90046001600160a01b03166001600160a01b03166390e64d136040518163ffffffff1660e01b815260040160206040518083038186803b158015620025bc57600080fd5b505afa158015620025d1573d6000803e3d6000fd5b505050506040513d6020811015620025e857600080fd5b5051156200262657620026206040518060400160405280600d81526020016c13d999995c88195e1c1a5c9959609a1b81525062003787565b62002511565b600b60009054906101000a90046001600160a01b03166001600160a01b031663cf42a9276040518163ffffffff1660e01b815260040160206040518083038186803b1580156200267557600080fd5b505afa1580156200268a573d6000803e3d6000fd5b505050506040513d6020811015620026a157600080fd5b505115620026de576200262060405180604001604052806012815260200171139bdd08195b9bdd59da081cdd5c1c1bdc9d60721b81525062003787565b600b546001600160a01b0316639890f824620026f96200323d565b62002784620011ae600b60009054906101000a90046001600160a01b03166001600160a01b0316637150d8ae6040518163ffffffff1660e01b815260040160206040518083038186803b1580156200275057600080fd5b505afa15801562002765573d6000803e3d6000fd5b505050506040513d60208110156200277c57600080fd5b50516200286d565b6040518363ffffffff1660e01b815260040180836001600160a01b031681526020018281526020019250505060206040518083038186803b158015620027c957600080fd5b505afa158015620027de573d6000803e3d6000fd5b505050506040513d6020811015620027f557600080fd5b505162002820576200262060405180606001604052806021815260200162004c876021913962003787565b6040805162461bcd60e51b815260206004820181905260248201527f4163717569736974696f6e20636f6e7465737420756e7375636365737366756c604482015290519081900360640190fd5b6001600160a01b031660009081526020819052604090205490565b600080620028968362003957565b90508015620028a7579050620013ae565b620028b1620021c7565b6001600160a01b0316836001600160a01b03161415620028d6575050600a54620013ae565b62002934600a54620028e7620021c7565b6001600160a01b03166377e071ad866040518263ffffffff1660e01b815260040180826001600160a01b0316815260200191505060206040518083038186803b158015620020ba57600080fd5b915050620013ae565b60045481565b60115460ff1662002994576040805162461bcd60e51b8152602060048201526016602482015275436f6e7472616374206973206e6f742061637469766560501b604482015290519081900360640190fd5b6000339050620029b861271062001d78600f54620029b16200138c565b906200373e565b620029c3826200286d565b101562002a0c576040805162461bcd60e51b8152602060048201526012602482015271145d5bdc9d5b481b9bdd081c995858da195960721b604482015290519081900360640190fd5b62002a1662002eae565b1562002b8b57600b60009054906101000a90046001600160a01b03166001600160a01b031663cf42a9276040518163ffffffff1660e01b815260040160206040518083038186803b15801562002a6b57600080fd5b505afa15801562002a80573d6000803e3d6000fd5b505050506040513d602081101562002a9757600080fd5b505162002b6f5762002aa862001b45565b600b60009054906101000a90046001600160a01b03166001600160a01b031663cf42a9276040518163ffffffff1660e01b815260040160206040518083038186803b15801562002af757600080fd5b505afa15801562002b0c573d6000803e3d6000fd5b505050506040513d602081101562002b2357600080fd5b505162002b6f576040805162461bcd60e51b8152602060048201526015602482015274145d5bdc9d5b481a185cc81b9bdd0819985a5b1959605a1b604482015290519081900360640190fd5b62002b7962002513565b62002b8362002eae565b1562002b8b57fe5b62002b998182600162003507565b604080516001600160a01b038316815290517f3b6b79a09e9fd230e8591b65c97236bf7df7a604edf733db0658e66b0e6eb2a99181900360200190a150565b62002be262002eae565b801562002bf1575060115460ff165b62002c32576040805162461bcd60e51b8152602060048201526019602482015260008051602062004d51833981519152604482015290519081900360640190fd5b600b5433906001600160a01b0316635ff0cf848262001bbe816200286d565b600954604080516395d89b4160e01b815290516060926001600160a01b0316916395d89b41916004808301926000929190829003018186803b15801562002c9757600080fd5b505afa15801562002cac573d6000803e3d6000fd5b505050506040513d6000823e601f3d908101601f19168201604052602081101562002cd657600080fd5b8101908080516040519392919084600160201b82111562002cf657600080fd5b90830190602082018581111562002d0c57600080fd5b8251600160201b81118282018810171562002d2657600080fd5b82525081516020918201929091019080838360005b8381101562002d5557818101518382015260200162002d3b565b50505050905090810190601f16801562002d835780820380516001836020036101000a031916815260200191505b506040525050506040516020018080601160fa1b81525060010182805190602001908083836020831062000c515780518252601f19909201916020918201910162000c30565b6001600160a01b031660009081526005602052604090206001015490565b600f5481565b6001600160a01b031660009081526006602052604090205460ff161590565b3360008181526001602090815260408083206001600160a01b0387168452909152812054909162000c9f918590620013fa9086620034f4565b6009546001600160a01b0316331462002e5d57600080fd5b62002e6984846200399e565b50505050565b600062002e7d838362003a5a565b9392505050565b600e5481565b60066020526000908152604090205460ff1681565b600d546001600160a01b031681565b60008062002ebb6200239f565b6001600160a01b03161415905090565b62002ed562002eae565b1562002f23576040805162461bcd60e51b81526020600482015260186024820152772a3432b9329034b99030903832b73234b7339037b33332b960411b604482015290519081900360640190fd5b600954604080516323b872dd60e01b81523360048201523060248201526044810184905290516001600160a01b03909216916323b872dd916064808201926020929091908290030181600087803b15801562002f7e57600080fd5b505af115801562002f93573d6000803e3d6000fd5b505050506040513d602081101562002faa57600080fd5b505162002ff6576040805162461bcd60e51b815260206004820152601560248201527414da185c99481d1c985b9cd9995c8819985a5b1959605a1b604482015290519081900360640190fd5b6200300282826200399e565b5050565b600b546001600160a01b031681565b60056020526000908152604090208054600182015460028301546003909301546001600160a01b039283169391921684565b6012805460408051602060026001851615610100026000190190941693909304601f81018490048402820184019092528181529291830182828015620030d15780601f10620030a557610100808354040283529160200191620030d1565b820191906000526020600020905b815481529060010190602001808311620030b357829003601f168201915b505050505081565b6001600160a01b03918216600090815260016020908152604080832093909416825291909152205490565b60115460ff1615620031485760405162461bcd60e51b815260040180806020018281038252603681526020018062004ca86036913960400191505060405180910390fd5b62003154338262003767565b600954600a546001600160a01b039091169063a9059cbb9033906200317b9085906200373e565b6040518363ffffffff1660e01b815260040180836001600160a01b0316815260200182815260200192505050602060405180830381600087803b158015620031c257600080fd5b505af1158015620031d7573d6000803e3d6000fd5b505050506040513d6020811015620031ee57600080fd5b50516200323a576040805162461bcd60e51b815260206004820152601560248201527414da185c99481d1c985b9cd9995c8819985a5b1959605a1b604482015290519081900360640190fd5b50565b600c546001600160a01b031690565b6200325662002eae565b801562003265575060115460ff165b620032a6576040805162461bcd60e51b8152602060048201526019602482015260008051602062004d51833981519152604482015290519081900360640190fd5b600b60009054906101000a90046001600160a01b03166001600160a01b0316637150d8ae6040518163ffffffff1660e01b815260040160206040518083038186803b158015620032f557600080fd5b505afa1580156200330a573d6000803e3d6000fd5b505050506040513d60208110156200332157600080fd5b50516001600160a01b031633146200336b5760405162461bcd60e51b815260040180806020018281038252603781526020018062004cde6037913960400191505060405180910390fd5b620025116040518060400160405280601281526020017121b0b731b2b63632b210313c90313abcb2b960711b81525062003787565b6001600160a01b031660009081526005602052604090206002015490565b6000620033ca62002eae565b620033d7576000620033df565b60115460ff16155b905090565b6001600160a01b0383166200342b5760405162461bcd60e51b815260040180806020018281038252602481526020018062004de56024913960400191505060405180910390fd5b6001600160a01b038216620034725760405162461bcd60e51b815260040180806020018281038252602281526020018062004c656022913960400191505060405180910390fd5b6001600160a01b03808416600081815260016020908152604080832094871680845294825291829020859055815185815291517f8c5be1e5ebec7d5bd14f71427d1e84f3dd0314c0f7b2291e5b200ac8c7c3b9259281900390910190a3505050565b8181018281101562000ca357fe5b620034ef83838362003ab6565b505050565b6000828211156200350157fe5b50900390565b600062003514846200286d565b90506000620035226200138c565b6011805460ff191690559050620035398262003104565b6000620035478284620034f4565b6009546040805163a9059cbb60e01b81526001600160a01b038a8116600483015260248201859052915193945091169163a9059cbb916044808201926020929091908290030181600087803b158015620035a057600080fd5b505af1158015620035b5573d6000803e3d6000fd5b505050506040513d6020811015620035cc57600080fd5b505162003620576040805162461bcd60e51b815260206004820152601d60248201527f5772617070656420746f6b656e207472616e73666572206661696c6564000000604482015290519081900360640190fd5b6001600160a01b0385166323b872dd87306200363d88866200373e565b6040518463ffffffff1660e01b815260040180846001600160a01b03168152602001836001600160a01b031681526020018281526020019350505050602060405180830381600087803b1580156200369457600080fd5b505af1158015620036a9573d6000803e3d6000fd5b505050506040513d6020811015620036c057600080fd5b505162003714576040805162461bcd60e51b815260206004820152601760248201527f4261636b696e67207472616e73666572206661696c6564000000000000000000604482015290519081900360640190fd5b5050600980546001600160a01b0319166001600160a01b039490941693909317909255600a555050565b6000826200374f5750600062000ca3565b50818102818382816200375e57fe5b041462000ca357fe5b62003002828262003b5e565b60008183816200377f57fe5b049392505050565b600b54604080516338a86c5760e11b815290516000926001600160a01b031691637150d8ae916004808301926020929190829003018186803b158015620037cd57600080fd5b505afa158015620037e2573d6000803e3d6000fd5b505050506040513d6020811015620037f957600080fd5b505190506001600160a01b0381167fc88f58ae9feb0742d9422f604dd3c1be6d02818f8dec340c5061f428b554e97533600085620038366200239f565b60405180856001600160a01b03168152602001841515815260200180602001836001600160a01b03168152602001828103825284818151815260200191508051906020019080838360005b838110156200389b57818101518382015260200162003881565b50505050905090810190601f168015620038c95780820380516001836020036101000a031916815260200191505b509550505050505060405180910390a2600b60009054906101000a90046001600160a01b03166001600160a01b03166341c0e1b56040518163ffffffff1660e01b8152600401600060405180830381600087803b1580156200392a57600080fd5b505af11580156200393f573d6000803e3d6000fd5b5050600b80546001600160a01b031916905550505050565b60006001600160a01b0382163014156200397457506001620013ae565b6007546001600160a01b0383811691161415620039955750600854620013ae565b506000620013ae565b620039a862002eae565b15620039f6576040805162461bcd60e51b81526020600482015260186024820152772a3432b9329034b99030903832b73234b7339037b33332b960411b604482015290519081900360640190fd5b60115460ff1662003a4e576040805162461bcd60e51b815260206004820152601d60248201527f436f6e7472616374206e6f742061637469766520616e79206d6f72652e000000604482015290519081900360640190fd5b62003002828262003c58565b600062003a68838362003c64565b62003aac576040805162461bcd60e51b815260206004820152600f60248201526e151c985b9cd9995c8819985a5b1959608a1b604482015290519081900360640190fd5b62000c9f620023ae565b62003ac383838362003c73565b62003acd62002eae565b801562003adc575060115460ff165b15620034ef57600b5460408051636240a7d760e11b81526001600160a01b0386811660048301528581166024830152604482018590529151919092169163c4814fae91606480830192600092919082900301818387803b15801562003b4057600080fd5b505af115801562003b55573d6000803e3d6000fd5b50505050505050565b8062003b6a336200286d565b101562003bb5576040805162461bcd60e51b815260206004820152601460248201527310985b185b98d9481a5b9cdd59999a58da595b9d60621b604482015290519081900360640190fd5b62003bc1828262003db1565b62003bcb62002eae565b801562003bda575060115460ff165b156200300257600b5460408051636240a7d760e11b81526001600160a01b03858116600483015260006024830181905260448301869052925193169263c4814fae9260648084019391929182900301818387803b15801562003c3b57600080fd5b505af115801562003c50573d6000803e3d6000fd5b505050505050565b62003002828262003e84565b600062000c9f338484620034e2565b6001600160a01b03831662003cba5760405162461bcd60e51b815260040180806020018281038252602581526020018062004d926025913960400191505060405180910390fd5b6001600160a01b03821662003d015760405162461bcd60e51b815260040180806020018281038252602381526020018062004c206023913960400191505060405180910390fd5b6001600160a01b03831660009081526020819052604090205462003d269082620034f4565b6001600160a01b03808516600090815260208190526040808220939093559084168152205462003d579082620034d4565b6001600160a01b038084166000818152602081815260409182902094909455805185815290519193928716927fddf252ad1be2c89b69c2b068fc378daa952ba7f163c4a11628f55a4df523b3ef92918290030190a3505050565b6001600160a01b03821662003df85760405162461bcd60e51b815260040180806020018281038252602181526020018062004d716021913960400191505060405180910390fd5b60025462003e079082620034f4565b6002556001600160a01b03821660009081526020819052604090205462003e2f9082620034f4565b6001600160a01b038316600081815260208181526040808320949094558351858152935191937fddf252ad1be2c89b69c2b068fc378daa952ba7f163c4a11628f55a4df523b3ef929081900390910190a35050565b62003e90828262003f09565b62003e9a62002eae565b801562003ea9575060115460ff165b156200300257600b5460408051636240a7d760e11b81526000600482018190526001600160a01b038681166024840152604483018690529251929093169263c4814fae9260648084019382900301818387803b15801562003c3b57600080fd5b6001600160a01b03821662003f65576040805162461bcd60e51b815260206004820152601f60248201527f45524332303a206d696e7420746f20746865207a65726f206164647265737300604482015290519081900360640190fd5b60025462003f749082620034d4565b6002556001600160a01b03821660009081526020819052604090205462003f9c9082620034d4565b6001600160a01b0383166000818152602081815260408083209490945583518581529351929391927fddf252ad1be2c89b69c2b068fc378daa952ba7f163c4a11628f55a4df523b3ef9281900390910190a35050565b604051806080016040528060006001600160a01b03168152602001600081526020016000815260200160006001600160a01b031681525090565b610be5806200403b8339019056fe608060405234801561001057600080fd5b50604051610be5380380610be58339818101604052606081101561003357600080fd5b508051602082015160409092015190919081610096576040805162461bcd60e51b815260206004820152601460248201527f50726963652063616e6e6f74206265207a65726f000000000000000000000000604482015290519081900360640190fd5b600180546001600160a01b03199081163317909155600280546001600160a01b0395909516949091169390931790925560035560005542600455610b06806100df6000396000f3fe608060405234801561001057600080fd5b50600436106101215760003560e01c80639890f824116100ad578063c4814fae11610071578063c4814fae14610282578063cf42a927146102b8578063d7be4e29146102c0578063fa7f1bae146102c8578063fb286c65146102d057610121565b80639890f82414610236578063a035b1fe14610262578063b1610d7e1461026a578063b5b47f4214610272578063b80777ea1461027a57610121565b80634b91562e116100f45780634b91562e1461018c5780635ff0cf84146101b85780637150d8ae146101e45780638f1b4c6f1461020857806390e64d131461022e57610121565b80630c43cd88146101265780631703a0181461014057806341c0e1b514610148578063448ab4c614610152575b600080fd5b61012e6102d8565b60408051918252519081900360200190f35b61012e6102df565b6101506102e5565b005b6101786004803603602081101561016857600080fd5b50356001600160a01b031661033c565b604080519115158252519081900360200190f35b610150600480360360408110156101a257600080fd5b506001600160a01b03813516906020013561036f565b610150600480360360408110156101ce57600080fd5b506001600160a01b038135169060200135610417565b6101ec6104bb565b604080516001600160a01b039092168252519081900360200190f35b6101786004803603602081101561021e57600080fd5b50356001600160a01b03166104ca565b6101786104d3565b6101786004803603604081101561024c57600080fd5b506001600160a01b0381351690602001356104f7565b61012e610633565b61012e610639565b61012e610640565b61012e610646565b6101506004803603606081101561029857600080fd5b506001600160a01b0381358116916020810135909116906040013561064c565b6101786106df565b61017861082a565b6101786108e3565b61012e610907565b6276a70081565b60005481565b6001546001600160a01b0316331461032e5760405162461bcd60e51b8152600401808060200182810382526025815260200180610aac6025913960400191505060405180910390fd5b6002546001600160a01b0316ff5b600060015b6001600160a01b03831660009081526007602052604090205460ff16600281111561036857fe5b1492915050565b6001546001600160a01b031633146103b85760405162461bcd60e51b8152600401808060200182810382526025815260200180610aac6025913960400191505060405180910390fd5b6103c06108e3565b610407576040805162461bcd60e51b81526020600482015260136024820152722a3432903b37ba32903430b99032b73232b21760691b604482015290519081900360640190fd5b6104136002828461090d565b5050565b6001546001600160a01b031633146104605760405162461bcd60e51b8152600401808060200182810382526025815260200180610aac6025913960400191505060405180910390fd5b6104686108e3565b6104af576040805162461bcd60e51b81526020600482015260136024820152722a3432903b37ba32903430b99032b73232b21760691b604482015290519081900360640190fd5b6104136001828461090d565b6002546001600160a01b031681565b60006002610341565b6000806104eb6004544261095390919063ffffffff16565b6276a700109150505b90565b600254604080516370a0823160e01b81526001600160a01b039283166004820152905160009285928492918416916370a0823191602480820192602092909190829003018186803b15801561054b57600080fd5b505afa15801561055f573d6000803e3d6000fd5b505050506040513d602081101561057557600080fd5b505160025460015460408051636eb1769f60e11b81526001600160a01b0393841660048201529183166024830152519293506000929185169163dd62ed3e91604480820192602092909190829003018186803b1580156105d457600080fd5b505afa1580156105e8573d6000803e3d6000fd5b505050506040513d60208110156105fe57600080fd5b5051600354909150600090610614908790610965565b90508281111580156106265750818111155b9450505050505b92915050565b60035481565b624f1a0081565b60055481565b60045481565b6001546001600160a01b031633146106955760405162461bcd60e51b8152600401808060200182810382526025815260200180610aac6025913960400191505060405180910390fd5b61069d6108e3565b156106da576001600160a01b0380841660009081526007602052604080822054928516825290205460ff91821691166106d782828561098a565b50505b505050565b60006106e96108e3565b156107fe57600054600154604080516318160ddd60e01b815290516107f6926001600160a01b0316916318160ddd916004808301926020929190829003018186803b15801561073757600080fd5b505afa15801561074b573d6000803e3d6000fd5b505050506040513d602081101561076157600080fd5b5051600554600154604080516318160ddd60e01b815290516107f093612710936107ea9391926001600160a01b03909116916318160ddd916004808301926020929190829003018186803b1580156107b857600080fd5b505afa1580156107cc573d6000803e3d6000fd5b505050506040513d60208110156107e257600080fd5b505190610953565b90610965565b90610a8b565b1090506104f4565b6000546107f661081b600554600654610a9e90919063ffffffff16565b6006546107f090612710610965565b60006108346108e3565b156108c657600054600154604080516318160ddd60e01b815290516108bd926001600160a01b0316916318160ddd916004808301926020929190829003018186803b15801561088257600080fd5b505afa158015610896573d6000803e3d6000fd5b505050506040513d60208110156108ac57600080fd5b50516006546107f090612710610965565b101590506104f4565b6000546108bd61081b600554600654610a9e90919063ffffffff16565b6000806108fb6004544261095390919063ffffffff16565b624f1a00101591505090565b60065481565b6001600160a01b0381166000908152600760205260409020805460ff811691859182919060ff1916600183600281111561094357fe5b02179055506106d782828661098a565b60008282111561095f57fe5b50900390565b6000826109745750600061062d565b508181028183828161098257fe5b041461062d57fe5b81600281111561099657fe5b8360028111156109a257fe5b146106da5760028360028111156109b557fe5b14156109d0576005546109c89082610953565b6005556109f5565b60018360028111156109de57fe5b14156109f5576006546109f19082610953565b6006555b6002826002811115610a0357fe5b1415610a1e57600554610a169082610a9e565b600555610a43565b6001826002811115610a2c57fe5b1415610a4357600654610a3f9082610a9e565b6006555b7f8fcc50c2c4edd06d51ae66e9e21ed76b32a1766c57f491788e1aa24a1b58c256600654600554604051808381526020018281526020019250505060405180910390a1505050565b6000818381610a9657fe5b049392505050565b8181018281101561062d57fefe43616e206f6e6c792062652063616c6c656420627920706172656e7420636f6e7472616374a2646970667358221220fa3060f939a1fd6494323f23b22f6fbd35fb241606baf5a62fb99dcec82b1cb864736f6c6343000700003345524332303a207472616e7366657220746f20746865207a65726f20616464726573734f6666657220776173207265706c616365642062792061206869676865722062696445524332303a20617070726f766520746f20746865207a65726f20616464726573734f6666657220776173206e6f742073756666696369656e746c792066756e6465644173206c6f6e672061732074686520636f6e7472616374206973206163746976652c20796f752061726520626f756e6420746f206974596f7520617265206e6f7420617574686f72697a656420746f2063616e63656c2074686973206163717569736974696f6e206f666665724e6577206f6666657273206d757374206265206174206c6561737420352520686967686572207468616e207468652070656e64696e67206f666665725468657265206973206e6f2070656e64696e67206f666665720000000000000045524332303a206275726e2066726f6d20746865207a65726f206164647265737345524332303a207472616e736665722066726f6d20746865207a65726f20616464726573735468697320636f6e747261637420646f6573206e6f7420726570726573656e7420656e6f7567682065717569747945524332303a20617070726f76652066726f6d20746865207a65726f2061646472657373596f7520617265206e6f7420617574686f72697a656420746f20636f6d706c6574652074686973206163717569736974696f6e206f66666572596f75206e65656420746f20686f6c64206174206c65617374203525206f6620746865206669726d20746f206d616b6520616e206f66666572a264697066735822122079f2a4cbd839d32b396ebec2c7abd5a3d22a217ec4fc5511906b93328d83d82664736f6c63430007000033",
    "sourcePath": "c:/Users/luziu/Documents/aktionariat/contracts/src/DraggableShares.sol",
    "compiler": {
        "name": "solc",
        "version": "0.7.0+commit.9e61f92b"
    },
    "functionHashes": {
        "acquisitionQuorum()": "3549788a",
        "active()": "02fb0c5e",
        "allowance(address,address)": "dd62ed3e",
        "approve(address,uint256)": "095ea7b3",
        "balanceOf(address)": "70a08231",
        "burn(uint256)": "42966c68",
        "cancelAcquisition()": "e1b8c38e",
        "claimPeriod()": "7dc2cd98",
        "claims(address)": "c6788bdd",
        "clearClaim()": "6b03ed5f",
        "completeAcquisition()": "141c7068",
        "contestAcquisition()": "6f4b18df",
        "customCollateralAddress()": "0c6f0e5d",
        "customCollateralRate()": "60918117",
        "decimals()": "313ce567",
        "declareLost(address,address)": "26773ddd",
        "decreaseAllowance(address,uint256)": "a457c2d7",
        "deleteClaim(address)": "32a7ae95",
        "getClaimDeleter()": "2a0a4ed5",
        "getClaimant(address)": "1e3b9de5",
        "getCollateral(address)": "9b56d6c9",
        "getCollateralRate(address)": "77e071ad",
        "getCollateralType(address)": "3bcc45ba",
        "getCurrencyContract()": "de494685",
        "getPendingOffer()": "6467c09a",
        "getTimeStamp(address)": "eb470ebf",
        "getWrappedContract()": "58047913",
        "increaseAllowance(address,uint256)": "39509351",
        "initiateAcquisition(uint256)": "4900ca51",
        "isRecoveryEnabled(address)": "a3ec1883",
        "licenseFee()": "a9d9d0c7",
        "licenseFeeRecipient()": "bb689472",
        "migrate()": "8fd3ab80",
        "migrationQuorum()": "9e8a9a5a",
        "name()": "06fdde03",
        "offer()": "c028df06",
        "offerExists()": "bc1b1e7c",
        "onTokenTransfer(address,uint256,bytes)": "a4c0ed36",
        "recover(address)": "0cd865ec",
        "recoveryDisabled(address)": "b40e80d1",
        "setRecoverable(bool)": "6427ed97",
        "symbol()": "95d89b41",
        "terms()": "d5025625",
        "totalSupply()": "18160ddd",
        "transfer(address,uint256)": "a9059cbb",
        "transferAndCall(address,uint256,bytes)": "4000aea0",
        "transferFrom(address,address,uint256)": "23b872dd",
        "unwrap(uint256)": "de0e9a3e",
        "unwrapConversionFactor()": "0832e470",
        "updateCurrency(address)": "5e027601",
        "voteNo()": "41c12a70",
        "voteYes()": "90cf581c",
        "wasAcquired()": "ec6580e2",
        "wrap(address,uint256)": "bf376c7a"
    },
    "gasEstimates": {
        "creation": {
            "codeDepositCost": "4028800",
            "executionCost": "infinite",
            "totalCost": "infinite"
        },
        "external": {
            "acquisitionQuorum()": "1089",
            "active()": "1057",
            "allowance(address,address)": "1339",
            "approve(address,uint256)": "infinite",
            "balanceOf(address)": "1213",
            "burn(uint256)": "infinite",
            "cancelAcquisition()": "infinite",
            "claimPeriod()": "1110",
            "claims(address)": "3829",
            "clearClaim()": "infinite",
            "completeAcquisition()": "infinite",
            "contestAcquisition()": "infinite",
            "customCollateralAddress()": "1172",
            "customCollateralRate()": "1065",
            "decimals()": "1147",
            "declareLost(address,address)": "infinite",
            "decreaseAllowance(address,uint256)": "infinite",
            "deleteClaim(address)": "infinite",
            "getClaimDeleter()": "infinite",
            "getClaimant(address)": "1291",
            "getCollateral(address)": "1238",
            "getCollateralRate(address)": "infinite",
            "getCollateralType(address)": "1246",
            "getCurrencyContract()": "1103",
            "getPendingOffer()": "1148",
            "getTimeStamp(address)": "1258",
            "getWrappedContract()": "1127",
            "increaseAllowance(address,uint256)": "infinite",
            "initiateAcquisition(uint256)": "infinite",
            "isRecoveryEnabled(address)": "1224",
            "licenseFee()": "1066",
            "licenseFeeRecipient()": "1149",
            "migrate()": "infinite",
            "migrationQuorum()": "1110",
            "name()": "infinite",
            "offer()": "1148",
            "offerExists()": "1151",
            "onTokenTransfer(address,uint256,bytes)": "infinite",
            "recover(address)": "infinite",
            "recoveryDisabled(address)": "1226",
            "setRecoverable(bool)": "21185",
            "symbol()": "infinite",
            "terms()": "infinite",
            "totalSupply()": "1089",
            "transfer(address,uint256)": "infinite",
            "transferAndCall(address,uint256,bytes)": "infinite",
            "transferFrom(address,address,uint256)": "infinite",
            "unwrap(uint256)": "infinite",
            "unwrapConversionFactor()": "1089",
            "updateCurrency(address)": "infinite",
            "voteNo()": "infinite",
            "voteYes()": "infinite",
            "wasAcquired()": "2078",
            "wrap(address,uint256)": "infinite"
        },
        "internal": {
            "_burn(address,uint256)": "infinite",
            "_mint(address,uint256)": "infinite",
            "_transfer(address,address,uint256)": "infinite"
        }
    }
}