{
    "contractName": "ERC20Named",
    "abi": [
        {
            "inputs": [
                {
                    "internalType": "address",
                    "name": "admin",
                    "type": "address"
                },
                {
                    "internalType": "string",
                    "name": "name_",
                    "type": "string"
                },
                {
                    "internalType": "string",
                    "name": "symbol_",
                    "type": "string"
                },
                {
                    "internalType": "uint8",
                    "name": "decimals",
                    "type": "uint8"
                }
            ],
            "stateMutability": "nonpayable",
            "type": "constructor"
        },
        {
            "anonymous": false,
            "inputs": [
                {
                    "indexed": true,
                    "internalType": "address",
                    "name": "owner",
                    "type": "address"
                },
                {
                    "indexed": true,
                    "internalType": "address",
                    "name": "spender",
                    "type": "address"
                },
                {
                    "indexed": false,
                    "internalType": "uint256",
                    "name": "value",
                    "type": "uint256"
                }
            ],
            "name": "Approval",
            "type": "event"
        },
        {
            "anonymous": false,
            "inputs": [
                {
                    "indexed": false,
                    "internalType": "string",
                    "name": "name",
                    "type": "string"
                },
                {
                    "indexed": false,
                    "internalType": "string",
                    "name": "symbol",
                    "type": "string"
                }
            ],
            "name": "NameChanged",
            "type": "event"
        },
        {
            "anonymous": false,
            "inputs": [
                {
                    "indexed": true,
                    "internalType": "address",
                    "name": "previousOwner",
                    "type": "address"
                },
                {
                    "indexed": true,
                    "internalType": "address",
                    "name": "newOwner",
                    "type": "address"
                }
            ],
            "name": "OwnershipTransferred",
            "type": "event"
        },
        {
            "anonymous": false,
            "inputs": [
                {
                    "indexed": true,
                    "internalType": "address",
                    "name": "from",
                    "type": "address"
                },
                {
                    "indexed": true,
                    "internalType": "address",
                    "name": "to",
                    "type": "address"
                },
                {
                    "indexed": false,
                    "internalType": "uint256",
                    "name": "value",
                    "type": "uint256"
                }
            ],
            "name": "Transfer",
            "type": "event"
        },
        {
            "inputs": [
                {
                    "internalType": "address",
                    "name": "owner",
                    "type": "address"
                },
                {
                    "internalType": "address",
                    "name": "spender",
                    "type": "address"
                }
            ],
            "name": "allowance",
            "outputs": [
                {
                    "internalType": "uint256",
                    "name": "",
                    "type": "uint256"
                }
            ],
            "stateMutability": "view",
            "type": "function"
        },
        {
            "inputs": [
                {
                    "internalType": "address",
                    "name": "spender",
                    "type": "address"
                },
                {
                    "internalType": "uint256",
                    "name": "value",
                    "type": "uint256"
                }
            ],
            "name": "approve",
            "outputs": [
                {
                    "internalType": "bool",
                    "name": "",
                    "type": "bool"
                }
            ],
            "stateMutability": "nonpayable",
            "type": "function"
        },
        {
            "inputs": [
                {
                    "internalType": "address",
                    "name": "account",
                    "type": "address"
                }
            ],
            "name": "balanceOf",
            "outputs": [
                {
                    "internalType": "uint256",
                    "name": "",
                    "type": "uint256"
                }
            ],
            "stateMutability": "view",
            "type": "function"
        },
        {
            "inputs": [],
            "name": "decimals",
            "outputs": [
                {
                    "internalType": "uint8",
                    "name": "",
                    "type": "uint8"
                }
            ],
            "stateMutability": "view",
            "type": "function"
        },
        {
            "inputs": [
                {
                    "internalType": "address",
                    "name": "account",
                    "type": "address"
                },
                {
                    "internalType": "uint8",
                    "name": "number",
                    "type": "uint8"
                }
            ],
            "name": "hasFlag",
            "outputs": [
                {
                    "internalType": "bool",
                    "name": "",
                    "type": "bool"
                }
            ],
            "stateMutability": "view",
            "type": "function"
        },
        {
            "inputs": [],
            "name": "name",
            "outputs": [
                {
                    "internalType": "string",
                    "name": "",
                    "type": "string"
                }
            ],
            "stateMutability": "view",
            "type": "function"
        },
        {
            "inputs": [],
            "name": "owner",
            "outputs": [
                {
                    "internalType": "address",
                    "name": "",
                    "type": "address"
                }
            ],
            "stateMutability": "view",
            "type": "function"
        },
        {
            "inputs": [
                {
                    "internalType": "string",
                    "name": "_symbol",
                    "type": "string"
                },
                {
                    "internalType": "string",
                    "name": "_name",
                    "type": "string"
                }
            ],
            "name": "setName",
            "outputs": [],
            "stateMutability": "nonpayable",
            "type": "function"
        },
        {
            "inputs": [],
            "name": "symbol",
            "outputs": [
                {
                    "internalType": "string",
                    "name": "",
                    "type": "string"
                }
            ],
            "stateMutability": "view",
            "type": "function"
        },
        {
            "inputs": [],
            "name": "totalSupply",
            "outputs": [
                {
                    "internalType": "uint256",
                    "name": "",
                    "type": "uint256"
                }
            ],
            "stateMutability": "view",
            "type": "function"
        },
        {
            "inputs": [
                {
                    "internalType": "address",
                    "name": "recipient",
                    "type": "address"
                },
                {
                    "internalType": "uint256",
                    "name": "amount",
                    "type": "uint256"
                }
            ],
            "name": "transfer",
            "outputs": [
                {
                    "internalType": "bool",
                    "name": "",
                    "type": "bool"
                }
            ],
            "stateMutability": "nonpayable",
            "type": "function"
        },
        {
            "inputs": [
                {
                    "internalType": "address",
                    "name": "recipient",
                    "type": "address"
                },
                {
                    "internalType": "uint256",
                    "name": "amount",
                    "type": "uint256"
                },
                {
                    "internalType": "bytes",
                    "name": "data",
                    "type": "bytes"
                }
            ],
            "name": "transferAndCall",
            "outputs": [
                {
                    "internalType": "bool",
                    "name": "",
                    "type": "bool"
                }
            ],
            "stateMutability": "nonpayable",
            "type": "function"
        },
        {
            "inputs": [
                {
                    "internalType": "address",
                    "name": "sender",
                    "type": "address"
                },
                {
                    "internalType": "address",
                    "name": "recipient",
                    "type": "address"
                },
                {
                    "internalType": "uint256",
                    "name": "amount",
                    "type": "uint256"
                }
            ],
            "name": "transferFrom",
            "outputs": [
                {
                    "internalType": "bool",
                    "name": "",
                    "type": "bool"
                }
            ],
            "stateMutability": "nonpayable",
            "type": "function"
        },
        {
            "inputs": [
                {
                    "internalType": "address",
                    "name": "newOwner",
                    "type": "address"
                }
            ],
            "name": "transferOwnership",
            "outputs": [],
            "stateMutability": "nonpayable",
            "type": "function"
        }
    ],
    "bytecode": "60806040523480156200001157600080fd5b506040516200107138038062001071833981016040819052620000349162000297565b600380546001600160a01b038087166101009081026001600160a81b031990931660ff861617929092179283905560405187939290920416906000907f8be0079c531659141344cd1fd0a4f28419497f9722a3daafe3b4186f6b6457e0908290a350620000a28383620000ac565b50505050620003d8565b8151620000c190600590602085019062000117565b508051620000d790600490602084019062000117565b507f6c20b91d1723b78732eba64ff11ebd7966a6e4af568a00fa4f6b72c20f58b02a81836040516200010b92919062000369565b60405180910390a15050565b82805462000125906200039b565b90600052602060002090601f01602090048101928262000149576000855562000194565b82601f106200016457805160ff191683800117855562000194565b8280016001018555821562000194579182015b828111156200019457825182559160200191906001019062000177565b50620001a2929150620001a6565b5090565b5b80821115620001a25760008155600101620001a7565b634e487b7160e01b600052604160045260246000fd5b60005b83811015620001f0578181015183820152602001620001d6565b8381111562000200576000848401525b50505050565b600082601f8301126200021857600080fd5b81516001600160401b0380821115620002355762000235620001bd565b604051601f8301601f19908116603f01168101908282118183101715620002605762000260620001bd565b816040528381528660208588010111156200027a57600080fd5b6200028d846020830160208901620001d3565b9695505050505050565b60008060008060808587031215620002ae57600080fd5b84516001600160a01b0381168114620002c657600080fd5b60208601519094506001600160401b0380821115620002e457600080fd5b620002f28883890162000206565b945060408701519150808211156200030957600080fd5b50620003188782880162000206565b925050606085015160ff811681146200033057600080fd5b939692955090935050565b6000815180845262000355816020860160208601620001d3565b601f01601f19169290920160200192915050565b6040815260006200037e60408301856200033b565b82810360208401526200039281856200033b565b95945050505050565b600181811c90821680620003b057607f821691505b60208210811415620003d257634e487b7160e01b600052602260045260246000fd5b50919050565b610c8980620003e86000396000f3fe608060405234801561001057600080fd5b50600436106100ea5760003560e01c806370a082311161008c578063a9059cbb11610066578063a9059cbb14610206578063dd62ed3e14610219578063f2fde38b14610252578063f5c0b95f1461026557600080fd5b806370a082311461019c5780638da5cb5b146101ce57806395d89b41146101fe57600080fd5b806323b872dd116100c857806323b872dd14610142578063313ce567146101555780634000aea0146101745780635c707f071461018757600080fd5b806306fdde03146100ef578063095ea7b31461010d57806318160ddd14610130575b600080fd5b6100f7610278565b6040516101049190610871565b60405180910390f35b61012061011b3660046108a0565b610306565b6040519015158152602001610104565b6002545b604051908152602001610104565b6101206101503660046108ca565b61031c565b6003546101629060ff1681565b60405160ff9091168152602001610104565b610120610182366004610906565b610378565b61019a610195366004610a30565b61041d565b005b6101346101aa366004610a94565b6001600160a01b03166000908152602081905260409020546001600160e01b031690565b6003546101e69061010090046001600160a01b031681565b6040516001600160a01b039091168152602001610104565b6100f761047b565b6101206102143660046108a0565b610488565b610134610227366004610aaf565b6001600160a01b03918216600090815260016020908152604080832093909416825291909152205490565b61019a610260366004610a94565b610495565b610120610273366004610ae2565b610547565b6004805461028590610b1f565b80601f01602080910402602001604051908101604052809291908181526020018280546102b190610b1f565b80156102fe5780601f106102d3576101008083540402835291602001916102fe565b820191906000526020600020905b8154815290600101906020018083116102e157829003601f168201915b505050505081565b600061031333848461055a565b50600192915050565b60006103298484846105bc565b6001600160a01b0384166000908152600160209081526040808320338452909152902054600160ff1b81101561036d5761036d85336103688685610b70565b61055a565b506001949350505050565b6000806103858686610488565b9050801561041457604051635260769b60e11b81526001600160a01b0387169063a4c0ed36906103bf903390899089908990600401610b87565b602060405180830381600087803b1580156103d957600080fd5b505af11580156103ed573d6000803e3d6000fd5b505050506040513d601f19601f820116820180604052508101906104119190610bcf565b90505b95945050505050565b60035461010090046001600160a01b0316331461046d5760405162461bcd60e51b81526020600482015260096024820152683737ba1037bbb732b960b91b60448201526064015b60405180910390fd5b6104778282610639565b5050565b6005805461028590610b1f565b60006103133384846105bc565b60035461010090046001600160a01b031633146104e05760405162461bcd60e51b81526020600482015260096024820152683737ba1037bbb732b960b91b6044820152606401610464565b6003546040516001600160a01b0380841692610100900416907f8be0079c531659141344cd1fd0a4f28419497f9722a3daafe3b4186f6b6457e090600090a3600380546001600160a01b0390921661010002610100600160a81b0319909216919091179055565b6000610553838361069e565b9392505050565b6001600160a01b0383811660008181526001602090815260408083209487168084529482529182902085905590518481527f8c5be1e5ebec7d5bd14f71427d1e84f3dd0314c0f7b2291e5b200ac8c7c3b92591015b60405180910390a3505050565b6001600160a01b038316600090815260208190526040812080548392906105e4908490610b70565b909155506105f4905082826106de565b816001600160a01b0316836001600160a01b03167fddf252ad1be2c89b69c2b068fc378daa952ba7f163c4a11628f55a4df523b3ef836040516105af91815260200190565b815161064c90600590602085019061078b565b50805161066090600490602084019061078b565b507f6c20b91d1723b78732eba64ff11ebd7966a6e4af568a00fa4f6b72c20f58b02a8183604051610692929190610bf1565b60405180910390a15050565b6000806106ac8360e0610c16565b6001600160a01b038516600090815260208190526040902054600160ff929092169190911b9081161491505092915050565b6001600160a01b0382166106f157600080fd5b6001600160a01b038216600090815260208190526040812054906001600160e01b03198216906107218484610c3b565b90506001600160e01b031981168281146107685760405162461bcd60e51b81526020600482015260086024820152676f766572666c6f7760c01b6044820152606401610464565b506001600160a01b03909416600090815260208190526040902093909355505050565b82805461079790610b1f565b90600052602060002090601f0160209004810192826107b957600085556107ff565b82601f106107d257805160ff19168380011785556107ff565b828001600101855582156107ff579182015b828111156107ff5782518255916020019190600101906107e4565b5061080b92915061080f565b5090565b5b8082111561080b5760008155600101610810565b6000815180845260005b8181101561084a5760208185018101518683018201520161082e565b8181111561085c576000602083870101525b50601f01601f19169290920160200192915050565b6020815260006105536020830184610824565b80356001600160a01b038116811461089b57600080fd5b919050565b600080604083850312156108b357600080fd5b6108bc83610884565b946020939093013593505050565b6000806000606084860312156108df57600080fd5b6108e884610884565b92506108f660208501610884565b9150604084013590509250925092565b6000806000806060858703121561091c57600080fd5b61092585610884565b935060208501359250604085013567ffffffffffffffff8082111561094957600080fd5b818701915087601f83011261095d57600080fd5b81358181111561096c57600080fd5b88602082850101111561097e57600080fd5b95989497505060200194505050565b634e487b7160e01b600052604160045260246000fd5b600082601f8301126109b457600080fd5b813567ffffffffffffffff808211156109cf576109cf61098d565b604051601f8301601f19908116603f011681019082821181831017156109f7576109f761098d565b81604052838152866020858801011115610a1057600080fd5b836020870160208301376000602085830101528094505050505092915050565b60008060408385031215610a4357600080fd5b823567ffffffffffffffff80821115610a5b57600080fd5b610a67868387016109a3565b93506020850135915080821115610a7d57600080fd5b50610a8a858286016109a3565b9150509250929050565b600060208284031215610aa657600080fd5b61055382610884565b60008060408385031215610ac257600080fd5b610acb83610884565b9150610ad960208401610884565b90509250929050565b60008060408385031215610af557600080fd5b610afe83610884565b9150602083013560ff81168114610b1457600080fd5b809150509250929050565b600181811c90821680610b3357607f821691505b60208210811415610b5457634e487b7160e01b600052602260045260246000fd5b50919050565b634e487b7160e01b600052601160045260246000fd5b600082821015610b8257610b82610b5a565b500390565b6001600160a01b0385168152602081018490526060604082018190528101829052818360808301376000818301608090810191909152601f909201601f191601019392505050565b600060208284031215610be157600080fd5b8151801515811461055357600080fd5b604081526000610c046040830185610824565b82810360208401526104148185610824565b600060ff821660ff84168060ff03821115610c3357610c33610b5a565b019392505050565b60008219821115610c4e57610c4e610b5a565b50019056fea264697066735822122047333dc25cd98421d353363a1bfc965fa8b6bcd31583723ad7fe8adb1fee80bc64736f6c63430008090033",
    "sourcePath": "c:/Users/luziu/Documents/GitHub/contracts/src/ERC20Named.sol",
    "compiler": {
        "name": "solc",
        "version": "0.8.9+commit.e5eed63a"
    },
    "functionHashes": {
        "allowance(address,address)": "dd62ed3e",
        "approve(address,uint256)": "095ea7b3",
        "balanceOf(address)": "70a08231",
        "decimals()": "313ce567",
        "hasFlag(address,uint8)": "f5c0b95f",
        "name()": "06fdde03",
        "owner()": "8da5cb5b",
        "setName(string,string)": "5c707f07",
        "symbol()": "95d89b41",
        "totalSupply()": "18160ddd",
        "transfer(address,uint256)": "a9059cbb",
        "transferAndCall(address,uint256,bytes)": "4000aea0",
        "transferFrom(address,address,uint256)": "23b872dd",
        "transferOwnership(address)": "f2fde38b"
    },
    "gasEstimates": {
        "creation": {
            "codeDepositCost": "641800",
            "executionCost": "infinite",
            "totalCost": "infinite"
        },
        "external": {
            "allowance(address,address)": "infinite",
            "approve(address,uint256)": "24573",
            "balanceOf(address)": "2581",
            "decimals()": "2358",
            "hasFlag(address,uint8)": "2914",
            "name()": "infinite",
            "owner()": "2393",
            "setName(string,string)": "infinite",
            "symbol()": "infinite",
            "totalSupply()": "2349",
            "transfer(address,uint256)": "51333",
            "transferAndCall(address,uint256,bytes)": "infinite",
            "transferFrom(address,address,uint256)": "infinite",
            "transferOwnership(address)": "30464"
        },
        "internal": {
            "setNameInternal(string memory,string memory)": "infinite"
        }
    }
}