{
    "contractName": "ERC20Draggable",
    "abi": [
        {
            "inputs": [
                {
                    "internalType": "address",
                    "name": "offerFactory",
                    "type": "address"
                },
                {
                    "internalType": "address",
                    "name": "wrappedToken",
                    "type": "address"
                },
                {
                    "internalType": "uint256",
                    "name": "quorum_",
                    "type": "uint256"
                },
                {
                    "internalType": "uint256",
                    "name": "votePeriod_",
                    "type": "uint256"
                }
            ],
            "stateMutability": "nonpayable",
            "type": "constructor"
        },
        {
            "anonymous": false,
            "inputs": [
                {
                    "indexed": true,
                    "internalType": "address",
                    "name": "owner",
                    "type": "address"
                },
                {
                    "indexed": true,
                    "internalType": "address",
                    "name": "spender",
                    "type": "address"
                },
                {
                    "indexed": false,
                    "internalType": "uint256",
                    "name": "value",
                    "type": "uint256"
                }
            ],
            "name": "Approval",
            "type": "event"
        },
        {
            "anonymous": false,
            "inputs": [
                {
                    "indexed": false,
                    "internalType": "address",
                    "name": "newContractAddress",
                    "type": "address"
                }
            ],
            "name": "MigrationSucceeded",
            "type": "event"
        },
        {
            "anonymous": false,
            "inputs": [
                {
                    "indexed": true,
                    "internalType": "address",
                    "name": "from",
                    "type": "address"
                },
                {
                    "indexed": true,
                    "internalType": "address",
                    "name": "to",
                    "type": "address"
                },
                {
                    "indexed": false,
                    "internalType": "uint256",
                    "name": "value",
                    "type": "uint256"
                }
            ],
            "name": "Transfer",
            "type": "event"
        },
        {
            "inputs": [
                {
                    "internalType": "address",
                    "name": "owner",
                    "type": "address"
                },
                {
                    "internalType": "address",
                    "name": "spender",
                    "type": "address"
                }
            ],
            "name": "allowance",
            "outputs": [
                {
                    "internalType": "uint256",
                    "name": "",
                    "type": "uint256"
                }
            ],
            "stateMutability": "view",
            "type": "function"
        },
        {
            "inputs": [
                {
                    "internalType": "address",
                    "name": "spender",
                    "type": "address"
                },
                {
                    "internalType": "uint256",
                    "name": "value",
                    "type": "uint256"
                }
            ],
            "name": "approve",
            "outputs": [
                {
                    "internalType": "bool",
                    "name": "",
                    "type": "bool"
                }
            ],
            "stateMutability": "nonpayable",
            "type": "function"
        },
        {
            "inputs": [
                {
                    "internalType": "address",
                    "name": "account",
                    "type": "address"
                }
            ],
            "name": "balanceOf",
            "outputs": [
                {
                    "internalType": "uint256",
                    "name": "",
                    "type": "uint256"
                }
            ],
            "stateMutability": "view",
            "type": "function"
        },
        {
            "inputs": [
                {
                    "internalType": "uint256",
                    "name": "amount",
                    "type": "uint256"
                }
            ],
            "name": "burn",
            "outputs": [],
            "stateMutability": "nonpayable",
            "type": "function"
        },
        {
            "inputs": [],
            "name": "decimals",
            "outputs": [
                {
                    "internalType": "uint8",
                    "name": "",
                    "type": "uint8"
                }
            ],
            "stateMutability": "view",
            "type": "function"
        },
        {
            "inputs": [
                {
                    "internalType": "address",
                    "name": "spender",
                    "type": "address"
                },
                {
                    "internalType": "uint256",
                    "name": "subtractedValue",
                    "type": "uint256"
                }
            ],
            "name": "decreaseAllowance",
            "outputs": [
                {
                    "internalType": "bool",
                    "name": "",
                    "type": "bool"
                }
            ],
            "stateMutability": "nonpayable",
            "type": "function"
        },
        {
            "inputs": [
                {
                    "internalType": "address",
                    "name": "buyer",
                    "type": "address"
                },
                {
                    "internalType": "address",
                    "name": "currency",
                    "type": "address"
                }
            ],
            "name": "drag",
            "outputs": [],
            "stateMutability": "nonpayable",
            "type": "function"
        },
        {
            "inputs": [],
            "name": "factory",
            "outputs": [
                {
                    "internalType": "contract IOfferFactory",
                    "name": "",
                    "type": "address"
                }
            ],
            "stateMutability": "view",
            "type": "function"
        },
        {
            "inputs": [
                {
                    "internalType": "address",
                    "name": "spender",
                    "type": "address"
                },
                {
                    "internalType": "uint256",
                    "name": "addedValue",
                    "type": "uint256"
                }
            ],
            "name": "increaseAllowance",
            "outputs": [
                {
                    "internalType": "bool",
                    "name": "",
                    "type": "bool"
                }
            ],
            "stateMutability": "nonpayable",
            "type": "function"
        },
        {
            "inputs": [],
            "name": "isBinding",
            "outputs": [
                {
                    "internalType": "bool",
                    "name": "",
                    "type": "bool"
                }
            ],
            "stateMutability": "view",
            "type": "function"
        },
        {
            "inputs": [
                {
                    "internalType": "bytes32",
                    "name": "salt",
                    "type": "bytes32"
                },
                {
                    "internalType": "uint256",
                    "name": "pricePerShare",
                    "type": "uint256"
                },
                {
                    "internalType": "address",
                    "name": "currency",
                    "type": "address"
                }
            ],
            "name": "makeAcquisitionOffer",
            "outputs": [],
            "stateMutability": "payable",
            "type": "function"
        },
        {
            "inputs": [],
            "name": "migrate",
            "outputs": [],
            "stateMutability": "nonpayable",
            "type": "function"
        },
        {
            "inputs": [],
            "name": "name",
            "outputs": [
                {
                    "internalType": "string",
                    "name": "",
                    "type": "string"
                }
            ],
            "stateMutability": "view",
            "type": "function"
        },
        {
            "inputs": [],
            "name": "notifyOfferEnded",
            "outputs": [],
            "stateMutability": "nonpayable",
            "type": "function"
        },
        {
            "inputs": [],
            "name": "offer",
            "outputs": [
                {
                    "internalType": "contract IOffer",
                    "name": "",
                    "type": "address"
                }
            ],
            "stateMutability": "view",
            "type": "function"
        },
        {
            "inputs": [
                {
                    "internalType": "address",
                    "name": "from",
                    "type": "address"
                },
                {
                    "internalType": "uint256",
                    "name": "amount",
                    "type": "uint256"
                },
                {
                    "internalType": "bytes",
                    "name": "",
                    "type": "bytes"
                }
            ],
            "name": "onTokenTransfer",
            "outputs": [],
            "stateMutability": "nonpayable",
            "type": "function"
        },
        {
            "inputs": [],
            "name": "quorum",
            "outputs": [
                {
                    "internalType": "uint256",
                    "name": "",
                    "type": "uint256"
                }
            ],
            "stateMutability": "view",
            "type": "function"
        },
        {
            "inputs": [],
            "name": "symbol",
            "outputs": [
                {
                    "internalType": "string",
                    "name": "",
                    "type": "string"
                }
            ],
            "stateMutability": "view",
            "type": "function"
        },
        {
            "inputs": [],
            "name": "totalSupply",
            "outputs": [
                {
                    "internalType": "uint256",
                    "name": "",
                    "type": "uint256"
                }
            ],
            "stateMutability": "view",
            "type": "function"
        },
        {
            "inputs": [
                {
                    "internalType": "address",
                    "name": "recipient",
                    "type": "address"
                },
                {
                    "internalType": "uint256",
                    "name": "amount",
                    "type": "uint256"
                }
            ],
            "name": "transfer",
            "outputs": [
                {
                    "internalType": "bool",
                    "name": "",
                    "type": "bool"
                }
            ],
            "stateMutability": "nonpayable",
            "type": "function"
        },
        {
            "inputs": [
                {
                    "internalType": "address",
                    "name": "recipient",
                    "type": "address"
                },
                {
                    "internalType": "uint256",
                    "name": "amount",
                    "type": "uint256"
                },
                {
                    "internalType": "bytes",
                    "name": "data",
                    "type": "bytes"
                }
            ],
            "name": "transferAndCall",
            "outputs": [
                {
                    "internalType": "bool",
                    "name": "",
                    "type": "bool"
                }
            ],
            "stateMutability": "nonpayable",
            "type": "function"
        },
        {
            "inputs": [
                {
                    "internalType": "address",
                    "name": "sender",
                    "type": "address"
                },
                {
                    "internalType": "address",
                    "name": "recipient",
                    "type": "address"
                },
                {
                    "internalType": "uint256",
                    "name": "amount",
                    "type": "uint256"
                }
            ],
            "name": "transferFrom",
            "outputs": [
                {
                    "internalType": "bool",
                    "name": "",
                    "type": "bool"
                }
            ],
            "stateMutability": "nonpayable",
            "type": "function"
        },
        {
            "inputs": [
                {
                    "internalType": "uint256",
                    "name": "amount",
                    "type": "uint256"
                }
            ],
            "name": "unwrap",
            "outputs": [],
            "stateMutability": "nonpayable",
            "type": "function"
        },
        {
            "inputs": [],
            "name": "unwrapConversionFactor",
            "outputs": [
                {
                    "internalType": "uint256",
                    "name": "",
                    "type": "uint256"
                }
            ],
            "stateMutability": "view",
            "type": "function"
        },
        {
            "inputs": [],
            "name": "votePeriod",
            "outputs": [
                {
                    "internalType": "uint256",
                    "name": "",
                    "type": "uint256"
                }
            ],
            "stateMutability": "view",
            "type": "function"
        },
        {
            "inputs": [
                {
                    "internalType": "address",
                    "name": "shareholder",
                    "type": "address"
                },
                {
                    "internalType": "uint256",
                    "name": "amount",
                    "type": "uint256"
                }
            ],
            "name": "wrap",
            "outputs": [],
            "stateMutability": "nonpayable",
            "type": "function"
        },
        {
            "inputs": [],
            "name": "wrapped",
            "outputs": [
                {
                    "internalType": "contract IERC20",
                    "name": "",
                    "type": "address"
                }
            ],
            "stateMutability": "view",
            "type": "function"
        }
    ],
    "bytecode": "608060405260006005553480156200001657600080fd5b50604051620019a4380380620019a483398101604081905262000039916200009e565b60038054600480546001600160a01b0319166001600160a01b039788161790556001600160a81b031916610100949095169390930293909317909155600755600855620000e5565b80516001600160a01b03811681146200009957600080fd5b919050565b60008060008060808587031215620000b4578384fd5b620000bf8562000081565b9350620000cf6020860162000081565b6040860151606090960151949790965092505050565b6118af80620000f56000396000f3fe60806040526004361061019c5760003560e01c80638fd3ab80116100ec578063bf376c7a1161008a578063dcc7d4ad11610064578063dcc7d4ad1461043e578063dd62ed3e14610451578063de0e9a3e14610471578063fcb79a7e146104915761019c565b8063bf376c7a146103f4578063c028df0614610414578063c45a0155146104295761019c565b8063a457c2d7116100c6578063a457c2d71461037f578063a4c0ed361461039f578063a7813587146103bf578063a9059cbb146103d45761019c565b80638fd3ab801461034057806395d89b41146103555780639e4b57451461036a5761019c565b8063313ce567116101595780634000aea0116101335780634000aea0146102be57806342966c68146102de57806350e70d48146102fe57806370a08231146103205761019c565b8063313ce5671461026557806332bc320b14610287578063395093511461029e5761019c565b806306fdde03146101a15780630832e470146101cc578063095ea7b3146101ee5780631703a0181461021b57806318160ddd1461023057806323b872dd14610245575b600080fd5b3480156101ad57600080fd5b506101b66104b1565b6040516101c39190611728565b60405180910390f35b3480156101d857600080fd5b506101e161060d565b6040516101c39190611787565b3480156101fa57600080fd5b5061020e6102093660046113c8565b610613565b6040516101c391906116e8565b34801561022757600080fd5b506101e1610629565b34801561023c57600080fd5b506101e161062f565b34801561025157600080fd5b5061020e610260366004611388565b610635565b34801561027157600080fd5b5061027a610687565b6040516101c39190611790565b34801561029357600080fd5b5061029c610690565b005b3480156102aa57600080fd5b5061020e6102b93660046113c8565b6106b6565b3480156102ca57600080fd5b5061020e6102d93660046113f3565b6106ed565b3480156102ea57600080fd5b5061029c6102f9366004611578565b610770565b34801561030a57600080fd5b50610313610808565b6040516101c3919061164f565b34801561032c57600080fd5b506101e161033b366004611311565b61081c565b34801561034c57600080fd5b5061029c610837565b34801561036157600080fd5b506101b66108de565b34801561037657600080fd5b5061020e610a21565b34801561038b57600080fd5b5061020e61039a3660046113c8565b610a28565b3480156103ab57600080fd5b5061029c6103ba3660046113f3565b610a5f565b3480156103cb57600080fd5b506101e1610a8b565b3480156103e057600080fd5b5061020e6103ef3660046113c8565b610a91565b34801561040057600080fd5b5061029c61040f3660046113c8565b610a9e565b34801561042057600080fd5b50610313610b3f565b34801561043557600080fd5b50610313610b4e565b61029c61044c366004611497565b610b5d565b34801561045d57600080fd5b506101e161046c366004611350565b610d16565b34801561047d57600080fd5b5061029c61048c366004611578565b610d41565b34801561049d57600080fd5b5061029c6104ac366004611350565b610d63565b60606104bb610a21565b1561057057600360019054906101000a90046001600160a01b03166001600160a01b03166306fdde036040518163ffffffff1660e01b815260040160006040518083038186803b15801561050e57600080fd5b505afa158015610522573d6000803e3d6000fd5b505050506040513d6000823e601f3d908101601f1916820160405261054a91908101906114cf565b60405160200161055a91906115ed565b604051602081830303815290604052905061060a565b600360019054906101000a90046001600160a01b03166001600160a01b03166306fdde036040518163ffffffff1660e01b815260040160006040518083038186803b1580156105be57600080fd5b505afa1580156105d2573d6000803e3d6000fd5b505050506040513d6000823e601f3d908101601f191682016040526105fa91908101906114cf565b60405160200161055a919061161f565b90565b60055481565b6000610620338484610d98565b50600192915050565b60075481565b60025490565b6000610642848484610e00565b6001600160a01b03841660009081526001602090815260408083203380855292529091205461067d9186916106789086906117f5565b610d98565b5060019392505050565b60035460ff1681565b6006546001600160a01b03163314156106b457600680546001600160a01b03191690555b565b3360008181526001602090815260408083206001600160a01b0387168452909152812054909161062091859061067890869061179e565b6000806106fa8686610a91565b9050801561076757604051635260769b60e11b81526001600160a01b0387169063a4c0ed36906107349033908990899089906004016116a0565b600060405180830381600087803b15801561074e57600080fd5b505af1158015610762573d6000803e3d6000fd5b505050505b95945050505050565b61077a3382610ebd565b6000610784610a21565b61079057600554610793565b60015b60035490915061010090046001600160a01b03166342966c686107b683856117d6565b6040518263ffffffff1660e01b81526004016107d29190611787565b600060405180830381600087803b1580156107ec57600080fd5b505af1158015610800573d6000803e3d6000fd5b505050505050565b60035461010090046001600160a01b031681565b6001600160a01b031660009081526020819052604090205490565b33610840610f57565b1561084a57600080fd5b61085261062f565b61085e90611f406117d6565b6108678261081c565b610873906127106117d6565b101561089a5760405162461bcd60e51b81526004016108919061175b565b60405180910390fd5b6108a48182610f68565b7f3b6b79a09e9fd230e8591b65c97236bf7df7a604edf733db0658e66b0e6eb2a9816040516108d3919061164f565b60405180910390a150565b60606108e8610a21565b1561098757600360019054906101000a90046001600160a01b03166001600160a01b03166395d89b416040518163ffffffff1660e01b815260040160006040518083038186803b15801561093b57600080fd5b505afa15801561094f573d6000803e3d6000fd5b505050506040513d6000823e601f3d908101601f1916820160405261097791908101906114cf565b60405160200161055a91906115a8565b600360019054906101000a90046001600160a01b03166001600160a01b03166395d89b416040518163ffffffff1660e01b815260040160006040518083038186803b1580156109d557600080fd5b505afa1580156109e9573d6000803e3d6000fd5b505050506040513d6000823e601f3d908101601f19168201604052610a1191908101906114cf565b60405160200161055a91906115d1565b6005541590565b3360008181526001602090815260408083206001600160a01b038716845290915281205490916106209185906106789086906117f5565b60035461010090046001600160a01b03163314610a7b57600080fd5b610a85848461113d565b50505050565b60085481565b6000610620338484610e00565b6003546040516323b872dd60e01b81526101009091046001600160a01b0316906323b872dd90610ad690339030908690600401611663565b602060405180830381600087803b158015610af057600080fd5b505af1158015610b04573d6000803e3d6000fd5b505050506040513d601f19601f82011682018060405250810190610b289190611477565b610b3157600080fd5b610b3b828261113d565b5050565b6006546001600160a01b031681565b6004546001600160a01b031681565b610b65610a21565b610b6e57600080fd5b60048054600754600854604051634dc5e43160e01b81526000946001600160a01b0390941693634dc5e431933493610bb2938b9333938c938c9391929091016116f3565b6020604051808303818588803b158015610bcb57600080fd5b505af1158015610bdf573d6000803e3d6000fd5b50505050506040513d601f19601f82011682018060405250810190610c049190611334565b9050610c0e610f57565b15610cf1576006546040516306a169ed60e01b81526001600160a01b03909116906306a169ed90610c4390849060040161164f565b600060405180830381600087803b158015610c5d57600080fd5b505af1158015610c71573d6000803e3d6000fd5b50505050806001600160a01b0316633f5e3e7f6040518163ffffffff1660e01b8152600401602060405180830381600087803b158015610cb057600080fd5b505af1158015610cc4573d6000803e3d6000fd5b505050506040513d601f19601f82011682018060405250810190610ce89190611477565b610cf157600080fd5b600680546001600160a01b0319166001600160a01b0392909216919091179055505050565b6001600160a01b03918216600090815260016020908152604080832093909416825291909152205490565b610d49610a21565b15610d5357600080fd5b610d6033826005546111de565b50565b6006546001600160a01b03163314610d7a57600080fd5b610d8e82610d878461081c565b60016111de565b610b3b8183610f68565b6001600160a01b0380841660008181526001602090815260408083209487168084529490915290819020849055517f8c5be1e5ebec7d5bd14f71427d1e84f3dd0314c0f7b2291e5b200ac8c7c3b92590610df3908590611787565b60405180910390a3505050565b6001600160a01b038216610e1357600080fd5b610e1e838383611286565b6001600160a01b03831660009081526020819052604081208054839290610e469084906117f5565b90915550506001600160a01b03821660009081526020819052604081208054839290610e7390849061179e565b92505081905550816001600160a01b0316836001600160a01b03167fddf252ad1be2c89b69c2b068fc378daa952ba7f163c4a11628f55a4df523b3ef83604051610df39190611787565b610ec982600083611286565b8060026000828254610edb91906117f5565b90915550506001600160a01b03821660009081526020819052604081208054839290610f089084906117f5565b90915550506040516000906001600160a01b038416907fddf252ad1be2c89b69c2b068fc378daa952ba7f163c4a11628f55a4df523b3ef90610f4b908590611787565b60405180910390a35050565b6006546001600160a01b0316151590565b610f70610a21565b610f7957600080fd5b6003546040516370a0823160e01b81526101009091046001600160a01b03169063a9059cbb90839083906370a0823190610fb790309060040161164f565b60206040518083038186803b158015610fcf57600080fd5b505afa158015610fe3573d6000803e3d6000fd5b505050506040513d601f19601f820116820180604052508101906110079190611590565b6040518363ffffffff1660e01b8152600401611024929190611687565b602060405180830381600087803b15801561103e57600080fd5b505af1158015611052573d6000803e3d6000fd5b505050506040513d601f19601f820116820180604052508101906110769190611477565b61107f57600080fd5b60038054610100600160a81b0319166101006001600160a01b03851602179055610b3b6110aa61062f565b6003546040516370a0823160e01b81526101009091046001600160a01b0316906370a08231906110de90309060040161164f565b60206040518083038186803b1580156110f657600080fd5b505afa15801561110a573d6000803e3d6000fd5b505050506040513d601f19601f8201168201806040525081019061112e9190611590565b61113891906117b6565b6112fe565b6001600160a01b03821661115057600080fd5b61115c60008383611286565b806002600082825461116e919061179e565b90915550506001600160a01b0382166000908152602081905260408120805483929061119b90849061179e565b90915550506040516001600160a01b038316906000907fddf252ad1be2c89b69c2b068fc378daa952ba7f163c4a11628f55a4df523b3ef90610f4b908590611787565b6111e88383610ebd565b60035461010090046001600160a01b031663a9059cbb8461120984866117d6565b6040518363ffffffff1660e01b8152600401611226929190611687565b602060405180830381600087803b15801561124057600080fd5b505af1158015611254573d6000803e3d6000fd5b505050506040513d601f19601f820116820180604052508101906112789190611477565b61128157600080fd5b505050565b61128e610f57565b156112815760065460405163e1a1810f60e01b81526001600160a01b039091169063e1a1810f906112c790869086908690600401611663565b600060405180830381600087803b1580156112e157600080fd5b505af11580156112f5573d6000803e3d6000fd5b50505050505050565b600181101561130c57600080fd5b600555565b600060208284031215611322578081fd5b813561132d81611864565b9392505050565b600060208284031215611345578081fd5b815161132d81611864565b60008060408385031215611362578081fd5b823561136d81611864565b9150602083013561137d81611864565b809150509250929050565b60008060006060848603121561139c578081fd5b83356113a781611864565b925060208401356113b781611864565b929592945050506040919091013590565b600080604083850312156113da578182fd5b82356113e581611864565b946020939093013593505050565b60008060008060608587031215611408578081fd5b843561141381611864565b935060208501359250604085013567ffffffffffffffff80821115611436578283fd5b818701915087601f830112611449578283fd5b813581811115611457578384fd5b886020828501011115611468578384fd5b95989497505060200194505050565b600060208284031215611488578081fd5b8151801515811461132d578182fd5b6000806000606084860312156114ab578283fd5b833592506020840135915060408401356114c481611864565b809150509250925092565b6000602082840312156114e0578081fd5b815167ffffffffffffffff808211156114f7578283fd5b818401915084601f83011261150a578283fd5b81518181111561151c5761151c61184e565b604051601f8201601f19908116603f011681019083821181831017156115445761154461184e565b8160405282815287602084870101111561155c578586fd5b61156d83602083016020880161180c565b979650505050505050565b600060208284031215611589578081fd5b5035919050565b6000602082840312156115a1578081fd5b5051919050565b6000601160fa1b825282516115c481600185016020870161180c565b9190910160010192915050565b6000605760f81b825282516115c481600185016020870161180c565b6000690223930b3b3b0b13632960b51b8252825161161281600a85016020870161180c565b91909101600a0192915050565b60006702bb930b83832b2160c51b8252825161164281600885016020870161180c565b9190910160080192915050565b6001600160a01b0391909116815260200190565b6001600160a01b039384168152919092166020820152604081019190915260600190565b6001600160a01b03929092168252602082015260400190565b6001600160a01b0385168152602081018490526060604082018190528101829052600082846080840137818301608090810191909152601f909201601f191601019392505050565b901515815260200190565b9586526001600160a01b039485166020870152604086019390935292166060840152608083019190915260a082015260c00190565b600060208252825180602084015261174781604085016020870161180c565b601f01601f19169190910160400192915050565b602080825260129082015271145d5bdc9d5b481b9bdd081c995858da195960721b604082015260600190565b90815260200190565b60ff91909116815260200190565b600082198211156117b1576117b1611838565b500190565b6000826117d157634e487b7160e01b81526012600452602481fd5b500490565b60008160001904831182151516156117f0576117f0611838565b500290565b60008282101561180757611807611838565b500390565b60005b8381101561182757818101518382015260200161180f565b83811115610a855750506000910152565b634e487b7160e01b600052601160045260246000fd5b634e487b7160e01b600052604160045260246000fd5b6001600160a01b0381168114610d6057600080fdfea2646970667358221220ba8f3ea154baf7eb6759792cd95c00f83047da0f76033aba8a934c4223be8fc164736f6c63430008010033",
    "sourcePath": "c:/Users/luziu/Documents/aktionariat/contracts/src/ERC20Draggable.sol",
    "compiler": {
        "name": "solc",
        "version": "0.8.1+commit.df193b15"
    },
    "functionHashes": {
        "allowance(address,address)": "dd62ed3e",
        "approve(address,uint256)": "095ea7b3",
        "balanceOf(address)": "70a08231",
        "burn(uint256)": "42966c68",
        "decimals()": "313ce567",
        "decreaseAllowance(address,uint256)": "a457c2d7",
        "drag(address,address)": "fcb79a7e",
        "factory()": "c45a0155",
        "increaseAllowance(address,uint256)": "39509351",
        "isBinding()": "9e4b5745",
        "makeAcquisitionOffer(bytes32,uint256,address)": "dcc7d4ad",
        "migrate()": "8fd3ab80",
        "name()": "06fdde03",
        "notifyOfferEnded()": "32bc320b",
        "offer()": "c028df06",
        "onTokenTransfer(address,uint256,bytes)": "a4c0ed36",
        "quorum()": "1703a018",
        "symbol()": "95d89b41",
        "totalSupply()": "18160ddd",
        "transfer(address,uint256)": "a9059cbb",
        "transferAndCall(address,uint256,bytes)": "4000aea0",
        "transferFrom(address,address,uint256)": "23b872dd",
        "unwrap(uint256)": "de0e9a3e",
        "unwrapConversionFactor()": "0832e470",
        "votePeriod()": "a7813587",
        "wrap(address,uint256)": "bf376c7a",
        "wrapped()": "50e70d48"
    },
    "gasEstimates": {
        "creation": {
            "codeDepositCost": "1263800",
            "executionCost": "infinite",
            "totalCost": "infinite"
        },
        "external": {
            "allowance(address,address)": "infinite",
            "approve(address,uint256)": "22548",
            "balanceOf(address)": "1378",
            "burn(uint256)": "infinite",
            "decimals()": "1092",
            "decreaseAllowance(address,uint256)": "23560",
            "drag(address,address)": "infinite",
            "factory()": "1159",
            "increaseAllowance(address,uint256)": "23608",
            "isBinding()": "1127",
            "makeAcquisitionOffer(bytes32,uint256,address)": "infinite",
            "migrate()": "infinite",
            "name()": "infinite",
            "notifyOfferEnded()": "21885",
            "offer()": "1137",
            "onTokenTransfer(address,uint256,bytes)": "infinite",
            "quorum()": "1118",
            "symbol()": "infinite",
            "totalSupply()": "1140",
            "transfer(address,uint256)": "infinite",
            "transferAndCall(address,uint256,bytes)": "infinite",
            "transferFrom(address,address,uint256)": "infinite",
            "unwrap(uint256)": "infinite",
            "unwrapConversionFactor()": "1074",
            "votePeriod()": "1117",
            "wrap(address,uint256)": "infinite",
            "wrapped()": "1170"
        },
        "internal": {
            "_beforeTokenTransfer(address,address,uint256)": "infinite",
            "deactivate(uint256)": "20038",
            "offerExists()": "839",
            "replaceWrapped(address,address)": "infinite",
            "unwrap(address,uint256,uint256)": "infinite"
        }
    }
}