{
    "contractName": "ERC20Draggable",
    "abi": [
        {
            "inputs": [
                {
                    "internalType": "address",
                    "name": "wrappedToken",
                    "type": "address"
                },
                {
                    "internalType": "uint256",
                    "name": "migrationQuorumInBIPS_",
                    "type": "uint256"
                },
                {
                    "internalType": "uint256",
                    "name": "acquisitionQuorum_",
                    "type": "uint256"
                },
                {
                    "internalType": "address",
                    "name": "currencyAddress",
                    "type": "address"
                }
            ],
            "stateMutability": "nonpayable",
            "type": "constructor"
        },
        {
            "anonymous": false,
            "inputs": [
                {
                    "indexed": true,
                    "internalType": "address",
                    "name": "owner",
                    "type": "address"
                },
                {
                    "indexed": true,
                    "internalType": "address",
                    "name": "spender",
                    "type": "address"
                },
                {
                    "indexed": false,
                    "internalType": "uint256",
                    "name": "value",
                    "type": "uint256"
                }
            ],
            "name": "Approval",
            "type": "event"
        },
        {
            "anonymous": false,
            "inputs": [
                {
                    "indexed": false,
                    "internalType": "address",
                    "name": "newContractAddress",
                    "type": "address"
                }
            ],
            "name": "MigrationSucceeded",
            "type": "event"
        },
        {
            "anonymous": false,
            "inputs": [
                {
                    "indexed": true,
                    "internalType": "address",
                    "name": "buyer",
                    "type": "address"
                },
                {
                    "indexed": false,
                    "internalType": "uint256",
                    "name": "pricePerShare",
                    "type": "uint256"
                },
                {
                    "indexed": false,
                    "internalType": "address",
                    "name": "offerContract",
                    "type": "address"
                }
            ],
            "name": "OfferCreated",
            "type": "event"
        },
        {
            "anonymous": false,
            "inputs": [
                {
                    "indexed": true,
                    "internalType": "address",
                    "name": "buyer",
                    "type": "address"
                },
                {
                    "indexed": false,
                    "internalType": "address",
                    "name": "sender",
                    "type": "address"
                },
                {
                    "indexed": false,
                    "internalType": "bool",
                    "name": "success",
                    "type": "bool"
                },
                {
                    "indexed": false,
                    "internalType": "string",
                    "name": "message",
                    "type": "string"
                },
                {
                    "indexed": false,
                    "internalType": "address",
                    "name": "offerContract",
                    "type": "address"
                }
            ],
            "name": "OfferEnded",
            "type": "event"
        },
        {
            "anonymous": false,
            "inputs": [
                {
                    "indexed": true,
                    "internalType": "address",
                    "name": "from",
                    "type": "address"
                },
                {
                    "indexed": true,
                    "internalType": "address",
                    "name": "to",
                    "type": "address"
                },
                {
                    "indexed": false,
                    "internalType": "uint256",
                    "name": "value",
                    "type": "uint256"
                }
            ],
            "name": "Transfer",
            "type": "event"
        },
        {
            "inputs": [],
            "name": "acquisitionQuorum",
            "outputs": [
                {
                    "internalType": "uint256",
                    "name": "",
                    "type": "uint256"
                }
            ],
            "stateMutability": "view",
            "type": "function"
        },
        {
            "inputs": [],
            "name": "active",
            "outputs": [
                {
                    "internalType": "bool",
                    "name": "",
                    "type": "bool"
                }
            ],
            "stateMutability": "view",
            "type": "function"
        },
        {
            "inputs": [
                {
                    "internalType": "address",
                    "name": "owner",
                    "type": "address"
                },
                {
                    "internalType": "address",
                    "name": "spender",
                    "type": "address"
                }
            ],
            "name": "allowance",
            "outputs": [
                {
                    "internalType": "uint256",
                    "name": "",
                    "type": "uint256"
                }
            ],
            "stateMutability": "view",
            "type": "function"
        },
        {
            "inputs": [
                {
                    "internalType": "address",
                    "name": "spender",
                    "type": "address"
                },
                {
                    "internalType": "uint256",
                    "name": "value",
                    "type": "uint256"
                }
            ],
            "name": "approve",
            "outputs": [
                {
                    "internalType": "bool",
                    "name": "",
                    "type": "bool"
                }
            ],
            "stateMutability": "nonpayable",
            "type": "function"
        },
        {
            "inputs": [
                {
                    "internalType": "address",
                    "name": "account",
                    "type": "address"
                }
            ],
            "name": "balanceOf",
            "outputs": [
                {
                    "internalType": "uint256",
                    "name": "",
                    "type": "uint256"
                }
            ],
            "stateMutability": "view",
            "type": "function"
        },
        {
            "inputs": [
                {
                    "internalType": "uint256",
                    "name": "amount",
                    "type": "uint256"
                }
            ],
            "name": "burn",
            "outputs": [],
            "stateMutability": "nonpayable",
            "type": "function"
        },
        {
            "inputs": [],
            "name": "cancelAcquisition",
            "outputs": [],
            "stateMutability": "nonpayable",
            "type": "function"
        },
        {
            "inputs": [],
            "name": "completeAcquisition",
            "outputs": [],
            "stateMutability": "nonpayable",
            "type": "function"
        },
        {
            "inputs": [],
            "name": "contestAcquisition",
            "outputs": [],
            "stateMutability": "nonpayable",
            "type": "function"
        },
        {
            "inputs": [],
            "name": "decimals",
            "outputs": [
                {
                    "internalType": "uint8",
                    "name": "",
                    "type": "uint8"
                }
            ],
            "stateMutability": "view",
            "type": "function"
        },
        {
            "inputs": [
                {
                    "internalType": "address",
                    "name": "spender",
                    "type": "address"
                },
                {
                    "internalType": "uint256",
                    "name": "subtractedValue",
                    "type": "uint256"
                }
            ],
            "name": "decreaseAllowance",
            "outputs": [
                {
                    "internalType": "bool",
                    "name": "",
                    "type": "bool"
                }
            ],
            "stateMutability": "nonpayable",
            "type": "function"
        },
        {
            "inputs": [],
            "name": "getCurrencyContract",
            "outputs": [
                {
                    "internalType": "address",
                    "name": "",
                    "type": "address"
                }
            ],
            "stateMutability": "view",
            "type": "function"
        },
        {
            "inputs": [],
            "name": "getPendingOffer",
            "outputs": [
                {
                    "internalType": "address",
                    "name": "",
                    "type": "address"
                }
            ],
            "stateMutability": "view",
            "type": "function"
        },
        {
            "inputs": [],
            "name": "getWrappedContract",
            "outputs": [
                {
                    "internalType": "address",
                    "name": "",
                    "type": "address"
                }
            ],
            "stateMutability": "view",
            "type": "function"
        },
        {
            "inputs": [
                {
                    "internalType": "address",
                    "name": "spender",
                    "type": "address"
                },
                {
                    "internalType": "uint256",
                    "name": "addedValue",
                    "type": "uint256"
                }
            ],
            "name": "increaseAllowance",
            "outputs": [
                {
                    "internalType": "bool",
                    "name": "",
                    "type": "bool"
                }
            ],
            "stateMutability": "nonpayable",
            "type": "function"
        },
        {
            "inputs": [
                {
                    "internalType": "uint256",
                    "name": "pricePerShare",
                    "type": "uint256"
                }
            ],
            "name": "initiateAcquisition",
            "outputs": [],
            "stateMutability": "nonpayable",
            "type": "function"
        },
        {
            "inputs": [],
            "name": "licenseFee",
            "outputs": [
                {
                    "internalType": "uint256",
                    "name": "",
                    "type": "uint256"
                }
            ],
            "stateMutability": "view",
            "type": "function"
        },
        {
            "inputs": [],
            "name": "licenseFeeRecipient",
            "outputs": [
                {
                    "internalType": "address",
                    "name": "",
                    "type": "address"
                }
            ],
            "stateMutability": "view",
            "type": "function"
        },
        {
            "inputs": [],
            "name": "migrate",
            "outputs": [],
            "stateMutability": "nonpayable",
            "type": "function"
        },
        {
            "inputs": [],
            "name": "migrationQuorum",
            "outputs": [
                {
                    "internalType": "uint256",
                    "name": "",
                    "type": "uint256"
                }
            ],
            "stateMutability": "view",
            "type": "function"
        },
        {
            "inputs": [],
            "name": "name",
            "outputs": [
                {
                    "internalType": "string",
                    "name": "",
                    "type": "string"
                }
            ],
            "stateMutability": "view",
            "type": "function"
        },
        {
            "inputs": [],
            "name": "offer",
            "outputs": [
                {
                    "internalType": "contract Acquisition",
                    "name": "",
                    "type": "address"
                }
            ],
            "stateMutability": "view",
            "type": "function"
        },
        {
            "inputs": [],
            "name": "offerExists",
            "outputs": [
                {
                    "internalType": "bool",
                    "name": "",
                    "type": "bool"
                }
            ],
            "stateMutability": "view",
            "type": "function"
        },
        {
            "inputs": [
                {
                    "internalType": "address",
                    "name": "from",
                    "type": "address"
                },
                {
                    "internalType": "uint256",
                    "name": "amount",
                    "type": "uint256"
                },
                {
                    "internalType": "bytes",
                    "name": "",
                    "type": "bytes"
                }
            ],
            "name": "onTokenTransfer",
            "outputs": [],
            "stateMutability": "nonpayable",
            "type": "function"
        },
        {
            "inputs": [],
            "name": "symbol",
            "outputs": [
                {
                    "internalType": "string",
                    "name": "",
                    "type": "string"
                }
            ],
            "stateMutability": "view",
            "type": "function"
        },
        {
            "inputs": [],
            "name": "totalSupply",
            "outputs": [
                {
                    "internalType": "uint256",
                    "name": "",
                    "type": "uint256"
                }
            ],
            "stateMutability": "view",
            "type": "function"
        },
        {
            "inputs": [
                {
                    "internalType": "address",
                    "name": "recipient",
                    "type": "address"
                },
                {
                    "internalType": "uint256",
                    "name": "amount",
                    "type": "uint256"
                }
            ],
            "name": "transfer",
            "outputs": [
                {
                    "internalType": "bool",
                    "name": "",
                    "type": "bool"
                }
            ],
            "stateMutability": "nonpayable",
            "type": "function"
        },
        {
            "inputs": [
                {
                    "internalType": "address",
                    "name": "recipient",
                    "type": "address"
                },
                {
                    "internalType": "uint256",
                    "name": "amount",
                    "type": "uint256"
                },
                {
                    "internalType": "bytes",
                    "name": "data",
                    "type": "bytes"
                }
            ],
            "name": "transferAndCall",
            "outputs": [
                {
                    "internalType": "bool",
                    "name": "",
                    "type": "bool"
                }
            ],
            "stateMutability": "nonpayable",
            "type": "function"
        },
        {
            "inputs": [
                {
                    "internalType": "address",
                    "name": "sender",
                    "type": "address"
                },
                {
                    "internalType": "address",
                    "name": "recipient",
                    "type": "address"
                },
                {
                    "internalType": "uint256",
                    "name": "amount",
                    "type": "uint256"
                }
            ],
            "name": "transferFrom",
            "outputs": [
                {
                    "internalType": "bool",
                    "name": "",
                    "type": "bool"
                }
            ],
            "stateMutability": "nonpayable",
            "type": "function"
        },
        {
            "inputs": [
                {
                    "internalType": "uint256",
                    "name": "amount",
                    "type": "uint256"
                }
            ],
            "name": "unwrap",
            "outputs": [],
            "stateMutability": "nonpayable",
            "type": "function"
        },
        {
            "inputs": [],
            "name": "unwrapConversionFactor",
            "outputs": [
                {
                    "internalType": "uint256",
                    "name": "",
                    "type": "uint256"
                }
            ],
            "stateMutability": "view",
            "type": "function"
        },
        {
            "inputs": [
                {
                    "internalType": "address",
                    "name": "newCurrency",
                    "type": "address"
                }
            ],
            "name": "updateCurrency",
            "outputs": [],
            "stateMutability": "nonpayable",
            "type": "function"
        },
        {
            "inputs": [],
            "name": "voteNo",
            "outputs": [],
            "stateMutability": "nonpayable",
            "type": "function"
        },
        {
            "inputs": [],
            "name": "voteYes",
            "outputs": [],
            "stateMutability": "nonpayable",
            "type": "function"
        },
        {
            "inputs": [],
            "name": "wasAcquired",
            "outputs": [
                {
                    "internalType": "bool",
                    "name": "",
                    "type": "bool"
                }
            ],
            "stateMutability": "view",
            "type": "function"
        },
        {
            "inputs": [
                {
                    "internalType": "address",
                    "name": "shareholder",
                    "type": "address"
                },
                {
                    "internalType": "uint256",
                    "name": "amount",
                    "type": "uint256"
                }
            ],
            "name": "wrap",
            "outputs": [],
            "stateMutability": "nonpayable",
            "type": "function"
        }
    ],
    "bytecode": "608060405260016004819055600b805460ff191690911790553480156200002557600080fd5b5060405162003ece38038062003ece833981810160405260808110156200004b57600080fd5b508051602080830151604080850151606090950151600380546001600160a81b0319166101006001600160a01b0380891691820292909217909255600780547329fe8914e76da5ce2d90de98a64d0055f199d06d6001600160a01b03199182161790915569010f0cf064dd592000006008556009869055600a899055600680549091169184169190911790558251633a98ef3960e01b8152925195969395939491939092633a98ef399260048281019391928290030181600087803b1580156200011457600080fd5b505af115801562000129573d6000803e3d6000fd5b505050506040513d60208110156200014057600080fd5b505050505050613d7880620001566000396000f3fe60806040523480156200001157600080fd5b5060043610620002505760003560e01c806370a082311162000141578063bb68947211620000bd578063dd62ed3e1162000087578063dd62ed3e14620006ad578063de0e9a3e14620006de578063de49468514620006fe578063e1b8c38e1462000708578063ec6580e214620007125762000250565b8063bb6894721462000660578063bc1b1e7c146200066a578063bf376c7a1462000674578063c028df0614620006a35762000250565b80639e8a9a5a116200010b5780639e8a9a5a1462000565578063a457c2d7146200056f578063a4c0ed36146200059e578063a9059cbb1462000627578063a9d9d0c714620006565762000250565b806370a08231146200051e5780638fd3ab80146200054757806390cf581c146200055157806395d89b41146200055b5762000250565b80633950935111620001d15780634900ca51116200019b5780634900ca51146200049b5780635804791314620004bb5780635e02760114620004e15780636467c09a146200050a5780636f4b18df14620005145762000250565b80633950935114620003b95780634000aea014620003e857806341c12a70146200047157806342966c68146200047b5762000250565b8063141c7068116200021f578063141c7068146200034057806318160ddd146200034c57806323b872dd1462000356578063313ce567146200038f5780633549788a14620003af5762000250565b806302fb0c5e146200025557806306fdde0314620002735780630832e47014620002f5578063095ea7b31462000311575b600080fd5b6200025f6200071c565b604080519115158252519081900360200190f35b6200027d62000725565b6040805160208082528351818301528351919283929083019185019080838360005b83811015620002b95781810151838201526020016200029f565b50505050905090810190601f168015620002e75780820380516001836020036101000a031916815260200191505b509250505060405180910390f35b620002ff620008eb565b60408051918252519081900360200190f35b6200025f600480360360408110156200032957600080fd5b506001600160a01b038135169060200135620008f1565b6200034a6200090a565b005b620002ff62000cfa565b6200025f600480360360608110156200036e57600080fd5b506001600160a01b0381358116916020810135909116906040013562000d00565b6200039962000d57565b6040805160ff9092168252519081900360200190f35b620002ff62000d60565b6200025f60048036036040811015620003d157600080fd5b506001600160a01b03813516906020013562000d66565b6200025f600480360360608110156200040057600080fd5b6001600160a01b0382351691602081013591810190606081016040820135600160201b8111156200043057600080fd5b8201836020820111156200044357600080fd5b803590602001918460018302840111600160201b831117156200046557600080fd5b50909250905062000d9f565b6200034a62000e66565b6200034a600480360360208110156200049357600080fd5b503562000f42565b6200034a60048036036020811015620004b357600080fd5b503562000fb4565b620004c5620014e8565b604080516001600160a01b039092168252519081900360200190f35b6200034a60048036036020811015620004f957600080fd5b50356001600160a01b0316620014fc565b620004c5620016a0565b6200034a620016af565b620002ff600480360360208110156200053657600080fd5b50356001600160a01b031662001a0b565b6200034a62001a26565b6200034a62001cbb565b6200027d62001d34565b620002ff62001eb7565b6200025f600480360360408110156200058757600080fd5b506001600160a01b03813516906020013562001ebd565b6200034a60048036036060811015620005b657600080fd5b6001600160a01b0382351691602081013591810190606081016040820135600160201b811115620005e657600080fd5b820183602082011115620005f957600080fd5b803590602001918460018302840111600160201b831117156200061b57600080fd5b50909250905062001ef6565b6200025f600480360360408110156200063f57600080fd5b506001600160a01b03813516906020013562001f25565b620002ff62001f34565b620004c562001f3a565b6200025f62001f49565b6200034a600480360360408110156200068c57600080fd5b506001600160a01b03813516906020013562001f66565b620004c5620020a5565b620002ff60048036036040811015620006c557600080fd5b506001600160a01b0381358116916020013516620020b4565b6200034a60048036036020811015620006f657600080fd5b5035620020df565b620004c56200222d565b6200034a6200223c565b6200025f62002390565b600b5460ff1681565b6060600360019054906101000a90046001600160a01b03166001600160a01b03166306fdde036040518163ffffffff1660e01b815260040160006040518083038186803b1580156200077657600080fd5b505afa1580156200078b573d6000803e3d6000fd5b505050506040513d6000823e601f3d908101601f191682016040526020811015620007b557600080fd5b8101908080516040519392919084600160201b821115620007d557600080fd5b908301906020820185811115620007eb57600080fd5b8251600160201b8111828201881017156200080557600080fd5b82525081516020918201929091019080838360005b83811015620008345781810151838201526020016200081a565b50505050905090810190601f168015620008625780820380516001836020036101000a031916815260200191505b506040525050506040516020018080690223930b3b3b0b13632960b51b815250600a0182805190602001908083835b60208310620008b25780518252601f19909201916020918201910162000891565b6001836020036101000a038019825116818451168082178552505050505050905001915050604051602081830303815290604052905090565b60045481565b600062000900338484620023b6565b5060015b92915050565b6200091462001f49565b8015620009235750600b5460ff165b62000964576040805162461bcd60e51b8152602060048201526019602482015260008051602062003c19833981519152604482015290519081900360640190fd5b600554604080516338a86c5760e11b815290516000926001600160a01b031691637150d8ae916004808301926020929190829003018186803b158015620009aa57600080fd5b505afa158015620009bf573d6000803e3d6000fd5b505050506040513d6020811015620009d657600080fd5b50519050336001600160a01b0382161462000a235760405162461bcd60e51b815260040180806020018281038252603981526020018062003cd16039913960400191505060405180910390fd5b600560009054906101000a90046001600160a01b03166001600160a01b031663d7be4e296040518163ffffffff1660e01b815260040160206040518083038186803b15801562000a7257600080fd5b505afa15801562000a87573d6000803e3d6000fd5b505050506040513d602081101562000a9e57600080fd5b505162000af2576040805162461bcd60e51b815260206004820181905260248201527f496e73756666696369656e74206e756d626572206f662079657320766f746573604482015290519081900360640190fd5b6005546001600160a01b0316639890f82462000b0d6200222d565b62000b2d62000b1c8562001a0b565b62000b2662000cfa565b90620024a6565b6040518363ffffffff1660e01b815260040180836001600160a01b031681526020018281526020019250505060206040518083038186803b15801562000b7257600080fd5b505afa15801562000b87573d6000803e3d6000fd5b505050506040513d602081101562000b9e57600080fd5b505162000bf2576040805162461bcd60e51b815260206004820152601b60248201527f4f6666657220696e73756666696369656e746c792066756e6465640000000000604482015290519081900360640190fd5b6006546005546040805163501ad8ff60e11b8152905162000c799385936001600160a01b039182169391169163a035b1fe91600480820192602092909190829003018186803b15801562000c4557600080fd5b505afa15801562000c5a573d6000803e3d6000fd5b505050506040513d602081101562000c7157600080fd5b5051620024b9565b60055460408051338152600160208201526001600160a01b039283166060820152608081830181905260169082015275436f6d706c65746564207375636365737366756c6c7960501b60a08201529051918316917fc88f58ae9feb0742d9422f604dd3c1be6d02818f8dec340c5061f428b554e9759181900360c00190a250565b60025490565b600062000d0f848484620026fb565b6001600160a01b03841660009081526001602090815260408083203380855292529091205462000d4d91869162000d479086620024a6565b620023b6565b5060019392505050565b60035460ff1681565b600a5481565b3360008181526001602090815260408083206001600160a01b038716845290915281205490916200090091859062000d479086620027a4565b60008062000dae868662001f25565b9050801562000e5d57856001600160a01b031663a4c0ed36338787876040518563ffffffff1660e01b815260040180856001600160a01b03168152602001848152602001806020018281038252848482818152602001925080828437600081840152601f19601f82011690508083019250505095505050505050600060405180830381600087803b15801562000e4357600080fd5b505af115801562000e58573d6000803e3d6000fd5b505050505b95945050505050565b62000e7062001f49565b801562000e7f5750600b5460ff165b62000ec0576040805162461bcd60e51b8152602060048201526019602482015260008051602062003c19833981519152604482015290519081900360640190fd5b60055433906001600160a01b0316634b91562e8262000edf8162001a0b565b6040518363ffffffff1660e01b815260040180836001600160a01b0316815260200182815260200192505050600060405180830381600087803b15801562000f2657600080fd5b505af115801562000f3b573d6000803e3d6000fd5b5050505050565b62000f4e3382620027b2565b62000f58620014e8565b6001600160a01b03166342966c6862000f7d60045484620028ac90919063ffffffff16565b6040518263ffffffff1660e01b815260040180828152602001915050600060405180830381600087803b15801562000f2657600080fd5b600b5460ff166200100c576040805162461bcd60e51b815260206004820152601860248201527f416e206163636570746564206f66666572206578697374730000000000000000604482015290519081900360640190fd5b600062001018620014e8565b6001600160a01b0316633a98ef396040518163ffffffff1660e01b8152600401602060405180830381600087803b1580156200105357600080fd5b505af115801562001068573d6000803e3d6000fd5b505050506040513d60208110156200107f57600080fd5b5051905033620010a06127106200109984610bb8620028ac565b90620028d5565b620010aa62000cfa565b1015620010e95760405162461bcd60e51b815260040180806020018281038252602e81526020018062003c7f602e913960400191505060405180910390fd5b620010fe61271062001099846101f4620028ac565b620011098262001a0b565b1015620011485760405162461bcd60e51b815260040180806020018281038252603981526020018062003d0a6039913960400191505060405180910390fd5b600654600754600854604080516323b872dd60e01b81526001600160a01b038681166004830152938416602482015260448101929092525191909216916323b872dd9160648083019260209291908290030181600087803b158015620011ad57600080fd5b505af1158015620011c2573d6000803e3d6000fd5b505050506040513d6020811015620011d957600080fd5b50516200122d576040805162461bcd60e51b815260206004820152601860248201527f43757272656e6379207472616e73666572206661696c65640000000000000000604482015290519081900360640190fd5b60003384600a54604051620012429062002ef4565b80846001600160a01b031681526020018381526020018281526020019350505050604051809103906000f08015801562001280573d6000803e3d6000fd5b509050806001600160a01b0316639890f8246200129c6200222d565b620012a78562001a0b565b620012b162000cfa565b036040518363ffffffff1660e01b815260040180836001600160a01b031681526020018281526020019250505060206040518083038186803b158015620012f757600080fd5b505afa1580156200130c573d6000803e3d6000fd5b505050506040513d60208110156200132357600080fd5b50516200136e576040805162461bcd60e51b8152602060048201526014602482015273496e73756666696369656e742066756e64696e6760601b604482015290519081900360640190fd5b6200137862001f49565b1562001474576200141061271062001099612904600560009054906101000a90046001600160a01b03166001600160a01b031663a035b1fe6040518163ffffffff1660e01b815260040160206040518083038186803b158015620013db57600080fd5b505afa158015620013f0573d6000803e3d6000fd5b505050506040513d60208110156200140757600080fd5b505190620028ac565b841015620014505760405162461bcd60e51b815260040180806020018281038252603c81526020018062003bdd603c913960400191505060405180910390fd5b6200147460405180606001604052806022815260200162003b0b60229139620028e9565b600580546001600160a01b0319166001600160a01b038381169190911790915582167f9c00f159b1fa9eaebda7acaf50be0bf3a652277380f907b35cb681bd641a62d385620014c2620016a0565b604080519283526001600160a01b0390911660208301528051918290030190a250505050565b60035461010090046001600160a01b031690565b6200150662001f49565b1562001554576040805162461bcd60e51b81526020600482015260186024820152772a3432b9329034b99030903832b73234b7339037b33332b960411b604482015290519081900360640190fd5b600b5460ff16620015a5576040805162461bcd60e51b8152602060048201526016602482015275436f6e7472616374206973206e6f742061637469766560501b604482015290519081900360640190fd5b806001600160a01b0316620015b96200222d565b6001600160a01b031663ee5554d36040518163ffffffff1660e01b8152600401602060405180830381600087803b158015620015f457600080fd5b505af115801562001609573d6000803e3d6000fd5b505050506040513d60208110156200162057600080fd5b50516001600160a01b0316146200167e576040805162461bcd60e51b815260206004820152601760248201527f496e76616c69642063757272656e637920757064617465000000000000000000604482015290519081900360640190fd5b600680546001600160a01b0319166001600160a01b0392909216919091179055565b6005546001600160a01b031690565b620016b962001f49565b8015620016c85750600b5460ff165b62001709576040805162461bcd60e51b8152602060048201526019602482015260008051602062003c19833981519152604482015290519081900360640190fd5b600560009054906101000a90046001600160a01b03166001600160a01b03166390e64d136040518163ffffffff1660e01b815260040160206040518083038186803b1580156200175857600080fd5b505afa1580156200176d573d6000803e3d6000fd5b505050506040513d60208110156200178457600080fd5b505115620017c257620017bc6040518060400160405280600d81526020016c13d999995c88195e1c1a5c9959609a1b815250620028e9565b62001a09565b600560009054906101000a90046001600160a01b03166001600160a01b031663cf42a9276040518163ffffffff1660e01b815260040160206040518083038186803b1580156200181157600080fd5b505afa15801562001826573d6000803e3d6000fd5b505050506040513d60208110156200183d57600080fd5b5051156200187a57620017bc60405180604001604052806012815260200171139bdd08195b9bdd59da081cdd5c1c1bdc9d60721b815250620028e9565b6005546001600160a01b0316639890f824620018956200222d565b6200192062000b1c600560009054906101000a90046001600160a01b03166001600160a01b0316637150d8ae6040518163ffffffff1660e01b815260040160206040518083038186803b158015620018ec57600080fd5b505afa15801562001901573d6000803e3d6000fd5b505050506040513d60208110156200191857600080fd5b505162001a0b565b6040518363ffffffff1660e01b815260040180836001600160a01b031681526020018281526020019250505060206040518083038186803b1580156200196557600080fd5b505afa1580156200197a573d6000803e3d6000fd5b505050506040513d60208110156200199157600080fd5b5051620019bc57620017bc60405180606001604052806021815260200162003b4f60219139620028e9565b6040805162461bcd60e51b815260206004820181905260248201527f4163717569736974696f6e20636f6e7465737420756e7375636365737366756c604482015290519081900360640190fd5b565b6001600160a01b031660009081526020819052604090205490565b600b5460ff1662001a77576040805162461bcd60e51b8152602060048201526016602482015275436f6e7472616374206973206e6f742061637469766560501b604482015290519081900360640190fd5b600033905062001a9b6127106200109960095462001a9462000cfa565b90620028ac565b62001aa68262001a0b565b101562001aef576040805162461bcd60e51b8152602060048201526012602482015271145d5bdc9d5b481b9bdd081c995858da195960721b604482015290519081900360640190fd5b62001af962001f49565b1562001c6e57600560009054906101000a90046001600160a01b03166001600160a01b031663cf42a9276040518163ffffffff1660e01b815260040160206040518083038186803b15801562001b4e57600080fd5b505afa15801562001b63573d6000803e3d6000fd5b505050506040513d602081101562001b7a57600080fd5b505162001c525762001b8b62000e66565b600560009054906101000a90046001600160a01b03166001600160a01b031663cf42a9276040518163ffffffff1660e01b815260040160206040518083038186803b15801562001bda57600080fd5b505afa15801562001bef573d6000803e3d6000fd5b505050506040513d602081101562001c0657600080fd5b505162001c52576040805162461bcd60e51b8152602060048201526015602482015274145d5bdc9d5b481a185cc81b9bdd0819985a5b1959605a1b604482015290519081900360640190fd5b62001c5c620016af565b62001c6662001f49565b1562001c6e57fe5b62001c7c81826001620024b9565b604080516001600160a01b038316815290517f3b6b79a09e9fd230e8591b65c97236bf7df7a604edf733db0658e66b0e6eb2a99181900360200190a150565b62001cc562001f49565b801562001cd45750600b5460ff165b62001d15576040805162461bcd60e51b8152602060048201526019602482015260008051602062003c19833981519152604482015290519081900360640190fd5b60055433906001600160a01b0316635ff0cf848262000edf8162001a0b565b6060600360019054906101000a90046001600160a01b03166001600160a01b03166395d89b416040518163ffffffff1660e01b815260040160006040518083038186803b15801562001d8557600080fd5b505afa15801562001d9a573d6000803e3d6000fd5b505050506040513d6000823e601f3d908101601f19168201604052602081101562001dc457600080fd5b8101908080516040519392919084600160201b82111562001de457600080fd5b90830190602082018581111562001dfa57600080fd5b8251600160201b81118282018810171562001e1457600080fd5b82525081516020918201929091019080838360005b8381101562001e4357818101518382015260200162001e29565b50505050905090810190601f16801562001e715780820380516001836020036101000a031916815260200191505b506040525050506040516020018080601160fa1b815250600101828051906020019080838360208310620008b25780518252601f19909201916020918201910162000891565b60095481565b3360008181526001602090815260408083206001600160a01b038716845290915281205490916200090091859062000d479086620024a6565b60035461010090046001600160a01b0316331462001f1357600080fd5b62001f1f848462002ab9565b50505050565b600062000900338484620026fb565b60085481565b6007546001600160a01b031681565b60008062001f56620016a0565b6001600160a01b03161415905090565b62001f7062001f49565b1562001fbe576040805162461bcd60e51b81526020600482015260186024820152772a3432b9329034b99030903832b73234b7339037b33332b960411b604482015290519081900360640190fd5b600354604080516323b872dd60e01b81523360048201523060248201526044810184905290516101009092046001600160a01b0316916323b872dd916064808201926020929091908290030181600087803b1580156200201d57600080fd5b505af115801562002032573d6000803e3d6000fd5b505050506040513d60208110156200204957600080fd5b505162002095576040805162461bcd60e51b815260206004820152601560248201527414da185c99481d1c985b9cd9995c8819985a5b1959605a1b604482015290519081900360640190fd5b620020a1828262002ab9565b5050565b6005546001600160a01b031681565b6001600160a01b03918216600090815260016020908152604080832093909416825291909152205490565b600b5460ff1615620021235760405162461bcd60e51b815260040180806020018281038252603681526020018062003b706036913960400191505060405180910390fd5b6200212f3382620027b2565b600360019054906101000a90046001600160a01b03166001600160a01b031663a9059cbb336200216b60045485620028ac90919063ffffffff16565b6040518363ffffffff1660e01b815260040180836001600160a01b0316815260200182815260200192505050602060405180830381600087803b158015620021b257600080fd5b505af1158015620021c7573d6000803e3d6000fd5b505050506040513d6020811015620021de57600080fd5b50516200222a576040805162461bcd60e51b815260206004820152601560248201527414da185c99481d1c985b9cd9995c8819985a5b1959605a1b604482015290519081900360640190fd5b50565b6006546001600160a01b031690565b6200224662001f49565b8015620022555750600b5460ff165b62002296576040805162461bcd60e51b8152602060048201526019602482015260008051602062003c19833981519152604482015290519081900360640190fd5b600560009054906101000a90046001600160a01b03166001600160a01b0316637150d8ae6040518163ffffffff1660e01b815260040160206040518083038186803b158015620022e557600080fd5b505afa158015620022fa573d6000803e3d6000fd5b505050506040513d60208110156200231157600080fd5b50516001600160a01b031633146200235b5760405162461bcd60e51b815260040180806020018281038252603781526020018062003ba66037913960400191505060405180910390fd5b62001a096040518060400160405280601281526020017121b0b731b2b63632b210313c90313abcb2b960711b815250620028e9565b60006200239c62001f49565b620023a9576000620023b1565b600b5460ff16155b905090565b6001600160a01b038316620023fd5760405162461bcd60e51b815260040180806020018281038252602481526020018062003cad6024913960400191505060405180910390fd5b6001600160a01b038216620024445760405162461bcd60e51b815260040180806020018281038252602281526020018062003b2d6022913960400191505060405180910390fd5b6001600160a01b03808416600081815260016020908152604080832094871680845294825291829020859055815185815291517f8c5be1e5ebec7d5bd14f71427d1e84f3dd0314c0f7b2291e5b200ac8c7c3b9259281900390910190a3505050565b600082821115620024b357fe5b50900390565b6000620024c68462001a0b565b90506000620024d462000cfa565b600b805460ff191690559050620024eb82620020df565b6000620024f98284620024a6565b6003546040805163a9059cbb60e01b81526001600160a01b038a81166004830152602482018590529151939450610100909204169163a9059cbb916044808201926020929091908290030181600087803b1580156200255757600080fd5b505af11580156200256c573d6000803e3d6000fd5b505050506040513d60208110156200258357600080fd5b5051620025d7576040805162461bcd60e51b815260206004820152601d60248201527f5772617070656420746f6b656e207472616e73666572206661696c6564000000604482015290519081900360640190fd5b6001600160a01b0385166323b872dd8730620025f48886620028ac565b6040518463ffffffff1660e01b815260040180846001600160a01b03168152602001836001600160a01b031681526020018281526020019350505050602060405180830381600087803b1580156200264b57600080fd5b505af115801562002660573d6000803e3d6000fd5b505050506040513d60208110156200267757600080fd5b5051620026cb576040805162461bcd60e51b815260206004820152601760248201527f4261636b696e67207472616e73666572206661696c6564000000000000000000604482015290519081900360640190fd5b5050600380546001600160a01b0390941661010002610100600160a81b0319909416939093179092556004555050565b6200270883838362002b75565b6200271262001f49565b8015620027215750600b5460ff165b156200279f5760055460408051636240a7d760e11b81526001600160a01b0386811660048301528581166024830152604482018590529151919092169163c4814fae91606480830192600092919082900301818387803b1580156200278557600080fd5b505af11580156200279a573d6000803e3d6000fd5b505050505b505050565b818101828110156200090457fe5b80620027be3362001a0b565b101562002809576040805162461bcd60e51b815260206004820152601460248201527310985b185b98d9481a5b9cdd59999a58da595b9d60621b604482015290519081900360640190fd5b62002815828262002cb3565b6200281f62001f49565b80156200282e5750600b5460ff165b15620020a15760055460408051636240a7d760e11b81526001600160a01b03858116600483015260006024830181905260448301869052925193169263c4814fae9260648084019391929182900301818387803b1580156200288f57600080fd5b505af1158015620028a4573d6000803e3d6000fd5b505050505050565b600082620028bd5750600062000904565b5081810281838281620028cc57fe5b04146200090457fe5b6000818381620028e157fe5b049392505050565b600554604080516338a86c5760e11b815290516000926001600160a01b031691637150d8ae916004808301926020929190829003018186803b1580156200292f57600080fd5b505afa15801562002944573d6000803e3d6000fd5b505050506040513d60208110156200295b57600080fd5b505190506001600160a01b0381167fc88f58ae9feb0742d9422f604dd3c1be6d02818f8dec340c5061f428b554e9753360008562002998620016a0565b60405180856001600160a01b03168152602001841515815260200180602001836001600160a01b03168152602001828103825284818151815260200191508051906020019080838360005b83811015620029fd578181015183820152602001620029e3565b50505050905090810190601f16801562002a2b5780820380516001836020036101000a031916815260200191505b509550505050505060405180910390a2600560009054906101000a90046001600160a01b03166001600160a01b03166341c0e1b56040518163ffffffff1660e01b8152600401600060405180830381600087803b15801562002a8c57600080fd5b505af115801562002aa1573d6000803e3d6000fd5b5050600580546001600160a01b031916905550505050565b62002ac362001f49565b1562002b11576040805162461bcd60e51b81526020600482015260186024820152772a3432b9329034b99030903832b73234b7339037b33332b960411b604482015290519081900360640190fd5b600b5460ff1662002b69576040805162461bcd60e51b815260206004820152601d60248201527f436f6e7472616374206e6f742061637469766520616e79206d6f72652e000000604482015290519081900360640190fd5b620020a1828262002d86565b6001600160a01b03831662002bbc5760405162461bcd60e51b815260040180806020018281038252602581526020018062003c5a6025913960400191505060405180910390fd5b6001600160a01b03821662002c035760405162461bcd60e51b815260040180806020018281038252602381526020018062003ae86023913960400191505060405180910390fd5b6001600160a01b03831660009081526020819052604090205462002c289082620024a6565b6001600160a01b03808516600090815260208190526040808220939093559084168152205462002c599082620027a4565b6001600160a01b038084166000818152602081815260409182902094909455805185815290519193928716927fddf252ad1be2c89b69c2b068fc378daa952ba7f163c4a11628f55a4df523b3ef92918290030190a3505050565b6001600160a01b03821662002cfa5760405162461bcd60e51b815260040180806020018281038252602181526020018062003c396021913960400191505060405180910390fd5b60025462002d099082620024a6565b6002556001600160a01b03821660009081526020819052604090205462002d319082620024a6565b6001600160a01b038316600081815260208181526040808320949094558351858152935191937fddf252ad1be2c89b69c2b068fc378daa952ba7f163c4a11628f55a4df523b3ef929081900390910190a35050565b62002d92828262002e0b565b62002d9c62001f49565b801562002dab5750600b5460ff165b15620020a15760055460408051636240a7d760e11b81526000600482018190526001600160a01b038681166024840152604483018690529251929093169263c4814fae9260648084019382900301818387803b1580156200288f57600080fd5b6001600160a01b03821662002e67576040805162461bcd60e51b815260206004820152601f60248201527f45524332303a206d696e7420746f20746865207a65726f206164647265737300604482015290519081900360640190fd5b60025462002e769082620027a4565b6002556001600160a01b03821660009081526020819052604090205462002e9e9082620027a4565b6001600160a01b0383166000818152602081815260408083209490945583518581529351929391927fddf252ad1be2c89b69c2b068fc378daa952ba7f163c4a11628f55a4df523b3ef9281900390910190a35050565b610be58062002f038339019056fe608060405234801561001057600080fd5b50604051610be5380380610be58339818101604052606081101561003357600080fd5b508051602082015160409092015190919081610096576040805162461bcd60e51b815260206004820152601460248201527f50726963652063616e6e6f74206265207a65726f000000000000000000000000604482015290519081900360640190fd5b600180546001600160a01b03199081163317909155600280546001600160a01b0395909516949091169390931790925560035560005542600455610b06806100df6000396000f3fe608060405234801561001057600080fd5b50600436106101215760003560e01c80639890f824116100ad578063c4814fae11610071578063c4814fae14610282578063cf42a927146102b8578063d7be4e29146102c0578063fa7f1bae146102c8578063fb286c65146102d057610121565b80639890f82414610236578063a035b1fe14610262578063b1610d7e1461026a578063b5b47f4214610272578063b80777ea1461027a57610121565b80634b91562e116100f45780634b91562e1461018c5780635ff0cf84146101b85780637150d8ae146101e45780638f1b4c6f1461020857806390e64d131461022e57610121565b80630c43cd88146101265780631703a0181461014057806341c0e1b514610148578063448ab4c614610152575b600080fd5b61012e6102d8565b60408051918252519081900360200190f35b61012e6102df565b6101506102e5565b005b6101786004803603602081101561016857600080fd5b50356001600160a01b031661033c565b604080519115158252519081900360200190f35b610150600480360360408110156101a257600080fd5b506001600160a01b03813516906020013561036f565b610150600480360360408110156101ce57600080fd5b506001600160a01b038135169060200135610417565b6101ec6104bb565b604080516001600160a01b039092168252519081900360200190f35b6101786004803603602081101561021e57600080fd5b50356001600160a01b03166104ca565b6101786104d3565b6101786004803603604081101561024c57600080fd5b506001600160a01b0381351690602001356104f7565b61012e610633565b61012e610639565b61012e610640565b61012e610646565b6101506004803603606081101561029857600080fd5b506001600160a01b0381358116916020810135909116906040013561064c565b6101786106df565b61017861082a565b6101786108e3565b61012e610907565b6276a70081565b60005481565b6001546001600160a01b0316331461032e5760405162461bcd60e51b8152600401808060200182810382526025815260200180610aac6025913960400191505060405180910390fd5b6002546001600160a01b0316ff5b600060015b6001600160a01b03831660009081526007602052604090205460ff16600281111561036857fe5b1492915050565b6001546001600160a01b031633146103b85760405162461bcd60e51b8152600401808060200182810382526025815260200180610aac6025913960400191505060405180910390fd5b6103c06108e3565b610407576040805162461bcd60e51b81526020600482015260136024820152722a3432903b37ba32903430b99032b73232b21760691b604482015290519081900360640190fd5b6104136002828461090d565b5050565b6001546001600160a01b031633146104605760405162461bcd60e51b8152600401808060200182810382526025815260200180610aac6025913960400191505060405180910390fd5b6104686108e3565b6104af576040805162461bcd60e51b81526020600482015260136024820152722a3432903b37ba32903430b99032b73232b21760691b604482015290519081900360640190fd5b6104136001828461090d565b6002546001600160a01b031681565b60006002610341565b6000806104eb6004544261095390919063ffffffff16565b6276a700109150505b90565b600254604080516370a0823160e01b81526001600160a01b039283166004820152905160009285928492918416916370a0823191602480820192602092909190829003018186803b15801561054b57600080fd5b505afa15801561055f573d6000803e3d6000fd5b505050506040513d602081101561057557600080fd5b505160025460015460408051636eb1769f60e11b81526001600160a01b0393841660048201529183166024830152519293506000929185169163dd62ed3e91604480820192602092909190829003018186803b1580156105d457600080fd5b505afa1580156105e8573d6000803e3d6000fd5b505050506040513d60208110156105fe57600080fd5b5051600354909150600090610614908790610965565b90508281111580156106265750818111155b9450505050505b92915050565b60035481565b624f1a0081565b60055481565b60045481565b6001546001600160a01b031633146106955760405162461bcd60e51b8152600401808060200182810382526025815260200180610aac6025913960400191505060405180910390fd5b61069d6108e3565b156106da576001600160a01b0380841660009081526007602052604080822054928516825290205460ff91821691166106d782828561098a565b50505b505050565b60006106e96108e3565b156107fe57600054600154604080516318160ddd60e01b815290516107f6926001600160a01b0316916318160ddd916004808301926020929190829003018186803b15801561073757600080fd5b505afa15801561074b573d6000803e3d6000fd5b505050506040513d602081101561076157600080fd5b5051600554600154604080516318160ddd60e01b815290516107f093612710936107ea9391926001600160a01b03909116916318160ddd916004808301926020929190829003018186803b1580156107b857600080fd5b505afa1580156107cc573d6000803e3d6000fd5b505050506040513d60208110156107e257600080fd5b505190610953565b90610965565b90610a8b565b1090506104f4565b6000546107f661081b600554600654610a9e90919063ffffffff16565b6006546107f090612710610965565b60006108346108e3565b156108c657600054600154604080516318160ddd60e01b815290516108bd926001600160a01b0316916318160ddd916004808301926020929190829003018186803b15801561088257600080fd5b505afa158015610896573d6000803e3d6000fd5b505050506040513d60208110156108ac57600080fd5b50516006546107f090612710610965565b101590506104f4565b6000546108bd61081b600554600654610a9e90919063ffffffff16565b6000806108fb6004544261095390919063ffffffff16565b624f1a00101591505090565b60065481565b6001600160a01b0381166000908152600760205260409020805460ff811691859182919060ff1916600183600281111561094357fe5b02179055506106d782828661098a565b60008282111561095f57fe5b50900390565b6000826109745750600061062d565b508181028183828161098257fe5b041461062d57fe5b81600281111561099657fe5b8360028111156109a257fe5b146106da5760028360028111156109b557fe5b14156109d0576005546109c89082610953565b6005556109f5565b60018360028111156109de57fe5b14156109f5576006546109f19082610953565b6006555b6002826002811115610a0357fe5b1415610a1e57600554610a169082610a9e565b600555610a43565b6001826002811115610a2c57fe5b1415610a4357600654610a3f9082610a9e565b6006555b7f8fcc50c2c4edd06d51ae66e9e21ed76b32a1766c57f491788e1aa24a1b58c256600654600554604051808381526020018281526020019250505060405180910390a1505050565b6000818381610a9657fe5b049392505050565b8181018281101561062d57fefe43616e206f6e6c792062652063616c6c656420627920706172656e7420636f6e7472616374a2646970667358221220fa3060f939a1fd6494323f23b22f6fbd35fb241606baf5a62fb99dcec82b1cb864736f6c6343000700003345524332303a207472616e7366657220746f20746865207a65726f20616464726573734f6666657220776173207265706c616365642062792061206869676865722062696445524332303a20617070726f766520746f20746865207a65726f20616464726573734f6666657220776173206e6f742073756666696369656e746c792066756e6465644173206c6f6e672061732074686520636f6e7472616374206973206163746976652c20796f752061726520626f756e6420746f206974596f7520617265206e6f7420617574686f72697a656420746f2063616e63656c2074686973206163717569736974696f6e206f666665724e6577206f6666657273206d757374206265206174206c6561737420352520686967686572207468616e207468652070656e64696e67206f666665725468657265206973206e6f2070656e64696e67206f666665720000000000000045524332303a206275726e2066726f6d20746865207a65726f206164647265737345524332303a207472616e736665722066726f6d20746865207a65726f20616464726573735468697320636f6e747261637420646f6573206e6f7420726570726573656e7420656e6f7567682065717569747945524332303a20617070726f76652066726f6d20746865207a65726f2061646472657373596f7520617265206e6f7420617574686f72697a656420746f20636f6d706c6574652074686973206163717569736974696f6e206f66666572596f75206e65656420746f20686f6c64206174206c65617374203525206f6620746865206669726d20746f206d616b6520616e206f66666572a264697066735822122057fea2e6f64525213140d0c51838dc9fe3583e3da94560bcfd391d0a7e3de7b164736f6c63430007000033",
    "sourcePath": "c:/Users/luziu/Documents/aktionariat/contracts/src/ERC20Draggable.sol",
    "compiler": {
        "name": "solc",
        "version": "0.7.0+commit.9e61f92b"
    },
    "functionHashes": {
        "acquisitionQuorum()": "3549788a",
        "active()": "02fb0c5e",
        "allowance(address,address)": "dd62ed3e",
        "approve(address,uint256)": "095ea7b3",
        "balanceOf(address)": "70a08231",
        "burn(uint256)": "42966c68",
        "cancelAcquisition()": "e1b8c38e",
        "completeAcquisition()": "141c7068",
        "contestAcquisition()": "6f4b18df",
        "decimals()": "313ce567",
        "decreaseAllowance(address,uint256)": "a457c2d7",
        "getCurrencyContract()": "de494685",
        "getPendingOffer()": "6467c09a",
        "getWrappedContract()": "58047913",
        "increaseAllowance(address,uint256)": "39509351",
        "initiateAcquisition(uint256)": "4900ca51",
        "licenseFee()": "a9d9d0c7",
        "licenseFeeRecipient()": "bb689472",
        "migrate()": "8fd3ab80",
        "migrationQuorum()": "9e8a9a5a",
        "name()": "06fdde03",
        "offer()": "c028df06",
        "offerExists()": "bc1b1e7c",
        "onTokenTransfer(address,uint256,bytes)": "a4c0ed36",
        "symbol()": "95d89b41",
        "totalSupply()": "18160ddd",
        "transfer(address,uint256)": "a9059cbb",
        "transferAndCall(address,uint256,bytes)": "4000aea0",
        "transferFrom(address,address,uint256)": "23b872dd",
        "unwrap(uint256)": "de0e9a3e",
        "unwrapConversionFactor()": "0832e470",
        "updateCurrency(address)": "5e027601",
        "voteNo()": "41c12a70",
        "voteYes()": "90cf581c",
        "wasAcquired()": "ec6580e2",
        "wrap(address,uint256)": "bf376c7a"
    },
    "gasEstimates": {
        "creation": {
            "codeDepositCost": "3147200",
            "executionCost": "infinite",
            "totalCost": "infinite"
        },
        "external": {
            "acquisitionQuorum()": "1132",
            "active()": "1057",
            "allowance(address,address)": "1294",
            "approve(address,uint256)": "infinite",
            "balanceOf(address)": "1191",
            "burn(uint256)": "infinite",
            "cancelAcquisition()": "infinite",
            "completeAcquisition()": "infinite",
            "contestAcquisition()": "infinite",
            "decimals()": "1125",
            "decreaseAllowance(address,uint256)": "infinite",
            "getCurrencyContract()": "1125",
            "getPendingOffer()": "1148",
            "getWrappedContract()": "1115",
            "increaseAllowance(address,uint256)": "infinite",
            "initiateAcquisition(uint256)": "infinite",
            "licenseFee()": "1131",
            "licenseFeeRecipient()": "1082",
            "migrate()": "infinite",
            "migrationQuorum()": "1043",
            "name()": "infinite",
            "offer()": "1148",
            "offerExists()": "1151",
            "onTokenTransfer(address,uint256,bytes)": "infinite",
            "symbol()": "infinite",
            "totalSupply()": "1066",
            "transfer(address,uint256)": "infinite",
            "transferAndCall(address,uint256,bytes)": "infinite",
            "transferFrom(address,address,uint256)": "infinite",
            "unwrap(uint256)": "infinite",
            "unwrapConversionFactor()": "1089",
            "updateCurrency(address)": "infinite",
            "voteNo()": "infinite",
            "voteYes()": "infinite",
            "wasAcquired()": "2078",
            "wrap(address,uint256)": "infinite"
        },
        "internal": {
            "_burn(address,uint256)": "infinite",
            "_mint(address,uint256)": "infinite",
            "_transfer(address,address,uint256)": "infinite",
            "dowrap(address,uint256)": "infinite",
            "invertHoldings(address,contract IERC20,uint256)": "infinite",
            "killAcquisition(string memory)": "infinite"
        }
    }
}