{
    "contractName": "ERC20Basic",
    "abi": [
        {
            "inputs": [
                {
                    "internalType": "string",
                    "name": "name_",
                    "type": "string"
                },
                {
                    "internalType": "string",
                    "name": "symbol_",
                    "type": "string"
                },
                {
                    "internalType": "uint8",
                    "name": "decimals",
                    "type": "uint8"
                }
            ],
            "stateMutability": "nonpayable",
            "type": "constructor"
        },
        {
            "anonymous": false,
            "inputs": [
                {
                    "indexed": true,
                    "internalType": "address",
                    "name": "owner",
                    "type": "address"
                },
                {
                    "indexed": true,
                    "internalType": "address",
                    "name": "spender",
                    "type": "address"
                },
                {
                    "indexed": false,
                    "internalType": "uint256",
                    "name": "value",
                    "type": "uint256"
                }
            ],
            "name": "Approval",
            "type": "event"
        },
        {
            "anonymous": false,
            "inputs": [
                {
                    "indexed": true,
                    "internalType": "address",
                    "name": "from",
                    "type": "address"
                },
                {
                    "indexed": true,
                    "internalType": "address",
                    "name": "to",
                    "type": "address"
                },
                {
                    "indexed": false,
                    "internalType": "uint256",
                    "name": "value",
                    "type": "uint256"
                }
            ],
            "name": "Transfer",
            "type": "event"
        },
        {
            "inputs": [
                {
                    "internalType": "address",
                    "name": "owner",
                    "type": "address"
                },
                {
                    "internalType": "address",
                    "name": "spender",
                    "type": "address"
                }
            ],
            "name": "allowance",
            "outputs": [
                {
                    "internalType": "uint256",
                    "name": "",
                    "type": "uint256"
                }
            ],
            "stateMutability": "view",
            "type": "function"
        },
        {
            "inputs": [
                {
                    "internalType": "address",
                    "name": "spender",
                    "type": "address"
                },
                {
                    "internalType": "uint256",
                    "name": "value",
                    "type": "uint256"
                }
            ],
            "name": "approve",
            "outputs": [
                {
                    "internalType": "bool",
                    "name": "",
                    "type": "bool"
                }
            ],
            "stateMutability": "nonpayable",
            "type": "function"
        },
        {
            "inputs": [
                {
                    "internalType": "address",
                    "name": "account",
                    "type": "address"
                }
            ],
            "name": "balanceOf",
            "outputs": [
                {
                    "internalType": "uint256",
                    "name": "",
                    "type": "uint256"
                }
            ],
            "stateMutability": "view",
            "type": "function"
        },
        {
            "inputs": [],
            "name": "decimals",
            "outputs": [
                {
                    "internalType": "uint8",
                    "name": "",
                    "type": "uint8"
                }
            ],
            "stateMutability": "view",
            "type": "function"
        },
        {
            "inputs": [
                {
                    "internalType": "address",
                    "name": "target",
                    "type": "address"
                },
                {
                    "internalType": "uint256",
                    "name": "amount",
                    "type": "uint256"
                }
            ],
            "name": "mint",
            "outputs": [],
            "stateMutability": "nonpayable",
            "type": "function"
        },
        {
            "inputs": [],
            "name": "name",
            "outputs": [
                {
                    "internalType": "string",
                    "name": "",
                    "type": "string"
                }
            ],
            "stateMutability": "view",
            "type": "function"
        },
        {
            "inputs": [
                {
                    "internalType": "bool",
                    "name": "",
                    "type": "bool"
                }
            ],
            "name": "setRecoverable",
            "outputs": [],
            "stateMutability": "pure",
            "type": "function"
        },
        {
            "inputs": [],
            "name": "symbol",
            "outputs": [
                {
                    "internalType": "string",
                    "name": "",
                    "type": "string"
                }
            ],
            "stateMutability": "view",
            "type": "function"
        },
        {
            "inputs": [],
            "name": "totalSupply",
            "outputs": [
                {
                    "internalType": "uint256",
                    "name": "",
                    "type": "uint256"
                }
            ],
            "stateMutability": "view",
            "type": "function"
        },
        {
            "inputs": [
                {
                    "internalType": "address",
                    "name": "recipient",
                    "type": "address"
                },
                {
                    "internalType": "uint256",
                    "name": "amount",
                    "type": "uint256"
                }
            ],
            "name": "transfer",
            "outputs": [
                {
                    "internalType": "bool",
                    "name": "",
                    "type": "bool"
                }
            ],
            "stateMutability": "nonpayable",
            "type": "function"
        },
        {
            "inputs": [
                {
                    "internalType": "address",
                    "name": "recipient",
                    "type": "address"
                },
                {
                    "internalType": "uint256",
                    "name": "amount",
                    "type": "uint256"
                },
                {
                    "internalType": "bytes",
                    "name": "data",
                    "type": "bytes"
                }
            ],
            "name": "transferAndCall",
            "outputs": [
                {
                    "internalType": "bool",
                    "name": "",
                    "type": "bool"
                }
            ],
            "stateMutability": "nonpayable",
            "type": "function"
        },
        {
            "inputs": [
                {
                    "internalType": "address",
                    "name": "sender",
                    "type": "address"
                },
                {
                    "internalType": "address",
                    "name": "recipient",
                    "type": "address"
                },
                {
                    "internalType": "uint256",
                    "name": "amount",
                    "type": "uint256"
                }
            ],
            "name": "transferFrom",
            "outputs": [
                {
                    "internalType": "bool",
                    "name": "",
                    "type": "bool"
                }
            ],
            "stateMutability": "nonpayable",
            "type": "function"
        }
    ],
    "bytecode": "60806040523480156200001157600080fd5b5060405162000b5338038062000b538339810160408190526200003491620001e8565b6003805460ff191660ff83161790558251620000589060049060208601906200008b565b5081516200006e9060059060208501906200008b565b5050600680546001600160a01b0319163317905550620002c09050565b82805462000099906200026d565b90600052602060002090601f016020900481019282620000bd576000855562000108565b82601f10620000d857805160ff191683800117855562000108565b8280016001018555821562000108579182015b8281111562000108578251825591602001919060010190620000eb565b50620001169291506200011a565b5090565b5b808211156200011657600081556001016200011b565b600082601f8301126200014357600080fd5b81516001600160401b0380821115620001605762000160620002aa565b604051601f8301601f19908116603f011681019082821181831017156200018b576200018b620002aa565b81604052838152602092508683858801011115620001a857600080fd5b600091505b83821015620001cc5785820183015181830184015290820190620001ad565b83821115620001de5760008385830101525b9695505050505050565b600080600060608486031215620001fe57600080fd5b83516001600160401b03808211156200021657600080fd5b620002248783880162000131565b945060208601519150808211156200023b57600080fd5b506200024a8682870162000131565b925050604084015160ff811681146200026257600080fd5b809150509250925092565b600181811c908216806200028257607f821691505b60208210811415620002a457634e487b7160e01b600052602260045260246000fd5b50919050565b634e487b7160e01b600052604160045260246000fd5b61088380620002d06000396000f3fe608060405234801561001057600080fd5b50600436106100b45760003560e01c806340c10f191161007157806340c10f19146101515780636427ed971461016657806370a082311461017757806395d89b41146101a0578063a9059cbb146101a8578063dd62ed3e146101bb57600080fd5b806306fdde03146100b9578063095ea7b3146100d757806318160ddd146100fa57806323b872dd1461010c578063313ce5671461011f5780634000aea01461013e575b600080fd5b6100c16101f4565b6040516100ce919061076a565b60405180910390f35b6100ea6100e5366004610637565b610282565b60405190151581526020016100ce565b6002545b6040519081526020016100ce565b6100ea61011a3660046105fb565b610298565b60035461012c9060ff1681565b60405160ff90911681526020016100ce565b6100ea61014c366004610661565b6102f4565b61016461015f366004610637565b610399565b005b6101646101743660046106e8565b50565b6100fe6101853660046105a6565b6001600160a01b031660009081526020819052604090205490565b6100c16103be565b6100ea6101b6366004610637565b6103cb565b6100fe6101c93660046105c8565b6001600160a01b03918216600090815260016020908152604080832093909416825291909152205490565b60048054610201906107ee565b80601f016020809104026020016040519081016040528092919081815260200182805461022d906107ee565b801561027a5780601f1061024f5761010080835404028352916020019161027a565b820191906000526020600020905b81548152906001019060200180831161025d57829003601f168201915b505050505081565b600061028f3384846103d8565b50600192915050565b60006102a584848461043a565b6001600160a01b0384166000908152600160209081526040808320338452909152902054600160ff1b8110156102e9576102e985336102e486856107d7565b6103d8565b506001949350505050565b60008061030186866103cb565b9050801561039057604051635260769b60e11b81526001600160a01b0387169063a4c0ed369061033b903390899089908990600401610722565b602060405180830381600087803b15801561035557600080fd5b505af1158015610369573d6000803e3d6000fd5b505050506040513d601f19601f8201168201806040525081019061038d9190610705565b90505b95945050505050565b6006546001600160a01b031633146103b057600080fd5b6103ba82826104ee565b5050565b60058054610201906107ee565b600061028f33848461043a565b6001600160a01b0383811660008181526001602090815260408083209487168084529482529182902085905590518481527f8c5be1e5ebec7d5bd14f71427d1e84f3dd0314c0f7b2291e5b200ac8c7c3b92591015b60405180910390a3505050565b6001600160a01b03821661044d57600080fd5b6001600160a01b038316600090815260208190526040812080548392906104759084906107d7565b90915550506001600160a01b038216600090815260208190526040812080548392906104a29084906107bf565b92505081905550816001600160a01b0316836001600160a01b03167fddf252ad1be2c89b69c2b068fc378daa952ba7f163c4a11628f55a4df523b3ef8360405161042d91815260200190565b6001600160a01b03821661050157600080fd5b806002600082825461051391906107bf565b90915550506001600160a01b038216600090815260208190526040812080548392906105409084906107bf565b90915550506040518181526001600160a01b038316906000907fddf252ad1be2c89b69c2b068fc378daa952ba7f163c4a11628f55a4df523b3ef9060200160405180910390a35050565b80356001600160a01b03811681146105a157600080fd5b919050565b6000602082840312156105b857600080fd5b6105c18261058a565b9392505050565b600080604083850312156105db57600080fd5b6105e48361058a565b91506105f26020840161058a565b90509250929050565b60008060006060848603121561061057600080fd5b6106198461058a565b92506106276020850161058a565b9150604084013590509250925092565b6000806040838503121561064a57600080fd5b6106538361058a565b946020939093013593505050565b6000806000806060858703121561067757600080fd5b6106808561058a565b935060208501359250604085013567ffffffffffffffff808211156106a457600080fd5b818701915087601f8301126106b857600080fd5b8135818111156106c757600080fd5b8860208285010111156106d957600080fd5b95989497505060200194505050565b6000602082840312156106fa57600080fd5b81356105c18161083f565b60006020828403121561071757600080fd5b81516105c18161083f565b6001600160a01b0385168152602081018490526060604082018190528101829052818360808301376000818301608090810191909152601f909201601f191601019392505050565b600060208083528351808285015260005b818110156107975785810183015185820160400152820161077b565b818111156107a9576000604083870101525b50601f01601f1916929092016040019392505050565b600082198211156107d2576107d2610829565b500190565b6000828210156107e9576107e9610829565b500390565b600181811c9082168061080257607f821691505b6020821081141561082357634e487b7160e01b600052602260045260246000fd5b50919050565b634e487b7160e01b600052601160045260246000fd5b801515811461017457600080fdfea2646970667358221220a672c157b67576747ca7a06c68c001cbda0f331fd569de3b2103eb003f867a1064736f6c63430008060033",
    "sourcePath": "c:/Users/luziu/Documents/aktionariat/contracts/src/ERC20Basic.sol",
    "compiler": {
        "name": "solc",
        "version": "0.8.6+commit.11564f7e"
    },
    "functionHashes": {
        "allowance(address,address)": "dd62ed3e",
        "approve(address,uint256)": "095ea7b3",
        "balanceOf(address)": "70a08231",
        "decimals()": "313ce567",
        "mint(address,uint256)": "40c10f19",
        "name()": "06fdde03",
        "setRecoverable(bool)": "6427ed97",
        "symbol()": "95d89b41",
        "totalSupply()": "18160ddd",
        "transfer(address,uint256)": "a9059cbb",
        "transferAndCall(address,uint256,bytes)": "4000aea0",
        "transferFrom(address,address,uint256)": "23b872dd"
    },
    "gasEstimates": {
        "creation": {
            "codeDepositCost": "435800",
            "executionCost": "infinite",
            "totalCost": "infinite"
        },
        "external": {
            "allowance(address,address)": "infinite",
            "approve(address,uint256)": "24550",
            "balanceOf(address)": "2584",
            "decimals()": "2402",
            "mint(address,uint256)": "infinite",
            "name()": "infinite",
            "setRecoverable(bool)": "infinite",
            "symbol()": "infinite",
            "totalSupply()": "2326",
            "transfer(address,uint256)": "51201",
            "transferAndCall(address,uint256,bytes)": "infinite",
            "transferFrom(address,address,uint256)": "infinite"
        }
    }
}