{
    "contractName": "ERC20Draggable",
    "abi": [
        {
            "inputs": [
                {
                    "internalType": "address",
                    "name": "wrappedToken",
                    "type": "address"
                },
                {
                    "internalType": "uint256",
                    "name": "migrationQuorumInBIPS_",
                    "type": "uint256"
                },
                {
                    "internalType": "uint256",
                    "name": "acquisitionQuorum_",
                    "type": "uint256"
                }
            ],
            "stateMutability": "nonpayable",
            "type": "constructor"
        },
        {
            "anonymous": false,
            "inputs": [
                {
                    "indexed": true,
                    "internalType": "address",
                    "name": "owner",
                    "type": "address"
                },
                {
                    "indexed": true,
                    "internalType": "address",
                    "name": "spender",
                    "type": "address"
                },
                {
                    "indexed": false,
                    "internalType": "uint256",
                    "name": "value",
                    "type": "uint256"
                }
            ],
            "name": "Approval",
            "type": "event"
        },
        {
            "anonymous": false,
            "inputs": [
                {
                    "indexed": false,
                    "internalType": "address",
                    "name": "newContractAddress",
                    "type": "address"
                }
            ],
            "name": "MigrationSucceeded",
            "type": "event"
        },
        {
            "anonymous": false,
            "inputs": [
                {
                    "indexed": true,
                    "internalType": "address",
                    "name": "buyer",
                    "type": "address"
                },
                {
                    "indexed": false,
                    "internalType": "uint256",
                    "name": "pricePerShare",
                    "type": "uint256"
                },
                {
                    "indexed": false,
                    "internalType": "address",
                    "name": "currency",
                    "type": "address"
                },
                {
                    "indexed": false,
                    "internalType": "address",
                    "name": "offerContract",
                    "type": "address"
                }
            ],
            "name": "OfferCreated",
            "type": "event"
        },
        {
            "anonymous": false,
            "inputs": [
                {
                    "indexed": true,
                    "internalType": "address",
                    "name": "buyer",
                    "type": "address"
                },
                {
                    "indexed": false,
                    "internalType": "address",
                    "name": "sender",
                    "type": "address"
                },
                {
                    "indexed": false,
                    "internalType": "bool",
                    "name": "success",
                    "type": "bool"
                },
                {
                    "indexed": false,
                    "internalType": "string",
                    "name": "message",
                    "type": "string"
                },
                {
                    "indexed": false,
                    "internalType": "address",
                    "name": "offerContract",
                    "type": "address"
                }
            ],
            "name": "OfferEnded",
            "type": "event"
        },
        {
            "anonymous": false,
            "inputs": [
                {
                    "indexed": true,
                    "internalType": "address",
                    "name": "from",
                    "type": "address"
                },
                {
                    "indexed": true,
                    "internalType": "address",
                    "name": "to",
                    "type": "address"
                },
                {
                    "indexed": false,
                    "internalType": "uint256",
                    "name": "value",
                    "type": "uint256"
                }
            ],
            "name": "Transfer",
            "type": "event"
        },
        {
            "inputs": [],
            "name": "acquisitionQuorum",
            "outputs": [
                {
                    "internalType": "uint256",
                    "name": "",
                    "type": "uint256"
                }
            ],
            "stateMutability": "view",
            "type": "function"
        },
        {
            "inputs": [],
            "name": "active",
            "outputs": [
                {
                    "internalType": "bool",
                    "name": "",
                    "type": "bool"
                }
            ],
            "stateMutability": "view",
            "type": "function"
        },
        {
            "inputs": [
                {
                    "internalType": "address",
                    "name": "owner",
                    "type": "address"
                },
                {
                    "internalType": "address",
                    "name": "spender",
                    "type": "address"
                }
            ],
            "name": "allowance",
            "outputs": [
                {
                    "internalType": "uint256",
                    "name": "",
                    "type": "uint256"
                }
            ],
            "stateMutability": "view",
            "type": "function"
        },
        {
            "inputs": [
                {
                    "internalType": "address",
                    "name": "spender",
                    "type": "address"
                },
                {
                    "internalType": "uint256",
                    "name": "value",
                    "type": "uint256"
                }
            ],
            "name": "approve",
            "outputs": [
                {
                    "internalType": "bool",
                    "name": "",
                    "type": "bool"
                }
            ],
            "stateMutability": "nonpayable",
            "type": "function"
        },
        {
            "inputs": [
                {
                    "internalType": "address",
                    "name": "account",
                    "type": "address"
                }
            ],
            "name": "balanceOf",
            "outputs": [
                {
                    "internalType": "uint256",
                    "name": "",
                    "type": "uint256"
                }
            ],
            "stateMutability": "view",
            "type": "function"
        },
        {
            "inputs": [
                {
                    "internalType": "uint256",
                    "name": "amount",
                    "type": "uint256"
                }
            ],
            "name": "burn",
            "outputs": [],
            "stateMutability": "nonpayable",
            "type": "function"
        },
        {
            "inputs": [],
            "name": "cancelAcquisition",
            "outputs": [],
            "stateMutability": "nonpayable",
            "type": "function"
        },
        {
            "inputs": [],
            "name": "completeAcquisition",
            "outputs": [],
            "stateMutability": "nonpayable",
            "type": "function"
        },
        {
            "inputs": [],
            "name": "contestAcquisition",
            "outputs": [],
            "stateMutability": "nonpayable",
            "type": "function"
        },
        {
            "inputs": [],
            "name": "decimals",
            "outputs": [
                {
                    "internalType": "uint8",
                    "name": "",
                    "type": "uint8"
                }
            ],
            "stateMutability": "view",
            "type": "function"
        },
        {
            "inputs": [
                {
                    "internalType": "address",
                    "name": "spender",
                    "type": "address"
                },
                {
                    "internalType": "uint256",
                    "name": "subtractedValue",
                    "type": "uint256"
                }
            ],
            "name": "decreaseAllowance",
            "outputs": [
                {
                    "internalType": "bool",
                    "name": "",
                    "type": "bool"
                }
            ],
            "stateMutability": "nonpayable",
            "type": "function"
        },
        {
            "inputs": [
                {
                    "internalType": "address",
                    "name": "spender",
                    "type": "address"
                },
                {
                    "internalType": "uint256",
                    "name": "addedValue",
                    "type": "uint256"
                }
            ],
            "name": "increaseAllowance",
            "outputs": [
                {
                    "internalType": "bool",
                    "name": "",
                    "type": "bool"
                }
            ],
            "stateMutability": "nonpayable",
            "type": "function"
        },
        {
            "inputs": [
                {
                    "internalType": "uint256",
                    "name": "pricePerShare",
                    "type": "uint256"
                },
                {
                    "internalType": "address",
                    "name": "currency",
                    "type": "address"
                }
            ],
            "name": "initiateAcquisition",
            "outputs": [],
            "stateMutability": "nonpayable",
            "type": "function"
        },
        {
            "inputs": [],
            "name": "migrate",
            "outputs": [],
            "stateMutability": "nonpayable",
            "type": "function"
        },
        {
            "inputs": [],
            "name": "migrationQuorum",
            "outputs": [
                {
                    "internalType": "uint256",
                    "name": "",
                    "type": "uint256"
                }
            ],
            "stateMutability": "view",
            "type": "function"
        },
        {
            "inputs": [],
            "name": "name",
            "outputs": [
                {
                    "internalType": "string",
                    "name": "",
                    "type": "string"
                }
            ],
            "stateMutability": "view",
            "type": "function"
        },
        {
            "inputs": [],
            "name": "offer",
            "outputs": [
                {
                    "internalType": "contract Acquisition",
                    "name": "",
                    "type": "address"
                }
            ],
            "stateMutability": "view",
            "type": "function"
        },
        {
            "inputs": [
                {
                    "internalType": "address",
                    "name": "from",
                    "type": "address"
                },
                {
                    "internalType": "uint256",
                    "name": "amount",
                    "type": "uint256"
                },
                {
                    "internalType": "bytes",
                    "name": "",
                    "type": "bytes"
                }
            ],
            "name": "onTokenTransfer",
            "outputs": [],
            "stateMutability": "nonpayable",
            "type": "function"
        },
        {
            "inputs": [],
            "name": "symbol",
            "outputs": [
                {
                    "internalType": "string",
                    "name": "",
                    "type": "string"
                }
            ],
            "stateMutability": "view",
            "type": "function"
        },
        {
            "inputs": [],
            "name": "totalSupply",
            "outputs": [
                {
                    "internalType": "uint256",
                    "name": "",
                    "type": "uint256"
                }
            ],
            "stateMutability": "view",
            "type": "function"
        },
        {
            "inputs": [
                {
                    "internalType": "address",
                    "name": "recipient",
                    "type": "address"
                },
                {
                    "internalType": "uint256",
                    "name": "amount",
                    "type": "uint256"
                }
            ],
            "name": "transfer",
            "outputs": [
                {
                    "internalType": "bool",
                    "name": "",
                    "type": "bool"
                }
            ],
            "stateMutability": "nonpayable",
            "type": "function"
        },
        {
            "inputs": [
                {
                    "internalType": "address",
                    "name": "recipient",
                    "type": "address"
                },
                {
                    "internalType": "uint256",
                    "name": "amount",
                    "type": "uint256"
                },
                {
                    "internalType": "bytes",
                    "name": "data",
                    "type": "bytes"
                }
            ],
            "name": "transferAndCall",
            "outputs": [
                {
                    "internalType": "bool",
                    "name": "",
                    "type": "bool"
                }
            ],
            "stateMutability": "nonpayable",
            "type": "function"
        },
        {
            "inputs": [
                {
                    "internalType": "address",
                    "name": "sender",
                    "type": "address"
                },
                {
                    "internalType": "address",
                    "name": "recipient",
                    "type": "address"
                },
                {
                    "internalType": "uint256",
                    "name": "amount",
                    "type": "uint256"
                }
            ],
            "name": "transferFrom",
            "outputs": [
                {
                    "internalType": "bool",
                    "name": "",
                    "type": "bool"
                }
            ],
            "stateMutability": "nonpayable",
            "type": "function"
        },
        {
            "inputs": [
                {
                    "internalType": "uint256",
                    "name": "amount",
                    "type": "uint256"
                }
            ],
            "name": "unwrap",
            "outputs": [
                {
                    "internalType": "address",
                    "name": "",
                    "type": "address"
                },
                {
                    "internalType": "uint256",
                    "name": "",
                    "type": "uint256"
                }
            ],
            "stateMutability": "nonpayable",
            "type": "function"
        },
        {
            "inputs": [],
            "name": "unwrapConversionFactor",
            "outputs": [
                {
                    "internalType": "uint256",
                    "name": "",
                    "type": "uint256"
                }
            ],
            "stateMutability": "view",
            "type": "function"
        },
        {
            "inputs": [],
            "name": "voteNo",
            "outputs": [],
            "stateMutability": "nonpayable",
            "type": "function"
        },
        {
            "inputs": [],
            "name": "voteYes",
            "outputs": [],
            "stateMutability": "nonpayable",
            "type": "function"
        },
        {
            "inputs": [
                {
                    "internalType": "address",
                    "name": "shareholder",
                    "type": "address"
                },
                {
                    "internalType": "uint256",
                    "name": "amount",
                    "type": "uint256"
                }
            ],
            "name": "wrap",
            "outputs": [],
            "stateMutability": "nonpayable",
            "type": "function"
        },
        {
            "inputs": [],
            "name": "wrapped",
            "outputs": [
                {
                    "internalType": "contract IERC20",
                    "name": "",
                    "type": "address"
                }
            ],
            "stateMutability": "view",
            "type": "function"
        }
    ],
    "bytecode": "6080604052600160048190556008805460ff1916909117905534801561002457600080fd5b5060405162003177380380620031778339818101604052606081101561004957600080fd5b508051602080830151604093840151600380546001600160a81b0319166101006001600160a01b03871690810291909117909155600683905560078290558551633a98ef3960e01b815295519495929491939092633a98ef3992600480830193928290030181600087803b1580156100c057600080fd5b505af11580156100d4573d6000803e3d6000fd5b505050506040513d60208110156100ea57600080fd5b505050505061307880620000ff6000396000f3fe608060405234801561001057600080fd5b50600436106101cf5760003560e01c806350e70d4811610104578063a457c2d7116100a2578063c028df0611610071578063c028df061461059a578063dd62ed3e146105a2578063de0e9a3e146105d0578063e1b8c38e14610610576101cf565b8063a457c2d714610493578063a4c0ed36146104bf578063a9059cbb14610542578063bf376c7a1461056e576101cf565b80638fd3ab80116100de5780638fd3ab801461047357806390cf581c1461047b57806395d89b41146104835780639e8a9a5a1461048b576101cf565b806350e70d48146104215780636f4b18df1461044557806370a082311461044d576101cf565b8063313ce567116101715780634000aea01161014b5780634000aea01461034d57806341c12a70146103d057806342966c68146103d857806349b210b7146103f5576101cf565b8063313ce567146102fb5780633549788a146103195780633950935114610321576101cf565b8063095ea7b3116101ad578063095ea7b314610287578063141c7068146102b357806318160ddd146102bd57806323b872dd146102c5576101cf565b806302fb0c5e146101d457806306fdde03146101f05780630832e4701461026d575b600080fd5b6101dc610618565b604080519115158252519081900360200190f35b6101f8610621565b6040805160208082528351818301528351919283929083019185019080838360005b8381101561023257818101518382015260200161021a565b50505050905090810190601f16801561025f5780820380516001836020036101000a031916815260200191505b509250505060405180910390f35b6102756107dc565b60408051918252519081900360200190f35b6101dc6004803603604081101561029d57600080fd5b506001600160a01b0381351690602001356107e2565b6102bb6107f9565b005b610275610b06565b6101dc600480360360608110156102db57600080fd5b506001600160a01b03813581169160208101359091169060400135610b0c565b610303610b5d565b6040805160ff9092168252519081900360200190f35b610275610b66565b6101dc6004803603604081101561033757600080fd5b506001600160a01b038135169060200135610b6c565b6101dc6004803603606081101561036357600080fd5b6001600160a01b0382351691602081013591810190606081016040820135600160201b81111561039257600080fd5b8201836020820111156103a457600080fd5b803590602001918460018302840111600160201b831117156103c557600080fd5b509092509050610ba2565b6102bb610c64565b6102bb600480360360208110156103ee57600080fd5b5035610d39565b6102bb6004803603604081101561040b57600080fd5b50803590602001356001600160a01b0316610dbb565b61042961122e565b604080516001600160a01b039092168252519081900360200190f35b6102bb611242565b6102756004803603602081101561046357600080fd5b50356001600160a01b031661151d565b6102bb611538565b6102bb611663565b6101f86116d8565b610275611850565b6101dc600480360360408110156104a957600080fd5b506001600160a01b038135169060200135611856565b6102bb600480360360608110156104d557600080fd5b6001600160a01b0382351691602081013591810190606081016040820135600160201b81111561050457600080fd5b82018360208201111561051657600080fd5b803590602001918460018302840111600160201b8311171561053757600080fd5b50909250905061188c565b6101dc6004803603604081101561055857600080fd5b506001600160a01b0381351690602001356118b2565b6102bb6004803603604081101561058457600080fd5b506001600160a01b0381351690602001356118bf565b6104296119aa565b610275600480360360408110156105b857600080fd5b506001600160a01b03813581169160200135166119b9565b6105ed600480360360208110156105e657600080fd5b50356119e4565b604080516001600160a01b03909316835260208301919091528051918290030190f35b6102bb611af5565b60085460ff1681565b6060600360019054906101000a90046001600160a01b03166001600160a01b03166306fdde036040518163ffffffff1660e01b815260040160006040518083038186803b15801561067157600080fd5b505afa158015610685573d6000803e3d6000fd5b505050506040513d6000823e601f3d908101601f1916820160405260208110156106ae57600080fd5b8101908080516040519392919084600160201b8211156106cd57600080fd5b9083019060208201858111156106e257600080fd5b8251600160201b8111828201881017156106fb57600080fd5b82525081516020918201929091019080838360005b83811015610728578181015183820152602001610710565b50505050905090810190601f1680156107555780820380516001836020036101000a031916815260200191505b506040525050506040516020018080690223930b3b3b0b13632960b51b815250600a0182805190602001908083835b602083106107a35780518252601f199092019160209182019101610784565b6001836020036101000a038019825116818451168082178552505050505050905001915050604051602081830303815290604052905090565b60045481565b60006107ef338484611c07565b5060015b92915050565b610801611c69565b801561080f575060085460ff165b610853576040805162461bcd60e51b815260206004820152601060248201526f3737903832b73234b7339037b33332b960811b604482015290519081900360640190fd5b600560009054906101000a90046001600160a01b03166001600160a01b0316637150d8ae6040518163ffffffff1660e01b815260040160206040518083038186803b1580156108a157600080fd5b505afa1580156108b5573d6000803e3d6000fd5b505050506040513d60208110156108cb57600080fd5b50516001600160a01b031633146108e157600080fd5b600560009054906101000a90046001600160a01b03166001600160a01b031663d7be4e296040518163ffffffff1660e01b815260040160206040518083038186803b15801561092f57600080fd5b505afa158015610943573d6000803e3d6000fd5b505050506040513d602081101561095957600080fd5b50516109a3576040805162461bcd60e51b8152602060048201526014602482015273125b9cdd59999a58da595b9d081cdd5c1c1bdc9d60621b604482015290519081900360640190fd5b610a9733600560009054906101000a90046001600160a01b03166001600160a01b031663e5a6b10f6040518163ffffffff1660e01b815260040160206040518083038186803b1580156109f557600080fd5b505afa158015610a09573d6000803e3d6000fd5b505050506040513d6020811015610a1f57600080fd5b50516005546040805163501ad8ff60e11b815290516001600160a01b039092169163a035b1fe91600480820192602092909190829003018186803b158015610a6657600080fd5b505afa158015610a7a573d6000803e3d6000fd5b505050506040513d6020811015610a9057600080fd5b5051611c7a565b6005546040805133808252600160208301526001600160a01b039390931660608201526080818301819052600790820152665375636365737360c81b60a082015290517fc88f58ae9feb0742d9422f604dd3c1be6d02818f8dec340c5061f428b554e9759181900360c00190a2565b60025490565b6000610b19848484611e1b565b6001600160a01b038416600090815260016020908152604080832033808552925290912054610b53918691610b4e9086611ebc565b611c07565b5060019392505050565b60035460ff1681565b60075481565b3360008181526001602090815260408083206001600160a01b038716845290915281205490916107ef918590610b4e9086611ece565b600080610baf86866118b2565b90508015610c5b57856001600160a01b031663a4c0ed36338787876040518563ffffffff1660e01b815260040180856001600160a01b03168152602001848152602001806020018281038252848482818152602001925080828437600081840152601f19601f82011690508083019250505095505050505050600060405180830381600087803b158015610c4257600080fd5b505af1158015610c56573d6000803e3d6000fd5b505050505b95945050505050565b610c6c611c69565b8015610c7a575060085460ff165b610cbe576040805162461bcd60e51b815260206004820152601060248201526f3737903832b73234b7339037b33332b960811b604482015290519081900360640190fd5b6005546001600160a01b0316634b91562e33610cd98161151d565b6040518363ffffffff1660e01b815260040180836001600160a01b0316815260200182815260200192505050600060405180830381600087803b158015610d1f57600080fd5b505af1158015610d33573d6000803e3d6000fd5b50505050565b610d433382611edb565b6003546004546101009091046001600160a01b0316906342966c6890610d6a908490611f6e565b6040518263ffffffff1660e01b815260040180828152602001915050600060405180830381600087803b158015610da057600080fd5b505af1158015610db4573d6000803e3d6000fd5b5050505050565b60085460ff16610dca57600080fd5b6000600360019054906101000a90046001600160a01b03166001600160a01b0316633a98ef396040518163ffffffff1660e01b8152600401602060405180830381600087803b158015610e1c57600080fd5b505af1158015610e30573d6000803e3d6000fd5b505050506040513d6020811015610e4657600080fd5b50519050610e62612710610e5c83610bb8611f6e565b90611f93565b610e6a610b06565b1015610ea85760405162461bcd60e51b815260040180806020018281038252602e81526020018062003015602e913960400191505060405180910390fd5b6040517329fe8914e76da5ce2d90de98a64d0055f199d06d906000906729a2241af62c00009082818181858883f19350505050158015610eec573d6000803e3d6000fd5b506000338385600754604051610f01906123de565b80856001600160a01b03168152602001846001600160a01b03168152602001838152602001828152602001945050505050604051809103906000f080158015610f4e573d6000803e3d6000fd5b509050806001600160a01b031663b28fa152610f693361151d565b610f71610b06565b036040518263ffffffff1660e01b81526004018082815260200191505060206040518083038186803b158015610fa657600080fd5b505afa158015610fba573d6000803e3d6000fd5b505050506040513d6020811015610fd057600080fd5b505161101a576040805162461bcd60e51b8152602060048201526014602482015273496e73756666696369656e742066756e64696e6760601b604482015290519081900360640190fd5b611022611c69565b156111c057600560009054906101000a90046001600160a01b03166001600160a01b031663e5a6b10f6040518163ffffffff1660e01b815260040160206040518083038186803b15801561107557600080fd5b505afa158015611089573d6000803e3d6000fd5b505050506040513d602081101561109f57600080fd5b50516001600160a01b0384811691161480156111465750611142612710610e5c612904600560009054906101000a90046001600160a01b03166001600160a01b031663a035b1fe6040518163ffffffff1660e01b815260040160206040518083038186803b15801561111057600080fd5b505afa158015611124573d6000803e3d6000fd5b505050506040513d602081101561113a57600080fd5b505190611f6e565b8410155b6111825760405162461bcd60e51b815260040180806020018281038252603c81526020018062002fd9603c913960400191505060405180910390fd5b6111c06040518060400160405280601c81526020017f4f66666572207265706c61636564206279206869676865722062696400000000815250611fa6565b600580546001600160a01b038084166001600160a01b0319909216919091179182905560408051878152868316602082015292909116828201525133917f34e649ce0ed38b68d4a32f1f8fb75a61e4f3a0444c5bae222d20aaf2c3db3677919081900360600190a250505050565b60035461010090046001600160a01b031681565b61124a611c69565b8015611258575060085460ff165b61129c576040805162461bcd60e51b815260206004820152601060248201526f3737903832b73234b7339037b33332b960811b604482015290519081900360640190fd5b600560009054906101000a90046001600160a01b03166001600160a01b03166390e64d136040518163ffffffff1660e01b815260040160206040518083038186803b1580156112ea57600080fd5b505afa1580156112fe573d6000803e3d6000fd5b505050506040513d602081101561131457600080fd5b5051156113485761134360405180604001604052806007815260200166115e1c1a5c995960ca1b815250611fa6565b61151b565b600560009054906101000a90046001600160a01b03166001600160a01b031663cf42a9276040518163ffffffff1660e01b815260040160206040518083038186803b15801561139657600080fd5b505afa1580156113aa573d6000803e3d6000fd5b505050506040513d60208110156113c057600080fd5b5051156113fa5761134360405180604001604052806012815260200171139bdd08195b9bdd59da081cdd5c1c1bdc9d60721b815250611fa6565b600554604080516338a86c5760e11b815290516001600160a01b039092169163b28fa1529161147b918491637150d8ae916004808301926020929190829003018186803b15801561144a57600080fd5b505afa15801561145e573d6000803e3d6000fd5b505050506040513d602081101561147457600080fd5b505161151d565b611483610b06565b036040518263ffffffff1660e01b81526004018082815260200191505060206040518083038186803b1580156114b857600080fd5b505afa1580156114cc573d6000803e3d6000fd5b505050506040513d60208110156114e257600080fd5b505161151b5761151b60405180604001604052806012815260200171496e73756666696369656e742066756e647360701b815250611fa6565b565b6001600160a01b031660009081526020819052604090205490565b60085460ff1661157c576040805162461bcd60e51b815260206004820152600a6024820152696e6f742061637469766560b01b604482015290519081900360640190fd5b600033905061159b612710610e5c600654611595610b06565b90611f6e565b6115a48261151d565b10156115ec576040805162461bcd60e51b8152602060048201526012602482015271145d5bdc9d5b481b9bdd081c995858da195960721b604482015290519081900360640190fd5b6115f4611c69565b1561161857611601610c64565b611609611242565b611611611c69565b1561161857fe5b61162481826001611c7a565b604080516001600160a01b038316815290517f3b6b79a09e9fd230e8591b65c97236bf7df7a604edf733db0658e66b0e6eb2a99181900360200190a150565b61166b611c69565b8015611679575060085460ff165b6116bd576040805162461bcd60e51b815260206004820152601060248201526f3737903832b73234b7339037b33332b960811b604482015290519081900360640190fd5b6005546001600160a01b0316635ff0cf8433610cd98161151d565b6060600360019054906101000a90046001600160a01b03166001600160a01b03166395d89b416040518163ffffffff1660e01b815260040160006040518083038186803b15801561172857600080fd5b505afa15801561173c573d6000803e3d6000fd5b505050506040513d6000823e601f3d908101601f19168201604052602081101561176557600080fd5b8101908080516040519392919084600160201b82111561178457600080fd5b90830190602082018581111561179957600080fd5b8251600160201b8111828201881017156117b257600080fd5b82525081516020918201929091019080838360005b838110156117df5781810151838201526020016117c7565b50505050905090810190601f16801561180c5780820380516001836020036101000a031916815260200191505b506040525050506040516020018080601160fa1b8152506001018280519060200190808383602083106107a35780518252601f199092019160209182019101610784565b60065481565b3360008181526001602090815260408083206001600160a01b038716845290915281205490916107ef918590610b4e9086611ebc565b60035461010090046001600160a01b031633146118a857600080fd5b610d338484612163565b60006107ef338484611e1b565b6118c7611c69565b15611909576040805162461bcd60e51b815260206004820152600d60248201526c6f666665722070656e64696e6760981b604482015290519081900360640190fd5b600354604080516323b872dd60e01b81523360048201523060248201526044810184905290516101009092046001600160a01b0316916323b872dd916064808201926020929091908290030181600087803b15801561196757600080fd5b505af115801561197b573d6000803e3d6000fd5b505050506040513d602081101561199157600080fd5b505161199c57600080fd5b6119a68282612163565b5050565b6005546001600160a01b031681565b6001600160a01b03918216600090815260016020908152604080832093909416825291909152205490565b600854600090819060ff1615611a2a576040805162461bcd60e51b815260206004820152600660248201526561637469766560d01b604482015290519081900360640190fd5b611a343384611edb565b6000611a4b60045485611f6e90919063ffffffff16565b6003546040805163a9059cbb60e01b81523360048201526024810184905290519293506101009091046001600160a01b03169163a9059cbb916044808201926020929091908290030181600087803b158015611aa657600080fd5b505af1158015611aba573d6000803e3d6000fd5b505050506040513d6020811015611ad057600080fd5b5051611adb57600080fd5b60035461010090046001600160a01b031694909350915050565b611afd611c69565b8015611b0b575060085460ff165b611b4f576040805162461bcd60e51b815260206004820152601060248201526f3737903832b73234b7339037b33332b960811b604482015290519081900360640190fd5b600560009054906101000a90046001600160a01b03166001600160a01b0316637150d8ae6040518163ffffffff1660e01b815260040160206040518083038186803b158015611b9d57600080fd5b505afa158015611bb1573d6000803e3d6000fd5b505050506040513d6020811015611bc757600080fd5b50516001600160a01b03163314611bdd57600080fd5b61151b6040518060400160405280600981526020016810d85b98d95b1b195960ba1b815250611fa6565b6001600160a01b03808416600081815260016020908152604080832094871680845294825291829020859055815185815291517f8c5be1e5ebec7d5bd14f71427d1e84f3dd0314c0f7b2291e5b200ac8c7c3b9259281900390910190a3505050565b6005546001600160a01b0316151590565b6000611c858461151d565b90506000611c91610b06565b6008805460ff191690559050611ca6826119e4565b5060009050611cb58284611ebc565b6003546040805163a9059cbb60e01b81526001600160a01b038a81166004830152602482018590529151939450610100909204169163a9059cbb916044808201926020929091908290030181600087803b158015611d1257600080fd5b505af1158015611d26573d6000803e3d6000fd5b505050506040513d6020811015611d3c57600080fd5b5051611d4757600080fd5b60038054610100600160a81b0319166101006001600160a01b03888116820292909217928390556004879055909104166323b872dd8730611d888886611f6e565b6040518463ffffffff1660e01b815260040180846001600160a01b03168152602001836001600160a01b031681526020018281526020019350505050602060405180830381600087803b158015611dde57600080fd5b505af1158015611df2573d6000803e3d6000fd5b505050506040513d6020811015611e0857600080fd5b5051611e1357600080fd5b505050505050565b611e268383836121fb565b611e2e611c69565b8015611e3c575060085460ff165b15611eb75760055460408051636240a7d760e11b81526001600160a01b0386811660048301528581166024830152604482018590529151919092169163c4814fae91606480830192600092919082900301818387803b158015611e9e57600080fd5b505af1158015611eb2573d6000803e3d6000fd5b505050505b505050565b600082821115611ec857fe5b50900390565b818101828110156107f357fe5b611ee582826122ba565b611eed611c69565b8015611efb575060085460ff165b156119a65760055460408051636240a7d760e11b81526001600160a01b03858116600483015260006024830181905260448301869052925193169263c4814fae9260648084019391929182900301818387803b158015611f5a57600080fd5b505af1158015611e13573d6000803e3d6000fd5b600082611f7d575060006107f3565b5081810281838281611f8b57fe5b04146107f357fe5b6000818381611f9e57fe5b049392505050565b600554604080516338a86c5760e11b815290516000926001600160a01b031691637150d8ae916004808301926020929190829003018186803b158015611feb57600080fd5b505afa158015611fff573d6000803e3d6000fd5b505050506040513d602081101561201557600080fd5b50516005546040805133808252600060208381018290526001600160a01b039586166060850181905260809585018681528a51968601969096528951979850958816967fc88f58ae9feb0742d9422f604dd3c1be6d02818f8dec340c5061f428b554e97596939592948a94939092909160a08401918601908083838a5b838110156120aa578181015183820152602001612092565b50505050905090810190601f1680156120d75780820380516001836020036101000a031916815260200191505b509550505050505060405180910390a2600560009054906101000a90046001600160a01b03166001600160a01b03166341c0e1b56040518163ffffffff1660e01b8152600401600060405180830381600087803b15801561213757600080fd5b505af115801561214b573d6000803e3d6000fd5b5050600580546001600160a01b031916905550505050565b61216b611c69565b156121ad576040805162461bcd60e51b815260206004820152600d60248201526c6f666665722070656e64696e6760981b604482015290519081900360640190fd5b60085460ff166121f1576040805162461bcd60e51b815260206004820152600a6024820152696e6f742061637469766560b01b604482015290519081900360640190fd5b6119a68282612342565b6001600160a01b03821661220e57600080fd5b6001600160a01b0383166000908152602081905260409020546122319082611ebc565b6001600160a01b0380851660009081526020819052604080822093909355908416815220546122609082611ece565b6001600160a01b038084166000818152602081815260409182902094909455805185815290519193928716927fddf252ad1be2c89b69c2b068fc378daa952ba7f163c4a11628f55a4df523b3ef92918290030190a3505050565b6002546122c79082611ebc565b6002556001600160a01b0382166000908152602081905260409020546122ed9082611ebc565b6001600160a01b038316600081815260208181526040808320949094558351858152935191937fddf252ad1be2c89b69c2b068fc378daa952ba7f163c4a11628f55a4df523b3ef929081900390910190a35050565b6001600160a01b03821661235557600080fd5b6002546123629082611ece565b6002556001600160a01b0382166000908152602081905260409020546123889082611ece565b6001600160a01b0383166000818152602081815260408083209490945583518581529351929391927fddf252ad1be2c89b69c2b068fc378daa952ba7f163c4a11628f55a4df523b3ef9281900390910190a35050565b610bec80620023ed8339019056fe608060405234801561001057600080fd5b50604051610bec380380610bec8339818101604052608081101561003357600080fd5b50805160208201516040830151606090930151919290918161008c576040805162461bcd60e51b815260206004820152600d60248201526c696e76616c696420707269636560981b604482015290519081900360640190fd5b600180546001600160a01b03199081163317909155600280546001600160a01b03968716908316179055600380549490951693169290921790925560049190915560005542600555610b09806100e36000396000f3fe608060405234801561001057600080fd5b506004361061012c5760003560e01c8063b1610d7e116100ad578063cf42a92711610071578063cf42a927146102b4578063d7be4e29146102bc578063e5a6b10f146102c4578063fa7f1bae146102cc578063fb286c65146102d45761012c565b8063b1610d7e14610249578063b28fa15214610251578063b5b47f421461026e578063b80777ea14610276578063c4814fae1461027e5761012c565b80635ff0cf84116100f45780635ff0cf84146101c35780637150d8ae146101ef5780638f1b4c6f1461021357806390e64d1314610239578063a035b1fe146102415761012c565b80630c43cd88146101315780631703a0181461014b57806341c0e1b514610153578063448ab4c61461015d5780634b91562e14610197575b600080fd5b6101396102dc565b60408051918252519081900360200190f35b6101396102e3565b61015b6102e9565b005b6101836004803603602081101561017357600080fd5b50356001600160a01b0316610343565b604080519115158252519081900360200190f35b61015b600480360360408110156101ad57600080fd5b506001600160a01b038135169060200135610376565b61015b600480360360408110156101d957600080fd5b506001600160a01b038135169060200135610421565b6101f76104c8565b604080516001600160a01b039092168252519081900360200190f35b6101836004803603602081101561022957600080fd5b50356001600160a01b03166104d7565b6101836104e0565b610139610504565b61013961050a565b6101836004803603602081101561026757600080fd5b5035610511565b61013961064e565b610139610654565b61015b6004803603606081101561029457600080fd5b506001600160a01b0381358116916020810135909116906040013561065a565b6101836106f0565b61018361083b565b6101f76108f4565b610183610903565b610139610927565b6276a70081565b60005481565b6001546001600160a01b03163314610335576040805162461bcd60e51b815260206004820152600a6024820152691b9bdd081c185c995b9d60b21b604482015290519081900360640190fd5b6002546001600160a01b0316ff5b600060015b6001600160a01b03831660009081526008602052604090205460ff16600281111561036f57fe5b1492915050565b6001546001600160a01b031633146103c2576040805162461bcd60e51b815260206004820152600a6024820152691b9bdd081c185c995b9d60b21b604482015290519081900360640190fd5b6103ca610903565b610411576040805162461bcd60e51b81526020600482015260136024820152722a3432903b37ba32903430b99032b73232b21760691b604482015290519081900360640190fd5b61041d6002828461092d565b5050565b6001546001600160a01b0316331461046d576040805162461bcd60e51b815260206004820152600a6024820152691b9bdd081c185c995b9d60b21b604482015290519081900360640190fd5b610475610903565b6104bc576040805162461bcd60e51b81526020600482015260136024820152722a3432903b37ba32903430b99032b73232b21760691b604482015290519081900360640190fd5b61041d6001828461092d565b6002546001600160a01b031681565b60006002610348565b6000806104f86005544261097690919063ffffffff16565b6276a700109150505b90565b60045481565b624f1a0081565b600354600254604080516370a0823160e01b81526001600160a01b03928316600482015290516000939290921691839183916370a0823191602480820192602092909190829003018186803b15801561056957600080fd5b505afa15801561057d573d6000803e3d6000fd5b505050506040513d602081101561059357600080fd5b505160025460015460408051636eb1769f60e11b81526001600160a01b0393841660048201529183166024830152519293506000929185169163dd62ed3e91604480820192602092909190829003018186803b1580156105f257600080fd5b505afa158015610606573d6000803e3d6000fd5b505050506040513d602081101561061c57600080fd5b505160045490915060009061063290879061098d565b90508281111580156106445750818111155b9695505050505050565b60065481565b60055481565b6001546001600160a01b031633146106a6576040805162461bcd60e51b815260206004820152600a6024820152691b9bdd081c185c995b9d60b21b604482015290519081900360640190fd5b6106ae610903565b156106eb576001600160a01b0380841660009081526008602052604080822054928516825290205460ff91821691166106e88282856109b2565b50505b505050565b60006106fa610903565b1561080f57600054600154604080516318160ddd60e01b81529051610807926001600160a01b0316916318160ddd916004808301926020929190829003018186803b15801561074857600080fd5b505afa15801561075c573d6000803e3d6000fd5b505050506040513d602081101561077257600080fd5b5051600654600154604080516318160ddd60e01b8152905161080193612710936107fb9391926001600160a01b03909116916318160ddd916004808301926020929190829003018186803b1580156107c957600080fd5b505afa1580156107dd573d6000803e3d6000fd5b505050506040513d60208110156107f357600080fd5b505190610976565b9061098d565b90610ab3565b109050610501565b60005461080761082c600654600754610ac690919063ffffffff16565b6007546108019061271061098d565b6000610845610903565b156108d757600054600154604080516318160ddd60e01b815290516108ce926001600160a01b0316916318160ddd916004808301926020929190829003018186803b15801561089357600080fd5b505afa1580156108a7573d6000803e3d6000fd5b505050506040513d60208110156108bd57600080fd5b50516007546108019061271061098d565b10159050610501565b6000546108ce61082c600654600754610ac690919063ffffffff16565b6003546001600160a01b031681565b60008061091b6005544261097690919063ffffffff16565b624f1a00101591505090565b60075481565b6001600160a01b0381166000908152600860205260409020805460ff811691859160ff1916600183600281111561096057fe5b02179055506109708185856109b2565b50505050565b60008282111561098257fe5b508082035b92915050565b60008261099c57506000610987565b50818102818382816109aa57fe5b041461098757fe5b8160028111156109be57fe5b8360028111156109ca57fe5b146106eb5760028360028111156109dd57fe5b14156109f8576006546109f09082610976565b600655610a1d565b6001836002811115610a0657fe5b1415610a1d57600754610a199082610976565b6007555b6002826002811115610a2b57fe5b1415610a4657600654610a3e9082610ac6565b600655610a6b565b6001826002811115610a5457fe5b1415610a6b57600754610a679082610ac6565b6007555b7f8fcc50c2c4edd06d51ae66e9e21ed76b32a1766c57f491788e1aa24a1b58c256600754600654604051808381526020018281526020019250505060405180910390a1505050565b6000818381610abe57fe5b049392505050565b8181018281101561098757fefea2646970667358221220cd9518d0a9e50110ca0074a02bb1096c1d1d4cd835496ae38fa53fae5643ee2d64736f6c634300070100334e6577206f6666657273206d757374206265206174206c6561737420352520686967686572207468616e207468652070656e64696e67206f666665725468697320636f6e747261637420646f6573206e6f7420726570726573656e7420656e6f75676820657175697479a2646970667358221220144243cd913fb110298979dbaf344975dd768a75e7e04c388b6b77c62b30b30e64736f6c63430007010033",
    "sourcePath": "c:/Users/luziu/Documents/aktionariat/contracts/src/ERC20Draggable.sol",
    "compiler": {
        "name": "solc",
        "version": "0.7.1+commit.f4a555be"
    },
    "functionHashes": {
        "acquisitionQuorum()": "3549788a",
        "active()": "02fb0c5e",
        "allowance(address,address)": "dd62ed3e",
        "approve(address,uint256)": "095ea7b3",
        "balanceOf(address)": "70a08231",
        "burn(uint256)": "42966c68",
        "cancelAcquisition()": "e1b8c38e",
        "completeAcquisition()": "141c7068",
        "contestAcquisition()": "6f4b18df",
        "decimals()": "313ce567",
        "decreaseAllowance(address,uint256)": "a457c2d7",
        "increaseAllowance(address,uint256)": "39509351",
        "initiateAcquisition(uint256,address)": "49b210b7",
        "migrate()": "8fd3ab80",
        "migrationQuorum()": "9e8a9a5a",
        "name()": "06fdde03",
        "offer()": "c028df06",
        "onTokenTransfer(address,uint256,bytes)": "a4c0ed36",
        "symbol()": "95d89b41",
        "totalSupply()": "18160ddd",
        "transfer(address,uint256)": "a9059cbb",
        "transferAndCall(address,uint256,bytes)": "4000aea0",
        "transferFrom(address,address,uint256)": "23b872dd",
        "unwrap(uint256)": "de0e9a3e",
        "unwrapConversionFactor()": "0832e470",
        "voteNo()": "41c12a70",
        "voteYes()": "90cf581c",
        "wrap(address,uint256)": "bf376c7a",
        "wrapped()": "50e70d48"
    },
    "gasEstimates": {
        "creation": {
            "codeDepositCost": "2481600",
            "executionCost": "infinite",
            "totalCost": "infinite"
        },
        "external": {
            "acquisitionQuorum()": "1066",
            "active()": "1057",
            "allowance(address,address)": "1316",
            "approve(address,uint256)": "22366",
            "balanceOf(address)": "1235",
            "burn(uint256)": "infinite",
            "cancelAcquisition()": "infinite",
            "completeAcquisition()": "infinite",
            "contestAcquisition()": "infinite",
            "decimals()": "1059",
            "decreaseAllowance(address,uint256)": "23400",
            "increaseAllowance(address,uint256)": "infinite",
            "initiateAcquisition(uint256,address)": "infinite",
            "migrate()": "infinite",
            "migrationQuorum()": "1109",
            "name()": "infinite",
            "offer()": "1081",
            "onTokenTransfer(address,uint256,bytes)": "infinite",
            "symbol()": "infinite",
            "totalSupply()": "1088",
            "transfer(address,uint256)": "infinite",
            "transferAndCall(address,uint256,bytes)": "infinite",
            "transferFrom(address,address,uint256)": "infinite",
            "unwrap(uint256)": "infinite",
            "unwrapConversionFactor()": "1089",
            "voteNo()": "infinite",
            "voteYes()": "infinite",
            "wrap(address,uint256)": "infinite",
            "wrapped()": "1094"
        },
        "internal": {
            "_burn(address,uint256)": "infinite",
            "_transfer(address,address,uint256)": "infinite",
            "dowrap(address,uint256)": "infinite",
            "invertHoldings(address,address,uint256)": "infinite",
            "killAcquisition(string memory)": "infinite",
            "offerExists()": "839"
        }
    }
}