{
    "contractName": "ERC20Basic",
    "abi": [
        {
            "inputs": [
                {
                    "internalType": "address",
                    "name": "admin",
                    "type": "address"
                },
                {
                    "internalType": "string",
                    "name": "name_",
                    "type": "string"
                },
                {
                    "internalType": "string",
                    "name": "symbol_",
                    "type": "string"
                },
                {
                    "internalType": "uint8",
                    "name": "decimals",
                    "type": "uint8"
                }
            ],
            "stateMutability": "nonpayable",
            "type": "constructor"
        },
        {
            "anonymous": false,
            "inputs": [
                {
                    "indexed": true,
                    "internalType": "address",
                    "name": "owner",
                    "type": "address"
                },
                {
                    "indexed": true,
                    "internalType": "address",
                    "name": "spender",
                    "type": "address"
                },
                {
                    "indexed": false,
                    "internalType": "uint256",
                    "name": "value",
                    "type": "uint256"
                }
            ],
            "name": "Approval",
            "type": "event"
        },
        {
            "anonymous": false,
            "inputs": [
                {
                    "indexed": true,
                    "internalType": "address",
                    "name": "previousOwner",
                    "type": "address"
                },
                {
                    "indexed": true,
                    "internalType": "address",
                    "name": "newOwner",
                    "type": "address"
                }
            ],
            "name": "OwnershipTransferred",
            "type": "event"
        },
        {
            "anonymous": false,
            "inputs": [
                {
                    "indexed": true,
                    "internalType": "address",
                    "name": "from",
                    "type": "address"
                },
                {
                    "indexed": true,
                    "internalType": "address",
                    "name": "to",
                    "type": "address"
                },
                {
                    "indexed": false,
                    "internalType": "uint256",
                    "name": "value",
                    "type": "uint256"
                }
            ],
            "name": "Transfer",
            "type": "event"
        },
        {
            "inputs": [
                {
                    "internalType": "address",
                    "name": "owner",
                    "type": "address"
                },
                {
                    "internalType": "address",
                    "name": "spender",
                    "type": "address"
                }
            ],
            "name": "allowance",
            "outputs": [
                {
                    "internalType": "uint256",
                    "name": "",
                    "type": "uint256"
                }
            ],
            "stateMutability": "view",
            "type": "function"
        },
        {
            "inputs": [
                {
                    "internalType": "address",
                    "name": "spender",
                    "type": "address"
                },
                {
                    "internalType": "uint256",
                    "name": "value",
                    "type": "uint256"
                }
            ],
            "name": "approve",
            "outputs": [
                {
                    "internalType": "bool",
                    "name": "",
                    "type": "bool"
                }
            ],
            "stateMutability": "nonpayable",
            "type": "function"
        },
        {
            "inputs": [
                {
                    "internalType": "address",
                    "name": "account",
                    "type": "address"
                }
            ],
            "name": "balanceOf",
            "outputs": [
                {
                    "internalType": "uint256",
                    "name": "",
                    "type": "uint256"
                }
            ],
            "stateMutability": "view",
            "type": "function"
        },
        {
            "inputs": [],
            "name": "decimals",
            "outputs": [
                {
                    "internalType": "uint8",
                    "name": "",
                    "type": "uint8"
                }
            ],
            "stateMutability": "view",
            "type": "function"
        },
        {
            "inputs": [
                {
                    "internalType": "address",
                    "name": "target",
                    "type": "address"
                },
                {
                    "internalType": "uint256",
                    "name": "amount",
                    "type": "uint256"
                }
            ],
            "name": "mint",
            "outputs": [],
            "stateMutability": "nonpayable",
            "type": "function"
        },
        {
            "inputs": [],
            "name": "name",
            "outputs": [
                {
                    "internalType": "string",
                    "name": "",
                    "type": "string"
                }
            ],
            "stateMutability": "view",
            "type": "function"
        },
        {
            "inputs": [],
            "name": "owner",
            "outputs": [
                {
                    "internalType": "address",
                    "name": "",
                    "type": "address"
                }
            ],
            "stateMutability": "view",
            "type": "function"
        },
        {
            "inputs": [
                {
                    "internalType": "string",
                    "name": "_symbol",
                    "type": "string"
                },
                {
                    "internalType": "string",
                    "name": "_name",
                    "type": "string"
                }
            ],
            "name": "setName",
            "outputs": [],
            "stateMutability": "nonpayable",
            "type": "function"
        },
        {
            "inputs": [],
            "name": "symbol",
            "outputs": [
                {
                    "internalType": "string",
                    "name": "",
                    "type": "string"
                }
            ],
            "stateMutability": "view",
            "type": "function"
        },
        {
            "inputs": [],
            "name": "totalSupply",
            "outputs": [
                {
                    "internalType": "uint256",
                    "name": "",
                    "type": "uint256"
                }
            ],
            "stateMutability": "view",
            "type": "function"
        },
        {
            "inputs": [
                {
                    "internalType": "address",
                    "name": "recipient",
                    "type": "address"
                },
                {
                    "internalType": "uint256",
                    "name": "amount",
                    "type": "uint256"
                }
            ],
            "name": "transfer",
            "outputs": [
                {
                    "internalType": "bool",
                    "name": "",
                    "type": "bool"
                }
            ],
            "stateMutability": "nonpayable",
            "type": "function"
        },
        {
            "inputs": [
                {
                    "internalType": "address",
                    "name": "recipient",
                    "type": "address"
                },
                {
                    "internalType": "uint256",
                    "name": "amount",
                    "type": "uint256"
                },
                {
                    "internalType": "bytes",
                    "name": "data",
                    "type": "bytes"
                }
            ],
            "name": "transferAndCall",
            "outputs": [
                {
                    "internalType": "bool",
                    "name": "",
                    "type": "bool"
                }
            ],
            "stateMutability": "nonpayable",
            "type": "function"
        },
        {
            "inputs": [
                {
                    "internalType": "address",
                    "name": "sender",
                    "type": "address"
                },
                {
                    "internalType": "address",
                    "name": "recipient",
                    "type": "address"
                },
                {
                    "internalType": "uint256",
                    "name": "amount",
                    "type": "uint256"
                }
            ],
            "name": "transferFrom",
            "outputs": [
                {
                    "internalType": "bool",
                    "name": "",
                    "type": "bool"
                }
            ],
            "stateMutability": "nonpayable",
            "type": "function"
        },
        {
            "inputs": [
                {
                    "internalType": "address",
                    "name": "newOwner",
                    "type": "address"
                }
            ],
            "name": "transferOwnership",
            "outputs": [],
            "stateMutability": "nonpayable",
            "type": "function"
        }
    ],
    "bytecode": "60806040523480156200001157600080fd5b5060405162000ee938038062000ee9833981016040819052620000349162000235565b600380546001600160a01b038087166101009081026001600160a81b031990931660ff8616179290921792839055604051879387938793879387939290920416906000907f8be0079c531659141344cd1fd0a4f28419497f9722a3daafe3b4186f6b6457e0908290a3508251620000b3906004906020860190620000d8565b508151620000c9906005906020850190620000d8565b5050505050505050506200032c565b828054620000e690620002d9565b90600052602060002090601f0160209004810192826200010a576000855562000155565b82601f106200012557805160ff191683800117855562000155565b8280016001018555821562000155579182015b828111156200015557825182559160200191906001019062000138565b506200016392915062000167565b5090565b5b8082111562000163576000815560010162000168565b600082601f8301126200019057600080fd5b81516001600160401b0380821115620001ad57620001ad62000316565b604051601f8301601f19908116603f01168101908282118183101715620001d857620001d862000316565b81604052838152602092508683858801011115620001f557600080fd5b600091505b83821015620002195785820183015181830184015290820190620001fa565b838211156200022b5760008385830101525b9695505050505050565b600080600080608085870312156200024c57600080fd5b84516001600160a01b03811681146200026457600080fd5b60208601519094506001600160401b03808211156200028257600080fd5b62000290888389016200017e565b94506040870151915080821115620002a757600080fd5b50620002b6878288016200017e565b925050606085015160ff81168114620002ce57600080fd5b939692955090935050565b600181811c90821680620002ee57607f821691505b602082108114156200031057634e487b7160e01b600052602260045260246000fd5b50919050565b634e487b7160e01b600052604160045260246000fd5b610bad806200033c6000396000f3fe608060405234801561001057600080fd5b50600436106100ea5760003560e01c80635c707f071161008c57806395d89b411161006657806395d89b4114610208578063a9059cbb14610210578063dd62ed3e14610223578063f2fde38b1461025c57600080fd5b80635c707f071461019c57806370a08231146101af5780638da5cb5b146101d857600080fd5b806323b872dd116100c857806323b872dd14610142578063313ce567146101555780634000aea01461017457806340c10f191461018757600080fd5b806306fdde03146100ef578063095ea7b31461010d57806318160ddd14610130575b600080fd5b6100f761026f565b6040516101049190610a69565b60405180910390f35b61012061011b3660046108ea565b6102fd565b6040519015158152602001610104565b6002545b604051908152602001610104565b6101206101503660046108ae565b610313565b6003546101629060ff1681565b60405160ff9091168152602001610104565b610120610182366004610914565b61036f565b61019a6101953660046108ea565b610414565b005b61019a6101aa3660046109bd565b61045a565b6101346101bd366004610859565b6001600160a01b031660009081526020819052604090205490565b6003546101f09061010090046001600160a01b031681565b6040516001600160a01b039091168152602001610104565b6100f76104b5565b61012061021e3660046108ea565b6104c2565b61013461023136600461087b565b6001600160a01b03918216600090815260016020908152604080832093909416825291909152205490565b61019a61026a366004610859565b6104cf565b6004805461027c90610b10565b80601f01602080910402602001604051908101604052809291908181526020018280546102a890610b10565b80156102f55780601f106102ca576101008083540402835291602001916102f5565b820191906000526020600020905b8154815290600101906020018083116102d857829003601f168201915b505050505081565b600061030a338484610565565b50600192915050565b60006103208484846105c7565b6001600160a01b0384166000908152600160209081526040808320338452909152902054600160ff1b81101561036457610364853361035f8685610af9565b610565565b506001949350505050565b60008061037c86866104c2565b9050801561040b57604051635260769b60e11b81526001600160a01b0387169063a4c0ed36906103b6903390899089908990600401610a21565b602060405180830381600087803b1580156103d057600080fd5b505af11580156103e4573d6000803e3d6000fd5b505050506040513d601f19601f82011682018060405250810190610408919061099b565b90505b95945050505050565b60035461010090046001600160a01b0316331461044c5760405162461bcd60e51b815260040161044390610abe565b60405180910390fd5b610456828261067b565b5050565b60035461010090046001600160a01b031633146104895760405162461bcd60e51b815260040161044390610abe565b815161049c906005906020850190610717565b5080516104b0906004906020840190610717565b505050565b6005805461027c90610b10565b600061030a3384846105c7565b60035461010090046001600160a01b031633146104fe5760405162461bcd60e51b815260040161044390610abe565b6003546040516001600160a01b0380841692610100900416907f8be0079c531659141344cd1fd0a4f28419497f9722a3daafe3b4186f6b6457e090600090a3600380546001600160a01b0390921661010002610100600160a81b0319909216919091179055565b6001600160a01b0383811660008181526001602090815260408083209487168084529482529182902085905590518481527f8c5be1e5ebec7d5bd14f71427d1e84f3dd0314c0f7b2291e5b200ac8c7c3b92591015b60405180910390a3505050565b6001600160a01b0382166105da57600080fd5b6001600160a01b03831660009081526020819052604081208054839290610602908490610af9565b90915550506001600160a01b0382166000908152602081905260408120805483929061062f908490610ae1565b92505081905550816001600160a01b0316836001600160a01b03167fddf252ad1be2c89b69c2b068fc378daa952ba7f163c4a11628f55a4df523b3ef836040516105ba91815260200190565b6001600160a01b03821661068e57600080fd5b80600260008282546106a09190610ae1565b90915550506001600160a01b038216600090815260208190526040812080548392906106cd908490610ae1565b90915550506040518181526001600160a01b038316906000907fddf252ad1be2c89b69c2b068fc378daa952ba7f163c4a11628f55a4df523b3ef9060200160405180910390a35050565b82805461072390610b10565b90600052602060002090601f016020900481019282610745576000855561078b565b82601f1061075e57805160ff191683800117855561078b565b8280016001018555821561078b579182015b8281111561078b578251825591602001919060010190610770565b5061079792915061079b565b5090565b5b80821115610797576000815560010161079c565b80356001600160a01b03811681146107c757600080fd5b919050565b600082601f8301126107dd57600080fd5b813567ffffffffffffffff808211156107f8576107f8610b61565b604051601f8301601f19908116603f0116810190828211818310171561082057610820610b61565b8160405283815286602085880101111561083957600080fd5b836020870160208301376000602085830101528094505050505092915050565b60006020828403121561086b57600080fd5b610874826107b0565b9392505050565b6000806040838503121561088e57600080fd5b610897836107b0565b91506108a5602084016107b0565b90509250929050565b6000806000606084860312156108c357600080fd5b6108cc846107b0565b92506108da602085016107b0565b9150604084013590509250925092565b600080604083850312156108fd57600080fd5b610906836107b0565b946020939093013593505050565b6000806000806060858703121561092a57600080fd5b610933856107b0565b935060208501359250604085013567ffffffffffffffff8082111561095757600080fd5b818701915087601f83011261096b57600080fd5b81358181111561097a57600080fd5b88602082850101111561098c57600080fd5b95989497505060200194505050565b6000602082840312156109ad57600080fd5b8151801515811461087457600080fd5b600080604083850312156109d057600080fd5b823567ffffffffffffffff808211156109e857600080fd5b6109f4868387016107cc565b93506020850135915080821115610a0a57600080fd5b50610a17858286016107cc565b9150509250929050565b6001600160a01b0385168152602081018490526060604082018190528101829052818360808301376000818301608090810191909152601f909201601f191601019392505050565b600060208083528351808285015260005b81811015610a9657858101830151858201604001528201610a7a565b81811115610aa8576000604083870101525b50601f01601f1916929092016040019392505050565b6020808252600990820152683737ba1037bbb732b960b91b604082015260600190565b60008219821115610af457610af4610b4b565b500190565b600082821015610b0b57610b0b610b4b565b500390565b600181811c90821680610b2457607f821691505b60208210811415610b4557634e487b7160e01b600052602260045260246000fd5b50919050565b634e487b7160e01b600052601160045260246000fd5b634e487b7160e01b600052604160045260246000fdfea26469706673582212209d2e2cd126d830165ee2d48a862614ec07cdfdb96318a6001b4844a6bd875dc564736f6c63430008060033",
    "sourcePath": "c:/Users/luziu/Documents/GitHub/contracts/src/ERC20Basic.sol",
    "compiler": {
        "name": "solc",
        "version": "0.8.6+commit.11564f7e"
    },
    "functionHashes": {
        "allowance(address,address)": "dd62ed3e",
        "approve(address,uint256)": "095ea7b3",
        "balanceOf(address)": "70a08231",
        "decimals()": "313ce567",
        "mint(address,uint256)": "40c10f19",
        "name()": "06fdde03",
        "owner()": "8da5cb5b",
        "setName(string,string)": "5c707f07",
        "symbol()": "95d89b41",
        "totalSupply()": "18160ddd",
        "transfer(address,uint256)": "a9059cbb",
        "transferAndCall(address,uint256,bytes)": "4000aea0",
        "transferFrom(address,address,uint256)": "23b872dd",
        "transferOwnership(address)": "f2fde38b"
    },
    "gasEstimates": {
        "creation": {
            "codeDepositCost": "597800",
            "executionCost": "infinite",
            "totalCost": "infinite"
        },
        "external": {
            "allowance(address,address)": "infinite",
            "approve(address,uint256)": "24573",
            "balanceOf(address)": "2585",
            "decimals()": "2358",
            "mint(address,uint256)": "infinite",
            "name()": "infinite",
            "owner()": "2415",
            "setName(string,string)": "infinite",
            "symbol()": "infinite",
            "totalSupply()": "2349",
            "transfer(address,uint256)": "51157",
            "transferAndCall(address,uint256,bytes)": "infinite",
            "transferFrom(address,address,uint256)": "infinite",
            "transferOwnership(address)": "30486"
        }
    }
}