{
    "contractName": "ERC20Draggable",
    "abi": [
        {
            "inputs": [
                {
                    "internalType": "address",
                    "name": "wrappedToken",
                    "type": "address"
                },
                {
                    "internalType": "uint256",
                    "name": "migrationQuorumInBIPS_",
                    "type": "uint256"
                },
                {
                    "internalType": "uint256",
                    "name": "acquisitionQuorum_",
                    "type": "uint256"
                },
                {
                    "internalType": "address",
                    "name": "currencyAddress",
                    "type": "address"
                }
            ],
            "stateMutability": "nonpayable",
            "type": "constructor"
        },
        {
            "anonymous": false,
            "inputs": [
                {
                    "indexed": true,
                    "internalType": "address",
                    "name": "owner",
                    "type": "address"
                },
                {
                    "indexed": true,
                    "internalType": "address",
                    "name": "spender",
                    "type": "address"
                },
                {
                    "indexed": false,
                    "internalType": "uint256",
                    "name": "value",
                    "type": "uint256"
                }
            ],
            "name": "Approval",
            "type": "event"
        },
        {
            "anonymous": false,
            "inputs": [
                {
                    "indexed": false,
                    "internalType": "address",
                    "name": "newContractAddress",
                    "type": "address"
                }
            ],
            "name": "MigrationSucceeded",
            "type": "event"
        },
        {
            "anonymous": false,
            "inputs": [
                {
                    "indexed": true,
                    "internalType": "address",
                    "name": "buyer",
                    "type": "address"
                },
                {
                    "indexed": false,
                    "internalType": "uint256",
                    "name": "pricePerShare",
                    "type": "uint256"
                },
                {
                    "indexed": false,
                    "internalType": "address",
                    "name": "offerContract",
                    "type": "address"
                }
            ],
            "name": "OfferCreated",
            "type": "event"
        },
        {
            "anonymous": false,
            "inputs": [
                {
                    "indexed": true,
                    "internalType": "address",
                    "name": "buyer",
                    "type": "address"
                },
                {
                    "indexed": false,
                    "internalType": "address",
                    "name": "sender",
                    "type": "address"
                },
                {
                    "indexed": false,
                    "internalType": "bool",
                    "name": "success",
                    "type": "bool"
                },
                {
                    "indexed": false,
                    "internalType": "string",
                    "name": "message",
                    "type": "string"
                },
                {
                    "indexed": false,
                    "internalType": "address",
                    "name": "offerContract",
                    "type": "address"
                }
            ],
            "name": "OfferEnded",
            "type": "event"
        },
        {
            "anonymous": false,
            "inputs": [
                {
                    "indexed": true,
                    "internalType": "address",
                    "name": "from",
                    "type": "address"
                },
                {
                    "indexed": true,
                    "internalType": "address",
                    "name": "to",
                    "type": "address"
                },
                {
                    "indexed": false,
                    "internalType": "uint256",
                    "name": "value",
                    "type": "uint256"
                }
            ],
            "name": "Transfer",
            "type": "event"
        },
        {
            "inputs": [],
            "name": "acquisitionQuorum",
            "outputs": [
                {
                    "internalType": "uint256",
                    "name": "",
                    "type": "uint256"
                }
            ],
            "stateMutability": "view",
            "type": "function"
        },
        {
            "inputs": [],
            "name": "active",
            "outputs": [
                {
                    "internalType": "bool",
                    "name": "",
                    "type": "bool"
                }
            ],
            "stateMutability": "view",
            "type": "function"
        },
        {
            "inputs": [
                {
                    "internalType": "address",
                    "name": "owner",
                    "type": "address"
                },
                {
                    "internalType": "address",
                    "name": "spender",
                    "type": "address"
                }
            ],
            "name": "allowance",
            "outputs": [
                {
                    "internalType": "uint256",
                    "name": "",
                    "type": "uint256"
                }
            ],
            "stateMutability": "view",
            "type": "function"
        },
        {
            "inputs": [
                {
                    "internalType": "address",
                    "name": "spender",
                    "type": "address"
                },
                {
                    "internalType": "uint256",
                    "name": "value",
                    "type": "uint256"
                }
            ],
            "name": "approve",
            "outputs": [
                {
                    "internalType": "bool",
                    "name": "",
                    "type": "bool"
                }
            ],
            "stateMutability": "nonpayable",
            "type": "function"
        },
        {
            "inputs": [
                {
                    "internalType": "address",
                    "name": "account",
                    "type": "address"
                }
            ],
            "name": "balanceOf",
            "outputs": [
                {
                    "internalType": "uint256",
                    "name": "",
                    "type": "uint256"
                }
            ],
            "stateMutability": "view",
            "type": "function"
        },
        {
            "inputs": [
                {
                    "internalType": "uint256",
                    "name": "amount",
                    "type": "uint256"
                }
            ],
            "name": "burn",
            "outputs": [],
            "stateMutability": "nonpayable",
            "type": "function"
        },
        {
            "inputs": [],
            "name": "cancelAcquisition",
            "outputs": [],
            "stateMutability": "nonpayable",
            "type": "function"
        },
        {
            "inputs": [],
            "name": "completeAcquisition",
            "outputs": [],
            "stateMutability": "nonpayable",
            "type": "function"
        },
        {
            "inputs": [],
            "name": "contestAcquisition",
            "outputs": [],
            "stateMutability": "nonpayable",
            "type": "function"
        },
        {
            "inputs": [
                {
                    "internalType": "address",
                    "name": "spender",
                    "type": "address"
                },
                {
                    "internalType": "uint256",
                    "name": "subtractedValue",
                    "type": "uint256"
                }
            ],
            "name": "decreaseAllowance",
            "outputs": [
                {
                    "internalType": "bool",
                    "name": "",
                    "type": "bool"
                }
            ],
            "stateMutability": "nonpayable",
            "type": "function"
        },
        {
            "inputs": [],
            "name": "getCurrencyContract",
            "outputs": [
                {
                    "internalType": "address",
                    "name": "",
                    "type": "address"
                }
            ],
            "stateMutability": "view",
            "type": "function"
        },
        {
            "inputs": [],
            "name": "getPendingOffer",
            "outputs": [
                {
                    "internalType": "address",
                    "name": "",
                    "type": "address"
                }
            ],
            "stateMutability": "view",
            "type": "function"
        },
        {
            "inputs": [],
            "name": "getWrappedContract",
            "outputs": [
                {
                    "internalType": "address",
                    "name": "",
                    "type": "address"
                }
            ],
            "stateMutability": "view",
            "type": "function"
        },
        {
            "inputs": [
                {
                    "internalType": "address",
                    "name": "spender",
                    "type": "address"
                },
                {
                    "internalType": "uint256",
                    "name": "addedValue",
                    "type": "uint256"
                }
            ],
            "name": "increaseAllowance",
            "outputs": [
                {
                    "internalType": "bool",
                    "name": "",
                    "type": "bool"
                }
            ],
            "stateMutability": "nonpayable",
            "type": "function"
        },
        {
            "inputs": [
                {
                    "internalType": "uint256",
                    "name": "pricePerShare",
                    "type": "uint256"
                }
            ],
            "name": "initiateAcquisition",
            "outputs": [],
            "stateMutability": "nonpayable",
            "type": "function"
        },
        {
            "inputs": [],
            "name": "licenseFee",
            "outputs": [
                {
                    "internalType": "uint256",
                    "name": "",
                    "type": "uint256"
                }
            ],
            "stateMutability": "view",
            "type": "function"
        },
        {
            "inputs": [],
            "name": "licenseFeeRecipient",
            "outputs": [
                {
                    "internalType": "address",
                    "name": "",
                    "type": "address"
                }
            ],
            "stateMutability": "view",
            "type": "function"
        },
        {
            "inputs": [],
            "name": "migrate",
            "outputs": [],
            "stateMutability": "nonpayable",
            "type": "function"
        },
        {
            "inputs": [],
            "name": "migrationQuorum",
            "outputs": [
                {
                    "internalType": "uint256",
                    "name": "",
                    "type": "uint256"
                }
            ],
            "stateMutability": "view",
            "type": "function"
        },
        {
            "inputs": [],
            "name": "offer",
            "outputs": [
                {
                    "internalType": "contract Acquisition",
                    "name": "",
                    "type": "address"
                }
            ],
            "stateMutability": "view",
            "type": "function"
        },
        {
            "inputs": [],
            "name": "offerExists",
            "outputs": [
                {
                    "internalType": "bool",
                    "name": "",
                    "type": "bool"
                }
            ],
            "stateMutability": "view",
            "type": "function"
        },
        {
            "inputs": [
                {
                    "internalType": "address",
                    "name": "from",
                    "type": "address"
                },
                {
                    "internalType": "uint256",
                    "name": "amount",
                    "type": "uint256"
                },
                {
                    "internalType": "bytes",
                    "name": "",
                    "type": "bytes"
                }
            ],
            "name": "onTokenTransfer",
            "outputs": [],
            "stateMutability": "nonpayable",
            "type": "function"
        },
        {
            "inputs": [],
            "name": "totalSupply",
            "outputs": [
                {
                    "internalType": "uint256",
                    "name": "",
                    "type": "uint256"
                }
            ],
            "stateMutability": "view",
            "type": "function"
        },
        {
            "inputs": [
                {
                    "internalType": "address",
                    "name": "recipient",
                    "type": "address"
                },
                {
                    "internalType": "uint256",
                    "name": "amount",
                    "type": "uint256"
                }
            ],
            "name": "transfer",
            "outputs": [
                {
                    "internalType": "bool",
                    "name": "",
                    "type": "bool"
                }
            ],
            "stateMutability": "nonpayable",
            "type": "function"
        },
        {
            "inputs": [
                {
                    "internalType": "address",
                    "name": "recipient",
                    "type": "address"
                },
                {
                    "internalType": "uint256",
                    "name": "amount",
                    "type": "uint256"
                },
                {
                    "internalType": "bytes",
                    "name": "data",
                    "type": "bytes"
                }
            ],
            "name": "transferAndCall",
            "outputs": [
                {
                    "internalType": "bool",
                    "name": "",
                    "type": "bool"
                }
            ],
            "stateMutability": "nonpayable",
            "type": "function"
        },
        {
            "inputs": [
                {
                    "internalType": "address",
                    "name": "sender",
                    "type": "address"
                },
                {
                    "internalType": "address",
                    "name": "recipient",
                    "type": "address"
                },
                {
                    "internalType": "uint256",
                    "name": "amount",
                    "type": "uint256"
                }
            ],
            "name": "transferFrom",
            "outputs": [
                {
                    "internalType": "bool",
                    "name": "",
                    "type": "bool"
                }
            ],
            "stateMutability": "nonpayable",
            "type": "function"
        },
        {
            "inputs": [
                {
                    "internalType": "uint256",
                    "name": "amount",
                    "type": "uint256"
                }
            ],
            "name": "unwrap",
            "outputs": [],
            "stateMutability": "nonpayable",
            "type": "function"
        },
        {
            "inputs": [],
            "name": "unwrapConversionFactor",
            "outputs": [
                {
                    "internalType": "uint256",
                    "name": "",
                    "type": "uint256"
                }
            ],
            "stateMutability": "view",
            "type": "function"
        },
        {
            "inputs": [
                {
                    "internalType": "address",
                    "name": "newCurrency",
                    "type": "address"
                }
            ],
            "name": "updateCurrency",
            "outputs": [],
            "stateMutability": "nonpayable",
            "type": "function"
        },
        {
            "inputs": [],
            "name": "voteNo",
            "outputs": [],
            "stateMutability": "nonpayable",
            "type": "function"
        },
        {
            "inputs": [],
            "name": "voteYes",
            "outputs": [],
            "stateMutability": "nonpayable",
            "type": "function"
        },
        {
            "inputs": [],
            "name": "wasAcquired",
            "outputs": [
                {
                    "internalType": "bool",
                    "name": "",
                    "type": "bool"
                }
            ],
            "stateMutability": "view",
            "type": "function"
        },
        {
            "inputs": [
                {
                    "internalType": "address",
                    "name": "shareholder",
                    "type": "address"
                },
                {
                    "internalType": "uint256",
                    "name": "amount",
                    "type": "uint256"
                }
            ],
            "name": "wrap",
            "outputs": [],
            "stateMutability": "nonpayable",
            "type": "function"
        }
    ],
    "bytecode": "608060405260016004819055600b805460ff191690911790553480156200002557600080fd5b5060405162003a6f38038062003a6f833981810160405260808110156200004b57600080fd5b508051602080830151604080850151606090950151600380546001600160a01b038088166001600160a01b031992831681179093556007805483167329fe8914e76da5ce2d90de98a64d0055f199d06d17905569010f0cf064dd592000006008556009869055600a89905560068054918516919092161790558251633a98ef3960e01b8152925195969395939491939092633a98ef399260048281019391928290030181600087803b1580156200010157600080fd5b505af115801562000116573d6000803e3d6000fd5b505050506040513d60208110156200012d57600080fd5b50505050505061392c80620001436000396000f3fe60806040523480156200001157600080fd5b50600436106200022c5760003560e01c806370a082311162000135578063bb68947211620000bd578063dd62ed3e1162000087578063dd62ed3e14620005e1578063de0e9a3e1462000612578063de4946851462000632578063e1b8c38e146200063c578063ec6580e21462000646576200022c565b8063bb6894721462000594578063bc1b1e7c146200059e578063bf376c7a14620005a8578063c028df0614620005d7576200022c565b8063a457c2d711620000ff578063a457c2d714620004a1578063a4c0ed3614620004d0578063a9059cbb146200055b578063a9d9d0c7146200058a576200022c565b806370a08231146200045a5780638fd3ab80146200048357806390cf581c146200048d5780639e8a9a5a1462000497576200022c565b80634000aea011620001b95780635804791311620001835780635804791314620003f75780635e027601146200041d5780636467c09a14620004465780636f4b18df1462000450576200022c565b80634000aea0146200032257806341c12a7014620003ad57806342966c6814620003b75780634900ca5114620003d7576200022c565b806318160ddd11620001fb57806318160ddd14620002a657806323b872dd14620002b05780633549788a14620002e95780633950935114620002f3576200022c565b806302fb0c5e14620002315780630832e470146200024f578063095ea7b3146200026b578063141c7068146200029a575b600080fd5b6200023b62000650565b604080519115158252519081900360200190f35b6200025962000659565b60408051918252519081900360200190f35b6200023b600480360360408110156200028357600080fd5b506001600160a01b0381351690602001356200065f565b620002a462000678565b005b6200025962000a68565b6200023b60048036036060811015620002c857600080fd5b506001600160a01b0381358116916020810135909116906040013562000a6e565b6200025962000ac5565b6200023b600480360360408110156200030b57600080fd5b506001600160a01b03813516906020013562000acb565b6200023b600480360360608110156200033a57600080fd5b6001600160a01b03823516916020810135918101906060810160408201356401000000008111156200036b57600080fd5b8201836020820111156200037e57600080fd5b80359060200191846001830284011164010000000083111715620003a157600080fd5b50909250905062000b04565b620002a462000bcb565b620002a460048036036020811015620003cf57600080fd5b503562000ca7565b620002a460048036036020811015620003ef57600080fd5b503562000d19565b620004016200124d565b604080516001600160a01b039092168252519081900360200190f35b620002a4600480360360208110156200043557600080fd5b50356001600160a01b03166200125c565b6200040162001400565b620002a46200140f565b62000259600480360360208110156200047257600080fd5b50356001600160a01b03166200176b565b620002a462001786565b620002a462001a1b565b6200025962001a94565b6200023b60048036036040811015620004b957600080fd5b506001600160a01b03813516906020013562001a9a565b620002a460048036036060811015620004e857600080fd5b6001600160a01b03823516916020810135918101906060810160408201356401000000008111156200051957600080fd5b8201836020820111156200052c57600080fd5b803590602001918460018302840111640100000000831117156200054f57600080fd5b50909250905062001ad3565b6200023b600480360360408110156200057357600080fd5b506001600160a01b03813516906020013562001afd565b6200025962001b0c565b6200040162001b12565b6200023b62001b21565b620002a460048036036040811015620005c057600080fd5b506001600160a01b03813516906020013562001b3e565b6200040162001c79565b6200025960048036036040811015620005f957600080fd5b506001600160a01b038135811691602001351662001c88565b620002a4600480360360208110156200062a57600080fd5b503562001cb3565b6200040162001dec565b620002a462001dfb565b6200023b62001f4f565b600b5460ff1681565b60045481565b60006200066e33848462001f75565b5060015b92915050565b6200068262001b21565b8015620006915750600b5460ff165b620006d2576040805162461bcd60e51b81526020600482015260196024820152600080516020620037cd833981519152604482015290519081900360640190fd5b600554604080516338a86c5760e11b815290516000926001600160a01b031691637150d8ae916004808301926020929190829003018186803b1580156200071857600080fd5b505afa1580156200072d573d6000803e3d6000fd5b505050506040513d60208110156200074457600080fd5b50519050336001600160a01b03821614620007915760405162461bcd60e51b8152600401808060200182810382526039815260200180620038856039913960400191505060405180910390fd5b600560009054906101000a90046001600160a01b03166001600160a01b031663d7be4e296040518163ffffffff1660e01b815260040160206040518083038186803b158015620007e057600080fd5b505afa158015620007f5573d6000803e3d6000fd5b505050506040513d60208110156200080c57600080fd5b505162000860576040805162461bcd60e51b815260206004820181905260248201527f496e73756666696369656e74206e756d626572206f662079657320766f746573604482015290519081900360640190fd5b6005546001600160a01b0316639890f8246200087b62001dec565b6200089b6200088a856200176b565b6200089462000a68565b9062002065565b6040518363ffffffff1660e01b815260040180836001600160a01b031681526020018281526020019250505060206040518083038186803b158015620008e057600080fd5b505afa158015620008f5573d6000803e3d6000fd5b505050506040513d60208110156200090c57600080fd5b505162000960576040805162461bcd60e51b815260206004820152601b60248201527f4f6666657220696e73756666696369656e746c792066756e6465640000000000604482015290519081900360640190fd5b6006546005546040805163501ad8ff60e11b81529051620009e79385936001600160a01b039182169391169163a035b1fe91600480820192602092909190829003018186803b158015620009b357600080fd5b505afa158015620009c8573d6000803e3d6000fd5b505050506040513d6020811015620009df57600080fd5b505162002078565b60055460408051338152600160208201526001600160a01b039283166060820152608081830181905260169082015275436f6d706c65746564207375636365737366756c6c7960501b60a08201529051918316917fc88f58ae9feb0742d9422f604dd3c1be6d02818f8dec340c5061f428b554e9759181900360c00190a250565b60025490565b600062000a7d848484620022af565b6001600160a01b03841660009081526001602090815260408083203380855292529091205462000abb91869162000ab5908662002065565b62001f75565b5060019392505050565b600a5481565b3360008181526001602090815260408083206001600160a01b038716845290915281205490916200066e91859062000ab5908662002358565b60008062000b13868662001afd565b9050801562000bc257856001600160a01b031663a4c0ed36338787876040518563ffffffff1660e01b815260040180856001600160a01b03168152602001848152602001806020018281038252848482818152602001925080828437600081840152601f19601f82011690508083019250505095505050505050600060405180830381600087803b15801562000ba857600080fd5b505af115801562000bbd573d6000803e3d6000fd5b505050505b95945050505050565b62000bd562001b21565b801562000be45750600b5460ff165b62000c25576040805162461bcd60e51b81526020600482015260196024820152600080516020620037cd833981519152604482015290519081900360640190fd5b60055433906001600160a01b0316634b91562e8262000c44816200176b565b6040518363ffffffff1660e01b815260040180836001600160a01b0316815260200182815260200192505050600060405180830381600087803b15801562000c8b57600080fd5b505af115801562000ca0573d6000803e3d6000fd5b5050505050565b62000cb3338262002366565b62000cbd6200124d565b6001600160a01b03166342966c6862000ce2600454846200246090919063ffffffff16565b6040518263ffffffff1660e01b815260040180828152602001915050600060405180830381600087803b15801562000c8b57600080fd5b600b5460ff1662000d71576040805162461bcd60e51b815260206004820152601860248201527f416e206163636570746564206f66666572206578697374730000000000000000604482015290519081900360640190fd5b600062000d7d6200124d565b6001600160a01b0316633a98ef396040518163ffffffff1660e01b8152600401602060405180830381600087803b15801562000db857600080fd5b505af115801562000dcd573d6000803e3d6000fd5b505050506040513d602081101562000de457600080fd5b505190503362000e0561271062000dfe84610bb862002460565b9062002489565b62000e0f62000a68565b101562000e4e5760405162461bcd60e51b815260040180806020018281038252602e81526020018062003833602e913960400191505060405180910390fd5b62000e6361271062000dfe846101f462002460565b62000e6e826200176b565b101562000ead5760405162461bcd60e51b8152600401808060200182810382526039815260200180620038be6039913960400191505060405180910390fd5b600654600754600854604080516323b872dd60e01b81526001600160a01b038681166004830152938416602482015260448101929092525191909216916323b872dd9160648083019260209291908290030181600087803b15801562000f1257600080fd5b505af115801562000f27573d6000803e3d6000fd5b505050506040513d602081101562000f3e57600080fd5b505162000f92576040805162461bcd60e51b815260206004820152601860248201527f43757272656e6379207472616e73666572206661696c65640000000000000000604482015290519081900360640190fd5b60003384600a5460405162000fa79062002aa8565b80846001600160a01b031681526020018381526020018281526020019350505050604051809103906000f08015801562000fe5573d6000803e3d6000fd5b509050806001600160a01b0316639890f8246200100162001dec565b6200100c856200176b565b6200101662000a68565b036040518363ffffffff1660e01b815260040180836001600160a01b031681526020018281526020019250505060206040518083038186803b1580156200105c57600080fd5b505afa15801562001071573d6000803e3d6000fd5b505050506040513d60208110156200108857600080fd5b5051620010d3576040805162461bcd60e51b8152602060048201526014602482015273496e73756666696369656e742066756e64696e6760601b604482015290519081900360640190fd5b620010dd62001b21565b15620011d9576200117561271062000dfe612904600560009054906101000a90046001600160a01b03166001600160a01b031663a035b1fe6040518163ffffffff1660e01b815260040160206040518083038186803b1580156200114057600080fd5b505afa15801562001155573d6000803e3d6000fd5b505050506040513d60208110156200116c57600080fd5b50519062002460565b841015620011b55760405162461bcd60e51b815260040180806020018281038252603c81526020018062003791603c913960400191505060405180910390fd5b620011d9604051806060016040528060228152602001620036bf602291396200249d565b600580546001600160a01b0319166001600160a01b038381169190911790915582167f9c00f159b1fa9eaebda7acaf50be0bf3a652277380f907b35cb681bd641a62d3856200122762001400565b604080519283526001600160a01b0390911660208301528051918290030190a250505050565b6003546001600160a01b031690565b6200126662001b21565b15620012b4576040805162461bcd60e51b81526020600482015260186024820152772a3432b9329034b99030903832b73234b7339037b33332b960411b604482015290519081900360640190fd5b600b5460ff1662001305576040805162461bcd60e51b8152602060048201526016602482015275436f6e7472616374206973206e6f742061637469766560501b604482015290519081900360640190fd5b806001600160a01b03166200131962001dec565b6001600160a01b031663ee5554d36040518163ffffffff1660e01b8152600401602060405180830381600087803b1580156200135457600080fd5b505af115801562001369573d6000803e3d6000fd5b505050506040513d60208110156200138057600080fd5b50516001600160a01b031614620013de576040805162461bcd60e51b815260206004820152601760248201527f496e76616c69642063757272656e637920757064617465000000000000000000604482015290519081900360640190fd5b600680546001600160a01b0319166001600160a01b0392909216919091179055565b6005546001600160a01b031690565b6200141962001b21565b8015620014285750600b5460ff165b62001469576040805162461bcd60e51b81526020600482015260196024820152600080516020620037cd833981519152604482015290519081900360640190fd5b600560009054906101000a90046001600160a01b03166001600160a01b03166390e64d136040518163ffffffff1660e01b815260040160206040518083038186803b158015620014b857600080fd5b505afa158015620014cd573d6000803e3d6000fd5b505050506040513d6020811015620014e457600080fd5b50511562001522576200151c6040518060400160405280600d81526020016c13d999995c88195e1c1a5c9959609a1b8152506200249d565b62001769565b600560009054906101000a90046001600160a01b03166001600160a01b031663cf42a9276040518163ffffffff1660e01b815260040160206040518083038186803b1580156200157157600080fd5b505afa15801562001586573d6000803e3d6000fd5b505050506040513d60208110156200159d57600080fd5b505115620015da576200151c60405180604001604052806012815260200171139bdd08195b9bdd59da081cdd5c1c1bdc9d60721b8152506200249d565b6005546001600160a01b0316639890f824620015f562001dec565b620016806200088a600560009054906101000a90046001600160a01b03166001600160a01b0316637150d8ae6040518163ffffffff1660e01b815260040160206040518083038186803b1580156200164c57600080fd5b505afa15801562001661573d6000803e3d6000fd5b505050506040513d60208110156200167857600080fd5b50516200176b565b6040518363ffffffff1660e01b815260040180836001600160a01b031681526020018281526020019250505060206040518083038186803b158015620016c557600080fd5b505afa158015620016da573d6000803e3d6000fd5b505050506040513d6020811015620016f157600080fd5b50516200171c576200151c60405180606001604052806021815260200162003703602191396200249d565b6040805162461bcd60e51b815260206004820181905260248201527f4163717569736974696f6e20636f6e7465737420756e7375636365737366756c604482015290519081900360640190fd5b565b6001600160a01b031660009081526020819052604090205490565b600b5460ff16620017d7576040805162461bcd60e51b8152602060048201526016602482015275436f6e7472616374206973206e6f742061637469766560501b604482015290519081900360640190fd5b6000339050620017fb61271062000dfe600954620017f462000a68565b9062002460565b62001806826200176b565b10156200184f576040805162461bcd60e51b8152602060048201526012602482015271145d5bdc9d5b481b9bdd081c995858da195960721b604482015290519081900360640190fd5b6200185962001b21565b15620019ce57600560009054906101000a90046001600160a01b03166001600160a01b031663cf42a9276040518163ffffffff1660e01b815260040160206040518083038186803b158015620018ae57600080fd5b505afa158015620018c3573d6000803e3d6000fd5b505050506040513d6020811015620018da57600080fd5b5051620019b257620018eb62000bcb565b600560009054906101000a90046001600160a01b03166001600160a01b031663cf42a9276040518163ffffffff1660e01b815260040160206040518083038186803b1580156200193a57600080fd5b505afa1580156200194f573d6000803e3d6000fd5b505050506040513d60208110156200196657600080fd5b5051620019b2576040805162461bcd60e51b8152602060048201526015602482015274145d5bdc9d5b481a185cc81b9bdd0819985a5b1959605a1b604482015290519081900360640190fd5b620019bc6200140f565b620019c662001b21565b15620019ce57fe5b620019dc8182600162002078565b604080516001600160a01b038316815290517f3b6b79a09e9fd230e8591b65c97236bf7df7a604edf733db0658e66b0e6eb2a99181900360200190a150565b62001a2562001b21565b801562001a345750600b5460ff165b62001a75576040805162461bcd60e51b81526020600482015260196024820152600080516020620037cd833981519152604482015290519081900360640190fd5b60055433906001600160a01b0316635ff0cf848262000c44816200176b565b60095481565b3360008181526001602090815260408083206001600160a01b038716845290915281205490916200066e91859062000ab5908662002065565b6003546001600160a01b0316331462001aeb57600080fd5b62001af784846200266d565b50505050565b60006200066e338484620022af565b60085481565b6007546001600160a01b031681565b60008062001b2e62001400565b6001600160a01b03161415905090565b62001b4862001b21565b1562001b96576040805162461bcd60e51b81526020600482015260186024820152772a3432b9329034b99030903832b73234b7339037b33332b960411b604482015290519081900360640190fd5b600354604080516323b872dd60e01b81523360048201523060248201526044810184905290516001600160a01b03909216916323b872dd916064808201926020929091908290030181600087803b15801562001bf157600080fd5b505af115801562001c06573d6000803e3d6000fd5b505050506040513d602081101562001c1d57600080fd5b505162001c69576040805162461bcd60e51b815260206004820152601560248201527414da185c99481d1c985b9cd9995c8819985a5b1959605a1b604482015290519081900360640190fd5b62001c7582826200266d565b5050565b6005546001600160a01b031681565b6001600160a01b03918216600090815260016020908152604080832093909416825291909152205490565b600b5460ff161562001cf75760405162461bcd60e51b8152600401808060200182810382526036815260200180620037246036913960400191505060405180910390fd5b62001d03338262002366565b6003546004546001600160a01b039091169063a9059cbb90339062001d2a90859062002460565b6040518363ffffffff1660e01b815260040180836001600160a01b0316815260200182815260200192505050602060405180830381600087803b15801562001d7157600080fd5b505af115801562001d86573d6000803e3d6000fd5b505050506040513d602081101562001d9d57600080fd5b505162001de9576040805162461bcd60e51b815260206004820152601560248201527414da185c99481d1c985b9cd9995c8819985a5b1959605a1b604482015290519081900360640190fd5b50565b6006546001600160a01b031690565b62001e0562001b21565b801562001e145750600b5460ff165b62001e55576040805162461bcd60e51b81526020600482015260196024820152600080516020620037cd833981519152604482015290519081900360640190fd5b600560009054906101000a90046001600160a01b03166001600160a01b0316637150d8ae6040518163ffffffff1660e01b815260040160206040518083038186803b15801562001ea457600080fd5b505afa15801562001eb9573d6000803e3d6000fd5b505050506040513d602081101562001ed057600080fd5b50516001600160a01b0316331462001f1a5760405162461bcd60e51b81526004018080602001828103825260378152602001806200375a6037913960400191505060405180910390fd5b620017696040518060400160405280601281526020017121b0b731b2b63632b210313c90313abcb2b960711b8152506200249d565b600062001f5b62001b21565b62001f6857600062001f70565b600b5460ff16155b905090565b6001600160a01b03831662001fbc5760405162461bcd60e51b8152600401808060200182810382526024815260200180620038616024913960400191505060405180910390fd5b6001600160a01b038216620020035760405162461bcd60e51b8152600401808060200182810382526022815260200180620036e16022913960400191505060405180910390fd5b6001600160a01b03808416600081815260016020908152604080832094871680845294825291829020859055815185815291517f8c5be1e5ebec7d5bd14f71427d1e84f3dd0314c0f7b2291e5b200ac8c7c3b9259281900390910190a3505050565b6000828211156200207257fe5b50900390565b600062002085846200176b565b905060006200209362000a68565b600b805460ff191690559050620020aa8262001cb3565b6000620020b8828462002065565b6003546040805163a9059cbb60e01b81526001600160a01b038a8116600483015260248201859052915193945091169163a9059cbb916044808201926020929091908290030181600087803b1580156200211157600080fd5b505af115801562002126573d6000803e3d6000fd5b505050506040513d60208110156200213d57600080fd5b505162002191576040805162461bcd60e51b815260206004820152601d60248201527f5772617070656420746f6b656e207472616e73666572206661696c6564000000604482015290519081900360640190fd5b6001600160a01b0385166323b872dd8730620021ae888662002460565b6040518463ffffffff1660e01b815260040180846001600160a01b03168152602001836001600160a01b031681526020018281526020019350505050602060405180830381600087803b1580156200220557600080fd5b505af11580156200221a573d6000803e3d6000fd5b505050506040513d60208110156200223157600080fd5b505162002285576040805162461bcd60e51b815260206004820152601760248201527f4261636b696e67207472616e73666572206661696c6564000000000000000000604482015290519081900360640190fd5b5050600380546001600160a01b0319166001600160a01b0394909416939093179092556004555050565b620022bc83838362002729565b620022c662001b21565b8015620022d55750600b5460ff165b15620023535760055460408051636240a7d760e11b81526001600160a01b0386811660048301528581166024830152604482018590529151919092169163c4814fae91606480830192600092919082900301818387803b1580156200233957600080fd5b505af11580156200234e573d6000803e3d6000fd5b505050505b505050565b818101828110156200067257fe5b8062002372336200176b565b1015620023bd576040805162461bcd60e51b815260206004820152601460248201527310985b185b98d9481a5b9cdd59999a58da595b9d60621b604482015290519081900360640190fd5b620023c9828262002867565b620023d362001b21565b8015620023e25750600b5460ff165b1562001c755760055460408051636240a7d760e11b81526001600160a01b03858116600483015260006024830181905260448301869052925193169263c4814fae9260648084019391929182900301818387803b1580156200244357600080fd5b505af115801562002458573d6000803e3d6000fd5b505050505050565b600082620024715750600062000672565b50818102818382816200248057fe5b04146200067257fe5b60008183816200249557fe5b049392505050565b600554604080516338a86c5760e11b815290516000926001600160a01b031691637150d8ae916004808301926020929190829003018186803b158015620024e357600080fd5b505afa158015620024f8573d6000803e3d6000fd5b505050506040513d60208110156200250f57600080fd5b505190506001600160a01b0381167fc88f58ae9feb0742d9422f604dd3c1be6d02818f8dec340c5061f428b554e975336000856200254c62001400565b60405180856001600160a01b03168152602001841515815260200180602001836001600160a01b03168152602001828103825284818151815260200191508051906020019080838360005b83811015620025b157818101518382015260200162002597565b50505050905090810190601f168015620025df5780820380516001836020036101000a031916815260200191505b509550505050505060405180910390a2600560009054906101000a90046001600160a01b03166001600160a01b03166341c0e1b56040518163ffffffff1660e01b8152600401600060405180830381600087803b1580156200264057600080fd5b505af115801562002655573d6000803e3d6000fd5b5050600580546001600160a01b031916905550505050565b6200267762001b21565b15620026c5576040805162461bcd60e51b81526020600482015260186024820152772a3432b9329034b99030903832b73234b7339037b33332b960411b604482015290519081900360640190fd5b600b5460ff166200271d576040805162461bcd60e51b815260206004820152601d60248201527f436f6e7472616374206e6f742061637469766520616e79206d6f72652e000000604482015290519081900360640190fd5b62001c7582826200293a565b6001600160a01b038316620027705760405162461bcd60e51b81526004018080602001828103825260258152602001806200380e6025913960400191505060405180910390fd5b6001600160a01b038216620027b75760405162461bcd60e51b81526004018080602001828103825260238152602001806200369c6023913960400191505060405180910390fd5b6001600160a01b038316600090815260208190526040902054620027dc908262002065565b6001600160a01b0380851660009081526020819052604080822093909355908416815220546200280d908262002358565b6001600160a01b038084166000818152602081815260409182902094909455805185815290519193928716927fddf252ad1be2c89b69c2b068fc378daa952ba7f163c4a11628f55a4df523b3ef92918290030190a3505050565b6001600160a01b038216620028ae5760405162461bcd60e51b8152600401808060200182810382526021815260200180620037ed6021913960400191505060405180910390fd5b600254620028bd908262002065565b6002556001600160a01b038216600090815260208190526040902054620028e5908262002065565b6001600160a01b038316600081815260208181526040808320949094558351858152935191937fddf252ad1be2c89b69c2b068fc378daa952ba7f163c4a11628f55a4df523b3ef929081900390910190a35050565b620029468282620029bf565b6200295062001b21565b80156200295f5750600b5460ff165b1562001c755760055460408051636240a7d760e11b81526000600482018190526001600160a01b038681166024840152604483018690529251929093169263c4814fae9260648084019382900301818387803b1580156200244357600080fd5b6001600160a01b03821662002a1b576040805162461bcd60e51b815260206004820152601f60248201527f45524332303a206d696e7420746f20746865207a65726f206164647265737300604482015290519081900360640190fd5b60025462002a2a908262002358565b6002556001600160a01b03821660009081526020819052604090205462002a52908262002358565b6001600160a01b0383166000818152602081815260408083209490945583518581529351929391927fddf252ad1be2c89b69c2b068fc378daa952ba7f163c4a11628f55a4df523b3ef9281900390910190a35050565b610be58062002ab78339019056fe608060405234801561001057600080fd5b50604051610be5380380610be58339818101604052606081101561003357600080fd5b508051602082015160409092015190919081610096576040805162461bcd60e51b815260206004820152601460248201527f50726963652063616e6e6f74206265207a65726f000000000000000000000000604482015290519081900360640190fd5b600180546001600160a01b03199081163317909155600280546001600160a01b0395909516949091169390931790925560035560005542600455610b06806100df6000396000f3fe608060405234801561001057600080fd5b50600436106101215760003560e01c80639890f824116100ad578063c4814fae11610071578063c4814fae14610282578063cf42a927146102b8578063d7be4e29146102c0578063fa7f1bae146102c8578063fb286c65146102d057610121565b80639890f82414610236578063a035b1fe14610262578063b1610d7e1461026a578063b5b47f4214610272578063b80777ea1461027a57610121565b80634b91562e116100f45780634b91562e1461018c5780635ff0cf84146101b85780637150d8ae146101e45780638f1b4c6f1461020857806390e64d131461022e57610121565b80630c43cd88146101265780631703a0181461014057806341c0e1b514610148578063448ab4c614610152575b600080fd5b61012e6102d8565b60408051918252519081900360200190f35b61012e6102df565b6101506102e5565b005b6101786004803603602081101561016857600080fd5b50356001600160a01b031661033c565b604080519115158252519081900360200190f35b610150600480360360408110156101a257600080fd5b506001600160a01b03813516906020013561036f565b610150600480360360408110156101ce57600080fd5b506001600160a01b038135169060200135610417565b6101ec6104bb565b604080516001600160a01b039092168252519081900360200190f35b6101786004803603602081101561021e57600080fd5b50356001600160a01b03166104ca565b6101786104d3565b6101786004803603604081101561024c57600080fd5b506001600160a01b0381351690602001356104f7565b61012e610633565b61012e610639565b61012e610640565b61012e610646565b6101506004803603606081101561029857600080fd5b506001600160a01b0381358116916020810135909116906040013561064c565b6101786106df565b61017861082a565b6101786108e3565b61012e610907565b6276a70081565b60005481565b6001546001600160a01b0316331461032e5760405162461bcd60e51b8152600401808060200182810382526025815260200180610aac6025913960400191505060405180910390fd5b6002546001600160a01b0316ff5b600060015b6001600160a01b03831660009081526007602052604090205460ff16600281111561036857fe5b1492915050565b6001546001600160a01b031633146103b85760405162461bcd60e51b8152600401808060200182810382526025815260200180610aac6025913960400191505060405180910390fd5b6103c06108e3565b610407576040805162461bcd60e51b81526020600482015260136024820152722a3432903b37ba32903430b99032b73232b21760691b604482015290519081900360640190fd5b6104136002828461090d565b5050565b6001546001600160a01b031633146104605760405162461bcd60e51b8152600401808060200182810382526025815260200180610aac6025913960400191505060405180910390fd5b6104686108e3565b6104af576040805162461bcd60e51b81526020600482015260136024820152722a3432903b37ba32903430b99032b73232b21760691b604482015290519081900360640190fd5b6104136001828461090d565b6002546001600160a01b031681565b60006002610341565b6000806104eb6004544261095390919063ffffffff16565b6276a700109150505b90565b600254604080516370a0823160e01b81526001600160a01b039283166004820152905160009285928492918416916370a0823191602480820192602092909190829003018186803b15801561054b57600080fd5b505afa15801561055f573d6000803e3d6000fd5b505050506040513d602081101561057557600080fd5b505160025460015460408051636eb1769f60e11b81526001600160a01b0393841660048201529183166024830152519293506000929185169163dd62ed3e91604480820192602092909190829003018186803b1580156105d457600080fd5b505afa1580156105e8573d6000803e3d6000fd5b505050506040513d60208110156105fe57600080fd5b5051600354909150600090610614908790610965565b90508281111580156106265750818111155b9450505050505b92915050565b60035481565b624f1a0081565b60055481565b60045481565b6001546001600160a01b031633146106955760405162461bcd60e51b8152600401808060200182810382526025815260200180610aac6025913960400191505060405180910390fd5b61069d6108e3565b156106da576001600160a01b0380841660009081526007602052604080822054928516825290205460ff91821691166106d782828561098a565b50505b505050565b60006106e96108e3565b156107fe57600054600154604080516318160ddd60e01b815290516107f6926001600160a01b0316916318160ddd916004808301926020929190829003018186803b15801561073757600080fd5b505afa15801561074b573d6000803e3d6000fd5b505050506040513d602081101561076157600080fd5b5051600554600154604080516318160ddd60e01b815290516107f093612710936107ea9391926001600160a01b03909116916318160ddd916004808301926020929190829003018186803b1580156107b857600080fd5b505afa1580156107cc573d6000803e3d6000fd5b505050506040513d60208110156107e257600080fd5b505190610953565b90610965565b90610a8b565b1090506104f4565b6000546107f661081b600554600654610a9e90919063ffffffff16565b6006546107f090612710610965565b60006108346108e3565b156108c657600054600154604080516318160ddd60e01b815290516108bd926001600160a01b0316916318160ddd916004808301926020929190829003018186803b15801561088257600080fd5b505afa158015610896573d6000803e3d6000fd5b505050506040513d60208110156108ac57600080fd5b50516006546107f090612710610965565b101590506104f4565b6000546108bd61081b600554600654610a9e90919063ffffffff16565b6000806108fb6004544261095390919063ffffffff16565b624f1a00101591505090565b60065481565b6001600160a01b0381166000908152600760205260409020805460ff811691859182919060ff1916600183600281111561094357fe5b02179055506106d782828661098a565b60008282111561095f57fe5b50900390565b6000826109745750600061062d565b508181028183828161098257fe5b041461062d57fe5b81600281111561099657fe5b8360028111156109a257fe5b146106da5760028360028111156109b557fe5b14156109d0576005546109c89082610953565b6005556109f5565b60018360028111156109de57fe5b14156109f5576006546109f19082610953565b6006555b6002826002811115610a0357fe5b1415610a1e57600554610a169082610a9e565b600555610a43565b6001826002811115610a2c57fe5b1415610a4357600654610a3f9082610a9e565b6006555b7f8fcc50c2c4edd06d51ae66e9e21ed76b32a1766c57f491788e1aa24a1b58c256600654600554604051808381526020018281526020019250505060405180910390a1505050565b6000818381610a9657fe5b049392505050565b8181018281101561062d57fefe43616e206f6e6c792062652063616c6c656420627920706172656e7420636f6e7472616374a2646970667358221220966ae58c4785a9b792aa8fd3f76d4375eae339875ae9a8da4dbd259da3f66ffc64736f6c634300060c003345524332303a207472616e7366657220746f20746865207a65726f20616464726573734f6666657220776173207265706c616365642062792061206869676865722062696445524332303a20617070726f766520746f20746865207a65726f20616464726573734f6666657220776173206e6f742073756666696369656e746c792066756e6465644173206c6f6e672061732074686520636f6e7472616374206973206163746976652c20796f752061726520626f756e6420746f206974596f7520617265206e6f7420617574686f72697a656420746f2063616e63656c2074686973206163717569736974696f6e206f666665724e6577206f6666657273206d757374206265206174206c6561737420352520686967686572207468616e207468652070656e64696e67206f666665725468657265206973206e6f2070656e64696e67206f666665720000000000000045524332303a206275726e2066726f6d20746865207a65726f206164647265737345524332303a207472616e736665722066726f6d20746865207a65726f20616464726573735468697320636f6e747261637420646f6573206e6f7420726570726573656e7420656e6f7567682065717569747945524332303a20617070726f76652066726f6d20746865207a65726f2061646472657373596f7520617265206e6f7420617574686f72697a656420746f20636f6d706c6574652074686973206163717569736974696f6e206f66666572596f75206e65656420746f20686f6c64206174206c65617374203525206f6620746865206669726d20746f206d616b6520616e206f66666572a26469706673582212207770ff8c3745c10c89a12ae448da0c67f7264bd2f9e20f0fce38b10ebc5b179064736f6c634300060c0033",
    "sourcePath": "c:/Users/luziu/Documents/aktionariat/contracts/src/ERC20Draggable.sol",
    "compiler": {
        "name": "solc",
        "version": "0.6.12+commit.27d51765"
    },
    "functionHashes": {
        "acquisitionQuorum()": "3549788a",
        "active()": "02fb0c5e",
        "allowance(address,address)": "dd62ed3e",
        "approve(address,uint256)": "095ea7b3",
        "balanceOf(address)": "70a08231",
        "burn(uint256)": "42966c68",
        "cancelAcquisition()": "e1b8c38e",
        "completeAcquisition()": "141c7068",
        "contestAcquisition()": "6f4b18df",
        "decreaseAllowance(address,uint256)": "a457c2d7",
        "getCurrencyContract()": "de494685",
        "getPendingOffer()": "6467c09a",
        "getWrappedContract()": "58047913",
        "increaseAllowance(address,uint256)": "39509351",
        "initiateAcquisition(uint256)": "4900ca51",
        "licenseFee()": "a9d9d0c7",
        "licenseFeeRecipient()": "bb689472",
        "migrate()": "8fd3ab80",
        "migrationQuorum()": "9e8a9a5a",
        "offer()": "c028df06",
        "offerExists()": "bc1b1e7c",
        "onTokenTransfer(address,uint256,bytes)": "a4c0ed36",
        "totalSupply()": "18160ddd",
        "transfer(address,uint256)": "a9059cbb",
        "transferAndCall(address,uint256,bytes)": "4000aea0",
        "transferFrom(address,address,uint256)": "23b872dd",
        "unwrap(uint256)": "de0e9a3e",
        "unwrapConversionFactor()": "0832e470",
        "updateCurrency(address)": "5e027601",
        "voteNo()": "41c12a70",
        "voteYes()": "90cf581c",
        "wasAcquired()": "ec6580e2",
        "wrap(address,uint256)": "bf376c7a"
    },
    "gasEstimates": {
        "creation": {
            "codeDepositCost": "2927200",
            "executionCost": "infinite",
            "totalCost": "infinite"
        },
        "external": {
            "acquisitionQuorum()": "1088",
            "active()": "1057",
            "allowance(address,address)": "1294",
            "approve(address,uint256)": "infinite",
            "balanceOf(address)": "1191",
            "burn(uint256)": "infinite",
            "cancelAcquisition()": "infinite",
            "completeAcquisition()": "infinite",
            "contestAcquisition()": "infinite",
            "decreaseAllowance(address,uint256)": "infinite",
            "getCurrencyContract()": "1125",
            "getPendingOffer()": "1126",
            "getWrappedContract()": "1082",
            "increaseAllowance(address,uint256)": "infinite",
            "initiateAcquisition(uint256)": "infinite",
            "licenseFee()": "1109",
            "licenseFeeRecipient()": "1082",
            "migrate()": "infinite",
            "migrationQuorum()": "1110",
            "offer()": "1148",
            "offerExists()": "1151",
            "onTokenTransfer(address,uint256,bytes)": "infinite",
            "totalSupply()": "1044",
            "transfer(address,uint256)": "infinite",
            "transferAndCall(address,uint256,bytes)": "infinite",
            "transferFrom(address,address,uint256)": "infinite",
            "unwrap(uint256)": "infinite",
            "unwrapConversionFactor()": "1067",
            "updateCurrency(address)": "infinite",
            "voteNo()": "infinite",
            "voteYes()": "infinite",
            "wasAcquired()": "2078",
            "wrap(address,uint256)": "infinite"
        },
        "internal": {
            "_burn(address,uint256)": "infinite",
            "_mint(address,uint256)": "infinite",
            "_transfer(address,address,uint256)": "infinite",
            "dowrap(address,uint256)": "infinite",
            "invertHoldings(address,contract IERC20,uint256)": "infinite",
            "killAcquisition(string memory)": "infinite"
        }
    }
}