{
    "contractName": "ERC20Basic",
    "abi": [
        {
            "inputs": [
                {
                    "internalType": "string",
                    "name": "name_",
                    "type": "string"
                },
                {
                    "internalType": "string",
                    "name": "symbol_",
                    "type": "string"
                },
                {
                    "internalType": "uint8",
                    "name": "decimals",
                    "type": "uint8"
                }
            ],
            "stateMutability": "nonpayable",
            "type": "constructor"
        },
        {
            "anonymous": false,
            "inputs": [
                {
                    "indexed": true,
                    "internalType": "address",
                    "name": "owner",
                    "type": "address"
                },
                {
                    "indexed": true,
                    "internalType": "address",
                    "name": "spender",
                    "type": "address"
                },
                {
                    "indexed": false,
                    "internalType": "uint256",
                    "name": "value",
                    "type": "uint256"
                }
            ],
            "name": "Approval",
            "type": "event"
        },
        {
            "anonymous": false,
            "inputs": [
                {
                    "indexed": true,
                    "internalType": "address",
                    "name": "from",
                    "type": "address"
                },
                {
                    "indexed": true,
                    "internalType": "address",
                    "name": "to",
                    "type": "address"
                },
                {
                    "indexed": false,
                    "internalType": "uint256",
                    "name": "value",
                    "type": "uint256"
                }
            ],
            "name": "Transfer",
            "type": "event"
        },
        {
            "inputs": [
                {
                    "internalType": "address",
                    "name": "owner",
                    "type": "address"
                },
                {
                    "internalType": "address",
                    "name": "spender",
                    "type": "address"
                }
            ],
            "name": "allowance",
            "outputs": [
                {
                    "internalType": "uint256",
                    "name": "",
                    "type": "uint256"
                }
            ],
            "stateMutability": "view",
            "type": "function"
        },
        {
            "inputs": [
                {
                    "internalType": "address",
                    "name": "spender",
                    "type": "address"
                },
                {
                    "internalType": "uint256",
                    "name": "value",
                    "type": "uint256"
                }
            ],
            "name": "approve",
            "outputs": [
                {
                    "internalType": "bool",
                    "name": "",
                    "type": "bool"
                }
            ],
            "stateMutability": "nonpayable",
            "type": "function"
        },
        {
            "inputs": [
                {
                    "internalType": "address",
                    "name": "account",
                    "type": "address"
                }
            ],
            "name": "balanceOf",
            "outputs": [
                {
                    "internalType": "uint256",
                    "name": "",
                    "type": "uint256"
                }
            ],
            "stateMutability": "view",
            "type": "function"
        },
        {
            "inputs": [],
            "name": "decimals",
            "outputs": [
                {
                    "internalType": "uint8",
                    "name": "",
                    "type": "uint8"
                }
            ],
            "stateMutability": "view",
            "type": "function"
        },
        {
            "inputs": [
                {
                    "internalType": "address",
                    "name": "spender",
                    "type": "address"
                },
                {
                    "internalType": "uint256",
                    "name": "subtractedValue",
                    "type": "uint256"
                }
            ],
            "name": "decreaseAllowance",
            "outputs": [
                {
                    "internalType": "bool",
                    "name": "",
                    "type": "bool"
                }
            ],
            "stateMutability": "nonpayable",
            "type": "function"
        },
        {
            "inputs": [
                {
                    "internalType": "address",
                    "name": "spender",
                    "type": "address"
                },
                {
                    "internalType": "uint256",
                    "name": "addedValue",
                    "type": "uint256"
                }
            ],
            "name": "increaseAllowance",
            "outputs": [
                {
                    "internalType": "bool",
                    "name": "",
                    "type": "bool"
                }
            ],
            "stateMutability": "nonpayable",
            "type": "function"
        },
        {
            "inputs": [
                {
                    "internalType": "address",
                    "name": "target",
                    "type": "address"
                },
                {
                    "internalType": "uint256",
                    "name": "amount",
                    "type": "uint256"
                }
            ],
            "name": "mint",
            "outputs": [],
            "stateMutability": "nonpayable",
            "type": "function"
        },
        {
            "inputs": [],
            "name": "name",
            "outputs": [
                {
                    "internalType": "string",
                    "name": "",
                    "type": "string"
                }
            ],
            "stateMutability": "view",
            "type": "function"
        },
        {
            "inputs": [
                {
                    "internalType": "bool",
                    "name": "",
                    "type": "bool"
                }
            ],
            "name": "setRecoverable",
            "outputs": [],
            "stateMutability": "pure",
            "type": "function"
        },
        {
            "inputs": [],
            "name": "symbol",
            "outputs": [
                {
                    "internalType": "string",
                    "name": "",
                    "type": "string"
                }
            ],
            "stateMutability": "view",
            "type": "function"
        },
        {
            "inputs": [],
            "name": "totalSupply",
            "outputs": [
                {
                    "internalType": "uint256",
                    "name": "",
                    "type": "uint256"
                }
            ],
            "stateMutability": "view",
            "type": "function"
        },
        {
            "inputs": [
                {
                    "internalType": "address",
                    "name": "recipient",
                    "type": "address"
                },
                {
                    "internalType": "uint256",
                    "name": "amount",
                    "type": "uint256"
                }
            ],
            "name": "transfer",
            "outputs": [
                {
                    "internalType": "bool",
                    "name": "",
                    "type": "bool"
                }
            ],
            "stateMutability": "nonpayable",
            "type": "function"
        },
        {
            "inputs": [
                {
                    "internalType": "address",
                    "name": "recipient",
                    "type": "address"
                },
                {
                    "internalType": "uint256",
                    "name": "amount",
                    "type": "uint256"
                },
                {
                    "internalType": "bytes",
                    "name": "data",
                    "type": "bytes"
                }
            ],
            "name": "transferAndCall",
            "outputs": [
                {
                    "internalType": "bool",
                    "name": "",
                    "type": "bool"
                }
            ],
            "stateMutability": "nonpayable",
            "type": "function"
        },
        {
            "inputs": [
                {
                    "internalType": "address",
                    "name": "sender",
                    "type": "address"
                },
                {
                    "internalType": "address",
                    "name": "recipient",
                    "type": "address"
                },
                {
                    "internalType": "uint256",
                    "name": "amount",
                    "type": "uint256"
                }
            ],
            "name": "transferFrom",
            "outputs": [
                {
                    "internalType": "bool",
                    "name": "",
                    "type": "bool"
                }
            ],
            "stateMutability": "nonpayable",
            "type": "function"
        }
    ],
    "bytecode": "60806040523480156200001157600080fd5b5060405162000c0838038062000c088339810160408190526200003491620001dc565b6003805460ff191660ff83161790558251620000589060049060208601906200008b565b5081516200006e9060059060208501906200008b565b5050600680546001600160a01b0319163317905550620002b09050565b82805462000099906200025d565b90600052602060002090601f016020900481019282620000bd576000855562000108565b82601f10620000d857805160ff191683800117855562000108565b8280016001018555821562000108579182015b8281111562000108578251825591602001919060010190620000eb565b50620001169291506200011a565b5090565b5b808211156200011657600081556001016200011b565b600082601f83011262000142578081fd5b81516001600160401b03808211156200015f576200015f6200029a565b6040516020601f8401601f19168201810183811183821017156200018757620001876200029a565b60405283825285840181018710156200019e578485fd5b8492505b83831015620001c15785830181015182840182015291820191620001a2565b83831115620001d257848185840101525b5095945050505050565b600080600060608486031215620001f1578283fd5b83516001600160401b038082111562000208578485fd5b620002168783880162000131565b945060208601519150808211156200022c578384fd5b506200023b8682870162000131565b925050604084015160ff8116811462000252578182fd5b809150509250925092565b6002810460018216806200027257607f821691505b602082108114156200029457634e487b7160e01b600052602260045260246000fd5b50919050565b634e487b7160e01b600052604160045260246000fd5b61094880620002c06000396000f3fe608060405234801561001057600080fd5b50600436106100ea5760003560e01c806340c10f191161008c57806395d89b411161006657806395d89b41146101cb578063a457c2d7146101d3578063a9059cbb146101e6578063dd62ed3e146101f9576100ea565b806340c10f19146101905780636427ed97146101a557806370a08231146101b8576100ea565b806323b872dd116100c857806323b872dd14610142578063313ce56714610155578063395093511461016a5780634000aea01461017d576100ea565b806306fdde03146100ef578063095ea7b31461010d57806318160ddd1461012d575b600080fd5b6100f761020c565b6040516101049190610828565b60405180910390f35b61012061011b36600461070a565b61029a565b604051610104919061081d565b6101356102b0565b604051610104919061087b565b6101206101503660046106cf565b6102b6565b61015d610308565b6040516101049190610884565b61012061017836600461070a565b610311565b61012061018b366004610733565b610348565b6101a361019e36600461070a565b6103cb565b005b6101a36101b33660046107b5565b6103f0565b6101356101c636600461067c565b6103f3565b6100f7610412565b6101206101e136600461070a565b61041f565b6101206101f436600461070a565b610456565b61013561020736600461069d565b610463565b60048054610219906108c1565b80601f0160208091040260200160405190810160405280929190818152602001828054610245906108c1565b80156102925780601f1061026757610100808354040283529160200191610292565b820191906000526020600020905b81548152906001019060200180831161027557829003601f168201915b505050505081565b60006102a733848461048e565b50600192915050565b60025490565b60006102c38484846104f6565b6001600160a01b0384166000908152600160209081526040808320338085529252909120546102fe9186916102f99086906108aa565b61048e565b5060019392505050565b60035460ff1681565b3360008181526001602090815260408083206001600160a01b038716845290915281205490916102a79185906102f9908690610892565b6000806103558686610456565b905080156103c257604051635260769b60e11b81526001600160a01b0387169063a4c0ed369061038f9033908990899089906004016107d5565b600060405180830381600087803b1580156103a957600080fd5b505af11580156103bd573d6000803e3d6000fd5b505050505b95945050505050565b6006546001600160a01b031633146103e257600080fd5b6103ec82826105b3565b5050565b50565b6001600160a01b0381166000908152602081905260409020545b919050565b60058054610219906108c1565b3360008181526001602090815260408083206001600160a01b038716845290915281205490916102a79185906102f99086906108aa565b60006102a73384846104f6565b6001600160a01b03918216600090815260016020908152604080832093909416825291909152205490565b6001600160a01b0380841660008181526001602090815260408083209487168084529490915290819020849055517f8c5be1e5ebec7d5bd14f71427d1e84f3dd0314c0f7b2291e5b200ac8c7c3b925906104e990859061087b565b60405180910390a3505050565b6001600160a01b03821661050957600080fd5b610514838383610660565b6001600160a01b0383166000908152602081905260408120805483929061053c9084906108aa565b90915550506001600160a01b03821660009081526020819052604081208054839290610569908490610892565b92505081905550816001600160a01b0316836001600160a01b03167fddf252ad1be2c89b69c2b068fc378daa952ba7f163c4a11628f55a4df523b3ef836040516104e9919061087b565b6001600160a01b0382166105c657600080fd5b6105d260008383610660565b80600260008282546105e49190610892565b90915550506001600160a01b03821660009081526020819052604081208054839290610611908490610892565b90915550506040516001600160a01b038316906000907fddf252ad1be2c89b69c2b068fc378daa952ba7f163c4a11628f55a4df523b3ef9061065490859061087b565b60405180910390a35050565b505050565b80356001600160a01b038116811461040d57600080fd5b60006020828403121561068d578081fd5b61069682610665565b9392505050565b600080604083850312156106af578081fd5b6106b883610665565b91506106c660208401610665565b90509250929050565b6000806000606084860312156106e3578081fd5b6106ec84610665565b92506106fa60208501610665565b9150604084013590509250925092565b6000806040838503121561071c578182fd5b61072583610665565b946020939093013593505050565b60008060008060608587031215610748578081fd5b61075185610665565b935060208501359250604085013567ffffffffffffffff80821115610774578283fd5b818701915087601f830112610787578283fd5b813581811115610795578384fd5b8860208285010111156107a6578384fd5b95989497505060200194505050565b6000602082840312156107c6578081fd5b81358015158114610696578182fd5b6001600160a01b0385168152602081018490526060604082018190528101829052600082846080840137818301608090810191909152601f909201601f191601019392505050565b901515815260200190565b6000602080835283518082850152825b8181101561085457858101830151858201604001528201610838565b818111156108655783604083870101525b50601f01601f1916929092016040019392505050565b90815260200190565b60ff91909116815260200190565b600082198211156108a5576108a56108fc565b500190565b6000828210156108bc576108bc6108fc565b500390565b6002810460018216806108d557607f821691505b602082108114156108f657634e487b7160e01b600052602260045260246000fd5b50919050565b634e487b7160e01b600052601160045260246000fdfea26469706673582212204e521b5ac8d8638e382d2c6c587f03de7f413872d30067a3fefaca2c1ef7c9da64736f6c63430008000033",
    "sourcePath": "c:/Users/luziu/Documents/aktionariat/contracts/src/ERC20Basic.sol",
    "compiler": {
        "name": "solc",
        "version": "0.8.0+commit.c7dfd78e"
    },
    "functionHashes": {
        "allowance(address,address)": "dd62ed3e",
        "approve(address,uint256)": "095ea7b3",
        "balanceOf(address)": "70a08231",
        "decimals()": "313ce567",
        "decreaseAllowance(address,uint256)": "a457c2d7",
        "increaseAllowance(address,uint256)": "39509351",
        "mint(address,uint256)": "40c10f19",
        "name()": "06fdde03",
        "setRecoverable(bool)": "6427ed97",
        "symbol()": "95d89b41",
        "totalSupply()": "18160ddd",
        "transfer(address,uint256)": "a9059cbb",
        "transferAndCall(address,uint256,bytes)": "4000aea0",
        "transferFrom(address,address,uint256)": "23b872dd"
    },
    "gasEstimates": {
        "creation": {
            "codeDepositCost": "475200",
            "executionCost": "infinite",
            "totalCost": "infinite"
        },
        "external": {
            "allowance(address,address)": "infinite",
            "approve(address,uint256)": "22532",
            "balanceOf(address)": "infinite",
            "decimals()": "1091",
            "decreaseAllowance(address,uint256)": "23565",
            "increaseAllowance(address,uint256)": "23591",
            "mint(address,uint256)": "infinite",
            "name()": "infinite",
            "setRecoverable(bool)": "302",
            "symbol()": "infinite",
            "totalSupply()": "1096",
            "transfer(address,uint256)": "44457",
            "transferAndCall(address,uint256,bytes)": "infinite",
            "transferFrom(address,address,uint256)": "infinite"
        },
        "internal": {
            "_beforeTokenTransfer(address,address,uint256)": "15"
        }
    }
}