{
    "contractName": "ERC20Draggable",
    "abi": [
        {
            "inputs": [
                {
                    "internalType": "address",
                    "name": "wrappedToken",
                    "type": "address"
                },
                {
                    "internalType": "uint256",
                    "name": "migrationQuorumInBIPS_",
                    "type": "uint256"
                },
                {
                    "internalType": "uint256",
                    "name": "acquisitionQuorum_",
                    "type": "uint256"
                }
            ],
            "stateMutability": "nonpayable",
            "type": "constructor"
        },
        {
            "anonymous": false,
            "inputs": [
                {
                    "indexed": true,
                    "internalType": "address",
                    "name": "owner",
                    "type": "address"
                },
                {
                    "indexed": true,
                    "internalType": "address",
                    "name": "spender",
                    "type": "address"
                },
                {
                    "indexed": false,
                    "internalType": "uint256",
                    "name": "value",
                    "type": "uint256"
                }
            ],
            "name": "Approval",
            "type": "event"
        },
        {
            "anonymous": false,
            "inputs": [
                {
                    "indexed": false,
                    "internalType": "address",
                    "name": "newContractAddress",
                    "type": "address"
                }
            ],
            "name": "MigrationSucceeded",
            "type": "event"
        },
        {
            "anonymous": false,
            "inputs": [
                {
                    "indexed": true,
                    "internalType": "address",
                    "name": "buyer",
                    "type": "address"
                },
                {
                    "indexed": false,
                    "internalType": "uint256",
                    "name": "pricePerShare",
                    "type": "uint256"
                },
                {
                    "indexed": false,
                    "internalType": "address",
                    "name": "offerContract",
                    "type": "address"
                }
            ],
            "name": "OfferCreated",
            "type": "event"
        },
        {
            "anonymous": false,
            "inputs": [
                {
                    "indexed": true,
                    "internalType": "address",
                    "name": "buyer",
                    "type": "address"
                },
                {
                    "indexed": false,
                    "internalType": "address",
                    "name": "sender",
                    "type": "address"
                },
                {
                    "indexed": false,
                    "internalType": "bool",
                    "name": "success",
                    "type": "bool"
                },
                {
                    "indexed": false,
                    "internalType": "string",
                    "name": "message",
                    "type": "string"
                },
                {
                    "indexed": false,
                    "internalType": "address",
                    "name": "offerContract",
                    "type": "address"
                }
            ],
            "name": "OfferEnded",
            "type": "event"
        },
        {
            "anonymous": false,
            "inputs": [
                {
                    "indexed": true,
                    "internalType": "address",
                    "name": "from",
                    "type": "address"
                },
                {
                    "indexed": true,
                    "internalType": "address",
                    "name": "to",
                    "type": "address"
                },
                {
                    "indexed": false,
                    "internalType": "uint256",
                    "name": "value",
                    "type": "uint256"
                }
            ],
            "name": "Transfer",
            "type": "event"
        },
        {
            "inputs": [],
            "name": "acquisitionQuorum",
            "outputs": [
                {
                    "internalType": "uint256",
                    "name": "",
                    "type": "uint256"
                }
            ],
            "stateMutability": "view",
            "type": "function"
        },
        {
            "inputs": [],
            "name": "active",
            "outputs": [
                {
                    "internalType": "bool",
                    "name": "",
                    "type": "bool"
                }
            ],
            "stateMutability": "view",
            "type": "function"
        },
        {
            "inputs": [
                {
                    "internalType": "address",
                    "name": "owner",
                    "type": "address"
                },
                {
                    "internalType": "address",
                    "name": "spender",
                    "type": "address"
                }
            ],
            "name": "allowance",
            "outputs": [
                {
                    "internalType": "uint256",
                    "name": "",
                    "type": "uint256"
                }
            ],
            "stateMutability": "view",
            "type": "function"
        },
        {
            "inputs": [
                {
                    "internalType": "address",
                    "name": "spender",
                    "type": "address"
                },
                {
                    "internalType": "uint256",
                    "name": "value",
                    "type": "uint256"
                }
            ],
            "name": "approve",
            "outputs": [
                {
                    "internalType": "bool",
                    "name": "",
                    "type": "bool"
                }
            ],
            "stateMutability": "nonpayable",
            "type": "function"
        },
        {
            "inputs": [
                {
                    "internalType": "address",
                    "name": "account",
                    "type": "address"
                }
            ],
            "name": "balanceOf",
            "outputs": [
                {
                    "internalType": "uint256",
                    "name": "",
                    "type": "uint256"
                }
            ],
            "stateMutability": "view",
            "type": "function"
        },
        {
            "inputs": [
                {
                    "internalType": "uint256",
                    "name": "amount",
                    "type": "uint256"
                }
            ],
            "name": "burn",
            "outputs": [],
            "stateMutability": "nonpayable",
            "type": "function"
        },
        {
            "inputs": [],
            "name": "cancelAcquisition",
            "outputs": [],
            "stateMutability": "nonpayable",
            "type": "function"
        },
        {
            "inputs": [],
            "name": "completeAcquisition",
            "outputs": [],
            "stateMutability": "nonpayable",
            "type": "function"
        },
        {
            "inputs": [],
            "name": "contestAcquisition",
            "outputs": [],
            "stateMutability": "nonpayable",
            "type": "function"
        },
        {
            "inputs": [],
            "name": "decimals",
            "outputs": [
                {
                    "internalType": "uint8",
                    "name": "",
                    "type": "uint8"
                }
            ],
            "stateMutability": "view",
            "type": "function"
        },
        {
            "inputs": [
                {
                    "internalType": "address",
                    "name": "spender",
                    "type": "address"
                },
                {
                    "internalType": "uint256",
                    "name": "subtractedValue",
                    "type": "uint256"
                }
            ],
            "name": "decreaseAllowance",
            "outputs": [
                {
                    "internalType": "bool",
                    "name": "",
                    "type": "bool"
                }
            ],
            "stateMutability": "nonpayable",
            "type": "function"
        },
        {
            "inputs": [],
            "name": "getPendingOffer",
            "outputs": [
                {
                    "internalType": "address",
                    "name": "",
                    "type": "address"
                }
            ],
            "stateMutability": "view",
            "type": "function"
        },
        {
            "inputs": [],
            "name": "getWrappedContract",
            "outputs": [
                {
                    "internalType": "address",
                    "name": "",
                    "type": "address"
                }
            ],
            "stateMutability": "view",
            "type": "function"
        },
        {
            "inputs": [
                {
                    "internalType": "address",
                    "name": "spender",
                    "type": "address"
                },
                {
                    "internalType": "uint256",
                    "name": "addedValue",
                    "type": "uint256"
                }
            ],
            "name": "increaseAllowance",
            "outputs": [
                {
                    "internalType": "bool",
                    "name": "",
                    "type": "bool"
                }
            ],
            "stateMutability": "nonpayable",
            "type": "function"
        },
        {
            "inputs": [
                {
                    "internalType": "uint256",
                    "name": "pricePerShare",
                    "type": "uint256"
                },
                {
                    "internalType": "address",
                    "name": "currency",
                    "type": "address"
                }
            ],
            "name": "initiateAcquisition",
            "outputs": [],
            "stateMutability": "nonpayable",
            "type": "function"
        },
        {
            "inputs": [],
            "name": "licenseFeeRecipient",
            "outputs": [
                {
                    "internalType": "address payable",
                    "name": "",
                    "type": "address"
                }
            ],
            "stateMutability": "view",
            "type": "function"
        },
        {
            "inputs": [],
            "name": "migrate",
            "outputs": [],
            "stateMutability": "nonpayable",
            "type": "function"
        },
        {
            "inputs": [],
            "name": "migrationQuorum",
            "outputs": [
                {
                    "internalType": "uint256",
                    "name": "",
                    "type": "uint256"
                }
            ],
            "stateMutability": "view",
            "type": "function"
        },
        {
            "inputs": [],
            "name": "name",
            "outputs": [
                {
                    "internalType": "string",
                    "name": "",
                    "type": "string"
                }
            ],
            "stateMutability": "view",
            "type": "function"
        },
        {
            "inputs": [],
            "name": "offer",
            "outputs": [
                {
                    "internalType": "contract Acquisition",
                    "name": "",
                    "type": "address"
                }
            ],
            "stateMutability": "view",
            "type": "function"
        },
        {
            "inputs": [],
            "name": "offerExists",
            "outputs": [
                {
                    "internalType": "bool",
                    "name": "",
                    "type": "bool"
                }
            ],
            "stateMutability": "view",
            "type": "function"
        },
        {
            "inputs": [
                {
                    "internalType": "address",
                    "name": "from",
                    "type": "address"
                },
                {
                    "internalType": "uint256",
                    "name": "amount",
                    "type": "uint256"
                },
                {
                    "internalType": "bytes",
                    "name": "",
                    "type": "bytes"
                }
            ],
            "name": "onTokenTransfer",
            "outputs": [],
            "stateMutability": "nonpayable",
            "type": "function"
        },
        {
            "inputs": [],
            "name": "symbol",
            "outputs": [
                {
                    "internalType": "string",
                    "name": "",
                    "type": "string"
                }
            ],
            "stateMutability": "view",
            "type": "function"
        },
        {
            "inputs": [],
            "name": "totalSupply",
            "outputs": [
                {
                    "internalType": "uint256",
                    "name": "",
                    "type": "uint256"
                }
            ],
            "stateMutability": "view",
            "type": "function"
        },
        {
            "inputs": [
                {
                    "internalType": "address",
                    "name": "recipient",
                    "type": "address"
                },
                {
                    "internalType": "uint256",
                    "name": "amount",
                    "type": "uint256"
                }
            ],
            "name": "transfer",
            "outputs": [
                {
                    "internalType": "bool",
                    "name": "",
                    "type": "bool"
                }
            ],
            "stateMutability": "nonpayable",
            "type": "function"
        },
        {
            "inputs": [
                {
                    "internalType": "address",
                    "name": "recipient",
                    "type": "address"
                },
                {
                    "internalType": "uint256",
                    "name": "amount",
                    "type": "uint256"
                },
                {
                    "internalType": "bytes",
                    "name": "data",
                    "type": "bytes"
                }
            ],
            "name": "transferAndCall",
            "outputs": [
                {
                    "internalType": "bool",
                    "name": "",
                    "type": "bool"
                }
            ],
            "stateMutability": "nonpayable",
            "type": "function"
        },
        {
            "inputs": [
                {
                    "internalType": "address",
                    "name": "sender",
                    "type": "address"
                },
                {
                    "internalType": "address",
                    "name": "recipient",
                    "type": "address"
                },
                {
                    "internalType": "uint256",
                    "name": "amount",
                    "type": "uint256"
                }
            ],
            "name": "transferFrom",
            "outputs": [
                {
                    "internalType": "bool",
                    "name": "",
                    "type": "bool"
                }
            ],
            "stateMutability": "nonpayable",
            "type": "function"
        },
        {
            "inputs": [
                {
                    "internalType": "uint256",
                    "name": "amount",
                    "type": "uint256"
                }
            ],
            "name": "unwrap",
            "outputs": [
                {
                    "internalType": "address",
                    "name": "",
                    "type": "address"
                },
                {
                    "internalType": "uint256",
                    "name": "",
                    "type": "uint256"
                }
            ],
            "stateMutability": "nonpayable",
            "type": "function"
        },
        {
            "inputs": [],
            "name": "unwrapConversionFactor",
            "outputs": [
                {
                    "internalType": "uint256",
                    "name": "",
                    "type": "uint256"
                }
            ],
            "stateMutability": "view",
            "type": "function"
        },
        {
            "inputs": [],
            "name": "voteNo",
            "outputs": [],
            "stateMutability": "nonpayable",
            "type": "function"
        },
        {
            "inputs": [],
            "name": "voteYes",
            "outputs": [],
            "stateMutability": "nonpayable",
            "type": "function"
        },
        {
            "inputs": [],
            "name": "wasAcquired",
            "outputs": [
                {
                    "internalType": "bool",
                    "name": "",
                    "type": "bool"
                }
            ],
            "stateMutability": "view",
            "type": "function"
        },
        {
            "inputs": [
                {
                    "internalType": "address",
                    "name": "shareholder",
                    "type": "address"
                },
                {
                    "internalType": "uint256",
                    "name": "amount",
                    "type": "uint256"
                }
            ],
            "name": "wrap",
            "outputs": [],
            "stateMutability": "nonpayable",
            "type": "function"
        }
    ],
    "bytecode": "6080604052600160048190556009805460ff191690911790553480156200002557600080fd5b5060405162003c2d38038062003c2d833981810160405260608110156200004b57600080fd5b508051602080830151604093840151600380546001600160a01b03861661010081026001600160a81b031990921691909117909155600680546001600160a01b0319167329fe8914e76da5ce2d90de98a64d0055f199d06d179055600783905560088290558551633a98ef3960e01b815295519495929491939092633a98ef3992600480830193928290030181600087803b158015620000ea57600080fd5b505af1158015620000ff573d6000803e3d6000fd5b505050506040513d60208110156200011657600080fd5b5050505050613b02806200012b6000396000f3fe60806040523480156200001157600080fd5b50600436106200022c5760003560e01c80636f4b18df1162000135578063a9059cbb11620000bd578063c028df061162000087578063c028df06146200065b578063dd62ed3e1462000665578063de0e9a3e1462000696578063e1b8c38e14620006d9578063ec6580e214620006e3576200022c565b8063a9059cbb14620005e9578063bb6894721462000618578063bc1b1e7c1462000622578063bf376c7a146200062c576200022c565b806395d89b4111620000ff57806395d89b41146200051d5780639e8a9a5a1462000527578063a457c2d71462000531578063a4c0ed361462000560576200022c565b80636f4b18df14620004d657806370a0823114620004e05780638fd3ab80146200050957806390cf581c1462000513576200022c565b80633549788a11620001b957806342966c68116200018357806342966c68146200045757806349b210b714620004775780635804791314620004a65780636467c09a14620004cc576200022c565b80633549788a146200038b5780633950935114620003955780634000aea014620003c457806341c12a70146200044d576200022c565b8063141c706811620001fb578063141c7068146200031c57806318160ddd146200032857806323b872dd1462000332578063313ce567146200036b576200022c565b806302fb0c5e146200023157806306fdde03146200024f5780630832e47014620002d1578063095ea7b314620002ed575b600080fd5b6200023b620006ed565b604080519115158252519081900360200190f35b62000259620006f6565b6040805160208082528351818301528351919283929083019185019080838360005b83811015620002955781810151838201526020016200027b565b50505050905090810190601f168015620002c35780820380516001836020036101000a031916815260200191505b509250505060405180910390f35b620002db620008bc565b60408051918252519081900360200190f35b6200023b600480360360408110156200030557600080fd5b506001600160a01b038135169060200135620008c2565b62000326620008db565b005b620002db62000d1c565b6200023b600480360360608110156200034a57600080fd5b506001600160a01b0381358116916020810135909116906040013562000d22565b6200037562000d79565b6040805160ff9092168252519081900360200190f35b620002db62000d82565b6200023b60048036036040811015620003ad57600080fd5b506001600160a01b03813516906020013562000d88565b6200023b60048036036060811015620003dc57600080fd5b6001600160a01b0382351691602081013591810190606081016040820135600160201b8111156200040c57600080fd5b8201836020820111156200041f57600080fd5b803590602001918460018302840111600160201b831117156200044157600080fd5b50909250905062000dc1565b6200032662000e88565b62000326600480360360208110156200046f57600080fd5b503562000f64565b62000326600480360360408110156200048f57600080fd5b50803590602001356001600160a01b031662000fd6565b620004b06200150c565b604080516001600160a01b039092168252519081900360200190f35b620004b062001520565b620003266200152f565b620002db60048036036020811015620004f857600080fd5b50356001600160a01b031662001866565b6200032662001881565b6200032662001b16565b6200025962001b8f565b620002db62001d12565b6200023b600480360360408110156200054957600080fd5b506001600160a01b03813516906020013562001d18565b62000326600480360360608110156200057857600080fd5b6001600160a01b0382351691602081013591810190606081016040820135600160201b811115620005a857600080fd5b820183602082011115620005bb57600080fd5b803590602001918460018302840111600160201b83111715620005dd57600080fd5b50909250905062001d51565b6200023b600480360360408110156200060157600080fd5b506001600160a01b03813516906020013562001d80565b620004b062001d8f565b6200023b62001d9e565b62000326600480360360408110156200064457600080fd5b506001600160a01b03813516906020013562001dbb565b620004b062001efa565b620002db600480360360408110156200067d57600080fd5b506001600160a01b038135811691602001351662001f09565b620006b660048036036020811015620006ae57600080fd5b503562001f34565b604080516001600160a01b03909316835260208301919091528051918290030190f35b6200032662002050565b6200023b620021a4565b60095460ff1681565b6060600360019054906101000a90046001600160a01b03166001600160a01b03166306fdde036040518163ffffffff1660e01b815260040160006040518083038186803b1580156200074757600080fd5b505afa1580156200075c573d6000803e3d6000fd5b505050506040513d6000823e601f3d908101601f1916820160405260208110156200078657600080fd5b8101908080516040519392919084600160201b821115620007a657600080fd5b908301906020820185811115620007bc57600080fd5b8251600160201b811182820188101715620007d657600080fd5b82525081516020918201929091019080838360005b8381101562000805578181015183820152602001620007eb565b50505050905090810190601f168015620008335780820380516001836020036101000a031916815260200191505b506040525050506040516020018080690223930b3b3b0b13632960b51b815250600a0182805190602001908083835b60208310620008835780518252601f19909201916020918201910162000862565b6001836020036101000a038019825116818451168082178552505050505050905001915050604051602081830303815290604052905090565b60045481565b6000620008d1338484620021ca565b5060015b92915050565b620008e562001d9e565b8015620008f4575060095460ff165b62000935576040805162461bcd60e51b81526020600482015260196024820152600080516020620039a3833981519152604482015290519081900360640190fd5b600554604080516338a86c5760e11b815290516000926001600160a01b031691637150d8ae916004808301926020929190829003018186803b1580156200097b57600080fd5b505afa15801562000990573d6000803e3d6000fd5b505050506040513d6020811015620009a757600080fd5b50519050336001600160a01b03821614620009f45760405162461bcd60e51b815260040180806020018281038252603981526020018062003a5b6039913960400191505060405180910390fd5b600560009054906101000a90046001600160a01b03166001600160a01b031663d7be4e296040518163ffffffff1660e01b815260040160206040518083038186803b15801562000a4357600080fd5b505afa15801562000a58573d6000803e3d6000fd5b505050506040513d602081101562000a6f57600080fd5b505162000ac3576040805162461bcd60e51b815260206004820181905260248201527f496e73756666696369656e74206e756d626572206f662079657320766f746573604482015290519081900360640190fd5b6005546001600160a01b031663b28fa15262000adf8362001866565b62000ae962000d1c565b036040518263ffffffff1660e01b81526004018082815260200191505060206040518083038186803b15801562000b1f57600080fd5b505afa15801562000b34573d6000803e3d6000fd5b505050506040513d602081101562000b4b57600080fd5b505162000b9f576040805162461bcd60e51b815260206004820152601b60248201527f4f6666657220696e73756666696369656e746c792066756e6465640000000000604482015290519081900360640190fd5b62000c9b81600560009054906101000a90046001600160a01b03166001600160a01b031663e5a6b10f6040518163ffffffff1660e01b815260040160206040518083038186803b15801562000bf357600080fd5b505afa15801562000c08573d6000803e3d6000fd5b505050506040513d602081101562000c1f57600080fd5b50516005546040805163501ad8ff60e11b815290516001600160a01b039092169163a035b1fe91600480820192602092909190829003018186803b15801562000c6757600080fd5b505afa15801562000c7c573d6000803e3d6000fd5b505050506040513d602081101562000c9357600080fd5b5051620022ba565b60055460408051338152600160208201526001600160a01b039283166060820152608081830181905260169082015275436f6d706c65746564207375636365737366756c6c7960501b60a08201529051918316917fc88f58ae9feb0742d9422f604dd3c1be6d02818f8dec340c5061f428b554e9759181900360c00190a250565b60025490565b600062000d31848484620024ef565b6001600160a01b03841660009081526001602090815260408083203380855292529091205462000d6f91869162000d69908662002598565b620021ca565b5060019392505050565b60035460ff1681565b60085481565b3360008181526001602090815260408083206001600160a01b03871684529091528120549091620008d191859062000d699086620025ab565b60008062000dd0868662001d80565b9050801562000e7f57856001600160a01b031663a4c0ed36338787876040518563ffffffff1660e01b815260040180856001600160a01b03168152602001848152602001806020018281038252848482818152602001925080828437600081840152601f19601f82011690508083019250505095505050505050600060405180830381600087803b15801562000e6557600080fd5b505af115801562000e7a573d6000803e3d6000fd5b505050505b95945050505050565b62000e9262001d9e565b801562000ea1575060095460ff165b62000ee2576040805162461bcd60e51b81526020600482015260196024820152600080516020620039a3833981519152604482015290519081900360640190fd5b60055433906001600160a01b0316634b91562e8262000f018162001866565b6040518363ffffffff1660e01b815260040180836001600160a01b0316815260200182815260200192505050600060405180830381600087803b15801562000f4857600080fd5b505af115801562000f5d573d6000803e3d6000fd5b5050505050565b62000f703382620025b9565b62000f7a6200150c565b6001600160a01b03166342966c6862000f9f600454846200265490919063ffffffff16565b6040518263ffffffff1660e01b815260040180828152602001915050600060405180830381600087803b15801562000f4857600080fd5b60095460ff166200102e576040805162461bcd60e51b815260206004820152601860248201527f416e206163636570746564206f66666572206578697374730000000000000000604482015290519081900360640190fd5b60006200103a6200150c565b6001600160a01b0316633a98ef396040518163ffffffff1660e01b8152600401602060405180830381600087803b1580156200107557600080fd5b505af11580156200108a573d6000803e3d6000fd5b505050506040513d6020811015620010a157600080fd5b5051905033620010c2612710620010bb84610bb862002654565b906200267d565b620010cc62000d1c565b10156200110b5760405162461bcd60e51b815260040180806020018281038252602e81526020018062003a09602e913960400191505060405180910390fd5b62001120612710620010bb846101f462002654565b6200112b8262001866565b10156200116a5760405162461bcd60e51b815260040180806020018281038252603981526020018062003a946039913960400191505060405180910390fd5b6006546040516001600160a01b0390911690600090670de0b6b3a76400009082818181858883f19350505050158015620011a8573d6000803e3d6000fd5b506000338486600854604051620011bf9062002c9c565b80856001600160a01b03168152602001846001600160a01b03168152602001838152602001828152602001945050505050604051809103906000f0801580156200120d573d6000803e3d6000fd5b509050806001600160a01b031663b28fa1526200122a8462001866565b6200123462000d1c565b036040518263ffffffff1660e01b81526004018082815260200191505060206040518083038186803b1580156200126a57600080fd5b505afa1580156200127f573d6000803e3d6000fd5b505050506040513d60208110156200129657600080fd5b5051620012e1576040805162461bcd60e51b8152602060048201526014602482015273496e73756666696369656e742066756e64696e6760601b604482015290519081900360640190fd5b620012eb62001d9e565b156200149757600560009054906101000a90046001600160a01b03166001600160a01b031663e5a6b10f6040518163ffffffff1660e01b815260040160206040518083038186803b1580156200134057600080fd5b505afa15801562001355573d6000803e3d6000fd5b505050506040513d60208110156200136c57600080fd5b50516001600160a01b0385811691161480156200141a575062001416612710620010bb612904600560009054906101000a90046001600160a01b03166001600160a01b031663a035b1fe6040518163ffffffff1660e01b815260040160206040518083038186803b158015620013e157600080fd5b505afa158015620013f6573d6000803e3d6000fd5b505050506040513d60208110156200140d57600080fd5b50519062002654565b8510155b620014575760405162461bcd60e51b815260040180806020018281038252603c81526020018062003967603c913960400191505060405180910390fd5b620014976040518060400160405280601c81526020017f4f66666572207265706c6163656420627920686967686572206269640000000081525062002691565b600580546001600160a01b0319166001600160a01b038381169190911790915582167f9c00f159b1fa9eaebda7acaf50be0bf3a652277380f907b35cb681bd641a62d386620014e562001520565b604080519283526001600160a01b0390911660208301528051918290030190a25050505050565b60035461010090046001600160a01b031690565b6005546001600160a01b031690565b6200153962001d9e565b801562001548575060095460ff165b62001589576040805162461bcd60e51b81526020600482015260196024820152600080516020620039a3833981519152604482015290519081900360640190fd5b600560009054906101000a90046001600160a01b03166001600160a01b03166390e64d136040518163ffffffff1660e01b815260040160206040518083038186803b158015620015d857600080fd5b505afa158015620015ed573d6000803e3d6000fd5b505050506040513d60208110156200160457600080fd5b50511562001642576200163c6040518060400160405280600d81526020016c13d999995c88195e1c1a5c9959609a1b81525062002691565b62001864565b600560009054906101000a90046001600160a01b03166001600160a01b031663cf42a9276040518163ffffffff1660e01b815260040160206040518083038186803b1580156200169157600080fd5b505afa158015620016a6573d6000803e3d6000fd5b505050506040513d6020811015620016bd57600080fd5b505115620016fa576200163c60405180604001604052806012815260200171139bdd08195b9bdd59da081cdd5c1c1bdc9d60721b81525062002691565b600554604080516338a86c5760e11b815290516001600160a01b039092169163b28fa1529162001780918491637150d8ae916004808301926020929190829003018186803b1580156200174c57600080fd5b505afa15801562001761573d6000803e3d6000fd5b505050506040513d60208110156200177857600080fd5b505162001866565b6200178a62000d1c565b036040518263ffffffff1660e01b81526004018082815260200191505060206040518083038186803b158015620017c057600080fd5b505afa158015620017d5573d6000803e3d6000fd5b505050506040513d6020811015620017ec57600080fd5b505162001817576200163c604051806060016040528060218152602001620038d96021913962002691565b6040805162461bcd60e51b815260206004820181905260248201527f4163717569736974696f6e20636f6e7465737420756e7375636365737366756c604482015290519081900360640190fd5b565b6001600160a01b031660009081526020819052604090205490565b60095460ff16620018d2576040805162461bcd60e51b8152602060048201526016602482015275436f6e7472616374206973206e6f742061637469766560501b604482015290519081900360640190fd5b6000339050620018f6612710620010bb600754620018ef62000d1c565b9062002654565b620019018262001866565b10156200194a576040805162461bcd60e51b8152602060048201526012602482015271145d5bdc9d5b481b9bdd081c995858da195960721b604482015290519081900360640190fd5b6200195462001d9e565b1562001ac957600560009054906101000a90046001600160a01b03166001600160a01b031663cf42a9276040518163ffffffff1660e01b815260040160206040518083038186803b158015620019a957600080fd5b505afa158015620019be573d6000803e3d6000fd5b505050506040513d6020811015620019d557600080fd5b505162001aad57620019e662000e88565b600560009054906101000a90046001600160a01b03166001600160a01b031663cf42a9276040518163ffffffff1660e01b815260040160206040518083038186803b15801562001a3557600080fd5b505afa15801562001a4a573d6000803e3d6000fd5b505050506040513d602081101562001a6157600080fd5b505162001aad576040805162461bcd60e51b8152602060048201526015602482015274145d5bdc9d5b481a185cc81b9bdd0819985a5b1959605a1b604482015290519081900360640190fd5b62001ab76200152f565b62001ac162001d9e565b1562001ac957fe5b62001ad781826001620022ba565b604080516001600160a01b038316815290517f3b6b79a09e9fd230e8591b65c97236bf7df7a604edf733db0658e66b0e6eb2a99181900360200190a150565b62001b2062001d9e565b801562001b2f575060095460ff165b62001b70576040805162461bcd60e51b81526020600482015260196024820152600080516020620039a3833981519152604482015290519081900360640190fd5b60055433906001600160a01b0316635ff0cf848262000f018162001866565b6060600360019054906101000a90046001600160a01b03166001600160a01b03166395d89b416040518163ffffffff1660e01b815260040160006040518083038186803b15801562001be057600080fd5b505afa15801562001bf5573d6000803e3d6000fd5b505050506040513d6000823e601f3d908101601f19168201604052602081101562001c1f57600080fd5b8101908080516040519392919084600160201b82111562001c3f57600080fd5b90830190602082018581111562001c5557600080fd5b8251600160201b81118282018810171562001c6f57600080fd5b82525081516020918201929091019080838360005b8381101562001c9e57818101518382015260200162001c84565b50505050905090810190601f16801562001ccc5780820380516001836020036101000a031916815260200191505b506040525050506040516020018080601160fa1b815250600101828051906020019080838360208310620008835780518252601f19909201916020918201910162000862565b60075481565b3360008181526001602090815260408083206001600160a01b03871684529091528120549091620008d191859062000d69908662002598565b60035461010090046001600160a01b0316331462001d6e57600080fd5b62001d7a848462002861565b50505050565b6000620008d1338484620024ef565b6006546001600160a01b031681565b60008062001dab62001520565b6001600160a01b03161415905090565b62001dc562001d9e565b1562001e13576040805162461bcd60e51b81526020600482015260186024820152772a3432b9329034b99030903832b73234b7339037b33332b960411b604482015290519081900360640190fd5b600354604080516323b872dd60e01b81523360048201523060248201526044810184905290516101009092046001600160a01b0316916323b872dd916064808201926020929091908290030181600087803b15801562001e7257600080fd5b505af115801562001e87573d6000803e3d6000fd5b505050506040513d602081101562001e9e57600080fd5b505162001eea576040805162461bcd60e51b815260206004820152601560248201527414da185c99481d1c985b9cd9995c8819985a5b1959605a1b604482015290519081900360640190fd5b62001ef6828262002861565b5050565b6005546001600160a01b031681565b6001600160a01b03918216600090815260016020908152604080832093909416825291909152205490565b600954600090819060ff161562001f7d5760405162461bcd60e51b8152600401808060200182810382526036815260200180620038fa6036913960400191505060405180910390fd5b62001f893384620025b9565b600062001fa2600454856200265490919063ffffffff16565b6003546040805163a9059cbb60e01b81523360048201526024810184905290519293506101009091046001600160a01b03169163a9059cbb916044808201926020929091908290030181600087803b15801562001ffe57600080fd5b505af115801562002013573d6000803e3d6000fd5b505050506040513d60208110156200202a57600080fd5b50516200203657600080fd5b60035461010090046001600160a01b031694909350915050565b6200205a62001d9e565b801562002069575060095460ff165b620020aa576040805162461bcd60e51b81526020600482015260196024820152600080516020620039a3833981519152604482015290519081900360640190fd5b600560009054906101000a90046001600160a01b03166001600160a01b0316637150d8ae6040518163ffffffff1660e01b815260040160206040518083038186803b158015620020f957600080fd5b505afa1580156200210e573d6000803e3d6000fd5b505050506040513d60208110156200212557600080fd5b50516001600160a01b031633146200216f5760405162461bcd60e51b8152600401808060200182810382526037815260200180620039306037913960400191505060405180910390fd5b620018646040518060400160405280601281526020017121b0b731b2b63632b210313c90313abcb2b960711b81525062002691565b6000620021b062001d9e565b620021bd576000620021c5565b60095460ff16155b905090565b6001600160a01b038316620022115760405162461bcd60e51b815260040180806020018281038252602481526020018062003a376024913960400191505060405180910390fd5b6001600160a01b038216620022585760405162461bcd60e51b8152600401808060200182810382526022815260200180620038b76022913960400191505060405180910390fd5b6001600160a01b03808416600081815260016020908152604080832094871680845294825291829020859055815185815291517f8c5be1e5ebec7d5bd14f71427d1e84f3dd0314c0f7b2291e5b200ac8c7c3b9259281900390910190a3505050565b6000620022c78462001866565b90506000620022d562000d1c565b6009805460ff191690559050620022ec8262001f34565b5060009050620022fd828462002598565b6003546040805163a9059cbb60e01b81526001600160a01b038a81166004830152602482018590529151939450610100909204169163a9059cbb916044808201926020929091908290030181600087803b1580156200235b57600080fd5b505af115801562002370573d6000803e3d6000fd5b505050506040513d60208110156200238757600080fd5b5051620023cd576040805162461bcd60e51b815260206004820152600f60248201526e1d1c985b9cd9995c8819985a5b1959608a1b604482015290519081900360640190fd5b60038054610100600160a81b0319166101006001600160a01b03888116820292909217928390556004879055909104166323b872dd873062002410888662002654565b6040518463ffffffff1660e01b815260040180846001600160a01b03168152602001836001600160a01b031681526020018281526020019350505050602060405180830381600087803b1580156200246757600080fd5b505af11580156200247c573d6000803e3d6000fd5b505050506040513d60208110156200249357600080fd5b5051620024e7576040805162461bcd60e51b815260206004820152601760248201527f4261636b696e67207472616e73666572206661696c6564000000000000000000604482015290519081900360640190fd5b505050505050565b620024fc8383836200291d565b6200250662001d9e565b801562002515575060095460ff165b15620025935760055460408051636240a7d760e11b81526001600160a01b0386811660048301528581166024830152604482018590529151919092169163c4814fae91606480830192600092919082900301818387803b1580156200257957600080fd5b505af11580156200258e573d6000803e3d6000fd5b505050505b505050565b600082821115620025a557fe5b50900390565b81810182811015620008d557fe5b620025c5828262002a5b565b620025cf62001d9e565b8015620025de575060095460ff165b1562001ef65760055460408051636240a7d760e11b81526001600160a01b03858116600483015260006024830181905260448301869052925193169263c4814fae9260648084019391929182900301818387803b1580156200263f57600080fd5b505af1158015620024e7573d6000803e3d6000fd5b6000826200266557506000620008d5565b50818102818382816200267457fe5b0414620008d557fe5b60008183816200268957fe5b049392505050565b600554604080516338a86c5760e11b815290516000926001600160a01b031691637150d8ae916004808301926020929190829003018186803b158015620026d757600080fd5b505afa158015620026ec573d6000803e3d6000fd5b505050506040513d60208110156200270357600080fd5b505190506001600160a01b0381167fc88f58ae9feb0742d9422f604dd3c1be6d02818f8dec340c5061f428b554e975336000856200274062001520565b60405180856001600160a01b03168152602001841515815260200180602001836001600160a01b03168152602001828103825284818151815260200191508051906020019080838360005b83811015620027a55781810151838201526020016200278b565b50505050905090810190601f168015620027d35780820380516001836020036101000a031916815260200191505b509550505050505060405180910390a2600560009054906101000a90046001600160a01b03166001600160a01b03166341c0e1b56040518163ffffffff1660e01b8152600401600060405180830381600087803b1580156200283457600080fd5b505af115801562002849573d6000803e3d6000fd5b5050600580546001600160a01b031916905550505050565b6200286b62001d9e565b15620028b9576040805162461bcd60e51b81526020600482015260186024820152772a3432b9329034b99030903832b73234b7339037b33332b960411b604482015290519081900360640190fd5b60095460ff1662002911576040805162461bcd60e51b815260206004820152601d60248201527f436f6e7472616374206e6f742061637469766520616e79206d6f72652e000000604482015290519081900360640190fd5b62001ef6828262002b2e565b6001600160a01b038316620029645760405162461bcd60e51b8152600401808060200182810382526025815260200180620039e46025913960400191505060405180910390fd5b6001600160a01b038216620029ab5760405162461bcd60e51b8152600401808060200182810382526023815260200180620038946023913960400191505060405180910390fd5b6001600160a01b038316600090815260208190526040902054620029d0908262002598565b6001600160a01b03808516600090815260208190526040808220939093559084168152205462002a019082620025ab565b6001600160a01b038084166000818152602081815260409182902094909455805185815290519193928716927fddf252ad1be2c89b69c2b068fc378daa952ba7f163c4a11628f55a4df523b3ef92918290030190a3505050565b6001600160a01b03821662002aa25760405162461bcd60e51b8152600401808060200182810382526021815260200180620039c36021913960400191505060405180910390fd5b60025462002ab1908262002598565b6002556001600160a01b03821660009081526020819052604090205462002ad9908262002598565b6001600160a01b038316600081815260208181526040808320949094558351858152935191937fddf252ad1be2c89b69c2b068fc378daa952ba7f163c4a11628f55a4df523b3ef929081900390910190a35050565b62002b3a828262002bb3565b62002b4462001d9e565b801562002b53575060095460ff165b1562001ef65760055460408051636240a7d760e11b81526000600482018190526001600160a01b038681166024840152604483018690529251929093169263c4814fae9260648084019382900301818387803b1580156200263f57600080fd5b6001600160a01b03821662002c0f576040805162461bcd60e51b815260206004820152601f60248201527f45524332303a206d696e7420746f20746865207a65726f206164647265737300604482015290519081900360640190fd5b60025462002c1e9082620025ab565b6002556001600160a01b03821660009081526020819052604090205462002c469082620025ab565b6001600160a01b0383166000818152602081815260408083209490945583518581529351929391927fddf252ad1be2c89b69c2b068fc378daa952ba7f163c4a11628f55a4df523b3ef9281900390910190a35050565b610be98062002cab8339019056fe608060405234801561001057600080fd5b50604051610be9380380610be98339818101604052608081101561003357600080fd5b50805160208201516040830151606090930151919290918161008c576040805162461bcd60e51b815260206004820152600d60248201526c696e76616c696420707269636560981b604482015290519081900360640190fd5b600180546001600160a01b03199081163317909155600280546001600160a01b03968716908316179055600380549490951693169290921790925560049190915560005542600555610b06806100e36000396000f3fe608060405234801561001057600080fd5b506004361061012c5760003560e01c8063b1610d7e116100ad578063cf42a92711610071578063cf42a927146102b4578063d7be4e29146102bc578063e5a6b10f146102c4578063fa7f1bae146102cc578063fb286c65146102d45761012c565b8063b1610d7e14610249578063b28fa15214610251578063b5b47f421461026e578063b80777ea14610276578063c4814fae1461027e5761012c565b80635ff0cf84116100f45780635ff0cf84146101c35780637150d8ae146101ef5780638f1b4c6f1461021357806390e64d1314610239578063a035b1fe146102415761012c565b80630c43cd88146101315780631703a0181461014b57806341c0e1b514610153578063448ab4c61461015d5780634b91562e14610197575b600080fd5b6101396102dc565b60408051918252519081900360200190f35b6101396102e3565b61015b6102e9565b005b6101836004803603602081101561017357600080fd5b50356001600160a01b0316610343565b604080519115158252519081900360200190f35b61015b600480360360408110156101ad57600080fd5b506001600160a01b038135169060200135610376565b61015b600480360360408110156101d957600080fd5b506001600160a01b038135169060200135610421565b6101f76104c8565b604080516001600160a01b039092168252519081900360200190f35b6101836004803603602081101561022957600080fd5b50356001600160a01b03166104d7565b6101836104e0565b610139610504565b61013961050a565b6101836004803603602081101561026757600080fd5b5035610511565b61013961064e565b610139610654565b61015b6004803603606081101561029457600080fd5b506001600160a01b0381358116916020810135909116906040013561065a565b6101836106f0565b61018361083b565b6101f76108f4565b610183610903565b610139610927565b6276a70081565b60005481565b6001546001600160a01b03163314610335576040805162461bcd60e51b815260206004820152600a6024820152691b9bdd081c185c995b9d60b21b604482015290519081900360640190fd5b6002546001600160a01b0316ff5b600060015b6001600160a01b03831660009081526008602052604090205460ff16600281111561036f57fe5b1492915050565b6001546001600160a01b031633146103c2576040805162461bcd60e51b815260206004820152600a6024820152691b9bdd081c185c995b9d60b21b604482015290519081900360640190fd5b6103ca610903565b610411576040805162461bcd60e51b81526020600482015260136024820152722a3432903b37ba32903430b99032b73232b21760691b604482015290519081900360640190fd5b61041d6002828461092d565b5050565b6001546001600160a01b0316331461046d576040805162461bcd60e51b815260206004820152600a6024820152691b9bdd081c185c995b9d60b21b604482015290519081900360640190fd5b610475610903565b6104bc576040805162461bcd60e51b81526020600482015260136024820152722a3432903b37ba32903430b99032b73232b21760691b604482015290519081900360640190fd5b61041d6001828461092d565b6002546001600160a01b031681565b60006002610348565b6000806104f86005544261097390919063ffffffff16565b6276a700109150505b90565b60045481565b624f1a0081565b600354600254604080516370a0823160e01b81526001600160a01b03928316600482015290516000939290921691839183916370a0823191602480820192602092909190829003018186803b15801561056957600080fd5b505afa15801561057d573d6000803e3d6000fd5b505050506040513d602081101561059357600080fd5b505160025460015460408051636eb1769f60e11b81526001600160a01b0393841660048201529183166024830152519293506000929185169163dd62ed3e91604480820192602092909190829003018186803b1580156105f257600080fd5b505afa158015610606573d6000803e3d6000fd5b505050506040513d602081101561061c57600080fd5b505160045490915060009061063290879061098a565b90508281111580156106445750818111155b9695505050505050565b60065481565b60055481565b6001546001600160a01b031633146106a6576040805162461bcd60e51b815260206004820152600a6024820152691b9bdd081c185c995b9d60b21b604482015290519081900360640190fd5b6106ae610903565b156106eb576001600160a01b0380841660009081526008602052604080822054928516825290205460ff91821691166106e88282856109af565b50505b505050565b60006106fa610903565b1561080f57600054600154604080516318160ddd60e01b81529051610807926001600160a01b0316916318160ddd916004808301926020929190829003018186803b15801561074857600080fd5b505afa15801561075c573d6000803e3d6000fd5b505050506040513d602081101561077257600080fd5b5051600654600154604080516318160ddd60e01b8152905161080193612710936107fb9391926001600160a01b03909116916318160ddd916004808301926020929190829003018186803b1580156107c957600080fd5b505afa1580156107dd573d6000803e3d6000fd5b505050506040513d60208110156107f357600080fd5b505190610973565b9061098a565b90610ab0565b109050610501565b60005461080761082c600654600754610ac390919063ffffffff16565b6007546108019061271061098a565b6000610845610903565b156108d757600054600154604080516318160ddd60e01b815290516108ce926001600160a01b0316916318160ddd916004808301926020929190829003018186803b15801561089357600080fd5b505afa1580156108a7573d6000803e3d6000fd5b505050506040513d60208110156108bd57600080fd5b50516007546108019061271061098a565b10159050610501565b6000546108ce61082c600654600754610ac390919063ffffffff16565b6003546001600160a01b031681565b60008061091b6005544261097390919063ffffffff16565b624f1a00101591505090565b60075481565b6001600160a01b0381166000908152600860205260409020805460ff811691859182919060ff1916600183600281111561096357fe5b02179055506106e88282866109af565b60008282111561097f57fe5b508082035b92915050565b60008261099957506000610984565b50818102818382816109a757fe5b041461098457fe5b8160028111156109bb57fe5b8360028111156109c757fe5b146106eb5760028360028111156109da57fe5b14156109f5576006546109ed9082610973565b600655610a1a565b6001836002811115610a0357fe5b1415610a1a57600754610a169082610973565b6007555b6002826002811115610a2857fe5b1415610a4357600654610a3b9082610ac3565b600655610a68565b6001826002811115610a5157fe5b1415610a6857600754610a649082610ac3565b6007555b7f8fcc50c2c4edd06d51ae66e9e21ed76b32a1766c57f491788e1aa24a1b58c256600754600654604051808381526020018281526020019250505060405180910390a1505050565b6000818381610abb57fe5b049392505050565b8181018281101561098457fefea264697066735822122003198c9707537ce5959b3e8267a2b8a721cc26a72203a7d67ca0a492033fb5a264736f6c6343000701003345524332303a207472616e7366657220746f20746865207a65726f206164647265737345524332303a20617070726f766520746f20746865207a65726f20616464726573734f6666657220776173206e6f742073756666696369656e746c792066756e6465644173206c6f6e672061732074686520636f6e7472616374206973206163746976652c20796f752061726520626f756e6420746f206974596f7520617265206e6f7420617574686f72697a656420746f2063616e63656c2074686973206163717569736974696f6e206f666665724e6577206f6666657273206d757374206265206174206c6561737420352520686967686572207468616e207468652070656e64696e67206f666665725468657265206973206e6f2070656e64696e67206f666665720000000000000045524332303a206275726e2066726f6d20746865207a65726f206164647265737345524332303a207472616e736665722066726f6d20746865207a65726f20616464726573735468697320636f6e747261637420646f6573206e6f7420726570726573656e7420656e6f7567682065717569747945524332303a20617070726f76652066726f6d20746865207a65726f2061646472657373596f7520617265206e6f7420617574686f72697a656420746f20636f6d706c6574652074686973206163717569736974696f6e206f66666572596f75206e65656420746f20686f6c64206174206c65617374203525206f6620746865206669726d20746f206d616b6520616e206f66666572a2646970667358221220b417774a6998d84d541c65b3534e456ba2af2a8f5007cde884991aa557b5406a64736f6c63430007010033",
    "sourcePath": "c:/Users/luziu/Documents/aktionariat/contracts/src/ERC20Draggable.sol",
    "compiler": {
        "name": "solc",
        "version": "0.7.1+commit.f4a555be"
    },
    "functionHashes": {
        "acquisitionQuorum()": "3549788a",
        "active()": "02fb0c5e",
        "allowance(address,address)": "dd62ed3e",
        "approve(address,uint256)": "095ea7b3",
        "balanceOf(address)": "70a08231",
        "burn(uint256)": "42966c68",
        "cancelAcquisition()": "e1b8c38e",
        "completeAcquisition()": "141c7068",
        "contestAcquisition()": "6f4b18df",
        "decimals()": "313ce567",
        "decreaseAllowance(address,uint256)": "a457c2d7",
        "getPendingOffer()": "6467c09a",
        "getWrappedContract()": "58047913",
        "increaseAllowance(address,uint256)": "39509351",
        "initiateAcquisition(uint256,address)": "49b210b7",
        "licenseFeeRecipient()": "bb689472",
        "migrate()": "8fd3ab80",
        "migrationQuorum()": "9e8a9a5a",
        "name()": "06fdde03",
        "offer()": "c028df06",
        "offerExists()": "bc1b1e7c",
        "onTokenTransfer(address,uint256,bytes)": "a4c0ed36",
        "symbol()": "95d89b41",
        "totalSupply()": "18160ddd",
        "transfer(address,uint256)": "a9059cbb",
        "transferAndCall(address,uint256,bytes)": "4000aea0",
        "transferFrom(address,address,uint256)": "23b872dd",
        "unwrap(uint256)": "de0e9a3e",
        "unwrapConversionFactor()": "0832e470",
        "voteNo()": "41c12a70",
        "voteYes()": "90cf581c",
        "wasAcquired()": "ec6580e2",
        "wrap(address,uint256)": "bf376c7a"
    },
    "gasEstimates": {
        "creation": {
            "codeDepositCost": "3021200",
            "executionCost": "infinite",
            "totalCost": "infinite"
        },
        "external": {
            "acquisitionQuorum()": "1044",
            "active()": "1057",
            "allowance(address,address)": "1316",
            "approve(address,uint256)": "infinite",
            "balanceOf(address)": "1213",
            "burn(uint256)": "infinite",
            "cancelAcquisition()": "infinite",
            "completeAcquisition()": "infinite",
            "contestAcquisition()": "infinite",
            "decimals()": "1125",
            "decreaseAllowance(address,uint256)": "infinite",
            "getPendingOffer()": "1148",
            "getWrappedContract()": "1137",
            "increaseAllowance(address,uint256)": "infinite",
            "initiateAcquisition(uint256,address)": "infinite",
            "licenseFeeRecipient()": "1104",
            "migrate()": "infinite",
            "migrationQuorum()": "1065",
            "name()": "infinite",
            "offer()": "1081",
            "offerExists()": "1173",
            "onTokenTransfer(address,uint256,bytes)": "infinite",
            "symbol()": "infinite",
            "totalSupply()": "1066",
            "transfer(address,uint256)": "infinite",
            "transferAndCall(address,uint256,bytes)": "infinite",
            "transferFrom(address,address,uint256)": "infinite",
            "unwrap(uint256)": "infinite",
            "unwrapConversionFactor()": "1089",
            "voteNo()": "infinite",
            "voteYes()": "infinite",
            "wasAcquired()": "2078",
            "wrap(address,uint256)": "infinite"
        },
        "internal": {
            "_burn(address,uint256)": "infinite",
            "_mint(address,uint256)": "infinite",
            "_transfer(address,address,uint256)": "infinite",
            "dowrap(address,uint256)": "infinite",
            "invertHoldings(address,address,uint256)": "infinite",
            "killAcquisition(string memory)": "infinite"
        }
    }
}