{
    "contractName": "ERC20Draggable",
    "abi": [
        {
            "inputs": [
                {
                    "internalType": "address",
                    "name": "offerFactory",
                    "type": "address"
                },
                {
                    "internalType": "address",
                    "name": "wrappedToken",
                    "type": "address"
                },
                {
                    "internalType": "uint256",
                    "name": "quorum_",
                    "type": "uint256"
                },
                {
                    "internalType": "uint256",
                    "name": "votePeriod_",
                    "type": "uint256"
                }
            ],
            "stateMutability": "nonpayable",
            "type": "constructor"
        },
        {
            "anonymous": false,
            "inputs": [
                {
                    "indexed": true,
                    "internalType": "address",
                    "name": "owner",
                    "type": "address"
                },
                {
                    "indexed": true,
                    "internalType": "address",
                    "name": "spender",
                    "type": "address"
                },
                {
                    "indexed": false,
                    "internalType": "uint256",
                    "name": "value",
                    "type": "uint256"
                }
            ],
            "name": "Approval",
            "type": "event"
        },
        {
            "anonymous": false,
            "inputs": [
                {
                    "indexed": false,
                    "internalType": "address",
                    "name": "newContractAddress",
                    "type": "address"
                }
            ],
            "name": "MigrationSucceeded",
            "type": "event"
        },
        {
            "anonymous": false,
            "inputs": [
                {
                    "indexed": true,
                    "internalType": "address",
                    "name": "from",
                    "type": "address"
                },
                {
                    "indexed": true,
                    "internalType": "address",
                    "name": "to",
                    "type": "address"
                },
                {
                    "indexed": false,
                    "internalType": "uint256",
                    "name": "value",
                    "type": "uint256"
                }
            ],
            "name": "Transfer",
            "type": "event"
        },
        {
            "inputs": [
                {
                    "internalType": "address",
                    "name": "owner",
                    "type": "address"
                },
                {
                    "internalType": "address",
                    "name": "spender",
                    "type": "address"
                }
            ],
            "name": "allowance",
            "outputs": [
                {
                    "internalType": "uint256",
                    "name": "",
                    "type": "uint256"
                }
            ],
            "stateMutability": "view",
            "type": "function"
        },
        {
            "inputs": [
                {
                    "internalType": "address",
                    "name": "spender",
                    "type": "address"
                },
                {
                    "internalType": "uint256",
                    "name": "value",
                    "type": "uint256"
                }
            ],
            "name": "approve",
            "outputs": [
                {
                    "internalType": "bool",
                    "name": "",
                    "type": "bool"
                }
            ],
            "stateMutability": "nonpayable",
            "type": "function"
        },
        {
            "inputs": [
                {
                    "internalType": "address",
                    "name": "account",
                    "type": "address"
                }
            ],
            "name": "balanceOf",
            "outputs": [
                {
                    "internalType": "uint256",
                    "name": "",
                    "type": "uint256"
                }
            ],
            "stateMutability": "view",
            "type": "function"
        },
        {
            "inputs": [
                {
                    "internalType": "uint256",
                    "name": "amount",
                    "type": "uint256"
                }
            ],
            "name": "burn",
            "outputs": [],
            "stateMutability": "nonpayable",
            "type": "function"
        },
        {
            "inputs": [],
            "name": "decimals",
            "outputs": [
                {
                    "internalType": "uint8",
                    "name": "",
                    "type": "uint8"
                }
            ],
            "stateMutability": "view",
            "type": "function"
        },
        {
            "inputs": [
                {
                    "internalType": "address",
                    "name": "spender",
                    "type": "address"
                },
                {
                    "internalType": "uint256",
                    "name": "subtractedValue",
                    "type": "uint256"
                }
            ],
            "name": "decreaseAllowance",
            "outputs": [
                {
                    "internalType": "bool",
                    "name": "",
                    "type": "bool"
                }
            ],
            "stateMutability": "nonpayable",
            "type": "function"
        },
        {
            "inputs": [
                {
                    "internalType": "address",
                    "name": "buyer",
                    "type": "address"
                },
                {
                    "internalType": "address",
                    "name": "currency",
                    "type": "address"
                }
            ],
            "name": "drag",
            "outputs": [],
            "stateMutability": "nonpayable",
            "type": "function"
        },
        {
            "inputs": [],
            "name": "factory",
            "outputs": [
                {
                    "internalType": "contract IOfferFactory",
                    "name": "",
                    "type": "address"
                }
            ],
            "stateMutability": "view",
            "type": "function"
        },
        {
            "inputs": [
                {
                    "internalType": "address",
                    "name": "spender",
                    "type": "address"
                },
                {
                    "internalType": "uint256",
                    "name": "addedValue",
                    "type": "uint256"
                }
            ],
            "name": "increaseAllowance",
            "outputs": [
                {
                    "internalType": "bool",
                    "name": "",
                    "type": "bool"
                }
            ],
            "stateMutability": "nonpayable",
            "type": "function"
        },
        {
            "inputs": [],
            "name": "isBinding",
            "outputs": [
                {
                    "internalType": "bool",
                    "name": "",
                    "type": "bool"
                }
            ],
            "stateMutability": "view",
            "type": "function"
        },
        {
            "inputs": [
                {
                    "internalType": "bytes32",
                    "name": "salt",
                    "type": "bytes32"
                },
                {
                    "internalType": "uint256",
                    "name": "pricePerShare",
                    "type": "uint256"
                },
                {
                    "internalType": "address",
                    "name": "currency",
                    "type": "address"
                }
            ],
            "name": "makeAcquisitionOffer",
            "outputs": [],
            "stateMutability": "payable",
            "type": "function"
        },
        {
            "inputs": [],
            "name": "migrate",
            "outputs": [],
            "stateMutability": "nonpayable",
            "type": "function"
        },
        {
            "inputs": [],
            "name": "name",
            "outputs": [
                {
                    "internalType": "string",
                    "name": "",
                    "type": "string"
                }
            ],
            "stateMutability": "view",
            "type": "function"
        },
        {
            "inputs": [],
            "name": "notifyOfferEnded",
            "outputs": [],
            "stateMutability": "nonpayable",
            "type": "function"
        },
        {
            "inputs": [],
            "name": "offer",
            "outputs": [
                {
                    "internalType": "contract IOffer",
                    "name": "",
                    "type": "address"
                }
            ],
            "stateMutability": "view",
            "type": "function"
        },
        {
            "inputs": [
                {
                    "internalType": "address",
                    "name": "from",
                    "type": "address"
                },
                {
                    "internalType": "uint256",
                    "name": "amount",
                    "type": "uint256"
                },
                {
                    "internalType": "bytes",
                    "name": "",
                    "type": "bytes"
                }
            ],
            "name": "onTokenTransfer",
            "outputs": [],
            "stateMutability": "nonpayable",
            "type": "function"
        },
        {
            "inputs": [],
            "name": "quorum",
            "outputs": [
                {
                    "internalType": "uint256",
                    "name": "",
                    "type": "uint256"
                }
            ],
            "stateMutability": "view",
            "type": "function"
        },
        {
            "inputs": [],
            "name": "symbol",
            "outputs": [
                {
                    "internalType": "string",
                    "name": "",
                    "type": "string"
                }
            ],
            "stateMutability": "view",
            "type": "function"
        },
        {
            "inputs": [],
            "name": "totalSupply",
            "outputs": [
                {
                    "internalType": "uint256",
                    "name": "",
                    "type": "uint256"
                }
            ],
            "stateMutability": "view",
            "type": "function"
        },
        {
            "inputs": [
                {
                    "internalType": "address",
                    "name": "recipient",
                    "type": "address"
                },
                {
                    "internalType": "uint256",
                    "name": "amount",
                    "type": "uint256"
                }
            ],
            "name": "transfer",
            "outputs": [
                {
                    "internalType": "bool",
                    "name": "",
                    "type": "bool"
                }
            ],
            "stateMutability": "nonpayable",
            "type": "function"
        },
        {
            "inputs": [
                {
                    "internalType": "address",
                    "name": "recipient",
                    "type": "address"
                },
                {
                    "internalType": "uint256",
                    "name": "amount",
                    "type": "uint256"
                },
                {
                    "internalType": "bytes",
                    "name": "data",
                    "type": "bytes"
                }
            ],
            "name": "transferAndCall",
            "outputs": [
                {
                    "internalType": "bool",
                    "name": "",
                    "type": "bool"
                }
            ],
            "stateMutability": "nonpayable",
            "type": "function"
        },
        {
            "inputs": [
                {
                    "internalType": "address",
                    "name": "sender",
                    "type": "address"
                },
                {
                    "internalType": "address",
                    "name": "recipient",
                    "type": "address"
                },
                {
                    "internalType": "uint256",
                    "name": "amount",
                    "type": "uint256"
                }
            ],
            "name": "transferFrom",
            "outputs": [
                {
                    "internalType": "bool",
                    "name": "",
                    "type": "bool"
                }
            ],
            "stateMutability": "nonpayable",
            "type": "function"
        },
        {
            "inputs": [
                {
                    "internalType": "uint256",
                    "name": "amount",
                    "type": "uint256"
                }
            ],
            "name": "unwrap",
            "outputs": [],
            "stateMutability": "nonpayable",
            "type": "function"
        },
        {
            "inputs": [],
            "name": "unwrapConversionFactor",
            "outputs": [
                {
                    "internalType": "uint256",
                    "name": "",
                    "type": "uint256"
                }
            ],
            "stateMutability": "view",
            "type": "function"
        },
        {
            "inputs": [],
            "name": "votePeriod",
            "outputs": [
                {
                    "internalType": "uint256",
                    "name": "",
                    "type": "uint256"
                }
            ],
            "stateMutability": "view",
            "type": "function"
        },
        {
            "inputs": [
                {
                    "internalType": "address",
                    "name": "shareholder",
                    "type": "address"
                },
                {
                    "internalType": "uint256",
                    "name": "amount",
                    "type": "uint256"
                }
            ],
            "name": "wrap",
            "outputs": [],
            "stateMutability": "nonpayable",
            "type": "function"
        },
        {
            "inputs": [],
            "name": "wrapped",
            "outputs": [
                {
                    "internalType": "contract IERC20",
                    "name": "",
                    "type": "address"
                }
            ],
            "stateMutability": "view",
            "type": "function"
        }
    ],
    "bytecode": "6080604052600060055534801561001557600080fd5b506040516200177a3803806200177a83398101604081905261003691610099565b60038054600480546001600160a01b0319166001600160a01b039788161790556001600160a81b0319166101009490951693909302939093179091556007556008556100db565b80516001600160a01b038116811461009457600080fd5b919050565b600080600080608085870312156100ae578384fd5b6100b78561007d565b93506100c56020860161007d565b6040860151606090960151949790965092505050565b61168f80620000eb6000396000f3fe60806040526004361061019c5760003560e01c80638fd3ab80116100ec578063bf376c7a1161008a578063dcc7d4ad11610064578063dcc7d4ad1461043e578063dd62ed3e14610451578063de0e9a3e14610471578063fcb79a7e146104915761019c565b8063bf376c7a146103f4578063c028df0614610414578063c45a0155146104295761019c565b8063a457c2d7116100c6578063a457c2d71461037f578063a4c0ed361461039f578063a7813587146103bf578063a9059cbb146103d45761019c565b80638fd3ab801461034057806395d89b41146103555780639e4b57451461036a5761019c565b8063313ce567116101595780634000aea0116101335780634000aea0146102be57806342966c68146102de57806350e70d48146102fe57806370a08231146103205761019c565b8063313ce5671461026557806332bc320b14610287578063395093511461029e5761019c565b806306fdde03146101a15780630832e470146101cc578063095ea7b3146101ee5780631703a0181461021b57806318160ddd1461023057806323b872dd14610245575b600080fd5b3480156101ad57600080fd5b506101b66104b1565b6040516101c39190611508565b60405180910390f35b3480156101d857600080fd5b506101e1610561565b6040516101c39190611567565b3480156101fa57600080fd5b5061020e6102093660046111fa565b610567565b6040516101c391906114c8565b34801561022757600080fd5b506101e161057d565b34801561023c57600080fd5b506101e1610583565b34801561025157600080fd5b5061020e6102603660046111ba565b610589565b34801561027157600080fd5b5061027a6105db565b6040516101c39190611570565b34801561029357600080fd5b5061029c6105e4565b005b3480156102aa57600080fd5b5061020e6102b93660046111fa565b61060a565b3480156102ca57600080fd5b5061020e6102d9366004611225565b610641565b3480156102ea57600080fd5b5061029c6102f93660046113a4565b6106c4565b34801561030a57600080fd5b5061031361075c565b6040516101c3919061142f565b34801561032c57600080fd5b506101e161033b366004611143565b610770565b34801561034c57600080fd5b5061029c61078b565b34801561036157600080fd5b506101b6610832565b34801561037657600080fd5b5061020e6108ce565b34801561038b57600080fd5b5061020e61039a3660046111fa565b6108d5565b3480156103ab57600080fd5b5061029c6103ba366004611225565b61090c565b3480156103cb57600080fd5b506101e1610938565b3480156103e057600080fd5b5061020e6103ef3660046111fa565b61093e565b34801561040057600080fd5b5061029c61040f3660046111fa565b61094b565b34801561042057600080fd5b506103136109ec565b34801561043557600080fd5b506103136109fb565b61029c61044c3660046112c9565b610a0a565b34801561045d57600080fd5b506101e161046c366004611182565b610b48565b34801561047d57600080fd5b5061029c61048c3660046113a4565b610b73565b34801561049d57600080fd5b5061029c6104ac366004611182565b610b95565b6060600360019054906101000a90046001600160a01b03166001600160a01b03166306fdde036040518163ffffffff1660e01b815260040160006040518083038186803b15801561050157600080fd5b505afa158015610515573d6000803e3d6000fd5b505050506040513d6000823e601f3d908101601f1916820160405261053d9190810190611301565b60405160200161054d91906113fd565b604051602081830303815290604052905090565b60055481565b6000610574338484610bca565b50600192915050565b60075481565b60025490565b6000610596848484610c32565b6001600160a01b0384166000908152600160209081526040808320338085529252909120546105d19186916105cc9086906115d5565b610bca565b5060019392505050565b60035460ff1681565b6006546001600160a01b031633141561060857600680546001600160a01b03191690555b565b3360008181526001602090815260408083206001600160a01b038716845290915281205490916105749185906105cc90869061157e565b60008061064e868661093e565b905080156106bb57604051635260769b60e11b81526001600160a01b0387169063a4c0ed3690610688903390899089908990600401611480565b600060405180830381600087803b1580156106a257600080fd5b505af11580156106b6573d6000803e3d6000fd5b505050505b95945050505050565b6106ce3382610cef565b60006106d86108ce565b6106e4576005546106e7565b60015b60035490915061010090046001600160a01b03166342966c6861070a83856115b6565b6040518263ffffffff1660e01b81526004016107269190611567565b600060405180830381600087803b15801561074057600080fd5b505af1158015610754573d6000803e3d6000fd5b505050505050565b60035461010090046001600160a01b031681565b6001600160a01b031660009081526020819052604090205490565b33610794610d89565b1561079e57600080fd5b6107a6610583565b6107b290611f406115b6565b6107bb82610770565b6107c7906127106115b6565b10156107ee5760405162461bcd60e51b81526004016107e59061153b565b60405180910390fd5b6107f88182610d9a565b7f3b6b79a09e9fd230e8591b65c97236bf7df7a604edf733db0658e66b0e6eb2a981604051610827919061142f565b60405180910390a150565b6060600360019054906101000a90046001600160a01b03166001600160a01b03166395d89b416040518163ffffffff1660e01b815260040160006040518083038186803b15801561088257600080fd5b505afa158015610896573d6000803e3d6000fd5b505050506040513d6000823e601f3d908101601f191682016040526108be9190810190611301565b60405160200161054d91906113d4565b6005541590565b3360008181526001602090815260408083206001600160a01b038716845290915281205490916105749185906105cc9086906115d5565b60035461010090046001600160a01b0316331461092857600080fd5b6109328484610f6f565b50505050565b60085481565b6000610574338484610c32565b6003546040516323b872dd60e01b81526101009091046001600160a01b0316906323b872dd9061098390339030908690600401611443565b602060405180830381600087803b15801561099d57600080fd5b505af11580156109b1573d6000803e3d6000fd5b505050506040513d601f19601f820116820180604052508101906109d591906112a9565b6109de57600080fd5b6109e88282610f6f565b5050565b6006546001600160a01b031681565b6004546001600160a01b031681565b610a126108ce565b610a1b57600080fd5b60048054600754600854604051634dc5e43160e01b81526000946001600160a01b0390941693634dc5e431933493610a5f938b9333938c938c9391929091016114d3565b6020604051808303818588803b158015610a7857600080fd5b505af1158015610a8c573d6000803e3d6000fd5b50505050506040513d601f19601f82011682018060405250810190610ab19190611166565b9050610abb610d89565b15610b23576006546040516306a169ed60e01b81526001600160a01b03909116906306a169ed90610af090849060040161142f565b600060405180830381600087803b158015610b0a57600080fd5b505af1158015610b1e573d6000803e3d6000fd5b505050505b600680546001600160a01b0319166001600160a01b0392909216919091179055505050565b6001600160a01b03918216600090815260016020908152604080832093909416825291909152205490565b610b7b6108ce565b15610b8557600080fd5b610b923382600554611010565b50565b6006546001600160a01b03163314610bac57600080fd5b610bc082610bb984610770565b6001611010565b6109e88183610d9a565b6001600160a01b0380841660008181526001602090815260408083209487168084529490915290819020849055517f8c5be1e5ebec7d5bd14f71427d1e84f3dd0314c0f7b2291e5b200ac8c7c3b92590610c25908590611567565b60405180910390a3505050565b6001600160a01b038216610c4557600080fd5b610c508383836110b8565b6001600160a01b03831660009081526020819052604081208054839290610c789084906115d5565b90915550506001600160a01b03821660009081526020819052604081208054839290610ca590849061157e565b92505081905550816001600160a01b0316836001600160a01b03167fddf252ad1be2c89b69c2b068fc378daa952ba7f163c4a11628f55a4df523b3ef83604051610c259190611567565b610cfb826000836110b8565b8060026000828254610d0d91906115d5565b90915550506001600160a01b03821660009081526020819052604081208054839290610d3a9084906115d5565b90915550506040516000906001600160a01b038416907fddf252ad1be2c89b69c2b068fc378daa952ba7f163c4a11628f55a4df523b3ef90610d7d908590611567565b60405180910390a35050565b6006546001600160a01b0316151590565b610da26108ce565b610dab57600080fd5b6003546040516370a0823160e01b81526101009091046001600160a01b03169063a9059cbb90839083906370a0823190610de990309060040161142f565b60206040518083038186803b158015610e0157600080fd5b505afa158015610e15573d6000803e3d6000fd5b505050506040513d601f19601f82011682018060405250810190610e3991906113bc565b6040518363ffffffff1660e01b8152600401610e56929190611467565b602060405180830381600087803b158015610e7057600080fd5b505af1158015610e84573d6000803e3d6000fd5b505050506040513d601f19601f82011682018060405250810190610ea891906112a9565b610eb157600080fd5b60038054610100600160a81b0319166101006001600160a01b038516021790556109e8610edc610583565b6003546040516370a0823160e01b81526101009091046001600160a01b0316906370a0823190610f1090309060040161142f565b60206040518083038186803b158015610f2857600080fd5b505afa158015610f3c573d6000803e3d6000fd5b505050506040513d601f19601f82011682018060405250810190610f6091906113bc565b610f6a9190611596565b611130565b6001600160a01b038216610f8257600080fd5b610f8e600083836110b8565b8060026000828254610fa0919061157e565b90915550506001600160a01b03821660009081526020819052604081208054839290610fcd90849061157e565b90915550506040516001600160a01b038316906000907fddf252ad1be2c89b69c2b068fc378daa952ba7f163c4a11628f55a4df523b3ef90610d7d908590611567565b61101a8383610cef565b60035461010090046001600160a01b031663a9059cbb8461103b84866115b6565b6040518363ffffffff1660e01b8152600401611058929190611467565b602060405180830381600087803b15801561107257600080fd5b505af1158015611086573d6000803e3d6000fd5b505050506040513d601f19601f820116820180604052508101906110aa91906112a9565b6110b357600080fd5b505050565b6110c0610d89565b156110b35760065460405163e1a1810f60e01b81526001600160a01b039091169063e1a1810f906110f990869086908690600401611443565b600060405180830381600087803b15801561111357600080fd5b505af1158015611127573d6000803e3d6000fd5b50505050505050565b600181101561113e57600080fd5b600555565b600060208284031215611154578081fd5b813561115f81611644565b9392505050565b600060208284031215611177578081fd5b815161115f81611644565b60008060408385031215611194578081fd5b823561119f81611644565b915060208301356111af81611644565b809150509250929050565b6000806000606084860312156111ce578081fd5b83356111d981611644565b925060208401356111e981611644565b929592945050506040919091013590565b6000806040838503121561120c578182fd5b823561121781611644565b946020939093013593505050565b6000806000806060858703121561123a578081fd5b843561124581611644565b935060208501359250604085013567ffffffffffffffff80821115611268578283fd5b818701915087601f83011261127b578283fd5b813581811115611289578384fd5b88602082850101111561129a578384fd5b95989497505060200194505050565b6000602082840312156112ba578081fd5b8151801515811461115f578182fd5b6000806000606084860312156112dd578283fd5b833592506020840135915060408401356112f681611644565b809150509250925092565b600060208284031215611312578081fd5b815167ffffffffffffffff80821115611329578283fd5b818401915084601f83011261133c578283fd5b81518181111561134e5761134e61162e565b604051601f8201601f1916810160200183811182821017156113725761137261162e565b604052818152838201602001871015611389578485fd5b61139a8260208301602087016115ec565b9695505050505050565b6000602082840312156113b5578081fd5b5035919050565b6000602082840312156113cd578081fd5b5051919050565b6000601160fa1b825282516113f08160018501602087016115ec565b9190910160010192915050565b6000690223930b3b3b0b13632960b51b8252825161142281600a8501602087016115ec565b91909101600a0192915050565b6001600160a01b0391909116815260200190565b6001600160a01b039384168152919092166020820152604081019190915260600190565b6001600160a01b03929092168252602082015260400190565b6001600160a01b0385168152602081018490526060604082018190528101829052600082846080840137818301608090810191909152601f909201601f191601019392505050565b901515815260200190565b9586526001600160a01b039485166020870152604086019390935292166060840152608083019190915260a082015260c00190565b60006020825282518060208401526115278160408501602087016115ec565b601f01601f19169190910160400192915050565b602080825260129082015271145d5bdc9d5b481b9bdd081c995858da195960721b604082015260600190565b90815260200190565b60ff91909116815260200190565b6000821982111561159157611591611618565b500190565b6000826115b157634e487b7160e01b81526012600452602481fd5b500490565b60008160001904831182151516156115d0576115d0611618565b500290565b6000828210156115e7576115e7611618565b500390565b60005b838110156116075781810151838201526020016115ef565b838111156109325750506000910152565b634e487b7160e01b600052601160045260246000fd5b634e487b7160e01b600052604160045260246000fd5b6001600160a01b0381168114610b9257600080fdfea26469706673582212207635fe34192b9474fb87d0a7cf69b1de970722f7418c88300b0af15eaa86acee64736f6c63430008000033",
    "sourcePath": "c:/Users/luziu/Documents/aktionariat/contracts/src/ERC20Draggable.sol",
    "compiler": {
        "name": "solc",
        "version": "0.8.0+commit.c7dfd78e"
    },
    "functionHashes": {
        "allowance(address,address)": "dd62ed3e",
        "approve(address,uint256)": "095ea7b3",
        "balanceOf(address)": "70a08231",
        "burn(uint256)": "42966c68",
        "decimals()": "313ce567",
        "decreaseAllowance(address,uint256)": "a457c2d7",
        "drag(address,address)": "fcb79a7e",
        "factory()": "c45a0155",
        "increaseAllowance(address,uint256)": "39509351",
        "isBinding()": "9e4b5745",
        "makeAcquisitionOffer(bytes32,uint256,address)": "dcc7d4ad",
        "migrate()": "8fd3ab80",
        "name()": "06fdde03",
        "notifyOfferEnded()": "32bc320b",
        "offer()": "c028df06",
        "onTokenTransfer(address,uint256,bytes)": "a4c0ed36",
        "quorum()": "1703a018",
        "symbol()": "95d89b41",
        "totalSupply()": "18160ddd",
        "transfer(address,uint256)": "a9059cbb",
        "transferAndCall(address,uint256,bytes)": "4000aea0",
        "transferFrom(address,address,uint256)": "23b872dd",
        "unwrap(uint256)": "de0e9a3e",
        "unwrapConversionFactor()": "0832e470",
        "votePeriod()": "a7813587",
        "wrap(address,uint256)": "bf376c7a",
        "wrapped()": "50e70d48"
    },
    "gasEstimates": {
        "creation": {
            "codeDepositCost": "1155000",
            "executionCost": "infinite",
            "totalCost": "infinite"
        },
        "external": {
            "allowance(address,address)": "infinite",
            "approve(address,uint256)": "22548",
            "balanceOf(address)": "1378",
            "burn(uint256)": "infinite",
            "decimals()": "1092",
            "decreaseAllowance(address,uint256)": "23560",
            "drag(address,address)": "infinite",
            "factory()": "1159",
            "increaseAllowance(address,uint256)": "23608",
            "isBinding()": "1127",
            "makeAcquisitionOffer(bytes32,uint256,address)": "infinite",
            "migrate()": "infinite",
            "name()": "infinite",
            "notifyOfferEnded()": "21885",
            "offer()": "1137",
            "onTokenTransfer(address,uint256,bytes)": "infinite",
            "quorum()": "1118",
            "symbol()": "infinite",
            "totalSupply()": "1140",
            "transfer(address,uint256)": "infinite",
            "transferAndCall(address,uint256,bytes)": "infinite",
            "transferFrom(address,address,uint256)": "infinite",
            "unwrap(uint256)": "infinite",
            "unwrapConversionFactor()": "1074",
            "votePeriod()": "1117",
            "wrap(address,uint256)": "infinite",
            "wrapped()": "1170"
        },
        "internal": {
            "_beforeTokenTransfer(address,address,uint256)": "infinite",
            "deactivate(uint256)": "20038",
            "offerExists()": "839",
            "replaceWrapped(address,address)": "infinite",
            "unwrap(address,uint256,uint256)": "infinite"
        }
    }
}