{
    "contractName": "ERC20Draggable",
    "abi": [
        {
            "inputs": [
                {
                    "internalType": "address",
                    "name": "offerFactory",
                    "type": "address"
                },
                {
                    "internalType": "address",
                    "name": "wrappedToken",
                    "type": "address"
                },
                {
                    "internalType": "uint256",
                    "name": "quorum_",
                    "type": "uint256"
                }
            ],
            "stateMutability": "nonpayable",
            "type": "constructor"
        },
        {
            "anonymous": false,
            "inputs": [
                {
                    "indexed": true,
                    "internalType": "address",
                    "name": "owner",
                    "type": "address"
                },
                {
                    "indexed": true,
                    "internalType": "address",
                    "name": "spender",
                    "type": "address"
                },
                {
                    "indexed": false,
                    "internalType": "uint256",
                    "name": "value",
                    "type": "uint256"
                }
            ],
            "name": "Approval",
            "type": "event"
        },
        {
            "anonymous": false,
            "inputs": [
                {
                    "indexed": false,
                    "internalType": "address",
                    "name": "newContractAddress",
                    "type": "address"
                }
            ],
            "name": "MigrationSucceeded",
            "type": "event"
        },
        {
            "anonymous": false,
            "inputs": [
                {
                    "indexed": true,
                    "internalType": "address",
                    "name": "from",
                    "type": "address"
                },
                {
                    "indexed": true,
                    "internalType": "address",
                    "name": "to",
                    "type": "address"
                },
                {
                    "indexed": false,
                    "internalType": "uint256",
                    "name": "value",
                    "type": "uint256"
                }
            ],
            "name": "Transfer",
            "type": "event"
        },
        {
            "inputs": [],
            "name": "VALIDITY_PERIOD",
            "outputs": [
                {
                    "internalType": "uint256",
                    "name": "",
                    "type": "uint256"
                }
            ],
            "stateMutability": "view",
            "type": "function"
        },
        {
            "inputs": [],
            "name": "VOTING_PERIOD",
            "outputs": [
                {
                    "internalType": "uint256",
                    "name": "",
                    "type": "uint256"
                }
            ],
            "stateMutability": "view",
            "type": "function"
        },
        {
            "inputs": [
                {
                    "internalType": "address",
                    "name": "owner",
                    "type": "address"
                },
                {
                    "internalType": "address",
                    "name": "spender",
                    "type": "address"
                }
            ],
            "name": "allowance",
            "outputs": [
                {
                    "internalType": "uint256",
                    "name": "",
                    "type": "uint256"
                }
            ],
            "stateMutability": "view",
            "type": "function"
        },
        {
            "inputs": [
                {
                    "internalType": "address",
                    "name": "spender",
                    "type": "address"
                },
                {
                    "internalType": "uint256",
                    "name": "value",
                    "type": "uint256"
                }
            ],
            "name": "approve",
            "outputs": [
                {
                    "internalType": "bool",
                    "name": "",
                    "type": "bool"
                }
            ],
            "stateMutability": "nonpayable",
            "type": "function"
        },
        {
            "inputs": [
                {
                    "internalType": "address",
                    "name": "account",
                    "type": "address"
                }
            ],
            "name": "balanceOf",
            "outputs": [
                {
                    "internalType": "uint256",
                    "name": "",
                    "type": "uint256"
                }
            ],
            "stateMutability": "view",
            "type": "function"
        },
        {
            "inputs": [
                {
                    "internalType": "uint256",
                    "name": "amount",
                    "type": "uint256"
                }
            ],
            "name": "burn",
            "outputs": [],
            "stateMutability": "nonpayable",
            "type": "function"
        },
        {
            "inputs": [],
            "name": "decimals",
            "outputs": [
                {
                    "internalType": "uint8",
                    "name": "",
                    "type": "uint8"
                }
            ],
            "stateMutability": "view",
            "type": "function"
        },
        {
            "inputs": [
                {
                    "internalType": "address",
                    "name": "spender",
                    "type": "address"
                },
                {
                    "internalType": "uint256",
                    "name": "subtractedValue",
                    "type": "uint256"
                }
            ],
            "name": "decreaseAllowance",
            "outputs": [
                {
                    "internalType": "bool",
                    "name": "",
                    "type": "bool"
                }
            ],
            "stateMutability": "nonpayable",
            "type": "function"
        },
        {
            "inputs": [
                {
                    "internalType": "address",
                    "name": "buyer",
                    "type": "address"
                },
                {
                    "internalType": "address",
                    "name": "currency",
                    "type": "address"
                }
            ],
            "name": "drag",
            "outputs": [],
            "stateMutability": "nonpayable",
            "type": "function"
        },
        {
            "inputs": [],
            "name": "factory",
            "outputs": [
                {
                    "internalType": "contract IOfferFactory",
                    "name": "",
                    "type": "address"
                }
            ],
            "stateMutability": "view",
            "type": "function"
        },
        {
            "inputs": [
                {
                    "internalType": "address",
                    "name": "spender",
                    "type": "address"
                },
                {
                    "internalType": "uint256",
                    "name": "addedValue",
                    "type": "uint256"
                }
            ],
            "name": "increaseAllowance",
            "outputs": [
                {
                    "internalType": "bool",
                    "name": "",
                    "type": "bool"
                }
            ],
            "stateMutability": "nonpayable",
            "type": "function"
        },
        {
            "inputs": [],
            "name": "isBinding",
            "outputs": [
                {
                    "internalType": "bool",
                    "name": "",
                    "type": "bool"
                }
            ],
            "stateMutability": "view",
            "type": "function"
        },
        {
            "inputs": [
                {
                    "internalType": "bytes32",
                    "name": "salt",
                    "type": "bytes32"
                },
                {
                    "internalType": "uint256",
                    "name": "pricePerShare",
                    "type": "uint256"
                },
                {
                    "internalType": "address",
                    "name": "currency",
                    "type": "address"
                }
            ],
            "name": "makeAcquisitionOffer",
            "outputs": [],
            "stateMutability": "payable",
            "type": "function"
        },
        {
            "inputs": [],
            "name": "migrate",
            "outputs": [],
            "stateMutability": "nonpayable",
            "type": "function"
        },
        {
            "inputs": [],
            "name": "name",
            "outputs": [
                {
                    "internalType": "string",
                    "name": "",
                    "type": "string"
                }
            ],
            "stateMutability": "view",
            "type": "function"
        },
        {
            "inputs": [],
            "name": "notifyOfferEnded",
            "outputs": [],
            "stateMutability": "nonpayable",
            "type": "function"
        },
        {
            "inputs": [],
            "name": "offer",
            "outputs": [
                {
                    "internalType": "contract IOffer",
                    "name": "",
                    "type": "address"
                }
            ],
            "stateMutability": "view",
            "type": "function"
        },
        {
            "inputs": [
                {
                    "internalType": "address",
                    "name": "from",
                    "type": "address"
                },
                {
                    "internalType": "uint256",
                    "name": "amount",
                    "type": "uint256"
                },
                {
                    "internalType": "bytes",
                    "name": "",
                    "type": "bytes"
                }
            ],
            "name": "onTokenTransfer",
            "outputs": [],
            "stateMutability": "nonpayable",
            "type": "function"
        },
        {
            "inputs": [],
            "name": "quorum",
            "outputs": [
                {
                    "internalType": "uint256",
                    "name": "",
                    "type": "uint256"
                }
            ],
            "stateMutability": "view",
            "type": "function"
        },
        {
            "inputs": [],
            "name": "symbol",
            "outputs": [
                {
                    "internalType": "string",
                    "name": "",
                    "type": "string"
                }
            ],
            "stateMutability": "view",
            "type": "function"
        },
        {
            "inputs": [],
            "name": "totalSupply",
            "outputs": [
                {
                    "internalType": "uint256",
                    "name": "",
                    "type": "uint256"
                }
            ],
            "stateMutability": "view",
            "type": "function"
        },
        {
            "inputs": [
                {
                    "internalType": "address",
                    "name": "recipient",
                    "type": "address"
                },
                {
                    "internalType": "uint256",
                    "name": "amount",
                    "type": "uint256"
                }
            ],
            "name": "transfer",
            "outputs": [
                {
                    "internalType": "bool",
                    "name": "",
                    "type": "bool"
                }
            ],
            "stateMutability": "nonpayable",
            "type": "function"
        },
        {
            "inputs": [
                {
                    "internalType": "address",
                    "name": "recipient",
                    "type": "address"
                },
                {
                    "internalType": "uint256",
                    "name": "amount",
                    "type": "uint256"
                },
                {
                    "internalType": "bytes",
                    "name": "data",
                    "type": "bytes"
                }
            ],
            "name": "transferAndCall",
            "outputs": [
                {
                    "internalType": "bool",
                    "name": "",
                    "type": "bool"
                }
            ],
            "stateMutability": "nonpayable",
            "type": "function"
        },
        {
            "inputs": [
                {
                    "internalType": "address",
                    "name": "sender",
                    "type": "address"
                },
                {
                    "internalType": "address",
                    "name": "recipient",
                    "type": "address"
                },
                {
                    "internalType": "uint256",
                    "name": "amount",
                    "type": "uint256"
                }
            ],
            "name": "transferFrom",
            "outputs": [
                {
                    "internalType": "bool",
                    "name": "",
                    "type": "bool"
                }
            ],
            "stateMutability": "nonpayable",
            "type": "function"
        },
        {
            "inputs": [
                {
                    "internalType": "uint256",
                    "name": "amount",
                    "type": "uint256"
                }
            ],
            "name": "unwrap",
            "outputs": [],
            "stateMutability": "nonpayable",
            "type": "function"
        },
        {
            "inputs": [],
            "name": "unwrapConversionFactor",
            "outputs": [
                {
                    "internalType": "uint256",
                    "name": "",
                    "type": "uint256"
                }
            ],
            "stateMutability": "view",
            "type": "function"
        },
        {
            "inputs": [
                {
                    "internalType": "address",
                    "name": "shareholder",
                    "type": "address"
                },
                {
                    "internalType": "uint256",
                    "name": "amount",
                    "type": "uint256"
                }
            ],
            "name": "wrap",
            "outputs": [],
            "stateMutability": "nonpayable",
            "type": "function"
        },
        {
            "inputs": [],
            "name": "wrapped",
            "outputs": [
                {
                    "internalType": "contract IERC20",
                    "name": "",
                    "type": "address"
                }
            ],
            "stateMutability": "view",
            "type": "function"
        }
    ],
    "bytecode": "6080604052600060055534801561001557600080fd5b50604051620017b5380380620017b583398101604081905261003691610095565b60038054600480546001600160a01b0319166001600160a01b039687161790556001600160a81b03191661010093909416929092029290921790556007556100d0565b80516001600160a01b038116811461009057600080fd5b919050565b6000806000606084860312156100a9578283fd5b6100b284610079565b92506100c060208501610079565b9150604084015190509250925092565b6116d580620000e06000396000f3fe6080604052600436106101b75760003560e01c80638fd3ab80116100ec578063bf376c7a1161008a578063dcc7d4ad11610064578063dcc7d4ad1461046e578063dd62ed3e14610481578063de0e9a3e146104a1578063fcb79a7e146104c1576101b7565b8063bf376c7a14610424578063c028df0614610444578063c45a015514610459576101b7565b8063a457c2d7116100c6578063a457c2d7146103af578063a4c0ed36146103cf578063a9059cbb146103ef578063b1610d7e1461040f576101b7565b80638fd3ab801461037057806395d89b41146103855780639e4b57451461039a576101b7565b8063313ce567116101595780634000aea0116101335780634000aea0146102ee57806342966c681461030e57806350e70d481461032e57806370a0823114610350576101b7565b8063313ce5671461029557806332bc320b146102b757806339509351146102ce576101b7565b80630c43cd88116101955780630c43cd88146102365780631703a0181461024b57806318160ddd1461026057806323b872dd14610275576101b7565b806306fdde03146101bc5780630832e470146101e7578063095ea7b314610209575b600080fd5b3480156101c857600080fd5b506101d16104e1565b6040516101de919061154e565b60405180910390f35b3480156101f357600080fd5b506101fc610591565b6040516101de91906115ad565b34801561021557600080fd5b50610229610224366004611236565b610597565b6040516101de9190611504565b34801561024257600080fd5b506101fc6105ad565b34801561025757600080fd5b506101fc6105b4565b34801561026c57600080fd5b506101fc6105ba565b34801561028157600080fd5b506102296102903660046111f6565b6105c0565b3480156102a157600080fd5b506102aa610612565b6040516101de91906115b6565b3480156102c357600080fd5b506102cc61061b565b005b3480156102da57600080fd5b506102296102e9366004611236565b610641565b3480156102fa57600080fd5b50610229610309366004611261565b610678565b34801561031a57600080fd5b506102cc6103293660046113e0565b6106fb565b34801561033a57600080fd5b50610343610793565b6040516101de919061146b565b34801561035c57600080fd5b506101fc61036b36600461117f565b6107a7565b34801561037c57600080fd5b506102cc6107c2565b34801561039157600080fd5b506101d1610869565b3480156103a657600080fd5b50610229610905565b3480156103bb57600080fd5b506102296103ca366004611236565b61090c565b3480156103db57600080fd5b506102cc6103ea366004611261565b610943565b3480156103fb57600080fd5b5061022961040a366004611236565b61096f565b34801561041b57600080fd5b506101fc61097c565b34801561043057600080fd5b506102cc61043f366004611236565b610983565b34801561045057600080fd5b50610343610a24565b34801561046557600080fd5b50610343610a33565b6102cc61047c366004611305565b610a42565b34801561048d57600080fd5b506101fc61049c3660046111be565b610b84565b3480156104ad57600080fd5b506102cc6104bc3660046113e0565b610baf565b3480156104cd57600080fd5b506102cc6104dc3660046111be565b610bd1565b6060600360019054906101000a90046001600160a01b03166001600160a01b03166306fdde036040518163ffffffff1660e01b815260040160006040518083038186803b15801561053157600080fd5b505afa158015610545573d6000803e3d6000fd5b505050506040513d6000823e601f3d908101601f1916820160405261056d919081019061133d565b60405160200161057d9190611439565b604051602081830303815290604052905090565b60055481565b60006105a4338484610c06565b50600192915050565b6276a70081565b60075481565b60025490565b60006105cd848484610c6e565b6001600160a01b03841660009081526001602090815260408083203380855292529091205461060891869161060390869061161b565b610c06565b5060019392505050565b60035460ff1681565b6006546001600160a01b031633141561063f57600680546001600160a01b03191690555b565b3360008181526001602090815260408083206001600160a01b038716845290915281205490916105a49185906106039086906115c4565b600080610685868661096f565b905080156106f257604051635260769b60e11b81526001600160a01b0387169063a4c0ed36906106bf9033908990899089906004016114bc565b600060405180830381600087803b1580156106d957600080fd5b505af11580156106ed573d6000803e3d6000fd5b505050505b95945050505050565b6107053382610d2b565b600061070f610905565b61071b5760055461071e565b60015b60035490915061010090046001600160a01b03166342966c6861074183856115fc565b6040518263ffffffff1660e01b815260040161075d91906115ad565b600060405180830381600087803b15801561077757600080fd5b505af115801561078b573d6000803e3d6000fd5b505050505050565b60035461010090046001600160a01b031681565b6001600160a01b031660009081526020819052604090205490565b336107cb610dc5565b156107d557600080fd5b6107dd6105ba565b6107e990611f406115fc565b6107f2826107a7565b6107fe906127106115fc565b10156108255760405162461bcd60e51b815260040161081c90611581565b60405180910390fd5b61082f8182610dd6565b7f3b6b79a09e9fd230e8591b65c97236bf7df7a604edf733db0658e66b0e6eb2a98160405161085e919061146b565b60405180910390a150565b6060600360019054906101000a90046001600160a01b03166001600160a01b03166395d89b416040518163ffffffff1660e01b815260040160006040518083038186803b1580156108b957600080fd5b505afa1580156108cd573d6000803e3d6000fd5b505050506040513d6000823e601f3d908101601f191682016040526108f5919081019061133d565b60405160200161057d9190611410565b6005541590565b3360008181526001602090815260408083206001600160a01b038716845290915281205490916105a491859061060390869061161b565b60035461010090046001600160a01b0316331461095f57600080fd5b6109698484610fab565b50505050565b60006105a4338484610c6e565b624f1a0081565b6003546040516323b872dd60e01b81526101009091046001600160a01b0316906323b872dd906109bb9033903090869060040161147f565b602060405180830381600087803b1580156109d557600080fd5b505af11580156109e9573d6000803e3d6000fd5b505050506040513d601f19601f82011682018060405250810190610a0d91906112e5565b610a1657600080fd5b610a208282610fab565b5050565b6006546001600160a01b031681565b6004546001600160a01b031681565b610a4a610905565b610a5357600080fd5b6004805460075460405163eb57ed7b60e01b81526000936001600160a01b039093169263eb57ed7b923492610a9b928a9233928b928b9291624f1a00916276a700910161150f565b6020604051808303818588803b158015610ab457600080fd5b505af1158015610ac8573d6000803e3d6000fd5b50505050506040513d601f19601f82011682018060405250810190610aed91906111a2565b9050610af7610dc5565b15610b5f576006546040516306a169ed60e01b81526001600160a01b03909116906306a169ed90610b2c90849060040161146b565b600060405180830381600087803b158015610b4657600080fd5b505af1158015610b5a573d6000803e3d6000fd5b505050505b600680546001600160a01b0319166001600160a01b0392909216919091179055505050565b6001600160a01b03918216600090815260016020908152604080832093909416825291909152205490565b610bb7610905565b15610bc157600080fd5b610bce338260055461104c565b50565b6006546001600160a01b03163314610be857600080fd5b610bfc82610bf5846107a7565b600161104c565b610a208183610dd6565b6001600160a01b0380841660008181526001602090815260408083209487168084529490915290819020849055517f8c5be1e5ebec7d5bd14f71427d1e84f3dd0314c0f7b2291e5b200ac8c7c3b92590610c619085906115ad565b60405180910390a3505050565b6001600160a01b038216610c8157600080fd5b610c8c8383836110f4565b6001600160a01b03831660009081526020819052604081208054839290610cb490849061161b565b90915550506001600160a01b03821660009081526020819052604081208054839290610ce19084906115c4565b92505081905550816001600160a01b0316836001600160a01b03167fddf252ad1be2c89b69c2b068fc378daa952ba7f163c4a11628f55a4df523b3ef83604051610c6191906115ad565b610d37826000836110f4565b8060026000828254610d49919061161b565b90915550506001600160a01b03821660009081526020819052604081208054839290610d7690849061161b565b90915550506040516000906001600160a01b038416907fddf252ad1be2c89b69c2b068fc378daa952ba7f163c4a11628f55a4df523b3ef90610db99085906115ad565b60405180910390a35050565b6006546001600160a01b0316151590565b610dde610905565b610de757600080fd5b6003546040516370a0823160e01b81526101009091046001600160a01b03169063a9059cbb90839083906370a0823190610e2590309060040161146b565b60206040518083038186803b158015610e3d57600080fd5b505afa158015610e51573d6000803e3d6000fd5b505050506040513d601f19601f82011682018060405250810190610e7591906113f8565b6040518363ffffffff1660e01b8152600401610e929291906114a3565b602060405180830381600087803b158015610eac57600080fd5b505af1158015610ec0573d6000803e3d6000fd5b505050506040513d601f19601f82011682018060405250810190610ee491906112e5565b610eed57600080fd5b60038054610100600160a81b0319166101006001600160a01b03851602179055610a20610f186105ba565b6003546040516370a0823160e01b81526101009091046001600160a01b0316906370a0823190610f4c90309060040161146b565b60206040518083038186803b158015610f6457600080fd5b505afa158015610f78573d6000803e3d6000fd5b505050506040513d601f19601f82011682018060405250810190610f9c91906113f8565b610fa691906115dc565b61116c565b6001600160a01b038216610fbe57600080fd5b610fca600083836110f4565b8060026000828254610fdc91906115c4565b90915550506001600160a01b038216600090815260208190526040812080548392906110099084906115c4565b90915550506040516001600160a01b038316906000907fddf252ad1be2c89b69c2b068fc378daa952ba7f163c4a11628f55a4df523b3ef90610db99085906115ad565b6110568383610d2b565b60035461010090046001600160a01b031663a9059cbb8461107784866115fc565b6040518363ffffffff1660e01b81526004016110949291906114a3565b602060405180830381600087803b1580156110ae57600080fd5b505af11580156110c2573d6000803e3d6000fd5b505050506040513d601f19601f820116820180604052508101906110e691906112e5565b6110ef57600080fd5b505050565b6110fc610dc5565b156110ef5760065460405163e1a1810f60e01b81526001600160a01b039091169063e1a1810f906111359086908690869060040161147f565b600060405180830381600087803b15801561114f57600080fd5b505af1158015611163573d6000803e3d6000fd5b50505050505050565b600181101561117a57600080fd5b600555565b600060208284031215611190578081fd5b813561119b8161168a565b9392505050565b6000602082840312156111b3578081fd5b815161119b8161168a565b600080604083850312156111d0578081fd5b82356111db8161168a565b915060208301356111eb8161168a565b809150509250929050565b60008060006060848603121561120a578081fd5b83356112158161168a565b925060208401356112258161168a565b929592945050506040919091013590565b60008060408385031215611248578182fd5b82356112538161168a565b946020939093013593505050565b60008060008060608587031215611276578081fd5b84356112818161168a565b935060208501359250604085013567ffffffffffffffff808211156112a4578283fd5b818701915087601f8301126112b7578283fd5b8135818111156112c5578384fd5b8860208285010111156112d6578384fd5b95989497505060200194505050565b6000602082840312156112f6578081fd5b8151801515811461119b578182fd5b600080600060608486031215611319578283fd5b833592506020840135915060408401356113328161168a565b809150509250925092565b60006020828403121561134e578081fd5b815167ffffffffffffffff80821115611365578283fd5b818401915084601f830112611378578283fd5b81518181111561138a5761138a611674565b604051601f8201601f1916810160200183811182821017156113ae576113ae611674565b6040528181528382016020018710156113c5578485fd5b6113d6826020830160208701611632565b9695505050505050565b6000602082840312156113f1578081fd5b5035919050565b600060208284031215611409578081fd5b5051919050565b6000601160fa1b8252825161142c816001850160208701611632565b9190910160010192915050565b6000690223930b3b3b0b13632960b51b8252825161145e81600a850160208701611632565b91909101600a0192915050565b6001600160a01b0391909116815260200190565b6001600160a01b039384168152919092166020820152604081019190915260600190565b6001600160a01b03929092168252602082015260400190565b6001600160a01b0385168152602081018490526060604082018190528101829052600082846080840137818301608090810191909152601f909201601f191601019392505050565b901515815260200190565b9687526001600160a01b0395861660208801526040870194909452919093166060850152608084019290925260a083019190915260c082015260e00190565b600060208252825180602084015261156d816040850160208701611632565b601f01601f19169190910160400192915050565b602080825260129082015271145d5bdc9d5b481b9bdd081c995858da195960721b604082015260600190565b90815260200190565b60ff91909116815260200190565b600082198211156115d7576115d761165e565b500190565b6000826115f757634e487b7160e01b81526012600452602481fd5b500490565b60008160001904831182151516156116165761161661165e565b500290565b60008282101561162d5761162d61165e565b500390565b60005b8381101561164d578181015183820152602001611635565b838111156109695750506000910152565b634e487b7160e01b600052601160045260246000fd5b634e487b7160e01b600052604160045260246000fd5b6001600160a01b0381168114610bce57600080fdfea264697066735822122036cbe281a21b2ff983f310ab1500bec60f5b383ca35b46b6269dcc61fc6f8fe164736f6c63430008000033",
    "sourcePath": "c:/Users/luziu/Documents/aktionariat/contracts/src/ERC20Draggable.sol",
    "compiler": {
        "name": "solc",
        "version": "0.8.0+commit.c7dfd78e"
    },
    "functionHashes": {
        "VALIDITY_PERIOD()": "0c43cd88",
        "VOTING_PERIOD()": "b1610d7e",
        "allowance(address,address)": "dd62ed3e",
        "approve(address,uint256)": "095ea7b3",
        "balanceOf(address)": "70a08231",
        "burn(uint256)": "42966c68",
        "decimals()": "313ce567",
        "decreaseAllowance(address,uint256)": "a457c2d7",
        "drag(address,address)": "fcb79a7e",
        "factory()": "c45a0155",
        "increaseAllowance(address,uint256)": "39509351",
        "isBinding()": "9e4b5745",
        "makeAcquisitionOffer(bytes32,uint256,address)": "dcc7d4ad",
        "migrate()": "8fd3ab80",
        "name()": "06fdde03",
        "notifyOfferEnded()": "32bc320b",
        "offer()": "c028df06",
        "onTokenTransfer(address,uint256,bytes)": "a4c0ed36",
        "quorum()": "1703a018",
        "symbol()": "95d89b41",
        "totalSupply()": "18160ddd",
        "transfer(address,uint256)": "a9059cbb",
        "transferAndCall(address,uint256,bytes)": "4000aea0",
        "transferFrom(address,address,uint256)": "23b872dd",
        "unwrap(uint256)": "de0e9a3e",
        "unwrapConversionFactor()": "0832e470",
        "wrap(address,uint256)": "bf376c7a",
        "wrapped()": "50e70d48"
    },
    "gasEstimates": {
        "creation": {
            "codeDepositCost": "1169000",
            "executionCost": "infinite",
            "totalCost": "infinite"
        },
        "external": {
            "VALIDITY_PERIOD()": "274",
            "VOTING_PERIOD()": "339",
            "allowance(address,address)": "infinite",
            "approve(address,uint256)": "22571",
            "balanceOf(address)": "1378",
            "burn(uint256)": "infinite",
            "decimals()": "1092",
            "decreaseAllowance(address,uint256)": "23560",
            "drag(address,address)": "infinite",
            "factory()": "1159",
            "increaseAllowance(address,uint256)": "23608",
            "isBinding()": "1127",
            "makeAcquisitionOffer(bytes32,uint256,address)": "infinite",
            "migrate()": "infinite",
            "name()": "infinite",
            "notifyOfferEnded()": "21885",
            "offer()": "1137",
            "onTokenTransfer(address,uint256,bytes)": "infinite",
            "quorum()": "1096",
            "symbol()": "infinite",
            "totalSupply()": "1118",
            "transfer(address,uint256)": "infinite",
            "transferAndCall(address,uint256,bytes)": "infinite",
            "transferFrom(address,address,uint256)": "infinite",
            "unwrap(uint256)": "infinite",
            "unwrapConversionFactor()": "1097",
            "wrap(address,uint256)": "infinite",
            "wrapped()": "1170"
        },
        "internal": {
            "_beforeTokenTransfer(address,address,uint256)": "infinite",
            "deactivate(uint256)": "20038",
            "offerExists()": "839",
            "replaceWrapped(address,address)": "infinite",
            "unwrap(address,uint256,uint256)": "infinite"
        }
    }
}