{
    "contractName": "ERC20Named",
    "abi": [
        {
            "inputs": [
                {
                    "internalType": "address",
                    "name": "admin",
                    "type": "address"
                },
                {
                    "internalType": "string",
                    "name": "name_",
                    "type": "string"
                },
                {
                    "internalType": "string",
                    "name": "symbol_",
                    "type": "string"
                },
                {
                    "internalType": "uint8",
                    "name": "decimals",
                    "type": "uint8"
                }
            ],
            "stateMutability": "nonpayable",
            "type": "constructor"
        },
        {
            "anonymous": false,
            "inputs": [
                {
                    "indexed": true,
                    "internalType": "address",
                    "name": "owner",
                    "type": "address"
                },
                {
                    "indexed": true,
                    "internalType": "address",
                    "name": "spender",
                    "type": "address"
                },
                {
                    "indexed": false,
                    "internalType": "uint256",
                    "name": "value",
                    "type": "uint256"
                }
            ],
            "name": "Approval",
            "type": "event"
        },
        {
            "anonymous": false,
            "inputs": [
                {
                    "indexed": false,
                    "internalType": "string",
                    "name": "name",
                    "type": "string"
                },
                {
                    "indexed": false,
                    "internalType": "string",
                    "name": "symbol",
                    "type": "string"
                }
            ],
            "name": "NameChanged",
            "type": "event"
        },
        {
            "anonymous": false,
            "inputs": [
                {
                    "indexed": true,
                    "internalType": "address",
                    "name": "previousOwner",
                    "type": "address"
                },
                {
                    "indexed": true,
                    "internalType": "address",
                    "name": "newOwner",
                    "type": "address"
                }
            ],
            "name": "OwnershipTransferred",
            "type": "event"
        },
        {
            "anonymous": false,
            "inputs": [
                {
                    "indexed": true,
                    "internalType": "address",
                    "name": "from",
                    "type": "address"
                },
                {
                    "indexed": true,
                    "internalType": "address",
                    "name": "to",
                    "type": "address"
                },
                {
                    "indexed": false,
                    "internalType": "uint256",
                    "name": "value",
                    "type": "uint256"
                }
            ],
            "name": "Transfer",
            "type": "event"
        },
        {
            "inputs": [
                {
                    "internalType": "address",
                    "name": "owner",
                    "type": "address"
                },
                {
                    "internalType": "address",
                    "name": "spender",
                    "type": "address"
                }
            ],
            "name": "allowance",
            "outputs": [
                {
                    "internalType": "uint256",
                    "name": "",
                    "type": "uint256"
                }
            ],
            "stateMutability": "view",
            "type": "function"
        },
        {
            "inputs": [
                {
                    "internalType": "address",
                    "name": "spender",
                    "type": "address"
                },
                {
                    "internalType": "uint256",
                    "name": "value",
                    "type": "uint256"
                }
            ],
            "name": "approve",
            "outputs": [
                {
                    "internalType": "bool",
                    "name": "",
                    "type": "bool"
                }
            ],
            "stateMutability": "nonpayable",
            "type": "function"
        },
        {
            "inputs": [
                {
                    "internalType": "address",
                    "name": "account",
                    "type": "address"
                }
            ],
            "name": "balanceOf",
            "outputs": [
                {
                    "internalType": "uint256",
                    "name": "",
                    "type": "uint256"
                }
            ],
            "stateMutability": "view",
            "type": "function"
        },
        {
            "inputs": [],
            "name": "decimals",
            "outputs": [
                {
                    "internalType": "uint8",
                    "name": "",
                    "type": "uint8"
                }
            ],
            "stateMutability": "view",
            "type": "function"
        },
        {
            "inputs": [
                {
                    "internalType": "address",
                    "name": "account",
                    "type": "address"
                },
                {
                    "internalType": "uint8",
                    "name": "number",
                    "type": "uint8"
                }
            ],
            "name": "hasFlag",
            "outputs": [
                {
                    "internalType": "bool",
                    "name": "",
                    "type": "bool"
                }
            ],
            "stateMutability": "view",
            "type": "function"
        },
        {
            "inputs": [],
            "name": "name",
            "outputs": [
                {
                    "internalType": "string",
                    "name": "",
                    "type": "string"
                }
            ],
            "stateMutability": "view",
            "type": "function"
        },
        {
            "inputs": [],
            "name": "owner",
            "outputs": [
                {
                    "internalType": "address",
                    "name": "",
                    "type": "address"
                }
            ],
            "stateMutability": "view",
            "type": "function"
        },
        {
            "inputs": [
                {
                    "internalType": "string",
                    "name": "_symbol",
                    "type": "string"
                },
                {
                    "internalType": "string",
                    "name": "_name",
                    "type": "string"
                }
            ],
            "name": "setName",
            "outputs": [],
            "stateMutability": "nonpayable",
            "type": "function"
        },
        {
            "inputs": [],
            "name": "symbol",
            "outputs": [
                {
                    "internalType": "string",
                    "name": "",
                    "type": "string"
                }
            ],
            "stateMutability": "view",
            "type": "function"
        },
        {
            "inputs": [],
            "name": "totalSupply",
            "outputs": [
                {
                    "internalType": "uint256",
                    "name": "",
                    "type": "uint256"
                }
            ],
            "stateMutability": "view",
            "type": "function"
        },
        {
            "inputs": [
                {
                    "internalType": "address",
                    "name": "recipient",
                    "type": "address"
                },
                {
                    "internalType": "uint256",
                    "name": "amount",
                    "type": "uint256"
                }
            ],
            "name": "transfer",
            "outputs": [
                {
                    "internalType": "bool",
                    "name": "",
                    "type": "bool"
                }
            ],
            "stateMutability": "nonpayable",
            "type": "function"
        },
        {
            "inputs": [
                {
                    "internalType": "address",
                    "name": "recipient",
                    "type": "address"
                },
                {
                    "internalType": "uint256",
                    "name": "amount",
                    "type": "uint256"
                },
                {
                    "internalType": "bytes",
                    "name": "data",
                    "type": "bytes"
                }
            ],
            "name": "transferAndCall",
            "outputs": [
                {
                    "internalType": "bool",
                    "name": "",
                    "type": "bool"
                }
            ],
            "stateMutability": "nonpayable",
            "type": "function"
        },
        {
            "inputs": [
                {
                    "internalType": "address",
                    "name": "sender",
                    "type": "address"
                },
                {
                    "internalType": "address",
                    "name": "recipient",
                    "type": "address"
                },
                {
                    "internalType": "uint256",
                    "name": "amount",
                    "type": "uint256"
                }
            ],
            "name": "transferFrom",
            "outputs": [
                {
                    "internalType": "bool",
                    "name": "",
                    "type": "bool"
                }
            ],
            "stateMutability": "nonpayable",
            "type": "function"
        },
        {
            "inputs": [
                {
                    "internalType": "address",
                    "name": "newOwner",
                    "type": "address"
                }
            ],
            "name": "transferOwnership",
            "outputs": [],
            "stateMutability": "nonpayable",
            "type": "function"
        }
    ],
    "bytecode": "60806040523480156200001157600080fd5b506040516200105e3803806200105e83398101604081905262000034916200024e565b600380546001600160a01b038087166101009081026001600160a81b031990931660ff861617929092179283905560405187939290920416906000907f8be0079c531659141344cd1fd0a4f28419497f9722a3daafe3b4186f6b6457e0908290a350620000a28383620000ac565b50505050620003d8565b8151620000c190600590602085019062000117565b508051620000d790600490602084019062000117565b507f6c20b91d1723b78732eba64ff11ebd7966a6e4af568a00fa4f6b72c20f58b02a81836040516200010b92919062000320565b60405180910390a15050565b828054620001259062000385565b90600052602060002090601f01602090048101928262000149576000855562000194565b82601f106200016457805160ff191683800117855562000194565b8280016001018555821562000194579182015b828111156200019457825182559160200191906001019062000177565b50620001a2929150620001a6565b5090565b5b80821115620001a25760008155600101620001a7565b600082601f830112620001cf57600080fd5b81516001600160401b0380821115620001ec57620001ec620003c2565b604051601f8301601f19908116603f01168101908282118183101715620002175762000217620003c2565b816040528381528660208588010111156200023157600080fd5b6200024484602083016020890162000352565b9695505050505050565b600080600080608085870312156200026557600080fd5b84516001600160a01b03811681146200027d57600080fd5b60208601519094506001600160401b03808211156200029b57600080fd5b620002a988838901620001bd565b94506040870151915080821115620002c057600080fd5b50620002cf87828801620001bd565b925050606085015160ff81168114620002e757600080fd5b939692955090935050565b600081518084526200030c81602086016020860162000352565b601f01601f19169290920160200192915050565b604081526000620003356040830185620002f2565b8281036020840152620003498185620002f2565b95945050505050565b60005b838110156200036f57818101518382015260200162000355565b838111156200037f576000848401525b50505050565b600181811c908216806200039a57607f821691505b60208210811415620003bc57634e487b7160e01b600052602260045260246000fd5b50919050565b634e487b7160e01b600052604160045260246000fd5b610c7680620003e86000396000f3fe608060405234801561001057600080fd5b50600436106100ea5760003560e01c806370a082311161008c578063a9059cbb11610066578063a9059cbb14610206578063dd62ed3e14610219578063f2fde38b14610252578063f5c0b95f1461026557600080fd5b806370a082311461019c5780638da5cb5b146101ce57806395d89b41146101fe57600080fd5b806323b872dd116100c857806323b872dd14610142578063313ce567146101555780634000aea0146101745780635c707f071461018757600080fd5b806306fdde03146100ef578063095ea7b31461010d57806318160ddd14610130575b600080fd5b6100f7610278565b6040516101049190610b4d565b60405180910390f35b61012061011b366004610944565b610306565b6040519015158152602001610104565b6002545b604051908152602001610104565b610120610150366004610908565b61031c565b6003546101629060ff1681565b60405160ff9091168152602001610104565b61012061018236600461096e565b610378565b61019a610195366004610a54565b61041d565b005b6101346101aa3660046108ba565b6001600160a01b03166000908152602081905260409020546001600160e01b031690565b6003546101e69061010090046001600160a01b031681565b6040516001600160a01b039091168152602001610104565b6100f761047b565b610120610214366004610944565b610488565b6101346102273660046108d5565b6001600160a01b03918216600090815260016020908152604080832093909416825291909152205490565b61019a6102603660046108ba565b610495565b6101206102733660046109f5565b610547565b6004805461028590610bd9565b80601f01602080910402602001604051908101604052809291908181526020018280546102b190610bd9565b80156102fe5780601f106102d3576101008083540402835291602001916102fe565b820191906000526020600020905b8154815290600101906020018083116102e157829003601f168201915b505050505081565b600061031333848461055a565b50600192915050565b60006103298484846105bc565b6001600160a01b0384166000908152600160209081526040808320338452909152902054600160ff1b81101561036d5761036d85336103688685610bc2565b61055a565b506001949350505050565b6000806103858686610488565b9050801561041457604051635260769b60e11b81526001600160a01b0387169063a4c0ed36906103bf903390899089908990600401610b05565b602060405180830381600087803b1580156103d957600080fd5b505af11580156103ed573d6000803e3d6000fd5b505050506040513d601f19601f820116820180604052508101906104119190610a32565b90505b95945050505050565b60035461010090046001600160a01b0316331461046d5760405162461bcd60e51b81526020600482015260096024820152683737ba1037bbb732b960b91b60448201526064015b60405180910390fd5b6104778282610639565b5050565b6005805461028590610bd9565b60006103133384846105bc565b60035461010090046001600160a01b031633146104e05760405162461bcd60e51b81526020600482015260096024820152683737ba1037bbb732b960b91b6044820152606401610464565b6003546040516001600160a01b0380841692610100900416907f8be0079c531659141344cd1fd0a4f28419497f9722a3daafe3b4186f6b6457e090600090a3600380546001600160a01b0390921661010002610100600160a81b0319909216919091179055565b6000610553838361069e565b9392505050565b6001600160a01b0383811660008181526001602090815260408083209487168084529482529182902085905590518481527f8c5be1e5ebec7d5bd14f71427d1e84f3dd0314c0f7b2291e5b200ac8c7c3b92591015b60405180910390a3505050565b6001600160a01b038316600090815260208190526040812080548392906105e4908490610bc2565b909155506105f4905082826106de565b816001600160a01b0316836001600160a01b03167fddf252ad1be2c89b69c2b068fc378daa952ba7f163c4a11628f55a4df523b3ef836040516105af91815260200190565b815161064c906005906020850190610778565b508051610660906004906020840190610778565b507f6c20b91d1723b78732eba64ff11ebd7966a6e4af568a00fa4f6b72c20f58b02a8183604051610692929190610b60565b60405180910390a15050565b6000806106ac8360e0610b9d565b6001600160a01b038516600090815260208190526040902054600160ff929092169190911b9081161491505092915050565b6001600160a01b038216600090815260208190526040812054906001600160e01b031982169061070e8484610b85565b90506001600160e01b031981168281146107555760405162461bcd60e51b81526020600482015260086024820152676f766572666c6f7760c01b6044820152606401610464565b506001600160a01b03909416600090815260208190526040902093909355505050565b82805461078490610bd9565b90600052602060002090601f0160209004810192826107a657600085556107ec565b82601f106107bf57805160ff19168380011785556107ec565b828001600101855582156107ec579182015b828111156107ec5782518255916020019190600101906107d1565b506107f89291506107fc565b5090565b5b808211156107f857600081556001016107fd565b80356001600160a01b038116811461082857600080fd5b919050565b600082601f83011261083e57600080fd5b813567ffffffffffffffff8082111561085957610859610c2a565b604051601f8301601f19908116603f0116810190828211818310171561088157610881610c2a565b8160405283815286602085880101111561089a57600080fd5b836020870160208301376000602085830101528094505050505092915050565b6000602082840312156108cc57600080fd5b61055382610811565b600080604083850312156108e857600080fd5b6108f183610811565b91506108ff60208401610811565b90509250929050565b60008060006060848603121561091d57600080fd5b61092684610811565b925061093460208501610811565b9150604084013590509250925092565b6000806040838503121561095757600080fd5b61096083610811565b946020939093013593505050565b6000806000806060858703121561098457600080fd5b61098d85610811565b935060208501359250604085013567ffffffffffffffff808211156109b157600080fd5b818701915087601f8301126109c557600080fd5b8135818111156109d457600080fd5b8860208285010111156109e657600080fd5b95989497505060200194505050565b60008060408385031215610a0857600080fd5b610a1183610811565b9150602083013560ff81168114610a2757600080fd5b809150509250929050565b600060208284031215610a4457600080fd5b8151801515811461055357600080fd5b60008060408385031215610a6757600080fd5b823567ffffffffffffffff80821115610a7f57600080fd5b610a8b8683870161082d565b93506020850135915080821115610aa157600080fd5b50610aae8582860161082d565b9150509250929050565b6000815180845260005b81811015610ade57602081850181015186830182015201610ac2565b81811115610af0576000602083870101525b50601f01601f19169290920160200192915050565b6001600160a01b0385168152602081018490526060604082018190528101829052818360808301376000818301608090810191909152601f909201601f191601019392505050565b6020815260006105536020830184610ab8565b604081526000610b736040830185610ab8565b82810360208401526104148185610ab8565b60008219821115610b9857610b98610c14565b500190565b600060ff821660ff84168060ff03821115610bba57610bba610c14565b019392505050565b600082821015610bd457610bd4610c14565b500390565b600181811c90821680610bed57607f821691505b60208210811415610c0e57634e487b7160e01b600052602260045260246000fd5b50919050565b634e487b7160e01b600052601160045260246000fd5b634e487b7160e01b600052604160045260246000fdfea26469706673582212206e4e1eedaa66e798ae22ef80ce4ebac2b46755920d0d5f75ba8edf945fe1507f64736f6c63430008070033",
    "sourcePath": "c:/Users/luziu/Documents/aktionariat/contracts/src/ERC20Named.sol",
    "compiler": {
        "name": "solc",
        "version": "0.8.7+commit.e28d00a7"
    },
    "functionHashes": {
        "allowance(address,address)": "dd62ed3e",
        "approve(address,uint256)": "095ea7b3",
        "balanceOf(address)": "70a08231",
        "decimals()": "313ce567",
        "hasFlag(address,uint8)": "f5c0b95f",
        "name()": "06fdde03",
        "owner()": "8da5cb5b",
        "setName(string,string)": "5c707f07",
        "symbol()": "95d89b41",
        "totalSupply()": "18160ddd",
        "transfer(address,uint256)": "a9059cbb",
        "transferAndCall(address,uint256,bytes)": "4000aea0",
        "transferFrom(address,address,uint256)": "23b872dd",
        "transferOwnership(address)": "f2fde38b"
    },
    "gasEstimates": {
        "creation": {
            "codeDepositCost": "638000",
            "executionCost": "infinite",
            "totalCost": "infinite"
        },
        "external": {
            "allowance(address,address)": "infinite",
            "approve(address,uint256)": "24573",
            "balanceOf(address)": "2581",
            "decimals()": "2358",
            "hasFlag(address,uint8)": "2914",
            "name()": "infinite",
            "owner()": "2393",
            "setName(string,string)": "infinite",
            "symbol()": "infinite",
            "totalSupply()": "2349",
            "transfer(address,uint256)": "51298",
            "transferAndCall(address,uint256,bytes)": "infinite",
            "transferFrom(address,address,uint256)": "infinite",
            "transferOwnership(address)": "30464"
        },
        "internal": {
            "setNameInternal(string memory,string memory)": "infinite"
        }
    }
}