{
    "contractName": "ForceSend",
    "abi": [
        {
            "inputs": [
                {
                    "internalType": "address payable",
                    "name": "victim",
                    "type": "address"
                }
            ],
            "name": "send",
            "outputs": [],
            "stateMutability": "payable",
            "type": "function"
        }
    ],
    "bytecode": "6080604052348015600f57600080fd5b5060888061001e6000396000f3fe608060405260043610601c5760003560e01c80633e58c58c146021575b600080fd5b604460048036036020811015603557600080fd5b50356001600160a01b03166046565b005b806001600160a01b0316fffea2646970667358221220482bd1ad708571c41e66efffe3db2f5be15b4c021fd9e1fa92174f2418d6160964736f6c63430007000033",
    "sourcePath": "c:/Users/luziu/Documents/aktionariat/contracts/src/ForceSend.sol",
    "compiler": {
        "name": "solc",
        "version": "0.7.0+commit.9e61f92b"
    },
    "functionHashes": {
        "send(address)": "3e58c58c"
    },
    "gasEstimates": {
        "creation": {
            "codeDepositCost": "27200",
            "executionCost": "81",
            "totalCost": "27281"
        },
        "external": {
            "send(address)": "30170"
        }
    }
}