{
    "contractName": "HookableDraggableShares",
    "abi": [
        {
            "inputs": [
                {
                    "internalType": "address",
                    "name": "admin",
                    "type": "address"
                },
                {
                    "internalType": "string",
                    "name": "name_",
                    "type": "string"
                },
                {
                    "internalType": "string",
                    "name": "symbol_",
                    "type": "string"
                },
                {
                    "internalType": "string",
                    "name": "_terms",
                    "type": "string"
                },
                {
                    "internalType": "address",
                    "name": "wrappedToken",
                    "type": "address"
                },
                {
                    "internalType": "uint256",
                    "name": "quorumBps",
                    "type": "uint256"
                },
                {
                    "internalType": "uint256",
                    "name": "votePeriodSeconds",
                    "type": "uint256"
                }
            ],
            "stateMutability": "nonpayable",
            "type": "constructor"
        },
        {
            "anonymous": false,
            "inputs": [
                {
                    "indexed": true,
                    "internalType": "address",
                    "name": "owner",
                    "type": "address"
                },
                {
                    "indexed": true,
                    "internalType": "address",
                    "name": "spender",
                    "type": "address"
                },
                {
                    "indexed": false,
                    "internalType": "uint256",
                    "name": "value",
                    "type": "uint256"
                }
            ],
            "name": "Approval",
            "type": "event"
        },
        {
            "anonymous": false,
            "inputs": [
                {
                    "indexed": true,
                    "internalType": "address",
                    "name": "lostAddress",
                    "type": "address"
                },
                {
                    "indexed": false,
                    "internalType": "uint256",
                    "name": "collateral",
                    "type": "uint256"
                }
            ],
            "name": "ClaimCleared",
            "type": "event"
        },
        {
            "anonymous": false,
            "inputs": [
                {
                    "indexed": true,
                    "internalType": "address",
                    "name": "lostAddress",
                    "type": "address"
                },
                {
                    "indexed": true,
                    "internalType": "address",
                    "name": "claimant",
                    "type": "address"
                },
                {
                    "indexed": false,
                    "internalType": "uint256",
                    "name": "collateral",
                    "type": "uint256"
                }
            ],
            "name": "ClaimDeleted",
            "type": "event"
        },
        {
            "anonymous": false,
            "inputs": [
                {
                    "indexed": true,
                    "internalType": "address",
                    "name": "lostAddress",
                    "type": "address"
                },
                {
                    "indexed": true,
                    "internalType": "address",
                    "name": "claimant",
                    "type": "address"
                },
                {
                    "indexed": false,
                    "internalType": "uint256",
                    "name": "balance",
                    "type": "uint256"
                }
            ],
            "name": "ClaimMade",
            "type": "event"
        },
        {
            "anonymous": false,
            "inputs": [
                {
                    "indexed": true,
                    "internalType": "address",
                    "name": "lostAddress",
                    "type": "address"
                },
                {
                    "indexed": true,
                    "internalType": "address",
                    "name": "claimant",
                    "type": "address"
                },
                {
                    "indexed": false,
                    "internalType": "uint256",
                    "name": "collateral",
                    "type": "uint256"
                }
            ],
            "name": "ClaimResolved",
            "type": "event"
        },
        {
            "anonymous": false,
            "inputs": [
                {
                    "indexed": false,
                    "internalType": "address",
                    "name": "newCustomCollateralAddress",
                    "type": "address"
                },
                {
                    "indexed": false,
                    "internalType": "uint256",
                    "name": "newCustomCollareralRate",
                    "type": "uint256"
                }
            ],
            "name": "CustomClaimCollateralChanged",
            "type": "event"
        },
        {
            "anonymous": false,
            "inputs": [
                {
                    "indexed": false,
                    "internalType": "address",
                    "name": "hook",
                    "type": "address"
                }
            ],
            "name": "HookSet",
            "type": "event"
        },
        {
            "anonymous": false,
            "inputs": [
                {
                    "indexed": false,
                    "internalType": "address",
                    "name": "newContractAddress",
                    "type": "address"
                }
            ],
            "name": "MigrationSucceeded",
            "type": "event"
        },
        {
            "anonymous": false,
            "inputs": [
                {
                    "indexed": true,
                    "internalType": "address",
                    "name": "previousOwner",
                    "type": "address"
                },
                {
                    "indexed": true,
                    "internalType": "address",
                    "name": "newOwner",
                    "type": "address"
                }
            ],
            "name": "OwnershipTransferred",
            "type": "event"
        },
        {
            "anonymous": false,
            "inputs": [
                {
                    "indexed": false,
                    "internalType": "uint256",
                    "name": "time",
                    "type": "uint256"
                }
            ],
            "name": "TimeStamp",
            "type": "event"
        },
        {
            "anonymous": false,
            "inputs": [
                {
                    "indexed": true,
                    "internalType": "address",
                    "name": "from",
                    "type": "address"
                },
                {
                    "indexed": true,
                    "internalType": "address",
                    "name": "to",
                    "type": "address"
                },
                {
                    "indexed": false,
                    "internalType": "uint256",
                    "name": "value",
                    "type": "uint256"
                }
            ],
            "name": "Transfer",
            "type": "event"
        },
        {
            "inputs": [
                {
                    "internalType": "address",
                    "name": "owner",
                    "type": "address"
                },
                {
                    "internalType": "address",
                    "name": "spender",
                    "type": "address"
                }
            ],
            "name": "allowance",
            "outputs": [
                {
                    "internalType": "uint256",
                    "name": "",
                    "type": "uint256"
                }
            ],
            "stateMutability": "view",
            "type": "function"
        },
        {
            "inputs": [
                {
                    "internalType": "address",
                    "name": "spender",
                    "type": "address"
                },
                {
                    "internalType": "uint256",
                    "name": "value",
                    "type": "uint256"
                }
            ],
            "name": "approve",
            "outputs": [
                {
                    "internalType": "bool",
                    "name": "",
                    "type": "bool"
                }
            ],
            "stateMutability": "nonpayable",
            "type": "function"
        },
        {
            "inputs": [
                {
                    "internalType": "address",
                    "name": "account",
                    "type": "address"
                }
            ],
            "name": "balanceOf",
            "outputs": [
                {
                    "internalType": "uint256",
                    "name": "",
                    "type": "uint256"
                }
            ],
            "stateMutability": "view",
            "type": "function"
        },
        {
            "inputs": [
                {
                    "internalType": "uint256",
                    "name": "amount",
                    "type": "uint256"
                }
            ],
            "name": "burn",
            "outputs": [],
            "stateMutability": "nonpayable",
            "type": "function"
        },
        {
            "inputs": [],
            "name": "claimPeriod",
            "outputs": [
                {
                    "internalType": "uint256",
                    "name": "",
                    "type": "uint256"
                }
            ],
            "stateMutability": "view",
            "type": "function"
        },
        {
            "inputs": [
                {
                    "internalType": "address",
                    "name": "",
                    "type": "address"
                }
            ],
            "name": "claims",
            "outputs": [
                {
                    "internalType": "address",
                    "name": "claimant",
                    "type": "address"
                },
                {
                    "internalType": "uint256",
                    "name": "collateral",
                    "type": "uint256"
                },
                {
                    "internalType": "uint256",
                    "name": "timestamp",
                    "type": "uint256"
                },
                {
                    "internalType": "address",
                    "name": "currencyUsed",
                    "type": "address"
                }
            ],
            "stateMutability": "view",
            "type": "function"
        },
        {
            "inputs": [],
            "name": "clearClaim",
            "outputs": [],
            "stateMutability": "nonpayable",
            "type": "function"
        },
        {
            "inputs": [],
            "name": "customCollateralAddress",
            "outputs": [
                {
                    "internalType": "address",
                    "name": "",
                    "type": "address"
                }
            ],
            "stateMutability": "view",
            "type": "function"
        },
        {
            "inputs": [],
            "name": "customCollateralRate",
            "outputs": [
                {
                    "internalType": "uint256",
                    "name": "",
                    "type": "uint256"
                }
            ],
            "stateMutability": "view",
            "type": "function"
        },
        {
            "inputs": [],
            "name": "decimals",
            "outputs": [
                {
                    "internalType": "uint8",
                    "name": "",
                    "type": "uint8"
                }
            ],
            "stateMutability": "view",
            "type": "function"
        },
        {
            "inputs": [
                {
                    "internalType": "address",
                    "name": "collateralType",
                    "type": "address"
                },
                {
                    "internalType": "address",
                    "name": "lostAddress",
                    "type": "address"
                }
            ],
            "name": "declareLost",
            "outputs": [],
            "stateMutability": "nonpayable",
            "type": "function"
        },
        {
            "inputs": [
                {
                    "internalType": "address",
                    "name": "lostAddress",
                    "type": "address"
                }
            ],
            "name": "deleteClaim",
            "outputs": [],
            "stateMutability": "nonpayable",
            "type": "function"
        },
        {
            "inputs": [],
            "name": "disableRecovery",
            "outputs": [],
            "stateMutability": "nonpayable",
            "type": "function"
        },
        {
            "inputs": [
                {
                    "internalType": "address",
                    "name": "buyer",
                    "type": "address"
                },
                {
                    "internalType": "address",
                    "name": "currency",
                    "type": "address"
                }
            ],
            "name": "drag",
            "outputs": [],
            "stateMutability": "nonpayable",
            "type": "function"
        },
        {
            "inputs": [],
            "name": "factory",
            "outputs": [
                {
                    "internalType": "contract IOfferFactory",
                    "name": "",
                    "type": "address"
                }
            ],
            "stateMutability": "view",
            "type": "function"
        },
        {
            "inputs": [],
            "name": "getClaimDeleter",
            "outputs": [
                {
                    "internalType": "address",
                    "name": "",
                    "type": "address"
                }
            ],
            "stateMutability": "view",
            "type": "function"
        },
        {
            "inputs": [
                {
                    "internalType": "address",
                    "name": "lostAddress",
                    "type": "address"
                }
            ],
            "name": "getClaimant",
            "outputs": [
                {
                    "internalType": "address",
                    "name": "",
                    "type": "address"
                }
            ],
            "stateMutability": "view",
            "type": "function"
        },
        {
            "inputs": [
                {
                    "internalType": "address",
                    "name": "lostAddress",
                    "type": "address"
                }
            ],
            "name": "getCollateral",
            "outputs": [
                {
                    "internalType": "uint256",
                    "name": "",
                    "type": "uint256"
                }
            ],
            "stateMutability": "view",
            "type": "function"
        },
        {
            "inputs": [
                {
                    "internalType": "address",
                    "name": "collateralType",
                    "type": "address"
                }
            ],
            "name": "getCollateralRate",
            "outputs": [
                {
                    "internalType": "uint256",
                    "name": "",
                    "type": "uint256"
                }
            ],
            "stateMutability": "view",
            "type": "function"
        },
        {
            "inputs": [
                {
                    "internalType": "address",
                    "name": "lostAddress",
                    "type": "address"
                }
            ],
            "name": "getCollateralType",
            "outputs": [
                {
                    "internalType": "address",
                    "name": "",
                    "type": "address"
                }
            ],
            "stateMutability": "view",
            "type": "function"
        },
        {
            "inputs": [
                {
                    "internalType": "address",
                    "name": "lostAddress",
                    "type": "address"
                }
            ],
            "name": "getTimeStamp",
            "outputs": [
                {
                    "internalType": "uint256",
                    "name": "",
                    "type": "uint256"
                }
            ],
            "stateMutability": "view",
            "type": "function"
        },
        {
            "inputs": [],
            "name": "hook",
            "outputs": [
                {
                    "internalType": "address",
                    "name": "",
                    "type": "address"
                }
            ],
            "stateMutability": "view",
            "type": "function"
        },
        {
            "inputs": [],
            "name": "isBinding",
            "outputs": [
                {
                    "internalType": "bool",
                    "name": "",
                    "type": "bool"
                }
            ],
            "stateMutability": "view",
            "type": "function"
        },
        {
            "inputs": [
                {
                    "internalType": "address",
                    "name": "target",
                    "type": "address"
                }
            ],
            "name": "isRecoveryEnabled",
            "outputs": [
                {
                    "internalType": "bool",
                    "name": "",
                    "type": "bool"
                }
            ],
            "stateMutability": "view",
            "type": "function"
        },
        {
            "inputs": [
                {
                    "internalType": "bytes32",
                    "name": "salt",
                    "type": "bytes32"
                },
                {
                    "internalType": "uint256",
                    "name": "pricePerShare",
                    "type": "uint256"
                },
                {
                    "internalType": "address",
                    "name": "currency",
                    "type": "address"
                }
            ],
            "name": "makeAcquisitionOffer",
            "outputs": [],
            "stateMutability": "payable",
            "type": "function"
        },
        {
            "inputs": [],
            "name": "migrate",
            "outputs": [],
            "stateMutability": "nonpayable",
            "type": "function"
        },
        {
            "inputs": [],
            "name": "name",
            "outputs": [
                {
                    "internalType": "string",
                    "name": "",
                    "type": "string"
                }
            ],
            "stateMutability": "view",
            "type": "function"
        },
        {
            "inputs": [],
            "name": "notifyOfferEnded",
            "outputs": [],
            "stateMutability": "nonpayable",
            "type": "function"
        },
        {
            "inputs": [],
            "name": "offer",
            "outputs": [
                {
                    "internalType": "contract IOffer",
                    "name": "",
                    "type": "address"
                }
            ],
            "stateMutability": "view",
            "type": "function"
        },
        {
            "inputs": [
                {
                    "internalType": "address",
                    "name": "from",
                    "type": "address"
                },
                {
                    "internalType": "uint256",
                    "name": "amount",
                    "type": "uint256"
                },
                {
                    "internalType": "bytes",
                    "name": "",
                    "type": "bytes"
                }
            ],
            "name": "onTokenTransfer",
            "outputs": [
                {
                    "internalType": "bool",
                    "name": "",
                    "type": "bool"
                }
            ],
            "stateMutability": "nonpayable",
            "type": "function"
        },
        {
            "inputs": [],
            "name": "owner",
            "outputs": [
                {
                    "internalType": "address",
                    "name": "",
                    "type": "address"
                }
            ],
            "stateMutability": "view",
            "type": "function"
        },
        {
            "inputs": [],
            "name": "quorum",
            "outputs": [
                {
                    "internalType": "uint256",
                    "name": "",
                    "type": "uint256"
                }
            ],
            "stateMutability": "view",
            "type": "function"
        },
        {
            "inputs": [
                {
                    "internalType": "address",
                    "name": "lostAddress",
                    "type": "address"
                }
            ],
            "name": "recover",
            "outputs": [],
            "stateMutability": "nonpayable",
            "type": "function"
        },
        {
            "inputs": [
                {
                    "internalType": "address",
                    "name": "",
                    "type": "address"
                }
            ],
            "name": "recoveryDisabled",
            "outputs": [
                {
                    "internalType": "bool",
                    "name": "",
                    "type": "bool"
                }
            ],
            "stateMutability": "view",
            "type": "function"
        },
        {
            "inputs": [
                {
                    "internalType": "address",
                    "name": "_hook",
                    "type": "address"
                }
            ],
            "name": "setHook",
            "outputs": [],
            "stateMutability": "nonpayable",
            "type": "function"
        },
        {
            "inputs": [
                {
                    "internalType": "string",
                    "name": "_symbol",
                    "type": "string"
                },
                {
                    "internalType": "string",
                    "name": "_name",
                    "type": "string"
                }
            ],
            "name": "setName",
            "outputs": [],
            "stateMutability": "nonpayable",
            "type": "function"
        },
        {
            "inputs": [
                {
                    "internalType": "bool",
                    "name": "enabled",
                    "type": "bool"
                }
            ],
            "name": "setRecoverable",
            "outputs": [],
            "stateMutability": "nonpayable",
            "type": "function"
        },
        {
            "inputs": [],
            "name": "symbol",
            "outputs": [
                {
                    "internalType": "string",
                    "name": "",
                    "type": "string"
                }
            ],
            "stateMutability": "view",
            "type": "function"
        },
        {
            "inputs": [],
            "name": "terms",
            "outputs": [
                {
                    "internalType": "string",
                    "name": "",
                    "type": "string"
                }
            ],
            "stateMutability": "view",
            "type": "function"
        },
        {
            "inputs": [],
            "name": "totalSupply",
            "outputs": [
                {
                    "internalType": "uint256",
                    "name": "",
                    "type": "uint256"
                }
            ],
            "stateMutability": "view",
            "type": "function"
        },
        {
            "inputs": [
                {
                    "internalType": "address",
                    "name": "to",
                    "type": "address"
                },
                {
                    "internalType": "uint256",
                    "name": "value",
                    "type": "uint256"
                }
            ],
            "name": "transfer",
            "outputs": [
                {
                    "internalType": "bool",
                    "name": "",
                    "type": "bool"
                }
            ],
            "stateMutability": "nonpayable",
            "type": "function"
        },
        {
            "inputs": [
                {
                    "internalType": "address",
                    "name": "recipient",
                    "type": "address"
                },
                {
                    "internalType": "uint256",
                    "name": "amount",
                    "type": "uint256"
                },
                {
                    "internalType": "bytes",
                    "name": "data",
                    "type": "bytes"
                }
            ],
            "name": "transferAndCall",
            "outputs": [
                {
                    "internalType": "bool",
                    "name": "",
                    "type": "bool"
                }
            ],
            "stateMutability": "nonpayable",
            "type": "function"
        },
        {
            "inputs": [
                {
                    "internalType": "address",
                    "name": "sender",
                    "type": "address"
                },
                {
                    "internalType": "address",
                    "name": "recipient",
                    "type": "address"
                },
                {
                    "internalType": "uint256",
                    "name": "amount",
                    "type": "uint256"
                }
            ],
            "name": "transferFrom",
            "outputs": [
                {
                    "internalType": "bool",
                    "name": "",
                    "type": "bool"
                }
            ],
            "stateMutability": "nonpayable",
            "type": "function"
        },
        {
            "inputs": [
                {
                    "internalType": "address",
                    "name": "newOwner",
                    "type": "address"
                }
            ],
            "name": "transferOwnership",
            "outputs": [],
            "stateMutability": "nonpayable",
            "type": "function"
        },
        {
            "inputs": [
                {
                    "internalType": "uint256",
                    "name": "amount",
                    "type": "uint256"
                }
            ],
            "name": "unwrap",
            "outputs": [],
            "stateMutability": "nonpayable",
            "type": "function"
        },
        {
            "inputs": [],
            "name": "unwrapConversionFactor",
            "outputs": [
                {
                    "internalType": "uint256",
                    "name": "",
                    "type": "uint256"
                }
            ],
            "stateMutability": "view",
            "type": "function"
        },
        {
            "inputs": [],
            "name": "votePeriod",
            "outputs": [
                {
                    "internalType": "uint256",
                    "name": "",
                    "type": "uint256"
                }
            ],
            "stateMutability": "view",
            "type": "function"
        },
        {
            "inputs": [
                {
                    "internalType": "address",
                    "name": "shareholder",
                    "type": "address"
                },
                {
                    "internalType": "uint256",
                    "name": "amount",
                    "type": "uint256"
                }
            ],
            "name": "wrap",
            "outputs": [],
            "stateMutability": "nonpayable",
            "type": "function"
        },
        {
            "inputs": [],
            "name": "wrapped",
            "outputs": [
                {
                    "internalType": "contract IERC20",
                    "name": "",
                    "type": "address"
                }
            ],
            "stateMutability": "view",
            "type": "function"
        }
    ],
    "bytecode": "608060405260006004553480156200001657600080fd5b5060405162002ba938038062002ba9833981016040819052620000399162000284565b600380546001600160a01b03808616610100026001600160a81b03199092169190911790915560068390556007829055600c80549189166001600160a01b03199092168217905560405188918891889160009185919083907f8be0079c531659141344cd1fd0a4f28419497f9722a3daafe3b4186f6b6457e0908290a3508251620000cc90600e9060208601906200010a565b508151620000e290600f9060208501906200010a565b50508651620000fc9350601092506020880191506200010a565b5050505050505050620003a2565b82805462000118906200034f565b90600052602060002090601f0160209004810192826200013c576000855562000187565b82601f106200015757805160ff191683800117855562000187565b8280016001018555821562000187579182015b82811115620001875782518255916020019190600101906200016a565b506200019592915062000199565b5090565b5b808211156200019557600081556001016200019a565b80516001600160a01b0381168114620001c857600080fd5b919050565b600082601f830112620001df57600080fd5b81516001600160401b0380821115620001fc57620001fc6200038c565b604051601f8301601f19908116603f011681019082821181831017156200022757620002276200038c565b816040528381526020925086838588010111156200024457600080fd5b600091505b8382101562000268578582018301518183018401529082019062000249565b838211156200027a5760008385830101525b9695505050505050565b600080600080600080600060e0888a031215620002a057600080fd5b620002ab88620001b0565b60208901519097506001600160401b0380821115620002c957600080fd5b620002d78b838c01620001cd565b975060408a0151915080821115620002ee57600080fd5b620002fc8b838c01620001cd565b965060608a01519150808211156200031357600080fd5b50620003228a828b01620001cd565b9450506200033360808901620001b0565b925060a0880151915060c0880151905092959891949750929550565b600181811c908216806200036457607f821691505b602082108114156200038657634e487b7160e01b600052602260045260246000fd5b50919050565b634e487b7160e01b600052604160045260246000fd5b6127f780620003b26000396000f3fe6080604052600436106102ae5760003560e01c806377e071ad11610175578063a9059cbb116100dc578063d502562511610095578063de0e9a3e1161006f578063de0e9a3e14610939578063eb470ebf14610959578063f2fde38b14610992578063fcb79a7e146109b257600080fd5b8063d5025625146108cb578063dcc7d4ad146108e0578063dd62ed3e146108f357600080fd5b8063a9059cbb14610797578063b40e80d1146107b7578063bf376c7a146107e7578063c028df0614610807578063c45a015514610827578063c6788bdd1461084f57600080fd5b806395d89b411161012e57806395d89b41146106c35780639b56d6c9146106d85780639e4b574514610711578063a3ec188314610727578063a4c0ed3614610761578063a78135871461078157600080fd5b806377e071ad146106225780637dc2cd98146106425780637f5a7c7b146106595780638da5cb5b146106795780638fd3ab80146106995780638ff8831b146106ae57600080fd5b806332a7ae951161021957806350e70d48116101d257806350e70d48146105425780635c707f071461056757806360918117146105875780636427ed971461059d5780636b03ed5f146105d757806370a08231146105ec57600080fd5b806332a7ae951461047157806332bc320b146104915780633bcc45ba146104a65780633dfd3873146104e25780634000aea01461050257806342966c681461052257600080fd5b806318160ddd1161026b57806318160ddd146103a25780631e3b9de5146103b757806323b872dd146103f057806326773ddd146104105780632a0a4ed514610430578063313ce5671461044557600080fd5b806306fdde03146102b35780630832e470146102de578063095ea7b3146103025780630c6f0e5d146103325780630cd865ec1461036a5780631703a0181461038c575b600080fd5b3480156102bf57600080fd5b506102c86109d2565b6040516102d59190612655565b60405180910390f35b3480156102ea57600080fd5b506102f460045481565b6040519081526020016102d5565b34801561030e57600080fd5b5061032261031d36600461242b565b610a60565b60405190151581526020016102d5565b34801561033e57600080fd5b50600a54610352906001600160a01b031681565b6040516001600160a01b0390911681526020016102d5565b34801561037657600080fd5b5061038a610385366004612377565b610a76565b005b34801561039857600080fd5b506102f460065481565b3480156103ae57600080fd5b506002546102f4565b3480156103c357600080fd5b506103526103d2366004612377565b6001600160a01b039081166000908152600860205260409020541690565b3480156103fc57600080fd5b5061032261040b3660046123ea565b610ce2565b34801561041c57600080fd5b5061038a61042b3660046123b1565b610d3e565b34801561043c57600080fd5b50610352610feb565b34801561045157600080fd5b5060035461045f9060ff1681565b60405160ff90911681526020016102d5565b34801561047d57600080fd5b5061038a61048c366004612377565b611063565b34801561049d57600080fd5b5061038a61126b565b3480156104b257600080fd5b506103526104c1366004612377565b6001600160a01b039081166000908152600860205260409020600301541690565b3480156104ee57600080fd5b5061038a6104fd366004612377565b611291565b34801561050e57600080fd5b5061032261051d366004612457565b611310565b34801561052e57600080fd5b5061038a61053d3660046125b7565b6113b5565b34801561054e57600080fd5b506003546103529061010090046001600160a01b031681565b34801561057357600080fd5b5061038a610582366004612553565b611451565b34801561059357600080fd5b506102f4600b5481565b3480156105a957600080fd5b5061038a6105b83660046124e0565b336000908152600960205260409020805460ff19169115919091179055565b3480156105e357600080fd5b5061038a6114a7565b3480156105f857600080fd5b506102f4610607366004612377565b6001600160a01b031660009081526020819052604090205490565b34801561062e57600080fd5b506102f461063d366004612377565b6115c6565b34801561064e57600080fd5b506102f462ed4e0081565b34801561066557600080fd5b50600d54610352906001600160a01b031681565b34801561068557600080fd5b50600c54610352906001600160a01b031681565b3480156106a557600080fd5b5061038a6116a5565b3480156106ba57600080fd5b5061038a611779565b3480156106cf57600080fd5b506102c86117dd565b3480156106e457600080fd5b506102f46106f3366004612377565b6001600160a01b031660009081526008602052604090206001015490565b34801561071d57600080fd5b5060045415610322565b34801561073357600080fd5b50610322610742366004612377565b6001600160a01b031660009081526009602052604090205460ff161590565b34801561076d57600080fd5b5061032261077c366004612457565b6117ea565b34801561078d57600080fd5b506102f460075481565b3480156107a357600080fd5b506103226107b236600461242b565b611813565b3480156107c357600080fd5b506103226107d2366004612377565b60096020526000908152604090205460ff1681565b3480156107f357600080fd5b5061038a61080236600461242b565b61181f565b34801561081357600080fd5b50600554610352906001600160a01b031681565b34801561083357600080fd5b5061035273f9f92751f272f0872e2edb6a280b0990f3e2b8a381565b34801561085b57600080fd5b5061089c61086a366004612377565b60086020526000908152604090208054600182015460028301546003909301546001600160a01b039283169391921684565b604080516001600160a01b039586168152602081019490945283019190915290911660608201526080016102d5565b3480156108d757600080fd5b506102c86118c0565b61038a6108ee36600461251a565b6118cd565b3480156108ff57600080fd5b506102f461090e3660046123b1565b6001600160a01b03918216600090815260016020908152604080832093909416825291909152205490565b34801561094557600080fd5b5061038a6109543660046125b7565b611ae2565b34801561096557600080fd5b506102f4610974366004612377565b6001600160a01b031660009081526008602052604090206002015490565b34801561099e57600080fd5b5061038a6109ad366004612377565b611afe565b3480156109be57600080fd5b5061038a6109cd3660046123b1565b611b84565b600e80546109df9061273d565b80601f0160208091040260200160405190810160405280929190818152602001828054610a0b9061273d565b8015610a585780601f10610a2d57610100808354040283529160200191610a58565b820191906000526020600020905b815481529060010190602001808311610a3b57829003601f168201915b505050505081565b6000610a6d338484611bcf565b50600192915050565b6001600160a01b0380821660009081526008602090815260409182902082516080810184528154851681526001820154928101839052600282015493810193909352600301549092166060820181905290919081610b075760405162461bcd60e51b81526020600482015260096024820152681b9bdd08199bdd5b9960ba1b60448201526064015b60405180910390fd5b82516001600160a01b03163314610b4f5760405162461bcd60e51b815260206004820152600c60248201526b1b9bdd0818db185a5b585b9d60a21b6044820152606401610afe565b4262ed4e008460400151610b6391906126cd565b1115610b9d5760405162461bcd60e51b8152602060048201526009602482015268746f6f206561726c7960b81b6044820152606401610afe565b82516001600160a01b0385811660009081526008602052604080822080546001600160a01b0319908116825560018201849055600282019390935560030180549092169091555163a9059cbb60e01b81528183166004820152602481018590529083169063a9059cbb90604401602060405180830381600087803b158015610c2457600080fd5b505af1158015610c38573d6000803e3d6000fd5b505050506040513d601f19601f82011682018060405250810190610c5c91906124fd565b610c6557600080fd5b610c8e8582610c89886001600160a01b031660009081526020819052604090205490565b611c28565b806001600160a01b0316856001600160a01b03167f52a5c2b28bc6eb9712d0ced43463103b486b13ccc9cda499fd3b2d7b6a74a8ee85604051610cd391815260200190565b60405180910390a35050505050565b6000610cef848484611c28565b6001600160a01b0384166000908152600160209081526040808320338452909152902054600160ff1b811015610d3357610d338533610d2e8685612726565b611bcf565b506001949350505050565b6001600160a01b03811660009081526009602052604090205460ff1615610d925760405162461bcd60e51b8152602060048201526008602482015267191a5cd8589b195960c21b6044820152606401610afe565b6000610d9d836115c6565b905060008111610de05760405162461bcd60e51b815260206004820152600e60248201526d1898590818dbdb1b185d195c985b60921b6044820152606401610afe565b336000610e02846001600160a01b031660009081526020819052604090205490565b90506000610e108483612707565b90508582610e485760405162461bcd60e51b8152602060048201526005602482015264656d70747960d81b6044820152606401610afe565b6001600160a01b03861660009081526008602052604090206001015415610ea35760405162461bcd60e51b815260206004820152600f60248201526e185b1c9958591e4818db185a5b5959608a1b6044820152606401610afe565b6040516323b872dd60e01b81526001600160a01b038216906323b872dd90610ed3908790309087906004016125e9565b602060405180830381600087803b158015610eed57600080fd5b505af1158015610f01573d6000803e3d6000fd5b505050506040513d601f19601f82011682018060405250810190610f2591906124fd565b610f2e57600080fd5b604080516080810182526001600160a01b038087168083526020808401878152428587019081528d8516606087019081528d86166000818152600890955293889020965187549087166001600160a01b0319918216178855925160018801559051600287015551600390950180549590941694169390931790915591517f1982ca8958fc8a8176cb52be509260f4bc5af7ce04e1533711793f1c56dd535990610fda9087815260200190565b60405180910390a350505050505050565b6000306001600160a01b0316638da5cb5b6040518163ffffffff1660e01b815260040160206040518083038186803b15801561102657600080fd5b505afa15801561103a573d6000803e3d6000fd5b505050506040513d601f19601f8201168201806040525081019061105e9190612394565b905090565b61106b610feb565b6001600160a01b0316336001600160a01b0316146110b75760405162461bcd60e51b81526020600482015260096024820152686e6f2061636365737360b81b6044820152606401610afe565b6001600160a01b0380821660009081526008602090815260409182902082516080810184528154851681526001820154928101839052600282015493810193909352600301549092166060820181905290916111415760405162461bcd60e51b81526020600482015260096024820152681b9bdd08199bdd5b9960ba1b6044820152606401610afe565b6001600160a01b03838116600090815260086020908152604080832080546001600160a01b031990811682556001820185905560028201949094556003018054909316909255845190850151915163a9059cbb60e01b8152908316600482015260248101919091529082169063a9059cbb90604401602060405180830381600087803b1580156111d057600080fd5b505af11580156111e4573d6000803e3d6000fd5b505050506040513d601f19601f8201168201806040525081019061120891906124fd565b61121157600080fd5b81600001516001600160a01b0316836001600160a01b03167fbb036e629a9f4c0897ee5d48440dfdb36f7e772117723a2ed603a6514244c2d5846020015160405161125e91815260200190565b60405180910390a3505050565b6005546001600160a01b031633141561128f57600580546001600160a01b03191690555b565b600c546001600160a01b031633146112bb5760405162461bcd60e51b8152600401610afe906126aa565b600d80546001600160a01b0319166001600160a01b0383169081179091556040519081527f4eab7b127c764308788622363ad3e9532de3dfba7845bd4f84c125a22544255a906020015b60405180910390a150565b60008061131d8686611813565b905080156113ac57604051635260769b60e11b81526001600160a01b0387169063a4c0ed369061135790339089908990899060040161260d565b602060405180830381600087803b15801561137157600080fd5b505af1158015611385573d6000803e3d6000fd5b505050506040513d601f19601f820116820180604052508101906113a991906124fd565b90505b95945050505050565b6113bf3382611ce7565b60006113cb6004541590565b6113d7576004546113da565b60015b60035490915061010090046001600160a01b03166342966c686113fd8385612707565b6040518263ffffffff1660e01b815260040161141b91815260200190565b600060405180830381600087803b15801561143557600080fd5b505af1158015611449573d6000803e3d6000fd5b505050505050565b600c546001600160a01b0316331461147b5760405162461bcd60e51b8152600401610afe906126aa565b815161148e90600f906020850190612251565b5080516114a290600e906020840190612251565b505050565b336000908152600860205260409020600101541561128f573360008181526008602052604080822060018101805460038301805484546001600160a01b0319908116865593879055600290940195909555908216909355905163a9059cbb60e01b815260048101939093526024830182905290916001600160a01b0390911690819063a9059cbb90604401602060405180830381600087803b15801561154c57600080fd5b505af1158015611560573d6000803e3d6000fd5b505050506040513d601f19601f8201168201806040525081019061158491906124fd565b61158d57600080fd5b60405182815233907f203627483d943880619f4b7e0cca21dbefd6204b4d85b124eb99540e17ba86dd9060200160405180910390a25050565b6000806115d283611d7d565b905080156115e05792915050565b6003546001600160a01b03848116610100909204161415611605575050600454919050565b600480546003546040516377e071ad60e01b81526001600160a01b0387811694820194909452919261010090910416906377e071ad9060240160206040518083038186803b15801561165657600080fd5b505afa15801561166a573d6000803e3d6000fd5b505050506040513d601f19601f8201168201806040525081019061168e91906125d0565b6116989190612707565b9392505050565b50919050565b336116ba6005546001600160a01b0316151590565b156116c457600080fd5b611f406116d060025490565b6116da9190612707565b6001600160a01b0382166000908152602081905260409020546116ff90612710612707565b10156117365760405162461bcd60e51b815260206004820152600660248201526571756f72756d60d01b6044820152606401610afe565b6117408182611dbe565b6040516001600160a01b03821681527f3b6b79a09e9fd230e8591b65c97236bf7df7a604edf733db0658e66b0e6eb2a990602001611305565b600354604051636427ed9760e01b8152600060048201526101009091046001600160a01b031690636427ed9790602401600060405180830381600087803b1580156117c357600080fd5b505af11580156117d7573d6000803e3d6000fd5b50505050565b600f80546109df9061273d565b60035460009061010090046001600160a01b0316331461180957600080fd5b610d338585611f90565b60006116988383612031565b6003546040516323b872dd60e01b81526101009091046001600160a01b0316906323b872dd90611857903390309086906004016125e9565b602060405180830381600087803b15801561187157600080fd5b505af1158015611885573d6000803e3d6000fd5b505050506040513d601f19601f820116820180604052508101906118a991906124fd565b6118b257600080fd5b6118bc8282611f90565b5050565b601080546109df9061273d565b600454156118da57600080fd5b6040514281527fdfbf6547deaf4fa5dd154ec1daf5350032f31d34e4c755104dfbf6049163c0879060200160405180910390a1600654600754604051634dc5e43160e01b815260048101869052336024820152604481018590526001600160a01b0384166064820152608481019290925260a482015260009073f9f92751f272f0872e2edb6a280b0990f3e2b8a390634dc5e43190349060c4016020604051808303818588803b15801561198d57600080fd5b505af11580156119a1573d6000803e3d6000fd5b50505050506040513d601f19601f820116820180604052508101906119c69190612394565b90506119dc6005546001600160a01b0316151590565b15611abd57806001600160a01b0316633f5e3e7f6040518163ffffffff1660e01b8152600401602060405180830381600087803b158015611a1c57600080fd5b505af1158015611a30573d6000803e3d6000fd5b505050506040513d601f19601f82011682018060405250810190611a5491906124fd565b611a5d57600080fd5b6005546040516306a169ed60e01b81526001600160a01b038381166004830152909116906306a169ed90602401600060405180830381600087803b158015611aa457600080fd5b505af1158015611ab8573d6000803e3d6000fd5b505050505b600580546001600160a01b0319166001600160a01b0392909216919091179055505050565b600454611aee57600080fd5b611afb338260045461204e565b50565b600c546001600160a01b03163314611b285760405162461bcd60e51b8152600401610afe906126aa565b600c546040516001600160a01b038084169216907f8be0079c531659141344cd1fd0a4f28419497f9722a3daafe3b4186f6b6457e090600090a3600c80546001600160a01b0319166001600160a01b0392909216919091179055565b6005546001600160a01b03163314611b9b57600080fd5b611bc582611bbe846001600160a01b031660009081526020819052604090205490565b600161204e565b6118bc8183611dbe565b6001600160a01b0383811660008181526001602090815260408083209487168084529482529182902085905590518481527f8c5be1e5ebec7d5bd14f71427d1e84f3dd0314c0f7b2291e5b200ac8c7c3b925910161125e565b6001600160a01b038216611c3b57600080fd5b611c46838383612100565b6001600160a01b03831660009081526020819052604081208054839290611c6e908490612726565b90915550506001600160a01b03821660009081526020819052604081208054839290611c9b9084906126cd565b92505081905550816001600160a01b0316836001600160a01b03167fddf252ad1be2c89b69c2b068fc378daa952ba7f163c4a11628f55a4df523b3ef8360405161125e91815260200190565b611cf382600083612100565b8060026000828254611d059190612726565b90915550506001600160a01b03821660009081526020819052604081208054839290611d32908490612726565b90915550506040518181526000906001600160a01b038416907fddf252ad1be2c89b69c2b068fc378daa952ba7f163c4a11628f55a4df523b3ef906020015b60405180910390a35050565b60006001600160a01b038216301415611d9857506001919050565b600a546001600160a01b0383811691161415611db6575050600b5490565b506000919050565b60045415611dcb57600080fd5b6003546040516370a0823160e01b81523060048201526101009091046001600160a01b03169063a9059cbb90839083906370a082319060240160206040518083038186803b158015611e1c57600080fd5b505afa158015611e30573d6000803e3d6000fd5b505050506040513d601f19601f82011682018060405250810190611e5491906125d0565b6040516001600160e01b031960e085901b1681526001600160a01b0390921660048301526024820152604401602060405180830381600087803b158015611e9a57600080fd5b505af1158015611eae573d6000803e3d6000fd5b505050506040513d601f19601f82011682018060405250810190611ed291906124fd565b611edb57600080fd5b60038054610100600160a81b0319166101006001600160a01b038516021790556002546118bc906003546040516370a0823160e01b81523060048201526101009091046001600160a01b0316906370a082319060240160206040518083038186803b158015611f4957600080fd5b505afa158015611f5d573d6000803e3d6000fd5b505050506040513d601f19601f82011682018060405250810190611f8191906125d0565b611f8b91906126e5565b61210b565b6001600160a01b038216611fa357600080fd5b611faf60008383612100565b8060026000828254611fc191906126cd565b90915550506001600160a01b03821660009081526020819052604081208054839290611fee9084906126cd565b90915550506040518181526001600160a01b038316906000907fddf252ad1be2c89b69c2b068fc378daa952ba7f163c4a11628f55a4df523b3ef90602001611d71565b600061203d838361214a565b61204657600080fd5b610a6d6114a7565b6120588383611ce7565b60035461010090046001600160a01b031663a9059cbb846120798486612707565b6040516001600160e01b031960e085901b1681526001600160a01b0390921660048301526024820152604401602060405180830381600087803b1580156120bf57600080fd5b505af11580156120d3573d6000803e3d6000fd5b505050506040513d601f19601f820116820180604052508101906120f791906124fd565b6114a257600080fd5b6114a2838383612157565b60018110156121455760405162461bcd60e51b81526020600482015260066024820152653330b1ba37b960d11b6044820152606401610afe565b600455565b6000610a6d338484611c28565b600d546001600160a01b0316156121cf57600d54604051637cbab1c760e01b81526001600160a01b0390911690637cbab1c79061219c908690869086906004016125e9565b600060405180830381600087803b1580156121b657600080fd5b505af11580156121ca573d6000803e3d6000fd5b505050505b6114a28383836005546001600160a01b0316156114a25760055460405163e1a1810f60e01b81526001600160a01b039091169063e1a1810f9061221a908690869086906004016125e9565b600060405180830381600087803b15801561223457600080fd5b505af1158015612248573d6000803e3d6000fd5b50505050505050565b82805461225d9061273d565b90600052602060002090601f01602090048101928261227f57600085556122c5565b82601f1061229857805160ff19168380011785556122c5565b828001600101855582156122c5579182015b828111156122c55782518255916020019190600101906122aa565b506122d19291506122d5565b5090565b5b808211156122d157600081556001016122d6565b600082601f8301126122fb57600080fd5b813567ffffffffffffffff8082111561231657612316612788565b604051601f8301601f19908116603f0116810190828211818310171561233e5761233e612788565b8160405283815286602085880101111561235757600080fd5b836020870160208301376000602085830101528094505050505092915050565b60006020828403121561238957600080fd5b81356116988161279e565b6000602082840312156123a657600080fd5b81516116988161279e565b600080604083850312156123c457600080fd5b82356123cf8161279e565b915060208301356123df8161279e565b809150509250929050565b6000806000606084860312156123ff57600080fd5b833561240a8161279e565b9250602084013561241a8161279e565b929592945050506040919091013590565b6000806040838503121561243e57600080fd5b82356124498161279e565b946020939093013593505050565b6000806000806060858703121561246d57600080fd5b84356124788161279e565b935060208501359250604085013567ffffffffffffffff8082111561249c57600080fd5b818701915087601f8301126124b057600080fd5b8135818111156124bf57600080fd5b8860208285010111156124d157600080fd5b95989497505060200194505050565b6000602082840312156124f257600080fd5b8135611698816127b3565b60006020828403121561250f57600080fd5b8151611698816127b3565b60008060006060848603121561252f57600080fd5b833592506020840135915060408401356125488161279e565b809150509250925092565b6000806040838503121561256657600080fd5b823567ffffffffffffffff8082111561257e57600080fd5b61258a868387016122ea565b935060208501359150808211156125a057600080fd5b506125ad858286016122ea565b9150509250929050565b6000602082840312156125c957600080fd5b5035919050565b6000602082840312156125e257600080fd5b5051919050565b6001600160a01b039384168152919092166020820152604081019190915260600190565b6001600160a01b0385168152602081018490526060604082018190528101829052818360808301376000818301608090810191909152601f909201601f191601019392505050565b600060208083528351808285015260005b8181101561268257858101830151858201604001528201612666565b81811115612694576000604083870101525b50601f01601f1916929092016040019392505050565b6020808252600990820152683737ba1037bbb732b960b91b604082015260600190565b600082198211156126e0576126e0612772565b500190565b60008261270257634e487b7160e01b600052601260045260246000fd5b500490565b600081600019048311821515161561272157612721612772565b500290565b60008282101561273857612738612772565b500390565b600181811c9082168061275157607f821691505b6020821081141561169f57634e487b7160e01b600052602260045260246000fd5b634e487b7160e01b600052601160045260246000fd5b634e487b7160e01b600052604160045260246000fd5b6001600160a01b0381168114611afb57600080fd5b8015158114611afb57600080fdfea264697066735822122030617ab115a3a8f14dfe56f1a5e58e8e690a7efbcfa09e666889c6885d2b27d864736f6c63430008060033",
    "sourcePath": "c:/Users/luziu/Documents/GitHub/contracts/src/HookableDraggableShares.sol",
    "compiler": {
        "name": "solc",
        "version": "0.8.6+commit.11564f7e"
    },
    "functionHashes": {
        "allowance(address,address)": "dd62ed3e",
        "approve(address,uint256)": "095ea7b3",
        "balanceOf(address)": "70a08231",
        "burn(uint256)": "42966c68",
        "claimPeriod()": "7dc2cd98",
        "claims(address)": "c6788bdd",
        "clearClaim()": "6b03ed5f",
        "customCollateralAddress()": "0c6f0e5d",
        "customCollateralRate()": "60918117",
        "decimals()": "313ce567",
        "declareLost(address,address)": "26773ddd",
        "deleteClaim(address)": "32a7ae95",
        "disableRecovery()": "8ff8831b",
        "drag(address,address)": "fcb79a7e",
        "factory()": "c45a0155",
        "getClaimDeleter()": "2a0a4ed5",
        "getClaimant(address)": "1e3b9de5",
        "getCollateral(address)": "9b56d6c9",
        "getCollateralRate(address)": "77e071ad",
        "getCollateralType(address)": "3bcc45ba",
        "getTimeStamp(address)": "eb470ebf",
        "hook()": "7f5a7c7b",
        "isBinding()": "9e4b5745",
        "isRecoveryEnabled(address)": "a3ec1883",
        "makeAcquisitionOffer(bytes32,uint256,address)": "dcc7d4ad",
        "migrate()": "8fd3ab80",
        "name()": "06fdde03",
        "notifyOfferEnded()": "32bc320b",
        "offer()": "c028df06",
        "onTokenTransfer(address,uint256,bytes)": "a4c0ed36",
        "owner()": "8da5cb5b",
        "quorum()": "1703a018",
        "recover(address)": "0cd865ec",
        "recoveryDisabled(address)": "b40e80d1",
        "setHook(address)": "3dfd3873",
        "setName(string,string)": "5c707f07",
        "setRecoverable(bool)": "6427ed97",
        "symbol()": "95d89b41",
        "terms()": "d5025625",
        "totalSupply()": "18160ddd",
        "transfer(address,uint256)": "a9059cbb",
        "transferAndCall(address,uint256,bytes)": "4000aea0",
        "transferFrom(address,address,uint256)": "23b872dd",
        "transferOwnership(address)": "f2fde38b",
        "unwrap(uint256)": "de0e9a3e",
        "unwrapConversionFactor()": "0832e470",
        "votePeriod()": "a7813587",
        "wrap(address,uint256)": "bf376c7a",
        "wrapped()": "50e70d48"
    },
    "gasEstimates": {
        "creation": {
            "codeDepositCost": "2046200",
            "executionCost": "infinite",
            "totalCost": "infinite"
        },
        "external": {
            "allowance(address,address)": "infinite",
            "approve(address,uint256)": "24623",
            "balanceOf(address)": "2689",
            "burn(uint256)": "infinite",
            "claimPeriod()": "263",
            "claims(address)": "9130",
            "clearClaim()": "infinite",
            "customCollateralAddress()": "2450",
            "customCollateralRate()": "2384",
            "decimals()": "2469",
            "declareLost(address,address)": "infinite",
            "deleteClaim(address)": "infinite",
            "disableRecovery()": "infinite",
            "drag(address,address)": "infinite",
            "factory()": "349",
            "getClaimDeleter()": "infinite",
            "getClaimant(address)": "2629",
            "getCollateral(address)": "2604",
            "getCollateralRate(address)": "infinite",
            "getCollateralType(address)": "2657",
            "getTimeStamp(address)": "2625",
            "hook()": "2427",
            "isBinding()": "2390",
            "isRecoveryEnabled(address)": "2657",
            "makeAcquisitionOffer(bytes32,uint256,address)": "infinite",
            "migrate()": "infinite",
            "name()": "infinite",
            "notifyOfferEnded()": "26585",
            "offer()": "2448",
            "onTokenTransfer(address,uint256,bytes)": "infinite",
            "owner()": "2449",
            "quorum()": "2452",
            "recover(address)": "infinite",
            "recoveryDisabled(address)": "2592",
            "setHook(address)": "27871",
            "setName(string,string)": "infinite",
            "setRecoverable(bool)": "24687",
            "symbol()": "infinite",
            "terms()": "infinite",
            "totalSupply()": "2338",
            "transfer(address,uint256)": "infinite",
            "transferAndCall(address,uint256,bytes)": "infinite",
            "transferFrom(address,address,uint256)": "infinite",
            "transferOwnership(address)": "30469",
            "unwrap(uint256)": "infinite",
            "unwrapConversionFactor()": "2364",
            "votePeriod()": "2450",
            "wrap(address,uint256)": "infinite",
            "wrapped()": "2393"
        },
        "internal": {
            "_beforeTokenTransfer(address,address,uint256)": "infinite"
        }
    }
}