{
    "contractName": "HookableDraggableShares",
    "abi": [
        {
            "inputs": [
                {
                    "internalType": "string",
                    "name": "_terms",
                    "type": "string"
                },
                {
                    "internalType": "address",
                    "name": "wrappedToken",
                    "type": "address"
                },
                {
                    "internalType": "uint256",
                    "name": "quorumBps",
                    "type": "uint256"
                },
                {
                    "internalType": "uint256",
                    "name": "votePeriodSeconds",
                    "type": "uint256"
                }
            ],
            "stateMutability": "nonpayable",
            "type": "constructor"
        },
        {
            "anonymous": false,
            "inputs": [
                {
                    "indexed": true,
                    "internalType": "address",
                    "name": "owner",
                    "type": "address"
                },
                {
                    "indexed": true,
                    "internalType": "address",
                    "name": "spender",
                    "type": "address"
                },
                {
                    "indexed": false,
                    "internalType": "uint256",
                    "name": "value",
                    "type": "uint256"
                }
            ],
            "name": "Approval",
            "type": "event"
        },
        {
            "anonymous": false,
            "inputs": [
                {
                    "indexed": true,
                    "internalType": "address",
                    "name": "lostAddress",
                    "type": "address"
                },
                {
                    "indexed": false,
                    "internalType": "uint256",
                    "name": "collateral",
                    "type": "uint256"
                }
            ],
            "name": "ClaimCleared",
            "type": "event"
        },
        {
            "anonymous": false,
            "inputs": [
                {
                    "indexed": true,
                    "internalType": "address",
                    "name": "lostAddress",
                    "type": "address"
                },
                {
                    "indexed": true,
                    "internalType": "address",
                    "name": "claimant",
                    "type": "address"
                },
                {
                    "indexed": false,
                    "internalType": "uint256",
                    "name": "collateral",
                    "type": "uint256"
                }
            ],
            "name": "ClaimDeleted",
            "type": "event"
        },
        {
            "anonymous": false,
            "inputs": [
                {
                    "indexed": true,
                    "internalType": "address",
                    "name": "lostAddress",
                    "type": "address"
                },
                {
                    "indexed": true,
                    "internalType": "address",
                    "name": "claimant",
                    "type": "address"
                },
                {
                    "indexed": false,
                    "internalType": "uint256",
                    "name": "balance",
                    "type": "uint256"
                }
            ],
            "name": "ClaimMade",
            "type": "event"
        },
        {
            "anonymous": false,
            "inputs": [
                {
                    "indexed": true,
                    "internalType": "address",
                    "name": "lostAddress",
                    "type": "address"
                },
                {
                    "indexed": true,
                    "internalType": "address",
                    "name": "claimant",
                    "type": "address"
                },
                {
                    "indexed": false,
                    "internalType": "uint256",
                    "name": "collateral",
                    "type": "uint256"
                }
            ],
            "name": "ClaimResolved",
            "type": "event"
        },
        {
            "anonymous": false,
            "inputs": [
                {
                    "indexed": false,
                    "internalType": "address",
                    "name": "newCustomCollateralAddress",
                    "type": "address"
                },
                {
                    "indexed": false,
                    "internalType": "uint256",
                    "name": "newCustomCollareralRate",
                    "type": "uint256"
                }
            ],
            "name": "CustomClaimCollateralChanged",
            "type": "event"
        },
        {
            "anonymous": false,
            "inputs": [
                {
                    "indexed": false,
                    "internalType": "address",
                    "name": "newContractAddress",
                    "type": "address"
                }
            ],
            "name": "MigrationSucceeded",
            "type": "event"
        },
        {
            "anonymous": false,
            "inputs": [
                {
                    "indexed": false,
                    "internalType": "uint256",
                    "name": "time",
                    "type": "uint256"
                }
            ],
            "name": "TimeStamp",
            "type": "event"
        },
        {
            "anonymous": false,
            "inputs": [
                {
                    "indexed": true,
                    "internalType": "address",
                    "name": "from",
                    "type": "address"
                },
                {
                    "indexed": true,
                    "internalType": "address",
                    "name": "to",
                    "type": "address"
                },
                {
                    "indexed": false,
                    "internalType": "uint256",
                    "name": "value",
                    "type": "uint256"
                }
            ],
            "name": "Transfer",
            "type": "event"
        },
        {
            "inputs": [
                {
                    "internalType": "address",
                    "name": "owner",
                    "type": "address"
                },
                {
                    "internalType": "address",
                    "name": "spender",
                    "type": "address"
                }
            ],
            "name": "allowance",
            "outputs": [
                {
                    "internalType": "uint256",
                    "name": "",
                    "type": "uint256"
                }
            ],
            "stateMutability": "view",
            "type": "function"
        },
        {
            "inputs": [
                {
                    "internalType": "address",
                    "name": "spender",
                    "type": "address"
                },
                {
                    "internalType": "uint256",
                    "name": "value",
                    "type": "uint256"
                }
            ],
            "name": "approve",
            "outputs": [
                {
                    "internalType": "bool",
                    "name": "",
                    "type": "bool"
                }
            ],
            "stateMutability": "nonpayable",
            "type": "function"
        },
        {
            "inputs": [
                {
                    "internalType": "address",
                    "name": "account",
                    "type": "address"
                }
            ],
            "name": "balanceOf",
            "outputs": [
                {
                    "internalType": "uint256",
                    "name": "",
                    "type": "uint256"
                }
            ],
            "stateMutability": "view",
            "type": "function"
        },
        {
            "inputs": [
                {
                    "internalType": "uint256",
                    "name": "amount",
                    "type": "uint256"
                }
            ],
            "name": "burn",
            "outputs": [],
            "stateMutability": "nonpayable",
            "type": "function"
        },
        {
            "inputs": [],
            "name": "claimPeriod",
            "outputs": [
                {
                    "internalType": "uint256",
                    "name": "",
                    "type": "uint256"
                }
            ],
            "stateMutability": "view",
            "type": "function"
        },
        {
            "inputs": [
                {
                    "internalType": "address",
                    "name": "",
                    "type": "address"
                }
            ],
            "name": "claims",
            "outputs": [
                {
                    "internalType": "address",
                    "name": "claimant",
                    "type": "address"
                },
                {
                    "internalType": "uint256",
                    "name": "collateral",
                    "type": "uint256"
                },
                {
                    "internalType": "uint256",
                    "name": "timestamp",
                    "type": "uint256"
                },
                {
                    "internalType": "address",
                    "name": "currencyUsed",
                    "type": "address"
                }
            ],
            "stateMutability": "view",
            "type": "function"
        },
        {
            "inputs": [],
            "name": "clearClaim",
            "outputs": [],
            "stateMutability": "nonpayable",
            "type": "function"
        },
        {
            "inputs": [],
            "name": "customCollateralAddress",
            "outputs": [
                {
                    "internalType": "address",
                    "name": "",
                    "type": "address"
                }
            ],
            "stateMutability": "view",
            "type": "function"
        },
        {
            "inputs": [],
            "name": "customCollateralRate",
            "outputs": [
                {
                    "internalType": "uint256",
                    "name": "",
                    "type": "uint256"
                }
            ],
            "stateMutability": "view",
            "type": "function"
        },
        {
            "inputs": [],
            "name": "decimals",
            "outputs": [
                {
                    "internalType": "uint8",
                    "name": "",
                    "type": "uint8"
                }
            ],
            "stateMutability": "view",
            "type": "function"
        },
        {
            "inputs": [
                {
                    "internalType": "address",
                    "name": "collateralType",
                    "type": "address"
                },
                {
                    "internalType": "address",
                    "name": "lostAddress",
                    "type": "address"
                }
            ],
            "name": "declareLost",
            "outputs": [],
            "stateMutability": "nonpayable",
            "type": "function"
        },
        {
            "inputs": [
                {
                    "internalType": "address",
                    "name": "lostAddress",
                    "type": "address"
                }
            ],
            "name": "deleteClaim",
            "outputs": [],
            "stateMutability": "nonpayable",
            "type": "function"
        },
        {
            "inputs": [],
            "name": "disableRecovery",
            "outputs": [],
            "stateMutability": "nonpayable",
            "type": "function"
        },
        {
            "inputs": [
                {
                    "internalType": "address",
                    "name": "buyer",
                    "type": "address"
                },
                {
                    "internalType": "address",
                    "name": "currency",
                    "type": "address"
                }
            ],
            "name": "drag",
            "outputs": [],
            "stateMutability": "nonpayable",
            "type": "function"
        },
        {
            "inputs": [],
            "name": "factory",
            "outputs": [
                {
                    "internalType": "contract IOfferFactory",
                    "name": "",
                    "type": "address"
                }
            ],
            "stateMutability": "view",
            "type": "function"
        },
        {
            "inputs": [],
            "name": "getClaimDeleter",
            "outputs": [
                {
                    "internalType": "address",
                    "name": "",
                    "type": "address"
                }
            ],
            "stateMutability": "view",
            "type": "function"
        },
        {
            "inputs": [
                {
                    "internalType": "address",
                    "name": "lostAddress",
                    "type": "address"
                }
            ],
            "name": "getClaimant",
            "outputs": [
                {
                    "internalType": "address",
                    "name": "",
                    "type": "address"
                }
            ],
            "stateMutability": "view",
            "type": "function"
        },
        {
            "inputs": [
                {
                    "internalType": "address",
                    "name": "lostAddress",
                    "type": "address"
                }
            ],
            "name": "getCollateral",
            "outputs": [
                {
                    "internalType": "uint256",
                    "name": "",
                    "type": "uint256"
                }
            ],
            "stateMutability": "view",
            "type": "function"
        },
        {
            "inputs": [
                {
                    "internalType": "address",
                    "name": "collateralType",
                    "type": "address"
                }
            ],
            "name": "getCollateralRate",
            "outputs": [
                {
                    "internalType": "uint256",
                    "name": "",
                    "type": "uint256"
                }
            ],
            "stateMutability": "view",
            "type": "function"
        },
        {
            "inputs": [
                {
                    "internalType": "address",
                    "name": "lostAddress",
                    "type": "address"
                }
            ],
            "name": "getCollateralType",
            "outputs": [
                {
                    "internalType": "address",
                    "name": "",
                    "type": "address"
                }
            ],
            "stateMutability": "view",
            "type": "function"
        },
        {
            "inputs": [
                {
                    "internalType": "address",
                    "name": "lostAddress",
                    "type": "address"
                }
            ],
            "name": "getTimeStamp",
            "outputs": [
                {
                    "internalType": "uint256",
                    "name": "",
                    "type": "uint256"
                }
            ],
            "stateMutability": "view",
            "type": "function"
        },
        {
            "inputs": [],
            "name": "hook",
            "outputs": [
                {
                    "internalType": "address",
                    "name": "",
                    "type": "address"
                }
            ],
            "stateMutability": "view",
            "type": "function"
        },
        {
            "inputs": [],
            "name": "isBinding",
            "outputs": [
                {
                    "internalType": "bool",
                    "name": "",
                    "type": "bool"
                }
            ],
            "stateMutability": "view",
            "type": "function"
        },
        {
            "inputs": [
                {
                    "internalType": "address",
                    "name": "target",
                    "type": "address"
                }
            ],
            "name": "isRecoveryEnabled",
            "outputs": [
                {
                    "internalType": "bool",
                    "name": "",
                    "type": "bool"
                }
            ],
            "stateMutability": "view",
            "type": "function"
        },
        {
            "inputs": [
                {
                    "internalType": "bytes32",
                    "name": "salt",
                    "type": "bytes32"
                },
                {
                    "internalType": "uint256",
                    "name": "pricePerShare",
                    "type": "uint256"
                },
                {
                    "internalType": "address",
                    "name": "currency",
                    "type": "address"
                }
            ],
            "name": "makeAcquisitionOffer",
            "outputs": [],
            "stateMutability": "payable",
            "type": "function"
        },
        {
            "inputs": [],
            "name": "migrate",
            "outputs": [],
            "stateMutability": "nonpayable",
            "type": "function"
        },
        {
            "inputs": [],
            "name": "name",
            "outputs": [
                {
                    "internalType": "string",
                    "name": "",
                    "type": "string"
                }
            ],
            "stateMutability": "view",
            "type": "function"
        },
        {
            "inputs": [],
            "name": "notifyOfferEnded",
            "outputs": [],
            "stateMutability": "nonpayable",
            "type": "function"
        },
        {
            "inputs": [],
            "name": "offer",
            "outputs": [
                {
                    "internalType": "contract IOffer",
                    "name": "",
                    "type": "address"
                }
            ],
            "stateMutability": "view",
            "type": "function"
        },
        {
            "inputs": [
                {
                    "internalType": "address",
                    "name": "from",
                    "type": "address"
                },
                {
                    "internalType": "uint256",
                    "name": "amount",
                    "type": "uint256"
                },
                {
                    "internalType": "bytes",
                    "name": "",
                    "type": "bytes"
                }
            ],
            "name": "onTokenTransfer",
            "outputs": [
                {
                    "internalType": "bool",
                    "name": "",
                    "type": "bool"
                }
            ],
            "stateMutability": "nonpayable",
            "type": "function"
        },
        {
            "inputs": [],
            "name": "owner",
            "outputs": [
                {
                    "internalType": "address",
                    "name": "",
                    "type": "address"
                }
            ],
            "stateMutability": "view",
            "type": "function"
        },
        {
            "inputs": [],
            "name": "quorum",
            "outputs": [
                {
                    "internalType": "uint256",
                    "name": "",
                    "type": "uint256"
                }
            ],
            "stateMutability": "view",
            "type": "function"
        },
        {
            "inputs": [
                {
                    "internalType": "address",
                    "name": "lostAddress",
                    "type": "address"
                }
            ],
            "name": "recover",
            "outputs": [],
            "stateMutability": "nonpayable",
            "type": "function"
        },
        {
            "inputs": [
                {
                    "internalType": "address",
                    "name": "",
                    "type": "address"
                }
            ],
            "name": "recoveryDisabled",
            "outputs": [
                {
                    "internalType": "bool",
                    "name": "",
                    "type": "bool"
                }
            ],
            "stateMutability": "view",
            "type": "function"
        },
        {
            "inputs": [
                {
                    "internalType": "address",
                    "name": "_hook",
                    "type": "address"
                }
            ],
            "name": "setHook",
            "outputs": [],
            "stateMutability": "nonpayable",
            "type": "function"
        },
        {
            "inputs": [
                {
                    "internalType": "bool",
                    "name": "enabled",
                    "type": "bool"
                }
            ],
            "name": "setRecoverable",
            "outputs": [],
            "stateMutability": "nonpayable",
            "type": "function"
        },
        {
            "inputs": [],
            "name": "symbol",
            "outputs": [
                {
                    "internalType": "string",
                    "name": "",
                    "type": "string"
                }
            ],
            "stateMutability": "view",
            "type": "function"
        },
        {
            "inputs": [],
            "name": "terms",
            "outputs": [
                {
                    "internalType": "string",
                    "name": "",
                    "type": "string"
                }
            ],
            "stateMutability": "view",
            "type": "function"
        },
        {
            "inputs": [],
            "name": "totalSupply",
            "outputs": [
                {
                    "internalType": "uint256",
                    "name": "",
                    "type": "uint256"
                }
            ],
            "stateMutability": "view",
            "type": "function"
        },
        {
            "inputs": [
                {
                    "internalType": "address",
                    "name": "to",
                    "type": "address"
                },
                {
                    "internalType": "uint256",
                    "name": "value",
                    "type": "uint256"
                }
            ],
            "name": "transfer",
            "outputs": [
                {
                    "internalType": "bool",
                    "name": "",
                    "type": "bool"
                }
            ],
            "stateMutability": "nonpayable",
            "type": "function"
        },
        {
            "inputs": [
                {
                    "internalType": "address",
                    "name": "recipient",
                    "type": "address"
                },
                {
                    "internalType": "uint256",
                    "name": "amount",
                    "type": "uint256"
                },
                {
                    "internalType": "bytes",
                    "name": "data",
                    "type": "bytes"
                }
            ],
            "name": "transferAndCall",
            "outputs": [
                {
                    "internalType": "bool",
                    "name": "",
                    "type": "bool"
                }
            ],
            "stateMutability": "nonpayable",
            "type": "function"
        },
        {
            "inputs": [
                {
                    "internalType": "address",
                    "name": "sender",
                    "type": "address"
                },
                {
                    "internalType": "address",
                    "name": "recipient",
                    "type": "address"
                },
                {
                    "internalType": "uint256",
                    "name": "amount",
                    "type": "uint256"
                }
            ],
            "name": "transferFrom",
            "outputs": [
                {
                    "internalType": "bool",
                    "name": "",
                    "type": "bool"
                }
            ],
            "stateMutability": "nonpayable",
            "type": "function"
        },
        {
            "inputs": [
                {
                    "internalType": "uint256",
                    "name": "amount",
                    "type": "uint256"
                }
            ],
            "name": "unwrap",
            "outputs": [],
            "stateMutability": "nonpayable",
            "type": "function"
        },
        {
            "inputs": [],
            "name": "unwrapConversionFactor",
            "outputs": [
                {
                    "internalType": "uint256",
                    "name": "",
                    "type": "uint256"
                }
            ],
            "stateMutability": "view",
            "type": "function"
        },
        {
            "inputs": [],
            "name": "votePeriod",
            "outputs": [
                {
                    "internalType": "uint256",
                    "name": "",
                    "type": "uint256"
                }
            ],
            "stateMutability": "view",
            "type": "function"
        },
        {
            "inputs": [
                {
                    "internalType": "address",
                    "name": "shareholder",
                    "type": "address"
                },
                {
                    "internalType": "uint256",
                    "name": "amount",
                    "type": "uint256"
                }
            ],
            "name": "wrap",
            "outputs": [],
            "stateMutability": "nonpayable",
            "type": "function"
        },
        {
            "inputs": [],
            "name": "wrapped",
            "outputs": [
                {
                    "internalType": "contract IERC20",
                    "name": "",
                    "type": "address"
                }
            ],
            "stateMutability": "view",
            "type": "function"
        }
    ],
    "bytecode": "608060405260006009553480156200001657600080fd5b5060405162002c0c38038062002c0c833981016040819052620000399162000157565b6003805460ff19169055600880546001600160a01b0319166001600160a01b038516179055600b829055600c819055835184908490849084906200008590600d90602087019062000094565b505050505050505050620002ab565b828054620000a29062000258565b90600052602060002090601f016020900481019282620000c6576000855562000111565b82601f10620000e157805160ff191683800117855562000111565b8280016001018555821562000111579182015b8281111562000111578251825591602001919060010190620000f4565b506200011f92915062000123565b5090565b5b808211156200011f576000815560010162000124565b80516001600160a01b03811681146200015257600080fd5b919050565b600080600080608085870312156200016e57600080fd5b84516001600160401b03808211156200018657600080fd5b818701915087601f8301126200019b57600080fd5b815181811115620001b057620001b062000295565b604051601f8201601f19908116603f01168101908382118183101715620001db57620001db62000295565b81604052828152602093508a84848701011115620001f857600080fd5b600091505b828210156200021c5784820184015181830185015290830190620001fd565b828211156200022e5760008484830101525b9750620002409150508782016200013a565b60408801516060909801519699909850945050505050565b600181811c908216806200026d57607f821691505b602082108114156200028f57634e487b7160e01b600052602260045260246000fd5b50919050565b634e487b7160e01b600052604160045260246000fd5b61295180620002bb6000396000f3fe6080604052600436106102885760003560e01c806377e071ad1161015a578063a9059cbb116100c1578063d50256251161007a578063d502562514610875578063dcc7d4ad1461088a578063dd62ed3e1461089d578063de0e9a3e146108e3578063eb470ebf14610903578063fcb79a7e1461093c57600080fd5b8063a9059cbb14610741578063b40e80d114610761578063bf376c7a14610791578063c028df06146107b1578063c45a0155146107d1578063c6788bdd146107f957600080fd5b806395d89b411161011357806395d89b411461066d5780639b56d6c9146106825780639e4b5745146106bb578063a3ec1883146106d1578063a4c0ed361461070b578063a78135871461072b57600080fd5b806377e071ad146105d75780637dc2cd98146105f75780637f5a7c7b1461060e5780638da5cb5b1461062e5780638fd3ab80146106435780638ff8831b1461065857600080fd5b8063313ce567116101fe57806342966c68116101b757806342966c68146104fc57806350e70d481461051c578063609181171461053c5780636427ed97146105525780636b03ed5f1461058c57806370a08231146105a157600080fd5b8063313ce5671461041f57806332a7ae951461044b57806332bc320b1461046b5780633bcc45ba146104805780633dfd3873146104bc5780634000aea0146104dc57600080fd5b80631703a018116102505780631703a0181461036657806318160ddd1461037c5780631e3b9de51461039157806323b872dd146103ca57806326773ddd146103ea5780632a0a4ed51461040a57600080fd5b806306fdde031461028d5780630832e470146102b8578063095ea7b3146102dc5780630c6f0e5d1461030c5780630cd865ec14610344575b600080fd5b34801561029957600080fd5b506102a261095c565b6040516102af91906127c8565b60405180910390f35b3480156102c457600080fd5b506102ce60095481565b6040519081526020016102af565b3480156102e857600080fd5b506102fc6102f73660046124ae565b610ab5565b60405190151581526020016102af565b34801561031857600080fd5b5060065461032c906001600160a01b031681565b6040516001600160a01b0390911681526020016102af565b34801561035057600080fd5b5061036461035f3660046123fa565b610acb565b005b34801561037257600080fd5b506102ce600b5481565b34801561038857600080fd5b506002546102ce565b34801561039d57600080fd5b5061032c6103ac3660046123fa565b6001600160a01b039081166000908152600460205260409020541690565b3480156103d657600080fd5b506102fc6103e536600461246d565b610d3c565b3480156103f657600080fd5b50610364610405366004612434565b610d98565b34801561041657600080fd5b5061032c611045565b34801561042b57600080fd5b506003546104399060ff1681565b60405160ff90911681526020016102af565b34801561045757600080fd5b506103646104663660046123fa565b6110c7565b34801561047757600080fd5b506103646112dc565b34801561048c57600080fd5b5061032c61049b3660046123fa565b6001600160a01b039081166000908152600460205260409020600301541690565b3480156104c857600080fd5b506103646104d73660046123fa565b611302565b3480156104e857600080fd5b506102fc6104f73660046124da565b6113e3565b34801561050857600080fd5b50610364610517366004612683565b611488565b34801561052857600080fd5b5060085461032c906001600160a01b031681565b34801561054857600080fd5b506102ce60075481565b34801561055e57600080fd5b5061036461056d366004612563565b336000908152600560205260409020805460ff19169115919091179055565b34801561059857600080fd5b5061036461151f565b3480156105ad57600080fd5b506102ce6105bc3660046123fa565b6001600160a01b031660009081526020819052604090205490565b3480156105e357600080fd5b506102ce6105f23660046123fa565b61163d565b34801561060357600080fd5b506102ce62ed4e0081565b34801561061a57600080fd5b50600e5461032c906001600160a01b031681565b34801561063a57600080fd5b5061032c61170e565b34801561064f57600080fd5b50610364611718565b34801561066457600080fd5b506103646117f2565b34801561067957600080fd5b506102a2611852565b34801561068e57600080fd5b506102ce61069d3660046123fa565b6001600160a01b031660009081526004602052604090206001015490565b3480156106c757600080fd5b50600954156102fc565b3480156106dd57600080fd5b506102fc6106ec3660046123fa565b6001600160a01b031660009081526005602052604090205460ff161590565b34801561071757600080fd5b506102fc6107263660046124da565b611997565b34801561073757600080fd5b506102ce600c5481565b34801561074d57600080fd5b506102fc61075c3660046124ae565b6119bb565b34801561076d57600080fd5b506102fc61077c3660046123fa565b60056020526000908152604090205460ff1681565b34801561079d57600080fd5b506103646107ac3660046124ae565b6119c7565b3480156107bd57600080fd5b50600a5461032c906001600160a01b031681565b3480156107dd57600080fd5b5061032c73f9f92751f272f0872e2edb6a280b0990f3e2b8a381565b34801561080557600080fd5b506108466108143660046123fa565b60046020526000908152604090208054600182015460028301546003909301546001600160a01b039283169391921684565b604080516001600160a01b039586168152602081019490945283019190915290911660608201526080016102af565b34801561088157600080fd5b506102a2611a64565b61036461089836600461259d565b611af2565b3480156108a957600080fd5b506102ce6108b8366004612434565b6001600160a01b03918216600090815260016020908152604080832093909416825291909152205490565b3480156108ef57600080fd5b506103646108fe366004612683565b611d07565b34801561090f57600080fd5b506102ce61091e3660046123fa565b6001600160a01b031660009081526004602052604090206002015490565b34801561094857600080fd5b50610364610957366004612434565b611d23565b60606109686009541590565b15610a1b57600860009054906101000a90046001600160a01b03166001600160a01b03166306fdde036040518163ffffffff1660e01b815260040160006040518083038186803b1580156109bb57600080fd5b505afa1580156109cf573d6000803e3d6000fd5b505050506040513d6000823e601f3d908101601f191682016040526109f791908101906125d6565b604051602001610a0791906126fa565b604051602081830303815290604052905090565b600860009054906101000a90046001600160a01b03166001600160a01b03166306fdde036040518163ffffffff1660e01b815260040160006040518083038186803b158015610a6957600080fd5b505afa158015610a7d573d6000803e3d6000fd5b505050506040513d6000823e601f3d908101601f19168201604052610aa591908101906125d6565b604051602001610a07919061272c565b6000610ac2338484611d6e565b50600192915050565b6001600160a01b0380821660009081526004602090815260409182902082516080810184528154851681526001820154928101839052600282015493810193909352600301549092166060820181905290919081610b5c5760405162461bcd60e51b81526020600482015260096024820152681b9bdd08199bdd5b9960ba1b60448201526064015b60405180910390fd5b82516001600160a01b03163314610ba45760405162461bcd60e51b815260206004820152600c60248201526b1b9bdd0818db185a5b585b9d60a21b6044820152606401610b53565b4262ed4e008460400151610bb891906127fb565b1115610bf25760405162461bcd60e51b8152602060048201526009602482015268746f6f206561726c7960b81b6044820152606401610b53565b82516001600160a01b03858116600090815260046020819052604080832080546001600160a01b031990811682556001820185905560028201949094556003018054909316909255905163a9059cbb60e01b815282841691810191909152602481018590529083169063a9059cbb90604401602060405180830381600087803b158015610c7e57600080fd5b505af1158015610c92573d6000803e3d6000fd5b505050506040513d601f19601f82011682018060405250810190610cb69190612580565b610cbf57600080fd5b610ce88582610ce3886001600160a01b031660009081526020819052604090205490565b611dc7565b806001600160a01b0316856001600160a01b03167f52a5c2b28bc6eb9712d0ced43463103b486b13ccc9cda499fd3b2d7b6a74a8ee85604051610d2d91815260200190565b60405180910390a35050505050565b6000610d49848484611dc7565b6001600160a01b0384166000908152600160209081526040808320338452909152902054600160ff1b811015610d8d57610d8d8533610d888685612854565b611d6e565b506001949350505050565b6001600160a01b03811660009081526005602052604090205460ff1615610dec5760405162461bcd60e51b8152602060048201526008602482015267191a5cd8589b195960c21b6044820152606401610b53565b6000610df78361163d565b905060008111610e3a5760405162461bcd60e51b815260206004820152600e60248201526d1898590818dbdb1b185d195c985b60921b6044820152606401610b53565b336000610e5c846001600160a01b031660009081526020819052604090205490565b90506000610e6a8483612835565b90508582610ea25760405162461bcd60e51b8152602060048201526005602482015264656d70747960d81b6044820152606401610b53565b6001600160a01b03861660009081526004602052604090206001015415610efd5760405162461bcd60e51b815260206004820152600f60248201526e185b1c9958591e4818db185a5b5959608a1b6044820152606401610b53565b6040516323b872dd60e01b81526001600160a01b038216906323b872dd90610f2d9087903090879060040161275c565b602060405180830381600087803b158015610f4757600080fd5b505af1158015610f5b573d6000803e3d6000fd5b505050506040513d601f19601f82011682018060405250810190610f7f9190612580565b610f8857600080fd5b604080516080810182526001600160a01b038087168083526020808401878152428587019081528d8516606087019081528d86166000818152600490955293889020965187549087166001600160a01b0319918216178855925160018801559051600287015551600390950180549590941694169390931790915591517f1982ca8958fc8a8176cb52be509260f4bc5af7ce04e1533711793f1c56dd5359906110349087815260200190565b60405180910390a350505050505050565b60085460408051632a0a4ed560e01b815290516000926001600160a01b031691632a0a4ed5916004808301926020929190829003018186803b15801561108a57600080fd5b505afa15801561109e573d6000803e3d6000fd5b505050506040513d601f19601f820116820180604052508101906110c29190612417565b905090565b6110cf611045565b6001600160a01b0316336001600160a01b03161461111b5760405162461bcd60e51b81526020600482015260096024820152686e6f2061636365737360b81b6044820152606401610b53565b6001600160a01b0380821660009081526004602090815260409182902082516080810184528154851681526001820154928101839052600282015493810193909352600301549092166060820181905290916111a55760405162461bcd60e51b81526020600482015260096024820152681b9bdd08199bdd5b9960ba1b6044820152606401610b53565b6001600160a01b03808416600090815260046020818152604080842080546001600160a01b031990811682556001820186905560028201959095556003018054909416909355855190860151925163a9059cbb60e01b81529385169363a9059cbb93611227939091016001600160a01b03929092168252602082015260400190565b602060405180830381600087803b15801561124157600080fd5b505af1158015611255573d6000803e3d6000fd5b505050506040513d601f19601f820116820180604052508101906112799190612580565b61128257600080fd5b81600001516001600160a01b0316836001600160a01b03167fbb036e629a9f4c0897ee5d48440dfdb36f7e772117723a2ed603a6514244c2d584602001516040516112cf91815260200190565b60405180910390a3505050565b600a546001600160a01b031633141561130057600a80546001600160a01b03191690555b565b336001600160a01b0316306001600160a01b0316638da5cb5b6040518163ffffffff1660e01b8152600401602060405180830381600087803b15801561134757600080fd5b505af115801561135b573d6000803e3d6000fd5b505050506040513d601f19601f8201168201806040525081019061137f9190612417565b6001600160a01b0316146113c15760405162461bcd60e51b81526020600482015260096024820152683737ba1037bbb732b960b91b6044820152606401610b53565b600e80546001600160a01b0319166001600160a01b0392909216919091179055565b6000806113f086866119bb565b9050801561147f57604051635260769b60e11b81526001600160a01b0387169063a4c0ed369061142a903390899089908990600401612780565b602060405180830381600087803b15801561144457600080fd5b505af1158015611458573d6000803e3d6000fd5b505050506040513d601f19601f8201168201806040525081019061147c9190612580565b90505b95945050505050565b6114923382611e86565b600061149e6009541590565b6114aa576009546114ad565b60015b6008549091506001600160a01b03166342966c686114cb8385612835565b6040518263ffffffff1660e01b81526004016114e991815260200190565b600060405180830381600087803b15801561150357600080fd5b505af1158015611517573d6000803e3d6000fd5b505050505050565b33600090815260046020526040902060010154156113005733600081815260046020819052604080832060018101805460038301805484546001600160a01b0319908116865593889055600290940196909655908216909455905163a9059cbb60e01b8152918201939093526024810182905290916001600160a01b031690819063a9059cbb90604401602060405180830381600087803b1580156115c357600080fd5b505af11580156115d7573d6000803e3d6000fd5b505050506040513d601f19601f820116820180604052508101906115fb9190612580565b61160457600080fd5b60405182815233907f203627483d943880619f4b7e0cca21dbefd6204b4d85b124eb99540e17ba86dd9060200160405180910390a25050565b60008061164983611f1c565b905080156116575792915050565b6008546001600160a01b0384811691161415611677575050600954919050565b6009546008546040516377e071ad60e01b81526001600160a01b038681166004830152909116906377e071ad9060240160206040518083038186803b1580156116bf57600080fd5b505afa1580156116d3573d6000803e3d6000fd5b505050506040513d601f19601f820116820180604052508101906116f7919061269c565b6117019190612835565b9392505050565b50919050565b60006110c2611045565b3361172d600a546001600160a01b0316151590565b1561173757600080fd5b611f4061174360025490565b61174d9190612835565b6001600160a01b03821660009081526020819052604090205461177290612710612835565b10156117a95760405162461bcd60e51b815260206004820152600660248201526571756f72756d60d01b6044820152606401610b53565b6117b38182611f5d565b6040516001600160a01b03821681527f3b6b79a09e9fd230e8591b65c97236bf7df7a604edf733db0658e66b0e6eb2a99060200160405180910390a150565b600854604051636427ed9760e01b8152600060048201526001600160a01b0390911690636427ed9790602401600060405180830381600087803b15801561183857600080fd5b505af115801561184c573d6000803e3d6000fd5b50505050565b606061185e6009541590565b156118fd57600860009054906101000a90046001600160a01b03166001600160a01b03166395d89b416040518163ffffffff1660e01b815260040160006040518083038186803b1580156118b157600080fd5b505afa1580156118c5573d6000803e3d6000fd5b505050506040513d6000823e601f3d908101601f191682016040526118ed91908101906125d6565b604051602001610a0791906126b5565b600860009054906101000a90046001600160a01b03166001600160a01b03166395d89b416040518163ffffffff1660e01b815260040160006040518083038186803b15801561194b57600080fd5b505afa15801561195f573d6000803e3d6000fd5b505050506040513d6000823e601f3d908101601f1916820160405261198791908101906125d6565b604051602001610a0791906126de565b6008546000906001600160a01b031633146119b157600080fd5b610d8d8585612122565b600061170183836121c3565b6008546040516323b872dd60e01b81526001600160a01b03909116906323b872dd906119fb9033903090869060040161275c565b602060405180830381600087803b158015611a1557600080fd5b505af1158015611a29573d6000803e3d6000fd5b505050506040513d601f19601f82011682018060405250810190611a4d9190612580565b611a5657600080fd5b611a608282612122565b5050565b600d8054611a7190612897565b80601f0160208091040260200160405190810160405280929190818152602001828054611a9d90612897565b8015611aea5780601f10611abf57610100808354040283529160200191611aea565b820191906000526020600020905b815481529060010190602001808311611acd57829003601f168201915b505050505081565b60095415611aff57600080fd5b6040514281527fdfbf6547deaf4fa5dd154ec1daf5350032f31d34e4c755104dfbf6049163c0879060200160405180910390a1600b54600c54604051634dc5e43160e01b815260048101869052336024820152604481018590526001600160a01b0384166064820152608481019290925260a482015260009073f9f92751f272f0872e2edb6a280b0990f3e2b8a390634dc5e43190349060c4016020604051808303818588803b158015611bb257600080fd5b505af1158015611bc6573d6000803e3d6000fd5b50505050506040513d601f19601f82011682018060405250810190611beb9190612417565b9050611c01600a546001600160a01b0316151590565b15611ce257806001600160a01b0316633f5e3e7f6040518163ffffffff1660e01b8152600401602060405180830381600087803b158015611c4157600080fd5b505af1158015611c55573d6000803e3d6000fd5b505050506040513d601f19601f82011682018060405250810190611c799190612580565b611c8257600080fd5b600a546040516306a169ed60e01b81526001600160a01b038381166004830152909116906306a169ed90602401600060405180830381600087803b158015611cc957600080fd5b505af1158015611cdd573d6000803e3d6000fd5b505050505b600a80546001600160a01b0319166001600160a01b0392909216919091179055505050565b600954611d1357600080fd5b611d2033826009546121cf565b50565b600a546001600160a01b03163314611d3a57600080fd5b611d6482611d5d846001600160a01b031660009081526020819052604090205490565b60016121cf565b611a608183611f5d565b6001600160a01b0383811660008181526001602090815260408083209487168084529482529182902085905590518481527f8c5be1e5ebec7d5bd14f71427d1e84f3dd0314c0f7b2291e5b200ac8c7c3b92591016112cf565b6001600160a01b038216611dda57600080fd5b611de5838383612281565b6001600160a01b03831660009081526020819052604081208054839290611e0d908490612854565b90915550506001600160a01b03821660009081526020819052604081208054839290611e3a9084906127fb565b92505081905550816001600160a01b0316836001600160a01b03167fddf252ad1be2c89b69c2b068fc378daa952ba7f163c4a11628f55a4df523b3ef836040516112cf91815260200190565b611e9282600083612281565b8060026000828254611ea49190612854565b90915550506001600160a01b03821660009081526020819052604081208054839290611ed1908490612854565b90915550506040518181526000906001600160a01b038416907fddf252ad1be2c89b69c2b068fc378daa952ba7f163c4a11628f55a4df523b3ef906020015b60405180910390a35050565b60006001600160a01b038216301415611f3757506001919050565b6006546001600160a01b0383811691161415611f5557505060075490565b506000919050565b60095415611f6a57600080fd5b6008546040516370a0823160e01b81523060048201526001600160a01b039091169063a9059cbb90839083906370a082319060240160206040518083038186803b158015611fb757600080fd5b505afa158015611fcb573d6000803e3d6000fd5b505050506040513d601f19601f82011682018060405250810190611fef919061269c565b6040516001600160e01b031960e085901b1681526001600160a01b0390921660048301526024820152604401602060405180830381600087803b15801561203557600080fd5b505af1158015612049573d6000803e3d6000fd5b505050506040513d601f19601f8201168201806040525081019061206d9190612580565b61207657600080fd5b600880546001600160a01b0319166001600160a01b038416179055600254611a60906008546040516370a0823160e01b81523060048201526001600160a01b03909116906370a082319060240160206040518083038186803b1580156120db57600080fd5b505afa1580156120ef573d6000803e3d6000fd5b505050506040513d601f19601f82011682018060405250810190612113919061269c565b61211d9190612813565b61228c565b6001600160a01b03821661213557600080fd5b61214160008383612281565b806002600082825461215391906127fb565b90915550506001600160a01b038216600090815260208190526040812080548392906121809084906127fb565b90915550506040518181526001600160a01b038316906000907fddf252ad1be2c89b69c2b068fc378daa952ba7f163c4a11628f55a4df523b3ef90602001611f10565b600061170183836122cb565b6121d98383611e86565b6008546001600160a01b031663a9059cbb846121f58486612835565b6040516001600160e01b031960e085901b1681526001600160a01b0390921660048301526024820152604401602060405180830381600087803b15801561223b57600080fd5b505af115801561224f573d6000803e3d6000fd5b505050506040513d601f19601f820116820180604052508101906122739190612580565b61227c57600080fd5b505050565b61227c8383836122e8565b60018110156122c65760405162461bcd60e51b81526020600482015260066024820152653330b1ba37b960d11b6044820152606401610b53565b600955565b60006122d7838361236b565b6122e057600080fd5b610ac261151f565b600e546001600160a01b03161561236057600e54604051637cbab1c760e01b81526001600160a01b0390911690637cbab1c79061232d9086908690869060040161275c565b600060405180830381600087803b15801561234757600080fd5b505af115801561235b573d6000803e3d6000fd5b505050505b61227c838383612378565b6000610ac2338484611dc7565b61227c838383600a546001600160a01b03161561227c57600a5460405163e1a1810f60e01b81526001600160a01b039091169063e1a1810f906123c39086908690869060040161275c565b600060405180830381600087803b1580156123dd57600080fd5b505af11580156123f1573d6000803e3d6000fd5b50505050505050565b60006020828403121561240c57600080fd5b8135611701816128f8565b60006020828403121561242957600080fd5b8151611701816128f8565b6000806040838503121561244757600080fd5b8235612452816128f8565b91506020830135612462816128f8565b809150509250929050565b60008060006060848603121561248257600080fd5b833561248d816128f8565b9250602084013561249d816128f8565b929592945050506040919091013590565b600080604083850312156124c157600080fd5b82356124cc816128f8565b946020939093013593505050565b600080600080606085870312156124f057600080fd5b84356124fb816128f8565b935060208501359250604085013567ffffffffffffffff8082111561251f57600080fd5b818701915087601f83011261253357600080fd5b81358181111561254257600080fd5b88602082850101111561255457600080fd5b95989497505060200194505050565b60006020828403121561257557600080fd5b81356117018161290d565b60006020828403121561259257600080fd5b81516117018161290d565b6000806000606084860312156125b257600080fd5b833592506020840135915060408401356125cb816128f8565b809150509250925092565b6000602082840312156125e857600080fd5b815167ffffffffffffffff8082111561260057600080fd5b818401915084601f83011261261457600080fd5b815181811115612626576126266128e2565b604051601f8201601f19908116603f0116810190838211818310171561264e5761264e6128e2565b8160405282815287602084870101111561266757600080fd5b61267883602083016020880161286b565b979650505050505050565b60006020828403121561269557600080fd5b5035919050565b6000602082840312156126ae57600080fd5b5051919050565b601160fa1b8152600082516126d181600185016020870161286b565b9190910160010192915050565b605760f81b8152600082516126d181600185016020870161286b565b690223930b3b3b0b13632960b51b81526000825161271f81600a85016020870161286b565b91909101600a0192915050565b6702bb930b83832b2160c51b81526000825161274f81600885016020870161286b565b9190910160080192915050565b6001600160a01b039384168152919092166020820152604081019190915260600190565b6001600160a01b0385168152602081018490526060604082018190528101829052818360808301376000818301608090810191909152601f909201601f191601019392505050565b60208152600082518060208401526127e781604085016020870161286b565b601f01601f19169190910160400192915050565b6000821982111561280e5761280e6128cc565b500190565b60008261283057634e487b7160e01b600052601260045260246000fd5b500490565b600081600019048311821515161561284f5761284f6128cc565b500290565b600082821015612866576128666128cc565b500390565b60005b8381101561288657818101518382015260200161286e565b8381111561184c5750506000910152565b600181811c908216806128ab57607f821691505b6020821081141561170857634e487b7160e01b600052602260045260246000fd5b634e487b7160e01b600052601160045260246000fd5b634e487b7160e01b600052604160045260246000fd5b6001600160a01b0381168114611d2057600080fd5b8015158114611d2057600080fdfea2646970667358221220ebeffdbbaa4cd2c8708c5cc425a7615c720b7b3a584d90cd9e606bd3cabc3a0164736f6c63430008060033",
    "sourcePath": "c:/Users/luziu/Documents/GitHub/contracts/src/HookableDraggableShares.sol",
    "compiler": {
        "name": "solc",
        "version": "0.8.6+commit.11564f7e"
    },
    "functionHashes": {
        "allowance(address,address)": "dd62ed3e",
        "approve(address,uint256)": "095ea7b3",
        "balanceOf(address)": "70a08231",
        "burn(uint256)": "42966c68",
        "claimPeriod()": "7dc2cd98",
        "claims(address)": "c6788bdd",
        "clearClaim()": "6b03ed5f",
        "customCollateralAddress()": "0c6f0e5d",
        "customCollateralRate()": "60918117",
        "decimals()": "313ce567",
        "declareLost(address,address)": "26773ddd",
        "deleteClaim(address)": "32a7ae95",
        "disableRecovery()": "8ff8831b",
        "drag(address,address)": "fcb79a7e",
        "factory()": "c45a0155",
        "getClaimDeleter()": "2a0a4ed5",
        "getClaimant(address)": "1e3b9de5",
        "getCollateral(address)": "9b56d6c9",
        "getCollateralRate(address)": "77e071ad",
        "getCollateralType(address)": "3bcc45ba",
        "getTimeStamp(address)": "eb470ebf",
        "hook()": "7f5a7c7b",
        "isBinding()": "9e4b5745",
        "isRecoveryEnabled(address)": "a3ec1883",
        "makeAcquisitionOffer(bytes32,uint256,address)": "dcc7d4ad",
        "migrate()": "8fd3ab80",
        "name()": "06fdde03",
        "notifyOfferEnded()": "32bc320b",
        "offer()": "c028df06",
        "onTokenTransfer(address,uint256,bytes)": "a4c0ed36",
        "owner()": "8da5cb5b",
        "quorum()": "1703a018",
        "recover(address)": "0cd865ec",
        "recoveryDisabled(address)": "b40e80d1",
        "setHook(address)": "3dfd3873",
        "setRecoverable(bool)": "6427ed97",
        "symbol()": "95d89b41",
        "terms()": "d5025625",
        "totalSupply()": "18160ddd",
        "transfer(address,uint256)": "a9059cbb",
        "transferAndCall(address,uint256,bytes)": "4000aea0",
        "transferFrom(address,address,uint256)": "23b872dd",
        "unwrap(uint256)": "de0e9a3e",
        "unwrapConversionFactor()": "0832e470",
        "votePeriod()": "a7813587",
        "wrap(address,uint256)": "bf376c7a",
        "wrapped()": "50e70d48"
    },
    "gasEstimates": {
        "creation": {
            "codeDepositCost": "2115400",
            "executionCost": "infinite",
            "totalCost": "infinite"
        },
        "external": {
            "allowance(address,address)": "infinite",
            "approve(address,uint256)": "24623",
            "balanceOf(address)": "2689",
            "burn(uint256)": "infinite",
            "claimPeriod()": "263",
            "claims(address)": "9130",
            "clearClaim()": "infinite",
            "customCollateralAddress()": "2450",
            "customCollateralRate()": "2384",
            "decimals()": "2359",
            "declareLost(address,address)": "infinite",
            "deleteClaim(address)": "infinite",
            "disableRecovery()": "infinite",
            "drag(address,address)": "infinite",
            "factory()": "349",
            "getClaimDeleter()": "infinite",
            "getClaimant(address)": "2651",
            "getCollateral(address)": "2604",
            "getCollateralRate(address)": "infinite",
            "getCollateralType(address)": "2679",
            "getTimeStamp(address)": "2669",
            "hook()": "2427",
            "isBinding()": "2390",
            "isRecoveryEnabled(address)": "2657",
            "makeAcquisitionOffer(bytes32,uint256,address)": "infinite",
            "migrate()": "infinite",
            "name()": "infinite",
            "notifyOfferEnded()": "26607",
            "offer()": "2448",
            "onTokenTransfer(address,uint256,bytes)": "infinite",
            "owner()": "infinite",
            "quorum()": "2341",
            "recover(address)": "infinite",
            "recoveryDisabled(address)": "2592",
            "setHook(address)": "infinite",
            "setRecoverable(bool)": "24687",
            "symbol()": "infinite",
            "terms()": "infinite",
            "totalSupply()": "2360",
            "transfer(address,uint256)": "infinite",
            "transferAndCall(address,uint256,bytes)": "infinite",
            "transferFrom(address,address,uint256)": "infinite",
            "unwrap(uint256)": "infinite",
            "unwrapConversionFactor()": "2364",
            "votePeriod()": "2450",
            "wrap(address,uint256)": "infinite",
            "wrapped()": "2404"
        },
        "internal": {
            "_beforeTokenTransfer(address,address,uint256)": "infinite"
        }
    }
}