{
    "contractName": "LicensedBrokerbot",
    "abi": [
        {
            "inputs": [
                {
                    "internalType": "address",
                    "name": "shareToken",
                    "type": "address"
                },
                {
                    "internalType": "uint256",
                    "name": "price_",
                    "type": "uint256"
                },
                {
                    "internalType": "uint256",
                    "name": "increment_",
                    "type": "uint256"
                },
                {
                    "internalType": "address",
                    "name": "baseCurrency",
                    "type": "address"
                },
                {
                    "internalType": "address",
                    "name": "owner",
                    "type": "address"
                }
            ],
            "stateMutability": "nonpayable",
            "type": "constructor"
        },
        {
            "anonymous": false,
            "inputs": [
                {
                    "indexed": true,
                    "internalType": "address",
                    "name": "previousOwner",
                    "type": "address"
                },
                {
                    "indexed": true,
                    "internalType": "address",
                    "name": "newOwner",
                    "type": "address"
                }
            ],
            "name": "OwnershipTransferred",
            "type": "event"
        },
        {
            "anonymous": false,
            "inputs": [
                {
                    "indexed": true,
                    "internalType": "address",
                    "name": "token",
                    "type": "address"
                },
                {
                    "indexed": false,
                    "internalType": "address",
                    "name": "who",
                    "type": "address"
                },
                {
                    "indexed": false,
                    "internalType": "bytes",
                    "name": "ref",
                    "type": "bytes"
                },
                {
                    "indexed": false,
                    "internalType": "int256",
                    "name": "amount",
                    "type": "int256"
                },
                {
                    "indexed": false,
                    "internalType": "address",
                    "name": "base",
                    "type": "address"
                },
                {
                    "indexed": false,
                    "internalType": "uint256",
                    "name": "totPrice",
                    "type": "uint256"
                },
                {
                    "indexed": false,
                    "internalType": "uint256",
                    "name": "fee",
                    "type": "uint256"
                },
                {
                    "indexed": false,
                    "internalType": "uint256",
                    "name": "newprice",
                    "type": "uint256"
                }
            ],
            "name": "Trade",
            "type": "event"
        },
        {
            "inputs": [
                {
                    "internalType": "address",
                    "name": "erc20",
                    "type": "address"
                },
                {
                    "internalType": "address",
                    "name": "who",
                    "type": "address"
                },
                {
                    "internalType": "uint256",
                    "name": "amount",
                    "type": "uint256"
                }
            ],
            "name": "approve",
            "outputs": [],
            "stateMutability": "nonpayable",
            "type": "function"
        },
        {
            "inputs": [],
            "name": "base",
            "outputs": [
                {
                    "internalType": "address",
                    "name": "",
                    "type": "address"
                }
            ],
            "stateMutability": "view",
            "type": "function"
        },
        {
            "inputs": [],
            "name": "buyingEnabled",
            "outputs": [
                {
                    "internalType": "bool",
                    "name": "",
                    "type": "bool"
                }
            ],
            "stateMutability": "view",
            "type": "function"
        },
        {
            "inputs": [],
            "name": "driftIncrement",
            "outputs": [
                {
                    "internalType": "int256",
                    "name": "",
                    "type": "int256"
                }
            ],
            "stateMutability": "view",
            "type": "function"
        },
        {
            "inputs": [],
            "name": "driftStart",
            "outputs": [
                {
                    "internalType": "uint256",
                    "name": "",
                    "type": "uint256"
                }
            ],
            "stateMutability": "view",
            "type": "function"
        },
        {
            "inputs": [
                {
                    "internalType": "uint256",
                    "name": "shares",
                    "type": "uint256"
                }
            ],
            "name": "getBuyPrice",
            "outputs": [
                {
                    "internalType": "uint256",
                    "name": "",
                    "type": "uint256"
                }
            ],
            "stateMutability": "view",
            "type": "function"
        },
        {
            "inputs": [
                {
                    "internalType": "uint256",
                    "name": "",
                    "type": "uint256"
                }
            ],
            "name": "getLicenseFee",
            "outputs": [
                {
                    "internalType": "uint256",
                    "name": "",
                    "type": "uint256"
                }
            ],
            "stateMutability": "pure",
            "type": "function"
        },
        {
            "inputs": [],
            "name": "getPrice",
            "outputs": [
                {
                    "internalType": "uint256",
                    "name": "",
                    "type": "uint256"
                }
            ],
            "stateMutability": "view",
            "type": "function"
        },
        {
            "inputs": [
                {
                    "internalType": "uint256",
                    "name": "timestamp",
                    "type": "uint256"
                }
            ],
            "name": "getPriceAtTime",
            "outputs": [
                {
                    "internalType": "uint256",
                    "name": "",
                    "type": "uint256"
                }
            ],
            "stateMutability": "view",
            "type": "function"
        },
        {
            "inputs": [
                {
                    "internalType": "uint256",
                    "name": "shares",
                    "type": "uint256"
                }
            ],
            "name": "getSellPrice",
            "outputs": [
                {
                    "internalType": "uint256",
                    "name": "",
                    "type": "uint256"
                }
            ],
            "stateMutability": "view",
            "type": "function"
        },
        {
            "inputs": [
                {
                    "internalType": "uint256",
                    "name": "money",
                    "type": "uint256"
                }
            ],
            "name": "getShares",
            "outputs": [
                {
                    "internalType": "uint256",
                    "name": "",
                    "type": "uint256"
                }
            ],
            "stateMutability": "view",
            "type": "function"
        },
        {
            "inputs": [],
            "name": "hasDrift",
            "outputs": [
                {
                    "internalType": "bool",
                    "name": "",
                    "type": "bool"
                }
            ],
            "stateMutability": "view",
            "type": "function"
        },
        {
            "inputs": [],
            "name": "increment",
            "outputs": [
                {
                    "internalType": "uint256",
                    "name": "",
                    "type": "uint256"
                }
            ],
            "stateMutability": "view",
            "type": "function"
        },
        {
            "inputs": [
                {
                    "internalType": "address",
                    "name": "buyer",
                    "type": "address"
                },
                {
                    "internalType": "uint256",
                    "name": "shares",
                    "type": "uint256"
                },
                {
                    "internalType": "bytes",
                    "name": "ref",
                    "type": "bytes"
                }
            ],
            "name": "notifyTrade",
            "outputs": [],
            "stateMutability": "nonpayable",
            "type": "function"
        },
        {
            "inputs": [
                {
                    "internalType": "address",
                    "name": "buyer",
                    "type": "address"
                },
                {
                    "internalType": "uint256",
                    "name": "shares",
                    "type": "uint256"
                },
                {
                    "internalType": "bytes",
                    "name": "ref",
                    "type": "bytes"
                }
            ],
            "name": "notifyTradeAndTransfer",
            "outputs": [],
            "stateMutability": "nonpayable",
            "type": "function"
        },
        {
            "inputs": [
                {
                    "internalType": "address[]",
                    "name": "buyers",
                    "type": "address[]"
                },
                {
                    "internalType": "uint256[]",
                    "name": "shares",
                    "type": "uint256[]"
                },
                {
                    "internalType": "bytes[]",
                    "name": "ref",
                    "type": "bytes[]"
                }
            ],
            "name": "notifyTrades",
            "outputs": [],
            "stateMutability": "nonpayable",
            "type": "function"
        },
        {
            "inputs": [
                {
                    "internalType": "address[]",
                    "name": "buyers",
                    "type": "address[]"
                },
                {
                    "internalType": "uint256[]",
                    "name": "shares",
                    "type": "uint256[]"
                },
                {
                    "internalType": "bytes[]",
                    "name": "ref",
                    "type": "bytes[]"
                }
            ],
            "name": "notifyTradesAndTransfer",
            "outputs": [],
            "stateMutability": "nonpayable",
            "type": "function"
        },
        {
            "inputs": [
                {
                    "internalType": "address",
                    "name": "from",
                    "type": "address"
                },
                {
                    "internalType": "uint256",
                    "name": "amount",
                    "type": "uint256"
                },
                {
                    "internalType": "bytes",
                    "name": "ref",
                    "type": "bytes"
                }
            ],
            "name": "onTokenTransfer",
            "outputs": [
                {
                    "internalType": "bool",
                    "name": "",
                    "type": "bool"
                }
            ],
            "stateMutability": "nonpayable",
            "type": "function"
        },
        {
            "inputs": [
                {
                    "internalType": "address",
                    "name": "token_",
                    "type": "address"
                },
                {
                    "internalType": "address",
                    "name": "from",
                    "type": "address"
                },
                {
                    "internalType": "uint256",
                    "name": "amount",
                    "type": "uint256"
                },
                {
                    "internalType": "bytes",
                    "name": "ref",
                    "type": "bytes"
                }
            ],
            "name": "onTokenTransfer",
            "outputs": [],
            "stateMutability": "nonpayable",
            "type": "function"
        },
        {
            "inputs": [],
            "name": "owner",
            "outputs": [
                {
                    "internalType": "address",
                    "name": "",
                    "type": "address"
                }
            ],
            "stateMutability": "view",
            "type": "function"
        },
        {
            "inputs": [],
            "name": "paymenthub",
            "outputs": [
                {
                    "internalType": "address",
                    "name": "",
                    "type": "address"
                }
            ],
            "stateMutability": "view",
            "type": "function"
        },
        {
            "inputs": [
                {
                    "internalType": "address",
                    "name": "token_",
                    "type": "address"
                },
                {
                    "internalType": "address",
                    "name": "from",
                    "type": "address"
                },
                {
                    "internalType": "uint256",
                    "name": "amount",
                    "type": "uint256"
                },
                {
                    "internalType": "bytes",
                    "name": "ref",
                    "type": "bytes"
                }
            ],
            "name": "processIncoming",
            "outputs": [
                {
                    "internalType": "uint256",
                    "name": "",
                    "type": "uint256"
                }
            ],
            "stateMutability": "payable",
            "type": "function"
        },
        {
            "inputs": [],
            "name": "sellingEnabled",
            "outputs": [
                {
                    "internalType": "bool",
                    "name": "",
                    "type": "bool"
                }
            ],
            "stateMutability": "view",
            "type": "function"
        },
        {
            "inputs": [
                {
                    "internalType": "uint256",
                    "name": "secondsPerStep",
                    "type": "uint256"
                },
                {
                    "internalType": "int256",
                    "name": "newDriftIncrement",
                    "type": "int256"
                }
            ],
            "name": "setDrift",
            "outputs": [],
            "stateMutability": "nonpayable",
            "type": "function"
        },
        {
            "inputs": [
                {
                    "internalType": "bool",
                    "name": "newBuyingEnabled",
                    "type": "bool"
                },
                {
                    "internalType": "bool",
                    "name": "newSellingEnabled",
                    "type": "bool"
                }
            ],
            "name": "setEnabled",
            "outputs": [],
            "stateMutability": "nonpayable",
            "type": "function"
        },
        {
            "inputs": [
                {
                    "internalType": "address",
                    "name": "hub",
                    "type": "address"
                }
            ],
            "name": "setPaymentHub",
            "outputs": [],
            "stateMutability": "nonpayable",
            "type": "function"
        },
        {
            "inputs": [
                {
                    "internalType": "uint256",
                    "name": "newPrice",
                    "type": "uint256"
                },
                {
                    "internalType": "uint256",
                    "name": "newIncrement",
                    "type": "uint256"
                }
            ],
            "name": "setPrice",
            "outputs": [],
            "stateMutability": "nonpayable",
            "type": "function"
        },
        {
            "inputs": [
                {
                    "internalType": "uint256",
                    "name": "settings_",
                    "type": "uint256"
                }
            ],
            "name": "setSettings",
            "outputs": [],
            "stateMutability": "nonpayable",
            "type": "function"
        },
        {
            "inputs": [],
            "name": "settings",
            "outputs": [
                {
                    "internalType": "uint256",
                    "name": "",
                    "type": "uint256"
                }
            ],
            "stateMutability": "view",
            "type": "function"
        },
        {
            "inputs": [],
            "name": "timeToDrift",
            "outputs": [
                {
                    "internalType": "uint256",
                    "name": "",
                    "type": "uint256"
                }
            ],
            "stateMutability": "view",
            "type": "function"
        },
        {
            "inputs": [],
            "name": "token",
            "outputs": [
                {
                    "internalType": "address",
                    "name": "",
                    "type": "address"
                }
            ],
            "stateMutability": "view",
            "type": "function"
        },
        {
            "inputs": [
                {
                    "internalType": "address",
                    "name": "newOwner",
                    "type": "address"
                }
            ],
            "name": "transferOwnership",
            "outputs": [],
            "stateMutability": "nonpayable",
            "type": "function"
        },
        {
            "inputs": [
                {
                    "internalType": "address",
                    "name": "ercAddress",
                    "type": "address"
                },
                {
                    "internalType": "address",
                    "name": "to",
                    "type": "address"
                },
                {
                    "internalType": "uint256",
                    "name": "amount",
                    "type": "uint256"
                }
            ],
            "name": "withdraw",
            "outputs": [],
            "stateMutability": "nonpayable",
            "type": "function"
        },
        {
            "inputs": [
                {
                    "internalType": "uint256",
                    "name": "amount",
                    "type": "uint256"
                }
            ],
            "name": "withdrawEther",
            "outputs": [],
            "stateMutability": "nonpayable",
            "type": "function"
        }
    ],
    "bytecode": "60c060405260036007553480156200001657600080fd5b5060405162002007380380620020078339810160408190526200003991620000ee565b600080546001600160a01b0319166001600160a01b03831690811782556040518392907f8be0079c531659141344cd1fd0a4f28419497f9722a3daafe3b4186f6b6457e0908290a350506001600160601b0319606091821b811660805293901b90921660a052600255600355600180546001600160a01b031916734d99f8e88bab0bee8cd840b1ad3c0be4f49c293a1790556200014c565b80516001600160a01b0381168114620000e957600080fd5b919050565b600080600080600060a086880312156200010757600080fd5b6200011286620000d1565b945060208601519350604086015192506200013060608701620000d1565b91506200014060808701620000d1565b90509295509295909350565b60805160601c60a05160601c611e42620001c5600039600081816105d50152818161081401528181610d890152818161155e0152818161170301526117d9015260008181610286015281816107d201528181610861015281816114b2015281816115ad0152818161162d01526118200152611e426000f3fe6080604052600436106101f95760003560e01c8063a4c0ed361161010d578063d9caed12116100a0578063f771cb651161006f578063f771cb651461058e578063f7d97577146105a3578063fc0c546a146105c3578063fff4da1f146105f7578063fff897451461061757600080fd5b8063d9caed1214610518578063e06174e414610538578063e1f21c671461054e578063f2fde38b1461056e57600080fd5b8063bf13d438116100dc578063bf13d438146104ac578063c7780ab2146104cc578063d09de08a146104e2578063d7e06ca8146104f857600080fd5b8063a4c0ed361461042c578063afaefe9e1461044c578063b03a13fe1461046c578063ba730e531461048c57600080fd5b80637cd6a7fd116101905780638da5cb5b1161015f5780638da5cb5b146103a25780638ed2fe91146103c257806391be6ad5146103d757806398d5fdca146103f75780639bb8c0fd1461040c57600080fd5b80637cd6a7fd146103335780637ff6c1911461035357806384b41fda146103695780638a07d3d01461037f57600080fd5b80635c627935116101cc5780635c627935146102c057806369365c52146102e05780636f7267b7146102f3578063777adcf01461031357600080fd5b806308d4db14146101fe57806321bea858146102315780633bed33ce146102525780635001f3b514610274575b600080fd5b34801561020a57600080fd5b5061021e610219366004611b3e565b610637565b6040519081526020015b60405180910390f35b34801561023d57600080fd5b5061021e61024c366004611b3e565b50600090565b34801561025e57600080fd5b5061027261026d366004611b3e565b610650565b005b34801561028057600080fd5b506102a87f000000000000000000000000000000000000000000000000000000000000000081565b6040516001600160a01b039091168152602001610228565b3480156102cc57600080fd5b506102726102db366004611b05565b6106c9565b61021e6102ee36600461197f565b6107b3565b3480156102ff57600080fd5b5061021e61030e366004611b3e565b6108ae565b34801561031f57600080fd5b506001546102a8906001600160a01b031681565b34801561033f57600080fd5b5061027261034e366004611b3e565b610928565b34801561035f57600080fd5b5061021e60045481565b34801561037557600080fd5b5061021e60055481565b34801561038b57600080fd5b5060055415155b6040519015158152602001610228565b3480156103ae57600080fd5b506000546102a8906001600160a01b031681565b3480156103ce57600080fd5b506103926109d0565b3480156103e357600080fd5b506102726103f2366004611a4e565b6109e5565b34801561040357600080fd5b5061021e610b15565b34801561041857600080fd5b506102726104273660046119f2565b610b20565b34801561043857600080fd5b506103926104473660046119f2565b610bd6565b34801561045857600080fd5b50610272610467366004611b57565b610bf1565b34801561047857600080fd5b506102726104873660046119f2565b610cb3565b34801561049857600080fd5b5061021e6104a7366004611b3e565b610e05565b3480156104b857600080fd5b5061021e6104c7366004611b3e565b610e2a565b3480156104d857600080fd5b5061021e60065481565b3480156104ee57600080fd5b5061021e60035481565b34801561050457600080fd5b5061027261051336600461197f565b610ea3565b34801561052457600080fd5b5061027261053336600461193e565b610eb8565b34801561054457600080fd5b5061021e60075481565b34801561055a57600080fd5b5061027261056936600461193e565b610f80565b34801561057a57600080fd5b506102726105893660046118fd565b611058565b34801561059a57600080fd5b50610392611156565b3480156105af57600080fd5b506102726105be366004611b57565b611166565b3480156105cf57600080fd5b506102a87f000000000000000000000000000000000000000000000000000000000000000081565b34801561060357600080fd5b506102726106123660046118fd565b61121c565b34801561062357600080fd5b50610272610632366004611a4e565b6112e1565b600061064a610644610b15565b8361140e565b92915050565b6000546001600160a01b031633148061067357506001546001600160a01b031633145b6106985760405162461bcd60e51b815260040161068f90611be2565b60405180910390fd5b604051339082156108fc029083906000818181858888f193505050501580156106c5573d6000803e3d6000fd5b5050565b336001600160a01b0316306001600160a01b0316638da5cb5b6040518163ffffffff1660e01b8152600401602060405180830381600087803b15801561070e57600080fd5b505af1158015610722573d6000803e3d6000fd5b505050506040513d601f19601f820116820180604052508101906107469190611921565b6001600160a01b03161461076c5760405162461bcd60e51b815260040161068f90611be2565b61077a600160075481161490565b15158215151461078e576007805460011890555b61079c600260075481161490565b1515811515146106c5576007805460021890555050565b6000336001600160a01b03871614806107f45750336001600160a01b037f000000000000000000000000000000000000000000000000000000000000000016145b8061080957506001546001600160a01b031633145b61081257600080fd5b7f00000000000000000000000000000000000000000000000000000000000000006001600160a01b0316866001600160a01b0316141561085f5761085885858585611465565b90506108a5565b7f00000000000000000000000000000000000000000000000000000000000000006001600160a01b0316866001600160a01b031614156101f957610858858585856115fd565b95945050505050565b6000806108b9610b15565b90506000806108c88386611ca5565b90505b8082101561092057600060026108e18385611c8d565b6108eb9190611ca5565b905060006108f9858361140e565b9050808711156109155761090e826001611c8d565b9350610919565b8192505b50506108cb565b509392505050565b336001600160a01b0316306001600160a01b0316638da5cb5b6040518163ffffffff1660e01b8152600401602060405180830381600087803b15801561096d57600080fd5b505af1158015610981573d6000803e3d6000fd5b505050506040513d601f19601f820116820180604052508101906109a59190611921565b6001600160a01b0316146109cb5760405162461bcd60e51b815260040161068f90611be2565b600755565b60006109e0600160075481161490565b905090565b336001600160a01b0316306001600160a01b0316638da5cb5b6040518163ffffffff1660e01b8152600401602060405180830381600087803b158015610a2a57600080fd5b505af1158015610a3e573d6000803e3d6000fd5b505050506040513d601f19601f82011682018060405250810190610a629190611921565b6001600160a01b031614610a885760405162461bcd60e51b815260040161068f90611be2565b60005b85811015610b0c57610afa878783818110610aa857610aa8611dd0565b9050602002016020810190610abd91906118fd565b868684818110610acf57610acf611dd0565b90506020020135858585818110610ae857610ae8611dd0565b90506020028101906104879190611c05565b80610b0481611d82565b915050610a8b565b50505050505050565b60006109e042610e2a565b336001600160a01b0316306001600160a01b0316638da5cb5b6040518163ffffffff1660e01b8152600401602060405180830381600087803b158015610b6557600080fd5b505af1158015610b79573d6000803e3d6000fd5b505050506040513d601f19601f82011682018060405250810190610b9d9190611921565b6001600160a01b031614610bc35760405162461bcd60e51b815260040161068f90611be2565b610bcf8484848461178b565b5050505050565b6000610be533868686866107b3565b50600195945050505050565b336001600160a01b0316306001600160a01b0316638da5cb5b6040518163ffffffff1660e01b8152600401602060405180830381600087803b158015610c3657600080fd5b505af1158015610c4a573d6000803e3d6000fd5b505050506040513d601f19601f82011682018060405250810190610c6e9190611921565b6001600160a01b031614610c945760405162461bcd60e51b815260040161068f90611be2565b610ca8610c9f610b15565b60025542600455565b600591909155600655565b336001600160a01b0316306001600160a01b0316638da5cb5b6040518163ffffffff1660e01b8152600401602060405180830381600087803b158015610cf857600080fd5b505af1158015610d0c573d6000803e3d6000fd5b505050506040513d601f19601f82011682018060405250810190610d309190611921565b6001600160a01b031614610d565760405162461bcd60e51b815260040161068f90611be2565b610d628484848461178b565b5060405163a9059cbb60e01b81526001600160a01b038581166004830152602482018590527f0000000000000000000000000000000000000000000000000000000000000000169063a9059cbb90604401602060405180830381600087803b158015610dcd57600080fd5b505af1158015610de1573d6000803e3d6000fd5b505050506040513d601f19601f82011682018060405250810190610bcf9190611ae8565b600061064a60035483610e189190611d4c565b610e20610b15565b6106449190611d6b565b6000610e37600554151590565b15610e9b57600060045483610e4c9190611d6b565b9050600060065460055483610e619190611ca5565b610e6b9190611cc7565b9050600081600254610e7d9190611c4c565b90506000811215610e9357506000949350505050565b949350505050565b505060025490565b610eb085858585856107b3565b505050505050565b6000546001600160a01b0316331480610edb57506001546001600160a01b031633145b610ef75760405162461bcd60e51b815260040161068f90611be2565b60405163a9059cbb60e01b81526001600160a01b0383811660048301526024820183905284169063a9059cbb906044015b602060405180830381600087803b158015610f4257600080fd5b505af1158015610f56573d6000803e3d6000fd5b505050506040513d601f19601f82011682018060405250810190610f7a9190611ae8565b50505050565b336001600160a01b0316306001600160a01b0316638da5cb5b6040518163ffffffff1660e01b8152600401602060405180830381600087803b158015610fc557600080fd5b505af1158015610fd9573d6000803e3d6000fd5b505050506040513d601f19601f82011682018060405250810190610ffd9190611921565b6001600160a01b0316146110235760405162461bcd60e51b815260040161068f90611be2565b60405163095ea7b360e01b81526001600160a01b0383811660048301526024820183905284169063095ea7b390604401610f28565b336001600160a01b0316306001600160a01b0316638da5cb5b6040518163ffffffff1660e01b8152600401602060405180830381600087803b15801561109d57600080fd5b505af11580156110b1573d6000803e3d6000fd5b505050506040513d601f19601f820116820180604052508101906110d59190611921565b6001600160a01b0316146110fb5760405162461bcd60e51b815260040161068f90611be2565b600080546040516001600160a01b03808516939216917f8be0079c531659141344cd1fd0a4f28419497f9722a3daafe3b4186f6b6457e091a3600080546001600160a01b0319166001600160a01b0392909216919091179055565b60006109e0600260075481161490565b336001600160a01b0316306001600160a01b0316638da5cb5b6040518163ffffffff1660e01b8152600401602060405180830381600087803b1580156111ab57600080fd5b505af11580156111bf573d6000803e3d6000fd5b505050506040513d601f19601f820116820180604052508101906111e39190611921565b6001600160a01b0316146112095760405162461bcd60e51b815260040161068f90611be2565b6112168260025542600455565b60035550565b336001600160a01b0316306001600160a01b0316638da5cb5b6040518163ffffffff1660e01b8152600401602060405180830381600087803b15801561126157600080fd5b505af1158015611275573d6000803e3d6000fd5b505050506040513d601f19601f820116820180604052508101906112999190611921565b6001600160a01b0316146112bf5760405162461bcd60e51b815260040161068f90611be2565b600180546001600160a01b0319166001600160a01b0392909216919091179055565b336001600160a01b0316306001600160a01b0316638da5cb5b6040518163ffffffff1660e01b8152600401602060405180830381600087803b15801561132657600080fd5b505af115801561133a573d6000803e3d6000fd5b505050506040513d601f19601f8201168201806040525081019061135e9190611921565b6001600160a01b0316146113845760405162461bcd60e51b815260040161068f90611be2565b60005b85811015610b0c576113fb8787838181106113a4576113a4611dd0565b90506020020160208101906113b991906118fd565b8686848181106113cb576113cb611dd0565b905060200201358585858181106113e4576113e4611dd0565b90506020028101906113f69190611c05565b61178b565b508061140681611d82565b915050611387565b60008161141d5750600061064a565b60035460009061142e600185611d6b565b6114389190611d4c565b6114429085611c8d565b90508260026114518387611c8d565b61145b9190611ca5565b610e939190611d4c565b6000611475600260075481161490565b61147e57600080fd5b600061148985610e05565b60405163a9059cbb60e01b81526001600160a01b038881166004830152602482018390529192507f00000000000000000000000000000000000000000000000000000000000000009182169063a9059cbb90604401602060405180830381600087803b1580156114f857600080fd5b505af115801561150c573d6000803e3d6000fd5b505050506040513d601f19601f820116820180604052508101906115309190611ae8565b5060035461153e9087611d4c565b6002600082825461154f9190611d6b565b90915550506001600160a01b037f0000000000000000000000000000000000000000000000000000000000000000167f424641a08047715d4b70195e1d90818d302683d9f65f41910ca13f5a486d37cc8887876115ab8b611d9d565b7f00000000000000000000000000000000000000000000000000000000000000008860006115d7610b15565b6040516115eb989796959493929190611b79565b60405180910390a25095945050505050565b600080611609856108ae565b905060006116198783878761178b565b9050858110156116dd576001600160a01b037f00000000000000000000000000000000000000000000000000000000000000001663a9059cbb8861165d848a611d6b565b6040516001600160e01b031960e085901b1681526001600160a01b0390921660048301526024820152604401602060405180830381600087803b1580156116a357600080fd5b505af11580156116b7573d6000803e3d6000fd5b505050506040513d601f19601f820116820180604052508101906116db9190611ae8565b505b60405163a9059cbb60e01b81526001600160a01b038881166004830152602482018490527f0000000000000000000000000000000000000000000000000000000000000000169063a9059cbb90604401602060405180830381600087803b15801561174757600080fd5b505af115801561175b573d6000803e3d6000fd5b505050506040513d601f19601f8201168201806040525081019061177f9190611ae8565b50909695505050505050565b600061179b600160075481161490565b6117a457600080fd5b60006117af85610637565b9050600354856117bf9190611d4c565b6002546117cc9190611c8d565b6002556001600160a01b037f0000000000000000000000000000000000000000000000000000000000000000167f424641a08047715d4b70195e1d90818d302683d9f65f41910ca13f5a486d37cc878686897f000000000000000000000000000000000000000000000000000000000000000087600061184a610b15565b60405161185e989796959493929190611b79565b60405180910390a295945050505050565b60008083601f84011261188157600080fd5b50813567ffffffffffffffff81111561189957600080fd5b6020830191508360208260051b85010111156118b457600080fd5b9250929050565b60008083601f8401126118cd57600080fd5b50813567ffffffffffffffff8111156118e557600080fd5b6020830191508360208285010111156118b457600080fd5b60006020828403121561190f57600080fd5b813561191a81611de6565b9392505050565b60006020828403121561193357600080fd5b815161191a81611de6565b60008060006060848603121561195357600080fd5b833561195e81611de6565b9250602084013561196e81611de6565b929592945050506040919091013590565b60008060008060006080868803121561199757600080fd5b85356119a281611de6565b945060208601356119b281611de6565b935060408601359250606086013567ffffffffffffffff8111156119d557600080fd5b6119e1888289016118bb565b969995985093965092949392505050565b60008060008060608587031215611a0857600080fd5b8435611a1381611de6565b935060208501359250604085013567ffffffffffffffff811115611a3657600080fd5b611a42878288016118bb565b95989497509550505050565b60008060008060008060608789031215611a6757600080fd5b863567ffffffffffffffff80821115611a7f57600080fd5b611a8b8a838b0161186f565b90985096506020890135915080821115611aa457600080fd5b611ab08a838b0161186f565b90965094506040890135915080821115611ac957600080fd5b50611ad689828a0161186f565b979a9699509497509295939492505050565b600060208284031215611afa57600080fd5b815161191a81611dfe565b60008060408385031215611b1857600080fd5b8235611b2381611dfe565b91506020830135611b3381611dfe565b809150509250929050565b600060208284031215611b5057600080fd5b5035919050565b60008060408385031215611b6a57600080fd5b50508035926020909101359150565b6001600160a01b03898116825260e0602083018190528201889052600090610100898b828601376000848b018201526040840198909852959095166060820152608081019390935260a083019190915260c0820152601f909301601f1916909201019392505050565b6020808252600990820152683737ba1037bbb732b960b91b604082015260600190565b6000808335601e19843603018112611c1c57600080fd5b83018035915067ffffffffffffffff821115611c3757600080fd5b6020019150368190038213156118b457600080fd5b600080821280156001600160ff1b0384900385131615611c6e57611c6e611dba565b600160ff1b8390038412811615611c8757611c87611dba565b50500190565b60008219821115611ca057611ca0611dba565b500190565b600082611cc257634e487b7160e01b600052601260045260246000fd5b500490565b60006001600160ff1b0381841382841380821686840486111615611ced57611ced611dba565b600160ff1b6000871282811687830589121615611d0c57611d0c611dba565b60008712925087820587128484161615611d2857611d28611dba565b87850587128184161615611d3e57611d3e611dba565b505050929093029392505050565b6000816000190483118215151615611d6657611d66611dba565b500290565b600082821015611d7d57611d7d611dba565b500390565b6000600019821415611d9657611d96611dba565b5060010190565b6000600160ff1b821415611db357611db3611dba565b5060000390565b634e487b7160e01b600052601160045260246000fd5b634e487b7160e01b600052603260045260246000fd5b6001600160a01b0381168114611dfb57600080fd5b50565b8015158114611dfb57600080fdfea26469706673582212200a882c295b8e8a88f5b8feebcdb50962531ca136303c434cece4a1b7f885864264736f6c63430008070033",
    "sourcePath": "c:/Users/luziu/Documents/aktionariat/contracts/src/LicensedBrokerbot.sol",
    "compiler": {
        "name": "solc",
        "version": "0.8.7+commit.e28d00a7"
    },
    "functionHashes": {
        "approve(address,address,uint256)": "e1f21c67",
        "base()": "5001f3b5",
        "buyingEnabled()": "8ed2fe91",
        "driftIncrement()": "c7780ab2",
        "driftStart()": "7ff6c191",
        "getBuyPrice(uint256)": "08d4db14",
        "getLicenseFee(uint256)": "21bea858",
        "getPrice()": "98d5fdca",
        "getPriceAtTime(uint256)": "bf13d438",
        "getSellPrice(uint256)": "ba730e53",
        "getShares(uint256)": "6f7267b7",
        "hasDrift()": "8a07d3d0",
        "increment()": "d09de08a",
        "notifyTrade(address,uint256,bytes)": "9bb8c0fd",
        "notifyTradeAndTransfer(address,uint256,bytes)": "b03a13fe",
        "notifyTrades(address[],uint256[],bytes[])": "fff89745",
        "notifyTradesAndTransfer(address[],uint256[],bytes[])": "91be6ad5",
        "onTokenTransfer(address,address,uint256,bytes)": "d7e06ca8",
        "onTokenTransfer(address,uint256,bytes)": "a4c0ed36",
        "owner()": "8da5cb5b",
        "paymenthub()": "777adcf0",
        "processIncoming(address,address,uint256,bytes)": "69365c52",
        "sellingEnabled()": "f771cb65",
        "setDrift(uint256,int256)": "afaefe9e",
        "setEnabled(bool,bool)": "5c627935",
        "setPaymentHub(address)": "fff4da1f",
        "setPrice(uint256,uint256)": "f7d97577",
        "setSettings(uint256)": "7cd6a7fd",
        "settings()": "e06174e4",
        "timeToDrift()": "84b41fda",
        "token()": "fc0c546a",
        "transferOwnership(address)": "f2fde38b",
        "withdraw(address,address,uint256)": "d9caed12",
        "withdrawEther(uint256)": "3bed33ce"
    },
    "gasEstimates": {
        "creation": {
            "codeDepositCost": "1549200",
            "executionCost": "infinite",
            "totalCost": "infinite"
        },
        "external": {
            "approve(address,address,uint256)": "infinite",
            "base()": "infinite",
            "buyingEnabled()": "2415",
            "driftIncrement()": "2351",
            "driftStart()": "2352",
            "getBuyPrice(uint256)": "infinite",
            "getLicenseFee(uint256)": "332",
            "getPrice()": "11566",
            "getPriceAtTime(uint256)": "11540",
            "getSellPrice(uint256)": "infinite",
            "getShares(uint256)": "infinite",
            "hasDrift()": "2405",
            "increment()": "2373",
            "notifyTrade(address,uint256,bytes)": "infinite",
            "notifyTradeAndTransfer(address,uint256,bytes)": "infinite",
            "notifyTrades(address[],uint256[],bytes[])": "infinite",
            "notifyTradesAndTransfer(address[],uint256[],bytes[])": "infinite",
            "onTokenTransfer(address,address,uint256,bytes)": "infinite",
            "onTokenTransfer(address,uint256,bytes)": "infinite",
            "owner()": "2382",
            "paymenthub()": "2449",
            "processIncoming(address,address,uint256,bytes)": "infinite",
            "sellingEnabled()": "2392",
            "setDrift(uint256,int256)": "infinite",
            "setEnabled(bool,bool)": "infinite",
            "setPaymentHub(address)": "infinite",
            "setPrice(uint256,uint256)": "infinite",
            "setSettings(uint256)": "infinite",
            "settings()": "2351",
            "timeToDrift()": "2374",
            "token()": "infinite",
            "transferOwnership(address)": "infinite",
            "withdraw(address,address,uint256)": "infinite",
            "withdrawEther(uint256)": "infinite"
        },
        "internal": {
            "anchorPrice(uint256)": "infinite",
            "buy(address,uint256,bytes calldata)": "infinite",
            "getPrice(uint256,uint256)": "infinite",
            "hasSetting(uint256)": "infinite",
            "notifyTraded(address,uint256,bytes calldata)": "infinite",
            "sell(address,uint256,bytes calldata)": "infinite"
        }
    }
}