{
    "contractName": "Market",
    "abi": [
        {
            "inputs": [
                {
                    "internalType": "address",
                    "name": "shareToken",
                    "type": "address"
                },
                {
                    "internalType": "uint256",
                    "name": "price_",
                    "type": "uint256"
                },
                {
                    "internalType": "address",
                    "name": "baseCurrency",
                    "type": "address"
                },
                {
                    "internalType": "address",
                    "name": "owner",
                    "type": "address"
                }
            ],
            "stateMutability": "nonpayable",
            "type": "constructor"
        },
        {
            "anonymous": false,
            "inputs": [
                {
                    "indexed": true,
                    "internalType": "address",
                    "name": "previousOwner",
                    "type": "address"
                },
                {
                    "indexed": true,
                    "internalType": "address",
                    "name": "newOwner",
                    "type": "address"
                }
            ],
            "name": "OwnershipTransferred",
            "type": "event"
        },
        {
            "anonymous": false,
            "inputs": [
                {
                    "indexed": true,
                    "internalType": "address",
                    "name": "token",
                    "type": "address"
                },
                {
                    "indexed": false,
                    "internalType": "address",
                    "name": "who",
                    "type": "address"
                },
                {
                    "indexed": false,
                    "internalType": "bytes",
                    "name": "ref",
                    "type": "bytes"
                },
                {
                    "indexed": false,
                    "internalType": "int256",
                    "name": "amount",
                    "type": "int256"
                },
                {
                    "indexed": false,
                    "internalType": "address",
                    "name": "base",
                    "type": "address"
                },
                {
                    "indexed": false,
                    "internalType": "uint256",
                    "name": "totPrice",
                    "type": "uint256"
                },
                {
                    "indexed": false,
                    "internalType": "uint256",
                    "name": "fee",
                    "type": "uint256"
                },
                {
                    "indexed": false,
                    "internalType": "uint256",
                    "name": "newprice",
                    "type": "uint256"
                }
            ],
            "name": "Trade",
            "type": "event"
        },
        {
            "inputs": [],
            "name": "base",
            "outputs": [
                {
                    "internalType": "address",
                    "name": "",
                    "type": "address"
                }
            ],
            "stateMutability": "view",
            "type": "function"
        },
        {
            "inputs": [
                {
                    "internalType": "uint256",
                    "name": "numberOfSharesToBuy",
                    "type": "uint256"
                },
                {
                    "internalType": "bytes",
                    "name": "ref",
                    "type": "bytes"
                }
            ],
            "name": "buy",
            "outputs": [
                {
                    "internalType": "uint256",
                    "name": "",
                    "type": "uint256"
                }
            ],
            "stateMutability": "nonpayable",
            "type": "function"
        },
        {
            "inputs": [
                {
                    "internalType": "address",
                    "name": "recipient",
                    "type": "address"
                },
                {
                    "internalType": "uint256",
                    "name": "numberOfSharesToBuy",
                    "type": "uint256"
                },
                {
                    "internalType": "bytes",
                    "name": "ref",
                    "type": "bytes"
                }
            ],
            "name": "buy",
            "outputs": [
                {
                    "internalType": "uint256",
                    "name": "",
                    "type": "uint256"
                }
            ],
            "stateMutability": "nonpayable",
            "type": "function"
        },
        {
            "inputs": [
                {
                    "internalType": "uint256",
                    "name": "shares",
                    "type": "uint256"
                },
                {
                    "internalType": "bytes",
                    "name": "ref",
                    "type": "bytes"
                }
            ],
            "name": "buyWithEther",
            "outputs": [
                {
                    "internalType": "uint256",
                    "name": "",
                    "type": "uint256"
                }
            ],
            "stateMutability": "payable",
            "type": "function"
        },
        {
            "inputs": [],
            "name": "buyingEnabled",
            "outputs": [
                {
                    "internalType": "bool",
                    "name": "",
                    "type": "bool"
                }
            ],
            "stateMutability": "view",
            "type": "function"
        },
        {
            "inputs": [],
            "name": "copyright",
            "outputs": [
                {
                    "internalType": "address",
                    "name": "",
                    "type": "address"
                }
            ],
            "stateMutability": "view",
            "type": "function"
        },
        {
            "inputs": [],
            "name": "driftIncrement",
            "outputs": [
                {
                    "internalType": "int256",
                    "name": "",
                    "type": "int256"
                }
            ],
            "stateMutability": "view",
            "type": "function"
        },
        {
            "inputs": [],
            "name": "driftStart",
            "outputs": [
                {
                    "internalType": "uint256",
                    "name": "",
                    "type": "uint256"
                }
            ],
            "stateMutability": "view",
            "type": "function"
        },
        {
            "inputs": [
                {
                    "internalType": "uint256",
                    "name": "shares",
                    "type": "uint256"
                }
            ],
            "name": "getBuyPrice",
            "outputs": [
                {
                    "internalType": "uint256",
                    "name": "",
                    "type": "uint256"
                }
            ],
            "stateMutability": "view",
            "type": "function"
        },
        {
            "inputs": [],
            "name": "getPrice",
            "outputs": [
                {
                    "internalType": "uint256",
                    "name": "",
                    "type": "uint256"
                }
            ],
            "stateMutability": "view",
            "type": "function"
        },
        {
            "inputs": [
                {
                    "internalType": "uint256",
                    "name": "timestamp",
                    "type": "uint256"
                }
            ],
            "name": "getPriceAtTime",
            "outputs": [
                {
                    "internalType": "uint256",
                    "name": "",
                    "type": "uint256"
                }
            ],
            "stateMutability": "view",
            "type": "function"
        },
        {
            "inputs": [
                {
                    "internalType": "uint256",
                    "name": "shares",
                    "type": "uint256"
                }
            ],
            "name": "getPriceInEther",
            "outputs": [
                {
                    "internalType": "uint256",
                    "name": "",
                    "type": "uint256"
                }
            ],
            "stateMutability": "view",
            "type": "function"
        },
        {
            "inputs": [
                {
                    "internalType": "uint256",
                    "name": "totalPrice",
                    "type": "uint256"
                }
            ],
            "name": "getSaleFee",
            "outputs": [
                {
                    "internalType": "uint256",
                    "name": "",
                    "type": "uint256"
                }
            ],
            "stateMutability": "view",
            "type": "function"
        },
        {
            "inputs": [
                {
                    "internalType": "uint256",
                    "name": "shares",
                    "type": "uint256"
                }
            ],
            "name": "getSaleProceeds",
            "outputs": [
                {
                    "internalType": "uint256",
                    "name": "",
                    "type": "uint256"
                }
            ],
            "stateMutability": "view",
            "type": "function"
        },
        {
            "inputs": [
                {
                    "internalType": "uint256",
                    "name": "shares",
                    "type": "uint256"
                }
            ],
            "name": "getSellPrice",
            "outputs": [
                {
                    "internalType": "uint256",
                    "name": "",
                    "type": "uint256"
                }
            ],
            "stateMutability": "view",
            "type": "function"
        },
        {
            "inputs": [
                {
                    "internalType": "uint256",
                    "name": "money",
                    "type": "uint256"
                }
            ],
            "name": "getShares",
            "outputs": [
                {
                    "internalType": "uint256",
                    "name": "",
                    "type": "uint256"
                }
            ],
            "stateMutability": "view",
            "type": "function"
        },
        {
            "inputs": [],
            "name": "hasDrift",
            "outputs": [
                {
                    "internalType": "bool",
                    "name": "",
                    "type": "bool"
                }
            ],
            "stateMutability": "view",
            "type": "function"
        },
        {
            "inputs": [],
            "name": "increment",
            "outputs": [
                {
                    "internalType": "uint256",
                    "name": "",
                    "type": "uint256"
                }
            ],
            "stateMutability": "view",
            "type": "function"
        },
        {
            "inputs": [],
            "name": "licenseFeeBps",
            "outputs": [
                {
                    "internalType": "uint8",
                    "name": "",
                    "type": "uint8"
                }
            ],
            "stateMutability": "view",
            "type": "function"
        },
        {
            "inputs": [
                {
                    "internalType": "address",
                    "name": "from",
                    "type": "address"
                },
                {
                    "internalType": "uint256",
                    "name": "amount",
                    "type": "uint256"
                },
                {
                    "internalType": "bytes",
                    "name": "ref",
                    "type": "bytes"
                }
            ],
            "name": "onTokenTransfer",
            "outputs": [
                {
                    "internalType": "bool",
                    "name": "success",
                    "type": "bool"
                }
            ],
            "stateMutability": "nonpayable",
            "type": "function"
        },
        {
            "inputs": [],
            "name": "owner",
            "outputs": [
                {
                    "internalType": "address",
                    "name": "",
                    "type": "address"
                }
            ],
            "stateMutability": "view",
            "type": "function"
        },
        {
            "inputs": [
                {
                    "internalType": "address",
                    "name": "recipient",
                    "type": "address"
                },
                {
                    "internalType": "uint256",
                    "name": "tokens",
                    "type": "uint256"
                },
                {
                    "internalType": "bytes",
                    "name": "ref",
                    "type": "bytes"
                }
            ],
            "name": "sell",
            "outputs": [
                {
                    "internalType": "uint256",
                    "name": "",
                    "type": "uint256"
                }
            ],
            "stateMutability": "nonpayable",
            "type": "function"
        },
        {
            "inputs": [
                {
                    "internalType": "uint256",
                    "name": "tokens",
                    "type": "uint256"
                },
                {
                    "internalType": "bytes",
                    "name": "ref",
                    "type": "bytes"
                }
            ],
            "name": "sell",
            "outputs": [
                {
                    "internalType": "uint256",
                    "name": "",
                    "type": "uint256"
                }
            ],
            "stateMutability": "nonpayable",
            "type": "function"
        },
        {
            "inputs": [],
            "name": "sellingEnabled",
            "outputs": [
                {
                    "internalType": "bool",
                    "name": "",
                    "type": "bool"
                }
            ],
            "stateMutability": "view",
            "type": "function"
        },
        {
            "inputs": [
                {
                    "internalType": "address",
                    "name": "newOwner",
                    "type": "address"
                }
            ],
            "name": "setCopyright",
            "outputs": [],
            "stateMutability": "nonpayable",
            "type": "function"
        },
        {
            "inputs": [
                {
                    "internalType": "uint256",
                    "name": "secondsPerStep",
                    "type": "uint256"
                },
                {
                    "internalType": "int256",
                    "name": "newDriftIncrement",
                    "type": "int256"
                }
            ],
            "name": "setDrift",
            "outputs": [],
            "stateMutability": "nonpayable",
            "type": "function"
        },
        {
            "inputs": [
                {
                    "internalType": "bool",
                    "name": "newBuyingEnabled",
                    "type": "bool"
                },
                {
                    "internalType": "bool",
                    "name": "newSellingEnabled",
                    "type": "bool"
                }
            ],
            "name": "setEnabled",
            "outputs": [],
            "stateMutability": "nonpayable",
            "type": "function"
        },
        {
            "inputs": [
                {
                    "internalType": "uint8",
                    "name": "bps",
                    "type": "uint8"
                }
            ],
            "name": "setLicenseFee",
            "outputs": [],
            "stateMutability": "nonpayable",
            "type": "function"
        },
        {
            "inputs": [
                {
                    "internalType": "uint256",
                    "name": "newPrice",
                    "type": "uint256"
                },
                {
                    "internalType": "uint256",
                    "name": "newIncrement",
                    "type": "uint256"
                }
            ],
            "name": "setPrice",
            "outputs": [],
            "stateMutability": "nonpayable",
            "type": "function"
        },
        {
            "inputs": [],
            "name": "timeToDrift",
            "outputs": [
                {
                    "internalType": "uint256",
                    "name": "",
                    "type": "uint256"
                }
            ],
            "stateMutability": "view",
            "type": "function"
        },
        {
            "inputs": [],
            "name": "token",
            "outputs": [
                {
                    "internalType": "address",
                    "name": "",
                    "type": "address"
                }
            ],
            "stateMutability": "view",
            "type": "function"
        },
        {
            "inputs": [
                {
                    "internalType": "address",
                    "name": "newOwner",
                    "type": "address"
                }
            ],
            "name": "transferOwnership",
            "outputs": [],
            "stateMutability": "nonpayable",
            "type": "function"
        },
        {
            "inputs": [],
            "name": "weth",
            "outputs": [
                {
                    "internalType": "address",
                    "name": "",
                    "type": "address"
                }
            ],
            "stateMutability": "view",
            "type": "function"
        },
        {
            "inputs": [
                {
                    "internalType": "address",
                    "name": "ercAddress",
                    "type": "address"
                },
                {
                    "internalType": "address",
                    "name": "to",
                    "type": "address"
                },
                {
                    "internalType": "uint256",
                    "name": "amount",
                    "type": "uint256"
                }
            ],
            "name": "withdraw",
            "outputs": [],
            "stateMutability": "nonpayable",
            "type": "function"
        }
    ],
    "bytecode": "60806040526009805461ff001960ff19909116600117166101001790553480156200002957600080fd5b5060405162001eb938038062001eb98339810160408190526200004c9162000277565b600080546001600160a01b03191633178082556040516001600160a01b0391909116919060008051602062001e99833981519152908290a3600180546001600160a01b038085166001600160a01b03199283161790925560028054928716929091169190911790556004838155604080516315ab88c960e31b81529051737a250d5630b4cf539739df2c5dacb4c659f2488d9263ad5c464892808201926020929091829003018186803b1580156200010357600080fd5b505afa15801562000118573d6000803e3d6000fd5b505050506040513d601f19601f820116820180604052508101906200013e919062000253565b6009805462010000600160b01b031916620100006001600160a01b03939093169290920291909117905542600655600380547329fe8914e76da5ce2d90de98a64d0055f199d06d6001600160a01b03199091161760ff60a01b1916602d60a11b179055620001ac81620001b6565b50505050620002ed565b6000546001600160a01b03163314620001ec5760405162461bcd60e51b8152600401620001e390620002ca565b60405180910390fd5b600080546040516001600160a01b038085169392169160008051602062001e9983398151915291a3600080546001600160a01b0319166001600160a01b0392909216919091179055565b80516001600160a01b03811681146200024e57600080fd5b919050565b60006020828403121562000265578081fd5b620002708262000236565b9392505050565b600080600080608085870312156200028d578283fd5b620002988562000236565b935060208501519250620002af6040860162000236565b9150620002bf6060860162000236565b905092959194509250565b6020808252600990820152683737ba1037bbb732b960b91b604082015260600190565b611b9c80620002fd6000396000f3fe6080604052600436106101f95760003560e01c8063a63ae9c71161010d578063c7780ab2116100a0578063f2fde38b1161006f578063f2fde38b1461054c578063f496a6101461056c578063f771cb651461058c578063f7d97577146105a1578063fc0c546a146105c1576101f9565b8063c7780ab2146104e2578063d09de08a146104f7578063d9caed121461050c578063e21ae4321461052c576101f9565b8063ba730e53116100dc578063ba730e5314610462578063ba8f1b6914610482578063bf13d438146104a2578063c3b929f7146104c2576101f9565b8063a63ae9c7146103eb578063a6c677f614610400578063ae539d8014610422578063afaefe9e14610442576101f9565b806380aa0df7116101905780638a07d3d01161015f5780638a07d3d01461036a5780638da5cb5b1461038c5780638ed2fe91146103a157806398d5fdca146103b6578063a4c0ed36146103cb576101f9565b806380aa0df7146102f5578063821895511461031557806384b41fda1461033557806388bbbe351461034a576101f9565b80635001f3b5116101cc5780635001f3b5146102895780635c6279351461029e5780636f7267b7146102c05780637ff6c191146102e0576101f9565b806308d4db14146101fe57806319f4d6b7146102345780632535a65a146102545780633fc8cef314610267575b600080fd5b34801561020a57600080fd5b5061021e61021936600461176d565b6105d6565b60405161022b919061192c565b60405180910390f35b34801561024057600080fd5b5061021e61024f366004611602565b6105f1565b61021e610262366004611785565b61061e565b34801561027357600080fd5b5061027c61087b565b60405161022b919061187e565b34801561029557600080fd5b5061027c610890565b3480156102aa57600080fd5b506102be6102b9366004611735565b61089f565b005b3480156102cc57600080fd5b5061021e6102db36600461176d565b6108f5565b3480156102ec57600080fd5b5061021e61096f565b34801561030157600080fd5b506102be6103103660046117f0565b610975565b34801561032157600080fd5b5061021e610330366004611785565b6109bd565b34801561034157600080fd5b5061021e6109e3565b34801561035657600080fd5b5061021e610365366004611785565b6109e9565b34801561037657600080fd5b5061037f610a0c565b60405161022b9190611921565b34801561039857600080fd5b5061027c610a14565b3480156103ad57600080fd5b5061037f610a23565b3480156103c257600080fd5b5061021e610a2c565b3480156103d757600080fd5b5061037f6103e6366004611602565b610a3c565b3480156103f757600080fd5b5061027c610add565b34801561040c57600080fd5b50610415610aec565b60405161022b91906119cf565b34801561042e57600080fd5b5061021e61043d36600461176d565b610afc565b34801561044e57600080fd5b506102be61045d3660046117cf565b610c79565b34801561046e57600080fd5b5061021e61047d36600461176d565b610cbe565b34801561048e57600080fd5b5061021e61049d36600461176d565b610ce3565b3480156104ae57600080fd5b5061021e6104bd36600461176d565b610d0b565b3480156104ce57600080fd5b506102be6104dd3660046115ad565b610d85565b3480156104ee57600080fd5b5061021e610dbe565b34801561050357600080fd5b5061021e610dc4565b34801561051857600080fd5b506102be6105273660046115c7565b610dca565b34801561053857600080fd5b5061021e61054736600461176d565b610e98565b34801561055857600080fd5b506102be6105673660046115ad565b610ec0565b34801561057857600080fd5b5061021e610587366004611602565b610f45565b34801561059857600080fd5b5061037f610f66565b3480156105ad57600080fd5b506102be6105bc3660046117cf565b610f74565b3480156105cd57600080fd5b5061027c610fad565b60006105e96105e3610a2c565b83610fbc565b90505b919050565b600954600090610100900460ff1661060857600080fd5b610615338686868661101d565b95945050505050565b60095460009060ff1661063057600080fd5b600061063b856105d6565b9050600061064886610afc565b6040805160028082526060820183529293506000929091602083019080368337019050509050600960029054906101000a90046001600160a01b0316816000815181106106a557634e487b7160e01b600052603260045260246000fd5b6001600160a01b03928316602091820292909201015260018054835192169183919081106106e357634e487b7160e01b600052603260045260246000fd5b6001600160a01b039092166020928302919091019091015260405163fb3bdb4160e01b8152600090737a250d5630b4cf539739df2c5dacb4c659f2488d9063fb3bdb4190859061073d90889087903090429060040161199a565b6000604051808303818588803b15801561075657600080fd5b505af115801561076a573d6000803e3d6000fd5b50505050506040513d6000823e601f3d908101601f19168201604052610793919081019061165a565b9050806001815181106107b657634e487b7160e01b600052603260045260246000fd5b602002602001015184146107da57634e487b7160e01b600052600160045260246000fd5b61081033338a8460018151811061080157634e487b7160e01b600052603260045260246000fd5b60200260200101518b8b6110c6565b5047156108455760405133904780156108fc02916000818181858888f19350505050158015610843573d6000803e3d6000fd5b505b8060008151811061086657634e487b7160e01b600052603260045260246000fd5b60200260200101519450505050509392505050565b6009546201000090046001600160a01b031681565b6001546001600160a01b031681565b6000546001600160a01b031633146108d25760405162461bcd60e51b81526004016108c99061195e565b60405180910390fd5b6009805460ff19169215159290921761ff00191661010091151591909102179055565b600080610900610a2c565b905060008061090f8386611a36565b90505b8061091e836001611a1e565b101561096757600060026109328385611a1e565b61093c9190611a36565b9050600061094a8583610fbc565b90508681111561095c57819250610960565b8193505b5050610912565b509392505050565b60065481565b6003546001600160a01b0316331461098c57600080fd5b60648160ff16111561099d57600080fd5b6003805460ff909216600160a01b0260ff60a01b19909216919091179055565b60095460009060ff166109cf57600080fd5b6109db33858585610f45565b949350505050565b60075481565b600954600090610100900460ff16610a0057600080fd5b6109db338585856105f1565b600754151590565b6000546001600160a01b031681565b60095460ff1681565b6000610a3742610d0b565b905090565b6002546000906001600160a01b0316331480610a6257506001546001600160a01b031633145b610a6b57600080fd5b6002546001600160a01b0316331415610aa457600954610100900460ff16610a9257600080fd5b610a9e8585858561133a565b50610ad2565b6001546001600160a01b03163314156101f95760095460ff16610ac657600080fd5b610ad285858585611523565b506001949350505050565b6003546001600160a01b031681565b600354600160a01b900460ff1681565b600080610b08836105d6565b6040805160028082526060820183529293506000929091602083019080368337019050509050600960029054906101000a90046001600160a01b031681600081518110610b6557634e487b7160e01b600052603260045260246000fd5b6001600160a01b0392831660209182029290920101526001805483519216918391908110610ba357634e487b7160e01b600052603260045260246000fd5b6001600160a01b03909216602092830291909101909101526040516307c0329d60e21b8152737a250d5630b4cf539739df2c5dacb4c659f2488d90631f00ca7490610bf49085908590600401611981565b60006040518083038186803b158015610c0c57600080fd5b505afa158015610c20573d6000803e3d6000fd5b505050506040513d6000823e601f3d908101601f19168201604052610c48919081019061165a565b600081518110610c6857634e487b7160e01b600052603260045260246000fd5b602002602001015192505050919050565b6000546001600160a01b03163314610ca35760405162461bcd60e51b81526004016108c99061195e565b610cb3610cae610a2c565b611546565b600791909155600855565b60006105e960055483610cd19190611ad9565b610cd9610a2c565b6105e39190611af8565b60035460009061271090610d0190600160a01b900460ff1684611ad9565b6105e99190611a36565b6000610d15610a0c565b15610d7c57600060065483610d2a9190611af8565b9050600060085460075483610d3f9190611a36565b610d499190611a56565b9050600081600454610d5b91906119dd565b90506000811215610d7257600093505050506105ec565b92506105ec915050565b506004546105ec565b6003546001600160a01b03163314610d9c57600080fd5b600380546001600160a01b0319166001600160a01b0392909216919091179055565b60085481565b60055481565b6000546001600160a01b03163314610df45760405162461bcd60e51b81526004016108c99061195e565b60405163a9059cbb60e01b815283906001600160a01b0382169063a9059cbb90610e249086908690600401611908565b602060405180830381600087803b158015610e3e57600080fd5b505af1158015610e52573d6000803e3d6000fd5b505050506040513d601f19601f82011682018060405250810190610e769190611719565b610e925760405162461bcd60e51b81526004016108c990611935565b50505050565b600080610ea483610cbe565b9050610eaf81610ce3565b610eb99082611af8565b9392505050565b6000546001600160a01b03163314610eea5760405162461bcd60e51b81526004016108c99061195e565b600080546040516001600160a01b03808516939216917f8be0079c531659141344cd1fd0a4f28419497f9722a3daafe3b4186f6b6457e091a3600080546001600160a01b0319166001600160a01b0392909216919091179055565b60095460009060ff16610f5757600080fd5b610615338686600087876110c6565b600954610100900460ff1681565b6000546001600160a01b03163314610f9e5760405162461bcd60e51b81526004016108c99061195e565b610fa782611546565b60055550565b6002546001600160a01b031681565b600081610fcb57506000611017565b600554600090610fdc600185611af8565b610fe69190611ad9565b610ff09085611a1e565b9050826002610fff8387611a1e565b6110099190611a36565b6110139190611ad9565b9150505b92915050565b6002546040516323b872dd60e01b81526000916001600160a01b03169081906323b872dd90611054908a9030908a90600401611892565b602060405180830381600087803b15801561106e57600080fd5b505af1158015611082573d6000803e3d6000fd5b505050506040513d601f19601f820116820180604052508101906110a69190611719565b6110af57600080fd5b6110bb8686868661133a565b979650505050505050565b6000806110d2866105d6565b6001549091506001600160a01b031685821115611182576001600160a01b0381166323b872dd8a306111048a87611af8565b6040518463ffffffff1660e01b815260040161112293929190611892565b602060405180830381600087803b15801561113c57600080fd5b505af1158015611150573d6000803e3d6000fd5b505050506040513d601f19601f820116820180604052508101906111749190611719565b61117d57600080fd5b61121c565b8582101561121c576001600160a01b03811663a9059cbb8a6111a4858a611af8565b6040518363ffffffff1660e01b81526004016111c1929190611908565b602060405180830381600087803b1580156111db57600080fd5b505af11580156111ef573d6000803e3d6000fd5b505050506040513d601f19601f820116820180604052508101906112139190611719565b61121c57600080fd5b60025460405163a9059cbb60e01b81526001600160a01b0390911690819063a9059cbb90611250908c908c90600401611908565b602060405180830381600087803b15801561126a57600080fd5b505af115801561127e573d6000803e3d6000fd5b505050506040513d601f19601f820116820180604052508101906112a29190611719565b6112ab57600080fd5b6005546112b89089611ad9565b6004546112c59190611a1e565b6004556002546001546001600160a01b03918216917f424641a08047715d4b70195e1d90818d302683d9f65f41910ca13f5a486d37cc918d918a918a918e9116896000611310610a2c565b6040516113249897969594939291906118b6565b60405180910390a2509098975050505050505050565b60008061134685610cbe565b6001549091506001600160a01b0316600061136083610ce3565b905080156113f75760035460405163a9059cbb60e01b81526001600160a01b038481169263a9059cbb9261139c92909116908590600401611908565b602060405180830381600087803b1580156113b657600080fd5b505af11580156113ca573d6000803e3d6000fd5b505050506040513d601f19601f820116820180604052508101906113ee9190611719565b6113f757600080fd5b6001600160a01b03821663a9059cbb896114118487611af8565b6040518363ffffffff1660e01b815260040161142e929190611908565b602060405180830381600087803b15801561144857600080fd5b505af115801561145c573d6000803e3d6000fd5b505050506040513d601f19601f820116820180604052508101906114809190611719565b61148957600080fd5b6005546114969088611ad9565b600460008282546114a79190611af8565b90915550506002546001600160a01b03167f424641a08047715d4b70195e1d90818d302683d9f65f41910ca13f5a486d37cc8988886114e58c611b0f565b6001546001600160a01b031689886114fb610a2c565b60405161150f9897969594939291906118b6565b60405180910390a250909695505050505050565b600061152e846108f5565b905061153e8586838787876110c6565b505050505050565b60045542600655565b80356001600160a01b03811681146105ec57600080fd5b60008083601f840112611577578182fd5b50813567ffffffffffffffff81111561158e578182fd5b6020830191508360208285010111156115a657600080fd5b9250929050565b6000602082840312156115be578081fd5b610eb98261154f565b6000806000606084860312156115db578182fd5b6115e48461154f565b92506115f26020850161154f565b9150604084013590509250925092565b60008060008060608587031215611617578081fd5b6116208561154f565b935060208501359250604085013567ffffffffffffffff811115611642578182fd5b61164e87828801611566565b95989497509550505050565b6000602080838503121561166c578182fd5b825167ffffffffffffffff80821115611683578384fd5b818501915085601f830112611696578384fd5b8151818111156116a8576116a8611b3f565b838102604051601f19603f830116810181811085821117156116cc576116cc611b3f565b604052828152858101935084860182860187018a10156116ea578788fd5b8795505b8386101561170c5780518552600195909501949386019386016116ee565b5098975050505050505050565b60006020828403121561172a578081fd5b8151610eb981611b55565b60008060408385031215611747578182fd5b823561175281611b55565b9150602083013561176281611b55565b809150509250929050565b60006020828403121561177e578081fd5b5035919050565b600080600060408486031215611799578283fd5b83359250602084013567ffffffffffffffff8111156117b6578283fd5b6117c286828701611566565b9497909650939450505050565b600080604083850312156117e1578182fd5b50508035926020909101359150565b600060208284031215611801578081fd5b813560ff81168114610eb9578182fd5b6000815180845260208085019450808401835b838110156118495781516001600160a01b031687529582019590820190600101611824565b509495945050505050565b60008284528282602086013780602084860101526020601f19601f85011685010190509392505050565b6001600160a01b0391909116815260200190565b6001600160a01b039384168152919092166020820152604081019190915260600190565b600060018060a01b03808b16835260e060208401526118d960e084018a8c611854565b6040840198909852959095166060820152608081019390935260a083019190915260c090910152509392505050565b6001600160a01b03929092168252602082015260400190565b901515815260200190565b90815260200190565b6020808252600f908201526e151c985b9cd9995c8819985a5b1959608a1b604082015260600190565b6020808252600990820152683737ba1037bbb732b960b91b604082015260600190565b6000838252604060208301526109db6040830184611811565b6000858252608060208301526119b36080830186611811565b6001600160a01b03949094166040830152506060015292915050565b60ff91909116815260200190565b600080821280156001600160ff1b03849003851316156119ff576119ff611b29565b600160ff1b8390038412811615611a1857611a18611b29565b50500190565b60008219821115611a3157611a31611b29565b500190565b600082611a5157634e487b7160e01b81526012600452602481fd5b500490565b60006001600160ff1b0381841382841380821686840486111615611a7c57611a7c611b29565b600160ff1b84871282811687830589121615611a9a57611a9a611b29565b858712925087820587128484161615611ab557611ab5611b29565b87850587128184161615611acb57611acb611b29565b505050929093029392505050565b6000816000190483118215151615611af357611af3611b29565b500290565b600082821015611b0a57611b0a611b29565b500390565b6000600160ff1b821415611b2557611b25611b29565b0390565b634e487b7160e01b600052601160045260246000fd5b634e487b7160e01b600052604160045260246000fd5b8015158114611b6357600080fd5b5056fea264697066735822122034dd8e05ca6e196040afb683bcf7adb78f37c1c2de13f7add9cb32e41ecaa0e264736f6c634300080100338be0079c531659141344cd1fd0a4f28419497f9722a3daafe3b4186f6b6457e0",
    "sourcePath": "c:/Users/luziu/Documents/aktionariat/contracts/src/Market.sol",
    "compiler": {
        "name": "solc",
        "version": "0.8.1+commit.df193b15"
    },
    "functionHashes": {
        "base()": "5001f3b5",
        "buy(address,uint256,bytes)": "f496a610",
        "buy(uint256,bytes)": "82189551",
        "buyWithEther(uint256,bytes)": "2535a65a",
        "buyingEnabled()": "8ed2fe91",
        "copyright()": "a63ae9c7",
        "driftIncrement()": "c7780ab2",
        "driftStart()": "7ff6c191",
        "getBuyPrice(uint256)": "08d4db14",
        "getPrice()": "98d5fdca",
        "getPriceAtTime(uint256)": "bf13d438",
        "getPriceInEther(uint256)": "ae539d80",
        "getSaleFee(uint256)": "ba8f1b69",
        "getSaleProceeds(uint256)": "e21ae432",
        "getSellPrice(uint256)": "ba730e53",
        "getShares(uint256)": "6f7267b7",
        "hasDrift()": "8a07d3d0",
        "increment()": "d09de08a",
        "licenseFeeBps()": "a6c677f6",
        "onTokenTransfer(address,uint256,bytes)": "a4c0ed36",
        "owner()": "8da5cb5b",
        "sell(address,uint256,bytes)": "19f4d6b7",
        "sell(uint256,bytes)": "88bbbe35",
        "sellingEnabled()": "f771cb65",
        "setCopyright(address)": "c3b929f7",
        "setDrift(uint256,int256)": "afaefe9e",
        "setEnabled(bool,bool)": "5c627935",
        "setLicenseFee(uint8)": "80aa0df7",
        "setPrice(uint256,uint256)": "f7d97577",
        "timeToDrift()": "84b41fda",
        "token()": "fc0c546a",
        "transferOwnership(address)": "f2fde38b",
        "weth()": "3fc8cef3",
        "withdraw(address,address,uint256)": "d9caed12"
    },
    "gasEstimates": {
        "creation": {
            "codeDepositCost": "1413600",
            "executionCost": "infinite",
            "totalCost": "infinite"
        },
        "external": {
            "base()": "1116",
            "buy(address,uint256,bytes)": "infinite",
            "buy(uint256,bytes)": "infinite",
            "buyWithEther(uint256,bytes)": "infinite",
            "buyingEnabled()": "1129",
            "copyright()": "1116",
            "driftIncrement()": "1073",
            "driftStart()": "1140",
            "getBuyPrice(uint256)": "infinite",
            "getPrice()": "5125",
            "getPriceAtTime(uint256)": "5143",
            "getPriceInEther(uint256)": "infinite",
            "getSaleFee(uint256)": "1370",
            "getSaleProceeds(uint256)": "infinite",
            "getSellPrice(uint256)": "infinite",
            "getShares(uint256)": "infinite",
            "hasDrift()": "1085",
            "increment()": "1095",
            "licenseFeeBps()": "1131",
            "onTokenTransfer(address,uint256,bytes)": "infinite",
            "owner()": "1137",
            "sell(address,uint256,bytes)": "infinite",
            "sell(uint256,bytes)": "infinite",
            "sellingEnabled()": "1139",
            "setCopyright(address)": "22122",
            "setDrift(uint256,int256)": "71059",
            "setEnabled(bool,bool)": "infinite",
            "setLicenseFee(uint8)": "22041",
            "setPrice(uint256,uint256)": "61234",
            "timeToDrift()": "1118",
            "token()": "1202",
            "transferOwnership(address)": "24409",
            "weth()": "1194",
            "withdraw(address,address,uint256)": "infinite"
        },
        "internal": {
            "_buy(address,address,uint256,uint256,bytes calldata)": "infinite",
            "_notifyMoneyReceived(address,uint256,bytes calldata)": "infinite",
            "_notifyTokensReceived(address,uint256,bytes calldata)": "infinite",
            "_sell(address,address,uint256,bytes calldata)": "infinite",
            "anchorPrice(uint256)": "40017",
            "getPrice(uint256,uint256)": "infinite"
        }
    }
}