{
    "contractName": "Market",
    "abi": [
        {
            "inputs": [
                {
                    "internalType": "address",
                    "name": "shareToken",
                    "type": "address"
                },
                {
                    "internalType": "uint256",
                    "name": "price_",
                    "type": "uint256"
                },
                {
                    "internalType": "uint256",
                    "name": "increment_",
                    "type": "uint256"
                },
                {
                    "internalType": "address",
                    "name": "baseCurrency",
                    "type": "address"
                },
                {
                    "internalType": "address",
                    "name": "owner",
                    "type": "address"
                }
            ],
            "stateMutability": "nonpayable",
            "type": "constructor"
        },
        {
            "anonymous": false,
            "inputs": [
                {
                    "indexed": true,
                    "internalType": "address",
                    "name": "previousOwner",
                    "type": "address"
                },
                {
                    "indexed": true,
                    "internalType": "address",
                    "name": "newOwner",
                    "type": "address"
                }
            ],
            "name": "OwnershipTransferred",
            "type": "event"
        },
        {
            "anonymous": false,
            "inputs": [
                {
                    "indexed": true,
                    "internalType": "address",
                    "name": "token",
                    "type": "address"
                },
                {
                    "indexed": false,
                    "internalType": "address",
                    "name": "who",
                    "type": "address"
                },
                {
                    "indexed": false,
                    "internalType": "bytes",
                    "name": "ref",
                    "type": "bytes"
                },
                {
                    "indexed": false,
                    "internalType": "int256",
                    "name": "amount",
                    "type": "int256"
                },
                {
                    "indexed": false,
                    "internalType": "address",
                    "name": "base",
                    "type": "address"
                },
                {
                    "indexed": false,
                    "internalType": "uint256",
                    "name": "totPrice",
                    "type": "uint256"
                },
                {
                    "indexed": false,
                    "internalType": "uint256",
                    "name": "fee",
                    "type": "uint256"
                },
                {
                    "indexed": false,
                    "internalType": "uint256",
                    "name": "newprice",
                    "type": "uint256"
                }
            ],
            "name": "Trade",
            "type": "event"
        },
        {
            "inputs": [
                {
                    "internalType": "address",
                    "name": "buyer",
                    "type": "address"
                },
                {
                    "internalType": "uint256",
                    "name": "shares",
                    "type": "uint256"
                },
                {
                    "internalType": "bytes",
                    "name": "ref",
                    "type": "bytes"
                }
            ],
            "name": "allocateFromExternalPayment",
            "outputs": [],
            "stateMutability": "nonpayable",
            "type": "function"
        },
        {
            "inputs": [
                {
                    "internalType": "address[]",
                    "name": "buyers",
                    "type": "address[]"
                },
                {
                    "internalType": "uint256[]",
                    "name": "shares",
                    "type": "uint256[]"
                },
                {
                    "internalType": "bytes[]",
                    "name": "ref",
                    "type": "bytes[]"
                }
            ],
            "name": "allocateFromExternalPayments",
            "outputs": [],
            "stateMutability": "nonpayable",
            "type": "function"
        },
        {
            "inputs": [
                {
                    "internalType": "address",
                    "name": "erc20",
                    "type": "address"
                },
                {
                    "internalType": "address",
                    "name": "who",
                    "type": "address"
                },
                {
                    "internalType": "uint256",
                    "name": "amount",
                    "type": "uint256"
                }
            ],
            "name": "approve",
            "outputs": [],
            "stateMutability": "nonpayable",
            "type": "function"
        },
        {
            "inputs": [],
            "name": "base",
            "outputs": [
                {
                    "internalType": "address",
                    "name": "",
                    "type": "address"
                }
            ],
            "stateMutability": "view",
            "type": "function"
        },
        {
            "inputs": [],
            "name": "buyingEnabled",
            "outputs": [
                {
                    "internalType": "bool",
                    "name": "",
                    "type": "bool"
                }
            ],
            "stateMutability": "view",
            "type": "function"
        },
        {
            "inputs": [],
            "name": "copyright",
            "outputs": [
                {
                    "internalType": "address",
                    "name": "",
                    "type": "address"
                }
            ],
            "stateMutability": "view",
            "type": "function"
        },
        {
            "inputs": [],
            "name": "driftIncrement",
            "outputs": [
                {
                    "internalType": "int256",
                    "name": "",
                    "type": "int256"
                }
            ],
            "stateMutability": "view",
            "type": "function"
        },
        {
            "inputs": [],
            "name": "driftStart",
            "outputs": [
                {
                    "internalType": "uint256",
                    "name": "",
                    "type": "uint256"
                }
            ],
            "stateMutability": "view",
            "type": "function"
        },
        {
            "inputs": [
                {
                    "internalType": "uint256",
                    "name": "shares",
                    "type": "uint256"
                }
            ],
            "name": "getBuyPrice",
            "outputs": [
                {
                    "internalType": "uint256",
                    "name": "",
                    "type": "uint256"
                }
            ],
            "stateMutability": "view",
            "type": "function"
        },
        {
            "inputs": [
                {
                    "internalType": "uint256",
                    "name": "totPrice",
                    "type": "uint256"
                }
            ],
            "name": "getLicenseFee",
            "outputs": [
                {
                    "internalType": "uint256",
                    "name": "",
                    "type": "uint256"
                }
            ],
            "stateMutability": "view",
            "type": "function"
        },
        {
            "inputs": [],
            "name": "getPrice",
            "outputs": [
                {
                    "internalType": "uint256",
                    "name": "",
                    "type": "uint256"
                }
            ],
            "stateMutability": "view",
            "type": "function"
        },
        {
            "inputs": [
                {
                    "internalType": "uint256",
                    "name": "timestamp",
                    "type": "uint256"
                }
            ],
            "name": "getPriceAtTime",
            "outputs": [
                {
                    "internalType": "uint256",
                    "name": "",
                    "type": "uint256"
                }
            ],
            "stateMutability": "view",
            "type": "function"
        },
        {
            "inputs": [
                {
                    "internalType": "uint256",
                    "name": "shares",
                    "type": "uint256"
                }
            ],
            "name": "getSellPrice",
            "outputs": [
                {
                    "internalType": "uint256",
                    "name": "",
                    "type": "uint256"
                }
            ],
            "stateMutability": "view",
            "type": "function"
        },
        {
            "inputs": [
                {
                    "internalType": "uint256",
                    "name": "money",
                    "type": "uint256"
                }
            ],
            "name": "getShares",
            "outputs": [
                {
                    "internalType": "uint256",
                    "name": "",
                    "type": "uint256"
                }
            ],
            "stateMutability": "view",
            "type": "function"
        },
        {
            "inputs": [],
            "name": "hasDrift",
            "outputs": [
                {
                    "internalType": "bool",
                    "name": "",
                    "type": "bool"
                }
            ],
            "stateMutability": "view",
            "type": "function"
        },
        {
            "inputs": [],
            "name": "increment",
            "outputs": [
                {
                    "internalType": "uint256",
                    "name": "",
                    "type": "uint256"
                }
            ],
            "stateMutability": "view",
            "type": "function"
        },
        {
            "inputs": [
                {
                    "internalType": "address",
                    "name": "from",
                    "type": "address"
                },
                {
                    "internalType": "uint256",
                    "name": "amount",
                    "type": "uint256"
                },
                {
                    "internalType": "bytes",
                    "name": "ref",
                    "type": "bytes"
                }
            ],
            "name": "onTokenTransfer",
            "outputs": [
                {
                    "internalType": "bool",
                    "name": "",
                    "type": "bool"
                }
            ],
            "stateMutability": "nonpayable",
            "type": "function"
        },
        {
            "inputs": [
                {
                    "internalType": "address",
                    "name": "token_",
                    "type": "address"
                },
                {
                    "internalType": "address",
                    "name": "from",
                    "type": "address"
                },
                {
                    "internalType": "uint256",
                    "name": "amount",
                    "type": "uint256"
                },
                {
                    "internalType": "bytes",
                    "name": "ref",
                    "type": "bytes"
                }
            ],
            "name": "onTokenTransfer",
            "outputs": [],
            "stateMutability": "nonpayable",
            "type": "function"
        },
        {
            "inputs": [],
            "name": "owner",
            "outputs": [
                {
                    "internalType": "address",
                    "name": "",
                    "type": "address"
                }
            ],
            "stateMutability": "view",
            "type": "function"
        },
        {
            "inputs": [],
            "name": "paymenthub",
            "outputs": [
                {
                    "internalType": "address",
                    "name": "",
                    "type": "address"
                }
            ],
            "stateMutability": "view",
            "type": "function"
        },
        {
            "inputs": [
                {
                    "internalType": "address",
                    "name": "token_",
                    "type": "address"
                },
                {
                    "internalType": "address",
                    "name": "from",
                    "type": "address"
                },
                {
                    "internalType": "uint256",
                    "name": "amount",
                    "type": "uint256"
                },
                {
                    "internalType": "bytes",
                    "name": "ref",
                    "type": "bytes"
                }
            ],
            "name": "processIncoming",
            "outputs": [
                {
                    "internalType": "uint256",
                    "name": "",
                    "type": "uint256"
                }
            ],
            "stateMutability": "payable",
            "type": "function"
        },
        {
            "inputs": [],
            "name": "sellingEnabled",
            "outputs": [
                {
                    "internalType": "bool",
                    "name": "",
                    "type": "bool"
                }
            ],
            "stateMutability": "view",
            "type": "function"
        },
        {
            "inputs": [
                {
                    "internalType": "uint256",
                    "name": "secondsPerStep",
                    "type": "uint256"
                },
                {
                    "internalType": "int256",
                    "name": "newDriftIncrement",
                    "type": "int256"
                }
            ],
            "name": "setDrift",
            "outputs": [],
            "stateMutability": "nonpayable",
            "type": "function"
        },
        {
            "inputs": [
                {
                    "internalType": "bool",
                    "name": "newBuyingEnabled",
                    "type": "bool"
                },
                {
                    "internalType": "bool",
                    "name": "newSellingEnabled",
                    "type": "bool"
                }
            ],
            "name": "setEnabled",
            "outputs": [],
            "stateMutability": "nonpayable",
            "type": "function"
        },
        {
            "inputs": [
                {
                    "internalType": "uint8",
                    "name": "bps",
                    "type": "uint8"
                }
            ],
            "name": "setLicenseFee",
            "outputs": [],
            "stateMutability": "nonpayable",
            "type": "function"
        },
        {
            "inputs": [
                {
                    "internalType": "address",
                    "name": "hub",
                    "type": "address"
                }
            ],
            "name": "setPaymentHub",
            "outputs": [],
            "stateMutability": "nonpayable",
            "type": "function"
        },
        {
            "inputs": [
                {
                    "internalType": "uint256",
                    "name": "newPrice",
                    "type": "uint256"
                },
                {
                    "internalType": "uint256",
                    "name": "newIncrement",
                    "type": "uint256"
                }
            ],
            "name": "setPrice",
            "outputs": [],
            "stateMutability": "nonpayable",
            "type": "function"
        },
        {
            "inputs": [
                {
                    "internalType": "uint256",
                    "name": "settings_",
                    "type": "uint256"
                }
            ],
            "name": "setSettings",
            "outputs": [],
            "stateMutability": "nonpayable",
            "type": "function"
        },
        {
            "inputs": [],
            "name": "settings",
            "outputs": [
                {
                    "internalType": "uint256",
                    "name": "",
                    "type": "uint256"
                }
            ],
            "stateMutability": "view",
            "type": "function"
        },
        {
            "inputs": [],
            "name": "timeToDrift",
            "outputs": [
                {
                    "internalType": "uint256",
                    "name": "",
                    "type": "uint256"
                }
            ],
            "stateMutability": "view",
            "type": "function"
        },
        {
            "inputs": [],
            "name": "token",
            "outputs": [
                {
                    "internalType": "address",
                    "name": "",
                    "type": "address"
                }
            ],
            "stateMutability": "view",
            "type": "function"
        },
        {
            "inputs": [
                {
                    "internalType": "address",
                    "name": "newOwner",
                    "type": "address"
                }
            ],
            "name": "transferOwnership",
            "outputs": [],
            "stateMutability": "nonpayable",
            "type": "function"
        },
        {
            "inputs": [
                {
                    "internalType": "address",
                    "name": "ercAddress",
                    "type": "address"
                },
                {
                    "internalType": "address",
                    "name": "to",
                    "type": "address"
                },
                {
                    "internalType": "uint256",
                    "name": "amount",
                    "type": "uint256"
                }
            ],
            "name": "withdraw",
            "outputs": [],
            "stateMutability": "nonpayable",
            "type": "function"
        },
        {
            "inputs": [
                {
                    "internalType": "uint256",
                    "name": "amount",
                    "type": "uint256"
                }
            ],
            "name": "withdrawEther",
            "outputs": [],
            "stateMutability": "nonpayable",
            "type": "function"
        }
    ],
    "bytecode": "60c060405260036008553480156200001657600080fd5b5060405162001b4138038062001b41833981016040819052620000399162000170565b600080546001600160a01b03191633908117825560405190919060008051602062001b21833981519152908290a36001600160601b0319606083811b821660805286901b1660a05260028490556003839055600180546001600160a01b03191690556007805460ff1916605a179055620000b381620000be565b5050505050620001cd565b6000546001600160a01b03163314620001095760405162461bcd60e51b81526020600482015260096024820152683737ba1037bbb732b960b91b604482015260640160405180910390fd5b600080546040516001600160a01b038085169392169160008051602062001b2183398151915291a3600080546001600160a01b0319166001600160a01b0392909216919091179055565b80516001600160a01b03811681146200016b57600080fd5b919050565b600080600080600060a0868803121562000188578081fd5b620001938662000153565b94506020860151935060408601519250620001b16060870162000153565b9150620001c16080870162000153565b90509295509295909350565b60805160601c60a05160601c6118e26200023f600039600081816105fc015281816108aa01528181610eab01528181610f51015261119d0152600081816102a501528181610868015281816108f701528181610f980152818161100f015281816111ec015261126d01526118e26000f3fe6080604052600436106101f95760003560e01c806398d5fdca1161010d578063d7e06ca8116100a0578063f2fde38b1161006f578063f2fde38b14610595578063f771cb65146105b5578063f7d97577146105ca578063fc0c546a146105ea578063fff4da1f1461061e57600080fd5b8063d7e06ca81461051f578063d9caed121461053f578063e06174e41461055f578063e1f21c671461057557600080fd5b8063ba730e53116100dc578063ba730e53146104b3578063bf13d438146104d3578063c7780ab2146104f3578063d09de08a1461050957600080fd5b806398d5fdca14610436578063a4c0ed361461044b578063a63ae9c71461046b578063afaefe9e1461049357600080fd5b806376673ffd1161019057806380aa0df71161015f57806380aa0df7146103a857806384b41fda146103c85780638a07d3d0146103de5780638da5cb5b146104015780638ed2fe911461042157600080fd5b806376673ffd14610332578063777adcf0146103525780637cd6a7fd146103725780637ff6c1911461039257600080fd5b80635001f3b5116101cc5780635001f3b5146102935780635c627935146102df57806369365c52146102ff5780636f7267b71461031257600080fd5b806308d4db14146101fe57806321bea858146102315780633bed33ce146102515780634dd18dc114610273575b600080fd5b34801561020a57600080fd5b5061021e6102193660046115e1565b61063e565b6040519081526020015b60405180910390f35b34801561023d57600080fd5b5061021e61024c3660046115e1565b610657565b34801561025d57600080fd5b5061027161026c3660046115e1565b610678565b005b34801561027f57600080fd5b5061027161028e3660046114f7565b6106f1565b34801561029f57600080fd5b506102c77f000000000000000000000000000000000000000000000000000000000000000081565b6040516001600160a01b039091168152602001610228565b3480156102eb57600080fd5b506102716102fa3660046115a9565b6107d8565b61021e61030d366004611432565b610849565b34801561031e57600080fd5b5061021e61032d3660046115e1565b610944565b34801561033e57600080fd5b5061027161034d36600461149f565b6109be565b34801561035e57600080fd5b506001546102c7906001600160a01b031681565b34801561037e57600080fd5b5061027161038d3660046115e1565b6109fb565b34801561039e57600080fd5b5061021e60045481565b3480156103b457600080fd5b506102716103c336600461161a565b610a2a565b3480156103d457600080fd5b5061021e60055481565b3480156103ea57600080fd5b5060055415155b6040519015158152602001610228565b34801561040d57600080fd5b506000546102c7906001600160a01b031681565b34801561042d57600080fd5b506103f1610a71565b34801561044257600080fd5b5061021e610a86565b34801561045757600080fd5b506103f161046636600461149f565b610a91565b34801561047757600080fd5b506102c77329fe8914e76da5ce2d90de98a64d0055f199d06d81565b34801561049f57600080fd5b506102716104ae3660046115f9565b610aac565b3480156104bf57600080fd5b5061021e6104ce3660046115e1565b610af5565b3480156104df57600080fd5b5061021e6104ee3660046115e1565b610b1a565b3480156104ff57600080fd5b5061021e60065481565b34801561051557600080fd5b5061021e60035481565b34801561052b57600080fd5b5061027161053a366004611432565b610b98565b34801561054b57600080fd5b5061027161055a3660046113f7565b610bad565b34801561056b57600080fd5b5061021e60085481565b34801561058157600080fd5b506102716105903660046113f7565b610c75565b3480156105a157600080fd5b506102716105b03660046113d6565b610cd4565b3480156105c157600080fd5b506103f1610d59565b3480156105d657600080fd5b506102716105e53660046115f9565b610d69565b3480156105f657600080fd5b506102c77f000000000000000000000000000000000000000000000000000000000000000081565b34801561062a57600080fd5b506102716106393660046113d6565b610da6565b600061065161064b610a86565b83610e07565b92915050565b6007546000906127109061066e9060ff168461181a565b6106519190611777565b6000546001600160a01b031633148061069b57506001546001600160a01b031633145b6106c05760405162461bcd60e51b81526004016106b7906116b6565b60405180910390fd5b604051339082156108fc029083906000818181858888f193505050501580156106ed573d6000803e3d6000fd5b5050565b6000546001600160a01b0316331461071b5760405162461bcd60e51b81526004016106b7906116b6565b60005b858110156107cf576107bc87878381811061074957634e487b7160e01b600052603260045260246000fd5b905060200201602081019061075e91906113d6565b86868481811061077e57634e487b7160e01b600052603260045260246000fd5b905060200201358585858181106107a557634e487b7160e01b600052603260045260246000fd5b90506020028101906107b791906116d9565b610e5e565b50806107c781611850565b91505061071e565b50505050505050565b6000546001600160a01b031633146108025760405162461bcd60e51b81526004016106b7906116b6565b610810600160085481161490565b151582151514610824576008805460011890555b610832600260085481161490565b1515811515146106ed576008805460021890555050565b6000336001600160a01b038716148061088a5750336001600160a01b037f000000000000000000000000000000000000000000000000000000000000000016145b8061089f57506001546001600160a01b031633145b6108a857600080fd5b7f00000000000000000000000000000000000000000000000000000000000000006001600160a01b0316866001600160a01b031614156108f5576108ee85858585610fe7565b905061093b565b7f00000000000000000000000000000000000000000000000000000000000000006001600160a01b0316866001600160a01b031614156101f9576108ee8585858561123d565b95945050505050565b60008061094f610a86565b905060008061095e8386611777565b90505b808210156109b65760006002610977838561175f565b6109819190611777565b9050600061098f8583610e07565b9050808711156109ab576109a482600161175f565b93506109af565b8192505b5050610961565b509392505050565b6000546001600160a01b031633146109e85760405162461bcd60e51b81526004016106b7906116b6565b6109f484848484610e5e565b5050505050565b6000546001600160a01b03163314610a255760405162461bcd60e51b81526004016106b7906116b6565b600855565b337329fe8914e76da5ce2d90de98a64d0055f199d06d14610a4a57600080fd5b60648160ff161115610a5b57600080fd5b6007805460ff191660ff92909216919091179055565b6000610a81600160085481161490565b905090565b6000610a8142610b1a565b6000610aa03386868686610849565b50600195945050505050565b6000546001600160a01b03163314610ad65760405162461bcd60e51b81526004016106b7906116b6565b610aea610ae1610a86565b60025542600455565b600591909155600655565b600061065160035483610b08919061181a565b610b10610a86565b61064b9190611839565b6000610b27600554151590565b15610b8b57600060045483610b3c9190611839565b9050600060065460055483610b519190611777565b610b5b9190611797565b9050600081600254610b6d919061171e565b90506000811215610b8357506000949350505050565b949350505050565b505060025490565b919050565b610ba58585858585610849565b505050505050565b6000546001600160a01b0316331480610bd057506001546001600160a01b031633145b610bec5760405162461bcd60e51b81526004016106b7906116b6565b60405163a9059cbb60e01b81526001600160a01b0383811660048301526024820183905284169063a9059cbb906044015b602060405180830381600087803b158015610c3757600080fd5b505af1158015610c4b573d6000803e3d6000fd5b505050506040513d601f19601f82011682018060405250810190610c6f919061158d565b50505050565b6000546001600160a01b03163314610c9f5760405162461bcd60e51b81526004016106b7906116b6565b60405163095ea7b360e01b81526001600160a01b0383811660048301526024820183905284169063095ea7b390604401610c1d565b6000546001600160a01b03163314610cfe5760405162461bcd60e51b81526004016106b7906116b6565b600080546040516001600160a01b03808516939216917f8be0079c531659141344cd1fd0a4f28419497f9722a3daafe3b4186f6b6457e091a3600080546001600160a01b0319166001600160a01b0392909216919091179055565b6000610a81600260085481161490565b6000546001600160a01b03163314610d935760405162461bcd60e51b81526004016106b7906116b6565b610da08260025542600455565b60035550565b6000546001600160a01b0316331480610dc957506001546001600160a01b031633145b610de55760405162461bcd60e51b81526004016106b7906116b6565b600180546001600160a01b0319166001600160a01b0392909216919091179055565b600081610e1657506000610651565b600354600090610e27600185611839565b610e31919061181a565b610e3b908561175f565b9050826002610e4a838761175f565b610e549190611777565b610b83919061181a565b6000610e6e600160085481161490565b610e7757600080fd5b6000610e828561063e565b60405163a9059cbb60e01b81526001600160a01b038881166004830152602482018890529192507f00000000000000000000000000000000000000000000000000000000000000009091169063a9059cbb90604401602060405180830381600087803b158015610ef157600080fd5b505af1158015610f05573d6000803e3d6000fd5b505050506040513d601f19601f82011682018060405250810190610f29919061158d565b50600354610f37908661181a565b600254610f44919061175f565b6002556001600160a01b037f0000000000000000000000000000000000000000000000000000000000000000167f424641a08047715d4b70195e1d90818d302683d9f65f41910ca13f5a486d37cc878686897f0000000000000000000000000000000000000000000000000000000000000000876000610fc2610a86565b604051610fd6989796959493929190611664565b60405180910390a295945050505050565b6000610ff7600260085481161490565b61100057600080fd5b600061100b85610af5565b90507f0000000000000000000000000000000000000000000000000000000000000000600061103983610657565b905080156110d75760405163a9059cbb60e01b81527329fe8914e76da5ce2d90de98a64d0055f199d06d6004820152602481018290526001600160a01b0383169063a9059cbb90604401602060405180830381600087803b15801561109d57600080fd5b505af11580156110b1573d6000803e3d6000fd5b505050506040513d601f19601f820116820180604052508101906110d5919061158d565b505b6001600160a01b03821663a9059cbb896110f18487611839565b6040516001600160e01b031960e085901b1681526001600160a01b0390921660048301526024820152604401602060405180830381600087803b15801561113757600080fd5b505af115801561114b573d6000803e3d6000fd5b505050506040513d601f19601f8201168201806040525081019061116f919061158d565b5060035461117d908861181a565b6002600082825461118e9190611839565b90915550506001600160a01b037f0000000000000000000000000000000000000000000000000000000000000000167f424641a08047715d4b70195e1d90818d302683d9f65f41910ca13f5a486d37cc8988886111ea8c61186b565b7f00000000000000000000000000000000000000000000000000000000000000008988611215610a86565b604051611229989796959493929190611664565b60405180910390a250909695505050505050565b60008061124985610944565b9050600061125987838787610e5e565b90508581101561131d576001600160a01b037f00000000000000000000000000000000000000000000000000000000000000001663a9059cbb8861129d848a611839565b6040516001600160e01b031960e085901b1681526001600160a01b0390921660048301526024820152604401602060405180830381600087803b1580156112e357600080fd5b505af11580156112f7573d6000803e3d6000fd5b505050506040513d601f19601f8201168201806040525081019061131b919061158d565b505b61132987838787610e5e565b50909695505050505050565b80356001600160a01b0381168114610b9357600080fd5b60008083601f84011261135d578182fd5b50813567ffffffffffffffff811115611374578182fd5b6020830191508360208260051b850101111561138f57600080fd5b9250929050565b60008083601f8401126113a7578182fd5b50813567ffffffffffffffff8111156113be578182fd5b60208301915083602082850101111561138f57600080fd5b6000602082840312156113e7578081fd5b6113f082611335565b9392505050565b60008060006060848603121561140b578182fd5b61141484611335565b925061142260208501611335565b9150604084013590509250925092565b600080600080600060808688031215611449578081fd5b61145286611335565b945061146060208701611335565b935060408601359250606086013567ffffffffffffffff811115611482578182fd5b61148e88828901611396565b969995985093965092949392505050565b600080600080606085870312156114b4578384fd5b6114bd85611335565b935060208501359250604085013567ffffffffffffffff8111156114df578283fd5b6114eb87828801611396565b95989497509550505050565b6000806000806000806060878903121561150f578081fd5b863567ffffffffffffffff80821115611526578283fd5b6115328a838b0161134c565b9098509650602089013591508082111561154a578283fd5b6115568a838b0161134c565b9096509450604089013591508082111561156e578283fd5b5061157b89828a0161134c565b979a9699509497509295939492505050565b60006020828403121561159e578081fd5b81516113f08161189b565b600080604083850312156115bb578182fd5b82356115c68161189b565b915060208301356115d68161189b565b809150509250929050565b6000602082840312156115f2578081fd5b5035919050565b6000806040838503121561160b578182fd5b50508035926020909101359150565b60006020828403121561162b578081fd5b813560ff811681146113f0578182fd5b81835281816020850137506000828201602090810191909152601f909101601f19169091010190565b600060018060a01b03808b16835260e0602084015261168760e084018a8c61163b565b6040840198909852959095166060820152608081019390935260a083019190915260c090910152509392505050565b6020808252600990820152683737ba1037bbb732b960b91b604082015260600190565b6000808335601e198436030181126116ef578283fd5b83018035915067ffffffffffffffff821115611709578283fd5b60200191503681900382131561138f57600080fd5b600080821280156001600160ff1b038490038513161561174057611740611885565b600160ff1b839003841281161561175957611759611885565b50500190565b6000821982111561177257611772611885565b500190565b60008261179257634e487b7160e01b81526012600452602481fd5b500490565b60006001600160ff1b03818413828413808216868404861116156117bd576117bd611885565b600160ff1b848712828116878305891216156117db576117db611885565b8587129250878205871284841616156117f6576117f6611885565b8785058712818416161561180c5761180c611885565b505050929093029392505050565b600081600019048311821515161561183457611834611885565b500290565b60008282101561184b5761184b611885565b500390565b600060001982141561186457611864611885565b5060010190565b6000600160ff1b82141561188157611881611885565b0390565b634e487b7160e01b600052601160045260246000fd5b80151581146118a957600080fd5b5056fea2646970667358221220a9641cb194f6b560bfef1cce3bf80e673521492ce0cc12e086711cf0c609051c64736f6c634300080400338be0079c531659141344cd1fd0a4f28419497f9722a3daafe3b4186f6b6457e0",
    "sourcePath": "c:/Users/luziu/Documents/aktionariat/contracts/src/Market.sol",
    "compiler": {
        "name": "solc",
        "version": "0.8.4+commit.c7e474f2"
    },
    "functionHashes": {
        "allocateFromExternalPayment(address,uint256,bytes)": "76673ffd",
        "allocateFromExternalPayments(address[],uint256[],bytes[])": "4dd18dc1",
        "approve(address,address,uint256)": "e1f21c67",
        "base()": "5001f3b5",
        "buyingEnabled()": "8ed2fe91",
        "copyright()": "a63ae9c7",
        "driftIncrement()": "c7780ab2",
        "driftStart()": "7ff6c191",
        "getBuyPrice(uint256)": "08d4db14",
        "getLicenseFee(uint256)": "21bea858",
        "getPrice()": "98d5fdca",
        "getPriceAtTime(uint256)": "bf13d438",
        "getSellPrice(uint256)": "ba730e53",
        "getShares(uint256)": "6f7267b7",
        "hasDrift()": "8a07d3d0",
        "increment()": "d09de08a",
        "onTokenTransfer(address,address,uint256,bytes)": "d7e06ca8",
        "onTokenTransfer(address,uint256,bytes)": "a4c0ed36",
        "owner()": "8da5cb5b",
        "paymenthub()": "777adcf0",
        "processIncoming(address,address,uint256,bytes)": "69365c52",
        "sellingEnabled()": "f771cb65",
        "setDrift(uint256,int256)": "afaefe9e",
        "setEnabled(bool,bool)": "5c627935",
        "setLicenseFee(uint8)": "80aa0df7",
        "setPaymentHub(address)": "fff4da1f",
        "setPrice(uint256,uint256)": "f7d97577",
        "setSettings(uint256)": "7cd6a7fd",
        "settings()": "e06174e4",
        "timeToDrift()": "84b41fda",
        "token()": "fc0c546a",
        "transferOwnership(address)": "f2fde38b",
        "withdraw(address,address,uint256)": "d9caed12",
        "withdrawEther(uint256)": "3bed33ce"
    },
    "gasEstimates": {
        "creation": {
            "codeDepositCost": "1274000",
            "executionCost": "infinite",
            "totalCost": "infinite"
        },
        "external": {
            "allocateFromExternalPayment(address,uint256,bytes)": "infinite",
            "allocateFromExternalPayments(address[],uint256[],bytes[])": "infinite",
            "approve(address,address,uint256)": "infinite",
            "base()": "infinite",
            "buyingEnabled()": "1181",
            "copyright()": "306",
            "driftIncrement()": "1073",
            "driftStart()": "1096",
            "getBuyPrice(uint256)": "infinite",
            "getLicenseFee(uint256)": "1319",
            "getPrice()": "5001",
            "getPriceAtTime(uint256)": "5062",
            "getSellPrice(uint256)": "infinite",
            "getShares(uint256)": "infinite",
            "hasDrift()": "1082",
            "increment()": "1095",
            "onTokenTransfer(address,address,uint256,bytes)": "infinite",
            "onTokenTransfer(address,uint256,bytes)": "infinite",
            "owner()": "1148",
            "paymenthub()": "1105",
            "processIncoming(address,address,uint256,bytes)": "infinite",
            "sellingEnabled()": "1114",
            "setDrift(uint256,int256)": "71020",
            "setEnabled(bool,bool)": "infinite",
            "setLicenseFee(uint8)": "21199",
            "setPaymentHub(address)": "22988",
            "setPrice(uint256,uint256)": "61200",
            "setSettings(uint256)": "21154",
            "settings()": "1073",
            "timeToDrift()": "1051",
            "token()": "infinite",
            "transferOwnership(address)": "24409",
            "withdraw(address,address,uint256)": "infinite",
            "withdrawEther(uint256)": "infinite"
        },
        "internal": {
            "anchorPrice(uint256)": "infinite",
            "buy(address,uint256,bytes calldata)": "infinite",
            "buyShares(address,uint256,bytes calldata)": "infinite",
            "getPrice(uint256,uint256)": "infinite",
            "hasSetting(uint256)": "infinite",
            "sell(address,uint256,bytes calldata)": "infinite"
        }
    }
}