{
    "contractName": "MarketMaker",
    "abi": [
        {
            "anonymous": false,
            "inputs": [
                {
                    "indexed": true,
                    "internalType": "address",
                    "name": "previousOwner",
                    "type": "address"
                },
                {
                    "indexed": true,
                    "internalType": "address",
                    "name": "newOwner",
                    "type": "address"
                }
            ],
            "name": "OwnershipTransferred",
            "type": "event"
        },
        {
            "anonymous": false,
            "inputs": [
                {
                    "indexed": true,
                    "internalType": "address",
                    "name": "token",
                    "type": "address"
                },
                {
                    "indexed": false,
                    "internalType": "address",
                    "name": "who",
                    "type": "address"
                },
                {
                    "indexed": false,
                    "internalType": "bytes",
                    "name": "ref",
                    "type": "bytes"
                },
                {
                    "indexed": false,
                    "internalType": "int256",
                    "name": "amount",
                    "type": "int256"
                },
                {
                    "indexed": false,
                    "internalType": "address",
                    "name": "base",
                    "type": "address"
                },
                {
                    "indexed": false,
                    "internalType": "uint256",
                    "name": "totPrice",
                    "type": "uint256"
                },
                {
                    "indexed": false,
                    "internalType": "uint256",
                    "name": "fee",
                    "type": "uint256"
                },
                {
                    "indexed": false,
                    "internalType": "uint256",
                    "name": "newprice",
                    "type": "uint256"
                }
            ],
            "name": "Trade",
            "type": "event"
        },
        {
            "inputs": [],
            "name": "base",
            "outputs": [
                {
                    "internalType": "address",
                    "name": "",
                    "type": "address"
                }
            ],
            "stateMutability": "view",
            "type": "function"
        },
        {
            "inputs": [
                {
                    "internalType": "uint256",
                    "name": "numberOfSharesToBuy",
                    "type": "uint256"
                },
                {
                    "internalType": "bytes",
                    "name": "ref",
                    "type": "bytes"
                }
            ],
            "name": "buy",
            "outputs": [
                {
                    "internalType": "uint256",
                    "name": "",
                    "type": "uint256"
                }
            ],
            "stateMutability": "nonpayable",
            "type": "function"
        },
        {
            "inputs": [
                {
                    "internalType": "address",
                    "name": "recipient",
                    "type": "address"
                },
                {
                    "internalType": "uint256",
                    "name": "numberOfSharesToBuy",
                    "type": "uint256"
                },
                {
                    "internalType": "bytes",
                    "name": "ref",
                    "type": "bytes"
                }
            ],
            "name": "buy",
            "outputs": [
                {
                    "internalType": "uint256",
                    "name": "",
                    "type": "uint256"
                }
            ],
            "stateMutability": "nonpayable",
            "type": "function"
        },
        {
            "inputs": [
                {
                    "internalType": "uint256",
                    "name": "shares",
                    "type": "uint256"
                },
                {
                    "internalType": "bytes",
                    "name": "ref",
                    "type": "bytes"
                }
            ],
            "name": "buyWithEther",
            "outputs": [
                {
                    "internalType": "uint256",
                    "name": "",
                    "type": "uint256"
                }
            ],
            "stateMutability": "payable",
            "type": "function"
        },
        {
            "inputs": [],
            "name": "buyingEnabled",
            "outputs": [
                {
                    "internalType": "bool",
                    "name": "",
                    "type": "bool"
                }
            ],
            "stateMutability": "view",
            "type": "function"
        },
        {
            "inputs": [],
            "name": "copyright",
            "outputs": [
                {
                    "internalType": "address",
                    "name": "",
                    "type": "address"
                }
            ],
            "stateMutability": "view",
            "type": "function"
        },
        {
            "inputs": [],
            "name": "driftIncrement",
            "outputs": [
                {
                    "internalType": "int256",
                    "name": "",
                    "type": "int256"
                }
            ],
            "stateMutability": "view",
            "type": "function"
        },
        {
            "inputs": [],
            "name": "driftStart",
            "outputs": [
                {
                    "internalType": "uint256",
                    "name": "",
                    "type": "uint256"
                }
            ],
            "stateMutability": "view",
            "type": "function"
        },
        {
            "inputs": [
                {
                    "internalType": "uint256",
                    "name": "shares",
                    "type": "uint256"
                }
            ],
            "name": "getBuyPrice",
            "outputs": [
                {
                    "internalType": "uint256",
                    "name": "",
                    "type": "uint256"
                }
            ],
            "stateMutability": "view",
            "type": "function"
        },
        {
            "inputs": [],
            "name": "getPrice",
            "outputs": [
                {
                    "internalType": "uint256",
                    "name": "",
                    "type": "uint256"
                }
            ],
            "stateMutability": "view",
            "type": "function"
        },
        {
            "inputs": [
                {
                    "internalType": "uint256",
                    "name": "timestamp",
                    "type": "uint256"
                }
            ],
            "name": "getPrice",
            "outputs": [
                {
                    "internalType": "uint256",
                    "name": "",
                    "type": "uint256"
                }
            ],
            "stateMutability": "view",
            "type": "function"
        },
        {
            "inputs": [
                {
                    "internalType": "uint256",
                    "name": "shares",
                    "type": "uint256"
                }
            ],
            "name": "getPriceInEther",
            "outputs": [
                {
                    "internalType": "uint256",
                    "name": "",
                    "type": "uint256"
                }
            ],
            "stateMutability": "view",
            "type": "function"
        },
        {
            "inputs": [
                {
                    "internalType": "uint256",
                    "name": "totalPrice",
                    "type": "uint256"
                }
            ],
            "name": "getSaleFee",
            "outputs": [
                {
                    "internalType": "uint256",
                    "name": "",
                    "type": "uint256"
                }
            ],
            "stateMutability": "view",
            "type": "function"
        },
        {
            "inputs": [
                {
                    "internalType": "uint256",
                    "name": "shares",
                    "type": "uint256"
                }
            ],
            "name": "getSaleProceeds",
            "outputs": [
                {
                    "internalType": "uint256",
                    "name": "",
                    "type": "uint256"
                }
            ],
            "stateMutability": "view",
            "type": "function"
        },
        {
            "inputs": [
                {
                    "internalType": "uint256",
                    "name": "shares",
                    "type": "uint256"
                }
            ],
            "name": "getSellPrice",
            "outputs": [
                {
                    "internalType": "uint256",
                    "name": "",
                    "type": "uint256"
                }
            ],
            "stateMutability": "view",
            "type": "function"
        },
        {
            "inputs": [
                {
                    "internalType": "uint256",
                    "name": "money",
                    "type": "uint256"
                }
            ],
            "name": "getShares",
            "outputs": [
                {
                    "internalType": "uint256",
                    "name": "",
                    "type": "uint256"
                }
            ],
            "stateMutability": "view",
            "type": "function"
        },
        {
            "inputs": [],
            "name": "hasDrift",
            "outputs": [
                {
                    "internalType": "bool",
                    "name": "",
                    "type": "bool"
                }
            ],
            "stateMutability": "view",
            "type": "function"
        },
        {
            "inputs": [],
            "name": "increment",
            "outputs": [
                {
                    "internalType": "uint256",
                    "name": "",
                    "type": "uint256"
                }
            ],
            "stateMutability": "view",
            "type": "function"
        },
        {
            "inputs": [
                {
                    "internalType": "address",
                    "name": "baseCurrency",
                    "type": "address"
                },
                {
                    "internalType": "address",
                    "name": "shareToken",
                    "type": "address"
                }
            ],
            "name": "initialize",
            "outputs": [],
            "stateMutability": "nonpayable",
            "type": "function"
        },
        {
            "inputs": [],
            "name": "licenseFeeBps",
            "outputs": [
                {
                    "internalType": "uint8",
                    "name": "",
                    "type": "uint8"
                }
            ],
            "stateMutability": "view",
            "type": "function"
        },
        {
            "inputs": [
                {
                    "internalType": "address",
                    "name": "from",
                    "type": "address"
                },
                {
                    "internalType": "uint256",
                    "name": "amount",
                    "type": "uint256"
                },
                {
                    "internalType": "bytes",
                    "name": "ref",
                    "type": "bytes"
                }
            ],
            "name": "onTokenTransfer",
            "outputs": [
                {
                    "internalType": "bool",
                    "name": "success",
                    "type": "bool"
                }
            ],
            "stateMutability": "nonpayable",
            "type": "function"
        },
        {
            "inputs": [],
            "name": "owner",
            "outputs": [
                {
                    "internalType": "address",
                    "name": "",
                    "type": "address"
                }
            ],
            "stateMutability": "view",
            "type": "function"
        },
        {
            "inputs": [
                {
                    "internalType": "address",
                    "name": "recipient",
                    "type": "address"
                },
                {
                    "internalType": "uint256",
                    "name": "tokens",
                    "type": "uint256"
                },
                {
                    "internalType": "bytes",
                    "name": "ref",
                    "type": "bytes"
                }
            ],
            "name": "sell",
            "outputs": [
                {
                    "internalType": "uint256",
                    "name": "",
                    "type": "uint256"
                }
            ],
            "stateMutability": "nonpayable",
            "type": "function"
        },
        {
            "inputs": [
                {
                    "internalType": "uint256",
                    "name": "tokens",
                    "type": "uint256"
                },
                {
                    "internalType": "bytes",
                    "name": "ref",
                    "type": "bytes"
                }
            ],
            "name": "sell",
            "outputs": [
                {
                    "internalType": "uint256",
                    "name": "",
                    "type": "uint256"
                }
            ],
            "stateMutability": "nonpayable",
            "type": "function"
        },
        {
            "inputs": [],
            "name": "sellingEnabled",
            "outputs": [
                {
                    "internalType": "bool",
                    "name": "",
                    "type": "bool"
                }
            ],
            "stateMutability": "view",
            "type": "function"
        },
        {
            "inputs": [
                {
                    "internalType": "address",
                    "name": "newOwner",
                    "type": "address"
                }
            ],
            "name": "setCopyright",
            "outputs": [],
            "stateMutability": "nonpayable",
            "type": "function"
        },
        {
            "inputs": [
                {
                    "internalType": "uint256",
                    "name": "secondsPerStep",
                    "type": "uint256"
                },
                {
                    "internalType": "int256",
                    "name": "newDriftIncrement",
                    "type": "int256"
                }
            ],
            "name": "setDrift",
            "outputs": [],
            "stateMutability": "nonpayable",
            "type": "function"
        },
        {
            "inputs": [
                {
                    "internalType": "bool",
                    "name": "newBuyingEnabled",
                    "type": "bool"
                },
                {
                    "internalType": "bool",
                    "name": "newSellingEnabled",
                    "type": "bool"
                }
            ],
            "name": "setEnabled",
            "outputs": [],
            "stateMutability": "nonpayable",
            "type": "function"
        },
        {
            "inputs": [
                {
                    "internalType": "uint8",
                    "name": "bps",
                    "type": "uint8"
                }
            ],
            "name": "setLicenseFee",
            "outputs": [],
            "stateMutability": "nonpayable",
            "type": "function"
        },
        {
            "inputs": [
                {
                    "internalType": "uint256",
                    "name": "newPrice",
                    "type": "uint256"
                },
                {
                    "internalType": "uint256",
                    "name": "newIncrement",
                    "type": "uint256"
                }
            ],
            "name": "setPrice",
            "outputs": [],
            "stateMutability": "nonpayable",
            "type": "function"
        },
        {
            "inputs": [],
            "name": "timeToDrift",
            "outputs": [
                {
                    "internalType": "uint256",
                    "name": "",
                    "type": "uint256"
                }
            ],
            "stateMutability": "view",
            "type": "function"
        },
        {
            "inputs": [],
            "name": "token",
            "outputs": [
                {
                    "internalType": "address",
                    "name": "",
                    "type": "address"
                }
            ],
            "stateMutability": "view",
            "type": "function"
        },
        {
            "inputs": [
                {
                    "internalType": "address",
                    "name": "newOwner",
                    "type": "address"
                }
            ],
            "name": "transferOwnership",
            "outputs": [],
            "stateMutability": "nonpayable",
            "type": "function"
        },
        {
            "inputs": [
                {
                    "internalType": "address",
                    "name": "ercAddress",
                    "type": "address"
                },
                {
                    "internalType": "address",
                    "name": "to",
                    "type": "address"
                },
                {
                    "internalType": "uint256",
                    "name": "amount",
                    "type": "uint256"
                }
            ],
            "name": "withdraw",
            "outputs": [],
            "stateMutability": "nonpayable",
            "type": "function"
        }
    ],
    "bytecode": "60806040526009805461ff001960ff199091166001171661010017905534801561002857600080fd5b50600080546001600160a01b03191633178082556040516001600160a01b039190911691907f8be0079c531659141344cd1fd0a4f28419497f9722a3daafe3b4186f6b6457e0908290a3611c1a806100816000396000f3fe6080604052600436106101f95760003560e01c8063a63ae9c71161010d578063d09de08a116100a0578063f2fde38b1161006f578063f2fde38b14610840578063f496a61014610873578063f771cb6514610903578063f7d9757714610918578063fc0c546a14610948576101f9565b8063d09de08a14610794578063d9caed12146107a9578063e21ae432146107ec578063e757223014610816576101f9565b8063ba730e53116100dc578063ba730e53146106f8578063ba8f1b6914610722578063c3b929f71461074c578063c7780ab21461077f576101f9565b8063a63ae9c71461065e578063a6c677f614610673578063ae539d801461069e578063afaefe9e146106c8576101f9565b806380aa0df7116101905780638a07d3d01161015f5780638a07d3d0146105665780638da5cb5b1461058f5780638ed2fe91146105a457806398d5fdca146105b9578063a4c0ed36146105ce576101f9565b806380aa0df714610420578063821895511461044d57806384b41fda146104cf57806388bbbe35146104e4576101f9565b80635001f3b5116101cc5780635001f3b51461037c5780635c627935146103ad5780636f7267b7146103e15780637ff6c1911461040b576101f9565b806308d4db14146101fe57806319f4d6b71461023a5780632535a65a146102ca578063485cc9551461033f575b600080fd5b34801561020a57600080fd5b506102286004803603602081101561022157600080fd5b503561095d565b60408051918252519081900360200190f35b34801561024657600080fd5b506102286004803603606081101561025d57600080fd5b6001600160a01b0382351691602081013591810190606081016040820135600160201b81111561028c57600080fd5b82018360208201111561029e57600080fd5b803590602001918460018302840111600160201b831117156102bf57600080fd5b509092509050610978565b610228600480360360408110156102e057600080fd5b81359190810190604081016020820135600160201b81111561030157600080fd5b82018360208201111561031357600080fd5b803590602001918460018302840111600160201b8311171561033457600080fd5b5090925090506109a5565b34801561034b57600080fd5b5061037a6004803603604081101561036257600080fd5b506001600160a01b0381358116916020013516610c7d565b005b34801561038857600080fd5b50610391610d28565b604080516001600160a01b039092168252519081900360200190f35b3480156103b957600080fd5b5061037a600480360360408110156103d057600080fd5b508035151590602001351515610d37565b3480156103ed57600080fd5b506102286004803603602081101561040457600080fd5b5035610da5565b34801561041757600080fd5b50610228610db3565b34801561042c57600080fd5b5061037a6004803603602081101561044357600080fd5b503560ff16610db9565b34801561045957600080fd5b506102286004803603604081101561047057600080fd5b81359190810190604081016020820135600160201b81111561049157600080fd5b8201836020820111156104a357600080fd5b803590602001918460018302840111600160201b831117156104c457600080fd5b509092509050610e01565b3480156104db57600080fd5b50610228610e27565b3480156104f057600080fd5b506102286004803603604081101561050757600080fd5b81359190810190604081016020820135600160201b81111561052857600080fd5b82018360208201111561053a57600080fd5b803590602001918460018302840111600160201b8311171561055b57600080fd5b509092509050610e2d565b34801561057257600080fd5b5061057b610e50565b604080519115158252519081900360200190f35b34801561059b57600080fd5b50610391610e58565b3480156105b057600080fd5b5061057b610e67565b3480156105c557600080fd5b50610228610e70565b3480156105da57600080fd5b5061057b600480360360608110156105f157600080fd5b6001600160a01b0382351691602081013591810190606081016040820135600160201b81111561062057600080fd5b82018360208201111561063257600080fd5b803590602001918460018302840111600160201b8311171561065357600080fd5b509092509050610e80565b34801561066a57600080fd5b50610391610efe565b34801561067f57600080fd5b50610688610f0d565b6040805160ff9092168252519081900360200190f35b3480156106aa57600080fd5b50610228600480360360208110156106c157600080fd5b5035610f1d565b3480156106d457600080fd5b5061037a600480360360408110156106eb57600080fd5b5080359060200135611129565b34801561070457600080fd5b506102286004803603602081101561071b57600080fd5b503561118f565b34801561072e57600080fd5b506102286004803603602081101561074557600080fd5b50356111ba565b34801561075857600080fd5b5061037a6004803603602081101561076f57600080fd5b50356001600160a01b03166111e3565b34801561078b57600080fd5b5061022861121c565b3480156107a057600080fd5b50610228611222565b3480156107b557600080fd5b5061037a600480360360608110156107cc57600080fd5b506001600160a01b03813581169160208101359091169060400135611228565b3480156107f857600080fd5b506102286004803603602081101561080f57600080fd5b503561133b565b34801561082257600080fd5b506102286004803603602081101561083957600080fd5b503561135a565b34801561084c57600080fd5b5061037a6004803603602081101561086357600080fd5b50356001600160a01b03166113b7565b34801561087f57600080fd5b506102286004803603606081101561089657600080fd5b6001600160a01b0382351691602081013591810190606081016040820135600160201b8111156108c557600080fd5b8201836020820111156108d757600080fd5b803590602001918460018302840111600160201b831117156108f857600080fd5b50909250905061145d565b34801561090f57600080fd5b5061057b61147e565b34801561092457600080fd5b5061037a6004803603604081101561093b57600080fd5b508035906020013561148c565b34801561095457600080fd5b506103916114e6565b600061097061096a610e70565b836114f5565b90505b919050565b600954600090610100900460ff1661098f57600080fd5b61099c338686868661154b565b95945050505050565b60095460009060ff166109b757600080fd5b60006109c28561095d565b905060006109cf86610f1d565b60408051600280825260608083018452939450909160208301908036833701905050905073c02aaa39b223fe8d0a0e5c4f27ead9083c756cc281600081518110610a1557fe5b6001600160a01b0392831660209182029290920101526001805483519216918391908110610a3f57fe5b60200260200101906001600160a01b031690816001600160a01b0316815250506060737a250d5630b4cf539739df2c5dacb4c659f2488d6001600160a01b031663fb3bdb4184868530426040518663ffffffff1660e01b81526004018085815260200180602001846001600160a01b03168152602001838152602001828103825285818151815260200191508051906020019060200280838360005b83811015610af3578181015183820152602001610adb565b50505050905001955050505050506000604051808303818588803b158015610b1a57600080fd5b505af1158015610b2e573d6000803e3d6000fd5b50505050506040513d6000823e601f3d908101601f191682016040526020811015610b5857600080fd5b8101908080516040519392919084600160201b821115610b7757600080fd5b908301906020820185811115610b8c57600080fd5b82518660208202830111600160201b82111715610ba857600080fd5b82525081516020918201928201910280838360005b83811015610bd5578181015183820152602001610bbd565b50505050905001604052505050905080600181518110610bf157fe5b60200260200101518414610c0157fe5b610c2333338a84600181518110610c1457fe5b60200260200101518b8b6115f7565b50478015610c5a57604051339082156108fc029083906000818181858888f19350505050158015610c58573d6000803e3d6000fd5b505b81600081518110610c6757fe5b6020026020010151955050505050509392505050565b6002546001600160a01b031615610cd2576040805162461bcd60e51b815260206004820152601460248201527320b63932b0b23c9034b734ba34b0b634bd32b21760611b604482015290519081900360640190fd5b600180546001600160a01b039384166001600160a01b031991821617909155600280549290931691811691909117909155600380549091167329fe8914e76da5ce2d90de98a64d0055f199d06d17905542600655565b6001546001600160a01b031681565b6000546001600160a01b03163314610d82576040805162461bcd60e51b81526020600482015260096024820152683737ba1037bbb732b960b91b604482015290519081900360640190fd5b6009805460ff19169215159290921761ff00191661010091151591909102179055565b6000610970826004546118e0565b60065481565b6003546001600160a01b03163314610dd057600080fd5b60648160ff161115610de157600080fd5b6003805460ff909216600160a01b0260ff60a01b19909216919091179055565b60095460009060ff16610e1357600080fd5b610e1f3385858561145d565b949350505050565b60075481565b600954600090610100900460ff16610e4457600080fd5b610e1f33858585610978565b600754151590565b6000546001600160a01b031681565b60095460ff1681565b6000610e7b4261135a565b905090565b6002546000906001600160a01b0316331480610ea657506001546001600160a01b031633145b610eaf57600080fd5b6002546001600160a01b0316331415610ed457610ece85858585611932565b50610ef3565b6001546001600160a01b03163314156101f957610ef385858585611b61565b506001949350505050565b6003546001600160a01b031681565b600354600160a01b900460ff1681565b600080610f298361095d565b60408051600280825260608083018452939450909160208301908036833701905050905073c02aaa39b223fe8d0a0e5c4f27ead9083c756cc281600081518110610f6f57fe5b6001600160a01b0392831660209182029290920101526001805483519216918391908110610f9957fe5b6001600160a01b03909216602092830291909101820152604080516307c0329d60e21b81526004810185815260248201928352845160448301528451737a250d5630b4cf539739df2c5dacb4c659f2488d94631f00ca749488948894939192606490910191858201910280838360005b83811015611021578181015183820152602001611009565b50505050905001935050505060006040518083038186803b15801561104557600080fd5b505afa158015611059573d6000803e3d6000fd5b505050506040513d6000823e601f3d908101601f19168201604052602081101561108257600080fd5b8101908080516040519392919084600160201b8211156110a157600080fd5b9083019060208201858111156110b657600080fd5b82518660208202830111600160201b821117156110d257600080fd5b82525081516020918201928201910280838360005b838110156110ff5781810151838201526020016110e7565b5050505090500160405250505060008151811061111857fe5b602002602001015192505050919050565b6000546001600160a01b03163314611174576040805162461bcd60e51b81526020600482015260096024820152683737ba1037bbb732b960b91b604482015290519081900360640190fd5b61118461117f610e70565b611b84565b600791909155600855565b600061097061096a6111ac60055485611b8d90919063ffffffff16565b6111b4610e70565b90611bb2565b60035460009061097090612710906111dd908590600160a01b900460ff16611b8d565b90611bc4565b6003546001600160a01b031633146111fa57600080fd5b600380546001600160a01b0319166001600160a01b0392909216919091179055565b60085481565b60055481565b6000546001600160a01b03163314611273576040805162461bcd60e51b81526020600482015260096024820152683737ba1037bbb732b960b91b604482015290519081900360640190fd5b6040805163a9059cbb60e01b81526001600160a01b038481166004830152602482018490529151859283169163a9059cbb9160448083019260209291908290030181600087803b1580156112c657600080fd5b505af11580156112da573d6000803e3d6000fd5b505050506040513d60208110156112f057600080fd5b5051611335576040805162461bcd60e51b815260206004820152600f60248201526e151c985b9cd9995c8819985a5b1959608a1b604482015290519081900360640190fd5b50505050565b6000806113478361118f565b9050611352816111ba565b900392915050565b6000611364610e50565b156113ae576000600654830390506000600854600754838161138257fe5b0402905060008160045401905060008112156113a45760009350505050610973565b9250610973915050565b50600454610973565b6000546001600160a01b03163314611402576040805162461bcd60e51b81526020600482015260096024820152683737ba1037bbb732b960b91b604482015290519081900360640190fd5b600080546040516001600160a01b03808516939216917f8be0079c531659141344cd1fd0a4f28419497f9722a3daafe3b4186f6b6457e091a3600080546001600160a01b0319166001600160a01b0392909216919091179055565b60095460009060ff1661146f57600080fd5b61099c338686600087876115f7565b600954610100900460ff1681565b6000546001600160a01b031633146114d7576040805162461bcd60e51b81526020600482015260096024820152683737ba1037bbb732b960b91b604482015290519081900360640190fd5b6114e082611b84565b60055550565b6002546001600160a01b031681565b6000600182101561150557600080fd5b600061151f60055460018503611b8d90919063ffffffff16565b840190506115418360026115338785611bd7565b8161153a57fe5b0490611b8d565b9150505b92915050565b600254604080516323b872dd60e01b81526001600160a01b038881166004830152306024830152604482018790529151600093929092169182916323b872dd91606480830192602092919082900301818887803b1580156115ab57600080fd5b505af11580156115bf573d6000803e3d6000fd5b505050506040513d60208110156115d557600080fd5b50516115e057600080fd5b6115ec86868686611932565b979650505050505050565b6000806116038661095d565b6001549091506001600160a01b0316858211156116ae57604080516323b872dd60e01b81526001600160a01b038b8116600483015230602483015288850360448301529151918316916323b872dd916064808201926020929091908290030181600087803b15801561167457600080fd5b505af1158015611688573d6000803e3d6000fd5b505050506040513d602081101561169e57600080fd5b50516116a957600080fd5b611744565b8582101561174457806001600160a01b031663a9059cbb8a8489036040518363ffffffff1660e01b815260040180836001600160a01b0316815260200182815260200192505050602060405180830381600087803b15801561170f57600080fd5b505af1158015611723573d6000803e3d6000fd5b505050506040513d602081101561173957600080fd5b505161174457600080fd5b6002546040805163a9059cbb60e01b81526001600160a01b038b81166004830152602482018b905291519190921691829163a9059cbb916044808201926020929091908290030181600087803b15801561179d57600080fd5b505af11580156117b1573d6000803e3d6000fd5b505050506040513d60208110156117c757600080fd5b50516117d257600080fd5b6117f36117ea6005548a611b8d90919063ffffffff16565b60045490611bd7565b600481905550600260009054906101000a90046001600160a01b03166001600160a01b03167f424641a08047715d4b70195e1d90818d302683d9f65f41910ca13f5a486d37cc8b88888c600160009054906101000a90046001600160a01b031689600060045460405180896001600160a01b0316815260200180602001878152602001866001600160a01b031681526020018581526020018481526020018381526020018281038252898982818152602001925080828437600083820152604051601f909101601f19169092018290039b50909950505050505050505050a2509098975050505050505050565b6000818310156118f257506000611545565b600060018303848161190057fe5b600554919004915081028303600061191882846114f5565b9050611926818703836118e0565b83019350505050611545565b60008061193e8561118f565b6001549091506001600160a01b03166000611958836111ba565b905080156119eb576003546040805163a9059cbb60e01b81526001600160a01b0392831660048201526024810184905290519184169163a9059cbb916044808201926020929091908290030181600087803b1580156119b657600080fd5b505af11580156119ca573d6000803e3d6000fd5b505050506040513d60208110156119e057600080fd5b50516119eb57600080fd5b816001600160a01b031663a9059cbb898386036040518363ffffffff1660e01b815260040180836001600160a01b0316815260200182815260200192505050602060405180830381600087803b158015611a4457600080fd5b505af1158015611a58573d6000803e3d6000fd5b505050506040513d6020811015611a6e57600080fd5b5051611a7957600080fd5b611a9a611a9160055489611b8d90919063ffffffff16565b60045490611bb2565b6004819055600254600154604080516001600160a01b038d8116825260008d9003928201839052928316606082018190526080820189905260a0820187905260c0820186905260e0602083018181529083018c905293909416947f424641a08047715d4b70195e1d90818d302683d9f65f41910ca13f5a486d37cc948e948d948d9490938c928b92906101008201898980828437600083820152604051601f909101601f19169092018290039b50909950505050505050505050a250909695505050505050565b6000611b6c84610da5565b9050611b7c8586838787876115f7565b505050505050565b60045542600655565b600082611b9c57506000611545565b5081810281838281611baa57fe5b041461154557fe5b600082821115611bbe57fe5b50900390565b6000818381611bcf57fe5b049392505050565b8181018281101561154557fefea2646970667358221220d89623073bfaf4972e6a9e6f396fddd18184320b937f0d2c61a6f39a4fcea7a964736f6c63430007040033",
    "sourcePath": "/Users/muratogat/Desktop/Repositories/aktionariat/contracts/src/MarketMaker.sol",
    "compiler": {
        "name": "solc",
        "version": "0.7.4+commit.3f05b770"
    },
    "functionHashes": {
        "base()": "5001f3b5",
        "buy(address,uint256,bytes)": "f496a610",
        "buy(uint256,bytes)": "82189551",
        "buyWithEther(uint256,bytes)": "2535a65a",
        "buyingEnabled()": "8ed2fe91",
        "copyright()": "a63ae9c7",
        "driftIncrement()": "c7780ab2",
        "driftStart()": "7ff6c191",
        "getBuyPrice(uint256)": "08d4db14",
        "getPrice()": "98d5fdca",
        "getPrice(uint256)": "e7572230",
        "getPriceInEther(uint256)": "ae539d80",
        "getSaleFee(uint256)": "ba8f1b69",
        "getSaleProceeds(uint256)": "e21ae432",
        "getSellPrice(uint256)": "ba730e53",
        "getShares(uint256)": "6f7267b7",
        "hasDrift()": "8a07d3d0",
        "increment()": "d09de08a",
        "initialize(address,address)": "485cc955",
        "licenseFeeBps()": "a6c677f6",
        "onTokenTransfer(address,uint256,bytes)": "a4c0ed36",
        "owner()": "8da5cb5b",
        "sell(address,uint256,bytes)": "19f4d6b7",
        "sell(uint256,bytes)": "88bbbe35",
        "sellingEnabled()": "f771cb65",
        "setCopyright(address)": "c3b929f7",
        "setDrift(uint256,int256)": "afaefe9e",
        "setEnabled(bool,bool)": "5c627935",
        "setLicenseFee(uint8)": "80aa0df7",
        "setPrice(uint256,uint256)": "f7d97577",
        "timeToDrift()": "84b41fda",
        "token()": "fc0c546a",
        "transferOwnership(address)": "f2fde38b",
        "withdraw(address,address,uint256)": "d9caed12"
    },
    "gasEstimates": {
        "creation": {
            "codeDepositCost": "1438800",
            "executionCost": "44733",
            "totalCost": "1483533"
        },
        "external": {
            "base()": "1083",
            "buy(address,uint256,bytes)": "infinite",
            "buy(uint256,bytes)": "infinite",
            "buyWithEther(uint256,bytes)": "infinite",
            "buyingEnabled()": "1099",
            "copyright()": "1083",
            "driftIncrement()": "1109",
            "driftStart()": "1110",
            "getBuyPrice(uint256)": "infinite",
            "getPrice()": "4532",
            "getPrice(uint256)": "4537",
            "getPriceInEther(uint256)": "infinite",
            "getSaleFee(uint256)": "1350",
            "getSaleProceeds(uint256)": "infinite",
            "getSellPrice(uint256)": "infinite",
            "getShares(uint256)": "infinite",
            "hasDrift()": "1055",
            "increment()": "1043",
            "initialize(address,address)": "83716",
            "licenseFeeBps()": "1098",
            "onTokenTransfer(address,uint256,bytes)": "infinite",
            "owner()": "1104",
            "sell(address,uint256,bytes)": "infinite",
            "sell(uint256,bytes)": "infinite",
            "sellingEnabled()": "1109",
            "setCopyright(address)": "22002",
            "setDrift(uint256,int256)": "70453",
            "setEnabled(bool,bool)": "21998",
            "setLicenseFee(uint8)": "21978",
            "setPrice(uint256,uint256)": "61191",
            "timeToDrift()": "1088",
            "token()": "1169",
            "transferOwnership(address)": "24311",
            "withdraw(address,address,uint256)": "infinite"
        },
        "internal": {
            "_buy(address,address,uint256,uint256,bytes calldata)": "infinite",
            "_notifyMoneyReceived(address,uint256,bytes calldata)": "infinite",
            "_notifyTokensReceived(address,uint256,bytes calldata)": "infinite",
            "_sell(address,address,uint256,bytes calldata)": "infinite",
            "anchorPrice(uint256)": "40017",
            "getPrice(uint256,uint256)": "infinite",
            "getShares(uint256,uint256)": "infinite"
        }
    }
}