{
    "contractName": "Market",
    "abi": [
        {
            "inputs": [
                {
                    "internalType": "address",
                    "name": "shareToken",
                    "type": "address"
                },
                {
                    "internalType": "uint256",
                    "name": "price_",
                    "type": "uint256"
                },
                {
                    "internalType": "uint256",
                    "name": "increment_",
                    "type": "uint256"
                },
                {
                    "internalType": "address",
                    "name": "baseCurrency",
                    "type": "address"
                },
                {
                    "internalType": "address",
                    "name": "owner",
                    "type": "address"
                }
            ],
            "stateMutability": "nonpayable",
            "type": "constructor"
        },
        {
            "anonymous": false,
            "inputs": [
                {
                    "indexed": true,
                    "internalType": "address",
                    "name": "previousOwner",
                    "type": "address"
                },
                {
                    "indexed": true,
                    "internalType": "address",
                    "name": "newOwner",
                    "type": "address"
                }
            ],
            "name": "OwnershipTransferred",
            "type": "event"
        },
        {
            "anonymous": false,
            "inputs": [
                {
                    "indexed": true,
                    "internalType": "address",
                    "name": "token",
                    "type": "address"
                },
                {
                    "indexed": false,
                    "internalType": "address",
                    "name": "who",
                    "type": "address"
                },
                {
                    "indexed": false,
                    "internalType": "bytes",
                    "name": "ref",
                    "type": "bytes"
                },
                {
                    "indexed": false,
                    "internalType": "int256",
                    "name": "amount",
                    "type": "int256"
                },
                {
                    "indexed": false,
                    "internalType": "address",
                    "name": "base",
                    "type": "address"
                },
                {
                    "indexed": false,
                    "internalType": "uint256",
                    "name": "totPrice",
                    "type": "uint256"
                },
                {
                    "indexed": false,
                    "internalType": "uint256",
                    "name": "fee",
                    "type": "uint256"
                },
                {
                    "indexed": false,
                    "internalType": "uint256",
                    "name": "newprice",
                    "type": "uint256"
                }
            ],
            "name": "Trade",
            "type": "event"
        },
        {
            "inputs": [],
            "name": "base",
            "outputs": [
                {
                    "internalType": "address",
                    "name": "",
                    "type": "address"
                }
            ],
            "stateMutability": "view",
            "type": "function"
        },
        {
            "inputs": [
                {
                    "internalType": "uint256",
                    "name": "numberOfSharesToBuy",
                    "type": "uint256"
                },
                {
                    "internalType": "bytes",
                    "name": "ref",
                    "type": "bytes"
                }
            ],
            "name": "buy",
            "outputs": [
                {
                    "internalType": "uint256",
                    "name": "",
                    "type": "uint256"
                }
            ],
            "stateMutability": "nonpayable",
            "type": "function"
        },
        {
            "inputs": [
                {
                    "internalType": "address",
                    "name": "recipient",
                    "type": "address"
                },
                {
                    "internalType": "uint256",
                    "name": "numberOfSharesToBuy",
                    "type": "uint256"
                },
                {
                    "internalType": "bytes",
                    "name": "ref",
                    "type": "bytes"
                }
            ],
            "name": "buy",
            "outputs": [
                {
                    "internalType": "uint256",
                    "name": "",
                    "type": "uint256"
                }
            ],
            "stateMutability": "nonpayable",
            "type": "function"
        },
        {
            "inputs": [],
            "name": "buyingEnabled",
            "outputs": [
                {
                    "internalType": "bool",
                    "name": "",
                    "type": "bool"
                }
            ],
            "stateMutability": "view",
            "type": "function"
        },
        {
            "inputs": [],
            "name": "copyright",
            "outputs": [
                {
                    "internalType": "address",
                    "name": "",
                    "type": "address"
                }
            ],
            "stateMutability": "view",
            "type": "function"
        },
        {
            "inputs": [],
            "name": "driftIncrement",
            "outputs": [
                {
                    "internalType": "int256",
                    "name": "",
                    "type": "int256"
                }
            ],
            "stateMutability": "view",
            "type": "function"
        },
        {
            "inputs": [],
            "name": "driftStart",
            "outputs": [
                {
                    "internalType": "uint256",
                    "name": "",
                    "type": "uint256"
                }
            ],
            "stateMutability": "view",
            "type": "function"
        },
        {
            "inputs": [
                {
                    "internalType": "uint256",
                    "name": "shares",
                    "type": "uint256"
                }
            ],
            "name": "getBuyPrice",
            "outputs": [
                {
                    "internalType": "uint256",
                    "name": "",
                    "type": "uint256"
                }
            ],
            "stateMutability": "view",
            "type": "function"
        },
        {
            "inputs": [],
            "name": "getPrice",
            "outputs": [
                {
                    "internalType": "uint256",
                    "name": "",
                    "type": "uint256"
                }
            ],
            "stateMutability": "view",
            "type": "function"
        },
        {
            "inputs": [
                {
                    "internalType": "uint256",
                    "name": "timestamp",
                    "type": "uint256"
                }
            ],
            "name": "getPriceAtTime",
            "outputs": [
                {
                    "internalType": "uint256",
                    "name": "",
                    "type": "uint256"
                }
            ],
            "stateMutability": "view",
            "type": "function"
        },
        {
            "inputs": [
                {
                    "internalType": "uint256",
                    "name": "totalPrice",
                    "type": "uint256"
                }
            ],
            "name": "getSaleFee",
            "outputs": [
                {
                    "internalType": "uint256",
                    "name": "",
                    "type": "uint256"
                }
            ],
            "stateMutability": "view",
            "type": "function"
        },
        {
            "inputs": [
                {
                    "internalType": "uint256",
                    "name": "shares",
                    "type": "uint256"
                }
            ],
            "name": "getSaleProceeds",
            "outputs": [
                {
                    "internalType": "uint256",
                    "name": "",
                    "type": "uint256"
                }
            ],
            "stateMutability": "view",
            "type": "function"
        },
        {
            "inputs": [
                {
                    "internalType": "uint256",
                    "name": "shares",
                    "type": "uint256"
                }
            ],
            "name": "getSellPrice",
            "outputs": [
                {
                    "internalType": "uint256",
                    "name": "",
                    "type": "uint256"
                }
            ],
            "stateMutability": "view",
            "type": "function"
        },
        {
            "inputs": [
                {
                    "internalType": "uint256",
                    "name": "money",
                    "type": "uint256"
                }
            ],
            "name": "getShares",
            "outputs": [
                {
                    "internalType": "uint256",
                    "name": "",
                    "type": "uint256"
                }
            ],
            "stateMutability": "view",
            "type": "function"
        },
        {
            "inputs": [],
            "name": "hasDrift",
            "outputs": [
                {
                    "internalType": "bool",
                    "name": "",
                    "type": "bool"
                }
            ],
            "stateMutability": "view",
            "type": "function"
        },
        {
            "inputs": [],
            "name": "increment",
            "outputs": [
                {
                    "internalType": "uint256",
                    "name": "",
                    "type": "uint256"
                }
            ],
            "stateMutability": "view",
            "type": "function"
        },
        {
            "inputs": [],
            "name": "licenseFeeBps",
            "outputs": [
                {
                    "internalType": "uint8",
                    "name": "",
                    "type": "uint8"
                }
            ],
            "stateMutability": "view",
            "type": "function"
        },
        {
            "inputs": [
                {
                    "internalType": "address",
                    "name": "from",
                    "type": "address"
                },
                {
                    "internalType": "uint256",
                    "name": "amount",
                    "type": "uint256"
                },
                {
                    "internalType": "bytes",
                    "name": "ref",
                    "type": "bytes"
                }
            ],
            "name": "onTokenTransfer",
            "outputs": [],
            "stateMutability": "nonpayable",
            "type": "function"
        },
        {
            "inputs": [
                {
                    "internalType": "address",
                    "name": "token_",
                    "type": "address"
                },
                {
                    "internalType": "address",
                    "name": "from",
                    "type": "address"
                },
                {
                    "internalType": "uint256",
                    "name": "amount",
                    "type": "uint256"
                },
                {
                    "internalType": "bytes",
                    "name": "ref",
                    "type": "bytes"
                }
            ],
            "name": "onTokenTransfer",
            "outputs": [],
            "stateMutability": "nonpayable",
            "type": "function"
        },
        {
            "inputs": [],
            "name": "owner",
            "outputs": [
                {
                    "internalType": "address",
                    "name": "",
                    "type": "address"
                }
            ],
            "stateMutability": "view",
            "type": "function"
        },
        {
            "inputs": [],
            "name": "paymenthub",
            "outputs": [
                {
                    "internalType": "address",
                    "name": "",
                    "type": "address"
                }
            ],
            "stateMutability": "view",
            "type": "function"
        },
        {
            "inputs": [
                {
                    "internalType": "address",
                    "name": "recipient",
                    "type": "address"
                },
                {
                    "internalType": "uint256",
                    "name": "tokens",
                    "type": "uint256"
                },
                {
                    "internalType": "bytes",
                    "name": "ref",
                    "type": "bytes"
                }
            ],
            "name": "sell",
            "outputs": [
                {
                    "internalType": "uint256",
                    "name": "",
                    "type": "uint256"
                }
            ],
            "stateMutability": "nonpayable",
            "type": "function"
        },
        {
            "inputs": [
                {
                    "internalType": "uint256",
                    "name": "tokens",
                    "type": "uint256"
                },
                {
                    "internalType": "bytes",
                    "name": "ref",
                    "type": "bytes"
                }
            ],
            "name": "sell",
            "outputs": [
                {
                    "internalType": "uint256",
                    "name": "",
                    "type": "uint256"
                }
            ],
            "stateMutability": "nonpayable",
            "type": "function"
        },
        {
            "inputs": [],
            "name": "sellingEnabled",
            "outputs": [
                {
                    "internalType": "bool",
                    "name": "",
                    "type": "bool"
                }
            ],
            "stateMutability": "view",
            "type": "function"
        },
        {
            "inputs": [
                {
                    "internalType": "address",
                    "name": "newOwner",
                    "type": "address"
                }
            ],
            "name": "setCopyright",
            "outputs": [],
            "stateMutability": "nonpayable",
            "type": "function"
        },
        {
            "inputs": [
                {
                    "internalType": "uint256",
                    "name": "secondsPerStep",
                    "type": "uint256"
                },
                {
                    "internalType": "int256",
                    "name": "newDriftIncrement",
                    "type": "int256"
                }
            ],
            "name": "setDrift",
            "outputs": [],
            "stateMutability": "nonpayable",
            "type": "function"
        },
        {
            "inputs": [
                {
                    "internalType": "bool",
                    "name": "newBuyingEnabled",
                    "type": "bool"
                },
                {
                    "internalType": "bool",
                    "name": "newSellingEnabled",
                    "type": "bool"
                }
            ],
            "name": "setEnabled",
            "outputs": [],
            "stateMutability": "nonpayable",
            "type": "function"
        },
        {
            "inputs": [
                {
                    "internalType": "uint8",
                    "name": "bps",
                    "type": "uint8"
                }
            ],
            "name": "setLicenseFee",
            "outputs": [],
            "stateMutability": "nonpayable",
            "type": "function"
        },
        {
            "inputs": [
                {
                    "internalType": "address",
                    "name": "hub",
                    "type": "address"
                }
            ],
            "name": "setPaymentHub",
            "outputs": [],
            "stateMutability": "nonpayable",
            "type": "function"
        },
        {
            "inputs": [
                {
                    "internalType": "uint256",
                    "name": "newPrice",
                    "type": "uint256"
                },
                {
                    "internalType": "uint256",
                    "name": "newIncrement",
                    "type": "uint256"
                }
            ],
            "name": "setPrice",
            "outputs": [],
            "stateMutability": "nonpayable",
            "type": "function"
        },
        {
            "inputs": [],
            "name": "timeToDrift",
            "outputs": [
                {
                    "internalType": "uint256",
                    "name": "",
                    "type": "uint256"
                }
            ],
            "stateMutability": "view",
            "type": "function"
        },
        {
            "inputs": [],
            "name": "token",
            "outputs": [
                {
                    "internalType": "address",
                    "name": "",
                    "type": "address"
                }
            ],
            "stateMutability": "view",
            "type": "function"
        },
        {
            "inputs": [
                {
                    "internalType": "address",
                    "name": "newOwner",
                    "type": "address"
                }
            ],
            "name": "transferOwnership",
            "outputs": [],
            "stateMutability": "nonpayable",
            "type": "function"
        },
        {
            "inputs": [
                {
                    "internalType": "address",
                    "name": "ercAddress",
                    "type": "address"
                },
                {
                    "internalType": "address",
                    "name": "to",
                    "type": "address"
                },
                {
                    "internalType": "uint256",
                    "name": "amount",
                    "type": "uint256"
                }
            ],
            "name": "withdraw",
            "outputs": [],
            "stateMutability": "nonpayable",
            "type": "function"
        }
    ],
    "bytecode": "6080604052600a805461ff001960ff19909116600117166101001790553480156200002957600080fd5b506040516200178a3803806200178a8339810160408190526200004c91620001a9565b600080546001600160a01b03191633178082556040516001600160a01b039190911691906000805160206200176a833981519152908290a3600280546001600160a01b038085166001600160a01b031992831617909255600380549288169282169290921790915560058590556006849055600180548216905560048054602d60a11b60ff60a01b19919093167329fe8914e76da5ce2d90de98a64d0055f199d06d171691909117905562000101816200010c565b505050505062000229565b6000546001600160a01b03163314620001425760405162461bcd60e51b8152600401620001399062000206565b60405180910390fd5b600080546040516001600160a01b03808516939216916000805160206200176a83398151915291a3600080546001600160a01b0319166001600160a01b0392909216919091179055565b80516001600160a01b0381168114620001a457600080fd5b919050565b600080600080600060a08688031215620001c1578081fd5b620001cc866200018c565b94506020860151935060408601519250620001ea606087016200018c565b9150620001fa608087016200018c565b90509295509295909350565b6020808252600990820152683737ba1037bbb732b960b91b604082015260600190565b61153180620002396000396000f3fe608060405234801561001057600080fd5b50600436106102065760003560e01c8063a6c677f61161011a578063d7e06ca8116100ad578063f496a6101161007c578063f496a610146103ed578063f771cb6514610400578063f7d9757714610408578063fc0c546a1461041b578063fff4da1f1461042357610206565b8063d7e06ca8146103a1578063d9caed12146103b4578063e21ae432146103c7578063f2fde38b146103da57610206565b8063bf13d438116100e9578063bf13d4381461036b578063c3b929f71461037e578063c7780ab214610391578063d09de08a1461039957610206565b8063a6c677f61461031d578063afaefe9e14610332578063ba730e5314610345578063ba8f1b691461035857610206565b8063821895511161019d5780638da5cb5b1161016c5780638da5cb5b146102ea5780638ed2fe91146102f257806398d5fdca146102fa578063a4c0ed3614610302578063a63ae9c71461031557610206565b806382189551146102a757806384b41fda146102ba57806388bbbe35146102c25780638a07d3d0146102d557610206565b80636f7267b7116101d95780636f7267b714610271578063777adcf0146102845780637ff6c1911461028c57806380aa0df71461029457610206565b806308d4db141461020b57806319f4d6b7146102345780635001f3b5146102475780635c6279351461025c575b600080fd5b61021e6102193660046111a9565b610436565b60405161022b9190611325565b60405180910390f35b61021e6102423660046110fd565b610451565b61024f610469565b60405161022b9190611277565b61026f61026a366004611171565b610478565b005b61021e61027f3660046111a9565b6104ce565b61024f610548565b61021e610557565b61026f6102a236600461122c565b61055d565b61021e6102b53660046111c1565b6105a5565b61021e6105bb565b61021e6102d03660046111c1565b6105c1565b6102dd6105cf565b60405161022b919061131a565b61024f6105d7565b6102dd6105e6565b61021e6105ef565b61026f6103103660046110fd565b6105ff565b61024f610612565b610325610621565b60405161022b919061137a565b61026f61034036600461120b565b610631565b61021e6103533660046111a9565b610676565b61021e6103663660046111a9565b61069b565b61021e6103793660046111a9565b6106c3565b61026f61038c36600461103b565b61073d565b61021e610776565b61021e61077c565b61026f6103af366004611090565b610782565b61026f6103c2366004611055565b6107fd565b61021e6103d53660046111a9565b6108c5565b61026f6103e836600461103b565b6108ed565b61021e6103fb3660046110fd565b610972565b6102dd610983565b61026f61041636600461120b565b610991565b61024f6109ca565b61026f61043136600461103b565b6109d9565b60006104496104436105ef565b83610a25565b90505b919050565b60006104603386868686610a86565b95945050505050565b6002546001600160a01b031681565b6000546001600160a01b031633146104ab5760405162461bcd60e51b81526004016104a290611357565b60405180910390fd5b600a805460ff19169215159290921761ff00191661010091151591909102179055565b6000806104d96105ef565b90506000806104e883866113e1565b90505b806104f78360016113c9565b1015610540576000600261050b83856113c9565b61051591906113e1565b905060006105238583610a25565b90508681111561053557819250610539565b8193505b50506104eb565b509392505050565b6001546001600160a01b031681565b60075481565b6004546001600160a01b0316331461057457600080fd5b60648160ff16111561058557600080fd5b6004805460ff909216600160a01b0260ff60a01b19909216919091179055565b60006105b333858585610972565b949350505050565b60085481565b60006105b333858585610451565b600854151590565b6000546001600160a01b031681565b600a5460ff1681565b60006105fa426106c3565b905090565b61060c3385858585610782565b50505050565b6004546001600160a01b031681565b600454600160a01b900460ff1681565b6000546001600160a01b0316331461065b5760405162461bcd60e51b81526004016104a290611357565b61066b6106666105ef565b610b2f565b600891909155600955565b6000610449600654836106899190611484565b6106916105ef565b61044391906114a3565b600454600090612710906106b990600160a01b900460ff1684611484565b61044991906113e1565b60006106cd6105cf565b15610734576000600754836106e291906114a3565b90506000600954600854836106f791906113e1565b6107019190611401565b90506000816005546107139190611388565b9050600081121561072a576000935050505061044c565b925061044c915050565b5060055461044c565b6004546001600160a01b0316331461075457600080fd5b600480546001600160a01b0319166001600160a01b0392909216919091179055565b60095481565b60065481565b6001546001600160a01b03163314806107a35750336001600160a01b038616145b6107ac57600080fd5b6003546001600160a01b03868116911614156107d4576107ce84848484610b38565b506107f6565b6002546001600160a01b0386811691161415610206576107f684848484610d35565b5050505050565b6000546001600160a01b031633146108275760405162461bcd60e51b81526004016104a290611357565b60405163a9059cbb60e01b815283906001600160a01b0382169063a9059cbb906108579086908690600401611301565b602060405180830381600087803b15801561087157600080fd5b505af1158015610885573d6000803e3d6000fd5b505050506040513d601f19601f820116820180604052508101906108a99190611155565b61060c5760405162461bcd60e51b81526004016104a29061132e565b6000806108d183610676565b90506108dc8161069b565b6108e690826114a3565b9392505050565b6000546001600160a01b031633146109175760405162461bcd60e51b81526004016104a290611357565b600080546040516001600160a01b03808516939216917f8be0079c531659141344cd1fd0a4f28419497f9722a3daafe3b4186f6b6457e091a3600080546001600160a01b0319166001600160a01b0392909216919091179055565b600061046033868660008787610d58565b600a54610100900460ff1681565b6000546001600160a01b031633146109bb5760405162461bcd60e51b81526004016104a290611357565b6109c482610b2f565b60065550565b6003546001600160a01b031681565b6000546001600160a01b03163314610a035760405162461bcd60e51b81526004016104a290611357565b600180546001600160a01b0319166001600160a01b0392909216919091179055565b600081610a3457506000610a80565b600654600090610a456001856114a3565b610a4f9190611484565b610a5990856113c9565b9050826002610a6883876113c9565b610a7291906113e1565b610a7c9190611484565b9150505b92915050565b6003546040516323b872dd60e01b81526000916001600160a01b03169081906323b872dd90610abd908a9030908a9060040161128b565b602060405180830381600087803b158015610ad757600080fd5b505af1158015610aeb573d6000803e3d6000fd5b505050506040513d601f19601f82011682018060405250810190610b0f9190611155565b610b1857600080fd5b610b2486868686610b38565b979650505050505050565b60055542600755565b600a54600090610100900460ff16610b4f57600080fd5b6000610b5a85610676565b6002549091506001600160a01b03166000610b748361069b565b90508015610c09576004805460405163a9059cbb60e01b81526001600160a01b038086169363a9059cbb93610bae93921691869101611301565b602060405180830381600087803b158015610bc857600080fd5b505af1158015610bdc573d6000803e3d6000fd5b505050506040513d601f19601f82011682018060405250810190610c009190611155565b610c0957600080fd5b6001600160a01b03821663a9059cbb89610c2384876114a3565b6040518363ffffffff1660e01b8152600401610c40929190611301565b602060405180830381600087803b158015610c5a57600080fd5b505af1158015610c6e573d6000803e3d6000fd5b505050506040513d601f19601f82011682018060405250810190610c929190611155565b610c9b57600080fd5b600654610ca89088611484565b60056000828254610cb991906114a3565b90915550506003546001600160a01b03167f424641a08047715d4b70195e1d90818d302683d9f65f41910ca13f5a486d37cc898888610cf78c6114ba565b6002546001600160a01b03168988610d0d6105ef565b604051610d219897969594939291906112af565b60405180910390a250909695505050505050565b6000610d40846104ce565b9050610d50858683878787610d58565b505050505050565b600a5460009060ff16610d6a57600080fd5b6000610d7586610436565b6002549091506001600160a01b031685821115610e25576001600160a01b0381166323b872dd8a30610da78a876114a3565b6040518463ffffffff1660e01b8152600401610dc59392919061128b565b602060405180830381600087803b158015610ddf57600080fd5b505af1158015610df3573d6000803e3d6000fd5b505050506040513d601f19601f82011682018060405250810190610e179190611155565b610e2057600080fd5b610ebf565b85821015610ebf576001600160a01b03811663a9059cbb8a610e47858a6114a3565b6040518363ffffffff1660e01b8152600401610e64929190611301565b602060405180830381600087803b158015610e7e57600080fd5b505af1158015610e92573d6000803e3d6000fd5b505050506040513d601f19601f82011682018060405250810190610eb69190611155565b610ebf57600080fd5b60035460405163a9059cbb60e01b81526001600160a01b0390911690819063a9059cbb90610ef3908c908c90600401611301565b602060405180830381600087803b158015610f0d57600080fd5b505af1158015610f21573d6000803e3d6000fd5b505050506040513d601f19601f82011682018060405250810190610f459190611155565b610f4e57600080fd5b600654610f5b9089611484565b600554610f6891906113c9565b6005556003546002546001600160a01b03918216917f424641a08047715d4b70195e1d90818d302683d9f65f41910ca13f5a486d37cc918d918a918a918e9116896000610fb36105ef565b604051610fc79897969594939291906112af565b60405180910390a2509098975050505050505050565b80356001600160a01b038116811461044c57600080fd5b60008083601f840112611005578182fd5b50813567ffffffffffffffff81111561101c578182fd5b60208301915083602082850101111561103457600080fd5b9250929050565b60006020828403121561104c578081fd5b6108e682610fdd565b600080600060608486031215611069578182fd5b61107284610fdd565b925061108060208501610fdd565b9150604084013590509250925092565b6000806000806000608086880312156110a7578081fd5b6110b086610fdd565b94506110be60208701610fdd565b935060408601359250606086013567ffffffffffffffff8111156110e0578182fd5b6110ec88828901610ff4565b969995985093965092949392505050565b60008060008060608587031215611112578384fd5b61111b85610fdd565b935060208501359250604085013567ffffffffffffffff81111561113d578283fd5b61114987828801610ff4565b95989497509550505050565b600060208284031215611166578081fd5b81516108e6816114ea565b60008060408385031215611183578182fd5b823561118e816114ea565b9150602083013561119e816114ea565b809150509250929050565b6000602082840312156111ba578081fd5b5035919050565b6000806000604084860312156111d5578283fd5b83359250602084013567ffffffffffffffff8111156111f2578283fd5b6111fe86828701610ff4565b9497909650939450505050565b6000806040838503121561121d578182fd5b50508035926020909101359150565b60006020828403121561123d578081fd5b813560ff811681146108e6578182fd5b60008284528282602086013780602084860101526020601f19601f85011685010190509392505050565b6001600160a01b0391909116815260200190565b6001600160a01b039384168152919092166020820152604081019190915260600190565b600060018060a01b03808b16835260e060208401526112d260e084018a8c61124d565b6040840198909852959095166060820152608081019390935260a083019190915260c090910152509392505050565b6001600160a01b03929092168252602082015260400190565b901515815260200190565b90815260200190565b6020808252600f908201526e151c985b9cd9995c8819985a5b1959608a1b604082015260600190565b6020808252600990820152683737ba1037bbb732b960b91b604082015260600190565b60ff91909116815260200190565b600080821280156001600160ff1b03849003851316156113aa576113aa6114d4565b600160ff1b83900384128116156113c3576113c36114d4565b50500190565b600082198211156113dc576113dc6114d4565b500190565b6000826113fc57634e487b7160e01b81526012600452602481fd5b500490565b60006001600160ff1b0381841382841380821686840486111615611427576114276114d4565b600160ff1b84871282811687830589121615611445576114456114d4565b858712925087820587128484161615611460576114606114d4565b87850587128184161615611476576114766114d4565b505050929093029392505050565b600081600019048311821515161561149e5761149e6114d4565b500290565b6000828210156114b5576114b56114d4565b500390565b6000600160ff1b8214156114d0576114d06114d4565b0390565b634e487b7160e01b600052601160045260246000fd5b80151581146114f857600080fd5b5056fea26469706673582212201cf616f52b5eb95fddc97be775d9f5cc5a8003d4bed9d2b5b0f48e5ce63d2a6264736f6c634300080100338be0079c531659141344cd1fd0a4f28419497f9722a3daafe3b4186f6b6457e0",
    "sourcePath": "c:/Users/luziu/Documents/aktionariat/contracts/src/Market.sol",
    "compiler": {
        "name": "solc",
        "version": "0.8.1+commit.df193b15"
    },
    "functionHashes": {
        "base()": "5001f3b5",
        "buy(address,uint256,bytes)": "f496a610",
        "buy(uint256,bytes)": "82189551",
        "buyingEnabled()": "8ed2fe91",
        "copyright()": "a63ae9c7",
        "driftIncrement()": "c7780ab2",
        "driftStart()": "7ff6c191",
        "getBuyPrice(uint256)": "08d4db14",
        "getPrice()": "98d5fdca",
        "getPriceAtTime(uint256)": "bf13d438",
        "getSaleFee(uint256)": "ba8f1b69",
        "getSaleProceeds(uint256)": "e21ae432",
        "getSellPrice(uint256)": "ba730e53",
        "getShares(uint256)": "6f7267b7",
        "hasDrift()": "8a07d3d0",
        "increment()": "d09de08a",
        "licenseFeeBps()": "a6c677f6",
        "onTokenTransfer(address,address,uint256,bytes)": "d7e06ca8",
        "onTokenTransfer(address,uint256,bytes)": "a4c0ed36",
        "owner()": "8da5cb5b",
        "paymenthub()": "777adcf0",
        "sell(address,uint256,bytes)": "19f4d6b7",
        "sell(uint256,bytes)": "88bbbe35",
        "sellingEnabled()": "f771cb65",
        "setCopyright(address)": "c3b929f7",
        "setDrift(uint256,int256)": "afaefe9e",
        "setEnabled(bool,bool)": "5c627935",
        "setLicenseFee(uint8)": "80aa0df7",
        "setPaymentHub(address)": "fff4da1f",
        "setPrice(uint256,uint256)": "f7d97577",
        "timeToDrift()": "84b41fda",
        "token()": "fc0c546a",
        "transferOwnership(address)": "f2fde38b",
        "withdraw(address,address,uint256)": "d9caed12"
    },
    "gasEstimates": {
        "creation": {
            "codeDepositCost": "1085000",
            "executionCost": "infinite",
            "totalCost": "infinite"
        },
        "external": {
            "base()": "1161",
            "buy(address,uint256,bytes)": "infinite",
            "buy(uint256,bytes)": "infinite",
            "buyingEnabled()": "1107",
            "copyright()": "1203",
            "driftIncrement()": "1117",
            "driftStart()": "1118",
            "getBuyPrice(uint256)": "infinite",
            "getPrice()": "5103",
            "getPriceAtTime(uint256)": "5099",
            "getSaleFee(uint256)": "1415",
            "getSaleProceeds(uint256)": "infinite",
            "getSellPrice(uint256)": "infinite",
            "getShares(uint256)": "infinite",
            "hasDrift()": "1152",
            "increment()": "1139",
            "licenseFeeBps()": "1109",
            "onTokenTransfer(address,address,uint256,bytes)": "infinite",
            "onTokenTransfer(address,uint256,bytes)": "infinite",
            "owner()": "1115",
            "paymenthub()": "1138",
            "sell(address,uint256,bytes)": "infinite",
            "sell(uint256,bytes)": "infinite",
            "sellingEnabled()": "1117",
            "setCopyright(address)": "22078",
            "setDrift(uint256,int256)": "71015",
            "setEnabled(bool,bool)": "infinite",
            "setLicenseFee(uint8)": "22107",
            "setPaymentHub(address)": "22143",
            "setPrice(uint256,uint256)": "61212",
            "timeToDrift()": "1096",
            "token()": "1180",
            "transferOwnership(address)": "24476",
            "withdraw(address,address,uint256)": "infinite"
        },
        "internal": {
            "_buy(address,address,uint256,uint256,bytes calldata)": "infinite",
            "_notifyMoneyReceived(address,uint256,bytes calldata)": "infinite",
            "_notifyTokensReceived(address,uint256,bytes calldata)": "infinite",
            "_sell(address,address,uint256,bytes calldata)": "infinite",
            "anchorPrice(uint256)": "40017",
            "getPrice(uint256,uint256)": "infinite"
        }
    }
}