{
    "contractName": "MarketMakerFactory",
    "abi": [
        {
            "anonymous": false,
            "inputs": [
                {
                    "indexed": false,
                    "internalType": "address",
                    "name": "contractAddress",
                    "type": "address"
                }
            ],
            "name": "ContractDeployed",
            "type": "event"
        },
        {
            "inputs": [
                {
                    "internalType": "bytes32",
                    "name": "salt",
                    "type": "bytes32"
                },
                {
                    "internalType": "address",
                    "name": "baseCurrency",
                    "type": "address"
                },
                {
                    "internalType": "address",
                    "name": "shareToken",
                    "type": "address"
                }
            ],
            "name": "create",
            "outputs": [
                {
                    "internalType": "address",
                    "name": "",
                    "type": "address"
                }
            ],
            "stateMutability": "nonpayable",
            "type": "function"
        }
    ],
    "bytecode": "608060405234801561001057600080fd5b50611f8c806100206000396000f3fe608060405234801561001057600080fd5b506004361061002b5760003560e01c80637da9767714610030575b600080fd5b6100646004803603606081101561004657600080fd5b508035906001600160a01b0360208201358116916040013516610080565b604080516001600160a01b039092168252519081900360200190f35b60008084604051610090906101d0565b8190604051809103906000f59050801580156100b0573d6000803e3d6000fd5b509050806001600160a01b031663485cc95585856040518363ffffffff1660e01b815260040180836001600160a01b03168152602001826001600160a01b0316815260200192505050600060405180830381600087803b15801561011357600080fd5b505af1158015610127573d6000803e3d6000fd5b5050604080516001600160a01b038516815290517f8ffcdc15a283d706d38281f500270d8b5a656918f555de0913d7455e3e6bc1bf9350908190036020019150a16040805163f2fde38b60e01b815233600482015290516001600160a01b0383169163f2fde38b91602480830192600092919082900301818387803b1580156101af57600080fd5b505af11580156101c3573d6000803e3d6000fd5b5092979650505050505050565b611d79806101de8339019056fe60806040526009805461ff001960ff199091166001171661010017905534801561002857600080fd5b50600080546001600160a01b03191633178082556040516001600160a01b039190911691907f8be0079c531659141344cd1fd0a4f28419497f9722a3daafe3b4186f6b6457e0908290a3611cf8806100816000396000f3fe6080604052600436106102045760003560e01c8063a4c0ed3611610118578063d09de08a116100a0578063f2fde38b1161006f578063f2fde38b14610860578063f496a61014610893578063f771cb6514610923578063f7d9757714610938578063fc0c546a1461096857610204565b8063d09de08a146107b4578063d9caed12146107c9578063e21ae4321461080c578063e75722301461083657610204565b8063afaefe9e116100e7578063afaefe9e146106e8578063ba730e5314610718578063ba8f1b6914610742578063c3b929f71461076c578063c7780ab21461079f57610204565b8063a4c0ed36146105ee578063a63ae9c71461067e578063a6c677f614610693578063ae539d80146106be57610204565b80637ff6c1911161019b57806388bbbe351161016a57806388bbbe35146105045780638a07d3d0146105865780638da5cb5b146105af5780638ed2fe91146105c457806398d5fdca146105d957610204565b80637ff6c1911461042b57806380aa0df714610440578063821895511461046d57806384b41fda146104ef57610204565b8063485cc955116101d7578063485cc9551461037b5780635001f3b5146103b85780635c627935146103cd5780636f7267b71461040157610204565b806308d4db141461020957806319f4d6b7146102455780632535a65a146102d55780633fc8cef31461034a575b600080fd5b34801561021557600080fd5b506102336004803603602081101561022c57600080fd5b503561097d565b60408051918252519081900360200190f35b34801561025157600080fd5b506102336004803603606081101561026857600080fd5b6001600160a01b0382351691602081013591810190606081016040820135600160201b81111561029757600080fd5b8201836020820111156102a957600080fd5b803590602001918460018302840111600160201b831117156102ca57600080fd5b509092509050610998565b610233600480360360408110156102eb57600080fd5b81359190810190604081016020820135600160201b81111561030c57600080fd5b82018360208201111561031e57600080fd5b803590602001918460018302840111600160201b8311171561033f57600080fd5b5090925090506109c5565b34801561035657600080fd5b5061035f610c9e565b604080516001600160a01b039092168252519081900360200190f35b34801561038757600080fd5b506103b66004803603604081101561039e57600080fd5b506001600160a01b0381358116916020013516610cb3565b005b3480156103c457600080fd5b5061035f610e05565b3480156103d957600080fd5b506103b6600480360360408110156103f057600080fd5b508035151590602001351515610e14565b34801561040d57600080fd5b506102336004803603602081101561042457600080fd5b5035610e82565b34801561043757600080fd5b50610233610e90565b34801561044c57600080fd5b506103b66004803603602081101561046357600080fd5b503560ff16610e96565b34801561047957600080fd5b506102336004803603604081101561049057600080fd5b81359190810190604081016020820135600160201b8111156104b157600080fd5b8201836020820111156104c357600080fd5b803590602001918460018302840111600160201b831117156104e457600080fd5b509092509050610ede565b3480156104fb57600080fd5b50610233610f04565b34801561051057600080fd5b506102336004803603604081101561052757600080fd5b81359190810190604081016020820135600160201b81111561054857600080fd5b82018360208201111561055a57600080fd5b803590602001918460018302840111600160201b8311171561057b57600080fd5b509092509050610f0a565b34801561059257600080fd5b5061059b610f2d565b604080519115158252519081900360200190f35b3480156105bb57600080fd5b5061035f610f35565b3480156105d057600080fd5b5061059b610f44565b3480156105e557600080fd5b50610233610f4d565b3480156105fa57600080fd5b5061059b6004803603606081101561061157600080fd5b6001600160a01b0382351691602081013591810190606081016040820135600160201b81111561064057600080fd5b82018360208201111561065257600080fd5b803590602001918460018302840111600160201b8311171561067357600080fd5b509092509050610f5d565b34801561068a57600080fd5b5061035f610fdb565b34801561069f57600080fd5b506106a8610fea565b6040805160ff9092168252519081900360200190f35b3480156106ca57600080fd5b50610233600480360360208110156106e157600080fd5b5035610ffa565b3480156106f457600080fd5b506103b66004803603604081101561070b57600080fd5b5080359060200135611207565b34801561072457600080fd5b506102336004803603602081101561073b57600080fd5b503561126d565b34801561074e57600080fd5b506102336004803603602081101561076557600080fd5b5035611298565b34801561077857600080fd5b506103b66004803603602081101561078f57600080fd5b50356001600160a01b03166112c1565b3480156107ab57600080fd5b506102336112fa565b3480156107c057600080fd5b50610233611300565b3480156107d557600080fd5b506103b6600480360360608110156107ec57600080fd5b506001600160a01b03813581169160208101359091169060400135611306565b34801561081857600080fd5b506102336004803603602081101561082f57600080fd5b5035611419565b34801561084257600080fd5b506102336004803603602081101561085957600080fd5b5035611438565b34801561086c57600080fd5b506103b66004803603602081101561088357600080fd5b50356001600160a01b0316611495565b34801561089f57600080fd5b50610233600480360360608110156108b657600080fd5b6001600160a01b0382351691602081013591810190606081016040820135600160201b8111156108e557600080fd5b8201836020820111156108f757600080fd5b803590602001918460018302840111600160201b8311171561091857600080fd5b50909250905061153b565b34801561092f57600080fd5b5061059b61155c565b34801561094457600080fd5b506103b66004803603604081101561095b57600080fd5b508035906020013561156a565b34801561097457600080fd5b5061035f6115c4565b600061099061098a610f4d565b836115d3565b90505b919050565b600954600090610100900460ff166109af57600080fd5b6109bc3386868686611629565b95945050505050565b60095460009060ff166109d757600080fd5b60006109e28561097d565b905060006109ef86610ffa565b604080516002808252606080830184529394509091602083019080368337019050509050600960029054906101000a90046001600160a01b031681600081518110610a3657fe5b6001600160a01b0392831660209182029290920101526001805483519216918391908110610a6057fe5b60200260200101906001600160a01b031690816001600160a01b0316815250506060737a250d5630b4cf539739df2c5dacb4c659f2488d6001600160a01b031663fb3bdb4184868530426040518663ffffffff1660e01b81526004018085815260200180602001846001600160a01b03168152602001838152602001828103825285818151815260200191508051906020019060200280838360005b83811015610b14578181015183820152602001610afc565b50505050905001955050505050506000604051808303818588803b158015610b3b57600080fd5b505af1158015610b4f573d6000803e3d6000fd5b50505050506040513d6000823e601f3d908101601f191682016040526020811015610b7957600080fd5b8101908080516040519392919084600160201b821115610b9857600080fd5b908301906020820185811115610bad57600080fd5b82518660208202830111600160201b82111715610bc957600080fd5b82525081516020918201928201910280838360005b83811015610bf6578181015183820152602001610bde565b50505050905001604052505050905080600181518110610c1257fe5b60200260200101518414610c2257fe5b610c4433338a84600181518110610c3557fe5b60200260200101518b8b6116d5565b50478015610c7b57604051339082156108fc029083906000818181858888f19350505050158015610c79573d6000803e3d6000fd5b505b81600081518110610c8857fe5b6020026020010151955050505050509392505050565b6009546201000090046001600160a01b031681565b6002546001600160a01b031615610d08576040805162461bcd60e51b815260206004820152601460248201527320b63932b0b23c9034b734ba34b0b634bd32b21760611b604482015290519081900360640190fd5b600180546001600160a01b038085166001600160a01b0319928316179092556002805492841692909116919091179055604080516315ab88c960e31b81529051737a250d5630b4cf539739df2c5dacb4c659f2488d9163ad5c4648916004808301926020929190829003018186803b158015610d8357600080fd5b505afa158015610d97573d6000803e3d6000fd5b505050506040513d6020811015610dad57600080fd5b5051600980546001600160a01b03909216620100000262010000600160b01b03199092169190911790555050600380546001600160a01b0319167329fe8914e76da5ce2d90de98a64d0055f199d06d17905542600655565b6001546001600160a01b031681565b6000546001600160a01b03163314610e5f576040805162461bcd60e51b81526020600482015260096024820152683737ba1037bbb732b960b91b604482015290519081900360640190fd5b6009805460ff19169215159290921761ff00191661010091151591909102179055565b6000610990826004546119be565b60065481565b6003546001600160a01b03163314610ead57600080fd5b60648160ff161115610ebe57600080fd5b6003805460ff909216600160a01b0260ff60a01b19909216919091179055565b60095460009060ff16610ef057600080fd5b610efc3385858561153b565b949350505050565b60075481565b600954600090610100900460ff16610f2157600080fd5b610efc33858585610998565b600754151590565b6000546001600160a01b031681565b60095460ff1681565b6000610f5842611438565b905090565b6002546000906001600160a01b0316331480610f8357506001546001600160a01b031633145b610f8c57600080fd5b6002546001600160a01b0316331415610fb157610fab85858585611a10565b50610fd0565b6001546001600160a01b031633141561020457610fd085858585611c3f565b506001949350505050565b6003546001600160a01b031681565b600354600160a01b900460ff1681565b6000806110068361097d565b604080516002808252606080830184529394509091602083019080368337019050509050600960029054906101000a90046001600160a01b03168160008151811061104d57fe5b6001600160a01b039283166020918202929092010152600180548351921691839190811061107757fe5b6001600160a01b03909216602092830291909101820152604080516307c0329d60e21b81526004810185815260248201928352845160448301528451737a250d5630b4cf539739df2c5dacb4c659f2488d94631f00ca749488948894939192606490910191858201910280838360005b838110156110ff5781810151838201526020016110e7565b50505050905001935050505060006040518083038186803b15801561112357600080fd5b505afa158015611137573d6000803e3d6000fd5b505050506040513d6000823e601f3d908101601f19168201604052602081101561116057600080fd5b8101908080516040519392919084600160201b82111561117f57600080fd5b90830190602082018581111561119457600080fd5b82518660208202830111600160201b821117156111b057600080fd5b82525081516020918201928201910280838360005b838110156111dd5781810151838201526020016111c5565b505050509050016040525050506000815181106111f657fe5b602002602001015192505050919050565b6000546001600160a01b03163314611252576040805162461bcd60e51b81526020600482015260096024820152683737ba1037bbb732b960b91b604482015290519081900360640190fd5b61126261125d610f4d565b611c62565b600791909155600855565b600061099061098a61128a60055485611c6b90919063ffffffff16565b611292610f4d565b90611c90565b60035460009061099090612710906112bb908590600160a01b900460ff16611c6b565b90611ca2565b6003546001600160a01b031633146112d857600080fd5b600380546001600160a01b0319166001600160a01b0392909216919091179055565b60085481565b60055481565b6000546001600160a01b03163314611351576040805162461bcd60e51b81526020600482015260096024820152683737ba1037bbb732b960b91b604482015290519081900360640190fd5b6040805163a9059cbb60e01b81526001600160a01b038481166004830152602482018490529151859283169163a9059cbb9160448083019260209291908290030181600087803b1580156113a457600080fd5b505af11580156113b8573d6000803e3d6000fd5b505050506040513d60208110156113ce57600080fd5b5051611413576040805162461bcd60e51b815260206004820152600f60248201526e151c985b9cd9995c8819985a5b1959608a1b604482015290519081900360640190fd5b50505050565b6000806114258361126d565b905061143081611298565b900392915050565b6000611442610f2d565b1561148c576000600654830390506000600854600754838161146057fe5b0402905060008160045401905060008112156114825760009350505050610993565b9250610993915050565b50600454610993565b6000546001600160a01b031633146114e0576040805162461bcd60e51b81526020600482015260096024820152683737ba1037bbb732b960b91b604482015290519081900360640190fd5b600080546040516001600160a01b03808516939216917f8be0079c531659141344cd1fd0a4f28419497f9722a3daafe3b4186f6b6457e091a3600080546001600160a01b0319166001600160a01b0392909216919091179055565b60095460009060ff1661154d57600080fd5b6109bc338686600087876116d5565b600954610100900460ff1681565b6000546001600160a01b031633146115b5576040805162461bcd60e51b81526020600482015260096024820152683737ba1037bbb732b960b91b604482015290519081900360640190fd5b6115be82611c62565b60055550565b6002546001600160a01b031681565b600060018210156115e357600080fd5b60006115fd60055460018503611c6b90919063ffffffff16565b8401905061161f8360026116118785611cb5565b8161161857fe5b0490611c6b565b9150505b92915050565b600254604080516323b872dd60e01b81526001600160a01b038881166004830152306024830152604482018790529151600093929092169182916323b872dd91606480830192602092919082900301818887803b15801561168957600080fd5b505af115801561169d573d6000803e3d6000fd5b505050506040513d60208110156116b357600080fd5b50516116be57600080fd5b6116ca86868686611a10565b979650505050505050565b6000806116e18661097d565b6001549091506001600160a01b03168582111561178c57604080516323b872dd60e01b81526001600160a01b038b8116600483015230602483015288850360448301529151918316916323b872dd916064808201926020929091908290030181600087803b15801561175257600080fd5b505af1158015611766573d6000803e3d6000fd5b505050506040513d602081101561177c57600080fd5b505161178757600080fd5b611822565b8582101561182257806001600160a01b031663a9059cbb8a8489036040518363ffffffff1660e01b815260040180836001600160a01b0316815260200182815260200192505050602060405180830381600087803b1580156117ed57600080fd5b505af1158015611801573d6000803e3d6000fd5b505050506040513d602081101561181757600080fd5b505161182257600080fd5b6002546040805163a9059cbb60e01b81526001600160a01b038b81166004830152602482018b905291519190921691829163a9059cbb916044808201926020929091908290030181600087803b15801561187b57600080fd5b505af115801561188f573d6000803e3d6000fd5b505050506040513d60208110156118a557600080fd5b50516118b057600080fd5b6118d16118c86005548a611c6b90919063ffffffff16565b60045490611cb5565b600481905550600260009054906101000a90046001600160a01b03166001600160a01b03167f424641a08047715d4b70195e1d90818d302683d9f65f41910ca13f5a486d37cc8b88888c600160009054906101000a90046001600160a01b031689600060045460405180896001600160a01b0316815260200180602001878152602001866001600160a01b031681526020018581526020018481526020018381526020018281038252898982818152602001925080828437600083820152604051601f909101601f19169092018290039b50909950505050505050505050a2509098975050505050505050565b6000818310156119d057506000611623565b60006001830384816119de57fe5b60055491900491508102830360006119f682846115d3565b9050611a04818703836119be565b83019350505050611623565b600080611a1c8561126d565b6001549091506001600160a01b03166000611a3683611298565b90508015611ac9576003546040805163a9059cbb60e01b81526001600160a01b0392831660048201526024810184905290519184169163a9059cbb916044808201926020929091908290030181600087803b158015611a9457600080fd5b505af1158015611aa8573d6000803e3d6000fd5b505050506040513d6020811015611abe57600080fd5b5051611ac957600080fd5b816001600160a01b031663a9059cbb898386036040518363ffffffff1660e01b815260040180836001600160a01b0316815260200182815260200192505050602060405180830381600087803b158015611b2257600080fd5b505af1158015611b36573d6000803e3d6000fd5b505050506040513d6020811015611b4c57600080fd5b5051611b5757600080fd5b611b78611b6f60055489611c6b90919063ffffffff16565b60045490611c90565b6004819055600254600154604080516001600160a01b038d8116825260008d9003928201839052928316606082018190526080820189905260a0820187905260c0820186905260e0602083018181529083018c905293909416947f424641a08047715d4b70195e1d90818d302683d9f65f41910ca13f5a486d37cc948e948d948d9490938c928b92906101008201898980828437600083820152604051601f909101601f19169092018290039b50909950505050505050505050a250909695505050505050565b6000611c4a84610e82565b9050611c5a8586838787876116d5565b505050505050565b60045542600655565b600082611c7a57506000611623565b5081810281838281611c8857fe5b041461162357fe5b600082821115611c9c57fe5b50900390565b6000818381611cad57fe5b049392505050565b8181018281101561162357fefea2646970667358221220e9af535c56821211573d409ff0ed5606c5b184eacc59ed7e7a2d4a5fa236359264736f6c63430007040033a2646970667358221220a15dc93edfbb7ce45f26819cba825f3cf872b0d8ec8897013e46851fc106496964736f6c63430007040033",
    "sourcePath": "/Volumes/SSD/Repositories/aktionariat/contracts/src/MarketMakerFactory.sol",
    "compiler": {
        "name": "solc",
        "version": "0.7.4+commit.3f05b770"
    },
    "functionHashes": {
        "create(bytes32,address,address)": "7da97677"
    },
    "gasEstimates": {
        "creation": {
            "codeDepositCost": "1615200",
            "executionCost": "1694",
            "totalCost": "1616894"
        },
        "external": {
            "create(bytes32,address,address)": "infinite"
        }
    }
}