{
    "contractName": "Market",
    "abi": [
        {
            "inputs": [
                {
                    "internalType": "address",
                    "name": "shareToken",
                    "type": "address"
                },
                {
                    "internalType": "uint256",
                    "name": "price_",
                    "type": "uint256"
                },
                {
                    "internalType": "uint256",
                    "name": "increment_",
                    "type": "uint256"
                },
                {
                    "internalType": "address",
                    "name": "baseCurrency",
                    "type": "address"
                },
                {
                    "internalType": "address",
                    "name": "owner",
                    "type": "address"
                }
            ],
            "stateMutability": "nonpayable",
            "type": "constructor"
        },
        {
            "anonymous": false,
            "inputs": [
                {
                    "indexed": true,
                    "internalType": "address",
                    "name": "previousOwner",
                    "type": "address"
                },
                {
                    "indexed": true,
                    "internalType": "address",
                    "name": "newOwner",
                    "type": "address"
                }
            ],
            "name": "OwnershipTransferred",
            "type": "event"
        },
        {
            "anonymous": false,
            "inputs": [
                {
                    "indexed": true,
                    "internalType": "address",
                    "name": "token",
                    "type": "address"
                },
                {
                    "indexed": false,
                    "internalType": "address",
                    "name": "who",
                    "type": "address"
                },
                {
                    "indexed": false,
                    "internalType": "bytes",
                    "name": "ref",
                    "type": "bytes"
                },
                {
                    "indexed": false,
                    "internalType": "int256",
                    "name": "amount",
                    "type": "int256"
                },
                {
                    "indexed": false,
                    "internalType": "address",
                    "name": "base",
                    "type": "address"
                },
                {
                    "indexed": false,
                    "internalType": "uint256",
                    "name": "totPrice",
                    "type": "uint256"
                },
                {
                    "indexed": false,
                    "internalType": "uint256",
                    "name": "fee",
                    "type": "uint256"
                },
                {
                    "indexed": false,
                    "internalType": "uint256",
                    "name": "newprice",
                    "type": "uint256"
                }
            ],
            "name": "Trade",
            "type": "event"
        },
        {
            "inputs": [],
            "name": "base",
            "outputs": [
                {
                    "internalType": "address",
                    "name": "",
                    "type": "address"
                }
            ],
            "stateMutability": "view",
            "type": "function"
        },
        {
            "inputs": [],
            "name": "buyingEnabled",
            "outputs": [
                {
                    "internalType": "bool",
                    "name": "",
                    "type": "bool"
                }
            ],
            "stateMutability": "view",
            "type": "function"
        },
        {
            "inputs": [],
            "name": "copyright",
            "outputs": [
                {
                    "internalType": "address",
                    "name": "",
                    "type": "address"
                }
            ],
            "stateMutability": "view",
            "type": "function"
        },
        {
            "inputs": [],
            "name": "driftIncrement",
            "outputs": [
                {
                    "internalType": "int256",
                    "name": "",
                    "type": "int256"
                }
            ],
            "stateMutability": "view",
            "type": "function"
        },
        {
            "inputs": [],
            "name": "driftStart",
            "outputs": [
                {
                    "internalType": "uint256",
                    "name": "",
                    "type": "uint256"
                }
            ],
            "stateMutability": "view",
            "type": "function"
        },
        {
            "inputs": [
                {
                    "internalType": "uint256",
                    "name": "shares",
                    "type": "uint256"
                }
            ],
            "name": "getBuyPrice",
            "outputs": [
                {
                    "internalType": "uint256",
                    "name": "",
                    "type": "uint256"
                }
            ],
            "stateMutability": "view",
            "type": "function"
        },
        {
            "inputs": [
                {
                    "internalType": "uint256",
                    "name": "totPrice",
                    "type": "uint256"
                }
            ],
            "name": "getLicenseFee",
            "outputs": [
                {
                    "internalType": "uint256",
                    "name": "",
                    "type": "uint256"
                }
            ],
            "stateMutability": "view",
            "type": "function"
        },
        {
            "inputs": [],
            "name": "getPrice",
            "outputs": [
                {
                    "internalType": "uint256",
                    "name": "",
                    "type": "uint256"
                }
            ],
            "stateMutability": "view",
            "type": "function"
        },
        {
            "inputs": [
                {
                    "internalType": "uint256",
                    "name": "timestamp",
                    "type": "uint256"
                }
            ],
            "name": "getPriceAtTime",
            "outputs": [
                {
                    "internalType": "uint256",
                    "name": "",
                    "type": "uint256"
                }
            ],
            "stateMutability": "view",
            "type": "function"
        },
        {
            "inputs": [
                {
                    "internalType": "uint256",
                    "name": "shares",
                    "type": "uint256"
                }
            ],
            "name": "getSellPrice",
            "outputs": [
                {
                    "internalType": "uint256",
                    "name": "",
                    "type": "uint256"
                }
            ],
            "stateMutability": "view",
            "type": "function"
        },
        {
            "inputs": [
                {
                    "internalType": "uint256",
                    "name": "money",
                    "type": "uint256"
                }
            ],
            "name": "getShares",
            "outputs": [
                {
                    "internalType": "uint256",
                    "name": "",
                    "type": "uint256"
                }
            ],
            "stateMutability": "view",
            "type": "function"
        },
        {
            "inputs": [],
            "name": "hasDrift",
            "outputs": [
                {
                    "internalType": "bool",
                    "name": "",
                    "type": "bool"
                }
            ],
            "stateMutability": "view",
            "type": "function"
        },
        {
            "inputs": [],
            "name": "increment",
            "outputs": [
                {
                    "internalType": "uint256",
                    "name": "",
                    "type": "uint256"
                }
            ],
            "stateMutability": "view",
            "type": "function"
        },
        {
            "inputs": [
                {
                    "internalType": "address",
                    "name": "from",
                    "type": "address"
                },
                {
                    "internalType": "uint256",
                    "name": "amount",
                    "type": "uint256"
                },
                {
                    "internalType": "bytes",
                    "name": "ref",
                    "type": "bytes"
                }
            ],
            "name": "onTokenTransfer",
            "outputs": [
                {
                    "internalType": "bool",
                    "name": "",
                    "type": "bool"
                }
            ],
            "stateMutability": "nonpayable",
            "type": "function"
        },
        {
            "inputs": [],
            "name": "owner",
            "outputs": [
                {
                    "internalType": "address",
                    "name": "",
                    "type": "address"
                }
            ],
            "stateMutability": "view",
            "type": "function"
        },
        {
            "inputs": [],
            "name": "paymenthub",
            "outputs": [
                {
                    "internalType": "address",
                    "name": "",
                    "type": "address"
                }
            ],
            "stateMutability": "view",
            "type": "function"
        },
        {
            "inputs": [
                {
                    "internalType": "address",
                    "name": "token_",
                    "type": "address"
                },
                {
                    "internalType": "address",
                    "name": "from",
                    "type": "address"
                },
                {
                    "internalType": "uint256",
                    "name": "amount",
                    "type": "uint256"
                },
                {
                    "internalType": "bytes",
                    "name": "ref",
                    "type": "bytes"
                }
            ],
            "name": "processIncoming",
            "outputs": [
                {
                    "internalType": "uint256",
                    "name": "",
                    "type": "uint256"
                }
            ],
            "stateMutability": "payable",
            "type": "function"
        },
        {
            "inputs": [],
            "name": "sellingEnabled",
            "outputs": [
                {
                    "internalType": "bool",
                    "name": "",
                    "type": "bool"
                }
            ],
            "stateMutability": "view",
            "type": "function"
        },
        {
            "inputs": [
                {
                    "internalType": "uint256",
                    "name": "secondsPerStep",
                    "type": "uint256"
                },
                {
                    "internalType": "int256",
                    "name": "newDriftIncrement",
                    "type": "int256"
                }
            ],
            "name": "setDrift",
            "outputs": [],
            "stateMutability": "nonpayable",
            "type": "function"
        },
        {
            "inputs": [
                {
                    "internalType": "bool",
                    "name": "newBuyingEnabled",
                    "type": "bool"
                },
                {
                    "internalType": "bool",
                    "name": "newSellingEnabled",
                    "type": "bool"
                }
            ],
            "name": "setEnabled",
            "outputs": [],
            "stateMutability": "nonpayable",
            "type": "function"
        },
        {
            "inputs": [
                {
                    "internalType": "uint8",
                    "name": "bps",
                    "type": "uint8"
                }
            ],
            "name": "setLicenseFee",
            "outputs": [],
            "stateMutability": "nonpayable",
            "type": "function"
        },
        {
            "inputs": [
                {
                    "internalType": "address",
                    "name": "hub",
                    "type": "address"
                }
            ],
            "name": "setPaymentHub",
            "outputs": [],
            "stateMutability": "nonpayable",
            "type": "function"
        },
        {
            "inputs": [
                {
                    "internalType": "uint256",
                    "name": "newPrice",
                    "type": "uint256"
                },
                {
                    "internalType": "uint256",
                    "name": "newIncrement",
                    "type": "uint256"
                }
            ],
            "name": "setPrice",
            "outputs": [],
            "stateMutability": "nonpayable",
            "type": "function"
        },
        {
            "inputs": [
                {
                    "internalType": "uint256",
                    "name": "settings_",
                    "type": "uint256"
                }
            ],
            "name": "setSettings",
            "outputs": [],
            "stateMutability": "nonpayable",
            "type": "function"
        },
        {
            "inputs": [],
            "name": "settings",
            "outputs": [
                {
                    "internalType": "uint256",
                    "name": "",
                    "type": "uint256"
                }
            ],
            "stateMutability": "view",
            "type": "function"
        },
        {
            "inputs": [],
            "name": "timeToDrift",
            "outputs": [
                {
                    "internalType": "uint256",
                    "name": "",
                    "type": "uint256"
                }
            ],
            "stateMutability": "view",
            "type": "function"
        },
        {
            "inputs": [],
            "name": "token",
            "outputs": [
                {
                    "internalType": "address",
                    "name": "",
                    "type": "address"
                }
            ],
            "stateMutability": "view",
            "type": "function"
        },
        {
            "inputs": [
                {
                    "internalType": "address",
                    "name": "newOwner",
                    "type": "address"
                }
            ],
            "name": "transferOwnership",
            "outputs": [],
            "stateMutability": "nonpayable",
            "type": "function"
        },
        {
            "inputs": [
                {
                    "internalType": "address",
                    "name": "ercAddress",
                    "type": "address"
                },
                {
                    "internalType": "address",
                    "name": "to",
                    "type": "address"
                },
                {
                    "internalType": "uint256",
                    "name": "amount",
                    "type": "uint256"
                }
            ],
            "name": "withdraw",
            "outputs": [],
            "stateMutability": "nonpayable",
            "type": "function"
        },
        {
            "inputs": [
                {
                    "internalType": "uint256",
                    "name": "amount",
                    "type": "uint256"
                }
            ],
            "name": "withdrawEther",
            "outputs": [],
            "stateMutability": "nonpayable",
            "type": "function"
        }
    ],
    "bytecode": "60c060405260036008553480156200001657600080fd5b50604051620016e9380380620016e983398101604081905262000039916200017a565b600080546001600160a01b03191633178082556040516001600160a01b03919091169190600080516020620016c9833981519152908290a36001600160601b0319606083811b821660805286901b1660a05260028490556003839055600180546001600160a01b03191690556007805460ff1916605a179055620000bd81620000c8565b5050505050620001d7565b6000546001600160a01b03163314620001135760405162461bcd60e51b81526020600482015260096024820152683737ba1037bbb732b960b91b604482015260640160405180910390fd5b600080546040516001600160a01b0380851693921691600080516020620016c983398151915291a3600080546001600160a01b0319166001600160a01b0392909216919091179055565b80516001600160a01b03811681146200017557600080fd5b919050565b600080600080600060a0868803121562000192578081fd5b6200019d866200015d565b94506020860151935060408601519250620001bb606087016200015d565b9150620001cb608087016200015d565b90509295509295909350565b60805160601c60a05160601c61148762000242600039600081816105500152818161071901528181610dde01528181610ed80152610f7c015260008181610259015281816106d70152818161076601528181610c5001528181610e2d0152610fc301526114876000f3fe6080604052600436106101cd5760003560e01c806398d5fdca116100f7578063d09de08a11610095578063f771cb6511610064578063f771cb6514610509578063f7d975771461051e578063fc0c546a1461053e578063fff4da1f14610572576101cd565b8063d09de08a1461049d578063d9caed12146104b3578063e06174e4146104d3578063f2fde38b146104e9576101cd565b8063afaefe9e116100d1578063afaefe9e14610427578063ba730e5314610447578063bf13d43814610467578063c7780ab214610487576101cd565b806398d5fdca146103ca578063a4c0ed36146103df578063a63ae9c7146103ff576101cd565b8063777adcf01161016f57806384b41fda1161013e57806384b41fda1461035c5780638a07d3d0146103725780638da5cb5b146103955780638ed2fe91146103b5576101cd565b8063777adcf0146102e65780637cd6a7fd146103065780637ff6c1911461032657806380aa0df71461033c576101cd565b80635001f3b5116101ab5780635001f3b5146102475780635c6279351461029357806369365c52146102b35780636f7267b7146102c6576101cd565b806308d4db14146101d257806321bea858146102055780633bed33ce14610225575b600080fd5b3480156101de57600080fd5b506101f26101ed3660046111e5565b610592565b6040519081526020015b60405180910390f35b34801561021157600080fd5b506101f26102203660046111e5565b6105ad565b34801561023157600080fd5b506102456102403660046111e5565b6105ce565b005b34801561025357600080fd5b5061027b7f000000000000000000000000000000000000000000000000000000000000000081565b6040516001600160a01b0390911681526020016101fc565b34801561029f57600080fd5b506102456102ae3660046111ad565b610647565b6101f26102c13660046110cc565b6106b8565b3480156102d257600080fd5b506101f26102e13660046111e5565b6107b3565b3480156102f257600080fd5b5060015461027b906001600160a01b031681565b34801561031257600080fd5b506102456103213660046111e5565b61082d565b34801561033257600080fd5b506101f260045481565b34801561034857600080fd5b5061024561035736600461121e565b61085c565b34801561036857600080fd5b506101f260055481565b34801561037e57600080fd5b5060055415155b60405190151581526020016101fc565b3480156103a157600080fd5b5060005461027b906001600160a01b031681565b3480156103c157600080fd5b506103856108a3565b3480156103d657600080fd5b506101f26108b8565b3480156103eb57600080fd5b506103856103fa366004611139565b6108c3565b34801561040b57600080fd5b5061027b7329fe8914e76da5ce2d90de98a64d0055f199d06d81565b34801561043357600080fd5b506102456104423660046111fd565b6108de565b34801561045357600080fd5b506101f26104623660046111e5565b610927565b34801561047357600080fd5b506101f26104823660046111e5565b61094c565b34801561049357600080fd5b506101f260065481565b3480156104a957600080fd5b506101f260035481565b3480156104bf57600080fd5b506102456104ce366004611091565b6109c9565b3480156104df57600080fd5b506101f260085481565b3480156104f557600080fd5b50610245610504366004611070565b610a94565b34801561051557600080fd5b50610385610b19565b34801561052a57600080fd5b506102456105393660046111fd565b610b29565b34801561054a57600080fd5b5061027b7f000000000000000000000000000000000000000000000000000000000000000081565b34801561057e57600080fd5b5061024561058d366004611070565b610b66565b60006105a561059f6108b8565b83610bc7565b90505b919050565b600754600090612710906105c49060ff16846113da565b6105a59190611337565b6000546001600160a01b03163314806105f157506001546001600160a01b031633145b6106165760405162461bcd60e51b815260040161060d906112bb565b60405180910390fd5b604051339082156108fc029083906000818181858888f19350505050158015610643573d6000803e3d6000fd5b5050565b6000546001600160a01b031633146106715760405162461bcd60e51b815260040161060d906112bb565b61067f600160085481161490565b151582151514610693576008805460011890555b6106a1600260085481161490565b151581151514610643576008805460021890555050565b6000336001600160a01b03871614806106f95750336001600160a01b037f000000000000000000000000000000000000000000000000000000000000000016145b8061070e57506001546001600160a01b031633145b61071757600080fd5b7f00000000000000000000000000000000000000000000000000000000000000006001600160a01b0316866001600160a01b031614156107645761075d85858585610c28565b90506107aa565b7f00000000000000000000000000000000000000000000000000000000000000006001600160a01b0316866001600160a01b031614156101cd5761075d85858585610e7e565b95945050505050565b6000806107be6108b8565b90506000806107cd8386611337565b90505b806107dc83600161131f565b101561082557600060026107f0838561131f565b6107fa9190611337565b905060006108088583610bc7565b90508681111561081a5781925061081e565b8193505b50506107d0565b509392505050565b6000546001600160a01b031633146108575760405162461bcd60e51b815260040161060d906112bb565b600855565b337329fe8914e76da5ce2d90de98a64d0055f199d06d1461087c57600080fd5b60648160ff16111561088d57600080fd5b6007805460ff191660ff92909216919091179055565b60006108b3600160085481161490565b905090565b60006108b34261094c565b60006108d233868686866106b8565b50600195945050505050565b6000546001600160a01b031633146109085760405162461bcd60e51b815260040161060d906112bb565b61091c6109136108b8565b60025542600455565b600591909155600655565b60006105a56003548361093a91906113da565b6109426108b8565b61059f91906113f9565b6000610959600554151590565b156109c05760006004548361096e91906113f9565b90506000600654600554836109839190611337565b61098d9190611357565b905060008160025461099f91906112de565b905060008112156109b657600093505050506105a8565b92506105a8915050565b506002546105a8565b6000546001600160a01b03163314806109ec57506001546001600160a01b031633145b610a085760405162461bcd60e51b815260040161060d906112bb565b60405163a9059cbb60e01b81526001600160a01b0383811660048301526024820183905284919082169063a9059cbb90604401602060405180830381600087803b158015610a5557600080fd5b505af1158015610a69573d6000803e3d6000fd5b505050506040513d601f19601f82011682018060405250810190610a8d9190611191565b5050505050565b6000546001600160a01b03163314610abe5760405162461bcd60e51b815260040161060d906112bb565b600080546040516001600160a01b03808516939216917f8be0079c531659141344cd1fd0a4f28419497f9722a3daafe3b4186f6b6457e091a3600080546001600160a01b0319166001600160a01b0392909216919091179055565b60006108b3600260085481161490565b6000546001600160a01b03163314610b535760405162461bcd60e51b815260040161060d906112bb565b610b608260025542600455565b60035550565b6000546001600160a01b0316331480610b8957506001546001600160a01b031633145b610ba55760405162461bcd60e51b815260040161060d906112bb565b600180546001600160a01b0319166001600160a01b0392909216919091179055565b600081610bd657506000610c22565b600354600090610be76001856113f9565b610bf191906113da565b610bfb908561131f565b9050826002610c0a838761131f565b610c149190611337565b610c1e91906113da565b9150505b92915050565b6000610c38600260085481161490565b610c4157600080fd5b6000610c4c85610927565b90507f00000000000000000000000000000000000000000000000000000000000000006000610c7a836105ad565b90508015610d185760405163a9059cbb60e01b81527329fe8914e76da5ce2d90de98a64d0055f199d06d6004820152602481018290526001600160a01b0383169063a9059cbb90604401602060405180830381600087803b158015610cde57600080fd5b505af1158015610cf2573d6000803e3d6000fd5b505050506040513d601f19601f82011682018060405250810190610d169190611191565b505b6001600160a01b03821663a9059cbb89610d3284876113f9565b6040516001600160e01b031960e085901b1681526001600160a01b0390921660048301526024820152604401602060405180830381600087803b158015610d7857600080fd5b505af1158015610d8c573d6000803e3d6000fd5b505050506040513d601f19601f82011682018060405250810190610db09190611191565b50600354610dbe90886113da565b60026000828254610dcf91906113f9565b90915550506001600160a01b037f0000000000000000000000000000000000000000000000000000000000000000167f424641a08047715d4b70195e1d90818d302683d9f65f41910ca13f5a486d37cc898888610e2b8c611410565b7f00000000000000000000000000000000000000000000000000000000000000008988610e566108b8565b604051610e6a989796959493929190611269565b60405180910390a250909695505050505050565b600080610e8a856107b3565b9050600854600116600114610e9e57600080fd5b610ea781610592565b8514610eb257600080fd5b60405163a9059cbb60e01b81526001600160a01b038781166004830152602482018390527f0000000000000000000000000000000000000000000000000000000000000000169063a9059cbb90604401602060405180830381600087803b158015610f1c57600080fd5b505af1158015610f30573d6000803e3d6000fd5b505050506040513d601f19601f82011682018060405250810190610f549190611191565b50600354610f6290826113da565b600254610f6f919061131f565b6002556001600160a01b037f0000000000000000000000000000000000000000000000000000000000000000167f424641a08047715d4b70195e1d90818d302683d9f65f41910ca13f5a486d37cc878686857f00000000000000000000000000000000000000000000000000000000000000008b6000610fed6108b8565b604051611001989796959493929190611269565b60405180910390a295945050505050565b80356001600160a01b03811681146105a857600080fd5b60008083601f84011261103a578182fd5b50813567ffffffffffffffff811115611051578182fd5b60208301915083602082850101111561106957600080fd5b9250929050565b600060208284031215611081578081fd5b61108a82611012565b9392505050565b6000806000606084860312156110a5578182fd5b6110ae84611012565b92506110bc60208501611012565b9150604084013590509250925092565b6000806000806000608086880312156110e3578081fd5b6110ec86611012565b94506110fa60208701611012565b935060408601359250606086013567ffffffffffffffff81111561111c578182fd5b61112888828901611029565b969995985093965092949392505050565b6000806000806060858703121561114e578384fd5b61115785611012565b935060208501359250604085013567ffffffffffffffff811115611179578283fd5b61118587828801611029565b95989497509550505050565b6000602082840312156111a2578081fd5b815161108a81611440565b600080604083850312156111bf578182fd5b82356111ca81611440565b915060208301356111da81611440565b809150509250929050565b6000602082840312156111f6578081fd5b5035919050565b6000806040838503121561120f578182fd5b50508035926020909101359150565b60006020828403121561122f578081fd5b813560ff8116811461108a578182fd5b60008284528282602086013780602084860101526020601f19601f85011685010190509392505050565b600060018060a01b03808b16835260e0602084015261128c60e084018a8c61123f565b6040840198909852959095166060820152608081019390935260a083019190915260c090910152509392505050565b6020808252600990820152683737ba1037bbb732b960b91b604082015260600190565b600080821280156001600160ff1b03849003851316156113005761130061142a565b600160ff1b83900384128116156113195761131961142a565b50500190565b600082198211156113325761133261142a565b500190565b60008261135257634e487b7160e01b81526012600452602481fd5b500490565b60006001600160ff1b038184138284138082168684048611161561137d5761137d61142a565b600160ff1b8487128281168783058912161561139b5761139b61142a565b8587129250878205871284841616156113b6576113b661142a565b878505871281841616156113cc576113cc61142a565b505050929093029392505050565b60008160001904831182151516156113f4576113f461142a565b500290565b60008282101561140b5761140b61142a565b500390565b6000600160ff1b8214156114265761142661142a565b0390565b634e487b7160e01b600052601160045260246000fd5b801515811461144e57600080fd5b5056fea2646970667358221220c68ab233bbd8a7528a63c9855d8d5d380bc1bbc3a91a509836ffe8e5581b7b0c64736f6c634300080200338be0079c531659141344cd1fd0a4f28419497f9722a3daafe3b4186f6b6457e0",
    "sourcePath": "c:/Users/luziu/Documents/aktionariat/contracts/src/Market.sol",
    "compiler": {
        "name": "solc",
        "version": "0.8.2+commit.661d1103"
    },
    "functionHashes": {
        "base()": "5001f3b5",
        "buyingEnabled()": "8ed2fe91",
        "copyright()": "a63ae9c7",
        "driftIncrement()": "c7780ab2",
        "driftStart()": "7ff6c191",
        "getBuyPrice(uint256)": "08d4db14",
        "getLicenseFee(uint256)": "21bea858",
        "getPrice()": "98d5fdca",
        "getPriceAtTime(uint256)": "bf13d438",
        "getSellPrice(uint256)": "ba730e53",
        "getShares(uint256)": "6f7267b7",
        "hasDrift()": "8a07d3d0",
        "increment()": "d09de08a",
        "onTokenTransfer(address,uint256,bytes)": "a4c0ed36",
        "owner()": "8da5cb5b",
        "paymenthub()": "777adcf0",
        "processIncoming(address,address,uint256,bytes)": "69365c52",
        "sellingEnabled()": "f771cb65",
        "setDrift(uint256,int256)": "afaefe9e",
        "setEnabled(bool,bool)": "5c627935",
        "setLicenseFee(uint8)": "80aa0df7",
        "setPaymentHub(address)": "fff4da1f",
        "setPrice(uint256,uint256)": "f7d97577",
        "setSettings(uint256)": "7cd6a7fd",
        "settings()": "e06174e4",
        "timeToDrift()": "84b41fda",
        "token()": "fc0c546a",
        "transferOwnership(address)": "f2fde38b",
        "withdraw(address,address,uint256)": "d9caed12",
        "withdrawEther(uint256)": "3bed33ce"
    },
    "gasEstimates": {
        "creation": {
            "codeDepositCost": "1051000",
            "executionCost": "infinite",
            "totalCost": "infinite"
        },
        "external": {
            "base()": "infinite",
            "buyingEnabled()": "1159",
            "copyright()": "306",
            "driftIncrement()": "1095",
            "driftStart()": "1074",
            "getBuyPrice(uint256)": "infinite",
            "getLicenseFee(uint256)": "1323",
            "getPrice()": "5016",
            "getPriceAtTime(uint256)": "5099",
            "getSellPrice(uint256)": "infinite",
            "getShares(uint256)": "infinite",
            "hasDrift()": "1060",
            "increment()": "1029",
            "onTokenTransfer(address,uint256,bytes)": "infinite",
            "owner()": "1126",
            "paymenthub()": "1083",
            "processIncoming(address,address,uint256,bytes)": "infinite",
            "sellingEnabled()": "1092",
            "setDrift(uint256,int256)": "70968",
            "setEnabled(bool,bool)": "infinite",
            "setLicenseFee(uint8)": "21266",
            "setPaymentHub(address)": "22966",
            "setPrice(uint256,uint256)": "61178",
            "setSettings(uint256)": "21132",
            "settings()": "1073",
            "timeToDrift()": "1029",
            "token()": "infinite",
            "transferOwnership(address)": "24476",
            "withdraw(address,address,uint256)": "infinite",
            "withdrawEther(uint256)": "infinite"
        },
        "internal": {
            "anchorPrice(uint256)": "infinite",
            "buy(address,uint256,bytes calldata)": "infinite",
            "getPrice(uint256,uint256)": "infinite",
            "hasSetting(uint256)": "infinite",
            "sell(address,uint256,bytes calldata)": "infinite"
        }
    }
}