{
    "contractName": "MarketFactory",
    "abi": [
        {
            "anonymous": false,
            "inputs": [
                {
                    "indexed": false,
                    "internalType": "address",
                    "name": "contractAddress",
                    "type": "address"
                }
            ],
            "name": "ContractDeployed",
            "type": "event"
        },
        {
            "inputs": [
                {
                    "internalType": "bytes32",
                    "name": "salt",
                    "type": "bytes32"
                },
                {
                    "internalType": "address",
                    "name": "baseCurrency",
                    "type": "address"
                },
                {
                    "internalType": "address",
                    "name": "shareToken",
                    "type": "address"
                },
                {
                    "internalType": "address",
                    "name": "owner",
                    "type": "address"
                }
            ],
            "name": "create",
            "outputs": [
                {
                    "internalType": "address",
                    "name": "",
                    "type": "address"
                }
            ],
            "stateMutability": "nonpayable",
            "type": "function"
        }
    ],
    "bytecode": "608060405234801561001057600080fd5b50612059806100206000396000f3fe608060405234801561001057600080fd5b506004361061002b5760003560e01c80636c9b677314610030575b600080fd5b61004361003e3660046101b5565b610059565b6040516100509190610201565b60405180910390f35b600080856040516100699061018c565b8190604051809103906000f5905080158015610089573d6000803e3d6000fd5b5060405163485cc95560e01b81529091506001600160a01b0382169063485cc955906100bb9088908890600401610215565b600060405180830381600087803b1580156100d557600080fd5b505af11580156100e9573d6000803e3d6000fd5b505050507f8ffcdc15a283d706d38281f500270d8b5a656918f555de0913d7455e3e6bc1bf8160405161011c9190610201565b60405180910390a160405163f2fde38b60e01b81526001600160a01b0382169063f2fde38b90610150908690600401610201565b600060405180830381600087803b15801561016a57600080fd5b505af115801561017e573d6000803e3d6000fd5b509298975050505050505050565b611df48061023083390190565b80356001600160a01b03811681146101b057600080fd5b919050565b600080600080608085870312156101ca578384fd5b843593506101da60208601610199565b92506101e860408601610199565b91506101f660608601610199565b905092959194509250565b6001600160a01b0391909116815260200190565b6001600160a01b039283168152911660208201526040019056fe60806040526009805461ff001960ff199091166001171661010017905534801561002857600080fd5b50600080546001600160a01b03191633178082556040516001600160a01b039190911691907f8be0079c531659141344cd1fd0a4f28419497f9722a3daafe3b4186f6b6457e0908290a3611d73806100816000396000f3fe6080604052600436106102045760003560e01c8063a4c0ed3611610118578063c7780ab2116100a0578063f2fde38b1161006f578063f2fde38b14610577578063f496a61014610597578063f771cb65146105b7578063f7d97577146105cc578063fc0c546a146105ec57610204565b8063c7780ab21461050d578063d09de08a14610522578063d9caed1214610537578063e21ae4321461055757610204565b8063afaefe9e116100e7578063afaefe9e1461046d578063ba730e531461048d578063ba8f1b69146104ad578063bf13d438146104cd578063c3b929f7146104ed57610204565b8063a4c0ed36146103f6578063a63ae9c714610416578063a6c677f61461042b578063ae539d801461044d57610204565b80637ff6c1911161019b57806388bbbe351161016a57806388bbbe35146103755780638a07d3d0146103955780638da5cb5b146103b75780638ed2fe91146103cc57806398d5fdca146103e157610204565b80637ff6c1911461030b57806380aa0df714610320578063821895511461034057806384b41fda1461036057610204565b8063485cc955116101d7578063485cc955146102945780635001f3b5146102b65780635c627935146102cb5780636f7267b7146102eb57610204565b806308d4db141461020957806319f4d6b71461023f5780632535a65a1461025f5780633fc8cef314610272575b600080fd5b34801561021557600080fd5b50610229610224366004611901565b610601565b6040516102369190611ac0565b60405180910390f35b34801561024b57600080fd5b5061022961025a3660046117a4565b61061c565b61022961026d366004611919565b610649565b34801561027e57600080fd5b506102876108a6565b6040516102369190611a12565b3480156102a057600080fd5b506102b46102af36600461172c565b6108bb565b005b3480156102c257600080fd5b506102876109f7565b3480156102d757600080fd5b506102b46102e63660046118d4565b610a06565b3480156102f757600080fd5b50610229610306366004611901565b610a53565b34801561031757600080fd5b50610229610acd565b34801561032c57600080fd5b506102b461033b366004611984565b610ad3565b34801561034c57600080fd5b5061022961035b366004611919565b610b1b565b34801561036c57600080fd5b50610229610b41565b34801561038157600080fd5b50610229610390366004611919565b610b47565b3480156103a157600080fd5b506103aa610b6a565b6040516102369190611ab5565b3480156103c357600080fd5b50610287610b72565b3480156103d857600080fd5b506103aa610b81565b3480156103ed57600080fd5b50610229610b8a565b34801561040257600080fd5b506103aa6104113660046117a4565b610b9a565b34801561042257600080fd5b50610287610c3b565b34801561043757600080fd5b50610440610c4a565b6040516102369190611b91565b34801561045957600080fd5b50610229610468366004611901565b610c5a565b34801561047957600080fd5b506102b4610488366004611963565b610dd7565b34801561049957600080fd5b506102296104a8366004611901565b610e1c565b3480156104b957600080fd5b506102296104c8366004611901565b610e41565b3480156104d957600080fd5b506102296104e8366004611901565b610e69565b3480156104f957600080fd5b506102b46105083660046116f4565b610ee3565b34801561051957600080fd5b50610229610f1c565b34801561052e57600080fd5b50610229610f22565b34801561054357600080fd5b506102b4610552366004611764565b610f28565b34801561056357600080fd5b50610229610572366004611901565b610ff6565b34801561058357600080fd5b506102b46105923660046116f4565b61101e565b3480156105a357600080fd5b506102296105b23660046117a4565b6110a3565b3480156105c357600080fd5b506103aa6110c4565b3480156105d857600080fd5b506102b46105e7366004611963565b6110d2565b3480156105f857600080fd5b5061028761110b565b600061061461060e610b8a565b8361111a565b90505b919050565b600954600090610100900460ff1661063357600080fd5b610640338686868661117b565b95945050505050565b60095460009060ff1661065b57600080fd5b600061066685610601565b9050600061067386610c5a565b6040805160028082526060820183529293506000929091602083019080368337019050509050600960029054906101000a90046001600160a01b0316816000815181106106d057634e487b7160e01b600052603260045260246000fd5b6001600160a01b039283166020918202929092010152600180548351921691839190811061070e57634e487b7160e01b600052603260045260246000fd5b6001600160a01b039092166020928302919091019091015260405163fb3bdb4160e01b8152600090737a250d5630b4cf539739df2c5dacb4c659f2488d9063fb3bdb41908590610768908890879030904290600401611b5c565b6000604051808303818588803b15801561078157600080fd5b505af1158015610795573d6000803e3d6000fd5b50505050506040513d6000823e601f3d908101601f191682016040526107be91908101906117fe565b9050806001815181106107e157634e487b7160e01b600052603260045260246000fd5b6020026020010151841461080557634e487b7160e01b600052600160045260246000fd5b61083b33338a8460018151811061082c57634e487b7160e01b600052603260045260246000fd5b60200260200101518b8b611224565b5047156108705760405133904780156108fc02916000818181858888f1935050505015801561086e573d6000803e3d6000fd5b505b8060008151811061089157634e487b7160e01b600052603260045260246000fd5b60200260200101519450505050509392505050565b6009546201000090046001600160a01b031681565b6002546001600160a01b0316156108ed5760405162461bcd60e51b81526004016108e490611af2565b60405180910390fd5b600180546001600160a01b038085166001600160a01b0319928316179092556002805492841692909116919091179055604080516315ab88c960e31b81529051737a250d5630b4cf539739df2c5dacb4c659f2488d9163ad5c4648916004808301926020929190829003018186803b15801561096857600080fd5b505afa15801561097c573d6000803e3d6000fd5b505050506040513d601f19601f820116820180604052508101906109a09190611710565b600980546001600160a01b0392909216620100000262010000600160b01b03199092169190911790555050600380546001600160a01b0319167329fe8914e76da5ce2d90de98a64d0055f199d06d17905542600655565b6001546001600160a01b031681565b6000546001600160a01b03163314610a305760405162461bcd60e51b81526004016108e490611b20565b6009805460ff19169215159290921761ff00191661010091151591909102179055565b600080610a5e610b8a565b9050600080610a6d8386611bf8565b90505b80610a7c836001611be0565b1015610ac55760006002610a908385611be0565b610a9a9190611bf8565b90506000610aa8858361111a565b905086811115610aba57819250610abe565b8193505b5050610a70565b509392505050565b60065481565b6003546001600160a01b03163314610aea57600080fd5b60648160ff161115610afb57600080fd5b6003805460ff909216600160a01b0260ff60a01b19909216919091179055565b60095460009060ff16610b2d57600080fd5b610b39338585856110a3565b949350505050565b60075481565b600954600090610100900460ff16610b5e57600080fd5b610b393385858561061c565b600754151590565b6000546001600160a01b031681565b60095460ff1681565b6000610b9542610e69565b905090565b6002546000906001600160a01b0316331480610bc057506001546001600160a01b031633145b610bc957600080fd5b6002546001600160a01b0316331415610c0257600954610100900460ff16610bf057600080fd5b610bfc85858585611498565b50610c30565b6001546001600160a01b03163314156102045760095460ff16610c2457600080fd5b610c3085858585611681565b506001949350505050565b6003546001600160a01b031681565b600354600160a01b900460ff1681565b600080610c6683610601565b6040805160028082526060820183529293506000929091602083019080368337019050509050600960029054906101000a90046001600160a01b031681600081518110610cc357634e487b7160e01b600052603260045260246000fd5b6001600160a01b0392831660209182029290920101526001805483519216918391908110610d0157634e487b7160e01b600052603260045260246000fd5b6001600160a01b03909216602092830291909101909101526040516307c0329d60e21b8152737a250d5630b4cf539739df2c5dacb4c659f2488d90631f00ca7490610d529085908590600401611b43565b60006040518083038186803b158015610d6a57600080fd5b505afa158015610d7e573d6000803e3d6000fd5b505050506040513d6000823e601f3d908101601f19168201604052610da691908101906117fe565b600081518110610dc657634e487b7160e01b600052603260045260246000fd5b602002602001015192505050919050565b6000546001600160a01b03163314610e015760405162461bcd60e51b81526004016108e490611b20565b610e11610e0c610b8a565b6116a4565b600791909155600855565b600061061460055483610e2f9190611c9b565b610e37610b8a565b61060e9190611cba565b60035460009061271090610e5f90600160a01b900460ff1684611c9b565b6106149190611bf8565b6000610e73610b6a565b15610eda57600060065483610e889190611cba565b9050600060085460075483610e9d9190611bf8565b610ea79190611c18565b9050600081600454610eb99190611b9f565b90506000811215610ed05760009350505050610617565b9250610617915050565b50600454610617565b6003546001600160a01b03163314610efa57600080fd5b600380546001600160a01b0319166001600160a01b0392909216919091179055565b60085481565b60055481565b6000546001600160a01b03163314610f525760405162461bcd60e51b81526004016108e490611b20565b60405163a9059cbb60e01b815283906001600160a01b0382169063a9059cbb90610f829086908690600401611a9c565b602060405180830381600087803b158015610f9c57600080fd5b505af1158015610fb0573d6000803e3d6000fd5b505050506040513d601f19601f82011682018060405250810190610fd491906118b8565b610ff05760405162461bcd60e51b81526004016108e490611ac9565b50505050565b60008061100283610e1c565b905061100d81610e41565b6110179082611cba565b9392505050565b6000546001600160a01b031633146110485760405162461bcd60e51b81526004016108e490611b20565b600080546040516001600160a01b03808516939216917f8be0079c531659141344cd1fd0a4f28419497f9722a3daafe3b4186f6b6457e091a3600080546001600160a01b0319166001600160a01b0392909216919091179055565b60095460009060ff166110b557600080fd5b61064033868660008787611224565b600954610100900460ff1681565b6000546001600160a01b031633146110fc5760405162461bcd60e51b81526004016108e490611b20565b611105826116a4565b60055550565b6002546001600160a01b031681565b60008161112957506000611175565b60055460009061113a600185611cba565b6111449190611c9b565b61114e9085611be0565b905082600261115d8387611be0565b6111679190611bf8565b6111719190611c9b565b9150505b92915050565b6002546040516323b872dd60e01b81526000916001600160a01b03169081906323b872dd906111b2908a9030908a90600401611a26565b602060405180830381600087803b1580156111cc57600080fd5b505af11580156111e0573d6000803e3d6000fd5b505050506040513d601f19601f8201168201806040525081019061120491906118b8565b61120d57600080fd5b61121986868686611498565b979650505050505050565b60008061123086610601565b6001549091506001600160a01b0316858211156112e0576001600160a01b0381166323b872dd8a306112628a87611cba565b6040518463ffffffff1660e01b815260040161128093929190611a26565b602060405180830381600087803b15801561129a57600080fd5b505af11580156112ae573d6000803e3d6000fd5b505050506040513d601f19601f820116820180604052508101906112d291906118b8565b6112db57600080fd5b61137a565b8582101561137a576001600160a01b03811663a9059cbb8a611302858a611cba565b6040518363ffffffff1660e01b815260040161131f929190611a9c565b602060405180830381600087803b15801561133957600080fd5b505af115801561134d573d6000803e3d6000fd5b505050506040513d601f19601f8201168201806040525081019061137191906118b8565b61137a57600080fd5b60025460405163a9059cbb60e01b81526001600160a01b0390911690819063a9059cbb906113ae908c908c90600401611a9c565b602060405180830381600087803b1580156113c857600080fd5b505af11580156113dc573d6000803e3d6000fd5b505050506040513d601f19601f8201168201806040525081019061140091906118b8565b61140957600080fd5b6005546114169089611c9b565b6004546114239190611be0565b6004556002546001546001600160a01b03918216917f424641a08047715d4b70195e1d90818d302683d9f65f41910ca13f5a486d37cc918d918a918a918e911689600061146e610b8a565b604051611482989796959493929190611a4a565b60405180910390a2509098975050505050505050565b6000806114a485610e1c565b6001549091506001600160a01b031660006114be83610e41565b905080156115555760035460405163a9059cbb60e01b81526001600160a01b038481169263a9059cbb926114fa92909116908590600401611a9c565b602060405180830381600087803b15801561151457600080fd5b505af1158015611528573d6000803e3d6000fd5b505050506040513d601f19601f8201168201806040525081019061154c91906118b8565b61155557600080fd5b6001600160a01b03821663a9059cbb8961156f8487611cba565b6040518363ffffffff1660e01b815260040161158c929190611a9c565b602060405180830381600087803b1580156115a657600080fd5b505af11580156115ba573d6000803e3d6000fd5b505050506040513d601f19601f820116820180604052508101906115de91906118b8565b6115e757600080fd5b6005546115f49088611c9b565b600460008282546116059190611cba565b90915550506002546001600160a01b03167f424641a08047715d4b70195e1d90818d302683d9f65f41910ca13f5a486d37cc8988886116438c611cd1565b6001546001600160a01b03168988611659610b8a565b60405161166d989796959493929190611a4a565b60405180910390a250909695505050505050565b600061168c84610a53565b905061169c858683878787611224565b505050505050565b60045542600655565b60008083601f8401126116be578182fd5b50813567ffffffffffffffff8111156116d5578182fd5b6020830191508360208285010111156116ed57600080fd5b9250929050565b600060208284031215611705578081fd5b813561101781611d17565b600060208284031215611721578081fd5b815161101781611d17565b6000806040838503121561173e578081fd5b823561174981611d17565b9150602083013561175981611d17565b809150509250929050565b600080600060608486031215611778578081fd5b833561178381611d17565b9250602084013561179381611d17565b929592945050506040919091013590565b600080600080606085870312156117b9578081fd5b84356117c481611d17565b935060208501359250604085013567ffffffffffffffff8111156117e6578182fd5b6117f2878288016116ad565b95989497509550505050565b60006020808385031215611810578182fd5b825167ffffffffffffffff80821115611827578384fd5b818501915085601f83011261183a578384fd5b81518181111561184c5761184c611d01565b8381026040518582820101818110858211171561186b5761186b611d01565b604052828152858101935084860182860187018a1015611889578788fd5b8795505b838610156118ab57805185526001959095019493860193860161188d565b5098975050505050505050565b6000602082840312156118c9578081fd5b815161101781611d2f565b600080604083850312156118e6578182fd5b82356118f181611d2f565b9150602083013561175981611d2f565b600060208284031215611912578081fd5b5035919050565b60008060006040848603121561192d578283fd5b83359250602084013567ffffffffffffffff81111561194a578283fd5b611956868287016116ad565b9497909650939450505050565b60008060408385031215611975578182fd5b50508035926020909101359150565b600060208284031215611995578081fd5b813560ff81168114611017578182fd5b6000815180845260208085019450808401835b838110156119dd5781516001600160a01b0316875295820195908201906001016119b8565b509495945050505050565b60008284528282602086013780602084860101526020601f19601f85011685010190509392505050565b6001600160a01b0391909116815260200190565b6001600160a01b039384168152919092166020820152604081019190915260600190565b600060018060a01b03808b16835260e06020840152611a6d60e084018a8c6119e8565b6040840198909852959095166060820152608081019390935260a083019190915260c090910152509392505050565b6001600160a01b03929092168252602082015260400190565b901515815260200190565b90815260200190565b6020808252600f908201526e151c985b9cd9995c8819985a5b1959608a1b604082015260600190565b60208082526014908201527320b63932b0b23c9034b734ba34b0b634bd32b21760611b604082015260600190565b6020808252600990820152683737ba1037bbb732b960b91b604082015260600190565b600083825260406020830152610b3960408301846119a5565b600085825260806020830152611b7560808301866119a5565b6001600160a01b03949094166040830152506060015292915050565b60ff91909116815260200190565b600080821280156001600160ff1b0384900385131615611bc157611bc1611ceb565b600160ff1b8390038412811615611bda57611bda611ceb565b50500190565b60008219821115611bf357611bf3611ceb565b500190565b600082611c1357634e487b7160e01b81526012600452602481fd5b500490565b60006001600160ff1b0381841382841380821686840486111615611c3e57611c3e611ceb565b600160ff1b84871282811687830589121615611c5c57611c5c611ceb565b858712925087820587128484161615611c7757611c77611ceb565b87850587128184161615611c8d57611c8d611ceb565b505050929093029392505050565b6000816000190483118215151615611cb557611cb5611ceb565b500290565b600082821015611ccc57611ccc611ceb565b500390565b6000600160ff1b821415611ce757611ce7611ceb565b0390565b634e487b7160e01b600052601160045260246000fd5b634e487b7160e01b600052604160045260246000fd5b6001600160a01b0381168114611d2c57600080fd5b50565b8015158114611d2c57600080fdfea264697066735822122016e89a5a5d6a9a9a1986241831d03530ecf8c6c1eb90ef7ac71413d16da8e6cc64736f6c63430008000033a2646970667358221220da0e08a76472bc8f83f415e5de4fb143a3318a8f53215d60c6aff3ac4e8b86af64736f6c63430008000033",
    "sourcePath": "c:/Users/luziu/Documents/aktionariat/contracts/src/MarketFactory.sol",
    "compiler": {
        "name": "solc",
        "version": "0.8.0+commit.c7dfd78e"
    },
    "functionHashes": {
        "create(bytes32,address,address,address)": "6c9b6773"
    },
    "gasEstimates": {
        "creation": {
            "codeDepositCost": "1656200",
            "executionCost": "1736",
            "totalCost": "1657936"
        },
        "external": {
            "create(bytes32,address,address,address)": "infinite"
        }
    }
}