{
    "contractName": "Market",
    "abi": [
        {
            "inputs": [
                {
                    "internalType": "address",
                    "name": "shareToken",
                    "type": "address"
                },
                {
                    "internalType": "uint256",
                    "name": "price_",
                    "type": "uint256"
                },
                {
                    "internalType": "uint256",
                    "name": "increment_",
                    "type": "uint256"
                },
                {
                    "internalType": "address",
                    "name": "baseCurrency",
                    "type": "address"
                },
                {
                    "internalType": "address",
                    "name": "owner",
                    "type": "address"
                }
            ],
            "stateMutability": "nonpayable",
            "type": "constructor"
        },
        {
            "anonymous": false,
            "inputs": [
                {
                    "indexed": true,
                    "internalType": "address",
                    "name": "previousOwner",
                    "type": "address"
                },
                {
                    "indexed": true,
                    "internalType": "address",
                    "name": "newOwner",
                    "type": "address"
                }
            ],
            "name": "OwnershipTransferred",
            "type": "event"
        },
        {
            "anonymous": false,
            "inputs": [
                {
                    "indexed": true,
                    "internalType": "address",
                    "name": "token",
                    "type": "address"
                },
                {
                    "indexed": false,
                    "internalType": "address",
                    "name": "who",
                    "type": "address"
                },
                {
                    "indexed": false,
                    "internalType": "bytes",
                    "name": "ref",
                    "type": "bytes"
                },
                {
                    "indexed": false,
                    "internalType": "int256",
                    "name": "amount",
                    "type": "int256"
                },
                {
                    "indexed": false,
                    "internalType": "address",
                    "name": "base",
                    "type": "address"
                },
                {
                    "indexed": false,
                    "internalType": "uint256",
                    "name": "totPrice",
                    "type": "uint256"
                },
                {
                    "indexed": false,
                    "internalType": "uint256",
                    "name": "fee",
                    "type": "uint256"
                },
                {
                    "indexed": false,
                    "internalType": "uint256",
                    "name": "newprice",
                    "type": "uint256"
                }
            ],
            "name": "Trade",
            "type": "event"
        },
        {
            "inputs": [
                {
                    "internalType": "address",
                    "name": "erc20",
                    "type": "address"
                },
                {
                    "internalType": "address",
                    "name": "who",
                    "type": "address"
                },
                {
                    "internalType": "uint256",
                    "name": "amount",
                    "type": "uint256"
                }
            ],
            "name": "approve",
            "outputs": [],
            "stateMutability": "nonpayable",
            "type": "function"
        },
        {
            "inputs": [],
            "name": "base",
            "outputs": [
                {
                    "internalType": "address",
                    "name": "",
                    "type": "address"
                }
            ],
            "stateMutability": "view",
            "type": "function"
        },
        {
            "inputs": [],
            "name": "buyingEnabled",
            "outputs": [
                {
                    "internalType": "bool",
                    "name": "",
                    "type": "bool"
                }
            ],
            "stateMutability": "view",
            "type": "function"
        },
        {
            "inputs": [],
            "name": "copyright",
            "outputs": [
                {
                    "internalType": "address",
                    "name": "",
                    "type": "address"
                }
            ],
            "stateMutability": "view",
            "type": "function"
        },
        {
            "inputs": [],
            "name": "driftIncrement",
            "outputs": [
                {
                    "internalType": "int256",
                    "name": "",
                    "type": "int256"
                }
            ],
            "stateMutability": "view",
            "type": "function"
        },
        {
            "inputs": [],
            "name": "driftStart",
            "outputs": [
                {
                    "internalType": "uint256",
                    "name": "",
                    "type": "uint256"
                }
            ],
            "stateMutability": "view",
            "type": "function"
        },
        {
            "inputs": [
                {
                    "internalType": "uint256",
                    "name": "shares",
                    "type": "uint256"
                }
            ],
            "name": "getBuyPrice",
            "outputs": [
                {
                    "internalType": "uint256",
                    "name": "",
                    "type": "uint256"
                }
            ],
            "stateMutability": "view",
            "type": "function"
        },
        {
            "inputs": [
                {
                    "internalType": "uint256",
                    "name": "totPrice",
                    "type": "uint256"
                }
            ],
            "name": "getLicenseFee",
            "outputs": [
                {
                    "internalType": "uint256",
                    "name": "",
                    "type": "uint256"
                }
            ],
            "stateMutability": "pure",
            "type": "function"
        },
        {
            "inputs": [],
            "name": "getPrice",
            "outputs": [
                {
                    "internalType": "uint256",
                    "name": "",
                    "type": "uint256"
                }
            ],
            "stateMutability": "view",
            "type": "function"
        },
        {
            "inputs": [
                {
                    "internalType": "uint256",
                    "name": "timestamp",
                    "type": "uint256"
                }
            ],
            "name": "getPriceAtTime",
            "outputs": [
                {
                    "internalType": "uint256",
                    "name": "",
                    "type": "uint256"
                }
            ],
            "stateMutability": "view",
            "type": "function"
        },
        {
            "inputs": [
                {
                    "internalType": "uint256",
                    "name": "shares",
                    "type": "uint256"
                }
            ],
            "name": "getSellPrice",
            "outputs": [
                {
                    "internalType": "uint256",
                    "name": "",
                    "type": "uint256"
                }
            ],
            "stateMutability": "view",
            "type": "function"
        },
        {
            "inputs": [
                {
                    "internalType": "uint256",
                    "name": "money",
                    "type": "uint256"
                }
            ],
            "name": "getShares",
            "outputs": [
                {
                    "internalType": "uint256",
                    "name": "",
                    "type": "uint256"
                }
            ],
            "stateMutability": "view",
            "type": "function"
        },
        {
            "inputs": [],
            "name": "hasDrift",
            "outputs": [
                {
                    "internalType": "bool",
                    "name": "",
                    "type": "bool"
                }
            ],
            "stateMutability": "view",
            "type": "function"
        },
        {
            "inputs": [],
            "name": "increment",
            "outputs": [
                {
                    "internalType": "uint256",
                    "name": "",
                    "type": "uint256"
                }
            ],
            "stateMutability": "view",
            "type": "function"
        },
        {
            "inputs": [
                {
                    "internalType": "address",
                    "name": "buyer",
                    "type": "address"
                },
                {
                    "internalType": "uint256",
                    "name": "shares",
                    "type": "uint256"
                },
                {
                    "internalType": "bytes",
                    "name": "ref",
                    "type": "bytes"
                }
            ],
            "name": "notifyTrade",
            "outputs": [],
            "stateMutability": "nonpayable",
            "type": "function"
        },
        {
            "inputs": [
                {
                    "internalType": "address",
                    "name": "buyer",
                    "type": "address"
                },
                {
                    "internalType": "uint256",
                    "name": "shares",
                    "type": "uint256"
                },
                {
                    "internalType": "bytes",
                    "name": "ref",
                    "type": "bytes"
                }
            ],
            "name": "notifyTradeAndTransfer",
            "outputs": [],
            "stateMutability": "nonpayable",
            "type": "function"
        },
        {
            "inputs": [
                {
                    "internalType": "address[]",
                    "name": "buyers",
                    "type": "address[]"
                },
                {
                    "internalType": "uint256[]",
                    "name": "shares",
                    "type": "uint256[]"
                },
                {
                    "internalType": "bytes[]",
                    "name": "ref",
                    "type": "bytes[]"
                }
            ],
            "name": "notifyTrades",
            "outputs": [],
            "stateMutability": "nonpayable",
            "type": "function"
        },
        {
            "inputs": [
                {
                    "internalType": "address[]",
                    "name": "buyers",
                    "type": "address[]"
                },
                {
                    "internalType": "uint256[]",
                    "name": "shares",
                    "type": "uint256[]"
                },
                {
                    "internalType": "bytes[]",
                    "name": "ref",
                    "type": "bytes[]"
                }
            ],
            "name": "notifyTradesAndTransfer",
            "outputs": [],
            "stateMutability": "nonpayable",
            "type": "function"
        },
        {
            "inputs": [
                {
                    "internalType": "address",
                    "name": "from",
                    "type": "address"
                },
                {
                    "internalType": "uint256",
                    "name": "amount",
                    "type": "uint256"
                },
                {
                    "internalType": "bytes",
                    "name": "ref",
                    "type": "bytes"
                }
            ],
            "name": "onTokenTransfer",
            "outputs": [
                {
                    "internalType": "bool",
                    "name": "",
                    "type": "bool"
                }
            ],
            "stateMutability": "nonpayable",
            "type": "function"
        },
        {
            "inputs": [
                {
                    "internalType": "address",
                    "name": "token_",
                    "type": "address"
                },
                {
                    "internalType": "address",
                    "name": "from",
                    "type": "address"
                },
                {
                    "internalType": "uint256",
                    "name": "amount",
                    "type": "uint256"
                },
                {
                    "internalType": "bytes",
                    "name": "ref",
                    "type": "bytes"
                }
            ],
            "name": "onTokenTransfer",
            "outputs": [],
            "stateMutability": "nonpayable",
            "type": "function"
        },
        {
            "inputs": [],
            "name": "owner",
            "outputs": [
                {
                    "internalType": "address",
                    "name": "",
                    "type": "address"
                }
            ],
            "stateMutability": "view",
            "type": "function"
        },
        {
            "inputs": [],
            "name": "paymenthub",
            "outputs": [
                {
                    "internalType": "address",
                    "name": "",
                    "type": "address"
                }
            ],
            "stateMutability": "view",
            "type": "function"
        },
        {
            "inputs": [
                {
                    "internalType": "address",
                    "name": "token_",
                    "type": "address"
                },
                {
                    "internalType": "address",
                    "name": "from",
                    "type": "address"
                },
                {
                    "internalType": "uint256",
                    "name": "amount",
                    "type": "uint256"
                },
                {
                    "internalType": "bytes",
                    "name": "ref",
                    "type": "bytes"
                }
            ],
            "name": "processIncoming",
            "outputs": [
                {
                    "internalType": "uint256",
                    "name": "",
                    "type": "uint256"
                }
            ],
            "stateMutability": "payable",
            "type": "function"
        },
        {
            "inputs": [],
            "name": "sellingEnabled",
            "outputs": [
                {
                    "internalType": "bool",
                    "name": "",
                    "type": "bool"
                }
            ],
            "stateMutability": "view",
            "type": "function"
        },
        {
            "inputs": [
                {
                    "internalType": "uint256",
                    "name": "secondsPerStep",
                    "type": "uint256"
                },
                {
                    "internalType": "int256",
                    "name": "newDriftIncrement",
                    "type": "int256"
                }
            ],
            "name": "setDrift",
            "outputs": [],
            "stateMutability": "nonpayable",
            "type": "function"
        },
        {
            "inputs": [
                {
                    "internalType": "bool",
                    "name": "newBuyingEnabled",
                    "type": "bool"
                },
                {
                    "internalType": "bool",
                    "name": "newSellingEnabled",
                    "type": "bool"
                }
            ],
            "name": "setEnabled",
            "outputs": [],
            "stateMutability": "nonpayable",
            "type": "function"
        },
        {
            "inputs": [
                {
                    "internalType": "address",
                    "name": "hub",
                    "type": "address"
                }
            ],
            "name": "setPaymentHub",
            "outputs": [],
            "stateMutability": "nonpayable",
            "type": "function"
        },
        {
            "inputs": [
                {
                    "internalType": "uint256",
                    "name": "newPrice",
                    "type": "uint256"
                },
                {
                    "internalType": "uint256",
                    "name": "newIncrement",
                    "type": "uint256"
                }
            ],
            "name": "setPrice",
            "outputs": [],
            "stateMutability": "nonpayable",
            "type": "function"
        },
        {
            "inputs": [
                {
                    "internalType": "uint256",
                    "name": "settings_",
                    "type": "uint256"
                }
            ],
            "name": "setSettings",
            "outputs": [],
            "stateMutability": "nonpayable",
            "type": "function"
        },
        {
            "inputs": [],
            "name": "settings",
            "outputs": [
                {
                    "internalType": "uint256",
                    "name": "",
                    "type": "uint256"
                }
            ],
            "stateMutability": "view",
            "type": "function"
        },
        {
            "inputs": [],
            "name": "timeToDrift",
            "outputs": [
                {
                    "internalType": "uint256",
                    "name": "",
                    "type": "uint256"
                }
            ],
            "stateMutability": "view",
            "type": "function"
        },
        {
            "inputs": [],
            "name": "token",
            "outputs": [
                {
                    "internalType": "address",
                    "name": "",
                    "type": "address"
                }
            ],
            "stateMutability": "view",
            "type": "function"
        },
        {
            "inputs": [
                {
                    "internalType": "address",
                    "name": "newOwner",
                    "type": "address"
                }
            ],
            "name": "transferOwnership",
            "outputs": [],
            "stateMutability": "nonpayable",
            "type": "function"
        },
        {
            "inputs": [
                {
                    "internalType": "address",
                    "name": "ercAddress",
                    "type": "address"
                },
                {
                    "internalType": "address",
                    "name": "to",
                    "type": "address"
                },
                {
                    "internalType": "uint256",
                    "name": "amount",
                    "type": "uint256"
                }
            ],
            "name": "withdraw",
            "outputs": [],
            "stateMutability": "nonpayable",
            "type": "function"
        },
        {
            "inputs": [
                {
                    "internalType": "uint256",
                    "name": "amount",
                    "type": "uint256"
                }
            ],
            "name": "withdrawEther",
            "outputs": [],
            "stateMutability": "nonpayable",
            "type": "function"
        }
    ],
    "bytecode": "60c060405260036007553480156200001657600080fd5b5060405162002123380380620021238339810160408190526200003991620000ee565b600080546001600160a01b0319166001600160a01b03831690811782556040518392907f8be0079c531659141344cd1fd0a4f28419497f9722a3daafe3b4186f6b6457e0908290a350506001600160601b0319606091821b811660805293901b90921660a052600255600355600180546001600160a01b031916734d99f8e88bab0bee8cd840b1ad3c0be4f49c293a1790556200014c565b80516001600160a01b0381168114620000e957600080fd5b919050565b600080600080600060a086880312156200010757600080fd5b6200011286620000d1565b945060208601519350604086015192506200013060608701620000d1565b91506200014060808701620000d1565b90509295509295909350565b60805160601c60a05160601c611f5e620001c5600039600081816106070152818161086001528181610dd5015281816116670152818161180d01526118e30152600081816102900152818161081e015281816108ad015281816114d9015281816116b601528181611737015261192a0152611f5e6000f3fe6080604052600436106102045760003560e01c8063a4c0ed3611610118578063d9caed12116100a0578063f771cb651161006f578063f771cb65146105c0578063f7d97577146105d5578063fc0c546a146105f5578063fff4da1f14610629578063fff897451461064957600080fd5b8063d9caed121461054a578063e06174e41461056a578063e1f21c6714610580578063f2fde38b146105a057600080fd5b8063ba730e53116100e7578063ba730e53146104be578063bf13d438146104de578063c7780ab2146104fe578063d09de08a14610514578063d7e06ca81461052a57600080fd5b8063a4c0ed3614610436578063a63ae9c714610456578063afaefe9e1461047e578063b03a13fe1461049e57600080fd5b80637cd6a7fd1161019b5780638da5cb5b1161016a5780638da5cb5b146103ac5780638ed2fe91146103cc57806391be6ad5146103e157806398d5fdca146104015780639bb8c0fd1461041657600080fd5b80637cd6a7fd1461033d5780637ff6c1911461035d57806384b41fda146103735780638a07d3d01461038957600080fd5b80635c627935116101d75780635c627935146102ca57806369365c52146102ea5780636f7267b7146102fd578063777adcf01461031d57600080fd5b806308d4db141461020957806321bea8581461023c5780633bed33ce1461025c5780635001f3b51461027e575b600080fd5b34801561021557600080fd5b50610229610224366004611c48565b610669565b6040519081526020015b60405180910390f35b34801561024857600080fd5b50610229610257366004611c48565b610682565b34801561026857600080fd5b5061027c610277366004611c48565b61069c565b005b34801561028a57600080fd5b506102b27f000000000000000000000000000000000000000000000000000000000000000081565b6040516001600160a01b039091168152602001610233565b3480156102d657600080fd5b5061027c6102e5366004611c0f565b610715565b6102296102f8366004611a89565b6107ff565b34801561030957600080fd5b50610229610318366004611c48565b6108fa565b34801561032957600080fd5b506001546102b2906001600160a01b031681565b34801561034957600080fd5b5061027c610358366004611c48565b610974565b34801561036957600080fd5b5061022960045481565b34801561037f57600080fd5b5061022960055481565b34801561039557600080fd5b5060055415155b6040519015158152602001610233565b3480156103b857600080fd5b506000546102b2906001600160a01b031681565b3480156103d857600080fd5b5061039c610a1c565b3480156103ed57600080fd5b5061027c6103fc366004611b58565b610a31565b34801561040d57600080fd5b50610229610b61565b34801561042257600080fd5b5061027c610431366004611afc565b610b6c565b34801561044257600080fd5b5061039c610451366004611afc565b610c22565b34801561046257600080fd5b506102b27329fe8914e76da5ce2d90de98a64d0055f199d06d81565b34801561048a57600080fd5b5061027c610499366004611c61565b610c3d565b3480156104aa57600080fd5b5061027c6104b9366004611afc565b610cff565b3480156104ca57600080fd5b506102296104d9366004611c48565b610e51565b3480156104ea57600080fd5b506102296104f9366004611c48565b610e76565b34801561050a57600080fd5b5061022960065481565b34801561052057600080fd5b5061022960035481565b34801561053657600080fd5b5061027c610545366004611a89565b610eef565b34801561055657600080fd5b5061027c610565366004611a48565b610f04565b34801561057657600080fd5b5061022960075481565b34801561058c57600080fd5b5061027c61059b366004611a48565b610fcc565b3480156105ac57600080fd5b5061027c6105bb366004611a07565b6110a4565b3480156105cc57600080fd5b5061039c6111a2565b3480156105e157600080fd5b5061027c6105f0366004611c61565b6111b2565b34801561060157600080fd5b506102b27f000000000000000000000000000000000000000000000000000000000000000081565b34801561063557600080fd5b5061027c610644366004611a07565b611268565b34801561065557600080fd5b5061027c610664366004611b58565b61132d565b600061067c610676610b61565b8361145a565b92915050565b6000612710610692605a84611e68565b61067c9190611dc1565b6000546001600160a01b03163314806106bf57506001546001600160a01b031633145b6106e45760405162461bcd60e51b81526004016106db90611cfe565b60405180910390fd5b604051339082156108fc029083906000818181858888f19350505050158015610711573d6000803e3d6000fd5b5050565b336001600160a01b0316306001600160a01b0316638da5cb5b6040518163ffffffff1660e01b8152600401602060405180830381600087803b15801561075a57600080fd5b505af115801561076e573d6000803e3d6000fd5b505050506040513d601f19601f820116820180604052508101906107929190611a2b565b6001600160a01b0316146107b85760405162461bcd60e51b81526004016106db90611cfe565b6107c6600160075481161490565b1515821515146107da576007805460011890555b6107e8600260075481161490565b151581151514610711576007805460021890555050565b6000336001600160a01b03871614806108405750336001600160a01b037f000000000000000000000000000000000000000000000000000000000000000016145b8061085557506001546001600160a01b031633145b61085e57600080fd5b7f00000000000000000000000000000000000000000000000000000000000000006001600160a01b0316866001600160a01b031614156108ab576108a4858585856114b1565b90506108f1565b7f00000000000000000000000000000000000000000000000000000000000000006001600160a01b0316866001600160a01b03161415610204576108a485858585611707565b95945050505050565b600080610905610b61565b90506000806109148386611dc1565b90505b8082101561096c576000600261092d8385611da9565b6109379190611dc1565b90506000610945858361145a565b9050808711156109615761095a826001611da9565b9350610965565b8192505b5050610917565b509392505050565b336001600160a01b0316306001600160a01b0316638da5cb5b6040518163ffffffff1660e01b8152600401602060405180830381600087803b1580156109b957600080fd5b505af11580156109cd573d6000803e3d6000fd5b505050506040513d601f19601f820116820180604052508101906109f19190611a2b565b6001600160a01b031614610a175760405162461bcd60e51b81526004016106db90611cfe565b600755565b6000610a2c600160075481161490565b905090565b336001600160a01b0316306001600160a01b0316638da5cb5b6040518163ffffffff1660e01b8152600401602060405180830381600087803b158015610a7657600080fd5b505af1158015610a8a573d6000803e3d6000fd5b505050506040513d601f19601f82011682018060405250810190610aae9190611a2b565b6001600160a01b031614610ad45760405162461bcd60e51b81526004016106db90611cfe565b60005b85811015610b5857610b46878783818110610af457610af4611eec565b9050602002016020810190610b099190611a07565b868684818110610b1b57610b1b611eec565b90506020020135858585818110610b3457610b34611eec565b90506020028101906104b99190611d21565b80610b5081611e9e565b915050610ad7565b50505050505050565b6000610a2c42610e76565b336001600160a01b0316306001600160a01b0316638da5cb5b6040518163ffffffff1660e01b8152600401602060405180830381600087803b158015610bb157600080fd5b505af1158015610bc5573d6000803e3d6000fd5b505050506040513d601f19601f82011682018060405250810190610be99190611a2b565b6001600160a01b031614610c0f5760405162461bcd60e51b81526004016106db90611cfe565b610c1b84848484611895565b5050505050565b6000610c3133868686866107ff565b50600195945050505050565b336001600160a01b0316306001600160a01b0316638da5cb5b6040518163ffffffff1660e01b8152600401602060405180830381600087803b158015610c8257600080fd5b505af1158015610c96573d6000803e3d6000fd5b505050506040513d601f19601f82011682018060405250810190610cba9190611a2b565b6001600160a01b031614610ce05760405162461bcd60e51b81526004016106db90611cfe565b610cf4610ceb610b61565b60025542600455565b600591909155600655565b336001600160a01b0316306001600160a01b0316638da5cb5b6040518163ffffffff1660e01b8152600401602060405180830381600087803b158015610d4457600080fd5b505af1158015610d58573d6000803e3d6000fd5b505050506040513d601f19601f82011682018060405250810190610d7c9190611a2b565b6001600160a01b031614610da25760405162461bcd60e51b81526004016106db90611cfe565b610dae84848484611895565b5060405163a9059cbb60e01b81526001600160a01b038581166004830152602482018590527f0000000000000000000000000000000000000000000000000000000000000000169063a9059cbb90604401602060405180830381600087803b158015610e1957600080fd5b505af1158015610e2d573d6000803e3d6000fd5b505050506040513d601f19601f82011682018060405250810190610c1b9190611bf2565b600061067c60035483610e649190611e68565b610e6c610b61565b6106769190611e87565b6000610e83600554151590565b15610ee757600060045483610e989190611e87565b9050600060065460055483610ead9190611dc1565b610eb79190611de3565b9050600081600254610ec99190611d68565b90506000811215610edf57506000949350505050565b949350505050565b505060025490565b610efc85858585856107ff565b505050505050565b6000546001600160a01b0316331480610f2757506001546001600160a01b031633145b610f435760405162461bcd60e51b81526004016106db90611cfe565b60405163a9059cbb60e01b81526001600160a01b0383811660048301526024820183905284169063a9059cbb906044015b602060405180830381600087803b158015610f8e57600080fd5b505af1158015610fa2573d6000803e3d6000fd5b505050506040513d601f19601f82011682018060405250810190610fc69190611bf2565b50505050565b336001600160a01b0316306001600160a01b0316638da5cb5b6040518163ffffffff1660e01b8152600401602060405180830381600087803b15801561101157600080fd5b505af1158015611025573d6000803e3d6000fd5b505050506040513d601f19601f820116820180604052508101906110499190611a2b565b6001600160a01b03161461106f5760405162461bcd60e51b81526004016106db90611cfe565b60405163095ea7b360e01b81526001600160a01b0383811660048301526024820183905284169063095ea7b390604401610f74565b336001600160a01b0316306001600160a01b0316638da5cb5b6040518163ffffffff1660e01b8152600401602060405180830381600087803b1580156110e957600080fd5b505af11580156110fd573d6000803e3d6000fd5b505050506040513d601f19601f820116820180604052508101906111219190611a2b565b6001600160a01b0316146111475760405162461bcd60e51b81526004016106db90611cfe565b600080546040516001600160a01b03808516939216917f8be0079c531659141344cd1fd0a4f28419497f9722a3daafe3b4186f6b6457e091a3600080546001600160a01b0319166001600160a01b0392909216919091179055565b6000610a2c600260075481161490565b336001600160a01b0316306001600160a01b0316638da5cb5b6040518163ffffffff1660e01b8152600401602060405180830381600087803b1580156111f757600080fd5b505af115801561120b573d6000803e3d6000fd5b505050506040513d601f19601f8201168201806040525081019061122f9190611a2b565b6001600160a01b0316146112555760405162461bcd60e51b81526004016106db90611cfe565b6112628260025542600455565b60035550565b336001600160a01b0316306001600160a01b0316638da5cb5b6040518163ffffffff1660e01b8152600401602060405180830381600087803b1580156112ad57600080fd5b505af11580156112c1573d6000803e3d6000fd5b505050506040513d601f19601f820116820180604052508101906112e59190611a2b565b6001600160a01b03161461130b5760405162461bcd60e51b81526004016106db90611cfe565b600180546001600160a01b0319166001600160a01b0392909216919091179055565b336001600160a01b0316306001600160a01b0316638da5cb5b6040518163ffffffff1660e01b8152600401602060405180830381600087803b15801561137257600080fd5b505af1158015611386573d6000803e3d6000fd5b505050506040513d601f19601f820116820180604052508101906113aa9190611a2b565b6001600160a01b0316146113d05760405162461bcd60e51b81526004016106db90611cfe565b60005b85811015610b58576114478787838181106113f0576113f0611eec565b90506020020160208101906114059190611a07565b86868481811061141757611417611eec565b9050602002013585858581811061143057611430611eec565b90506020028101906114429190611d21565b611895565b508061145281611e9e565b9150506113d3565b6000816114695750600061067c565b60035460009061147a600185611e87565b6114849190611e68565b61148e9085611da9565b905082600261149d8387611da9565b6114a79190611dc1565b610edf9190611e68565b60006114c1600260075481161490565b6114ca57600080fd5b60006114d585610e51565b90507f0000000000000000000000000000000000000000000000000000000000000000600061150383610682565b905080156115a15760405163a9059cbb60e01b81527329fe8914e76da5ce2d90de98a64d0055f199d06d6004820152602481018290526001600160a01b0383169063a9059cbb90604401602060405180830381600087803b15801561156757600080fd5b505af115801561157b573d6000803e3d6000fd5b505050506040513d601f19601f8201168201806040525081019061159f9190611bf2565b505b6001600160a01b03821663a9059cbb896115bb8487611e87565b6040516001600160e01b031960e085901b1681526001600160a01b0390921660048301526024820152604401602060405180830381600087803b15801561160157600080fd5b505af1158015611615573d6000803e3d6000fd5b505050506040513d601f19601f820116820180604052508101906116399190611bf2565b506003546116479088611e68565b600260008282546116589190611e87565b90915550506001600160a01b037f0000000000000000000000000000000000000000000000000000000000000000167f424641a08047715d4b70195e1d90818d302683d9f65f41910ca13f5a486d37cc8988886116b48c611eb9565b7f000000000000000000000000000000000000000000000000000000000000000089886116df610b61565b6040516116f3989796959493929190611cac565b60405180910390a250909695505050505050565b600080611713856108fa565b9050600061172387838787611895565b9050858110156117e7576001600160a01b037f00000000000000000000000000000000000000000000000000000000000000001663a9059cbb88611767848a611e87565b6040516001600160e01b031960e085901b1681526001600160a01b0390921660048301526024820152604401602060405180830381600087803b1580156117ad57600080fd5b505af11580156117c1573d6000803e3d6000fd5b505050506040513d601f19601f820116820180604052508101906117e59190611bf2565b505b60405163a9059cbb60e01b81526001600160a01b038881166004830152602482018490527f0000000000000000000000000000000000000000000000000000000000000000169063a9059cbb90604401602060405180830381600087803b15801561185157600080fd5b505af1158015611865573d6000803e3d6000fd5b505050506040513d601f19601f820116820180604052508101906118899190611bf2565b50909695505050505050565b60006118a5600160075481161490565b6118ae57600080fd5b60006118b985610669565b9050600354856118c99190611e68565b6002546118d69190611da9565b6002556001600160a01b037f0000000000000000000000000000000000000000000000000000000000000000167f424641a08047715d4b70195e1d90818d302683d9f65f41910ca13f5a486d37cc878686897f0000000000000000000000000000000000000000000000000000000000000000876000611954610b61565b604051611968989796959493929190611cac565b60405180910390a295945050505050565b60008083601f84011261198b57600080fd5b50813567ffffffffffffffff8111156119a357600080fd5b6020830191508360208260051b85010111156119be57600080fd5b9250929050565b60008083601f8401126119d757600080fd5b50813567ffffffffffffffff8111156119ef57600080fd5b6020830191508360208285010111156119be57600080fd5b600060208284031215611a1957600080fd5b8135611a2481611f02565b9392505050565b600060208284031215611a3d57600080fd5b8151611a2481611f02565b600080600060608486031215611a5d57600080fd5b8335611a6881611f02565b92506020840135611a7881611f02565b929592945050506040919091013590565b600080600080600060808688031215611aa157600080fd5b8535611aac81611f02565b94506020860135611abc81611f02565b935060408601359250606086013567ffffffffffffffff811115611adf57600080fd5b611aeb888289016119c5565b969995985093965092949392505050565b60008060008060608587031215611b1257600080fd5b8435611b1d81611f02565b935060208501359250604085013567ffffffffffffffff811115611b4057600080fd5b611b4c878288016119c5565b95989497509550505050565b60008060008060008060608789031215611b7157600080fd5b863567ffffffffffffffff80821115611b8957600080fd5b611b958a838b01611979565b90985096506020890135915080821115611bae57600080fd5b611bba8a838b01611979565b90965094506040890135915080821115611bd357600080fd5b50611be089828a01611979565b979a9699509497509295939492505050565b600060208284031215611c0457600080fd5b8151611a2481611f1a565b60008060408385031215611c2257600080fd5b8235611c2d81611f1a565b91506020830135611c3d81611f1a565b809150509250929050565b600060208284031215611c5a57600080fd5b5035919050565b60008060408385031215611c7457600080fd5b50508035926020909101359150565b81835281816020850137506000828201602090810191909152601f909101601f19169091010190565b600060018060a01b03808b16835260e06020840152611ccf60e084018a8c611c83565b6040840198909852959095166060820152608081019390935260a083019190915260c090910152509392505050565b6020808252600990820152683737ba1037bbb732b960b91b604082015260600190565b6000808335601e19843603018112611d3857600080fd5b83018035915067ffffffffffffffff821115611d5357600080fd5b6020019150368190038213156119be57600080fd5b600080821280156001600160ff1b0384900385131615611d8a57611d8a611ed6565b600160ff1b8390038412811615611da357611da3611ed6565b50500190565b60008219821115611dbc57611dbc611ed6565b500190565b600082611dde57634e487b7160e01b600052601260045260246000fd5b500490565b60006001600160ff1b0381841382841380821686840486111615611e0957611e09611ed6565b600160ff1b6000871282811687830589121615611e2857611e28611ed6565b60008712925087820587128484161615611e4457611e44611ed6565b87850587128184161615611e5a57611e5a611ed6565b505050929093029392505050565b6000816000190483118215151615611e8257611e82611ed6565b500290565b600082821015611e9957611e99611ed6565b500390565b6000600019821415611eb257611eb2611ed6565b5060010190565b6000600160ff1b821415611ecf57611ecf611ed6565b5060000390565b634e487b7160e01b600052601160045260246000fd5b634e487b7160e01b600052603260045260246000fd5b6001600160a01b0381168114611f1757600080fd5b50565b8015158114611f1757600080fdfea26469706673582212208cb575ba7b35468e0fa222c42a8dba6fe52a4a4d9327b864c2fc868db7d046cf64736f6c63430008060033",
    "sourcePath": "c:/Users/luziu/Documents/GitHub/contracts/src/Market.sol",
    "compiler": {
        "name": "solc",
        "version": "0.8.6+commit.11564f7e"
    },
    "functionHashes": {
        "approve(address,address,uint256)": "e1f21c67",
        "base()": "5001f3b5",
        "buyingEnabled()": "8ed2fe91",
        "copyright()": "a63ae9c7",
        "driftIncrement()": "c7780ab2",
        "driftStart()": "7ff6c191",
        "getBuyPrice(uint256)": "08d4db14",
        "getLicenseFee(uint256)": "21bea858",
        "getPrice()": "98d5fdca",
        "getPriceAtTime(uint256)": "bf13d438",
        "getSellPrice(uint256)": "ba730e53",
        "getShares(uint256)": "6f7267b7",
        "hasDrift()": "8a07d3d0",
        "increment()": "d09de08a",
        "notifyTrade(address,uint256,bytes)": "9bb8c0fd",
        "notifyTradeAndTransfer(address,uint256,bytes)": "b03a13fe",
        "notifyTrades(address[],uint256[],bytes[])": "fff89745",
        "notifyTradesAndTransfer(address[],uint256[],bytes[])": "91be6ad5",
        "onTokenTransfer(address,address,uint256,bytes)": "d7e06ca8",
        "onTokenTransfer(address,uint256,bytes)": "a4c0ed36",
        "owner()": "8da5cb5b",
        "paymenthub()": "777adcf0",
        "processIncoming(address,address,uint256,bytes)": "69365c52",
        "sellingEnabled()": "f771cb65",
        "setDrift(uint256,int256)": "afaefe9e",
        "setEnabled(bool,bool)": "5c627935",
        "setPaymentHub(address)": "fff4da1f",
        "setPrice(uint256,uint256)": "f7d97577",
        "setSettings(uint256)": "7cd6a7fd",
        "settings()": "e06174e4",
        "timeToDrift()": "84b41fda",
        "token()": "fc0c546a",
        "transferOwnership(address)": "f2fde38b",
        "withdraw(address,address,uint256)": "d9caed12",
        "withdrawEther(uint256)": "3bed33ce"
    },
    "gasEstimates": {
        "creation": {
            "codeDepositCost": "1606000",
            "executionCost": "infinite",
            "totalCost": "infinite"
        },
        "external": {
            "approve(address,address,uint256)": "infinite",
            "base()": "infinite",
            "buyingEnabled()": "2415",
            "copyright()": "284",
            "driftIncrement()": "2373",
            "driftStart()": "2352",
            "getBuyPrice(uint256)": "infinite",
            "getLicenseFee(uint256)": "504",
            "getPrice()": "11566",
            "getPriceAtTime(uint256)": "11562",
            "getSellPrice(uint256)": "infinite",
            "getShares(uint256)": "infinite",
            "hasDrift()": "2405",
            "increment()": "2395",
            "notifyTrade(address,uint256,bytes)": "infinite",
            "notifyTradeAndTransfer(address,uint256,bytes)": "infinite",
            "notifyTrades(address[],uint256[],bytes[])": "infinite",
            "notifyTradesAndTransfer(address[],uint256[],bytes[])": "infinite",
            "onTokenTransfer(address,address,uint256,bytes)": "infinite",
            "onTokenTransfer(address,uint256,bytes)": "infinite",
            "owner()": "2382",
            "paymenthub()": "2449",
            "processIncoming(address,address,uint256,bytes)": "infinite",
            "sellingEnabled()": "2392",
            "setDrift(uint256,int256)": "infinite",
            "setEnabled(bool,bool)": "infinite",
            "setPaymentHub(address)": "infinite",
            "setPrice(uint256,uint256)": "infinite",
            "setSettings(uint256)": "infinite",
            "settings()": "2351",
            "timeToDrift()": "2374",
            "token()": "infinite",
            "transferOwnership(address)": "infinite",
            "withdraw(address,address,uint256)": "infinite",
            "withdrawEther(uint256)": "infinite"
        },
        "internal": {
            "anchorPrice(uint256)": "infinite",
            "buy(address,uint256,bytes calldata)": "infinite",
            "getPrice(uint256,uint256)": "infinite",
            "hasSetting(uint256)": "infinite",
            "notifyTraded(address,uint256,bytes calldata)": "infinite",
            "sell(address,uint256,bytes calldata)": "infinite"
        }
    }
}