{
    "contractName": "MarketMaker",
    "abi": [
        {
            "inputs": [
                {
                    "internalType": "address",
                    "name": "baseCurrency",
                    "type": "address"
                },
                {
                    "internalType": "address",
                    "name": "shareToken",
                    "type": "address"
                }
            ],
            "stateMutability": "nonpayable",
            "type": "constructor"
        },
        {
            "anonymous": false,
            "inputs": [
                {
                    "indexed": true,
                    "internalType": "address",
                    "name": "previousOwner",
                    "type": "address"
                },
                {
                    "indexed": true,
                    "internalType": "address",
                    "name": "newOwner",
                    "type": "address"
                }
            ],
            "name": "OwnershipTransferred",
            "type": "event"
        },
        {
            "anonymous": false,
            "inputs": [],
            "name": "Pause",
            "type": "event"
        },
        {
            "anonymous": false,
            "inputs": [
                {
                    "indexed": true,
                    "internalType": "address",
                    "name": "token",
                    "type": "address"
                },
                {
                    "indexed": false,
                    "internalType": "address",
                    "name": "who",
                    "type": "address"
                },
                {
                    "indexed": false,
                    "internalType": "bytes",
                    "name": "ref",
                    "type": "bytes"
                },
                {
                    "indexed": false,
                    "internalType": "int256",
                    "name": "amount",
                    "type": "int256"
                },
                {
                    "indexed": false,
                    "internalType": "address",
                    "name": "base",
                    "type": "address"
                },
                {
                    "indexed": false,
                    "internalType": "uint256",
                    "name": "totPrice",
                    "type": "uint256"
                },
                {
                    "indexed": false,
                    "internalType": "uint256",
                    "name": "fee",
                    "type": "uint256"
                },
                {
                    "indexed": false,
                    "internalType": "uint256",
                    "name": "newprice",
                    "type": "uint256"
                }
            ],
            "name": "Trade",
            "type": "event"
        },
        {
            "anonymous": false,
            "inputs": [],
            "name": "Unpause",
            "type": "event"
        },
        {
            "inputs": [],
            "name": "base",
            "outputs": [
                {
                    "internalType": "address",
                    "name": "",
                    "type": "address"
                }
            ],
            "stateMutability": "view",
            "type": "function"
        },
        {
            "inputs": [
                {
                    "internalType": "uint256",
                    "name": "numberOfSharesToBuy",
                    "type": "uint256"
                },
                {
                    "internalType": "bytes",
                    "name": "ref",
                    "type": "bytes"
                }
            ],
            "name": "buy",
            "outputs": [
                {
                    "internalType": "uint256",
                    "name": "",
                    "type": "uint256"
                }
            ],
            "stateMutability": "nonpayable",
            "type": "function"
        },
        {
            "inputs": [
                {
                    "internalType": "address",
                    "name": "recipient",
                    "type": "address"
                },
                {
                    "internalType": "uint256",
                    "name": "numberOfSharesToBuy",
                    "type": "uint256"
                },
                {
                    "internalType": "bytes",
                    "name": "ref",
                    "type": "bytes"
                }
            ],
            "name": "buy",
            "outputs": [
                {
                    "internalType": "uint256",
                    "name": "",
                    "type": "uint256"
                }
            ],
            "stateMutability": "nonpayable",
            "type": "function"
        },
        {
            "inputs": [
                {
                    "internalType": "uint256",
                    "name": "shares",
                    "type": "uint256"
                },
                {
                    "internalType": "bytes",
                    "name": "ref",
                    "type": "bytes"
                }
            ],
            "name": "buyWithEther",
            "outputs": [
                {
                    "internalType": "uint256",
                    "name": "",
                    "type": "uint256"
                }
            ],
            "stateMutability": "payable",
            "type": "function"
        },
        {
            "inputs": [],
            "name": "copyright",
            "outputs": [
                {
                    "internalType": "address",
                    "name": "",
                    "type": "address"
                }
            ],
            "stateMutability": "view",
            "type": "function"
        },
        {
            "inputs": [],
            "name": "driftIncrement",
            "outputs": [
                {
                    "internalType": "int256",
                    "name": "",
                    "type": "int256"
                }
            ],
            "stateMutability": "view",
            "type": "function"
        },
        {
            "inputs": [],
            "name": "driftStart",
            "outputs": [
                {
                    "internalType": "uint256",
                    "name": "",
                    "type": "uint256"
                }
            ],
            "stateMutability": "view",
            "type": "function"
        },
        {
            "inputs": [
                {
                    "internalType": "uint256",
                    "name": "shares",
                    "type": "uint256"
                }
            ],
            "name": "getBuyPrice",
            "outputs": [
                {
                    "internalType": "uint256",
                    "name": "",
                    "type": "uint256"
                }
            ],
            "stateMutability": "view",
            "type": "function"
        },
        {
            "inputs": [],
            "name": "getPrice",
            "outputs": [
                {
                    "internalType": "uint256",
                    "name": "",
                    "type": "uint256"
                }
            ],
            "stateMutability": "view",
            "type": "function"
        },
        {
            "inputs": [
                {
                    "internalType": "uint256",
                    "name": "timestamp",
                    "type": "uint256"
                }
            ],
            "name": "getPrice",
            "outputs": [
                {
                    "internalType": "uint256",
                    "name": "",
                    "type": "uint256"
                }
            ],
            "stateMutability": "view",
            "type": "function"
        },
        {
            "inputs": [
                {
                    "internalType": "uint256",
                    "name": "shares",
                    "type": "uint256"
                }
            ],
            "name": "getPriceInEther",
            "outputs": [
                {
                    "internalType": "uint256",
                    "name": "",
                    "type": "uint256"
                }
            ],
            "stateMutability": "view",
            "type": "function"
        },
        {
            "inputs": [
                {
                    "internalType": "uint256",
                    "name": "totalPrice",
                    "type": "uint256"
                }
            ],
            "name": "getSaleFee",
            "outputs": [
                {
                    "internalType": "uint256",
                    "name": "",
                    "type": "uint256"
                }
            ],
            "stateMutability": "view",
            "type": "function"
        },
        {
            "inputs": [
                {
                    "internalType": "uint256",
                    "name": "shares",
                    "type": "uint256"
                }
            ],
            "name": "getSaleProceeds",
            "outputs": [
                {
                    "internalType": "uint256",
                    "name": "",
                    "type": "uint256"
                }
            ],
            "stateMutability": "view",
            "type": "function"
        },
        {
            "inputs": [
                {
                    "internalType": "uint256",
                    "name": "shares",
                    "type": "uint256"
                }
            ],
            "name": "getSellPrice",
            "outputs": [
                {
                    "internalType": "uint256",
                    "name": "",
                    "type": "uint256"
                }
            ],
            "stateMutability": "view",
            "type": "function"
        },
        {
            "inputs": [
                {
                    "internalType": "uint256",
                    "name": "money",
                    "type": "uint256"
                }
            ],
            "name": "getShares",
            "outputs": [
                {
                    "internalType": "uint256",
                    "name": "",
                    "type": "uint256"
                }
            ],
            "stateMutability": "view",
            "type": "function"
        },
        {
            "inputs": [],
            "name": "hasDrift",
            "outputs": [
                {
                    "internalType": "bool",
                    "name": "",
                    "type": "bool"
                }
            ],
            "stateMutability": "view",
            "type": "function"
        },
        {
            "inputs": [],
            "name": "increment",
            "outputs": [
                {
                    "internalType": "uint256",
                    "name": "",
                    "type": "uint256"
                }
            ],
            "stateMutability": "view",
            "type": "function"
        },
        {
            "inputs": [],
            "name": "licenseFeeBps",
            "outputs": [
                {
                    "internalType": "uint8",
                    "name": "",
                    "type": "uint8"
                }
            ],
            "stateMutability": "view",
            "type": "function"
        },
        {
            "inputs": [
                {
                    "internalType": "address",
                    "name": "from",
                    "type": "address"
                },
                {
                    "internalType": "uint256",
                    "name": "amount",
                    "type": "uint256"
                },
                {
                    "internalType": "bytes",
                    "name": "ref",
                    "type": "bytes"
                }
            ],
            "name": "onTokenTransfer",
            "outputs": [
                {
                    "internalType": "bool",
                    "name": "success",
                    "type": "bool"
                }
            ],
            "stateMutability": "nonpayable",
            "type": "function"
        },
        {
            "inputs": [],
            "name": "owner",
            "outputs": [
                {
                    "internalType": "address",
                    "name": "",
                    "type": "address"
                }
            ],
            "stateMutability": "view",
            "type": "function"
        },
        {
            "inputs": [],
            "name": "pause",
            "outputs": [],
            "stateMutability": "nonpayable",
            "type": "function"
        },
        {
            "inputs": [],
            "name": "paused",
            "outputs": [
                {
                    "internalType": "bool",
                    "name": "",
                    "type": "bool"
                }
            ],
            "stateMutability": "view",
            "type": "function"
        },
        {
            "inputs": [
                {
                    "internalType": "address",
                    "name": "recipient",
                    "type": "address"
                },
                {
                    "internalType": "uint256",
                    "name": "tokens",
                    "type": "uint256"
                },
                {
                    "internalType": "bytes",
                    "name": "ref",
                    "type": "bytes"
                }
            ],
            "name": "sell",
            "outputs": [
                {
                    "internalType": "uint256",
                    "name": "",
                    "type": "uint256"
                }
            ],
            "stateMutability": "nonpayable",
            "type": "function"
        },
        {
            "inputs": [
                {
                    "internalType": "uint256",
                    "name": "tokens",
                    "type": "uint256"
                },
                {
                    "internalType": "bytes",
                    "name": "ref",
                    "type": "bytes"
                }
            ],
            "name": "sell",
            "outputs": [
                {
                    "internalType": "uint256",
                    "name": "",
                    "type": "uint256"
                }
            ],
            "stateMutability": "nonpayable",
            "type": "function"
        },
        {
            "inputs": [
                {
                    "internalType": "address",
                    "name": "newOwner",
                    "type": "address"
                }
            ],
            "name": "setCopyright",
            "outputs": [],
            "stateMutability": "nonpayable",
            "type": "function"
        },
        {
            "inputs": [
                {
                    "internalType": "uint256",
                    "name": "secondsPerStep",
                    "type": "uint256"
                },
                {
                    "internalType": "int256",
                    "name": "newDriftIncrement",
                    "type": "int256"
                }
            ],
            "name": "setDrift",
            "outputs": [],
            "stateMutability": "nonpayable",
            "type": "function"
        },
        {
            "inputs": [
                {
                    "internalType": "uint8",
                    "name": "bps",
                    "type": "uint8"
                }
            ],
            "name": "setLicenseFee",
            "outputs": [],
            "stateMutability": "nonpayable",
            "type": "function"
        },
        {
            "inputs": [
                {
                    "internalType": "uint256",
                    "name": "newPrice",
                    "type": "uint256"
                },
                {
                    "internalType": "uint256",
                    "name": "newIncrement",
                    "type": "uint256"
                }
            ],
            "name": "setPrice",
            "outputs": [],
            "stateMutability": "nonpayable",
            "type": "function"
        },
        {
            "inputs": [],
            "name": "timeToDrift",
            "outputs": [
                {
                    "internalType": "uint256",
                    "name": "",
                    "type": "uint256"
                }
            ],
            "stateMutability": "view",
            "type": "function"
        },
        {
            "inputs": [],
            "name": "token",
            "outputs": [
                {
                    "internalType": "address",
                    "name": "",
                    "type": "address"
                }
            ],
            "stateMutability": "view",
            "type": "function"
        },
        {
            "inputs": [
                {
                    "internalType": "address",
                    "name": "newOwner",
                    "type": "address"
                }
            ],
            "name": "transferOwnership",
            "outputs": [],
            "stateMutability": "nonpayable",
            "type": "function"
        },
        {
            "inputs": [],
            "name": "unpause",
            "outputs": [],
            "stateMutability": "nonpayable",
            "type": "function"
        },
        {
            "inputs": [
                {
                    "internalType": "address",
                    "name": "ercAddress",
                    "type": "address"
                },
                {
                    "internalType": "address",
                    "name": "to",
                    "type": "address"
                },
                {
                    "internalType": "uint256",
                    "name": "amount",
                    "type": "uint256"
                }
            ],
            "name": "withdraw",
            "outputs": [],
            "stateMutability": "nonpayable",
            "type": "function"
        }
    ],
    "bytecode": "60806040526000805460ff60a01b1916905534801561001d57600080fd5b50604051611c50380380611c508339818101604052604081101561004057600080fd5b508051602090910151600080546001600160a01b03191633178082556040516001600160a01b039190911691907f8be0079c531659141344cd1fd0a4f28419497f9722a3daafe3b4186f6b6457e0908290a3600180546001600160a01b039384166001600160a01b031991821617909155600280549290931691811691909117909155600380549091163317905542600655611b6f806100e16000396000f3fe6080604052600436106101ee5760003560e01c8063a4c0ed361161010d578063c7780ab2116100a0578063e75722301161006f578063e7572230146107c6578063f2fde38b146107f0578063f496a61014610823578063f7d97577146108b3578063fc0c546a146108e3576101ee565b8063c7780ab21461072f578063d09de08a14610744578063d9caed1214610759578063e21ae4321461079c576101ee565b8063afaefe9e116100dc578063afaefe9e14610678578063ba730e53146106a8578063ba8f1b69146106d2578063c3b929f7146106fc576101ee565b8063a4c0ed361461057e578063a63ae9c71461060e578063a6c677f614610623578063ae539d801461064e576101ee565b806380aa0df71161018557806388bbbe351161015457806388bbbe35146104bd5780638a07d3d01461053f5780638da5cb5b1461055457806398d5fdca14610569576101ee565b806380aa0df7146103e457806382189551146104115780638456cb591461049357806384b41fda146104a8576101ee565b80635001f3b5116101c15780635001f3b51461034b5780635c975abb1461037c5780636f7267b7146103a55780637ff6c191146103cf576101ee565b806308d4db14146101f357806319f4d6b71461022f5780632535a65a146102bf5780633f4ba83a14610334575b600080fd5b3480156101ff57600080fd5b5061021d6004803603602081101561021657600080fd5b50356108f8565b60408051918252519081900360200190f35b34801561023b57600080fd5b5061021d6004803603606081101561025257600080fd5b6001600160a01b0382351691602081013591810190606081016040820135600160201b81111561028157600080fd5b82018360208201111561029357600080fd5b803590602001918460018302840111600160201b831117156102b457600080fd5b509092509050610913565b61021d600480360360408110156102d557600080fd5b81359190810190604081016020820135600160201b8111156102f657600080fd5b82018360208201111561030857600080fd5b803590602001918460018302840111600160201b8311171561032957600080fd5b50909250905061092b565b34801561034057600080fd5b50610349610bf2565b005b34801561035757600080fd5b50610360610c89565b604080516001600160a01b039092168252519081900360200190f35b34801561038857600080fd5b50610391610c98565b604080519115158252519081900360200190f35b3480156103b157600080fd5b5061021d600480360360208110156103c857600080fd5b5035610ca8565b3480156103db57600080fd5b5061021d610cb6565b3480156103f057600080fd5b506103496004803603602081101561040757600080fd5b503560ff16610cbc565b34801561041d57600080fd5b5061021d6004803603604081101561043457600080fd5b81359190810190604081016020820135600160201b81111561045557600080fd5b82018360208201111561046757600080fd5b803590602001918460018302840111600160201b8311171561048857600080fd5b509092509050610d04565b34801561049f57600080fd5b50610349610d1a565b3480156104b457600080fd5b5061021d610db8565b3480156104c957600080fd5b5061021d600480360360408110156104e057600080fd5b81359190810190604081016020820135600160201b81111561050157600080fd5b82018360208201111561051357600080fd5b803590602001918460018302840111600160201b8311171561053457600080fd5b509092509050610dbe565b34801561054b57600080fd5b50610391610dcc565b34801561056057600080fd5b50610360610dd4565b34801561057557600080fd5b5061021d610de3565b34801561058a57600080fd5b50610391600480360360608110156105a157600080fd5b6001600160a01b0382351691602081013591810190606081016040820135600160201b8111156105d057600080fd5b8201836020820111156105e257600080fd5b803590602001918460018302840111600160201b8311171561060357600080fd5b509092509050610df3565b34801561061a57600080fd5b50610360610e71565b34801561062f57600080fd5b50610638610e80565b6040805160ff9092168252519081900360200190f35b34801561065a57600080fd5b5061021d6004803603602081101561067157600080fd5b5035610e90565b34801561068457600080fd5b506103496004803603604081101561069b57600080fd5b508035906020013561109c565b3480156106b457600080fd5b5061021d600480360360208110156106cb57600080fd5b5035611102565b3480156106de57600080fd5b5061021d600480360360208110156106f557600080fd5b503561112d565b34801561070857600080fd5b506103496004803603602081101561071f57600080fd5b50356001600160a01b0316611156565b34801561073b57600080fd5b5061021d61118f565b34801561075057600080fd5b5061021d611195565b34801561076557600080fd5b506103496004803603606081101561077c57600080fd5b506001600160a01b0381358116916020810135909116906040013561119b565b3480156107a857600080fd5b5061021d600480360360208110156107bf57600080fd5b50356112ae565b3480156107d257600080fd5b5061021d600480360360208110156107e957600080fd5b50356112cd565b3480156107fc57600080fd5b506103496004803603602081101561081357600080fd5b50356001600160a01b031661132a565b34801561082f57600080fd5b5061021d6004803603606081101561084657600080fd5b6001600160a01b0382351691602081013591810190606081016040820135600160201b81111561087557600080fd5b82018360208201111561088757600080fd5b803590602001918460018302840111600160201b831117156108a857600080fd5b5090925090506113d0565b3480156108bf57600080fd5b50610349600480360360408110156108d657600080fd5b50803590602001356113e1565b3480156108ef57600080fd5b5061036061143b565b600061090b610905610de3565b8361144a565b90505b919050565b600061092233868686866114a0565b95945050505050565b600080610937856108f8565b9050600061094486610e90565b60408051600280825260608083018452939450909160208301908036833701905050905073c02aaa39b223fe8d0a0e5c4f27ead9083c756cc28160008151811061098a57fe5b6001600160a01b03928316602091820292909201015260018054835192169183919081106109b457fe5b60200260200101906001600160a01b031690816001600160a01b0316815250506060737a250d5630b4cf539739df2c5dacb4c659f2488d6001600160a01b031663fb3bdb4184868530426040518663ffffffff1660e01b81526004018085815260200180602001846001600160a01b03168152602001838152602001828103825285818151815260200191508051906020019060200280838360005b83811015610a68578181015183820152602001610a50565b50505050905001955050505050506000604051808303818588803b158015610a8f57600080fd5b505af1158015610aa3573d6000803e3d6000fd5b50505050506040513d6000823e601f3d908101601f191682016040526020811015610acd57600080fd5b8101908080516040519392919084600160201b821115610aec57600080fd5b908301906020820185811115610b0157600080fd5b82518660208202830111600160201b82111715610b1d57600080fd5b82525081516020918201928201910280838360005b83811015610b4a578181015183820152602001610b32565b50505050905001604052505050905080600181518110610b6657fe5b60200260200101518414610b7657fe5b610b9833338a84600181518110610b8957fe5b60200260200101518b8b61154c565b50478015610bcf57604051339082156108fc029083906000818181858888f19350505050158015610bcd573d6000803e3d6000fd5b505b81600081518110610bdc57fe5b6020026020010151955050505050509392505050565b6000546001600160a01b03163314610c3d576040805162461bcd60e51b81526020600482015260096024820152683737ba1037bbb732b960b91b604482015290519081900360640190fd5b600054600160a01b900460ff16610c5357600080fd5b6000805460ff60a01b191681556040517f7805862f689e2f13df9f062ff482ad3ad112aca9e0847911ed832e158c525b339190a1565b6001546001600160a01b031681565b600054600160a01b900460ff1681565b600061090b82600454611835565b60065481565b6003546001600160a01b03163314610cd357600080fd5b60648160ff161115610ce457600080fd5b6003805460ff909216600160a01b0260ff60a01b19909216919091179055565b6000610d12338585856113d0565b949350505050565b6000546001600160a01b03163314610d65576040805162461bcd60e51b81526020600482015260096024820152683737ba1037bbb732b960b91b604482015290519081900360640190fd5b600054600160a01b900460ff1615610d7c57600080fd5b6000805460ff60a01b1916600160a01b1781556040517f6985a02210a168e66602d3235cb6db0e70f92b3ba4d376a33c0f3d9434bff6259190a1565b60075481565b6000610d1233858585610913565b600754151590565b6000546001600160a01b031681565b6000610dee426112cd565b905090565b6002546000906001600160a01b0316331480610e1957506001546001600160a01b031633145b610e2257600080fd5b6002546001600160a01b0316331415610e4757610e4185858585611887565b50610e66565b6001546001600160a01b03163314156101ee57610e6685858585611ab6565b506001949350505050565b6003546001600160a01b031681565b600354600160a01b900460ff1681565b600080610e9c836108f8565b60408051600280825260608083018452939450909160208301908036833701905050905073c02aaa39b223fe8d0a0e5c4f27ead9083c756cc281600081518110610ee257fe5b6001600160a01b0392831660209182029290920101526001805483519216918391908110610f0c57fe5b6001600160a01b03909216602092830291909101820152604080516307c0329d60e21b81526004810185815260248201928352845160448301528451737a250d5630b4cf539739df2c5dacb4c659f2488d94631f00ca749488948894939192606490910191858201910280838360005b83811015610f94578181015183820152602001610f7c565b50505050905001935050505060006040518083038186803b158015610fb857600080fd5b505afa158015610fcc573d6000803e3d6000fd5b505050506040513d6000823e601f3d908101601f191682016040526020811015610ff557600080fd5b8101908080516040519392919084600160201b82111561101457600080fd5b90830190602082018581111561102957600080fd5b82518660208202830111600160201b8211171561104557600080fd5b82525081516020918201928201910280838360005b8381101561107257818101518382015260200161105a565b5050505090500160405250505060008151811061108b57fe5b602002602001015192505050919050565b6000546001600160a01b031633146110e7576040805162461bcd60e51b81526020600482015260096024820152683737ba1037bbb732b960b91b604482015290519081900360640190fd5b6110f76110f2610de3565b611ad9565b600791909155600855565b600061090b61090561111f60055485611ae290919063ffffffff16565b611127610de3565b90611b07565b60035460009061090b9061271090611150908590600160a01b900460ff16611ae2565b90611b19565b6003546001600160a01b0316331461116d57600080fd5b600380546001600160a01b0319166001600160a01b0392909216919091179055565b60085481565b60055481565b6000546001600160a01b031633146111e6576040805162461bcd60e51b81526020600482015260096024820152683737ba1037bbb732b960b91b604482015290519081900360640190fd5b6040805163a9059cbb60e01b81526001600160a01b038481166004830152602482018490529151859283169163a9059cbb9160448083019260209291908290030181600087803b15801561123957600080fd5b505af115801561124d573d6000803e3d6000fd5b505050506040513d602081101561126357600080fd5b50516112a8576040805162461bcd60e51b815260206004820152600f60248201526e151c985b9cd9995c8819985a5b1959608a1b604482015290519081900360640190fd5b50505050565b6000806112ba83611102565b90506112c58161112d565b900392915050565b60006112d7610dcc565b1561132157600060065483039050600060085460075483816112f557fe5b040290506000816004540190506000811215611317576000935050505061090e565b925061090e915050565b5060045461090e565b6000546001600160a01b03163314611375576040805162461bcd60e51b81526020600482015260096024820152683737ba1037bbb732b960b91b604482015290519081900360640190fd5b600080546040516001600160a01b03808516939216917f8be0079c531659141344cd1fd0a4f28419497f9722a3daafe3b4186f6b6457e091a3600080546001600160a01b0319166001600160a01b0392909216919091179055565b60006109223386866000878761154c565b6000546001600160a01b0316331461142c576040805162461bcd60e51b81526020600482015260096024820152683737ba1037bbb732b960b91b604482015290519081900360640190fd5b61143582611ad9565b60055550565b6002546001600160a01b031681565b6000600182101561145a57600080fd5b600061147460055460018503611ae290919063ffffffff16565b840190506114968360026114888785611b2c565b8161148f57fe5b0490611ae2565b9150505b92915050565b600254604080516323b872dd60e01b81526001600160a01b038881166004830152306024830152604482018790529151600093929092169182916323b872dd91606480830192602092919082900301818887803b15801561150057600080fd5b505af1158015611514573d6000803e3d6000fd5b505050506040513d602081101561152a57600080fd5b505161153557600080fd5b61154186868686611887565b979650505050505050565b600080611558866108f8565b6001549091506001600160a01b03168582111561160357604080516323b872dd60e01b81526001600160a01b038b8116600483015230602483015288850360448301529151918316916323b872dd916064808201926020929091908290030181600087803b1580156115c957600080fd5b505af11580156115dd573d6000803e3d6000fd5b505050506040513d60208110156115f357600080fd5b50516115fe57600080fd5b611699565b8582101561169957806001600160a01b031663a9059cbb8a8489036040518363ffffffff1660e01b815260040180836001600160a01b0316815260200182815260200192505050602060405180830381600087803b15801561166457600080fd5b505af1158015611678573d6000803e3d6000fd5b505050506040513d602081101561168e57600080fd5b505161169957600080fd5b6002546040805163a9059cbb60e01b81526001600160a01b038b81166004830152602482018b905291519190921691829163a9059cbb916044808201926020929091908290030181600087803b1580156116f257600080fd5b505af1158015611706573d6000803e3d6000fd5b505050506040513d602081101561171c57600080fd5b505161172757600080fd5b61174861173f6005548a611ae290919063ffffffff16565b60045490611b2c565b600481905550600260009054906101000a90046001600160a01b03166001600160a01b03167f424641a08047715d4b70195e1d90818d302683d9f65f41910ca13f5a486d37cc8b88888c600160009054906101000a90046001600160a01b031689600060045460405180896001600160a01b0316815260200180602001878152602001866001600160a01b031681526020018581526020018481526020018381526020018281038252898982818152602001925080828437600083820152604051601f909101601f19169092018290039b50909950505050505050505050a2509098975050505050505050565b6000818310156118475750600061149a565b600060018303848161185557fe5b600554919004915081028303600061186d828461144a565b905061187b81870383611835565b8301935050505061149a565b60008061189385611102565b6001549091506001600160a01b031660006118ad8361112d565b90508015611940576003546040805163a9059cbb60e01b81526001600160a01b0392831660048201526024810184905290519184169163a9059cbb916044808201926020929091908290030181600087803b15801561190b57600080fd5b505af115801561191f573d6000803e3d6000fd5b505050506040513d602081101561193557600080fd5b505161194057600080fd5b816001600160a01b031663a9059cbb898386036040518363ffffffff1660e01b815260040180836001600160a01b0316815260200182815260200192505050602060405180830381600087803b15801561199957600080fd5b505af11580156119ad573d6000803e3d6000fd5b505050506040513d60208110156119c357600080fd5b50516119ce57600080fd5b6119ef6119e660055489611ae290919063ffffffff16565b60045490611b07565b6004819055600254600154604080516001600160a01b038d8116825260008d9003928201839052928316606082018190526080820189905260a0820187905260c0820186905260e0602083018181529083018c905293909416947f424641a08047715d4b70195e1d90818d302683d9f65f41910ca13f5a486d37cc948e948d948d9490938c928b92906101008201898980828437600083820152604051601f909101601f19169092018290039b50909950505050505050505050a250909695505050505050565b6000611ac184610ca8565b9050611ad185868387878761154c565b505050505050565b60045542600655565b600082611af15750600061149a565b5081810281838281611aff57fe5b041461149a57fe5b600082821115611b1357fe5b50900390565b6000818381611b2457fe5b049392505050565b8181018281101561149a57fefea26469706673582212207f1d006e4644c2b98c52802fd471fe6e1cf2512cfc6e8854cb456f6127ece18464736f6c63430007000033",
    "sourcePath": "c:/Users/luziu/Documents/aktionariat/contracts/src/MarketMaker.sol",
    "compiler": {
        "name": "solc",
        "version": "0.7.0+commit.9e61f92b"
    },
    "functionHashes": {
        "base()": "5001f3b5",
        "buy(address,uint256,bytes)": "f496a610",
        "buy(uint256,bytes)": "82189551",
        "buyWithEther(uint256,bytes)": "2535a65a",
        "copyright()": "a63ae9c7",
        "driftIncrement()": "c7780ab2",
        "driftStart()": "7ff6c191",
        "getBuyPrice(uint256)": "08d4db14",
        "getPrice()": "98d5fdca",
        "getPrice(uint256)": "e7572230",
        "getPriceInEther(uint256)": "ae539d80",
        "getSaleFee(uint256)": "ba8f1b69",
        "getSaleProceeds(uint256)": "e21ae432",
        "getSellPrice(uint256)": "ba730e53",
        "getShares(uint256)": "6f7267b7",
        "hasDrift()": "8a07d3d0",
        "increment()": "d09de08a",
        "licenseFeeBps()": "a6c677f6",
        "onTokenTransfer(address,uint256,bytes)": "a4c0ed36",
        "owner()": "8da5cb5b",
        "pause()": "8456cb59",
        "paused()": "5c975abb",
        "sell(address,uint256,bytes)": "19f4d6b7",
        "sell(uint256,bytes)": "88bbbe35",
        "setCopyright(address)": "c3b929f7",
        "setDrift(uint256,int256)": "afaefe9e",
        "setLicenseFee(uint8)": "80aa0df7",
        "setPrice(uint256,uint256)": "f7d97577",
        "timeToDrift()": "84b41fda",
        "token()": "fc0c546a",
        "transferOwnership(address)": "f2fde38b",
        "unpause()": "3f4ba83a",
        "withdraw(address,address,uint256)": "d9caed12"
    },
    "gasEstimates": {
        "creation": {
            "codeDepositCost": "1404600",
            "executionCost": "infinite",
            "totalCost": "infinite"
        },
        "external": {
            "base()": "1083",
            "buy(address,uint256,bytes)": "infinite",
            "buy(uint256,bytes)": "infinite",
            "buyWithEther(uint256,bytes)": "infinite",
            "copyright()": "1105",
            "driftIncrement()": "1043",
            "driftStart()": "1110",
            "getBuyPrice(uint256)": "infinite",
            "getPrice()": "4532",
            "getPrice(uint256)": "4470",
            "getPriceInEther(uint256)": "infinite",
            "getSaleFee(uint256)": "1372",
            "getSaleProceeds(uint256)": "infinite",
            "getSellPrice(uint256)": "infinite",
            "getShares(uint256)": "infinite",
            "hasDrift()": "1077",
            "increment()": "1065",
            "licenseFeeBps()": "1120",
            "onTokenTransfer(address,uint256,bytes)": "infinite",
            "owner()": "1126",
            "pause()": "23518",
            "paused()": "1095",
            "sell(address,uint256,bytes)": "infinite",
            "sell(uint256,bytes)": "infinite",
            "setCopyright(address)": "22024",
            "setDrift(uint256,int256)": "70386",
            "setLicenseFee(uint8)": "21978",
            "setPrice(uint256,uint256)": "61191",
            "timeToDrift()": "1110",
            "token()": "1169",
            "transferOwnership(address)": "24333",
            "unpause()": "23526",
            "withdraw(address,address,uint256)": "infinite"
        },
        "internal": {
            "_buy(address,address,uint256,uint256,bytes calldata)": "infinite",
            "_notifyMoneyReceived(address,uint256,bytes calldata)": "infinite",
            "_notifyTokensReceived(address,uint256,bytes calldata)": "infinite",
            "_sell(address,address,uint256,bytes calldata)": "infinite",
            "anchorPrice(uint256)": "40017",
            "getPrice(uint256,uint256)": "infinite",
            "getShares(uint256,uint256)": "infinite"
        }
    }
}