{
    "contractName": "MultiSigFactory",
    "abi": [
        {
            "anonymous": false,
            "inputs": [
                {
                    "indexed": false,
                    "internalType": "address",
                    "name": "contractAddress",
                    "type": "address"
                },
                {
                    "indexed": false,
                    "internalType": "string",
                    "name": "typeName",
                    "type": "string"
                }
            ],
            "name": "ContractCreated",
            "type": "event"
        },
        {
            "inputs": [
                {
                    "internalType": "address",
                    "name": "owner",
                    "type": "address"
                }
            ],
            "name": "create",
            "outputs": [
                {
                    "internalType": "address",
                    "name": "",
                    "type": "address"
                }
            ],
            "stateMutability": "nonpayable",
            "type": "function"
        },
        {
            "inputs": [
                {
                    "internalType": "address",
                    "name": "owner",
                    "type": "address"
                },
                {
                    "internalType": "bytes32",
                    "name": "salt",
                    "type": "bytes32"
                }
            ],
            "name": "create",
            "outputs": [
                {
                    "internalType": "address",
                    "name": "",
                    "type": "address"
                }
            ],
            "stateMutability": "nonpayable",
            "type": "function"
        },
        {
            "inputs": [
                {
                    "internalType": "address",
                    "name": "owner",
                    "type": "address"
                },
                {
                    "internalType": "bytes32",
                    "name": "salt",
                    "type": "bytes32"
                }
            ],
            "name": "predict",
            "outputs": [
                {
                    "internalType": "address",
                    "name": "",
                    "type": "address"
                }
            ],
            "stateMutability": "view",
            "type": "function"
        }
    ],
    "bytecode": "608060405234801561001057600080fd5b50612893806100206000396000f3fe60806040523480156200001157600080fd5b5060043610620000465760003560e01c806364fb6f5e146200004b5780639ed93318146200007a578063a3def9231462000091575b600080fd5b620000626200005c366004620002a9565b620000a8565b6040516200007191906200036b565b60405180910390f35b620000626200008b36600462000285565b6200015d565b62000062620000a2366004620002a9565b620001dc565b60008060405180602001620000bd906200025f565b601f1982820381018352601f909101166040819052620000e29086906020016200036b565b60408051601f19818403018152908290526200010292916020016200034a565b60408051601f1981840301815290829052805160209182012092506000916200013c916001600160f81b0319913091889187910162000311565b60408051808303601f19018152919052805160209091012095945050505050565b600080826040516200016f906200025f565b6200017b91906200036b565b604051809103906000f08015801562000198573d6000803e3d6000fd5b5090507f5748f17320a7bfc4dad968e541c61b9fa9923765f9efdfa3dffc76763e02d19681604051620001cc91906200037f565b60405180910390a190505b919050565b6000808284604051620001ef906200025f565b620001fb91906200036b565b8190604051809103906000f59050801580156200021c573d6000803e3d6000fd5b5090507f5748f17320a7bfc4dad968e541c61b9fa9923765f9efdfa3dffc76763e02d196816040516200025091906200037f565b60405180910390a19392505050565b6124aa80620003b483390190565b80356001600160a01b0381168114620001d757600080fd5b60006020828403121562000297578081fd5b620002a2826200026d565b9392505050565b60008060408385031215620002bc578081fd5b620002c7836200026d565b946020939093013593505050565b60008151815b81811015620002f75760208185018101518683015201620002db565b81811115620003065782828601525b509290920192915050565b6001600160f81b031994909416845260609290921b6bffffffffffffffffffffffff191660018401526015830152603582015260550190565b6000620003636200035c8386620002d5565b84620002d5565b949350505050565b6001600160a01b0391909116815260200190565b6001600160a01b03919091168152604060208201819052600890820152674d756c746953696760c01b60608201526080019056fe60806040523480156200001157600080fd5b50604051620024aa380380620024aa8339810160408190526200003491620003c4565b62000042608060006200007e565b6200005363ffffffff30166200009f565b805162000069916003916020909101906200031e565b506200007781600162000196565b5062000524565b6001600160801b031960809190911b166001600160801b0390911617600055565b6060600060015b808410620000c65760081b81620000bd81620004f0565b925050620000a6565b50826000826001600160401b03811115620000f157634e487b7160e01b600052604160045260246000fd5b6040519080825280601f01601f1916602001820160405280156200011c576020820181803683370190505b509050825b80156200018d5760f883901b826200013b60018462000439565b815181106200015a57634e487b7160e01b600052603260045260246000fd5b60200101906001600160f81b031916908160001a90535060089290921c9180620001848162000474565b91505062000121565b50949350505050565b620001ac82620002e160201b6200085f1760201c565b15620001d55760405162461bcd60e51b8152600401620001cc90620003f4565b60405180910390fd5b6001600160a01b0382166000908152600160205260409020805460ff83811660ff198316179092551680158015906200020f575060ff8216155b156200024c576002805461ffff169060006200022b8362000453565b91906101000a81548161ffff021916908361ffff1602179055505062000299565b60ff811615801562000261575060008260ff16115b1562000299576002805461ffff169060006200027d83620004cb565b91906101000a81548161ffff021916908361ffff160217905550505b826001600160a01b03167f7f00bf87056fc9622b70d830cce34aa24d6c12881ebbc71d3bf22d0c5ae295b783604051620002d491906200042b565b60405180910390a2505050565b6000813f7fc5d2460186f7233c927e7db2dcc703c0e500b653ca82273b7bfad8045d85a4708181148015906200031657508115155b949350505050565b8280546200032c906200048e565b90600052602060002090601f0160209004810192826200035057600085556200039b565b82601f106200036b57805160ff19168380011785556200039b565b828001600101855582156200039b579182015b828111156200039b5782518255916020019190600101906200037e565b50620003a9929150620003ad565b5090565b5b80821115620003a95760008155600101620003ae565b600060208284031215620003d6578081fd5b81516001600160a01b0381168114620003ed578182fd5b9392505050565b6020808252601b908201527f7369676e65722063616e6e6f74206265206120636f6e74726163740000000000604082015260600190565b60ff91909116815260200190565b6000828210156200044e576200044e6200050e565b500390565b600061ffff8216806200046a576200046a6200050e565b6000190192915050565b6000816200048657620004866200050e565b506000190190565b600281046001821680620004a357607f821691505b60208210811415620004c557634e487b7160e01b600052602260045260246000fd5b50919050565b600061ffff80831681811415620004e657620004e66200050e565b6001019392505050565b60006000198214156200050757620005076200050e565b5060010190565b634e487b7160e01b600052601160045260246000fd5b611f7680620005346000396000f3fe6080604052600436106100c65760003560e01c80638291286c1161007f578063cb6367d111610059578063cb6367d11461021d578063ce5494bb1461024a578063d69c3d301461026a578063ecec0dfd1461027f576100cd565b80638291286c146101bb578063b5fe5163146101d0578063b6e404de146101fd576100cd565b80630f43d678146100d25780631068361f146100f457806348753d0014610114578063736c0d5b1461014a5780637ca548c6146101775780637cedbb8014610199576100cd565b366100cd57005b600080fd5b3480156100de57600080fd5b506100f26100ed366004611846565b61029f565b005b34801561010057600080fd5b506100f261010f3660046117bc565b610303565b34801561012057600080fd5b5061013461012f366004611929565b61034a565b6040516101419190611b3a565b60405180910390f35b34801561015657600080fd5b5061016a6101653660046117a2565b6104b5565b6040516101419190611c50565b34801561018357600080fd5b5061018c6104ca565b6040516101419190611c38565b3480156101a557600080fd5b506101ae6104d4565b6040516101419190611c47565b3480156101c757600080fd5b506101346104d9565b3480156101dc57600080fd5b506101f06101eb36600461190f565b610567565b6040516101419190611aef565b34801561020957600080fd5b506100f26102183660046117ee565b6105a8565b34801561022957600080fd5b5061023d61023836600461186f565b610609565b6040516101419190611adc565b34801561025657600080fd5b506100f26102653660046117a2565b6107f8565b34801561027657600080fd5b506101ae610805565b34801561028b57600080fd5b5061023d61029a366004611929565b610828565b303314806102c057503360009081526001602081905260409091205460ff16145b6102e55760405162461bcd60e51b81526004016102dc90611be3565b60405180910390fd5b6102ef828261089b565b60025461ffff166102ff57600080fd5b5050565b3033148061032457503360009081526001602081905260409091205460ff16145b6103405760405162461bcd60e51b81526004016102dc90611be3565b6102ff82826109c2565b606060006103e68d6003805461035f90611e88565b80601f016020809104026020016040519081016040528092919081815260200182805461038b90611e88565b80156103d85780601f106103ad576101008083540402835291602001916103d8565b820191906000526020600020905b8154815290600101906020018083116103bb57829003601f168201915b50505050508e8e8e8e610a1a565b905060006103f9828a8a8a8a8a8a610609565b9050600061044c8e8d8d8080601f016020809104026020016040519081016040528093929190818152602001838380828437600081840152601f19601f820116905080830192505050505050508f610d2c565b90506104578f610dde565b8d6001600160a01b03167f64ada3f9bcd41ebd407b399dc401184273a19bc294825172626af05a15c95d2561048c8e8e610e8f565b8460405161049b929190611b18565b60405180910390a29e9d5050505050505050505050505050565b60016020526000908152604090205460ff1681565b60025461ffff1681565b606481565b600380546104e690611e88565b80601f016020809104026020016040519081016040528092919081815260200182805461051290611e88565b801561055f5780601f106105345761010080835404028352916020019161055f565b820191906000526020600020905b81548152906001019060200180831161054257829003601f168201915b505050505081565b600080610572610f83565b905061057e8184610f89565b8061059f575061059f81610590610fce565b856001600160801b0316610fd7565b9150505b919050565b6105ea8483838080601f016020809104026020016040519081016040528093929190818152602001838380828437600092019190915250889250610d2c915050565b5060405162461bcd60e51b81526004016102dc90611bac565b50505050565b606060008467ffffffffffffffff81111561063457634e487b7160e01b600052604160045260246000fd5b60405190808252806020026020018201604052801561065d578160200160208202803683370190505b50905060005b858110156107e257600060018b8b8b8581811061069057634e487b7160e01b600052603260045260246000fd5b90506020020160208101906106a59190611a1a565b8a8a868181106106c557634e487b7160e01b600052603260045260246000fd5b905060200201358989878181106106ec57634e487b7160e01b600052603260045260246000fd5b90506020020135604051600081526020016040526040516107109493929190611afa565b6020604051602081039080840390855afa158015610732573d6000803e3d6000fd5b505060408051601f1901516001600160a01b03811660009081526001602052919091205490925060ff1690508015801590610770575060ff81168810155b61078c5760405162461bcd60e51b81526004016102dc90611b4d565b818484815181106107ad57634e487b7160e01b600052603260045260246000fd5b60200260200101906001600160a01b031690816001600160a01b031681525050505080806107da90611ee5565b915050610663565b506107ec8161102c565b98975050505050505050565b61080233826109c2565b50565b600061080f610f83565b61081a906001611c5e565b6001600160801b0316905090565b6060600061083d8d6003805461035f90611e88565b905061084e81898989898989610609565b9d9c50505050505050505050505050565b6000813f7fc5d2460186f7233c927e7db2dcc703c0e500b653ca82273b7bfad8045d85a47081811480159061089357508115155b949350505050565b6108a48261085f565b156108c15760405162461bcd60e51b81526004016102dc90611b75565b6001600160a01b0382166000908152600160205260409020805460ff83811660ff198316179092551680158015906108fa575060ff8216155b15610933576002805461ffff1690600061091383611e53565b91906101000a81548161ffff021916908361ffff1602179055505061097c565b60ff8116158015610947575060008260ff16115b1561097c576002805461ffff1690600061096083611ec3565b91906101000a81548161ffff021916908361ffff160217905550505b826001600160a01b03167f7f00bf87056fc9622b70d830cce34aa24d6c12881ebbc71d3bf22d0c5ae295b7836040516109b59190611c50565b60405180910390a2505050565b6001600160a01b03811660009081526001602052604090205460ff16156109e857600080fd5b6001600160a01b038216600090815260016020526040902054610a0f90829060ff1661089b565b6102ff82600061089b565b6040805160098082526101408201909252600091829190816020015b6060815260200190600190039081610a36579050509050610a5f886001600160801b03166110f6565b81600081518110610a8057634e487b7160e01b600052603260045260246000fd5b60200260200101819052508681600181518110610aad57634e487b7160e01b600052603260045260246000fd5b6020026020010181905250610ac36152086110f6565b81600281518110610ae457634e487b7160e01b600052603260045260246000fd5b602002602001018190525085604051602001610b009190611aa3565b60405160208183030381529060405281600381518110610b3057634e487b7160e01b600052603260045260246000fd5b6020026020010181905250610b44856110f6565b81600481518110610b6557634e487b7160e01b600052603260045260246000fd5b602002602001018190525083838080601f016020809104026020016040519081016040528093929190818152602001838380828437600092019190915250508351849250600591508110610bc957634e487b7160e01b600052603260045260246000fd5b6020026020010181905250610bdd466110f6565b81600681518110610bfe57634e487b7160e01b600052603260045260246000fd5b6020026020010181905250610c1360006110f6565b81600781518110610c3457634e487b7160e01b600052603260045260246000fd5b602002602001018190525060005b6008811015610cb957610c7b828281518110610c6e57634e487b7160e01b600052603260045260246000fd5b60200260200101516111e1565b828281518110610c9b57634e487b7160e01b600052603260045260246000fd5b60200260200101819052508080610cb190611ee5565b915050610c42565b5080600781518110610cdb57634e487b7160e01b600052603260045260246000fd5b602002602001015181600881518110610d0457634e487b7160e01b600052603260045260246000fd5b6020026020010181905250610d188161123f565b805190602001209150509695505050505050565b6060825160001480610d425750610d428461085f565b610d4b57600080fd5b600080856001600160a01b03168486604051610d679190611ac0565b60006040518083038185875af1925050503d8060008114610da4576040519150601f19603f3d011682016040523d82523d6000602084013e610da9565b606091505b50915091508115610dbd579150610dd79050565b8060405162461bcd60e51b81526004016102dc9190611b3a565b9392505050565b60005480608081901c610df18285610f89565b15610e3f57610e3a846001610e068583611de8565b610e109190611de8565b6001600160801b03166001846001600160801b0316901b6001176001600160801b0316901b611263565b610603565b610e538282866001600160801b0316610fd7565b156100cd57610e3a826001610e688783611de8565b610e729190611de8565b6001600160801b03166001901b836001600160801b031617611263565b60006004821015610ea257506000610f7d565b601883836003818110610ec557634e487b7160e01b600052603260045260246000fd5b909101356001600160f81b03191690911c9050601084846002818110610efb57634e487b7160e01b600052603260045260246000fd5b909101356001600160f81b03191690911c9050600885856001818110610f3157634e487b7160e01b600052603260045260246000fd5b909101356001600160f81b03191690911c90508585600081610f6357634e487b7160e01b600052603260045260246000fd5b9050013560f81c60f81b6001600160f81b03191617171790505b92915050565b60005490565b6000826001600160801b0316826001600160801b0316118015610dd75750610fbb60646001600160801b038516611c89565b826001600160801b031611159392505050565b60005460801c90565b600080610fed836001600160801b038716611e10565b9050600081118015611000575060808111155b801561102357506001600160801b03841661101c600183611e10565b6001901b16155b95945050505050565b60005b81518110156102ff576000611045826001611c89565b90505b82518110156110e35782818151811061107157634e487b7160e01b600052603260045260246000fd5b60200260200101516001600160a01b03168383815181106110a257634e487b7160e01b600052603260045260246000fd5b60200260200101516001600160a01b031614156110d15760405162461bcd60e51b81526004016102dc90611c0b565b806110db81611ee5565b915050611048565b50806110ee81611ee5565b91505061102f565b6060600060015b8084106111195760081b8161111181611ee5565b9250506110fd565b508260008267ffffffffffffffff81111561114457634e487b7160e01b600052604160045260246000fd5b6040519080825280601f01601f19166020018201604052801561116e576020820181803683370190505b509050825b80156111d85760f883901b8261118a600184611e10565b815181106111a857634e487b7160e01b600052603260045260246000fd5b60200101906001600160f81b031916908160001a90535060089290921c91806111d081611e71565b915050611173565b50949350505050565b6060808251600114801561121e575060808360008151811061121357634e487b7160e01b600052603260045260246000fd5b016020015160f81c11155b1561122a575081610f7d565b610dd76112398451608061128d565b8461147c565b6060600061124c836114f9565b905061059f61125d825160c061128d565b8261147c565b6fffffffffffffffffffffffffffffffff1960809190911b166001600160801b0390911617600055565b606080603884101561130557604080516001808252818301909252906020820181803683370190505090506112c28385611c89565b601f1a60f81b816000815181106112e957634e487b7160e01b600052603260045260246000fd5b60200101906001600160f81b031916908160001a905350610dd7565b600060015b6113148187611ca1565b1561133a578161132381611ee5565b9250611333905061010082611dc9565b905061130a565b611345826001611c89565b67ffffffffffffffff81111561136b57634e487b7160e01b600052604160045260246000fd5b6040519080825280601f01601f191660200182016040528015611395576020820181803683370190505b5092506113a28583611c89565b6113ad906037611c89565b601f1a60f81b836000815181106113d457634e487b7160e01b600052603260045260246000fd5b60200101906001600160f81b031916908160001a905350600190505b818111611473576101006114048284611e10565b61141090610100611cfb565b61141a9088611ca1565b6114249190611f00565b601f1a60f81b83828151811061144a57634e487b7160e01b600052603260045260246000fd5b60200101906001600160f81b031916908160001a9053508061146b81611ee5565b9150506113f0565b50509392505050565b6060806040519050835180825260208201818101602087015b818310156114ad578051835260209283019201611495565b50855184518101855292509050808201602086015b818310156114da5780518352602092830192016114c2565b508651929092011591909101601f01601f191660405250905092915050565b606081516000141561151a57506040805160008152602081019091526105a3565b6000805b835181101561156f5783818151811061154757634e487b7160e01b600052603260045260246000fd5b6020026020010151518261155b9190611c89565b91508061156781611ee5565b91505061151e565b60008267ffffffffffffffff81111561159857634e487b7160e01b600052604160045260246000fd5b6040519080825280601f01601f1916602001820160405280156115c2576020820181803683370190505b50600092509050602081015b85518310156111d85760008684815181106115f957634e487b7160e01b600052603260045260246000fd5b60200260200101519050600060208201905061161783828451611662565b87858151811061163757634e487b7160e01b600052603260045260246000fd5b6020026020010151518361164b9190611c89565b92505050828061165a90611ee5565b9350506115ce565b8282825b6020811061169e578151835261167d602084611c89565b925061168a602083611c89565b9150611697602082611e10565b9050611666565b600060016116ad836020611e10565b6116b990610100611cfb565b6116c39190611e10565b925184518416931916929092179092525050505050565b80356001600160a01b03811681146105a357600080fd5b60008083601f840112611702578182fd5b50813567ffffffffffffffff811115611719578182fd5b602083019150836020808302850101111561173357600080fd5b9250929050565b60008083601f84011261174b578182fd5b50813567ffffffffffffffff811115611762578182fd5b60208301915083602082850101111561173357600080fd5b80356001600160801b03811681146105a357600080fd5b803560ff811681146105a357600080fd5b6000602082840312156117b3578081fd5b610dd7826116da565b600080604083850312156117ce578081fd5b6117d7836116da565b91506117e5602084016116da565b90509250929050565b60008060008060608587031215611803578182fd5b61180c856116da565b935060208501359250604085013567ffffffffffffffff81111561182e578283fd5b61183a8782880161173a565b95989497509550505050565b60008060408385031215611858578182fd5b611861836116da565b91506117e560208401611791565b60008060008060008060006080888a031215611889578283fd5b87359650602088013567ffffffffffffffff808211156118a7578485fd5b6118b38b838c016116f1565b909850965060408a01359150808211156118cb578485fd5b6118d78b838c016116f1565b909650945060608a01359150808211156118ef578384fd5b506118fc8a828b016116f1565b989b979a50959850939692959293505050565b600060208284031215611920578081fd5b610dd78261177a565b600080600080600080600080600080600060e08c8e031215611949578384fd5b6119528c61177a565b9a5061196060208d016116da565b995060408c0135985067ffffffffffffffff8060608e01351115611982578485fd5b6119928e60608f01358f0161173a565b909950975060808d01358110156119a7578485fd5b6119b78e60808f01358f016116f1565b909750955060a08d01358110156119cc578485fd5b6119dc8e60a08f01358f016116f1565b909550935060c08d01358110156119f1578283fd5b50611a028d60c08e01358e016116f1565b81935080925050509295989b509295989b9093969950565b600060208284031215611a2b578081fd5b610dd782611791565b6000815180845260208085019450808401835b83811015611a6c5781516001600160a01b031687529582019590820190600101611a47565b509495945050505050565b60008151808452611a8f816020860160208601611e27565b601f01601f19169290920160200192915050565b60609190911b6bffffffffffffffffffffffff1916815260140190565b60008251611ad2818460208701611e27565b9190910192915050565b600060208252610dd76020830184611a34565b901515815260200190565b93845260ff9290921660208401526040830152606082015260800190565b600063ffffffff60e01b84168252604060208301526108936040830184611a34565b600060208252610dd76020830184611a77565b6020808252600e908201526d31b7b9b4b3b732b91032b93937b960911b604082015260600190565b6020808252601b908201527f7369676e65722063616e6e6f74206265206120636f6e74726163740000000000604082015260600190565b60208082526017908201527f54657374207061737365642e20526576657274696e672e000000000000000000604082015260600190565b6020808252600e908201526d1b9bdd08185d5d1a1bdc9a5e995960921b604082015260600190565b6020808252601390820152726475706c6963617465207369676e617475726560681b604082015260600190565b61ffff91909116815260200190565b90815260200190565b60ff91909116815260200190565b60006001600160801b03808316818516808303821115611c8057611c80611f14565b01949350505050565b60008219821115611c9c57611c9c611f14565b500190565b600082611cb057611cb0611f2a565b500490565b80825b6001808611611cc75750611cf2565b818704821115611cd957611cd9611f14565b80861615611ce657918102915b9490941c938002611cb8565b94509492505050565b6000610dd76000198484600082611d1457506001610dd7565b81611d2157506000610dd7565b8160018114611d375760028114611d4157611d6e565b6001915050610dd7565b60ff841115611d5257611d52611f14565b6001841b915084821115611d6857611d68611f14565b50610dd7565b5060208310610133831016604e8410600b8410161715611da1575081810a83811115611d9c57611d9c611f14565b610dd7565b611dae8484846001611cb5565b808604821115611dc057611dc0611f14565b02949350505050565b6000816000190483118215151615611de357611de3611f14565b500290565b60006001600160801b0383811690831681811015611e0857611e08611f14565b039392505050565b600082821015611e2257611e22611f14565b500390565b60005b83811015611e42578181015183820152602001611e2a565b838111156106035750506000910152565b600061ffff821680611e6757611e67611f14565b6000190192915050565b600081611e8057611e80611f14565b506000190190565b600281046001821680611e9c57607f821691505b60208210811415611ebd57634e487b7160e01b600052602260045260246000fd5b50919050565b600061ffff80831681811415611edb57611edb611f14565b6001019392505050565b6000600019821415611ef957611ef9611f14565b5060010190565b600082611f0f57611f0f611f2a565b500690565b634e487b7160e01b600052601160045260246000fd5b634e487b7160e01b600052601260045260246000fdfea26469706673582212209f2ffdc8ea5503b28cc4e53efb056a7caa280599c0b3bca1f1abf9e636a386b964736f6c63430008000033a26469706673582212204a71432ca97a0f98c6a9d8c8910f171692b230bba031ccc658058950e3b367f064736f6c63430008000033",
    "sourcePath": "c:/Users/luziu/Documents/aktionariat/contracts/src/MultiSigFactory.sol",
    "compiler": {
        "name": "solc",
        "version": "0.8.0+commit.c7dfd78e"
    },
    "functionHashes": {
        "create(address)": "9ed93318",
        "create(address,bytes32)": "a3def923",
        "predict(address,bytes32)": "64fb6f5e"
    },
    "gasEstimates": {
        "creation": {
            "codeDepositCost": "2077400",
            "executionCost": "2207",
            "totalCost": "2079607"
        },
        "external": {
            "create(address)": "infinite",
            "create(address,bytes32)": "infinite",
            "predict(address,bytes32)": "infinite"
        }
    }
}