{
    "contractName": "MultiSig",
    "abi": [
        {
            "inputs": [
                {
                    "internalType": "address",
                    "name": "owner",
                    "type": "address"
                }
            ],
            "stateMutability": "nonpayable",
            "type": "constructor"
        },
        {
            "anonymous": false,
            "inputs": [
                {
                    "indexed": true,
                    "internalType": "address",
                    "name": "signer",
                    "type": "address"
                },
                {
                    "indexed": false,
                    "internalType": "uint8",
                    "name": "cosignaturesNeeded",
                    "type": "uint8"
                }
            ],
            "name": "SignerChange",
            "type": "event"
        },
        {
            "anonymous": false,
            "inputs": [
                {
                    "indexed": true,
                    "internalType": "address",
                    "name": "toAddress",
                    "type": "address"
                },
                {
                    "indexed": false,
                    "internalType": "bytes4",
                    "name": "selector",
                    "type": "bytes4"
                },
                {
                    "indexed": false,
                    "internalType": "address[]",
                    "name": "signers",
                    "type": "address[]"
                }
            ],
            "name": "Transacted",
            "type": "event"
        },
        {
            "inputs": [],
            "name": "MAX_INCREASE",
            "outputs": [
                {
                    "internalType": "uint256",
                    "name": "",
                    "type": "uint256"
                }
            ],
            "stateMutability": "view",
            "type": "function"
        },
        {
            "inputs": [
                {
                    "internalType": "address",
                    "name": "to",
                    "type": "address"
                },
                {
                    "internalType": "uint256",
                    "name": "value",
                    "type": "uint256"
                },
                {
                    "internalType": "bytes",
                    "name": "data",
                    "type": "bytes"
                }
            ],
            "name": "checkExecution",
            "outputs": [],
            "stateMutability": "nonpayable",
            "type": "function"
        },
        {
            "inputs": [
                {
                    "internalType": "uint128",
                    "name": "nonce",
                    "type": "uint128"
                },
                {
                    "internalType": "address",
                    "name": "to",
                    "type": "address"
                },
                {
                    "internalType": "uint256",
                    "name": "value",
                    "type": "uint256"
                },
                {
                    "internalType": "bytes",
                    "name": "data",
                    "type": "bytes"
                },
                {
                    "internalType": "uint8[]",
                    "name": "v",
                    "type": "uint8[]"
                },
                {
                    "internalType": "bytes32[]",
                    "name": "r",
                    "type": "bytes32[]"
                },
                {
                    "internalType": "bytes32[]",
                    "name": "s",
                    "type": "bytes32[]"
                }
            ],
            "name": "checkSignatures",
            "outputs": [
                {
                    "internalType": "address[]",
                    "name": "",
                    "type": "address[]"
                }
            ],
            "stateMutability": "view",
            "type": "function"
        },
        {
            "inputs": [],
            "name": "contractId",
            "outputs": [
                {
                    "internalType": "bytes",
                    "name": "",
                    "type": "bytes"
                }
            ],
            "stateMutability": "view",
            "type": "function"
        },
        {
            "inputs": [
                {
                    "internalType": "uint128",
                    "name": "nonce",
                    "type": "uint128"
                },
                {
                    "internalType": "address",
                    "name": "to",
                    "type": "address"
                },
                {
                    "internalType": "uint256",
                    "name": "value",
                    "type": "uint256"
                },
                {
                    "internalType": "bytes",
                    "name": "data",
                    "type": "bytes"
                },
                {
                    "internalType": "uint8[]",
                    "name": "v",
                    "type": "uint8[]"
                },
                {
                    "internalType": "bytes32[]",
                    "name": "r",
                    "type": "bytes32[]"
                },
                {
                    "internalType": "bytes32[]",
                    "name": "s",
                    "type": "bytes32[]"
                }
            ],
            "name": "execute",
            "outputs": [
                {
                    "internalType": "bytes",
                    "name": "",
                    "type": "bytes"
                }
            ],
            "stateMutability": "nonpayable",
            "type": "function"
        },
        {
            "inputs": [
                {
                    "internalType": "uint128",
                    "name": "nonce",
                    "type": "uint128"
                }
            ],
            "name": "flagUsed",
            "outputs": [],
            "stateMutability": "nonpayable",
            "type": "function"
        },
        {
            "inputs": [
                {
                    "internalType": "uint128",
                    "name": "nonce",
                    "type": "uint128"
                }
            ],
            "name": "isFree",
            "outputs": [
                {
                    "internalType": "bool",
                    "name": "",
                    "type": "bool"
                }
            ],
            "stateMutability": "view",
            "type": "function"
        },
        {
            "inputs": [
                {
                    "internalType": "address",
                    "name": "source",
                    "type": "address"
                },
                {
                    "internalType": "address",
                    "name": "destination",
                    "type": "address"
                }
            ],
            "name": "migrate",
            "outputs": [],
            "stateMutability": "nonpayable",
            "type": "function"
        },
        {
            "inputs": [
                {
                    "internalType": "address",
                    "name": "destination",
                    "type": "address"
                }
            ],
            "name": "migrate",
            "outputs": [],
            "stateMutability": "nonpayable",
            "type": "function"
        },
        {
            "inputs": [],
            "name": "nextNonce",
            "outputs": [
                {
                    "internalType": "uint256",
                    "name": "",
                    "type": "uint256"
                }
            ],
            "stateMutability": "view",
            "type": "function"
        },
        {
            "inputs": [
                {
                    "internalType": "address",
                    "name": "signer",
                    "type": "address"
                },
                {
                    "internalType": "uint8",
                    "name": "cosignaturesNeeded",
                    "type": "uint8"
                }
            ],
            "name": "setSigner",
            "outputs": [],
            "stateMutability": "nonpayable",
            "type": "function"
        },
        {
            "inputs": [],
            "name": "signerCount",
            "outputs": [
                {
                    "internalType": "uint16",
                    "name": "",
                    "type": "uint16"
                }
            ],
            "stateMutability": "view",
            "type": "function"
        },
        {
            "inputs": [
                {
                    "internalType": "address",
                    "name": "",
                    "type": "address"
                }
            ],
            "name": "signers",
            "outputs": [
                {
                    "internalType": "uint8",
                    "name": "",
                    "type": "uint8"
                }
            ],
            "stateMutability": "view",
            "type": "function"
        },
        {
            "stateMutability": "payable",
            "type": "receive"
        }
    ],
    "bytecode": "60806040523480156200001157600080fd5b5060405162001d4338038062001d43833981810160405260208110156200003757600080fd5b5051620000476080600062000083565b6200005863ffffffff3016620000a4565b80516200006e91600391602090910190620002db565b506200007c8160016200015a565b5062000387565b6001600160801b031960809190911b166001600160801b0390911617600055565b6060600060015b808410620000c25760019091019060081b620000ab565b50826060826001600160401b0381118015620000dd57600080fd5b506040519080825280601f01601f19166020018201604052801562000109576020820181803683370190505b509050825b801562000151578260f81b8260018303815181106200012957fe5b60200101906001600160f81b031916908160001a90535060089290921c91600019016200010e565b50949350505050565b62000170826200029e60201b62000bc81760201c565b15620001c3576040805162461bcd60e51b815260206004820152601b60248201527f7369676e65722063616e6e6f74206265206120636f6e74726163740000000000604482015290519081900360640190fd5b6001600160a01b0382166000908152600160205260409020805460ff83811660ff19831617909255168015801590620001fd575060ff8216155b1562000223576002805461ffff19811661ffff9182166000190190911617905562000257565b60ff811615801562000238575060008260ff16115b1562000257576002805461ffff8082166001011661ffff199091161790555b6040805160ff8416815290516001600160a01b038516917f7f00bf87056fc9622b70d830cce34aa24d6c12881ebbc71d3bf22d0c5ae295b7919081900360200190a2505050565b6000813f7fc5d2460186f7233c927e7db2dcc703c0e500b653ca82273b7bfad8045d85a470818114801590620002d357508115155b949350505050565b828054600181600116156101000203166002900490600052602060002090601f0160209004810192826200031357600085556200035e565b82601f106200032e57805160ff19168380011785556200035e565b828001600101855582156200035e579182015b828111156200035e57825182559160200191906001019062000341565b506200036c92915062000370565b5090565b5b808211156200036c576000815560010162000371565b6119ac80620003976000396000f3fe6080604052600436106100c65760003560e01c80638291286c1161007f578063c1e38e8d11610059578063c1e38e8d146104d8578063ce5494bb1461050b578063d69c3d301461053e578063ecec0dfd14610553576100cd565b80638291286c146103ec578063b5fe516314610401578063b6e404de14610448576100cd565b80630f43d678146100d25780631068361f1461011057806348753d001461014b578063736c0d5b146103505780637ca548c6146103995780637cedbb80146103c5576100cd565b366100cd57005b600080fd5b3480156100de57600080fd5b5061010e600480360360408110156100f557600080fd5b5080356001600160a01b0316906020013560ff16610733565b005b34801561011c57600080fd5b5061010e6004803603604081101561013357600080fd5b506001600160a01b03813581169160200135166107b4565b34801561015757600080fd5b506102db600480360360e081101561016e57600080fd5b6001600160801b03823516916001600160a01b036020820135169160408201359190810190608081016060820135600160201b8111156101ad57600080fd5b8201836020820111156101bf57600080fd5b803590602001918460018302840111600160201b831117156101e057600080fd5b919390929091602081019035600160201b8111156101fd57600080fd5b82018360208201111561020f57600080fd5b803590602001918460208302840111600160201b8311171561023057600080fd5b919390929091602081019035600160201b81111561024d57600080fd5b82018360208201111561025f57600080fd5b803590602001918460208302840111600160201b8311171561028057600080fd5b919390929091602081019035600160201b81111561029d57600080fd5b8201836020820111156102af57600080fd5b803590602001918460208302840111600160201b831117156102d057600080fd5b509092509050610821565b6040805160208082528351818301528351919283929083019185019080838360005b838110156103155781810151838201526020016102fd565b50505050905090810190601f1680156103425780820380516001836020036101000a031916815260200191505b509250505060405180910390f35b34801561035c57600080fd5b506103836004803603602081101561037357600080fd5b50356001600160a01b0316610951565b6040805160ff9092168252519081900360200190f35b3480156103a557600080fd5b506103ae610966565b6040805161ffff9092168252519081900360200190f35b3480156103d157600080fd5b506103da610970565b60408051918252519081900360200190f35b3480156103f857600080fd5b506102db610975565b34801561040d57600080fd5b506104346004803603602081101561042457600080fd5b50356001600160801b0316610a03565b604080519115158252519081900360200190f35b34801561045457600080fd5b5061010e6004803603606081101561046b57600080fd5b6001600160a01b0382351691602081013591810190606081016040820135600160201b81111561049a57600080fd5b8201836020820111156104ac57600080fd5b803590602001918460018302840111600160201b831117156104cd57600080fd5b509092509050610a44565b3480156104e457600080fd5b5061010e600480360360208110156104fb57600080fd5b50356001600160801b0316610ada565b34801561051757600080fd5b5061010e6004803603602081101561052e57600080fd5b50356001600160a01b0316610b6b565b34801561054a57600080fd5b506103da610b78565b34801561055f57600080fd5b506106e3600480360360e081101561057657600080fd5b6001600160801b03823516916001600160a01b036020820135169160408201359190810190608081016060820135600160201b8111156105b557600080fd5b8201836020820111156105c757600080fd5b803590602001918460018302840111600160201b831117156105e857600080fd5b919390929091602081019035600160201b81111561060557600080fd5b82018360208201111561061757600080fd5b803590602001918460208302840111600160201b8311171561063857600080fd5b919390929091602081019035600160201b81111561065557600080fd5b82018360208201111561066757600080fd5b803590602001918460208302840111600160201b8311171561068857600080fd5b919390929091602081019035600160201b8111156106a557600080fd5b8201836020820111156106b757600080fd5b803590602001918460208302840111600160201b831117156106d857600080fd5b509092509050610b93565b60408051602080825283518183015283519192839290830191858101910280838360005b8381101561071f578181015183820152602001610707565b505050509050019250505060405180910390f35b3033148061075457503360009081526001602081905260409091205460ff16145b610796576040805162461bcd60e51b815260206004820152600e60248201526d1b9bdd08185d5d1a1bdc9a5e995960921b604482015290519081900360640190fd5b6107a08282610c04565b60025461ffff166107b057600080fd5b5050565b303314806107d557503360009081526001602081905260409091205460ff16145b610817576040805162461bcd60e51b815260206004820152600e60248201526d1b9bdd08185d5d1a1bdc9a5e995960921b604482015290519081900360640190fd5b6107b08282610d35565b606060006108348d60038e8e8e8e610d8d565b90506060610847828a8a8a8a8a8a61103f565b9050606061089a8e8d8d8080601f016020809104026020016040519081016040528093929190818152602001838380828437600081840152601f19601f820116905080830192505050505050508f6111eb565b90506108a58f610ada565b8d6001600160a01b03167f64ada3f9bcd41ebd407b399dc401184273a19bc294825172626af05a15c95d256108da8e8e611350565b8460405180836001600160e01b031916815260200180602001828103825283818151815260200191508051906020019060200280838360005b8381101561092b578181015183820152602001610913565b50505050905001935050505060405180910390a29e9d5050505050505050505050505050565b60016020526000908152604090205460ff1681565b60025461ffff1681565b606481565b6003805460408051602060026001851615610100026000190190941693909304601f810184900484028201840190925281815292918301828280156109fb5780601f106109d0576101008083540402835291602001916109fb565b820191906000526020600020905b8154815290600101906020018083116109de57829003601f168201915b505050505081565b600080610a0e6113f4565b9050610a1a81846113fa565b80610a3b5750610a3b81610a2c61142e565b856001600160801b0316611437565b9150505b919050565b610a868483838080601f0160208091040260200160405190810160405280939291908181526020018383808284376000920191909152508892506111eb915050565b506040805162461bcd60e51b815260206004820152601760248201527f54657374207061737365642e20526576657274696e672e000000000000000000604482015290519081900360640190fd5b50505050565b60005480608081901c610aed82856113fa565b15610b2b57610b26846001848703036001600160801b03166001846001600160801b0316901b6001176001600160801b0316901b61147b565b610ad4565b610b3f8282866001600160801b0316611437565b156100cd57610b26826001868503036001600160801b03166001901b836001600160801b03161761147b565b610b753382610d35565b50565b6000610b826113f4565b6001016001600160801b0316905090565b60606000610ba68d60038e8e8e8e610d8d565b9050610bb78189898989898961103f565b9d9c50505050505050505050505050565b6000813f7fc5d2460186f7233c927e7db2dcc703c0e500b653ca82273b7bfad8045d85a470818114801590610bfc57508115155b949350505050565b610c0d82610bc8565b15610c5f576040805162461bcd60e51b815260206004820152601b60248201527f7369676e65722063616e6e6f74206265206120636f6e74726163740000000000604482015290519081900360640190fd5b6001600160a01b0382166000908152600160205260409020805460ff83811660ff19831617909255168015801590610c98575060ff8216155b15610cbc576002805461ffff19811661ffff91821660001901909116179055610cee565b60ff8116158015610cd0575060008260ff16115b15610cee576002805461ffff8082166001011661ffff199091161790555b6040805160ff8416815290516001600160a01b038516917f7f00bf87056fc9622b70d830cce34aa24d6c12881ebbc71d3bf22d0c5ae295b7919081900360200190a2505050565b6001600160a01b03811660009081526001602052604090205460ff1615610d5b57600080fd5b6001600160a01b038216600090815260016020526040902054610d8290829060ff16610c04565b6107b0826000610c04565b604080516009808252610140820190925260009160609190816020015b6060815260200190600190039081610daa579050509050610dd3886001600160801b03166114a5565b81600081518110610de057fe5b602090810291909101810191909152875460408051601f6002600019610100600187161502019094169390930492830184900484028101840190915281815291899190830182828015610e745780601f10610e4957610100808354040283529160200191610e74565b820191906000526020600020905b815481529060010190602001808311610e5757829003601f168201915b505050505081600181518110610e8657fe5b6020026020010181905250610e9c6152086114a5565b81600281518110610ea957fe5b60200260200101819052508560405160200180826001600160a01b031660601b815260140191505060405160208183030381529060405281600381518110610eed57fe5b6020026020010181905250610f01856114a5565b81600481518110610f0e57fe5b602002602001018190525083838080601f016020809104026020016040519081016040528093929190818152602001838380828437600092019190915250508351849250600591508110610f5e57fe5b6020026020010181905250610f7360016114a5565b81600681518110610f8057fe5b6020026020010181905250610f9560006114a5565b81600781518110610fa257fe5b602002602001018190525060005b6008811015610ff457610fd5828281518110610fc857fe5b6020026020010151611555565b828281518110610fe157fe5b6020908102919091010152600101610fb0565b508060078151811061100257fe5b60200260200101518160088151811061101757fe5b602002602001018190525061102b816115a6565b805190602001209150509695505050505050565b6060808467ffffffffffffffff8111801561105957600080fd5b50604051908082528060200260200182016040528015611083578160200160208202803683370190505b50905060005b858110156111d557600060018b8b8b858181106110a257fe5b9050602002013560ff168a8a868181106110b857fe5b905060200201358989878181106110cb57fe5b9050602002013560405160008152602001604052604051808581526020018460ff1681526020018381526020018281526020019450505050506020604051602081039080840390855afa158015611126573d6000803e3d6000fd5b505060408051601f1901516001600160a01b03811660009081526001602052919091205490925060ff1690508015801590611164575060ff81168810155b6111a6576040805162461bcd60e51b815260206004820152600e60248201526d31b7b9b4b3b732b91032b93937b960911b604482015290519081900360640190fd5b818484815181106111b357fe5b6001600160a01b03909216602092830291909101909101525050600101611089565b506111df816115c1565b98975050505050505050565b6060825160001480611201575061120184610bc8565b61120a57600080fd5b60006060856001600160a01b031684866040518082805190602001908083835b602083106112495780518252601f19909201916020918201910161122a565b6001836020036101000a03801982511681845116808217855250505050505090500191505060006040518083038185875af1925050503d80600081146112ab576040519150601f19603f3d011682016040523d82523d6000602084013e6112b0565b606091505b509150915081156112c45791506113499050565b8060405162461bcd60e51b81526004018080602001828103825283818151815260200191508051906020019080838360005b8381101561130e5781810151838201526020016112f6565b50505050905090810190601f16801561133b5780820380516001836020036101000a031916815260200191505b509250505060405180910390fd5b9392505050565b60006004821015611363575060006113ee565b60188383600381811061137257fe5b909101356001600160f81b03191690911c905060108484600281811061139457fe5b909101356001600160f81b03191690911c90506008858560018181106113b657fe5b909101356001600160f81b03191690911c905085856000816113d457fe5b9050013560f81c60f81b6001600160f81b03191617171790505b92915050565b60005490565b6000826001600160801b0316826001600160801b03161180156113495750506001600160801b039182166064019116111590565b60005460801c90565b60006001600160801b0384168290038015801590611456575060808111155b80156114725750600160001982011b84166001600160801b0316155b95945050505050565b6fffffffffffffffffffffffffffffffff1960809190911b166001600160801b0390911617600055565b6060600060015b8084106114c15760019091019060081b6114ac565b508260608267ffffffffffffffff811180156114dc57600080fd5b506040519080825280601f01601f191660200182016040528015611507576020820181803683370190505b509050825b801561154c578260f81b82600183038151811061152557fe5b60200101906001600160f81b031916908160001a90535060089290921c916000190161150c565b50949350505050565b6060815160011480156115865750608060f81b8260008151811061157557fe5b01602001516001600160f81b031916105b15611592575080610a3f565b61159f82608060b761166f565b9050610a3f565b6060806115b28361182e565b9050610a3b8160c060f761166f565b60005b81518110156107b057600181015b8251811015611666578281815181106115e757fe5b60200260200101516001600160a01b031683838151811061160457fe5b60200260200101516001600160a01b0316141561165e576040805162461bcd60e51b81526020600482015260136024820152726475706c6963617465207369676e617475726560681b604482015290519081900360640190fd5b6001016115d2565b506001016115c4565b82516060906020850190603781116117165760608160010167ffffffffffffffff8111801561169d57600080fd5b506040519080825280601f01601f1916602001820160405280156116c8576020820181803683370190505b509050600082905080870160f81b826000815181106116e357fe5b60200101906001600160f81b031916908160001a90535060218201611709818686611938565b8295505050505050611349565b600060015b80838161172457fe5b0415611739576001909101906101000261171b565b6060838360010160ff160167ffffffffffffffff8111801561175a57600080fd5b506040519080825280601f01601f191660200182016040528015611785576020820181803683370190505b50905082870160f81b8160008151811061179b57fe5b60200101906001600160f81b031916908160001a905350600191505b8260ff16821161181057610100828460ff16036101000a85816117d657fe5b04816117de57fe5b0660f81b8183815181106117ee57fe5b60200101906001600160f81b031916908160001a9053506001909101906117b7565b808301602101611821818787611938565b5094506113499350505050565b606081516000141561184f5750604080516000815260208101909152610a3f565b6000805b83518110156118825783818151811061186857fe5b602002602001015151820191508080600101915050611853565b5060608167ffffffffffffffff8111801561189c57600080fd5b506040519080825280601f01601f1916602001820160405280156118c7576020820181803683370190505b5090506020810160005b855181101561192e5760608682815181106118e857fe5b60200260200101519050600060208201905061190684828451611938565b87838151811061191257fe5b60200260200101515184019350505080806001019150506118d1565b5090949350505050565b5b60208110611958578151835260209283019290910190601f1901611939565b905182516020929092036101000a600019018019909116911617905256fea26469706673582212209469361f0335e52310c37059766104d2dc4c55fa72972b7172fcbbcc974cfdc164736f6c63430007040033",
    "sourcePath": "c:/Users/luziu/Documents/aktionariat/contracts/src/MultiSig.sol",
    "compiler": {
        "name": "solc",
        "version": "0.7.4+commit.3f05b770"
    },
    "functionHashes": {
        "MAX_INCREASE()": "7cedbb80",
        "checkExecution(address,uint256,bytes)": "b6e404de",
        "checkSignatures(uint128,address,uint256,bytes,uint8[],bytes32[],bytes32[])": "ecec0dfd",
        "contractId()": "8291286c",
        "execute(uint128,address,uint256,bytes,uint8[],bytes32[],bytes32[])": "48753d00",
        "flagUsed(uint128)": "c1e38e8d",
        "isFree(uint128)": "b5fe5163",
        "migrate(address)": "ce5494bb",
        "migrate(address,address)": "1068361f",
        "nextNonce()": "d69c3d30",
        "setSigner(address,uint8)": "0f43d678",
        "signerCount()": "7ca548c6",
        "signers(address)": "736c0d5b"
    },
    "gasEstimates": {
        "creation": {
            "codeDepositCost": "1314400",
            "executionCost": "infinite",
            "totalCost": "infinite"
        },
        "external": {
            "MAX_INCREASE()": "309",
            "checkExecution(address,uint256,bytes)": "infinite",
            "checkSignatures(uint128,address,uint256,bytes,uint8[],bytes32[],bytes32[])": "infinite",
            "contractId()": "infinite",
            "execute(uint128,address,uint256,bytes,uint8[],bytes32[],bytes32[])": "infinite",
            "flagUsed(uint128)": "21600",
            "isFree(uint128)": "2367",
            "migrate(address)": "infinite",
            "migrate(address,address)": "infinite",
            "nextNonce()": "1123",
            "setSigner(address,uint8)": "46199",
            "signerCount()": "1102",
            "signers(address)": "1206"
        },
        "internal": {
            "_migrate(address,address)": "infinite",
            "_setSigner(address,uint8)": "infinite",
            "calculateTransactionHash(uint128,bytes storage pointer,address,uint256,bytes calldata)": "infinite",
            "extractSelector(bytes calldata)": "379",
            "requireNoDuplicates(address[] memory)": "infinite",
            "toBytes(uint256)": "infinite",
            "verifySignatures(bytes32,uint8[] calldata,bytes32[] calldata,bytes32[] calldata)": "infinite"
        }
    }
}