{
    "contractName": "MultiSig",
    "abi": [
        {
            "inputs": [
                {
                    "internalType": "address",
                    "name": "owner",
                    "type": "address"
                }
            ],
            "stateMutability": "nonpayable",
            "type": "constructor"
        },
        {
            "anonymous": false,
            "inputs": [
                {
                    "indexed": true,
                    "internalType": "address",
                    "name": "signer",
                    "type": "address"
                },
                {
                    "indexed": false,
                    "internalType": "uint8",
                    "name": "cosignaturesNeeded",
                    "type": "uint8"
                }
            ],
            "name": "SignerChange",
            "type": "event"
        },
        {
            "anonymous": false,
            "inputs": [
                {
                    "indexed": true,
                    "internalType": "address",
                    "name": "toAddress",
                    "type": "address"
                },
                {
                    "indexed": false,
                    "internalType": "bytes4",
                    "name": "selector",
                    "type": "bytes4"
                },
                {
                    "indexed": false,
                    "internalType": "address[]",
                    "name": "signers",
                    "type": "address[]"
                }
            ],
            "name": "Transacted",
            "type": "event"
        },
        {
            "inputs": [
                {
                    "internalType": "address",
                    "name": "to",
                    "type": "address"
                },
                {
                    "internalType": "uint256",
                    "name": "value",
                    "type": "uint256"
                },
                {
                    "internalType": "bytes",
                    "name": "data",
                    "type": "bytes"
                }
            ],
            "name": "checkExecution",
            "outputs": [],
            "stateMutability": "nonpayable",
            "type": "function"
        },
        {
            "inputs": [
                {
                    "internalType": "address",
                    "name": "to",
                    "type": "address"
                },
                {
                    "internalType": "uint256",
                    "name": "value",
                    "type": "uint256"
                },
                {
                    "internalType": "bytes",
                    "name": "data",
                    "type": "bytes"
                },
                {
                    "internalType": "uint8[]",
                    "name": "v",
                    "type": "uint8[]"
                },
                {
                    "internalType": "bytes32[]",
                    "name": "r",
                    "type": "bytes32[]"
                },
                {
                    "internalType": "bytes32[]",
                    "name": "s",
                    "type": "bytes32[]"
                }
            ],
            "name": "checkSignatures",
            "outputs": [
                {
                    "internalType": "address[]",
                    "name": "",
                    "type": "address[]"
                }
            ],
            "stateMutability": "view",
            "type": "function"
        },
        {
            "inputs": [],
            "name": "contractId",
            "outputs": [
                {
                    "internalType": "bytes",
                    "name": "",
                    "type": "bytes"
                }
            ],
            "stateMutability": "view",
            "type": "function"
        },
        {
            "inputs": [
                {
                    "internalType": "address",
                    "name": "to",
                    "type": "address"
                },
                {
                    "internalType": "uint256",
                    "name": "value",
                    "type": "uint256"
                },
                {
                    "internalType": "bytes",
                    "name": "data",
                    "type": "bytes"
                },
                {
                    "internalType": "uint8[]",
                    "name": "v",
                    "type": "uint8[]"
                },
                {
                    "internalType": "bytes32[]",
                    "name": "r",
                    "type": "bytes32[]"
                },
                {
                    "internalType": "bytes32[]",
                    "name": "s",
                    "type": "bytes32[]"
                }
            ],
            "name": "execute",
            "outputs": [
                {
                    "internalType": "bytes",
                    "name": "",
                    "type": "bytes"
                }
            ],
            "stateMutability": "nonpayable",
            "type": "function"
        },
        {
            "inputs": [
                {
                    "internalType": "address",
                    "name": "destination",
                    "type": "address"
                }
            ],
            "name": "migrate",
            "outputs": [],
            "stateMutability": "nonpayable",
            "type": "function"
        },
        {
            "inputs": [],
            "name": "nextSequenceNumber",
            "outputs": [
                {
                    "internalType": "uint256",
                    "name": "",
                    "type": "uint256"
                }
            ],
            "stateMutability": "view",
            "type": "function"
        },
        {
            "inputs": [
                {
                    "internalType": "address",
                    "name": "signer",
                    "type": "address"
                },
                {
                    "internalType": "uint8",
                    "name": "cosignaturesNeeded",
                    "type": "uint8"
                }
            ],
            "name": "setSigner",
            "outputs": [],
            "stateMutability": "nonpayable",
            "type": "function"
        },
        {
            "inputs": [],
            "name": "signerCount",
            "outputs": [
                {
                    "internalType": "uint16",
                    "name": "",
                    "type": "uint16"
                }
            ],
            "stateMutability": "view",
            "type": "function"
        },
        {
            "inputs": [
                {
                    "internalType": "address",
                    "name": "",
                    "type": "address"
                }
            ],
            "name": "signers",
            "outputs": [
                {
                    "internalType": "uint8",
                    "name": "",
                    "type": "uint8"
                }
            ],
            "stateMutability": "view",
            "type": "function"
        },
        {
            "stateMutability": "payable",
            "type": "receive"
        }
    ],
    "bytecode": "60806040523480156200001157600080fd5b50604051620019a3380380620019a3833981810160405260208110156200003757600080fd5b50516200004a63ffffffff301662000075565b80516200006091600391602090910190620002ab565b506200006e8160016200012b565b5062000347565b6060600060015b808410620000935760019091019060081b6200007c565b50826060826001600160401b0381118015620000ae57600080fd5b506040519080825280601f01601f191660200182016040528015620000da576020820181803683370190505b509050825b801562000122578260f81b826001830381518110620000fa57fe5b60200101906001600160f81b031916908160001a90535060089290921c9160001901620000df565b50949350505050565b62000141826200026e60201b620009691760201c565b1562000194576040805162461bcd60e51b815260206004820152601b60248201527f7369676e65722063616e6e6f74206265206120636f6e74726163740000000000604482015290519081900360640190fd5b6001600160a01b0382166000908152602081905260409020805460ff83811660ff19831617909255168015801590620001ce575060ff8216155b15620001f4576001805461ffff19811661ffff9182166000190190911617905562000227565b60ff811615801562000209575060008260ff16115b1562000227576001805461ffff80821683011661ffff199091161790555b6040805160ff8416815290516001600160a01b038516917f7f00bf87056fc9622b70d830cce34aa24d6c12881ebbc71d3bf22d0c5ae295b7919081900360200190a2505050565b6000813f7fc5d2460186f7233c927e7db2dcc703c0e500b653ca82273b7bfad8045d85a470818114801590620002a357508115155b949350505050565b828054600181600116156101000203166002900490600052602060002090601f016020900481019282601f10620002ee57805160ff19168380011785556200031e565b828001600101855582156200031e579182015b828111156200031e57825182559160200191906001019062000301565b506200032c92915062000330565b5090565b5b808211156200032c576000815560010162000331565b61164c80620003576000396000f3fe60806040526004361061008a5760003560e01c80637ca548c6116100595780637ca548c6146103395780638291286c14610365578063b6e404de1461037a578063ce5494bb1461040a578063f7494b011461043d57610091565b80630f43d678146100965780633a49183e146100d4578063664e841d146102c9578063736c0d5b146102f057610091565b3661009157005b600080fd5b3480156100a257600080fd5b506100d2600480360360408110156100b957600080fd5b5080356001600160a01b0316906020013560ff1661060d565b005b3480156100e057600080fd5b50610254600480360360c08110156100f757600080fd5b6001600160a01b0382351691602081013591810190606081016040820135600160201b81111561012657600080fd5b82018360208201111561013857600080fd5b803590602001918460018302840111600160201b8311171561015957600080fd5b919390929091602081019035600160201b81111561017657600080fd5b82018360208201111561018857600080fd5b803590602001918460208302840111600160201b831117156101a957600080fd5b919390929091602081019035600160201b8111156101c657600080fd5b8201836020820111156101d857600080fd5b803590602001918460208302840111600160201b831117156101f957600080fd5b919390929091602081019035600160201b81111561021657600080fd5b82018360208201111561022857600080fd5b803590602001918460208302840111600160201b8311171561024957600080fd5b50909250905061068d565b6040805160208082528351818301528351919283929083019185019080838360005b8381101561028e578181015183820152602001610276565b50505050905090810190601f1680156102bb5780820380516001836020036101000a031916815260200191505b509250505060405180910390f35b3480156102d557600080fd5b506102de6107c1565b60408051918252519081900360200190f35b3480156102fc57600080fd5b506103236004803603602081101561031357600080fd5b50356001600160a01b03166107ca565b6040805160ff9092168252519081900360200190f35b34801561034557600080fd5b5061034e6107df565b6040805161ffff9092168252519081900360200190f35b34801561037157600080fd5b506102546107e9565b34801561038657600080fd5b506100d26004803603606081101561039d57600080fd5b6001600160a01b0382351691602081013591810190606081016040820135600160201b8111156103cc57600080fd5b8201836020820111156103de57600080fd5b803590602001918460018302840111600160201b831117156103ff57600080fd5b509092509050610877565b34801561041657600080fd5b506100d26004803603602081101561042d57600080fd5b50356001600160a01b0316610907565b34801561044957600080fd5b506105bd600480360360c081101561046057600080fd5b6001600160a01b0382351691602081013591810190606081016040820135600160201b81111561048f57600080fd5b8201836020820111156104a157600080fd5b803590602001918460018302840111600160201b831117156104c257600080fd5b919390929091602081019035600160201b8111156104df57600080fd5b8201836020820111156104f157600080fd5b803590602001918460208302840111600160201b8311171561051257600080fd5b919390929091602081019035600160201b81111561052f57600080fd5b82018360208201111561054157600080fd5b803590602001918460208302840111600160201b8311171561056257600080fd5b919390929091602081019035600160201b81111561057f57600080fd5b82018360208201111561059157600080fd5b803590602001918460208302840111600160201b831117156105b257600080fd5b50909250905061092e565b60408051602080825283518183015283519192839290830191858101910280838360005b838110156105f95781810151838201526020016105e1565b505050509050019250505060405180910390f35b3033148061062d57503360009081526020819052604090205460ff166001145b61066f576040805162461bcd60e51b815260206004820152600e60248201526d1b9bdd08185d5d1a1bdc9a5e995960921b604482015290519081900360640190fd5b61067982826109a7565b60015461ffff1661068957600080fd5b5050565b60606106976107c1565b60028190556000906106ae9060038e8e8e8e610ad7565b905060606106c1828a8a8a8a8a8a610d75565b905060606107148e8d8d8080601f016020809104026020016040519081016040528093929190818152602001838380828437600081840152601f19601f820116905080830192505050505050508f610f21565b90508d6001600160a01b03167f64ada3f9bcd41ebd407b399dc401184273a19bc294825172626af05a15c95d2561074b8e8e611086565b8460405180836001600160e01b031916815260200180602001828103825283818151815260200191508051906020019060200280838360005b8381101561079c578181015183820152602001610784565b50505050905001935050505060405180910390a29d9c50505050505050505050505050565b60025460010190565b60006020819052908152604090205460ff1681565b60015461ffff1681565b6003805460408051602060026001851615610100026000190190941693909304601f8101849004840282018401909252818152929183018282801561086f5780601f106108445761010080835404028352916020019161086f565b820191906000526020600020905b81548152906001019060200180831161085257829003601f168201915b505050505081565b6108b98483838080601f016020809104026020016040519081016040528093929190818152602001838380828437600092019190915250889250610f21915050565b506040805162461bcd60e51b815260206004820152601760248201527f54657374207061737365642e20526576657274696e672e000000000000000000604482015290519081900360640190fd5b3360008181526020819052604081205460ff1691610924916109a7565b61068982826109a7565b6060600061094861093d6107c1565b60038e8e8e8e610ad7565b905061095981898989898989610d75565b9c9b505050505050505050505050565b6000813f7fc5d2460186f7233c927e7db2dcc703c0e500b653ca82273b7bfad8045d85a47081811480159061099d57508115155b925050505b919050565b6109b082610969565b15610a02576040805162461bcd60e51b815260206004820152601b60248201527f7369676e65722063616e6e6f74206265206120636f6e74726163740000000000604482015290519081900360640190fd5b6001600160a01b0382166000908152602081905260409020805460ff83811660ff19831617909255168015801590610a3b575060ff8216155b15610a5f576001805461ffff19811661ffff91821660001901909116179055610a90565b60ff8116158015610a73575060008260ff16115b15610a90576001805461ffff80821683011661ffff199091161790555b6040805160ff8416815290516001600160a01b038516917f7f00bf87056fc9622b70d830cce34aa24d6c12881ebbc71d3bf22d0c5ae295b7919081900360200190a2505050565b604080516009808252610140820190925260009160609190816020015b6060815260200190600190039081610af4579050509050610b148861112a565b81600081518110610b2157fe5b602090810291909101810191909152875460408051601f6002600019610100600187161502019094169390930492830184900484028101840190915281815291899190830182828015610bb55780601f10610b8a57610100808354040283529160200191610bb5565b820191906000526020600020905b815481529060010190602001808311610b9857829003601f168201915b505050505081600181518110610bc757fe5b6020026020010181905250610bdd61520861112a565b81600281518110610bea57fe5b60200260200101819052508560405160200180826001600160a01b031660601b815260140191505060405160208183030381529060405281600381518110610c2e57fe5b6020026020010181905250610c428561112a565b81600481518110610c4f57fe5b602002602001018190525083838080601f016020809104026020016040519081016040528093929190818152602001838380828437600092019190915250508351849250600591508110610c9f57fe5b6020026020010181905250610cb4600161112a565b81600681518110610cc157fe5b6020026020010181905250610cd6600061112a565b81600781518110610ce357fe5b6020026020010181905250610cf8600061112a565b81600881518110610d0557fe5b602002602001018190525060005b6009811015610d5757610d38828281518110610d2b57fe5b60200260200101516111da565b828281518110610d4457fe5b6020908102919091010152600101610d13565b50610d6181611244565b805190602001209150509695505050505050565b6060808467ffffffffffffffff81118015610d8f57600080fd5b50604051908082528060200260200182016040528015610db9578160200160208202803683370190505b50905060005b85811015610f0b57600060018b8b8b85818110610dd857fe5b9050602002013560ff168a8a86818110610dee57fe5b90506020020135898987818110610e0157fe5b9050602002013560405160008152602001604052604051808581526020018460ff1681526020018381526020018281526020019450505050506020604051602081039080840390855afa158015610e5c573d6000803e3d6000fd5b505060408051601f1901516001600160a01b03811660009081526020819052919091205490925060ff1690508015801590610e9a575060ff81168810155b610edc576040805162461bcd60e51b815260206004820152600e60248201526d31b7b9b4b3b732b91032b93937b960911b604482015290519081900360640190fd5b81848481518110610ee957fe5b6001600160a01b03909216602092830291909101909101525050600101610dbf565b50610f1581611261565b98975050505050505050565b6060825160001480610f375750610f3784610969565b610f4057600080fd5b60006060856001600160a01b031684866040518082805190602001908083835b60208310610f7f5780518252601f199092019160209182019101610f60565b6001836020036101000a03801982511681845116808217855250505050505090500191505060006040518083038185875af1925050503d8060008114610fe1576040519150601f19603f3d011682016040523d82523d6000602084013e610fe6565b606091505b50915091508115610ffa57915061107f9050565b8060405162461bcd60e51b81526004018080602001828103825283818151815260200191508051906020019080838360005b8381101561104457818101518382015260200161102c565b50505050905090810190601f1680156110715780820380516001836020036101000a031916815260200191505b509250505060405180910390fd5b9392505050565b6000600482101561109957506000611124565b6018838360038181106110a857fe5b909101356001600160f81b03191690911c90506010848460028181106110ca57fe5b909101356001600160f81b03191690911c90506008858560018181106110ec57fe5b909101356001600160f81b03191690911c9050858560008161110a57fe5b9050013560f81c60f81b6001600160f81b03191617171790505b92915050565b6060600060015b8084106111465760019091019060081b611131565b508260608267ffffffffffffffff8111801561116157600080fd5b506040519080825280601f01601f19166020018201604052801561118c576020820181803683370190505b509050825b80156111d1578260f81b8260018303815181106111aa57fe5b60200101906001600160f81b031916908160001a90535060089290921c9160001901611191565b50949350505050565b6060808251600114801561120c5750608060f81b836000815181106111fb57fe5b01602001516001600160f81b031916105b1561123757604080516001808252818301909252906020820181803683375085935061112492505050565b61107f83608060b761130f565b606080611250836114ce565b9050606061099d8260c060f761130f565b60005b815181101561068957600181015b82518110156113065782818151811061128757fe5b60200260200101516001600160a01b03168383815181106112a457fe5b60200260200101516001600160a01b031614156112fe576040805162461bcd60e51b81526020600482015260136024820152726475706c6963617465207369676e617475726560681b604482015290519081900360640190fd5b600101611272565b50600101611264565b82516060906020850190603781116113b65760608160010167ffffffffffffffff8111801561133d57600080fd5b506040519080825280601f01601f191660200182016040528015611368576020820181803683370190505b509050600082905080870160f81b8260008151811061138357fe5b60200101906001600160f81b031916908160001a905350602182016113a98186866115d8565b829550505050505061107f565b600060015b8083816113c457fe5b04156113d957600190910190610100026113bb565b6060838360010160ff160167ffffffffffffffff811180156113fa57600080fd5b506040519080825280601f01601f191660200182016040528015611425576020820181803683370190505b50905082870160f81b8160008151811061143b57fe5b60200101906001600160f81b031916908160001a905350600191505b8260ff1682116114b057610100828460ff16036101000a858161147657fe5b048161147e57fe5b0660f81b81838151811061148e57fe5b60200101906001600160f81b031916908160001a905350600190910190611457565b8083016021016114c18187876115d8565b50945061107f9350505050565b60608151600014156114ef57506040805160008152602081019091526109a2565b6000805b83518110156115225783818151811061150857fe5b6020026020010151518201915080806001019150506114f3565b5060608167ffffffffffffffff8111801561153c57600080fd5b506040519080825280601f01601f191660200182016040528015611567576020820181803683370190505b5090506020810160005b85518110156115ce57606086828151811061158857fe5b6020026020010151905060006020820190506115a6848284516115d8565b8783815181106115b257fe5b6020026020010151518401935050508080600101915050611571565b5090949350505050565b5b602081106115f8578151835260209283019290910190601f19016115d9565b905182516020929092036101000a600019018019909116911617905256fea26469706673582212207c6f930f511ab5d9c34c1042866056b02eefe01ee2877fc985b16f28a196e63d64736f6c63430007000033",
    "sourcePath": "c:/Users/luziu/Documents/aktionariat/contracts/src/MultiSig.sol",
    "compiler": {
        "name": "solc",
        "version": "0.7.0+commit.9e61f92b"
    },
    "functionHashes": {
        "checkExecution(address,uint256,bytes)": "b6e404de",
        "checkSignatures(address,uint256,bytes,uint8[],bytes32[],bytes32[])": "f7494b01",
        "contractId()": "8291286c",
        "execute(address,uint256,bytes,uint8[],bytes32[],bytes32[])": "3a49183e",
        "migrate(address)": "ce5494bb",
        "nextSequenceNumber()": "664e841d",
        "setSigner(address,uint8)": "0f43d678",
        "signerCount()": "7ca548c6",
        "signers(address)": "736c0d5b"
    },
    "gasEstimates": {
        "creation": {
            "codeDepositCost": "1141600",
            "executionCost": "infinite",
            "totalCost": "infinite"
        },
        "external": {
            "checkExecution(address,uint256,bytes)": "infinite",
            "checkSignatures(address,uint256,bytes,uint8[],bytes32[],bytes32[])": "infinite",
            "contractId()": "infinite",
            "execute(address,uint256,bytes,uint8[],bytes32[],bytes32[])": "infinite",
            "migrate(address)": "infinite",
            "nextSequenceNumber()": "1049",
            "setSigner(address,uint8)": "46203",
            "signerCount()": "1013",
            "signers(address)": "1209"
        },
        "internal": {
            "_setSigner(address,uint8)": "infinite",
            "calculateTransactionHash(uint256,bytes storage pointer,address,uint256,bytes calldata)": "infinite",
            "extractSelector(bytes calldata)": "379",
            "requireNoDuplicates(address[] memory)": "infinite",
            "toBytes(uint256)": "infinite",
            "verifySignatures(bytes32,uint8[] calldata,bytes32[] calldata,bytes32[] calldata)": "infinite"
        }
    }
}