{
    "contractName": "MultiSig",
    "abi": [
        {
            "inputs": [
                {
                    "internalType": "address",
                    "name": "owner",
                    "type": "address"
                }
            ],
            "stateMutability": "nonpayable",
            "type": "constructor"
        },
        {
            "anonymous": false,
            "inputs": [
                {
                    "indexed": true,
                    "internalType": "address",
                    "name": "signer",
                    "type": "address"
                },
                {
                    "indexed": false,
                    "internalType": "uint8",
                    "name": "cosignaturesNeeded",
                    "type": "uint8"
                }
            ],
            "name": "SignerChange",
            "type": "event"
        },
        {
            "anonymous": false,
            "inputs": [
                {
                    "indexed": true,
                    "internalType": "address",
                    "name": "toAddress",
                    "type": "address"
                },
                {
                    "indexed": false,
                    "internalType": "bytes4",
                    "name": "selector",
                    "type": "bytes4"
                },
                {
                    "indexed": false,
                    "internalType": "address[]",
                    "name": "signers",
                    "type": "address[]"
                }
            ],
            "name": "Transacted",
            "type": "event"
        },
        {
            "inputs": [],
            "name": "MAX_INCREASE",
            "outputs": [
                {
                    "internalType": "uint256",
                    "name": "",
                    "type": "uint256"
                }
            ],
            "stateMutability": "view",
            "type": "function"
        },
        {
            "inputs": [
                {
                    "internalType": "address",
                    "name": "to",
                    "type": "address"
                },
                {
                    "internalType": "uint256",
                    "name": "value",
                    "type": "uint256"
                },
                {
                    "internalType": "bytes",
                    "name": "data",
                    "type": "bytes"
                }
            ],
            "name": "checkExecution",
            "outputs": [],
            "stateMutability": "nonpayable",
            "type": "function"
        },
        {
            "inputs": [
                {
                    "internalType": "uint128",
                    "name": "nonce",
                    "type": "uint128"
                },
                {
                    "internalType": "address",
                    "name": "to",
                    "type": "address"
                },
                {
                    "internalType": "uint256",
                    "name": "value",
                    "type": "uint256"
                },
                {
                    "internalType": "bytes",
                    "name": "data",
                    "type": "bytes"
                },
                {
                    "internalType": "uint8[]",
                    "name": "v",
                    "type": "uint8[]"
                },
                {
                    "internalType": "bytes32[]",
                    "name": "r",
                    "type": "bytes32[]"
                },
                {
                    "internalType": "bytes32[]",
                    "name": "s",
                    "type": "bytes32[]"
                }
            ],
            "name": "checkSignatures",
            "outputs": [
                {
                    "internalType": "address[]",
                    "name": "",
                    "type": "address[]"
                }
            ],
            "stateMutability": "view",
            "type": "function"
        },
        {
            "inputs": [],
            "name": "contractId",
            "outputs": [
                {
                    "internalType": "bytes",
                    "name": "",
                    "type": "bytes"
                }
            ],
            "stateMutability": "view",
            "type": "function"
        },
        {
            "inputs": [
                {
                    "internalType": "uint128",
                    "name": "nonce",
                    "type": "uint128"
                },
                {
                    "internalType": "address",
                    "name": "to",
                    "type": "address"
                },
                {
                    "internalType": "uint256",
                    "name": "value",
                    "type": "uint256"
                },
                {
                    "internalType": "bytes",
                    "name": "data",
                    "type": "bytes"
                },
                {
                    "internalType": "uint8[]",
                    "name": "v",
                    "type": "uint8[]"
                },
                {
                    "internalType": "bytes32[]",
                    "name": "r",
                    "type": "bytes32[]"
                },
                {
                    "internalType": "bytes32[]",
                    "name": "s",
                    "type": "bytes32[]"
                }
            ],
            "name": "execute",
            "outputs": [
                {
                    "internalType": "bytes",
                    "name": "",
                    "type": "bytes"
                }
            ],
            "stateMutability": "nonpayable",
            "type": "function"
        },
        {
            "inputs": [
                {
                    "internalType": "uint128",
                    "name": "nonce",
                    "type": "uint128"
                }
            ],
            "name": "isFree",
            "outputs": [
                {
                    "internalType": "bool",
                    "name": "",
                    "type": "bool"
                }
            ],
            "stateMutability": "view",
            "type": "function"
        },
        {
            "inputs": [
                {
                    "internalType": "address",
                    "name": "source",
                    "type": "address"
                },
                {
                    "internalType": "address",
                    "name": "destination",
                    "type": "address"
                }
            ],
            "name": "migrate",
            "outputs": [],
            "stateMutability": "nonpayable",
            "type": "function"
        },
        {
            "inputs": [
                {
                    "internalType": "address",
                    "name": "destination",
                    "type": "address"
                }
            ],
            "name": "migrate",
            "outputs": [],
            "stateMutability": "nonpayable",
            "type": "function"
        },
        {
            "inputs": [],
            "name": "nextNonce",
            "outputs": [
                {
                    "internalType": "uint256",
                    "name": "",
                    "type": "uint256"
                }
            ],
            "stateMutability": "view",
            "type": "function"
        },
        {
            "inputs": [
                {
                    "internalType": "address",
                    "name": "signer",
                    "type": "address"
                },
                {
                    "internalType": "uint8",
                    "name": "cosignaturesNeeded",
                    "type": "uint8"
                }
            ],
            "name": "setSigner",
            "outputs": [],
            "stateMutability": "nonpayable",
            "type": "function"
        },
        {
            "inputs": [],
            "name": "signerCount",
            "outputs": [
                {
                    "internalType": "uint16",
                    "name": "",
                    "type": "uint16"
                }
            ],
            "stateMutability": "view",
            "type": "function"
        },
        {
            "inputs": [
                {
                    "internalType": "address",
                    "name": "",
                    "type": "address"
                }
            ],
            "name": "signers",
            "outputs": [
                {
                    "internalType": "uint8",
                    "name": "",
                    "type": "uint8"
                }
            ],
            "stateMutability": "view",
            "type": "function"
        },
        {
            "inputs": [
                {
                    "internalType": "bytes32",
                    "name": "transactionHash",
                    "type": "bytes32"
                },
                {
                    "internalType": "uint8[]",
                    "name": "v",
                    "type": "uint8[]"
                },
                {
                    "internalType": "bytes32[]",
                    "name": "r",
                    "type": "bytes32[]"
                },
                {
                    "internalType": "bytes32[]",
                    "name": "s",
                    "type": "bytes32[]"
                }
            ],
            "name": "verifySignatures",
            "outputs": [
                {
                    "internalType": "address[]",
                    "name": "",
                    "type": "address[]"
                }
            ],
            "stateMutability": "view",
            "type": "function"
        },
        {
            "stateMutability": "payable",
            "type": "receive"
        }
    ],
    "bytecode": "60806040523480156200001157600080fd5b50604051620023e6380380620023e68339810160408190526200003491620003c1565b60806000556200004a63ffffffff301662000075565b805162000060916003916020909101906200031b565b506200006e8160016200016c565b50620004dc565b6060600060015b8084106200009c5760081b816200009381620004a8565b9250506200007c565b50826000826001600160401b03811115620000c757634e487b7160e01b600052604160045260246000fd5b6040519080825280601f01601f191660200182016040528015620000f2576020820181803683370190505b509050825b8015620001635760f883901b8262000111600184620003f1565b815181106200013057634e487b7160e01b600052603260045260246000fd5b60200101906001600160f81b031916908160001a90535060089290921c91806200015a816200042c565b915050620000f7565b50949350505050565b6200018282620002de60201b620009051760201c565b15620001d45760405162461bcd60e51b815260206004820152601b60248201527f7369676e65722063616e6e6f74206265206120636f6e74726163740000000000604482015260640160405180910390fd5b6001600160a01b0382166000908152600160205260409020805460ff83811660ff198316179092551680158015906200020e575060ff8216155b156200024b576002805461ffff169060006200022a836200040b565b91906101000a81548161ffff021916908361ffff1602179055505062000298565b60ff811615801562000260575060008260ff16115b1562000298576002805461ffff169060006200027c8362000483565b91906101000a81548161ffff021916908361ffff160217905550505b60405160ff831681526001600160a01b038416907f7f00bf87056fc9622b70d830cce34aa24d6c12881ebbc71d3bf22d0c5ae295b79060200160405180910390a2505050565b6000813f7fc5d2460186f7233c927e7db2dcc703c0e500b653ca82273b7bfad8045d85a4708181148015906200031357508115155b949350505050565b828054620003299062000446565b90600052602060002090601f0160209004810192826200034d576000855562000398565b82601f106200036857805160ff191683800117855562000398565b8280016001018555821562000398579182015b82811115620003985782518255916020019190600101906200037b565b50620003a6929150620003aa565b5090565b5b80821115620003a65760008155600101620003ab565b600060208284031215620003d3578081fd5b81516001600160a01b0381168114620003ea578182fd5b9392505050565b600082821015620004065762000406620004c6565b500390565b600061ffff821680620004225762000422620004c6565b6000190192915050565b6000816200043e576200043e620004c6565b506000190190565b600181811c908216806200045b57607f821691505b602082108114156200047d57634e487b7160e01b600052602260045260246000fd5b50919050565b600061ffff808316818114156200049e576200049e620004c6565b6001019392505050565b6000600019821415620004bf57620004bf620004c6565b5060010190565b634e487b7160e01b600052601160045260246000fd5b611efa80620004ec6000396000f3fe6080604052600436106100c65760003560e01c80638291286c1161007f578063cb6367d111610059578063cb6367d114610242578063ce5494bb1461026f578063d69c3d301461028f578063ecec0dfd146102a457600080fd5b80638291286c146101dd578063b5fe5163146101f2578063b6e404de1461022257600080fd5b80630f43d678146100d25780631068361f146100f457806348753d0014610114578063736c0d5b1461014a5780637ca548c61461018c5780637cedbb80146101ba57600080fd5b366100cd57005b600080fd5b3480156100de57600080fd5b506100f26100ed36600461194a565b6102c4565b005b34801561010057600080fd5b506100f261010f3660046118c0565b610345565b34801561012057600080fd5b5061013461012f366004611a2d565b6103ad565b6040516101419190611bf8565b60405180910390f35b34801561015657600080fd5b5061017a6101653660046118a6565b60016020526000908152604090205460ff1681565b60405160ff9091168152602001610141565b34801561019857600080fd5b506002546101a79061ffff1681565b60405161ffff9091168152602001610141565b3480156101c657600080fd5b506101cf606481565b604051908152602001610141565b3480156101e957600080fd5b50610134610518565b3480156101fe57600080fd5b5061021261020d366004611a13565b6105a6565b6040519015158152602001610141565b34801561022e57600080fd5b506100f261023d3660046118f2565b6105ea565b34801561024e57600080fd5b5061026261025d366004611973565b61067b565b6040516101419190611bc3565b34801561027b57600080fd5b506100f261028a3660046118a6565b6108a4565b34801561029b57600080fd5b506101cf6108b1565b3480156102b057600080fd5b506102626102bf366004611a2d565b6108ce565b303314806102e557503360009081526001602081905260409091205460ff16145b6103275760405162461bcd60e51b815260206004820152600e60248201526d1b9bdd08185d5d1a1bdc9a5e995960921b60448201526064015b60405180910390fd5b6103318282610941565b60025461ffff1661034157600080fd5b5050565b3033148061036657503360009081526001602081905260409091205460ff16145b6103a35760405162461bcd60e51b815260206004820152600e60248201526d1b9bdd08185d5d1a1bdc9a5e995960921b604482015260640161031e565b6103418282610a98565b606060006104498d600380546103c290611e0c565b80601f01602080910402602001604051908101604052809291908181526020018280546103ee90611e0c565b801561043b5780601f106104105761010080835404028352916020019161043b565b820191906000526020600020905b81548152906001019060200180831161041e57829003601f168201915b50505050508e8e8e8e610af0565b9050600061045c828a8a8a8a8a8a61067b565b905060006104af8e8d8d8080601f016020809104026020016040519081016040528093929190818152602001838380828437600081840152601f19601f820116905080830192505050505050508f610e1a565b90506104ba8f610ec5565b8d6001600160a01b03167f64ada3f9bcd41ebd407b399dc401184273a19bc294825172626af05a15c95d256104ef8e8e610fa1565b846040516104fe929190611bd6565b60405180910390a29e9d5050505050505050505050505050565b6003805461052590611e0c565b80601f016020809104026020016040519081016040528092919081815260200182805461055190611e0c565b801561059e5780601f106105735761010080835404028352916020019161059e565b820191906000526020600020905b81548152906001019060200180831161058157829003601f168201915b505050505081565b6000806105b260005490565b90506105be8184611095565b806105e357506105e3816105d460005460801c90565b856001600160801b03166110da565b9392505050565b61062c8483838080601f016020809104026020016040519081016040528093929190818152602001838380828437600092019190915250889250610e1a915050565b5060405162461bcd60e51b815260206004820152601760248201527f54657374207061737365642e20526576657274696e672e000000000000000000604482015260640161031e565b50505050565b606060008467ffffffffffffffff8111156106a657634e487b7160e01b600052604160045260246000fd5b6040519080825280602002602001820160405280156106cf578160200160208202803683370190505b50905060005b8581101561088e57600060018b8b8b8581811061070257634e487b7160e01b600052603260045260246000fd5b90506020020160208101906107179190611b1e565b8a8a8681811061073757634e487b7160e01b600052603260045260246000fd5b9050602002013589898781811061075e57634e487b7160e01b600052603260045260246000fd5b905060200201356040516000815260200160405260405161079b949392919093845260ff9290921660208401526040830152606082015260800190565b6020604051602081039080840390855afa1580156107bd573d6000803e3d6000fd5b505060408051601f1901516001600160a01b03811660009081526001602052919091205490925060ff16905080158015906107fb575060ff81168810155b6108385760405162461bcd60e51b815260206004820152600e60248201526d31b7b9b4b3b732b91032b93937b960911b604482015260640161031e565b8184848151811061085957634e487b7160e01b600052603260045260246000fd5b60200260200101906001600160a01b031690816001600160a01b0316815250505050808061088690611e69565b9150506106d5565b506108988161112f565b98975050505050505050565b6108ae3382610a98565b50565b600080546108c0906001611c0b565b6001600160801b0316905090565b606060006108e38d600380546103c290611e0c565b90506108f48189898989898961067b565b9d9c50505050505050505050505050565b6000813f7fc5d2460186f7233c927e7db2dcc703c0e500b653ca82273b7bfad8045d85a47081811480159061093957508115155b949350505050565b61094a82610905565b156109975760405162461bcd60e51b815260206004820152601b60248201527f7369676e65722063616e6e6f74206265206120636f6e74726163740000000000604482015260640161031e565b6001600160a01b0382166000908152600160205260409020805460ff83811660ff198316179092551680158015906109d0575060ff8216155b15610a09576002805461ffff169060006109e983611dd7565b91906101000a81548161ffff021916908361ffff16021790555050610a52565b60ff8116158015610a1d575060008260ff16115b15610a52576002805461ffff16906000610a3683611e47565b91906101000a81548161ffff021916908361ffff160217905550505b60405160ff831681526001600160a01b038416907f7f00bf87056fc9622b70d830cce34aa24d6c12881ebbc71d3bf22d0c5ae295b79060200160405180910390a2505050565b6001600160a01b03811660009081526001602052604090205460ff1615610abe57600080fd5b6001600160a01b038216600090815260016020526040902054610ae590829060ff16610941565b610341826000610941565b6040805160098082526101408201909252600091829190816020015b6060815260200190600190039081610b0c579050509050610b35886001600160801b031661121f565b81600081518110610b5657634e487b7160e01b600052603260045260246000fd5b60200260200101819052508681600181518110610b8357634e487b7160e01b600052603260045260246000fd5b6020026020010181905250610b9961520861121f565b81600281518110610bba57634e487b7160e01b600052603260045260246000fd5b602002602001018190525085604051602001610bee919060609190911b6bffffffffffffffffffffffff1916815260140190565b60405160208183030381529060405281600381518110610c1e57634e487b7160e01b600052603260045260246000fd5b6020026020010181905250610c328561121f565b81600481518110610c5357634e487b7160e01b600052603260045260246000fd5b602002602001018190525083838080601f016020809104026020016040519081016040528093929190818152602001838380828437600092019190915250508351849250600591508110610cb757634e487b7160e01b600052603260045260246000fd5b6020026020010181905250610ccb4661121f565b81600681518110610cec57634e487b7160e01b600052603260045260246000fd5b6020026020010181905250610d01600061121f565b81600781518110610d2257634e487b7160e01b600052603260045260246000fd5b602002602001018190525060005b6008811015610da757610d69828281518110610d5c57634e487b7160e01b600052603260045260246000fd5b602002602001015161130a565b828281518110610d8957634e487b7160e01b600052603260045260246000fd5b60200260200101819052508080610d9f90611e69565b915050610d30565b5080600781518110610dc957634e487b7160e01b600052603260045260246000fd5b602002602001015181600881518110610df257634e487b7160e01b600052603260045260246000fd5b6020026020010181905250610e0681611368565b805190602001209150509695505050505050565b6060825160001480610e305750610e3084610905565b610e3957600080fd5b600080856001600160a01b03168486604051610e559190611ba7565b60006040518083038185875af1925050503d8060008114610e92576040519150601f19603f3d011682016040523d82523d6000602084013e610e97565b606091505b50915091508115610eab5791506105e39050565b8060405162461bcd60e51b815260040161031e9190611bf8565b60005480608081901c610ed88285611095565b15610f3557610f30846001610eed8583611d6c565b610ef79190611d6c565b6001600160801b0319600185811b6ffffffffffffffffffffffffffffffffe16176001600160801b039283161b60801b16911617600055565b610675565b610f498282866001600160801b03166110da565b156100cd57610f30826001610f5e8783611d6c565b610f689190611d6c565b6001600160801b03166001901b836001600160801b0316176001600160801b031960809190911b166001600160801b0390911617600055565b60006004821015610fb45750600061108f565b601883836003818110610fd757634e487b7160e01b600052603260045260246000fd5b909101356001600160f81b03191690911c905060108484600281811061100d57634e487b7160e01b600052603260045260246000fd5b909101356001600160f81b03191690911c905060088585600181811061104357634e487b7160e01b600052603260045260246000fd5b909101356001600160f81b03191690911c9050858560008161107557634e487b7160e01b600052603260045260246000fd5b9050013560f81c60f81b6001600160f81b03191617171790505b92915050565b6000826001600160801b0316826001600160801b03161180156105e357506110c760646001600160801b038516611c36565b826001600160801b031611159392505050565b6000806110f0836001600160801b038716611d94565b9050600081118015611103575060808111155b801561112657506001600160801b03841661111f600183611d94565b6001901b16155b95945050505050565b60005b8151811015610341576000611148826001611c36565b90505b825181101561120c5782818151811061117457634e487b7160e01b600052603260045260246000fd5b60200260200101516001600160a01b03168383815181106111a557634e487b7160e01b600052603260045260246000fd5b60200260200101516001600160a01b031614156111fa5760405162461bcd60e51b81526020600482015260136024820152726475706c6963617465207369676e617475726560681b604482015260640161031e565b8061120481611e69565b91505061114b565b508061121781611e69565b915050611132565b6060600060015b8084106112425760081b8161123a81611e69565b925050611226565b508260008267ffffffffffffffff81111561126d57634e487b7160e01b600052604160045260246000fd5b6040519080825280601f01601f191660200182016040528015611297576020820181803683370190505b509050825b80156113015760f883901b826112b3600184611d94565b815181106112d157634e487b7160e01b600052603260045260246000fd5b60200101906001600160f81b031916908160001a90535060089290921c91806112f981611df5565b91505061129c565b50949350505050565b60608082516001148015611347575060808360008151811061133c57634e487b7160e01b600052603260045260246000fd5b016020015160f81c11155b1561135357508161108f565b6105e36113628451608061138c565b8461157b565b60606000611375836115f8565b90506105e3611386825160c061138c565b8261157b565b606080603884101561140457604080516001808252818301909252906020820181803683370190505090506113c18385611c36565b601f1a60f81b816000815181106113e857634e487b7160e01b600052603260045260246000fd5b60200101906001600160f81b031916908160001a9053506105e3565b600060015b6114138187611c4e565b15611439578161142281611e69565b9250611432905061010082611d4d565b9050611409565b611444826001611c36565b67ffffffffffffffff81111561146a57634e487b7160e01b600052604160045260246000fd5b6040519080825280601f01601f191660200182016040528015611494576020820181803683370190505b5092506114a18583611c36565b6114ac906037611c36565b601f1a60f81b836000815181106114d357634e487b7160e01b600052603260045260246000fd5b60200101906001600160f81b031916908160001a905350600190505b818111611572576101006115038284611d94565b61150f90610100611ca5565b6115199088611c4e565b6115239190611e84565b601f1a60f81b83828151811061154957634e487b7160e01b600052603260045260246000fd5b60200101906001600160f81b031916908160001a9053508061156a81611e69565b9150506114ef565b50509392505050565b6060806040519050835180825260208201818101602087015b818310156115ac578051835260209283019201611594565b50855184518101855292509050808201602086015b818310156115d95780518352602092830192016115c1565b508651929092011591909101601f01601f191660405250905092915050565b606081516000141561161857505060408051600081526020810190915290565b6000805b835181101561166d5783818151811061164557634e487b7160e01b600052603260045260246000fd5b602002602001015151826116599190611c36565b91508061166581611e69565b91505061161c565b60008267ffffffffffffffff81111561169657634e487b7160e01b600052604160045260246000fd5b6040519080825280601f01601f1916602001820160405280156116c0576020820181803683370190505b50600092509050602081015b85518310156113015760008684815181106116f757634e487b7160e01b600052603260045260246000fd5b60200260200101519050600060208201905061171583828451611760565b87858151811061173557634e487b7160e01b600052603260045260246000fd5b602002602001015151836117499190611c36565b92505050828061175890611e69565b9350506116cc565b8282825b6020811061179c578151835261177b602084611c36565b9250611788602083611c36565b9150611795602082611d94565b9050611764565b600060016117ab836020611d94565b6117b790610100611ca5565b6117c19190611d94565b925184518416931916929092179092525050505050565b80356001600160a01b03811681146117ef57600080fd5b919050565b60008083601f840112611805578182fd5b50813567ffffffffffffffff81111561181c578182fd5b6020830191508360208260051b850101111561183757600080fd5b9250929050565b60008083601f84011261184f578182fd5b50813567ffffffffffffffff811115611866578182fd5b60208301915083602082850101111561183757600080fd5b80356001600160801b03811681146117ef57600080fd5b803560ff811681146117ef57600080fd5b6000602082840312156118b7578081fd5b6105e3826117d8565b600080604083850312156118d2578081fd5b6118db836117d8565b91506118e9602084016117d8565b90509250929050565b60008060008060608587031215611907578182fd5b611910856117d8565b935060208501359250604085013567ffffffffffffffff811115611932578283fd5b61193e8782880161183e565b95989497509550505050565b6000806040838503121561195c578182fd5b611965836117d8565b91506118e960208401611895565b60008060008060008060006080888a03121561198d578283fd5b87359650602088013567ffffffffffffffff808211156119ab578485fd5b6119b78b838c016117f4565b909850965060408a01359150808211156119cf578485fd5b6119db8b838c016117f4565b909650945060608a01359150808211156119f3578384fd5b50611a008a828b016117f4565b989b979a50959850939692959293505050565b600060208284031215611a24578081fd5b6105e38261187e565b600080600080600080600080600080600060e08c8e031215611a4d578384fd5b611a568c61187e565b9a50611a6460208d016117d8565b995060408c0135985067ffffffffffffffff8060608e01351115611a86578485fd5b611a968e60608f01358f0161183e565b909950975060808d0135811015611aab578485fd5b611abb8e60808f01358f016117f4565b909750955060a08d0135811015611ad0578485fd5b611ae08e60a08f01358f016117f4565b909550935060c08d0135811015611af5578283fd5b50611b068d60c08e01358e016117f4565b81935080925050509295989b509295989b9093969950565b600060208284031215611b2f578081fd5b6105e382611895565b6000815180845260208085019450808401835b83811015611b705781516001600160a01b031687529582019590820190600101611b4b565b509495945050505050565b60008151808452611b93816020860160208601611dab565b601f01601f19169290920160200192915050565b60008251611bb9818460208701611dab565b9190910192915050565b6020815260006105e36020830184611b38565b63ffffffff60e01b831681526040602082015260006109396040830184611b38565b6020815260006105e36020830184611b7b565b60006001600160801b03808316818516808303821115611c2d57611c2d611e98565b01949350505050565b60008219821115611c4957611c49611e98565b500190565b600082611c5d57611c5d611eae565b500490565b600181815b80851115611c9d578160001904821115611c8357611c83611e98565b80851615611c9057918102915b93841c9390800290611c67565b509250929050565b60006105e38383600082611cbb5750600161108f565b81611cc85750600061108f565b8160018114611cde5760028114611ce857611d04565b600191505061108f565b60ff841115611cf957611cf9611e98565b50506001821b61108f565b5060208310610133831016604e8410600b8410161715611d27575081810a61108f565b611d318383611c62565b8060001904821115611d4557611d45611e98565b029392505050565b6000816000190483118215151615611d6757611d67611e98565b500290565b60006001600160801b0383811690831681811015611d8c57611d8c611e98565b039392505050565b600082821015611da657611da6611e98565b500390565b60005b83811015611dc6578181015183820152602001611dae565b838111156106755750506000910152565b600061ffff821680611deb57611deb611e98565b6000190192915050565b600081611e0457611e04611e98565b506000190190565b600181811c90821680611e2057607f821691505b60208210811415611e4157634e487b7160e01b600052602260045260246000fd5b50919050565b600061ffff80831681811415611e5f57611e5f611e98565b6001019392505050565b6000600019821415611e7d57611e7d611e98565b5060010190565b600082611e9357611e93611eae565b500690565b634e487b7160e01b600052601160045260246000fd5b634e487b7160e01b600052601260045260246000fdfea2646970667358221220ae2fff0dd1660cb34002b6a21ae22cbd2dbf59f68ebd917a3dfb471ed207be4264736f6c63430008040033",
    "sourcePath": "c:/Users/luziu/Documents/aktionariat/contracts/src/MultiSig.sol",
    "compiler": {
        "name": "solc",
        "version": "0.8.4+commit.c7e474f2"
    },
    "functionHashes": {
        "MAX_INCREASE()": "7cedbb80",
        "checkExecution(address,uint256,bytes)": "b6e404de",
        "checkSignatures(uint128,address,uint256,bytes,uint8[],bytes32[],bytes32[])": "ecec0dfd",
        "contractId()": "8291286c",
        "execute(uint128,address,uint256,bytes,uint8[],bytes32[],bytes32[])": "48753d00",
        "isFree(uint128)": "b5fe5163",
        "migrate(address)": "ce5494bb",
        "migrate(address,address)": "1068361f",
        "nextNonce()": "d69c3d30",
        "setSigner(address,uint8)": "0f43d678",
        "signerCount()": "7ca548c6",
        "signers(address)": "736c0d5b",
        "verifySignatures(bytes32,uint8[],bytes32[],bytes32[])": "cb6367d1"
    },
    "gasEstimates": {
        "creation": {
            "codeDepositCost": "1586000",
            "executionCost": "infinite",
            "totalCost": "infinite"
        },
        "external": {
            "MAX_INCREASE()": "306",
            "checkExecution(address,uint256,bytes)": "infinite",
            "checkSignatures(uint128,address,uint256,bytes,uint8[],bytes32[],bytes32[])": "infinite",
            "contractId()": "infinite",
            "execute(uint128,address,uint256,bytes,uint8[],bytes32[],bytes32[])": "infinite",
            "isFree(uint128)": "infinite",
            "migrate(address)": "infinite",
            "migrate(address,address)": "infinite",
            "nextNonce()": "1214",
            "setSigner(address,uint8)": "infinite",
            "signerCount()": "1102",
            "signers(address)": "1301",
            "verifySignatures(bytes32,uint8[],bytes32[],bytes32[])": "infinite"
        },
        "internal": {
            "_migrate(address,address)": "infinite",
            "_setSigner(address,uint8)": "infinite",
            "calculateTransactionHash(uint128,bytes memory,address,uint256,bytes calldata)": "infinite",
            "extractSelector(bytes calldata)": "379",
            "requireNoDuplicates(address[] memory)": "infinite",
            "toBytes(uint256)": "infinite"
        }
    }
}