{
    "contractName": "MultiSig",
    "abi": [
        {
            "inputs": [
                {
                    "internalType": "address",
                    "name": "owner",
                    "type": "address"
                }
            ],
            "stateMutability": "nonpayable",
            "type": "constructor"
        },
        {
            "anonymous": false,
            "inputs": [
                {
                    "indexed": true,
                    "internalType": "address",
                    "name": "signer",
                    "type": "address"
                },
                {
                    "indexed": false,
                    "internalType": "uint8",
                    "name": "cosignaturesNeeded",
                    "type": "uint8"
                }
            ],
            "name": "SignerChange",
            "type": "event"
        },
        {
            "anonymous": false,
            "inputs": [
                {
                    "indexed": true,
                    "internalType": "address",
                    "name": "toAddress",
                    "type": "address"
                },
                {
                    "indexed": false,
                    "internalType": "bytes4",
                    "name": "selector",
                    "type": "bytes4"
                },
                {
                    "indexed": false,
                    "internalType": "address[]",
                    "name": "signers",
                    "type": "address[]"
                }
            ],
            "name": "Transacted",
            "type": "event"
        },
        {
            "inputs": [],
            "name": "MAX_INCREASE",
            "outputs": [
                {
                    "internalType": "uint256",
                    "name": "",
                    "type": "uint256"
                }
            ],
            "stateMutability": "view",
            "type": "function"
        },
        {
            "inputs": [
                {
                    "internalType": "uint128",
                    "name": "sequence",
                    "type": "uint128"
                },
                {
                    "internalType": "bytes",
                    "name": "id",
                    "type": "bytes"
                },
                {
                    "internalType": "address",
                    "name": "to",
                    "type": "address"
                },
                {
                    "internalType": "uint256",
                    "name": "value",
                    "type": "uint256"
                },
                {
                    "internalType": "bytes",
                    "name": "data",
                    "type": "bytes"
                }
            ],
            "name": "calculateTransactionHash",
            "outputs": [
                {
                    "internalType": "bytes32",
                    "name": "",
                    "type": "bytes32"
                }
            ],
            "stateMutability": "pure",
            "type": "function"
        },
        {
            "inputs": [
                {
                    "internalType": "address",
                    "name": "to",
                    "type": "address"
                },
                {
                    "internalType": "uint256",
                    "name": "value",
                    "type": "uint256"
                },
                {
                    "internalType": "bytes",
                    "name": "data",
                    "type": "bytes"
                }
            ],
            "name": "checkExecution",
            "outputs": [],
            "stateMutability": "nonpayable",
            "type": "function"
        },
        {
            "inputs": [
                {
                    "internalType": "uint128",
                    "name": "nonce",
                    "type": "uint128"
                },
                {
                    "internalType": "address",
                    "name": "to",
                    "type": "address"
                },
                {
                    "internalType": "uint256",
                    "name": "value",
                    "type": "uint256"
                },
                {
                    "internalType": "bytes",
                    "name": "data",
                    "type": "bytes"
                },
                {
                    "internalType": "uint8[]",
                    "name": "v",
                    "type": "uint8[]"
                },
                {
                    "internalType": "bytes32[]",
                    "name": "r",
                    "type": "bytes32[]"
                },
                {
                    "internalType": "bytes32[]",
                    "name": "s",
                    "type": "bytes32[]"
                }
            ],
            "name": "checkSignatures",
            "outputs": [
                {
                    "internalType": "address[]",
                    "name": "",
                    "type": "address[]"
                }
            ],
            "stateMutability": "view",
            "type": "function"
        },
        {
            "inputs": [],
            "name": "contractId",
            "outputs": [
                {
                    "internalType": "bytes",
                    "name": "",
                    "type": "bytes"
                }
            ],
            "stateMutability": "view",
            "type": "function"
        },
        {
            "inputs": [
                {
                    "internalType": "uint128",
                    "name": "nonce",
                    "type": "uint128"
                },
                {
                    "internalType": "address",
                    "name": "to",
                    "type": "address"
                },
                {
                    "internalType": "uint256",
                    "name": "value",
                    "type": "uint256"
                },
                {
                    "internalType": "bytes",
                    "name": "data",
                    "type": "bytes"
                },
                {
                    "internalType": "uint8[]",
                    "name": "v",
                    "type": "uint8[]"
                },
                {
                    "internalType": "bytes32[]",
                    "name": "r",
                    "type": "bytes32[]"
                },
                {
                    "internalType": "bytes32[]",
                    "name": "s",
                    "type": "bytes32[]"
                }
            ],
            "name": "execute",
            "outputs": [
                {
                    "internalType": "bytes",
                    "name": "",
                    "type": "bytes"
                }
            ],
            "stateMutability": "nonpayable",
            "type": "function"
        },
        {
            "inputs": [
                {
                    "internalType": "uint128",
                    "name": "nonce",
                    "type": "uint128"
                }
            ],
            "name": "isFree",
            "outputs": [
                {
                    "internalType": "bool",
                    "name": "",
                    "type": "bool"
                }
            ],
            "stateMutability": "view",
            "type": "function"
        },
        {
            "inputs": [
                {
                    "internalType": "address",
                    "name": "source",
                    "type": "address"
                },
                {
                    "internalType": "address",
                    "name": "destination",
                    "type": "address"
                }
            ],
            "name": "migrate",
            "outputs": [],
            "stateMutability": "nonpayable",
            "type": "function"
        },
        {
            "inputs": [
                {
                    "internalType": "address",
                    "name": "destination",
                    "type": "address"
                }
            ],
            "name": "migrate",
            "outputs": [],
            "stateMutability": "nonpayable",
            "type": "function"
        },
        {
            "inputs": [],
            "name": "nextNonce",
            "outputs": [
                {
                    "internalType": "uint256",
                    "name": "",
                    "type": "uint256"
                }
            ],
            "stateMutability": "view",
            "type": "function"
        },
        {
            "inputs": [
                {
                    "internalType": "address",
                    "name": "signer",
                    "type": "address"
                },
                {
                    "internalType": "uint8",
                    "name": "cosignaturesNeeded",
                    "type": "uint8"
                }
            ],
            "name": "setSigner",
            "outputs": [],
            "stateMutability": "nonpayable",
            "type": "function"
        },
        {
            "inputs": [],
            "name": "signerCount",
            "outputs": [
                {
                    "internalType": "uint16",
                    "name": "",
                    "type": "uint16"
                }
            ],
            "stateMutability": "view",
            "type": "function"
        },
        {
            "inputs": [
                {
                    "internalType": "address",
                    "name": "",
                    "type": "address"
                }
            ],
            "name": "signers",
            "outputs": [
                {
                    "internalType": "uint8",
                    "name": "",
                    "type": "uint8"
                }
            ],
            "stateMutability": "view",
            "type": "function"
        },
        {
            "inputs": [],
            "name": "test",
            "outputs": [
                {
                    "internalType": "bytes32",
                    "name": "",
                    "type": "bytes32"
                }
            ],
            "stateMutability": "view",
            "type": "function"
        },
        {
            "inputs": [
                {
                    "internalType": "bytes32",
                    "name": "transactionHash",
                    "type": "bytes32"
                },
                {
                    "internalType": "uint8[]",
                    "name": "v",
                    "type": "uint8[]"
                },
                {
                    "internalType": "bytes32[]",
                    "name": "r",
                    "type": "bytes32[]"
                },
                {
                    "internalType": "bytes32[]",
                    "name": "s",
                    "type": "bytes32[]"
                }
            ],
            "name": "verifySignatures",
            "outputs": [
                {
                    "internalType": "address[]",
                    "name": "",
                    "type": "address[]"
                }
            ],
            "stateMutability": "view",
            "type": "function"
        },
        {
            "stateMutability": "payable",
            "type": "receive"
        }
    ],
    "bytecode": "60806040523480156200001157600080fd5b506040516200266b3803806200266b8339810160408190526200003491620003c4565b62000042608060006200007e565b6200005363ffffffff30166200009f565b805162000069916003916020909101906200031e565b506200007781600162000196565b5062000524565b6001600160801b031960809190911b166001600160801b0390911617600055565b6060600060015b808410620000c65760081b81620000bd81620004f0565b925050620000a6565b50826000826001600160401b03811115620000f157634e487b7160e01b600052604160045260246000fd5b6040519080825280601f01601f1916602001820160405280156200011c576020820181803683370190505b509050825b80156200018d5760f883901b826200013b60018462000439565b815181106200015a57634e487b7160e01b600052603260045260246000fd5b60200101906001600160f81b031916908160001a90535060089290921c9180620001848162000474565b91505062000121565b50949350505050565b620001ac82620002e160201b62000c071760201c565b15620001d55760405162461bcd60e51b8152600401620001cc90620003f4565b60405180910390fd5b6001600160a01b0382166000908152600160205260409020805460ff83811660ff198316179092551680158015906200020f575060ff8216155b156200024c576002805461ffff169060006200022b8362000453565b91906101000a81548161ffff021916908361ffff1602179055505062000299565b60ff811615801562000261575060008260ff16115b1562000299576002805461ffff169060006200027d83620004cb565b91906101000a81548161ffff021916908361ffff160217905550505b826001600160a01b03167f7f00bf87056fc9622b70d830cce34aa24d6c12881ebbc71d3bf22d0c5ae295b783604051620002d491906200042b565b60405180910390a2505050565b6000813f7fc5d2460186f7233c927e7db2dcc703c0e500b653ca82273b7bfad8045d85a4708181148015906200031657508115155b949350505050565b8280546200032c906200048e565b90600052602060002090601f0160209004810192826200035057600085556200039b565b82601f106200036b57805160ff19168380011785556200039b565b828001600101855582156200039b579182015b828111156200039b5782518255916020019190600101906200037e565b50620003a9929150620003ad565b5090565b5b80821115620003a95760008155600101620003ae565b600060208284031215620003d6578081fd5b81516001600160a01b0381168114620003ed578182fd5b9392505050565b6020808252601b908201527f7369676e65722063616e6e6f74206265206120636f6e74726163740000000000604082015260600190565b60ff91909116815260200190565b6000828210156200044e576200044e6200050e565b500390565b600061ffff8216806200046a576200046a6200050e565b6000190192915050565b6000816200048657620004866200050e565b506000190190565b600281046001821680620004a357607f821691505b60208210811415620004c557634e487b7160e01b600052602260045260246000fd5b50919050565b600061ffff80831681811415620004e657620004e66200050e565b6001019392505050565b60006000198214156200050757620005076200050e565b5060010190565b634e487b7160e01b600052601160045260246000fd5b61213780620005346000396000f3fe6080604052600436106100ec5760003560e01c80638291286c1161008a578063ce5494bb11610059578063ce5494bb14610290578063d69c3d30146102b0578063ecec0dfd146102c5578063f8a8fd6d146102e5576100f3565b80638291286c14610201578063b5fe516314610216578063b6e404de14610243578063cb6367d114610263576100f3565b806348753d00116100c657806348753d0014610170578063736c0d5b1461019d5780637ca548c6146101ca5780637cedbb80146101ec576100f3565b80630f43d678146100f85780631068361f1461011a578063442c4d521461013a576100f3565b366100f357005b600080fd5b34801561010457600080fd5b50610118610113366004611965565b6102fa565b005b34801561012657600080fd5b506101186101353660046118db565b61035e565b34801561014657600080fd5b5061015a610155366004611b39565b6103a5565b6040516101679190611ca5565b60405180910390f35b34801561017c57600080fd5b5061019061018b366004611a48565b610680565b6040516101679190611cee565b3480156101a957600080fd5b506101bd6101b83660046118c1565b610820565b6040516101679190611dfb565b3480156101d657600080fd5b506101df610835565b6040516101679190611dec565b3480156101f857600080fd5b5061015a61083f565b34801561020d57600080fd5b50610190610844565b34801561022257600080fd5b50610236610231366004611a2e565b6108d2565b6040516101679190611c9a565b34801561024f57600080fd5b5061011861025e36600461190d565b610913565b34801561026f57600080fd5b5061028361027e36600461198e565b610974565b6040516101679190611c87565b34801561029c57600080fd5b506101186102ab3660046118c1565b610b63565b3480156102bc57600080fd5b5061015a610b70565b3480156102d157600080fd5b506102836102e0366004611a48565b610b93565b3480156102f157600080fd5b5061015a610bca565b3033148061031b57503360009081526001602081905260409091205460ff16145b6103405760405162461bcd60e51b815260040161033790611d97565b60405180910390fd5b61034a8282610c43565b60025461ffff1661035a57600080fd5b5050565b3033148061037f57503360009081526001602081905260409091205460ff16145b61039b5760405162461bcd60e51b815260040161033790611d97565b61035a8282610d6a565b6040805160098082526101408201909252600091829190816020015b60608152602001906001900390816103c15790505090506103ea876001600160801b0316610dc2565b8160008151811061040b57634e487b7160e01b600052603260045260246000fd5b6020026020010181905250858160018151811061043857634e487b7160e01b600052603260045260246000fd5b602002602001018190525061044e615208610dc2565b8160028151811061046f57634e487b7160e01b600052603260045260246000fd5b60200260200101819052508460405160200161048b9190611c4e565b604051602081830303815290604052816003815181106104bb57634e487b7160e01b600052603260045260246000fd5b60200260200101819052506104cf84610dc2565b816004815181106104f057634e487b7160e01b600052603260045260246000fd5b6020026020010181905250828160058151811061051d57634e487b7160e01b600052603260045260246000fd5b60200260200101819052506105326001610dc2565b8160068151811061055357634e487b7160e01b600052603260045260246000fd5b60200260200101819052506105686000610dc2565b8160078151811061058957634e487b7160e01b600052603260045260246000fd5b602002602001018190525060005b600881101561060e576105d08282815181106105c357634e487b7160e01b600052603260045260246000fd5b6020026020010151610ead565b8282815181106105f057634e487b7160e01b600052603260045260246000fd5b6020026020010181905250808061060690612090565b915050610597565b508060078151811061063057634e487b7160e01b600052603260045260246000fd5b60200260200101518160088151811061065957634e487b7160e01b600052603260045260246000fd5b602002602001018190525061066d81610f14565b8051906020012091505095945050505050565b606060006107518d6003805461069590612033565b80601f01602080910402602001604051908101604052809291908181526020018280546106c190612033565b801561070e5780601f106106e35761010080835404028352916020019161070e565b820191906000526020600020905b8154815290600101906020018083116106f157829003601f168201915b50505050508e8e8e8e8080601f0160208091040260200160405190810160405280939291908181526020018383808284376000920191909152506103a592505050565b90506000610764828a8a8a8a8a8a610974565b905060006107b78e8d8d8080601f016020809104026020016040519081016040528093929190818152602001838380828437600081840152601f19601f820116905080830192505050505050508f610f38565b90506107c28f610fea565b8d6001600160a01b03167f64ada3f9bcd41ebd407b399dc401184273a19bc294825172626af05a15c95d256107f78e8e61109b565b84604051610806929190611ccc565b60405180910390a29e9d5050505050505050505050505050565b60016020526000908152604090205460ff1681565b60025461ffff1681565b606481565b6003805461085190612033565b80601f016020809104026020016040519081016040528092919081815260200182805461087d90612033565b80156108ca5780601f1061089f576101008083540402835291602001916108ca565b820191906000526020600020905b8154815290600101906020018083116108ad57829003601f168201915b505050505081565b6000806108dd61118e565b90506108e98184611194565b8061090a575061090a816108fb6111d9565b856001600160801b03166111e2565b9150505b919050565b6109558483838080601f016020809104026020016040519081016040528093929190818152602001838380828437600092019190915250889250610f38915050565b5060405162461bcd60e51b815260040161033790611d60565b50505050565b606060008467ffffffffffffffff81111561099f57634e487b7160e01b600052604160045260246000fd5b6040519080825280602002602001820160405280156109c8578160200160208202803683370190505b50905060005b85811015610b4d57600060018b8b8b858181106109fb57634e487b7160e01b600052603260045260246000fd5b9050602002016020810190610a109190611bc5565b8a8a86818110610a3057634e487b7160e01b600052603260045260246000fd5b90506020020135898987818110610a5757634e487b7160e01b600052603260045260246000fd5b9050602002013560405160008152602001604052604051610a7b9493929190611cae565b6020604051602081039080840390855afa158015610a9d573d6000803e3d6000fd5b505060408051601f1901516001600160a01b03811660009081526001602052919091205490925060ff1690508015801590610adb575060ff81168810155b610af75760405162461bcd60e51b815260040161033790611d01565b81848481518110610b1857634e487b7160e01b600052603260045260246000fd5b60200260200101906001600160a01b031690816001600160a01b03168152505050508080610b4590612090565b9150506109ce565b50610b5781611237565b98975050505050505050565b610b6d3382610d6a565b50565b6000610b7a61118e565b610b85906001611e09565b6001600160801b0316905090565b60606000610ba88d6003805461069590612033565b9050610bb981898989898989610974565b9d9c50505050505050505050505050565b60007329fe8914e76da5ce2d90de98a64d0055f199d06d81610bef63f199d06d610dc2565b9050610c00600d82846000856103a5565b9250505090565b6000813f7fc5d2460186f7233c927e7db2dcc703c0e500b653ca82273b7bfad8045d85a470818114801590610c3b57508115155b949350505050565b610c4c82610c07565b15610c695760405162461bcd60e51b815260040161033790611d29565b6001600160a01b0382166000908152600160205260409020805460ff83811660ff19831617909255168015801590610ca2575060ff8216155b15610cdb576002805461ffff16906000610cbb83611ffe565b91906101000a81548161ffff021916908361ffff16021790555050610d24565b60ff8116158015610cef575060008260ff16115b15610d24576002805461ffff16906000610d088361206e565b91906101000a81548161ffff021916908361ffff160217905550505b826001600160a01b03167f7f00bf87056fc9622b70d830cce34aa24d6c12881ebbc71d3bf22d0c5ae295b783604051610d5d9190611dfb565b60405180910390a2505050565b6001600160a01b03811660009081526001602052604090205460ff1615610d9057600080fd5b6001600160a01b038216600090815260016020526040902054610db790829060ff16610c43565b61035a826000610c43565b6060600060015b808410610de55760081b81610ddd81612090565b925050610dc9565b508260008267ffffffffffffffff811115610e1057634e487b7160e01b600052604160045260246000fd5b6040519080825280601f01601f191660200182016040528015610e3a576020820181803683370190505b509050825b8015610ea45760f883901b82610e56600184611fbb565b81518110610e7457634e487b7160e01b600052603260045260246000fd5b60200101906001600160f81b031916908160001a90535060089290921c9180610e9c8161201c565b915050610e3f565b50949350505050565b60608082516001148015610eea5750608083600081518110610edf57634e487b7160e01b600052603260045260246000fd5b016020015160f81c11155b15610ef6575081610f0e565b610f0b610f0584516080611301565b846114f0565b90505b92915050565b60606000610f218361156d565b905061090a610f32825160c0611301565b826114f0565b6060825160001480610f4e5750610f4e84610c07565b610f5757600080fd5b600080856001600160a01b03168486604051610f739190611c6b565b60006040518083038185875af1925050503d8060008114610fb0576040519150601f19603f3d011682016040523d82523d6000602084013e610fb5565b606091505b50915091508115610fc9579150610fe39050565b8060405162461bcd60e51b81526004016103379190611cee565b9392505050565b60005480608081901c610ffd8285611194565b1561104b576110468460016110128583611f93565b61101c9190611f93565b6001600160801b03166001846001600160801b0316901b6001176001600160801b0316901b6116d6565b61096e565b61105f8282866001600160801b03166111e2565b156100f3576110468260016110748783611f93565b61107e9190611f93565b6001600160801b03166001901b836001600160801b0316176116d6565b600060048210156110ae57506000610f0e565b6018838360038181106110d157634e487b7160e01b600052603260045260246000fd5b909101356001600160f81b03191690911c905060108484600281811061110757634e487b7160e01b600052603260045260246000fd5b909101356001600160f81b03191690911c905060088585600181811061113d57634e487b7160e01b600052603260045260246000fd5b909101356001600160f81b03191690911c9050858560008161116f57634e487b7160e01b600052603260045260246000fd5b9050013560f81c60f81b6001600160f81b031916171717905092915050565b60005490565b6000826001600160801b0316826001600160801b0316118015610fe357506111c660646001600160801b038516611e34565b826001600160801b031611159392505050565b60005460801c90565b6000806111f8836001600160801b038716611fbb565b905060008111801561120b575060808111155b801561122e57506001600160801b038416611227600183611fbb565b6001901b16155b95945050505050565b60005b815181101561035a576000611250826001611e34565b90505b82518110156112ee5782818151811061127c57634e487b7160e01b600052603260045260246000fd5b60200260200101516001600160a01b03168383815181106112ad57634e487b7160e01b600052603260045260246000fd5b60200260200101516001600160a01b031614156112dc5760405162461bcd60e51b815260040161033790611dbf565b806112e681612090565b915050611253565b50806112f981612090565b91505061123a565b606080603884101561137957604080516001808252818301909252906020820181803683370190505090506113368385611e34565b601f1a60f81b8160008151811061135d57634e487b7160e01b600052603260045260246000fd5b60200101906001600160f81b031916908160001a905350610fe3565b600060015b6113888187611e4c565b156113ae578161139781612090565b92506113a7905061010082611f74565b905061137e565b6113b9826001611e34565b67ffffffffffffffff8111156113df57634e487b7160e01b600052604160045260246000fd5b6040519080825280601f01601f191660200182016040528015611409576020820181803683370190505b5092506114168583611e34565b611421906037611e34565b601f1a60f81b8360008151811061144857634e487b7160e01b600052603260045260246000fd5b60200101906001600160f81b031916908160001a905350600190505b8181116114e7576101006114788284611fbb565b61148490610100611ea6565b61148e9088611e4c565b61149891906120ab565b601f1a60f81b8382815181106114be57634e487b7160e01b600052603260045260246000fd5b60200101906001600160f81b031916908160001a905350806114df81612090565b915050611464565b50509392505050565b6060806040519050835180825260208201818101602087015b81831015611521578051835260209283019201611509565b50855184518101855292509050808201602086015b8183101561154e578051835260209283019201611536565b508651929092011591909101601f01601f191660405250905092915050565b606081516000141561158e575060408051600081526020810190915261090e565b6000805b83518110156115e3578381815181106115bb57634e487b7160e01b600052603260045260246000fd5b602002602001015151826115cf9190611e34565b9150806115db81612090565b915050611592565b60008267ffffffffffffffff81111561160c57634e487b7160e01b600052604160045260246000fd5b6040519080825280601f01601f191660200182016040528015611636576020820181803683370190505b50600092509050602081015b8551831015610ea457600086848151811061166d57634e487b7160e01b600052603260045260246000fd5b60200260200101519050600060208201905061168b83828451611700565b8785815181106116ab57634e487b7160e01b600052603260045260246000fd5b602002602001015151836116bf9190611e34565b9250505082806116ce90612090565b935050611642565b6fffffffffffffffffffffffffffffffff1960809190911b166001600160801b0390911617600055565b8282825b6020811061173c578151835261171b602084611e34565b9250611728602083611e34565b9150611735602082611fbb565b9050611704565b6000600161174b836020611fbb565b61175790610100611ea6565b6117619190611fbb565b925184518416931916929092179092525050505050565b80356001600160a01b038116811461090e57600080fd5b60008083601f8401126117a0578081fd5b50813567ffffffffffffffff8111156117b7578182fd5b60208301915083602080830285010111156117d157600080fd5b9250929050565b60008083601f8401126117e9578182fd5b50813567ffffffffffffffff811115611800578182fd5b6020830191508360208285010111156117d157600080fd5b600082601f830112611828578081fd5b813567ffffffffffffffff80821115611843576118436120eb565b604051601f8301601f191681016020018281118282101715611867576118676120eb565b60405282815284830160200186101561187e578384fd5b82602086016020830137918201602001929092529392505050565b80356001600160801b038116811461090e57600080fd5b803560ff8116811461090e57600080fd5b6000602082840312156118d2578081fd5b610fe382611778565b600080604083850312156118ed578081fd5b6118f683611778565b915061190460208401611778565b90509250929050565b60008060008060608587031215611922578182fd5b61192b85611778565b935060208501359250604085013567ffffffffffffffff81111561194d578283fd5b611959878288016117d8565b95989497509550505050565b60008060408385031215611977578182fd5b61198083611778565b9150611904602084016118b0565b60008060008060008060006080888a0312156119a8578283fd5b87359650602088013567ffffffffffffffff808211156119c6578485fd5b6119d28b838c0161178f565b909850965060408a01359150808211156119ea578485fd5b6119f68b838c0161178f565b909650945060608a0135915080821115611a0e578384fd5b50611a1b8a828b0161178f565b989b979a50959850939692959293505050565b600060208284031215611a3f578081fd5b610fe382611899565b600080600080600080600080600080600060e08c8e031215611a68578384fd5b611a718c611899565b9a50611a7f60208d01611778565b995060408c0135985067ffffffffffffffff8060608e01351115611aa1578485fd5b611ab18e60608f01358f016117d8565b909950975060808d0135811015611ac6578485fd5b611ad68e60808f01358f0161178f565b909750955060a08d0135811015611aeb578485fd5b611afb8e60a08f01358f0161178f565b909550935060c08d0135811015611b10578283fd5b50611b218d60c08e01358e0161178f565b81935080925050509295989b509295989b9093969950565b600080600080600060a08688031215611b50578081fd5b611b5986611899565b9450602086013567ffffffffffffffff80821115611b75578283fd5b611b8189838a01611818565b9550611b8f60408901611778565b9450606088013593506080880135915080821115611bab578283fd5b50611bb888828901611818565b9150509295509295909350565b600060208284031215611bd6578081fd5b610fe3826118b0565b6000815180845260208085019450808401835b83811015611c175781516001600160a01b031687529582019590820190600101611bf2565b509495945050505050565b60008151808452611c3a816020860160208601611fd2565b601f01601f19169290920160200192915050565b60609190911b6bffffffffffffffffffffffff1916815260140190565b60008251611c7d818460208701611fd2565b9190910192915050565b600060208252610fe36020830184611bdf565b901515815260200190565b90815260200190565b93845260ff9290921660208401526040830152606082015260800190565b600063ffffffff60e01b8416825260406020830152610c3b6040830184611bdf565b600060208252610fe36020830184611c22565b6020808252600e908201526d31b7b9b4b3b732b91032b93937b960911b604082015260600190565b6020808252601b908201527f7369676e65722063616e6e6f74206265206120636f6e74726163740000000000604082015260600190565b60208082526017908201527f54657374207061737365642e20526576657274696e672e000000000000000000604082015260600190565b6020808252600e908201526d1b9bdd08185d5d1a1bdc9a5e995960921b604082015260600190565b6020808252601390820152726475706c6963617465207369676e617475726560681b604082015260600190565b61ffff91909116815260200190565b60ff91909116815260200190565b60006001600160801b03808316818516808303821115611e2b57611e2b6120bf565b01949350505050565b60008219821115611e4757611e476120bf565b500190565b600082611e5b57611e5b6120d5565b500490565b80825b6001808611611e725750611e9d565b818704821115611e8457611e846120bf565b80861615611e9157918102915b9490941c938002611e63565b94509492505050565b6000610fe36000198484600082611ebf57506001610fe3565b81611ecc57506000610fe3565b8160018114611ee25760028114611eec57611f19565b6001915050610fe3565b60ff841115611efd57611efd6120bf565b6001841b915084821115611f1357611f136120bf565b50610fe3565b5060208310610133831016604e8410600b8410161715611f4c575081810a83811115611f4757611f476120bf565b610fe3565b611f598484846001611e60565b808604821115611f6b57611f6b6120bf565b02949350505050565b6000816000190483118215151615611f8e57611f8e6120bf565b500290565b60006001600160801b0383811690831681811015611fb357611fb36120bf565b039392505050565b600082821015611fcd57611fcd6120bf565b500390565b60005b83811015611fed578181015183820152602001611fd5565b8381111561096e5750506000910152565b600061ffff821680612012576120126120bf565b6000190192915050565b60008161202b5761202b6120bf565b506000190190565b60028104600182168061204757607f821691505b6020821081141561206857634e487b7160e01b600052602260045260246000fd5b50919050565b600061ffff80831681811415612086576120866120bf565b6001019392505050565b60006000198214156120a4576120a46120bf565b5060010190565b6000826120ba576120ba6120d5565b500690565b634e487b7160e01b600052601160045260246000fd5b634e487b7160e01b600052601260045260246000fd5b634e487b7160e01b600052604160045260246000fdfea2646970667358221220fc31d03bf39aec2b6001814b7d47445261f3fb311d594403b6352b87f6eeaa9c64736f6c63430008000033",
    "sourcePath": "c:/Users/luziu/Documents/aktionariat/contracts/src/MultiSig.sol",
    "compiler": {
        "name": "solc",
        "version": "0.8.0+commit.c7dfd78e"
    },
    "functionHashes": {
        "MAX_INCREASE()": "7cedbb80",
        "calculateTransactionHash(uint128,bytes,address,uint256,bytes)": "442c4d52",
        "checkExecution(address,uint256,bytes)": "b6e404de",
        "checkSignatures(uint128,address,uint256,bytes,uint8[],bytes32[],bytes32[])": "ecec0dfd",
        "contractId()": "8291286c",
        "execute(uint128,address,uint256,bytes,uint8[],bytes32[],bytes32[])": "48753d00",
        "isFree(uint128)": "b5fe5163",
        "migrate(address)": "ce5494bb",
        "migrate(address,address)": "1068361f",
        "nextNonce()": "d69c3d30",
        "setSigner(address,uint8)": "0f43d678",
        "signerCount()": "7ca548c6",
        "signers(address)": "736c0d5b",
        "test()": "f8a8fd6d",
        "verifySignatures(bytes32,uint8[],bytes32[],bytes32[])": "cb6367d1"
    },
    "gasEstimates": {
        "creation": {
            "codeDepositCost": "1700600",
            "executionCost": "infinite",
            "totalCost": "infinite"
        },
        "external": {
            "MAX_INCREASE()": "317",
            "calculateTransactionHash(uint128,bytes,address,uint256,bytes)": "infinite",
            "checkExecution(address,uint256,bytes)": "infinite",
            "checkSignatures(uint128,address,uint256,bytes,uint8[],bytes32[],bytes32[])": "infinite",
            "contractId()": "infinite",
            "execute(uint128,address,uint256,bytes,uint8[],bytes32[],bytes32[])": "infinite",
            "isFree(uint128)": "infinite",
            "migrate(address)": "infinite",
            "migrate(address,address)": "infinite",
            "nextNonce()": "1240",
            "setSigner(address,uint8)": "infinite",
            "signerCount()": "1113",
            "signers(address)": "1315",
            "test()": "infinite",
            "verifySignatures(bytes32,uint8[],bytes32[],bytes32[])": "infinite"
        },
        "internal": {
            "_migrate(address,address)": "infinite",
            "_setSigner(address,uint8)": "infinite",
            "extractSelector(bytes calldata)": "378",
            "requireNoDuplicates(address[] memory)": "infinite",
            "toBytes(uint256)": "infinite"
        }
    }
}