{
    "contractName": "MultiSig",
    "abi": [
        {
            "inputs": [
                {
                    "internalType": "address",
                    "name": "owner",
                    "type": "address"
                }
            ],
            "stateMutability": "nonpayable",
            "type": "constructor"
        },
        {
            "anonymous": false,
            "inputs": [
                {
                    "indexed": true,
                    "internalType": "address",
                    "name": "signer",
                    "type": "address"
                },
                {
                    "indexed": false,
                    "internalType": "uint8",
                    "name": "cosignaturesNeeded",
                    "type": "uint8"
                }
            ],
            "name": "SignerChange",
            "type": "event"
        },
        {
            "anonymous": false,
            "inputs": [
                {
                    "indexed": true,
                    "internalType": "address",
                    "name": "toAddress",
                    "type": "address"
                },
                {
                    "indexed": false,
                    "internalType": "bytes4",
                    "name": "selector",
                    "type": "bytes4"
                },
                {
                    "indexed": false,
                    "internalType": "address[]",
                    "name": "signers",
                    "type": "address[]"
                }
            ],
            "name": "Transacted",
            "type": "event"
        },
        {
            "inputs": [],
            "name": "MAX_INCREASE",
            "outputs": [
                {
                    "internalType": "uint256",
                    "name": "",
                    "type": "uint256"
                }
            ],
            "stateMutability": "view",
            "type": "function"
        },
        {
            "inputs": [
                {
                    "internalType": "address",
                    "name": "to",
                    "type": "address"
                },
                {
                    "internalType": "uint256",
                    "name": "value",
                    "type": "uint256"
                },
                {
                    "internalType": "bytes",
                    "name": "data",
                    "type": "bytes"
                }
            ],
            "name": "checkExecution",
            "outputs": [],
            "stateMutability": "nonpayable",
            "type": "function"
        },
        {
            "inputs": [
                {
                    "internalType": "uint128",
                    "name": "nonce",
                    "type": "uint128"
                },
                {
                    "internalType": "address",
                    "name": "to",
                    "type": "address"
                },
                {
                    "internalType": "uint256",
                    "name": "value",
                    "type": "uint256"
                },
                {
                    "internalType": "bytes",
                    "name": "data",
                    "type": "bytes"
                },
                {
                    "internalType": "uint8[]",
                    "name": "v",
                    "type": "uint8[]"
                },
                {
                    "internalType": "bytes32[]",
                    "name": "r",
                    "type": "bytes32[]"
                },
                {
                    "internalType": "bytes32[]",
                    "name": "s",
                    "type": "bytes32[]"
                }
            ],
            "name": "checkSignatures",
            "outputs": [
                {
                    "internalType": "address[]",
                    "name": "",
                    "type": "address[]"
                }
            ],
            "stateMutability": "view",
            "type": "function"
        },
        {
            "inputs": [],
            "name": "contractId",
            "outputs": [
                {
                    "internalType": "bytes",
                    "name": "",
                    "type": "bytes"
                }
            ],
            "stateMutability": "view",
            "type": "function"
        },
        {
            "inputs": [
                {
                    "internalType": "uint128",
                    "name": "nonce",
                    "type": "uint128"
                },
                {
                    "internalType": "address",
                    "name": "to",
                    "type": "address"
                },
                {
                    "internalType": "uint256",
                    "name": "value",
                    "type": "uint256"
                },
                {
                    "internalType": "bytes",
                    "name": "data",
                    "type": "bytes"
                },
                {
                    "internalType": "uint8[]",
                    "name": "v",
                    "type": "uint8[]"
                },
                {
                    "internalType": "bytes32[]",
                    "name": "r",
                    "type": "bytes32[]"
                },
                {
                    "internalType": "bytes32[]",
                    "name": "s",
                    "type": "bytes32[]"
                }
            ],
            "name": "execute",
            "outputs": [
                {
                    "internalType": "bytes",
                    "name": "",
                    "type": "bytes"
                }
            ],
            "stateMutability": "nonpayable",
            "type": "function"
        },
        {
            "inputs": [
                {
                    "internalType": "uint128",
                    "name": "nonce",
                    "type": "uint128"
                }
            ],
            "name": "flagUsed",
            "outputs": [],
            "stateMutability": "nonpayable",
            "type": "function"
        },
        {
            "inputs": [
                {
                    "internalType": "uint128",
                    "name": "nonce",
                    "type": "uint128"
                }
            ],
            "name": "isFree",
            "outputs": [
                {
                    "internalType": "bool",
                    "name": "",
                    "type": "bool"
                }
            ],
            "stateMutability": "view",
            "type": "function"
        },
        {
            "inputs": [
                {
                    "internalType": "address",
                    "name": "source",
                    "type": "address"
                },
                {
                    "internalType": "address",
                    "name": "destination",
                    "type": "address"
                }
            ],
            "name": "migrate",
            "outputs": [],
            "stateMutability": "nonpayable",
            "type": "function"
        },
        {
            "inputs": [
                {
                    "internalType": "address",
                    "name": "destination",
                    "type": "address"
                }
            ],
            "name": "migrate",
            "outputs": [],
            "stateMutability": "nonpayable",
            "type": "function"
        },
        {
            "inputs": [],
            "name": "nextNonce",
            "outputs": [
                {
                    "internalType": "uint256",
                    "name": "",
                    "type": "uint256"
                }
            ],
            "stateMutability": "view",
            "type": "function"
        },
        {
            "inputs": [
                {
                    "internalType": "address",
                    "name": "signer",
                    "type": "address"
                },
                {
                    "internalType": "uint8",
                    "name": "cosignaturesNeeded",
                    "type": "uint8"
                }
            ],
            "name": "setSigner",
            "outputs": [],
            "stateMutability": "nonpayable",
            "type": "function"
        },
        {
            "inputs": [],
            "name": "signerCount",
            "outputs": [
                {
                    "internalType": "uint16",
                    "name": "",
                    "type": "uint16"
                }
            ],
            "stateMutability": "view",
            "type": "function"
        },
        {
            "inputs": [
                {
                    "internalType": "address",
                    "name": "",
                    "type": "address"
                }
            ],
            "name": "signers",
            "outputs": [
                {
                    "internalType": "uint8",
                    "name": "",
                    "type": "uint8"
                }
            ],
            "stateMutability": "view",
            "type": "function"
        },
        {
            "stateMutability": "payable",
            "type": "receive"
        }
    ],
    "bytecode": "60806040523480156200001157600080fd5b506040516200245a3803806200245a8339810160408190526200003491620003cd565b62000042608060006200007e565b6200005363ffffffff30166200009f565b8051620000699160039160209091019062000327565b506200007781600162000196565b506200052d565b6001600160801b031960809190911b166001600160801b0390911617600055565b6060600060015b808410620000c65760081b81620000bd81620004f9565b925050620000a6565b50826000826001600160401b03811115620000f157634e487b7160e01b600052604160045260246000fd5b6040519080825280601f01601f1916602001820160405280156200011c576020820181803683370190505b509050825b80156200018d5760f883901b826200013b60018462000442565b815181106200015a57634e487b7160e01b600052603260045260246000fd5b60200101906001600160f81b031916908160001a90535060089290921c918062000184816200047d565b91505062000121565b50949350505050565b620001ac82620002e160201b620006961760201c565b15620001d55760405162461bcd60e51b8152600401620001cc90620003fd565b60405180910390fd5b6001600160a01b0382166000908152600160205260409020805460ff83811660ff198316179092551680158015906200020f575060ff8216155b156200024c576002805461ffff169060006200022b836200045c565b91906101000a81548161ffff021916908361ffff1602179055505062000299565b60ff811615801562000261575060008260ff16115b1562000299576002805461ffff169060006200027d83620004d4565b91906101000a81548161ffff021916908361ffff160217905550505b826001600160a01b03167f7f00bf87056fc9622b70d830cce34aa24d6c12881ebbc71d3bf22d0c5ae295b783604051620002d4919062000434565b60405180910390a2505050565b60006001600160a01b0382163f7fc5d2460186f7233c927e7db2dcc703c0e500b653ca82273b7bfad8045d85a4708082148015906200031f57508115155b949350505050565b828054620003359062000497565b90600052602060002090601f016020900481019282620003595760008555620003a4565b82601f106200037457805160ff1916838001178555620003a4565b82800160010185558215620003a4579182015b82811115620003a457825182559160200191906001019062000387565b50620003b2929150620003b6565b5090565b5b80821115620003b25760008155600101620003b7565b600060208284031215620003df578081fd5b81516001600160a01b0381168114620003f6578182fd5b9392505050565b6020808252601b908201527f7369676e65722063616e6e6f74206265206120636f6e74726163740000000000604082015260600190565b60ff91909116815260200190565b60008282101562000457576200045762000517565b500390565b600061ffff82168062000473576200047362000517565b6000190192915050565b6000816200048f576200048f62000517565b506000190190565b600281046001821680620004ac57607f821691505b60208210811415620004ce57634e487b7160e01b600052602260045260246000fd5b50919050565b600061ffff80831681811415620004ef57620004ef62000517565b6001019392505050565b600060001982141562000510576200051062000517565b5060010190565b634e487b7160e01b600052601160045260246000fd5b611f1d806200053d6000396000f3fe6080604052600436106100c65760003560e01c80638291286c1161007f578063c1e38e8d11610059578063c1e38e8d1461021d578063ce5494bb1461023d578063d69c3d301461025d578063ecec0dfd14610272576100cd565b80638291286c146101bb578063b5fe5163146101d0578063b6e404de146101fd576100cd565b80630f43d678146100d25780631068361f146100f457806348753d0014610114578063736c0d5b1461014a5780637ca548c6146101775780637cedbb8014610199576100cd565b366100cd57005b600080fd5b3480156100de57600080fd5b506100f26100ed366004611848565b61029f565b005b34801561010057600080fd5b506100f261010f3660046117be565b610303565b34801561012057600080fd5b5061013461012f36600461188b565b61034a565b6040516101419190611a9c565b60405180910390f35b34801561015657600080fd5b5061016a6101653660046117a4565b61042c565b6040516101419190611bb2565b34801561018357600080fd5b5061018c610441565b6040516101419190611b9a565b3480156101a557600080fd5b506101ae61044b565b6040516101419190611ba9565b3480156101c757600080fd5b50610134610450565b3480156101dc57600080fd5b506101f06101eb366004611871565b6104de565b6040516101419190611a51565b34801561020957600080fd5b506100f26102183660046117f0565b61051f565b34801561022957600080fd5b506100f2610238366004611871565b610580565b34801561024957600080fd5b506100f26102583660046117a4565b610631565b34801561026957600080fd5b506101ae61063e565b34801561027e57600080fd5b5061029261028d36600461188b565b610661565b6040516101419190611a3e565b303314806102c057503360009081526001602081905260409091205460ff16145b6102e55760405162461bcd60e51b81526004016102dc90611b45565b60405180910390fd5b6102ef82826106db565b60025461ffff166102ff57600080fd5b5050565b3033148061032457503360009081526001602081905260409091205460ff16145b6103405760405162461bcd60e51b81526004016102dc90611b45565b6102ff8282610802565b6060600061035d8d60038e8e8e8e61085a565b90506000610370828a8a8a8a8a8a610bf6565b905060006103c38e8d8d8080601f016020809104026020016040519081016040528093929190818152602001838380828437600081840152601f19601f820116905080830192505050505050508f610de5565b90506103ce8f610580565b8d6001600160a01b03167f64ada3f9bcd41ebd407b399dc401184273a19bc294825172626af05a15c95d256104038e8e610e97565b84604051610412929190611a7a565b60405180910390a29e9d5050505050505050505050505050565b60016020526000908152604090205460ff1681565b60025461ffff1681565b606481565b6003805461045d90611e0f565b80601f016020809104026020016040519081016040528092919081815260200182805461048990611e0f565b80156104d65780601f106104ab576101008083540402835291602001916104d6565b820191906000526020600020905b8154815290600101906020018083116104b957829003601f168201915b505050505081565b6000806104e9610f8b565b90506104f58184610f91565b80610516575061051681610507610fd6565b856001600160801b0316610fdf565b9150505b919050565b6105618483838080601f016020809104026020016040519081016040528093929190818152602001838380828437600092019190915250889250610de5915050565b5060405162461bcd60e51b81526004016102dc90611b0e565b50505050565b60005480608081901c6105938285610f91565b156105e1576105dc8460016105a88583611d6f565b6105b29190611d6f565b6001600160801b03166001846001600160801b0316901b6001176001600160801b0316901b611034565b61057a565b6105f58282866001600160801b0316610fdf565b156100cd576105dc82600161060a8783611d6f565b6106149190611d6f565b6001600160801b03166001901b836001600160801b031617611034565b61063b3382610802565b50565b6000610648610f8b565b610653906001611bc0565b6001600160801b0316905090565b606060006106748d60038e8e8e8e61085a565b905061068581898989898989610bf6565b9d9c50505050505050505050505050565b60006001600160a01b0382163f7fc5d2460186f7233c927e7db2dcc703c0e500b653ca82273b7bfad8045d85a4708082148015906106d357508115155b949350505050565b6106e482610696565b156107015760405162461bcd60e51b81526004016102dc90611ad7565b6001600160a01b0382166000908152600160205260409020805460ff83811660ff1983161790925516801580159061073a575060ff8216155b15610773576002805461ffff1690600061075383611dda565b91906101000a81548161ffff021916908361ffff160217905550506107bc565b60ff8116158015610787575060008260ff16115b156107bc576002805461ffff169060006107a083611e4a565b91906101000a81548161ffff021916908361ffff160217905550505b826001600160a01b03167f7f00bf87056fc9622b70d830cce34aa24d6c12881ebbc71d3bf22d0c5ae295b7836040516107f59190611bb2565b60405180910390a2505050565b6001600160a01b03811660009081526001602052604090205460ff161561082857600080fd5b6001600160a01b03821660009081526001602052604090205461084f90829060ff166106db565b6102ff8260006106db565b6040805160098082526101408201909252600091829190816020015b606081526020019060019003908161087657905050905061089f886001600160801b031661105e565b816000815181106108c057634e487b7160e01b600052603260045260246000fd5b60200260200101819052508680546108d790611e0f565b80601f016020809104026020016040519081016040528092919081815260200182805461090390611e0f565b80156109505780601f1061092557610100808354040283529160200191610950565b820191906000526020600020905b81548152906001019060200180831161093357829003601f168201915b50505050508160018151811061097657634e487b7160e01b600052603260045260246000fd5b602002602001018190525061098c61520861105e565b816002815181106109ad57634e487b7160e01b600052603260045260246000fd5b6020026020010181905250856040516020016109c99190611a05565b604051602081830303815290604052816003815181106109f957634e487b7160e01b600052603260045260246000fd5b6020026020010181905250610a0d8561105e565b81600481518110610a2e57634e487b7160e01b600052603260045260246000fd5b602002602001018190525083838080601f016020809104026020016040519081016040528093929190818152602001838380828437600092019190915250508351849250600591508110610a9257634e487b7160e01b600052603260045260246000fd5b6020026020010181905250610aa7600161105e565b81600681518110610ac857634e487b7160e01b600052603260045260246000fd5b6020026020010181905250610add600061105e565b81600781518110610afe57634e487b7160e01b600052603260045260246000fd5b602002602001018190525060005b6008811015610b8357610b45828281518110610b3857634e487b7160e01b600052603260045260246000fd5b6020026020010151611149565b828281518110610b6557634e487b7160e01b600052603260045260246000fd5b60200260200101819052508080610b7b90611e6c565b915050610b0c565b5080600781518110610ba557634e487b7160e01b600052603260045260246000fd5b602002602001015181600881518110610bce57634e487b7160e01b600052603260045260246000fd5b6020026020010181905250610be2816111ae565b805190602001209150509695505050505050565b606060008467ffffffffffffffff811115610c2157634e487b7160e01b600052604160045260246000fd5b604051908082528060200260200182016040528015610c4a578160200160208202803683370190505b50905060005b85811015610dcf57600060018b8b8b85818110610c7d57634e487b7160e01b600052603260045260246000fd5b9050602002016020810190610c92919061197c565b8a8a86818110610cb257634e487b7160e01b600052603260045260246000fd5b90506020020135898987818110610cd957634e487b7160e01b600052603260045260246000fd5b9050602002013560405160008152602001604052604051610cfd9493929190611a5c565b6020604051602081039080840390855afa158015610d1f573d6000803e3d6000fd5b505060408051601f1901516001600160a01b03811660009081526001602052919091205490925060ff1690508015801590610d5d575060ff81168810155b610d795760405162461bcd60e51b81526004016102dc90611aaf565b81848481518110610d9a57634e487b7160e01b600052603260045260246000fd5b60200260200101906001600160a01b031690816001600160a01b03168152505050508080610dc790611e6c565b915050610c50565b50610dd9816111ca565b98975050505050505050565b6060825160001480610dfb5750610dfb84610696565b610e0457600080fd5b600080856001600160a01b03168486604051610e209190611a22565b60006040518083038185875af1925050503d8060008114610e5d576040519150601f19603f3d011682016040523d82523d6000602084013e610e62565b606091505b50915091508115610e76579150610e909050565b8060405162461bcd60e51b81526004016102dc9190611a9c565b9392505050565b60006004821015610eaa57506000610f85565b601883836003818110610ecd57634e487b7160e01b600052603260045260246000fd5b909101356001600160f81b03191690911c9050601084846002818110610f0357634e487b7160e01b600052603260045260246000fd5b909101356001600160f81b03191690911c9050600885856001818110610f3957634e487b7160e01b600052603260045260246000fd5b909101356001600160f81b03191690911c90508585600081610f6b57634e487b7160e01b600052603260045260246000fd5b9050013560f81c60f81b6001600160f81b03191617171790505b92915050565b60005490565b6000826001600160801b0316826001600160801b0316118015610e905750610fc360646001600160801b038516611beb565b826001600160801b031611159392505050565b60005460801c90565b600080610ff5836001600160801b038716611d97565b9050600081118015611008575060808111155b801561102b57506001600160801b038416611024600183611d97565b6001901b16155b95945050505050565b6fffffffffffffffffffffffffffffffff1960809190911b166001600160801b0390911617600055565b6060600060015b8084106110815760081b8161107981611e6c565b925050611065565b508260008267ffffffffffffffff8111156110ac57634e487b7160e01b600052604160045260246000fd5b6040519080825280601f01601f1916602001820160405280156110d6576020820181803683370190505b509050825b80156111405760f883901b826110f2600184611d97565b8151811061111057634e487b7160e01b600052603260045260246000fd5b60200101906001600160f81b031916908160001a90535060089290921c918061113881611df8565b9150506110db565b50949350505050565b60608151600114801561118e5750608060f81b8260008151811061117d57634e487b7160e01b600052603260045260246000fd5b01602001516001600160f81b031916105b1561119a57508061051a565b6111a782608060b7611294565b905061051a565b606060006111bb836114f9565b90506105168160c060f7611294565b60005b81518110156102ff5760006111e3826001611beb565b90505b82518110156112815782818151811061120f57634e487b7160e01b600052603260045260246000fd5b60200260200101516001600160a01b031683838151811061124057634e487b7160e01b600052603260045260246000fd5b60200260200101516001600160a01b0316141561126f5760405162461bcd60e51b81526004016102dc90611b6d565b8061127981611e6c565b9150506111e6565b508061128c81611e6c565b9150506111cd565b82516060906020850190603781116113685760006112b3826001611beb565b67ffffffffffffffff8111156112d957634e487b7160e01b600052604160045260246000fd5b6040519080825280601f01601f191660200182016040528015611303576020820181803683370190505b509050816113118188611c03565b60f81b8260008151811061133557634e487b7160e01b600052603260045260246000fd5b60200101906001600160f81b031916908160001a9053506021820161135b81868661166b565b8295505050505050610e90565b600060015b6113778184611c28565b1561139d578161138681611e87565b9250611396905061010082611d50565b905061136d565b6000836113ab846001611c03565b60ff166113b89190611beb565b67ffffffffffffffff8111156113de57634e487b7160e01b600052604160045260246000fd5b6040519080825280601f01601f191660200182016040528015611408576020820181803683370190505b5090506114158388611c03565b60f81b8160008151811061143957634e487b7160e01b600052603260045260246000fd5b60200101906001600160f81b031916908160001a905350600191505b8260ff1682116114db5761010061146f8360ff8616611d97565b61147b90610100611c82565b6114859086611c28565b61148f9190611ea7565b60f81b8183815181106114b257634e487b7160e01b600052603260045260246000fd5b60200101906001600160f81b031916908160001a905350816114d381611e6c565b925050611455565b8083016021016114ec81878761166b565b509450610e909350505050565b606081516000141561151a575060408051600081526020810190915261051a565b6000805b835181101561156f5783818151811061154757634e487b7160e01b600052603260045260246000fd5b6020026020010151518261155b9190611beb565b91508061156781611e6c565b91505061151e565b5060008167ffffffffffffffff81111561159957634e487b7160e01b600052604160045260246000fd5b6040519080825280601f01601f1916602001820160405280156115c3576020820181803683370190505b5090506020810160005b85518110156116615760008682815181106115f857634e487b7160e01b600052603260045260246000fd5b6020026020010151905060006020820190506116168482845161166b565b87838151811061163657634e487b7160e01b600052603260045260246000fd5b6020026020010151518461164a9190611beb565b93505050808061165990611e6c565b9150506115cd565b5090949350505050565b602081106116a35781518352611682602084611beb565b925061168f602083611beb565b915061169c602082611d97565b905061166b565b600060016116b2836020611d97565b6116be90610100611c82565b6116c89190611d97565b925184518416931916929092179092525050565b80356001600160a01b038116811461051a57600080fd5b60008083601f840112611704578182fd5b50813567ffffffffffffffff81111561171b578182fd5b602083019150836020808302850101111561173557600080fd5b9250929050565b60008083601f84011261174d578182fd5b50813567ffffffffffffffff811115611764578182fd5b60208301915083602082850101111561173557600080fd5b80356001600160801b038116811461051a57600080fd5b803560ff8116811461051a57600080fd5b6000602082840312156117b5578081fd5b610e90826116dc565b600080604083850312156117d0578081fd5b6117d9836116dc565b91506117e7602084016116dc565b90509250929050565b60008060008060608587031215611805578182fd5b61180e856116dc565b935060208501359250604085013567ffffffffffffffff811115611830578283fd5b61183c8782880161173c565b95989497509550505050565b6000806040838503121561185a578182fd5b611863836116dc565b91506117e760208401611793565b600060208284031215611882578081fd5b610e908261177c565b600080600080600080600080600080600060e08c8e0312156118ab578687fd5b6118b48c61177c565b9a506118c260208d016116dc565b995060408c0135985067ffffffffffffffff8060608e013511156118e4578788fd5b6118f48e60608f01358f0161173c565b909950975060808d0135811015611909578687fd5b6119198e60808f01358f016116f3565b909750955060a08d013581101561192e578485fd5b61193e8e60a08f01358f016116f3565b909550935060c08d0135811015611953578283fd5b506119648d60c08e01358e016116f3565b81935080925050509295989b509295989b9093969950565b60006020828403121561198d578081fd5b610e9082611793565b6000815180845260208085019450808401835b838110156119ce5781516001600160a01b0316875295820195908201906001016119a9565b509495945050505050565b600081518084526119f1816020860160208601611dae565b601f01601f19169290920160200192915050565b60609190911b6bffffffffffffffffffffffff1916815260140190565b60008251611a34818460208701611dae565b9190910192915050565b600060208252610e906020830184611996565b901515815260200190565b93845260ff9290921660208401526040830152606082015260800190565b600063ffffffff60e01b84168252604060208301526106d36040830184611996565b600060208252610e9060208301846119d9565b6020808252600e908201526d31b7b9b4b3b732b91032b93937b960911b604082015260600190565b6020808252601b908201527f7369676e65722063616e6e6f74206265206120636f6e74726163740000000000604082015260600190565b60208082526017908201527f54657374207061737365642e20526576657274696e672e000000000000000000604082015260600190565b6020808252600e908201526d1b9bdd08185d5d1a1bdc9a5e995960921b604082015260600190565b6020808252601390820152726475706c6963617465207369676e617475726560681b604082015260600190565b61ffff91909116815260200190565b90815260200190565b60ff91909116815260200190565b60006001600160801b03808316818516808303821115611be257611be2611ebb565b01949350505050565b60008219821115611bfe57611bfe611ebb565b500190565b600060ff821660ff84168060ff03821115611c2057611c20611ebb565b019392505050565b600082611c3757611c37611ed1565b500490565b80825b6001808611611c4e5750611c79565b818704821115611c6057611c60611ebb565b80861615611c6d57918102915b9490941c938002611c3f565b94509492505050565b6000610e906000198484600082611c9b57506001610e90565b81611ca857506000610e90565b8160018114611cbe5760028114611cc857611cf5565b6001915050610e90565b60ff841115611cd957611cd9611ebb565b6001841b915084821115611cef57611cef611ebb565b50610e90565b5060208310610133831016604e8410600b8410161715611d28575081810a83811115611d2357611d23611ebb565b610e90565b611d358484846001611c3c565b808604821115611d4757611d47611ebb565b02949350505050565b6000816000190483118215151615611d6a57611d6a611ebb565b500290565b60006001600160801b0383811690831681811015611d8f57611d8f611ebb565b039392505050565b600082821015611da957611da9611ebb565b500390565b60005b83811015611dc9578181015183820152602001611db1565b8381111561057a5750506000910152565b600061ffff821680611dee57611dee611ebb565b6000190192915050565b600081611e0757611e07611ebb565b506000190190565b600281046001821680611e2357607f821691505b60208210811415611e4457634e487b7160e01b600052602260045260246000fd5b50919050565b600061ffff80831681811415611e6257611e62611ebb565b6001019392505050565b6000600019821415611e8057611e80611ebb565b5060010190565b600060ff821660ff811415611e9e57611e9e611ebb565b60010192915050565b600082611eb657611eb6611ed1565b500690565b634e487b7160e01b600052601160045260246000fd5b634e487b7160e01b600052601260045260246000fdfea26469706673582212204803d19bc13500c4e2e230799c8b93a3a68d6d075af3947c67bb97904123d14d64736f6c63430008000033",
    "sourcePath": "c:/Users/luziu/Documents/aktionariat/contracts/src/MultiSig.sol",
    "compiler": {
        "name": "solc",
        "version": "0.8.0+commit.c7dfd78e"
    },
    "functionHashes": {
        "MAX_INCREASE()": "7cedbb80",
        "checkExecution(address,uint256,bytes)": "b6e404de",
        "checkSignatures(uint128,address,uint256,bytes,uint8[],bytes32[],bytes32[])": "ecec0dfd",
        "contractId()": "8291286c",
        "execute(uint128,address,uint256,bytes,uint8[],bytes32[],bytes32[])": "48753d00",
        "flagUsed(uint128)": "c1e38e8d",
        "isFree(uint128)": "b5fe5163",
        "migrate(address)": "ce5494bb",
        "migrate(address,address)": "1068361f",
        "nextNonce()": "d69c3d30",
        "setSigner(address,uint8)": "0f43d678",
        "signerCount()": "7ca548c6",
        "signers(address)": "736c0d5b"
    },
    "gasEstimates": {
        "creation": {
            "codeDepositCost": "1593000",
            "executionCost": "infinite",
            "totalCost": "infinite"
        },
        "external": {
            "MAX_INCREASE()": "339",
            "checkExecution(address,uint256,bytes)": "infinite",
            "checkSignatures(uint128,address,uint256,bytes,uint8[],bytes32[],bytes32[])": "infinite",
            "contractId()": "infinite",
            "execute(uint128,address,uint256,bytes,uint8[],bytes32[],bytes32[])": "infinite",
            "flagUsed(uint128)": "infinite",
            "isFree(uint128)": "infinite",
            "migrate(address)": "infinite",
            "migrate(address,address)": "infinite",
            "nextNonce()": "1262",
            "setSigner(address,uint8)": "infinite",
            "signerCount()": "1135",
            "signers(address)": "1337"
        },
        "internal": {
            "_migrate(address,address)": "infinite",
            "_setSigner(address,uint8)": "infinite",
            "calculateTransactionHash(uint128,bytes storage pointer,address,uint256,bytes calldata)": "infinite",
            "extractSelector(bytes calldata)": "379",
            "requireNoDuplicates(address[] memory)": "infinite",
            "toBytes(uint256)": "infinite",
            "verifySignatures(bytes32,uint8[] calldata,bytes32[] calldata,bytes32[] calldata)": "infinite"
        }
    }
}