{
    "contractName": "MultiSigFactory",
    "abi": [
        {
            "inputs": [],
            "name": "create",
            "outputs": [
                {
                    "internalType": "address",
                    "name": "",
                    "type": "address"
                }
            ],
            "stateMutability": "nonpayable",
            "type": "function"
        }
    ],
    "bytecode": "608060405234801561001057600080fd5b50611b71806100206000396000f3fe608060405234801561001057600080fd5b506004361061002b5760003560e01c8063efc81a8c14610030575b600080fd5b610038610054565b604080516001600160a01b039092168252519081900360200190f35b60003360405161006390610096565b6001600160a01b03909116815260405190819003602001906000f080158015610090573d6000803e3d6000fd5b50905090565b611a98806100a48339019056fe60806040523480156200001157600080fd5b5060405162001a9838038062001a98833981810160405260208110156200003757600080fd5b50516200004a63ffffffff301662000075565b80516200006091600391602090910190620002ab565b506200006e8160016200012b565b5062000347565b6060600060015b808410620000935760019091019060081b6200007c565b50826060826001600160401b0381118015620000ae57600080fd5b506040519080825280601f01601f191660200182016040528015620000da576020820181803683370190505b509050825b801562000122578260f81b826001830381518110620000fa57fe5b60200101906001600160f81b031916908160001a90535060089290921c9160001901620000df565b50949350505050565b62000141826200026e60201b62000a161760201c565b1562000194576040805162461bcd60e51b815260206004820152601b60248201527f7369676e65722063616e6e6f74206265206120636f6e74726163740000000000604482015290519081900360640190fd5b6001600160a01b0382166000908152602081905260409020805460ff83811660ff19831617909255168015801590620001ce575060ff8216155b15620001f4576001805461ffff19811661ffff9182166000190190911617905562000227565b60ff811615801562000209575060008260ff16115b1562000227576001805461ffff80821683011661ffff199091161790555b6040805160ff8416815290516001600160a01b038516917f7f00bf87056fc9622b70d830cce34aa24d6c12881ebbc71d3bf22d0c5ae295b7919081900360200190a2505050565b6000813f7fc5d2460186f7233c927e7db2dcc703c0e500b653ca82273b7bfad8045d85a470818114801590620002a357508115155b949350505050565b828054600181600116156101000203166002900490600052602060002090601f016020900481019282601f10620002ee57805160ff19168380011785556200031e565b828001600101855582156200031e579182015b828111156200031e57825182559160200191906001019062000301565b506200032c92915062000330565b5090565b5b808211156200032c576000815560010162000331565b61174180620003576000396000f3fe6080604052600436106100955760003560e01c80637ca548c6116100595780637ca548c61461037f5780638291286c146103ab578063b6e404de146103c0578063ce5494bb14610450578063f7494b01146104835761009c565b80630f43d678146100a15780631068361f146100df5780633a49183e1461011a578063664e841d1461030f578063736c0d5b146103365761009c565b3661009c57005b600080fd5b3480156100ad57600080fd5b506100dd600480360360408110156100c457600080fd5b5080356001600160a01b0316906020013560ff16610653565b005b3480156100eb57600080fd5b506100dd6004803603604081101561010257600080fd5b506001600160a01b03813581169160200135166106d3565b34801561012657600080fd5b5061029a600480360360c081101561013d57600080fd5b6001600160a01b0382351691602081013591810190606081016040820135600160201b81111561016c57600080fd5b82018360208201111561017e57600080fd5b803590602001918460018302840111600160201b8311171561019f57600080fd5b919390929091602081019035600160201b8111156101bc57600080fd5b8201836020820111156101ce57600080fd5b803590602001918460208302840111600160201b831117156101ef57600080fd5b919390929091602081019035600160201b81111561020c57600080fd5b82018360208201111561021e57600080fd5b803590602001918460208302840111600160201b8311171561023f57600080fd5b919390929091602081019035600160201b81111561025c57600080fd5b82018360208201111561026e57600080fd5b803590602001918460208302840111600160201b8311171561028f57600080fd5b509092509050610754565b6040805160208082528351818301528351919283929083019185019080838360005b838110156102d45781810151838201526020016102bc565b50505050905090810190601f1680156103015780820380516001836020036101000a031916815260200191505b509250505060405180910390f35b34801561031b57600080fd5b50610324610888565b60408051918252519081900360200190f35b34801561034257600080fd5b506103696004803603602081101561035957600080fd5b50356001600160a01b0316610891565b6040805160ff9092168252519081900360200190f35b34801561038b57600080fd5b506103946108a6565b6040805161ffff9092168252519081900360200190f35b3480156103b757600080fd5b5061029a6108b0565b3480156103cc57600080fd5b506100dd600480360360608110156103e357600080fd5b6001600160a01b0382351691602081013591810190606081016040820135600160201b81111561041257600080fd5b82018360208201111561042457600080fd5b803590602001918460018302840111600160201b8311171561044557600080fd5b50909250905061093e565b34801561045c57600080fd5b506100dd6004803603602081101561047357600080fd5b50356001600160a01b03166109ce565b34801561048f57600080fd5b50610603600480360360c08110156104a657600080fd5b6001600160a01b0382351691602081013591810190606081016040820135600160201b8111156104d557600080fd5b8201836020820111156104e757600080fd5b803590602001918460018302840111600160201b8311171561050857600080fd5b919390929091602081019035600160201b81111561052557600080fd5b82018360208201111561053757600080fd5b803590602001918460208302840111600160201b8311171561055857600080fd5b919390929091602081019035600160201b81111561057557600080fd5b82018360208201111561058757600080fd5b803590602001918460208302840111600160201b831117156105a857600080fd5b919390929091602081019035600160201b8111156105c557600080fd5b8201836020820111156105d757600080fd5b803590602001918460208302840111600160201b831117156105f857600080fd5b5090925090506109db565b60408051602080825283518183015283519192839290830191858101910280838360005b8381101561063f578181015183820152602001610627565b505050509050019250505060405180910390f35b3033148061067357503360009081526020819052604090205460ff166001145b6106b5576040805162461bcd60e51b815260206004820152600e60248201526d1b9bdd08185d5d1a1bdc9a5e995960921b604482015290519081900360640190fd5b6106bf8282610a54565b60015461ffff166106cf57600080fd5b5050565b303314806106f357503360009081526020819052604090205460ff166001145b610735576040805162461bcd60e51b815260206004820152600e60248201526d1b9bdd08185d5d1a1bdc9a5e995960921b604482015290519081900360640190fd5b6001600160a01b038216301461074a57600080fd5b6106cf8282610b84565b606061075e610888565b60028190556000906107759060038e8e8e8e610bdc565b90506060610788828a8a8a8a8a8a610e85565b905060606107db8e8d8d8080601f016020809104026020016040519081016040528093929190818152602001838380828437600081840152601f19601f820116905080830192505050505050508f611031565b90508d6001600160a01b03167f64ada3f9bcd41ebd407b399dc401184273a19bc294825172626af05a15c95d256108128e8e611196565b8460405180836001600160e01b031916815260200180602001828103825283818151815260200191508051906020019060200280838360005b8381101561086357818101518382015260200161084b565b50505050905001935050505060405180910390a29d9c50505050505050505050505050565b60025460010190565b60006020819052908152604090205460ff1681565b60015461ffff1681565b6003805460408051602060026001851615610100026000190190941693909304601f810184900484028201840190925281815292918301828280156109365780601f1061090b57610100808354040283529160200191610936565b820191906000526020600020905b81548152906001019060200180831161091957829003601f168201915b505050505081565b6109808483838080601f016020809104026020016040519081016040528093929190818152602001838380828437600092019190915250889250611031915050565b506040805162461bcd60e51b815260206004820152601760248201527f54657374207061737365642e20526576657274696e672e000000000000000000604482015290519081900360640190fd5b6109d83382610b84565b50565b606060006109f56109ea610888565b60038e8e8e8e610bdc565b9050610a0681898989898989610e85565b9c9b505050505050505050505050565b6000813f7fc5d2460186f7233c927e7db2dcc703c0e500b653ca82273b7bfad8045d85a470818114801590610a4a57508115155b925050505b919050565b610a5d82610a16565b15610aaf576040805162461bcd60e51b815260206004820152601b60248201527f7369676e65722063616e6e6f74206265206120636f6e74726163740000000000604482015290519081900360640190fd5b6001600160a01b0382166000908152602081905260409020805460ff83811660ff19831617909255168015801590610ae8575060ff8216155b15610b0c576001805461ffff19811661ffff91821660001901909116179055610b3d565b60ff8116158015610b20575060008260ff16115b15610b3d576001805461ffff80821683011661ffff199091161790555b6040805160ff8416815290516001600160a01b038516917f7f00bf87056fc9622b70d830cce34aa24d6c12881ebbc71d3bf22d0c5ae295b7919081900360200190a2505050565b6001600160a01b03811660009081526020819052604090205460ff1615610baa57600080fd5b6001600160a01b038216600090815260208190526040902054610bd190829060ff16610a54565b6106cf826000610a54565b604080516009808252610140820190925260009160609190816020015b6060815260200190600190039081610bf9579050509050610c198861123a565b81600081518110610c2657fe5b602090810291909101810191909152875460408051601f6002600019610100600187161502019094169390930492830184900484028101840190915281815291899190830182828015610cba5780601f10610c8f57610100808354040283529160200191610cba565b820191906000526020600020905b815481529060010190602001808311610c9d57829003601f168201915b505050505081600181518110610ccc57fe5b6020026020010181905250610ce261520861123a565b81600281518110610cef57fe5b60200260200101819052508560405160200180826001600160a01b031660601b815260140191505060405160208183030381529060405281600381518110610d3357fe5b6020026020010181905250610d478561123a565b81600481518110610d5457fe5b602002602001018190525083838080601f016020809104026020016040519081016040528093929190818152602001838380828437600092019190915250508351849250600591508110610da457fe5b6020026020010181905250610db9600161123a565b81600681518110610dc657fe5b6020026020010181905250610ddb600061123a565b81600781518110610de857fe5b602002602001018190525060005b6008811015610e3a57610e1b828281518110610e0e57fe5b60200260200101516112ea565b828281518110610e2757fe5b6020908102919091010152600101610df6565b5080600781518110610e4857fe5b602002602001015181600881518110610e5d57fe5b6020026020010181905250610e718161133b565b805190602001209150509695505050505050565b6060808467ffffffffffffffff81118015610e9f57600080fd5b50604051908082528060200260200182016040528015610ec9578160200160208202803683370190505b50905060005b8581101561101b57600060018b8b8b85818110610ee857fe5b9050602002013560ff168a8a86818110610efe57fe5b90506020020135898987818110610f1157fe5b9050602002013560405160008152602001604052604051808581526020018460ff1681526020018381526020018281526020019450505050506020604051602081039080840390855afa158015610f6c573d6000803e3d6000fd5b505060408051601f1901516001600160a01b03811660009081526020819052919091205490925060ff1690508015801590610faa575060ff81168810155b610fec576040805162461bcd60e51b815260206004820152600e60248201526d31b7b9b4b3b732b91032b93937b960911b604482015290519081900360640190fd5b81848481518110610ff957fe5b6001600160a01b03909216602092830291909101909101525050600101610ecf565b5061102581611356565b98975050505050505050565b6060825160001480611047575061104784610a16565b61105057600080fd5b60006060856001600160a01b031684866040518082805190602001908083835b6020831061108f5780518252601f199092019160209182019101611070565b6001836020036101000a03801982511681845116808217855250505050505090500191505060006040518083038185875af1925050503d80600081146110f1576040519150601f19603f3d011682016040523d82523d6000602084013e6110f6565b606091505b5091509150811561110a57915061118f9050565b8060405162461bcd60e51b81526004018080602001828103825283818151815260200191508051906020019080838360005b8381101561115457818101518382015260200161113c565b50505050905090810190601f1680156111815780820380516001836020036101000a031916815260200191505b509250505060405180910390fd5b9392505050565b600060048210156111a957506000611234565b6018838360038181106111b857fe5b909101356001600160f81b03191690911c90506010848460028181106111da57fe5b909101356001600160f81b03191690911c90506008858560018181106111fc57fe5b909101356001600160f81b03191690911c9050858560008161121a57fe5b9050013560f81c60f81b6001600160f81b03191617171790505b92915050565b6060600060015b8084106112565760019091019060081b611241565b508260608267ffffffffffffffff8111801561127157600080fd5b506040519080825280601f01601f19166020018201604052801561129c576020820181803683370190505b509050825b80156112e1578260f81b8260018303815181106112ba57fe5b60200101906001600160f81b031916908160001a90535060089290921c91600019016112a1565b50949350505050565b60608151600114801561131b5750608060f81b8260008151811061130a57fe5b01602001516001600160f81b031916105b15611327575080610a4f565b61133482608060b7611404565b9050610a4f565b606080611347836115c3565b905061118f8160c060f7611404565b60005b81518110156106cf57600181015b82518110156113fb5782818151811061137c57fe5b60200260200101516001600160a01b031683838151811061139957fe5b60200260200101516001600160a01b031614156113f3576040805162461bcd60e51b81526020600482015260136024820152726475706c6963617465207369676e617475726560681b604482015290519081900360640190fd5b600101611367565b50600101611359565b82516060906020850190603781116114ab5760608160010167ffffffffffffffff8111801561143257600080fd5b506040519080825280601f01601f19166020018201604052801561145d576020820181803683370190505b509050600082905080870160f81b8260008151811061147857fe5b60200101906001600160f81b031916908160001a9053506021820161149e8186866116cd565b829550505050505061118f565b600060015b8083816114b957fe5b04156114ce57600190910190610100026114b0565b6060838360010160ff160167ffffffffffffffff811180156114ef57600080fd5b506040519080825280601f01601f19166020018201604052801561151a576020820181803683370190505b50905082870160f81b8160008151811061153057fe5b60200101906001600160f81b031916908160001a905350600191505b8260ff1682116115a557610100828460ff16036101000a858161156b57fe5b048161157357fe5b0660f81b81838151811061158357fe5b60200101906001600160f81b031916908160001a90535060019091019061154c565b8083016021016115b68187876116cd565b50945061118f9350505050565b60608151600014156115e45750604080516000815260208101909152610a4f565b6000805b8351811015611617578381815181106115fd57fe5b6020026020010151518201915080806001019150506115e8565b5060608167ffffffffffffffff8111801561163157600080fd5b506040519080825280601f01601f19166020018201604052801561165c576020820181803683370190505b5090506020810160005b85518110156116c357606086828151811061167d57fe5b60200260200101519050600060208201905061169b848284516116cd565b8783815181106116a757fe5b6020026020010151518401935050508080600101915050611666565b5090949350505050565b5b602081106116ed578151835260209283019290910190601f19016116ce565b905182516020929092036101000a600019018019909116911617905256fea264697066735822122023c227614280dd9e3cbdb4d1d34d57c44d871fb6b66da563a789c1cd960ec70c64736f6c63430007000033a2646970667358221220f090ecb56a3179d89fc77309c107ff1ee79ae2ee1270b8eca99ae3d4e845315664736f6c63430007000033",
    "sourcePath": "c:/Users/luziu/Documents/aktionariat/contracts/src/MultiSigFactory.sol",
    "compiler": {
        "name": "solc",
        "version": "0.7.0+commit.9e61f92b"
    },
    "functionHashes": {
        "create()": "efc81a8c"
    },
    "gasEstimates": {
        "creation": {
            "codeDepositCost": "1405000",
            "executionCost": "1465",
            "totalCost": "1406465"
        },
        "external": {
            "create()": "infinite"
        }
    }
}