{
    "contractName": "Offer",
    "abi": [
        {
            "inputs": [
                {
                    "internalType": "address",
                    "name": "buyer_",
                    "type": "address"
                },
                {
                    "internalType": "address",
                    "name": "token_",
                    "type": "address"
                },
                {
                    "internalType": "uint256",
                    "name": "price_",
                    "type": "uint256"
                },
                {
                    "internalType": "address",
                    "name": "currency_",
                    "type": "address"
                },
                {
                    "internalType": "uint256",
                    "name": "quorum_",
                    "type": "uint256"
                },
                {
                    "internalType": "uint256",
                    "name": "votePeriod",
                    "type": "uint256"
                }
            ],
            "stateMutability": "payable",
            "type": "constructor"
        },
        {
            "anonymous": false,
            "inputs": [
                {
                    "indexed": true,
                    "internalType": "address",
                    "name": "buyer",
                    "type": "address"
                },
                {
                    "indexed": false,
                    "internalType": "address",
                    "name": "token",
                    "type": "address"
                },
                {
                    "indexed": false,
                    "internalType": "uint256",
                    "name": "pricePerShare",
                    "type": "uint256"
                },
                {
                    "indexed": false,
                    "internalType": "address",
                    "name": "currency",
                    "type": "address"
                }
            ],
            "name": "OfferCreated",
            "type": "event"
        },
        {
            "anonymous": false,
            "inputs": [
                {
                    "indexed": true,
                    "internalType": "address",
                    "name": "buyer",
                    "type": "address"
                },
                {
                    "indexed": false,
                    "internalType": "bool",
                    "name": "success",
                    "type": "bool"
                },
                {
                    "indexed": false,
                    "internalType": "string",
                    "name": "message",
                    "type": "string"
                }
            ],
            "name": "OfferEnded",
            "type": "event"
        },
        {
            "anonymous": false,
            "inputs": [
                {
                    "indexed": false,
                    "internalType": "uint256",
                    "name": "newYesVotes",
                    "type": "uint256"
                },
                {
                    "indexed": false,
                    "internalType": "uint256",
                    "name": "newNoVotes",
                    "type": "uint256"
                }
            ],
            "name": "VotesChanged",
            "type": "event"
        },
        {
            "inputs": [],
            "name": "buyer",
            "outputs": [
                {
                    "internalType": "address",
                    "name": "",
                    "type": "address"
                }
            ],
            "stateMutability": "view",
            "type": "function"
        },
        {
            "inputs": [],
            "name": "cancel",
            "outputs": [],
            "stateMutability": "nonpayable",
            "type": "function"
        },
        {
            "inputs": [
                {
                    "internalType": "address",
                    "name": "betterOffer",
                    "type": "address"
                }
            ],
            "name": "contest",
            "outputs": [],
            "stateMutability": "nonpayable",
            "type": "function"
        },
        {
            "inputs": [],
            "name": "contest",
            "outputs": [],
            "stateMutability": "nonpayable",
            "type": "function"
        },
        {
            "inputs": [],
            "name": "currency",
            "outputs": [
                {
                    "internalType": "address",
                    "name": "",
                    "type": "address"
                }
            ],
            "stateMutability": "view",
            "type": "function"
        },
        {
            "inputs": [],
            "name": "execute",
            "outputs": [],
            "stateMutability": "nonpayable",
            "type": "function"
        },
        {
            "inputs": [
                {
                    "internalType": "address",
                    "name": "voter",
                    "type": "address"
                }
            ],
            "name": "hasVotedNo",
            "outputs": [
                {
                    "internalType": "bool",
                    "name": "",
                    "type": "bool"
                }
            ],
            "stateMutability": "view",
            "type": "function"
        },
        {
            "inputs": [
                {
                    "internalType": "address",
                    "name": "voter",
                    "type": "address"
                }
            ],
            "name": "hasVotedYes",
            "outputs": [
                {
                    "internalType": "bool",
                    "name": "",
                    "type": "bool"
                }
            ],
            "stateMutability": "view",
            "type": "function"
        },
        {
            "inputs": [],
            "name": "isAccepted",
            "outputs": [
                {
                    "internalType": "bool",
                    "name": "",
                    "type": "bool"
                }
            ],
            "stateMutability": "view",
            "type": "function"
        },
        {
            "inputs": [],
            "name": "isDeclined",
            "outputs": [
                {
                    "internalType": "bool",
                    "name": "",
                    "type": "bool"
                }
            ],
            "stateMutability": "view",
            "type": "function"
        },
        {
            "inputs": [],
            "name": "isVotingOpen",
            "outputs": [
                {
                    "internalType": "bool",
                    "name": "",
                    "type": "bool"
                }
            ],
            "stateMutability": "view",
            "type": "function"
        },
        {
            "inputs": [],
            "name": "isWellFunded",
            "outputs": [
                {
                    "internalType": "bool",
                    "name": "",
                    "type": "bool"
                }
            ],
            "stateMutability": "view",
            "type": "function"
        },
        {
            "inputs": [],
            "name": "noVotes",
            "outputs": [
                {
                    "internalType": "uint256",
                    "name": "",
                    "type": "uint256"
                }
            ],
            "stateMutability": "view",
            "type": "function"
        },
        {
            "inputs": [
                {
                    "internalType": "address",
                    "name": "from",
                    "type": "address"
                },
                {
                    "internalType": "address",
                    "name": "to",
                    "type": "address"
                },
                {
                    "internalType": "uint256",
                    "name": "value",
                    "type": "uint256"
                }
            ],
            "name": "notifyMoved",
            "outputs": [],
            "stateMutability": "nonpayable",
            "type": "function"
        },
        {
            "inputs": [],
            "name": "price",
            "outputs": [
                {
                    "internalType": "uint256",
                    "name": "",
                    "type": "uint256"
                }
            ],
            "stateMutability": "view",
            "type": "function"
        },
        {
            "inputs": [],
            "name": "quorum",
            "outputs": [
                {
                    "internalType": "uint256",
                    "name": "",
                    "type": "uint256"
                }
            ],
            "stateMutability": "view",
            "type": "function"
        },
        {
            "inputs": [],
            "name": "token",
            "outputs": [
                {
                    "internalType": "address",
                    "name": "",
                    "type": "address"
                }
            ],
            "stateMutability": "view",
            "type": "function"
        },
        {
            "inputs": [],
            "name": "voteEnd",
            "outputs": [
                {
                    "internalType": "uint256",
                    "name": "",
                    "type": "uint256"
                }
            ],
            "stateMutability": "view",
            "type": "function"
        },
        {
            "inputs": [],
            "name": "voteNo",
            "outputs": [],
            "stateMutability": "nonpayable",
            "type": "function"
        },
        {
            "inputs": [],
            "name": "voteYes",
            "outputs": [],
            "stateMutability": "nonpayable",
            "type": "function"
        },
        {
            "inputs": [],
            "name": "yesVotes",
            "outputs": [
                {
                    "internalType": "uint256",
                    "name": "",
                    "type": "uint256"
                }
            ],
            "stateMutability": "view",
            "type": "function"
        }
    ],
    "bytecode": "6080604052604051620013a9380380620013a9833981016040819052620000269162000144565b600280546001600160a01b038089166001600160a01b03199283161790925560018054888416908316179055600380549286169290911691909117905560048490556000829055620000798142620001cc565b6008556040517329fe8914e76da5ce2d90de98a64d0055f199d06d906000906729a2241af62c00009082818181858883f19350505050158015620000c1573d6000803e3d6000fd5b506002546001546004546003546040516001600160a01b03948516947f4f05be72ad7f57c27e555ace8452f56d8b1e82c9e6e1cd4fd282f34518b7729a946200011394908216939092911690620001a9565b60405180910390a2505050505050620001f1565b80516001600160a01b03811681146200013f57600080fd5b919050565b60008060008060008060c087890312156200015d578182fd5b620001688762000127565b9550620001786020880162000127565b9450604087015193506200018f6060880162000127565b92506080870151915060a087015190509295509295509295565b6001600160a01b0393841681526020810192909252909116604082015260600190565b60008219821115620001ec57634e487b7160e01b81526011600452602481fd5b500190565b6111a880620002016000396000f3fe608060405234801561001057600080fd5b50600436106101375760003560e01c80639b4e88aa116100b8578063e3ac83da1161007c578063e3ac83da14610212578063e5a6b10f1461021a578063ea8a1af014610222578063fa7f1bae1461022a578063fb286c6514610232578063fc0c546a1461023a57610137565b80639b4e88aa146101df578063a035b1fe146101e7578063b5b47f42146101ef578063ddbe8f09146101f7578063e1a1810f146101ff57610137565b80635051a5ec116100ff5780635051a5ec1461019f57806361461954146101a75780637150d8ae146101af5780638f1b4c6f146101c457806390cf581c146101d757610137565b806306a169ed1461013c5780631703a018146101515780633f5e3e7f1461016f57806341c12a7014610184578063448ab4c61461018c575b600080fd5b61014f61014a366004610ef0565b610242565b005b6101596103b1565b60405161016691906110e2565b60405180910390f35b6101776103b7565b6040516101669190610ff9565b61014f6104f4565b61017761019a366004610ef0565b610500565b610177610547565b61014f610611565b6101b7610772565b6040516101669190610fa7565b6101776101d2366004610ef0565b610781565b61014f61078a565b610177610794565b610159610909565b61015961090f565b610159610915565b61014f61020d366004610f2f565b61091b565b61014f61097c565b6101b7610a2c565b61014f610a3b565b610177610a7e565b610159610a87565b6101b7610a8d565b6001546001600160a01b0316331461025957600080fd5b6000819050806001600160a01b031663e5a6b10f6040518163ffffffff1660e01b815260040160206040518083038186803b15801561029757600080fd5b505afa1580156102ab573d6000803e3d6000fd5b505050506040513d601f19601f820116820180604052508101906102cf9190610f13565b6003546001600160a01b03908116911614801561035d5750600454816001600160a01b031663a035b1fe6040518163ffffffff1660e01b815260040160206040518083038186803b15801561032357600080fd5b505afa158015610337573d6000803e3d6000fd5b505050506040513d601f19601f8201168201806040525081019061035b9190610f8f565b115b6103825760405162461bcd60e51b8152600401610379906110ab565b60405180910390fd5b6103ad6000604051806040016040528060088152602001671c995c1b1858d95960c21b815250610a9c565b5050565b60005481565b6003546002546040516370a0823160e01b81526000926001600160a01b0390811692849284926370a08231926103f292911690600401610fa7565b60206040518083038186803b15801561040a57600080fd5b505afa15801561041e573d6000803e3d6000fd5b505050506040513d601f19601f820116820180604052508101906104429190610f8f565b600254604051636eb1769f60e11b81529192506000916001600160a01b038581169263dd62ed3e9261047c92909116903090600401610fbb565b60206040518083038186803b15801561049457600080fd5b505afa1580156104a8573d6000803e3d6000fd5b505050506040513d601f19601f820116820180604052508101906104cc9190610f8f565b905060006104d8610b5b565b90508281111580156104ea5750818111155b9450505050505b90565b6104fe6002610c72565b565b600060015b6001600160a01b03831660009081526005602052604090205460ff16600281111561054057634e487b7160e01b600052602160045260246000fd5b1492915050565b6000610551610a7e565b1561060157600160009054906101000a90046001600160a01b03166001600160a01b03166318160ddd6040518163ffffffff1660e01b815260040160206040518083038186803b1580156105a457600080fd5b505afa1580156105b8573d6000803e3d6000fd5b505050506040513d601f19601f820116820180604052508101906105dc9190610f8f565b6000546105e99190611111565b6007546105f890612710611111565b101590506104f1565b6006546007546105dc91906110f9565b610619610547565b6106355760405162461bcd60e51b815260040161037990611085565b600061063f610b5b565b6003546002546001546040516323b872dd60e01b81529394506001600160a01b03928316936323b872dd9361067d9381169216908690600401610fd5565b602060405180830381600087803b15801561069757600080fd5b505af11580156106ab573d6000803e3d6000fd5b505050506040513d601f19601f820116820180604052508101906106cf9190610f6f565b6106d857600080fd5b600154600254600354604051637e5bcd3f60e11b81526001600160a01b039384169363fcb79a7e936107139390821692911690600401610fbb565b600060405180830381600087803b15801561072d57600080fd5b505af1158015610741573d6000803e3d6000fd5b5050505061076f6001604051806040016040528060078152602001667375636365737360c81b815250610a9c565b50565b6002546001600160a01b031681565b60006002610505565b6104fe6001610c72565b600061079e610a7e565b156108dd57600160009054906101000a90046001600160a01b03166001600160a01b03166318160ddd6040518163ffffffff1660e01b815260040160206040518083038186803b1580156107f157600080fd5b505afa158015610805573d6000803e3d6000fd5b505050506040513d601f19601f820116820180604052508101906108299190610f8f565b6000546108369190611111565b600654600160009054906101000a90046001600160a01b03166001600160a01b03166318160ddd6040518163ffffffff1660e01b815260040160206040518083038186803b15801561088757600080fd5b505afa15801561089b573d6000803e3d6000fd5b505050506040513d601f19601f820116820180604052508101906108bf9190610f8f565b6108c99190611130565b6108d590612710611111565b1090506104f1565b6006546007546108ed91906110f9565b6000546108fa9190611111565b6007546108d590612710611111565b60045481565b60065481565b60085481565b6001546001600160a01b0316331461093257600080fd5b61093a610a7e565b15610977576001600160a01b0380841660009081526005602052604080822054928516825290205460ff9182169116610974828285610d5f565b50505b505050565b610984610ed6565b156109b8576109b3600060405180604001604052806007815260200166195e1c1a5c995960ca1b815250610a9c565b6104fe565b6109c0610794565b156109f0576109b3600060405180604001604052806008815260200167191958db1a5b995960c21b815250610a9c565b6109f86103b7565b6104fe576104fe60006040518060400160405280600d81526020016c6c61636b206f662066756e647360981b815250610a9c565b6003546001600160a01b031681565b6002546001600160a01b03163314610a5257600080fd5b6104fe60006040518060400160405280600981526020016818d85b98d95b1b195960ba1b815250610a9c565b60085442111590565b60075481565b6001546001600160a01b031681565b600160009054906101000a90046001600160a01b03166001600160a01b03166332bc320b6040518163ffffffff1660e01b8152600401600060405180830381600087803b158015610aec57600080fd5b505af1158015610b00573d6000803e3d6000fd5b50506002546040516001600160a01b0390911692507fba01adb1638f647e6baa43cb5d8d3a05ed7e59ac18415bf4c64adba235c5b2b09150610b459085908590611004565b60405180910390a26002546001600160a01b0316ff5b600154600480546002546040516370a0823160e01b81526000946001600160a01b039081169485936370a0823193610b97939091169101610fa7565b60206040518083038186803b158015610baf57600080fd5b505afa158015610bc3573d6000803e3d6000fd5b505050506040513d601f19601f82011682018060405250810190610be79190610f8f565b826001600160a01b03166318160ddd6040518163ffffffff1660e01b815260040160206040518083038186803b158015610c2057600080fd5b505afa158015610c34573d6000803e3d6000fd5b505050506040513d601f19601f82011682018060405250810190610c589190610f8f565b610c629190611130565b610c6c9190611111565b91505090565b610c7a610a7e565b610c965760405162461bcd60e51b815260040161037990611061565b336000908152600560205260409020805460ff811691839160ff19166001836002811115610cd457634e487b7160e01b600052602160045260246000fd5b02179055506001546040516370a0823160e01b81526103ad91839185916001600160a01b0316906370a0823190610d0f903390600401610fa7565b60206040518083038186803b158015610d2757600080fd5b505afa158015610d3b573d6000803e3d6000fd5b505050506040513d601f19601f82011682018060405250810190610d5f9190610f8f565b816002811115610d7f57634e487b7160e01b600052602160045260246000fd5b836002811115610d9f57634e487b7160e01b600052602160045260246000fd5b14610977576002836002811115610dc657634e487b7160e01b600052602160045260246000fd5b1415610de25780600654610dda9190611130565b600655610e1c565b6001836002811115610e0457634e487b7160e01b600052602160045260246000fd5b1415610e1c5780600754610e189190611130565b6007555b6002826002811115610e3e57634e487b7160e01b600052602160045260246000fd5b1415610e5a5780600654610e5291906110f9565b600655610e94565b6001826002811115610e7c57634e487b7160e01b600052602160045260246000fd5b1415610e945780600754610e9091906110f9565b6007555b7f8fcc50c2c4edd06d51ae66e9e21ed76b32a1766c57f491788e1aa24a1b58c256600754600654604051610ec99291906110eb565b60405180910390a1505050565b60006008546203f480610ee991906110f9565b4211905090565b600060208284031215610f01578081fd5b8135610f0c8161115d565b9392505050565b600060208284031215610f24578081fd5b8151610f0c8161115d565b600080600060608486031215610f43578182fd5b8335610f4e8161115d565b92506020840135610f5e8161115d565b929592945050506040919091013590565b600060208284031215610f80578081fd5b81518015158114610f0c578182fd5b600060208284031215610fa0578081fd5b5051919050565b6001600160a01b0391909116815260200190565b6001600160a01b0392831681529116602082015260400190565b6001600160a01b039384168152919092166020820152604081019190915260600190565b901515815260200190565b6000831515825260206040818401528351806040850152825b818110156110395785810183015185820160600152820161101d565b8181111561104a5783606083870101525b50601f01601f191692909201606001949350505050565b6020808252600a90820152691d9bdd1948195b99195960b21b604082015260600190565b6020808252600c908201526b1b9bdd081858d8d95c1d195960a21b604082015260600190565b60208082526018908201527f4e6577206f66666572206d757374206265206265747465720000000000000000604082015260600190565b90815260200190565b918252602082015260400190565b6000821982111561110c5761110c611147565b500190565b600081600019048311821515161561112b5761112b611147565b500290565b60008282101561114257611142611147565b500390565b634e487b7160e01b600052601160045260246000fd5b6001600160a01b038116811461076f57600080fdfea2646970667358221220e4d23ba1918e868c44a478e8527220e3b7aad4c05d6bc8835777514d8b7f66e164736f6c63430008010033",
    "sourcePath": "c:/Users/luziu/Documents/aktionariat/contracts/src/Offer.sol",
    "compiler": {
        "name": "solc",
        "version": "0.8.1+commit.df193b15"
    },
    "functionHashes": {
        "buyer()": "7150d8ae",
        "cancel()": "ea8a1af0",
        "contest()": "e3ac83da",
        "contest(address)": "06a169ed",
        "currency()": "e5a6b10f",
        "execute()": "61461954",
        "hasVotedNo(address)": "8f1b4c6f",
        "hasVotedYes(address)": "448ab4c6",
        "isAccepted()": "5051a5ec",
        "isDeclined()": "9b4e88aa",
        "isVotingOpen()": "fa7f1bae",
        "isWellFunded()": "3f5e3e7f",
        "noVotes()": "b5b47f42",
        "notifyMoved(address,address,uint256)": "e1a1810f",
        "price()": "a035b1fe",
        "quorum()": "1703a018",
        "token()": "fc0c546a",
        "voteEnd()": "ddbe8f09",
        "voteNo()": "41c12a70",
        "voteYes()": "90cf581c",
        "yesVotes()": "fb286c65"
    },
    "gasEstimates": {
        "creation": {
            "codeDepositCost": "904000",
            "executionCost": "infinite",
            "totalCost": "infinite"
        },
        "external": {
            "buyer()": "1137",
            "cancel()": "infinite",
            "contest()": "infinite",
            "contest(address)": "infinite",
            "currency()": "1114",
            "execute()": "infinite",
            "hasVotedNo(address)": "1422",
            "hasVotedYes(address)": "1434",
            "isAccepted()": "infinite",
            "isDeclined()": "infinite",
            "isVotingOpen()": "1130",
            "isWellFunded()": "infinite",
            "noVotes()": "1095",
            "notifyMoved(address,address,uint256)": "infinite",
            "price()": "1073",
            "quorum()": "1074",
            "token()": "1202",
            "voteEnd()": "1117",
            "voteNo()": "infinite",
            "voteYes()": "infinite",
            "yesVotes()": "1138"
        },
        "internal": {
            "getTotalPrice()": "infinite",
            "hasExpired()": "913",
            "kill(bool,string memory)": "infinite",
            "update(enum Offer.Vote,enum Offer.Vote,uint256)": "infinite",
            "vote(enum Offer.Vote)": "infinite"
        }
    }
}