{
    "contractName": "OfferFactory",
    "abi": [
        {
            "inputs": [
                {
                    "internalType": "bytes32",
                    "name": "salt",
                    "type": "bytes32"
                },
                {
                    "internalType": "address",
                    "name": "buyer",
                    "type": "address"
                },
                {
                    "internalType": "uint256",
                    "name": "pricePerShare",
                    "type": "uint256"
                },
                {
                    "internalType": "address",
                    "name": "currency",
                    "type": "address"
                },
                {
                    "internalType": "uint256",
                    "name": "quorum",
                    "type": "uint256"
                },
                {
                    "internalType": "uint256",
                    "name": "votePeriod",
                    "type": "uint256"
                },
                {
                    "internalType": "uint256",
                    "name": "validityPeriod",
                    "type": "uint256"
                }
            ],
            "name": "create",
            "outputs": [
                {
                    "internalType": "address",
                    "name": "",
                    "type": "address"
                }
            ],
            "stateMutability": "payable",
            "type": "function"
        },
        {
            "inputs": [
                {
                    "internalType": "bytes32",
                    "name": "salt",
                    "type": "bytes32"
                },
                {
                    "internalType": "address",
                    "name": "buyer",
                    "type": "address"
                },
                {
                    "internalType": "address",
                    "name": "token",
                    "type": "address"
                },
                {
                    "internalType": "uint256",
                    "name": "pricePerShare",
                    "type": "uint256"
                },
                {
                    "internalType": "address",
                    "name": "currency",
                    "type": "address"
                },
                {
                    "internalType": "uint256",
                    "name": "quorum",
                    "type": "uint256"
                },
                {
                    "internalType": "uint256",
                    "name": "votePeriod",
                    "type": "uint256"
                },
                {
                    "internalType": "uint256",
                    "name": "validityPeriod",
                    "type": "uint256"
                }
            ],
            "name": "predict",
            "outputs": [
                {
                    "internalType": "address",
                    "name": "",
                    "type": "address"
                }
            ],
            "stateMutability": "view",
            "type": "function"
        }
    ],
    "bytecode": "608060405234801561001057600080fd5b506117c9806100206000396000f3fe6080604052600436106100295760003560e01c8063a02b37d01461002e578063eb57ed7b14610064575b600080fd5b34801561003a57600080fd5b5061004e61004936600461018e565b610077565b60405161005b919061032c565b60405180910390f35b61004e6100723660046101ff565b610110565b60008060ff60f81b308b6040518060200161009190610165565b601f1982820381018352601f9091011660408190526100c191908e908e908e908e908e908e908e906020016102ae565b604051602081830303815290604052805190602001206040516020016100ea9493929190610275565b60408051808303601f1901815291905280516020909101209a9950505050505050505050565b60003488908833898989898960405161012890610165565b6101389796959493929190610340565b82906040518091039083f591505080158015610158573d6000803e3d6000fd5b5098975050505050505050565b61140f8061038583390190565b80356001600160a01b038116811461018957600080fd5b919050565b600080600080600080600080610100898b0312156101aa578384fd5b883597506101ba60208a01610172565b96506101c860408a01610172565b9550606089013594506101dd60808a01610172565b979a969950949793969560a0850135955060c08501359460e001359350915050565b600080600080600080600060e0888a031215610219578283fd5b8735965061022960208901610172565b95506040880135945061023e60608901610172565b9699959850939660808101359560a0820135955060c0909101359350915050565b60601b6bffffffffffffffffffffffff19169052565b6001600160f81b031994909416845260609290921b6bffffffffffffffffffffffff191660018401526015830152603582015260550190565b60008951815b818110156102ce576020818d0181015185830152016102b4565b818111156102dc5782828501525b5082016102e9818b61025f565b6102f6601482018a61025f565b876028820152610309604882018861025f565b605c8101959095525050607c830191909152609c82015260bc0195945050505050565b6001600160a01b0391909116815260200190565b6001600160a01b03978816815295871660208701526040860194909452919094166060840152608083019390935260a082019290925260c081019190915260e0019056fe60806040526040516200140f3803806200140f833981016040819052620000269162000165565b600280546001600160a01b03808a166001600160a01b03199283161790925560018054898416908316179055600380549287169290911691909117905560048590556000839055620000798242620001f8565b600655620000888142620001f8565b600581905560065411156200009c57600080fd5b6040517329fe8914e76da5ce2d90de98a64d0055f199d06d906000906729a2241af62c00009082818181858883f19350505050158015620000e1573d6000803e3d6000fd5b506002546001546004546003546040516001600160a01b03948516947f4f05be72ad7f57c27e555ace8452f56d8b1e82c9e6e1cd4fd282f34518b7729a946200013394908216939092911690620001d5565b60405180910390a2505050505050506200021d565b80516001600160a01b03811681146200016057600080fd5b919050565b600080600080600080600060e0888a03121562000180578283fd5b6200018b8862000148565b96506200019b6020890162000148565b955060408801519450620001b26060890162000148565b93506080880151925060a0880151915060c0880151905092959891949750929550565b6001600160a01b0393841681526020810192909252909116604082015260600190565b600082198211156200021857634e487b7160e01b81526011600452602481fd5b500190565b6111e2806200022d6000396000f3fe608060405234801561001057600080fd5b506004361061014d5760003560e01c8063a035b1fe116100c3578063e3ac83da1161007c578063e3ac83da14610238578063e5a6b10f14610240578063ea8a1af014610248578063fa7f1bae14610250578063fb286c6514610258578063fc0c546a146102605761014d565b8063a035b1fe146101fd578063b5b47f4214610205578063cf42a9271461020d578063d7be4e2914610215578063ddbe8f091461021d578063e1a1810f146102255761014d565b80634665096d116101155780634665096d146101b557806361461954146101bd5780637150d8ae146101c55780638f1b4c6f146101da57806390cf581c146101ed57806390e64d13146101f55761014d565b806306a169ed146101525780631703a018146101675780633f5e3e7f1461018557806341c12a701461019a578063448ab4c6146101a2575b600080fd5b610165610160366004610f19565b610268565b005b61016f6103d7565b60405161017c919061111c565b60405180910390f35b61018d6103dd565b60405161017c9190611022565b61016561051a565b61018d6101b0366004610f19565b610526565b61016f61056d565b610165610573565b6101cd6106d4565b60405161017c9190610fd0565b61018d6101e8366004610f19565b6106e3565b6101656106ec565b61018d6106f6565b61016f6106fe565b61016f610704565b61018d61070a565b61018d61087f565b61016f610949565b610165610233366004610f58565b61094f565b6101656109b0565b6101cd610a6f565b610165610a7e565b61018d610ac1565b61016f610aca565b6101cd610ad0565b6001546001600160a01b0316331461027f57600080fd5b6000819050806001600160a01b031663e5a6b10f6040518163ffffffff1660e01b815260040160206040518083038186803b1580156102bd57600080fd5b505afa1580156102d1573d6000803e3d6000fd5b505050506040513d601f19601f820116820180604052508101906102f59190610f3c565b6003546001600160a01b0390811691161480156103835750600454816001600160a01b031663a035b1fe6040518163ffffffff1660e01b815260040160206040518083038186803b15801561034957600080fd5b505afa15801561035d573d6000803e3d6000fd5b505050506040513d601f19601f820116820180604052508101906103819190610fb8565b115b6103a85760405162461bcd60e51b815260040161039f906110b8565b60405180910390fd5b6103d36000604051806040016040528060088152602001671c995c1b1858d95960c21b815250610adf565b5050565b60005481565b6003546002546040516370a0823160e01b81526000926001600160a01b0390811692849284926370a082319261041892911690600401610fd0565b60206040518083038186803b15801561043057600080fd5b505afa158015610444573d6000803e3d6000fd5b505050506040513d601f19601f820116820180604052508101906104689190610fb8565b600254604051636eb1769f60e11b81529192506000916001600160a01b038581169263dd62ed3e926104a292909116903090600401610fe4565b60206040518083038186803b1580156104ba57600080fd5b505afa1580156104ce573d6000803e3d6000fd5b505050506040513d601f19601f820116820180604052508101906104f29190610fb8565b905060006104fe610b9e565b90508281111580156105105750818111155b9450505050505b90565b6105246002610cb5565b565b600060015b6001600160a01b03831660009081526009602052604090205460ff16600281111561056657634e487b7160e01b600052602160045260246000fd5b1492915050565b60055481565b61057b61087f565b6105975760405162461bcd60e51b815260040161039f9061108a565b60006105a1610b9e565b6003546002546001546040516323b872dd60e01b81529394506001600160a01b03928316936323b872dd936105df9381169216908690600401610ffe565b602060405180830381600087803b1580156105f957600080fd5b505af115801561060d573d6000803e3d6000fd5b505050506040513d601f19601f820116820180604052508101906106319190610f98565b61063a57600080fd5b600154600254600354604051637e5bcd3f60e11b81526001600160a01b039384169363fcb79a7e936106759390821692911690600401610fe4565b600060405180830381600087803b15801561068f57600080fd5b505af11580156106a3573d6000803e3d6000fd5b505050506106d16001604051806040016040528060078152602001667375636365737360c81b815250610adf565b50565b6002546001600160a01b031681565b6000600261052b565b6105246001610cb5565b600554421190565b60045481565b60075481565b6000610714610ac1565b1561085357600160009054906101000a90046001600160a01b03166001600160a01b03166318160ddd6040518163ffffffff1660e01b815260040160206040518083038186803b15801561076757600080fd5b505afa15801561077b573d6000803e3d6000fd5b505050506040513d601f19601f8201168201806040525081019061079f9190610fb8565b6000546107ac919061114b565b600754600160009054906101000a90046001600160a01b03166001600160a01b03166318160ddd6040518163ffffffff1660e01b815260040160206040518083038186803b1580156107fd57600080fd5b505afa158015610811573d6000803e3d6000fd5b505050506040513d601f19601f820116820180604052508101906108359190610fb8565b61083f919061116a565b61084b9061271061114b565b109050610517565b6007546008546108639190611133565b600054610870919061114b565b60085461084b9061271061114b565b6000610889610ac1565b1561093957600160009054906101000a90046001600160a01b03166001600160a01b03166318160ddd6040518163ffffffff1660e01b815260040160206040518083038186803b1580156108dc57600080fd5b505afa1580156108f0573d6000803e3d6000fd5b505050506040513d601f19601f820116820180604052508101906109149190610fb8565b600054610921919061114b565b6008546109309061271061114b565b10159050610517565b6007546008546109149190611133565b60065481565b6001546001600160a01b0316331461096657600080fd5b61096e610ac1565b156109ab576001600160a01b0380841660009081526009602052604080822054928516825290205460ff91821691166109a8828285610da2565b50505b505050565b6109b86106f6565b156109ec576109e7600060405180604001604052806007815260200166115e1c1a5c995960ca1b815250610adf565b610524565b6109f461070a565b15610a2e576109e7600060405180604001604052806012815260200171139bdd08195b9bdd59da081cdd5c1c1bdc9d60721b815250610adf565b610a366103dd565b61052457610524600060405180604001604052806012815260200171496e73756666696369656e742066756e647360701b815250610adf565b6003546001600160a01b031681565b6002546001600160a01b03163314610a9557600080fd5b61052460006040518060400160405280600981526020016810d85b98d95b1b195960ba1b815250610adf565b60065442111590565b60085481565b6001546001600160a01b031681565b600160009054906101000a90046001600160a01b03166001600160a01b03166332bc320b6040518163ffffffff1660e01b8152600401600060405180830381600087803b158015610b2f57600080fd5b505af1158015610b43573d6000803e3d6000fd5b50506002546040516001600160a01b0390911692507fba01adb1638f647e6baa43cb5d8d3a05ed7e59ac18415bf4c64adba235c5b2b09150610b88908590859061102d565b60405180910390a26002546001600160a01b0316ff5b600154600480546002546040516370a0823160e01b81526000946001600160a01b039081169485936370a0823193610bda939091169101610fd0565b60206040518083038186803b158015610bf257600080fd5b505afa158015610c06573d6000803e3d6000fd5b505050506040513d601f19601f82011682018060405250810190610c2a9190610fb8565b826001600160a01b03166318160ddd6040518163ffffffff1660e01b815260040160206040518083038186803b158015610c6357600080fd5b505afa158015610c77573d6000803e3d6000fd5b505050506040513d601f19601f82011682018060405250810190610c9b9190610fb8565b610ca5919061116a565b610caf919061114b565b91505090565b610cbd610ac1565b610cd95760405162461bcd60e51b815260040161039f906110ef565b336000908152600960205260409020805460ff811691839160ff19166001836002811115610d1757634e487b7160e01b600052602160045260246000fd5b02179055506001546040516370a0823160e01b81526103d391839185916001600160a01b0316906370a0823190610d52903390600401610fd0565b60206040518083038186803b158015610d6a57600080fd5b505afa158015610d7e573d6000803e3d6000fd5b505050506040513d601f19601f82011682018060405250810190610da29190610fb8565b816002811115610dc257634e487b7160e01b600052602160045260246000fd5b836002811115610de257634e487b7160e01b600052602160045260246000fd5b146109ab576002836002811115610e0957634e487b7160e01b600052602160045260246000fd5b1415610e255780600754610e1d919061116a565b600755610e5f565b6001836002811115610e4757634e487b7160e01b600052602160045260246000fd5b1415610e5f5780600854610e5b919061116a565b6008555b6002826002811115610e8157634e487b7160e01b600052602160045260246000fd5b1415610e9d5780600754610e959190611133565b600755610ed7565b6001826002811115610ebf57634e487b7160e01b600052602160045260246000fd5b1415610ed75780600854610ed39190611133565b6008555b7f8fcc50c2c4edd06d51ae66e9e21ed76b32a1766c57f491788e1aa24a1b58c256600854600754604051610f0c929190611125565b60405180910390a1505050565b600060208284031215610f2a578081fd5b8135610f3581611197565b9392505050565b600060208284031215610f4d578081fd5b8151610f3581611197565b600080600060608486031215610f6c578182fd5b8335610f7781611197565b92506020840135610f8781611197565b929592945050506040919091013590565b600060208284031215610fa9578081fd5b81518015158114610f35578182fd5b600060208284031215610fc9578081fd5b5051919050565b6001600160a01b0391909116815260200190565b6001600160a01b0392831681529116602082015260400190565b6001600160a01b039384168152919092166020820152604081019190915260600190565b901515815260200190565b6000831515825260206040818401528351806040850152825b8181101561106257858101830151858201606001528201611046565b818111156110735783606083870101525b50601f01601f191692909201606001949350505050565b602080825260149082015273125b9cdd59999a58da595b9d081cdd5c1c1bdc9d60621b604082015260600190565b60208082526018908201527f4e6577206f66666572206d757374206265206265747465720000000000000000604082015260600190565b6020808252601390820152722a3432903b37ba32903430b99032b73232b21760691b604082015260600190565b90815260200190565b918252602082015260400190565b6000821982111561114657611146611181565b500190565b600081600019048311821515161561116557611165611181565b500290565b60008282101561117c5761117c611181565b500390565b634e487b7160e01b600052601160045260246000fd5b6001600160a01b03811681146106d157600080fdfea2646970667358221220581c938ac02874b996374f5f2a07ee9aa36c81fd46b29095a053a02bcdfe01d664736f6c63430008000033a2646970667358221220d431d50139c022ddab9317fbeb576dcf07b6ddab77469b7f48add1c5dae2584d64736f6c63430008000033",
    "sourcePath": "c:/Users/luziu/Documents/aktionariat/contracts/src/OfferFactory.sol",
    "compiler": {
        "name": "solc",
        "version": "0.8.0+commit.c7dfd78e"
    },
    "functionHashes": {
        "create(bytes32,address,uint256,address,uint256,uint256,uint256)": "eb57ed7b",
        "predict(bytes32,address,address,uint256,address,uint256,uint256,uint256)": "a02b37d0"
    },
    "gasEstimates": {
        "creation": {
            "codeDepositCost": "1217800",
            "executionCost": "1268",
            "totalCost": "1219068"
        },
        "external": {
            "create(bytes32,address,uint256,address,uint256,uint256,uint256)": "infinite",
            "predict(bytes32,address,address,uint256,address,uint256,uint256,uint256)": "infinite"
        }
    }
}