{
    "contractName": "OfferFactory",
    "abi": [
        {
            "inputs": [
                {
                    "internalType": "bytes32",
                    "name": "salt",
                    "type": "bytes32"
                },
                {
                    "internalType": "address",
                    "name": "buyer",
                    "type": "address"
                },
                {
                    "internalType": "uint256",
                    "name": "pricePerShare",
                    "type": "uint256"
                },
                {
                    "internalType": "address",
                    "name": "currency",
                    "type": "address"
                },
                {
                    "internalType": "uint256",
                    "name": "quorum",
                    "type": "uint256"
                },
                {
                    "internalType": "uint256",
                    "name": "votePeriod",
                    "type": "uint256"
                }
            ],
            "name": "create",
            "outputs": [
                {
                    "internalType": "address",
                    "name": "",
                    "type": "address"
                }
            ],
            "stateMutability": "payable",
            "type": "function"
        },
        {
            "inputs": [
                {
                    "internalType": "bytes32",
                    "name": "salt",
                    "type": "bytes32"
                },
                {
                    "internalType": "address",
                    "name": "buyer",
                    "type": "address"
                },
                {
                    "internalType": "address",
                    "name": "token",
                    "type": "address"
                },
                {
                    "internalType": "uint256",
                    "name": "pricePerShare",
                    "type": "uint256"
                },
                {
                    "internalType": "address",
                    "name": "currency",
                    "type": "address"
                },
                {
                    "internalType": "uint256",
                    "name": "quorum",
                    "type": "uint256"
                },
                {
                    "internalType": "uint256",
                    "name": "votePeriod",
                    "type": "uint256"
                }
            ],
            "name": "predict",
            "outputs": [
                {
                    "internalType": "address",
                    "name": "",
                    "type": "address"
                }
            ],
            "stateMutability": "view",
            "type": "function"
        }
    ],
    "bytecode": "608060405234801561001057600080fd5b5061174c806100206000396000f3fe6080604052600436106100295760003560e01c80634dc5e4311461002e578063a801043014610057575b600080fd5b61004161003c366004610219565b610077565b60405161004e91906102ff565b60405180910390f35b34801561006357600080fd5b506100416100723660046101b0565b6100cb565b60008034889088338989898960405161008f90610187565b61009e96959493929190610313565b82906040518091039083f5915050801580156100be573d6000803e3d6000fd5b5098975050505050505050565b600080604051806020016100de90610187565b601f1982820381018352601f90910116604081905261010b908a908a908a908a908a908a90602001610313565b60408051601f198184030181529082905261012992916020016102e2565b60408051601f198184030181529082905280516020918201209250600091610161916001600160f81b03199130918e918791016102a9565b60408051808303601f1901815291905280516020909101209a9950505050505050505050565b6113c98061034e83390190565b80356001600160a01b03811681146101ab57600080fd5b919050565b600080600080600080600060e0888a0312156101ca578283fd5b873596506101da60208901610194565b95506101e860408901610194565b9450606088013593506101fd60808901610194565b925060a0880135915060c0880135905092959891949750929550565b60008060008060008060c08789031215610231578182fd5b8635955061024160208801610194565b94506040870135935061025660608801610194565b92506080870135915060a087013590509295509295509295565b60008151815b818110156102905760208185018101518683015201610276565b8181111561029e5782828601525b509290920192915050565b6001600160f81b031994909416845260609290921b6bffffffffffffffffffffffff191660018401526015830152603582015260550190565b60006102f76102f18386610270565b84610270565b949350505050565b6001600160a01b0391909116815260200190565b6001600160a01b0396871681529486166020860152604085019390935293166060830152608082019290925260a081019190915260c0019056fe6080604052604051620013c9380380620013c9833981016040819052620000269162000144565b600280546001600160a01b038089166001600160a01b03199283161790925560018054888416908316179055600380549286169290911691909117905560048490556000829055620000798142620001cc565b6008556040517329fe8914e76da5ce2d90de98a64d0055f199d06d906000906729a2241af62c00009082818181858883f19350505050158015620000c1573d6000803e3d6000fd5b506002546001546004546003546040516001600160a01b03948516947f4f05be72ad7f57c27e555ace8452f56d8b1e82c9e6e1cd4fd282f34518b7729a946200011394908216939092911690620001a9565b60405180910390a2505050505050620001f1565b80516001600160a01b03811681146200013f57600080fd5b919050565b60008060008060008060c087890312156200015d578182fd5b620001688762000127565b9550620001786020880162000127565b9450604087015193506200018f6060880162000127565b92506080870151915060a087015190509295509295509295565b6001600160a01b0393841681526020810192909252909116604082015260600190565b60008219821115620001ec57634e487b7160e01b81526011600452602481fd5b500190565b6111c880620002016000396000f3fe608060405234801561001057600080fd5b50600436106101375760003560e01c8063b5b47f42116100b8578063e3ac83da1161007c578063e3ac83da14610212578063e5a6b10f1461021a578063ea8a1af014610222578063fa7f1bae1461022a578063fb286c6514610232578063fc0c546a1461023a57610137565b8063b5b47f42146101df578063cf42a927146101e7578063d7be4e29146101ef578063ddbe8f09146101f7578063e1a1810f146101ff57610137565b806361461954116100ff578063614619541461019f5780637150d8ae146101a75780638f1b4c6f146101bc57806390cf581c146101cf578063a035b1fe146101d757610137565b806306a169ed1461013c5780631703a018146101515780633f5e3e7f1461016f57806341c12a7014610184578063448ab4c61461018c575b600080fd5b61014f61014a366004610eff565b610242565b005b6101596103b1565b6040516101669190611102565b60405180910390f35b6101776103b7565b6040516101669190611008565b61014f6104f4565b61017761019a366004610eff565b610500565b61014f610547565b6101af6106a8565b6040516101669190610fb6565b6101776101ca366004610eff565b6106b7565b61014f6106c0565b6101596106ca565b6101596106d0565b6101776106d6565b61017761084b565b610159610915565b61014f61020d366004610f3e565b61091b565b61014f61097c565b6101af610a3b565b61014f610a4a565b610177610a8d565b610159610a96565b6101af610a9c565b6001546001600160a01b0316331461025957600080fd5b6000819050806001600160a01b031663e5a6b10f6040518163ffffffff1660e01b815260040160206040518083038186803b15801561029757600080fd5b505afa1580156102ab573d6000803e3d6000fd5b505050506040513d601f19601f820116820180604052508101906102cf9190610f22565b6003546001600160a01b03908116911614801561035d5750600454816001600160a01b031663a035b1fe6040518163ffffffff1660e01b815260040160206040518083038186803b15801561032357600080fd5b505afa158015610337573d6000803e3d6000fd5b505050506040513d601f19601f8201168201806040525081019061035b9190610f9e565b115b6103825760405162461bcd60e51b81526004016103799061109e565b60405180910390fd5b6103ad6000604051806040016040528060088152602001671c995c1b1858d95960c21b815250610aab565b5050565b60005481565b6003546002546040516370a0823160e01b81526000926001600160a01b0390811692849284926370a08231926103f292911690600401610fb6565b60206040518083038186803b15801561040a57600080fd5b505afa15801561041e573d6000803e3d6000fd5b505050506040513d601f19601f820116820180604052508101906104429190610f9e565b600254604051636eb1769f60e11b81529192506000916001600160a01b038581169263dd62ed3e9261047c92909116903090600401610fca565b60206040518083038186803b15801561049457600080fd5b505afa1580156104a8573d6000803e3d6000fd5b505050506040513d601f19601f820116820180604052508101906104cc9190610f9e565b905060006104d8610b6a565b90508281111580156104ea5750818111155b9450505050505b90565b6104fe6002610c81565b565b600060015b6001600160a01b03831660009081526005602052604090205460ff16600281111561054057634e487b7160e01b600052602160045260246000fd5b1492915050565b61054f61084b565b61056b5760405162461bcd60e51b815260040161037990611070565b6000610575610b6a565b6003546002546001546040516323b872dd60e01b81529394506001600160a01b03928316936323b872dd936105b39381169216908690600401610fe4565b602060405180830381600087803b1580156105cd57600080fd5b505af11580156105e1573d6000803e3d6000fd5b505050506040513d601f19601f820116820180604052508101906106059190610f7e565b61060e57600080fd5b600154600254600354604051637e5bcd3f60e11b81526001600160a01b039384169363fcb79a7e936106499390821692911690600401610fca565b600060405180830381600087803b15801561066357600080fd5b505af1158015610677573d6000803e3d6000fd5b505050506106a56001604051806040016040528060078152602001667375636365737360c81b815250610aab565b50565b6002546001600160a01b031681565b60006002610505565b6104fe6001610c81565b60045481565b60065481565b60006106e0610a8d565b1561081f57600160009054906101000a90046001600160a01b03166001600160a01b03166318160ddd6040518163ffffffff1660e01b815260040160206040518083038186803b15801561073357600080fd5b505afa158015610747573d6000803e3d6000fd5b505050506040513d601f19601f8201168201806040525081019061076b9190610f9e565b6000546107789190611131565b600654600160009054906101000a90046001600160a01b03166001600160a01b03166318160ddd6040518163ffffffff1660e01b815260040160206040518083038186803b1580156107c957600080fd5b505afa1580156107dd573d6000803e3d6000fd5b505050506040513d601f19601f820116820180604052508101906108019190610f9e565b61080b9190611150565b61081790612710611131565b1090506104f1565b60065460075461082f9190611119565b60005461083c9190611131565b60075461081790612710611131565b6000610855610a8d565b1561090557600160009054906101000a90046001600160a01b03166001600160a01b03166318160ddd6040518163ffffffff1660e01b815260040160206040518083038186803b1580156108a857600080fd5b505afa1580156108bc573d6000803e3d6000fd5b505050506040513d601f19601f820116820180604052508101906108e09190610f9e565b6000546108ed9190611131565b6007546108fc90612710611131565b101590506104f1565b6006546007546108e09190611119565b60085481565b6001546001600160a01b0316331461093257600080fd5b61093a610a8d565b15610977576001600160a01b0380841660009081526005602052604080822054928516825290205460ff9182169116610974828285610d6e565b50505b505050565b610984610ee5565b156109b8576109b3600060405180604001604052806007815260200166115e1c1a5c995960ca1b815250610aab565b6104fe565b6109c06106d6565b156109fa576109b3600060405180604001604052806012815260200171139bdd08195b9bdd59da081cdd5c1c1bdc9d60721b815250610aab565b610a026103b7565b6104fe576104fe600060405180604001604052806012815260200171496e73756666696369656e742066756e647360701b815250610aab565b6003546001600160a01b031681565b6002546001600160a01b03163314610a6157600080fd5b6104fe60006040518060400160405280600981526020016810d85b98d95b1b195960ba1b815250610aab565b60085442111590565b60075481565b6001546001600160a01b031681565b600160009054906101000a90046001600160a01b03166001600160a01b03166332bc320b6040518163ffffffff1660e01b8152600401600060405180830381600087803b158015610afb57600080fd5b505af1158015610b0f573d6000803e3d6000fd5b50506002546040516001600160a01b0390911692507fba01adb1638f647e6baa43cb5d8d3a05ed7e59ac18415bf4c64adba235c5b2b09150610b549085908590611013565b60405180910390a26002546001600160a01b0316ff5b600154600480546002546040516370a0823160e01b81526000946001600160a01b039081169485936370a0823193610ba6939091169101610fb6565b60206040518083038186803b158015610bbe57600080fd5b505afa158015610bd2573d6000803e3d6000fd5b505050506040513d601f19601f82011682018060405250810190610bf69190610f9e565b826001600160a01b03166318160ddd6040518163ffffffff1660e01b815260040160206040518083038186803b158015610c2f57600080fd5b505afa158015610c43573d6000803e3d6000fd5b505050506040513d601f19601f82011682018060405250810190610c679190610f9e565b610c719190611150565b610c7b9190611131565b91505090565b610c89610a8d565b610ca55760405162461bcd60e51b8152600401610379906110d5565b336000908152600560205260409020805460ff811691839160ff19166001836002811115610ce357634e487b7160e01b600052602160045260246000fd5b02179055506001546040516370a0823160e01b81526103ad91839185916001600160a01b0316906370a0823190610d1e903390600401610fb6565b60206040518083038186803b158015610d3657600080fd5b505afa158015610d4a573d6000803e3d6000fd5b505050506040513d601f19601f82011682018060405250810190610d6e9190610f9e565b816002811115610d8e57634e487b7160e01b600052602160045260246000fd5b836002811115610dae57634e487b7160e01b600052602160045260246000fd5b14610977576002836002811115610dd557634e487b7160e01b600052602160045260246000fd5b1415610df15780600654610de99190611150565b600655610e2b565b6001836002811115610e1357634e487b7160e01b600052602160045260246000fd5b1415610e2b5780600754610e279190611150565b6007555b6002826002811115610e4d57634e487b7160e01b600052602160045260246000fd5b1415610e695780600654610e619190611119565b600655610ea3565b6001826002811115610e8b57634e487b7160e01b600052602160045260246000fd5b1415610ea35780600754610e9f9190611119565b6007555b7f8fcc50c2c4edd06d51ae66e9e21ed76b32a1766c57f491788e1aa24a1b58c256600754600654604051610ed892919061110b565b60405180910390a1505050565b60006008546203f480610ef89190611119565b4211905090565b600060208284031215610f10578081fd5b8135610f1b8161117d565b9392505050565b600060208284031215610f33578081fd5b8151610f1b8161117d565b600080600060608486031215610f52578182fd5b8335610f5d8161117d565b92506020840135610f6d8161117d565b929592945050506040919091013590565b600060208284031215610f8f578081fd5b81518015158114610f1b578182fd5b600060208284031215610faf578081fd5b5051919050565b6001600160a01b0391909116815260200190565b6001600160a01b0392831681529116602082015260400190565b6001600160a01b039384168152919092166020820152604081019190915260600190565b901515815260200190565b6000831515825260206040818401528351806040850152825b818110156110485785810183015185820160600152820161102c565b818111156110595783606083870101525b50601f01601f191692909201606001949350505050565b602080825260149082015273125b9cdd59999a58da595b9d081cdd5c1c1bdc9d60621b604082015260600190565b60208082526018908201527f4e6577206f66666572206d757374206265206265747465720000000000000000604082015260600190565b6020808252601390820152722a3432903b37ba32903430b99032b73232b21760691b604082015260600190565b90815260200190565b918252602082015260400190565b6000821982111561112c5761112c611167565b500190565b600081600019048311821515161561114b5761114b611167565b500290565b60008282101561116257611162611167565b500390565b634e487b7160e01b600052601160045260246000fd5b6001600160a01b03811681146106a557600080fdfea264697066735822122095dd4a12125bd52d3572f0b3ea0a4a2b55b3c3ac328b099b9c921c0405be02e464736f6c63430008000033a26469706673582212202977729ac253505b6fa4e9869b29e9d8a2c4165c6961d1463fef94840bbcc9be64736f6c63430008000033",
    "sourcePath": "c:/Users/luziu/Documents/aktionariat/contracts/src/OfferFactory.sol",
    "compiler": {
        "name": "solc",
        "version": "0.8.0+commit.c7dfd78e"
    },
    "functionHashes": {
        "create(bytes32,address,uint256,address,uint256,uint256)": "4dc5e431",
        "predict(bytes32,address,address,uint256,address,uint256,uint256)": "a8010430"
    },
    "gasEstimates": {
        "creation": {
            "codeDepositCost": "1192800",
            "executionCost": "1241",
            "totalCost": "1194041"
        },
        "external": {
            "create(bytes32,address,uint256,address,uint256,uint256)": "infinite",
            "predict(bytes32,address,address,uint256,address,uint256,uint256)": "infinite"
        }
    }
}