{
    "contractName": "Offer",
    "abi": [
        {
            "inputs": [
                {
                    "internalType": "address",
                    "name": "buyer_",
                    "type": "address"
                }
            ],
            "stateMutability": "payable",
            "type": "constructor"
        },
        {
            "anonymous": false,
            "inputs": [
                {
                    "indexed": true,
                    "internalType": "address",
                    "name": "buyer",
                    "type": "address"
                },
                {
                    "indexed": false,
                    "internalType": "address",
                    "name": "token",
                    "type": "address"
                },
                {
                    "indexed": false,
                    "internalType": "uint256",
                    "name": "pricePerShare",
                    "type": "uint256"
                },
                {
                    "indexed": false,
                    "internalType": "address",
                    "name": "currency",
                    "type": "address"
                }
            ],
            "name": "OfferCreated",
            "type": "event"
        },
        {
            "anonymous": false,
            "inputs": [
                {
                    "indexed": true,
                    "internalType": "address",
                    "name": "buyer",
                    "type": "address"
                },
                {
                    "indexed": false,
                    "internalType": "bool",
                    "name": "success",
                    "type": "bool"
                },
                {
                    "indexed": false,
                    "internalType": "string",
                    "name": "message",
                    "type": "string"
                }
            ],
            "name": "OfferEnded",
            "type": "event"
        },
        {
            "anonymous": false,
            "inputs": [
                {
                    "indexed": false,
                    "internalType": "uint256",
                    "name": "newYesVotes",
                    "type": "uint256"
                },
                {
                    "indexed": false,
                    "internalType": "uint256",
                    "name": "newNoVotes",
                    "type": "uint256"
                }
            ],
            "name": "VotesChanged",
            "type": "event"
        },
        {
            "inputs": [],
            "name": "buyer",
            "outputs": [
                {
                    "internalType": "address",
                    "name": "",
                    "type": "address"
                }
            ],
            "stateMutability": "view",
            "type": "function"
        },
        {
            "inputs": [],
            "name": "cancel",
            "outputs": [],
            "stateMutability": "nonpayable",
            "type": "function"
        },
        {
            "inputs": [
                {
                    "internalType": "address",
                    "name": "betterOffer",
                    "type": "address"
                }
            ],
            "name": "contest",
            "outputs": [],
            "stateMutability": "nonpayable",
            "type": "function"
        },
        {
            "inputs": [],
            "name": "contest",
            "outputs": [],
            "stateMutability": "nonpayable",
            "type": "function"
        },
        {
            "inputs": [],
            "name": "currency",
            "outputs": [
                {
                    "internalType": "address",
                    "name": "",
                    "type": "address"
                }
            ],
            "stateMutability": "view",
            "type": "function"
        },
        {
            "inputs": [],
            "name": "execute",
            "outputs": [],
            "stateMutability": "nonpayable",
            "type": "function"
        },
        {
            "inputs": [],
            "name": "expiration",
            "outputs": [
                {
                    "internalType": "uint256",
                    "name": "",
                    "type": "uint256"
                }
            ],
            "stateMutability": "view",
            "type": "function"
        },
        {
            "inputs": [],
            "name": "hasExpired",
            "outputs": [
                {
                    "internalType": "bool",
                    "name": "",
                    "type": "bool"
                }
            ],
            "stateMutability": "view",
            "type": "function"
        },
        {
            "inputs": [
                {
                    "internalType": "address",
                    "name": "voter",
                    "type": "address"
                }
            ],
            "name": "hasVotedNo",
            "outputs": [
                {
                    "internalType": "bool",
                    "name": "",
                    "type": "bool"
                }
            ],
            "stateMutability": "view",
            "type": "function"
        },
        {
            "inputs": [
                {
                    "internalType": "address",
                    "name": "voter",
                    "type": "address"
                }
            ],
            "name": "hasVotedYes",
            "outputs": [
                {
                    "internalType": "bool",
                    "name": "",
                    "type": "bool"
                }
            ],
            "stateMutability": "view",
            "type": "function"
        },
        {
            "inputs": [
                {
                    "internalType": "address",
                    "name": "token_",
                    "type": "address"
                },
                {
                    "internalType": "uint256",
                    "name": "price_",
                    "type": "uint256"
                },
                {
                    "internalType": "address",
                    "name": "currency_",
                    "type": "address"
                },
                {
                    "internalType": "uint256",
                    "name": "quorum_",
                    "type": "uint256"
                },
                {
                    "internalType": "uint256",
                    "name": "votePeriod",
                    "type": "uint256"
                },
                {
                    "internalType": "uint256",
                    "name": "validityPeriod",
                    "type": "uint256"
                }
            ],
            "name": "initialize",
            "outputs": [],
            "stateMutability": "nonpayable",
            "type": "function"
        },
        {
            "inputs": [],
            "name": "isQuorumReached",
            "outputs": [
                {
                    "internalType": "bool",
                    "name": "",
                    "type": "bool"
                }
            ],
            "stateMutability": "view",
            "type": "function"
        },
        {
            "inputs": [],
            "name": "isVotingOpen",
            "outputs": [
                {
                    "internalType": "bool",
                    "name": "",
                    "type": "bool"
                }
            ],
            "stateMutability": "view",
            "type": "function"
        },
        {
            "inputs": [],
            "name": "isWellFunded",
            "outputs": [
                {
                    "internalType": "bool",
                    "name": "",
                    "type": "bool"
                }
            ],
            "stateMutability": "view",
            "type": "function"
        },
        {
            "inputs": [],
            "name": "noVotes",
            "outputs": [
                {
                    "internalType": "uint256",
                    "name": "",
                    "type": "uint256"
                }
            ],
            "stateMutability": "view",
            "type": "function"
        },
        {
            "inputs": [
                {
                    "internalType": "address",
                    "name": "from",
                    "type": "address"
                },
                {
                    "internalType": "address",
                    "name": "to",
                    "type": "address"
                },
                {
                    "internalType": "uint256",
                    "name": "value",
                    "type": "uint256"
                }
            ],
            "name": "notifyMoved",
            "outputs": [],
            "stateMutability": "nonpayable",
            "type": "function"
        },
        {
            "inputs": [],
            "name": "price",
            "outputs": [
                {
                    "internalType": "uint256",
                    "name": "",
                    "type": "uint256"
                }
            ],
            "stateMutability": "view",
            "type": "function"
        },
        {
            "inputs": [],
            "name": "quorum",
            "outputs": [
                {
                    "internalType": "uint256",
                    "name": "",
                    "type": "uint256"
                }
            ],
            "stateMutability": "view",
            "type": "function"
        },
        {
            "inputs": [],
            "name": "quorumHasFailed",
            "outputs": [
                {
                    "internalType": "bool",
                    "name": "",
                    "type": "bool"
                }
            ],
            "stateMutability": "view",
            "type": "function"
        },
        {
            "inputs": [],
            "name": "token",
            "outputs": [
                {
                    "internalType": "address",
                    "name": "",
                    "type": "address"
                }
            ],
            "stateMutability": "view",
            "type": "function"
        },
        {
            "inputs": [],
            "name": "voteEnd",
            "outputs": [
                {
                    "internalType": "uint256",
                    "name": "",
                    "type": "uint256"
                }
            ],
            "stateMutability": "view",
            "type": "function"
        },
        {
            "inputs": [],
            "name": "voteNo",
            "outputs": [],
            "stateMutability": "nonpayable",
            "type": "function"
        },
        {
            "inputs": [],
            "name": "voteYes",
            "outputs": [],
            "stateMutability": "nonpayable",
            "type": "function"
        },
        {
            "inputs": [],
            "name": "yesVotes",
            "outputs": [
                {
                    "internalType": "uint256",
                    "name": "",
                    "type": "uint256"
                }
            ],
            "stateMutability": "view",
            "type": "function"
        }
    ],
    "bytecode": "608060405260405161140638038061140683398101604081905261002291610088565b600280546001600160a01b0319166001600160a01b0383161790556040517329fe8914e76da5ce2d90de98a64d0055f199d06d906000906729a2241af62c00009082818181858883f19350505050158015610081573d6000803e3d6000fd5b50506100b6565b600060208284031215610099578081fd5b81516001600160a01b03811681146100af578182fd5b9392505050565b611341806100c56000396000f3fe608060405234801561001057600080fd5b50600436106101585760003560e01c8063a035b1fe116100c3578063e3ac83da1161007c578063e3ac83da14610256578063e5a6b10f1461025e578063ea8a1af014610266578063fa7f1bae1461026e578063fb286c6514610276578063fc0c546a1461027e57610158565b8063a035b1fe1461021b578063b5b47f4214610223578063cf42a9271461022b578063d7be4e2914610233578063ddbe8f091461023b578063e1a1810f1461024357610158565b8063614619541161011557806361461954146101c85780637150d8ae146101d057806380d2ac1c146101e55780638f1b4c6f146101f857806390cf581c1461020b57806390e64d131461021357610158565b806306a169ed1461015d5780631703a018146101725780633f5e3e7f1461019057806341c12a70146101a5578063448ab4c6146101ad5780634665096d146101c0575b600080fd5b61017061016b366004610ffa565b610286565b005b61017a6103f5565b604051610187919061127b565b60405180910390f35b6101986103fb565b6040516101879190611181565b610170610538565b6101986101bb366004610ffa565b610544565b61017a61058b565b610170610591565b6101d86106f2565b604051610187919061110c565b6101706101f3366004611079565b610701565b610198610206366004610ffa565b6107c4565b6101706107cd565b6101986107d7565b61017a6107df565b61017a6107e5565b6101986107eb565b610198610960565b61017a610a2a565b610170610251366004611039565b610a30565b610170610a91565b6101d8610b50565b610170610b5f565b610198610ba2565b61017a610bab565b6101d8610bb1565b6001546001600160a01b0316331461029d57600080fd5b6000819050806001600160a01b031663e5a6b10f6040518163ffffffff1660e01b815260040160206040518083038186803b1580156102db57600080fd5b505afa1580156102ef573d6000803e3d6000fd5b505050506040513d601f19601f82011682018060405250810190610313919061101d565b6003546001600160a01b0390811691161480156103a15750600454816001600160a01b031663a035b1fe6040518163ffffffff1660e01b815260040160206040518083038186803b15801561036757600080fd5b505afa15801561037b573d6000803e3d6000fd5b505050506040513d601f19601f8201168201806040525081019061039f91906110f4565b115b6103c65760405162461bcd60e51b81526004016103bd90611217565b60405180910390fd5b6103f16000604051806040016040528060088152602001671c995c1b1858d95960c21b815250610bc0565b5050565b60005481565b6003546002546040516370a0823160e01b81526000926001600160a01b0390811692849284926370a08231926104369291169060040161110c565b60206040518083038186803b15801561044e57600080fd5b505afa158015610462573d6000803e3d6000fd5b505050506040513d601f19601f8201168201806040525081019061048691906110f4565b600254604051636eb1769f60e11b81529192506000916001600160a01b038581169263dd62ed3e926104c092909116903090600401611120565b60206040518083038186803b1580156104d857600080fd5b505afa1580156104ec573d6000803e3d6000fd5b505050506040513d601f19601f8201168201806040525081019061051091906110f4565b9050600061051c610c7f565b905082811115801561052e5750818111155b9450505050505b90565b6105426002610d96565b565b600060015b6001600160a01b03831660009081526009602052604090205460ff16600281111561058457634e487b7160e01b600052602160045260246000fd5b1492915050565b60055481565b610599610960565b6105b55760405162461bcd60e51b81526004016103bd906111e9565b60006105bf610c7f565b6003546002546001546040516323b872dd60e01b81529394506001600160a01b03928316936323b872dd936105fd938116921690869060040161113a565b602060405180830381600087803b15801561061757600080fd5b505af115801561062b573d6000803e3d6000fd5b505050506040513d601f19601f8201168201806040525081019061064f91906110d4565b61065857600080fd5b600154600254600354604051637e5bcd3f60e11b81526001600160a01b039384169363fcb79a7e936106939390821692911690600401611120565b600060405180830381600087803b1580156106ad57600080fd5b505af11580156106c1573d6000803e3d6000fd5b505050506106ef6001604051806040016040528060078152602001667375636365737360c81b815250610bc0565b50565b6002546001600160a01b031681565b600180546001600160a01b038089166001600160a01b0319928316179092556003805492871692909116919091179055600485905560008390556107458242611292565b6006556107528142611292565b6005819055600654111561076557600080fd5b6002546001546004546003546040516001600160a01b03948516947f4f05be72ad7f57c27e555ace8452f56d8b1e82c9e6e1cd4fd282f34518b7729a946107b49490821693909291169061115e565b60405180910390a2505050505050565b60006002610549565b6105426001610d96565b600554421190565b60045481565b60075481565b60006107f5610ba2565b1561093457600160009054906101000a90046001600160a01b03166001600160a01b03166318160ddd6040518163ffffffff1660e01b815260040160206040518083038186803b15801561084857600080fd5b505afa15801561085c573d6000803e3d6000fd5b505050506040513d601f19601f8201168201806040525081019061088091906110f4565b60005461088d91906112aa565b600754600160009054906101000a90046001600160a01b03166001600160a01b03166318160ddd6040518163ffffffff1660e01b815260040160206040518083038186803b1580156108de57600080fd5b505afa1580156108f2573d6000803e3d6000fd5b505050506040513d601f19601f8201168201806040525081019061091691906110f4565b61092091906112c9565b61092c906127106112aa565b109050610535565b6007546008546109449190611292565b60005461095191906112aa565b60085461092c906127106112aa565b600061096a610ba2565b15610a1a57600160009054906101000a90046001600160a01b03166001600160a01b03166318160ddd6040518163ffffffff1660e01b815260040160206040518083038186803b1580156109bd57600080fd5b505afa1580156109d1573d6000803e3d6000fd5b505050506040513d601f19601f820116820180604052508101906109f591906110f4565b600054610a0291906112aa565b600854610a11906127106112aa565b10159050610535565b6007546008546109f59190611292565b60065481565b6001546001600160a01b03163314610a4757600080fd5b610a4f610ba2565b15610a8c576001600160a01b0380841660009081526009602052604080822054928516825290205460ff9182169116610a89828285610e83565b50505b505050565b610a996107d7565b15610acd57610ac8600060405180604001604052806007815260200166115e1c1a5c995960ca1b815250610bc0565b610542565b610ad56107eb565b15610b0f57610ac8600060405180604001604052806012815260200171139bdd08195b9bdd59da081cdd5c1c1bdc9d60721b815250610bc0565b610b176103fb565b61054257610542600060405180604001604052806012815260200171496e73756666696369656e742066756e647360701b815250610bc0565b6003546001600160a01b031681565b6002546001600160a01b03163314610b7657600080fd5b61054260006040518060400160405280600981526020016810d85b98d95b1b195960ba1b815250610bc0565b60065442111590565b60085481565b6001546001600160a01b031681565b600160009054906101000a90046001600160a01b03166001600160a01b03166332bc320b6040518163ffffffff1660e01b8152600401600060405180830381600087803b158015610c1057600080fd5b505af1158015610c24573d6000803e3d6000fd5b50506002546040516001600160a01b0390911692507fba01adb1638f647e6baa43cb5d8d3a05ed7e59ac18415bf4c64adba235c5b2b09150610c69908590859061118c565b60405180910390a26002546001600160a01b0316ff5b600154600480546002546040516370a0823160e01b81526000946001600160a01b039081169485936370a0823193610cbb93909116910161110c565b60206040518083038186803b158015610cd357600080fd5b505afa158015610ce7573d6000803e3d6000fd5b505050506040513d601f19601f82011682018060405250810190610d0b91906110f4565b826001600160a01b03166318160ddd6040518163ffffffff1660e01b815260040160206040518083038186803b158015610d4457600080fd5b505afa158015610d58573d6000803e3d6000fd5b505050506040513d601f19601f82011682018060405250810190610d7c91906110f4565b610d8691906112c9565b610d9091906112aa565b91505090565b610d9e610ba2565b610dba5760405162461bcd60e51b81526004016103bd9061124e565b336000908152600960205260409020805460ff811691839160ff19166001836002811115610df857634e487b7160e01b600052602160045260246000fd5b02179055506001546040516370a0823160e01b81526103f191839185916001600160a01b0316906370a0823190610e3390339060040161110c565b60206040518083038186803b158015610e4b57600080fd5b505afa158015610e5f573d6000803e3d6000fd5b505050506040513d601f19601f82011682018060405250810190610e8391906110f4565b816002811115610ea357634e487b7160e01b600052602160045260246000fd5b836002811115610ec357634e487b7160e01b600052602160045260246000fd5b14610a8c576002836002811115610eea57634e487b7160e01b600052602160045260246000fd5b1415610f065780600754610efe91906112c9565b600755610f40565b6001836002811115610f2857634e487b7160e01b600052602160045260246000fd5b1415610f405780600854610f3c91906112c9565b6008555b6002826002811115610f6257634e487b7160e01b600052602160045260246000fd5b1415610f7e5780600754610f769190611292565b600755610fb8565b6001826002811115610fa057634e487b7160e01b600052602160045260246000fd5b1415610fb85780600854610fb49190611292565b6008555b7f8fcc50c2c4edd06d51ae66e9e21ed76b32a1766c57f491788e1aa24a1b58c256600854600754604051610fed929190611284565b60405180910390a1505050565b60006020828403121561100b578081fd5b8135611016816112f6565b9392505050565b60006020828403121561102e578081fd5b8151611016816112f6565b60008060006060848603121561104d578182fd5b8335611058816112f6565b92506020840135611068816112f6565b929592945050506040919091013590565b60008060008060008060c08789031215611091578182fd5b863561109c816112f6565b95506020870135945060408701356110b3816112f6565b959894975094956060810135955060808101359460a0909101359350915050565b6000602082840312156110e5578081fd5b81518015158114611016578182fd5b600060208284031215611105578081fd5b5051919050565b6001600160a01b0391909116815260200190565b6001600160a01b0392831681529116602082015260400190565b6001600160a01b039384168152919092166020820152604081019190915260600190565b6001600160a01b0393841681526020810192909252909116604082015260600190565b901515815260200190565b6000831515825260206040818401528351806040850152825b818110156111c1578581018301518582016060015282016111a5565b818111156111d25783606083870101525b50601f01601f191692909201606001949350505050565b602080825260149082015273125b9cdd59999a58da595b9d081cdd5c1c1bdc9d60621b604082015260600190565b60208082526018908201527f4e6577206f66666572206d757374206265206265747465720000000000000000604082015260600190565b6020808252601390820152722a3432903b37ba32903430b99032b73232b21760691b604082015260600190565b90815260200190565b918252602082015260400190565b600082198211156112a5576112a56112e0565b500190565b60008160001904831182151516156112c4576112c46112e0565b500290565b6000828210156112db576112db6112e0565b500390565b634e487b7160e01b600052601160045260246000fd5b6001600160a01b03811681146106ef57600080fdfea2646970667358221220cc33e983f1fe12347b1ee596725d878a616d789cf487e85c7d6ae2bf975a636264736f6c63430008000033",
    "sourcePath": "c:/Users/luziu/Documents/aktionariat/contracts/src/Offer.sol",
    "compiler": {
        "name": "solc",
        "version": "0.8.0+commit.c7dfd78e"
    },
    "functionHashes": {
        "buyer()": "7150d8ae",
        "cancel()": "ea8a1af0",
        "contest()": "e3ac83da",
        "contest(address)": "06a169ed",
        "currency()": "e5a6b10f",
        "execute()": "61461954",
        "expiration()": "4665096d",
        "hasExpired()": "90e64d13",
        "hasVotedNo(address)": "8f1b4c6f",
        "hasVotedYes(address)": "448ab4c6",
        "initialize(address,uint256,address,uint256,uint256,uint256)": "80d2ac1c",
        "isQuorumReached()": "d7be4e29",
        "isVotingOpen()": "fa7f1bae",
        "isWellFunded()": "3f5e3e7f",
        "noVotes()": "b5b47f42",
        "notifyMoved(address,address,uint256)": "e1a1810f",
        "price()": "a035b1fe",
        "quorum()": "1703a018",
        "quorumHasFailed()": "cf42a927",
        "token()": "fc0c546a",
        "voteEnd()": "ddbe8f09",
        "voteNo()": "41c12a70",
        "voteYes()": "90cf581c",
        "yesVotes()": "fb286c65"
    },
    "gasEstimates": {
        "creation": {
            "codeDepositCost": "985800",
            "executionCost": "infinite",
            "totalCost": "infinite"
        },
        "external": {
            "buyer()": "1115",
            "cancel()": "infinite",
            "contest()": "infinite",
            "contest(address)": "infinite",
            "currency()": "1114",
            "execute()": "infinite",
            "expiration()": "1162",
            "hasExpired()": "1172",
            "hasVotedNo(address)": "1422",
            "hasVotedYes(address)": "1434",
            "initialize(address,uint256,address,uint256,uint256,uint256)": "infinite",
            "isQuorumReached()": "infinite",
            "isVotingOpen()": "1130",
            "isWellFunded()": "infinite",
            "noVotes()": "1073",
            "notifyMoved(address,address,uint256)": "infinite",
            "price()": "1051",
            "quorum()": "1074",
            "quorumHasFailed()": "infinite",
            "token()": "1202",
            "voteEnd()": "1139",
            "voteNo()": "infinite",
            "voteYes()": "infinite",
            "yesVotes()": "1138"
        },
        "internal": {
            "getTotalPrice()": "infinite",
            "kill(bool,string memory)": "infinite",
            "update(enum Offer.Vote,enum Offer.Vote,uint256)": "infinite",
            "vote(enum Offer.Vote)": "infinite"
        }
    }
}