{
    "contractName": "PaymentHub",
    "abi": [
        {
            "inputs": [
                {
                    "internalType": "address",
                    "name": "currency_",
                    "type": "address"
                }
            ],
            "stateMutability": "nonpayable",
            "type": "constructor"
        },
        {
            "inputs": [],
            "name": "currency",
            "outputs": [
                {
                    "internalType": "address",
                    "name": "",
                    "type": "address"
                }
            ],
            "stateMutability": "view",
            "type": "function"
        },
        {
            "inputs": [
                {
                    "internalType": "uint256",
                    "name": "amountOfXCHF",
                    "type": "uint256"
                }
            ],
            "name": "getPriceInEther",
            "outputs": [
                {
                    "internalType": "uint256",
                    "name": "",
                    "type": "uint256"
                }
            ],
            "stateMutability": "view",
            "type": "function"
        },
        {
            "inputs": [
                {
                    "internalType": "address",
                    "name": "recipient",
                    "type": "address"
                },
                {
                    "internalType": "uint256",
                    "name": "xchfamount",
                    "type": "uint256"
                },
                {
                    "internalType": "bytes",
                    "name": "ref",
                    "type": "bytes"
                }
            ],
            "name": "makePaymentAndNotify",
            "outputs": [],
            "stateMutability": "nonpayable",
            "type": "function"
        },
        {
            "inputs": [
                {
                    "internalType": "address",
                    "name": "recipient",
                    "type": "address"
                },
                {
                    "internalType": "uint256",
                    "name": "xchfamount",
                    "type": "uint256"
                }
            ],
            "name": "makePaymentFromEther",
            "outputs": [],
            "stateMutability": "payable",
            "type": "function"
        },
        {
            "inputs": [
                {
                    "internalType": "address",
                    "name": "recipient",
                    "type": "address"
                },
                {
                    "internalType": "uint256",
                    "name": "xchfamount",
                    "type": "uint256"
                },
                {
                    "internalType": "bytes",
                    "name": "ref",
                    "type": "bytes"
                }
            ],
            "name": "makePaymentFromEtherAndNotify",
            "outputs": [],
            "stateMutability": "payable",
            "type": "function"
        },
        {
            "inputs": [
                {
                    "internalType": "address",
                    "name": "token",
                    "type": "address"
                },
                {
                    "internalType": "address",
                    "name": "recipient",
                    "type": "address"
                },
                {
                    "internalType": "uint256",
                    "name": "amount",
                    "type": "uint256"
                },
                {
                    "internalType": "bytes",
                    "name": "ref",
                    "type": "bytes"
                }
            ],
            "name": "makeTransferAndNotify",
            "outputs": [],
            "stateMutability": "nonpayable",
            "type": "function"
        },
        {
            "inputs": [],
            "name": "name",
            "outputs": [
                {
                    "internalType": "string",
                    "name": "",
                    "type": "string"
                }
            ],
            "stateMutability": "view",
            "type": "function"
        },
        {
            "inputs": [
                {
                    "internalType": "address",
                    "name": "ercAddress",
                    "type": "address"
                },
                {
                    "internalType": "address",
                    "name": "to",
                    "type": "address"
                },
                {
                    "internalType": "uint256",
                    "name": "amount",
                    "type": "uint256"
                }
            ],
            "name": "recover",
            "outputs": [],
            "stateMutability": "nonpayable",
            "type": "function"
        },
        {
            "inputs": [],
            "name": "weth",
            "outputs": [
                {
                    "internalType": "contract IERC20",
                    "name": "",
                    "type": "address"
                }
            ],
            "stateMutability": "view",
            "type": "function"
        }
    ],
    "bytecode": "60c060405234801561001057600080fd5b50604051610e11380380610e1183398101604081905261002f916100da565b6001600160601b0319606082901b1660a052604080516315ab88c960e31b81529051737a250d5630b4cf539739df2c5dacb4c659f2488d9163ad5c4648916004808301926020929190829003018186803b15801561008c57600080fd5b505afa1580156100a0573d6000803e3d6000fd5b505050506040513d601f19601f820116820180604052508101906100c491906100da565b60601b6001600160601b03191660805250610108565b6000602082840312156100eb578081fd5b81516001600160a01b0381168114610101578182fd5b9392505050565b60805160601c60a05160601c610cbb610156600039600081816101a7015281816101d90152818161052e0152818161065e01526107090152600081816104de01526106a70152610cbb6000f3fe6080604052600436106100865760003560e01c806326f0cb0d1161005957806326f0cb0d1461010b5780633fc8cef31461012b5780637ebc7ef61461014d578063ae539d8014610160578063e5a6b10f1461018d57610086565b806305b146de1461008b57806306fdde03146100ad5780630b95ea0e146100d85780631ec82cb8146100eb575b600080fd5b34801561009757600080fd5b506100ab6100a6366004610895565b6101a2565b005b3480156100b957600080fd5b506100c26101d5565b6040516100cf9190610b80565b60405180910390f35b6100ab6100e636600461086c565b610290565b3480156100f757600080fd5b506100ab6101063660046107c4565b610364565b34801561011757600080fd5b506100ab6101263660046107ff565b6103e4565b34801561013757600080fd5b506101406104dc565b6040516100cf9190610ade565b6100ab61015b366004610895565b610500565b34801561016c57600080fd5b5061018061017b366004610a4b565b610596565b6040516100cf9190610bb3565b34801561019957600080fd5b5061014061065c565b6101cf7f0000000000000000000000000000000000000000000000000000000000000000858585856103e4565b50505050565b60607f00000000000000000000000000000000000000000000000000000000000000006001600160a01b03166306fdde036040518163ffffffff1660e01b815260040160006040518083038186803b15801561023057600080fd5b505afa158015610244573d6000803e3d6000fd5b505050506040513d6000823e601f3d908101601f1916820160405261026c91908101906109bb565b60405160200161027c9190610aa6565b604051602081830303815290604052905090565b737a250d5630b4cf539739df2c5dacb4c659f2488d63fb3bdb4134836102b4610680565b86426040518663ffffffff1660e01b81526004016102d59493929190610bdd565b6000604051808303818588803b1580156102ee57600080fd5b505af1158015610302573d6000803e3d6000fd5b50505050506040513d6000823e601f3d908101601f1916820160405261032b91908101906108ed565b5047156103605760405133904780156108fc02916000818181858888f1935050505015801561035e573d6000803e3d6000fd5b505b5050565b60405163a9059cbb60e01b81526001600160a01b0384169063a9059cbb906103929085908590600401610b67565b602060405180830381600087803b1580156103ac57600080fd5b505af11580156103c0573d6000803e3d6000fd5b505050506040513d601f19601f820116820180604052508101906101cf9190610994565b6040516323b872dd60e01b81526001600160a01b038616906323b872dd9061041490339088908890600401610af2565b602060405180830381600087803b15801561042e57600080fd5b505af1158015610442573d6000803e3d6000fd5b505050506040513d601f19601f820116820180604052508101906104669190610994565b61046f57600080fd5b604051631afc0d9560e31b81526001600160a01b0385169063d7e06ca8906104a39088903390889088908890600401610b16565b600060405180830381600087803b1580156104bd57600080fd5b505af11580156104d1573d6000803e3d6000fd5b505050505050505050565b7f000000000000000000000000000000000000000000000000000000000000000081565b61050a8484610290565b604051631afc0d9560e31b81526001600160a01b0385169063d7e06ca89061055e907f0000000000000000000000000000000000000000000000000000000000000000903390889088908890600401610b16565b600060405180830381600087803b15801561057857600080fd5b505af115801561058c573d6000803e3d6000fd5b5050505050505050565b6000737a250d5630b4cf539739df2c5dacb4c659f2488d631f00ca74836105bb610680565b6040518363ffffffff1660e01b81526004016105d8929190610bbc565b60006040518083038186803b1580156105f057600080fd5b505afa158015610604573d6000803e3d6000fd5b505050506040513d6000823e601f3d908101601f1916820160405261062c91908101906108ed565b60008151811061064c57634e487b7160e01b600052603260045260246000fd5b602002602001015190505b919050565b7f000000000000000000000000000000000000000000000000000000000000000081565b604080516002808252606080830184529260009291906020830190803683370190505090507f0000000000000000000000000000000000000000000000000000000000000000816000815181106106e757634e487b7160e01b600052603260045260246000fd5b60200260200101906001600160a01b031690816001600160a01b0316815250507f00000000000000000000000000000000000000000000000000000000000000008160018151811061074957634e487b7160e01b600052603260045260246000fd5b6001600160a01b0390921660209283029190910190910152905090565b80356001600160a01b038116811461065757600080fd5b60008083601f84011261078e578182fd5b50813567ffffffffffffffff8111156107a5578182fd5b6020830191508360208285010111156107bd57600080fd5b9250929050565b6000806000606084860312156107d8578283fd5b6107e184610766565b92506107ef60208501610766565b9150604084013590509250925092565b600080600080600060808688031215610816578081fd5b61081f86610766565b945061082d60208701610766565b935060408601359250606086013567ffffffffffffffff81111561084f578182fd5b61085b8882890161077d565b969995985093965092949392505050565b6000806040838503121561087e578182fd5b61088783610766565b946020939093013593505050565b600080600080606085870312156108aa578384fd5b6108b385610766565b935060208501359250604085013567ffffffffffffffff8111156108d5578283fd5b6108e18782880161077d565b95989497509550505050565b600060208083850312156108ff578182fd5b825167ffffffffffffffff80821115610916578384fd5b818501915085601f830112610929578384fd5b81518181111561093b5761093b610c6f565b838102915061094b848301610c12565b8181528481019084860184860187018a1015610965578788fd5b8795505b83861015610987578051835260019590950194918601918601610969565b5098975050505050505050565b6000602082840312156109a5578081fd5b815180151581146109b4578182fd5b9392505050565b6000602082840312156109cc578081fd5b815167ffffffffffffffff808211156109e3578283fd5b818401915084601f8301126109f6578283fd5b815181811115610a0857610a08610c6f565b610a1b601f8201601f1916602001610c12565b9150808252856020828501011115610a31578384fd5b610a42816020840160208601610c43565b50949350505050565b600060208284031215610a5c578081fd5b5035919050565b6000815180845260208085019450808401835b83811015610a9b5781516001600160a01b031687529582019590820190600101610a76565b509495945050505050565b60006f02830bcb6b2b73a10343ab1103337b9160851b82528251610ad1816010850160208701610c43565b9190910160100192915050565b6001600160a01b0391909116815260200190565b6001600160a01b039384168152919092166020820152604081019190915260600190565b6001600160a01b038681168252851660208201526040810184905260806060820181905281018290526000828460a084013781830160a090810191909152601f909201601f19160101949350505050565b6001600160a01b03929092168252602082015260400190565b6000602082528251806020840152610b9f816040850160208701610c43565b601f01601f19169190910160400192915050565b90815260200190565b600083825260406020830152610bd56040830184610a63565b949350505050565b600085825260806020830152610bf66080830186610a63565b6001600160a01b03949094166040830152506060015292915050565b604051601f8201601f1916810167ffffffffffffffff81118282101715610c3b57610c3b610c6f565b604052919050565b60005b83811015610c5e578181015183820152602001610c46565b838111156101cf5750506000910152565b634e487b7160e01b600052604160045260246000fdfea2646970667358221220d291a44f199c5031bcf81b4d68727ff828cb839c6839ce1a9385c5a642ad629a64736f6c63430008010033",
    "sourcePath": "c:/Users/luziu/Documents/aktionariat/contracts/src/PaymentHub.sol",
    "compiler": {
        "name": "solc",
        "version": "0.8.1+commit.df193b15"
    },
    "functionHashes": {
        "currency()": "e5a6b10f",
        "getPriceInEther(uint256)": "ae539d80",
        "makePaymentAndNotify(address,uint256,bytes)": "05b146de",
        "makePaymentFromEther(address,uint256)": "0b95ea0e",
        "makePaymentFromEtherAndNotify(address,uint256,bytes)": "7ebc7ef6",
        "makeTransferAndNotify(address,address,uint256,bytes)": "26f0cb0d",
        "name()": "06fdde03",
        "recover(address,address,uint256)": "1ec82cb8",
        "weth()": "3fc8cef3"
    },
    "gasEstimates": {
        "creation": {
            "codeDepositCost": "651800",
            "executionCost": "infinite",
            "totalCost": "infinite"
        },
        "external": {
            "currency()": "infinite",
            "getPriceInEther(uint256)": "infinite",
            "makePaymentAndNotify(address,uint256,bytes)": "infinite",
            "makePaymentFromEther(address,uint256)": "infinite",
            "makePaymentFromEtherAndNotify(address,uint256,bytes)": "infinite",
            "makeTransferAndNotify(address,address,uint256,bytes)": "infinite",
            "name()": "infinite",
            "recover(address,address,uint256)": "infinite",
            "weth()": "infinite"
        },
        "internal": {
            "getPath()": "infinite"
        }
    }
}