{
    "contractName": "PaymentHub",
    "abi": [
        {
            "inputs": [
                {
                    "internalType": "address",
                    "name": "currency_",
                    "type": "address"
                }
            ],
            "stateMutability": "nonpayable",
            "type": "constructor"
        },
        {
            "inputs": [],
            "name": "currency",
            "outputs": [
                {
                    "internalType": "address",
                    "name": "",
                    "type": "address"
                }
            ],
            "stateMutability": "view",
            "type": "function"
        },
        {
            "inputs": [
                {
                    "internalType": "uint256",
                    "name": "amountOfXCHF",
                    "type": "uint256"
                }
            ],
            "name": "getPriceInEther",
            "outputs": [
                {
                    "internalType": "uint256",
                    "name": "",
                    "type": "uint256"
                }
            ],
            "stateMutability": "view",
            "type": "function"
        },
        {
            "inputs": [
                {
                    "internalType": "address",
                    "name": "token",
                    "type": "address"
                },
                {
                    "internalType": "address[]",
                    "name": "recipients",
                    "type": "address[]"
                },
                {
                    "internalType": "uint256[]",
                    "name": "amounts",
                    "type": "uint256[]"
                }
            ],
            "name": "multiPay",
            "outputs": [],
            "stateMutability": "nonpayable",
            "type": "function"
        },
        {
            "inputs": [
                {
                    "internalType": "address[]",
                    "name": "recipients",
                    "type": "address[]"
                },
                {
                    "internalType": "uint256[]",
                    "name": "amounts",
                    "type": "uint256[]"
                }
            ],
            "name": "multiPay",
            "outputs": [],
            "stateMutability": "nonpayable",
            "type": "function"
        },
        {
            "inputs": [
                {
                    "internalType": "address",
                    "name": "token",
                    "type": "address"
                },
                {
                    "internalType": "address[]",
                    "name": "recipients",
                    "type": "address[]"
                },
                {
                    "internalType": "uint256[]",
                    "name": "amounts",
                    "type": "uint256[]"
                },
                {
                    "internalType": "bytes",
                    "name": "ref",
                    "type": "bytes"
                }
            ],
            "name": "multiPayAndNotify",
            "outputs": [],
            "stateMutability": "nonpayable",
            "type": "function"
        },
        {
            "inputs": [
                {
                    "internalType": "address",
                    "name": "recipient",
                    "type": "address"
                },
                {
                    "internalType": "uint256",
                    "name": "xchfamount",
                    "type": "uint256"
                },
                {
                    "internalType": "bytes",
                    "name": "ref",
                    "type": "bytes"
                }
            ],
            "name": "payAndNotify",
            "outputs": [],
            "stateMutability": "nonpayable",
            "type": "function"
        },
        {
            "inputs": [
                {
                    "internalType": "address",
                    "name": "token",
                    "type": "address"
                },
                {
                    "internalType": "address",
                    "name": "recipient",
                    "type": "address"
                },
                {
                    "internalType": "uint256",
                    "name": "amount",
                    "type": "uint256"
                },
                {
                    "internalType": "bytes",
                    "name": "ref",
                    "type": "bytes"
                }
            ],
            "name": "payAndNotify",
            "outputs": [],
            "stateMutability": "nonpayable",
            "type": "function"
        },
        {
            "inputs": [
                {
                    "internalType": "address",
                    "name": "recipient",
                    "type": "address"
                },
                {
                    "internalType": "uint256",
                    "name": "xchfamount",
                    "type": "uint256"
                }
            ],
            "name": "payFromEther",
            "outputs": [],
            "stateMutability": "payable",
            "type": "function"
        },
        {
            "inputs": [
                {
                    "internalType": "address",
                    "name": "recipient",
                    "type": "address"
                },
                {
                    "internalType": "uint256",
                    "name": "xchfamount",
                    "type": "uint256"
                },
                {
                    "internalType": "bytes",
                    "name": "ref",
                    "type": "bytes"
                }
            ],
            "name": "payFromEtherAndNotify",
            "outputs": [],
            "stateMutability": "payable",
            "type": "function"
        },
        {
            "inputs": [
                {
                    "internalType": "address",
                    "name": "ercAddress",
                    "type": "address"
                },
                {
                    "internalType": "address",
                    "name": "to",
                    "type": "address"
                },
                {
                    "internalType": "uint256",
                    "name": "amount",
                    "type": "uint256"
                }
            ],
            "name": "recover",
            "outputs": [],
            "stateMutability": "nonpayable",
            "type": "function"
        },
        {
            "inputs": [],
            "name": "weth",
            "outputs": [
                {
                    "internalType": "contract IERC20",
                    "name": "",
                    "type": "address"
                }
            ],
            "stateMutability": "view",
            "type": "function"
        }
    ],
    "bytecode": "60c060405234801561001057600080fd5b50604051610fcd380380610fcd83398101604081905261002f916100da565b6001600160601b0319606082901b1660a052604080516315ab88c960e31b81529051737a250d5630b4cf539739df2c5dacb4c659f2488d9163ad5c4648916004808301926020929190829003018186803b15801561008c57600080fd5b505afa1580156100a0573d6000803e3d6000fd5b505050506040513d601f19601f820116820180604052508101906100c491906100da565b60601b6001600160601b03191660805250610108565b6000602082840312156100eb578081fd5b81516001600160a01b0381168114610101578182fd5b9392505050565b60805160601c60a05160601c610e776101566000396000818161021a0152818161026a015281816102d70152818161052a015261086b01526000818161012801526108090152610e776000f3fe60806040526004361061009c5760003560e01c8063568f325411610064578063568f3254146101675780639520bd4614610187578063ae539d80146101a7578063b5a1ad92146101d5578063d3b3ca77146101e8578063e5a6b10f146102085761009c565b8063040c037a146100a157806317f565d2146100b65780631c9af2e3146100d65780631ec82cb8146100f65780633fc8cef314610116575b600080fd5b6100b46100af366004610b6e565b61023c565b005b3480156100c257600080fd5b506100b46100d1366004610b6e565b6102d2565b3480156100e257600080fd5b506100b46100f1366004610a31565b610305565b34801561010257600080fd5b506100b4610111366004610989565b61041f565b34801561012257600080fd5b5061014a7f000000000000000000000000000000000000000000000000000000000000000081565b6040516001600160a01b0390911681526020015b60405180910390f35b34801561017357600080fd5b506100b4610182366004610a9e565b6104a1565b34801561019357600080fd5b506100b46101a2366004610bc6565b610525565b3480156101b357600080fd5b506101c76101c2366004610d02565b610552565b60405190815260200161015e565b6100b46101e3366004610b45565b610618565b3480156101f457600080fd5b506100b46102033660046109c4565b6106ec565b34801561021457600080fd5b5061014a7f000000000000000000000000000000000000000000000000000000000000000081565b6102468484610618565b604051631afc0d9560e31b81526001600160a01b0385169063d7e06ca89061029a907f0000000000000000000000000000000000000000000000000000000000000000903390889088908890600401610d5d565b600060405180830381600087803b1580156102b457600080fd5b505af11580156102c8573d6000803e3d6000fd5b5050505050505050565b6102ff7f0000000000000000000000000000000000000000000000000000000000000000858585856106ec565b50505050565b60005b8381101561041757856001600160a01b03166323b872dd3387878581811061034057634e487b7160e01b600052603260045260246000fd5b90506020020160208101906103559190610968565b86868681811061037557634e487b7160e01b600052603260045260246000fd5b6040516001600160e01b031960e088901b1681526001600160a01b03958616600482015294909316602485015250602090910201356044820152606401602060405180830381600087803b1580156103cc57600080fd5b505af11580156103e0573d6000803e3d6000fd5b505050506040513d601f19601f820116820180604052508101906104049190610ce2565b508061040f81610e04565b915050610308565b505050505050565b60405163a9059cbb60e01b81526001600160a01b0383811660048301526024820183905284169063a9059cbb90604401602060405180830381600087803b15801561046957600080fd5b505af115801561047d573d6000803e3d6000fd5b505050506040513d601f19601f820116820180604052508101906102ff9190610ce2565b60005b858110156102c857610513888888848181106104d057634e487b7160e01b600052603260045260246000fd5b90506020020160208101906104e59190610968565b87878581811061050557634e487b7160e01b600052603260045260246000fd5b9050602002013586866106ec565b8061051d81610e04565b9150506104a4565b6102ff7f000000000000000000000000000000000000000000000000000000000000000085858585610305565b6000737a250d5630b4cf539739df2c5dacb4c659f2488d631f00ca74836105776107e2565b6040518363ffffffff1660e01b8152600401610594929190610dae565b60006040518083038186803b1580156105ac57600080fd5b505afa1580156105c0573d6000803e3d6000fd5b505050506040513d6000823e601f3d908101601f191682016040526105e89190810190610c23565b60008151811061060857634e487b7160e01b600052603260045260246000fd5b602002602001015190505b919050565b737a250d5630b4cf539739df2c5dacb4c659f2488d63fb3bdb41348361063c6107e2565b86426040518663ffffffff1660e01b815260040161065d9493929190610dcf565b6000604051808303818588803b15801561067657600080fd5b505af115801561068a573d6000803e3d6000fd5b50505050506040513d6000823e601f3d908101601f191682016040526106b39190810190610c23565b5047156106e85760405133904780156108fc02916000818181858888f193505050501580156106e6573d6000803e3d6000fd5b505b5050565b6040516323b872dd60e01b81523360048201526001600160a01b038581166024830152604482018590528616906323b872dd90606401602060405180830381600087803b15801561073c57600080fd5b505af1158015610750573d6000803e3d6000fd5b505050506040513d601f19601f820116820180604052508101906107749190610ce2565b50604051631afc0d9560e31b81526001600160a01b0385169063d7e06ca8906107a99088903390889088908890600401610d5d565b600060405180830381600087803b1580156107c357600080fd5b505af11580156107d7573d6000803e3d6000fd5b505050505050505050565b604080516002808252606080830184529260009291906020830190803683370190505090507f00000000000000000000000000000000000000000000000000000000000000008160008151811061084957634e487b7160e01b600052603260045260246000fd5b60200260200101906001600160a01b031690816001600160a01b0316815250507f0000000000000000000000000000000000000000000000000000000000000000816001815181106108ab57634e487b7160e01b600052603260045260246000fd5b6001600160a01b0390921660209283029190910190910152905090565b80356001600160a01b038116811461061357600080fd5b60008083601f8401126108f0578081fd5b50813567ffffffffffffffff811115610907578182fd5b602083019150836020808302850101111561092157600080fd5b9250929050565b60008083601f840112610939578182fd5b50813567ffffffffffffffff811115610950578182fd5b60208301915083602082850101111561092157600080fd5b600060208284031215610979578081fd5b610982826108c8565b9392505050565b60008060006060848603121561099d578182fd5b6109a6846108c8565b92506109b4602085016108c8565b9150604084013590509250925092565b6000806000806000608086880312156109db578081fd5b6109e4866108c8565b94506109f2602087016108c8565b935060408601359250606086013567ffffffffffffffff811115610a14578182fd5b610a2088828901610928565b969995985093965092949392505050565b600080600080600060608688031215610a48578081fd5b610a51866108c8565b9450602086013567ffffffffffffffff80821115610a6d578283fd5b610a7989838a016108df565b90965094506040880135915080821115610a91578283fd5b50610a20888289016108df565b60008060008060008060006080888a031215610ab8578182fd5b610ac1886108c8565b9650602088013567ffffffffffffffff80821115610add578384fd5b610ae98b838c016108df565b909850965060408a0135915080821115610b01578384fd5b610b0d8b838c016108df565b909650945060608a0135915080821115610b25578384fd5b50610b328a828b01610928565b989b979a50959850939692959293505050565b60008060408385031215610b57578182fd5b610b60836108c8565b946020939093013593505050565b60008060008060608587031215610b83578384fd5b610b8c856108c8565b935060208501359250604085013567ffffffffffffffff811115610bae578283fd5b610bba87828801610928565b95989497509550505050565b60008060008060408587031215610bdb578384fd5b843567ffffffffffffffff80821115610bf2578586fd5b610bfe888389016108df565b90965094506020870135915080821115610c16578384fd5b50610bba878288016108df565b60006020808385031215610c35578182fd5b825167ffffffffffffffff80821115610c4c578384fd5b818501915085601f830112610c5f578384fd5b815181811115610c7157610c71610e2b565b838102604051601f19603f83011681018181108582111715610c9557610c95610e2b565b604052828152858101935084860182860187018a1015610cb3578788fd5b8795505b83861015610cd5578051855260019590950194938601938601610cb7565b5098975050505050505050565b600060208284031215610cf3578081fd5b81518015158114610982578182fd5b600060208284031215610d13578081fd5b5035919050565b6000815180845260208085019450808401835b83811015610d525781516001600160a01b031687529582019590820190600101610d2d565b509495945050505050565b6001600160a01b038681168252851660208201526040810184905260806060820181905281018290526000828460a084013781830160a090810191909152601f909201601f19160101949350505050565b600083825260406020830152610dc76040830184610d1a565b949350505050565b600085825260806020830152610de86080830186610d1a565b6001600160a01b03949094166040830152506060015292915050565b6000600019821415610e2457634e487b7160e01b81526011600452602481fd5b5060010190565b634e487b7160e01b600052604160045260246000fdfea2646970667358221220b2f8f7a774f515030ef7f5fc5a52640372c5d235db1a765d09924ad3fbcb3e7e64736f6c63430008020033",
    "sourcePath": "c:/Users/luziu/Documents/aktionariat/contracts/src/PaymentHub.sol",
    "compiler": {
        "name": "solc",
        "version": "0.8.2+commit.661d1103"
    },
    "functionHashes": {
        "currency()": "e5a6b10f",
        "getPriceInEther(uint256)": "ae539d80",
        "multiPay(address,address[],uint256[])": "1c9af2e3",
        "multiPay(address[],uint256[])": "9520bd46",
        "multiPayAndNotify(address,address[],uint256[],bytes)": "568f3254",
        "payAndNotify(address,address,uint256,bytes)": "d3b3ca77",
        "payAndNotify(address,uint256,bytes)": "17f565d2",
        "payFromEther(address,uint256)": "b5a1ad92",
        "payFromEtherAndNotify(address,uint256,bytes)": "040c037a",
        "recover(address,address,uint256)": "1ec82cb8",
        "weth()": "3fc8cef3"
    },
    "gasEstimates": {
        "creation": {
            "codeDepositCost": "740600",
            "executionCost": "infinite",
            "totalCost": "infinite"
        },
        "external": {
            "currency()": "infinite",
            "getPriceInEther(uint256)": "infinite",
            "multiPay(address,address[],uint256[])": "infinite",
            "multiPay(address[],uint256[])": "infinite",
            "multiPayAndNotify(address,address[],uint256[],bytes)": "infinite",
            "payAndNotify(address,address,uint256,bytes)": "infinite",
            "payAndNotify(address,uint256,bytes)": "infinite",
            "payFromEther(address,uint256)": "infinite",
            "payFromEtherAndNotify(address,uint256,bytes)": "infinite",
            "recover(address,address,uint256)": "infinite",
            "weth()": "infinite"
        },
        "internal": {
            "getPath()": "infinite"
        }
    }
}