{
    "contractName": "PaymentHub",
    "abi": [
        {
            "inputs": [
                {
                    "internalType": "address",
                    "name": "currency_",
                    "type": "address"
                }
            ],
            "stateMutability": "nonpayable",
            "type": "constructor"
        },
        {
            "inputs": [],
            "name": "currency",
            "outputs": [
                {
                    "internalType": "address",
                    "name": "",
                    "type": "address"
                }
            ],
            "stateMutability": "view",
            "type": "function"
        },
        {
            "inputs": [
                {
                    "internalType": "uint256",
                    "name": "amountOfXCHF",
                    "type": "uint256"
                }
            ],
            "name": "getPriceInEther",
            "outputs": [
                {
                    "internalType": "uint256",
                    "name": "",
                    "type": "uint256"
                }
            ],
            "stateMutability": "view",
            "type": "function"
        },
        {
            "inputs": [
                {
                    "internalType": "address",
                    "name": "token",
                    "type": "address"
                },
                {
                    "internalType": "address[]",
                    "name": "recipients",
                    "type": "address[]"
                },
                {
                    "internalType": "uint256[]",
                    "name": "amounts",
                    "type": "uint256[]"
                }
            ],
            "name": "multiPay",
            "outputs": [],
            "stateMutability": "nonpayable",
            "type": "function"
        },
        {
            "inputs": [
                {
                    "internalType": "address[]",
                    "name": "recipients",
                    "type": "address[]"
                },
                {
                    "internalType": "uint256[]",
                    "name": "amounts",
                    "type": "uint256[]"
                }
            ],
            "name": "multiPay",
            "outputs": [],
            "stateMutability": "nonpayable",
            "type": "function"
        },
        {
            "inputs": [
                {
                    "internalType": "address",
                    "name": "token",
                    "type": "address"
                },
                {
                    "internalType": "address[]",
                    "name": "recipients",
                    "type": "address[]"
                },
                {
                    "internalType": "uint256[]",
                    "name": "amounts",
                    "type": "uint256[]"
                },
                {
                    "internalType": "bytes[]",
                    "name": "refs",
                    "type": "bytes[]"
                }
            ],
            "name": "multiPayAndNotify",
            "outputs": [],
            "stateMutability": "nonpayable",
            "type": "function"
        },
        {
            "inputs": [],
            "name": "name",
            "outputs": [
                {
                    "internalType": "string",
                    "name": "",
                    "type": "string"
                }
            ],
            "stateMutability": "view",
            "type": "function"
        },
        {
            "inputs": [
                {
                    "internalType": "address",
                    "name": "recipient",
                    "type": "address"
                },
                {
                    "internalType": "uint256",
                    "name": "xchfamount",
                    "type": "uint256"
                },
                {
                    "internalType": "bytes",
                    "name": "ref",
                    "type": "bytes"
                }
            ],
            "name": "payAndNotify",
            "outputs": [],
            "stateMutability": "nonpayable",
            "type": "function"
        },
        {
            "inputs": [
                {
                    "internalType": "address",
                    "name": "token",
                    "type": "address"
                },
                {
                    "internalType": "address",
                    "name": "recipient",
                    "type": "address"
                },
                {
                    "internalType": "uint256",
                    "name": "amount",
                    "type": "uint256"
                },
                {
                    "internalType": "bytes",
                    "name": "ref",
                    "type": "bytes"
                }
            ],
            "name": "payAndNotify",
            "outputs": [],
            "stateMutability": "nonpayable",
            "type": "function"
        },
        {
            "inputs": [
                {
                    "internalType": "address",
                    "name": "recipient",
                    "type": "address"
                },
                {
                    "internalType": "uint256",
                    "name": "xchfamount",
                    "type": "uint256"
                }
            ],
            "name": "payFromEther",
            "outputs": [],
            "stateMutability": "payable",
            "type": "function"
        },
        {
            "inputs": [
                {
                    "internalType": "address",
                    "name": "recipient",
                    "type": "address"
                },
                {
                    "internalType": "uint256",
                    "name": "xchfamount",
                    "type": "uint256"
                },
                {
                    "internalType": "bytes",
                    "name": "ref",
                    "type": "bytes"
                }
            ],
            "name": "payFromEtherAndNotify",
            "outputs": [],
            "stateMutability": "payable",
            "type": "function"
        },
        {
            "inputs": [
                {
                    "internalType": "address",
                    "name": "ercAddress",
                    "type": "address"
                },
                {
                    "internalType": "address",
                    "name": "to",
                    "type": "address"
                },
                {
                    "internalType": "uint256",
                    "name": "amount",
                    "type": "uint256"
                }
            ],
            "name": "recover",
            "outputs": [],
            "stateMutability": "nonpayable",
            "type": "function"
        },
        {
            "inputs": [],
            "name": "weth",
            "outputs": [
                {
                    "internalType": "contract IERC20",
                    "name": "",
                    "type": "address"
                }
            ],
            "stateMutability": "view",
            "type": "function"
        }
    ],
    "bytecode": "60c060405234801561001057600080fd5b506040516112b83803806112b883398101604081905261002f916100da565b6001600160601b0319606082901b1660a052604080516315ab88c960e31b81529051737a250d5630b4cf539739df2c5dacb4c659f2488d9163ad5c4648916004808301926020929190829003018186803b15801561008c57600080fd5b505afa1580156100a0573d6000803e3d6000fd5b505050506040513d601f19601f820116820180604052508101906100c491906100da565b60601b6001600160601b03191660805250610108565b6000602082840312156100eb578081fd5b81516001600160a01b0381168114610101578182fd5b9392505050565b60805160601c60a05160601c61115b61015d60003960008181610251015281816102bd015281816103790152818161055a015281816108c50152610970015260008181610533015261090e015261115b6000f3fe6080604052600436106100a75760003560e01c80639520bd46116100645780639520bd461461016e578063ae539d801461018e578063b5a1ad92146101bb578063d3b3ca77146101ce578063d7f6e45a146101ee578063e5a6b10f1461020e576100a7565b8063040c037a146100ac57806306fdde03146100c157806317f565d2146100ec5780631c9af2e31461010c5780631ec82cb81461012c5780633fc8cef31461014c575b600080fd5b6100bf6100ba366004610c73565b610223565b005b3480156100cd57600080fd5b506100d66102b9565b6040516100e39190610fb4565b60405180910390f35b3480156100f857600080fd5b506100bf610107366004610c73565b610374565b34801561011857600080fd5b506100bf610127366004610b36565b6103a7565b34801561013857600080fd5b506100bf610147366004610a8e565b6104b1565b34801561015857600080fd5b50610161610531565b6040516100e39190610f12565b34801561017a57600080fd5b506100bf610189366004610ccb565b610555565b34801561019a57600080fd5b506101ae6101a9366004610e7f565b610582565b6040516100e39190610fe7565b6100bf6101c9366004610c4a565b610648565b3480156101da57600080fd5b506100bf6101e9366004610ac9565b61071c565b3480156101fa57600080fd5b506100bf610209366004610ba3565b610814565b34801561021a57600080fd5b506101616108c3565b61022d8484610648565b604051631afc0d9560e31b81526001600160a01b0385169063d7e06ca890610281907f0000000000000000000000000000000000000000000000000000000000000000903390889088908890600401610f4a565b600060405180830381600087803b15801561029b57600080fd5b505af11580156102af573d6000803e3d6000fd5b5050505050505050565b60607f00000000000000000000000000000000000000000000000000000000000000006001600160a01b03166306fdde036040518163ffffffff1660e01b815260040160006040518083038186803b15801561031457600080fd5b505afa158015610328573d6000803e3d6000fd5b505050506040513d6000823e601f3d908101601f191682016040526103509190810190610def565b6040516020016103609190610eda565b604051602081830303815290604052905090565b6103a17f00000000000000000000000000000000000000000000000000000000000000008585858561071c565b50505050565b60005b838110156104a957856001600160a01b03166323b872dd338787858181106103e257634e487b7160e01b600052603260045260246000fd5b90506020020160208101906103f79190610a6d565b86868681811061041757634e487b7160e01b600052603260045260246000fd5b905060200201356040518463ffffffff1660e01b815260040161043c93929190610f26565b602060405180830381600087803b15801561045657600080fd5b505af115801561046a573d6000803e3d6000fd5b505050506040513d601f19601f8201168201806040525081019061048e9190610dcf565b61049757600080fd5b806104a1816110e8565b9150506103aa565b505050505050565b60405163a9059cbb60e01b81526001600160a01b0384169063a9059cbb906104df9085908590600401610f9b565b602060405180830381600087803b1580156104f957600080fd5b505af115801561050d573d6000803e3d6000fd5b505050506040513d601f19601f820116820180604052508101906103a19190610dcf565b7f000000000000000000000000000000000000000000000000000000000000000081565b6103a17f0000000000000000000000000000000000000000000000000000000000000000858585856103a7565b6000737a250d5630b4cf539739df2c5dacb4c659f2488d631f00ca74836105a76108e7565b6040518363ffffffff1660e01b81526004016105c4929190610ff0565b60006040518083038186803b1580156105dc57600080fd5b505afa1580156105f0573d6000803e3d6000fd5b505050506040513d6000823e601f3d908101601f191682016040526106189190810190610d28565b60008151811061063857634e487b7160e01b600052603260045260246000fd5b602002602001015190505b919050565b737a250d5630b4cf539739df2c5dacb4c659f2488d63fb3bdb41348361066c6108e7565b86426040518663ffffffff1660e01b815260040161068d9493929190611011565b6000604051808303818588803b1580156106a657600080fd5b505af11580156106ba573d6000803e3d6000fd5b50505050506040513d6000823e601f3d908101601f191682016040526106e39190810190610d28565b5047156107185760405133904780156108fc02916000818181858888f19350505050158015610716573d6000803e3d6000fd5b505b5050565b6040516323b872dd60e01b81526001600160a01b038616906323b872dd9061074c90339088908890600401610f26565b602060405180830381600087803b15801561076657600080fd5b505af115801561077a573d6000803e3d6000fd5b505050506040513d601f19601f8201168201806040525081019061079e9190610dcf565b6107a757600080fd5b604051631afc0d9560e31b81526001600160a01b0385169063d7e06ca8906107db9088903390889088908890600401610f4a565b600060405180830381600087803b1580156107f557600080fd5b505af1158015610809573d6000803e3d6000fd5b505050505050505050565b60005b858110156102af576108b18888888481811061084357634e487b7160e01b600052603260045260246000fd5b90506020020160208101906108589190610a6d565b87878581811061087857634e487b7160e01b600052603260045260246000fd5b9050602002013586868681811061089f57634e487b7160e01b600052603260045260246000fd5b90506020028101906101e99190611046565b806108bb816110e8565b915050610817565b7f000000000000000000000000000000000000000000000000000000000000000081565b604080516002808252606080830184529260009291906020830190803683370190505090507f00000000000000000000000000000000000000000000000000000000000000008160008151811061094e57634e487b7160e01b600052603260045260246000fd5b60200260200101906001600160a01b031690816001600160a01b0316815250507f0000000000000000000000000000000000000000000000000000000000000000816001815181106109b057634e487b7160e01b600052603260045260246000fd5b6001600160a01b0390921660209283029190910190910152905090565b80356001600160a01b038116811461064357600080fd5b60008083601f8401126109f5578182fd5b50813567ffffffffffffffff811115610a0c578182fd5b6020830191508360208083028501011115610a2657600080fd5b9250929050565b60008083601f840112610a3e578182fd5b50813567ffffffffffffffff811115610a55578182fd5b602083019150836020828501011115610a2657600080fd5b600060208284031215610a7e578081fd5b610a87826109cd565b9392505050565b600080600060608486031215610aa2578182fd5b610aab846109cd565b9250610ab9602085016109cd565b9150604084013590509250925092565b600080600080600060808688031215610ae0578081fd5b610ae9866109cd565b9450610af7602087016109cd565b935060408601359250606086013567ffffffffffffffff811115610b19578182fd5b610b2588828901610a2d565b969995985093965092949392505050565b600080600080600060608688031215610b4d578081fd5b610b56866109cd565b9450602086013567ffffffffffffffff80821115610b72578283fd5b610b7e89838a016109e4565b90965094506040880135915080821115610b96578283fd5b50610b25888289016109e4565b60008060008060008060006080888a031215610bbd578182fd5b610bc6886109cd565b9650602088013567ffffffffffffffff80821115610be2578384fd5b610bee8b838c016109e4565b909850965060408a0135915080821115610c06578384fd5b610c128b838c016109e4565b909650945060608a0135915080821115610c2a578384fd5b50610c378a828b016109e4565b989b979a50959850939692959293505050565b60008060408385031215610c5c578182fd5b610c65836109cd565b946020939093013593505050565b60008060008060608587031215610c88578384fd5b610c91856109cd565b935060208501359250604085013567ffffffffffffffff811115610cb3578283fd5b610cbf87828801610a2d565b95989497509550505050565b60008060008060408587031215610ce0578384fd5b843567ffffffffffffffff80821115610cf7578586fd5b610d03888389016109e4565b90965094506020870135915080821115610d1b578384fd5b50610cbf878288016109e4565b60006020808385031215610d3a578182fd5b825167ffffffffffffffff80821115610d51578384fd5b818501915085601f830112610d64578384fd5b815181811115610d7657610d7661110f565b8381029150610d8684830161108b565b8181528481019084860184860187018a1015610da0578788fd5b8795505b83861015610dc2578051835260019590950194918601918601610da4565b5098975050505050505050565b600060208284031215610de0578081fd5b81518015158114610a87578182fd5b600060208284031215610e00578081fd5b815167ffffffffffffffff80821115610e17578283fd5b818401915084601f830112610e2a578283fd5b815181811115610e3c57610e3c61110f565b610e4f601f8201601f191660200161108b565b9150808252856020828501011115610e65578384fd5b610e768160208401602086016110bc565b50949350505050565b600060208284031215610e90578081fd5b5035919050565b6000815180845260208085019450808401835b83811015610ecf5781516001600160a01b031687529582019590820190600101610eaa565b509495945050505050565b60006f02830bcb6b2b73a10343ab1103337b9160851b82528251610f058160108501602087016110bc565b9190910160100192915050565b6001600160a01b0391909116815260200190565b6001600160a01b039384168152919092166020820152604081019190915260600190565b6001600160a01b038681168252851660208201526040810184905260806060820181905281018290526000828460a084013781830160a090810191909152601f909201601f19160101949350505050565b6001600160a01b03929092168252602082015260400190565b6000602082528251806020840152610fd38160408501602087016110bc565b601f01601f19169190910160400192915050565b90815260200190565b6000838252604060208301526110096040830184610e97565b949350505050565b60008582526080602083015261102a6080830186610e97565b6001600160a01b03949094166040830152506060015292915050565b6000808335601e1984360301811261105c578283fd5b83018035915067ffffffffffffffff821115611076578283fd5b602001915036819003821315610a2657600080fd5b604051601f8201601f1916810167ffffffffffffffff811182821017156110b4576110b461110f565b604052919050565b60005b838110156110d75781810151838201526020016110bf565b838111156103a15750506000910152565b600060001982141561110857634e487b7160e01b81526011600452602481fd5b5060010190565b634e487b7160e01b600052604160045260246000fdfea2646970667358221220fdd2fec97ae70aab5d1b9af421e218d3ad7aca521219ce05b0e186d6fc170da164736f6c63430008010033",
    "sourcePath": "c:/Users/luziu/Documents/aktionariat/contracts/src/PaymentHub.sol",
    "compiler": {
        "name": "solc",
        "version": "0.8.1+commit.df193b15"
    },
    "functionHashes": {
        "currency()": "e5a6b10f",
        "getPriceInEther(uint256)": "ae539d80",
        "multiPay(address,address[],uint256[])": "1c9af2e3",
        "multiPay(address[],uint256[])": "9520bd46",
        "multiPayAndNotify(address,address[],uint256[],bytes[])": "d7f6e45a",
        "name()": "06fdde03",
        "payAndNotify(address,address,uint256,bytes)": "d3b3ca77",
        "payAndNotify(address,uint256,bytes)": "17f565d2",
        "payFromEther(address,uint256)": "b5a1ad92",
        "payFromEtherAndNotify(address,uint256,bytes)": "040c037a",
        "recover(address,address,uint256)": "1ec82cb8",
        "weth()": "3fc8cef3"
    },
    "gasEstimates": {
        "creation": {
            "codeDepositCost": "888600",
            "executionCost": "infinite",
            "totalCost": "infinite"
        },
        "external": {
            "currency()": "infinite",
            "getPriceInEther(uint256)": "infinite",
            "multiPay(address,address[],uint256[])": "infinite",
            "multiPay(address[],uint256[])": "infinite",
            "multiPayAndNotify(address,address[],uint256[],bytes[])": "infinite",
            "name()": "infinite",
            "payAndNotify(address,address,uint256,bytes)": "infinite",
            "payAndNotify(address,uint256,bytes)": "infinite",
            "payFromEther(address,uint256)": "infinite",
            "payFromEtherAndNotify(address,uint256,bytes)": "infinite",
            "recover(address,address,uint256)": "infinite",
            "weth()": "infinite"
        },
        "internal": {
            "getPath()": "infinite"
        }
    }
}