{
    "contractName": "Shares",
    "abi": [
        {
            "inputs": [
                {
                    "internalType": "string",
                    "name": "_symbol",
                    "type": "string"
                },
                {
                    "internalType": "string",
                    "name": "_name",
                    "type": "string"
                },
                {
                    "internalType": "string",
                    "name": "_terms",
                    "type": "string"
                },
                {
                    "internalType": "uint256",
                    "name": "_totalShares",
                    "type": "uint256"
                },
                {
                    "internalType": "address",
                    "name": "owner",
                    "type": "address"
                }
            ],
            "stateMutability": "nonpayable",
            "type": "constructor"
        },
        {
            "anonymous": false,
            "inputs": [
                {
                    "indexed": false,
                    "internalType": "string",
                    "name": "message",
                    "type": "string"
                }
            ],
            "name": "Announcement",
            "type": "event"
        },
        {
            "anonymous": false,
            "inputs": [
                {
                    "indexed": true,
                    "internalType": "address",
                    "name": "owner",
                    "type": "address"
                },
                {
                    "indexed": true,
                    "internalType": "address",
                    "name": "spender",
                    "type": "address"
                },
                {
                    "indexed": false,
                    "internalType": "uint256",
                    "name": "value",
                    "type": "uint256"
                }
            ],
            "name": "Approval",
            "type": "event"
        },
        {
            "anonymous": false,
            "inputs": [
                {
                    "indexed": true,
                    "internalType": "address",
                    "name": "lostAddress",
                    "type": "address"
                },
                {
                    "indexed": false,
                    "internalType": "uint256",
                    "name": "collateral",
                    "type": "uint256"
                }
            ],
            "name": "ClaimCleared",
            "type": "event"
        },
        {
            "anonymous": false,
            "inputs": [
                {
                    "indexed": true,
                    "internalType": "address",
                    "name": "lostAddress",
                    "type": "address"
                },
                {
                    "indexed": true,
                    "internalType": "address",
                    "name": "claimant",
                    "type": "address"
                },
                {
                    "indexed": false,
                    "internalType": "uint256",
                    "name": "collateral",
                    "type": "uint256"
                }
            ],
            "name": "ClaimDeleted",
            "type": "event"
        },
        {
            "anonymous": false,
            "inputs": [
                {
                    "indexed": true,
                    "internalType": "address",
                    "name": "lostAddress",
                    "type": "address"
                },
                {
                    "indexed": true,
                    "internalType": "address",
                    "name": "claimant",
                    "type": "address"
                },
                {
                    "indexed": false,
                    "internalType": "uint256",
                    "name": "balance",
                    "type": "uint256"
                }
            ],
            "name": "ClaimMade",
            "type": "event"
        },
        {
            "anonymous": false,
            "inputs": [
                {
                    "indexed": true,
                    "internalType": "address",
                    "name": "lostAddress",
                    "type": "address"
                },
                {
                    "indexed": true,
                    "internalType": "address",
                    "name": "claimant",
                    "type": "address"
                },
                {
                    "indexed": false,
                    "internalType": "uint256",
                    "name": "collateral",
                    "type": "uint256"
                }
            ],
            "name": "ClaimResolved",
            "type": "event"
        },
        {
            "anonymous": false,
            "inputs": [
                {
                    "indexed": false,
                    "internalType": "address",
                    "name": "newCustomCollateralAddress",
                    "type": "address"
                },
                {
                    "indexed": false,
                    "internalType": "uint256",
                    "name": "newCustomCollareralRate",
                    "type": "uint256"
                }
            ],
            "name": "CustomClaimCollateralChanged",
            "type": "event"
        },
        {
            "anonymous": false,
            "inputs": [
                {
                    "indexed": true,
                    "internalType": "address",
                    "name": "previousOwner",
                    "type": "address"
                },
                {
                    "indexed": true,
                    "internalType": "address",
                    "name": "newOwner",
                    "type": "address"
                }
            ],
            "name": "OwnershipTransferred",
            "type": "event"
        },
        {
            "anonymous": false,
            "inputs": [
                {
                    "indexed": false,
                    "internalType": "address",
                    "name": "contractAddress",
                    "type": "address"
                }
            ],
            "name": "SubRegisterRecognized",
            "type": "event"
        },
        {
            "anonymous": false,
            "inputs": [
                {
                    "indexed": true,
                    "internalType": "address",
                    "name": "holder",
                    "type": "address"
                },
                {
                    "indexed": false,
                    "internalType": "uint256",
                    "name": "amount",
                    "type": "uint256"
                },
                {
                    "indexed": false,
                    "internalType": "string",
                    "name": "message",
                    "type": "string"
                }
            ],
            "name": "TokensDeclaredInvalid",
            "type": "event"
        },
        {
            "anonymous": false,
            "inputs": [
                {
                    "indexed": true,
                    "internalType": "address",
                    "name": "from",
                    "type": "address"
                },
                {
                    "indexed": true,
                    "internalType": "address",
                    "name": "to",
                    "type": "address"
                },
                {
                    "indexed": false,
                    "internalType": "uint256",
                    "name": "value",
                    "type": "uint256"
                }
            ],
            "name": "Transfer",
            "type": "event"
        },
        {
            "inputs": [
                {
                    "internalType": "address",
                    "name": "owner",
                    "type": "address"
                },
                {
                    "internalType": "address",
                    "name": "spender",
                    "type": "address"
                }
            ],
            "name": "allowance",
            "outputs": [
                {
                    "internalType": "uint256",
                    "name": "",
                    "type": "uint256"
                }
            ],
            "stateMutability": "view",
            "type": "function"
        },
        {
            "inputs": [
                {
                    "internalType": "string",
                    "name": "message",
                    "type": "string"
                }
            ],
            "name": "announcement",
            "outputs": [],
            "stateMutability": "nonpayable",
            "type": "function"
        },
        {
            "inputs": [
                {
                    "internalType": "address",
                    "name": "spender",
                    "type": "address"
                },
                {
                    "internalType": "uint256",
                    "name": "value",
                    "type": "uint256"
                }
            ],
            "name": "approve",
            "outputs": [
                {
                    "internalType": "bool",
                    "name": "",
                    "type": "bool"
                }
            ],
            "stateMutability": "nonpayable",
            "type": "function"
        },
        {
            "inputs": [
                {
                    "internalType": "address",
                    "name": "account",
                    "type": "address"
                }
            ],
            "name": "balanceOf",
            "outputs": [
                {
                    "internalType": "uint256",
                    "name": "",
                    "type": "uint256"
                }
            ],
            "stateMutability": "view",
            "type": "function"
        },
        {
            "inputs": [
                {
                    "internalType": "uint256",
                    "name": "_amount",
                    "type": "uint256"
                }
            ],
            "name": "burn",
            "outputs": [],
            "stateMutability": "nonpayable",
            "type": "function"
        },
        {
            "inputs": [],
            "name": "claimPeriod",
            "outputs": [
                {
                    "internalType": "uint256",
                    "name": "",
                    "type": "uint256"
                }
            ],
            "stateMutability": "view",
            "type": "function"
        },
        {
            "inputs": [
                {
                    "internalType": "address",
                    "name": "",
                    "type": "address"
                }
            ],
            "name": "claims",
            "outputs": [
                {
                    "internalType": "address",
                    "name": "claimant",
                    "type": "address"
                },
                {
                    "internalType": "uint256",
                    "name": "collateral",
                    "type": "uint256"
                },
                {
                    "internalType": "uint256",
                    "name": "timestamp",
                    "type": "uint256"
                },
                {
                    "internalType": "address",
                    "name": "currencyUsed",
                    "type": "address"
                }
            ],
            "stateMutability": "view",
            "type": "function"
        },
        {
            "inputs": [],
            "name": "clearClaim",
            "outputs": [],
            "stateMutability": "nonpayable",
            "type": "function"
        },
        {
            "inputs": [],
            "name": "customCollateralAddress",
            "outputs": [
                {
                    "internalType": "address",
                    "name": "",
                    "type": "address"
                }
            ],
            "stateMutability": "view",
            "type": "function"
        },
        {
            "inputs": [],
            "name": "customCollateralRate",
            "outputs": [
                {
                    "internalType": "uint256",
                    "name": "",
                    "type": "uint256"
                }
            ],
            "stateMutability": "view",
            "type": "function"
        },
        {
            "inputs": [],
            "name": "decimals",
            "outputs": [
                {
                    "internalType": "uint8",
                    "name": "",
                    "type": "uint8"
                }
            ],
            "stateMutability": "view",
            "type": "function"
        },
        {
            "inputs": [
                {
                    "internalType": "address",
                    "name": "holder",
                    "type": "address"
                },
                {
                    "internalType": "uint256",
                    "name": "amount",
                    "type": "uint256"
                },
                {
                    "internalType": "string",
                    "name": "message",
                    "type": "string"
                }
            ],
            "name": "declareInvalid",
            "outputs": [],
            "stateMutability": "nonpayable",
            "type": "function"
        },
        {
            "inputs": [
                {
                    "internalType": "address",
                    "name": "collateralType",
                    "type": "address"
                },
                {
                    "internalType": "address",
                    "name": "lostAddress",
                    "type": "address"
                }
            ],
            "name": "declareLost",
            "outputs": [],
            "stateMutability": "nonpayable",
            "type": "function"
        },
        {
            "inputs": [
                {
                    "internalType": "address",
                    "name": "lostAddress",
                    "type": "address"
                }
            ],
            "name": "deleteClaim",
            "outputs": [],
            "stateMutability": "nonpayable",
            "type": "function"
        },
        {
            "inputs": [],
            "name": "getClaimDeleter",
            "outputs": [
                {
                    "internalType": "address",
                    "name": "",
                    "type": "address"
                }
            ],
            "stateMutability": "view",
            "type": "function"
        },
        {
            "inputs": [
                {
                    "internalType": "address",
                    "name": "lostAddress",
                    "type": "address"
                }
            ],
            "name": "getClaimant",
            "outputs": [
                {
                    "internalType": "address",
                    "name": "",
                    "type": "address"
                }
            ],
            "stateMutability": "view",
            "type": "function"
        },
        {
            "inputs": [
                {
                    "internalType": "address",
                    "name": "lostAddress",
                    "type": "address"
                }
            ],
            "name": "getCollateral",
            "outputs": [
                {
                    "internalType": "uint256",
                    "name": "",
                    "type": "uint256"
                }
            ],
            "stateMutability": "view",
            "type": "function"
        },
        {
            "inputs": [
                {
                    "internalType": "address",
                    "name": "collateralType",
                    "type": "address"
                }
            ],
            "name": "getCollateralRate",
            "outputs": [
                {
                    "internalType": "uint256",
                    "name": "",
                    "type": "uint256"
                }
            ],
            "stateMutability": "view",
            "type": "function"
        },
        {
            "inputs": [
                {
                    "internalType": "address",
                    "name": "lostAddress",
                    "type": "address"
                }
            ],
            "name": "getCollateralType",
            "outputs": [
                {
                    "internalType": "address",
                    "name": "",
                    "type": "address"
                }
            ],
            "stateMutability": "view",
            "type": "function"
        },
        {
            "inputs": [
                {
                    "internalType": "address",
                    "name": "lostAddress",
                    "type": "address"
                }
            ],
            "name": "getTimeStamp",
            "outputs": [
                {
                    "internalType": "uint256",
                    "name": "",
                    "type": "uint256"
                }
            ],
            "stateMutability": "view",
            "type": "function"
        },
        {
            "inputs": [],
            "name": "invalidTokens",
            "outputs": [
                {
                    "internalType": "uint256",
                    "name": "",
                    "type": "uint256"
                }
            ],
            "stateMutability": "view",
            "type": "function"
        },
        {
            "inputs": [
                {
                    "internalType": "address",
                    "name": "target",
                    "type": "address"
                }
            ],
            "name": "isRecoveryEnabled",
            "outputs": [
                {
                    "internalType": "bool",
                    "name": "",
                    "type": "bool"
                }
            ],
            "stateMutability": "view",
            "type": "function"
        },
        {
            "inputs": [
                {
                    "internalType": "address",
                    "name": "target",
                    "type": "address"
                },
                {
                    "internalType": "uint256",
                    "name": "amount",
                    "type": "uint256"
                }
            ],
            "name": "mint",
            "outputs": [],
            "stateMutability": "nonpayable",
            "type": "function"
        },
        {
            "inputs": [
                {
                    "internalType": "address",
                    "name": "shareholder",
                    "type": "address"
                },
                {
                    "internalType": "address",
                    "name": "callee",
                    "type": "address"
                },
                {
                    "internalType": "uint256",
                    "name": "amount",
                    "type": "uint256"
                },
                {
                    "internalType": "bytes",
                    "name": "data",
                    "type": "bytes"
                }
            ],
            "name": "mintAndCall",
            "outputs": [],
            "stateMutability": "nonpayable",
            "type": "function"
        },
        {
            "inputs": [],
            "name": "name",
            "outputs": [
                {
                    "internalType": "string",
                    "name": "",
                    "type": "string"
                }
            ],
            "stateMutability": "view",
            "type": "function"
        },
        {
            "inputs": [],
            "name": "owner",
            "outputs": [
                {
                    "internalType": "address",
                    "name": "",
                    "type": "address"
                }
            ],
            "stateMutability": "view",
            "type": "function"
        },
        {
            "inputs": [
                {
                    "internalType": "address",
                    "name": "contractAddress",
                    "type": "address"
                }
            ],
            "name": "recognizeSubRegister",
            "outputs": [],
            "stateMutability": "nonpayable",
            "type": "function"
        },
        {
            "inputs": [
                {
                    "internalType": "address",
                    "name": "lostAddress",
                    "type": "address"
                }
            ],
            "name": "recover",
            "outputs": [],
            "stateMutability": "nonpayable",
            "type": "function"
        },
        {
            "inputs": [
                {
                    "internalType": "address",
                    "name": "",
                    "type": "address"
                }
            ],
            "name": "recoveryDisabled",
            "outputs": [
                {
                    "internalType": "bool",
                    "name": "",
                    "type": "bool"
                }
            ],
            "stateMutability": "view",
            "type": "function"
        },
        {
            "inputs": [
                {
                    "internalType": "address",
                    "name": "collateral",
                    "type": "address"
                },
                {
                    "internalType": "uint256",
                    "name": "rate",
                    "type": "uint256"
                }
            ],
            "name": "setCustomClaimCollateral",
            "outputs": [],
            "stateMutability": "nonpayable",
            "type": "function"
        },
        {
            "inputs": [
                {
                    "internalType": "string",
                    "name": "_symbol",
                    "type": "string"
                },
                {
                    "internalType": "string",
                    "name": "_name",
                    "type": "string"
                }
            ],
            "name": "setName",
            "outputs": [],
            "stateMutability": "nonpayable",
            "type": "function"
        },
        {
            "inputs": [
                {
                    "internalType": "bool",
                    "name": "enabled",
                    "type": "bool"
                }
            ],
            "name": "setRecoverable",
            "outputs": [],
            "stateMutability": "nonpayable",
            "type": "function"
        },
        {
            "inputs": [
                {
                    "internalType": "string",
                    "name": "_terms",
                    "type": "string"
                }
            ],
            "name": "setTerms",
            "outputs": [],
            "stateMutability": "nonpayable",
            "type": "function"
        },
        {
            "inputs": [
                {
                    "internalType": "uint256",
                    "name": "_newTotalShares",
                    "type": "uint256"
                }
            ],
            "name": "setTotalShares",
            "outputs": [],
            "stateMutability": "nonpayable",
            "type": "function"
        },
        {
            "inputs": [],
            "name": "symbol",
            "outputs": [
                {
                    "internalType": "string",
                    "name": "",
                    "type": "string"
                }
            ],
            "stateMutability": "view",
            "type": "function"
        },
        {
            "inputs": [],
            "name": "terms",
            "outputs": [
                {
                    "internalType": "string",
                    "name": "",
                    "type": "string"
                }
            ],
            "stateMutability": "view",
            "type": "function"
        },
        {
            "inputs": [],
            "name": "totalShares",
            "outputs": [
                {
                    "internalType": "uint256",
                    "name": "",
                    "type": "uint256"
                }
            ],
            "stateMutability": "view",
            "type": "function"
        },
        {
            "inputs": [],
            "name": "totalSupply",
            "outputs": [
                {
                    "internalType": "uint256",
                    "name": "",
                    "type": "uint256"
                }
            ],
            "stateMutability": "view",
            "type": "function"
        },
        {
            "inputs": [],
            "name": "totalValidSupply",
            "outputs": [
                {
                    "internalType": "uint256",
                    "name": "",
                    "type": "uint256"
                }
            ],
            "stateMutability": "view",
            "type": "function"
        },
        {
            "inputs": [
                {
                    "internalType": "address",
                    "name": "to",
                    "type": "address"
                },
                {
                    "internalType": "uint256",
                    "name": "value",
                    "type": "uint256"
                }
            ],
            "name": "transfer",
            "outputs": [
                {
                    "internalType": "bool",
                    "name": "",
                    "type": "bool"
                }
            ],
            "stateMutability": "nonpayable",
            "type": "function"
        },
        {
            "inputs": [
                {
                    "internalType": "address",
                    "name": "recipient",
                    "type": "address"
                },
                {
                    "internalType": "uint256",
                    "name": "amount",
                    "type": "uint256"
                },
                {
                    "internalType": "bytes",
                    "name": "data",
                    "type": "bytes"
                }
            ],
            "name": "transferAndCall",
            "outputs": [
                {
                    "internalType": "bool",
                    "name": "",
                    "type": "bool"
                }
            ],
            "stateMutability": "nonpayable",
            "type": "function"
        },
        {
            "inputs": [
                {
                    "internalType": "address",
                    "name": "sender",
                    "type": "address"
                },
                {
                    "internalType": "address",
                    "name": "recipient",
                    "type": "address"
                },
                {
                    "internalType": "uint256",
                    "name": "amount",
                    "type": "uint256"
                }
            ],
            "name": "transferFrom",
            "outputs": [
                {
                    "internalType": "bool",
                    "name": "",
                    "type": "bool"
                }
            ],
            "stateMutability": "nonpayable",
            "type": "function"
        },
        {
            "inputs": [
                {
                    "internalType": "address",
                    "name": "newOwner",
                    "type": "address"
                }
            ],
            "name": "transferOwnership",
            "outputs": [],
            "stateMutability": "nonpayable",
            "type": "function"
        }
    ],
    "bytecode": "60806040526000600c556000600d553480156200001b57600080fd5b506040516200232d3803806200232d8339810160408190526200003e916200027c565b6003805460ff19169055600880546001600160a01b0319166001600160a01b03831690811790915560405182918691889160009185919083907f8be0079c531659141344cd1fd0a4f28419497f9722a3daafe3b4186f6b6457e0908290a3508251620000b29060099060208601906200011f565b508151620000c890600a9060208501906200011f565b50508751620000e29350600a92506020890191506200011f565b508351620000f89060099060208701906200011f565b50600c82905582516200011390600b9060208601906200011f565b5050505050506200038e565b8280546200012d906200033b565b90600052602060002090601f0160209004810192826200015157600085556200019c565b82601f106200016c57805160ff19168380011785556200019c565b828001600101855582156200019c579182015b828111156200019c5782518255916020019190600101906200017f565b50620001aa929150620001ae565b5090565b5b80821115620001aa5760008155600101620001af565b600082601f830112620001d757600080fd5b81516001600160401b0380821115620001f457620001f462000378565b604051601f8301601f19908116603f011681019082821181831017156200021f576200021f62000378565b816040528381526020925086838588010111156200023c57600080fd5b600091505b8382101562000260578582018301518183018401529082019062000241565b83821115620002725760008385830101525b9695505050505050565b600080600080600060a086880312156200029557600080fd5b85516001600160401b0380821115620002ad57600080fd5b620002bb89838a01620001c5565b96506020880151915080821115620002d257600080fd5b620002e089838a01620001c5565b95506040880151915080821115620002f757600080fd5b506200030688828901620001c5565b60608801516080890151919550935090506001600160a01b03811681146200032d57600080fd5b809150509295509295909350565b600181811c908216806200035057607f821691505b602082108114156200037257634e487b7160e01b600052602260045260246000fd5b50919050565b634e487b7160e01b600052604160045260246000fd5b611f8f806200039e6000396000f3fe608060405234801561001057600080fd5b50600436106102695760003560e01c80636091811711610151578063a77384c1116100c3578063cc51e14311610087578063cc51e14314610627578063d50256251461063a578063dd62ed3e14610642578063eb470ebf1461067b578063f2fde38b146106a7578063f54fc060146106ba57600080fd5b8063a77384c114610567578063a9059cbb1461057a578063b0d04c7a1461058d578063b40e80d114610595578063c6788bdd146105b857600080fd5b806378f86afc1161011557806378f86afc146104d65780637dc2cd98146104e95780638da5cb5b146104f357806395d89b41146105065780639b56d6c91461050e578063a3ec18831461053a57600080fd5b8063609181171461045c5780636427ed97146104655780636b03ed5f1461049257806370a082311461049a57806377e071ad146104c357600080fd5b8063313ce567116101ea5780633bcc45ba116101ae5780633bcc45ba146103ce5780634000aea0146103fd57806340c10f191461041057806342966c68146104235780635c707f07146104365780635d6624b71461044957600080fd5b8063313ce5671461037757806332a7ae951461039657806337a8129c146103a95780633a1cdf32146103b25780633a98ef39146103c557600080fd5b80631e3b9de5116102315780631e3b9de5146103015780631f0f06aa1461032d57806323b872dd1461034057806326773ddd146103535780632a0a4ed51461036657600080fd5b806306fdde031461026e578063095ea7b31461028c5780630c6f0e5d146102af5780630cd865ec146102da57806318160ddd146102ef575b600080fd5b6102766106cd565b6040516102839190611e04565b60405180910390f35b61029f61029a366004611bdb565b61075b565b6040519015158152602001610283565b6006546102c2906001600160a01b031681565b6040516001600160a01b039091168152602001610283565b6102ed6102e8366004611ae2565b610771565b005b6002545b604051908152602001610283565b6102c261030f366004611ae2565b6001600160a01b039081166000908152600460205260409020541690565b6102ed61033b366004611c99565b6109e2565b61029f61034e366004611b30565b610a49565b6102ed610361366004611afd565b610aa5565b6008546001600160a01b03166102c2565b6003546103849060ff1681565b60405160ff9091168152602001610283565b6102ed6103a4366004611ae2565b610d58565b6102f3600d5481565b6102ed6103c0366004611bdb565b610f5f565b6102f3600c5481565b6102c26103dc366004611ae2565b6001600160a01b039081166000908152600460205260409020600301541690565b61029f61040b366004611c05565b610f97565b6102ed61041e366004611bdb565b61103c565b6102ed610431366004611d7c565b611070565b6102ed610444366004611d18565b6110e7565b6102ed610457366004611c05565b61113d565b6102f360075481565b6102ed610473366004611c5f565b336000908152600560205260409020805460ff19169115919091179055565b6102ed6111f2565b6102f36104a8366004611ae2565b6001600160a01b031660009081526020819052604090205490565b6102f36104d1366004611ae2565b611311565b6102ed6104e4366004611cdb565b611357565b6102f362ed4e0081565b6008546102c2906001600160a01b031681565b610276611394565b6102f361051c366004611ae2565b6001600160a01b031660009081526004602052604090206001015490565b61029f610548366004611ae2565b6001600160a01b031660009081526005602052604090205460ff161590565b6102ed610575366004611d7c565b6113a1565b61029f610588366004611bdb565b611416565b6102f3611429565b61029f6105a3366004611ae2565b60056020526000908152604090205460ff1681565b6105f86105c6366004611ae2565b60046020526000908152604090208054600182015460028301546003909301546001600160a01b039283169391921684565b604080516001600160a01b03958616815260208101949094528301919091529091166060820152608001610283565b6102ed610635366004611ae2565b611446565b6102766114af565b6102f3610650366004611afd565b6001600160a01b03918216600090815260016020908152604080832093909416825291909152205490565b6102f3610689366004611ae2565b6001600160a01b031660009081526004602052604090206002015490565b6102ed6106b5366004611ae2565b6114bc565b6102ed6106c8366004611b6c565b611542565b600980546106da90611ee4565b80601f016020809104026020016040519081016040528092919081815260200182805461070690611ee4565b80156107535780601f1061072857610100808354040283529160200191610753565b820191906000526020600020905b81548152906001019060200180831161073657829003601f168201915b505050505081565b60006107683384846115d8565b50600192915050565b6001600160a01b03808216600090815260046020908152604091829020825160808101845281548516815260018201549281018390526002820154938101939093526003015490921660608201819052909190816108025760405162461bcd60e51b81526020600482015260096024820152681b9bdd08199bdd5b9960ba1b60448201526064015b60405180910390fd5b82516001600160a01b0316331461084a5760405162461bcd60e51b815260206004820152600c60248201526b1b9bdd0818db185a5b585b9d60a21b60448201526064016107f9565b4262ed4e00846040015161085e9190611e96565b11156108985760405162461bcd60e51b8152602060048201526009602482015268746f6f206561726c7960b81b60448201526064016107f9565b82516001600160a01b03858116600090815260046020819052604080832080546001600160a01b031990811682556001820185905560028201949094556003018054909316909255905163a9059cbb60e01b815282841691810191909152602481018590529083169063a9059cbb90604401602060405180830381600087803b15801561092457600080fd5b505af1158015610938573d6000803e3d6000fd5b505050506040513d601f19601f8201168201806040525081019061095c9190611c7c565b61096557600080fd5b61098e8582610989886001600160a01b031660009081526020819052604090205490565b611631565b806001600160a01b0316856001600160a01b03167f52a5c2b28bc6eb9712d0ced43463103b486b13ccc9cda499fd3b2d7b6a74a8ee856040516109d391815260200190565b60405180910390a35050505050565b6008546001600160a01b03163314610a0c5760405162461bcd60e51b81526004016107f990611e59565b7f07ce702fc13ca0620c174dab22996a6d5fd9e7accb663555a4e85323692706ba8282604051610a3d929190611df0565b60405180910390a15050565b6000610a56848484611631565b6001600160a01b0384166000908152600160209081526040808320338452909152902054600160ff1b811015610a9a57610a9a8533610a958685611ecd565b6115d8565b506001949350505050565b6001600160a01b03811660009081526005602052604090205460ff1615610af95760405162461bcd60e51b8152602060048201526008602482015267191a5cd8589b195960c21b60448201526064016107f9565b6000610b0483611311565b905060008111610b475760405162461bcd60e51b815260206004820152600e60248201526d1898590818dbdb1b185d195c985b60921b60448201526064016107f9565b336000610b69846001600160a01b031660009081526020819052604090205490565b90506000610b778483611eae565b90508582610baf5760405162461bcd60e51b8152602060048201526005602482015264656d70747960d81b60448201526064016107f9565b6001600160a01b03861660009081526004602052604090206001015415610c0a5760405162461bcd60e51b815260206004820152600f60248201526e185b1c9958591e4818db185a5b5959608a1b60448201526064016107f9565b6040516323b872dd60e01b81526001600160a01b038581166004830152306024830152604482018490528216906323b872dd90606401602060405180830381600087803b158015610c5a57600080fd5b505af1158015610c6e573d6000803e3d6000fd5b505050506040513d601f19601f82011682018060405250810190610c929190611c7c565b610c9b57600080fd5b604080516080810182526001600160a01b038087168083526020808401878152428587019081528d8516606087019081528d86166000818152600490955293889020965187549087166001600160a01b0319918216178855925160018801559051600287015551600390950180549590941694169390931790915591517f1982ca8958fc8a8176cb52be509260f4bc5af7ce04e1533711793f1c56dd535990610d479087815260200190565b60405180910390a350505050505050565b6008546001600160a01b03163314610d9e5760405162461bcd60e51b81526020600482015260096024820152686e6f2061636365737360b81b60448201526064016107f9565b6001600160a01b038082166000908152600460209081526040918290208251608081018452815485168152600182015492810183905260028201549381019390935260030154909216606082018190529091610e285760405162461bcd60e51b81526020600482015260096024820152681b9bdd08199bdd5b9960ba1b60448201526064016107f9565b6001600160a01b03808416600090815260046020818152604080842080546001600160a01b031990811682556001820186905560028201959095556003018054909416909355855190860151925163a9059cbb60e01b81529385169363a9059cbb93610eaa939091016001600160a01b03929092168252602082015260400190565b602060405180830381600087803b158015610ec457600080fd5b505af1158015610ed8573d6000803e3d6000fd5b505050506040513d601f19601f82011682018060405250810190610efc9190611c7c565b610f0557600080fd5b81600001516001600160a01b0316836001600160a01b03167fbb036e629a9f4c0897ee5d48440dfdb36f7e772117723a2ed603a6514244c2d58460200151604051610f5291815260200190565b60405180910390a3505050565b6008546001600160a01b03163314610f895760405162461bcd60e51b81526004016107f990611e59565b610f9382826116e5565b5050565b600080610fa48686611416565b9050801561103357604051635260769b60e11b81526001600160a01b0387169063a4c0ed3690610fde903390899089908990600401611dbe565b602060405180830381600087803b158015610ff857600080fd5b505af115801561100c573d6000803e3d6000fd5b505050506040513d601f19601f820116820180604052508101906110309190611c7c565b90505b95945050505050565b6008546001600160a01b031633146110665760405162461bcd60e51b81526004016107f990611e59565b610f93828261178f565b336000908152602081905260409020548111156110cf5760405162461bcd60e51b815260206004820152601b60248201527f4e6f7420656e6f7567682073686172657320617661696c61626c65000000000060448201526064016107f9565b6110da333083611631565b6110e43082611813565b50565b6008546001600160a01b031633146111115760405162461bcd60e51b81526004016107f990611e59565b815161112490600a90602085019061195c565b50805161113890600990602084019061195c565b505050565b6008546001600160a01b031633146111675760405162461bcd60e51b81526004016107f990611e59565b6001600160a01b0384166000908152602081905260409020548084111561118d57600080fd5b83600d600082825461119f9190611e96565b92505081905550846001600160a01b03167f0a605cd1294f60fa3b73548ac68428f33300a051f225afcdcc75e56083c96ee78585856040516111e393929190611e7c565b60405180910390a25050505050565b336000908152600460205260409020600101541561130f5733600081815260046020819052604080832060018101805460038301805484546001600160a01b0319908116865593889055600290940196909655908216909455905163a9059cbb60e01b8152918201939093526024810182905290916001600160a01b031690819063a9059cbb90604401602060405180830381600087803b15801561129657600080fd5b505af11580156112aa573d6000803e3d6000fd5b505050506040513d601f19601f820116820180604052508101906112ce9190611c7c565b6112d757600080fd5b60405182815233907f203627483d943880619f4b7e0cca21dbefd6204b4d85b124eb99540e17ba86dd9060200160405180910390a250505b565b60006001600160a01b03821630141561132c57506001919050565b6006546001600160a01b038381169116141561134a57505060075490565b506000919050565b919050565b6008546001600160a01b031633146113815760405162461bcd60e51b81526004016107f990611e59565b8051610f9390600b90602084019061195c565b600a80546106da90611ee4565b6008546001600160a01b031633146113cb5760405162461bcd60e51b81526004016107f990611e59565b6113d3611429565b8110156114115760405162461bcd60e51b815260206004820152600c60248201526b62656c6f7720737570706c7960a01b60448201526064016107f9565b600c55565b6000611422838361189d565b9392505050565b6000600d5461143760025490565b6114419190611ecd565b905090565b6008546001600160a01b031633146114705760405162461bcd60e51b81526004016107f990611e59565b6040516001600160a01b03821681527f6563ed86749f41d6f22086ebb321adce1e55ec5333f6bba7d83659510c49b73c9060200160405180910390a150565b600b80546106da90611ee4565b6008546001600160a01b031633146114e65760405162461bcd60e51b81526004016107f990611e59565b6008546040516001600160a01b038084169216907f8be0079c531659141344cd1fd0a4f28419497f9722a3daafe3b4186f6b6457e090600090a3600880546001600160a01b0319166001600160a01b0392909216919091179055565b61154c848461103c565b604051635260769b60e11b81526001600160a01b0385169063a4c0ed369061157e908890879087908790600401611dbe565b602060405180830381600087803b15801561159857600080fd5b505af11580156115ac573d6000803e3d6000fd5b505050506040513d601f19601f820116820180604052508101906115d09190611c7c565b505050505050565b6001600160a01b0383811660008181526001602090815260408083209487168084529482529182902085905590518481527f8c5be1e5ebec7d5bd14f71427d1e84f3dd0314c0f7b2291e5b200ac8c7c3b9259101610f52565b6001600160a01b03821661164457600080fd5b6001600160a01b0383166000908152602081905260408120805483929061166c908490611ecd565b90915550506001600160a01b03821660009081526020819052604081208054839290611699908490611e96565b92505081905550816001600160a01b0316836001600160a01b03167fddf252ad1be2c89b69c2b068fc378daa952ba7f163c4a11628f55a4df523b3ef83604051610f5291815260200190565b600680546001600160a01b0319166001600160a01b038416908117909155611711576000600755611750565b6000811161174a5760405162461bcd60e51b81526004016107f9906020808252600490820152637a65726f60e01b604082015260600190565b60078190555b604080516001600160a01b0384168152602081018390527f94238858463adf0fecc0e064844831a54bccf8467c86f0b93d2a9508e05968539101610a3d565b600c548161179b611429565b6117a59190611e96565b11156118095760405162461bcd60e51b815260206004820152602d60248201527f54686572652063616e277420626520666577657220736861726573207468616e60448201526c2076616c696420746f6b656e7360981b60648201526084016107f9565b610f9382826118ba565b80600260008282546118259190611ecd565b90915550506001600160a01b03821660009081526020819052604081208054839290611852908490611ecd565b90915550506040518181526000906001600160a01b038416907fddf252ad1be2c89b69c2b068fc378daa952ba7f163c4a11628f55a4df523b3ef906020015b60405180910390a35050565b60006118a9838361194f565b6118b257600080fd5b6107686111f2565b6001600160a01b0382166118cd57600080fd5b80600260008282546118df9190611e96565b90915550506001600160a01b0382166000908152602081905260408120805483929061190c908490611e96565b90915550506040518181526001600160a01b038316906000907fddf252ad1be2c89b69c2b068fc378daa952ba7f163c4a11628f55a4df523b3ef90602001611891565b6000610768338484611631565b82805461196890611ee4565b90600052602060002090601f01602090048101928261198a57600085556119d0565b82601f106119a357805160ff19168380011785556119d0565b828001600101855582156119d0579182015b828111156119d05782518255916020019190600101906119b5565b506119dc9291506119e0565b5090565b5b808211156119dc57600081556001016119e1565b80356001600160a01b038116811461135257600080fd5b60008083601f840112611a1e57600080fd5b50813567ffffffffffffffff811115611a3657600080fd5b602083019150836020828501011115611a4e57600080fd5b9250929050565b600082601f830112611a6657600080fd5b813567ffffffffffffffff80821115611a8157611a81611f35565b604051601f8301601f19908116603f01168101908282118183101715611aa957611aa9611f35565b81604052838152866020858801011115611ac257600080fd5b836020870160208301376000602085830101528094505050505092915050565b600060208284031215611af457600080fd5b611422826119f5565b60008060408385031215611b1057600080fd5b611b19836119f5565b9150611b27602084016119f5565b90509250929050565b600080600060608486031215611b4557600080fd5b611b4e846119f5565b9250611b5c602085016119f5565b9150604084013590509250925092565b600080600080600060808688031215611b8457600080fd5b611b8d866119f5565b9450611b9b602087016119f5565b935060408601359250606086013567ffffffffffffffff811115611bbe57600080fd5b611bca88828901611a0c565b969995985093965092949392505050565b60008060408385031215611bee57600080fd5b611bf7836119f5565b946020939093013593505050565b60008060008060608587031215611c1b57600080fd5b611c24856119f5565b935060208501359250604085013567ffffffffffffffff811115611c4757600080fd5b611c5387828801611a0c565b95989497509550505050565b600060208284031215611c7157600080fd5b813561142281611f4b565b600060208284031215611c8e57600080fd5b815161142281611f4b565b60008060208385031215611cac57600080fd5b823567ffffffffffffffff811115611cc357600080fd5b611ccf85828601611a0c565b90969095509350505050565b600060208284031215611ced57600080fd5b813567ffffffffffffffff811115611d0457600080fd5b611d1084828501611a55565b949350505050565b60008060408385031215611d2b57600080fd5b823567ffffffffffffffff80821115611d4357600080fd5b611d4f86838701611a55565b93506020850135915080821115611d6557600080fd5b50611d7285828601611a55565b9150509250929050565b600060208284031215611d8e57600080fd5b5035919050565b81835281816020850137506000828201602090810191909152601f909101601f19169091010190565b60018060a01b0385168152836020820152606060408201526000611de6606083018486611d95565b9695505050505050565b602081526000611d10602083018486611d95565b600060208083528351808285015260005b81811015611e3157858101830151858201604001528201611e15565b81811115611e43576000604083870101525b50601f01601f1916929092016040019392505050565b6020808252600990820152683737ba1037bbb732b960b91b604082015260600190565b838152604060208201526000611033604083018486611d95565b60008219821115611ea957611ea9611f1f565b500190565b6000816000190483118215151615611ec857611ec8611f1f565b500290565b600082821015611edf57611edf611f1f565b500390565b600181811c90821680611ef857607f821691505b60208210811415611f1957634e487b7160e01b600052602260045260246000fd5b50919050565b634e487b7160e01b600052601160045260246000fd5b634e487b7160e01b600052604160045260246000fd5b80151581146110e457600080fdfea2646970667358221220b082979fefa4f05a51b0b11c1992a37600ae6fe6b05f713b8deb2bd43e03eb5964736f6c63430008070033",
    "sourcePath": "c:/Users/luziu/Documents/aktionariat/contracts/src/Shares.sol",
    "compiler": {
        "name": "solc",
        "version": "0.8.7+commit.e28d00a7"
    },
    "functionHashes": {
        "allowance(address,address)": "dd62ed3e",
        "announcement(string)": "1f0f06aa",
        "approve(address,uint256)": "095ea7b3",
        "balanceOf(address)": "70a08231",
        "burn(uint256)": "42966c68",
        "claimPeriod()": "7dc2cd98",
        "claims(address)": "c6788bdd",
        "clearClaim()": "6b03ed5f",
        "customCollateralAddress()": "0c6f0e5d",
        "customCollateralRate()": "60918117",
        "decimals()": "313ce567",
        "declareInvalid(address,uint256,string)": "5d6624b7",
        "declareLost(address,address)": "26773ddd",
        "deleteClaim(address)": "32a7ae95",
        "getClaimDeleter()": "2a0a4ed5",
        "getClaimant(address)": "1e3b9de5",
        "getCollateral(address)": "9b56d6c9",
        "getCollateralRate(address)": "77e071ad",
        "getCollateralType(address)": "3bcc45ba",
        "getTimeStamp(address)": "eb470ebf",
        "invalidTokens()": "37a8129c",
        "isRecoveryEnabled(address)": "a3ec1883",
        "mint(address,uint256)": "40c10f19",
        "mintAndCall(address,address,uint256,bytes)": "f54fc060",
        "name()": "06fdde03",
        "owner()": "8da5cb5b",
        "recognizeSubRegister(address)": "cc51e143",
        "recover(address)": "0cd865ec",
        "recoveryDisabled(address)": "b40e80d1",
        "setCustomClaimCollateral(address,uint256)": "3a1cdf32",
        "setName(string,string)": "5c707f07",
        "setRecoverable(bool)": "6427ed97",
        "setTerms(string)": "78f86afc",
        "setTotalShares(uint256)": "a77384c1",
        "symbol()": "95d89b41",
        "terms()": "d5025625",
        "totalShares()": "3a98ef39",
        "totalSupply()": "18160ddd",
        "totalValidSupply()": "b0d04c7a",
        "transfer(address,uint256)": "a9059cbb",
        "transferAndCall(address,uint256,bytes)": "4000aea0",
        "transferFrom(address,address,uint256)": "23b872dd",
        "transferOwnership(address)": "f2fde38b"
    },
    "gasEstimates": {
        "creation": {
            "codeDepositCost": "1615800",
            "executionCost": "infinite",
            "totalCost": "infinite"
        },
        "external": {
            "allowance(address,address)": "infinite",
            "announcement(string)": "infinite",
            "approve(address,uint256)": "24607",
            "balanceOf(address)": "2652",
            "burn(uint256)": "infinite",
            "claimPeriod()": "262",
            "claims(address)": "9114",
            "clearClaim()": "infinite",
            "customCollateralAddress()": "2428",
            "customCollateralRate()": "2341",
            "decimals()": "2359",
            "declareInvalid(address,uint256,string)": "infinite",
            "declareLost(address,address)": "infinite",
            "deleteClaim(address)": "infinite",
            "getClaimDeleter()": "2465",
            "getClaimant(address)": "2613",
            "getCollateral(address)": "2676",
            "getCollateralRate(address)": "4801",
            "getCollateralType(address)": "2618",
            "getTimeStamp(address)": "2653",
            "invalidTokens()": "2385",
            "isRecoveryEnabled(address)": "2707",
            "mint(address,uint256)": "infinite",
            "mintAndCall(address,address,uint256,bytes)": "infinite",
            "name()": "infinite",
            "owner()": "2426",
            "recognizeSubRegister(address)": "3563",
            "recover(address)": "infinite",
            "recoveryDisabled(address)": "2642",
            "setCustomClaimCollateral(address,uint256)": "50387",
            "setName(string,string)": "infinite",
            "setRecoverable(bool)": "24644",
            "setTerms(string)": "infinite",
            "setTotalShares(uint256)": "28855",
            "symbol()": "infinite",
            "terms()": "infinite",
            "totalShares()": "2429",
            "totalSupply()": "2416",
            "totalValidSupply()": "4589",
            "transfer(address,uint256)": "infinite",
            "transferAndCall(address,uint256,bytes)": "infinite",
            "transferFrom(address,address,uint256)": "infinite",
            "transferOwnership(address)": "30497"
        },
        "internal": {
            "_mint(address,uint256)": "infinite"
        }
    }
}