{
    "contractName": "Shares",
    "abi": [
        {
            "inputs": [
                {
                    "internalType": "string",
                    "name": "_symbol",
                    "type": "string"
                },
                {
                    "internalType": "string",
                    "name": "_name",
                    "type": "string"
                },
                {
                    "internalType": "string",
                    "name": "_terms",
                    "type": "string"
                }
            ],
            "stateMutability": "nonpayable",
            "type": "constructor"
        },
        {
            "anonymous": false,
            "inputs": [
                {
                    "indexed": false,
                    "internalType": "string",
                    "name": "message",
                    "type": "string"
                }
            ],
            "name": "Announcement",
            "type": "event"
        },
        {
            "anonymous": false,
            "inputs": [
                {
                    "indexed": true,
                    "internalType": "address",
                    "name": "owner",
                    "type": "address"
                },
                {
                    "indexed": true,
                    "internalType": "address",
                    "name": "spender",
                    "type": "address"
                },
                {
                    "indexed": false,
                    "internalType": "uint256",
                    "name": "value",
                    "type": "uint256"
                }
            ],
            "name": "Approval",
            "type": "event"
        },
        {
            "anonymous": false,
            "inputs": [
                {
                    "indexed": true,
                    "internalType": "address",
                    "name": "lostAddress",
                    "type": "address"
                },
                {
                    "indexed": false,
                    "internalType": "uint256",
                    "name": "collateral",
                    "type": "uint256"
                }
            ],
            "name": "ClaimCleared",
            "type": "event"
        },
        {
            "anonymous": false,
            "inputs": [
                {
                    "indexed": true,
                    "internalType": "address",
                    "name": "lostAddress",
                    "type": "address"
                },
                {
                    "indexed": true,
                    "internalType": "address",
                    "name": "claimant",
                    "type": "address"
                },
                {
                    "indexed": false,
                    "internalType": "uint256",
                    "name": "collateral",
                    "type": "uint256"
                }
            ],
            "name": "ClaimDeleted",
            "type": "event"
        },
        {
            "anonymous": false,
            "inputs": [
                {
                    "indexed": true,
                    "internalType": "address",
                    "name": "lostAddress",
                    "type": "address"
                },
                {
                    "indexed": true,
                    "internalType": "address",
                    "name": "claimant",
                    "type": "address"
                },
                {
                    "indexed": false,
                    "internalType": "uint256",
                    "name": "balance",
                    "type": "uint256"
                }
            ],
            "name": "ClaimMade",
            "type": "event"
        },
        {
            "anonymous": false,
            "inputs": [
                {
                    "indexed": false,
                    "internalType": "uint256",
                    "name": "newClaimPeriodInDays",
                    "type": "uint256"
                }
            ],
            "name": "ClaimPeriodChanged",
            "type": "event"
        },
        {
            "anonymous": false,
            "inputs": [
                {
                    "indexed": true,
                    "internalType": "address",
                    "name": "lostAddress",
                    "type": "address"
                },
                {
                    "indexed": true,
                    "internalType": "address",
                    "name": "claimant",
                    "type": "address"
                },
                {
                    "indexed": false,
                    "internalType": "uint256",
                    "name": "collateral",
                    "type": "uint256"
                }
            ],
            "name": "ClaimResolved",
            "type": "event"
        },
        {
            "anonymous": false,
            "inputs": [
                {
                    "indexed": false,
                    "internalType": "address",
                    "name": "newCustomCollateralAddress",
                    "type": "address"
                },
                {
                    "indexed": false,
                    "internalType": "uint256",
                    "name": "newCustomCollareralRate",
                    "type": "uint256"
                }
            ],
            "name": "CustomClaimCollateralChanged",
            "type": "event"
        },
        {
            "anonymous": false,
            "inputs": [
                {
                    "indexed": true,
                    "internalType": "address",
                    "name": "previousOwner",
                    "type": "address"
                },
                {
                    "indexed": true,
                    "internalType": "address",
                    "name": "newOwner",
                    "type": "address"
                }
            ],
            "name": "OwnershipTransferred",
            "type": "event"
        },
        {
            "anonymous": false,
            "inputs": [],
            "name": "Pause",
            "type": "event"
        },
        {
            "anonymous": false,
            "inputs": [
                {
                    "indexed": true,
                    "internalType": "address",
                    "name": "holder",
                    "type": "address"
                },
                {
                    "indexed": false,
                    "internalType": "uint256",
                    "name": "firstInclusive",
                    "type": "uint256"
                },
                {
                    "indexed": false,
                    "internalType": "uint256",
                    "name": "lastInclusive",
                    "type": "uint256"
                }
            ],
            "name": "ShareNumberingEvent",
            "type": "event"
        },
        {
            "anonymous": false,
            "inputs": [
                {
                    "indexed": false,
                    "internalType": "address",
                    "name": "contractAddress",
                    "type": "address"
                }
            ],
            "name": "SubRegisterAdded",
            "type": "event"
        },
        {
            "anonymous": false,
            "inputs": [
                {
                    "indexed": false,
                    "internalType": "address",
                    "name": "contractAddress",
                    "type": "address"
                }
            ],
            "name": "SubRegisterRemoved",
            "type": "event"
        },
        {
            "anonymous": false,
            "inputs": [
                {
                    "indexed": true,
                    "internalType": "address",
                    "name": "holder",
                    "type": "address"
                },
                {
                    "indexed": false,
                    "internalType": "uint256",
                    "name": "amount",
                    "type": "uint256"
                },
                {
                    "indexed": false,
                    "internalType": "string",
                    "name": "message",
                    "type": "string"
                }
            ],
            "name": "TokensDeclaredInvalid",
            "type": "event"
        },
        {
            "anonymous": false,
            "inputs": [
                {
                    "indexed": true,
                    "internalType": "address",
                    "name": "from",
                    "type": "address"
                },
                {
                    "indexed": true,
                    "internalType": "address",
                    "name": "to",
                    "type": "address"
                },
                {
                    "indexed": false,
                    "internalType": "uint256",
                    "name": "value",
                    "type": "uint256"
                }
            ],
            "name": "Transfer",
            "type": "event"
        },
        {
            "anonymous": false,
            "inputs": [],
            "name": "Unpause",
            "type": "event"
        },
        {
            "inputs": [
                {
                    "internalType": "address",
                    "name": "owner",
                    "type": "address"
                },
                {
                    "internalType": "address",
                    "name": "spender",
                    "type": "address"
                }
            ],
            "name": "allowance",
            "outputs": [
                {
                    "internalType": "uint256",
                    "name": "",
                    "type": "uint256"
                }
            ],
            "stateMutability": "view",
            "type": "function"
        },
        {
            "inputs": [
                {
                    "internalType": "string",
                    "name": "message",
                    "type": "string"
                }
            ],
            "name": "announcement",
            "outputs": [],
            "stateMutability": "nonpayable",
            "type": "function"
        },
        {
            "inputs": [
                {
                    "internalType": "address",
                    "name": "spender",
                    "type": "address"
                },
                {
                    "internalType": "uint256",
                    "name": "value",
                    "type": "uint256"
                }
            ],
            "name": "approve",
            "outputs": [
                {
                    "internalType": "bool",
                    "name": "",
                    "type": "bool"
                }
            ],
            "stateMutability": "nonpayable",
            "type": "function"
        },
        {
            "inputs": [
                {
                    "internalType": "address",
                    "name": "account",
                    "type": "address"
                }
            ],
            "name": "balanceOf",
            "outputs": [
                {
                    "internalType": "uint256",
                    "name": "",
                    "type": "uint256"
                }
            ],
            "stateMutability": "view",
            "type": "function"
        },
        {
            "inputs": [
                {
                    "internalType": "address",
                    "name": "holder",
                    "type": "address"
                }
            ],
            "name": "balanceOfDeep",
            "outputs": [
                {
                    "internalType": "uint256",
                    "name": "",
                    "type": "uint256"
                }
            ],
            "stateMutability": "view",
            "type": "function"
        },
        {
            "inputs": [
                {
                    "internalType": "uint256",
                    "name": "_amount",
                    "type": "uint256"
                }
            ],
            "name": "burn",
            "outputs": [],
            "stateMutability": "nonpayable",
            "type": "function"
        },
        {
            "inputs": [],
            "name": "claimPeriod",
            "outputs": [
                {
                    "internalType": "uint256",
                    "name": "",
                    "type": "uint256"
                }
            ],
            "stateMutability": "view",
            "type": "function"
        },
        {
            "inputs": [
                {
                    "internalType": "address",
                    "name": "",
                    "type": "address"
                }
            ],
            "name": "claimingDisabled",
            "outputs": [
                {
                    "internalType": "bool",
                    "name": "",
                    "type": "bool"
                }
            ],
            "stateMutability": "view",
            "type": "function"
        },
        {
            "inputs": [
                {
                    "internalType": "address",
                    "name": "",
                    "type": "address"
                }
            ],
            "name": "claims",
            "outputs": [
                {
                    "internalType": "address",
                    "name": "claimant",
                    "type": "address"
                },
                {
                    "internalType": "uint256",
                    "name": "collateral",
                    "type": "uint256"
                },
                {
                    "internalType": "uint256",
                    "name": "timestamp",
                    "type": "uint256"
                },
                {
                    "internalType": "address",
                    "name": "currencyUsed",
                    "type": "address"
                }
            ],
            "stateMutability": "view",
            "type": "function"
        },
        {
            "inputs": [],
            "name": "clearClaim",
            "outputs": [],
            "stateMutability": "nonpayable",
            "type": "function"
        },
        {
            "inputs": [],
            "name": "countSubregisters",
            "outputs": [
                {
                    "internalType": "uint256",
                    "name": "",
                    "type": "uint256"
                }
            ],
            "stateMutability": "view",
            "type": "function"
        },
        {
            "inputs": [],
            "name": "customCollateralAddress",
            "outputs": [
                {
                    "internalType": "address",
                    "name": "",
                    "type": "address"
                }
            ],
            "stateMutability": "view",
            "type": "function"
        },
        {
            "inputs": [],
            "name": "customCollateralRate",
            "outputs": [
                {
                    "internalType": "uint256",
                    "name": "",
                    "type": "uint256"
                }
            ],
            "stateMutability": "view",
            "type": "function"
        },
        {
            "inputs": [],
            "name": "decimals",
            "outputs": [
                {
                    "internalType": "uint8",
                    "name": "",
                    "type": "uint8"
                }
            ],
            "stateMutability": "view",
            "type": "function"
        },
        {
            "inputs": [
                {
                    "internalType": "address",
                    "name": "holder",
                    "type": "address"
                },
                {
                    "internalType": "uint256",
                    "name": "amount",
                    "type": "uint256"
                },
                {
                    "internalType": "string",
                    "name": "message",
                    "type": "string"
                }
            ],
            "name": "declareInvalid",
            "outputs": [],
            "stateMutability": "nonpayable",
            "type": "function"
        },
        {
            "inputs": [
                {
                    "internalType": "address",
                    "name": "collateralType",
                    "type": "address"
                },
                {
                    "internalType": "address",
                    "name": "lostAddress",
                    "type": "address"
                }
            ],
            "name": "declareLost",
            "outputs": [],
            "stateMutability": "nonpayable",
            "type": "function"
        },
        {
            "inputs": [
                {
                    "internalType": "address",
                    "name": "spender",
                    "type": "address"
                },
                {
                    "internalType": "uint256",
                    "name": "subtractedValue",
                    "type": "uint256"
                }
            ],
            "name": "decreaseAllowance",
            "outputs": [
                {
                    "internalType": "bool",
                    "name": "",
                    "type": "bool"
                }
            ],
            "stateMutability": "nonpayable",
            "type": "function"
        },
        {
            "inputs": [
                {
                    "internalType": "address",
                    "name": "lostAddress",
                    "type": "address"
                }
            ],
            "name": "deleteClaim",
            "outputs": [],
            "stateMutability": "nonpayable",
            "type": "function"
        },
        {
            "inputs": [],
            "name": "getClaimDeleter",
            "outputs": [
                {
                    "internalType": "address",
                    "name": "",
                    "type": "address"
                }
            ],
            "stateMutability": "view",
            "type": "function"
        },
        {
            "inputs": [
                {
                    "internalType": "address",
                    "name": "lostAddress",
                    "type": "address"
                }
            ],
            "name": "getClaimant",
            "outputs": [
                {
                    "internalType": "address",
                    "name": "",
                    "type": "address"
                }
            ],
            "stateMutability": "view",
            "type": "function"
        },
        {
            "inputs": [
                {
                    "internalType": "address",
                    "name": "lostAddress",
                    "type": "address"
                }
            ],
            "name": "getCollateral",
            "outputs": [
                {
                    "internalType": "uint256",
                    "name": "",
                    "type": "uint256"
                }
            ],
            "stateMutability": "view",
            "type": "function"
        },
        {
            "inputs": [
                {
                    "internalType": "address",
                    "name": "collateralType",
                    "type": "address"
                }
            ],
            "name": "getCollateralRate",
            "outputs": [
                {
                    "internalType": "uint256",
                    "name": "",
                    "type": "uint256"
                }
            ],
            "stateMutability": "view",
            "type": "function"
        },
        {
            "inputs": [
                {
                    "internalType": "address",
                    "name": "lostAddress",
                    "type": "address"
                }
            ],
            "name": "getCollateralType",
            "outputs": [
                {
                    "internalType": "address",
                    "name": "",
                    "type": "address"
                }
            ],
            "stateMutability": "view",
            "type": "function"
        },
        {
            "inputs": [
                {
                    "internalType": "address",
                    "name": "lostAddress",
                    "type": "address"
                }
            ],
            "name": "getTimeStamp",
            "outputs": [
                {
                    "internalType": "uint256",
                    "name": "",
                    "type": "uint256"
                }
            ],
            "stateMutability": "view",
            "type": "function"
        },
        {
            "inputs": [
                {
                    "internalType": "address",
                    "name": "spender",
                    "type": "address"
                },
                {
                    "internalType": "uint256",
                    "name": "addedValue",
                    "type": "uint256"
                }
            ],
            "name": "increaseAllowance",
            "outputs": [
                {
                    "internalType": "bool",
                    "name": "",
                    "type": "bool"
                }
            ],
            "stateMutability": "nonpayable",
            "type": "function"
        },
        {
            "inputs": [],
            "name": "invalidTokens",
            "outputs": [
                {
                    "internalType": "uint256",
                    "name": "",
                    "type": "uint256"
                }
            ],
            "stateMutability": "view",
            "type": "function"
        },
        {
            "inputs": [
                {
                    "internalType": "address",
                    "name": "target",
                    "type": "address"
                }
            ],
            "name": "isClaimsEnabled",
            "outputs": [
                {
                    "internalType": "bool",
                    "name": "",
                    "type": "bool"
                }
            ],
            "stateMutability": "view",
            "type": "function"
        },
        {
            "inputs": [
                {
                    "internalType": "address",
                    "name": "shareholder",
                    "type": "address"
                },
                {
                    "internalType": "uint256",
                    "name": "_amount",
                    "type": "uint256"
                }
            ],
            "name": "mint",
            "outputs": [],
            "stateMutability": "nonpayable",
            "type": "function"
        },
        {
            "inputs": [
                {
                    "internalType": "address",
                    "name": "shareholder",
                    "type": "address"
                },
                {
                    "internalType": "address",
                    "name": "callee",
                    "type": "address"
                },
                {
                    "internalType": "uint256",
                    "name": "amount",
                    "type": "uint256"
                },
                {
                    "internalType": "bytes",
                    "name": "data",
                    "type": "bytes"
                }
            ],
            "name": "mintAndCall",
            "outputs": [],
            "stateMutability": "nonpayable",
            "type": "function"
        },
        {
            "inputs": [
                {
                    "internalType": "address",
                    "name": "shareholder",
                    "type": "address"
                },
                {
                    "internalType": "uint256",
                    "name": "firstShareNumber",
                    "type": "uint256"
                },
                {
                    "internalType": "uint256",
                    "name": "lastShareNumber",
                    "type": "uint256"
                }
            ],
            "name": "mintNumbered",
            "outputs": [],
            "stateMutability": "nonpayable",
            "type": "function"
        },
        {
            "inputs": [
                {
                    "internalType": "address",
                    "name": "shareholder",
                    "type": "address"
                },
                {
                    "internalType": "address",
                    "name": "callee",
                    "type": "address"
                },
                {
                    "internalType": "uint256",
                    "name": "amount",
                    "type": "uint256"
                },
                {
                    "internalType": "bytes",
                    "name": "data",
                    "type": "bytes"
                },
                {
                    "internalType": "uint256",
                    "name": "firstShareNumber",
                    "type": "uint256"
                },
                {
                    "internalType": "uint256",
                    "name": "lastShareNumber",
                    "type": "uint256"
                }
            ],
            "name": "mintNumberedAndCall",
            "outputs": [],
            "stateMutability": "nonpayable",
            "type": "function"
        },
        {
            "inputs": [],
            "name": "name",
            "outputs": [
                {
                    "internalType": "string",
                    "name": "",
                    "type": "string"
                }
            ],
            "stateMutability": "view",
            "type": "function"
        },
        {
            "inputs": [],
            "name": "owner",
            "outputs": [
                {
                    "internalType": "address",
                    "name": "",
                    "type": "address"
                }
            ],
            "stateMutability": "view",
            "type": "function"
        },
        {
            "inputs": [],
            "name": "pause",
            "outputs": [],
            "stateMutability": "nonpayable",
            "type": "function"
        },
        {
            "inputs": [],
            "name": "paused",
            "outputs": [
                {
                    "internalType": "bool",
                    "name": "",
                    "type": "bool"
                }
            ],
            "stateMutability": "view",
            "type": "function"
        },
        {
            "inputs": [
                {
                    "internalType": "address",
                    "name": "contractAddress",
                    "type": "address"
                }
            ],
            "name": "recognizeSubRegister",
            "outputs": [],
            "stateMutability": "nonpayable",
            "type": "function"
        },
        {
            "inputs": [
                {
                    "internalType": "address",
                    "name": "contractAddress",
                    "type": "address"
                }
            ],
            "name": "removeSubRegister",
            "outputs": [],
            "stateMutability": "nonpayable",
            "type": "function"
        },
        {
            "inputs": [],
            "name": "renounceOwnership",
            "outputs": [],
            "stateMutability": "nonpayable",
            "type": "function"
        },
        {
            "inputs": [
                {
                    "internalType": "address",
                    "name": "lostAddress",
                    "type": "address"
                }
            ],
            "name": "resolveClaim",
            "outputs": [],
            "stateMutability": "nonpayable",
            "type": "function"
        },
        {
            "inputs": [
                {
                    "internalType": "uint256",
                    "name": "claimPeriodInDays",
                    "type": "uint256"
                }
            ],
            "name": "setClaimPeriod",
            "outputs": [],
            "stateMutability": "nonpayable",
            "type": "function"
        },
        {
            "inputs": [
                {
                    "internalType": "bool",
                    "name": "enabled",
                    "type": "bool"
                }
            ],
            "name": "setClaimable",
            "outputs": [],
            "stateMutability": "nonpayable",
            "type": "function"
        },
        {
            "inputs": [
                {
                    "internalType": "address",
                    "name": "collateral",
                    "type": "address"
                },
                {
                    "internalType": "uint256",
                    "name": "rate",
                    "type": "uint256"
                }
            ],
            "name": "setCustomClaimCollateral",
            "outputs": [],
            "stateMutability": "nonpayable",
            "type": "function"
        },
        {
            "inputs": [
                {
                    "internalType": "string",
                    "name": "_symbol",
                    "type": "string"
                },
                {
                    "internalType": "string",
                    "name": "_name",
                    "type": "string"
                }
            ],
            "name": "setName",
            "outputs": [],
            "stateMutability": "nonpayable",
            "type": "function"
        },
        {
            "inputs": [
                {
                    "internalType": "string",
                    "name": "_terms",
                    "type": "string"
                }
            ],
            "name": "setTerms",
            "outputs": [],
            "stateMutability": "nonpayable",
            "type": "function"
        },
        {
            "inputs": [
                {
                    "internalType": "uint256",
                    "name": "_newTotalShares",
                    "type": "uint256"
                }
            ],
            "name": "setTotalShares",
            "outputs": [],
            "stateMutability": "nonpayable",
            "type": "function"
        },
        {
            "inputs": [
                {
                    "internalType": "uint256",
                    "name": "",
                    "type": "uint256"
                }
            ],
            "name": "subregisters",
            "outputs": [
                {
                    "internalType": "address",
                    "name": "",
                    "type": "address"
                }
            ],
            "stateMutability": "view",
            "type": "function"
        },
        {
            "inputs": [],
            "name": "symbol",
            "outputs": [
                {
                    "internalType": "string",
                    "name": "",
                    "type": "string"
                }
            ],
            "stateMutability": "view",
            "type": "function"
        },
        {
            "inputs": [],
            "name": "terms",
            "outputs": [
                {
                    "internalType": "string",
                    "name": "",
                    "type": "string"
                }
            ],
            "stateMutability": "view",
            "type": "function"
        },
        {
            "inputs": [],
            "name": "totalShares",
            "outputs": [
                {
                    "internalType": "uint256",
                    "name": "",
                    "type": "uint256"
                }
            ],
            "stateMutability": "view",
            "type": "function"
        },
        {
            "inputs": [],
            "name": "totalSupply",
            "outputs": [
                {
                    "internalType": "uint256",
                    "name": "",
                    "type": "uint256"
                }
            ],
            "stateMutability": "view",
            "type": "function"
        },
        {
            "inputs": [],
            "name": "totalValidSupply",
            "outputs": [
                {
                    "internalType": "uint256",
                    "name": "",
                    "type": "uint256"
                }
            ],
            "stateMutability": "view",
            "type": "function"
        },
        {
            "inputs": [
                {
                    "internalType": "address",
                    "name": "recipient",
                    "type": "address"
                },
                {
                    "internalType": "uint256",
                    "name": "amount",
                    "type": "uint256"
                }
            ],
            "name": "transfer",
            "outputs": [
                {
                    "internalType": "bool",
                    "name": "",
                    "type": "bool"
                }
            ],
            "stateMutability": "nonpayable",
            "type": "function"
        },
        {
            "inputs": [
                {
                    "internalType": "address",
                    "name": "recipient",
                    "type": "address"
                },
                {
                    "internalType": "uint256",
                    "name": "amount",
                    "type": "uint256"
                },
                {
                    "internalType": "bytes",
                    "name": "data",
                    "type": "bytes"
                }
            ],
            "name": "transferAndCall",
            "outputs": [
                {
                    "internalType": "bool",
                    "name": "",
                    "type": "bool"
                }
            ],
            "stateMutability": "nonpayable",
            "type": "function"
        },
        {
            "inputs": [
                {
                    "internalType": "address",
                    "name": "sender",
                    "type": "address"
                },
                {
                    "internalType": "address",
                    "name": "recipient",
                    "type": "address"
                },
                {
                    "internalType": "uint256",
                    "name": "amount",
                    "type": "uint256"
                }
            ],
            "name": "transferFrom",
            "outputs": [
                {
                    "internalType": "bool",
                    "name": "",
                    "type": "bool"
                }
            ],
            "stateMutability": "nonpayable",
            "type": "function"
        },
        {
            "inputs": [
                {
                    "internalType": "address",
                    "name": "newOwner",
                    "type": "address"
                }
            ],
            "name": "transferOwnership",
            "outputs": [],
            "stateMutability": "nonpayable",
            "type": "function"
        },
        {
            "inputs": [],
            "name": "unpause",
            "outputs": [],
            "stateMutability": "nonpayable",
            "type": "function"
        }
    ],
    "bytecode": "608060405262ed4e006004556009805460ff60a01b191690556000600d819055600e553480156200002f57600080fd5b5060405162003bb838038062003bb8833981810160405260608110156200005557600080fd5b81019080805160405193929190846401000000008211156200007657600080fd5b9083019060208201858111156200008c57600080fd5b8251640100000000811182820188101715620000a757600080fd5b82525081516020918201929091019080838360005b83811015620000d6578181015183820152602001620000bc565b50505050905090810190601f168015620001045780820380516001836020036101000a031916815260200191505b50604052602001805160405193929190846401000000008211156200012857600080fd5b9083019060208201858111156200013e57600080fd5b82516401000000008111828201881017156200015957600080fd5b82525081516020918201929091019080838360005b83811015620001885781810151838201526020016200016e565b50505050905090810190601f168015620001b65780820380516001836020036101000a031916815260200191505b5060405260200180516040519392919084640100000000821115620001da57600080fd5b908301906020820185811115620001f057600080fd5b82516401000000008111828201881017156200020b57600080fd5b82525081516020918201929091019080838360005b838110156200023a57818101518382015260200162000220565b50505050905090810190601f168015620002685780820380516001836020036101000a031916815260200191505b5060408190526003805460ff19169055600980546001600160a01b031916339081179091559350839250600091507f8be0079c531659141344cd1fd0a4f28419497f9722a3daafe3b4186f6b6457e0908290a350620002c88383620002e7565b8051620002dd90600c906020840190620004f7565b5050505062000593565b6009546001600160a01b0316331462000347576040805162461bcd60e51b815260206004820181905260248201527f4f776e61626c653a2063616c6c6572206973206e6f7420746865206f776e6572604482015290519081900360640190fd5b81516200035c90600b906020850190620004f7565b5080516200037290600a906020840190620004f7565b507f07ce702fc13ca0620c174dab22996a6d5fd9e7accb663555a4e85323692706ba818360405160200180807002730b6b2903ab83230ba32b2103a379d1607d1b81525060110183805190602001908083835b60208310620003e65780518252601f199092019160209182019101620003c5565b51815160209384036101000a600019018019909216911617905261040560f31b919093019081528451600290910192850191508083835b602083106200043e5780518252601f1990920191602091820191016200041d565b51815160209384036101000a6000190180199092169116179052602960f81b9190930190815260408051808303601e1901815260018301918290528482528051602184015280519097509095508594506041909101928601915080838360005b83811015620004b85781810151838201526020016200049e565b50505050905090810190601f168015620004e65780820380516001836020036101000a031916815260200191505b509250505060405180910390a15050565b828054600181600116156101000203166002900490600052602060002090601f016020900481019282601f106200053a57805160ff19168380011785556200056a565b828001600101855582156200056a579182015b828111156200056a5782518255916020019190600101906200054d565b50620005789291506200057c565b5090565b5b808211156200057857600081556001016200057d565b61361580620005a36000396000f3fe608060405234801561001057600080fd5b50600436106103785760003560e01c80636b03ed5f116101d3578063a457c2d711610104578063d5025625116100a2578063eb470ebf1161007c578063eb470ebf14610d1d578063f2fde38b14610d43578063f54fc06014610d69578063f66f145a14610df757610378565b8063d502562514610c53578063dd62ed3e14610c5b578063eb1bf08914610c8957610378565b8063b0d04c7a116100de578063b0d04c7a14610ba5578063c6788bdd14610bad578063cc51e14314610c10578063d2c04f4314610c3657610378565b8063a457c2d714610b30578063a77384c114610b5c578063a9059cbb14610b7957610378565b80638456cb591161017157806394d645a81161014b57806394d645a814610ab657806395d89b4114610adc5780639b56d6c914610ae4578063a26cf59f14610b0a57610378565b80638456cb5914610a805780638da5cb5b14610a885780638e0597c114610a9057610378565b8063715018a6116101ad578063715018a6146109a657806377e071ad146109ae57806378f86afc146109d45780637dc2cd9814610a7857610378565b80636b03ed5f146109705780636e3baaf51461097857806370a082311461098057610378565b806339509351116102ad57806342966c681161024b5780635c975abb116102255780635c975abb146108ab5780635d6624b7146108b3578063609181171461093657806369f721e21461093e57610378565b806342966c68146107485780634ae5e630146107655780635c707f071461078257610378565b80633bcc45ba116102875780633bcc45ba1461066b5780633f4ba83a146106915780634000aea01461069957806340c10f191461071c57610378565b8063395093511461060b5780633a1cdf32146106375780633a98ef391461066357610378565b806323b872dd1161031a578063313ce567116102f4578063313ce567146105a057806332a7ae95146105be578063378c93ad146105e457806337a8129c1461060357610378565b806323b872dd1461053457806326773ddd1461056a5780632a0a4ed51461059857610378565b806318160ddd1161035657806318160ddd1461045e5780631993982d146104785780631e3b9de5146104a05780631f0f06aa146104c657610378565b806306fdde031461037d578063095ea7b3146103fa5780630c6f0e5d1461043a575b600080fd5b610385610e1d565b6040805160208082528351818301528351919283929083019185019080838360005b838110156103bf5781810151838201526020016103a7565b50505050905090810190601f1680156103ec5780820380516001836020036101000a031916815260200191505b509250505060405180910390f35b6104266004803603604081101561041057600080fd5b506001600160a01b038135169060200135610eab565b604080519115158252519081900360200190f35b610442610ec2565b604080516001600160a01b039092168252519081900360200190f35b610466610ed1565b60408051918252519081900360200190f35b61049e6004803603602081101561048e57600080fd5b50356001600160a01b0316610ed7565b005b610442600480360360208110156104b657600080fd5b50356001600160a01b031661108e565b61049e600480360360208110156104dc57600080fd5b810190602081018135600160201b8111156104f657600080fd5b82018360208201111561050857600080fd5b803590602001918460018302840111600160201b8311171561052957600080fd5b5090925090506110af565b6104266004803603606081101561054a57600080fd5b506001600160a01b03813581169160208101359091169060400135611160565b61049e6004803603604081101561058057600080fd5b506001600160a01b03813581169160200135166111b1565b6104426114cc565b6105a86114db565b6040805160ff9092168252519081900360200190f35b61049e600480360360208110156105d457600080fd5b50356001600160a01b03166114e4565b61049e600480360360208110156105fa57600080fd5b50351515611742565b610466611761565b6104266004803603604081101561062157600080fd5b506001600160a01b038135169060200135611767565b61049e6004803603604081101561064d57600080fd5b506001600160a01b03813516906020013561179d565b6104666117f4565b6104426004803603602081101561068157600080fd5b50356001600160a01b03166117fa565b61049e61181b565b610426600480360360608110156106af57600080fd5b6001600160a01b0382351691602081013591810190606081016040820135600160201b8111156106de57600080fd5b8201836020820111156106f057600080fd5b803590602001918460018302840111600160201b8311171561071157600080fd5b5090925090506118b6565b61049e6004803603604081101561073257600080fd5b506001600160a01b038135169060200135611978565b61049e6004803603602081101561075e57600080fd5b50356119cf565b6104426004803603602081101561077b57600080fd5b5035611a44565b61049e6004803603604081101561079857600080fd5b810190602081018135600160201b8111156107b257600080fd5b8201836020820111156107c457600080fd5b803590602001918460018302840111600160201b831117156107e557600080fd5b91908080601f0160208091040260200160405190810160405280939291908181526020018383808284376000920191909152509295949360208101935035915050600160201b81111561083757600080fd5b82018360208201111561084957600080fd5b803590602001918460018302840111600160201b8311171561086a57600080fd5b91908080601f016020809104026020016040519081016040528093929190818152602001838380828437600092019190915250929550611a6b945050505050565b610426611c5d565b61049e600480360360608110156108c957600080fd5b6001600160a01b0382351691602081013591810190606081016040820135600160201b8111156108f857600080fd5b82018360208201111561090a57600080fd5b803590602001918460018302840111600160201b8311171561092b57600080fd5b509092509050611c6d565b610466611d90565b61049e6004803603606081101561095457600080fd5b506001600160a01b038135169060208101359060400135611d96565b61049e611e49565b610466611fa9565b6104666004803603602081101561099657600080fd5b50356001600160a01b0316611faf565b61049e611fca565b610466600480360360208110156109c457600080fd5b50356001600160a01b0316612061565b61049e600480360360208110156109ea57600080fd5b810190602081018135600160201b811115610a0457600080fd5b820183602082011115610a1657600080fd5b803590602001918460018302840111600160201b83111715610a3757600080fd5b91908080601f0160208091040260200160405190810160405280939291908181526020018383808284376000920191909152509295506120a3945050505050565b610466612214565b61049e61221a565b6104426122bc565b61042660048036036020811015610aa657600080fd5b50356001600160a01b03166122cb565b61049e60048036036020811015610acc57600080fd5b50356001600160a01b03166122e0565b6103856125b5565b61046660048036036020811015610afa57600080fd5b50356001600160a01b0316612610565b61046660048036036020811015610b2057600080fd5b50356001600160a01b031661262e565b61042660048036036040811015610b4657600080fd5b506001600160a01b0381351690602001356126f7565b61049e60048036036020811015610b7257600080fd5b503561272d565b61042660048036036040811015610b8f57600080fd5b506001600160a01b0381351690602001356127c5565b61046661281c565b610bd360048036036020811015610bc357600080fd5b50356001600160a01b0316612832565b60405180856001600160a01b03168152602001848152602001838152602001826001600160a01b0316815260200194505050505060405180910390f35b61049e60048036036020811015610c2657600080fd5b50356001600160a01b0316612864565b61049e60048036036020811015610c4c57600080fd5b503561297a565b6103856129d0565b61046660048036036040811015610c7157600080fd5b506001600160a01b0381358116916020013516612a2b565b61049e600480360360c0811015610c9f57600080fd5b6001600160a01b03823581169260208101359091169160408201359190810190608081016060820135600160201b811115610cd957600080fd5b820183602082011115610ceb57600080fd5b803590602001918460018302840111600160201b83111715610d0c57600080fd5b919350915080359060200135612a56565b61046660048036036020811015610d3357600080fd5b50356001600160a01b0316612b0d565b61049e60048036036020811015610d5957600080fd5b50356001600160a01b0316612b2b565b61049e60048036036080811015610d7f57600080fd5b6001600160a01b03823581169260208101359091169160408201359190810190608081016060820135600160201b811115610db957600080fd5b820183602082011115610dcb57600080fd5b803590602001918460018302840111600160201b83111715610dec57600080fd5b509092509050612c19565b61042660048036036020811015610e0d57600080fd5b50356001600160a01b0316612ccd565b600a805460408051602060026001851615610100026000190190941693909304601f81018490048402820184019092528181529291830182828015610ea35780601f10610e7857610100808354040283529160200191610ea3565b820191906000526020600020905b815481529060010190602001808311610e8657829003601f168201915b505050505081565b6000610eb8338484612cec565b5060015b92915050565b6007546001600160a01b031681565b60025490565b6009546001600160a01b03163314610f24576040805162461bcd60e51b815260206004820181905260248201526000805160206134df833981519152604482015290519081900360640190fd5b610f2d81611faf565b15610f695760405162461bcd60e51b81526004018080602001828103825260278152602001806134b86027913960400191505060405180910390fd5b60005b600f5481101561108a57816001600160a01b0316600f8281548110610f8d57fe5b6000918252602090912001546001600160a01b0316141561108257600f80546000198101908110610fba57fe5b600091825260209091200154600f80546001600160a01b039092169183908110610fe057fe5b9060005260206000200160006101000a8154816001600160a01b0302191690836001600160a01b03160217905550600f80548061101957fe5b6001900381819060005260206000200160006101000a8154906001600160a01b03021916905590557fc3f6f866f10921ec4857ee8fe667183cd1751e53ed509c992689bece36ca18988260405180826001600160a01b0316815260200191505060405180910390a15b600101610f6c565b5050565b6001600160a01b03808216600090815260056020526040902054165b919050565b6009546001600160a01b031633146110fc576040805162461bcd60e51b815260206004820181905260248201526000805160206134df833981519152604482015290519081900360640190fd5b7f07ce702fc13ca0620c174dab22996a6d5fd9e7accb663555a4e85323692706ba828260405180806020018281038252848482818152602001925080828437600083820152604051601f909101601f19169092018290039550909350505050a15050565b600061116d848484612dd8565b6001600160a01b0384166000908152600160209081526040808320338085529252909120546111a79186916111a29086612e37565b612cec565b5060019392505050565b6111ba81612ccd565b61120b576040805162461bcd60e51b815260206004820181905260248201527f436c61696d732064697361626c656420666f7220746869732061646472657373604482015290519081900360640190fd5b600061121683612061565b905060008111611266576040805162461bcd60e51b8152602060048201526016602482015275155b9cdd5c1c1bdc9d19590818dbdb1b185d195c985b60521b604482015290519081900360640190fd5b33600061127284611faf565b905060006112808285612e49565b905085826112d5576040805162461bcd60e51b815260206004820152601f60248201527f436c61696d6564206164647265737320686f6c6473206e6f2073686172657300604482015290519081900360640190fd5b6001600160a01b03861660009081526005602052604090206001015415611343576040805162461bcd60e51b815260206004820152601760248201527f4164647265737320616c726561647920636c61696d6564000000000000000000604482015290519081900360640190fd5b604080516323b872dd60e01b81526001600160a01b038681166004830152306024830152604482018590529151918316916323b872dd916064808201926020929091908290030181600087803b15801561139c57600080fd5b505af11580156113b0573d6000803e3d6000fd5b505050506040513d60208110156113c657600080fd5b5051611416576040805162461bcd60e51b815260206004820152601a60248201527910dbdb1b185d195c985b081d1c985b9cd9995c8819985a5b195960321b604482015290519081900360640190fd5b604080516080810182526001600160a01b038087168083526020808401878152428587019081528d8516606087019081528d8616600081815260058652899020975188549088166001600160a01b0319918216178955935160018901559151600288015551600390960180549690951695909116949094179092558351878152935190937f1982ca8958fc8a8176cb52be509260f4bc5af7ce04e1533711793f1c56dd535992908290030190a350505050505050565b60006114d66122bc565b905090565b60035460ff1681565b6114ec6114cc565b6001600160a01b0316336001600160a01b031614611551576040805162461bcd60e51b815260206004820152601860248201527f596f752063616e6e6f742064656c65746520636c61696d730000000000000000604482015290519081900360640190fd5b611559613326565b506001600160a01b0380821660009081526005602090815260409182902082516080810184528154851681526001820154928101839052600282015493810193909352600301549092166060820181905290916115ee576040805162461bcd60e51b815260206004820152600e60248201526d139bc818db185a5b48199bdd5b9960921b604482015290519081900360640190fd5b6001600160a01b03808416600090815260056020908152604080832080546001600160a01b031990811682556001820185905560028201859055600390910180549091169055855186830151825163a9059cbb60e01b81529186166004830152602482015290519385169363a9059cbb93604480840194938390030190829087803b15801561167c57600080fd5b505af1158015611690573d6000803e3d6000fd5b505050506040513d60208110156116a657600080fd5b50516116f6576040805162461bcd60e51b815260206004820152601a60248201527910dbdb1b185d195c985b081d1c985b9cd9995c8819985a5b195960321b604482015290519081900360640190fd5b815160208084015160408051918252516001600160a01b03938416938716927fbb036e629a9f4c0897ee5d48440dfdb36f7e772117723a2ed603a6514244c2d5928290030190a3505050565b336000908152600660205260409020805460ff19169115919091179055565b600e5481565b3360008181526001602090815260408083206001600160a01b03871684529091528120549091610eb89185906111a29086612e6e565b6009546001600160a01b031633146117ea576040805162461bcd60e51b815260206004820181905260248201526000805160206134df833981519152604482015290519081900360640190fd5b61108a8282612e7b565b600d5481565b6001600160a01b039081166000908152600560205260409020600301541690565b6009546001600160a01b03163314611868576040805162461bcd60e51b815260206004820181905260248201526000805160206134df833981519152604482015290519081900360640190fd5b600954600160a01b900460ff1661187e57600080fd5b6009805460ff60a01b191690556040517f7805862f689e2f13df9f062ff482ad3ad112aca9e0847911ed832e158c525b3390600090a1565b6000806118c386866127c5565b9050801561196f57856001600160a01b031663a4c0ed36338787876040518563ffffffff1660e01b815260040180856001600160a01b03168152602001848152602001806020018281038252848482818152602001925080828437600081840152601f19601f82011690508083019250505095505050505050600060405180830381600087803b15801561195657600080fd5b505af115801561196a573d6000803e3d6000fd5b505050505b95945050505050565b6009546001600160a01b031633146119c5576040805162461bcd60e51b815260206004820181905260248201526000805160206134df833981519152604482015290519081900360640190fd5b61108a8282612f4e565b6119d833611faf565b811115611a2c576040805162461bcd60e51b815260206004820152601b60248201527f4e6f7420656e6f7567682073686172657320617661696c61626c650000000000604482015290519081900360640190fd5b611a37333083612dd8565b611a413082612fa4565b50565b600f8181548110611a5157fe5b6000918252602090912001546001600160a01b0316905081565b6009546001600160a01b03163314611ab8576040805162461bcd60e51b815260206004820181905260248201526000805160206134df833981519152604482015290519081900360640190fd5b8151611acb90600b906020850190613360565b508051611adf90600a906020840190613360565b507f07ce702fc13ca0620c174dab22996a6d5fd9e7accb663555a4e85323692706ba818360405160200180807002730b6b2903ab83230ba32b2103a379d1607d1b81525060110183805190602001908083835b60208310611b515780518252601f199092019160209182019101611b32565b51815160209384036101000a600019018019909216911617905261040560f31b919093019081528451600290910192850191508083835b60208310611ba75780518252601f199092019160209182019101611b88565b51815160209384036101000a6000190180199092169116179052602960f81b9190930190815260408051808303601e1901815260018301918290528482528051602184015280519097509095508594506041909101928601915080838360005b83811015611c1f578181015183820152602001611c07565b50505050905090810190601f168015611c4c5780820380516001836020036101000a031916815260200191505b509250505060405180910390a15050565b600954600160a01b900460ff1681565b6009546001600160a01b03163314611cba576040805162461bcd60e51b815260206004820181905260248201526000805160206134df833981519152604482015290519081900360640190fd5b6000611cc585611faf565b905080841115611d065760405162461bcd60e51b815260040180806020018281038252603281526020018061345f6032913960400191505060405180910390fd5b600e54611d139085612e6e565b600e5560408051858152602081018281529181018490526001600160a01b038716917f0a605cd1294f60fa3b73548ac68428f33300a051f225afcdcc75e56083c96ee79187918791879160608201848480828437600083820152604051601f909101601f1916909201829003965090945050505050a25050505050565b60085481565b6009546001600160a01b03163314611de3576040805162461bcd60e51b815260206004820181905260248201526000805160206134df833981519152604482015290519081900360640190fd5b604080518381526020810183905281516001600160a01b038616927f7b37b2b4bba7b5ea40a69f93db727c289fbbaa632be8186cfa85e0297e001319928290030190a2611e4483611e3f6001611e398587612e37565b90612e6e565b612f4e565b505050565b3360009081526005602052604090206001015415611fa75733600081815260056020908152604080832060018101805460038301805484546001600160a01b03199081168655938890556002909401879055918316909155825163a9059cbb60e01b8152600481019690965260248601819052915191946001600160a01b0390911693849363a9059cbb93604480850194929391928390030190829087803b158015611ef457600080fd5b505af1158015611f08573d6000803e3d6000fd5b505050506040513d6020811015611f1e57600080fd5b5051611f6e576040805162461bcd60e51b815260206004820152601a60248201527910dbdb1b185d195c985b081d1c985b9cd9995c8819985a5b195960321b604482015290519081900360640190fd5b60408051838152905133917f203627483d943880619f4b7e0cca21dbefd6204b4d85b124eb99540e17ba86dd919081900360200190a250505b565b600f5490565b6001600160a01b031660009081526020819052604090205490565b6009546001600160a01b03163314612017576040805162461bcd60e51b815260206004820181905260248201526000805160206134df833981519152604482015290519081900360640190fd5b6009546040516000916001600160a01b0316907f8be0079c531659141344cd1fd0a4f28419497f9722a3daafe3b4186f6b6457e0908390a3600980546001600160a01b0319169055565b60006001600160a01b03821630141561207c575060016110aa565b6007546001600160a01b038381169116141561209b57506008546110aa565b5060006110aa565b6009546001600160a01b031633146120f0576040805162461bcd60e51b815260206004820181905260248201526000805160206134df833981519152604482015290519081900360640190fd5b805161210390600c906020840190613360565b507f07ce702fc13ca0620c174dab22996a6d5fd9e7accb663555a4e85323692706ba8160405160200180806e02a32b936b9903ab83230ba32b21d1608d1b815250600f0182805190602001908083835b602083106121725780518252601f199092019160209182019101612153565b51815160209384036101000a60001901801990921691161790526040805192909401828103601f190183528085528181528251818301528251929650945084938401925085019080838360005b838110156121d75781810151838201526020016121bf565b50505050905090810190601f1680156122045780820380516001836020036101000a031916815260200191505b509250505060405180910390a150565b60045481565b6009546001600160a01b03163314612267576040805162461bcd60e51b815260206004820181905260248201526000805160206134df833981519152604482015290519081900360640190fd5b600954600160a01b900460ff161561227e57600080fd5b6009805460ff60a01b1916600160a01b1790556040517f6985a02210a168e66602d3235cb6db0e70f92b3ba4d376a33c0f3d9434bff62590600090a1565b6009546001600160a01b031690565b60066020526000908152604090205460ff1681565b6122e8613326565b506001600160a01b038082166000908152600560209081526040918290208251608081018452815485168152600182015492810183905260028201549381019390935260030154909216606082018190529091908161237f576040805162461bcd60e51b815260206004820152600e60248201526d139bc818db185a5b48199bdd5b9960921b604482015290519081900360640190fd5b82516001600160a01b031633146123dd576040805162461bcd60e51b815260206004820152601f60248201527f4f6e6c7920636c61696d616e742063616e207265736f6c766520636c61696d00604482015290519081900360640190fd5b426123f76004548560400151612e6e90919063ffffffff16565b111561244a576040805162461bcd60e51b815260206004820152601960248201527f436c61696d20706572696f64206e6f74206f7665722079657400000000000000604482015290519081900360640190fd5b82516001600160a01b03808616600090815260056020908152604080832080546001600160a01b031990811682556001820185905560028201859055600390910180549091169055805163a9059cbb60e01b815284861660048201526024810188905290519386169363a9059cbb93604480840194938390030190829087803b1580156124d657600080fd5b505af11580156124ea573d6000803e3d6000fd5b505050506040513d602081101561250057600080fd5b5051612550576040805162461bcd60e51b815260206004820152601a60248201527910dbdb1b185d195c985b081d1c985b9cd9995c8819985a5b195960321b604482015290519081900360640190fd5b612563858261255e88611faf565b612dd8565b806001600160a01b0316856001600160a01b03167f52a5c2b28bc6eb9712d0ced43463103b486b13ccc9cda499fd3b2d7b6a74a8ee856040518082815260200191505060405180910390a35050505050565b600b805460408051602060026001851615610100026000190190941693909304601f81018490048402820184019092528181529291830182828015610ea35780601f10610e7857610100808354040283529160200191610ea3565b6001600160a01b031660009081526005602052604090206001015490565b60008061263a83611faf565b905060005b600f548110156126f0576000600f828154811061265857fe5b60009182526020918290200154604080516370a0823160e01b81526001600160a01b03898116600483015291519190921693506126e59284926370a082319260248083019392829003018186803b1580156126b257600080fd5b505afa1580156126c6573d6000803e3d6000fd5b505050506040513d60208110156126dc57600080fd5b50518490612e6e565b92505060010161263f565b5092915050565b3360008181526001602090815260408083206001600160a01b03871684529091528120549091610eb89185906111a29086612e37565b6009546001600160a01b0316331461277a576040805162461bcd60e51b815260206004820181905260248201526000805160206134df833981519152604482015290519081900360640190fd5b61278261281c565b8110156127c05760405162461bcd60e51b81526004018080602001828103825260278152602001806134916027913960400191505060405180910390fd5b600d55565b60006127d18383613071565b612814576040805162461bcd60e51b815260206004820152600f60248201526e151c985b9cd9995c8819985a5b1959608a1b604482015290519081900360640190fd5b610eb8611e49565b60006114d6600e5461282c610ed1565b90612e37565b60056020526000908152604090208054600182015460028301546003909301546001600160a01b039283169391921684565b6009546001600160a01b031633146128b1576040805162461bcd60e51b815260206004820181905260248201526000805160206134df833981519152604482015290519081900360640190fd5b6128ba81611faf565b156128f65760405162461bcd60e51b81526004018080602001828103825260258152602001806135696025913960400191505060405180910390fd5b600f80546001810182556000919091527f8d1108e10bcb7c27dddfc02ed9d693a074039d026cf4ea4240b40f7d581ac8020180546001600160a01b0383166001600160a01b0319909116811790915560408051918252517f7417b75095e577f15d994b058af7a3a71f67be4ae2f288725d1b922f6bb67a679181900360200190a150565b6009546001600160a01b031633146129c7576040805162461bcd60e51b815260206004820181905260248201526000805160206134df833981519152604482015290519081900360640190fd5b611a418161307e565b600c805460408051602060026001851615610100026000190190941693909304601f81018490048402820184019092528181529291830182828015610ea35780601f10610e7857610100808354040283529160200191610ea3565b6001600160a01b03918216600090815260016020908152604080832093909416825291909152205490565b612a61878383611d96565b856001600160a01b031663a4c0ed36888787876040518563ffffffff1660e01b815260040180856001600160a01b03168152602001848152602001806020018281038252848482818152602001925080828437600081840152601f19601f82011690508083019250505095505050505050600060405180830381600087803b158015612aec57600080fd5b505af1158015612b00573d6000803e3d6000fd5b5050505050505050505050565b6001600160a01b031660009081526005602052604090206002015490565b6009546001600160a01b03163314612b78576040805162461bcd60e51b815260206004820181905260248201526000805160206134df833981519152604482015290519081900360640190fd5b6001600160a01b038116612bbd5760405162461bcd60e51b81526004018080602001828103825260268152602001806134176026913960400191505060405180910390fd5b6009546040516001600160a01b038084169216907f8be0079c531659141344cd1fd0a4f28419497f9722a3daafe3b4186f6b6457e090600090a3600980546001600160a01b0319166001600160a01b0392909216919091179055565b612c238484611978565b836001600160a01b031663a4c0ed36868585856040518563ffffffff1660e01b815260040180856001600160a01b03168152602001848152602001806020018281038252848482818152602001925080828437600081840152601f19601f82011690508083019250505095505050505050600060405180830381600087803b158015612cae57600080fd5b505af1158015612cc2573d6000803e3d6000fd5b505050505050505050565b6001600160a01b031660009081526006602052604090205460ff161590565b6001600160a01b038316612d315760405162461bcd60e51b81526004018080602001828103825260248152602001806135456024913960400191505060405180910390fd5b6001600160a01b038216612d765760405162461bcd60e51b815260040180806020018281038252602281526020018061343d6022913960400191505060405180910390fd5b6001600160a01b03808416600081815260016020908152604080832094871680845294825291829020859055815185815291517f8c5be1e5ebec7d5bd14f71427d1e84f3dd0314c0f7b2291e5b200ac8c7c3b9259281900390910190a3505050565b600954600160a01b900460ff1615612e2c576040805162461bcd60e51b815260206004820152601260248201527110dbdb9d1c9858dd081a5cc81c185d5cd95960721b604482015290519081900360640190fd5b611e4483838361310c565b600082821115612e4357fe5b50900390565b600082612e5857506000610ebc565b5081810281838281612e6657fe5b0414610ebc57fe5b81810182811015610ebc57fe5b600780546001600160a01b0319166001600160a01b03848116919091179182905516612eab576000600855612f06565b60008111612f00576040805162461bcd60e51b815260206004820152601d60248201527f436f6c6c61746572616c20726174652063616e2774206265207a65726f000000604482015290519081900360640190fd5b60088190555b604080516001600160a01b03841681526020810183905281517f94238858463adf0fecc0e064844831a54bccf8467c86f0b93d2a9508e0596853929181900390910190a15050565b600d54612f5d82611e3961281c565b1115612f9a5760405162461bcd60e51b815260040180806020018281038252602d8152602001806135b3602d913960400191505060405180910390fd5b61108a8282613242565b6001600160a01b038216612fe95760405162461bcd60e51b81526004018080602001828103825260218152602001806134ff6021913960400191505060405180910390fd5b600254612ff69082612e37565b6002556001600160a01b03821660009081526020819052604090205461301c9082612e37565b6001600160a01b038316600081815260208181526040808320949094558351858152935191937fddf252ad1be2c89b69c2b068fc378daa952ba7f163c4a11628f55a4df523b3ef929081900390910190a35050565b6000610eb8338484612dd8565b605a81116130bd5760405162461bcd60e51b815260040180806020018281038252602581526020018061358e6025913960400191505060405180910390fd5b60006130cc8262015180612e49565b60048190556040805182815290519192507ffde5ae686f4fb7b301820b66139fa5cbed90c4b91428ce2fe961558fcac47ba6919081900360200190a15050565b6001600160a01b0383166131515760405162461bcd60e51b81526004018080602001828103825260258152602001806135206025913960400191505060405180910390fd5b6001600160a01b0382166131965760405162461bcd60e51b81526004018080602001828103825260238152602001806133f46023913960400191505060405180910390fd5b6001600160a01b0383166000908152602081905260409020546131b99082612e37565b6001600160a01b0380851660009081526020819052604080822093909355908416815220546131e89082612e6e565b6001600160a01b038084166000818152602081815260409182902094909455805185815290519193928716927fddf252ad1be2c89b69c2b068fc378daa952ba7f163c4a11628f55a4df523b3ef92918290030190a3505050565b6001600160a01b03821661329d576040805162461bcd60e51b815260206004820152601f60248201527f45524332303a206d696e7420746f20746865207a65726f206164647265737300604482015290519081900360640190fd5b6002546132aa9082612e6e565b6002556001600160a01b0382166000908152602081905260409020546132d09082612e6e565b6001600160a01b0383166000818152602081815260408083209490945583518581529351929391927fddf252ad1be2c89b69c2b068fc378daa952ba7f163c4a11628f55a4df523b3ef9281900390910190a35050565b604051806080016040528060006001600160a01b03168152602001600081526020016000815260200160006001600160a01b031681525090565b828054600181600116156101000203166002900490600052602060002090601f016020900481019282601f106133a157805160ff19168380011785556133ce565b828001600101855582156133ce579182015b828111156133ce5782518255916020019190600101906133b3565b506133da9291506133de565b5090565b5b808211156133da57600081556001016133df56fe45524332303a207472616e7366657220746f20746865207a65726f20616464726573734f776e61626c653a206e6577206f776e657220697320746865207a65726f206164647265737345524332303a20617070726f766520746f20746865207a65726f206164647265737343616e6e6f7420696e76616c6964617465206d6f726520746f6b656e73207468616e2068656c64206279206164647265737354686572652063616e277420626520666577657220746f6b656e73207468616e20736861726573537562726567697374657273206d75737420626520656d707479207768656e2072656d6f7665644f776e61626c653a2063616c6c6572206973206e6f7420746865206f776e657245524332303a206275726e2066726f6d20746865207a65726f206164647265737345524332303a207472616e736665722066726f6d20746865207a65726f206164647265737345524332303a20617070726f76652066726f6d20746865207a65726f2061646472657373537562726567697374657273206d75737420626520656d707479207768656e206164646564436c61696d20706572696f64206d757374206265206174206c65617374203930206461797354686572652063616e277420626520666577657220736861726573207468616e2076616c696420746f6b656e73a2646970667358221220943dd94f79d26840f43b630f80d06122242726ea37db5d6dd3a3f0050d2b83fc64736f6c63430007000033",
    "sourcePath": "c:/Users/luziu/Documents/aktionariat/contracts/src/Shares.sol",
    "compiler": {
        "name": "solc",
        "version": "0.7.0+commit.9e61f92b"
    },
    "functionHashes": {
        "allowance(address,address)": "dd62ed3e",
        "announcement(string)": "1f0f06aa",
        "approve(address,uint256)": "095ea7b3",
        "balanceOf(address)": "70a08231",
        "balanceOfDeep(address)": "a26cf59f",
        "burn(uint256)": "42966c68",
        "claimPeriod()": "7dc2cd98",
        "claimingDisabled(address)": "8e0597c1",
        "claims(address)": "c6788bdd",
        "clearClaim()": "6b03ed5f",
        "countSubregisters()": "6e3baaf5",
        "customCollateralAddress()": "0c6f0e5d",
        "customCollateralRate()": "60918117",
        "decimals()": "313ce567",
        "declareInvalid(address,uint256,string)": "5d6624b7",
        "declareLost(address,address)": "26773ddd",
        "decreaseAllowance(address,uint256)": "a457c2d7",
        "deleteClaim(address)": "32a7ae95",
        "getClaimDeleter()": "2a0a4ed5",
        "getClaimant(address)": "1e3b9de5",
        "getCollateral(address)": "9b56d6c9",
        "getCollateralRate(address)": "77e071ad",
        "getCollateralType(address)": "3bcc45ba",
        "getTimeStamp(address)": "eb470ebf",
        "increaseAllowance(address,uint256)": "39509351",
        "invalidTokens()": "37a8129c",
        "isClaimsEnabled(address)": "f66f145a",
        "mint(address,uint256)": "40c10f19",
        "mintAndCall(address,address,uint256,bytes)": "f54fc060",
        "mintNumbered(address,uint256,uint256)": "69f721e2",
        "mintNumberedAndCall(address,address,uint256,bytes,uint256,uint256)": "eb1bf089",
        "name()": "06fdde03",
        "owner()": "8da5cb5b",
        "pause()": "8456cb59",
        "paused()": "5c975abb",
        "recognizeSubRegister(address)": "cc51e143",
        "removeSubRegister(address)": "1993982d",
        "renounceOwnership()": "715018a6",
        "resolveClaim(address)": "94d645a8",
        "setClaimPeriod(uint256)": "d2c04f43",
        "setClaimable(bool)": "378c93ad",
        "setCustomClaimCollateral(address,uint256)": "3a1cdf32",
        "setName(string,string)": "5c707f07",
        "setTerms(string)": "78f86afc",
        "setTotalShares(uint256)": "a77384c1",
        "subregisters(uint256)": "4ae5e630",
        "symbol()": "95d89b41",
        "terms()": "d5025625",
        "totalShares()": "3a98ef39",
        "totalSupply()": "18160ddd",
        "totalValidSupply()": "b0d04c7a",
        "transfer(address,uint256)": "a9059cbb",
        "transferAndCall(address,uint256,bytes)": "4000aea0",
        "transferFrom(address,address,uint256)": "23b872dd",
        "transferOwnership(address)": "f2fde38b",
        "unpause()": "3f4ba83a"
    },
    "gasEstimates": {
        "creation": {
            "codeDepositCost": "2769000",
            "executionCost": "infinite",
            "totalCost": "infinite"
        },
        "external": {
            "allowance(address,address)": "1339",
            "announcement(string)": "infinite",
            "approve(address,uint256)": "infinite",
            "balanceOf(address)": "1258",
            "balanceOfDeep(address)": "infinite",
            "burn(uint256)": "infinite",
            "claimPeriod()": "1132",
            "claimingDisabled(address)": "1248",
            "claims(address)": "3785",
            "clearClaim()": "infinite",
            "countSubregisters()": "1089",
            "customCollateralAddress()": "1151",
            "customCollateralRate()": "1109",
            "decimals()": "1081",
            "declareInvalid(address,uint256,string)": "infinite",
            "declareLost(address,address)": "infinite",
            "decreaseAllowance(address,uint256)": "infinite",
            "deleteClaim(address)": "infinite",
            "getClaimDeleter()": "1185",
            "getClaimant(address)": "1291",
            "getCollateral(address)": "1259",
            "getCollateralRate(address)": "2065",
            "getCollateralType(address)": "1246",
            "getTimeStamp(address)": "1214",
            "increaseAllowance(address,uint256)": "infinite",
            "invalidTokens()": "1132",
            "isClaimsEnabled(address)": "1289",
            "mint(address,uint256)": "infinite",
            "mintAndCall(address,address,uint256,bytes)": "infinite",
            "mintNumbered(address,uint256,uint256)": "infinite",
            "mintNumberedAndCall(address,address,uint256,bytes,uint256,uint256)": "infinite",
            "name()": "infinite",
            "owner()": "1127",
            "pause()": "infinite",
            "paused()": "1094",
            "recognizeSubRegister(address)": "infinite",
            "removeSubRegister(address)": "infinite",
            "renounceOwnership()": "infinite",
            "resolveClaim(address)": "infinite",
            "setClaimPeriod(uint256)": "infinite",
            "setClaimable(bool)": "21208",
            "setCustomClaimCollateral(address,uint256)": "infinite",
            "setName(string,string)": "infinite",
            "setTerms(string)": "infinite",
            "setTotalShares(uint256)": "infinite",
            "subregisters(uint256)": "2060",
            "symbol()": "infinite",
            "terms()": "infinite",
            "totalShares()": "1111",
            "totalSupply()": "1067",
            "totalValidSupply()": "1970",
            "transfer(address,uint256)": "infinite",
            "transferAndCall(address,uint256,bytes)": "infinite",
            "transferFrom(address,address,uint256)": "infinite",
            "transferOwnership(address)": "infinite",
            "unpause()": "infinite"
        },
        "internal": {
            "_mint(address,uint256)": "infinite",
            "_transfer(address,address,uint256)": "infinite"
        }
    }
}