{
    "contractName": "Shares",
    "abi": [
        {
            "inputs": [
                {
                    "internalType": "string",
                    "name": "_symbol",
                    "type": "string"
                },
                {
                    "internalType": "string",
                    "name": "_name",
                    "type": "string"
                },
                {
                    "internalType": "string",
                    "name": "_terms",
                    "type": "string"
                },
                {
                    "internalType": "uint256",
                    "name": "_totalShares",
                    "type": "uint256"
                }
            ],
            "stateMutability": "nonpayable",
            "type": "constructor"
        },
        {
            "anonymous": false,
            "inputs": [
                {
                    "indexed": false,
                    "internalType": "string",
                    "name": "message",
                    "type": "string"
                }
            ],
            "name": "Announcement",
            "type": "event"
        },
        {
            "anonymous": false,
            "inputs": [
                {
                    "indexed": true,
                    "internalType": "address",
                    "name": "owner",
                    "type": "address"
                },
                {
                    "indexed": true,
                    "internalType": "address",
                    "name": "spender",
                    "type": "address"
                },
                {
                    "indexed": false,
                    "internalType": "uint256",
                    "name": "value",
                    "type": "uint256"
                }
            ],
            "name": "Approval",
            "type": "event"
        },
        {
            "anonymous": false,
            "inputs": [
                {
                    "indexed": true,
                    "internalType": "address",
                    "name": "lostAddress",
                    "type": "address"
                },
                {
                    "indexed": false,
                    "internalType": "uint256",
                    "name": "collateral",
                    "type": "uint256"
                }
            ],
            "name": "ClaimCleared",
            "type": "event"
        },
        {
            "anonymous": false,
            "inputs": [
                {
                    "indexed": true,
                    "internalType": "address",
                    "name": "lostAddress",
                    "type": "address"
                },
                {
                    "indexed": true,
                    "internalType": "address",
                    "name": "claimant",
                    "type": "address"
                },
                {
                    "indexed": false,
                    "internalType": "uint256",
                    "name": "collateral",
                    "type": "uint256"
                }
            ],
            "name": "ClaimDeleted",
            "type": "event"
        },
        {
            "anonymous": false,
            "inputs": [
                {
                    "indexed": true,
                    "internalType": "address",
                    "name": "lostAddress",
                    "type": "address"
                },
                {
                    "indexed": true,
                    "internalType": "address",
                    "name": "claimant",
                    "type": "address"
                },
                {
                    "indexed": false,
                    "internalType": "uint256",
                    "name": "balance",
                    "type": "uint256"
                }
            ],
            "name": "ClaimMade",
            "type": "event"
        },
        {
            "anonymous": false,
            "inputs": [
                {
                    "indexed": true,
                    "internalType": "address",
                    "name": "lostAddress",
                    "type": "address"
                },
                {
                    "indexed": true,
                    "internalType": "address",
                    "name": "claimant",
                    "type": "address"
                },
                {
                    "indexed": false,
                    "internalType": "uint256",
                    "name": "collateral",
                    "type": "uint256"
                }
            ],
            "name": "ClaimResolved",
            "type": "event"
        },
        {
            "anonymous": false,
            "inputs": [
                {
                    "indexed": false,
                    "internalType": "address",
                    "name": "newCustomCollateralAddress",
                    "type": "address"
                },
                {
                    "indexed": false,
                    "internalType": "uint256",
                    "name": "newCustomCollareralRate",
                    "type": "uint256"
                }
            ],
            "name": "CustomClaimCollateralChanged",
            "type": "event"
        },
        {
            "anonymous": false,
            "inputs": [
                {
                    "indexed": true,
                    "internalType": "address",
                    "name": "previousOwner",
                    "type": "address"
                },
                {
                    "indexed": true,
                    "internalType": "address",
                    "name": "newOwner",
                    "type": "address"
                }
            ],
            "name": "OwnershipTransferred",
            "type": "event"
        },
        {
            "anonymous": false,
            "inputs": [
                {
                    "indexed": true,
                    "internalType": "address",
                    "name": "holder",
                    "type": "address"
                },
                {
                    "indexed": false,
                    "internalType": "uint256",
                    "name": "firstInclusive",
                    "type": "uint256"
                },
                {
                    "indexed": false,
                    "internalType": "uint256",
                    "name": "lastInclusive",
                    "type": "uint256"
                }
            ],
            "name": "ShareNumberingEvent",
            "type": "event"
        },
        {
            "anonymous": false,
            "inputs": [
                {
                    "indexed": false,
                    "internalType": "address",
                    "name": "contractAddress",
                    "type": "address"
                }
            ],
            "name": "SubRegisterRecognized",
            "type": "event"
        },
        {
            "anonymous": false,
            "inputs": [
                {
                    "indexed": true,
                    "internalType": "address",
                    "name": "holder",
                    "type": "address"
                },
                {
                    "indexed": false,
                    "internalType": "uint256",
                    "name": "amount",
                    "type": "uint256"
                },
                {
                    "indexed": false,
                    "internalType": "string",
                    "name": "message",
                    "type": "string"
                }
            ],
            "name": "TokensDeclaredInvalid",
            "type": "event"
        },
        {
            "anonymous": false,
            "inputs": [
                {
                    "indexed": true,
                    "internalType": "address",
                    "name": "from",
                    "type": "address"
                },
                {
                    "indexed": true,
                    "internalType": "address",
                    "name": "to",
                    "type": "address"
                },
                {
                    "indexed": false,
                    "internalType": "uint256",
                    "name": "value",
                    "type": "uint256"
                }
            ],
            "name": "Transfer",
            "type": "event"
        },
        {
            "inputs": [
                {
                    "internalType": "address",
                    "name": "owner",
                    "type": "address"
                },
                {
                    "internalType": "address",
                    "name": "spender",
                    "type": "address"
                }
            ],
            "name": "allowance",
            "outputs": [
                {
                    "internalType": "uint256",
                    "name": "",
                    "type": "uint256"
                }
            ],
            "stateMutability": "view",
            "type": "function"
        },
        {
            "inputs": [
                {
                    "internalType": "string",
                    "name": "message",
                    "type": "string"
                }
            ],
            "name": "announcement",
            "outputs": [],
            "stateMutability": "nonpayable",
            "type": "function"
        },
        {
            "inputs": [
                {
                    "internalType": "address",
                    "name": "spender",
                    "type": "address"
                },
                {
                    "internalType": "uint256",
                    "name": "value",
                    "type": "uint256"
                }
            ],
            "name": "approve",
            "outputs": [
                {
                    "internalType": "bool",
                    "name": "",
                    "type": "bool"
                }
            ],
            "stateMutability": "nonpayable",
            "type": "function"
        },
        {
            "inputs": [
                {
                    "internalType": "address",
                    "name": "account",
                    "type": "address"
                }
            ],
            "name": "balanceOf",
            "outputs": [
                {
                    "internalType": "uint256",
                    "name": "",
                    "type": "uint256"
                }
            ],
            "stateMutability": "view",
            "type": "function"
        },
        {
            "inputs": [
                {
                    "internalType": "uint256",
                    "name": "_amount",
                    "type": "uint256"
                }
            ],
            "name": "burn",
            "outputs": [],
            "stateMutability": "nonpayable",
            "type": "function"
        },
        {
            "inputs": [],
            "name": "claimPeriod",
            "outputs": [
                {
                    "internalType": "uint256",
                    "name": "",
                    "type": "uint256"
                }
            ],
            "stateMutability": "view",
            "type": "function"
        },
        {
            "inputs": [
                {
                    "internalType": "address",
                    "name": "",
                    "type": "address"
                }
            ],
            "name": "claims",
            "outputs": [
                {
                    "internalType": "address",
                    "name": "claimant",
                    "type": "address"
                },
                {
                    "internalType": "uint256",
                    "name": "collateral",
                    "type": "uint256"
                },
                {
                    "internalType": "uint256",
                    "name": "timestamp",
                    "type": "uint256"
                },
                {
                    "internalType": "address",
                    "name": "currencyUsed",
                    "type": "address"
                }
            ],
            "stateMutability": "view",
            "type": "function"
        },
        {
            "inputs": [],
            "name": "clearClaim",
            "outputs": [],
            "stateMutability": "nonpayable",
            "type": "function"
        },
        {
            "inputs": [],
            "name": "customCollateralAddress",
            "outputs": [
                {
                    "internalType": "address",
                    "name": "",
                    "type": "address"
                }
            ],
            "stateMutability": "view",
            "type": "function"
        },
        {
            "inputs": [],
            "name": "customCollateralRate",
            "outputs": [
                {
                    "internalType": "uint256",
                    "name": "",
                    "type": "uint256"
                }
            ],
            "stateMutability": "view",
            "type": "function"
        },
        {
            "inputs": [],
            "name": "decimals",
            "outputs": [
                {
                    "internalType": "uint8",
                    "name": "",
                    "type": "uint8"
                }
            ],
            "stateMutability": "view",
            "type": "function"
        },
        {
            "inputs": [
                {
                    "internalType": "address",
                    "name": "holder",
                    "type": "address"
                },
                {
                    "internalType": "uint256",
                    "name": "amount",
                    "type": "uint256"
                },
                {
                    "internalType": "string",
                    "name": "message",
                    "type": "string"
                }
            ],
            "name": "declareInvalid",
            "outputs": [],
            "stateMutability": "nonpayable",
            "type": "function"
        },
        {
            "inputs": [
                {
                    "internalType": "address",
                    "name": "collateralType",
                    "type": "address"
                },
                {
                    "internalType": "address",
                    "name": "lostAddress",
                    "type": "address"
                }
            ],
            "name": "declareLost",
            "outputs": [],
            "stateMutability": "nonpayable",
            "type": "function"
        },
        {
            "inputs": [
                {
                    "internalType": "address",
                    "name": "lostAddress",
                    "type": "address"
                }
            ],
            "name": "deleteClaim",
            "outputs": [],
            "stateMutability": "nonpayable",
            "type": "function"
        },
        {
            "inputs": [],
            "name": "getClaimDeleter",
            "outputs": [
                {
                    "internalType": "address",
                    "name": "",
                    "type": "address"
                }
            ],
            "stateMutability": "view",
            "type": "function"
        },
        {
            "inputs": [
                {
                    "internalType": "address",
                    "name": "lostAddress",
                    "type": "address"
                }
            ],
            "name": "getClaimant",
            "outputs": [
                {
                    "internalType": "address",
                    "name": "",
                    "type": "address"
                }
            ],
            "stateMutability": "view",
            "type": "function"
        },
        {
            "inputs": [
                {
                    "internalType": "address",
                    "name": "lostAddress",
                    "type": "address"
                }
            ],
            "name": "getCollateral",
            "outputs": [
                {
                    "internalType": "uint256",
                    "name": "",
                    "type": "uint256"
                }
            ],
            "stateMutability": "view",
            "type": "function"
        },
        {
            "inputs": [
                {
                    "internalType": "address",
                    "name": "collateralType",
                    "type": "address"
                }
            ],
            "name": "getCollateralRate",
            "outputs": [
                {
                    "internalType": "uint256",
                    "name": "",
                    "type": "uint256"
                }
            ],
            "stateMutability": "view",
            "type": "function"
        },
        {
            "inputs": [
                {
                    "internalType": "address",
                    "name": "lostAddress",
                    "type": "address"
                }
            ],
            "name": "getCollateralType",
            "outputs": [
                {
                    "internalType": "address",
                    "name": "",
                    "type": "address"
                }
            ],
            "stateMutability": "view",
            "type": "function"
        },
        {
            "inputs": [
                {
                    "internalType": "address",
                    "name": "lostAddress",
                    "type": "address"
                }
            ],
            "name": "getTimeStamp",
            "outputs": [
                {
                    "internalType": "uint256",
                    "name": "",
                    "type": "uint256"
                }
            ],
            "stateMutability": "view",
            "type": "function"
        },
        {
            "inputs": [],
            "name": "invalidTokens",
            "outputs": [
                {
                    "internalType": "uint256",
                    "name": "",
                    "type": "uint256"
                }
            ],
            "stateMutability": "view",
            "type": "function"
        },
        {
            "inputs": [
                {
                    "internalType": "address",
                    "name": "target",
                    "type": "address"
                }
            ],
            "name": "isRecoveryEnabled",
            "outputs": [
                {
                    "internalType": "bool",
                    "name": "",
                    "type": "bool"
                }
            ],
            "stateMutability": "view",
            "type": "function"
        },
        {
            "inputs": [
                {
                    "internalType": "address",
                    "name": "shareholder",
                    "type": "address"
                },
                {
                    "internalType": "uint256",
                    "name": "_amount",
                    "type": "uint256"
                }
            ],
            "name": "mint",
            "outputs": [],
            "stateMutability": "nonpayable",
            "type": "function"
        },
        {
            "inputs": [
                {
                    "internalType": "address",
                    "name": "shareholder",
                    "type": "address"
                },
                {
                    "internalType": "address",
                    "name": "callee",
                    "type": "address"
                },
                {
                    "internalType": "uint256",
                    "name": "amount",
                    "type": "uint256"
                },
                {
                    "internalType": "bytes",
                    "name": "data",
                    "type": "bytes"
                }
            ],
            "name": "mintAndCall",
            "outputs": [],
            "stateMutability": "nonpayable",
            "type": "function"
        },
        {
            "inputs": [
                {
                    "internalType": "address",
                    "name": "shareholder",
                    "type": "address"
                },
                {
                    "internalType": "uint256",
                    "name": "firstShareNumber",
                    "type": "uint256"
                },
                {
                    "internalType": "uint256",
                    "name": "lastShareNumber",
                    "type": "uint256"
                }
            ],
            "name": "mintNumbered",
            "outputs": [],
            "stateMutability": "nonpayable",
            "type": "function"
        },
        {
            "inputs": [
                {
                    "internalType": "address",
                    "name": "shareholder",
                    "type": "address"
                },
                {
                    "internalType": "address",
                    "name": "callee",
                    "type": "address"
                },
                {
                    "internalType": "uint256",
                    "name": "firstShareNumber",
                    "type": "uint256"
                },
                {
                    "internalType": "uint256",
                    "name": "lastShareNumber",
                    "type": "uint256"
                },
                {
                    "internalType": "bytes",
                    "name": "data",
                    "type": "bytes"
                }
            ],
            "name": "mintNumberedAndCall",
            "outputs": [],
            "stateMutability": "nonpayable",
            "type": "function"
        },
        {
            "inputs": [],
            "name": "name",
            "outputs": [
                {
                    "internalType": "string",
                    "name": "",
                    "type": "string"
                }
            ],
            "stateMutability": "view",
            "type": "function"
        },
        {
            "inputs": [],
            "name": "owner",
            "outputs": [
                {
                    "internalType": "address",
                    "name": "",
                    "type": "address"
                }
            ],
            "stateMutability": "view",
            "type": "function"
        },
        {
            "inputs": [
                {
                    "internalType": "address",
                    "name": "contractAddress",
                    "type": "address"
                }
            ],
            "name": "recognizeSubRegister",
            "outputs": [],
            "stateMutability": "nonpayable",
            "type": "function"
        },
        {
            "inputs": [
                {
                    "internalType": "address",
                    "name": "lostAddress",
                    "type": "address"
                }
            ],
            "name": "recover",
            "outputs": [],
            "stateMutability": "nonpayable",
            "type": "function"
        },
        {
            "inputs": [
                {
                    "internalType": "address",
                    "name": "",
                    "type": "address"
                }
            ],
            "name": "recoveryDisabled",
            "outputs": [
                {
                    "internalType": "bool",
                    "name": "",
                    "type": "bool"
                }
            ],
            "stateMutability": "view",
            "type": "function"
        },
        {
            "inputs": [
                {
                    "internalType": "address",
                    "name": "collateral",
                    "type": "address"
                },
                {
                    "internalType": "uint256",
                    "name": "rate",
                    "type": "uint256"
                }
            ],
            "name": "setCustomClaimCollateral",
            "outputs": [],
            "stateMutability": "nonpayable",
            "type": "function"
        },
        {
            "inputs": [
                {
                    "internalType": "string",
                    "name": "_symbol",
                    "type": "string"
                },
                {
                    "internalType": "string",
                    "name": "_name",
                    "type": "string"
                }
            ],
            "name": "setName",
            "outputs": [],
            "stateMutability": "nonpayable",
            "type": "function"
        },
        {
            "inputs": [
                {
                    "internalType": "bool",
                    "name": "enabled",
                    "type": "bool"
                }
            ],
            "name": "setRecoverable",
            "outputs": [],
            "stateMutability": "nonpayable",
            "type": "function"
        },
        {
            "inputs": [
                {
                    "internalType": "string",
                    "name": "_terms",
                    "type": "string"
                }
            ],
            "name": "setTerms",
            "outputs": [],
            "stateMutability": "nonpayable",
            "type": "function"
        },
        {
            "inputs": [
                {
                    "internalType": "uint256",
                    "name": "_newTotalShares",
                    "type": "uint256"
                }
            ],
            "name": "setTotalShares",
            "outputs": [],
            "stateMutability": "nonpayable",
            "type": "function"
        },
        {
            "inputs": [],
            "name": "symbol",
            "outputs": [
                {
                    "internalType": "string",
                    "name": "",
                    "type": "string"
                }
            ],
            "stateMutability": "view",
            "type": "function"
        },
        {
            "inputs": [],
            "name": "terms",
            "outputs": [
                {
                    "internalType": "string",
                    "name": "",
                    "type": "string"
                }
            ],
            "stateMutability": "view",
            "type": "function"
        },
        {
            "inputs": [],
            "name": "totalShares",
            "outputs": [
                {
                    "internalType": "uint256",
                    "name": "",
                    "type": "uint256"
                }
            ],
            "stateMutability": "view",
            "type": "function"
        },
        {
            "inputs": [],
            "name": "totalSupply",
            "outputs": [
                {
                    "internalType": "uint256",
                    "name": "",
                    "type": "uint256"
                }
            ],
            "stateMutability": "view",
            "type": "function"
        },
        {
            "inputs": [],
            "name": "totalValidSupply",
            "outputs": [
                {
                    "internalType": "uint256",
                    "name": "",
                    "type": "uint256"
                }
            ],
            "stateMutability": "view",
            "type": "function"
        },
        {
            "inputs": [
                {
                    "internalType": "address",
                    "name": "recipient",
                    "type": "address"
                },
                {
                    "internalType": "uint256",
                    "name": "amount",
                    "type": "uint256"
                }
            ],
            "name": "transfer",
            "outputs": [
                {
                    "internalType": "bool",
                    "name": "",
                    "type": "bool"
                }
            ],
            "stateMutability": "nonpayable",
            "type": "function"
        },
        {
            "inputs": [
                {
                    "internalType": "address",
                    "name": "recipient",
                    "type": "address"
                },
                {
                    "internalType": "uint256",
                    "name": "amount",
                    "type": "uint256"
                },
                {
                    "internalType": "bytes",
                    "name": "data",
                    "type": "bytes"
                }
            ],
            "name": "transferAndCall",
            "outputs": [
                {
                    "internalType": "bool",
                    "name": "",
                    "type": "bool"
                }
            ],
            "stateMutability": "nonpayable",
            "type": "function"
        },
        {
            "inputs": [
                {
                    "internalType": "address",
                    "name": "sender",
                    "type": "address"
                },
                {
                    "internalType": "address",
                    "name": "recipient",
                    "type": "address"
                },
                {
                    "internalType": "uint256",
                    "name": "amount",
                    "type": "uint256"
                }
            ],
            "name": "transferFrom",
            "outputs": [
                {
                    "internalType": "bool",
                    "name": "",
                    "type": "bool"
                }
            ],
            "stateMutability": "nonpayable",
            "type": "function"
        },
        {
            "inputs": [
                {
                    "internalType": "address",
                    "name": "newOwner",
                    "type": "address"
                }
            ],
            "name": "transferOwnership",
            "outputs": [],
            "stateMutability": "nonpayable",
            "type": "function"
        }
    ],
    "bytecode": "60806040526000600c556000600d553480156200001b57600080fd5b5060405162002685380380620026858339810160408190526200003e91620002d2565b6003805460ff19169055600880546001600160a01b0319163317908190556040516001600160a01b0391909116906000907f8be0079c531659141344cd1fd0a4f28419497f9722a3daafe3b4186f6b6457e0908290a38351620000a990600a90602087019062000179565b508251620000bf90600990602086019062000179565b50620000cb81620000eb565b8151620000e090600b90602085019062000179565b505050505062000427565b6008546001600160a01b03163314620001215760405162461bcd60e51b815260040162000118906200038d565b60405180910390fd5b6200012b62000152565b8110156200014d5760405162461bcd60e51b8152600401620001189062000367565b600c55565b600d546000906200016262000173565b6200016e9190620003b0565b905090565b60025490565b8280546200018790620003d4565b90600052602060002090601f016020900481019282620001ab5760008555620001f6565b82601f10620001c657805160ff1916838001178555620001f6565b82800160010185558215620001f6579182015b82811115620001f6578251825591602001919060010190620001d9565b506200020492915062000208565b5090565b5b8082111562000204576000815560010162000209565b600082601f83011262000230578081fd5b81516001600160401b03808211156200024d576200024d62000411565b604051601f8301601f19908116603f0116810190828211818310171562000278576200027862000411565b8160405283815260209250868385880101111562000294578485fd5b8491505b83821015620002b7578582018301518183018401529082019062000298565b83821115620002c857848385830101525b9695505050505050565b60008060008060808587031215620002e8578384fd5b84516001600160401b0380821115620002ff578586fd5b6200030d888389016200021f565b9550602087015191508082111562000323578485fd5b62000331888389016200021f565b9450604087015191508082111562000347578384fd5b5062000356878288016200021f565b606096909601519497939650505050565b6020808252600c908201526b62656c6f7720737570706c7960a01b604082015260600190565b6020808252600990820152683737ba1037bbb732b960b91b604082015260600190565b600082821015620003cf57634e487b7160e01b81526011600452602481fd5b500390565b600281046001821680620003e957607f821691505b602082108114156200040b57634e487b7160e01b600052602260045260246000fd5b50919050565b634e487b7160e01b600052604160045260246000fd5b61224e80620004376000396000f3fe608060405234801561001057600080fd5b506004361061027f5760003560e01c8063609181171161015c578063a3ec1883116100ce578063cc51e14311610087578063cc51e14314610536578063d502562514610549578063dd62ed3e14610551578063eb470ebf14610564578063f2fde38b14610577578063f54fc0601461058a5761027f565b8063a3ec1883146104bf578063a77384c1146104d2578063a9059cbb146104e5578063b0d04c7a146104f8578063b40e80d114610500578063c6788bdd146105135761027f565b806377e071ad1161012057806377e071ad1461046e57806378f86afc146104815780637dc2cd98146104945780638da5cb5b1461049c57806395d89b41146104a45780639b56d6c9146104ac5761027f565b806360918117146104255780636427ed971461042d57806369f721e2146104405780636b03ed5f1461045357806370a082311461045b5761027f565b806332a7ae95116101f55780634000aea0116101b95780634000aea0146103b357806340c10f19146103c657806342966c68146103d9578063551ad632146103ec5780635c707f07146103ff5780635d6624b7146104125761027f565b806332a7ae951461036a57806337a8129c1461037d5780633a1cdf32146103855780633a98ef39146103985780633bcc45ba146103a05761027f565b80631e3b9de5116102475780631e3b9de5146103015780631f0f06aa1461031457806323b872dd1461032757806326773ddd1461033a5780632a0a4ed51461034d578063313ce567146103555761027f565b806306fdde0314610284578063095ea7b3146102a25780630c6f0e5d146102c25780630cd865ec146102d757806318160ddd146102ec575b600080fd5b61028c61059d565b6040516102999190611eb7565b60405180910390f35b6102b56102b0366004611be1565b61062b565b6040516102999190611e98565b6102ca610641565b6040516102999190611dea565b6102ea6102e5366004611a70565b610650565b005b6102f4610850565b6040516102999190612116565b6102ca61030f366004611a70565b610856565b6102ea610322366004611ccc565b610877565b6102b5610335366004611ac3565b6108de565b6102ea610348366004611a91565b61093a565b6102ca610b45565b61035d610b54565b6040516102999190612147565b6102ea610378366004611a70565b610b5d565b6102f4610d24565b6102ea610393366004611be1565b610d2a565b6102f4610d62565b6102ca6103ae366004611a70565b610d68565b6102b56103c1366004611c0a565b610d89565b6102ea6103d4366004611be1565b610e2e565b6102ea6103e7366004611da8565b610e62565b6102ea6103fa366004611b6b565b610ea2565b6102ea61040d366004611d47565b610f4e565b6102ea610420366004611c0a565b610fa4565b6102f461104d565b6102ea61043b366004611c94565b611053565b6102ea61044e366004611c62565b611072565b6102ea6110fd565b6102f4610469366004611a70565b611227565b6102f461047c366004611a70565b611242565b6102ea61048f366004611d0c565b611284565b6102f46112c1565b6102ca6112c8565b61028c6112d7565b6102f46104ba366004611a70565b6112e4565b6102b56104cd366004611a70565b611302565b6102ea6104e0366004611da8565b611321565b6102b56104f3366004611be1565b611377565b6102f4611394565b6102b561050e366004611a70565b6113b0565b610526610521366004611a70565b6113c5565b6040516102999493929190611e6d565b6102ea610544366004611a70565b6113f7565b61028c61145b565b6102f461055f366004611a91565b611468565b6102f4610572366004611a70565b611493565b6102ea610585366004611a70565b6114b1565b6102ea610598366004611afe565b611537565b600980546105aa906121a3565b80601f01602080910402602001604051908101604052809291908181526020018280546105d6906121a3565b80156106235780601f106105f857610100808354040283529160200191610623565b820191906000526020600020905b81548152906001019060200180831161060657829003601f168201915b505050505081565b60006106383384846115cd565b50600192915050565b6006546001600160a01b031681565b6001600160a01b03808216600090815260046020908152604091829020825160808101845281548516815260018201549281018390526002820154938101939093526003015490921660608201819052909190816106c95760405162461bcd60e51b81526004016106c090612003565b60405180910390fd5b82516001600160a01b031633146106f25760405162461bcd60e51b81526004016106c090611f51565b4262ed4e0084604001516107069190612155565b11156107245760405162461bcd60e51b81526004016106c09061205d565b82516001600160a01b03808616600090815260046020819052604080832080546001600160a01b031990811682556001820185905560028201949094556003018054909316909255905163a9059cbb60e01b81529184169163a9059cbb91610790918591889101611e22565b602060405180830381600087803b1580156107aa57600080fd5b505af11580156107be573d6000803e3d6000fd5b505050506040513d601f19601f820116820180604052508101906107e29190611cb0565b6107eb57600080fd5b6107fe85826107f988611227565b611628565b806001600160a01b0316856001600160a01b03167f52a5c2b28bc6eb9712d0ced43463103b486b13ccc9cda499fd3b2d7b6a74a8ee856040516108419190612116565b60405180910390a35050505050565b60025490565b6001600160a01b03808216600090815260046020526040902054165b919050565b6008546001600160a01b031633146108a15760405162461bcd60e51b81526004016106c0906120f3565b7f07ce702fc13ca0620c174dab22996a6d5fd9e7accb663555a4e85323692706ba82826040516108d2929190611ea3565b60405180910390a15050565b60006108eb848484611628565b6001600160a01b0384166000908152600160209081526040808320338452909152902054600160ff1b81101561092f5761092f853361092a868561218c565b6115cd565b506001949350505050565b61094381611302565b61095f5760405162461bcd60e51b81526004016106c090611f77565b600061096a83611242565b90506000811161098c5760405162461bcd60e51b81526004016106c090611fb8565b33600061099884611227565b905060006109a6848361216d565b905085826109c65760405162461bcd60e51b81526004016106c090611f99565b6001600160a01b038616600090815260046020526040902060010154156109ff5760405162461bcd60e51b81526004016106c090611f28565b6040516323b872dd60e01b81526001600160a01b038216906323b872dd90610a2f90879030908790600401611dfe565b602060405180830381600087803b158015610a4957600080fd5b505af1158015610a5d573d6000803e3d6000fd5b505050506040513d601f19601f82011682018060405250810190610a819190611cb0565b610a8a57600080fd5b604080516080810182526001600160a01b038087168083526020808401878152428587019081528d8516606087019081528d86166000818152600490955293889020965187549087166001600160a01b0319918216178855925160018801559051600287015551600390950180549590941694169390931790915591517f1982ca8958fc8a8176cb52be509260f4bc5af7ce04e1533711793f1c56dd535990610b34908790612116565b60405180910390a350505050505050565b6008546001600160a01b031690565b60035460ff1681565b610b65610b45565b6001600160a01b0316336001600160a01b031614610b955760405162461bcd60e51b81526004016106c090611fe0565b6001600160a01b038082166000908152600460209081526040918290208251608081018452815485168152600182015492810183905260028201549381019390935260030154909216606082018190529091610c035760405162461bcd60e51b81526004016106c090612003565b6001600160a01b03808416600090815260046020818152604080842080546001600160a01b031990811682556001820186905560028201959095556003018054909416909355855190860151925163a9059cbb60e01b81529385169363a9059cbb93610c7193909101611e22565b602060405180830381600087803b158015610c8b57600080fd5b505af1158015610c9f573d6000803e3d6000fd5b505050506040513d601f19601f82011682018060405250810190610cc39190611cb0565b610ccc57600080fd5b81600001516001600160a01b0316836001600160a01b03167fbb036e629a9f4c0897ee5d48440dfdb36f7e772117723a2ed603a6514244c2d58460200151604051610d179190612116565b60405180910390a3505050565b600d5481565b6008546001600160a01b03163314610d545760405162461bcd60e51b81526004016106c0906120f3565b610d5e82826116e5565b5050565b600c5481565b6001600160a01b039081166000908152600460205260409020600301541690565b600080610d968686611377565b90508015610e2557604051635260769b60e11b81526001600160a01b0387169063a4c0ed3690610dd0903390899089908990600401611e3b565b602060405180830381600087803b158015610dea57600080fd5b505af1158015610dfe573d6000803e3d6000fd5b505050506040513d601f19601f82011682018060405250810190610e229190611cb0565b90505b95945050505050565b6008546001600160a01b03163314610e585760405162461bcd60e51b81526004016106c0906120f3565b610d5e828261176c565b610e6b33611227565b811115610e8a5760405162461bcd60e51b81526004016106c090612026565b610e95333083611628565b610e9f30826117aa565b50565b610ead868585611072565b6001600160a01b03851663a4c0ed3687610ec7878761218c565b610ed2906001612155565b85856040518563ffffffff1660e01b8152600401610ef39493929190611e3b565b602060405180830381600087803b158015610f0d57600080fd5b505af1158015610f21573d6000803e3d6000fd5b505050506040513d601f19601f82011682018060405250810190610f459190611cb0565b50505050505050565b6008546001600160a01b03163314610f785760405162461bcd60e51b81526004016106c0906120f3565b8151610f8b90600a9060208501906118f2565b508051610f9f9060099060208401906118f2565b505050565b6008546001600160a01b03163314610fce5760405162461bcd60e51b81526004016106c0906120f3565b6000610fd985611227565b905080841115610fe857600080fd5b83600d6000828254610ffa9190612155565b92505081905550846001600160a01b03167f0a605cd1294f60fa3b73548ac68428f33300a051f225afcdcc75e56083c96ee785858560405161103e9392919061211f565b60405180910390a25050505050565b60075481565b336000908152600560205260409020805460ff19169115919091179055565b6008546001600160a01b0316331461109c5760405162461bcd60e51b81526004016106c0906120f3565b826001600160a01b03167f7b37b2b4bba7b5ea40a69f93db727c289fbbaa632be8186cfa85e0297e00131983836040516110d7929190612139565b60405180910390a2610f9f836110ed848461218c565b6110f8906001612155565b61176c565b33600090815260046020526040902060010154156112255733600081815260046020819052604080832060018101805460038301805484546001600160a01b0319908116865593889055600290940196909655908216909455905163a9059cbb60e01b815292936001600160a01b0390911692839263a9059cbb92611186929091879101611e22565b602060405180830381600087803b1580156111a057600080fd5b505af11580156111b4573d6000803e3d6000fd5b505050506040513d601f19601f820116820180604052508101906111d89190611cb0565b6111e157600080fd5b336001600160a01b03167f203627483d943880619f4b7e0cca21dbefd6204b4d85b124eb99540e17ba86dd8360405161121a9190612116565b60405180910390a250505b565b6001600160a01b031660009081526020819052604090205490565b60006001600160a01b03821630141561125d57506001610872565b6006546001600160a01b038381169116141561127c5750600754610872565b506000610872565b6008546001600160a01b031633146112ae5760405162461bcd60e51b81526004016106c0906120f3565b8051610d5e90600b9060208401906118f2565b62ed4e0081565b6008546001600160a01b031681565b600a80546105aa906121a3565b6001600160a01b031660009081526004602052604090206001015490565b6001600160a01b031660009081526005602052604090205460ff161590565b6008546001600160a01b0316331461134b5760405162461bcd60e51b81526004016106c0906120f3565b611353611394565b8110156113725760405162461bcd60e51b81526004016106c090612080565b600c55565b60006113838383611844565b61138c57600080fd5b6106386110fd565b6000600d546113a1610850565b6113ab919061218c565b905090565b60056020526000908152604090205460ff1681565b60046020526000908152604090208054600182015460028301546003909301546001600160a01b039283169391921684565b6008546001600160a01b031633146114215760405162461bcd60e51b81526004016106c0906120f3565b7f6563ed86749f41d6f22086ebb321adce1e55ec5333f6bba7d83659510c49b73c816040516114509190611dea565b60405180910390a150565b600b80546105aa906121a3565b6001600160a01b03918216600090815260016020908152604080832093909416825291909152205490565b6001600160a01b031660009081526004602052604090206002015490565b6008546001600160a01b031633146114db5760405162461bcd60e51b81526004016106c0906120f3565b6008546040516001600160a01b038084169216907f8be0079c531659141344cd1fd0a4f28419497f9722a3daafe3b4186f6b6457e090600090a3600880546001600160a01b0319166001600160a01b0392909216919091179055565b6115418484610e2e565b604051635260769b60e11b81526001600160a01b0385169063a4c0ed3690611573908890879087908790600401611e3b565b602060405180830381600087803b15801561158d57600080fd5b505af11580156115a1573d6000803e3d6000fd5b505050506040513d601f19601f820116820180604052508101906115c59190611cb0565b505050505050565b6001600160a01b0380841660008181526001602090815260408083209487168084529490915290819020849055517f8c5be1e5ebec7d5bd14f71427d1e84f3dd0314c0f7b2291e5b200ac8c7c3b92590610d17908590612116565b6001600160a01b03821661163b57600080fd5b611646838383610f9f565b6001600160a01b0383166000908152602081905260408120805483929061166e90849061218c565b90915550506001600160a01b0382166000908152602081905260408120805483929061169b908490612155565b92505081905550816001600160a01b0316836001600160a01b03167fddf252ad1be2c89b69c2b068fc378daa952ba7f163c4a11628f55a4df523b3ef83604051610d179190612116565b600680546001600160a01b0319166001600160a01b0384811691909117918290551661171557600060075561173b565b600081116117355760405162461bcd60e51b81526004016106c090611f0a565b60078190555b7f94238858463adf0fecc0e064844831a54bccf8467c86f0b93d2a9508e059685382826040516108d2929190611e22565b600c5481611778611394565b6117829190612155565b11156117a05760405162461bcd60e51b81526004016106c0906120a6565b610d5e8282611851565b6117b682600083610f9f565b80600260008282546117c8919061218c565b90915550506001600160a01b038216600090815260208190526040812080548392906117f590849061218c565b90915550506040516000906001600160a01b038416907fddf252ad1be2c89b69c2b068fc378daa952ba7f163c4a11628f55a4df523b3ef90611838908590612116565b60405180910390a35050565b6000610638338484611628565b6001600160a01b03821661186457600080fd5b61187060008383610f9f565b80600260008282546118829190612155565b90915550506001600160a01b038216600090815260208190526040812080548392906118af908490612155565b90915550506040516001600160a01b038316906000907fddf252ad1be2c89b69c2b068fc378daa952ba7f163c4a11628f55a4df523b3ef90611838908590612116565b8280546118fe906121a3565b90600052602060002090601f0160209004810192826119205760008555611966565b82601f1061193957805160ff1916838001178555611966565b82800160010185558215611966579182015b8281111561196657825182559160200191906001019061194b565b50611972929150611976565b5090565b5b808211156119725760008155600101611977565b80356001600160a01b038116811461087257600080fd5b60008083601f8401126119b3578182fd5b50813567ffffffffffffffff8111156119ca578182fd5b6020830191508360208285010111156119e257600080fd5b9250929050565b600082601f8301126119f9578081fd5b813567ffffffffffffffff80821115611a1457611a146121f4565b604051601f8301601f19908116603f01168101908282118183101715611a3c57611a3c6121f4565b81604052838152866020858801011115611a54578485fd5b8360208701602083013792830160200193909352509392505050565b600060208284031215611a81578081fd5b611a8a8261198b565b9392505050565b60008060408385031215611aa3578081fd5b611aac8361198b565b9150611aba6020840161198b565b90509250929050565b600080600060608486031215611ad7578081fd5b611ae08461198b565b9250611aee6020850161198b565b9150604084013590509250925092565b600080600080600060808688031215611b15578081fd5b611b1e8661198b565b9450611b2c6020870161198b565b935060408601359250606086013567ffffffffffffffff811115611b4e578182fd5b611b5a888289016119a2565b969995985093965092949392505050565b60008060008060008060a08789031215611b83578081fd5b611b8c8761198b565b9550611b9a6020880161198b565b94506040870135935060608701359250608087013567ffffffffffffffff811115611bc3578182fd5b611bcf89828a016119a2565b979a9699509497509295939492505050565b60008060408385031215611bf3578182fd5b611bfc8361198b565b946020939093013593505050565b60008060008060608587031215611c1f578384fd5b611c288561198b565b935060208501359250604085013567ffffffffffffffff811115611c4a578283fd5b611c56878288016119a2565b95989497509550505050565b600080600060608486031215611c76578283fd5b611c7f8461198b565b95602085013595506040909401359392505050565b600060208284031215611ca5578081fd5b8135611a8a8161220a565b600060208284031215611cc1578081fd5b8151611a8a8161220a565b60008060208385031215611cde578182fd5b823567ffffffffffffffff811115611cf4578283fd5b611d00858286016119a2565b90969095509350505050565b600060208284031215611d1d578081fd5b813567ffffffffffffffff811115611d33578182fd5b611d3f848285016119e9565b949350505050565b60008060408385031215611d59578182fd5b823567ffffffffffffffff80821115611d70578384fd5b611d7c868387016119e9565b93506020850135915080821115611d91578283fd5b50611d9e858286016119e9565b9150509250929050565b600060208284031215611db9578081fd5b5035919050565b60008284528282602086013780602084860101526020601f19601f85011685010190509392505050565b6001600160a01b0391909116815260200190565b6001600160a01b039384168152919092166020820152604081019190915260600190565b6001600160a01b03929092168252602082015260400190565b600060018060a01b038616825284602083015260606040830152611e63606083018486611dc0565b9695505050505050565b6001600160a01b03948516815260208101939093526040830191909152909116606082015260800190565b901515815260200190565b600060208252611d3f602083018486611dc0565b6000602080835283518082850152825b81811015611ee357858101830151858201604001528201611ec7565b81811115611ef45783604083870101525b50601f01601f1916929092016040019392505050565b6020808252600490820152637a65726f60e01b604082015260600190565b6020808252600f908201526e185b1c9958591e4818db185a5b5959608a1b604082015260600190565b6020808252600c908201526b1b9bdd0818db185a5b585b9d60a21b604082015260600190565b602080825260089082015267191a5cd8589b195960c21b604082015260600190565b602080825260059082015264656d70747960d81b604082015260600190565b6020808252600e908201526d1898590818dbdb1b185d195c985b60921b604082015260600190565b6020808252600990820152686e6f2061636365737360b81b604082015260600190565b6020808252600990820152681b9bdd08199bdd5b9960ba1b604082015260600190565b6020808252601b908201527f4e6f7420656e6f7567682073686172657320617661696c61626c650000000000604082015260600190565b602080825260099082015268746f6f206561726c7960b81b604082015260600190565b6020808252600c908201526b62656c6f7720737570706c7960a01b604082015260600190565b6020808252602d908201527f54686572652063616e277420626520666577657220736861726573207468616e60408201526c2076616c696420746f6b656e7360981b606082015260800190565b6020808252600990820152683737ba1037bbb732b960b91b604082015260600190565b90815260200190565b600084825260406020830152610e25604083018486611dc0565b918252602082015260400190565b60ff91909116815260200190565b60008219821115612168576121686121de565b500190565b6000816000190483118215151615612187576121876121de565b500290565b60008282101561219e5761219e6121de565b500390565b6002810460018216806121b757607f821691505b602082108114156121d857634e487b7160e01b600052602260045260246000fd5b50919050565b634e487b7160e01b600052601160045260246000fd5b634e487b7160e01b600052604160045260246000fd5b8015158114610e9f57600080fdfea2646970667358221220d47476faeeda48d9ed10164e53188dada9ad9c275d4f8e18270d7a0d7822475664736f6c63430008010033",
    "sourcePath": "c:/Users/luziu/Documents/aktionariat/contracts/src/Shares.sol",
    "compiler": {
        "name": "solc",
        "version": "0.8.1+commit.df193b15"
    },
    "functionHashes": {
        "allowance(address,address)": "dd62ed3e",
        "announcement(string)": "1f0f06aa",
        "approve(address,uint256)": "095ea7b3",
        "balanceOf(address)": "70a08231",
        "burn(uint256)": "42966c68",
        "claimPeriod()": "7dc2cd98",
        "claims(address)": "c6788bdd",
        "clearClaim()": "6b03ed5f",
        "customCollateralAddress()": "0c6f0e5d",
        "customCollateralRate()": "60918117",
        "decimals()": "313ce567",
        "declareInvalid(address,uint256,string)": "5d6624b7",
        "declareLost(address,address)": "26773ddd",
        "deleteClaim(address)": "32a7ae95",
        "getClaimDeleter()": "2a0a4ed5",
        "getClaimant(address)": "1e3b9de5",
        "getCollateral(address)": "9b56d6c9",
        "getCollateralRate(address)": "77e071ad",
        "getCollateralType(address)": "3bcc45ba",
        "getTimeStamp(address)": "eb470ebf",
        "invalidTokens()": "37a8129c",
        "isRecoveryEnabled(address)": "a3ec1883",
        "mint(address,uint256)": "40c10f19",
        "mintAndCall(address,address,uint256,bytes)": "f54fc060",
        "mintNumbered(address,uint256,uint256)": "69f721e2",
        "mintNumberedAndCall(address,address,uint256,uint256,bytes)": "551ad632",
        "name()": "06fdde03",
        "owner()": "8da5cb5b",
        "recognizeSubRegister(address)": "cc51e143",
        "recover(address)": "0cd865ec",
        "recoveryDisabled(address)": "b40e80d1",
        "setCustomClaimCollateral(address,uint256)": "3a1cdf32",
        "setName(string,string)": "5c707f07",
        "setRecoverable(bool)": "6427ed97",
        "setTerms(string)": "78f86afc",
        "setTotalShares(uint256)": "a77384c1",
        "symbol()": "95d89b41",
        "terms()": "d5025625",
        "totalShares()": "3a98ef39",
        "totalSupply()": "18160ddd",
        "totalValidSupply()": "b0d04c7a",
        "transfer(address,uint256)": "a9059cbb",
        "transferAndCall(address,uint256,bytes)": "4000aea0",
        "transferFrom(address,address,uint256)": "23b872dd",
        "transferOwnership(address)": "f2fde38b"
    },
    "gasEstimates": {
        "creation": {
            "codeDepositCost": "1756400",
            "executionCost": "infinite",
            "totalCost": "infinite"
        },
        "external": {
            "allowance(address,address)": "infinite",
            "announcement(string)": "infinite",
            "approve(address,uint256)": "22555",
            "balanceOf(address)": "1407",
            "burn(uint256)": "infinite",
            "claimPeriod()": "317",
            "claims(address)": "3978",
            "clearClaim()": "infinite",
            "customCollateralAddress()": "1161",
            "customCollateralRate()": "1074",
            "decimals()": "1202",
            "declareInvalid(address,uint256,string)": "infinite",
            "declareLost(address,address)": "infinite",
            "deleteClaim(address)": "infinite",
            "getClaimDeleter()": "1204",
            "getClaimant(address)": "infinite",
            "getCollateral(address)": "1431",
            "getCollateralRate(address)": "infinite",
            "getCollateralType(address)": "1443",
            "getTimeStamp(address)": "1386",
            "invalidTokens()": "1096",
            "isRecoveryEnabled(address)": "1330",
            "mint(address,uint256)": "infinite",
            "mintAndCall(address,address,uint256,bytes)": "infinite",
            "mintNumbered(address,uint256,uint256)": "infinite",
            "mintNumberedAndCall(address,address,uint256,uint256,bytes)": "infinite",
            "name()": "infinite",
            "owner()": "1181",
            "recognizeSubRegister(address)": "2302",
            "recover(address)": "infinite",
            "recoveryDisabled(address)": "1397",
            "setCustomClaimCollateral(address,uint256)": "43604",
            "setName(string,string)": "infinite",
            "setRecoverable(bool)": "21256",
            "setTerms(string)": "infinite",
            "setTotalShares(uint256)": "22889",
            "symbol()": "infinite",
            "terms()": "infinite",
            "totalShares()": "1140",
            "totalSupply()": "1163",
            "totalValidSupply()": "2044",
            "transfer(address,uint256)": "infinite",
            "transferAndCall(address,uint256,bytes)": "infinite",
            "transferFrom(address,address,uint256)": "infinite",
            "transferOwnership(address)": "24497"
        },
        "internal": {
            "_beforeTokenTransfer(address,address,uint256)": "infinite",
            "_mint(address,uint256)": "infinite"
        }
    }
}