{
    "contractName": "Shares",
    "abi": [
        {
            "inputs": [
                {
                    "internalType": "string",
                    "name": "_symbol",
                    "type": "string"
                },
                {
                    "internalType": "string",
                    "name": "_name",
                    "type": "string"
                },
                {
                    "internalType": "string",
                    "name": "_terms",
                    "type": "string"
                },
                {
                    "internalType": "uint256",
                    "name": "_totalShares",
                    "type": "uint256"
                }
            ],
            "stateMutability": "nonpayable",
            "type": "constructor"
        },
        {
            "anonymous": false,
            "inputs": [
                {
                    "indexed": false,
                    "internalType": "string",
                    "name": "message",
                    "type": "string"
                }
            ],
            "name": "Announcement",
            "type": "event"
        },
        {
            "anonymous": false,
            "inputs": [
                {
                    "indexed": true,
                    "internalType": "address",
                    "name": "owner",
                    "type": "address"
                },
                {
                    "indexed": true,
                    "internalType": "address",
                    "name": "spender",
                    "type": "address"
                },
                {
                    "indexed": false,
                    "internalType": "uint256",
                    "name": "value",
                    "type": "uint256"
                }
            ],
            "name": "Approval",
            "type": "event"
        },
        {
            "anonymous": false,
            "inputs": [
                {
                    "indexed": true,
                    "internalType": "address",
                    "name": "lostAddress",
                    "type": "address"
                },
                {
                    "indexed": false,
                    "internalType": "uint256",
                    "name": "collateral",
                    "type": "uint256"
                }
            ],
            "name": "ClaimCleared",
            "type": "event"
        },
        {
            "anonymous": false,
            "inputs": [
                {
                    "indexed": true,
                    "internalType": "address",
                    "name": "lostAddress",
                    "type": "address"
                },
                {
                    "indexed": true,
                    "internalType": "address",
                    "name": "claimant",
                    "type": "address"
                },
                {
                    "indexed": false,
                    "internalType": "uint256",
                    "name": "collateral",
                    "type": "uint256"
                }
            ],
            "name": "ClaimDeleted",
            "type": "event"
        },
        {
            "anonymous": false,
            "inputs": [
                {
                    "indexed": true,
                    "internalType": "address",
                    "name": "lostAddress",
                    "type": "address"
                },
                {
                    "indexed": true,
                    "internalType": "address",
                    "name": "claimant",
                    "type": "address"
                },
                {
                    "indexed": false,
                    "internalType": "uint256",
                    "name": "balance",
                    "type": "uint256"
                }
            ],
            "name": "ClaimMade",
            "type": "event"
        },
        {
            "anonymous": false,
            "inputs": [
                {
                    "indexed": true,
                    "internalType": "address",
                    "name": "lostAddress",
                    "type": "address"
                },
                {
                    "indexed": true,
                    "internalType": "address",
                    "name": "claimant",
                    "type": "address"
                },
                {
                    "indexed": false,
                    "internalType": "uint256",
                    "name": "collateral",
                    "type": "uint256"
                }
            ],
            "name": "ClaimResolved",
            "type": "event"
        },
        {
            "anonymous": false,
            "inputs": [
                {
                    "indexed": false,
                    "internalType": "address",
                    "name": "newCustomCollateralAddress",
                    "type": "address"
                },
                {
                    "indexed": false,
                    "internalType": "uint256",
                    "name": "newCustomCollareralRate",
                    "type": "uint256"
                }
            ],
            "name": "CustomClaimCollateralChanged",
            "type": "event"
        },
        {
            "anonymous": false,
            "inputs": [
                {
                    "indexed": true,
                    "internalType": "address",
                    "name": "previousOwner",
                    "type": "address"
                },
                {
                    "indexed": true,
                    "internalType": "address",
                    "name": "newOwner",
                    "type": "address"
                }
            ],
            "name": "OwnershipTransferred",
            "type": "event"
        },
        {
            "anonymous": false,
            "inputs": [
                {
                    "indexed": true,
                    "internalType": "address",
                    "name": "holder",
                    "type": "address"
                },
                {
                    "indexed": false,
                    "internalType": "uint256",
                    "name": "firstInclusive",
                    "type": "uint256"
                },
                {
                    "indexed": false,
                    "internalType": "uint256",
                    "name": "lastInclusive",
                    "type": "uint256"
                }
            ],
            "name": "ShareNumberingEvent",
            "type": "event"
        },
        {
            "anonymous": false,
            "inputs": [
                {
                    "indexed": false,
                    "internalType": "address",
                    "name": "contractAddress",
                    "type": "address"
                }
            ],
            "name": "SubRegisterRecognized",
            "type": "event"
        },
        {
            "anonymous": false,
            "inputs": [
                {
                    "indexed": true,
                    "internalType": "address",
                    "name": "holder",
                    "type": "address"
                },
                {
                    "indexed": false,
                    "internalType": "uint256",
                    "name": "amount",
                    "type": "uint256"
                },
                {
                    "indexed": false,
                    "internalType": "string",
                    "name": "message",
                    "type": "string"
                }
            ],
            "name": "TokensDeclaredInvalid",
            "type": "event"
        },
        {
            "anonymous": false,
            "inputs": [
                {
                    "indexed": true,
                    "internalType": "address",
                    "name": "from",
                    "type": "address"
                },
                {
                    "indexed": true,
                    "internalType": "address",
                    "name": "to",
                    "type": "address"
                },
                {
                    "indexed": false,
                    "internalType": "uint256",
                    "name": "value",
                    "type": "uint256"
                }
            ],
            "name": "Transfer",
            "type": "event"
        },
        {
            "inputs": [
                {
                    "internalType": "address",
                    "name": "owner",
                    "type": "address"
                },
                {
                    "internalType": "address",
                    "name": "spender",
                    "type": "address"
                }
            ],
            "name": "allowance",
            "outputs": [
                {
                    "internalType": "uint256",
                    "name": "",
                    "type": "uint256"
                }
            ],
            "stateMutability": "view",
            "type": "function"
        },
        {
            "inputs": [
                {
                    "internalType": "string",
                    "name": "message",
                    "type": "string"
                }
            ],
            "name": "announcement",
            "outputs": [],
            "stateMutability": "nonpayable",
            "type": "function"
        },
        {
            "inputs": [
                {
                    "internalType": "address",
                    "name": "spender",
                    "type": "address"
                },
                {
                    "internalType": "uint256",
                    "name": "value",
                    "type": "uint256"
                }
            ],
            "name": "approve",
            "outputs": [
                {
                    "internalType": "bool",
                    "name": "",
                    "type": "bool"
                }
            ],
            "stateMutability": "nonpayable",
            "type": "function"
        },
        {
            "inputs": [
                {
                    "internalType": "address",
                    "name": "account",
                    "type": "address"
                }
            ],
            "name": "balanceOf",
            "outputs": [
                {
                    "internalType": "uint256",
                    "name": "",
                    "type": "uint256"
                }
            ],
            "stateMutability": "view",
            "type": "function"
        },
        {
            "inputs": [
                {
                    "internalType": "uint256",
                    "name": "_amount",
                    "type": "uint256"
                }
            ],
            "name": "burn",
            "outputs": [],
            "stateMutability": "nonpayable",
            "type": "function"
        },
        {
            "inputs": [],
            "name": "claimPeriod",
            "outputs": [
                {
                    "internalType": "uint256",
                    "name": "",
                    "type": "uint256"
                }
            ],
            "stateMutability": "view",
            "type": "function"
        },
        {
            "inputs": [
                {
                    "internalType": "address",
                    "name": "",
                    "type": "address"
                }
            ],
            "name": "claims",
            "outputs": [
                {
                    "internalType": "address",
                    "name": "claimant",
                    "type": "address"
                },
                {
                    "internalType": "uint256",
                    "name": "collateral",
                    "type": "uint256"
                },
                {
                    "internalType": "uint256",
                    "name": "timestamp",
                    "type": "uint256"
                },
                {
                    "internalType": "address",
                    "name": "currencyUsed",
                    "type": "address"
                }
            ],
            "stateMutability": "view",
            "type": "function"
        },
        {
            "inputs": [],
            "name": "clearClaim",
            "outputs": [],
            "stateMutability": "nonpayable",
            "type": "function"
        },
        {
            "inputs": [],
            "name": "customCollateralAddress",
            "outputs": [
                {
                    "internalType": "address",
                    "name": "",
                    "type": "address"
                }
            ],
            "stateMutability": "view",
            "type": "function"
        },
        {
            "inputs": [],
            "name": "customCollateralRate",
            "outputs": [
                {
                    "internalType": "uint256",
                    "name": "",
                    "type": "uint256"
                }
            ],
            "stateMutability": "view",
            "type": "function"
        },
        {
            "inputs": [],
            "name": "decimals",
            "outputs": [
                {
                    "internalType": "uint8",
                    "name": "",
                    "type": "uint8"
                }
            ],
            "stateMutability": "view",
            "type": "function"
        },
        {
            "inputs": [
                {
                    "internalType": "address",
                    "name": "holder",
                    "type": "address"
                },
                {
                    "internalType": "uint256",
                    "name": "amount",
                    "type": "uint256"
                },
                {
                    "internalType": "string",
                    "name": "message",
                    "type": "string"
                }
            ],
            "name": "declareInvalid",
            "outputs": [],
            "stateMutability": "nonpayable",
            "type": "function"
        },
        {
            "inputs": [
                {
                    "internalType": "address",
                    "name": "collateralType",
                    "type": "address"
                },
                {
                    "internalType": "address",
                    "name": "lostAddress",
                    "type": "address"
                }
            ],
            "name": "declareLost",
            "outputs": [],
            "stateMutability": "nonpayable",
            "type": "function"
        },
        {
            "inputs": [
                {
                    "internalType": "address",
                    "name": "lostAddress",
                    "type": "address"
                }
            ],
            "name": "deleteClaim",
            "outputs": [],
            "stateMutability": "nonpayable",
            "type": "function"
        },
        {
            "inputs": [],
            "name": "getClaimDeleter",
            "outputs": [
                {
                    "internalType": "address",
                    "name": "",
                    "type": "address"
                }
            ],
            "stateMutability": "view",
            "type": "function"
        },
        {
            "inputs": [
                {
                    "internalType": "address",
                    "name": "lostAddress",
                    "type": "address"
                }
            ],
            "name": "getClaimant",
            "outputs": [
                {
                    "internalType": "address",
                    "name": "",
                    "type": "address"
                }
            ],
            "stateMutability": "view",
            "type": "function"
        },
        {
            "inputs": [
                {
                    "internalType": "address",
                    "name": "lostAddress",
                    "type": "address"
                }
            ],
            "name": "getCollateral",
            "outputs": [
                {
                    "internalType": "uint256",
                    "name": "",
                    "type": "uint256"
                }
            ],
            "stateMutability": "view",
            "type": "function"
        },
        {
            "inputs": [
                {
                    "internalType": "address",
                    "name": "collateralType",
                    "type": "address"
                }
            ],
            "name": "getCollateralRate",
            "outputs": [
                {
                    "internalType": "uint256",
                    "name": "",
                    "type": "uint256"
                }
            ],
            "stateMutability": "view",
            "type": "function"
        },
        {
            "inputs": [
                {
                    "internalType": "address",
                    "name": "lostAddress",
                    "type": "address"
                }
            ],
            "name": "getCollateralType",
            "outputs": [
                {
                    "internalType": "address",
                    "name": "",
                    "type": "address"
                }
            ],
            "stateMutability": "view",
            "type": "function"
        },
        {
            "inputs": [
                {
                    "internalType": "address",
                    "name": "lostAddress",
                    "type": "address"
                }
            ],
            "name": "getTimeStamp",
            "outputs": [
                {
                    "internalType": "uint256",
                    "name": "",
                    "type": "uint256"
                }
            ],
            "stateMutability": "view",
            "type": "function"
        },
        {
            "inputs": [],
            "name": "invalidTokens",
            "outputs": [
                {
                    "internalType": "uint256",
                    "name": "",
                    "type": "uint256"
                }
            ],
            "stateMutability": "view",
            "type": "function"
        },
        {
            "inputs": [
                {
                    "internalType": "address",
                    "name": "target",
                    "type": "address"
                }
            ],
            "name": "isRecoveryEnabled",
            "outputs": [
                {
                    "internalType": "bool",
                    "name": "",
                    "type": "bool"
                }
            ],
            "stateMutability": "view",
            "type": "function"
        },
        {
            "inputs": [
                {
                    "internalType": "address",
                    "name": "shareholder",
                    "type": "address"
                },
                {
                    "internalType": "uint256",
                    "name": "_amount",
                    "type": "uint256"
                }
            ],
            "name": "mint",
            "outputs": [],
            "stateMutability": "nonpayable",
            "type": "function"
        },
        {
            "inputs": [
                {
                    "internalType": "address",
                    "name": "shareholder",
                    "type": "address"
                },
                {
                    "internalType": "address",
                    "name": "callee",
                    "type": "address"
                },
                {
                    "internalType": "uint256",
                    "name": "amount",
                    "type": "uint256"
                },
                {
                    "internalType": "bytes",
                    "name": "data",
                    "type": "bytes"
                }
            ],
            "name": "mintAndCall",
            "outputs": [],
            "stateMutability": "nonpayable",
            "type": "function"
        },
        {
            "inputs": [
                {
                    "internalType": "address",
                    "name": "shareholder",
                    "type": "address"
                },
                {
                    "internalType": "uint256",
                    "name": "firstShareNumber",
                    "type": "uint256"
                },
                {
                    "internalType": "uint256",
                    "name": "lastShareNumber",
                    "type": "uint256"
                }
            ],
            "name": "mintNumbered",
            "outputs": [],
            "stateMutability": "nonpayable",
            "type": "function"
        },
        {
            "inputs": [
                {
                    "internalType": "address",
                    "name": "shareholder",
                    "type": "address"
                },
                {
                    "internalType": "address",
                    "name": "callee",
                    "type": "address"
                },
                {
                    "internalType": "uint256",
                    "name": "firstShareNumber",
                    "type": "uint256"
                },
                {
                    "internalType": "uint256",
                    "name": "lastShareNumber",
                    "type": "uint256"
                },
                {
                    "internalType": "bytes",
                    "name": "data",
                    "type": "bytes"
                }
            ],
            "name": "mintNumberedAndCall",
            "outputs": [],
            "stateMutability": "nonpayable",
            "type": "function"
        },
        {
            "inputs": [],
            "name": "name",
            "outputs": [
                {
                    "internalType": "string",
                    "name": "",
                    "type": "string"
                }
            ],
            "stateMutability": "view",
            "type": "function"
        },
        {
            "inputs": [],
            "name": "owner",
            "outputs": [
                {
                    "internalType": "address",
                    "name": "",
                    "type": "address"
                }
            ],
            "stateMutability": "view",
            "type": "function"
        },
        {
            "inputs": [
                {
                    "internalType": "address",
                    "name": "contractAddress",
                    "type": "address"
                }
            ],
            "name": "recognizeSubRegister",
            "outputs": [],
            "stateMutability": "nonpayable",
            "type": "function"
        },
        {
            "inputs": [
                {
                    "internalType": "address",
                    "name": "lostAddress",
                    "type": "address"
                }
            ],
            "name": "recover",
            "outputs": [],
            "stateMutability": "nonpayable",
            "type": "function"
        },
        {
            "inputs": [
                {
                    "internalType": "address",
                    "name": "",
                    "type": "address"
                }
            ],
            "name": "recoveryDisabled",
            "outputs": [
                {
                    "internalType": "bool",
                    "name": "",
                    "type": "bool"
                }
            ],
            "stateMutability": "view",
            "type": "function"
        },
        {
            "inputs": [
                {
                    "internalType": "address",
                    "name": "collateral",
                    "type": "address"
                },
                {
                    "internalType": "uint256",
                    "name": "rate",
                    "type": "uint256"
                }
            ],
            "name": "setCustomClaimCollateral",
            "outputs": [],
            "stateMutability": "nonpayable",
            "type": "function"
        },
        {
            "inputs": [
                {
                    "internalType": "string",
                    "name": "_symbol",
                    "type": "string"
                },
                {
                    "internalType": "string",
                    "name": "_name",
                    "type": "string"
                }
            ],
            "name": "setName",
            "outputs": [],
            "stateMutability": "nonpayable",
            "type": "function"
        },
        {
            "inputs": [
                {
                    "internalType": "bool",
                    "name": "enabled",
                    "type": "bool"
                }
            ],
            "name": "setRecoverable",
            "outputs": [],
            "stateMutability": "nonpayable",
            "type": "function"
        },
        {
            "inputs": [
                {
                    "internalType": "string",
                    "name": "_terms",
                    "type": "string"
                }
            ],
            "name": "setTerms",
            "outputs": [],
            "stateMutability": "nonpayable",
            "type": "function"
        },
        {
            "inputs": [
                {
                    "internalType": "uint256",
                    "name": "_newTotalShares",
                    "type": "uint256"
                }
            ],
            "name": "setTotalShares",
            "outputs": [],
            "stateMutability": "nonpayable",
            "type": "function"
        },
        {
            "inputs": [],
            "name": "symbol",
            "outputs": [
                {
                    "internalType": "string",
                    "name": "",
                    "type": "string"
                }
            ],
            "stateMutability": "view",
            "type": "function"
        },
        {
            "inputs": [],
            "name": "terms",
            "outputs": [
                {
                    "internalType": "string",
                    "name": "",
                    "type": "string"
                }
            ],
            "stateMutability": "view",
            "type": "function"
        },
        {
            "inputs": [],
            "name": "totalShares",
            "outputs": [
                {
                    "internalType": "uint256",
                    "name": "",
                    "type": "uint256"
                }
            ],
            "stateMutability": "view",
            "type": "function"
        },
        {
            "inputs": [],
            "name": "totalSupply",
            "outputs": [
                {
                    "internalType": "uint256",
                    "name": "",
                    "type": "uint256"
                }
            ],
            "stateMutability": "view",
            "type": "function"
        },
        {
            "inputs": [],
            "name": "totalValidSupply",
            "outputs": [
                {
                    "internalType": "uint256",
                    "name": "",
                    "type": "uint256"
                }
            ],
            "stateMutability": "view",
            "type": "function"
        },
        {
            "inputs": [
                {
                    "internalType": "address",
                    "name": "recipient",
                    "type": "address"
                },
                {
                    "internalType": "uint256",
                    "name": "amount",
                    "type": "uint256"
                }
            ],
            "name": "transfer",
            "outputs": [
                {
                    "internalType": "bool",
                    "name": "",
                    "type": "bool"
                }
            ],
            "stateMutability": "nonpayable",
            "type": "function"
        },
        {
            "inputs": [
                {
                    "internalType": "address",
                    "name": "recipient",
                    "type": "address"
                },
                {
                    "internalType": "uint256",
                    "name": "amount",
                    "type": "uint256"
                },
                {
                    "internalType": "bytes",
                    "name": "data",
                    "type": "bytes"
                }
            ],
            "name": "transferAndCall",
            "outputs": [
                {
                    "internalType": "bool",
                    "name": "",
                    "type": "bool"
                }
            ],
            "stateMutability": "nonpayable",
            "type": "function"
        },
        {
            "inputs": [
                {
                    "internalType": "address",
                    "name": "sender",
                    "type": "address"
                },
                {
                    "internalType": "address",
                    "name": "recipient",
                    "type": "address"
                },
                {
                    "internalType": "uint256",
                    "name": "amount",
                    "type": "uint256"
                }
            ],
            "name": "transferFrom",
            "outputs": [
                {
                    "internalType": "bool",
                    "name": "",
                    "type": "bool"
                }
            ],
            "stateMutability": "nonpayable",
            "type": "function"
        },
        {
            "inputs": [
                {
                    "internalType": "address",
                    "name": "newOwner",
                    "type": "address"
                }
            ],
            "name": "transferOwnership",
            "outputs": [],
            "stateMutability": "nonpayable",
            "type": "function"
        }
    ],
    "bytecode": "60806040526000600c556000600d553480156200001b57600080fd5b5060405162002947380380620029478339810160408190526200003e9162000345565b6003805460ff19169055600880546001600160a01b0319163317908190556040516001600160a01b0391909116906000907f8be0079c531659141344cd1fd0a4f28419497f9722a3daafe3b4186f6b6457e0908290a3620000a08484620000cb565b620000ab816200018b565b8151620000c090600b90602085019062000210565b505050505062000588565b6008546001600160a01b03163314620001015760405162461bcd60e51b8152600401620000f890620004bb565b60405180910390fd5b81516200011690600a90602085019062000210565b5080516200012c90600990602084019062000210565b507f07ce702fc13ca0620c174dab22996a6d5fd9e7accb663555a4e85323692706ba818360405160200162000163929190620003da565b60408051601f19818403018152908290526200017f916200043f565b60405180910390a15050565b6008546001600160a01b03163314620001b85760405162461bcd60e51b8152600401620000f890620004bb565b620001c2620001e9565b811015620001e45760405162461bcd60e51b8152600401620000f89062000474565b600c55565b600d54600090620001f96200020a565b620002059190620004de565b905090565b60025490565b8280546200021e9062000535565b90600052602060002090601f0160209004810192826200024257600085556200028d565b82601f106200025d57805160ff19168380011785556200028d565b828001600101855582156200028d579182015b828111156200028d57825182559160200191906001019062000270565b506200029b9291506200029f565b5090565b5b808211156200029b5760008155600101620002a0565b600082601f830112620002c7578081fd5b81516001600160401b0380821115620002e457620002e462000572565b604051601f8301601f19908116603f011681019082821181831017156200030f576200030f62000572565b8160405283815286602085880101111562000328578485fd5b6200033b84602083016020890162000502565b9695505050505050565b600080600080608085870312156200035b578384fd5b84516001600160401b038082111562000372578586fd5b6200038088838901620002b6565b9550602087015191508082111562000396578485fd5b620003a488838901620002b6565b94506040870151915080821115620003ba578384fd5b50620003c987828801620002b6565b606096909601519497939650505050565b60006902732bb903730b6b29d160b51b825283516200040181600a85016020880162000502565b61040560f31b600a9184019182015283516200042581600c84016020880162000502565b602960f81b600c9290910191820152600d01949350505050565b60006020825282518060208401526200046081604085016020870162000502565b601f01601f19169190910160400192915050565b60208082526027908201527f54686572652063616e277420626520666577657220746f6b656e73207468616e6040820152662073686172657360c81b606082015260800190565b6020808252600990820152683737ba1037bbb732b960b91b604082015260600190565b600082821015620004fd57634e487b7160e01b81526011600452602481fd5b500390565b60005b838110156200051f57818101518382015260200162000505565b838111156200052f576000848401525b50505050565b6002810460018216806200054a57607f821691505b602082108114156200056c57634e487b7160e01b600052602260045260246000fd5b50919050565b634e487b7160e01b600052604160045260246000fd5b6123af80620005986000396000f3fe608060405234801561001057600080fd5b506004361061027f5760003560e01c8063609181171161015c578063a3ec1883116100ce578063cc51e14311610087578063cc51e14314610536578063d502562514610549578063dd62ed3e14610551578063eb470ebf14610564578063f2fde38b14610577578063f54fc0601461058a5761027f565b8063a3ec1883146104bf578063a77384c1146104d2578063a9059cbb146104e5578063b0d04c7a146104f8578063b40e80d114610500578063c6788bdd146105135761027f565b806377e071ad1161012057806377e071ad1461046e57806378f86afc146104815780637dc2cd98146104945780638da5cb5b1461049c57806395d89b41146104a45780639b56d6c9146104ac5761027f565b806360918117146104255780636427ed971461042d57806369f721e2146104405780636b03ed5f1461045357806370a082311461045b5761027f565b806332a7ae95116101f55780634000aea0116101b95780634000aea0146103b357806340c10f19146103c657806342966c68146103d9578063551ad632146103ec5780635c707f07146103ff5780635d6624b7146104125761027f565b806332a7ae951461036a57806337a8129c1461037d5780633a1cdf32146103855780633a98ef39146103985780633bcc45ba146103a05761027f565b80631e3b9de5116102475780631e3b9de5146103015780631f0f06aa1461031457806323b872dd1461032757806326773ddd1461033a5780632a0a4ed51461034d578063313ce567146103555761027f565b806306fdde0314610284578063095ea7b3146102a25780630c6f0e5d146102c25780630cd865ec146102d757806318160ddd146102ec575b600080fd5b61028c61059d565b6040516102999190611fe7565b60405180910390f35b6102b56102b0366004611c7d565b61062b565b6040516102999190611fc8565b6102ca610641565b6040516102999190611f1a565b6102ea6102e5366004611b0c565b610650565b005b6102f4610850565b6040516102999190612247565b6102ca61030f366004611b0c565b610856565b6102ea610322366004611d68565b610877565b6102b5610335366004611b5f565b6108de565b6102ea610348366004611b2d565b61093a565b6102ca610b45565b61035d610b54565b6040516102999190612278565b6102ea610378366004611b0c565b610b5d565b6102f4610d24565b6102ea610393366004611c7d565b610d2a565b6102f4610d62565b6102ca6103ae366004611b0c565b610d68565b6102b56103c1366004611ca6565b610d89565b6102ea6103d4366004611c7d565b610e2e565b6102ea6103e7366004611e44565b610e62565b6102ea6103fa366004611c07565b610ea2565b6102ea61040d366004611de3565b610f4e565b6102ea610420366004611ca6565b610fee565b6102f4611097565b6102ea61043b366004611d30565b61109d565b6102ea61044e366004611cfe565b6110bc565b6102ea61114c565b6102f4610469366004611b0c565b611276565b6102f461047c366004611b0c565b611291565b6102ea61048f366004611da8565b6112d3565b6102f4611368565b6102ca61136f565b61028c61137e565b6102f46104ba366004611b0c565b61138b565b6102b56104cd366004611b0c565b6113a9565b6102ea6104e0366004611e44565b6113c8565b6102b56104f3366004611c7d565b61141e565b6102f461143b565b6102b561050e366004611b0c565b611457565b610526610521366004611b0c565b61146c565b6040516102999493929190611f9d565b6102ea610544366004611b0c565b61149e565b61028c6114f7565b6102f461055f366004611b2d565b611504565b6102f4610572366004611b0c565b61152f565b6102ea610585366004611b0c565b61154d565b6102ea610598366004611b9a565b6115d3565b600980546105aa90612304565b80601f01602080910402602001604051908101604052809291908181526020018280546105d690612304565b80156106235780601f106105f857610100808354040283529160200191610623565b820191906000526020600020905b81548152906001019060200180831161060657829003601f168201915b505050505081565b6000610638338484611669565b50600192915050565b6006546001600160a01b031681565b6001600160a01b03808216600090815260046020908152604091829020825160808101845281548516815260018201549281018390526002820154938101939093526003015490921660608201819052909190816106c95760405162461bcd60e51b81526004016106c09061215a565b60405180910390fd5b82516001600160a01b031633146106f25760405162461bcd60e51b81526004016106c090612061565b4262ed4e0084604001516107069190612286565b11156107245760405162461bcd60e51b81526004016106c0906121b4565b82516001600160a01b03808616600090815260046020819052604080832080546001600160a01b031990811682556001820185905560028201949094556003018054909316909255905163a9059cbb60e01b81529184169163a9059cbb91610790918591889101611f52565b602060405180830381600087803b1580156107aa57600080fd5b505af11580156107be573d6000803e3d6000fd5b505050506040513d601f19601f820116820180604052508101906107e29190611d4c565b6107eb57600080fd5b6107fe85826107f988611276565b6116c4565b806001600160a01b0316856001600160a01b03167f52a5c2b28bc6eb9712d0ced43463103b486b13ccc9cda499fd3b2d7b6a74a8ee856040516108419190612247565b60405180910390a35050505050565b60025490565b6001600160a01b03808216600090815260046020526040902054165b919050565b6008546001600160a01b031633146108a15760405162461bcd60e51b81526004016106c090612224565b7f07ce702fc13ca0620c174dab22996a6d5fd9e7accb663555a4e85323692706ba82826040516108d2929190611fd3565b60405180910390a15050565b60006108eb8484846116c4565b6001600160a01b0384166000908152600160209081526040808320338452909152902054600160ff1b81101561092f5761092f853361092a86856122bd565b611669565b506001949350505050565b610943816113a9565b61095f5760405162461bcd60e51b81526004016106c090612087565b600061096a83611291565b90506000811161098c5760405162461bcd60e51b81526004016106c09061210f565b33600061099884611276565b905060006109a6848361229e565b905085826109c65760405162461bcd60e51b81526004016106c0906120f0565b6001600160a01b038616600090815260046020526040902060010154156109ff5760405162461bcd60e51b81526004016106c090612038565b6040516323b872dd60e01b81526001600160a01b038216906323b872dd90610a2f90879030908790600401611f2e565b602060405180830381600087803b158015610a4957600080fd5b505af1158015610a5d573d6000803e3d6000fd5b505050506040513d601f19601f82011682018060405250810190610a819190611d4c565b610a8a57600080fd5b604080516080810182526001600160a01b038087168083526020808401878152428587019081528d8516606087019081528d86166000818152600490955293889020965187549087166001600160a01b0319918216178855925160018801559051600287015551600390950180549590941694169390931790915591517f1982ca8958fc8a8176cb52be509260f4bc5af7ce04e1533711793f1c56dd535990610b34908790612247565b60405180910390a350505050505050565b6008546001600160a01b031690565b60035460ff1681565b610b65610b45565b6001600160a01b0316336001600160a01b031614610b955760405162461bcd60e51b81526004016106c090612137565b6001600160a01b038082166000908152600460209081526040918290208251608081018452815485168152600182015492810183905260028201549381019390935260030154909216606082018190529091610c035760405162461bcd60e51b81526004016106c09061215a565b6001600160a01b03808416600090815260046020818152604080842080546001600160a01b031990811682556001820186905560028201959095556003018054909416909355855190860151925163a9059cbb60e01b81529385169363a9059cbb93610c7193909101611f52565b602060405180830381600087803b158015610c8b57600080fd5b505af1158015610c9f573d6000803e3d6000fd5b505050506040513d601f19601f82011682018060405250810190610cc39190611d4c565b610ccc57600080fd5b81600001516001600160a01b0316836001600160a01b03167fbb036e629a9f4c0897ee5d48440dfdb36f7e772117723a2ed603a6514244c2d58460200151604051610d179190612247565b60405180910390a3505050565b600d5481565b6008546001600160a01b03163314610d545760405162461bcd60e51b81526004016106c090612224565b610d5e8282611781565b5050565b600c5481565b6001600160a01b039081166000908152600460205260409020600301541690565b600080610d96868661141e565b90508015610e2557604051635260769b60e11b81526001600160a01b0387169063a4c0ed3690610dd0903390899089908990600401611f6b565b602060405180830381600087803b158015610dea57600080fd5b505af1158015610dfe573d6000803e3d6000fd5b505050506040513d601f19601f82011682018060405250810190610e229190611d4c565b90505b95945050505050565b6008546001600160a01b03163314610e585760405162461bcd60e51b81526004016106c090612224565b610d5e8282611808565b610e6b33611276565b811115610e8a5760405162461bcd60e51b81526004016106c09061217d565b610e953330836116c4565b610e9f3082611846565b50565b610ead8685856110bc565b6001600160a01b03851663a4c0ed3687610ec787876122bd565b610ed2906001612286565b85856040518563ffffffff1660e01b8152600401610ef39493929190611f6b565b602060405180830381600087803b158015610f0d57600080fd5b505af1158015610f21573d6000803e3d6000fd5b505050506040513d601f19601f82011682018060405250810190610f459190611d4c565b50505050505050565b6008546001600160a01b03163314610f785760405162461bcd60e51b81526004016106c090612224565b8151610f8b90600a90602085019061198e565b508051610f9f90600990602084019061198e565b507f07ce702fc13ca0620c174dab22996a6d5fd9e7accb663555a4e85323692706ba8183604051602001610fd4929190611e86565b60408051601f19818403018152908290526108d291611fe7565b6008546001600160a01b031633146110185760405162461bcd60e51b81526004016106c090612224565b600061102385611276565b90508084111561103257600080fd5b83600d60008282546110449190612286565b92505081905550846001600160a01b03167f0a605cd1294f60fa3b73548ac68428f33300a051f225afcdcc75e56083c96ee785858560405161108893929190612250565b60405180910390a25050505050565b60075481565b336000908152600560205260409020805460ff19169115919091179055565b6008546001600160a01b031633146110e65760405162461bcd60e51b81526004016106c090612224565b826001600160a01b03167f7b37b2b4bba7b5ea40a69f93db727c289fbbaa632be8186cfa85e0297e001319838360405161112192919061226a565b60405180910390a26111478361113784846122bd565b611142906001612286565b611808565b505050565b33600090815260046020526040902060010154156112745733600081815260046020819052604080832060018101805460038301805484546001600160a01b0319908116865593889055600290940196909655908216909455905163a9059cbb60e01b815292936001600160a01b0390911692839263a9059cbb926111d5929091879101611f52565b602060405180830381600087803b1580156111ef57600080fd5b505af1158015611203573d6000803e3d6000fd5b505050506040513d601f19601f820116820180604052508101906112279190611d4c565b61123057600080fd5b336001600160a01b03167f203627483d943880619f4b7e0cca21dbefd6204b4d85b124eb99540e17ba86dd836040516112699190612247565b60405180910390a250505b565b6001600160a01b031660009081526020819052604090205490565b60006001600160a01b0382163014156112ac57506001610872565b6006546001600160a01b03838116911614156112cb5750600754610872565b506000610872565b6008546001600160a01b031633146112fd5760405162461bcd60e51b81526004016106c090612224565b805161131090600b90602084019061198e565b507f07ce702fc13ca0620c174dab22996a6d5fd9e7accb663555a4e85323692706ba816040516020016113439190611ee7565b60408051601f198184030181529082905261135d91611fe7565b60405180910390a150565b62ed4e0081565b6008546001600160a01b031681565b600a80546105aa90612304565b6001600160a01b031660009081526004602052604090206001015490565b6001600160a01b031660009081526005602052604090205460ff161590565b6008546001600160a01b031633146113f25760405162461bcd60e51b81526004016106c090612224565b6113fa61143b565b8110156114195760405162461bcd60e51b81526004016106c0906120a9565b600c55565b600061142a83836118e0565b61143357600080fd5b61063861114c565b6000600d54611448610850565b61145291906122bd565b905090565b60056020526000908152604090205460ff1681565b60046020526000908152604090208054600182015460028301546003909301546001600160a01b039283169391921684565b6008546001600160a01b031633146114c85760405162461bcd60e51b81526004016106c090612224565b7f6563ed86749f41d6f22086ebb321adce1e55ec5333f6bba7d83659510c49b73c8160405161135d9190611f1a565b600b80546105aa90612304565b6001600160a01b03918216600090815260016020908152604080832093909416825291909152205490565b6001600160a01b031660009081526004602052604090206002015490565b6008546001600160a01b031633146115775760405162461bcd60e51b81526004016106c090612224565b6008546040516001600160a01b038084169216907f8be0079c531659141344cd1fd0a4f28419497f9722a3daafe3b4186f6b6457e090600090a3600880546001600160a01b0319166001600160a01b0392909216919091179055565b6115dd8484610e2e565b604051635260769b60e11b81526001600160a01b0385169063a4c0ed369061160f908890879087908790600401611f6b565b602060405180830381600087803b15801561162957600080fd5b505af115801561163d573d6000803e3d6000fd5b505050506040513d601f19601f820116820180604052508101906116619190611d4c565b505050505050565b6001600160a01b0380841660008181526001602090815260408083209487168084529490915290819020849055517f8c5be1e5ebec7d5bd14f71427d1e84f3dd0314c0f7b2291e5b200ac8c7c3b92590610d17908590612247565b6001600160a01b0382166116d757600080fd5b6116e2838383611147565b6001600160a01b0383166000908152602081905260408120805483929061170a9084906122bd565b90915550506001600160a01b03821660009081526020819052604081208054839290611737908490612286565b92505081905550816001600160a01b0316836001600160a01b03167fddf252ad1be2c89b69c2b068fc378daa952ba7f163c4a11628f55a4df523b3ef83604051610d179190612247565b600680546001600160a01b0319166001600160a01b038481169190911791829055166117b15760006007556117d7565b600081116117d15760405162461bcd60e51b81526004016106c09061201a565b60078190555b7f94238858463adf0fecc0e064844831a54bccf8467c86f0b93d2a9508e059685382826040516108d2929190611f52565b600c548161181461143b565b61181e9190612286565b111561183c5760405162461bcd60e51b81526004016106c0906121d7565b610d5e82826118ed565b61185282600083611147565b806002600082825461186491906122bd565b90915550506001600160a01b038216600090815260208190526040812080548392906118919084906122bd565b90915550506040516000906001600160a01b038416907fddf252ad1be2c89b69c2b068fc378daa952ba7f163c4a11628f55a4df523b3ef906118d4908590612247565b60405180910390a35050565b60006106383384846116c4565b6001600160a01b03821661190057600080fd5b61190c60008383611147565b806002600082825461191e9190612286565b90915550506001600160a01b0382166000908152602081905260408120805483929061194b908490612286565b90915550506040516001600160a01b038316906000907fddf252ad1be2c89b69c2b068fc378daa952ba7f163c4a11628f55a4df523b3ef906118d4908590612247565b82805461199a90612304565b90600052602060002090601f0160209004810192826119bc5760008555611a02565b82601f106119d557805160ff1916838001178555611a02565b82800160010185558215611a02579182015b82811115611a025782518255916020019190600101906119e7565b50611a0e929150611a12565b5090565b5b80821115611a0e5760008155600101611a13565b80356001600160a01b038116811461087257600080fd5b60008083601f840112611a4f578182fd5b50813567ffffffffffffffff811115611a66578182fd5b602083019150836020828501011115611a7e57600080fd5b9250929050565b600082601f830112611a95578081fd5b813567ffffffffffffffff80821115611ab057611ab0612355565b604051601f8301601f19908116603f01168101908282118183101715611ad857611ad8612355565b81604052838152866020858801011115611af0578485fd5b8360208701602083013792830160200193909352509392505050565b600060208284031215611b1d578081fd5b611b2682611a27565b9392505050565b60008060408385031215611b3f578081fd5b611b4883611a27565b9150611b5660208401611a27565b90509250929050565b600080600060608486031215611b73578081fd5b611b7c84611a27565b9250611b8a60208501611a27565b9150604084013590509250925092565b600080600080600060808688031215611bb1578081fd5b611bba86611a27565b9450611bc860208701611a27565b935060408601359250606086013567ffffffffffffffff811115611bea578182fd5b611bf688828901611a3e565b969995985093965092949392505050565b60008060008060008060a08789031215611c1f578081fd5b611c2887611a27565b9550611c3660208801611a27565b94506040870135935060608701359250608087013567ffffffffffffffff811115611c5f578182fd5b611c6b89828a01611a3e565b979a9699509497509295939492505050565b60008060408385031215611c8f578182fd5b611c9883611a27565b946020939093013593505050565b60008060008060608587031215611cbb578384fd5b611cc485611a27565b935060208501359250604085013567ffffffffffffffff811115611ce6578283fd5b611cf287828801611a3e565b95989497509550505050565b600080600060608486031215611d12578283fd5b611d1b84611a27565b95602085013595506040909401359392505050565b600060208284031215611d41578081fd5b8135611b268161236b565b600060208284031215611d5d578081fd5b8151611b268161236b565b60008060208385031215611d7a578182fd5b823567ffffffffffffffff811115611d90578283fd5b611d9c85828601611a3e565b90969095509350505050565b600060208284031215611db9578081fd5b813567ffffffffffffffff811115611dcf578182fd5b611ddb84828501611a85565b949350505050565b60008060408385031215611df5578182fd5b823567ffffffffffffffff80821115611e0c578384fd5b611e1886838701611a85565b93506020850135915080821115611e2d578283fd5b50611e3a85828601611a85565b9150509250929050565b600060208284031215611e55578081fd5b5035919050565b60008284528282602086013780602084860101526020601f19601f85011685010190509392505050565b60006902732bb903730b6b29d160b51b82528351611eab81600a8501602088016122d4565b61040560f31b600a918401918201528351611ecd81600c8401602088016122d4565b602960f81b600c9290910191820152600d01949350505050565b60006a02732bb903a32b936b99d160ad1b82528251611f0d81600b8501602087016122d4565b91909101600b0192915050565b6001600160a01b0391909116815260200190565b6001600160a01b039384168152919092166020820152604081019190915260600190565b6001600160a01b03929092168252602082015260400190565b600060018060a01b038616825284602083015260606040830152611f93606083018486611e5c565b9695505050505050565b6001600160a01b03948516815260208101939093526040830191909152909116606082015260800190565b901515815260200190565b600060208252611ddb602083018486611e5c565b60006020825282518060208401526120068160408501602087016122d4565b601f01601f19169190910160400192915050565b6020808252600490820152637a65726f60e01b604082015260600190565b6020808252600f908201526e185b1c9958591e4818db185a5b5959608a1b604082015260600190565b6020808252600c908201526b1b9bdd0818db185a5b585b9d60a21b604082015260600190565b602080825260089082015267191a5cd8589b195960c21b604082015260600190565b60208082526027908201527f54686572652063616e277420626520666577657220746f6b656e73207468616e6040820152662073686172657360c81b606082015260800190565b602080825260059082015264656d70747960d81b604082015260600190565b6020808252600e908201526d1898590818dbdb1b185d195c985b60921b604082015260600190565b6020808252600990820152686e6f2061636365737360b81b604082015260600190565b6020808252600990820152681b9bdd08199bdd5b9960ba1b604082015260600190565b6020808252601b908201527f4e6f7420656e6f7567682073686172657320617661696c61626c650000000000604082015260600190565b602080825260099082015268746f6f206561726c7960b81b604082015260600190565b6020808252602d908201527f54686572652063616e277420626520666577657220736861726573207468616e60408201526c2076616c696420746f6b656e7360981b606082015260800190565b6020808252600990820152683737ba1037bbb732b960b91b604082015260600190565b90815260200190565b600084825260406020830152610e25604083018486611e5c565b918252602082015260400190565b60ff91909116815260200190565b600082198211156122995761229961233f565b500190565b60008160001904831182151516156122b8576122b861233f565b500290565b6000828210156122cf576122cf61233f565b500390565b60005b838110156122ef5781810151838201526020016122d7565b838111156122fe576000848401525b50505050565b60028104600182168061231857607f821691505b6020821081141561233957634e487b7160e01b600052602260045260246000fd5b50919050565b634e487b7160e01b600052601160045260246000fd5b634e487b7160e01b600052604160045260246000fd5b8015158114610e9f57600080fdfea26469706673582212205f302a07dcf0489b36eef306a0d8e7636b1a63d87ceb2fa39e544d26e8eea76f64736f6c63430008010033",
    "sourcePath": "c:/Users/luziu/Documents/aktionariat/contracts/src/Shares.sol",
    "compiler": {
        "name": "solc",
        "version": "0.8.1+commit.df193b15"
    },
    "functionHashes": {
        "allowance(address,address)": "dd62ed3e",
        "announcement(string)": "1f0f06aa",
        "approve(address,uint256)": "095ea7b3",
        "balanceOf(address)": "70a08231",
        "burn(uint256)": "42966c68",
        "claimPeriod()": "7dc2cd98",
        "claims(address)": "c6788bdd",
        "clearClaim()": "6b03ed5f",
        "customCollateralAddress()": "0c6f0e5d",
        "customCollateralRate()": "60918117",
        "decimals()": "313ce567",
        "declareInvalid(address,uint256,string)": "5d6624b7",
        "declareLost(address,address)": "26773ddd",
        "deleteClaim(address)": "32a7ae95",
        "getClaimDeleter()": "2a0a4ed5",
        "getClaimant(address)": "1e3b9de5",
        "getCollateral(address)": "9b56d6c9",
        "getCollateralRate(address)": "77e071ad",
        "getCollateralType(address)": "3bcc45ba",
        "getTimeStamp(address)": "eb470ebf",
        "invalidTokens()": "37a8129c",
        "isRecoveryEnabled(address)": "a3ec1883",
        "mint(address,uint256)": "40c10f19",
        "mintAndCall(address,address,uint256,bytes)": "f54fc060",
        "mintNumbered(address,uint256,uint256)": "69f721e2",
        "mintNumberedAndCall(address,address,uint256,uint256,bytes)": "551ad632",
        "name()": "06fdde03",
        "owner()": "8da5cb5b",
        "recognizeSubRegister(address)": "cc51e143",
        "recover(address)": "0cd865ec",
        "recoveryDisabled(address)": "b40e80d1",
        "setCustomClaimCollateral(address,uint256)": "3a1cdf32",
        "setName(string,string)": "5c707f07",
        "setRecoverable(bool)": "6427ed97",
        "setTerms(string)": "78f86afc",
        "setTotalShares(uint256)": "a77384c1",
        "symbol()": "95d89b41",
        "terms()": "d5025625",
        "totalShares()": "3a98ef39",
        "totalSupply()": "18160ddd",
        "totalValidSupply()": "b0d04c7a",
        "transfer(address,uint256)": "a9059cbb",
        "transferAndCall(address,uint256,bytes)": "4000aea0",
        "transferFrom(address,address,uint256)": "23b872dd",
        "transferOwnership(address)": "f2fde38b"
    },
    "gasEstimates": {
        "creation": {
            "codeDepositCost": "1827000",
            "executionCost": "infinite",
            "totalCost": "infinite"
        },
        "external": {
            "allowance(address,address)": "infinite",
            "announcement(string)": "infinite",
            "approve(address,uint256)": "22555",
            "balanceOf(address)": "1407",
            "burn(uint256)": "infinite",
            "claimPeriod()": "317",
            "claims(address)": "3978",
            "clearClaim()": "infinite",
            "customCollateralAddress()": "1161",
            "customCollateralRate()": "1074",
            "decimals()": "1202",
            "declareInvalid(address,uint256,string)": "infinite",
            "declareLost(address,address)": "infinite",
            "deleteClaim(address)": "infinite",
            "getClaimDeleter()": "1204",
            "getClaimant(address)": "infinite",
            "getCollateral(address)": "1431",
            "getCollateralRate(address)": "infinite",
            "getCollateralType(address)": "1443",
            "getTimeStamp(address)": "1386",
            "invalidTokens()": "1096",
            "isRecoveryEnabled(address)": "1330",
            "mint(address,uint256)": "infinite",
            "mintAndCall(address,address,uint256,bytes)": "infinite",
            "mintNumbered(address,uint256,uint256)": "infinite",
            "mintNumberedAndCall(address,address,uint256,uint256,bytes)": "infinite",
            "name()": "infinite",
            "owner()": "1181",
            "recognizeSubRegister(address)": "2302",
            "recover(address)": "infinite",
            "recoveryDisabled(address)": "1397",
            "setCustomClaimCollateral(address,uint256)": "43604",
            "setName(string,string)": "infinite",
            "setRecoverable(bool)": "21256",
            "setTerms(string)": "infinite",
            "setTotalShares(uint256)": "22889",
            "symbol()": "infinite",
            "terms()": "infinite",
            "totalShares()": "1140",
            "totalSupply()": "1163",
            "totalValidSupply()": "2044",
            "transfer(address,uint256)": "infinite",
            "transferAndCall(address,uint256,bytes)": "infinite",
            "transferFrom(address,address,uint256)": "infinite",
            "transferOwnership(address)": "24497"
        },
        "internal": {
            "_beforeTokenTransfer(address,address,uint256)": "infinite",
            "_mint(address,uint256)": "infinite"
        }
    }
}