{
    "contractName": "Shares",
    "abi": [
        {
            "inputs": [
                {
                    "internalType": "string",
                    "name": "_symbol",
                    "type": "string"
                },
                {
                    "internalType": "string",
                    "name": "_name",
                    "type": "string"
                },
                {
                    "internalType": "string",
                    "name": "_terms",
                    "type": "string"
                },
                {
                    "internalType": "uint256",
                    "name": "_totalShares",
                    "type": "uint256"
                },
                {
                    "internalType": "address",
                    "name": "owner",
                    "type": "address"
                }
            ],
            "stateMutability": "nonpayable",
            "type": "constructor"
        },
        {
            "anonymous": false,
            "inputs": [
                {
                    "indexed": false,
                    "internalType": "string",
                    "name": "message",
                    "type": "string"
                }
            ],
            "name": "Announcement",
            "type": "event"
        },
        {
            "anonymous": false,
            "inputs": [
                {
                    "indexed": true,
                    "internalType": "address",
                    "name": "owner",
                    "type": "address"
                },
                {
                    "indexed": true,
                    "internalType": "address",
                    "name": "spender",
                    "type": "address"
                },
                {
                    "indexed": false,
                    "internalType": "uint256",
                    "name": "value",
                    "type": "uint256"
                }
            ],
            "name": "Approval",
            "type": "event"
        },
        {
            "anonymous": false,
            "inputs": [
                {
                    "indexed": true,
                    "internalType": "address",
                    "name": "previousOwner",
                    "type": "address"
                },
                {
                    "indexed": true,
                    "internalType": "address",
                    "name": "newOwner",
                    "type": "address"
                }
            ],
            "name": "OwnershipTransferred",
            "type": "event"
        },
        {
            "anonymous": false,
            "inputs": [
                {
                    "indexed": false,
                    "internalType": "address",
                    "name": "contractAddress",
                    "type": "address"
                }
            ],
            "name": "SubRegisterRecognized",
            "type": "event"
        },
        {
            "anonymous": false,
            "inputs": [
                {
                    "indexed": true,
                    "internalType": "address",
                    "name": "holder",
                    "type": "address"
                },
                {
                    "indexed": false,
                    "internalType": "uint256",
                    "name": "amount",
                    "type": "uint256"
                },
                {
                    "indexed": false,
                    "internalType": "string",
                    "name": "message",
                    "type": "string"
                }
            ],
            "name": "TokensDeclaredInvalid",
            "type": "event"
        },
        {
            "anonymous": false,
            "inputs": [
                {
                    "indexed": true,
                    "internalType": "address",
                    "name": "from",
                    "type": "address"
                },
                {
                    "indexed": true,
                    "internalType": "address",
                    "name": "to",
                    "type": "address"
                },
                {
                    "indexed": false,
                    "internalType": "uint256",
                    "name": "value",
                    "type": "uint256"
                }
            ],
            "name": "Transfer",
            "type": "event"
        },
        {
            "inputs": [
                {
                    "internalType": "address",
                    "name": "owner",
                    "type": "address"
                },
                {
                    "internalType": "address",
                    "name": "spender",
                    "type": "address"
                }
            ],
            "name": "allowance",
            "outputs": [
                {
                    "internalType": "uint256",
                    "name": "",
                    "type": "uint256"
                }
            ],
            "stateMutability": "view",
            "type": "function"
        },
        {
            "inputs": [
                {
                    "internalType": "string",
                    "name": "message",
                    "type": "string"
                }
            ],
            "name": "announcement",
            "outputs": [],
            "stateMutability": "nonpayable",
            "type": "function"
        },
        {
            "inputs": [
                {
                    "internalType": "address",
                    "name": "spender",
                    "type": "address"
                },
                {
                    "internalType": "uint256",
                    "name": "value",
                    "type": "uint256"
                }
            ],
            "name": "approve",
            "outputs": [
                {
                    "internalType": "bool",
                    "name": "",
                    "type": "bool"
                }
            ],
            "stateMutability": "nonpayable",
            "type": "function"
        },
        {
            "inputs": [
                {
                    "internalType": "address",
                    "name": "account",
                    "type": "address"
                }
            ],
            "name": "balanceOf",
            "outputs": [
                {
                    "internalType": "uint256",
                    "name": "",
                    "type": "uint256"
                }
            ],
            "stateMutability": "view",
            "type": "function"
        },
        {
            "inputs": [
                {
                    "internalType": "uint256",
                    "name": "_amount",
                    "type": "uint256"
                }
            ],
            "name": "burn",
            "outputs": [],
            "stateMutability": "nonpayable",
            "type": "function"
        },
        {
            "inputs": [],
            "name": "claimPeriod",
            "outputs": [
                {
                    "internalType": "uint256",
                    "name": "",
                    "type": "uint256"
                }
            ],
            "stateMutability": "pure",
            "type": "function"
        },
        {
            "inputs": [],
            "name": "customCollateralAddress",
            "outputs": [
                {
                    "internalType": "address",
                    "name": "",
                    "type": "address"
                }
            ],
            "stateMutability": "view",
            "type": "function"
        },
        {
            "inputs": [],
            "name": "customCollateralRate",
            "outputs": [
                {
                    "internalType": "uint256",
                    "name": "",
                    "type": "uint256"
                }
            ],
            "stateMutability": "view",
            "type": "function"
        },
        {
            "inputs": [],
            "name": "decimals",
            "outputs": [
                {
                    "internalType": "uint8",
                    "name": "",
                    "type": "uint8"
                }
            ],
            "stateMutability": "view",
            "type": "function"
        },
        {
            "inputs": [
                {
                    "internalType": "address",
                    "name": "holder",
                    "type": "address"
                },
                {
                    "internalType": "uint256",
                    "name": "amount",
                    "type": "uint256"
                },
                {
                    "internalType": "string",
                    "name": "message",
                    "type": "string"
                }
            ],
            "name": "declareInvalid",
            "outputs": [],
            "stateMutability": "nonpayable",
            "type": "function"
        },
        {
            "inputs": [
                {
                    "internalType": "address",
                    "name": "lostAddress",
                    "type": "address"
                }
            ],
            "name": "deleteClaim",
            "outputs": [],
            "stateMutability": "nonpayable",
            "type": "function"
        },
        {
            "inputs": [],
            "name": "getClaimDeleter",
            "outputs": [
                {
                    "internalType": "address",
                    "name": "",
                    "type": "address"
                }
            ],
            "stateMutability": "view",
            "type": "function"
        },
        {
            "inputs": [
                {
                    "internalType": "address",
                    "name": "collateralType",
                    "type": "address"
                }
            ],
            "name": "getCollateralRate",
            "outputs": [
                {
                    "internalType": "uint256",
                    "name": "",
                    "type": "uint256"
                }
            ],
            "stateMutability": "view",
            "type": "function"
        },
        {
            "inputs": [
                {
                    "internalType": "address",
                    "name": "account",
                    "type": "address"
                },
                {
                    "internalType": "uint8",
                    "name": "number",
                    "type": "uint8"
                }
            ],
            "name": "hasFlag",
            "outputs": [
                {
                    "internalType": "bool",
                    "name": "",
                    "type": "bool"
                }
            ],
            "stateMutability": "view",
            "type": "function"
        },
        {
            "inputs": [],
            "name": "invalidTokens",
            "outputs": [
                {
                    "internalType": "uint256",
                    "name": "",
                    "type": "uint256"
                }
            ],
            "stateMutability": "view",
            "type": "function"
        },
        {
            "inputs": [
                {
                    "internalType": "address",
                    "name": "target",
                    "type": "address"
                },
                {
                    "internalType": "uint256",
                    "name": "amount",
                    "type": "uint256"
                }
            ],
            "name": "mint",
            "outputs": [],
            "stateMutability": "nonpayable",
            "type": "function"
        },
        {
            "inputs": [
                {
                    "internalType": "address",
                    "name": "shareholder",
                    "type": "address"
                },
                {
                    "internalType": "address",
                    "name": "callee",
                    "type": "address"
                },
                {
                    "internalType": "uint256",
                    "name": "amount",
                    "type": "uint256"
                },
                {
                    "internalType": "bytes",
                    "name": "data",
                    "type": "bytes"
                }
            ],
            "name": "mintAndCall",
            "outputs": [],
            "stateMutability": "nonpayable",
            "type": "function"
        },
        {
            "inputs": [],
            "name": "name",
            "outputs": [
                {
                    "internalType": "string",
                    "name": "",
                    "type": "string"
                }
            ],
            "stateMutability": "view",
            "type": "function"
        },
        {
            "inputs": [
                {
                    "internalType": "address",
                    "name": "target",
                    "type": "address"
                }
            ],
            "name": "notifyClaimDeleted",
            "outputs": [],
            "stateMutability": "nonpayable",
            "type": "function"
        },
        {
            "inputs": [
                {
                    "internalType": "address",
                    "name": "target",
                    "type": "address"
                }
            ],
            "name": "notifyClaimMade",
            "outputs": [],
            "stateMutability": "nonpayable",
            "type": "function"
        },
        {
            "inputs": [],
            "name": "owner",
            "outputs": [
                {
                    "internalType": "address",
                    "name": "",
                    "type": "address"
                }
            ],
            "stateMutability": "view",
            "type": "function"
        },
        {
            "inputs": [
                {
                    "internalType": "address",
                    "name": "contractAddress",
                    "type": "address"
                }
            ],
            "name": "recognizeSubRegister",
            "outputs": [],
            "stateMutability": "nonpayable",
            "type": "function"
        },
        {
            "inputs": [
                {
                    "internalType": "address",
                    "name": "oldAddress",
                    "type": "address"
                },
                {
                    "internalType": "address",
                    "name": "newAddress",
                    "type": "address"
                }
            ],
            "name": "recover",
            "outputs": [],
            "stateMutability": "nonpayable",
            "type": "function"
        },
        {
            "inputs": [],
            "name": "recovery",
            "outputs": [
                {
                    "internalType": "contract IRecoveryHub",
                    "name": "",
                    "type": "address"
                }
            ],
            "stateMutability": "view",
            "type": "function"
        },
        {
            "inputs": [
                {
                    "internalType": "address",
                    "name": "collateral",
                    "type": "address"
                },
                {
                    "internalType": "uint256",
                    "name": "rate",
                    "type": "uint256"
                }
            ],
            "name": "setCustomClaimCollateral",
            "outputs": [],
            "stateMutability": "nonpayable",
            "type": "function"
        },
        {
            "inputs": [
                {
                    "internalType": "string",
                    "name": "_symbol",
                    "type": "string"
                },
                {
                    "internalType": "string",
                    "name": "_name",
                    "type": "string"
                }
            ],
            "name": "setName",
            "outputs": [],
            "stateMutability": "nonpayable",
            "type": "function"
        },
        {
            "inputs": [
                {
                    "internalType": "string",
                    "name": "_terms",
                    "type": "string"
                }
            ],
            "name": "setTerms",
            "outputs": [],
            "stateMutability": "nonpayable",
            "type": "function"
        },
        {
            "inputs": [
                {
                    "internalType": "uint256",
                    "name": "_newTotalShares",
                    "type": "uint256"
                }
            ],
            "name": "setTotalShares",
            "outputs": [],
            "stateMutability": "nonpayable",
            "type": "function"
        },
        {
            "inputs": [],
            "name": "symbol",
            "outputs": [
                {
                    "internalType": "string",
                    "name": "",
                    "type": "string"
                }
            ],
            "stateMutability": "view",
            "type": "function"
        },
        {
            "inputs": [],
            "name": "terms",
            "outputs": [
                {
                    "internalType": "string",
                    "name": "",
                    "type": "string"
                }
            ],
            "stateMutability": "view",
            "type": "function"
        },
        {
            "inputs": [],
            "name": "totalShares",
            "outputs": [
                {
                    "internalType": "uint256",
                    "name": "",
                    "type": "uint256"
                }
            ],
            "stateMutability": "view",
            "type": "function"
        },
        {
            "inputs": [],
            "name": "totalSupply",
            "outputs": [
                {
                    "internalType": "uint256",
                    "name": "",
                    "type": "uint256"
                }
            ],
            "stateMutability": "view",
            "type": "function"
        },
        {
            "inputs": [],
            "name": "totalValidSupply",
            "outputs": [
                {
                    "internalType": "uint256",
                    "name": "",
                    "type": "uint256"
                }
            ],
            "stateMutability": "view",
            "type": "function"
        },
        {
            "inputs": [
                {
                    "internalType": "address",
                    "name": "to",
                    "type": "address"
                },
                {
                    "internalType": "uint256",
                    "name": "value",
                    "type": "uint256"
                }
            ],
            "name": "transfer",
            "outputs": [
                {
                    "internalType": "bool",
                    "name": "",
                    "type": "bool"
                }
            ],
            "stateMutability": "nonpayable",
            "type": "function"
        },
        {
            "inputs": [
                {
                    "internalType": "address",
                    "name": "recipient",
                    "type": "address"
                },
                {
                    "internalType": "uint256",
                    "name": "amount",
                    "type": "uint256"
                },
                {
                    "internalType": "bytes",
                    "name": "data",
                    "type": "bytes"
                }
            ],
            "name": "transferAndCall",
            "outputs": [
                {
                    "internalType": "bool",
                    "name": "",
                    "type": "bool"
                }
            ],
            "stateMutability": "nonpayable",
            "type": "function"
        },
        {
            "inputs": [
                {
                    "internalType": "address",
                    "name": "sender",
                    "type": "address"
                },
                {
                    "internalType": "address",
                    "name": "recipient",
                    "type": "address"
                },
                {
                    "internalType": "uint256",
                    "name": "amount",
                    "type": "uint256"
                }
            ],
            "name": "transferFrom",
            "outputs": [
                {
                    "internalType": "bool",
                    "name": "",
                    "type": "bool"
                }
            ],
            "stateMutability": "nonpayable",
            "type": "function"
        },
        {
            "inputs": [
                {
                    "internalType": "address",
                    "name": "newOwner",
                    "type": "address"
                }
            ],
            "name": "transferOwnership",
            "outputs": [],
            "stateMutability": "nonpayable",
            "type": "function"
        }
    ],
    "bytecode": "608060405260006009556000600a553480156200001b57600080fd5b5060405162001b8438038062001b848339810160408190526200003e9162000292565b6003805460ff19169055600580546001600160a01b0319166001600160a01b03831690811790915560405182918691889160009185919083907f8be0079c531659141344cd1fd0a4f28419497f9722a3daafe3b4186f6b6457e0908290a3508251620000b29060069060208601906200011f565b508151620000c89060079060208501906200011f565b50508751620000e29350600792506020890191506200011f565b508351620000f89060069060208701906200011f565b5060098290558251620001139060089060208601906200011f565b5050505050506200038e565b8280546200012d9062000351565b90600052602060002090601f0160209004810192826200015157600085556200019c565b82601f106200016c57805160ff19168380011785556200019c565b828001600101855582156200019c579182015b828111156200019c5782518255916020019190600101906200017f565b50620001aa929150620001ae565b5090565b5b80821115620001aa5760008155600101620001af565b634e487b7160e01b600052604160045260246000fd5b600082601f830112620001ed57600080fd5b81516001600160401b03808211156200020a576200020a620001c5565b604051601f8301601f19908116603f01168101908282118183101715620002355762000235620001c5565b816040528381526020925086838588010111156200025257600080fd5b600091505b8382101562000276578582018301518183018401529082019062000257565b83821115620002885760008385830101525b9695505050505050565b600080600080600060a08688031215620002ab57600080fd5b85516001600160401b0380821115620002c357600080fd5b620002d189838a01620001db565b96506020880151915080821115620002e857600080fd5b620002f689838a01620001db565b955060408801519150808211156200030d57600080fd5b506200031c88828901620001db565b60608801516080890151919550935090506001600160a01b03811681146200034357600080fd5b809150509295509295909350565b600181811c908216806200036657607f821691505b602082108114156200038857634e487b7160e01b600052602260045260246000fd5b50919050565b6117e6806200039e6000396000f3fe608060405234801561001057600080fd5b50600436106102275760003560e01c8063648bf77411610130578063b0d04c7a116100b8578063ddceafa91161007c578063ddceafa9146104ac578063e5b824ec146104bc578063f2fde38b146104cf578063f54fc060146104e2578063f5c0b95f146104f557600080fd5b8063b0d04c7a1461043d578063c18172c414610445578063cc51e14314610458578063d50256251461046b578063dd62ed3e1461047357600080fd5b80637dc2cd98116100ff5780637dc2cd98146103f35780638da5cb5b146103fc57806395d89b411461040f578063a77384c114610417578063a9059cbb1461042a57600080fd5b8063648bf774146103a757806370a08231146103ba57806377e071ad146103cd57806378f86afc146103e057600080fd5b806337a8129c116101b357806340c10f191161018257806340c10f191461035257806342966c68146103655780635c707f07146103785780635d6624b71461038b578063609181171461039e57600080fd5b806337a8129c1461031a5780633a1cdf32146103235780633a98ef39146103365780634000aea01461033f57600080fd5b80631f0f06aa116101fa5780631f0f06aa146102af57806323b872dd146102c45780632a0a4ed5146102d7578063313ce567146102e857806332a7ae951461030757600080fd5b806306fdde031461022c578063095ea7b31461024a5780630c6f0e5d1461026d57806318160ddd1461029d575b600080fd5b610234610508565b604051610241919061122f565b60405180910390f35b61025d61025836600461129b565b610596565b6040519015158152602001610241565b6003546102859061010090046001600160a01b031681565b6040516001600160a01b039091168152602001610241565b6002545b604051908152602001610241565b6102c26102bd36600461130e565b6105ac565b005b61025d6102d2366004611350565b61061c565b6005546001600160a01b0316610285565b6003546102f59060ff1681565b60405160ff9091168152602001610241565b6102c261031536600461138c565b610678565b6102a1600a5481565b6102c261033136600461129b565b610723565b6102a160095481565b61025d61034d3660046113a7565b61075b565b6102c261036036600461129b565b610800565b6102c2610373366004611401565b610834565b6102c26103863660046114bd565b6108a4565b6102c26103993660046113a7565b6108fa565b6102a160045481565b6102c26103b5366004611521565b6109a3565b6102a16103c836600461138c565b6109cb565b6102a16103db36600461138c565b6109ef565b6102c26103ee366004611554565b610a3a565b62ed4e006102a1565b600554610285906001600160a01b031681565b610234610a77565b6102c2610425366004611401565b610a84565b61025d61043836600461129b565b610af9565b6102a1610b0c565b6102c261045336600461138c565b610b29565b6102c261046636600461138c565b610b58565b610234610bc1565b6102a1610481366004611521565b6001600160a01b03918216600090815260016020908152604080832093909416825291909152205490565b6102856812312312312312312381565b6102c26104ca36600461138c565b610bce565b6102c26104dd36600461138c565b610bfe565b6102c26104f0366004611591565b610c84565b61025d610503366004611600565b610d1a565b600680546105159061163d565b80601f01602080910402602001604051908101604052809291908181526020018280546105419061163d565b801561058e5780601f106105635761010080835404028352916020019161058e565b820191906000526020600020905b81548152906001019060200180831161057157829003601f168201915b505050505081565b60006105a3338484610d26565b50600192915050565b6005546001600160a01b031633146105df5760405162461bcd60e51b81526004016105d690611678565b60405180910390fd5b7f07ce702fc13ca0620c174dab22996a6d5fd9e7accb663555a4e85323692706ba82826040516106109291906116c4565b60405180910390a15050565b6000610629848484610d88565b6001600160a01b0384166000908152600160209081526040808320338452909152902054600160ff1b81101561066d5761066d853361066886856116ee565b610d26565b506001949350505050565b6005546001600160a01b031633146106be5760405162461bcd60e51b81526020600482015260096024820152686e6f2061636365737360b81b60448201526064016105d6565b6040516332a7ae9560e01b81526001600160a01b038216600482015268123123123123123123906332a7ae9590602401600060405180830381600087803b15801561070857600080fd5b505af115801561071c573d6000803e3d6000fd5b5050505050565b6005546001600160a01b0316331461074d5760405162461bcd60e51b81526004016105d690611678565b6107578282610e05565b5050565b6000806107688686610af9565b905080156107f757604051635260769b60e11b81526001600160a01b0387169063a4c0ed36906107a2903390899089908990600401611705565b602060405180830381600087803b1580156107bc57600080fd5b505af11580156107d0573d6000803e3d6000fd5b505050506040513d601f19601f820116820180604052508101906107f49190611737565b90505b95945050505050565b6005546001600160a01b0316331461082a5760405162461bcd60e51b81526004016105d690611678565b6107578282610e7c565b61083d336109cb565b81111561088c5760405162461bcd60e51b815260206004820152601b60248201527f4e6f7420656e6f7567682073686172657320617661696c61626c65000000000060448201526064016105d6565b610897333083610d88565b6108a13082610f00565b50565b6005546001600160a01b031633146108ce5760405162461bcd60e51b81526004016105d690611678565b81516108e1906007906020850190611196565b5080516108f5906006906020840190611196565b505050565b6005546001600160a01b031633146109245760405162461bcd60e51b81526004016105d690611678565b600061092f856109cb565b90508084111561093e57600080fd5b83600a60008282546109509190611759565b92505081905550846001600160a01b03167f0a605cd1294f60fa3b73548ac68428f33300a051f225afcdcc75e56083c96ee785858560405161099493929190611771565b60405180910390a25050505050565b3368123123123123123123146109b857600080fd5b61075782826109c6856109cb565b610d88565b6001600160a01b03166000908152602081905260409020546001600160e01b031690565b60006001600160a01b038216301415610a0a57506001919050565b6003546001600160a01b03838116610100909204161415610a2d57505060045490565b506000919050565b919050565b6005546001600160a01b03163314610a645760405162461bcd60e51b81526004016105d690611678565b8051610757906008906020840190611196565b600780546105159061163d565b6005546001600160a01b03163314610aae5760405162461bcd60e51b81526004016105d690611678565b610ab6610b0c565b811015610af45760405162461bcd60e51b815260206004820152600c60248201526b62656c6f7720737570706c7960a01b60448201526064016105d6565b600955565b6000610b058383610f8a565b9392505050565b6000600a54610b1a60025490565b610b2491906116ee565b905090565b336812312312312312312314610b3e57600080fd5b610b4981600a610d1a565b6108a1576108a181600a611011565b6005546001600160a01b03163314610b825760405162461bcd60e51b81526004016105d690611678565b6040516001600160a01b03821681527f6563ed86749f41d6f22086ebb321adce1e55ec5333f6bba7d83659510c49b73c9060200160405180910390a150565b600880546105159061163d565b336812312312312312312314610be357600080fd5b610bee81600a610d1a565b156108a1576108a181600a611011565b6005546001600160a01b03163314610c285760405162461bcd60e51b81526004016105d690611678565b6005546040516001600160a01b038084169216907f8be0079c531659141344cd1fd0a4f28419497f9722a3daafe3b4186f6b6457e090600090a3600580546001600160a01b0319166001600160a01b0392909216919091179055565b610c8e8484610800565b604051635260769b60e11b81526001600160a01b0385169063a4c0ed3690610cc0908890879087908790600401611705565b602060405180830381600087803b158015610cda57600080fd5b505af1158015610cee573d6000803e3d6000fd5b505050506040513d601f19601f82011682018060405250810190610d129190611737565b505050505050565b6000610b05838361104f565b6001600160a01b0383811660008181526001602090815260408083209487168084529482529182902085905590518481527f8c5be1e5ebec7d5bd14f71427d1e84f3dd0314c0f7b2291e5b200ac8c7c3b92591015b60405180910390a3505050565b6001600160a01b03831660009081526020819052604081208054839290610db09084906116ee565b90915550610dc09050828261108f565b816001600160a01b0316836001600160a01b03167fddf252ad1be2c89b69c2b068fc378daa952ba7f163c4a11628f55a4df523b3ef83604051610d7b91815260200190565b60038054610100600160a81b0319166101006001600160a01b038581168202929092179283905590910416610e3d5760006004555050565b60008111610e765760405162461bcd60e51b81526004016105d6906020808252600490820152637a65726f60e01b604082015260600190565b60045550565b60095481610e88610b0c565b610e929190611759565b1115610ef65760405162461bcd60e51b815260206004820152602d60248201527f54686572652063616e277420626520666577657220736861726573207468616e60448201526c2076616c696420746f6b656e7360981b60648201526084016105d6565b6107578282611129565b8060026000828254610f1291906116ee565b90915550506001600160a01b03821660009081526020819052604081208054839290610f3f9084906116ee565b90915550506040518181526000906001600160a01b038416907fddf252ad1be2c89b69c2b068fc378daa952ba7f163c4a11628f55a4df523b3ef906020015b60405180910390a35050565b6000610f968383611189565b610f9f57600080fd5b610faa33600a610d1a565b156105a3576040516304d301a360e41b81523360048201526812312312312312312390634d301a3090602401600060405180830381600087803b158015610ff057600080fd5b505af1158015611004573d6000803e3d6000fd5b5050505050600192915050565b600061101e8260e061178b565b6001600160a01b039390931660009081526020819052604090208054600160ff9095169490941b9093189092555050565b60008061105d8360e061178b565b6001600160a01b038516600090815260208190526040902054600160ff929092169190911b9081161491505092915050565b6001600160a01b038216600090815260208190526040812054906001600160e01b03198216906110bf8484611759565b90506001600160e01b031981168281146111065760405162461bcd60e51b81526020600482015260086024820152676f766572666c6f7760c01b60448201526064016105d6565b506001600160a01b03909416600090815260208190526040902093909355505050565b806002600082825461113b9190611759565b9091555061114b9050828261108f565b6040518181526001600160a01b038316906000907fddf252ad1be2c89b69c2b068fc378daa952ba7f163c4a11628f55a4df523b3ef90602001610f7e565b60006105a3338484610d88565b8280546111a29061163d565b90600052602060002090601f0160209004810192826111c4576000855561120a565b82601f106111dd57805160ff191683800117855561120a565b8280016001018555821561120a579182015b8281111561120a5782518255916020019190600101906111ef565b5061121692915061121a565b5090565b5b80821115611216576000815560010161121b565b600060208083528351808285015260005b8181101561125c57858101830151858201604001528201611240565b8181111561126e576000604083870101525b50601f01601f1916929092016040019392505050565b80356001600160a01b0381168114610a3557600080fd5b600080604083850312156112ae57600080fd5b6112b783611284565b946020939093013593505050565b60008083601f8401126112d757600080fd5b50813567ffffffffffffffff8111156112ef57600080fd5b60208301915083602082850101111561130757600080fd5b9250929050565b6000806020838503121561132157600080fd5b823567ffffffffffffffff81111561133857600080fd5b611344858286016112c5565b90969095509350505050565b60008060006060848603121561136557600080fd5b61136e84611284565b925061137c60208501611284565b9150604084013590509250925092565b60006020828403121561139e57600080fd5b610b0582611284565b600080600080606085870312156113bd57600080fd5b6113c685611284565b935060208501359250604085013567ffffffffffffffff8111156113e957600080fd5b6113f5878288016112c5565b95989497509550505050565b60006020828403121561141357600080fd5b5035919050565b634e487b7160e01b600052604160045260246000fd5b600082601f83011261144157600080fd5b813567ffffffffffffffff8082111561145c5761145c61141a565b604051601f8301601f19908116603f011681019082821181831017156114845761148461141a565b8160405283815286602085880101111561149d57600080fd5b836020870160208301376000602085830101528094505050505092915050565b600080604083850312156114d057600080fd5b823567ffffffffffffffff808211156114e857600080fd5b6114f486838701611430565b9350602085013591508082111561150a57600080fd5b5061151785828601611430565b9150509250929050565b6000806040838503121561153457600080fd5b61153d83611284565b915061154b60208401611284565b90509250929050565b60006020828403121561156657600080fd5b813567ffffffffffffffff81111561157d57600080fd5b61158984828501611430565b949350505050565b6000806000806000608086880312156115a957600080fd5b6115b286611284565b94506115c060208701611284565b935060408601359250606086013567ffffffffffffffff8111156115e357600080fd5b6115ef888289016112c5565b969995985093965092949392505050565b6000806040838503121561161357600080fd5b61161c83611284565b9150602083013560ff8116811461163257600080fd5b809150509250929050565b600181811c9082168061165157607f821691505b6020821081141561167257634e487b7160e01b600052602260045260246000fd5b50919050565b6020808252600990820152683737ba1037bbb732b960b91b604082015260600190565b81835281816020850137506000828201602090810191909152601f909101601f19169091010190565b60208152600061158960208301848661169b565b634e487b7160e01b600052601160045260246000fd5b600082821015611700576117006116d8565b500390565b60018060a01b038516815283602082015260606040820152600061172d60608301848661169b565b9695505050505050565b60006020828403121561174957600080fd5b81518015158114610b0557600080fd5b6000821982111561176c5761176c6116d8565b500190565b8381526040602082015260006107f760408301848661169b565b600060ff821660ff84168060ff038211156117a8576117a86116d8565b01939250505056fea2646970667358221220d16b7624ec71b2b5b5a981ddde947baf4f362432042d9655f4a93182977882ac64736f6c63430008090033",
    "sourcePath": "c:/Users/luziu/Documents/GitHub/contracts/src/Shares.sol",
    "compiler": {
        "name": "solc",
        "version": "0.8.9+commit.e5eed63a"
    },
    "functionHashes": {
        "allowance(address,address)": "dd62ed3e",
        "announcement(string)": "1f0f06aa",
        "approve(address,uint256)": "095ea7b3",
        "balanceOf(address)": "70a08231",
        "burn(uint256)": "42966c68",
        "claimPeriod()": "7dc2cd98",
        "customCollateralAddress()": "0c6f0e5d",
        "customCollateralRate()": "60918117",
        "decimals()": "313ce567",
        "declareInvalid(address,uint256,string)": "5d6624b7",
        "deleteClaim(address)": "32a7ae95",
        "getClaimDeleter()": "2a0a4ed5",
        "getCollateralRate(address)": "77e071ad",
        "hasFlag(address,uint8)": "f5c0b95f",
        "invalidTokens()": "37a8129c",
        "mint(address,uint256)": "40c10f19",
        "mintAndCall(address,address,uint256,bytes)": "f54fc060",
        "name()": "06fdde03",
        "notifyClaimDeleted(address)": "e5b824ec",
        "notifyClaimMade(address)": "c18172c4",
        "owner()": "8da5cb5b",
        "recognizeSubRegister(address)": "cc51e143",
        "recover(address,address)": "648bf774",
        "recovery()": "ddceafa9",
        "setCustomClaimCollateral(address,uint256)": "3a1cdf32",
        "setName(string,string)": "5c707f07",
        "setTerms(string)": "78f86afc",
        "setTotalShares(uint256)": "a77384c1",
        "symbol()": "95d89b41",
        "terms()": "d5025625",
        "totalShares()": "3a98ef39",
        "totalSupply()": "18160ddd",
        "totalValidSupply()": "b0d04c7a",
        "transfer(address,uint256)": "a9059cbb",
        "transferAndCall(address,uint256,bytes)": "4000aea0",
        "transferFrom(address,address,uint256)": "23b872dd",
        "transferOwnership(address)": "f2fde38b"
    },
    "gasEstimates": {
        "creation": {
            "codeDepositCost": "1223600",
            "executionCost": "infinite",
            "totalCost": "infinite"
        },
        "external": {
            "allowance(address,address)": "infinite",
            "announcement(string)": "infinite",
            "approve(address,uint256)": "24596",
            "balanceOf(address)": "2638",
            "burn(uint256)": "infinite",
            "claimPeriod()": "237",
            "customCollateralAddress()": "2439",
            "customCollateralRate()": "2428",
            "decimals()": "2425",
            "declareInvalid(address,uint256,string)": "infinite",
            "deleteClaim(address)": "infinite",
            "getClaimDeleter()": "2421",
            "getCollateralRate(address)": "4768",
            "hasFlag(address,uint8)": "2958",
            "invalidTokens()": "2341",
            "mint(address,uint256)": "infinite",
            "mintAndCall(address,address,uint256,bytes)": "infinite",
            "name()": "infinite",
            "notifyClaimDeleted(address)": "infinite",
            "notifyClaimMade(address)": "infinite",
            "owner()": "2404",
            "recognizeSubRegister(address)": "3608",
            "recover(address,address)": "infinite",
            "recovery()": "260",
            "setCustomClaimCollateral(address,uint256)": "49004",
            "setName(string,string)": "infinite",
            "setTerms(string)": "infinite",
            "setTotalShares(uint256)": "28921",
            "symbol()": "infinite",
            "terms()": "infinite",
            "totalShares()": "2385",
            "totalSupply()": "2394",
            "totalValidSupply()": "4545",
            "transfer(address,uint256)": "infinite",
            "transferAndCall(address,uint256,bytes)": "infinite",
            "transferFrom(address,address,uint256)": "infinite",
            "transferOwnership(address)": "30453"
        },
        "internal": {
            "_mint(address,uint256)": "infinite"
        }
    }
}