{
    "contractName": "Shares",
    "abi": [
        {
            "inputs": [
                {
                    "internalType": "string",
                    "name": "_symbol",
                    "type": "string"
                },
                {
                    "internalType": "string",
                    "name": "_name",
                    "type": "string"
                },
                {
                    "internalType": "string",
                    "name": "_terms",
                    "type": "string"
                }
            ],
            "stateMutability": "nonpayable",
            "type": "constructor"
        },
        {
            "anonymous": false,
            "inputs": [
                {
                    "indexed": false,
                    "internalType": "string",
                    "name": "message",
                    "type": "string"
                }
            ],
            "name": "Announcement",
            "type": "event"
        },
        {
            "anonymous": false,
            "inputs": [
                {
                    "indexed": true,
                    "internalType": "address",
                    "name": "owner",
                    "type": "address"
                },
                {
                    "indexed": true,
                    "internalType": "address",
                    "name": "spender",
                    "type": "address"
                },
                {
                    "indexed": false,
                    "internalType": "uint256",
                    "name": "value",
                    "type": "uint256"
                }
            ],
            "name": "Approval",
            "type": "event"
        },
        {
            "anonymous": false,
            "inputs": [
                {
                    "indexed": true,
                    "internalType": "address",
                    "name": "lostAddress",
                    "type": "address"
                },
                {
                    "indexed": false,
                    "internalType": "uint256",
                    "name": "collateral",
                    "type": "uint256"
                }
            ],
            "name": "ClaimCleared",
            "type": "event"
        },
        {
            "anonymous": false,
            "inputs": [
                {
                    "indexed": true,
                    "internalType": "address",
                    "name": "lostAddress",
                    "type": "address"
                },
                {
                    "indexed": true,
                    "internalType": "address",
                    "name": "claimant",
                    "type": "address"
                },
                {
                    "indexed": false,
                    "internalType": "uint256",
                    "name": "collateral",
                    "type": "uint256"
                }
            ],
            "name": "ClaimDeleted",
            "type": "event"
        },
        {
            "anonymous": false,
            "inputs": [
                {
                    "indexed": true,
                    "internalType": "address",
                    "name": "lostAddress",
                    "type": "address"
                },
                {
                    "indexed": true,
                    "internalType": "address",
                    "name": "claimant",
                    "type": "address"
                },
                {
                    "indexed": false,
                    "internalType": "uint256",
                    "name": "balance",
                    "type": "uint256"
                }
            ],
            "name": "ClaimMade",
            "type": "event"
        },
        {
            "anonymous": false,
            "inputs": [
                {
                    "indexed": false,
                    "internalType": "uint256",
                    "name": "newClaimPeriodInDays",
                    "type": "uint256"
                }
            ],
            "name": "ClaimPeriodChanged",
            "type": "event"
        },
        {
            "anonymous": false,
            "inputs": [
                {
                    "indexed": true,
                    "internalType": "address",
                    "name": "claimer",
                    "type": "address"
                }
            ],
            "name": "ClaimPrepared",
            "type": "event"
        },
        {
            "anonymous": false,
            "inputs": [
                {
                    "indexed": true,
                    "internalType": "address",
                    "name": "lostAddress",
                    "type": "address"
                },
                {
                    "indexed": true,
                    "internalType": "address",
                    "name": "claimant",
                    "type": "address"
                },
                {
                    "indexed": false,
                    "internalType": "uint256",
                    "name": "collateral",
                    "type": "uint256"
                }
            ],
            "name": "ClaimResolved",
            "type": "event"
        },
        {
            "anonymous": false,
            "inputs": [
                {
                    "indexed": false,
                    "internalType": "address",
                    "name": "newCustomCollateralAddress",
                    "type": "address"
                },
                {
                    "indexed": false,
                    "internalType": "uint256",
                    "name": "newCustomCollareralRate",
                    "type": "uint256"
                }
            ],
            "name": "CustomClaimCollateralChanged",
            "type": "event"
        },
        {
            "anonymous": false,
            "inputs": [
                {
                    "indexed": true,
                    "internalType": "address",
                    "name": "previousOwner",
                    "type": "address"
                },
                {
                    "indexed": true,
                    "internalType": "address",
                    "name": "newOwner",
                    "type": "address"
                }
            ],
            "name": "OwnershipTransferred",
            "type": "event"
        },
        {
            "anonymous": false,
            "inputs": [],
            "name": "Pause",
            "type": "event"
        },
        {
            "anonymous": false,
            "inputs": [
                {
                    "indexed": true,
                    "internalType": "address",
                    "name": "holder",
                    "type": "address"
                },
                {
                    "indexed": false,
                    "internalType": "uint256",
                    "name": "firstInclusive",
                    "type": "uint256"
                },
                {
                    "indexed": false,
                    "internalType": "uint256",
                    "name": "lastInclusive",
                    "type": "uint256"
                }
            ],
            "name": "ShareNumberingEvent",
            "type": "event"
        },
        {
            "anonymous": false,
            "inputs": [
                {
                    "indexed": false,
                    "internalType": "address",
                    "name": "contractAddress",
                    "type": "address"
                }
            ],
            "name": "SubRegisterAdded",
            "type": "event"
        },
        {
            "anonymous": false,
            "inputs": [
                {
                    "indexed": false,
                    "internalType": "address",
                    "name": "contractAddress",
                    "type": "address"
                }
            ],
            "name": "SubRegisterRemoved",
            "type": "event"
        },
        {
            "anonymous": false,
            "inputs": [
                {
                    "indexed": true,
                    "internalType": "address",
                    "name": "holder",
                    "type": "address"
                },
                {
                    "indexed": false,
                    "internalType": "uint256",
                    "name": "amount",
                    "type": "uint256"
                },
                {
                    "indexed": false,
                    "internalType": "string",
                    "name": "message",
                    "type": "string"
                }
            ],
            "name": "TokensDeclaredInvalid",
            "type": "event"
        },
        {
            "anonymous": false,
            "inputs": [
                {
                    "indexed": true,
                    "internalType": "address",
                    "name": "from",
                    "type": "address"
                },
                {
                    "indexed": true,
                    "internalType": "address",
                    "name": "to",
                    "type": "address"
                },
                {
                    "indexed": false,
                    "internalType": "uint256",
                    "name": "value",
                    "type": "uint256"
                }
            ],
            "name": "Transfer",
            "type": "event"
        },
        {
            "anonymous": false,
            "inputs": [],
            "name": "Unpause",
            "type": "event"
        },
        {
            "inputs": [
                {
                    "internalType": "address",
                    "name": "owner",
                    "type": "address"
                },
                {
                    "internalType": "address",
                    "name": "spender",
                    "type": "address"
                }
            ],
            "name": "allowance",
            "outputs": [
                {
                    "internalType": "uint256",
                    "name": "",
                    "type": "uint256"
                }
            ],
            "stateMutability": "view",
            "type": "function"
        },
        {
            "inputs": [
                {
                    "internalType": "string",
                    "name": "message",
                    "type": "string"
                }
            ],
            "name": "announcement",
            "outputs": [],
            "stateMutability": "nonpayable",
            "type": "function"
        },
        {
            "inputs": [
                {
                    "internalType": "address",
                    "name": "spender",
                    "type": "address"
                },
                {
                    "internalType": "uint256",
                    "name": "value",
                    "type": "uint256"
                }
            ],
            "name": "approve",
            "outputs": [
                {
                    "internalType": "bool",
                    "name": "",
                    "type": "bool"
                }
            ],
            "stateMutability": "nonpayable",
            "type": "function"
        },
        {
            "inputs": [
                {
                    "internalType": "address",
                    "name": "account",
                    "type": "address"
                }
            ],
            "name": "balanceOf",
            "outputs": [
                {
                    "internalType": "uint256",
                    "name": "",
                    "type": "uint256"
                }
            ],
            "stateMutability": "view",
            "type": "function"
        },
        {
            "inputs": [
                {
                    "internalType": "address",
                    "name": "holder",
                    "type": "address"
                }
            ],
            "name": "balanceOfDeep",
            "outputs": [
                {
                    "internalType": "uint256",
                    "name": "",
                    "type": "uint256"
                }
            ],
            "stateMutability": "view",
            "type": "function"
        },
        {
            "inputs": [
                {
                    "internalType": "uint256",
                    "name": "_amount",
                    "type": "uint256"
                }
            ],
            "name": "burn",
            "outputs": [],
            "stateMutability": "nonpayable",
            "type": "function"
        },
        {
            "inputs": [],
            "name": "claimPeriod",
            "outputs": [
                {
                    "internalType": "uint256",
                    "name": "",
                    "type": "uint256"
                }
            ],
            "stateMutability": "view",
            "type": "function"
        },
        {
            "inputs": [
                {
                    "internalType": "address",
                    "name": "",
                    "type": "address"
                }
            ],
            "name": "claimingDisabled",
            "outputs": [
                {
                    "internalType": "bool",
                    "name": "",
                    "type": "bool"
                }
            ],
            "stateMutability": "view",
            "type": "function"
        },
        {
            "inputs": [
                {
                    "internalType": "address",
                    "name": "",
                    "type": "address"
                }
            ],
            "name": "claims",
            "outputs": [
                {
                    "internalType": "address",
                    "name": "claimant",
                    "type": "address"
                },
                {
                    "internalType": "uint256",
                    "name": "collateral",
                    "type": "uint256"
                },
                {
                    "internalType": "uint32",
                    "name": "timestamp",
                    "type": "uint32"
                },
                {
                    "internalType": "address",
                    "name": "currencyUsed",
                    "type": "address"
                }
            ],
            "stateMutability": "view",
            "type": "function"
        },
        {
            "inputs": [],
            "name": "clearClaim",
            "outputs": [],
            "stateMutability": "nonpayable",
            "type": "function"
        },
        {
            "inputs": [],
            "name": "countSubregisters",
            "outputs": [
                {
                    "internalType": "uint256",
                    "name": "",
                    "type": "uint256"
                }
            ],
            "stateMutability": "view",
            "type": "function"
        },
        {
            "inputs": [],
            "name": "customCollateralAddress",
            "outputs": [
                {
                    "internalType": "address",
                    "name": "",
                    "type": "address"
                }
            ],
            "stateMutability": "view",
            "type": "function"
        },
        {
            "inputs": [],
            "name": "customCollateralRate",
            "outputs": [
                {
                    "internalType": "uint256",
                    "name": "",
                    "type": "uint256"
                }
            ],
            "stateMutability": "view",
            "type": "function"
        },
        {
            "inputs": [],
            "name": "decimals",
            "outputs": [
                {
                    "internalType": "uint8",
                    "name": "",
                    "type": "uint8"
                }
            ],
            "stateMutability": "view",
            "type": "function"
        },
        {
            "inputs": [
                {
                    "internalType": "address",
                    "name": "holder",
                    "type": "address"
                },
                {
                    "internalType": "uint256",
                    "name": "amount",
                    "type": "uint256"
                },
                {
                    "internalType": "string",
                    "name": "message",
                    "type": "string"
                }
            ],
            "name": "declareInvalid",
            "outputs": [],
            "stateMutability": "nonpayable",
            "type": "function"
        },
        {
            "inputs": [
                {
                    "internalType": "address",
                    "name": "collateralType",
                    "type": "address"
                },
                {
                    "internalType": "address",
                    "name": "lostAddress",
                    "type": "address"
                },
                {
                    "internalType": "bytes32",
                    "name": "nonce",
                    "type": "bytes32"
                }
            ],
            "name": "declareLost",
            "outputs": [],
            "stateMutability": "nonpayable",
            "type": "function"
        },
        {
            "inputs": [
                {
                    "internalType": "address",
                    "name": "spender",
                    "type": "address"
                },
                {
                    "internalType": "uint256",
                    "name": "subtractedValue",
                    "type": "uint256"
                }
            ],
            "name": "decreaseAllowance",
            "outputs": [
                {
                    "internalType": "bool",
                    "name": "",
                    "type": "bool"
                }
            ],
            "stateMutability": "nonpayable",
            "type": "function"
        },
        {
            "inputs": [
                {
                    "internalType": "address",
                    "name": "lostAddress",
                    "type": "address"
                }
            ],
            "name": "deleteClaim",
            "outputs": [],
            "stateMutability": "nonpayable",
            "type": "function"
        },
        {
            "inputs": [],
            "name": "getClaimDeleter",
            "outputs": [
                {
                    "internalType": "address",
                    "name": "",
                    "type": "address"
                }
            ],
            "stateMutability": "view",
            "type": "function"
        },
        {
            "inputs": [
                {
                    "internalType": "address",
                    "name": "lostAddress",
                    "type": "address"
                }
            ],
            "name": "getClaimant",
            "outputs": [
                {
                    "internalType": "address",
                    "name": "",
                    "type": "address"
                }
            ],
            "stateMutability": "view",
            "type": "function"
        },
        {
            "inputs": [
                {
                    "internalType": "address",
                    "name": "lostAddress",
                    "type": "address"
                }
            ],
            "name": "getCollateral",
            "outputs": [
                {
                    "internalType": "uint256",
                    "name": "",
                    "type": "uint256"
                }
            ],
            "stateMutability": "view",
            "type": "function"
        },
        {
            "inputs": [
                {
                    "internalType": "address",
                    "name": "collateralType",
                    "type": "address"
                }
            ],
            "name": "getCollateralRate",
            "outputs": [
                {
                    "internalType": "uint256",
                    "name": "",
                    "type": "uint256"
                }
            ],
            "stateMutability": "view",
            "type": "function"
        },
        {
            "inputs": [
                {
                    "internalType": "address",
                    "name": "lostAddress",
                    "type": "address"
                }
            ],
            "name": "getCollateralType",
            "outputs": [
                {
                    "internalType": "address",
                    "name": "",
                    "type": "address"
                }
            ],
            "stateMutability": "view",
            "type": "function"
        },
        {
            "inputs": [
                {
                    "internalType": "address",
                    "name": "claimerAddress",
                    "type": "address"
                }
            ],
            "name": "getMsgHash",
            "outputs": [
                {
                    "internalType": "bytes32",
                    "name": "",
                    "type": "bytes32"
                }
            ],
            "stateMutability": "view",
            "type": "function"
        },
        {
            "inputs": [
                {
                    "internalType": "address",
                    "name": "claimerAddress",
                    "type": "address"
                }
            ],
            "name": "getPreClaimTimeStamp",
            "outputs": [
                {
                    "internalType": "uint256",
                    "name": "",
                    "type": "uint256"
                }
            ],
            "stateMutability": "view",
            "type": "function"
        },
        {
            "inputs": [
                {
                    "internalType": "address",
                    "name": "lostAddress",
                    "type": "address"
                }
            ],
            "name": "getTimeStamp",
            "outputs": [
                {
                    "internalType": "uint256",
                    "name": "",
                    "type": "uint256"
                }
            ],
            "stateMutability": "view",
            "type": "function"
        },
        {
            "inputs": [
                {
                    "internalType": "address",
                    "name": "spender",
                    "type": "address"
                },
                {
                    "internalType": "uint256",
                    "name": "addedValue",
                    "type": "uint256"
                }
            ],
            "name": "increaseAllowance",
            "outputs": [
                {
                    "internalType": "bool",
                    "name": "",
                    "type": "bool"
                }
            ],
            "stateMutability": "nonpayable",
            "type": "function"
        },
        {
            "inputs": [],
            "name": "invalidTokens",
            "outputs": [
                {
                    "internalType": "uint256",
                    "name": "",
                    "type": "uint256"
                }
            ],
            "stateMutability": "view",
            "type": "function"
        },
        {
            "inputs": [
                {
                    "internalType": "address",
                    "name": "target",
                    "type": "address"
                }
            ],
            "name": "isClaimsEnabled",
            "outputs": [
                {
                    "internalType": "bool",
                    "name": "",
                    "type": "bool"
                }
            ],
            "stateMutability": "view",
            "type": "function"
        },
        {
            "inputs": [
                {
                    "internalType": "address",
                    "name": "shareholder",
                    "type": "address"
                },
                {
                    "internalType": "uint256",
                    "name": "_amount",
                    "type": "uint256"
                }
            ],
            "name": "mint",
            "outputs": [],
            "stateMutability": "nonpayable",
            "type": "function"
        },
        {
            "inputs": [
                {
                    "internalType": "address",
                    "name": "shareholder",
                    "type": "address"
                },
                {
                    "internalType": "address",
                    "name": "callee",
                    "type": "address"
                },
                {
                    "internalType": "uint256",
                    "name": "amount",
                    "type": "uint256"
                },
                {
                    "internalType": "bytes",
                    "name": "data",
                    "type": "bytes"
                }
            ],
            "name": "mintAndCall",
            "outputs": [],
            "stateMutability": "nonpayable",
            "type": "function"
        },
        {
            "inputs": [
                {
                    "internalType": "address",
                    "name": "shareholder",
                    "type": "address"
                },
                {
                    "internalType": "uint256",
                    "name": "firstShareNumber",
                    "type": "uint256"
                },
                {
                    "internalType": "uint256",
                    "name": "lastShareNumber",
                    "type": "uint256"
                }
            ],
            "name": "mintNumbered",
            "outputs": [],
            "stateMutability": "nonpayable",
            "type": "function"
        },
        {
            "inputs": [
                {
                    "internalType": "address",
                    "name": "shareholder",
                    "type": "address"
                },
                {
                    "internalType": "address",
                    "name": "callee",
                    "type": "address"
                },
                {
                    "internalType": "uint256",
                    "name": "amount",
                    "type": "uint256"
                },
                {
                    "internalType": "bytes",
                    "name": "data",
                    "type": "bytes"
                },
                {
                    "internalType": "uint256",
                    "name": "firstShareNumber",
                    "type": "uint256"
                },
                {
                    "internalType": "uint256",
                    "name": "lastShareNumber",
                    "type": "uint256"
                }
            ],
            "name": "mintNumberedAndCall",
            "outputs": [],
            "stateMutability": "nonpayable",
            "type": "function"
        },
        {
            "inputs": [],
            "name": "name",
            "outputs": [
                {
                    "internalType": "string",
                    "name": "",
                    "type": "string"
                }
            ],
            "stateMutability": "view",
            "type": "function"
        },
        {
            "inputs": [],
            "name": "owner",
            "outputs": [
                {
                    "internalType": "address",
                    "name": "",
                    "type": "address"
                }
            ],
            "stateMutability": "view",
            "type": "function"
        },
        {
            "inputs": [],
            "name": "pause",
            "outputs": [],
            "stateMutability": "nonpayable",
            "type": "function"
        },
        {
            "inputs": [],
            "name": "paused",
            "outputs": [
                {
                    "internalType": "bool",
                    "name": "",
                    "type": "bool"
                }
            ],
            "stateMutability": "view",
            "type": "function"
        },
        {
            "inputs": [],
            "name": "preClaimPeriod",
            "outputs": [
                {
                    "internalType": "uint256",
                    "name": "",
                    "type": "uint256"
                }
            ],
            "stateMutability": "view",
            "type": "function"
        },
        {
            "inputs": [],
            "name": "preClaimPeriodEnd",
            "outputs": [
                {
                    "internalType": "uint256",
                    "name": "",
                    "type": "uint256"
                }
            ],
            "stateMutability": "view",
            "type": "function"
        },
        {
            "inputs": [
                {
                    "internalType": "address",
                    "name": "",
                    "type": "address"
                }
            ],
            "name": "preClaims",
            "outputs": [
                {
                    "internalType": "bytes32",
                    "name": "msghash",
                    "type": "bytes32"
                },
                {
                    "internalType": "uint256",
                    "name": "timestamp",
                    "type": "uint256"
                }
            ],
            "stateMutability": "view",
            "type": "function"
        },
        {
            "inputs": [
                {
                    "internalType": "bytes32",
                    "name": "hashedpackage",
                    "type": "bytes32"
                }
            ],
            "name": "prepareClaim",
            "outputs": [],
            "stateMutability": "nonpayable",
            "type": "function"
        },
        {
            "inputs": [
                {
                    "internalType": "address",
                    "name": "contractAddress",
                    "type": "address"
                }
            ],
            "name": "recognizeSubRegister",
            "outputs": [],
            "stateMutability": "nonpayable",
            "type": "function"
        },
        {
            "inputs": [
                {
                    "internalType": "address",
                    "name": "contractAddress",
                    "type": "address"
                }
            ],
            "name": "removeSubRegister",
            "outputs": [],
            "stateMutability": "nonpayable",
            "type": "function"
        },
        {
            "inputs": [],
            "name": "renounceOwnership",
            "outputs": [],
            "stateMutability": "nonpayable",
            "type": "function"
        },
        {
            "inputs": [
                {
                    "internalType": "address",
                    "name": "lostAddress",
                    "type": "address"
                }
            ],
            "name": "resolveClaim",
            "outputs": [],
            "stateMutability": "nonpayable",
            "type": "function"
        },
        {
            "inputs": [
                {
                    "internalType": "uint256",
                    "name": "claimPeriodInDays",
                    "type": "uint256"
                }
            ],
            "name": "setClaimPeriod",
            "outputs": [],
            "stateMutability": "nonpayable",
            "type": "function"
        },
        {
            "inputs": [
                {
                    "internalType": "bool",
                    "name": "enabled",
                    "type": "bool"
                }
            ],
            "name": "setClaimable",
            "outputs": [],
            "stateMutability": "nonpayable",
            "type": "function"
        },
        {
            "inputs": [
                {
                    "internalType": "address",
                    "name": "collateral",
                    "type": "address"
                },
                {
                    "internalType": "uint256",
                    "name": "rate",
                    "type": "uint256"
                }
            ],
            "name": "setCustomClaimCollateral",
            "outputs": [],
            "stateMutability": "nonpayable",
            "type": "function"
        },
        {
            "inputs": [
                {
                    "internalType": "string",
                    "name": "_symbol",
                    "type": "string"
                },
                {
                    "internalType": "string",
                    "name": "_name",
                    "type": "string"
                }
            ],
            "name": "setName",
            "outputs": [],
            "stateMutability": "nonpayable",
            "type": "function"
        },
        {
            "inputs": [
                {
                    "internalType": "string",
                    "name": "_terms",
                    "type": "string"
                }
            ],
            "name": "setTerms",
            "outputs": [],
            "stateMutability": "nonpayable",
            "type": "function"
        },
        {
            "inputs": [
                {
                    "internalType": "uint256",
                    "name": "_newTotalShares",
                    "type": "uint256"
                }
            ],
            "name": "setTotalShares",
            "outputs": [],
            "stateMutability": "nonpayable",
            "type": "function"
        },
        {
            "inputs": [
                {
                    "internalType": "uint256",
                    "name": "",
                    "type": "uint256"
                }
            ],
            "name": "subregisters",
            "outputs": [
                {
                    "internalType": "address",
                    "name": "",
                    "type": "address"
                }
            ],
            "stateMutability": "view",
            "type": "function"
        },
        {
            "inputs": [],
            "name": "symbol",
            "outputs": [
                {
                    "internalType": "string",
                    "name": "",
                    "type": "string"
                }
            ],
            "stateMutability": "view",
            "type": "function"
        },
        {
            "inputs": [],
            "name": "terms",
            "outputs": [
                {
                    "internalType": "string",
                    "name": "",
                    "type": "string"
                }
            ],
            "stateMutability": "view",
            "type": "function"
        },
        {
            "inputs": [],
            "name": "totalShares",
            "outputs": [
                {
                    "internalType": "uint256",
                    "name": "",
                    "type": "uint256"
                }
            ],
            "stateMutability": "view",
            "type": "function"
        },
        {
            "inputs": [],
            "name": "totalSupply",
            "outputs": [
                {
                    "internalType": "uint256",
                    "name": "",
                    "type": "uint256"
                }
            ],
            "stateMutability": "view",
            "type": "function"
        },
        {
            "inputs": [],
            "name": "totalValidSupply",
            "outputs": [
                {
                    "internalType": "uint256",
                    "name": "",
                    "type": "uint256"
                }
            ],
            "stateMutability": "view",
            "type": "function"
        },
        {
            "inputs": [
                {
                    "internalType": "address",
                    "name": "recipient",
                    "type": "address"
                },
                {
                    "internalType": "uint256",
                    "name": "amount",
                    "type": "uint256"
                }
            ],
            "name": "transfer",
            "outputs": [
                {
                    "internalType": "bool",
                    "name": "",
                    "type": "bool"
                }
            ],
            "stateMutability": "nonpayable",
            "type": "function"
        },
        {
            "inputs": [
                {
                    "internalType": "address",
                    "name": "recipient",
                    "type": "address"
                },
                {
                    "internalType": "uint256",
                    "name": "amount",
                    "type": "uint256"
                },
                {
                    "internalType": "bytes",
                    "name": "data",
                    "type": "bytes"
                }
            ],
            "name": "transferAndCall",
            "outputs": [
                {
                    "internalType": "bool",
                    "name": "",
                    "type": "bool"
                }
            ],
            "stateMutability": "nonpayable",
            "type": "function"
        },
        {
            "inputs": [
                {
                    "internalType": "address",
                    "name": "sender",
                    "type": "address"
                },
                {
                    "internalType": "address",
                    "name": "recipient",
                    "type": "address"
                },
                {
                    "internalType": "uint256",
                    "name": "amount",
                    "type": "uint256"
                }
            ],
            "name": "transferFrom",
            "outputs": [
                {
                    "internalType": "bool",
                    "name": "",
                    "type": "bool"
                }
            ],
            "stateMutability": "nonpayable",
            "type": "function"
        },
        {
            "inputs": [
                {
                    "internalType": "address",
                    "name": "newOwner",
                    "type": "address"
                }
            ],
            "name": "transferOwnership",
            "outputs": [],
            "stateMutability": "nonpayable",
            "type": "function"
        },
        {
            "inputs": [],
            "name": "unpause",
            "outputs": [],
            "stateMutability": "nonpayable",
            "type": "function"
        }
    ],
    "bytecode": "608060405262ed4e00600455620151806005556202a300600655600c805460ff60a01b19169055600060108190556011553480156200003d57600080fd5b506040516200421838038062004218833981810160405260608110156200006357600080fd5b81019080805160405193929190846401000000008211156200008457600080fd5b9083019060208201858111156200009a57600080fd5b8251640100000000811182820188101715620000b557600080fd5b82525081516020918201929091019080838360005b83811015620000e4578181015183820152602001620000ca565b50505050905090810190601f168015620001125780820380516001836020036101000a031916815260200191505b50604052602001805160405193929190846401000000008211156200013657600080fd5b9083019060208201858111156200014c57600080fd5b82516401000000008111828201881017156200016757600080fd5b82525081516020918201929091019080838360005b83811015620001965781810151838201526020016200017c565b50505050905090810190601f168015620001c45780820380516001836020036101000a031916815260200191505b5060405260200180516040519392919084640100000000821115620001e857600080fd5b908301906020820185811115620001fe57600080fd5b82516401000000008111828201881017156200021957600080fd5b82525081516020918201929091019080838360005b83811015620002485781810151838201526020016200022e565b50505050905090810190601f168015620002765780820380516001836020036101000a031916815260200191505b5060408190526003805460ff19169055600c80546001600160a01b031916339081179091559350839250600091507f8be0079c531659141344cd1fd0a4f28419497f9722a3daafe3b4186f6b6457e0908290a350620002d68383620002f5565b8051620002eb90600f90602084019062000505565b50505050620005a1565b600c546001600160a01b0316331462000355576040805162461bcd60e51b815260206004820181905260248201527f4f776e61626c653a2063616c6c6572206973206e6f7420746865206f776e6572604482015290519081900360640190fd5b81516200036a90600e90602085019062000505565b5080516200038090600d90602084019062000505565b507f07ce702fc13ca0620c174dab22996a6d5fd9e7accb663555a4e85323692706ba818360405160200180807002730b6b2903ab83230ba32b2103a379d1607d1b81525060110183805190602001908083835b60208310620003f45780518252601f199092019160209182019101620003d3565b51815160209384036101000a600019018019909216911617905261040560f31b919093019081528451600290910192850191508083835b602083106200044c5780518252601f1990920191602091820191016200042b565b51815160209384036101000a6000190180199092169116179052602960f81b9190930190815260408051808303601e1901815260018301918290528482528051602184015280519097509095508594506041909101928601915080838360005b83811015620004c6578181015183820152602001620004ac565b50505050905090810190601f168015620004f45780820380516001836020036101000a031916815260200191505b509250505060405180910390a15050565b828054600181600116156101000203166002900490600052602060002090601f016020900481019282601f106200054857805160ff191683800117855562000578565b8280016001018555821562000578579182015b82811115620005785782518255916020019190600101906200055b565b50620005869291506200058a565b5090565b5b808211156200058657600081556001016200058b565b613c6780620005b16000396000f3fe608060405234801561001057600080fd5b50600436106103ba5760003560e01c80636e3baaf5116101f4578063a457c2d71161011a578063dd62ed3e116100ad578063ee18d99e1161007c578063ee18d99e14610e39578063f2fde38b14610e41578063f54fc06014610e67578063f66f145a14610ef5576103ba565b8063dd62ed3e14610d1b578063e5a8765a14610d49578063eb1bf08914610d7f578063eb470ebf14610e13576103ba565b8063c6788bdd116100e9578063c6788bdd14610c71578063cc51e14314610cd0578063d2c04f4314610cf6578063d502562514610d13576103ba565b8063a457c2d714610bf4578063a77384c114610c20578063a9059cbb14610c3d578063b0d04c7a14610c69576103ba565b80637dde2a021161019257806394d645a81161016157806394d645a814610b7a57806395d89b4114610ba05780639b56d6c914610ba8578063a26cf59f14610bce576103ba565b80637dde2a0214610b3c5780638456cb5914610b445780638da5cb5b14610b4c5780638e0597c114610b54576103ba565b806375a88bcf116101ce57806375a88bcf14610a4457806377e071ad14610a6a57806378f86afc14610a905780637dc2cd9814610b34576103ba565b80636e3baaf514610a0e57806370a0823114610a16578063715018a614610a3c576103ba565b80633a1cdf32116102e45780634ae5e630116102775780635d6624b7116102465780635d6624b71461094957806360918117146109cc57806369f721e2146109d45780636b03ed5f14610a06576103ba565b80634ae5e630146107de5780635b1c1625146107fb5780635c707f07146108185780635c975abb14610941576103ba565b80634000aea0116102b35780634000aea0146106d357806340c10f191461075657806342966c6814610782578063493c160f1461079f576103ba565b80633a1cdf32146106715780633a98ef391461069d5780633bcc45ba146106a55780633f4ba83a146106cb576103ba565b806323b872dd1161035c57806332a7ae951161032b57806332a7ae95146105f8578063378c93ad1461061e57806337a8129c1461063d5780633950935114610645576103ba565b806323b872dd1461057657806324b50e43146105ac5780632a0a4ed5146105d2578063313ce567146105da576103ba565b806318160ddd1161039857806318160ddd146104a05780631993982d146104ba5780631e3b9de5146104e25780631f0f06aa14610508576103ba565b806306fdde03146103bf578063095ea7b31461043c5780630c6f0e5d1461047c575b600080fd5b6103c7610f1b565b6040805160208082528351818301528351919283929083019185019080838360005b838110156104015781810151838201526020016103e9565b50505050905090810190601f16801561042e5780820380516001836020036101000a031916815260200191505b509250505060405180910390f35b6104686004803603604081101561045257600080fd5b506001600160a01b038135169060200135610fa9565b604080519115158252519081900360200190f35b610484610fc0565b604080516001600160a01b039092168252519081900360200190f35b6104a8610fcf565b60408051918252519081900360200190f35b6104e0600480360360208110156104d057600080fd5b50356001600160a01b0316610fd5565b005b610484600480360360208110156104f857600080fd5b50356001600160a01b031661118c565b6104e06004803603602081101561051e57600080fd5b810190602081018135600160201b81111561053857600080fd5b82018360208201111561054a57600080fd5b803590602001918460018302840111600160201b8311171561056b57600080fd5b5090925090506111ad565b6104686004803603606081101561058c57600080fd5b506001600160a01b0381358116916020810135909116906040013561125e565b6104a8600480360360208110156105c257600080fd5b50356001600160a01b03166112af565b6104846112ca565b6105e26112d9565b6040805160ff9092168252519081900360200190f35b6104e06004803603602081101561060e57600080fd5b50356001600160a01b03166112e2565b6104e06004803603602081101561063457600080fd5b50351515611548565b6104a8611567565b6104686004803603604081101561065b57600080fd5b506001600160a01b03813516906020013561156d565b6104e06004803603604081101561068757600080fd5b506001600160a01b0381351690602001356115a3565b6104a86115fa565b610484600480360360208110156106bb57600080fd5b50356001600160a01b0316611600565b6104e0611628565b610468600480360360608110156106e957600080fd5b6001600160a01b0382351691602081013591810190606081016040820135600160201b81111561071857600080fd5b82018360208201111561072a57600080fd5b803590602001918460018302840111600160201b8311171561074b57600080fd5b5090925090506116c3565b6104e06004803603604081101561076c57600080fd5b506001600160a01b038135169060200135611785565b6104e06004803603602081101561079857600080fd5b50356117dc565b6107c5600480360360208110156107b557600080fd5b50356001600160a01b0316611851565b6040805192835260208301919091528051918290030190f35b610484600480360360208110156107f457600080fd5b503561186a565b6104e06004803603602081101561081157600080fd5b5035611891565b6104e06004803603604081101561082e57600080fd5b810190602081018135600160201b81111561084857600080fd5b82018360208201111561085a57600080fd5b803590602001918460018302840111600160201b8311171561087b57600080fd5b91908080601f0160208091040260200160405190810160405280939291908181526020018383808284376000920191909152509295949360208101935035915050600160201b8111156108cd57600080fd5b8201836020820111156108df57600080fd5b803590602001918460018302840111600160201b8311171561090057600080fd5b91908080601f0160208091040260200160405190810160405280939291908181526020018383808284376000920191909152509295506118ec945050505050565b610468611ade565b6104e06004803603606081101561095f57600080fd5b6001600160a01b0382351691602081013591810190606081016040820135600160201b81111561098e57600080fd5b8201836020820111156109a057600080fd5b803590602001918460018302840111600160201b831117156109c157600080fd5b509092509050611aee565b6104a8611c11565b6104e0600480360360608110156109ea57600080fd5b506001600160a01b038135169060208101359060400135611c17565b6104e0611cca565b6104a8611e2f565b6104a860048036036020811015610a2c57600080fd5b50356001600160a01b0316611e35565b6104e0611e50565b6104a860048036036020811015610a5a57600080fd5b50356001600160a01b0316611ee7565b6104a860048036036020811015610a8057600080fd5b50356001600160a01b0316611f05565b6104e060048036036020811015610aa657600080fd5b810190602081018135600160201b811115610ac057600080fd5b820183602082011115610ad257600080fd5b803590602001918460018302840111600160201b83111715610af357600080fd5b91908080601f016020809104026020016040519081016040528093929190818152602001838380828437600092019190915250929550611f47945050505050565b6104a86120b8565b6104a86120be565b6104e06120c4565b610484612166565b61046860048036036020811015610b6a57600080fd5b50356001600160a01b0316612175565b6104e060048036036020811015610b9057600080fd5b50356001600160a01b031661218a565b6103c7612473565b6104a860048036036020811015610bbe57600080fd5b50356001600160a01b03166124ce565b6104a860048036036020811015610be457600080fd5b50356001600160a01b03166124ec565b61046860048036036040811015610c0a57600080fd5b506001600160a01b0381351690602001356125b5565b6104e060048036036020811015610c3657600080fd5b50356125eb565b61046860048036036040811015610c5357600080fd5b506001600160a01b038135169060200135612683565b6104a86126da565b610c9760048036036020811015610c8757600080fd5b50356001600160a01b03166126f0565b604080516001600160a01b039586168152602081019490945263ffffffff90921683830152909216606082015290519081900360800190f35b6104e060048036036020811015610ce657600080fd5b50356001600160a01b031661272b565b6104e060048036036020811015610d0c57600080fd5b5035612841565b6103c7612897565b6104a860048036036040811015610d3157600080fd5b506001600160a01b03813581169160200135166128f2565b6104e060048036036060811015610d5f57600080fd5b506001600160a01b0381358116916020810135909116906040013561291d565b6104e0600480360360c0811015610d9557600080fd5b6001600160a01b03823581169260208101359091169160408201359190810190608081016060820135600160201b811115610dcf57600080fd5b820183602082011115610de157600080fd5b803590602001918460018302840111600160201b83111715610e0257600080fd5b919350915080359060200135612e7b565b6104a860048036036020811015610e2957600080fd5b50356001600160a01b0316612f32565b6104a8612f56565b6104e060048036036020811015610e5757600080fd5b50356001600160a01b0316612f5c565b6104e060048036036080811015610e7d57600080fd5b6001600160a01b03823581169260208101359091169160408201359190810190608081016060820135600160201b811115610eb757600080fd5b820183602082011115610ec957600080fd5b803590602001918460018302840111600160201b83111715610eea57600080fd5b50909250905061304a565b61046860048036036020811015610f0b57600080fd5b50356001600160a01b03166130fe565b600d805460408051602060026001851615610100026000190190941693909304601f81018490048402820184019092528181529291830182828015610fa15780601f10610f7657610100808354040283529160200191610fa1565b820191906000526020600020905b815481529060010190602001808311610f8457829003601f168201915b505050505081565b6000610fb633848461311d565b5060015b92915050565b600a546001600160a01b031681565b60025490565b600c546001600160a01b03163314611022576040805162461bcd60e51b81526020600482018190526024820152600080516020613b06833981519152604482015290519081900360640190fd5b61102b81611e35565b156110675760405162461bcd60e51b8152600401808060200182810382526027815260200180613adf6027913960400191505060405180910390fd5b60005b60125481101561118857816001600160a01b03166012828154811061108b57fe5b6000918252602090912001546001600160a01b03161415611180576012805460001981019081106110b857fe5b600091825260209091200154601280546001600160a01b0390921691839081106110de57fe5b9060005260206000200160006101000a8154816001600160a01b0302191690836001600160a01b03160217905550601280548061111757fe5b6001900381819060005260206000200160006101000a8154906001600160a01b03021916905590557fc3f6f866f10921ec4857ee8fe667183cd1751e53ed509c992689bece36ca18988260405180826001600160a01b0316815260200191505060405180910390a15b60010161106a565b5050565b6001600160a01b03808216600090815260076020526040902054165b919050565b600c546001600160a01b031633146111fa576040805162461bcd60e51b81526020600482018190526024820152600080516020613b06833981519152604482015290519081900360640190fd5b7f07ce702fc13ca0620c174dab22996a6d5fd9e7accb663555a4e85323692706ba828260405180806020018281038252848482818152602001925080828437600083820152604051601f909101601f19169092018290039550909350505050a15050565b600061126b848484613209565b6001600160a01b0384166000908152600160209081526040808320338085529252909120546112a59186916112a09086613268565b61311d565b5060019392505050565b6001600160a01b031660009081526008602052604090205490565b60006112d4612166565b905090565b60035460ff1681565b6112ea6112ca565b6001600160a01b0316336001600160a01b03161461134f576040805162461bcd60e51b815260206004820152601860248201527f596f752063616e6e6f742064656c65746520636c61696d730000000000000000604482015290519081900360640190fd5b611357613924565b506001600160a01b038082166000908152600760209081526040918290208251608081018452815485168152600182015492810183905260029091015463ffffffff811693820193909352600160201b9092049092166060820181905290916113f8576040805162461bcd60e51b815260206004820152600e60248201526d139bc818db185a5b48199bdd5b9960921b604482015290519081900360640190fd5b6001600160a01b03808416600090815260076020908152604080832080546001600160a01b03191681556001810184905560020180546001600160c01b0319169055855186830151825163a9059cbb60e01b81529186166004830152602482015290519385169363a9059cbb93604480840194938390030190829087803b15801561148257600080fd5b505af1158015611496573d6000803e3d6000fd5b505050506040513d60208110156114ac57600080fd5b50516114fc576040805162461bcd60e51b815260206004820152601a60248201527910dbdb1b185d195c985b081d1c985b9cd9995c8819985a5b195960321b604482015290519081900360640190fd5b815160208084015160408051918252516001600160a01b03938416938716927fbb036e629a9f4c0897ee5d48440dfdb36f7e772117723a2ed603a6514244c2d5928290030190a3505050565b336000908152600960205260409020805460ff19169115919091179055565b60115481565b3360008181526001602090815260408083206001600160a01b03871684529091528120549091610fb69185906112a0908661327a565b600c546001600160a01b031633146115f0576040805162461bcd60e51b81526020600482018190526024820152600080516020613b06833981519152604482015290519081900360640190fd5b6111888282613287565b60105481565b6001600160a01b03908116600090815260076020526040902060020154600160201b90041690565b600c546001600160a01b03163314611675576040805162461bcd60e51b81526020600482018190526024820152600080516020613b06833981519152604482015290519081900360640190fd5b600c54600160a01b900460ff1661168b57600080fd5b600c805460ff60a01b191690556040517f7805862f689e2f13df9f062ff482ad3ad112aca9e0847911ed832e158c525b3390600090a1565b6000806116d08686612683565b9050801561177c57856001600160a01b031663a4c0ed36338787876040518563ffffffff1660e01b815260040180856001600160a01b03168152602001848152602001806020018281038252848482818152602001925080828437600081840152601f19601f82011690508083019250505095505050505050600060405180830381600087803b15801561176357600080fd5b505af1158015611777573d6000803e3d6000fd5b505050505b95945050505050565b600c546001600160a01b031633146117d2576040805162461bcd60e51b81526020600482018190526024820152600080516020613b06833981519152604482015290519081900360640190fd5b611188828261335a565b6117e533611e35565b811115611839576040805162461bcd60e51b815260206004820152601b60248201527f4e6f7420656e6f7567682073686172657320617661696c61626c650000000000604482015290519081900360640190fd5b611844333083613209565b61184e30826133b0565b50565b6008602052600090815260409020805460019091015482565b6012818154811061187757fe5b6000918252602090912001546001600160a01b0316905081565b604080518082018252828152426020808301918252336000818152600890925284822093518455915160019093019290925591517f4c767b7b6b4e5b19edbb3ce0f841c467aa366beda334c58254bb264371819a119190a250565b600c546001600160a01b03163314611939576040805162461bcd60e51b81526020600482018190526024820152600080516020613b06833981519152604482015290519081900360640190fd5b815161194c90600e90602085019061394b565b50805161196090600d90602084019061394b565b507f07ce702fc13ca0620c174dab22996a6d5fd9e7accb663555a4e85323692706ba818360405160200180807002730b6b2903ab83230ba32b2103a379d1607d1b81525060110183805190602001908083835b602083106119d25780518252601f1990920191602091820191016119b3565b51815160209384036101000a600019018019909216911617905261040560f31b919093019081528451600290910192850191508083835b60208310611a285780518252601f199092019160209182019101611a09565b51815160209384036101000a6000190180199092169116179052602960f81b9190930190815260408051808303601e1901815260018301918290528482528051602184015280519097509095508594506041909101928601915080838360005b83811015611aa0578181015183820152602001611a88565b50505050905090810190601f168015611acd5780820380516001836020036101000a031916815260200191505b509250505060405180910390a15050565b600c54600160a01b900460ff1681565b600c546001600160a01b03163314611b3b576040805162461bcd60e51b81526020600482018190526024820152600080516020613b06833981519152604482015290519081900360640190fd5b6000611b4685611e35565b905080841115611b875760405162461bcd60e51b8152600401808060200182810382526032815260200180613a866032913960400191505060405180910390fd5b601154611b94908561327a565b60115560408051858152602081018281529181018490526001600160a01b038716917f0a605cd1294f60fa3b73548ac68428f33300a051f225afcdcc75e56083c96ee79187918791879160608201848480828437600083820152604051601f909101601f1916909201829003965090945050505050a25050505050565b600b5481565b600c546001600160a01b03163314611c64576040805162461bcd60e51b81526020600482018190526024820152600080516020613b06833981519152604482015290519081900360640190fd5b604080518381526020810183905281516001600160a01b038616927f7b37b2b4bba7b5ea40a69f93db727c289fbbaa632be8186cfa85e0297e001319928290030190a2611cc583611cc06001611cba8587613268565b9061327a565b61335a565b505050565b3360009081526007602052604090206001015415611e2d5733600081815260076020908152604080832060018101805460028301805484546001600160a01b031916909455918690556001600160c01b03198316909155825163a9059cbb60e01b815260048101969096526024860181905291519194600160201b9091046001600160a01b031693849363a9059cbb93604480850194929391928390030190829087803b158015611d7a57600080fd5b505af1158015611d8e573d6000803e3d6000fd5b505050506040513d6020811015611da457600080fd5b5051611df4576040805162461bcd60e51b815260206004820152601a60248201527910dbdb1b185d195c985b081d1c985b9cd9995c8819985a5b195960321b604482015290519081900360640190fd5b60408051838152905133917f203627483d943880619f4b7e0cca21dbefd6204b4d85b124eb99540e17ba86dd919081900360200190a250505b565b60125490565b6001600160a01b031660009081526020819052604090205490565b600c546001600160a01b03163314611e9d576040805162461bcd60e51b81526020600482018190526024820152600080516020613b06833981519152604482015290519081900360640190fd5b600c546040516000916001600160a01b0316907f8be0079c531659141344cd1fd0a4f28419497f9722a3daafe3b4186f6b6457e0908390a3600c80546001600160a01b0319169055565b6001600160a01b031660009081526008602052604090206001015490565b60006001600160a01b038216301415611f20575060016111a8565b600a546001600160a01b0383811691161415611f3f5750600b546111a8565b5060006111a8565b600c546001600160a01b03163314611f94576040805162461bcd60e51b81526020600482018190526024820152600080516020613b06833981519152604482015290519081900360640190fd5b8051611fa790600f90602084019061394b565b507f07ce702fc13ca0620c174dab22996a6d5fd9e7accb663555a4e85323692706ba8160405160200180806e02a32b936b9903ab83230ba32b21d1608d1b815250600f0182805190602001908083835b602083106120165780518252601f199092019160209182019101611ff7565b51815160209384036101000a60001901801990921691161790526040805192909401828103601f190183528085528181528251818301528251929650945084938401925085019080838360005b8381101561207b578181015183820152602001612063565b50505050905090810190601f1680156120a85780820380516001836020036101000a031916815260200191505b509250505060405180910390a150565b60045481565b60065481565b600c546001600160a01b03163314612111576040805162461bcd60e51b81526020600482018190526024820152600080516020613b06833981519152604482015290519081900360640190fd5b600c54600160a01b900460ff161561212857600080fd5b600c805460ff60a01b1916600160a01b1790556040517f6985a02210a168e66602d3235cb6db0e70f92b3ba4d376a33c0f3d9434bff62590600090a1565b600c546001600160a01b031690565b60096020526000908152604090205460ff1681565b612192613924565b506001600160a01b038082166000908152600760209081526040918290208251608081018452815485168152600182015492810183905260029091015463ffffffff811693820193909352600160201b9092049092166060820181905290919081612235576040805162461bcd60e51b815260206004820152600e60248201526d139bc818db185a5b48199bdd5b9960921b604482015290519081900360640190fd5b82516001600160a01b03163314612293576040805162461bcd60e51b815260206004820152601f60248201527f4f6e6c7920636c61696d616e742063616e207265736f6c766520636c61696d00604482015290519081900360640190fd5b426122b960045463ffffffff16856040015163ffffffff1661327a90919063ffffffff16565b111561230c576040805162461bcd60e51b815260206004820152601960248201527f436c61696d20706572696f64206e6f74206f7665722079657400000000000000604482015290519081900360640190fd5b82516001600160a01b03808616600090815260076020908152604080832080546001600160a01b03191681556001810184905560020180546001600160c01b0319169055805163a9059cbb60e01b815284861660048201526024810188905290519386169363a9059cbb93604480840194938390030190829087803b15801561239457600080fd5b505af11580156123a8573d6000803e3d6000fd5b505050506040513d60208110156123be57600080fd5b505161240e576040805162461bcd60e51b815260206004820152601a60248201527910dbdb1b185d195c985b081d1c985b9cd9995c8819985a5b195960321b604482015290519081900360640190fd5b612421858261241c88611e35565b613209565b806001600160a01b0316856001600160a01b03167f52a5c2b28bc6eb9712d0ced43463103b486b13ccc9cda499fd3b2d7b6a74a8ee856040518082815260200191505060405180910390a35050505050565b600e805460408051602060026001851615610100026000190190941693909304601f81018490048402820184019092528181529291830182828015610fa15780601f10610f7657610100808354040283529160200191610fa1565b6001600160a01b031660009081526007602052604090206001015490565b6000806124f883611e35565b905060005b6012548110156125ae5760006012828154811061251657fe5b60009182526020918290200154604080516370a0823160e01b81526001600160a01b03898116600483015291519190921693506125a39284926370a082319260248083019392829003018186803b15801561257057600080fd5b505afa158015612584573d6000803e3d6000fd5b505050506040513d602081101561259a57600080fd5b5051849061327a565b9250506001016124fd565b5092915050565b3360008181526001602090815260408083206001600160a01b03871684529091528120549091610fb69185906112a09086613268565b600c546001600160a01b03163314612638576040805162461bcd60e51b81526020600482018190526024820152600080516020613b06833981519152604482015290519081900360640190fd5b6126406126da565b81101561267e5760405162461bcd60e51b8152600401808060200182810382526027815260200180613ab86027913960400191505060405180910390fd5b601055565b600061268f838361347d565b6126d2576040805162461bcd60e51b815260206004820152600f60248201526e151c985b9cd9995c8819985a5b1959608a1b604482015290519081900360640190fd5b610fb6611cca565b60006112d46011546126ea610fcf565b90613268565b6007602052600090815260409020805460018201546002909201546001600160a01b03918216929163ffffffff821691600160201b90041684565b600c546001600160a01b03163314612778576040805162461bcd60e51b81526020600482018190526024820152600080516020613b06833981519152604482015290519081900360640190fd5b61278181611e35565b156127bd5760405162461bcd60e51b8152600401808060200182810382526025815260200180613bbb6025913960400191505060405180910390fd5b601280546001810182556000919091527fbb8a6a4669ba250d26cd7a459eca9d215f8307e33aebe50379bc5a3617ec34440180546001600160a01b0383166001600160a01b0319909116811790915560408051918252517f7417b75095e577f15d994b058af7a3a71f67be4ae2f288725d1b922f6bb67a679181900360200190a150565b600c546001600160a01b0316331461288e576040805162461bcd60e51b81526020600482018190526024820152600080516020613b06833981519152604482015290519081900360640190fd5b61184e8161348a565b600f805460408051602060026001851615610100026000190190941693909304601f81018490048402820184019092528181529291830182828015610fa15780601f10610f7657610100808354040283529160200191610fa1565b6001600160a01b03918216600090815260016020908152604080832093909416825291909152205490565b6001600160a01b038216612978576040805162461bcd60e51b815260206004820152601860248201527f43616e277420636c61696d207a65726f20616464726573730000000000000000604482015290519081900360640190fd5b612981826130fe565b6129d2576040805162461bcd60e51b815260206004820181905260248201527f436c61696d732064697361626c656420666f7220746869732061646472657373604482015290519081900360640190fd5b60006129dd84611f05565b905060008111612a34576040805162461bcd60e51b815260206004820152601b60248201527f556e737570706f7274656420636f6c6c61746572616c20747970650000000000604482015290519081900360640190fd5b336000612a4085611e35565b90506000612a4e8285613518565b90508682612aa3576040805162461bcd60e51b815260206004820152601f60248201527f436c61696d6564206164647265737320686f6c6473206e6f2073686172657300604482015290519081900360640190fd5b60408051636eb1769f60e11b81526001600160a01b0386811660048301523060248301529151849284169163dd62ed3e916044808301926020929190829003018186803b158015612af357600080fd5b505afa158015612b07573d6000803e3d6000fd5b505050506040513d6020811015612b1d57600080fd5b50511015612b72576040805162461bcd60e51b815260206004820152601f60248201527f43757272656e637920616c6c6f77616e636520696e73756666696369656e7400604482015290519081900360640190fd5b81816001600160a01b03166370a08231866040518263ffffffff1660e01b815260040180826001600160a01b0316815260200191505060206040518083038186803b158015612bc057600080fd5b505afa158015612bd4573d6000803e3d6000fd5b505050506040513d6020811015612bea57600080fd5b50511015612c3f576040805162461bcd60e51b815260206004820152601d60248201527f43757272656e63792062616c616e636520696e73756666696369656e74000000604482015290519081900360640190fd5b6001600160a01b03871660009081526007602052604090206001015415612cad576040805162461bcd60e51b815260206004820152601760248201527f4164647265737320616c726561647920636c61696d6564000000000000000000604482015290519081900360640190fd5b612cb7878761353d565b604080516323b872dd60e01b81526001600160a01b038681166004830152306024830152604482018590529151918316916323b872dd916064808201926020929091908290030181600087803b158015612d1057600080fd5b505af1158015612d24573d6000803e3d6000fd5b505050506040513d6020811015612d3a57600080fd5b5051612d8a576040805162461bcd60e51b815260206004820152601a60248201527910dbdb1b185d195c985b081d1c985b9cd9995c8819985a5b195960321b604482015290519081900360640190fd5b604080516080810182526001600160a01b0386811680835260208084018781524263ffffffff9081168688019081528f8616606088019081528f87166000818152600787528a812099518a546001600160a01b031916908a16178a5594516001808b0191909155925160029099018054925163ffffffff199093169990941698909817640100000000600160c01b031916600160201b919097160295909517905582815260088252858120818155909301929092558351878152935190937f1982ca8958fc8a8176cb52be509260f4bc5af7ce04e1533711793f1c56dd535992908290030190a35050505050505050565b612e86878383611c17565b856001600160a01b031663a4c0ed36888787876040518563ffffffff1660e01b815260040180856001600160a01b03168152602001848152602001806020018281038252848482818152602001925080828437600081840152601f19601f82011690508083019250505095505050505050600060405180830381600087803b158015612f1157600080fd5b505af1158015612f25573d6000803e3d6000fd5b5050505050505050505050565b6001600160a01b031660009081526007602052604090206002015463ffffffff1690565b60055481565b600c546001600160a01b03163314612fa9576040805162461bcd60e51b81526020600482018190526024820152600080516020613b06833981519152604482015290519081900360640190fd5b6001600160a01b038116612fee5760405162461bcd60e51b8152600401808060200182810382526026815260200180613a196026913960400191505060405180910390fd5b600c546040516001600160a01b038084169216907f8be0079c531659141344cd1fd0a4f28419497f9722a3daafe3b4186f6b6457e090600090a3600c80546001600160a01b0319166001600160a01b0392909216919091179055565b6130548484611785565b836001600160a01b031663a4c0ed36868585856040518563ffffffff1660e01b815260040180856001600160a01b03168152602001848152602001806020018281038252848482818152602001925080828437600081840152601f19601f82011690508083019250505095505050505050600060405180830381600087803b1580156130df57600080fd5b505af11580156130f3573d6000803e3d6000fd5b505050505050505050565b6001600160a01b031660009081526009602052604090205460ff161590565b6001600160a01b0383166131625760405162461bcd60e51b8152600401808060200182810382526024815260200180613b976024913960400191505060405180910390fd5b6001600160a01b0382166131a75760405162461bcd60e51b8152600401808060200182810382526022815260200180613a3f6022913960400191505060405180910390fd5b6001600160a01b03808416600081815260016020908152604080832094871680845294825291829020859055815185815291517f8c5be1e5ebec7d5bd14f71427d1e84f3dd0314c0f7b2291e5b200ac8c7c3b9259281900390910190a3505050565b600c54600160a01b900460ff161561325d576040805162461bcd60e51b815260206004820152601260248201527110dbdb9d1c9858dd081a5cc81c185d5cd95960721b604482015290519081900360640190fd5b611cc583838361370a565b60008282111561327457fe5b50900390565b81810182811015610fba57fe5b600a80546001600160a01b0319166001600160a01b038481169190911791829055166132b7576000600b55613312565b6000811161330c576040805162461bcd60e51b815260206004820152601d60248201527f436f6c6c61746572616c20726174652063616e2774206265207a65726f000000604482015290519081900360640190fd5b600b8190555b604080516001600160a01b03841681526020810183905281517f94238858463adf0fecc0e064844831a54bccf8467c86f0b93d2a9508e0596853929181900390910190a15050565b60105461336982611cba6126da565b11156133a65760405162461bcd60e51b815260040180806020018281038252602d815260200180613c05602d913960400191505060405180910390fd5b6111888282613840565b6001600160a01b0382166133f55760405162461bcd60e51b8152600401808060200182810382526021815260200180613b266021913960400191505060405180910390fd5b6002546134029082613268565b6002556001600160a01b0382166000908152602081905260409020546134289082613268565b6001600160a01b038316600081815260208181526040808320949094558351858152935191937fddf252ad1be2c89b69c2b068fc378daa952ba7f163c4a11628f55a4df523b3ef929081900390910190a35050565b6000610fb6338484613209565b605a81116134c95760405162461bcd60e51b8152600401808060200182810382526025815260200180613be06025913960400191505060405180910390fd5b60006134d88262015180613518565b60048190556040805182815290519192507ffde5ae686f4fb7b301820b66139fa5cbed90c4b91428ce2fe961558fcac47ba6919081900360200190a15050565b60008261352757506000610fba565b508181028183828161353557fe5b0414610fba57fe5b6135456139c9565b503360009081526008602090815260409182902082518084019093528054808452600190910154918301919091526135c4576040805162461bcd60e51b815260206004820152601a60248201527f4d65737361676520686173682063616e2774206265207a65726f000000000000604482015290519081900360640190fd5b426135de600554836020015161327a90919063ffffffff16565b111561361b5760405162461bcd60e51b815260040180806020018281038252602b815260200180613b6c602b913960400191505060405180910390fd5b42613635600654836020015161327a90919063ffffffff16565b10156136725760405162461bcd60e51b8152600401808060200182810382526025815260200180613a616025913960400191505060405180910390fd5b60408051602080820185905233606090811b8385015286901b6bffffffffffffffffffffffff191660548301528251808303604801815260689092019092528051910120815114611cc5576040805162461bcd60e51b815260206004820152601e60248201527f5061636b61676520636f756c64206e6f742062652076616c6964617465640000604482015290519081900360640190fd5b6001600160a01b03831661374f5760405162461bcd60e51b8152600401808060200182810382526025815260200180613b476025913960400191505060405180910390fd5b6001600160a01b0382166137945760405162461bcd60e51b81526004018080602001828103825260238152602001806139f66023913960400191505060405180910390fd5b6001600160a01b0383166000908152602081905260409020546137b79082613268565b6001600160a01b0380851660009081526020819052604080822093909355908416815220546137e6908261327a565b6001600160a01b038084166000818152602081815260409182902094909455805185815290519193928716927fddf252ad1be2c89b69c2b068fc378daa952ba7f163c4a11628f55a4df523b3ef92918290030190a3505050565b6001600160a01b03821661389b576040805162461bcd60e51b815260206004820152601f60248201527f45524332303a206d696e7420746f20746865207a65726f206164647265737300604482015290519081900360640190fd5b6002546138a8908261327a565b6002556001600160a01b0382166000908152602081905260409020546138ce908261327a565b6001600160a01b0383166000818152602081815260408083209490945583518581529351929391927fddf252ad1be2c89b69c2b068fc378daa952ba7f163c4a11628f55a4df523b3ef9281900390910190a35050565b60408051608081018252600080825260208201819052918101829052606081019190915290565b828054600181600116156101000203166002900490600052602060002090601f016020900481019282601f1061398c57805160ff19168380011785556139b9565b828001600101855582156139b9579182015b828111156139b957825182559160200191906001019061399e565b506139c59291506139e0565b5090565b604080518082019091526000808252602082015290565b5b808211156139c557600081556001016139e156fe45524332303a207472616e7366657220746f20746865207a65726f20616464726573734f776e61626c653a206e6577206f776e657220697320746865207a65726f206164647265737345524332303a20617070726f766520746f20746865207a65726f2061646472657373507265636c61696d20706572696f6420656e642e20436c61696d656420746f6f206c61746543616e6e6f7420696e76616c6964617465206d6f726520746f6b656e73207468616e2068656c64206279206164647265737354686572652063616e277420626520666577657220746f6b656e73207468616e20736861726573537562726567697374657273206d75737420626520656d707479207768656e2072656d6f7665644f776e61626c653a2063616c6c6572206973206e6f7420746865206f776e657245524332303a206275726e2066726f6d20746865207a65726f206164647265737345524332303a207472616e736665722066726f6d20746865207a65726f2061646472657373507265636c61696d20706572696f642076696f6c617465642e20436c61696d656420746f6f206561726c7945524332303a20617070726f76652066726f6d20746865207a65726f2061646472657373537562726567697374657273206d75737420626520656d707479207768656e206164646564436c61696d20706572696f64206d757374206265206174206c65617374203930206461797354686572652063616e277420626520666577657220736861726573207468616e2076616c696420746f6b656e73a2646970667358221220b35460905b94fae2dfeeb9c6d1a30b94ac22dd58783614c6bb84921fbd71d75564736f6c634300060c0033",
    "sourcePath": "c:/Users/luziu/Documents/aktionariat/contracts/src/Shares.sol",
    "compiler": {
        "name": "solc",
        "version": "0.6.12+commit.27d51765"
    },
    "functionHashes": {
        "allowance(address,address)": "dd62ed3e",
        "announcement(string)": "1f0f06aa",
        "approve(address,uint256)": "095ea7b3",
        "balanceOf(address)": "70a08231",
        "balanceOfDeep(address)": "a26cf59f",
        "burn(uint256)": "42966c68",
        "claimPeriod()": "7dc2cd98",
        "claimingDisabled(address)": "8e0597c1",
        "claims(address)": "c6788bdd",
        "clearClaim()": "6b03ed5f",
        "countSubregisters()": "6e3baaf5",
        "customCollateralAddress()": "0c6f0e5d",
        "customCollateralRate()": "60918117",
        "decimals()": "313ce567",
        "declareInvalid(address,uint256,string)": "5d6624b7",
        "declareLost(address,address,bytes32)": "e5a8765a",
        "decreaseAllowance(address,uint256)": "a457c2d7",
        "deleteClaim(address)": "32a7ae95",
        "getClaimDeleter()": "2a0a4ed5",
        "getClaimant(address)": "1e3b9de5",
        "getCollateral(address)": "9b56d6c9",
        "getCollateralRate(address)": "77e071ad",
        "getCollateralType(address)": "3bcc45ba",
        "getMsgHash(address)": "24b50e43",
        "getPreClaimTimeStamp(address)": "75a88bcf",
        "getTimeStamp(address)": "eb470ebf",
        "increaseAllowance(address,uint256)": "39509351",
        "invalidTokens()": "37a8129c",
        "isClaimsEnabled(address)": "f66f145a",
        "mint(address,uint256)": "40c10f19",
        "mintAndCall(address,address,uint256,bytes)": "f54fc060",
        "mintNumbered(address,uint256,uint256)": "69f721e2",
        "mintNumberedAndCall(address,address,uint256,bytes,uint256,uint256)": "eb1bf089",
        "name()": "06fdde03",
        "owner()": "8da5cb5b",
        "pause()": "8456cb59",
        "paused()": "5c975abb",
        "preClaimPeriod()": "ee18d99e",
        "preClaimPeriodEnd()": "7dde2a02",
        "preClaims(address)": "493c160f",
        "prepareClaim(bytes32)": "5b1c1625",
        "recognizeSubRegister(address)": "cc51e143",
        "removeSubRegister(address)": "1993982d",
        "renounceOwnership()": "715018a6",
        "resolveClaim(address)": "94d645a8",
        "setClaimPeriod(uint256)": "d2c04f43",
        "setClaimable(bool)": "378c93ad",
        "setCustomClaimCollateral(address,uint256)": "3a1cdf32",
        "setName(string,string)": "5c707f07",
        "setTerms(string)": "78f86afc",
        "setTotalShares(uint256)": "a77384c1",
        "subregisters(uint256)": "4ae5e630",
        "symbol()": "95d89b41",
        "terms()": "d5025625",
        "totalShares()": "3a98ef39",
        "totalSupply()": "18160ddd",
        "totalValidSupply()": "b0d04c7a",
        "transfer(address,uint256)": "a9059cbb",
        "transferAndCall(address,uint256,bytes)": "4000aea0",
        "transferFrom(address,address,uint256)": "23b872dd",
        "transferOwnership(address)": "f2fde38b",
        "unpause()": "3f4ba83a"
    },
    "gasEstimates": {
        "creation": {
            "codeDepositCost": "3092600",
            "executionCost": "infinite",
            "totalCost": "infinite"
        },
        "external": {
            "allowance(address,address)": "1317",
            "announcement(string)": "infinite",
            "approve(address,uint256)": "infinite",
            "balanceOf(address)": "1236",
            "balanceOfDeep(address)": "infinite",
            "burn(uint256)": "infinite",
            "claimPeriod()": "1132",
            "claimingDisabled(address)": "1270",
            "claims(address)": "2976",
            "clearClaim()": "infinite",
            "countSubregisters()": "1067",
            "customCollateralAddress()": "1151",
            "customCollateralRate()": "1087",
            "decimals()": "1148",
            "declareInvalid(address,uint256,string)": "infinite",
            "declareLost(address,address,bytes32)": "infinite",
            "decreaseAllowance(address,uint256)": "infinite",
            "deleteClaim(address)": "infinite",
            "getClaimDeleter()": "1185",
            "getClaimant(address)": "1291",
            "getCollateral(address)": "1259",
            "getCollateralRate(address)": "2065",
            "getCollateralType(address)": "1308",
            "getMsgHash(address)": "1233",
            "getPreClaimTimeStamp(address)": "1216",
            "getTimeStamp(address)": "1287",
            "increaseAllowance(address,uint256)": "infinite",
            "invalidTokens()": "1110",
            "isClaimsEnabled(address)": "1289",
            "mint(address,uint256)": "infinite",
            "mintAndCall(address,address,uint256,bytes)": "infinite",
            "mintNumbered(address,uint256,uint256)": "infinite",
            "mintNumberedAndCall(address,address,uint256,bytes,uint256,uint256)": "infinite",
            "name()": "infinite",
            "owner()": "1149",
            "pause()": "infinite",
            "paused()": "1161",
            "preClaimPeriod()": "1064",
            "preClaimPeriodEnd()": "1066",
            "preClaims(address)": "2097",
            "prepareClaim(bytes32)": "41593",
            "recognizeSubRegister(address)": "infinite",
            "removeSubRegister(address)": "infinite",
            "renounceOwnership()": "infinite",
            "resolveClaim(address)": "infinite",
            "setClaimPeriod(uint256)": "infinite",
            "setClaimable(bool)": "21186",
            "setCustomClaimCollateral(address,uint256)": "infinite",
            "setName(string,string)": "infinite",
            "setTerms(string)": "infinite",
            "setTotalShares(uint256)": "infinite",
            "subregisters(uint256)": "2038",
            "symbol()": "infinite",
            "terms()": "infinite",
            "totalShares()": "1089",
            "totalSupply()": "1067",
            "totalValidSupply()": "2037",
            "transfer(address,uint256)": "infinite",
            "transferAndCall(address,uint256,bytes)": "infinite",
            "transferFrom(address,address,uint256)": "infinite",
            "transferOwnership(address)": "infinite",
            "unpause()": "infinite"
        },
        "internal": {
            "_mint(address,uint256)": "infinite",
            "_transfer(address,address,uint256)": "infinite"
        }
    }
}