{
    "contractName": "Shares",
    "abi": [
        {
            "inputs": [
                {
                    "internalType": "string",
                    "name": "_symbol",
                    "type": "string"
                },
                {
                    "internalType": "string",
                    "name": "_name",
                    "type": "string"
                },
                {
                    "internalType": "string",
                    "name": "_terms",
                    "type": "string"
                }
            ],
            "stateMutability": "nonpayable",
            "type": "constructor"
        },
        {
            "anonymous": false,
            "inputs": [
                {
                    "indexed": false,
                    "internalType": "string",
                    "name": "message",
                    "type": "string"
                }
            ],
            "name": "Announcement",
            "type": "event"
        },
        {
            "anonymous": false,
            "inputs": [
                {
                    "indexed": true,
                    "internalType": "address",
                    "name": "owner",
                    "type": "address"
                },
                {
                    "indexed": true,
                    "internalType": "address",
                    "name": "spender",
                    "type": "address"
                },
                {
                    "indexed": false,
                    "internalType": "uint256",
                    "name": "value",
                    "type": "uint256"
                }
            ],
            "name": "Approval",
            "type": "event"
        },
        {
            "anonymous": false,
            "inputs": [
                {
                    "indexed": true,
                    "internalType": "address",
                    "name": "lostAddress",
                    "type": "address"
                },
                {
                    "indexed": false,
                    "internalType": "uint256",
                    "name": "collateral",
                    "type": "uint256"
                }
            ],
            "name": "ClaimCleared",
            "type": "event"
        },
        {
            "anonymous": false,
            "inputs": [
                {
                    "indexed": true,
                    "internalType": "address",
                    "name": "lostAddress",
                    "type": "address"
                },
                {
                    "indexed": true,
                    "internalType": "address",
                    "name": "claimant",
                    "type": "address"
                },
                {
                    "indexed": false,
                    "internalType": "uint256",
                    "name": "collateral",
                    "type": "uint256"
                }
            ],
            "name": "ClaimDeleted",
            "type": "event"
        },
        {
            "anonymous": false,
            "inputs": [
                {
                    "indexed": true,
                    "internalType": "address",
                    "name": "lostAddress",
                    "type": "address"
                },
                {
                    "indexed": true,
                    "internalType": "address",
                    "name": "claimant",
                    "type": "address"
                },
                {
                    "indexed": false,
                    "internalType": "uint256",
                    "name": "balance",
                    "type": "uint256"
                }
            ],
            "name": "ClaimMade",
            "type": "event"
        },
        {
            "anonymous": false,
            "inputs": [
                {
                    "indexed": false,
                    "internalType": "uint256",
                    "name": "newClaimPeriodInDays",
                    "type": "uint256"
                }
            ],
            "name": "ClaimPeriodChanged",
            "type": "event"
        },
        {
            "anonymous": false,
            "inputs": [
                {
                    "indexed": true,
                    "internalType": "address",
                    "name": "lostAddress",
                    "type": "address"
                },
                {
                    "indexed": true,
                    "internalType": "address",
                    "name": "claimant",
                    "type": "address"
                },
                {
                    "indexed": false,
                    "internalType": "uint256",
                    "name": "collateral",
                    "type": "uint256"
                }
            ],
            "name": "ClaimResolved",
            "type": "event"
        },
        {
            "anonymous": false,
            "inputs": [
                {
                    "indexed": false,
                    "internalType": "address",
                    "name": "newCustomCollateralAddress",
                    "type": "address"
                },
                {
                    "indexed": false,
                    "internalType": "uint256",
                    "name": "newCustomCollareralRate",
                    "type": "uint256"
                }
            ],
            "name": "CustomClaimCollateralChanged",
            "type": "event"
        },
        {
            "anonymous": false,
            "inputs": [
                {
                    "indexed": true,
                    "internalType": "address",
                    "name": "previousOwner",
                    "type": "address"
                },
                {
                    "indexed": true,
                    "internalType": "address",
                    "name": "newOwner",
                    "type": "address"
                }
            ],
            "name": "OwnershipTransferred",
            "type": "event"
        },
        {
            "anonymous": false,
            "inputs": [],
            "name": "Pause",
            "type": "event"
        },
        {
            "anonymous": false,
            "inputs": [
                {
                    "indexed": true,
                    "internalType": "address",
                    "name": "holder",
                    "type": "address"
                },
                {
                    "indexed": false,
                    "internalType": "uint256",
                    "name": "firstInclusive",
                    "type": "uint256"
                },
                {
                    "indexed": false,
                    "internalType": "uint256",
                    "name": "lastInclusive",
                    "type": "uint256"
                }
            ],
            "name": "ShareNumberingEvent",
            "type": "event"
        },
        {
            "anonymous": false,
            "inputs": [
                {
                    "indexed": false,
                    "internalType": "address",
                    "name": "contractAddress",
                    "type": "address"
                }
            ],
            "name": "SubRegisterAdded",
            "type": "event"
        },
        {
            "anonymous": false,
            "inputs": [
                {
                    "indexed": false,
                    "internalType": "address",
                    "name": "contractAddress",
                    "type": "address"
                }
            ],
            "name": "SubRegisterRemoved",
            "type": "event"
        },
        {
            "anonymous": false,
            "inputs": [
                {
                    "indexed": true,
                    "internalType": "address",
                    "name": "holder",
                    "type": "address"
                },
                {
                    "indexed": false,
                    "internalType": "uint256",
                    "name": "amount",
                    "type": "uint256"
                },
                {
                    "indexed": false,
                    "internalType": "string",
                    "name": "message",
                    "type": "string"
                }
            ],
            "name": "TokensDeclaredInvalid",
            "type": "event"
        },
        {
            "anonymous": false,
            "inputs": [
                {
                    "indexed": true,
                    "internalType": "address",
                    "name": "from",
                    "type": "address"
                },
                {
                    "indexed": true,
                    "internalType": "address",
                    "name": "to",
                    "type": "address"
                },
                {
                    "indexed": false,
                    "internalType": "uint256",
                    "name": "value",
                    "type": "uint256"
                }
            ],
            "name": "Transfer",
            "type": "event"
        },
        {
            "anonymous": false,
            "inputs": [],
            "name": "Unpause",
            "type": "event"
        },
        {
            "inputs": [
                {
                    "internalType": "address",
                    "name": "owner",
                    "type": "address"
                },
                {
                    "internalType": "address",
                    "name": "spender",
                    "type": "address"
                }
            ],
            "name": "allowance",
            "outputs": [
                {
                    "internalType": "uint256",
                    "name": "",
                    "type": "uint256"
                }
            ],
            "stateMutability": "view",
            "type": "function"
        },
        {
            "inputs": [
                {
                    "internalType": "string",
                    "name": "message",
                    "type": "string"
                }
            ],
            "name": "announcement",
            "outputs": [],
            "stateMutability": "nonpayable",
            "type": "function"
        },
        {
            "inputs": [
                {
                    "internalType": "address",
                    "name": "spender",
                    "type": "address"
                },
                {
                    "internalType": "uint256",
                    "name": "value",
                    "type": "uint256"
                }
            ],
            "name": "approve",
            "outputs": [
                {
                    "internalType": "bool",
                    "name": "",
                    "type": "bool"
                }
            ],
            "stateMutability": "nonpayable",
            "type": "function"
        },
        {
            "inputs": [
                {
                    "internalType": "address",
                    "name": "account",
                    "type": "address"
                }
            ],
            "name": "balanceOf",
            "outputs": [
                {
                    "internalType": "uint256",
                    "name": "",
                    "type": "uint256"
                }
            ],
            "stateMutability": "view",
            "type": "function"
        },
        {
            "inputs": [
                {
                    "internalType": "address",
                    "name": "holder",
                    "type": "address"
                }
            ],
            "name": "balanceOfDeep",
            "outputs": [
                {
                    "internalType": "uint256",
                    "name": "",
                    "type": "uint256"
                }
            ],
            "stateMutability": "view",
            "type": "function"
        },
        {
            "inputs": [
                {
                    "internalType": "uint256",
                    "name": "_amount",
                    "type": "uint256"
                }
            ],
            "name": "burn",
            "outputs": [],
            "stateMutability": "nonpayable",
            "type": "function"
        },
        {
            "inputs": [],
            "name": "claimPeriod",
            "outputs": [
                {
                    "internalType": "uint256",
                    "name": "",
                    "type": "uint256"
                }
            ],
            "stateMutability": "view",
            "type": "function"
        },
        {
            "inputs": [
                {
                    "internalType": "address",
                    "name": "",
                    "type": "address"
                }
            ],
            "name": "claims",
            "outputs": [
                {
                    "internalType": "address",
                    "name": "claimant",
                    "type": "address"
                },
                {
                    "internalType": "uint256",
                    "name": "collateral",
                    "type": "uint256"
                },
                {
                    "internalType": "uint256",
                    "name": "timestamp",
                    "type": "uint256"
                },
                {
                    "internalType": "address",
                    "name": "currencyUsed",
                    "type": "address"
                }
            ],
            "stateMutability": "view",
            "type": "function"
        },
        {
            "inputs": [],
            "name": "clearClaim",
            "outputs": [],
            "stateMutability": "nonpayable",
            "type": "function"
        },
        {
            "inputs": [],
            "name": "countSubregisters",
            "outputs": [
                {
                    "internalType": "uint256",
                    "name": "",
                    "type": "uint256"
                }
            ],
            "stateMutability": "view",
            "type": "function"
        },
        {
            "inputs": [],
            "name": "customCollateralAddress",
            "outputs": [
                {
                    "internalType": "address",
                    "name": "",
                    "type": "address"
                }
            ],
            "stateMutability": "view",
            "type": "function"
        },
        {
            "inputs": [],
            "name": "customCollateralRate",
            "outputs": [
                {
                    "internalType": "uint256",
                    "name": "",
                    "type": "uint256"
                }
            ],
            "stateMutability": "view",
            "type": "function"
        },
        {
            "inputs": [],
            "name": "decimals",
            "outputs": [
                {
                    "internalType": "uint8",
                    "name": "",
                    "type": "uint8"
                }
            ],
            "stateMutability": "view",
            "type": "function"
        },
        {
            "inputs": [
                {
                    "internalType": "address",
                    "name": "holder",
                    "type": "address"
                },
                {
                    "internalType": "uint256",
                    "name": "amount",
                    "type": "uint256"
                },
                {
                    "internalType": "string",
                    "name": "message",
                    "type": "string"
                }
            ],
            "name": "declareInvalid",
            "outputs": [],
            "stateMutability": "nonpayable",
            "type": "function"
        },
        {
            "inputs": [
                {
                    "internalType": "address",
                    "name": "collateralType",
                    "type": "address"
                },
                {
                    "internalType": "address",
                    "name": "lostAddress",
                    "type": "address"
                }
            ],
            "name": "declareLost",
            "outputs": [],
            "stateMutability": "nonpayable",
            "type": "function"
        },
        {
            "inputs": [
                {
                    "internalType": "address",
                    "name": "spender",
                    "type": "address"
                },
                {
                    "internalType": "uint256",
                    "name": "subtractedValue",
                    "type": "uint256"
                }
            ],
            "name": "decreaseAllowance",
            "outputs": [
                {
                    "internalType": "bool",
                    "name": "",
                    "type": "bool"
                }
            ],
            "stateMutability": "nonpayable",
            "type": "function"
        },
        {
            "inputs": [
                {
                    "internalType": "address",
                    "name": "lostAddress",
                    "type": "address"
                }
            ],
            "name": "deleteClaim",
            "outputs": [],
            "stateMutability": "nonpayable",
            "type": "function"
        },
        {
            "inputs": [],
            "name": "getClaimDeleter",
            "outputs": [
                {
                    "internalType": "address",
                    "name": "",
                    "type": "address"
                }
            ],
            "stateMutability": "view",
            "type": "function"
        },
        {
            "inputs": [
                {
                    "internalType": "address",
                    "name": "lostAddress",
                    "type": "address"
                }
            ],
            "name": "getClaimant",
            "outputs": [
                {
                    "internalType": "address",
                    "name": "",
                    "type": "address"
                }
            ],
            "stateMutability": "view",
            "type": "function"
        },
        {
            "inputs": [
                {
                    "internalType": "address",
                    "name": "lostAddress",
                    "type": "address"
                }
            ],
            "name": "getCollateral",
            "outputs": [
                {
                    "internalType": "uint256",
                    "name": "",
                    "type": "uint256"
                }
            ],
            "stateMutability": "view",
            "type": "function"
        },
        {
            "inputs": [
                {
                    "internalType": "address",
                    "name": "collateralType",
                    "type": "address"
                }
            ],
            "name": "getCollateralRate",
            "outputs": [
                {
                    "internalType": "uint256",
                    "name": "",
                    "type": "uint256"
                }
            ],
            "stateMutability": "view",
            "type": "function"
        },
        {
            "inputs": [
                {
                    "internalType": "address",
                    "name": "lostAddress",
                    "type": "address"
                }
            ],
            "name": "getCollateralType",
            "outputs": [
                {
                    "internalType": "address",
                    "name": "",
                    "type": "address"
                }
            ],
            "stateMutability": "view",
            "type": "function"
        },
        {
            "inputs": [
                {
                    "internalType": "address",
                    "name": "lostAddress",
                    "type": "address"
                }
            ],
            "name": "getTimeStamp",
            "outputs": [
                {
                    "internalType": "uint256",
                    "name": "",
                    "type": "uint256"
                }
            ],
            "stateMutability": "view",
            "type": "function"
        },
        {
            "inputs": [
                {
                    "internalType": "address",
                    "name": "spender",
                    "type": "address"
                },
                {
                    "internalType": "uint256",
                    "name": "addedValue",
                    "type": "uint256"
                }
            ],
            "name": "increaseAllowance",
            "outputs": [
                {
                    "internalType": "bool",
                    "name": "",
                    "type": "bool"
                }
            ],
            "stateMutability": "nonpayable",
            "type": "function"
        },
        {
            "inputs": [],
            "name": "invalidTokens",
            "outputs": [
                {
                    "internalType": "uint256",
                    "name": "",
                    "type": "uint256"
                }
            ],
            "stateMutability": "view",
            "type": "function"
        },
        {
            "inputs": [
                {
                    "internalType": "address",
                    "name": "target",
                    "type": "address"
                }
            ],
            "name": "isRecoveryEnabled",
            "outputs": [
                {
                    "internalType": "bool",
                    "name": "",
                    "type": "bool"
                }
            ],
            "stateMutability": "view",
            "type": "function"
        },
        {
            "inputs": [
                {
                    "internalType": "address",
                    "name": "shareholder",
                    "type": "address"
                },
                {
                    "internalType": "uint256",
                    "name": "_amount",
                    "type": "uint256"
                }
            ],
            "name": "mint",
            "outputs": [],
            "stateMutability": "nonpayable",
            "type": "function"
        },
        {
            "inputs": [
                {
                    "internalType": "address",
                    "name": "shareholder",
                    "type": "address"
                },
                {
                    "internalType": "address",
                    "name": "callee",
                    "type": "address"
                },
                {
                    "internalType": "uint256",
                    "name": "amount",
                    "type": "uint256"
                },
                {
                    "internalType": "bytes",
                    "name": "data",
                    "type": "bytes"
                }
            ],
            "name": "mintAndCall",
            "outputs": [],
            "stateMutability": "nonpayable",
            "type": "function"
        },
        {
            "inputs": [
                {
                    "internalType": "address",
                    "name": "shareholder",
                    "type": "address"
                },
                {
                    "internalType": "uint256",
                    "name": "firstShareNumber",
                    "type": "uint256"
                },
                {
                    "internalType": "uint256",
                    "name": "lastShareNumber",
                    "type": "uint256"
                }
            ],
            "name": "mintNumbered",
            "outputs": [],
            "stateMutability": "nonpayable",
            "type": "function"
        },
        {
            "inputs": [
                {
                    "internalType": "address",
                    "name": "shareholder",
                    "type": "address"
                },
                {
                    "internalType": "address",
                    "name": "callee",
                    "type": "address"
                },
                {
                    "internalType": "uint256",
                    "name": "amount",
                    "type": "uint256"
                },
                {
                    "internalType": "bytes",
                    "name": "data",
                    "type": "bytes"
                },
                {
                    "internalType": "uint256",
                    "name": "firstShareNumber",
                    "type": "uint256"
                },
                {
                    "internalType": "uint256",
                    "name": "lastShareNumber",
                    "type": "uint256"
                }
            ],
            "name": "mintNumberedAndCall",
            "outputs": [],
            "stateMutability": "nonpayable",
            "type": "function"
        },
        {
            "inputs": [],
            "name": "name",
            "outputs": [
                {
                    "internalType": "string",
                    "name": "",
                    "type": "string"
                }
            ],
            "stateMutability": "view",
            "type": "function"
        },
        {
            "inputs": [],
            "name": "owner",
            "outputs": [
                {
                    "internalType": "address",
                    "name": "",
                    "type": "address"
                }
            ],
            "stateMutability": "view",
            "type": "function"
        },
        {
            "inputs": [],
            "name": "pause",
            "outputs": [],
            "stateMutability": "nonpayable",
            "type": "function"
        },
        {
            "inputs": [],
            "name": "paused",
            "outputs": [
                {
                    "internalType": "bool",
                    "name": "",
                    "type": "bool"
                }
            ],
            "stateMutability": "view",
            "type": "function"
        },
        {
            "inputs": [
                {
                    "internalType": "address",
                    "name": "contractAddress",
                    "type": "address"
                }
            ],
            "name": "recognizeSubRegister",
            "outputs": [],
            "stateMutability": "nonpayable",
            "type": "function"
        },
        {
            "inputs": [
                {
                    "internalType": "address",
                    "name": "lostAddress",
                    "type": "address"
                }
            ],
            "name": "recover",
            "outputs": [],
            "stateMutability": "nonpayable",
            "type": "function"
        },
        {
            "inputs": [
                {
                    "internalType": "address",
                    "name": "",
                    "type": "address"
                }
            ],
            "name": "recoveryDisabled",
            "outputs": [
                {
                    "internalType": "bool",
                    "name": "",
                    "type": "bool"
                }
            ],
            "stateMutability": "view",
            "type": "function"
        },
        {
            "inputs": [
                {
                    "internalType": "address",
                    "name": "contractAddress",
                    "type": "address"
                }
            ],
            "name": "removeSubRegister",
            "outputs": [],
            "stateMutability": "nonpayable",
            "type": "function"
        },
        {
            "inputs": [],
            "name": "renounceOwnership",
            "outputs": [],
            "stateMutability": "nonpayable",
            "type": "function"
        },
        {
            "inputs": [
                {
                    "internalType": "uint256",
                    "name": "claimPeriodInDays",
                    "type": "uint256"
                }
            ],
            "name": "setClaimPeriod",
            "outputs": [],
            "stateMutability": "nonpayable",
            "type": "function"
        },
        {
            "inputs": [
                {
                    "internalType": "address",
                    "name": "collateral",
                    "type": "address"
                },
                {
                    "internalType": "uint256",
                    "name": "rate",
                    "type": "uint256"
                }
            ],
            "name": "setCustomClaimCollateral",
            "outputs": [],
            "stateMutability": "nonpayable",
            "type": "function"
        },
        {
            "inputs": [
                {
                    "internalType": "string",
                    "name": "_symbol",
                    "type": "string"
                },
                {
                    "internalType": "string",
                    "name": "_name",
                    "type": "string"
                }
            ],
            "name": "setName",
            "outputs": [],
            "stateMutability": "nonpayable",
            "type": "function"
        },
        {
            "inputs": [
                {
                    "internalType": "bool",
                    "name": "enabled",
                    "type": "bool"
                }
            ],
            "name": "setRecoverable",
            "outputs": [],
            "stateMutability": "nonpayable",
            "type": "function"
        },
        {
            "inputs": [
                {
                    "internalType": "string",
                    "name": "_terms",
                    "type": "string"
                }
            ],
            "name": "setTerms",
            "outputs": [],
            "stateMutability": "nonpayable",
            "type": "function"
        },
        {
            "inputs": [
                {
                    "internalType": "uint256",
                    "name": "_newTotalShares",
                    "type": "uint256"
                }
            ],
            "name": "setTotalShares",
            "outputs": [],
            "stateMutability": "nonpayable",
            "type": "function"
        },
        {
            "inputs": [
                {
                    "internalType": "uint256",
                    "name": "",
                    "type": "uint256"
                }
            ],
            "name": "subregisters",
            "outputs": [
                {
                    "internalType": "address",
                    "name": "",
                    "type": "address"
                }
            ],
            "stateMutability": "view",
            "type": "function"
        },
        {
            "inputs": [],
            "name": "symbol",
            "outputs": [
                {
                    "internalType": "string",
                    "name": "",
                    "type": "string"
                }
            ],
            "stateMutability": "view",
            "type": "function"
        },
        {
            "inputs": [],
            "name": "terms",
            "outputs": [
                {
                    "internalType": "string",
                    "name": "",
                    "type": "string"
                }
            ],
            "stateMutability": "view",
            "type": "function"
        },
        {
            "inputs": [],
            "name": "totalShares",
            "outputs": [
                {
                    "internalType": "uint256",
                    "name": "",
                    "type": "uint256"
                }
            ],
            "stateMutability": "view",
            "type": "function"
        },
        {
            "inputs": [],
            "name": "totalSupply",
            "outputs": [
                {
                    "internalType": "uint256",
                    "name": "",
                    "type": "uint256"
                }
            ],
            "stateMutability": "view",
            "type": "function"
        },
        {
            "inputs": [],
            "name": "totalValidSupply",
            "outputs": [
                {
                    "internalType": "uint256",
                    "name": "",
                    "type": "uint256"
                }
            ],
            "stateMutability": "view",
            "type": "function"
        },
        {
            "inputs": [
                {
                    "internalType": "address",
                    "name": "recipient",
                    "type": "address"
                },
                {
                    "internalType": "uint256",
                    "name": "amount",
                    "type": "uint256"
                }
            ],
            "name": "transfer",
            "outputs": [
                {
                    "internalType": "bool",
                    "name": "",
                    "type": "bool"
                }
            ],
            "stateMutability": "nonpayable",
            "type": "function"
        },
        {
            "inputs": [
                {
                    "internalType": "address",
                    "name": "recipient",
                    "type": "address"
                },
                {
                    "internalType": "uint256",
                    "name": "amount",
                    "type": "uint256"
                },
                {
                    "internalType": "bytes",
                    "name": "data",
                    "type": "bytes"
                }
            ],
            "name": "transferAndCall",
            "outputs": [
                {
                    "internalType": "bool",
                    "name": "",
                    "type": "bool"
                }
            ],
            "stateMutability": "nonpayable",
            "type": "function"
        },
        {
            "inputs": [
                {
                    "internalType": "address",
                    "name": "sender",
                    "type": "address"
                },
                {
                    "internalType": "address",
                    "name": "recipient",
                    "type": "address"
                },
                {
                    "internalType": "uint256",
                    "name": "amount",
                    "type": "uint256"
                }
            ],
            "name": "transferFrom",
            "outputs": [
                {
                    "internalType": "bool",
                    "name": "",
                    "type": "bool"
                }
            ],
            "stateMutability": "nonpayable",
            "type": "function"
        },
        {
            "inputs": [
                {
                    "internalType": "address",
                    "name": "newOwner",
                    "type": "address"
                }
            ],
            "name": "transferOwnership",
            "outputs": [],
            "stateMutability": "nonpayable",
            "type": "function"
        },
        {
            "inputs": [],
            "name": "unpause",
            "outputs": [],
            "stateMutability": "nonpayable",
            "type": "function"
        }
    ],
    "bytecode": "608060405262ed4e006004556009805460ff60a01b191690556000600d819055600e553480156200002f57600080fd5b5060405162003bb838038062003bb8833981810160405260608110156200005557600080fd5b81019080805160405193929190846401000000008211156200007657600080fd5b9083019060208201858111156200008c57600080fd5b8251640100000000811182820188101715620000a757600080fd5b82525081516020918201929091019080838360005b83811015620000d6578181015183820152602001620000bc565b50505050905090810190601f168015620001045780820380516001836020036101000a031916815260200191505b50604052602001805160405193929190846401000000008211156200012857600080fd5b9083019060208201858111156200013e57600080fd5b82516401000000008111828201881017156200015957600080fd5b82525081516020918201929091019080838360005b83811015620001885781810151838201526020016200016e565b50505050905090810190601f168015620001b65780820380516001836020036101000a031916815260200191505b5060405260200180516040519392919084640100000000821115620001da57600080fd5b908301906020820185811115620001f057600080fd5b82516401000000008111828201881017156200020b57600080fd5b82525081516020918201929091019080838360005b838110156200023a57818101518382015260200162000220565b50505050905090810190601f168015620002685780820380516001836020036101000a031916815260200191505b5060408190526003805460ff19169055600980546001600160a01b031916339081179091559350839250600091507f8be0079c531659141344cd1fd0a4f28419497f9722a3daafe3b4186f6b6457e0908290a350620002c88383620002e7565b8051620002dd90600c906020840190620004f7565b5050505062000593565b6009546001600160a01b0316331462000347576040805162461bcd60e51b815260206004820181905260248201527f4f776e61626c653a2063616c6c6572206973206e6f7420746865206f776e6572604482015290519081900360640190fd5b81516200035c90600b906020850190620004f7565b5080516200037290600a906020840190620004f7565b507f07ce702fc13ca0620c174dab22996a6d5fd9e7accb663555a4e85323692706ba818360405160200180807002730b6b2903ab83230ba32b2103a379d1607d1b81525060110183805190602001908083835b60208310620003e65780518252601f199092019160209182019101620003c5565b51815160209384036101000a600019018019909216911617905261040560f31b919093019081528451600290910192850191508083835b602083106200043e5780518252601f1990920191602091820191016200041d565b51815160209384036101000a6000190180199092169116179052602960f81b9190930190815260408051808303601e1901815260018301918290528482528051602184015280519097509095508594506041909101928601915080838360005b83811015620004b85781810151838201526020016200049e565b50505050905090810190601f168015620004e65780820380516001836020036101000a031916815260200191505b509250505060405180910390a15050565b828054600181600116156101000203166002900490600052602060002090601f016020900481019282601f106200053a57805160ff19168380011785556200056a565b828001600101855582156200056a579182015b828111156200056a5782518255916020019190600101906200054d565b50620005789291506200057c565b5090565b5b808211156200057857600081556001016200057d565b61361580620005a36000396000f3fe608060405234801561001057600080fd5b50600436106103785760003560e01c806369f721e2116101d3578063a457c2d711610104578063d2c04f43116100a2578063eb1bf0891161007c578063eb1bf08914610caf578063eb470ebf14610d43578063f2fde38b14610d69578063f54fc06014610d8f57610378565b8063d2c04f4314610c5c578063d502562514610c79578063dd62ed3e14610c8157610378565b8063b0d04c7a116100de578063b0d04c7a14610ba5578063b40e80d114610bad578063c6788bdd14610bd3578063cc51e14314610c3657610378565b8063a457c2d714610b30578063a77384c114610b5c578063a9059cbb14610b7957610378565b80637dc2cd981161017157806395d89b411161014b57806395d89b4114610ab65780639b56d6c914610abe578063a26cf59f14610ae4578063a3ec188314610b0a57610378565b80637dc2cd9814610a9e5780638456cb5914610aa65780638da5cb5b14610aae57610378565b806370a08231116101ad57806370a08231146109a6578063715018a6146109cc57806377e071ad146109d457806378f86afc146109fa57610378565b806369f721e2146109645780636b03ed5f146109965780636e3baaf51461099e57610378565b806339509351116102ad57806342966c681161024b5780635c975abb116102255780635c975abb146108b25780635d6624b7146108ba578063609181171461093d5780636427ed971461094557610378565b806342966c681461074f5780634ae5e6301461076c5780635c707f071461078957610378565b80633bcc45ba116102875780633bcc45ba146106725780633f4ba83a146106985780634000aea0146106a057806340c10f191461072357610378565b806339509351146106125780633a1cdf321461063e5780633a98ef391461066a57610378565b80631f0f06aa1161031a5780632a0a4ed5116102f45780632a0a4ed5146105be578063313ce567146105c657806332a7ae95146105e457806337a8129c1461060a57610378565b80631f0f06aa146104ec57806323b872dd1461055a57806326773ddd1461059057610378565b80630cd865ec116103565780630cd865ec1461045e57806318160ddd146104865780631993982d146104a05780631e3b9de5146104c657610378565b806306fdde031461037d578063095ea7b3146103fa5780630c6f0e5d1461043a575b600080fd5b610385610e1d565b6040805160208082528351818301528351919283929083019185019080838360005b838110156103bf5781810151838201526020016103a7565b50505050905090810190601f1680156103ec5780820380516001836020036101000a031916815260200191505b509250505060405180910390f35b6104266004803603604081101561041057600080fd5b506001600160a01b038135169060200135610eab565b604080519115158252519081900360200190f35b610442610ec2565b604080516001600160a01b039092168252519081900360200190f35b6104846004803603602081101561047457600080fd5b50356001600160a01b0316610ed1565b005b61048e6111a6565b60408051918252519081900360200190f35b610484600480360360208110156104b657600080fd5b50356001600160a01b03166111ac565b610442600480360360208110156104dc57600080fd5b50356001600160a01b0316611363565b6104846004803603602081101561050257600080fd5b810190602081018135600160201b81111561051c57600080fd5b82018360208201111561052e57600080fd5b803590602001918460018302840111600160201b8311171561054f57600080fd5b509092509050611384565b6104266004803603606081101561057057600080fd5b506001600160a01b03813581169160208101359091169060400135611435565b610484600480360360408110156105a657600080fd5b506001600160a01b0381358116916020013516611486565b6104426117a1565b6105ce6117b0565b6040805160ff9092168252519081900360200190f35b610484600480360360208110156105fa57600080fd5b50356001600160a01b03166117b9565b61048e611a17565b6104266004803603604081101561062857600080fd5b506001600160a01b038135169060200135611a1d565b6104846004803603604081101561065457600080fd5b506001600160a01b038135169060200135611a53565b61048e611aaa565b6104426004803603602081101561068857600080fd5b50356001600160a01b0316611ab0565b610484611ad1565b610426600480360360608110156106b657600080fd5b6001600160a01b0382351691602081013591810190606081016040820135600160201b8111156106e557600080fd5b8201836020820111156106f757600080fd5b803590602001918460018302840111600160201b8311171561071857600080fd5b509092509050611b6c565b6104846004803603604081101561073957600080fd5b506001600160a01b038135169060200135611c2e565b6104846004803603602081101561076557600080fd5b5035611c85565b6104426004803603602081101561078257600080fd5b5035611cfa565b6104846004803603604081101561079f57600080fd5b810190602081018135600160201b8111156107b957600080fd5b8201836020820111156107cb57600080fd5b803590602001918460018302840111600160201b831117156107ec57600080fd5b91908080601f0160208091040260200160405190810160405280939291908181526020018383808284376000920191909152509295949360208101935035915050600160201b81111561083e57600080fd5b82018360208201111561085057600080fd5b803590602001918460018302840111600160201b8311171561087157600080fd5b91908080601f016020809104026020016040519081016040528093929190818152602001838380828437600092019190915250929550611d21945050505050565b610426611f13565b610484600480360360608110156108d057600080fd5b6001600160a01b0382351691602081013591810190606081016040820135600160201b8111156108ff57600080fd5b82018360208201111561091157600080fd5b803590602001918460018302840111600160201b8311171561093257600080fd5b509092509050611f23565b61048e612046565b6104846004803603602081101561095b57600080fd5b5035151561204c565b6104846004803603606081101561097a57600080fd5b506001600160a01b03813516906020810135906040013561206b565b61048461211e565b61048e61227e565b61048e600480360360208110156109bc57600080fd5b50356001600160a01b0316612284565b61048461229f565b61048e600480360360208110156109ea57600080fd5b50356001600160a01b0316612336565b61048460048036036020811015610a1057600080fd5b810190602081018135600160201b811115610a2a57600080fd5b820183602082011115610a3c57600080fd5b803590602001918460018302840111600160201b83111715610a5d57600080fd5b91908080601f016020809104026020016040519081016040528093929190818152602001838380828437600092019190915250929550612378945050505050565b61048e6124e9565b6104846124ef565b610442612591565b6103856125a0565b61048e60048036036020811015610ad457600080fd5b50356001600160a01b03166125fb565b61048e60048036036020811015610afa57600080fd5b50356001600160a01b0316612619565b61042660048036036020811015610b2057600080fd5b50356001600160a01b03166126e2565b61042660048036036040811015610b4657600080fd5b506001600160a01b038135169060200135612701565b61048460048036036020811015610b7257600080fd5b5035612737565b61042660048036036040811015610b8f57600080fd5b506001600160a01b0381351690602001356127cf565b61048e612826565b61042660048036036020811015610bc357600080fd5b50356001600160a01b031661283c565b610bf960048036036020811015610be957600080fd5b50356001600160a01b0316612851565b60405180856001600160a01b03168152602001848152602001838152602001826001600160a01b0316815260200194505050505060405180910390f35b61048460048036036020811015610c4c57600080fd5b50356001600160a01b0316612883565b61048460048036036020811015610c7257600080fd5b5035612999565b6103856129ef565b61048e60048036036040811015610c9757600080fd5b506001600160a01b0381358116916020013516612a4a565b610484600480360360c0811015610cc557600080fd5b6001600160a01b03823581169260208101359091169160408201359190810190608081016060820135600160201b811115610cff57600080fd5b820183602082011115610d1157600080fd5b803590602001918460018302840111600160201b83111715610d3257600080fd5b919350915080359060200135612a75565b61048e60048036036020811015610d5957600080fd5b50356001600160a01b0316612b2c565b61048460048036036020811015610d7f57600080fd5b50356001600160a01b0316612b4a565b61048460048036036080811015610da557600080fd5b6001600160a01b03823581169260208101359091169160408201359190810190608081016060820135600160201b811115610ddf57600080fd5b820183602082011115610df157600080fd5b803590602001918460018302840111600160201b83111715610e1257600080fd5b509092509050612c38565b600a805460408051602060026001851615610100026000190190941693909304601f81018490048402820184019092528181529291830182828015610ea35780601f10610e7857610100808354040283529160200191610ea3565b820191906000526020600020905b815481529060010190602001808311610e8657829003601f168201915b505050505081565b6000610eb8338484612cec565b5060015b92915050565b6007546001600160a01b031681565b610ed9613326565b506001600160a01b0380821660009081526005602090815260409182902082516080810184528154851681526001820154928101839052600282015493810193909352600301549092166060820181905290919081610f70576040805162461bcd60e51b815260206004820152600e60248201526d139bc818db185a5b48199bdd5b9960921b604482015290519081900360640190fd5b82516001600160a01b03163314610fce576040805162461bcd60e51b815260206004820152601f60248201527f4f6e6c7920636c61696d616e742063616e207265736f6c766520636c61696d00604482015290519081900360640190fd5b42610fe86004548560400151612dd890919063ffffffff16565b111561103b576040805162461bcd60e51b815260206004820152601960248201527f436c61696d20706572696f64206e6f74206f7665722079657400000000000000604482015290519081900360640190fd5b82516001600160a01b03808616600090815260056020908152604080832080546001600160a01b031990811682556001820185905560028201859055600390910180549091169055805163a9059cbb60e01b815284861660048201526024810188905290519386169363a9059cbb93604480840194938390030190829087803b1580156110c757600080fd5b505af11580156110db573d6000803e3d6000fd5b505050506040513d60208110156110f157600080fd5b5051611141576040805162461bcd60e51b815260206004820152601a60248201527910dbdb1b185d195c985b081d1c985b9cd9995c8819985a5b195960321b604482015290519081900360640190fd5b611154858261114f88612284565b612de5565b806001600160a01b0316856001600160a01b03167f52a5c2b28bc6eb9712d0ced43463103b486b13ccc9cda499fd3b2d7b6a74a8ee856040518082815260200191505060405180910390a35050505050565b60025490565b6009546001600160a01b031633146111f9576040805162461bcd60e51b815260206004820181905260248201526000805160206134df833981519152604482015290519081900360640190fd5b61120281612284565b1561123e5760405162461bcd60e51b81526004018080602001828103825260278152602001806134b86027913960400191505060405180910390fd5b60005b600f5481101561135f57816001600160a01b0316600f828154811061126257fe5b6000918252602090912001546001600160a01b0316141561135757600f8054600019810190811061128f57fe5b600091825260209091200154600f80546001600160a01b0390921691839081106112b557fe5b9060005260206000200160006101000a8154816001600160a01b0302191690836001600160a01b03160217905550600f8054806112ee57fe5b6001900381819060005260206000200160006101000a8154906001600160a01b03021916905590557fc3f6f866f10921ec4857ee8fe667183cd1751e53ed509c992689bece36ca18988260405180826001600160a01b0316815260200191505060405180910390a15b600101611241565b5050565b6001600160a01b03808216600090815260056020526040902054165b919050565b6009546001600160a01b031633146113d1576040805162461bcd60e51b815260206004820181905260248201526000805160206134df833981519152604482015290519081900360640190fd5b7f07ce702fc13ca0620c174dab22996a6d5fd9e7accb663555a4e85323692706ba828260405180806020018281038252848482818152602001925080828437600083820152604051601f909101601f19169092018290039550909350505050a15050565b6000611442848484612de5565b6001600160a01b03841660009081526001602090815260408083203380855292529091205461147c9186916114779086612e44565b612cec565b5060019392505050565b61148f816126e2565b6114e0576040805162461bcd60e51b815260206004820181905260248201527f436c61696d732064697361626c656420666f7220746869732061646472657373604482015290519081900360640190fd5b60006114eb83612336565b90506000811161153b576040805162461bcd60e51b8152602060048201526016602482015275155b9cdd5c1c1bdc9d19590818dbdb1b185d195c985b60521b604482015290519081900360640190fd5b33600061154784612284565b905060006115558285612e56565b905085826115aa576040805162461bcd60e51b815260206004820152601f60248201527f436c61696d6564206164647265737320686f6c6473206e6f2073686172657300604482015290519081900360640190fd5b6001600160a01b03861660009081526005602052604090206001015415611618576040805162461bcd60e51b815260206004820152601760248201527f4164647265737320616c726561647920636c61696d6564000000000000000000604482015290519081900360640190fd5b604080516323b872dd60e01b81526001600160a01b038681166004830152306024830152604482018590529151918316916323b872dd916064808201926020929091908290030181600087803b15801561167157600080fd5b505af1158015611685573d6000803e3d6000fd5b505050506040513d602081101561169b57600080fd5b50516116eb576040805162461bcd60e51b815260206004820152601a60248201527910dbdb1b185d195c985b081d1c985b9cd9995c8819985a5b195960321b604482015290519081900360640190fd5b604080516080810182526001600160a01b038087168083526020808401878152428587019081528d8516606087019081528d8616600081815260058652899020975188549088166001600160a01b0319918216178955935160018901559151600288015551600390960180549690951695909116949094179092558351878152935190937f1982ca8958fc8a8176cb52be509260f4bc5af7ce04e1533711793f1c56dd535992908290030190a350505050505050565b60006117ab612591565b905090565b60035460ff1681565b6117c16117a1565b6001600160a01b0316336001600160a01b031614611826576040805162461bcd60e51b815260206004820152601860248201527f596f752063616e6e6f742064656c65746520636c61696d730000000000000000604482015290519081900360640190fd5b61182e613326565b506001600160a01b0380821660009081526005602090815260409182902082516080810184528154851681526001820154928101839052600282015493810193909352600301549092166060820181905290916118c3576040805162461bcd60e51b815260206004820152600e60248201526d139bc818db185a5b48199bdd5b9960921b604482015290519081900360640190fd5b6001600160a01b03808416600090815260056020908152604080832080546001600160a01b031990811682556001820185905560028201859055600390910180549091169055855186830151825163a9059cbb60e01b81529186166004830152602482015290519385169363a9059cbb93604480840194938390030190829087803b15801561195157600080fd5b505af1158015611965573d6000803e3d6000fd5b505050506040513d602081101561197b57600080fd5b50516119cb576040805162461bcd60e51b815260206004820152601a60248201527910dbdb1b185d195c985b081d1c985b9cd9995c8819985a5b195960321b604482015290519081900360640190fd5b815160208084015160408051918252516001600160a01b03938416938716927fbb036e629a9f4c0897ee5d48440dfdb36f7e772117723a2ed603a6514244c2d5928290030190a3505050565b600e5481565b3360008181526001602090815260408083206001600160a01b03871684529091528120549091610eb89185906114779086612dd8565b6009546001600160a01b03163314611aa0576040805162461bcd60e51b815260206004820181905260248201526000805160206134df833981519152604482015290519081900360640190fd5b61135f8282612e7b565b600d5481565b6001600160a01b039081166000908152600560205260409020600301541690565b6009546001600160a01b03163314611b1e576040805162461bcd60e51b815260206004820181905260248201526000805160206134df833981519152604482015290519081900360640190fd5b600954600160a01b900460ff16611b3457600080fd5b6009805460ff60a01b191690556040517f7805862f689e2f13df9f062ff482ad3ad112aca9e0847911ed832e158c525b3390600090a1565b600080611b7986866127cf565b90508015611c2557856001600160a01b031663a4c0ed36338787876040518563ffffffff1660e01b815260040180856001600160a01b03168152602001848152602001806020018281038252848482818152602001925080828437600081840152601f19601f82011690508083019250505095505050505050600060405180830381600087803b158015611c0c57600080fd5b505af1158015611c20573d6000803e3d6000fd5b505050505b95945050505050565b6009546001600160a01b03163314611c7b576040805162461bcd60e51b815260206004820181905260248201526000805160206134df833981519152604482015290519081900360640190fd5b61135f8282612f4e565b611c8e33612284565b811115611ce2576040805162461bcd60e51b815260206004820152601b60248201527f4e6f7420656e6f7567682073686172657320617661696c61626c650000000000604482015290519081900360640190fd5b611ced333083612de5565b611cf73082612fa4565b50565b600f8181548110611d0757fe5b6000918252602090912001546001600160a01b0316905081565b6009546001600160a01b03163314611d6e576040805162461bcd60e51b815260206004820181905260248201526000805160206134df833981519152604482015290519081900360640190fd5b8151611d8190600b906020850190613360565b508051611d9590600a906020840190613360565b507f07ce702fc13ca0620c174dab22996a6d5fd9e7accb663555a4e85323692706ba818360405160200180807002730b6b2903ab83230ba32b2103a379d1607d1b81525060110183805190602001908083835b60208310611e075780518252601f199092019160209182019101611de8565b51815160209384036101000a600019018019909216911617905261040560f31b919093019081528451600290910192850191508083835b60208310611e5d5780518252601f199092019160209182019101611e3e565b51815160209384036101000a6000190180199092169116179052602960f81b9190930190815260408051808303601e1901815260018301918290528482528051602184015280519097509095508594506041909101928601915080838360005b83811015611ed5578181015183820152602001611ebd565b50505050905090810190601f168015611f025780820380516001836020036101000a031916815260200191505b509250505060405180910390a15050565b600954600160a01b900460ff1681565b6009546001600160a01b03163314611f70576040805162461bcd60e51b815260206004820181905260248201526000805160206134df833981519152604482015290519081900360640190fd5b6000611f7b85612284565b905080841115611fbc5760405162461bcd60e51b815260040180806020018281038252603281526020018061345f6032913960400191505060405180910390fd5b600e54611fc99085612dd8565b600e5560408051858152602081018281529181018490526001600160a01b038716917f0a605cd1294f60fa3b73548ac68428f33300a051f225afcdcc75e56083c96ee79187918791879160608201848480828437600083820152604051601f909101601f1916909201829003965090945050505050a25050505050565b60085481565b336000908152600660205260409020805460ff19169115919091179055565b6009546001600160a01b031633146120b8576040805162461bcd60e51b815260206004820181905260248201526000805160206134df833981519152604482015290519081900360640190fd5b604080518381526020810183905281516001600160a01b038616927f7b37b2b4bba7b5ea40a69f93db727c289fbbaa632be8186cfa85e0297e001319928290030190a261211983612114600161210e8587612e44565b90612dd8565b612f4e565b505050565b336000908152600560205260409020600101541561227c5733600081815260056020908152604080832060018101805460038301805484546001600160a01b03199081168655938890556002909401879055918316909155825163a9059cbb60e01b8152600481019690965260248601819052915191946001600160a01b0390911693849363a9059cbb93604480850194929391928390030190829087803b1580156121c957600080fd5b505af11580156121dd573d6000803e3d6000fd5b505050506040513d60208110156121f357600080fd5b5051612243576040805162461bcd60e51b815260206004820152601a60248201527910dbdb1b185d195c985b081d1c985b9cd9995c8819985a5b195960321b604482015290519081900360640190fd5b60408051838152905133917f203627483d943880619f4b7e0cca21dbefd6204b4d85b124eb99540e17ba86dd919081900360200190a250505b565b600f5490565b6001600160a01b031660009081526020819052604090205490565b6009546001600160a01b031633146122ec576040805162461bcd60e51b815260206004820181905260248201526000805160206134df833981519152604482015290519081900360640190fd5b6009546040516000916001600160a01b0316907f8be0079c531659141344cd1fd0a4f28419497f9722a3daafe3b4186f6b6457e0908390a3600980546001600160a01b0319169055565b60006001600160a01b0382163014156123515750600161137f565b6007546001600160a01b0383811691161415612370575060085461137f565b50600061137f565b6009546001600160a01b031633146123c5576040805162461bcd60e51b815260206004820181905260248201526000805160206134df833981519152604482015290519081900360640190fd5b80516123d890600c906020840190613360565b507f07ce702fc13ca0620c174dab22996a6d5fd9e7accb663555a4e85323692706ba8160405160200180806e02a32b936b9903ab83230ba32b21d1608d1b815250600f0182805190602001908083835b602083106124475780518252601f199092019160209182019101612428565b51815160209384036101000a60001901801990921691161790526040805192909401828103601f190183528085528181528251818301528251929650945084938401925085019080838360005b838110156124ac578181015183820152602001612494565b50505050905090810190601f1680156124d95780820380516001836020036101000a031916815260200191505b509250505060405180910390a150565b60045481565b6009546001600160a01b0316331461253c576040805162461bcd60e51b815260206004820181905260248201526000805160206134df833981519152604482015290519081900360640190fd5b600954600160a01b900460ff161561255357600080fd5b6009805460ff60a01b1916600160a01b1790556040517f6985a02210a168e66602d3235cb6db0e70f92b3ba4d376a33c0f3d9434bff62590600090a1565b6009546001600160a01b031690565b600b805460408051602060026001851615610100026000190190941693909304601f81018490048402820184019092528181529291830182828015610ea35780601f10610e7857610100808354040283529160200191610ea3565b6001600160a01b031660009081526005602052604090206001015490565b60008061262583612284565b905060005b600f548110156126db576000600f828154811061264357fe5b60009182526020918290200154604080516370a0823160e01b81526001600160a01b03898116600483015291519190921693506126d09284926370a082319260248083019392829003018186803b15801561269d57600080fd5b505afa1580156126b1573d6000803e3d6000fd5b505050506040513d60208110156126c757600080fd5b50518490612dd8565b92505060010161262a565b5092915050565b6001600160a01b031660009081526006602052604090205460ff161590565b3360008181526001602090815260408083206001600160a01b03871684529091528120549091610eb89185906114779086612e44565b6009546001600160a01b03163314612784576040805162461bcd60e51b815260206004820181905260248201526000805160206134df833981519152604482015290519081900360640190fd5b61278c612826565b8110156127ca5760405162461bcd60e51b81526004018080602001828103825260278152602001806134916027913960400191505060405180910390fd5b600d55565b60006127db8383613071565b61281e576040805162461bcd60e51b815260206004820152600f60248201526e151c985b9cd9995c8819985a5b1959608a1b604482015290519081900360640190fd5b610eb861211e565b60006117ab600e546128366111a6565b90612e44565b60066020526000908152604090205460ff1681565b60056020526000908152604090208054600182015460028301546003909301546001600160a01b039283169391921684565b6009546001600160a01b031633146128d0576040805162461bcd60e51b815260206004820181905260248201526000805160206134df833981519152604482015290519081900360640190fd5b6128d981612284565b156129155760405162461bcd60e51b81526004018080602001828103825260258152602001806135696025913960400191505060405180910390fd5b600f80546001810182556000919091527f8d1108e10bcb7c27dddfc02ed9d693a074039d026cf4ea4240b40f7d581ac8020180546001600160a01b0383166001600160a01b0319909116811790915560408051918252517f7417b75095e577f15d994b058af7a3a71f67be4ae2f288725d1b922f6bb67a679181900360200190a150565b6009546001600160a01b031633146129e6576040805162461bcd60e51b815260206004820181905260248201526000805160206134df833981519152604482015290519081900360640190fd5b611cf78161307e565b600c805460408051602060026001851615610100026000190190941693909304601f81018490048402820184019092528181529291830182828015610ea35780601f10610e7857610100808354040283529160200191610ea3565b6001600160a01b03918216600090815260016020908152604080832093909416825291909152205490565b612a8087838361206b565b856001600160a01b031663a4c0ed36888787876040518563ffffffff1660e01b815260040180856001600160a01b03168152602001848152602001806020018281038252848482818152602001925080828437600081840152601f19601f82011690508083019250505095505050505050600060405180830381600087803b158015612b0b57600080fd5b505af1158015612b1f573d6000803e3d6000fd5b5050505050505050505050565b6001600160a01b031660009081526005602052604090206002015490565b6009546001600160a01b03163314612b97576040805162461bcd60e51b815260206004820181905260248201526000805160206134df833981519152604482015290519081900360640190fd5b6001600160a01b038116612bdc5760405162461bcd60e51b81526004018080602001828103825260268152602001806134176026913960400191505060405180910390fd5b6009546040516001600160a01b038084169216907f8be0079c531659141344cd1fd0a4f28419497f9722a3daafe3b4186f6b6457e090600090a3600980546001600160a01b0319166001600160a01b0392909216919091179055565b612c428484611c2e565b836001600160a01b031663a4c0ed36868585856040518563ffffffff1660e01b815260040180856001600160a01b03168152602001848152602001806020018281038252848482818152602001925080828437600081840152601f19601f82011690508083019250505095505050505050600060405180830381600087803b158015612ccd57600080fd5b505af1158015612ce1573d6000803e3d6000fd5b505050505050505050565b6001600160a01b038316612d315760405162461bcd60e51b81526004018080602001828103825260248152602001806135456024913960400191505060405180910390fd5b6001600160a01b038216612d765760405162461bcd60e51b815260040180806020018281038252602281526020018061343d6022913960400191505060405180910390fd5b6001600160a01b03808416600081815260016020908152604080832094871680845294825291829020859055815185815291517f8c5be1e5ebec7d5bd14f71427d1e84f3dd0314c0f7b2291e5b200ac8c7c3b9259281900390910190a3505050565b81810182811015610ebc57fe5b600954600160a01b900460ff1615612e39576040805162461bcd60e51b815260206004820152601260248201527110dbdb9d1c9858dd081a5cc81c185d5cd95960721b604482015290519081900360640190fd5b61211983838361310c565b600082821115612e5057fe5b50900390565b600082612e6557506000610ebc565b5081810281838281612e7357fe5b0414610ebc57fe5b600780546001600160a01b0319166001600160a01b03848116919091179182905516612eab576000600855612f06565b60008111612f00576040805162461bcd60e51b815260206004820152601d60248201527f436f6c6c61746572616c20726174652063616e2774206265207a65726f000000604482015290519081900360640190fd5b60088190555b604080516001600160a01b03841681526020810183905281517f94238858463adf0fecc0e064844831a54bccf8467c86f0b93d2a9508e0596853929181900390910190a15050565b600d54612f5d8261210e612826565b1115612f9a5760405162461bcd60e51b815260040180806020018281038252602d8152602001806135b3602d913960400191505060405180910390fd5b61135f8282613242565b6001600160a01b038216612fe95760405162461bcd60e51b81526004018080602001828103825260218152602001806134ff6021913960400191505060405180910390fd5b600254612ff69082612e44565b6002556001600160a01b03821660009081526020819052604090205461301c9082612e44565b6001600160a01b038316600081815260208181526040808320949094558351858152935191937fddf252ad1be2c89b69c2b068fc378daa952ba7f163c4a11628f55a4df523b3ef929081900390910190a35050565b6000610eb8338484612de5565b605a81116130bd5760405162461bcd60e51b815260040180806020018281038252602581526020018061358e6025913960400191505060405180910390fd5b60006130cc8262015180612e56565b60048190556040805182815290519192507ffde5ae686f4fb7b301820b66139fa5cbed90c4b91428ce2fe961558fcac47ba6919081900360200190a15050565b6001600160a01b0383166131515760405162461bcd60e51b81526004018080602001828103825260258152602001806135206025913960400191505060405180910390fd5b6001600160a01b0382166131965760405162461bcd60e51b81526004018080602001828103825260238152602001806133f46023913960400191505060405180910390fd5b6001600160a01b0383166000908152602081905260409020546131b99082612e44565b6001600160a01b0380851660009081526020819052604080822093909355908416815220546131e89082612dd8565b6001600160a01b038084166000818152602081815260409182902094909455805185815290519193928716927fddf252ad1be2c89b69c2b068fc378daa952ba7f163c4a11628f55a4df523b3ef92918290030190a3505050565b6001600160a01b03821661329d576040805162461bcd60e51b815260206004820152601f60248201527f45524332303a206d696e7420746f20746865207a65726f206164647265737300604482015290519081900360640190fd5b6002546132aa9082612dd8565b6002556001600160a01b0382166000908152602081905260409020546132d09082612dd8565b6001600160a01b0383166000818152602081815260408083209490945583518581529351929391927fddf252ad1be2c89b69c2b068fc378daa952ba7f163c4a11628f55a4df523b3ef9281900390910190a35050565b604051806080016040528060006001600160a01b03168152602001600081526020016000815260200160006001600160a01b031681525090565b828054600181600116156101000203166002900490600052602060002090601f016020900481019282601f106133a157805160ff19168380011785556133ce565b828001600101855582156133ce579182015b828111156133ce5782518255916020019190600101906133b3565b506133da9291506133de565b5090565b5b808211156133da57600081556001016133df56fe45524332303a207472616e7366657220746f20746865207a65726f20616464726573734f776e61626c653a206e6577206f776e657220697320746865207a65726f206164647265737345524332303a20617070726f766520746f20746865207a65726f206164647265737343616e6e6f7420696e76616c6964617465206d6f726520746f6b656e73207468616e2068656c64206279206164647265737354686572652063616e277420626520666577657220746f6b656e73207468616e20736861726573537562726567697374657273206d75737420626520656d707479207768656e2072656d6f7665644f776e61626c653a2063616c6c6572206973206e6f7420746865206f776e657245524332303a206275726e2066726f6d20746865207a65726f206164647265737345524332303a207472616e736665722066726f6d20746865207a65726f206164647265737345524332303a20617070726f76652066726f6d20746865207a65726f2061646472657373537562726567697374657273206d75737420626520656d707479207768656e206164646564436c61696d20706572696f64206d757374206265206174206c65617374203930206461797354686572652063616e277420626520666577657220736861726573207468616e2076616c696420746f6b656e73a2646970667358221220f8bb4c66729ba7992db3251e1d3c01fb82e8b64f0b593efac986d9a25b2849af64736f6c63430007000033",
    "sourcePath": "c:/Users/luziu/Documents/aktionariat/contracts/src/Shares.sol",
    "compiler": {
        "name": "solc",
        "version": "0.7.0+commit.9e61f92b"
    },
    "functionHashes": {
        "allowance(address,address)": "dd62ed3e",
        "announcement(string)": "1f0f06aa",
        "approve(address,uint256)": "095ea7b3",
        "balanceOf(address)": "70a08231",
        "balanceOfDeep(address)": "a26cf59f",
        "burn(uint256)": "42966c68",
        "claimPeriod()": "7dc2cd98",
        "claims(address)": "c6788bdd",
        "clearClaim()": "6b03ed5f",
        "countSubregisters()": "6e3baaf5",
        "customCollateralAddress()": "0c6f0e5d",
        "customCollateralRate()": "60918117",
        "decimals()": "313ce567",
        "declareInvalid(address,uint256,string)": "5d6624b7",
        "declareLost(address,address)": "26773ddd",
        "decreaseAllowance(address,uint256)": "a457c2d7",
        "deleteClaim(address)": "32a7ae95",
        "getClaimDeleter()": "2a0a4ed5",
        "getClaimant(address)": "1e3b9de5",
        "getCollateral(address)": "9b56d6c9",
        "getCollateralRate(address)": "77e071ad",
        "getCollateralType(address)": "3bcc45ba",
        "getTimeStamp(address)": "eb470ebf",
        "increaseAllowance(address,uint256)": "39509351",
        "invalidTokens()": "37a8129c",
        "isRecoveryEnabled(address)": "a3ec1883",
        "mint(address,uint256)": "40c10f19",
        "mintAndCall(address,address,uint256,bytes)": "f54fc060",
        "mintNumbered(address,uint256,uint256)": "69f721e2",
        "mintNumberedAndCall(address,address,uint256,bytes,uint256,uint256)": "eb1bf089",
        "name()": "06fdde03",
        "owner()": "8da5cb5b",
        "pause()": "8456cb59",
        "paused()": "5c975abb",
        "recognizeSubRegister(address)": "cc51e143",
        "recover(address)": "0cd865ec",
        "recoveryDisabled(address)": "b40e80d1",
        "removeSubRegister(address)": "1993982d",
        "renounceOwnership()": "715018a6",
        "setClaimPeriod(uint256)": "d2c04f43",
        "setCustomClaimCollateral(address,uint256)": "3a1cdf32",
        "setName(string,string)": "5c707f07",
        "setRecoverable(bool)": "6427ed97",
        "setTerms(string)": "78f86afc",
        "setTotalShares(uint256)": "a77384c1",
        "subregisters(uint256)": "4ae5e630",
        "symbol()": "95d89b41",
        "terms()": "d5025625",
        "totalShares()": "3a98ef39",
        "totalSupply()": "18160ddd",
        "totalValidSupply()": "b0d04c7a",
        "transfer(address,uint256)": "a9059cbb",
        "transferAndCall(address,uint256,bytes)": "4000aea0",
        "transferFrom(address,address,uint256)": "23b872dd",
        "transferOwnership(address)": "f2fde38b",
        "unpause()": "3f4ba83a"
    },
    "gasEstimates": {
        "creation": {
            "codeDepositCost": "2769000",
            "executionCost": "infinite",
            "totalCost": "infinite"
        },
        "external": {
            "allowance(address,address)": "1361",
            "announcement(string)": "infinite",
            "approve(address,uint256)": "infinite",
            "balanceOf(address)": "1213",
            "balanceOfDeep(address)": "infinite",
            "burn(uint256)": "infinite",
            "claimPeriod()": "1066",
            "claims(address)": "3807",
            "clearClaim()": "infinite",
            "countSubregisters()": "1111",
            "customCollateralAddress()": "1151",
            "customCollateralRate()": "1109",
            "decimals()": "1103",
            "declareInvalid(address,uint256,string)": "infinite",
            "declareLost(address,address)": "infinite",
            "decreaseAllowance(address,uint256)": "infinite",
            "deleteClaim(address)": "infinite",
            "getClaimDeleter()": "1140",
            "getClaimant(address)": "1313",
            "getCollateral(address)": "1237",
            "getCollateralRate(address)": "2087",
            "getCollateralType(address)": "1246",
            "getTimeStamp(address)": "1236",
            "increaseAllowance(address,uint256)": "infinite",
            "invalidTokens()": "1132",
            "isRecoveryEnabled(address)": "1290",
            "mint(address,uint256)": "infinite",
            "mintAndCall(address,address,uint256,bytes)": "infinite",
            "mintNumbered(address,uint256,uint256)": "infinite",
            "mintNumberedAndCall(address,address,uint256,bytes,uint256,uint256)": "infinite",
            "name()": "infinite",
            "owner()": "1149",
            "pause()": "infinite",
            "paused()": "1094",
            "recognizeSubRegister(address)": "infinite",
            "recover(address)": "infinite",
            "recoveryDisabled(address)": "1225",
            "removeSubRegister(address)": "infinite",
            "renounceOwnership()": "infinite",
            "setClaimPeriod(uint256)": "infinite",
            "setCustomClaimCollateral(address,uint256)": "infinite",
            "setName(string,string)": "infinite",
            "setRecoverable(bool)": "21229",
            "setTerms(string)": "infinite",
            "setTotalShares(uint256)": "infinite",
            "subregisters(uint256)": "2060",
            "symbol()": "infinite",
            "terms()": "infinite",
            "totalShares()": "1111",
            "totalSupply()": "1089",
            "totalValidSupply()": "1970",
            "transfer(address,uint256)": "infinite",
            "transferAndCall(address,uint256,bytes)": "infinite",
            "transferFrom(address,address,uint256)": "infinite",
            "transferOwnership(address)": "infinite",
            "unpause()": "infinite"
        },
        "internal": {
            "_mint(address,uint256)": "infinite",
            "_transfer(address,address,uint256)": "infinite"
        }
    }
}