{
    "contractName": "Shares",
    "abi": [
        {
            "inputs": [
                {
                    "internalType": "string",
                    "name": "_symbol",
                    "type": "string"
                },
                {
                    "internalType": "string",
                    "name": "_name",
                    "type": "string"
                },
                {
                    "internalType": "string",
                    "name": "_terms",
                    "type": "string"
                },
                {
                    "internalType": "uint256",
                    "name": "_totalShares",
                    "type": "uint256"
                },
                {
                    "internalType": "address",
                    "name": "owner",
                    "type": "address"
                }
            ],
            "stateMutability": "nonpayable",
            "type": "constructor"
        },
        {
            "anonymous": false,
            "inputs": [
                {
                    "indexed": false,
                    "internalType": "string",
                    "name": "message",
                    "type": "string"
                }
            ],
            "name": "Announcement",
            "type": "event"
        },
        {
            "anonymous": false,
            "inputs": [
                {
                    "indexed": true,
                    "internalType": "address",
                    "name": "owner",
                    "type": "address"
                },
                {
                    "indexed": true,
                    "internalType": "address",
                    "name": "spender",
                    "type": "address"
                },
                {
                    "indexed": false,
                    "internalType": "uint256",
                    "name": "value",
                    "type": "uint256"
                }
            ],
            "name": "Approval",
            "type": "event"
        },
        {
            "anonymous": false,
            "inputs": [
                {
                    "indexed": true,
                    "internalType": "address",
                    "name": "lostAddress",
                    "type": "address"
                },
                {
                    "indexed": false,
                    "internalType": "uint256",
                    "name": "collateral",
                    "type": "uint256"
                }
            ],
            "name": "ClaimCleared",
            "type": "event"
        },
        {
            "anonymous": false,
            "inputs": [
                {
                    "indexed": true,
                    "internalType": "address",
                    "name": "lostAddress",
                    "type": "address"
                },
                {
                    "indexed": true,
                    "internalType": "address",
                    "name": "claimant",
                    "type": "address"
                },
                {
                    "indexed": false,
                    "internalType": "uint256",
                    "name": "collateral",
                    "type": "uint256"
                }
            ],
            "name": "ClaimDeleted",
            "type": "event"
        },
        {
            "anonymous": false,
            "inputs": [
                {
                    "indexed": true,
                    "internalType": "address",
                    "name": "lostAddress",
                    "type": "address"
                },
                {
                    "indexed": true,
                    "internalType": "address",
                    "name": "claimant",
                    "type": "address"
                },
                {
                    "indexed": false,
                    "internalType": "uint256",
                    "name": "balance",
                    "type": "uint256"
                }
            ],
            "name": "ClaimMade",
            "type": "event"
        },
        {
            "anonymous": false,
            "inputs": [
                {
                    "indexed": true,
                    "internalType": "address",
                    "name": "lostAddress",
                    "type": "address"
                },
                {
                    "indexed": true,
                    "internalType": "address",
                    "name": "claimant",
                    "type": "address"
                },
                {
                    "indexed": false,
                    "internalType": "uint256",
                    "name": "collateral",
                    "type": "uint256"
                }
            ],
            "name": "ClaimResolved",
            "type": "event"
        },
        {
            "anonymous": false,
            "inputs": [
                {
                    "indexed": false,
                    "internalType": "address",
                    "name": "newCustomCollateralAddress",
                    "type": "address"
                },
                {
                    "indexed": false,
                    "internalType": "uint256",
                    "name": "newCustomCollareralRate",
                    "type": "uint256"
                }
            ],
            "name": "CustomClaimCollateralChanged",
            "type": "event"
        },
        {
            "anonymous": false,
            "inputs": [
                {
                    "indexed": true,
                    "internalType": "address",
                    "name": "previousOwner",
                    "type": "address"
                },
                {
                    "indexed": true,
                    "internalType": "address",
                    "name": "newOwner",
                    "type": "address"
                }
            ],
            "name": "OwnershipTransferred",
            "type": "event"
        },
        {
            "anonymous": false,
            "inputs": [
                {
                    "indexed": false,
                    "internalType": "address",
                    "name": "contractAddress",
                    "type": "address"
                }
            ],
            "name": "SubRegisterRecognized",
            "type": "event"
        },
        {
            "anonymous": false,
            "inputs": [
                {
                    "indexed": true,
                    "internalType": "address",
                    "name": "holder",
                    "type": "address"
                },
                {
                    "indexed": false,
                    "internalType": "uint256",
                    "name": "amount",
                    "type": "uint256"
                },
                {
                    "indexed": false,
                    "internalType": "string",
                    "name": "message",
                    "type": "string"
                }
            ],
            "name": "TokensDeclaredInvalid",
            "type": "event"
        },
        {
            "anonymous": false,
            "inputs": [
                {
                    "indexed": true,
                    "internalType": "address",
                    "name": "from",
                    "type": "address"
                },
                {
                    "indexed": true,
                    "internalType": "address",
                    "name": "to",
                    "type": "address"
                },
                {
                    "indexed": false,
                    "internalType": "uint256",
                    "name": "value",
                    "type": "uint256"
                }
            ],
            "name": "Transfer",
            "type": "event"
        },
        {
            "inputs": [
                {
                    "internalType": "address",
                    "name": "owner",
                    "type": "address"
                },
                {
                    "internalType": "address",
                    "name": "spender",
                    "type": "address"
                }
            ],
            "name": "allowance",
            "outputs": [
                {
                    "internalType": "uint256",
                    "name": "",
                    "type": "uint256"
                }
            ],
            "stateMutability": "view",
            "type": "function"
        },
        {
            "inputs": [
                {
                    "internalType": "string",
                    "name": "message",
                    "type": "string"
                }
            ],
            "name": "announcement",
            "outputs": [],
            "stateMutability": "nonpayable",
            "type": "function"
        },
        {
            "inputs": [
                {
                    "internalType": "address",
                    "name": "spender",
                    "type": "address"
                },
                {
                    "internalType": "uint256",
                    "name": "value",
                    "type": "uint256"
                }
            ],
            "name": "approve",
            "outputs": [
                {
                    "internalType": "bool",
                    "name": "",
                    "type": "bool"
                }
            ],
            "stateMutability": "nonpayable",
            "type": "function"
        },
        {
            "inputs": [
                {
                    "internalType": "address",
                    "name": "account",
                    "type": "address"
                }
            ],
            "name": "balanceOf",
            "outputs": [
                {
                    "internalType": "uint256",
                    "name": "",
                    "type": "uint256"
                }
            ],
            "stateMutability": "view",
            "type": "function"
        },
        {
            "inputs": [
                {
                    "internalType": "uint256",
                    "name": "_amount",
                    "type": "uint256"
                }
            ],
            "name": "burn",
            "outputs": [],
            "stateMutability": "nonpayable",
            "type": "function"
        },
        {
            "inputs": [],
            "name": "claimPeriod",
            "outputs": [
                {
                    "internalType": "uint256",
                    "name": "",
                    "type": "uint256"
                }
            ],
            "stateMutability": "view",
            "type": "function"
        },
        {
            "inputs": [
                {
                    "internalType": "address",
                    "name": "",
                    "type": "address"
                }
            ],
            "name": "claims",
            "outputs": [
                {
                    "internalType": "address",
                    "name": "claimant",
                    "type": "address"
                },
                {
                    "internalType": "uint256",
                    "name": "collateral",
                    "type": "uint256"
                },
                {
                    "internalType": "uint256",
                    "name": "timestamp",
                    "type": "uint256"
                },
                {
                    "internalType": "address",
                    "name": "currencyUsed",
                    "type": "address"
                }
            ],
            "stateMutability": "view",
            "type": "function"
        },
        {
            "inputs": [],
            "name": "clearClaim",
            "outputs": [],
            "stateMutability": "nonpayable",
            "type": "function"
        },
        {
            "inputs": [],
            "name": "customCollateralAddress",
            "outputs": [
                {
                    "internalType": "address",
                    "name": "",
                    "type": "address"
                }
            ],
            "stateMutability": "view",
            "type": "function"
        },
        {
            "inputs": [],
            "name": "customCollateralRate",
            "outputs": [
                {
                    "internalType": "uint256",
                    "name": "",
                    "type": "uint256"
                }
            ],
            "stateMutability": "view",
            "type": "function"
        },
        {
            "inputs": [],
            "name": "decimals",
            "outputs": [
                {
                    "internalType": "uint8",
                    "name": "",
                    "type": "uint8"
                }
            ],
            "stateMutability": "view",
            "type": "function"
        },
        {
            "inputs": [
                {
                    "internalType": "address",
                    "name": "holder",
                    "type": "address"
                },
                {
                    "internalType": "uint256",
                    "name": "amount",
                    "type": "uint256"
                },
                {
                    "internalType": "string",
                    "name": "message",
                    "type": "string"
                }
            ],
            "name": "declareInvalid",
            "outputs": [],
            "stateMutability": "nonpayable",
            "type": "function"
        },
        {
            "inputs": [
                {
                    "internalType": "address",
                    "name": "collateralType",
                    "type": "address"
                },
                {
                    "internalType": "address",
                    "name": "lostAddress",
                    "type": "address"
                }
            ],
            "name": "declareLost",
            "outputs": [],
            "stateMutability": "nonpayable",
            "type": "function"
        },
        {
            "inputs": [
                {
                    "internalType": "address",
                    "name": "lostAddress",
                    "type": "address"
                }
            ],
            "name": "deleteClaim",
            "outputs": [],
            "stateMutability": "nonpayable",
            "type": "function"
        },
        {
            "inputs": [],
            "name": "getClaimDeleter",
            "outputs": [
                {
                    "internalType": "address",
                    "name": "",
                    "type": "address"
                }
            ],
            "stateMutability": "view",
            "type": "function"
        },
        {
            "inputs": [
                {
                    "internalType": "address",
                    "name": "lostAddress",
                    "type": "address"
                }
            ],
            "name": "getClaimant",
            "outputs": [
                {
                    "internalType": "address",
                    "name": "",
                    "type": "address"
                }
            ],
            "stateMutability": "view",
            "type": "function"
        },
        {
            "inputs": [
                {
                    "internalType": "address",
                    "name": "lostAddress",
                    "type": "address"
                }
            ],
            "name": "getCollateral",
            "outputs": [
                {
                    "internalType": "uint256",
                    "name": "",
                    "type": "uint256"
                }
            ],
            "stateMutability": "view",
            "type": "function"
        },
        {
            "inputs": [
                {
                    "internalType": "address",
                    "name": "collateralType",
                    "type": "address"
                }
            ],
            "name": "getCollateralRate",
            "outputs": [
                {
                    "internalType": "uint256",
                    "name": "",
                    "type": "uint256"
                }
            ],
            "stateMutability": "view",
            "type": "function"
        },
        {
            "inputs": [
                {
                    "internalType": "address",
                    "name": "lostAddress",
                    "type": "address"
                }
            ],
            "name": "getCollateralType",
            "outputs": [
                {
                    "internalType": "address",
                    "name": "",
                    "type": "address"
                }
            ],
            "stateMutability": "view",
            "type": "function"
        },
        {
            "inputs": [
                {
                    "internalType": "address",
                    "name": "lostAddress",
                    "type": "address"
                }
            ],
            "name": "getTimeStamp",
            "outputs": [
                {
                    "internalType": "uint256",
                    "name": "",
                    "type": "uint256"
                }
            ],
            "stateMutability": "view",
            "type": "function"
        },
        {
            "inputs": [],
            "name": "invalidTokens",
            "outputs": [
                {
                    "internalType": "uint256",
                    "name": "",
                    "type": "uint256"
                }
            ],
            "stateMutability": "view",
            "type": "function"
        },
        {
            "inputs": [
                {
                    "internalType": "address",
                    "name": "target",
                    "type": "address"
                }
            ],
            "name": "isRecoveryEnabled",
            "outputs": [
                {
                    "internalType": "bool",
                    "name": "",
                    "type": "bool"
                }
            ],
            "stateMutability": "view",
            "type": "function"
        },
        {
            "inputs": [
                {
                    "internalType": "address",
                    "name": "shareholder",
                    "type": "address"
                },
                {
                    "internalType": "uint256",
                    "name": "_amount",
                    "type": "uint256"
                }
            ],
            "name": "mint",
            "outputs": [],
            "stateMutability": "nonpayable",
            "type": "function"
        },
        {
            "inputs": [
                {
                    "internalType": "address",
                    "name": "shareholder",
                    "type": "address"
                },
                {
                    "internalType": "address",
                    "name": "callee",
                    "type": "address"
                },
                {
                    "internalType": "uint256",
                    "name": "amount",
                    "type": "uint256"
                },
                {
                    "internalType": "bytes",
                    "name": "data",
                    "type": "bytes"
                }
            ],
            "name": "mintAndCall",
            "outputs": [],
            "stateMutability": "nonpayable",
            "type": "function"
        },
        {
            "inputs": [],
            "name": "name",
            "outputs": [
                {
                    "internalType": "string",
                    "name": "",
                    "type": "string"
                }
            ],
            "stateMutability": "view",
            "type": "function"
        },
        {
            "inputs": [],
            "name": "owner",
            "outputs": [
                {
                    "internalType": "address",
                    "name": "",
                    "type": "address"
                }
            ],
            "stateMutability": "view",
            "type": "function"
        },
        {
            "inputs": [
                {
                    "internalType": "address",
                    "name": "contractAddress",
                    "type": "address"
                }
            ],
            "name": "recognizeSubRegister",
            "outputs": [],
            "stateMutability": "nonpayable",
            "type": "function"
        },
        {
            "inputs": [
                {
                    "internalType": "address",
                    "name": "lostAddress",
                    "type": "address"
                }
            ],
            "name": "recover",
            "outputs": [],
            "stateMutability": "nonpayable",
            "type": "function"
        },
        {
            "inputs": [
                {
                    "internalType": "address",
                    "name": "",
                    "type": "address"
                }
            ],
            "name": "recoveryDisabled",
            "outputs": [
                {
                    "internalType": "bool",
                    "name": "",
                    "type": "bool"
                }
            ],
            "stateMutability": "view",
            "type": "function"
        },
        {
            "inputs": [
                {
                    "internalType": "address",
                    "name": "collateral",
                    "type": "address"
                },
                {
                    "internalType": "uint256",
                    "name": "rate",
                    "type": "uint256"
                }
            ],
            "name": "setCustomClaimCollateral",
            "outputs": [],
            "stateMutability": "nonpayable",
            "type": "function"
        },
        {
            "inputs": [
                {
                    "internalType": "string",
                    "name": "_symbol",
                    "type": "string"
                },
                {
                    "internalType": "string",
                    "name": "_name",
                    "type": "string"
                }
            ],
            "name": "setName",
            "outputs": [],
            "stateMutability": "nonpayable",
            "type": "function"
        },
        {
            "inputs": [
                {
                    "internalType": "bool",
                    "name": "enabled",
                    "type": "bool"
                }
            ],
            "name": "setRecoverable",
            "outputs": [],
            "stateMutability": "nonpayable",
            "type": "function"
        },
        {
            "inputs": [
                {
                    "internalType": "string",
                    "name": "_terms",
                    "type": "string"
                }
            ],
            "name": "setTerms",
            "outputs": [],
            "stateMutability": "nonpayable",
            "type": "function"
        },
        {
            "inputs": [
                {
                    "internalType": "uint256",
                    "name": "_newTotalShares",
                    "type": "uint256"
                }
            ],
            "name": "setTotalShares",
            "outputs": [],
            "stateMutability": "nonpayable",
            "type": "function"
        },
        {
            "inputs": [],
            "name": "symbol",
            "outputs": [
                {
                    "internalType": "string",
                    "name": "",
                    "type": "string"
                }
            ],
            "stateMutability": "view",
            "type": "function"
        },
        {
            "inputs": [],
            "name": "terms",
            "outputs": [
                {
                    "internalType": "string",
                    "name": "",
                    "type": "string"
                }
            ],
            "stateMutability": "view",
            "type": "function"
        },
        {
            "inputs": [],
            "name": "totalShares",
            "outputs": [
                {
                    "internalType": "uint256",
                    "name": "",
                    "type": "uint256"
                }
            ],
            "stateMutability": "view",
            "type": "function"
        },
        {
            "inputs": [],
            "name": "totalSupply",
            "outputs": [
                {
                    "internalType": "uint256",
                    "name": "",
                    "type": "uint256"
                }
            ],
            "stateMutability": "view",
            "type": "function"
        },
        {
            "inputs": [],
            "name": "totalValidSupply",
            "outputs": [
                {
                    "internalType": "uint256",
                    "name": "",
                    "type": "uint256"
                }
            ],
            "stateMutability": "view",
            "type": "function"
        },
        {
            "inputs": [
                {
                    "internalType": "address",
                    "name": "recipient",
                    "type": "address"
                },
                {
                    "internalType": "uint256",
                    "name": "amount",
                    "type": "uint256"
                }
            ],
            "name": "transfer",
            "outputs": [
                {
                    "internalType": "bool",
                    "name": "",
                    "type": "bool"
                }
            ],
            "stateMutability": "nonpayable",
            "type": "function"
        },
        {
            "inputs": [
                {
                    "internalType": "address",
                    "name": "recipient",
                    "type": "address"
                },
                {
                    "internalType": "uint256",
                    "name": "amount",
                    "type": "uint256"
                },
                {
                    "internalType": "bytes",
                    "name": "data",
                    "type": "bytes"
                }
            ],
            "name": "transferAndCall",
            "outputs": [
                {
                    "internalType": "bool",
                    "name": "",
                    "type": "bool"
                }
            ],
            "stateMutability": "nonpayable",
            "type": "function"
        },
        {
            "inputs": [
                {
                    "internalType": "address",
                    "name": "sender",
                    "type": "address"
                },
                {
                    "internalType": "address",
                    "name": "recipient",
                    "type": "address"
                },
                {
                    "internalType": "uint256",
                    "name": "amount",
                    "type": "uint256"
                }
            ],
            "name": "transferFrom",
            "outputs": [
                {
                    "internalType": "bool",
                    "name": "",
                    "type": "bool"
                }
            ],
            "stateMutability": "nonpayable",
            "type": "function"
        },
        {
            "inputs": [
                {
                    "internalType": "address",
                    "name": "newOwner",
                    "type": "address"
                }
            ],
            "name": "transferOwnership",
            "outputs": [],
            "stateMutability": "nonpayable",
            "type": "function"
        }
    ],
    "bytecode": "60806040526000600c556000600d553480156200001b57600080fd5b5060405162002755380380620027558339810160408190526200003e9162000244565b6003805460ff19169055600880546001600160a01b0319166001600160a01b0383169081179091556040518291906000907f8be0079c531659141344cd1fd0a4f28419497f9722a3daafe3b4186f6b6457e0908290a3508451620000aa90600a906020880190620000e7565b508351620000c0906009906020870190620000e7565b50600c8290558251620000db90600b906020860190620000e7565b50505050505062000356565b828054620000f59062000303565b90600052602060002090601f01602090048101928262000119576000855562000164565b82601f106200013457805160ff191683800117855562000164565b8280016001018555821562000164579182015b828111156200016457825182559160200191906001019062000147565b506200017292915062000176565b5090565b5b8082111562000172576000815560010162000177565b600082601f8301126200019f57600080fd5b81516001600160401b0380821115620001bc57620001bc62000340565b604051601f8301601f19908116603f01168101908282118183101715620001e757620001e762000340565b816040528381526020925086838588010111156200020457600080fd5b600091505b8382101562000228578582018301518183018401529082019062000209565b838211156200023a5760008385830101525b9695505050505050565b600080600080600060a086880312156200025d57600080fd5b85516001600160401b03808211156200027557600080fd5b6200028389838a016200018d565b965060208801519150808211156200029a57600080fd5b620002a889838a016200018d565b95506040880151915080821115620002bf57600080fd5b50620002ce888289016200018d565b60608801516080890151919550935090506001600160a01b0381168114620002f557600080fd5b809150509295509295909350565b600181811c908216806200031857607f821691505b602082108114156200033a57634e487b7160e01b600052602260045260246000fd5b50919050565b634e487b7160e01b600052604160045260246000fd5b6123ef80620003666000396000f3fe608060405234801561001057600080fd5b50600436106102695760003560e01c80636091811711610151578063a77384c1116100c3578063cc51e14311610087578063cc51e14314610627578063d50256251461063a578063dd62ed3e14610642578063eb470ebf1461067b578063f2fde38b146106a7578063f54fc060146106ba57600080fd5b8063a77384c114610567578063a9059cbb1461057a578063b0d04c7a1461058d578063b40e80d114610595578063c6788bdd146105b857600080fd5b806378f86afc1161011557806378f86afc146104d65780637dc2cd98146104e95780638da5cb5b146104f357806395d89b41146105065780639b56d6c91461050e578063a3ec18831461053a57600080fd5b8063609181171461045c5780636427ed97146104655780636b03ed5f1461049257806370a082311461049a57806377e071ad146104c357600080fd5b8063313ce567116101ea5780633bcc45ba116101ae5780633bcc45ba146103ce5780634000aea0146103fd57806340c10f191461041057806342966c68146104235780635c707f07146104365780635d6624b71461044957600080fd5b8063313ce5671461037757806332a7ae951461039657806337a8129c146103a95780633a1cdf32146103b25780633a98ef39146103c557600080fd5b80631e3b9de5116102315780631e3b9de5146103015780631f0f06aa1461032d57806323b872dd1461034057806326773ddd146103535780632a0a4ed51461036657600080fd5b806306fdde031461026e578063095ea7b31461028c5780630c6f0e5d146102af5780630cd865ec146102da57806318160ddd146102ef575b600080fd5b6102766106cd565b604051610283919061224f565b60405180910390f35b61029f61029a366004612022565b61075b565b6040519015158152602001610283565b6006546102c2906001600160a01b031681565b6040516001600160a01b039091168152602001610283565b6102ed6102e8366004611ef4565b610771565b005b6002545b604051908152602001610283565b6102c261030f366004611ef4565b6001600160a01b039081166000908152600460205260409020541690565b6102ed61033b3660046120e4565b6109e2565b61029f61034e366004611f6e565b610ac2565b6102ed610361366004611f35565b610b1e565b6008546001600160a01b03166102c2565b6003546103849060ff1681565b60405160ff9091168152602001610283565b6102ed6103a4366004611ef4565b610dd1565b6102f3600d5481565b6102ed6103c0366004612022565b610fd8565b6102f3600c5481565b6102c26103dc366004611ef4565b6001600160a01b039081166000908152600460205260409020600301541690565b61029f61040b36600461204e565b611089565b6102ed61041e366004612022565b61112e565b6102ed6104313660046121c7565b6111db565b6102ed610444366004612163565b611252565b6102ed61045736600461204e565b611321565b6102f360075481565b6102ed6104733660046120aa565b336000908152600560205260409020805460ff19169115919091179055565b6102ed61144f565b6102f36104a8366004611ef4565b6001600160a01b031660009081526020819052604090205490565b6102f36104d1366004611ef4565b61156e565b6102ed6104e4366004612126565b6115af565b6102f362ed4e0081565b6008546102c2906001600160a01b031681565b610276611665565b6102f361051c366004611ef4565b6001600160a01b031660009081526004602052604090206001015490565b61029f610548366004611ef4565b6001600160a01b031660009081526005602052604090205460ff161590565b6102ed6105753660046121c7565b611672565b61029f610588366004612022565b611760565b6102f361177d565b61029f6105a3366004611ef4565b60056020526000908152604090205460ff1681565b6105f86105c6366004611ef4565b60046020526000908152604090208054600182015460028301546003909301546001600160a01b039283169391921684565b604080516001600160a01b03958616815260208101949094528301919091529091166060820152608001610283565b6102ed610635366004611ef4565b61179a565b61027661187c565b6102f3610650366004611f35565b6001600160a01b03918216600090815260016020908152604080832093909416825291909152205490565b6102f3610689366004611ef4565b6001600160a01b031660009081526004602052604090206002015490565b6102ed6106b5366004611ef4565b611889565b6102ed6106c8366004611faf565b611988565b600980546106da9061232f565b80601f01602080910402602001604051908101604052809291908181526020018280546107069061232f565b80156107535780601f1061072857610100808354040283529160200191610753565b820191906000526020600020905b81548152906001019060200180831161073657829003601f168201915b505050505081565b6000610768338484611a1e565b50600192915050565b6001600160a01b03808216600090815260046020908152604091829020825160808101845281548516815260018201549281018390526002820154938101939093526003015490921660608201819052909190816108025760405162461bcd60e51b81526020600482015260096024820152681b9bdd08199bdd5b9960ba1b60448201526064015b60405180910390fd5b82516001600160a01b0316331461084a5760405162461bcd60e51b815260206004820152600c60248201526b1b9bdd0818db185a5b585b9d60a21b60448201526064016107f9565b4262ed4e00846040015161085e91906122e1565b11156108985760405162461bcd60e51b8152602060048201526009602482015268746f6f206561726c7960b81b60448201526064016107f9565b82516001600160a01b03858116600090815260046020819052604080832080546001600160a01b031990811682556001820185905560028201949094556003018054909316909255905163a9059cbb60e01b815282841691810191909152602481018590529083169063a9059cbb90604401602060405180830381600087803b15801561092457600080fd5b505af1158015610938573d6000803e3d6000fd5b505050506040513d601f19601f8201168201806040525081019061095c91906120c7565b61096557600080fd5b61098e8582610989886001600160a01b031660009081526020819052604090205490565b611a77565b806001600160a01b0316856001600160a01b03167f52a5c2b28bc6eb9712d0ced43463103b486b13ccc9cda499fd3b2d7b6a74a8ee856040516109d391815260200190565b60405180910390a35050505050565b336001600160a01b0316306001600160a01b0316638da5cb5b6040518163ffffffff1660e01b8152600401602060405180830381600087803b158015610a2757600080fd5b505af1158015610a3b573d6000803e3d6000fd5b505050506040513d601f19601f82011682018060405250810190610a5f9190611f18565b6001600160a01b031614610a855760405162461bcd60e51b81526004016107f9906122a4565b7f07ce702fc13ca0620c174dab22996a6d5fd9e7accb663555a4e85323692706ba8282604051610ab692919061223b565b60405180910390a15050565b6000610acf848484611a77565b6001600160a01b0384166000908152600160209081526040808320338452909152902054600160ff1b811015610b1357610b138533610b0e8685612318565b611a1e565b506001949350505050565b6001600160a01b03811660009081526005602052604090205460ff1615610b725760405162461bcd60e51b8152602060048201526008602482015267191a5cd8589b195960c21b60448201526064016107f9565b6000610b7d8361156e565b905060008111610bc05760405162461bcd60e51b815260206004820152600e60248201526d1898590818dbdb1b185d195c985b60921b60448201526064016107f9565b336000610be2846001600160a01b031660009081526020819052604090205490565b90506000610bf084836122f9565b90508582610c285760405162461bcd60e51b8152602060048201526005602482015264656d70747960d81b60448201526064016107f9565b6001600160a01b03861660009081526004602052604090206001015415610c835760405162461bcd60e51b815260206004820152600f60248201526e185b1c9958591e4818db185a5b5959608a1b60448201526064016107f9565b6040516323b872dd60e01b81526001600160a01b038581166004830152306024830152604482018490528216906323b872dd90606401602060405180830381600087803b158015610cd357600080fd5b505af1158015610ce7573d6000803e3d6000fd5b505050506040513d601f19601f82011682018060405250810190610d0b91906120c7565b610d1457600080fd5b604080516080810182526001600160a01b038087168083526020808401878152428587019081528d8516606087019081528d86166000818152600490955293889020965187549087166001600160a01b0319918216178855925160018801559051600287015551600390950180549590941694169390931790915591517f1982ca8958fc8a8176cb52be509260f4bc5af7ce04e1533711793f1c56dd535990610dc09087815260200190565b60405180910390a350505050505050565b6008546001600160a01b03163314610e175760405162461bcd60e51b81526020600482015260096024820152686e6f2061636365737360b81b60448201526064016107f9565b6001600160a01b038082166000908152600460209081526040918290208251608081018452815485168152600182015492810183905260028201549381019390935260030154909216606082018190529091610ea15760405162461bcd60e51b81526020600482015260096024820152681b9bdd08199bdd5b9960ba1b60448201526064016107f9565b6001600160a01b03808416600090815260046020818152604080842080546001600160a01b031990811682556001820186905560028201959095556003018054909416909355855190860151925163a9059cbb60e01b81529385169363a9059cbb93610f23939091016001600160a01b03929092168252602082015260400190565b602060405180830381600087803b158015610f3d57600080fd5b505af1158015610f51573d6000803e3d6000fd5b505050506040513d601f19601f82011682018060405250810190610f7591906120c7565b610f7e57600080fd5b81600001516001600160a01b0316836001600160a01b03167fbb036e629a9f4c0897ee5d48440dfdb36f7e772117723a2ed603a6514244c2d58460200151604051610fcb91815260200190565b60405180910390a3505050565b336001600160a01b0316306001600160a01b0316638da5cb5b6040518163ffffffff1660e01b8152600401602060405180830381600087803b15801561101d57600080fd5b505af1158015611031573d6000803e3d6000fd5b505050506040513d601f19601f820116820180604052508101906110559190611f18565b6001600160a01b03161461107b5760405162461bcd60e51b81526004016107f9906122a4565b6110858282611b2b565b5050565b6000806110968686611760565b9050801561112557604051635260769b60e11b81526001600160a01b0387169063a4c0ed36906110d0903390899089908990600401612209565b602060405180830381600087803b1580156110ea57600080fd5b505af11580156110fe573d6000803e3d6000fd5b505050506040513d601f19601f8201168201806040525081019061112291906120c7565b90505b95945050505050565b336001600160a01b0316306001600160a01b0316638da5cb5b6040518163ffffffff1660e01b8152600401602060405180830381600087803b15801561117357600080fd5b505af1158015611187573d6000803e3d6000fd5b505050506040513d601f19601f820116820180604052508101906111ab9190611f18565b6001600160a01b0316146111d15760405162461bcd60e51b81526004016107f9906122a4565b6110858282611bd5565b3360009081526020819052604090205481111561123a5760405162461bcd60e51b815260206004820152601b60248201527f4e6f7420656e6f7567682073686172657320617661696c61626c65000000000060448201526064016107f9565b611245333083611a77565b61124f3082611c59565b50565b336001600160a01b0316306001600160a01b0316638da5cb5b6040518163ffffffff1660e01b8152600401602060405180830381600087803b15801561129757600080fd5b505af11580156112ab573d6000803e3d6000fd5b505050506040513d601f19601f820116820180604052508101906112cf9190611f18565b6001600160a01b0316146112f55760405162461bcd60e51b81526004016107f9906122a4565b815161130890600a906020850190611d85565b50805161131c906009906020840190611d85565b505050565b336001600160a01b0316306001600160a01b0316638da5cb5b6040518163ffffffff1660e01b8152600401602060405180830381600087803b15801561136657600080fd5b505af115801561137a573d6000803e3d6000fd5b505050506040513d601f19601f8201168201806040525081019061139e9190611f18565b6001600160a01b0316146113c45760405162461bcd60e51b81526004016107f9906122a4565b6001600160a01b038416600090815260208190526040902054808411156113ea57600080fd5b83600d60008282546113fc91906122e1565b92505081905550846001600160a01b03167f0a605cd1294f60fa3b73548ac68428f33300a051f225afcdcc75e56083c96ee7858585604051611440939291906122c7565b60405180910390a25050505050565b336000908152600460205260409020600101541561156c5733600081815260046020819052604080832060018101805460038301805484546001600160a01b0319908116865593889055600290940196909655908216909455905163a9059cbb60e01b8152918201939093526024810182905290916001600160a01b031690819063a9059cbb90604401602060405180830381600087803b1580156114f357600080fd5b505af1158015611507573d6000803e3d6000fd5b505050506040513d601f19601f8201168201806040525081019061152b91906120c7565b61153457600080fd5b60405182815233907f203627483d943880619f4b7e0cca21dbefd6204b4d85b124eb99540e17ba86dd9060200160405180910390a250505b565b60006001600160a01b03821630141561158957506001919050565b6006546001600160a01b03838116911614156115a757505060075490565b506000919050565b336001600160a01b0316306001600160a01b0316638da5cb5b6040518163ffffffff1660e01b8152600401602060405180830381600087803b1580156115f457600080fd5b505af1158015611608573d6000803e3d6000fd5b505050506040513d601f19601f8201168201806040525081019061162c9190611f18565b6001600160a01b0316146116525760405162461bcd60e51b81526004016107f9906122a4565b805161108590600b906020840190611d85565b600a80546106da9061232f565b336001600160a01b0316306001600160a01b0316638da5cb5b6040518163ffffffff1660e01b8152600401602060405180830381600087803b1580156116b757600080fd5b505af11580156116cb573d6000803e3d6000fd5b505050506040513d601f19601f820116820180604052508101906116ef9190611f18565b6001600160a01b0316146117155760405162461bcd60e51b81526004016107f9906122a4565b61171d61177d565b81101561175b5760405162461bcd60e51b815260206004820152600c60248201526b62656c6f7720737570706c7960a01b60448201526064016107f9565b600c55565b600061176c8383611ce3565b61177557600080fd5b61076861144f565b6000600d5461178b60025490565b6117959190612318565b905090565b336001600160a01b0316306001600160a01b0316638da5cb5b6040518163ffffffff1660e01b8152600401602060405180830381600087803b1580156117df57600080fd5b505af11580156117f3573d6000803e3d6000fd5b505050506040513d601f19601f820116820180604052508101906118179190611f18565b6001600160a01b03161461183d5760405162461bcd60e51b81526004016107f9906122a4565b6040516001600160a01b03821681527f6563ed86749f41d6f22086ebb321adce1e55ec5333f6bba7d83659510c49b73c9060200160405180910390a150565b600b80546106da9061232f565b336001600160a01b0316306001600160a01b0316638da5cb5b6040518163ffffffff1660e01b8152600401602060405180830381600087803b1580156118ce57600080fd5b505af11580156118e2573d6000803e3d6000fd5b505050506040513d601f19601f820116820180604052508101906119069190611f18565b6001600160a01b03161461192c5760405162461bcd60e51b81526004016107f9906122a4565b6008546040516001600160a01b038084169216907f8be0079c531659141344cd1fd0a4f28419497f9722a3daafe3b4186f6b6457e090600090a3600880546001600160a01b0319166001600160a01b0392909216919091179055565b611992848461112e565b604051635260769b60e11b81526001600160a01b0385169063a4c0ed36906119c4908890879087908790600401612209565b602060405180830381600087803b1580156119de57600080fd5b505af11580156119f2573d6000803e3d6000fd5b505050506040513d601f19601f82011682018060405250810190611a1691906120c7565b505050505050565b6001600160a01b0383811660008181526001602090815260408083209487168084529482529182902085905590518481527f8c5be1e5ebec7d5bd14f71427d1e84f3dd0314c0f7b2291e5b200ac8c7c3b9259101610fcb565b6001600160a01b038216611a8a57600080fd5b6001600160a01b03831660009081526020819052604081208054839290611ab2908490612318565b90915550506001600160a01b03821660009081526020819052604081208054839290611adf9084906122e1565b92505081905550816001600160a01b0316836001600160a01b03167fddf252ad1be2c89b69c2b068fc378daa952ba7f163c4a11628f55a4df523b3ef83604051610fcb91815260200190565b600680546001600160a01b0319166001600160a01b038416908117909155611b57576000600755611b96565b60008111611b905760405162461bcd60e51b81526004016107f9906020808252600490820152637a65726f60e01b604082015260600190565b60078190555b604080516001600160a01b0384168152602081018390527f94238858463adf0fecc0e064844831a54bccf8467c86f0b93d2a9508e05968539101610ab6565b600c5481611be161177d565b611beb91906122e1565b1115611c4f5760405162461bcd60e51b815260206004820152602d60248201527f54686572652063616e277420626520666577657220736861726573207468616e60448201526c2076616c696420746f6b656e7360981b60648201526084016107f9565b6110858282611cf0565b8060026000828254611c6b9190612318565b90915550506001600160a01b03821660009081526020819052604081208054839290611c98908490612318565b90915550506040518181526000906001600160a01b038416907fddf252ad1be2c89b69c2b068fc378daa952ba7f163c4a11628f55a4df523b3ef906020015b60405180910390a35050565b6000610768338484611a77565b6001600160a01b038216611d0357600080fd5b8060026000828254611d1591906122e1565b90915550506001600160a01b03821660009081526020819052604081208054839290611d429084906122e1565b90915550506040518181526001600160a01b038316906000907fddf252ad1be2c89b69c2b068fc378daa952ba7f163c4a11628f55a4df523b3ef90602001611cd7565b828054611d919061232f565b90600052602060002090601f016020900481019282611db35760008555611df9565b82601f10611dcc57805160ff1916838001178555611df9565b82800160010185558215611df9579182015b82811115611df9578251825591602001919060010190611dde565b50611e05929150611e09565b5090565b5b80821115611e055760008155600101611e0a565b60008083601f840112611e3057600080fd5b50813567ffffffffffffffff811115611e4857600080fd5b602083019150836020828501011115611e6057600080fd5b9250929050565b600082601f830112611e7857600080fd5b813567ffffffffffffffff80821115611e9357611e93612380565b604051601f8301601f19908116603f01168101908282118183101715611ebb57611ebb612380565b81604052838152866020858801011115611ed457600080fd5b836020870160208301376000602085830101528094505050505092915050565b600060208284031215611f0657600080fd5b8135611f1181612396565b9392505050565b600060208284031215611f2a57600080fd5b8151611f1181612396565b60008060408385031215611f4857600080fd5b8235611f5381612396565b91506020830135611f6381612396565b809150509250929050565b600080600060608486031215611f8357600080fd5b8335611f8e81612396565b92506020840135611f9e81612396565b929592945050506040919091013590565b600080600080600060808688031215611fc757600080fd5b8535611fd281612396565b94506020860135611fe281612396565b935060408601359250606086013567ffffffffffffffff81111561200557600080fd5b61201188828901611e1e565b969995985093965092949392505050565b6000806040838503121561203557600080fd5b823561204081612396565b946020939093013593505050565b6000806000806060858703121561206457600080fd5b843561206f81612396565b935060208501359250604085013567ffffffffffffffff81111561209257600080fd5b61209e87828801611e1e565b95989497509550505050565b6000602082840312156120bc57600080fd5b8135611f11816123ab565b6000602082840312156120d957600080fd5b8151611f11816123ab565b600080602083850312156120f757600080fd5b823567ffffffffffffffff81111561210e57600080fd5b61211a85828601611e1e565b90969095509350505050565b60006020828403121561213857600080fd5b813567ffffffffffffffff81111561214f57600080fd5b61215b84828501611e67565b949350505050565b6000806040838503121561217657600080fd5b823567ffffffffffffffff8082111561218e57600080fd5b61219a86838701611e67565b935060208501359150808211156121b057600080fd5b506121bd85828601611e67565b9150509250929050565b6000602082840312156121d957600080fd5b5035919050565b81835281816020850137506000828201602090810191909152601f909101601f19169091010190565b60018060a01b03851681528360208201526060604082015260006122316060830184866121e0565b9695505050505050565b60208152600061215b6020830184866121e0565b600060208083528351808285015260005b8181101561227c57858101830151858201604001528201612260565b8181111561228e576000604083870101525b50601f01601f1916929092016040019392505050565b6020808252600990820152683737ba1037bbb732b960b91b604082015260600190565b8381526040602082015260006111256040830184866121e0565b600082198211156122f4576122f461236a565b500190565b60008160001904831182151516156123135761231361236a565b500290565b60008282101561232a5761232a61236a565b500390565b600181811c9082168061234357607f821691505b6020821081141561236457634e487b7160e01b600052602260045260246000fd5b50919050565b634e487b7160e01b600052601160045260246000fd5b634e487b7160e01b600052604160045260246000fd5b6001600160a01b038116811461124f57600080fd5b801515811461124f57600080fdfea26469706673582212204733804595b0f6c761538a018d2130db5986a984d0dcc796bf18495d469205e064736f6c63430008060033",
    "sourcePath": "c:/Users/luziu/Documents/GitHub/contracts/src/Shares.sol",
    "compiler": {
        "name": "solc",
        "version": "0.8.6+commit.11564f7e"
    },
    "functionHashes": {
        "allowance(address,address)": "dd62ed3e",
        "announcement(string)": "1f0f06aa",
        "approve(address,uint256)": "095ea7b3",
        "balanceOf(address)": "70a08231",
        "burn(uint256)": "42966c68",
        "claimPeriod()": "7dc2cd98",
        "claims(address)": "c6788bdd",
        "clearClaim()": "6b03ed5f",
        "customCollateralAddress()": "0c6f0e5d",
        "customCollateralRate()": "60918117",
        "decimals()": "313ce567",
        "declareInvalid(address,uint256,string)": "5d6624b7",
        "declareLost(address,address)": "26773ddd",
        "deleteClaim(address)": "32a7ae95",
        "getClaimDeleter()": "2a0a4ed5",
        "getClaimant(address)": "1e3b9de5",
        "getCollateral(address)": "9b56d6c9",
        "getCollateralRate(address)": "77e071ad",
        "getCollateralType(address)": "3bcc45ba",
        "getTimeStamp(address)": "eb470ebf",
        "invalidTokens()": "37a8129c",
        "isRecoveryEnabled(address)": "a3ec1883",
        "mint(address,uint256)": "40c10f19",
        "mintAndCall(address,address,uint256,bytes)": "f54fc060",
        "name()": "06fdde03",
        "owner()": "8da5cb5b",
        "recognizeSubRegister(address)": "cc51e143",
        "recover(address)": "0cd865ec",
        "recoveryDisabled(address)": "b40e80d1",
        "setCustomClaimCollateral(address,uint256)": "3a1cdf32",
        "setName(string,string)": "5c707f07",
        "setRecoverable(bool)": "6427ed97",
        "setTerms(string)": "78f86afc",
        "setTotalShares(uint256)": "a77384c1",
        "symbol()": "95d89b41",
        "terms()": "d5025625",
        "totalShares()": "3a98ef39",
        "totalSupply()": "18160ddd",
        "totalValidSupply()": "b0d04c7a",
        "transfer(address,uint256)": "a9059cbb",
        "transferAndCall(address,uint256,bytes)": "4000aea0",
        "transferFrom(address,address,uint256)": "23b872dd",
        "transferOwnership(address)": "f2fde38b"
    },
    "gasEstimates": {
        "creation": {
            "codeDepositCost": "1839800",
            "executionCost": "infinite",
            "totalCost": "infinite"
        },
        "external": {
            "allowance(address,address)": "infinite",
            "announcement(string)": "infinite",
            "approve(address,uint256)": "24601",
            "balanceOf(address)": "2646",
            "burn(uint256)": "infinite",
            "claimPeriod()": "262",
            "claims(address)": "9108",
            "clearClaim()": "infinite",
            "customCollateralAddress()": "2428",
            "customCollateralRate()": "2341",
            "decimals()": "2359",
            "declareInvalid(address,uint256,string)": "infinite",
            "declareLost(address,address)": "infinite",
            "deleteClaim(address)": "infinite",
            "getClaimDeleter()": "2465",
            "getClaimant(address)": "2607",
            "getCollateral(address)": "2670",
            "getCollateralRate(address)": "4795",
            "getCollateralType(address)": "2612",
            "getTimeStamp(address)": "2647",
            "invalidTokens()": "2385",
            "isRecoveryEnabled(address)": "2701",
            "mint(address,uint256)": "infinite",
            "mintAndCall(address,address,uint256,bytes)": "infinite",
            "name()": "infinite",
            "owner()": "2426",
            "recognizeSubRegister(address)": "infinite",
            "recover(address)": "infinite",
            "recoveryDisabled(address)": "2636",
            "setCustomClaimCollateral(address,uint256)": "infinite",
            "setName(string,string)": "infinite",
            "setRecoverable(bool)": "24644",
            "setTerms(string)": "infinite",
            "setTotalShares(uint256)": "infinite",
            "symbol()": "infinite",
            "terms()": "infinite",
            "totalShares()": "2429",
            "totalSupply()": "2416",
            "totalValidSupply()": "4589",
            "transfer(address,uint256)": "infinite",
            "transferAndCall(address,uint256,bytes)": "infinite",
            "transferFrom(address,address,uint256)": "infinite",
            "transferOwnership(address)": "infinite"
        },
        "internal": {
            "_mint(address,uint256)": "infinite"
        }
    }
}