{
    "contractName": "SharesWithPredecessor",
    "abi": [
        {
            "inputs": [
                {
                    "internalType": "address",
                    "name": "_predecessor",
                    "type": "address"
                },
                {
                    "internalType": "string",
                    "name": "_symbol",
                    "type": "string"
                },
                {
                    "internalType": "string",
                    "name": "_name",
                    "type": "string"
                },
                {
                    "internalType": "string",
                    "name": "_terms",
                    "type": "string"
                },
                {
                    "internalType": "uint256",
                    "name": "_totalShares",
                    "type": "uint256"
                }
            ],
            "stateMutability": "nonpayable",
            "type": "constructor"
        },
        {
            "anonymous": false,
            "inputs": [
                {
                    "indexed": false,
                    "internalType": "string",
                    "name": "message",
                    "type": "string"
                }
            ],
            "name": "Announcement",
            "type": "event"
        },
        {
            "anonymous": false,
            "inputs": [
                {
                    "indexed": true,
                    "internalType": "address",
                    "name": "owner",
                    "type": "address"
                },
                {
                    "indexed": true,
                    "internalType": "address",
                    "name": "spender",
                    "type": "address"
                },
                {
                    "indexed": false,
                    "internalType": "uint256",
                    "name": "value",
                    "type": "uint256"
                }
            ],
            "name": "Approval",
            "type": "event"
        },
        {
            "anonymous": false,
            "inputs": [
                {
                    "indexed": true,
                    "internalType": "address",
                    "name": "lostAddress",
                    "type": "address"
                },
                {
                    "indexed": false,
                    "internalType": "uint256",
                    "name": "collateral",
                    "type": "uint256"
                }
            ],
            "name": "ClaimCleared",
            "type": "event"
        },
        {
            "anonymous": false,
            "inputs": [
                {
                    "indexed": true,
                    "internalType": "address",
                    "name": "lostAddress",
                    "type": "address"
                },
                {
                    "indexed": true,
                    "internalType": "address",
                    "name": "claimant",
                    "type": "address"
                },
                {
                    "indexed": false,
                    "internalType": "uint256",
                    "name": "collateral",
                    "type": "uint256"
                }
            ],
            "name": "ClaimDeleted",
            "type": "event"
        },
        {
            "anonymous": false,
            "inputs": [
                {
                    "indexed": true,
                    "internalType": "address",
                    "name": "lostAddress",
                    "type": "address"
                },
                {
                    "indexed": true,
                    "internalType": "address",
                    "name": "claimant",
                    "type": "address"
                },
                {
                    "indexed": false,
                    "internalType": "uint256",
                    "name": "balance",
                    "type": "uint256"
                }
            ],
            "name": "ClaimMade",
            "type": "event"
        },
        {
            "anonymous": false,
            "inputs": [
                {
                    "indexed": true,
                    "internalType": "address",
                    "name": "lostAddress",
                    "type": "address"
                },
                {
                    "indexed": true,
                    "internalType": "address",
                    "name": "claimant",
                    "type": "address"
                },
                {
                    "indexed": false,
                    "internalType": "uint256",
                    "name": "collateral",
                    "type": "uint256"
                }
            ],
            "name": "ClaimResolved",
            "type": "event"
        },
        {
            "anonymous": false,
            "inputs": [
                {
                    "indexed": false,
                    "internalType": "address",
                    "name": "newCustomCollateralAddress",
                    "type": "address"
                },
                {
                    "indexed": false,
                    "internalType": "uint256",
                    "name": "newCustomCollareralRate",
                    "type": "uint256"
                }
            ],
            "name": "CustomClaimCollateralChanged",
            "type": "event"
        },
        {
            "anonymous": false,
            "inputs": [
                {
                    "indexed": true,
                    "internalType": "address",
                    "name": "previousOwner",
                    "type": "address"
                },
                {
                    "indexed": true,
                    "internalType": "address",
                    "name": "newOwner",
                    "type": "address"
                }
            ],
            "name": "OwnershipTransferred",
            "type": "event"
        },
        {
            "anonymous": false,
            "inputs": [
                {
                    "indexed": true,
                    "internalType": "address",
                    "name": "holder",
                    "type": "address"
                },
                {
                    "indexed": false,
                    "internalType": "uint256",
                    "name": "firstInclusive",
                    "type": "uint256"
                },
                {
                    "indexed": false,
                    "internalType": "uint256",
                    "name": "lastInclusive",
                    "type": "uint256"
                }
            ],
            "name": "ShareNumberingEvent",
            "type": "event"
        },
        {
            "anonymous": false,
            "inputs": [
                {
                    "indexed": false,
                    "internalType": "address",
                    "name": "contractAddress",
                    "type": "address"
                }
            ],
            "name": "SubRegisterAdded",
            "type": "event"
        },
        {
            "anonymous": false,
            "inputs": [
                {
                    "indexed": false,
                    "internalType": "address",
                    "name": "contractAddress",
                    "type": "address"
                }
            ],
            "name": "SubRegisterRemoved",
            "type": "event"
        },
        {
            "anonymous": false,
            "inputs": [
                {
                    "indexed": true,
                    "internalType": "address",
                    "name": "holder",
                    "type": "address"
                },
                {
                    "indexed": false,
                    "internalType": "uint256",
                    "name": "amount",
                    "type": "uint256"
                },
                {
                    "indexed": false,
                    "internalType": "string",
                    "name": "message",
                    "type": "string"
                }
            ],
            "name": "TokensDeclaredInvalid",
            "type": "event"
        },
        {
            "anonymous": false,
            "inputs": [
                {
                    "indexed": true,
                    "internalType": "address",
                    "name": "from",
                    "type": "address"
                },
                {
                    "indexed": true,
                    "internalType": "address",
                    "name": "to",
                    "type": "address"
                },
                {
                    "indexed": false,
                    "internalType": "uint256",
                    "name": "value",
                    "type": "uint256"
                }
            ],
            "name": "Transfer",
            "type": "event"
        },
        {
            "inputs": [
                {
                    "internalType": "address",
                    "name": "owner",
                    "type": "address"
                },
                {
                    "internalType": "address",
                    "name": "spender",
                    "type": "address"
                }
            ],
            "name": "allowance",
            "outputs": [
                {
                    "internalType": "uint256",
                    "name": "",
                    "type": "uint256"
                }
            ],
            "stateMutability": "view",
            "type": "function"
        },
        {
            "inputs": [
                {
                    "internalType": "string",
                    "name": "message",
                    "type": "string"
                }
            ],
            "name": "announcement",
            "outputs": [],
            "stateMutability": "nonpayable",
            "type": "function"
        },
        {
            "inputs": [
                {
                    "internalType": "address",
                    "name": "spender",
                    "type": "address"
                },
                {
                    "internalType": "uint256",
                    "name": "value",
                    "type": "uint256"
                }
            ],
            "name": "approve",
            "outputs": [
                {
                    "internalType": "bool",
                    "name": "",
                    "type": "bool"
                }
            ],
            "stateMutability": "nonpayable",
            "type": "function"
        },
        {
            "inputs": [
                {
                    "internalType": "address",
                    "name": "account",
                    "type": "address"
                }
            ],
            "name": "balanceOf",
            "outputs": [
                {
                    "internalType": "uint256",
                    "name": "",
                    "type": "uint256"
                }
            ],
            "stateMutability": "view",
            "type": "function"
        },
        {
            "inputs": [
                {
                    "internalType": "address",
                    "name": "holder",
                    "type": "address"
                }
            ],
            "name": "balanceOfDeep",
            "outputs": [
                {
                    "internalType": "uint256",
                    "name": "",
                    "type": "uint256"
                }
            ],
            "stateMutability": "view",
            "type": "function"
        },
        {
            "inputs": [
                {
                    "internalType": "uint256",
                    "name": "_amount",
                    "type": "uint256"
                }
            ],
            "name": "burn",
            "outputs": [],
            "stateMutability": "nonpayable",
            "type": "function"
        },
        {
            "inputs": [],
            "name": "claimPeriod",
            "outputs": [
                {
                    "internalType": "uint256",
                    "name": "",
                    "type": "uint256"
                }
            ],
            "stateMutability": "view",
            "type": "function"
        },
        {
            "inputs": [
                {
                    "internalType": "address",
                    "name": "",
                    "type": "address"
                }
            ],
            "name": "claims",
            "outputs": [
                {
                    "internalType": "address",
                    "name": "claimant",
                    "type": "address"
                },
                {
                    "internalType": "uint256",
                    "name": "collateral",
                    "type": "uint256"
                },
                {
                    "internalType": "uint256",
                    "name": "timestamp",
                    "type": "uint256"
                },
                {
                    "internalType": "address",
                    "name": "currencyUsed",
                    "type": "address"
                }
            ],
            "stateMutability": "view",
            "type": "function"
        },
        {
            "inputs": [],
            "name": "clearClaim",
            "outputs": [],
            "stateMutability": "nonpayable",
            "type": "function"
        },
        {
            "inputs": [
                {
                    "internalType": "address",
                    "name": "sender",
                    "type": "address"
                }
            ],
            "name": "convert1",
            "outputs": [],
            "stateMutability": "nonpayable",
            "type": "function"
        },
        {
            "inputs": [
                {
                    "internalType": "uint256",
                    "name": "balance",
                    "type": "uint256"
                }
            ],
            "name": "convert2",
            "outputs": [],
            "stateMutability": "nonpayable",
            "type": "function"
        },
        {
            "inputs": [
                {
                    "internalType": "address",
                    "name": "sender",
                    "type": "address"
                },
                {
                    "internalType": "uint256",
                    "name": "balance",
                    "type": "uint256"
                }
            ],
            "name": "convert3",
            "outputs": [],
            "stateMutability": "nonpayable",
            "type": "function"
        },
        {
            "inputs": [],
            "name": "convertOldShares",
            "outputs": [],
            "stateMutability": "nonpayable",
            "type": "function"
        },
        {
            "inputs": [],
            "name": "countSubregisters",
            "outputs": [
                {
                    "internalType": "uint256",
                    "name": "",
                    "type": "uint256"
                }
            ],
            "stateMutability": "view",
            "type": "function"
        },
        {
            "inputs": [],
            "name": "customCollateralAddress",
            "outputs": [
                {
                    "internalType": "address",
                    "name": "",
                    "type": "address"
                }
            ],
            "stateMutability": "view",
            "type": "function"
        },
        {
            "inputs": [],
            "name": "customCollateralRate",
            "outputs": [
                {
                    "internalType": "uint256",
                    "name": "",
                    "type": "uint256"
                }
            ],
            "stateMutability": "view",
            "type": "function"
        },
        {
            "inputs": [],
            "name": "decimals",
            "outputs": [
                {
                    "internalType": "uint8",
                    "name": "",
                    "type": "uint8"
                }
            ],
            "stateMutability": "view",
            "type": "function"
        },
        {
            "inputs": [
                {
                    "internalType": "address",
                    "name": "holder",
                    "type": "address"
                },
                {
                    "internalType": "uint256",
                    "name": "amount",
                    "type": "uint256"
                },
                {
                    "internalType": "string",
                    "name": "message",
                    "type": "string"
                }
            ],
            "name": "declareInvalid",
            "outputs": [],
            "stateMutability": "nonpayable",
            "type": "function"
        },
        {
            "inputs": [
                {
                    "internalType": "address",
                    "name": "collateralType",
                    "type": "address"
                },
                {
                    "internalType": "address",
                    "name": "lostAddress",
                    "type": "address"
                }
            ],
            "name": "declareLost",
            "outputs": [],
            "stateMutability": "nonpayable",
            "type": "function"
        },
        {
            "inputs": [
                {
                    "internalType": "address",
                    "name": "lostAddress",
                    "type": "address"
                }
            ],
            "name": "deleteClaim",
            "outputs": [],
            "stateMutability": "nonpayable",
            "type": "function"
        },
        {
            "inputs": [],
            "name": "getClaimDeleter",
            "outputs": [
                {
                    "internalType": "address",
                    "name": "",
                    "type": "address"
                }
            ],
            "stateMutability": "view",
            "type": "function"
        },
        {
            "inputs": [
                {
                    "internalType": "address",
                    "name": "lostAddress",
                    "type": "address"
                }
            ],
            "name": "getClaimant",
            "outputs": [
                {
                    "internalType": "address",
                    "name": "",
                    "type": "address"
                }
            ],
            "stateMutability": "view",
            "type": "function"
        },
        {
            "inputs": [
                {
                    "internalType": "address",
                    "name": "lostAddress",
                    "type": "address"
                }
            ],
            "name": "getCollateral",
            "outputs": [
                {
                    "internalType": "uint256",
                    "name": "",
                    "type": "uint256"
                }
            ],
            "stateMutability": "view",
            "type": "function"
        },
        {
            "inputs": [
                {
                    "internalType": "address",
                    "name": "collateralType",
                    "type": "address"
                }
            ],
            "name": "getCollateralRate",
            "outputs": [
                {
                    "internalType": "uint256",
                    "name": "",
                    "type": "uint256"
                }
            ],
            "stateMutability": "view",
            "type": "function"
        },
        {
            "inputs": [
                {
                    "internalType": "address",
                    "name": "lostAddress",
                    "type": "address"
                }
            ],
            "name": "getCollateralType",
            "outputs": [
                {
                    "internalType": "address",
                    "name": "",
                    "type": "address"
                }
            ],
            "stateMutability": "view",
            "type": "function"
        },
        {
            "inputs": [
                {
                    "internalType": "address",
                    "name": "lostAddress",
                    "type": "address"
                }
            ],
            "name": "getTimeStamp",
            "outputs": [
                {
                    "internalType": "uint256",
                    "name": "",
                    "type": "uint256"
                }
            ],
            "stateMutability": "view",
            "type": "function"
        },
        {
            "inputs": [],
            "name": "invalidTokens",
            "outputs": [
                {
                    "internalType": "uint256",
                    "name": "",
                    "type": "uint256"
                }
            ],
            "stateMutability": "view",
            "type": "function"
        },
        {
            "inputs": [
                {
                    "internalType": "address",
                    "name": "target",
                    "type": "address"
                }
            ],
            "name": "isRecoveryEnabled",
            "outputs": [
                {
                    "internalType": "bool",
                    "name": "",
                    "type": "bool"
                }
            ],
            "stateMutability": "view",
            "type": "function"
        },
        {
            "inputs": [
                {
                    "internalType": "address",
                    "name": "shareholder",
                    "type": "address"
                },
                {
                    "internalType": "uint256",
                    "name": "_amount",
                    "type": "uint256"
                }
            ],
            "name": "mint",
            "outputs": [],
            "stateMutability": "nonpayable",
            "type": "function"
        },
        {
            "inputs": [
                {
                    "internalType": "address",
                    "name": "shareholder",
                    "type": "address"
                },
                {
                    "internalType": "address",
                    "name": "callee",
                    "type": "address"
                },
                {
                    "internalType": "uint256",
                    "name": "amount",
                    "type": "uint256"
                },
                {
                    "internalType": "bytes",
                    "name": "data",
                    "type": "bytes"
                }
            ],
            "name": "mintAndCall",
            "outputs": [],
            "stateMutability": "nonpayable",
            "type": "function"
        },
        {
            "inputs": [
                {
                    "internalType": "address",
                    "name": "shareholder",
                    "type": "address"
                },
                {
                    "internalType": "uint256",
                    "name": "firstShareNumber",
                    "type": "uint256"
                },
                {
                    "internalType": "uint256",
                    "name": "lastShareNumber",
                    "type": "uint256"
                }
            ],
            "name": "mintNumbered",
            "outputs": [],
            "stateMutability": "nonpayable",
            "type": "function"
        },
        {
            "inputs": [
                {
                    "internalType": "address",
                    "name": "shareholder",
                    "type": "address"
                },
                {
                    "internalType": "address",
                    "name": "callee",
                    "type": "address"
                },
                {
                    "internalType": "uint256",
                    "name": "firstShareNumber",
                    "type": "uint256"
                },
                {
                    "internalType": "uint256",
                    "name": "lastShareNumber",
                    "type": "uint256"
                },
                {
                    "internalType": "bytes",
                    "name": "data",
                    "type": "bytes"
                }
            ],
            "name": "mintNumberedAndCall",
            "outputs": [],
            "stateMutability": "nonpayable",
            "type": "function"
        },
        {
            "inputs": [],
            "name": "name",
            "outputs": [
                {
                    "internalType": "string",
                    "name": "",
                    "type": "string"
                }
            ],
            "stateMutability": "view",
            "type": "function"
        },
        {
            "inputs": [],
            "name": "owner",
            "outputs": [
                {
                    "internalType": "address",
                    "name": "",
                    "type": "address"
                }
            ],
            "stateMutability": "view",
            "type": "function"
        },
        {
            "inputs": [
                {
                    "internalType": "address",
                    "name": "contractAddress",
                    "type": "address"
                }
            ],
            "name": "recognizeSubRegister",
            "outputs": [],
            "stateMutability": "nonpayable",
            "type": "function"
        },
        {
            "inputs": [
                {
                    "internalType": "address",
                    "name": "lostAddress",
                    "type": "address"
                }
            ],
            "name": "recover",
            "outputs": [],
            "stateMutability": "nonpayable",
            "type": "function"
        },
        {
            "inputs": [
                {
                    "internalType": "address",
                    "name": "",
                    "type": "address"
                }
            ],
            "name": "recoveryDisabled",
            "outputs": [
                {
                    "internalType": "bool",
                    "name": "",
                    "type": "bool"
                }
            ],
            "stateMutability": "view",
            "type": "function"
        },
        {
            "inputs": [
                {
                    "internalType": "address",
                    "name": "contractAddress",
                    "type": "address"
                }
            ],
            "name": "removeSubRegister",
            "outputs": [],
            "stateMutability": "nonpayable",
            "type": "function"
        },
        {
            "inputs": [
                {
                    "internalType": "address",
                    "name": "collateral",
                    "type": "address"
                },
                {
                    "internalType": "uint256",
                    "name": "rate",
                    "type": "uint256"
                }
            ],
            "name": "setCustomClaimCollateral",
            "outputs": [],
            "stateMutability": "nonpayable",
            "type": "function"
        },
        {
            "inputs": [
                {
                    "internalType": "string",
                    "name": "_symbol",
                    "type": "string"
                },
                {
                    "internalType": "string",
                    "name": "_name",
                    "type": "string"
                }
            ],
            "name": "setName",
            "outputs": [],
            "stateMutability": "nonpayable",
            "type": "function"
        },
        {
            "inputs": [
                {
                    "internalType": "bool",
                    "name": "enabled",
                    "type": "bool"
                }
            ],
            "name": "setRecoverable",
            "outputs": [],
            "stateMutability": "nonpayable",
            "type": "function"
        },
        {
            "inputs": [
                {
                    "internalType": "string",
                    "name": "_terms",
                    "type": "string"
                }
            ],
            "name": "setTerms",
            "outputs": [],
            "stateMutability": "nonpayable",
            "type": "function"
        },
        {
            "inputs": [
                {
                    "internalType": "uint256",
                    "name": "_newTotalShares",
                    "type": "uint256"
                }
            ],
            "name": "setTotalShares",
            "outputs": [],
            "stateMutability": "nonpayable",
            "type": "function"
        },
        {
            "inputs": [
                {
                    "internalType": "uint256",
                    "name": "",
                    "type": "uint256"
                }
            ],
            "name": "subregisters",
            "outputs": [
                {
                    "internalType": "address",
                    "name": "",
                    "type": "address"
                }
            ],
            "stateMutability": "view",
            "type": "function"
        },
        {
            "inputs": [],
            "name": "symbol",
            "outputs": [
                {
                    "internalType": "string",
                    "name": "",
                    "type": "string"
                }
            ],
            "stateMutability": "view",
            "type": "function"
        },
        {
            "inputs": [],
            "name": "terms",
            "outputs": [
                {
                    "internalType": "string",
                    "name": "",
                    "type": "string"
                }
            ],
            "stateMutability": "view",
            "type": "function"
        },
        {
            "inputs": [],
            "name": "totalShares",
            "outputs": [
                {
                    "internalType": "uint256",
                    "name": "",
                    "type": "uint256"
                }
            ],
            "stateMutability": "view",
            "type": "function"
        },
        {
            "inputs": [],
            "name": "totalSupply",
            "outputs": [
                {
                    "internalType": "uint256",
                    "name": "",
                    "type": "uint256"
                }
            ],
            "stateMutability": "view",
            "type": "function"
        },
        {
            "inputs": [],
            "name": "totalValidSupply",
            "outputs": [
                {
                    "internalType": "uint256",
                    "name": "",
                    "type": "uint256"
                }
            ],
            "stateMutability": "view",
            "type": "function"
        },
        {
            "inputs": [
                {
                    "internalType": "address",
                    "name": "recipient",
                    "type": "address"
                },
                {
                    "internalType": "uint256",
                    "name": "amount",
                    "type": "uint256"
                }
            ],
            "name": "transfer",
            "outputs": [
                {
                    "internalType": "bool",
                    "name": "",
                    "type": "bool"
                }
            ],
            "stateMutability": "nonpayable",
            "type": "function"
        },
        {
            "inputs": [
                {
                    "internalType": "address",
                    "name": "recipient",
                    "type": "address"
                },
                {
                    "internalType": "uint256",
                    "name": "amount",
                    "type": "uint256"
                },
                {
                    "internalType": "bytes",
                    "name": "data",
                    "type": "bytes"
                }
            ],
            "name": "transferAndCall",
            "outputs": [
                {
                    "internalType": "bool",
                    "name": "",
                    "type": "bool"
                }
            ],
            "stateMutability": "nonpayable",
            "type": "function"
        },
        {
            "inputs": [
                {
                    "internalType": "address",
                    "name": "sender",
                    "type": "address"
                },
                {
                    "internalType": "address",
                    "name": "recipient",
                    "type": "address"
                },
                {
                    "internalType": "uint256",
                    "name": "amount",
                    "type": "uint256"
                }
            ],
            "name": "transferFrom",
            "outputs": [
                {
                    "internalType": "bool",
                    "name": "",
                    "type": "bool"
                }
            ],
            "stateMutability": "nonpayable",
            "type": "function"
        },
        {
            "inputs": [
                {
                    "internalType": "address",
                    "name": "newOwner",
                    "type": "address"
                }
            ],
            "name": "transferOwnership",
            "outputs": [],
            "stateMutability": "nonpayable",
            "type": "function"
        }
    ],
    "bytecode": "60a06040526000600c556000600d553480156200001b57600080fd5b50604051620033e5380380620033e58339810160408190526200003e9162000365565b6003805460ff19169055600880546001600160a01b03191633179081905560405185918591859185916001600160a01b0391909116906000907f8be0079c531659141344cd1fd0a4f28419497f9722a3daafe3b4186f6b6457e0908290a3620000a88484620000eb565b620000b381620001ab565b8151620000c890600b90602085019062000230565b505050505060609490941b6001600160601b03191660805250620005ca92505050565b6008546001600160a01b03163314620001215760405162461bcd60e51b81526004016200011890620004fd565b60405180910390fd5b81516200013690600a90602085019062000230565b5080516200014c90600990602084019062000230565b507f07ce702fc13ca0620c174dab22996a6d5fd9e7accb663555a4e85323692706ba8183604051602001620001839291906200041c565b60408051601f19818403018152908290526200019f9162000481565b60405180910390a15050565b6008546001600160a01b03163314620001d85760405162461bcd60e51b81526004016200011890620004fd565b620001e262000209565b811015620002045760405162461bcd60e51b81526004016200011890620004b6565b600c55565b600d54600090620002196200022a565b62000225919062000520565b905090565b60025490565b8280546200023e9062000577565b90600052602060002090601f016020900481019282620002625760008555620002ad565b82601f106200027d57805160ff1916838001178555620002ad565b82800160010185558215620002ad579182015b82811115620002ad57825182559160200191906001019062000290565b50620002bb929150620002bf565b5090565b5b80821115620002bb5760008155600101620002c0565b600082601f830112620002e7578081fd5b81516001600160401b0380821115620003045762000304620005b4565b604051601f8301601f19908116603f011681019082821181831017156200032f576200032f620005b4565b8160405283815286602085880101111562000348578485fd5b6200035b84602083016020890162000544565b9695505050505050565b600080600080600060a086880312156200037d578081fd5b85516001600160a01b038116811462000394578182fd5b60208701519095506001600160401b0380821115620003b1578283fd5b620003bf89838a01620002d6565b95506040880151915080821115620003d5578283fd5b620003e389838a01620002d6565b94506060880151915080821115620003f9578283fd5b506200040888828901620002d6565b925050608086015190509295509295909350565b60006902732bb903730b6b29d160b51b825283516200044381600a85016020880162000544565b61040560f31b600a9184019182015283516200046781600c84016020880162000544565b602960f81b600c9290910191820152600d01949350505050565b6000602082528251806020840152620004a281604085016020870162000544565b601f01601f19169190910160400192915050565b60208082526027908201527f54686572652063616e277420626520666577657220746f6b656e73207468616e6040820152662073686172657360c81b606082015260800190565b6020808252600990820152683737ba1037bbb732b960b91b604082015260600190565b6000828210156200053f57634e487b7160e01b81526011600452602481fd5b500390565b60005b838110156200056157818101518382015260200162000547565b8381111562000571576000848401525b50505050565b6002810460018216806200058c57607f821691505b60208210811415620005ae57634e487b7160e01b600052602260045260246000fd5b50919050565b634e487b7160e01b600052604160045260246000fd5b60805160601c612dd96200060c600039600081816112b701528181611945015281816119e401528181611bef01528181611c8e0152611d310152612dd96000f3fe608060405234801561001057600080fd5b50600436106103275760003560e01c80636427ed97116101b8578063a77384c111610104578063d5025625116100a2578063e9850eb31161007c578063e9850eb314610686578063eb470ebf1461068e578063f2fde38b146106a1578063f54fc060146106b457610327565b8063d502562514610658578063dc2aafec14610660578063dd62ed3e1461067357610327565b8063b0d04c7a116100de578063b0d04c7a14610607578063b40e80d11461060f578063c6788bdd14610622578063cc51e1431461064557610327565b8063a77384c1146105ce578063a9059cbb146105e1578063ab9b5945146105f457610327565b806378f86afc1161017157806395d89b411161014b57806395d89b411461058d5780639b56d6c914610595578063a26cf59f146105a8578063a3ec1883146105bb57610327565b806378f86afc1461056a5780637dc2cd981461057d5780638da5cb5b1461058557610327565b80636427ed971461050e57806369f721e2146105215780636b03ed5f146105345780636e3baaf51461053c57806370a082311461054457806377e071ad1461055757610327565b806337a8129c1161027757806342966c681161023057806358b918191161020a57806358b91819146104cd5780635c707f07146104e05780635d6624b7146104f3578063609181171461050657610327565b806342966c68146104945780634ae5e630146104a7578063551ad632146104ba57610327565b806337a8129c146104385780633a1cdf32146104405780633a98ef39146104535780633bcc45ba1461045b5780634000aea01461046e57806340c10f191461048157610327565b80631e3b9de5116102e457806326773ddd116102be57806326773ddd146103f55780632a0a4ed514610408578063313ce5671461041057806332a7ae951461042557610327565b80631e3b9de5146103bc5780631f0f06aa146103cf57806323b872dd146103e257610327565b806306fdde031461032c578063095ea7b31461034a5780630c6f0e5d1461036a5780630cd865ec1461037f57806318160ddd146103945780631993982d146103a9575b600080fd5b6103346106c7565b6040516103419190612872565b60405180910390f35b61035d6103583660046124f0565b610755565b6040516103419190612853565b61037261076b565b60405161034191906127a5565b61039261038d36600461237f565b61077a565b005b61039c61098d565b6040516103419190612c56565b6103926103b736600461237f565b610993565b6103726103ca36600461237f565b610b5c565b6103926103dd3660046125db565b610b7d565b61035d6103f03660046123d2565b610be4565b6103926104033660046123a0565b610c40565b610372610e5e565b610418610e6d565b6040516103419190612c87565b61039261043336600461237f565b610e76565b61039c611050565b61039261044e3660046124f0565b611056565b61039c61108a565b61037261046936600461237f565b611090565b61035d61047c366004612519565b6110b1565b61039261048f3660046124f0565b611156565b6103926104a23660046126b7565b61118a565b6103726104b53660046126b7565b6111ca565b6103926104c836600461247a565b6111f4565b6103926104db3660046126b7565b6112a0565b6103926104ee366004612656565b611321565b610392610501366004612519565b6113c1565b61039c61146a565b61039261051c3660046125a3565b611470565b61039261052f366004612571565b61148f565b61039261151f565b61039c61165c565b61039c61055236600461237f565b611662565b61039c61056536600461237f565b61167d565b61039261057836600461261b565b6116bf565b61039c611754565b61037261175b565b61033461176a565b61039c6105a336600461237f565b611777565b61039c6105b636600461237f565b611795565b61035d6105c936600461237f565b611886565b6103926105dc3660046126b7565b6118a5565b61035d6105ef3660046124f0565b6118fb565b61039261060236600461237f565b61192b565b61039c611a6f565b61035d61061d36600461237f565b611a8b565b61063561063036600461237f565b611aa0565b6040516103419493929190612828565b61039261065336600461237f565b611ad2565b610334611b9d565b61039261066e3660046124f0565b611180565b61039c6106813660046123a0565b611baa565b610392611bd5565b61039c61069c36600461237f565b611da2565b6103926106af36600461237f565b611dc0565b6103926106c236600461240d565b611e46565b600980546106d490612d13565b80601f016020809104026020016040519081016040528092919081815260200182805461070090612d13565b801561074d5780601f106107225761010080835404028352916020019161074d565b820191906000526020600020905b81548152906001019060200180831161073057829003601f168201915b505050505081565b6000610762338484611edc565b50600192915050565b6006546001600160a01b031681565b6001600160a01b03808216600090815260046020908152604091829020825160808101845281548516815260018201549281018390526002820154938101939093526003015490921660608201819052909190816107f35760405162461bcd60e51b81526004016107ea9061296c565b60405180910390fd5b82516001600160a01b0316331461081c5760405162461bcd60e51b81526004016107ea906128a5565b4262ed4e0084604001516108309190612c95565b111561084e5760405162461bcd60e51b81526004016107ea906128dc565b82516001600160a01b03808616600090815260046020819052604080832080546001600160a01b031990811682556001820185905560028201949094556003018054909316909255905163a9059cbb60e01b81529184169163a9059cbb916108ba9185918891016127dd565b602060405180830381600087803b1580156108d457600080fd5b505af11580156108e8573d6000803e3d6000fd5b505050506040513d601f19601f8201168201806040525081019061090c91906125bf565b6109285760405162461bcd60e51b81526004016107ea906129db565b61093b858261093688611662565b611f37565b806001600160a01b0316856001600160a01b03167f52a5c2b28bc6eb9712d0ced43463103b486b13ccc9cda499fd3b2d7b6a74a8ee8560405161097e9190612c56565b60405180910390a35050505050565b60025490565b6008546001600160a01b031633146109bd5760405162461bcd60e51b81526004016107ea90612bfc565b6109c681611662565b156109e35760405162461bcd60e51b81526004016107ea90612a7e565b60005b600e54811015610b5857816001600160a01b0316600e8281548110610a1b57634e487b7160e01b600052603260045260246000fd5b6000918252602090912001546001600160a01b03161415610b4657600e8054610a4690600190612ccc565b81548110610a6457634e487b7160e01b600052603260045260246000fd5b600091825260209091200154600e80546001600160a01b039092169183908110610a9e57634e487b7160e01b600052603260045260246000fd5b9060005260206000200160006101000a8154816001600160a01b0302191690836001600160a01b03160217905550600e805480610aeb57634e487b7160e01b600052603160045260246000fd5b600082815260209020810160001990810180546001600160a01b03191690550190556040517fc3f6f866f10921ec4857ee8fe667183cd1751e53ed509c992689bece36ca189890610b3d9084906127a5565b60405180910390a15b80610b5081612d4e565b9150506109e6565b5050565b6001600160a01b03808216600090815260046020526040902054165b919050565b6008546001600160a01b03163314610ba75760405162461bcd60e51b81526004016107ea90612bfc565b7f07ce702fc13ca0620c174dab22996a6d5fd9e7accb663555a4e85323692706ba8282604051610bd892919061285e565b60405180910390a15050565b6000610bf1848484611f37565b6001600160a01b0384166000908152600160209081526040808320338452909152902054600160ff1b811015610c3557610c358533610c308685612ccc565b611edc565b506001949350505050565b610c4981611886565b610c655760405162461bcd60e51b81526004016107ea90612a12565b6000610c708361167d565b905060008111610c925760405162461bcd60e51b81526004016107ea9061293c565b336000610c9e84611662565b90506000610cac8483612cad565b90508582610ccc5760405162461bcd60e51b81526004016107ea90612afc565b6001600160a01b03861660009081526004602052604090206001015415610d055760405162461bcd60e51b81526004016107ea90612ac5565b6040516323b872dd60e01b81526001600160a01b038216906323b872dd90610d35908790309087906004016127b9565b602060405180830381600087803b158015610d4f57600080fd5b505af1158015610d63573d6000803e3d6000fd5b505050506040513d601f19601f82011682018060405250810190610d8791906125bf565b610da35760405162461bcd60e51b81526004016107ea906129db565b604080516080810182526001600160a01b038087168083526020808401878152428587019081528d8516606087019081528d86166000818152600490955293889020965187549087166001600160a01b0319918216178855925160018801559051600287015551600390950180549590941694169390931790915591517f1982ca8958fc8a8176cb52be509260f4bc5af7ce04e1533711793f1c56dd535990610e4d908790612c56565b60405180910390a350505050505050565b6008546001600160a01b031690565b60035460ff1681565b610e7e610e5e565b6001600160a01b0316336001600160a01b031614610eae5760405162461bcd60e51b81526004016107ea90612c1f565b6001600160a01b038082166000908152600460209081526040918290208251608081018452815485168152600182015492810183905260028201549381019390935260030154909216606082018190529091610f1c5760405162461bcd60e51b81526004016107ea9061296c565b6001600160a01b03808416600090815260046020818152604080842080546001600160a01b031990811682556001820186905560028201959095556003018054909416909355855190860151925163a9059cbb60e01b81529385169363a9059cbb93610f8a939091016127dd565b602060405180830381600087803b158015610fa457600080fd5b505af1158015610fb8573d6000803e3d6000fd5b505050506040513d601f19601f82011682018060405250810190610fdc91906125bf565b610ff85760405162461bcd60e51b81526004016107ea906129db565b81600001516001600160a01b0316836001600160a01b03167fbb036e629a9f4c0897ee5d48440dfdb36f7e772117723a2ed603a6514244c2d584602001516040516110439190612c56565b60405180910390a3505050565b600d5481565b6008546001600160a01b031633146110805760405162461bcd60e51b81526004016107ea90612bfc565b610b588282611ff4565b600c5481565b6001600160a01b039081166000908152600460205260409020600301541690565b6000806110be86866118fb565b9050801561114d57604051635260769b60e11b81526001600160a01b0387169063a4c0ed36906110f89033908990899089906004016127f6565b602060405180830381600087803b15801561111257600080fd5b505af1158015611126573d6000803e3d6000fd5b505050506040513d601f19601f8201168201806040525081019061114a91906125bf565b90505b95945050505050565b6008546001600160a01b031633146111805760405162461bcd60e51b81526004016107ea90612bfc565b610b58828261207b565b61119333611662565b8111156111b25760405162461bcd60e51b81526004016107ea90612b33565b6111bd333083611f37565b6111c730826120b9565b50565b600e81815481106111da57600080fd5b6000918252602090912001546001600160a01b0316905081565b6111ff86858561148f565b6001600160a01b03851663a4c0ed36876112198787612ccc565b611224906001612c95565b85856040518563ffffffff1660e01b815260040161124594939291906127f6565b602060405180830381600087803b15801561125f57600080fd5b505af1158015611273573d6000803e3d6000fd5b505050506040513d601f19601f8201168201806040525081019061129791906125bf565b50505050505050565b604051630852cd8d60e31b81526001600160a01b037f000000000000000000000000000000000000000000000000000000000000000016906342966c68906112ec908490600401612c56565b600060405180830381600087803b15801561130657600080fd5b505af115801561131a573d6000803e3d6000fd5b5050505050565b6008546001600160a01b0316331461134b5760405162461bcd60e51b81526004016107ea90612bfc565b815161135e90600a906020850190612201565b508051611372906009906020840190612201565b507f07ce702fc13ca0620c174dab22996a6d5fd9e7accb663555a4e85323692706ba81836040516020016113a7929190612711565b60408051601f1981840301815290829052610bd891612872565b6008546001600160a01b031633146113eb5760405162461bcd60e51b81526004016107ea90612bfc565b60006113f685611662565b90508084111561140557600080fd5b83600d60008282546114179190612c95565b92505081905550846001600160a01b03167f0a605cd1294f60fa3b73548ac68428f33300a051f225afcdcc75e56083c96ee785858560405161145b93929190612c5f565b60405180910390a25050505050565b60075481565b336000908152600560205260409020805460ff19169115919091179055565b6008546001600160a01b031633146114b95760405162461bcd60e51b81526004016107ea90612bfc565b826001600160a01b03167f7b37b2b4bba7b5ea40a69f93db727c289fbbaa632be8186cfa85e0297e00131983836040516114f4929190612c79565b60405180910390a261151a8361150a8484612ccc565b611515906001612c95565b61207b565b505050565b336000908152600460205260409020600101541561165a5733600081815260046020819052604080832060018101805460038301805484546001600160a01b0319908116865593889055600290940196909655908216909455905163a9059cbb60e01b815292936001600160a01b0390911692839263a9059cbb926115a89290918791016127dd565b602060405180830381600087803b1580156115c257600080fd5b505af11580156115d6573d6000803e3d6000fd5b505050506040513d601f19601f820116820180604052508101906115fa91906125bf565b6116165760405162461bcd60e51b81526004016107ea906129db565b336001600160a01b03167f203627483d943880619f4b7e0cca21dbefd6204b4d85b124eb99540e17ba86dd8360405161164f9190612c56565b60405180910390a250505b565b600e5490565b6001600160a01b031660009081526020819052604090205490565b60006001600160a01b03821630141561169857506001610b78565b6006546001600160a01b03838116911614156116b75750600754610b78565b506000610b78565b6008546001600160a01b031633146116e95760405162461bcd60e51b81526004016107ea90612bfc565b80516116fc90600b906020840190612201565b507f07ce702fc13ca0620c174dab22996a6d5fd9e7accb663555a4e85323692706ba8160405160200161172f9190612772565b60408051601f198184030181529082905261174991612872565b60405180910390a150565b62ed4e0081565b6008546001600160a01b031681565b600a80546106d490612d13565b6001600160a01b031660009081526004602052604090206001015490565b6000806117a183611662565b905060005b600e5481101561187f576000600e82815481106117d357634e487b7160e01b600052603260045260246000fd5b6000918252602090912001546040516370a0823160e01b81526001600160a01b03909116915081906370a082319061180f9088906004016127a5565b60206040518083038186803b15801561182757600080fd5b505afa15801561183b573d6000803e3d6000fd5b505050506040513d601f19601f8201168201806040525081019061185f91906126cf565b6118699084612c95565b925050808061187790612d4e565b9150506117a6565b5092915050565b6001600160a01b031660009081526005602052604090205460ff161590565b6008546001600160a01b031633146118cf5760405162461bcd60e51b81526004016107ea90612bfc565b6118d7611a6f565b8110156118f65760405162461bcd60e51b81526004016107ea90612994565b600c55565b60006119078383612153565b6119235760405162461bcd60e51b81526004016107ea90612913565b61076261151f565b6040516370a0823160e01b81526000906001600160a01b037f000000000000000000000000000000000000000000000000000000000000000016906370a082319061197a9085906004016127a5565b60206040518083038186803b15801561199257600080fd5b505afa1580156119a6573d6000803e3d6000fd5b505050506040513d601f19601f820116820180604052508101906119ca91906126cf565b6040516323b872dd60e01b81529091506001600160a01b037f000000000000000000000000000000000000000000000000000000000000000016906323b872dd90611a1d908590309086906004016127b9565b602060405180830381600087803b158015611a3757600080fd5b505af1158015611a4b573d6000803e3d6000fd5b505050506040513d601f19601f8201168201806040525081019061151a91906125bf565b6000600d54611a7c61098d565b611a869190612ccc565b905090565b60056020526000908152604090205460ff1681565b60046020526000908152604090208054600182015460028301546003909301546001600160a01b039283169391921684565b6008546001600160a01b03163314611afc5760405162461bcd60e51b81526004016107ea90612bfc565b611b0581611662565b15611b225760405162461bcd60e51b81526004016107ea90612b6a565b600e80546001810182556000919091527fbb7b4a454dc3493923482f07822329ed19e8244eff582cc204f8554c3620c3fd0180546001600160a01b0319166001600160a01b0383161790556040517f7417b75095e577f15d994b058af7a3a71f67be4ae2f288725d1b922f6bb67a67906117499083906127a5565b600b80546106d490612d13565b6001600160a01b03918216600090815260016020908152604080832093909416825291909152205490565b6040516370a0823160e01b81526000906001600160a01b037f000000000000000000000000000000000000000000000000000000000000000016906370a0823190611c249033906004016127a5565b60206040518083038186803b158015611c3c57600080fd5b505afa158015611c50573d6000803e3d6000fd5b505050506040513d601f19601f82011682018060405250810190611c7491906126cf565b6040516323b872dd60e01b81529091506001600160a01b037f000000000000000000000000000000000000000000000000000000000000000016906323b872dd90611cc7903390309086906004016127b9565b602060405180830381600087803b158015611ce157600080fd5b505af1158015611cf5573d6000803e3d6000fd5b505050506040513d601f19601f82011682018060405250810190611d1991906125bf565b50604051630852cd8d60e31b81526001600160a01b037f000000000000000000000000000000000000000000000000000000000000000016906342966c6890611d66908490600401612c56565b600060405180830381600087803b158015611d8057600080fd5b505af1158015611d94573d6000803e3d6000fd5b505050506111c7338261207b565b6001600160a01b031660009081526004602052604090206002015490565b6008546001600160a01b03163314611dea5760405162461bcd60e51b81526004016107ea90612bfc565b6008546040516001600160a01b038084169216907f8be0079c531659141344cd1fd0a4f28419497f9722a3daafe3b4186f6b6457e090600090a3600880546001600160a01b0319166001600160a01b0392909216919091179055565b611e508484611156565b604051635260769b60e11b81526001600160a01b0385169063a4c0ed3690611e829088908790879087906004016127f6565b602060405180830381600087803b158015611e9c57600080fd5b505af1158015611eb0573d6000803e3d6000fd5b505050506040513d601f19601f82011682018060405250810190611ed491906125bf565b505050505050565b6001600160a01b0380841660008181526001602090815260408083209487168084529490915290819020849055517f8c5be1e5ebec7d5bd14f71427d1e84f3dd0314c0f7b2291e5b200ac8c7c3b92590611043908590612c56565b6001600160a01b038216611f4a57600080fd5b611f5583838361151a565b6001600160a01b03831660009081526020819052604081208054839290611f7d908490612ccc565b90915550506001600160a01b03821660009081526020819052604081208054839290611faa908490612c95565b92505081905550816001600160a01b0316836001600160a01b03167fddf252ad1be2c89b69c2b068fc378daa952ba7f163c4a11628f55a4df523b3ef836040516110439190612c56565b600680546001600160a01b0319166001600160a01b0384811691909117918290551661202457600060075561204a565b600081116120445760405162461bcd60e51b81526004016107ea90612a47565b60078190555b7f94238858463adf0fecc0e064844831a54bccf8467c86f0b93d2a9508e05968538282604051610bd89291906127dd565b600c5481612087611a6f565b6120919190612c95565b11156120af5760405162461bcd60e51b81526004016107ea90612baf565b610b588282612160565b6120c58260008361151a565b80600260008282546120d79190612ccc565b90915550506001600160a01b03821660009081526020819052604081208054839290612104908490612ccc565b90915550506040516000906001600160a01b038416907fddf252ad1be2c89b69c2b068fc378daa952ba7f163c4a11628f55a4df523b3ef90612147908590612c56565b60405180910390a35050565b6000610762338484611f37565b6001600160a01b03821661217357600080fd5b61217f6000838361151a565b80600260008282546121919190612c95565b90915550506001600160a01b038216600090815260208190526040812080548392906121be908490612c95565b90915550506040516001600160a01b038316906000907fddf252ad1be2c89b69c2b068fc378daa952ba7f163c4a11628f55a4df523b3ef90612147908590612c56565b82805461220d90612d13565b90600052602060002090601f01602090048101928261222f5760008555612275565b82601f1061224857805160ff1916838001178555612275565b82800160010185558215612275579182015b8281111561227557825182559160200191906001019061225a565b50612281929150612285565b5090565b5b808211156122815760008155600101612286565b80356001600160a01b0381168114610b7857600080fd5b60008083601f8401126122c2578182fd5b50813567ffffffffffffffff8111156122d9578182fd5b6020830191508360208285010111156122f157600080fd5b9250929050565b600082601f830112612308578081fd5b813567ffffffffffffffff8082111561232357612323612d7f565b604051601f8301601f19908116603f0116810190828211818310171561234b5761234b612d7f565b81604052838152866020858801011115612363578485fd5b8360208701602083013792830160200193909352509392505050565b600060208284031215612390578081fd5b6123998261229a565b9392505050565b600080604083850312156123b2578081fd5b6123bb8361229a565b91506123c96020840161229a565b90509250929050565b6000806000606084860312156123e6578081fd5b6123ef8461229a565b92506123fd6020850161229a565b9150604084013590509250925092565b600080600080600060808688031215612424578081fd5b61242d8661229a565b945061243b6020870161229a565b935060408601359250606086013567ffffffffffffffff81111561245d578182fd5b612469888289016122b1565b969995985093965092949392505050565b60008060008060008060a08789031215612492578081fd5b61249b8761229a565b95506124a96020880161229a565b94506040870135935060608701359250608087013567ffffffffffffffff8111156124d2578182fd5b6124de89828a016122b1565b979a9699509497509295939492505050565b60008060408385031215612502578182fd5b61250b8361229a565b946020939093013593505050565b6000806000806060858703121561252e578384fd5b6125378561229a565b935060208501359250604085013567ffffffffffffffff811115612559578283fd5b612565878288016122b1565b95989497509550505050565b600080600060608486031215612585578283fd5b61258e8461229a565b95602085013595506040909401359392505050565b6000602082840312156125b4578081fd5b813561239981612d95565b6000602082840312156125d0578081fd5b815161239981612d95565b600080602083850312156125ed578182fd5b823567ffffffffffffffff811115612603578283fd5b61260f858286016122b1565b90969095509350505050565b60006020828403121561262c578081fd5b813567ffffffffffffffff811115612642578182fd5b61264e848285016122f8565b949350505050565b60008060408385031215612668578182fd5b823567ffffffffffffffff8082111561267f578384fd5b61268b868387016122f8565b935060208501359150808211156126a0578283fd5b506126ad858286016122f8565b9150509250929050565b6000602082840312156126c8578081fd5b5035919050565b6000602082840312156126e0578081fd5b5051919050565b60008284528282602086013780602084860101526020601f19601f85011685010190509392505050565b60006902732bb903730b6b29d160b51b8252835161273681600a850160208801612ce3565b61040560f31b600a91840191820152835161275881600c840160208801612ce3565b602960f81b600c9290910191820152600d01949350505050565b60006a02732bb903a32b936b99d160ad1b8252825161279881600b850160208701612ce3565b91909101600b0192915050565b6001600160a01b0391909116815260200190565b6001600160a01b039384168152919092166020820152604081019190915260600190565b6001600160a01b03929092168252602082015260400190565b600060018060a01b03861682528460208301526060604083015261281e6060830184866126e7565b9695505050505050565b6001600160a01b03948516815260208101939093526040830191909152909116606082015260800190565b901515815260200190565b60006020825261264e6020830184866126e7565b6000602082528251806020840152612891816040850160208701612ce3565b601f01601f19169190910160400192915050565b6020808252601f908201527f4f6e6c7920636c61696d616e742063616e207265736f6c766520636c61696d00604082015260600190565b60208082526019908201527f436c61696d20706572696f64206e6f74206f7665722079657400000000000000604082015260600190565b6020808252600f908201526e151c985b9cd9995c8819985a5b1959608a1b604082015260600190565b602080825260169082015275155b9cdd5c1c1bdc9d19590818dbdb1b185d195c985b60521b604082015260600190565b6020808252600e908201526d139bc818db185a5b48199bdd5b9960921b604082015260600190565b60208082526027908201527f54686572652063616e277420626520666577657220746f6b656e73207468616e6040820152662073686172657360c81b606082015260800190565b6020808252601a908201527f436f6c6c61746572616c207472616e73666572206661696c6564000000000000604082015260600190565b6020808252818101527f436c61696d732064697361626c656420666f7220746869732061646472657373604082015260600190565b6020808252601d908201527f436f6c6c61746572616c20726174652063616e2774206265207a65726f000000604082015260600190565b60208082526027908201527f537562726567697374657273206d75737420626520656d707479207768656e206040820152661c995b5bdd995960ca1b606082015260800190565b60208082526017908201527f4164647265737320616c726561647920636c61696d6564000000000000000000604082015260600190565b6020808252601f908201527f436c61696d6564206164647265737320686f6c6473206e6f2073686172657300604082015260600190565b6020808252601b908201527f4e6f7420656e6f7567682073686172657320617661696c61626c650000000000604082015260600190565b60208082526025908201527f537562726567697374657273206d75737420626520656d707479207768656e20604082015264185919195960da1b606082015260800190565b6020808252602d908201527f54686572652063616e277420626520666577657220736861726573207468616e60408201526c2076616c696420746f6b656e7360981b606082015260800190565b6020808252600990820152683737ba1037bbb732b960b91b604082015260600190565b60208082526018908201527f596f752063616e6e6f742064656c65746520636c61696d730000000000000000604082015260600190565b90815260200190565b60008482526040602083015261114d6040830184866126e7565b918252602082015260400190565b60ff91909116815260200190565b60008219821115612ca857612ca8612d69565b500190565b6000816000190483118215151615612cc757612cc7612d69565b500290565b600082821015612cde57612cde612d69565b500390565b60005b83811015612cfe578181015183820152602001612ce6565b83811115612d0d576000848401525b50505050565b600281046001821680612d2757607f821691505b60208210811415612d4857634e487b7160e01b600052602260045260246000fd5b50919050565b6000600019821415612d6257612d62612d69565b5060010190565b634e487b7160e01b600052601160045260246000fd5b634e487b7160e01b600052604160045260246000fd5b80151581146111c757600080fdfea2646970667358221220cfccc31614c8480db952854869e498e1eb8fe77a3f4da69d8aa5678e3d346e6264736f6c63430008010033",
    "sourcePath": "c:/Users/luziu/Documents/aktionariat/contracts/src/SharesWithPredecessor.sol",
    "compiler": {
        "name": "solc",
        "version": "0.8.1+commit.df193b15"
    },
    "functionHashes": {
        "allowance(address,address)": "dd62ed3e",
        "announcement(string)": "1f0f06aa",
        "approve(address,uint256)": "095ea7b3",
        "balanceOf(address)": "70a08231",
        "balanceOfDeep(address)": "a26cf59f",
        "burn(uint256)": "42966c68",
        "claimPeriod()": "7dc2cd98",
        "claims(address)": "c6788bdd",
        "clearClaim()": "6b03ed5f",
        "convert1(address)": "ab9b5945",
        "convert2(uint256)": "58b91819",
        "convert3(address,uint256)": "dc2aafec",
        "convertOldShares()": "e9850eb3",
        "countSubregisters()": "6e3baaf5",
        "customCollateralAddress()": "0c6f0e5d",
        "customCollateralRate()": "60918117",
        "decimals()": "313ce567",
        "declareInvalid(address,uint256,string)": "5d6624b7",
        "declareLost(address,address)": "26773ddd",
        "deleteClaim(address)": "32a7ae95",
        "getClaimDeleter()": "2a0a4ed5",
        "getClaimant(address)": "1e3b9de5",
        "getCollateral(address)": "9b56d6c9",
        "getCollateralRate(address)": "77e071ad",
        "getCollateralType(address)": "3bcc45ba",
        "getTimeStamp(address)": "eb470ebf",
        "invalidTokens()": "37a8129c",
        "isRecoveryEnabled(address)": "a3ec1883",
        "mint(address,uint256)": "40c10f19",
        "mintAndCall(address,address,uint256,bytes)": "f54fc060",
        "mintNumbered(address,uint256,uint256)": "69f721e2",
        "mintNumberedAndCall(address,address,uint256,uint256,bytes)": "551ad632",
        "name()": "06fdde03",
        "owner()": "8da5cb5b",
        "recognizeSubRegister(address)": "cc51e143",
        "recover(address)": "0cd865ec",
        "recoveryDisabled(address)": "b40e80d1",
        "removeSubRegister(address)": "1993982d",
        "setCustomClaimCollateral(address,uint256)": "3a1cdf32",
        "setName(string,string)": "5c707f07",
        "setRecoverable(bool)": "6427ed97",
        "setTerms(string)": "78f86afc",
        "setTotalShares(uint256)": "a77384c1",
        "subregisters(uint256)": "4ae5e630",
        "symbol()": "95d89b41",
        "terms()": "d5025625",
        "totalShares()": "3a98ef39",
        "totalSupply()": "18160ddd",
        "totalValidSupply()": "b0d04c7a",
        "transfer(address,uint256)": "a9059cbb",
        "transferAndCall(address,uint256,bytes)": "4000aea0",
        "transferFrom(address,address,uint256)": "23b872dd",
        "transferOwnership(address)": "f2fde38b"
    },
    "gasEstimates": {
        "creation": {
            "codeDepositCost": "2347400",
            "executionCost": "infinite",
            "totalCost": "infinite"
        },
        "external": {
            "allowance(address,address)": "infinite",
            "announcement(string)": "infinite",
            "approve(address,uint256)": "22555",
            "balanceOf(address)": "1407",
            "balanceOfDeep(address)": "infinite",
            "burn(uint256)": "infinite",
            "claimPeriod()": "318",
            "claims(address)": "3934",
            "clearClaim()": "infinite",
            "convert1(address)": "infinite",
            "convert2(uint256)": "infinite",
            "convert3(address,uint256)": "infinite",
            "convertOldShares()": "infinite",
            "countSubregisters()": "1140",
            "customCollateralAddress()": "1161",
            "customCollateralRate()": "1161",
            "decimals()": "1158",
            "declareInvalid(address,uint256,string)": "infinite",
            "declareLost(address,address)": "infinite",
            "deleteClaim(address)": "infinite",
            "getClaimDeleter()": "1160",
            "getClaimant(address)": "infinite",
            "getCollateral(address)": "1365",
            "getCollateralRate(address)": "infinite",
            "getCollateralType(address)": "1421",
            "getTimeStamp(address)": "1364",
            "invalidTokens()": "1074",
            "isRecoveryEnabled(address)": "1418",
            "mint(address,uint256)": "infinite",
            "mintAndCall(address,address,uint256,bytes)": "infinite",
            "mintNumbered(address,uint256,uint256)": "infinite",
            "mintNumberedAndCall(address,address,uint256,uint256,bytes)": "infinite",
            "name()": "infinite",
            "owner()": "1182",
            "recognizeSubRegister(address)": "45021",
            "recover(address)": "infinite",
            "recoveryDisabled(address)": "1353",
            "removeSubRegister(address)": "infinite",
            "setCustomClaimCollateral(address,uint256)": "43582",
            "setName(string,string)": "infinite",
            "setRecoverable(bool)": "21234",
            "setTerms(string)": "infinite",
            "setTotalShares(uint256)": "22890",
            "subregisters(uint256)": "2128",
            "symbol()": "infinite",
            "terms()": "infinite",
            "totalShares()": "1118",
            "totalSupply()": "1163",
            "totalValidSupply()": "2000",
            "transfer(address,uint256)": "infinite",
            "transferAndCall(address,uint256,bytes)": "infinite",
            "transferFrom(address,address,uint256)": "infinite",
            "transferOwnership(address)": "24475"
        }
    }
}