{
    "contractName": "Shares",
    "abi": [
        {
            "inputs": [
                {
                    "internalType": "string",
                    "name": "_symbol",
                    "type": "string"
                },
                {
                    "internalType": "string",
                    "name": "_name",
                    "type": "string"
                },
                {
                    "internalType": "string",
                    "name": "_terms",
                    "type": "string"
                },
                {
                    "internalType": "uint256",
                    "name": "_totalShares",
                    "type": "uint256"
                }
            ],
            "stateMutability": "nonpayable",
            "type": "constructor"
        },
        {
            "anonymous": false,
            "inputs": [
                {
                    "indexed": false,
                    "internalType": "string",
                    "name": "message",
                    "type": "string"
                }
            ],
            "name": "Announcement",
            "type": "event"
        },
        {
            "anonymous": false,
            "inputs": [
                {
                    "indexed": true,
                    "internalType": "address",
                    "name": "owner",
                    "type": "address"
                },
                {
                    "indexed": true,
                    "internalType": "address",
                    "name": "spender",
                    "type": "address"
                },
                {
                    "indexed": false,
                    "internalType": "uint256",
                    "name": "value",
                    "type": "uint256"
                }
            ],
            "name": "Approval",
            "type": "event"
        },
        {
            "anonymous": false,
            "inputs": [
                {
                    "indexed": true,
                    "internalType": "address",
                    "name": "lostAddress",
                    "type": "address"
                },
                {
                    "indexed": false,
                    "internalType": "uint256",
                    "name": "collateral",
                    "type": "uint256"
                }
            ],
            "name": "ClaimCleared",
            "type": "event"
        },
        {
            "anonymous": false,
            "inputs": [
                {
                    "indexed": true,
                    "internalType": "address",
                    "name": "lostAddress",
                    "type": "address"
                },
                {
                    "indexed": true,
                    "internalType": "address",
                    "name": "claimant",
                    "type": "address"
                },
                {
                    "indexed": false,
                    "internalType": "uint256",
                    "name": "collateral",
                    "type": "uint256"
                }
            ],
            "name": "ClaimDeleted",
            "type": "event"
        },
        {
            "anonymous": false,
            "inputs": [
                {
                    "indexed": true,
                    "internalType": "address",
                    "name": "lostAddress",
                    "type": "address"
                },
                {
                    "indexed": true,
                    "internalType": "address",
                    "name": "claimant",
                    "type": "address"
                },
                {
                    "indexed": false,
                    "internalType": "uint256",
                    "name": "balance",
                    "type": "uint256"
                }
            ],
            "name": "ClaimMade",
            "type": "event"
        },
        {
            "anonymous": false,
            "inputs": [
                {
                    "indexed": false,
                    "internalType": "uint256",
                    "name": "newClaimPeriodInDays",
                    "type": "uint256"
                }
            ],
            "name": "ClaimPeriodChanged",
            "type": "event"
        },
        {
            "anonymous": false,
            "inputs": [
                {
                    "indexed": true,
                    "internalType": "address",
                    "name": "lostAddress",
                    "type": "address"
                },
                {
                    "indexed": true,
                    "internalType": "address",
                    "name": "claimant",
                    "type": "address"
                },
                {
                    "indexed": false,
                    "internalType": "uint256",
                    "name": "collateral",
                    "type": "uint256"
                }
            ],
            "name": "ClaimResolved",
            "type": "event"
        },
        {
            "anonymous": false,
            "inputs": [
                {
                    "indexed": false,
                    "internalType": "address",
                    "name": "newCustomCollateralAddress",
                    "type": "address"
                },
                {
                    "indexed": false,
                    "internalType": "uint256",
                    "name": "newCustomCollareralRate",
                    "type": "uint256"
                }
            ],
            "name": "CustomClaimCollateralChanged",
            "type": "event"
        },
        {
            "anonymous": false,
            "inputs": [
                {
                    "indexed": true,
                    "internalType": "address",
                    "name": "previousOwner",
                    "type": "address"
                },
                {
                    "indexed": true,
                    "internalType": "address",
                    "name": "newOwner",
                    "type": "address"
                }
            ],
            "name": "OwnershipTransferred",
            "type": "event"
        },
        {
            "anonymous": false,
            "inputs": [
                {
                    "indexed": true,
                    "internalType": "address",
                    "name": "holder",
                    "type": "address"
                },
                {
                    "indexed": false,
                    "internalType": "uint256",
                    "name": "firstInclusive",
                    "type": "uint256"
                },
                {
                    "indexed": false,
                    "internalType": "uint256",
                    "name": "lastInclusive",
                    "type": "uint256"
                }
            ],
            "name": "ShareNumberingEvent",
            "type": "event"
        },
        {
            "anonymous": false,
            "inputs": [
                {
                    "indexed": false,
                    "internalType": "address",
                    "name": "contractAddress",
                    "type": "address"
                }
            ],
            "name": "SubRegisterAdded",
            "type": "event"
        },
        {
            "anonymous": false,
            "inputs": [
                {
                    "indexed": false,
                    "internalType": "address",
                    "name": "contractAddress",
                    "type": "address"
                }
            ],
            "name": "SubRegisterRemoved",
            "type": "event"
        },
        {
            "anonymous": false,
            "inputs": [
                {
                    "indexed": true,
                    "internalType": "address",
                    "name": "holder",
                    "type": "address"
                },
                {
                    "indexed": false,
                    "internalType": "uint256",
                    "name": "amount",
                    "type": "uint256"
                },
                {
                    "indexed": false,
                    "internalType": "string",
                    "name": "message",
                    "type": "string"
                }
            ],
            "name": "TokensDeclaredInvalid",
            "type": "event"
        },
        {
            "anonymous": false,
            "inputs": [
                {
                    "indexed": true,
                    "internalType": "address",
                    "name": "from",
                    "type": "address"
                },
                {
                    "indexed": true,
                    "internalType": "address",
                    "name": "to",
                    "type": "address"
                },
                {
                    "indexed": false,
                    "internalType": "uint256",
                    "name": "value",
                    "type": "uint256"
                }
            ],
            "name": "Transfer",
            "type": "event"
        },
        {
            "inputs": [
                {
                    "internalType": "address",
                    "name": "owner",
                    "type": "address"
                },
                {
                    "internalType": "address",
                    "name": "spender",
                    "type": "address"
                }
            ],
            "name": "allowance",
            "outputs": [
                {
                    "internalType": "uint256",
                    "name": "",
                    "type": "uint256"
                }
            ],
            "stateMutability": "view",
            "type": "function"
        },
        {
            "inputs": [
                {
                    "internalType": "string",
                    "name": "message",
                    "type": "string"
                }
            ],
            "name": "announcement",
            "outputs": [],
            "stateMutability": "nonpayable",
            "type": "function"
        },
        {
            "inputs": [
                {
                    "internalType": "address",
                    "name": "spender",
                    "type": "address"
                },
                {
                    "internalType": "uint256",
                    "name": "value",
                    "type": "uint256"
                }
            ],
            "name": "approve",
            "outputs": [
                {
                    "internalType": "bool",
                    "name": "",
                    "type": "bool"
                }
            ],
            "stateMutability": "nonpayable",
            "type": "function"
        },
        {
            "inputs": [
                {
                    "internalType": "address",
                    "name": "account",
                    "type": "address"
                }
            ],
            "name": "balanceOf",
            "outputs": [
                {
                    "internalType": "uint256",
                    "name": "",
                    "type": "uint256"
                }
            ],
            "stateMutability": "view",
            "type": "function"
        },
        {
            "inputs": [
                {
                    "internalType": "address",
                    "name": "holder",
                    "type": "address"
                }
            ],
            "name": "balanceOfDeep",
            "outputs": [
                {
                    "internalType": "uint256",
                    "name": "",
                    "type": "uint256"
                }
            ],
            "stateMutability": "view",
            "type": "function"
        },
        {
            "inputs": [
                {
                    "internalType": "uint256",
                    "name": "_amount",
                    "type": "uint256"
                }
            ],
            "name": "burn",
            "outputs": [],
            "stateMutability": "nonpayable",
            "type": "function"
        },
        {
            "inputs": [],
            "name": "claimPeriod",
            "outputs": [
                {
                    "internalType": "uint256",
                    "name": "",
                    "type": "uint256"
                }
            ],
            "stateMutability": "view",
            "type": "function"
        },
        {
            "inputs": [
                {
                    "internalType": "address",
                    "name": "",
                    "type": "address"
                }
            ],
            "name": "claims",
            "outputs": [
                {
                    "internalType": "address",
                    "name": "claimant",
                    "type": "address"
                },
                {
                    "internalType": "uint256",
                    "name": "collateral",
                    "type": "uint256"
                },
                {
                    "internalType": "uint256",
                    "name": "timestamp",
                    "type": "uint256"
                },
                {
                    "internalType": "address",
                    "name": "currencyUsed",
                    "type": "address"
                }
            ],
            "stateMutability": "view",
            "type": "function"
        },
        {
            "inputs": [],
            "name": "clearClaim",
            "outputs": [],
            "stateMutability": "nonpayable",
            "type": "function"
        },
        {
            "inputs": [],
            "name": "countSubregisters",
            "outputs": [
                {
                    "internalType": "uint256",
                    "name": "",
                    "type": "uint256"
                }
            ],
            "stateMutability": "view",
            "type": "function"
        },
        {
            "inputs": [],
            "name": "customCollateralAddress",
            "outputs": [
                {
                    "internalType": "address",
                    "name": "",
                    "type": "address"
                }
            ],
            "stateMutability": "view",
            "type": "function"
        },
        {
            "inputs": [],
            "name": "customCollateralRate",
            "outputs": [
                {
                    "internalType": "uint256",
                    "name": "",
                    "type": "uint256"
                }
            ],
            "stateMutability": "view",
            "type": "function"
        },
        {
            "inputs": [],
            "name": "decimals",
            "outputs": [
                {
                    "internalType": "uint8",
                    "name": "",
                    "type": "uint8"
                }
            ],
            "stateMutability": "view",
            "type": "function"
        },
        {
            "inputs": [
                {
                    "internalType": "address",
                    "name": "holder",
                    "type": "address"
                },
                {
                    "internalType": "uint256",
                    "name": "amount",
                    "type": "uint256"
                },
                {
                    "internalType": "string",
                    "name": "message",
                    "type": "string"
                }
            ],
            "name": "declareInvalid",
            "outputs": [],
            "stateMutability": "nonpayable",
            "type": "function"
        },
        {
            "inputs": [
                {
                    "internalType": "address",
                    "name": "collateralType",
                    "type": "address"
                },
                {
                    "internalType": "address",
                    "name": "lostAddress",
                    "type": "address"
                }
            ],
            "name": "declareLost",
            "outputs": [],
            "stateMutability": "nonpayable",
            "type": "function"
        },
        {
            "inputs": [
                {
                    "internalType": "address",
                    "name": "spender",
                    "type": "address"
                },
                {
                    "internalType": "uint256",
                    "name": "subtractedValue",
                    "type": "uint256"
                }
            ],
            "name": "decreaseAllowance",
            "outputs": [
                {
                    "internalType": "bool",
                    "name": "",
                    "type": "bool"
                }
            ],
            "stateMutability": "nonpayable",
            "type": "function"
        },
        {
            "inputs": [
                {
                    "internalType": "address",
                    "name": "lostAddress",
                    "type": "address"
                }
            ],
            "name": "deleteClaim",
            "outputs": [],
            "stateMutability": "nonpayable",
            "type": "function"
        },
        {
            "inputs": [],
            "name": "getClaimDeleter",
            "outputs": [
                {
                    "internalType": "address",
                    "name": "",
                    "type": "address"
                }
            ],
            "stateMutability": "view",
            "type": "function"
        },
        {
            "inputs": [
                {
                    "internalType": "address",
                    "name": "lostAddress",
                    "type": "address"
                }
            ],
            "name": "getClaimant",
            "outputs": [
                {
                    "internalType": "address",
                    "name": "",
                    "type": "address"
                }
            ],
            "stateMutability": "view",
            "type": "function"
        },
        {
            "inputs": [
                {
                    "internalType": "address",
                    "name": "lostAddress",
                    "type": "address"
                }
            ],
            "name": "getCollateral",
            "outputs": [
                {
                    "internalType": "uint256",
                    "name": "",
                    "type": "uint256"
                }
            ],
            "stateMutability": "view",
            "type": "function"
        },
        {
            "inputs": [
                {
                    "internalType": "address",
                    "name": "collateralType",
                    "type": "address"
                }
            ],
            "name": "getCollateralRate",
            "outputs": [
                {
                    "internalType": "uint256",
                    "name": "",
                    "type": "uint256"
                }
            ],
            "stateMutability": "view",
            "type": "function"
        },
        {
            "inputs": [
                {
                    "internalType": "address",
                    "name": "lostAddress",
                    "type": "address"
                }
            ],
            "name": "getCollateralType",
            "outputs": [
                {
                    "internalType": "address",
                    "name": "",
                    "type": "address"
                }
            ],
            "stateMutability": "view",
            "type": "function"
        },
        {
            "inputs": [
                {
                    "internalType": "address",
                    "name": "lostAddress",
                    "type": "address"
                }
            ],
            "name": "getTimeStamp",
            "outputs": [
                {
                    "internalType": "uint256",
                    "name": "",
                    "type": "uint256"
                }
            ],
            "stateMutability": "view",
            "type": "function"
        },
        {
            "inputs": [
                {
                    "internalType": "address",
                    "name": "spender",
                    "type": "address"
                },
                {
                    "internalType": "uint256",
                    "name": "addedValue",
                    "type": "uint256"
                }
            ],
            "name": "increaseAllowance",
            "outputs": [
                {
                    "internalType": "bool",
                    "name": "",
                    "type": "bool"
                }
            ],
            "stateMutability": "nonpayable",
            "type": "function"
        },
        {
            "inputs": [],
            "name": "invalidTokens",
            "outputs": [
                {
                    "internalType": "uint256",
                    "name": "",
                    "type": "uint256"
                }
            ],
            "stateMutability": "view",
            "type": "function"
        },
        {
            "inputs": [
                {
                    "internalType": "address",
                    "name": "target",
                    "type": "address"
                }
            ],
            "name": "isRecoveryEnabled",
            "outputs": [
                {
                    "internalType": "bool",
                    "name": "",
                    "type": "bool"
                }
            ],
            "stateMutability": "view",
            "type": "function"
        },
        {
            "inputs": [
                {
                    "internalType": "address",
                    "name": "shareholder",
                    "type": "address"
                },
                {
                    "internalType": "uint256",
                    "name": "_amount",
                    "type": "uint256"
                }
            ],
            "name": "mint",
            "outputs": [],
            "stateMutability": "nonpayable",
            "type": "function"
        },
        {
            "inputs": [
                {
                    "internalType": "address",
                    "name": "shareholder",
                    "type": "address"
                },
                {
                    "internalType": "address",
                    "name": "callee",
                    "type": "address"
                },
                {
                    "internalType": "uint256",
                    "name": "amount",
                    "type": "uint256"
                },
                {
                    "internalType": "bytes",
                    "name": "data",
                    "type": "bytes"
                }
            ],
            "name": "mintAndCall",
            "outputs": [],
            "stateMutability": "nonpayable",
            "type": "function"
        },
        {
            "inputs": [
                {
                    "internalType": "address",
                    "name": "shareholder",
                    "type": "address"
                },
                {
                    "internalType": "uint256",
                    "name": "firstShareNumber",
                    "type": "uint256"
                },
                {
                    "internalType": "uint256",
                    "name": "lastShareNumber",
                    "type": "uint256"
                }
            ],
            "name": "mintNumbered",
            "outputs": [],
            "stateMutability": "nonpayable",
            "type": "function"
        },
        {
            "inputs": [
                {
                    "internalType": "address",
                    "name": "shareholder",
                    "type": "address"
                },
                {
                    "internalType": "address",
                    "name": "callee",
                    "type": "address"
                },
                {
                    "internalType": "uint256",
                    "name": "firstShareNumber",
                    "type": "uint256"
                },
                {
                    "internalType": "uint256",
                    "name": "lastShareNumber",
                    "type": "uint256"
                },
                {
                    "internalType": "bytes",
                    "name": "data",
                    "type": "bytes"
                }
            ],
            "name": "mintNumberedAndCall",
            "outputs": [],
            "stateMutability": "nonpayable",
            "type": "function"
        },
        {
            "inputs": [],
            "name": "name",
            "outputs": [
                {
                    "internalType": "string",
                    "name": "",
                    "type": "string"
                }
            ],
            "stateMutability": "view",
            "type": "function"
        },
        {
            "inputs": [],
            "name": "owner",
            "outputs": [
                {
                    "internalType": "address",
                    "name": "",
                    "type": "address"
                }
            ],
            "stateMutability": "view",
            "type": "function"
        },
        {
            "inputs": [
                {
                    "internalType": "address",
                    "name": "contractAddress",
                    "type": "address"
                }
            ],
            "name": "recognizeSubRegister",
            "outputs": [],
            "stateMutability": "nonpayable",
            "type": "function"
        },
        {
            "inputs": [
                {
                    "internalType": "address",
                    "name": "lostAddress",
                    "type": "address"
                }
            ],
            "name": "recover",
            "outputs": [],
            "stateMutability": "nonpayable",
            "type": "function"
        },
        {
            "inputs": [
                {
                    "internalType": "address",
                    "name": "",
                    "type": "address"
                }
            ],
            "name": "recoveryDisabled",
            "outputs": [
                {
                    "internalType": "bool",
                    "name": "",
                    "type": "bool"
                }
            ],
            "stateMutability": "view",
            "type": "function"
        },
        {
            "inputs": [
                {
                    "internalType": "address",
                    "name": "contractAddress",
                    "type": "address"
                }
            ],
            "name": "removeSubRegister",
            "outputs": [],
            "stateMutability": "nonpayable",
            "type": "function"
        },
        {
            "inputs": [
                {
                    "internalType": "uint256",
                    "name": "claimPeriodInDays",
                    "type": "uint256"
                }
            ],
            "name": "setClaimPeriod",
            "outputs": [],
            "stateMutability": "nonpayable",
            "type": "function"
        },
        {
            "inputs": [
                {
                    "internalType": "address",
                    "name": "collateral",
                    "type": "address"
                },
                {
                    "internalType": "uint256",
                    "name": "rate",
                    "type": "uint256"
                }
            ],
            "name": "setCustomClaimCollateral",
            "outputs": [],
            "stateMutability": "nonpayable",
            "type": "function"
        },
        {
            "inputs": [
                {
                    "internalType": "string",
                    "name": "_symbol",
                    "type": "string"
                },
                {
                    "internalType": "string",
                    "name": "_name",
                    "type": "string"
                }
            ],
            "name": "setName",
            "outputs": [],
            "stateMutability": "nonpayable",
            "type": "function"
        },
        {
            "inputs": [
                {
                    "internalType": "bool",
                    "name": "enabled",
                    "type": "bool"
                }
            ],
            "name": "setRecoverable",
            "outputs": [],
            "stateMutability": "nonpayable",
            "type": "function"
        },
        {
            "inputs": [
                {
                    "internalType": "string",
                    "name": "_terms",
                    "type": "string"
                }
            ],
            "name": "setTerms",
            "outputs": [],
            "stateMutability": "nonpayable",
            "type": "function"
        },
        {
            "inputs": [
                {
                    "internalType": "uint256",
                    "name": "_newTotalShares",
                    "type": "uint256"
                }
            ],
            "name": "setTotalShares",
            "outputs": [],
            "stateMutability": "nonpayable",
            "type": "function"
        },
        {
            "inputs": [
                {
                    "internalType": "uint256",
                    "name": "",
                    "type": "uint256"
                }
            ],
            "name": "subregisters",
            "outputs": [
                {
                    "internalType": "address",
                    "name": "",
                    "type": "address"
                }
            ],
            "stateMutability": "view",
            "type": "function"
        },
        {
            "inputs": [],
            "name": "symbol",
            "outputs": [
                {
                    "internalType": "string",
                    "name": "",
                    "type": "string"
                }
            ],
            "stateMutability": "view",
            "type": "function"
        },
        {
            "inputs": [],
            "name": "terms",
            "outputs": [
                {
                    "internalType": "string",
                    "name": "",
                    "type": "string"
                }
            ],
            "stateMutability": "view",
            "type": "function"
        },
        {
            "inputs": [],
            "name": "totalShares",
            "outputs": [
                {
                    "internalType": "uint256",
                    "name": "",
                    "type": "uint256"
                }
            ],
            "stateMutability": "view",
            "type": "function"
        },
        {
            "inputs": [],
            "name": "totalSupply",
            "outputs": [
                {
                    "internalType": "uint256",
                    "name": "",
                    "type": "uint256"
                }
            ],
            "stateMutability": "view",
            "type": "function"
        },
        {
            "inputs": [],
            "name": "totalValidSupply",
            "outputs": [
                {
                    "internalType": "uint256",
                    "name": "",
                    "type": "uint256"
                }
            ],
            "stateMutability": "view",
            "type": "function"
        },
        {
            "inputs": [
                {
                    "internalType": "address",
                    "name": "recipient",
                    "type": "address"
                },
                {
                    "internalType": "uint256",
                    "name": "amount",
                    "type": "uint256"
                }
            ],
            "name": "transfer",
            "outputs": [
                {
                    "internalType": "bool",
                    "name": "",
                    "type": "bool"
                }
            ],
            "stateMutability": "nonpayable",
            "type": "function"
        },
        {
            "inputs": [
                {
                    "internalType": "address",
                    "name": "recipient",
                    "type": "address"
                },
                {
                    "internalType": "uint256",
                    "name": "amount",
                    "type": "uint256"
                },
                {
                    "internalType": "bytes",
                    "name": "data",
                    "type": "bytes"
                }
            ],
            "name": "transferAndCall",
            "outputs": [
                {
                    "internalType": "bool",
                    "name": "",
                    "type": "bool"
                }
            ],
            "stateMutability": "nonpayable",
            "type": "function"
        },
        {
            "inputs": [
                {
                    "internalType": "address",
                    "name": "sender",
                    "type": "address"
                },
                {
                    "internalType": "address",
                    "name": "recipient",
                    "type": "address"
                },
                {
                    "internalType": "uint256",
                    "name": "amount",
                    "type": "uint256"
                }
            ],
            "name": "transferFrom",
            "outputs": [
                {
                    "internalType": "bool",
                    "name": "",
                    "type": "bool"
                }
            ],
            "stateMutability": "nonpayable",
            "type": "function"
        },
        {
            "inputs": [
                {
                    "internalType": "address",
                    "name": "newOwner",
                    "type": "address"
                }
            ],
            "name": "transferOwnership",
            "outputs": [],
            "stateMutability": "nonpayable",
            "type": "function"
        }
    ],
    "bytecode": "608060405262ed4e006004556000600d556000600e553480156200002257600080fd5b506040516200309338038062003093833981016040819052620000459162000346565b6003805460ff19169055600980546001600160a01b0319163317908190556040516001600160a01b0391909116906000907f8be0079c531659141344cd1fd0a4f28419497f9722a3daafe3b4186f6b6457e0908290a3620000a78484620000d2565b620000b28162000192565b8151620000c790600c90602085019062000217565b505050505062000589565b6009546001600160a01b03163314620001085760405162461bcd60e51b8152600401620000ff90620004bc565b60405180910390fd5b81516200011d90600b90602085019062000217565b5080516200013390600a90602084019062000217565b507f07ce702fc13ca0620c174dab22996a6d5fd9e7accb663555a4e85323692706ba81836040516020016200016a929190620003db565b60408051601f1981840301815290829052620001869162000440565b60405180910390a15050565b6009546001600160a01b03163314620001bf5760405162461bcd60e51b8152600401620000ff90620004bc565b620001c9620001f0565b811015620001eb5760405162461bcd60e51b8152600401620000ff9062000475565b600d55565b600e546000906200020062000211565b6200020c9190620004df565b905090565b60025490565b828054620002259062000536565b90600052602060002090601f01602090048101928262000249576000855562000294565b82601f106200026457805160ff191683800117855562000294565b8280016001018555821562000294579182015b828111156200029457825182559160200191906001019062000277565b50620002a2929150620002a6565b5090565b5b80821115620002a25760008155600101620002a7565b600082601f830112620002ce578081fd5b81516001600160401b0380821115620002eb57620002eb62000573565b604051601f8301601f19168101602001828111828210171562000312576200031262000573565b6040528281528483016020018610156200032a578384fd5b6200033d83602083016020880162000503565b95945050505050565b600080600080608085870312156200035c578384fd5b84516001600160401b038082111562000373578586fd5b6200038188838901620002bd565b9550602087015191508082111562000397578485fd5b620003a588838901620002bd565b94506040870151915080821115620003bb578384fd5b50620003ca87828801620002bd565b606096909601519497939650505050565b60006902732bb903730b6b29d160b51b825283516200040281600a85016020880162000503565b61040560f31b600a9184019182015283516200042681600c84016020880162000503565b602960f81b600c9290910191820152600d01949350505050565b60006020825282518060208401526200046181604085016020870162000503565b601f01601f19169190910160400192915050565b60208082526027908201527f54686572652063616e277420626520666577657220746f6b656e73207468616e6040820152662073686172657360c81b606082015260800190565b6020808252600990820152683737ba1037bbb732b960b91b604082015260600190565b600082821015620004fe57634e487b7160e01b81526011600452602481fd5b500390565b60005b838110156200052057818101518382015260200162000506565b8381111562000530576000848401525b50505050565b6002810460018216806200054b57607f821691505b602082108114156200056d57634e487b7160e01b600052602260045260246000fd5b50919050565b634e487b7160e01b600052604160045260246000fd5b612afa80620005996000396000f3fe608060405234801561001057600080fd5b506004361061030c5760003560e01c80636427ed971161019d578063a457c2d7116100e9578063cc51e143116100a2578063dd62ed3e1161007c578063dd62ed3e14610658578063eb470ebf1461066b578063f2fde38b1461067e578063f54fc060146106915761030c565b8063cc51e1431461062a578063d2c04f431461063d578063d5025625146106505761030c565b8063a457c2d7146105b3578063a77384c1146105c6578063a9059cbb146105d9578063b0d04c7a146105ec578063b40e80d1146105f4578063c6788bdd146106075761030c565b806378f86afc1161015657806395d89b411161013057806395d89b41146105725780639b56d6c91461057a578063a26cf59f1461058d578063a3ec1883146105a05761030c565b806378f86afc1461054f5780637dc2cd98146105625780638da5cb5b1461056a5761030c565b80636427ed97146104f357806369f721e2146105065780636b03ed5f146105195780636e3baaf51461052157806370a082311461052957806377e071ad1461053c5761030c565b806337a8129c1161025c57806340c10f1911610215578063551ad632116101ef578063551ad632146104b25780635c707f07146104c55780635d6624b7146104d857806360918117146104eb5761030c565b806340c10f191461047957806342966c681461048c5780634ae5e6301461049f5761030c565b806337a8129c1461041d57806339509351146104255780633a1cdf32146104385780633a98ef391461044b5780633bcc45ba146104535780634000aea0146104665761030c565b80631e3b9de5116102c957806326773ddd116102a357806326773ddd146103da5780632a0a4ed5146103ed578063313ce567146103f557806332a7ae951461040a5761030c565b80631e3b9de5146103a15780631f0f06aa146103b457806323b872dd146103c75761030c565b806306fdde0314610311578063095ea7b31461032f5780630c6f0e5d1461034f5780630cd865ec1461036457806318160ddd146103795780631993982d1461038e575b600080fd5b6103196106a4565b604051610326919061254e565b60405180910390f35b61034261033d3660046121cc565b610732565b604051610326919061252f565b610357610748565b6040516103269190612481565b61037761037236600461205b565b610757565b005b610381610968565b6040516103269190612977565b61037761039c36600461205b565b61096e565b6103576103af36600461205b565b610b37565b6103776103c23660046122b7565b610b58565b6103426103d53660046120ae565b610bbf565b6103776103e836600461207c565b610c11565b610357610e2f565b6103fd610e3e565b60405161032691906129a8565b61037761041836600461205b565b610e47565b610381611022565b6103426104333660046121cc565b611028565b6103776104463660046121cc565b61105f565b610381611093565b61035761046136600461205b565b611099565b6103426104743660046121f5565b6110ba565b6103776104873660046121cc565b61113d565b61037761049a366004612393565b611171565b6103576104ad366004612393565b6111b1565b6103776104c0366004612156565b6111db565b6103776104d3366004612332565b611266565b6103776104e63660046121f5565b611306565b6103816113af565b61037761050136600461227f565b6113b5565b61037761051436600461224d565b6113d4565b610377611464565b6103816115a0565b61038161053736600461205b565b6115a6565b61038161054a36600461205b565b6115c1565b61037761055d3660046122f7565b611603565b610381611698565b61035761169e565b6103196116ad565b61038161058836600461205b565b6116ba565b61038161059b36600461205b565b6116d8565b6103426105ae36600461205b565b6117c9565b6103426105c13660046121cc565b6117e8565b6103776105d4366004612393565b61181f565b6103426105e73660046121cc565b611875565b6103816118a5565b61034261060236600461205b565b6118c1565b61061a61061536600461205b565b6118d6565b6040516103269493929190612504565b61037761063836600461205b565b611908565b61037761064b366004612393565b6119d3565b610319611a06565b61038161066636600461207c565b611a13565b61038161067936600461205b565b611a3e565b61037761068c36600461205b565b611a5c565b61037761069f3660046120e9565b611ae2565b600a80546106b190612a34565b80601f01602080910402602001604051908101604052809291908181526020018280546106dd90612a34565b801561072a5780601f106106ff5761010080835404028352916020019161072a565b820191906000526020600020905b81548152906001019060200180831161070d57829003601f168201915b505050505081565b600061073f338484611b57565b50600192915050565b6007546001600160a01b031681565b6001600160a01b03808216600090815260056020908152604091829020825160808101845281548516815260018201549281018390526002820154938101939093526003015490921660608201819052909190816107d05760405162461bcd60e51b81526004016107c790612648565b60405180910390fd5b82516001600160a01b031633146107f95760405162461bcd60e51b81526004016107c790612581565b42600454846040015161080c91906129b6565b111561082a5760405162461bcd60e51b81526004016107c7906125b8565b82516001600160a01b0380861660009081526005602052604080822080546001600160a01b0319908116825560018201849055600282019390935560030180549092169091555163a9059cbb60e01b81529083169063a9059cbb9061089590849087906004016124b9565b602060405180830381600087803b1580156108af57600080fd5b505af11580156108c3573d6000803e3d6000fd5b505050506040513d601f19601f820116820180604052508101906108e7919061229b565b6109035760405162461bcd60e51b81526004016107c7906126b7565b6109168582610911886115a6565b611bb2565b806001600160a01b0316856001600160a01b03167f52a5c2b28bc6eb9712d0ced43463103b486b13ccc9cda499fd3b2d7b6a74a8ee856040516109599190612977565b60405180910390a35050505050565b60025490565b6009546001600160a01b031633146109985760405162461bcd60e51b81526004016107c79061291d565b6109a1816115a6565b156109be5760405162461bcd60e51b81526004016107c79061275a565b60005b600f54811015610b3357816001600160a01b0316600f82815481106109f657634e487b7160e01b600052603260045260246000fd5b6000918252602090912001546001600160a01b03161415610b2157600f8054610a21906001906129ed565b81548110610a3f57634e487b7160e01b600052603260045260246000fd5b600091825260209091200154600f80546001600160a01b039092169183908110610a7957634e487b7160e01b600052603260045260246000fd5b9060005260206000200160006101000a8154816001600160a01b0302191690836001600160a01b03160217905550600f805480610ac657634e487b7160e01b600052603160045260246000fd5b600082815260209020810160001990810180546001600160a01b03191690550190556040517fc3f6f866f10921ec4857ee8fe667183cd1751e53ed509c992689bece36ca189890610b18908490612481565b60405180910390a15b80610b2b81612a6f565b9150506109c1565b5050565b6001600160a01b03808216600090815260056020526040902054165b919050565b6009546001600160a01b03163314610b825760405162461bcd60e51b81526004016107c79061291d565b7f07ce702fc13ca0620c174dab22996a6d5fd9e7accb663555a4e85323692706ba8282604051610bb392919061253a565b60405180910390a15050565b6000610bcc848484611bb2565b6001600160a01b038416600090815260016020908152604080832033808552925290912054610c07918691610c029086906129ed565b611b57565b5060019392505050565b610c1a816117c9565b610c365760405162461bcd60e51b81526004016107c7906126ee565b6000610c41836115c1565b905060008111610c635760405162461bcd60e51b81526004016107c790612618565b336000610c6f846115a6565b90506000610c7d84836129ce565b90508582610c9d5760405162461bcd60e51b81526004016107c7906127d8565b6001600160a01b03861660009081526005602052604090206001015415610cd65760405162461bcd60e51b81526004016107c7906127a1565b6040516323b872dd60e01b81526001600160a01b038216906323b872dd90610d0690879030908790600401612495565b602060405180830381600087803b158015610d2057600080fd5b505af1158015610d34573d6000803e3d6000fd5b505050506040513d601f19601f82011682018060405250810190610d58919061229b565b610d745760405162461bcd60e51b81526004016107c7906126b7565b604080516080810182526001600160a01b038087168083526020808401878152428587019081528d8516606087019081528d86166000818152600590955293889020965187549087166001600160a01b0319918216178855925160018801559051600287015551600390950180549590941694169390931790915591517f1982ca8958fc8a8176cb52be509260f4bc5af7ce04e1533711793f1c56dd535990610e1e908790612977565b60405180910390a350505050505050565b6009546001600160a01b031690565b60035460ff1681565b610e4f610e2f565b6001600160a01b0316336001600160a01b031614610e7f5760405162461bcd60e51b81526004016107c790612940565b6001600160a01b038082166000908152600560209081526040918290208251608081018452815485168152600182015492810183905260028201549381019390935260030154909216606082018190529091610eed5760405162461bcd60e51b81526004016107c790612648565b6001600160a01b03808416600090815260056020908152604080832080546001600160a01b031990811682556001820185905560028201949094556003018054909316909255845190850151915163a9059cbb60e01b81529284169263a9059cbb92610f5c92916004016124b9565b602060405180830381600087803b158015610f7657600080fd5b505af1158015610f8a573d6000803e3d6000fd5b505050506040513d601f19601f82011682018060405250810190610fae919061229b565b610fca5760405162461bcd60e51b81526004016107c7906126b7565b81600001516001600160a01b0316836001600160a01b03167fbb036e629a9f4c0897ee5d48440dfdb36f7e772117723a2ed603a6514244c2d584602001516040516110159190612977565b60405180910390a3505050565b600e5481565b3360008181526001602090815260408083206001600160a01b0387168452909152812054909161073f918590610c029086906129b6565b6009546001600160a01b031633146110895760405162461bcd60e51b81526004016107c79061291d565b610b338282611c6f565b600d5481565b6001600160a01b039081166000908152600560205260409020600301541690565b6000806110c78686611875565b9050801561113457604051635260769b60e11b81526001600160a01b0387169063a4c0ed36906111019033908990899089906004016124d2565b600060405180830381600087803b15801561111b57600080fd5b505af115801561112f573d6000803e3d6000fd5b505050505b95945050505050565b6009546001600160a01b031633146111675760405162461bcd60e51b81526004016107c79061291d565b610b338282611cf6565b61117a336115a6565b8111156111995760405162461bcd60e51b81526004016107c79061280f565b6111a4333083611bb2565b6111ae3082611d34565b50565b600f81815481106111c157600080fd5b6000918252602090912001546001600160a01b0316905081565b6111e68685856113d4565b6001600160a01b03851663a4c0ed368761120087876129ed565b61120b9060016129b6565b85856040518563ffffffff1660e01b815260040161122c94939291906124d2565b600060405180830381600087803b15801561124657600080fd5b505af115801561125a573d6000803e3d6000fd5b50505050505050505050565b6009546001600160a01b031633146112905760405162461bcd60e51b81526004016107c79061291d565b81516112a390600b906020850190611ee3565b5080516112b790600a906020840190611ee3565b507f07ce702fc13ca0620c174dab22996a6d5fd9e7accb663555a4e85323692706ba81836040516020016112ec9291906123ed565b60408051601f1981840301815290829052610bb39161254e565b6009546001600160a01b031633146113305760405162461bcd60e51b81526004016107c79061291d565b600061133b856115a6565b90508084111561134a57600080fd5b83600e600082825461135c91906129b6565b92505081905550846001600160a01b03167f0a605cd1294f60fa3b73548ac68428f33300a051f225afcdcc75e56083c96ee78585856040516113a093929190612980565b60405180910390a25050505050565b60085481565b336000908152600660205260409020805460ff19169115919091179055565b6009546001600160a01b031633146113fe5760405162461bcd60e51b81526004016107c79061291d565b826001600160a01b03167f7b37b2b4bba7b5ea40a69f93db727c289fbbaa632be8186cfa85e0297e001319838360405161143992919061299a565b60405180910390a261145f8361144f84846129ed565b61145a9060016129b6565b611cf6565b505050565b336000908152600560205260409020600101541561159e573360008181526005602052604080822060018101805460038301805484546001600160a01b0319908116865593879055600290940195909555908216909355905163a9059cbb60e01b815291926001600160a01b0390911691829163a9059cbb916114ec919086906004016124b9565b602060405180830381600087803b15801561150657600080fd5b505af115801561151a573d6000803e3d6000fd5b505050506040513d601f19601f8201168201806040525081019061153e919061229b565b61155a5760405162461bcd60e51b81526004016107c7906126b7565b336001600160a01b03167f203627483d943880619f4b7e0cca21dbefd6204b4d85b124eb99540e17ba86dd836040516115939190612977565b60405180910390a250505b565b600f5490565b6001600160a01b031660009081526020819052604090205490565b60006001600160a01b0382163014156115dc57506001610b53565b6007546001600160a01b03838116911614156115fb5750600854610b53565b506000610b53565b6009546001600160a01b0316331461162d5760405162461bcd60e51b81526004016107c79061291d565b805161164090600c906020840190611ee3565b507f07ce702fc13ca0620c174dab22996a6d5fd9e7accb663555a4e85323692706ba81604051602001611673919061244e565b60408051601f198184030181529082905261168d9161254e565b60405180910390a150565b60045481565b6009546001600160a01b031681565b600b80546106b190612a34565b6001600160a01b031660009081526005602052604090206001015490565b6000806116e4836115a6565b905060005b600f548110156117c2576000600f828154811061171657634e487b7160e01b600052603260045260246000fd5b6000918252602090912001546040516370a0823160e01b81526001600160a01b03909116915081906370a0823190611752908890600401612481565b60206040518083038186803b15801561176a57600080fd5b505afa15801561177e573d6000803e3d6000fd5b505050506040513d601f19601f820116820180604052508101906117a291906123ab565b6117ac90846129b6565b92505080806117ba90612a6f565b9150506116e9565b5092915050565b6001600160a01b031660009081526006602052604090205460ff161590565b3360008181526001602090815260408083206001600160a01b0387168452909152812054909161073f918590610c029086906129ed565b6009546001600160a01b031633146118495760405162461bcd60e51b81526004016107c79061291d565b6118516118a5565b8110156118705760405162461bcd60e51b81526004016107c790612670565b600d55565b60006118818383611dce565b61189d5760405162461bcd60e51b81526004016107c7906125ef565b61073f611464565b6000600e546118b2610968565b6118bc91906129ed565b905090565b60066020526000908152604090205460ff1681565b60056020526000908152604090208054600182015460028301546003909301546001600160a01b039283169391921684565b6009546001600160a01b031633146119325760405162461bcd60e51b81526004016107c79061291d565b61193b816115a6565b156119585760405162461bcd60e51b81526004016107c790612846565b600f80546001810182556000919091527f8d1108e10bcb7c27dddfc02ed9d693a074039d026cf4ea4240b40f7d581ac8020180546001600160a01b0319166001600160a01b0383161790556040517f7417b75095e577f15d994b058af7a3a71f67be4ae2f288725d1b922f6bb67a679061168d908390612481565b6009546001600160a01b031633146119fd5760405162461bcd60e51b81526004016107c79061291d565b6111ae81611ddb565b600c80546106b190612a34565b6001600160a01b03918216600090815260016020908152604080832093909416825291909152205490565b6001600160a01b031660009081526005602052604090206002015490565b6009546001600160a01b03163314611a865760405162461bcd60e51b81526004016107c79061291d565b6009546040516001600160a01b038084169216907f8be0079c531659141344cd1fd0a4f28419497f9722a3daafe3b4186f6b6457e090600090a3600980546001600160a01b0319166001600160a01b0392909216919091179055565b611aec848461113d565b604051635260769b60e11b81526001600160a01b0385169063a4c0ed3690611b1e9088908790879087906004016124d2565b600060405180830381600087803b158015611b3857600080fd5b505af1158015611b4c573d6000803e3d6000fd5b505050505050505050565b6001600160a01b0380841660008181526001602090815260408083209487168084529490915290819020849055517f8c5be1e5ebec7d5bd14f71427d1e84f3dd0314c0f7b2291e5b200ac8c7c3b92590611015908590612977565b6001600160a01b038216611bc557600080fd5b611bd083838361145f565b6001600160a01b03831660009081526020819052604081208054839290611bf89084906129ed565b90915550506001600160a01b03821660009081526020819052604081208054839290611c259084906129b6565b92505081905550816001600160a01b0316836001600160a01b03167fddf252ad1be2c89b69c2b068fc378daa952ba7f163c4a11628f55a4df523b3ef836040516110159190612977565b600780546001600160a01b0319166001600160a01b03848116919091179182905516611c9f576000600855611cc5565b60008111611cbf5760405162461bcd60e51b81526004016107c790612723565b60088190555b7f94238858463adf0fecc0e064844831a54bccf8467c86f0b93d2a9508e05968538282604051610bb39291906124b9565b600d5481611d026118a5565b611d0c91906129b6565b1115611d2a5760405162461bcd60e51b81526004016107c7906128d0565b610b338282611e42565b611d408260008361145f565b8060026000828254611d5291906129ed565b90915550506001600160a01b03821660009081526020819052604081208054839290611d7f9084906129ed565b90915550506040516000906001600160a01b038416907fddf252ad1be2c89b69c2b068fc378daa952ba7f163c4a11628f55a4df523b3ef90611dc2908590612977565b60405180910390a35050565b600061073f338484611bb2565b605a8111611dfb5760405162461bcd60e51b81526004016107c79061288b565b6000611e0a82620151806129ce565b60048190556040519091507ffde5ae686f4fb7b301820b66139fa5cbed90c4b91428ce2fe961558fcac47ba690610bb3908390612977565b6001600160a01b038216611e5557600080fd5b611e616000838361145f565b8060026000828254611e7391906129b6565b90915550506001600160a01b03821660009081526020819052604081208054839290611ea09084906129b6565b90915550506040516001600160a01b038316906000907fddf252ad1be2c89b69c2b068fc378daa952ba7f163c4a11628f55a4df523b3ef90611dc2908590612977565b828054611eef90612a34565b90600052602060002090601f016020900481019282611f115760008555611f57565b82601f10611f2a57805160ff1916838001178555611f57565b82800160010185558215611f57579182015b82811115611f57578251825591602001919060010190611f3c565b50611f63929150611f67565b5090565b5b80821115611f635760008155600101611f68565b80356001600160a01b0381168114610b5357600080fd5b60008083601f840112611fa4578182fd5b50813567ffffffffffffffff811115611fbb578182fd5b602083019150836020828501011115611fd357600080fd5b9250929050565b600082601f830112611fea578081fd5b813567ffffffffffffffff8082111561200557612005612aa0565b604051601f8301601f19168101602001828111828210171561202957612029612aa0565b604052828152848301602001861015612040578384fd5b82602086016020830137918201602001929092529392505050565b60006020828403121561206c578081fd5b61207582611f7c565b9392505050565b6000806040838503121561208e578081fd5b61209783611f7c565b91506120a560208401611f7c565b90509250929050565b6000806000606084860312156120c2578081fd5b6120cb84611f7c565b92506120d960208501611f7c565b9150604084013590509250925092565b600080600080600060808688031215612100578081fd5b61210986611f7c565b945061211760208701611f7c565b935060408601359250606086013567ffffffffffffffff811115612139578182fd5b61214588828901611f93565b969995985093965092949392505050565b60008060008060008060a0878903121561216e578081fd5b61217787611f7c565b955061218560208801611f7c565b94506040870135935060608701359250608087013567ffffffffffffffff8111156121ae578182fd5b6121ba89828a01611f93565b979a9699509497509295939492505050565b600080604083850312156121de578182fd5b6121e783611f7c565b946020939093013593505050565b6000806000806060858703121561220a578384fd5b61221385611f7c565b935060208501359250604085013567ffffffffffffffff811115612235578283fd5b61224187828801611f93565b95989497509550505050565b600080600060608486031215612261578283fd5b61226a84611f7c565b95602085013595506040909401359392505050565b600060208284031215612290578081fd5b813561207581612ab6565b6000602082840312156122ac578081fd5b815161207581612ab6565b600080602083850312156122c9578182fd5b823567ffffffffffffffff8111156122df578283fd5b6122eb85828601611f93565b90969095509350505050565b600060208284031215612308578081fd5b813567ffffffffffffffff81111561231e578182fd5b61232a84828501611fda565b949350505050565b60008060408385031215612344578182fd5b823567ffffffffffffffff8082111561235b578384fd5b61236786838701611fda565b9350602085013591508082111561237c578283fd5b5061238985828601611fda565b9150509250929050565b6000602082840312156123a4578081fd5b5035919050565b6000602082840312156123bc578081fd5b5051919050565b60008284528282602086013780602084860101526020601f19601f85011685010190509392505050565b60006902732bb903730b6b29d160b51b8252835161241281600a850160208801612a04565b61040560f31b600a91840191820152835161243481600c840160208801612a04565b602960f81b600c9290910191820152600d01949350505050565b60006a02732bb903a32b936b99d160ad1b8252825161247481600b850160208701612a04565b91909101600b0192915050565b6001600160a01b0391909116815260200190565b6001600160a01b039384168152919092166020820152604081019190915260600190565b6001600160a01b03929092168252602082015260400190565b600060018060a01b0386168252846020830152606060408301526124fa6060830184866123c3565b9695505050505050565b6001600160a01b03948516815260208101939093526040830191909152909116606082015260800190565b901515815260200190565b60006020825261232a6020830184866123c3565b600060208252825180602084015261256d816040850160208701612a04565b601f01601f19169190910160400192915050565b6020808252601f908201527f4f6e6c7920636c61696d616e742063616e207265736f6c766520636c61696d00604082015260600190565b60208082526019908201527f436c61696d20706572696f64206e6f74206f7665722079657400000000000000604082015260600190565b6020808252600f908201526e151c985b9cd9995c8819985a5b1959608a1b604082015260600190565b602080825260169082015275155b9cdd5c1c1bdc9d19590818dbdb1b185d195c985b60521b604082015260600190565b6020808252600e908201526d139bc818db185a5b48199bdd5b9960921b604082015260600190565b60208082526027908201527f54686572652063616e277420626520666577657220746f6b656e73207468616e6040820152662073686172657360c81b606082015260800190565b6020808252601a908201527f436f6c6c61746572616c207472616e73666572206661696c6564000000000000604082015260600190565b6020808252818101527f436c61696d732064697361626c656420666f7220746869732061646472657373604082015260600190565b6020808252601d908201527f436f6c6c61746572616c20726174652063616e2774206265207a65726f000000604082015260600190565b60208082526027908201527f537562726567697374657273206d75737420626520656d707479207768656e206040820152661c995b5bdd995960ca1b606082015260800190565b60208082526017908201527f4164647265737320616c726561647920636c61696d6564000000000000000000604082015260600190565b6020808252601f908201527f436c61696d6564206164647265737320686f6c6473206e6f2073686172657300604082015260600190565b6020808252601b908201527f4e6f7420656e6f7567682073686172657320617661696c61626c650000000000604082015260600190565b60208082526025908201527f537562726567697374657273206d75737420626520656d707479207768656e20604082015264185919195960da1b606082015260800190565b60208082526025908201527f436c61696d20706572696f64206d757374206265206174206c65617374203930604082015264206461797360d81b606082015260800190565b6020808252602d908201527f54686572652063616e277420626520666577657220736861726573207468616e60408201526c2076616c696420746f6b656e7360981b606082015260800190565b6020808252600990820152683737ba1037bbb732b960b91b604082015260600190565b60208082526018908201527f596f752063616e6e6f742064656c65746520636c61696d730000000000000000604082015260600190565b90815260200190565b6000848252604060208301526111346040830184866123c3565b918252602082015260400190565b60ff91909116815260200190565b600082198211156129c9576129c9612a8a565b500190565b60008160001904831182151516156129e8576129e8612a8a565b500290565b6000828210156129ff576129ff612a8a565b500390565b60005b83811015612a1f578181015183820152602001612a07565b83811115612a2e576000848401525b50505050565b600281046001821680612a4857607f821691505b60208210811415612a6957634e487b7160e01b600052602260045260246000fd5b50919050565b6000600019821415612a8357612a83612a8a565b5060010190565b634e487b7160e01b600052601160045260246000fd5b634e487b7160e01b600052604160045260246000fd5b80151581146111ae57600080fdfea26469706673582212206bea04743b6d6739bb10e2f1c3d14ffae367b249ce35290ea9b5eb97cdc788e764736f6c63430008000033",
    "sourcePath": "c:/Users/luziu/Documents/aktionariat/contracts/src/Shares.sol",
    "compiler": {
        "name": "solc",
        "version": "0.8.0+commit.c7dfd78e"
    },
    "functionHashes": {
        "allowance(address,address)": "dd62ed3e",
        "announcement(string)": "1f0f06aa",
        "approve(address,uint256)": "095ea7b3",
        "balanceOf(address)": "70a08231",
        "balanceOfDeep(address)": "a26cf59f",
        "burn(uint256)": "42966c68",
        "claimPeriod()": "7dc2cd98",
        "claims(address)": "c6788bdd",
        "clearClaim()": "6b03ed5f",
        "countSubregisters()": "6e3baaf5",
        "customCollateralAddress()": "0c6f0e5d",
        "customCollateralRate()": "60918117",
        "decimals()": "313ce567",
        "declareInvalid(address,uint256,string)": "5d6624b7",
        "declareLost(address,address)": "26773ddd",
        "decreaseAllowance(address,uint256)": "a457c2d7",
        "deleteClaim(address)": "32a7ae95",
        "getClaimDeleter()": "2a0a4ed5",
        "getClaimant(address)": "1e3b9de5",
        "getCollateral(address)": "9b56d6c9",
        "getCollateralRate(address)": "77e071ad",
        "getCollateralType(address)": "3bcc45ba",
        "getTimeStamp(address)": "eb470ebf",
        "increaseAllowance(address,uint256)": "39509351",
        "invalidTokens()": "37a8129c",
        "isRecoveryEnabled(address)": "a3ec1883",
        "mint(address,uint256)": "40c10f19",
        "mintAndCall(address,address,uint256,bytes)": "f54fc060",
        "mintNumbered(address,uint256,uint256)": "69f721e2",
        "mintNumberedAndCall(address,address,uint256,uint256,bytes)": "551ad632",
        "name()": "06fdde03",
        "owner()": "8da5cb5b",
        "recognizeSubRegister(address)": "cc51e143",
        "recover(address)": "0cd865ec",
        "recoveryDisabled(address)": "b40e80d1",
        "removeSubRegister(address)": "1993982d",
        "setClaimPeriod(uint256)": "d2c04f43",
        "setCustomClaimCollateral(address,uint256)": "3a1cdf32",
        "setName(string,string)": "5c707f07",
        "setRecoverable(bool)": "6427ed97",
        "setTerms(string)": "78f86afc",
        "setTotalShares(uint256)": "a77384c1",
        "subregisters(uint256)": "4ae5e630",
        "symbol()": "95d89b41",
        "terms()": "d5025625",
        "totalShares()": "3a98ef39",
        "totalSupply()": "18160ddd",
        "totalValidSupply()": "b0d04c7a",
        "transfer(address,uint256)": "a9059cbb",
        "transferAndCall(address,uint256,bytes)": "4000aea0",
        "transferFrom(address,address,uint256)": "23b872dd",
        "transferOwnership(address)": "f2fde38b"
    },
    "gasEstimates": {
        "creation": {
            "codeDepositCost": "2200400",
            "executionCost": "infinite",
            "totalCost": "infinite"
        },
        "external": {
            "allowance(address,address)": "infinite",
            "announcement(string)": "infinite",
            "approve(address,uint256)": "22555",
            "balanceOf(address)": "1407",
            "balanceOfDeep(address)": "infinite",
            "burn(uint256)": "infinite",
            "claimPeriod()": "1118",
            "claims(address)": "3978",
            "clearClaim()": "infinite",
            "countSubregisters()": "1140",
            "customCollateralAddress()": "1161",
            "customCollateralRate()": "1161",
            "decimals()": "1158",
            "declareInvalid(address,uint256,string)": "infinite",
            "declareLost(address,address)": "infinite",
            "decreaseAllowance(address,uint256)": "23566",
            "deleteClaim(address)": "infinite",
            "getClaimDeleter()": "1160",
            "getClaimant(address)": "infinite",
            "getCollateral(address)": "1365",
            "getCollateralRate(address)": "infinite",
            "getCollateralType(address)": "1443",
            "getTimeStamp(address)": "1364",
            "increaseAllowance(address,uint256)": "23592",
            "invalidTokens()": "1074",
            "isRecoveryEnabled(address)": "1418",
            "mint(address,uint256)": "infinite",
            "mintAndCall(address,address,uint256,bytes)": "infinite",
            "mintNumbered(address,uint256,uint256)": "infinite",
            "mintNumberedAndCall(address,address,uint256,uint256,bytes)": "infinite",
            "name()": "infinite",
            "owner()": "1182",
            "recognizeSubRegister(address)": "44955",
            "recover(address)": "infinite",
            "recoveryDisabled(address)": "1397",
            "removeSubRegister(address)": "infinite",
            "setClaimPeriod(uint256)": "22411",
            "setCustomClaimCollateral(address,uint256)": "43604",
            "setName(string,string)": "infinite",
            "setRecoverable(bool)": "21234",
            "setTerms(string)": "infinite",
            "setTotalShares(uint256)": "22889",
            "subregisters(uint256)": "2150",
            "symbol()": "infinite",
            "terms()": "infinite",
            "totalShares()": "1140",
            "totalSupply()": "1163",
            "totalValidSupply()": "2044",
            "transfer(address,uint256)": "infinite",
            "transferAndCall(address,uint256,bytes)": "infinite",
            "transferFrom(address,address,uint256)": "infinite",
            "transferOwnership(address)": "24475"
        },
        "internal": {
            "_beforeTokenTransfer(address,address,uint256)": "infinite",
            "_mint(address,uint256)": "infinite"
        }
    }
}