{
    "contractName": "Shares",
    "abi": [
        {
            "inputs": [
                {
                    "internalType": "string",
                    "name": "_symbol",
                    "type": "string"
                },
                {
                    "internalType": "string",
                    "name": "_name",
                    "type": "string"
                },
                {
                    "internalType": "string",
                    "name": "_terms",
                    "type": "string"
                }
            ],
            "stateMutability": "nonpayable",
            "type": "constructor"
        },
        {
            "anonymous": false,
            "inputs": [
                {
                    "indexed": false,
                    "internalType": "string",
                    "name": "message",
                    "type": "string"
                }
            ],
            "name": "Announcement",
            "type": "event"
        },
        {
            "anonymous": false,
            "inputs": [
                {
                    "indexed": true,
                    "internalType": "address",
                    "name": "owner",
                    "type": "address"
                },
                {
                    "indexed": true,
                    "internalType": "address",
                    "name": "spender",
                    "type": "address"
                },
                {
                    "indexed": false,
                    "internalType": "uint256",
                    "name": "value",
                    "type": "uint256"
                }
            ],
            "name": "Approval",
            "type": "event"
        },
        {
            "anonymous": false,
            "inputs": [
                {
                    "indexed": true,
                    "internalType": "address",
                    "name": "lostAddress",
                    "type": "address"
                },
                {
                    "indexed": false,
                    "internalType": "uint256",
                    "name": "collateral",
                    "type": "uint256"
                }
            ],
            "name": "ClaimCleared",
            "type": "event"
        },
        {
            "anonymous": false,
            "inputs": [
                {
                    "indexed": true,
                    "internalType": "address",
                    "name": "lostAddress",
                    "type": "address"
                },
                {
                    "indexed": true,
                    "internalType": "address",
                    "name": "claimant",
                    "type": "address"
                },
                {
                    "indexed": false,
                    "internalType": "uint256",
                    "name": "collateral",
                    "type": "uint256"
                }
            ],
            "name": "ClaimDeleted",
            "type": "event"
        },
        {
            "anonymous": false,
            "inputs": [
                {
                    "indexed": true,
                    "internalType": "address",
                    "name": "lostAddress",
                    "type": "address"
                },
                {
                    "indexed": true,
                    "internalType": "address",
                    "name": "claimant",
                    "type": "address"
                },
                {
                    "indexed": false,
                    "internalType": "uint256",
                    "name": "balance",
                    "type": "uint256"
                }
            ],
            "name": "ClaimMade",
            "type": "event"
        },
        {
            "anonymous": false,
            "inputs": [
                {
                    "indexed": false,
                    "internalType": "uint256",
                    "name": "newClaimPeriodInDays",
                    "type": "uint256"
                }
            ],
            "name": "ClaimPeriodChanged",
            "type": "event"
        },
        {
            "anonymous": false,
            "inputs": [
                {
                    "indexed": true,
                    "internalType": "address",
                    "name": "lostAddress",
                    "type": "address"
                },
                {
                    "indexed": true,
                    "internalType": "address",
                    "name": "claimant",
                    "type": "address"
                },
                {
                    "indexed": false,
                    "internalType": "uint256",
                    "name": "collateral",
                    "type": "uint256"
                }
            ],
            "name": "ClaimResolved",
            "type": "event"
        },
        {
            "anonymous": false,
            "inputs": [
                {
                    "indexed": false,
                    "internalType": "address",
                    "name": "newCustomCollateralAddress",
                    "type": "address"
                },
                {
                    "indexed": false,
                    "internalType": "uint256",
                    "name": "newCustomCollareralRate",
                    "type": "uint256"
                }
            ],
            "name": "CustomClaimCollateralChanged",
            "type": "event"
        },
        {
            "anonymous": false,
            "inputs": [
                {
                    "indexed": true,
                    "internalType": "address",
                    "name": "previousOwner",
                    "type": "address"
                },
                {
                    "indexed": true,
                    "internalType": "address",
                    "name": "newOwner",
                    "type": "address"
                }
            ],
            "name": "OwnershipTransferred",
            "type": "event"
        },
        {
            "anonymous": false,
            "inputs": [
                {
                    "indexed": true,
                    "internalType": "address",
                    "name": "holder",
                    "type": "address"
                },
                {
                    "indexed": false,
                    "internalType": "uint256",
                    "name": "firstInclusive",
                    "type": "uint256"
                },
                {
                    "indexed": false,
                    "internalType": "uint256",
                    "name": "lastInclusive",
                    "type": "uint256"
                }
            ],
            "name": "ShareNumberingEvent",
            "type": "event"
        },
        {
            "anonymous": false,
            "inputs": [
                {
                    "indexed": false,
                    "internalType": "address",
                    "name": "contractAddress",
                    "type": "address"
                }
            ],
            "name": "SubRegisterAdded",
            "type": "event"
        },
        {
            "anonymous": false,
            "inputs": [
                {
                    "indexed": false,
                    "internalType": "address",
                    "name": "contractAddress",
                    "type": "address"
                }
            ],
            "name": "SubRegisterRemoved",
            "type": "event"
        },
        {
            "anonymous": false,
            "inputs": [
                {
                    "indexed": true,
                    "internalType": "address",
                    "name": "holder",
                    "type": "address"
                },
                {
                    "indexed": false,
                    "internalType": "uint256",
                    "name": "amount",
                    "type": "uint256"
                },
                {
                    "indexed": false,
                    "internalType": "string",
                    "name": "message",
                    "type": "string"
                }
            ],
            "name": "TokensDeclaredInvalid",
            "type": "event"
        },
        {
            "anonymous": false,
            "inputs": [
                {
                    "indexed": true,
                    "internalType": "address",
                    "name": "from",
                    "type": "address"
                },
                {
                    "indexed": true,
                    "internalType": "address",
                    "name": "to",
                    "type": "address"
                },
                {
                    "indexed": false,
                    "internalType": "uint256",
                    "name": "value",
                    "type": "uint256"
                }
            ],
            "name": "Transfer",
            "type": "event"
        },
        {
            "inputs": [
                {
                    "internalType": "address",
                    "name": "owner",
                    "type": "address"
                },
                {
                    "internalType": "address",
                    "name": "spender",
                    "type": "address"
                }
            ],
            "name": "allowance",
            "outputs": [
                {
                    "internalType": "uint256",
                    "name": "",
                    "type": "uint256"
                }
            ],
            "stateMutability": "view",
            "type": "function"
        },
        {
            "inputs": [
                {
                    "internalType": "string",
                    "name": "message",
                    "type": "string"
                }
            ],
            "name": "announcement",
            "outputs": [],
            "stateMutability": "nonpayable",
            "type": "function"
        },
        {
            "inputs": [
                {
                    "internalType": "address",
                    "name": "spender",
                    "type": "address"
                },
                {
                    "internalType": "uint256",
                    "name": "value",
                    "type": "uint256"
                }
            ],
            "name": "approve",
            "outputs": [
                {
                    "internalType": "bool",
                    "name": "",
                    "type": "bool"
                }
            ],
            "stateMutability": "nonpayable",
            "type": "function"
        },
        {
            "inputs": [
                {
                    "internalType": "address",
                    "name": "account",
                    "type": "address"
                }
            ],
            "name": "balanceOf",
            "outputs": [
                {
                    "internalType": "uint256",
                    "name": "",
                    "type": "uint256"
                }
            ],
            "stateMutability": "view",
            "type": "function"
        },
        {
            "inputs": [
                {
                    "internalType": "address",
                    "name": "holder",
                    "type": "address"
                }
            ],
            "name": "balanceOfDeep",
            "outputs": [
                {
                    "internalType": "uint256",
                    "name": "",
                    "type": "uint256"
                }
            ],
            "stateMutability": "view",
            "type": "function"
        },
        {
            "inputs": [
                {
                    "internalType": "uint256",
                    "name": "_amount",
                    "type": "uint256"
                }
            ],
            "name": "burn",
            "outputs": [],
            "stateMutability": "nonpayable",
            "type": "function"
        },
        {
            "inputs": [],
            "name": "claimPeriod",
            "outputs": [
                {
                    "internalType": "uint256",
                    "name": "",
                    "type": "uint256"
                }
            ],
            "stateMutability": "view",
            "type": "function"
        },
        {
            "inputs": [
                {
                    "internalType": "address",
                    "name": "",
                    "type": "address"
                }
            ],
            "name": "claims",
            "outputs": [
                {
                    "internalType": "address",
                    "name": "claimant",
                    "type": "address"
                },
                {
                    "internalType": "uint256",
                    "name": "collateral",
                    "type": "uint256"
                },
                {
                    "internalType": "uint256",
                    "name": "timestamp",
                    "type": "uint256"
                },
                {
                    "internalType": "address",
                    "name": "currencyUsed",
                    "type": "address"
                }
            ],
            "stateMutability": "view",
            "type": "function"
        },
        {
            "inputs": [],
            "name": "clearClaim",
            "outputs": [],
            "stateMutability": "nonpayable",
            "type": "function"
        },
        {
            "inputs": [],
            "name": "countSubregisters",
            "outputs": [
                {
                    "internalType": "uint256",
                    "name": "",
                    "type": "uint256"
                }
            ],
            "stateMutability": "view",
            "type": "function"
        },
        {
            "inputs": [],
            "name": "customCollateralAddress",
            "outputs": [
                {
                    "internalType": "address",
                    "name": "",
                    "type": "address"
                }
            ],
            "stateMutability": "view",
            "type": "function"
        },
        {
            "inputs": [],
            "name": "customCollateralRate",
            "outputs": [
                {
                    "internalType": "uint256",
                    "name": "",
                    "type": "uint256"
                }
            ],
            "stateMutability": "view",
            "type": "function"
        },
        {
            "inputs": [],
            "name": "decimals",
            "outputs": [
                {
                    "internalType": "uint8",
                    "name": "",
                    "type": "uint8"
                }
            ],
            "stateMutability": "view",
            "type": "function"
        },
        {
            "inputs": [
                {
                    "internalType": "address",
                    "name": "holder",
                    "type": "address"
                },
                {
                    "internalType": "uint256",
                    "name": "amount",
                    "type": "uint256"
                },
                {
                    "internalType": "string",
                    "name": "message",
                    "type": "string"
                }
            ],
            "name": "declareInvalid",
            "outputs": [],
            "stateMutability": "nonpayable",
            "type": "function"
        },
        {
            "inputs": [
                {
                    "internalType": "address",
                    "name": "collateralType",
                    "type": "address"
                },
                {
                    "internalType": "address",
                    "name": "lostAddress",
                    "type": "address"
                }
            ],
            "name": "declareLost",
            "outputs": [],
            "stateMutability": "nonpayable",
            "type": "function"
        },
        {
            "inputs": [
                {
                    "internalType": "address",
                    "name": "spender",
                    "type": "address"
                },
                {
                    "internalType": "uint256",
                    "name": "subtractedValue",
                    "type": "uint256"
                }
            ],
            "name": "decreaseAllowance",
            "outputs": [
                {
                    "internalType": "bool",
                    "name": "",
                    "type": "bool"
                }
            ],
            "stateMutability": "nonpayable",
            "type": "function"
        },
        {
            "inputs": [
                {
                    "internalType": "address",
                    "name": "lostAddress",
                    "type": "address"
                }
            ],
            "name": "deleteClaim",
            "outputs": [],
            "stateMutability": "nonpayable",
            "type": "function"
        },
        {
            "inputs": [],
            "name": "getClaimDeleter",
            "outputs": [
                {
                    "internalType": "address",
                    "name": "",
                    "type": "address"
                }
            ],
            "stateMutability": "view",
            "type": "function"
        },
        {
            "inputs": [
                {
                    "internalType": "address",
                    "name": "lostAddress",
                    "type": "address"
                }
            ],
            "name": "getClaimant",
            "outputs": [
                {
                    "internalType": "address",
                    "name": "",
                    "type": "address"
                }
            ],
            "stateMutability": "view",
            "type": "function"
        },
        {
            "inputs": [
                {
                    "internalType": "address",
                    "name": "lostAddress",
                    "type": "address"
                }
            ],
            "name": "getCollateral",
            "outputs": [
                {
                    "internalType": "uint256",
                    "name": "",
                    "type": "uint256"
                }
            ],
            "stateMutability": "view",
            "type": "function"
        },
        {
            "inputs": [
                {
                    "internalType": "address",
                    "name": "collateralType",
                    "type": "address"
                }
            ],
            "name": "getCollateralRate",
            "outputs": [
                {
                    "internalType": "uint256",
                    "name": "",
                    "type": "uint256"
                }
            ],
            "stateMutability": "view",
            "type": "function"
        },
        {
            "inputs": [
                {
                    "internalType": "address",
                    "name": "lostAddress",
                    "type": "address"
                }
            ],
            "name": "getCollateralType",
            "outputs": [
                {
                    "internalType": "address",
                    "name": "",
                    "type": "address"
                }
            ],
            "stateMutability": "view",
            "type": "function"
        },
        {
            "inputs": [
                {
                    "internalType": "address",
                    "name": "lostAddress",
                    "type": "address"
                }
            ],
            "name": "getTimeStamp",
            "outputs": [
                {
                    "internalType": "uint256",
                    "name": "",
                    "type": "uint256"
                }
            ],
            "stateMutability": "view",
            "type": "function"
        },
        {
            "inputs": [
                {
                    "internalType": "address",
                    "name": "spender",
                    "type": "address"
                },
                {
                    "internalType": "uint256",
                    "name": "addedValue",
                    "type": "uint256"
                }
            ],
            "name": "increaseAllowance",
            "outputs": [
                {
                    "internalType": "bool",
                    "name": "",
                    "type": "bool"
                }
            ],
            "stateMutability": "nonpayable",
            "type": "function"
        },
        {
            "inputs": [],
            "name": "invalidTokens",
            "outputs": [
                {
                    "internalType": "uint256",
                    "name": "",
                    "type": "uint256"
                }
            ],
            "stateMutability": "view",
            "type": "function"
        },
        {
            "inputs": [
                {
                    "internalType": "address",
                    "name": "target",
                    "type": "address"
                }
            ],
            "name": "isRecoveryEnabled",
            "outputs": [
                {
                    "internalType": "bool",
                    "name": "",
                    "type": "bool"
                }
            ],
            "stateMutability": "view",
            "type": "function"
        },
        {
            "inputs": [
                {
                    "internalType": "address",
                    "name": "shareholder",
                    "type": "address"
                },
                {
                    "internalType": "uint256",
                    "name": "_amount",
                    "type": "uint256"
                }
            ],
            "name": "mint",
            "outputs": [],
            "stateMutability": "nonpayable",
            "type": "function"
        },
        {
            "inputs": [
                {
                    "internalType": "address",
                    "name": "shareholder",
                    "type": "address"
                },
                {
                    "internalType": "address",
                    "name": "callee",
                    "type": "address"
                },
                {
                    "internalType": "uint256",
                    "name": "amount",
                    "type": "uint256"
                },
                {
                    "internalType": "bytes",
                    "name": "data",
                    "type": "bytes"
                }
            ],
            "name": "mintAndCall",
            "outputs": [],
            "stateMutability": "nonpayable",
            "type": "function"
        },
        {
            "inputs": [
                {
                    "internalType": "address",
                    "name": "shareholder",
                    "type": "address"
                },
                {
                    "internalType": "uint256",
                    "name": "firstShareNumber",
                    "type": "uint256"
                },
                {
                    "internalType": "uint256",
                    "name": "lastShareNumber",
                    "type": "uint256"
                }
            ],
            "name": "mintNumbered",
            "outputs": [],
            "stateMutability": "nonpayable",
            "type": "function"
        },
        {
            "inputs": [
                {
                    "internalType": "address",
                    "name": "shareholder",
                    "type": "address"
                },
                {
                    "internalType": "address",
                    "name": "callee",
                    "type": "address"
                },
                {
                    "internalType": "uint256",
                    "name": "amount",
                    "type": "uint256"
                },
                {
                    "internalType": "bytes",
                    "name": "data",
                    "type": "bytes"
                },
                {
                    "internalType": "uint256",
                    "name": "firstShareNumber",
                    "type": "uint256"
                },
                {
                    "internalType": "uint256",
                    "name": "lastShareNumber",
                    "type": "uint256"
                }
            ],
            "name": "mintNumberedAndCall",
            "outputs": [],
            "stateMutability": "nonpayable",
            "type": "function"
        },
        {
            "inputs": [],
            "name": "name",
            "outputs": [
                {
                    "internalType": "string",
                    "name": "",
                    "type": "string"
                }
            ],
            "stateMutability": "view",
            "type": "function"
        },
        {
            "inputs": [],
            "name": "owner",
            "outputs": [
                {
                    "internalType": "address",
                    "name": "",
                    "type": "address"
                }
            ],
            "stateMutability": "view",
            "type": "function"
        },
        {
            "inputs": [
                {
                    "internalType": "address",
                    "name": "contractAddress",
                    "type": "address"
                }
            ],
            "name": "recognizeSubRegister",
            "outputs": [],
            "stateMutability": "nonpayable",
            "type": "function"
        },
        {
            "inputs": [
                {
                    "internalType": "address",
                    "name": "lostAddress",
                    "type": "address"
                }
            ],
            "name": "recover",
            "outputs": [],
            "stateMutability": "nonpayable",
            "type": "function"
        },
        {
            "inputs": [
                {
                    "internalType": "address",
                    "name": "",
                    "type": "address"
                }
            ],
            "name": "recoveryDisabled",
            "outputs": [
                {
                    "internalType": "bool",
                    "name": "",
                    "type": "bool"
                }
            ],
            "stateMutability": "view",
            "type": "function"
        },
        {
            "inputs": [
                {
                    "internalType": "address",
                    "name": "contractAddress",
                    "type": "address"
                }
            ],
            "name": "removeSubRegister",
            "outputs": [],
            "stateMutability": "nonpayable",
            "type": "function"
        },
        {
            "inputs": [
                {
                    "internalType": "uint256",
                    "name": "claimPeriodInDays",
                    "type": "uint256"
                }
            ],
            "name": "setClaimPeriod",
            "outputs": [],
            "stateMutability": "nonpayable",
            "type": "function"
        },
        {
            "inputs": [
                {
                    "internalType": "address",
                    "name": "collateral",
                    "type": "address"
                },
                {
                    "internalType": "uint256",
                    "name": "rate",
                    "type": "uint256"
                }
            ],
            "name": "setCustomClaimCollateral",
            "outputs": [],
            "stateMutability": "nonpayable",
            "type": "function"
        },
        {
            "inputs": [
                {
                    "internalType": "string",
                    "name": "_symbol",
                    "type": "string"
                },
                {
                    "internalType": "string",
                    "name": "_name",
                    "type": "string"
                }
            ],
            "name": "setName",
            "outputs": [],
            "stateMutability": "nonpayable",
            "type": "function"
        },
        {
            "inputs": [
                {
                    "internalType": "bool",
                    "name": "enabled",
                    "type": "bool"
                }
            ],
            "name": "setRecoverable",
            "outputs": [],
            "stateMutability": "nonpayable",
            "type": "function"
        },
        {
            "inputs": [
                {
                    "internalType": "string",
                    "name": "_terms",
                    "type": "string"
                }
            ],
            "name": "setTerms",
            "outputs": [],
            "stateMutability": "nonpayable",
            "type": "function"
        },
        {
            "inputs": [
                {
                    "internalType": "uint256",
                    "name": "_newTotalShares",
                    "type": "uint256"
                }
            ],
            "name": "setTotalShares",
            "outputs": [],
            "stateMutability": "nonpayable",
            "type": "function"
        },
        {
            "inputs": [
                {
                    "internalType": "uint256",
                    "name": "",
                    "type": "uint256"
                }
            ],
            "name": "subregisters",
            "outputs": [
                {
                    "internalType": "address",
                    "name": "",
                    "type": "address"
                }
            ],
            "stateMutability": "view",
            "type": "function"
        },
        {
            "inputs": [],
            "name": "symbol",
            "outputs": [
                {
                    "internalType": "string",
                    "name": "",
                    "type": "string"
                }
            ],
            "stateMutability": "view",
            "type": "function"
        },
        {
            "inputs": [],
            "name": "terms",
            "outputs": [
                {
                    "internalType": "string",
                    "name": "",
                    "type": "string"
                }
            ],
            "stateMutability": "view",
            "type": "function"
        },
        {
            "inputs": [],
            "name": "totalShares",
            "outputs": [
                {
                    "internalType": "uint256",
                    "name": "",
                    "type": "uint256"
                }
            ],
            "stateMutability": "view",
            "type": "function"
        },
        {
            "inputs": [],
            "name": "totalSupply",
            "outputs": [
                {
                    "internalType": "uint256",
                    "name": "",
                    "type": "uint256"
                }
            ],
            "stateMutability": "view",
            "type": "function"
        },
        {
            "inputs": [],
            "name": "totalValidSupply",
            "outputs": [
                {
                    "internalType": "uint256",
                    "name": "",
                    "type": "uint256"
                }
            ],
            "stateMutability": "view",
            "type": "function"
        },
        {
            "inputs": [
                {
                    "internalType": "address",
                    "name": "recipient",
                    "type": "address"
                },
                {
                    "internalType": "uint256",
                    "name": "amount",
                    "type": "uint256"
                }
            ],
            "name": "transfer",
            "outputs": [
                {
                    "internalType": "bool",
                    "name": "",
                    "type": "bool"
                }
            ],
            "stateMutability": "nonpayable",
            "type": "function"
        },
        {
            "inputs": [
                {
                    "internalType": "address",
                    "name": "recipient",
                    "type": "address"
                },
                {
                    "internalType": "uint256",
                    "name": "amount",
                    "type": "uint256"
                },
                {
                    "internalType": "bytes",
                    "name": "data",
                    "type": "bytes"
                }
            ],
            "name": "transferAndCall",
            "outputs": [
                {
                    "internalType": "bool",
                    "name": "",
                    "type": "bool"
                }
            ],
            "stateMutability": "nonpayable",
            "type": "function"
        },
        {
            "inputs": [
                {
                    "internalType": "address",
                    "name": "sender",
                    "type": "address"
                },
                {
                    "internalType": "address",
                    "name": "recipient",
                    "type": "address"
                },
                {
                    "internalType": "uint256",
                    "name": "amount",
                    "type": "uint256"
                }
            ],
            "name": "transferFrom",
            "outputs": [
                {
                    "internalType": "bool",
                    "name": "",
                    "type": "bool"
                }
            ],
            "stateMutability": "nonpayable",
            "type": "function"
        },
        {
            "inputs": [
                {
                    "internalType": "address",
                    "name": "newOwner",
                    "type": "address"
                }
            ],
            "name": "transferOwnership",
            "outputs": [],
            "stateMutability": "nonpayable",
            "type": "function"
        }
    ],
    "bytecode": "608060405262ed4e006004556000600d556000600e553480156200002257600080fd5b50604051620035d8380380620035d8833981810160405260608110156200004857600080fd5b81019080805160405193929190846401000000008211156200006957600080fd5b9083019060208201858111156200007f57600080fd5b82516401000000008111828201881017156200009a57600080fd5b82525081516020918201929091019080838360005b83811015620000c9578181015183820152602001620000af565b50505050905090810190601f168015620000f75780820380516001836020036101000a031916815260200191505b50604052602001805160405193929190846401000000008211156200011b57600080fd5b9083019060208201858111156200013157600080fd5b82516401000000008111828201881017156200014c57600080fd5b82525081516020918201929091019080838360005b838110156200017b57818101518382015260200162000161565b50505050905090810190601f168015620001a95780820380516001836020036101000a031916815260200191505b5060405260200180516040519392919084640100000000821115620001cd57600080fd5b908301906020820185811115620001e357600080fd5b8251640100000000811182820188101715620001fe57600080fd5b82525081516020918201929091019080838360005b838110156200022d57818101518382015260200162000213565b50505050905090810190601f1680156200025b5780820380516001836020036101000a031916815260200191505b5060408190526003805460ff19169055600980546001600160a01b031916339081179091559350600092507f8be0079c531659141344cd1fd0a4f28419497f9722a3daafe3b4186f6b6457e091508290a3620002b88383620002d7565b8051620002cd90600c906020840190620004cc565b5050505062000568565b6009546001600160a01b0316331462000323576040805162461bcd60e51b81526020600482015260096024820152683737ba1037bbb732b960b91b604482015290519081900360640190fd5b81516200033890600b906020850190620004cc565b5080516200034e90600a906020840190620004cc565b507f07ce702fc13ca0620c174dab22996a6d5fd9e7accb663555a4e85323692706ba818360405160200180806902732bb903730b6b29d160b51b815250600a0183805190602001908083835b60208310620003bb5780518252601f1990920191602091820191016200039a565b51815160209384036101000a600019018019909216911617905261040560f31b919093019081528451600290910192850191508083835b60208310620004135780518252601f199092019160209182019101620003f2565b51815160209384036101000a6000190180199092169116179052602960f81b9190930190815260408051808303601e1901815260018301918290528482528051602184015280519097509095508594506041909101928601915080838360005b838110156200048d57818101518382015260200162000473565b50505050905090810190601f168015620004bb5780820380516001836020036101000a031916815260200191505b509250505060405180910390a15050565b828054600181600116156101000203166002900490600052602060002090601f016020900481019282601f106200050f57805160ff19168380011785556200053f565b828001600101855582156200053f579182015b828111156200053f57825182559160200191906001019062000522565b506200054d92915062000551565b5090565b5b808211156200054d576000815560010162000552565b61306080620005786000396000f3fe608060405234801561001057600080fd5b506004361061030c5760003560e01c806369f721e21161019d578063a77384c1116100e9578063d2c04f43116100a2578063eb1bf0891161007c578063eb1bf08914610c23578063eb470ebf14610cb7578063f2fde38b14610cdd578063f54fc06014610d035761030c565b8063d2c04f4314610bd0578063d502562514610bed578063dd62ed3e14610bf55761030c565b8063a77384c114610ad0578063a9059cbb14610aed578063b0d04c7a14610b19578063b40e80d114610b21578063c6788bdd14610b47578063cc51e14314610baa5761030c565b80637dc2cd98116101565780639b56d6c9116101305780639b56d6c914610a32578063a26cf59f14610a58578063a3ec188314610a7e578063a457c2d714610aa45761030c565b80637dc2cd9814610a1a5780638da5cb5b14610a2257806395d89b4114610a2a5761030c565b806369f721e2146108e85780636b03ed5f1461091a5780636e3baaf51461092257806370a082311461092a57806377e071ad1461095057806378f86afc146109765761030c565b806337a8129c1161025c57806340c10f19116102155780635c707f07116101ef5780635c707f07146107155780635d6624b71461083e57806360918117146108c15780636427ed97146108c95761030c565b806340c10f19146106af57806342966c68146106db5780634ae5e630146106f85761030c565b806337a8129c1461059e57806339509351146105a65780633a1cdf32146105d25780633a98ef39146105fe5780633bcc45ba146106065780634000aea01461062c5761030c565b80631e3b9de5116102c957806326773ddd116102a357806326773ddd146105245780632a0a4ed514610552578063313ce5671461055a57806332a7ae95146105785761030c565b80631e3b9de51461045a5780631f0f06aa1461048057806323b872dd146104ee5761030c565b806306fdde0314610311578063095ea7b31461038e5780630c6f0e5d146103ce5780630cd865ec146103f257806318160ddd1461041a5780631993982d14610434575b600080fd5b610319610d91565b6040805160208082528351818301528351919283929083019185019080838360005b8381101561035357818101518382015260200161033b565b50505050905090810190601f1680156103805780820380516001836020036101000a031916815260200191505b509250505060405180910390f35b6103ba600480360360408110156103a457600080fd5b506001600160a01b038135169060200135610e1f565b604080519115158252519081900360200190f35b6103d6610e36565b604080516001600160a01b039092168252519081900360200190f35b6104186004803603602081101561040857600080fd5b50356001600160a01b0316610e45565b005b61042261111a565b60408051918252519081900360200190f35b6104186004803603602081101561044a57600080fd5b50356001600160a01b0316611120565b6103d66004803603602081101561047057600080fd5b50356001600160a01b03166112d5565b6104186004803603602081101561049657600080fd5b810190602081018135600160201b8111156104b057600080fd5b8201836020820111156104c257600080fd5b803590602001918460018302840111600160201b831117156104e357600080fd5b5090925090506112f6565b6103ba6004803603606081101561050457600080fd5b506001600160a01b038135811691602081013590911690604001356113a5565b6104186004803603604081101561053a57600080fd5b506001600160a01b03813581169160200135166113f6565b6103d6611711565b610562611720565b6040805160ff9092168252519081900360200190f35b6104186004803603602081101561058e57600080fd5b50356001600160a01b0316611729565b610422611987565b6103ba600480360360408110156105bc57600080fd5b506001600160a01b03813516906020013561198d565b610418600480360360408110156105e857600080fd5b506001600160a01b0381351690602001356119c3565b610422611a18565b6103d66004803603602081101561061c57600080fd5b50356001600160a01b0316611a1e565b6103ba6004803603606081101561064257600080fd5b6001600160a01b0382351691602081013591810190606081016040820135600160201b81111561067157600080fd5b82018360208201111561068357600080fd5b803590602001918460018302840111600160201b831117156106a457600080fd5b509092509050611a3f565b610418600480360360408110156106c557600080fd5b506001600160a01b038135169060200135611b01565b610418600480360360208110156106f157600080fd5b5035611b56565b6103d66004803603602081101561070e57600080fd5b5035611bcb565b6104186004803603604081101561072b57600080fd5b810190602081018135600160201b81111561074557600080fd5b82018360208201111561075757600080fd5b803590602001918460018302840111600160201b8311171561077857600080fd5b91908080601f0160208091040260200160405190810160405280939291908181526020018383808284376000920191909152509295949360208101935035915050600160201b8111156107ca57600080fd5b8201836020820111156107dc57600080fd5b803590602001918460018302840111600160201b831117156107fd57600080fd5b91908080601f016020809104026020016040519081016040528093929190818152602001838380828437600092019190915250929550611bf2945050505050565b6104186004803603606081101561085457600080fd5b6001600160a01b0382351691602081013591810190606081016040820135600160201b81111561088357600080fd5b82018360208201111561089557600080fd5b803590602001918460018302840111600160201b831117156108b657600080fd5b509092509050611ddb565b610422611efc565b610418600480360360208110156108df57600080fd5b50351515611f02565b610418600480360360608110156108fe57600080fd5b506001600160a01b038135169060208101359060400135611f21565b610418611fd2565b610422612132565b6104226004803603602081101561094057600080fd5b50356001600160a01b0316612138565b6104226004803603602081101561096657600080fd5b50356001600160a01b0316612153565b6104186004803603602081101561098c57600080fd5b810190602081018135600160201b8111156109a657600080fd5b8201836020820111156109b857600080fd5b803590602001918460018302840111600160201b831117156109d957600080fd5b91908080601f016020809104026020016040519081016040528093929190818152602001838380828437600092019190915250929550612195945050505050565b610422612300565b6103d6612306565b610319612315565b61042260048036036020811015610a4857600080fd5b50356001600160a01b0316612370565b61042260048036036020811015610a6e57600080fd5b50356001600160a01b031661238e565b6103ba60048036036020811015610a9457600080fd5b50356001600160a01b0316612457565b6103ba60048036036040811015610aba57600080fd5b506001600160a01b038135169060200135612476565b61041860048036036020811015610ae657600080fd5b50356124ac565b6103ba60048036036040811015610b0357600080fd5b506001600160a01b038135169060200135612542565b610422612599565b6103ba60048036036020811015610b3757600080fd5b50356001600160a01b03166125b4565b610b6d60048036036020811015610b5d57600080fd5b50356001600160a01b03166125c9565b60405180856001600160a01b03168152602001848152602001838152602001826001600160a01b0316815260200194505050505060405180910390f35b61041860048036036020811015610bc057600080fd5b50356001600160a01b03166125fb565b61041860048036036020811015610be657600080fd5b503561270f565b610319612763565b61042260048036036040811015610c0b57600080fd5b506001600160a01b03813581169160200135166127be565b610418600480360360c0811015610c3957600080fd5b6001600160a01b03823581169260208101359091169160408201359190810190608081016060820135600160201b811115610c7357600080fd5b820183602082011115610c8557600080fd5b803590602001918460018302840111600160201b83111715610ca657600080fd5b9193509150803590602001356127e9565b61042260048036036020811015610ccd57600080fd5b50356001600160a01b03166128a0565b61041860048036036020811015610cf357600080fd5b50356001600160a01b03166128be565b61041860048036036080811015610d1957600080fd5b6001600160a01b03823581169260208101359091169160408201359190810190608081016060820135600160201b811115610d5357600080fd5b820183602082011115610d6557600080fd5b803590602001918460018302840111600160201b83111715610d8657600080fd5b509092509050612965565b600a805460408051602060026001851615610100026000190190941693909304601f81018490048402820184019092528181529291830182828015610e175780601f10610dec57610100808354040283529160200191610e17565b820191906000526020600020905b815481529060010190602001808311610dfa57829003601f168201915b505050505081565b6000610e2c338484612a19565b5060015b92915050565b6007546001600160a01b031681565b610e4d612e66565b506001600160a01b0380821660009081526005602090815260409182902082516080810184528154851681526001820154928101839052600282015493810193909352600301549092166060820181905290919081610ee4576040805162461bcd60e51b815260206004820152600e60248201526d139bc818db185a5b48199bdd5b9960921b604482015290519081900360640190fd5b82516001600160a01b03163314610f42576040805162461bcd60e51b815260206004820152601f60248201527f4f6e6c7920636c61696d616e742063616e207265736f6c766520636c61696d00604482015290519081900360640190fd5b42610f5c6004548560400151612a7b90919063ffffffff16565b1115610faf576040805162461bcd60e51b815260206004820152601960248201527f436c61696d20706572696f64206e6f74206f7665722079657400000000000000604482015290519081900360640190fd5b82516001600160a01b03808616600090815260056020908152604080832080546001600160a01b031990811682556001820185905560028201859055600390910180549091169055805163a9059cbb60e01b815284861660048201526024810188905290519386169363a9059cbb93604480840194938390030190829087803b15801561103b57600080fd5b505af115801561104f573d6000803e3d6000fd5b505050506040513d602081101561106557600080fd5b50516110b5576040805162461bcd60e51b815260206004820152601a60248201527910dbdb1b185d195c985b081d1c985b9cd9995c8819985a5b195960321b604482015290519081900360640190fd5b6110c885826110c388612138565b612a88565b806001600160a01b0316856001600160a01b03167f52a5c2b28bc6eb9712d0ced43463103b486b13ccc9cda499fd3b2d7b6a74a8ee856040518082815260200191505060405180910390a35050505050565b60025490565b6009546001600160a01b0316331461116b576040805162461bcd60e51b81526020600482015260096024820152683737ba1037bbb732b960b91b604482015290519081900360640190fd5b61117481612138565b156111b05760405162461bcd60e51b8152600401808060200182810382526027815260200180612f8d6027913960400191505060405180910390fd5b60005b600f548110156112d157816001600160a01b0316600f82815481106111d457fe5b6000918252602090912001546001600160a01b031614156112c957600f8054600019810190811061120157fe5b600091825260209091200154600f80546001600160a01b03909216918390811061122757fe5b9060005260206000200160006101000a8154816001600160a01b0302191690836001600160a01b03160217905550600f80548061126057fe5b6001900381819060005260206000200160006101000a8154906001600160a01b03021916905590557fc3f6f866f10921ec4857ee8fe667183cd1751e53ed509c992689bece36ca18988260405180826001600160a01b0316815260200191505060405180910390a15b6001016111b3565b5050565b6001600160a01b03808216600090815260056020526040902054165b919050565b6009546001600160a01b03163314611341576040805162461bcd60e51b81526020600482015260096024820152683737ba1037bbb732b960b91b604482015290519081900360640190fd5b7f07ce702fc13ca0620c174dab22996a6d5fd9e7accb663555a4e85323692706ba828260405180806020018281038252848482818152602001925080828437600083820152604051601f909101601f19169092018290039550909350505050a15050565b60006113b2848484612a88565b6001600160a01b0384166000908152600160209081526040808320338085529252909120546113ec9186916113e79086612b47565b612a19565b5060019392505050565b6113ff81612457565b611450576040805162461bcd60e51b815260206004820181905260248201527f436c61696d732064697361626c656420666f7220746869732061646472657373604482015290519081900360640190fd5b600061145b83612153565b9050600081116114ab576040805162461bcd60e51b8152602060048201526016602482015275155b9cdd5c1c1bdc9d19590818dbdb1b185d195c985b60521b604482015290519081900360640190fd5b3360006114b784612138565b905060006114c58285612b59565b9050858261151a576040805162461bcd60e51b815260206004820152601f60248201527f436c61696d6564206164647265737320686f6c6473206e6f2073686172657300604482015290519081900360640190fd5b6001600160a01b03861660009081526005602052604090206001015415611588576040805162461bcd60e51b815260206004820152601760248201527f4164647265737320616c726561647920636c61696d6564000000000000000000604482015290519081900360640190fd5b604080516323b872dd60e01b81526001600160a01b038681166004830152306024830152604482018590529151918316916323b872dd916064808201926020929091908290030181600087803b1580156115e157600080fd5b505af11580156115f5573d6000803e3d6000fd5b505050506040513d602081101561160b57600080fd5b505161165b576040805162461bcd60e51b815260206004820152601a60248201527910dbdb1b185d195c985b081d1c985b9cd9995c8819985a5b195960321b604482015290519081900360640190fd5b604080516080810182526001600160a01b038087168083526020808401878152428587019081528d8516606087019081528d8616600081815260058652899020975188549088166001600160a01b0319918216178955935160018901559151600288015551600390960180549690951695909116949094179092558351878152935190937f1982ca8958fc8a8176cb52be509260f4bc5af7ce04e1533711793f1c56dd535992908290030190a350505050505050565b6009546001600160a01b031690565b60035460ff1681565b611731611711565b6001600160a01b0316336001600160a01b031614611796576040805162461bcd60e51b815260206004820152601860248201527f596f752063616e6e6f742064656c65746520636c61696d730000000000000000604482015290519081900360640190fd5b61179e612e66565b506001600160a01b038082166000908152600560209081526040918290208251608081018452815485168152600182015492810183905260028201549381019390935260030154909216606082018190529091611833576040805162461bcd60e51b815260206004820152600e60248201526d139bc818db185a5b48199bdd5b9960921b604482015290519081900360640190fd5b6001600160a01b03808416600090815260056020908152604080832080546001600160a01b031990811682556001820185905560028201859055600390910180549091169055855186830151825163a9059cbb60e01b81529186166004830152602482015290519385169363a9059cbb93604480840194938390030190829087803b1580156118c157600080fd5b505af11580156118d5573d6000803e3d6000fd5b505050506040513d60208110156118eb57600080fd5b505161193b576040805162461bcd60e51b815260206004820152601a60248201527910dbdb1b185d195c985b081d1c985b9cd9995c8819985a5b195960321b604482015290519081900360640190fd5b815160208084015160408051918252516001600160a01b03938416938716927fbb036e629a9f4c0897ee5d48440dfdb36f7e772117723a2ed603a6514244c2d5928290030190a3505050565b600e5481565b3360008181526001602090815260408083206001600160a01b03871684529091528120549091610e2c9185906113e79086612a7b565b6009546001600160a01b03163314611a0e576040805162461bcd60e51b81526020600482015260096024820152683737ba1037bbb732b960b91b604482015290519081900360640190fd5b6112d18282612b7e565b600d5481565b6001600160a01b039081166000908152600560205260409020600301541690565b600080611a4c8686612542565b90508015611af857856001600160a01b031663a4c0ed36338787876040518563ffffffff1660e01b815260040180856001600160a01b03168152602001848152602001806020018281038252848482818152602001925080828437600081840152601f19601f82011690508083019250505095505050505050600060405180830381600087803b158015611adf57600080fd5b505af1158015611af3573d6000803e3d6000fd5b505050505b95945050505050565b6009546001600160a01b03163314611b4c576040805162461bcd60e51b81526020600482015260096024820152683737ba1037bbb732b960b91b604482015290519081900360640190fd5b6112d18282612c51565b611b5f33612138565b811115611bb3576040805162461bcd60e51b815260206004820152601b60248201527f4e6f7420656e6f7567682073686172657320617661696c61626c650000000000604482015290519081900360640190fd5b611bbe333083612a88565b611bc83082612ca7565b50565b600f8181548110611bd857fe5b6000918252602090912001546001600160a01b0316905081565b6009546001600160a01b03163314611c3d576040805162461bcd60e51b81526020600482015260096024820152683737ba1037bbb732b960b91b604482015290519081900360640190fd5b8151611c5090600b906020850190612ea0565b508051611c6490600a906020840190612ea0565b507f07ce702fc13ca0620c174dab22996a6d5fd9e7accb663555a4e85323692706ba818360405160200180806902732bb903730b6b29d160b51b815250600a0183805190602001908083835b60208310611ccf5780518252601f199092019160209182019101611cb0565b51815160209384036101000a600019018019909216911617905261040560f31b919093019081528451600290910192850191508083835b60208310611d255780518252601f199092019160209182019101611d06565b51815160209384036101000a6000190180199092169116179052602960f81b9190930190815260408051808303601e1901815260018301918290528482528051602184015280519097509095508594506041909101928601915080838360005b83811015611d9d578181015183820152602001611d85565b50505050905090810190601f168015611dca5780820380516001836020036101000a031916815260200191505b509250505060405180910390a15050565b6009546001600160a01b03163314611e26576040805162461bcd60e51b81526020600482015260096024820152683737ba1037bbb732b960b91b604482015290519081900360640190fd5b6000611e3185612138565b905080841115611e725760405162461bcd60e51b8152600401808060200182810382526032815260200180612f346032913960400191505060405180910390fd5b600e54611e7f9085612a7b565b600e5560408051858152602081018281529181018490526001600160a01b038716917f0a605cd1294f60fa3b73548ac68428f33300a051f225afcdcc75e56083c96ee79187918791879160608201848480828437600083820152604051601f909101601f1916909201829003965090945050505050a25050505050565b60085481565b336000908152600660205260409020805460ff19169115919091179055565b6009546001600160a01b03163314611f6c576040805162461bcd60e51b81526020600482015260096024820152683737ba1037bbb732b960b91b604482015290519081900360640190fd5b604080518381526020810183905281516001600160a01b038616927f7b37b2b4bba7b5ea40a69f93db727c289fbbaa632be8186cfa85e0297e001319928290030190a2611fcd83611fc86001611fc28587612b47565b90612a7b565b612c51565b505050565b33600090815260056020526040902060010154156121305733600081815260056020908152604080832060018101805460038301805484546001600160a01b03199081168655938890556002909401879055918316909155825163a9059cbb60e01b8152600481019690965260248601819052915191946001600160a01b0390911693849363a9059cbb93604480850194929391928390030190829087803b15801561207d57600080fd5b505af1158015612091573d6000803e3d6000fd5b505050506040513d60208110156120a757600080fd5b50516120f7576040805162461bcd60e51b815260206004820152601a60248201527910dbdb1b185d195c985b081d1c985b9cd9995c8819985a5b195960321b604482015290519081900360640190fd5b60408051838152905133917f203627483d943880619f4b7e0cca21dbefd6204b4d85b124eb99540e17ba86dd919081900360200190a250505b565b600f5490565b6001600160a01b031660009081526020819052604090205490565b60006001600160a01b03821630141561216e575060016112f1565b6007546001600160a01b038381169116141561218d57506008546112f1565b5060006112f1565b6009546001600160a01b031633146121e0576040805162461bcd60e51b81526020600482015260096024820152683737ba1037bbb732b960b91b604482015290519081900360640190fd5b80516121f390600c906020840190612ea0565b507f07ce702fc13ca0620c174dab22996a6d5fd9e7accb663555a4e85323692706ba8160405160200180806a02732bb903a32b936b99d160ad1b815250600b0182805190602001908083835b6020831061225e5780518252601f19909201916020918201910161223f565b51815160209384036101000a60001901801990921691161790526040805192909401828103601f190183528085528181528251818301528251929650945084938401925085019080838360005b838110156122c35781810151838201526020016122ab565b50505050905090810190601f1680156122f05780820380516001836020036101000a031916815260200191505b509250505060405180910390a150565b60045481565b6009546001600160a01b031681565b600b805460408051602060026001851615610100026000190190941693909304601f81018490048402820184019092528181529291830182828015610e175780601f10610dec57610100808354040283529160200191610e17565b6001600160a01b031660009081526005602052604090206001015490565b60008061239a83612138565b905060005b600f54811015612450576000600f82815481106123b857fe5b60009182526020918290200154604080516370a0823160e01b81526001600160a01b03898116600483015291519190921693506124459284926370a082319260248083019392829003018186803b15801561241257600080fd5b505afa158015612426573d6000803e3d6000fd5b505050506040513d602081101561243c57600080fd5b50518490612a7b565b92505060010161239f565b5092915050565b6001600160a01b031660009081526006602052604090205460ff161590565b3360008181526001602090815260408083206001600160a01b03871684529091528120549091610e2c9185906113e79086612b47565b6009546001600160a01b031633146124f7576040805162461bcd60e51b81526020600482015260096024820152683737ba1037bbb732b960b91b604482015290519081900360640190fd5b6124ff612599565b81101561253d5760405162461bcd60e51b8152600401808060200182810382526027815260200180612f666027913960400191505060405180910390fd5b600d55565b600061254e8383612d2f565b612591576040805162461bcd60e51b815260206004820152600f60248201526e151c985b9cd9995c8819985a5b1959608a1b604482015290519081900360640190fd5b610e2c611fd2565b60006125af600e546125a961111a565b90612b47565b905090565b60066020526000908152604090205460ff1681565b60056020526000908152604090208054600182015460028301546003909301546001600160a01b039283169391921684565b6009546001600160a01b03163314612646576040805162461bcd60e51b81526020600482015260096024820152683737ba1037bbb732b960b91b604482015290519081900360640190fd5b61264f81612138565b1561268b5760405162461bcd60e51b8152600401808060200182810382526025815260200180612fb46025913960400191505060405180910390fd5b600f80546001810182556000919091527f8d1108e10bcb7c27dddfc02ed9d693a074039d026cf4ea4240b40f7d581ac8020180546001600160a01b0383166001600160a01b0319909116811790915560408051918252517f7417b75095e577f15d994b058af7a3a71f67be4ae2f288725d1b922f6bb67a679181900360200190a150565b6009546001600160a01b0316331461275a576040805162461bcd60e51b81526020600482015260096024820152683737ba1037bbb732b960b91b604482015290519081900360640190fd5b611bc881612d3c565b600c805460408051602060026001851615610100026000190190941693909304601f81018490048402820184019092528181529291830182828015610e175780601f10610dec57610100808354040283529160200191610e17565b6001600160a01b03918216600090815260016020908152604080832093909416825291909152205490565b6127f4878383611f21565b856001600160a01b031663a4c0ed36888787876040518563ffffffff1660e01b815260040180856001600160a01b03168152602001848152602001806020018281038252848482818152602001925080828437600081840152601f19601f82011690508083019250505095505050505050600060405180830381600087803b15801561287f57600080fd5b505af1158015612893573d6000803e3d6000fd5b5050505050505050505050565b6001600160a01b031660009081526005602052604090206002015490565b6009546001600160a01b03163314612909576040805162461bcd60e51b81526020600482015260096024820152683737ba1037bbb732b960b91b604482015290519081900360640190fd5b6009546040516001600160a01b038084169216907f8be0079c531659141344cd1fd0a4f28419497f9722a3daafe3b4186f6b6457e090600090a3600980546001600160a01b0319166001600160a01b0392909216919091179055565b61296f8484611b01565b836001600160a01b031663a4c0ed36868585856040518563ffffffff1660e01b815260040180856001600160a01b03168152602001848152602001806020018281038252848482818152602001925080828437600081840152601f19601f82011690508083019250505095505050505050600060405180830381600087803b1580156129fa57600080fd5b505af1158015612a0e573d6000803e3d6000fd5b505050505050505050565b6001600160a01b03808416600081815260016020908152604080832094871680845294825291829020859055815185815291517f8c5be1e5ebec7d5bd14f71427d1e84f3dd0314c0f7b2291e5b200ac8c7c3b9259281900390910190a3505050565b81810182811015610e3057fe5b6001600160a01b038216612a9b57600080fd5b6001600160a01b038316600090815260208190526040902054612abe9082612b47565b6001600160a01b038085166000908152602081905260408082209390935590841681522054612aed9082612a7b565b6001600160a01b038084166000818152602081815260409182902094909455805185815290519193928716927fddf252ad1be2c89b69c2b068fc378daa952ba7f163c4a11628f55a4df523b3ef92918290030190a3505050565b600082821115612b5357fe5b50900390565b600082612b6857506000610e30565b5081810281838281612b7657fe5b0414610e3057fe5b600780546001600160a01b0319166001600160a01b03848116919091179182905516612bae576000600855612c09565b60008111612c03576040805162461bcd60e51b815260206004820152601d60248201527f436f6c6c61746572616c20726174652063616e2774206265207a65726f000000604482015290519081900360640190fd5b60088190555b604080516001600160a01b03841681526020810183905281517f94238858463adf0fecc0e064844831a54bccf8467c86f0b93d2a9508e0596853929181900390910190a15050565b600d54612c6082611fc2612599565b1115612c9d5760405162461bcd60e51b815260040180806020018281038252602d815260200180612ffe602d913960400191505060405180910390fd5b6112d18282612dca565b600254612cb49082612b47565b6002556001600160a01b038216600090815260208190526040902054612cda9082612b47565b6001600160a01b038316600081815260208181526040808320949094558351858152935191937fddf252ad1be2c89b69c2b068fc378daa952ba7f163c4a11628f55a4df523b3ef929081900390910190a35050565b6000610e2c338484612a88565b605a8111612d7b5760405162461bcd60e51b8152600401808060200182810382526025815260200180612fd96025913960400191505060405180910390fd5b6000612d8a8262015180612b59565b60048190556040805182815290519192507ffde5ae686f4fb7b301820b66139fa5cbed90c4b91428ce2fe961558fcac47ba6919081900360200190a15050565b6001600160a01b038216612ddd57600080fd5b600254612dea9082612a7b565b6002556001600160a01b038216600090815260208190526040902054612e109082612a7b565b6001600160a01b0383166000818152602081815260408083209490945583518581529351929391927fddf252ad1be2c89b69c2b068fc378daa952ba7f163c4a11628f55a4df523b3ef9281900390910190a35050565b604051806080016040528060006001600160a01b03168152602001600081526020016000815260200160006001600160a01b031681525090565b828054600181600116156101000203166002900490600052602060002090601f016020900481019282601f10612ee157805160ff1916838001178555612f0e565b82800160010185558215612f0e579182015b82811115612f0e578251825591602001919060010190612ef3565b50612f1a929150612f1e565b5090565b5b80821115612f1a5760008155600101612f1f56fe43616e6e6f7420696e76616c6964617465206d6f726520746f6b656e73207468616e2068656c64206279206164647265737354686572652063616e277420626520666577657220746f6b656e73207468616e20736861726573537562726567697374657273206d75737420626520656d707479207768656e2072656d6f766564537562726567697374657273206d75737420626520656d707479207768656e206164646564436c61696d20706572696f64206d757374206265206174206c65617374203930206461797354686572652063616e277420626520666577657220736861726573207468616e2076616c696420746f6b656e73a26469706673582212201083ef8ceca8294e33ee790f488c439e915ba86fe792b5a11bfc451f8a21d6b964736f6c63430007030033",
    "sourcePath": "c:/Users/luziu/Documents/aktionariat/contracts/src/Shares.sol",
    "compiler": {
        "name": "solc",
        "version": "0.7.3+commit.9bfce1f6"
    },
    "functionHashes": {
        "allowance(address,address)": "dd62ed3e",
        "announcement(string)": "1f0f06aa",
        "approve(address,uint256)": "095ea7b3",
        "balanceOf(address)": "70a08231",
        "balanceOfDeep(address)": "a26cf59f",
        "burn(uint256)": "42966c68",
        "claimPeriod()": "7dc2cd98",
        "claims(address)": "c6788bdd",
        "clearClaim()": "6b03ed5f",
        "countSubregisters()": "6e3baaf5",
        "customCollateralAddress()": "0c6f0e5d",
        "customCollateralRate()": "60918117",
        "decimals()": "313ce567",
        "declareInvalid(address,uint256,string)": "5d6624b7",
        "declareLost(address,address)": "26773ddd",
        "decreaseAllowance(address,uint256)": "a457c2d7",
        "deleteClaim(address)": "32a7ae95",
        "getClaimDeleter()": "2a0a4ed5",
        "getClaimant(address)": "1e3b9de5",
        "getCollateral(address)": "9b56d6c9",
        "getCollateralRate(address)": "77e071ad",
        "getCollateralType(address)": "3bcc45ba",
        "getTimeStamp(address)": "eb470ebf",
        "increaseAllowance(address,uint256)": "39509351",
        "invalidTokens()": "37a8129c",
        "isRecoveryEnabled(address)": "a3ec1883",
        "mint(address,uint256)": "40c10f19",
        "mintAndCall(address,address,uint256,bytes)": "f54fc060",
        "mintNumbered(address,uint256,uint256)": "69f721e2",
        "mintNumberedAndCall(address,address,uint256,bytes,uint256,uint256)": "eb1bf089",
        "name()": "06fdde03",
        "owner()": "8da5cb5b",
        "recognizeSubRegister(address)": "cc51e143",
        "recover(address)": "0cd865ec",
        "recoveryDisabled(address)": "b40e80d1",
        "removeSubRegister(address)": "1993982d",
        "setClaimPeriod(uint256)": "d2c04f43",
        "setCustomClaimCollateral(address,uint256)": "3a1cdf32",
        "setName(string,string)": "5c707f07",
        "setRecoverable(bool)": "6427ed97",
        "setTerms(string)": "78f86afc",
        "setTotalShares(uint256)": "a77384c1",
        "subregisters(uint256)": "4ae5e630",
        "symbol()": "95d89b41",
        "terms()": "d5025625",
        "totalShares()": "3a98ef39",
        "totalSupply()": "18160ddd",
        "totalValidSupply()": "b0d04c7a",
        "transfer(address,uint256)": "a9059cbb",
        "transferAndCall(address,uint256,bytes)": "4000aea0",
        "transferFrom(address,address,uint256)": "23b872dd",
        "transferOwnership(address)": "f2fde38b"
    },
    "gasEstimates": {
        "creation": {
            "codeDepositCost": "2476800",
            "executionCost": "infinite",
            "totalCost": "infinite"
        },
        "external": {
            "allowance(address,address)": "1361",
            "announcement(string)": "infinite",
            "approve(address,uint256)": "22389",
            "balanceOf(address)": "1257",
            "balanceOfDeep(address)": "infinite",
            "burn(uint256)": "infinite",
            "claimPeriod()": "1066",
            "claims(address)": "3829",
            "clearClaim()": "infinite",
            "countSubregisters()": "1088",
            "customCollateralAddress()": "1128",
            "customCollateralRate()": "1109",
            "decimals()": "1125",
            "declareInvalid(address,uint256,string)": "infinite",
            "declareLost(address,address)": "infinite",
            "decreaseAllowance(address,uint256)": "23488",
            "deleteClaim(address)": "infinite",
            "getClaimDeleter()": "1127",
            "getClaimant(address)": "1247",
            "getCollateral(address)": "1215",
            "getCollateralRate(address)": "2109",
            "getCollateralType(address)": "1312",
            "getTimeStamp(address)": "1236",
            "increaseAllowance(address,uint256)": "infinite",
            "invalidTokens()": "1044",
            "isRecoveryEnabled(address)": "1268",
            "mint(address,uint256)": "infinite",
            "mintAndCall(address,address,uint256,bytes)": "infinite",
            "mintNumbered(address,uint256,uint256)": "infinite",
            "mintNumberedAndCall(address,address,uint256,bytes,uint256,uint256)": "infinite",
            "name()": "infinite",
            "owner()": "1127",
            "recognizeSubRegister(address)": "infinite",
            "recover(address)": "infinite",
            "recoveryDisabled(address)": "1247",
            "removeSubRegister(address)": "infinite",
            "setClaimPeriod(uint256)": "infinite",
            "setCustomClaimCollateral(address,uint256)": "43470",
            "setName(string,string)": "infinite",
            "setRecoverable(bool)": "21229",
            "setTerms(string)": "infinite",
            "setTotalShares(uint256)": "infinite",
            "subregisters(uint256)": "2082",
            "symbol()": "infinite",
            "terms()": "infinite",
            "totalShares()": "1110",
            "totalSupply()": "1133",
            "totalValidSupply()": "1992",
            "transfer(address,uint256)": "infinite",
            "transferAndCall(address,uint256,bytes)": "infinite",
            "transferFrom(address,address,uint256)": "infinite",
            "transferOwnership(address)": "24377"
        },
        "internal": {
            "_mint(address,uint256)": "infinite"
        }
    }
}