{
    "contractName": "Simpleton",
    "abi": [
        {
            "inputs": [
                {
                    "internalType": "address",
                    "name": "baseCurrency",
                    "type": "address"
                },
                {
                    "internalType": "address",
                    "name": "shareToken",
                    "type": "address"
                }
            ],
            "stateMutability": "nonpayable",
            "type": "constructor"
        },
        {
            "anonymous": false,
            "inputs": [
                {
                    "indexed": true,
                    "internalType": "address",
                    "name": "previousOwner",
                    "type": "address"
                },
                {
                    "indexed": true,
                    "internalType": "address",
                    "name": "newOwner",
                    "type": "address"
                }
            ],
            "name": "OwnershipTransferred",
            "type": "event"
        },
        {
            "anonymous": false,
            "inputs": [],
            "name": "Pause",
            "type": "event"
        },
        {
            "anonymous": false,
            "inputs": [
                {
                    "indexed": false,
                    "internalType": "address",
                    "name": "who",
                    "type": "address"
                },
                {
                    "indexed": false,
                    "internalType": "int256",
                    "name": "amount",
                    "type": "int256"
                },
                {
                    "indexed": false,
                    "internalType": "address",
                    "name": "token",
                    "type": "address"
                },
                {
                    "indexed": false,
                    "internalType": "uint256",
                    "name": "totPrice",
                    "type": "uint256"
                },
                {
                    "indexed": false,
                    "internalType": "uint256",
                    "name": "fee",
                    "type": "uint256"
                },
                {
                    "indexed": false,
                    "internalType": "address",
                    "name": "base",
                    "type": "address"
                },
                {
                    "indexed": false,
                    "internalType": "uint256",
                    "name": "price",
                    "type": "uint256"
                }
            ],
            "name": "Transaction",
            "type": "event"
        },
        {
            "anonymous": false,
            "inputs": [],
            "name": "Unpause",
            "type": "event"
        },
        {
            "inputs": [],
            "name": "base",
            "outputs": [
                {
                    "internalType": "address",
                    "name": "",
                    "type": "address"
                }
            ],
            "stateMutability": "view",
            "type": "function"
        },
        {
            "inputs": [
                {
                    "internalType": "address",
                    "name": "recipient",
                    "type": "address"
                },
                {
                    "internalType": "uint256",
                    "name": "numberOfSharesToBuy",
                    "type": "uint256"
                }
            ],
            "name": "buy",
            "outputs": [
                {
                    "internalType": "uint256",
                    "name": "",
                    "type": "uint256"
                }
            ],
            "stateMutability": "nonpayable",
            "type": "function"
        },
        {
            "inputs": [
                {
                    "internalType": "uint256",
                    "name": "numberOfSharesToBuy",
                    "type": "uint256"
                }
            ],
            "name": "buy",
            "outputs": [
                {
                    "internalType": "uint256",
                    "name": "",
                    "type": "uint256"
                }
            ],
            "stateMutability": "nonpayable",
            "type": "function"
        },
        {
            "inputs": [
                {
                    "internalType": "uint256",
                    "name": "shares",
                    "type": "uint256"
                }
            ],
            "name": "buyWithEther",
            "outputs": [
                {
                    "internalType": "uint256",
                    "name": "",
                    "type": "uint256"
                }
            ],
            "stateMutability": "payable",
            "type": "function"
        },
        {
            "inputs": [],
            "name": "getPrice",
            "outputs": [
                {
                    "internalType": "uint256",
                    "name": "",
                    "type": "uint256"
                }
            ],
            "stateMutability": "view",
            "type": "function"
        },
        {
            "inputs": [
                {
                    "internalType": "uint256",
                    "name": "shares",
                    "type": "uint256"
                }
            ],
            "name": "getPrice",
            "outputs": [
                {
                    "internalType": "uint256",
                    "name": "",
                    "type": "uint256"
                }
            ],
            "stateMutability": "view",
            "type": "function"
        },
        {
            "inputs": [
                {
                    "internalType": "uint256",
                    "name": "shares",
                    "type": "uint256"
                }
            ],
            "name": "getPriceInEther",
            "outputs": [
                {
                    "internalType": "uint256",
                    "name": "",
                    "type": "uint256"
                }
            ],
            "stateMutability": "view",
            "type": "function"
        },
        {
            "inputs": [],
            "name": "owner",
            "outputs": [
                {
                    "internalType": "address",
                    "name": "",
                    "type": "address"
                }
            ],
            "stateMutability": "view",
            "type": "function"
        },
        {
            "inputs": [],
            "name": "pause",
            "outputs": [],
            "stateMutability": "nonpayable",
            "type": "function"
        },
        {
            "inputs": [],
            "name": "paused",
            "outputs": [
                {
                    "internalType": "bool",
                    "name": "",
                    "type": "bool"
                }
            ],
            "stateMutability": "view",
            "type": "function"
        },
        {
            "inputs": [
                {
                    "internalType": "uint256",
                    "name": "newPrice",
                    "type": "uint256"
                }
            ],
            "name": "setPrice",
            "outputs": [],
            "stateMutability": "nonpayable",
            "type": "function"
        },
        {
            "inputs": [],
            "name": "token",
            "outputs": [
                {
                    "internalType": "address",
                    "name": "",
                    "type": "address"
                }
            ],
            "stateMutability": "view",
            "type": "function"
        },
        {
            "inputs": [
                {
                    "internalType": "address",
                    "name": "newOwner",
                    "type": "address"
                }
            ],
            "name": "transferOwnership",
            "outputs": [],
            "stateMutability": "nonpayable",
            "type": "function"
        },
        {
            "inputs": [],
            "name": "unpause",
            "outputs": [],
            "stateMutability": "nonpayable",
            "type": "function"
        },
        {
            "inputs": [
                {
                    "internalType": "address",
                    "name": "to",
                    "type": "address"
                },
                {
                    "internalType": "uint256",
                    "name": "amount",
                    "type": "uint256"
                }
            ],
            "name": "withdraw",
            "outputs": [],
            "stateMutability": "nonpayable",
            "type": "function"
        },
        {
            "inputs": [
                {
                    "internalType": "address payable",
                    "name": "to",
                    "type": "address"
                },
                {
                    "internalType": "uint256",
                    "name": "amount",
                    "type": "uint256"
                }
            ],
            "name": "withdrawETH",
            "outputs": [],
            "stateMutability": "nonpayable",
            "type": "function"
        }
    ],
    "bytecode": "60806040526000805460ff60a01b1916905534801561001d57600080fd5b50604051610fa8380380610fa88339818101604052604081101561004057600080fd5b50805160209091015161005233610083565b600180546001600160a01b039384166001600160a01b03199182161790915560028054929093169116179055610129565b6000546001600160a01b031633146100ce576040805162461bcd60e51b81526020600482015260096024820152683737ba1037bbb732b960b91b604482015290519081900360640190fd5b600080546040516001600160a01b03808516939216917f8be0079c531659141344cd1fd0a4f28419497f9722a3daafe3b4186f6b6457e091a3600080546001600160a01b0319166001600160a01b0392909216919091179055565b610e70806101386000396000f3fe6080604052600436106100f35760003560e01c806398d5fdca1161008a578063e757223011610059578063e7572230146102c7578063f2fde38b146102f1578063f3fef3a314610324578063fc0c546a1461035d576100f3565b806398d5fdca14610225578063ae539d801461023a578063cce7ec1314610264578063d96a094a1461029d576100f3565b80635c975abb116100c65780635c975abb146101a85780638456cb59146101d15780638da5cb5b146101e657806391b7f5ed146101fb576100f3565b80633f4ba83a146100f85780634782f7791461010f5780635001f3b514610148578063550b9c1114610179575b600080fd5b34801561010457600080fd5b5061010d610372565b005b34801561011b57600080fd5b5061010d6004803603604081101561013257600080fd5b506001600160a01b038135169060200135610409565b34801561015457600080fd5b5061015d61048f565b604080516001600160a01b039092168252519081900360200190f35b6101966004803603602081101561018f57600080fd5b503561049e565b60408051918252519081900360200190f35b3480156101b457600080fd5b506101bd610751565b604080519115158252519081900360200190f35b3480156101dd57600080fd5b5061010d610761565b3480156101f257600080fd5b5061015d6107ff565b34801561020757600080fd5b5061010d6004803603602081101561021e57600080fd5b503561080e565b34801561023157600080fd5b5061019661085e565b34801561024657600080fd5b506101966004803603602081101561025d57600080fd5b5035610864565b34801561027057600080fd5b506101966004803603604081101561028757600080fd5b506001600160a01b038135169060200135610a72565b3480156102a957600080fd5b50610196600480360360208110156102c057600080fd5b5035610a88565b3480156102d357600080fd5b50610196600480360360208110156102ea57600080fd5b5035610a94565b3480156102fd57600080fd5b5061010d6004803603602081101561031457600080fd5b50356001600160a01b0316610aa4565b34801561033057600080fd5b5061010d6004803603604081101561034757600080fd5b506001600160a01b038135169060200135610b4a565b34801561036957600080fd5b5061015d610c5d565b6000546001600160a01b031633146103bd576040805162461bcd60e51b81526020600482015260096024820152683737ba1037bbb732b960b91b604482015290519081900360640190fd5b600054600160a01b900460ff166103d357600080fd5b6000805460ff60a01b191681556040517f7805862f689e2f13df9f062ff482ad3ad112aca9e0847911ed832e158c525b339190a1565b6000546001600160a01b03163314610454576040805162461bcd60e51b81526020600482015260096024820152683737ba1037bbb732b960b91b604482015290519081900360640190fd5b6040516001600160a01b0383169082156108fc029083906000818181858888f1935050505015801561048a573d6000803e3d6000fd5b505050565b6001546001600160a01b031681565b6000806104aa83610a94565b905060006104b784610864565b60408051600280825260608083018452939450909160208301908036833701905050905073c02aaa39b223fe8d0a0e5c4f27ead9083c756cc2816000815181106104fd57fe5b6001600160a01b039283166020918202929092010152600180548351921691839190811061052757fe5b60200260200101906001600160a01b031690816001600160a01b0316815250506060737a250d5630b4cf539739df2c5dacb4c659f2488d6001600160a01b031663fb3bdb4184868530426040518663ffffffff1660e01b81526004018085815260200180602001846001600160a01b03168152602001838152602001828103825285818151815260200191508051906020019060200280838360005b838110156105db5781810151838201526020016105c3565b50505050905001955050505050506000604051808303818588803b15801561060257600080fd5b505af1158015610616573d6000803e3d6000fd5b50505050506040513d6000823e601f3d908101601f19168201604052602081101561064057600080fd5b810190808051604051939291908464010000000082111561066057600080fd5b90830190602082018581111561067557600080fd5b825186602082028301116401000000008211171561069257600080fd5b82525081516020918201928201910280838360005b838110156106bf5781810151838201526020016106a7565b505050509050016040525050509050806001815181106106db57fe5b602002602001015184146106eb57fe5b6106f6333388610c6c565b5034839003801561073057604051339082156108fc029083906000818181858888f1935050505015801561072e573d6000803e3d6000fd5b505b8160008151811061073d57fe5b602002602001015195505050505050919050565b600054600160a01b900460ff1681565b6000546001600160a01b031633146107ac576040805162461bcd60e51b81526020600482015260096024820152683737ba1037bbb732b960b91b604482015290519081900360640190fd5b600054600160a01b900460ff16156107c357600080fd5b6000805460ff60a01b1916600160a01b1781556040517f6985a02210a168e66602d3235cb6db0e70f92b3ba4d376a33c0f3d9434bff6259190a1565b6000546001600160a01b031681565b6000546001600160a01b03163314610859576040805162461bcd60e51b81526020600482015260096024820152683737ba1037bbb732b960b91b604482015290519081900360640190fd5b600355565b60035490565b60008061087083610a94565b60408051600280825260608083018452939450909160208301908036833701905050905073c02aaa39b223fe8d0a0e5c4f27ead9083c756cc2816000815181106108b657fe5b6001600160a01b03928316602091820292909201015260018054835192169183919081106108e057fe5b6001600160a01b03909216602092830291909101820152604080516307c0329d60e21b81526004810185815260248201928352845160448301528451737a250d5630b4cf539739df2c5dacb4c659f2488d94631f00ca749488948894939192606490910191858201910280838360005b83811015610968578181015183820152602001610950565b50505050905001935050505060006040518083038186803b15801561098c57600080fd5b505afa1580156109a0573d6000803e3d6000fd5b505050506040513d6000823e601f3d908101601f1916820160405260208110156109c957600080fd5b81019080805160405193929190846401000000008211156109e957600080fd5b9083019060208201858111156109fe57600080fd5b8251866020820283011164010000000082111715610a1b57600080fd5b82525081516020918201928201910280838360005b83811015610a48578181015183820152602001610a30565b50505050905001604052505050600081518110610a6157fe5b602002602001015192505050919050565b6000610a7f338484610c6c565b90505b92915050565b6000610a823383610a72565b600354600090610a829083610e15565b6000546001600160a01b03163314610aef576040805162461bcd60e51b81526020600482015260096024820152683737ba1037bbb732b960b91b604482015290519081900360640190fd5b600080546040516001600160a01b03808516939216917f8be0079c531659141344cd1fd0a4f28419497f9722a3daafe3b4186f6b6457e091a3600080546001600160a01b0319166001600160a01b0392909216919091179055565b6000546001600160a01b03163314610b95576040805162461bcd60e51b81526020600482015260096024820152683737ba1037bbb732b960b91b604482015290519081900360640190fd5b6001546040805163a9059cbb60e01b81526001600160a01b0385811660048301526024820185905291519190921691829163a9059cbb916044808201926020929091908290030181600087803b158015610bee57600080fd5b505af1158015610c02573d6000803e3d6000fd5b505050506040513d6020811015610c1857600080fd5b505161048a576040805162461bcd60e51b815260206004820152600f60248201526e151c985b9cd9995c8819985a5b1959608a1b604482015290519081900360640190fd5b6002546001600160a01b031681565b600080610c7883610a94565b600154604080516323b872dd60e01b81526001600160a01b03898116600483015230602483015260448201859052915193945091169182916323b872dd9160648083019260209291908290030181600087803b158015610cd757600080fd5b505af1158015610ceb573d6000803e3d6000fd5b505050506040513d6020811015610d0157600080fd5b5051610d0c57600080fd5b6002546040805163a9059cbb60e01b81526001600160a01b0388811660048301526024820188905291519190921691829163a9059cbb916044808201926020929091908290030181600087803b158015610d6557600080fd5b505af1158015610d79573d6000803e3d6000fd5b505050506040513d6020811015610d8f57600080fd5b5051610d9a57600080fd5b600254600154600354604080516001600160a01b03808d168252602082018b90529485168183015260608101889052600060808201529290931660a083015260c082015290517f1d914d293d114e6a0a5b5ab89613368175ca7aec4a5f3995b94a6ce3cbdac2419181900360e00190a1509095945050505050565b600082610e2457506000610a82565b5081810281838281610e3257fe5b0414610a8257fefea264697066735822122092e839c3fbdf3ba81eebd82180f97824120cfad35f009ea4fdc98c8d9443c66464736f6c63430007000033",
    "sourcePath": "c:/Users/luziu/Documents/aktionariat/contracts/src/Simpleton.sol",
    "compiler": {
        "name": "solc",
        "version": "0.7.0+commit.9e61f92b"
    },
    "functionHashes": {
        "base()": "5001f3b5",
        "buy(address,uint256)": "cce7ec13",
        "buy(uint256)": "d96a094a",
        "buyWithEther(uint256)": "550b9c11",
        "getPrice()": "98d5fdca",
        "getPrice(uint256)": "e7572230",
        "getPriceInEther(uint256)": "ae539d80",
        "owner()": "8da5cb5b",
        "pause()": "8456cb59",
        "paused()": "5c975abb",
        "setPrice(uint256)": "91b7f5ed",
        "token()": "fc0c546a",
        "transferOwnership(address)": "f2fde38b",
        "unpause()": "3f4ba83a",
        "withdraw(address,uint256)": "f3fef3a3",
        "withdrawETH(address,uint256)": "4782f779"
    },
    "gasEstimates": {
        "creation": {
            "codeDepositCost": "739200",
            "executionCost": "infinite",
            "totalCost": "infinite"
        },
        "external": {
            "base()": "1105",
            "buy(address,uint256)": "infinite",
            "buy(uint256)": "infinite",
            "buyWithEther(uint256)": "infinite",
            "getPrice()": "1021",
            "getPrice(uint256)": "infinite",
            "getPriceInEther(uint256)": "infinite",
            "owner()": "1104",
            "pause()": "23473",
            "paused()": "1050",
            "setPrice(uint256)": "21118",
            "token()": "1125",
            "transferOwnership(address)": "24311",
            "unpause()": "23437",
            "withdraw(address,uint256)": "infinite",
            "withdrawETH(address,uint256)": "infinite"
        },
        "internal": {
            "_buy(address,address,uint256)": "infinite"
        }
    }
}