{
    "contractName": "Simpleton",
    "abi": [
        {
            "inputs": [
                {
                    "internalType": "address",
                    "name": "baseCurrency",
                    "type": "address"
                },
                {
                    "internalType": "address",
                    "name": "shareToken",
                    "type": "address"
                }
            ],
            "stateMutability": "nonpayable",
            "type": "constructor"
        },
        {
            "anonymous": false,
            "inputs": [
                {
                    "indexed": true,
                    "internalType": "address",
                    "name": "previousOwner",
                    "type": "address"
                },
                {
                    "indexed": true,
                    "internalType": "address",
                    "name": "newOwner",
                    "type": "address"
                }
            ],
            "name": "OwnershipTransferred",
            "type": "event"
        },
        {
            "anonymous": false,
            "inputs": [
                {
                    "indexed": false,
                    "internalType": "address",
                    "name": "who",
                    "type": "address"
                },
                {
                    "indexed": false,
                    "internalType": "int256",
                    "name": "amount",
                    "type": "int256"
                },
                {
                    "indexed": false,
                    "internalType": "address",
                    "name": "token",
                    "type": "address"
                },
                {
                    "indexed": false,
                    "internalType": "uint256",
                    "name": "totPrice",
                    "type": "uint256"
                },
                {
                    "indexed": false,
                    "internalType": "uint256",
                    "name": "fee",
                    "type": "uint256"
                },
                {
                    "indexed": false,
                    "internalType": "address",
                    "name": "base",
                    "type": "address"
                },
                {
                    "indexed": false,
                    "internalType": "uint256",
                    "name": "price",
                    "type": "uint256"
                }
            ],
            "name": "Transaction",
            "type": "event"
        },
        {
            "inputs": [],
            "name": "base",
            "outputs": [
                {
                    "internalType": "address",
                    "name": "",
                    "type": "address"
                }
            ],
            "stateMutability": "view",
            "type": "function"
        },
        {
            "inputs": [
                {
                    "internalType": "address",
                    "name": "recipient",
                    "type": "address"
                },
                {
                    "internalType": "uint256",
                    "name": "numberOfSharesToBuy",
                    "type": "uint256"
                }
            ],
            "name": "buy",
            "outputs": [
                {
                    "internalType": "uint256",
                    "name": "",
                    "type": "uint256"
                }
            ],
            "stateMutability": "nonpayable",
            "type": "function"
        },
        {
            "inputs": [
                {
                    "internalType": "uint256",
                    "name": "numberOfSharesToBuy",
                    "type": "uint256"
                }
            ],
            "name": "buy",
            "outputs": [
                {
                    "internalType": "uint256",
                    "name": "",
                    "type": "uint256"
                }
            ],
            "stateMutability": "nonpayable",
            "type": "function"
        },
        {
            "inputs": [
                {
                    "internalType": "uint256",
                    "name": "shares",
                    "type": "uint256"
                }
            ],
            "name": "buyWithEther",
            "outputs": [
                {
                    "internalType": "uint256",
                    "name": "",
                    "type": "uint256"
                }
            ],
            "stateMutability": "payable",
            "type": "function"
        },
        {
            "inputs": [],
            "name": "getPrice",
            "outputs": [
                {
                    "internalType": "uint256",
                    "name": "",
                    "type": "uint256"
                }
            ],
            "stateMutability": "view",
            "type": "function"
        },
        {
            "inputs": [
                {
                    "internalType": "uint256",
                    "name": "shares",
                    "type": "uint256"
                }
            ],
            "name": "getPrice",
            "outputs": [
                {
                    "internalType": "uint256",
                    "name": "",
                    "type": "uint256"
                }
            ],
            "stateMutability": "view",
            "type": "function"
        },
        {
            "inputs": [
                {
                    "internalType": "uint256",
                    "name": "shares",
                    "type": "uint256"
                }
            ],
            "name": "getPriceInEther",
            "outputs": [
                {
                    "internalType": "uint256",
                    "name": "",
                    "type": "uint256"
                }
            ],
            "stateMutability": "view",
            "type": "function"
        },
        {
            "inputs": [],
            "name": "owner",
            "outputs": [
                {
                    "internalType": "address",
                    "name": "",
                    "type": "address"
                }
            ],
            "stateMutability": "view",
            "type": "function"
        },
        {
            "inputs": [
                {
                    "internalType": "uint256",
                    "name": "newPrice",
                    "type": "uint256"
                }
            ],
            "name": "setPrice",
            "outputs": [],
            "stateMutability": "nonpayable",
            "type": "function"
        },
        {
            "inputs": [],
            "name": "token",
            "outputs": [
                {
                    "internalType": "address",
                    "name": "",
                    "type": "address"
                }
            ],
            "stateMutability": "view",
            "type": "function"
        },
        {
            "inputs": [
                {
                    "internalType": "address",
                    "name": "newOwner",
                    "type": "address"
                }
            ],
            "name": "transferOwnership",
            "outputs": [],
            "stateMutability": "nonpayable",
            "type": "function"
        },
        {
            "inputs": [
                {
                    "internalType": "address",
                    "name": "to",
                    "type": "address"
                },
                {
                    "internalType": "uint256",
                    "name": "amount",
                    "type": "uint256"
                }
            ],
            "name": "withdraw",
            "outputs": [],
            "stateMutability": "nonpayable",
            "type": "function"
        },
        {
            "inputs": [
                {
                    "internalType": "address payable",
                    "name": "to",
                    "type": "address"
                },
                {
                    "internalType": "uint256",
                    "name": "amount",
                    "type": "uint256"
                }
            ],
            "name": "withdrawETH",
            "outputs": [],
            "stateMutability": "nonpayable",
            "type": "function"
        }
    ],
    "bytecode": "608060405234801561001057600080fd5b50604051610e63380380610e6383398101604081905261002f916100c5565b600080546001600160a01b03191633178082556040516001600160a01b039190911691907f8be0079c531659141344cd1fd0a4f28419497f9722a3daafe3b4186f6b6457e0908290a3600180546001600160a01b039384166001600160a01b031991821617909155600280549290931691161790556100f7565b80516001600160a01b03811681146100c057600080fd5b919050565b600080604083850312156100d7578182fd5b6100e0836100a9565b91506100ee602084016100a9565b90509250929050565b610d5d806101066000396000f3fe6080604052600436106100c25760003560e01c8063ae539d801161007f578063e757223011610059578063e7572230146101de578063f2fde38b146101fe578063f3fef3a31461021e578063fc0c546a1461023e576100c2565b8063ae539d801461017e578063cce7ec131461019e578063d96a094a146101be576100c2565b80634782f779146100c75780635001f3b5146100e9578063550b9c11146101145780638da5cb5b1461013457806391b7f5ed1461014957806398d5fdca14610169575b600080fd5b3480156100d357600080fd5b506100e76100e23660046109ff565b610253565b005b3480156100f557600080fd5b506100fe6102c1565b60405161010b9190610b71565b60405180910390f35b610127610122366004610b16565b6102d0565b60405161010b9190610c4e565b34801561014057600080fd5b506100fe6104fe565b34801561015557600080fd5b506100e7610164366004610b16565b61050d565b34801561017557600080fd5b5061012761053c565b34801561018a57600080fd5b50610127610199366004610b16565b610542565b3480156101aa57600080fd5b506101276101b9366004610a2a565b6106be565b3480156101ca57600080fd5b506101276101d9366004610b16565b6106d2565b3480156101ea57600080fd5b506101276101f9366004610b16565b6106e4565b34801561020a57600080fd5b506100e76102193660046109e3565b6106f4565b34801561022a57600080fd5b506100e7610239366004610a2a565b610779565b34801561024a57600080fd5b506100fe610845565b6000546001600160a01b031633146102865760405162461bcd60e51b815260040161027d90610c2b565b60405180910390fd5b6040516001600160a01b0383169082156108fc029083906000818181858888f193505050501580156102bc573d6000803e3d6000fd5b505050565b6001546001600160a01b031681565b6000806102dc836106e4565b905060006102e984610542565b604080516002808252606082018352929350600092909160208301908036833701905050905073c02aaa39b223fe8d0a0e5c4f27ead9083c756cc28160008151811061034557634e487b7160e01b600052603260045260246000fd5b6001600160a01b039283166020918202929092010152600180548351921691839190811061038357634e487b7160e01b600052603260045260246000fd5b6001600160a01b039092166020928302919091019091015260405163fb3bdb4160e01b8152600090737a250d5630b4cf539739df2c5dacb4c659f2488d9063fb3bdb419085906103dd908890879030904290600401610c78565b6000604051808303818588803b1580156103f657600080fd5b505af115801561040a573d6000803e3d6000fd5b50505050506040513d6000823e601f3d908101601f191682016040526104339190810190610a3c565b90508060018151811061045657634e487b7160e01b600052603260045260246000fd5b6020026020010151841461047a57634e487b7160e01b600052600160045260246000fd5b610485333388610854565b5060006104928434610ccc565b905080156104c957604051339082156108fc029083906000818181858888f193505050501580156104c7573d6000803e3d6000fd5b505b816000815181106104ea57634e487b7160e01b600052603260045260246000fd5b602002602001015195505050505050919050565b6000546001600160a01b031681565b6000546001600160a01b031633146105375760405162461bcd60e51b815260040161027d90610c2b565b600355565b60035490565b60008061054e836106e4565b604080516002808252606082018352929350600092909160208301908036833701905050905073c02aaa39b223fe8d0a0e5c4f27ead9083c756cc2816000815181106105aa57634e487b7160e01b600052603260045260246000fd5b6001600160a01b03928316602091820292909201015260018054835192169183919081106105e857634e487b7160e01b600052603260045260246000fd5b6001600160a01b03909216602092830291909101909101526040516307c0329d60e21b8152737a250d5630b4cf539739df2c5dacb4c659f2488d90631f00ca74906106399085908590600401610c57565b60006040518083038186803b15801561065157600080fd5b505afa158015610665573d6000803e3d6000fd5b505050506040513d6000823e601f3d908101601f1916820160405261068d9190810190610a3c565b6000815181106106ad57634e487b7160e01b600052603260045260246000fd5b602002602001015192505050919050565b60006106cb338484610854565b9392505050565b60006106de33836106be565b92915050565b6000816003546106de9190610cad565b6000546001600160a01b0316331461071e5760405162461bcd60e51b815260040161027d90610c2b565b600080546040516001600160a01b03808516939216917f8be0079c531659141344cd1fd0a4f28419497f9722a3daafe3b4186f6b6457e091a3600080546001600160a01b0319166001600160a01b0392909216919091179055565b6000546001600160a01b031633146107a35760405162461bcd60e51b815260040161027d90610c2b565b60015460405163a9059cbb60e01b81526001600160a01b0390911690819063a9059cbb906107d79086908690600401610be9565b602060405180830381600087803b1580156107f157600080fd5b505af1158015610805573d6000803e3d6000fd5b505050506040513d601f19601f820116820180604052508101906108299190610af6565b6102bc5760405162461bcd60e51b815260040161027d90610c02565b6002546001600160a01b031681565b600080610860836106e4565b6001546040516323b872dd60e01b81529192506001600160a01b03169081906323b872dd9061089790899030908790600401610b85565b602060405180830381600087803b1580156108b157600080fd5b505af11580156108c5573d6000803e3d6000fd5b505050506040513d601f19601f820116820180604052508101906108e99190610af6565b6108f257600080fd5b60025460405163a9059cbb60e01b81526001600160a01b0390911690819063a9059cbb906109269089908990600401610be9565b602060405180830381600087803b15801561094057600080fd5b505af1158015610954573d6000803e3d6000fd5b505050506040513d601f19601f820116820180604052508101906109789190610af6565b61098157600080fd5b6002546001546003546040517f1d914d293d114e6a0a5b5ab89613368175ca7aec4a5f3995b94a6ce3cbdac241936109d0938c938b936001600160a01b03938416938b93600093911691610ba9565b60405180910390a1509095945050505050565b6000602082840312156109f4578081fd5b81356106cb81610d0f565b60008060408385031215610a11578081fd5b8235610a1c81610d0f565b946020939093013593505050565b60008060408385031215610a11578182fd5b60006020808385031215610a4e578182fd5b825167ffffffffffffffff80821115610a65578384fd5b818501915085601f830112610a78578384fd5b815181811115610a8a57610a8a610cf9565b83810260405185828201018181108582111715610aa957610aa9610cf9565b604052828152858101935084860182860187018a1015610ac7578788fd5b8795505b83861015610ae9578051855260019590950194938601938601610acb565b5098975050505050505050565b600060208284031215610b07578081fd5b815180151581146106cb578182fd5b600060208284031215610b27578081fd5b5035919050565b6000815180845260208085019450808401835b83811015610b665781516001600160a01b031687529582019590820190600101610b41565b509495945050505050565b6001600160a01b0391909116815260200190565b6001600160a01b039384168152919092166020820152604081019190915260600190565b6001600160a01b039788168152602081019690965293861660408601526060850192909252608084015290921660a082015260c081019190915260e00190565b6001600160a01b03929092168252602082015260400190565b6020808252600f908201526e151c985b9cd9995c8819985a5b1959608a1b604082015260600190565b6020808252600990820152683737ba1037bbb732b960b91b604082015260600190565b90815260200190565b600083825260406020830152610c706040830184610b2e565b949350505050565b600085825260806020830152610c916080830186610b2e565b6001600160a01b03949094166040830152506060015292915050565b6000816000190483118215151615610cc757610cc7610ce3565b500290565b600082821015610cde57610cde610ce3565b500390565b634e487b7160e01b600052601160045260246000fd5b634e487b7160e01b600052604160045260246000fd5b6001600160a01b0381168114610d2457600080fd5b5056fea2646970667358221220390b78c53375c5c3cf2188640b5799e75d95ce858a79047715ebdff4f5bdc99364736f6c63430008000033",
    "sourcePath": "c:/Users/luziu/Documents/aktionariat/contracts/src/Simpleton.sol",
    "compiler": {
        "name": "solc",
        "version": "0.8.0+commit.c7dfd78e"
    },
    "functionHashes": {
        "base()": "5001f3b5",
        "buy(address,uint256)": "cce7ec13",
        "buy(uint256)": "d96a094a",
        "buyWithEther(uint256)": "550b9c11",
        "getPrice()": "98d5fdca",
        "getPrice(uint256)": "e7572230",
        "getPriceInEther(uint256)": "ae539d80",
        "owner()": "8da5cb5b",
        "setPrice(uint256)": "91b7f5ed",
        "token()": "fc0c546a",
        "transferOwnership(address)": "f2fde38b",
        "withdraw(address,uint256)": "f3fef3a3",
        "withdrawETH(address,uint256)": "4782f779"
    },
    "gasEstimates": {
        "creation": {
            "codeDepositCost": "684200",
            "executionCost": "infinite",
            "totalCost": "infinite"
        },
        "external": {
            "base()": "1093",
            "buy(address,uint256)": "infinite",
            "buy(uint256)": "infinite",
            "buyWithEther(uint256)": "infinite",
            "getPrice()": "1139",
            "getPrice(uint256)": "1232",
            "getPriceInEther(uint256)": "infinite",
            "owner()": "1137",
            "setPrice(uint256)": "21153",
            "token()": "1158",
            "transferOwnership(address)": "24403",
            "withdraw(address,uint256)": "infinite",
            "withdrawETH(address,uint256)": "infinite"
        },
        "internal": {
            "_buy(address,address,uint256)": "infinite"
        }
    }
}