{
  "address": "0xE51ae6D0106Cd5a3a685154ca8400b903BE15e8A",
  "abi": [
    {
      "inputs": [
        {
          "internalType": "string",
          "name": "_symbol",
          "type": "string"
        },
        {
          "internalType": "string",
          "name": "_name",
          "type": "string"
        },
        {
          "internalType": "string",
          "name": "_terms",
          "type": "string"
        },
        {
          "internalType": "uint256",
          "name": "_totalShares",
          "type": "uint256"
        },
        {
          "internalType": "contract IRecoveryHub",
          "name": "_recoveryHub",
          "type": "address"
        },
        {
          "internalType": "address",
          "name": "_owner",
          "type": "address"
        }
      ],
      "stateMutability": "nonpayable",
      "type": "constructor"
    },
    {
      "anonymous": false,
      "inputs": [
        {
          "indexed": true,
          "internalType": "address",
          "name": "account",
          "type": "address"
        },
        {
          "indexed": false,
          "internalType": "uint8",
          "name": "addressType",
          "type": "uint8"
        }
      ],
      "name": "AddressTypeUpdate",
      "type": "event"
    },
    {
      "anonymous": false,
      "inputs": [
        {
          "indexed": false,
          "internalType": "string",
          "name": "message",
          "type": "string"
        }
      ],
      "name": "Announcement",
      "type": "event"
    },
    {
      "anonymous": false,
      "inputs": [
        {
          "indexed": true,
          "internalType": "address",
          "name": "owner",
          "type": "address"
        },
        {
          "indexed": true,
          "internalType": "address",
          "name": "spender",
          "type": "address"
        },
        {
          "indexed": false,
          "internalType": "uint256",
          "name": "value",
          "type": "uint256"
        }
      ],
      "name": "Approval",
      "type": "event"
    },
    {
      "anonymous": false,
      "inputs": [
        {
          "indexed": false,
          "internalType": "string",
          "name": "terms",
          "type": "string"
        }
      ],
      "name": "ChangeTerms",
      "type": "event"
    },
    {
      "anonymous": false,
      "inputs": [
        {
          "indexed": false,
          "internalType": "uint256",
          "name": "total",
          "type": "uint256"
        }
      ],
      "name": "ChangeTotalShares",
      "type": "event"
    },
    {
      "anonymous": false,
      "inputs": [
        {
          "indexed": false,
          "internalType": "string",
          "name": "name",
          "type": "string"
        },
        {
          "indexed": false,
          "internalType": "string",
          "name": "symbol",
          "type": "string"
        }
      ],
      "name": "NameChanged",
      "type": "event"
    },
    {
      "anonymous": false,
      "inputs": [
        {
          "indexed": true,
          "internalType": "address",
          "name": "previousOwner",
          "type": "address"
        },
        {
          "indexed": true,
          "internalType": "address",
          "name": "newOwner",
          "type": "address"
        }
      ],
      "name": "OwnershipTransferred",
      "type": "event"
    },
    {
      "anonymous": false,
      "inputs": [
        {
          "indexed": true,
          "internalType": "address",
          "name": "holder",
          "type": "address"
        },
        {
          "indexed": false,
          "internalType": "uint256",
          "name": "amount",
          "type": "uint256"
        },
        {
          "indexed": false,
          "internalType": "string",
          "name": "message",
          "type": "string"
        }
      ],
      "name": "TokensDeclaredInvalid",
      "type": "event"
    },
    {
      "anonymous": false,
      "inputs": [
        {
          "indexed": true,
          "internalType": "address",
          "name": "from",
          "type": "address"
        },
        {
          "indexed": true,
          "internalType": "address",
          "name": "to",
          "type": "address"
        },
        {
          "indexed": false,
          "internalType": "uint256",
          "name": "value",
          "type": "uint256"
        }
      ],
      "name": "Transfer",
      "type": "event"
    },
    {
      "inputs": [],
      "name": "DOMAIN_SEPARATOR",
      "outputs": [
        {
          "internalType": "bytes32",
          "name": "",
          "type": "bytes32"
        }
      ],
      "stateMutability": "view",
      "type": "function"
    },
    {
      "inputs": [],
      "name": "VERSION",
      "outputs": [
        {
          "internalType": "uint8",
          "name": "",
          "type": "uint8"
        }
      ],
      "stateMutability": "view",
      "type": "function"
    },
    {
      "inputs": [
        {
          "internalType": "address",
          "name": "owner",
          "type": "address"
        },
        {
          "internalType": "address",
          "name": "spender",
          "type": "address"
        }
      ],
      "name": "allowance",
      "outputs": [
        {
          "internalType": "uint256",
          "name": "",
          "type": "uint256"
        }
      ],
      "stateMutability": "view",
      "type": "function"
    },
    {
      "inputs": [
        {
          "internalType": "string",
          "name": "message",
          "type": "string"
        }
      ],
      "name": "announcement",
      "outputs": [],
      "stateMutability": "nonpayable",
      "type": "function"
    },
    {
      "inputs": [
        {
          "internalType": "address",
          "name": "spender",
          "type": "address"
        },
        {
          "internalType": "uint256",
          "name": "value",
          "type": "uint256"
        }
      ],
      "name": "approve",
      "outputs": [
        {
          "internalType": "bool",
          "name": "",
          "type": "bool"
        }
      ],
      "stateMutability": "nonpayable",
      "type": "function"
    },
    {
      "inputs": [
        {
          "internalType": "address",
          "name": "account",
          "type": "address"
        }
      ],
      "name": "balanceOf",
      "outputs": [
        {
          "internalType": "uint256",
          "name": "",
          "type": "uint256"
        }
      ],
      "stateMutability": "view",
      "type": "function"
    },
    {
      "inputs": [
        {
          "internalType": "uint256",
          "name": "_amount",
          "type": "uint256"
        }
      ],
      "name": "burn",
      "outputs": [],
      "stateMutability": "nonpayable",
      "type": "function"
    },
    {
      "inputs": [
        {
          "internalType": "address",
          "name": "account",
          "type": "address"
        }
      ],
      "name": "canReceiveFromAnyone",
      "outputs": [
        {
          "internalType": "bool",
          "name": "",
          "type": "bool"
        }
      ],
      "stateMutability": "view",
      "type": "function"
    },
    {
      "inputs": [],
      "name": "claimPeriod",
      "outputs": [
        {
          "internalType": "uint256",
          "name": "",
          "type": "uint256"
        }
      ],
      "stateMutability": "pure",
      "type": "function"
    },
    {
      "inputs": [],
      "name": "customCollateralAddress",
      "outputs": [
        {
          "internalType": "contract IERC20",
          "name": "",
          "type": "address"
        }
      ],
      "stateMutability": "view",
      "type": "function"
    },
    {
      "inputs": [],
      "name": "customCollateralRate",
      "outputs": [
        {
          "internalType": "uint256",
          "name": "",
          "type": "uint256"
        }
      ],
      "stateMutability": "view",
      "type": "function"
    },
    {
      "inputs": [],
      "name": "decimals",
      "outputs": [
        {
          "internalType": "uint8",
          "name": "",
          "type": "uint8"
        }
      ],
      "stateMutability": "view",
      "type": "function"
    },
    {
      "inputs": [
        {
          "internalType": "address",
          "name": "holder",
          "type": "address"
        },
        {
          "internalType": "uint256",
          "name": "amount",
          "type": "uint256"
        },
        {
          "internalType": "string",
          "name": "message",
          "type": "string"
        }
      ],
      "name": "declareInvalid",
      "outputs": [],
      "stateMutability": "nonpayable",
      "type": "function"
    },
    {
      "inputs": [
        {
          "internalType": "address",
          "name": "lostAddress",
          "type": "address"
        }
      ],
      "name": "deleteClaim",
      "outputs": [],
      "stateMutability": "nonpayable",
      "type": "function"
    },
    {
      "inputs": [],
      "name": "getClaimDeleter",
      "outputs": [
        {
          "internalType": "address",
          "name": "",
          "type": "address"
        }
      ],
      "stateMutability": "view",
      "type": "function"
    },
    {
      "inputs": [
        {
          "internalType": "contract IERC20",
          "name": "collateralType",
          "type": "address"
        }
      ],
      "name": "getCollateralRate",
      "outputs": [
        {
          "internalType": "uint256",
          "name": "",
          "type": "uint256"
        }
      ],
      "stateMutability": "view",
      "type": "function"
    },
    {
      "inputs": [
        {
          "internalType": "address",
          "name": "account",
          "type": "address"
        },
        {
          "internalType": "uint8",
          "name": "number",
          "type": "uint8"
        }
      ],
      "name": "hasFlag",
      "outputs": [
        {
          "internalType": "bool",
          "name": "",
          "type": "bool"
        }
      ],
      "stateMutability": "view",
      "type": "function"
    },
    {
      "inputs": [],
      "name": "invalidTokens",
      "outputs": [
        {
          "internalType": "uint256",
          "name": "",
          "type": "uint256"
        }
      ],
      "stateMutability": "view",
      "type": "function"
    },
    {
      "inputs": [
        {
          "internalType": "address",
          "name": "account",
          "type": "address"
        }
      ],
      "name": "isForbidden",
      "outputs": [
        {
          "internalType": "bool",
          "name": "",
          "type": "bool"
        }
      ],
      "stateMutability": "view",
      "type": "function"
    },
    {
      "inputs": [
        {
          "internalType": "address",
          "name": "account",
          "type": "address"
        }
      ],
      "name": "isPowerlisted",
      "outputs": [
        {
          "internalType": "bool",
          "name": "",
          "type": "bool"
        }
      ],
      "stateMutability": "view",
      "type": "function"
    },
    {
      "inputs": [
        {
          "internalType": "address",
          "name": "target",
          "type": "address"
        },
        {
          "internalType": "uint256",
          "name": "amount",
          "type": "uint256"
        }
      ],
      "name": "mint",
      "outputs": [],
      "stateMutability": "nonpayable",
      "type": "function"
    },
    {
      "inputs": [
        {
          "internalType": "address",
          "name": "shareholder",
          "type": "address"
        },
        {
          "internalType": "address",
          "name": "callee",
          "type": "address"
        },
        {
          "internalType": "uint256",
          "name": "amount",
          "type": "uint256"
        },
        {
          "internalType": "bytes",
          "name": "data",
          "type": "bytes"
        }
      ],
      "name": "mintAndCall",
      "outputs": [],
      "stateMutability": "nonpayable",
      "type": "function"
    },
    {
      "inputs": [
        {
          "internalType": "address[]",
          "name": "target",
          "type": "address[]"
        },
        {
          "internalType": "uint256[]",
          "name": "amount",
          "type": "uint256[]"
        }
      ],
      "name": "mintMany",
      "outputs": [],
      "stateMutability": "nonpayable",
      "type": "function"
    },
    {
      "inputs": [
        {
          "internalType": "address[]",
          "name": "target",
          "type": "address[]"
        },
        {
          "internalType": "address",
          "name": "callee",
          "type": "address"
        },
        {
          "internalType": "uint256[]",
          "name": "amount",
          "type": "uint256[]"
        },
        {
          "internalType": "bytes",
          "name": "data",
          "type": "bytes"
        }
      ],
      "name": "mintManyAndCall",
      "outputs": [],
      "stateMutability": "nonpayable",
      "type": "function"
    },
    {
      "inputs": [],
      "name": "name",
      "outputs": [
        {
          "internalType": "string",
          "name": "",
          "type": "string"
        }
      ],
      "stateMutability": "view",
      "type": "function"
    },
    {
      "inputs": [
        {
          "internalType": "address",
          "name": "",
          "type": "address"
        }
      ],
      "name": "nonces",
      "outputs": [
        {
          "internalType": "uint256",
          "name": "",
          "type": "uint256"
        }
      ],
      "stateMutability": "view",
      "type": "function"
    },
    {
      "inputs": [
        {
          "internalType": "address",
          "name": "target",
          "type": "address"
        }
      ],
      "name": "notifyClaimDeleted",
      "outputs": [],
      "stateMutability": "nonpayable",
      "type": "function"
    },
    {
      "inputs": [
        {
          "internalType": "address",
          "name": "target",
          "type": "address"
        }
      ],
      "name": "notifyClaimMade",
      "outputs": [],
      "stateMutability": "nonpayable",
      "type": "function"
    },
    {
      "inputs": [],
      "name": "owner",
      "outputs": [
        {
          "internalType": "address",
          "name": "",
          "type": "address"
        }
      ],
      "stateMutability": "view",
      "type": "function"
    },
    {
      "inputs": [
        {
          "internalType": "address",
          "name": "owner",
          "type": "address"
        },
        {
          "internalType": "address",
          "name": "spender",
          "type": "address"
        },
        {
          "internalType": "uint256",
          "name": "value",
          "type": "uint256"
        },
        {
          "internalType": "uint256",
          "name": "deadline",
          "type": "uint256"
        },
        {
          "internalType": "uint8",
          "name": "v",
          "type": "uint8"
        },
        {
          "internalType": "bytes32",
          "name": "r",
          "type": "bytes32"
        },
        {
          "internalType": "bytes32",
          "name": "s",
          "type": "bytes32"
        }
      ],
      "name": "permit",
      "outputs": [],
      "stateMutability": "nonpayable",
      "type": "function"
    },
    {
      "inputs": [
        {
          "internalType": "address",
          "name": "oldAddress",
          "type": "address"
        },
        {
          "internalType": "address",
          "name": "newAddress",
          "type": "address"
        }
      ],
      "name": "recover",
      "outputs": [],
      "stateMutability": "nonpayable",
      "type": "function"
    },
    {
      "inputs": [],
      "name": "recovery",
      "outputs": [
        {
          "internalType": "contract IRecoveryHub",
          "name": "",
          "type": "address"
        }
      ],
      "stateMutability": "view",
      "type": "function"
    },
    {
      "inputs": [],
      "name": "restrictTransfers",
      "outputs": [
        {
          "internalType": "bool",
          "name": "",
          "type": "bool"
        }
      ],
      "stateMutability": "view",
      "type": "function"
    },
    {
      "inputs": [
        {
          "internalType": "bool",
          "name": "transferRestrictionsApplicable",
          "type": "bool"
        }
      ],
      "name": "setApplicable",
      "outputs": [],
      "stateMutability": "nonpayable",
      "type": "function"
    },
    {
      "inputs": [
        {
          "internalType": "contract IERC20",
          "name": "collateral",
          "type": "address"
        },
        {
          "internalType": "uint256",
          "name": "rate",
          "type": "uint256"
        }
      ],
      "name": "setCustomClaimCollateral",
      "outputs": [],
      "stateMutability": "nonpayable",
      "type": "function"
    },
    {
      "inputs": [
        {
          "internalType": "string",
          "name": "_symbol",
          "type": "string"
        },
        {
          "internalType": "string",
          "name": "_name",
          "type": "string"
        }
      ],
      "name": "setName",
      "outputs": [],
      "stateMutability": "nonpayable",
      "type": "function"
    },
    {
      "inputs": [
        {
          "internalType": "string",
          "name": "_terms",
          "type": "string"
        }
      ],
      "name": "setTerms",
      "outputs": [],
      "stateMutability": "nonpayable",
      "type": "function"
    },
    {
      "inputs": [
        {
          "internalType": "uint256",
          "name": "_newTotalShares",
          "type": "uint256"
        }
      ],
      "name": "setTotalShares",
      "outputs": [],
      "stateMutability": "nonpayable",
      "type": "function"
    },
    {
      "inputs": [
        {
          "internalType": "address[]",
          "name": "addressesToAdd",
          "type": "address[]"
        },
        {
          "internalType": "uint8",
          "name": "value",
          "type": "uint8"
        }
      ],
      "name": "setType",
      "outputs": [],
      "stateMutability": "nonpayable",
      "type": "function"
    },
    {
      "inputs": [
        {
          "internalType": "address",
          "name": "account",
          "type": "address"
        },
        {
          "internalType": "uint8",
          "name": "typeNumber",
          "type": "uint8"
        }
      ],
      "name": "setType",
      "outputs": [],
      "stateMutability": "nonpayable",
      "type": "function"
    },
    {
      "inputs": [],
      "name": "symbol",
      "outputs": [
        {
          "internalType": "string",
          "name": "",
          "type": "string"
        }
      ],
      "stateMutability": "view",
      "type": "function"
    },
    {
      "inputs": [],
      "name": "terms",
      "outputs": [
        {
          "internalType": "string",
          "name": "",
          "type": "string"
        }
      ],
      "stateMutability": "view",
      "type": "function"
    },
    {
      "inputs": [],
      "name": "totalShares",
      "outputs": [
        {
          "internalType": "uint256",
          "name": "",
          "type": "uint256"
        }
      ],
      "stateMutability": "view",
      "type": "function"
    },
    {
      "inputs": [],
      "name": "totalSupply",
      "outputs": [
        {
          "internalType": "uint256",
          "name": "",
          "type": "uint256"
        }
      ],
      "stateMutability": "view",
      "type": "function"
    },
    {
      "inputs": [],
      "name": "totalValidSupply",
      "outputs": [
        {
          "internalType": "uint256",
          "name": "",
          "type": "uint256"
        }
      ],
      "stateMutability": "view",
      "type": "function"
    },
    {
      "inputs": [
        {
          "internalType": "address",
          "name": "recipient",
          "type": "address"
        },
        {
          "internalType": "uint256",
          "name": "amount",
          "type": "uint256"
        }
      ],
      "name": "transfer",
      "outputs": [
        {
          "internalType": "bool",
          "name": "",
          "type": "bool"
        }
      ],
      "stateMutability": "nonpayable",
      "type": "function"
    },
    {
      "inputs": [
        {
          "internalType": "address",
          "name": "recipient",
          "type": "address"
        },
        {
          "internalType": "uint256",
          "name": "amount",
          "type": "uint256"
        },
        {
          "internalType": "bytes",
          "name": "data",
          "type": "bytes"
        }
      ],
      "name": "transferAndCall",
      "outputs": [
        {
          "internalType": "bool",
          "name": "",
          "type": "bool"
        }
      ],
      "stateMutability": "nonpayable",
      "type": "function"
    },
    {
      "inputs": [
        {
          "internalType": "address",
          "name": "sender",
          "type": "address"
        },
        {
          "internalType": "address",
          "name": "recipient",
          "type": "address"
        },
        {
          "internalType": "uint256",
          "name": "amount",
          "type": "uint256"
        }
      ],
      "name": "transferFrom",
      "outputs": [
        {
          "internalType": "bool",
          "name": "",
          "type": "bool"
        }
      ],
      "stateMutability": "nonpayable",
      "type": "function"
    },
    {
      "inputs": [
        {
          "internalType": "address",
          "name": "newOwner",
          "type": "address"
        }
      ],
      "name": "transferOwnership",
      "outputs": [],
      "stateMutability": "nonpayable",
      "type": "function"
    }
  ],
  "transactionHash": "0xf183f4ba5ac823688d8fb6f169191abe4ef15feea4d4bdf0950f76dab24ece6d",
  "args": [
    "AUVI",
    "AUVISO Audio Visual Solutions AG Mitarbeiteraktien",
    "investors.auviso.ch",
    "2240000",
    "0xf00B91839fF7A6AC6DddAC7e73D2F222C19A9Ec3",
    "0xfd8C5fD8C99bf4f9C0179b60865916e6D04103Ee"
  ],
  "numDeployments": 1,
  "solcInputHash": "5e415c0a9a3be76fbdd99e08cf041e25",
  "bytecode": "0x60a06040523480156200001157600080fd5b5060405162002bfb38038062002bfb8339810160408190526200003491620003ac565b6003805460ff191690556001600160a01b03828116608052600580546001600160a01b031916918316918217905560405187918791879187918691889187918791600091869182919084907f8be0079c531659141344cd1fd0a4f28419497f9722a3daafe3b4186f6b6457e0908290a350620000b1848462000151565b505050600a849055506009620000c8858262000501565b506000600b819055604051636427ed9760e01b815260048101919091526001600160a01b03821690636427ed9790602401600060405180830381600087803b1580156200011457600080fd5b505af115801562000129573d6000803e3d6000fd5b50505050505050505050620001456001620001ae60201b60201c565b5050505050506200065b565b60076200015f838262000501565b5060066200016e828262000501565b507f6c20b91d1723b78732eba64ff11ebd7966a6e4af568a00fa4f6b72c20f58b02a8183604051620001a2929190620005fb565b60405180910390a15050565b600c805460ff19168215801591909117909155620001d757620001d460006004620001df565b50565b620001d46000805b620001f382601460ff841660011462000260565b6200020782601560ff841660021462000260565b6200021b82601660ff841660041462000260565b60405160ff821681526001600160a01b038316907fe423d7d31023dbacefed7c937785d0012ad8f314381295efebfc0471d2c434549060200160405180910390a25050565b60006200026f8360e06200062d565b6001600160a01b038516600090815260208190526040902054600160ff929092169190911b9150808216821483151514620002c2576001600160a01b038516600090815260208190526040902081831890555b5050505050565b634e487b7160e01b600052604160045260246000fd5b60005b83811015620002fc578181015183820152602001620002e2565b50506000910152565b600082601f8301126200031757600080fd5b81516001600160401b0380821115620003345762000334620002c9565b604051601f8301601f19908116603f011681019082821181831017156200035f576200035f620002c9565b816040528381528660208588010111156200037957600080fd5b6200038c846020830160208901620002df565b9695505050505050565b6001600160a01b0381168114620001d457600080fd5b60008060008060008060c08789031215620003c657600080fd5b86516001600160401b0380821115620003de57600080fd5b620003ec8a838b0162000305565b975060208901519150808211156200040357600080fd5b620004118a838b0162000305565b965060408901519150808211156200042857600080fd5b506200043789828a0162000305565b945050606087015192506080870151620004518162000396565b60a0880151909250620004648162000396565b809150509295509295509295565b600181811c908216806200048757607f821691505b602082108103620004a857634e487b7160e01b600052602260045260246000fd5b50919050565b601f821115620004fc57600081815260208120601f850160051c81016020861015620004d75750805b601f850160051c820191505b81811015620004f857828155600101620004e3565b5050505b505050565b81516001600160401b038111156200051d576200051d620002c9565b62000535816200052e845462000472565b84620004ae565b602080601f8311600181146200056d5760008415620005545750858301515b600019600386901b1c1916600185901b178555620004f8565b600085815260208120601f198616915b828110156200059e578886015182559484019460019091019084016200057d565b5085821015620005bd5787850151600019600388901b60f8161c191681555b5050505050600190811b01905550565b60008151808452620005e7816020860160208601620002df565b601f01601f19169290920160200192915050565b604081526000620006106040830185620005cd565b8281036020840152620006248185620005cd565b95945050505050565b60ff81811683821601908111156200065557634e487b7160e01b600052601160045260246000fd5b92915050565b6080516125616200069a600039600081816105ff0152818161088e01528181610dda01528181611055015281816112da01526119b101526125616000f3fe608060405234801561001057600080fd5b50600436106102bb5760003560e01c806370a0823111610182578063b1c8db66116100e9578063ddceafa9116100a2578063f2fde38b1161007c578063f2fde38b14610647578063f54fc0601461065a578063f5c0b95f1461066d578063ffa1ad741461068057600080fd5b8063ddceafa9146105fa578063e445d70a14610621578063e5b824ec1461063457600080fd5b8063b1c8db6614610573578063c18172c414610586578063d37a9bb014610599578063d5025625146105a6578063d505accf146105ae578063dd62ed3e146105c157600080fd5b806395d89b411161013b57806395d89b41146105175780639e37878c1461051f578063a49a7cb114610532578063a77384c114610545578063a9059cbb14610558578063b0d04c7a1461056b57600080fd5b806370a08231146104a257806377e071ad146104b557806378f86afc146104c85780637dc2cd98146104db5780637ecebe00146104e45780638da5cb5b1461050457600080fd5b80633a1cdf3211610226578063429c66f0116101df578063429c66f01461043a578063487346b21461044d5780635c707f07146104605780635d6624b7146104735780636091811714610486578063648bf7741461048f57600080fd5b80633a1cdf32146103d25780633a98ef39146103e55780634000aea0146103ee5780634029a3ce1461040157806340c10f191461041457806342966c681461042757600080fd5b80632a0a4ed5116102785780632a0a4ed51461036b5780632b3430991461037c578063313ce5671461038f57806332a7ae95146103ae5780633644e515146103c157806337a8129c146103c957600080fd5b806306fdde03146102c0578063095ea7b3146102de5780630c6f0e5d1461030157806318160ddd146103315780631f0f06aa1461034357806323b872dd14610358575b600080fd5b6102c8610688565b6040516102d59190611c05565b60405180910390f35b6102f16102ec366004611c2d565b610716565b60405190151581526020016102d5565b6003546103199061010090046001600160a01b031681565b6040516001600160a01b0390911681526020016102d5565b6002545b6040519081526020016102d5565b610356610351366004611ca2565b61072d565b005b6102f1610366366004611ce4565b61079d565b6005546001600160a01b0316610319565b6102f161038a366004611d25565b610814565b60035461039c9060ff1681565b60405160ff90911681526020016102d5565b6103566103bc366004611d25565b610821565b6103356108ed565b610335600b5481565b6103566103e0366004611c2d565b610946565b610335600a5481565b6102f16103fc366004611d42565b61097e565b61035661040f366004611de3565b610a0f565b610356610422366004611c2d565b610ab3565b610356610435366004611e43565b610ae7565b610356610448366004611e6d565b610aff565b61035661045b366004611ec1565b610b7c565b61035661046e366004612013565b610cbd565b610356610481366004611d42565b610cf1565b61033560045481565b61035661049d366004612077565b610dcf565b6103356104b0366004611d25565b610e2a565b6103356104c3366004611d25565b610e4e565b6103566104d63660046120b0565b610e98565b62ed4e00610335565b6103356104f2366004611d25565b60086020526000908152604090205481565b600554610319906001600160a01b031681565b6102c8610f09565b6102f161052d366004611d25565b610f16565b6103566105403660046120ed565b610f23565b610356610553366004611e43565b610f57565b6102f1610566366004611c2d565b610ffc565b61033561100f565b6102f1610581366004611d25565b61102c565b610356610594366004611d25565b61104a565b600c546102f19060ff1681565b6102c861109f565b6103566105bc366004612122565b6110ac565b6103356105cf366004612077565b6001600160a01b03918216600090815260016020908152604080832093909416825291909152205490565b6103197f000000000000000000000000000000000000000000000000000000000000000081565b61035661062f36600461219e565b61129c565b610356610642366004611d25565b6112cf565b610356610655366004611d25565b611324565b6103566106683660046121bb565b6113aa565b6102f161067b3660046120ed565b611432565b61039c600381565b600680546106959061222e565b80601f01602080910402602001604051908101604052809291908181526020018280546106c19061222e565b801561070e5780601f106106e35761010080835404028352916020019161070e565b820191906000526020600020905b8154815290600101906020018083116106f157829003601f168201915b505050505081565b600061072333848461143e565b5060015b92915050565b6005546001600160a01b031633146107605760405162461bcd60e51b815260040161075790612268565b60405180910390fd5b7f07ce702fc13ca0620c174dab22996a6d5fd9e7accb663555a4e85323692706ba82826040516107919291906122b4565b60405180910390a15050565b60006107aa8484846114a0565b6001600160a01b0384166000908152600160209081526040808320338452909152902054600160ff1b811015610809576107e483826122de565b6001600160a01b03861660009081526001602090815260408083203384529091529020555b506001949350505050565b6000610727826016611504565b6005546001600160a01b0316331461086f5760405162461bcd60e51b81526020600482015260116024820152703737ba1031b630b4b6903232b632ba32b960791b6044820152606401610757565b6040516332a7ae9560e01b81526001600160a01b0382811660048301527f000000000000000000000000000000000000000000000000000000000000000016906332a7ae9590602401600060405180830381600087803b1580156108d257600080fd5b505af11580156108e6573d6000803e3d6000fd5b5050505050565b604080517f47e79534a245952e8b16893a336b85a3d9ea9fa8c573f3d803afb92a794692186020820152469181019190915230606082015260009060800160405160208183030381529060405280519060200120905090565b6005546001600160a01b031633146109705760405162461bcd60e51b815260040161075790612268565b61097a8282611544565b5050565b600061098a8585610ffc565b8015610a065750604051635260769b60e11b81526001600160a01b0386169063a4c0ed36906109c39033908890889088906004016122f1565b6020604051808303816000875af11580156109e2573d6000803e3d6000fd5b505050506040513d601f19601f82011682018060405250810190610a069190612323565b95945050505050565b6005546001600160a01b03163314610a395760405162461bcd60e51b815260040161075790612268565b82818114610a4657600080fd5b60005b81811015610aab57610a99868683818110610a6657610a66612340565b9050602002016020810190610a7b9190611d25565b858584818110610a8d57610a8d612340565b905060200201356115bb565b80610aa381612356565b915050610a49565b505050505050565b6005546001600160a01b03163314610add5760405162461bcd60e51b815260040161075790612268565b61097a82826115bb565b610af23330836114a0565b610afc30826115c5565b50565b6005546001600160a01b03163314610b295760405162461bcd60e51b815260040161075790612268565b60005b82811015610b7657610b64848483818110610b4957610b49612340565b9050602002016020810190610b5e9190611d25565b83610f23565b80610b6e81612356565b915050610b2c565b50505050565b85838114610b8957600080fd5b6000805b82811015610bcd57868682818110610ba757610ba7612340565b9050602002013582610bb9919061236f565b915080610bc581612356565b915050610b8d565b50610bd88782610ab3565b60005b82811015610cb157876001600160a01b031663a4c0ed368b8b84818110610c0457610c04612340565b9050602002016020810190610c199190611d25565b898985818110610c2b57610c2b612340565b9050602002013588886040518563ffffffff1660e01b8152600401610c5394939291906122f1565b6020604051808303816000875af1158015610c72573d6000803e3d6000fd5b505050506040513d601f19601f82011682018060405250810190610c969190612323565b610c9f57600080fd5b80610ca981612356565b915050610bdb565b50505050505050505050565b6005546001600160a01b03163314610ce75760405162461bcd60e51b815260040161075790612268565b61097a8282611639565b6005546001600160a01b03163314610d1b5760405162461bcd60e51b815260040161075790612268565b6000610d2685610e2a565b905080841115610d6a5760405162461bcd60e51b815260206004820152600f60248201526e0c2dadeeadce840e8dede40d0d2ced608b1b6044820152606401610757565b83600b6000828254610d7c919061236f565b92505081905550846001600160a01b03167f0a605cd1294f60fa3b73548ac68428f33300a051f225afcdcc75e56083c96ee7858585604051610dc093929190612382565b60405180910390a25050505050565b336001600160a01b037f00000000000000000000000000000000000000000000000000000000000000001614610e175760405162461bcd60e51b81526004016107579061239c565b61097a8282610e2585610e2a565b6114a0565b6001600160a01b03166000908152602081905260409020546001600160e01b031690565b6000306001600160a01b03831603610e6857506001919050565b6003546001600160a01b03610100909104811690831603610e8b57505060045490565b506000919050565b919050565b6005546001600160a01b03163314610ec25760405162461bcd60e51b815260040161075790612268565b6009610ece8282612408565b507fe9f2468ecc8d3dff15a70a5909151e6297cee4cf05268eff3d7ef0c696ec50f281604051610efe9190611c05565b60405180910390a150565b600780546106959061222e565b6000610727826015611504565b6005546001600160a01b03163314610f4d5760405162461bcd60e51b815260040161075790612268565b61097a8282611684565b6005546001600160a01b03163314610f815760405162461bcd60e51b815260040161075790612268565b610f8961100f565b811015610fc75760405162461bcd60e51b815260206004820152600c60248201526b62656c6f7720737570706c7960a01b6044820152606401610757565b600a8190556040518181527fdcbf73bf1e396dbe03ccbcd29c0aa52eb8028ae24726098296357286de4f5b2690602001610efe565b600061100883836116ff565b9392505050565b6000600b5461101d60025490565b61102791906122de565b905090565b6000611039826014611504565b806107275750610727826016611504565b336001600160a01b037f000000000000000000000000000000000000000000000000000000000000000016146110925760405162461bcd60e51b81526004016107579061239c565b610afc81600a600161170b565b600980546106959061222e565b428410156110fc5760405162461bcd60e51b815260206004820152601760248201527f5045524d49545f444541444c494e455f455850495245440000000000000000006044820152606401610757565b600060016111086108ed565b6001600160a01b038a811660008181526008602090815260409182902080546001810190915582517f6e71edae12b1b97f4d1f60370fef10105fa2faae0126114a169c64845d6126c98184015280840194909452938d166060840152608083018c905260a083019390935260c08083018b90528151808403909101815260e08301909152805192019190912061190160f01b6101008301526101028201929092526101228101919091526101420160408051601f198184030181528282528051602091820120600084529083018083525260ff871690820152606081018590526080810184905260a0016020604051602081039080840390855afa158015611214573d6000803e3d6000fd5b5050604051601f1901519150506001600160a01b0381161580159061124a5750876001600160a01b0316816001600160a01b0316145b6112875760405162461bcd60e51b815260206004820152600e60248201526d24a72b20a624a22fa9a4a3a722a960911b6044820152606401610757565b61129281888861143e565b5050505050505050565b6005546001600160a01b031633146112c65760405162461bcd60e51b815260040161075790612268565b610afc8161176f565b336001600160a01b037f000000000000000000000000000000000000000000000000000000000000000016146113175760405162461bcd60e51b81526004016107579061239c565b610afc81600a600061170b565b6005546001600160a01b0316331461134e5760405162461bcd60e51b815260040161075790612268565b6005546040516001600160a01b038084169216907f8be0079c531659141344cd1fd0a4f28419497f9722a3daafe3b4186f6b6457e090600090a3600580546001600160a01b0319166001600160a01b0392909216919091179055565b6113b48484610ab3565b604051635260769b60e11b81526001600160a01b0385169063a4c0ed36906113e69088908790879087906004016122f1565b6020604051808303816000875af1158015611405573d6000803e3d6000fd5b505050506040513d601f19601f820116820180604052508101906114299190612323565b6108e657600080fd5b60006110088383611504565b6001600160a01b0383811660008181526001602090815260408083209487168084529482529182902085905590518481527f8c5be1e5ebec7d5bd14f71427d1e84f3dd0314c0f7b2291e5b200ac8c7c3b92591015b60405180910390a3505050565b6114ab83838361179d565b6114b583826117ad565b6114bf8282611843565b816001600160a01b0316836001600160a01b03167fddf252ad1be2c89b69c2b068fc378daa952ba7f163c4a11628f55a4df523b3ef8360405161149391815260200190565b6000806115128360e06124c8565b6001600160a01b038516600090815260208190526040902054600160ff929092169190911b9081161491505092915050565b60038054610100600160a81b0319166101006001600160a01b03858116820292909217928390559091041661157c5760006004555050565b600081116115b55760405162461bcd60e51b8152600401610757906020808252600490820152637a65726f60e01b604082015260600190565b60045550565b61097a82826118f3565b6115d18260008361179d565b80600260008282546115e391906122de565b909155506115f3905082826117ad565b6040518181526000906001600160a01b038416907fddf252ad1be2c89b69c2b068fc378daa952ba7f163c4a11628f55a4df523b3ef906020015b60405180910390a35050565b60076116458382612408565b5060066116528282612408565b507f6c20b91d1723b78732eba64ff11ebd7966a6e4af568a00fa4f6b72c20f58b02a81836040516107919291906124e1565b61169682601460ff841660011461170b565b6116a882601560ff841660021461170b565b6116ba82601660ff841660041461170b565b60405160ff821681526001600160a01b038316907fe423d7d31023dbacefed7c937785d0012ad8f314381295efebfc0471d2c434549060200160405180910390a25050565b60006110088383611949565b60006117188360e06124c8565b6001600160a01b038516600090815260208190526040902054600160ff929092169190911b91508082168214831515146108e6576001600160a01b0394909416600090815260208190526040902093189092555050565b600c805460ff1916821580159190911790915561179257610afc60006004611684565b610afc600080611684565b6117a8838383611a1e565b505050565b6001600160a01b038216600090815260208190526040812054906117d183836122de565b90506001600160e01b031981166001600160e01b03198316146118225760405162461bcd60e51b8152602060048201526009602482015268756e646572666c6f7760b81b6044820152606401610757565b6001600160a01b039093166000908152602081905260409020929092555050565b6001600160a01b03821661187f5760405162461bcd60e51b815260206004820152600360248201526203078360ec1b6044820152606401610757565b6001600160a01b038216600090815260208190526040812054906118a3838361236f565b90506001600160e01b031981166001600160e01b03198316146118225760405162461bcd60e51b81526020600482015260086024820152676f766572666c6f7760c01b6044820152606401610757565b600a54816118ff61100f565b611909919061236f565b111561193f5760405162461bcd60e51b81526020600482015260056024820152641d1bdd185b60da1b6044820152606401610757565b61097a8282611b46565b60006119558383611bb2565b61198c5760405162461bcd60e51b81526020600482015260086024820152673a3930b739b332b960c11b6044820152606401610757565b61199733600a611504565b15610723576040516304d301a360e41b81523360048201527f00000000000000000000000000000000000000000000000000000000000000006001600160a01b031690634d301a3090602401600060405180830381600087803b1580156119fd57600080fd5b505af1158015611a11573d6000803e3d6000fd5b5050505050600192915050565b611a278261102c565b6117a857611a3482610f16565b15611a6957600c5460ff1615611a5c5760405162461bcd60e51b815260040161075790612506565b6117a8826015600061170b565b611a7283610814565b15611ac857611a84826014600161170b565b604051600181526001600160a01b038316907fe423d7d31023dbacefed7c937785d0012ad8f314381295efebfc0471d2c434549060200160405180910390a2505050565b611ad3836014611504565b15611b0857600c5460ff1615611afb5760405162461bcd60e51b815260040161075790612506565b6117a8836014600061170b565b611b1183610f16565b156117a857600c5460ff1615611b395760405162461bcd60e51b815260040161075790612506565b6117a8836015600061170b565b611b526000838361179d565b8060026000828254611b64919061236f565b90915550611b7490508282611843565b6040518181526001600160a01b038316906000907fddf252ad1be2c89b69c2b068fc378daa952ba7f163c4a11628f55a4df523b3ef9060200161162d565b60006107233384846114a0565b6000815180845260005b81811015611be557602081850181015186830182015201611bc9565b506000602082860101526020601f19601f83011685010191505092915050565b6020815260006110086020830184611bbf565b6001600160a01b0381168114610afc57600080fd5b60008060408385031215611c4057600080fd5b8235611c4b81611c18565b946020939093013593505050565b60008083601f840112611c6b57600080fd5b50813567ffffffffffffffff811115611c8357600080fd5b602083019150836020828501011115611c9b57600080fd5b9250929050565b60008060208385031215611cb557600080fd5b823567ffffffffffffffff811115611ccc57600080fd5b611cd885828601611c59565b90969095509350505050565b600080600060608486031215611cf957600080fd5b8335611d0481611c18565b92506020840135611d1481611c18565b929592945050506040919091013590565b600060208284031215611d3757600080fd5b813561100881611c18565b60008060008060608587031215611d5857600080fd5b8435611d6381611c18565b935060208501359250604085013567ffffffffffffffff811115611d8657600080fd5b611d9287828801611c59565b95989497509550505050565b60008083601f840112611db057600080fd5b50813567ffffffffffffffff811115611dc857600080fd5b6020830191508360208260051b8501011115611c9b57600080fd5b60008060008060408587031215611df957600080fd5b843567ffffffffffffffff80821115611e1157600080fd5b611e1d88838901611d9e565b90965094506020870135915080821115611e3657600080fd5b50611d9287828801611d9e565b600060208284031215611e5557600080fd5b5035919050565b803560ff81168114610e9357600080fd5b600080600060408486031215611e8257600080fd5b833567ffffffffffffffff811115611e9957600080fd5b611ea586828701611d9e565b9094509250611eb8905060208501611e5c565b90509250925092565b60008060008060008060006080888a031215611edc57600080fd5b873567ffffffffffffffff80821115611ef457600080fd5b611f008b838c01611d9e565b909950975060208a01359150611f1582611c18565b90955060408901359080821115611f2b57600080fd5b611f378b838c01611d9e565b909650945060608a0135915080821115611f5057600080fd5b50611f5d8a828b01611c59565b989b979a50959850939692959293505050565b634e487b7160e01b600052604160045260246000fd5b600082601f830112611f9757600080fd5b813567ffffffffffffffff80821115611fb257611fb2611f70565b604051601f8301601f19908116603f01168101908282118183101715611fda57611fda611f70565b81604052838152866020858801011115611ff357600080fd5b836020870160208301376000602085830101528094505050505092915050565b6000806040838503121561202657600080fd5b823567ffffffffffffffff8082111561203e57600080fd5b61204a86838701611f86565b9350602085013591508082111561206057600080fd5b5061206d85828601611f86565b9150509250929050565b6000806040838503121561208a57600080fd5b823561209581611c18565b915060208301356120a581611c18565b809150509250929050565b6000602082840312156120c257600080fd5b813567ffffffffffffffff8111156120d957600080fd5b6120e584828501611f86565b949350505050565b6000806040838503121561210057600080fd5b823561210b81611c18565b915061211960208401611e5c565b90509250929050565b600080600080600080600060e0888a03121561213d57600080fd5b873561214881611c18565b9650602088013561215881611c18565b9550604088013594506060880135935061217460808901611e5c565b925060a0880135915060c0880135905092959891949750929550565b8015158114610afc57600080fd5b6000602082840312156121b057600080fd5b813561100881612190565b6000806000806000608086880312156121d357600080fd5b85356121de81611c18565b945060208601356121ee81611c18565b935060408601359250606086013567ffffffffffffffff81111561221157600080fd5b61221d88828901611c59565b969995985093965092949392505050565b600181811c9082168061224257607f821691505b60208210810361226257634e487b7160e01b600052602260045260246000fd5b50919050565b6020808252600990820152683737ba1037bbb732b960b91b604082015260600190565b81835281816020850137506000828201602090810191909152601f909101601f19169091010190565b6020815260006120e560208301848661228b565b634e487b7160e01b600052601160045260246000fd5b81810381811115610727576107276122c8565b60018060a01b038516815283602082015260606040820152600061231960608301848661228b565b9695505050505050565b60006020828403121561233557600080fd5b815161100881612190565b634e487b7160e01b600052603260045260246000fd5b600060018201612368576123686122c8565b5060010190565b80820180821115610727576107276122c8565b838152604060208201526000610a0660408301848661228b565b6020808252600c908201526b6e6f74207265636f7665727960a01b604082015260600190565b601f8211156117a857600081815260208120601f850160051c810160208610156123e95750805b601f850160051c820191505b81811015610aab578281556001016123f5565b815167ffffffffffffffff81111561242257612422611f70565b61243681612430845461222e565b846123c2565b602080601f83116001811461246b57600084156124535750858301515b600019600386901b1c1916600185901b178555610aab565b600085815260208120601f198616915b8281101561249a5788860151825594840194600190910190840161247b565b50858210156124b85787850151600019600388901b60f8161c191681555b5050505050600190811b01905550565b60ff8181168382160190811115610727576107276122c8565b6040815260006124f46040830185611bbf565b8281036020840152610a068185611bbf565b6020808252600b908201526a1b9bdd08185b1b1bddd95960aa1b60408201526060019056fea264697066735822122007ab4c05bb1c910bafb361a01a662e9d3e67657e84ba1396bda6f2d1bacad7a964736f6c63430008130033",
  "devdoc": {
    "events": {
      "Approval(address,address,uint256)": {
        "details": "Emitted when the allowance of a `spender` for an `owner` is set by a call to `approve`. `value` is the new allowance."
      },
      "Transfer(address,address,uint256)": {
        "details": "Emitted when `value` tokens are moved from one account (`from`) to another (`to`). Note that `value` may be zero."
      }
    },
    "kind": "dev",
    "methods": {
      "DOMAIN_SEPARATOR()": {
        "details": "Returns the domain separator used in the encoding of the signature for {permit}, as defined by {EIP712}."
      },
      "allowance(address,address)": {
        "details": "See `IERC20.allowance`."
      },
      "approve(address,uint256)": {
        "details": "See `IERC20.approve`. Requirements: - `spender` cannot be the zero address."
      },
      "balanceOf(address)": {
        "details": "See `IERC20.balanceOf`."
      },
      "permit(address,address,uint256,uint256,uint8,bytes32,bytes32)": {
        "details": "Sets `value` as the allowance of `spender` over ``owner``'s tokens, given ``owner``'s signed approval. IMPORTANT: The same issues {IERC20-approve} has related to transaction ordering also apply here. Emits an {Approval} event. Requirements: - `spender` cannot be the zero address. - `deadline` must be a timestamp in the future. - `v`, `r` and `s` must be a valid `secp256k1` signature from `owner` over the EIP712-formatted function arguments. - the signature must use ``owner``'s current nonce (see {nonces}). For more information on the signature format, see the https://eips.ethereum.org/EIPS/eip-2612#specification[relevant EIP section]."
      },
      "totalSupply()": {
        "details": "See `IERC20.totalSupply`."
      },
      "transferFrom(address,address,uint256)": {
        "details": "See `IERC20.transferFrom`. Emits an `Approval` event indicating the updated allowance. This is not required by the EIP. See the note at the beginning of `ERC20`; Requirements: - `sender` and `recipient` cannot be the zero address. - `sender` must have a balance of at least `value`. - the caller must have allowance for `sender`'s tokens of at least `amount`."
      },
      "transferOwnership(address)": {
        "details": "Transfers ownership of the contract to a new account (`newOwner`). Can only be called by the current owner."
      }
    },
    "version": 1
  },
  "userdoc": {
    "kind": "user",
    "methods": {
      "announcement(string)": {
        "notice": "Allows the issuer to make public announcements that are visible on the blockchain."
      },
      "burn(uint256)": {
        "notice": "Transfers _amount tokens to the company and burns them. The meaning of this operation depends on the circumstances and the fate of the shares does not necessarily follow the fate of the tokens. For example, the company itself might call this function to implement a formal decision to destroy some of the outstanding shares. Also, this function might be called by an owner to return the shares to the company and get them back in another form under an according agreement (e.g. printed certificates or tokens on a different blockchain). It is not recommended to call this function without having agreed with the company on the further fate of the shares in question."
      },
      "canReceiveFromAnyone(address)": {
        "notice": "If true, this address is allowlisted and can only transfer tokens to other allowlisted addresses."
      },
      "declareInvalid(address,uint256,string)": {
        "notice": "Signals that the indicated tokens have been declared invalid (e.g. by a court ruling in accordance with article 973g of the Swiss Code of Obligations) and got detached from the underlying shares. Invalid tokens do not carry any shareholder rights any more. This function is purely declarative. It does not technically immobilize the affected tokens as that would give the issuer too much power."
      },
      "getCollateralRate(address)": {
        "notice": "Returns the collateral rate for the given collateral type and 0 if that type of collateral is not accepted. By default, only the token itself is accepted at a rate of 1:1. Subclasses should override this method if they want to add additional types of collateral."
      },
      "isForbidden(address)": {
        "notice": "If true, this address can only transfer tokens to allowlisted addresses and not receive from anyone."
      },
      "isPowerlisted(address)": {
        "notice": "If true, this address can automatically allowlist target addresses if necessary."
      },
      "mintAndCall(address,address,uint256,bytes)": {
        "notice": "Allows the company to tokenize shares and transfer them e.g to the draggable contract and wrap them. If these shares are newly created, setTotalShares must be called first in order to adjust the total number of shares."
      },
      "setApplicable(bool)": {
        "notice": "Configures whether the allowlisting is applied. Also sets the powerlist and allowlist flags on the null address accordingly. It is recommended to also deactivate the powerlist flag on other addresses."
      },
      "setCustomClaimCollateral(address,uint256)": {
        "notice": "See parent method for collateral requirements."
      },
      "setTotalShares(uint256)": {
        "notice": "Declares the number of total shares, including those that have not been tokenized and those that are held by the company itself. This number can be substiantially higher than totalSupply() in case not all shares have been tokenized. Also, it can be lower than totalSupply() in case some tokens have become invalid."
      },
      "totalValidSupply()": {
        "notice": "The total number of valid tokens in circulation. In case some tokens have been declared invalid, this number might be lower than totalSupply(). Also, it will always be lower than or equal to totalShares()."
      }
    },
    "version": 1
  },
  "storageLayout": {
    "storage": [
      {
        "astId": 424,
        "contract": "src/shares/AllowlistShares.sol:AllowlistShares",
        "label": "_balances",
        "offset": 0,
        "slot": "0",
        "type": "t_mapping(t_address,t_uint256)"
      },
      {
        "astId": 430,
        "contract": "src/shares/AllowlistShares.sol:AllowlistShares",
        "label": "_allowances",
        "offset": 0,
        "slot": "1",
        "type": "t_mapping(t_address,t_mapping(t_address,t_uint256))"
      },
      {
        "astId": 432,
        "contract": "src/shares/AllowlistShares.sol:AllowlistShares",
        "label": "_totalSupply",
        "offset": 0,
        "slot": "2",
        "type": "t_uint256"
      },
      {
        "astId": 435,
        "contract": "src/shares/AllowlistShares.sol:AllowlistShares",
        "label": "decimals",
        "offset": 0,
        "slot": "3",
        "type": "t_uint8"
      },
      {
        "astId": 9014,
        "contract": "src/shares/AllowlistShares.sol:AllowlistShares",
        "label": "customCollateralAddress",
        "offset": 1,
        "slot": "3",
        "type": "t_contract(IERC20)1208"
      },
      {
        "astId": 9016,
        "contract": "src/shares/AllowlistShares.sol:AllowlistShares",
        "label": "customCollateralRate",
        "offset": 0,
        "slot": "4",
        "type": "t_uint256"
      },
      {
        "astId": 10849,
        "contract": "src/shares/AllowlistShares.sol:AllowlistShares",
        "label": "owner",
        "offset": 0,
        "slot": "5",
        "type": "t_address"
      },
      {
        "astId": 934,
        "contract": "src/shares/AllowlistShares.sol:AllowlistShares",
        "label": "name",
        "offset": 0,
        "slot": "6",
        "type": "t_string_storage"
      },
      {
        "astId": 937,
        "contract": "src/shares/AllowlistShares.sol:AllowlistShares",
        "label": "symbol",
        "offset": 0,
        "slot": "7",
        "type": "t_string_storage"
      },
      {
        "astId": 1010,
        "contract": "src/shares/AllowlistShares.sol:AllowlistShares",
        "label": "nonces",
        "offset": 0,
        "slot": "8",
        "type": "t_mapping(t_address,t_uint256)"
      },
      {
        "astId": 10309,
        "contract": "src/shares/AllowlistShares.sol:AllowlistShares",
        "label": "terms",
        "offset": 0,
        "slot": "9",
        "type": "t_string_storage"
      },
      {
        "astId": 10312,
        "contract": "src/shares/AllowlistShares.sol:AllowlistShares",
        "label": "totalShares",
        "offset": 0,
        "slot": "10",
        "type": "t_uint256"
      },
      {
        "astId": 10314,
        "contract": "src/shares/AllowlistShares.sol:AllowlistShares",
        "label": "invalidTokens",
        "offset": 0,
        "slot": "11",
        "type": "t_uint256"
      },
      {
        "astId": 129,
        "contract": "src/shares/AllowlistShares.sol:AllowlistShares",
        "label": "restrictTransfers",
        "offset": 0,
        "slot": "12",
        "type": "t_bool"
      }
    ],
    "types": {
      "t_address": {
        "encoding": "inplace",
        "label": "address",
        "numberOfBytes": "20"
      },
      "t_bool": {
        "encoding": "inplace",
        "label": "bool",
        "numberOfBytes": "1"
      },
      "t_contract(IERC20)1208": {
        "encoding": "inplace",
        "label": "contract IERC20",
        "numberOfBytes": "20"
      },
      "t_mapping(t_address,t_mapping(t_address,t_uint256))": {
        "encoding": "mapping",
        "key": "t_address",
        "label": "mapping(address => mapping(address => uint256))",
        "numberOfBytes": "32",
        "value": "t_mapping(t_address,t_uint256)"
      },
      "t_mapping(t_address,t_uint256)": {
        "encoding": "mapping",
        "key": "t_address",
        "label": "mapping(address => uint256)",
        "numberOfBytes": "32",
        "value": "t_uint256"
      },
      "t_string_storage": {
        "encoding": "bytes",
        "label": "string",
        "numberOfBytes": "32"
      },
      "t_uint256": {
        "encoding": "inplace",
        "label": "uint256",
        "numberOfBytes": "32"
      },
      "t_uint8": {
        "encoding": "inplace",
        "label": "uint8",
        "numberOfBytes": "1"
      }
    }
  }
}