{
  "address": "0xA4fB4335d8a3A2cc74877Ecb2E52eB45E8425779",
  "abi": [
    {
      "inputs": [
        {
          "internalType": "string",
          "name": "_terms",
          "type": "string"
        },
        {
          "internalType": "contract IERC20",
          "name": "_wrappedToken",
          "type": "address"
        },
        {
          "internalType": "uint256",
          "name": "_quorum",
          "type": "uint256"
        },
        {
          "internalType": "uint256",
          "name": "_quorumMigration",
          "type": "uint256"
        },
        {
          "internalType": "uint256",
          "name": "_votePeriod",
          "type": "uint256"
        },
        {
          "internalType": "contract IRecoveryHub",
          "name": "_recoveryHub",
          "type": "address"
        },
        {
          "internalType": "contract IOfferFactory",
          "name": "_offerFactory",
          "type": "address"
        },
        {
          "internalType": "address",
          "name": "_oracle",
          "type": "address"
        },
        {
          "internalType": "address",
          "name": "_owner",
          "type": "address"
        }
      ],
      "stateMutability": "nonpayable",
      "type": "constructor"
    },
    {
      "anonymous": false,
      "inputs": [
        {
          "indexed": true,
          "internalType": "address",
          "name": "account",
          "type": "address"
        },
        {
          "indexed": false,
          "internalType": "uint8",
          "name": "addressType",
          "type": "uint8"
        }
      ],
      "name": "AddressTypeUpdate",
      "type": "event"
    },
    {
      "anonymous": false,
      "inputs": [
        {
          "indexed": true,
          "internalType": "address",
          "name": "owner",
          "type": "address"
        },
        {
          "indexed": true,
          "internalType": "address",
          "name": "spender",
          "type": "address"
        },
        {
          "indexed": false,
          "internalType": "uint256",
          "name": "value",
          "type": "uint256"
        }
      ],
      "name": "Approval",
      "type": "event"
    },
    {
      "anonymous": false,
      "inputs": [
        {
          "indexed": false,
          "internalType": "address",
          "name": "oracle",
          "type": "address"
        }
      ],
      "name": "ChangeOracle",
      "type": "event"
    },
    {
      "anonymous": false,
      "inputs": [
        {
          "indexed": false,
          "internalType": "string",
          "name": "terms",
          "type": "string"
        }
      ],
      "name": "ChangeTerms",
      "type": "event"
    },
    {
      "anonymous": false,
      "inputs": [
        {
          "indexed": false,
          "internalType": "address",
          "name": "newContractAddress",
          "type": "address"
        },
        {
          "indexed": false,
          "internalType": "uint256",
          "name": "yesVotes",
          "type": "uint256"
        },
        {
          "indexed": false,
          "internalType": "uint256",
          "name": "oracleVotes",
          "type": "uint256"
        },
        {
          "indexed": false,
          "internalType": "uint256",
          "name": "totalVotingPower",
          "type": "uint256"
        }
      ],
      "name": "MigrationSucceeded",
      "type": "event"
    },
    {
      "anonymous": false,
      "inputs": [
        {
          "indexed": false,
          "internalType": "string",
          "name": "name",
          "type": "string"
        },
        {
          "indexed": false,
          "internalType": "string",
          "name": "symbol",
          "type": "string"
        }
      ],
      "name": "NameChanged",
      "type": "event"
    },
    {
      "anonymous": false,
      "inputs": [
        {
          "indexed": true,
          "internalType": "address",
          "name": "previousOwner",
          "type": "address"
        },
        {
          "indexed": true,
          "internalType": "address",
          "name": "newOwner",
          "type": "address"
        }
      ],
      "name": "OwnershipTransferred",
      "type": "event"
    },
    {
      "anonymous": false,
      "inputs": [
        {
          "indexed": true,
          "internalType": "address",
          "name": "from",
          "type": "address"
        },
        {
          "indexed": true,
          "internalType": "address",
          "name": "to",
          "type": "address"
        },
        {
          "indexed": false,
          "internalType": "uint256",
          "name": "value",
          "type": "uint256"
        }
      ],
      "name": "Transfer",
      "type": "event"
    },
    {
      "inputs": [],
      "name": "DOMAIN_SEPARATOR",
      "outputs": [
        {
          "internalType": "bytes32",
          "name": "",
          "type": "bytes32"
        }
      ],
      "stateMutability": "view",
      "type": "function"
    },
    {
      "inputs": [
        {
          "internalType": "address",
          "name": "owner",
          "type": "address"
        },
        {
          "internalType": "address",
          "name": "spender",
          "type": "address"
        }
      ],
      "name": "allowance",
      "outputs": [
        {
          "internalType": "uint256",
          "name": "",
          "type": "uint256"
        }
      ],
      "stateMutability": "view",
      "type": "function"
    },
    {
      "inputs": [
        {
          "internalType": "address",
          "name": "spender",
          "type": "address"
        },
        {
          "internalType": "uint256",
          "name": "value",
          "type": "uint256"
        }
      ],
      "name": "approve",
      "outputs": [
        {
          "internalType": "bool",
          "name": "",
          "type": "bool"
        }
      ],
      "stateMutability": "nonpayable",
      "type": "function"
    },
    {
      "inputs": [
        {
          "internalType": "address",
          "name": "account",
          "type": "address"
        }
      ],
      "name": "balanceOf",
      "outputs": [
        {
          "internalType": "uint256",
          "name": "",
          "type": "uint256"
        }
      ],
      "stateMutability": "view",
      "type": "function"
    },
    {
      "inputs": [
        {
          "internalType": "uint256",
          "name": "amount",
          "type": "uint256"
        }
      ],
      "name": "burn",
      "outputs": [],
      "stateMutability": "nonpayable",
      "type": "function"
    },
    {
      "inputs": [
        {
          "internalType": "address",
          "name": "account",
          "type": "address"
        }
      ],
      "name": "canReceiveFromAnyone",
      "outputs": [
        {
          "internalType": "bool",
          "name": "",
          "type": "bool"
        }
      ],
      "stateMutability": "view",
      "type": "function"
    },
    {
      "inputs": [],
      "name": "claimPeriod",
      "outputs": [
        {
          "internalType": "uint256",
          "name": "",
          "type": "uint256"
        }
      ],
      "stateMutability": "pure",
      "type": "function"
    },
    {
      "inputs": [],
      "name": "customCollateralAddress",
      "outputs": [
        {
          "internalType": "contract IERC20",
          "name": "",
          "type": "address"
        }
      ],
      "stateMutability": "view",
      "type": "function"
    },
    {
      "inputs": [],
      "name": "customCollateralRate",
      "outputs": [
        {
          "internalType": "uint256",
          "name": "",
          "type": "uint256"
        }
      ],
      "stateMutability": "view",
      "type": "function"
    },
    {
      "inputs": [],
      "name": "decimals",
      "outputs": [
        {
          "internalType": "uint8",
          "name": "",
          "type": "uint8"
        }
      ],
      "stateMutability": "view",
      "type": "function"
    },
    {
      "inputs": [
        {
          "internalType": "address",
          "name": "lostAddress",
          "type": "address"
        }
      ],
      "name": "deleteClaim",
      "outputs": [],
      "stateMutability": "nonpayable",
      "type": "function"
    },
    {
      "inputs": [
        {
          "internalType": "address",
          "name": "buyer",
          "type": "address"
        },
        {
          "internalType": "contract IERC20",
          "name": "currency",
          "type": "address"
        }
      ],
      "name": "drag",
      "outputs": [],
      "stateMutability": "nonpayable",
      "type": "function"
    },
    {
      "inputs": [],
      "name": "factory",
      "outputs": [
        {
          "internalType": "contract IOfferFactory",
          "name": "",
          "type": "address"
        }
      ],
      "stateMutability": "view",
      "type": "function"
    },
    {
      "inputs": [],
      "name": "getClaimDeleter",
      "outputs": [
        {
          "internalType": "address",
          "name": "",
          "type": "address"
        }
      ],
      "stateMutability": "view",
      "type": "function"
    },
    {
      "inputs": [
        {
          "internalType": "contract IERC20",
          "name": "collateralType",
          "type": "address"
        }
      ],
      "name": "getCollateralRate",
      "outputs": [
        {
          "internalType": "uint256",
          "name": "",
          "type": "uint256"
        }
      ],
      "stateMutability": "view",
      "type": "function"
    },
    {
      "inputs": [
        {
          "internalType": "address",
          "name": "account",
          "type": "address"
        },
        {
          "internalType": "uint8",
          "name": "number",
          "type": "uint8"
        }
      ],
      "name": "hasFlag",
      "outputs": [
        {
          "internalType": "bool",
          "name": "",
          "type": "bool"
        }
      ],
      "stateMutability": "view",
      "type": "function"
    },
    {
      "inputs": [],
      "name": "isBinding",
      "outputs": [
        {
          "internalType": "bool",
          "name": "",
          "type": "bool"
        }
      ],
      "stateMutability": "view",
      "type": "function"
    },
    {
      "inputs": [
        {
          "internalType": "address",
          "name": "account",
          "type": "address"
        }
      ],
      "name": "isForbidden",
      "outputs": [
        {
          "internalType": "bool",
          "name": "",
          "type": "bool"
        }
      ],
      "stateMutability": "view",
      "type": "function"
    },
    {
      "inputs": [
        {
          "internalType": "address",
          "name": "account",
          "type": "address"
        }
      ],
      "name": "isPowerlisted",
      "outputs": [
        {
          "internalType": "bool",
          "name": "",
          "type": "bool"
        }
      ],
      "stateMutability": "view",
      "type": "function"
    },
    {
      "inputs": [
        {
          "internalType": "bytes32",
          "name": "salt",
          "type": "bytes32"
        },
        {
          "internalType": "uint256",
          "name": "pricePerShare",
          "type": "uint256"
        },
        {
          "internalType": "contract IERC20",
          "name": "currency",
          "type": "address"
        }
      ],
      "name": "makeAcquisitionOffer",
      "outputs": [],
      "stateMutability": "payable",
      "type": "function"
    },
    {
      "inputs": [],
      "name": "migrate",
      "outputs": [],
      "stateMutability": "nonpayable",
      "type": "function"
    },
    {
      "inputs": [
        {
          "internalType": "address",
          "name": "successor",
          "type": "address"
        },
        {
          "internalType": "uint256",
          "name": "additionalVotes",
          "type": "uint256"
        }
      ],
      "name": "migrateWithExternalApproval",
      "outputs": [],
      "stateMutability": "nonpayable",
      "type": "function"
    },
    {
      "inputs": [],
      "name": "name",
      "outputs": [
        {
          "internalType": "string",
          "name": "",
          "type": "string"
        }
      ],
      "stateMutability": "view",
      "type": "function"
    },
    {
      "inputs": [
        {
          "internalType": "address",
          "name": "",
          "type": "address"
        }
      ],
      "name": "nonces",
      "outputs": [
        {
          "internalType": "uint256",
          "name": "",
          "type": "uint256"
        }
      ],
      "stateMutability": "view",
      "type": "function"
    },
    {
      "inputs": [
        {
          "internalType": "address",
          "name": "target",
          "type": "address"
        }
      ],
      "name": "notifyClaimDeleted",
      "outputs": [],
      "stateMutability": "nonpayable",
      "type": "function"
    },
    {
      "inputs": [
        {
          "internalType": "address",
          "name": "target",
          "type": "address"
        }
      ],
      "name": "notifyClaimMade",
      "outputs": [],
      "stateMutability": "nonpayable",
      "type": "function"
    },
    {
      "inputs": [],
      "name": "notifyOfferEnded",
      "outputs": [],
      "stateMutability": "nonpayable",
      "type": "function"
    },
    {
      "inputs": [
        {
          "internalType": "address",
          "name": "voter",
          "type": "address"
        }
      ],
      "name": "notifyVoted",
      "outputs": [],
      "stateMutability": "nonpayable",
      "type": "function"
    },
    {
      "inputs": [],
      "name": "offer",
      "outputs": [
        {
          "internalType": "contract IOffer",
          "name": "",
          "type": "address"
        }
      ],
      "stateMutability": "view",
      "type": "function"
    },
    {
      "inputs": [
        {
          "internalType": "address",
          "name": "from",
          "type": "address"
        },
        {
          "internalType": "uint256",
          "name": "amount",
          "type": "uint256"
        },
        {
          "internalType": "bytes",
          "name": "",
          "type": "bytes"
        }
      ],
      "name": "onTokenTransfer",
      "outputs": [
        {
          "internalType": "bool",
          "name": "",
          "type": "bool"
        }
      ],
      "stateMutability": "nonpayable",
      "type": "function"
    },
    {
      "inputs": [],
      "name": "oracle",
      "outputs": [
        {
          "internalType": "address",
          "name": "",
          "type": "address"
        }
      ],
      "stateMutability": "view",
      "type": "function"
    },
    {
      "inputs": [],
      "name": "owner",
      "outputs": [
        {
          "internalType": "address",
          "name": "",
          "type": "address"
        }
      ],
      "stateMutability": "view",
      "type": "function"
    },
    {
      "inputs": [
        {
          "internalType": "address",
          "name": "owner",
          "type": "address"
        },
        {
          "internalType": "address",
          "name": "spender",
          "type": "address"
        },
        {
          "internalType": "uint256",
          "name": "value",
          "type": "uint256"
        },
        {
          "internalType": "uint256",
          "name": "deadline",
          "type": "uint256"
        },
        {
          "internalType": "uint8",
          "name": "v",
          "type": "uint8"
        },
        {
          "internalType": "bytes32",
          "name": "r",
          "type": "bytes32"
        },
        {
          "internalType": "bytes32",
          "name": "s",
          "type": "bytes32"
        }
      ],
      "name": "permit",
      "outputs": [],
      "stateMutability": "nonpayable",
      "type": "function"
    },
    {
      "inputs": [],
      "name": "quorum",
      "outputs": [
        {
          "internalType": "uint256",
          "name": "",
          "type": "uint256"
        }
      ],
      "stateMutability": "view",
      "type": "function"
    },
    {
      "inputs": [],
      "name": "quorumMigration",
      "outputs": [
        {
          "internalType": "uint256",
          "name": "",
          "type": "uint256"
        }
      ],
      "stateMutability": "view",
      "type": "function"
    },
    {
      "inputs": [
        {
          "internalType": "address",
          "name": "oldAddress",
          "type": "address"
        },
        {
          "internalType": "address",
          "name": "newAddress",
          "type": "address"
        }
      ],
      "name": "recover",
      "outputs": [],
      "stateMutability": "nonpayable",
      "type": "function"
    },
    {
      "inputs": [],
      "name": "recovery",
      "outputs": [
        {
          "internalType": "contract IRecoveryHub",
          "name": "",
          "type": "address"
        }
      ],
      "stateMutability": "view",
      "type": "function"
    },
    {
      "inputs": [],
      "name": "restrictTransfers",
      "outputs": [
        {
          "internalType": "bool",
          "name": "",
          "type": "bool"
        }
      ],
      "stateMutability": "view",
      "type": "function"
    },
    {
      "inputs": [
        {
          "internalType": "bool",
          "name": "transferRestrictionsApplicable",
          "type": "bool"
        }
      ],
      "name": "setApplicable",
      "outputs": [],
      "stateMutability": "nonpayable",
      "type": "function"
    },
    {
      "inputs": [
        {
          "internalType": "address",
          "name": "newOracle",
          "type": "address"
        }
      ],
      "name": "setOracle",
      "outputs": [],
      "stateMutability": "nonpayable",
      "type": "function"
    },
    {
      "inputs": [
        {
          "internalType": "string",
          "name": "_terms",
          "type": "string"
        }
      ],
      "name": "setTerms",
      "outputs": [],
      "stateMutability": "nonpayable",
      "type": "function"
    },
    {
      "inputs": [
        {
          "internalType": "address[]",
          "name": "addressesToAdd",
          "type": "address[]"
        },
        {
          "internalType": "uint8",
          "name": "value",
          "type": "uint8"
        }
      ],
      "name": "setType",
      "outputs": [],
      "stateMutability": "nonpayable",
      "type": "function"
    },
    {
      "inputs": [
        {
          "internalType": "address",
          "name": "account",
          "type": "address"
        },
        {
          "internalType": "uint8",
          "name": "typeNumber",
          "type": "uint8"
        }
      ],
      "name": "setType",
      "outputs": [],
      "stateMutability": "nonpayable",
      "type": "function"
    },
    {
      "inputs": [],
      "name": "symbol",
      "outputs": [
        {
          "internalType": "string",
          "name": "",
          "type": "string"
        }
      ],
      "stateMutability": "view",
      "type": "function"
    },
    {
      "inputs": [],
      "name": "terms",
      "outputs": [
        {
          "internalType": "string",
          "name": "",
          "type": "string"
        }
      ],
      "stateMutability": "view",
      "type": "function"
    },
    {
      "inputs": [],
      "name": "totalSupply",
      "outputs": [
        {
          "internalType": "uint256",
          "name": "",
          "type": "uint256"
        }
      ],
      "stateMutability": "view",
      "type": "function"
    },
    {
      "inputs": [],
      "name": "totalVotingTokens",
      "outputs": [
        {
          "internalType": "uint256",
          "name": "",
          "type": "uint256"
        }
      ],
      "stateMutability": "view",
      "type": "function"
    },
    {
      "inputs": [
        {
          "internalType": "address",
          "name": "to",
          "type": "address"
        },
        {
          "internalType": "uint256",
          "name": "value",
          "type": "uint256"
        }
      ],
      "name": "transfer",
      "outputs": [
        {
          "internalType": "bool",
          "name": "",
          "type": "bool"
        }
      ],
      "stateMutability": "nonpayable",
      "type": "function"
    },
    {
      "inputs": [
        {
          "internalType": "address",
          "name": "recipient",
          "type": "address"
        },
        {
          "internalType": "uint256",
          "name": "amount",
          "type": "uint256"
        },
        {
          "internalType": "bytes",
          "name": "data",
          "type": "bytes"
        }
      ],
      "name": "transferAndCall",
      "outputs": [
        {
          "internalType": "bool",
          "name": "",
          "type": "bool"
        }
      ],
      "stateMutability": "nonpayable",
      "type": "function"
    },
    {
      "inputs": [
        {
          "internalType": "address",
          "name": "sender",
          "type": "address"
        },
        {
          "internalType": "address",
          "name": "recipient",
          "type": "address"
        },
        {
          "internalType": "uint256",
          "name": "amount",
          "type": "uint256"
        }
      ],
      "name": "transferFrom",
      "outputs": [
        {
          "internalType": "bool",
          "name": "",
          "type": "bool"
        }
      ],
      "stateMutability": "nonpayable",
      "type": "function"
    },
    {
      "inputs": [
        {
          "internalType": "address",
          "name": "newOwner",
          "type": "address"
        }
      ],
      "name": "transferOwnership",
      "outputs": [],
      "stateMutability": "nonpayable",
      "type": "function"
    },
    {
      "inputs": [
        {
          "internalType": "uint256",
          "name": "amount",
          "type": "uint256"
        }
      ],
      "name": "unwrap",
      "outputs": [],
      "stateMutability": "nonpayable",
      "type": "function"
    },
    {
      "inputs": [],
      "name": "unwrapConversionFactor",
      "outputs": [
        {
          "internalType": "uint256",
          "name": "",
          "type": "uint256"
        }
      ],
      "stateMutability": "view",
      "type": "function"
    },
    {
      "inputs": [],
      "name": "votePeriod",
      "outputs": [
        {
          "internalType": "uint256",
          "name": "",
          "type": "uint256"
        }
      ],
      "stateMutability": "view",
      "type": "function"
    },
    {
      "inputs": [
        {
          "internalType": "address",
          "name": "voter",
          "type": "address"
        }
      ],
      "name": "votingPower",
      "outputs": [
        {
          "internalType": "uint256",
          "name": "",
          "type": "uint256"
        }
      ],
      "stateMutability": "view",
      "type": "function"
    },
    {
      "inputs": [
        {
          "internalType": "address",
          "name": "shareholder",
          "type": "address"
        },
        {
          "internalType": "uint256",
          "name": "amount",
          "type": "uint256"
        }
      ],
      "name": "wrap",
      "outputs": [],
      "stateMutability": "nonpayable",
      "type": "function"
    },
    {
      "inputs": [],
      "name": "wrapped",
      "outputs": [
        {
          "internalType": "contract IERC20",
          "name": "",
          "type": "address"
        }
      ],
      "stateMutability": "view",
      "type": "function"
    }
  ],
  "transactionHash": "0x93161640840b3d7ebc9892f14f56e150ff8099dbe72f13019e7841c379fe78c4",
  "args": [
    "investors.auviso.ch",
    "0xE51ae6D0106Cd5a3a685154ca8400b903BE15e8A",
    5100,
    5100,
    2592000,
    "0xf00B91839fF7A6AC6DddAC7e73D2F222C19A9Ec3",
    "0x6c4028d7Fd82f29cD97A47E7342F02Ca529c5531",
    "0xfd8C5fD8C99bf4f9C0179b60865916e6D04103Ee",
    "0xfd8C5fD8C99bf4f9C0179b60865916e6D04103Ee"
  ],
  "numDeployments": 1,
  "solcInputHash": "5e415c0a9a3be76fbdd99e08cf041e25",
  "bytecode": "0x61012060405260006005553480156200001757600080fd5b50604051620036b5380380620036b58339810160408190526200003a9162000315565b8888888888888888828787878786868f600080600360006101000a81548160ff021916908360ff1602179055505080600360016101000a8154816001600160a01b0302191690836001600160a01b03160217905550600360019054906101000a90046001600160a01b03166001600160a01b031660006001600160a01b03167f8be0079c531659141344cd1fd0a4f28419497f9722a3daafe3b4186f6b6457e060405160405180910390a350620000f26001620001bc565b600480546001600160a01b03199081166001600160a01b039889161790915560c09590955260a09390935260e0919091528316608052600780549092169083161790551661010052600b620001488982620004f4565b50604051636427ed9760e01b8152600060048201526001600160a01b03841690636427ed9790602401600060405180830381600087803b1580156200018c57600080fd5b505af1158015620001a1573d6000803e3d6000fd5b505050505050505050505050505050505050505050620005ee565b6003805482158015600160a81b0260ff60a81b1990921691909117909155620001f057620001ed60006004620001f8565b50565b620001ed6000805b6200020c82601460ff841660011462000279565b6200022082601560ff841660021462000279565b6200023482601660ff841660041462000279565b60405160ff821681526001600160a01b038316907fe423d7d31023dbacefed7c937785d0012ad8f314381295efebfc0471d2c434549060200160405180910390a25050565b6000620002888360e0620005c0565b6001600160a01b038516600090815260208190526040902054600160ff929092169190911b9150808216821483151514620002db576001600160a01b038516600090815260208190526040902081831890555b5050505050565b634e487b7160e01b600052604160045260246000fd5b80516001600160a01b03811681146200031057600080fd5b919050565b60008060008060008060008060006101208a8c0312156200033557600080fd5b89516001600160401b03808211156200034d57600080fd5b818c0191508c601f8301126200036257600080fd5b815181811115620003775762000377620002e2565b604051601f8201601f19908116603f01168101908382118183101715620003a257620003a2620002e2565b81604052828152602093508f84848701011115620003bf57600080fd5b600091505b82821015620003e35784820184015181830185015290830190620003c4565b6000848483010152809d50505050620003fe818d01620002f8565b9950505060408a0151965060608a0151955060808a015194506200042560a08b01620002f8565b93506200043560c08b01620002f8565b92506200044560e08b01620002f8565b9150620004566101008b01620002f8565b90509295985092959850929598565b600181811c908216806200047a57607f821691505b6020821081036200049b57634e487b7160e01b600052602260045260246000fd5b50919050565b601f821115620004ef57600081815260208120601f850160051c81016020861015620004ca5750805b601f850160051c820191505b81811015620004eb57828155600101620004d6565b5050505b505050565b81516001600160401b03811115620005105762000510620002e2565b620005288162000521845462000465565b84620004a1565b602080601f831160018114620005605760008415620005475750858301515b600019600386901b1c1916600185901b178555620004eb565b600085815260208120601f198616915b82811015620005915788860151825594840194600190910190840162000570565b5085821015620005b05787850151600019600388901b60f8161c191681555b5050505050600190811b01905550565b60ff8181168382160190811115620005e857634e487b7160e01b600052601160045260246000fd5b92915050565b60805160a05160c05160e0516101005161304362000672600039600081816109ed01528181610dd50152818161107c015281816114d7015281816119c101526123c0015260008181610816015261181801526000818161045901526117f2015260008181610a810152611bfb01526000818161090a015261184101526130436000f3fe6080604052600436106103765760003560e01c80637ecebe00116101d1578063c18172c411610102578063ddceafa9116100a0578063efa405121161006f578063efa4051214610a6f578063f2fde38b14610aa3578063f5c0b95f14610ac3578063fcb79a7e14610ae357600080fd5b8063ddceafa9146109db578063de0e9a3e14610a0f578063e445d70a14610a2f578063e5b824ec14610a4f57600080fd5b8063d5025625116100dc578063d50256251461094d578063d505accf14610962578063dcc7d4ad14610982578063dd62ed3e1461099557600080fd5b8063c18172c4146108d8578063c45a0155146108f8578063d37a9bb01461092c57600080fd5b8063a4c0ed361161016f578063b1c8db6611610149578063b1c8db6614610858578063bf376c7a14610878578063c028df0614610898578063c07473f6146108b857600080fd5b8063a4c0ed36146107e4578063a781358714610804578063a9059cbb1461083857600080fd5b806395d89b41116101ab57806395d89b41146107795780639e37878c1461078e5780639e4b5745146107ae578063a49a7cb1146107c457600080fd5b80637ecebe00146107125780638da5cb5b1461073f5780638fd3ab801461076457600080fd5b80633644e515116102ab578063648bf7741161024957806378f86afc1161022357806378f86afc1461069c5780637adbf973146106bc5780637dc0d1d0146106dc5780637dc2cd98146106fc57600080fd5b8063648bf7741461063c57806370a082311461065c57806377e071ad1461067c57600080fd5b8063429c66f011610285578063429c66f0146105c657806345c8a62b146105e657806350e70d4814610606578063609181171461062657600080fd5b80633644e515146105715780634000aea01461058657806342966c68146105a657600080fd5b806319845354116103185780632b343099116102f25780632b343099146104f0578063313ce5671461051057806332a7ae951461053c57806332bc320b1461055c57600080fd5b8063198453541461049057806323b872dd146104b25780632a0a4ed5146104d257600080fd5b80630a81b2de116103545780630a81b2de146103fa5780630c6f0e5d1461040f5780631703a0181461044757806318160ddd1461047b57600080fd5b806306fdde031461037b5780630832e470146103a6578063095ea7b3146103ca575b600080fd5b34801561038757600080fd5b50610390610b03565b60405161039d919061270a565b60405180910390f35b3480156103b257600080fd5b506103bc60055481565b60405190815260200161039d565b3480156103d657600080fd5b506103ea6103e5366004612732565b610bbc565b604051901515815260200161039d565b34801561040657600080fd5b506103bc610bd3565b34801561041b57600080fd5b5060085461042f906001600160a01b031681565b6040516001600160a01b03909116815260200161039d565b34801561045357600080fd5b506103bc7f000000000000000000000000000000000000000000000000000000000000000081565b34801561048757600080fd5b506002546103bc565b34801561049c57600080fd5b506104b06104ab366004612732565b610c51565b005b3480156104be57600080fd5b506103ea6104cd36600461275e565b610ce4565b3480156104de57600080fd5b506007546001600160a01b031661042f565b3480156104fc57600080fd5b506103ea61050b36600461279f565b610d5b565b34801561051c57600080fd5b5060035461052a9060ff1681565b60405160ff909116815260200161039d565b34801561054857600080fd5b506104b061055736600461279f565b610d68565b34801561056857600080fd5b506104b0610e35565b34801561057d57600080fd5b506103bc610e71565b34801561059257600080fd5b506103ea6105a1366004612805565b610eca565b3480156105b257600080fd5b506104b06105c1366004612861565b610f5b565b3480156105d257600080fd5b506104b06105e136600461288b565b610fb6565b3480156105f257600080fd5b506104b061060136600461279f565b611038565b34801561061257600080fd5b5060045461042f906001600160a01b031681565b34801561063257600080fd5b506103bc60095481565b34801561064857600080fd5b506104b061065736600461290f565b611071565b34801561066857600080fd5b506103bc61067736600461279f565b6110cc565b34801561068857600080fd5b506103bc61069736600461279f565b6110f0565b3480156106a857600080fd5b506104b06106b7366004612948565b6111d0565b3480156106c857600080fd5b506104b06106d736600461279f565b611244565b3480156106e857600080fd5b5060075461042f906001600160a01b031681565b34801561070857600080fd5b5062ed4e006103bc565b34801561071e57600080fd5b506103bc61072d36600461279f565b600a6020526000908152604090205481565b34801561074b57600080fd5b5060035461042f9061010090046001600160a01b031681565b34801561077057600080fd5b506104b06112c3565b34801561078557600080fd5b506103906112d0565b34801561079a57600080fd5b506103ea6107a936600461279f565b611371565b3480156107ba57600080fd5b50600554156103ea565b3480156107d057600080fd5b506104b06107df36600461298a565b61137e565b3480156107f057600080fd5b506103ea6107ff366004612805565b6113b7565b34801561081057600080fd5b506103bc7f000000000000000000000000000000000000000000000000000000000000000081565b34801561084457600080fd5b506103ea610853366004612732565b6113ee565b34801561086457600080fd5b506103ea61087336600461279f565b611401565b34801561088457600080fd5b506104b0610893366004612732565b61141f565b3480156108a457600080fd5b5060065461042f906001600160a01b031681565b3480156108c457600080fd5b506103bc6108d336600461279f565b6114c1565b3480156108e457600080fd5b506104b06108f336600461279f565b6114cc565b34801561090457600080fd5b5061042f7f000000000000000000000000000000000000000000000000000000000000000081565b34801561093857600080fd5b506003546103ea90600160a81b900460ff1681565b34801561095957600080fd5b50610390611521565b34801561096e57600080fd5b506104b061097d3660046129bf565b6115af565b6104b0610990366004612a2d565b61179f565b3480156109a157600080fd5b506103bc6109b036600461290f565b6001600160a01b03918216600090815260016020908152604080832093909416825291909152205490565b3480156109e757600080fd5b5061042f7f000000000000000000000000000000000000000000000000000000000000000081565b348015610a1b57600080fd5b506104b0610a2a366004612861565b611952565b348015610a3b57600080fd5b506104b0610a4a366004612a74565b61197e565b348015610a5b57600080fd5b506104b0610a6a36600461279f565b6119b6565b348015610a7b57600080fd5b506103bc7f000000000000000000000000000000000000000000000000000000000000000081565b348015610aaf57600080fd5b506104b0610abe36600461279f565b611a0b565b348015610acf57600080fd5b506103ea610ade36600461298a565b611aa1565b348015610aef57600080fd5b506104b0610afe36600461290f565b611aad565b60048054604080516306fdde0360e01b815290516060936000936001600160a01b0316926306fdde03928183019286928290030181865afa158015610b4c573d6000803e3d6000fd5b505050506040513d6000823e601f3d908101601f19168201604052610b749190810190612aa7565b9050610b806005541590565b15610bab5780604051602001610b969190612b54565b60405160208183030381529060405291505090565b80604051602001610b969190612b7c565b6000610bc9338484611af5565b5060015b92915050565b6000600460009054906101000a90046001600160a01b03166001600160a01b0316633a98ef396040518163ffffffff1660e01b8152600401602060405180830381865afa158015610c28573d6000803e3d6000fd5b505050506040513d601f19601f82011682018060405250810190610c4c9190612baa565b905090565b6007546001600160a01b03163314610c845760405162461bcd60e51b8152600401610c7b90612bc3565b60405180910390fd5b610c8c610bd3565b81610c9660025490565b610ca09190612bfd565b1115610cd65760405162461bcd60e51b8152602060048201526005602482015264766f74657360d81b6044820152606401610c7b565b610ce08282611b57565b5050565b6000610cf1848484611cc4565b6001600160a01b0384166000908152600160209081526040808320338452909152902054600160ff1b811015610d5057610d2b8382612c10565b6001600160a01b03861660009081526001602090815260408083203384529091529020555b506001949350505050565b6000610bcd826016611d28565b6007546001600160a01b03163314610db65760405162461bcd60e51b81526020600482015260116024820152703737ba1031b630b4b6903232b632ba32b960791b6044820152606401610c7b565b6040516332a7ae9560e01b81526001600160a01b0382811660048301527f000000000000000000000000000000000000000000000000000000000000000016906332a7ae95906024015b600060405180830381600087803b158015610e1a57600080fd5b505af1158015610e2e573d6000803e3d6000fd5b5050505050565b6006546001600160a01b03163314610e5f5760405162461bcd60e51b8152600401610c7b90612c23565b600680546001600160a01b0319169055565b604080517f47e79534a245952e8b16893a336b85a3d9ea9fa8c573f3d803afb92a794692186020820152469181019190915230606082015260009060800160405160208183030381529060405280519060200120905090565b6000610ed685856113ee565b8015610f525750604051635260769b60e11b81526001600160a01b0386169063a4c0ed3690610f0f903390889088908890600401612c43565b6020604051808303816000875af1158015610f2e573d6000803e3d6000fd5b505050506040513d601f19601f82011682018060405250810190610f529190612c8b565b95945050505050565b610f653382611d68565b6004546001600160a01b03166342966c68610f806005541590565b610f9657600554610f919084612ca8565b610f98565b825b6040518263ffffffff1660e01b8152600401610e0091815260200190565b60035461010090046001600160a01b03163314610fe55760405162461bcd60e51b8152600401610c7b90612cbf565b60005b828110156110325761102084848381811061100557611005612ce2565b905060200201602081019061101a919061279f565b8361137e565b8061102a81612cf8565b915050610fe8565b50505050565b6006546001600160a01b031633146110625760405162461bcd60e51b8152600401610c7b90612c23565b61106e81600180611ddc565b50565b336001600160a01b037f000000000000000000000000000000000000000000000000000000000000000016146110b95760405162461bcd60e51b8152600401610c7b90612d11565b610ce082826110c7856110cc565b611cc4565b6001600160a01b03166000908152602081905260409020546001600160e01b031690565b6000806110fc83611e40565b9050801561110a5792915050565b60006111166005541590565b61112257600554611125565b60015b6004549091506001600160a01b0390811690851603611145579392505050565b600480546040516377e071ad60e01b81526001600160a01b03878116938201939093528392909116906377e071ad90602401602060405180830381865afa158015611194573d6000803e3d6000fd5b505050506040513d601f19601f820116820180604052508101906111b89190612baa565b6111c29190612ca8565b949350505050565b50919050565b6007546001600160a01b031633146111fa5760405162461bcd60e51b8152600401610c7b90612bc3565b600b611207828483612db9565b507fe9f2468ecc8d3dff15a70a5909151e6297cee4cf05268eff3d7ef0c696ec50f2600b6040516112389190612e79565b60405180910390a15050565b6007546001600160a01b0316331461126e5760405162461bcd60e51b8152600401610c7b90612bc3565b600780546001600160a01b0319166001600160a01b0383169081179091556040519081527fc3977c9522c218453912bcab15964a7788968fbf3fe4d4e2965252c9f07055de906020015b60405180910390a150565b6112ce336000611b57565b565b6060600460009054906101000a90046001600160a01b03166001600160a01b03166395d89b416040518163ffffffff1660e01b8152600401600060405180830381865afa158015611325573d6000803e3d6000fd5b505050506040513d6000823e601f3d908101601f1916820160405261134d9190810190612aa7565b60405160200161135d9190612f04565b604051602081830303815290604052905090565b6000610bcd826015611d28565b60035461010090046001600160a01b031633146113ad5760405162461bcd60e51b8152600401610c7b90612cbf565b610ce08282611e85565b6004546000906001600160a01b031633146113e45760405162461bcd60e51b8152600401610c7b90612c23565b610d508585611f00565b60006113fa8383611f6c565b9392505050565b600061140e826014611d28565b80610bcd5750610bcd826016611d28565b600480546040516323b872dd60e01b81523392810192909252306024830152604482018390526001600160a01b0316906323b872dd906064016020604051808303816000875af1158015611477573d6000803e3d6000fd5b505050506040513d601f19601f8201168201806040525081019061149b9190612c8b565b6114b75760405162461bcd60e51b8152600401610c7b90612f29565b610ce08282611f00565b6000610bcd826110cc565b336001600160a01b037f000000000000000000000000000000000000000000000000000000000000000016146115145760405162461bcd60e51b8152600401610c7b90612d11565b61106e81600a6001611ddc565b600b805461152e90612d37565b80601f016020809104026020016040519081016040528092919081815260200182805461155a90612d37565b80156115a75780601f1061157c576101008083540402835291602001916115a7565b820191906000526020600020905b81548152906001019060200180831161158a57829003601f168201915b505050505081565b428410156115ff5760405162461bcd60e51b815260206004820152601760248201527f5045524d49545f444541444c494e455f455850495245440000000000000000006044820152606401610c7b565b6000600161160b610e71565b6001600160a01b038a81166000818152600a602090815260409182902080546001810190915582517f6e71edae12b1b97f4d1f60370fef10105fa2faae0126114a169c64845d6126c98184015280840194909452938d166060840152608083018c905260a083019390935260c08083018b90528151808403909101815260e08301909152805192019190912061190160f01b6101008301526101028201929092526101228101919091526101420160408051601f198184030181528282528051602091820120600084529083018083525260ff871690820152606081018590526080810184905260a0016020604051602081039080840390855afa158015611717573d6000803e3d6000fd5b5050604051601f1901519150506001600160a01b0381161580159061174d5750876001600160a01b0316816001600160a01b0316145b61178a5760405162461bcd60e51b815260206004820152600e60248201526d24a72b20a624a22fa9a4a3a722a960911b6044820152606401610c7b565b611795818888611af5565b5050505050505050565b600554156117bf5760405162461bcd60e51b8152600401610c7b90612f4b565b604051634dc5e43160e01b815260048101849052336024820152604481018390526001600160a01b0382811660648301527f000000000000000000000000000000000000000000000000000000000000000060848301527f000000000000000000000000000000000000000000000000000000000000000060a48301526000917f000000000000000000000000000000000000000000000000000000000000000090911690634dc5e43190349060c40160206040518083038185885af115801561188d573d6000803e3d6000fd5b50505050506040513d601f19601f820116820180604052508101906118b29190612f6b565b90506118c86006546001600160a01b0316151590565b1561192d57600654604051637b64620f60e11b81526001600160a01b0383811660048301529091169063f6c8c41e90602401600060405180830381600087803b15801561191457600080fd5b505af1158015611928573d6000803e3d6000fd5b505050505b600680546001600160a01b0319166001600160a01b0392909216919091179055505050565b6005546119715760405162461bcd60e51b8152600401610c7b90612f4b565b61106e3382600554611f78565b60035461010090046001600160a01b031633146119ad5760405162461bcd60e51b8152600401610c7b90612cbf565b61106e8161202e565b336001600160a01b037f000000000000000000000000000000000000000000000000000000000000000016146119fe5760405162461bcd60e51b8152600401610c7b90612d11565b61106e81600a6000611ddc565b60035461010090046001600160a01b03163314611a3a5760405162461bcd60e51b8152600401610c7b90612cbf565b6003546040516001600160a01b0380841692610100900416907f8be0079c531659141344cd1fd0a4f28419497f9722a3daafe3b4186f6b6457e090600090a3600380546001600160a01b0390921661010002610100600160a81b0319909216919091179055565b60006113fa8383611d28565b6006546001600160a01b03163314611ad75760405162461bcd60e51b8152600401610c7b90612c23565b611aeb82611ae4846110cc565b6001611f78565b610ce08183612067565b6001600160a01b0383811660008181526001602090815260408083209487168084529482529182902085905590518481527f8c5be1e5ebec7d5bd14f71427d1e84f3dd0314c0f7b2291e5b200ac8c7c3b92591015b60405180910390a3505050565b6000611b62836110cc565b611b6c9083612bfd565b90506000611b78610bd3565b905080821115611bb25760405162461bcd60e51b8152602060048201526005602482015264766f74657360d81b6044820152606401610c7b565b6006546001600160a01b031615611bf65760405162461bcd60e51b815260206004820152600860248201526737379037b33332b960c11b6044820152606401610c7b565b611c207f000000000000000000000000000000000000000000000000000000000000000082612ca8565b611c2c61271084612ca8565b1015611c635760405162461bcd60e51b815260206004820152600660248201526571756f72756d60d01b6044820152606401610c7b565b611c6d8485612067565b604080516001600160a01b038616815260208101849052908101849052606081018290527f85e5711a70a7d2bae18e1232af474d82c98600b0e62fe079a28208520b58568e9060800160405180910390a150505050565b611ccf838383612222565b611cd9838261222d565b611ce382826122c3565b816001600160a01b0316836001600160a01b03167fddf252ad1be2c89b69c2b068fc378daa952ba7f163c4a11628f55a4df523b3ef83604051611b4a91815260200190565b600080611d368360e0612f88565b6001600160a01b038516600090815260208190526040902054600160ff929092169190911b9081161491505092915050565b611d7482600083612222565b8060026000828254611d869190612c10565b90915550611d969050828261222d565b6040518181526000906001600160a01b038416907fddf252ad1be2c89b69c2b068fc378daa952ba7f163c4a11628f55a4df523b3ef906020015b60405180910390a35050565b6000611de98360e0612f88565b6001600160a01b038516600090815260208190526040902054600160ff929092169190911b9150808216821483151514610e2e576001600160a01b0394909416600090815260208190526040902093189092555050565b6000306001600160a01b03831603611e5a57506001919050565b6008546001600160a01b0390811690831603611e7857505060095490565b506000919050565b919050565b611e9782601460ff8416600114611ddc565b611ea982601560ff8416600214611ddc565b611ebb82601660ff8416600414611ddc565b60405160ff821681526001600160a01b038316907fe423d7d31023dbacefed7c937785d0012ad8f314381295efebfc0471d2c434549060200160405180910390a25050565b611f0c60008383612222565b8060026000828254611f1e9190612bfd565b90915550611f2e905082826122c3565b6040518181526001600160a01b038316906000907fddf252ad1be2c89b69c2b068fc378daa952ba7f163c4a11628f55a4df523b3ef90602001611dd0565b60006113fa8383612373565b611f828383611d68565b6004546001600160a01b031663a9059cbb84611f9e8486612ca8565b6040516001600160e01b031960e085901b1681526001600160a01b03909216600483015260248201526044016020604051808303816000875af1158015611fe9573d6000803e3d6000fd5b505050506040513d601f19601f8201168201806040525081019061200d9190612c8b565b6120295760405162461bcd60e51b8152600401610c7b90612f29565b505050565b6003805482158015600160a81b0260ff60a81b199092169190911790915561205c5761106e60006004611e85565b61106e600080611e85565b600554156120875760405162461bcd60e51b8152600401610c7b90612f4b565b600480546040516370a0823160e01b815230928101929092526001600160a01b03169063a9059cbb90839083906370a0823190602401602060405180830381865afa1580156120da573d6000803e3d6000fd5b505050506040513d601f19601f820116820180604052508101906120fe9190612baa565b6040516001600160e01b031960e085901b1681526001600160a01b03909216600483015260248201526044016020604051808303816000875af1158015612149573d6000803e3d6000fd5b505050506040513d601f19601f8201168201806040525081019061216d9190612c8b565b6121895760405162461bcd60e51b8152600401610c7b90612f29565b600480546001600160a01b0319166001600160a01b038416179055600254610ce0906040516370a0823160e01b81523060048201526001600160a01b038516906370a0823190602401602060405180830381865afa1580156121ef573d6000803e3d6000fd5b505050506040513d601f19601f820116820180604052508101906122139190612baa565b61221d9190612fa1565b61242d565b612029838383612492565b6001600160a01b038216600090815260208190526040812054906122518383612c10565b90506001600160e01b031981166001600160e01b03198316146122a25760405162461bcd60e51b8152602060048201526009602482015268756e646572666c6f7760b81b6044820152606401610c7b565b6001600160a01b039093166000908152602081905260409020929092555050565b6001600160a01b0382166122ff5760405162461bcd60e51b815260206004820152600360248201526203078360ec1b6044820152606401610c7b565b6001600160a01b038216600090815260208190526040812054906123238383612bfd565b90506001600160e01b031981166001600160e01b03198316146122a25760405162461bcd60e51b81526020600482015260086024820152676f766572666c6f7760c01b6044820152606401610c7b565b600061237f838361249d565b61239b5760405162461bcd60e51b8152600401610c7b90612f29565b6123a633600a611d28565b15610bc9576040516304d301a360e41b81523360048201527f00000000000000000000000000000000000000000000000000000000000000006001600160a01b031690634d301a3090602401600060405180830381600087803b15801561240c57600080fd5b505af1158015612420573d6000803e3d6000fd5b5050505050600192915050565b600181101561244e5760405162461bcd60e51b8152600401610c7b90612f4b565b60058190557f6c20b91d1723b78732eba64ff11ebd7966a6e4af568a00fa4f6b72c20f58b02a61247c610b03565b6124846112d0565b6040516112b8929190612fc3565b6120298383836124aa565b6000610bc9338484611cc4565b6124b383612570565b806124c257506124c282612570565b15612565576006546001600160a01b03161561254b5760065460405163e1a1810f60e01b81526001600160a01b0385811660048301528481166024830152604482018490529091169063e1a1810f90606401600060405180830381600087803b15801561252e57600080fd5b505af1158015612542573d6000803e3d6000fd5b50505050612565565b6125588360016000611ddc565b6125658260016000611ddc565b61202983838361257d565b6000610bcd826001611d28565b61258682611401565b6120295761259382611371565b156125cf57600354600160a81b900460ff16156125c25760405162461bcd60e51b8152600401610c7b90612fe8565b6120298260156000611ddc565b6125d883610d5b565b1561262e576125ea8260146001611ddc565b604051600181526001600160a01b038316907fe423d7d31023dbacefed7c937785d0012ad8f314381295efebfc0471d2c434549060200160405180910390a2505050565b612639836014611d28565b1561267557600354600160a81b900460ff16156126685760405162461bcd60e51b8152600401610c7b90612fe8565b6120298360146000611ddc565b61267e83611371565b1561202957600354600160a81b900460ff16156126ad5760405162461bcd60e51b8152600401610c7b90612fe8565b6120298360156000611ddc565b60005b838110156126d55781810151838201526020016126bd565b50506000910152565b600081518084526126f68160208601602086016126ba565b601f01601f19169290920160200192915050565b6020815260006113fa60208301846126de565b6001600160a01b038116811461106e57600080fd5b6000806040838503121561274557600080fd5b82356127508161271d565b946020939093013593505050565b60008060006060848603121561277357600080fd5b833561277e8161271d565b9250602084013561278e8161271d565b929592945050506040919091013590565b6000602082840312156127b157600080fd5b81356113fa8161271d565b60008083601f8401126127ce57600080fd5b50813567ffffffffffffffff8111156127e657600080fd5b6020830191508360208285010111156127fe57600080fd5b9250929050565b6000806000806060858703121561281b57600080fd5b84356128268161271d565b935060208501359250604085013567ffffffffffffffff81111561284957600080fd5b612855878288016127bc565b95989497509550505050565b60006020828403121561287357600080fd5b5035919050565b803560ff81168114611e8057600080fd5b6000806000604084860312156128a057600080fd5b833567ffffffffffffffff808211156128b857600080fd5b818601915086601f8301126128cc57600080fd5b8135818111156128db57600080fd5b8760208260051b85010111156128f057600080fd5b602092830195509350612906918601905061287a565b90509250925092565b6000806040838503121561292257600080fd5b823561292d8161271d565b9150602083013561293d8161271d565b809150509250929050565b6000806020838503121561295b57600080fd5b823567ffffffffffffffff81111561297257600080fd5b61297e858286016127bc565b90969095509350505050565b6000806040838503121561299d57600080fd5b82356129a88161271d565b91506129b66020840161287a565b90509250929050565b600080600080600080600060e0888a0312156129da57600080fd5b87356129e58161271d565b965060208801356129f58161271d565b95506040880135945060608801359350612a116080890161287a565b925060a0880135915060c0880135905092959891949750929550565b600080600060608486031215612a4257600080fd5b83359250602084013591506040840135612a5b8161271d565b809150509250925092565b801515811461106e57600080fd5b600060208284031215612a8657600080fd5b81356113fa81612a66565b634e487b7160e01b600052604160045260246000fd5b600060208284031215612ab957600080fd5b815167ffffffffffffffff80821115612ad157600080fd5b818401915084601f830112612ae557600080fd5b815181811115612af757612af7612a91565b604051601f8201601f19908116603f01168101908382118183101715612b1f57612b1f612a91565b81604052828152876020848701011115612b3857600080fd5b612b498360208301602088016126ba565b979650505050505050565b60008251612b668184602087016126ba565b632053484160e01b920191825250600401919050565b60008251612b8e8184602087016126ba565b692028577261707065642960b01b920191825250600a01919050565b600060208284031215612bbc57600080fd5b5051919050565b6020808252600a90820152696e6f74206f7261636c6560b01b604082015260600190565b634e487b7160e01b600052601160045260246000fd5b80820180821115610bcd57610bcd612be7565b81810381811115610bcd57610bcd612be7565b60208082526006908201526539b2b73232b960d11b604082015260600190565b6001600160a01b0385168152602081018490526060604082018190528101829052818360808301376000818301608090810191909152601f909201601f191601019392505050565b600060208284031215612c9d57600080fd5b81516113fa81612a66565b8082028115828204841417610bcd57610bcd612be7565b6020808252600990820152683737ba1037bbb732b960b91b604082015260600190565b634e487b7160e01b600052603260045260246000fd5b600060018201612d0a57612d0a612be7565b5060010190565b6020808252600c908201526b6e6f74207265636f7665727960a01b604082015260600190565b600181811c90821680612d4b57607f821691505b6020821081036111ca57634e487b7160e01b600052602260045260246000fd5b601f82111561202957600081815260208120601f850160051c81016020861015612d925750805b601f850160051c820191505b81811015612db157828155600101612d9e565b505050505050565b67ffffffffffffffff831115612dd157612dd1612a91565b612de583612ddf8354612d37565b83612d6b565b6000601f841160018114612e195760008515612e015750838201355b600019600387901b1c1916600186901b178355610e2e565b600083815260209020601f19861690835b82811015612e4a5786850135825560209485019460019092019101612e2a565b5086821015612e675760001960f88860031b161c19848701351681555b505060018560011b0183555050505050565b6000602080835260008454612e8d81612d37565b80848701526040600180841660008114612eae5760018114612ec857612ef6565b60ff1985168984015283151560051b890183019550612ef6565b896000528660002060005b85811015612eee5781548b8201860152908301908801612ed3565b8a0184019650505b509398975050505050505050565b60008251612f168184602087016126ba565b605360f81b920191825250600101919050565b6020808252600890820152673a3930b739b332b960c11b604082015260600190565b6020808252600690820152653330b1ba37b960d11b604082015260600190565b600060208284031215612f7d57600080fd5b81516113fa8161271d565b60ff8181168382160190811115610bcd57610bcd612be7565b600082612fbe57634e487b7160e01b600052601260045260246000fd5b500490565b604081526000612fd660408301856126de565b8281036020840152610f5281856126de565b6020808252600b908201526a1b9bdd08185b1b1bddd95960aa1b60408201526060019056fea26469706673582212200287f481c193c93a50ae0b848cb18eb9eb7347bb7341caa7818454b1fea1eaec64736f6c63430008130033",
  "devdoc": {
    "events": {
      "Approval(address,address,uint256)": {
        "details": "Emitted when the allowance of a `spender` for an `owner` is set by a call to `approve`. `value` is the new allowance."
      },
      "Transfer(address,address,uint256)": {
        "details": "Emitted when `value` tokens are moved from one account (`from`) to another (`to`). Note that `value` may be zero."
      }
    },
    "kind": "dev",
    "methods": {
      "DOMAIN_SEPARATOR()": {
        "details": "Returns the domain separator used in the encoding of the signature for {permit}, as defined by {EIP712}."
      },
      "allowance(address,address)": {
        "details": "See `IERC20.allowance`."
      },
      "approve(address,uint256)": {
        "details": "See `IERC20.approve`. Requirements: - `spender` cannot be the zero address."
      },
      "balanceOf(address)": {
        "details": "See `IERC20.balanceOf`."
      },
      "permit(address,address,uint256,uint256,uint8,bytes32,bytes32)": {
        "details": "Sets `value` as the allowance of `spender` over ``owner``'s tokens, given ``owner``'s signed approval. IMPORTANT: The same issues {IERC20-approve} has related to transaction ordering also apply here. Emits an {Approval} event. Requirements: - `spender` cannot be the zero address. - `deadline` must be a timestamp in the future. - `v`, `r` and `s` must be a valid `secp256k1` signature from `owner` over the EIP712-formatted function arguments. - the signature must use ``owner``'s current nonce (see {nonces}). For more information on the signature format, see the https://eips.ethereum.org/EIPS/eip-2612#specification[relevant EIP section]."
      },
      "totalSupply()": {
        "details": "See `IERC20.totalSupply`."
      },
      "transferFrom(address,address,uint256)": {
        "details": "See `IERC20.transferFrom`. Emits an `Approval` event indicating the updated allowance. This is not required by the EIP. See the note at the beginning of `ERC20`; Requirements: - `sender` and `recipient` cannot be the zero address. - `sender` must have a balance of at least `value`. - the caller must have allowance for `sender`'s tokens of at least `amount`."
      },
      "transferOwnership(address)": {
        "details": "Transfers ownership of the contract to a new account (`newOwner`). Can only be called by the current owner."
      }
    },
    "version": 1
  },
  "userdoc": {
    "kind": "user",
    "methods": {
      "burn(uint256)": {
        "notice": "Burns both the token itself as well as the wrapped token! If you want to get out of the shareholder agreement, use unwrap after it has been deactivated by a majority vote or acquisition. Burning only works if wrapped token supports burning. Also, the exact meaning of this operation might depend on the circumstances. Burning and reussing the wrapped token does not free the sender from the legal obligations of the shareholder agreement."
      },
      "canReceiveFromAnyone(address)": {
        "notice": "If true, this address is allowlisted and can only transfer tokens to other allowlisted addresses."
      },
      "getClaimDeleter()": {
        "notice": "Let the oracle act as deleter of invalid claims. In earlier versions, this was referring to the claim deleter of the wrapped token. But that stops working after a successful acquisition as the acquisition currency most likely does not have a claim deleter."
      },
      "getCollateralRate(address)": {
        "notice": "Returns the collateral rate for the given collateral type and 0 if that type of collateral is not accepted. By default, only the token itself is accepted at a rate of 1:1. Subclasses should override this method if they want to add additional types of collateral."
      },
      "isBinding()": {
        "notice": "Indicates that the token holders are bound to the token terms and that: - Conversion back to the wrapped token (unwrap) is not allowed - A drag-along can be performed by making an according offer - They can be migrated to a new version of this contract in accordance with the terms"
      },
      "isForbidden(address)": {
        "notice": "If true, this address can only transfer tokens to allowlisted addresses and not receive from anyone."
      },
      "isPowerlisted(address)": {
        "notice": "If true, this address can automatically allowlist target addresses if necessary."
      },
      "name()": {
        "notice": "Current recommended naming convention is to add the postfix \"SHA\" to the plain shares in order to indicate that this token represents shares bound to a shareholder agreement."
      },
      "setApplicable(bool)": {
        "notice": "Configures whether the allowlisting is applied. Also sets the powerlist and allowlist flags on the null address accordingly. It is recommended to also deactivate the powerlist flag on other addresses."
      },
      "unwrap(uint256)": {
        "notice": "Decrease the number of drag-along tokens. The user gets back their shares in return "
      },
      "wrap(address,uint256)": {
        "notice": "Wraps additional tokens, thereby creating more ERC20Draggable tokens. "
      }
    },
    "version": 1
  },
  "storageLayout": {
    "storage": [
      {
        "astId": 424,
        "contract": "src/shares/AllowlistDraggableShares.sol:AllowlistDraggableShares",
        "label": "_balances",
        "offset": 0,
        "slot": "0",
        "type": "t_mapping(t_address,t_uint256)"
      },
      {
        "astId": 430,
        "contract": "src/shares/AllowlistDraggableShares.sol:AllowlistDraggableShares",
        "label": "_allowances",
        "offset": 0,
        "slot": "1",
        "type": "t_mapping(t_address,t_mapping(t_address,t_uint256))"
      },
      {
        "astId": 432,
        "contract": "src/shares/AllowlistDraggableShares.sol:AllowlistDraggableShares",
        "label": "_totalSupply",
        "offset": 0,
        "slot": "2",
        "type": "t_uint256"
      },
      {
        "astId": 435,
        "contract": "src/shares/AllowlistDraggableShares.sol:AllowlistDraggableShares",
        "label": "decimals",
        "offset": 0,
        "slot": "3",
        "type": "t_uint8"
      },
      {
        "astId": 10849,
        "contract": "src/shares/AllowlistDraggableShares.sol:AllowlistDraggableShares",
        "label": "owner",
        "offset": 1,
        "slot": "3",
        "type": "t_address"
      },
      {
        "astId": 129,
        "contract": "src/shares/AllowlistDraggableShares.sol:AllowlistDraggableShares",
        "label": "restrictTransfers",
        "offset": 21,
        "slot": "3",
        "type": "t_bool"
      },
      {
        "astId": 3575,
        "contract": "src/shares/AllowlistDraggableShares.sol:AllowlistDraggableShares",
        "label": "wrapped",
        "offset": 0,
        "slot": "4",
        "type": "t_contract(IERC20)1208"
      },
      {
        "astId": 3581,
        "contract": "src/shares/AllowlistDraggableShares.sol:AllowlistDraggableShares",
        "label": "unwrapConversionFactor",
        "offset": 0,
        "slot": "5",
        "type": "t_uint256"
      },
      {
        "astId": 3585,
        "contract": "src/shares/AllowlistDraggableShares.sol:AllowlistDraggableShares",
        "label": "offer",
        "offset": 0,
        "slot": "6",
        "type": "t_contract(IOffer)4387"
      },
      {
        "astId": 3597,
        "contract": "src/shares/AllowlistDraggableShares.sol:AllowlistDraggableShares",
        "label": "oracle",
        "offset": 0,
        "slot": "7",
        "type": "t_address"
      },
      {
        "astId": 9014,
        "contract": "src/shares/AllowlistDraggableShares.sol:AllowlistDraggableShares",
        "label": "customCollateralAddress",
        "offset": 0,
        "slot": "8",
        "type": "t_contract(IERC20)1208"
      },
      {
        "astId": 9016,
        "contract": "src/shares/AllowlistDraggableShares.sol:AllowlistDraggableShares",
        "label": "customCollateralRate",
        "offset": 0,
        "slot": "9",
        "type": "t_uint256"
      },
      {
        "astId": 1010,
        "contract": "src/shares/AllowlistDraggableShares.sol:AllowlistDraggableShares",
        "label": "nonces",
        "offset": 0,
        "slot": "10",
        "type": "t_mapping(t_address,t_uint256)"
      },
      {
        "astId": 10091,
        "contract": "src/shares/AllowlistDraggableShares.sol:AllowlistDraggableShares",
        "label": "terms",
        "offset": 0,
        "slot": "11",
        "type": "t_string_storage"
      }
    ],
    "types": {
      "t_address": {
        "encoding": "inplace",
        "label": "address",
        "numberOfBytes": "20"
      },
      "t_bool": {
        "encoding": "inplace",
        "label": "bool",
        "numberOfBytes": "1"
      },
      "t_contract(IERC20)1208": {
        "encoding": "inplace",
        "label": "contract IERC20",
        "numberOfBytes": "20"
      },
      "t_contract(IOffer)4387": {
        "encoding": "inplace",
        "label": "contract IOffer",
        "numberOfBytes": "20"
      },
      "t_mapping(t_address,t_mapping(t_address,t_uint256))": {
        "encoding": "mapping",
        "key": "t_address",
        "label": "mapping(address => mapping(address => uint256))",
        "numberOfBytes": "32",
        "value": "t_mapping(t_address,t_uint256)"
      },
      "t_mapping(t_address,t_uint256)": {
        "encoding": "mapping",
        "key": "t_address",
        "label": "mapping(address => uint256)",
        "numberOfBytes": "32",
        "value": "t_uint256"
      },
      "t_string_storage": {
        "encoding": "bytes",
        "label": "string",
        "numberOfBytes": "32"
      },
      "t_uint256": {
        "encoding": "inplace",
        "label": "uint256",
        "numberOfBytes": "32"
      },
      "t_uint8": {
        "encoding": "inplace",
        "label": "uint8",
        "numberOfBytes": "1"
      }
    }
  }
}