{
  "address": "0x6C1b174848570Efa6BB190343EF624402289DF27",
  "abi": [
    {
      "inputs": [
        {
          "internalType": "string",
          "name": "_symbol",
          "type": "string"
        },
        {
          "internalType": "string",
          "name": "_name",
          "type": "string"
        },
        {
          "internalType": "string",
          "name": "_terms",
          "type": "string"
        },
        {
          "internalType": "uint256",
          "name": "_totalShares",
          "type": "uint256"
        },
        {
          "internalType": "address",
          "name": "_owner",
          "type": "address"
        },
        {
          "internalType": "contract IRecoveryHub",
          "name": "_recoveryHub",
          "type": "address"
        }
      ],
      "stateMutability": "nonpayable",
      "type": "constructor"
    },
    {
      "anonymous": false,
      "inputs": [
        {
          "indexed": false,
          "internalType": "string",
          "name": "message",
          "type": "string"
        }
      ],
      "name": "Announcement",
      "type": "event"
    },
    {
      "anonymous": false,
      "inputs": [
        {
          "indexed": true,
          "internalType": "address",
          "name": "owner",
          "type": "address"
        },
        {
          "indexed": true,
          "internalType": "address",
          "name": "spender",
          "type": "address"
        },
        {
          "indexed": false,
          "internalType": "uint256",
          "name": "value",
          "type": "uint256"
        }
      ],
      "name": "Approval",
      "type": "event"
    },
    {
      "anonymous": false,
      "inputs": [
        {
          "indexed": false,
          "internalType": "string",
          "name": "terms",
          "type": "string"
        }
      ],
      "name": "ChangeTerms",
      "type": "event"
    },
    {
      "anonymous": false,
      "inputs": [
        {
          "indexed": false,
          "internalType": "uint256",
          "name": "total",
          "type": "uint256"
        }
      ],
      "name": "ChangeTotalShares",
      "type": "event"
    },
    {
      "anonymous": false,
      "inputs": [
        {
          "indexed": false,
          "internalType": "string",
          "name": "name",
          "type": "string"
        },
        {
          "indexed": false,
          "internalType": "string",
          "name": "symbol",
          "type": "string"
        }
      ],
      "name": "NameChanged",
      "type": "event"
    },
    {
      "anonymous": false,
      "inputs": [
        {
          "indexed": true,
          "internalType": "address",
          "name": "previousOwner",
          "type": "address"
        },
        {
          "indexed": true,
          "internalType": "address",
          "name": "newOwner",
          "type": "address"
        }
      ],
      "name": "OwnershipTransferred",
      "type": "event"
    },
    {
      "anonymous": false,
      "inputs": [
        {
          "indexed": true,
          "internalType": "address",
          "name": "holder",
          "type": "address"
        },
        {
          "indexed": false,
          "internalType": "uint256",
          "name": "amount",
          "type": "uint256"
        },
        {
          "indexed": false,
          "internalType": "string",
          "name": "message",
          "type": "string"
        }
      ],
      "name": "TokensDeclaredInvalid",
      "type": "event"
    },
    {
      "anonymous": false,
      "inputs": [
        {
          "indexed": true,
          "internalType": "address",
          "name": "from",
          "type": "address"
        },
        {
          "indexed": true,
          "internalType": "address",
          "name": "to",
          "type": "address"
        },
        {
          "indexed": false,
          "internalType": "uint256",
          "name": "value",
          "type": "uint256"
        }
      ],
      "name": "Transfer",
      "type": "event"
    },
    {
      "inputs": [],
      "name": "DOMAIN_SEPARATOR",
      "outputs": [
        {
          "internalType": "bytes32",
          "name": "",
          "type": "bytes32"
        }
      ],
      "stateMutability": "view",
      "type": "function"
    },
    {
      "inputs": [],
      "name": "VERSION",
      "outputs": [
        {
          "internalType": "uint8",
          "name": "",
          "type": "uint8"
        }
      ],
      "stateMutability": "view",
      "type": "function"
    },
    {
      "inputs": [
        {
          "internalType": "address",
          "name": "owner",
          "type": "address"
        },
        {
          "internalType": "address",
          "name": "spender",
          "type": "address"
        }
      ],
      "name": "allowance",
      "outputs": [
        {
          "internalType": "uint256",
          "name": "",
          "type": "uint256"
        }
      ],
      "stateMutability": "view",
      "type": "function"
    },
    {
      "inputs": [
        {
          "internalType": "string",
          "name": "message",
          "type": "string"
        }
      ],
      "name": "announcement",
      "outputs": [],
      "stateMutability": "nonpayable",
      "type": "function"
    },
    {
      "inputs": [
        {
          "internalType": "address",
          "name": "spender",
          "type": "address"
        },
        {
          "internalType": "uint256",
          "name": "value",
          "type": "uint256"
        }
      ],
      "name": "approve",
      "outputs": [
        {
          "internalType": "bool",
          "name": "",
          "type": "bool"
        }
      ],
      "stateMutability": "nonpayable",
      "type": "function"
    },
    {
      "inputs": [
        {
          "internalType": "address",
          "name": "account",
          "type": "address"
        }
      ],
      "name": "balanceOf",
      "outputs": [
        {
          "internalType": "uint256",
          "name": "",
          "type": "uint256"
        }
      ],
      "stateMutability": "view",
      "type": "function"
    },
    {
      "inputs": [
        {
          "internalType": "uint256",
          "name": "_amount",
          "type": "uint256"
        }
      ],
      "name": "burn",
      "outputs": [],
      "stateMutability": "nonpayable",
      "type": "function"
    },
    {
      "inputs": [],
      "name": "claimPeriod",
      "outputs": [
        {
          "internalType": "uint256",
          "name": "",
          "type": "uint256"
        }
      ],
      "stateMutability": "pure",
      "type": "function"
    },
    {
      "inputs": [],
      "name": "customCollateralAddress",
      "outputs": [
        {
          "internalType": "contract IERC20",
          "name": "",
          "type": "address"
        }
      ],
      "stateMutability": "view",
      "type": "function"
    },
    {
      "inputs": [],
      "name": "customCollateralRate",
      "outputs": [
        {
          "internalType": "uint256",
          "name": "",
          "type": "uint256"
        }
      ],
      "stateMutability": "view",
      "type": "function"
    },
    {
      "inputs": [],
      "name": "decimals",
      "outputs": [
        {
          "internalType": "uint8",
          "name": "",
          "type": "uint8"
        }
      ],
      "stateMutability": "view",
      "type": "function"
    },
    {
      "inputs": [
        {
          "internalType": "address",
          "name": "holder",
          "type": "address"
        },
        {
          "internalType": "uint256",
          "name": "amount",
          "type": "uint256"
        },
        {
          "internalType": "string",
          "name": "message",
          "type": "string"
        }
      ],
      "name": "declareInvalid",
      "outputs": [],
      "stateMutability": "nonpayable",
      "type": "function"
    },
    {
      "inputs": [
        {
          "internalType": "address",
          "name": "lostAddress",
          "type": "address"
        }
      ],
      "name": "deleteClaim",
      "outputs": [],
      "stateMutability": "nonpayable",
      "type": "function"
    },
    {
      "inputs": [],
      "name": "getClaimDeleter",
      "outputs": [
        {
          "internalType": "address",
          "name": "",
          "type": "address"
        }
      ],
      "stateMutability": "view",
      "type": "function"
    },
    {
      "inputs": [
        {
          "internalType": "contract IERC20",
          "name": "collateralType",
          "type": "address"
        }
      ],
      "name": "getCollateralRate",
      "outputs": [
        {
          "internalType": "uint256",
          "name": "",
          "type": "uint256"
        }
      ],
      "stateMutability": "view",
      "type": "function"
    },
    {
      "inputs": [
        {
          "internalType": "address",
          "name": "account",
          "type": "address"
        },
        {
          "internalType": "uint8",
          "name": "number",
          "type": "uint8"
        }
      ],
      "name": "hasFlag",
      "outputs": [
        {
          "internalType": "bool",
          "name": "",
          "type": "bool"
        }
      ],
      "stateMutability": "view",
      "type": "function"
    },
    {
      "inputs": [],
      "name": "invalidTokens",
      "outputs": [
        {
          "internalType": "uint256",
          "name": "",
          "type": "uint256"
        }
      ],
      "stateMutability": "view",
      "type": "function"
    },
    {
      "inputs": [
        {
          "internalType": "address",
          "name": "target",
          "type": "address"
        },
        {
          "internalType": "uint256",
          "name": "amount",
          "type": "uint256"
        }
      ],
      "name": "mint",
      "outputs": [],
      "stateMutability": "nonpayable",
      "type": "function"
    },
    {
      "inputs": [
        {
          "internalType": "address",
          "name": "shareholder",
          "type": "address"
        },
        {
          "internalType": "address",
          "name": "callee",
          "type": "address"
        },
        {
          "internalType": "uint256",
          "name": "amount",
          "type": "uint256"
        },
        {
          "internalType": "bytes",
          "name": "data",
          "type": "bytes"
        }
      ],
      "name": "mintAndCall",
      "outputs": [],
      "stateMutability": "nonpayable",
      "type": "function"
    },
    {
      "inputs": [
        {
          "internalType": "address[]",
          "name": "target",
          "type": "address[]"
        },
        {
          "internalType": "uint256[]",
          "name": "amount",
          "type": "uint256[]"
        }
      ],
      "name": "mintMany",
      "outputs": [],
      "stateMutability": "nonpayable",
      "type": "function"
    },
    {
      "inputs": [
        {
          "internalType": "address[]",
          "name": "target",
          "type": "address[]"
        },
        {
          "internalType": "address",
          "name": "callee",
          "type": "address"
        },
        {
          "internalType": "uint256[]",
          "name": "amount",
          "type": "uint256[]"
        },
        {
          "internalType": "bytes",
          "name": "data",
          "type": "bytes"
        }
      ],
      "name": "mintManyAndCall",
      "outputs": [],
      "stateMutability": "nonpayable",
      "type": "function"
    },
    {
      "inputs": [],
      "name": "name",
      "outputs": [
        {
          "internalType": "string",
          "name": "",
          "type": "string"
        }
      ],
      "stateMutability": "view",
      "type": "function"
    },
    {
      "inputs": [
        {
          "internalType": "address",
          "name": "",
          "type": "address"
        }
      ],
      "name": "nonces",
      "outputs": [
        {
          "internalType": "uint256",
          "name": "",
          "type": "uint256"
        }
      ],
      "stateMutability": "view",
      "type": "function"
    },
    {
      "inputs": [
        {
          "internalType": "address",
          "name": "target",
          "type": "address"
        }
      ],
      "name": "notifyClaimDeleted",
      "outputs": [],
      "stateMutability": "nonpayable",
      "type": "function"
    },
    {
      "inputs": [
        {
          "internalType": "address",
          "name": "target",
          "type": "address"
        }
      ],
      "name": "notifyClaimMade",
      "outputs": [],
      "stateMutability": "nonpayable",
      "type": "function"
    },
    {
      "inputs": [],
      "name": "owner",
      "outputs": [
        {
          "internalType": "address",
          "name": "",
          "type": "address"
        }
      ],
      "stateMutability": "view",
      "type": "function"
    },
    {
      "inputs": [
        {
          "internalType": "address",
          "name": "owner",
          "type": "address"
        },
        {
          "internalType": "address",
          "name": "spender",
          "type": "address"
        },
        {
          "internalType": "uint256",
          "name": "value",
          "type": "uint256"
        },
        {
          "internalType": "uint256",
          "name": "deadline",
          "type": "uint256"
        },
        {
          "internalType": "uint8",
          "name": "v",
          "type": "uint8"
        },
        {
          "internalType": "bytes32",
          "name": "r",
          "type": "bytes32"
        },
        {
          "internalType": "bytes32",
          "name": "s",
          "type": "bytes32"
        }
      ],
      "name": "permit",
      "outputs": [],
      "stateMutability": "nonpayable",
      "type": "function"
    },
    {
      "inputs": [
        {
          "internalType": "address",
          "name": "oldAddress",
          "type": "address"
        },
        {
          "internalType": "address",
          "name": "newAddress",
          "type": "address"
        }
      ],
      "name": "recover",
      "outputs": [],
      "stateMutability": "nonpayable",
      "type": "function"
    },
    {
      "inputs": [],
      "name": "recovery",
      "outputs": [
        {
          "internalType": "contract IRecoveryHub",
          "name": "",
          "type": "address"
        }
      ],
      "stateMutability": "view",
      "type": "function"
    },
    {
      "inputs": [
        {
          "internalType": "contract IERC20",
          "name": "collateral",
          "type": "address"
        },
        {
          "internalType": "uint256",
          "name": "rate",
          "type": "uint256"
        }
      ],
      "name": "setCustomClaimCollateral",
      "outputs": [],
      "stateMutability": "nonpayable",
      "type": "function"
    },
    {
      "inputs": [
        {
          "internalType": "string",
          "name": "_symbol",
          "type": "string"
        },
        {
          "internalType": "string",
          "name": "_name",
          "type": "string"
        }
      ],
      "name": "setName",
      "outputs": [],
      "stateMutability": "nonpayable",
      "type": "function"
    },
    {
      "inputs": [
        {
          "internalType": "string",
          "name": "_terms",
          "type": "string"
        }
      ],
      "name": "setTerms",
      "outputs": [],
      "stateMutability": "nonpayable",
      "type": "function"
    },
    {
      "inputs": [
        {
          "internalType": "uint256",
          "name": "_newTotalShares",
          "type": "uint256"
        }
      ],
      "name": "setTotalShares",
      "outputs": [],
      "stateMutability": "nonpayable",
      "type": "function"
    },
    {
      "inputs": [],
      "name": "symbol",
      "outputs": [
        {
          "internalType": "string",
          "name": "",
          "type": "string"
        }
      ],
      "stateMutability": "view",
      "type": "function"
    },
    {
      "inputs": [],
      "name": "terms",
      "outputs": [
        {
          "internalType": "string",
          "name": "",
          "type": "string"
        }
      ],
      "stateMutability": "view",
      "type": "function"
    },
    {
      "inputs": [],
      "name": "totalShares",
      "outputs": [
        {
          "internalType": "uint256",
          "name": "",
          "type": "uint256"
        }
      ],
      "stateMutability": "view",
      "type": "function"
    },
    {
      "inputs": [],
      "name": "totalSupply",
      "outputs": [
        {
          "internalType": "uint256",
          "name": "",
          "type": "uint256"
        }
      ],
      "stateMutability": "view",
      "type": "function"
    },
    {
      "inputs": [],
      "name": "totalValidSupply",
      "outputs": [
        {
          "internalType": "uint256",
          "name": "",
          "type": "uint256"
        }
      ],
      "stateMutability": "view",
      "type": "function"
    },
    {
      "inputs": [
        {
          "internalType": "address",
          "name": "to",
          "type": "address"
        },
        {
          "internalType": "uint256",
          "name": "value",
          "type": "uint256"
        }
      ],
      "name": "transfer",
      "outputs": [
        {
          "internalType": "bool",
          "name": "",
          "type": "bool"
        }
      ],
      "stateMutability": "nonpayable",
      "type": "function"
    },
    {
      "inputs": [
        {
          "internalType": "address",
          "name": "recipient",
          "type": "address"
        },
        {
          "internalType": "uint256",
          "name": "amount",
          "type": "uint256"
        },
        {
          "internalType": "bytes",
          "name": "data",
          "type": "bytes"
        }
      ],
      "name": "transferAndCall",
      "outputs": [
        {
          "internalType": "bool",
          "name": "",
          "type": "bool"
        }
      ],
      "stateMutability": "nonpayable",
      "type": "function"
    },
    {
      "inputs": [
        {
          "internalType": "address",
          "name": "sender",
          "type": "address"
        },
        {
          "internalType": "address",
          "name": "recipient",
          "type": "address"
        },
        {
          "internalType": "uint256",
          "name": "amount",
          "type": "uint256"
        }
      ],
      "name": "transferFrom",
      "outputs": [
        {
          "internalType": "bool",
          "name": "",
          "type": "bool"
        }
      ],
      "stateMutability": "nonpayable",
      "type": "function"
    },
    {
      "inputs": [
        {
          "internalType": "address",
          "name": "newOwner",
          "type": "address"
        }
      ],
      "name": "transferOwnership",
      "outputs": [],
      "stateMutability": "nonpayable",
      "type": "function"
    }
  ],
  "transactionHash": "0x5298985767684d70fdf2c8394ce9200f8dea167fd52283bdc1f478dc258680e0",
  "args": [
    "BAKE",
    "bakerybakery AG Shares",
    "gipfeligang.bakerybakery.ch",
    "12670027",
    "0x981c2C4722Fd9313aeb362DaFf6DF47089F73430",
    "0xf00B91839fF7A6AC6DddAC7e73D2F222C19A9Ec3"
  ],
  "numDeployments": 1,
  "solcInputHash": "6f6227548e8d6d011f4ca8ea07761f6a",
  "bytecode": "0x60a060405234801562000010575f80fd5b506040516200251a3803806200251a833981016040819052620000339162000260565b6003805460ff191690556001600160a01b03818116608052600580546001600160a01b0319169184169182179055604051879187915f91869182919084907f8be0079c531659141344cd1fd0a4f28419497f9722a3daafe3b4186f6b6457e0908290a350620000a3848462000125565b505050600a849055506009620000ba8582620003ab565b505f600b819055604051636427ed9760e01b815260048101919091526001600160a01b03821690636427ed97906024015f604051808303815f87803b15801562000102575f80fd5b505af115801562000115573d5f803e3d5ffd5b50505050505050505050620004d1565b6007620001338382620003ab565b506006620001428282620003ab565b507f6c20b91d1723b78732eba64ff11ebd7966a6e4af568a00fa4f6b72c20f58b02a818360405162000176929190620004a0565b60405180910390a15050565b634e487b7160e01b5f52604160045260245ffd5b5f5b83811015620001b257818101518382015260200162000198565b50505f910152565b5f82601f830112620001ca575f80fd5b81516001600160401b0380821115620001e757620001e762000182565b604051601f8301601f19908116603f0116810190828211818310171562000212576200021262000182565b816040528381528660208588010111156200022b575f80fd5b6200023e84602083016020890162000196565b9695505050505050565b6001600160a01b03811681146200025d575f80fd5b50565b5f805f805f8060c0878903121562000276575f80fd5b86516001600160401b03808211156200028d575f80fd5b6200029b8a838b01620001ba565b97506020890151915080821115620002b1575f80fd5b620002bf8a838b01620001ba565b96506040890151915080821115620002d5575f80fd5b50620002e489828a01620001ba565b945050606087015192506080870151620002fe8162000248565b60a0880151909250620003118162000248565b809150509295509295509295565b600181811c908216806200033457607f821691505b6020821081036200035357634e487b7160e01b5f52602260045260245ffd5b50919050565b601f821115620003a6575f81815260208120601f850160051c81016020861015620003815750805b601f850160051c820191505b81811015620003a2578281556001016200038d565b5050505b505050565b81516001600160401b03811115620003c757620003c762000182565b620003df81620003d884546200031f565b8462000359565b602080601f83116001811462000415575f8415620003fd5750858301515b5f19600386901b1c1916600185901b178555620003a2565b5f85815260208120601f198616915b82811015620004455788860151825594840194600190910190840162000424565b50858210156200046357878501515f19600388901b60f8161c191681555b5050505050600190811b01905550565b5f81518084526200048c81602086016020860162000196565b601f01601f19169290920160200192915050565b604081525f620004b4604083018562000473565b8281036020840152620004c8818562000473565b95945050505050565b60805161200d6200050d5f395f818161052a0152818161079301528181610c4d01528181610e64015281816110b101526114ab015261200d5ff3fe608060405234801561000f575f80fd5b5060043610610255575f3560e01c8063648bf77411610140578063b0d04c7a116100bf578063ddceafa911610084578063ddceafa914610525578063e5b824ec1461054c578063f2fde38b1461055f578063f54fc06014610572578063f5c0b95f14610585578063ffa1ad7414610598575f80fd5b8063b0d04c7a146104b7578063c18172c4146104bf578063d5025625146104d2578063d505accf146104da578063dd62ed3e146104ed575f80fd5b80637ecebe00116101055780637ecebe00146104575780638da5cb5b1461047657806395d89b4114610489578063a77384c114610491578063a9059cbb146104a4575f80fd5b8063648bf7741461040257806370a082311461041557806377e071ad1461042857806378f86afc1461043b5780637dc2cd981461044e575f80fd5b806337a8129c116101d757806340c10f191161019c57806340c10f191461039a57806342966c68146103ad578063487346b2146103c05780635c707f07146103d35780635d6624b7146103e657806360918117146103f9575f80fd5b806337a8129c1461034f5780633a1cdf32146103585780633a98ef391461036b5780634000aea0146103745780634029a3ce14610387575f80fd5b806323b872dd1161021d57806323b872dd146102f15780632a0a4ed514610304578063313ce5671461031557806332a7ae95146103345780633644e51514610347575f80fd5b806306fdde0314610259578063095ea7b3146102775780630c6f0e5d1461029a57806318160ddd146102ca5780631f0f06aa146102dc575b5f80fd5b6102616105a0565b60405161026e91906117a7565b60405180910390f35b61028a6102853660046117cd565b61062c565b604051901515815260200161026e565b6003546102b29061010090046001600160a01b031681565b6040516001600160a01b03909116815260200161026e565b6002545b60405190815260200161026e565b6102ef6102ea36600461183c565b610642565b005b61028a6102ff36600461187b565b6106b2565b6005546001600160a01b03166102b2565b6003546103229060ff1681565b60405160ff909116815260200161026e565b6102ef6103423660046118b9565b610726565b6102ce6107ed565b6102ce600b5481565b6102ef6103663660046117cd565b610845565b6102ce600a5481565b61028a6103823660046118d4565b61087d565b6102ef61039536600461196d565b61090a565b6102ef6103a83660046117cd565b6109ac565b6102ef6103bb3660046119c8565b6109e0565b6102ef6103ce3660046119df565b6109f8565b6102ef6103e1366004611b23565b610b32565b6102ef6103f43660046118d4565b610b66565b6102ce60045481565b6102ef610410366004611b83565b610c42565b6102ce6104233660046118b9565b610c9d565b6102ce6104363660046118b9565b610cc0565b6102ef610449366004611bba565b610d08565b62ed4e006102ce565b6102ce6104653660046118b9565b60086020525f908152604090205481565b6005546102b2906001600160a01b031681565b610261610d79565b6102ef61049f3660046119c8565b610d86565b61028a6104b23660046117cd565b610e2b565b6102ce610e3d565b6102ef6104cd3660046118b9565b610e59565b610261610eae565b6102ef6104e8366004611c04565b610ebb565b6102ce6104fb366004611b83565b6001600160a01b039182165f90815260016020908152604080832093909416825291909152205490565b6102b27f000000000000000000000000000000000000000000000000000000000000000081565b6102ef61055a3660046118b9565b6110a6565b6102ef61056d3660046118b9565b6110fa565b6102ef610580366004611c6d565b61117f565b61028a610593366004611cdb565b611203565b610322600381565b600680546105ad90611d0e565b80601f01602080910402602001604051908101604052809291908181526020018280546105d990611d0e565b80156106245780601f106105fb57610100808354040283529160200191610624565b820191905f5260205f20905b81548152906001019060200180831161060757829003601f168201915b505050505081565b5f61063833848461120e565b5060015b92915050565b6005546001600160a01b031633146106755760405162461bcd60e51b815260040161066c90611d46565b60405180910390fd5b7f07ce702fc13ca0620c174dab22996a6d5fd9e7accb663555a4e85323692706ba82826040516106a6929190611d91565b60405180910390a15050565b5f6106be84848461126f565b6001600160a01b0384165f908152600160209081526040808320338452909152902054600160ff1b81101561071b576106f78382611db8565b6001600160a01b0386165f9081526001602090815260408083203384529091529020555b506001949350505050565b6005546001600160a01b031633146107745760405162461bcd60e51b81526020600482015260116024820152703737ba1031b630b4b6903232b632ba32b960791b604482015260640161066c565b6040516332a7ae9560e01b81526001600160a01b0382811660048301527f000000000000000000000000000000000000000000000000000000000000000016906332a7ae95906024015f604051808303815f87803b1580156107d4575f80fd5b505af11580156107e6573d5f803e3d5ffd5b5050505050565b604080517f47e79534a245952e8b16893a336b85a3d9ea9fa8c573f3d803afb92a79469218602082015246918101919091523060608201525f9060800160405160208183030381529060405280519060200120905090565b6005546001600160a01b0316331461086f5760405162461bcd60e51b815260040161066c90611d46565b61087982826112c8565b5050565b5f6108888585610e2b565b80156109015750604051635260769b60e11b81526001600160a01b0386169063a4c0ed36906108c1903390889088908890600401611dcb565b6020604051808303815f875af11580156108dd573d5f803e3d5ffd5b505050506040513d601f19601f820116820180604052508101906109019190611dfc565b95945050505050565b6005546001600160a01b031633146109345760405162461bcd60e51b815260040161066c90611d46565b82818114610940575f80fd5b5f5b818110156109a45761099286868381811061095f5761095f611e1b565b905060200201602081019061097491906118b9565b85858481811061098657610986611e1b565b9050602002013561133d565b8061099c81611e2f565b915050610942565b505050505050565b6005546001600160a01b031633146109d65760405162461bcd60e51b815260040161066c90611d46565b610879828261133d565b6109eb33308361126f565b6109f53082611393565b50565b85838114610a04575f80fd5b5f805b82811015610a4757868682818110610a2157610a21611e1b565b9050602002013582610a339190611e47565b915080610a3f81611e2f565b915050610a07565b50610a5287826109ac565b5f5b82811015610b2657876001600160a01b031663a4c0ed368b8b84818110610a7d57610a7d611e1b565b9050602002016020810190610a9291906118b9565b898985818110610aa457610aa4611e1b565b9050602002013588886040518563ffffffff1660e01b8152600401610acc9493929190611dcb565b6020604051808303815f875af1158015610ae8573d5f803e3d5ffd5b505050506040513d601f19601f82011682018060405250810190610b0c9190611dfc565b610b14575f80fd5b80610b1e81611e2f565b915050610a54565b50505050505050505050565b6005546001600160a01b03163314610b5c5760405162461bcd60e51b815260040161066c90611d46565b61087982826113f9565b6005546001600160a01b03163314610b905760405162461bcd60e51b815260040161066c90611d46565b5f610b9a85610c9d565b905080841115610bde5760405162461bcd60e51b815260206004820152600f60248201526e0c2dadeeadce840e8dede40d0d2ced608b1b604482015260640161066c565b83600b5f828254610bef9190611e47565b92505081905550846001600160a01b03167f0a605cd1294f60fa3b73548ac68428f33300a051f225afcdcc75e56083c96ee7858585604051610c3393929190611e5a565b60405180910390a25050505050565b336001600160a01b037f00000000000000000000000000000000000000000000000000000000000000001614610c8a5760405162461bcd60e51b815260040161066c90611e73565b6108798282610c9885610c9d565b61126f565b6001600160a01b03165f908152602081905260409020546001600160e01b031690565b5f306001600160a01b03831603610cd957506001919050565b6003546001600160a01b03610100909104811690831603610cfc57505060045490565b505f919050565b919050565b6005546001600160a01b03163314610d325760405162461bcd60e51b815260040161066c90611d46565b6009610d3e8282611ede565b507fe9f2468ecc8d3dff15a70a5909151e6297cee4cf05268eff3d7ef0c696ec50f281604051610d6e91906117a7565b60405180910390a150565b600780546105ad90611d0e565b6005546001600160a01b03163314610db05760405162461bcd60e51b815260040161066c90611d46565b610db8610e3d565b811015610df65760405162461bcd60e51b815260206004820152600c60248201526b62656c6f7720737570706c7960a01b604482015260640161066c565b600a8190556040518181527fdcbf73bf1e396dbe03ccbcd29c0aa52eb8028ae24726098296357286de4f5b2690602001610d6e565b5f610e368383611444565b9392505050565b5f600b54610e4a60025490565b610e549190611db8565b905090565b336001600160a01b037f00000000000000000000000000000000000000000000000000000000000000001614610ea15760405162461bcd60e51b815260040161066c90611e73565b6109f581600a6001611513565b600980546105ad90611d0e565b42841015610f0b5760405162461bcd60e51b815260206004820152601760248201527f5045524d49545f444541444c494e455f45585049524544000000000000000000604482015260640161066c565b5f6001610f166107ed565b6001600160a01b038a81165f8181526008602090815260409182902080546001810190915582517f6e71edae12b1b97f4d1f60370fef10105fa2faae0126114a169c64845d6126c98184015280840194909452938d166060840152608083018c905260a083019390935260c08083018b90528151808403909101815260e08301909152805192019190912061190160f01b6101008301526101028201929092526101228101919091526101420160408051601f1981840301815282825280516020918201205f84529083018083525260ff871690820152606081018590526080810184905260a0016020604051602081039080840390855afa15801561101e573d5f803e3d5ffd5b5050604051601f1901519150506001600160a01b038116158015906110545750876001600160a01b0316816001600160a01b0316145b6110915760405162461bcd60e51b815260206004820152600e60248201526d24a72b20a624a22fa9a4a3a722a960911b604482015260640161066c565b61109c81888861120e565b5050505050505050565b336001600160a01b037f000000000000000000000000000000000000000000000000000000000000000016146110ee5760405162461bcd60e51b815260040161066c90611e73565b6109f581600a5f611513565b6005546001600160a01b031633146111245760405162461bcd60e51b815260040161066c90611d46565b6005546040516001600160a01b038084169216907f8be0079c531659141344cd1fd0a4f28419497f9722a3daafe3b4186f6b6457e0905f90a3600580546001600160a01b0319166001600160a01b0392909216919091179055565b61118984846109ac565b604051635260769b60e11b81526001600160a01b0385169063a4c0ed36906111bb908890879087908790600401611dcb565b6020604051808303815f875af11580156111d7573d5f803e3d5ffd5b505050506040513d601f19601f820116820180604052508101906111fb9190611dfc565b6107e6575f80fd5b5f610e368383611574565b6001600160a01b038381165f8181526001602090815260408083209487168084529482529182902085905590518481527f8c5be1e5ebec7d5bd14f71427d1e84f3dd0314c0f7b2291e5b200ac8c7c3b92591015b60405180910390a3505050565b61127983826115b7565b611283828261164b565b816001600160a01b0316836001600160a01b03167fddf252ad1be2c89b69c2b068fc378daa952ba7f163c4a11628f55a4df523b3ef8360405161126291815260200190565b60038054610100600160a81b0319166101006001600160a01b0385811682029290921792839055909104166112ff575f6004555050565b5f81116113375760405162461bcd60e51b815260040161066c906020808252600490820152637a65726f60e01b604082015260600190565b60045550565b600a5481611349610e3d565b6113539190611e47565b11156113895760405162461bcd60e51b81526020600482015260056024820152641d1bdd185b60da1b604482015260640161066c565b61087982826116fa565b8060025f8282546113a49190611db8565b909155506113b4905082826115b7565b6040518181525f906001600160a01b038416907fddf252ad1be2c89b69c2b068fc378daa952ba7f163c4a11628f55a4df523b3ef906020015b60405180910390a35050565b60076114058382611ede565b5060066114128282611ede565b507f6c20b91d1723b78732eba64ff11ebd7966a6e4af568a00fa4f6b72c20f58b02a81836040516106a6929190611f9a565b5f61144f8383611758565b6114865760405162461bcd60e51b81526020600482015260086024820152673a3930b739b332b960c11b604482015260640161066c565b61149133600a611574565b15610638576040516304d301a360e41b81523360048201527f00000000000000000000000000000000000000000000000000000000000000006001600160a01b031690634d301a30906024015f604051808303815f87803b1580156114f4575f80fd5b505af1158015611506573d5f803e3d5ffd5b5050505050600192915050565b5f61151f8360e0611fbe565b6001600160a01b0385165f90815260208190526040902054600160ff929092169190911b91508082168214831515146107e6576001600160a01b03949094165f90815260208190526040902093189092555050565b5f806115818360e0611fbe565b6001600160a01b0385165f90815260208190526040902054600160ff929092169190911b9081161491505092915050565b505050565b6001600160a01b0382165f90815260208190526040812054906115da8383611db8565b90506001600160e01b031981166001600160e01b031983161461162b5760405162461bcd60e51b8152602060048201526009602482015268756e646572666c6f7760b81b604482015260640161066c565b6001600160a01b039093165f908152602081905260409020929092555050565b6001600160a01b0382166116875760405162461bcd60e51b815260206004820152600360248201526203078360ec1b604482015260640161066c565b6001600160a01b0382165f90815260208190526040812054906116aa8383611e47565b90506001600160e01b031981166001600160e01b031983161461162b5760405162461bcd60e51b81526020600482015260086024820152676f766572666c6f7760c01b604482015260640161066c565b8060025f82825461170b9190611e47565b9091555061171b9050828261164b565b6040518181526001600160a01b038316905f907fddf252ad1be2c89b69c2b068fc378daa952ba7f163c4a11628f55a4df523b3ef906020016113ed565b5f61063833848461126f565b5f81518084525f5b818110156117885760208185018101518683018201520161176c565b505f602082860101526020601f19601f83011685010191505092915050565b602081525f610e366020830184611764565b6001600160a01b03811681146109f5575f80fd5b5f80604083850312156117de575f80fd5b82356117e9816117b9565b946020939093013593505050565b5f8083601f840112611807575f80fd5b50813567ffffffffffffffff81111561181e575f80fd5b602083019150836020828501011115611835575f80fd5b9250929050565b5f806020838503121561184d575f80fd5b823567ffffffffffffffff811115611863575f80fd5b61186f858286016117f7565b90969095509350505050565b5f805f6060848603121561188d575f80fd5b8335611898816117b9565b925060208401356118a8816117b9565b929592945050506040919091013590565b5f602082840312156118c9575f80fd5b8135610e36816117b9565b5f805f80606085870312156118e7575f80fd5b84356118f2816117b9565b935060208501359250604085013567ffffffffffffffff811115611914575f80fd5b611920878288016117f7565b95989497509550505050565b5f8083601f84011261193c575f80fd5b50813567ffffffffffffffff811115611953575f80fd5b6020830191508360208260051b8501011115611835575f80fd5b5f805f8060408587031215611980575f80fd5b843567ffffffffffffffff80821115611997575f80fd5b6119a38883890161192c565b909650945060208701359150808211156119bb575f80fd5b506119208782880161192c565b5f602082840312156119d8575f80fd5b5035919050565b5f805f805f805f6080888a0312156119f5575f80fd5b873567ffffffffffffffff80821115611a0c575f80fd5b611a188b838c0161192c565b909950975060208a01359150611a2d826117b9565b90955060408901359080821115611a42575f80fd5b611a4e8b838c0161192c565b909650945060608a0135915080821115611a66575f80fd5b50611a738a828b016117f7565b989b979a50959850939692959293505050565b634e487b7160e01b5f52604160045260245ffd5b5f82601f830112611aa9575f80fd5b813567ffffffffffffffff80821115611ac457611ac4611a86565b604051601f8301601f19908116603f01168101908282118183101715611aec57611aec611a86565b81604052838152866020858801011115611b04575f80fd5b836020870160208301375f602085830101528094505050505092915050565b5f8060408385031215611b34575f80fd5b823567ffffffffffffffff80821115611b4b575f80fd5b611b5786838701611a9a565b93506020850135915080821115611b6c575f80fd5b50611b7985828601611a9a565b9150509250929050565b5f8060408385031215611b94575f80fd5b8235611b9f816117b9565b91506020830135611baf816117b9565b809150509250929050565b5f60208284031215611bca575f80fd5b813567ffffffffffffffff811115611be0575f80fd5b611bec84828501611a9a565b949350505050565b803560ff81168114610d03575f80fd5b5f805f805f805f60e0888a031215611c1a575f80fd5b8735611c25816117b9565b96506020880135611c35816117b9565b95506040880135945060608801359350611c5160808901611bf4565b925060a0880135915060c0880135905092959891949750929550565b5f805f805f60808688031215611c81575f80fd5b8535611c8c816117b9565b94506020860135611c9c816117b9565b935060408601359250606086013567ffffffffffffffff811115611cbe575f80fd5b611cca888289016117f7565b969995985093965092949392505050565b5f8060408385031215611cec575f80fd5b8235611cf7816117b9565b9150611d0560208401611bf4565b90509250929050565b600181811c90821680611d2257607f821691505b602082108103611d4057634e487b7160e01b5f52602260045260245ffd5b50919050565b6020808252600990820152683737ba1037bbb732b960b91b604082015260600190565b81835281816020850137505f828201602090810191909152601f909101601f19169091010190565b602081525f611bec602083018486611d69565b634e487b7160e01b5f52601160045260245ffd5b8181038181111561063c5761063c611da4565b60018060a01b0385168152836020820152606060408201525f611df2606083018486611d69565b9695505050505050565b5f60208284031215611e0c575f80fd5b81518015158114610e36575f80fd5b634e487b7160e01b5f52603260045260245ffd5b5f60018201611e4057611e40611da4565b5060010190565b8082018082111561063c5761063c611da4565b838152604060208201525f610901604083018486611d69565b6020808252600c908201526b6e6f74207265636f7665727960a01b604082015260600190565b601f8211156115b2575f81815260208120601f850160051c81016020861015611ebf5750805b601f850160051c820191505b818110156109a457828155600101611ecb565b815167ffffffffffffffff811115611ef857611ef8611a86565b611f0c81611f068454611d0e565b84611e99565b602080601f831160018114611f3f575f8415611f285750858301515b5f19600386901b1c1916600185901b1785556109a4565b5f85815260208120601f198616915b82811015611f6d57888601518255948401946001909101908401611f4e565b5085821015611f8a57878501515f19600388901b60f8161c191681555b5050505050600190811b01905550565b604081525f611fac6040830185611764565b82810360208401526109018185611764565b60ff818116838216019081111561063c5761063c611da456fea2646970667358221220949dcf4ca059b21fab3ed6567670b54e82927d0bdc35e67417c230a2d27155ff64736f6c63430008150033",
  "devdoc": {
    "author": "Luzius Meisser, luzius@aktionariat.com These tokens represent ledger-based securities according to article 973d of the Swiss Code of Obligations. This smart contract serves as an ownership registry, enabling the token holders to register them as shareholders in the issuer's shareholder registry. This is equivalent to the traditional system of having physical share certificates kept at home by the shareholders and a shareholder registry run by the company. Just like with physical certificates, the owners of the tokens are the owners of the shares. However, in order to exercise their rights (for example receive a dividend), shareholders must register themselves. For example, in case the company pays out a dividend to a previous shareholder because the current shareholder did not register, the company cannot be held liable for paying the dividend to the \"wrong\" shareholder. In relation to the company, only the registered shareholders count as such.",
    "events": {
      "Approval(address,address,uint256)": {
        "details": "Emitted when the allowance of a `spender` for an `owner` is set by a call to `approve`. `value` is the new allowance."
      },
      "Transfer(address,address,uint256)": {
        "details": "Emitted when `value` tokens are moved from one account (`from`) to another (`to`). Note that `value` may be zero."
      }
    },
    "kind": "dev",
    "methods": {
      "DOMAIN_SEPARATOR()": {
        "details": "Returns the domain separator used in the encoding of the signature for {permit}, as defined by {EIP712}."
      },
      "allowance(address,address)": {
        "details": "See `IERC20.allowance`."
      },
      "approve(address,uint256)": {
        "details": "See `IERC20.approve`. Requirements: - `spender` cannot be the zero address."
      },
      "balanceOf(address)": {
        "details": "See `IERC20.balanceOf`."
      },
      "permit(address,address,uint256,uint256,uint8,bytes32,bytes32)": {
        "details": "Sets `value` as the allowance of `spender` over ``owner``'s tokens, given ``owner``'s signed approval. IMPORTANT: The same issues {IERC20-approve} has related to transaction ordering also apply here. Emits an {Approval} event. Requirements: - `spender` cannot be the zero address. - `deadline` must be a timestamp in the future. - `v`, `r` and `s` must be a valid `secp256k1` signature from `owner` over the EIP712-formatted function arguments. - the signature must use ``owner``'s current nonce (see {nonces}). For more information on the signature format, see the https://eips.ethereum.org/EIPS/eip-2612#specification[relevant EIP section]."
      },
      "totalSupply()": {
        "details": "See `IERC20.totalSupply`."
      },
      "transferFrom(address,address,uint256)": {
        "details": "See `IERC20.transferFrom`. Emits an `Approval` event indicating the updated allowance. This is not required by the EIP. See the note at the beginning of `ERC20`; Requirements: - `sender` and `recipient` cannot be the zero address. - `sender` must have a balance of at least `value`. - the caller must have allowance for `sender`'s tokens of at least `amount`."
      },
      "transferOwnership(address)": {
        "details": "Transfers ownership of the contract to a new account (`newOwner`). Can only be called by the current owner."
      }
    },
    "title": "CompanyName AG Shares",
    "version": 1
  },
  "userdoc": {
    "kind": "user",
    "methods": {
      "announcement(string)": {
        "notice": "Allows the issuer to make public announcements that are visible on the blockchain."
      },
      "burn(uint256)": {
        "notice": "Transfers _amount tokens to the company and burns them. The meaning of this operation depends on the circumstances and the fate of the shares does not necessarily follow the fate of the tokens. For example, the company itself might call this function to implement a formal decision to destroy some of the outstanding shares. Also, this function might be called by an owner to return the shares to the company and get them back in another form under an according agreement (e.g. printed certificates or tokens on a different blockchain). It is not recommended to call this function without having agreed with the company on the further fate of the shares in question."
      },
      "declareInvalid(address,uint256,string)": {
        "notice": "Signals that the indicated tokens have been declared invalid (e.g. by a court ruling in accordance with article 973g of the Swiss Code of Obligations) and got detached from the underlying shares. Invalid tokens do not carry any shareholder rights any more. This function is purely declarative. It does not technically immobilize the affected tokens as that would give the issuer too much power."
      },
      "getCollateralRate(address)": {
        "notice": "Returns the collateral rate for the given collateral type and 0 if that type of collateral is not accepted. By default, only the token itself is accepted at a rate of 1:1. Subclasses should override this method if they want to add additional types of collateral."
      },
      "mintAndCall(address,address,uint256,bytes)": {
        "notice": "Allows the company to tokenize shares and transfer them e.g to the draggable contract and wrap them. If these shares are newly created, setTotalShares must be called first in order to adjust the total number of shares."
      },
      "setCustomClaimCollateral(address,uint256)": {
        "notice": "See parent method for collateral requirements."
      },
      "setTotalShares(uint256)": {
        "notice": "Declares the number of total shares, including those that have not been tokenized and those that are held by the company itself. This number can be substiantially higher than totalSupply() in case not all shares have been tokenized. Also, it can be lower than totalSupply() in case some tokens have become invalid."
      },
      "totalValidSupply()": {
        "notice": "The total number of valid tokens in circulation. In case some tokens have been declared invalid, this number might be lower than totalSupply(). Also, it will always be lower than or equal to totalShares()."
      }
    },
    "version": 1
  },
  "storageLayout": {
    "storage": [
      {
        "astId": 424,
        "contract": "src/shares/Shares.sol:Shares",
        "label": "_balances",
        "offset": 0,
        "slot": "0",
        "type": "t_mapping(t_address,t_uint256)"
      },
      {
        "astId": 430,
        "contract": "src/shares/Shares.sol:Shares",
        "label": "_allowances",
        "offset": 0,
        "slot": "1",
        "type": "t_mapping(t_address,t_mapping(t_address,t_uint256))"
      },
      {
        "astId": 432,
        "contract": "src/shares/Shares.sol:Shares",
        "label": "_totalSupply",
        "offset": 0,
        "slot": "2",
        "type": "t_uint256"
      },
      {
        "astId": 435,
        "contract": "src/shares/Shares.sol:Shares",
        "label": "decimals",
        "offset": 0,
        "slot": "3",
        "type": "t_uint8"
      },
      {
        "astId": 9118,
        "contract": "src/shares/Shares.sol:Shares",
        "label": "customCollateralAddress",
        "offset": 1,
        "slot": "3",
        "type": "t_contract(IERC20)1208"
      },
      {
        "astId": 9120,
        "contract": "src/shares/Shares.sol:Shares",
        "label": "customCollateralRate",
        "offset": 0,
        "slot": "4",
        "type": "t_uint256"
      },
      {
        "astId": 10978,
        "contract": "src/shares/Shares.sol:Shares",
        "label": "owner",
        "offset": 0,
        "slot": "5",
        "type": "t_address"
      },
      {
        "astId": 934,
        "contract": "src/shares/Shares.sol:Shares",
        "label": "name",
        "offset": 0,
        "slot": "6",
        "type": "t_string_storage"
      },
      {
        "astId": 937,
        "contract": "src/shares/Shares.sol:Shares",
        "label": "symbol",
        "offset": 0,
        "slot": "7",
        "type": "t_string_storage"
      },
      {
        "astId": 1010,
        "contract": "src/shares/Shares.sol:Shares",
        "label": "nonces",
        "offset": 0,
        "slot": "8",
        "type": "t_mapping(t_address,t_uint256)"
      },
      {
        "astId": 10413,
        "contract": "src/shares/Shares.sol:Shares",
        "label": "terms",
        "offset": 0,
        "slot": "9",
        "type": "t_string_storage"
      },
      {
        "astId": 10416,
        "contract": "src/shares/Shares.sol:Shares",
        "label": "totalShares",
        "offset": 0,
        "slot": "10",
        "type": "t_uint256"
      },
      {
        "astId": 10418,
        "contract": "src/shares/Shares.sol:Shares",
        "label": "invalidTokens",
        "offset": 0,
        "slot": "11",
        "type": "t_uint256"
      }
    ],
    "types": {
      "t_address": {
        "encoding": "inplace",
        "label": "address",
        "numberOfBytes": "20"
      },
      "t_contract(IERC20)1208": {
        "encoding": "inplace",
        "label": "contract IERC20",
        "numberOfBytes": "20"
      },
      "t_mapping(t_address,t_mapping(t_address,t_uint256))": {
        "encoding": "mapping",
        "key": "t_address",
        "label": "mapping(address => mapping(address => uint256))",
        "numberOfBytes": "32",
        "value": "t_mapping(t_address,t_uint256)"
      },
      "t_mapping(t_address,t_uint256)": {
        "encoding": "mapping",
        "key": "t_address",
        "label": "mapping(address => uint256)",
        "numberOfBytes": "32",
        "value": "t_uint256"
      },
      "t_string_storage": {
        "encoding": "bytes",
        "label": "string",
        "numberOfBytes": "32"
      },
      "t_uint256": {
        "encoding": "inplace",
        "label": "uint256",
        "numberOfBytes": "32"
      },
      "t_uint8": {
        "encoding": "inplace",
        "label": "uint8",
        "numberOfBytes": "1"
      }
    }
  }
}