{
  "address": "0xfA0f2b98AeC990cd011Aa9071D86051491b1dFcD",
  "abi": [
    {
      "inputs": [
        {
          "internalType": "contract BrokerbotRegistry",
          "name": "_registry",
          "type": "address"
        }
      ],
      "stateMutability": "nonpayable",
      "type": "constructor"
    },
    {
      "inputs": [
        {
          "internalType": "address",
          "name": "target",
          "type": "address"
        }
      ],
      "name": "Address_NotTransferNorContract",
      "type": "error"
    },
    {
      "inputs": [],
      "name": "Brokerbot_Deadline_Reached",
      "type": "error"
    },
    {
      "inputs": [],
      "name": "Brokerbot_Not_Found",
      "type": "error"
    },
    {
      "inputs": [
        {
          "internalType": "address",
          "name": "token",
          "type": "address"
        }
      ],
      "name": "SafeERC20FailedOperation",
      "type": "error"
    },
    {
      "inputs": [],
      "name": "brokerbotRegistry",
      "outputs": [
        {
          "internalType": "contract BrokerbotRegistry",
          "name": "",
          "type": "address"
        }
      ],
      "stateMutability": "view",
      "type": "function"
    },
    {
      "inputs": [
        {
          "components": [
            {
              "internalType": "bytes",
              "name": "path",
              "type": "bytes"
            },
            {
              "internalType": "address",
              "name": "recipient",
              "type": "address"
            },
            {
              "internalType": "uint256",
              "name": "deadline",
              "type": "uint256"
            },
            {
              "internalType": "uint256",
              "name": "amountIn",
              "type": "uint256"
            },
            {
              "internalType": "uint256",
              "name": "amountOutMinimum",
              "type": "uint256"
            }
          ],
          "internalType": "struct ISwapRouter.ExactInputParams",
          "name": "params",
          "type": "tuple"
        }
      ],
      "name": "exactInput",
      "outputs": [
        {
          "internalType": "uint256",
          "name": "amountOut",
          "type": "uint256"
        }
      ],
      "stateMutability": "payable",
      "type": "function"
    },
    {
      "inputs": [
        {
          "components": [
            {
              "internalType": "address",
              "name": "tokenIn",
              "type": "address"
            },
            {
              "internalType": "address",
              "name": "tokenOut",
              "type": "address"
            },
            {
              "internalType": "uint24",
              "name": "fee",
              "type": "uint24"
            },
            {
              "internalType": "address",
              "name": "recipient",
              "type": "address"
            },
            {
              "internalType": "uint256",
              "name": "deadline",
              "type": "uint256"
            },
            {
              "internalType": "uint256",
              "name": "amountIn",
              "type": "uint256"
            },
            {
              "internalType": "uint256",
              "name": "amountOutMinimum",
              "type": "uint256"
            },
            {
              "internalType": "uint160",
              "name": "sqrtPriceLimitX96",
              "type": "uint160"
            }
          ],
          "internalType": "struct ISwapRouter.ExactInputSingleParams",
          "name": "params",
          "type": "tuple"
        }
      ],
      "name": "exactInputSingle",
      "outputs": [
        {
          "internalType": "uint256",
          "name": "amountOut",
          "type": "uint256"
        }
      ],
      "stateMutability": "payable",
      "type": "function"
    },
    {
      "inputs": [
        {
          "components": [
            {
              "internalType": "bytes",
              "name": "path",
              "type": "bytes"
            },
            {
              "internalType": "address",
              "name": "recipient",
              "type": "address"
            },
            {
              "internalType": "uint256",
              "name": "deadline",
              "type": "uint256"
            },
            {
              "internalType": "uint256",
              "name": "amountOut",
              "type": "uint256"
            },
            {
              "internalType": "uint256",
              "name": "amountInMaximum",
              "type": "uint256"
            }
          ],
          "internalType": "struct ISwapRouter.ExactOutputParams",
          "name": "params",
          "type": "tuple"
        }
      ],
      "name": "exactOutput",
      "outputs": [
        {
          "internalType": "uint256",
          "name": "amountIn",
          "type": "uint256"
        }
      ],
      "stateMutability": "payable",
      "type": "function"
    },
    {
      "inputs": [
        {
          "components": [
            {
              "internalType": "address",
              "name": "tokenIn",
              "type": "address"
            },
            {
              "internalType": "address",
              "name": "tokenOut",
              "type": "address"
            },
            {
              "internalType": "uint24",
              "name": "fee",
              "type": "uint24"
            },
            {
              "internalType": "address",
              "name": "recipient",
              "type": "address"
            },
            {
              "internalType": "uint256",
              "name": "deadline",
              "type": "uint256"
            },
            {
              "internalType": "uint256",
              "name": "amountOut",
              "type": "uint256"
            },
            {
              "internalType": "uint256",
              "name": "amountInMaximum",
              "type": "uint256"
            },
            {
              "internalType": "uint160",
              "name": "sqrtPriceLimitX96",
              "type": "uint160"
            }
          ],
          "internalType": "struct ISwapRouter.ExactOutputSingleParams",
          "name": "params",
          "type": "tuple"
        }
      ],
      "name": "exactOutputSingle",
      "outputs": [
        {
          "internalType": "uint256",
          "name": "amountIn",
          "type": "uint256"
        }
      ],
      "stateMutability": "payable",
      "type": "function"
    },
    {
      "inputs": [
        {
          "internalType": "contract IERC20",
          "name": "token",
          "type": "address"
        }
      ],
      "name": "refundERC20",
      "outputs": [],
      "stateMutability": "nonpayable",
      "type": "function"
    },
    {
      "inputs": [],
      "name": "refundETH",
      "outputs": [],
      "stateMutability": "payable",
      "type": "function"
    },
    {
      "stateMutability": "payable",
      "type": "receive"
    }
  ],
  "transactionHash": "0x9528462c34b5b2f46a6ce1d797210038bf0dcd0ff74d38ed0b963f1f5fbacb08",
  "args": [
    "0x2C9b9b9143A9Ef5051A299EF3CC8039b06927093"
  ],
  "numDeployments": 1,
  "solcInputHash": "9cfbcacdb8225a5ce2d06a060ad650b1",
  "bytecode": "0x60a060405234801561001057600080fd5b50604051611ad1380380611ad183398101604081905261002f91610040565b6001600160a01b0316608052610070565b60006020828403121561005257600080fd5b81516001600160a01b038116811461006957600080fd5b9392505050565b608051611a2b6100a66000396000818160c20152818161022d015281816104f5015281816108b70152610ae70152611a2b6000f3fe6080604052600436106100745760003560e01c80636e94a6291161004e5780636e94a629146100fc578063c04b8d591461011c578063db3e21981461012f578063f28c04981461014257600080fd5b806312210e8a14610080578063414bf3891461008a5780634b07dff0146100b057600080fd5b3661007b57005b600080fd5b610088610155565b005b61009d610098366004611587565b6101fe565b6040519081526020015b60405180910390f35b3480156100bc57600080fd5b506100e47f000000000000000000000000000000000000000000000000000000000000000081565b6040516001600160a01b0390911681526020016100a7565b34801561010857600080fd5b506100886101173660046115b9565b6103eb565b61009d61012a3660046115e8565b610476565b61009d61013d366004611587565b610887565b61009d6101503660046115e8565b610a09565b47156101fc57604080516000808252602082019092523390479060405161017c919061165f565b60006040518083038185875af1925050503d80600081146101b9576040519150601f19603f3d011682016040523d82523d6000602084013e6101be565b606091505b50509050806101fa5760405162461bcd60e51b815260206004820152600360248201526229aa2360e91b60448201526064015b60405180910390fd5b505b565b600081608001354281101561022657604051639638793160e01b815260040160405180910390fd5b600061026e7f000000000000000000000000000000000000000000000000000000000000000061025c60408701602088016115b9565b61026960208801886115b9565b610cd3565b509050610299333060a087013561028860208901896115b9565b6001600160a01b0316929190610ddf565b6102a660208501856115b9565b60408051808201825260018152600160f81b60208201529051630200057560e51b81526001600160a01b039290921691634000aea0916102f091859160a08a0135916004016116b7565b6020604051808303816000875af115801561030f573d6000803e3d6000fd5b505050506040513d601f19601f8201168201806040525081019061033391906116de565b5061034460408501602086016115b9565b6040516370a0823160e01b81523060048201526001600160a01b0391909116906370a0823190602401602060405180830381865afa15801561038a573d6000803e3d6000fd5b505050506040513d601f19601f820116820180604052508101906103ae9190611700565b92506103e46103c360808601606087016115b9565b846103d460408801602089016115b9565b6001600160a01b03169190610e4c565b5050919050565b6040516370a0823160e01b81523060048201526000906001600160a01b038316906370a0823190602401602060405180830381865afa158015610432573d6000803e3d6000fd5b505050506040513d601f19601f820116820180604052508101906104569190611700565b90508015610472576104726001600160a01b0383163383610e4c565b5050565b600081604001354281101561049e57604051639638793160e01b815260040160405180910390fd5b6000806104e86104ae8680611719565b8080601f016020809104026020016040519081016040528093929190818152602001838380828437600092019190915250610e8292505050565b509150915060008061051b7f00000000000000000000000000000000000000000000000000000000000000008486610cd3565b90925090506105396001600160a01b038516333060608b0135610ddf565b604051636eb1769f60e11b81523060048201526001600160a01b03828116602483015285169063dd62ed3e90604401602060405180830381865afa158015610585573d6000803e3d6000fd5b505050506040513d601f19601f820116820180604052508101906105a99190611700565b6000036106265760405163095ea7b360e01b81526001600160a01b038281166004830152600019602483015285169063095ea7b3906044016020604051808303816000875af1158015610600573d6000803e3d6000fd5b505050506040513d601f19601f8201168201806040525081019061062491906116de565b505b61066d6106338880611719565b8080601f016020809104026020016040519081016040528093929190818152602001838380828437600092019190915250610ebe92505050565b1561076257600061067d886117c1565b90506106c661068c8980611719565b8080601f016020809104026020016040519081016040528093929190818152602001838380828437600092019190915250610ef892505050565b815260408051808201825260018152600160f81b60208201529051631a924e2960e31b81526001600160a01b0384169163d4927148916107179187918a9160608f013591889060009060040161188f565b6020604051808303816000875af1158015610736573d6000803e3d6000fd5b505050506040513d601f19601f8201168201806040525081019061075a9190611700565b96505061087d565b60408051808201825260018152600160f81b60208201529051630200057560e51b81526001600160a01b03861691634000aea0916107ab91869160608d013591906004016116b7565b6020604051808303816000875af11580156107ca573d6000803e3d6000fd5b505050506040513d601f19601f820116820180604052508101906107ee91906116de565b506040516370a0823160e01b81523060048201526001600160a01b038416906370a0823190602401602060405180830381865afa158015610833573d6000803e3d6000fd5b505050506040513d601f19601f820116820180604052508101906108579190611700565b955061087d61086c6040890160208a016115b9565b6001600160a01b0385169088610e4c565b5050505050919050565b60008160800135428110156108af57604051639638793160e01b815260040160405180910390fd5b6000806108f37f00000000000000000000000000000000000000000000000000000000000000006108e360208801886115b9565b6102696040890160208a016115b9565b9092509050341561091d5761090e82828760a0013534610f2f565b9350610918610155565b6109d9565b61093e828260a088013560c089013561093960208b018b6115b9565b611034565b60408051808201825260018152600160f81b60208201529051630bfab2e960e11b81529195506001600160a01b038316916317f565d29161098591869189916004016116b7565b6020604051808303816000875af11580156109a4573d6000803e3d6000fd5b505050506040513d601f19601f820116820180604052508101906109c89190611700565b506109d961011760208701876115b9565b610a016109ec60808701606088016115b9565b60a08701356103d46040890160208a016115b9565b505050919050565b6000816040013542811015610a3157604051639638793160e01b815260040160405180910390fd5b6000610a3d8480611719565b8080601f0160208091040260200160405190810160405280939291908181526020018383808284376000920182905250939450839250610a8491506104ae90508780611719565b5090925090506000610adb610ad6610a9c8980611719565b8080601f0160208091040260200160405190810160405280939291908181526020018383808284376000920191909152506111ad92505050565b610e82565b50915050600080610b0d7f00000000000000000000000000000000000000000000000000000000000000008587610cd3565b90925090503415610b3757610b2882828b6060013534610f2f565b9750610b32610155565b610c9f565b610b4c82828b606001358c6080013587611034565b9750610b5b6106338a80611719565b15610c0c57610b6d61068c8a80611719565b9550806001600160a01b0316635daf206a838a868d608001358b604051806040016040528060018152602001600160f81b8152506040518763ffffffff1660e01b8152600401610bc29695949392919061191f565b60408051808303816000875af1158015610be0573d6000803e3d6000fd5b505050506040513d601f19601f82011682018060405250810190610c049190611978565b509750610c96565b60408051808201825260018152600160f81b60208201529051630bfab2e960e11b81526001600160a01b038316916317f565d291610c519186918d91906004016116b7565b6020604051808303816000875af1158015610c70573d6000803e3d6000fd5b505050506040513d601f19601f82011682018060405250810190610c949190611700565b505b610c9f836103eb565b610cc7610cb260408b0160208c016115b9565b6001600160a01b0387169060608c0135610e4c565b50505050505050919050565b604051633b55df8560e11b81526001600160a01b038381166004830152828116602483015260009182918616906376abbf0a90604401602060405180830381865afa158015610d26573d6000803e3d6000fd5b505050506040513d601f19601f82011682018060405250810190610d4a919061199c565b91506001600160a01b038216610d73576040516325ef27af60e01b815260040160405180910390fd5b816001600160a01b031663777adcf06040518163ffffffff1660e01b8152600401602060405180830381865afa158015610db1573d6000803e3d6000fd5b505050506040513d601f19601f82011682018060405250810190610dd5919061199c565b9050935093915050565b6040516001600160a01b038481166024830152838116604483015260648201839052610e469186918216906323b872dd906084015b604051602081830303815290604052915060e01b6020820180516001600160e01b0383818316178352505050506111ec565b50505050565b6040516001600160a01b03838116602483015260448201839052610e7d91859182169063a9059cbb90606401610e14565b505050565b60008080610e90848261124f565b9250610e9d8460146112b4565b9050610eb5610eae600360146119cf565b859061124f565b91509193909250565b6000610ecc600360146119cf565b6014610ed96003826119cf565b610ee391906119cf565b610eed91906119cf565b825110159050919050565b6060610f29610f09600360146119cf565b610f15600360146119cf565b8451610f2191906119e2565b84919061135f565b92915050565b60405163023536c560e21b81526004810183905260009081906001600160a01b038716906308d4db1490602401602060405180830381865afa158015610f79573d6000803e3d6000fd5b505050506040513d601f19601f82011682018060405250810190610f9d9190611700565b60408051808201825260018152600160f81b6020820152905163020601bd60e11b81529192506001600160a01b0387169163040c037a918691610fe7918b918791906004016116b7565b604080518083038185885af1158015611004573d6000803e3d6000fd5b50505050506040513d601f19601f820116820180604052508101906110299190611978565b509695505050505050565b60405163023536c560e21b8152600481018490526000906001600160a01b038716906308d4db1490602401602060405180830381865afa15801561107c573d6000803e3d6000fd5b505050506040513d601f19601f820116820180604052508101906110a09190611700565b90506110b76001600160a01b038316333086610ddf565b604051636eb1769f60e11b81523060048201526001600160a01b03868116602483015283169063dd62ed3e90604401602060405180830381865afa158015611103573d6000803e3d6000fd5b505050506040513d601f19601f820116820180604052508101906111279190611700565b6000036111a45760405163095ea7b360e01b81526001600160a01b038681166004830152600019602483015283169063095ea7b3906044016020604051808303816000875af115801561117e573d6000803e3d6000fd5b505050506040513d601f19601f820116820180604052508101906111a291906116de565b505b95945050505050565b6060610f2960146111bf6003826119cf565b6111c991906119cf565b83516111d591906119e2565b60146111e26003826119cf565b610f2191906119cf565b60006112016001600160a01b0384168361146e565b9050805160001415801561122657508080602001905181019061122491906116de565b155b15610e7d57604051635274afe760e01b81526001600160a01b03841660048201526024016101f1565b600061125c8260146119cf565b835110156112a45760405162461bcd60e51b8152602060048201526015602482015274746f416464726573735f6f75744f66426f756e647360581b60448201526064016101f1565b500160200151600160601b900490565b6000816112c28160036119cf565b10156113045760405162461bcd60e51b8152602060048201526011602482015270746f55696e7432345f6f766572666c6f7760781b60448201526064016101f1565b61130f8260036119cf565b835110156113565760405162461bcd60e51b8152602060048201526014602482015273746f55696e7432345f6f75744f66426f756e647360601b60448201526064016101f1565b50016003015190565b60608161136d81601f6119cf565b10156113ac5760405162461bcd60e51b815260206004820152600e60248201526d736c6963655f6f766572666c6f7760901b60448201526064016101f1565b6113b682846119cf565b845110156113fa5760405162461bcd60e51b8152602060048201526011602482015270736c6963655f6f75744f66426f756e647360781b60448201526064016101f1565b6060821580156114195760405191506000825260208201604052611463565b6040519150601f8416801560200281840101858101878315602002848b0101015b8183101561145257805183526020928301920161143a565b5050858452601f01601f1916604052505b5090505b9392505050565b6060611467838360006060825160001415801561149357506001600160a01b0384163b155b156114bc57604051639eb1341360e01b81526001600160a01b03851660048201526024016101f1565b600080856001600160a01b031684866040516114d8919061165f565b60006040518083038185875af1925050503d8060008114611515576040519150601f19603f3d011682016040523d82523d6000602084013e61151a565b606091505b5091509150811561152e5791506114679050565b80511561153d57805160208201fd5b60405162461bcd60e51b815260206004820152600660248201526519985a5b195960d21b60448201526064016101f1565b6000610100828403121561158157600080fd5b50919050565b6000610100828403121561159a57600080fd5b611467838361156e565b6001600160a01b03811681146101fa57600080fd5b6000602082840312156115cb57600080fd5b8135611467816115a4565b600060a0828403121561158157600080fd5b6000602082840312156115fa57600080fd5b813567ffffffffffffffff81111561161157600080fd5b61161d848285016115d6565b949350505050565b634e487b7160e01b600052604160045260246000fd5b60005b8381101561165657818101518382015260200161163e565b50506000910152565b6000825161167181846020870161163b565b9190910192915050565b8035611686816115a4565b919050565b600081518084526116a381602086016020860161163b565b601f01601f19169290920160200192915050565b60018060a01b03841681528260208201526060604082015260006111a4606083018461168b565b6000602082840312156116f057600080fd5b8151801515811461146757600080fd5b60006020828403121561171257600080fd5b5051919050565b6000808335601e1984360301811261173057600080fd5b83018035915067ffffffffffffffff82111561174b57600080fd5b60200191503681900382131561176057600080fd5b9250929050565b60405160a0810167ffffffffffffffff8111828210171561178a5761178a611625565b60405290565b604051601f8201601f1916810167ffffffffffffffff811182821017156117b9576117b9611625565b604052919050565b600060a082360312156117d357600080fd5b6117db611767565b823567ffffffffffffffff808211156117f357600080fd5b9084019036601f83011261180657600080fd5b813560208282111561181a5761181a611625565b61182c601f8301601f19168201611790565b9250818352368183860101111561184257600080fd5b8181850182850137600081838501015282855261186081880161167b565b818601525050505060408301356040820152606083013560608201526080830135608082015280915050919050565b600060018060a01b038089168352808816602084015286604084015260c060608401526118bf60c084018761168b565b8381036080850152855160a082526118da60a083018261168b565b905082602088015116602083015260408701516040830152606087015160608301526080870151608083015280935050505082151560a0830152979650505050505050565b6001600160a01b03878116825260208201879052851660408201526060810184905260c0608082018190526000906119599083018561168b565b82810360a084015261196b818561168b565b9998505050505050505050565b6000806040838503121561198b57600080fd5b505080516020909101519092909150565b6000602082840312156119ae57600080fd5b8151611467816115a4565b634e487b7160e01b600052601160045260246000fd5b80820180821115610f2957610f296119b9565b81810381811115610f2957610f296119b956fea2646970667358221220f9746fb7993f60c1696510ba2b342ace3982f19e92d9116fc7f139af683c8cab64736f6c63430008150033",
  "devdoc": {
    "author": "Bernhard Ruf, bernhard@aktionariat.com ",
    "errors": {
      "Address_NotTransferNorContract(address)": [
        {
          "params": {
            "target": "Target address to call the function on."
          }
        }
      ],
      "SafeERC20FailedOperation(address)": [
        {
          "details": "An operation with an ERC20 token failed."
        }
      ]
    },
    "kind": "dev",
    "methods": {
      "exactInput((bytes,address,uint256,uint256,uint256))": {
        "params": {
          "params": "The parameters necessary for the multi-hop swap, encoded as `ExactInputParams` in calldata."
        },
        "returns": {
          "amountOut": "The amount of the received token"
        }
      },
      "exactInputSingle((address,address,uint24,address,uint256,uint256,uint256,uint160))": {
        "details": "Only use it for selling shares, else there will be no brokerbot found. Output can't be ETH you have to swap WETH to ETH on your integration.",
        "params": {
          "params": "The parameters necessary for the swap, encoded as `ExactInputSingleParams` in calldata."
        },
        "returns": {
          "amountOut": "The amountOut actually received."
        }
      },
      "exactOutput((bytes,address,uint256,uint256,uint256))": {
        "details": "If ETH is sent this function will try to swap ETH for share tokens directly and will ignore the path.",
        "params": {
          "params": "Params struct for swap. See @ISwapRouter for struct definition."
        },
        "returns": {
          "amountIn": "The amountIn actually spent."
        }
      },
      "exactOutputSingle((address,address,uint24,address,uint256,uint256,uint256,uint160))": {
        "details": "not usable to sell shares for excact output, as shares is not divisible (decimals is 0).Single swap with ETH works, but base currency address has to be provided as tokenIn.",
        "params": {
          "params": "Params struct for swap. See @ISwapRouter for struct definition."
        }
      },
      "refundETH()": {
        "details": "Remember to call this function if you make a swap with ETH."
      }
    },
    "title": "Brokerbot Swap Router",
    "version": 1
  },
  "userdoc": {
    "kind": "user",
    "methods": {
      "exactInput((bytes,address,uint256,uint256,uint256))": {
        "notice": "Sell `amountIn` of share tokens for as much as possible of another along the specified path."
      },
      "exactInputSingle((address,address,uint24,address,uint256,uint256,uint256,uint160))": {
        "notice": "Sell `amountIn` of share tokens for base currency."
      },
      "exactOutput((bytes,address,uint256,uint256,uint256))": {
        "notice": "Buy share tokens with any erc20 by given a uniswap routing path"
      },
      "exactOutputSingle((address,address,uint24,address,uint256,uint256,uint256,uint160))": {
        "notice": "Buy share tokens with base currency."
      }
    },
    "version": 1
  },
  "storageLayout": {
    "storage": [],
    "types": null
  }
}