{
  "address": "0xeEd97ae2285A6aE98c6050489404477862f067F7",
  "abi": [
    {
      "inputs": [
        {
          "internalType": "contract IERC20",
          "name": "_token",
          "type": "address"
        },
        {
          "internalType": "uint256",
          "name": "_price",
          "type": "uint256"
        },
        {
          "internalType": "uint256",
          "name": "_increment",
          "type": "uint256"
        },
        {
          "internalType": "contract IERC20",
          "name": "_base",
          "type": "address"
        },
        {
          "internalType": "address",
          "name": "_owner",
          "type": "address"
        },
        {
          "internalType": "address",
          "name": "_paymentHub",
          "type": "address"
        }
      ],
      "stateMutability": "nonpayable",
      "type": "constructor"
    },
    {
      "anonymous": false,
      "inputs": [
        {
          "indexed": false,
          "internalType": "uint256",
          "name": "timeToDrift",
          "type": "uint256"
        },
        {
          "indexed": false,
          "internalType": "int256",
          "name": "driftIncrement",
          "type": "int256"
        }
      ],
      "name": "DriftSet",
      "type": "event"
    },
    {
      "anonymous": false,
      "inputs": [
        {
          "indexed": true,
          "internalType": "address",
          "name": "previousOwner",
          "type": "address"
        },
        {
          "indexed": true,
          "internalType": "address",
          "name": "newOwner",
          "type": "address"
        }
      ],
      "name": "OwnershipTransferred",
      "type": "event"
    },
    {
      "anonymous": false,
      "inputs": [
        {
          "indexed": true,
          "internalType": "address",
          "name": "paymentHub",
          "type": "address"
        }
      ],
      "name": "PaymentHubUpdate",
      "type": "event"
    },
    {
      "anonymous": false,
      "inputs": [
        {
          "indexed": false,
          "internalType": "uint256",
          "name": "price",
          "type": "uint256"
        },
        {
          "indexed": false,
          "internalType": "uint256",
          "name": "increment",
          "type": "uint256"
        }
      ],
      "name": "PriceSet",
      "type": "event"
    },
    {
      "anonymous": false,
      "inputs": [
        {
          "indexed": false,
          "internalType": "uint256",
          "name": "setting",
          "type": "uint256"
        }
      ],
      "name": "SettingsChange",
      "type": "event"
    },
    {
      "anonymous": false,
      "inputs": [
        {
          "indexed": true,
          "internalType": "contract IERC20",
          "name": "token",
          "type": "address"
        },
        {
          "indexed": false,
          "internalType": "address",
          "name": "who",
          "type": "address"
        },
        {
          "indexed": false,
          "internalType": "bytes",
          "name": "ref",
          "type": "bytes"
        },
        {
          "indexed": false,
          "internalType": "int256",
          "name": "amount",
          "type": "int256"
        },
        {
          "indexed": false,
          "internalType": "contract IERC20",
          "name": "base",
          "type": "address"
        },
        {
          "indexed": false,
          "internalType": "uint256",
          "name": "totPrice",
          "type": "uint256"
        },
        {
          "indexed": false,
          "internalType": "uint256",
          "name": "fee",
          "type": "uint256"
        },
        {
          "indexed": false,
          "internalType": "uint256",
          "name": "newprice",
          "type": "uint256"
        }
      ],
      "name": "Trade",
      "type": "event"
    },
    {
      "inputs": [
        {
          "internalType": "address",
          "name": "erc20",
          "type": "address"
        },
        {
          "internalType": "address",
          "name": "who",
          "type": "address"
        },
        {
          "internalType": "uint256",
          "name": "amount",
          "type": "uint256"
        }
      ],
      "name": "approve",
      "outputs": [],
      "stateMutability": "nonpayable",
      "type": "function"
    },
    {
      "inputs": [],
      "name": "base",
      "outputs": [
        {
          "internalType": "contract IERC20",
          "name": "",
          "type": "address"
        }
      ],
      "stateMutability": "view",
      "type": "function"
    },
    {
      "inputs": [],
      "name": "driftIncrement",
      "outputs": [
        {
          "internalType": "int256",
          "name": "",
          "type": "int256"
        }
      ],
      "stateMutability": "view",
      "type": "function"
    },
    {
      "inputs": [],
      "name": "driftStart",
      "outputs": [
        {
          "internalType": "uint256",
          "name": "",
          "type": "uint256"
        }
      ],
      "stateMutability": "view",
      "type": "function"
    },
    {
      "inputs": [
        {
          "internalType": "uint256",
          "name": "shares",
          "type": "uint256"
        }
      ],
      "name": "getBuyPrice",
      "outputs": [
        {
          "internalType": "uint256",
          "name": "",
          "type": "uint256"
        }
      ],
      "stateMutability": "view",
      "type": "function"
    },
    {
      "inputs": [],
      "name": "getPrice",
      "outputs": [
        {
          "internalType": "uint256",
          "name": "",
          "type": "uint256"
        }
      ],
      "stateMutability": "view",
      "type": "function"
    },
    {
      "inputs": [
        {
          "internalType": "uint256",
          "name": "timestamp",
          "type": "uint256"
        }
      ],
      "name": "getPriceAtTime",
      "outputs": [
        {
          "internalType": "uint256",
          "name": "",
          "type": "uint256"
        }
      ],
      "stateMutability": "view",
      "type": "function"
    },
    {
      "inputs": [
        {
          "internalType": "uint256",
          "name": "shares",
          "type": "uint256"
        }
      ],
      "name": "getSellPrice",
      "outputs": [
        {
          "internalType": "uint256",
          "name": "",
          "type": "uint256"
        }
      ],
      "stateMutability": "view",
      "type": "function"
    },
    {
      "inputs": [
        {
          "internalType": "uint256",
          "name": "money",
          "type": "uint256"
        }
      ],
      "name": "getShares",
      "outputs": [
        {
          "internalType": "uint256",
          "name": "",
          "type": "uint256"
        }
      ],
      "stateMutability": "view",
      "type": "function"
    },
    {
      "inputs": [],
      "name": "hasDrift",
      "outputs": [
        {
          "internalType": "bool",
          "name": "",
          "type": "bool"
        }
      ],
      "stateMutability": "view",
      "type": "function"
    },
    {
      "inputs": [],
      "name": "increment",
      "outputs": [
        {
          "internalType": "uint256",
          "name": "",
          "type": "uint256"
        }
      ],
      "stateMutability": "view",
      "type": "function"
    },
    {
      "inputs": [
        {
          "internalType": "address",
          "name": "buyer",
          "type": "address"
        },
        {
          "internalType": "uint256",
          "name": "shares",
          "type": "uint256"
        },
        {
          "internalType": "bytes",
          "name": "ref",
          "type": "bytes"
        }
      ],
      "name": "notifyTrade",
      "outputs": [],
      "stateMutability": "nonpayable",
      "type": "function"
    },
    {
      "inputs": [
        {
          "internalType": "address",
          "name": "buyer",
          "type": "address"
        },
        {
          "internalType": "uint256",
          "name": "shares",
          "type": "uint256"
        },
        {
          "internalType": "bytes",
          "name": "ref",
          "type": "bytes"
        }
      ],
      "name": "notifyTradeAndTransfer",
      "outputs": [],
      "stateMutability": "nonpayable",
      "type": "function"
    },
    {
      "inputs": [
        {
          "internalType": "address[]",
          "name": "buyers",
          "type": "address[]"
        },
        {
          "internalType": "uint256[]",
          "name": "shares",
          "type": "uint256[]"
        },
        {
          "internalType": "bytes[]",
          "name": "ref",
          "type": "bytes[]"
        }
      ],
      "name": "notifyTrades",
      "outputs": [],
      "stateMutability": "nonpayable",
      "type": "function"
    },
    {
      "inputs": [
        {
          "internalType": "address[]",
          "name": "buyers",
          "type": "address[]"
        },
        {
          "internalType": "uint256[]",
          "name": "shares",
          "type": "uint256[]"
        },
        {
          "internalType": "bytes[]",
          "name": "ref",
          "type": "bytes[]"
        }
      ],
      "name": "notifyTradesAndTransfer",
      "outputs": [],
      "stateMutability": "nonpayable",
      "type": "function"
    },
    {
      "inputs": [
        {
          "internalType": "address",
          "name": "from",
          "type": "address"
        },
        {
          "internalType": "uint256",
          "name": "amount",
          "type": "uint256"
        },
        {
          "internalType": "bytes",
          "name": "ref",
          "type": "bytes"
        }
      ],
      "name": "onTokenTransfer",
      "outputs": [
        {
          "internalType": "bool",
          "name": "",
          "type": "bool"
        }
      ],
      "stateMutability": "nonpayable",
      "type": "function"
    },
    {
      "inputs": [],
      "name": "owner",
      "outputs": [
        {
          "internalType": "address",
          "name": "",
          "type": "address"
        }
      ],
      "stateMutability": "view",
      "type": "function"
    },
    {
      "inputs": [],
      "name": "paymenthub",
      "outputs": [
        {
          "internalType": "address",
          "name": "",
          "type": "address"
        }
      ],
      "stateMutability": "view",
      "type": "function"
    },
    {
      "inputs": [
        {
          "internalType": "contract IERC20",
          "name": "incomingAsset",
          "type": "address"
        },
        {
          "internalType": "address",
          "name": "from",
          "type": "address"
        },
        {
          "internalType": "uint256",
          "name": "amount",
          "type": "uint256"
        },
        {
          "internalType": "bytes",
          "name": "ref",
          "type": "bytes"
        }
      ],
      "name": "processIncoming",
      "outputs": [
        {
          "internalType": "uint256",
          "name": "",
          "type": "uint256"
        }
      ],
      "stateMutability": "payable",
      "type": "function"
    },
    {
      "inputs": [
        {
          "internalType": "uint256",
          "name": "secondsPerStep",
          "type": "uint256"
        },
        {
          "internalType": "int256",
          "name": "_driftIncrement",
          "type": "int256"
        }
      ],
      "name": "setDrift",
      "outputs": [],
      "stateMutability": "nonpayable",
      "type": "function"
    },
    {
      "inputs": [
        {
          "internalType": "bool",
          "name": "_buyingEnabled",
          "type": "bool"
        },
        {
          "internalType": "bool",
          "name": "_sellingEnabled",
          "type": "bool"
        }
      ],
      "name": "setEnabled",
      "outputs": [],
      "stateMutability": "nonpayable",
      "type": "function"
    },
    {
      "inputs": [
        {
          "internalType": "address",
          "name": "hub",
          "type": "address"
        }
      ],
      "name": "setPaymentHub",
      "outputs": [],
      "stateMutability": "nonpayable",
      "type": "function"
    },
    {
      "inputs": [
        {
          "internalType": "uint256",
          "name": "_price",
          "type": "uint256"
        },
        {
          "internalType": "uint256",
          "name": "_increment",
          "type": "uint256"
        }
      ],
      "name": "setPrice",
      "outputs": [],
      "stateMutability": "nonpayable",
      "type": "function"
    },
    {
      "inputs": [
        {
          "internalType": "uint256",
          "name": "_settings",
          "type": "uint256"
        }
      ],
      "name": "setSettings",
      "outputs": [],
      "stateMutability": "nonpayable",
      "type": "function"
    },
    {
      "inputs": [],
      "name": "settings",
      "outputs": [
        {
          "internalType": "uint256",
          "name": "",
          "type": "uint256"
        }
      ],
      "stateMutability": "view",
      "type": "function"
    },
    {
      "inputs": [],
      "name": "timeToDrift",
      "outputs": [
        {
          "internalType": "uint256",
          "name": "",
          "type": "uint256"
        }
      ],
      "stateMutability": "view",
      "type": "function"
    },
    {
      "inputs": [],
      "name": "token",
      "outputs": [
        {
          "internalType": "contract IERC20",
          "name": "",
          "type": "address"
        }
      ],
      "stateMutability": "view",
      "type": "function"
    },
    {
      "inputs": [
        {
          "internalType": "address",
          "name": "newOwner",
          "type": "address"
        }
      ],
      "name": "transferOwnership",
      "outputs": [],
      "stateMutability": "nonpayable",
      "type": "function"
    },
    {
      "inputs": [
        {
          "internalType": "address",
          "name": "ercAddress",
          "type": "address"
        },
        {
          "internalType": "address",
          "name": "to",
          "type": "address"
        },
        {
          "internalType": "uint256",
          "name": "amount",
          "type": "uint256"
        }
      ],
      "name": "withdraw",
      "outputs": [],
      "stateMutability": "nonpayable",
      "type": "function"
    },
    {
      "inputs": [
        {
          "internalType": "uint256",
          "name": "amount",
          "type": "uint256"
        }
      ],
      "name": "withdrawEther",
      "outputs": [],
      "stateMutability": "nonpayable",
      "type": "function"
    }
  ],
  "transactionHash": "0xe8d4f49c6679bd5defa38ed3234bc92e02268d584df04bfcab17ab97dca51da1",
  "args": [
    "0xE4294c9698ca44F244575185E669BdB447DaF2E5",
    "10000000000000000",
    10,
    "0xE4F27b04cC7729901876B44f4EAA5102EC150265",
    "0xc87EB78E1E64d0604bcD9C7EF0F691316943C7d7",
    "0xD5608dEe5F0ed1A09B5cC3FEbB9B3Fc48e68057d"
  ],
  "numDeployments": 3,
  "solcInputHash": "6f144dc76d70c194e9110ed3cc8bb233",
  "bytecode": "0x60c060405260036007553480156200001657600080fd5b5060405162001c7c38038062001c7c8339810160408190526200003991620000d7565b600080546001600160a01b0319166001600160a01b03841690811782556040518492907f8be0079c531659141344cd1fd0a4f28419497f9722a3daafe3b4186f6b6457e0908290a3506001600160a01b0392831660805294821660a05250600292909255600355600180546001600160a01b0319169290911691909117905562000154565b6001600160a01b0381168114620000d457600080fd5b50565b60008060008060008060c08789031215620000f157600080fd5b8651620000fe81620000be565b80965050602087015194506040870151935060608701516200012081620000be565b60808801519093506200013381620000be565b60a08801519092506200014681620000be565b809150509295509295509295565b60805160a051611abc620001c06000396000818161053e0152818161077b01528181610b2e0152818161111c015281816112ff01526113ae015260008181610239015281816107c80152818161104d0152818161116b0152818161123801526113f50152611abc6000f3fe6080604052600436106101cd5760003560e01c8063a4c0ed36116100f7578063d9caed1211610095578063f7d9757711610064578063f7d975771461050c578063fc0c546a1461052c578063fff4da1f14610560578063fff897451461058057600080fd5b8063d9caed1214610496578063e06174e4146104b6578063e1f21c67146104cc578063f2fde38b146104ec57600080fd5b8063ba730e53116100d1578063ba730e531461042a578063bf13d4381461044a578063c7780ab21461046a578063d09de08a1461048057600080fd5b8063a4c0ed36146103ca578063afaefe9e146103ea578063b03a13fe1461040a57600080fd5b80637cd6a7fd1161016f5780638da5cb5b1161013e5780638da5cb5b1461035557806391be6ad51461037557806398d5fdca146103955780639bb8c0fd146103aa57600080fd5b80637cd6a7fd146102e65780637ff6c1911461030657806384b41fda1461031c5780638a07d3d01461033257600080fd5b80635c627935116101ab5780635c6279351461027357806369365c52146102935780636f7267b7146102a6578063777adcf0146102c657600080fd5b806308d4db14146101d25780633bed33ce146102055780635001f3b514610227575b600080fd5b3480156101de57600080fd5b506101f26101ed366004611506565b6105a0565b6040519081526020015b60405180910390f35b34801561021157600080fd5b50610225610220366004611506565b6105b9565b005b34801561023357600080fd5b5061025b7f000000000000000000000000000000000000000000000000000000000000000081565b6040516001600160a01b0390911681526020016101fc565b34801561027f57600080fd5b5061022561028e366004611530565b6106b0565b6101f26102a13660046115c7565b610719565b3480156102b257600080fd5b506101f26102c1366004611506565b61084d565b3480156102d257600080fd5b5060015461025b906001600160a01b031681565b3480156102f257600080fd5b50610225610301366004611506565b6108c7565b34801561031257600080fd5b506101f260045481565b34801561032857600080fd5b506101f260055481565b34801561033e57600080fd5b5060055415155b60405190151581526020016101fc565b34801561036157600080fd5b5060005461025b906001600160a01b031681565b34801561038157600080fd5b5061022561039036600461167f565b61092c565b3480156103a157600080fd5b506101f26109e3565b3480156103b657600080fd5b506102256103c5366004611719565b6109f3565b3480156103d657600080fd5b506103456103e5366004611719565b610a30565b3480156103f657600080fd5b50610225610405366004611775565b610a4b565b34801561041657600080fd5b50610225610425366004611719565b610ad1565b34801561043657600080fd5b506101f2610445366004611506565b610b9b565b34801561045657600080fd5b506101f2610465366004611506565b610bc0565b34801561047657600080fd5b506101f260065481565b34801561048c57600080fd5b506101f260035481565b3480156104a257600080fd5b506102256104b1366004611797565b610c39565b3480156104c257600080fd5b506101f260075481565b3480156104d857600080fd5b506102256104e7366004611797565b610d16565b3480156104f857600080fd5b506102256105073660046117d8565b610d75565b34801561051857600080fd5b50610225610527366004611775565b610dfa565b34801561053857600080fd5b5061025b7f000000000000000000000000000000000000000000000000000000000000000081565b34801561056c57600080fd5b5061022561057b3660046117d8565b610e6c565b34801561058c57600080fd5b5061022561059b36600461167f565b610ee0565b60006105b36105ad6109e3565b83610f94565b92915050565b6000546001600160a01b03163314806105dc57506001546001600160a01b031633145b6106215760405162461bcd60e51b81526020600482015260116024820152703737ba1037bbb732b9103737b910343ab160791b60448201526064015b60405180910390fd5b604051600090339083908381818185875af1925050503d8060008114610663576040519150601f19603f3d011682016040523d82523d6000602084013e610668565b606091505b50509050806106ac5760405162461bcd60e51b815260206004820152601060248201526f2a3930b739b332b9103330b4b632b21760811b6044820152606401610618565b5050565b6000546001600160a01b031633146106da5760405162461bcd60e51b8152600401610618906117fc565b600754821515600180831614146106ef576001185b6106fd600260075481161490565b15158215151461070b576002185b610714816108c7565b505050565b6000336001600160a01b038716148061073c57506001546001600160a01b031633145b6107795760405162461bcd60e51b815260206004820152600e60248201526d34b73b30b634b21031b0b63632b960911b6044820152606401610618565b7f00000000000000000000000000000000000000000000000000000000000000006001600160a01b0316866001600160a01b031614156107c6576107bf85858585610feb565b9050610844565b7f00000000000000000000000000000000000000000000000000000000000000006001600160a01b0316866001600160a01b0316141561080c576107bf858585856111bb565b60405162461bcd60e51b815260206004820152600d60248201526c34b73b30b634b2103a37b5b2b760991b6044820152606401610618565b95945050505050565b6000806108586109e3565b90506000806108678386611835565b90505b808210156108bf57600060026108808385611857565b61088a9190611835565b905060006108988583610f94565b9050808711156108b4576108ad826001611857565b93506108b8565b8192505b505061086a565b509392505050565b6000546001600160a01b031633146108f15760405162461bcd60e51b8152600401610618906117fc565b60078190556040518181527f73f575b434990a047744d035619e8cb101d71ae30e15cee70124fcfa992a4b479060200160405180910390a150565b6000546001600160a01b031633146109565760405162461bcd60e51b8152600401610618906117fc565b60005b858110156109da576109c88787838181106109765761097661186f565b905060200201602081019061098b91906117d8565b86868481811061099d5761099d61186f565b905060200201358585858181106109b6576109b661186f565b90506020028101906104259190611885565b806109d2816118cc565b915050610959565b50505050505050565b60006109ee42610bc0565b905090565b6000546001600160a01b03163314610a1d5760405162461bcd60e51b8152600401610618906117fc565b610a2984848484611378565b5050505050565b6000610a3f3386868686610719565b50600195945050505050565b6000546001600160a01b03163314610a755760405162461bcd60e51b8152600401610618906117fc565b610a89610a806109e3565b60025542600455565b6005829055600681905560408051838152602081018390527f0c64990ff5fa601870b48aa83367706d39e6f55a0f73069c97c2f9c08241a17e91015b60405180910390a15050565b6000546001600160a01b03163314610afb5760405162461bcd60e51b8152600401610618906117fc565b610b0784848484611378565b5060405163a9059cbb60e01b81526001600160a01b038581166004830152602482018590527f0000000000000000000000000000000000000000000000000000000000000000169063a9059cbb906044016020604051808303816000875af1158015610b77573d6000803e3d6000fd5b505050506040513d601f19601f82011682018060405250810190610a2991906118e7565b60006105b360035483610bae9190611904565b610bb66109e3565b6105ad9190611923565b6000610bcd600554151590565b15610c3157600060045483610be29190611923565b9050600060065460055483610bf79190611835565b610c01919061193a565b9050600081600254610c1391906119bf565b90506000811215610c2957506000949350505050565b949350505050565b505060025490565b6000546001600160a01b0316331480610c5c57506001546001600160a01b031633145b610c9c5760405162461bcd60e51b81526020600482015260116024820152703737ba1037bbb732b9103737b910343ab160791b6044820152606401610618565b60405163a9059cbb60e01b81526001600160a01b0383811660048301526024820183905284169063a9059cbb906044015b6020604051808303816000875af1158015610cec573d6000803e3d6000fd5b505050506040513d601f19601f82011682018060405250810190610d1091906118e7565b50505050565b6000546001600160a01b03163314610d405760405162461bcd60e51b8152600401610618906117fc565b60405163095ea7b360e01b81526001600160a01b0383811660048301526024820183905284169063095ea7b390604401610ccd565b6000546001600160a01b03163314610d9f5760405162461bcd60e51b8152600401610618906117fc565b600080546040516001600160a01b03808516939216917f8be0079c531659141344cd1fd0a4f28419497f9722a3daafe3b4186f6b6457e091a3600080546001600160a01b0319166001600160a01b0392909216919091179055565b6000546001600160a01b03163314610e245760405162461bcd60e51b8152600401610618906117fc565b610e318260025542600455565b600381905560408051838152602081018390527fa0f1665b7b659537b52deec61ea64d134a3bccda74c7f4e79f2246e7a8187a8a9101610ac5565b6000546001600160a01b03163314610e965760405162461bcd60e51b8152600401610618906117fc565b600180546001600160a01b0319166001600160a01b0383169081179091556040517f4a534dbb0a1201b9baddbb0018d195c269a25847c33b19c06d24309f20f84b3390600090a250565b6000546001600160a01b03163314610f0a5760405162461bcd60e51b8152600401610618906117fc565b60005b858110156109da57610f81878783818110610f2a57610f2a61186f565b9050602002016020810190610f3f91906117d8565b868684818110610f5157610f5161186f565b90506020020135858585818110610f6a57610f6a61186f565b9050602002810190610f7c9190611885565b611378565b5080610f8c816118cc565b915050610f0d565b600081610fa3575060006105b3565b600354600090610fb4600185611923565b610fbe9190611904565b610fc89085611857565b9050826002610fd78387611857565b610fe19190611835565b610c299190611904565b6000610ffb600260075481161490565b61103a5760405162461bcd60e51b815260206004820152601060248201526f1cd95b1b1a5b99c8191a5cd8589b195960821b6044820152606401610618565b600061104585610b9b565b6003549091507f0000000000000000000000000000000000000000000000000000000000000000906110779087611904565b600260008282546110889190611923565b9091555061109890508585611444565b156111125760405163a9059cbb60e01b81526001600160a01b0388811660048301526024820184905282169063a9059cbb906044016020604051808303816000875af11580156110ec573d6000803e3d6000fd5b505050506040513d601f19601f8201168201806040525081019061111091906118e7565b505b6001600160a01b037f0000000000000000000000000000000000000000000000000000000000000000167f424641a08047715d4b70195e1d90818d302683d9f65f41910ca13f5a486d37cc8887876111698b611a00565b7f00000000000000000000000000000000000000000000000000000000000000008860006111956109e3565b6040516111a9989796959493929190611a1d565b60405180910390a25095945050505050565b60006111cb600160075481161490565b6112095760405162461bcd60e51b815260206004820152600f60248201526e189d5e5a5b99c8191a5cd8589b1959608a1b6044820152606401610618565b60006112148561084d565b9050600061122487838787611378565b9050858110156112d9576001600160a01b037f00000000000000000000000000000000000000000000000000000000000000001663a9059cbb88611268848a611923565b6040516001600160e01b031960e085901b1681526001600160a01b03909216600483015260248201526044016020604051808303816000875af11580156112b3573d6000803e3d6000fd5b505050506040513d601f19601f820116820180604052508101906112d791906118e7565b505b60405163a9059cbb60e01b81526001600160a01b038881166004830152602482018490527f0000000000000000000000000000000000000000000000000000000000000000169063a9059cbb906044016020604051808303816000875af1158015611348573d6000803e3d6000fd5b505050506040513d601f19601f8201168201806040525081019061136c91906118e7565b50909695505050505050565b600080611384856105a0565b9050600354856113949190611904565b6002546113a19190611857565b6002556001600160a01b037f0000000000000000000000000000000000000000000000000000000000000000167f424641a08047715d4b70195e1d90818d302683d9f65f41910ca13f5a486d37cc878686897f000000000000000000000000000000000000000000000000000000000000000087600061141f6109e3565b604051611433989796959493929190611a1d565b60405180910390a295945050505050565b60008115806114535750601482145b15611460575060016105b3565b600160f81b83836000816114765761147661186f565b9050013560f81c60f81b6001600160f81b0319161415611498575060016105b3565b600160f91b83836000816114ae576114ae61186f565b9050013560f81c60f81b6001600160f81b03191614156114d0575060006105b3565b60405162461bcd60e51b815260206004820152600b60248201526a3ab735b737bbb7103932b360a91b6044820152606401610618565b60006020828403121561151857600080fd5b5035919050565b801515811461152d57600080fd5b50565b6000806040838503121561154357600080fd5b823561154e8161151f565b9150602083013561155e8161151f565b809150509250929050565b6001600160a01b038116811461152d57600080fd5b60008083601f84011261159057600080fd5b50813567ffffffffffffffff8111156115a857600080fd5b6020830191508360208285010111156115c057600080fd5b9250929050565b6000806000806000608086880312156115df57600080fd5b85356115ea81611569565b945060208601356115fa81611569565b935060408601359250606086013567ffffffffffffffff81111561161d57600080fd5b6116298882890161157e565b969995985093965092949392505050565b60008083601f84011261164c57600080fd5b50813567ffffffffffffffff81111561166457600080fd5b6020830191508360208260051b85010111156115c057600080fd5b6000806000806000806060878903121561169857600080fd5b863567ffffffffffffffff808211156116b057600080fd5b6116bc8a838b0161163a565b909850965060208901359150808211156116d557600080fd5b6116e18a838b0161163a565b909650945060408901359150808211156116fa57600080fd5b5061170789828a0161163a565b979a9699509497509295939492505050565b6000806000806060858703121561172f57600080fd5b843561173a81611569565b935060208501359250604085013567ffffffffffffffff81111561175d57600080fd5b6117698782880161157e565b95989497509550505050565b6000806040838503121561178857600080fd5b50508035926020909101359150565b6000806000606084860312156117ac57600080fd5b83356117b781611569565b925060208401356117c781611569565b929592945050506040919091013590565b6000602082840312156117ea57600080fd5b81356117f581611569565b9392505050565b6020808252600990820152683737ba1037bbb732b960b91b604082015260600190565b634e487b7160e01b600052601160045260246000fd5b60008261185257634e487b7160e01b600052601260045260246000fd5b500490565b6000821982111561186a5761186a61181f565b500190565b634e487b7160e01b600052603260045260246000fd5b6000808335601e1984360301811261189c57600080fd5b83018035915067ffffffffffffffff8211156118b757600080fd5b6020019150368190038213156115c057600080fd5b60006000198214156118e0576118e061181f565b5060010190565b6000602082840312156118f957600080fd5b81516117f58161151f565b600081600019048311821515161561191e5761191e61181f565b500290565b6000828210156119355761193561181f565b500390565b60006001600160ff1b03818413828413808216868404861116156119605761196061181f565b600160ff1b600087128281168783058912161561197f5761197f61181f565b6000871292508782058712848416161561199b5761199b61181f565b878505871281841616156119b1576119b161181f565b505050929093029392505050565b600080821280156001600160ff1b03849003851316156119e1576119e161181f565b600160ff1b83900384128116156119fa576119fa61181f565b50500190565b6000600160ff1b821415611a1657611a1661181f565b5060000390565b6001600160a01b03898116825260e0602083018190528201889052600090610100898b828601376000848b018201526040840198909852959095166060820152608081019390935260a083019190915260c0820152601f909301601f191690920101939250505056fea26469706673582212209499f789e6de05a2adb1d2b72712c3910477515e57731c06a93bb11a0f08652864736f6c634300080c0033",
  "devdoc": {
    "kind": "dev",
    "methods": {
      "transferOwnership(address)": {
        "details": "Transfers ownership of the contract to a new account (`newOwner`). Can only be called by the current owner."
      }
    },
    "version": 1
  },
  "userdoc": {
    "kind": "user",
    "methods": {
      "processIncoming(address,address,uint256,bytes)": {
        "notice": "Payment hub might actually have sent another accepted token, including Ether."
      }
    },
    "version": 1
  },
  "storageLayout": {
    "storage": [
      {
        "astId": 7571,
        "contract": "src/brokerbot/Brokerbot.sol:Brokerbot",
        "label": "owner",
        "offset": 0,
        "slot": "0",
        "type": "t_address"
      },
      {
        "astId": 2257,
        "contract": "src/brokerbot/Brokerbot.sol:Brokerbot",
        "label": "paymenthub",
        "offset": 0,
        "slot": "1",
        "type": "t_address"
      },
      {
        "astId": 2266,
        "contract": "src/brokerbot/Brokerbot.sol:Brokerbot",
        "label": "price",
        "offset": 0,
        "slot": "2",
        "type": "t_uint256"
      },
      {
        "astId": 2268,
        "contract": "src/brokerbot/Brokerbot.sol:Brokerbot",
        "label": "increment",
        "offset": 0,
        "slot": "3",
        "type": "t_uint256"
      },
      {
        "astId": 2270,
        "contract": "src/brokerbot/Brokerbot.sol:Brokerbot",
        "label": "driftStart",
        "offset": 0,
        "slot": "4",
        "type": "t_uint256"
      },
      {
        "astId": 2272,
        "contract": "src/brokerbot/Brokerbot.sol:Brokerbot",
        "label": "timeToDrift",
        "offset": 0,
        "slot": "5",
        "type": "t_uint256"
      },
      {
        "astId": 2274,
        "contract": "src/brokerbot/Brokerbot.sol:Brokerbot",
        "label": "driftIncrement",
        "offset": 0,
        "slot": "6",
        "type": "t_int256"
      },
      {
        "astId": 2297,
        "contract": "src/brokerbot/Brokerbot.sol:Brokerbot",
        "label": "settings",
        "offset": 0,
        "slot": "7",
        "type": "t_uint256"
      }
    ],
    "types": {
      "t_address": {
        "encoding": "inplace",
        "label": "address",
        "numberOfBytes": "20"
      },
      "t_int256": {
        "encoding": "inplace",
        "label": "int256",
        "numberOfBytes": "32"
      },
      "t_uint256": {
        "encoding": "inplace",
        "label": "uint256",
        "numberOfBytes": "32"
      }
    }
  }
}