{
  "address": "0xc54eF2F60f3f7d88A3Fa0061f8915A97C54E682E",
  "abi": [
    {
      "inputs": [
        {
          "internalType": "bytes32",
          "name": "salt",
          "type": "bytes32"
        },
        {
          "internalType": "address",
          "name": "buyer",
          "type": "address"
        },
        {
          "internalType": "uint256",
          "name": "pricePerShare",
          "type": "uint256"
        },
        {
          "internalType": "contract IERC20",
          "name": "currency",
          "type": "address"
        },
        {
          "internalType": "uint256",
          "name": "quorum",
          "type": "uint256"
        },
        {
          "internalType": "uint256",
          "name": "votePeriod",
          "type": "uint256"
        }
      ],
      "name": "create",
      "outputs": [
        {
          "internalType": "contract IOffer",
          "name": "",
          "type": "address"
        }
      ],
      "stateMutability": "payable",
      "type": "function"
    },
    {
      "inputs": [
        {
          "internalType": "bytes32",
          "name": "salt",
          "type": "bytes32"
        },
        {
          "internalType": "address",
          "name": "buyer",
          "type": "address"
        },
        {
          "internalType": "contract IDraggable",
          "name": "token",
          "type": "address"
        },
        {
          "internalType": "uint256",
          "name": "pricePerShare",
          "type": "uint256"
        },
        {
          "internalType": "contract IERC20",
          "name": "currency",
          "type": "address"
        },
        {
          "internalType": "uint256",
          "name": "quorum",
          "type": "uint256"
        },
        {
          "internalType": "uint256",
          "name": "votePeriod",
          "type": "uint256"
        }
      ],
      "name": "predictOfferAddress",
      "outputs": [
        {
          "internalType": "address",
          "name": "",
          "type": "address"
        }
      ],
      "stateMutability": "view",
      "type": "function"
    }
  ],
  "transactionHash": "0xa77bcbd5408897cdc39a39c216d0062a15d9e32c197e84777d57778b1c86e615",
  "args": [],
  "numDeployments": 4,
  "solcInputHash": "b990f9c08255a0e5013de4b5b0baf045",
  "bytecode": "0x608060405234801561000f575f80fd5b50611e668061001d5f395ff3fe608060405260043610610028575f3560e01c8063452784bc1461002c5780634dc5e43114610067575b5f80fd5b348015610037575f80fd5b5061004b6100463660046101bf565b61007a565b6040516001600160a01b03909116815260200160405180910390f35b61004b61007536600461022b565b61014a565b5f806040518060200161008c9061019b565b601f1982820381018352601f9091011660408190526100b9908a908a908a908a908a908a90602001610283565b60408051601f19818403018152908290526100d792916020016102ea565b60408051601f1981840301815282825280516020918201206001600160f81b0319828501523060601b6bffffffffffffffffffffffff19166021850152603584019c909c5260558084019c909c528151808403909c018c5260759092019052895199019890982098975050505050505050565b5f803488908833898989896040516101619061019b565b61017096959493929190610283565b82906040518091039083f59150508015801561018e573d5f803e3d5ffd5b5098975050505050505050565b611b2a8061030783390190565b6001600160a01b03811681146101bc575f80fd5b50565b5f805f805f805f60e0888a0312156101d5575f80fd5b8735965060208801356101e7816101a8565b955060408801356101f7816101a8565b945060608801359350608088013561020e816101a8565b9699959850939692959460a0840135945060c09093013592915050565b5f805f805f8060c08789031215610240575f80fd5b863595506020870135610252816101a8565b9450604087013593506060870135610269816101a8565b9598949750929560808101359460a0909101359350915050565b6001600160a01b0396871681529486166020860152604085019390935293166060830152608082019290925260a081019190915260c00190565b5f81515f5b818110156102dc57602081850181015186830152016102c2565b505f93019283525090919050565b5f6102fe6102f883866102bd565b846102bd565b94935050505056fe61014060405260405162001b2a38038062001b2a833981016040819052620000279162000108565b6001600160a01b0380871660c05285811660a052831660e052610100849052608082905262000057814262000174565b610120526040518481526001600160a01b0380851691878216918916907f4f05be72ad7f57c27e555ace8452f56d8b1e82c9e6e1cd4fd282f34518b7729a9060200160405180910390a46040517329fe8914e76da5ce2d90de98a64d0055f199d06d905f906729a2241af62c00009082818181858883f19350505050158015620000e3573d5f803e3d5ffd5b505050505050506200019a565b6001600160a01b038116811462000105575f80fd5b50565b5f805f805f8060c087890312156200011e575f80fd5b86516200012b81620000f0565b60208801519096506200013e81620000f0565b6040880151606089015191965094506200015881620000f0565b809350506080870151915060a087015190509295509295509295565b808201808211156200019457634e487b7160e01b5f52601160045260245ffd5b92915050565b60805160a05160c05160e0516101005161012051611861620002c95f395f81816102e501528181610ec301526114d501525f818161029001528181610cfd01528181610d310152610f5c01525f8181610327015281816103df0152818161060a015281816106b10152610dcf01525f8181610221015281816103b3015281816105850152818161062c0152818161068901528181610bfa01528181610f1001528181611261015261133201525f818161037a015281816104b10152818161064d015281816106d901528181610780015281816108a00152818161094b015281816109ce01528181610ae001528181610c4e01528181610f3a015281816110c80152818161114d01526112bb01525f81816101ac0152818161053501528181610806015261086201526118615ff3fe608060405234801561000f575f80fd5b5060043610610187575f3560e01c8063a035b1fe116100d9578063e3ac83da11610093578063f6c8c41e1161006e578063f6c8c41e14610351578063fa7f1bae14610364578063fb286c651461036c578063fc0c546a14610375575f80fd5b8063e3ac83da1461031a578063e5a6b10f14610322578063ea8a1af014610349575f80fd5b8063a035b1fe1461028b578063a5e0035a146102b2578063b5b47f42146102c4578063bd3bc1d3146102cd578063ddbe8f09146102e0578063e1a1810f14610307575f80fd5b80635051a5ec116101445780638f1b4c6f1161011f5780638f1b4c6f1461025b5780638fe8a1011461026e57806390cf581c1461027b5780639b4e88aa14610283575f80fd5b80635051a5ec1461020c57806361461954146102145780637150d8ae1461021c575f80fd5b806311a439a01461018b5780631703a018146101a7578063354e5629146101ce5780633f5e3e7f146101d757806341c12a70146101ef578063448ab4c6146101f9575b5f80fd5b61019460045481565b6040519081526020015b60405180910390f35b6101947f000000000000000000000000000000000000000000000000000000000000000081565b61019460035481565b6101df61039c565b604051901515815260200161019e565b6101f761045e565b005b6101df610207366004611684565b61046a565b6101df6104a1565b6101f7610580565b6102437f000000000000000000000000000000000000000000000000000000000000000081565b6040516001600160a01b03909116815260200161019e565b6101df610269366004611684565b61075d565b6005546101df9060ff1681565b6101f7610765565b6101df61076f565b6101947f000000000000000000000000000000000000000000000000000000000000000081565b6005546101df90610100900460ff1681565b61019460025481565b6101f76102db36600461169f565b61089b565b6101947f000000000000000000000000000000000000000000000000000000000000000081565b6101f76103153660046116bf565b610adb565b6101f7610b4d565b6102437f000000000000000000000000000000000000000000000000000000000000000081565b6101f7610bf5565b6101f761035f366004611684565b610c49565b6101df610ec0565b61019460015481565b6102437f000000000000000000000000000000000000000000000000000000000000000081565b6040516370a0823160e01b81526001600160a01b037f0000000000000000000000000000000000000000000000000000000000000000811660048301525f9182917f000000000000000000000000000000000000000000000000000000000000000016906370a0823190602401602060405180830381865afa158015610424573d5f803e3d5ffd5b505050506040513d601f19601f8201168201806040525081019061044891906116fd565b90505f610453610ef9565b919091111592915050565b6104686002611042565b565b5f60015b6001600160a01b0383165f9081526020819052604090205460ff16600281111561049a5761049a611714565b1492915050565b5f6104aa610ec0565b15610570577f00000000000000000000000000000000000000000000000000000000000000006001600160a01b0316630a81b2de6040518163ffffffff1660e01b8152600401602060405180830381865afa15801561050b573d5f803e3d5ffd5b505050506040513d601f19601f8201168201806040525081019061052f91906116fd565b610559907f000000000000000000000000000000000000000000000000000000000000000061173c565b612710600154610569919061173c565b1015905090565b60025460015461052f9190611753565b6105a97f00000000000000000000000000000000000000000000000000000000000000006111bc565b60055460ff16156105cd5760405163284489e360e11b815260040160405180910390fd5b6105d56104a1565b6105f25760405163d652cf2960e01b815260040160405180910390fd5b5f6105fb610ef9565b90506106726001600160a01b037f0000000000000000000000000000000000000000000000000000000000000000167f00000000000000000000000000000000000000000000000000000000000000007f0000000000000000000000000000000000000000000000000000000000000000846111e7565b604051637e5bcd3f60e11b81526001600160a01b037f0000000000000000000000000000000000000000000000000000000000000000811660048301527f0000000000000000000000000000000000000000000000000000000000000000811660248301527f0000000000000000000000000000000000000000000000000000000000000000169063fcb79a7e906044015f604051808303815f87803b15801561071a575f80fd5b505af115801561072c573d5f803e3d5ffd5b5050505061075a6001604051806040016040528060078152602001667375636365737360c81b815250611247565b50565b5f600261046e565b6104686001611042565b5f610778610ec0565b1561084c575f7f00000000000000000000000000000000000000000000000000000000000000006001600160a01b0316630a81b2de6040518163ffffffff1660e01b8152600401602060405180830381865afa1580156107da573d5f803e3d5ffd5b505050506040513d601f19601f820116820180604052508101906107fe91906116fd565b905061082a817f000000000000000000000000000000000000000000000000000000000000000061173c565b6127106002548361083b9190611766565b610845919061173c565b1091505090565b60025460015461085c9190611753565b610886907f000000000000000000000000000000000000000000000000000000000000000061173c565b6001546108959061271061173c565b10905090565b6109237f00000000000000000000000000000000000000000000000000000000000000006001600160a01b0316637dc0d1d06040518163ffffffff1660e01b8152600401602060405180830381865afa1580156108fa573d5f803e3d5ffd5b505050506040513d601f19601f8201168201806040525081019061091e9190611779565b6111bc565b61092b610ec0565b610948576040516317189a8360e31b815260040160405180910390fd5b5f7f00000000000000000000000000000000000000000000000000000000000000006001600160a01b0316630a81b2de6040518163ffffffff1660e01b8152600401602060405180830381865afa1580156109a5573d5f803e3d5ffd5b505050506040513d601f19601f820116820180604052508101906109c991906116fd565b90505f7f00000000000000000000000000000000000000000000000000000000000000006001600160a01b03166318160ddd6040518163ffffffff1660e01b8152600401602060405180830381865afa158015610a28573d5f803e3d5ffd5b505050506040513d601f19601f82011682018060405250810190610a4c91906116fd565b610a568486611753565b610a609190611753565b905081811115610a92576040516344ec605760e11b815260048101839052602481018290526044015b60405180910390fd5b83600454600154610aa39190611766565b610aad9190611753565b6001556003546002548491610ac191611766565b610acb9190611753565b6002555050600491909155600355565b610b047f00000000000000000000000000000000000000000000000000000000000000006111bc565b610b0c610ec0565b15610b48576001600160a01b038084165f9081526020819052604080822054928516825290205460ff9182169116610b4582828561138d565b50505b505050565b610b556114cb565b15610b83576104685f60405180604001604052806007815260200166195e1c1a5c995960ca1b815250611247565b610b8b61076f565b15610bba576104685f60405180604001604052806008815260200167191958db1a5b995960c21b815250611247565b610bc261039c565b610468576104685f6040518060400160405280600d81526020016c6c61636b206f662066756e647360981b815250611247565b610c1e7f00000000000000000000000000000000000000000000000000000000000000006111bc565b6104685f6040518060400160405280600981526020016818d85b98d95b1b195960ba1b815250611247565b610c727f00000000000000000000000000000000000000000000000000000000000000006111bc565b610c7a6104a1565b15610c9857604051635fea7a8560e11b815260040160405180910390fd5b5f816001600160a01b031663a035b1fe6040518163ffffffff1660e01b8152600401602060405180830381865afa158015610cd5573d5f803e3d5ffd5b505050506040513d601f19601f82011682018060405250810190610cf991906116fd565b90507f00000000000000000000000000000000000000000000000000000000000000008111610d6457604051633c0e47bd60e21b81527f0000000000000000000000000000000000000000000000000000000000000000600482015260248101829052604401610a89565b816001600160a01b031663e5a6b10f6040518163ffffffff1660e01b8152600401602060405180830381865afa158015610da0573d5f803e3d5ffd5b505050506040513d601f19601f82011682018060405250810190610dc49190611779565b6001600160a01b03167f00000000000000000000000000000000000000000000000000000000000000006001600160a01b031614610e155760405163497b781f60e11b815260040160405180910390fd5b816001600160a01b0316633f5e3e7f6040518163ffffffff1660e01b8152600401602060405180830381865afa158015610e51573d5f803e3d5ffd5b505050506040513d601f19601f82011682018060405250810190610e759190611794565b610e92576040516375677ae960e01b815260040160405180910390fd5b610ebc5f604051806040016040528060088152602001671c995c1b1858d95960c21b815250611247565b5050565b5f7f00000000000000000000000000000000000000000000000000000000000000004211158015610ef4575060055460ff16155b905090565b6040516370a0823160e01b81526001600160a01b037f0000000000000000000000000000000000000000000000000000000000000000811660048301525f917f0000000000000000000000000000000000000000000000000000000000000000917f000000000000000000000000000000000000000000000000000000000000000091908316906370a0823190602401602060405180830381865afa158015610fa4573d5f803e3d5ffd5b505050506040513d601f19601f82011682018060405250810190610fc891906116fd565b826001600160a01b03166318160ddd6040518163ffffffff1660e01b8152600401602060405180830381865afa158015611004573d5f803e3d5ffd5b505050506040513d601f19601f8201168201806040525081019061102891906116fd565b6110329190611766565b61103c919061173c565b91505090565b61104a610ec0565b611067576040516317189a8360e31b815260040160405180910390fd5b335f908152602081905260409020805460ff811691839160ff1916600183600281111561109657611096611714565b02179055505f8160028111156110ae576110ae611714565b03611128576040516345c8a62b60e01b81523360048201527f00000000000000000000000000000000000000000000000000000000000000006001600160a01b0316906345c8a62b906024015f604051808303815f87803b158015611111575f80fd5b505af1158015611123573d5f803e3d5ffd5b505050505b60405163603a39fb60e11b8152336004820152610ebc90829084906001600160a01b037f0000000000000000000000000000000000000000000000000000000000000000169063c07473f6906024016020604051808303815f875af1158015611193573d5f803e3d5ffd5b505050506040513d601f19601f820116820180604052508101906111b791906116fd565b61138d565b336001600160a01b0382161461075a5760405163d600708f60e01b8152336004820152602401610a89565b604080516001600160a01b0385811660248301528416604482015260648082018490528251808303909101815260849091019091526020810180516001600160e01b03166323b872dd60e01b179052611241908590611500565b50505050565b6005805460ff191660011790556040516001600160a01b037f000000000000000000000000000000000000000000000000000000000000000016907fba01adb1638f647e6baa43cb5d8d3a05ed7e59ac18415bf4c64adba235c5b2b0906112b190859085906117d5565b60405180910390a27f00000000000000000000000000000000000000000000000000000000000000006001600160a01b03166332bc320b6040518163ffffffff1660e01b81526004015f604051808303815f87803b158015611311575f80fd5b505af1158015611323573d5f803e3d5ffd5b50506040516001600160a01b037f00000000000000000000000000000000000000000000000000000000000000001692504791505f81818185875af1925050503d805f8114610b45576040519150601f19603f3d011682016040523d82523d5f602084013e610b45565b81600281111561139f5761139f611714565b8360028111156113b1576113b1611714565b14610b485760028360028111156113ca576113ca611714565b036113eb578060025f8282546113e09190611766565b9091555061141b9050565b60018360028111156113ff576113ff611714565b0361141b578060015f8282546114159190611766565b90915550505b600282600281111561142f5761142f611714565b03611450578060025f8282546114459190611753565b909155506114809050565b600182600281111561146457611464611714565b03611480578060015f82825461147a9190611753565b90915550505b7f8fcc50c2c4edd06d51ae66e9e21ed76b32a1766c57f491788e1aa24a1b58c2566001546002546040516114be929190918252602082015260400190565b60405180910390a1505050565b5f6114f962278d007f0000000000000000000000000000000000000000000000000000000000000000611753565b4211905090565b5f6115146001600160a01b03841683611561565b905080515f141580156115385750808060200190518101906115369190611794565b155b15610b4857604051635274afe760e01b81526001600160a01b0384166004820152602401610a89565b606061156e83835f611577565b90505b92915050565b606082515f1415801561159257506001600160a01b0384163b155b156115bb57604051639eb1341360e01b81526001600160a01b0385166004820152602401610a89565b5f80856001600160a01b031684866040516115d69190611810565b5f6040518083038185875af1925050503d805f8114611610576040519150601f19603f3d011682016040523d82523d5f602084013e611615565b606091505b509150915081156116295791506116699050565b80511561163857805160208201fd5b60405162461bcd60e51b815260206004820152600660248201526519985a5b195960d21b6044820152606401610a89565b9392505050565b6001600160a01b038116811461075a575f80fd5b5f60208284031215611694575f80fd5b813561166981611670565b5f80604083850312156116b0575f80fd5b50508035926020909101359150565b5f805f606084860312156116d1575f80fd5b83356116dc81611670565b925060208401356116ec81611670565b929592945050506040919091013590565b5f6020828403121561170d575f80fd5b5051919050565b634e487b7160e01b5f52602160045260245ffd5b634e487b7160e01b5f52601160045260245ffd5b808202811582820484141761157157611571611728565b8082018082111561157157611571611728565b8181038181111561157157611571611728565b5f60208284031215611789575f80fd5b815161166981611670565b5f602082840312156117a4575f80fd5b81518015158114611669575f80fd5b5f5b838110156117cd5781810151838201526020016117b5565b50505f910152565b8215158152604060208201525f82518060408401526117fb8160608501602087016117b3565b601f01601f1916919091016060019392505050565b5f82516118218184602087016117b3565b919091019291505056fea2646970667358221220ed6563a8befe1e223503eb9156252824dabfd3e2ebe8bed5e7b5159903fdd26e64736f6c63430008150033a264697066735822122092804ecd9a1ca053f5f49cacf0d6b9890065d8e48215daba21419417d454f6c464736f6c63430008150033",
  "devdoc": {
    "kind": "dev",
    "methods": {},
    "version": 1
  },
  "userdoc": {
    "kind": "user",
    "methods": {},
    "version": 1
  },
  "storageLayout": {
    "storage": [],
    "types": null
  }
}