{
  "address": "0x06512E6bAB2712fCa9F4D123C80FCE34de2bC2D7",
  "abi": [
    {
      "inputs": [
        {
          "internalType": "address",
          "name": "_trustedForwarder",
          "type": "address"
        },
        {
          "internalType": "contract IQuoter",
          "name": "_quoter",
          "type": "address"
        },
        {
          "internalType": "contract ISwapRouter",
          "name": "swapRouter",
          "type": "address"
        }
      ],
      "stateMutability": "nonpayable",
      "type": "constructor"
    },
    {
      "anonymous": false,
      "inputs": [
        {
          "indexed": false,
          "internalType": "address",
          "name": "_oldForwarder",
          "type": "address"
        },
        {
          "indexed": false,
          "internalType": "address",
          "name": "_newForwarder",
          "type": "address"
        }
      ],
      "name": "ForwarderChanged",
      "type": "event"
    },
    {
      "inputs": [
        {
          "internalType": "address",
          "name": "erc20In",
          "type": "address"
        }
      ],
      "name": "approveERC20",
      "outputs": [],
      "stateMutability": "nonpayable",
      "type": "function"
    },
    {
      "inputs": [
        {
          "internalType": "address",
          "name": "newForwarder",
          "type": "address"
        }
      ],
      "name": "changeForwarder",
      "outputs": [],
      "stateMutability": "nonpayable",
      "type": "function"
    },
    {
      "inputs": [
        {
          "internalType": "uint256",
          "name": "amountInBase",
          "type": "uint256"
        },
        {
          "internalType": "bytes",
          "name": "path",
          "type": "bytes"
        }
      ],
      "name": "getPriceInERC20",
      "outputs": [
        {
          "internalType": "uint256",
          "name": "",
          "type": "uint256"
        }
      ],
      "stateMutability": "nonpayable",
      "type": "function"
    },
    {
      "inputs": [
        {
          "internalType": "uint256",
          "name": "amountInBase",
          "type": "uint256"
        },
        {
          "internalType": "contract IBrokerbot",
          "name": "brokerBot",
          "type": "address"
        }
      ],
      "name": "getPriceInEther",
      "outputs": [
        {
          "internalType": "uint256",
          "name": "",
          "type": "uint256"
        }
      ],
      "stateMutability": "nonpayable",
      "type": "function"
    },
    {
      "inputs": [
        {
          "internalType": "contract IERC20",
          "name": "token",
          "type": "address"
        },
        {
          "internalType": "address[]",
          "name": "recipients",
          "type": "address[]"
        },
        {
          "internalType": "uint256[]",
          "name": "amounts",
          "type": "uint256[]"
        }
      ],
      "name": "multiPay",
      "outputs": [],
      "stateMutability": "nonpayable",
      "type": "function"
    },
    {
      "inputs": [
        {
          "internalType": "contract IERC20",
          "name": "token",
          "type": "address"
        },
        {
          "internalType": "address[]",
          "name": "recipients",
          "type": "address[]"
        },
        {
          "internalType": "uint256[]",
          "name": "amounts",
          "type": "uint256[]"
        },
        {
          "internalType": "bytes",
          "name": "ref",
          "type": "bytes"
        }
      ],
      "name": "multiPayAndNotify",
      "outputs": [],
      "stateMutability": "nonpayable",
      "type": "function"
    },
    {
      "inputs": [
        {
          "internalType": "address",
          "name": "recipient",
          "type": "address"
        },
        {
          "internalType": "uint256",
          "name": "amountInBase",
          "type": "uint256"
        },
        {
          "internalType": "bytes",
          "name": "ref",
          "type": "bytes"
        }
      ],
      "name": "payAndNotify",
      "outputs": [],
      "stateMutability": "nonpayable",
      "type": "function"
    },
    {
      "inputs": [
        {
          "internalType": "contract IERC20",
          "name": "token",
          "type": "address"
        },
        {
          "internalType": "address",
          "name": "recipient",
          "type": "address"
        },
        {
          "internalType": "uint256",
          "name": "amount",
          "type": "uint256"
        },
        {
          "internalType": "bytes",
          "name": "ref",
          "type": "bytes"
        }
      ],
      "name": "payAndNotify",
      "outputs": [],
      "stateMutability": "nonpayable",
      "type": "function"
    },
    {
      "inputs": [
        {
          "internalType": "uint256",
          "name": "amountOut",
          "type": "uint256"
        },
        {
          "internalType": "uint256",
          "name": "amountInMaximum",
          "type": "uint256"
        },
        {
          "internalType": "address",
          "name": "erc20In",
          "type": "address"
        },
        {
          "internalType": "bytes",
          "name": "path",
          "type": "bytes"
        },
        {
          "internalType": "address",
          "name": "recipient",
          "type": "address"
        }
      ],
      "name": "payFromERC20",
      "outputs": [
        {
          "internalType": "uint256",
          "name": "amountIn",
          "type": "uint256"
        }
      ],
      "stateMutability": "nonpayable",
      "type": "function"
    },
    {
      "inputs": [
        {
          "internalType": "address",
          "name": "recipient",
          "type": "address"
        },
        {
          "internalType": "uint256",
          "name": "amountBase",
          "type": "uint256"
        },
        {
          "internalType": "address",
          "name": "erc20",
          "type": "address"
        },
        {
          "internalType": "uint256",
          "name": "amountInMaximum",
          "type": "uint256"
        },
        {
          "internalType": "bytes",
          "name": "path",
          "type": "bytes"
        },
        {
          "internalType": "bytes",
          "name": "ref",
          "type": "bytes"
        }
      ],
      "name": "payFromERC20AndNotify",
      "outputs": [],
      "stateMutability": "nonpayable",
      "type": "function"
    },
    {
      "inputs": [
        {
          "internalType": "address",
          "name": "recipient",
          "type": "address"
        },
        {
          "internalType": "uint256",
          "name": "amountInBase",
          "type": "uint256"
        },
        {
          "internalType": "contract IERC20",
          "name": "base",
          "type": "address"
        }
      ],
      "name": "payFromEther",
      "outputs": [],
      "stateMutability": "payable",
      "type": "function"
    },
    {
      "inputs": [
        {
          "internalType": "contract IBrokerbot",
          "name": "recipient",
          "type": "address"
        },
        {
          "internalType": "uint256",
          "name": "amountInBase",
          "type": "uint256"
        },
        {
          "internalType": "bytes",
          "name": "ref",
          "type": "bytes"
        }
      ],
      "name": "payFromEtherAndNotify",
      "outputs": [],
      "stateMutability": "payable",
      "type": "function"
    },
    {
      "inputs": [
        {
          "internalType": "contract IERC20",
          "name": "ercAddress",
          "type": "address"
        },
        {
          "internalType": "address",
          "name": "to",
          "type": "address"
        },
        {
          "internalType": "uint256",
          "name": "amount",
          "type": "uint256"
        }
      ],
      "name": "recover",
      "outputs": [],
      "stateMutability": "nonpayable",
      "type": "function"
    },
    {
      "inputs": [
        {
          "internalType": "address",
          "name": "recipient",
          "type": "address"
        },
        {
          "internalType": "address",
          "name": "seller",
          "type": "address"
        },
        {
          "internalType": "uint256",
          "name": "amountToSell",
          "type": "uint256"
        },
        {
          "internalType": "uint256",
          "name": "exFee",
          "type": "uint256"
        },
        {
          "internalType": "uint256",
          "name": "deadline",
          "type": "uint256"
        },
        {
          "internalType": "bytes",
          "name": "ref",
          "type": "bytes"
        },
        {
          "internalType": "uint8",
          "name": "v",
          "type": "uint8"
        },
        {
          "internalType": "bytes32",
          "name": "r",
          "type": "bytes32"
        },
        {
          "internalType": "bytes32",
          "name": "s",
          "type": "bytes32"
        }
      ],
      "name": "sellSharesWithPermit",
      "outputs": [],
      "stateMutability": "nonpayable",
      "type": "function"
    },
    {
      "inputs": [],
      "name": "trustedForwarder",
      "outputs": [
        {
          "internalType": "address",
          "name": "",
          "type": "address"
        }
      ],
      "stateMutability": "view",
      "type": "function"
    },
    {
      "stateMutability": "payable",
      "type": "receive"
    }
  ],
  "transactionHash": "0xe650d5a87478f877eaf1624ac6654cb59bbc06f8d44715d2a9c75e84b062b0ea",
  "args": [
    "0xCc59c42d05bd66fe22FBA27016f783af43f68fa7",
    "0xb27308f9F90D607463bb33eA1BeBb41C27CE5AB6",
    "0xE592427A0AEce92De3Edee1F18E0157C05861564"
  ],
  "numDeployments": 3,
  "solcInputHash": "6a5387b980b98f25d96dd049d7558056",
  "bytecode": "0x60c06040523480156200001157600080fd5b50604051620021c9380380620021c9833981016040819052620000349162000079565b600080546001600160a01b0319166001600160a01b039485161790559082166080521660a052620000cd565b6001600160a01b03811681146200007657600080fd5b50565b6000806000606084860312156200008f57600080fd5b83516200009c8162000060565b6020850151909350620000af8162000060565b6040850151909250620000c28162000060565b809150509250925092565b60805160a05161209e6200012b6000396000818161048f01528181610a240152610f500152600081816103f501528181610a9301528181610be40152818161119d015281816111e8015281816112f60152611325015261209e6000f3fe6080604052600436106100ec5760003560e01c8063568f32541161008a578063d3b3ca7711610059578063d3b3ca771461026b578063d64d4ba51461028b578063e25b37c6146102ab578063e347bb60146102cb57600080fd5b8063568f3254146101e05780635daf206a146102005780636fb0c7dc146102205780637da0a8771461023357600080fd5b806317f565d2116100c657806317f565d2146101605780631c9af2e3146101805780631ec82cb8146101a0578063415a2187146101c057600080fd5b8063040c037a146100f8578063078aa9641461010d57806311e8701c1461014057600080fd5b366100f357005b600080fd5b61010b61010636600461187e565b6102eb565b005b34801561011957600080fd5b5061012d61012836600461197d565b6103db565b6040519081526020015b60405180910390f35b34801561014c57600080fd5b5061010b61015b3660046119c4565b610478565b34801561016c57600080fd5b5061010b61017b36600461187e565b610512565b34801561018c57600080fd5b5061010b61019b366004611a2d565b610586565b3480156101ac57600080fd5b5061010b6101bb366004611ab0565b61065d565b3480156101cc57600080fd5b5061010b6101db3660046119c4565b6106de565b3480156101ec57600080fd5b5061010b6101fb366004611af1565b610788565b34801561020c57600080fd5b5061010b61021b366004611b9e565b6107fa565b61010b61022e366004611c21565b610a20565b34801561023f57600080fd5b50600054610253906001600160a01b031681565b6040516001600160a01b039091168152602001610137565b34801561027757600080fd5b5061010b610286366004611c63565b610e8e565b34801561029757600080fd5b5061012d6102a6366004611cc5565b610f3e565b3480156102b757600080fd5b5061012d6102c6366004611d3d565b61110f565b3480156102d757600080fd5b5061010b6102e6366004611d6d565b6113ef565b6000846001600160a01b0316635001f3b56040518163ffffffff1660e01b8152600401602060405180830381865afa15801561032b573d6000803e3d6000fd5b505050506040513d601f19601f8201168201806040525081019061034f9190611e21565b905061035c858583610a20565b60405163349b2e2960e11b81526001600160a01b038616906369365c52906103909084903390899089908990600401611e3e565b6020604051808303816000875af11580156103af573d6000803e3d6000fd5b505050506040513d601f19601f820116820180604052508101906103d39190611e92565b505050505050565b604051632f80bb1d60e01b81526000906001600160a01b037f00000000000000000000000000000000000000000000000000000000000000001690632f80bb1d9061042c9085908790600401611ef8565b6020604051808303816000875af115801561044b573d6000803e3d6000fd5b505050506040513d601f19601f8201168201806040525081019061046f9190611e92565b90505b92915050565b60405163095ea7b360e01b81526001600160a01b037f000000000000000000000000000000000000000000000000000000000000000081166004830152600160ff1b602483015282169063095ea7b3906044016020604051808303816000875af11580156104ea573d6000803e3d6000fd5b505050506040513d601f19601f8201168201806040525081019061050e9190611f1a565b5050565b610580846001600160a01b0316635001f3b56040518163ffffffff1660e01b8152600401602060405180830381865afa158015610553573d6000803e3d6000fd5b505050506040513d601f19601f820116820180604052508101906105779190611e21565b85858585610e8e565b50505050565b60005b838110156103d357856001600160a01b03166323b872dd338787858181106105b3576105b3611f3c565b90506020020160208101906105c891906119c4565b8686868181106105da576105da611f3c565b905060200201356040518463ffffffff1660e01b81526004016105ff93929190611f52565b6020604051808303816000875af115801561061e573d6000803e3d6000fd5b505050506040513d601f19601f820116820180604052508101906106429190611f1a565b61064b57600080fd5b8061065581611f8c565b915050610589565b60405163a9059cbb60e01b81526001600160a01b0383811660048301526024820183905284169063a9059cbb906044016020604051808303816000875af11580156106ac573d6000803e3d6000fd5b505050506040513d601f19601f820116820180604052508101906106d09190611f1a565b6106d957600080fd5b505050565b6000546001600160a01b0316331461072d5760405162461bcd60e51b815260206004820152600d60248201526c3737ba103337b93bb0b93232b960991b60448201526064015b60405180910390fd5b600080546001600160a01b0319166001600160a01b0383169081179091556040805133815260208101929092527f6b1afd5bf12dcac0f44e8afd235c6681297d3124624a7a7a0d34abd84b798625910160405180910390a150565b60005b858110156107f0576107de888888848181106107a9576107a9611f3c565b90506020020160208101906107be91906119c4565b8787858181106107d0576107d0611f3c565b905060200201358686610e8e565b806107e881611f8c565b91505061078b565b5050505050505050565b6000876001600160a01b0316635001f3b56040518163ffffffff1660e01b8152600401602060405180830381865afa15801561083a573d6000803e3d6000fd5b505050506040513d601f19601f8201168201806040525081019061085e9190611e21565b6040516370a0823160e01b81526001600160a01b038a811660048301529192506000918316906370a0823190602401602060405180830381865afa1580156108aa573d6000803e3d6000fd5b505050506040513d601f19601f820116820180604052508101906108ce9190611e92565b90506108dd888789888d610f3e565b506040516370a0823160e01b81526001600160a01b038a81166004830152600091908416906370a0823190602401602060405180830381865afa158015610928573d6000803e3d6000fd5b505050506040513d601f19601f8201168201806040525081019061094c9190611e92565b90506109588282611fa7565b89146109935760405162461bcd60e51b815260206004820152600a60248201526939bbb0b81032b93937b960b11b6044820152606401610724565b6001600160a01b038a166369365c5284336109ae8686611fa7565b89896040518663ffffffff1660e01b81526004016109d0959493929190611e3e565b6020604051808303816000875af11580156109ef573d6000803e3d6000fd5b505050506040513d601f19601f82011682018060405250810190610a139190611e92565b5050505050505050505050565b60007f00000000000000000000000000000000000000000000000000000000000000006001600160a01b03831673e4f27b04cc7729901876b44f4eaa5102ec1502651415610bd45760006040518060a00160405280856101f473da10009cbd5d07dd0cecc66161fc93d7c9000da1610bb87f00000000000000000000000000000000000000000000000000000000000000006001600160a01b0316634aa4a4fc6040518163ffffffff1660e01b8152600401602060405180830381865afa158015610aef573d6000803e3d6000fd5b505050506040513d601f19601f82011682018060405250810190610b139190611e21565b604051602001610b27959493929190611fbe565b6040516020818303038152906040528152602001876001600160a01b03168152602001428152602001868152602001348152509050816001600160a01b031663f28c049834836040518363ffffffff1660e01b8152600401610b899190612010565b60206040518083038185885af1158015610ba7573d6000803e3d6000fd5b50505050506040513d601f19601f82011682018060405250810190610bcc9190611e92565b925050610d97565b60006040518061010001604052807f00000000000000000000000000000000000000000000000000000000000000006001600160a01b0316634aa4a4fc6040518163ffffffff1660e01b8152600401602060405180830381865afa158015610c40573d6000803e3d6000fd5b505050506040513d601f19601f82011682018060405250810190610c649190611e21565b6001600160a01b03168152602001856001600160a01b03168152602001610bb862ffffff168152602001876001600160a01b0316815260200142815260200186815260200134815260200160006001600160a01b03168152509050816001600160a01b031663db3e219834836040518363ffffffff1660e01b8152600401610d50919081516001600160a01b03908116825260208084015182169083015260408084015162ffffff16908301526060808401518216908301526080808401519083015260a0838101519083015260c0808401519083015260e09283015116918101919091526101000190565b60206040518083038185885af1158015610d6e573d6000803e3d6000fd5b50505050506040513d601f19601f82011682018060405250810190610d939190611e92565b9250505b34821015610e8757806001600160a01b03166312210e8a6040518163ffffffff1660e01b8152600401600060405180830381600087803b158015610dda57600080fd5b505af1158015610dee573d6000803e3d6000fd5b5060009250339150610e0290508434611fa7565b604051600081818185875af1925050503d8060008114610e3e576040519150601f19603f3d011682016040523d82523d6000602084013e610e43565b606091505b50509050806103d35760405162461bcd60e51b815260206004820152601060248201526f2a3930b739b332b9103330b4b632b21760811b6044820152606401610724565b5050505050565b6040516323b872dd60e01b81526001600160a01b038616906323b872dd90610ebe90339088908890600401611f52565b6020604051808303816000875af1158015610edd573d6000803e3d6000fd5b505050506040513d601f19601f82011682018060405250810190610f019190611f1a565b610f0a57600080fd5b60405163349b2e2960e11b81526001600160a01b038516906369365c52906103909088903390889088908890600401611e3e565b6040516323b872dd60e01b81526000907f0000000000000000000000000000000000000000000000000000000000000000906001600160a01b038616906323b872dd90610f9390339030908b90600401611f52565b6020604051808303816000875af1158015610fb2573d6000803e3d6000fd5b505050506040513d601f19601f82011682018060405250810190610fd69190611f1a565b506040805160a0810182528581526001600160a01b0380861660208301524282840152606082018a9052608082018990529151631e51809360e31b8152909183169063f28c04989061102c908490600401612010565b6020604051808303816000875af115801561104b573d6000803e3d6000fd5b505050506040513d601f19601f8201168201806040525081019061106f9190611e92565b925086831015611104576001600160a01b03861663a9059cbb33611093868b611fa7565b6040516001600160e01b031960e085901b1681526001600160a01b03909216600483015260248201526044016020604051808303816000875af11580156110de573d6000803e3d6000fd5b505050506040513d601f19601f820116820180604052508101906111029190611f1a565b505b505095945050505050565b600080826001600160a01b0316635001f3b56040518163ffffffff1660e01b8152600401602060405180830381865afa158015611150573d6000803e3d6000fd5b505050506040513d601f19601f820116820180604052508101906111749190611e21565b90506001600160a01b03811673e4f27b04cc7729901876b44f4eaa5102ec15026514156112f4577f00000000000000000000000000000000000000000000000000000000000000006001600160a01b0316632f80bb1d826101f473da10009cbd5d07dd0cecc66161fc93d7c9000da1610bb87f00000000000000000000000000000000000000000000000000000000000000006001600160a01b0316634aa4a4fc6040518163ffffffff1660e01b8152600401602060405180830381865afa158015611244573d6000803e3d6000fd5b505050506040513d601f19601f820116820180604052508101906112689190611e21565b60405160200161127c959493929190611fbe565b604051602081830303815290604052866040518363ffffffff1660e01b81526004016112a9929190611ef8565b6020604051808303816000875af11580156112c8573d6000803e3d6000fd5b505050506040513d601f19601f820116820180604052508101906112ec9190611e92565b915050610472565b7f00000000000000000000000000000000000000000000000000000000000000006001600160a01b03166330d07f217f00000000000000000000000000000000000000000000000000000000000000006001600160a01b0316634aa4a4fc6040518163ffffffff1660e01b8152600401602060405180830381865afa158015611381573d6000803e3d6000fd5b505050506040513d601f19601f820116820180604052508101906113a59190611e21565b6040516001600160e01b031960e084901b1681526001600160a01b0391821660048201529084166024820152610bb86044820152606481018790526000608482015260a4016112a9565b6000546001600160a01b03163314806114105750336001600160a01b038a16145b61144a5760405162461bcd60e51b815260206004820152600b60248201526a1b9bdd081d1c9d5cdd195960aa1b6044820152606401610724565b60008a6001600160a01b031663fc0c546a6040518163ffffffff1660e01b8152600401602060405180830381865afa15801561148a573d6000803e3d6000fd5b505050506040513d601f19601f820116820180604052508101906114ae9190611e21565b60405163d505accf60e01b81526001600160a01b038c81166004830152306024830152604482018c9052606482018a905260ff8716608483015260a4820186905260c482018590529192509082169063d505accf9060e401600060405180830381600087803b15801561152057600080fd5b505af1158015611534573d6000803e3d6000fd5b50506040516323b872dd60e01b81526001600160a01b03841692506323b872dd9150611568908d908f908e90600401611f52565b6020604051808303816000875af1158015611587573d6000803e3d6000fd5b505050506040513d601f19601f820116820180604052508101906115ab9190611f1a565b5087156117985760405163349b2e2960e11b81526000906001600160a01b038d16906369365c52906115e990859030908f908d908d90600401611e3e565b6020604051808303816000875af1158015611608573d6000803e3d6000fd5b505050506040513d601f19601f8201168201806040525081019061162c9190611e92565b905060008c6001600160a01b0316635001f3b56040518163ffffffff1660e01b8152600401602060405180830381865afa15801561166e573d6000803e3d6000fd5b505050506040513d601f19601f820116820180604052508101906116929190611e21565b60405163a9059cbb60e01b8152336004820152602481018c90529091506001600160a01b0382169063a9059cbb906044016020604051808303816000875af11580156116e2573d6000803e3d6000fd5b505050506040513d601f19601f820116820180604052508101906117069190611f1a565b506001600160a01b03811663a9059cbb8d6117218d86611fa7565b6040516001600160e01b031960e085901b1681526001600160a01b03909216600483015260248201526044016020604051808303816000875af115801561176c573d6000803e3d6000fd5b505050506040513d601f19601f820116820180604052508101906117909190611f1a565b505050610a13565b60405163349b2e2960e11b81526001600160a01b038c16906369365c52906117cc9084908e908e908c908c90600401611e3e565b6020604051808303816000875af11580156117eb573d6000803e3d6000fd5b505050506040513d601f19601f8201168201806040525081019061180f9190611e92565b505050505050505050505050565b6001600160a01b038116811461183257600080fd5b50565b60008083601f84011261184757600080fd5b50813567ffffffffffffffff81111561185f57600080fd5b60208301915083602082850101111561187757600080fd5b9250929050565b6000806000806060858703121561189457600080fd5b843561189f8161181d565b935060208501359250604085013567ffffffffffffffff8111156118c257600080fd5b6118ce87828801611835565b95989497509550505050565b634e487b7160e01b600052604160045260246000fd5b600082601f83011261190157600080fd5b813567ffffffffffffffff8082111561191c5761191c6118da565b604051601f8301601f19908116603f01168101908282118183101715611944576119446118da565b8160405283815286602085880101111561195d57600080fd5b836020870160208301376000602085830101528094505050505092915050565b6000806040838503121561199057600080fd5b82359150602083013567ffffffffffffffff8111156119ae57600080fd5b6119ba858286016118f0565b9150509250929050565b6000602082840312156119d657600080fd5b81356119e18161181d565b9392505050565b60008083601f8401126119fa57600080fd5b50813567ffffffffffffffff811115611a1257600080fd5b6020830191508360208260051b850101111561187757600080fd5b600080600080600060608688031215611a4557600080fd5b8535611a508161181d565b9450602086013567ffffffffffffffff80821115611a6d57600080fd5b611a7989838a016119e8565b90965094506040880135915080821115611a9257600080fd5b50611a9f888289016119e8565b969995985093965092949392505050565b600080600060608486031215611ac557600080fd5b8335611ad08161181d565b92506020840135611ae08161181d565b929592945050506040919091013590565b60008060008060008060006080888a031215611b0c57600080fd5b8735611b178161181d565b9650602088013567ffffffffffffffff80821115611b3457600080fd5b611b408b838c016119e8565b909850965060408a0135915080821115611b5957600080fd5b611b658b838c016119e8565b909650945060608a0135915080821115611b7e57600080fd5b50611b8b8a828b01611835565b989b979a50959850939692959293505050565b600080600080600080600060c0888a031215611bb957600080fd5b8735611bc48161181d565b9650602088013595506040880135611bdb8161181d565b945060608801359350608088013567ffffffffffffffff80821115611bff57600080fd5b611c0b8b838c016118f0565b945060a08a0135915080821115611b7e57600080fd5b600080600060608486031215611c3657600080fd5b8335611c418161181d565b9250602084013591506040840135611c588161181d565b809150509250925092565b600080600080600060808688031215611c7b57600080fd5b8535611c868161181d565b94506020860135611c968161181d565b935060408601359250606086013567ffffffffffffffff811115611cb957600080fd5b611a9f88828901611835565b600080600080600060a08688031215611cdd57600080fd5b85359450602086013593506040860135611cf68161181d565b9250606086013567ffffffffffffffff811115611d1257600080fd5b611d1e888289016118f0565b9250506080860135611d2f8161181d565b809150509295509295909350565b60008060408385031215611d5057600080fd5b823591506020830135611d628161181d565b809150509250929050565b6000806000806000806000806000806101208b8d031215611d8d57600080fd5b8a35611d988161181d565b995060208b0135611da88161181d565b985060408b0135975060608b0135965060808b0135955060a08b013567ffffffffffffffff811115611dd957600080fd5b611de58d828e01611835565b90965094505060c08b013560ff81168114611dff57600080fd5b8093505060e08b013591506101008b013590509295989b9194979a5092959850565b600060208284031215611e3357600080fd5b81516119e18161181d565b6001600160a01b038681168252851660208201526040810184905260806060820181905281018290526000828460a0840137600060a0848401015260a0601f19601f85011683010190509695505050505050565b600060208284031215611ea457600080fd5b5051919050565b6000815180845260005b81811015611ed157602081850181015186830182015201611eb5565b81811115611ee3576000602083870101525b50601f01601f19169290920160200192915050565b604081526000611f0b6040830185611eab565b90508260208301529392505050565b600060208284031215611f2c57600080fd5b815180151581146119e157600080fd5b634e487b7160e01b600052603260045260246000fd5b6001600160a01b039384168152919092166020820152604081019190915260600190565b634e487b7160e01b600052601160045260246000fd5b6000600019821415611fa057611fa0611f76565b5060010190565b600082821015611fb957611fb9611f76565b500390565b6bffffffffffffffffffffffff19606096871b811682526001600160e81b031960e896871b8116601484015294871b811660178301529290941b909216602b840152921b909116602e82015260420190565b602081526000825160a0602084015261202c60c0840182611eab565b905060018060a01b0360208501511660408401526040840151606084015260608401516080840152608084015160a0840152809150509291505056fea26469706673582212204f5b896cd5dcdd9e7b29797b6607cc6525c19a57adb8e7dd17ae9f3083d971aa64736f6c634300080c0033",
  "devdoc": {
    "kind": "dev",
    "methods": {
      "approveERC20(address)": {
        "details": "This function needs to be called before using the PaymentHub the first time with a new ERC20 token.",
        "params": {
          "erc20In": "The erc20 addresse to approve."
        }
      },
      "getPriceInEther(uint256,address)": {
        "returns": {
          "_0": "The price in wei."
        }
      },
      "payFromERC20(uint256,uint256,address,bytes,address)": {
        "details": "The calling address must approve this contract to spend its ERC20 for this function to succeed. As the amount of input ERC20 is variable, the calling address will need to approve for a slightly higher or infinit amount, anticipating some variance.",
        "params": {
          "amountInMaximum": "The maximum amount of ERC20 willing to be swapped for the specified amountOut of baseCurrency.",
          "amountOut": "The desired amount of baseCurrency.",
          "erc20In": "The address of the erc20 token to pay with.",
          "path": "The encoded path of the swap from erc20 to base.",
          "recipient": "The reciving address - brokerbot."
        },
        "returns": {
          "amountIn": "The amountIn of ERC20 actually spent to receive the desired amountOut."
        }
      },
      "sellSharesWithPermit(address,address,uint256,uint256,uint256,bytes,uint8,bytes32,bytes32)": {
        "params": {
          "amountToSell": "The amount the seller wants to sell.",
          "deadline": "The deadline of the permit.",
          "r": "Part of the permit signature.",
          "recipient": "The brokerbot to recive the shares.",
          "ref": "Reference of the insider declaration and the type of sell.",
          "s": "Part of the permit signature.",
          "seller": "The address of the seller.",
          "v": "Part of the permit signature."
        }
      }
    },
    "version": 1
  },
  "userdoc": {
    "kind": "user",
    "methods": {
      "approveERC20(address)": {
        "notice": "This function appoves infinite allowance for Uniswap, this is safe as the paymenthub should never hold any token (see also recover() )."
      },
      "getPriceInEther(uint256,address)": {
        "notice": "This is the method that the Brokerbot widget should use to quote the price to the user."
      },
      "multiPayAndNotify(address,address[],uint256[],bytes)": {
        "notice": "Can (at least in theory) save some gas as the sender balance only is touched in one transaction."
      },
      "payFromEther(address,uint256,address)": {
        "notice": "Convenience method to swap ether into base and pay a target address"
      },
      "recover(address,address,uint256)": {
        "notice": "In case tokens have been accidentally sent directly to this contract. Make sure to be fast as anyone can call this!"
      },
      "sellSharesWithPermit(address,address,uint256,uint256,uint256,bytes,uint8,bytes32,bytes32)": {
        "notice": "Sell shares with permit"
      }
    },
    "notice": "A hub for payments. This allows tokens that do not support ERC 677 to enjoy similar functionality, namely interacting with a token-handling smart contract in one transaction, without having to set an allowance first. Instead, an allowance needs to be set only once, namely for this contract. Further, it supports automatic conversion from Ether to the payment currency through Uniswap or the reception of Ether using the current exchange rate as found in the chainlink oracle.",
    "version": 1
  },
  "storageLayout": {
    "storage": [
      {
        "astId": 2734,
        "contract": "src/brokerbot/PaymentHub.sol:PaymentHub",
        "label": "trustedForwarder",
        "offset": 0,
        "slot": "0",
        "type": "t_address"
      }
    ],
    "types": {
      "t_address": {
        "encoding": "inplace",
        "label": "address",
        "numberOfBytes": "20"
      }
    }
  }
}