{
  "address": "0xDC6715b0d5ad3AdD9e9Bd4b2c49df2BB220AD44A",
  "abi": [
    {
      "inputs": [
        {
          "internalType": "contract IQuoter",
          "name": "_quoter",
          "type": "address"
        },
        {
          "internalType": "contract ISwapRouter",
          "name": "swapRouter",
          "type": "address"
        },
        {
          "internalType": "contract AggregatorV3Interface",
          "name": "_aggregatorCHFUSD",
          "type": "address"
        },
        {
          "internalType": "contract AggregatorV3Interface",
          "name": "_aggregatorETHUSD",
          "type": "address"
        }
      ],
      "stateMutability": "nonpayable",
      "type": "constructor"
    },
    {
      "inputs": [
        {
          "internalType": "address",
          "name": "erc20In",
          "type": "address"
        }
      ],
      "name": "approveERC20",
      "outputs": [],
      "stateMutability": "nonpayable",
      "type": "function"
    },
    {
      "inputs": [],
      "name": "getLatestPriceCHFUSD",
      "outputs": [
        {
          "internalType": "uint256",
          "name": "",
          "type": "uint256"
        }
      ],
      "stateMutability": "view",
      "type": "function"
    },
    {
      "inputs": [],
      "name": "getLatestPriceETHUSD",
      "outputs": [
        {
          "internalType": "uint256",
          "name": "",
          "type": "uint256"
        }
      ],
      "stateMutability": "view",
      "type": "function"
    },
    {
      "inputs": [
        {
          "internalType": "uint256",
          "name": "amountInBase",
          "type": "uint256"
        },
        {
          "internalType": "bytes",
          "name": "path",
          "type": "bytes"
        }
      ],
      "name": "getPriceInERC20",
      "outputs": [
        {
          "internalType": "uint256",
          "name": "",
          "type": "uint256"
        }
      ],
      "stateMutability": "nonpayable",
      "type": "function"
    },
    {
      "inputs": [
        {
          "internalType": "uint256",
          "name": "amountInBase",
          "type": "uint256"
        },
        {
          "internalType": "contract IBrokerbot",
          "name": "brokerBot",
          "type": "address"
        }
      ],
      "name": "getPriceInEther",
      "outputs": [
        {
          "internalType": "uint256",
          "name": "",
          "type": "uint256"
        }
      ],
      "stateMutability": "nonpayable",
      "type": "function"
    },
    {
      "inputs": [
        {
          "internalType": "uint256",
          "name": "amountInBase",
          "type": "uint256"
        },
        {
          "internalType": "contract IERC20",
          "name": "base",
          "type": "address"
        }
      ],
      "name": "getPriceInEtherFromOracle",
      "outputs": [
        {
          "internalType": "uint256",
          "name": "",
          "type": "uint256"
        }
      ],
      "stateMutability": "view",
      "type": "function"
    },
    {
      "inputs": [
        {
          "internalType": "contract IBrokerbot",
          "name": "recipient",
          "type": "address"
        }
      ],
      "name": "hasSettingKeepEther",
      "outputs": [
        {
          "internalType": "bool",
          "name": "",
          "type": "bool"
        }
      ],
      "stateMutability": "view",
      "type": "function"
    },
    {
      "inputs": [
        {
          "internalType": "contract IERC20",
          "name": "token",
          "type": "address"
        },
        {
          "internalType": "address[]",
          "name": "recipients",
          "type": "address[]"
        },
        {
          "internalType": "uint256[]",
          "name": "amounts",
          "type": "uint256[]"
        }
      ],
      "name": "multiPay",
      "outputs": [],
      "stateMutability": "nonpayable",
      "type": "function"
    },
    {
      "inputs": [
        {
          "internalType": "contract IERC20",
          "name": "token",
          "type": "address"
        },
        {
          "internalType": "address[]",
          "name": "recipients",
          "type": "address[]"
        },
        {
          "internalType": "uint256[]",
          "name": "amounts",
          "type": "uint256[]"
        },
        {
          "internalType": "bytes",
          "name": "ref",
          "type": "bytes"
        }
      ],
      "name": "multiPayAndNotify",
      "outputs": [],
      "stateMutability": "nonpayable",
      "type": "function"
    },
    {
      "inputs": [
        {
          "internalType": "address",
          "name": "recipient",
          "type": "address"
        },
        {
          "internalType": "uint256",
          "name": "amountInBase",
          "type": "uint256"
        },
        {
          "internalType": "bytes",
          "name": "ref",
          "type": "bytes"
        }
      ],
      "name": "payAndNotify",
      "outputs": [],
      "stateMutability": "nonpayable",
      "type": "function"
    },
    {
      "inputs": [
        {
          "internalType": "contract IERC20",
          "name": "token",
          "type": "address"
        },
        {
          "internalType": "address",
          "name": "recipient",
          "type": "address"
        },
        {
          "internalType": "uint256",
          "name": "amount",
          "type": "uint256"
        },
        {
          "internalType": "bytes",
          "name": "ref",
          "type": "bytes"
        }
      ],
      "name": "payAndNotify",
      "outputs": [],
      "stateMutability": "nonpayable",
      "type": "function"
    },
    {
      "inputs": [
        {
          "internalType": "uint256",
          "name": "amountOut",
          "type": "uint256"
        },
        {
          "internalType": "uint256",
          "name": "amountInMaximum",
          "type": "uint256"
        },
        {
          "internalType": "address",
          "name": "erc20In",
          "type": "address"
        },
        {
          "internalType": "bytes",
          "name": "path",
          "type": "bytes"
        },
        {
          "internalType": "address",
          "name": "recipient",
          "type": "address"
        }
      ],
      "name": "payFromERC20",
      "outputs": [
        {
          "internalType": "uint256",
          "name": "amountIn",
          "type": "uint256"
        }
      ],
      "stateMutability": "nonpayable",
      "type": "function"
    },
    {
      "inputs": [
        {
          "internalType": "address",
          "name": "recipient",
          "type": "address"
        },
        {
          "internalType": "uint256",
          "name": "amountBase",
          "type": "uint256"
        },
        {
          "internalType": "address",
          "name": "erc20",
          "type": "address"
        },
        {
          "internalType": "uint256",
          "name": "amountInMaximum",
          "type": "uint256"
        },
        {
          "internalType": "bytes",
          "name": "path",
          "type": "bytes"
        },
        {
          "internalType": "bytes",
          "name": "ref",
          "type": "bytes"
        }
      ],
      "name": "payFromERC20AndNotify",
      "outputs": [],
      "stateMutability": "nonpayable",
      "type": "function"
    },
    {
      "inputs": [
        {
          "internalType": "address",
          "name": "recipient",
          "type": "address"
        },
        {
          "internalType": "uint256",
          "name": "amountInBase",
          "type": "uint256"
        },
        {
          "internalType": "contract IERC20",
          "name": "base",
          "type": "address"
        }
      ],
      "name": "payFromEther",
      "outputs": [],
      "stateMutability": "payable",
      "type": "function"
    },
    {
      "inputs": [
        {
          "internalType": "contract IBrokerbot",
          "name": "recipient",
          "type": "address"
        },
        {
          "internalType": "uint256",
          "name": "amountInBase",
          "type": "uint256"
        },
        {
          "internalType": "bytes",
          "name": "ref",
          "type": "bytes"
        }
      ],
      "name": "payFromEtherAndNotify",
      "outputs": [],
      "stateMutability": "payable",
      "type": "function"
    },
    {
      "inputs": [
        {
          "internalType": "contract IERC20",
          "name": "ercAddress",
          "type": "address"
        },
        {
          "internalType": "address",
          "name": "to",
          "type": "address"
        },
        {
          "internalType": "uint256",
          "name": "amount",
          "type": "uint256"
        }
      ],
      "name": "recover",
      "outputs": [],
      "stateMutability": "nonpayable",
      "type": "function"
    },
    {
      "stateMutability": "payable",
      "type": "receive"
    }
  ],
  "transactionHash": "0x9294d25fe07edb14a7f312602abe304822e833e0ec84d3b4fc074dc6e74895ae",
  "args": [
    "0xb27308f9F90D607463bb33eA1BeBb41C27CE5AB6",
    "0xE592427A0AEce92De3Edee1F18E0157C05861564",
    "0xECef79E109e997bCA29c1c0897ec9d7b03647F5E",
    "0x13e3Ee699D1909E989722E753853AE30b17e08c5"
  ],
  "numDeployments": 1,
  "solcInputHash": "889684937242af0c2c6df5179d5a4e65",
  "bytecode": "0x6101006040523480156200001257600080fd5b5060405162001ed638038062001ed6833981016040819052620000359162000071565b6001600160a01b0393841660805291831660a052821660c0521660e052620000d9565b6001600160a01b03811681146200006e57600080fd5b50565b600080600080608085870312156200008857600080fd5b8451620000958162000058565b6020860151909450620000a88162000058565b6040860151909350620000bb8162000058565b6060860151909250620000ce8162000058565b939692955090935050565b60805160a05160c05160e051611da0620001366000396000610f97015260006102fc0152600081816106b301528181610d91015261115d01526000818161060a01528181610ca3015281816113d401526114030152611da06000f3fe6080604052600436106100f65760003560e01c8063568f32541161008a578063c1d8e08a11610059578063c1d8e08a14610267578063d3b3ca7714610297578063d64d4ba5146102b7578063e25b37c6146102d757600080fd5b8063568f3254146101ff5780635daf206a1461021f5780636fb0c7dc1461023f57806395fe863c1461025257600080fd5b806317f565d2116100c657806317f565d21461017f5780631945b7841461019f5780631c9af2e3146101bf5780631ec82cb8146101df57600080fd5b8062124e3d14610102578063040c037a1461012a578063078aa9641461013f57806311e8701c1461015f57600080fd5b366100fd57005b600080fd5b34801561010e57600080fd5b506101176102f7565b6040519081526020015b60405180910390f35b61013d6101383660046115fa565b610396565b005b34801561014b57600080fd5b5061011761015a3660046116f9565b6105f0565b34801561016b57600080fd5b5061013d61017a366004611740565b61069c565b34801561018b57600080fd5b5061013d61019a3660046115fa565b610745565b3480156101ab57600080fd5b506101176101ba366004611764565b6107c8565b3480156101cb57600080fd5b5061013d6101da3660046117d9565b610831565b3480156101eb57600080fd5b5061013d6101fa36600461185c565b61092f565b34801561020b57600080fd5b5061013d61021a36600461189d565b6109bf565b34801561022b57600080fd5b5061013d61023a36600461194a565b610a31565b61013d61024d3660046119cd565b610c93565b34801561025e57600080fd5b50610117610f92565b34801561027357600080fd5b50610287610282366004611740565b610fee565b6040519015158152602001610121565b3480156102a357600080fd5b5061013d6102b2366004611a0f565b611073565b3480156102c357600080fd5b506101176102d2366004611a71565b611138565b3480156102e357600080fd5b506101176102f2366004611764565b61133a565b6000807f00000000000000000000000000000000000000000000000000000000000000006001600160a01b031663feaf968c6040518163ffffffff1660e01b815260040160a06040518083038186803b15801561035357600080fd5b505afa158015610367573d6000803e3d6000fd5b505050506040513d601f19601f8201168201806040525081019061038b9190611b08565b509195945050505050565b6000846001600160a01b0316635001f3b56040518163ffffffff1660e01b815260040160206040518083038186803b1580156103d157600080fd5b505afa1580156103e5573d6000803e3d6000fd5b505050506040513d601f19601f820116820180604052508101906104099190611b58565b905061041485610fee565b1561055657600061042585836107c8565b9050856001600160a01b03166369365c528284338989896040518763ffffffff1660e01b815260040161045c959493929190611b75565b6020604051808303818588803b15801561047557600080fd5b505af1158015610489573d6000803e3d6000fd5b50505050506040513d601f19601f820116820180604052508101906104ae9190611bc9565b5034811015610550576000336104c48334611bf8565b604051600081818185875af1925050503d8060008114610500576040519150601f19603f3d011682016040523d82523d6000602084013e610505565b606091505b505090508061054e5760405162461bcd60e51b815260206004820152601060248201526f2a3930b739b332b9103330b4b632b21760811b60448201526064015b60405180910390fd5b505b506105e9565b610561858583610c93565b60405163349b2e2960e11b81526001600160a01b038616906369365c52906105959084903390899089908990600401611b75565b602060405180830381600087803b1580156105af57600080fd5b505af11580156105c3573d6000803e3d6000fd5b505050506040513d601f19601f820116820180604052508101906105e79190611bc9565b505b5050505050565b604051632f80bb1d60e01b81526000906001600160a01b037f00000000000000000000000000000000000000000000000000000000000000001690632f80bb1d906106419085908790600401611c5c565b602060405180830381600087803b15801561065b57600080fd5b505af115801561066f573d6000803e3d6000fd5b505050506040513d601f19601f820116820180604052508101906106939190611bc9565b90505b92915050565b60405163095ea7b360e01b81526001600160a01b037f000000000000000000000000000000000000000000000000000000000000000081166004830152600160ff1b602483015282169063095ea7b390604401602060405180830381600087803b15801561070957600080fd5b505af115801561071d573d6000803e3d6000fd5b505050506040513d601f19601f820116820180604052508101906107419190611c7e565b5050565b6107c2846001600160a01b0316635001f3b56040518163ffffffff1660e01b815260040160206040518083038186803b15801561078157600080fd5b505afa158015610795573d6000803e3d6000fd5b505050506040513d601f19601f820116820180604052508101906107b99190611b58565b85858585611073565b50505050565b60006001600160a01b03821673b4272071ecadd69d933adcd19ca99fe80664fc08141561081b576107f7610f92565b836108006102f7565b61080a9190611ca0565b6108149190611cbf565b9050610696565b610823610f92565b61080a6305f5e10085611ca0565b60005b838110156105e757856001600160a01b03166323b872dd3387878581811061085e5761085e611ce1565b90506020020160208101906108739190611740565b86868681811061088557610885611ce1565b6040516001600160e01b031960e088901b1681526001600160a01b03958616600482015294909316602485015250602090910201356044820152606401602060405180830381600087803b1580156108dc57600080fd5b505af11580156108f0573d6000803e3d6000fd5b505050506040513d601f19601f820116820180604052508101906109149190611c7e565b61091d57600080fd5b8061092781611cf7565b915050610834565b60405163a9059cbb60e01b81526001600160a01b0383811660048301526024820183905284169063a9059cbb90604401602060405180830381600087803b15801561097957600080fd5b505af115801561098d573d6000803e3d6000fd5b505050506040513d601f19601f820116820180604052508101906109b19190611c7e565b6109ba57600080fd5b505050565b60005b85811015610a2757610a15888888848181106109e0576109e0611ce1565b90506020020160208101906109f59190611740565b878785818110610a0757610a07611ce1565b905060200201358686611073565b80610a1f81611cf7565b9150506109c2565b5050505050505050565b6000876001600160a01b0316635001f3b56040518163ffffffff1660e01b815260040160206040518083038186803b158015610a6c57600080fd5b505afa158015610a80573d6000803e3d6000fd5b505050506040513d601f19601f82011682018060405250810190610aa49190611b58565b6040516370a0823160e01b81526001600160a01b038a811660048301529192506000918316906370a082319060240160206040518083038186803b158015610aeb57600080fd5b505afa158015610aff573d6000803e3d6000fd5b505050506040513d601f19601f82011682018060405250810190610b239190611bc9565b9050610b32888789888d611138565b506040516370a0823160e01b81526001600160a01b038a81166004830152600091908416906370a082319060240160206040518083038186803b158015610b7857600080fd5b505afa158015610b8c573d6000803e3d6000fd5b505050506040513d601f19601f82011682018060405250810190610bb09190611bc9565b9050610bbc8282611bf8565b8914610bf75760405162461bcd60e51b815260206004820152600a60248201526939bbb0b81032b93937b960b11b6044820152606401610545565b6001600160a01b038a166369365c528433610c128686611bf8565b89896040518663ffffffff1660e01b8152600401610c34959493929190611b75565b602060405180830381600087803b158015610c4e57600080fd5b505af1158015610c62573d6000803e3d6000fd5b505050506040513d601f19601f82011682018060405250810190610c869190611bc9565b5050505050505050505050565b60006040518061010001604052807f00000000000000000000000000000000000000000000000000000000000000006001600160a01b0316634aa4a4fc6040518163ffffffff1660e01b815260040160206040518083038186803b158015610cfa57600080fd5b505afa158015610d0e573d6000803e3d6000fd5b505050506040513d601f19601f82011682018060405250810190610d329190611b58565b6001600160a01b03168152602001836001600160a01b03168152602001610bb862ffffff168152602001856001600160a01b0316815260200142815260200184815260200134815260200160006001600160a01b0316815250905060007f000000000000000000000000000000000000000000000000000000000000000090506000816001600160a01b031663db3e219834856040518363ffffffff1660e01b8152600401610e45919081516001600160a01b03908116825260208084015182169083015260408084015162ffffff16908301526060808401518216908301526080808401519083015260a0838101519083015260c0808401519083015260e09283015116918101919091526101000190565b6020604051808303818588803b158015610e5e57600080fd5b505af1158015610e72573d6000803e3d6000fd5b50505050506040513d601f19601f82011682018060405250810190610e979190611bc9565b9050348110156105e757816001600160a01b03166312210e8a6040518163ffffffff1660e01b8152600401600060405180830381600087803b158015610edc57600080fd5b505af1158015610ef0573d6000803e3d6000fd5b5060009250339150610f0490508334611bf8565b604051600081818185875af1925050503d8060008114610f40576040519150601f19603f3d011682016040523d82523d6000602084013e610f45565b606091505b5050905080610f895760405162461bcd60e51b815260206004820152601060248201526f2a3930b739b332b9103330b4b632b21760811b6044820152606401610545565b50505050505050565b6000807f00000000000000000000000000000000000000000000000000000000000000006001600160a01b031663feaf968c6040518163ffffffff1660e01b815260040160a06040518083038186803b15801561035357600080fd5b6000600460ff16600460ff16836001600160a01b031663e06174e46040518163ffffffff1660e01b815260040160206040518083038186803b15801561103357600080fd5b505afa158015611047573d6000803e3d6000fd5b505050506040513d601f19601f8201168201806040525081019061106b9190611bc9565b161492915050565b6040516323b872dd60e01b81523360048201526001600160a01b038581166024830152604482018590528616906323b872dd90606401602060405180830381600087803b1580156110c357600080fd5b505af11580156110d7573d6000803e3d6000fd5b505050506040513d601f19601f820116820180604052508101906110fb9190611c7e565b61110457600080fd5b60405163349b2e2960e11b81526001600160a01b038516906369365c52906105959088903390889088908890600401611b75565b6040516323b872dd60e01b8152336004820152306024820152604481018590526000907f0000000000000000000000000000000000000000000000000000000000000000906001600160a01b038616906323b872dd90606401602060405180830381600087803b1580156111ab57600080fd5b505af11580156111bf573d6000803e3d6000fd5b505050506040513d601f19601f820116820180604052508101906111e39190611c7e565b506040805160a0810182528581526001600160a01b0380861660208301524282840152606082018a9052608082018990529151631e51809360e31b8152909183169063f28c049890611239908490600401611d12565b602060405180830381600087803b15801561125357600080fd5b505af1158015611267573d6000803e3d6000fd5b505050506040513d601f19601f8201168201806040525081019061128b9190611bc9565b92508683101561132f576001600160a01b03861663a9059cbb336112af868b611bf8565b6040516001600160e01b031960e085901b1681526001600160a01b0390921660048301526024820152604401602060405180830381600087803b1580156112f557600080fd5b505af1158015611309573d6000803e3d6000fd5b505050506040513d601f19601f8201168201806040525081019061132d9190611c7e565b505b505095945050505050565b60006001600160a01b03821615801590611358575061135882610fee565b156113d25761081483836001600160a01b0316635001f3b56040518163ffffffff1660e01b815260040160206040518083038186803b15801561139a57600080fd5b505afa1580156113ae573d6000803e3d6000fd5b505050506040513d601f19601f820116820180604052508101906101ba9190611b58565b7f00000000000000000000000000000000000000000000000000000000000000006001600160a01b03166330d07f217f00000000000000000000000000000000000000000000000000000000000000006001600160a01b0316634aa4a4fc6040518163ffffffff1660e01b815260040160206040518083038186803b15801561145a57600080fd5b505afa15801561146e573d6000803e3d6000fd5b505050506040513d601f19601f820116820180604052508101906114929190611b58565b846001600160a01b0316635001f3b56040518163ffffffff1660e01b815260040160206040518083038186803b1580156114cb57600080fd5b505afa1580156114df573d6000803e3d6000fd5b505050506040513d601f19601f820116820180604052508101906115039190611b58565b6040516001600160e01b031960e085901b1681526001600160a01b03928316600482015291166024820152610bb86044820152606481018690526000608482015260a401602060405180830381600087803b15801561156157600080fd5b505af1158015611575573d6000803e3d6000fd5b505050506040513d601f19601f820116820180604052508101906108149190611bc9565b6001600160a01b03811681146115ae57600080fd5b50565b60008083601f8401126115c357600080fd5b50813567ffffffffffffffff8111156115db57600080fd5b6020830191508360208285010111156115f357600080fd5b9250929050565b6000806000806060858703121561161057600080fd5b843561161b81611599565b935060208501359250604085013567ffffffffffffffff81111561163e57600080fd5b61164a878288016115b1565b95989497509550505050565b634e487b7160e01b600052604160045260246000fd5b600082601f83011261167d57600080fd5b813567ffffffffffffffff8082111561169857611698611656565b604051601f8301601f19908116603f011681019082821181831017156116c0576116c0611656565b816040528381528660208588010111156116d957600080fd5b836020870160208301376000602085830101528094505050505092915050565b6000806040838503121561170c57600080fd5b82359150602083013567ffffffffffffffff81111561172a57600080fd5b6117368582860161166c565b9150509250929050565b60006020828403121561175257600080fd5b813561175d81611599565b9392505050565b6000806040838503121561177757600080fd5b82359150602083013561178981611599565b809150509250929050565b60008083601f8401126117a657600080fd5b50813567ffffffffffffffff8111156117be57600080fd5b6020830191508360208260051b85010111156115f357600080fd5b6000806000806000606086880312156117f157600080fd5b85356117fc81611599565b9450602086013567ffffffffffffffff8082111561181957600080fd5b61182589838a01611794565b9096509450604088013591508082111561183e57600080fd5b5061184b88828901611794565b969995985093965092949392505050565b60008060006060848603121561187157600080fd5b833561187c81611599565b9250602084013561188c81611599565b929592945050506040919091013590565b60008060008060008060006080888a0312156118b857600080fd5b87356118c381611599565b9650602088013567ffffffffffffffff808211156118e057600080fd5b6118ec8b838c01611794565b909850965060408a013591508082111561190557600080fd5b6119118b838c01611794565b909650945060608a013591508082111561192a57600080fd5b506119378a828b016115b1565b989b979a50959850939692959293505050565b600080600080600080600060c0888a03121561196557600080fd5b873561197081611599565b965060208801359550604088013561198781611599565b945060608801359350608088013567ffffffffffffffff808211156119ab57600080fd5b6119b78b838c0161166c565b945060a08a013591508082111561192a57600080fd5b6000806000606084860312156119e257600080fd5b83356119ed81611599565b9250602084013591506040840135611a0481611599565b809150509250925092565b600080600080600060808688031215611a2757600080fd5b8535611a3281611599565b94506020860135611a4281611599565b935060408601359250606086013567ffffffffffffffff811115611a6557600080fd5b61184b888289016115b1565b600080600080600060a08688031215611a8957600080fd5b85359450602086013593506040860135611aa281611599565b9250606086013567ffffffffffffffff811115611abe57600080fd5b611aca8882890161166c565b9250506080860135611adb81611599565b809150509295509295909350565b805169ffffffffffffffffffff81168114611b0357600080fd5b919050565b600080600080600060a08688031215611b2057600080fd5b611b2986611ae9565b9450602086015193506040860151925060608601519150611b4c60808701611ae9565b90509295509295909350565b600060208284031215611b6a57600080fd5b815161175d81611599565b6001600160a01b038681168252851660208201526040810184905260806060820181905281018290526000828460a0840137600060a0848401015260a0601f19601f85011683010190509695505050505050565b600060208284031215611bdb57600080fd5b5051919050565b634e487b7160e01b600052601160045260246000fd5b600082821015611c0a57611c0a611be2565b500390565b6000815180845260005b81811015611c3557602081850181015186830182015201611c19565b81811115611c47576000602083870101525b50601f01601f19169290920160200192915050565b604081526000611c6f6040830185611c0f565b90508260208301529392505050565b600060208284031215611c9057600080fd5b8151801515811461175d57600080fd5b6000816000190483118215151615611cba57611cba611be2565b500290565b600082611cdc57634e487b7160e01b600052601260045260246000fd5b500490565b634e487b7160e01b600052603260045260246000fd5b6000600019821415611d0b57611d0b611be2565b5060010190565b602081526000825160a06020840152611d2e60c0840182611c0f565b905060018060a01b0360208501511660408401526040840151606084015260608401516080840152608084015160a0840152809150509291505056fea264697066735822122056dba85b652fdfde01e1392fc82fdbe3f8f4367f1639903d01090f772b9b3aeb64736f6c63430008090033",
  "devdoc": {
    "kind": "dev",
    "methods": {
      "approveERC20(address)": {
        "details": "This function needs to be called before using the PaymentHub the first time with a new ERC20 token.",
        "params": {
          "erc20In": "The erc20 addresse to approve."
        }
      },
      "getPriceInEther(uint256,address)": {
        "returns": {
          "_0": "The price in wei."
        }
      },
      "payFromERC20(uint256,uint256,address,bytes,address)": {
        "details": "The calling address must approve this contract to spend its ERC20 for this function to succeed. As the amount of input ERC20 is variable, the calling address will need to approve for a slightly higher or infinit amount, anticipating some variance.",
        "params": {
          "amountInMaximum": "The maximum amount of ERC20 willing to be swapped for the specified amountOut of baseCurrency.",
          "amountOut": "The desired amount of baseCurrency.",
          "erc20In": "The address of the erc20 token to pay with.",
          "path": "The encoded path of the swap from erc20 to base.",
          "recipient": "The reciving address - brokerbot."
        },
        "returns": {
          "amountIn": "The amountIn of ERC20 actually spent to receive the desired amountOut."
        }
      }
    },
    "version": 1
  },
  "userdoc": {
    "kind": "user",
    "methods": {
      "approveERC20(address)": {
        "notice": "This function appoves infinite allowance for Uniswap, this is safe as the paymenthub should never hold any token (see also recover() )."
      },
      "getLatestPriceCHFUSD()": {
        "notice": "Returns the latest price of chf/usd pair from chainlink with 8 decimals"
      },
      "getLatestPriceETHUSD()": {
        "notice": "Returns the latest price of eth/usd pair from chainlink with 8 decimals"
      },
      "getPriceInEther(uint256,address)": {
        "notice": "Get price in Ether depding on brokerbot setting. If keep ETH is set price is from oracle. This is the method that the Brokerbot widget should use to quote the price to the user."
      },
      "getPriceInEtherFromOracle(uint256,address)": {
        "notice": "Price in ETH with 18 decimals"
      },
      "hasSettingKeepEther(address)": {
        "notice": "Checks if the recipient(brokerbot) has setting enabled to keep ether"
      },
      "multiPayAndNotify(address,address[],uint256[],bytes)": {
        "notice": "Can (at least in theory) save some gas as the sender balance only is touched in one transaction."
      },
      "payFromEther(address,uint256,address)": {
        "notice": "Convenience method to swap ether into base and pay a target address"
      },
      "recover(address,address,uint256)": {
        "notice": "In case tokens have been accidentally sent directly to this contract. Make sure to be fast as anyone can call this!"
      }
    },
    "notice": "A hub for payments. This allows tokens that do not support ERC 677 to enjoy similar functionality, namely interacting with a token-handling smart contract in one transaction, without having to set an allowance first. Instead, an allowance needs to be set only once, namely for this contract. Further, it supports automatic conversion from Ether to the payment currency through Uniswap or the reception of Ether using the current exchange rate as found in the chainlink oracle.",
    "version": 1
  },
  "storageLayout": {
    "storage": [],
    "types": null
  }
}