{
  "address": "0x7e08078AdCcBFda94daf16184FBfa50acBdEb848",
  "abi": [
    {
      "inputs": [
        {
          "internalType": "address",
          "name": "_trustedForwarder",
          "type": "address"
        },
        {
          "internalType": "contract IQuoter",
          "name": "_quoter",
          "type": "address"
        },
        {
          "internalType": "contract ISwapRouter",
          "name": "swapRouter",
          "type": "address"
        }
      ],
      "stateMutability": "nonpayable",
      "type": "constructor"
    },
    {
      "inputs": [
        {
          "internalType": "address",
          "name": "target",
          "type": "address"
        }
      ],
      "name": "Address_NotTransferNorContract",
      "type": "error"
    },
    {
      "inputs": [
        {
          "internalType": "address",
          "name": "sender",
          "type": "address"
        }
      ],
      "name": "PaymentHub_InvalidSender",
      "type": "error"
    },
    {
      "inputs": [
        {
          "internalType": "uint256",
          "name": "amountBase",
          "type": "uint256"
        },
        {
          "internalType": "uint256",
          "name": "swappedAmount",
          "type": "uint256"
        }
      ],
      "name": "PaymentHub_SwapError",
      "type": "error"
    },
    {
      "inputs": [],
      "name": "PaymentHub_TransferFailed",
      "type": "error"
    },
    {
      "inputs": [
        {
          "internalType": "address",
          "name": "token",
          "type": "address"
        }
      ],
      "name": "SafeERC20FailedOperation",
      "type": "error"
    },
    {
      "anonymous": false,
      "inputs": [
        {
          "indexed": true,
          "internalType": "address",
          "name": "_oldForwarder",
          "type": "address"
        },
        {
          "indexed": true,
          "internalType": "address",
          "name": "_newForwarder",
          "type": "address"
        }
      ],
      "name": "ForwarderChanged",
      "type": "event"
    },
    {
      "inputs": [],
      "name": "VERSION",
      "outputs": [
        {
          "internalType": "uint8",
          "name": "",
          "type": "uint8"
        }
      ],
      "stateMutability": "view",
      "type": "function"
    },
    {
      "inputs": [
        {
          "internalType": "address",
          "name": "erc20In",
          "type": "address"
        }
      ],
      "name": "approveERC20",
      "outputs": [],
      "stateMutability": "nonpayable",
      "type": "function"
    },
    {
      "inputs": [
        {
          "internalType": "address",
          "name": "newForwarder",
          "type": "address"
        }
      ],
      "name": "changeForwarder",
      "outputs": [],
      "stateMutability": "nonpayable",
      "type": "function"
    },
    {
      "inputs": [
        {
          "internalType": "uint256",
          "name": "amount",
          "type": "uint256"
        },
        {
          "internalType": "bytes",
          "name": "path",
          "type": "bytes"
        },
        {
          "internalType": "bool",
          "name": "exactOutput",
          "type": "bool"
        }
      ],
      "name": "getPriceERC20",
      "outputs": [
        {
          "internalType": "uint256",
          "name": "",
          "type": "uint256"
        }
      ],
      "stateMutability": "nonpayable",
      "type": "function"
    },
    {
      "inputs": [
        {
          "internalType": "uint256",
          "name": "amountInBase",
          "type": "uint256"
        },
        {
          "internalType": "bytes",
          "name": "path",
          "type": "bytes"
        }
      ],
      "name": "getPriceInERC20",
      "outputs": [
        {
          "internalType": "uint256",
          "name": "",
          "type": "uint256"
        }
      ],
      "stateMutability": "nonpayable",
      "type": "function"
    },
    {
      "inputs": [
        {
          "internalType": "uint256",
          "name": "amountInBase",
          "type": "uint256"
        },
        {
          "internalType": "contract IBrokerbot",
          "name": "brokerBot",
          "type": "address"
        }
      ],
      "name": "getPriceInEther",
      "outputs": [
        {
          "internalType": "uint256",
          "name": "",
          "type": "uint256"
        }
      ],
      "stateMutability": "nonpayable",
      "type": "function"
    },
    {
      "inputs": [
        {
          "internalType": "contract IERC20",
          "name": "token",
          "type": "address"
        },
        {
          "internalType": "address[]",
          "name": "recipients",
          "type": "address[]"
        },
        {
          "internalType": "uint256[]",
          "name": "amounts",
          "type": "uint256[]"
        }
      ],
      "name": "multiPay",
      "outputs": [],
      "stateMutability": "nonpayable",
      "type": "function"
    },
    {
      "inputs": [
        {
          "internalType": "contract IERC20",
          "name": "token",
          "type": "address"
        },
        {
          "internalType": "contract IBrokerbot[]",
          "name": "brokerbots",
          "type": "address[]"
        },
        {
          "internalType": "uint256[]",
          "name": "amounts",
          "type": "uint256[]"
        },
        {
          "internalType": "bytes",
          "name": "ref",
          "type": "bytes"
        }
      ],
      "name": "multiPayAndNotify",
      "outputs": [],
      "stateMutability": "nonpayable",
      "type": "function"
    },
    {
      "inputs": [
        {
          "internalType": "contract IBrokerbot",
          "name": "brokerbot",
          "type": "address"
        },
        {
          "internalType": "uint256",
          "name": "amountInBase",
          "type": "uint256"
        },
        {
          "internalType": "bytes",
          "name": "ref",
          "type": "bytes"
        }
      ],
      "name": "payAndNotify",
      "outputs": [
        {
          "internalType": "uint256",
          "name": "",
          "type": "uint256"
        }
      ],
      "stateMutability": "nonpayable",
      "type": "function"
    },
    {
      "inputs": [
        {
          "internalType": "contract IERC20",
          "name": "token",
          "type": "address"
        },
        {
          "internalType": "contract IBrokerbot",
          "name": "brokerbot",
          "type": "address"
        },
        {
          "internalType": "uint256",
          "name": "amount",
          "type": "uint256"
        },
        {
          "internalType": "bytes",
          "name": "ref",
          "type": "bytes"
        }
      ],
      "name": "payAndNotify",
      "outputs": [
        {
          "internalType": "uint256",
          "name": "",
          "type": "uint256"
        }
      ],
      "stateMutability": "nonpayable",
      "type": "function"
    },
    {
      "inputs": [
        {
          "internalType": "uint256",
          "name": "amountOut",
          "type": "uint256"
        },
        {
          "internalType": "uint256",
          "name": "amountInMaximum",
          "type": "uint256"
        },
        {
          "internalType": "address",
          "name": "erc20In",
          "type": "address"
        },
        {
          "internalType": "bytes",
          "name": "path",
          "type": "bytes"
        },
        {
          "internalType": "address",
          "name": "recipient",
          "type": "address"
        }
      ],
      "name": "payFromERC20",
      "outputs": [
        {
          "internalType": "uint256",
          "name": "amountIn",
          "type": "uint256"
        }
      ],
      "stateMutability": "nonpayable",
      "type": "function"
    },
    {
      "inputs": [
        {
          "internalType": "contract IBrokerbot",
          "name": "brokerbot",
          "type": "address"
        },
        {
          "internalType": "uint256",
          "name": "amountBase",
          "type": "uint256"
        },
        {
          "internalType": "address",
          "name": "erc20",
          "type": "address"
        },
        {
          "internalType": "uint256",
          "name": "amountInMaximum",
          "type": "uint256"
        },
        {
          "internalType": "bytes",
          "name": "path",
          "type": "bytes"
        },
        {
          "internalType": "bytes",
          "name": "ref",
          "type": "bytes"
        }
      ],
      "name": "payFromERC20AndNotify",
      "outputs": [
        {
          "internalType": "uint256",
          "name": "amountIn",
          "type": "uint256"
        },
        {
          "internalType": "uint256",
          "name": "amountOut",
          "type": "uint256"
        }
      ],
      "stateMutability": "nonpayable",
      "type": "function"
    },
    {
      "inputs": [
        {
          "internalType": "address",
          "name": "recipient",
          "type": "address"
        },
        {
          "internalType": "uint256",
          "name": "amountInBase",
          "type": "uint256"
        },
        {
          "internalType": "contract IERC20",
          "name": "base",
          "type": "address"
        }
      ],
      "name": "payFromEther",
      "outputs": [
        {
          "internalType": "uint256",
          "name": "amountIn",
          "type": "uint256"
        }
      ],
      "stateMutability": "payable",
      "type": "function"
    },
    {
      "inputs": [
        {
          "internalType": "contract IBrokerbot",
          "name": "recipient",
          "type": "address"
        },
        {
          "internalType": "uint256",
          "name": "amountInBase",
          "type": "uint256"
        },
        {
          "internalType": "bytes",
          "name": "ref",
          "type": "bytes"
        }
      ],
      "name": "payFromEtherAndNotify",
      "outputs": [
        {
          "internalType": "uint256",
          "name": "priceInEther",
          "type": "uint256"
        },
        {
          "internalType": "uint256",
          "name": "sharesOut",
          "type": "uint256"
        }
      ],
      "stateMutability": "payable",
      "type": "function"
    },
    {
      "inputs": [
        {
          "internalType": "contract IERC20",
          "name": "ercAddress",
          "type": "address"
        },
        {
          "internalType": "address",
          "name": "to",
          "type": "address"
        },
        {
          "internalType": "uint256",
          "name": "amount",
          "type": "uint256"
        }
      ],
      "name": "recover",
      "outputs": [],
      "stateMutability": "nonpayable",
      "type": "function"
    },
    {
      "inputs": [
        {
          "internalType": "contract IBrokerbot",
          "name": "brokerbot",
          "type": "address"
        },
        {
          "internalType": "contract IERC20",
          "name": "shares",
          "type": "address"
        },
        {
          "internalType": "uint256",
          "name": "amountToSell",
          "type": "uint256"
        },
        {
          "internalType": "bytes",
          "name": "ref",
          "type": "bytes"
        },
        {
          "components": [
            {
              "internalType": "bytes",
              "name": "path",
              "type": "bytes"
            },
            {
              "internalType": "address",
              "name": "recipient",
              "type": "address"
            },
            {
              "internalType": "uint256",
              "name": "deadline",
              "type": "uint256"
            },
            {
              "internalType": "uint256",
              "name": "amountIn",
              "type": "uint256"
            },
            {
              "internalType": "uint256",
              "name": "amountOutMinimum",
              "type": "uint256"
            }
          ],
          "internalType": "struct ISwapRouter.ExactInputParams",
          "name": "params",
          "type": "tuple"
        },
        {
          "internalType": "bool",
          "name": "unwrapWeth",
          "type": "bool"
        }
      ],
      "name": "sellSharesAndSwap",
      "outputs": [
        {
          "internalType": "uint256",
          "name": "",
          "type": "uint256"
        }
      ],
      "stateMutability": "nonpayable",
      "type": "function"
    },
    {
      "inputs": [
        {
          "internalType": "contract IBrokerbot",
          "name": "brokerbot",
          "type": "address"
        },
        {
          "internalType": "contract IERC20Permit",
          "name": "shares",
          "type": "address"
        },
        {
          "internalType": "address",
          "name": "seller",
          "type": "address"
        },
        {
          "internalType": "address",
          "name": "recipient",
          "type": "address"
        },
        {
          "internalType": "uint256",
          "name": "amountToSell",
          "type": "uint256"
        },
        {
          "internalType": "bytes",
          "name": "ref",
          "type": "bytes"
        },
        {
          "components": [
            {
              "internalType": "uint256",
              "name": "exFee",
              "type": "uint256"
            },
            {
              "internalType": "uint256",
              "name": "deadline",
              "type": "uint256"
            },
            {
              "internalType": "uint8",
              "name": "v",
              "type": "uint8"
            },
            {
              "internalType": "bytes32",
              "name": "r",
              "type": "bytes32"
            },
            {
              "internalType": "bytes32",
              "name": "s",
              "type": "bytes32"
            }
          ],
          "internalType": "struct PaymentHub.PermitInfo",
          "name": "permitInfo",
          "type": "tuple"
        }
      ],
      "name": "sellSharesWithPermit",
      "outputs": [
        {
          "internalType": "uint256",
          "name": "",
          "type": "uint256"
        }
      ],
      "stateMutability": "nonpayable",
      "type": "function"
    },
    {
      "inputs": [
        {
          "internalType": "contract IBrokerbot",
          "name": "brokerbot",
          "type": "address"
        },
        {
          "internalType": "contract IERC20Permit",
          "name": "shares",
          "type": "address"
        },
        {
          "internalType": "address",
          "name": "seller",
          "type": "address"
        },
        {
          "internalType": "uint256",
          "name": "amountToSell",
          "type": "uint256"
        },
        {
          "internalType": "bytes",
          "name": "ref",
          "type": "bytes"
        },
        {
          "components": [
            {
              "internalType": "uint256",
              "name": "exFee",
              "type": "uint256"
            },
            {
              "internalType": "uint256",
              "name": "deadline",
              "type": "uint256"
            },
            {
              "internalType": "uint8",
              "name": "v",
              "type": "uint8"
            },
            {
              "internalType": "bytes32",
              "name": "r",
              "type": "bytes32"
            },
            {
              "internalType": "bytes32",
              "name": "s",
              "type": "bytes32"
            }
          ],
          "internalType": "struct PaymentHub.PermitInfo",
          "name": "permitInfo",
          "type": "tuple"
        },
        {
          "components": [
            {
              "internalType": "bytes",
              "name": "path",
              "type": "bytes"
            },
            {
              "internalType": "address",
              "name": "recipient",
              "type": "address"
            },
            {
              "internalType": "uint256",
              "name": "deadline",
              "type": "uint256"
            },
            {
              "internalType": "uint256",
              "name": "amountIn",
              "type": "uint256"
            },
            {
              "internalType": "uint256",
              "name": "amountOutMinimum",
              "type": "uint256"
            }
          ],
          "internalType": "struct ISwapRouter.ExactInputParams",
          "name": "params",
          "type": "tuple"
        },
        {
          "internalType": "bool",
          "name": "unwrapWeth",
          "type": "bool"
        }
      ],
      "name": "sellSharesWithPermitAndSwap",
      "outputs": [
        {
          "internalType": "uint256",
          "name": "",
          "type": "uint256"
        }
      ],
      "stateMutability": "nonpayable",
      "type": "function"
    },
    {
      "inputs": [
        {
          "internalType": "address",
          "name": "to",
          "type": "address"
        }
      ],
      "name": "transferEther",
      "outputs": [],
      "stateMutability": "payable",
      "type": "function"
    },
    {
      "inputs": [],
      "name": "trustedForwarder",
      "outputs": [
        {
          "internalType": "address",
          "name": "",
          "type": "address"
        }
      ],
      "stateMutability": "view",
      "type": "function"
    },
    {
      "inputs": [
        {
          "internalType": "address",
          "name": "to",
          "type": "address"
        },
        {
          "internalType": "uint256",
          "name": "amount",
          "type": "uint256"
        }
      ],
      "name": "withdrawEther",
      "outputs": [],
      "stateMutability": "nonpayable",
      "type": "function"
    },
    {
      "stateMutability": "payable",
      "type": "receive"
    }
  ],
  "transactionHash": "0xf96a206671beacff72a2c0b628e2e79c2563e7094686a2f50e871d8a8a2e7745",
  "args": [
    "0x59f0941e75f2F77cA4577E48c3c5333a3F8D277b",
    "0xb27308f9F90D607463bb33eA1BeBb41C27CE5AB6",
    "0xE592427A0AEce92De3Edee1F18E0157C05861564"
  ],
  "numDeployments": 4,
  "solcInputHash": "f25451c3c66006a3d5a3090358030ca6",
  "bytecode": "0x60c06040523480156200001157600080fd5b50604051620028b1380380620028b1833981016040819052620000349162000079565b600080546001600160a01b0319166001600160a01b039485161790559082166080521660a052620000cd565b6001600160a01b03811681146200007657600080fd5b50565b6000806000606084860312156200008f57600080fd5b83516200009c8162000060565b6020850151909350620000af8162000060565b6040850151909250620000c28162000060565b809150509250925092565b60805160a051612771620001406000396000818161052401528181610cf8015281816113750152611a80015260008181610d6701528181610eb8015281816111d70152818161126f015281816115030152818161154e0152818161165c0152818161168b01526118a001526127716000f3fe60806040526004361061012e5760003560e01c80635daf206a116100ab57806388e3b76a1161006f57806388e3b76a14610335578063d3b3ca7714610355578063d492714814610375578063d64d4ba514610395578063e25b37c6146103b5578063ffa1ad74146103d557600080fd5b80635daf206a146102975780636b55e991146102b75780636fb0c7dc146102ca578063753f9447146102dd5780637da0a877146102fd57600080fd5b80631da5f315116100f25780631da5f315146101f75780631ec82cb814610217578063415a218714610237578063522f681514610257578063568f32541461027757600080fd5b8063040c037a1461013a578063078aa9641461016757806311e8701c1461019557806317f565d2146101b75780631c9af2e3146101d757600080fd5b3661013557005b600080fd5b61014d610148366004611c94565b6103fc565b604080519283526020830191909152015b60405180910390f35b34801561017357600080fd5b50610187610182366004611d91565b6104f6565b60405190815260200161015e565b3480156101a157600080fd5b506101b56101b0366004611dd7565b61050d565b005b3480156101c357600080fd5b506101876101d2366004611c94565b6105a5565b3480156101e357600080fd5b506101b56101f2366004611e38565b61061e565b34801561020357600080fd5b50610187610212366004611ed2565b6106a1565b34801561022357600080fd5b506101b5610232366004611f7b565b610888565b34801561024357600080fd5b506101b5610252366004611dd7565b6108ce565b34801561026357600080fd5b506101b5610272366004611fbc565b610946565b34801561028357600080fd5b506101b5610292366004611fe8565b6109e7565b3480156102a357600080fd5b5061014d6102b2366004612094565b610a5a565b6101b56102c5366004611dd7565b610c80565b6101876102d8366004612116565b610cf4565b3480156102e957600080fd5b506101876102f83660046121fd565b611143565b34801561030957600080fd5b5060005461031d906001600160a01b031681565b6040516001600160a01b03909116815260200161015e565b34801561034157600080fd5b506101876103503660046122d2565b6111b8565b34801561036157600080fd5b50610187610370366004612321565b6112ad565b34801561038157600080fd5b50610187610390366004612382565b611345565b3480156103a157600080fd5b506101876103b036600461242e565b611371565b3480156103c157600080fd5b506101876103d03660046124a5565b611475565b3480156103e157600080fd5b506103ea600881565b60405160ff909116815260200161015e565b6000806000866001600160a01b0316635001f3b56040518163ffffffff1660e01b8152600401602060405180830381865afa15801561043f573d6000803e3d6000fd5b505050506040513d601f19601f8201168201806040525081019061046391906124d5565b9050610470878783610cf4565b60405163349b2e2960e11b81529093506001600160a01b038816906369365c52906104a790849033908b908b908b906004016124f2565b6020604051808303816000875af11580156104c6573d6000803e3d6000fd5b505050506040513d601f19601f820116820180604052508101906104ea9190612546565b91505094509492505050565b6000610504838360016111b8565b90505b92915050565b60405163095ea7b360e01b81526001600160a01b037f000000000000000000000000000000000000000000000000000000000000000081166004830152600019602483015282169063095ea7b3906044016020604051808303816000875af115801561057d573d6000803e3d6000fd5b505050506040513d601f19601f820116820180604052508101906105a1919061255f565b5050565b6000610615856001600160a01b0316635001f3b56040518163ffffffff1660e01b8152600401602060405180830381865afa1580156105e8573d6000803e3d6000fd5b505050506040513d601f19601f8201168201806040525081019061060c91906124d5565b868686866112ad565b95945050505050565b60005b83811015610699576106873386868481811061063f5761063f61257c565b90506020020160208101906106549190611dd7565b8585858181106106665761066661257c565b90506020020135896001600160a01b0316611755909392919063ffffffff16565b80610691816125a8565b915050610621565b505050505050565b6000805487906001600160a01b031633148015906106c85750336001600160a01b03821614155b156106ed576040516340b3b69360e11b81523360048201526024015b60405180910390fd5b6001600160a01b03891663d505accf893089602088013561071460608a0160408b016125c1565b6040516001600160e01b031960e088901b1681526001600160a01b0395861660048201529490931660248501526044840191909152606483015260ff166084820152606086013560a4820152608086013560c482015260e401600060405180830381600087803b15801561078757600080fd5b505af115801561079b573d6000803e3d6000fd5b50505083351590506108695760006107b88b8b8b308b8b8b6117c2565b905060008b6001600160a01b0316635001f3b56040518163ffffffff1660e01b8152600401602060405180830381865afa1580156107fa573d6000803e3d6000fd5b505050506040513d601f19601f8201168201806040525081019061081e91906124d5565b90506108356001600160a01b038216338735611850565b610855896108448735856125e4565b6001600160a01b0384169190611850565b6108608535836125e4565b9350505061087b565b6108788a8a8a8a8a8a8a6117c2565b91505b5098975050505050505050565b6000546001600160a01b031633146108b5576040516340b3b69360e11b81523360048201526024016106e4565b6108c96001600160a01b0384168383611850565b505050565b6000546001600160a01b031633146108fb576040516340b3b69360e11b81523360048201526024016106e4565b600080546001600160a01b0319166001600160a01b0383169081178255604051909133917f6b1afd5bf12dcac0f44e8afd235c6681297d3124624a7a7a0d34abd84b7986259190a350565b6000546001600160a01b03163314610973576040516340b3b69360e11b81523360048201526024016106e4565b6000826001600160a01b03168260405160006040518083038185875af1925050503d80600081146109c0576040519150601f19603f3d011682016040523d82523d6000602084013e6109c5565b606091505b50509050806108c95760405163f82a0ab760e01b815260040160405180910390fd5b60005b85811015610a5057610a3d88888884818110610a0857610a0861257c565b9050602002016020810190610a1d9190611dd7565b878785818110610a2f57610a2f61257c565b9050602002013586866112ad565b5080610a48816125a8565b9150506109ea565b5050505050505050565b6000806000896001600160a01b0316635001f3b56040518163ffffffff1660e01b8152600401602060405180830381865afa158015610a9d573d6000803e3d6000fd5b505050506040513d601f19601f82011682018060405250810190610ac191906124d5565b6040516370a0823160e01b81526001600160a01b038c811660048301529192506000918316906370a0823190602401602060405180830381865afa158015610b0d573d6000803e3d6000fd5b505050506040513d601f19601f82011682018060405250810190610b319190612546565b9050610b408a898b8a8f611371565b6040516370a0823160e01b81526001600160a01b038d811660048301529195506000918416906370a0823190602401602060405180830381865afa158015610b8c573d6000803e3d6000fd5b505050506040513d601f19601f82011682018060405250810190610bb09190612546565b9050610bbc82826125e4565b8b14610bef578a610bcd83836125e4565b604051630a720dfb60e01b8152600481019290925260248201526044016106e4565b6001600160a01b038c166369365c528433610c0a86866125e4565b8b8b6040518663ffffffff1660e01b8152600401610c2c9594939291906124f2565b6020604051808303816000875af1158015610c4b573d6000803e3d6000fd5b505050506040513d601f19601f82011682018060405250810190610c6f9190612546565b935050505097509795505050505050565b6000816001600160a01b03163460405160006040518083038185875af1925050503d8060008114610ccd576040519150601f19603f3d011682016040523d82523d6000602084013e610cd2565b606091505b50509050806105a15760405163f82a0ab760e01b815260040160405180910390fd5b60007f000000000000000000000000000000000000000000000000000000000000000073e4f27b04cc7729901876b44f4eaa5102ec150264196001600160a01b03841601610ea85760006040518060a00160405280856101f473da10009cbd5d07dd0cecc66161fc93d7c9000da1610bb87f00000000000000000000000000000000000000000000000000000000000000006001600160a01b0316634aa4a4fc6040518163ffffffff1660e01b8152600401602060405180830381865afa158015610dc3573d6000803e3d6000fd5b505050506040513d601f19601f82011682018060405250810190610de791906124d5565b604051602001610dfb9594939291906125f7565b6040516020818303038152906040528152602001876001600160a01b03168152602001428152602001868152602001348152509050816001600160a01b031663f28c049834836040518363ffffffff1660e01b8152600401610e5d91906126ea565b60206040518083038185885af1158015610e7b573d6000803e3d6000fd5b50505050506040513d601f19601f82011682018060405250810190610ea09190612546565b92505061106b565b60006040518061010001604052807f00000000000000000000000000000000000000000000000000000000000000006001600160a01b0316634aa4a4fc6040518163ffffffff1660e01b8152600401602060405180830381865afa158015610f14573d6000803e3d6000fd5b505050506040513d601f19601f82011682018060405250810190610f3891906124d5565b6001600160a01b03168152602001856001600160a01b03168152602001610bb862ffffff168152602001876001600160a01b0316815260200142815260200186815260200134815260200160006001600160a01b03168152509050816001600160a01b031663db3e219834836040518363ffffffff1660e01b8152600401611024919081516001600160a01b03908116825260208084015182169083015260408084015162ffffff16908301526060808401518216908301526080808401519083015260a0838101519083015260c0808401519083015260e09283015116918101919091526101000190565b60206040518083038185885af1158015611042573d6000803e3d6000fd5b50505050506040513d601f19601f820116820180604052508101906110679190612546565b9250505b3482101561113b57806001600160a01b03166312210e8a6040518163ffffffff1660e01b8152600401600060405180830381600087803b1580156110ae57600080fd5b505af11580156110c2573d6000803e3d6000fd5b50600092503391506110d6905084346125e4565b604051600081818185875af1925050503d8060008114611112576040519150601f19603f3d011682016040523d82523d6000602084013e611117565b606091505b50509050806111395760405163f82a0ab760e01b815260040160405180910390fd5b505b509392505050565b6000805488906001600160a01b0316331480159061116a5750336001600160a01b03821614155b1561118a576040516340b3b69360e11b81523360048201526024016106e4565b61119a8b8b8b308c8c8c8c6106a1565b60608501526111a98484611881565b9b9a5050505050505050505050565b6000811561125857604051632f80bb1d60e01b81526001600160a01b037f00000000000000000000000000000000000000000000000000000000000000001690632f80bb1d9061120e90869088906004016126fd565b6020604051808303816000875af115801561122d573d6000803e3d6000fd5b505050506040513d601f19601f820116820180604052508101906112519190612546565b90506112a6565b60405163cdca175360e01b81526001600160a01b037f0000000000000000000000000000000000000000000000000000000000000000169063cdca17539061120e90869088906004016126fd565b9392505050565b60006112c46001600160a01b038716338787611755565b60405163349b2e2960e11b81526001600160a01b038616906369365c52906112f890899033908990899089906004016124f2565b6020604051808303816000875af1158015611317573d6000803e3d6000fd5b505050506040513d601f19601f8201168201806040525081019061133b9190612546565b9695505050505050565b6000611356888833308a8a8a6117c2565b60608401526113658383611881565b98975050505050505050565b60007f00000000000000000000000000000000000000000000000000000000000000006113a96001600160a01b038616333089611755565b6040805160a0810182528581526001600160a01b0380861660208301524282840152606082018a9052608082018990529151631e51809360e31b8152909183169063f28c0498906113fe9084906004016126ea565b6020604051808303816000875af115801561141d573d6000803e3d6000fd5b505050506040513d601f19601f820116820180604052508101906114419190612546565b92508683101561146a5761146a33611459858a6125e4565b6001600160a01b0389169190611850565b505095945050505050565b600080826001600160a01b0316635001f3b56040518163ffffffff1660e01b8152600401602060405180830381865afa1580156114b6573d6000803e3d6000fd5b505050506040513d601f19601f820116820180604052508101906114da91906124d5565b905073e4f27b04cc7729901876b44f4eaa5102ec150264196001600160a01b0382160161165a577f00000000000000000000000000000000000000000000000000000000000000006001600160a01b0316632f80bb1d826101f473da10009cbd5d07dd0cecc66161fc93d7c9000da1610bb87f00000000000000000000000000000000000000000000000000000000000000006001600160a01b0316634aa4a4fc6040518163ffffffff1660e01b8152600401602060405180830381865afa1580156115aa573d6000803e3d6000fd5b505050506040513d601f19601f820116820180604052508101906115ce91906124d5565b6040516020016115e29594939291906125f7565b604051602081830303815290604052866040518363ffffffff1660e01b815260040161160f9291906126fd565b6020604051808303816000875af115801561162e573d6000803e3d6000fd5b505050506040513d601f19601f820116820180604052508101906116529190612546565b915050610507565b7f00000000000000000000000000000000000000000000000000000000000000006001600160a01b03166330d07f217f00000000000000000000000000000000000000000000000000000000000000006001600160a01b0316634aa4a4fc6040518163ffffffff1660e01b8152600401602060405180830381865afa1580156116e7573d6000803e3d6000fd5b505050506040513d601f19601f8201168201806040525081019061170b91906124d5565b6040516001600160e01b031960e084901b1681526001600160a01b0391821660048201529084166024820152610bb86044820152606481018790526000608482015260a40161160f565b6040516001600160a01b0384811660248301528381166044830152606482018390526117bc9186918216906323b872dd906084015b604051602081830303815290604052915060e01b6020820180516001600160e01b038381831617835250505050611a03565b50505050565b60006117d96001600160a01b038816878a87611755565b60405163349b2e2960e11b81526001600160a01b038916906369365c529061180d908a9089908990899089906004016124f2565b6020604051808303816000875af115801561182c573d6000803e3d6000fd5b505050506040513d601f19601f820116820180604052508101906113659190612546565b6040516001600160a01b038381166024830152604482018390526108c991859182169063a9059cbb9060640161178a565b600081156119fa576020830180513090915261189c84611a66565b91507f00000000000000000000000000000000000000000000000000000000000000006001600160a01b0316634aa4a4fc6040518163ffffffff1660e01b8152600401602060405180830381865afa1580156118fc573d6000803e3d6000fd5b505050506040513d601f19601f8201168201806040525081019061192091906124d5565b6001600160a01b0316632e1a7d4d836040518263ffffffff1660e01b815260040161194d91815260200190565b600060405180830381600087803b15801561196757600080fd5b505af115801561197b573d6000803e3d6000fd5b505050506000816001600160a01b03168360405160006040518083038185875af1925050503d80600081146119cc576040519150601f19603f3d011682016040523d82523d6000602084013e6119d1565b606091505b50509050806119f35760405163f82a0ab760e01b815260040160405180910390fd5b5050610507565b61050483611a66565b6000611a186001600160a01b03841683611b34565b90508051600014158015611a3d575080806020019051810190611a3b919061255f565b155b156108c957604051635274afe760e01b81526001600160a01b03841660048201526024016106e4565b60405163c04b8d5960e01b81526000906001600160a01b037f0000000000000000000000000000000000000000000000000000000000000000169063c04b8d5990611ab59085906004016126ea565b6020604051808303816000875af1158015611ad4573d6000803e3d6000fd5b505050506040513d601f19601f82011682018060405250810190611af89190612546565b90508160800151811015611b2f576080820151604051630a720dfb60e01b81526004810191909152602481018290526044016106e4565b919050565b60606105048383600060608251600014158015611b5957506001600160a01b0384163b155b15611b8257604051639eb1341360e01b81526001600160a01b03851660048201526024016106e4565b600080856001600160a01b03168486604051611b9e919061271f565b60006040518083038185875af1925050503d8060008114611bdb576040519150601f19603f3d011682016040523d82523d6000602084013e611be0565b606091505b50915091508115611bf45791506112a69050565b805115611c0357805160208201fd5b60405162461bcd60e51b815260206004820152600660248201526519985a5b195960d21b60448201526064016106e4565b6001600160a01b0381168114611c4957600080fd5b50565b60008083601f840112611c5e57600080fd5b5081356001600160401b03811115611c7557600080fd5b602083019150836020828501011115611c8d57600080fd5b9250929050565b60008060008060608587031215611caa57600080fd5b8435611cb581611c34565b93506020850135925060408501356001600160401b03811115611cd757600080fd5b611ce387828801611c4c565b95989497509550505050565b634e487b7160e01b600052604160045260246000fd5b600082601f830112611d1657600080fd5b81356001600160401b0380821115611d3057611d30611cef565b604051601f8301601f19908116603f01168101908282118183101715611d5857611d58611cef565b81604052838152866020858801011115611d7157600080fd5b836020870160208301376000602085830101528094505050505092915050565b60008060408385031215611da457600080fd5b8235915060208301356001600160401b03811115611dc157600080fd5b611dcd85828601611d05565b9150509250929050565b600060208284031215611de957600080fd5b81356112a681611c34565b60008083601f840112611e0657600080fd5b5081356001600160401b03811115611e1d57600080fd5b6020830191508360208260051b8501011115611c8d57600080fd5b600080600080600060608688031215611e5057600080fd5b8535611e5b81611c34565b945060208601356001600160401b0380821115611e7757600080fd5b611e8389838a01611df4565b90965094506040880135915080821115611e9c57600080fd5b50611ea988828901611df4565b969995985093965092949392505050565b600060a08284031215611ecc57600080fd5b50919050565b600080600080600080600080610160898b031215611eef57600080fd5b8835611efa81611c34565b97506020890135611f0a81611c34565b96506040890135611f1a81611c34565b95506060890135611f2a81611c34565b94506080890135935060a08901356001600160401b03811115611f4c57600080fd5b611f588b828c01611c4c565b9094509250611f6c90508a60c08b01611eba565b90509295985092959890939650565b600080600060608486031215611f9057600080fd5b8335611f9b81611c34565b92506020840135611fab81611c34565b929592945050506040919091013590565b60008060408385031215611fcf57600080fd5b8235611fda81611c34565b946020939093013593505050565b60008060008060008060006080888a03121561200357600080fd5b873561200e81611c34565b965060208801356001600160401b038082111561202a57600080fd5b6120368b838c01611df4565b909850965060408a013591508082111561204f57600080fd5b61205b8b838c01611df4565b909650945060608a013591508082111561207457600080fd5b506120818a828b01611c4c565b989b979a50959850939692959293505050565b600080600080600080600060c0888a0312156120af57600080fd5b87356120ba81611c34565b96506020880135955060408801356120d181611c34565b94506060880135935060808801356001600160401b03808211156120f457600080fd5b6121008b838c01611d05565b945060a08a013591508082111561207457600080fd5b60008060006060848603121561212b57600080fd5b833561213681611c34565b925060208401359150604084013561214d81611c34565b809150509250925092565b600060a0828403121561216a57600080fd5b60405160a081016001600160401b03828210818311171561218d5761218d611cef565b8160405282935084359150808211156121a557600080fd5b506121b285828601611d05565b82525060208301356121c381611c34565b806020830152506040830135604082015260608301356060820152608083013560808201525092915050565b8015158114611c4957600080fd5b60008060008060008060008060006101808a8c03121561221c57600080fd5b893561222781611c34565b985060208a013561223781611c34565b975060408a013561224781611c34565b965060608a0135955060808a01356001600160401b038082111561226a57600080fd5b6122768d838e01611c4c565b909750955085915061228b8d60a08e01611eba565b94506101408c01359150808211156122a257600080fd5b506122af8c828d01612158565b9250506101608a01356122c1816121ef565b809150509295985092959850929598565b6000806000606084860312156122e757600080fd5b8335925060208401356001600160401b0381111561230457600080fd5b61231086828701611d05565b925050604084013561214d816121ef565b60008060008060006080868803121561233957600080fd5b853561234481611c34565b9450602086013561235481611c34565b93506040860135925060608601356001600160401b0381111561237657600080fd5b611ea988828901611c4c565b600080600080600080600060c0888a03121561239d57600080fd5b87356123a881611c34565b965060208801356123b881611c34565b95506040880135945060608801356001600160401b03808211156123db57600080fd5b6123e78b838c01611c4c565b909650945060808a013591508082111561240057600080fd5b5061240d8a828b01612158565b92505060a088013561241e816121ef565b8091505092959891949750929550565b600080600080600060a0868803121561244657600080fd5b8535945060208601359350604086013561245f81611c34565b925060608601356001600160401b0381111561247a57600080fd5b61248688828901611d05565b925050608086013561249781611c34565b809150509295509295909350565b600080604083850312156124b857600080fd5b8235915060208301356124ca81611c34565b809150509250929050565b6000602082840312156124e757600080fd5b81516112a681611c34565b6001600160a01b038681168252851660208201526040810184905260806060820181905281018290526000828460a0840137600060a0848401015260a0601f19601f85011683010190509695505050505050565b60006020828403121561255857600080fd5b5051919050565b60006020828403121561257157600080fd5b81516112a6816121ef565b634e487b7160e01b600052603260045260246000fd5b634e487b7160e01b600052601160045260246000fd5b6000600182016125ba576125ba612592565b5060010190565b6000602082840312156125d357600080fd5b813560ff811681146112a657600080fd5b8181038181111561050757610507612592565b6bffffffffffffffffffffffff19606096871b811682526001600160e81b031960e896871b8116601484015294871b811660178301529290941b909216602b840152921b909116602e82015260420190565b60005b8381101561266457818101518382015260200161264c565b50506000910152565b60008151808452612685816020860160208601612649565b601f01601f19169290920160200192915050565b6000815160a084526126ae60a085018261266d565b6020848101516001600160a01b031690860152604080850151908601526060808501519086015260809384015193909401929092525090919050565b6020815260006105046020830184612699565b604081526000612710604083018561266d565b90508260208301529392505050565b60008251612731818460208701612649565b919091019291505056fea26469706673582212201698d2f67fd89fb3ef9cdccee5fd83d7ce23281903ff0a5cfdce575a81c81e2164736f6c63430008150033",
  "devdoc": {
    "errors": {
      "Address_NotTransferNorContract(address)": [
        {
          "params": {
            "target": "Target address to call the function on."
          }
        }
      ],
      "PaymentHub_InvalidSender(address)": [
        {
          "params": {
            "sender": "The msg.sender of this transaction."
          }
        }
      ],
      "PaymentHub_SwapError(uint256,uint256)": [
        {
          "params": {
            "amountBase": "Required amount.",
            "swappedAmount": "Swapped amount."
          }
        }
      ],
      "SafeERC20FailedOperation(address)": [
        {
          "details": "An operation with an ERC20 token failed."
        }
      ]
    },
    "kind": "dev",
    "methods": {
      "approveERC20(address)": {
        "details": "This function needs to be called before using the PaymentHub the first time with a new ERC20 token.",
        "params": {
          "erc20In": "The erc20 addresse to approve."
        }
      },
      "changeForwarder(address)": {
        "params": {
          "newForwarder": "The new trusted forwarder."
        }
      },
      "getPriceERC20(uint256,bytes,bool)": {
        "params": {
          "amount": "The exact amount which you want get out (exactOutput) or you put in (exactInput).",
          "exactOutput": "True if exactOutput should be used or false if exactInput should be used.",
          "path": "The path of the swap (inreverse order for exactOutput)."
        }
      },
      "getPriceInERC20(uint256,bytes)": {
        "params": {
          "amountInBase": "The amount of the base currency for the exact output.",
          "path": "The encoded path of the swap from erc20 to base."
        },
        "returns": {
          "_0": "amount quoted to pay"
        }
      },
      "getPriceInEther(uint256,address)": {
        "returns": {
          "_0": "The price in wei."
        }
      },
      "payAndNotify(address,uint256,bytes)": {
        "details": "Equivalent to xchf.transferAndCall(brokerbot, amountInBase)",
        "params": {
          "amountInBase": "The amount of base currency used to buy shares.",
          "brokerbot": "The brokerbot to pay and receive the shares from.",
          "ref": "The reference data blob."
        },
        "returns": {
          "_0": "The amount of shares bought"
        }
      },
      "payFromERC20(uint256,uint256,address,bytes,address)": {
        "details": "The calling address must approve this contract to spend its ERC20 for this function to succeed. As the amount of input ERC20 is variable, the calling address will need to approve for a slightly higher or infinit amount, anticipating some variance.",
        "params": {
          "amountInMaximum": "The maximum amount of ERC20 willing to be swapped for the specified amountOut of baseCurrency.",
          "amountOut": "The desired amount of baseCurrency.",
          "erc20In": "The address of the erc20 token to pay with.",
          "path": "The encoded path of the swap from erc20 to base.",
          "recipient": "The reciving address - brokerbot."
        },
        "returns": {
          "amountIn": "The amountIn of ERC20 actually spent to receive the desired amountOut."
        }
      },
      "recover(address,address,uint256)": {
        "params": {
          "amount": "The amount of tokens to transfer.",
          "ercAddress": "The erc20 address.",
          "to": "The address to transfer tokens to."
        }
      },
      "sellSharesAndSwap(address,address,uint256,bytes,(bytes,address,uint256,uint256,uint256),bool)": {
        "params": {
          "amountToSell": "The amount of shares to sell.",
          "brokerbot": "The brokerbot of the shares to sell.",
          "params": "Information about the swap.",
          "ref": "Reference e.g. insider declaration and the type of sell.",
          "shares": "The (draggable)shares address."
        },
        "returns": {
          "_0": "The output amount of the swap to the desired token."
        }
      },
      "sellSharesWithPermit(address,address,address,address,uint256,bytes,(uint256,uint256,uint8,bytes32,bytes32))": {
        "params": {
          "amountToSell": "The amount the seller wants to sell.",
          "brokerbot": "The brokerbot to recive the shares.",
          "permitInfo": "Information about the permit.",
          "recipient": "The address of the recipient of the sell preceeds.",
          "ref": "Reference e.g. insider declaration and the type of sell.",
          "seller": "The address of the seller."
        },
        "returns": {
          "_0": "The base currency amount for the selling of the shares."
        }
      },
      "sellSharesWithPermitAndSwap(address,address,address,uint256,bytes,(uint256,uint256,uint8,bytes32,bytes32),(bytes,address,uint256,uint256,uint256),bool)": {
        "params": {
          "amountToSell": "The amount of shares to sell.",
          "brokerbot": "The brokerbot of the shares to sell.",
          "params": "Information about the swap.",
          "permitInfo": "Information about the permit.",
          "ref": "Reference e.g. insider declaration and the type of sell.",
          "seller": "The seller address.",
          "shares": "The (draggable)shares address."
        },
        "returns": {
          "_0": "The output amount of the swap to the desired token."
        }
      },
      "transferEther(address)": {
        "details": "Used with the mutlisigwallet.",
        "params": {
          "to": "The address to transfer ether to."
        }
      },
      "withdrawEther(address,uint256)": {
        "params": {
          "to": "The address to transfer ether to."
        }
      }
    },
    "version": 1
  },
  "userdoc": {
    "errors": {
      "PaymentHub_InvalidSender(address)": [
        {
          "notice": "Sender not trusted."
        }
      ],
      "PaymentHub_SwapError(uint256,uint256)": [
        {
          "notice": "swap with less base token as required."
        }
      ],
      "PaymentHub_TransferFailed()": [
        {
          "notice": "Failguard when an erc20 transfer returns false."
        }
      ]
    },
    "kind": "user",
    "methods": {
      "approveERC20(address)": {
        "notice": "This function appoves infinite allowance for Uniswap, this is safe as the paymenthub should never hold any token (see also recover() )."
      },
      "changeForwarder(address)": {
        "notice": "Change the trusted forwarder."
      },
      "getPriceERC20(uint256,bytes,bool)": {
        "notice": "Get price for given amount and path swapped via uniswap."
      },
      "getPriceInERC20(uint256,bytes)": {
        "notice": "Get price in ERC20 This is the method that the Brokerbot widget should use to quote the price to the user."
      },
      "getPriceInEther(uint256,address)": {
        "notice": "This is the method that the Brokerbot widget should use to quote the price to the user."
      },
      "multiPayAndNotify(address,address[],uint256[],bytes)": {
        "notice": "Can (at least in theory) save some gas as the sender balance only is touched in one transaction."
      },
      "payAndNotify(address,uint256,bytes)": {
        "notice": "Allows to make a base currency payment from the sender to the brokerbot, given an allowance to this contract."
      },
      "payFromEther(address,uint256,address)": {
        "notice": "Convenience method to swap ether into base and pay a target address"
      },
      "recover(address,address,uint256)": {
        "notice": "In case tokens have been accidentally sent directly to this contract. Only Forwarder can withdraw, else a MEV bot will intercept it."
      },
      "sellSharesAndSwap(address,address,uint256,bytes,(bytes,address,uint256,uint256,uint256),bool)": {
        "notice": "With this function a user can sell shares and swap them to a desired token. The user has to approve the paymenthub before on the shares contract."
      },
      "sellSharesWithPermit(address,address,address,address,uint256,bytes,(uint256,uint256,uint8,bytes32,bytes32))": {
        "notice": "Sell shares with permit"
      },
      "sellSharesWithPermitAndSwap(address,address,address,uint256,bytes,(uint256,uint256,uint8,bytes32,bytes32),(bytes,address,uint256,uint256,uint256),bool)": {
        "notice": "With this function a user can sell shares with permit and swap them to a desired token."
      },
      "transferEther(address)": {
        "notice": "Transfer ether to a given address."
      },
      "withdrawEther(address,uint256)": {
        "notice": "Transfer ether to a given address. Only Forwarder can withdraw, else a MEV bot will intercept it."
      }
    },
    "notice": "A hub for payments. This allows tokens that do not support ERC 677 to enjoy similar functionality, namely interacting with a token-handling smart contract in one transaction, without having to set an allowance first. Instead, an allowance needs to be set only once, namely for this contract. Further, it supports automatic conversion from Ether to the payment currency through Uniswap or the reception of Ether using the current exchange rate as found in the chainlink oracle.",
    "version": 1
  },
  "storageLayout": {
    "storage": [
      {
        "astId": 3892,
        "contract": "src/brokerbot/PaymentHub.sol:PaymentHub",
        "label": "trustedForwarder",
        "offset": 0,
        "slot": "0",
        "type": "t_address"
      }
    ],
    "types": {
      "t_address": {
        "encoding": "inplace",
        "label": "address",
        "numberOfBytes": "20"
      }
    }
  }
}