{
  "address": "0x8e5bCEB487ded5544aa0DBD1bE7572C47Ad0a9cB",
  "abi": [
    {
      "inputs": [
        {
          "internalType": "contract ISwapRouter",
          "name": "_uniswapRouter",
          "type": "address"
        },
        {
          "internalType": "contract IERC20",
          "name": "_swapFrom",
          "type": "address"
        },
        {
          "internalType": "contract IERC20",
          "name": "_swapTo",
          "type": "address"
        }
      ],
      "stateMutability": "nonpayable",
      "type": "constructor"
    },
    {
      "inputs": [
        {
          "internalType": "address",
          "name": "target",
          "type": "address"
        }
      ],
      "name": "Address_NotTransferNorContract",
      "type": "error"
    },
    {
      "inputs": [
        {
          "internalType": "address",
          "name": "token",
          "type": "address"
        }
      ],
      "name": "SafeERC20FailedOperation",
      "type": "error"
    },
    {
      "inputs": [],
      "name": "FEE",
      "outputs": [
        {
          "internalType": "uint256",
          "name": "",
          "type": "uint256"
        }
      ],
      "stateMutability": "view",
      "type": "function"
    },
    {
      "inputs": [],
      "name": "SLIPPAGE",
      "outputs": [
        {
          "internalType": "uint256",
          "name": "",
          "type": "uint256"
        }
      ],
      "stateMutability": "view",
      "type": "function"
    },
    {
      "inputs": [
        {
          "internalType": "uint256",
          "name": "amount",
          "type": "uint256"
        }
      ],
      "name": "swap",
      "outputs": [],
      "stateMutability": "nonpayable",
      "type": "function"
    },
    {
      "inputs": [],
      "name": "swapFrom",
      "outputs": [
        {
          "internalType": "contract IERC20",
          "name": "",
          "type": "address"
        }
      ],
      "stateMutability": "view",
      "type": "function"
    },
    {
      "inputs": [],
      "name": "swapTo",
      "outputs": [
        {
          "internalType": "contract IERC20",
          "name": "",
          "type": "address"
        }
      ],
      "stateMutability": "view",
      "type": "function"
    },
    {
      "inputs": [],
      "name": "uniswapRouter",
      "outputs": [
        {
          "internalType": "contract ISwapRouter",
          "name": "",
          "type": "address"
        }
      ],
      "stateMutability": "view",
      "type": "function"
    }
  ],
  "transactionHash": "0x044dfb734038de79275c7b1fbc2cd74c7515a06925654e88d2d8019c0fb22ce5",
  "args": [
    "0xE592427A0AEce92De3Edee1F18E0157C05861564",
    "0xE4F27b04cC7729901876B44f4EAA5102EC150265",
    "0x4F8a84C442F9675610c680990EdDb2CCDDB8aB6f"
  ],
  "numDeployments": 1,
  "solcInputHash": "66bd56699d2eacbf1c63acdb304f0e92",
  "bytecode": "0x60e060405234801561001057600080fd5b5060405161076838038061076883398101604081905261002f916100d7565b6001600160a01b03838116608081905283821660a081905291831660c05260405163095ea7b360e01b81526004810191909152600019602482015263095ea7b3906044016020604051808303816000875af1158015610092573d6000803e3d6000fd5b505050506040513d601f19601f820116820180604052508101906100b69190610124565b5050505061014d565b6001600160a01b03811681146100d457600080fd5b50565b6000806000606084860312156100ec57600080fd5b83516100f7816100bf565b6020850151909350610108816100bf565b6040850151909250610119816100bf565b809150509250925092565b60006020828403121561013657600080fd5b8151801515811461014657600080fd5b9392505050565b60805160a05160c0516105d26101966000396000818161010301526101c101526000818160c70152818161013a015261019c0152600081816088015261027001526105d26000f3fe608060405234801561001057600080fd5b50600436106100625760003560e01c806336b4134a14610067578063735de9f714610083578063911ea40a146100c257806394b918de146100e95780639fc8c851146100fe578063c57981b514610125575b600080fd5b61007061012c81565b6040519081526020015b60405180910390f35b6100aa7f000000000000000000000000000000000000000000000000000000000000000081565b6040516001600160a01b03909116815260200161007a565b6100aa7f000000000000000000000000000000000000000000000000000000000000000081565b6100fc6100f73660046104b7565b61012d565b005b6100aa7f000000000000000000000000000000000000000000000000000000000000000081565b610070606481565b6101626001600160a01b037f0000000000000000000000000000000000000000000000000000000000000000163330846102e4565b600061271061017361012c826104e6565b61017d90846104f9565b6101879190610510565b60408051610100810182526001600160a01b037f0000000000000000000000000000000000000000000000000000000000000000811682527f000000000000000000000000000000000000000000000000000000000000000081166020830190815260648385018181523360608601908152426080870190815260a087018b815260c088018a8152600060e08a01908152995163414bf38960e01b8152895189166004820152965188166024880152935162ffffff166044870152915186169385019390935291516084840152905160a48301525160c48201529251811660e4840152929350917f0000000000000000000000000000000000000000000000000000000000000000169063414bf38990610104016020604051808303816000875af11580156102ba573d6000803e3d6000fd5b505050506040513d601f19601f820116820180604052508101906102de9190610532565b50505050565b604080516001600160a01b038581166024830152848116604483015260648083018590528351808403909101815260849092019092526020810180516001600160e01b03166323b872dd60e01b1790526102de9186919060009061034a908416836103a2565b9050805160001415801561036f57508080602001905181019061036d919061054b565b155b1561039d57604051635274afe760e01b81526001600160a01b03841660048201526024015b60405180910390fd5b505050565b60606103b0838360006103b9565b90505b92915050565b606082516000141580156103d557506001600160a01b0384163b155b156103fe57604051639eb1341360e01b81526001600160a01b0385166004820152602401610394565b600080856001600160a01b0316848660405161041a919061056d565b60006040518083038185875af1925050503d8060008114610457576040519150601f19603f3d011682016040523d82523d6000602084013e61045c565b606091505b509150915081156104705791506104b09050565b80511561047f57805160208201fd5b60405162461bcd60e51b815260206004820152600660248201526519985a5b195960d21b6044820152606401610394565b9392505050565b6000602082840312156104c957600080fd5b5035919050565b634e487b7160e01b600052601160045260246000fd5b818103818111156103b3576103b36104d0565b80820281158282048414176103b3576103b36104d0565b60008261052d57634e487b7160e01b600052601260045260246000fd5b500490565b60006020828403121561054457600080fd5b5051919050565b60006020828403121561055d57600080fd5b815180151581146104b057600080fd5b6000825160005b8181101561058e5760208186018101518583015201610574565b50600092019182525091905056fea2646970667358221220fcde5e812ea77fb6cd65804c7f4151fa7b4da3f01b20fd25647ad909219469f064736f6c63430008190033",
  "devdoc": {
    "errors": {
      "Address_NotTransferNorContract(address)": [
        {
          "params": {
            "target": "Target address to call the function on."
          }
        }
      ],
      "SafeERC20FailedOperation(address)": [
        {
          "details": "An operation with an ERC20 token failed."
        }
      ]
    },
    "kind": "dev",
    "methods": {},
    "version": 1
  },
  "userdoc": {
    "kind": "user",
    "methods": {},
    "version": 1
  },
  "storageLayout": {
    "storage": [],
    "types": null
  }
}