{
  "address": "0x606795077CeF55d61bcffF343Ff0919D1dC497a3",
  "abi": [
    {
      "inputs": [
        {
          "internalType": "string",
          "name": "_symbol",
          "type": "string"
        },
        {
          "internalType": "string",
          "name": "_name",
          "type": "string"
        },
        {
          "internalType": "string",
          "name": "_terms",
          "type": "string"
        },
        {
          "internalType": "uint256",
          "name": "_totalShares",
          "type": "uint256"
        },
        {
          "internalType": "contract IRecoveryHub",
          "name": "_recoveryHub",
          "type": "address"
        },
        {
          "internalType": "address",
          "name": "_owner",
          "type": "address"
        }
      ],
      "stateMutability": "nonpayable",
      "type": "constructor"
    },
    {
      "anonymous": false,
      "inputs": [
        {
          "indexed": true,
          "internalType": "address",
          "name": "account",
          "type": "address"
        },
        {
          "indexed": false,
          "internalType": "uint8",
          "name": "addressType",
          "type": "uint8"
        }
      ],
      "name": "AddressTypeUpdate",
      "type": "event"
    },
    {
      "anonymous": false,
      "inputs": [
        {
          "indexed": false,
          "internalType": "string",
          "name": "message",
          "type": "string"
        }
      ],
      "name": "Announcement",
      "type": "event"
    },
    {
      "anonymous": false,
      "inputs": [
        {
          "indexed": true,
          "internalType": "address",
          "name": "owner",
          "type": "address"
        },
        {
          "indexed": true,
          "internalType": "address",
          "name": "spender",
          "type": "address"
        },
        {
          "indexed": false,
          "internalType": "uint256",
          "name": "value",
          "type": "uint256"
        }
      ],
      "name": "Approval",
      "type": "event"
    },
    {
      "anonymous": false,
      "inputs": [
        {
          "indexed": false,
          "internalType": "string",
          "name": "terms",
          "type": "string"
        }
      ],
      "name": "ChangeTerms",
      "type": "event"
    },
    {
      "anonymous": false,
      "inputs": [
        {
          "indexed": false,
          "internalType": "uint256",
          "name": "total",
          "type": "uint256"
        }
      ],
      "name": "ChangeTotalShares",
      "type": "event"
    },
    {
      "anonymous": false,
      "inputs": [
        {
          "indexed": false,
          "internalType": "string",
          "name": "name",
          "type": "string"
        },
        {
          "indexed": false,
          "internalType": "string",
          "name": "symbol",
          "type": "string"
        }
      ],
      "name": "NameChanged",
      "type": "event"
    },
    {
      "anonymous": false,
      "inputs": [
        {
          "indexed": true,
          "internalType": "address",
          "name": "previousOwner",
          "type": "address"
        },
        {
          "indexed": true,
          "internalType": "address",
          "name": "newOwner",
          "type": "address"
        }
      ],
      "name": "OwnershipTransferred",
      "type": "event"
    },
    {
      "anonymous": false,
      "inputs": [
        {
          "indexed": true,
          "internalType": "address",
          "name": "holder",
          "type": "address"
        },
        {
          "indexed": false,
          "internalType": "uint256",
          "name": "amount",
          "type": "uint256"
        },
        {
          "indexed": false,
          "internalType": "string",
          "name": "message",
          "type": "string"
        }
      ],
      "name": "TokensDeclaredInvalid",
      "type": "event"
    },
    {
      "anonymous": false,
      "inputs": [
        {
          "indexed": true,
          "internalType": "address",
          "name": "from",
          "type": "address"
        },
        {
          "indexed": true,
          "internalType": "address",
          "name": "to",
          "type": "address"
        },
        {
          "indexed": false,
          "internalType": "uint256",
          "name": "value",
          "type": "uint256"
        }
      ],
      "name": "Transfer",
      "type": "event"
    },
    {
      "inputs": [],
      "name": "DOMAIN_SEPARATOR",
      "outputs": [
        {
          "internalType": "bytes32",
          "name": "",
          "type": "bytes32"
        }
      ],
      "stateMutability": "view",
      "type": "function"
    },
    {
      "inputs": [],
      "name": "VERSION",
      "outputs": [
        {
          "internalType": "uint8",
          "name": "",
          "type": "uint8"
        }
      ],
      "stateMutability": "view",
      "type": "function"
    },
    {
      "inputs": [
        {
          "internalType": "address",
          "name": "owner",
          "type": "address"
        },
        {
          "internalType": "address",
          "name": "spender",
          "type": "address"
        }
      ],
      "name": "allowance",
      "outputs": [
        {
          "internalType": "uint256",
          "name": "",
          "type": "uint256"
        }
      ],
      "stateMutability": "view",
      "type": "function"
    },
    {
      "inputs": [
        {
          "internalType": "string",
          "name": "message",
          "type": "string"
        }
      ],
      "name": "announcement",
      "outputs": [],
      "stateMutability": "nonpayable",
      "type": "function"
    },
    {
      "inputs": [
        {
          "internalType": "address",
          "name": "spender",
          "type": "address"
        },
        {
          "internalType": "uint256",
          "name": "value",
          "type": "uint256"
        }
      ],
      "name": "approve",
      "outputs": [
        {
          "internalType": "bool",
          "name": "",
          "type": "bool"
        }
      ],
      "stateMutability": "nonpayable",
      "type": "function"
    },
    {
      "inputs": [
        {
          "internalType": "address",
          "name": "account",
          "type": "address"
        }
      ],
      "name": "balanceOf",
      "outputs": [
        {
          "internalType": "uint256",
          "name": "",
          "type": "uint256"
        }
      ],
      "stateMutability": "view",
      "type": "function"
    },
    {
      "inputs": [
        {
          "internalType": "uint256",
          "name": "_amount",
          "type": "uint256"
        }
      ],
      "name": "burn",
      "outputs": [],
      "stateMutability": "nonpayable",
      "type": "function"
    },
    {
      "inputs": [
        {
          "internalType": "address",
          "name": "account",
          "type": "address"
        }
      ],
      "name": "canReceiveFromAnyone",
      "outputs": [
        {
          "internalType": "bool",
          "name": "",
          "type": "bool"
        }
      ],
      "stateMutability": "view",
      "type": "function"
    },
    {
      "inputs": [],
      "name": "claimPeriod",
      "outputs": [
        {
          "internalType": "uint256",
          "name": "",
          "type": "uint256"
        }
      ],
      "stateMutability": "pure",
      "type": "function"
    },
    {
      "inputs": [],
      "name": "customCollateralAddress",
      "outputs": [
        {
          "internalType": "contract IERC20",
          "name": "",
          "type": "address"
        }
      ],
      "stateMutability": "view",
      "type": "function"
    },
    {
      "inputs": [],
      "name": "customCollateralRate",
      "outputs": [
        {
          "internalType": "uint256",
          "name": "",
          "type": "uint256"
        }
      ],
      "stateMutability": "view",
      "type": "function"
    },
    {
      "inputs": [],
      "name": "decimals",
      "outputs": [
        {
          "internalType": "uint8",
          "name": "",
          "type": "uint8"
        }
      ],
      "stateMutability": "view",
      "type": "function"
    },
    {
      "inputs": [
        {
          "internalType": "address",
          "name": "holder",
          "type": "address"
        },
        {
          "internalType": "uint256",
          "name": "amount",
          "type": "uint256"
        },
        {
          "internalType": "string",
          "name": "message",
          "type": "string"
        }
      ],
      "name": "declareInvalid",
      "outputs": [],
      "stateMutability": "nonpayable",
      "type": "function"
    },
    {
      "inputs": [
        {
          "internalType": "address",
          "name": "lostAddress",
          "type": "address"
        }
      ],
      "name": "deleteClaim",
      "outputs": [],
      "stateMutability": "nonpayable",
      "type": "function"
    },
    {
      "inputs": [],
      "name": "getClaimDeleter",
      "outputs": [
        {
          "internalType": "address",
          "name": "",
          "type": "address"
        }
      ],
      "stateMutability": "view",
      "type": "function"
    },
    {
      "inputs": [
        {
          "internalType": "contract IERC20",
          "name": "collateralType",
          "type": "address"
        }
      ],
      "name": "getCollateralRate",
      "outputs": [
        {
          "internalType": "uint256",
          "name": "",
          "type": "uint256"
        }
      ],
      "stateMutability": "view",
      "type": "function"
    },
    {
      "inputs": [
        {
          "internalType": "address",
          "name": "account",
          "type": "address"
        },
        {
          "internalType": "uint8",
          "name": "number",
          "type": "uint8"
        }
      ],
      "name": "hasFlag",
      "outputs": [
        {
          "internalType": "bool",
          "name": "",
          "type": "bool"
        }
      ],
      "stateMutability": "view",
      "type": "function"
    },
    {
      "inputs": [],
      "name": "invalidTokens",
      "outputs": [
        {
          "internalType": "uint256",
          "name": "",
          "type": "uint256"
        }
      ],
      "stateMutability": "view",
      "type": "function"
    },
    {
      "inputs": [
        {
          "internalType": "address",
          "name": "account",
          "type": "address"
        }
      ],
      "name": "isForbidden",
      "outputs": [
        {
          "internalType": "bool",
          "name": "",
          "type": "bool"
        }
      ],
      "stateMutability": "view",
      "type": "function"
    },
    {
      "inputs": [
        {
          "internalType": "address",
          "name": "account",
          "type": "address"
        }
      ],
      "name": "isPowerlisted",
      "outputs": [
        {
          "internalType": "bool",
          "name": "",
          "type": "bool"
        }
      ],
      "stateMutability": "view",
      "type": "function"
    },
    {
      "inputs": [
        {
          "internalType": "address",
          "name": "target",
          "type": "address"
        },
        {
          "internalType": "uint256",
          "name": "amount",
          "type": "uint256"
        }
      ],
      "name": "mint",
      "outputs": [],
      "stateMutability": "nonpayable",
      "type": "function"
    },
    {
      "inputs": [
        {
          "internalType": "address",
          "name": "shareholder",
          "type": "address"
        },
        {
          "internalType": "address",
          "name": "callee",
          "type": "address"
        },
        {
          "internalType": "uint256",
          "name": "amount",
          "type": "uint256"
        },
        {
          "internalType": "bytes",
          "name": "data",
          "type": "bytes"
        }
      ],
      "name": "mintAndCall",
      "outputs": [],
      "stateMutability": "nonpayable",
      "type": "function"
    },
    {
      "inputs": [
        {
          "internalType": "address[]",
          "name": "target",
          "type": "address[]"
        },
        {
          "internalType": "uint256[]",
          "name": "amount",
          "type": "uint256[]"
        }
      ],
      "name": "mintMany",
      "outputs": [],
      "stateMutability": "nonpayable",
      "type": "function"
    },
    {
      "inputs": [
        {
          "internalType": "address[]",
          "name": "target",
          "type": "address[]"
        },
        {
          "internalType": "address",
          "name": "callee",
          "type": "address"
        },
        {
          "internalType": "uint256[]",
          "name": "amount",
          "type": "uint256[]"
        },
        {
          "internalType": "bytes",
          "name": "data",
          "type": "bytes"
        }
      ],
      "name": "mintManyAndCall",
      "outputs": [],
      "stateMutability": "nonpayable",
      "type": "function"
    },
    {
      "inputs": [],
      "name": "name",
      "outputs": [
        {
          "internalType": "string",
          "name": "",
          "type": "string"
        }
      ],
      "stateMutability": "view",
      "type": "function"
    },
    {
      "inputs": [
        {
          "internalType": "address",
          "name": "",
          "type": "address"
        }
      ],
      "name": "nonces",
      "outputs": [
        {
          "internalType": "uint256",
          "name": "",
          "type": "uint256"
        }
      ],
      "stateMutability": "view",
      "type": "function"
    },
    {
      "inputs": [
        {
          "internalType": "address",
          "name": "target",
          "type": "address"
        }
      ],
      "name": "notifyClaimDeleted",
      "outputs": [],
      "stateMutability": "nonpayable",
      "type": "function"
    },
    {
      "inputs": [
        {
          "internalType": "address",
          "name": "target",
          "type": "address"
        }
      ],
      "name": "notifyClaimMade",
      "outputs": [],
      "stateMutability": "nonpayable",
      "type": "function"
    },
    {
      "inputs": [],
      "name": "owner",
      "outputs": [
        {
          "internalType": "address",
          "name": "",
          "type": "address"
        }
      ],
      "stateMutability": "view",
      "type": "function"
    },
    {
      "inputs": [
        {
          "internalType": "address",
          "name": "owner",
          "type": "address"
        },
        {
          "internalType": "address",
          "name": "spender",
          "type": "address"
        },
        {
          "internalType": "uint256",
          "name": "value",
          "type": "uint256"
        },
        {
          "internalType": "uint256",
          "name": "deadline",
          "type": "uint256"
        },
        {
          "internalType": "uint8",
          "name": "v",
          "type": "uint8"
        },
        {
          "internalType": "bytes32",
          "name": "r",
          "type": "bytes32"
        },
        {
          "internalType": "bytes32",
          "name": "s",
          "type": "bytes32"
        }
      ],
      "name": "permit",
      "outputs": [],
      "stateMutability": "nonpayable",
      "type": "function"
    },
    {
      "inputs": [
        {
          "internalType": "address",
          "name": "oldAddress",
          "type": "address"
        },
        {
          "internalType": "address",
          "name": "newAddress",
          "type": "address"
        }
      ],
      "name": "recover",
      "outputs": [],
      "stateMutability": "nonpayable",
      "type": "function"
    },
    {
      "inputs": [],
      "name": "recovery",
      "outputs": [
        {
          "internalType": "contract IRecoveryHub",
          "name": "",
          "type": "address"
        }
      ],
      "stateMutability": "view",
      "type": "function"
    },
    {
      "inputs": [],
      "name": "restrictTransfers",
      "outputs": [
        {
          "internalType": "bool",
          "name": "",
          "type": "bool"
        }
      ],
      "stateMutability": "view",
      "type": "function"
    },
    {
      "inputs": [
        {
          "internalType": "bool",
          "name": "transferRestrictionsApplicable",
          "type": "bool"
        }
      ],
      "name": "setApplicable",
      "outputs": [],
      "stateMutability": "nonpayable",
      "type": "function"
    },
    {
      "inputs": [
        {
          "internalType": "contract IERC20",
          "name": "collateral",
          "type": "address"
        },
        {
          "internalType": "uint256",
          "name": "rate",
          "type": "uint256"
        }
      ],
      "name": "setCustomClaimCollateral",
      "outputs": [],
      "stateMutability": "nonpayable",
      "type": "function"
    },
    {
      "inputs": [
        {
          "internalType": "string",
          "name": "_symbol",
          "type": "string"
        },
        {
          "internalType": "string",
          "name": "_name",
          "type": "string"
        }
      ],
      "name": "setName",
      "outputs": [],
      "stateMutability": "nonpayable",
      "type": "function"
    },
    {
      "inputs": [
        {
          "internalType": "string",
          "name": "_terms",
          "type": "string"
        }
      ],
      "name": "setTerms",
      "outputs": [],
      "stateMutability": "nonpayable",
      "type": "function"
    },
    {
      "inputs": [
        {
          "internalType": "uint256",
          "name": "_newTotalShares",
          "type": "uint256"
        }
      ],
      "name": "setTotalShares",
      "outputs": [],
      "stateMutability": "nonpayable",
      "type": "function"
    },
    {
      "inputs": [
        {
          "internalType": "address[]",
          "name": "addressesToAdd",
          "type": "address[]"
        },
        {
          "internalType": "uint8",
          "name": "value",
          "type": "uint8"
        }
      ],
      "name": "setType",
      "outputs": [],
      "stateMutability": "nonpayable",
      "type": "function"
    },
    {
      "inputs": [
        {
          "internalType": "address",
          "name": "account",
          "type": "address"
        },
        {
          "internalType": "uint8",
          "name": "typeNumber",
          "type": "uint8"
        }
      ],
      "name": "setType",
      "outputs": [],
      "stateMutability": "nonpayable",
      "type": "function"
    },
    {
      "inputs": [],
      "name": "symbol",
      "outputs": [
        {
          "internalType": "string",
          "name": "",
          "type": "string"
        }
      ],
      "stateMutability": "view",
      "type": "function"
    },
    {
      "inputs": [],
      "name": "terms",
      "outputs": [
        {
          "internalType": "string",
          "name": "",
          "type": "string"
        }
      ],
      "stateMutability": "view",
      "type": "function"
    },
    {
      "inputs": [],
      "name": "totalShares",
      "outputs": [
        {
          "internalType": "uint256",
          "name": "",
          "type": "uint256"
        }
      ],
      "stateMutability": "view",
      "type": "function"
    },
    {
      "inputs": [],
      "name": "totalSupply",
      "outputs": [
        {
          "internalType": "uint256",
          "name": "",
          "type": "uint256"
        }
      ],
      "stateMutability": "view",
      "type": "function"
    },
    {
      "inputs": [],
      "name": "totalValidSupply",
      "outputs": [
        {
          "internalType": "uint256",
          "name": "",
          "type": "uint256"
        }
      ],
      "stateMutability": "view",
      "type": "function"
    },
    {
      "inputs": [
        {
          "internalType": "address",
          "name": "recipient",
          "type": "address"
        },
        {
          "internalType": "uint256",
          "name": "amount",
          "type": "uint256"
        }
      ],
      "name": "transfer",
      "outputs": [
        {
          "internalType": "bool",
          "name": "",
          "type": "bool"
        }
      ],
      "stateMutability": "nonpayable",
      "type": "function"
    },
    {
      "inputs": [
        {
          "internalType": "address",
          "name": "recipient",
          "type": "address"
        },
        {
          "internalType": "uint256",
          "name": "amount",
          "type": "uint256"
        },
        {
          "internalType": "bytes",
          "name": "data",
          "type": "bytes"
        }
      ],
      "name": "transferAndCall",
      "outputs": [
        {
          "internalType": "bool",
          "name": "",
          "type": "bool"
        }
      ],
      "stateMutability": "nonpayable",
      "type": "function"
    },
    {
      "inputs": [
        {
          "internalType": "address",
          "name": "sender",
          "type": "address"
        },
        {
          "internalType": "address",
          "name": "recipient",
          "type": "address"
        },
        {
          "internalType": "uint256",
          "name": "amount",
          "type": "uint256"
        }
      ],
      "name": "transferFrom",
      "outputs": [
        {
          "internalType": "bool",
          "name": "",
          "type": "bool"
        }
      ],
      "stateMutability": "nonpayable",
      "type": "function"
    },
    {
      "inputs": [
        {
          "internalType": "address",
          "name": "newOwner",
          "type": "address"
        }
      ],
      "name": "transferOwnership",
      "outputs": [],
      "stateMutability": "nonpayable",
      "type": "function"
    }
  ],
  "transactionHash": "0xd681e9c2fa51cbc1a94bcba13b8d1c0b45fd64eb3732fc101213572a3ed18f54",
  "args": [
    "TSQP",
    "Trust Square Service AG Participation Certificates",
    "https://www.trustsquare.ch/investor-relations",
    "2743000",
    "0xf00B91839fF7A6AC6DddAC7e73D2F222C19A9Ec3",
    "0xfae67F2036219AaC08f9C3B70A1c861A3b8EbC6E"
  ],
  "numDeployments": 1,
  "solcInputHash": "91afaafdcb9aac9433a4c41cf0b4eb46",
  "bytecode": "0x60a06040523480156200001157600080fd5b5060405162002b7e38038062002b7e833981016040819052620000349162000474565b6003805460ff191690556001600160a01b03828116608052600580546001600160a01b031916918316918217905560405187918791879187918691889187918791600091869182919084907f8be0079c531659141344cd1fd0a4f28419497f9722a3daafe3b4186f6b6457e0908290a350620000b1848462000158565b505050600a849055508351620000cf906009906020870190620002de565b506000600b819055604051636427ed9760e01b815260048101919091526001600160a01b03821690636427ed9790602401600060405180830381600087803b1580156200011b57600080fd5b505af115801562000130573d6000803e3d6000fd5b505050505050505050506200014c6001620001c360201b60201c565b5050505050506200060b565b81516200016d906007906020850190620002de565b50805162000183906006906020840190620002de565b507f6c20b91d1723b78732eba64ff11ebd7966a6e4af568a00fa4f6b72c20f58b02a8183604051620001b792919062000568565b60405180910390a15050565b600c805460ff19168215801591909117909155620001ec57620001e960006004620001f4565b50565b620001e96000805b6200020882601460ff841660011462000275565b6200021c82601560ff841660021462000275565b6200023082601660ff841660041462000275565b60405160ff821681526001600160a01b038316907fe423d7d31023dbacefed7c937785d0012ad8f314381295efebfc0471d2c434549060200160405180910390a25050565b6000620002848360e06200059a565b6001600160a01b038516600090815260208190526040902054600160ff929092169190911b9150808216821483151514620002d7576001600160a01b038516600090815260208190526040902081831890555b5050505050565b828054620002ec90620005ce565b90600052602060002090601f0160209004810192826200031057600085556200035b565b82601f106200032b57805160ff19168380011785556200035b565b828001600101855582156200035b579182015b828111156200035b5782518255916020019190600101906200033e565b50620003699291506200036d565b5090565b5b808211156200036957600081556001016200036e565b634e487b7160e01b600052604160045260246000fd5b60005b83811015620003b75781810151838201526020016200039d565b83811115620003c7576000848401525b50505050565b600082601f830112620003df57600080fd5b81516001600160401b0380821115620003fc57620003fc62000384565b604051601f8301601f19908116603f0116810190828211818310171562000427576200042762000384565b816040528381528660208588010111156200044157600080fd5b620004548460208301602089016200039a565b9695505050505050565b6001600160a01b0381168114620001e957600080fd5b60008060008060008060c087890312156200048e57600080fd5b86516001600160401b0380821115620004a657600080fd5b620004b48a838b01620003cd565b97506020890151915080821115620004cb57600080fd5b620004d98a838b01620003cd565b96506040890151915080821115620004f057600080fd5b50620004ff89828a01620003cd565b94505060608701519250608087015162000519816200045e565b60a08801519092506200052c816200045e565b809150509295509295509295565b60008151808452620005548160208601602086016200039a565b601f01601f19169290920160200192915050565b6040815260006200057d60408301856200053a565b82810360208401526200059181856200053a565b95945050505050565b600060ff821660ff84168060ff03821115620005c657634e487b7160e01b600052601160045260246000fd5b019392505050565b600181811c90821680620005e357607f821691505b602082108114156200060557634e487b7160e01b600052602260045260246000fd5b50919050565b6080516125346200064a600039600081816105ff0152818161089301528181610ddf01528181611062015281816112e701526119cc01526125346000f3fe608060405234801561001057600080fd5b50600436106102bb5760003560e01c806370a0823111610182578063b1c8db66116100e9578063ddceafa9116100a2578063f2fde38b1161007c578063f2fde38b14610647578063f54fc0601461065a578063f5c0b95f1461066d578063ffa1ad741461068057600080fd5b8063ddceafa9146105fa578063e445d70a14610621578063e5b824ec1461063457600080fd5b8063b1c8db6614610573578063c18172c414610586578063d37a9bb014610599578063d5025625146105a6578063d505accf146105ae578063dd62ed3e146105c157600080fd5b806395d89b411161013b57806395d89b41146105175780639e37878c1461051f578063a49a7cb114610532578063a77384c114610545578063a9059cbb14610558578063b0d04c7a1461056b57600080fd5b806370a08231146104a257806377e071ad146104b557806378f86afc146104c85780637dc2cd98146104db5780637ecebe00146104e45780638da5cb5b1461050457600080fd5b80633a1cdf3211610226578063429c66f0116101df578063429c66f01461043a578063487346b21461044d5780635c707f07146104605780635d6624b7146104735780636091811714610486578063648bf7741461048f57600080fd5b80633a1cdf32146103d25780633a98ef39146103e55780634000aea0146103ee5780634029a3ce1461040157806340c10f191461041457806342966c681461042757600080fd5b80632a0a4ed5116102785780632a0a4ed51461036b5780632b3430991461037c578063313ce5671461038f57806332a7ae95146103ae5780633644e515146103c157806337a8129c146103c957600080fd5b806306fdde03146102c0578063095ea7b3146102de5780630c6f0e5d1461030157806318160ddd146103315780631f0f06aa1461034357806323b872dd14610358575b600080fd5b6102c8610688565b6040516102d59190611cc6565b60405180910390f35b6102f16102ec366004611cee565b610716565b60405190151581526020016102d5565b6003546103199061010090046001600160a01b031681565b6040516001600160a01b0390911681526020016102d5565b6002545b6040519081526020016102d5565b610356610351366004611d63565b61072c565b005b6102f1610366366004611da5565b61079c565b6005546001600160a01b0316610319565b6102f161038a366004611de6565b610813565b60035461039c9060ff1681565b60405160ff90911681526020016102d5565b6103566103bc366004611de6565b610826565b6103356108f2565b610335600b5481565b6103566103e0366004611cee565b61094b565b610335600a5481565b6102f16103fc366004611e03565b610983565b61035661040f366004611ea4565b610a14565b610356610422366004611cee565b610ab8565b610356610435366004611f04565b610aec565b610356610448366004611f2e565b610b04565b61035661045b366004611f82565b610b81565b61035661046e3660046120d4565b610cc2565b610356610481366004611e03565b610cf6565b61033560045481565b61035661049d366004612138565b610dd4565b6103356104b0366004611de6565b610e2f565b6103356104c3366004611de6565b610e53565b6103566104d6366004612171565b610e9e565b62ed4e00610335565b6103356104f2366004611de6565b60086020526000908152604090205481565b600554610319906001600160a01b031681565b6102c8610f16565b6102f161052d366004611de6565b610f23565b6103566105403660046121ae565b610f30565b610356610553366004611f04565b610f64565b6102f1610566366004611cee565b611009565b61033561101c565b6102f1610581366004611de6565b611039565b610356610594366004611de6565b611057565b600c546102f19060ff1681565b6102c86110ac565b6103566105bc3660046121e3565b6110b9565b6103356105cf366004612138565b6001600160a01b03918216600090815260016020908152604080832093909416825291909152205490565b6103197f000000000000000000000000000000000000000000000000000000000000000081565b61035661062f36600461225f565b6112a9565b610356610642366004611de6565b6112dc565b610356610655366004611de6565b611331565b61035661066836600461227c565b6113b7565b6102f161067b3660046121ae565b61143f565b61039c600381565b60068054610695906122ef565b80601f01602080910402602001604051908101604052809291908181526020018280546106c1906122ef565b801561070e5780601f106106e35761010080835404028352916020019161070e565b820191906000526020600020905b8154815290600101906020018083116106f157829003601f168201915b505050505081565b600061072333848461144b565b50600192915050565b6005546001600160a01b0316331461075f5760405162461bcd60e51b81526004016107569061232a565b60405180910390fd5b7f07ce702fc13ca0620c174dab22996a6d5fd9e7accb663555a4e85323692706ba8282604051610790929190612376565b60405180910390a15050565b60006107a98484846114ad565b6001600160a01b0384166000908152600160209081526040808320338452909152902054600160ff1b811015610808576107e383826123a0565b6001600160a01b03861660009081526001602090815260408083203384529091529020555b506001949350505050565b6000610820826016611511565b92915050565b6005546001600160a01b031633146108745760405162461bcd60e51b81526020600482015260116024820152703737ba1031b630b4b6903232b632ba32b960791b6044820152606401610756565b6040516332a7ae9560e01b81526001600160a01b0382811660048301527f000000000000000000000000000000000000000000000000000000000000000016906332a7ae9590602401600060405180830381600087803b1580156108d757600080fd5b505af11580156108eb573d6000803e3d6000fd5b5050505050565b604080517f47e79534a245952e8b16893a336b85a3d9ea9fa8c573f3d803afb92a794692186020820152469181019190915230606082015260009060800160405160208183030381529060405280519060200120905090565b6005546001600160a01b031633146109755760405162461bcd60e51b81526004016107569061232a565b61097f8282611551565b5050565b600061098f8585611009565b8015610a0b5750604051635260769b60e11b81526001600160a01b0386169063a4c0ed36906109c89033908890889088906004016123b7565b6020604051808303816000875af11580156109e7573d6000803e3d6000fd5b505050506040513d601f19601f82011682018060405250810190610a0b91906123e9565b95945050505050565b6005546001600160a01b03163314610a3e5760405162461bcd60e51b81526004016107569061232a565b82818114610a4b57600080fd5b60005b81811015610ab057610a9e868683818110610a6b57610a6b612406565b9050602002016020810190610a809190611de6565b858584818110610a9257610a92612406565b905060200201356115c8565b80610aa88161241c565b915050610a4e565b505050505050565b6005546001600160a01b03163314610ae25760405162461bcd60e51b81526004016107569061232a565b61097f82826115c8565b610af73330836114ad565b610b0130826115d2565b50565b6005546001600160a01b03163314610b2e5760405162461bcd60e51b81526004016107569061232a565b60005b82811015610b7b57610b69848483818110610b4e57610b4e612406565b9050602002016020810190610b639190611de6565b83610f30565b80610b738161241c565b915050610b31565b50505050565b85838114610b8e57600080fd5b6000805b82811015610bd257868682818110610bac57610bac612406565b9050602002013582610bbe9190612437565b915080610bca8161241c565b915050610b92565b50610bdd8782610ab8565b60005b82811015610cb657876001600160a01b031663a4c0ed368b8b84818110610c0957610c09612406565b9050602002016020810190610c1e9190611de6565b898985818110610c3057610c30612406565b9050602002013588886040518563ffffffff1660e01b8152600401610c5894939291906123b7565b6020604051808303816000875af1158015610c77573d6000803e3d6000fd5b505050506040513d601f19601f82011682018060405250810190610c9b91906123e9565b610ca457600080fd5b80610cae8161241c565b915050610be0565b50505050505050505050565b6005546001600160a01b03163314610cec5760405162461bcd60e51b81526004016107569061232a565b61097f8282611646565b6005546001600160a01b03163314610d205760405162461bcd60e51b81526004016107569061232a565b6000610d2b85610e2f565b905080841115610d6f5760405162461bcd60e51b815260206004820152600f60248201526e0c2dadeeadce840e8dede40d0d2ced608b1b6044820152606401610756565b83600b6000828254610d819190612437565b92505081905550846001600160a01b03167f0a605cd1294f60fa3b73548ac68428f33300a051f225afcdcc75e56083c96ee7858585604051610dc59392919061244f565b60405180910390a25050505050565b336001600160a01b037f00000000000000000000000000000000000000000000000000000000000000001614610e1c5760405162461bcd60e51b815260040161075690612469565b61097f8282610e2a85610e2f565b6114ad565b6001600160a01b03166000908152602081905260409020546001600160e01b031690565b60006001600160a01b038216301415610e6e57506001919050565b6003546001600160a01b03838116610100909204161415610e9157505060045490565b506000919050565b919050565b6005546001600160a01b03163314610ec85760405162461bcd60e51b81526004016107569061232a565b8051610edb906009906020840190611be0565b507fe9f2468ecc8d3dff15a70a5909151e6297cee4cf05268eff3d7ef0c696ec50f281604051610f0b9190611cc6565b60405180910390a150565b60078054610695906122ef565b6000610820826015611511565b6005546001600160a01b03163314610f5a5760405162461bcd60e51b81526004016107569061232a565b61097f828261169f565b6005546001600160a01b03163314610f8e5760405162461bcd60e51b81526004016107569061232a565b610f9661101c565b811015610fd45760405162461bcd60e51b815260206004820152600c60248201526b62656c6f7720737570706c7960a01b6044820152606401610756565b600a8190556040518181527fdcbf73bf1e396dbe03ccbcd29c0aa52eb8028ae24726098296357286de4f5b2690602001610f0b565b6000611015838361171a565b9392505050565b6000600b5461102a60025490565b61103491906123a0565b905090565b6000611046826014611511565b806108205750610820826016611511565b336001600160a01b037f0000000000000000000000000000000000000000000000000000000000000000161461109f5760405162461bcd60e51b815260040161075690612469565b610b0181600a6001611726565b60098054610695906122ef565b428410156111095760405162461bcd60e51b815260206004820152601760248201527f5045524d49545f444541444c494e455f455850495245440000000000000000006044820152606401610756565b600060016111156108f2565b6001600160a01b038a811660008181526008602090815260409182902080546001810190915582517f6e71edae12b1b97f4d1f60370fef10105fa2faae0126114a169c64845d6126c98184015280840194909452938d166060840152608083018c905260a083019390935260c08083018b90528151808403909101815260e08301909152805192019190912061190160f01b6101008301526101028201929092526101228101919091526101420160408051601f198184030181528282528051602091820120600084529083018083525260ff871690820152606081018590526080810184905260a0016020604051602081039080840390855afa158015611221573d6000803e3d6000fd5b5050604051601f1901519150506001600160a01b038116158015906112575750876001600160a01b0316816001600160a01b0316145b6112945760405162461bcd60e51b815260206004820152600e60248201526d24a72b20a624a22fa9a4a3a722a960911b6044820152606401610756565b61129f81888861144b565b5050505050505050565b6005546001600160a01b031633146112d35760405162461bcd60e51b81526004016107569061232a565b610b018161178a565b336001600160a01b037f000000000000000000000000000000000000000000000000000000000000000016146113245760405162461bcd60e51b815260040161075690612469565b610b0181600a6000611726565b6005546001600160a01b0316331461135b5760405162461bcd60e51b81526004016107569061232a565b6005546040516001600160a01b038084169216907f8be0079c531659141344cd1fd0a4f28419497f9722a3daafe3b4186f6b6457e090600090a3600580546001600160a01b0319166001600160a01b0392909216919091179055565b6113c18484610ab8565b604051635260769b60e11b81526001600160a01b0385169063a4c0ed36906113f39088908790879087906004016123b7565b6020604051808303816000875af1158015611412573d6000803e3d6000fd5b505050506040513d601f19601f8201168201806040525081019061143691906123e9565b6108eb57600080fd5b60006110158383611511565b6001600160a01b0383811660008181526001602090815260408083209487168084529482529182902085905590518481527f8c5be1e5ebec7d5bd14f71427d1e84f3dd0314c0f7b2291e5b200ac8c7c3b92591015b60405180910390a3505050565b6114b88383836117b8565b6114c283826117c8565b6114cc828261185e565b816001600160a01b0316836001600160a01b03167fddf252ad1be2c89b69c2b068fc378daa952ba7f163c4a11628f55a4df523b3ef836040516114a091815260200190565b60008061151f8360e061248f565b6001600160a01b038516600090815260208190526040902054600160ff929092169190911b9081161491505092915050565b60038054610100600160a81b0319166101006001600160a01b0385811682029290921792839055909104166115895760006004555050565b600081116115c25760405162461bcd60e51b8152600401610756906020808252600490820152637a65726f60e01b604082015260600190565b60045550565b61097f828261190e565b6115de826000836117b8565b80600260008282546115f091906123a0565b90915550611600905082826117c8565b6040518181526000906001600160a01b038416907fddf252ad1be2c89b69c2b068fc378daa952ba7f163c4a11628f55a4df523b3ef906020015b60405180910390a35050565b8151611659906007906020850190611be0565b50805161166d906006906020840190611be0565b507f6c20b91d1723b78732eba64ff11ebd7966a6e4af568a00fa4f6b72c20f58b02a81836040516107909291906124b4565b6116b182601460ff8416600114611726565b6116c382601560ff8416600214611726565b6116d582601660ff8416600414611726565b60405160ff821681526001600160a01b038316907fe423d7d31023dbacefed7c937785d0012ad8f314381295efebfc0471d2c434549060200160405180910390a25050565b60006110158383611964565b60006117338360e061248f565b6001600160a01b038516600090815260208190526040902054600160ff929092169190911b91508082168214831515146108eb576001600160a01b0394909416600090815260208190526040902093189092555050565b600c805460ff191682158015919091179091556117ad57610b016000600461169f565b610b0160008061169f565b6117c3838383611a39565b505050565b6001600160a01b038216600090815260208190526040812054906117ec83836123a0565b90506001600160e01b031981166001600160e01b031983161461183d5760405162461bcd60e51b8152602060048201526009602482015268756e646572666c6f7760b81b6044820152606401610756565b6001600160a01b039093166000908152602081905260409020929092555050565b6001600160a01b03821661189a5760405162461bcd60e51b815260206004820152600360248201526203078360ec1b6044820152606401610756565b6001600160a01b038216600090815260208190526040812054906118be8383612437565b90506001600160e01b031981166001600160e01b031983161461183d5760405162461bcd60e51b81526020600482015260086024820152676f766572666c6f7760c01b6044820152606401610756565b600a548161191a61101c565b6119249190612437565b111561195a5760405162461bcd60e51b81526020600482015260056024820152641d1bdd185b60da1b6044820152606401610756565b61097f8282611b67565b60006119708383611bd3565b6119a75760405162461bcd60e51b81526020600482015260086024820152673a3930b739b332b960c11b6044820152606401610756565b6119b233600a611511565b15610723576040516304d301a360e41b81523360048201527f00000000000000000000000000000000000000000000000000000000000000006001600160a01b031690634d301a3090602401600060405180830381600087803b158015611a1857600080fd5b505af1158015611a2c573d6000803e3d6000fd5b5050505050600192915050565b611a4282611039565b15611a4c57505050565b611a5582610f23565b15611a8a57600c5460ff1615611a7d5760405162461bcd60e51b8152600401610756906124d9565b6117c38260156000611726565b611a9383610813565b15611ae957611aa58260146001611726565b604051600181526001600160a01b038316907fe423d7d31023dbacefed7c937785d0012ad8f314381295efebfc0471d2c434549060200160405180910390a2505050565b611af4836014611511565b15611b2957600c5460ff1615611b1c5760405162461bcd60e51b8152600401610756906124d9565b6117c38360146000611726565b611b3283610f23565b156117c357600c5460ff1615611b5a5760405162461bcd60e51b8152600401610756906124d9565b6117c38360156000611726565b611b73600083836117b8565b8060026000828254611b859190612437565b90915550611b959050828261185e565b6040518181526001600160a01b038316906000907fddf252ad1be2c89b69c2b068fc378daa952ba7f163c4a11628f55a4df523b3ef9060200161163a565b60006107233384846114ad565b828054611bec906122ef565b90600052602060002090601f016020900481019282611c0e5760008555611c54565b82601f10611c2757805160ff1916838001178555611c54565b82800160010185558215611c54579182015b82811115611c54578251825591602001919060010190611c39565b50611c60929150611c64565b5090565b5b80821115611c605760008155600101611c65565b6000815180845260005b81811015611c9f57602081850181015186830182015201611c83565b81811115611cb1576000602083870101525b50601f01601f19169290920160200192915050565b6020815260006110156020830184611c79565b6001600160a01b0381168114610b0157600080fd5b60008060408385031215611d0157600080fd5b8235611d0c81611cd9565b946020939093013593505050565b60008083601f840112611d2c57600080fd5b50813567ffffffffffffffff811115611d4457600080fd5b602083019150836020828501011115611d5c57600080fd5b9250929050565b60008060208385031215611d7657600080fd5b823567ffffffffffffffff811115611d8d57600080fd5b611d9985828601611d1a565b90969095509350505050565b600080600060608486031215611dba57600080fd5b8335611dc581611cd9565b92506020840135611dd581611cd9565b929592945050506040919091013590565b600060208284031215611df857600080fd5b813561101581611cd9565b60008060008060608587031215611e1957600080fd5b8435611e2481611cd9565b935060208501359250604085013567ffffffffffffffff811115611e4757600080fd5b611e5387828801611d1a565b95989497509550505050565b60008083601f840112611e7157600080fd5b50813567ffffffffffffffff811115611e8957600080fd5b6020830191508360208260051b8501011115611d5c57600080fd5b60008060008060408587031215611eba57600080fd5b843567ffffffffffffffff80821115611ed257600080fd5b611ede88838901611e5f565b90965094506020870135915080821115611ef757600080fd5b50611e5387828801611e5f565b600060208284031215611f1657600080fd5b5035919050565b803560ff81168114610e9957600080fd5b600080600060408486031215611f4357600080fd5b833567ffffffffffffffff811115611f5a57600080fd5b611f6686828701611e5f565b9094509250611f79905060208501611f1d565b90509250925092565b60008060008060008060006080888a031215611f9d57600080fd5b873567ffffffffffffffff80821115611fb557600080fd5b611fc18b838c01611e5f565b909950975060208a01359150611fd682611cd9565b90955060408901359080821115611fec57600080fd5b611ff88b838c01611e5f565b909650945060608a013591508082111561201157600080fd5b5061201e8a828b01611d1a565b989b979a50959850939692959293505050565b634e487b7160e01b600052604160045260246000fd5b600082601f83011261205857600080fd5b813567ffffffffffffffff8082111561207357612073612031565b604051601f8301601f19908116603f0116810190828211818310171561209b5761209b612031565b816040528381528660208588010111156120b457600080fd5b836020870160208301376000602085830101528094505050505092915050565b600080604083850312156120e757600080fd5b823567ffffffffffffffff808211156120ff57600080fd5b61210b86838701612047565b9350602085013591508082111561212157600080fd5b5061212e85828601612047565b9150509250929050565b6000806040838503121561214b57600080fd5b823561215681611cd9565b9150602083013561216681611cd9565b809150509250929050565b60006020828403121561218357600080fd5b813567ffffffffffffffff81111561219a57600080fd5b6121a684828501612047565b949350505050565b600080604083850312156121c157600080fd5b82356121cc81611cd9565b91506121da60208401611f1d565b90509250929050565b600080600080600080600060e0888a0312156121fe57600080fd5b873561220981611cd9565b9650602088013561221981611cd9565b9550604088013594506060880135935061223560808901611f1d565b925060a0880135915060c0880135905092959891949750929550565b8015158114610b0157600080fd5b60006020828403121561227157600080fd5b813561101581612251565b60008060008060006080868803121561229457600080fd5b853561229f81611cd9565b945060208601356122af81611cd9565b935060408601359250606086013567ffffffffffffffff8111156122d257600080fd5b6122de88828901611d1a565b969995985093965092949392505050565b600181811c9082168061230357607f821691505b6020821081141561232457634e487b7160e01b600052602260045260246000fd5b50919050565b6020808252600990820152683737ba1037bbb732b960b91b604082015260600190565b81835281816020850137506000828201602090810191909152601f909101601f19169091010190565b6020815260006121a660208301848661234d565b634e487b7160e01b600052601160045260246000fd5b6000828210156123b2576123b261238a565b500390565b60018060a01b03851681528360208201526060604082015260006123df60608301848661234d565b9695505050505050565b6000602082840312156123fb57600080fd5b815161101581612251565b634e487b7160e01b600052603260045260246000fd5b60006000198214156124305761243061238a565b5060010190565b6000821982111561244a5761244a61238a565b500190565b838152604060208201526000610a0b60408301848661234d565b6020808252600c908201526b6e6f74207265636f7665727960a01b604082015260600190565b600060ff821660ff84168060ff038211156124ac576124ac61238a565b019392505050565b6040815260006124c76040830185611c79565b8281036020840152610a0b8185611c79565b6020808252600b908201526a1b9bdd08185b1b1bddd95960aa1b60408201526060019056fea2646970667358221220157e3fc750f17a73454cb34cef145d7bd14a5a3934ff91c18b0636bea44c528764736f6c634300080c0033",
  "devdoc": {
    "kind": "dev",
    "methods": {
      "DOMAIN_SEPARATOR()": {
        "details": "Returns the domain separator used in the encoding of the signature for {permit}, as defined by {EIP712}."
      },
      "allowance(address,address)": {
        "details": "See `IERC20.allowance`."
      },
      "approve(address,uint256)": {
        "details": "See `IERC20.approve`. Requirements: - `spender` cannot be the zero address."
      },
      "balanceOf(address)": {
        "details": "See `IERC20.balanceOf`."
      },
      "permit(address,address,uint256,uint256,uint8,bytes32,bytes32)": {
        "details": "Sets `value` as the allowance of `spender` over ``owner``'s tokens, given ``owner``'s signed approval. IMPORTANT: The same issues {IERC20-approve} has related to transaction ordering also apply here. Emits an {Approval} event. Requirements: - `spender` cannot be the zero address. - `deadline` must be a timestamp in the future. - `v`, `r` and `s` must be a valid `secp256k1` signature from `owner` over the EIP712-formatted function arguments. - the signature must use ``owner``'s current nonce (see {nonces}). For more information on the signature format, see the https://eips.ethereum.org/EIPS/eip-2612#specification[relevant EIP section]."
      },
      "totalSupply()": {
        "details": "See `IERC20.totalSupply`."
      },
      "transferFrom(address,address,uint256)": {
        "details": "See `IERC20.transferFrom`. Emits an `Approval` event indicating the updated allowance. This is not required by the EIP. See the note at the beginning of `ERC20`; Requirements: - `sender` and `recipient` cannot be the zero address. - `sender` must have a balance of at least `value`. - the caller must have allowance for `sender`'s tokens of at least `amount`."
      },
      "transferOwnership(address)": {
        "details": "Transfers ownership of the contract to a new account (`newOwner`). Can only be called by the current owner."
      }
    },
    "version": 1
  },
  "userdoc": {
    "kind": "user",
    "methods": {
      "announcement(string)": {
        "notice": "Allows the issuer to make public announcements that are visible on the blockchain."
      },
      "burn(uint256)": {
        "notice": "Transfers _amount tokens to the company and burns them. The meaning of this operation depends on the circumstances and the fate of the shares does not necessarily follow the fate of the tokens. For example, the company itself might call this function to implement a formal decision to destroy some of the outstanding shares. Also, this function might be called by an owner to return the shares to the company and get them back in another form under an according agreement (e.g. printed certificates or tokens on a different blockchain). It is not recommended to call this function without having agreed with the company on the further fate of the shares in question."
      },
      "canReceiveFromAnyone(address)": {
        "notice": "If true, this address is allowlisted and can only transfer tokens to other allowlisted addresses."
      },
      "declareInvalid(address,uint256,string)": {
        "notice": "Signals that the indicated tokens have been declared invalid (e.g. by a court ruling in accordance with article 973g of the Swiss Code of Obligations) and got detached from the underlying shares. Invalid tokens do not carry any shareholder rights any more. This function is purely declarative. It does not technically immobilize the affected tokens as that would give the issuer too much power."
      },
      "getCollateralRate(address)": {
        "notice": "Returns the collateral rate for the given collateral type and 0 if that type of collateral is not accepted. By default, only the token itself is accepted at a rate of 1:1. Subclasses should override this method if they want to add additional types of collateral."
      },
      "isForbidden(address)": {
        "notice": "If true, this address can only transfer tokens to allowlisted addresses and not receive from anyone."
      },
      "isPowerlisted(address)": {
        "notice": "If true, this address can automatically allowlist target addresses if necessary."
      },
      "mintAndCall(address,address,uint256,bytes)": {
        "notice": "Allows the company to tokenize shares and transfer them e.g to the draggable contract and wrap them. If these shares are newly created, setTotalShares must be called first in order to adjust the total number of shares."
      },
      "setApplicable(bool)": {
        "notice": "Configures whether the allowlisting is applied. Also sets the powerlist and allowlist flags on the null address accordingly. It is recommended to also deactivate the powerlist flag on other addresses."
      },
      "setCustomClaimCollateral(address,uint256)": {
        "notice": "See parent method for collateral requirements."
      },
      "setTotalShares(uint256)": {
        "notice": "Declares the number of total shares, including those that have not been tokenized and those that are held by the company itself. This number can be substiantially higher than totalSupply() in case not all shares have been tokenized. Also, it can be lower than totalSupply() in case some tokens have become invalid."
      },
      "totalValidSupply()": {
        "notice": "The total number of valid tokens in circulation. In case some tokens have been declared invalid, this number might be lower than totalSupply(). Also, it will always be lower than or equal to totalShares()."
      }
    },
    "version": 1
  },
  "storageLayout": {
    "storage": [
      {
        "astId": 424,
        "contract": "src/shares/AllowlistShares.sol:AllowlistShares",
        "label": "_balances",
        "offset": 0,
        "slot": "0",
        "type": "t_mapping(t_address,t_uint256)"
      },
      {
        "astId": 430,
        "contract": "src/shares/AllowlistShares.sol:AllowlistShares",
        "label": "_allowances",
        "offset": 0,
        "slot": "1",
        "type": "t_mapping(t_address,t_mapping(t_address,t_uint256))"
      },
      {
        "astId": 432,
        "contract": "src/shares/AllowlistShares.sol:AllowlistShares",
        "label": "_totalSupply",
        "offset": 0,
        "slot": "2",
        "type": "t_uint256"
      },
      {
        "astId": 435,
        "contract": "src/shares/AllowlistShares.sol:AllowlistShares",
        "label": "decimals",
        "offset": 0,
        "slot": "3",
        "type": "t_uint8"
      },
      {
        "astId": 8977,
        "contract": "src/shares/AllowlistShares.sol:AllowlistShares",
        "label": "customCollateralAddress",
        "offset": 1,
        "slot": "3",
        "type": "t_contract(IERC20)1208"
      },
      {
        "astId": 8979,
        "contract": "src/shares/AllowlistShares.sol:AllowlistShares",
        "label": "customCollateralRate",
        "offset": 0,
        "slot": "4",
        "type": "t_uint256"
      },
      {
        "astId": 10779,
        "contract": "src/shares/AllowlistShares.sol:AllowlistShares",
        "label": "owner",
        "offset": 0,
        "slot": "5",
        "type": "t_address"
      },
      {
        "astId": 934,
        "contract": "src/shares/AllowlistShares.sol:AllowlistShares",
        "label": "name",
        "offset": 0,
        "slot": "6",
        "type": "t_string_storage"
      },
      {
        "astId": 937,
        "contract": "src/shares/AllowlistShares.sol:AllowlistShares",
        "label": "symbol",
        "offset": 0,
        "slot": "7",
        "type": "t_string_storage"
      },
      {
        "astId": 1010,
        "contract": "src/shares/AllowlistShares.sol:AllowlistShares",
        "label": "nonces",
        "offset": 0,
        "slot": "8",
        "type": "t_mapping(t_address,t_uint256)"
      },
      {
        "astId": 10239,
        "contract": "src/shares/AllowlistShares.sol:AllowlistShares",
        "label": "terms",
        "offset": 0,
        "slot": "9",
        "type": "t_string_storage"
      },
      {
        "astId": 10242,
        "contract": "src/shares/AllowlistShares.sol:AllowlistShares",
        "label": "totalShares",
        "offset": 0,
        "slot": "10",
        "type": "t_uint256"
      },
      {
        "astId": 10244,
        "contract": "src/shares/AllowlistShares.sol:AllowlistShares",
        "label": "invalidTokens",
        "offset": 0,
        "slot": "11",
        "type": "t_uint256"
      },
      {
        "astId": 129,
        "contract": "src/shares/AllowlistShares.sol:AllowlistShares",
        "label": "restrictTransfers",
        "offset": 0,
        "slot": "12",
        "type": "t_bool"
      }
    ],
    "types": {
      "t_address": {
        "encoding": "inplace",
        "label": "address",
        "numberOfBytes": "20"
      },
      "t_bool": {
        "encoding": "inplace",
        "label": "bool",
        "numberOfBytes": "1"
      },
      "t_contract(IERC20)1208": {
        "encoding": "inplace",
        "label": "contract IERC20",
        "numberOfBytes": "20"
      },
      "t_mapping(t_address,t_mapping(t_address,t_uint256))": {
        "encoding": "mapping",
        "key": "t_address",
        "label": "mapping(address => mapping(address => uint256))",
        "numberOfBytes": "32",
        "value": "t_mapping(t_address,t_uint256)"
      },
      "t_mapping(t_address,t_uint256)": {
        "encoding": "mapping",
        "key": "t_address",
        "label": "mapping(address => uint256)",
        "numberOfBytes": "32",
        "value": "t_uint256"
      },
      "t_string_storage": {
        "encoding": "bytes",
        "label": "string",
        "numberOfBytes": "32"
      },
      "t_uint256": {
        "encoding": "inplace",
        "label": "uint256",
        "numberOfBytes": "32"
      },
      "t_uint8": {
        "encoding": "inplace",
        "label": "uint8",
        "numberOfBytes": "1"
      }
    }
  }
}