{
  "address": "0x82cEA1306907a8E07e20E82B70d76802C3F90F4E",
  "abi": [
    {
      "inputs": [
        {
          "internalType": "string",
          "name": "_symbol",
          "type": "string"
        },
        {
          "internalType": "string",
          "name": "_name",
          "type": "string"
        },
        {
          "internalType": "string",
          "name": "_terms",
          "type": "string"
        },
        {
          "internalType": "uint256",
          "name": "_totalShares",
          "type": "uint256"
        },
        {
          "internalType": "address",
          "name": "_owner",
          "type": "address"
        },
        {
          "internalType": "contract IRecoveryHub",
          "name": "_recoveryHub",
          "type": "address"
        }
      ],
      "stateMutability": "nonpayable",
      "type": "constructor"
    },
    {
      "anonymous": false,
      "inputs": [
        {
          "indexed": false,
          "internalType": "string",
          "name": "message",
          "type": "string"
        }
      ],
      "name": "Announcement",
      "type": "event"
    },
    {
      "anonymous": false,
      "inputs": [
        {
          "indexed": true,
          "internalType": "address",
          "name": "owner",
          "type": "address"
        },
        {
          "indexed": true,
          "internalType": "address",
          "name": "spender",
          "type": "address"
        },
        {
          "indexed": false,
          "internalType": "uint256",
          "name": "value",
          "type": "uint256"
        }
      ],
      "name": "Approval",
      "type": "event"
    },
    {
      "anonymous": false,
      "inputs": [
        {
          "indexed": false,
          "internalType": "string",
          "name": "terms",
          "type": "string"
        }
      ],
      "name": "ChangeTerms",
      "type": "event"
    },
    {
      "anonymous": false,
      "inputs": [
        {
          "indexed": false,
          "internalType": "uint256",
          "name": "total",
          "type": "uint256"
        }
      ],
      "name": "ChangeTotalShares",
      "type": "event"
    },
    {
      "anonymous": false,
      "inputs": [
        {
          "indexed": false,
          "internalType": "string",
          "name": "name",
          "type": "string"
        },
        {
          "indexed": false,
          "internalType": "string",
          "name": "symbol",
          "type": "string"
        }
      ],
      "name": "NameChanged",
      "type": "event"
    },
    {
      "anonymous": false,
      "inputs": [
        {
          "indexed": true,
          "internalType": "address",
          "name": "previousOwner",
          "type": "address"
        },
        {
          "indexed": true,
          "internalType": "address",
          "name": "newOwner",
          "type": "address"
        }
      ],
      "name": "OwnershipTransferred",
      "type": "event"
    },
    {
      "anonymous": false,
      "inputs": [
        {
          "indexed": true,
          "internalType": "address",
          "name": "holder",
          "type": "address"
        },
        {
          "indexed": false,
          "internalType": "uint256",
          "name": "amount",
          "type": "uint256"
        },
        {
          "indexed": false,
          "internalType": "string",
          "name": "message",
          "type": "string"
        }
      ],
      "name": "TokensDeclaredInvalid",
      "type": "event"
    },
    {
      "anonymous": false,
      "inputs": [
        {
          "indexed": true,
          "internalType": "address",
          "name": "from",
          "type": "address"
        },
        {
          "indexed": true,
          "internalType": "address",
          "name": "to",
          "type": "address"
        },
        {
          "indexed": false,
          "internalType": "uint256",
          "name": "value",
          "type": "uint256"
        }
      ],
      "name": "Transfer",
      "type": "event"
    },
    {
      "inputs": [],
      "name": "VERSION",
      "outputs": [
        {
          "internalType": "uint8",
          "name": "",
          "type": "uint8"
        }
      ],
      "stateMutability": "view",
      "type": "function"
    },
    {
      "inputs": [
        {
          "internalType": "address",
          "name": "owner",
          "type": "address"
        },
        {
          "internalType": "address",
          "name": "spender",
          "type": "address"
        }
      ],
      "name": "allowance",
      "outputs": [
        {
          "internalType": "uint256",
          "name": "",
          "type": "uint256"
        }
      ],
      "stateMutability": "view",
      "type": "function"
    },
    {
      "inputs": [
        {
          "internalType": "string",
          "name": "message",
          "type": "string"
        }
      ],
      "name": "announcement",
      "outputs": [],
      "stateMutability": "nonpayable",
      "type": "function"
    },
    {
      "inputs": [
        {
          "internalType": "address",
          "name": "spender",
          "type": "address"
        },
        {
          "internalType": "uint256",
          "name": "value",
          "type": "uint256"
        }
      ],
      "name": "approve",
      "outputs": [
        {
          "internalType": "bool",
          "name": "",
          "type": "bool"
        }
      ],
      "stateMutability": "nonpayable",
      "type": "function"
    },
    {
      "inputs": [
        {
          "internalType": "address",
          "name": "account",
          "type": "address"
        }
      ],
      "name": "balanceOf",
      "outputs": [
        {
          "internalType": "uint256",
          "name": "",
          "type": "uint256"
        }
      ],
      "stateMutability": "view",
      "type": "function"
    },
    {
      "inputs": [
        {
          "internalType": "uint256",
          "name": "_amount",
          "type": "uint256"
        }
      ],
      "name": "burn",
      "outputs": [],
      "stateMutability": "nonpayable",
      "type": "function"
    },
    {
      "inputs": [],
      "name": "claimPeriod",
      "outputs": [
        {
          "internalType": "uint256",
          "name": "",
          "type": "uint256"
        }
      ],
      "stateMutability": "pure",
      "type": "function"
    },
    {
      "inputs": [],
      "name": "customCollateralAddress",
      "outputs": [
        {
          "internalType": "contract IERC20",
          "name": "",
          "type": "address"
        }
      ],
      "stateMutability": "view",
      "type": "function"
    },
    {
      "inputs": [],
      "name": "customCollateralRate",
      "outputs": [
        {
          "internalType": "uint256",
          "name": "",
          "type": "uint256"
        }
      ],
      "stateMutability": "view",
      "type": "function"
    },
    {
      "inputs": [],
      "name": "decimals",
      "outputs": [
        {
          "internalType": "uint8",
          "name": "",
          "type": "uint8"
        }
      ],
      "stateMutability": "view",
      "type": "function"
    },
    {
      "inputs": [
        {
          "internalType": "address",
          "name": "holder",
          "type": "address"
        },
        {
          "internalType": "uint256",
          "name": "amount",
          "type": "uint256"
        },
        {
          "internalType": "string",
          "name": "message",
          "type": "string"
        }
      ],
      "name": "declareInvalid",
      "outputs": [],
      "stateMutability": "nonpayable",
      "type": "function"
    },
    {
      "inputs": [
        {
          "internalType": "address",
          "name": "lostAddress",
          "type": "address"
        }
      ],
      "name": "deleteClaim",
      "outputs": [],
      "stateMutability": "nonpayable",
      "type": "function"
    },
    {
      "inputs": [],
      "name": "getClaimDeleter",
      "outputs": [
        {
          "internalType": "address",
          "name": "",
          "type": "address"
        }
      ],
      "stateMutability": "view",
      "type": "function"
    },
    {
      "inputs": [
        {
          "internalType": "contract IERC20",
          "name": "collateralType",
          "type": "address"
        }
      ],
      "name": "getCollateralRate",
      "outputs": [
        {
          "internalType": "uint256",
          "name": "",
          "type": "uint256"
        }
      ],
      "stateMutability": "view",
      "type": "function"
    },
    {
      "inputs": [
        {
          "internalType": "address",
          "name": "account",
          "type": "address"
        },
        {
          "internalType": "uint8",
          "name": "number",
          "type": "uint8"
        }
      ],
      "name": "hasFlag",
      "outputs": [
        {
          "internalType": "bool",
          "name": "",
          "type": "bool"
        }
      ],
      "stateMutability": "view",
      "type": "function"
    },
    {
      "inputs": [],
      "name": "invalidTokens",
      "outputs": [
        {
          "internalType": "uint256",
          "name": "",
          "type": "uint256"
        }
      ],
      "stateMutability": "view",
      "type": "function"
    },
    {
      "inputs": [
        {
          "internalType": "address",
          "name": "target",
          "type": "address"
        },
        {
          "internalType": "uint256",
          "name": "amount",
          "type": "uint256"
        }
      ],
      "name": "mint",
      "outputs": [],
      "stateMutability": "nonpayable",
      "type": "function"
    },
    {
      "inputs": [
        {
          "internalType": "address",
          "name": "shareholder",
          "type": "address"
        },
        {
          "internalType": "address",
          "name": "callee",
          "type": "address"
        },
        {
          "internalType": "uint256",
          "name": "amount",
          "type": "uint256"
        },
        {
          "internalType": "bytes",
          "name": "data",
          "type": "bytes"
        }
      ],
      "name": "mintAndCall",
      "outputs": [],
      "stateMutability": "nonpayable",
      "type": "function"
    },
    {
      "inputs": [
        {
          "internalType": "address[]",
          "name": "target",
          "type": "address[]"
        },
        {
          "internalType": "uint256[]",
          "name": "amount",
          "type": "uint256[]"
        }
      ],
      "name": "mintMany",
      "outputs": [],
      "stateMutability": "nonpayable",
      "type": "function"
    },
    {
      "inputs": [
        {
          "internalType": "address[]",
          "name": "target",
          "type": "address[]"
        },
        {
          "internalType": "address",
          "name": "callee",
          "type": "address"
        },
        {
          "internalType": "uint256[]",
          "name": "amount",
          "type": "uint256[]"
        },
        {
          "internalType": "bytes",
          "name": "data",
          "type": "bytes"
        }
      ],
      "name": "mintManyAndCall",
      "outputs": [],
      "stateMutability": "nonpayable",
      "type": "function"
    },
    {
      "inputs": [],
      "name": "name",
      "outputs": [
        {
          "internalType": "string",
          "name": "",
          "type": "string"
        }
      ],
      "stateMutability": "view",
      "type": "function"
    },
    {
      "inputs": [
        {
          "internalType": "address",
          "name": "target",
          "type": "address"
        }
      ],
      "name": "notifyClaimDeleted",
      "outputs": [],
      "stateMutability": "nonpayable",
      "type": "function"
    },
    {
      "inputs": [
        {
          "internalType": "address",
          "name": "target",
          "type": "address"
        }
      ],
      "name": "notifyClaimMade",
      "outputs": [],
      "stateMutability": "nonpayable",
      "type": "function"
    },
    {
      "inputs": [],
      "name": "owner",
      "outputs": [
        {
          "internalType": "address",
          "name": "",
          "type": "address"
        }
      ],
      "stateMutability": "view",
      "type": "function"
    },
    {
      "inputs": [
        {
          "internalType": "address",
          "name": "oldAddress",
          "type": "address"
        },
        {
          "internalType": "address",
          "name": "newAddress",
          "type": "address"
        }
      ],
      "name": "recover",
      "outputs": [],
      "stateMutability": "nonpayable",
      "type": "function"
    },
    {
      "inputs": [],
      "name": "recovery",
      "outputs": [
        {
          "internalType": "contract IRecoveryHub",
          "name": "",
          "type": "address"
        }
      ],
      "stateMutability": "view",
      "type": "function"
    },
    {
      "inputs": [
        {
          "internalType": "contract IERC20",
          "name": "collateral",
          "type": "address"
        },
        {
          "internalType": "uint256",
          "name": "rate",
          "type": "uint256"
        }
      ],
      "name": "setCustomClaimCollateral",
      "outputs": [],
      "stateMutability": "nonpayable",
      "type": "function"
    },
    {
      "inputs": [
        {
          "internalType": "string",
          "name": "_symbol",
          "type": "string"
        },
        {
          "internalType": "string",
          "name": "_name",
          "type": "string"
        }
      ],
      "name": "setName",
      "outputs": [],
      "stateMutability": "nonpayable",
      "type": "function"
    },
    {
      "inputs": [
        {
          "internalType": "string",
          "name": "_terms",
          "type": "string"
        }
      ],
      "name": "setTerms",
      "outputs": [],
      "stateMutability": "nonpayable",
      "type": "function"
    },
    {
      "inputs": [
        {
          "internalType": "uint256",
          "name": "_newTotalShares",
          "type": "uint256"
        }
      ],
      "name": "setTotalShares",
      "outputs": [],
      "stateMutability": "nonpayable",
      "type": "function"
    },
    {
      "inputs": [],
      "name": "symbol",
      "outputs": [
        {
          "internalType": "string",
          "name": "",
          "type": "string"
        }
      ],
      "stateMutability": "view",
      "type": "function"
    },
    {
      "inputs": [],
      "name": "terms",
      "outputs": [
        {
          "internalType": "string",
          "name": "",
          "type": "string"
        }
      ],
      "stateMutability": "view",
      "type": "function"
    },
    {
      "inputs": [],
      "name": "totalShares",
      "outputs": [
        {
          "internalType": "uint256",
          "name": "",
          "type": "uint256"
        }
      ],
      "stateMutability": "view",
      "type": "function"
    },
    {
      "inputs": [],
      "name": "totalSupply",
      "outputs": [
        {
          "internalType": "uint256",
          "name": "",
          "type": "uint256"
        }
      ],
      "stateMutability": "view",
      "type": "function"
    },
    {
      "inputs": [],
      "name": "totalValidSupply",
      "outputs": [
        {
          "internalType": "uint256",
          "name": "",
          "type": "uint256"
        }
      ],
      "stateMutability": "view",
      "type": "function"
    },
    {
      "inputs": [
        {
          "internalType": "address",
          "name": "to",
          "type": "address"
        },
        {
          "internalType": "uint256",
          "name": "value",
          "type": "uint256"
        }
      ],
      "name": "transfer",
      "outputs": [
        {
          "internalType": "bool",
          "name": "",
          "type": "bool"
        }
      ],
      "stateMutability": "nonpayable",
      "type": "function"
    },
    {
      "inputs": [
        {
          "internalType": "address",
          "name": "recipient",
          "type": "address"
        },
        {
          "internalType": "uint256",
          "name": "amount",
          "type": "uint256"
        },
        {
          "internalType": "bytes",
          "name": "data",
          "type": "bytes"
        }
      ],
      "name": "transferAndCall",
      "outputs": [
        {
          "internalType": "bool",
          "name": "",
          "type": "bool"
        }
      ],
      "stateMutability": "nonpayable",
      "type": "function"
    },
    {
      "inputs": [
        {
          "internalType": "address",
          "name": "sender",
          "type": "address"
        },
        {
          "internalType": "address",
          "name": "recipient",
          "type": "address"
        },
        {
          "internalType": "uint256",
          "name": "amount",
          "type": "uint256"
        }
      ],
      "name": "transferFrom",
      "outputs": [
        {
          "internalType": "bool",
          "name": "",
          "type": "bool"
        }
      ],
      "stateMutability": "nonpayable",
      "type": "function"
    },
    {
      "inputs": [
        {
          "internalType": "address",
          "name": "newOwner",
          "type": "address"
        }
      ],
      "name": "transferOwnership",
      "outputs": [],
      "stateMutability": "nonpayable",
      "type": "function"
    }
  ],
  "transactionHash": "0xb6e22f11d2a7732280335b1664322d25b4b826e78107d7b02ffe78a24f330ec3",
  "args": [
    "TVPL",
    "TV PLUS AG Shares",
    "https://invest.tv-plus.tv/",
    "1000258",
    "0x5f5337F68B0D2F061d54e9aE011159e388aD792F",
    "0xf00B91839fF7A6AC6DddAC7e73D2F222C19A9Ec3"
  ],
  "numDeployments": 1,
  "solcInputHash": "c0fb07fdebc93b2d7c20302b08ecd985",
  "bytecode": "0x60a06040523480156200001157600080fd5b506040516200222738038062002227833981016040819052620000349162000338565b6003805460ff191690556001600160a01b03818116608052600580546001600160a01b031916918416918217905560405187918791600091869182919084907f8be0079c531659141344cd1fd0a4f28419497f9722a3daafe3b4186f6b6457e0908290a350620000a5848462000134565b5050506009849055508351620000c39060089060208701906200019f565b506000600a819055604051636427ed9760e01b815260048101919091526001600160a01b03821690636427ed9790602401600060405180830381600087803b1580156200010f57600080fd5b505af115801562000124573d6000803e3d6000fd5b505050505050505050506200049b565b8151620001499060079060208501906200019f565b5080516200015f9060069060208401906200019f565b507f6c20b91d1723b78732eba64ff11ebd7966a6e4af568a00fa4f6b72c20f58b02a8183604051620001939291906200042c565b60405180910390a15050565b828054620001ad906200045e565b90600052602060002090601f016020900481019282620001d157600085556200021c565b82601f10620001ec57805160ff19168380011785556200021c565b828001600101855582156200021c579182015b828111156200021c578251825591602001919060010190620001ff565b506200022a9291506200022e565b5090565b5b808211156200022a57600081556001016200022f565b634e487b7160e01b600052604160045260246000fd5b60005b83811015620002785781810151838201526020016200025e565b8381111562000288576000848401525b50505050565b600082601f830112620002a057600080fd5b81516001600160401b0380821115620002bd57620002bd62000245565b604051601f8301601f19908116603f01168101908282118183101715620002e857620002e862000245565b816040528381528660208588010111156200030257600080fd5b620003158460208301602089016200025b565b9695505050505050565b6001600160a01b03811681146200033557600080fd5b50565b60008060008060008060c087890312156200035257600080fd5b86516001600160401b03808211156200036a57600080fd5b620003788a838b016200028e565b975060208901519150808211156200038f57600080fd5b6200039d8a838b016200028e565b96506040890151915080821115620003b457600080fd5b50620003c389828a016200028e565b945050606087015192506080870151620003dd816200031f565b60a0880151909250620003f0816200031f565b809150509295509295509295565b60008151808452620004188160208601602086016200025b565b601f01601f19169290920160200192915050565b604081526000620004416040830185620003fe565b8281036020840152620004558185620003fe565b95945050505050565b600181811c908216806200047357607f821691505b602082108114156200049557634e487b7160e01b600052602260045260246000fd5b50919050565b608051611d4d620004da600039600081816104da0152818161074801528181610bbe01528181610ddd01528181610e3f01526112540152611d4d6000f3fe608060405234801561001057600080fd5b506004361061023d5760003560e01c8063609181171161013b578063b0d04c7a116100b8578063e5b824ec1161007c578063e5b824ec146104fc578063f2fde38b1461050f578063f54fc06014610522578063f5c0b95f14610535578063ffa1ad741461054857600080fd5b8063b0d04c7a14610479578063c18172c414610481578063d502562514610494578063dd62ed3e1461049c578063ddceafa9146104d557600080fd5b80637dc2cd98116100ff5780637dc2cd981461042f5780638da5cb5b1461043857806395d89b411461044b578063a77384c114610453578063a9059cbb1461046657600080fd5b806360918117146103da578063648bf774146103e357806370a08231146103f657806377e071ad1461040957806378f86afc1461041c57600080fd5b806337a8129c116101c957806340c10f191161018d57806340c10f191461037b57806342966c681461038e578063487346b2146103a15780635c707f07146103b45780635d6624b7146103c757600080fd5b806337a8129c146103305780633a1cdf32146103395780633a98ef391461034c5780634000aea0146103555780634029a3ce1461036857600080fd5b80631f0f06aa116102105780631f0f06aa146102c557806323b872dd146102da5780632a0a4ed5146102ed578063313ce567146102fe57806332a7ae951461031d57600080fd5b806306fdde0314610242578063095ea7b3146102605780630c6f0e5d1461028357806318160ddd146102b3575b600080fd5b61024a610550565b60405161025791906115fe565b60405180910390f35b61027361026e366004611626565b6105de565b6040519015158152602001610257565b60035461029b9061010090046001600160a01b031681565b6040516001600160a01b039091168152602001610257565b6002545b604051908152602001610257565b6102d86102d336600461169b565b6105f4565b005b6102736102e83660046116dd565b610664565b6005546001600160a01b031661029b565b60035461030b9060ff1681565b60405160ff9091168152602001610257565b6102d861032b36600461171e565b6106db565b6102b7600a5481565b6102d8610347366004611626565b6107a7565b6102b760095481565b61027361036336600461173b565b6107df565b6102d86103763660046117dc565b610870565b6102d8610389366004611626565b610914565b6102d861039c36600461183c565b610948565b6102d86103af366004611855565b610960565b6102d86103c23660046119a7565b610aa1565b6102d86103d536600461173b565b610ad5565b6102b760045481565b6102d86103f1366004611a0b565b610bb3565b6102b761040436600461171e565b610c0e565b6102b761041736600461171e565b610c32565b6102d861042a366004611a44565b610c78565b62ed4e006102b7565b60055461029b906001600160a01b031681565b61024a610cf0565b6102d861046136600461183c565b610cfd565b610273610474366004611626565b610da2565b6102b7610db5565b6102d861048f36600461171e565b610dd2565b61024a610e27565b6102b76104aa366004611a0b565b6001600160a01b03918216600090815260016020908152604080832093909416825291909152205490565b61029b7f000000000000000000000000000000000000000000000000000000000000000081565b6102d861050a36600461171e565b610e34565b6102d861051d36600461171e565b610e89565b6102d8610530366004611a81565b610f0f565b610273610543366004611af4565b610f97565b61030b600281565b6006805461055d90611b28565b80601f016020809104026020016040519081016040528092919081815260200182805461058990611b28565b80156105d65780601f106105ab576101008083540402835291602001916105d6565b820191906000526020600020905b8154815290600101906020018083116105b957829003601f168201915b505050505081565b60006105eb338484610fa3565b50600192915050565b6005546001600160a01b031633146106275760405162461bcd60e51b815260040161061e90611b63565b60405180910390fd5b7f07ce702fc13ca0620c174dab22996a6d5fd9e7accb663555a4e85323692706ba8282604051610658929190611baf565b60405180910390a15050565b6000610671848484611005565b6001600160a01b0384166000908152600160209081526040808320338452909152902054600160ff1b8110156106d0576106ab8382611bd9565b6001600160a01b03861660009081526001602090815260408083203384529091529020555b506001949350505050565b6005546001600160a01b031633146107295760405162461bcd60e51b81526020600482015260116024820152703737ba1031b630b4b6903232b632ba32b960791b604482015260640161061e565b6040516332a7ae9560e01b81526001600160a01b0382811660048301527f000000000000000000000000000000000000000000000000000000000000000016906332a7ae9590602401600060405180830381600087803b15801561078c57600080fd5b505af11580156107a0573d6000803e3d6000fd5b5050505050565b6005546001600160a01b031633146107d15760405162461bcd60e51b815260040161061e90611b63565b6107db828261105e565b5050565b60006107eb8585610da2565b80156108675750604051635260769b60e11b81526001600160a01b0386169063a4c0ed3690610824903390889088908890600401611bf0565b6020604051808303816000875af1158015610843573d6000803e3d6000fd5b505050506040513d601f19601f820116820180604052508101906108679190611c22565b95945050505050565b6005546001600160a01b0316331461089a5760405162461bcd60e51b815260040161061e90611b63565b828181146108a757600080fd5b60005b8181101561090c576108fa8686838181106108c7576108c7611c44565b90506020020160208101906108dc919061171e565b8585848181106108ee576108ee611c44565b905060200201356110d5565b8061090481611c5a565b9150506108aa565b505050505050565b6005546001600160a01b0316331461093e5760405162461bcd60e51b815260040161061e90611b63565b6107db82826110d5565b610953333083611005565b61095d308261112b565b50565b8583811461096d57600080fd5b6000805b828110156109b15786868281811061098b5761098b611c44565b905060200201358261099d9190611c75565b9150806109a981611c5a565b915050610971565b506109bc8782610914565b60005b82811015610a9557876001600160a01b031663a4c0ed368b8b848181106109e8576109e8611c44565b90506020020160208101906109fd919061171e565b898985818110610a0f57610a0f611c44565b9050602002013588886040518563ffffffff1660e01b8152600401610a379493929190611bf0565b6020604051808303816000875af1158015610a56573d6000803e3d6000fd5b505050506040513d601f19601f82011682018060405250810190610a7a9190611c22565b610a8357600080fd5b80610a8d81611c5a565b9150506109bf565b50505050505050505050565b6005546001600160a01b03163314610acb5760405162461bcd60e51b815260040161061e90611b63565b6107db8282611193565b6005546001600160a01b03163314610aff5760405162461bcd60e51b815260040161061e90611b63565b6000610b0a85610c0e565b905080841115610b4e5760405162461bcd60e51b815260206004820152600f60248201526e0c2dadeeadce840e8dede40d0d2ced608b1b604482015260640161061e565b83600a6000828254610b609190611c75565b92505081905550846001600160a01b03167f0a605cd1294f60fa3b73548ac68428f33300a051f225afcdcc75e56083c96ee7858585604051610ba493929190611c8d565b60405180910390a25050505050565b336001600160a01b037f00000000000000000000000000000000000000000000000000000000000000001614610bfb5760405162461bcd60e51b815260040161061e90611ca7565b6107db8282610c0985610c0e565b611005565b6001600160a01b03166000908152602081905260409020546001600160e01b031690565b60006001600160a01b038216301415610c4d57506001919050565b6003546001600160a01b03838116610100909204161415610c7057505060045490565b506000919050565b6005546001600160a01b03163314610ca25760405162461bcd60e51b815260040161061e90611b63565b8051610cb5906008906020840190611518565b507fe9f2468ecc8d3dff15a70a5909151e6297cee4cf05268eff3d7ef0c696ec50f281604051610ce591906115fe565b60405180910390a150565b6007805461055d90611b28565b6005546001600160a01b03163314610d275760405162461bcd60e51b815260040161061e90611b63565b610d2f610db5565b811015610d6d5760405162461bcd60e51b815260206004820152600c60248201526b62656c6f7720737570706c7960a01b604482015260640161061e565b60098190556040518181527fdcbf73bf1e396dbe03ccbcd29c0aa52eb8028ae24726098296357286de4f5b2690602001610ce5565b6000610dae83836111ec565b9392505050565b6000600a54610dc360025490565b610dcd9190611bd9565b905090565b336001600160a01b037f00000000000000000000000000000000000000000000000000000000000000001614610e1a5760405162461bcd60e51b815260040161061e90611ca7565b61095d81600a60016112c1565b6008805461055d90611b28565b336001600160a01b037f00000000000000000000000000000000000000000000000000000000000000001614610e7c5760405162461bcd60e51b815260040161061e90611ca7565b61095d81600a60006112c1565b6005546001600160a01b03163314610eb35760405162461bcd60e51b815260040161061e90611b63565b6005546040516001600160a01b038084169216907f8be0079c531659141344cd1fd0a4f28419497f9722a3daafe3b4186f6b6457e090600090a3600580546001600160a01b0319166001600160a01b0392909216919091179055565b610f198484610914565b604051635260769b60e11b81526001600160a01b0385169063a4c0ed3690610f4b908890879087908790600401611bf0565b6020604051808303816000875af1158015610f6a573d6000803e3d6000fd5b505050506040513d601f19601f82011682018060405250810190610f8e9190611c22565b6107a057600080fd5b6000610dae8383611325565b6001600160a01b0383811660008181526001602090815260408083209487168084529482529182902085905590518481527f8c5be1e5ebec7d5bd14f71427d1e84f3dd0314c0f7b2291e5b200ac8c7c3b92591015b60405180910390a3505050565b61100f8382611365565b61101982826113fb565b816001600160a01b0316836001600160a01b03167fddf252ad1be2c89b69c2b068fc378daa952ba7f163c4a11628f55a4df523b3ef83604051610ff891815260200190565b60038054610100600160a81b0319166101006001600160a01b0385811682029290921792839055909104166110965760006004555050565b600081116110cf5760405162461bcd60e51b815260040161061e906020808252600490820152637a65726f60e01b604082015260600190565b60045550565b600954816110e1610db5565b6110eb9190611c75565b11156111215760405162461bcd60e51b81526020600482015260056024820152641d1bdd185b60da1b604482015260640161061e565b6107db82826114ab565b806002600082825461113d9190611bd9565b9091555061114d90508282611365565b6040518181526000906001600160a01b038416907fddf252ad1be2c89b69c2b068fc378daa952ba7f163c4a11628f55a4df523b3ef906020015b60405180910390a35050565b81516111a6906007906020850190611518565b5080516111ba906006906020840190611518565b507f6c20b91d1723b78732eba64ff11ebd7966a6e4af568a00fa4f6b72c20f58b02a8183604051610658929190611ccd565b60006111f8838361150b565b61122f5760405162461bcd60e51b81526020600482015260086024820152673a3930b739b332b960c11b604482015260640161061e565b61123a33600a611325565b156105eb576040516304d301a360e41b81523360048201527f00000000000000000000000000000000000000000000000000000000000000006001600160a01b031690634d301a3090602401600060405180830381600087803b1580156112a057600080fd5b505af11580156112b4573d6000803e3d6000fd5b5050505050600192915050565b60006112ce8360e0611cf2565b6001600160a01b038516600090815260208190526040902054600160ff929092169190911b91508082168214831515146107a0576001600160a01b0394909416600090815260208190526040902093189092555050565b6000806113338360e0611cf2565b6001600160a01b038516600090815260208190526040902054600160ff929092169190911b9081161491505092915050565b6001600160a01b038216600090815260208190526040812054906113898383611bd9565b90506001600160e01b031981166001600160e01b03198316146113da5760405162461bcd60e51b8152602060048201526009602482015268756e646572666c6f7760b81b604482015260640161061e565b6001600160a01b039093166000908152602081905260409020929092555050565b6001600160a01b0382166114375760405162461bcd60e51b815260206004820152600360248201526203078360ec1b604482015260640161061e565b6001600160a01b0382166000908152602081905260408120549061145b8383611c75565b90506001600160e01b031981166001600160e01b03198316146113da5760405162461bcd60e51b81526020600482015260086024820152676f766572666c6f7760c01b604482015260640161061e565b80600260008282546114bd9190611c75565b909155506114cd905082826113fb565b6040518181526001600160a01b038316906000907fddf252ad1be2c89b69c2b068fc378daa952ba7f163c4a11628f55a4df523b3ef90602001611187565b60006105eb338484611005565b82805461152490611b28565b90600052602060002090601f016020900481019282611546576000855561158c565b82601f1061155f57805160ff191683800117855561158c565b8280016001018555821561158c579182015b8281111561158c578251825591602001919060010190611571565b5061159892915061159c565b5090565b5b80821115611598576000815560010161159d565b6000815180845260005b818110156115d7576020818501810151868301820152016115bb565b818111156115e9576000602083870101525b50601f01601f19169290920160200192915050565b602081526000610dae60208301846115b1565b6001600160a01b038116811461095d57600080fd5b6000806040838503121561163957600080fd5b823561164481611611565b946020939093013593505050565b60008083601f84011261166457600080fd5b50813567ffffffffffffffff81111561167c57600080fd5b60208301915083602082850101111561169457600080fd5b9250929050565b600080602083850312156116ae57600080fd5b823567ffffffffffffffff8111156116c557600080fd5b6116d185828601611652565b90969095509350505050565b6000806000606084860312156116f257600080fd5b83356116fd81611611565b9250602084013561170d81611611565b929592945050506040919091013590565b60006020828403121561173057600080fd5b8135610dae81611611565b6000806000806060858703121561175157600080fd5b843561175c81611611565b935060208501359250604085013567ffffffffffffffff81111561177f57600080fd5b61178b87828801611652565b95989497509550505050565b60008083601f8401126117a957600080fd5b50813567ffffffffffffffff8111156117c157600080fd5b6020830191508360208260051b850101111561169457600080fd5b600080600080604085870312156117f257600080fd5b843567ffffffffffffffff8082111561180a57600080fd5b61181688838901611797565b9096509450602087013591508082111561182f57600080fd5b5061178b87828801611797565b60006020828403121561184e57600080fd5b5035919050565b60008060008060008060006080888a03121561187057600080fd5b873567ffffffffffffffff8082111561188857600080fd5b6118948b838c01611797565b909950975060208a013591506118a982611611565b909550604089013590808211156118bf57600080fd5b6118cb8b838c01611797565b909650945060608a01359150808211156118e457600080fd5b506118f18a828b01611652565b989b979a50959850939692959293505050565b634e487b7160e01b600052604160045260246000fd5b600082601f83011261192b57600080fd5b813567ffffffffffffffff8082111561194657611946611904565b604051601f8301601f19908116603f0116810190828211818310171561196e5761196e611904565b8160405283815286602085880101111561198757600080fd5b836020870160208301376000602085830101528094505050505092915050565b600080604083850312156119ba57600080fd5b823567ffffffffffffffff808211156119d257600080fd5b6119de8683870161191a565b935060208501359150808211156119f457600080fd5b50611a018582860161191a565b9150509250929050565b60008060408385031215611a1e57600080fd5b8235611a2981611611565b91506020830135611a3981611611565b809150509250929050565b600060208284031215611a5657600080fd5b813567ffffffffffffffff811115611a6d57600080fd5b611a798482850161191a565b949350505050565b600080600080600060808688031215611a9957600080fd5b8535611aa481611611565b94506020860135611ab481611611565b935060408601359250606086013567ffffffffffffffff811115611ad757600080fd5b611ae388828901611652565b969995985093965092949392505050565b60008060408385031215611b0757600080fd5b8235611b1281611611565b9150602083013560ff81168114611a3957600080fd5b600181811c90821680611b3c57607f821691505b60208210811415611b5d57634e487b7160e01b600052602260045260246000fd5b50919050565b6020808252600990820152683737ba1037bbb732b960b91b604082015260600190565b81835281816020850137506000828201602090810191909152601f909101601f19169091010190565b602081526000611a79602083018486611b86565b634e487b7160e01b600052601160045260246000fd5b600082821015611beb57611beb611bc3565b500390565b60018060a01b0385168152836020820152606060408201526000611c18606083018486611b86565b9695505050505050565b600060208284031215611c3457600080fd5b81518015158114610dae57600080fd5b634e487b7160e01b600052603260045260246000fd5b6000600019821415611c6e57611c6e611bc3565b5060010190565b60008219821115611c8857611c88611bc3565b500190565b838152604060208201526000610867604083018486611b86565b6020808252600c908201526b6e6f74207265636f7665727960a01b604082015260600190565b604081526000611ce060408301856115b1565b828103602084015261086781856115b1565b600060ff821660ff84168060ff03821115611d0f57611d0f611bc3565b01939250505056fea264697066735822122076829eff026a631d050ee464c19b96bc2150bb314ec6fd2a653b2686eb02e56064736f6c634300080c0033",
  "devdoc": {
    "author": "Luzius Meisser, luzius@aktionariat.com These tokens represent ledger-based securities according to article 973d of the Swiss Code of Obligations. This smart contract serves as an ownership registry, enabling the token holders to register them as shareholders in the issuer's shareholder registry. This is equivalent to the traditional system of having physical share certificates kept at home by the shareholders and a shareholder registry run by the company. Just like with physical certificates, the owners of the tokens are the owners of the shares. However, in order to exercise their rights (for example receive a dividend), shareholders must register themselves. For example, in case the company pays out a dividend to a previous shareholder because the current shareholder did not register, the company cannot be held liable for paying the dividend to the \"wrong\" shareholder. In relation to the company, only the registered shareholders count as such.",
    "kind": "dev",
    "methods": {
      "allowance(address,address)": {
        "details": "See `IERC20.allowance`."
      },
      "approve(address,uint256)": {
        "details": "See `IERC20.approve`. Requirements: - `spender` cannot be the zero address."
      },
      "balanceOf(address)": {
        "details": "See `IERC20.balanceOf`."
      },
      "totalSupply()": {
        "details": "See `IERC20.totalSupply`."
      },
      "transferFrom(address,address,uint256)": {
        "details": "See `IERC20.transferFrom`. Emits an `Approval` event indicating the updated allowance. This is not required by the EIP. See the note at the beginning of `ERC20`; Requirements: - `sender` and `recipient` cannot be the zero address. - `sender` must have a balance of at least `value`. - the caller must have allowance for `sender`'s tokens of at least `amount`."
      },
      "transferOwnership(address)": {
        "details": "Transfers ownership of the contract to a new account (`newOwner`). Can only be called by the current owner."
      }
    },
    "title": "CompanyName AG Shares",
    "version": 1
  },
  "userdoc": {
    "kind": "user",
    "methods": {
      "announcement(string)": {
        "notice": "Allows the issuer to make public announcements that are visible on the blockchain."
      },
      "burn(uint256)": {
        "notice": "Transfers _amount tokens to the company and burns them. The meaning of this operation depends on the circumstances and the fate of the shares does not necessarily follow the fate of the tokens. For example, the company itself might call this function to implement a formal decision to destroy some of the outstanding shares. Also, this function might be called by an owner to return the shares to the company and get them back in another form under an according agreement (e.g. printed certificates or tokens on a different blockchain). It is not recommended to call this function without having agreed with the company on the further fate of the shares in question."
      },
      "declareInvalid(address,uint256,string)": {
        "notice": "Signals that the indicated tokens have been declared invalid (e.g. by a court ruling in accordance with article 973g of the Swiss Code of Obligations) and got detached from the underlying shares. Invalid tokens do not carry any shareholder rights any more. This function is purely declarative. It does not technically immobilize the affected tokens as that would give the issuer too much power."
      },
      "getCollateralRate(address)": {
        "notice": "Returns the collateral rate for the given collateral type and 0 if that type of collateral is not accepted. By default, only the token itself is accepted at a rate of 1:1. Subclasses should override this method if they want to add additional types of collateral."
      },
      "mintAndCall(address,address,uint256,bytes)": {
        "notice": "Allows the company to tokenize shares and transfer them e.g to the draggable contract and wrap them. If these shares are newly created, setTotalShares must be called first in order to adjust the total number of shares."
      },
      "setCustomClaimCollateral(address,uint256)": {
        "notice": "See parent method for collateral requirements."
      },
      "setTotalShares(uint256)": {
        "notice": "Declares the number of total shares, including those that have not been tokenized and those that are held by the company itself. This number can be substiantially higher than totalSupply() in case not all shares have been tokenized. Also, it can be lower than totalSupply() in case some tokens have become invalid."
      },
      "totalValidSupply()": {
        "notice": "The total number of valid tokens in circulation. In case some tokens have been declared invalid, this number might be lower than totalSupply(). Also, it will always be lower than or equal to totalShares()."
      }
    },
    "version": 1
  },
  "storageLayout": {
    "storage": [
      {
        "astId": 424,
        "contract": "src/shares/Shares.sol:Shares",
        "label": "_balances",
        "offset": 0,
        "slot": "0",
        "type": "t_mapping(t_address,t_uint256)"
      },
      {
        "astId": 430,
        "contract": "src/shares/Shares.sol:Shares",
        "label": "_allowances",
        "offset": 0,
        "slot": "1",
        "type": "t_mapping(t_address,t_mapping(t_address,t_uint256))"
      },
      {
        "astId": 432,
        "contract": "src/shares/Shares.sol:Shares",
        "label": "_totalSupply",
        "offset": 0,
        "slot": "2",
        "type": "t_uint256"
      },
      {
        "astId": 435,
        "contract": "src/shares/Shares.sol:Shares",
        "label": "decimals",
        "offset": 0,
        "slot": "3",
        "type": "t_uint8"
      },
      {
        "astId": 8317,
        "contract": "src/shares/Shares.sol:Shares",
        "label": "customCollateralAddress",
        "offset": 1,
        "slot": "3",
        "type": "t_contract(IERC20)1090"
      },
      {
        "astId": 8319,
        "contract": "src/shares/Shares.sol:Shares",
        "label": "customCollateralRate",
        "offset": 0,
        "slot": "4",
        "type": "t_uint256"
      },
      {
        "astId": 10107,
        "contract": "src/shares/Shares.sol:Shares",
        "label": "owner",
        "offset": 0,
        "slot": "5",
        "type": "t_address"
      },
      {
        "astId": 934,
        "contract": "src/shares/Shares.sol:Shares",
        "label": "name",
        "offset": 0,
        "slot": "6",
        "type": "t_string_storage"
      },
      {
        "astId": 937,
        "contract": "src/shares/Shares.sol:Shares",
        "label": "symbol",
        "offset": 0,
        "slot": "7",
        "type": "t_string_storage"
      },
      {
        "astId": 9570,
        "contract": "src/shares/Shares.sol:Shares",
        "label": "terms",
        "offset": 0,
        "slot": "8",
        "type": "t_string_storage"
      },
      {
        "astId": 9573,
        "contract": "src/shares/Shares.sol:Shares",
        "label": "totalShares",
        "offset": 0,
        "slot": "9",
        "type": "t_uint256"
      },
      {
        "astId": 9575,
        "contract": "src/shares/Shares.sol:Shares",
        "label": "invalidTokens",
        "offset": 0,
        "slot": "10",
        "type": "t_uint256"
      }
    ],
    "types": {
      "t_address": {
        "encoding": "inplace",
        "label": "address",
        "numberOfBytes": "20"
      },
      "t_contract(IERC20)1090": {
        "encoding": "inplace",
        "label": "contract IERC20",
        "numberOfBytes": "20"
      },
      "t_mapping(t_address,t_mapping(t_address,t_uint256))": {
        "encoding": "mapping",
        "key": "t_address",
        "label": "mapping(address => mapping(address => uint256))",
        "numberOfBytes": "32",
        "value": "t_mapping(t_address,t_uint256)"
      },
      "t_mapping(t_address,t_uint256)": {
        "encoding": "mapping",
        "key": "t_address",
        "label": "mapping(address => uint256)",
        "numberOfBytes": "32",
        "value": "t_uint256"
      },
      "t_string_storage": {
        "encoding": "bytes",
        "label": "string",
        "numberOfBytes": "32"
      },
      "t_uint256": {
        "encoding": "inplace",
        "label": "uint256",
        "numberOfBytes": "32"
      },
      "t_uint8": {
        "encoding": "inplace",
        "label": "uint8",
        "numberOfBytes": "1"
      }
    }
  }
}