{
    "contractName": "MultiSigWallet",
    "abi": [
        {
            "anonymous": false,
            "inputs": [
                {
                    "indexed": true,
                    "internalType": "address",
                    "name": "sender",
                    "type": "address"
                },
                {
                    "indexed": false,
                    "internalType": "uint256",
                    "name": "amount",
                    "type": "uint256"
                }
            ],
            "name": "Received",
            "type": "event"
        },
        {
            "anonymous": false,
            "inputs": [
                {
                    "indexed": true,
                    "internalType": "address",
                    "name": "signer",
                    "type": "address"
                },
                {
                    "indexed": false,
                    "internalType": "uint8",
                    "name": "signaturesNeeded",
                    "type": "uint8"
                }
            ],
            "name": "SignerChange",
            "type": "event"
        },
        {
            "anonymous": false,
            "inputs": [
                {
                    "indexed": true,
                    "internalType": "address",
                    "name": "toAddress",
                    "type": "address"
                },
                {
                    "indexed": false,
                    "internalType": "bytes4",
                    "name": "selector",
                    "type": "bytes4"
                },
                {
                    "indexed": false,
                    "internalType": "address[]",
                    "name": "signers",
                    "type": "address[]"
                }
            ],
            "name": "Transacted",
            "type": "event"
        },
        {
            "inputs": [],
            "name": "MAX_INCREASE",
            "outputs": [
                {
                    "internalType": "uint256",
                    "name": "",
                    "type": "uint256"
                }
            ],
            "stateMutability": "view",
            "type": "function"
        },
        {
            "inputs": [
                {
                    "internalType": "address",
                    "name": "to",
                    "type": "address"
                },
                {
                    "internalType": "uint256",
                    "name": "value",
                    "type": "uint256"
                },
                {
                    "internalType": "bytes",
                    "name": "data",
                    "type": "bytes"
                }
            ],
            "name": "checkExecution",
            "outputs": [],
            "stateMutability": "nonpayable",
            "type": "function"
        },
        {
            "inputs": [
                {
                    "internalType": "uint128",
                    "name": "nonce",
                    "type": "uint128"
                },
                {
                    "internalType": "address",
                    "name": "to",
                    "type": "address"
                },
                {
                    "internalType": "uint256",
                    "name": "value",
                    "type": "uint256"
                },
                {
                    "internalType": "bytes",
                    "name": "data",
                    "type": "bytes"
                },
                {
                    "internalType": "uint8[]",
                    "name": "v",
                    "type": "uint8[]"
                },
                {
                    "internalType": "bytes32[]",
                    "name": "r",
                    "type": "bytes32[]"
                },
                {
                    "internalType": "bytes32[]",
                    "name": "s",
                    "type": "bytes32[]"
                }
            ],
            "name": "checkSignatures",
            "outputs": [
                {
                    "internalType": "address[]",
                    "name": "",
                    "type": "address[]"
                }
            ],
            "stateMutability": "view",
            "type": "function"
        },
        {
            "inputs": [],
            "name": "contractId",
            "outputs": [
                {
                    "internalType": "bytes",
                    "name": "",
                    "type": "bytes"
                }
            ],
            "stateMutability": "view",
            "type": "function"
        },
        {
            "inputs": [
                {
                    "internalType": "uint128",
                    "name": "nonce",
                    "type": "uint128"
                },
                {
                    "internalType": "address",
                    "name": "to",
                    "type": "address"
                },
                {
                    "internalType": "uint256",
                    "name": "value",
                    "type": "uint256"
                },
                {
                    "internalType": "bytes",
                    "name": "data",
                    "type": "bytes"
                },
                {
                    "internalType": "uint8[]",
                    "name": "v",
                    "type": "uint8[]"
                },
                {
                    "internalType": "bytes32[]",
                    "name": "r",
                    "type": "bytes32[]"
                },
                {
                    "internalType": "bytes32[]",
                    "name": "s",
                    "type": "bytes32[]"
                }
            ],
            "name": "execute",
            "outputs": [
                {
                    "internalType": "bytes",
                    "name": "",
                    "type": "bytes"
                }
            ],
            "stateMutability": "nonpayable",
            "type": "function"
        },
        {
            "inputs": [
                {
                    "internalType": "address",
                    "name": "owner",
                    "type": "address"
                }
            ],
            "name": "initialize",
            "outputs": [],
            "stateMutability": "nonpayable",
            "type": "function"
        },
        {
            "inputs": [
                {
                    "internalType": "uint128",
                    "name": "nonce",
                    "type": "uint128"
                }
            ],
            "name": "isFree",
            "outputs": [
                {
                    "internalType": "bool",
                    "name": "",
                    "type": "bool"
                }
            ],
            "stateMutability": "view",
            "type": "function"
        },
        {
            "inputs": [
                {
                    "internalType": "address",
                    "name": "source",
                    "type": "address"
                },
                {
                    "internalType": "address",
                    "name": "destination",
                    "type": "address"
                }
            ],
            "name": "migrate",
            "outputs": [],
            "stateMutability": "nonpayable",
            "type": "function"
        },
        {
            "inputs": [
                {
                    "internalType": "address",
                    "name": "destination",
                    "type": "address"
                }
            ],
            "name": "migrate",
            "outputs": [],
            "stateMutability": "nonpayable",
            "type": "function"
        },
        {
            "inputs": [],
            "name": "nextNonce",
            "outputs": [
                {
                    "internalType": "uint128",
                    "name": "",
                    "type": "uint128"
                }
            ],
            "stateMutability": "view",
            "type": "function"
        },
        {
            "inputs": [
                {
                    "internalType": "address",
                    "name": "signer",
                    "type": "address"
                },
                {
                    "internalType": "uint8",
                    "name": "signaturesNeeded",
                    "type": "uint8"
                }
            ],
            "name": "setSigner",
            "outputs": [],
            "stateMutability": "nonpayable",
            "type": "function"
        },
        {
            "inputs": [],
            "name": "signerCount",
            "outputs": [
                {
                    "internalType": "uint16",
                    "name": "",
                    "type": "uint16"
                }
            ],
            "stateMutability": "view",
            "type": "function"
        },
        {
            "inputs": [
                {
                    "internalType": "address",
                    "name": "",
                    "type": "address"
                }
            ],
            "name": "signers",
            "outputs": [
                {
                    "internalType": "uint8",
                    "name": "",
                    "type": "uint8"
                }
            ],
            "stateMutability": "view",
            "type": "function"
        },
        {
            "inputs": [
                {
                    "internalType": "bytes32",
                    "name": "transactionHash",
                    "type": "bytes32"
                },
                {
                    "internalType": "uint8[]",
                    "name": "v",
                    "type": "uint8[]"
                },
                {
                    "internalType": "bytes32[]",
                    "name": "r",
                    "type": "bytes32[]"
                },
                {
                    "internalType": "bytes32[]",
                    "name": "s",
                    "type": "bytes32[]"
                }
            ],
            "name": "verifySignatures",
            "outputs": [
                {
                    "internalType": "address[]",
                    "name": "",
                    "type": "address[]"
                }
            ],
            "stateMutability": "view",
            "type": "function"
        },
        {
            "stateMutability": "payable",
            "type": "receive"
        }
    ],
    "bytecode": "608060405234801561001057600080fd5b506080600055611f7c806100256000396000f3fe6080604052600436106100e15760003560e01c8063b5fe51631161007f578063cb6367d111610059578063cb6367d1146102b2578063ce5494bb146102df578063d69c3d30146102ff578063ecec0dfd1461032c57600080fd5b8063b5fe516314610242578063b6e404de14610272578063c4d66de81461029257600080fd5b8063736c0d5b116100bb578063736c0d5b1461019a5780637ca548c6146101dc5780637cedbb801461020a5780638291286c1461022d57600080fd5b80630f43d678146101225780631068361f1461014457806348753d001461016457600080fd5b3661011d5760405134815233907f88a5966d370b9919b20f3e2c13ff65706f196a4e32cc2c12bf57088f885258749060200160405180910390a2005b600080fd5b34801561012e57600080fd5b5061014261013d366004611990565b61034c565b005b34801561015057600080fd5b5061014261015f366004611903565b610400565b34801561017057600080fd5b5061018461017f366004611a79565b610467565b6040516101919190611c56565b60405180910390f35b3480156101a657600080fd5b506101ca6101b53660046118e8565b60026020526000908152604090205460ff1681565b60405160ff9091168152602001610191565b3480156101e857600080fd5b506003546101f79061ffff1681565b60405161ffff9091168152602001610191565b34801561021657600080fd5b5061021f606481565b604051908152602001610191565b34801561023957600080fd5b506101846105d2565b34801561024e57600080fd5b5061026261025d366004611a5e565b610660565b6040519015158152602001610191565b34801561027e57600080fd5b5061014261028d366004611936565b61069b565b34801561029e57600080fd5b506101426102ad3660046118e8565b610726565b3480156102be57600080fd5b506102d26102cd3660046119ba565b6107b8565b6040516101919190611c19565b3480156102eb57600080fd5b506101426102fa3660046118e8565b61099b565b34801561030b57600080fd5b506103146109a8565b6040516001600160801b039091168152602001610191565b34801561033857600080fd5b506102d2610347366004611a79565b6109bc565b3033148061036c57503360009081526002602052604090205460ff166001145b6103ae5760405162461bcd60e51b815260206004820152600e60248201526d1b9bdd08185d5d1a1bdc9a5e995960921b60448201526064015b60405180910390fd5b6103b882826109f3565b60035461ffff166103fc5760405162461bcd60e51b815260206004820152600e60248201526d07369676e657220636f756e7420360941b60448201526064016103a5565b5050565b3033148061042057503360009081526002602052604090205460ff166001145b61045d5760405162461bcd60e51b815260206004820152600e60248201526d1b9bdd08185d5d1a1bdc9a5e995960921b60448201526064016103a5565b6103fc8282610b8f565b606060006105038d6004805461047c90611e62565b80601f01602080910402602001604051908101604052809291908181526020018280546104a890611e62565b80156104f55780601f106104ca576101008083540402835291602001916104f5565b820191906000526020600020905b8154815290600101906020018083116104d857829003601f168201915b50505050508e8e8e8e610c20565b90506000610516828a8a8a8a8a8a6107b8565b905060006105698e8d8d8080601f016020809104026020016040519081016040528093929190818152602001838380828437600081840152601f19601f820116905080830192505050505050508f610ea2565b90506105748f610fb2565b8d6001600160a01b03167f64ada3f9bcd41ebd407b399dc401184273a19bc294825172626af05a15c95d256105a98e8e6110bc565b846040516105b8929190611c2c565b60405180910390a29e9d5050505050505050505050505050565b600480546105df90611e62565b80601f016020809104026020016040519081016040528092919081815260200182805461060b90611e62565b80156106585780601f1061062d57610100808354040283529160200191610658565b820191906000526020600020905b81548152906001019060200180831161063b57829003601f168201915b505050505081565b60008061066c60005490565b90506106788184611178565b8061069457506106948161068e60005460801c90565b856111bd565b9392505050565b6106dd8483838080601f016020809104026020016040519081016040528093929190818152602001838380828437600092019190915250889250610ea2915050565b5060405162461bcd60e51b815260206004820152601760248201527f54657374207061737365642e20526576657274696e672e00000000000000000060448201526064016103a5565b60015460ff161561076f5760405162461bcd60e51b8152602060048201526013602482015272185b1c9958591e481a5b9a5d1a585b1a5e9959606a1b60448201526064016103a5565b61077e3063ffffffff16611212565b80516107929160049160209091019061177d565b506003805461ffff191690556107a98160016109f3565b506001805460ff191681179055565b606060008467ffffffffffffffff8111156107d5576107d5611f30565b6040519080825280602002602001820160405280156107fe578160200160208202803683370190505b50905060005b8581101561098557600060018b8b8b8581811061082357610823611f1a565b90506020020160208101906108389190611b6f565b8a8a8681811061084a5761084a611f1a565b9050602002013589898781811061086357610863611f1a565b90506020020135604051600081526020016040526040516108a0949392919093845260ff9290921660208401526040830152606082015260800190565b6020604051602081039080840390855afa1580156108c2573d6000803e3d6000fd5b505060408051601f1901516001600160a01b03811660009081526002602052919091205490925060ff1690508015801590610900575060ff81168810155b61093d5760405162461bcd60e51b815260206004820152600e60248201526d31b7b9b4b3b732b91032b93937b960911b60448201526064016103a5565b8184848151811061095057610950611f1a565b60200260200101906001600160a01b031690816001600160a01b0316815250505050808061097d90611ebf565b915050610804565b5061098f816112e1565b98975050505050505050565b6109a53382610b8f565b50565b600080546109b7906001611c89565b905090565b606060006109d18d6004805461047c90611e62565b90506109e2818989898989896107b8565b9d9c50505050505050505050505050565b6001600160a01b0382163b15610a4b5760405162461bcd60e51b815260206004820152601b60248201527f7369676e65722063616e6e6f74206265206120636f6e7472616374000000000060448201526064016103a5565b6001600160a01b038216610a8e5760405162461bcd60e51b815260206004820152600a602482015269183c181039b4b3b732b960b11b60448201526064016103a5565b6001600160a01b0382166000908152600260205260409020805460ff83811660ff19831617909255168015801590610ac7575060ff8216155b15610b00576003805461ffff16906000610ae083611e2d565b91906101000a81548161ffff021916908361ffff16021790555050610b49565b60ff8116158015610b14575060008260ff16115b15610b49576003805461ffff16906000610b2d83611e9d565b91906101000a81548161ffff021916908361ffff160217905550505b60405160ff831681526001600160a01b038416907f7f00bf87056fc9622b70d830cce34aa24d6c12881ebbc71d3bf22d0c5ae295b79060200160405180910390a2505050565b6001600160a01b03811660009081526002602052604090205460ff1615610bee5760405162461bcd60e51b815260206004820152601360248201527264657374696e6174696f6e206e6f74206e657760681b60448201526064016103a5565b6001600160a01b038216600090815260026020526040902054610c1590829060ff166109f3565b6103fc8260006109f3565b6040805160098082526101408201909252600091829190816020015b6060815260200190600190039081610c3c579050509050610c65886001600160801b0316611212565b81600081518110610c7857610c78611f1a565b60200260200101819052508681600181518110610c9757610c97611f1a565b6020026020010181905250610cad615208611212565b81600281518110610cc057610cc0611f1a565b602002602001018190525085604051602001610cf4919060609190911b6bffffffffffffffffffffffff1916815260140190565b60405160208183030381529060405281600381518110610d1657610d16611f1a565b6020026020010181905250610d2a85611212565b81600481518110610d3d57610d3d611f1a565b602002602001018190525083838080601f016020809104026020016040519081016040528093929190818152602001838380828437600092019190915250508351849250600591508110610d9357610d93611f1a565b6020026020010181905250610da746611212565b81600681518110610dba57610dba611f1a565b6020026020010181905250610dcf6000611212565b81600781518110610de257610de2611f1a565b602002602001018190525060005b6008811015610e4b57610e1b828281518110610e0e57610e0e611f1a565b60200260200101516113b5565b828281518110610e2d57610e2d611f1a565b60200260200101819052508080610e4390611ebf565b915050610df0565b5080600781518110610e5f57610e5f611f1a565b602002602001015181600881518110610e7a57610e7a611f1a565b6020026020010181905250610e8e81611425565b805190602001209150509695505050505050565b6060825160001480610ebd57506001600160a01b0384163b15155b610f005760405162461bcd60e51b81526020600482015260146024820152731d1c985b9cd9995c881bdc8818dbdb9d1c9858dd60621b60448201526064016103a5565b600080856001600160a01b03168486604051610f1c9190611bce565b60006040518083038185875af1925050503d8060008114610f59576040519150601f19603f3d011682016040523d82523d6000602084013e610f5e565b606091505b50915091508115610f725791506106949050565b805115610f8157805160208201fd5b60405162461bcd60e51b815260206004820152600660248201526519985a5b195960d21b60448201526064016103a5565b60005480608081901c610fc58285611178565b156110225761101d846001610fda8583611dc2565b610fe49190611dc2565b6001600160801b0319600185811b6ffffffffffffffffffffffffffffffffe16176001600160801b039283161b60801b16911617600055565b6110b6565b61102d8282866111bd565b156110855761101d8260016110428783611dc2565b61104c9190611dc2565b6001600160801b03166001901b836001600160801b0316176001600160801b031960809190911b166001600160801b0390911617600055565b60405162461bcd60e51b81526004016103a5906020808252600490820152631d5cd95960e21b604082015260600190565b50505050565b600060048210156110cf57506000611172565b6018838360038181106110e4576110e4611f1a565b909101356001600160f81b03191690911c905060108484600281811061110c5761110c611f1a565b909101356001600160f81b03191690911c905060088585600181811061113457611134611f1a565b909101356001600160f81b03191690911c9050858560008161115857611158611f1a565b9050013560f81c60f81b6001600160f81b03191617171790505b92915050565b6000826001600160801b0316826001600160801b031611801561069457506111aa60646001600160801b038516611cab565b826001600160801b031611159392505050565b6000806111ca8386611dc2565b6001600160801b031690506000811180156111e6575060808111155b801561120957506001600160801b038416611202600183611dea565b6001901b16155b95945050505050565b6060600060015b8084106112355760081b8161122d81611ebf565b925050611219565b508260008267ffffffffffffffff81111561125257611252611f30565b6040519080825280601f01601f19166020018201604052801561127c576020820181803683370190505b509050825b80156112d85760f883901b82611298600184611dea565b815181106112a8576112a8611f1a565b60200101906001600160f81b031916908160001a90535060089290921c91806112d081611e4b565b915050611281565b50949350505050565b60005b81518110156103fc5760006112fa826001611cab565b90505b82518110156113a25782818151811061131857611318611f1a565b60200260200101516001600160a01b031683838151811061133b5761133b611f1a565b60200260200101516001600160a01b031614156113905760405162461bcd60e51b81526020600482015260136024820152726475706c6963617465207369676e617475726560681b60448201526064016103a5565b8061139a81611ebf565b9150506112fd565b50806113ad81611ebf565b9150506112e4565b606080825160011480156113e457506080836000815181106113d9576113d9611f1a565b016020015160f81c11155b156113f0575081611172565b6113fc83516080611469565b8360405160200161140e929190611bea565b604051602081830303815290604052905092915050565b606060006114328361160c565b9050611440815160c0611469565b81604051602001611452929190611bea565b604051602081830303815290604052915050919050565b60608060388410156114d3576040805160018082528183019092529060208201818036833701905050905061149e8385611cab565b601f1a60f81b816000815181106114b7576114b7611f1a565b60200101906001600160f81b031916908160001a905350610694565b600060015b8086106114f457816114e981611ebf565b92505060081b6114d8565b6114ff826001611cab565b67ffffffffffffffff81111561151757611517611f30565b6040519080825280601f01601f191660200182016040528015611541576020820181803683370190505b50925061154e8583611cab565b611559906037611cab565b601f1a60f81b8360008151811061157257611572611f1a565b60200101906001600160f81b031916908160001a905350600190505b818111611603576101006115a28284611dea565b6115ae90610100611d1a565b6115b89088611cc3565b6115c29190611eda565b601f1a60f81b8382815181106115da576115da611f1a565b60200101906001600160f81b031916908160001a905350806115fb81611ebf565b91505061158e565b50509392505050565b606081516000141561162c57505060408051600081526020810190915290565b6000805b83518110156116735783818151811061164b5761164b611f1a565b6020026020010151518261165f9190611cab565b91508061166b81611ebf565b915050611630565b60008267ffffffffffffffff81111561168e5761168e611f30565b6040519080825280601f01601f1916602001820160405280156116b8576020820181803683370190505b50600092509050602081015b85518310156112d85760008684815181106116e1576116e1611f1a565b6020026020010151905060006020820190506116ff83828451611722565b815161170b9084611cab565b92505050828061171a90611ebf565b9350506116c4565b8282825b6020811061175e578151835261173d602084611cab565b925061174a602083611cab565b9150611757602082611dea565b9050611726565b9051825160001960039390931b9290921c918216911916179052505050565b82805461178990611e62565b90600052602060002090601f0160209004810192826117ab57600085556117f1565b82601f106117c457805160ff19168380011785556117f1565b828001600101855582156117f1579182015b828111156117f15782518255916020019190600101906117d6565b506117fd929150611801565b5090565b5b808211156117fd5760008155600101611802565b80356001600160a01b038116811461182d57600080fd5b919050565b60008083601f84011261184457600080fd5b50813567ffffffffffffffff81111561185c57600080fd5b6020830191508360208260051b850101111561187757600080fd5b9250929050565b60008083601f84011261189057600080fd5b50813567ffffffffffffffff8111156118a857600080fd5b60208301915083602082850101111561187757600080fd5b80356001600160801b038116811461182d57600080fd5b803560ff8116811461182d57600080fd5b6000602082840312156118fa57600080fd5b61069482611816565b6000806040838503121561191657600080fd5b61191f83611816565b915061192d60208401611816565b90509250929050565b6000806000806060858703121561194c57600080fd5b61195585611816565b935060208501359250604085013567ffffffffffffffff81111561197857600080fd5b6119848782880161187e565b95989497509550505050565b600080604083850312156119a357600080fd5b6119ac83611816565b915061192d602084016118d7565b60008060008060008060006080888a0312156119d557600080fd5b87359650602088013567ffffffffffffffff808211156119f457600080fd5b611a008b838c01611832565b909850965060408a0135915080821115611a1957600080fd5b611a258b838c01611832565b909650945060608a0135915080821115611a3e57600080fd5b50611a4b8a828b01611832565b989b979a50959850939692959293505050565b600060208284031215611a7057600080fd5b610694826118c0565b600080600080600080600080600080600060e08c8e031215611a9a57600080fd5b611aa38c6118c0565b9a50611ab160208d01611816565b995060408c0135985067ffffffffffffffff8060608e01351115611ad457600080fd5b611ae48e60608f01358f0161187e565b909950975060808d0135811015611afa57600080fd5b611b0a8e60808f01358f01611832565b909750955060a08d0135811015611b2057600080fd5b611b308e60a08f01358f01611832565b909550935060c08d0135811015611b4657600080fd5b50611b578d60c08e01358e01611832565b81935080925050509295989b509295989b9093969950565b600060208284031215611b8157600080fd5b610694826118d7565b600081518084526020808501945080840160005b83811015611bc35781516001600160a01b031687529582019590820190600101611b9e565b509495945050505050565b60008251611be0818460208701611e01565b9190910192915050565b60008351611bfc818460208801611e01565b835190830190611c10818360208801611e01565b01949350505050565b6020815260006106946020830184611b8a565b63ffffffff60e01b83168152604060208201526000611c4e6040830184611b8a565b949350505050565b6020815260008251806020840152611c75816040850160208701611e01565b601f01601f19169190910160400192915050565b60006001600160801b03808316818516808303821115611c1057611c10611eee565b60008219821115611cbe57611cbe611eee565b500190565b600082611cd257611cd2611f04565b500490565b600181815b80851115611d12578160001904821115611cf857611cf8611eee565b80851615611d0557918102915b93841c9390800290611cdc565b509250929050565b60006106948383600082611d3057506001611172565b81611d3d57506000611172565b8160018114611d535760028114611d5d57611d79565b6001915050611172565b60ff841115611d6e57611d6e611eee565b50506001821b611172565b5060208310610133831016604e8410600b8410161715611d9c575081810a611172565b611da68383611cd7565b8060001904821115611dba57611dba611eee565b029392505050565b60006001600160801b0383811690831681811015611de257611de2611eee565b039392505050565b600082821015611dfc57611dfc611eee565b500390565b60005b83811015611e1c578181015183820152602001611e04565b838111156110b65750506000910152565b600061ffff821680611e4157611e41611eee565b6000190192915050565b600081611e5a57611e5a611eee565b506000190190565b600181811c90821680611e7657607f821691505b60208210811415611e9757634e487b7160e01b600052602260045260246000fd5b50919050565b600061ffff80831681811415611eb557611eb5611eee565b6001019392505050565b6000600019821415611ed357611ed3611eee565b5060010190565b600082611ee957611ee9611f04565b500690565b634e487b7160e01b600052601160045260246000fd5b634e487b7160e01b600052601260045260246000fd5b634e487b7160e01b600052603260045260246000fd5b634e487b7160e01b600052604160045260246000fdfea2646970667358221220d56f24fbbb2c1c8dbbfac52f683e4f10577ebda0df1ba774cc64d6f7ff66682d64736f6c63430008070033",
    "sourcePath": "c:/Users/luziu/Documents/aktionariat/contracts/src/multisig/MultiSigWallet.sol",
    "compiler": {
        "name": "solc",
        "version": "0.8.7+commit.e28d00a7"
    },
    "functionHashes": {
        "MAX_INCREASE()": "7cedbb80",
        "checkExecution(address,uint256,bytes)": "b6e404de",
        "checkSignatures(uint128,address,uint256,bytes,uint8[],bytes32[],bytes32[])": "ecec0dfd",
        "contractId()": "8291286c",
        "execute(uint128,address,uint256,bytes,uint8[],bytes32[],bytes32[])": "48753d00",
        "initialize(address)": "c4d66de8",
        "isFree(uint128)": "b5fe5163",
        "migrate(address)": "ce5494bb",
        "migrate(address,address)": "1068361f",
        "nextNonce()": "d69c3d30",
        "setSigner(address,uint8)": "0f43d678",
        "signerCount()": "7ca548c6",
        "signers(address)": "736c0d5b",
        "verifySignatures(bytes32,uint8[],bytes32[],bytes32[])": "cb6367d1"
    },
    "gasEstimates": {
        "creation": {
            "codeDepositCost": "1612000",
            "executionCost": "23793",
            "totalCost": "1635793"
        },
        "external": {
            "MAX_INCREASE()": "262",
            "checkExecution(address,uint256,bytes)": "infinite",
            "checkSignatures(uint128,address,uint256,bytes,uint8[],bytes32[],bytes32[])": "infinite",
            "contractId()": "infinite",
            "execute(uint128,address,uint256,bytes,uint8[],bytes32[],bytes32[])": "infinite",
            "initialize(address)": "infinite",
            "isFree(uint128)": "infinite",
            "migrate(address)": "infinite",
            "migrate(address,address)": "infinite",
            "nextNonce()": "2517",
            "setSigner(address,uint8)": "infinite",
            "signerCount()": "2358",
            "signers(address)": "2557",
            "verifySignatures(bytes32,uint8[],bytes32[],bytes32[])": "infinite"
        },
        "internal": {
            "_migrate(address,address)": "infinite",
            "_setSigner(address,uint8)": "infinite",
            "calculateTransactionHash(uint128,bytes memory,address,uint256,bytes calldata)": "infinite",
            "extractSelector(bytes calldata)": "379",
            "requireNoDuplicates(address[] memory)": "infinite",
            "toBytes(uint256)": "infinite"
        }
    }
}