{
    "contractName": "AllowlistShares",
    "abi": [
        {
            "inputs": [
                {
                    "internalType": "string",
                    "name": "name",
                    "type": "string"
                },
                {
                    "internalType": "string",
                    "name": "symbol",
                    "type": "string"
                },
                {
                    "internalType": "string",
                    "name": "_terms",
                    "type": "string"
                },
                {
                    "internalType": "address",
                    "name": "_recoveryHub",
                    "type": "address"
                },
                {
                    "internalType": "address",
                    "name": "_owner",
                    "type": "address"
                }
            ],
            "stateMutability": "nonpayable",
            "type": "constructor"
        },
        {
            "anonymous": false,
            "inputs": [
                {
                    "indexed": true,
                    "internalType": "address",
                    "name": "whitelistAddress",
                    "type": "address"
                },
                {
                    "indexed": false,
                    "internalType": "uint8",
                    "name": "addressType",
                    "type": "uint8"
                }
            ],
            "name": "AddressTypeUpdate",
            "type": "event"
        },
        {
            "anonymous": false,
            "inputs": [
                {
                    "indexed": true,
                    "internalType": "address",
                    "name": "owner",
                    "type": "address"
                },
                {
                    "indexed": true,
                    "internalType": "address",
                    "name": "spender",
                    "type": "address"
                },
                {
                    "indexed": false,
                    "internalType": "uint256",
                    "name": "value",
                    "type": "uint256"
                }
            ],
            "name": "Approval",
            "type": "event"
        },
        {
            "anonymous": false,
            "inputs": [
                {
                    "indexed": false,
                    "internalType": "string",
                    "name": "name",
                    "type": "string"
                },
                {
                    "indexed": false,
                    "internalType": "string",
                    "name": "symbol",
                    "type": "string"
                }
            ],
            "name": "NameChanged",
            "type": "event"
        },
        {
            "anonymous": false,
            "inputs": [
                {
                    "indexed": true,
                    "internalType": "address",
                    "name": "previousOwner",
                    "type": "address"
                },
                {
                    "indexed": true,
                    "internalType": "address",
                    "name": "newOwner",
                    "type": "address"
                }
            ],
            "name": "OwnershipTransferred",
            "type": "event"
        },
        {
            "anonymous": false,
            "inputs": [
                {
                    "indexed": true,
                    "internalType": "address",
                    "name": "from",
                    "type": "address"
                },
                {
                    "indexed": true,
                    "internalType": "address",
                    "name": "to",
                    "type": "address"
                },
                {
                    "indexed": false,
                    "internalType": "uint256",
                    "name": "value",
                    "type": "uint256"
                }
            ],
            "name": "Transfer",
            "type": "event"
        },
        {
            "inputs": [
                {
                    "internalType": "address",
                    "name": "owner",
                    "type": "address"
                },
                {
                    "internalType": "address",
                    "name": "spender",
                    "type": "address"
                }
            ],
            "name": "allowance",
            "outputs": [
                {
                    "internalType": "uint256",
                    "name": "",
                    "type": "uint256"
                }
            ],
            "stateMutability": "view",
            "type": "function"
        },
        {
            "inputs": [
                {
                    "internalType": "address",
                    "name": "spender",
                    "type": "address"
                },
                {
                    "internalType": "uint256",
                    "name": "value",
                    "type": "uint256"
                }
            ],
            "name": "approve",
            "outputs": [
                {
                    "internalType": "bool",
                    "name": "",
                    "type": "bool"
                }
            ],
            "stateMutability": "nonpayable",
            "type": "function"
        },
        {
            "inputs": [
                {
                    "internalType": "address",
                    "name": "account",
                    "type": "address"
                }
            ],
            "name": "balanceOf",
            "outputs": [
                {
                    "internalType": "uint256",
                    "name": "",
                    "type": "uint256"
                }
            ],
            "stateMutability": "view",
            "type": "function"
        },
        {
            "inputs": [],
            "name": "claimPeriod",
            "outputs": [
                {
                    "internalType": "uint256",
                    "name": "",
                    "type": "uint256"
                }
            ],
            "stateMutability": "pure",
            "type": "function"
        },
        {
            "inputs": [],
            "name": "customCollateralAddress",
            "outputs": [
                {
                    "internalType": "address",
                    "name": "",
                    "type": "address"
                }
            ],
            "stateMutability": "view",
            "type": "function"
        },
        {
            "inputs": [],
            "name": "customCollateralRate",
            "outputs": [
                {
                    "internalType": "uint256",
                    "name": "",
                    "type": "uint256"
                }
            ],
            "stateMutability": "view",
            "type": "function"
        },
        {
            "inputs": [],
            "name": "decimals",
            "outputs": [
                {
                    "internalType": "uint8",
                    "name": "",
                    "type": "uint8"
                }
            ],
            "stateMutability": "view",
            "type": "function"
        },
        {
            "inputs": [
                {
                    "internalType": "address",
                    "name": "lostAddress",
                    "type": "address"
                }
            ],
            "name": "deleteClaim",
            "outputs": [],
            "stateMutability": "nonpayable",
            "type": "function"
        },
        {
            "inputs": [],
            "name": "getClaimDeleter",
            "outputs": [
                {
                    "internalType": "address",
                    "name": "",
                    "type": "address"
                }
            ],
            "stateMutability": "view",
            "type": "function"
        },
        {
            "inputs": [
                {
                    "internalType": "address",
                    "name": "collateralType",
                    "type": "address"
                }
            ],
            "name": "getCollateralRate",
            "outputs": [
                {
                    "internalType": "uint256",
                    "name": "",
                    "type": "uint256"
                }
            ],
            "stateMutability": "view",
            "type": "function"
        },
        {
            "inputs": [
                {
                    "internalType": "address",
                    "name": "account",
                    "type": "address"
                },
                {
                    "internalType": "uint8",
                    "name": "number",
                    "type": "uint8"
                }
            ],
            "name": "hasFlag",
            "outputs": [
                {
                    "internalType": "bool",
                    "name": "",
                    "type": "bool"
                }
            ],
            "stateMutability": "view",
            "type": "function"
        },
        {
            "inputs": [
                {
                    "internalType": "address",
                    "name": "account",
                    "type": "address"
                }
            ],
            "name": "isAllowlisted",
            "outputs": [
                {
                    "internalType": "bool",
                    "name": "",
                    "type": "bool"
                }
            ],
            "stateMutability": "view",
            "type": "function"
        },
        {
            "inputs": [
                {
                    "internalType": "address",
                    "name": "account",
                    "type": "address"
                }
            ],
            "name": "isPowerlisted",
            "outputs": [
                {
                    "internalType": "bool",
                    "name": "",
                    "type": "bool"
                }
            ],
            "stateMutability": "view",
            "type": "function"
        },
        {
            "inputs": [],
            "name": "name",
            "outputs": [
                {
                    "internalType": "string",
                    "name": "",
                    "type": "string"
                }
            ],
            "stateMutability": "view",
            "type": "function"
        },
        {
            "inputs": [
                {
                    "internalType": "address",
                    "name": "target",
                    "type": "address"
                }
            ],
            "name": "notifyClaimDeleted",
            "outputs": [],
            "stateMutability": "nonpayable",
            "type": "function"
        },
        {
            "inputs": [
                {
                    "internalType": "address",
                    "name": "target",
                    "type": "address"
                }
            ],
            "name": "notifyClaimMade",
            "outputs": [],
            "stateMutability": "nonpayable",
            "type": "function"
        },
        {
            "inputs": [],
            "name": "owner",
            "outputs": [
                {
                    "internalType": "address",
                    "name": "",
                    "type": "address"
                }
            ],
            "stateMutability": "view",
            "type": "function"
        },
        {
            "inputs": [
                {
                    "internalType": "address",
                    "name": "account",
                    "type": "address"
                },
                {
                    "internalType": "bool",
                    "name": "value",
                    "type": "bool"
                }
            ],
            "name": "powerlist",
            "outputs": [],
            "stateMutability": "nonpayable",
            "type": "function"
        },
        {
            "inputs": [
                {
                    "internalType": "address",
                    "name": "oldAddress",
                    "type": "address"
                },
                {
                    "internalType": "address",
                    "name": "newAddress",
                    "type": "address"
                }
            ],
            "name": "recover",
            "outputs": [],
            "stateMutability": "nonpayable",
            "type": "function"
        },
        {
            "inputs": [],
            "name": "recovery",
            "outputs": [
                {
                    "internalType": "contract IRecoveryHub",
                    "name": "",
                    "type": "address"
                }
            ],
            "stateMutability": "view",
            "type": "function"
        },
        {
            "inputs": [],
            "name": "restrictTransfers",
            "outputs": [
                {
                    "internalType": "bool",
                    "name": "",
                    "type": "bool"
                }
            ],
            "stateMutability": "view",
            "type": "function"
        },
        {
            "inputs": [
                {
                    "internalType": "bool",
                    "name": "transferRestrictionsApplicable",
                    "type": "bool"
                }
            ],
            "name": "setApplicable",
            "outputs": [],
            "stateMutability": "nonpayable",
            "type": "function"
        },
        {
            "inputs": [
                {
                    "internalType": "string",
                    "name": "_symbol",
                    "type": "string"
                },
                {
                    "internalType": "string",
                    "name": "_name",
                    "type": "string"
                }
            ],
            "name": "setName",
            "outputs": [],
            "stateMutability": "nonpayable",
            "type": "function"
        },
        {
            "inputs": [
                {
                    "internalType": "address[]",
                    "name": "addressesToAdd",
                    "type": "address[]"
                },
                {
                    "internalType": "uint8",
                    "name": "value",
                    "type": "uint8"
                }
            ],
            "name": "setType",
            "outputs": [],
            "stateMutability": "nonpayable",
            "type": "function"
        },
        {
            "inputs": [
                {
                    "internalType": "address",
                    "name": "newAddress",
                    "type": "address"
                },
                {
                    "internalType": "uint8",
                    "name": "typeNumber",
                    "type": "uint8"
                }
            ],
            "name": "setType",
            "outputs": [],
            "stateMutability": "nonpayable",
            "type": "function"
        },
        {
            "inputs": [],
            "name": "symbol",
            "outputs": [
                {
                    "internalType": "string",
                    "name": "",
                    "type": "string"
                }
            ],
            "stateMutability": "view",
            "type": "function"
        },
        {
            "inputs": [],
            "name": "terms",
            "outputs": [
                {
                    "internalType": "string",
                    "name": "",
                    "type": "string"
                }
            ],
            "stateMutability": "view",
            "type": "function"
        },
        {
            "inputs": [],
            "name": "totalSupply",
            "outputs": [
                {
                    "internalType": "uint256",
                    "name": "",
                    "type": "uint256"
                }
            ],
            "stateMutability": "view",
            "type": "function"
        },
        {
            "inputs": [
                {
                    "internalType": "address",
                    "name": "recipient",
                    "type": "address"
                },
                {
                    "internalType": "uint256",
                    "name": "amount",
                    "type": "uint256"
                }
            ],
            "name": "transfer",
            "outputs": [
                {
                    "internalType": "bool",
                    "name": "",
                    "type": "bool"
                }
            ],
            "stateMutability": "nonpayable",
            "type": "function"
        },
        {
            "inputs": [
                {
                    "internalType": "address",
                    "name": "recipient",
                    "type": "address"
                },
                {
                    "internalType": "uint256",
                    "name": "amount",
                    "type": "uint256"
                },
                {
                    "internalType": "bytes",
                    "name": "data",
                    "type": "bytes"
                }
            ],
            "name": "transferAndCall",
            "outputs": [
                {
                    "internalType": "bool",
                    "name": "",
                    "type": "bool"
                }
            ],
            "stateMutability": "nonpayable",
            "type": "function"
        },
        {
            "inputs": [
                {
                    "internalType": "address",
                    "name": "sender",
                    "type": "address"
                },
                {
                    "internalType": "address",
                    "name": "recipient",
                    "type": "address"
                },
                {
                    "internalType": "uint256",
                    "name": "amount",
                    "type": "uint256"
                }
            ],
            "name": "transferFrom",
            "outputs": [
                {
                    "internalType": "bool",
                    "name": "",
                    "type": "bool"
                }
            ],
            "stateMutability": "nonpayable",
            "type": "function"
        },
        {
            "inputs": [
                {
                    "internalType": "address",
                    "name": "newOwner",
                    "type": "address"
                }
            ],
            "name": "transferOwnership",
            "outputs": [],
            "stateMutability": "nonpayable",
            "type": "function"
        }
    ],
    "bytecode": "60a06040523480156200001157600080fd5b5060405162001cb138038062001cb183398101604081905262000034916200050e565b600380546001600160a81b0319166101006001600160a01b0384811682029290921792839055604051849389938993600093899388939290049091169084907f8be0079c531659141344cd1fd0a4f28419497f9722a3daafe3b4186f6b6457e0908290a350620000a560016200013e565b6001600160a01b0316608052620000bd83836200018c565b50508451620000d6925060089150602086019062000371565b50604051636427ed9760e01b8152600060048201526001600160a01b03831690636427ed9790602401600060405180830381600087803b1580156200011a57600080fd5b505af11580156200012f573d6000803e3d6000fd5b50505050505050505062000696565b6003805460ff60a81b1916600160a81b17905580156200016c576200016660006001620001f7565b62000179565b62000179600080620001f7565b620001886000601683620002b6565b5050565b8151620001a190600790602085019062000371565b508051620001b790600690602084019062000371565b507f6c20b91d1723b78732eba64ff11ebd7966a6e4af568a00fa4f6b72c20f58b02a8183604051620001eb929190620005f3565b60405180910390a15050565b60035461010090046001600160a01b03163314620002475760405162461bcd60e51b81526020600482015260096024820152683737ba1037bbb732b960b91b604482015260640160405180910390fd5b6200025b82601460ff8416600114620002b6565b506200027082601560ff8416600214620002b6565b5060405160ff821681526001600160a01b038316907fe423d7d31023dbacefed7c937785d0012ad8f314381295efebfc0471d2c434549060200160405180910390a25050565b6000811515620002c78585620002ef565b151514620002e457620002db848462000331565b506001620002e8565b5060005b9392505050565b600080620002ff8360e062000625565b6001600160a01b038516600090815260208190526040902054600160ff929092169190911b9081161491505092915050565b6000620003408260e062000625565b6001600160a01b039390931660009081526020819052604090208054600160ff9095169490941b9093189092555050565b8280546200037f9062000659565b90600052602060002090601f016020900481019282620003a35760008555620003ee565b82601f10620003be57805160ff1916838001178555620003ee565b82800160010185558215620003ee579182015b82811115620003ee578251825591602001919060010190620003d1565b50620003fc92915062000400565b5090565b5b80821115620003fc576000815560010162000401565b634e487b7160e01b600052604160045260246000fd5b60005b838110156200044a57818101518382015260200162000430565b838111156200045a576000848401525b50505050565b600082601f8301126200047257600080fd5b81516001600160401b03808211156200048f576200048f62000417565b604051601f8301601f19908116603f01168101908282118183101715620004ba57620004ba62000417565b81604052838152866020858801011115620004d457600080fd5b620004e78460208301602089016200042d565b9695505050505050565b80516001600160a01b03811681146200050957600080fd5b919050565b600080600080600060a086880312156200052757600080fd5b85516001600160401b03808211156200053f57600080fd5b6200054d89838a0162000460565b965060208801519150808211156200056457600080fd5b6200057289838a0162000460565b955060408801519150808211156200058957600080fd5b50620005988882890162000460565b935050620005a960608701620004f1565b9150620005b960808701620004f1565b90509295509295909350565b60008151808452620005df8160208601602086016200042d565b601f01601f19169290920160200192915050565b604081526000620006086040830185620005c5565b82810360208401526200061c8185620005c5565b95945050505050565b600060ff821660ff84168060ff038211156200065157634e487b7160e01b600052601160045260246000fd5b019392505050565b600181811c908216806200066e57607f821691505b602082108114156200069057634e487b7160e01b600052602260045260246000fd5b50919050565b6080516115dc620006d56000396000818161043c0152818161064d015281816107f60152818161095b01528181610a320152610d0e01526115dc6000f3fe608060405234801561001057600080fd5b50600436106101f05760003560e01c806377e071ad1161010f578063d37a9bb0116100a2578063e445d70a11610071578063e445d70a1461045e578063e5b824ec14610471578063f2fde38b14610484578063f5c0b95f1461049757600080fd5b8063d37a9bb0146103e2578063d5025625146103f6578063dd62ed3e146103fe578063ddceafa91461043757600080fd5b8063a49a7cb1116100de578063a49a7cb114610396578063a9059cbb146103a9578063c18172c4146103bc578063c7db8b27146103cf57600080fd5b806377e071ad1461035a5780637dc2cd981461036d5780638da5cb5b1461037657806395d89b411461038e57600080fd5b8063313ce567116101875780635c707f07116101565780635c707f0714610318578063609181171461032b578063648bf7741461033457806370a082311461034757600080fd5b8063313ce567146102be57806332a7ae95146102dd5780634000aea0146102f2578063429c66f01461030557600080fd5b806318160ddd116101c357806318160ddd1461027057806323b872dd146102825780632a0a4ed5146102955780632b343099146102ab57600080fd5b806305a3b809146101f557806306fdde031461021d578063095ea7b3146102325780630c6f0e5d14610245575b600080fd5b610208610203366004611076565b6104aa565b60405190151581526020015b60405180910390f35b6102256104bd565b60405161021491906110de565b6102086102403660046110f1565b61054b565b600454610258906001600160a01b031681565b6040516001600160a01b039091168152602001610214565b6002545b604051908152602001610214565b61020861029036600461111b565b610561565b60035461010090046001600160a01b0316610258565b6102086102b9366004611076565b6105bf565b6003546102cb9060ff1681565b60405160ff9091168152602001610214565b6102f06102eb366004611076565b6105cc565b005b610208610300366004611157565b6106ac565b6102f06103133660046111ef565b610751565b6102f0610326366004611316565b6107ae565b61027460055481565b6102f061034236600461137a565b6107eb565b610274610355366004611076565b610833565b610274610368366004611076565b610857565b62ed4e00610274565b6003546102589061010090046001600160a01b031681565b61022561089d565b6102f06103a43660046113ad565b6108aa565b6102086103b73660046110f1565b610944565b6102f06103ca366004611076565b610950565b6102f06103dd3660046113e5565b6109a2565b60035461020890600160a81b900460ff1681565b6102256109e2565b61027461040c36600461137a565b6001600160a01b03918216600090815260016020908152604080832093909416825291909152205490565b6102587f000000000000000000000000000000000000000000000000000000000000000081565b6102f061046c36600461141c565b6109ef565b6102f061047f366004611076565b610a27565b6102f0610492366004611076565b610a77565b6102086104a53660046113ad565b610b0d565b60006104b7826014610b15565b92915050565b600680546104ca90611439565b80601f01602080910402602001604051908101604052809291908181526020018280546104f690611439565b80156105435780601f1061051857610100808354040283529160200191610543565b820191906000526020600020905b81548152906001019060200180831161052657829003601f168201915b505050505081565b6000610558338484610b55565b50600192915050565b600061056e848484610bb7565b6001600160a01b0384166000908152600160209081526040808320338452909152902054600160ff1b8110156105b2576105b285336105ad868561148a565b610b55565b60019150505b9392505050565b60006104b7826016610b15565b60035461010090046001600160a01b03166001600160a01b0316336001600160a01b03161461062e5760405162461bcd60e51b81526020600482015260096024820152686e6f2061636365737360b81b60448201526064015b60405180910390fd5b6040516332a7ae9560e01b81526001600160a01b0382811660048301527f000000000000000000000000000000000000000000000000000000000000000016906332a7ae9590602401600060405180830381600087803b15801561069157600080fd5b505af11580156106a5573d6000803e3d6000fd5b5050505050565b6000806106b98686610944565b9050801561074857604051635260769b60e11b81526001600160a01b0387169063a4c0ed36906106f39033908990899089906004016114a1565b602060405180830381600087803b15801561070d57600080fd5b505af1158015610721573d6000803e3d6000fd5b505050506040513d601f19601f8201168201806040525081019061074591906114e9565b90505b95945050505050565b60035461010090046001600160a01b031633146107805760405162461bcd60e51b815260040161062590611506565b60005b828110156107a857610796848484610751565b806107a081611529565b915050610783565b50505050565b60035461010090046001600160a01b031633146107dd5760405162461bcd60e51b815260040161062590611506565b6107e78282610c3f565b5050565b336001600160a01b037f0000000000000000000000000000000000000000000000000000000000000000161461082057600080fd5b6107e7828261082e85610833565b610bb7565b6001600160a01b03166000908152602081905260409020546001600160e01b031690565b60006001600160a01b03821630141561087257506001919050565b6004546001600160a01b038381169116141561089057505060055490565b506000919050565b919050565b600780546104ca90611439565b60035461010090046001600160a01b031633146108d95760405162461bcd60e51b815260040161062590611506565b6108eb82601460ff8416600114610ca4565b506108fe82601560ff8416600214610ca4565b5060405160ff821681526001600160a01b038316907fe423d7d31023dbacefed7c937785d0012ad8f314381295efebfc0471d2c434549060200160405180910390a25050565b60006105b88383610cd4565b336001600160a01b037f0000000000000000000000000000000000000000000000000000000000000000161461098557600080fd5b61099081600a610b15565b61099f5761099f81600a610d7b565b50565b60035461010090046001600160a01b031633146109d15760405162461bcd60e51b815260040161062590611506565b6109dd82601683610ca4565b505050565b600880546104ca90611439565b60035461010090046001600160a01b03163314610a1e5760405162461bcd60e51b815260040161062590611506565b61099f81610db9565b336001600160a01b037f00000000000000000000000000000000000000000000000000000000000000001614610a5c57600080fd5b610a6781600a610b15565b1561099f5761099f81600a610d7b565b60035461010090046001600160a01b03163314610aa65760405162461bcd60e51b815260040161062590611506565b6003546040516001600160a01b0380841692610100900416907f8be0079c531659141344cd1fd0a4f28419497f9722a3daafe3b4186f6b6457e090600090a3600380546001600160a01b0390921661010002610100600160a81b0319909216919091179055565b60006105b883835b600080610b238360e0611544565b6001600160a01b038516600090815260208190526040902054600160ff929092169190911b9081161491505092915050565b6001600160a01b0383811660008181526001602090815260408083209487168084529482529182902085905590518481527f8c5be1e5ebec7d5bd14f71427d1e84f3dd0314c0f7b2291e5b200ac8c7c3b92591015b60405180910390a3505050565b610bc2838383610dfb565b6001600160a01b03831660009081526020819052604081208054839290610bea90849061148a565b90915550610bfa90508282610e06565b816001600160a01b0316836001600160a01b03167fddf252ad1be2c89b69c2b068fc378daa952ba7f163c4a11628f55a4df523b3ef83604051610baa91815260200190565b8151610c52906007906020850190610fc6565b508051610c66906006906020840190610fc6565b507f6c20b91d1723b78732eba64ff11ebd7966a6e4af568a00fa4f6b72c20f58b02a8183604051610c98929190611569565b60405180910390a15050565b6000811515610cb38585610b15565b151514610ccc57610cc48484610d7b565b5060016105b8565b5060006105b8565b6000610ce08383610eb3565b610ce957600080fd5b610cf433600a610b15565b15610558576040516304d301a360e41b81523360048201527f00000000000000000000000000000000000000000000000000000000000000006001600160a01b031690634d301a3090602401600060405180830381600087803b158015610d5a57600080fd5b505af1158015610d6e573d6000803e3d6000fd5b5050505050600192915050565b6000610d888260e0611544565b6001600160a01b039390931660009081526020819052604090208054600160ff9095169490941b9093189092555050565b6003805460ff60a81b1916600160a81b1790558015610de357610dde600060016108aa565b610dee565b610dee6000806108aa565b6107e76000601683610ca4565b6109dd838383610ec0565b6001600160a01b038216610e1957600080fd5b6001600160a01b038216600090815260208190526040812054906001600160e01b0319821690610e49848461158e565b90506001600160e01b03198116828114610e905760405162461bcd60e51b81526020600482015260086024820152676f766572666c6f7760c01b6044820152606401610625565b506001600160a01b03909416600090815260208190526040902093909355505050565b6000610558338484610bb7565b610ec982610f54565b15610f025760405162461bcd60e51b81526020600482015260096024820152683337b93134b23232b760b91b6044820152606401610625565b610f0b826104aa565b15610f1557505050565b610f1e836104aa565b80610f2d5750610f2d83610f54565b156109dd57610f3b836105bf565b15610f4b576109dd8260016108aa565b6109dd83610f61565b60006104b7826015610b15565b600354600160a81b900460ff16158015610f815750610f7f81610f54565b155b610fbb5760405162461bcd60e51b815260206004820152600b60248201526a1b9bdd08185b1b1bddd95960aa1b6044820152606401610625565b61099f8160006108aa565b828054610fd290611439565b90600052602060002090601f016020900481019282610ff4576000855561103a565b82601f1061100d57805160ff191683800117855561103a565b8280016001018555821561103a579182015b8281111561103a57825182559160200191906001019061101f565b5061104692915061104a565b5090565b5b80821115611046576000815560010161104b565b80356001600160a01b038116811461089857600080fd5b60006020828403121561108857600080fd5b6105b88261105f565b6000815180845260005b818110156110b75760208185018101518683018201520161109b565b818111156110c9576000602083870101525b50601f01601f19169290920160200192915050565b6020815260006105b86020830184611091565b6000806040838503121561110457600080fd5b61110d8361105f565b946020939093013593505050565b60008060006060848603121561113057600080fd5b6111398461105f565b92506111476020850161105f565b9150604084013590509250925092565b6000806000806060858703121561116d57600080fd5b6111768561105f565b935060208501359250604085013567ffffffffffffffff8082111561119a57600080fd5b818701915087601f8301126111ae57600080fd5b8135818111156111bd57600080fd5b8860208285010111156111cf57600080fd5b95989497505060200194505050565b803560ff8116811461089857600080fd5b60008060006040848603121561120457600080fd5b833567ffffffffffffffff8082111561121c57600080fd5b818601915086601f83011261123057600080fd5b81358181111561123f57600080fd5b8760208260051b850101111561125457600080fd5b60209283019550935061126a91860190506111de565b90509250925092565b634e487b7160e01b600052604160045260246000fd5b600082601f83011261129a57600080fd5b813567ffffffffffffffff808211156112b5576112b5611273565b604051601f8301601f19908116603f011681019082821181831017156112dd576112dd611273565b816040528381528660208588010111156112f657600080fd5b836020870160208301376000602085830101528094505050505092915050565b6000806040838503121561132957600080fd5b823567ffffffffffffffff8082111561134157600080fd5b61134d86838701611289565b9350602085013591508082111561136357600080fd5b5061137085828601611289565b9150509250929050565b6000806040838503121561138d57600080fd5b6113968361105f565b91506113a46020840161105f565b90509250929050565b600080604083850312156113c057600080fd5b6113c98361105f565b91506113a4602084016111de565b801515811461099f57600080fd5b600080604083850312156113f857600080fd5b6114018361105f565b91506020830135611411816113d7565b809150509250929050565b60006020828403121561142e57600080fd5b81356105b8816113d7565b600181811c9082168061144d57607f821691505b6020821081141561146e57634e487b7160e01b600052602260045260246000fd5b50919050565b634e487b7160e01b600052601160045260246000fd5b60008282101561149c5761149c611474565b500390565b6001600160a01b0385168152602081018490526060604082018190528101829052818360808301376000818301608090810191909152601f909201601f191601019392505050565b6000602082840312156114fb57600080fd5b81516105b8816113d7565b6020808252600990820152683737ba1037bbb732b960b91b604082015260600190565b600060001982141561153d5761153d611474565b5060010190565b600060ff821660ff84168060ff0382111561156157611561611474565b019392505050565b60408152600061157c6040830185611091565b82810360208401526107488185611091565b600082198211156115a1576115a1611474565b50019056fea26469706673582212204519e41c2774d300cb3d66dd099889b0c6f103eb7c2e66174f6eac5abbe1f68964736f6c63430008090033",
    "sourcePath": "c:/Users/luziu/Documents/GitHub/contracts/src/allowlist/AllowlistShares.sol",
    "compiler": {
        "name": "solc",
        "version": "0.8.9+commit.e5eed63a"
    },
    "functionHashes": {
        "allowance(address,address)": "dd62ed3e",
        "approve(address,uint256)": "095ea7b3",
        "balanceOf(address)": "70a08231",
        "claimPeriod()": "7dc2cd98",
        "customCollateralAddress()": "0c6f0e5d",
        "customCollateralRate()": "60918117",
        "decimals()": "313ce567",
        "deleteClaim(address)": "32a7ae95",
        "getClaimDeleter()": "2a0a4ed5",
        "getCollateralRate(address)": "77e071ad",
        "hasFlag(address,uint8)": "f5c0b95f",
        "isAllowlisted(address)": "05a3b809",
        "isPowerlisted(address)": "2b343099",
        "name()": "06fdde03",
        "notifyClaimDeleted(address)": "e5b824ec",
        "notifyClaimMade(address)": "c18172c4",
        "owner()": "8da5cb5b",
        "powerlist(address,bool)": "c7db8b27",
        "recover(address,address)": "648bf774",
        "recovery()": "ddceafa9",
        "restrictTransfers()": "d37a9bb0",
        "setApplicable(bool)": "e445d70a",
        "setName(string,string)": "5c707f07",
        "setType(address,uint8)": "a49a7cb1",
        "setType(address[],uint8)": "429c66f0",
        "symbol()": "95d89b41",
        "terms()": "d5025625",
        "totalSupply()": "18160ddd",
        "transfer(address,uint256)": "a9059cbb",
        "transferAndCall(address,uint256,bytes)": "4000aea0",
        "transferFrom(address,address,uint256)": "23b872dd",
        "transferOwnership(address)": "f2fde38b"
    },
    "gasEstimates": {
        "creation": {
            "codeDepositCost": "1119200",
            "executionCost": "infinite",
            "totalCost": "infinite"
        },
        "external": {
            "allowance(address,address)": "infinite",
            "approve(address,uint256)": "24607",
            "balanceOf(address)": "2681",
            "claimPeriod()": "260",
            "customCollateralAddress()": "2450",
            "customCollateralRate()": "2362",
            "decimals()": "2359",
            "deleteClaim(address)": "infinite",
            "getClaimDeleter()": "2432",
            "getCollateralRate(address)": "4713",
            "hasFlag(address,uint8)": "infinite",
            "isAllowlisted(address)": "2800",
            "isPowerlisted(address)": "2865",
            "name()": "infinite",
            "notifyClaimDeleted(address)": "infinite",
            "notifyClaimMade(address)": "infinite",
            "owner()": "2438",
            "powerlist(address,bool)": "infinite",
            "recover(address,address)": "infinite",
            "recovery()": "infinite",
            "restrictTransfers()": "2361",
            "setApplicable(bool)": "infinite",
            "setName(string,string)": "infinite",
            "setType(address,uint8)": "infinite",
            "setType(address[],uint8)": "infinite",
            "symbol()": "infinite",
            "terms()": "infinite",
            "totalSupply()": "2327",
            "transfer(address,uint256)": "infinite",
            "transferAndCall(address,uint256,bytes)": "infinite",
            "transferFrom(address,address,uint256)": "infinite",
            "transferOwnership(address)": "30486"
        },
        "internal": {
            "_beforeTokenTransfer(address,address,uint256)": "infinite"
        }
    }
}