{
    "contractName": "AllowlistDraggableShares",
    "abi": [
        {
            "inputs": [
                {
                    "internalType": "string",
                    "name": "_terms",
                    "type": "string"
                },
                {
                    "internalType": "address",
                    "name": "_wrappedToken",
                    "type": "address"
                },
                {
                    "internalType": "uint256",
                    "name": "_quorum",
                    "type": "uint256"
                },
                {
                    "internalType": "uint256",
                    "name": "_votePeriod",
                    "type": "uint256"
                },
                {
                    "internalType": "address",
                    "name": "_offerFactory",
                    "type": "address"
                },
                {
                    "internalType": "address",
                    "name": "_oracle",
                    "type": "address"
                },
                {
                    "internalType": "address",
                    "name": "_recoveryHub",
                    "type": "address"
                },
                {
                    "internalType": "address",
                    "name": "_owner",
                    "type": "address"
                }
            ],
            "stateMutability": "nonpayable",
            "type": "constructor"
        },
        {
            "anonymous": false,
            "inputs": [
                {
                    "indexed": true,
                    "internalType": "address",
                    "name": "whitelistAddress",
                    "type": "address"
                },
                {
                    "indexed": false,
                    "internalType": "uint8",
                    "name": "addressType",
                    "type": "uint8"
                }
            ],
            "name": "AddressTypeUpdate",
            "type": "event"
        },
        {
            "anonymous": false,
            "inputs": [
                {
                    "indexed": true,
                    "internalType": "address",
                    "name": "owner",
                    "type": "address"
                },
                {
                    "indexed": true,
                    "internalType": "address",
                    "name": "spender",
                    "type": "address"
                },
                {
                    "indexed": false,
                    "internalType": "uint256",
                    "name": "value",
                    "type": "uint256"
                }
            ],
            "name": "Approval",
            "type": "event"
        },
        {
            "anonymous": false,
            "inputs": [
                {
                    "indexed": false,
                    "internalType": "address",
                    "name": "newContractAddress",
                    "type": "address"
                },
                {
                    "indexed": false,
                    "internalType": "uint256",
                    "name": "yesVotes",
                    "type": "uint256"
                },
                {
                    "indexed": false,
                    "internalType": "uint256",
                    "name": "oracleVotes",
                    "type": "uint256"
                },
                {
                    "indexed": false,
                    "internalType": "uint256",
                    "name": "totalVotingPower",
                    "type": "uint256"
                }
            ],
            "name": "MigrationSucceeded",
            "type": "event"
        },
        {
            "anonymous": false,
            "inputs": [
                {
                    "indexed": false,
                    "internalType": "string",
                    "name": "name",
                    "type": "string"
                },
                {
                    "indexed": false,
                    "internalType": "string",
                    "name": "symbol",
                    "type": "string"
                }
            ],
            "name": "NameChanged",
            "type": "event"
        },
        {
            "anonymous": false,
            "inputs": [
                {
                    "indexed": true,
                    "internalType": "address",
                    "name": "previousOwner",
                    "type": "address"
                },
                {
                    "indexed": true,
                    "internalType": "address",
                    "name": "newOwner",
                    "type": "address"
                }
            ],
            "name": "OwnershipTransferred",
            "type": "event"
        },
        {
            "anonymous": false,
            "inputs": [
                {
                    "indexed": true,
                    "internalType": "address",
                    "name": "from",
                    "type": "address"
                },
                {
                    "indexed": true,
                    "internalType": "address",
                    "name": "to",
                    "type": "address"
                },
                {
                    "indexed": false,
                    "internalType": "uint256",
                    "name": "value",
                    "type": "uint256"
                }
            ],
            "name": "Transfer",
            "type": "event"
        },
        {
            "inputs": [
                {
                    "internalType": "address",
                    "name": "owner",
                    "type": "address"
                },
                {
                    "internalType": "address",
                    "name": "spender",
                    "type": "address"
                }
            ],
            "name": "allowance",
            "outputs": [
                {
                    "internalType": "uint256",
                    "name": "",
                    "type": "uint256"
                }
            ],
            "stateMutability": "view",
            "type": "function"
        },
        {
            "inputs": [
                {
                    "internalType": "address",
                    "name": "spender",
                    "type": "address"
                },
                {
                    "internalType": "uint256",
                    "name": "value",
                    "type": "uint256"
                }
            ],
            "name": "approve",
            "outputs": [
                {
                    "internalType": "bool",
                    "name": "",
                    "type": "bool"
                }
            ],
            "stateMutability": "nonpayable",
            "type": "function"
        },
        {
            "inputs": [
                {
                    "internalType": "address",
                    "name": "account",
                    "type": "address"
                }
            ],
            "name": "balanceOf",
            "outputs": [
                {
                    "internalType": "uint256",
                    "name": "",
                    "type": "uint256"
                }
            ],
            "stateMutability": "view",
            "type": "function"
        },
        {
            "inputs": [
                {
                    "internalType": "uint256",
                    "name": "amount",
                    "type": "uint256"
                }
            ],
            "name": "burn",
            "outputs": [],
            "stateMutability": "nonpayable",
            "type": "function"
        },
        {
            "inputs": [],
            "name": "claimPeriod",
            "outputs": [
                {
                    "internalType": "uint256",
                    "name": "",
                    "type": "uint256"
                }
            ],
            "stateMutability": "pure",
            "type": "function"
        },
        {
            "inputs": [],
            "name": "customCollateralAddress",
            "outputs": [
                {
                    "internalType": "address",
                    "name": "",
                    "type": "address"
                }
            ],
            "stateMutability": "view",
            "type": "function"
        },
        {
            "inputs": [],
            "name": "customCollateralRate",
            "outputs": [
                {
                    "internalType": "uint256",
                    "name": "",
                    "type": "uint256"
                }
            ],
            "stateMutability": "view",
            "type": "function"
        },
        {
            "inputs": [],
            "name": "decimals",
            "outputs": [
                {
                    "internalType": "uint8",
                    "name": "",
                    "type": "uint8"
                }
            ],
            "stateMutability": "view",
            "type": "function"
        },
        {
            "inputs": [
                {
                    "internalType": "address",
                    "name": "lostAddress",
                    "type": "address"
                }
            ],
            "name": "deleteClaim",
            "outputs": [],
            "stateMutability": "nonpayable",
            "type": "function"
        },
        {
            "inputs": [
                {
                    "internalType": "address",
                    "name": "buyer",
                    "type": "address"
                },
                {
                    "internalType": "address",
                    "name": "currency",
                    "type": "address"
                }
            ],
            "name": "drag",
            "outputs": [],
            "stateMutability": "nonpayable",
            "type": "function"
        },
        {
            "inputs": [],
            "name": "factory",
            "outputs": [
                {
                    "internalType": "contract IOfferFactory",
                    "name": "",
                    "type": "address"
                }
            ],
            "stateMutability": "view",
            "type": "function"
        },
        {
            "inputs": [],
            "name": "getClaimDeleter",
            "outputs": [
                {
                    "internalType": "address",
                    "name": "",
                    "type": "address"
                }
            ],
            "stateMutability": "view",
            "type": "function"
        },
        {
            "inputs": [
                {
                    "internalType": "address",
                    "name": "collateralType",
                    "type": "address"
                }
            ],
            "name": "getCollateralRate",
            "outputs": [
                {
                    "internalType": "uint256",
                    "name": "",
                    "type": "uint256"
                }
            ],
            "stateMutability": "view",
            "type": "function"
        },
        {
            "inputs": [],
            "name": "getOracle",
            "outputs": [
                {
                    "internalType": "address",
                    "name": "",
                    "type": "address"
                }
            ],
            "stateMutability": "view",
            "type": "function"
        },
        {
            "inputs": [
                {
                    "internalType": "address",
                    "name": "account",
                    "type": "address"
                },
                {
                    "internalType": "uint8",
                    "name": "number",
                    "type": "uint8"
                }
            ],
            "name": "hasFlag",
            "outputs": [
                {
                    "internalType": "bool",
                    "name": "",
                    "type": "bool"
                }
            ],
            "stateMutability": "view",
            "type": "function"
        },
        {
            "inputs": [
                {
                    "internalType": "address",
                    "name": "account",
                    "type": "address"
                }
            ],
            "name": "isAllowlisted",
            "outputs": [
                {
                    "internalType": "bool",
                    "name": "",
                    "type": "bool"
                }
            ],
            "stateMutability": "view",
            "type": "function"
        },
        {
            "inputs": [],
            "name": "isBinding",
            "outputs": [
                {
                    "internalType": "bool",
                    "name": "",
                    "type": "bool"
                }
            ],
            "stateMutability": "view",
            "type": "function"
        },
        {
            "inputs": [
                {
                    "internalType": "address",
                    "name": "account",
                    "type": "address"
                }
            ],
            "name": "isPowerlisted",
            "outputs": [
                {
                    "internalType": "bool",
                    "name": "",
                    "type": "bool"
                }
            ],
            "stateMutability": "view",
            "type": "function"
        },
        {
            "inputs": [
                {
                    "internalType": "bytes32",
                    "name": "salt",
                    "type": "bytes32"
                },
                {
                    "internalType": "uint256",
                    "name": "pricePerShare",
                    "type": "uint256"
                },
                {
                    "internalType": "address",
                    "name": "currency",
                    "type": "address"
                }
            ],
            "name": "makeAcquisitionOffer",
            "outputs": [],
            "stateMutability": "payable",
            "type": "function"
        },
        {
            "inputs": [],
            "name": "migrate",
            "outputs": [],
            "stateMutability": "nonpayable",
            "type": "function"
        },
        {
            "inputs": [
                {
                    "internalType": "address",
                    "name": "target",
                    "type": "address"
                },
                {
                    "internalType": "uint256",
                    "name": "externalSupportingVotes",
                    "type": "uint256"
                }
            ],
            "name": "migrateWithExternalApproval",
            "outputs": [],
            "stateMutability": "nonpayable",
            "type": "function"
        },
        {
            "inputs": [],
            "name": "name",
            "outputs": [
                {
                    "internalType": "string",
                    "name": "",
                    "type": "string"
                }
            ],
            "stateMutability": "view",
            "type": "function"
        },
        {
            "inputs": [
                {
                    "internalType": "address",
                    "name": "target",
                    "type": "address"
                }
            ],
            "name": "notifyClaimDeleted",
            "outputs": [],
            "stateMutability": "nonpayable",
            "type": "function"
        },
        {
            "inputs": [
                {
                    "internalType": "address",
                    "name": "target",
                    "type": "address"
                }
            ],
            "name": "notifyClaimMade",
            "outputs": [],
            "stateMutability": "nonpayable",
            "type": "function"
        },
        {
            "inputs": [],
            "name": "notifyOfferEnded",
            "outputs": [],
            "stateMutability": "nonpayable",
            "type": "function"
        },
        {
            "inputs": [],
            "name": "offer",
            "outputs": [
                {
                    "internalType": "contract IOffer",
                    "name": "",
                    "type": "address"
                }
            ],
            "stateMutability": "view",
            "type": "function"
        },
        {
            "inputs": [
                {
                    "internalType": "address",
                    "name": "from",
                    "type": "address"
                },
                {
                    "internalType": "uint256",
                    "name": "amount",
                    "type": "uint256"
                },
                {
                    "internalType": "bytes",
                    "name": "",
                    "type": "bytes"
                }
            ],
            "name": "onTokenTransfer",
            "outputs": [
                {
                    "internalType": "bool",
                    "name": "",
                    "type": "bool"
                }
            ],
            "stateMutability": "nonpayable",
            "type": "function"
        },
        {
            "inputs": [],
            "name": "owner",
            "outputs": [
                {
                    "internalType": "address",
                    "name": "",
                    "type": "address"
                }
            ],
            "stateMutability": "view",
            "type": "function"
        },
        {
            "inputs": [
                {
                    "internalType": "address",
                    "name": "account",
                    "type": "address"
                },
                {
                    "internalType": "bool",
                    "name": "value",
                    "type": "bool"
                }
            ],
            "name": "powerlist",
            "outputs": [],
            "stateMutability": "nonpayable",
            "type": "function"
        },
        {
            "inputs": [],
            "name": "quorum",
            "outputs": [
                {
                    "internalType": "uint256",
                    "name": "",
                    "type": "uint256"
                }
            ],
            "stateMutability": "view",
            "type": "function"
        },
        {
            "inputs": [
                {
                    "internalType": "address",
                    "name": "oldAddress",
                    "type": "address"
                },
                {
                    "internalType": "address",
                    "name": "newAddress",
                    "type": "address"
                }
            ],
            "name": "recover",
            "outputs": [],
            "stateMutability": "nonpayable",
            "type": "function"
        },
        {
            "inputs": [],
            "name": "recovery",
            "outputs": [
                {
                    "internalType": "contract IRecoveryHub",
                    "name": "",
                    "type": "address"
                }
            ],
            "stateMutability": "view",
            "type": "function"
        },
        {
            "inputs": [],
            "name": "restrictTransfers",
            "outputs": [
                {
                    "internalType": "bool",
                    "name": "",
                    "type": "bool"
                }
            ],
            "stateMutability": "view",
            "type": "function"
        },
        {
            "inputs": [
                {
                    "internalType": "bool",
                    "name": "transferRestrictionsApplicable",
                    "type": "bool"
                }
            ],
            "name": "setApplicable",
            "outputs": [],
            "stateMutability": "nonpayable",
            "type": "function"
        },
        {
            "inputs": [
                {
                    "internalType": "address",
                    "name": "newOracle",
                    "type": "address"
                }
            ],
            "name": "setOracle",
            "outputs": [],
            "stateMutability": "nonpayable",
            "type": "function"
        },
        {
            "inputs": [
                {
                    "internalType": "address[]",
                    "name": "addressesToAdd",
                    "type": "address[]"
                },
                {
                    "internalType": "uint8",
                    "name": "value",
                    "type": "uint8"
                }
            ],
            "name": "setType",
            "outputs": [],
            "stateMutability": "nonpayable",
            "type": "function"
        },
        {
            "inputs": [
                {
                    "internalType": "address",
                    "name": "newAddress",
                    "type": "address"
                },
                {
                    "internalType": "uint8",
                    "name": "typeNumber",
                    "type": "uint8"
                }
            ],
            "name": "setType",
            "outputs": [],
            "stateMutability": "nonpayable",
            "type": "function"
        },
        {
            "inputs": [],
            "name": "symbol",
            "outputs": [
                {
                    "internalType": "string",
                    "name": "",
                    "type": "string"
                }
            ],
            "stateMutability": "view",
            "type": "function"
        },
        {
            "inputs": [],
            "name": "terms",
            "outputs": [
                {
                    "internalType": "string",
                    "name": "",
                    "type": "string"
                }
            ],
            "stateMutability": "view",
            "type": "function"
        },
        {
            "inputs": [
                {
                    "internalType": "address",
                    "name": "voter",
                    "type": "address"
                }
            ],
            "name": "toggleVoteFlag",
            "outputs": [],
            "stateMutability": "nonpayable",
            "type": "function"
        },
        {
            "inputs": [],
            "name": "totalSupply",
            "outputs": [
                {
                    "internalType": "uint256",
                    "name": "",
                    "type": "uint256"
                }
            ],
            "stateMutability": "view",
            "type": "function"
        },
        {
            "inputs": [],
            "name": "totalVotingTokens",
            "outputs": [
                {
                    "internalType": "uint256",
                    "name": "",
                    "type": "uint256"
                }
            ],
            "stateMutability": "view",
            "type": "function"
        },
        {
            "inputs": [
                {
                    "internalType": "address",
                    "name": "to",
                    "type": "address"
                },
                {
                    "internalType": "uint256",
                    "name": "value",
                    "type": "uint256"
                }
            ],
            "name": "transfer",
            "outputs": [
                {
                    "internalType": "bool",
                    "name": "",
                    "type": "bool"
                }
            ],
            "stateMutability": "nonpayable",
            "type": "function"
        },
        {
            "inputs": [
                {
                    "internalType": "address",
                    "name": "recipient",
                    "type": "address"
                },
                {
                    "internalType": "uint256",
                    "name": "amount",
                    "type": "uint256"
                },
                {
                    "internalType": "bytes",
                    "name": "data",
                    "type": "bytes"
                }
            ],
            "name": "transferAndCall",
            "outputs": [
                {
                    "internalType": "bool",
                    "name": "",
                    "type": "bool"
                }
            ],
            "stateMutability": "nonpayable",
            "type": "function"
        },
        {
            "inputs": [
                {
                    "internalType": "address",
                    "name": "sender",
                    "type": "address"
                },
                {
                    "internalType": "address",
                    "name": "recipient",
                    "type": "address"
                },
                {
                    "internalType": "uint256",
                    "name": "amount",
                    "type": "uint256"
                }
            ],
            "name": "transferFrom",
            "outputs": [
                {
                    "internalType": "bool",
                    "name": "",
                    "type": "bool"
                }
            ],
            "stateMutability": "nonpayable",
            "type": "function"
        },
        {
            "inputs": [
                {
                    "internalType": "address",
                    "name": "newOwner",
                    "type": "address"
                }
            ],
            "name": "transferOwnership",
            "outputs": [],
            "stateMutability": "nonpayable",
            "type": "function"
        },
        {
            "inputs": [
                {
                    "internalType": "uint256",
                    "name": "amount",
                    "type": "uint256"
                }
            ],
            "name": "unwrap",
            "outputs": [],
            "stateMutability": "nonpayable",
            "type": "function"
        },
        {
            "inputs": [],
            "name": "unwrapConversionFactor",
            "outputs": [
                {
                    "internalType": "uint256",
                    "name": "",
                    "type": "uint256"
                }
            ],
            "stateMutability": "view",
            "type": "function"
        },
        {
            "inputs": [],
            "name": "votePeriod",
            "outputs": [
                {
                    "internalType": "uint256",
                    "name": "",
                    "type": "uint256"
                }
            ],
            "stateMutability": "view",
            "type": "function"
        },
        {
            "inputs": [
                {
                    "internalType": "address",
                    "name": "voter",
                    "type": "address"
                }
            ],
            "name": "votingPower",
            "outputs": [
                {
                    "internalType": "uint256",
                    "name": "",
                    "type": "uint256"
                }
            ],
            "stateMutability": "view",
            "type": "function"
        },
        {
            "inputs": [
                {
                    "internalType": "address",
                    "name": "shareholder",
                    "type": "address"
                },
                {
                    "internalType": "uint256",
                    "name": "amount",
                    "type": "uint256"
                }
            ],
            "name": "wrap",
            "outputs": [],
            "stateMutability": "nonpayable",
            "type": "function"
        },
        {
            "inputs": [],
            "name": "wrapped",
            "outputs": [
                {
                    "internalType": "contract IERC20",
                    "name": "",
                    "type": "address"
                }
            ],
            "stateMutability": "view",
            "type": "function"
        }
    ],
    "bytecode": "61010060405260006005553480156200001757600080fd5b5060405162002dbe38038062002dbe8339810160408190526200003a916200040d565b600380546001600160a81b0319166101006001600160a01b038481168202929092179283905560405185938b938b938b938b938b938a9390910416906000907f8be0079c531659141344cd1fd0a4f28419497f9722a3daafe3b4186f6b6457e0908290a350620000ab60016200016c565b600480546001600160a01b03199081166001600160a01b039788161790915560a09490945260c0929092528316608052600780549092169083161790551660e05287516200010190600a9060208b019062000334565b50604051636427ed9760e01b8152600060048201526001600160a01b03831690636427ed9790602401600060405180830381600087803b1580156200014557600080fd5b505af11580156200015a573d6000803e3d6000fd5b505050505050505050505050620005cd565b6003805460ff60a81b1916600160a81b17905580156200019a576200019460006001620001ba565b620001a7565b620001a7600080620001ba565b620001b6600060168362000279565b5050565b60035461010090046001600160a01b031633146200020a5760405162461bcd60e51b81526020600482015260096024820152683737ba1037bbb732b960b91b604482015260640160405180910390fd5b6200021e82601460ff841660011462000279565b506200023382601560ff841660021462000279565b5060405160ff821681526001600160a01b038316907fe423d7d31023dbacefed7c937785d0012ad8f314381295efebfc0471d2c434549060200160405180910390a25050565b60008115156200028a8585620002b2565b151514620002a7576200029e8484620002f4565b506001620002ab565b5060005b9392505050565b600080620002c28360e06200055c565b6001600160a01b038516600090815260208190526040902054600160ff929092169190911b9081161491505092915050565b6000620003038260e06200055c565b6001600160a01b039390931660009081526020819052604090208054600160ff9095169490941b9093189092555050565b828054620003429062000590565b90600052602060002090601f016020900481019282620003665760008555620003b1565b82601f106200038157805160ff1916838001178555620003b1565b82800160010185558215620003b1579182015b82811115620003b157825182559160200191906001019062000394565b50620003bf929150620003c3565b5090565b5b80821115620003bf5760008155600101620003c4565b634e487b7160e01b600052604160045260246000fd5b80516001600160a01b03811681146200040857600080fd5b919050565b600080600080600080600080610100898b0312156200042b57600080fd5b88516001600160401b03808211156200044357600080fd5b818b0191508b601f8301126200045857600080fd5b8151818111156200046d576200046d620003da565b604051601f8201601f19908116603f01168101908382118183101715620004985762000498620003da565b81604052828152602093508e84848701011115620004b557600080fd5b600091505b82821015620004d95784820184015181830185015290830190620004ba565b82821115620004eb5760008484830101525b9b50620004fd9150508b8201620003f0565b9850505060408901519550606089015194506200051d60808a01620003f0565b93506200052d60a08a01620003f0565b92506200053d60c08a01620003f0565b91506200054d60e08a01620003f0565b90509295985092959890939650565b600060ff821660ff84168060ff038211156200058857634e487b7160e01b600052601160045260246000fd5b019392505050565b600181811c90821680620005a557607f821691505b60208210811415620005c757634e487b7160e01b600052602260045260246000fd5b50919050565b60805160a05160c05160e05161277862000646600039600081816108e501528181610d0101528181610f3801528181611278015281816115880152611a7d01526000818161072e01526113e30152600081816103fe015281816113bd0152611782015260008181610802015261140c01526127786000f3fe6080604052600436106102ff5760003560e01c8063833b1fce11610190578063c45a0155116100dc578063ddceafa911610095578063e5b824ec1161006f578063e5b824ec14610947578063f2fde38b14610967578063f5c0b95f14610987578063fcb79a7e146109a757600080fd5b8063ddceafa9146108d3578063de0e9a3e14610907578063e445d70a1461092757600080fd5b8063c45a0155146107f0578063c7db8b2714610824578063d37a9bb014610844578063d502562514610865578063dcc7d4ad1461087a578063dd62ed3e1461088d57600080fd5b8063a4c0ed3611610149578063bf376c7a11610123578063bf376c7a14610770578063c028df0614610790578063c07473f6146107b0578063c18172c4146107d057600080fd5b8063a4c0ed36146106fc578063a78135871461071c578063a9059cbb1461075057600080fd5b8063833b1fce146106595780638da5cb5b146106775780638fd3ab801461069c57806395d89b41146106b15780639e4b5745146106c6578063a49a7cb1146106dc57600080fd5b806332a7ae951161024f57806350e70d481161020857806370a08231116101e257806370a08231146105e357806377e071ad146106035780637adbf973146106235780637dc2cd981461064357600080fd5b806350e70d481461058d57806360918117146105ad578063648bf774146105c357600080fd5b806332a7ae95146104d857806332bc320b146104f85780633a88f8451461050d5780634000aea01461052d57806342966c681461054d578063429c66f01461056d57600080fd5b80631703a018116102bc57806323b872dd1161029657806323b872dd146104575780632a0a4ed5146104775780632b3430991461048c578063313ce567146104ac57600080fd5b80631703a018146103ec57806318160ddd14610420578063198453541461043557600080fd5b806305a3b8091461030457806306fdde03146103395780630832e4701461035b578063095ea7b31461037f5780630a81b2de1461039f5780630c6f0e5d146103b4575b600080fd5b34801561031057600080fd5b5061032461031f3660046120f4565b6109c7565b60405190151581526020015b60405180910390f35b34801561034557600080fd5b5061034e6109da565b6040516103309190612169565b34801561036757600080fd5b5061037160055481565b604051908152602001610330565b34801561038b57600080fd5b5061032461039a36600461217c565b610b1b565b3480156103ab57600080fd5b50610371610b31565b3480156103c057600080fd5b506008546103d4906001600160a01b031681565b6040516001600160a01b039091168152602001610330565b3480156103f857600080fd5b506103717f000000000000000000000000000000000000000000000000000000000000000081565b34801561042c57600080fd5b50600254610371565b34801561044157600080fd5b5061045561045036600461217c565b610bbe565b005b34801561046357600080fd5b506103246104723660046121a8565b610c0a565b34801561048357600080fd5b506103d4610c68565b34801561049857600080fd5b506103246104a73660046120f4565b610c7c565b3480156104b857600080fd5b506003546104c69060ff1681565b60405160ff9091168152602001610330565b3480156104e457600080fd5b506104556104f33660046120f4565b610c89565b34801561050457600080fd5b50610455610d60565b34801561051957600080fd5b506104556105283660046120f4565b610d86565b34801561053957600080fd5b506103246105483660046121e9565b610d94565b34801561055957600080fd5b50610455610568366004612272565b610e39565b34801561057957600080fd5b5061045561058836600461229c565b610ed0565b34801561059957600080fd5b506004546103d4906001600160a01b031681565b3480156105b957600080fd5b5061037160095481565b3480156105cf57600080fd5b506104556105de366004612320565b610f2d565b3480156105ef57600080fd5b506103716105fe3660046120f4565b610f75565b34801561060f57600080fd5b5061037161061e3660046120f4565b610f99565b34801561062f57600080fd5b5061045561063e3660046120f4565b610fdf565b34801561064f57600080fd5b5062ed4e00610371565b34801561066557600080fd5b506007546001600160a01b03166103d4565b34801561068357600080fd5b506003546103d49061010090046001600160a01b031681565b3480156106a857600080fd5b50610455611048565b3480156106bd57600080fd5b5061034e611053565b3480156106d257600080fd5b5060055415610324565b3480156106e857600080fd5b506104556106f7366004612359565b6110ef565b34801561070857600080fd5b506103246107173660046121e9565b611189565b34801561072857600080fd5b506103717f000000000000000000000000000000000000000000000000000000000000000081565b34801561075c57600080fd5b5061032461076b36600461217c565b6111b8565b34801561077c57600080fd5b5061045561078b36600461217c565b6111c4565b34801561079c57600080fd5b506006546103d4906001600160a01b031681565b3480156107bc57600080fd5b506103716107cb3660046120f4565b611262565b3480156107dc57600080fd5b506104556107eb3660046120f4565b61126d565b3480156107fc57600080fd5b506103d47f000000000000000000000000000000000000000000000000000000000000000081565b34801561083057600080fd5b5061045561083f36600461239c565b6112af565b34801561085057600080fd5b5060035461032490600160a81b900460ff1681565b34801561087157600080fd5b5061034e6112ef565b6104556108883660046123ca565b61137d565b34801561089957600080fd5b506103716108a8366004612320565b6001600160a01b03918216600090815260016020908152604080832093909416825291909152205490565b3480156108df57600080fd5b506103d47f000000000000000000000000000000000000000000000000000000000000000081565b34801561091357600080fd5b50610455610922366004612272565b61152c565b34801561093357600080fd5b50610455610942366004612403565b611545565b34801561095357600080fd5b506104556109623660046120f4565b61157d565b34801561097357600080fd5b506104556109823660046120f4565b6115bf565b34801561099357600080fd5b506103246109a2366004612359565b611655565b3480156109b357600080fd5b506104556109c2366004612320565b611661565b60006109d4826014611696565b92915050565b60606109e66005541590565b15610a8d5760048054604080516306fdde0360e01b815290516001600160a01b03909216926306fdde03928282019260009290829003018186803b158015610a2d57600080fd5b505afa158015610a41573d6000803e3d6000fd5b505050506040513d6000823e601f3d908101601f19168201604052610a699190810190612436565b604051602001610a7991906124e3565b604051602081830303815290604052905090565b60048054604080516306fdde0360e01b815290516001600160a01b03909216926306fdde03928282019260009290829003018186803b158015610acf57600080fd5b505afa158015610ae3573d6000803e3d6000fd5b505050506040513d6000823e601f3d908101601f19168201604052610b0b9190810190612436565b604051602001610a79919061250b565b6000610b283384846116d6565b50600192915050565b6000600460009054906101000a90046001600160a01b03166001600160a01b0316633a98ef396040518163ffffffff1660e01b815260040160206040518083038186803b158015610b8157600080fd5b505afa158015610b95573d6000803e3d6000fd5b505050506040513d601f19601f82011682018060405250810190610bb99190612539565b905090565b6007546001600160a01b03163314610bd557600080fd5b610bdd610b31565b81610be760025490565b610bf19190612568565b1115610bfc57600080fd5b610c068282611738565b5050565b6000610c1784848461184b565b6001600160a01b0384166000908152600160209081526040808320338452909152902054600160ff1b811015610c5b57610c5b8533610c568685612580565b6116d6565b60019150505b9392505050565b6000610bb96007546001600160a01b031690565b60006109d4826016611696565b610c91610c68565b6001600160a01b0316336001600160a01b031614610ce25760405162461bcd60e51b81526020600482015260096024820152686e6f2061636365737360b81b60448201526064015b60405180910390fd5b6040516332a7ae9560e01b81526001600160a01b0382811660048301527f000000000000000000000000000000000000000000000000000000000000000016906332a7ae9590602401600060405180830381600087803b158015610d4557600080fd5b505af1158015610d59573d6000803e3d6000fd5b5050505050565b6006546001600160a01b0316331415610d8457600680546001600160a01b03191690555b565b610d918160016118d3565b50565b600080610da186866111b8565b90508015610e3057604051635260769b60e11b81526001600160a01b0387169063a4c0ed3690610ddb903390899089908990600401612597565b602060405180830381600087803b158015610df557600080fd5b505af1158015610e09573d6000803e3d6000fd5b505050506040513d601f19601f82011682018060405250810190610e2d91906125df565b90505b95945050505050565b610e433382611911565b6000610e4f6005541590565b610e5b57600554610e5e565b60015b6004549091506001600160a01b03166342966c68610e7c83856125fc565b6040518263ffffffff1660e01b8152600401610e9a91815260200190565b600060405180830381600087803b158015610eb457600080fd5b505af1158015610ec8573d6000803e3d6000fd5b505050505050565b60035461010090046001600160a01b03163314610eff5760405162461bcd60e51b8152600401610cd99061261b565b60005b82811015610f2757610f15848484610ed0565b80610f1f8161263e565b915050610f02565b50505050565b336001600160a01b037f00000000000000000000000000000000000000000000000000000000000000001614610f6257600080fd5b610c068282610f7085610f75565b61184b565b6001600160a01b03166000908152602081905260409020546001600160e01b031690565b60006001600160a01b038216301415610fb457506001919050565b6008546001600160a01b0383811691161415610fd257505060095490565b506000919050565b919050565b6007546001600160a01b031633146110265760405162461bcd60e51b815260206004820152600a6024820152696e6f74206f7261636c6560b01b6044820152606401610cd9565b600780546001600160a01b0319166001600160a01b0392909216919091179055565b610d84336000611738565b6060600460009054906101000a90046001600160a01b03166001600160a01b03166395d89b416040518163ffffffff1660e01b815260040160006040518083038186803b1580156110a357600080fd5b505afa1580156110b7573d6000803e3d6000fd5b505050506040513d6000823e601f3d908101601f191682016040526110df9190810190612436565b604051602001610a799190612659565b60035461010090046001600160a01b0316331461111e5760405162461bcd60e51b8152600401610cd99061261b565b61113082601460ff84166001146119a7565b5061114382601560ff84166002146119a7565b5060405160ff821681526001600160a01b038316907fe423d7d31023dbacefed7c937785d0012ad8f314381295efebfc0471d2c434549060200160405180910390a25050565b6004546000906001600160a01b031633146111a357600080fd5b6111ad85856119d7565b506001949350505050565b6000610c618383611a43565b600480546040516323b872dd60e01b81523392810192909252306024830152604482018390526001600160a01b0316906323b872dd90606401602060405180830381600087803b15801561121757600080fd5b505af115801561122b573d6000803e3d6000fd5b505050506040513d601f19601f8201168201806040525081019061124f91906125df565b61125857600080fd5b610c0682826119d7565b60006109d482610f75565b336001600160a01b037f000000000000000000000000000000000000000000000000000000000000000016146112a257600080fd5b610c0681600a60016119a7565b60035461010090046001600160a01b031633146112de5760405162461bcd60e51b8152600401610cd99061261b565b6112ea826016836119a7565b505050565b600a80546112fc9061267e565b80601f01602080910402602001604051908101604052809291908181526020018280546113289061267e565b80156113755780601f1061134a57610100808354040283529160200191611375565b820191906000526020600020905b81548152906001019060200180831161135857829003601f168201915b505050505081565b6005541561138a57600080fd5b604051634dc5e43160e01b815260048101849052336024820152604481018390526001600160a01b0382811660648301527f000000000000000000000000000000000000000000000000000000000000000060848301527f000000000000000000000000000000000000000000000000000000000000000060a48301526000917f000000000000000000000000000000000000000000000000000000000000000090911690634dc5e43190349060c4016020604051808303818588803b15801561145357600080fd5b505af1158015611467573d6000803e3d6000fd5b50505050506040513d601f19601f8201168201806040525081019061148c91906126b9565b90506114a26006546001600160a01b0316151590565b1561150757600654604051637b64620f60e11b81526001600160a01b0383811660048301529091169063f6c8c41e90602401600060405180830381600087803b1580156114ee57600080fd5b505af1158015611502573d6000803e3d6000fd5b505050505b600680546001600160a01b0319166001600160a01b0392909216919091179055505050565b60055461153857600080fd5b610d913382600554611aea565b60035461010090046001600160a01b031633146115745760405162461bcd60e51b8152600401610cd99061261b565b610d9181611b97565b336001600160a01b037f000000000000000000000000000000000000000000000000000000000000000016146115b257600080fd5b610c0681600a60006119a7565b60035461010090046001600160a01b031633146115ee5760405162461bcd60e51b8152600401610cd99061261b565b6003546040516001600160a01b0380841692610100900416907f8be0079c531659141344cd1fd0a4f28419497f9722a3daafe3b4186f6b6457e090600090a3600380546001600160a01b0390921661010002610100600160a81b0319909216919091179055565b6000610c618383611696565b6006546001600160a01b0316331461167857600080fd5b61168c8261168584610f75565b6001611aea565b610c068183611bd9565b6000806116a48360e06126d6565b6001600160a01b038516600090815260208190526040902054600160ff929092169190911b9081161491505092915050565b6001600160a01b0383811660008181526001602090815260408083209487168084529482529182902085905590518481527f8c5be1e5ebec7d5bd14f71427d1e84f3dd0314c0f7b2291e5b200ac8c7c3b92591015b60405180910390a3505050565b600061174383610f75565b61174d9083612568565b90506000611759610b31565b905080821061176757600080fd5b6006546001600160a01b03161561177d57600080fd5b6117a77f0000000000000000000000000000000000000000000000000000000000000000826125fc565b6117b3836127106125fc565b10156117ea5760405162461bcd60e51b815260206004820152600660248201526571756f72756d60d01b6044820152606401610cd9565b6117f48485611bd9565b604080516001600160a01b038616815260208101849052908101849052606081018290527f85e5711a70a7d2bae18e1232af474d82c98600b0e62fe079a28208520b58568e9060800160405180910390a150505050565b611856838383611da0565b6001600160a01b0383166000908152602081905260408120805483929061187e908490612580565b9091555061188e90508282611dab565b816001600160a01b0316836001600160a01b03167fddf252ad1be2c89b69c2b068fc378daa952ba7f163c4a11628f55a4df523b3ef8360405161172b91815260200190565b60006118e08260e06126d6565b6001600160a01b039390931660009081526020819052604090208054600160ff9095169490941b9093189092555050565b61191d82600083611da0565b806002600082825461192f9190612580565b90915550506001600160a01b0382166000908152602081905260408120805483929061195c908490612580565b90915550506040518181526000906001600160a01b038416907fddf252ad1be2c89b69c2b068fc378daa952ba7f163c4a11628f55a4df523b3ef906020015b60405180910390a35050565b60008115156119b68585611696565b1515146119cf576119c784846118d3565b506001610c61565b506000610c61565b6119e360008383611da0565b80600260008282546119f59190612568565b90915550611a0590508282611dab565b6040518181526001600160a01b038316906000907fddf252ad1be2c89b69c2b068fc378daa952ba7f163c4a11628f55a4df523b3ef9060200161199b565b6000611a4f8383611e58565b611a5857600080fd5b611a6333600a611696565b15610b28576040516304d301a360e41b81523360048201527f00000000000000000000000000000000000000000000000000000000000000006001600160a01b031690634d301a3090602401600060405180830381600087803b158015611ac957600080fd5b505af1158015611add573d6000803e3d6000fd5b5050505050600192915050565b611af48383611911565b6004546001600160a01b031663a9059cbb84611b1084866125fc565b6040516001600160e01b031960e085901b1681526001600160a01b0390921660048301526024820152604401602060405180830381600087803b158015611b5657600080fd5b505af1158015611b6a573d6000803e3d6000fd5b505050506040513d601f19601f82011682018060405250810190611b8e91906125df565b6112ea57600080fd5b6003805460ff60a81b1916600160a81b1790558015611bc157611bbc600060016110ef565b611bcc565b611bcc6000806110ef565b610c0660006016836119a7565b60055415611be657600080fd5b600480546040516370a0823160e01b815230928101929092526001600160a01b03169063a9059cbb90839083906370a082319060240160206040518083038186803b158015611c3457600080fd5b505afa158015611c48573d6000803e3d6000fd5b505050506040513d601f19601f82011682018060405250810190611c6c9190612539565b6040516001600160e01b031960e085901b1681526001600160a01b0390921660048301526024820152604401602060405180830381600087803b158015611cb257600080fd5b505af1158015611cc6573d6000803e3d6000fd5b505050506040513d601f19601f82011682018060405250810190611cea91906125df565b611cf357600080fd5b600480546001600160a01b0319166001600160a01b038416179055600254610c0690600480546040516370a0823160e01b815230928101929092526001600160a01b0316906370a082319060240160206040518083038186803b158015611d5957600080fd5b505afa158015611d6d573d6000803e3d6000fd5b505050506040513d601f19601f82011682018060405250810190611d919190612539565b611d9b91906126fb565b611e65565b6112ea838383611eee565b6001600160a01b038216611dbe57600080fd5b6001600160a01b038216600090815260208190526040812054906001600160e01b0319821690611dee8484612568565b90506001600160e01b03198116828114611e355760405162461bcd60e51b81526020600482015260086024820152676f766572666c6f7760c01b6044820152606401610cd9565b506001600160a01b03909416600090815260208190526040902093909355505050565b6000610b2833848461184b565b6001811015611e9f5760405162461bcd60e51b81526020600482015260066024820152653330b1ba37b960d11b6044820152606401610cd9565b60058190557f6c20b91d1723b78732eba64ff11ebd7966a6e4af568a00fa4f6b72c20f58b02a611ecd6109da565b611ed5611053565b604051611ee392919061271d565b60405180910390a150565b611ef783611fcc565b80611f065750611f0682611fcc565b15611fc1576006546001600160a01b031615611f8f5760065460405163e1a1810f60e01b81526001600160a01b0385811660048301528481166024830152604482018490529091169063e1a1810f90606401600060405180830381600087803b158015611f7257600080fd5b505af1158015611f86573d6000803e3d6000fd5b50505050611fc1565b611f9883611fcc565b15611fa857611fa88360016118d3565b611fb182611fcc565b15611fc157611fc18260016118d3565b6112ea838383611fd9565b60006109d4826001611696565b611fe28261206d565b1561201b5760405162461bcd60e51b81526020600482015260096024820152683337b93134b23232b760b91b6044820152606401610cd9565b612024826109c7565b1561202e57505050565b612037836109c7565b8061204657506120468361206d565b156112ea5761205483610c7c565b15612064576112ea8260016110ef565b6112ea8361207a565b60006109d4826015611696565b600354600160a81b900460ff1615801561209a57506120988161206d565b155b6120d45760405162461bcd60e51b815260206004820152600b60248201526a1b9bdd08185b1b1bddd95960aa1b6044820152606401610cd9565b610d918160006110ef565b6001600160a01b0381168114610d9157600080fd5b60006020828403121561210657600080fd5b8135610c61816120df565b60005b8381101561212c578181015183820152602001612114565b83811115610f275750506000910152565b60008151808452612155816020860160208601612111565b601f01601f19169290920160200192915050565b602081526000610c61602083018461213d565b6000806040838503121561218f57600080fd5b823561219a816120df565b946020939093013593505050565b6000806000606084860312156121bd57600080fd5b83356121c8816120df565b925060208401356121d8816120df565b929592945050506040919091013590565b600080600080606085870312156121ff57600080fd5b843561220a816120df565b935060208501359250604085013567ffffffffffffffff8082111561222e57600080fd5b818701915087601f83011261224257600080fd5b81358181111561225157600080fd5b88602082850101111561226357600080fd5b95989497505060200194505050565b60006020828403121561228457600080fd5b5035919050565b803560ff81168114610fda57600080fd5b6000806000604084860312156122b157600080fd5b833567ffffffffffffffff808211156122c957600080fd5b818601915086601f8301126122dd57600080fd5b8135818111156122ec57600080fd5b8760208260051b850101111561230157600080fd5b602092830195509350612317918601905061228b565b90509250925092565b6000806040838503121561233357600080fd5b823561233e816120df565b9150602083013561234e816120df565b809150509250929050565b6000806040838503121561236c57600080fd5b8235612377816120df565b91506123856020840161228b565b90509250929050565b8015158114610d9157600080fd5b600080604083850312156123af57600080fd5b82356123ba816120df565b9150602083013561234e8161238e565b6000806000606084860312156123df57600080fd5b833592506020840135915060408401356123f8816120df565b809150509250925092565b60006020828403121561241557600080fd5b8135610c618161238e565b634e487b7160e01b600052604160045260246000fd5b60006020828403121561244857600080fd5b815167ffffffffffffffff8082111561246057600080fd5b818401915084601f83011261247457600080fd5b81518181111561248657612486612420565b604051601f8201601f19908116603f011681019083821181831017156124ae576124ae612420565b816040528281528760208487010111156124c757600080fd5b6124d8836020830160208801612111565b979650505050505050565b600082516124f5818460208701612111565b632053484160e01b920191825250600401919050565b6000825161251d818460208701612111565b692028577261707065642960b01b920191825250600a01919050565b60006020828403121561254b57600080fd5b5051919050565b634e487b7160e01b600052601160045260246000fd5b6000821982111561257b5761257b612552565b500190565b60008282101561259257612592612552565b500390565b6001600160a01b0385168152602081018490526060604082018190528101829052818360808301376000818301608090810191909152601f909201601f191601019392505050565b6000602082840312156125f157600080fd5b8151610c618161238e565b600081600019048311821515161561261657612616612552565b500290565b6020808252600990820152683737ba1037bbb732b960b91b604082015260600190565b600060001982141561265257612652612552565b5060010190565b6000825161266b818460208701612111565b605360f81b920191825250600101919050565b600181811c9082168061269257607f821691505b602082108114156126b357634e487b7160e01b600052602260045260246000fd5b50919050565b6000602082840312156126cb57600080fd5b8151610c61816120df565b600060ff821660ff84168060ff038211156126f3576126f3612552565b019392505050565b60008261271857634e487b7160e01b600052601260045260246000fd5b500490565b604081526000612730604083018561213d565b8281036020840152610e30818561213d56fea2646970667358221220120b939cb0b82b0ecc80a4d479e323966b34ba28c19a2f68579a08f3c97d38d164736f6c63430008090033",
    "sourcePath": "c:/Users/luziu/Documents/GitHub/contracts/src/allowlist/AllowlistDraggableShares.sol",
    "compiler": {
        "name": "solc",
        "version": "0.8.9+commit.e5eed63a"
    },
    "functionHashes": {
        "allowance(address,address)": "dd62ed3e",
        "approve(address,uint256)": "095ea7b3",
        "balanceOf(address)": "70a08231",
        "burn(uint256)": "42966c68",
        "claimPeriod()": "7dc2cd98",
        "customCollateralAddress()": "0c6f0e5d",
        "customCollateralRate()": "60918117",
        "decimals()": "313ce567",
        "deleteClaim(address)": "32a7ae95",
        "drag(address,address)": "fcb79a7e",
        "factory()": "c45a0155",
        "getClaimDeleter()": "2a0a4ed5",
        "getCollateralRate(address)": "77e071ad",
        "getOracle()": "833b1fce",
        "hasFlag(address,uint8)": "f5c0b95f",
        "isAllowlisted(address)": "05a3b809",
        "isBinding()": "9e4b5745",
        "isPowerlisted(address)": "2b343099",
        "makeAcquisitionOffer(bytes32,uint256,address)": "dcc7d4ad",
        "migrate()": "8fd3ab80",
        "migrateWithExternalApproval(address,uint256)": "19845354",
        "name()": "06fdde03",
        "notifyClaimDeleted(address)": "e5b824ec",
        "notifyClaimMade(address)": "c18172c4",
        "notifyOfferEnded()": "32bc320b",
        "offer()": "c028df06",
        "onTokenTransfer(address,uint256,bytes)": "a4c0ed36",
        "owner()": "8da5cb5b",
        "powerlist(address,bool)": "c7db8b27",
        "quorum()": "1703a018",
        "recover(address,address)": "648bf774",
        "recovery()": "ddceafa9",
        "restrictTransfers()": "d37a9bb0",
        "setApplicable(bool)": "e445d70a",
        "setOracle(address)": "7adbf973",
        "setType(address,uint8)": "a49a7cb1",
        "setType(address[],uint8)": "429c66f0",
        "symbol()": "95d89b41",
        "terms()": "d5025625",
        "toggleVoteFlag(address)": "3a88f845",
        "totalSupply()": "18160ddd",
        "totalVotingTokens()": "0a81b2de",
        "transfer(address,uint256)": "a9059cbb",
        "transferAndCall(address,uint256,bytes)": "4000aea0",
        "transferFrom(address,address,uint256)": "23b872dd",
        "transferOwnership(address)": "f2fde38b",
        "unwrap(uint256)": "de0e9a3e",
        "unwrapConversionFactor()": "0832e470",
        "votePeriod()": "a7813587",
        "votingPower(address)": "c07473f6",
        "wrap(address,uint256)": "bf376c7a",
        "wrapped()": "50e70d48"
    },
    "gasEstimates": {
        "creation": {
            "codeDepositCost": "2020800",
            "executionCost": "infinite",
            "totalCost": "infinite"
        },
        "external": {
            "allowance(address,address)": "infinite",
            "approve(address,uint256)": "24623",
            "balanceOf(address)": "2631",
            "burn(uint256)": "infinite",
            "claimPeriod()": "325",
            "customCollateralAddress()": "2494",
            "customCollateralRate()": "2385",
            "decimals()": "2447",
            "deleteClaim(address)": "infinite",
            "drag(address,address)": "infinite",
            "factory()": "infinite",
            "getClaimDeleter()": "2459",
            "getCollateralRate(address)": "4750",
            "getOracle()": "2377",
            "hasFlag(address,uint8)": "2949",
            "isAllowlisted(address)": "2794",
            "isBinding()": "2424",
            "isPowerlisted(address)": "2859",
            "makeAcquisitionOffer(bytes32,uint256,address)": "infinite",
            "migrate()": "infinite",
            "migrateWithExternalApproval(address,uint256)": "infinite",
            "name()": "infinite",
            "notifyClaimDeleted(address)": "infinite",
            "notifyClaimMade(address)": "infinite",
            "notifyOfferEnded()": "26585",
            "offer()": "2426",
            "onTokenTransfer(address,uint256,bytes)": "infinite",
            "owner()": "2416",
            "powerlist(address,bool)": "infinite",
            "quorum()": "infinite",
            "recover(address,address)": "infinite",
            "recovery()": "infinite",
            "restrictTransfers()": "2405",
            "setApplicable(bool)": "infinite",
            "setOracle(address)": "26816",
            "setType(address,uint8)": "infinite",
            "setType(address[],uint8)": "infinite",
            "symbol()": "infinite",
            "terms()": "infinite",
            "toggleVoteFlag(address)": "infinite",
            "totalSupply()": "2383",
            "totalVotingTokens()": "infinite",
            "transfer(address,uint256)": "infinite",
            "transferAndCall(address,uint256,bytes)": "infinite",
            "transferFrom(address,address,uint256)": "infinite",
            "transferOwnership(address)": "30480",
            "unwrap(uint256)": "infinite",
            "unwrapConversionFactor()": "2386",
            "votePeriod()": "infinite",
            "votingPower(address)": "2715",
            "wrap(address,uint256)": "infinite",
            "wrapped()": "2405"
        },
        "internal": {
            "_beforeTokenTransfer(address,address,uint256)": "infinite"
        }
    }
}