{
    "contractName": "RecoveryHub",
    "abi": [
        {
            "anonymous": false,
            "inputs": [
                {
                    "indexed": true,
                    "internalType": "address",
                    "name": "token",
                    "type": "address"
                },
                {
                    "indexed": true,
                    "internalType": "address",
                    "name": "lostAddress",
                    "type": "address"
                },
                {
                    "indexed": false,
                    "internalType": "uint256",
                    "name": "collateral",
                    "type": "uint256"
                }
            ],
            "name": "ClaimCleared",
            "type": "event"
        },
        {
            "anonymous": false,
            "inputs": [
                {
                    "indexed": true,
                    "internalType": "address",
                    "name": "token",
                    "type": "address"
                },
                {
                    "indexed": true,
                    "internalType": "address",
                    "name": "lostAddress",
                    "type": "address"
                },
                {
                    "indexed": true,
                    "internalType": "address",
                    "name": "claimant",
                    "type": "address"
                },
                {
                    "indexed": false,
                    "internalType": "uint256",
                    "name": "collateral",
                    "type": "uint256"
                }
            ],
            "name": "ClaimDeleted",
            "type": "event"
        },
        {
            "anonymous": false,
            "inputs": [
                {
                    "indexed": true,
                    "internalType": "address",
                    "name": "token",
                    "type": "address"
                },
                {
                    "indexed": true,
                    "internalType": "address",
                    "name": "lostAddress",
                    "type": "address"
                },
                {
                    "indexed": true,
                    "internalType": "address",
                    "name": "claimant",
                    "type": "address"
                },
                {
                    "indexed": false,
                    "internalType": "uint256",
                    "name": "balance",
                    "type": "uint256"
                }
            ],
            "name": "ClaimMade",
            "type": "event"
        },
        {
            "anonymous": false,
            "inputs": [
                {
                    "indexed": true,
                    "internalType": "address",
                    "name": "token",
                    "type": "address"
                },
                {
                    "indexed": true,
                    "internalType": "address",
                    "name": "lostAddress",
                    "type": "address"
                },
                {
                    "indexed": true,
                    "internalType": "address",
                    "name": "claimant",
                    "type": "address"
                },
                {
                    "indexed": false,
                    "internalType": "uint256",
                    "name": "collateral",
                    "type": "uint256"
                }
            ],
            "name": "ClaimResolved",
            "type": "event"
        },
        {
            "inputs": [
                {
                    "internalType": "address",
                    "name": "",
                    "type": "address"
                },
                {
                    "internalType": "address",
                    "name": "",
                    "type": "address"
                }
            ],
            "name": "claims",
            "outputs": [
                {
                    "internalType": "address",
                    "name": "claimant",
                    "type": "address"
                },
                {
                    "internalType": "uint256",
                    "name": "collateral",
                    "type": "uint256"
                },
                {
                    "internalType": "uint256",
                    "name": "timestamp",
                    "type": "uint256"
                },
                {
                    "internalType": "address",
                    "name": "currencyUsed",
                    "type": "address"
                }
            ],
            "stateMutability": "view",
            "type": "function"
        },
        {
            "inputs": [
                {
                    "internalType": "address",
                    "name": "holder",
                    "type": "address"
                }
            ],
            "name": "clearClaimFromToken",
            "outputs": [],
            "stateMutability": "nonpayable",
            "type": "function"
        },
        {
            "inputs": [
                {
                    "internalType": "address",
                    "name": "token",
                    "type": "address"
                }
            ],
            "name": "clearClaimFromUser",
            "outputs": [],
            "stateMutability": "nonpayable",
            "type": "function"
        },
        {
            "inputs": [
                {
                    "internalType": "address",
                    "name": "token",
                    "type": "address"
                },
                {
                    "internalType": "address",
                    "name": "collateralType",
                    "type": "address"
                },
                {
                    "internalType": "address",
                    "name": "lostAddress",
                    "type": "address"
                }
            ],
            "name": "declareLost",
            "outputs": [],
            "stateMutability": "nonpayable",
            "type": "function"
        },
        {
            "inputs": [
                {
                    "internalType": "address",
                    "name": "lostAddress",
                    "type": "address"
                }
            ],
            "name": "deleteClaim",
            "outputs": [],
            "stateMutability": "nonpayable",
            "type": "function"
        },
        {
            "inputs": [
                {
                    "internalType": "address",
                    "name": "token",
                    "type": "address"
                },
                {
                    "internalType": "address",
                    "name": "lostAddress",
                    "type": "address"
                }
            ],
            "name": "getClaimant",
            "outputs": [
                {
                    "internalType": "address",
                    "name": "",
                    "type": "address"
                }
            ],
            "stateMutability": "view",
            "type": "function"
        },
        {
            "inputs": [
                {
                    "internalType": "address",
                    "name": "token",
                    "type": "address"
                },
                {
                    "internalType": "address",
                    "name": "lostAddress",
                    "type": "address"
                }
            ],
            "name": "getCollateral",
            "outputs": [
                {
                    "internalType": "uint256",
                    "name": "",
                    "type": "uint256"
                }
            ],
            "stateMutability": "view",
            "type": "function"
        },
        {
            "inputs": [
                {
                    "internalType": "address",
                    "name": "token",
                    "type": "address"
                },
                {
                    "internalType": "address",
                    "name": "lostAddress",
                    "type": "address"
                }
            ],
            "name": "getCollateralType",
            "outputs": [
                {
                    "internalType": "address",
                    "name": "",
                    "type": "address"
                }
            ],
            "stateMutability": "view",
            "type": "function"
        },
        {
            "inputs": [
                {
                    "internalType": "address",
                    "name": "token",
                    "type": "address"
                },
                {
                    "internalType": "address",
                    "name": "lostAddress",
                    "type": "address"
                }
            ],
            "name": "getTimeStamp",
            "outputs": [
                {
                    "internalType": "uint256",
                    "name": "",
                    "type": "uint256"
                }
            ],
            "stateMutability": "view",
            "type": "function"
        },
        {
            "inputs": [
                {
                    "internalType": "address",
                    "name": "target",
                    "type": "address"
                }
            ],
            "name": "isRecoveryEnabled",
            "outputs": [
                {
                    "internalType": "bool",
                    "name": "",
                    "type": "bool"
                }
            ],
            "stateMutability": "view",
            "type": "function"
        },
        {
            "inputs": [
                {
                    "internalType": "address",
                    "name": "token",
                    "type": "address"
                },
                {
                    "internalType": "address",
                    "name": "lostAddress",
                    "type": "address"
                }
            ],
            "name": "recover",
            "outputs": [],
            "stateMutability": "nonpayable",
            "type": "function"
        },
        {
            "inputs": [
                {
                    "internalType": "address",
                    "name": "",
                    "type": "address"
                }
            ],
            "name": "recoveryDisabled",
            "outputs": [
                {
                    "internalType": "bool",
                    "name": "",
                    "type": "bool"
                }
            ],
            "stateMutability": "view",
            "type": "function"
        },
        {
            "inputs": [
                {
                    "internalType": "bool",
                    "name": "enabled",
                    "type": "bool"
                }
            ],
            "name": "setRecoverable",
            "outputs": [],
            "stateMutability": "nonpayable",
            "type": "function"
        }
    ],
    "bytecode": "608060405234801561001057600080fd5b50611099806100206000396000f3fe608060405234801561001057600080fd5b50600436106100cf5760003560e01c80636427ed971161008c578063b40e80d111610066578063b40e80d11461028a578063c1e58573146102ad578063cc0720cc146102c0578063e334860a1461030e57600080fd5b80636427ed971461020d578063648bf7741461023a578063a3ec18831461024d57600080fd5b806306036025146100d457806323cd9a86146100e957806332a7ae95146101365780633f733c6b146101495780634d301a30146101c057806352226ef0146101d3575b600080fd5b6100e76100e2366004610f1d565b610347565b005b6101236100f7366004610f3f565b6001600160a01b0391821660009081526020818152604080832093909416825291909152206002015490565b6040519081526020015b60405180910390f35b6100e7610144366004610f1d565b610354565b610191610157366004610f3f565b600060208181529281526040808220909352908152208054600182015460028301546003909301546001600160a01b039283169391921684565b604080516001600160a01b0395861681526020810194909452830191909152909116606082015260800161012d565b6100e76101ce366004610f1d565b610526565b6101236101e1366004610f3f565b6001600160a01b0391821660009081526020818152604080832093909416825291909152206001015490565b6100e761021b366004610f80565b336000908152600160205260409020805460ff19169115919091179055565b6100e7610248366004610f3f565b610530565b61027a61025b366004610f1d565b6001600160a01b031660009081526001602052604090205460ff161590565b604051901515815260200161012d565b61027a610298366004610f1d565b60016020526000908152604090205460ff1681565b6100e76102bb366004610f9d565b6108b9565b6102f66102ce366004610f3f565b6001600160a01b03918216600090815260208181526040808320938516835292905220541690565b6040516001600160a01b03909116815260200161012d565b6102f661031c366004610f3f565b6001600160a01b03918216600090815260208181526040808320938516835292905220600301541690565b6103518133610cd6565b50565b336000818152602081815260408083206001600160a01b03868116855290835292819020815160808101835281548516815260018201549381018490526002820154928101929092526003015490921660608301819052906103e95760405162461bcd60e51b81526020600482015260096024820152681b9bdd08199bdd5b9960ba1b60448201526064015b60405180910390fd5b6001600160a01b038381166000908152602081815260408083208885168452825280832080546001600160a01b031990811682556001820185905560028201949094556003018054909316909255845190850151915163a9059cbb60e01b8152908316600482015260248101919091529082169063a9059cbb90604401602060405180830381600087803b15801561048057600080fd5b505af1158015610494573d6000803e3d6000fd5b505050506040513d601f19601f820116820180604052508101906104b89190610fe0565b6104c157600080fd5b81600001516001600160a01b0316846001600160a01b0316846001600160a01b03167fe353e089146c0574fa0001d9aa56c67a4eee067d8730543ae0ee937a30d679f3856020015160405161051891815260200190565b60405180910390a450505050565b6103513382610cd6565b6001600160a01b038083166000908152602081815260408083208585168452825291829020825160808101845281548516815260018201549281018390526002820154938101939093526003015490921660608201819052909190816105c45760405162461bcd60e51b81526020600482015260096024820152681b9bdd08199bdd5b9960ba1b60448201526064016103e0565b82516001600160a01b0316331461060c5760405162461bcd60e51b815260206004820152600c60248201526b1b9bdd0818db185a5b585b9d60a21b60448201526064016103e0565b42856001600160a01b0316637dc2cd986040518163ffffffff1660e01b8152600401602060405180830381600087803b15801561064857600080fd5b505af115801561065c573d6000803e3d6000fd5b505050506040513d601f19601f820116820180604052508101906106809190610ffd565b846040015161068f919061102c565b11156106c95760405162461bcd60e51b8152602060048201526009602482015268746f6f206561726c7960b81b60448201526064016103e0565b82516001600160a01b03868116600090815260208181526040808320898516845290915280822080546001600160a01b0319908116825560018201849055600282019390935560030180549092169091555163a9059cbb60e01b81528183166004820152602481018590529083169063a9059cbb90604401602060405180830381600087803b15801561075b57600080fd5b505af115801561076f573d6000803e3d6000fd5b505050506040513d601f19601f820116820180604052508101906107939190610fe0565b61079c57600080fd5b604051631922fddd60e21b81526001600160a01b038681166004830152828116602483015287169063648bf77490604401600060405180830381600087803b1580156107e757600080fd5b505af11580156107fb573d6000803e3d6000fd5b505060405163396e093b60e21b81526001600160a01b0388811660048301528916925063e5b824ec9150602401600060405180830381600087803b15801561084257600080fd5b505af1158015610856573d6000803e3d6000fd5b50505050806001600160a01b0316856001600160a01b0316876001600160a01b03167f03746d4086c981172ed0a960601bec02cfe0a2ecbe1b1b4e328752bbf5d0c255866040516108a991815260200190565b60405180910390a4505050505050565b6001600160a01b03811660009081526001602052604090205460ff161561090d5760405162461bcd60e51b8152602060048201526008602482015267191a5cd8589b195960c21b60448201526064016103e0565b6040516377e071ad60e01b81526001600160a01b038381166004830152600091908516906377e071ad90602401602060405180830381600087803b15801561095457600080fd5b505af1158015610968573d6000803e3d6000fd5b505050506040513d601f19601f8201168201806040525081019061098c9190610ffd565b9050600081116109cf5760405162461bcd60e51b815260206004820152600e60248201526d1898590818dbdb1b185d195c985b60921b60448201526064016103e0565b6040516370a0823160e01b81526001600160a01b03838116600483015233916000918716906370a082319060240160206040518083038186803b158015610a1557600080fd5b505afa158015610a29573d6000803e3d6000fd5b505050506040513d601f19601f82011682018060405250810190610a4d9190610ffd565b90506000610a5b8483611044565b90508582610a935760405162461bcd60e51b8152602060048201526005602482015264656d70747960d81b60448201526064016103e0565b6001600160a01b03808916600090815260208181526040808320938a168352929052206001015415610af95760405162461bcd60e51b815260206004820152600f60248201526e185b1c9958591e4818db185a5b5959608a1b60448201526064016103e0565b6040516323b872dd60e01b81526001600160a01b038581166004830152306024830152604482018490528216906323b872dd90606401602060405180830381600087803b158015610b4957600080fd5b505af1158015610b5d573d6000803e3d6000fd5b505050506040513d601f19601f82011682018060405250810190610b819190610fe0565b610b8a57600080fd5b6040518060800160405280856001600160a01b03168152602001838152602001428152602001886001600160a01b03168152506000808a6001600160a01b03166001600160a01b031681526020019081526020016000206000886001600160a01b03166001600160a01b0316815260200190815260200160002060008201518160000160006101000a8154816001600160a01b0302191690836001600160a01b03160217905550602082015181600101556040820151816002015560608201518160030160006101000a8154816001600160a01b0302191690836001600160a01b03160217905550905050836001600160a01b0316866001600160a01b0316896001600160a01b03167f6bfd50306449d9d6c51593433950fc186e4ab99a885ed357a34549bfd7a2668f86604051610cc491815260200190565b60405180910390a45050505050505050565b6001600160a01b038083166000908152602081815260408083208585168452825291829020825160808101845281548516815260018201549281018390526002820154938101939093526003015490921660608201529015610efc576060810151602082015160405163a9059cbb60e01b815230600482015260248101919091526001600160a01b0382169063a9059cbb90604401602060405180830381600087803b158015610d8557600080fd5b505af1158015610d99573d6000803e3d6000fd5b505050506040513d601f19601f82011682018060405250810190610dbd9190610fe0565b610e095760405162461bcd60e51b815260206004820152601b60248201527f636f756c64206e6f742072657475726e20636f6c6c61746572616c000000000060448201526064016103e0565b826001600160a01b0316846001600160a01b03167febe2b7544a1a711c29034fc19c1b200f13cf4ec175198e0f857735ed4f5f9bd18460200151604051610e5291815260200190565b60405180910390a36001600160a01b038481166000818152602081815260408083209488168084529490915280822080546001600160a01b0319908116825560018201849055600282019390935560030180549092169091555163396e093b60e21b815260048101929092529063e5b824ec90602401600060405180830381600087803b158015610ee257600080fd5b505af1158015610ef6573d6000803e3d6000fd5b50505050505b505050565b80356001600160a01b0381168114610f1857600080fd5b919050565b600060208284031215610f2f57600080fd5b610f3882610f01565b9392505050565b60008060408385031215610f5257600080fd5b610f5b83610f01565b9150610f6960208401610f01565b90509250929050565b801515811461035157600080fd5b600060208284031215610f9257600080fd5b8135610f3881610f72565b600080600060608486031215610fb257600080fd5b610fbb84610f01565b9250610fc960208501610f01565b9150610fd760408501610f01565b90509250925092565b600060208284031215610ff257600080fd5b8151610f3881610f72565b60006020828403121561100f57600080fd5b5051919050565b634e487b7160e01b600052601160045260246000fd5b6000821982111561103f5761103f611016565b500190565b600081600019048311821515161561105e5761105e611016565b50029056fea264697066735822122048507753b749fe46d9530fd6e75fd665b41b0042e815b166644739809c92b6f564736f6c63430008090033",
    "sourcePath": "c:/Users/luziu/Documents/GitHub/contracts/src/recovery/RecoveryHub.sol",
    "compiler": {
        "name": "solc",
        "version": "0.8.9+commit.e5eed63a"
    },
    "functionHashes": {
        "claims(address,address)": "3f733c6b",
        "clearClaimFromToken(address)": "4d301a30",
        "clearClaimFromUser(address)": "06036025",
        "declareLost(address,address,address)": "c1e58573",
        "deleteClaim(address)": "32a7ae95",
        "getClaimant(address,address)": "cc0720cc",
        "getCollateral(address,address)": "52226ef0",
        "getCollateralType(address,address)": "e334860a",
        "getTimeStamp(address,address)": "23cd9a86",
        "isRecoveryEnabled(address)": "a3ec1883",
        "recover(address,address)": "648bf774",
        "recoveryDisabled(address)": "b40e80d1",
        "setRecoverable(bool)": "6427ed97"
    },
    "gasEstimates": {
        "creation": {
            "codeDepositCost": "849800",
            "executionCost": "883",
            "totalCost": "850683"
        },
        "external": {
            "claims(address,address)": "infinite",
            "clearClaimFromToken(address)": "infinite",
            "clearClaimFromUser(address)": "infinite",
            "declareLost(address,address,address)": "infinite",
            "deleteClaim(address)": "infinite",
            "getClaimant(address,address)": "infinite",
            "getCollateral(address,address)": "infinite",
            "getCollateralType(address,address)": "infinite",
            "getTimeStamp(address,address)": "infinite",
            "isRecoveryEnabled(address)": "2619",
            "recover(address,address)": "infinite",
            "recoveryDisabled(address)": "2553",
            "setRecoverable(bool)": "24599"
        },
        "internal": {
            "clearClaim(address,address)": "infinite"
        }
    }
}