{
  "_format": "hh-sol-artifact-1",
  "contractName": "ERC20Cancelled",
  "sourceName": "contracts/draggable/ERC20Cancelled.sol",
  "abi": [
    {
      "inputs": [
        {
          "internalType": "address",
          "name": "shaToken",
          "type": "address"
        }
      ],
      "stateMutability": "nonpayable",
      "type": "constructor"
    },
    {
      "inputs": [
        {
          "internalType": "address",
          "name": "receiver",
          "type": "address"
        },
        {
          "internalType": "uint256",
          "name": "balance",
          "type": "uint256"
        },
        {
          "internalType": "uint256",
          "name": "amount",
          "type": "uint256"
        }
      ],
      "name": "ERC20BalanceOverflow",
      "type": "error"
    },
    {
      "inputs": [
        {
          "internalType": "address",
          "name": "spender",
          "type": "address"
        },
        {
          "internalType": "uint256",
          "name": "allowance",
          "type": "uint256"
        },
        {
          "internalType": "uint256",
          "name": "needed",
          "type": "uint256"
        }
      ],
      "name": "ERC20InsufficientAllowance",
      "type": "error"
    },
    {
      "inputs": [
        {
          "internalType": "address",
          "name": "sender",
          "type": "address"
        },
        {
          "internalType": "uint256",
          "name": "balance",
          "type": "uint256"
        },
        {
          "internalType": "uint256",
          "name": "needed",
          "type": "uint256"
        }
      ],
      "name": "ERC20InsufficientBalance",
      "type": "error"
    },
    {
      "inputs": [
        {
          "internalType": "address",
          "name": "approver",
          "type": "address"
        }
      ],
      "name": "ERC20InvalidApprover",
      "type": "error"
    },
    {
      "inputs": [
        {
          "internalType": "address",
          "name": "receiver",
          "type": "address"
        }
      ],
      "name": "ERC20InvalidReceiver",
      "type": "error"
    },
    {
      "inputs": [
        {
          "internalType": "address",
          "name": "sender",
          "type": "address"
        }
      ],
      "name": "ERC20InvalidSender",
      "type": "error"
    },
    {
      "inputs": [
        {
          "internalType": "address",
          "name": "spender",
          "type": "address"
        }
      ],
      "name": "ERC20InvalidSpender",
      "type": "error"
    },
    {
      "anonymous": false,
      "inputs": [
        {
          "indexed": true,
          "internalType": "address",
          "name": "owner",
          "type": "address"
        },
        {
          "indexed": true,
          "internalType": "address",
          "name": "spender",
          "type": "address"
        },
        {
          "indexed": false,
          "internalType": "uint256",
          "name": "value",
          "type": "uint256"
        }
      ],
      "name": "Approval",
      "type": "event"
    },
    {
      "anonymous": false,
      "inputs": [
        {
          "indexed": false,
          "internalType": "string",
          "name": "name",
          "type": "string"
        },
        {
          "indexed": false,
          "internalType": "string",
          "name": "symbol",
          "type": "string"
        }
      ],
      "name": "NameChanged",
      "type": "event"
    },
    {
      "anonymous": false,
      "inputs": [
        {
          "indexed": true,
          "internalType": "address",
          "name": "from",
          "type": "address"
        },
        {
          "indexed": true,
          "internalType": "address",
          "name": "to",
          "type": "address"
        },
        {
          "indexed": false,
          "internalType": "uint256",
          "name": "value",
          "type": "uint256"
        }
      ],
      "name": "Transfer",
      "type": "event"
    },
    {
      "inputs": [],
      "name": "BASE",
      "outputs": [
        {
          "internalType": "contract IShares",
          "name": "",
          "type": "address"
        }
      ],
      "stateMutability": "view",
      "type": "function"
    },
    {
      "inputs": [],
      "name": "SHA",
      "outputs": [
        {
          "internalType": "contract ERC20Draggable",
          "name": "",
          "type": "address"
        }
      ],
      "stateMutability": "view",
      "type": "function"
    },
    {
      "inputs": [
        {
          "internalType": "address",
          "name": "owner",
          "type": "address"
        },
        {
          "internalType": "address",
          "name": "spender",
          "type": "address"
        }
      ],
      "name": "allowance",
      "outputs": [
        {
          "internalType": "uint256",
          "name": "",
          "type": "uint256"
        }
      ],
      "stateMutability": "view",
      "type": "function"
    },
    {
      "inputs": [
        {
          "internalType": "address",
          "name": "spender",
          "type": "address"
        },
        {
          "internalType": "uint256",
          "name": "value",
          "type": "uint256"
        }
      ],
      "name": "approve",
      "outputs": [
        {
          "internalType": "bool",
          "name": "",
          "type": "bool"
        }
      ],
      "stateMutability": "nonpayable",
      "type": "function"
    },
    {
      "inputs": [
        {
          "internalType": "address",
          "name": "account",
          "type": "address"
        }
      ],
      "name": "balanceOf",
      "outputs": [
        {
          "internalType": "uint256",
          "name": "",
          "type": "uint256"
        }
      ],
      "stateMutability": "view",
      "type": "function"
    },
    {
      "inputs": [],
      "name": "burnBaseToken",
      "outputs": [],
      "stateMutability": "nonpayable",
      "type": "function"
    },
    {
      "inputs": [],
      "name": "burnThemAll",
      "outputs": [],
      "stateMutability": "nonpayable",
      "type": "function"
    },
    {
      "inputs": [],
      "name": "decimals",
      "outputs": [
        {
          "internalType": "uint8",
          "name": "",
          "type": "uint8"
        }
      ],
      "stateMutability": "view",
      "type": "function"
    },
    {
      "inputs": [
        {
          "internalType": "address",
          "name": "account",
          "type": "address"
        },
        {
          "internalType": "uint8",
          "name": "number",
          "type": "uint8"
        }
      ],
      "name": "hasFlag",
      "outputs": [
        {
          "internalType": "bool",
          "name": "",
          "type": "bool"
        }
      ],
      "stateMutability": "view",
      "type": "function"
    },
    {
      "inputs": [],
      "name": "migrateWithQuorum",
      "outputs": [],
      "stateMutability": "nonpayable",
      "type": "function"
    },
    {
      "inputs": [],
      "name": "mintToSHA",
      "outputs": [],
      "stateMutability": "nonpayable",
      "type": "function"
    },
    {
      "inputs": [],
      "name": "name",
      "outputs": [
        {
          "internalType": "string",
          "name": "",
          "type": "string"
        }
      ],
      "stateMutability": "view",
      "type": "function"
    },
    {
      "inputs": [],
      "name": "symbol",
      "outputs": [
        {
          "internalType": "string",
          "name": "",
          "type": "string"
        }
      ],
      "stateMutability": "view",
      "type": "function"
    },
    {
      "inputs": [],
      "name": "totalSupply",
      "outputs": [
        {
          "internalType": "uint256",
          "name": "",
          "type": "uint256"
        }
      ],
      "stateMutability": "view",
      "type": "function"
    },
    {
      "inputs": [
        {
          "internalType": "address",
          "name": "recipient",
          "type": "address"
        },
        {
          "internalType": "uint256",
          "name": "amount",
          "type": "uint256"
        }
      ],
      "name": "transfer",
      "outputs": [
        {
          "internalType": "bool",
          "name": "",
          "type": "bool"
        }
      ],
      "stateMutability": "nonpayable",
      "type": "function"
    },
    {
      "inputs": [
        {
          "internalType": "address",
          "name": "recipient",
          "type": "address"
        },
        {
          "internalType": "uint256",
          "name": "amount",
          "type": "uint256"
        },
        {
          "internalType": "bytes",
          "name": "data",
          "type": "bytes"
        }
      ],
      "name": "transferAndCall",
      "outputs": [
        {
          "internalType": "bool",
          "name": "",
          "type": "bool"
        }
      ],
      "stateMutability": "nonpayable",
      "type": "function"
    },
    {
      "inputs": [
        {
          "internalType": "address",
          "name": "sender",
          "type": "address"
        },
        {
          "internalType": "address",
          "name": "recipient",
          "type": "address"
        },
        {
          "internalType": "uint256",
          "name": "amount",
          "type": "uint256"
        }
      ],
      "name": "transferFrom",
      "outputs": [
        {
          "internalType": "bool",
          "name": "",
          "type": "bool"
        }
      ],
      "stateMutability": "nonpayable",
      "type": "function"
    }
  ],
  "bytecode": "0x60e060405234801561000f575f5ffd5b506040516110bf3803806110bf83398101604081905261002e916100c7565b5f6080526001600160a01b03811660a081905260408051630a1ce1a960e31b815290516350e70d48916004808201926020929091908290030181865afa15801561007a573d5f5f3e3d5ffd5b505050506040513d601f19601f8201168201806040525081019061009e91906100c7565b6001600160a01b031660c052506100e9565b6001600160a01b03811681146100c4575f5ffd5b50565b5f602082840312156100d7575f5ffd5b81516100e2816100b0565b9392505050565b60805160a05160c051610f6d6101525f395f8181610280015281816102c10152818161060c01526106f901525f81816101cb015281816103f101528181610473015281816104fe015281816107c6015281816107ea015261081001525f61017f0152610f6d5ff3fe608060405234801561000f575f5ffd5b5060043610610106575f3560e01c80636baaecd11161009e578063dd62ed3e1161006e578063dd62ed3e1461023b578063e49112db14610273578063ec342ad01461027b578063f5c0b95f146102a2578063f649fa2f146102b5575f5ffd5b80636baaecd11461020557806370a082311461020d57806395d89b4114610220578063a9059cbb14610228575f5ffd5b8063278c43fb116100d9578063278c43fb14610170578063313ce5671461017a5780634000aea0146101b35780634422903d146101c6575f5ffd5b806306fdde031461010a578063095ea7b31461012857806318160ddd1461014b57806323b872dd1461015d575b5f5ffd5b6101126102bd565b60405161011f9190610b9d565b60405180910390f35b61013b610136366004610bed565b610365565b604051901515815260200161011f565b6002545b60405190815260200161011f565b61013b61016b366004610c15565b61037b565b6101786103ef565b005b6101a17f000000000000000000000000000000000000000000000000000000000000000081565b60405160ff909116815260200161011f565b61013b6101c1366004610c4f565b61056a565b6101ed7f000000000000000000000000000000000000000000000000000000000000000081565b6040516001600160a01b03909116815260200161011f565b6101786105f7565b61014f61021b366004610cd2565b6106d2565b6101126106f5565b61013b610236366004610bed565b610789565b61014f610249366004610ceb565b6001600160a01b039182165f90815260016020908152604080832093909416825291909152205490565b610178610795565b6101ed7f000000000000000000000000000000000000000000000000000000000000000081565b61013b6102b0366004610d1c565b6107af565b6101786107c1565b60607f00000000000000000000000000000000000000000000000000000000000000006001600160a01b03166306fdde036040518163ffffffff1660e01b81526004015f60405180830381865afa15801561031a573d5f5f3e3d5ffd5b505050506040513d5f823e601f3d908101601f191682016040526103419190810190610d6a565b6040516020016103519190610e34565b604051602081830303815290604052905090565b5f61037133848461089d565b5060015b92915050565b5f6103878484846108fe565b6001600160a01b0384165f908152600160209081526040808320338452909152902054600160ff1b8110156103e4576103c08382610e66565b6001600160a01b0386165f9081526001602090815260408083203384529091529020555b506001949350505050565b7f00000000000000000000000000000000000000000000000000000000000000006001600160a01b0316638fd3ab806040518163ffffffff1660e01b81526004015f604051808303815f87803b158015610447575f5ffd5b505af1158015610459573d5f5f3e3d5ffd5b50506040516370a0823160e01b81523060048201525f92507f00000000000000000000000000000000000000000000000000000000000000006001600160a01b031691506370a0823190602401602060405180830381865afa1580156104c1573d5f5f3e3d5ffd5b505050506040513d601f19601f820116820180604052508101906104e59190610e79565b604051636f074d1f60e11b8152600481018290529091507f00000000000000000000000000000000000000000000000000000000000000006001600160a01b03169063de0e9a3e906024015f604051808303815f87803b158015610547575f5ffd5b505af1158015610559573d5f5f3e3d5ffd5b505050506105673082610957565b50565b5f6105758585610789565b80156105ee5750604051635260769b60e11b81526001600160a01b0386169063a4c0ed36906105ae903390889088908890600401610e90565b6020604051808303815f875af11580156105ca573d5f5f3e3d5ffd5b505050506040513d601f19601f820116820180604052508101906105ee9190610ed7565b95945050505050565b6040516370a0823160e01b81523060048201527f00000000000000000000000000000000000000000000000000000000000000006001600160a01b0316906342966c689082906370a0823190602401602060405180830381865afa158015610661573d5f5f3e3d5ffd5b505050506040513d601f19601f820116820180604052508101906106859190610e79565b6040518263ffffffff1660e01b81526004016106a391815260200190565b5f604051808303815f87803b1580156106ba575f5ffd5b505af11580156106cc573d5f5f3e3d5ffd5b50505050565b6001600160a01b03165f908152602081905260409020546001600160e01b031690565b60607f00000000000000000000000000000000000000000000000000000000000000006001600160a01b03166395d89b416040518163ffffffff1660e01b81526004015f60405180830381865afa158015610752573d5f5f3e3d5ffd5b505050506040513d5f823e601f3d908101601f191682016040526107799190810190610d6a565b6040516020016103519190610ef6565b5f6103713384846108fe565b61079d6107c1565b6107a56103ef565b6107ad6105f7565b565b5f6107ba83836109bd565b9392505050565b6107ad7f000000000000000000000000000000000000000000000000000000000000000061080e7f00000000000000000000000000000000000000000000000000000000000000006106d2565b7f00000000000000000000000000000000000000000000000000000000000000006001600160a01b03166318160ddd6040518163ffffffff1660e01b8152600401602060405180830381865afa15801561086a573d5f5f3e3d5ffd5b505050506040513d601f19601f8201168201806040525081019061088e9190610e79565b6108989190610e66565b6109fb565b6001600160a01b038381165f8181526001602090815260408083209487168084529482529182902085905590518481527f8c5be1e5ebec7d5bd14f71427d1e84f3dd0314c0f7b2291e5b200ac8c7c3b92591015b60405180910390a3505050565b6109088382610a59565b6109128282610af9565b816001600160a01b0316836001600160a01b03167fddf252ad1be2c89b69c2b068fc378daa952ba7f163c4a11628f55a4df523b3ef836040516108f191815260200190565b8060025f8282546109689190610e66565b9091555061097890508282610a59565b6040518181525f906001600160a01b038416907fddf252ad1be2c89b69c2b068fc378daa952ba7f163c4a11628f55a4df523b3ef906020015b60405180910390a35050565b5f806109ca8360e0610f0b565b6001600160a01b0385165f90815260208190526040902054600160ff929092169190911b9081161491505092915050565b8060025f828254610a0c9190610f24565b90915550610a1c90508282610af9565b6040518181526001600160a01b038316905f907fddf252ad1be2c89b69c2b068fc378daa952ba7f163c4a11628f55a4df523b3ef906020016109b1565b6001600160a01b0382165f9081526020819052604081205490610a7c8383610e66565b90506001600160e01b031981166001600160e01b0319831614610ad95783610aa3856106d2565b60405163391434e360e21b81526001600160a01b0390921660048301526024820152604481018490526064015b60405180910390fd5b6001600160a01b039093165f908152602081905260409020929092555050565b6001600160a01b038216610b2b5760405163ec442f0560e01b81526001600160a01b0383166004820152602401610ad0565b6001600160a01b0382165f9081526020819052604081205490610b4e8383610f24565b90506001600160e01b031981166001600160e01b0319831614610ad957604051634a2e08e560e01b81526001600160a01b03851660048201526024810183905260448101849052606401610ad0565b602081525f82518060208401528060208501604085015e5f604082850101526040601f19601f83011684010191505092915050565b80356001600160a01b0381168114610be8575f5ffd5b919050565b5f5f60408385031215610bfe575f5ffd5b610c0783610bd2565b946020939093013593505050565b5f5f5f60608486031215610c27575f5ffd5b610c3084610bd2565b9250610c3e60208501610bd2565b929592945050506040919091013590565b5f5f5f5f60608587031215610c62575f5ffd5b610c6b85610bd2565b935060208501359250604085013567ffffffffffffffff811115610c8d575f5ffd5b8501601f81018713610c9d575f5ffd5b803567ffffffffffffffff811115610cb3575f5ffd5b876020828401011115610cc4575f5ffd5b949793965060200194505050565b5f60208284031215610ce2575f5ffd5b6107ba82610bd2565b5f5f60408385031215610cfc575f5ffd5b610d0583610bd2565b9150610d1360208401610bd2565b90509250929050565b5f5f60408385031215610d2d575f5ffd5b610d3683610bd2565b9150602083013560ff81168114610d4b575f5ffd5b809150509250929050565b634e487b7160e01b5f52604160045260245ffd5b5f60208284031215610d7a575f5ffd5b815167ffffffffffffffff811115610d90575f5ffd5b8201601f81018413610da0575f5ffd5b805167ffffffffffffffff811115610dba57610dba610d56565b604051601f8201601f19908116603f0116810167ffffffffffffffff81118282101715610de957610de9610d56565b604052818152828201602001861015610e00575f5ffd5b8160208401602083015e5f91810160200191909152949350505050565b5f81518060208401855e5f93019283525090919050565b69021b0b731b2b63632b2160b51b81525f6107ba600a830184610e1d565b634e487b7160e01b5f52601160045260245ffd5b8181038181111561037557610375610e52565b5f60208284031215610e89575f5ffd5b5051919050565b6001600160a01b0385168152602081018490526060604082018190528101829052818360808301375f818301608090810191909152601f909201601f191601019392505050565b5f60208284031215610ee7575f5ffd5b815180151581146107ba575f5ffd5b604360f81b81525f6107ba6001830184610e1d565b60ff818116838216019081111561037557610375610e52565b8082018082111561037557610375610e5256fea26469706673582212205de2a228740fc0d7ed7eaeaaa872631c240257f94d98c27aad31319b5a37997764736f6c634300081d0033",
  "linkReferences": {},
  "deployedLinkReferences": {}
}