{
  "address": "0xD84379CEae14AA33C123Af12424A37803F885889",
  "abi": [
    {
      "inputs": [
        {
          "internalType": "string",
          "name": "_symbol",
          "type": "string"
        },
        {
          "internalType": "string",
          "name": "_name",
          "type": "string"
        },
        {
          "internalType": "string",
          "name": "_terms",
          "type": "string"
        },
        {
          "internalType": "uint256",
          "name": "_totalShares",
          "type": "uint256"
        },
        {
          "internalType": "address",
          "name": "_recoveryHub",
          "type": "address"
        },
        {
          "internalType": "address",
          "name": "_owner",
          "type": "address"
        }
      ],
      "stateMutability": "nonpayable",
      "type": "constructor"
    },
    {
      "anonymous": false,
      "inputs": [
        {
          "indexed": true,
          "internalType": "address",
          "name": "account",
          "type": "address"
        },
        {
          "indexed": false,
          "internalType": "uint8",
          "name": "addressType",
          "type": "uint8"
        }
      ],
      "name": "AddressTypeUpdate",
      "type": "event"
    },
    {
      "anonymous": false,
      "inputs": [
        {
          "indexed": false,
          "internalType": "string",
          "name": "message",
          "type": "string"
        }
      ],
      "name": "Announcement",
      "type": "event"
    },
    {
      "anonymous": false,
      "inputs": [
        {
          "indexed": true,
          "internalType": "address",
          "name": "owner",
          "type": "address"
        },
        {
          "indexed": true,
          "internalType": "address",
          "name": "spender",
          "type": "address"
        },
        {
          "indexed": false,
          "internalType": "uint256",
          "name": "value",
          "type": "uint256"
        }
      ],
      "name": "Approval",
      "type": "event"
    },
    {
      "anonymous": false,
      "inputs": [
        {
          "indexed": false,
          "internalType": "string",
          "name": "name",
          "type": "string"
        },
        {
          "indexed": false,
          "internalType": "string",
          "name": "symbol",
          "type": "string"
        }
      ],
      "name": "NameChanged",
      "type": "event"
    },
    {
      "anonymous": false,
      "inputs": [
        {
          "indexed": true,
          "internalType": "address",
          "name": "previousOwner",
          "type": "address"
        },
        {
          "indexed": true,
          "internalType": "address",
          "name": "newOwner",
          "type": "address"
        }
      ],
      "name": "OwnershipTransferred",
      "type": "event"
    },
    {
      "anonymous": false,
      "inputs": [
        {
          "indexed": true,
          "internalType": "address",
          "name": "holder",
          "type": "address"
        },
        {
          "indexed": false,
          "internalType": "uint256",
          "name": "amount",
          "type": "uint256"
        },
        {
          "indexed": false,
          "internalType": "string",
          "name": "message",
          "type": "string"
        }
      ],
      "name": "TokensDeclaredInvalid",
      "type": "event"
    },
    {
      "anonymous": false,
      "inputs": [
        {
          "indexed": true,
          "internalType": "address",
          "name": "from",
          "type": "address"
        },
        {
          "indexed": true,
          "internalType": "address",
          "name": "to",
          "type": "address"
        },
        {
          "indexed": false,
          "internalType": "uint256",
          "name": "value",
          "type": "uint256"
        }
      ],
      "name": "Transfer",
      "type": "event"
    },
    {
      "inputs": [
        {
          "internalType": "address",
          "name": "owner",
          "type": "address"
        },
        {
          "internalType": "address",
          "name": "spender",
          "type": "address"
        }
      ],
      "name": "allowance",
      "outputs": [
        {
          "internalType": "uint256",
          "name": "",
          "type": "uint256"
        }
      ],
      "stateMutability": "view",
      "type": "function"
    },
    {
      "inputs": [
        {
          "internalType": "string",
          "name": "message",
          "type": "string"
        }
      ],
      "name": "announcement",
      "outputs": [],
      "stateMutability": "nonpayable",
      "type": "function"
    },
    {
      "inputs": [
        {
          "internalType": "address",
          "name": "spender",
          "type": "address"
        },
        {
          "internalType": "uint256",
          "name": "value",
          "type": "uint256"
        }
      ],
      "name": "approve",
      "outputs": [
        {
          "internalType": "bool",
          "name": "",
          "type": "bool"
        }
      ],
      "stateMutability": "nonpayable",
      "type": "function"
    },
    {
      "inputs": [
        {
          "internalType": "address",
          "name": "account",
          "type": "address"
        }
      ],
      "name": "balanceOf",
      "outputs": [
        {
          "internalType": "uint256",
          "name": "",
          "type": "uint256"
        }
      ],
      "stateMutability": "view",
      "type": "function"
    },
    {
      "inputs": [
        {
          "internalType": "uint256",
          "name": "_amount",
          "type": "uint256"
        }
      ],
      "name": "burn",
      "outputs": [],
      "stateMutability": "nonpayable",
      "type": "function"
    },
    {
      "inputs": [
        {
          "internalType": "address",
          "name": "account",
          "type": "address"
        }
      ],
      "name": "canReceiveFromAnyone",
      "outputs": [
        {
          "internalType": "bool",
          "name": "",
          "type": "bool"
        }
      ],
      "stateMutability": "view",
      "type": "function"
    },
    {
      "inputs": [],
      "name": "claimPeriod",
      "outputs": [
        {
          "internalType": "uint256",
          "name": "",
          "type": "uint256"
        }
      ],
      "stateMutability": "pure",
      "type": "function"
    },
    {
      "inputs": [],
      "name": "customCollateralAddress",
      "outputs": [
        {
          "internalType": "address",
          "name": "",
          "type": "address"
        }
      ],
      "stateMutability": "view",
      "type": "function"
    },
    {
      "inputs": [],
      "name": "customCollateralRate",
      "outputs": [
        {
          "internalType": "uint256",
          "name": "",
          "type": "uint256"
        }
      ],
      "stateMutability": "view",
      "type": "function"
    },
    {
      "inputs": [],
      "name": "decimals",
      "outputs": [
        {
          "internalType": "uint8",
          "name": "",
          "type": "uint8"
        }
      ],
      "stateMutability": "view",
      "type": "function"
    },
    {
      "inputs": [
        {
          "internalType": "address",
          "name": "holder",
          "type": "address"
        },
        {
          "internalType": "uint256",
          "name": "amount",
          "type": "uint256"
        },
        {
          "internalType": "string",
          "name": "message",
          "type": "string"
        }
      ],
      "name": "declareInvalid",
      "outputs": [],
      "stateMutability": "nonpayable",
      "type": "function"
    },
    {
      "inputs": [
        {
          "internalType": "address",
          "name": "lostAddress",
          "type": "address"
        }
      ],
      "name": "deleteClaim",
      "outputs": [],
      "stateMutability": "nonpayable",
      "type": "function"
    },
    {
      "inputs": [],
      "name": "getClaimDeleter",
      "outputs": [
        {
          "internalType": "address",
          "name": "",
          "type": "address"
        }
      ],
      "stateMutability": "view",
      "type": "function"
    },
    {
      "inputs": [
        {
          "internalType": "address",
          "name": "collateralType",
          "type": "address"
        }
      ],
      "name": "getCollateralRate",
      "outputs": [
        {
          "internalType": "uint256",
          "name": "",
          "type": "uint256"
        }
      ],
      "stateMutability": "view",
      "type": "function"
    },
    {
      "inputs": [
        {
          "internalType": "address",
          "name": "account",
          "type": "address"
        },
        {
          "internalType": "uint8",
          "name": "number",
          "type": "uint8"
        }
      ],
      "name": "hasFlag",
      "outputs": [
        {
          "internalType": "bool",
          "name": "",
          "type": "bool"
        }
      ],
      "stateMutability": "view",
      "type": "function"
    },
    {
      "inputs": [],
      "name": "invalidTokens",
      "outputs": [
        {
          "internalType": "uint256",
          "name": "",
          "type": "uint256"
        }
      ],
      "stateMutability": "view",
      "type": "function"
    },
    {
      "inputs": [
        {
          "internalType": "address",
          "name": "account",
          "type": "address"
        }
      ],
      "name": "isForbidden",
      "outputs": [
        {
          "internalType": "bool",
          "name": "",
          "type": "bool"
        }
      ],
      "stateMutability": "view",
      "type": "function"
    },
    {
      "inputs": [
        {
          "internalType": "address",
          "name": "account",
          "type": "address"
        }
      ],
      "name": "isPowerlisted",
      "outputs": [
        {
          "internalType": "bool",
          "name": "",
          "type": "bool"
        }
      ],
      "stateMutability": "view",
      "type": "function"
    },
    {
      "inputs": [
        {
          "internalType": "address",
          "name": "target",
          "type": "address"
        },
        {
          "internalType": "uint256",
          "name": "amount",
          "type": "uint256"
        }
      ],
      "name": "mint",
      "outputs": [],
      "stateMutability": "nonpayable",
      "type": "function"
    },
    {
      "inputs": [
        {
          "internalType": "address",
          "name": "shareholder",
          "type": "address"
        },
        {
          "internalType": "address",
          "name": "callee",
          "type": "address"
        },
        {
          "internalType": "uint256",
          "name": "amount",
          "type": "uint256"
        },
        {
          "internalType": "bytes",
          "name": "data",
          "type": "bytes"
        }
      ],
      "name": "mintAndCall",
      "outputs": [],
      "stateMutability": "nonpayable",
      "type": "function"
    },
    {
      "inputs": [],
      "name": "name",
      "outputs": [
        {
          "internalType": "string",
          "name": "",
          "type": "string"
        }
      ],
      "stateMutability": "view",
      "type": "function"
    },
    {
      "inputs": [
        {
          "internalType": "address",
          "name": "target",
          "type": "address"
        }
      ],
      "name": "notifyClaimDeleted",
      "outputs": [],
      "stateMutability": "nonpayable",
      "type": "function"
    },
    {
      "inputs": [
        {
          "internalType": "address",
          "name": "target",
          "type": "address"
        }
      ],
      "name": "notifyClaimMade",
      "outputs": [],
      "stateMutability": "nonpayable",
      "type": "function"
    },
    {
      "inputs": [],
      "name": "owner",
      "outputs": [
        {
          "internalType": "address",
          "name": "",
          "type": "address"
        }
      ],
      "stateMutability": "view",
      "type": "function"
    },
    {
      "inputs": [
        {
          "internalType": "address",
          "name": "oldAddress",
          "type": "address"
        },
        {
          "internalType": "address",
          "name": "newAddress",
          "type": "address"
        }
      ],
      "name": "recover",
      "outputs": [],
      "stateMutability": "nonpayable",
      "type": "function"
    },
    {
      "inputs": [],
      "name": "recovery",
      "outputs": [
        {
          "internalType": "contract IRecoveryHub",
          "name": "",
          "type": "address"
        }
      ],
      "stateMutability": "view",
      "type": "function"
    },
    {
      "inputs": [],
      "name": "restrictTransfers",
      "outputs": [
        {
          "internalType": "bool",
          "name": "",
          "type": "bool"
        }
      ],
      "stateMutability": "view",
      "type": "function"
    },
    {
      "inputs": [
        {
          "internalType": "bool",
          "name": "transferRestrictionsApplicable",
          "type": "bool"
        }
      ],
      "name": "setApplicable",
      "outputs": [],
      "stateMutability": "nonpayable",
      "type": "function"
    },
    {
      "inputs": [
        {
          "internalType": "address",
          "name": "collateral",
          "type": "address"
        },
        {
          "internalType": "uint256",
          "name": "rate",
          "type": "uint256"
        }
      ],
      "name": "setCustomClaimCollateral",
      "outputs": [],
      "stateMutability": "nonpayable",
      "type": "function"
    },
    {
      "inputs": [
        {
          "internalType": "string",
          "name": "_symbol",
          "type": "string"
        },
        {
          "internalType": "string",
          "name": "_name",
          "type": "string"
        }
      ],
      "name": "setName",
      "outputs": [],
      "stateMutability": "nonpayable",
      "type": "function"
    },
    {
      "inputs": [
        {
          "internalType": "string",
          "name": "_terms",
          "type": "string"
        }
      ],
      "name": "setTerms",
      "outputs": [],
      "stateMutability": "nonpayable",
      "type": "function"
    },
    {
      "inputs": [
        {
          "internalType": "uint256",
          "name": "_newTotalShares",
          "type": "uint256"
        }
      ],
      "name": "setTotalShares",
      "outputs": [],
      "stateMutability": "nonpayable",
      "type": "function"
    },
    {
      "inputs": [
        {
          "internalType": "address[]",
          "name": "addressesToAdd",
          "type": "address[]"
        },
        {
          "internalType": "uint8",
          "name": "value",
          "type": "uint8"
        }
      ],
      "name": "setType",
      "outputs": [],
      "stateMutability": "nonpayable",
      "type": "function"
    },
    {
      "inputs": [
        {
          "internalType": "address",
          "name": "account",
          "type": "address"
        },
        {
          "internalType": "uint8",
          "name": "typeNumber",
          "type": "uint8"
        }
      ],
      "name": "setType",
      "outputs": [],
      "stateMutability": "nonpayable",
      "type": "function"
    },
    {
      "inputs": [],
      "name": "symbol",
      "outputs": [
        {
          "internalType": "string",
          "name": "",
          "type": "string"
        }
      ],
      "stateMutability": "view",
      "type": "function"
    },
    {
      "inputs": [],
      "name": "terms",
      "outputs": [
        {
          "internalType": "string",
          "name": "",
          "type": "string"
        }
      ],
      "stateMutability": "view",
      "type": "function"
    },
    {
      "inputs": [],
      "name": "totalShares",
      "outputs": [
        {
          "internalType": "uint256",
          "name": "",
          "type": "uint256"
        }
      ],
      "stateMutability": "view",
      "type": "function"
    },
    {
      "inputs": [],
      "name": "totalSupply",
      "outputs": [
        {
          "internalType": "uint256",
          "name": "",
          "type": "uint256"
        }
      ],
      "stateMutability": "view",
      "type": "function"
    },
    {
      "inputs": [],
      "name": "totalValidSupply",
      "outputs": [
        {
          "internalType": "uint256",
          "name": "",
          "type": "uint256"
        }
      ],
      "stateMutability": "view",
      "type": "function"
    },
    {
      "inputs": [
        {
          "internalType": "address",
          "name": "recipient",
          "type": "address"
        },
        {
          "internalType": "uint256",
          "name": "amount",
          "type": "uint256"
        }
      ],
      "name": "transfer",
      "outputs": [
        {
          "internalType": "bool",
          "name": "",
          "type": "bool"
        }
      ],
      "stateMutability": "nonpayable",
      "type": "function"
    },
    {
      "inputs": [
        {
          "internalType": "address",
          "name": "recipient",
          "type": "address"
        },
        {
          "internalType": "uint256",
          "name": "amount",
          "type": "uint256"
        },
        {
          "internalType": "bytes",
          "name": "data",
          "type": "bytes"
        }
      ],
      "name": "transferAndCall",
      "outputs": [
        {
          "internalType": "bool",
          "name": "",
          "type": "bool"
        }
      ],
      "stateMutability": "nonpayable",
      "type": "function"
    },
    {
      "inputs": [
        {
          "internalType": "address",
          "name": "sender",
          "type": "address"
        },
        {
          "internalType": "address",
          "name": "recipient",
          "type": "address"
        },
        {
          "internalType": "uint256",
          "name": "amount",
          "type": "uint256"
        }
      ],
      "name": "transferFrom",
      "outputs": [
        {
          "internalType": "bool",
          "name": "",
          "type": "bool"
        }
      ],
      "stateMutability": "nonpayable",
      "type": "function"
    },
    {
      "inputs": [
        {
          "internalType": "address",
          "name": "newOwner",
          "type": "address"
        }
      ],
      "name": "transferOwnership",
      "outputs": [],
      "stateMutability": "nonpayable",
      "type": "function"
    }
  ],
  "transactionHash": "0xb9b088c14e4362f5c42339fa3af609bfe334aeaec3e13e63dafd5e140f08f398",
  "args": [
    "ASHR",
    "Test Allowlist Share ",
    "wwww.terms.ch",
    4000000,
    "0x51A1ceB83B83F1985a81C295d1fF28Afef186E02",
    "0x6e5cA28295d64e558acCA831E4cb56FBCd132baC"
  ],
  "solcInputHash": "8269d1cb5c313d6303e9f45795048308",
  "bytecode": "0x60a060405260006009556000600a553480156200001b57600080fd5b5060405162002377380380620023778339810160408190526200003e91620004d3565b6003805460ff19169055606082901b6001600160601b031916608052600580546001600160a01b0319166001600160a01b03831690811790915560405187918791879187918691889183918791899160009185919083907f8be0079c531659141344cd1fd0a4f28419497f9722a3daafe3b4186f6b6457e0908290a350620000c78383620001a8565b50508751620000e092506007915060208901906200037f565b508451620000f69060069060208801906200037f565b5060098390558351620001119060089060208701906200037f565b505050505050506200012a60016200021360201b60201c565b83516200013f9060089060208701906200037f565b50604051636427ed9760e01b8152600060048201526001600160a01b03831690636427ed9790602401600060405180830381600087803b1580156200018357600080fd5b505af115801562000198573d6000803e3d6000fd5b50505050505050505050620006ac565b8151620001bd9060079060208501906200037f565b508051620001d39060069060208401906200037f565b507f6c20b91d1723b78732eba64ff11ebd7966a6e4af568a00fa4f6b72c20f58b02a818360405162000207929190620005c0565b60405180910390a15050565b600b805460ff1916600117905580156200023857620002356000600462000240565b50565b620002356000805b6200025482601460ff8416600114620002c4565b506200026982601560ff8416600214620002c4565b506200027e82601660ff8416600414620002c4565b5060405160ff821681526001600160a01b038316907fe423d7d31023dbacefed7c937785d0012ad8f314381295efebfc0471d2c434549060200160405180910390a25050565b6000811515620002d58585620002fd565b151514620002f257620002e984846200033f565b506001620002f6565b5060005b9392505050565b6000806200030d8360e0620005f2565b6001600160a01b038516600090815260208190526040902054600160ff929092169190911b9081161491505092915050565b60006200034e8260e0620005f2565b6001600160a01b039390931660009081526020819052604090208054600160ff9095169490941b9093189092555050565b8280546200038d9062000659565b90600052602060002090601f016020900481019282620003b15760008555620003fc565b82601f10620003cc57805160ff1916838001178555620003fc565b82800160010185558215620003fc579182015b82811115620003fc578251825591602001919060010190620003df565b506200040a9291506200040e565b5090565b5b808211156200040a57600081556001016200040f565b80516001600160a01b03811681146200043d57600080fd5b919050565b600082601f8301126200045457600080fd5b81516001600160401b038082111562000471576200047162000696565b604051601f8301601f19908116603f011681019082821181831017156200049c576200049c62000696565b81604052838152866020858801011115620004b657600080fd5b620004c984602083016020890162000626565b9695505050505050565b60008060008060008060c08789031215620004ed57600080fd5b86516001600160401b03808211156200050557600080fd5b620005138a838b0162000442565b975060208901519150808211156200052a57600080fd5b620005388a838b0162000442565b965060408901519150808211156200054f57600080fd5b506200055e89828a0162000442565b94505060608701519250620005766080880162000425565b91506200058660a0880162000425565b90509295509295509295565b60008151808452620005ac81602086016020860162000626565b601f01601f19169290920160200192915050565b604081526000620005d5604083018562000592565b8281036020840152620005e9818562000592565b95945050505050565b600060ff821660ff84168060ff038211156200061e57634e487b7160e01b600052601160045260246000fd5b019392505050565b60005b838110156200064357818101518382015260200162000629565b8381111562000653576000848401525b50505050565b600181811c908216806200066e57607f821691505b602082108114156200069057634e487b7160e01b600052602260045260246000fd5b50919050565b634e487b7160e01b600052604160045260246000fd5b60805160601c611c89620006ee6000396000818161054c015281816107b701528181610ac101528181610cbf01528181610d41015261136b0152611c896000f3fe608060405234801561001057600080fd5b50600436106102695760003560e01c806370a0823111610151578063b1c8db66116100c3578063ddceafa911610087578063ddceafa914610547578063e445d70a1461056e578063e5b824ec14610581578063f2fde38b14610594578063f54fc060146105a7578063f5c0b95f146105ba57600080fd5b8063b1c8db66146104d3578063c18172c4146104e6578063d37a9bb0146104f9578063d502562514610506578063dd62ed3e1461050e57600080fd5b806395d89b411161011557806395d89b41146104775780639e37878c1461047f578063a49a7cb114610492578063a77384c1146104a5578063a9059cbb146104b8578063b0d04c7a146104cb57600080fd5b806370a082311461042257806377e071ad1461043557806378f86afc146104485780637dc2cd981461045b5780638da5cb5b1461046457600080fd5b806337a8129c116101ea57806342966c68116101ae57806342966c68146103ba578063429c66f0146103cd5780635c707f07146103e05780635d6624b7146103f35780636091811714610406578063648bf7741461040f57600080fd5b806337a8129c1461036f5780633a1cdf32146103785780633a98ef391461038b5780634000aea01461039457806340c10f19146103a757600080fd5b806323b872dd1161023157806323b872dd146103065780632a0a4ed5146103195780632b3430991461032a578063313ce5671461033d57806332a7ae951461035c57600080fd5b806306fdde031461026e578063095ea7b31461028c5780630c6f0e5d146102af57806318160ddd146102df5780631f0f06aa146102f1575b600080fd5b6102766105cd565b6040516102839190611afa565b60405180910390f35b61029f61029a3660046117d6565b61065b565b6040519015158152602001610283565b6003546102c79061010090046001600160a01b031681565b6040516001600160a01b039091168152602001610283565b6002545b604051908152602001610283565b6103046102ff366004611942565b610671565b005b61029f61031436600461172b565b6106e1565b6005546001600160a01b03166102c7565b61029f6103383660046116dd565b61073f565b60035461034a9060ff1681565b60405160ff9091168152602001610283565b61030461036a3660046116dd565b610752565b6102e3600a5481565b6103046103863660046117d6565b610816565b6102e360095481565b61029f6103a2366004611800565b61084e565b6103046103b53660046117d6565b6108f3565b6103046103c8366004611a25565b610927565b6103046103db366004611884565b610981565b6103046103ee3660046119c1565b6109d9565b610304610401366004611800565b610a0d565b6102e360045481565b61030461041d3660046116f8565b610ab6565b6102e36104303660046116dd565b610afe565b6102e36104433660046116dd565b610b22565b610304610456366004611984565b610b6d565b62ed4e006102e3565b6005546102c7906001600160a01b031681565b610276610baa565b61029f61048d3660046116dd565b610bb7565b6103046104a036600461185a565b610bc4565b6103046104b3366004611a25565b610bf8565b61029f6104c63660046117d6565b610c6d565b6102e3610c79565b61029f6104e13660046116dd565b610c96565b6103046104f43660046116dd565b610cb4565b600b5461029f9060ff1681565b610276610cf6565b6102e361051c3660046116f8565b6001600160a01b03918216600090815260016020908152604080832093909416825291909152205490565b6102c77f000000000000000000000000000000000000000000000000000000000000000081565b61030461057c366004611908565b610d03565b61030461058f3660046116dd565b610d36565b6103046105a23660046116dd565b610d78565b6103046105b5366004611767565b610dfe565b61029f6105c836600461185a565b610e94565b600680546105da90611bc3565b80601f016020809104026020016040519081016040528092919081815260200182805461060690611bc3565b80156106535780601f1061062857610100808354040283529160200191610653565b820191906000526020600020905b81548152906001019060200180831161063657829003601f168201915b505050505081565b6000610668338484610ea0565b50600192915050565b6005546001600160a01b031633146106a45760405162461bcd60e51b815260040161069b90611b32565b60405180910390fd5b7f07ce702fc13ca0620c174dab22996a6d5fd9e7accb663555a4e85323692706ba82826040516106d5929190611ae6565b60405180910390a15050565b60006106ee848484610f02565b6001600160a01b0384166000908152600160209081526040808320338452909152902054600160ff1b81101561073257610732853361072d8685611bac565b610ea0565b60019150505b9392505050565b600061074c826016610f8a565b92915050565b6005546001600160a01b031633146107985760405162461bcd60e51b81526020600482015260096024820152686e6f2061636365737360b81b604482015260640161069b565b6040516332a7ae9560e01b81526001600160a01b0382811660048301527f000000000000000000000000000000000000000000000000000000000000000016906332a7ae9590602401600060405180830381600087803b1580156107fb57600080fd5b505af115801561080f573d6000803e3d6000fd5b5050505050565b6005546001600160a01b031633146108405760405162461bcd60e51b815260040161069b90611b32565b61084a8282610fca565b5050565b60008061085b8686610c6d565b905080156108ea57604051635260769b60e11b81526001600160a01b0387169063a4c0ed3690610895903390899089908990600401611ab4565b602060405180830381600087803b1580156108af57600080fd5b505af11580156108c3573d6000803e3d6000fd5b505050506040513d601f19601f820116820180604052508101906108e79190611925565b90505b95945050505050565b6005546001600160a01b0316331461091d5760405162461bcd60e51b815260040161069b90611b32565b61084a8282611041565b61093033610afe565b8111156109695760405162461bcd60e51b815260206004820152600760248201526662616c616e636560c81b604482015260640161069b565b610974333083610f02565b61097e308261104b565b50565b6005546001600160a01b031633146109ab5760405162461bcd60e51b815260040161069b90611b32565b60005b828110156109d3576109c1848484610981565b806109cb81611bfe565b9150506109ae565b50505050565b6005546001600160a01b03163314610a035760405162461bcd60e51b815260040161069b90611b32565b61084a82826110e1565b6005546001600160a01b03163314610a375760405162461bcd60e51b815260040161069b90611b32565b6000610a4285610afe565b905080841115610a5157600080fd5b83600a6000828254610a639190611b6f565b92505081905550846001600160a01b03167f0a605cd1294f60fa3b73548ac68428f33300a051f225afcdcc75e56083c96ee7858585604051610aa793929190611b55565b60405180910390a25050505050565b336001600160a01b037f00000000000000000000000000000000000000000000000000000000000000001614610aeb57600080fd5b61084a8282610af985610afe565b610f02565b6001600160a01b03166000908152602081905260409020546001600160e01b031690565b60006001600160a01b038216301415610b3d57506001919050565b6003546001600160a01b03838116610100909204161415610b6057505060045490565b506000919050565b919050565b6005546001600160a01b03163314610b975760405162461bcd60e51b815260040161069b90611b32565b805161084a906008906020840190611546565b600780546105da90611bc3565b600061074c826015610f8a565b6005546001600160a01b03163314610bee5760405162461bcd60e51b815260040161069b90611b32565b61084a828261113a565b6005546001600160a01b03163314610c225760405162461bcd60e51b815260040161069b90611b32565b610c2a610c79565b811015610c685760405162461bcd60e51b815260206004820152600c60248201526b62656c6f7720737570706c7960a01b604482015260640161069b565b600955565b600061073883836111b8565b6000600a54610c8760025490565b610c919190611bac565b905090565b6000610ca3826014610f8a565b8061074c575061074c826016610f8a565b336001600160a01b037f00000000000000000000000000000000000000000000000000000000000000001614610ce957600080fd5b61084a81600a60016111c4565b600880546105da90611bc3565b6005546001600160a01b03163314610d2d5760405162461bcd60e51b815260040161069b90611b32565b61097e816111f4565b336001600160a01b037f00000000000000000000000000000000000000000000000000000000000000001614610d6b57600080fd5b61084a81600a60006111c4565b6005546001600160a01b03163314610da25760405162461bcd60e51b815260040161069b90611b32565b6005546040516001600160a01b038084169216907f8be0079c531659141344cd1fd0a4f28419497f9722a3daafe3b4186f6b6457e090600090a3600580546001600160a01b0319166001600160a01b0392909216919091179055565b610e0884846108f3565b604051635260769b60e11b81526001600160a01b0385169063a4c0ed3690610e3a908890879087908790600401611ab4565b602060405180830381600087803b158015610e5457600080fd5b505af1158015610e68573d6000803e3d6000fd5b505050506040513d601f19601f82011682018060405250810190610e8c9190611925565b505050505050565b60006107388383610f8a565b6001600160a01b0383811660008181526001602090815260408083209487168084529482529182902085905590518481527f8c5be1e5ebec7d5bd14f71427d1e84f3dd0314c0f7b2291e5b200ac8c7c3b92591015b60405180910390a3505050565b610f0d83838361121e565b6001600160a01b03831660009081526020819052604081208054839290610f35908490611bac565b90915550610f459050828261122e565b816001600160a01b0316836001600160a01b03167fddf252ad1be2c89b69c2b068fc378daa952ba7f163c4a11628f55a4df523b3ef83604051610ef591815260200190565b600080610f988360e0611b87565b6001600160a01b038516600090815260208190526040902054600160ff929092169190911b9081161491505092915050565b60038054610100600160a81b0319166101006001600160a01b0385811682029290921792839055909104166110025760006004555050565b6000811161103b5760405162461bcd60e51b815260040161069b906020808252600490820152637a65726f60e01b604082015260600190565b60045550565b61084a82826112db565b6110578260008361121e565b80600260008282546110699190611bac565b90915550506001600160a01b03821660009081526020819052604081208054839290611096908490611bac565b90915550506040518181526000906001600160a01b038416907fddf252ad1be2c89b69c2b068fc378daa952ba7f163c4a11628f55a4df523b3ef906020015b60405180910390a35050565b81516110f4906007906020850190611546565b508051611108906006906020840190611546565b507f6c20b91d1723b78732eba64ff11ebd7966a6e4af568a00fa4f6b72c20f58b02a81836040516106d5929190611b0d565b61114c82601460ff84166001146111c4565b5061115f82601560ff84166002146111c4565b5061117282601660ff84166004146111c4565b5060405160ff821681526001600160a01b038316907fe423d7d31023dbacefed7c937785d0012ad8f314381295efebfc0471d2c434549060200160405180910390a25050565b60006107388383611331565b60008115156111d38585610f8a565b1515146111ec576111e484846113d8565b506001610738565b506000610738565b600b805460ff1916600117905580156112135761097e6000600461113a565b61097e60008061113a565b611229838383611416565b505050565b6001600160a01b03821661124157600080fd5b6001600160a01b038216600090815260208190526040812054906001600160e01b03198216906112718484611b6f565b90506001600160e01b031981168281146112b85760405162461bcd60e51b81526020600482015260086024820152676f766572666c6f7760c01b604482015260640161069b565b506001600160a01b03909416600090815260208190526040902093909355505050565b600954816112e7610c79565b6112f19190611b6f565b11156113275760405162461bcd60e51b81526020600482015260056024820152641d1bdd185b60da1b604482015260640161069b565b61084a8282611481565b600061133d83836114ed565b61134657600080fd5b61135133600a610f8a565b15610668576040516304d301a360e41b81523360048201527f00000000000000000000000000000000000000000000000000000000000000006001600160a01b031690634d301a3090602401600060405180830381600087803b1580156113b757600080fd5b505af11580156113cb573d6000803e3d6000fd5b5050505050600192915050565b60006113e58260e0611b87565b6001600160a01b039390931660009081526020819052604090208054600160ff9095169490941b9093189092555050565b61141f82610c96565b1561142957505050565b61143282610bb7565b1561144057611229826114fa565b6114498361073f565b1561145957611229826001610bc4565b611464836014610f8a565b80611473575061147383610bb7565b1561122957611229836114fa565b61148d6000838361121e565b806002600082825461149f9190611b6f565b909155506114af9050828261122e565b6040518181526001600160a01b038316906000907fddf252ad1be2c89b69c2b068fc378daa952ba7f163c4a11628f55a4df523b3ef906020016110d5565b6000610668338484610f02565b600b5460ff161561153b5760405162461bcd60e51b815260206004820152600b60248201526a1b9bdd08185b1b1bddd95960aa1b604482015260640161069b565b61097e816000610bc4565b82805461155290611bc3565b90600052602060002090601f01602090048101928261157457600085556115ba565b82601f1061158d57805160ff19168380011785556115ba565b828001600101855582156115ba579182015b828111156115ba57825182559160200191906001019061159f565b506115c69291506115ca565b5090565b5b808211156115c657600081556001016115cb565b80356001600160a01b0381168114610b6857600080fd5b60008083601f84011261160857600080fd5b50813567ffffffffffffffff81111561162057600080fd5b60208301915083602082850101111561163857600080fd5b9250929050565b600082601f83011261165057600080fd5b813567ffffffffffffffff8082111561166b5761166b611c2f565b604051601f8301601f19908116603f0116810190828211818310171561169357611693611c2f565b816040528381528660208588010111156116ac57600080fd5b836020870160208301376000602085830101528094505050505092915050565b803560ff81168114610b6857600080fd5b6000602082840312156116ef57600080fd5b610738826115df565b6000806040838503121561170b57600080fd5b611714836115df565b9150611722602084016115df565b90509250929050565b60008060006060848603121561174057600080fd5b611749846115df565b9250611757602085016115df565b9150604084013590509250925092565b60008060008060006080868803121561177f57600080fd5b611788866115df565b9450611796602087016115df565b935060408601359250606086013567ffffffffffffffff8111156117b957600080fd5b6117c5888289016115f6565b969995985093965092949392505050565b600080604083850312156117e957600080fd5b6117f2836115df565b946020939093013593505050565b6000806000806060858703121561181657600080fd5b61181f856115df565b935060208501359250604085013567ffffffffffffffff81111561184257600080fd5b61184e878288016115f6565b95989497509550505050565b6000806040838503121561186d57600080fd5b611876836115df565b9150611722602084016116cc565b60008060006040848603121561189957600080fd5b833567ffffffffffffffff808211156118b157600080fd5b818601915086601f8301126118c557600080fd5b8135818111156118d457600080fd5b8760208260051b85010111156118e957600080fd5b6020928301955093506118ff91860190506116cc565b90509250925092565b60006020828403121561191a57600080fd5b813561073881611c45565b60006020828403121561193757600080fd5b815161073881611c45565b6000806020838503121561195557600080fd5b823567ffffffffffffffff81111561196c57600080fd5b611978858286016115f6565b90969095509350505050565b60006020828403121561199657600080fd5b813567ffffffffffffffff8111156119ad57600080fd5b6119b98482850161163f565b949350505050565b600080604083850312156119d457600080fd5b823567ffffffffffffffff808211156119ec57600080fd5b6119f88683870161163f565b93506020850135915080821115611a0e57600080fd5b50611a1b8582860161163f565b9150509250929050565b600060208284031215611a3757600080fd5b5035919050565b81835281816020850137506000828201602090810191909152601f909101601f19169091010190565b6000815180845260005b81811015611a8d57602081850181015186830182015201611a71565b81811115611a9f576000602083870101525b50601f01601f19169290920160200192915050565b60018060a01b0385168152836020820152606060408201526000611adc606083018486611a3e565b9695505050505050565b6020815260006119b9602083018486611a3e565b6020815260006107386020830184611a67565b604081526000611b206040830185611a67565b82810360208401526108ea8185611a67565b6020808252600990820152683737ba1037bbb732b960b91b604082015260600190565b8381526040602082015260006108ea604083018486611a3e565b60008219821115611b8257611b82611c19565b500190565b600060ff821660ff84168060ff03821115611ba457611ba4611c19565b019392505050565b600082821015611bbe57611bbe611c19565b500390565b600181811c90821680611bd757607f821691505b60208210811415611bf857634e487b7160e01b600052602260045260246000fd5b50919050565b6000600019821415611c1257611c12611c19565b5060010190565b634e487b7160e01b600052601160045260246000fd5b634e487b7160e01b600052604160045260246000fd5b801515811461097e57600080fdfea264697066735822122066cd15da0410c2e1939af940cc84e8905db16ef0f004c37bcd74dc81ca472a6e64736f6c63430008070033",
  "devdoc": {
    "kind": "dev",
    "methods": {
      "allowance(address,address)": {
        "details": "See `IERC20.allowance`."
      },
      "approve(address,uint256)": {
        "details": "See `IERC20.approve`. Requirements: - `spender` cannot be the zero address."
      },
      "balanceOf(address)": {
        "details": "See `IERC20.balanceOf`."
      },
      "totalSupply()": {
        "details": "See `IERC20.totalSupply`."
      },
      "transferFrom(address,address,uint256)": {
        "details": "See `IERC20.transferFrom`. Emits an `Approval` event indicating the updated allowance. This is not required by the EIP. See the note at the beginning of `ERC20`; Requirements: - `sender` and `recipient` cannot be the zero address. - `sender` must have a balance of at least `value`. - the caller must have allowance for `sender`'s tokens of at least `amount`."
      },
      "transferOwnership(address)": {
        "details": "Transfers ownership of the contract to a new account (`newOwner`). Can only be called by the current owner."
      }
    },
    "version": 1
  },
  "userdoc": {
    "kind": "user",
    "methods": {
      "announcement(string)": {
        "notice": "Allows the issuer to make public announcements that are visible on the blockchain."
      },
      "burn(uint256)": {
        "notice": "Transfers _amount tokens to the company and burns them. The meaning of this operation depends on the circumstances and the fate of the shares does not necessarily follow the fate of the tokens. For example, the company itself might call this function to implement a formal decision to destroy some of the outstanding shares. Also, this function might be called by an owner to return the shares to the company and get them back in another form under an according agreement (e.g. printed certificates or tokens on a different blockchain). It is not recommended to call this function without having agreed with the company on the further fate of the shares in question."
      },
      "canReceiveFromAnyone(address)": {
        "notice": "If true, this address is allowlisted and can only transfer tokens to other allowlisted addresses."
      },
      "declareInvalid(address,uint256,string)": {
        "notice": "Signals that the indicated tokens have been declared invalid (e.g. by a court ruling in accordance with article 973g of the Swiss Code of Obligations) and got detached from the underlying shares. Invalid tokens do not carry any shareholder rights any more. This function is purely declarative. It does not technically immobilize the affected tokens as that would give the issuer too much power."
      },
      "getCollateralRate(address)": {
        "notice": "Returns the collateral rate for the given collateral type and 0 if that type of collateral is not accepted. By default, only the token itself is accepted at a rate of 1:1. Subclasses should override this method if they want to add additional types of collateral."
      },
      "isForbidden(address)": {
        "notice": "If true, this address can only transfer tokens to allowlisted addresses and not receive from anyone."
      },
      "isPowerlisted(address)": {
        "notice": "If true, this address can automatically allowlist target addresses if necessary."
      },
      "mintAndCall(address,address,uint256,bytes)": {
        "notice": "Allows the company to tokenize shares. If these shares are newly created, setTotalShares must be called first in order to adjust the total number of shares."
      },
      "setApplicable(bool)": {
        "notice": "Configures whether the allowlisting is applied. Also sets the powerlist and allowlist flags on the null address accordingly. It is recommended to also deactivate the powerlist flag on other addresses."
      },
      "setCustomClaimCollateral(address,uint256)": {
        "notice": "See parent method for collateral requirements."
      },
      "setTotalShares(uint256)": {
        "notice": "Declares the number of total shares, including those that have not been tokenized and those that are held by the company itself. This number can be substiantially higher than totalSupply() in case not all shares have been tokenized. Also, it can be lower than totalSupply() in case some tokens have become invalid."
      },
      "totalValidSupply()": {
        "notice": "The total number of valid tokens in circulation. In case some tokens have been declared invalid, this number might be lower than totalSupply(). Also, it will always be lower than or equal to totalShares()."
      }
    },
    "version": 1
  },
  "storageLayout": {
    "storage": [
      {
        "astId": 941,
        "contract": "src/shares/allowlist/AllowlistShares.sol:AllowlistShares",
        "label": "_balances",
        "offset": 0,
        "slot": "0",
        "type": "t_mapping(t_address,t_uint256)"
      },
      {
        "astId": 947,
        "contract": "src/shares/allowlist/AllowlistShares.sol:AllowlistShares",
        "label": "_allowances",
        "offset": 0,
        "slot": "1",
        "type": "t_mapping(t_address,t_mapping(t_address,t_uint256))"
      },
      {
        "astId": 949,
        "contract": "src/shares/allowlist/AllowlistShares.sol:AllowlistShares",
        "label": "_totalSupply",
        "offset": 0,
        "slot": "2",
        "type": "t_uint256"
      },
      {
        "astId": 952,
        "contract": "src/shares/allowlist/AllowlistShares.sol:AllowlistShares",
        "label": "decimals",
        "offset": 0,
        "slot": "3",
        "type": "t_uint8"
      },
      {
        "astId": 3901,
        "contract": "src/shares/allowlist/AllowlistShares.sol:AllowlistShares",
        "label": "customCollateralAddress",
        "offset": 1,
        "slot": "3",
        "type": "t_address"
      },
      {
        "astId": 3903,
        "contract": "src/shares/allowlist/AllowlistShares.sol:AllowlistShares",
        "label": "customCollateralRate",
        "offset": 0,
        "slot": "4",
        "type": "t_uint256"
      },
      {
        "astId": 10374,
        "contract": "src/shares/allowlist/AllowlistShares.sol:AllowlistShares",
        "label": "owner",
        "offset": 0,
        "slot": "5",
        "type": "t_address"
      },
      {
        "astId": 1504,
        "contract": "src/shares/allowlist/AllowlistShares.sol:AllowlistShares",
        "label": "name",
        "offset": 0,
        "slot": "6",
        "type": "t_string_storage"
      },
      {
        "astId": 1507,
        "contract": "src/shares/allowlist/AllowlistShares.sol:AllowlistShares",
        "label": "symbol",
        "offset": 0,
        "slot": "7",
        "type": "t_string_storage"
      },
      {
        "astId": 7862,
        "contract": "src/shares/allowlist/AllowlistShares.sol:AllowlistShares",
        "label": "terms",
        "offset": 0,
        "slot": "8",
        "type": "t_string_storage"
      },
      {
        "astId": 7865,
        "contract": "src/shares/allowlist/AllowlistShares.sol:AllowlistShares",
        "label": "totalShares",
        "offset": 0,
        "slot": "9",
        "type": "t_uint256"
      },
      {
        "astId": 7868,
        "contract": "src/shares/allowlist/AllowlistShares.sol:AllowlistShares",
        "label": "invalidTokens",
        "offset": 0,
        "slot": "10",
        "type": "t_uint256"
      },
      {
        "astId": 8514,
        "contract": "src/shares/allowlist/AllowlistShares.sol:AllowlistShares",
        "label": "restrictTransfers",
        "offset": 0,
        "slot": "11",
        "type": "t_bool"
      }
    ],
    "types": {
      "t_address": {
        "encoding": "inplace",
        "label": "address",
        "numberOfBytes": "20"
      },
      "t_bool": {
        "encoding": "inplace",
        "label": "bool",
        "numberOfBytes": "1"
      },
      "t_mapping(t_address,t_mapping(t_address,t_uint256))": {
        "encoding": "mapping",
        "key": "t_address",
        "label": "mapping(address => mapping(address => uint256))",
        "numberOfBytes": "32",
        "value": "t_mapping(t_address,t_uint256)"
      },
      "t_mapping(t_address,t_uint256)": {
        "encoding": "mapping",
        "key": "t_address",
        "label": "mapping(address => uint256)",
        "numberOfBytes": "32",
        "value": "t_uint256"
      },
      "t_string_storage": {
        "encoding": "bytes",
        "label": "string",
        "numberOfBytes": "32"
      },
      "t_uint256": {
        "encoding": "inplace",
        "label": "uint256",
        "numberOfBytes": "32"
      },
      "t_uint8": {
        "encoding": "inplace",
        "label": "uint8",
        "numberOfBytes": "1"
      }
    }
  }
}