{
  "address": "0x5081a39b8A5f0E35a8D959395a630b68B74Dd30f",
  "abi": [
    {
      "inputs": [
        {
          "internalType": "address",
          "name": "_multSigImplementation",
          "type": "address"
        }
      ],
      "stateMutability": "nonpayable",
      "type": "constructor"
    },
    {
      "anonymous": false,
      "inputs": [
        {
          "indexed": false,
          "internalType": "address",
          "name": "contractAddress",
          "type": "address"
        },
        {
          "indexed": false,
          "internalType": "string",
          "name": "typeName",
          "type": "string"
        }
      ],
      "name": "ContractCreated",
      "type": "event"
    },
    {
      "inputs": [
        {
          "internalType": "address",
          "name": "owner",
          "type": "address"
        },
        {
          "internalType": "bytes32",
          "name": "salt",
          "type": "bytes32"
        }
      ],
      "name": "create",
      "outputs": [
        {
          "internalType": "address",
          "name": "",
          "type": "address"
        }
      ],
      "stateMutability": "nonpayable",
      "type": "function"
    },
    {
      "inputs": [],
      "name": "multiSigImplementation",
      "outputs": [
        {
          "internalType": "address",
          "name": "",
          "type": "address"
        }
      ],
      "stateMutability": "view",
      "type": "function"
    },
    {
      "inputs": [
        {
          "internalType": "bytes32",
          "name": "salt",
          "type": "bytes32"
        }
      ],
      "name": "predict",
      "outputs": [
        {
          "internalType": "address",
          "name": "",
          "type": "address"
        }
      ],
      "stateMutability": "view",
      "type": "function"
    }
  ],
  "transactionHash": "0x90cd79c1a6a0e974021c0c28933e506a4c91ca0270973ca0a67fb80cbb5f4067",
  "args": [
    "0x922D6956C99E12DFeB3224DEA977D0939758A1Fe"
  ],
  "solcInputHash": "7dd896e14e2ff4e94717018d963bd223",
  "bytecode": "0x608060405234801561001057600080fd5b506040516103c33803806103c383398101604081905261002f91610054565b600080546001600160a01b0319166001600160a01b0392909216919091179055610084565b60006020828403121561006657600080fd5b81516001600160a01b038116811461007d57600080fd5b9392505050565b610330806100936000396000f3fe608060405234801561001057600080fd5b50600436106100415760003560e01c80630e787cce1461004657806364293af314610075578063a3def92314610088575b600080fd5b6100596100543660046102e1565b61009b565b6040516001600160a01b03909116815260200160405180910390f35b600054610059906001600160a01b031681565b6100596100963660046102a9565b6100b8565b600080546100b2906001600160a01b031683610198565b92915050565b6000805481906100d1906001600160a01b031684610205565b60405163189acdbd60e31b81526001600160a01b0386811660048301529192509082169063c4d66de890602401600060405180830381600087803b15801561011857600080fd5b505af115801561012c573d6000803e3d6000fd5b5050604080516001600160a01b038516815260208101829052600e818301526d135d5b1d1a54da59d5d85b1b195d60921b606082015290517f5748f17320a7bfc4dad968e541c61b9fa9923765f9efdfa3dffc76763e02d1969350908190036080019150a19392505050565b60006101fe838330604051733d602d80600a3d3981f3363d3d373d3d3d363d7360601b8152606093841b60148201526f5af43d82803e903d91602b57fd5bf3ff60801b6028820152921b6038830152604c8201526037808220606c830152605591012090565b9392505050565b6000604051733d602d80600a3d3981f3363d3d373d3d3d363d7360601b81528360601b60148201526e5af43d82803e903d91602b57fd5bf360881b6028820152826037826000f59150506001600160a01b0381166100b25760405162461bcd60e51b815260206004820152601760248201527f455243313136373a2063726561746532206661696c6564000000000000000000604482015260640160405180910390fd5b600080604083850312156102bc57600080fd5b82356001600160a01b03811681146102d357600080fd5b946020939093013593505050565b6000602082840312156102f357600080fd5b503591905056fea2646970667358221220d04fb65c87580326621f15e0761da8c860bc741739f8aab437533991105e814264736f6c63430008070033",
  "devdoc": {
    "kind": "dev",
    "methods": {},
    "version": 1
  },
  "userdoc": {
    "kind": "user",
    "methods": {},
    "version": 1
  },
  "storageLayout": {
    "storage": [
      {
        "astId": 7094,
        "contract": "src/multisig/MultiSigCloneFactory.sol:MultiSigCloneFactory",
        "label": "multiSigImplementation",
        "offset": 0,
        "slot": "0",
        "type": "t_address"
      }
    ],
    "types": {
      "t_address": {
        "encoding": "inplace",
        "label": "address",
        "numberOfBytes": "20"
      }
    }
  }
}