{
  "address": "0x202CCe504e04bEd6fC0521238dDf04Bc9E8E15aB",
  "abi": [
    {
      "inputs": [
        {
          "internalType": "address",
          "name": "currency_",
          "type": "address"
        }
      ],
      "stateMutability": "nonpayable",
      "type": "constructor"
    },
    {
      "inputs": [],
      "name": "currency",
      "outputs": [
        {
          "internalType": "address",
          "name": "",
          "type": "address"
        }
      ],
      "stateMutability": "view",
      "type": "function"
    },
    {
      "inputs": [
        {
          "internalType": "uint256",
          "name": "amountOfXCHF",
          "type": "uint256"
        }
      ],
      "name": "getPriceInEther",
      "outputs": [
        {
          "internalType": "uint256",
          "name": "",
          "type": "uint256"
        }
      ],
      "stateMutability": "nonpayable",
      "type": "function"
    },
    {
      "inputs": [
        {
          "internalType": "address",
          "name": "token",
          "type": "address"
        },
        {
          "internalType": "address[]",
          "name": "recipients",
          "type": "address[]"
        },
        {
          "internalType": "uint256[]",
          "name": "amounts",
          "type": "uint256[]"
        }
      ],
      "name": "multiPay",
      "outputs": [],
      "stateMutability": "nonpayable",
      "type": "function"
    },
    {
      "inputs": [
        {
          "internalType": "address[]",
          "name": "recipients",
          "type": "address[]"
        },
        {
          "internalType": "uint256[]",
          "name": "amounts",
          "type": "uint256[]"
        }
      ],
      "name": "multiPay",
      "outputs": [],
      "stateMutability": "nonpayable",
      "type": "function"
    },
    {
      "inputs": [
        {
          "internalType": "address",
          "name": "token",
          "type": "address"
        },
        {
          "internalType": "address[]",
          "name": "recipients",
          "type": "address[]"
        },
        {
          "internalType": "uint256[]",
          "name": "amounts",
          "type": "uint256[]"
        },
        {
          "internalType": "bytes",
          "name": "ref",
          "type": "bytes"
        }
      ],
      "name": "multiPayAndNotify",
      "outputs": [],
      "stateMutability": "nonpayable",
      "type": "function"
    },
    {
      "inputs": [
        {
          "internalType": "address",
          "name": "recipient",
          "type": "address"
        },
        {
          "internalType": "uint256",
          "name": "xchfamount",
          "type": "uint256"
        },
        {
          "internalType": "bytes",
          "name": "ref",
          "type": "bytes"
        }
      ],
      "name": "payAndNotify",
      "outputs": [],
      "stateMutability": "nonpayable",
      "type": "function"
    },
    {
      "inputs": [
        {
          "internalType": "address",
          "name": "token",
          "type": "address"
        },
        {
          "internalType": "address",
          "name": "recipient",
          "type": "address"
        },
        {
          "internalType": "uint256",
          "name": "amount",
          "type": "uint256"
        },
        {
          "internalType": "bytes",
          "name": "ref",
          "type": "bytes"
        }
      ],
      "name": "payAndNotify",
      "outputs": [],
      "stateMutability": "nonpayable",
      "type": "function"
    },
    {
      "inputs": [
        {
          "internalType": "address",
          "name": "recipient",
          "type": "address"
        },
        {
          "internalType": "uint256",
          "name": "xchfamount",
          "type": "uint256"
        }
      ],
      "name": "payFromEther",
      "outputs": [],
      "stateMutability": "payable",
      "type": "function"
    },
    {
      "inputs": [
        {
          "internalType": "address",
          "name": "recipient",
          "type": "address"
        },
        {
          "internalType": "uint256",
          "name": "xchfamount",
          "type": "uint256"
        },
        {
          "internalType": "bytes",
          "name": "ref",
          "type": "bytes"
        }
      ],
      "name": "payFromEtherAndNotify",
      "outputs": [],
      "stateMutability": "payable",
      "type": "function"
    },
    {
      "inputs": [
        {
          "internalType": "address",
          "name": "ercAddress",
          "type": "address"
        },
        {
          "internalType": "address",
          "name": "to",
          "type": "address"
        },
        {
          "internalType": "uint256",
          "name": "amount",
          "type": "uint256"
        }
      ],
      "name": "recover",
      "outputs": [],
      "stateMutability": "nonpayable",
      "type": "function"
    },
    {
      "inputs": [],
      "name": "weth",
      "outputs": [
        {
          "internalType": "address",
          "name": "",
          "type": "address"
        }
      ],
      "stateMutability": "view",
      "type": "function"
    },
    {
      "stateMutability": "payable",
      "type": "receive"
    }
  ],
  "transactionHash": "0xf603b19e8a1ab79ab2df98542121dd96736cbb7118a6cca1146b41f88a31729a",
  "args": [
    "0xB4272071eCAdd69d933AdcD19cA99fe80664fc08"
  ],
  "solcInputHash": "8269d1cb5c313d6303e9f45795048308",
  "bytecode": "0x60c060405234801561001057600080fd5b50604051610f09380380610f0983398101604081905261002f916100da565b6001600160601b0319606082901b1660a052604080516312a9293f60e21b8152905173b27308f9f90d607463bb33ea1bebb41c27ce5ab691634aa4a4fc916004808301926020929190829003018186803b15801561008c57600080fd5b505afa1580156100a0573d6000803e3d6000fd5b505050506040513d601f19601f820116820180604052508101906100c491906100da565b60601b6001600160601b0319166080525061010a565b6000602082840312156100ec57600080fd5b81516001600160a01b038116811461010357600080fd5b9392505050565b60805160601c60a05160601c610da36101666000396000818161022501528181610275015281816102e2015281816104fd0152818161056401526106530152600081816101330152818161053c015261062e0152610da36000f3fe6080604052600436106100a05760003560e01c8063568f325411610064578063568f3254146101725780639520bd4614610192578063ae539d80146101b2578063b5a1ad92146101e0578063d3b3ca77146101f3578063e5a6b10f1461021357600080fd5b8063040c037a146100ac57806317f565d2146100c15780631c9af2e3146100e15780631ec82cb8146101015780633fc8cef31461012157600080fd5b366100a757005b600080fd5b6100bf6100ba366004610bcc565b610247565b005b3480156100cd57600080fd5b506100bf6100dc366004610bcc565b6102dd565b3480156100ed57600080fd5b506100bf6100fc366004610a87565b610310565b34801561010d57600080fd5b506100bf61011c3660046109dc565b61040e565b34801561012d57600080fd5b506101557f000000000000000000000000000000000000000000000000000000000000000081565b6040516001600160a01b0390911681526020015b60405180910390f35b34801561017e57600080fd5b506100bf61018d366004610af7565b610490565b34801561019e57600080fd5b506100bf6101ad366004610c26565b6104f8565b3480156101be57600080fd5b506101d26101cd366004610ca8565b610525565b604051908152602001610169565b6100bf6101ee366004610ba2565b610619565b3480156101ff57600080fd5b506100bf61020e366004610a18565b61081a565b34801561021f57600080fd5b506101557f000000000000000000000000000000000000000000000000000000000000000081565b6102518484610619565b604051631afc0d9560e31b81526001600160a01b0385169063d7e06ca8906102a5907f0000000000000000000000000000000000000000000000000000000000000000903390889088908890600401610cda565b600060405180830381600087803b1580156102bf57600080fd5b505af11580156102d3573d6000803e3d6000fd5b5050505050505050565b61030a7f00000000000000000000000000000000000000000000000000000000000000008585858561081a565b50505050565b60005b8381101561040657856001600160a01b03166323b872dd3387878581811061033d5761033d610d57565b905060200201602081019061035291906109ba565b86868681811061036457610364610d57565b6040516001600160e01b031960e088901b1681526001600160a01b03958616600482015294909316602485015250602090910201356044820152606401602060405180830381600087803b1580156103bb57600080fd5b505af11580156103cf573d6000803e3d6000fd5b505050506040513d601f19601f820116820180604052508101906103f39190610c86565b50806103fe81610d2e565b915050610313565b505050505050565b60405163a9059cbb60e01b81526001600160a01b0383811660048301526024820183905284169063a9059cbb90604401602060405180830381600087803b15801561045857600080fd5b505af115801561046c573d6000803e3d6000fd5b505050506040513d601f19601f8201168201806040525081019061030a9190610c86565b60005b858110156102d3576104e6888888848181106104b1576104b1610d57565b90506020020160208101906104c691906109ba565b8787858181106104d8576104d8610d57565b90506020020135868661081a565b806104f081610d2e565b915050610493565b61030a7f000000000000000000000000000000000000000000000000000000000000000085858585610310565b6040516330d07f2160e01b81526001600160a01b037f0000000000000000000000000000000000000000000000000000000000000000811660048301527f0000000000000000000000000000000000000000000000000000000000000000166024820152610bb86044820152606481018290526000608482018190529073b27308f9f90d607463bb33ea1bebb41c27ce5ab6906330d07f219060a401602060405180830381600087803b1580156105db57600080fd5b505af11580156105ef573d6000803e3d6000fd5b505050506040513d601f19601f820116820180604052508101906106139190610cc1565b92915050565b60408051610100810182526001600160a01b037f0000000000000000000000000000000000000000000000000000000000000000811682527f0000000000000000000000000000000000000000000000000000000000000000811660208301908152610bb883850190815286831660608501908152426080860190815260a086018881523460c08801818152600060e08a018181529a51631b67c43360e31b81528a518a166004820152975189166024890152955162ffffff166044880152935187166064870152915160848601525160a4850152905160c4840152945190921660e48201529192909173e592427a0aece92de3edee1f18e0157c058615649163db3e219891610104016020604051808303818588803b15801561073c57600080fd5b505af1158015610750573d6000803e3d6000fd5b50505050506040513d601f19601f820116820180604052508101906107759190610cc1565b90503481101561030a5773e592427a0aece92de3edee1f18e0157c058615646001600160a01b03166312210e8a6040518163ffffffff1660e01b8152600401600060405180830381600087803b1580156107ce57600080fd5b505af11580156107e2573d6000803e3d6000fd5b50506040513392504780156108fc029250906000818181858888f19350505050158015610813573d6000803e3d6000fd5b5050505050565b6040516323b872dd60e01b81523360048201526001600160a01b038581166024830152604482018590528616906323b872dd90606401602060405180830381600087803b15801561086a57600080fd5b505af115801561087e573d6000803e3d6000fd5b505050506040513d601f19601f820116820180604052508101906108a29190610c86565b50604051631afc0d9560e31b81526001600160a01b0385169063d7e06ca8906108d79088903390889088908890600401610cda565b600060405180830381600087803b1580156108f157600080fd5b505af1158015610905573d6000803e3d6000fd5b505050505050505050565b80356001600160a01b038116811461092757600080fd5b919050565b60008083601f84011261093e57600080fd5b50813567ffffffffffffffff81111561095657600080fd5b6020830191508360208260051b850101111561097157600080fd5b9250929050565b60008083601f84011261098a57600080fd5b50813567ffffffffffffffff8111156109a257600080fd5b60208301915083602082850101111561097157600080fd5b6000602082840312156109cc57600080fd5b6109d582610910565b9392505050565b6000806000606084860312156109f157600080fd5b6109fa84610910565b9250610a0860208501610910565b9150604084013590509250925092565b600080600080600060808688031215610a3057600080fd5b610a3986610910565b9450610a4760208701610910565b935060408601359250606086013567ffffffffffffffff811115610a6a57600080fd5b610a7688828901610978565b969995985093965092949392505050565b600080600080600060608688031215610a9f57600080fd5b610aa886610910565b9450602086013567ffffffffffffffff80821115610ac557600080fd5b610ad189838a0161092c565b90965094506040880135915080821115610aea57600080fd5b50610a768882890161092c565b60008060008060008060006080888a031215610b1257600080fd5b610b1b88610910565b9650602088013567ffffffffffffffff80821115610b3857600080fd5b610b448b838c0161092c565b909850965060408a0135915080821115610b5d57600080fd5b610b698b838c0161092c565b909650945060608a0135915080821115610b8257600080fd5b50610b8f8a828b01610978565b989b979a50959850939692959293505050565b60008060408385031215610bb557600080fd5b610bbe83610910565b946020939093013593505050565b60008060008060608587031215610be257600080fd5b610beb85610910565b935060208501359250604085013567ffffffffffffffff811115610c0e57600080fd5b610c1a87828801610978565b95989497509550505050565b60008060008060408587031215610c3c57600080fd5b843567ffffffffffffffff80821115610c5457600080fd5b610c608883890161092c565b90965094506020870135915080821115610c7957600080fd5b50610c1a8782880161092c565b600060208284031215610c9857600080fd5b815180151581146109d557600080fd5b600060208284031215610cba57600080fd5b5035919050565b600060208284031215610cd357600080fd5b5051919050565b6001600160a01b038681168252851660208201526040810184905260806060820181905281018290526000828460a0840137600060a0848401015260a0601f19601f85011683010190509695505050505050565b6000600019821415610d5057634e487b7160e01b600052601160045260246000fd5b5060010190565b634e487b7160e01b600052603260045260246000fdfea2646970667358221220537ad1c6e68e4737467bdbae8d116eef01cfd29b1df1477da0310abc05dad99564736f6c63430008070033",
  "devdoc": {
    "kind": "dev",
    "methods": {},
    "version": 1
  },
  "userdoc": {
    "kind": "user",
    "methods": {
      "multiPayAndNotify(address,address[],uint256[],bytes)": {
        "notice": "Can (at least in theory) save some gas as the sender balance only is touched in one transaction."
      },
      "payFromEther(address,uint256)": {
        "notice": "Convenience method to swap ether into currency and pay a target address"
      },
      "recover(address,address,uint256)": {
        "notice": "In case tokens have been accidentally sent directly to this contract. Make sure to be fast as anyone can call this!"
      }
    },
    "notice": "A hub for payments. This allows tokens that do not support ERC 677 to enjoy similar functionality, namely interacting with a token-handling smart contract in one transaction, without having to set an allowance first. Instead, an allowance needs to be set only once, namely for this contract. Further, it supports automatic conversion from Ether to the payment currency through Uniswap.",
    "version": 1
  },
  "storageLayout": {
    "storage": [],
    "types": null
  }
}