{
  "_format": "hh3-artifact-1",
  "contractName": "SecondaryMarketFactory",
  "sourceName": "contracts/market/SecondaryMarketFactory.sol",
  "abi": [
    {
      "anonymous": false,
      "inputs": [
        {
          "indexed": true,
          "internalType": "address",
          "name": "owner",
          "type": "address"
        },
        {
          "indexed": false,
          "internalType": "address",
          "name": "market",
          "type": "address"
        }
      ],
      "name": "SecondaryMarketDeployed",
      "type": "event"
    },
    {
      "inputs": [],
      "name": "SALT",
      "outputs": [
        {
          "internalType": "bytes32",
          "name": "",
          "type": "bytes32"
        }
      ],
      "stateMutability": "view",
      "type": "function"
    },
    {
      "inputs": [
        {
          "internalType": "address",
          "name": "owner",
          "type": "address"
        },
        {
          "internalType": "address",
          "name": "currency",
          "type": "address"
        },
        {
          "internalType": "address",
          "name": "token",
          "type": "address"
        },
        {
          "internalType": "address",
          "name": "reactor",
          "type": "address"
        },
        {
          "internalType": "address",
          "name": "router",
          "type": "address"
        }
      ],
      "name": "deploy",
      "outputs": [
        {
          "internalType": "address",
          "name": "",
          "type": "address"
        }
      ],
      "stateMutability": "nonpayable",
      "type": "function"
    },
    {
      "inputs": [
        {
          "internalType": "address",
          "name": "owner",
          "type": "address"
        },
        {
          "internalType": "address",
          "name": "currency",
          "type": "address"
        },
        {
          "internalType": "address",
          "name": "token",
          "type": "address"
        },
        {
          "internalType": "address",
          "name": "reactor",
          "type": "address"
        },
        {
          "internalType": "address",
          "name": "router",
          "type": "address"
        }
      ],
      "name": "isDeployed",
      "outputs": [
        {
          "internalType": "bool",
          "name": "",
          "type": "bool"
        }
      ],
      "stateMutability": "view",
      "type": "function"
    },
    {
      "inputs": [
        {
          "internalType": "address",
          "name": "owner",
          "type": "address"
        },
        {
          "internalType": "address",
          "name": "currency",
          "type": "address"
        },
        {
          "internalType": "address",
          "name": "token",
          "type": "address"
        },
        {
          "internalType": "address",
          "name": "reactor",
          "type": "address"
        },
        {
          "internalType": "address",
          "name": "router",
          "type": "address"
        }
      ],
      "name": "predict",
      "outputs": [
        {
          "internalType": "address",
          "name": "predicted",
          "type": "address"
        }
      ],
      "stateMutability": "view",
      "type": "function"
    }
  ],
  "bytecode": "0x6080604052348015600e575f5ffd5b506123488061001c5f395ff3fe608060405234801561000f575f5ffd5b506004361061004a575f3560e01c80635210e9f41461004e5780639937a67814610076578063ba9a91a5146100a1578063ca560804146100ba575b5f5ffd5b61006161005c3660046102d4565b6100cd565b60405190151581526020015b60405180910390f35b6100896100843660046102d4565b61014f565b6040516001600160a01b03909116815260200161006d565b6100ac630135018c81565b60405190815260200161006d565b6100896100c83660046102d4565b6101e3565b604051633295820160e21b81525f908190309063ca560804906100fc908a908a908a908a908a90600401610341565b602060405180830381865afa158015610117573d5f5f3e3d5ffd5b505050506040513d601f19601f8201168201806040525081019061013b9190610373565b3b63ffffffff161515979650505050505050565b5f5f630135018c5f1b8787878787604051610169906102b0565b610177959493929190610341565b8190604051809103905ff5905080158015610194573d5f5f3e3d5ffd5b506040516001600160a01b038083168252919250908816907f6cba2a2456f41ad8697b089875a2d16853063eac33978d17c59836725bccd6349060200160405180910390a29695505050505050565b5f5f604051806020016101f5906102b0565b601f1982820381018352601f9091011660408190526102209089908990899089908990602001610341565b60408051601f198184030181529082905261023e92916020016103ac565b60408051808303601f1901815282825280516020918201206001600160f81b0319828501523060601b6bffffffffffffffffffffffff19166021850152630135018c60358501526055808501919091528251808503909101815260759093019091528151910120979650505050505050565b611f4a806103c983390190565b6001600160a01b03811681146102d1575f5ffd5b50565b5f5f5f5f5f60a086880312156102e8575f5ffd5b85356102f3816102bd565b94506020860135610303816102bd565b93506040860135610313816102bd565b92506060860135610323816102bd565b91506080860135610333816102bd565b809150509295509295909350565b6001600160a01b0395861681529385166020850152918416604084015283166060830152909116608082015260a00190565b5f60208284031215610383575f5ffd5b815161038e816102bd565b9392505050565b5f81518060208401855e5f93019283525090919050565b5f6103c06103ba8386610395565b84610395565b94935050505056fe60e060405234801561000f575f5ffd5b50604051611f4a380380611f4a83398101604081905261002e916100e7565b5f80546001600160a01b0319166001600160a01b03871690811782556040518792907f8be0079c531659141344cd1fd0a4f28419497f9722a3daafe3b4186f6b6457e0908290a3506001600160a01b0393841660805291831660a052821660c0526001805464ff0000ffff60b01b1992909316600165ffff0000000160a01b03199093169290921761027160c31b1716600160d01b17905550610148565b80516001600160a01b03811681146100e2575f5ffd5b919050565b5f5f5f5f5f60a086880312156100fb575f5ffd5b610104866100cc565b9450610112602087016100cc565b9350610120604087016100cc565b925061012e606087016100cc565b915061013c608087016100cc565b90509295509295909350565b60805160a05160c051611d5a6101f05f395f81816103720152818161074e01528181610804015281816108a6015281816109c501528181610c0801528181610d0d01528181610dca01526112ab01525f81816102f2015281816104da015281816105bb0152818161083e015281816110e9015261120901525f818161040d015281816105250152818161057001528181610aad0152818161112701526111cb0152611d5a5ff3fe608060405234801561000f575f5ffd5b50600436106101bb575f3560e01c80638da5cb5b116100f3578063dbc5864c11610093578063f2fde38b1161006e578063f2fde38b146103f5578063f536121914610408578063f887ea401461042f578063fcfff16f14610442575f5ffd5b8063dbc5864c146103b4578063eec4c997146103c7578063f22c1f72146103da575f5ffd5b8063ad3b1b47116100ce578063ad3b1b471461034c578063ae71dcdf1461035f578063b96035701461036d578063bb246f2114610394575f5ffd5b80638da5cb5b14610314578063958fc2c814610326578063a89ecc2014610339575f5ffd5b8063476343ee1161015e57806360b778f51161013957806360b778f5146102b057806367dcc74e146102c3578063716af222146102d857806382bfefc8146102ed575f5ffd5b8063476343ee14610282578063524f59c51461028a5780635d84fbff1461029d575f5ffd5b80632893c86a116101995780632893c86a14610225578063435f0d411461024d57806343d726d61461025657806347535d7b1461025e575f5ffd5b80631c1b629d146101bf5780631e8e1a32146101d45780631ed2db0a14610204575b5f5ffd5b6101d26101cd366004611598565b61044a565b005b6101e76101e2366004611627565b6104c4565b6040516001600160a01b0390911681526020015b60405180910390f35b610217610212366004611690565b6109ac565b6040519081526020016101fb565b60015461023a90600160c01b900461ffff1681565b60405161ffff90911681526020016101fb565b61023a61271081565b6101d2610a44565b60015461027290600160d01b900460ff1681565b60405190151581526020016101fb565b6101d2610a94565b6102176102983660046116f5565b610b22565b6101d26102ab36600461172f565b610b2c565b6101d26102be36600461172f565b610b95565b60015461023a90600160b01b900461ffff1681565b60015461023a90600160a01b900461ffff1681565b6101e77f000000000000000000000000000000000000000000000000000000000000000081565b5f546101e7906001600160a01b031681565b6101d2610334366004611627565b610be6565b6101d2610347366004611748565b610c73565b6101d261035a366004611814565b610f11565b6101e76001600160a01b0381565b6101e77f000000000000000000000000000000000000000000000000000000000000000081565b6103a76103a236600461183e565b6110b5565b6040516101fb91906118cc565b6103a76103c236600461183e565b611197565b6101d26103d5366004611627565b61125c565b6101e77329fe8914e76da5ce2d90de98a64d0055f199d06d81565b6101d2610403366004611986565b61130c565b6101e77f000000000000000000000000000000000000000000000000000000000000000081565b6001546101e7906001600160a01b031681565b6101d261136d565b6104526113bd565b6001546127109061047290600160c01b900461ffff9081169084166119bc565b11156104915760405163c52a9bd360e01b815260040160405180910390fd5b6001805461ffff909216600160b01b02600163ffff000160a01b03199092166001600160a01b0390931692909217179055565b5f6104d084848461125c565b6001600160a01b037f00000000000000000000000000000000000000000000000000000000000000001661050a6060860160408701611986565b6001600160a01b031614801561056057506001600160a01b037f00000000000000000000000000000000000000000000000000000000000000001661055560a0860160808701611986565b6001600160a01b0316145b806105f657506001600160a01b037f0000000000000000000000000000000000000000000000000000000000000000166105a06060860160408701611986565b6001600160a01b03161480156105f657506001600160a01b037f0000000000000000000000000000000000000000000000000000000000000000166105eb60a0860160808701611986565b6001600160a01b0316145b61061357604051631d37a6fd60e11b815260040160405180910390fd5b5f6106246060860160408701611986565b6001600160a01b03166370a0823161063f6020880188611986565b6040516001600160e01b031960e084901b1681526001600160a01b039091166004820152602401602060405180830381865afa158015610681573d5f5f3e3d5ffd5b505050506040513d601f19601f820116820180604052508101906106a591906119cf565b9050805f036106fc576106be6060860160408701611986565b6106cb6020870187611986565b60405163a53bbcb360e01b81526001600160a01b039283166004820152911660248201526044015b60405180910390fd5b5f61070d6060870160408801611986565b6001600160a01b031663dd62ed3e6107286020890189611986565b60405160e083901b6001600160e01b03191681526001600160a01b0391821660048201527f00000000000000000000000000000000000000000000000000000000000000009091166024820152604401602060405180830381865afa158015610793573d5f5f3e3d5ffd5b505050506040513d601f19601f820116820180604052508101906107b791906119cf565b9050805f03610833576107d06060870160408801611986565b6107dd6020880188611986565b6040516338e84f1d60e11b81526001600160a01b03928316600482015290821660248201527f000000000000000000000000000000000000000000000000000000000000000090911660448201526064016106f3565b5f6001600160a01b037f00000000000000000000000000000000000000000000000000000000000000001661086e6060890160408a01611986565b6001600160a01b0316146108915761088c60c0880160a08901611986565b6108a1565b6108a16080880160608901611986565b90505f7f00000000000000000000000000000000000000000000000000000000000000006001600160a01b03166351e1d625896040518263ffffffff1660e01b81526004016108f09190611b30565b602060405180830381865afa15801561090b573d5f5f3e3d5ffd5b505050506040513d601f19601f8201168201806040525081019061092f9190611b42565b90506002600160a01b03196001600160a01b038216016109625760405163dabe493f60e01b815260040160405180910390fd5b806001600160a01b0316826001600160a01b031611610994576040516341a26a6360e01b815260040160405180910390fd5b5f61099f8284611b5d565b9998505050505050505050565b604051634770dcc960e01b81525f906001600160a01b037f00000000000000000000000000000000000000000000000000000000000000001690634770dcc9906109fc9086908690600401611b7c565b602060405180830381865afa158015610a17573d5f5f3e3d5ffd5b505050506040513d601f19601f82011682018060405250810190610a3b91906119cf565b90505b92915050565b610a4c6113bd565b6001805460ff60d01b19169055604080515f81524260208201527fb89f558b3a2238cd6e750c4d3e29359faf8999130df57275857b0f526c34a42091015b60405180910390a1565b6040516370a0823160e01b8152306004820152610b20907f0000000000000000000000000000000000000000000000000000000000000000906001600160a01b038216906370a0823190602401602060405180830381865afa158015610afc573d5f5f3e3d5ffd5b505050506040513d601f19601f8201168201806040525081019061035a91906119cf565b565b5f610a3e826113e9565b610b346113bd565b60015461271090610b5490600160b01b900461ffff9081169084166119bc565b1115610b735760405163c52a9bd360e01b815260040160405180910390fd5b6001805461ffff909216600160c01b0261ffff60c01b19909216919091179055565b610b9d6113bd565b6101f48161ffff161115610bc45760405163c52a9bd360e01b815260040160405180910390fd5b6001805461ffff909216600160a01b0261ffff60a01b19909216919091179055565b610bf183838361125c565b604051634c49a8c160e01b81526001600160a01b037f00000000000000000000000000000000000000000000000000000000000000001690634c49a8c190610c4190869086908690600401611ba0565b5f604051808303815f87803b158015610c58575f5ffd5b505af1158015610c6a573d5f5f3e3d5ffd5b50505050505050565b600154600160d01b900460ff16610c9c5760405162b5f6bf60e41b815260040160405180910390fd5b6001546001600160a01b031615801590610cc157506001546001600160a01b03163314155b15610cf457600154604051631f7dfcfb60e01b81523360048201526001600160a01b0390911660248201526044016106f3565b604051633292b9f360e21b81525f906001600160a01b037f0000000000000000000000000000000000000000000000000000000000000000169063ca4ae7cc90610d469088908c908790600401611bcf565b602060405180830381865afa158015610d61573d5f5f3e3d5ffd5b505050506040513d601f19601f82011682018060405250810190610d8591906119cf565b6001549091505f9061271090610da690600160a01b900461ffff1684611c04565b610db09190611c1b565b6040516347b2256560e11b81529091506001600160a01b037f00000000000000000000000000000000000000000000000000000000000000001690638f644aca90610e0d908c908c908c908c908c908c908c908b90600401611c3a565b5f604051808303815f87803b158015610e24575f5ffd5b505af1158015610e36573d5f5f3e3d5ffd5b50610e48925050506020870187611986565b6001600160a01b0316610e5e60208b018b611986565b6001600160a01b03167f5cacf0ac1f39b8df3d2e2bf11715db21af48833caa8819eaf4277e6b2e1b54d4610e918c6113e9565b610e9a8a6113e9565b8d6040016020810190610ead9190611986565b888f6080016020810190610ec19190611986565b6040805195865260208601949094526001600160a01b0392831693850193909352606084015216608082015260a0810186905260c0810185905260e00160405180910390a3505050505050505050565b610f196113bd565b6001545f9061271090610f3790600160c01b900461ffff1684611c04565b610f419190611c1b565b5f549091506001600160a01b038085169163a9059cbb9116610f638486611ca0565b6040516001600160e01b031960e085901b1681526001600160a01b03909216600483015260248201526044016020604051808303815f875af1158015610fab573d5f5f3e3d5ffd5b505050506040513d601f19601f82011682018060405250810190610fcf9190611cb3565b5060405163a9059cbb60e01b81527329fe8914e76da5ce2d90de98a64d0055f199d06d6004820152602481018290526001600160a01b0384169063a9059cbb906044016020604051808303815f875af115801561102e573d5f5f3e3d5ffd5b505050506040513d601f19601f820116820180604052508101906110529190611cb3565b50604080516001600160a01b03851681527329fe8914e76da5ce2d90de98a64d0055f199d06d60208201529081018290527f7ed2a187ded43c3b5cac8cdea91ca4f539f41b0876fa4da818d8751153fcc1829060600160405180910390a1505050565b6110bd611513565b604051806101200160405280866001600160a01b03168152602001306001600160a01b031681526020017f00000000000000000000000000000000000000000000000000000000000000006001600160a01b03168152602001856001600160a01b031681526020017f00000000000000000000000000000000000000000000000000000000000000006001600160a01b03168152602001846001600160a01b031681526020014281526020018362ffffff164261117a91906119bc565b8152604080515f8152602080820190925291015295945050505050565b61119f611513565b604051806101200160405280866001600160a01b03168152602001306001600160a01b031681526020017f00000000000000000000000000000000000000000000000000000000000000006001600160a01b03168152602001856001600160a01b031681526020017f00000000000000000000000000000000000000000000000000000000000000006001600160a01b03168152602001846001600160a01b031681526020014281526020018362ffffff164261117a91906119bc565b3061126d6040850160208601611986565b6001600160a01b0316146112945760405163a0c7abcf60e01b815260040160405180910390fd5b604051631a63a8f960e01b81526001600160a01b037f00000000000000000000000000000000000000000000000000000000000000001690631a63a8f9906112e490869086908690600401611ba0565b5f6040518083038186803b1580156112fa575f5ffd5b505afa158015610c6a573d5f5f3e3d5ffd5b6113146113bd565b5f80546040516001600160a01b03808516939216917f8be0079c531659141344cd1fd0a4f28419497f9722a3daafe3b4186f6b6457e091a35f80546001600160a01b0319166001600160a01b0392909216919091179055565b6113756113bd565b6001805460ff60d01b1916600160d01b178155604080519182524260208301527fb89f558b3a2238cd6e750c4d3e29359faf8999130df57275857b0f526c34a4209101610a8a565b5f546001600160a01b03163314610b20576040516396a19be960e01b81523360048201526024016106f3565b5f7fb740f08c85178ce782948a1dd2f455abd2b48cdb282ff08174896a9ab1ac93996114186020840184611986565b6114286040850160208601611986565b6114386060860160408701611986565b6114486080870160608801611986565b61145860a0880160808901611986565b61146860c0890160a08a01611986565b60c089013560e08a01356114806101008c018c611cd2565b60405161148e929190611d15565b60408051918290038220602083019b909b526001600160a01b03998a16908201529688166060880152948716608087015292861660a086015290851660c085015290931660e083015261010082019290925261012081019190915261014081019190915261016001604051602081830303815290604052805190602001209050919050565b60408051610120810182525f8082526020820181905291810182905260608082018390526080820183905260a0820183905260c0820183905260e082019290925261010081019190915290565b6001600160a01b0381168114611574575f5ffd5b50565b803561158281611560565b919050565b803561ffff81168114611582575f5ffd5b5f5f604083850312156115a9575f5ffd5b82356115b481611560565b91506115c260208401611587565b90509250929050565b5f61012082840312156115dc575f5ffd5b50919050565b5f5f83601f8401126115f2575f5ffd5b50813567ffffffffffffffff811115611609575f5ffd5b602083019150836020828501011115611620575f5ffd5b9250929050565b5f5f5f60408486031215611639575f5ffd5b833567ffffffffffffffff81111561164f575f5ffd5b61165b868287016115cb565b935050602084013567ffffffffffffffff811115611677575f5ffd5b611683868287016115e2565b9497909650939450505050565b5f5f604083850312156116a1575f5ffd5b823567ffffffffffffffff8111156116b7575f5ffd5b6116c3858286016115cb565b925050602083013567ffffffffffffffff8111156116df575f5ffd5b6116eb858286016115cb565b9150509250929050565b5f60208284031215611705575f5ffd5b813567ffffffffffffffff81111561171b575f5ffd5b611727848285016115cb565b949350505050565b5f6020828403121561173f575f5ffd5b610a3b82611587565b5f5f5f5f5f5f5f60a0888a03121561175e575f5ffd5b873567ffffffffffffffff811115611774575f5ffd5b6117808a828b016115cb565b975050602088013567ffffffffffffffff81111561179c575f5ffd5b6117a88a828b016115e2565b909750955050604088013567ffffffffffffffff8111156117c7575f5ffd5b6117d38a828b016115cb565b945050606088013567ffffffffffffffff8111156117ef575f5ffd5b6117fb8a828b016115e2565b989b979a50959894979596608090950135949350505050565b5f5f60408385031215611825575f5ffd5b823561183081611560565b946020939093013593505050565b5f5f5f5f60808587031215611851575f5ffd5b843561185c81611560565b9350602085013561186c81611560565b9250604085013561187c81611560565b9150606085013562ffffff81168114611893575f5ffd5b939692955090935050565b5f81518084528060208401602086015e5f602082860101526020601f19601f83011685010191505092915050565b602081526118e66020820183516001600160a01b03169052565b5f602083015161190160408401826001600160a01b03169052565b5060408301516001600160a01b03811660608401525060608301516001600160a01b03811660808401525060808301516001600160a01b03811660a08401525060a08301516001600160a01b03811660c08401525060c083015160e083015260e08301516101008301526101008301516101208084015261172761014084018261189e565b5f60208284031215611996575f5ffd5b81356119a181611560565b9392505050565b634e487b7160e01b5f52601160045260245ffd5b80820180821115610a3e57610a3e6119a8565b5f602082840312156119df575f5ffd5b5051919050565b5f5f8335601e198436030181126119fb575f5ffd5b830160208101925035905067ffffffffffffffff811115611a1a575f5ffd5b803603821315611620575f5ffd5b81835281816020850137505f828201602090810191909152601f909101601f19169091010190565b611a6a82611a5d83611577565b6001600160a01b03169052565b5f611a7760208301611577565b6001600160a01b03166020840152611a9160408301611577565b6001600160a01b03166040840152611aab60608301611577565b6001600160a01b03166060840152611ac560808301611577565b6001600160a01b03166080840152611adf60a08301611577565b6001600160a01b031660a084015260c0828101359084015260e08083013590840152611b0f6101008301836119e6565b610120610100860152611b2761012086018284611a28565b95945050505050565b602081525f610a3b6020830184611a50565b5f60208284031215611b52575f5ffd5b81516119a181611560565b6001600160a01b038281168282160390811115610a3e57610a3e6119a8565b604081525f611b8e6040830185611a50565b8281036020840152611b278185611a50565b604081525f611bb26040830186611a50565b8281036020840152611bc5818587611a28565b9695505050505050565b606081525f611be16060830186611a50565b8281036020840152611bf38186611a50565b915050826040830152949350505050565b8082028115828204841417610a3e57610a3e6119a8565b5f82611c3557634e487b7160e01b5f52601260045260245ffd5b500490565b60c081525f611c4c60c083018b611a50565b8281036020840152611c5f818a8c611a28565b90508281036040840152611c738189611a50565b90508281036060840152611c88818789611a28565b6080840195909552505060a001529695505050505050565b81810381811115610a3e57610a3e6119a8565b5f60208284031215611cc3575f5ffd5b815180151581146119a1575f5ffd5b5f5f8335601e19843603018112611ce7575f5ffd5b83018035915067ffffffffffffffff821115611d01575f5ffd5b602001915036819003821315611620575f5ffd5b818382375f910190815291905056fea2646970667358221220a67e0683209d24e12de1e2d4cf325a6a743df312788b5629992edbaa65e3d9a364736f6c634300081e0033a26469706673582212201c0f52f06478b23fcc80251f3774553cb10f4985c38190dba9c502d9e32398c164736f6c634300081e0033",
  "linkReferences": {},
  "deployedLinkReferences": {},
  "immutableReferences": {},
  "inputSourceName": "project/contracts/market/SecondaryMarketFactory.sol",
  "buildInfoId": "solc-0_8_30-464736fa1b503550cd25f395478e990eb509f881"
}