{
    "contractName": "Offer",
    "abi": [
        {
            "inputs": [
                {
                    "internalType": "address",
                    "name": "buyer_",
                    "type": "address"
                },
                {
                    "internalType": "address",
                    "name": "token_",
                    "type": "address"
                },
                {
                    "internalType": "uint256",
                    "name": "price_",
                    "type": "uint256"
                },
                {
                    "internalType": "address",
                    "name": "currency_",
                    "type": "address"
                },
                {
                    "internalType": "uint256",
                    "name": "quorum_",
                    "type": "uint256"
                },
                {
                    "internalType": "uint256",
                    "name": "votePeriod",
                    "type": "uint256"
                }
            ],
            "stateMutability": "payable",
            "type": "constructor"
        },
        {
            "anonymous": false,
            "inputs": [
                {
                    "indexed": true,
                    "internalType": "address",
                    "name": "buyer",
                    "type": "address"
                },
                {
                    "indexed": false,
                    "internalType": "address",
                    "name": "token",
                    "type": "address"
                },
                {
                    "indexed": false,
                    "internalType": "uint256",
                    "name": "pricePerShare",
                    "type": "uint256"
                },
                {
                    "indexed": false,
                    "internalType": "address",
                    "name": "currency",
                    "type": "address"
                }
            ],
            "name": "OfferCreated",
            "type": "event"
        },
        {
            "anonymous": false,
            "inputs": [
                {
                    "indexed": true,
                    "internalType": "address",
                    "name": "buyer",
                    "type": "address"
                },
                {
                    "indexed": false,
                    "internalType": "bool",
                    "name": "success",
                    "type": "bool"
                },
                {
                    "indexed": false,
                    "internalType": "string",
                    "name": "message",
                    "type": "string"
                }
            ],
            "name": "OfferEnded",
            "type": "event"
        },
        {
            "anonymous": false,
            "inputs": [
                {
                    "indexed": false,
                    "internalType": "uint256",
                    "name": "newYesVotes",
                    "type": "uint256"
                },
                {
                    "indexed": false,
                    "internalType": "uint256",
                    "name": "newNoVotes",
                    "type": "uint256"
                }
            ],
            "name": "VotesChanged",
            "type": "event"
        },
        {
            "inputs": [],
            "name": "buyer",
            "outputs": [
                {
                    "internalType": "address",
                    "name": "",
                    "type": "address"
                }
            ],
            "stateMutability": "view",
            "type": "function"
        },
        {
            "inputs": [],
            "name": "cancel",
            "outputs": [],
            "stateMutability": "nonpayable",
            "type": "function"
        },
        {
            "inputs": [
                {
                    "internalType": "address",
                    "name": "betterOffer",
                    "type": "address"
                }
            ],
            "name": "contest",
            "outputs": [],
            "stateMutability": "nonpayable",
            "type": "function"
        },
        {
            "inputs": [],
            "name": "contest",
            "outputs": [],
            "stateMutability": "nonpayable",
            "type": "function"
        },
        {
            "inputs": [],
            "name": "currency",
            "outputs": [
                {
                    "internalType": "contract IERC20",
                    "name": "",
                    "type": "address"
                }
            ],
            "stateMutability": "view",
            "type": "function"
        },
        {
            "inputs": [],
            "name": "execute",
            "outputs": [],
            "stateMutability": "nonpayable",
            "type": "function"
        },
        {
            "inputs": [
                {
                    "internalType": "address",
                    "name": "voter",
                    "type": "address"
                }
            ],
            "name": "hasVotedNo",
            "outputs": [
                {
                    "internalType": "bool",
                    "name": "",
                    "type": "bool"
                }
            ],
            "stateMutability": "view",
            "type": "function"
        },
        {
            "inputs": [
                {
                    "internalType": "address",
                    "name": "voter",
                    "type": "address"
                }
            ],
            "name": "hasVotedYes",
            "outputs": [
                {
                    "internalType": "bool",
                    "name": "",
                    "type": "bool"
                }
            ],
            "stateMutability": "view",
            "type": "function"
        },
        {
            "inputs": [],
            "name": "isAccepted",
            "outputs": [
                {
                    "internalType": "bool",
                    "name": "",
                    "type": "bool"
                }
            ],
            "stateMutability": "view",
            "type": "function"
        },
        {
            "inputs": [],
            "name": "isDeclined",
            "outputs": [
                {
                    "internalType": "bool",
                    "name": "",
                    "type": "bool"
                }
            ],
            "stateMutability": "view",
            "type": "function"
        },
        {
            "inputs": [],
            "name": "isVotingOpen",
            "outputs": [
                {
                    "internalType": "bool",
                    "name": "",
                    "type": "bool"
                }
            ],
            "stateMutability": "view",
            "type": "function"
        },
        {
            "inputs": [],
            "name": "isWellFunded",
            "outputs": [
                {
                    "internalType": "bool",
                    "name": "",
                    "type": "bool"
                }
            ],
            "stateMutability": "view",
            "type": "function"
        },
        {
            "inputs": [],
            "name": "noExternal",
            "outputs": [
                {
                    "internalType": "uint256",
                    "name": "",
                    "type": "uint256"
                }
            ],
            "stateMutability": "view",
            "type": "function"
        },
        {
            "inputs": [],
            "name": "noVotes",
            "outputs": [
                {
                    "internalType": "uint256",
                    "name": "",
                    "type": "uint256"
                }
            ],
            "stateMutability": "view",
            "type": "function"
        },
        {
            "inputs": [
                {
                    "internalType": "address",
                    "name": "from",
                    "type": "address"
                },
                {
                    "internalType": "address",
                    "name": "to",
                    "type": "address"
                },
                {
                    "internalType": "uint256",
                    "name": "value",
                    "type": "uint256"
                }
            ],
            "name": "notifyMoved",
            "outputs": [],
            "stateMutability": "nonpayable",
            "type": "function"
        },
        {
            "inputs": [],
            "name": "price",
            "outputs": [
                {
                    "internalType": "uint256",
                    "name": "",
                    "type": "uint256"
                }
            ],
            "stateMutability": "view",
            "type": "function"
        },
        {
            "inputs": [],
            "name": "quorum",
            "outputs": [
                {
                    "internalType": "uint256",
                    "name": "",
                    "type": "uint256"
                }
            ],
            "stateMutability": "view",
            "type": "function"
        },
        {
            "inputs": [
                {
                    "internalType": "uint256",
                    "name": "yes",
                    "type": "uint256"
                },
                {
                    "internalType": "uint256",
                    "name": "no",
                    "type": "uint256"
                }
            ],
            "name": "reportExternalVotes",
            "outputs": [],
            "stateMutability": "nonpayable",
            "type": "function"
        },
        {
            "inputs": [],
            "name": "token",
            "outputs": [
                {
                    "internalType": "contract IDraggable",
                    "name": "",
                    "type": "address"
                }
            ],
            "stateMutability": "view",
            "type": "function"
        },
        {
            "inputs": [],
            "name": "voteEnd",
            "outputs": [
                {
                    "internalType": "uint256",
                    "name": "",
                    "type": "uint256"
                }
            ],
            "stateMutability": "view",
            "type": "function"
        },
        {
            "inputs": [],
            "name": "voteNo",
            "outputs": [],
            "stateMutability": "nonpayable",
            "type": "function"
        },
        {
            "inputs": [],
            "name": "voteYes",
            "outputs": [],
            "stateMutability": "nonpayable",
            "type": "function"
        },
        {
            "inputs": [],
            "name": "yesExternal",
            "outputs": [
                {
                    "internalType": "uint256",
                    "name": "",
                    "type": "uint256"
                }
            ],
            "stateMutability": "view",
            "type": "function"
        },
        {
            "inputs": [],
            "name": "yesVotes",
            "outputs": [
                {
                    "internalType": "uint256",
                    "name": "",
                    "type": "uint256"
                }
            ],
            "stateMutability": "view",
            "type": "function"
        }
    ],
    "bytecode": "6101006040526040516200194738038062001947833981016040819052620000279162000124565b6001600160a01b0380871660c05285811660a052831660e052600084905560808290526200005681426200018a565b6006556040517329fe8914e76da5ce2d90de98a64d0055f199d06d906000906729a2241af62c00009082818181858883f193505050501580156200009e573d6000803e3d6000fd5b5060c05160a05160005460e051604080516001600160a01b0394851681526020810193909352908316908201529116907f4f05be72ad7f57c27e555ace8452f56d8b1e82c9e6e1cd4fd282f34518b7729a9060600160405180910390a2505050505050620001b1565b80516001600160a01b03811681146200011f57600080fd5b919050565b60008060008060008060c087890312156200013e57600080fd5b620001498762000107565b9550620001596020880162000107565b945060408701519350620001706060880162000107565b92506080870151915060a087015190509295509295509295565b60008219821115620001ac57634e487b7160e01b600052601160045260246000fd5b500190565b60805160a05160c05160e051611698620002af600039600081816102b1015281816103cc015281816105a301528181610668015281816108ff01526109c50152600081816102060152818161057601528181610634015281816108a50152818161099d01528181610f970152818161105e015281816110c101526111060152600081816102f40152818161032101528181610762015281816108cd015281816109ed01528181610aa001528181610bcc01528181610cac01528181610d3d01528181610e7101528181610feb0152818161112e01526112d3015260008181610193015281816107f701528181610b370152610b9101526116986000f3fe608060405234801561001057600080fd5b50600436106101585760003560e01c80639b4e88aa116100c3578063e3ac83da1161007c578063e3ac83da146102a4578063e5a6b10f146102ac578063ea8a1af0146102d3578063fa7f1bae146102db578063fb286c65146102e6578063fc0c546a146102ef57600080fd5b80639b4e88aa1461025b578063a035b1fe14610263578063b5b47f421461026c578063bd3bc1d314610275578063ddbe8f0914610288578063e1a1810f1461029157600080fd5b8063448ab4c611610115578063448ab4c6146101de5780635051a5ec146101f157806361461954146101f95780637150d8ae146102015780638f1b4c6f1461024057806390cf581c1461025357600080fd5b806306a169ed1461015d57806311a439a0146101725780631703a0181461018e578063354e5629146101b55780633f5e3e7f146101be57806341c12a70146101d6575b600080fd5b61017061016b3660046114aa565b610316565b005b61017b60055481565b6040519081526020015b60405180910390f35b61017b7f000000000000000000000000000000000000000000000000000000000000000081565b61017b60045481565b6101c661055f565b6040519015158152602001610185565b610170610708565b6101c66101ec3660046114aa565b610714565b6101c661074d565b610170610841565b6102287f000000000000000000000000000000000000000000000000000000000000000081565b6040516001600160a01b039091168152602001610185565b6101c661024e3660046114aa565b610a76565b610170610a7f565b6101c6610a89565b61017b60005481565b61017b60035481565b6101706102833660046114ce565b610bca565b61017b60065481565b61017061029f3660046114f0565b610e66565b610170610ee1565b6102287f000000000000000000000000000000000000000000000000000000000000000081565b610170610f8c565b6006544211156101c6565b61017b60025481565b6102287f000000000000000000000000000000000000000000000000000000000000000081565b336001600160a01b037f0000000000000000000000000000000000000000000000000000000000000000161461034b57600080fd5b6000819050806001600160a01b031663e5a6b10f6040518163ffffffff1660e01b815260040160206040518083038186803b15801561038957600080fd5b505afa15801561039d573d6000803e3d6000fd5b505050506040513d601f19601f820116820180604052508101906103c19190611531565b6001600160a01b03167f00000000000000000000000000000000000000000000000000000000000000006001600160a01b03161480156104725750600054816001600160a01b031663a035b1fe6040518163ffffffff1660e01b815260040160206040518083038186803b15801561043857600080fd5b505afa15801561044c573d6000803e3d6000fd5b505050506040513d601f19601f82011682018060405250810190610470919061154e565b115b6104b65760405162461bcd60e51b815260206004820152601060248201526f37b6321037b33332b9103132ba3a32b960811b60448201526064015b60405180910390fd5b806001600160a01b0316633f5e3e7f6040518163ffffffff1660e01b815260040160206040518083038186803b1580156104ef57600080fd5b505afa158015610503573d6000803e3d6000fd5b505050506040513d601f19601f820116820180604052508101906105279190611567565b61053057600080fd5b61055b6000604051806040016040528060088152602001671c995c1b1858d95960c21b815250610fe9565b5050565b6040516370a0823160e01b81526001600160a01b037f00000000000000000000000000000000000000000000000000000000000000008116600483015260009182917f000000000000000000000000000000000000000000000000000000000000000016906370a082319060240160206040518083038186803b1580156105e557600080fd5b505afa1580156105f9573d6000803e3d6000fd5b505050506040513d601f19601f8201168201806040525081019061061d919061154e565b604051636eb1769f60e11b81526001600160a01b037f0000000000000000000000000000000000000000000000000000000000000000811660048301523060248301529192506000917f0000000000000000000000000000000000000000000000000000000000000000169063dd62ed3e9060440160206040518083038186803b1580156106aa57600080fd5b505afa1580156106be573d6000803e3d6000fd5b505050506040513d601f19601f820116820180604052508101906106e2919061154e565b905060006106ee6110eb565b90508281111580156107005750818111155b935050505090565b6107126002611237565b565b600060015b6001600160a01b03831660009081526001602052604090205460ff16600281111561074657610746611589565b1492915050565b600061075b60065442111590565b15610831577f00000000000000000000000000000000000000000000000000000000000000006001600160a01b0316630a81b2de6040518163ffffffff1660e01b815260040160206040518083038186803b1580156107b957600080fd5b505afa1580156107cd573d6000803e3d6000fd5b505050506040513d601f19601f820116820180604052508101906107f1919061154e565b61081b907f00000000000000000000000000000000000000000000000000000000000000006115b5565b60025461082a906127106115b5565b1015905090565b6003546002546107f191906115d4565b61084961074d565b6108845760405162461bcd60e51b815260206004820152600c60248201526b1b9bdd081858d8d95c1d195960a21b60448201526064016104ad565b600061088e6110eb565b6040516323b872dd60e01b81526001600160a01b037f0000000000000000000000000000000000000000000000000000000000000000811660048301527f000000000000000000000000000000000000000000000000000000000000000081166024830152604482018390529192507f0000000000000000000000000000000000000000000000000000000000000000909116906323b872dd90606401602060405180830381600087803b15801561094557600080fd5b505af1158015610959573d6000803e3d6000fd5b505050506040513d601f19601f8201168201806040525081019061097d9190611567565b61098657600080fd5b604051637e5bcd3f60e11b81526001600160a01b037f0000000000000000000000000000000000000000000000000000000000000000811660048301527f0000000000000000000000000000000000000000000000000000000000000000811660248301527f0000000000000000000000000000000000000000000000000000000000000000169063fcb79a7e90604401600060405180830381600087803b158015610a3157600080fd5b505af1158015610a45573d6000803e3d6000fd5b50505050610a736001604051806040016040528060078152602001667375636365737360c81b815250610fe9565b50565b60006002610719565b6107126001611237565b6000610a9760065442111590565b15610b7b5760007f00000000000000000000000000000000000000000000000000000000000000006001600160a01b0316630a81b2de6040518163ffffffff1660e01b815260040160206040518083038186803b158015610af757600080fd5b505afa158015610b0b573d6000803e3d6000fd5b505050506040513d601f19601f82011682018060405250810190610b2f919061154e565b9050610b5b817f00000000000000000000000000000000000000000000000000000000000000006115b5565b600354610b6890836115ec565b610b74906127106115b5565b1091505090565b600354600254610b8b91906115d4565b610bb5907f00000000000000000000000000000000000000000000000000000000000000006115b5565b600254610bc4906127106115b5565b10905090565b7f00000000000000000000000000000000000000000000000000000000000000006001600160a01b031663833b1fce6040518163ffffffff1660e01b8152600401602060405180830381600087803b158015610c2557600080fd5b505af1158015610c39573d6000803e3d6000fd5b505050506040513d601f19601f82011682018060405250810190610c5d9190611531565b6001600160a01b0316336001600160a01b031614610caa5760405162461bcd60e51b815260206004820152600a6024820152696e6f74206f7261636c6560b01b60448201526064016104ad565b7f00000000000000000000000000000000000000000000000000000000000000006001600160a01b0316630a81b2de6040518163ffffffff1660e01b815260040160206040518083038186803b158015610d0357600080fd5b505afa158015610d17573d6000803e3d6000fd5b505050506040513d601f19601f82011682018060405250810190610d3b919061154e565b7f00000000000000000000000000000000000000000000000000000000000000006001600160a01b03166318160ddd6040518163ffffffff1660e01b815260040160206040518083038186803b158015610d9457600080fd5b505afa158015610da8573d6000803e3d6000fd5b505050506040513d601f19601f82011682018060405250810190610dcc919061154e565b610dd683856115d4565b610de091906115d4565b1115610e1f5760405162461bcd60e51b815260206004820152600e60248201526d746f6f206d616e7920766f74657360901b60448201526064016104ad565b81600554600254610e3091906115ec565b610e3a91906115d4565b6002556004546003548291610e4e916115ec565b610e5891906115d4565b600355600591909155600455565b336001600160a01b037f00000000000000000000000000000000000000000000000000000000000000001614610e9b57600080fd5b6006544211610edc576001600160a01b0380841660009081526001602052604080822054928516825290205460ff9182169116610ed982828561134f565b50505b505050565b610ee961147b565b15610f1857610712600060405180604001604052806007815260200166195e1c1a5c995960ca1b815250610fe9565b610f20610a89565b15610f5057610712600060405180604001604052806008815260200167191958db1a5b995960c21b815250610fe9565b610f5861055f565b6107125761071260006040518060400160405280600d81526020016c6c61636b206f662066756e647360981b815250610fe9565b336001600160a01b037f00000000000000000000000000000000000000000000000000000000000000001614610fc157600080fd5b61071260006040518060400160405280600981526020016818d85b98d95b1b195960ba1b8152505b7f00000000000000000000000000000000000000000000000000000000000000006001600160a01b03166332bc320b6040518163ffffffff1660e01b8152600401600060405180830381600087803b15801561104457600080fd5b505af1158015611058573d6000803e3d6000fd5b505050507f00000000000000000000000000000000000000000000000000000000000000006001600160a01b03167fba01adb1638f647e6baa43cb5d8d3a05ed7e59ac18415bf4c64adba235c5b2b083836040516110b7929190611603565b60405180910390a27f00000000000000000000000000000000000000000000000000000000000000006001600160a01b0316ff5b600080546040516370a0823160e01b81526001600160a01b037f0000000000000000000000000000000000000000000000000000000000000000811660048301527f00000000000000000000000000000000000000000000000000000000000000009291908316906370a082319060240160206040518083038186803b15801561117457600080fd5b505afa158015611188573d6000803e3d6000fd5b505050506040513d601f19601f820116820180604052508101906111ac919061154e565b826001600160a01b03166318160ddd6040518163ffffffff1660e01b815260040160206040518083038186803b1580156111e557600080fd5b505afa1580156111f9573d6000803e3d6000fd5b505050506040513d601f19601f8201168201806040525081019061121d919061154e565b61122791906115ec565b61123191906115b5565b91505090565b6006544211156112765760405162461bcd60e51b815260206004820152600a6024820152691d9bdd1948195b99195960b21b60448201526064016104ad565b336000908152600160208190526040909120805460ff81169284929160ff1916908360028111156112a9576112a9611589565b021790555060405163603a39fb60e11b815233600482015261055b90829084906001600160a01b037f0000000000000000000000000000000000000000000000000000000000000000169063c07473f690602401602060405180830381600087803b15801561131757600080fd5b505af115801561132b573d6000803e3d6000fd5b505050506040513d601f19601f8201168201806040525081019061134f919061154e565b81600281111561136157611361611589565b83600281111561137357611373611589565b14610edc57600283600281111561138c5761138c611589565b14156113a857806003546113a091906115ec565b6003556113d4565b60018360028111156113bc576113bc611589565b14156113d457806002546113d091906115ec565b6002555b60028260028111156113e8576113e8611589565b141561140457806003546113fc91906115d4565b600355611430565b600182600281111561141857611418611589565b1415611430578060025461142c91906115d4565b6002555b7f8fcc50c2c4edd06d51ae66e9e21ed76b32a1766c57f491788e1aa24a1b58c25660025460035460405161146e929190918252602082015260400190565b60405180910390a1505050565b60006006546203f48061148e91906115d4565b4211905090565b6001600160a01b0381168114610a7357600080fd5b6000602082840312156114bc57600080fd5b81356114c781611495565b9392505050565b600080604083850312156114e157600080fd5b50508035926020909101359150565b60008060006060848603121561150557600080fd5b833561151081611495565b9250602084013561152081611495565b929592945050506040919091013590565b60006020828403121561154357600080fd5b81516114c781611495565b60006020828403121561156057600080fd5b5051919050565b60006020828403121561157957600080fd5b815180151581146114c757600080fd5b634e487b7160e01b600052602160045260246000fd5b634e487b7160e01b600052601160045260246000fd5b60008160001904831182151516156115cf576115cf61159f565b500290565b600082198211156115e7576115e761159f565b500190565b6000828210156115fe576115fe61159f565b500390565b821515815260006020604081840152835180604085015260005b818110156116395785810183015185820160600152820161161d565b8181111561164b576000606083870101525b50601f01601f19169290920160600194935050505056fea26469706673582212200d580b9d433e5e54898f618b83f45dfe7d86cf4a5c36aa774901346bcbc98bc064736f6c63430008090033",
    "sourcePath": "c:/Users/luziu/Documents/GitHub/contracts/src/sha/Offer.sol",
    "compiler": {
        "name": "solc",
        "version": "0.8.9+commit.e5eed63a"
    },
    "functionHashes": {
        "buyer()": "7150d8ae",
        "cancel()": "ea8a1af0",
        "contest()": "e3ac83da",
        "contest(address)": "06a169ed",
        "currency()": "e5a6b10f",
        "execute()": "61461954",
        "hasVotedNo(address)": "8f1b4c6f",
        "hasVotedYes(address)": "448ab4c6",
        "isAccepted()": "5051a5ec",
        "isDeclined()": "9b4e88aa",
        "isVotingOpen()": "fa7f1bae",
        "isWellFunded()": "3f5e3e7f",
        "noExternal()": "354e5629",
        "noVotes()": "b5b47f42",
        "notifyMoved(address,address,uint256)": "e1a1810f",
        "price()": "a035b1fe",
        "quorum()": "1703a018",
        "reportExternalVotes(uint256,uint256)": "bd3bc1d3",
        "token()": "fc0c546a",
        "voteEnd()": "ddbe8f09",
        "voteNo()": "41c12a70",
        "voteYes()": "90cf581c",
        "yesExternal()": "11a439a0",
        "yesVotes()": "fb286c65"
    },
    "gasEstimates": {
        "creation": {
            "codeDepositCost": "1156800",
            "executionCost": "infinite",
            "totalCost": "infinite"
        },
        "external": {
            "buyer()": "infinite",
            "cancel()": "infinite",
            "contest()": "infinite",
            "contest(address)": "infinite",
            "currency()": "infinite",
            "execute()": "infinite",
            "hasVotedNo(address)": "2723",
            "hasVotedYes(address)": "2624",
            "isAccepted()": "infinite",
            "isDeclined()": "infinite",
            "isVotingOpen()": "2394",
            "isWellFunded()": "infinite",
            "noExternal()": "2374",
            "noVotes()": "2351",
            "notifyMoved(address,address,uint256)": "infinite",
            "price()": "2329",
            "quorum()": "infinite",
            "reportExternalVotes(uint256,uint256)": "infinite",
            "token()": "infinite",
            "voteEnd()": "2395",
            "voteNo()": "infinite",
            "voteYes()": "infinite",
            "yesExternal()": "2330",
            "yesVotes()": "2394"
        },
        "internal": {
            "getTotalPrice()": "infinite",
            "hasExpired()": "2213",
            "kill(bool,string memory)": "infinite",
            "update(enum Offer.Vote,enum Offer.Vote,uint256)": "infinite",
            "vote(enum Offer.Vote)": "infinite"
        }
    }
}