{
  "_format": "hh-sol-artifact-1",
  "contractName": "ERC20Cancelled",
  "sourceName": "contracts/draggable/ERC20Cancelled.sol",
  "abi": [
    {
      "inputs": [
        {
          "internalType": "address",
          "name": "shaToken",
          "type": "address"
        }
      ],
      "stateMutability": "nonpayable",
      "type": "constructor"
    },
    {
      "inputs": [
        {
          "internalType": "address",
          "name": "receiver",
          "type": "address"
        },
        {
          "internalType": "uint256",
          "name": "balance",
          "type": "uint256"
        },
        {
          "internalType": "uint256",
          "name": "amount",
          "type": "uint256"
        }
      ],
      "name": "ERC20BalanceOverflow",
      "type": "error"
    },
    {
      "inputs": [
        {
          "internalType": "address",
          "name": "spender",
          "type": "address"
        },
        {
          "internalType": "uint256",
          "name": "allowance",
          "type": "uint256"
        },
        {
          "internalType": "uint256",
          "name": "needed",
          "type": "uint256"
        }
      ],
      "name": "ERC20InsufficientAllowance",
      "type": "error"
    },
    {
      "inputs": [
        {
          "internalType": "address",
          "name": "sender",
          "type": "address"
        },
        {
          "internalType": "uint256",
          "name": "balance",
          "type": "uint256"
        },
        {
          "internalType": "uint256",
          "name": "needed",
          "type": "uint256"
        }
      ],
      "name": "ERC20InsufficientBalance",
      "type": "error"
    },
    {
      "inputs": [
        {
          "internalType": "address",
          "name": "approver",
          "type": "address"
        }
      ],
      "name": "ERC20InvalidApprover",
      "type": "error"
    },
    {
      "inputs": [
        {
          "internalType": "address",
          "name": "receiver",
          "type": "address"
        }
      ],
      "name": "ERC20InvalidReceiver",
      "type": "error"
    },
    {
      "inputs": [
        {
          "internalType": "address",
          "name": "sender",
          "type": "address"
        }
      ],
      "name": "ERC20InvalidSender",
      "type": "error"
    },
    {
      "inputs": [
        {
          "internalType": "address",
          "name": "spender",
          "type": "address"
        }
      ],
      "name": "ERC20InvalidSpender",
      "type": "error"
    },
    {
      "anonymous": false,
      "inputs": [
        {
          "indexed": true,
          "internalType": "address",
          "name": "owner",
          "type": "address"
        },
        {
          "indexed": true,
          "internalType": "address",
          "name": "spender",
          "type": "address"
        },
        {
          "indexed": false,
          "internalType": "uint256",
          "name": "value",
          "type": "uint256"
        }
      ],
      "name": "Approval",
      "type": "event"
    },
    {
      "anonymous": false,
      "inputs": [
        {
          "indexed": false,
          "internalType": "string",
          "name": "name",
          "type": "string"
        },
        {
          "indexed": false,
          "internalType": "string",
          "name": "symbol",
          "type": "string"
        }
      ],
      "name": "NameChanged",
      "type": "event"
    },
    {
      "anonymous": false,
      "inputs": [
        {
          "indexed": true,
          "internalType": "address",
          "name": "from",
          "type": "address"
        },
        {
          "indexed": true,
          "internalType": "address",
          "name": "to",
          "type": "address"
        },
        {
          "indexed": false,
          "internalType": "uint256",
          "name": "value",
          "type": "uint256"
        }
      ],
      "name": "Transfer",
      "type": "event"
    },
    {
      "inputs": [],
      "name": "BASE",
      "outputs": [
        {
          "internalType": "contract IShares",
          "name": "",
          "type": "address"
        }
      ],
      "stateMutability": "view",
      "type": "function"
    },
    {
      "inputs": [],
      "name": "SHA",
      "outputs": [
        {
          "internalType": "contract ERC20Draggable",
          "name": "",
          "type": "address"
        }
      ],
      "stateMutability": "view",
      "type": "function"
    },
    {
      "inputs": [
        {
          "internalType": "address",
          "name": "owner",
          "type": "address"
        },
        {
          "internalType": "address",
          "name": "spender",
          "type": "address"
        }
      ],
      "name": "allowance",
      "outputs": [
        {
          "internalType": "uint256",
          "name": "",
          "type": "uint256"
        }
      ],
      "stateMutability": "view",
      "type": "function"
    },
    {
      "inputs": [
        {
          "internalType": "address",
          "name": "spender",
          "type": "address"
        },
        {
          "internalType": "uint256",
          "name": "value",
          "type": "uint256"
        }
      ],
      "name": "approve",
      "outputs": [
        {
          "internalType": "bool",
          "name": "",
          "type": "bool"
        }
      ],
      "stateMutability": "nonpayable",
      "type": "function"
    },
    {
      "inputs": [
        {
          "internalType": "address",
          "name": "account",
          "type": "address"
        }
      ],
      "name": "balanceOf",
      "outputs": [
        {
          "internalType": "uint256",
          "name": "",
          "type": "uint256"
        }
      ],
      "stateMutability": "view",
      "type": "function"
    },
    {
      "inputs": [],
      "name": "burnThemAll",
      "outputs": [],
      "stateMutability": "nonpayable",
      "type": "function"
    },
    {
      "inputs": [],
      "name": "decimals",
      "outputs": [
        {
          "internalType": "uint8",
          "name": "",
          "type": "uint8"
        }
      ],
      "stateMutability": "view",
      "type": "function"
    },
    {
      "inputs": [
        {
          "internalType": "address",
          "name": "account",
          "type": "address"
        },
        {
          "internalType": "uint8",
          "name": "number",
          "type": "uint8"
        }
      ],
      "name": "hasFlag",
      "outputs": [
        {
          "internalType": "bool",
          "name": "",
          "type": "bool"
        }
      ],
      "stateMutability": "view",
      "type": "function"
    },
    {
      "inputs": [],
      "name": "name",
      "outputs": [
        {
          "internalType": "string",
          "name": "",
          "type": "string"
        }
      ],
      "stateMutability": "view",
      "type": "function"
    },
    {
      "inputs": [],
      "name": "symbol",
      "outputs": [
        {
          "internalType": "string",
          "name": "",
          "type": "string"
        }
      ],
      "stateMutability": "view",
      "type": "function"
    },
    {
      "inputs": [],
      "name": "totalSupply",
      "outputs": [
        {
          "internalType": "uint256",
          "name": "",
          "type": "uint256"
        }
      ],
      "stateMutability": "view",
      "type": "function"
    },
    {
      "inputs": [
        {
          "internalType": "address",
          "name": "recipient",
          "type": "address"
        },
        {
          "internalType": "uint256",
          "name": "amount",
          "type": "uint256"
        }
      ],
      "name": "transfer",
      "outputs": [
        {
          "internalType": "bool",
          "name": "",
          "type": "bool"
        }
      ],
      "stateMutability": "nonpayable",
      "type": "function"
    },
    {
      "inputs": [
        {
          "internalType": "address",
          "name": "recipient",
          "type": "address"
        },
        {
          "internalType": "uint256",
          "name": "amount",
          "type": "uint256"
        },
        {
          "internalType": "bytes",
          "name": "data",
          "type": "bytes"
        }
      ],
      "name": "transferAndCall",
      "outputs": [
        {
          "internalType": "bool",
          "name": "",
          "type": "bool"
        }
      ],
      "stateMutability": "nonpayable",
      "type": "function"
    },
    {
      "inputs": [
        {
          "internalType": "address",
          "name": "sender",
          "type": "address"
        },
        {
          "internalType": "address",
          "name": "recipient",
          "type": "address"
        },
        {
          "internalType": "uint256",
          "name": "amount",
          "type": "uint256"
        }
      ],
      "name": "transferFrom",
      "outputs": [
        {
          "internalType": "bool",
          "name": "",
          "type": "bool"
        }
      ],
      "stateMutability": "nonpayable",
      "type": "function"
    }
  ],
  "bytecode": "0x60c060405234801561001057600080fd5b506040516110a13803806110a183398101604081905261002f916100d1565b6003805460ff191690556001600160a01b038116608081905260408051630a1ce1a960e31b815290516350e70d48916004808201926020929091908290030181865afa158015610083573d6000803e3d6000fd5b505050506040513d601f19601f820116820180604052508101906100a791906100d1565b6001600160a01b031660a052506100f5565b6001600160a01b03811681146100ce57600080fd5b50565b6000602082840312156100e357600080fd5b81516100ee816100b9565b9392505050565b60805160a051610f4f6101526000396000818161023c0152818161027501528181610464015261074a01526000818161018c0152818161050a0152818161052b015281816105b20152818161063a01526106c70152610f4f6000f3fe608060405234801561001057600080fd5b50600436106100ea5760003560e01c806370a082311161008c578063dd62ed3e11610066578063dd62ed3e146101f4578063e49112db1461022d578063ec342ad014610237578063f5c0b95f1461025e57600080fd5b806370a08231146101c657806395d89b41146101d9578063a9059cbb146101e157600080fd5b806323b872dd116100c857806323b872dd14610142578063313ce567146101555780634000aea0146101745780634422903d1461018757600080fd5b806306fdde03146100ef578063095ea7b31461010d57806318160ddd14610130575b600080fd5b6100f7610271565b6040516101049190610b59565b60405180910390f35b61012061011b366004610ba8565b61031d565b6040519015158152602001610104565b6002545b604051908152602001610104565b610120610150366004610bd2565b610334565b6003546101629060ff1681565b60405160ff9091168152602001610104565b610120610182366004610c0f565b6103ab565b6101ae7f000000000000000000000000000000000000000000000000000000000000000081565b6040516001600160a01b039091168152602001610104565b6101346101d4366004610c99565b61043c565b6100f7610460565b6101206101ef366004610ba8565b6104f8565b610134610202366004610cb4565b6001600160a01b03918216600090815260016020908152604080832093909416825291909152205490565b610235610505565b005b6101ae7f000000000000000000000000000000000000000000000000000000000000000081565b61012061026c366004610ce7565b610818565b60607f00000000000000000000000000000000000000000000000000000000000000006001600160a01b03166306fdde036040518163ffffffff1660e01b8152600401600060405180830381865afa1580156102d1573d6000803e3d6000fd5b505050506040513d6000823e601f3d908101601f191682016040526102f99190810190610d3a565b6040516020016103099190610de6565b604051602081830303815290604052905090565b600061032a33848461082b565b5060015b92915050565b600061034184848461088d565b6001600160a01b0384166000908152600160209081526040808320338452909152902054600160ff1b8110156103a05761037b8382610e2e565b6001600160a01b03861660009081526001602090815260408083203384529091529020555b506001949350505050565b60006103b785856104f8565b80156104335750604051635260769b60e11b81526001600160a01b0386169063a4c0ed36906103f0903390889088908890600401610e41565b6020604051808303816000875af115801561040f573d6000803e3d6000fd5b505050506040513d601f19601f820116820180604052508101906104339190610e89565b95945050505050565b6001600160a01b03166000908152602081905260409020546001600160e01b031690565b60607f00000000000000000000000000000000000000000000000000000000000000006001600160a01b03166395d89b416040518163ffffffff1660e01b8152600401600060405180830381865afa1580156104c0573d6000803e3d6000fd5b505050506040513d6000823e601f3d908101601f191682016040526104e89190810190610d3a565b6040516020016103099190610eab565b600061032a33848461088d565b6105b07f00000000000000000000000000000000000000000000000000000000000000007f00000000000000000000000000000000000000000000000000000000000000006001600160a01b03166318160ddd6040518163ffffffff1660e01b8152600401602060405180830381865afa158015610587573d6000803e3d6000fd5b505050506040513d601f19601f820116820180604052508101906105ab9190610ed4565b6108e6565b7f00000000000000000000000000000000000000000000000000000000000000006001600160a01b0316638fd3ab806040518163ffffffff1660e01b8152600401600060405180830381600087803b15801561060b57600080fd5b505af115801561061f573d6000803e3d6000fd5b50506040516370a0823160e01b8152306004820152600092507f00000000000000000000000000000000000000000000000000000000000000006001600160a01b031691506370a0823190602401602060405180830381865afa15801561068a573d6000803e3d6000fd5b505050506040513d601f19601f820116820180604052508101906106ae9190610ed4565b604051636f074d1f60e11b8152600481018290529091507f00000000000000000000000000000000000000000000000000000000000000006001600160a01b03169063de0e9a3e90602401600060405180830381600087803b15801561071357600080fd5b505af1158015610727573d6000803e3d6000fd5b50505050610735308261094e565b6040516370a0823160e01b81523060048201527f00000000000000000000000000000000000000000000000000000000000000006001600160a01b0316906342966c689082906370a0823190602401602060405180830381865afa1580156107a1573d6000803e3d6000fd5b505050506040513d601f19601f820116820180604052508101906107c59190610ed4565b6040518263ffffffff1660e01b81526004016107e391815260200190565b600060405180830381600087803b1580156107fd57600080fd5b505af1158015610811573d6000803e3d6000fd5b5050505050565b600061082483836109ae565b9392505050565b6001600160a01b0383811660008181526001602090815260408083209487168084529482529182902085905590518481527f8c5be1e5ebec7d5bd14f71427d1e84f3dd0314c0f7b2291e5b200ac8c7c3b92591015b60405180910390a3505050565b61089783826109ee565b6108a18282610a90565b816001600160a01b0316836001600160a01b03167fddf252ad1be2c89b69c2b068fc378daa952ba7f163c4a11628f55a4df523b3ef8360405161088091815260200190565b80600260008282546108f89190610eed565b9091555061090890508282610a90565b6040518181526001600160a01b038316906000907fddf252ad1be2c89b69c2b068fc378daa952ba7f163c4a11628f55a4df523b3ef906020015b60405180910390a35050565b80600260008282546109609190610e2e565b90915550610970905082826109ee565b6040518181526000906001600160a01b038416907fddf252ad1be2c89b69c2b068fc378daa952ba7f163c4a11628f55a4df523b3ef90602001610942565b6000806109bc8360e0610f00565b6001600160a01b038516600090815260208190526040902054600160ff929092169190911b9081161491505092915050565b6001600160a01b03821660009081526020819052604081205490610a128383610e2e565b90506001600160e01b031981166001600160e01b0319831614610a6f5783610a398561043c565b60405163391434e360e21b81526001600160a01b0390921660048301526024820152604481018490526064015b60405180910390fd5b6001600160a01b039093166000908152602081905260409020929092555050565b6001600160a01b038216610ac25760405163ec442f0560e01b81526001600160a01b0383166004820152602401610a66565b6001600160a01b03821660009081526020819052604081205490610ae68383610eed565b90506001600160e01b031981166001600160e01b0319831614610a6f57604051634a2e08e560e01b81526001600160a01b03851660048201526024810183905260448101849052606401610a66565b60005b83811015610b50578181015183820152602001610b38565b50506000910152565b6020815260008251806020840152610b78816040850160208701610b35565b601f01601f19169190910160400192915050565b80356001600160a01b0381168114610ba357600080fd5b919050565b60008060408385031215610bbb57600080fd5b610bc483610b8c565b946020939093013593505050565b600080600060608486031215610be757600080fd5b610bf084610b8c565b9250610bfe60208501610b8c565b929592945050506040919091013590565b60008060008060608587031215610c2557600080fd5b610c2e85610b8c565b935060208501359250604085013567ffffffffffffffff811115610c5157600080fd5b8501601f81018713610c6257600080fd5b803567ffffffffffffffff811115610c7957600080fd5b876020828401011115610c8b57600080fd5b949793965060200194505050565b600060208284031215610cab57600080fd5b61082482610b8c565b60008060408385031215610cc757600080fd5b610cd083610b8c565b9150610cde60208401610b8c565b90509250929050565b60008060408385031215610cfa57600080fd5b610d0383610b8c565b9150602083013560ff81168114610d1957600080fd5b809150509250929050565b634e487b7160e01b600052604160045260246000fd5b600060208284031215610d4c57600080fd5b815167ffffffffffffffff811115610d6357600080fd5b8201601f81018413610d7457600080fd5b805167ffffffffffffffff811115610d8e57610d8e610d24565b604051601f8201601f19908116603f0116810167ffffffffffffffff81118282101715610dbd57610dbd610d24565b604052818152828201602001861015610dd557600080fd5b610433826020830160208601610b35565b69021b0b731b2b63632b2160b51b815260008251610e0b81600a850160208701610b35565b91909101600a0192915050565b634e487b7160e01b600052601160045260246000fd5b8181038181111561032e5761032e610e18565b6001600160a01b0385168152602081018490526060604082018190528101829052818360808301376000818301608090810191909152601f909201601f191601019392505050565b600060208284031215610e9b57600080fd5b8151801515811461082457600080fd5b604360f81b815260008251610ec7816001850160208701610b35565b9190910160010192915050565b600060208284031215610ee657600080fd5b5051919050565b8082018082111561032e5761032e610e18565b60ff818116838216019081111561032e5761032e610e1856fea26469706673582212203d6a3b41d8c5376a5711a68aecf264a76b048cc2f475515b5bbf1bbb1d9c34f864736f6c634300081c0033",
  "linkReferences": {},
  "deployedLinkReferences": {}
}