{
  "address": "0x8fb463D5a601b02Ce3Fb4B93253a10fe6f9105A3",
  "abi": [
    {
      "inputs": [
        {
          "internalType": "address",
          "name": "_owner",
          "type": "address"
        }
      ],
      "stateMutability": "nonpayable",
      "type": "constructor"
    },
    {
      "inputs": [
        {
          "internalType": "address",
          "name": "sender",
          "type": "address"
        }
      ],
      "name": "Ownable_NotOwner",
      "type": "error"
    },
    {
      "anonymous": false,
      "inputs": [
        {
          "indexed": false,
          "internalType": "contract FactoryManager",
          "name": "manager",
          "type": "address"
        }
      ],
      "name": "FactoryManagerUpdated",
      "type": "event"
    },
    {
      "anonymous": false,
      "inputs": [
        {
          "indexed": true,
          "internalType": "address",
          "name": "previousOwner",
          "type": "address"
        },
        {
          "indexed": true,
          "internalType": "address",
          "name": "newOwner",
          "type": "address"
        }
      ],
      "name": "OwnershipTransferred",
      "type": "event"
    },
    {
      "inputs": [
        {
          "components": [
            {
              "internalType": "string",
              "name": "name",
              "type": "string"
            },
            {
              "internalType": "string",
              "name": "symbol",
              "type": "string"
            },
            {
              "internalType": "string",
              "name": "terms",
              "type": "string"
            },
            {
              "internalType": "bool",
              "name": "allowlist",
              "type": "bool"
            },
            {
              "internalType": "bool",
              "name": "draggable",
              "type": "bool"
            },
            {
              "internalType": "uint256",
              "name": "numberOfShares",
              "type": "uint256"
            },
            {
              "internalType": "uint256",
              "name": "quorumDrag",
              "type": "uint256"
            },
            {
              "internalType": "uint256",
              "name": "quorumMigration",
              "type": "uint256"
            },
            {
              "internalType": "uint256",
              "name": "votePeriod",
              "type": "uint256"
            }
          ],
          "internalType": "struct TokenConfig",
          "name": "tokenConfig",
          "type": "tuple"
        },
        {
          "internalType": "address",
          "name": "tokenOwner",
          "type": "address"
        },
        {
          "internalType": "contract IERC20Permit",
          "name": "token",
          "type": "address"
        },
        {
          "internalType": "string",
          "name": "_salt",
          "type": "string"
        }
      ],
      "name": "createAllowlistDraggable",
      "outputs": [
        {
          "internalType": "contract IERC20Permit",
          "name": "",
          "type": "address"
        }
      ],
      "stateMutability": "nonpayable",
      "type": "function"
    },
    {
      "inputs": [],
      "name": "manager",
      "outputs": [
        {
          "internalType": "contract FactoryManager",
          "name": "",
          "type": "address"
        }
      ],
      "stateMutability": "view",
      "type": "function"
    },
    {
      "inputs": [],
      "name": "owner",
      "outputs": [
        {
          "internalType": "address",
          "name": "",
          "type": "address"
        }
      ],
      "stateMutability": "view",
      "type": "function"
    },
    {
      "inputs": [
        {
          "internalType": "contract FactoryManager",
          "name": "_manager",
          "type": "address"
        }
      ],
      "name": "setManager",
      "outputs": [],
      "stateMutability": "nonpayable",
      "type": "function"
    },
    {
      "inputs": [
        {
          "internalType": "address",
          "name": "newOwner",
          "type": "address"
        }
      ],
      "name": "transferOwnership",
      "outputs": [],
      "stateMutability": "nonpayable",
      "type": "function"
    }
  ],
  "transactionHash": "0xa087554d67bb4ec9642c5e9535e4087f4a39c9c69ffafe46cffaca65728acd92",
  "args": [
    "0x39E5351E6CE3c4B19B8b0a2F5C82c511782457BE"
  ],
  "numDeployments": 2,
  "solcInputHash": "9c20d6d2cdb3bf3f1a45f6b1e6057f84",
  "bytecode": "0x6080604052348015600f57600080fd5b50604051613e3f380380613e3f833981016040819052602c91607a565b600080546001600160a01b0319166001600160a01b03831690811782556040518392907f8be0079c531659141344cd1fd0a4f28419497f9722a3daafe3b4186f6b6457e0908290a3505060a8565b600060208284031215608b57600080fd5b81516001600160a01b038116811460a157600080fd5b9392505050565b613d88806100b76000396000f3fe608060405234801561001057600080fd5b50600436106100575760003560e01c8063481c6a751461005c5780634dfe44d21461008b5780638da5cb5b1461009e578063d0ebdbe7146100b1578063f2fde38b146100c6575b600080fd5b60015461006f906001600160a01b031681565b6040516001600160a01b03909116815260200160405180910390f35b61006f61009936600461040b565b6100d9565b60005461006f906001600160a01b031681565b6100c46100bf3660046104d2565b6102f4565b005b6100c46100d43660046104d2565b610350565b6000806100e960208801886104f6565b868686604051602001610100959493929190610544565b60408051601f1981840301815282825280516020918201206080840183526001600160a01b038916845260c08b01359184019190915260e08a0135838301526101008a013560608401529250829061015a908a018a6104f6565b60015460408051639220623b60e01b8152905186926001600160a01b031691639220623b9160048083019260209291908290030181865afa1580156101a3573d6000803e3d6000fd5b505050506040513d601f19601f820116820180604052508101906101c7919061057e565b600160009054906101000a90046001600160a01b03166001600160a01b031663ecd7cf786040518163ffffffff1660e01b8152600401602060405180830381865afa15801561021a573d6000803e3d6000fd5b505050506040513d601f19601f8201168201806040525081019061023e919061057e565b600154604080516318efcce560e01b815290518f926001600160a01b0316916318efcce59160048083019260209291908290030181865afa158015610287573d6000803e3d6000fd5b505050506040513d601f19601f820116820180604052508101906102ab919061057e565b6040516102b7906103e6565b6102c7979695949392919061059b565b8190604051809103906000f59050801580156102e7573d6000803e3d6000fd5b5098975050505050505050565b6102fc6103b3565b600180546001600160a01b0319166001600160a01b0383169081179091556040519081527f7374c03893422e168ea189118b40932f7c665b7dbcd921b4d7580ca758cc1e409060200160405180910390a150565b6103586103b3565b600080546040516001600160a01b03808516939216917f8be0079c531659141344cd1fd0a4f28419497f9722a3daafe3b4186f6b6457e091a3600080546001600160a01b0319166001600160a01b0392909216919091179055565b6000546001600160a01b031633146103e4576040516396a19be960e01b815233600482015260240160405180910390fd5b565b61370e8061064583390190565b6001600160a01b038116811461040857600080fd5b50565b60008060008060006080868803121561042357600080fd5b853567ffffffffffffffff8082111561043b57600080fd5b90870190610120828a03121561045057600080fd5b909550602087013590610462826103f3565b909450604087013590610474826103f3565b9093506060870135908082111561048a57600080fd5b818801915088601f83011261049e57600080fd5b8135818111156104ad57600080fd5b8960208285010111156104bf57600080fd5b9699959850939650602001949392505050565b6000602082840312156104e457600080fd5b81356104ef816103f3565b9392505050565b6000808335601e1984360301811261050d57600080fd5b83018035915067ffffffffffffffff82111561052857600080fd5b60200191503681900382131561053d57600080fd5b9250929050565b8486823760008582016bffffffffffffffffffffffff198660601b1681528385601483013760009301601401928352509095945050505050565b60006020828403121561059057600080fd5b81516104ef816103f3565b61012080825281018790526000610140888a828501376000818a8501015280601f19601f8b011684010191505060018060a01b03875116602083015260208701516040830152604087015160608301526060870151608083015261060a60a08301876001600160a01b03169052565b6001600160a01b03851660c08301526001600160a01b03841660e08301526001600160a01b0383166101008301529897505050505050505056fe610140604052600060045534801561001657600080fd5b5060405161370e38038061370e83398101604081905261003591610366565b6003805486516001600160a81b03199091166101006001600160a01b03928316810291909117909255602087015160c052604087015160a052606087015160e052848116608052600680546001600160a01b03191685831617905585811690915281166101205281868686868486600a6100af87826104f1565b50604051636427ed9760e01b8152600060048201526001600160a01b03851690636427ed9790602401600060405180830381600087803b1580156100f257600080fd5b505af1158015610106573d6000803e3d6000fd5b5050600b80546001600160a01b0319166001600160a01b038b16908117909155604051909850600097507f8be0079c531659141344cd1fd0a4f28419497f9722a3daafe3b4186f6b6457e096508795509350505050a3506101676001610172565b5050505050506105dd565b600b805482158015600160a01b0260ff60a01b19909216919091179091556101a3576101a0600060046101aa565b50565b6101a06000805b6101bc82601460ff8416600114610225565b6101ce82601560ff8416600214610225565b6101e082601660ff8416600414610225565b60405160ff821681526001600160a01b038316907fe423d7d31023dbacefed7c937785d0012ad8f314381295efebfc0471d2c434549060200160405180910390a25050565b60006102328360e06105b0565b6001600160a01b038516600090815260208190526040902054600160ff929092169190911b9150808216821483151514610284576001600160a01b038516600090815260208190526040902081831890555b5050505050565b634e487b7160e01b600052604160045260246000fd5b604051601f8201601f191681016001600160401b03811182821017156102c9576102c961028b565b604052919050565b6001600160a01b03811681146101a057600080fd5b6000608082840312156102f857600080fd5b604051608081016001600160401b038111828210171561031a5761031a61028b565b8060405250809150825161032d816102d1565b808252506020830151602082015260408301516040820152606083015160608201525092915050565b8051610361816102d1565b919050565b600080600080600080610120878903121561038057600080fd5b86516001600160401b038082111561039757600080fd5b818901915089601f8301126103ab57600080fd5b8151818111156103bd576103bd61028b565b602091506103d3601f8201601f191683016102a1565b8181528b838386010111156103e757600080fd5b60005b828110156104055784810184015182820185015283016103ea565b506000838383010152809950505061041f8a828b016102e6565b9650505061042f60a08801610356565b935061043d60c08801610356565b925061044b60e08801610356565b915061045a6101008801610356565b90509295509295509295565b600181811c9082168061047a57607f821691505b60208210810361049a57634e487b7160e01b600052602260045260246000fd5b50919050565b601f8211156104ec576000816000526020600020601f850160051c810160208610156104c95750805b601f850160051c820191505b818110156104e8578281556001016104d5565b5050505b505050565b81516001600160401b0381111561050a5761050a61028b565b61051e816105188454610466565b846104a0565b602080601f831160018114610553576000841561053b5750858301515b600019600386901b1c1916600185901b1785556104e8565b600085815260208120601f198616915b8281101561058257888601518255948401946001909101908401610563565b50858210156105a05787850151600019600388901b60f8161c191681555b5050505050600190811b01905550565b60ff81811683821601908111156105d757634e487b7160e01b600052601160045260246000fd5b92915050565b60805160a05160c05160e0516101005161012051613095610679600039600081816104b801526123ab015260008181610a1101528181610dc9015281816110150152818161137d0152818161184e01526122b1015260008181610860015261169d01526000818161046f0152611677015260008181610aa501528181611a280152611a6401526000818161095401526116c601526130956000f3fe60806040526004361061038c5760003560e01c80637ecebe00116101dc578063c45a015511610102578063de0e9a3e116100a0578063f2fde38b1161006f578063f2fde38b14610ac7578063f5c0b95f14610ae7578063fcb79a7e14610b07578063ffa1ad7414610b2757600080fd5b8063de0e9a3e14610a33578063e445d70a14610a53578063e5b824ec14610a73578063efa4051214610a9357600080fd5b8063d505accf116100dc578063d505accf146109ac578063dcc7d4ad146109cc578063dd62ed3e146109df578063ddceafa9146109ff57600080fd5b8063c45a015514610942578063d37a9bb014610976578063d50256251461099757600080fd5b8063a4c0ed361161017a578063bf376c7a11610149578063bf376c7a146108c2578063c028df06146108e2578063c07473f614610902578063c18172c41461092257600080fd5b8063a4c0ed361461082e578063a78135871461084e578063a9059cbb14610882578063b1c8db66146108a257600080fd5b806395d89b41116101b657806395d89b41146107c35780639e37878c146107d85780639e4b5745146107f8578063a49a7cb11461080e57600080fd5b80637ecebe00146107615780638da5cb5b1461078e5780638fd3ab80146107ae57600080fd5b806332bc320b116102c1578063609181171161025f57806378f86afc1161022e57806378f86afc146106eb5780637adbf9731461070b5780637dc0d1d01461072b5780637dc2cd981461074b57600080fd5b80636091811714610675578063648bf7741461068b57806370a08231146106ab57806377e071ad146106cb57600080fd5b806342966c681161029b57806342966c68146105f0578063429c66f01461061057806345c8a62b1461063057806350e70d481461065057600080fd5b806332bc320b146105a65780633644e515146105bb5780634000aea0146105d057600080fd5b806318efcce51161032e5780632a0a4ed5116103085780632a0a4ed51461051c5780632b3430991461053a578063313ce5671461055a57806332a7ae951461058657600080fd5b806318efcce5146104a657806319845354146104da57806323b872dd146104fc57600080fd5b80630a81b2de1161036a5780630a81b2de146104105780630c6f0e5d146104255780631703a0181461045d57806318160ddd1461049157600080fd5b806306fdde03146103915780630832e470146103bc578063095ea7b3146103e0575b600080fd5b34801561039d57600080fd5b506103a6610b3c565b6040516103b39190612846565b60405180910390f35b3480156103c857600080fd5b506103d260045481565b6040519081526020016103b3565b3480156103ec57600080fd5b506104006103fb36600461286e565b610c03565b60405190151581526020016103b3565b34801561041c57600080fd5b506103d2610c1a565b34801561043157600080fd5b50600754610445906001600160a01b031681565b6040516001600160a01b0390911681526020016103b3565b34801561046957600080fd5b506103d27f000000000000000000000000000000000000000000000000000000000000000081565b34801561049d57600080fd5b506002546103d2565b3480156104b257600080fd5b506104457f000000000000000000000000000000000000000000000000000000000000000081565b3480156104e657600080fd5b506104fa6104f536600461286e565b610c98565b005b34801561050857600080fd5b5061040061051736600461289a565b610d20565b34801561052857600080fd5b506006546001600160a01b0316610445565b34801561054657600080fd5b506104006105553660046128db565b610d83565b34801561056657600080fd5b506003546105749060ff1681565b60405160ff90911681526020016103b3565b34801561059257600080fd5b506104fa6105a13660046128db565b610d90565b3480156105b257600080fd5b506104fa610e29565b3480156105c757600080fd5b506103d2610e50565b3480156105dc57600080fd5b506104006105eb366004612941565b610ea9565b3480156105fc57600080fd5b506104fa61060b36600461299d565b610f3a565b34801561061c57600080fd5b506104fa61062b3660046129c7565b610f9b565b34801561063c57600080fd5b506104fa61064b3660046128db565b610fec565b34801561065c57600080fd5b506003546104459061010090046001600160a01b031681565b34801561068157600080fd5b506103d260085481565b34801561069757600080fd5b506104fa6106a6366004612a4b565b611010565b3480156106b757600080fd5b506103d26106c63660046128db565b61104c565b3480156106d757600080fd5b506103d26106e63660046128db565b611070565b3480156106f757600080fd5b506104fa610706366004612a84565b611155565b34801561071757600080fd5b506104fa6107263660046128db565b6111b4565b34801561073757600080fd5b50600654610445906001600160a01b031681565b34801561075757600080fd5b5062ed4e006103d2565b34801561076d57600080fd5b506103d261077c3660046128db565b60096020526000908152604090205481565b34801561079a57600080fd5b50600b54610445906001600160a01b031681565b3480156107ba57600080fd5b506104fa61121d565b3480156107cf57600080fd5b506103a661122a565b3480156107e457600080fd5b506104006107f33660046128db565b6112cb565b34801561080457600080fd5b5060045415610400565b34801561081a57600080fd5b506104fa610829366004612ac6565b6112d8565b34801561083a57600080fd5b50610400610849366004612941565b6112ea565b34801561085a57600080fd5b506103d27f000000000000000000000000000000000000000000000000000000000000000081565b34801561088e57600080fd5b5061040061089d36600461286e565b61131c565b3480156108ae57600080fd5b506104006108bd3660046128db565b611328565b3480156108ce57600080fd5b506104fa6108dd36600461286e565b611346565b3480156108ee57600080fd5b50600554610445906001600160a01b031681565b34801561090e57600080fd5b506103d261091d3660046128db565b61136d565b34801561092e57600080fd5b506104fa61093d3660046128db565b611378565b34801561094e57600080fd5b506104457f000000000000000000000000000000000000000000000000000000000000000081565b34801561098257600080fd5b50600b5461040090600160a01b900460ff1681565b3480156109a357600080fd5b506103a66113ae565b3480156109b857600080fd5b506104fa6109c7366004612afb565b61143c565b6104fa6109da366004612b69565b6115f1565b3480156109eb57600080fd5b506103d26109fa366004612a4b565b6117cc565b348015610a0b57600080fd5b506104457f000000000000000000000000000000000000000000000000000000000000000081565b348015610a3f57600080fd5b506104fa610a4e36600461299d565b6117d8565b348015610a5f57600080fd5b506104fa610a6e366004612bb0565b611838565b348015610a7f57600080fd5b506104fa610a8e3660046128db565b611849565b348015610a9f57600080fd5b506103d27f000000000000000000000000000000000000000000000000000000000000000081565b348015610ad357600080fd5b506104fa610ae23660046128db565b61187f565b348015610af357600080fd5b50610400610b02366004612ac6565b6118e3565b348015610b1357600080fd5b506104fa610b22366004612a4b565b6118ef565b348015610b3357600080fd5b50610574600381565b60606000600360019054906101000a90046001600160a01b03166001600160a01b03166306fdde036040518163ffffffff1660e01b8152600401600060405180830381865afa158015610b93573d6000803e3d6000fd5b505050506040513d6000823e601f3d908101601f19168201604052610bbb9190810190612be3565b9050610bc76004541590565b15610bf25780604051602001610bdd9190612c90565b60405160208183030381529060405291505090565b80604051602001610bdd9190612cb8565b6000610c10338484611922565b5060015b92915050565b6000600360019054906101000a90046001600160a01b03166001600160a01b0316633a98ef396040518163ffffffff1660e01b8152600401602060405180830381865afa158015610c6f573d6000803e3d6000fd5b505050506040513d601f19601f82011682018060405250810190610c939190612ce6565b905090565b600654610cad906001600160a01b0316611984565b610cb5610c1a565b81610cbf60025490565b610cc99190612d15565b1115610d1257610cd7610c1a565b81610ce160025490565b610ceb9190612d15565b604051630429590f60e41b8152600481019290925260248201526044015b60405180910390fd5b610d1c82826119af565b5050565b6000610d2d848484611b18565b6000610d3985336117cc565b9050600160ff1b811015610d7657610d518382612d28565b6001600160a01b03861660009081526001602090815260408083203384529091529020555b60019150505b9392505050565b6000610c14826016611b7c565b610daa610da56006546001600160a01b031690565b611984565b6040516332a7ae9560e01b81526001600160a01b0382811660048301527f000000000000000000000000000000000000000000000000000000000000000016906332a7ae95906024015b600060405180830381600087803b158015610e0e57600080fd5b505af1158015610e22573d6000803e3d6000fd5b5050505050565b600554610e3e906001600160a01b0316611984565b600580546001600160a01b0319169055565b604080517f47e79534a245952e8b16893a336b85a3d9ea9fa8c573f3d803afb92a794692186020820152469181019190915230606082015260009060800160405160208183030381529060405280519060200120905090565b6000610eb5858561131c565b8015610f315750604051635260769b60e11b81526001600160a01b0386169063a4c0ed3690610eee903390889088908890600401612d3b565b6020604051808303816000875af1158015610f0d573d6000803e3d6000fd5b505050506040513d601f19601f82011682018060405250810190610f319190612d83565b95945050505050565b610f443382611bbc565b6003546001600160a01b03610100909104166342966c68610f656004541590565b610f7b57600454610f769084612da0565b610f7d565b825b6040518263ffffffff1660e01b8152600401610df491815260200190565b610fa3611c30565b60005b82811015610fe657610fde848483818110610fc357610fc3612db7565b9050602002016020810190610fd891906128db565b836112d8565b600101610fa6565b50505050565b600554611001906001600160a01b0316611984565b61100d81600180611c5d565b50565b6110397f0000000000000000000000000000000000000000000000000000000000000000611984565b610d1c82826110478561104c565b611b18565b6001600160a01b03166000908152602081905260409020546001600160e01b031690565b60008061107c83611cc1565b9050801561108a5792915050565b60006110966004541590565b6110a2576004546110a5565b60015b6003549091506001600160a01b036101009091048116908516036110ca579392505050565b6003546040516377e071ad60e01b81526001600160a01b0386811660048301528392610100900416906377e071ad90602401602060405180830381865afa158015611119573d6000803e3d6000fd5b505050506040513d601f19601f8201168201806040525081019061113d9190612ce6565b6111479190612da0565b949350505050565b50919050565b60065461116a906001600160a01b0316611984565b600a611177828483612e51565b507fe9f2468ecc8d3dff15a70a5909151e6297cee4cf05268eff3d7ef0c696ec50f2600a6040516111a89190612f11565b60405180910390a15050565b6006546111c9906001600160a01b0316611984565b600680546001600160a01b0319166001600160a01b0383169081179091556040519081527fc3977c9522c218453912bcab15964a7788968fbf3fe4d4e2965252c9f07055de9060200160405180910390a150565b6112283360006119af565b565b6060600360019054906101000a90046001600160a01b03166001600160a01b03166395d89b416040518163ffffffff1660e01b8152600401600060405180830381865afa15801561127f573d6000803e3d6000fd5b505050506040513d6000823e601f3d908101601f191682016040526112a79190810190612be3565b6040516020016112b79190612fa1565b604051602081830303815290604052905090565b6000610c14826015611b7c565b6112e0611c30565b610d1c8282611d06565b6003546000906113079061010090046001600160a01b0316611984565b6113118585611d81565b506001949350505050565b6000610d7c8383611ded565b6000611335826014611b7c565b80610c145750610c14826016611b7c565b6003546113639061010090046001600160a01b0316333084611df9565b610d1c8282611d81565b6000610c148261104c565b6113a17f0000000000000000000000000000000000000000000000000000000000000000611984565b61100d81600a6001611c5d565b600a80546113bb90612dcd565b80601f01602080910402602001604051908101604052809291908181526020018280546113e790612dcd565b80156114345780601f1061140957610100808354040283529160200191611434565b820191906000526020600020905b81548152906001019060200180831161141757829003601f168201915b505050505081565b4284101561146657604051630b99fc4b60e31b815260048101859052426024820152604401610d09565b60006001611472610e50565b6001600160a01b038a811660008181526009602090815260409182902080546001810190915582517f6e71edae12b1b97f4d1f60370fef10105fa2faae0126114a169c64845d6126c98184015280840194909452938d166060840152608083018c905260a083019390935260c08083018b90528151808403909101815260e08301909152805192019190912061190160f01b6101008301526101028201929092526101228101919091526101420160408051601f198184030181528282528051602091820120600084529083018083525260ff871690820152606081018590526080810184905260a0016020604051602081039080840390855afa15801561157e573d6000803e3d6000fd5b5050604051601f1901519150506001600160a01b03811615806115b35750876001600160a01b0316816001600160a01b031614155b156115dc57604051632f52260d60e11b81526001600160a01b0382166004820152602401610d09565b6115e7818888611922565b5050505050505050565b60016115fd6004541590565b151581151514611644578015611626576040516305a34cd360e01b815260040160405180910390fd5b806116445760405163291c3d8560e01b815260040160405180910390fd5b604051634dc5e43160e01b815260048101859052336024820152604481018490526001600160a01b0383811660648301527f000000000000000000000000000000000000000000000000000000000000000060848301527f000000000000000000000000000000000000000000000000000000000000000060a48301526000917f000000000000000000000000000000000000000000000000000000000000000090911690634dc5e43190349060c40160206040518083038185885af1158015611712573d6000803e3d6000fd5b50505050506040513d601f19601f820116820180604052508101906117379190612fc6565b9050611741611e60565b156117a657600554604051637b64620f60e11b81526001600160a01b0383811660048301529091169063f6c8c41e90602401600060405180830381600087803b15801561178d57600080fd5b505af11580156117a1573d6000803e3d6000fd5b505050505b600580546001600160a01b0319166001600160a01b039290921691909117905550505050565b6000610d7c8383611ef5565b60006117e46004541590565b15158115151461182b57801561180d576040516305a34cd360e01b815260040160405180910390fd5b8061182b5760405163291c3d8560e01b815260040160405180910390fd5b610d1c3383600454611f01565b611840611c30565b61100d81611f36565b6118727f0000000000000000000000000000000000000000000000000000000000000000611984565b61100d81600a6000611c5d565b611887611c30565b600b546040516001600160a01b038084169216907f8be0079c531659141344cd1fd0a4f28419497f9722a3daafe3b4186f6b6457e090600090a3600b80546001600160a01b0319166001600160a01b0392909216919091179055565b6000610d7c8383611b7c565b600554611904906001600160a01b0316611984565b611918826119118461104c565b6001611f01565b610d1c8183611f6f565b6001600160a01b0383811660008181526001602090815260408083209487168084529482529182902085905590518481527f8c5be1e5ebec7d5bd14f71427d1e84f3dd0314c0f7b2291e5b200ac8c7c3b92591015b60405180910390a3505050565b336001600160a01b0382161461100d57604051634b637e8f60e11b8152336004820152602401610d09565b60006119ba8361104c565b6119c49083612d15565b905060006119d0610c1a565b9050808211156119fd57604051630429590f60e41b81526004810182905260248101839052604401610d09565b611a05611e60565b15611a23576040516331dec02560e21b815260040160405180910390fd5b611a4d7f000000000000000000000000000000000000000000000000000000000000000082612da0565b611a5961271084612da0565b1015611ab757611a897f000000000000000000000000000000000000000000000000000000000000000082612da0565b611a9561271084612da0565b604051634b2737cf60e11b815260048101929092526024820152604401610d09565b611ac18485611f6f565b604080516001600160a01b038616815260208101849052908101849052606081018290527f85e5711a70a7d2bae18e1232af474d82c98600b0e62fe079a28208520b58568e9060800160405180910390a150505050565b611b23838383612132565b611b2d838261213d565b611b3782826121da565b816001600160a01b0316836001600160a01b03167fddf252ad1be2c89b69c2b068fc378daa952ba7f163c4a11628f55a4df523b3ef8360405161197791815260200190565b600080611b8a8360e0612fe3565b6001600160a01b038516600090815260208190526040902054600160ff929092169190911b9081161491505092915050565b611bc882600083612132565b8060026000828254611bda9190612d28565b90915550611bea9050828261213d565b6040518181526000906001600160a01b038416907fddf252ad1be2c89b69c2b068fc378daa952ba7f163c4a11628f55a4df523b3ef906020015b60405180910390a35050565b600b546001600160a01b03163314611228576040516396a19be960e01b8152336004820152602401610d09565b6000611c6a8360e0612fe3565b6001600160a01b038516600090815260208190526040902054600160ff929092169190911b9150808216821483151514610e22576001600160a01b0394909416600090815260208190526040902093189092555050565b6000306001600160a01b03831603611cdb57506001919050565b6007546001600160a01b0390811690831603611cf957505060085490565b506000919050565b919050565b611d1882601460ff8416600114611c5d565b611d2a82601560ff8416600214611c5d565b611d3c82601660ff8416600414611c5d565b60405160ff821681526001600160a01b038316907fe423d7d31023dbacefed7c937785d0012ad8f314381295efebfc0471d2c434549060200160405180910390a25050565b611d8d60008383612132565b8060026000828254611d9f9190612d15565b90915550611daf905082826121da565b6040518181526001600160a01b038316906000907fddf252ad1be2c89b69c2b068fc378daa952ba7f163c4a11628f55a4df523b3ef90602001611c24565b6000610d7c838361227f565b6040516001600160a01b038481166024830152838116604483015260648201839052610fe69186918216906323b872dd906084015b604051602081830303815290604052915060e01b6020820180516001600160e01b03838183161783525050505061231e565b6005546000906001600160a01b031615801590610c935750600560009054906101000a90046001600160a01b03166001600160a01b0316638fe8a1016040518163ffffffff1660e01b8152600401602060405180830381865afa158015611ecb573d6000803e3d6000fd5b505050506040513d601f19601f82011682018060405250810190611eef9190612d83565b15905090565b6000610d7c8383612381565b611f0b8383611bbc565b611f3183611f198385612da0565b60035461010090046001600160a01b03169190612452565b505050565b600b805482158015600160a01b0260ff60a01b1990921691909117909155611f645761100d60006004611d06565b61100d600080611d06565b6001611f7b6004541590565b151581151514611fc2578015611fa4576040516305a34cd360e01b815260040160405180910390fd5b80611fc25760405163291c3d8560e01b815260040160405180910390fd5b6003546040516370a0823160e01b81523060048201526120389184916101009091046001600160a01b0316906370a0823190602401602060405180830381865afa158015612014573d6000803e3d6000fd5b505050506040513d601f19601f82011682018060405250810190611f199190612ce6565b60038054610100600160a81b0319166101006001600160a01b03861602179055600254600010156120e6576120e661206f60025490565b6040516370a0823160e01b81523060048201526001600160a01b038616906370a0823190602401602060405180830381865afa1580156120b3573d6000803e3d6000fd5b505050506040513d601f19601f820116820180604052508101906120d79190612ce6565b6120e19190612ffc565b612483565b7f6c20b91d1723b78732eba64ff11ebd7966a6e4af568a00fa4f6b72c20f58b02a61210f610b3c565b61211761122a565b60405161212592919061301e565b60405180910390a1505050565b611f318383836124a9565b6001600160a01b038216600090815260208190526040812054906121618383612d28565b90506001600160e01b031981166001600160e01b03198316146121b957836121888561104c565b60405163391434e360e21b81526001600160a01b039092166004830152602482015260448101849052606401610d09565b6001600160a01b039093166000908152602081905260409020929092555050565b6001600160a01b03821661220c5760405163ec442f0560e01b81526001600160a01b0383166004820152602401610d09565b6001600160a01b038216600090815260208190526040812054906122308383612d15565b90506001600160e01b031981166001600160e01b03198316146121b957604051634a2e08e560e01b81526001600160a01b03851660048201526024810183905260448101849052606401610d09565b600061228b8383612615565b5061229733600a611b7c565b15610c10576040516304d301a360e41b81523360048201527f00000000000000000000000000000000000000000000000000000000000000006001600160a01b031690634d301a3090602401600060405180830381600087803b1580156122fd57600080fd5b505af1158015612311573d6000803e3d6000fd5b5050505050600192915050565b60006123336001600160a01b03841683612622565b905080516000141580156123585750808060200190518101906123569190612d83565b155b15611f3157604051635274afe760e01b81526001600160a01b0384166004820152602401610d09565b604051632fb6b53160e11b81526001600160a01b03838116600483015282811660248301526000917f000000000000000000000000000000000000000000000000000000000000000090911690635f6d6a6290604401602060405180830381865afa1580156123f4573d6000803e3d6000fd5b505050506040513d601f19601f820116820180604052508101906124189190612d83565b156124265750600019610c14565b506001600160a01b03828116600090815260016020908152604080832093851683529290522054610c14565b6040516001600160a01b03838116602483015260448201839052611f3191859182169063a9059cbb90606401611e2e565b806000036124a457604051631dca7a7560e11b815260040160405180910390fd5b600455565b6124b4838383612630565b6124bd82611328565b611f31576124ca826112cb565b1561251257600b54600160a01b900460ff161561250557604051630329a43160e51b81526001600160a01b0383166004820152602401610d09565b611f318260156000611c5d565b61251b83610d83565b156125715761252d8260146001611c5d565b604051600181526001600160a01b038316907fe423d7d31023dbacefed7c937785d0012ad8f314381295efebfc0471d2c434549060200160405180910390a2505050565b61257c836014611b7c565b156125c457600b54600160a01b900460ff16156125b75760405163dd1aceed60e01b81526001600160a01b0383166004820152602401610d09565b611f318360146000611c5d565b6125cd836112cb565b15611f3157600b54600160a01b900460ff161561260857604051637882255360e11b81526001600160a01b0384166004820152602401610d09565b611f318360156000611c5d565b6000610c10338484611b18565b6060610d7c8383600061263b565b611f31838383612732565b6060825160001415801561265757506001600160a01b0384163b155b1561268057604051639eb1341360e01b81526001600160a01b0385166004820152602401610d09565b600080856001600160a01b0316848660405161269c9190613043565b60006040518083038185875af1925050503d80600081146126d9576040519150601f19603f3d011682016040523d82523d6000602084013e6126de565b606091505b509150915081156126f2579150610d7c9050565b80511561270157805160208201fd5b60405162461bcd60e51b815260206004820152600660248201526519985a5b195960d21b6044820152606401610d09565b61273b836127e9565b8061274a575061274a826127e9565b15611f3157612757611e60565b156127cf5760055460405163e1a1810f60e01b81526001600160a01b0385811660048301528481166024830152604482018490529091169063e1a1810f90606401600060405180830381600087803b1580156127b257600080fd5b505af11580156127c6573d6000803e3d6000fd5b50505050505050565b6127dc8360016000611c5d565b611f318260016000611c5d565b6000610c14826001611b7c565b60005b838110156128115781810151838201526020016127f9565b50506000910152565b600081518084526128328160208601602086016127f6565b601f01601f19169290920160200192915050565b602081526000610d7c602083018461281a565b6001600160a01b038116811461100d57600080fd5b6000806040838503121561288157600080fd5b823561288c81612859565b946020939093013593505050565b6000806000606084860312156128af57600080fd5b83356128ba81612859565b925060208401356128ca81612859565b929592945050506040919091013590565b6000602082840312156128ed57600080fd5b8135610d7c81612859565b60008083601f84011261290a57600080fd5b50813567ffffffffffffffff81111561292257600080fd5b60208301915083602082850101111561293a57600080fd5b9250929050565b6000806000806060858703121561295757600080fd5b843561296281612859565b935060208501359250604085013567ffffffffffffffff81111561298557600080fd5b612991878288016128f8565b95989497509550505050565b6000602082840312156129af57600080fd5b5035919050565b803560ff81168114611d0157600080fd5b6000806000604084860312156129dc57600080fd5b833567ffffffffffffffff808211156129f457600080fd5b818601915086601f830112612a0857600080fd5b813581811115612a1757600080fd5b8760208260051b8501011115612a2c57600080fd5b602092830195509350612a4291860190506129b6565b90509250925092565b60008060408385031215612a5e57600080fd5b8235612a6981612859565b91506020830135612a7981612859565b809150509250929050565b60008060208385031215612a9757600080fd5b823567ffffffffffffffff811115612aae57600080fd5b612aba858286016128f8565b90969095509350505050565b60008060408385031215612ad957600080fd5b8235612ae481612859565b9150612af2602084016129b6565b90509250929050565b600080600080600080600060e0888a031215612b1657600080fd5b8735612b2181612859565b96506020880135612b3181612859565b95506040880135945060608801359350612b4d608089016129b6565b925060a0880135915060c0880135905092959891949750929550565b600080600060608486031215612b7e57600080fd5b83359250602084013591506040840135612b9781612859565b809150509250925092565b801515811461100d57600080fd5b600060208284031215612bc257600080fd5b8135610d7c81612ba2565b634e487b7160e01b600052604160045260246000fd5b600060208284031215612bf557600080fd5b815167ffffffffffffffff80821115612c0d57600080fd5b818401915084601f830112612c2157600080fd5b815181811115612c3357612c33612bcd565b604051601f8201601f19908116603f01168101908382118183101715612c5b57612c5b612bcd565b81604052828152876020848701011115612c7457600080fd5b612c858360208301602088016127f6565b979650505050505050565b60008251612ca28184602087016127f6565b632053484160e01b920191825250600401919050565b60008251612cca8184602087016127f6565b692028577261707065642960b01b920191825250600a01919050565b600060208284031215612cf857600080fd5b5051919050565b634e487b7160e01b600052601160045260246000fd5b80820180821115610c1457610c14612cff565b81810381811115610c1457610c14612cff565b6001600160a01b0385168152602081018490526060604082018190528101829052818360808301376000818301608090810191909152601f909201601f191601019392505050565b600060208284031215612d9557600080fd5b8151610d7c81612ba2565b8082028115828204841417610c1457610c14612cff565b634e487b7160e01b600052603260045260246000fd5b600181811c90821680612de157607f821691505b60208210810361114f57634e487b7160e01b600052602260045260246000fd5b601f821115611f31576000816000526020600020601f850160051c81016020861015612e2a5750805b601f850160051c820191505b81811015612e4957828155600101612e36565b505050505050565b67ffffffffffffffff831115612e6957612e69612bcd565b612e7d83612e778354612dcd565b83612e01565b6000601f841160018114612eb15760008515612e995750838201355b600019600387901b1c1916600186901b178355610e22565b600083815260209020601f19861690835b82811015612ee25786850135825560209485019460019092019101612ec2565b5086821015612eff5760001960f88860031b161c19848701351681555b505060018560011b0183555050505050565b6000602080835260008454612f2581612dcd565b8060208701526040600180841660008114612f475760018114612f6357612f93565b60ff19851660408a0152604084151560051b8a01019550612f93565b89600052602060002060005b85811015612f8a5781548b8201860152908301908801612f6f565b8a016040019650505b509398975050505050505050565b60008251612fb38184602087016127f6565b605360f81b920191825250600101919050565b600060208284031215612fd857600080fd5b8151610d7c81612859565b60ff8181168382160190811115610c1457610c14612cff565b60008261301957634e487b7160e01b600052601260045260246000fd5b500490565b604081526000613031604083018561281a565b8281036020840152610f31818561281a565b600082516130558184602087016127f6565b919091019291505056fea26469706673582212208929d01df4aaa37b760d0a23552b06f01eda02168725ba2748fc6611ab59777764736f6c63430008190033a264697066735822122046c4d06c69f604bb806126db0cee2496e2900871e2594429b7eb647e82a2b80c64736f6c63430008190033",
  "devdoc": {
    "author": "rube ",
    "details": "Inherits from Ownable for access control",
    "events": {
      "FactoryManagerUpdated(address)": {
        "params": {
          "manager": "The new factory manager address"
        }
      }
    },
    "kind": "dev",
    "methods": {
      "constructor": {
        "params": {
          "_owner": "The address that will be set as the owner of the contract"
        }
      },
      "createAllowlistDraggable((string,string,string,bool,bool,uint256,uint256,uint256,uint256),address,address,string)": {
        "params": {
          "token": "The address of the ERC20Permit token to be used",
          "tokenConfig": "The configuration for the new token",
          "tokenOwner": "The address that will own the new token"
        },
        "returns": {
          "_0": "IERC20Permit The address of the newly created AllowlistDraggableShares token"
        }
      },
      "setManager(address)": {
        "details": "Can only be called by the contract owner",
        "params": {
          "_manager": "The address of the new factory manager"
        }
      },
      "transferOwnership(address)": {
        "details": "Transfers ownership of the contract to a new account (`newOwner`). Can only be called by the current owner."
      }
    },
    "title": "Allowlist draggable factory",
    "version": 1
  },
  "userdoc": {
    "events": {
      "FactoryManagerUpdated(address)": {
        "notice": "Emitted when the factory manager is updated"
      }
    },
    "kind": "user",
    "methods": {
      "constructor": {
        "notice": "Constructs a new AllowlistDraggableFactory"
      },
      "createAllowlistDraggable((string,string,string,bool,bool,uint256,uint256,uint256,uint256),address,address,string)": {
        "notice": "Creates a new AllowlistDraggableShares token"
      },
      "manager()": {
        "notice": "The factory manager contract"
      },
      "setManager(address)": {
        "notice": "Sets a new factory manager"
      }
    },
    "notice": "This contract is responsible for creating new AllowlistDraggableShares tokens",
    "version": 1
  },
  "storageLayout": {
    "storage": [
      {
        "astId": 13475,
        "contract": "src/utils/factory/AllowlistDraggableFactory.sol:AllowlistDraggableFactory",
        "label": "owner",
        "offset": 0,
        "slot": "0",
        "type": "t_address"
      },
      {
        "astId": 14247,
        "contract": "src/utils/factory/AllowlistDraggableFactory.sol:AllowlistDraggableFactory",
        "label": "manager",
        "offset": 0,
        "slot": "1",
        "type": "t_contract(FactoryManager)14802"
      }
    ],
    "types": {
      "t_address": {
        "encoding": "inplace",
        "label": "address",
        "numberOfBytes": "20"
      },
      "t_contract(FactoryManager)14802": {
        "encoding": "inplace",
        "label": "contract FactoryManager",
        "numberOfBytes": "20"
      }
    }
  }
}