{
  "address": "0x312E5D57c05604726107369D9AA9a6e00836DF59",
  "abi": [
    {
      "inputs": [
        {
          "internalType": "address",
          "name": "_owner",
          "type": "address"
        }
      ],
      "stateMutability": "nonpayable",
      "type": "constructor"
    },
    {
      "inputs": [
        {
          "internalType": "address",
          "name": "sender",
          "type": "address"
        }
      ],
      "name": "Ownable_NotOwner",
      "type": "error"
    },
    {
      "anonymous": false,
      "inputs": [
        {
          "indexed": false,
          "internalType": "contract FactoryManager",
          "name": "manager",
          "type": "address"
        }
      ],
      "name": "FactoryManagerUpdated",
      "type": "event"
    },
    {
      "anonymous": false,
      "inputs": [
        {
          "indexed": true,
          "internalType": "address",
          "name": "previousOwner",
          "type": "address"
        },
        {
          "indexed": true,
          "internalType": "address",
          "name": "newOwner",
          "type": "address"
        }
      ],
      "name": "OwnershipTransferred",
      "type": "event"
    },
    {
      "inputs": [
        {
          "components": [
            {
              "internalType": "string",
              "name": "name",
              "type": "string"
            },
            {
              "internalType": "string",
              "name": "symbol",
              "type": "string"
            },
            {
              "internalType": "string",
              "name": "terms",
              "type": "string"
            },
            {
              "internalType": "bool",
              "name": "allowlist",
              "type": "bool"
            },
            {
              "internalType": "bool",
              "name": "draggable",
              "type": "bool"
            },
            {
              "internalType": "uint256",
              "name": "numberOfShares",
              "type": "uint256"
            },
            {
              "internalType": "uint256",
              "name": "quorumDrag",
              "type": "uint256"
            },
            {
              "internalType": "uint256",
              "name": "quorumMigration",
              "type": "uint256"
            },
            {
              "internalType": "uint256",
              "name": "votePeriod",
              "type": "uint256"
            }
          ],
          "internalType": "struct TokenConfig",
          "name": "tokenConfig",
          "type": "tuple"
        },
        {
          "internalType": "address",
          "name": "tokenOwner",
          "type": "address"
        },
        {
          "internalType": "contract IERC20Permit",
          "name": "token",
          "type": "address"
        },
        {
          "internalType": "string",
          "name": "_salt",
          "type": "string"
        }
      ],
      "name": "createDraggable",
      "outputs": [
        {
          "internalType": "contract IERC20Permit",
          "name": "",
          "type": "address"
        }
      ],
      "stateMutability": "nonpayable",
      "type": "function"
    },
    {
      "inputs": [],
      "name": "manager",
      "outputs": [
        {
          "internalType": "contract FactoryManager",
          "name": "",
          "type": "address"
        }
      ],
      "stateMutability": "view",
      "type": "function"
    },
    {
      "inputs": [],
      "name": "owner",
      "outputs": [
        {
          "internalType": "address",
          "name": "",
          "type": "address"
        }
      ],
      "stateMutability": "view",
      "type": "function"
    },
    {
      "inputs": [
        {
          "internalType": "contract FactoryManager",
          "name": "_manager",
          "type": "address"
        }
      ],
      "name": "setManager",
      "outputs": [],
      "stateMutability": "nonpayable",
      "type": "function"
    },
    {
      "inputs": [
        {
          "internalType": "address",
          "name": "newOwner",
          "type": "address"
        }
      ],
      "name": "transferOwnership",
      "outputs": [],
      "stateMutability": "nonpayable",
      "type": "function"
    }
  ],
  "transactionHash": "0xd1d9b0182da276e13948227d1f03a63dfd12ef2c5654053acfb0fe9fa58b253d",
  "args": [
    "0x39E5351E6CE3c4B19B8b0a2F5C82c511782457BE"
  ],
  "numDeployments": 3,
  "solcInputHash": "84fcf43a3cf19c826709a737ca49661c",
  "bytecode": "0x6080604052348015600f57600080fd5b5060405161367a38038061367a833981016040819052602c91607a565b600080546001600160a01b0319166001600160a01b03831690811782556040518392907f8be0079c531659141344cd1fd0a4f28419497f9722a3daafe3b4186f6b6457e0908290a3505060a8565b600060208284031215608b57600080fd5b81516001600160a01b038116811460a157600080fd5b9392505050565b6135c3806100b76000396000f3fe608060405234801561001057600080fd5b50600436106100575760003560e01c8063481c6a751461005c5780638da5cb5b1461008b578063a765f45c1461009e578063d0ebdbe7146100b1578063f2fde38b146100c6575b600080fd5b60015461006f906001600160a01b031681565b6040516001600160a01b03909116815260200160405180910390f35b60005461006f906001600160a01b031681565b61006f6100ac36600461040b565b6100d9565b6100c46100bf3660046104d2565b6102f4565b005b6100c46100d43660046104d2565b610350565b6000806100e960208801886104f6565b868686604051602001610100959493929190610544565b60408051601f1981840301815282825280516020918201206080840183526001600160a01b038916845260c08b01359184019190915260e08a0135838301526101008a013560608401529250829061015a908a018a6104f6565b60015460408051639220623b60e01b8152905186926001600160a01b031691639220623b9160048083019260209291908290030181865afa1580156101a3573d6000803e3d6000fd5b505050506040513d601f19601f820116820180604052508101906101c7919061057e565b600160009054906101000a90046001600160a01b03166001600160a01b031663ecd7cf786040518163ffffffff1660e01b8152600401602060405180830381865afa15801561021a573d6000803e3d6000fd5b505050506040513d601f19601f8201168201806040525081019061023e919061057e565b600154604080516318efcce560e01b815290518f926001600160a01b0316916318efcce59160048083019260209291908290030181865afa158015610287573d6000803e3d6000fd5b505050506040513d601f19601f820116820180604052508101906102ab919061057e565b6040516102b7906103e6565b6102c7979695949392919061059b565b8190604051809103906000f59050801580156102e7573d6000803e3d6000fd5b5098975050505050505050565b6102fc6103b3565b600180546001600160a01b0319166001600160a01b0383169081179091556040519081527f7374c03893422e168ea189118b40932f7c665b7dbcd921b4d7580ca758cc1e409060200160405180910390a150565b6103586103b3565b600080546040516001600160a01b03808516939216917f8be0079c531659141344cd1fd0a4f28419497f9722a3daafe3b4186f6b6457e091a3600080546001600160a01b0319166001600160a01b0392909216919091179055565b6000546001600160a01b031633146103e4576040516396a19be960e01b815233600482015260240160405180910390fd5b565b612f498061064583390190565b6001600160a01b038116811461040857600080fd5b50565b60008060008060006080868803121561042357600080fd5b853567ffffffffffffffff8082111561043b57600080fd5b90870190610120828a03121561045057600080fd5b909550602087013590610462826103f3565b909450604087013590610474826103f3565b9093506060870135908082111561048a57600080fd5b818801915088601f83011261049e57600080fd5b8135818111156104ad57600080fd5b8960208285010111156104bf57600080fd5b9699959850939650602001949392505050565b6000602082840312156104e457600080fd5b81356104ef816103f3565b9392505050565b6000808335601e1984360301811261050d57600080fd5b83018035915067ffffffffffffffff82111561052857600080fd5b60200191503681900382131561053d57600080fd5b9250929050565b8486823760008582016bffffffffffffffffffffffff198660601b1681528385601483013760009301601401928352509095945050505050565b60006020828403121561059057600080fd5b81516104ef816103f3565b61012080825281018790526000610140888a828501376000818a8501015280601f19601f8b011684010191505060018060a01b03875116602083015260208701516040830152604087015160608301526060870151608083015261060a60a08301876001600160a01b03169052565b6001600160a01b03851660c08301526001600160a01b03841660e08301526001600160a01b0383166101008301529897505050505050505056fe610140604052600060045534801561001657600080fd5b50604051612f49380380612f49833981016040819052610035916101ec565b6003805486516001600160a81b03199091166101006001600160a01b03928316810291909117909255602087015160c052604087015160a052606087015160e052848116608052600680546001600160a01b031916858316179055858116909152811661012052600a6100a88782610377565b50604051636427ed9760e01b8152600060048201526001600160a01b03851690636427ed9790602401600060405180830381600087803b1580156100eb57600080fd5b505af11580156100ff573d6000803e3d6000fd5b50505050505050505050610436565b634e487b7160e01b600052604160045260246000fd5b604051601f8201601f191681016001600160401b038111828210171561014c5761014c61010e565b604052919050565b6001600160a01b038116811461016957600080fd5b50565b60006080828403121561017e57600080fd5b604051608081016001600160401b03811182821017156101a0576101a061010e565b806040525080915082516101b381610154565b808252506020830151602082015260408301516040820152606083015160608201525092915050565b80516101e781610154565b919050565b600080600080600080610120878903121561020657600080fd5b86516001600160401b038082111561021d57600080fd5b818901915089601f83011261023157600080fd5b8151818111156102435761024361010e565b60209150610259601f8201601f19168301610124565b8181528b8383860101111561026d57600080fd5b60005b8281101561028b578481018401518282018501528301610270565b50600083838301015280995050506102a58a828b0161016c565b965050506102b560a088016101dc565b93506102c360c088016101dc565b92506102d160e088016101dc565b91506102e061010088016101dc565b90509295509295509295565b600181811c9082168061030057607f821691505b60208210810361032057634e487b7160e01b600052602260045260246000fd5b50919050565b601f821115610372576000816000526020600020601f850160051c8101602086101561034f5750805b601f850160051c820191505b8181101561036e5782815560010161035b565b5050505b505050565b81516001600160401b038111156103905761039061010e565b6103a48161039e84546102ec565b84610326565b602080601f8311600181146103d957600084156103c15750858301515b600019600386901b1c1916600185901b17855561036e565b600085815260208120601f198616915b82811015610408578886015182559484019460019091019084016103e9565b50858210156104265787850151600019600388901b60f8161c191681555b5050505050600190811b01905550565b60805160a05160c05160e0516101005161012051612a776104d2600039600081816103f50152611bdc01526000818161086d01528181610bd801528181610dd3015281816110fe015281816115be0152611a430152600081816106fd015261141e0152600081816103ac01526113f80152600081816108e10152818161173401526117700152600081816107d101526114470152612a776000f3fe6080604052600436106102c95760003560e01c80637dc0d1d011610175578063c18172c4116100dc578063ddceafa911610095578063efa405121161006f578063efa40512146108cf578063f5c0b95f14610903578063fcb79a7e14610923578063ffa1ad741461094357600080fd5b8063ddceafa91461085b578063de0e9a3e1461088f578063e5b824ec146108af57600080fd5b8063c18172c41461079f578063c45a0155146107bf578063d5025625146107f3578063d505accf14610808578063dcc7d4ad14610828578063dd62ed3e1461083b57600080fd5b8063a4c0ed361161012e578063a4c0ed36146106cb578063a7813587146106eb578063a9059cbb1461071f578063bf376c7a1461073f578063c028df061461075f578063c07473f61461077f57600080fd5b80637dc0d1d0146106285780637dc2cd98146106485780637ecebe001461065e5780638fd3ab801461068b57806395d89b41146106a05780639e4b5745146106b557600080fd5b806332a7ae951161023457806350e70d48116101ed57806370a08231116101c757806370a08231146105a857806377e071ad146105c857806378f86afc146105e85780637adbf9731461060857600080fd5b806350e70d481461054d5780636091811714610572578063648bf7741461058857600080fd5b806332a7ae95146104a357806332bc320b146104c35780633644e515146104d85780634000aea0146104ed57806342966c681461050d57806345c8a62b1461052d57600080fd5b806318160ddd1161028657806318160ddd146103ce57806318efcce5146103e3578063198453541461041757806323b872dd146104395780632a0a4ed514610459578063313ce5671461047757600080fd5b806306fdde03146102ce5780630832e470146102f9578063095ea7b31461031d5780630a81b2de1461034d5780630c6f0e5d146103625780631703a0181461039a575b600080fd5b3480156102da57600080fd5b506102e3610958565b6040516102f091906122e8565b60405180910390f35b34801561030557600080fd5b5061030f60045481565b6040519081526020016102f0565b34801561032957600080fd5b5061033d610338366004612310565b610a1f565b60405190151581526020016102f0565b34801561035957600080fd5b5061030f610a36565b34801561036e57600080fd5b50600754610382906001600160a01b031681565b6040516001600160a01b0390911681526020016102f0565b3480156103a657600080fd5b5061030f7f000000000000000000000000000000000000000000000000000000000000000081565b3480156103da57600080fd5b5060025461030f565b3480156103ef57600080fd5b506103827f000000000000000000000000000000000000000000000000000000000000000081565b34801561042357600080fd5b50610437610432366004612310565b610ab4565b005b34801561044557600080fd5b5061033d61045436600461233c565b610b3c565b34801561046557600080fd5b506006546001600160a01b0316610382565b34801561048357600080fd5b506003546104919060ff1681565b60405160ff90911681526020016102f0565b3480156104af57600080fd5b506104376104be36600461237d565b610b9f565b3480156104cf57600080fd5b50610437610c38565b3480156104e457600080fd5b5061030f610c5f565b3480156104f957600080fd5b5061033d6105083660046123e3565b610cb8565b34801561051957600080fd5b5061043761052836600461243f565b610d49565b34801561053957600080fd5b5061043761054836600461237d565b610daa565b34801561055957600080fd5b506003546103829061010090046001600160a01b031681565b34801561057e57600080fd5b5061030f60085481565b34801561059457600080fd5b506104376105a3366004612458565b610dce565b3480156105b457600080fd5b5061030f6105c336600461237d565b610e0a565b3480156105d457600080fd5b5061030f6105e336600461237d565b610e2e565b3480156105f457600080fd5b50610437610603366004612491565b610f13565b34801561061457600080fd5b5061043761062336600461237d565b610f72565b34801561063457600080fd5b50600654610382906001600160a01b031681565b34801561065457600080fd5b5062ed4e0061030f565b34801561066a57600080fd5b5061030f61067936600461237d565b60096020526000908152604090205481565b34801561069757600080fd5b50610437610fdb565b3480156106ac57600080fd5b506102e3610fe8565b3480156106c157600080fd5b506004541561033d565b3480156106d757600080fd5b5061033d6106e63660046123e3565b611089565b3480156106f757600080fd5b5061030f7f000000000000000000000000000000000000000000000000000000000000000081565b34801561072b57600080fd5b5061033d61073a366004612310565b6110bb565b34801561074b57600080fd5b5061043761075a366004612310565b6110c7565b34801561076b57600080fd5b50600554610382906001600160a01b031681565b34801561078b57600080fd5b5061030f61079a36600461237d565b6110ee565b3480156107ab57600080fd5b506104376107ba36600461237d565b6110f9565b3480156107cb57600080fd5b506103827f000000000000000000000000000000000000000000000000000000000000000081565b3480156107ff57600080fd5b506102e361112f565b34801561081457600080fd5b506104376108233660046124e4565b6111bd565b610437610836366004612552565b611372565b34801561084757600080fd5b5061030f610856366004612458565b61154d565b34801561086757600080fd5b506103827f000000000000000000000000000000000000000000000000000000000000000081565b34801561089b57600080fd5b506104376108aa36600461243f565b611559565b3480156108bb57600080fd5b506104376108ca36600461237d565b6115b9565b3480156108db57600080fd5b5061030f7f000000000000000000000000000000000000000000000000000000000000000081565b34801561090f57600080fd5b5061033d61091e36600461258b565b6115ef565b34801561092f57600080fd5b5061043761093e366004612458565b6115fb565b34801561094f57600080fd5b50610491600381565b60606000600360019054906101000a90046001600160a01b03166001600160a01b03166306fdde036040518163ffffffff1660e01b8152600401600060405180830381865afa1580156109af573d6000803e3d6000fd5b505050506040513d6000823e601f3d908101601f191682016040526109d791908101906125d6565b90506109e36004541590565b15610a0e57806040516020016109f99190612683565b60405160208183030381529060405291505090565b806040516020016109f991906126ab565b6000610a2c33848461162e565b5060015b92915050565b6000600360019054906101000a90046001600160a01b03166001600160a01b0316633a98ef396040518163ffffffff1660e01b8152600401602060405180830381865afa158015610a8b573d6000803e3d6000fd5b505050506040513d601f19601f82011682018060405250810190610aaf91906126d9565b905090565b600654610ac9906001600160a01b0316611690565b610ad1610a36565b81610adb60025490565b610ae59190612708565b1115610b2e57610af3610a36565b81610afd60025490565b610b079190612708565b604051630429590f60e41b8152600481019290925260248201526044015b60405180910390fd5b610b3882826116bb565b5050565b6000610b49848484611824565b6000610b55853361154d565b9050600160ff1b811015610b9257610b6d838261271b565b6001600160a01b03861660009081526001602090815260408083203384529091529020555b60019150505b9392505050565b610bb9610bb46006546001600160a01b031690565b611690565b6040516332a7ae9560e01b81526001600160a01b0382811660048301527f000000000000000000000000000000000000000000000000000000000000000016906332a7ae95906024015b600060405180830381600087803b158015610c1d57600080fd5b505af1158015610c31573d6000803e3d6000fd5b5050505050565b600554610c4d906001600160a01b0316611690565b600580546001600160a01b0319169055565b604080517f47e79534a245952e8b16893a336b85a3d9ea9fa8c573f3d803afb92a794692186020820152469181019190915230606082015260009060800160405160208183030381529060405280519060200120905090565b6000610cc485856110bb565b8015610d405750604051635260769b60e11b81526001600160a01b0386169063a4c0ed3690610cfd90339088908890889060040161272e565b6020604051808303816000875af1158015610d1c573d6000803e3d6000fd5b505050506040513d601f19601f82011682018060405250810190610d409190612776565b95945050505050565b610d533382611888565b6003546001600160a01b03610100909104166342966c68610d746004541590565b610d8a57600454610d859084612798565b610d8c565b825b6040518263ffffffff1660e01b8152600401610c0391815260200190565b600554610dbf906001600160a01b0316611690565b610dcb816001806118fc565b50565b610df77f0000000000000000000000000000000000000000000000000000000000000000611690565b610b388282610e0585610e0a565b611824565b6001600160a01b03166000908152602081905260409020546001600160e01b031690565b600080610e3a83611960565b90508015610e485792915050565b6000610e546004541590565b610e6057600454610e63565b60015b6003549091506001600160a01b03610100909104811690851603610e88579392505050565b6003546040516377e071ad60e01b81526001600160a01b0386811660048301528392610100900416906377e071ad90602401602060405180830381865afa158015610ed7573d6000803e3d6000fd5b505050506040513d601f19601f82011682018060405250810190610efb91906126d9565b610f059190612798565b949350505050565b50919050565b600654610f28906001600160a01b0316611690565b600a610f35828483612833565b507fe9f2468ecc8d3dff15a70a5909151e6297cee4cf05268eff3d7ef0c696ec50f2600a604051610f6691906128f3565b60405180910390a15050565b600654610f87906001600160a01b0316611690565b600680546001600160a01b0319166001600160a01b0383169081179091556040519081527fc3977c9522c218453912bcab15964a7788968fbf3fe4d4e2965252c9f07055de9060200160405180910390a150565b610fe63360006116bb565b565b6060600360019054906101000a90046001600160a01b03166001600160a01b03166395d89b416040518163ffffffff1660e01b8152600401600060405180830381865afa15801561103d573d6000803e3d6000fd5b505050506040513d6000823e601f3d908101601f1916820160405261106591908101906125d6565b6040516020016110759190612983565b604051602081830303815290604052905090565b6003546000906110a69061010090046001600160a01b0316611690565b6110b085856119a5565b506001949350505050565b6000610b988383611a11565b6003546110e49061010090046001600160a01b0316333084611ab0565b610b3882826119a5565b6000610a3082610e0a565b6111227f0000000000000000000000000000000000000000000000000000000000000000611690565b610dcb81600a60016118fc565b600a805461113c906127af565b80601f0160208091040260200160405190810160405280929190818152602001828054611168906127af565b80156111b55780601f1061118a576101008083540402835291602001916111b5565b820191906000526020600020905b81548152906001019060200180831161119857829003601f168201915b505050505081565b428410156111e757604051630b99fc4b60e31b815260048101859052426024820152604401610b25565b600060016111f3610c5f565b6001600160a01b038a811660008181526009602090815260409182902080546001810190915582517f6e71edae12b1b97f4d1f60370fef10105fa2faae0126114a169c64845d6126c98184015280840194909452938d166060840152608083018c905260a083019390935260c08083018b90528151808403909101815260e08301909152805192019190912061190160f01b6101008301526101028201929092526101228101919091526101420160408051601f198184030181528282528051602091820120600084529083018083525260ff871690820152606081018590526080810184905260a0016020604051602081039080840390855afa1580156112ff573d6000803e3d6000fd5b5050604051601f1901519150506001600160a01b03811615806113345750876001600160a01b0316816001600160a01b031614155b1561135d57604051632f52260d60e11b81526001600160a01b0382166004820152602401610b25565b61136881888861162e565b5050505050505050565b600161137e6004541590565b1515811515146113c55780156113a7576040516305a34cd360e01b815260040160405180910390fd5b806113c55760405163291c3d8560e01b815260040160405180910390fd5b604051634dc5e43160e01b815260048101859052336024820152604481018490526001600160a01b0383811660648301527f000000000000000000000000000000000000000000000000000000000000000060848301527f000000000000000000000000000000000000000000000000000000000000000060a48301526000917f000000000000000000000000000000000000000000000000000000000000000090911690634dc5e43190349060c40160206040518083038185885af1158015611493573d6000803e3d6000fd5b50505050506040513d601f19601f820116820180604052508101906114b891906129a8565b90506114c2611b1d565b1561152757600554604051637b64620f60e11b81526001600160a01b0383811660048301529091169063f6c8c41e90602401600060405180830381600087803b15801561150e57600080fd5b505af1158015611522573d6000803e3d6000fd5b505050505b600580546001600160a01b0319166001600160a01b039290921691909117905550505050565b6000610b988383611bb2565b60006115656004541590565b1515811515146115ac57801561158e576040516305a34cd360e01b815260040160405180910390fd5b806115ac5760405163291c3d8560e01b815260040160405180910390fd5b610b383383600454611c83565b6115e27f0000000000000000000000000000000000000000000000000000000000000000611690565b610dcb81600a60006118fc565b6000610b988383611cb8565b600554611610906001600160a01b0316611690565b6116248261161d84610e0a565b6001611c83565b610b388183611cf8565b6001600160a01b0383811660008181526001602090815260408083209487168084529482529182902085905590518481527f8c5be1e5ebec7d5bd14f71427d1e84f3dd0314c0f7b2291e5b200ac8c7c3b92591015b60405180910390a3505050565b336001600160a01b03821614610dcb57604051634b637e8f60e11b8152336004820152602401610b25565b60006116c683610e0a565b6116d09083612708565b905060006116dc610a36565b90508082111561170957604051630429590f60e41b81526004810182905260248101839052604401610b25565b611711611b1d565b1561172f576040516331dec02560e21b815260040160405180910390fd5b6117597f000000000000000000000000000000000000000000000000000000000000000082612798565b61176561271084612798565b10156117c3576117957f000000000000000000000000000000000000000000000000000000000000000082612798565b6117a161271084612798565b604051634b2737cf60e11b815260048101929092526024820152604401610b25565b6117cd8485611cf8565b604080516001600160a01b038616815260208101849052908101849052606081018290527f85e5711a70a7d2bae18e1232af474d82c98600b0e62fe079a28208520b58568e9060800160405180910390a150505050565b61182f838383611ebb565b6118398382611ec6565b6118438282611f63565b816001600160a01b0316836001600160a01b03167fddf252ad1be2c89b69c2b068fc378daa952ba7f163c4a11628f55a4df523b3ef8360405161168391815260200190565b61189482600083611ebb565b80600260008282546118a6919061271b565b909155506118b690508282611ec6565b6040518181526000906001600160a01b038416907fddf252ad1be2c89b69c2b068fc378daa952ba7f163c4a11628f55a4df523b3ef906020015b60405180910390a35050565b60006119098360e06129c5565b6001600160a01b038516600090815260208190526040902054600160ff929092169190911b9150808216821483151514610c31576001600160a01b0394909416600090815260208190526040902093189092555050565b6000306001600160a01b0383160361197a57506001919050565b6007546001600160a01b039081169083160361199857505060085490565b506000919050565b919050565b6119b160008383611ebb565b80600260008282546119c39190612708565b909155506119d390508282611f63565b6040518181526001600160a01b038316906000907fddf252ad1be2c89b69c2b068fc378daa952ba7f163c4a11628f55a4df523b3ef906020016118f0565b6000611a1d8383612008565b50611a2933600a611cb8565b15610a2c576040516304d301a360e41b81523360048201527f00000000000000000000000000000000000000000000000000000000000000006001600160a01b031690634d301a3090602401600060405180830381600087803b158015611a8f57600080fd5b505af1158015611aa3573d6000803e3d6000fd5b5050505050600192915050565b6040516001600160a01b038481166024830152838116604483015260648201839052611b179186918216906323b872dd906084015b604051602081830303815290604052915060e01b6020820180516001600160e01b038381831617835250505050612015565b50505050565b6005546000906001600160a01b031615801590610aaf5750600560009054906101000a90046001600160a01b03166001600160a01b0316638fe8a1016040518163ffffffff1660e01b8152600401602060405180830381865afa158015611b88573d6000803e3d6000fd5b505050506040513d601f19601f82011682018060405250810190611bac9190612776565b15905090565b604051632fb6b53160e11b81526001600160a01b03838116600483015282811660248301526000917f000000000000000000000000000000000000000000000000000000000000000090911690635f6d6a6290604401602060405180830381865afa158015611c25573d6000803e3d6000fd5b505050506040513d601f19601f82011682018060405250810190611c499190612776565b15611c575750600019610a30565b506001600160a01b03828116600090815260016020908152604080832093851683529290522054610a30565b611c8d8383611888565b611cb383611c9b8385612798565b60035461010090046001600160a01b03169190612078565b505050565b600080611cc68360e06129c5565b6001600160a01b038516600090815260208190526040902054600160ff929092169190911b9081161491505092915050565b6001611d046004541590565b151581151514611d4b578015611d2d576040516305a34cd360e01b815260040160405180910390fd5b80611d4b5760405163291c3d8560e01b815260040160405180910390fd5b6003546040516370a0823160e01b8152306004820152611dc19184916101009091046001600160a01b0316906370a0823190602401602060405180830381865afa158015611d9d573d6000803e3d6000fd5b505050506040513d601f19601f82011682018060405250810190611c9b91906126d9565b60038054610100600160a81b0319166101006001600160a01b0386160217905560025460001015611e6f57611e6f611df860025490565b6040516370a0823160e01b81523060048201526001600160a01b038616906370a0823190602401602060405180830381865afa158015611e3c573d6000803e3d6000fd5b505050506040513d601f19601f82011682018060405250810190611e6091906126d9565b611e6a91906129de565b6120a9565b7f6c20b91d1723b78732eba64ff11ebd7966a6e4af568a00fa4f6b72c20f58b02a611e98610958565b611ea0610fe8565b604051611eae929190612a00565b60405180910390a1505050565b611cb38383836120cf565b6001600160a01b03821660009081526020819052604081205490611eea838361271b565b90506001600160e01b031981166001600160e01b0319831614611f425783611f1185610e0a565b60405163391434e360e21b81526001600160a01b039092166004830152602482015260448101849052606401610b25565b6001600160a01b039093166000908152602081905260409020929092555050565b6001600160a01b038216611f955760405163ec442f0560e01b81526001600160a01b0383166004820152602401610b25565b6001600160a01b03821660009081526020819052604081205490611fb98383612708565b90506001600160e01b031981166001600160e01b0319831614611f4257604051634a2e08e560e01b81526001600160a01b03851660048201526024810183905260448101849052606401610b25565b6000610a2c338484611824565b600061202a6001600160a01b03841683612186565b9050805160001415801561204f57508080602001905181019061204d9190612776565b155b15611cb357604051635274afe760e01b81526001600160a01b0384166004820152602401610b25565b6040516001600160a01b03838116602483015260448201839052611cb391859182169063a9059cbb90606401611ae5565b806000036120ca57604051631dca7a7560e11b815260040160405180910390fd5b600455565b6120d883612194565b806120e757506120e782612194565b15611cb3576120f4611b1d565b1561216c5760055460405163e1a1810f60e01b81526001600160a01b0385811660048301528481166024830152604482018490529091169063e1a1810f90606401600060405180830381600087803b15801561214f57600080fd5b505af1158015612163573d6000803e3d6000fd5b50505050505050565b61217983600160006118fc565b611cb382600160006118fc565b6060610b98838360006121a1565b6000610a30826001611cb8565b606082516000141580156121bd57506001600160a01b0384163b155b156121e657604051639eb1341360e01b81526001600160a01b0385166004820152602401610b25565b600080856001600160a01b031684866040516122029190612a25565b60006040518083038185875af1925050503d806000811461223f576040519150601f19603f3d011682016040523d82523d6000602084013e612244565b606091505b50915091508115612258579150610b989050565b80511561226757805160208201fd5b60405162461bcd60e51b815260206004820152600660248201526519985a5b195960d21b6044820152606401610b25565b60005b838110156122b357818101518382015260200161229b565b50506000910152565b600081518084526122d4816020860160208601612298565b601f01601f19169290920160200192915050565b602081526000610b9860208301846122bc565b6001600160a01b0381168114610dcb57600080fd5b6000806040838503121561232357600080fd5b823561232e816122fb565b946020939093013593505050565b60008060006060848603121561235157600080fd5b833561235c816122fb565b9250602084013561236c816122fb565b929592945050506040919091013590565b60006020828403121561238f57600080fd5b8135610b98816122fb565b60008083601f8401126123ac57600080fd5b50813567ffffffffffffffff8111156123c457600080fd5b6020830191508360208285010111156123dc57600080fd5b9250929050565b600080600080606085870312156123f957600080fd5b8435612404816122fb565b935060208501359250604085013567ffffffffffffffff81111561242757600080fd5b6124338782880161239a565b95989497509550505050565b60006020828403121561245157600080fd5b5035919050565b6000806040838503121561246b57600080fd5b8235612476816122fb565b91506020830135612486816122fb565b809150509250929050565b600080602083850312156124a457600080fd5b823567ffffffffffffffff8111156124bb57600080fd5b6124c78582860161239a565b90969095509350505050565b803560ff811681146119a057600080fd5b600080600080600080600060e0888a0312156124ff57600080fd5b873561250a816122fb565b9650602088013561251a816122fb565b95506040880135945060608801359350612536608089016124d3565b925060a0880135915060c0880135905092959891949750929550565b60008060006060848603121561256757600080fd5b83359250602084013591506040840135612580816122fb565b809150509250925092565b6000806040838503121561259e57600080fd5b82356125a9816122fb565b91506125b7602084016124d3565b90509250929050565b634e487b7160e01b600052604160045260246000fd5b6000602082840312156125e857600080fd5b815167ffffffffffffffff8082111561260057600080fd5b818401915084601f83011261261457600080fd5b815181811115612626576126266125c0565b604051601f8201601f19908116603f0116810190838211818310171561264e5761264e6125c0565b8160405282815287602084870101111561266757600080fd5b612678836020830160208801612298565b979650505050505050565b60008251612695818460208701612298565b632053484160e01b920191825250600401919050565b600082516126bd818460208701612298565b692028577261707065642960b01b920191825250600a01919050565b6000602082840312156126eb57600080fd5b5051919050565b634e487b7160e01b600052601160045260246000fd5b80820180821115610a3057610a306126f2565b81810381811115610a3057610a306126f2565b6001600160a01b0385168152602081018490526060604082018190528101829052818360808301376000818301608090810191909152601f909201601f191601019392505050565b60006020828403121561278857600080fd5b81518015158114610b9857600080fd5b8082028115828204841417610a3057610a306126f2565b600181811c908216806127c357607f821691505b602082108103610f0d57634e487b7160e01b600052602260045260246000fd5b601f821115611cb3576000816000526020600020601f850160051c8101602086101561280c5750805b601f850160051c820191505b8181101561282b57828155600101612818565b505050505050565b67ffffffffffffffff83111561284b5761284b6125c0565b61285f8361285983546127af565b836127e3565b6000601f841160018114612893576000851561287b5750838201355b600019600387901b1c1916600186901b178355610c31565b600083815260209020601f19861690835b828110156128c457868501358255602094850194600190920191016128a4565b50868210156128e15760001960f88860031b161c19848701351681555b505060018560011b0183555050505050565b6000602080835260008454612907816127af565b8060208701526040600180841660008114612929576001811461294557612975565b60ff19851660408a0152604084151560051b8a01019550612975565b89600052602060002060005b8581101561296c5781548b8201860152908301908801612951565b8a016040019650505b509398975050505050505050565b60008251612995818460208701612298565b605360f81b920191825250600101919050565b6000602082840312156129ba57600080fd5b8151610b98816122fb565b60ff8181168382160190811115610a3057610a306126f2565b6000826129fb57634e487b7160e01b600052601260045260246000fd5b500490565b604081526000612a1360408301856122bc565b8281036020840152610d4081856122bc565b60008251612a37818460208701612298565b919091019291505056fea264697066735822122009db0d1343b12bc26e28d9b3d2d14ddaf1f8f45661f9df6e5f63445142e53bec64736f6c63430008190033a2646970667358221220a6d59770de3c88c7a73d8168d72f9d8fa6832c11e8875545408f3a5ca59abfb064736f6c63430008190033",
  "devdoc": {
    "author": "rube ",
    "details": "Inherits from Ownable for access control",
    "events": {
      "FactoryManagerUpdated(address)": {
        "params": {
          "manager": "The address of the new factory manager"
        }
      }
    },
    "kind": "dev",
    "methods": {
      "constructor": {
        "params": {
          "_owner": "The address that will be set as the owner of this contract"
        }
      },
      "createDraggable((string,string,string,bool,bool,uint256,uint256,uint256,uint256),address,address,string)": {
        "details": "This function deploys a new DraggableShares contract",
        "params": {
          "token": "The ERC20Permit token to be wrapped",
          "tokenConfig": "The configuration for the new token",
          "tokenOwner": "The address that will own the new token"
        },
        "returns": {
          "_0": "IERC20Permit The address of the newly created Draggable token"
        }
      },
      "setManager(address)": {
        "details": "Can only be called by the contract owner",
        "params": {
          "_manager": "The address of the new factory manager"
        }
      },
      "transferOwnership(address)": {
        "details": "Transfers ownership of the contract to a new account (`newOwner`). Can only be called by the current owner."
      }
    },
    "title": "Draggable token factory",
    "version": 1
  },
  "userdoc": {
    "events": {
      "FactoryManagerUpdated(address)": {
        "notice": "Emitted when the factory manager is updated"
      }
    },
    "kind": "user",
    "methods": {
      "constructor": {
        "notice": "Constructs the DraggableTokenFactory contract"
      },
      "createDraggable((string,string,string,bool,bool,uint256,uint256,uint256,uint256),address,address,string)": {
        "notice": "Creates a new Draggable token"
      },
      "manager()": {
        "notice": "The factory manager contract"
      },
      "setManager(address)": {
        "notice": "Sets a new factory manager"
      }
    },
    "notice": "This contract is responsible for creating new Draggable tokens",
    "version": 1
  },
  "storageLayout": {
    "storage": [
      {
        "astId": 9406,
        "contract": "src/utils/factory/DraggableTokenFactory.sol:DraggableTokenFactory",
        "label": "owner",
        "offset": 0,
        "slot": "0",
        "type": "t_address"
      },
      {
        "astId": 10362,
        "contract": "src/utils/factory/DraggableTokenFactory.sol:DraggableTokenFactory",
        "label": "manager",
        "offset": 0,
        "slot": "1",
        "type": "t_contract(FactoryManager)10615"
      }
    ],
    "types": {
      "t_address": {
        "encoding": "inplace",
        "label": "address",
        "numberOfBytes": "20"
      },
      "t_contract(FactoryManager)10615": {
        "encoding": "inplace",
        "label": "contract FactoryManager",
        "numberOfBytes": "20"
      }
    }
  }
}