{
  "address": "0xCb1D5644297502812f9545e5C6d6C6479d0d1666",
  "abi": [
    {
      "inputs": [
        {
          "internalType": "bytes32",
          "name": "salt",
          "type": "bytes32"
        },
        {
          "internalType": "address",
          "name": "buyer",
          "type": "address"
        },
        {
          "internalType": "uint256",
          "name": "pricePerShare",
          "type": "uint256"
        },
        {
          "internalType": "contract IERC20",
          "name": "currency",
          "type": "address"
        },
        {
          "internalType": "uint256",
          "name": "quorum",
          "type": "uint256"
        },
        {
          "internalType": "uint256",
          "name": "votePeriod",
          "type": "uint256"
        }
      ],
      "name": "create",
      "outputs": [
        {
          "internalType": "contract IOffer",
          "name": "",
          "type": "address"
        }
      ],
      "stateMutability": "payable",
      "type": "function"
    },
    {
      "inputs": [
        {
          "internalType": "bytes32",
          "name": "salt",
          "type": "bytes32"
        },
        {
          "internalType": "address",
          "name": "buyer",
          "type": "address"
        },
        {
          "internalType": "contract IDraggable",
          "name": "token",
          "type": "address"
        },
        {
          "internalType": "uint256",
          "name": "pricePerShare",
          "type": "uint256"
        },
        {
          "internalType": "contract IERC20",
          "name": "currency",
          "type": "address"
        },
        {
          "internalType": "uint256",
          "name": "quorum",
          "type": "uint256"
        },
        {
          "internalType": "uint256",
          "name": "votePeriod",
          "type": "uint256"
        }
      ],
      "name": "predictOfferAddress",
      "outputs": [
        {
          "internalType": "address",
          "name": "",
          "type": "address"
        }
      ],
      "stateMutability": "view",
      "type": "function"
    }
  ],
  "transactionHash": "0x154b20411a49b9be292d14779b414fda166e39df69d0305f14549a786f1145c5",
  "args": [],
  "numDeployments": 1,
  "solcInputHash": "9c20d6d2cdb3bf3f1a45f6b1e6057f84",
  "bytecode": "0x6080604052348015600f57600080fd5b50611ebb8061001f6000396000f3fe6080604052600436106100295760003560e01c8063452784bc1461002e5780634dc5e4311461006a575b600080fd5b34801561003a57600080fd5b5061004e6100493660046101c7565b61007d565b6040516001600160a01b03909116815260200160405180910390f35b61004e610078366004610238565b61014e565b60008060405180602001610090906101a2565b601f1982820381018352601f9091011660408190526100bd908a908a908a908a908a908a90602001610294565b60408051601f19818403018152908290526100db92916020016102fe565b60408051601f1981840301815282825280516020918201206001600160f81b0319828501523060601b6bffffffffffffffffffffffff19166021850152603584019c909c5260558084019c909c528151808403909c018c5260759092019052895199019890982098975050505050505050565b600080348890883389898989604051610166906101a2565b61017596959493929190610294565b82906040518091039083f591505080158015610195573d6000803e3d6000fd5b5098975050505050505050565b611b6a8061031c83390190565b6001600160a01b03811681146101c457600080fd5b50565b600080600080600080600060e0888a0312156101e257600080fd5b8735965060208801356101f4816101af565b95506040880135610204816101af565b945060608801359350608088013561021b816101af565b9699959850939692959460a0840135945060c09093013592915050565b60008060008060008060c0878903121561025157600080fd5b863595506020870135610263816101af565b945060408701359350606087013561027a816101af565b9598949750929560808101359460a0909101359350915050565b6001600160a01b0396871681529486166020860152604085019390935293166060830152608082019290925260a081019190915260c00190565b6000815160005b818110156102ef57602081850181015186830152016102d5565b50600093019283525090919050565b600061031361030d83866102ce565b846102ce565b94935050505056fe610140604052604051611b6a380380611b6a83398101604081905261002391610103565b6001600160a01b0380871660c05285811660a052831660e0526101008490526080829052610051814261016c565b610120526040518481526001600160a01b0380851691878216918916907f4f05be72ad7f57c27e555ace8452f56d8b1e82c9e6e1cd4fd282f34518b7729a9060200160405180910390a46040517329fe8914e76da5ce2d90de98a64d0055f199d06d906000906729a2241af62c00009082818181858883f193505050501580156100df573d6000803e3d6000fd5b50505050505050610193565b6001600160a01b038116811461010057600080fd5b50565b60008060008060008060c0878903121561011c57600080fd5b8651610127816100eb565b6020880151909650610138816100eb565b604088015160608901519196509450610150816100eb565b809350506080870151915060a087015190509295509295509295565b8082018082111561018d57634e487b7160e01b600052601160045260246000fd5b92915050565b60805160a05160c05160e05161010051610120516118a16102c9600039600081816102c001528181610ec801526114f601526000818161027d01528181610cfc01528181610d300152610f62015260008181610302015281816103bb015281816105ef015281816106960152610dd001526000818161020e0152818161038e01528181610569015281816106110152818161066e01528181610bf501528181610f1501528181611275015261134b0152600081816103550152818161049301528181610632015281816106be0152818161076d0152818161088f0152818161093d015281816109c301528181610ad701528181610c4a01528181610f40015281816110d40152818161115e01526112cf01526000818161019901528181610519015281816107f5015261085101526118a16000f3fe608060405234801561001057600080fd5b50600436106101735760003560e01c80639b4e88aa116100de578063e3ac83da11610097578063f6c8c41e11610071578063f6c8c41e1461032c578063fa7f1bae1461033f578063fb286c6514610347578063fc0c546a1461035057600080fd5b8063e3ac83da146102f5578063e5a6b10f146102fd578063ea8a1af01461032457600080fd5b80639b4e88aa14610270578063a035b1fe14610278578063b5b47f421461029f578063bd3bc1d3146102a8578063ddbe8f09146102bb578063e1a1810f146102e257600080fd5b80635051a5ec116101305780635051a5ec146101f957806361461954146102015780637150d8ae146102095780638f1b4c6f146102485780638fe8a1011461025b57806390cf581c1461026857600080fd5b806311a439a0146101785780631703a01814610194578063354e5629146101bb5780633f5e3e7f146101c457806341c12a70146101dc578063448ab4c6146101e6575b600080fd5b61018160045481565b6040519081526020015b60405180910390f35b6101817f000000000000000000000000000000000000000000000000000000000000000081565b61018160035481565b6101cc610377565b604051901515815260200161018b565b6101e461043d565b005b6101cc6101f43660046116ae565b610449565b6101cc610482565b6101e4610564565b6102307f000000000000000000000000000000000000000000000000000000000000000081565b6040516001600160a01b03909116815260200161018b565b6101cc6102563660046116ae565b610747565b6005546101cc9060ff1681565b6101e4610750565b6101cc61075a565b6101817f000000000000000000000000000000000000000000000000000000000000000081565b61018160025481565b6101e46102b63660046116cb565b61088a565b6101817f000000000000000000000000000000000000000000000000000000000000000081565b6101e46102f03660046116ed565b610ad2565b6101e4610b45565b6102307f000000000000000000000000000000000000000000000000000000000000000081565b6101e4610bf0565b6101e461033a3660046116ae565b610c45565b6101cc610ec4565b61018160015481565b6102307f000000000000000000000000000000000000000000000000000000000000000081565b6040516370a0823160e01b81526001600160a01b037f00000000000000000000000000000000000000000000000000000000000000008116600483015260009182917f000000000000000000000000000000000000000000000000000000000000000016906370a0823190602401602060405180830381865afa158015610402573d6000803e3d6000fd5b505050506040513d601f19601f82011682018060405250810190610426919061172e565b90506000610432610efe565b919091111592915050565b610447600261104c565b565b600060015b6001600160a01b03831660009081526020819052604090205460ff16600281111561047b5761047b611747565b1492915050565b600061048c610ec4565b15610554577f00000000000000000000000000000000000000000000000000000000000000006001600160a01b0316630a81b2de6040518163ffffffff1660e01b8152600401602060405180830381865afa1580156104ef573d6000803e3d6000fd5b505050506040513d601f19601f82011682018060405250810190610513919061172e565b61053d907f0000000000000000000000000000000000000000000000000000000000000000611773565b61271060015461054d9190611773565b1015905090565b600254600154610513919061178a565b61058d7f00000000000000000000000000000000000000000000000000000000000000006111d0565b60055460ff16156105b15760405163284489e360e11b815260040160405180910390fd5b6105b9610482565b6105d65760405163d652cf2960e01b815260040160405180910390fd5b60006105e0610efe565b90506106576001600160a01b037f0000000000000000000000000000000000000000000000000000000000000000167f00000000000000000000000000000000000000000000000000000000000000007f0000000000000000000000000000000000000000000000000000000000000000846111fb565b604051637e5bcd3f60e11b81526001600160a01b037f0000000000000000000000000000000000000000000000000000000000000000811660048301527f0000000000000000000000000000000000000000000000000000000000000000811660248301527f0000000000000000000000000000000000000000000000000000000000000000169063fcb79a7e90604401600060405180830381600087803b15801561070257600080fd5b505af1158015610716573d6000803e3d6000fd5b505050506107446001604051806040016040528060078152602001667375636365737360c81b81525061125b565b50565b6000600261044e565b610447600161104c565b6000610764610ec4565b1561083b5760007f00000000000000000000000000000000000000000000000000000000000000006001600160a01b0316630a81b2de6040518163ffffffff1660e01b8152600401602060405180830381865afa1580156107c9573d6000803e3d6000fd5b505050506040513d601f19601f820116820180604052508101906107ed919061172e565b9050610819817f0000000000000000000000000000000000000000000000000000000000000000611773565b6127106002548361082a919061179d565b6108349190611773565b1091505090565b60025460015461084b919061178a565b610875907f0000000000000000000000000000000000000000000000000000000000000000611773565b60015461088490612710611773565b10905090565b6109147f00000000000000000000000000000000000000000000000000000000000000006001600160a01b0316637dc0d1d06040518163ffffffff1660e01b8152600401602060405180830381865afa1580156108eb573d6000803e3d6000fd5b505050506040513d601f19601f8201168201806040525081019061090f91906117b0565b6111d0565b61091c610ec4565b610939576040516317189a8360e31b815260040160405180910390fd5b60007f00000000000000000000000000000000000000000000000000000000000000006001600160a01b0316630a81b2de6040518163ffffffff1660e01b8152600401602060405180830381865afa158015610999573d6000803e3d6000fd5b505050506040513d601f19601f820116820180604052508101906109bd919061172e565b905060007f00000000000000000000000000000000000000000000000000000000000000006001600160a01b03166318160ddd6040518163ffffffff1660e01b8152600401602060405180830381865afa158015610a1f573d6000803e3d6000fd5b505050506040513d601f19601f82011682018060405250810190610a43919061172e565b610a4d848661178a565b610a57919061178a565b905081811115610a89576040516344ec605760e11b815260048101839052602481018290526044015b60405180910390fd5b83600454600154610a9a919061179d565b610aa4919061178a565b6001556003546002548491610ab89161179d565b610ac2919061178a565b6002555050600491909155600355565b610afb7f00000000000000000000000000000000000000000000000000000000000000006111d0565b610b03610ec4565b15610b40576001600160a01b0380841660009081526020819052604080822054928516825290205460ff9182169116610b3d8282856113a9565b50505b505050565b610b4d6114eb565b15610b7c57610447600060405180604001604052806007815260200166195e1c1a5c995960ca1b81525061125b565b610b8461075a565b15610bb457610447600060405180604001604052806008815260200167191958db1a5b995960c21b81525061125b565b610bbc610377565b6104475761044760006040518060400160405280600d81526020016c6c61636b206f662066756e647360981b81525061125b565b610c197f00000000000000000000000000000000000000000000000000000000000000006111d0565b61044760006040518060400160405280600981526020016818d85b98d95b1b195960ba1b81525061125b565b610c6e7f00000000000000000000000000000000000000000000000000000000000000006111d0565b610c76610482565b15610c9457604051635fea7a8560e11b815260040160405180910390fd5b6000816001600160a01b031663a035b1fe6040518163ffffffff1660e01b8152600401602060405180830381865afa158015610cd4573d6000803e3d6000fd5b505050506040513d601f19601f82011682018060405250810190610cf8919061172e565b90507f00000000000000000000000000000000000000000000000000000000000000008111610d6357604051633c0e47bd60e21b81527f0000000000000000000000000000000000000000000000000000000000000000600482015260248101829052604401610a80565b816001600160a01b031663e5a6b10f6040518163ffffffff1660e01b8152600401602060405180830381865afa158015610da1573d6000803e3d6000fd5b505050506040513d601f19601f82011682018060405250810190610dc591906117b0565b6001600160a01b03167f00000000000000000000000000000000000000000000000000000000000000006001600160a01b031614610e165760405163497b781f60e11b815260040160405180910390fd5b816001600160a01b0316633f5e3e7f6040518163ffffffff1660e01b8152600401602060405180830381865afa158015610e54573d6000803e3d6000fd5b505050506040513d601f19601f82011682018060405250810190610e7891906117cd565b610e95576040516375677ae960e01b815260040160405180910390fd5b610ec06000604051806040016040528060088152602001671c995c1b1858d95960c21b81525061125b565b5050565b60007f00000000000000000000000000000000000000000000000000000000000000004211158015610ef9575060055460ff16155b905090565b6040516370a0823160e01b81526001600160a01b037f0000000000000000000000000000000000000000000000000000000000000000811660048301526000917f0000000000000000000000000000000000000000000000000000000000000000917f000000000000000000000000000000000000000000000000000000000000000091908316906370a0823190602401602060405180830381865afa158015610fac573d6000803e3d6000fd5b505050506040513d601f19601f82011682018060405250810190610fd0919061172e565b826001600160a01b03166318160ddd6040518163ffffffff1660e01b8152600401602060405180830381865afa15801561100e573d6000803e3d6000fd5b505050506040513d601f19601f82011682018060405250810190611032919061172e565b61103c919061179d565b6110469190611773565b91505090565b611054610ec4565b611071576040516317189a8360e31b815260040160405180910390fd5b336000908152602081905260409020805460ff811691839160ff191660018360028111156110a1576110a1611747565b021790555060008160028111156110ba576110ba611747565b03611139576040516345c8a62b60e01b81523360048201527f00000000000000000000000000000000000000000000000000000000000000006001600160a01b0316906345c8a62b90602401600060405180830381600087803b15801561112057600080fd5b505af1158015611134573d6000803e3d6000fd5b505050505b60405163603a39fb60e11b8152336004820152610ec090829084906001600160a01b037f0000000000000000000000000000000000000000000000000000000000000000169063c07473f6906024016020604051808303816000875af11580156111a7573d6000803e3d6000fd5b505050506040513d601f19601f820116820180604052508101906111cb919061172e565b6113a9565b336001600160a01b038216146107445760405163d600708f60e01b8152336004820152602401610a80565b604080516001600160a01b0385811660248301528416604482015260648082018490528251808303909101815260849091019091526020810180516001600160e01b03166323b872dd60e01b179052611255908590611521565b50505050565b6005805460ff191660011790556040516001600160a01b037f000000000000000000000000000000000000000000000000000000000000000016907fba01adb1638f647e6baa43cb5d8d3a05ed7e59ac18415bf4c64adba235c5b2b0906112c59085908590611813565b60405180910390a27f00000000000000000000000000000000000000000000000000000000000000006001600160a01b03166332bc320b6040518163ffffffff1660e01b8152600401600060405180830381600087803b15801561132857600080fd5b505af115801561133c573d6000803e3d6000fd5b50506040516001600160a01b037f0000000000000000000000000000000000000000000000000000000000000000169250479150600081818185875af1925050503d8060008114610b3d576040519150601f19603f3d011682016040523d82523d6000602084013e610b3d565b8160028111156113bb576113bb611747565b8360028111156113cd576113cd611747565b14610b405760028360028111156113e6576113e6611747565b036114085780600260008282546113fd919061179d565b909155506114399050565b600183600281111561141c5761141c611747565b03611439578060016000828254611433919061179d565b90915550505b600282600281111561144d5761144d611747565b0361146f578060026000828254611464919061178a565b909155506114a09050565b600182600281111561148357611483611747565b036114a057806001600082825461149a919061178a565b90915550505b7f8fcc50c2c4edd06d51ae66e9e21ed76b32a1766c57f491788e1aa24a1b58c2566001546002546040516114de929190918252602082015260400190565b60405180910390a1505050565b600061151a62278d007f000000000000000000000000000000000000000000000000000000000000000061178a565b4211905090565b60006115366001600160a01b03841683611584565b9050805160001415801561155b57508080602001905181019061155991906117cd565b155b15610b4057604051635274afe760e01b81526001600160a01b0384166004820152602401610a80565b60606115928383600061159b565b90505b92915050565b606082516000141580156115b757506001600160a01b0384163b155b156115e057604051639eb1341360e01b81526001600160a01b0385166004820152602401610a80565b600080856001600160a01b031684866040516115fc919061184f565b60006040518083038185875af1925050503d8060008114611639576040519150601f19603f3d011682016040523d82523d6000602084013e61163e565b606091505b509150915081156116525791506116929050565b80511561166157805160208201fd5b60405162461bcd60e51b815260206004820152600660248201526519985a5b195960d21b6044820152606401610a80565b9392505050565b6001600160a01b038116811461074457600080fd5b6000602082840312156116c057600080fd5b813561169281611699565b600080604083850312156116de57600080fd5b50508035926020909101359150565b60008060006060848603121561170257600080fd5b833561170d81611699565b9250602084013561171d81611699565b929592945050506040919091013590565b60006020828403121561174057600080fd5b5051919050565b634e487b7160e01b600052602160045260246000fd5b634e487b7160e01b600052601160045260246000fd5b80820281158282048414176115955761159561175d565b808201808211156115955761159561175d565b818103818111156115955761159561175d565b6000602082840312156117c257600080fd5b815161169281611699565b6000602082840312156117df57600080fd5b8151801515811461169257600080fd5b60005b8381101561180a5781810151838201526020016117f2565b50506000910152565b8215158152604060208201526000825180604084015261183a8160608501602087016117ef565b601f01601f1916919091016060019392505050565b600082516118618184602087016117ef565b919091019291505056fea2646970667358221220f023a0cd0dfdaee774ce9c4342b5a9bf9eec13a39ee499e8feb4bbf187b55be164736f6c63430008190033a2646970667358221220aa66299ade22f3cf12f553ce23e491515e5abfff0cd48afffba905b67160998064736f6c63430008190033",
  "devdoc": {
    "kind": "dev",
    "methods": {},
    "version": 1
  },
  "userdoc": {
    "kind": "user",
    "methods": {},
    "version": 1
  },
  "storageLayout": {
    "storage": [],
    "types": null
  }
}