{
  "address": "0x276f97Cc7C685fDA1B099723CeB87F65d2ec89bE",
  "abi": [
    {
      "inputs": [
        {
          "internalType": "address",
          "name": "_trustedForwarder",
          "type": "address"
        },
        {
          "internalType": "contract IQuoter",
          "name": "_quoter",
          "type": "address"
        },
        {
          "internalType": "contract ISwapRouter",
          "name": "swapRouter",
          "type": "address"
        },
        {
          "internalType": "contract AggregatorV3Interface",
          "name": "_aggregatorCHFUSD",
          "type": "address"
        },
        {
          "internalType": "contract AggregatorV3Interface",
          "name": "_aggregatorETHUSD",
          "type": "address"
        }
      ],
      "stateMutability": "nonpayable",
      "type": "constructor"
    },
    {
      "inputs": [
        {
          "internalType": "address",
          "name": "erc20In",
          "type": "address"
        }
      ],
      "name": "approveERC20",
      "outputs": [],
      "stateMutability": "nonpayable",
      "type": "function"
    },
    {
      "inputs": [],
      "name": "getLatestPriceCHFUSD",
      "outputs": [
        {
          "internalType": "uint256",
          "name": "",
          "type": "uint256"
        }
      ],
      "stateMutability": "view",
      "type": "function"
    },
    {
      "inputs": [],
      "name": "getLatestPriceETHUSD",
      "outputs": [
        {
          "internalType": "uint256",
          "name": "",
          "type": "uint256"
        }
      ],
      "stateMutability": "view",
      "type": "function"
    },
    {
      "inputs": [
        {
          "internalType": "uint256",
          "name": "amountInBase",
          "type": "uint256"
        },
        {
          "internalType": "bytes",
          "name": "path",
          "type": "bytes"
        }
      ],
      "name": "getPriceInERC20",
      "outputs": [
        {
          "internalType": "uint256",
          "name": "",
          "type": "uint256"
        }
      ],
      "stateMutability": "nonpayable",
      "type": "function"
    },
    {
      "inputs": [
        {
          "internalType": "uint256",
          "name": "amountInBase",
          "type": "uint256"
        },
        {
          "internalType": "contract IBrokerbot",
          "name": "brokerBot",
          "type": "address"
        }
      ],
      "name": "getPriceInEther",
      "outputs": [
        {
          "internalType": "uint256",
          "name": "",
          "type": "uint256"
        }
      ],
      "stateMutability": "nonpayable",
      "type": "function"
    },
    {
      "inputs": [
        {
          "internalType": "uint256",
          "name": "amountInBase",
          "type": "uint256"
        },
        {
          "internalType": "contract IERC20",
          "name": "base",
          "type": "address"
        }
      ],
      "name": "getPriceInEtherFromOracle",
      "outputs": [
        {
          "internalType": "uint256",
          "name": "",
          "type": "uint256"
        }
      ],
      "stateMutability": "view",
      "type": "function"
    },
    {
      "inputs": [
        {
          "internalType": "contract IBrokerbot",
          "name": "recipient",
          "type": "address"
        }
      ],
      "name": "hasSettingKeepEther",
      "outputs": [
        {
          "internalType": "bool",
          "name": "",
          "type": "bool"
        }
      ],
      "stateMutability": "view",
      "type": "function"
    },
    {
      "inputs": [
        {
          "internalType": "contract IERC20",
          "name": "token",
          "type": "address"
        },
        {
          "internalType": "address[]",
          "name": "recipients",
          "type": "address[]"
        },
        {
          "internalType": "uint256[]",
          "name": "amounts",
          "type": "uint256[]"
        }
      ],
      "name": "multiPay",
      "outputs": [],
      "stateMutability": "nonpayable",
      "type": "function"
    },
    {
      "inputs": [
        {
          "internalType": "contract IERC20",
          "name": "token",
          "type": "address"
        },
        {
          "internalType": "address[]",
          "name": "recipients",
          "type": "address[]"
        },
        {
          "internalType": "uint256[]",
          "name": "amounts",
          "type": "uint256[]"
        },
        {
          "internalType": "bytes",
          "name": "ref",
          "type": "bytes"
        }
      ],
      "name": "multiPayAndNotify",
      "outputs": [],
      "stateMutability": "nonpayable",
      "type": "function"
    },
    {
      "inputs": [
        {
          "internalType": "address",
          "name": "recipient",
          "type": "address"
        },
        {
          "internalType": "uint256",
          "name": "amountInBase",
          "type": "uint256"
        },
        {
          "internalType": "bytes",
          "name": "ref",
          "type": "bytes"
        }
      ],
      "name": "payAndNotify",
      "outputs": [],
      "stateMutability": "nonpayable",
      "type": "function"
    },
    {
      "inputs": [
        {
          "internalType": "contract IERC20",
          "name": "token",
          "type": "address"
        },
        {
          "internalType": "address",
          "name": "recipient",
          "type": "address"
        },
        {
          "internalType": "uint256",
          "name": "amount",
          "type": "uint256"
        },
        {
          "internalType": "bytes",
          "name": "ref",
          "type": "bytes"
        }
      ],
      "name": "payAndNotify",
      "outputs": [],
      "stateMutability": "nonpayable",
      "type": "function"
    },
    {
      "inputs": [
        {
          "internalType": "uint256",
          "name": "amountOut",
          "type": "uint256"
        },
        {
          "internalType": "uint256",
          "name": "amountInMaximum",
          "type": "uint256"
        },
        {
          "internalType": "address",
          "name": "erc20In",
          "type": "address"
        },
        {
          "internalType": "bytes",
          "name": "path",
          "type": "bytes"
        },
        {
          "internalType": "address",
          "name": "recipient",
          "type": "address"
        }
      ],
      "name": "payFromERC20",
      "outputs": [
        {
          "internalType": "uint256",
          "name": "amountIn",
          "type": "uint256"
        }
      ],
      "stateMutability": "nonpayable",
      "type": "function"
    },
    {
      "inputs": [
        {
          "internalType": "address",
          "name": "recipient",
          "type": "address"
        },
        {
          "internalType": "uint256",
          "name": "amountBase",
          "type": "uint256"
        },
        {
          "internalType": "address",
          "name": "erc20",
          "type": "address"
        },
        {
          "internalType": "uint256",
          "name": "amountInMaximum",
          "type": "uint256"
        },
        {
          "internalType": "bytes",
          "name": "path",
          "type": "bytes"
        },
        {
          "internalType": "bytes",
          "name": "ref",
          "type": "bytes"
        }
      ],
      "name": "payFromERC20AndNotify",
      "outputs": [],
      "stateMutability": "nonpayable",
      "type": "function"
    },
    {
      "inputs": [
        {
          "internalType": "address",
          "name": "recipient",
          "type": "address"
        },
        {
          "internalType": "uint256",
          "name": "amountInBase",
          "type": "uint256"
        },
        {
          "internalType": "contract IERC20",
          "name": "base",
          "type": "address"
        }
      ],
      "name": "payFromEther",
      "outputs": [],
      "stateMutability": "payable",
      "type": "function"
    },
    {
      "inputs": [
        {
          "internalType": "contract IBrokerbot",
          "name": "recipient",
          "type": "address"
        },
        {
          "internalType": "uint256",
          "name": "amountInBase",
          "type": "uint256"
        },
        {
          "internalType": "bytes",
          "name": "ref",
          "type": "bytes"
        }
      ],
      "name": "payFromEtherAndNotify",
      "outputs": [],
      "stateMutability": "payable",
      "type": "function"
    },
    {
      "inputs": [
        {
          "internalType": "contract IERC20",
          "name": "ercAddress",
          "type": "address"
        },
        {
          "internalType": "address",
          "name": "to",
          "type": "address"
        },
        {
          "internalType": "uint256",
          "name": "amount",
          "type": "uint256"
        }
      ],
      "name": "recover",
      "outputs": [],
      "stateMutability": "nonpayable",
      "type": "function"
    },
    {
      "inputs": [
        {
          "internalType": "address",
          "name": "recipient",
          "type": "address"
        },
        {
          "internalType": "address",
          "name": "seller",
          "type": "address"
        },
        {
          "internalType": "uint256",
          "name": "amountToSell",
          "type": "uint256"
        },
        {
          "internalType": "uint256",
          "name": "exFee",
          "type": "uint256"
        },
        {
          "internalType": "uint256",
          "name": "deadline",
          "type": "uint256"
        },
        {
          "internalType": "bytes",
          "name": "ref",
          "type": "bytes"
        },
        {
          "internalType": "uint8",
          "name": "v",
          "type": "uint8"
        },
        {
          "internalType": "bytes32",
          "name": "r",
          "type": "bytes32"
        },
        {
          "internalType": "bytes32",
          "name": "s",
          "type": "bytes32"
        }
      ],
      "name": "sellSharesWithPermit",
      "outputs": [],
      "stateMutability": "nonpayable",
      "type": "function"
    },
    {
      "stateMutability": "payable",
      "type": "receive"
    }
  ],
  "transactionHash": "0xea94528c2249ccc5f8cad28ab5edd956008c27e2a28eb3d955ed3abe622250af",
  "args": [
    "0x447ffD9a116efb3D77f47802cc4869C3730f723C",
    "0xb27308f9F90D607463bb33eA1BeBb41C27CE5AB6",
    "0xE592427A0AEce92De3Edee1F18E0157C05861564",
    "0x449d117117838fFA61263B61dA6301AA2a88B13A",
    "0x5f4eC3Df9cbd43714FE2740f5E3616155c5b8419"
  ],
  "numDeployments": 1,
  "solcInputHash": "bf93f1376a954af67daf07c4288e6767",
  "bytecode": "0x6101206040523480156200001257600080fd5b50604051620024b3380380620024b383398101604081905262000035916200006d565b6001600160601b0319606095861b811660805293851b841660a05291841b831660c052831b821660e05290911b166101005262000106565b600080600080600060a086880312156200008657600080fd5b85516200009381620000ed565b6020870151909550620000a681620000ed565b6040870151909450620000b981620000ed565b6060870151909350620000cc81620000ed565b6080870151909250620000df81620000ed565b809150509295509295909350565b6001600160a01b03811681146200010357600080fd5b50565b60805160601c60a05160601c60c05160601c60e05160601c6101005160601c6123366200017d6000396000610faa015260006103270152600081816106de01528181610da4015261115701526000818161063501528181610cb6015281816113dd015261140c015260006115ad01526123366000f3fe6080604052600436106101015760003560e01c8063568f325411610095578063c1d8e08a11610064578063c1d8e08a14610272578063d3b3ca77146102a2578063d64d4ba5146102c2578063e25b37c6146102e2578063e347bb601461030257600080fd5b8063568f32541461020a5780635daf206a1461022a5780636fb0c7dc1461024a57806395fe863c1461025d57600080fd5b806317f565d2116100d157806317f565d21461018a5780631945b784146101aa5780631c9af2e3146101ca5780631ec82cb8146101ea57600080fd5b8062124e3d1461010d578063040c037a14610135578063078aa9641461014a57806311e8701c1461016a57600080fd5b3661010857005b600080fd5b34801561011957600080fd5b50610122610322565b6040519081526020015b60405180910390f35b610148610143366004611d29565b6103c1565b005b34801561015657600080fd5b50610122610165366004611fb5565b61061b565b34801561017657600080fd5b50610148610185366004611b91565b6106c7565b34801561019657600080fd5b506101486101a5366004611d29565b610770565b3480156101b657600080fd5b506101226101c5366004611ffc565b6107f3565b3480156101d657600080fd5b506101486101e5366004611e9d565b61085c565b3480156101f657600080fd5b50610148610205366004611de9565b610942565b34801561021657600080fd5b50610148610225366004611f0f565b6109d2565b34801561023657600080fd5b50610148610245366004611c86565b610a44565b610148610258366004611d85565b610ca6565b34801561026957600080fd5b50610122610fa5565b34801561027e57600080fd5b5061029261028d366004611b91565b611001565b604051901515815260200161012c565b3480156102ae57600080fd5b506101486102bd366004611e2a565b611086565b3480156102ce57600080fd5b506101226102dd36600461202c565b611145565b3480156102ee57600080fd5b506101226102fd366004611ffc565b611343565b34801561030e57600080fd5b5061014861031d366004611bd2565b6115a2565b6000807f00000000000000000000000000000000000000000000000000000000000000006001600160a01b031663feaf968c6040518163ffffffff1660e01b815260040160a06040518083038186803b15801561037e57600080fd5b505afa158015610392573d6000803e3d6000fd5b505050506040513d601f19601f820116820180604052508101906103b691906120a4565b509195945050505050565b6000846001600160a01b0316635001f3b56040518163ffffffff1660e01b815260040160206040518083038186803b1580156103fc57600080fd5b505afa158015610410573d6000803e3d6000fd5b505050506040513d601f19601f820116820180604052508101906104349190611bb5565b905061043f85611001565b1561058157600061045085836107f3565b9050856001600160a01b03166369365c528284338989896040518763ffffffff1660e01b8152600401610487959493929190612187565b6020604051808303818588803b1580156104a057600080fd5b505af11580156104b4573d6000803e3d6000fd5b50505050506040513d601f19601f820116820180604052508101906104d99190611f9c565b503481101561057b576000336104ef8334612274565b604051600081818185875af1925050503d806000811461052b576040519150601f19603f3d011682016040523d82523d6000602084013e610530565b606091505b50509050806105795760405162461bcd60e51b815260206004820152601060248201526f2a3930b739b332b9103330b4b632b21760811b60448201526064015b60405180910390fd5b505b50610614565b61058c858583610ca6565b60405163349b2e2960e11b81526001600160a01b038616906369365c52906105c09084903390899089908990600401612187565b602060405180830381600087803b1580156105da57600080fd5b505af11580156105ee573d6000803e3d6000fd5b505050506040513d601f19601f820116820180604052508101906106129190611f9c565b505b5050505050565b604051632f80bb1d60e01b81526000906001600160a01b037f00000000000000000000000000000000000000000000000000000000000000001690632f80bb1d9061066c9085908790600401612165565b602060405180830381600087803b15801561068657600080fd5b505af115801561069a573d6000803e3d6000fd5b505050506040513d601f19601f820116820180604052508101906106be9190611f9c565b90505b92915050565b60405163095ea7b360e01b81526001600160a01b037f000000000000000000000000000000000000000000000000000000000000000081166004830152600160ff1b602483015282169063095ea7b390604401602060405180830381600087803b15801561073457600080fd5b505af1158015610748573d6000803e3d6000fd5b505050506040513d601f19601f8201168201806040525081019061076c9190611dc7565b5050565b6107ed846001600160a01b0316635001f3b56040518163ffffffff1660e01b815260040160206040518083038186803b1580156107ac57600080fd5b505afa1580156107c0573d6000803e3d6000fd5b505050506040513d601f19601f820116820180604052508101906107e49190611bb5565b85858585611086565b50505050565b60006001600160a01b03821673b4272071ecadd69d933adcd19ca99fe80664fc08141561084657610822610fa5565b8361082b610322565b6108359190612255565b61083f9190612233565b90506106c1565b61084e610fa5565b6108356305f5e10085612255565b60005b8381101561061257856001600160a01b03166323b872dd33878785818110610889576108896122bc565b905060200201602081019061089e9190611b91565b8686868181106108b0576108b06122bc565b905060200201356040518463ffffffff1660e01b81526004016108d593929190612141565b602060405180830381600087803b1580156108ef57600080fd5b505af1158015610903573d6000803e3d6000fd5b505050506040513d601f19601f820116820180604052508101906109279190611dc7565b61093057600080fd5b8061093a8161228b565b91505061085f565b60405163a9059cbb60e01b81526001600160a01b0383811660048301526024820183905284169063a9059cbb90604401602060405180830381600087803b15801561098c57600080fd5b505af11580156109a0573d6000803e3d6000fd5b505050506040513d601f19601f820116820180604052508101906109c49190611dc7565b6109cd57600080fd5b505050565b60005b85811015610a3a57610a28888888848181106109f3576109f36122bc565b9050602002016020810190610a089190611b91565b878785818110610a1a57610a1a6122bc565b905060200201358686611086565b80610a328161228b565b9150506109d5565b5050505050505050565b6000876001600160a01b0316635001f3b56040518163ffffffff1660e01b815260040160206040518083038186803b158015610a7f57600080fd5b505afa158015610a93573d6000803e3d6000fd5b505050506040513d601f19601f82011682018060405250810190610ab79190611bb5565b6040516370a0823160e01b81526001600160a01b038a811660048301529192506000918316906370a082319060240160206040518083038186803b158015610afe57600080fd5b505afa158015610b12573d6000803e3d6000fd5b505050506040513d601f19601f82011682018060405250810190610b369190611f9c565b9050610b45888789888d611145565b506040516370a0823160e01b81526001600160a01b038a81166004830152600091908416906370a082319060240160206040518083038186803b158015610b8b57600080fd5b505afa158015610b9f573d6000803e3d6000fd5b505050506040513d601f19601f82011682018060405250810190610bc39190611f9c565b9050610bcf8282612274565b8914610c0a5760405162461bcd60e51b815260206004820152600a60248201526939bbb0b81032b93937b960b11b6044820152606401610570565b6001600160a01b038a166369365c528433610c258686612274565b89896040518663ffffffff1660e01b8152600401610c47959493929190612187565b602060405180830381600087803b158015610c6157600080fd5b505af1158015610c75573d6000803e3d6000fd5b505050506040513d601f19601f82011682018060405250810190610c999190611f9c565b5050505050505050505050565b60006040518061010001604052807f00000000000000000000000000000000000000000000000000000000000000006001600160a01b0316634aa4a4fc6040518163ffffffff1660e01b815260040160206040518083038186803b158015610d0d57600080fd5b505afa158015610d21573d6000803e3d6000fd5b505050506040513d601f19601f82011682018060405250810190610d459190611bb5565b6001600160a01b03168152602001836001600160a01b03168152602001610bb862ffffff168152602001856001600160a01b0316815260200142815260200184815260200134815260200160006001600160a01b0316815250905060007f000000000000000000000000000000000000000000000000000000000000000090506000816001600160a01b031663db3e219834856040518363ffffffff1660e01b8152600401610e58919081516001600160a01b03908116825260208084015182169083015260408084015162ffffff16908301526060808401518216908301526080808401519083015260a0838101519083015260c0808401519083015260e09283015116918101919091526101000190565b6020604051808303818588803b158015610e7157600080fd5b505af1158015610e85573d6000803e3d6000fd5b50505050506040513d601f19601f82011682018060405250810190610eaa9190611f9c565b90503481101561061257816001600160a01b03166312210e8a6040518163ffffffff1660e01b8152600401600060405180830381600087803b158015610eef57600080fd5b505af1158015610f03573d6000803e3d6000fd5b5060009250339150610f1790508334612274565b604051600081818185875af1925050503d8060008114610f53576040519150601f19603f3d011682016040523d82523d6000602084013e610f58565b606091505b5050905080610f9c5760405162461bcd60e51b815260206004820152601060248201526f2a3930b739b332b9103330b4b632b21760811b6044820152606401610570565b50505050505050565b6000807f00000000000000000000000000000000000000000000000000000000000000006001600160a01b031663feaf968c6040518163ffffffff1660e01b815260040160a06040518083038186803b15801561037e57600080fd5b6000600460ff16600460ff16836001600160a01b031663e06174e46040518163ffffffff1660e01b815260040160206040518083038186803b15801561104657600080fd5b505afa15801561105a573d6000803e3d6000fd5b505050506040513d601f19601f8201168201806040525081019061107e9190611f9c565b161492915050565b6040516323b872dd60e01b81526001600160a01b038616906323b872dd906110b690339088908890600401612141565b602060405180830381600087803b1580156110d057600080fd5b505af11580156110e4573d6000803e3d6000fd5b505050506040513d601f19601f820116820180604052508101906111089190611dc7565b61111157600080fd5b60405163349b2e2960e11b81526001600160a01b038516906369365c52906105c09088903390889088908890600401612187565b6040516323b872dd60e01b81526000907f0000000000000000000000000000000000000000000000000000000000000000906001600160a01b038616906323b872dd9061119a90339030908b90600401612141565b602060405180830381600087803b1580156111b457600080fd5b505af11580156111c8573d6000803e3d6000fd5b505050506040513d601f19601f820116820180604052508101906111ec9190611dc7565b506040805160a0810182528581526001600160a01b0380861660208301524282840152606082018a9052608082018990529151631e51809360e31b8152909183169063f28c0498906112429084906004016121db565b602060405180830381600087803b15801561125c57600080fd5b505af1158015611270573d6000803e3d6000fd5b505050506040513d601f19601f820116820180604052508101906112949190611f9c565b925086831015611338576001600160a01b03861663a9059cbb336112b8868b612274565b6040516001600160e01b031960e085901b1681526001600160a01b0390921660048301526024820152604401602060405180830381600087803b1580156112fe57600080fd5b505af1158015611312573d6000803e3d6000fd5b505050506040513d601f19601f820116820180604052508101906113369190611dc7565b505b505095945050505050565b60006001600160a01b03821615801590611361575061136182611001565b156113db5761083f83836001600160a01b0316635001f3b56040518163ffffffff1660e01b815260040160206040518083038186803b1580156113a357600080fd5b505afa1580156113b7573d6000803e3d6000fd5b505050506040513d601f19601f820116820180604052508101906101c59190611bb5565b7f00000000000000000000000000000000000000000000000000000000000000006001600160a01b03166330d07f217f00000000000000000000000000000000000000000000000000000000000000006001600160a01b0316634aa4a4fc6040518163ffffffff1660e01b815260040160206040518083038186803b15801561146357600080fd5b505afa158015611477573d6000803e3d6000fd5b505050506040513d601f19601f8201168201806040525081019061149b9190611bb5565b846001600160a01b0316635001f3b56040518163ffffffff1660e01b815260040160206040518083038186803b1580156114d457600080fd5b505afa1580156114e8573d6000803e3d6000fd5b505050506040513d601f19601f8201168201806040525081019061150c9190611bb5565b6040516001600160e01b031960e085901b1681526001600160a01b03928316600482015291166024820152610bb86044820152606481018690526000608482015260a401602060405180830381600087803b15801561156a57600080fd5b505af115801561157e573d6000803e3d6000fd5b505050506040513d601f19601f8201168201806040525081019061083f9190611f9c565b336001600160a01b037f00000000000000000000000000000000000000000000000000000000000000001614806115e15750336001600160a01b038a16145b61161b5760405162461bcd60e51b815260206004820152600b60248201526a1b9bdd081d1c9d5cdd195960aa1b6044820152606401610570565b60008a6001600160a01b031663fc0c546a6040518163ffffffff1660e01b815260040160206040518083038186803b15801561165657600080fd5b505afa15801561166a573d6000803e3d6000fd5b505050506040513d601f19601f8201168201806040525081019061168e9190611bb5565b60405163d505accf60e01b81526001600160a01b038c81166004830152306024830152604482018c9052606482018a905260ff8716608483015260a4820186905260c482018590529192509082169063d505accf9060e401600060405180830381600087803b15801561170057600080fd5b505af1158015611714573d6000803e3d6000fd5b50506040516323b872dd60e01b81526001600160a01b03841692506323b872dd9150611748908d908f908e90600401612141565b602060405180830381600087803b15801561176257600080fd5b505af1158015611776573d6000803e3d6000fd5b505050506040513d601f19601f8201168201806040525081019061179a9190611dc7565b5087156119c35760405163349b2e2960e11b81526000906001600160a01b038d16906369365c52906117d890859030908f908d908d90600401612187565b602060405180830381600087803b1580156117f257600080fd5b505af1158015611806573d6000803e3d6000fd5b505050506040513d601f19601f8201168201806040525081019061182a9190611f9c565b905060008c6001600160a01b0316635001f3b56040518163ffffffff1660e01b815260040160206040518083038186803b15801561186757600080fd5b505afa15801561187b573d6000803e3d6000fd5b505050506040513d601f19601f8201168201806040525081019061189f9190611bb5565b60405163a9059cbb60e01b8152336004820152602481018c90529091506001600160a01b0382169063a9059cbb90604401602060405180830381600087803b1580156118ea57600080fd5b505af11580156118fe573d6000803e3d6000fd5b505050506040513d601f19601f820116820180604052508101906119229190611dc7565b506001600160a01b03811663a9059cbb8d61193d8d86612274565b6040516001600160e01b031960e085901b1681526001600160a01b0390921660048301526024820152604401602060405180830381600087803b15801561198357600080fd5b505af1158015611997573d6000803e3d6000fd5b505050506040513d601f19601f820116820180604052508101906119bb9190611dc7565b505050610c99565b60405163349b2e2960e11b81526001600160a01b038c16906369365c52906119f79084908e908e908c908c90600401612187565b602060405180830381600087803b158015611a1157600080fd5b505af1158015611a25573d6000803e3d6000fd5b505050506040513d601f19601f82011682018060405250810190611a499190611f9c565b505050505050505050505050565b60008083601f840112611a6957600080fd5b50813567ffffffffffffffff811115611a8157600080fd5b6020830191508360208260051b8501011115611a9c57600080fd5b9250929050565b60008083601f840112611ab557600080fd5b50813567ffffffffffffffff811115611acd57600080fd5b602083019150836020828501011115611a9c57600080fd5b600082601f830112611af657600080fd5b813567ffffffffffffffff80821115611b1157611b116122d2565b604051601f8301601f19908116603f01168101908282118183101715611b3957611b396122d2565b81604052838152866020858801011115611b5257600080fd5b836020870160208301376000602085830101528094505050505092915050565b805169ffffffffffffffffffff81168114611b8c57600080fd5b919050565b600060208284031215611ba357600080fd5b8135611bae816122e8565b9392505050565b600060208284031215611bc757600080fd5b8151611bae816122e8565b6000806000806000806000806000806101208b8d031215611bf257600080fd5b8a35611bfd816122e8565b995060208b0135611c0d816122e8565b985060408b0135975060608b0135965060808b0135955060a08b013567ffffffffffffffff811115611c3e57600080fd5b611c4a8d828e01611aa3565b90965094505060c08b013560ff81168114611c6457600080fd5b8093505060e08b013591506101008b013590509295989b9194979a5092959850565b600080600080600080600060c0888a031215611ca157600080fd5b8735611cac816122e8565b9650602088013595506040880135611cc3816122e8565b945060608801359350608088013567ffffffffffffffff80821115611ce757600080fd5b611cf38b838c01611ae5565b945060a08a0135915080821115611d0957600080fd5b50611d168a828b01611aa3565b989b979a50959850939692959293505050565b60008060008060608587031215611d3f57600080fd5b8435611d4a816122e8565b935060208501359250604085013567ffffffffffffffff811115611d6d57600080fd5b611d7987828801611aa3565b95989497509550505050565b600080600060608486031215611d9a57600080fd5b8335611da5816122e8565b9250602084013591506040840135611dbc816122e8565b809150509250925092565b600060208284031215611dd957600080fd5b81518015158114611bae57600080fd5b600080600060608486031215611dfe57600080fd5b8335611e09816122e8565b92506020840135611e19816122e8565b929592945050506040919091013590565b600080600080600060808688031215611e4257600080fd5b8535611e4d816122e8565b94506020860135611e5d816122e8565b935060408601359250606086013567ffffffffffffffff811115611e8057600080fd5b611e8c88828901611aa3565b969995985093965092949392505050565b600080600080600060608688031215611eb557600080fd5b8535611ec0816122e8565b9450602086013567ffffffffffffffff80821115611edd57600080fd5b611ee989838a01611a57565b90965094506040880135915080821115611f0257600080fd5b50611e8c88828901611a57565b60008060008060008060006080888a031215611f2a57600080fd5b8735611f35816122e8565b9650602088013567ffffffffffffffff80821115611f5257600080fd5b611f5e8b838c01611a57565b909850965060408a0135915080821115611f7757600080fd5b611f838b838c01611a57565b909650945060608a0135915080821115611d0957600080fd5b600060208284031215611fae57600080fd5b5051919050565b60008060408385031215611fc857600080fd5b82359150602083013567ffffffffffffffff811115611fe657600080fd5b611ff285828601611ae5565b9150509250929050565b6000806040838503121561200f57600080fd5b823591506020830135612021816122e8565b809150509250929050565b600080600080600060a0868803121561204457600080fd5b8535945060208601359350604086013561205d816122e8565b9250606086013567ffffffffffffffff81111561207957600080fd5b61208588828901611ae5565b9250506080860135612096816122e8565b809150509295509295909350565b600080600080600060a086880312156120bc57600080fd5b6120c586611b72565b94506020860151935060408601519250606086015191506120e860808701611b72565b90509295509295909350565b6000815180845260005b8181101561211a576020818501810151868301820152016120fe565b8181111561212c576000602083870101525b50601f01601f19169290920160200192915050565b6001600160a01b039384168152919092166020820152604081019190915260600190565b60408152600061217860408301856120f4565b90508260208301529392505050565b6001600160a01b038681168252851660208201526040810184905260806060820181905281018290526000828460a0840137600060a0848401015260a0601f19601f85011683010190509695505050505050565b602081526000825160a060208401526121f760c08401826120f4565b905060018060a01b0360208501511660408401526040840151606084015260608401516080840152608084015160a08401528091505092915050565b60008261225057634e487b7160e01b600052601260045260246000fd5b500490565b600081600019048311821515161561226f5761226f6122a6565b500290565b600082821015612286576122866122a6565b500390565b600060001982141561229f5761229f6122a6565b5060010190565b634e487b7160e01b600052601160045260246000fd5b634e487b7160e01b600052603260045260246000fd5b634e487b7160e01b600052604160045260246000fd5b6001600160a01b03811681146122fd57600080fd5b5056fea264697066735822122068ece6e35817b72ff1cdcb45dc5dc51b3481e8c111cb0fecfae68f828acf062664736f6c63430008070033",
  "devdoc": {
    "kind": "dev",
    "methods": {
      "approveERC20(address)": {
        "details": "This function needs to be called before using the PaymentHub the first time with a new ERC20 token.",
        "params": {
          "erc20In": "The erc20 addresse to approve."
        }
      },
      "getPriceInEther(uint256,address)": {
        "returns": {
          "_0": "The price in wei."
        }
      },
      "payFromERC20(uint256,uint256,address,bytes,address)": {
        "details": "The calling address must approve this contract to spend its ERC20 for this function to succeed. As the amount of input ERC20 is variable, the calling address will need to approve for a slightly higher or infinit amount, anticipating some variance.",
        "params": {
          "amountInMaximum": "The maximum amount of ERC20 willing to be swapped for the specified amountOut of baseCurrency.",
          "amountOut": "The desired amount of baseCurrency.",
          "erc20In": "The address of the erc20 token to pay with.",
          "path": "The encoded path of the swap from erc20 to base.",
          "recipient": "The reciving address - brokerbot."
        },
        "returns": {
          "amountIn": "The amountIn of ERC20 actually spent to receive the desired amountOut."
        }
      },
      "sellSharesWithPermit(address,address,uint256,uint256,uint256,bytes,uint8,bytes32,bytes32)": {
        "params": {
          "amountToSell": "The amount the seller wants to sell.",
          "deadline": "The deadline of the permit.",
          "r": "Part of the permit signature.",
          "recipient": "The brokerbot to recive the shares.",
          "ref": "Reference of the insider declaration and the type of sell.",
          "s": "Part of the permit signature.",
          "seller": "The address of the seller.",
          "v": "Part of the permit signature."
        }
      }
    },
    "version": 1
  },
  "userdoc": {
    "kind": "user",
    "methods": {
      "approveERC20(address)": {
        "notice": "This function appoves infinite allowance for Uniswap, this is safe as the paymenthub should never hold any token (see also recover() )."
      },
      "getLatestPriceCHFUSD()": {
        "notice": "Returns the latest price of chf/usd pair from chainlink with 8 decimals"
      },
      "getLatestPriceETHUSD()": {
        "notice": "Returns the latest price of eth/usd pair from chainlink with 8 decimals"
      },
      "getPriceInEther(uint256,address)": {
        "notice": "Get price in Ether depding on brokerbot setting. If keep ETH is set price is from oracle. This is the method that the Brokerbot widget should use to quote the price to the user."
      },
      "getPriceInEtherFromOracle(uint256,address)": {
        "notice": "Price in ETH with 18 decimals"
      },
      "hasSettingKeepEther(address)": {
        "notice": "Checks if the recipient(brokerbot) has setting enabled to keep ether"
      },
      "multiPayAndNotify(address,address[],uint256[],bytes)": {
        "notice": "Can (at least in theory) save some gas as the sender balance only is touched in one transaction."
      },
      "payFromEther(address,uint256,address)": {
        "notice": "Convenience method to swap ether into base and pay a target address"
      },
      "recover(address,address,uint256)": {
        "notice": "In case tokens have been accidentally sent directly to this contract. Make sure to be fast as anyone can call this!"
      },
      "sellSharesWithPermit(address,address,uint256,uint256,uint256,bytes,uint8,bytes32,bytes32)": {
        "notice": "Sell shares with permit "
      }
    },
    "notice": "A hub for payments. This allows tokens that do not support ERC 677 to enjoy similar functionality, namely interacting with a token-handling smart contract in one transaction, without having to set an allowance first. Instead, an allowance needs to be set only once, namely for this contract. Further, it supports automatic conversion from Ether to the payment currency through Uniswap or the reception of Ether using the current exchange rate as found in the chainlink oracle.",
    "version": 1
  },
  "storageLayout": {
    "storage": [],
    "types": null
  }
}