{
  "address": "0x1abD8b5194D733691D64c3F898300f88Ba0035d5",
  "abi": [
    {
      "inputs": [
        {
          "internalType": "address",
          "name": "target",
          "type": "address"
        }
      ],
      "name": "Address_NotTransferNorContract",
      "type": "error"
    },
    {
      "inputs": [
        {
          "internalType": "contract IERC20",
          "name": "token",
          "type": "address"
        },
        {
          "internalType": "address",
          "name": "lostAddress",
          "type": "address"
        }
      ],
      "name": "RecoveryHub_AlreadyClaimed",
      "type": "error"
    },
    {
      "inputs": [
        {
          "internalType": "contract IERC20",
          "name": "collateralType",
          "type": "address"
        }
      ],
      "name": "RecoveryHub_BadCollateral",
      "type": "error"
    },
    {
      "inputs": [
        {
          "internalType": "address",
          "name": "lostAddress",
          "type": "address"
        }
      ],
      "name": "RecoveryHub_ClaimNotFound",
      "type": "error"
    },
    {
      "inputs": [
        {
          "internalType": "uint256",
          "name": "claimPeriodEnd",
          "type": "uint256"
        },
        {
          "internalType": "uint256",
          "name": "currentTimestamp",
          "type": "uint256"
        }
      ],
      "name": "RecoveryHub_InClaimPeriod",
      "type": "error"
    },
    {
      "inputs": [
        {
          "internalType": "address",
          "name": "sender",
          "type": "address"
        }
      ],
      "name": "RecoveryHub_InvalidSender",
      "type": "error"
    },
    {
      "inputs": [
        {
          "internalType": "contract IERC20",
          "name": "token",
          "type": "address"
        },
        {
          "internalType": "address",
          "name": "lostAddress",
          "type": "address"
        }
      ],
      "name": "RecoveryHub_NothingToRecover",
      "type": "error"
    },
    {
      "inputs": [
        {
          "internalType": "address",
          "name": "lostAddress",
          "type": "address"
        }
      ],
      "name": "RecoveryHub_RecoveryDisabled",
      "type": "error"
    },
    {
      "inputs": [
        {
          "internalType": "address",
          "name": "token",
          "type": "address"
        }
      ],
      "name": "SafeERC20FailedOperation",
      "type": "error"
    },
    {
      "anonymous": false,
      "inputs": [
        {
          "indexed": true,
          "internalType": "contract IRecoverable",
          "name": "token",
          "type": "address"
        },
        {
          "indexed": true,
          "internalType": "address",
          "name": "lostAddress",
          "type": "address"
        },
        {
          "indexed": false,
          "internalType": "uint256",
          "name": "collateral",
          "type": "uint256"
        }
      ],
      "name": "ClaimCleared",
      "type": "event"
    },
    {
      "anonymous": false,
      "inputs": [
        {
          "indexed": true,
          "internalType": "contract IRecoverable",
          "name": "token",
          "type": "address"
        },
        {
          "indexed": true,
          "internalType": "address",
          "name": "lostAddress",
          "type": "address"
        },
        {
          "indexed": true,
          "internalType": "address",
          "name": "claimant",
          "type": "address"
        },
        {
          "indexed": false,
          "internalType": "uint256",
          "name": "collateral",
          "type": "uint256"
        }
      ],
      "name": "ClaimDeleted",
      "type": "event"
    },
    {
      "anonymous": false,
      "inputs": [
        {
          "indexed": true,
          "internalType": "contract IRecoverable",
          "name": "token",
          "type": "address"
        },
        {
          "indexed": true,
          "internalType": "address",
          "name": "lostAddress",
          "type": "address"
        },
        {
          "indexed": true,
          "internalType": "address",
          "name": "claimant",
          "type": "address"
        },
        {
          "indexed": false,
          "internalType": "uint256",
          "name": "balance",
          "type": "uint256"
        }
      ],
      "name": "ClaimMade",
      "type": "event"
    },
    {
      "anonymous": false,
      "inputs": [
        {
          "indexed": true,
          "internalType": "contract IRecoverable",
          "name": "token",
          "type": "address"
        },
        {
          "indexed": true,
          "internalType": "address",
          "name": "lostAddress",
          "type": "address"
        },
        {
          "indexed": true,
          "internalType": "address",
          "name": "claimant",
          "type": "address"
        },
        {
          "indexed": false,
          "internalType": "uint256",
          "name": "collateral",
          "type": "uint256"
        }
      ],
      "name": "ClaimResolved",
      "type": "event"
    },
    {
      "inputs": [
        {
          "internalType": "contract IRecoverable",
          "name": "",
          "type": "address"
        },
        {
          "internalType": "address",
          "name": "",
          "type": "address"
        }
      ],
      "name": "claims",
      "outputs": [
        {
          "internalType": "address",
          "name": "claimant",
          "type": "address"
        },
        {
          "internalType": "uint256",
          "name": "collateral",
          "type": "uint256"
        },
        {
          "internalType": "uint256",
          "name": "timestamp",
          "type": "uint256"
        },
        {
          "internalType": "contract IERC20",
          "name": "currencyUsed",
          "type": "address"
        }
      ],
      "stateMutability": "view",
      "type": "function"
    },
    {
      "inputs": [
        {
          "internalType": "address",
          "name": "holder",
          "type": "address"
        }
      ],
      "name": "clearClaimFromToken",
      "outputs": [],
      "stateMutability": "nonpayable",
      "type": "function"
    },
    {
      "inputs": [
        {
          "internalType": "contract IRecoverable",
          "name": "token",
          "type": "address"
        }
      ],
      "name": "clearClaimFromUser",
      "outputs": [],
      "stateMutability": "nonpayable",
      "type": "function"
    },
    {
      "inputs": [
        {
          "internalType": "contract IRecoverable",
          "name": "token",
          "type": "address"
        },
        {
          "internalType": "contract IERC20",
          "name": "collateralType",
          "type": "address"
        },
        {
          "internalType": "address",
          "name": "lostAddress",
          "type": "address"
        }
      ],
      "name": "declareLost",
      "outputs": [],
      "stateMutability": "nonpayable",
      "type": "function"
    },
    {
      "inputs": [
        {
          "internalType": "address",
          "name": "lostAddress",
          "type": "address"
        }
      ],
      "name": "deleteClaim",
      "outputs": [],
      "stateMutability": "nonpayable",
      "type": "function"
    },
    {
      "inputs": [
        {
          "internalType": "contract IRecoverable",
          "name": "token",
          "type": "address"
        },
        {
          "internalType": "address",
          "name": "lostAddress",
          "type": "address"
        }
      ],
      "name": "getClaimant",
      "outputs": [
        {
          "internalType": "address",
          "name": "",
          "type": "address"
        }
      ],
      "stateMutability": "view",
      "type": "function"
    },
    {
      "inputs": [
        {
          "internalType": "contract IRecoverable",
          "name": "token",
          "type": "address"
        },
        {
          "internalType": "address",
          "name": "lostAddress",
          "type": "address"
        }
      ],
      "name": "getCollateral",
      "outputs": [
        {
          "internalType": "uint256",
          "name": "",
          "type": "uint256"
        }
      ],
      "stateMutability": "view",
      "type": "function"
    },
    {
      "inputs": [
        {
          "internalType": "contract IRecoverable",
          "name": "token",
          "type": "address"
        },
        {
          "internalType": "address",
          "name": "lostAddress",
          "type": "address"
        }
      ],
      "name": "getCollateralType",
      "outputs": [
        {
          "internalType": "contract IERC20",
          "name": "",
          "type": "address"
        }
      ],
      "stateMutability": "view",
      "type": "function"
    },
    {
      "inputs": [
        {
          "internalType": "contract IRecoverable",
          "name": "token",
          "type": "address"
        },
        {
          "internalType": "address",
          "name": "lostAddress",
          "type": "address"
        }
      ],
      "name": "getTimeStamp",
      "outputs": [
        {
          "internalType": "uint256",
          "name": "",
          "type": "uint256"
        }
      ],
      "stateMutability": "view",
      "type": "function"
    },
    {
      "inputs": [
        {
          "internalType": "address",
          "name": "target",
          "type": "address"
        }
      ],
      "name": "isRecoverable",
      "outputs": [
        {
          "internalType": "bool",
          "name": "",
          "type": "bool"
        }
      ],
      "stateMutability": "view",
      "type": "function"
    },
    {
      "inputs": [
        {
          "internalType": "contract IRecoverable",
          "name": "token",
          "type": "address"
        },
        {
          "internalType": "address",
          "name": "lostAddress",
          "type": "address"
        }
      ],
      "name": "recover",
      "outputs": [],
      "stateMutability": "nonpayable",
      "type": "function"
    },
    {
      "inputs": [
        {
          "internalType": "address",
          "name": "",
          "type": "address"
        }
      ],
      "name": "recoveryDisabled",
      "outputs": [
        {
          "internalType": "bool",
          "name": "",
          "type": "bool"
        }
      ],
      "stateMutability": "view",
      "type": "function"
    },
    {
      "inputs": [
        {
          "internalType": "bool",
          "name": "enabled",
          "type": "bool"
        }
      ],
      "name": "setRecoverable",
      "outputs": [],
      "stateMutability": "nonpayable",
      "type": "function"
    }
  ],
  "transactionHash": "0x1f70a730b724ddf7f050a0cb9b7b3755488910df3ba8170c777f961929a7e5bc",
  "args": [],
  "numDeployments": 2,
  "solcInputHash": "9c20d6d2cdb3bf3f1a45f6b1e6057f84",
  "bytecode": "0x6080604052348015600f57600080fd5b50610fd68061001f6000396000f3fe608060405234801561001057600080fd5b50600436106100cf5760003560e01c806352226ef01161008c578063b40e80d111610066578063b40e80d114610263578063c1e5857314610286578063cc0720cc14610299578063e334860a146102e757600080fd5b806352226ef0146101e95780636427ed9714610223578063648bf7741461025057600080fd5b806306036025146100d457806323cd9a86146100e95780632851bbc91461010f57806332a7ae951461014c5780633f733c6b1461015f5780634d301a30146101d6575b600080fd5b6100e76100e2366004610e2f565b610320565b005b6100fc6100f7366004610e4c565b61032d565b6040519081526020015b60405180910390f35b61013c61011d366004610e2f565b6001600160a01b031660009081526001602052604090205460ff161590565b6040519015158152602001610106565b6100e761015a366004610e2f565b61035b565b6101a761016d366004610e4c565b600060208181529281526040808220909352908152208054600182015460028301546003909301546001600160a01b039283169391921684565b604080516001600160a01b03958616815260208101949094528301919091529091166060820152608001610106565b6100e76101e4366004610e2f565b6104eb565b6100fc6101f7366004610e4c565b6001600160a01b0391821660009081526020818152604080832093909416825291909152206001015490565b6100e7610231366004610e93565b336000908152600160205260409020805460ff19169115919091179055565b6100e761025e366004610e4c565b6104f5565b61013c610271366004610e2f565b60016020526000908152604090205460ff1681565b6100e7610294366004610eb0565b6107a9565b6102cf6102a7366004610e4c565b6001600160a01b03918216600090815260208181526040808320938516835292905220541690565b6040516001600160a01b039091168152602001610106565b6102cf6102f5366004610e4c565b6001600160a01b03918216600090815260208181526040808320938516835292905220600301541690565b61032a8133610a9c565b50565b6001600160a01b03808316600090815260208181526040808320938516835292905220600201545b92915050565b336000818152602081815260408083206001600160a01b038681168552908352818420825160808101845281548316815260018201549481018590526002820154938101939093526003015416606082018190529092909190036103e25760405163bca13b6b60e01b81526001600160a01b03851660048201526024015b60405180910390fd5b6001600160a01b0383811660008181526020818152604080832089861680855290835281842080546001600160a01b0319908116825560018201869055600282019590955560030180549094169093558651878301519151918252909416939192917fe353e089146c0574fa0001d9aa56c67a4eee067d8730543ae0ee937a30d679f3910160405180910390a460405163396e093b60e21b81526001600160a01b03858116600483015284169063e5b824ec90602401600060405180830381600087803b1580156104b257600080fd5b505af11580156104c6573d6000803e3d6000fd5b5050835160208501516104e593506001600160a01b0385169250610c0e565b50505050565b61032a3382610a9c565b6001600160a01b038083166000908152602081815260408083208585168452825280832081516080810183528154861681526001820154938101849052600282015492810192909252600301549093166060840152908190036105765760405163bca13b6b60e01b81526001600160a01b03841660048201526024016103d9565b81516001600160a01b03811633146105a35760405163a755367960e01b81523360048201526024016103d9565b6000856001600160a01b0316637dc2cd986040518163ffffffff1660e01b8152600401602060405180830381865afa1580156105e3573d6000803e3d6000fd5b505050506040513d601f19601f820116820180604052508101906106079190610efb565b84604001516106169190610f2a565b9050428111156106425760405163065d672f60e41b8152600481018290524260248201526044016103d9565b6001600160a01b038681166000818152602081815260408083208a861680855290835281842080546001600160a01b03199081168255600182018690556002820195909555600301805490941690935551878152938616939192917f03746d4086c981172ed0a960601bec02cfe0a2ecbe1b1b4e328752bbf5d0c255910160405180910390a460405163396e093b60e21b81526001600160a01b03868116600483015287169063e5b824ec90602401600060405180830381600087803b15801561070b57600080fd5b505af115801561071f573d6000803e3d6000fd5b50505050606084015161073c6001600160a01b0382168486610c0e565b604051631922fddd60e21b81526001600160a01b038781166004830152848116602483015288169063648bf774906044015b600060405180830381600087803b15801561078857600080fd5b505af115801561079c573d6000803e3d6000fd5b5050505050505050505050565b6001600160a01b03811660009081526001602052604090205460ff16156107f15760405160016234012160e11b031981526001600160a01b03821660048201526024016103d9565b6040516377e071ad60e01b81526001600160a01b038381166004830152600091908516906377e071ad90602401602060405180830381865afa15801561083b573d6000803e3d6000fd5b505050506040513d601f19601f8201168201806040525081019061085f9190610efb565b90508060000361088d5760405163df8c6ee360e01b81526001600160a01b03841660048201526024016103d9565b6040516370a0823160e01b81526001600160a01b038381166004830152600091908616906370a0823190602401602060405180830381865afa1580156108d7573d6000803e3d6000fd5b505050506040513d601f19601f820116820180604052508101906108fb9190610efb565b90508060000361093157604051630b31b77b60e01b81526001600160a01b038087166004830152841660248201526044016103d9565b600061093d8383610f3d565b6001600160a01b038088166000908152602081815260408083209389168352929052206001015490915085901561099a57604051636dee9c8560e01b81526001600160a01b038089166004830152861660248201526044016103d9565b60408051608081018252338082526020808301868152428486019081526001600160a01b038c8116606087019081528e821660008181528087528981208f85168083529752899020975188549084166001600160a01b03199182161789559451600189015592516002880155516003909601805496909116959092169490941790559251909291907f6bfd50306449d9d6c51593433950fc186e4ab99a885ed357a34549bfd7a2668f90610a519088815260200190565b60405180910390a4610a6e6001600160a01b038216333085610c72565b6040516330605cb160e21b81526001600160a01b03868116600483015288169063c18172c49060240161076e565b6001600160a01b038083166000908152602081815260408083208585168452825291829020825160808101845281548516815260018201549281018390526002820154938101939093526003015490921660608201529015610bae5760608101516001600160a01b0380851660009081526020818152604080832087851684528252822080546001600160a01b031990811682556001820184905560028201939093556003018054909216909155830151610b5b918316908590610c0e565b826001600160a01b0316846001600160a01b03167febe2b7544a1a711c29034fc19c1b200f13cf4ec175198e0f857735ed4f5f9bd18460200151604051610ba491815260200190565b60405180910390a3505b60405163396e093b60e21b81526001600160a01b03838116600483015284169063e5b824ec90602401600060405180830381600087803b158015610bf157600080fd5b505af1158015610c05573d6000803e3d6000fd5b50505050505050565b6040516001600160a01b03838116602483015260448201839052610c6d91859182169063a9059cbb906064015b604051602081830303815290604052915060e01b6020820180516001600160e01b038381831617835250505050610cab565b505050565b6040516001600160a01b0384811660248301528381166044830152606482018390526104e59186918216906323b872dd90608401610c3b565b6000610cc06001600160a01b03841683610d0e565b90508051600014158015610ce5575080806020019051810190610ce39190610f54565b155b15610c6d57604051635274afe760e01b81526001600160a01b03841660048201526024016103d9565b6060610d1c83836000610d23565b9392505050565b60608251600014158015610d3f57506001600160a01b0384163b155b15610d6857604051639eb1341360e01b81526001600160a01b03851660048201526024016103d9565b600080856001600160a01b03168486604051610d849190610f71565b60006040518083038185875af1925050503d8060008114610dc1576040519150601f19603f3d011682016040523d82523d6000602084013e610dc6565b606091505b50915091508115610dda579150610d1c9050565b805115610de957805160208201fd5b60405162461bcd60e51b815260206004820152600660248201526519985a5b195960d21b60448201526064016103d9565b6001600160a01b038116811461032a57600080fd5b600060208284031215610e4157600080fd5b8135610d1c81610e1a565b60008060408385031215610e5f57600080fd5b8235610e6a81610e1a565b91506020830135610e7a81610e1a565b809150509250929050565b801515811461032a57600080fd5b600060208284031215610ea557600080fd5b8135610d1c81610e85565b600080600060608486031215610ec557600080fd5b8335610ed081610e1a565b92506020840135610ee081610e1a565b91506040840135610ef081610e1a565b809150509250925092565b600060208284031215610f0d57600080fd5b5051919050565b634e487b7160e01b600052601160045260246000fd5b8082018082111561035557610355610f14565b808202811582820484141761035557610355610f14565b600060208284031215610f6657600080fd5b8151610d1c81610e85565b6000825160005b81811015610f925760208186018101518583015201610f78565b50600092019182525091905056fea26469706673582212201e5663ae574cd2b9f29c7f45f02f888b5e5359181ee0275ee0db63fe25f5516664736f6c63430008190033",
  "devdoc": {
    "errors": {
      "Address_NotTransferNorContract(address)": [
        {
          "params": {
            "target": "Target address to call the function on."
          }
        }
      ],
      "RecoveryHub_AlreadyClaimed(address,address)": [
        {
          "params": {
            "lostAddress": "The lost address.",
            "token": "The token address."
          }
        }
      ],
      "RecoveryHub_BadCollateral(address)": [
        {
          "params": {
            "collateralType": "The address of collateral type token"
          }
        }
      ],
      "RecoveryHub_ClaimNotFound(address)": [
        {
          "params": {
            "lostAddress": "The checked address "
          }
        }
      ],
      "RecoveryHub_InClaimPeriod(uint256,uint256)": [
        {
          "params": {
            "claimPeriodEnd": "The timestamp when the period ends",
            "currentTimestamp": "The block timestamp of the call"
          }
        }
      ],
      "RecoveryHub_InvalidSender(address)": [
        {
          "params": {
            "sender": "The msg.sender of the call"
          }
        }
      ],
      "RecoveryHub_NothingToRecover(address,address)": [
        {
          "params": {
            "lostAddress": "The lost address.",
            "token": "The token address which is checked for recovery."
          }
        }
      ],
      "RecoveryHub_RecoveryDisabled(address)": [
        {
          "params": {
            "lostAddress": "The address for which the recovery is disabled."
          }
        }
      ],
      "SafeERC20FailedOperation(address)": [
        {
          "details": "An operation with an ERC20 token failed."
        }
      ]
    },
    "kind": "dev",
    "methods": {},
    "version": 1
  },
  "userdoc": {
    "errors": {
      "RecoveryHub_AlreadyClaimed(address,address)": [
        {
          "notice": "The was already a claim for this token and address."
        }
      ],
      "RecoveryHub_BadCollateral(address)": [
        {
          "notice": "No valid collateral type"
        }
      ],
      "RecoveryHub_ClaimNotFound(address)": [
        {
          "notice": "No claim for this address exists"
        }
      ],
      "RecoveryHub_InClaimPeriod(uint256,uint256)": [
        {
          "notice": "Recover can only be called after the claim period"
        }
      ],
      "RecoveryHub_InvalidSender(address)": [
        {
          "notice": "Sender has to be claimant"
        }
      ],
      "RecoveryHub_NothingToRecover(address,address)": [
        {
          "notice": "No token to able to recover on the lost address"
        }
      ],
      "RecoveryHub_RecoveryDisabled(address)": [
        {
          "notice": "Recovery can be disabled per address."
        }
      ]
    },
    "kind": "user",
    "methods": {
      "clearClaimFromToken(address)": {
        "notice": "Clears a claim after the key has been found again and assigns the collateral to the \"lost\" address. This is the price an adverse claimer pays for filing a false claim and makes it risky to do so."
      },
      "declareLost(address,address,address)": {
        "notice": "Anyone can declare that the private key to a certain address was lost by calling declareLost providing a deposit/collateral. There are three possibilities of what can happen with the claim: 1) The claim period expires and the claimant can get the deposit and the shares back by calling recover 2) The \"lost\" private key is used at any time to call clearClaim. In that case, the claim is deleted and    the deposit sent to the shareholder (the owner of the private key). It is recommended to call recover    whenever someone transfers funds to let claims be resolved automatically when the \"lost\" private key is    used again. 3) The owner deletes the claim and assigns the deposit to the claimant. This is intended to be used to resolve    disputes. Generally, using this function implies that you have to trust the issuer of the tokens to handle    the situation well. As a rule of thumb, the contract owner should assume the owner of the lost address to be the    rightful owner of the deposit. It is highly recommended that the owner observes the claims made and informs the owners of the claimed addresses whenever a claim is made for their address (this of course is only possible if they are known to the owner, e.g. through a shareholder register)."
      },
      "deleteClaim(address)": {
        "notice": "The token contract can delete claims. It is the responsibility of the token contract to make sure only authorized parties can trigger such a call."
      },
      "isRecoverable(address)": {
        "notice": "Some users might want to disable claims for their address completely. For example if they use a deep cold storage solution or paper wallet."
      },
      "recover(address,address)": {
        "notice": "After the claim period has passed, the claimant can call this function to send the tokens on the lost address as well as the collateral to himself."
      }
    },
    "version": 1
  },
  "storageLayout": {
    "storage": [
      {
        "astId": 11387,
        "contract": "src/recovery/RecoveryHub.sol:RecoveryHub",
        "label": "claims",
        "offset": 0,
        "slot": "0",
        "type": "t_mapping(t_contract(IRecoverable)11287,t_mapping(t_address,t_struct(Claim)11379_storage))"
      },
      {
        "astId": 11391,
        "contract": "src/recovery/RecoveryHub.sol:RecoveryHub",
        "label": "recoveryDisabled",
        "offset": 0,
        "slot": "1",
        "type": "t_mapping(t_address,t_bool)"
      }
    ],
    "types": {
      "t_address": {
        "encoding": "inplace",
        "label": "address",
        "numberOfBytes": "20"
      },
      "t_bool": {
        "encoding": "inplace",
        "label": "bool",
        "numberOfBytes": "1"
      },
      "t_contract(IERC20)1997": {
        "encoding": "inplace",
        "label": "contract IERC20",
        "numberOfBytes": "20"
      },
      "t_contract(IRecoverable)11287": {
        "encoding": "inplace",
        "label": "contract IRecoverable",
        "numberOfBytes": "20"
      },
      "t_mapping(t_address,t_bool)": {
        "encoding": "mapping",
        "key": "t_address",
        "label": "mapping(address => bool)",
        "numberOfBytes": "32",
        "value": "t_bool"
      },
      "t_mapping(t_address,t_struct(Claim)11379_storage)": {
        "encoding": "mapping",
        "key": "t_address",
        "label": "mapping(address => struct RecoveryHub.Claim)",
        "numberOfBytes": "32",
        "value": "t_struct(Claim)11379_storage"
      },
      "t_mapping(t_contract(IRecoverable)11287,t_mapping(t_address,t_struct(Claim)11379_storage))": {
        "encoding": "mapping",
        "key": "t_contract(IRecoverable)11287",
        "label": "mapping(contract IRecoverable => mapping(address => struct RecoveryHub.Claim))",
        "numberOfBytes": "32",
        "value": "t_mapping(t_address,t_struct(Claim)11379_storage)"
      },
      "t_struct(Claim)11379_storage": {
        "encoding": "inplace",
        "label": "struct RecoveryHub.Claim",
        "members": [
          {
            "astId": 11371,
            "contract": "src/recovery/RecoveryHub.sol:RecoveryHub",
            "label": "claimant",
            "offset": 0,
            "slot": "0",
            "type": "t_address"
          },
          {
            "astId": 11373,
            "contract": "src/recovery/RecoveryHub.sol:RecoveryHub",
            "label": "collateral",
            "offset": 0,
            "slot": "1",
            "type": "t_uint256"
          },
          {
            "astId": 11375,
            "contract": "src/recovery/RecoveryHub.sol:RecoveryHub",
            "label": "timestamp",
            "offset": 0,
            "slot": "2",
            "type": "t_uint256"
          },
          {
            "astId": 11378,
            "contract": "src/recovery/RecoveryHub.sol:RecoveryHub",
            "label": "currencyUsed",
            "offset": 0,
            "slot": "3",
            "type": "t_contract(IERC20)1997"
          }
        ],
        "numberOfBytes": "128"
      },
      "t_uint256": {
        "encoding": "inplace",
        "label": "uint256",
        "numberOfBytes": "32"
      }
    }
  }
}