{
  "_format": "hh-sol-artifact-1",
  "contractName": "EtherForwarder",
  "sourceName": "contracts/multisig/EtherForwarder.sol",
  "abi": [
    {
      "inputs": [],
      "name": "ReentrancyGuardReentrantCall",
      "type": "error"
    },
    {
      "inputs": [
        {
          "internalType": "address",
          "name": "target",
          "type": "address"
        }
      ],
      "name": "forward",
      "outputs": [],
      "stateMutability": "payable",
      "type": "function"
    }
  ],
  "bytecode": "0x6080604052348015600e575f5ffd5b506102048061001c5f395ff3fe60806040526004361061001d575f3560e01c8063101e895214610021575b5f5ffd5b61003461002f3660046101a1565b610036565b005b61003e610101565b5f816001600160a01b0316346040515f6040518083038185875af1925050503d805f8114610087576040519150601f19603f3d011682016040523d82523d5f602084013e61008c565b606091505b50509050806100f55760405162461bcd60e51b815260206004820152602b60248201527f4661696c656420746f2073656e64204574686572207468726f7567682045746860448201526a32b92337b93bb0b93232b960a91b606482015260840160405180910390fd5b506100fe610170565b50565b7f9b779b17422d0df92223018b32b4d1fa46e071723d6817e2486d003becc55f005c1561014157604051633ee5aeb560e01b815260040160405180910390fd5b61016e60017f9b779b17422d0df92223018b32b4d1fa46e071723d6817e2486d003becc55f005b9061019a565b565b61016e5f7f9b779b17422d0df92223018b32b4d1fa46e071723d6817e2486d003becc55f00610168565b80825d5050565b5f602082840312156101b1575f5ffd5b81356001600160a01b03811681146101c7575f5ffd5b939250505056fea264697066735822122056711b7ad3ec75407decc50539cc94c4fb86318eef584b3f077b93815cbee5c064736f6c634300081d0033",
  "linkReferences": {},
  "deployedLinkReferences": {}
}