{
  "_format": "hh3-artifact-1",
  "contractName": "AuthorizedExecutor",
  "sourceName": "contracts/EIP7702/AuthorizedExecutor.sol",
  "abi": [
    {
      "inputs": [],
      "name": "CallReverted",
      "type": "error"
    },
    {
      "inputs": [],
      "name": "FunctionSignatureMismatch",
      "type": "error"
    },
    {
      "inputs": [],
      "name": "InvalidNonce",
      "type": "error"
    },
    {
      "inputs": [],
      "name": "InvalidSignature",
      "type": "error"
    },
    {
      "inputs": [],
      "name": "InvalidSignatureLength",
      "type": "error"
    },
    {
      "inputs": [],
      "name": "InvalidSigner",
      "type": "error"
    },
    {
      "anonymous": false,
      "inputs": [
        {
          "indexed": true,
          "internalType": "address",
          "name": "sender",
          "type": "address"
        },
        {
          "indexed": true,
          "internalType": "address",
          "name": "to",
          "type": "address"
        },
        {
          "indexed": false,
          "internalType": "uint256",
          "name": "value",
          "type": "uint256"
        },
        {
          "indexed": false,
          "internalType": "bytes",
          "name": "data",
          "type": "bytes"
        },
        {
          "indexed": false,
          "internalType": "uint256",
          "name": "nonce",
          "type": "uint256"
        }
      ],
      "name": "CallExecuted",
      "type": "event"
    },
    {
      "stateMutability": "payable",
      "type": "fallback"
    },
    {
      "inputs": [],
      "name": "contractNonce",
      "outputs": [
        {
          "internalType": "uint256",
          "name": "",
          "type": "uint256"
        }
      ],
      "stateMutability": "view",
      "type": "function"
    },
    {
      "inputs": [
        {
          "components": [
            {
              "internalType": "uint256",
              "name": "nonce",
              "type": "uint256"
            },
            {
              "internalType": "address",
              "name": "to",
              "type": "address"
            },
            {
              "internalType": "string",
              "name": "functionSignature",
              "type": "string"
            },
            {
              "internalType": "uint256",
              "name": "value",
              "type": "uint256"
            },
            {
              "internalType": "bytes",
              "name": "data",
              "type": "bytes"
            }
          ],
          "internalType": "struct AuthorizedCall",
          "name": "call",
          "type": "tuple"
        },
        {
          "internalType": "bytes",
          "name": "signature",
          "type": "bytes"
        }
      ],
      "name": "execute",
      "outputs": [],
      "stateMutability": "payable",
      "type": "function"
    },
    {
      "inputs": [
        {
          "components": [
            {
              "internalType": "uint256",
              "name": "nonce",
              "type": "uint256"
            },
            {
              "internalType": "address",
              "name": "to",
              "type": "address"
            },
            {
              "internalType": "string",
              "name": "functionSignature",
              "type": "string"
            },
            {
              "internalType": "uint256",
              "name": "value",
              "type": "uint256"
            },
            {
              "internalType": "bytes",
              "name": "data",
              "type": "bytes"
            }
          ],
          "internalType": "struct AuthorizedCall",
          "name": "call",
          "type": "tuple"
        },
        {
          "internalType": "bytes",
          "name": "sig",
          "type": "bytes"
        }
      ],
      "name": "verifyAuthorizedCallSignature",
      "outputs": [],
      "stateMutability": "view",
      "type": "function"
    },
    {
      "stateMutability": "payable",
      "type": "receive"
    }
  ],
  "bytecode": "0x6080604052348015600e575f5ffd5b5061082e8061001c5f395ff3fe608060405260043610610033575f3560e01c806349d71f0514610035578063c008a92114610068578063e4f6c9691461007b575b005b348015610040575f5ffd5b506100566c0c41b33ce27b56a9d89a458cfc5481565b60405190815260200160405180910390f35b610033610076366004610615565b61009a565b348015610086575f5ffd5b50610033610095366004610615565b61010b565b6c0c41b33ce27b56a9d89a458cfc548335146100c957604051633ab3447f60e11b815260040160405180910390fd5b6100d483838361010b565b6100dd83610371565b6c0c41b33ce27b56a9d89a458cfc8054905f6100f8836106c5565b9190505550610106836103de565b505050565b5f610228604080518082018252600e81526d105d5d1a1bdc9a5e995910d85b1b60921b6020918201528151808301835260018152603160f81b9082015281518083018352600b81526a185add1a5bdb985c9a585d60aa1b9082015281517fd87cd6ef79d4e2b95e15ce8abf732db51ec771f1ca2edccf22a46c729ac56472818301527f8eedd0639f9b9abcaa3c5a01bd5b1133716d3ba8cadaa2636ab67e7ba7a3dd03818401527fc89efdaa54c0f20c7adf612882df0950f5a951637e0307cdcb4c672f298b8bc660608201524660808201523060a08201527fb6128aea051691c801ac365e40bc0164657b14041190034bd8a4bb5b1a6de64960c0808301919091528351808303909101815260e0909101909252815191012090565b610231856104e4565b60405161190160f01b6020820152602281019290925260428201526062016040516020818303038152906040528051906020012090505f5f5f6102a886868080601f0160208091040260200160405190810160405280939291908181526020018383808284375f920191909152506105b692505050565b9250925092505f6001858585856040515f81526020016040526040516102ea949392919093845260ff9290921660208401526040830152606082015260800190565b6020604051602081039080840390855afa15801561030a573d5f5f3e3d5ffd5b5050604051601f1901519150506001600160a01b03811661033e57604051638baa579f60e01b815260040160405180910390fd5b6001600160a01b038116301461036757604051632057875960e21b815260040160405180910390fd5b5050505050505050565b5f61037f60408301836106dd565b60405161038d929190610727565b60405190819003902090506103a560808301836106dd565b6103ae91610736565b6001600160e01b03198281169116146103da57604051636e2fdc8560e11b815260040160405180910390fd5b5050565b5f6103ef604083016020840161076e565b6001600160a01b0316606083013561040a60808501856106dd565b604051610418929190610727565b5f6040518083038185875af1925050503d805f8114610452576040519150601f19603f3d011682016040523d82523d5f602084013e610457565b606091505b50509050806104795760405163bbdf0a7760e01b815260040160405180910390fd5b610489604083016020840161076e565b6001600160a01b0316337f172216917c08dbc4760594d0459e0a9e277d446a7c0808c29c7dacdbbf6151aa60608501356104c660808701876106dd565b6040516104d89392919089359061079b565b60405180910390a35050565b5f7f1f55ebaaeab53f5f6ed8d265807a0712a41ec518527652a1a943ddbd4ebd92888235610518604085016020860161076e565b61052560408601866106dd565b604051610533929190610727565b604051908190039020606086013561054e60808801886106dd565b60405161055c929190610727565b6040805191829003822060208301979097528101949094526001600160a01b039092166060840152608083015260a082015260c081019190915260e001604051602081830303815290604052805190602001209050919050565b5f5f5f83516041036105f55750505060208101516040820151604183015160ff169190601b8310156105f0576105ed601b846107d9565b92505b61060e565b604051634be6321b60e01b815260040160405180910390fd5b9193909250565b5f5f5f60408486031215610627575f5ffd5b833567ffffffffffffffff81111561063d575f5ffd5b840160a0818703121561064e575f5ffd5b9250602084013567ffffffffffffffff811115610669575f5ffd5b8401601f81018613610679575f5ffd5b803567ffffffffffffffff81111561068f575f5ffd5b8660208284010111156106a0575f5ffd5b939660209190910195509293505050565b634e487b7160e01b5f52601160045260245ffd5b5f600182016106d6576106d66106b1565b5060010190565b5f5f8335601e198436030181126106f2575f5ffd5b83018035915067ffffffffffffffff82111561070c575f5ffd5b602001915036819003821315610720575f5ffd5b9250929050565b818382375f9101908152919050565b80356001600160e01b03198116906004841015610767576001600160e01b0319600485900360031b81901b82161691505b5092915050565b5f6020828403121561077e575f5ffd5b81356001600160a01b0381168114610794575f5ffd5b9392505050565b84815260606020820152826060820152828460808301375f608084830101525f6080601f19601f860116830101905082604083015295945050505050565b60ff81811683821601908111156107f2576107f26106b1565b9291505056fea2646970667358221220837ad9fab199a14f0e2d1b8e7e573cdbe0bc51cf66da56cab09411a0dff4ec1764736f6c634300081e0033",
  "linkReferences": {},
  "deployedLinkReferences": {},
  "immutableReferences": {},
  "inputSourceName": "project/contracts/EIP7702/AuthorizedExecutor.sol",
  "buildInfoId": "solc-0_8_30-ebddc879f449d275c1e069bdb11d7ab075aaa525"
}