{
  "_format": "hh-sol-artifact-1",
  "contractName": "ERC20Basic",
  "sourceName": "ext/ERC20Basic.sol",
  "abi": [
    {
      "inputs": [
        {
          "internalType": "string",
          "name": "_symbol",
          "type": "string"
        },
        {
          "internalType": "string",
          "name": "_name",
          "type": "string"
        },
        {
          "internalType": "uint8",
          "name": "_decimals",
          "type": "uint8"
        },
        {
          "internalType": "address",
          "name": "_admin",
          "type": "address"
        }
      ],
      "stateMutability": "nonpayable",
      "type": "constructor"
    },
    {
      "anonymous": false,
      "inputs": [
        {
          "indexed": true,
          "internalType": "address",
          "name": "owner",
          "type": "address"
        },
        {
          "indexed": true,
          "internalType": "address",
          "name": "spender",
          "type": "address"
        },
        {
          "indexed": false,
          "internalType": "uint256",
          "name": "value",
          "type": "uint256"
        }
      ],
      "name": "Approval",
      "type": "event"
    },
    {
      "anonymous": false,
      "inputs": [
        {
          "indexed": false,
          "internalType": "string",
          "name": "name",
          "type": "string"
        },
        {
          "indexed": false,
          "internalType": "string",
          "name": "symbol",
          "type": "string"
        }
      ],
      "name": "NameChanged",
      "type": "event"
    },
    {
      "anonymous": false,
      "inputs": [
        {
          "indexed": true,
          "internalType": "address",
          "name": "previousOwner",
          "type": "address"
        },
        {
          "indexed": true,
          "internalType": "address",
          "name": "newOwner",
          "type": "address"
        }
      ],
      "name": "OwnershipTransferred",
      "type": "event"
    },
    {
      "anonymous": false,
      "inputs": [
        {
          "indexed": true,
          "internalType": "address",
          "name": "from",
          "type": "address"
        },
        {
          "indexed": true,
          "internalType": "address",
          "name": "to",
          "type": "address"
        },
        {
          "indexed": false,
          "internalType": "uint256",
          "name": "value",
          "type": "uint256"
        }
      ],
      "name": "Transfer",
      "type": "event"
    },
    {
      "inputs": [
        {
          "internalType": "address",
          "name": "owner",
          "type": "address"
        },
        {
          "internalType": "address",
          "name": "spender",
          "type": "address"
        }
      ],
      "name": "allowance",
      "outputs": [
        {
          "internalType": "uint256",
          "name": "",
          "type": "uint256"
        }
      ],
      "stateMutability": "view",
      "type": "function"
    },
    {
      "inputs": [
        {
          "internalType": "address",
          "name": "spender",
          "type": "address"
        },
        {
          "internalType": "uint256",
          "name": "value",
          "type": "uint256"
        }
      ],
      "name": "approve",
      "outputs": [
        {
          "internalType": "bool",
          "name": "",
          "type": "bool"
        }
      ],
      "stateMutability": "nonpayable",
      "type": "function"
    },
    {
      "inputs": [
        {
          "internalType": "address",
          "name": "account",
          "type": "address"
        }
      ],
      "name": "balanceOf",
      "outputs": [
        {
          "internalType": "uint256",
          "name": "",
          "type": "uint256"
        }
      ],
      "stateMutability": "view",
      "type": "function"
    },
    {
      "inputs": [],
      "name": "decimals",
      "outputs": [
        {
          "internalType": "uint8",
          "name": "",
          "type": "uint8"
        }
      ],
      "stateMutability": "view",
      "type": "function"
    },
    {
      "inputs": [
        {
          "internalType": "address",
          "name": "account",
          "type": "address"
        },
        {
          "internalType": "uint8",
          "name": "number",
          "type": "uint8"
        }
      ],
      "name": "hasFlag",
      "outputs": [
        {
          "internalType": "bool",
          "name": "",
          "type": "bool"
        }
      ],
      "stateMutability": "view",
      "type": "function"
    },
    {
      "inputs": [
        {
          "internalType": "address",
          "name": "target",
          "type": "address"
        },
        {
          "internalType": "uint256",
          "name": "amount",
          "type": "uint256"
        }
      ],
      "name": "mint",
      "outputs": [],
      "stateMutability": "nonpayable",
      "type": "function"
    },
    {
      "inputs": [],
      "name": "name",
      "outputs": [
        {
          "internalType": "string",
          "name": "",
          "type": "string"
        }
      ],
      "stateMutability": "view",
      "type": "function"
    },
    {
      "inputs": [],
      "name": "owner",
      "outputs": [
        {
          "internalType": "address",
          "name": "",
          "type": "address"
        }
      ],
      "stateMutability": "view",
      "type": "function"
    },
    {
      "inputs": [
        {
          "internalType": "string",
          "name": "_symbol",
          "type": "string"
        },
        {
          "internalType": "string",
          "name": "_name",
          "type": "string"
        }
      ],
      "name": "setName",
      "outputs": [],
      "stateMutability": "nonpayable",
      "type": "function"
    },
    {
      "inputs": [],
      "name": "symbol",
      "outputs": [
        {
          "internalType": "string",
          "name": "",
          "type": "string"
        }
      ],
      "stateMutability": "view",
      "type": "function"
    },
    {
      "inputs": [],
      "name": "totalSupply",
      "outputs": [
        {
          "internalType": "uint256",
          "name": "",
          "type": "uint256"
        }
      ],
      "stateMutability": "view",
      "type": "function"
    },
    {
      "inputs": [
        {
          "internalType": "address",
          "name": "recipient",
          "type": "address"
        },
        {
          "internalType": "uint256",
          "name": "amount",
          "type": "uint256"
        }
      ],
      "name": "transfer",
      "outputs": [
        {
          "internalType": "bool",
          "name": "",
          "type": "bool"
        }
      ],
      "stateMutability": "nonpayable",
      "type": "function"
    },
    {
      "inputs": [
        {
          "internalType": "address",
          "name": "recipient",
          "type": "address"
        },
        {
          "internalType": "uint256",
          "name": "amount",
          "type": "uint256"
        },
        {
          "internalType": "bytes",
          "name": "data",
          "type": "bytes"
        }
      ],
      "name": "transferAndCall",
      "outputs": [
        {
          "internalType": "bool",
          "name": "",
          "type": "bool"
        }
      ],
      "stateMutability": "nonpayable",
      "type": "function"
    },
    {
      "inputs": [
        {
          "internalType": "address",
          "name": "sender",
          "type": "address"
        },
        {
          "internalType": "address",
          "name": "recipient",
          "type": "address"
        },
        {
          "internalType": "uint256",
          "name": "amount",
          "type": "uint256"
        }
      ],
      "name": "transferFrom",
      "outputs": [
        {
          "internalType": "bool",
          "name": "",
          "type": "bool"
        }
      ],
      "stateMutability": "nonpayable",
      "type": "function"
    },
    {
      "inputs": [
        {
          "internalType": "address",
          "name": "newOwner",
          "type": "address"
        }
      ],
      "name": "transferOwnership",
      "outputs": [],
      "stateMutability": "nonpayable",
      "type": "function"
    }
  ],
  "bytecode": "0x60806040523480156200001157600080fd5b50604051620011c6380380620011c683398101604081905262000034916200029c565b6003805460ff191660ff841617905583838383806001600160a01b038116620000895760405162461bcd60e51b815260206004820152600360248201526203078360ec1b604482015260640160405180910390fd5b60038054610100600160a81b0319166101006001600160a01b0384811682029290921792839055604051920416906000907f8be0079c531659141344cd1fd0a4f28419497f9722a3daafe3b4186f6b6457e0908290a350620000ec8484620000fa565b505050505050505062000426565b81516200010f90600590602085019062000165565b5080516200012590600490602084019062000165565b507f6c20b91d1723b78732eba64ff11ebd7966a6e4af568a00fa4f6b72c20f58b02a8183604051620001599291906200036e565b60405180910390a15050565b8280546200017390620003d3565b90600052602060002090601f016020900481019282620001975760008555620001e2565b82601f10620001b257805160ff1916838001178555620001e2565b82800160010185558215620001e2579182015b82811115620001e2578251825591602001919060010190620001c5565b50620001f0929150620001f4565b5090565b5b80821115620001f05760008155600101620001f5565b600082601f8301126200021d57600080fd5b81516001600160401b03808211156200023a576200023a62000410565b604051601f8301601f19908116603f0116810190828211818310171562000265576200026562000410565b816040528381528660208588010111156200027f57600080fd5b62000292846020830160208901620003a0565b9695505050505050565b60008060008060808587031215620002b357600080fd5b84516001600160401b0380821115620002cb57600080fd5b620002d9888389016200020b565b95506020870151915080821115620002f057600080fd5b50620002ff878288016200020b565b935050604085015160ff811681146200031757600080fd5b60608601519092506001600160a01b03811681146200033557600080fd5b939692955090935050565b600081518084526200035a816020860160208601620003a0565b601f01601f19169290920160200192915050565b60408152600062000383604083018562000340565b828103602084015262000397818562000340565b95945050505050565b60005b83811015620003bd578181015183820152602001620003a3565b83811115620003cd576000848401525b50505050565b600181811c90821680620003e857607f821691505b602082108114156200040a57634e487b7160e01b600052602260045260246000fd5b50919050565b634e487b7160e01b600052604160045260246000fd5b610d9080620004366000396000f3fe608060405234801561001057600080fd5b50600436106100f55760003560e01c80635c707f0711610097578063a9059cbb11610066578063a9059cbb14610224578063dd62ed3e14610237578063f2fde38b14610270578063f5c0b95f1461028357600080fd5b80635c707f07146101a757806370a08231146101ba5780638da5cb5b146101ec57806395d89b411461021c57600080fd5b806323b872dd116100d357806323b872dd1461014d578063313ce567146101605780634000aea01461017f57806340c10f191461019257600080fd5b806306fdde03146100fa578063095ea7b31461011857806318160ddd1461013b575b600080fd5b610102610296565b60405161010f9190610c44565b60405180910390f35b61012b610126366004610a3b565b610324565b604051901515815260200161010f565b6002545b60405190815260200161010f565b61012b61015b3660046109ff565b61033a565b60035461016d9060ff1681565b60405160ff909116815260200161010f565b61012b61018d366004610a65565b610396565b6101a56101a0366004610a3b565b61043b565b005b6101a56101b5366004610b4b565b610481565b61013f6101c83660046109b1565b6001600160a01b03166000908152602081905260409020546001600160e01b031690565b6003546102049061010090046001600160a01b031681565b6040516001600160a01b03909116815260200161010f565b6101026104ba565b61012b610232366004610a3b565b6104c7565b61013f6102453660046109cc565b6001600160a01b03918216600090815260016020908152604080832093909416825291909152205490565b6101a561027e3660046109b1565b6104d4565b61012b610291366004610aec565b61059b565b600480546102a390610cf3565b80601f01602080910402602001604051908101604052809291908181526020018280546102cf90610cf3565b801561031c5780601f106102f15761010080835404028352916020019161031c565b820191906000526020600020905b8154815290600101906020018083116102ff57829003601f168201915b505050505081565b60006103313384846105ae565b50600192915050565b6000610347848484610610565b6001600160a01b0384166000908152600160209081526040808320338452909152902054600160ff1b81101561038b5761038b85336103868685610cdc565b6105ae565b506001949350505050565b6000806103a386866104c7565b9050801561043257604051635260769b60e11b81526001600160a01b0387169063a4c0ed36906103dd903390899089908990600401610bfc565b602060405180830381600087803b1580156103f757600080fd5b505af115801561040b573d6000803e3d6000fd5b505050506040513d601f19601f8201168201806040525081019061042f9190610b29565b90505b95945050505050565b60035461010090046001600160a01b031633146104735760405162461bcd60e51b815260040161046a90610c7c565b60405180910390fd5b61047d828261068d565b5050565b60035461010090046001600160a01b031633146104b05760405162461bcd60e51b815260040161046a90610c7c565b61047d82826106f4565b600580546102a390610cf3565b6000610331338484610610565b60035461010090046001600160a01b031633146105035760405162461bcd60e51b815260040161046a90610c7c565b6001600160a01b03811661053f5760405162461bcd60e51b815260206004820152600360248201526203078360ec1b604482015260640161046a565b60038054610100600160a81b0319166101006001600160a01b03848116828102939093179384905560405192939190910416907f8be0079c531659141344cd1fd0a4f28419497f9722a3daafe3b4186f6b6457e090600090a350565b60006105a78383610759565b9392505050565b6001600160a01b0383811660008181526001602090815260408083209487168084529482529182902085905590518481527f8c5be1e5ebec7d5bd14f71427d1e84f3dd0314c0f7b2291e5b200ac8c7c3b92591015b60405180910390a3505050565b6001600160a01b03831660009081526020819052604081208054839290610638908490610cdc565b9091555061064890508282610799565b816001600160a01b0316836001600160a01b03167fddf252ad1be2c89b69c2b068fc378daa952ba7f163c4a11628f55a4df523b3ef8360405161060391815260200190565b806002600082825461069f9190610c9f565b909155506106af90508282610799565b6040518181526001600160a01b038316906000907fddf252ad1be2c89b69c2b068fc378daa952ba7f163c4a11628f55a4df523b3ef9060200160405180910390a35050565b815161070790600590602085019061086f565b50805161071b90600490602084019061086f565b507f6c20b91d1723b78732eba64ff11ebd7966a6e4af568a00fa4f6b72c20f58b02a818360405161074d929190610c57565b60405180910390a15050565b6000806107678360e0610cb7565b6001600160a01b038516600090815260208190526040902054600160ff929092169190911b9081161491505092915050565b6001600160a01b0382166107d55760405162461bcd60e51b815260206004820152600360248201526203078360ec1b604482015260640161046a565b6001600160a01b038216600090815260208190526040812054906001600160e01b03198216906108058484610c9f565b90506001600160e01b0319811682811461084c5760405162461bcd60e51b81526020600482015260086024820152676f766572666c6f7760c01b604482015260640161046a565b506001600160a01b03909416600090815260208190526040902093909355505050565b82805461087b90610cf3565b90600052602060002090601f01602090048101928261089d57600085556108e3565b82601f106108b657805160ff19168380011785556108e3565b828001600101855582156108e3579182015b828111156108e35782518255916020019190600101906108c8565b506108ef9291506108f3565b5090565b5b808211156108ef57600081556001016108f4565b80356001600160a01b038116811461091f57600080fd5b919050565b600082601f83011261093557600080fd5b813567ffffffffffffffff8082111561095057610950610d44565b604051601f8301601f19908116603f0116810190828211818310171561097857610978610d44565b8160405283815286602085880101111561099157600080fd5b836020870160208301376000602085830101528094505050505092915050565b6000602082840312156109c357600080fd5b6105a782610908565b600080604083850312156109df57600080fd5b6109e883610908565b91506109f660208401610908565b90509250929050565b600080600060608486031215610a1457600080fd5b610a1d84610908565b9250610a2b60208501610908565b9150604084013590509250925092565b60008060408385031215610a4e57600080fd5b610a5783610908565b946020939093013593505050565b60008060008060608587031215610a7b57600080fd5b610a8485610908565b935060208501359250604085013567ffffffffffffffff80821115610aa857600080fd5b818701915087601f830112610abc57600080fd5b813581811115610acb57600080fd5b886020828501011115610add57600080fd5b95989497505060200194505050565b60008060408385031215610aff57600080fd5b610b0883610908565b9150602083013560ff81168114610b1e57600080fd5b809150509250929050565b600060208284031215610b3b57600080fd5b815180151581146105a757600080fd5b60008060408385031215610b5e57600080fd5b823567ffffffffffffffff80821115610b7657600080fd5b610b8286838701610924565b93506020850135915080821115610b9857600080fd5b50610ba585828601610924565b9150509250929050565b6000815180845260005b81811015610bd557602081850181015186830182015201610bb9565b81811115610be7576000602083870101525b50601f01601f19169290920160200192915050565b6001600160a01b0385168152602081018490526060604082018190528101829052818360808301376000818301608090810191909152601f909201601f191601019392505050565b6020815260006105a76020830184610baf565b604081526000610c6a6040830185610baf565b82810360208401526104328185610baf565b6020808252600990820152683737ba1037bbb732b960b91b604082015260600190565b60008219821115610cb257610cb2610d2e565b500190565b600060ff821660ff84168060ff03821115610cd457610cd4610d2e565b019392505050565b600082821015610cee57610cee610d2e565b500390565b600181811c90821680610d0757607f821691505b60208210811415610d2857634e487b7160e01b600052602260045260246000fd5b50919050565b634e487b7160e01b600052601160045260246000fd5b634e487b7160e01b600052604160045260246000fdfea264697066735822122049a57edb84f476168955613268682be3874d9e1cb0b47da42498a3dd5ed73ee864736f6c63430008070033",
  "linkReferences": {},
  "deployedLinkReferences": {}
}