{
  "_format": "hh-sol-artifact-1",
  "contractName": "AktionariatFactory",
  "sourceName": "contracts/utils/factory/AktionariatFactory.sol",
  "abi": [
    {
      "inputs": [
        {
          "internalType": "address",
          "name": "_owner",
          "type": "address"
        }
      ],
      "stateMutability": "nonpayable",
      "type": "constructor"
    },
    {
      "inputs": [
        {
          "internalType": "address",
          "name": "sender",
          "type": "address"
        }
      ],
      "name": "Ownable_NotOwner",
      "type": "error"
    },
    {
      "anonymous": false,
      "inputs": [
        {
          "indexed": false,
          "internalType": "contract BrokerbotFactory",
          "name": "brokerbotFactory",
          "type": "address"
        }
      ],
      "name": "BrokerbotFactoryUpdated",
      "type": "event"
    },
    {
      "anonymous": false,
      "inputs": [
        {
          "indexed": true,
          "internalType": "address",
          "name": "multisig",
          "type": "address"
        },
        {
          "indexed": true,
          "internalType": "contract IERC20Permit",
          "name": "token",
          "type": "address"
        },
        {
          "indexed": true,
          "internalType": "contract Brokerbot",
          "name": "brokerbot",
          "type": "address"
        }
      ],
      "name": "CompanyCreated",
      "type": "event"
    },
    {
      "anonymous": false,
      "inputs": [
        {
          "indexed": false,
          "internalType": "contract FactoryManager",
          "name": "manager",
          "type": "address"
        }
      ],
      "name": "FactoryManagerUpdated",
      "type": "event"
    },
    {
      "anonymous": false,
      "inputs": [
        {
          "indexed": true,
          "internalType": "address",
          "name": "previousOwner",
          "type": "address"
        },
        {
          "indexed": true,
          "internalType": "address",
          "name": "newOwner",
          "type": "address"
        }
      ],
      "name": "OwnershipTransferred",
      "type": "event"
    },
    {
      "anonymous": false,
      "inputs": [
        {
          "indexed": false,
          "internalType": "contract TokenFactory",
          "name": "tokenFactory",
          "type": "address"
        }
      ],
      "name": "TokenFactoryUpdated",
      "type": "event"
    },
    {
      "inputs": [],
      "name": "brokerbotFactory",
      "outputs": [
        {
          "internalType": "contract BrokerbotFactory",
          "name": "",
          "type": "address"
        }
      ],
      "stateMutability": "view",
      "type": "function"
    },
    {
      "inputs": [
        {
          "components": [
            {
              "internalType": "string",
              "name": "name",
              "type": "string"
            },
            {
              "internalType": "string",
              "name": "symbol",
              "type": "string"
            },
            {
              "internalType": "string",
              "name": "terms",
              "type": "string"
            },
            {
              "internalType": "bool",
              "name": "allowlist",
              "type": "bool"
            },
            {
              "internalType": "bool",
              "name": "draggable",
              "type": "bool"
            },
            {
              "internalType": "uint256",
              "name": "numberOfShares",
              "type": "uint256"
            },
            {
              "internalType": "uint256",
              "name": "quorumDrag",
              "type": "uint256"
            },
            {
              "internalType": "uint256",
              "name": "quorumMigration",
              "type": "uint256"
            },
            {
              "internalType": "uint256",
              "name": "votePeriod",
              "type": "uint256"
            }
          ],
          "internalType": "struct TokenConfig",
          "name": "tokenConfig",
          "type": "tuple"
        },
        {
          "components": [
            {
              "internalType": "uint256",
              "name": "price",
              "type": "uint256"
            },
            {
              "internalType": "uint256",
              "name": "increment",
              "type": "uint256"
            },
            {
              "internalType": "contract IERC20",
              "name": "baseCurrency",
              "type": "address"
            }
          ],
          "internalType": "struct BrokerbotConfig",
          "name": "brokerbotConfig",
          "type": "tuple"
        },
        {
          "internalType": "address",
          "name": "signer",
          "type": "address"
        },
        {
          "internalType": "string",
          "name": "salt",
          "type": "string"
        }
      ],
      "name": "createCompany",
      "outputs": [],
      "stateMutability": "nonpayable",
      "type": "function"
    },
    {
      "inputs": [
        {
          "components": [
            {
              "internalType": "string",
              "name": "name",
              "type": "string"
            },
            {
              "internalType": "string",
              "name": "symbol",
              "type": "string"
            },
            {
              "internalType": "string",
              "name": "terms",
              "type": "string"
            },
            {
              "internalType": "bool",
              "name": "allowlist",
              "type": "bool"
            },
            {
              "internalType": "bool",
              "name": "draggable",
              "type": "bool"
            },
            {
              "internalType": "uint256",
              "name": "numberOfShares",
              "type": "uint256"
            },
            {
              "internalType": "uint256",
              "name": "quorumDrag",
              "type": "uint256"
            },
            {
              "internalType": "uint256",
              "name": "quorumMigration",
              "type": "uint256"
            },
            {
              "internalType": "uint256",
              "name": "votePeriod",
              "type": "uint256"
            }
          ],
          "internalType": "struct TokenConfig",
          "name": "tokenConfig",
          "type": "tuple"
        },
        {
          "internalType": "address",
          "name": "signer",
          "type": "address"
        },
        {
          "internalType": "string",
          "name": "salt",
          "type": "string"
        }
      ],
      "name": "createCompanyWithoutBrokerbot",
      "outputs": [],
      "stateMutability": "nonpayable",
      "type": "function"
    },
    {
      "inputs": [
        {
          "internalType": "address",
          "name": "signer",
          "type": "address"
        },
        {
          "internalType": "string",
          "name": "symbol",
          "type": "string"
        },
        {
          "internalType": "string",
          "name": "salt",
          "type": "string"
        }
      ],
      "name": "createMultisig",
      "outputs": [
        {
          "internalType": "address",
          "name": "",
          "type": "address"
        }
      ],
      "stateMutability": "nonpayable",
      "type": "function"
    },
    {
      "inputs": [],
      "name": "manager",
      "outputs": [
        {
          "internalType": "contract FactoryManager",
          "name": "",
          "type": "address"
        }
      ],
      "stateMutability": "view",
      "type": "function"
    },
    {
      "inputs": [],
      "name": "owner",
      "outputs": [
        {
          "internalType": "address",
          "name": "",
          "type": "address"
        }
      ],
      "stateMutability": "view",
      "type": "function"
    },
    {
      "inputs": [
        {
          "internalType": "contract BrokerbotFactory",
          "name": "_factory",
          "type": "address"
        }
      ],
      "name": "setBrokerbotFactory",
      "outputs": [],
      "stateMutability": "nonpayable",
      "type": "function"
    },
    {
      "inputs": [
        {
          "internalType": "contract FactoryManager",
          "name": "_manager",
          "type": "address"
        }
      ],
      "name": "setManager",
      "outputs": [],
      "stateMutability": "nonpayable",
      "type": "function"
    },
    {
      "inputs": [
        {
          "internalType": "contract TokenFactory",
          "name": "_factory",
          "type": "address"
        }
      ],
      "name": "setTokenFactory",
      "outputs": [],
      "stateMutability": "nonpayable",
      "type": "function"
    },
    {
      "inputs": [],
      "name": "tokenFactory",
      "outputs": [
        {
          "internalType": "contract TokenFactory",
          "name": "",
          "type": "address"
        }
      ],
      "stateMutability": "view",
      "type": "function"
    },
    {
      "inputs": [
        {
          "internalType": "address",
          "name": "newOwner",
          "type": "address"
        }
      ],
      "name": "transferOwnership",
      "outputs": [],
      "stateMutability": "nonpayable",
      "type": "function"
    }
  ],
  "bytecode": "0x6080604052348015600e575f5ffd5b50604051610bd8380380610bd8833981016040819052602b916078565b5f80546001600160a01b0319166001600160a01b03831690811782556040518392907f8be0079c531659141344cd1fd0a4f28419497f9722a3daafe3b4186f6b6457e0908290a3505060a3565b5f602082840312156087575f5ffd5b81516001600160a01b0381168114609c575f5ffd5b9392505050565b610b28806100b05f395ff3fe608060405234801561000f575f5ffd5b50600436106100a6575f3560e01c80637f9230721161006e5780637f923072146101275780638da5cb5b1461013a578063994426231461014c578063d0ebdbe71461015f578063e77772fe14610172578063f2fde38b14610185575f5ffd5b806307048c46146100aa5780632f73a9f8146100bf578063481c6a75146100d257806358457c861461010157806379a9a2d914610114575b5f5ffd5b6100bd6100b8366004610711565b610198565b005b6100bd6100cd3660046107a9565b6102ff565b6003546100e5906001600160a01b031681565b6040516001600160a01b03909116815260200160405180910390f35b6100bd61010f3660046107cb565b61035c565b6100bd6101223660046107a9565b61043d565b6001546100e5906001600160a01b031681565b5f546100e5906001600160a01b031681565b6100e561015a366004610844565b610493565b6100bd61016d3660046107a9565b6105b5565b6002546100e5906001600160a01b031681565b6100bd6101933660046107a9565b61060b565b5f6101b1846101aa60208901896108a9565b8686610493565b60025460405163cb07ea9f60e01b81529192505f916001600160a01b039091169063cb07ea9f906101ec908a9086908990899060040161096a565b6020604051808303815f875af1158015610208573d5f5f3e3d5ffd5b505050506040513d601f19601f8201168201806040525081019061022c9190610a66565b600154604051636d803c1960e11b81529192505f916001600160a01b039091169063db00783290610269908a90869088908b908b90600401610a81565b6020604051808303815f875af1158015610285573d5f5f3e3d5ffd5b505050506040513d601f19601f820116820180604052508101906102a99190610a66565b9050806001600160a01b0316826001600160a01b0316846001600160a01b03167f9bf96e52eda4176d6af2bee42bc78701878634ab7995bb7e660ab3ac4ff8646f60405160405180910390a45050505050505050565b61030761066c565b600280546001600160a01b0319166001600160a01b0383169081179091556040519081527f06d64f41e0c8bfe9eab59ac2d4e14dadfeee426e0ce29bcda6d82a5bf1a1c1cf906020015b60405180910390a150565b5f61036e846101aa60208801886108a9565b60025460405163cb07ea9f60e01b81529192505f916001600160a01b039091169063cb07ea9f906103a990899086908990899060040161096a565b6020604051808303815f875af11580156103c5573d5f5f3e3d5ffd5b505050506040513d601f19601f820116820180604052508101906103e99190610a66565b90505f6001600160a01b0316816001600160a01b0316836001600160a01b03167f9bf96e52eda4176d6af2bee42bc78701878634ab7995bb7e660ab3ac4ff8646f60405160405180910390a4505050505050565b61044561066c565b600180546001600160a01b0319166001600160a01b0383169081179091556040519081527f75a50a51203152df5d600e815984ff3efa3d76f5392f6897d43957edeafdd2ff90602001610351565b6003546040805163210dac6b60e11b815290515f926001600160a01b03169163421b58d69160048083019260209291908290030181865afa1580156104da573d5f5f3e3d5ffd5b505050506040513d601f19601f820116820180604052508101906104fe9190610a66565b6001600160a01b031663a3def92387878787876040516020016105249493929190610ad3565b604051602081830303815290604052805190602001206040518363ffffffff1660e01b815260040161056b9291906001600160a01b03929092168252602082015260400190565b6020604051808303815f875af1158015610587573d5f5f3e3d5ffd5b505050506040513d601f19601f820116820180604052508101906105ab9190610a66565b9695505050505050565b6105bd61066c565b600380546001600160a01b0319166001600160a01b0383169081179091556040519081527f7374c03893422e168ea189118b40932f7c665b7dbcd921b4d7580ca758cc1e4090602001610351565b61061361066c565b5f80546040516001600160a01b03808516939216917f8be0079c531659141344cd1fd0a4f28419497f9722a3daafe3b4186f6b6457e091a35f80546001600160a01b0319166001600160a01b0392909216919091179055565b5f546001600160a01b0316331461069c576040516396a19be960e01b815233600482015260240160405180910390fd5b565b5f61012082840312156106af575f5ffd5b50919050565b6001600160a01b03811681146106c9575f5ffd5b50565b5f5f83601f8401126106dc575f5ffd5b50813567ffffffffffffffff8111156106f3575f5ffd5b60208301915083602082850101111561070a575f5ffd5b9250929050565b5f5f5f5f5f85870360c0811215610726575f5ffd5b863567ffffffffffffffff81111561073c575f5ffd5b61074889828a0161069e565b9650506060601f198201121561075c575f5ffd5b506020860193506080860135610771816106b5565b925060a086013567ffffffffffffffff81111561078c575f5ffd5b610798888289016106cc565b969995985093965092949392505050565b5f602082840312156107b9575f5ffd5b81356107c4816106b5565b9392505050565b5f5f5f5f606085870312156107de575f5ffd5b843567ffffffffffffffff8111156107f4575f5ffd5b6108008782880161069e565b9450506020850135610811816106b5565b9250604085013567ffffffffffffffff81111561082c575f5ffd5b610838878288016106cc565b95989497509550505050565b5f5f5f5f5f60608688031215610858575f5ffd5b8535610863816106b5565b9450602086013567ffffffffffffffff81111561087e575f5ffd5b61088a888289016106cc565b909550935050604086013567ffffffffffffffff81111561078c575f5ffd5b5f5f8335601e198436030181126108be575f5ffd5b83018035915067ffffffffffffffff8211156108d8575f5ffd5b60200191503681900382131561070a575f5ffd5b5f5f8335601e19843603018112610901575f5ffd5b830160208101925035905067ffffffffffffffff811115610920575f5ffd5b80360382131561070a575f5ffd5b81835281816020850137505f828201602090810191909152601f909101601f19169091010190565b80358015158114610965575f5ffd5b919050565b606081525f61097986876108ec565b61012060608501526109906101808501828461092e565b9150506109a060208801886108ec565b848303605f190160808601526109b783828461092e565b925050506109c860408801886108ec565b848303605f190160a08601526109df83828461092e565b925050506109ef60608801610956565b151560c0840152610a0260808801610956565b80151560e08501525060a08701356101008481019190915260c088013561012085015260e08801356101408501528701356101608401526001600160a01b03861660208401528281036040840152610a5b81858761092e565b979650505050505050565b5f60208284031215610a76575f5ffd5b81516107c4816106b5565b85358152602080870135908201525f6040870135610a9e816106b5565b6001600160a01b03908116604084015286811660608401528516608083015260c060a08301819052610a5b908301848661092e565b838582375f8482015f8152838582375f9301928352509094935050505056fea2646970667358221220d34644bd5e791a279e7380cac3f62b2a7f0d37989237559bf7343fa6b770cfa464736f6c634300081d0033",
  "linkReferences": {},
  "deployedLinkReferences": {}
}