{
    "contractName": "Brokerbot",
    "abi": [
        {
            "inputs": [
                {
                    "internalType": "contract IERC20",
                    "name": "_token",
                    "type": "address"
                },
                {
                    "internalType": "uint256",
                    "name": "_price",
                    "type": "uint256"
                },
                {
                    "internalType": "uint256",
                    "name": "_increment",
                    "type": "uint256"
                },
                {
                    "internalType": "contract IERC20",
                    "name": "_base",
                    "type": "address"
                },
                {
                    "internalType": "address",
                    "name": "_owner",
                    "type": "address"
                },
                {
                    "internalType": "address",
                    "name": "_paymentHub",
                    "type": "address"
                }
            ],
            "stateMutability": "nonpayable",
            "type": "constructor"
        },
        {
            "anonymous": false,
            "inputs": [
                {
                    "indexed": false,
                    "internalType": "uint256",
                    "name": "timeToDrift",
                    "type": "uint256"
                },
                {
                    "indexed": false,
                    "internalType": "int256",
                    "name": "driftIncrement",
                    "type": "int256"
                }
            ],
            "name": "DriftSet",
            "type": "event"
        },
        {
            "anonymous": false,
            "inputs": [
                {
                    "indexed": true,
                    "internalType": "address",
                    "name": "previousOwner",
                    "type": "address"
                },
                {
                    "indexed": true,
                    "internalType": "address",
                    "name": "newOwner",
                    "type": "address"
                }
            ],
            "name": "OwnershipTransferred",
            "type": "event"
        },
        {
            "anonymous": false,
            "inputs": [
                {
                    "indexed": true,
                    "internalType": "address",
                    "name": "paymentHub",
                    "type": "address"
                }
            ],
            "name": "PaymentHubUpdated",
            "type": "event"
        },
        {
            "anonymous": false,
            "inputs": [
                {
                    "indexed": false,
                    "internalType": "uint256",
                    "name": "price",
                    "type": "uint256"
                },
                {
                    "indexed": false,
                    "internalType": "uint256",
                    "name": "increment",
                    "type": "uint256"
                }
            ],
            "name": "PriceSet",
            "type": "event"
        },
        {
            "anonymous": false,
            "inputs": [
                {
                    "indexed": false,
                    "internalType": "uint256",
                    "name": "setting",
                    "type": "uint256"
                }
            ],
            "name": "SettingsChanged",
            "type": "event"
        },
        {
            "anonymous": false,
            "inputs": [
                {
                    "indexed": true,
                    "internalType": "contract IERC20",
                    "name": "token",
                    "type": "address"
                },
                {
                    "indexed": true,
                    "internalType": "address",
                    "name": "who",
                    "type": "address"
                },
                {
                    "indexed": false,
                    "internalType": "bytes",
                    "name": "ref",
                    "type": "bytes"
                },
                {
                    "indexed": false,
                    "internalType": "int256",
                    "name": "amount",
                    "type": "int256"
                },
                {
                    "indexed": true,
                    "internalType": "contract IERC20",
                    "name": "base",
                    "type": "address"
                },
                {
                    "indexed": false,
                    "internalType": "uint256",
                    "name": "totPrice",
                    "type": "uint256"
                },
                {
                    "indexed": false,
                    "internalType": "uint256",
                    "name": "newprice",
                    "type": "uint256"
                }
            ],
            "name": "Trade",
            "type": "event"
        },
        {
            "inputs": [],
            "name": "BUYING_ENABLED",
            "outputs": [
                {
                    "internalType": "uint8",
                    "name": "",
                    "type": "uint8"
                }
            ],
            "stateMutability": "view",
            "type": "function"
        },
        {
            "inputs": [],
            "name": "KEEP_ETHER",
            "outputs": [
                {
                    "internalType": "uint8",
                    "name": "",
                    "type": "uint8"
                }
            ],
            "stateMutability": "view",
            "type": "function"
        },
        {
            "inputs": [],
            "name": "SELLING_ENABLED",
            "outputs": [
                {
                    "internalType": "uint8",
                    "name": "",
                    "type": "uint8"
                }
            ],
            "stateMutability": "view",
            "type": "function"
        },
        {
            "inputs": [
                {
                    "internalType": "address",
                    "name": "erc20",
                    "type": "address"
                },
                {
                    "internalType": "address",
                    "name": "who",
                    "type": "address"
                },
                {
                    "internalType": "uint256",
                    "name": "amount",
                    "type": "uint256"
                }
            ],
            "name": "approve",
            "outputs": [],
            "stateMutability": "nonpayable",
            "type": "function"
        },
        {
            "inputs": [],
            "name": "base",
            "outputs": [
                {
                    "internalType": "contract IERC20",
                    "name": "",
                    "type": "address"
                }
            ],
            "stateMutability": "view",
            "type": "function"
        },
        {
            "inputs": [],
            "name": "driftIncrement",
            "outputs": [
                {
                    "internalType": "int256",
                    "name": "",
                    "type": "int256"
                }
            ],
            "stateMutability": "view",
            "type": "function"
        },
        {
            "inputs": [],
            "name": "driftStart",
            "outputs": [
                {
                    "internalType": "uint256",
                    "name": "",
                    "type": "uint256"
                }
            ],
            "stateMutability": "view",
            "type": "function"
        },
        {
            "inputs": [
                {
                    "internalType": "uint256",
                    "name": "shares",
                    "type": "uint256"
                }
            ],
            "name": "getBuyPrice",
            "outputs": [
                {
                    "internalType": "uint256",
                    "name": "",
                    "type": "uint256"
                }
            ],
            "stateMutability": "view",
            "type": "function"
        },
        {
            "inputs": [],
            "name": "getPrice",
            "outputs": [
                {
                    "internalType": "uint256",
                    "name": "",
                    "type": "uint256"
                }
            ],
            "stateMutability": "view",
            "type": "function"
        },
        {
            "inputs": [
                {
                    "internalType": "uint256",
                    "name": "timestamp",
                    "type": "uint256"
                }
            ],
            "name": "getPriceAtTime",
            "outputs": [
                {
                    "internalType": "uint256",
                    "name": "",
                    "type": "uint256"
                }
            ],
            "stateMutability": "view",
            "type": "function"
        },
        {
            "inputs": [
                {
                    "internalType": "uint256",
                    "name": "shares",
                    "type": "uint256"
                }
            ],
            "name": "getSellPrice",
            "outputs": [
                {
                    "internalType": "uint256",
                    "name": "",
                    "type": "uint256"
                }
            ],
            "stateMutability": "view",
            "type": "function"
        },
        {
            "inputs": [
                {
                    "internalType": "uint256",
                    "name": "money",
                    "type": "uint256"
                }
            ],
            "name": "getShares",
            "outputs": [
                {
                    "internalType": "uint256",
                    "name": "",
                    "type": "uint256"
                }
            ],
            "stateMutability": "view",
            "type": "function"
        },
        {
            "inputs": [],
            "name": "hasDrift",
            "outputs": [
                {
                    "internalType": "bool",
                    "name": "",
                    "type": "bool"
                }
            ],
            "stateMutability": "view",
            "type": "function"
        },
        {
            "inputs": [],
            "name": "increment",
            "outputs": [
                {
                    "internalType": "uint256",
                    "name": "",
                    "type": "uint256"
                }
            ],
            "stateMutability": "view",
            "type": "function"
        },
        {
            "inputs": [
                {
                    "internalType": "address",
                    "name": "buyer",
                    "type": "address"
                },
                {
                    "internalType": "uint256",
                    "name": "shares",
                    "type": "uint256"
                },
                {
                    "internalType": "bytes",
                    "name": "ref",
                    "type": "bytes"
                }
            ],
            "name": "notifyTrade",
            "outputs": [],
            "stateMutability": "nonpayable",
            "type": "function"
        },
        {
            "inputs": [
                {
                    "internalType": "address",
                    "name": "buyer",
                    "type": "address"
                },
                {
                    "internalType": "uint256",
                    "name": "shares",
                    "type": "uint256"
                },
                {
                    "internalType": "bytes",
                    "name": "ref",
                    "type": "bytes"
                }
            ],
            "name": "notifyTradeAndTransfer",
            "outputs": [],
            "stateMutability": "nonpayable",
            "type": "function"
        },
        {
            "inputs": [
                {
                    "internalType": "address[]",
                    "name": "buyers",
                    "type": "address[]"
                },
                {
                    "internalType": "uint256[]",
                    "name": "shares",
                    "type": "uint256[]"
                },
                {
                    "internalType": "bytes[]",
                    "name": "ref",
                    "type": "bytes[]"
                }
            ],
            "name": "notifyTrades",
            "outputs": [],
            "stateMutability": "nonpayable",
            "type": "function"
        },
        {
            "inputs": [
                {
                    "internalType": "address[]",
                    "name": "buyers",
                    "type": "address[]"
                },
                {
                    "internalType": "uint256[]",
                    "name": "shares",
                    "type": "uint256[]"
                },
                {
                    "internalType": "bytes[]",
                    "name": "ref",
                    "type": "bytes[]"
                }
            ],
            "name": "notifyTradesAndTransfer",
            "outputs": [],
            "stateMutability": "nonpayable",
            "type": "function"
        },
        {
            "inputs": [
                {
                    "internalType": "address",
                    "name": "from",
                    "type": "address"
                },
                {
                    "internalType": "uint256",
                    "name": "amount",
                    "type": "uint256"
                },
                {
                    "internalType": "bytes",
                    "name": "ref",
                    "type": "bytes"
                }
            ],
            "name": "onTokenTransfer",
            "outputs": [
                {
                    "internalType": "bool",
                    "name": "",
                    "type": "bool"
                }
            ],
            "stateMutability": "nonpayable",
            "type": "function"
        },
        {
            "inputs": [],
            "name": "owner",
            "outputs": [
                {
                    "internalType": "address",
                    "name": "",
                    "type": "address"
                }
            ],
            "stateMutability": "view",
            "type": "function"
        },
        {
            "inputs": [],
            "name": "paymenthub",
            "outputs": [
                {
                    "internalType": "address",
                    "name": "",
                    "type": "address"
                }
            ],
            "stateMutability": "view",
            "type": "function"
        },
        {
            "inputs": [
                {
                    "internalType": "contract IERC20",
                    "name": "incomingAsset",
                    "type": "address"
                },
                {
                    "internalType": "address",
                    "name": "from",
                    "type": "address"
                },
                {
                    "internalType": "uint256",
                    "name": "amount",
                    "type": "uint256"
                },
                {
                    "internalType": "bytes",
                    "name": "ref",
                    "type": "bytes"
                }
            ],
            "name": "processIncoming",
            "outputs": [
                {
                    "internalType": "uint256",
                    "name": "",
                    "type": "uint256"
                }
            ],
            "stateMutability": "payable",
            "type": "function"
        },
        {
            "inputs": [
                {
                    "internalType": "uint256",
                    "name": "secondsPerStep",
                    "type": "uint256"
                },
                {
                    "internalType": "int256",
                    "name": "_driftIncrement",
                    "type": "int256"
                }
            ],
            "name": "setDrift",
            "outputs": [],
            "stateMutability": "nonpayable",
            "type": "function"
        },
        {
            "inputs": [
                {
                    "internalType": "bool",
                    "name": "_buyingEnabled",
                    "type": "bool"
                },
                {
                    "internalType": "bool",
                    "name": "_sellingEnabled",
                    "type": "bool"
                }
            ],
            "name": "setEnabled",
            "outputs": [],
            "stateMutability": "nonpayable",
            "type": "function"
        },
        {
            "inputs": [
                {
                    "internalType": "address",
                    "name": "hub",
                    "type": "address"
                }
            ],
            "name": "setPaymentHub",
            "outputs": [],
            "stateMutability": "nonpayable",
            "type": "function"
        },
        {
            "inputs": [
                {
                    "internalType": "uint256",
                    "name": "_price",
                    "type": "uint256"
                },
                {
                    "internalType": "uint256",
                    "name": "_increment",
                    "type": "uint256"
                }
            ],
            "name": "setPrice",
            "outputs": [],
            "stateMutability": "nonpayable",
            "type": "function"
        },
        {
            "inputs": [
                {
                    "internalType": "uint256",
                    "name": "_settings",
                    "type": "uint256"
                }
            ],
            "name": "setSettings",
            "outputs": [],
            "stateMutability": "nonpayable",
            "type": "function"
        },
        {
            "inputs": [],
            "name": "settings",
            "outputs": [
                {
                    "internalType": "uint256",
                    "name": "",
                    "type": "uint256"
                }
            ],
            "stateMutability": "view",
            "type": "function"
        },
        {
            "inputs": [],
            "name": "timeToDrift",
            "outputs": [
                {
                    "internalType": "uint256",
                    "name": "",
                    "type": "uint256"
                }
            ],
            "stateMutability": "view",
            "type": "function"
        },
        {
            "inputs": [],
            "name": "token",
            "outputs": [
                {
                    "internalType": "contract IERC20",
                    "name": "",
                    "type": "address"
                }
            ],
            "stateMutability": "view",
            "type": "function"
        },
        {
            "inputs": [
                {
                    "internalType": "address",
                    "name": "newOwner",
                    "type": "address"
                }
            ],
            "name": "transferOwnership",
            "outputs": [],
            "stateMutability": "nonpayable",
            "type": "function"
        },
        {
            "inputs": [
                {
                    "internalType": "address",
                    "name": "ercAddress",
                    "type": "address"
                },
                {
                    "internalType": "address",
                    "name": "to",
                    "type": "address"
                },
                {
                    "internalType": "uint256",
                    "name": "amount",
                    "type": "uint256"
                }
            ],
            "name": "withdraw",
            "outputs": [],
            "stateMutability": "nonpayable",
            "type": "function"
        },
        {
            "inputs": [
                {
                    "internalType": "uint256",
                    "name": "amount",
                    "type": "uint256"
                }
            ],
            "name": "withdrawEther",
            "outputs": [],
            "stateMutability": "nonpayable",
            "type": "function"
        }
    ],
    "bytecode": "60c060405260036007553480156200001657600080fd5b5060405162001d3d38038062001d3d8339810160408190526200003991620000cf565b600080546001600160a01b0319166001600160a01b03841690811782556040518492907f8be0079c531659141344cd1fd0a4f28419497f9722a3daafe3b4186f6b6457e0908290a350606092831b6001600160601b03199081166080529590921b90941660a052600292909255600355600180546001600160a01b0319166001600160a01b039092169190911790555062000165565b60008060008060008060c08789031215620000e957600080fd5b8651620000f6816200014c565b809650506020870151945060408701519350606087015162000118816200014c565b60808801519093506200012b816200014c565b60a08801519092506200013e816200014c565b809150509295509295509295565b6001600160a01b03811681146200016257600080fd5b50565b60805160601c60a05160601c611b66620001d7600039600081816105b0015281816107ed01528181610ba0015281816111e7015281816113bb01526114a10152600081816102810152818161083a015281816110dd015281816111b3015281816112e501526114790152611b666000f3fe6080604052600436106101ee5760003560e01c806399aa09181161010d578063d09de08a116100a0578063f2fde38b1161006f578063f2fde38b1461055e578063f7d975771461057e578063fc0c546a1461059e578063fff4da1f146105d2578063fff89745146105f257600080fd5b8063d09de08a146104f2578063d9caed1214610508578063e06174e414610528578063e1f21c671461053e57600080fd5b8063b03a13fe116100dc578063b03a13fe1461047c578063ba730e531461049c578063bf13d438146104bc578063c7780ab2146104dc57600080fd5b806399aa0918146104075780639bb8c0fd1461041c578063a4c0ed361461043c578063afaefe9e1461045c57600080fd5b8063777adcf0116101855780638a07d3d0116101545780638a07d3d01461038f5780638da5cb5b146103b257806391be6ad5146103d257806398d5fdca146103f257600080fd5b8063777adcf0146103235780637cd6a7fd146103435780637ff6c1911461036357806384b41fda1461037957600080fd5b80635c627935116101c15780635c627935146102bb57806369365c52146102db5780636f7267b7146102ee5780637301893a1461030e57600080fd5b806308d4db14146101f35780632179c3dd146102265780633bed33ce1461024d5780635001f3b51461026f575b600080fd5b3480156101ff57600080fd5b5061021361020e366004611884565b610612565b6040519081526020015b60405180910390f35b34801561023257600080fd5b5061023b600281565b60405160ff909116815260200161021d565b34801561025957600080fd5b5061026d610268366004611884565b61062b565b005b34801561027b57600080fd5b506102a37f000000000000000000000000000000000000000000000000000000000000000081565b6040516001600160a01b03909116815260200161021d565b3480156102c757600080fd5b5061026d6102d63660046117d8565b610722565b6102136102e9366004611811565b61078b565b3480156102fa57600080fd5b50610213610309366004611884565b6108bf565b34801561031a57600080fd5b5061023b600181565b34801561032f57600080fd5b506001546102a3906001600160a01b031681565b34801561034f57600080fd5b5061026d61035e366004611884565b610939565b34801561036f57600080fd5b5061021360045481565b34801561038557600080fd5b5061021360055481565b34801561039b57600080fd5b5060055415155b604051901515815260200161021d565b3480156103be57600080fd5b506000546102a3906001600160a01b031681565b3480156103de57600080fd5b5061026d6103ed366004611721565b61099e565b3480156103fe57600080fd5b50610213610a55565b34801561041357600080fd5b5061023b600481565b34801561042857600080fd5b5061026d6104373660046116c5565b610a65565b34801561044857600080fd5b506103a26104573660046116c5565b610aa2565b34801561046857600080fd5b5061026d61047736600461189d565b610abd565b34801561048857600080fd5b5061026d6104973660046116c5565b610b43565b3480156104a857600080fd5b506102136104b7366004611884565b610c1c565b3480156104c857600080fd5b506102136104d7366004611884565b610c41565b3480156104e857600080fd5b5061021360065481565b3480156104fe57600080fd5b5061021360035481565b34801561051457600080fd5b5061026d610523366004611684565b610cba565b34801561053457600080fd5b5061021360075481565b34801561054a57600080fd5b5061026d610559366004611684565b610da6565b34801561056a57600080fd5b5061026d610579366004611660565b610e05565b34801561058a57600080fd5b5061026d61059936600461189d565b610e8a565b3480156105aa57600080fd5b506102a37f000000000000000000000000000000000000000000000000000000000000000081565b3480156105de57600080fd5b5061026d6105ed366004611660565b610efc565b3480156105fe57600080fd5b5061026d61060d366004611721565b610f70565b600061062561061f610a55565b83611024565b92915050565b6000546001600160a01b031633148061064e57506001546001600160a01b031633145b6106935760405162461bcd60e51b81526020600482015260116024820152703737ba1037bbb732b9103737b910343ab160791b60448201526064015b60405180910390fd5b604051600090339083908381818185875af1925050503d80600081146106d5576040519150601f19603f3d011682016040523d82523d6000602084013e6106da565b606091505b505090508061071e5760405162461bcd60e51b815260206004820152601060248201526f2a3930b739b332b9103330b4b632b21760811b604482015260640161068a565b5050565b6000546001600160a01b0316331461074c5760405162461bcd60e51b815260040161068a90611906565b60075482151560018083161414610761576001185b61076f600260075481161490565b15158215151461077d576002185b61078681610939565b505050565b6000336001600160a01b03871614806107ae57506001546001600160a01b031633145b6107eb5760405162461bcd60e51b815260206004820152600e60248201526d34b73b30b634b21031b0b63632b960911b604482015260640161068a565b7f00000000000000000000000000000000000000000000000000000000000000006001600160a01b0316866001600160a01b03161415610838576108318585858561107b565b90506108b6565b7f00000000000000000000000000000000000000000000000000000000000000006001600160a01b0316866001600160a01b0316141561087e5761083185858585611268565b60405162461bcd60e51b815260206004820152600d60248201526c34b73b30b634b2103a37b5b2b760991b604482015260640161068a565b95945050505050565b6000806108ca610a55565b90506000806108d983866119c9565b90505b8082101561093157600060026108f283856119b1565b6108fc91906119c9565b9050600061090a8583611024565b9050808711156109265761091f8260016119b1565b935061092a565b8192505b50506108dc565b509392505050565b6000546001600160a01b031633146109635760405162461bcd60e51b815260040161068a90611906565b60078190556040518181527f2998abbed888b1ac210aedc0d43287c7d5dcbaec95e8eedbc58a26cc00d6c2069060200160405180910390a150565b6000546001600160a01b031633146109c85760405162461bcd60e51b815260040161068a90611906565b60005b85811015610a4c57610a3a8787838181106109e8576109e8611af4565b90506020020160208101906109fd9190611660565b868684818110610a0f57610a0f611af4565b90506020020135858585818110610a2857610a28611af4565b90506020028101906104979190611929565b80610a4481611aa6565b9150506109cb565b50505050505050565b6000610a6042610c41565b905090565b6000546001600160a01b03163314610a8f5760405162461bcd60e51b815260040161068a90611906565b610a9b84848484611443565b5050505050565b6000610ab1338686868661078b565b50600195945050505050565b6000546001600160a01b03163314610ae75760405162461bcd60e51b815260040161068a90611906565b610afb610af2610a55565b60025542600455565b6005829055600681905560408051838152602081018390527f0c64990ff5fa601870b48aa83367706d39e6f55a0f73069c97c2f9c08241a17e91015b60405180910390a15050565b6000546001600160a01b03163314610b6d5760405162461bcd60e51b815260040161068a90611906565b610b7984848484611443565b5060405163a9059cbb60e01b81526001600160a01b038581166004830152602482018590527f0000000000000000000000000000000000000000000000000000000000000000169063a9059cbb90604401602060405180830381600087803b158015610be457600080fd5b505af1158015610bf8573d6000803e3d6000fd5b505050506040513d601f19601f82011682018060405250810190610a9b91906117bb565b600061062560035483610c2f9190611a70565b610c37610a55565b61061f9190611a8f565b6000610c4e600554151590565b15610cb257600060045483610c639190611a8f565b9050600060065460055483610c7891906119c9565b610c8291906119eb565b9050600081600254610c949190611970565b90506000811215610caa57506000949350505050565b949350505050565b505060025490565b6000546001600160a01b0316331480610cdd57506001546001600160a01b031633145b610d1d5760405162461bcd60e51b81526020600482015260116024820152703737ba1037bbb732b9103737b910343ab160791b604482015260640161068a565b60405163a9059cbb60e01b81526001600160a01b0383811660048301526024820183905284169063a9059cbb906044015b602060405180830381600087803b158015610d6857600080fd5b505af1158015610d7c573d6000803e3d6000fd5b505050506040513d601f19601f82011682018060405250810190610da091906117bb565b50505050565b6000546001600160a01b03163314610dd05760405162461bcd60e51b815260040161068a90611906565b60405163095ea7b360e01b81526001600160a01b0383811660048301526024820183905284169063095ea7b390604401610d4e565b6000546001600160a01b03163314610e2f5760405162461bcd60e51b815260040161068a90611906565b600080546040516001600160a01b03808516939216917f8be0079c531659141344cd1fd0a4f28419497f9722a3daafe3b4186f6b6457e091a3600080546001600160a01b0319166001600160a01b0392909216919091179055565b6000546001600160a01b03163314610eb45760405162461bcd60e51b815260040161068a90611906565b610ec18260025542600455565b600381905560408051838152602081018390527fa0f1665b7b659537b52deec61ea64d134a3bccda74c7f4e79f2246e7a8187a8a9101610b37565b6000546001600160a01b03163314610f265760405162461bcd60e51b815260040161068a90611906565b600180546001600160a01b0319166001600160a01b0383169081179091556040517fe9074b903af6e04fa64fd837453b5fcca6585108a57c9e8098632d0beacbb9cc90600090a250565b6000546001600160a01b03163314610f9a5760405162461bcd60e51b815260040161068a90611906565b60005b85811015610a4c57611011878783818110610fba57610fba611af4565b9050602002016020810190610fcf9190611660565b868684818110610fe157610fe1611af4565b90506020020135858585818110610ffa57610ffa611af4565b905060200281019061100c9190611929565b611443565b508061101c81611aa6565b915050610f9d565b60008161103357506000610625565b600354600090611044600185611a8f565b61104e9190611a70565b61105890856119b1565b905082600261106783876119b1565b61107191906119c9565b610caa9190611a70565b600061108b600260075481161490565b6110ca5760405162461bcd60e51b815260206004820152601060248201526f1cd95b1b1a5b99c8191a5cd8589b195960821b604482015260640161068a565b60006110d585610c1c565b6003549091507f0000000000000000000000000000000000000000000000000000000000000000906111079087611a70565b600260008282546111189190611a8f565b9091555061112890508585611510565b156111b15760405163a9059cbb60e01b81526001600160a01b0388811660048301526024820184905282169063a9059cbb90604401602060405180830381600087803b15801561117757600080fd5b505af115801561118b573d6000803e3d6000fd5b505050506040513d601f19601f820116820180604052508101906111af91906117bb565b505b7f00000000000000000000000000000000000000000000000000000000000000006001600160a01b0316876001600160a01b03167f00000000000000000000000000000000000000000000000000000000000000006001600160a01b03167f7cb998096618339111d8701247c08392c8bbd68d98b44015a481cc2ccc1f260b88888b61123c90611ac1565b88611245610a55565b6040516112569594939291906118bf565b60405180910390a45095945050505050565b6000611278600160075481161490565b6112b65760405162461bcd60e51b815260206004820152600f60248201526e189d5e5a5b99c8191a5cd8589b1959608a1b604482015260640161068a565b60006112c1856108bf565b905060006112d187838787611443565b905085811015611395576001600160a01b037f00000000000000000000000000000000000000000000000000000000000000001663a9059cbb88611315848a611a8f565b6040516001600160e01b031960e085901b1681526001600160a01b0390921660048301526024820152604401602060405180830381600087803b15801561135b57600080fd5b505af115801561136f573d6000803e3d6000fd5b505050506040513d601f19601f8201168201806040525081019061139391906117bb565b505b60405163a9059cbb60e01b81526001600160a01b038881166004830152602482018490527f0000000000000000000000000000000000000000000000000000000000000000169063a9059cbb90604401602060405180830381600087803b1580156113ff57600080fd5b505af1158015611413573d6000803e3d6000fd5b505050506040513d601f19601f8201168201806040525081019061143791906117bb565b50909695505050505050565b60008061144f85610612565b90506003548561145f9190611a70565b60025461146c91906119b1565b6002556001600160a01b037f0000000000000000000000000000000000000000000000000000000000000000811690878116907f0000000000000000000000000000000000000000000000000000000000000000167f7cb998096618339111d8701247c08392c8bbd68d98b44015a481cc2ccc1f260b87878a876114ee610a55565b6040516114ff9594939291906118bf565b60405180910390a495945050505050565b600081158061151f5750601482145b1561152c57506001610625565b600160f81b838360008161154257611542611af4565b9050013560f81c60f81b6001600160f81b031916141561156457506001610625565b600160f91b838360008161157a5761157a611af4565b9050013560f81c60f81b6001600160f81b031916141561159c57506000610625565b60405162461bcd60e51b815260206004820152600b60248201526a3ab735b737bbb7103932b360a91b604482015260640161068a565b60008083601f8401126115e457600080fd5b50813567ffffffffffffffff8111156115fc57600080fd5b6020830191508360208260051b850101111561161757600080fd5b9250929050565b60008083601f84011261163057600080fd5b50813567ffffffffffffffff81111561164857600080fd5b60208301915083602082850101111561161757600080fd5b60006020828403121561167257600080fd5b813561167d81611b0a565b9392505050565b60008060006060848603121561169957600080fd5b83356116a481611b0a565b925060208401356116b481611b0a565b929592945050506040919091013590565b600080600080606085870312156116db57600080fd5b84356116e681611b0a565b935060208501359250604085013567ffffffffffffffff81111561170957600080fd5b6117158782880161161e565b95989497509550505050565b6000806000806000806060878903121561173a57600080fd5b863567ffffffffffffffff8082111561175257600080fd5b61175e8a838b016115d2565b9098509650602089013591508082111561177757600080fd5b6117838a838b016115d2565b9096509450604089013591508082111561179c57600080fd5b506117a989828a016115d2565b979a9699509497509295939492505050565b6000602082840312156117cd57600080fd5b815161167d81611b22565b600080604083850312156117eb57600080fd5b82356117f681611b22565b9150602083013561180681611b22565b809150509250929050565b60008060008060006080868803121561182957600080fd5b853561183481611b0a565b9450602086013561184481611b0a565b935060408601359250606086013567ffffffffffffffff81111561186757600080fd5b6118738882890161161e565b969995985093965092949392505050565b60006020828403121561189657600080fd5b5035919050565b600080604083850312156118b057600080fd5b50508035926020909101359150565b60808152846080820152848660a0830137600060a08683010152600060a0601f19601f88011683010190508460208301528360408301528260608301529695505050505050565b6020808252600990820152683737ba1037bbb732b960b91b604082015260600190565b6000808335601e1984360301811261194057600080fd5b83018035915067ffffffffffffffff82111561195b57600080fd5b60200191503681900382131561161757600080fd5b600080821280156001600160ff1b038490038513161561199257611992611ade565b600160ff1b83900384128116156119ab576119ab611ade565b50500190565b600082198211156119c4576119c4611ade565b500190565b6000826119e657634e487b7160e01b600052601260045260246000fd5b500490565b60006001600160ff1b0381841382841380821686840486111615611a1157611a11611ade565b600160ff1b6000871282811687830589121615611a3057611a30611ade565b60008712925087820587128484161615611a4c57611a4c611ade565b87850587128184161615611a6257611a62611ade565b505050929093029392505050565b6000816000190483118215151615611a8a57611a8a611ade565b500290565b600082821015611aa157611aa1611ade565b500390565b6000600019821415611aba57611aba611ade565b5060010190565b6000600160ff1b821415611ad757611ad7611ade565b5060000390565b634e487b7160e01b600052601160045260246000fd5b634e487b7160e01b600052603260045260246000fd5b6001600160a01b0381168114611b1f57600080fd5b50565b8015158114611b1f57600080fdfea26469706673582212209683fb66e88b30c6244c484a008f70c619fd51d6629d2f0287e1037c0cbedaa864736f6c63430008070033",
    "sourcePath": "c:/Users/luziu/Documents/aktionariat/contracts/src/brokerbot/Brokerbot.sol",
    "compiler": {
        "name": "solc",
        "version": "0.8.7+commit.e28d00a7"
    },
    "functionHashes": {
        "BUYING_ENABLED()": "7301893a",
        "KEEP_ETHER()": "99aa0918",
        "SELLING_ENABLED()": "2179c3dd",
        "approve(address,address,uint256)": "e1f21c67",
        "base()": "5001f3b5",
        "driftIncrement()": "c7780ab2",
        "driftStart()": "7ff6c191",
        "getBuyPrice(uint256)": "08d4db14",
        "getPrice()": "98d5fdca",
        "getPriceAtTime(uint256)": "bf13d438",
        "getSellPrice(uint256)": "ba730e53",
        "getShares(uint256)": "6f7267b7",
        "hasDrift()": "8a07d3d0",
        "increment()": "d09de08a",
        "notifyTrade(address,uint256,bytes)": "9bb8c0fd",
        "notifyTradeAndTransfer(address,uint256,bytes)": "b03a13fe",
        "notifyTrades(address[],uint256[],bytes[])": "fff89745",
        "notifyTradesAndTransfer(address[],uint256[],bytes[])": "91be6ad5",
        "onTokenTransfer(address,uint256,bytes)": "a4c0ed36",
        "owner()": "8da5cb5b",
        "paymenthub()": "777adcf0",
        "processIncoming(address,address,uint256,bytes)": "69365c52",
        "setDrift(uint256,int256)": "afaefe9e",
        "setEnabled(bool,bool)": "5c627935",
        "setPaymentHub(address)": "fff4da1f",
        "setPrice(uint256,uint256)": "f7d97577",
        "setSettings(uint256)": "7cd6a7fd",
        "settings()": "e06174e4",
        "timeToDrift()": "84b41fda",
        "token()": "fc0c546a",
        "transferOwnership(address)": "f2fde38b",
        "withdraw(address,address,uint256)": "d9caed12",
        "withdrawEther(uint256)": "3bed33ce"
    },
    "gasEstimates": {
        "creation": {
            "codeDepositCost": "1402800",
            "executionCost": "infinite",
            "totalCost": "infinite"
        },
        "external": {
            "BUYING_ENABLED()": "316",
            "KEEP_ETHER()": "250",
            "SELLING_ENABLED()": "273",
            "approve(address,address,uint256)": "infinite",
            "base()": "infinite",
            "driftIncrement()": "2395",
            "driftStart()": "2374",
            "getBuyPrice(uint256)": "infinite",
            "getPrice()": "11566",
            "getPriceAtTime(uint256)": "11584",
            "getSellPrice(uint256)": "infinite",
            "getShares(uint256)": "infinite",
            "hasDrift()": "2338",
            "increment()": "2329",
            "notifyTrade(address,uint256,bytes)": "infinite",
            "notifyTradeAndTransfer(address,uint256,bytes)": "infinite",
            "notifyTrades(address[],uint256[],bytes[])": "infinite",
            "notifyTradesAndTransfer(address[],uint256[],bytes[])": "infinite",
            "onTokenTransfer(address,uint256,bytes)": "infinite",
            "owner()": "2404",
            "paymenthub()": "2383",
            "processIncoming(address,address,uint256,bytes)": "infinite",
            "setDrift(uint256,int256)": "86462",
            "setEnabled(bool,bool)": "infinite",
            "setPaymentHub(address)": "27954",
            "setPrice(uint256,uint256)": "70132",
            "setSettings(uint256)": "25597",
            "settings()": "2373",
            "timeToDrift()": "2396",
            "token()": "infinite",
            "transferOwnership(address)": "30403",
            "withdraw(address,address,uint256)": "infinite",
            "withdrawEther(uint256)": "infinite"
        },
        "internal": {
            "anchorPrice(uint256)": "infinite",
            "buy(address,uint256,bytes calldata)": "infinite",
            "getPrice(uint256,uint256)": "infinite",
            "hasSetting(uint256)": "infinite",
            "isDirectSale(bytes calldata)": "infinite",
            "notifyTraded(address,uint256,bytes calldata)": "infinite",
            "sell(address,uint256,bytes calldata)": "infinite"
        }
    }
}