{
  "_format": "hh3-artifact-1",
  "contractName": "Brokerbot",
  "sourceName": "contracts/brokerbot/Brokerbot.sol",
  "abi": [
    {
      "inputs": [
        {
          "internalType": "contract IERC20Permit",
          "name": "_token",
          "type": "address"
        },
        {
          "internalType": "uint256",
          "name": "_price",
          "type": "uint256"
        },
        {
          "internalType": "uint256",
          "name": "_increment",
          "type": "uint256"
        },
        {
          "internalType": "contract IERC20",
          "name": "_base",
          "type": "address"
        },
        {
          "internalType": "address",
          "name": "_owner",
          "type": "address"
        },
        {
          "internalType": "address",
          "name": "_paymentHub",
          "type": "address"
        }
      ],
      "stateMutability": "nonpayable",
      "type": "constructor"
    },
    {
      "inputs": [
        {
          "internalType": "address",
          "name": "target",
          "type": "address"
        }
      ],
      "name": "Address_NotTransferNorContract",
      "type": "error"
    },
    {
      "inputs": [],
      "name": "Brokerbot_BuyingDisabled",
      "type": "error"
    },
    {
      "inputs": [
        {
          "internalType": "address",
          "name": "sender",
          "type": "address"
        }
      ],
      "name": "Brokerbot_InvalidSender",
      "type": "error"
    },
    {
      "inputs": [
        {
          "internalType": "address",
          "name": "sender",
          "type": "address"
        }
      ],
      "name": "Brokerbot_NotAuthorized",
      "type": "error"
    },
    {
      "inputs": [],
      "name": "Brokerbot_SellingDisabled",
      "type": "error"
    },
    {
      "inputs": [
        {
          "internalType": "address",
          "name": "target",
          "type": "address"
        },
        {
          "internalType": "uint256",
          "name": "amount",
          "type": "uint256"
        }
      ],
      "name": "Brokerbot_WithdrawFailed",
      "type": "error"
    },
    {
      "inputs": [
        {
          "internalType": "address",
          "name": "sender",
          "type": "address"
        }
      ],
      "name": "Ownable_NotOwner",
      "type": "error"
    },
    {
      "inputs": [
        {
          "internalType": "address",
          "name": "token",
          "type": "address"
        }
      ],
      "name": "SafeERC20FailedOperation",
      "type": "error"
    },
    {
      "anonymous": false,
      "inputs": [
        {
          "indexed": false,
          "internalType": "uint256",
          "name": "timeToDrift",
          "type": "uint256"
        },
        {
          "indexed": false,
          "internalType": "int256",
          "name": "driftIncrement",
          "type": "int256"
        }
      ],
      "name": "DriftSet",
      "type": "event"
    },
    {
      "anonymous": false,
      "inputs": [
        {
          "indexed": true,
          "internalType": "address",
          "name": "previousOwner",
          "type": "address"
        },
        {
          "indexed": true,
          "internalType": "address",
          "name": "newOwner",
          "type": "address"
        }
      ],
      "name": "OwnershipTransferred",
      "type": "event"
    },
    {
      "anonymous": false,
      "inputs": [
        {
          "indexed": true,
          "internalType": "address",
          "name": "paymentHub",
          "type": "address"
        }
      ],
      "name": "PaymentHubUpdate",
      "type": "event"
    },
    {
      "anonymous": false,
      "inputs": [
        {
          "indexed": false,
          "internalType": "uint256",
          "name": "price",
          "type": "uint256"
        },
        {
          "indexed": false,
          "internalType": "uint256",
          "name": "increment",
          "type": "uint256"
        }
      ],
      "name": "PriceSet",
      "type": "event"
    },
    {
      "anonymous": false,
      "inputs": [
        {
          "indexed": true,
          "internalType": "address",
          "name": "from",
          "type": "address"
        },
        {
          "indexed": false,
          "internalType": "uint256",
          "name": "amountETH",
          "type": "uint256"
        },
        {
          "indexed": false,
          "internalType": "uint256",
          "name": "amountBase",
          "type": "uint256"
        }
      ],
      "name": "Received",
      "type": "event"
    },
    {
      "anonymous": false,
      "inputs": [
        {
          "indexed": false,
          "internalType": "uint256",
          "name": "setting",
          "type": "uint256"
        }
      ],
      "name": "SettingsChange",
      "type": "event"
    },
    {
      "anonymous": false,
      "inputs": [
        {
          "indexed": true,
          "internalType": "contract IERC20Permit",
          "name": "token",
          "type": "address"
        },
        {
          "indexed": false,
          "internalType": "address",
          "name": "who",
          "type": "address"
        },
        {
          "indexed": false,
          "internalType": "bytes",
          "name": "ref",
          "type": "bytes"
        },
        {
          "indexed": false,
          "internalType": "int256",
          "name": "amount",
          "type": "int256"
        },
        {
          "indexed": false,
          "internalType": "contract IERC20",
          "name": "base",
          "type": "address"
        },
        {
          "indexed": false,
          "internalType": "uint256",
          "name": "totPrice",
          "type": "uint256"
        },
        {
          "indexed": false,
          "internalType": "uint256",
          "name": "fee",
          "type": "uint256"
        },
        {
          "indexed": false,
          "internalType": "uint256",
          "name": "newprice",
          "type": "uint256"
        }
      ],
      "name": "Trade",
      "type": "event"
    },
    {
      "anonymous": false,
      "inputs": [
        {
          "indexed": true,
          "internalType": "address",
          "name": "target",
          "type": "address"
        },
        {
          "indexed": false,
          "internalType": "uint256",
          "name": "amountETH",
          "type": "uint256"
        }
      ],
      "name": "Withdrawn",
      "type": "event"
    },
    {
      "inputs": [],
      "name": "VERSION",
      "outputs": [
        {
          "internalType": "uint8",
          "name": "",
          "type": "uint8"
        }
      ],
      "stateMutability": "view",
      "type": "function"
    },
    {
      "inputs": [
        {
          "internalType": "address",
          "name": "erc20",
          "type": "address"
        },
        {
          "internalType": "address",
          "name": "who",
          "type": "address"
        },
        {
          "internalType": "uint256",
          "name": "amount",
          "type": "uint256"
        }
      ],
      "name": "approve",
      "outputs": [],
      "stateMutability": "nonpayable",
      "type": "function"
    },
    {
      "inputs": [],
      "name": "base",
      "outputs": [
        {
          "internalType": "contract IERC20",
          "name": "",
          "type": "address"
        }
      ],
      "stateMutability": "view",
      "type": "function"
    },
    {
      "inputs": [],
      "name": "driftIncrement",
      "outputs": [
        {
          "internalType": "int256",
          "name": "",
          "type": "int256"
        }
      ],
      "stateMutability": "view",
      "type": "function"
    },
    {
      "inputs": [],
      "name": "driftStart",
      "outputs": [
        {
          "internalType": "uint256",
          "name": "",
          "type": "uint256"
        }
      ],
      "stateMutability": "view",
      "type": "function"
    },
    {
      "inputs": [
        {
          "internalType": "uint256",
          "name": "shares",
          "type": "uint256"
        }
      ],
      "name": "getBuyPrice",
      "outputs": [
        {
          "internalType": "uint256",
          "name": "",
          "type": "uint256"
        }
      ],
      "stateMutability": "view",
      "type": "function"
    },
    {
      "inputs": [],
      "name": "getPrice",
      "outputs": [
        {
          "internalType": "uint256",
          "name": "",
          "type": "uint256"
        }
      ],
      "stateMutability": "view",
      "type": "function"
    },
    {
      "inputs": [
        {
          "internalType": "uint256",
          "name": "timestamp",
          "type": "uint256"
        }
      ],
      "name": "getPriceAtTime",
      "outputs": [
        {
          "internalType": "uint256",
          "name": "",
          "type": "uint256"
        }
      ],
      "stateMutability": "view",
      "type": "function"
    },
    {
      "inputs": [
        {
          "internalType": "uint256",
          "name": "shares",
          "type": "uint256"
        }
      ],
      "name": "getSellPrice",
      "outputs": [
        {
          "internalType": "uint256",
          "name": "",
          "type": "uint256"
        }
      ],
      "stateMutability": "view",
      "type": "function"
    },
    {
      "inputs": [
        {
          "internalType": "uint256",
          "name": "money",
          "type": "uint256"
        }
      ],
      "name": "getShares",
      "outputs": [
        {
          "internalType": "uint256",
          "name": "",
          "type": "uint256"
        }
      ],
      "stateMutability": "view",
      "type": "function"
    },
    {
      "inputs": [],
      "name": "hasDrift",
      "outputs": [
        {
          "internalType": "bool",
          "name": "",
          "type": "bool"
        }
      ],
      "stateMutability": "view",
      "type": "function"
    },
    {
      "inputs": [],
      "name": "increment",
      "outputs": [
        {
          "internalType": "uint256",
          "name": "",
          "type": "uint256"
        }
      ],
      "stateMutability": "view",
      "type": "function"
    },
    {
      "inputs": [
        {
          "internalType": "address",
          "name": "buyer",
          "type": "address"
        },
        {
          "internalType": "uint256",
          "name": "shares",
          "type": "uint256"
        },
        {
          "internalType": "uint256",
          "name": "costs",
          "type": "uint256"
        },
        {
          "internalType": "bytes",
          "name": "ref",
          "type": "bytes"
        }
      ],
      "name": "notifyTrade",
      "outputs": [],
      "stateMutability": "nonpayable",
      "type": "function"
    },
    {
      "inputs": [
        {
          "internalType": "address",
          "name": "buyer",
          "type": "address"
        },
        {
          "internalType": "uint256",
          "name": "shares",
          "type": "uint256"
        },
        {
          "internalType": "uint256",
          "name": "costs",
          "type": "uint256"
        },
        {
          "internalType": "bytes",
          "name": "ref",
          "type": "bytes"
        }
      ],
      "name": "notifyTradeAndTransfer",
      "outputs": [],
      "stateMutability": "nonpayable",
      "type": "function"
    },
    {
      "inputs": [
        {
          "internalType": "address[]",
          "name": "buyers",
          "type": "address[]"
        },
        {
          "internalType": "uint256[]",
          "name": "shares",
          "type": "uint256[]"
        },
        {
          "internalType": "uint256[]",
          "name": "costs",
          "type": "uint256[]"
        },
        {
          "internalType": "bytes[]",
          "name": "ref",
          "type": "bytes[]"
        }
      ],
      "name": "notifyTrades",
      "outputs": [],
      "stateMutability": "nonpayable",
      "type": "function"
    },
    {
      "inputs": [
        {
          "internalType": "address[]",
          "name": "buyers",
          "type": "address[]"
        },
        {
          "internalType": "uint256[]",
          "name": "shares",
          "type": "uint256[]"
        },
        {
          "internalType": "uint256[]",
          "name": "costs",
          "type": "uint256[]"
        },
        {
          "internalType": "bytes[]",
          "name": "ref",
          "type": "bytes[]"
        }
      ],
      "name": "notifyTradesAndTransfer",
      "outputs": [],
      "stateMutability": "nonpayable",
      "type": "function"
    },
    {
      "inputs": [
        {
          "internalType": "address",
          "name": "from",
          "type": "address"
        },
        {
          "internalType": "uint256",
          "name": "amount",
          "type": "uint256"
        },
        {
          "internalType": "bytes",
          "name": "ref",
          "type": "bytes"
        }
      ],
      "name": "onTokenTransfer",
      "outputs": [
        {
          "internalType": "bool",
          "name": "",
          "type": "bool"
        }
      ],
      "stateMutability": "nonpayable",
      "type": "function"
    },
    {
      "inputs": [],
      "name": "owner",
      "outputs": [
        {
          "internalType": "address",
          "name": "",
          "type": "address"
        }
      ],
      "stateMutability": "view",
      "type": "function"
    },
    {
      "inputs": [],
      "name": "paymenthub",
      "outputs": [
        {
          "internalType": "address",
          "name": "",
          "type": "address"
        }
      ],
      "stateMutability": "view",
      "type": "function"
    },
    {
      "inputs": [
        {
          "internalType": "contract IERC20",
          "name": "incomingAsset",
          "type": "address"
        },
        {
          "internalType": "address",
          "name": "from",
          "type": "address"
        },
        {
          "internalType": "uint256",
          "name": "amount",
          "type": "uint256"
        },
        {
          "internalType": "bytes",
          "name": "ref",
          "type": "bytes"
        }
      ],
      "name": "processIncoming",
      "outputs": [
        {
          "internalType": "uint256",
          "name": "",
          "type": "uint256"
        }
      ],
      "stateMutability": "payable",
      "type": "function"
    },
    {
      "inputs": [
        {
          "internalType": "uint256",
          "name": "secondsPerStep",
          "type": "uint256"
        },
        {
          "internalType": "int256",
          "name": "_driftIncrement",
          "type": "int256"
        }
      ],
      "name": "setDrift",
      "outputs": [],
      "stateMutability": "nonpayable",
      "type": "function"
    },
    {
      "inputs": [
        {
          "internalType": "bool",
          "name": "_buyingEnabled",
          "type": "bool"
        },
        {
          "internalType": "bool",
          "name": "_sellingEnabled",
          "type": "bool"
        }
      ],
      "name": "setEnabled",
      "outputs": [],
      "stateMutability": "nonpayable",
      "type": "function"
    },
    {
      "inputs": [
        {
          "internalType": "address",
          "name": "hub",
          "type": "address"
        }
      ],
      "name": "setPaymentHub",
      "outputs": [],
      "stateMutability": "nonpayable",
      "type": "function"
    },
    {
      "inputs": [
        {
          "internalType": "uint256",
          "name": "_price",
          "type": "uint256"
        },
        {
          "internalType": "uint256",
          "name": "_increment",
          "type": "uint256"
        }
      ],
      "name": "setPrice",
      "outputs": [],
      "stateMutability": "nonpayable",
      "type": "function"
    },
    {
      "inputs": [
        {
          "internalType": "uint256",
          "name": "_settings",
          "type": "uint256"
        }
      ],
      "name": "setSettings",
      "outputs": [],
      "stateMutability": "nonpayable",
      "type": "function"
    },
    {
      "inputs": [],
      "name": "settings",
      "outputs": [
        {
          "internalType": "uint256",
          "name": "",
          "type": "uint256"
        }
      ],
      "stateMutability": "view",
      "type": "function"
    },
    {
      "inputs": [],
      "name": "timeToDrift",
      "outputs": [
        {
          "internalType": "uint256",
          "name": "",
          "type": "uint256"
        }
      ],
      "stateMutability": "view",
      "type": "function"
    },
    {
      "inputs": [],
      "name": "token",
      "outputs": [
        {
          "internalType": "contract IERC20Permit",
          "name": "",
          "type": "address"
        }
      ],
      "stateMutability": "view",
      "type": "function"
    },
    {
      "inputs": [
        {
          "internalType": "address",
          "name": "newOwner",
          "type": "address"
        }
      ],
      "name": "transferOwnership",
      "outputs": [],
      "stateMutability": "nonpayable",
      "type": "function"
    },
    {
      "inputs": [
        {
          "internalType": "contract IERC20",
          "name": "ercAddress",
          "type": "address"
        },
        {
          "internalType": "address",
          "name": "to",
          "type": "address"
        },
        {
          "internalType": "uint256",
          "name": "amount",
          "type": "uint256"
        }
      ],
      "name": "withdraw",
      "outputs": [],
      "stateMutability": "nonpayable",
      "type": "function"
    },
    {
      "inputs": [
        {
          "internalType": "uint256",
          "name": "amount",
          "type": "uint256"
        }
      ],
      "name": "withdrawEther",
      "outputs": [],
      "stateMutability": "nonpayable",
      "type": "function"
    },
    {
      "inputs": [
        {
          "internalType": "address",
          "name": "target",
          "type": "address"
        },
        {
          "internalType": "uint256",
          "name": "amount",
          "type": "uint256"
        }
      ],
      "name": "withdrawEther",
      "outputs": [],
      "stateMutability": "nonpayable",
      "type": "function"
    }
  ],
  "bytecode": "0x60c06040526003600755348015610014575f5ffd5b50604051611b5c380380611b5c833981016040819052610033916100cd565b5f80546001600160a01b0319166001600160a01b03841690811782556040518492907f8be0079c531659141344cd1fd0a4f28419497f9722a3daafe3b4186f6b6457e0908290a3506001600160a01b0392831660805294821660a05250600292909255600355600180546001600160a01b0319169290911691909117905561013d565b6001600160a01b03811681146100ca575f5ffd5b50565b5f5f5f5f5f5f60c087890312156100e2575f5ffd5b86516100ed816100b6565b6020880151604089015160608a0151929850909650945061010d816100b6565b608088015190935061011e816100b6565b60a088015190925061012f816100b6565b809150509295509295509295565b60805160a0516119b86101a45f395f818161056d015281816106b40152818161092101528181610f11015281816110a201526111e501525f81816102810152818161096d01528181610f5801528181611071015281816110f101526111b101526119b85ff3fe6080604052600436106101db575f3560e01c806396199f55116100fd578063d9caed1211610092578063f7d9757711610062578063f7d975771461053d578063fc0c546a1461055c578063ffa1ad741461058f578063fff4da1f146105b5575f5ffd5b8063d9caed12146104cb578063e06174e4146104ea578063e1f21c67146104ff578063f2fde38b1461051e575f5ffd5b8063ba730e53116100cd578063ba730e5314610463578063bf13d43814610482578063c7780ab2146104a1578063d09de08a146104b6575f5ffd5b806396199f55146103f257806398d5fdca14610411578063a4c0ed3614610425578063afaefe9e14610444575f5ffd5b80636f7267b7116101735780637ff6c191116101435780637ff6c1911461038857806384b41fda1461039d5780638a07d3d0146103b25780638da5cb5b146103d4575f5ffd5b80636f7267b71461030c578063777adcf01461032b5780637cd6a7fd1461034a5780637fcc159914610369575f5ffd5b80635001f3b5116101ae5780635001f3b514610270578063522f6815146102bb5780635c627935146102da57806369365c52146102f9575f5ffd5b806308d4db14146101df57806314bf043c1461021157806322ae3e6f146102325780633bed33ce14610251575b5f5ffd5b3480156101ea575f5ffd5b506101fe6101f9366004611439565b6105d4565b6040519081526020015b60405180910390f35b34801561021c575f5ffd5b5061023061022b366004611498565b6105ec565b005b34801561023d575f5ffd5b5061023061024c3660046115b8565b610691565b34801561025c575f5ffd5b5061023061026b366004611439565b6106e2565b34801561027b575f5ffd5b506102a37f000000000000000000000000000000000000000000000000000000000000000081565b6040516001600160a01b039091168152602001610208565b3480156102c6575f5ffd5b506102306102d536600461161d565b610739565b3480156102e5575f5ffd5b506102306102f4366004611654565b610848565b6101fe61030736600461168b565b61088f565b348015610317575f5ffd5b506101fe610326366004611439565b6109f1565b348015610336575f5ffd5b506001546102a3906001600160a01b031681565b348015610355575f5ffd5b50610230610364366004611439565b610a67565b348015610374575f5ffd5b50610230610383366004611498565b610aaa565b348015610393575f5ffd5b506101fe60045481565b3480156103a8575f5ffd5b506101fe60055481565b3480156103bd575f5ffd5b5060055415155b6040519015158152602001610208565b3480156103df575f5ffd5b505f546102a3906001600160a01b031681565b3480156103fd575f5ffd5b5061023061040c3660046115b8565b610b4a565b34801561041c575f5ffd5b506101fe610b67565b348015610430575f5ffd5b506103c461043f3660046116dc565b610b76565b34801561044f575f5ffd5b5061023061045e366004611734565b610b90565b34801561046e575f5ffd5b506101fe61047d366004611439565b610bf4565b34801561048d575f5ffd5b506101fe61049c366004611439565b610c18565b3480156104ac575f5ffd5b506101fe60065481565b3480156104c1575f5ffd5b506101fe60035481565b3480156104d6575f5ffd5b506102306104e5366004611754565b610c8b565b3480156104f5575f5ffd5b506101fe60075481565b34801561050a575f5ffd5b50610230610519366004611754565b610ce4565b348015610529575f5ffd5b50610230610538366004611792565b610d62565b348015610548575f5ffd5b50610230610557366004611734565b610dc3565b348015610567575f5ffd5b506102a37f000000000000000000000000000000000000000000000000000000000000000081565b34801561059a575f5ffd5b506105a3600881565b60405160ff9091168152602001610208565b3480156105c0575f5ffd5b506102306105cf366004611792565b610e13565b5f6105e66105e0610b67565b83610e64565b92915050565b6105f4610eba565b5f5b878110156106865761067e898983818110610613576106136117ad565b90506020020160208101906106289190611792565b88888481811061063a5761063a6117ad565b90506020020135878785818110610653576106536117ad565b9050602002013586868681811061066c5761066c6117ad565b905060200281019061024c91906117c1565b6001016105f6565b505050505050505050565b610699610eba565b6106a68585858585610ee8565b506106db6001600160a01b037f0000000000000000000000000000000000000000000000000000000000000000168686610fa7565b5050505050565b5f546001600160a01b0316331480159061070757506001546001600160a01b03163314155b1561072c5760405163618a6eaf60e01b81523360048201526024015b60405180910390fd5b6107363382610739565b50565b5f546001600160a01b0316331480159061075e57506001546001600160a01b03163314155b1561077e5760405163618a6eaf60e01b8152336004820152602401610723565b5f826001600160a01b0316826040515f6040518083038185875af1925050503d805f81146107c7576040519150601f19603f3d011682016040523d82523d5f602084013e6107cc565b606091505b50509050806108005760405163fd4206e360e01b81526001600160a01b038416600482015260248101839052604401610723565b826001600160a01b03167f7084f5476618d8e60b11ef0d7d3f06914655adb8793e28ff7f018d4c76d505d58360405161083b91815260200190565b60405180910390a2505050565b610850610eba565b60075482151560018083161414610865576001185b610873600260075481161490565b151582151514610881576002185b61088a81610a67565b505050565b5f336001600160a01b038716148015906108b457506001546001600160a01b03163314155b156108d4576040516336e733c560e21b8152336004820152602401610723565b341561091f5760408051348152602081018690526001600160a01b038716917f74cf3d18d0ddca79038197ad0dd2c7fa5005ef61a5d1ed190e8a8a437e2fcf10910160405180910390a25b7f00000000000000000000000000000000000000000000000000000000000000006001600160a01b0316866001600160a01b03160361096b5761096485858585610ff9565b90506109e8565b7f00000000000000000000000000000000000000000000000000000000000000006001600160a01b0316866001600160a01b0316036109b0576109648585858561113f565b60405162461bcd60e51b815260206004820152600d60248201526c34b73b30b634b2103a37b5b2b760991b6044820152606401610723565b95945050505050565b5f5f6109fb610b67565b90505f80610a098386611818565b90505b80821015610a5f575f6002610a218385611837565b610a2b9190611818565b90505f610a388583610e64565b905080871115610a5457610a4d826001611837565b9350610a58565b8192505b5050610a0c565b509392505050565b610a6f610eba565b60078190556040518181527f73f575b434990a047744d035619e8cb101d71ae30e15cee70124fcfa992a4b479060200160405180910390a150565b610ab2610eba565b5f5b8781101561068657610b41898983818110610ad157610ad16117ad565b9050602002016020810190610ae69190611792565b888884818110610af857610af86117ad565b90506020020135878785818110610b1157610b116117ad565b90506020020135868686818110610b2a57610b2a6117ad565b9050602002810190610b3c91906117c1565b610ee8565b50600101610ab4565b610b52610eba565b610b5f8585858585610ee8565b505050505050565b5f610b7142610c18565b905090565b5f610b84338686868661088f565b50600195945050505050565b610b98610eba565b610bac610ba3610b67565b60025542600455565b6005829055600681905560408051838152602081018390527f0c64990ff5fa601870b48aa83367706d39e6f55a0f73069c97c2f9c08241a17e91015b60405180910390a15050565b5f6105e660035483610c06919061184a565b610c0e610b67565b6105e09190611861565b5f610c24600554151590565b15610c83575f60045483610c389190611861565b90505f60065460055483610c4c9190611818565b610c569190611874565b90505f81600254610c6791906118a3565b90505f811215610c7b57505f949350505050565b949350505050565b505060025490565b5f546001600160a01b03163314801590610cb057506001546001600160a01b03163314155b15610cd05760405163618a6eaf60e01b8152336004820152602401610723565b61088a6001600160a01b0384168383610fa7565b610cec610eba565b60405163095ea7b360e01b81526001600160a01b0383811660048301526024820183905284169063095ea7b3906044016020604051808303815f875af1158015610d38573d5f5f3e3d5ffd5b505050506040513d601f19601f82011682018060405250810190610d5c91906118ca565b50505050565b610d6a610eba565b5f80546040516001600160a01b03808516939216917f8be0079c531659141344cd1fd0a4f28419497f9722a3daafe3b4186f6b6457e091a35f80546001600160a01b0319166001600160a01b0392909216919091179055565b610dcb610eba565b610dd88260025542600455565b600381905560408051838152602081018390527fa0f1665b7b659537b52deec61ea64d134a3bccda74c7f4e79f2246e7a8187a8a9101610be8565b610e1b610eba565b600180546001600160a01b0319166001600160a01b0383169081179091556040517f4a534dbb0a1201b9baddbb0018d195c269a25847c33b19c06d24309f20f84b33905f90a250565b5f815f03610e7357505f6105e6565b6003545f90610e83600185611861565b610e8d919061184a565b610e979085611837565b9050600283610ea68387611837565b610eb0919061184a565b610c7b9190611818565b5f546001600160a01b03163314610ee6576040516396a19be960e01b8152336004820152602401610723565b565b5f60035485610ef7919061184a565b600254610f049190611837565b6002556001600160a01b037f0000000000000000000000000000000000000000000000000000000000000000167f424641a08047715d4b70195e1d90818d302683d9f65f41910ca13f5a486d37cc878585897f00000000000000000000000000000000000000000000000000000000000000008a5f610f81610b67565b604051610f959897969594939291906118e5565b60405180910390a25091949350505050565b604080516001600160a01b038416602482015260448082018490528251808303909101815260649091019091526020810180516001600160e01b031663a9059cbb60e01b17905261088a908490611216565b5f611008600260075481161490565b61102557604051632f168fef60e01b815260040160405180910390fd5b5f61102f85610bf4565b90506003548561103f919061184a565b60025f82825461104f9190611861565b9091555061105f90508484611277565b15611098576110986001600160a01b037f0000000000000000000000000000000000000000000000000000000000000000168783610fa7565b6001600160a01b037f0000000000000000000000000000000000000000000000000000000000000000167f424641a08047715d4b70195e1d90818d302683d9f65f41910ca13f5a486d37cc8786866110ef8a611952565b7f0000000000000000000000000000000000000000000000000000000000000000875f61111a610b67565b60405161112e9897969594939291906118e5565b60405180910390a295945050505050565b5f61114e600160075481161490565b61116b576040516301ab85d360e71b815260040160405180910390fd5b5f611175856109f1565b90505f611181826105d4565b90506111908783838888610ee8565b50858110156111d8576111d8876111a78389611861565b6001600160a01b037f0000000000000000000000000000000000000000000000000000000000000000169190610fa7565b61120c6001600160a01b037f0000000000000000000000000000000000000000000000000000000000000000168884610fa7565b5095945050505050565b5f61122a6001600160a01b03841683611333565b905080515f1415801561124e57508080602001905181019061124c91906118ca565b155b1561088a57604051635274afe760e01b81526001600160a01b0384166004820152602401610723565b5f8115806112855750601482145b15611292575060016105e6565b600160f81b83835f816112a7576112a76117ad565b9050013560f81c60f81b6001600160f81b031916036112c8575060016105e6565b600160f91b83835f816112dd576112dd6117ad565b9050013560f81c60f81b6001600160f81b031916036112fd57505f6105e6565b60405162461bcd60e51b815260206004820152600b60248201526a3ab735b737bbb7103932b360a91b6044820152606401610723565b606061134083835f611347565b9392505050565b606082515f1415801561136257506001600160a01b0384163b155b1561138b57604051639eb1341360e01b81526001600160a01b0385166004820152602401610723565b5f5f856001600160a01b031684866040516113a6919061196c565b5f6040518083038185875af1925050503d805f81146113e0576040519150601f19603f3d011682016040523d82523d5f602084013e6113e5565b606091505b509150915081156113f95791506113409050565b80511561140857805160208201fd5b60405162461bcd60e51b815260206004820152600660248201526519985a5b195960d21b6044820152606401610723565b5f60208284031215611449575f5ffd5b5035919050565b5f5f83601f840112611460575f5ffd5b50813567ffffffffffffffff811115611477575f5ffd5b6020830191508360208260051b8501011115611491575f5ffd5b9250929050565b5f5f5f5f5f5f5f5f6080898b0312156114af575f5ffd5b883567ffffffffffffffff8111156114c5575f5ffd5b6114d18b828c01611450565b909950975050602089013567ffffffffffffffff8111156114f0575f5ffd5b6114fc8b828c01611450565b909750955050604089013567ffffffffffffffff81111561151b575f5ffd5b6115278b828c01611450565b909550935050606089013567ffffffffffffffff811115611546575f5ffd5b6115528b828c01611450565b999c989b5096995094979396929594505050565b6001600160a01b0381168114610736575f5ffd5b5f5f83601f84011261158a575f5ffd5b50813567ffffffffffffffff8111156115a1575f5ffd5b602083019150836020828501011115611491575f5ffd5b5f5f5f5f5f608086880312156115cc575f5ffd5b85356115d781611566565b94506020860135935060408601359250606086013567ffffffffffffffff811115611600575f5ffd5b61160c8882890161157a565b969995985093965092949392505050565b5f5f6040838503121561162e575f5ffd5b823561163981611566565b946020939093013593505050565b8015158114610736575f5ffd5b5f5f60408385031215611665575f5ffd5b823561167081611647565b9150602083013561168081611647565b809150509250929050565b5f5f5f5f5f6080868803121561169f575f5ffd5b85356116aa81611566565b945060208601356116ba81611566565b935060408601359250606086013567ffffffffffffffff811115611600575f5ffd5b5f5f5f5f606085870312156116ef575f5ffd5b84356116fa81611566565b935060208501359250604085013567ffffffffffffffff81111561171c575f5ffd5b6117288782880161157a565b95989497509550505050565b5f5f60408385031215611745575f5ffd5b50508035926020909101359150565b5f5f5f60608486031215611766575f5ffd5b833561177181611566565b9250602084013561178181611566565b929592945050506040919091013590565b5f602082840312156117a2575f5ffd5b813561134081611566565b634e487b7160e01b5f52603260045260245ffd5b5f5f8335601e198436030181126117d6575f5ffd5b83018035915067ffffffffffffffff8211156117f0575f5ffd5b602001915036819003821315611491575f5ffd5b634e487b7160e01b5f52601160045260245ffd5b5f8261183257634e487b7160e01b5f52601260045260245ffd5b500490565b808201808211156105e6576105e6611804565b80820281158282048414176105e6576105e6611804565b818103818111156105e6576105e6611804565b8082025f8212600160ff1b8414161561188f5761188f611804565b81810583148215176105e6576105e6611804565b8082018281125f8312801582168215821617156118c2576118c2611804565b505092915050565b5f602082840312156118da575f5ffd5b815161134081611647565b6001600160a01b038916815260e060208201819052810187905286886101008301375f61010088830181019190915260408201969096526001600160a01b03949094166060850152608084019290925260a083015260c0820152601f909201601f19169091010192915050565b5f600160ff1b820161196657611966611804565b505f0390565b5f82518060208501845e5f92019182525091905056fea2646970667358221220e005ff741dcd74e8e914036be0848ca6f7c19986db6d4d36cbf985246e806a8664736f6c634300081e0033",
  "linkReferences": {},
  "deployedLinkReferences": {},
  "immutableReferences": {
    "182": [
      {
        "length": 32,
        "start": 641
      },
      {
        "length": 32,
        "start": 2413
      },
      {
        "length": 32,
        "start": 3928
      },
      {
        "length": 32,
        "start": 4209
      },
      {
        "length": 32,
        "start": 4337
      },
      {
        "length": 32,
        "start": 4529
      }
    ],
    "186": [
      {
        "length": 32,
        "start": 1389
      },
      {
        "length": 32,
        "start": 1716
      },
      {
        "length": 32,
        "start": 2337
      },
      {
        "length": 32,
        "start": 3857
      },
      {
        "length": 32,
        "start": 4258
      },
      {
        "length": 32,
        "start": 4581
      }
    ]
  },
  "inputSourceName": "project/contracts/brokerbot/Brokerbot.sol",
  "buildInfoId": "solc-0_8_30-63053b0959e00bdbacc8eaf2ea6a06b0eb98c8c5"
}