{
  "_format": "hh3-artifact-1",
  "contractName": "SecondaryMarketFactory",
  "sourceName": "contracts/market/SecondaryMarketFactory.sol",
  "abi": [
    {
      "anonymous": false,
      "inputs": [
        {
          "indexed": true,
          "internalType": "address",
          "name": "owner",
          "type": "address"
        },
        {
          "indexed": false,
          "internalType": "address",
          "name": "market",
          "type": "address"
        }
      ],
      "name": "SecondaryMarketDeployed",
      "type": "event"
    },
    {
      "inputs": [],
      "name": "SALT",
      "outputs": [
        {
          "internalType": "bytes32",
          "name": "",
          "type": "bytes32"
        }
      ],
      "stateMutability": "view",
      "type": "function"
    },
    {
      "inputs": [
        {
          "internalType": "address",
          "name": "owner",
          "type": "address"
        },
        {
          "internalType": "address",
          "name": "currency",
          "type": "address"
        },
        {
          "internalType": "address",
          "name": "token",
          "type": "address"
        },
        {
          "internalType": "address",
          "name": "reactor",
          "type": "address"
        },
        {
          "internalType": "address",
          "name": "router",
          "type": "address"
        }
      ],
      "name": "deploy",
      "outputs": [
        {
          "internalType": "address",
          "name": "",
          "type": "address"
        }
      ],
      "stateMutability": "nonpayable",
      "type": "function"
    },
    {
      "inputs": [
        {
          "internalType": "address",
          "name": "owner",
          "type": "address"
        },
        {
          "internalType": "address",
          "name": "currency",
          "type": "address"
        },
        {
          "internalType": "address",
          "name": "token",
          "type": "address"
        },
        {
          "internalType": "address",
          "name": "reactor",
          "type": "address"
        },
        {
          "internalType": "address",
          "name": "router",
          "type": "address"
        }
      ],
      "name": "isDeployed",
      "outputs": [
        {
          "internalType": "bool",
          "name": "",
          "type": "bool"
        }
      ],
      "stateMutability": "view",
      "type": "function"
    },
    {
      "inputs": [
        {
          "internalType": "address",
          "name": "owner",
          "type": "address"
        },
        {
          "internalType": "address",
          "name": "currency",
          "type": "address"
        },
        {
          "internalType": "address",
          "name": "token",
          "type": "address"
        },
        {
          "internalType": "address",
          "name": "reactor",
          "type": "address"
        },
        {
          "internalType": "address",
          "name": "router",
          "type": "address"
        }
      ],
      "name": "predict",
      "outputs": [
        {
          "internalType": "address",
          "name": "predicted",
          "type": "address"
        }
      ],
      "stateMutability": "view",
      "type": "function"
    }
  ],
  "bytecode": "0x6080604052348015600e575f5ffd5b50612b508061001c5f395ff3fe608060405234801561000f575f5ffd5b506004361061004a575f3560e01c80635210e9f41461004e5780639937a67814610076578063ba9a91a5146100a1578063ca560804146100ba575b5f5ffd5b61006161005c3660046102d4565b6100cd565b60405190151581526020015b60405180910390f35b6100896100843660046102d4565b61014f565b6040516001600160a01b03909116815260200161006d565b6100ac630135018c81565b60405190815260200161006d565b6100896100c83660046102d4565b6101e3565b604051633295820160e21b81525f908190309063ca560804906100fc908a908a908a908a908a90600401610341565b602060405180830381865afa158015610117573d5f5f3e3d5ffd5b505050506040513d601f19601f8201168201806040525081019061013b9190610373565b3b63ffffffff161515979650505050505050565b5f5f630135018c5f1b8787878787604051610169906102b0565b610177959493929190610341565b8190604051809103905ff5905080158015610194573d5f5f3e3d5ffd5b506040516001600160a01b038083168252919250908816907f6cba2a2456f41ad8697b089875a2d16853063eac33978d17c59836725bccd6349060200160405180910390a29695505050505050565b5f5f604051806020016101f5906102b0565b601f1982820381018352601f9091011660408190526102209089908990899089908990602001610341565b60408051601f198184030181529082905261023e92916020016103ac565b60408051808303601f1901815282825280516020918201206001600160f81b0319828501523060601b6bffffffffffffffffffffffff19166021850152630135018c60358501526055808501919091528251808503909101815260759093019091528151910120979650505050505050565b612752806103c983390190565b6001600160a01b03811681146102d1575f5ffd5b50565b5f5f5f5f5f60a086880312156102e8575f5ffd5b85356102f3816102bd565b94506020860135610303816102bd565b93506040860135610313816102bd565b92506060860135610323816102bd565b91506080860135610333816102bd565b809150509295509295909350565b6001600160a01b0395861681529385166020850152918416604084015283166060830152909116608082015260a00190565b5f60208284031215610383575f5ffd5b815161038e816102bd565b9392505050565b5f81518060208401855e5f93019283525090919050565b5f6103c06103ba8386610395565b84610395565b94935050505056fe60e060405234801561000f575f5ffd5b5060405161275238038061275283398101604081905261002e916100e7565b5f80546001600160a01b0319166001600160a01b03871690811782556040518792907f8be0079c531659141344cd1fd0a4f28419497f9722a3daafe3b4186f6b6457e0908290a3506001600160a01b0393841660805291831660a052821660c0526001805464ff0000ffff60b01b1992909316600165ffff0000000160a01b03199093169290921761027160c31b1716600160d01b17905550610148565b80516001600160a01b03811681146100e2575f5ffd5b919050565b5f5f5f5f5f60a086880312156100fb575f5ffd5b610104866100cc565b9450610112602087016100cc565b9350610120604087016100cc565b925061012e606087016100cc565b915061013c608087016100cc565b90509295509295909350565b60805160a05160c05161252361022f5f395f818161043001528181610827015281816108e401528181610b2201528181610c7501528181610e1f01528181610f5e015281816111f5015281816112be01528181611632015281816117a301528181611866015281816118f40152611a7401525f8181610383015281816105c0015281816106320152818161072101528181610ebd01528181610fd8015281816110b9015261126b01525f81816104980152818161058b0152818161067d015281816106d601528181610a9401528181610ef201528181611023015261106e01526125235ff3fe608060405234801561000f575f5ffd5b50600436106101e7575f3560e01c806374694f9211610109578063b96035701161009e578063f53612191161006e578063f536121914610493578063f887ea40146104ba578063fcfff16f146104cd578063ffa1ad74146104d5575f5ffd5b8063b96035701461042b578063ce8f046714610452578063f22c1f7214610465578063f2fde38b14610480575f5ffd5b80639bc5e3bc116100d95780639bc5e3bc146103cf578063a1d13d05146103e2578063ad3b1b4714610410578063ae71dcdf14610423575f5ffd5b806374694f92146103585780638277dad41461036b57806382bfefc81461037e5780638da5cb5b146103bd575f5ffd5b8063476343ee1161017f57806360b778f51161014f57806360b778f5146102fb57806360ddae981461030e57806367dcc74e1461032e578063716af22214610343575f5ffd5b8063476343ee146102ba57806350b45ad8146102c25780635d84fbff146102d557806360325914146102e8575f5ffd5b806342d4c340116101ba57806342d4c34014610272578063435f0d411461028557806343d726d61461028e57806347535d7b14610296575f5ffd5b80631c1b629d146101eb578063225b34ac146102005780632893c86a146102295780632c33df5414610251575b5f5ffd5b6101fe6101f9366004611ce1565b6104dd565b005b61021361020e366004611d12565b610557565b6040516102209190611d8c565b60405180910390f35b60015461023e90600160c01b900461ffff1681565b60405161ffff9091168152602001610220565b61026461025f366004611e55565b610627565b604051908152602001610220565b6101fe610280366004611eca565b610788565b61023e61271081565b6101fe610a2b565b6001546102aa90600160d01b900460ff1681565b6040519015158152602001610220565b6101fe610a7b565b6102646102d0366004611f92565b610b09565b6101fe6102e3366004611ff5565b610bb5565b6101fe6102f6366004611e55565b610c1e565b6101fe610309366004611ff5565b610cda565b61032161031c366004612015565b610d2b565b6040516102209190612084565b60015461023e90600160b01b900461ffff1681565b60015461023e90600160a01b900461ffff1681565b6101fe6103663660046120c6565b610dd0565b610213610379366004611d12565b610e89565b6103a57f000000000000000000000000000000000000000000000000000000000000000081565b6040516001600160a01b039091168152602001610220565b5f546103a5906001600160a01b031681565b6101fe6103dd3660046120c6565b610f3c565b6103f56103f03660046120c6565b610fc0565b60408051938452602084019290925290820152606001610220565b6101fe61041e36600461212d565b6113a3565b6102645f1981565b6103a57f000000000000000000000000000000000000000000000000000000000000000081565b610264610460366004611e55565b611547565b6103a57329fe8914e76da5ce2d90de98a64d0055f199d06d81565b6101fe61048e366004612155565b611551565b6103a57f000000000000000000000000000000000000000000000000000000000000000081565b6001546103a5906001600160a01b031681565b6101fe6115b2565b61023e600181565b6104e5611602565b6001546127109061050590600160c01b900461ffff908116908416612182565b11156105245760405163c52a9bd360e01b815260040160405180910390fd5b6001805461ffff909216600160b01b02600163ffff000160a01b03199092166001600160a01b0390931692909217179055565b61055f611c52565b604051806101200160405280866001600160a01b03168152602001306001600160a01b031681526020017f00000000000000000000000000000000000000000000000000000000000000006001600160a01b031681526020018581526020017f00000000000000000000000000000000000000000000000000000000000000006001600160a01b031681526020018481526020014281526020018362ffffff164261060a9190612182565b8152604080515f8152602080820190925291015295945050505050565b5f6001600160a01b037f0000000000000000000000000000000000000000000000000000000000000000166106626060840160408501612155565b6001600160a01b03161480156106b857506001600160a01b037f0000000000000000000000000000000000000000000000000000000000000000166106ad60a0840160808501612155565b6001600160a01b0316145b156106cc576106c68261162e565b92915050565b6001600160a01b037f0000000000000000000000000000000000000000000000000000000000000000166107066060840160408501612155565b6001600160a01b031614801561075c57506001600160a01b037f00000000000000000000000000000000000000000000000000000000000000001661075160a0840160808501612155565b6001600160a01b0316145b1561076a576106c682611862565b604051631d37a6fd60e11b815260040160405180910390fd5b919050565b600154600160d01b900460ff166107b15760405162b5f6bf60e41b815260040160405180910390fd5b6001546001600160a01b0316158015906107d657506001546001600160a01b03163314155b1561080e57600154604051631f7dfcfb60e01b81523360048201526001600160a01b0390911660248201526044015b60405180910390fd5b604051631768e34b60e31b81525f906001600160a01b037f0000000000000000000000000000000000000000000000000000000000000000169063bb471a58906108609088908c9087906004016122c9565b602060405180830381865afa15801561087b573d5f5f3e3d5ffd5b505050506040513d601f19601f8201168201806040525081019061089f91906122fe565b6001549091505f90612710906108c090600160a01b900461ffff1684612315565b6108ca919061232c565b604051636c490a8b60e11b81529091506001600160a01b037f0000000000000000000000000000000000000000000000000000000000000000169063d892151690610927908c908c908c908c908c908c908c908b9060040161234b565b5f604051808303815f87803b15801561093e575f5ffd5b505af1158015610950573d5f5f3e3d5ffd5b50610962925050506020870187612155565b6001600160a01b031661097860208b018b612155565b6001600160a01b03167f5cacf0ac1f39b8df3d2e2bf11715db21af48833caa8819eaf4277e6b2e1b54d46109ab8c611b3f565b6109b48a611b3f565b8d60400160208101906109c79190612155565b888f60800160208101906109db9190612155565b6040805195865260208601949094526001600160a01b0392831693850193909352606084015216608082015260a0810186905260c0810185905260e00160405180910390a3505050505050505050565b610a33611602565b6001805460ff60d01b19169055604080515f81524260208201527fb89f558b3a2238cd6e750c4d3e29359faf8999130df57275857b0f526c34a42091015b60405180910390a1565b6040516370a0823160e01b8152306004820152610b07907f0000000000000000000000000000000000000000000000000000000000000000906001600160a01b038216906370a0823190602401602060405180830381865afa158015610ae3573d5f5f3e3d5ffd5b505050506040513d601f19601f8201168201806040525081019061041e91906122fe565b565b6040516316e1a9cf60e31b81525f906001600160a01b037f0000000000000000000000000000000000000000000000000000000000000000169063b70d4e7890610b5990859087906004016123b1565b5f6040518083038186803b158015610b6f575f5ffd5b505afa158015610b81573d5f5f3e3d5ffd5b505050505f610b8f8461162e565b90505f610b9b84611862565b9050808210610baa5780610bac565b815b95945050505050565b610bbd611602565b60015461271090610bdd90600160b01b900461ffff908116908416612182565b1115610bfc5760405163c52a9bd360e01b815260040160405180910390fd5b6001805461ffff909216600160c01b0261ffff60c01b19909216919091179055565b6001546001600160a01b03163314610c5e57600154604051631f7dfcfb60e01b81523360048201526001600160a01b039091166024820152604401610805565b60405163180c964560e21b81526001600160a01b037f00000000000000000000000000000000000000000000000000000000000000001690636032591490610caa9084906004016123d5565b5f604051808303815f87803b158015610cc1575f5ffd5b505af1158015610cd3573d5f5f3e3d5ffd5b5050505050565b610ce2611602565b6101f48161ffff161115610d095760405163c52a9bd360e01b815260040160405180910390fd5b6001805461ffff909216600160a01b0261ffff60a01b19909216919091179055565b60605f826001600160401b03811115610d4657610d46612195565b604051908082528060200260200182016040528015610d6f578160200160208202803683370190505b5090505f5b83811015610dc857610da3858583818110610d9157610d916123e7565b905060200281019061025f91906123fb565b828281518110610db557610db56123e7565b6020908102919091010152600101610d74565b509392505050565b30610de16040850160208601612155565b6001600160a01b031614610e085760405163a0c7abcf60e01b815260040160405180910390fd5b604051631d7969ef60e11b81526001600160a01b037f00000000000000000000000000000000000000000000000000000000000000001690633af2d3de90610e589086908690869060040161241a565b5f6040518083038186803b158015610e6e575f5ffd5b505afa158015610e80573d5f5f3e3d5ffd5b50505050505050565b610e91611c52565b604051806101200160405280866001600160a01b03168152602001306001600160a01b031681526020017f00000000000000000000000000000000000000000000000000000000000000006001600160a01b031681526020018581526020017f00000000000000000000000000000000000000000000000000000000000000006001600160a01b031681526020018481526020014281526020018362ffffff164261060a9190612182565b610f47838383610dd0565b604051630fb490f760e01b81526001600160a01b037f00000000000000000000000000000000000000000000000000000000000000001690630fb490f790610f979086908690869060040161241a565b5f604051808303815f87803b158015610fae575f5ffd5b505af1158015610e80573d5f5f3e3d5ffd5b5f5f5f610fce868686610dd0565b6001600160a01b037f0000000000000000000000000000000000000000000000000000000000000000166110086060880160408901612155565b6001600160a01b031614801561105e57506001600160a01b037f00000000000000000000000000000000000000000000000000000000000000001661105360a0880160808901612155565b6001600160a01b0316145b806110f457506001600160a01b037f00000000000000000000000000000000000000000000000000000000000000001661109e6060880160408901612155565b6001600160a01b03161480156110f457506001600160a01b037f0000000000000000000000000000000000000000000000000000000000000000166110e960a0880160808901612155565b6001600160a01b0316145b61111157604051631d37a6fd60e11b815260040160405180910390fd5b6111216060870160408801612155565b6001600160a01b03166370a0823161113c6020890189612155565b6040516001600160e01b031960e084901b1681526001600160a01b039091166004820152602401602060405180830381865afa15801561117e573d5f5f3e3d5ffd5b505050506040513d601f19601f820116820180604052508101906111a291906122fe565b91506111b46060870160408801612155565b6001600160a01b031663dd62ed3e6111cf6020890189612155565b60405160e083901b6001600160e01b03191681526001600160a01b0391821660048201527f00000000000000000000000000000000000000000000000000000000000000009091166024820152604401602060405180830381865afa15801561123a573d5f5f3e3d5ffd5b505050506040513d601f19601f8201168201806040525081019061125e91906122fe565b90505f6001600160a01b037f00000000000000000000000000000000000000000000000000000000000000001661129b6060890160408a01612155565b6001600160a01b0316146112b3578660a001356112b9565b86606001355b90505f7f00000000000000000000000000000000000000000000000000000000000000006001600160a01b031663ff77980c896040518263ffffffff1660e01b815260040161130891906123d5565b602060405180830381865afa158015611323573d5f5f3e3d5ffd5b505050506040513d601f19601f8201168201806040525081019061134791906122fe565b90505f19810361136a5760405163dabe493f60e01b815260040160405180910390fd5b80821161138a576040516341a26a6360e01b815260040160405180910390fd5b5f6113958284612449565b955050505093509350939050565b6113ab611602565b6001545f90612710906113c990600160c01b900461ffff1684612315565b6113d3919061232c565b5f549091506001600160a01b038085169163a9059cbb91166113f58486612449565b6040516001600160e01b031960e085901b1681526001600160a01b03909216600483015260248201526044016020604051808303815f875af115801561143d573d5f5f3e3d5ffd5b505050506040513d601f19601f82011682018060405250810190611461919061245c565b5060405163a9059cbb60e01b81527329fe8914e76da5ce2d90de98a64d0055f199d06d6004820152602481018290526001600160a01b0384169063a9059cbb906044016020604051808303815f875af11580156114c0573d5f5f3e3d5ffd5b505050506040513d601f19601f820116820180604052508101906114e4919061245c565b50604080516001600160a01b03851681527329fe8914e76da5ce2d90de98a64d0055f199d06d60208201529081018290527f7ed2a187ded43c3b5cac8cdea91ca4f539f41b0876fa4da818d8751153fcc1829060600160405180910390a1505050565b5f6106c682611b3f565b611559611602565b5f80546040516001600160a01b03808516939216917f8be0079c531659141344cd1fd0a4f28419497f9722a3daafe3b4186f6b6457e091a35f80546001600160a01b0319166001600160a01b0392909216919091179055565b6115ba611602565b6001805460ff60d01b1916600160d01b178155604080519182524260208301527fb89f558b3a2238cd6e750c4d3e29359faf8999130df57275857b0f526c34a4209101610a71565b5f546001600160a01b03163314610b07576040516396a19be960e01b8152336004820152602401610805565b5f5f7f00000000000000000000000000000000000000000000000000000000000000006001600160a01b031663ff77980c846040518263ffffffff1660e01b815260040161167c91906123d5565b602060405180830381865afa158015611697573d5f5f3e3d5ffd5b505050506040513d601f19601f820116820180604052508101906116bb91906122fe565b90505f6116ce6060850160408601612155565b6001600160a01b03166370a082316116e96020870187612155565b6040516001600160e01b031960e084901b1681526001600160a01b039091166004820152602401602060405180830381865afa15801561172b573d5f5f3e3d5ffd5b505050506040513d601f19601f8201168201806040525081019061174f91906122fe565b90505f6117626060860160408701612155565b6001600160a01b031663dd62ed3e61177d6020880188612155565b60405160e083901b6001600160e01b03191681526001600160a01b0391821660048201527f00000000000000000000000000000000000000000000000000000000000000009091166024820152604401602060405180830381865afa1580156117e8573d5f5f3e3d5ffd5b505050506040513d601f19601f8201168201806040525081019061180c91906122fe565b90508285606001351161182357505f949350505050565b5f611832846060880135612449565b90505f8284106118425782611844565b835b90505f8183106118545781611856565b825b98975050505050505050565b5f5f7f00000000000000000000000000000000000000000000000000000000000000006001600160a01b031663ff77980c846040518263ffffffff1660e01b81526004016118b091906123d5565b602060405180830381865afa1580156118cb573d5f5f3e3d5ffd5b505050506040513d601f19601f820116820180604052508101906118ef91906122fe565b90505f7f00000000000000000000000000000000000000000000000000000000000000006001600160a01b031663b1e45f248560016040518363ffffffff1660e01b815260040161194192919061247b565b602060405180830381865afa15801561195c573d5f5f3e3d5ffd5b505050506040513d601f19601f8201168201806040525081019061198091906122fe565b90505f816119946060870160408801612155565b6001600160a01b03166370a082316119af6020890189612155565b6040516001600160e01b031960e084901b1681526001600160a01b039091166004820152602401602060405180830381865afa1580156119f1573d5f5f3e3d5ffd5b505050506040513d601f19601f82011682018060405250810190611a1591906122fe565b611a1f919061232c565b90505f82611a336060880160408901612155565b6001600160a01b031663dd62ed3e611a4e60208a018a612155565b60405160e083901b6001600160e01b03191681526001600160a01b0391821660048201527f00000000000000000000000000000000000000000000000000000000000000009091166024820152604401602060405180830381865afa158015611ab9573d5f5f3e3d5ffd5b505050506040513d601f19601f82011682018060405250810190611add91906122fe565b611ae7919061232c565b9050838660a0013511611aff57505f95945050505050565b5f611b0e8560a0890135612449565b90505f828410611b1e5782611b20565b835b90505f818310611b305781611b32565b825b9998505050505050505050565b5f7f034c5b389d8a563abef85c21c2424d5cff6b0c3b7b0e19c7f9a7a671cec7a347611b6e6020840184612155565b611b7e6040850160208601612155565b611b8e6060860160408701612155565b6060860135611ba360a0880160808901612155565b60a088013560c089013560e08a0135611bc06101008c018c61249c565b604051611bce9291906124de565b60408051918290038220602083019b909b526001600160a01b03998a16908201529688166060880152948716608087015260a0860193909352941660c084015260e083019390935261010082019290925261012081019190915261014081019190915261016001604051602081830303815290604052805190602001209050919050565b6040518061012001604052805f6001600160a01b031681526020015f6001600160a01b031681526020015f6001600160a01b031681526020015f81526020015f6001600160a01b031681526020015f81526020015f81526020015f8152602001606081525090565b80356001600160a01b0381168114610783575f5ffd5b803561ffff81168114610783575f5ffd5b5f5f60408385031215611cf2575f5ffd5b611cfb83611cba565b9150611d0960208401611cd0565b90509250929050565b5f5f5f5f60808587031215611d25575f5ffd5b611d2e85611cba565b93506020850135925060408501359150606085013562ffffff81168114611d53575f5ffd5b939692955090935050565b5f81518084528060208401602086015e5f602082860101526020601f19601f83011685010191505092915050565b60208152611da66020820183516001600160a01b03169052565b5f6020830151611dc160408401826001600160a01b03169052565b5060408301516001600160a01b038116606084015250606083015160808301526080830151611dfb60a08401826001600160a01b03169052565b5060a083015160c083015260c083015160e083015260e083015161010083015261010083015161012080840152611e36610140840182611d5e565b949350505050565b5f6101208284031215611e4f575f5ffd5b50919050565b5f60208284031215611e65575f5ffd5b81356001600160401b03811115611e7a575f5ffd5b611e3684828501611e3e565b5f5f83601f840112611e96575f5ffd5b5081356001600160401b03811115611eac575f5ffd5b602083019150836020828501011115611ec3575f5ffd5b9250929050565b5f5f5f5f5f5f5f60a0888a031215611ee0575f5ffd5b87356001600160401b03811115611ef5575f5ffd5b611f018a828b01611e3e565b97505060208801356001600160401b03811115611f1c575f5ffd5b611f288a828b01611e86565b90975095505060408801356001600160401b03811115611f46575f5ffd5b611f528a828b01611e3e565b94505060608801356001600160401b03811115611f6d575f5ffd5b611f798a828b01611e86565b989b979a50959894979596608090950135949350505050565b5f5f60408385031215611fa3575f5ffd5b82356001600160401b03811115611fb8575f5ffd5b611fc485828601611e3e565b92505060208301356001600160401b03811115611fdf575f5ffd5b611feb85828601611e3e565b9150509250929050565b5f60208284031215612005575f5ffd5b61200e82611cd0565b9392505050565b5f5f60208385031215612026575f5ffd5b82356001600160401b0381111561203b575f5ffd5b8301601f8101851361204b575f5ffd5b80356001600160401b03811115612060575f5ffd5b8560208260051b8401011115612074575f5ffd5b6020919091019590945092505050565b602080825282518282018190525f918401906040840190835b818110156120bb57835183526020938401939092019160010161209d565b509095945050505050565b5f5f5f604084860312156120d8575f5ffd5b83356001600160401b038111156120ed575f5ffd5b6120f986828701611e3e565b93505060208401356001600160401b03811115612114575f5ffd5b61212086828701611e86565b9497909650939450505050565b5f5f6040838503121561213e575f5ffd5b61214783611cba565b946020939093013593505050565b5f60208284031215612165575f5ffd5b61200e82611cba565b634e487b7160e01b5f52601160045260245ffd5b808201808211156106c6576106c661216e565b634e487b7160e01b5f52604160045260245ffd5b5f5f8335601e198436030181126121be575f5ffd5b83016020810192503590506001600160401b038111156121dc575f5ffd5b803603821315611ec3575f5ffd5b81835281816020850137505f828201602090810191909152601f909101601f19169091010190565b61222c8261221f83611cba565b6001600160a01b03169052565b5f61223960208301611cba565b6001600160a01b0316602084015261225360408301611cba565b6001600160a01b031660408401526060828101359084015261227760808301611cba565b6001600160a01b0316608084015260a0828101359084015260c0808301359084015260e080830135908401526122b16101008301836121a9565b610120610100860152610bac610120860182846121ea565b606081525f6122db6060830186612212565b82810360208401526122ed8186612212565b915050826040830152949350505050565b5f6020828403121561230e575f5ffd5b5051919050565b80820281158282048414176106c6576106c661216e565b5f8261234657634e487b7160e01b5f52601260045260245ffd5b500490565b60c081525f61235d60c083018b612212565b8281036020840152612370818a8c6121ea565b905082810360408401526123848189612212565b905082810360608401526123998187896121ea565b6080840195909552505060a001529695505050505050565b604081525f6123c36040830185612212565b8281036020840152610bac8185612212565b602081525f61200e6020830184612212565b634e487b7160e01b5f52603260045260245ffd5b5f823561011e19833603018112612410575f5ffd5b9190910192915050565b604081525f61242c6040830186612212565b828103602084015261243f8185876121ea565b9695505050505050565b818103818111156106c6576106c661216e565b5f6020828403121561246c575f5ffd5b8151801515811461200e575f5ffd5b604081525f61248d6040830185612212565b90508260208301529392505050565b5f5f8335601e198436030181126124b1575f5ffd5b8301803591506001600160401b038211156124ca575f5ffd5b602001915036819003821315611ec3575f5ffd5b818382375f910190815291905056fea2646970667358221220d41a0ce900dccc0709ac5613e9772521497308bbada39bd33a8a00fc2c1e4c5464736f6c634300081e0033a26469706673582212203f2fe4d2321741890b54f24e649590a00981b976806dd3830a25c0ba9b37b06164736f6c634300081e0033",
  "linkReferences": {},
  "deployedLinkReferences": {},
  "immutableReferences": {},
  "inputSourceName": "project/contracts/market/SecondaryMarketFactory.sol",
  "buildInfoId": "solc-0_8_30-4ba33d343149763ad1e494aa8c932f49e7fb6d65"
}