{
  "_format": "hh-sol-artifact-1",
  "contractName": "AllowlistDraggableFactory",
  "sourceName": "contracts/utils/factory/AllowlistDraggableFactory.sol",
  "abi": [
    {
      "inputs": [
        {
          "internalType": "address",
          "name": "_owner",
          "type": "address"
        }
      ],
      "stateMutability": "nonpayable",
      "type": "constructor"
    },
    {
      "inputs": [
        {
          "internalType": "address",
          "name": "sender",
          "type": "address"
        }
      ],
      "name": "Ownable_NotOwner",
      "type": "error"
    },
    {
      "anonymous": false,
      "inputs": [
        {
          "indexed": false,
          "internalType": "contract FactoryManager",
          "name": "manager",
          "type": "address"
        }
      ],
      "name": "FactoryManagerUpdated",
      "type": "event"
    },
    {
      "anonymous": false,
      "inputs": [
        {
          "indexed": true,
          "internalType": "address",
          "name": "previousOwner",
          "type": "address"
        },
        {
          "indexed": true,
          "internalType": "address",
          "name": "newOwner",
          "type": "address"
        }
      ],
      "name": "OwnershipTransferred",
      "type": "event"
    },
    {
      "inputs": [
        {
          "components": [
            {
              "internalType": "string",
              "name": "name",
              "type": "string"
            },
            {
              "internalType": "string",
              "name": "symbol",
              "type": "string"
            },
            {
              "internalType": "string",
              "name": "terms",
              "type": "string"
            },
            {
              "internalType": "bool",
              "name": "draggable",
              "type": "bool"
            },
            {
              "internalType": "uint256",
              "name": "numberOfShares",
              "type": "uint256"
            },
            {
              "internalType": "uint256",
              "name": "quorumDrag",
              "type": "uint256"
            },
            {
              "internalType": "uint256",
              "name": "quorumMigration",
              "type": "uint256"
            },
            {
              "internalType": "uint256",
              "name": "votePeriod",
              "type": "uint256"
            }
          ],
          "internalType": "struct TokenConfig",
          "name": "tokenConfig",
          "type": "tuple"
        },
        {
          "internalType": "address",
          "name": "tokenOwner",
          "type": "address"
        },
        {
          "internalType": "contract IERC20Permit",
          "name": "token",
          "type": "address"
        },
        {
          "internalType": "string",
          "name": "_salt",
          "type": "string"
        }
      ],
      "name": "createAllowlistDraggable",
      "outputs": [
        {
          "internalType": "contract IERC20Permit",
          "name": "",
          "type": "address"
        }
      ],
      "stateMutability": "nonpayable",
      "type": "function"
    },
    {
      "inputs": [],
      "name": "manager",
      "outputs": [
        {
          "internalType": "contract FactoryManager",
          "name": "",
          "type": "address"
        }
      ],
      "stateMutability": "view",
      "type": "function"
    },
    {
      "inputs": [],
      "name": "owner",
      "outputs": [
        {
          "internalType": "address",
          "name": "",
          "type": "address"
        }
      ],
      "stateMutability": "view",
      "type": "function"
    },
    {
      "inputs": [
        {
          "components": [
            {
              "internalType": "string",
              "name": "name",
              "type": "string"
            },
            {
              "internalType": "string",
              "name": "symbol",
              "type": "string"
            },
            {
              "internalType": "string",
              "name": "terms",
              "type": "string"
            },
            {
              "internalType": "bool",
              "name": "draggable",
              "type": "bool"
            },
            {
              "internalType": "uint256",
              "name": "numberOfShares",
              "type": "uint256"
            },
            {
              "internalType": "uint256",
              "name": "quorumDrag",
              "type": "uint256"
            },
            {
              "internalType": "uint256",
              "name": "quorumMigration",
              "type": "uint256"
            },
            {
              "internalType": "uint256",
              "name": "votePeriod",
              "type": "uint256"
            }
          ],
          "internalType": "struct TokenConfig",
          "name": "tokenConfig",
          "type": "tuple"
        },
        {
          "internalType": "address",
          "name": "tokenOwner",
          "type": "address"
        },
        {
          "internalType": "contract IERC20Permit",
          "name": "token",
          "type": "address"
        },
        {
          "internalType": "string",
          "name": "_salt",
          "type": "string"
        }
      ],
      "name": "predictAllowlistDraggableAddress",
      "outputs": [
        {
          "internalType": "address",
          "name": "",
          "type": "address"
        }
      ],
      "stateMutability": "view",
      "type": "function"
    },
    {
      "inputs": [
        {
          "internalType": "contract FactoryManager",
          "name": "_manager",
          "type": "address"
        }
      ],
      "name": "setManager",
      "outputs": [],
      "stateMutability": "nonpayable",
      "type": "function"
    },
    {
      "inputs": [
        {
          "internalType": "address",
          "name": "newOwner",
          "type": "address"
        }
      ],
      "name": "transferOwnership",
      "outputs": [],
      "stateMutability": "nonpayable",
      "type": "function"
    }
  ],
  "bytecode": "0x6080604052348015600e575f5ffd5b50604051613d67380380613d67833981016040819052602b916078565b5f80546001600160a01b0319166001600160a01b03831690811782556040518392907f8be0079c531659141344cd1fd0a4f28419497f9722a3daafe3b4186f6b6457e0908290a3505060a3565b5f602082840312156087575f5ffd5b81516001600160a01b0381168114609c575f5ffd5b9392505050565b613cb7806100b05f395ff3fe608060405234801561000f575f5ffd5b5060043610610060575f3560e01c8063481c6a75146100645780638da5cb5b14610093578063c92a1d22146100a5578063d0ebdbe7146100b8578063f2fde38b146100cd578063f81936ca146100e0575b5f5ffd5b600154610077906001600160a01b031681565b6040516001600160a01b03909116815260200160405180910390f35b5f54610077906001600160a01b031681565b6100776100b33660046106b0565b6100f3565b6100cb6100c636600461076f565b61038e565b005b6100cb6100db36600461076f565b6103ea565b6100776100ee3660046106b0565b61044b565b5f806101026020880188610791565b8686866040516020016101199594939291906107db565b60408051601f1981840301815282825280516020918201206080840183526001600160a01b038916845260a08b01358483015260c08b01358484015260e08b0135606085015291519193505f919061017290820161068c565b601f1982820381018352601f909101166040908152610193908b018b610791565b60015460408051639220623b60e01b8152905187926001600160a01b031691639220623b9160048083019260209291908290030181865afa1580156101da573d5f5f3e3d5ffd5b505050506040513d601f19601f820116820180604052508101906101fe9190610813565b60015f9054906101000a90046001600160a01b03166001600160a01b031663ecd7cf786040518163ffffffff1660e01b8152600401602060405180830381865afa15801561024e573d5f5f3e3d5ffd5b505050506040513d601f19601f820116820180604052508101906102729190610813565b8d60015f9054906101000a90046001600160a01b03166001600160a01b03166318efcce56040518163ffffffff1660e01b8152600401602060405180830381865afa1580156102c3573d5f5f3e3d5ffd5b505050506040513d601f19601f820116820180604052508101906102e79190610813565b6040516020016102fd979695949392919061082e565b60408051601f198184030181529082905261031b92916020016108ef565b60408051601f1981840301815282825280516020918201206001600160f81b0319828501523060601b6bffffffffffffffffffffffff1916602185015260358401969096526055808401969096528151808403909601865260759092019052835193019290922098975050505050505050565b61039661065a565b600180546001600160a01b0319166001600160a01b0383169081179091556040519081527f7374c03893422e168ea189118b40932f7c665b7dbcd921b4d7580ca758cc1e409060200160405180910390a150565b6103f261065a565b5f80546040516001600160a01b03808516939216917f8be0079c531659141344cd1fd0a4f28419497f9722a3daafe3b4186f6b6457e091a35f80546001600160a01b0319166001600160a01b0392909216919091179055565b5f8061045a6020880188610791565b8686866040516020016104719594939291906107db565b60408051601f1981840301815282825280516020918201206080840183526001600160a01b038916845260a08b01359184019190915260c08a01358383015260e08a01356060840152925082906104ca908a018a610791565b60015460408051639220623b60e01b8152905186926001600160a01b031691639220623b9160048083019260209291908290030181865afa158015610511573d5f5f3e3d5ffd5b505050506040513d601f19601f820116820180604052508101906105359190610813565b60015f9054906101000a90046001600160a01b03166001600160a01b031663ecd7cf786040518163ffffffff1660e01b8152600401602060405180830381865afa158015610585573d5f5f3e3d5ffd5b505050506040513d601f19601f820116820180604052508101906105a99190610813565b600154604080516318efcce560e01b815290518f926001600160a01b0316916318efcce59160048083019260209291908290030181865afa1580156105f0573d5f5f3e3d5ffd5b505050506040513d601f19601f820116820180604052508101906106149190610813565b6040516106209061068c565b610630979695949392919061082e565b8190604051809103905ff590508015801561064d573d5f5f3e3d5ffd5b5098975050505050505050565b5f546001600160a01b0316331461068a576040516396a19be960e01b815233600482015260240160405180910390fd5b565b6133768061090c83390190565b6001600160a01b03811681146106ad575f5ffd5b50565b5f5f5f5f5f608086880312156106c4575f5ffd5b853567ffffffffffffffff8111156106da575f5ffd5b860161010081890312156106ec575f5ffd5b945060208601356106fc81610699565b9350604086013561070c81610699565b9250606086013567ffffffffffffffff811115610727575f5ffd5b8601601f81018813610737575f5ffd5b803567ffffffffffffffff81111561074d575f5ffd5b88602082840101111561075e575f5ffd5b959894975092955050506020019190565b5f6020828403121561077f575f5ffd5b813561078a81610699565b9392505050565b5f5f8335601e198436030181126107a6575f5ffd5b83018035915067ffffffffffffffff8211156107c0575f5ffd5b6020019150368190038213156107d4575f5ffd5b9250929050565b848682375f8582016bffffffffffffffffffffffff198660601b168152838560148301375f9301601401928352509095945050505050565b5f60208284031215610823575f5ffd5b815161078a81610699565b61012081528661012082015286886101408301375f61014088830101525f610140601f19601f8a0116830101905060018060a01b03875116602083015260208701516040830152604087015160608301526060870151608083015261089e60a08301876001600160a01b03169052565b6001600160a01b03851660c08301526001600160a01b03841660e08301526001600160a01b03831661010083015298975050505050505050565b5f81518060208401855e5f93019283525090919050565b5f6109036108fd83866108d8565b846108d8565b94935050505056fe6101606040525f600455348015610014575f5ffd5b506040516133763803806133768339810160408190526100339161022d565b5f6080528451600380546001600160a01b03199081166001600160a01b0393841617909155602087015160e052604087015160c05260608701516101005284821660a052600680549091168483161790558481166101205281166101405281868686868486600a6100a48782610396565b50604051636427ed9760e01b81525f60048201526001600160a01b03851690636427ed97906024015f604051808303815f87803b1580156100e3575f5ffd5b505af11580156100f5573d5f5f3e3d5ffd5b5050600b80546001600160a01b0319166001600160a01b038b169081179091556040519098505f97507f8be0079c531659141344cd1fd0a4f28419497f9722a3daafe3b4186f6b6457e096508795509350505050a350505050505050610450565b634e487b7160e01b5f52604160045260245ffd5b604051601f8201601f191681016001600160401b038111828210171561019257610192610156565b604052919050565b6001600160a01b03811681146101ae575f5ffd5b50565b5f608082840312156101c1575f5ffd5b604051608081016001600160401b03811182821017156101e3576101e3610156565b806040525080915082516101f68161019a565b81526020838101519082015260408084015190820152606092830151920191909152919050565b80516102288161019a565b919050565b5f5f5f5f5f5f6101208789031215610243575f5ffd5b86516001600160401b03811115610258575f5ffd5b8701601f81018913610268575f5ffd5b80516001600160401b0381111561028157610281610156565b610294601f8201601f191660200161016a565b8181528a60208385010111156102a8575f5ffd5b8160208401602083015e5f602083830101528098505050506102cd88602089016101b1565b94506102db60a0880161021d565b93506102e960c0880161021d565b92506102f760e0880161021d565b9150610306610100880161021d565b90509295509295509295565b600181811c9082168061032657607f821691505b60208210810361034457634e487b7160e01b5f52602260045260245ffd5b50919050565b601f82111561039157805f5260205f20601f840160051c8101602085101561036f5750805b601f840160051c820191505b8181101561038e575f815560010161037b565b50505b505050565b81516001600160401b038111156103af576103af610156565b6103c3816103bd8454610312565b8461034a565b6020601f8211600181146103f5575f83156103de5750848201515b5f19600385901b1c1916600184901b17845561038e565b5f84815260208120601f198516915b828110156104245787850151825560209485019460019092019101610404565b508482101561044157868401515f19600387901b60f8161c191681555b50505050600190811b01905550565b60805160a05160c05160e051610100516101205161014051612e886104ee5f395f8181610494015261227901525f81816109b701528181610d4e01528181610f89015281816112b201528181611772015261218701525f818161081301526115cb01525f818161044d01526115a501525f8181610a4701528181611946015261198201525f818161091f01526115f301525f6105430152612e885ff3fe608060405260043610610371575f3560e01c80637ecebe00116101c8578063c18172c4116100fd578063de0e9a3e1161009d578063f2fde38b1161006d578063f2fde38b14610a69578063f5c0b95f14610a88578063fcb79a7e14610aa7578063ffa1ad7414610ac6575f5ffd5b8063de0e9a3e146109d9578063e445d70a146109f8578063e5b824ec14610a17578063efa4051214610a36575f5ffd5b8063d505accf116100d8578063d505accf14610955578063dcc7d4ad14610974578063dd62ed3e14610987578063ddceafa9146109a6575f5ffd5b8063c18172c4146108ef578063c45a01551461090e578063d502562514610941575f5ffd5b8063a781358711610168578063bf376c7a11610143578063bf376c7a14610873578063c01bc98214610892578063c028df06146108b1578063c07473f6146108d0575f5ffd5b8063a781358714610802578063a9059cbb14610835578063babcc53914610854575f5ffd5b806395d89b41116101a357806395d89b411461079b5780639e4b5745146107af578063a49a7cb1146107c4578063a4c0ed36146107e3575f5ffd5b80637ecebe001461073d5780638da5cb5b146107685780638fd3ab8014610787575f5ffd5b806332bc320b116102a9578063609181171161024957806378f86afc1161021957806378f86afc146106cb5780637adbf973146106ea5780637dc0d1d0146107095780637dc2cd9814610728575f5ffd5b80636091811714610659578063648bf7741461066e57806370a082311461068d57806377e071ad146106ac575f5ffd5b806342966c681161028457806342966c68146105dd578063429c66f0146105fc57806345c8a62b1461061b57806350e70d481461063a575f5ffd5b806332bc320b146105965780633644e515146105aa5780634000aea0146105be575f5ffd5b806318efcce51161031457806324d7806c116102ef57806324d7806c146104f65780632a0a4ed514610515578063313ce5671461053257806332a7ae9514610577575f5ffd5b806318efcce51461048357806319845354146104b657806323b872dd146104d7575f5ffd5b80630a81b2de1161034f5780630a81b2de146103f15780630c6f0e5d146104055780631703a0181461043c57806318160ddd1461046f575f5ffd5b806306fdde03146103755780630832e4701461039f578063095ea7b3146103c2575b5f5ffd5b348015610380575f5ffd5b50610389610ada565b60405161039691906126a0565b60405180910390f35b3480156103aa575f5ffd5b506103b460045481565b604051908152602001610396565b3480156103cd575f5ffd5b506103e16103dc3660046126c6565b610b9b565b6040519015158152602001610396565b3480156103fc575f5ffd5b506103b4610bb1565b348015610410575f5ffd5b50600754610424906001600160a01b031681565b6040516001600160a01b039091168152602001610396565b348015610447575f5ffd5b506103b47f000000000000000000000000000000000000000000000000000000000000000081565b34801561047a575f5ffd5b506002546103b4565b34801561048e575f5ffd5b506104247f000000000000000000000000000000000000000000000000000000000000000081565b3480156104c1575f5ffd5b506104d56104d03660046126c6565b610c21565b005b3480156104e2575f5ffd5b506103e16104f13660046126f0565b610ca9565b348015610501575f5ffd5b506103e161051036600461272e565b610d09565b348015610520575f5ffd5b506006546001600160a01b0316610424565b34801561053d575f5ffd5b506105657f000000000000000000000000000000000000000000000000000000000000000081565b60405160ff9091168152602001610396565b348015610582575f5ffd5b506104d561059136600461272e565b610d15565b3480156105a1575f5ffd5b506104d5610da9565b3480156105b5575f5ffd5b506103b4610dd0565b3480156105c9575f5ffd5b506103e16105d836600461278e565b610e28565b3480156105e8575f5ffd5b506104d56105f73660046127e6565b610eb5565b348015610607575f5ffd5b506104d561061636600461280d565b610f10565b348015610626575f5ffd5b506104d561063536600461272e565b610f60565b348015610645575f5ffd5b50600354610424906001600160a01b031681565b348015610664575f5ffd5b506103b460085481565b348015610679575f5ffd5b506104d561068836600461288c565b610f84565b348015610698575f5ffd5b506103b46106a736600461272e565b610fc0565b3480156106b7575f5ffd5b506103b46106c636600461272e565b610fe3565b3480156106d6575f5ffd5b506104d56106e53660046128c3565b6110ba565b3480156106f5575f5ffd5b506104d561070436600461272e565b611119565b348015610714575f5ffd5b50600654610424906001600160a01b031681565b348015610733575f5ffd5b5062ed4e006103b4565b348015610748575f5ffd5b506103b461075736600461272e565b60096020525f908152604090205481565b348015610773575f5ffd5b50600b54610424906001600160a01b031681565b348015610792575f5ffd5b506104d5611182565b3480156107a6575f5ffd5b5061038961118e565b3480156107ba575f5ffd5b50600454156103e1565b3480156107cf575f5ffd5b506104d56107de366004612902565b611220565b3480156107ee575f5ffd5b506103e16107fd36600461278e565b611232565b34801561080d575f5ffd5b506103b47f000000000000000000000000000000000000000000000000000000000000000081565b348015610840575f5ffd5b506103e161084f3660046126c6565b61125e565b34801561085f575f5ffd5b506103e161086e36600461272e565b611269565b34801561087e575f5ffd5b506104d561088d3660046126c6565b611275565b34801561089d575f5ffd5b506103e16108ac36600461272e565b611297565b3480156108bc575f5ffd5b50600554610424906001600160a01b031681565b3480156108db575f5ffd5b506103b46108ea36600461272e565b6112a3565b3480156108fa575f5ffd5b506104d561090936600461272e565b6112ad565b348015610919575f5ffd5b506104247f000000000000000000000000000000000000000000000000000000000000000081565b34801561094c575f5ffd5b506103896112e3565b348015610960575f5ffd5b506104d561096f366004612935565b61136f565b6104d561098236600461299f565b61151f565b348015610992575f5ffd5b506103b46109a136600461288c565b6116f2565b3480156109b1575f5ffd5b506104247f000000000000000000000000000000000000000000000000000000000000000081565b3480156109e4575f5ffd5b506104d56109f33660046127e6565b6116fd565b348015610a03575f5ffd5b506104d5610a123660046129e2565b61175c565b348015610a22575f5ffd5b506104d5610a3136600461272e565b61176d565b348015610a41575f5ffd5b506103b47f000000000000000000000000000000000000000000000000000000000000000081565b348015610a74575f5ffd5b506104d5610a8336600461272e565b6117a2565b348015610a93575f5ffd5b506103e1610aa2366004612902565b611805565b348015610ab2575f5ffd5b506104d5610ac136600461288c565b611810565b348015610ad1575f5ffd5b50610565600381565b60605f60035f9054906101000a90046001600160a01b03166001600160a01b03166306fdde036040518163ffffffff1660e01b81526004015f60405180830381865afa158015610b2c573d5f5f3e3d5ffd5b505050506040513d5f823e601f3d908101601f19168201604052610b539190810190612a11565b9050610b5f6004541590565b15610b8a5780604051602001610b759190612adb565b60405160208183030381529060405291505090565b80604051602001610b759190612afa565b5f610ba7338484611843565b5060015b92915050565b60035460408051633a98ef3960e01b815290515f926001600160a01b031691633a98ef399160048083019260209291908290030181865afa158015610bf8573d5f5f3e3d5ffd5b505050506040513d601f19601f82011682018060405250810190610c1c9190612b1f565b905090565b600654610c36906001600160a01b03166118a4565b610c3e610bb1565b81610c4860025490565b610c529190612b4a565b1115610c9b57610c60610bb1565b81610c6a60025490565b610c749190612b4a565b604051630429590f60e41b8152600481019290925260248201526044015b60405180910390fd5b610ca582826118cf565b5050565b5f610cb5848484611a36565b5f610cc085336116f2565b9050600160ff1b811015610cfc57610cd88382612b5d565b6001600160a01b0386165f9081526001602090815260408083203384529091529020555b60019150505b9392505050565b5f610bab826016611a9a565b610d2f610d2a6006546001600160a01b031690565b6118a4565b6040516332a7ae9560e01b81526001600160a01b0382811660048301527f000000000000000000000000000000000000000000000000000000000000000016906332a7ae95906024015b5f604051808303815f87803b158015610d90575f5ffd5b505af1158015610da2573d5f5f3e3d5ffd5b5050505050565b600554610dbe906001600160a01b03166118a4565b600580546001600160a01b0319169055565b604080517f47e79534a245952e8b16893a336b85a3d9ea9fa8c573f3d803afb92a79469218602082015246918101919091523060608201525f9060800160405160208183030381529060405280519060200120905090565b5f610e33858561125e565b8015610eac5750604051635260769b60e11b81526001600160a01b0386169063a4c0ed3690610e6c903390889088908890600401612b70565b6020604051808303815f875af1158015610e88573d5f5f3e3d5ffd5b505050506040513d601f19601f82011682018060405250810190610eac9190612bb7565b95945050505050565b610ebf3382611ad8565b6003546001600160a01b03166342966c68610eda6004541590565b610ef057600454610eeb9084612bd2565b610ef2565b825b6040518263ffffffff1660e01b8152600401610d7991815260200190565b610f18611b49565b5f5b82811015610f5a57610f52848483818110610f3757610f37612be9565b9050602002016020810190610f4c919061272e565b83611220565b600101610f1a565b50505050565b600554610f75906001600160a01b03166118a4565b610f8181600180611b76565b50565b610fad7f00000000000000000000000000000000000000000000000000000000000000006118a4565b610ca58282610fbb85610fc0565b611a36565b6001600160a01b03165f908152602081905260409020546001600160e01b031690565b5f5f610fee83611bd7565b90508015610ffc5792915050565b5f6110076004541590565b61101357600454611016565b60015b6003549091506001600160a01b0390811690851603611036579392505050565b6003546040516377e071ad60e01b81526001600160a01b038681166004830152839216906377e071ad90602401602060405180830381865afa15801561107e573d5f5f3e3d5ffd5b505050506040513d601f19601f820116820180604052508101906110a29190612b1f565b6110ac9190612bd2565b949350505050565b50919050565b6006546110cf906001600160a01b03166118a4565b600a6110dc828483612c73565b507fe9f2468ecc8d3dff15a70a5909151e6297cee4cf05268eff3d7ef0c696ec50f2600a60405161110d9190612d2d565b60405180910390a15050565b60065461112e906001600160a01b03166118a4565b600680546001600160a01b0319166001600160a01b0383169081179091556040519081527fc3977c9522c218453912bcab15964a7788968fbf3fe4d4e2965252c9f07055de9060200160405180910390a150565b61118c335f6118cf565b565b600354604080516395d89b4160e01b815290516060926001600160a01b0316916395d89b41916004808301925f9291908290030181865afa1580156111d5573d5f5f3e3d5ffd5b505050506040513d5f823e601f3d908101601f191682016040526111fc9190810190612a11565b60405160200161120c9190612db4565b604051602081830303815290604052905090565b611228611b49565b610ca58282611c1a565b6003545f90611249906001600160a01b03166118a4565b6112538585611c95565b506001949350505050565b5f610d028383611cfe565b5f610bab826014611a9a565b60035461128d906001600160a01b0316333084611d09565b610ca58282611c95565b5f610bab826015611a9a565b5f610bab82610fc0565b6112d67f00000000000000000000000000000000000000000000000000000000000000006118a4565b610f8181600a6001611b76565b600a80546112f090612bfd565b80601f016020809104026020016040519081016040528092919081815260200182805461131c90612bfd565b80156113675780601f1061133e57610100808354040283529160200191611367565b820191905f5260205f20905b81548152906001019060200180831161134a57829003601f168201915b505050505081565b4284101561139957604051630b99fc4b60e31b815260048101859052426024820152604401610c92565b5f60016113a4610dd0565b6001600160a01b038a81165f8181526009602090815260409182902080546001810190915582517f6e71edae12b1b97f4d1f60370fef10105fa2faae0126114a169c64845d6126c98184015280840194909452938d166060840152608083018c905260a083019390935260c08083018b90528151808403909101815260e08301909152805192019190912061190160f01b6101008301526101028201929092526101228101919091526101420160408051601f1981840301815282825280516020918201205f84529083018083525260ff871690820152606081018590526080810184905260a0016020604051602081039080840390855afa1580156114ac573d5f5f3e3d5ffd5b5050604051601f1901519150506001600160a01b03811615806114e15750876001600160a01b0316816001600160a01b031614155b1561150a57604051632f52260d60e11b81526001600160a01b0382166004820152602401610c92565b611515818888611843565b5050505050505050565b600161152b6004541590565b151581151514611572578015611554576040516305a34cd360e01b815260040160405180910390fd5b806115725760405163291c3d8560e01b815260040160405180910390fd5b604051634dc5e43160e01b815260048101859052336024820152604481018490526001600160a01b0383811660648301527f000000000000000000000000000000000000000000000000000000000000000060848301527f000000000000000000000000000000000000000000000000000000000000000060a48301525f917f000000000000000000000000000000000000000000000000000000000000000090911690634dc5e43190349060c40160206040518083038185885af115801561163d573d5f5f3e3d5ffd5b50505050506040513d601f19601f820116820180604052508101906116629190612dd0565b905061166c611d70565b156116cc57600554604051637b64620f60e11b81526001600160a01b0383811660048301529091169063f6c8c41e906024015f604051808303815f87803b1580156116b5575f5ffd5b505af11580156116c7573d5f5f3e3d5ffd5b505050505b600580546001600160a01b0319166001600160a01b039290921691909117905550505050565b5f610d028383611e01565b5f6117086004541590565b15158115151461174f578015611731576040516305a34cd360e01b815260040160405180910390fd5b8061174f5760405163291c3d8560e01b815260040160405180910390fd5b610ca53383600454611e0c565b611764611b49565b610f8181611e3c565b6117967f00000000000000000000000000000000000000000000000000000000000000006118a4565b610f8181600a5f611b76565b6117aa611b49565b600b546040516001600160a01b038084169216907f8be0079c531659141344cd1fd0a4f28419497f9722a3daafe3b4186f6b6457e0905f90a3600b80546001600160a01b0319166001600160a01b0392909216919091179055565b5f610d028383611a9a565b600554611825906001600160a01b03166118a4565b6118398261183284610fc0565b6001611e0c565b610ca58183611e57565b6001600160a01b038381165f8181526001602090815260408083209487168084529482529182902085905590518481527f8c5be1e5ebec7d5bd14f71427d1e84f3dd0314c0f7b2291e5b200ac8c7c3b92591015b60405180910390a3505050565b336001600160a01b03821614610f8157604051634b637e8f60e11b8152336004820152602401610c92565b5f6118d983610fc0565b6118e39083612b4a565b90505f6118ee610bb1565b90508082111561191b57604051630429590f60e41b81526004810182905260248101839052604401610c92565b611923611d70565b15611941576040516331dec02560e21b815260040160405180910390fd5b61196b7f000000000000000000000000000000000000000000000000000000000000000082612bd2565b61197761271084612bd2565b10156119d5576119a77f000000000000000000000000000000000000000000000000000000000000000082612bd2565b6119b361271084612bd2565b604051634b2737cf60e11b815260048101929092526024820152604401610c92565b6119df8485611e57565b604080516001600160a01b038616815260208101849052908101849052606081018290527f85e5711a70a7d2bae18e1232af474d82c98600b0e62fe079a28208520b58568e9060800160405180910390a150505050565b611a4183838361200c565b611a4b8382612017565b611a5582826120b2565b816001600160a01b0316836001600160a01b03167fddf252ad1be2c89b69c2b068fc378daa952ba7f163c4a11628f55a4df523b3ef8360405161189791815260200190565b5f80611aa78360e0612deb565b6001600160a01b0385165f90815260208190526040902054600160ff929092169190911b9081161491505092915050565b611ae3825f8361200c565b8060025f828254611af49190612b5d565b90915550611b0490508282612017565b6040518181525f906001600160a01b038416907fddf252ad1be2c89b69c2b068fc378daa952ba7f163c4a11628f55a4df523b3ef906020015b60405180910390a35050565b600b546001600160a01b0316331461118c576040516396a19be960e01b8152336004820152602401610c92565b5f611b828360e0612deb565b6001600160a01b0385165f90815260208190526040902054600160ff929092169190911b9150808216821483151514610da2576001600160a01b03949094165f90815260208190526040902093189092555050565b5f306001600160a01b03831603611bf057506001919050565b6007546001600160a01b0390811690831603611c0e57505060085490565b505f919050565b919050565b611c2c82601460ff8416600114611b76565b611c3e82601560ff8416600214611b76565b611c5082601660ff8416600414611b76565b60405160ff821681526001600160a01b038316907fe423d7d31023dbacefed7c937785d0012ad8f314381295efebfc0471d2c434549060200160405180910390a25050565b611ca05f838361200c565b8060025f828254611cb19190612b4a565b90915550611cc1905082826120b2565b6040518181526001600160a01b038316905f907fddf252ad1be2c89b69c2b068fc378daa952ba7f163c4a11628f55a4df523b3ef90602001611b3d565b5f610d028383612156565b6040516001600160a01b038481166024830152838116604483015260648201839052610f5a9186918216906323b872dd906084015b604051602081830303815290604052915060e01b6020820180516001600160e01b0383818316178352505050506121ef565b6005545f906001600160a01b031615801590610c1c575060055f9054906101000a90046001600160a01b03166001600160a01b0316638fe8a1016040518163ffffffff1660e01b8152600401602060405180830381865afa158015611dd7573d5f5f3e3d5ffd5b505050506040513d601f19601f82011682018060405250810190611dfb9190612bb7565b15905090565b5f610d028383612250565b611e168383611ad8565b611e3783611e248385612bd2565b6003546001600160a01b0316919061231c565b505050565b8015611e4d57610f815f6004611c1a565b610f815f5f611c1a565b6001611e636004541590565b151581151514611eaa578015611e8c576040516305a34cd360e01b815260040160405180910390fd5b80611eaa5760405163291c3d8560e01b815260040160405180910390fd5b6003546040516370a0823160e01b8152306004820152611f1a9184916001600160a01b03909116906370a0823190602401602060405180830381865afa158015611ef6573d5f5f3e3d5ffd5b505050506040513d601f19601f82011682018060405250810190611e249190612b1f565b600380546001600160a01b0319166001600160a01b0385161790556002545f1015611fc057611fc0611f4b60025490565b6040516370a0823160e01b81523060048201526001600160a01b038616906370a0823190602401602060405180830381865afa158015611f8d573d5f5f3e3d5ffd5b505050506040513d601f19601f82011682018060405250810190611fb19190612b1f565b611fbb9190612e04565b61234d565b7f6c20b91d1723b78732eba64ff11ebd7966a6e4af568a00fa4f6b72c20f58b02a611fe9610ada565b611ff161118e565b604051611fff929190612e23565b60405180910390a1505050565b611e37838383612372565b6001600160a01b0382165f908152602081905260408120549061203a8383612b5d565b90506001600160e01b031981166001600160e01b0319831614612092578361206185610fc0565b60405163391434e360e21b81526001600160a01b039092166004830152602482015260448101849052606401610c92565b6001600160a01b039093165f908152602081905260409020929092555050565b6001600160a01b0382166120e45760405163ec442f0560e01b81526001600160a01b0383166004820152602401610c92565b6001600160a01b0382165f90815260208190526040812054906121078383612b4a565b90506001600160e01b031981166001600160e01b031983161461209257604051634a2e08e560e01b81526001600160a01b03851660048201526024810183905260448101849052606401610c92565b5f61216183836124a0565b5061216d33600a611a9a565b15610ba7576040516304d301a360e41b81523360048201527f00000000000000000000000000000000000000000000000000000000000000006001600160a01b031690634d301a30906024015f604051808303815f87803b1580156121d0575f5ffd5b505af11580156121e2573d5f5f3e3d5ffd5b5050505050600192915050565b5f6122036001600160a01b038416836124ac565b905080515f141580156122275750808060200190518101906122259190612bb7565b155b15611e3757604051635274afe760e01b81526001600160a01b0384166004820152602401610c92565b604051632fb6b53160e11b81526001600160a01b03838116600483015282811660248301525f917f000000000000000000000000000000000000000000000000000000000000000090911690635f6d6a6290604401602060405180830381865afa1580156122c0573d5f5f3e3d5ffd5b505050506040513d601f19601f820116820180604052508101906122e49190612bb7565b156122f157505f19610bab565b506001600160a01b038281165f90815260016020908152604080832093851683529290522054610bab565b6040516001600160a01b03838116602483015260448201839052611e3791859182169063a9059cbb90606401611d3e565b805f0361236d57604051631dca7a7560e11b815260040160405180910390fd5b600455565b61237d8383836124b9565b61238682611297565b156123af57604051630329a43160e51b81526001600160a01b0383166004820152602401610c92565b6123b883611297565b156123ee576123c682610d09565b611e3757604051637882255360e11b81526001600160a01b0384166004820152602401610c92565b6123f782610d09565b15801561240a575061240882611269565b155b15611e375761241883611269565b156124415760405163dd1aceed60e01b81526001600160a01b0383166004820152602401610c92565b61244a83610d09565b15611e375761245c8260146001611b76565b604051600181526001600160a01b038316907fe423d7d31023dbacefed7c937785d0012ad8f314381295efebfc0471d2c434549060200160405180910390a2505050565b5f610ba7338484611a36565b6060610d0283835f6124c4565b611e378383836125b6565b606082515f141580156124df57506001600160a01b0384163b155b1561250857604051639eb1341360e01b81526001600160a01b0385166004820152602401610c92565b5f5f856001600160a01b031684866040516125239190612e47565b5f6040518083038185875af1925050503d805f811461255d576040519150601f19603f3d011682016040523d82523d5f602084013e612562565b606091505b50915091508115612576579150610d029050565b80511561258557805160208201fd5b60405162461bcd60e51b815260206004820152600660248201526519985a5b195960d21b6044820152606401610c92565b6125bf83612666565b806125ce57506125ce82612666565b15611e37576125db611d70565b1561264e5760055460405163e1a1810f60e01b81526001600160a01b0385811660048301528481166024830152604482018490529091169063e1a1810f906064015f604051808303815f87803b158015612633575f5ffd5b505af1158015612645573d5f5f3e3d5ffd5b50505050505050565b61265a8360015f611b76565b611e378260015f611b76565b5f610bab826001611a9a565b5f81518084528060208401602086015e5f602082860101526020601f19601f83011685010191505092915050565b602081525f610d026020830184612672565b6001600160a01b0381168114610f81575f5ffd5b5f5f604083850312156126d7575f5ffd5b82356126e2816126b2565b946020939093013593505050565b5f5f5f60608486031215612702575f5ffd5b833561270d816126b2565b9250602084013561271d816126b2565b929592945050506040919091013590565b5f6020828403121561273e575f5ffd5b8135610d02816126b2565b5f5f83601f840112612759575f5ffd5b50813567ffffffffffffffff811115612770575f5ffd5b602083019150836020828501011115612787575f5ffd5b9250929050565b5f5f5f5f606085870312156127a1575f5ffd5b84356127ac816126b2565b935060208501359250604085013567ffffffffffffffff8111156127ce575f5ffd5b6127da87828801612749565b95989497509550505050565b5f602082840312156127f6575f5ffd5b5035919050565b803560ff81168114611c15575f5ffd5b5f5f5f6040848603121561281f575f5ffd5b833567ffffffffffffffff811115612835575f5ffd5b8401601f81018613612845575f5ffd5b803567ffffffffffffffff81111561285b575f5ffd5b8660208260051b840101111561286f575f5ffd5b6020918201945092506128839085016127fd565b90509250925092565b5f5f6040838503121561289d575f5ffd5b82356128a8816126b2565b915060208301356128b8816126b2565b809150509250929050565b5f5f602083850312156128d4575f5ffd5b823567ffffffffffffffff8111156128ea575f5ffd5b6128f685828601612749565b90969095509350505050565b5f5f60408385031215612913575f5ffd5b823561291e816126b2565b915061292c602084016127fd565b90509250929050565b5f5f5f5f5f5f5f60e0888a03121561294b575f5ffd5b8735612956816126b2565b96506020880135612966816126b2565b95506040880135945060608801359350612982608089016127fd565b9699959850939692959460a0840135945060c09093013592915050565b5f5f5f606084860312156129b1575f5ffd5b833592506020840135915060408401356129ca816126b2565b809150509250925092565b8015158114610f81575f5ffd5b5f602082840312156129f2575f5ffd5b8135610d02816129d5565b634e487b7160e01b5f52604160045260245ffd5b5f60208284031215612a21575f5ffd5b815167ffffffffffffffff811115612a37575f5ffd5b8201601f81018413612a47575f5ffd5b805167ffffffffffffffff811115612a6157612a616129fd565b604051601f8201601f19908116603f0116810167ffffffffffffffff81118282101715612a9057612a906129fd565b604052818152828201602001861015612aa7575f5ffd5b8160208401602083015e5f91810160200191909152949350505050565b5f81518060208401855e5f93019283525090919050565b5f612ae68284612ac4565b632053484160e01b81526004019392505050565b5f612b058284612ac4565b692028577261707065642960b01b8152600a019392505050565b5f60208284031215612b2f575f5ffd5b5051919050565b634e487b7160e01b5f52601160045260245ffd5b80820180821115610bab57610bab612b36565b81810381811115610bab57610bab612b36565b6001600160a01b0385168152602081018490526060604082018190528101829052818360808301375f818301608090810191909152601f909201601f191601019392505050565b5f60208284031215612bc7575f5ffd5b8151610d02816129d5565b8082028115828204841417610bab57610bab612b36565b634e487b7160e01b5f52603260045260245ffd5b600181811c90821680612c1157607f821691505b6020821081036110b457634e487b7160e01b5f52602260045260245ffd5b601f821115611e3757805f5260205f20601f840160051c81016020851015612c545750805b601f840160051c820191505b81811015610da2575f8155600101612c60565b67ffffffffffffffff831115612c8b57612c8b6129fd565b612c9f83612c998354612bfd565b83612c2f565b5f601f841160018114612cd0575f8515612cb95750838201355b5f19600387901b1c1916600186901b178355610da2565b5f83815260208120601f198716915b82811015612cff5786850135825560209485019460019092019101612cdf565b5086821015612d1b575f1960f88860031b161c19848701351681555b505060018560011b0183555050505050565b602081525f5f8354612d3e81612bfd565b806020860152600182165f8114612d5c5760018114612d7857612da9565b60ff1983166040870152604082151560051b8701019350612da9565b865f5260205f205f5b83811015612da057815488820160400152600190910190602001612d81565b87016040019450505b509195945050505050565b5f612dbf8284612ac4565b605360f81b81526001019392505050565b5f60208284031215612de0575f5ffd5b8151610d02816126b2565b60ff8181168382160190811115610bab57610bab612b36565b5f82612e1e57634e487b7160e01b5f52601260045260245ffd5b500490565b604081525f612e356040830185612672565b8281036020840152610eac8185612672565b5f610d028284612ac456fea2646970667358221220d81ce19d6dfe9ca0fe2ff32829ee454b03b133194497832423b875eaa7cd43ee64736f6c634300081e0033a2646970667358221220dba4fe66dac08335ae98f01d54e0b26e2d677435280216a1e498a04da0292f5a64736f6c634300081e0033",
  "linkReferences": {},
  "deployedLinkReferences": {}
}