{
  "address": "0x998abeb3E57409262aE5b751f60747921B33613E",
  "abi": [
    {
      "inputs": [],
      "stateMutability": "nonpayable",
      "type": "constructor"
    },
    {
      "anonymous": false,
      "inputs": [
        {
          "indexed": true,
          "internalType": "address",
          "name": "signer",
          "type": "address"
        },
        {
          "indexed": false,
          "internalType": "uint8",
          "name": "cosignaturesNeeded",
          "type": "uint8"
        }
      ],
      "name": "SignerChange",
      "type": "event"
    },
    {
      "anonymous": false,
      "inputs": [
        {
          "indexed": true,
          "internalType": "address",
          "name": "toAddress",
          "type": "address"
        },
        {
          "indexed": false,
          "internalType": "bytes4",
          "name": "selector",
          "type": "bytes4"
        },
        {
          "indexed": false,
          "internalType": "address[]",
          "name": "signers",
          "type": "address[]"
        }
      ],
      "name": "Transacted",
      "type": "event"
    },
    {
      "inputs": [],
      "name": "MAX_INCREASE",
      "outputs": [
        {
          "internalType": "uint256",
          "name": "",
          "type": "uint256"
        }
      ],
      "stateMutability": "view",
      "type": "function"
    },
    {
      "inputs": [
        {
          "internalType": "address",
          "name": "to",
          "type": "address"
        },
        {
          "internalType": "uint256",
          "name": "value",
          "type": "uint256"
        },
        {
          "internalType": "bytes",
          "name": "data",
          "type": "bytes"
        }
      ],
      "name": "checkExecution",
      "outputs": [],
      "stateMutability": "nonpayable",
      "type": "function"
    },
    {
      "inputs": [
        {
          "internalType": "uint128",
          "name": "nonce",
          "type": "uint128"
        },
        {
          "internalType": "address",
          "name": "to",
          "type": "address"
        },
        {
          "internalType": "uint256",
          "name": "value",
          "type": "uint256"
        },
        {
          "internalType": "bytes",
          "name": "data",
          "type": "bytes"
        },
        {
          "internalType": "uint8[]",
          "name": "v",
          "type": "uint8[]"
        },
        {
          "internalType": "bytes32[]",
          "name": "r",
          "type": "bytes32[]"
        },
        {
          "internalType": "bytes32[]",
          "name": "s",
          "type": "bytes32[]"
        }
      ],
      "name": "checkSignatures",
      "outputs": [
        {
          "internalType": "address[]",
          "name": "",
          "type": "address[]"
        }
      ],
      "stateMutability": "view",
      "type": "function"
    },
    {
      "inputs": [],
      "name": "contractId",
      "outputs": [
        {
          "internalType": "bytes",
          "name": "",
          "type": "bytes"
        }
      ],
      "stateMutability": "view",
      "type": "function"
    },
    {
      "inputs": [
        {
          "internalType": "uint128",
          "name": "nonce",
          "type": "uint128"
        },
        {
          "internalType": "address",
          "name": "to",
          "type": "address"
        },
        {
          "internalType": "uint256",
          "name": "value",
          "type": "uint256"
        },
        {
          "internalType": "bytes",
          "name": "data",
          "type": "bytes"
        },
        {
          "internalType": "uint8[]",
          "name": "v",
          "type": "uint8[]"
        },
        {
          "internalType": "bytes32[]",
          "name": "r",
          "type": "bytes32[]"
        },
        {
          "internalType": "bytes32[]",
          "name": "s",
          "type": "bytes32[]"
        }
      ],
      "name": "execute",
      "outputs": [
        {
          "internalType": "bytes",
          "name": "",
          "type": "bytes"
        }
      ],
      "stateMutability": "nonpayable",
      "type": "function"
    },
    {
      "inputs": [
        {
          "internalType": "address",
          "name": "owner",
          "type": "address"
        }
      ],
      "name": "initialize",
      "outputs": [],
      "stateMutability": "nonpayable",
      "type": "function"
    },
    {
      "inputs": [
        {
          "internalType": "uint128",
          "name": "nonce",
          "type": "uint128"
        }
      ],
      "name": "isFree",
      "outputs": [
        {
          "internalType": "bool",
          "name": "",
          "type": "bool"
        }
      ],
      "stateMutability": "view",
      "type": "function"
    },
    {
      "inputs": [
        {
          "internalType": "address",
          "name": "source",
          "type": "address"
        },
        {
          "internalType": "address",
          "name": "destination",
          "type": "address"
        }
      ],
      "name": "migrate",
      "outputs": [],
      "stateMutability": "nonpayable",
      "type": "function"
    },
    {
      "inputs": [
        {
          "internalType": "address",
          "name": "destination",
          "type": "address"
        }
      ],
      "name": "migrate",
      "outputs": [],
      "stateMutability": "nonpayable",
      "type": "function"
    },
    {
      "inputs": [],
      "name": "nextNonce",
      "outputs": [
        {
          "internalType": "uint256",
          "name": "",
          "type": "uint256"
        }
      ],
      "stateMutability": "view",
      "type": "function"
    },
    {
      "inputs": [
        {
          "internalType": "address",
          "name": "signer",
          "type": "address"
        },
        {
          "internalType": "uint8",
          "name": "cosignaturesNeeded",
          "type": "uint8"
        }
      ],
      "name": "setSigner",
      "outputs": [],
      "stateMutability": "nonpayable",
      "type": "function"
    },
    {
      "inputs": [],
      "name": "signerCount",
      "outputs": [
        {
          "internalType": "uint16",
          "name": "",
          "type": "uint16"
        }
      ],
      "stateMutability": "view",
      "type": "function"
    },
    {
      "inputs": [
        {
          "internalType": "address",
          "name": "",
          "type": "address"
        }
      ],
      "name": "signers",
      "outputs": [
        {
          "internalType": "uint8",
          "name": "",
          "type": "uint8"
        }
      ],
      "stateMutability": "view",
      "type": "function"
    },
    {
      "inputs": [
        {
          "internalType": "bytes32",
          "name": "transactionHash",
          "type": "bytes32"
        },
        {
          "internalType": "uint8[]",
          "name": "v",
          "type": "uint8[]"
        },
        {
          "internalType": "bytes32[]",
          "name": "r",
          "type": "bytes32[]"
        },
        {
          "internalType": "bytes32[]",
          "name": "s",
          "type": "bytes32[]"
        }
      ],
      "name": "verifySignatures",
      "outputs": [
        {
          "internalType": "address[]",
          "name": "",
          "type": "address[]"
        }
      ],
      "stateMutability": "view",
      "type": "function"
    },
    {
      "stateMutability": "payable",
      "type": "receive"
    }
  ],
  "transactionHash": "0xde06315ab8784fad0ec3b1229ec5598c65247273aeb22c8db6044c7cdb8a1dd9",
  "args": [],
  "solcInputHash": "fd870869e27fbe5d74fc8fc7a9ddf640",
  "bytecode": "0x608060405234801561001057600080fd5b506080600055611fdd806100256000396000f3fe6080604052600436106100e15760003560e01c8063b5fe51631161007f578063cb6367d111610059578063cb6367d11461027d578063ce5494bb146102aa578063d69c3d30146102ca578063ecec0dfd146102df57600080fd5b8063b5fe51631461020d578063b6e404de1461023d578063c4d66de81461025d57600080fd5b8063736c0d5b116100bb578063736c0d5b146101655780637ca548c6146101a75780637cedbb80146101d55780638291286c146101f857600080fd5b80630f43d678146100ed5780631068361f1461010f57806348753d001461012f57600080fd5b366100e857005b600080fd5b3480156100f957600080fd5b5061010d6101083660046119cb565b6102ff565b005b34801561011b57600080fd5b5061010d61012a36600461193e565b61037f565b34801561013b57600080fd5b5061014f61014a366004611ab4565b6103e6565b60405161015c9190611c86565b60405180910390f35b34801561017157600080fd5b50610195610180366004611923565b60026020526000908152604090205460ff1681565b60405160ff909116815260200161015c565b3480156101b357600080fd5b506003546101c29061ffff1681565b60405161ffff909116815260200161015c565b3480156101e157600080fd5b506101ea606481565b60405190815260200161015c565b34801561020457600080fd5b5061014f610551565b34801561021957600080fd5b5061022d610228366004611a99565b6105df565b604051901515815260200161015c565b34801561024957600080fd5b5061010d610258366004611971565b610623565b34801561026957600080fd5b5061010d610278366004611923565b6106b4565b34801561028957600080fd5b5061029d6102983660046119f5565b610796565b60405161015c9190611c51565b3480156102b657600080fd5b5061010d6102c5366004611923565b610979565b3480156102d657600080fd5b506101ea610986565b3480156102eb57600080fd5b5061029d6102fa366004611ab4565b6109a3565b3033148061031f57503360009081526002602052604090205460ff166001145b6103615760405162461bcd60e51b815260206004820152600e60248201526d1b9bdd08185d5d1a1bdc9a5e995960921b60448201526064015b60405180910390fd5b61036b82826109da565b60035461ffff1661037b57600080fd5b5050565b3033148061039f57503360009081526002602052604090205460ff166001145b6103dc5760405162461bcd60e51b815260206004820152600e60248201526d1b9bdd08185d5d1a1bdc9a5e995960921b6044820152606401610358565b61037b8282610b2a565b606060006104828d600480546103fb90611e9a565b80601f016020809104026020016040519081016040528092919081815260200182805461042790611e9a565b80156104745780601f1061044957610100808354040283529160200191610474565b820191906000526020600020905b81548152906001019060200180831161045757829003601f168201915b50505050508e8e8e8e610b82565b90506000610495828a8a8a8a8a8a610796565b905060006104e88e8d8d8080601f016020809104026020016040519081016040528093929190818152602001838380828437600081840152601f19601f820116905080830192505050505050508f610e04565b90506104f38f610e32565b8d6001600160a01b03167f64ada3f9bcd41ebd407b399dc401184273a19bc294825172626af05a15c95d256105288e8e610f0e565b84604051610537929190611c64565b60405180910390a29e9d5050505050505050505050505050565b6004805461055e90611e9a565b80601f016020809104026020016040519081016040528092919081815260200182805461058a90611e9a565b80156105d75780601f106105ac576101008083540402835291602001916105d7565b820191906000526020600020905b8154815290600101906020018083116105ba57829003601f168201915b505050505081565b6000806105eb60005490565b90506105f78184610fca565b8061061c575061061c8161060d60005460801c90565b856001600160801b031661100f565b9392505050565b6106658483838080601f016020809104026020016040519081016040528093929190818152602001838380828437600092019190915250889250610e04915050565b5060405162461bcd60e51b815260206004820152601760248201527f54657374207061737365642e20526576657274696e672e0000000000000000006044820152606401610358565b50505050565b600154610100900460ff16806106cd575060015460ff16155b6107305760405162461bcd60e51b815260206004820152602e60248201527f496e697469616c697a61626c653a20636f6e747261637420697320616c72656160448201526d191e481a5b9a5d1a585b1a5e995960921b6064820152608401610358565b600154610100900460ff16158015610752576001805461ffff19166101011790555b6107613063ffffffff16611064565b8051610775916004916020909101906117b8565b506107818260016109da565b801561037b576001805461ff00191690555050565b606060008467ffffffffffffffff8111156107b3576107b3611f68565b6040519080825280602002602001820160405280156107dc578160200160208202803683370190505b50905060005b8581101561096357600060018b8b8b8581811061080157610801611f52565b90506020020160208101906108169190611baa565b8a8a8681811061082857610828611f52565b9050602002013589898781811061084157610841611f52565b905060200201356040516000815260200160405260405161087e949392919093845260ff9290921660208401526040830152606082015260800190565b6020604051602081039080840390855afa1580156108a0573d6000803e3d6000fd5b505060408051601f1901516001600160a01b03811660009081526002602052919091205490925060ff16905080158015906108de575060ff81168810155b61091b5760405162461bcd60e51b815260206004820152600e60248201526d31b7b9b4b3b732b91032b93937b960911b6044820152606401610358565b8184848151811061092e5761092e611f52565b60200260200101906001600160a01b031690816001600160a01b0316815250505050808061095b90611ef7565b9150506107e2565b5061096d81611133565b98975050505050505050565b6109833382610b2a565b50565b60008054610995906001611c99565b6001600160801b0316905090565b606060006109b88d600480546103fb90611e9a565b90506109c981898989898989610796565b9d9c50505050505050505050505050565b813b15610a295760405162461bcd60e51b815260206004820152601b60248201527f7369676e65722063616e6e6f74206265206120636f6e747261637400000000006044820152606401610358565b6001600160a01b0382166000908152600260205260409020805460ff83811660ff19831617909255168015801590610a62575060ff8216155b15610a9b576003805461ffff16906000610a7b83611e65565b91906101000a81548161ffff021916908361ffff16021790555050610ae4565b60ff8116158015610aaf575060008260ff16115b15610ae4576003805461ffff16906000610ac883611ed5565b91906101000a81548161ffff021916908361ffff160217905550505b60405160ff831681526001600160a01b038416907f7f00bf87056fc9622b70d830cce34aa24d6c12881ebbc71d3bf22d0c5ae295b79060200160405180910390a2505050565b6001600160a01b03811660009081526002602052604090205460ff1615610b5057600080fd5b6001600160a01b038216600090815260026020526040902054610b7790829060ff166109da565b61037b8260006109da565b6040805160098082526101408201909252600091829190816020015b6060815260200190600190039081610b9e579050509050610bc7886001600160801b0316611064565b81600081518110610bda57610bda611f52565b60200260200101819052508681600181518110610bf957610bf9611f52565b6020026020010181905250610c0f615208611064565b81600281518110610c2257610c22611f52565b602002602001018190525085604051602001610c56919060609190911b6bffffffffffffffffffffffff1916815260140190565b60405160208183030381529060405281600381518110610c7857610c78611f52565b6020026020010181905250610c8c85611064565b81600481518110610c9f57610c9f611f52565b602002602001018190525083838080601f016020809104026020016040519081016040528093929190818152602001838380828437600092019190915250508351849250600591508110610cf557610cf5611f52565b6020026020010181905250610d0946611064565b81600681518110610d1c57610d1c611f52565b6020026020010181905250610d316000611064565b81600781518110610d4457610d44611f52565b602002602001018190525060005b6008811015610dad57610d7d828281518110610d7057610d70611f52565b6020026020010151611207565b828281518110610d8f57610d8f611f52565b60200260200101819052508080610da590611ef7565b915050610d52565b5080600781518110610dc157610dc1611f52565b602002602001015181600881518110610ddc57610ddc611f52565b6020026020010181905250610df081611257565b805190602001209150509695505050505050565b6060610e2a848484604051806060016040528060298152602001611f7f6029913961127b565b949350505050565b60005480608081901c610e458285610fca565b15610ea257610e9d846001610e5a8583611dfa565b610e649190611dfa565b6001600160801b0319600185811b6ffffffffffffffffffffffffffffffffe16176001600160801b039283161b60801b16911617600055565b6106ae565b610eb68282866001600160801b031661100f565b156100e857610e9d826001610ecb8783611dfa565b610ed59190611dfa565b6001600160801b03166001901b836001600160801b0316176001600160801b031960809190911b166001600160801b0390911617600055565b60006004821015610f2157506000610fc4565b601883836003818110610f3657610f36611f52565b909101356001600160f81b03191690911c9050601084846002818110610f5e57610f5e611f52565b909101356001600160f81b03191690911c9050600885856001818110610f8657610f86611f52565b909101356001600160f81b03191690911c90508585600081610faa57610faa611f52565b9050013560f81c60f81b6001600160f81b03191617171790505b92915050565b6000826001600160801b0316826001600160801b031611801561061c5750610ffc60646001600160801b038516611cc4565b826001600160801b031611159392505050565b600080611025836001600160801b038716611e22565b9050600081118015611038575060808111155b801561105b57506001600160801b038416611054600183611e22565b6001901b16155b95945050505050565b6060600060015b8084106110875760081b8161107f81611ef7565b92505061106b565b508260008267ffffffffffffffff8111156110a4576110a4611f68565b6040519080825280601f01601f1916602001820160405280156110ce576020820181803683370190505b509050825b801561112a5760f883901b826110ea600184611e22565b815181106110fa576110fa611f52565b60200101906001600160f81b031916908160001a90535060089290921c918061112281611e83565b9150506110d3565b50949350505050565b60005b815181101561037b57600061114c826001611cc4565b90505b82518110156111f45782818151811061116a5761116a611f52565b60200260200101516001600160a01b031683838151811061118d5761118d611f52565b60200260200101516001600160a01b031614156111e25760405162461bcd60e51b81526020600482015260136024820152726475706c6963617465207369676e617475726560681b6044820152606401610358565b806111ec81611ef7565b91505061114f565b50806111ff81611ef7565b915050611136565b60608082516001148015611236575060808360008151811061122b5761122b611f52565b016020015160f81c11155b15611242575081610fc4565b61061c611251845160806113a3565b8461155a565b60606000611264836115d7565b905061061c611275825160c06113a3565b8261155a565b6060824710156112dc5760405162461bcd60e51b815260206004820152602660248201527f416464726573733a20696e73756666696369656e742062616c616e636520666f6044820152651c8818d85b1b60d21b6064820152608401610358565b843b61132a5760405162461bcd60e51b815260206004820152601d60248201527f416464726573733a2063616c6c20746f206e6f6e2d636f6e74726163740000006044820152606401610358565b600080866001600160a01b031685876040516113469190611c35565b60006040518083038185875af1925050503d8060008114611383576040519150601f19603f3d011682016040523d82523d6000602084013e611388565b606091505b5091509150611398828286611707565b979650505050505050565b606080603884101561140d57604080516001808252818301909252906020820181803683370190505090506113d88385611cc4565b601f1a60f81b816000815181106113f1576113f1611f52565b60200101906001600160f81b031916908160001a90535061061c565b600060015b61141c8187611cdc565b15611442578161142b81611ef7565b925061143b905061010082611ddb565b9050611412565b61144d826001611cc4565b67ffffffffffffffff81111561146557611465611f68565b6040519080825280601f01601f19166020018201604052801561148f576020820181803683370190505b50925061149c8583611cc4565b6114a7906037611cc4565b601f1a60f81b836000815181106114c0576114c0611f52565b60200101906001600160f81b031916908160001a905350600190505b818111611551576101006114f08284611e22565b6114fc90610100611d33565b6115069088611cdc565b6115109190611f12565b601f1a60f81b83828151811061152857611528611f52565b60200101906001600160f81b031916908160001a9053508061154981611ef7565b9150506114dc565b50509392505050565b6060806040519050835180825260208201818101602087015b8183101561158b578051835260209283019201611573565b50855184518101855292509050808201602086015b818310156115b85780518352602092830192016115a0565b508651929092011591909101601f01601f191660405250905092915050565b60608151600014156115f757505060408051600081526020810190915290565b6000805b835181101561163e5783818151811061161657611616611f52565b6020026020010151518261162a9190611cc4565b91508061163681611ef7565b9150506115fb565b60008267ffffffffffffffff81111561165957611659611f68565b6040519080825280601f01601f191660200182016040528015611683576020820181803683370190505b50600092509050602081015b855183101561112a5760008684815181106116ac576116ac611f52565b6020026020010151905060006020820190506116ca83828451611740565b8785815181106116dc576116dc611f52565b602002602001015151836116f09190611cc4565b9250505082806116ff90611ef7565b93505061168f565b6060831561171657508161061c565b8251156117265782518084602001fd5b8160405162461bcd60e51b81526004016103589190611c86565b8282825b6020811061177c578151835261175b602084611cc4565b9250611768602083611cc4565b9150611775602082611e22565b9050611744565b6000600161178b836020611e22565b61179790610100611d33565b6117a19190611e22565b925184518416931916929092179092525050505050565b8280546117c490611e9a565b90600052602060002090601f0160209004810192826117e6576000855561182c565b82601f106117ff57805160ff191683800117855561182c565b8280016001018555821561182c579182015b8281111561182c578251825591602001919060010190611811565b5061183892915061183c565b5090565b5b80821115611838576000815560010161183d565b80356001600160a01b038116811461186857600080fd5b919050565b60008083601f84011261187f57600080fd5b50813567ffffffffffffffff81111561189757600080fd5b6020830191508360208260051b85010111156118b257600080fd5b9250929050565b60008083601f8401126118cb57600080fd5b50813567ffffffffffffffff8111156118e357600080fd5b6020830191508360208285010111156118b257600080fd5b80356001600160801b038116811461186857600080fd5b803560ff8116811461186857600080fd5b60006020828403121561193557600080fd5b61061c82611851565b6000806040838503121561195157600080fd5b61195a83611851565b915061196860208401611851565b90509250929050565b6000806000806060858703121561198757600080fd5b61199085611851565b935060208501359250604085013567ffffffffffffffff8111156119b357600080fd5b6119bf878288016118b9565b95989497509550505050565b600080604083850312156119de57600080fd5b6119e783611851565b915061196860208401611912565b60008060008060008060006080888a031215611a1057600080fd5b87359650602088013567ffffffffffffffff80821115611a2f57600080fd5b611a3b8b838c0161186d565b909850965060408a0135915080821115611a5457600080fd5b611a608b838c0161186d565b909650945060608a0135915080821115611a7957600080fd5b50611a868a828b0161186d565b989b979a50959850939692959293505050565b600060208284031215611aab57600080fd5b61061c826118fb565b600080600080600080600080600080600060e08c8e031215611ad557600080fd5b611ade8c6118fb565b9a50611aec60208d01611851565b995060408c0135985067ffffffffffffffff8060608e01351115611b0f57600080fd5b611b1f8e60608f01358f016118b9565b909950975060808d0135811015611b3557600080fd5b611b458e60808f01358f0161186d565b909750955060a08d0135811015611b5b57600080fd5b611b6b8e60a08f01358f0161186d565b909550935060c08d0135811015611b8157600080fd5b50611b928d60c08e01358e0161186d565b81935080925050509295989b509295989b9093969950565b600060208284031215611bbc57600080fd5b61061c82611912565b600081518084526020808501945080840160005b83811015611bfe5781516001600160a01b031687529582019590820190600101611bd9565b509495945050505050565b60008151808452611c21816020860160208601611e39565b601f01601f19169290920160200192915050565b60008251611c47818460208701611e39565b9190910192915050565b60208152600061061c6020830184611bc5565b63ffffffff60e01b83168152604060208201526000610e2a6040830184611bc5565b60208152600061061c6020830184611c09565b60006001600160801b03808316818516808303821115611cbb57611cbb611f26565b01949350505050565b60008219821115611cd757611cd7611f26565b500190565b600082611ceb57611ceb611f3c565b500490565b600181815b80851115611d2b578160001904821115611d1157611d11611f26565b80851615611d1e57918102915b93841c9390800290611cf5565b509250929050565b600061061c8383600082611d4957506001610fc4565b81611d5657506000610fc4565b8160018114611d6c5760028114611d7657611d92565b6001915050610fc4565b60ff841115611d8757611d87611f26565b50506001821b610fc4565b5060208310610133831016604e8410600b8410161715611db5575081810a610fc4565b611dbf8383611cf0565b8060001904821115611dd357611dd3611f26565b029392505050565b6000816000190483118215151615611df557611df5611f26565b500290565b60006001600160801b0383811690831681811015611e1a57611e1a611f26565b039392505050565b600082821015611e3457611e34611f26565b500390565b60005b83811015611e54578181015183820152602001611e3c565b838111156106ae5750506000910152565b600061ffff821680611e7957611e79611f26565b6000190192915050565b600081611e9257611e92611f26565b506000190190565b600181811c90821680611eae57607f821691505b60208210811415611ecf57634e487b7160e01b600052602260045260246000fd5b50919050565b600061ffff80831681811415611eed57611eed611f26565b6001019392505050565b6000600019821415611f0b57611f0b611f26565b5060010190565b600082611f2157611f21611f3c565b500690565b634e487b7160e01b600052601160045260246000fd5b634e487b7160e01b600052601260045260246000fd5b634e487b7160e01b600052603260045260246000fd5b634e487b7160e01b600052604160045260246000fdfe416464726573733a206c6f772d6c6576656c2063616c6c20776974682076616c7565206661696c6564a2646970667358221220441b356c12cfc3a258a16be3c582505d64cf79b2f39fe7fd8363d7fc3e03a0fd64736f6c63430008070033",
  "devdoc": {
    "kind": "dev",
    "methods": {},
    "version": 1
  },
  "userdoc": {
    "kind": "user",
    "methods": {
      "checkExecution(address,uint256,bytes)": {
        "notice": "Checks if the execution of a transaction would succeed if it was properly signed."
      },
      "checkSignatures(uint128,address,uint256,bytes,uint8[],bytes32[],bytes32[])": {
        "notice": "Checks if the provided signatures suffice to sign the transaction and if the nonce is correct."
      },
      "isFree(uint128)": {
        "notice": "Returns whether the provided nonce can be used. For the 100 nonces in the interval [nextNonce(), nextNonce + 99], this is always true. For the nonces in the interval [nextNonce() - 129, nextNonce() - 1], this is true for the nonces that have not been used yet."
      },
      "nextNonce()": {
        "notice": "The next recommended nonce, which is the highest nonce ever used plus one."
      },
      "setSigner(address,uint8)": {
        "notice": "Call this method through execute"
      }
    },
    "version": 1
  },
  "storageLayout": {
    "storage": [
      {
        "astId": 10138,
        "contract": "src/multisig/MultiSigWallet.sol:MultiSigWallet",
        "label": "compound",
        "offset": 0,
        "slot": "0",
        "type": "t_uint256"
      },
      {
        "astId": 85,
        "contract": "src/multisig/MultiSigWallet.sol:MultiSigWallet",
        "label": "_initialized",
        "offset": 0,
        "slot": "1",
        "type": "t_bool"
      },
      {
        "astId": 88,
        "contract": "src/multisig/MultiSigWallet.sol:MultiSigWallet",
        "label": "_initializing",
        "offset": 1,
        "slot": "1",
        "type": "t_bool"
      },
      {
        "astId": 3145,
        "contract": "src/multisig/MultiSigWallet.sol:MultiSigWallet",
        "label": "signers",
        "offset": 0,
        "slot": "2",
        "type": "t_mapping(t_address,t_uint8)"
      },
      {
        "astId": 3147,
        "contract": "src/multisig/MultiSigWallet.sol:MultiSigWallet",
        "label": "signerCount",
        "offset": 0,
        "slot": "3",
        "type": "t_uint16"
      },
      {
        "astId": 3149,
        "contract": "src/multisig/MultiSigWallet.sol:MultiSigWallet",
        "label": "contractId",
        "offset": 0,
        "slot": "4",
        "type": "t_bytes_storage"
      }
    ],
    "types": {
      "t_address": {
        "encoding": "inplace",
        "label": "address",
        "numberOfBytes": "20"
      },
      "t_bool": {
        "encoding": "inplace",
        "label": "bool",
        "numberOfBytes": "1"
      },
      "t_bytes_storage": {
        "encoding": "bytes",
        "label": "bytes",
        "numberOfBytes": "32"
      },
      "t_mapping(t_address,t_uint8)": {
        "encoding": "mapping",
        "key": "t_address",
        "label": "mapping(address => uint8)",
        "numberOfBytes": "32",
        "value": "t_uint8"
      },
      "t_uint16": {
        "encoding": "inplace",
        "label": "uint16",
        "numberOfBytes": "2"
      },
      "t_uint256": {
        "encoding": "inplace",
        "label": "uint256",
        "numberOfBytes": "32"
      },
      "t_uint8": {
        "encoding": "inplace",
        "label": "uint8",
        "numberOfBytes": "1"
      }
    }
  }
}