{
  "_format": "hh-sol-artifact-1",
  "contractName": "InterestRateNone",
  "sourceName": "ext/XCHF.sol",
  "abi": [
    {
      "constant": true,
      "inputs": [],
      "name": "SCALEFACTOR",
      "outputs": [
        {
          "name": "",
          "type": "uint256"
        }
      ],
      "payable": false,
      "stateMutability": "view",
      "type": "function"
    },
    {
      "constant": true,
      "inputs": [],
      "name": "getCurrentCompoundingLevel",
      "outputs": [
        {
          "name": "",
          "type": "uint256"
        }
      ],
      "payable": false,
      "stateMutability": "view",
      "type": "function"
    },
    {
      "constant": true,
      "inputs": [
        {
          "name": "",
          "type": "uint256"
        }
      ],
      "name": "getCompoundingLevelDate",
      "outputs": [
        {
          "name": "",
          "type": "uint256"
        }
      ],
      "payable": false,
      "stateMutability": "view",
      "type": "function"
    }
  ],
  "bytecode": "0x608060405234801561001057600080fd5b5060f38061001f6000396000f30060806040526004361060525763ffffffff7c01000000000000000000000000000000000000000000000000000000006000350416639395b0bd81146057578063a1d1fe5d14607b578063e7f0edca14608d575b600080fd5b348015606257600080fd5b50606960a2565b60408051918252519081900360200190f35b348015608657600080fd5b50606960ae565b348015609857600080fd5b50606960043560ba565b670de0b6b3a764000081565b670de0b6b3a764000090565b50670de0b6b3a7640000905600a165627a7a72305820bac87d1f0b4e0a8e5e4e83b69df9f4e23fec2f5f4514fc9b3e599b77771421930029",
  "linkReferences": {},
  "deployedLinkReferences": {}
}