{
  "_format": "hh-sol-artifact-1",
  "contractName": "Operator",
  "sourceName": "ext/XCHF.sol",
  "abi": [
    {
      "constant": false,
      "inputs": [
        {
          "name": "_newOperator",
          "type": "address"
        }
      ],
      "name": "transferOperator",
      "outputs": [],
      "payable": false,
      "stateMutability": "nonpayable",
      "type": "function"
    },
    {
      "constant": true,
      "inputs": [],
      "name": "operator",
      "outputs": [
        {
          "name": "",
          "type": "address"
        }
      ],
      "payable": false,
      "stateMutability": "view",
      "type": "function"
    },
    {
      "constant": false,
      "inputs": [],
      "name": "acceptOwnership",
      "outputs": [],
      "payable": false,
      "stateMutability": "nonpayable",
      "type": "function"
    },
    {
      "constant": true,
      "inputs": [],
      "name": "owner",
      "outputs": [
        {
          "name": "",
          "type": "address"
        }
      ],
      "payable": false,
      "stateMutability": "view",
      "type": "function"
    },
    {
      "constant": true,
      "inputs": [],
      "name": "newOwner",
      "outputs": [
        {
          "name": "",
          "type": "address"
        }
      ],
      "payable": false,
      "stateMutability": "view",
      "type": "function"
    },
    {
      "constant": false,
      "inputs": [
        {
          "name": "_newOwner",
          "type": "address"
        }
      ],
      "name": "transferOwnership",
      "outputs": [],
      "payable": false,
      "stateMutability": "nonpayable",
      "type": "function"
    },
    {
      "inputs": [],
      "payable": false,
      "stateMutability": "nonpayable",
      "type": "constructor"
    },
    {
      "anonymous": false,
      "inputs": [
        {
          "indexed": true,
          "name": "from",
          "type": "address"
        },
        {
          "indexed": true,
          "name": "to",
          "type": "address"
        }
      ],
      "name": "TransferOperator",
      "type": "event"
    },
    {
      "anonymous": false,
      "inputs": [
        {
          "indexed": true,
          "name": "previousOwner",
          "type": "address"
        },
        {
          "indexed": true,
          "name": "newOwner",
          "type": "address"
        }
      ],
      "name": "OwnershipTransferred",
      "type": "event"
    }
  ],
  "bytecode": "0x608060405234801561001057600080fd5b506000805433600160a060020a0319918216811783556002805490921617905561046d90819061004090396000f3006080604052600436106100775763ffffffff7c010000000000000000000000000000000000000000000000000000000060003504166329605e77811461007c578063570ca7351461009f57806379ba5097146100d05780638da5cb5b146100e5578063d4ee1d90146100fa578063f2fde38b1461010f575b600080fd5b34801561008857600080fd5b5061009d600160a060020a0360043516610130565b005b3480156100ab57600080fd5b506100b4610251565b60408051600160a060020a039092168252519081900360200190f35b3480156100dc57600080fd5b5061009d610260565b3480156100f157600080fd5b506100b4610330565b34801561010657600080fd5b506100b461033f565b34801561011b57600080fd5b5061009d600160a060020a036004351661034e565b80600160a060020a0381161515610191576040805160e560020a62461bcd02815260206004820152600f60248201527f61646472657373206973204e756c6c0000000000000000000000000000000000604482015290519081900360640190fd5b600054600160a060020a031633146101f3576040805160e560020a62461bcd02815260206004820152600a60248201527f4f6e6c79204f776e657200000000000000000000000000000000000000000000604482015290519081900360640190fd5b6002805473ffffffffffffffffffffffffffffffffffffffff1916600160a060020a0384811691821792839055604051919216907fa3fa0a434ea340b210144ceac453176b4e181b4467d8692e7144a6b0ab4ac07690600090a35050565b600254600160a060020a031681565b600154600090600160a060020a031633146102c5576040805160e560020a62461bcd02815260206004820152600e60248201527f4f6e6c79204e6577204f776e6572000000000000000000000000000000000000604482015290519081900360640190fd5b506000805460018054600160a060020a0380821673ffffffffffffffffffffffffffffffffffffffff198086169190911780875592169092556040519282169391169183917f8be0079c531659141344cd1fd0a4f28419497f9722a3daafe3b4186f6b6457e091a350565b600054600160a060020a031681565b600154600160a060020a031681565b80600160a060020a03811615156103af576040805160e560020a62461bcd02815260206004820152600f60248201527f61646472657373206973204e756c6c0000000000000000000000000000000000604482015290519081900360640190fd5b600054600160a060020a03163314610411576040805160e560020a62461bcd02815260206004820152600a60248201527f4f6e6c79204f776e657200000000000000000000000000000000000000000000604482015290519081900360640190fd5b506001805473ffffffffffffffffffffffffffffffffffffffff1916600160a060020a03929092169190911790555600a165627a7a72305820e271f4ff5c5e85e9f1054cf87d331b603173abeb865d37c8e3f737f5ec57a3ee0029",
  "linkReferences": {},
  "deployedLinkReferences": {}
}