{
  "_format": "hh-sol-artifact-1",
  "contractName": "Pausable",
  "sourceName": "ext/XCHF.sol",
  "abi": [
    {
      "constant": false,
      "inputs": [],
      "name": "unpause",
      "outputs": [],
      "payable": false,
      "stateMutability": "nonpayable",
      "type": "function"
    },
    {
      "constant": true,
      "inputs": [],
      "name": "paused",
      "outputs": [
        {
          "name": "",
          "type": "bool"
        }
      ],
      "payable": false,
      "stateMutability": "view",
      "type": "function"
    },
    {
      "constant": false,
      "inputs": [],
      "name": "acceptOwnership",
      "outputs": [],
      "payable": false,
      "stateMutability": "nonpayable",
      "type": "function"
    },
    {
      "constant": false,
      "inputs": [],
      "name": "pause",
      "outputs": [],
      "payable": false,
      "stateMutability": "nonpayable",
      "type": "function"
    },
    {
      "constant": true,
      "inputs": [],
      "name": "owner",
      "outputs": [
        {
          "name": "",
          "type": "address"
        }
      ],
      "payable": false,
      "stateMutability": "view",
      "type": "function"
    },
    {
      "constant": true,
      "inputs": [],
      "name": "newOwner",
      "outputs": [
        {
          "name": "",
          "type": "address"
        }
      ],
      "payable": false,
      "stateMutability": "view",
      "type": "function"
    },
    {
      "constant": false,
      "inputs": [
        {
          "name": "_newOwner",
          "type": "address"
        }
      ],
      "name": "transferOwnership",
      "outputs": [],
      "payable": false,
      "stateMutability": "nonpayable",
      "type": "function"
    },
    {
      "anonymous": false,
      "inputs": [],
      "name": "Pause",
      "type": "event"
    },
    {
      "anonymous": false,
      "inputs": [],
      "name": "Unpause",
      "type": "event"
    },
    {
      "anonymous": false,
      "inputs": [
        {
          "indexed": true,
          "name": "previousOwner",
          "type": "address"
        },
        {
          "indexed": true,
          "name": "newOwner",
          "type": "address"
        }
      ],
      "name": "OwnershipTransferred",
      "type": "event"
    }
  ],
  "bytecode": "0x60806040526001805460a060020a60ff021916905560008054600160a060020a031916331790556105da806100356000396000f3006080604052600436106100825763ffffffff7c01000000000000000000000000000000000000000000000000000000006000350416633f4ba83a81146100875780635c975abb1461009e57806379ba5097146100c75780638456cb59146100dc5780638da5cb5b146100f1578063d4ee1d9014610122578063f2fde38b14610137575b600080fd5b34801561009357600080fd5b5061009c610158565b005b3480156100aa57600080fd5b506100b3610277565b604080519115158252519081900360200190f35b3480156100d357600080fd5b5061009c610298565b3480156100e857600080fd5b5061009c610368565b3480156100fd57600080fd5b5061010661049d565b60408051600160a060020a039092168252519081900360200190f35b34801561012e57600080fd5b506101066104ac565b34801561014357600080fd5b5061009c600160a060020a03600435166104bb565b600054600160a060020a031633146101ba576040805160e560020a62461bcd02815260206004820152600a60248201527f4f6e6c79204f776e657200000000000000000000000000000000000000000000604482015290519081900360640190fd5b60015474010000000000000000000000000000000000000000900460ff16151561022e576040805160e560020a62461bcd02815260206004820152601060248201527f6f6e6c79207768656e2070617573656400000000000000000000000000000000604482015290519081900360640190fd5b6001805474ff0000000000000000000000000000000000000000191690556040517f7805862f689e2f13df9f062ff482ad3ad112aca9e0847911ed832e158c525b3390600090a1565b60015474010000000000000000000000000000000000000000900460ff1681565b600154600090600160a060020a031633146102fd576040805160e560020a62461bcd02815260206004820152600e60248201527f4f6e6c79204e6577204f776e6572000000000000000000000000000000000000604482015290519081900360640190fd5b506000805460018054600160a060020a0380821673ffffffffffffffffffffffffffffffffffffffff198086169190911780875592169092556040519282169391169183917f8be0079c531659141344cd1fd0a4f28419497f9722a3daafe3b4186f6b6457e091a350565b600054600160a060020a031633146103ca576040805160e560020a62461bcd02815260206004820152600a60248201527f4f6e6c79204f776e657200000000000000000000000000000000000000000000604482015290519081900360640190fd5b60015474010000000000000000000000000000000000000000900460ff161561043d576040805160e560020a62461bcd02815260206004820152601460248201527f6f6e6c79207768656e206e6f7420706175736564000000000000000000000000604482015290519081900360640190fd5b6001805474ff00000000000000000000000000000000000000001916740100000000000000000000000000000000000000001790556040517f6985a02210a168e66602d3235cb6db0e70f92b3ba4d376a33c0f3d9434bff62590600090a1565b600054600160a060020a031681565b600154600160a060020a031681565b80600160a060020a038116151561051c576040805160e560020a62461bcd02815260206004820152600f60248201527f61646472657373206973204e756c6c0000000000000000000000000000000000604482015290519081900360640190fd5b600054600160a060020a0316331461057e576040805160e560020a62461bcd02815260206004820152600a60248201527f4f6e6c79204f776e657200000000000000000000000000000000000000000000604482015290519081900360640190fd5b506001805473ffffffffffffffffffffffffffffffffffffffff1916600160a060020a03929092169190911790555600a165627a7a72305820ff4c36a0dd7aad57b5c0d4157cfc8b9fca233313b7017a2ca5b17f44dc3b1c860029",
  "linkReferences": {},
  "deployedLinkReferences": {}
}