{
  "address": "0xF08c085748711078C32338e3356c0E533a4a22aC",
  "abi": [
    {
      "inputs": [
        {
          "internalType": "contract IERC20Permit",
          "name": "_token",
          "type": "address"
        },
        {
          "internalType": "uint256",
          "name": "_price",
          "type": "uint256"
        },
        {
          "internalType": "uint256",
          "name": "_increment",
          "type": "uint256"
        },
        {
          "internalType": "contract IERC20",
          "name": "_base",
          "type": "address"
        },
        {
          "internalType": "address",
          "name": "_owner",
          "type": "address"
        },
        {
          "internalType": "address",
          "name": "_paymentHub",
          "type": "address"
        }
      ],
      "stateMutability": "nonpayable",
      "type": "constructor"
    },
    {
      "inputs": [
        {
          "internalType": "address",
          "name": "target",
          "type": "address"
        }
      ],
      "name": "Address_NotTransferNorContract",
      "type": "error"
    },
    {
      "inputs": [],
      "name": "Brokerbot_BuyingDisabled",
      "type": "error"
    },
    {
      "inputs": [
        {
          "internalType": "address",
          "name": "sender",
          "type": "address"
        }
      ],
      "name": "Brokerbot_InvalidSender",
      "type": "error"
    },
    {
      "inputs": [
        {
          "internalType": "address",
          "name": "sender",
          "type": "address"
        }
      ],
      "name": "Brokerbot_NotAuthorized",
      "type": "error"
    },
    {
      "inputs": [],
      "name": "Brokerbot_SellingDisabled",
      "type": "error"
    },
    {
      "inputs": [
        {
          "internalType": "address",
          "name": "target",
          "type": "address"
        },
        {
          "internalType": "uint256",
          "name": "amount",
          "type": "uint256"
        }
      ],
      "name": "Brokerbot_WithdrawFailed",
      "type": "error"
    },
    {
      "inputs": [
        {
          "internalType": "address",
          "name": "sender",
          "type": "address"
        }
      ],
      "name": "Ownable_NotOwner",
      "type": "error"
    },
    {
      "inputs": [
        {
          "internalType": "address",
          "name": "token",
          "type": "address"
        }
      ],
      "name": "SafeERC20FailedOperation",
      "type": "error"
    },
    {
      "anonymous": false,
      "inputs": [
        {
          "indexed": false,
          "internalType": "uint256",
          "name": "timeToDrift",
          "type": "uint256"
        },
        {
          "indexed": false,
          "internalType": "int256",
          "name": "driftIncrement",
          "type": "int256"
        }
      ],
      "name": "DriftSet",
      "type": "event"
    },
    {
      "anonymous": false,
      "inputs": [
        {
          "indexed": true,
          "internalType": "address",
          "name": "previousOwner",
          "type": "address"
        },
        {
          "indexed": true,
          "internalType": "address",
          "name": "newOwner",
          "type": "address"
        }
      ],
      "name": "OwnershipTransferred",
      "type": "event"
    },
    {
      "anonymous": false,
      "inputs": [
        {
          "indexed": true,
          "internalType": "address",
          "name": "paymentHub",
          "type": "address"
        }
      ],
      "name": "PaymentHubUpdate",
      "type": "event"
    },
    {
      "anonymous": false,
      "inputs": [
        {
          "indexed": false,
          "internalType": "uint256",
          "name": "price",
          "type": "uint256"
        },
        {
          "indexed": false,
          "internalType": "uint256",
          "name": "increment",
          "type": "uint256"
        }
      ],
      "name": "PriceSet",
      "type": "event"
    },
    {
      "anonymous": false,
      "inputs": [
        {
          "indexed": true,
          "internalType": "address",
          "name": "from",
          "type": "address"
        },
        {
          "indexed": false,
          "internalType": "uint256",
          "name": "amountETH",
          "type": "uint256"
        },
        {
          "indexed": false,
          "internalType": "uint256",
          "name": "amountBase",
          "type": "uint256"
        }
      ],
      "name": "Received",
      "type": "event"
    },
    {
      "anonymous": false,
      "inputs": [
        {
          "indexed": false,
          "internalType": "uint256",
          "name": "setting",
          "type": "uint256"
        }
      ],
      "name": "SettingsChange",
      "type": "event"
    },
    {
      "anonymous": false,
      "inputs": [
        {
          "indexed": true,
          "internalType": "contract IERC20Permit",
          "name": "token",
          "type": "address"
        },
        {
          "indexed": false,
          "internalType": "address",
          "name": "who",
          "type": "address"
        },
        {
          "indexed": false,
          "internalType": "bytes",
          "name": "ref",
          "type": "bytes"
        },
        {
          "indexed": false,
          "internalType": "int256",
          "name": "amount",
          "type": "int256"
        },
        {
          "indexed": false,
          "internalType": "contract IERC20",
          "name": "base",
          "type": "address"
        },
        {
          "indexed": false,
          "internalType": "uint256",
          "name": "totPrice",
          "type": "uint256"
        },
        {
          "indexed": false,
          "internalType": "uint256",
          "name": "fee",
          "type": "uint256"
        },
        {
          "indexed": false,
          "internalType": "uint256",
          "name": "newprice",
          "type": "uint256"
        }
      ],
      "name": "Trade",
      "type": "event"
    },
    {
      "anonymous": false,
      "inputs": [
        {
          "indexed": true,
          "internalType": "address",
          "name": "target",
          "type": "address"
        },
        {
          "indexed": false,
          "internalType": "uint256",
          "name": "amountETH",
          "type": "uint256"
        }
      ],
      "name": "Withdrawn",
      "type": "event"
    },
    {
      "inputs": [],
      "name": "VERSION",
      "outputs": [
        {
          "internalType": "uint8",
          "name": "",
          "type": "uint8"
        }
      ],
      "stateMutability": "view",
      "type": "function"
    },
    {
      "inputs": [
        {
          "internalType": "address",
          "name": "erc20",
          "type": "address"
        },
        {
          "internalType": "address",
          "name": "who",
          "type": "address"
        },
        {
          "internalType": "uint256",
          "name": "amount",
          "type": "uint256"
        }
      ],
      "name": "approve",
      "outputs": [],
      "stateMutability": "nonpayable",
      "type": "function"
    },
    {
      "inputs": [],
      "name": "base",
      "outputs": [
        {
          "internalType": "contract IERC20",
          "name": "",
          "type": "address"
        }
      ],
      "stateMutability": "view",
      "type": "function"
    },
    {
      "inputs": [],
      "name": "driftIncrement",
      "outputs": [
        {
          "internalType": "int256",
          "name": "",
          "type": "int256"
        }
      ],
      "stateMutability": "view",
      "type": "function"
    },
    {
      "inputs": [],
      "name": "driftStart",
      "outputs": [
        {
          "internalType": "uint256",
          "name": "",
          "type": "uint256"
        }
      ],
      "stateMutability": "view",
      "type": "function"
    },
    {
      "inputs": [
        {
          "internalType": "uint256",
          "name": "shares",
          "type": "uint256"
        }
      ],
      "name": "getBuyPrice",
      "outputs": [
        {
          "internalType": "uint256",
          "name": "",
          "type": "uint256"
        }
      ],
      "stateMutability": "view",
      "type": "function"
    },
    {
      "inputs": [],
      "name": "getPrice",
      "outputs": [
        {
          "internalType": "uint256",
          "name": "",
          "type": "uint256"
        }
      ],
      "stateMutability": "view",
      "type": "function"
    },
    {
      "inputs": [
        {
          "internalType": "uint256",
          "name": "timestamp",
          "type": "uint256"
        }
      ],
      "name": "getPriceAtTime",
      "outputs": [
        {
          "internalType": "uint256",
          "name": "",
          "type": "uint256"
        }
      ],
      "stateMutability": "view",
      "type": "function"
    },
    {
      "inputs": [
        {
          "internalType": "uint256",
          "name": "shares",
          "type": "uint256"
        }
      ],
      "name": "getSellPrice",
      "outputs": [
        {
          "internalType": "uint256",
          "name": "",
          "type": "uint256"
        }
      ],
      "stateMutability": "view",
      "type": "function"
    },
    {
      "inputs": [
        {
          "internalType": "uint256",
          "name": "money",
          "type": "uint256"
        }
      ],
      "name": "getShares",
      "outputs": [
        {
          "internalType": "uint256",
          "name": "",
          "type": "uint256"
        }
      ],
      "stateMutability": "view",
      "type": "function"
    },
    {
      "inputs": [],
      "name": "hasDrift",
      "outputs": [
        {
          "internalType": "bool",
          "name": "",
          "type": "bool"
        }
      ],
      "stateMutability": "view",
      "type": "function"
    },
    {
      "inputs": [],
      "name": "increment",
      "outputs": [
        {
          "internalType": "uint256",
          "name": "",
          "type": "uint256"
        }
      ],
      "stateMutability": "view",
      "type": "function"
    },
    {
      "inputs": [
        {
          "internalType": "address",
          "name": "buyer",
          "type": "address"
        },
        {
          "internalType": "uint256",
          "name": "shares",
          "type": "uint256"
        },
        {
          "internalType": "uint256",
          "name": "costs",
          "type": "uint256"
        },
        {
          "internalType": "bytes",
          "name": "ref",
          "type": "bytes"
        }
      ],
      "name": "notifyTrade",
      "outputs": [],
      "stateMutability": "nonpayable",
      "type": "function"
    },
    {
      "inputs": [
        {
          "internalType": "address",
          "name": "buyer",
          "type": "address"
        },
        {
          "internalType": "uint256",
          "name": "shares",
          "type": "uint256"
        },
        {
          "internalType": "uint256",
          "name": "costs",
          "type": "uint256"
        },
        {
          "internalType": "bytes",
          "name": "ref",
          "type": "bytes"
        }
      ],
      "name": "notifyTradeAndTransfer",
      "outputs": [],
      "stateMutability": "nonpayable",
      "type": "function"
    },
    {
      "inputs": [
        {
          "internalType": "address[]",
          "name": "buyers",
          "type": "address[]"
        },
        {
          "internalType": "uint256[]",
          "name": "shares",
          "type": "uint256[]"
        },
        {
          "internalType": "uint256[]",
          "name": "costs",
          "type": "uint256[]"
        },
        {
          "internalType": "bytes[]",
          "name": "ref",
          "type": "bytes[]"
        }
      ],
      "name": "notifyTrades",
      "outputs": [],
      "stateMutability": "nonpayable",
      "type": "function"
    },
    {
      "inputs": [
        {
          "internalType": "address[]",
          "name": "buyers",
          "type": "address[]"
        },
        {
          "internalType": "uint256[]",
          "name": "shares",
          "type": "uint256[]"
        },
        {
          "internalType": "uint256[]",
          "name": "costs",
          "type": "uint256[]"
        },
        {
          "internalType": "bytes[]",
          "name": "ref",
          "type": "bytes[]"
        }
      ],
      "name": "notifyTradesAndTransfer",
      "outputs": [],
      "stateMutability": "nonpayable",
      "type": "function"
    },
    {
      "inputs": [
        {
          "internalType": "address",
          "name": "from",
          "type": "address"
        },
        {
          "internalType": "uint256",
          "name": "amount",
          "type": "uint256"
        },
        {
          "internalType": "bytes",
          "name": "ref",
          "type": "bytes"
        }
      ],
      "name": "onTokenTransfer",
      "outputs": [
        {
          "internalType": "bool",
          "name": "",
          "type": "bool"
        }
      ],
      "stateMutability": "nonpayable",
      "type": "function"
    },
    {
      "inputs": [],
      "name": "owner",
      "outputs": [
        {
          "internalType": "address",
          "name": "",
          "type": "address"
        }
      ],
      "stateMutability": "view",
      "type": "function"
    },
    {
      "inputs": [],
      "name": "paymenthub",
      "outputs": [
        {
          "internalType": "address",
          "name": "",
          "type": "address"
        }
      ],
      "stateMutability": "view",
      "type": "function"
    },
    {
      "inputs": [
        {
          "internalType": "contract IERC20",
          "name": "incomingAsset",
          "type": "address"
        },
        {
          "internalType": "address",
          "name": "from",
          "type": "address"
        },
        {
          "internalType": "uint256",
          "name": "amount",
          "type": "uint256"
        },
        {
          "internalType": "bytes",
          "name": "ref",
          "type": "bytes"
        }
      ],
      "name": "processIncoming",
      "outputs": [
        {
          "internalType": "uint256",
          "name": "",
          "type": "uint256"
        }
      ],
      "stateMutability": "payable",
      "type": "function"
    },
    {
      "inputs": [
        {
          "internalType": "uint256",
          "name": "secondsPerStep",
          "type": "uint256"
        },
        {
          "internalType": "int256",
          "name": "_driftIncrement",
          "type": "int256"
        }
      ],
      "name": "setDrift",
      "outputs": [],
      "stateMutability": "nonpayable",
      "type": "function"
    },
    {
      "inputs": [
        {
          "internalType": "bool",
          "name": "_buyingEnabled",
          "type": "bool"
        },
        {
          "internalType": "bool",
          "name": "_sellingEnabled",
          "type": "bool"
        }
      ],
      "name": "setEnabled",
      "outputs": [],
      "stateMutability": "nonpayable",
      "type": "function"
    },
    {
      "inputs": [
        {
          "internalType": "address",
          "name": "hub",
          "type": "address"
        }
      ],
      "name": "setPaymentHub",
      "outputs": [],
      "stateMutability": "nonpayable",
      "type": "function"
    },
    {
      "inputs": [
        {
          "internalType": "uint256",
          "name": "_price",
          "type": "uint256"
        },
        {
          "internalType": "uint256",
          "name": "_increment",
          "type": "uint256"
        }
      ],
      "name": "setPrice",
      "outputs": [],
      "stateMutability": "nonpayable",
      "type": "function"
    },
    {
      "inputs": [
        {
          "internalType": "uint256",
          "name": "_settings",
          "type": "uint256"
        }
      ],
      "name": "setSettings",
      "outputs": [],
      "stateMutability": "nonpayable",
      "type": "function"
    },
    {
      "inputs": [],
      "name": "settings",
      "outputs": [
        {
          "internalType": "uint256",
          "name": "",
          "type": "uint256"
        }
      ],
      "stateMutability": "view",
      "type": "function"
    },
    {
      "inputs": [],
      "name": "timeToDrift",
      "outputs": [
        {
          "internalType": "uint256",
          "name": "",
          "type": "uint256"
        }
      ],
      "stateMutability": "view",
      "type": "function"
    },
    {
      "inputs": [],
      "name": "token",
      "outputs": [
        {
          "internalType": "contract IERC20Permit",
          "name": "",
          "type": "address"
        }
      ],
      "stateMutability": "view",
      "type": "function"
    },
    {
      "inputs": [
        {
          "internalType": "address",
          "name": "newOwner",
          "type": "address"
        }
      ],
      "name": "transferOwnership",
      "outputs": [],
      "stateMutability": "nonpayable",
      "type": "function"
    },
    {
      "inputs": [
        {
          "internalType": "contract IERC20",
          "name": "ercAddress",
          "type": "address"
        },
        {
          "internalType": "address",
          "name": "to",
          "type": "address"
        },
        {
          "internalType": "uint256",
          "name": "amount",
          "type": "uint256"
        }
      ],
      "name": "withdraw",
      "outputs": [],
      "stateMutability": "nonpayable",
      "type": "function"
    },
    {
      "inputs": [
        {
          "internalType": "uint256",
          "name": "amount",
          "type": "uint256"
        }
      ],
      "name": "withdrawEther",
      "outputs": [],
      "stateMutability": "nonpayable",
      "type": "function"
    },
    {
      "inputs": [
        {
          "internalType": "address",
          "name": "target",
          "type": "address"
        },
        {
          "internalType": "uint256",
          "name": "amount",
          "type": "uint256"
        }
      ],
      "name": "withdrawEther",
      "outputs": [],
      "stateMutability": "nonpayable",
      "type": "function"
    }
  ],
  "transactionHash": "0x4b6ee8909f85c7091dccf303c757c31e761fce77fcd435c56d70bd5ab0d422df",
  "args": [
    "0x425cE8A2d6A2fAF2506ce32437666d3156136a43",
    "1000000000000000000",
    "0",
    "0xB4272071eCAdd69d933AdcD19cA99fe80664fc08",
    "0x50872469E4b156b0e1E98365317A885Ec096e92d",
    "0xc557D5AaCa8646F6742fB322c7497f7E610033bA"
  ],
  "numDeployments": 1,
  "solcInputHash": "c09db190254609638ceaf50da3e257ba",
  "bytecode": "0x60c060405260036007553480156200001657600080fd5b5060405162001c4738038062001c478339810160408190526200003991620000d7565b600080546001600160a01b0319166001600160a01b03841690811782556040518492907f8be0079c531659141344cd1fd0a4f28419497f9722a3daafe3b4186f6b6457e0908290a3506001600160a01b0392831660805294821660a05250600292909255600355600180546001600160a01b0319169290911691909117905562000154565b6001600160a01b0381168114620000d457600080fd5b50565b60008060008060008060c08789031215620000f157600080fd5b8651620000fe81620000be565b80965050602087015194506040870151935060608701516200012081620000be565b60808801519093506200013381620000be565b60a08801519092506200014681620000be565b809150509295509295509295565b60805160a051611a87620001c060003960008181610594015281816106e90152818161095d01528181610f7201528181611107015261124e01526000818161028f015281816109a901528181610fb9015281816110d601528181611156015261121a0152611a876000f3fe6080604052600436106101e35760003560e01c806396199f5511610102578063d9caed1211610095578063f7d9757711610064578063f7d9757714610562578063fc0c546a14610582578063ffa1ad74146105b6578063fff4da1f146105dd57600080fd5b8063d9caed12146104ec578063e06174e41461050c578063e1f21c6714610522578063f2fde38b1461054257600080fd5b8063ba730e53116100d1578063ba730e5314610480578063bf13d438146104a0578063c7780ab2146104c0578063d09de08a146104d657600080fd5b806396199f551461040b57806398d5fdca1461042b578063a4c0ed3614610440578063afaefe9e1461046057600080fd5b80636f7267b71161017a5780637ff6c191116101495780637ff6c1911461039c57806384b41fda146103b25780638a07d3d0146103c85780638da5cb5b146103eb57600080fd5b80636f7267b71461031c578063777adcf01461033c5780637cd6a7fd1461035c5780637fcc15991461037c57600080fd5b80635001f3b5116101b65780635001f3b51461027d578063522f6815146102c95780635c627935146102e957806369365c521461030957600080fd5b806308d4db14146101e857806314bf043c1461021b57806322ae3e6f1461023d5780633bed33ce1461025d575b600080fd5b3480156101f457600080fd5b506102086102033660046114ae565b6105fd565b6040519081526020015b60405180910390f35b34801561022757600080fd5b5061023b610236366004611513565b610616565b005b34801561024957600080fd5b5061023b61025836600461162e565b6106c6565b34801561026957600080fd5b5061023b6102783660046114ae565b610717565b34801561028957600080fd5b506102b17f000000000000000000000000000000000000000000000000000000000000000081565b6040516001600160a01b039091168152602001610212565b3480156102d557600080fd5b5061023b6102e4366004611698565b61076f565b3480156102f557600080fd5b5061023b6103043660046116d2565b610883565b61020861031736600461170b565b6108ca565b34801561032857600080fd5b506102086103373660046114ae565b610a2d565b34801561034857600080fd5b506001546102b1906001600160a01b031681565b34801561036857600080fd5b5061023b6103773660046114ae565b610aa7565b34801561038857600080fd5b5061023b610397366004611513565b610aea565b3480156103a857600080fd5b5061020860045481565b3480156103be57600080fd5b5061020860055481565b3480156103d457600080fd5b5060055415155b6040519015158152602001610212565b3480156103f757600080fd5b506000546102b1906001600160a01b031681565b34801561041757600080fd5b5061023b61042636600461162e565b610b95565b34801561043757600080fd5b50610208610bb2565b34801561044c57600080fd5b506103db61045b366004611761565b610bc2565b34801561046c57600080fd5b5061023b61047b3660046117bd565b610bdd565b34801561048c57600080fd5b5061020861049b3660046114ae565b610c41565b3480156104ac57600080fd5b506102086104bb3660046114ae565b610c66565b3480156104cc57600080fd5b5061020860065481565b3480156104e257600080fd5b5061020860035481565b3480156104f857600080fd5b5061023b6105073660046117df565b610cdf565b34801561051857600080fd5b5061020860075481565b34801561052e57600080fd5b5061023b61053d3660046117df565b610d39565b34801561054e57600080fd5b5061023b61055d366004611820565b610dba565b34801561056e57600080fd5b5061023b61057d3660046117bd565b610e1d565b34801561058e57600080fd5b506102b17f000000000000000000000000000000000000000000000000000000000000000081565b3480156105c257600080fd5b506105cb600881565b60405160ff9091168152602001610212565b3480156105e957600080fd5b5061023b6105f8366004611820565b610e6d565b600061061061060a610bb2565b83610ebf565b92915050565b61061e610f19565b60005b878110156106bb576106a989898381811061063e5761063e61183d565b90506020020160208101906106539190611820565b8888848181106106655761066561183d565b9050602002013587878581811061067e5761067e61183d565b905060200201358686868181106106975761069761183d565b90506020028101906102589190611853565b806106b3816118b0565b915050610621565b505050505050505050565b6106ce610f19565b6106db8585858585610f48565b506107106001600160a01b037f0000000000000000000000000000000000000000000000000000000000000000168686611009565b5050505050565b6000546001600160a01b0316331480159061073d57506001546001600160a01b03163314155b156107625760405163618a6eaf60e01b81523360048201526024015b60405180910390fd5b61076c338261076f565b50565b6000546001600160a01b0316331480159061079557506001546001600160a01b03163314155b156107b55760405163618a6eaf60e01b8152336004820152602401610759565b6000826001600160a01b03168260405160006040518083038185875af1925050503d8060008114610802576040519150601f19603f3d011682016040523d82523d6000602084013e610807565b606091505b505090508061083b5760405163fd4206e360e01b81526001600160a01b038416600482015260248101839052604401610759565b826001600160a01b03167f7084f5476618d8e60b11ef0d7d3f06914655adb8793e28ff7f018d4c76d505d58360405161087691815260200190565b60405180910390a2505050565b61088b610f19565b600754821515600180831614146108a0576001185b6108ae600260075481161490565b1515821515146108bc576002185b6108c581610aa7565b505050565b6000336001600160a01b038716148015906108f057506001546001600160a01b03163314155b15610910576040516336e733c560e21b8152336004820152602401610759565b341561095b5760408051348152602081018690526001600160a01b038716917f74cf3d18d0ddca79038197ad0dd2c7fa5005ef61a5d1ed190e8a8a437e2fcf10910160405180910390a25b7f00000000000000000000000000000000000000000000000000000000000000006001600160a01b0316866001600160a01b0316036109a7576109a08585858561105b565b9050610a24565b7f00000000000000000000000000000000000000000000000000000000000000006001600160a01b0316866001600160a01b0316036109ec576109a0858585856111a5565b60405162461bcd60e51b815260206004820152600d60248201526c34b73b30b634b2103a37b5b2b760991b6044820152606401610759565b95945050505050565b600080610a38610bb2565b9050600080610a4783866118c9565b90505b80821015610a9f5760006002610a6083856118eb565b610a6a91906118c9565b90506000610a788583610ebf565b905080871115610a9457610a8d8260016118eb565b9350610a98565b8192505b5050610a4a565b509392505050565b610aaf610f19565b60078190556040518181527f73f575b434990a047744d035619e8cb101d71ae30e15cee70124fcfa992a4b479060200160405180910390a150565b610af2610f19565b60005b878110156106bb57610b82898983818110610b1257610b1261183d565b9050602002016020810190610b279190611820565b888884818110610b3957610b3961183d565b90506020020135878785818110610b5257610b5261183d565b90506020020135868686818110610b6b57610b6b61183d565b9050602002810190610b7d9190611853565b610f48565b5080610b8d816118b0565b915050610af5565b610b9d610f19565b610baa8585858585610f48565b505050505050565b6000610bbd42610c66565b905090565b6000610bd133868686866108ca565b50600195945050505050565b610be5610f19565b610bf9610bf0610bb2565b60025542600455565b6005829055600681905560408051838152602081018390527f0c64990ff5fa601870b48aa83367706d39e6f55a0f73069c97c2f9c08241a17e91015b60405180910390a15050565b600061061060035483610c5491906118fe565b610c5c610bb2565b61060a9190611915565b6000610c73600554151590565b15610cd757600060045483610c889190611915565b9050600060065460055483610c9d91906118c9565b610ca79190611928565b9050600081600254610cb99190611958565b90506000811215610ccf57506000949350505050565b949350505050565b505060025490565b6000546001600160a01b03163314801590610d0557506001546001600160a01b03163314155b15610d255760405163618a6eaf60e01b8152336004820152602401610759565b6108c56001600160a01b0384168383611009565b610d41610f19565b60405163095ea7b360e01b81526001600160a01b0383811660048301526024820183905284169063095ea7b3906044016020604051808303816000875af1158015610d90573d6000803e3d6000fd5b505050506040513d601f19601f82011682018060405250810190610db49190611980565b50505050565b610dc2610f19565b600080546040516001600160a01b03808516939216917f8be0079c531659141344cd1fd0a4f28419497f9722a3daafe3b4186f6b6457e091a3600080546001600160a01b0319166001600160a01b0392909216919091179055565b610e25610f19565b610e328260025542600455565b600381905560408051838152602081018390527fa0f1665b7b659537b52deec61ea64d134a3bccda74c7f4e79f2246e7a8187a8a9101610c35565b610e75610f19565b600180546001600160a01b0319166001600160a01b0383169081179091556040517f4a534dbb0a1201b9baddbb0018d195c269a25847c33b19c06d24309f20f84b3390600090a250565b600081600003610ed157506000610610565b600354600090610ee2600185611915565b610eec91906118fe565b610ef690856118eb565b9050826002610f0583876118eb565b610f0f91906118c9565b610ccf91906118fe565b6000546001600160a01b03163314610f46576040516396a19be960e01b8152336004820152602401610759565b565b600060035485610f5891906118fe565b600254610f6591906118eb565b6002556001600160a01b037f0000000000000000000000000000000000000000000000000000000000000000167f424641a08047715d4b70195e1d90818d302683d9f65f41910ca13f5a486d37cc878585897f00000000000000000000000000000000000000000000000000000000000000008a6000610fe3610bb2565b604051610ff798979695949392919061199d565b60405180910390a25091949350505050565b604080516001600160a01b038416602482015260448082018490528251808303909101815260649091019091526020810180516001600160e01b031663a9059cbb60e01b1790526108c590849061127f565b600061106b600260075481161490565b61108857604051632f168fef60e01b815260040160405180910390fd5b600061109385610c41565b9050600354856110a391906118fe565b600260008282546110b49190611915565b909155506110c4905084846112e2565b156110fd576110fd6001600160a01b037f0000000000000000000000000000000000000000000000000000000000000000168783611009565b6001600160a01b037f0000000000000000000000000000000000000000000000000000000000000000167f424641a08047715d4b70195e1d90818d302683d9f65f41910ca13f5a486d37cc8786866111548a611a06565b7f0000000000000000000000000000000000000000000000000000000000000000876000611180610bb2565b60405161119498979695949392919061199d565b60405180910390a295945050505050565b60006111b5600160075481161490565b6111d2576040516301ab85d360e71b815260040160405180910390fd5b60006111dd85610a2d565b905060006111ea826105fd565b90506111f98783838888610f48565b508581101561124157611241876112108389611915565b6001600160a01b037f0000000000000000000000000000000000000000000000000000000000000000169190611009565b6112756001600160a01b037f0000000000000000000000000000000000000000000000000000000000000000168884611009565b5095945050505050565b60006112946001600160a01b038416836113a2565b905080516000141580156112b95750808060200190518101906112b79190611980565b155b156108c557604051635274afe760e01b81526001600160a01b0384166004820152602401610759565b60008115806112f15750601482145b156112fe57506001610610565b600160f81b83836000816113145761131461183d565b9050013560f81c60f81b6001600160f81b0319160361133557506001610610565b600160f91b838360008161134b5761134b61183d565b9050013560f81c60f81b6001600160f81b0319160361136c57506000610610565b60405162461bcd60e51b815260206004820152600b60248201526a3ab735b737bbb7103932b360a91b6044820152606401610759565b60606113b0838360006113b7565b9392505050565b606082516000141580156113d357506001600160a01b0384163b155b156113fc57604051639eb1341360e01b81526001600160a01b0385166004820152602401610759565b600080856001600160a01b031684866040516114189190611a22565b60006040518083038185875af1925050503d8060008114611455576040519150601f19603f3d011682016040523d82523d6000602084013e61145a565b606091505b5091509150811561146e5791506113b09050565b80511561147d57805160208201fd5b60405162461bcd60e51b815260206004820152600660248201526519985a5b195960d21b6044820152606401610759565b6000602082840312156114c057600080fd5b5035919050565b60008083601f8401126114d957600080fd5b50813567ffffffffffffffff8111156114f157600080fd5b6020830191508360208260051b850101111561150c57600080fd5b9250929050565b6000806000806000806000806080898b03121561152f57600080fd5b883567ffffffffffffffff8082111561154757600080fd5b6115538c838d016114c7565b909a50985060208b013591508082111561156c57600080fd5b6115788c838d016114c7565b909850965060408b013591508082111561159157600080fd5b61159d8c838d016114c7565b909650945060608b01359150808211156115b657600080fd5b506115c38b828c016114c7565b999c989b5096995094979396929594505050565b6001600160a01b038116811461076c57600080fd5b60008083601f8401126115fe57600080fd5b50813567ffffffffffffffff81111561161657600080fd5b60208301915083602082850101111561150c57600080fd5b60008060008060006080868803121561164657600080fd5b8535611651816115d7565b94506020860135935060408601359250606086013567ffffffffffffffff81111561167b57600080fd5b611687888289016115ec565b969995985093965092949392505050565b600080604083850312156116ab57600080fd5b82356116b6816115d7565b946020939093013593505050565b801515811461076c57600080fd5b600080604083850312156116e557600080fd5b82356116f0816116c4565b91506020830135611700816116c4565b809150509250929050565b60008060008060006080868803121561172357600080fd5b853561172e816115d7565b9450602086013561173e816115d7565b935060408601359250606086013567ffffffffffffffff81111561167b57600080fd5b6000806000806060858703121561177757600080fd5b8435611782816115d7565b935060208501359250604085013567ffffffffffffffff8111156117a557600080fd5b6117b1878288016115ec565b95989497509550505050565b600080604083850312156117d057600080fd5b50508035926020909101359150565b6000806000606084860312156117f457600080fd5b83356117ff816115d7565b9250602084013561180f816115d7565b929592945050506040919091013590565b60006020828403121561183257600080fd5b81356113b0816115d7565b634e487b7160e01b600052603260045260246000fd5b6000808335601e1984360301811261186a57600080fd5b83018035915067ffffffffffffffff82111561188557600080fd5b60200191503681900382131561150c57600080fd5b634e487b7160e01b600052601160045260246000fd5b6000600182016118c2576118c261189a565b5060010190565b6000826118e657634e487b7160e01b600052601260045260246000fd5b500490565b808201808211156106105761061061189a565b80820281158282048414176106105761061061189a565b818103818111156106105761061061189a565b80820260008212600160ff1b841416156119445761194461189a565b81810583148215176106105761061061189a565b80820182811260008312801582168215821617156119785761197861189a565b505092915050565b60006020828403121561199257600080fd5b81516113b0816116c4565b6001600160a01b03898116825260e0602083018190528201889052600090610100898b828601376000848b018201526040840198909852959095166060820152608081019390935260a083019190915260c0820152601f909301601f1916909201019392505050565b6000600160ff1b8201611a1b57611a1b61189a565b5060000390565b6000825160005b81811015611a435760208186018101518583015201611a29565b50600092019182525091905056fea26469706673582212200296298807af6ae72150362ee313462d120d107ad39661a9394db4148a85492564736f6c63430008150033",
  "devdoc": {
    "errors": {
      "Address_NotTransferNorContract(address)": [
        {
          "params": {
            "target": "Target address to call the function on."
          }
        }
      ],
      "Brokerbot_InvalidSender(address)": [
        {
          "params": {
            "sender": "The msg.sender."
          }
        }
      ],
      "Brokerbot_NotAuthorized(address)": [
        {
          "params": {
            "sender": "The msg.sender."
          }
        }
      ],
      "Brokerbot_WithdrawFailed(address,uint256)": [
        {
          "params": {
            "amount": "The withdraw amount.",
            "target": "The receiver of the Eth."
          }
        }
      ],
      "SafeERC20FailedOperation(address)": [
        {
          "details": "An operation with an ERC20 token failed."
        }
      ]
    },
    "kind": "dev",
    "methods": {
      "processIncoming(address,address,uint256,bytes)": {
        "details": "Is either called from payment hub or from transferAndCall of the share token (via onTokenTransfer).",
        "params": {
          "amount": "The amount of shares the are sold / The base amount paid to buy sharees.",
          "from": "Who iniciated the sell/buy.",
          "incomingAsset": "the erc20 address of either base currency or the share token.",
          "ref": "Reference data blob."
        },
        "returns": {
          "_0": "The amount of shares bought / The amount received for selling the shares. "
        }
      },
      "transferOwnership(address)": {
        "details": "Transfers ownership of the contract to a new account (`newOwner`). Can only be called by the current owner."
      }
    },
    "version": 1
  },
  "userdoc": {
    "errors": {
      "Brokerbot_InvalidSender(address)": [
        {
          "notice": "Sender(msg.sender) has to be incoming token or paymenthub."
        }
      ],
      "Brokerbot_NotAuthorized(address)": [
        {
          "notice": "Sender(msg.sender) needs to be owner or paymenthub."
        }
      ],
      "Brokerbot_WithdrawFailed(address,uint256)": [
        {
          "notice": "target.call() wasn't successful."
        }
      ]
    },
    "kind": "user",
    "methods": {
      "processIncoming(address,address,uint256,bytes)": {
        "notice": "Payment hub might actually have sent another accepted token, including Ether."
      }
    },
    "version": 1
  },
  "storageLayout": {
    "storage": [
      {
        "astId": 11415,
        "contract": "src/brokerbot/Brokerbot.sol:Brokerbot",
        "label": "owner",
        "offset": 0,
        "slot": "0",
        "type": "t_address"
      },
      {
        "astId": 1476,
        "contract": "src/brokerbot/Brokerbot.sol:Brokerbot",
        "label": "paymenthub",
        "offset": 0,
        "slot": "1",
        "type": "t_address"
      },
      {
        "astId": 1486,
        "contract": "src/brokerbot/Brokerbot.sol:Brokerbot",
        "label": "price",
        "offset": 0,
        "slot": "2",
        "type": "t_uint256"
      },
      {
        "astId": 1488,
        "contract": "src/brokerbot/Brokerbot.sol:Brokerbot",
        "label": "increment",
        "offset": 0,
        "slot": "3",
        "type": "t_uint256"
      },
      {
        "astId": 1490,
        "contract": "src/brokerbot/Brokerbot.sol:Brokerbot",
        "label": "driftStart",
        "offset": 0,
        "slot": "4",
        "type": "t_uint256"
      },
      {
        "astId": 1492,
        "contract": "src/brokerbot/Brokerbot.sol:Brokerbot",
        "label": "timeToDrift",
        "offset": 0,
        "slot": "5",
        "type": "t_uint256"
      },
      {
        "astId": 1494,
        "contract": "src/brokerbot/Brokerbot.sol:Brokerbot",
        "label": "driftIncrement",
        "offset": 0,
        "slot": "6",
        "type": "t_int256"
      },
      {
        "astId": 1512,
        "contract": "src/brokerbot/Brokerbot.sol:Brokerbot",
        "label": "settings",
        "offset": 0,
        "slot": "7",
        "type": "t_uint256"
      }
    ],
    "types": {
      "t_address": {
        "encoding": "inplace",
        "label": "address",
        "numberOfBytes": "20"
      },
      "t_int256": {
        "encoding": "inplace",
        "label": "int256",
        "numberOfBytes": "32"
      },
      "t_uint256": {
        "encoding": "inplace",
        "label": "uint256",
        "numberOfBytes": "32"
      }
    }
  }
}