{
  "address": "0x4726ef6ec421f89224b718183A695cAC01d36e0d",
  "abi": [
    {
      "inputs": [
        {
          "internalType": "string",
          "name": "_terms",
          "type": "string"
        },
        {
          "internalType": "contract IERC20",
          "name": "_wrappedToken",
          "type": "address"
        },
        {
          "internalType": "uint256",
          "name": "_quorumBps",
          "type": "uint256"
        },
        {
          "internalType": "uint256",
          "name": "_quorumMigration",
          "type": "uint256"
        },
        {
          "internalType": "uint256",
          "name": "_votePeriodSeconds",
          "type": "uint256"
        },
        {
          "internalType": "contract IRecoveryHub",
          "name": "_recoveryHub",
          "type": "address"
        },
        {
          "internalType": "contract IOfferFactory",
          "name": "_offerFactory",
          "type": "address"
        },
        {
          "internalType": "address",
          "name": "_oracle",
          "type": "address"
        }
      ],
      "stateMutability": "nonpayable",
      "type": "constructor"
    },
    {
      "inputs": [
        {
          "internalType": "address",
          "name": "target",
          "type": "address"
        }
      ],
      "name": "Address_NotTransferNorContract",
      "type": "error"
    },
    {
      "inputs": [],
      "name": "Draggable_FactorZero",
      "type": "error"
    },
    {
      "inputs": [],
      "name": "Draggable_IsBinding",
      "type": "error"
    },
    {
      "inputs": [],
      "name": "Draggable_NotBinding",
      "type": "error"
    },
    {
      "inputs": [],
      "name": "Draggable_OpenOffer",
      "type": "error"
    },
    {
      "inputs": [
        {
          "internalType": "uint256",
          "name": "needed",
          "type": "uint256"
        },
        {
          "internalType": "uint256",
          "name": "actual",
          "type": "uint256"
        }
      ],
      "name": "Draggable_QuorumNotReached",
      "type": "error"
    },
    {
      "inputs": [
        {
          "internalType": "uint256",
          "name": "maxVotes",
          "type": "uint256"
        },
        {
          "internalType": "uint256",
          "name": "reportedVotes",
          "type": "uint256"
        }
      ],
      "name": "Draggable_TooManyVotes",
      "type": "error"
    },
    {
      "inputs": [
        {
          "internalType": "address",
          "name": "receiver",
          "type": "address"
        },
        {
          "internalType": "uint256",
          "name": "balance",
          "type": "uint256"
        },
        {
          "internalType": "uint256",
          "name": "amount",
          "type": "uint256"
        }
      ],
      "name": "ERC20BalanceOverflow",
      "type": "error"
    },
    {
      "inputs": [
        {
          "internalType": "address",
          "name": "spender",
          "type": "address"
        },
        {
          "internalType": "uint256",
          "name": "allowance",
          "type": "uint256"
        },
        {
          "internalType": "uint256",
          "name": "needed",
          "type": "uint256"
        }
      ],
      "name": "ERC20InsufficientAllowance",
      "type": "error"
    },
    {
      "inputs": [
        {
          "internalType": "address",
          "name": "sender",
          "type": "address"
        },
        {
          "internalType": "uint256",
          "name": "balance",
          "type": "uint256"
        },
        {
          "internalType": "uint256",
          "name": "needed",
          "type": "uint256"
        }
      ],
      "name": "ERC20InsufficientBalance",
      "type": "error"
    },
    {
      "inputs": [
        {
          "internalType": "address",
          "name": "approver",
          "type": "address"
        }
      ],
      "name": "ERC20InvalidApprover",
      "type": "error"
    },
    {
      "inputs": [
        {
          "internalType": "address",
          "name": "receiver",
          "type": "address"
        }
      ],
      "name": "ERC20InvalidReceiver",
      "type": "error"
    },
    {
      "inputs": [
        {
          "internalType": "address",
          "name": "sender",
          "type": "address"
        }
      ],
      "name": "ERC20InvalidSender",
      "type": "error"
    },
    {
      "inputs": [
        {
          "internalType": "address",
          "name": "spender",
          "type": "address"
        }
      ],
      "name": "ERC20InvalidSpender",
      "type": "error"
    },
    {
      "inputs": [],
      "name": "IERC677_OnTokenTransferFailed",
      "type": "error"
    },
    {
      "inputs": [
        {
          "internalType": "uint256",
          "name": "deadline",
          "type": "uint256"
        },
        {
          "internalType": "uint256",
          "name": "blockTimestamp",
          "type": "uint256"
        }
      ],
      "name": "Permit_DeadlineExpired",
      "type": "error"
    },
    {
      "inputs": [
        {
          "internalType": "address",
          "name": "signerAddress",
          "type": "address"
        }
      ],
      "name": "Permit_InvalidSigner",
      "type": "error"
    },
    {
      "inputs": [],
      "name": "Recoverable_RateZero",
      "type": "error"
    },
    {
      "inputs": [
        {
          "internalType": "address",
          "name": "token",
          "type": "address"
        }
      ],
      "name": "SafeERC20FailedOperation",
      "type": "error"
    },
    {
      "anonymous": false,
      "inputs": [
        {
          "indexed": true,
          "internalType": "address",
          "name": "owner",
          "type": "address"
        },
        {
          "indexed": true,
          "internalType": "address",
          "name": "spender",
          "type": "address"
        },
        {
          "indexed": false,
          "internalType": "uint256",
          "name": "value",
          "type": "uint256"
        }
      ],
      "name": "Approval",
      "type": "event"
    },
    {
      "anonymous": false,
      "inputs": [
        {
          "indexed": false,
          "internalType": "address",
          "name": "oracle",
          "type": "address"
        }
      ],
      "name": "ChangeOracle",
      "type": "event"
    },
    {
      "anonymous": false,
      "inputs": [
        {
          "indexed": false,
          "internalType": "string",
          "name": "terms",
          "type": "string"
        }
      ],
      "name": "ChangeTerms",
      "type": "event"
    },
    {
      "anonymous": false,
      "inputs": [
        {
          "indexed": false,
          "internalType": "address",
          "name": "newContractAddress",
          "type": "address"
        },
        {
          "indexed": false,
          "internalType": "uint256",
          "name": "yesVotes",
          "type": "uint256"
        },
        {
          "indexed": false,
          "internalType": "uint256",
          "name": "oracleVotes",
          "type": "uint256"
        },
        {
          "indexed": false,
          "internalType": "uint256",
          "name": "totalVotingPower",
          "type": "uint256"
        }
      ],
      "name": "MigrationSucceeded",
      "type": "event"
    },
    {
      "anonymous": false,
      "inputs": [
        {
          "indexed": false,
          "internalType": "string",
          "name": "name",
          "type": "string"
        },
        {
          "indexed": false,
          "internalType": "string",
          "name": "symbol",
          "type": "string"
        }
      ],
      "name": "NameChanged",
      "type": "event"
    },
    {
      "anonymous": false,
      "inputs": [
        {
          "indexed": true,
          "internalType": "address",
          "name": "from",
          "type": "address"
        },
        {
          "indexed": true,
          "internalType": "address",
          "name": "to",
          "type": "address"
        },
        {
          "indexed": false,
          "internalType": "uint256",
          "name": "value",
          "type": "uint256"
        }
      ],
      "name": "Transfer",
      "type": "event"
    },
    {
      "inputs": [],
      "name": "DOMAIN_SEPARATOR",
      "outputs": [
        {
          "internalType": "bytes32",
          "name": "",
          "type": "bytes32"
        }
      ],
      "stateMutability": "view",
      "type": "function"
    },
    {
      "inputs": [
        {
          "internalType": "address",
          "name": "owner",
          "type": "address"
        },
        {
          "internalType": "address",
          "name": "spender",
          "type": "address"
        }
      ],
      "name": "allowance",
      "outputs": [
        {
          "internalType": "uint256",
          "name": "",
          "type": "uint256"
        }
      ],
      "stateMutability": "view",
      "type": "function"
    },
    {
      "inputs": [
        {
          "internalType": "address",
          "name": "spender",
          "type": "address"
        },
        {
          "internalType": "uint256",
          "name": "value",
          "type": "uint256"
        }
      ],
      "name": "approve",
      "outputs": [
        {
          "internalType": "bool",
          "name": "",
          "type": "bool"
        }
      ],
      "stateMutability": "nonpayable",
      "type": "function"
    },
    {
      "inputs": [
        {
          "internalType": "address",
          "name": "account",
          "type": "address"
        }
      ],
      "name": "balanceOf",
      "outputs": [
        {
          "internalType": "uint256",
          "name": "",
          "type": "uint256"
        }
      ],
      "stateMutability": "view",
      "type": "function"
    },
    {
      "inputs": [
        {
          "internalType": "uint256",
          "name": "amount",
          "type": "uint256"
        }
      ],
      "name": "burn",
      "outputs": [],
      "stateMutability": "nonpayable",
      "type": "function"
    },
    {
      "inputs": [],
      "name": "claimPeriod",
      "outputs": [
        {
          "internalType": "uint256",
          "name": "",
          "type": "uint256"
        }
      ],
      "stateMutability": "pure",
      "type": "function"
    },
    {
      "inputs": [],
      "name": "customCollateralAddress",
      "outputs": [
        {
          "internalType": "contract IERC20",
          "name": "",
          "type": "address"
        }
      ],
      "stateMutability": "view",
      "type": "function"
    },
    {
      "inputs": [],
      "name": "customCollateralRate",
      "outputs": [
        {
          "internalType": "uint256",
          "name": "",
          "type": "uint256"
        }
      ],
      "stateMutability": "view",
      "type": "function"
    },
    {
      "inputs": [],
      "name": "decimals",
      "outputs": [
        {
          "internalType": "uint8",
          "name": "",
          "type": "uint8"
        }
      ],
      "stateMutability": "view",
      "type": "function"
    },
    {
      "inputs": [
        {
          "internalType": "address",
          "name": "lostAddress",
          "type": "address"
        }
      ],
      "name": "deleteClaim",
      "outputs": [],
      "stateMutability": "nonpayable",
      "type": "function"
    },
    {
      "inputs": [
        {
          "internalType": "address",
          "name": "buyer",
          "type": "address"
        },
        {
          "internalType": "contract IERC20",
          "name": "currency",
          "type": "address"
        }
      ],
      "name": "drag",
      "outputs": [],
      "stateMutability": "nonpayable",
      "type": "function"
    },
    {
      "inputs": [],
      "name": "factory",
      "outputs": [
        {
          "internalType": "contract IOfferFactory",
          "name": "",
          "type": "address"
        }
      ],
      "stateMutability": "view",
      "type": "function"
    },
    {
      "inputs": [],
      "name": "getClaimDeleter",
      "outputs": [
        {
          "internalType": "address",
          "name": "",
          "type": "address"
        }
      ],
      "stateMutability": "view",
      "type": "function"
    },
    {
      "inputs": [
        {
          "internalType": "contract IERC20",
          "name": "collateralType",
          "type": "address"
        }
      ],
      "name": "getCollateralRate",
      "outputs": [
        {
          "internalType": "uint256",
          "name": "",
          "type": "uint256"
        }
      ],
      "stateMutability": "view",
      "type": "function"
    },
    {
      "inputs": [
        {
          "internalType": "address",
          "name": "account",
          "type": "address"
        },
        {
          "internalType": "uint8",
          "name": "number",
          "type": "uint8"
        }
      ],
      "name": "hasFlag",
      "outputs": [
        {
          "internalType": "bool",
          "name": "",
          "type": "bool"
        }
      ],
      "stateMutability": "view",
      "type": "function"
    },
    {
      "inputs": [],
      "name": "isBinding",
      "outputs": [
        {
          "internalType": "bool",
          "name": "",
          "type": "bool"
        }
      ],
      "stateMutability": "view",
      "type": "function"
    },
    {
      "inputs": [
        {
          "internalType": "bytes32",
          "name": "salt",
          "type": "bytes32"
        },
        {
          "internalType": "uint256",
          "name": "pricePerShare",
          "type": "uint256"
        },
        {
          "internalType": "contract IERC20",
          "name": "currency",
          "type": "address"
        }
      ],
      "name": "makeAcquisitionOffer",
      "outputs": [],
      "stateMutability": "payable",
      "type": "function"
    },
    {
      "inputs": [],
      "name": "migrate",
      "outputs": [],
      "stateMutability": "nonpayable",
      "type": "function"
    },
    {
      "inputs": [
        {
          "internalType": "address",
          "name": "successor",
          "type": "address"
        },
        {
          "internalType": "uint256",
          "name": "additionalVotes",
          "type": "uint256"
        }
      ],
      "name": "migrateWithExternalApproval",
      "outputs": [],
      "stateMutability": "nonpayable",
      "type": "function"
    },
    {
      "inputs": [],
      "name": "name",
      "outputs": [
        {
          "internalType": "string",
          "name": "",
          "type": "string"
        }
      ],
      "stateMutability": "view",
      "type": "function"
    },
    {
      "inputs": [
        {
          "internalType": "address",
          "name": "",
          "type": "address"
        }
      ],
      "name": "nonces",
      "outputs": [
        {
          "internalType": "uint256",
          "name": "",
          "type": "uint256"
        }
      ],
      "stateMutability": "view",
      "type": "function"
    },
    {
      "inputs": [
        {
          "internalType": "address",
          "name": "target",
          "type": "address"
        }
      ],
      "name": "notifyClaimDeleted",
      "outputs": [],
      "stateMutability": "nonpayable",
      "type": "function"
    },
    {
      "inputs": [
        {
          "internalType": "address",
          "name": "target",
          "type": "address"
        }
      ],
      "name": "notifyClaimMade",
      "outputs": [],
      "stateMutability": "nonpayable",
      "type": "function"
    },
    {
      "inputs": [],
      "name": "notifyOfferEnded",
      "outputs": [],
      "stateMutability": "nonpayable",
      "type": "function"
    },
    {
      "inputs": [
        {
          "internalType": "address",
          "name": "voter",
          "type": "address"
        }
      ],
      "name": "notifyVoted",
      "outputs": [],
      "stateMutability": "nonpayable",
      "type": "function"
    },
    {
      "inputs": [],
      "name": "offer",
      "outputs": [
        {
          "internalType": "contract IOffer",
          "name": "",
          "type": "address"
        }
      ],
      "stateMutability": "view",
      "type": "function"
    },
    {
      "inputs": [
        {
          "internalType": "address",
          "name": "from",
          "type": "address"
        },
        {
          "internalType": "uint256",
          "name": "amount",
          "type": "uint256"
        },
        {
          "internalType": "bytes",
          "name": "",
          "type": "bytes"
        }
      ],
      "name": "onTokenTransfer",
      "outputs": [
        {
          "internalType": "bool",
          "name": "",
          "type": "bool"
        }
      ],
      "stateMutability": "nonpayable",
      "type": "function"
    },
    {
      "inputs": [],
      "name": "oracle",
      "outputs": [
        {
          "internalType": "address",
          "name": "",
          "type": "address"
        }
      ],
      "stateMutability": "view",
      "type": "function"
    },
    {
      "inputs": [
        {
          "internalType": "address",
          "name": "owner",
          "type": "address"
        },
        {
          "internalType": "address",
          "name": "spender",
          "type": "address"
        },
        {
          "internalType": "uint256",
          "name": "value",
          "type": "uint256"
        },
        {
          "internalType": "uint256",
          "name": "deadline",
          "type": "uint256"
        },
        {
          "internalType": "uint8",
          "name": "v",
          "type": "uint8"
        },
        {
          "internalType": "bytes32",
          "name": "r",
          "type": "bytes32"
        },
        {
          "internalType": "bytes32",
          "name": "s",
          "type": "bytes32"
        }
      ],
      "name": "permit",
      "outputs": [],
      "stateMutability": "nonpayable",
      "type": "function"
    },
    {
      "inputs": [],
      "name": "quorum",
      "outputs": [
        {
          "internalType": "uint256",
          "name": "",
          "type": "uint256"
        }
      ],
      "stateMutability": "view",
      "type": "function"
    },
    {
      "inputs": [],
      "name": "quorumMigration",
      "outputs": [
        {
          "internalType": "uint256",
          "name": "",
          "type": "uint256"
        }
      ],
      "stateMutability": "view",
      "type": "function"
    },
    {
      "inputs": [
        {
          "internalType": "address",
          "name": "oldAddress",
          "type": "address"
        },
        {
          "internalType": "address",
          "name": "newAddress",
          "type": "address"
        }
      ],
      "name": "recover",
      "outputs": [],
      "stateMutability": "nonpayable",
      "type": "function"
    },
    {
      "inputs": [],
      "name": "recovery",
      "outputs": [
        {
          "internalType": "contract IRecoveryHub",
          "name": "",
          "type": "address"
        }
      ],
      "stateMutability": "view",
      "type": "function"
    },
    {
      "inputs": [
        {
          "internalType": "address",
          "name": "newOracle",
          "type": "address"
        }
      ],
      "name": "setOracle",
      "outputs": [],
      "stateMutability": "nonpayable",
      "type": "function"
    },
    {
      "inputs": [
        {
          "internalType": "string",
          "name": "_terms",
          "type": "string"
        }
      ],
      "name": "setTerms",
      "outputs": [],
      "stateMutability": "nonpayable",
      "type": "function"
    },
    {
      "inputs": [],
      "name": "symbol",
      "outputs": [
        {
          "internalType": "string",
          "name": "",
          "type": "string"
        }
      ],
      "stateMutability": "view",
      "type": "function"
    },
    {
      "inputs": [],
      "name": "terms",
      "outputs": [
        {
          "internalType": "string",
          "name": "",
          "type": "string"
        }
      ],
      "stateMutability": "view",
      "type": "function"
    },
    {
      "inputs": [],
      "name": "totalSupply",
      "outputs": [
        {
          "internalType": "uint256",
          "name": "",
          "type": "uint256"
        }
      ],
      "stateMutability": "view",
      "type": "function"
    },
    {
      "inputs": [],
      "name": "totalVotingTokens",
      "outputs": [
        {
          "internalType": "uint256",
          "name": "",
          "type": "uint256"
        }
      ],
      "stateMutability": "view",
      "type": "function"
    },
    {
      "inputs": [
        {
          "internalType": "address",
          "name": "to",
          "type": "address"
        },
        {
          "internalType": "uint256",
          "name": "value",
          "type": "uint256"
        }
      ],
      "name": "transfer",
      "outputs": [
        {
          "internalType": "bool",
          "name": "",
          "type": "bool"
        }
      ],
      "stateMutability": "nonpayable",
      "type": "function"
    },
    {
      "inputs": [
        {
          "internalType": "address",
          "name": "recipient",
          "type": "address"
        },
        {
          "internalType": "uint256",
          "name": "amount",
          "type": "uint256"
        },
        {
          "internalType": "bytes",
          "name": "data",
          "type": "bytes"
        }
      ],
      "name": "transferAndCall",
      "outputs": [
        {
          "internalType": "bool",
          "name": "",
          "type": "bool"
        }
      ],
      "stateMutability": "nonpayable",
      "type": "function"
    },
    {
      "inputs": [
        {
          "internalType": "address",
          "name": "sender",
          "type": "address"
        },
        {
          "internalType": "address",
          "name": "recipient",
          "type": "address"
        },
        {
          "internalType": "uint256",
          "name": "amount",
          "type": "uint256"
        }
      ],
      "name": "transferFrom",
      "outputs": [
        {
          "internalType": "bool",
          "name": "",
          "type": "bool"
        }
      ],
      "stateMutability": "nonpayable",
      "type": "function"
    },
    {
      "inputs": [
        {
          "internalType": "uint256",
          "name": "amount",
          "type": "uint256"
        }
      ],
      "name": "unwrap",
      "outputs": [],
      "stateMutability": "nonpayable",
      "type": "function"
    },
    {
      "inputs": [],
      "name": "unwrapConversionFactor",
      "outputs": [
        {
          "internalType": "uint256",
          "name": "",
          "type": "uint256"
        }
      ],
      "stateMutability": "view",
      "type": "function"
    },
    {
      "inputs": [],
      "name": "votePeriod",
      "outputs": [
        {
          "internalType": "uint256",
          "name": "",
          "type": "uint256"
        }
      ],
      "stateMutability": "view",
      "type": "function"
    },
    {
      "inputs": [
        {
          "internalType": "address",
          "name": "voter",
          "type": "address"
        }
      ],
      "name": "votingPower",
      "outputs": [
        {
          "internalType": "uint256",
          "name": "",
          "type": "uint256"
        }
      ],
      "stateMutability": "view",
      "type": "function"
    },
    {
      "inputs": [
        {
          "internalType": "address",
          "name": "shareholder",
          "type": "address"
        },
        {
          "internalType": "uint256",
          "name": "amount",
          "type": "uint256"
        }
      ],
      "name": "wrap",
      "outputs": [],
      "stateMutability": "nonpayable",
      "type": "function"
    },
    {
      "inputs": [],
      "name": "wrapped",
      "outputs": [
        {
          "internalType": "contract IERC20",
          "name": "",
          "type": "address"
        }
      ],
      "stateMutability": "view",
      "type": "function"
    }
  ],
  "transactionHash": "0x715df40efa4b8d1e925c939c276ba886427f978183f3a52d20d04a765bdd80c9",
  "args": [
    "www.mumbai.ch",
    "0x8a92ab8135be4523d86e93cb5639b943B12Fb107",
    7500,
    7500,
    5184000,
    "0x1776C349696CccAE06541542C5ED954CDf9859cC",
    "0x19fec015535AcB6Bc5fBC372f168E21328F36b14",
    "0xA0f94B620A11130091A883dfB6e7EE47e1Dd575a"
  ],
  "numDeployments": 1,
  "solcInputHash": "c09db190254609638ceaf50da3e257ba",
  "bytecode": "0x61012060405260006004553480156200001757600080fd5b5060405162002d2a38038062002d2a8339810160408190526200003a9162000138565b600380546001600160a81b0319166101006001600160a01b038a811682029290921790925560c088905260a087905260e0869052838116608052600680546001600160a01b03191684831617905584169052600a6200009a898262000304565b50604051636427ed9760e01b8152600060048201526001600160a01b03841690636427ed9790602401600060405180830381600087803b158015620000de57600080fd5b505af1158015620000f3573d6000803e3d6000fd5b505050505050505050505050620003d0565b634e487b7160e01b600052604160045260246000fd5b80516001600160a01b03811681146200013357600080fd5b919050565b600080600080600080600080610100898b0312156200015657600080fd5b88516001600160401b03808211156200016e57600080fd5b818b0191508b601f8301126200018357600080fd5b81518181111562000198576200019862000105565b604051601f8201601f19908116603f01168101908382118183101715620001c357620001c362000105565b81604052828152602093508e84848701011115620001e057600080fd5b600091505b82821015620002045784820184015181830185015290830190620001e5565b6000848483010152809c505050506200021f818c016200011b565b985050506040890151955060608901519450608089015193506200024660a08a016200011b565b92506200025660c08a016200011b565b91506200026660e08a016200011b565b90509295985092959890939650565b600181811c908216806200028a57607f821691505b602082108103620002ab57634e487b7160e01b600052602260045260246000fd5b50919050565b601f821115620002ff57600081815260208120601f850160051c81016020861015620002da5750805b601f850160051c820191505b81811015620002fb57828155600101620002e6565b5050505b505050565b81516001600160401b0381111562000320576200032062000105565b620003388162000331845462000275565b84620002b1565b602080601f831160018114620003705760008415620003575750858301515b600019600386901b1c1916600185901b178555620002fb565b600085815260208120601f198616915b82811015620003a15788860151825594840194600190910190840162000380565b5085821015620003c05787850151600019600388901b60f8161c191681555b5050505050600190811b01905550565b60805160a05160c05160e051610100516128cf6200045b6000396000818161082901528181610b9501528181610d90015281816110bb0152818161157b0152611a0401526000818161069301526113db015260008181610376015281816113b5015281816116f501526117310152600061089d015260008181610767015261140401526128cf6000f3fe6080604052600436106102935760003560e01c80637dc0d1d01161015a578063c18172c4116100c1578063ddceafa91161007a578063ddceafa914610817578063de0e9a3e1461084b578063e5b824ec1461086b578063efa405121461088b578063f5c0b95f146108bf578063fcb79a7e146108df57600080fd5b8063c18172c414610735578063c45a015514610755578063d502562514610789578063d505accf1461079e578063dcc7d4ad146107be578063dd62ed3e146107d157600080fd5b8063a4c0ed3611610113578063a4c0ed3614610661578063a781358714610681578063a9059cbb146106b5578063bf376c7a146106d5578063c028df06146106f5578063c07473f61461071557600080fd5b80637dc0d1d0146105be5780637dc2cd98146105de5780637ecebe00146105f45780638fd3ab801461062157806395d89b41146106365780639e4b57451461064b57600080fd5b806332bc320b116101fe57806360918117116101b75780636091811714610508578063648bf7741461051e57806370a082311461053e57806377e071ad1461055e57806378f86afc1461057e5780637adbf9731461059e57600080fd5b806332bc320b146104595780633644e5151461046e5780634000aea01461048357806342966c68146104a357806345c8a62b146104c357806350e70d48146104e357600080fd5b806318160ddd1161025057806318160ddd1461039857806319845354146103ad57806323b872dd146103cf5780632a0a4ed5146103ef578063313ce5671461040d57806332a7ae951461043957600080fd5b806306fdde03146102985780630832e470146102c3578063095ea7b3146102e75780630a81b2de146103175780630c6f0e5d1461032c5780631703a01814610364575b600080fd5b3480156102a457600080fd5b506102ad6108ff565b6040516102ba9190612147565b60405180910390f35b3480156102cf57600080fd5b506102d960045481565b6040519081526020016102ba565b3480156102f357600080fd5b5061030761030236600461216f565b6109c6565b60405190151581526020016102ba565b34801561032357600080fd5b506102d96109dd565b34801561033857600080fd5b5060075461034c906001600160a01b031681565b6040516001600160a01b0390911681526020016102ba565b34801561037057600080fd5b506102d97f000000000000000000000000000000000000000000000000000000000000000081565b3480156103a457600080fd5b506002546102d9565b3480156103b957600080fd5b506103cd6103c836600461216f565b610a5b565b005b3480156103db57600080fd5b506103076103ea36600461219b565b610ae3565b3480156103fb57600080fd5b506006546001600160a01b031661034c565b34801561041957600080fd5b506003546104279060ff1681565b60405160ff90911681526020016102ba565b34801561044557600080fd5b506103cd6104543660046121dc565b610b5c565b34801561046557600080fd5b506103cd610bf5565b34801561047a57600080fd5b506102d9610c1c565b34801561048f57600080fd5b5061030761049e366004612242565b610c75565b3480156104af57600080fd5b506103cd6104be36600461229e565b610d06565b3480156104cf57600080fd5b506103cd6104de3660046121dc565b610d67565b3480156104ef57600080fd5b5060035461034c9061010090046001600160a01b031681565b34801561051457600080fd5b506102d960085481565b34801561052a57600080fd5b506103cd6105393660046122b7565b610d8b565b34801561054a57600080fd5b506102d96105593660046121dc565b610dc7565b34801561056a57600080fd5b506102d96105793660046121dc565b610deb565b34801561058a57600080fd5b506103cd6105993660046122f0565b610ed0565b3480156105aa57600080fd5b506103cd6105b93660046121dc565b610f2f565b3480156105ca57600080fd5b5060065461034c906001600160a01b031681565b3480156105ea57600080fd5b5062ed4e006102d9565b34801561060057600080fd5b506102d961060f3660046121dc565b60096020526000908152604090205481565b34801561062d57600080fd5b506103cd610f98565b34801561064257600080fd5b506102ad610fa5565b34801561065757600080fd5b5060045415610307565b34801561066d57600080fd5b5061030761067c366004612242565b611046565b34801561068d57600080fd5b506102d97f000000000000000000000000000000000000000000000000000000000000000081565b3480156106c157600080fd5b506103076106d036600461216f565b611078565b3480156106e157600080fd5b506103cd6106f036600461216f565b611084565b34801561070157600080fd5b5060055461034c906001600160a01b031681565b34801561072157600080fd5b506102d96107303660046121dc565b6110ab565b34801561074157600080fd5b506103cd6107503660046121dc565b6110b6565b34801561076157600080fd5b5061034c7f000000000000000000000000000000000000000000000000000000000000000081565b34801561079557600080fd5b506102ad6110ec565b3480156107aa57600080fd5b506103cd6107b9366004612343565b61117a565b6103cd6107cc3660046123b1565b61132f565b3480156107dd57600080fd5b506102d96107ec3660046122b7565b6001600160a01b03918216600090815260016020908152604080832093909416825291909152205490565b34801561082357600080fd5b5061034c7f000000000000000000000000000000000000000000000000000000000000000081565b34801561085757600080fd5b506103cd61086636600461229e565b611516565b34801561087757600080fd5b506103cd6108863660046121dc565b611576565b34801561089757600080fd5b506102d97f000000000000000000000000000000000000000000000000000000000000000081565b3480156108cb57600080fd5b506103076108da3660046123ea565b6115ac565b3480156108eb57600080fd5b506103cd6108fa3660046122b7565b6115b8565b60606000600360019054906101000a90046001600160a01b03166001600160a01b03166306fdde036040518163ffffffff1660e01b8152600401600060405180830381865afa158015610956573d6000803e3d6000fd5b505050506040513d6000823e601f3d908101601f1916820160405261097e9190810190612435565b905061098a6004541590565b156109b557806040516020016109a091906124e2565b60405160208183030381529060405291505090565b806040516020016109a0919061250a565b60006109d33384846115eb565b5060015b92915050565b6000600360019054906101000a90046001600160a01b03166001600160a01b0316633a98ef396040518163ffffffff1660e01b8152600401602060405180830381865afa158015610a32573d6000803e3d6000fd5b505050506040513d601f19601f82011682018060405250810190610a569190612538565b905090565b600654610a70906001600160a01b031661164d565b610a786109dd565b81610a8260025490565b610a8c9190612567565b1115610ad557610a9a6109dd565b81610aa460025490565b610aae9190612567565b604051630429590f60e41b8152600481019290925260248201526044015b60405180910390fd5b610adf8282611678565b5050565b6000610af08484846117e5565b6001600160a01b0384166000908152600160209081526040808320338452909152902054600160ff1b811015610b4f57610b2a838261257a565b6001600160a01b03861660009081526001602090815260408083203384529091529020555b60019150505b9392505050565b610b76610b716006546001600160a01b031690565b61164d565b6040516332a7ae9560e01b81526001600160a01b0382811660048301527f000000000000000000000000000000000000000000000000000000000000000016906332a7ae95906024015b600060405180830381600087803b158015610bda57600080fd5b505af1158015610bee573d6000803e3d6000fd5b5050505050565b600554610c0a906001600160a01b031661164d565b600580546001600160a01b0319169055565b604080517f47e79534a245952e8b16893a336b85a3d9ea9fa8c573f3d803afb92a794692186020820152469181019190915230606082015260009060800160405160208183030381529060405280519060200120905090565b6000610c818585611078565b8015610cfd5750604051635260769b60e11b81526001600160a01b0386169063a4c0ed3690610cba90339088908890889060040161258d565b6020604051808303816000875af1158015610cd9573d6000803e3d6000fd5b505050506040513d601f19601f82011682018060405250810190610cfd91906125d5565b95945050505050565b610d103382611849565b6003546001600160a01b03610100909104166342966c68610d316004541590565b610d4757600454610d4290846125f7565b610d49565b825b6040518263ffffffff1660e01b8152600401610bc091815260200190565b600554610d7c906001600160a01b031661164d565b610d88816001806118bd565b50565b610db47f000000000000000000000000000000000000000000000000000000000000000061164d565b610adf8282610dc285610dc7565b6117e5565b6001600160a01b03166000908152602081905260409020546001600160e01b031690565b600080610df783611921565b90508015610e055792915050565b6000610e116004541590565b610e1d57600454610e20565b60015b6003549091506001600160a01b03610100909104811690851603610e45579392505050565b6003546040516377e071ad60e01b81526001600160a01b0386811660048301528392610100900416906377e071ad90602401602060405180830381865afa158015610e94573d6000803e3d6000fd5b505050506040513d601f19601f82011682018060405250810190610eb89190612538565b610ec291906125f7565b949350505050565b50919050565b600654610ee5906001600160a01b031661164d565b600a610ef2828483612690565b507fe9f2468ecc8d3dff15a70a5909151e6297cee4cf05268eff3d7ef0c696ec50f2600a604051610f239190612750565b60405180910390a15050565b600654610f44906001600160a01b031661164d565b600680546001600160a01b0319166001600160a01b0383169081179091556040519081527fc3977c9522c218453912bcab15964a7788968fbf3fe4d4e2965252c9f07055de9060200160405180910390a150565b610fa3336000611678565b565b6060600360019054906101000a90046001600160a01b03166001600160a01b03166395d89b416040518163ffffffff1660e01b8152600401600060405180830381865afa158015610ffa573d6000803e3d6000fd5b505050506040513d6000823e601f3d908101601f191682016040526110229190810190612435565b60405160200161103291906127db565b604051602081830303815290604052905090565b6003546000906110639061010090046001600160a01b031661164d565b61106d8585611966565b506001949350505050565b6000610b5583836119d2565b6003546110a19061010090046001600160a01b0316333084611a71565b610adf8282611966565b60006109d782610dc7565b6110df7f000000000000000000000000000000000000000000000000000000000000000061164d565b610d8881600a60016118bd565b600a80546110f99061260e565b80601f01602080910402602001604051908101604052809291908181526020018280546111259061260e565b80156111725780601f1061114757610100808354040283529160200191611172565b820191906000526020600020905b81548152906001019060200180831161115557829003601f168201915b505050505081565b428410156111a457604051630b99fc4b60e31b815260048101859052426024820152604401610acc565b600060016111b0610c1c565b6001600160a01b038a811660008181526009602090815260409182902080546001810190915582517f6e71edae12b1b97f4d1f60370fef10105fa2faae0126114a169c64845d6126c98184015280840194909452938d166060840152608083018c905260a083019390935260c08083018b90528151808403909101815260e08301909152805192019190912061190160f01b6101008301526101028201929092526101228101919091526101420160408051601f198184030181528282528051602091820120600084529083018083525260ff871690820152606081018590526080810184905260a0016020604051602081039080840390855afa1580156112bc573d6000803e3d6000fd5b5050604051601f1901519150506001600160a01b03811615806112f15750876001600160a01b0316816001600160a01b031614155b1561131a57604051632f52260d60e11b81526001600160a01b0382166004820152602401610acc565b6113258188886115eb565b5050505050505050565b600161133b6004541590565b151581151514611382578015611364576040516305a34cd360e01b815260040160405180910390fd5b806113825760405163291c3d8560e01b815260040160405180910390fd5b604051634dc5e43160e01b815260048101859052336024820152604481018490526001600160a01b0383811660648301527f000000000000000000000000000000000000000000000000000000000000000060848301527f000000000000000000000000000000000000000000000000000000000000000060a48301526000917f000000000000000000000000000000000000000000000000000000000000000090911690634dc5e43190349060c40160206040518083038185885af1158015611450573d6000803e3d6000fd5b50505050506040513d601f19601f820116820180604052508101906114759190612800565b905061148b6005546001600160a01b0316151590565b156114f057600554604051637b64620f60e11b81526001600160a01b0383811660048301529091169063f6c8c41e90602401600060405180830381600087803b1580156114d757600080fd5b505af11580156114eb573d6000803e3d6000fd5b505050505b600580546001600160a01b0319166001600160a01b039290921691909117905550505050565b60006115226004541590565b15158115151461156957801561154b576040516305a34cd360e01b815260040160405180910390fd5b806115695760405163291c3d8560e01b815260040160405180910390fd5b610adf3383600454611ade565b61159f7f000000000000000000000000000000000000000000000000000000000000000061164d565b610d8881600a60006118bd565b6000610b558383611b13565b6005546115cd906001600160a01b031661164d565b6115e1826115da84610dc7565b6001611ade565b610adf8183611b53565b6001600160a01b0383811660008181526001602090815260408083209487168084529482529182902085905590518481527f8c5be1e5ebec7d5bd14f71427d1e84f3dd0314c0f7b2291e5b200ac8c7c3b92591015b60405180910390a3505050565b336001600160a01b03821614610d8857604051634b637e8f60e11b8152336004820152602401610acc565b600061168383610dc7565b61168d9083612567565b905060006116996109dd565b9050808211156116c657604051630429590f60e41b81526004810182905260248101839052604401610acc565b6005546001600160a01b0316156116f0576040516331dec02560e21b815260040160405180910390fd5b61171a7f0000000000000000000000000000000000000000000000000000000000000000826125f7565b611726612710846125f7565b1015611784576117567f0000000000000000000000000000000000000000000000000000000000000000826125f7565b611762612710846125f7565b604051634b2737cf60e11b815260048101929092526024820152604401610acc565b61178e8485611b53565b604080516001600160a01b038616815260208101849052908101849052606081018290527f85e5711a70a7d2bae18e1232af474d82c98600b0e62fe079a28208520b58568e9060800160405180910390a150505050565b6117f0838383611d16565b6117fa8382611d21565b6118048282611dbe565b816001600160a01b0316836001600160a01b03167fddf252ad1be2c89b69c2b068fc378daa952ba7f163c4a11628f55a4df523b3ef8360405161164091815260200190565b61185582600083611d16565b8060026000828254611867919061257a565b9091555061187790508282611d21565b6040518181526000906001600160a01b038416907fddf252ad1be2c89b69c2b068fc378daa952ba7f163c4a11628f55a4df523b3ef906020015b60405180910390a35050565b60006118ca8360e061281d565b6001600160a01b038516600090815260208190526040902054600160ff929092169190911b9150808216821483151514610bee576001600160a01b0394909416600090815260208190526040902093189092555050565b6000306001600160a01b0383160361193b57506001919050565b6007546001600160a01b039081169083160361195957505060085490565b506000919050565b919050565b61197260008383611d16565b80600260008282546119849190612567565b9091555061199490508282611dbe565b6040518181526001600160a01b038316906000907fddf252ad1be2c89b69c2b068fc378daa952ba7f163c4a11628f55a4df523b3ef906020016118b1565b60006119de8383611e63565b506119ea33600a611b13565b156109d3576040516304d301a360e41b81523360048201527f00000000000000000000000000000000000000000000000000000000000000006001600160a01b031690634d301a3090602401600060405180830381600087803b158015611a5057600080fd5b505af1158015611a64573d6000803e3d6000fd5b5050505050600192915050565b6040516001600160a01b038481166024830152838116604483015260648201839052611ad89186918216906323b872dd906084015b604051602081830303815290604052915060e01b6020820180516001600160e01b038381831617835250505050611e70565b50505050565b611ae88383611849565b611b0e83611af683856125f7565b60035461010090046001600160a01b03169190611ed3565b505050565b600080611b218360e061281d565b6001600160a01b038516600090815260208190526040902054600160ff929092169190911b9081161491505092915050565b6001611b5f6004541590565b151581151514611ba6578015611b88576040516305a34cd360e01b815260040160405180910390fd5b80611ba65760405163291c3d8560e01b815260040160405180910390fd5b6003546040516370a0823160e01b8152306004820152611c1c9184916101009091046001600160a01b0316906370a0823190602401602060405180830381865afa158015611bf8573d6000803e3d6000fd5b505050506040513d601f19601f82011682018060405250810190611af69190612538565b60038054610100600160a81b0319166101006001600160a01b0386160217905560025460001015611cca57611cca611c5360025490565b6040516370a0823160e01b81523060048201526001600160a01b038616906370a0823190602401602060405180830381865afa158015611c97573d6000803e3d6000fd5b505050506040513d601f19601f82011682018060405250810190611cbb9190612538565b611cc59190612836565b611f04565b7f6c20b91d1723b78732eba64ff11ebd7966a6e4af568a00fa4f6b72c20f58b02a611cf36108ff565b611cfb610fa5565b604051611d09929190612858565b60405180910390a1505050565b611b0e838383611f2a565b6001600160a01b03821660009081526020819052604081205490611d45838361257a565b90506001600160e01b031981166001600160e01b0319831614611d9d5783611d6c85610dc7565b60405163391434e360e21b81526001600160a01b039092166004830152602482015260448101849052606401610acc565b6001600160a01b039093166000908152602081905260409020929092555050565b6001600160a01b038216611df05760405163ec442f0560e01b81526001600160a01b0383166004820152602401610acc565b6001600160a01b03821660009081526020819052604081205490611e148383612567565b90506001600160e01b031981166001600160e01b0319831614611d9d57604051634a2e08e560e01b81526001600160a01b03851660048201526024810183905260448101849052606401610acc565b60006109d33384846117e5565b6000611e856001600160a01b03841683611fe5565b90508051600014158015611eaa575080806020019051810190611ea891906125d5565b155b15611b0e57604051635274afe760e01b81526001600160a01b0384166004820152602401610acc565b6040516001600160a01b03838116602483015260448201839052611b0e91859182169063a9059cbb90606401611aa6565b80600003611f2557604051631dca7a7560e11b815260040160405180910390fd5b600455565b611f3383611ff3565b80611f425750611f4282611ff3565b15611b0e576005546001600160a01b031615611fcb5760055460405163e1a1810f60e01b81526001600160a01b0385811660048301528481166024830152604482018490529091169063e1a1810f90606401600060405180830381600087803b158015611fae57600080fd5b505af1158015611fc2573d6000803e3d6000fd5b50505050505050565b611fd883600160006118bd565b611b0e82600160006118bd565b6060610b5583836000612000565b60006109d7826001611b13565b6060825160001415801561201c57506001600160a01b0384163b155b1561204557604051639eb1341360e01b81526001600160a01b0385166004820152602401610acc565b600080856001600160a01b03168486604051612061919061287d565b60006040518083038185875af1925050503d806000811461209e576040519150601f19603f3d011682016040523d82523d6000602084013e6120a3565b606091505b509150915081156120b7579150610b559050565b8051156120c657805160208201fd5b60405162461bcd60e51b815260206004820152600660248201526519985a5b195960d21b6044820152606401610acc565b60005b838110156121125781810151838201526020016120fa565b50506000910152565b600081518084526121338160208601602086016120f7565b601f01601f19169290920160200192915050565b602081526000610b55602083018461211b565b6001600160a01b0381168114610d8857600080fd5b6000806040838503121561218257600080fd5b823561218d8161215a565b946020939093013593505050565b6000806000606084860312156121b057600080fd5b83356121bb8161215a565b925060208401356121cb8161215a565b929592945050506040919091013590565b6000602082840312156121ee57600080fd5b8135610b558161215a565b60008083601f84011261220b57600080fd5b50813567ffffffffffffffff81111561222357600080fd5b60208301915083602082850101111561223b57600080fd5b9250929050565b6000806000806060858703121561225857600080fd5b84356122638161215a565b935060208501359250604085013567ffffffffffffffff81111561228657600080fd5b612292878288016121f9565b95989497509550505050565b6000602082840312156122b057600080fd5b5035919050565b600080604083850312156122ca57600080fd5b82356122d58161215a565b915060208301356122e58161215a565b809150509250929050565b6000806020838503121561230357600080fd5b823567ffffffffffffffff81111561231a57600080fd5b612326858286016121f9565b90969095509350505050565b803560ff8116811461196157600080fd5b600080600080600080600060e0888a03121561235e57600080fd5b87356123698161215a565b965060208801356123798161215a565b9550604088013594506060880135935061239560808901612332565b925060a0880135915060c0880135905092959891949750929550565b6000806000606084860312156123c657600080fd5b833592506020840135915060408401356123df8161215a565b809150509250925092565b600080604083850312156123fd57600080fd5b82356124088161215a565b915061241660208401612332565b90509250929050565b634e487b7160e01b600052604160045260246000fd5b60006020828403121561244757600080fd5b815167ffffffffffffffff8082111561245f57600080fd5b818401915084601f83011261247357600080fd5b8151818111156124855761248561241f565b604051601f8201601f19908116603f011681019083821181831017156124ad576124ad61241f565b816040528281528760208487010111156124c657600080fd5b6124d78360208301602088016120f7565b979650505050505050565b600082516124f48184602087016120f7565b632053484160e01b920191825250600401919050565b6000825161251c8184602087016120f7565b692028577261707065642960b01b920191825250600a01919050565b60006020828403121561254a57600080fd5b5051919050565b634e487b7160e01b600052601160045260246000fd5b808201808211156109d7576109d7612551565b818103818111156109d7576109d7612551565b6001600160a01b0385168152602081018490526060604082018190528101829052818360808301376000818301608090810191909152601f909201601f191601019392505050565b6000602082840312156125e757600080fd5b81518015158114610b5557600080fd5b80820281158282048414176109d7576109d7612551565b600181811c9082168061262257607f821691505b602082108103610eca57634e487b7160e01b600052602260045260246000fd5b601f821115611b0e57600081815260208120601f850160051c810160208610156126695750805b601f850160051c820191505b8181101561268857828155600101612675565b505050505050565b67ffffffffffffffff8311156126a8576126a861241f565b6126bc836126b6835461260e565b83612642565b6000601f8411600181146126f057600085156126d85750838201355b600019600387901b1c1916600186901b178355610bee565b600083815260209020601f19861690835b828110156127215786850135825560209485019460019092019101612701565b508682101561273e5760001960f88860031b161c19848701351681555b505060018560011b0183555050505050565b60006020808352600084546127648161260e565b80848701526040600180841660008114612785576001811461279f576127cd565b60ff1985168984015283151560051b8901830195506127cd565b896000528660002060005b858110156127c55781548b82018601529083019088016127aa565b8a0184019650505b509398975050505050505050565b600082516127ed8184602087016120f7565b605360f81b920191825250600101919050565b60006020828403121561281257600080fd5b8151610b558161215a565b60ff81811683821601908111156109d7576109d7612551565b60008261285357634e487b7160e01b600052601260045260246000fd5b500490565b60408152600061286b604083018561211b565b8281036020840152610cfd818561211b565b6000825161288f8184602087016120f7565b919091019291505056fea2646970667358221220ececb9e4052dc4f26bbe442ead6c1f40ed0a43a5e9367a378596320f43e3556b64736f6c63430008150033",
  "devdoc": {
    "author": "Luzius Meisser, luzius@aktionariat.com This is an ERC-20 token representing share tokens of CompanyName AG that are bound to a shareholder agreement that can be found at the URL defined in the constant 'terms'.",
    "errors": {
      "Address_NotTransferNorContract(address)": [
        {
          "params": {
            "target": "Target address to call the function on."
          }
        }
      ],
      "Draggable_QuorumNotReached(uint256,uint256)": [
        {
          "params": {
            "actual": "The current yes votes.",
            "needed": "The needed quorum."
          }
        }
      ],
      "Draggable_TooManyVotes(uint256,uint256)": [
        {
          "params": {
            "maxVotes": "The max voting tokens.",
            "reportedVotes": "The actual reported votes."
          }
        }
      ],
      "ERC20BalanceOverflow(address,uint256,uint256)": [
        {
          "params": {
            "amount": "The amount added, which result in the overflow. ",
            "balance": "The current balance of the receiver. ",
            "receiver": "The address were the balance overflows. "
          }
        }
      ],
      "Permit_DeadlineExpired(uint256,uint256)": [
        {
          "params": {
            "blockTimestamp": "The timestamp of the execution block.",
            "deadline": "The deadline of the permit."
          }
        }
      ],
      "Permit_InvalidSigner(address)": [
        {
          "params": {
            "signerAddress": "The recovered signer address."
          }
        }
      ],
      "SafeERC20FailedOperation(address)": [
        {
          "details": "An operation with an ERC20 token failed."
        }
      ]
    },
    "events": {
      "Approval(address,address,uint256)": {
        "details": "Emitted when the allowance of a `spender` for an `owner` is set by a call to `approve`. `value` is the new allowance."
      },
      "Transfer(address,address,uint256)": {
        "details": "Emitted when `value` tokens are moved from one account (`from`) to another (`to`). Note that `value` may be zero."
      }
    },
    "kind": "dev",
    "methods": {
      "DOMAIN_SEPARATOR()": {
        "details": "Returns the domain separator used in the encoding of the signature for {permit}, as defined by {EIP712}."
      },
      "allowance(address,address)": {
        "details": "See `IERC20.allowance`."
      },
      "approve(address,uint256)": {
        "details": "See `IERC20.approve`. Requirements: - `spender` cannot be the zero address."
      },
      "balanceOf(address)": {
        "details": "See `IERC20.balanceOf`."
      },
      "permit(address,address,uint256,uint256,uint8,bytes32,bytes32)": {
        "details": "Sets `value` as the allowance of `spender` over ``owner``'s tokens, given ``owner``'s signed approval. IMPORTANT: The same issues {IERC20-approve} has related to transaction ordering also apply here. Emits an {Approval} event. Requirements: - `spender` cannot be the zero address. - `deadline` must be a timestamp in the future. - `v`, `r` and `s` must be a valid `secp256k1` signature from `owner` over the EIP712-formatted function arguments. - the signature must use ``owner``'s current nonce (see {nonces}). For more information on the signature format, see the https://eips.ethereum.org/EIPS/eip-2612#specification[relevant EIP section]."
      },
      "setTerms(string)": {
        "params": {
          "_terms": "The new terms."
        }
      },
      "totalSupply()": {
        "details": "See `IERC20.totalSupply`."
      },
      "transferFrom(address,address,uint256)": {
        "details": "See `IERC20.transferFrom`. Emits an `Approval` event indicating the updated allowance. This is not required by the EIP. See the note at the beginning of `ERC20`; Requirements: - `sender` and `recipient` cannot be the zero address. - `sender` must have a balance of at least `value`. - the caller must have allowance for `sender`'s tokens of at least `amount`."
      }
    },
    "title": "CompanyName AG Shares SHA",
    "version": 1
  },
  "userdoc": {
    "errors": {
      "Draggable_FactorZero()": [
        {
          "notice": "conversion factor can't be 0 if binding gets deactivated."
        }
      ],
      "Draggable_IsBinding()": [
        {
          "notice": "conversion factor has to be = 0 for this transaction."
        }
      ],
      "Draggable_NotBinding()": [
        {
          "notice": "conversion factor has to be > 0 for this transaction."
        }
      ],
      "Draggable_OpenOffer()": [
        {
          "notice": "there is still an open offer that has to be canceled first"
        }
      ],
      "Draggable_QuorumNotReached(uint256,uint256)": [
        {
          "notice": "For migration the quorum needs to be reached."
        }
      ],
      "Draggable_TooManyVotes(uint256,uint256)": [
        {
          "notice": "the reported votes can't be > max voting tokens."
        }
      ],
      "ERC20BalanceOverflow(address,uint256,uint256)": [
        {
          "notice": "Overflow on minting, transfer. "
        }
      ],
      "Permit_DeadlineExpired(uint256,uint256)": [
        {
          "notice": "Block timestamp must to be before deadline."
        }
      ],
      "Permit_InvalidSigner(address)": [
        {
          "notice": "Recovered address must be owner and not zero address."
        }
      ],
      "Recoverable_RateZero()": [
        {
          "notice": "The new custom claim collateral rate has to be always > 0. "
        }
      ]
    },
    "events": {
      "ChangeTerms(string)": {
        "notice": "Event when the terms are changed with setTerms()."
      }
    },
    "kind": "user",
    "methods": {
      "burn(uint256)": {
        "notice": "Burns both the token itself as well as the wrapped token! If you want to get out of the shareholder agreement, use unwrap after it has been deactivated by a majority vote or acquisition. Burning only works if wrapped token supports burning. Also, the exact meaning of this operation might depend on the circumstances. Burning and reussing the wrapped token does not free the sender from the legal obligations of the shareholder agreement."
      },
      "getClaimDeleter()": {
        "notice": "Let the oracle act as deleter of invalid claims. In earlier versions, this was referring to the claim deleter of the wrapped token. But that stops working after a successful acquisition as the acquisition currency most likely does not have a claim deleter."
      },
      "getCollateralRate(address)": {
        "notice": "Returns the collateral rate for the given collateral type and 0 if that type of collateral is not accepted. By default, only the token itself is accepted at a rate of 1:1. Subclasses should override this method if they want to add additional types of collateral."
      },
      "isBinding()": {
        "notice": "Indicates that the token holders are bound to the token terms and that: - Conversion back to the wrapped token (unwrap) is not allowed - A drag-along can be performed by making an according offer - They can be migrated to a new version of this contract in accordance with the terms"
      },
      "name()": {
        "notice": "Current recommended naming convention is to add the postfix \"SHA\" to the plain shares in order to indicate that this token represents shares bound to a shareholder agreement."
      },
      "setTerms(string)": {
        "notice": "This function allows the oracle to set the terms."
      },
      "unwrap(uint256)": {
        "notice": "Decrease the number of drag-along tokens. The user gets back their shares in return "
      },
      "wrap(address,uint256)": {
        "notice": "Wraps additional tokens, thereby creating more ERC20Draggable tokens. "
      }
    },
    "version": 1
  },
  "storageLayout": {
    "storage": [
      {
        "astId": 547,
        "contract": "src/shares/DraggableShares.sol:DraggableShares",
        "label": "_balances",
        "offset": 0,
        "slot": "0",
        "type": "t_mapping(t_address,t_uint256)"
      },
      {
        "astId": 553,
        "contract": "src/shares/DraggableShares.sol:DraggableShares",
        "label": "_allowances",
        "offset": 0,
        "slot": "1",
        "type": "t_mapping(t_address,t_mapping(t_address,t_uint256))"
      },
      {
        "astId": 555,
        "contract": "src/shares/DraggableShares.sol:DraggableShares",
        "label": "_totalSupply",
        "offset": 0,
        "slot": "2",
        "type": "t_uint256"
      },
      {
        "astId": 558,
        "contract": "src/shares/DraggableShares.sol:DraggableShares",
        "label": "decimals",
        "offset": 0,
        "slot": "3",
        "type": "t_uint8"
      },
      {
        "astId": 5000,
        "contract": "src/shares/DraggableShares.sol:DraggableShares",
        "label": "wrapped",
        "offset": 1,
        "slot": "3",
        "type": "t_contract(IERC20)1376"
      },
      {
        "astId": 5006,
        "contract": "src/shares/DraggableShares.sol:DraggableShares",
        "label": "unwrapConversionFactor",
        "offset": 0,
        "slot": "4",
        "type": "t_uint256"
      },
      {
        "astId": 5010,
        "contract": "src/shares/DraggableShares.sol:DraggableShares",
        "label": "offer",
        "offset": 0,
        "slot": "5",
        "type": "t_contract(IOffer)5918"
      },
      {
        "astId": 5022,
        "contract": "src/shares/DraggableShares.sol:DraggableShares",
        "label": "oracle",
        "offset": 0,
        "slot": "6",
        "type": "t_address"
      },
      {
        "astId": 9034,
        "contract": "src/shares/DraggableShares.sol:DraggableShares",
        "label": "customCollateralAddress",
        "offset": 0,
        "slot": "7",
        "type": "t_contract(IERC20)1376"
      },
      {
        "astId": 9036,
        "contract": "src/shares/DraggableShares.sol:DraggableShares",
        "label": "customCollateralRate",
        "offset": 0,
        "slot": "8",
        "type": "t_uint256"
      },
      {
        "astId": 1172,
        "contract": "src/shares/DraggableShares.sol:DraggableShares",
        "label": "nonces",
        "offset": 0,
        "slot": "9",
        "type": "t_mapping(t_address,t_uint256)"
      },
      {
        "astId": 10160,
        "contract": "src/shares/DraggableShares.sol:DraggableShares",
        "label": "terms",
        "offset": 0,
        "slot": "10",
        "type": "t_string_storage"
      }
    ],
    "types": {
      "t_address": {
        "encoding": "inplace",
        "label": "address",
        "numberOfBytes": "20"
      },
      "t_contract(IERC20)1376": {
        "encoding": "inplace",
        "label": "contract IERC20",
        "numberOfBytes": "20"
      },
      "t_contract(IOffer)5918": {
        "encoding": "inplace",
        "label": "contract IOffer",
        "numberOfBytes": "20"
      },
      "t_mapping(t_address,t_mapping(t_address,t_uint256))": {
        "encoding": "mapping",
        "key": "t_address",
        "label": "mapping(address => mapping(address => uint256))",
        "numberOfBytes": "32",
        "value": "t_mapping(t_address,t_uint256)"
      },
      "t_mapping(t_address,t_uint256)": {
        "encoding": "mapping",
        "key": "t_address",
        "label": "mapping(address => uint256)",
        "numberOfBytes": "32",
        "value": "t_uint256"
      },
      "t_string_storage": {
        "encoding": "bytes",
        "label": "string",
        "numberOfBytes": "32"
      },
      "t_uint256": {
        "encoding": "inplace",
        "label": "uint256",
        "numberOfBytes": "32"
      },
      "t_uint8": {
        "encoding": "inplace",
        "label": "uint8",
        "numberOfBytes": "1"
      }
    }
  }
}