{
  "address": "0x0235FB5902b84885bA79BDbce417C49E3720eb2d",
  "abi": [
    {
      "inputs": [
        {
          "internalType": "address",
          "name": "_multiSigImplementation",
          "type": "address"
        }
      ],
      "stateMutability": "nonpayable",
      "type": "constructor"
    },
    {
      "anonymous": false,
      "inputs": [
        {
          "indexed": true,
          "internalType": "address",
          "name": "contractAddress",
          "type": "address"
        },
        {
          "indexed": true,
          "internalType": "string",
          "name": "typeName",
          "type": "string"
        }
      ],
      "name": "ContractCreated",
      "type": "event"
    },
    {
      "inputs": [
        {
          "internalType": "address",
          "name": "owner",
          "type": "address"
        },
        {
          "internalType": "bytes32",
          "name": "salt",
          "type": "bytes32"
        }
      ],
      "name": "create",
      "outputs": [
        {
          "internalType": "contract MultiSigWalletMaster",
          "name": "",
          "type": "address"
        }
      ],
      "stateMutability": "nonpayable",
      "type": "function"
    },
    {
      "inputs": [],
      "name": "multiSigImplementation",
      "outputs": [
        {
          "internalType": "address",
          "name": "",
          "type": "address"
        }
      ],
      "stateMutability": "view",
      "type": "function"
    },
    {
      "inputs": [
        {
          "internalType": "bytes32",
          "name": "salt",
          "type": "bytes32"
        }
      ],
      "name": "predict",
      "outputs": [
        {
          "internalType": "address",
          "name": "",
          "type": "address"
        }
      ],
      "stateMutability": "view",
      "type": "function"
    }
  ],
  "transactionHash": "0x9e0fa6baf2d35543dc2f10d44d70257e504d2b4730dbca8aef0f895e878b7a27",
  "args": [
    "0x4F32bb4703E56DbDaa892F671d63Faa2D8423e42"
  ],
  "numDeployments": 2,
  "solcInputHash": "52da0c8ebd6b37bb8f91e29cfaaf8064",
  "bytecode": "0x60a060405234801561001057600080fd5b506040516103fe3803806103fe83398101604081905261002f91610040565b6001600160a01b0316608052610070565b60006020828403121561005257600080fd5b81516001600160a01b038116811461006957600080fd5b9392505050565b60805161036861009660003960008181607a0152818160b6015260e901526103686000f3fe608060405234801561001057600080fd5b50600436106100415760003560e01c80630e787cce1461004657806364293af314610075578063a3def9231461009c575b600080fd5b6100596100543660046102e1565b6100af565b6040516001600160a01b03909116815260200160405180910390f35b6100597f000000000000000000000000000000000000000000000000000000000000000081565b6100596100aa3660046102fa565b6100e1565b60006100db7f0000000000000000000000000000000000000000000000000000000000000000836101d0565b92915050565b60008061010e7f00000000000000000000000000000000000000000000000000000000000000008461023d565b60405163189acdbd60e31b81526001600160a01b0386811660048301529192509082169063c4d66de890602401600060405180830381600087803b15801561015557600080fd5b505af1158015610169573d6000803e3d6000fd5b5050505060405161018e906d135d5b1d1a54da59d5d85b1b195d60921b8152600e0190565b604051908190038120906001600160a01b038316907f5748f17320a7bfc4dad968e541c61b9fa9923765f9efdfa3dffc76763e02d19690600090a39392505050565b6000610236838330604051733d602d80600a3d3981f3363d3d373d3d3d363d7360601b8152606093841b60148201526f5af43d82803e903d91602b57fd5bf3ff60801b6028820152921b6038830152604c8201526037808220606c830152605591012090565b9392505050565b6000604051733d602d80600a3d3981f3363d3d373d3d3d363d7360601b81528360601b60148201526e5af43d82803e903d91602b57fd5bf360881b6028820152826037826000f59150506001600160a01b0381166100db5760405162461bcd60e51b815260206004820152601760248201527f455243313136373a2063726561746532206661696c6564000000000000000000604482015260640160405180910390fd5b6000602082840312156102f357600080fd5b5035919050565b6000806040838503121561030d57600080fd5b82356001600160a01b038116811461032457600080fd5b94602093909301359350505056fea26469706673582212205d57db98e42109921ae2c8368929a9fc9327d669bfaeb322da7652bac381fe4164736f6c63430008150033",
  "devdoc": {
    "kind": "dev",
    "methods": {},
    "version": 1
  },
  "userdoc": {
    "kind": "user",
    "methods": {},
    "version": 1
  },
  "storageLayout": {
    "storage": [],
    "types": null
  }
}