{
  "address": "0x4d13BB70c48b2fa7115A2e4025994a1617873407",
  "abi": [
    {
      "inputs": [
        {
          "internalType": "address",
          "name": "currency_",
          "type": "address"
        }
      ],
      "stateMutability": "nonpayable",
      "type": "constructor"
    },
    {
      "inputs": [],
      "name": "currency",
      "outputs": [
        {
          "internalType": "address",
          "name": "",
          "type": "address"
        }
      ],
      "stateMutability": "view",
      "type": "function"
    },
    {
      "inputs": [
        {
          "internalType": "address",
          "name": "token",
          "type": "address"
        },
        {
          "internalType": "address[]",
          "name": "recipients",
          "type": "address[]"
        },
        {
          "internalType": "uint256[]",
          "name": "amounts",
          "type": "uint256[]"
        }
      ],
      "name": "multiPay",
      "outputs": [],
      "stateMutability": "nonpayable",
      "type": "function"
    },
    {
      "inputs": [
        {
          "internalType": "address[]",
          "name": "recipients",
          "type": "address[]"
        },
        {
          "internalType": "uint256[]",
          "name": "amounts",
          "type": "uint256[]"
        }
      ],
      "name": "multiPay",
      "outputs": [],
      "stateMutability": "nonpayable",
      "type": "function"
    },
    {
      "inputs": [
        {
          "internalType": "address",
          "name": "token",
          "type": "address"
        },
        {
          "internalType": "address[]",
          "name": "recipients",
          "type": "address[]"
        },
        {
          "internalType": "uint256[]",
          "name": "amounts",
          "type": "uint256[]"
        },
        {
          "internalType": "bytes",
          "name": "ref",
          "type": "bytes"
        }
      ],
      "name": "multiPayAndNotify",
      "outputs": [],
      "stateMutability": "nonpayable",
      "type": "function"
    },
    {
      "inputs": [
        {
          "internalType": "address",
          "name": "recipient",
          "type": "address"
        },
        {
          "internalType": "uint256",
          "name": "xchfamount",
          "type": "uint256"
        },
        {
          "internalType": "bytes",
          "name": "ref",
          "type": "bytes"
        }
      ],
      "name": "payAndNotify",
      "outputs": [],
      "stateMutability": "nonpayable",
      "type": "function"
    },
    {
      "inputs": [
        {
          "internalType": "address",
          "name": "token",
          "type": "address"
        },
        {
          "internalType": "address",
          "name": "recipient",
          "type": "address"
        },
        {
          "internalType": "uint256",
          "name": "amount",
          "type": "uint256"
        },
        {
          "internalType": "bytes",
          "name": "ref",
          "type": "bytes"
        }
      ],
      "name": "payAndNotify",
      "outputs": [],
      "stateMutability": "nonpayable",
      "type": "function"
    },
    {
      "inputs": [
        {
          "internalType": "address",
          "name": "ercAddress",
          "type": "address"
        },
        {
          "internalType": "address",
          "name": "to",
          "type": "address"
        },
        {
          "internalType": "uint256",
          "name": "amount",
          "type": "uint256"
        }
      ],
      "name": "recover",
      "outputs": [],
      "stateMutability": "nonpayable",
      "type": "function"
    },
    {
      "stateMutability": "payable",
      "type": "receive"
    }
  ],
  "transactionHash": "0xc8f2f82a758126da231d9b6ea0af4dffc2056e078d88cc0211f6b41d06ff36a7",
  "args": [
    "0xB4272071eCAdd69d933AdcD19cA99fe80664fc08"
  ],
  "solcInputHash": "6ed57816ebd3ad9c044f28152aee38fd",
  "bytecode": "0x60a060405234801561001057600080fd5b506040516109b13803806109b183398101604081905261002f91610044565b60601b6001600160601b031916608052610074565b60006020828403121561005657600080fd5b81516001600160a01b038116811461006d57600080fd5b9392505050565b60805160601c6109116100a0600039600081816101540152818161019701526103bc01526109116000f3fe6080604052600436106100745760003560e01c8063568f32541161004e578063568f3254146100e25780639520bd4614610102578063d3b3ca7714610122578063e5a6b10f1461014257600080fd5b806317f565d2146100805780631c9af2e3146100a25780631ec82cb8146100c257600080fd5b3661007b57005b600080fd5b34801561008c57600080fd5b506100a061009b36600461076c565b610192565b005b3480156100ae57600080fd5b506100a06100bd366004610651565b6101c5565b3480156100ce57600080fd5b506100a06100dd3660046105a6565b6102c3565b3480156100ee57600080fd5b506100a06100fd3660046106c1565b610345565b34801561010e57600080fd5b506100a061011d3660046107c6565b6103b7565b34801561012e57600080fd5b506100a061013d3660046105e2565b6103e4565b34801561014e57600080fd5b506101767f000000000000000000000000000000000000000000000000000000000000000081565b6040516001600160a01b03909116815260200160405180910390f35b6101bf7f0000000000000000000000000000000000000000000000000000000000000000858585856103e4565b50505050565b60005b838110156102bb57856001600160a01b03166323b872dd338787858181106101f2576101f26108c5565b90506020020160208101906102079190610584565b868686818110610219576102196108c5565b6040516001600160e01b031960e088901b1681526001600160a01b03958616600482015294909316602485015250602090910201356044820152606401602060405180830381600087803b15801561027057600080fd5b505af1158015610284573d6000803e3d6000fd5b505050506040513d601f19601f820116820180604052508101906102a89190610826565b50806102b38161089c565b9150506101c8565b505050505050565b60405163a9059cbb60e01b81526001600160a01b0383811660048301526024820183905284169063a9059cbb90604401602060405180830381600087803b15801561030d57600080fd5b505af1158015610321573d6000803e3d6000fd5b505050506040513d601f19601f820116820180604052508101906101bf9190610826565b60005b858110156103ad5761039b88888884818110610366576103666108c5565b905060200201602081019061037b9190610584565b87878581811061038d5761038d6108c5565b9050602002013586866103e4565b806103a58161089c565b915050610348565b5050505050505050565b6101bf7f0000000000000000000000000000000000000000000000000000000000000000858585856101c5565b6040516323b872dd60e01b81523360048201526001600160a01b038581166024830152604482018590528616906323b872dd90606401602060405180830381600087803b15801561043457600080fd5b505af1158015610448573d6000803e3d6000fd5b505050506040513d601f19601f8201168201806040525081019061046c9190610826565b50604051631afc0d9560e31b81526001600160a01b0385169063d7e06ca8906104a19088903390889088908890600401610848565b600060405180830381600087803b1580156104bb57600080fd5b505af11580156104cf573d6000803e3d6000fd5b505050505050505050565b80356001600160a01b03811681146104f157600080fd5b919050565b60008083601f84011261050857600080fd5b50813567ffffffffffffffff81111561052057600080fd5b6020830191508360208260051b850101111561053b57600080fd5b9250929050565b60008083601f84011261055457600080fd5b50813567ffffffffffffffff81111561056c57600080fd5b60208301915083602082850101111561053b57600080fd5b60006020828403121561059657600080fd5b61059f826104da565b9392505050565b6000806000606084860312156105bb57600080fd5b6105c4846104da565b92506105d2602085016104da565b9150604084013590509250925092565b6000806000806000608086880312156105fa57600080fd5b610603866104da565b9450610611602087016104da565b935060408601359250606086013567ffffffffffffffff81111561063457600080fd5b61064088828901610542565b969995985093965092949392505050565b60008060008060006060868803121561066957600080fd5b610672866104da565b9450602086013567ffffffffffffffff8082111561068f57600080fd5b61069b89838a016104f6565b909650945060408801359150808211156106b457600080fd5b50610640888289016104f6565b60008060008060008060006080888a0312156106dc57600080fd5b6106e5886104da565b9650602088013567ffffffffffffffff8082111561070257600080fd5b61070e8b838c016104f6565b909850965060408a013591508082111561072757600080fd5b6107338b838c016104f6565b909650945060608a013591508082111561074c57600080fd5b506107598a828b01610542565b989b979a50959850939692959293505050565b6000806000806060858703121561078257600080fd5b61078b856104da565b935060208501359250604085013567ffffffffffffffff8111156107ae57600080fd5b6107ba87828801610542565b95989497509550505050565b600080600080604085870312156107dc57600080fd5b843567ffffffffffffffff808211156107f457600080fd5b610800888389016104f6565b9096509450602087013591508082111561081957600080fd5b506107ba878288016104f6565b60006020828403121561083857600080fd5b8151801515811461059f57600080fd5b6001600160a01b038681168252851660208201526040810184905260806060820181905281018290526000828460a0840137600060a0848401015260a0601f19601f85011683010190509695505050505050565b60006000198214156108be57634e487b7160e01b600052601160045260246000fd5b5060010190565b634e487b7160e01b600052603260045260246000fdfea26469706673582212204c3145317ce9a9a2cc15ebced0919a21afdb9315473355dd3e61875bc8618ef464736f6c63430008070033",
  "devdoc": {
    "kind": "dev",
    "methods": {},
    "version": 1
  },
  "userdoc": {
    "kind": "user",
    "methods": {
      "multiPay(address[],uint256[])": {
        "notice": "Convenience method to swap ether into currency and pay a target address"
      },
      "multiPayAndNotify(address,address[],uint256[],bytes)": {
        "notice": "Can (at least in theory) save some gas as the sender balance only is touched in one transaction."
      },
      "recover(address,address,uint256)": {
        "notice": "In case tokens have been accidentally sent directly to this contract. Make sure to be fast as anyone can call this!"
      }
    },
    "notice": "A hub for payments. This allows tokens that do not support ERC 677 to enjoy similar functionality, namely interacting with a token-handling smart contract in one transaction, without having to set an allowance first. Instead, an allowance needs to be set only once, namely for this contract. Further, it supports automatic conversion from Ether to the payment currency through Uniswap.",
    "version": 1
  },
  "storageLayout": {
    "storage": [],
    "types": null
  }
}