{
  "address": "0xCb1D5644297502812f9545e5C6d6C6479d0d1666",
  "abi": [
    {
      "inputs": [
        {
          "internalType": "address",
          "name": "_currency",
          "type": "address"
        },
        {
          "internalType": "contract IDMMRouter02",
          "name": "_dmmRouter",
          "type": "address"
        }
      ],
      "stateMutability": "nonpayable",
      "type": "constructor"
    },
    {
      "inputs": [],
      "name": "currency",
      "outputs": [
        {
          "internalType": "address",
          "name": "",
          "type": "address"
        }
      ],
      "stateMutability": "view",
      "type": "function"
    },
    {
      "inputs": [],
      "name": "dmmRouter",
      "outputs": [
        {
          "internalType": "contract IDMMRouter02",
          "name": "",
          "type": "address"
        }
      ],
      "stateMutability": "view",
      "type": "function"
    },
    {
      "inputs": [
        {
          "internalType": "uint256",
          "name": "amountOfBaseCurrency",
          "type": "uint256"
        }
      ],
      "name": "getPriceInEther",
      "outputs": [
        {
          "internalType": "uint256[]",
          "name": "amounts",
          "type": "uint256[]"
        }
      ],
      "stateMutability": "view",
      "type": "function"
    },
    {
      "inputs": [
        {
          "internalType": "address",
          "name": "token",
          "type": "address"
        },
        {
          "internalType": "address[]",
          "name": "recipients",
          "type": "address[]"
        },
        {
          "internalType": "uint256[]",
          "name": "amounts",
          "type": "uint256[]"
        }
      ],
      "name": "multiPay",
      "outputs": [],
      "stateMutability": "nonpayable",
      "type": "function"
    },
    {
      "inputs": [
        {
          "internalType": "address[]",
          "name": "recipients",
          "type": "address[]"
        },
        {
          "internalType": "uint256[]",
          "name": "amounts",
          "type": "uint256[]"
        }
      ],
      "name": "multiPay",
      "outputs": [],
      "stateMutability": "nonpayable",
      "type": "function"
    },
    {
      "inputs": [
        {
          "internalType": "address",
          "name": "token",
          "type": "address"
        },
        {
          "internalType": "address[]",
          "name": "recipients",
          "type": "address[]"
        },
        {
          "internalType": "uint256[]",
          "name": "amounts",
          "type": "uint256[]"
        },
        {
          "internalType": "bytes",
          "name": "ref",
          "type": "bytes"
        }
      ],
      "name": "multiPayAndNotify",
      "outputs": [],
      "stateMutability": "nonpayable",
      "type": "function"
    },
    {
      "inputs": [
        {
          "internalType": "address",
          "name": "recipient",
          "type": "address"
        },
        {
          "internalType": "uint256",
          "name": "baseCurrencyAmount",
          "type": "uint256"
        },
        {
          "internalType": "bytes",
          "name": "ref",
          "type": "bytes"
        }
      ],
      "name": "payAndNotify",
      "outputs": [],
      "stateMutability": "nonpayable",
      "type": "function"
    },
    {
      "inputs": [
        {
          "internalType": "address",
          "name": "token",
          "type": "address"
        },
        {
          "internalType": "address",
          "name": "recipient",
          "type": "address"
        },
        {
          "internalType": "uint256",
          "name": "amount",
          "type": "uint256"
        },
        {
          "internalType": "bytes",
          "name": "ref",
          "type": "bytes"
        }
      ],
      "name": "payAndNotify",
      "outputs": [],
      "stateMutability": "nonpayable",
      "type": "function"
    },
    {
      "inputs": [
        {
          "internalType": "address",
          "name": "recipient",
          "type": "address"
        },
        {
          "internalType": "uint256",
          "name": "baseCurrencyAmount",
          "type": "uint256"
        }
      ],
      "name": "payFromEther",
      "outputs": [],
      "stateMutability": "payable",
      "type": "function"
    },
    {
      "inputs": [
        {
          "internalType": "address",
          "name": "recipient",
          "type": "address"
        },
        {
          "internalType": "uint256",
          "name": "baseCurrencyAmount",
          "type": "uint256"
        },
        {
          "internalType": "bytes",
          "name": "ref",
          "type": "bytes"
        }
      ],
      "name": "payFromEtherAndNotify",
      "outputs": [],
      "stateMutability": "payable",
      "type": "function"
    },
    {
      "inputs": [
        {
          "internalType": "address",
          "name": "ercAddress",
          "type": "address"
        },
        {
          "internalType": "address",
          "name": "to",
          "type": "address"
        },
        {
          "internalType": "uint256",
          "name": "amount",
          "type": "uint256"
        }
      ],
      "name": "recover",
      "outputs": [],
      "stateMutability": "nonpayable",
      "type": "function"
    },
    {
      "stateMutability": "payable",
      "type": "receive"
    }
  ],
  "transactionHash": "0x4a1636c270bd474c81270d4ac95b49026d383aed590aa2d274c589add8e27193",
  "args": [
    "0x2791bca1f2de4661ed88a30c99a7a9449aa84174",
    "0x546C79662E028B661dFB4767664d0273184E4dD1"
  ],
  "solcInputHash": "f6cefe93f3f81fcac82983953f6b38dd",
  "bytecode": "0x60a060405234801561001057600080fd5b506040516114d33803806114d383398101604081905261002f91610064565b600080546001600160a01b0319166001600160a01b039290921691909117905560601b6001600160601b0319166080526100b6565b6000806040838503121561007757600080fd5b82516100828161009e565b60208401519092506100938161009e565b809150509250929050565b6001600160a01b03811681146100b357600080fd5b50565b60805160601c6113d56100fe6000396000818161021001528181610256015281816102c3015281816104de0152818161059f0152818161091d0152610b9601526113d56000f3fe6080604052600436106100a05760003560e01c8063568f325411610064578063568f32541461015e5780639520bd461461017e578063ae539d801461019e578063b5a1ad92146101cb578063d3b3ca77146101de578063e5a6b10f146101fe57600080fd5b8063040c037a146100ac57806317f565d2146100c157806319ca9178146100e15780631c9af2e31461011e5780631ec82cb81461013e57600080fd5b366100a757005b600080fd5b6100bf6100ba366004611015565b610232565b005b3480156100cd57600080fd5b506100bf6100dc366004611015565b6102be565b3480156100ed57600080fd5b50600054610101906001600160a01b031681565b6040516001600160a01b0390911681526020015b60405180910390f35b34801561012a57600080fd5b506100bf610139366004610eca565b6102f1565b34801561014a57600080fd5b506100bf610159366004610e16565b6103ef565b34801561016a57600080fd5b506100bf610179366004610f3c565b610471565b34801561018a57600080fd5b506100bf610199366004611071565b6104d9565b3480156101aa57600080fd5b506101be6101b93660046111b8565b610506565b6040516101159190611269565b6100bf6101d9366004610fe9565b610654565b3480156101ea57600080fd5b506100bf6101f9366004610e57565b6109c2565b34801561020a57600080fd5b506101017f000000000000000000000000000000000000000000000000000000000000000081565b604051631afc0d9560e31b81526001600160a01b0385169063d7e06ca890610286907f0000000000000000000000000000000000000000000000000000000000000000903390889088908890600401611215565b600060405180830381600087803b1580156102a057600080fd5b505af11580156102b4573d6000803e3d6000fd5b5050505050505050565b6102eb7f0000000000000000000000000000000000000000000000000000000000000000858585856109c2565b50505050565b60005b838110156103e757856001600160a01b03166323b872dd3387878581811061031e5761031e61135b565b90506020020160208101906103339190610dd5565b8686868181106103455761034561135b565b6040516001600160e01b031960e088901b1681526001600160a01b03958616600482015294909316602485015250602090910201356044820152606401602060405180830381600087803b15801561039c57600080fd5b505af11580156103b0573d6000803e3d6000fd5b505050506040513d601f19601f820116820180604052508101906103d49190611196565b50806103df81611332565b9150506102f4565b505050505050565b60405163a9059cbb60e01b81526001600160a01b0383811660048301526024820183905284169063a9059cbb90604401602060405180830381600087803b15801561043957600080fd5b505af115801561044d573d6000803e3d6000fd5b505050506040513d601f19601f820116820180604052508101906102eb9190611196565b60005b858110156102b4576104c7888888848181106104925761049261135b565b90506020020160208101906104a79190610dd5565b8787858181106104b9576104b961135b565b9050602002013586866109c2565b806104d181611332565b915050610474565b6102eb7f0000000000000000000000000000000000000000000000000000000000000000858585856102f1565b60606000610512610ab8565b905060006105c360008054906101000a90046001600160a01b03166001600160a01b0316633fc8cef36040518163ffffffff1660e01b815260040160206040518083038186803b15801561056557600080fd5b505afa158015610579573d6000803e3d6000fd5b505050506040513d601f19601f8201168201806040525081019061059d9190610df9565b7f0000000000000000000000000000000000000000000000000000000000000000610be5565b6000546040516313c4d36d60e31b81529192506001600160a01b031690639e269b68906105f8908790859087906004016112ad565b60006040518083038186803b15801561061057600080fd5b505afa158015610624573d6000803e3d6000fd5b505050506040513d6000823e601f3d908101601f1916820160405261064c91908101906110d1565b949350505050565b60008060009054906101000a90046001600160a01b03166001600160a01b0316633fc8cef36040518163ffffffff1660e01b815260040160206040518083038186803b1580156106a357600080fd5b505afa1580156106b7573d6000803e3d6000fd5b505050506040513d601f19601f820116820180604052508101906106db9190610df9565b905060006106e883610506565b9050816001600160a01b03166323b872dd33308460008151811061070e5761070e61135b565b60209081029190910101516040516001600160e01b031960e086901b1681526001600160a01b0393841660048201529290911660248301526044820152606401602060405180830381600087803b15801561076857600080fd5b505af115801561077c573d6000803e3d6000fd5b505050506040513d601f19601f820116820180604052508101906107a09190611196565b6107e75760405162461bcd60e51b81526020600482015260136024820152721d1c985b9cd9995c919c9bdb4819985a5b1959606a1b60448201526064015b60405180910390fd5b816001600160a01b031663095ea7b360008054906101000a90046001600160a01b03168360008151811061081d5761081d61135b565b60200260200101516040518363ffffffff1660e01b81526004016108569291906001600160a01b03929092168252602082015260400190565b602060405180830381600087803b15801561087057600080fd5b505af1158015610884573d6000803e3d6000fd5b505050506040513d601f19601f820116820180604052508101906108a89190611196565b6108e55760405162461bcd60e51b815260206004820152600e60248201526d185c1c1c9bdd994819985a5b195960921b60448201526064016107de565b6000805482516001600160a01b039091169063ae8290b79086908590859061090f5761090f61135b565b6020026020010151610941877f0000000000000000000000000000000000000000000000000000000000000000610be5565b610949610ab8565b8a426040518763ffffffff1660e01b815260040161096c969594939291906112e2565b600060405180830381600087803b15801561098657600080fd5b505af115801561099a573d6000803e3d6000fd5b505050506040513d6000823e601f3d908101601f191682016040526103e791908101906110d1565b6040516323b872dd60e01b81523360048201526001600160a01b038581166024830152604482018590528616906323b872dd90606401602060405180830381600087803b158015610a1257600080fd5b505af1158015610a26573d6000803e3d6000fd5b505050506040513d601f19601f82011682018060405250810190610a4a9190611196565b50604051631afc0d9560e31b81526001600160a01b0385169063d7e06ca890610a7f9088903390889088908890600401611215565b600060405180830381600087803b158015610a9957600080fd5b505af1158015610aad573d6000803e3d6000fd5b505050505050505050565b6040805160028082526060808301845292600092919060208301908036833701905050905060008054906101000a90046001600160a01b03166001600160a01b0316633fc8cef36040518163ffffffff1660e01b815260040160206040518083038186803b158015610b2957600080fd5b505afa158015610b3d573d6000803e3d6000fd5b505050506040513d601f19601f82011682018060405250810190610b619190610df9565b81600081518110610b7457610b7461135b565b60200260200101906001600160a01b031690816001600160a01b0316815250507f000000000000000000000000000000000000000000000000000000000000000081600181518110610bc857610bc861135b565b6001600160a01b0390921660209283029190910190910152919050565b600080546040805163c45a015560e01b81529051606093926001600160a01b03169163c45a0155916004808301926020929190829003018186803b158015610c2c57600080fd5b505afa158015610c40573d6000803e3d6000fd5b505050506040513d601f19601f82011682018060405250810190610c649190610df9565b604051631ec124bf60e11b81526001600160a01b0386811660048301528581166024830152919250600091831690633d82497e9060440160206040518083038186803b158015610cb357600080fd5b505afa158015610cc7573d6000803e3d6000fd5b505050506040513d601f19601f82011682018060405250810190610ceb9190610df9565b60408051600180825281830190925291925060009190602080830190803683370190505090508181600081518110610d2557610d2561135b565b6001600160a01b03909216602092830291909101909101529250505092915050565b60008083601f840112610d5957600080fd5b50813567ffffffffffffffff811115610d7157600080fd5b6020830191508360208260051b8501011115610d8c57600080fd5b9250929050565b60008083601f840112610da557600080fd5b50813567ffffffffffffffff811115610dbd57600080fd5b602083019150836020828501011115610d8c57600080fd5b600060208284031215610de757600080fd5b8135610df281611387565b9392505050565b600060208284031215610e0b57600080fd5b8151610df281611387565b600080600060608486031215610e2b57600080fd5b8335610e3681611387565b92506020840135610e4681611387565b929592945050506040919091013590565b600080600080600060808688031215610e6f57600080fd5b8535610e7a81611387565b94506020860135610e8a81611387565b935060408601359250606086013567ffffffffffffffff811115610ead57600080fd5b610eb988828901610d93565b969995985093965092949392505050565b600080600080600060608688031215610ee257600080fd5b8535610eed81611387565b9450602086013567ffffffffffffffff80821115610f0a57600080fd5b610f1689838a01610d47565b90965094506040880135915080821115610f2f57600080fd5b50610eb988828901610d47565b60008060008060008060006080888a031215610f5757600080fd5b8735610f6281611387565b9650602088013567ffffffffffffffff80821115610f7f57600080fd5b610f8b8b838c01610d47565b909850965060408a0135915080821115610fa457600080fd5b610fb08b838c01610d47565b909650945060608a0135915080821115610fc957600080fd5b50610fd68a828b01610d93565b989b979a50959850939692959293505050565b60008060408385031215610ffc57600080fd5b823561100781611387565b946020939093013593505050565b6000806000806060858703121561102b57600080fd5b843561103681611387565b935060208501359250604085013567ffffffffffffffff81111561105957600080fd5b61106587828801610d93565b95989497509550505050565b6000806000806040858703121561108757600080fd5b843567ffffffffffffffff8082111561109f57600080fd5b6110ab88838901610d47565b909650945060208701359150808211156110c457600080fd5b5061106587828801610d47565b600060208083850312156110e457600080fd5b825167ffffffffffffffff808211156110fc57600080fd5b818501915085601f83011261111057600080fd5b81518181111561112257611122611371565b8060051b604051601f19603f8301168101818110858211171561114757611147611371565b604052828152858101935084860182860187018a101561116657600080fd5b600095505b8386101561118957805185526001959095019493860193860161116b565b5098975050505050505050565b6000602082840312156111a857600080fd5b81518015158114610df257600080fd5b6000602082840312156111ca57600080fd5b5035919050565b600081518084526020808501945080840160005b8381101561120a5781516001600160a01b0316875295820195908201906001016111e5565b509495945050505050565b6001600160a01b038681168252851660208201526040810184905260806060820181905281018290526000828460a0840137600060a0848401015260a0601f19601f85011683010190509695505050505050565b6020808252825182820181905260009190848201906040850190845b818110156112a157835183529284019291840191600101611285565b50909695505050505050565b8381526060602082015260006112c660608301856111d1565b82810360408401526112d881856111d1565b9695505050505050565b86815285602082015260c06040820152600061130160c08301876111d1565b828103606084015261131381876111d1565b6001600160a01b03959095166080840152505060a00152949350505050565b600060001982141561135457634e487b7160e01b600052601160045260246000fd5b5060010190565b634e487b7160e01b600052603260045260246000fd5b634e487b7160e01b600052604160045260246000fd5b6001600160a01b038116811461139c57600080fd5b5056fea2646970667358221220302b7c28ed97775942b827cfd41718e48331093f111026b10410f7d54a84d88864736f6c63430008070033",
  "devdoc": {
    "kind": "dev",
    "methods": {},
    "version": 1
  },
  "userdoc": {
    "kind": "user",
    "methods": {
      "multiPayAndNotify(address,address[],uint256[],bytes)": {
        "notice": "Can (at least in theory) save some gas as the sender balance only is touched in one transaction."
      },
      "payFromEther(address,uint256)": {
        "notice": "Convenience method to swap ether into currency and pay a target address"
      },
      "recover(address,address,uint256)": {
        "notice": "In case tokens have been accidentally sent directly to this contract. Make sure to be fast as anyone can call this!"
      }
    },
    "notice": "A hub for payments. This allows tokens that do not support ERC 677 to enjoy similar functionality, namely interacting with a token-handling smart contract in one transaction, without having to set an allowance first. Instead, an allowance needs to be set only once, namely for this contract. Further, it supports automatic conversion from Ether to the payment currency through Uniswap.",
    "version": 1
  },
  "storageLayout": {
    "storage": [
      {
        "astId": 9733,
        "contract": "src/shares/PaymentHubKyber.sol:PaymentHubKyber",
        "label": "dmmRouter",
        "offset": 0,
        "slot": "0",
        "type": "t_contract(IDMMRouter02)3518"
      }
    ],
    "types": {
      "t_contract(IDMMRouter02)3518": {
        "encoding": "inplace",
        "label": "contract IDMMRouter02",
        "numberOfBytes": "20"
      }
    }
  }
}