{
  "address": "0x6548FAD069F2eDa512a658c17606Eed81095c93D",
  "abi": [
    {
      "anonymous": false,
      "inputs": [
        {
          "indexed": true,
          "internalType": "address",
          "name": "token",
          "type": "address"
        },
        {
          "indexed": true,
          "internalType": "address",
          "name": "lostAddress",
          "type": "address"
        },
        {
          "indexed": false,
          "internalType": "uint256",
          "name": "collateral",
          "type": "uint256"
        }
      ],
      "name": "ClaimCleared",
      "type": "event"
    },
    {
      "anonymous": false,
      "inputs": [
        {
          "indexed": true,
          "internalType": "address",
          "name": "token",
          "type": "address"
        },
        {
          "indexed": true,
          "internalType": "address",
          "name": "lostAddress",
          "type": "address"
        },
        {
          "indexed": true,
          "internalType": "address",
          "name": "claimant",
          "type": "address"
        },
        {
          "indexed": false,
          "internalType": "uint256",
          "name": "collateral",
          "type": "uint256"
        }
      ],
      "name": "ClaimDeleted",
      "type": "event"
    },
    {
      "anonymous": false,
      "inputs": [
        {
          "indexed": true,
          "internalType": "address",
          "name": "token",
          "type": "address"
        },
        {
          "indexed": true,
          "internalType": "address",
          "name": "lostAddress",
          "type": "address"
        },
        {
          "indexed": true,
          "internalType": "address",
          "name": "claimant",
          "type": "address"
        },
        {
          "indexed": false,
          "internalType": "uint256",
          "name": "balance",
          "type": "uint256"
        }
      ],
      "name": "ClaimMade",
      "type": "event"
    },
    {
      "anonymous": false,
      "inputs": [
        {
          "indexed": true,
          "internalType": "address",
          "name": "token",
          "type": "address"
        },
        {
          "indexed": true,
          "internalType": "address",
          "name": "lostAddress",
          "type": "address"
        },
        {
          "indexed": true,
          "internalType": "address",
          "name": "claimant",
          "type": "address"
        },
        {
          "indexed": false,
          "internalType": "uint256",
          "name": "collateral",
          "type": "uint256"
        }
      ],
      "name": "ClaimResolved",
      "type": "event"
    },
    {
      "inputs": [
        {
          "internalType": "address",
          "name": "",
          "type": "address"
        },
        {
          "internalType": "address",
          "name": "",
          "type": "address"
        }
      ],
      "name": "claims",
      "outputs": [
        {
          "internalType": "address",
          "name": "claimant",
          "type": "address"
        },
        {
          "internalType": "uint256",
          "name": "collateral",
          "type": "uint256"
        },
        {
          "internalType": "uint256",
          "name": "timestamp",
          "type": "uint256"
        },
        {
          "internalType": "address",
          "name": "currencyUsed",
          "type": "address"
        }
      ],
      "stateMutability": "view",
      "type": "function"
    },
    {
      "inputs": [
        {
          "internalType": "address",
          "name": "holder",
          "type": "address"
        }
      ],
      "name": "clearClaimFromToken",
      "outputs": [],
      "stateMutability": "nonpayable",
      "type": "function"
    },
    {
      "inputs": [
        {
          "internalType": "address",
          "name": "token",
          "type": "address"
        }
      ],
      "name": "clearClaimFromUser",
      "outputs": [],
      "stateMutability": "nonpayable",
      "type": "function"
    },
    {
      "inputs": [
        {
          "internalType": "address",
          "name": "token",
          "type": "address"
        },
        {
          "internalType": "address",
          "name": "collateralType",
          "type": "address"
        },
        {
          "internalType": "address",
          "name": "lostAddress",
          "type": "address"
        }
      ],
      "name": "declareLost",
      "outputs": [],
      "stateMutability": "nonpayable",
      "type": "function"
    },
    {
      "inputs": [
        {
          "internalType": "address",
          "name": "lostAddress",
          "type": "address"
        }
      ],
      "name": "deleteClaim",
      "outputs": [],
      "stateMutability": "nonpayable",
      "type": "function"
    },
    {
      "inputs": [
        {
          "internalType": "address",
          "name": "token",
          "type": "address"
        },
        {
          "internalType": "address",
          "name": "lostAddress",
          "type": "address"
        }
      ],
      "name": "getClaimant",
      "outputs": [
        {
          "internalType": "address",
          "name": "",
          "type": "address"
        }
      ],
      "stateMutability": "view",
      "type": "function"
    },
    {
      "inputs": [
        {
          "internalType": "address",
          "name": "token",
          "type": "address"
        },
        {
          "internalType": "address",
          "name": "lostAddress",
          "type": "address"
        }
      ],
      "name": "getCollateral",
      "outputs": [
        {
          "internalType": "uint256",
          "name": "",
          "type": "uint256"
        }
      ],
      "stateMutability": "view",
      "type": "function"
    },
    {
      "inputs": [
        {
          "internalType": "address",
          "name": "token",
          "type": "address"
        },
        {
          "internalType": "address",
          "name": "lostAddress",
          "type": "address"
        }
      ],
      "name": "getCollateralType",
      "outputs": [
        {
          "internalType": "address",
          "name": "",
          "type": "address"
        }
      ],
      "stateMutability": "view",
      "type": "function"
    },
    {
      "inputs": [
        {
          "internalType": "address",
          "name": "token",
          "type": "address"
        },
        {
          "internalType": "address",
          "name": "lostAddress",
          "type": "address"
        }
      ],
      "name": "getTimeStamp",
      "outputs": [
        {
          "internalType": "uint256",
          "name": "",
          "type": "uint256"
        }
      ],
      "stateMutability": "view",
      "type": "function"
    },
    {
      "inputs": [
        {
          "internalType": "address",
          "name": "target",
          "type": "address"
        }
      ],
      "name": "isRecoveryEnabled",
      "outputs": [
        {
          "internalType": "bool",
          "name": "",
          "type": "bool"
        }
      ],
      "stateMutability": "view",
      "type": "function"
    },
    {
      "inputs": [
        {
          "internalType": "address",
          "name": "token",
          "type": "address"
        },
        {
          "internalType": "address",
          "name": "lostAddress",
          "type": "address"
        }
      ],
      "name": "recover",
      "outputs": [],
      "stateMutability": "nonpayable",
      "type": "function"
    },
    {
      "inputs": [
        {
          "internalType": "address",
          "name": "",
          "type": "address"
        }
      ],
      "name": "recoveryDisabled",
      "outputs": [
        {
          "internalType": "bool",
          "name": "",
          "type": "bool"
        }
      ],
      "stateMutability": "view",
      "type": "function"
    },
    {
      "inputs": [
        {
          "internalType": "bool",
          "name": "enabled",
          "type": "bool"
        }
      ],
      "name": "setRecoverable",
      "outputs": [],
      "stateMutability": "nonpayable",
      "type": "function"
    }
  ],
  "transactionHash": "0xe2e11042278754f354959fa83a5d29550ff07d9e83b878e6e54b021d4de7aebc",
  "args": [],
  "solcInputHash": "77a9961c3b2fdeee8fb0d98e225d3d31",
  "bytecode": "0x608060405234801561001057600080fd5b506110d4806100206000396000f3fe608060405234801561001057600080fd5b50600436106100cf5760003560e01c80636427ed971161008c578063b40e80d111610066578063b40e80d11461028a578063c1e58573146102ad578063cc0720cc146102c0578063e334860a1461030e57600080fd5b80636427ed971461020d578063648bf7741461023a578063a3ec18831461024d57600080fd5b806306036025146100d457806323cd9a86146100e957806332a7ae95146101365780633f733c6b146101495780634d301a30146101c057806352226ef0146101d3575b600080fd5b6100e76100e2366004610f58565b610347565b005b6101236100f7366004610f7a565b6001600160a01b0391821660009081526020818152604080832093909416825291909152206002015490565b6040519081526020015b60405180910390f35b6100e7610144366004610f58565b610354565b610191610157366004610f7a565b600060208181529281526040808220909352908152208054600182015460028301546003909301546001600160a01b039283169391921684565b604080516001600160a01b0395861681526020810194909452830191909152909116606082015260800161012d565b6100e76101ce366004610f58565b610582565b6101236101e1366004610f7a565b6001600160a01b0391821660009081526020818152604080832093909416825291909152206001015490565b6100e761021b366004610ff0565b336000908152600160205260409020805460ff19169115919091179055565b6100e7610248366004610f7a565b61058c565b61027a61025b366004610f58565b6001600160a01b031660009081526001602052604090205460ff161590565b604051901515815260200161012d565b61027a610298366004610f58565b60016020526000908152604090205460ff1681565b6100e76102bb366004610fad565b61090e565b6102f66102ce366004610f7a565b6001600160a01b03918216600090815260208181526040808320938516835292905220541690565b6040516001600160a01b03909116815260200161012d565b6102f661031c366004610f7a565b6001600160a01b03918216600090815260208181526040808320938516835292905220600301541690565b6103518133610d12565b50565b336000818152602081815260408083206001600160a01b03868116855290835292819020815160808101835281548516815260018201549381018490526002820154928101929092526003015490921660608301819052906103e95760405162461bcd60e51b81526020600482015260096024820152681b9bdd08199bdd5b9960ba1b60448201526064015b60405180910390fd5b6001600160a01b038381166000818152602081815260408083209489168084529490915280822080546001600160a01b0319908116825560018201849055600282019390935560030180549092169091555163396e093b60e21b815260048101929092529063e5b824ec90602401600060405180830381600087803b15801561047157600080fd5b505af1158015610485573d6000803e3d6000fd5b50508351602085015160405163a9059cbb60e01b81526001600160a01b0392831660048201526024810191909152908416925063a9059cbb9150604401602060405180830381600087803b1580156104dc57600080fd5b505af11580156104f0573d6000803e3d6000fd5b505050506040513d601f19601f82011682018060405250810190610514919061100d565b61051d57600080fd5b81600001516001600160a01b0316846001600160a01b0316846001600160a01b03167fe353e089146c0574fa0001d9aa56c67a4eee067d8730543ae0ee937a30d679f3856020015160405161057491815260200190565b60405180910390a450505050565b6103513382610d12565b6001600160a01b038083166000908152602081815260408083208585168452825291829020825160808101845281548516808252600183015493820193909352600282015493810193909352600301549092166060820152903381146106235760405162461bcd60e51b815260206004820152600c60248201526b1b9bdd0818db185a5b585b9d60a21b60448201526064016103e0565b60208201516060830151816106665760405162461bcd60e51b81526020600482015260096024820152681b9bdd08199bdd5b9960ba1b60448201526064016103e0565b42866001600160a01b0316637dc2cd986040518163ffffffff1660e01b815260040160206040518083038186803b1580156106a057600080fd5b505afa1580156106b4573d6000803e3d6000fd5b505050506040513d601f19601f820116820180604052508101906106d8919061102a565b85604001516106e79190611043565b11156107215760405162461bcd60e51b8152602060048201526009602482015268746f6f206561726c7960b81b60448201526064016103e0565b6001600160a01b03868116600081815260208181526040808320948a168084529490915280822080546001600160a01b0319908116825560018201849055600282019390935560030180549092169091555163396e093b60e21b815260048101929092529063e5b824ec90602401600060405180830381600087803b1580156107a957600080fd5b505af11580156107bd573d6000803e3d6000fd5b505060405163a9059cbb60e01b81526001600160a01b038681166004830152602482018690528416925063a9059cbb9150604401602060405180830381600087803b15801561080b57600080fd5b505af115801561081f573d6000803e3d6000fd5b505050506040513d601f19601f82011682018060405250810190610843919061100d565b61084c57600080fd5b604051631922fddd60e21b81526001600160a01b038681166004830152848116602483015287169063648bf77490604401600060405180830381600087803b15801561089757600080fd5b505af11580156108ab573d6000803e3d6000fd5b50505050826001600160a01b0316856001600160a01b0316876001600160a01b03167f03746d4086c981172ed0a960601bec02cfe0a2ecbe1b1b4e328752bbf5d0c255856040516108fe91815260200190565b60405180910390a4505050505050565b6001600160a01b03811660009081526001602052604090205460ff16156109625760405162461bcd60e51b8152602060048201526008602482015267191a5cd8589b195960c21b60448201526064016103e0565b6040516377e071ad60e01b81526001600160a01b038381166004830152600091908516906377e071ad9060240160206040518083038186803b1580156109a757600080fd5b505afa1580156109bb573d6000803e3d6000fd5b505050506040513d601f19601f820116820180604052508101906109df919061102a565b905060008111610a225760405162461bcd60e51b815260206004820152600e60248201526d1898590818dbdb1b185d195c985b60921b60448201526064016103e0565b6040516370a0823160e01b81526001600160a01b03838116600483015233916000918716906370a082319060240160206040518083038186803b158015610a6857600080fd5b505afa158015610a7c573d6000803e3d6000fd5b505050506040513d601f19601f82011682018060405250810190610aa0919061102a565b90506000610aae848361105b565b90508582610ae65760405162461bcd60e51b8152602060048201526005602482015264656d70747960d81b60448201526064016103e0565b6001600160a01b03808916600090815260208181526040808320938a168352929052206001015415610b4c5760405162461bcd60e51b815260206004820152600f60248201526e185b1c9958591e4818db185a5b5959608a1b60448201526064016103e0565b6040516323b872dd60e01b81526001600160a01b038581166004830152306024830152604482018490528216906323b872dd90606401602060405180830381600087803b158015610b9c57600080fd5b505af1158015610bb0573d6000803e3d6000fd5b505050506040513d601f19601f82011682018060405250810190610bd4919061100d565b610bdd57600080fd5b604080516080810182526001600160a01b0386811682526020808301868152428486019081528c8416606086019081528e851660008181528086528881208f88168083529652889020965187549087166001600160a01b03199182161788559351600188015591516002870155516003909501805495909416949091169390931790915591516330605cb160e21b815260048101929092529063c18172c490602401600060405180830381600087803b158015610c9957600080fd5b505af1158015610cad573d6000803e3d6000fd5b50505050836001600160a01b0316866001600160a01b0316896001600160a01b03167f6bfd50306449d9d6c51593433950fc186e4ab99a885ed357a34549bfd7a2668f86604051610d0091815260200190565b60405180910390a45050505050505050565b6001600160a01b038083166000908152602081815260408083208585168452825291829020825160808101845281548516815260018201549281018390526002820154938101939093526003015490921660608201529015610f375760608101516001600160a01b038481166000908152602081815260408083208785168452825280832080546001600160a01b031990811682556001820185905560028201949094556003018054909316909255840151905163a9059cbb60e01b815230600482015260248101919091529082169063a9059cbb90604401602060405180830381600087803b158015610e0557600080fd5b505af1158015610e19573d6000803e3d6000fd5b505050506040513d601f19601f82011682018060405250810190610e3d919061100d565b610e895760405162461bcd60e51b815260206004820152601b60248201527f636f756c64206e6f742072657475726e20636f6c6c61746572616c000000000060448201526064016103e0565b826001600160a01b0316846001600160a01b03167febe2b7544a1a711c29034fc19c1b200f13cf4ec175198e0f857735ed4f5f9bd18460200151604051610ed291815260200190565b60405180910390a360405163396e093b60e21b81526001600160a01b03848116600483015285169063e5b824ec90602401600060405180830381600087803b158015610f1d57600080fd5b505af1158015610f31573d6000803e3d6000fd5b50505050505b505050565b80356001600160a01b0381168114610f5357600080fd5b919050565b600060208284031215610f6a57600080fd5b610f7382610f3c565b9392505050565b60008060408385031215610f8d57600080fd5b610f9683610f3c565b9150610fa460208401610f3c565b90509250929050565b600080600060608486031215610fc257600080fd5b610fcb84610f3c565b9250610fd960208501610f3c565b9150610fe760408501610f3c565b90509250925092565b60006020828403121561100257600080fd5b8135610f7381611090565b60006020828403121561101f57600080fd5b8151610f7381611090565b60006020828403121561103c57600080fd5b5051919050565b600082198211156110565761105661107a565b500190565b60008160001904831182151516156110755761107561107a565b500290565b634e487b7160e01b600052601160045260246000fd5b801515811461035157600080fdfea2646970667358221220307636e3ac35a1207aa727da6fc8b4d8003f461076b4a115732778d014a8a5d364736f6c63430008070033",
  "devdoc": {
    "kind": "dev",
    "methods": {},
    "title": "Recoverable In case of tokens that represent real-world assets such as shares of a company, one needs a way to handle lost private keys. With physical certificates, courts can declare share certificates as invalid so the company can issue replacements. Here, we want a solution that does not depend on third parties to resolve such cases. Instead, when someone has lost a private key, he can use the declareLost function to post a deposit and claim that the shares assigned to a specific address are lost. To prevent front running, a commit reveal scheme is used. If he actually is the owner of the shares, he needs to wait for a certain period and can then reclaim the lost shares as well as the deposit. If he is an attacker trying to claim shares belonging to someone else, he risks losing the deposit as it can be claimed at anytime by the rightful owner. Furthermore, if \"getClaimDeleter\" is defined in the subclass, the returned address is allowed to delete claims, returning the collateral. This can help to prevent obvious cases of abuse of the claim function.",
    "version": 1
  },
  "userdoc": {
    "kind": "user",
    "methods": {
      "clearClaimFromToken(address)": {
        "notice": "Clears a claim after the key has been found again and assigns the collateral to the \"lost\" address. This is the price an adverse claimer pays for filing a false claim and makes it risky to do so."
      },
      "declareLost(address,address,address)": {
        "notice": "Anyone can declare that the private key to a certain address was lost by calling declareLost providing a deposit/collateral. There are three possibilities of what can happen with the claim: 1) The claim period expires and the claimant can get the deposit and the shares back by calling recover 2) The \"lost\" private key is used at any time to call clearClaim. In that case, the claim is deleted and    the deposit sent to the shareholder (the owner of the private key). It is recommended to call recover    whenever someone transfers funds to let claims be resolved automatically when the \"lost\" private key is    used again. 3) The owner deletes the claim and assigns the deposit to the claimant. This is intended to be used to resolve    disputes. Generally, using this function implies that you have to trust the issuer of the tokens to handle    the situation well. As a rule of thumb, the contract owner should assume the owner of the lost address to be the    rightful owner of the deposit. It is highly recommended that the owner observes the claims made and informs the owners of the claimed addresses whenever a claim is made for their address (this of course is only possible if they are known to the owner, e.g. through a shareholder register)."
      },
      "deleteClaim(address)": {
        "notice": "This function is to be executed by the claim deleter only in case a dispute needs to be resolved manually."
      },
      "isRecoveryEnabled(address)": {
        "notice": "Some users might want to disable claims for their address completely. For example if they use a deep cold storage solution or paper wallet."
      },
      "recover(address,address)": {
        "notice": "After the claim period has passed, the claimant can call this function to send the tokens on the lost address as well as the collateral to himself."
      }
    },
    "version": 1
  },
  "storageLayout": {
    "storage": [
      {
        "astId": 5362,
        "contract": "src/recovery/RecoveryHub.sol:RecoveryHub",
        "label": "claims",
        "offset": 0,
        "slot": "0",
        "type": "t_mapping(t_address,t_mapping(t_address,t_struct(Claim)5355_storage))"
      },
      {
        "astId": 5366,
        "contract": "src/recovery/RecoveryHub.sol:RecoveryHub",
        "label": "recoveryDisabled",
        "offset": 0,
        "slot": "1",
        "type": "t_mapping(t_address,t_bool)"
      }
    ],
    "types": {
      "t_address": {
        "encoding": "inplace",
        "label": "address",
        "numberOfBytes": "20"
      },
      "t_bool": {
        "encoding": "inplace",
        "label": "bool",
        "numberOfBytes": "1"
      },
      "t_mapping(t_address,t_bool)": {
        "encoding": "mapping",
        "key": "t_address",
        "label": "mapping(address => bool)",
        "numberOfBytes": "32",
        "value": "t_bool"
      },
      "t_mapping(t_address,t_mapping(t_address,t_struct(Claim)5355_storage))": {
        "encoding": "mapping",
        "key": "t_address",
        "label": "mapping(address => mapping(address => struct RecoveryHub.Claim))",
        "numberOfBytes": "32",
        "value": "t_mapping(t_address,t_struct(Claim)5355_storage)"
      },
      "t_mapping(t_address,t_struct(Claim)5355_storage)": {
        "encoding": "mapping",
        "key": "t_address",
        "label": "mapping(address => struct RecoveryHub.Claim)",
        "numberOfBytes": "32",
        "value": "t_struct(Claim)5355_storage"
      },
      "t_struct(Claim)5355_storage": {
        "encoding": "inplace",
        "label": "struct RecoveryHub.Claim",
        "members": [
          {
            "astId": 5348,
            "contract": "src/recovery/RecoveryHub.sol:RecoveryHub",
            "label": "claimant",
            "offset": 0,
            "slot": "0",
            "type": "t_address"
          },
          {
            "astId": 5350,
            "contract": "src/recovery/RecoveryHub.sol:RecoveryHub",
            "label": "collateral",
            "offset": 0,
            "slot": "1",
            "type": "t_uint256"
          },
          {
            "astId": 5352,
            "contract": "src/recovery/RecoveryHub.sol:RecoveryHub",
            "label": "timestamp",
            "offset": 0,
            "slot": "2",
            "type": "t_uint256"
          },
          {
            "astId": 5354,
            "contract": "src/recovery/RecoveryHub.sol:RecoveryHub",
            "label": "currencyUsed",
            "offset": 0,
            "slot": "3",
            "type": "t_address"
          }
        ],
        "numberOfBytes": "128"
      },
      "t_uint256": {
        "encoding": "inplace",
        "label": "uint256",
        "numberOfBytes": "32"
      }
    }
  }
}