{
  "_format": "hh-sol-artifact-1",
  "contractName": "MultiSigWalletMaster",
  "sourceName": "contracts/multisig/MultiSigWalletMaster.sol",
  "abi": [
    {
      "inputs": [
        {
          "internalType": "address",
          "name": "target",
          "type": "address"
        }
      ],
      "name": "Address_NotTransferNorContract",
      "type": "error"
    },
    {
      "inputs": [],
      "name": "Initializable_AlreadyInitalized",
      "type": "error"
    },
    {
      "inputs": [
        {
          "internalType": "address",
          "name": "from",
          "type": "address"
        }
      ],
      "name": "Multisig_DuplicateSignature",
      "type": "error"
    },
    {
      "inputs": [],
      "name": "Multisig_InsufficientSigners",
      "type": "error"
    },
    {
      "inputs": [
        {
          "internalType": "address",
          "name": "destination",
          "type": "address"
        }
      ],
      "name": "Multisig_InvalidDestination",
      "type": "error"
    },
    {
      "inputs": [
        {
          "internalType": "address",
          "name": "signer",
          "type": "address"
        }
      ],
      "name": "Multisig_InvalidSignDataOrInsufficientCosigner",
      "type": "error"
    },
    {
      "inputs": [
        {
          "internalType": "address",
          "name": "signer",
          "type": "address"
        }
      ],
      "name": "Multisig_InvalidSigner",
      "type": "error"
    },
    {
      "inputs": [],
      "name": "Multisig_SignatureMissing",
      "type": "error"
    },
    {
      "inputs": [
        {
          "internalType": "address",
          "name": "sender",
          "type": "address"
        }
      ],
      "name": "Multisig_UnauthorizedSender",
      "type": "error"
    },
    {
      "anonymous": false,
      "inputs": [
        {
          "indexed": true,
          "internalType": "address",
          "name": "sender",
          "type": "address"
        },
        {
          "indexed": false,
          "internalType": "uint256",
          "name": "amount",
          "type": "uint256"
        }
      ],
      "name": "Received",
      "type": "event"
    },
    {
      "anonymous": false,
      "inputs": [
        {
          "indexed": true,
          "internalType": "address",
          "name": "target",
          "type": "address"
        },
        {
          "indexed": false,
          "internalType": "uint256",
          "name": "amount",
          "type": "uint256"
        }
      ],
      "name": "SentEth",
      "type": "event"
    },
    {
      "anonymous": false,
      "inputs": [
        {
          "indexed": true,
          "internalType": "address",
          "name": "signer",
          "type": "address"
        },
        {
          "indexed": false,
          "internalType": "uint8",
          "name": "signaturesNeeded",
          "type": "uint8"
        }
      ],
      "name": "SignerChange",
      "type": "event"
    },
    {
      "anonymous": false,
      "inputs": [
        {
          "indexed": true,
          "internalType": "address",
          "name": "toAddress",
          "type": "address"
        },
        {
          "indexed": false,
          "internalType": "bytes4",
          "name": "selector",
          "type": "bytes4"
        },
        {
          "indexed": false,
          "internalType": "address[]",
          "name": "signers",
          "type": "address[]"
        }
      ],
      "name": "Transacted",
      "type": "event"
    },
    {
      "inputs": [],
      "name": "MAX_INCREASE",
      "outputs": [
        {
          "internalType": "uint256",
          "name": "",
          "type": "uint256"
        }
      ],
      "stateMutability": "view",
      "type": "function"
    },
    {
      "inputs": [],
      "name": "VERSION",
      "outputs": [
        {
          "internalType": "uint8",
          "name": "",
          "type": "uint8"
        }
      ],
      "stateMutability": "view",
      "type": "function"
    },
    {
      "inputs": [
        {
          "internalType": "address",
          "name": "to",
          "type": "address"
        },
        {
          "internalType": "uint256",
          "name": "value",
          "type": "uint256"
        },
        {
          "internalType": "bytes",
          "name": "data",
          "type": "bytes"
        }
      ],
      "name": "checkExecution",
      "outputs": [],
      "stateMutability": "nonpayable",
      "type": "function"
    },
    {
      "inputs": [
        {
          "internalType": "uint128",
          "name": "nonce",
          "type": "uint128"
        },
        {
          "internalType": "address",
          "name": "to",
          "type": "address"
        },
        {
          "internalType": "uint256",
          "name": "value",
          "type": "uint256"
        },
        {
          "internalType": "bytes",
          "name": "data",
          "type": "bytes"
        },
        {
          "internalType": "uint8[]",
          "name": "v",
          "type": "uint8[]"
        },
        {
          "internalType": "bytes32[]",
          "name": "r",
          "type": "bytes32[]"
        },
        {
          "internalType": "bytes32[]",
          "name": "s",
          "type": "bytes32[]"
        }
      ],
      "name": "checkSignatures",
      "outputs": [
        {
          "internalType": "address[]",
          "name": "",
          "type": "address[]"
        }
      ],
      "stateMutability": "view",
      "type": "function"
    },
    {
      "inputs": [],
      "name": "contractId",
      "outputs": [
        {
          "internalType": "bytes",
          "name": "",
          "type": "bytes"
        }
      ],
      "stateMutability": "view",
      "type": "function"
    },
    {
      "inputs": [
        {
          "internalType": "uint128",
          "name": "nonce",
          "type": "uint128"
        },
        {
          "internalType": "address",
          "name": "to",
          "type": "address"
        },
        {
          "internalType": "uint256",
          "name": "value",
          "type": "uint256"
        },
        {
          "internalType": "bytes",
          "name": "data",
          "type": "bytes"
        },
        {
          "internalType": "uint8[]",
          "name": "v",
          "type": "uint8[]"
        },
        {
          "internalType": "bytes32[]",
          "name": "r",
          "type": "bytes32[]"
        },
        {
          "internalType": "bytes32[]",
          "name": "s",
          "type": "bytes32[]"
        }
      ],
      "name": "execute",
      "outputs": [
        {
          "internalType": "bytes",
          "name": "",
          "type": "bytes"
        }
      ],
      "stateMutability": "nonpayable",
      "type": "function"
    },
    {
      "inputs": [
        {
          "internalType": "address",
          "name": "owner",
          "type": "address"
        }
      ],
      "name": "initialize",
      "outputs": [],
      "stateMutability": "nonpayable",
      "type": "function"
    },
    {
      "inputs": [
        {
          "internalType": "uint128",
          "name": "nonce",
          "type": "uint128"
        }
      ],
      "name": "isFree",
      "outputs": [
        {
          "internalType": "bool",
          "name": "",
          "type": "bool"
        }
      ],
      "stateMutability": "view",
      "type": "function"
    },
    {
      "inputs": [
        {
          "internalType": "address",
          "name": "source",
          "type": "address"
        },
        {
          "internalType": "address",
          "name": "destination",
          "type": "address"
        }
      ],
      "name": "migrate",
      "outputs": [],
      "stateMutability": "nonpayable",
      "type": "function"
    },
    {
      "inputs": [
        {
          "internalType": "address",
          "name": "destination",
          "type": "address"
        }
      ],
      "name": "migrate",
      "outputs": [],
      "stateMutability": "nonpayable",
      "type": "function"
    },
    {
      "inputs": [],
      "name": "nextNonce",
      "outputs": [
        {
          "internalType": "uint128",
          "name": "",
          "type": "uint128"
        }
      ],
      "stateMutability": "view",
      "type": "function"
    },
    {
      "inputs": [
        {
          "internalType": "address",
          "name": "signer",
          "type": "address"
        },
        {
          "internalType": "uint8",
          "name": "signaturesNeeded",
          "type": "uint8"
        }
      ],
      "name": "setSigner",
      "outputs": [],
      "stateMutability": "nonpayable",
      "type": "function"
    },
    {
      "inputs": [],
      "name": "signerCount",
      "outputs": [
        {
          "internalType": "uint16",
          "name": "",
          "type": "uint16"
        }
      ],
      "stateMutability": "view",
      "type": "function"
    },
    {
      "inputs": [
        {
          "internalType": "address",
          "name": "",
          "type": "address"
        }
      ],
      "name": "signers",
      "outputs": [
        {
          "internalType": "uint8",
          "name": "",
          "type": "uint8"
        }
      ],
      "stateMutability": "view",
      "type": "function"
    },
    {
      "inputs": [
        {
          "internalType": "uint256",
          "name": "x",
          "type": "uint256"
        }
      ],
      "name": "toBytes",
      "outputs": [
        {
          "internalType": "bytes",
          "name": "result",
          "type": "bytes"
        }
      ],
      "stateMutability": "pure",
      "type": "function"
    },
    {
      "inputs": [
        {
          "internalType": "bytes32",
          "name": "transactionHash",
          "type": "bytes32"
        },
        {
          "internalType": "uint8[]",
          "name": "v",
          "type": "uint8[]"
        },
        {
          "internalType": "bytes32[]",
          "name": "r",
          "type": "bytes32[]"
        },
        {
          "internalType": "bytes32[]",
          "name": "s",
          "type": "bytes32[]"
        }
      ],
      "name": "verifySignatures",
      "outputs": [
        {
          "internalType": "address[]",
          "name": "",
          "type": "address[]"
        }
      ],
      "stateMutability": "view",
      "type": "function"
    },
    {
      "stateMutability": "payable",
      "type": "receive"
    }
  ],
  "bytecode": "0x6080604052348015600e575f5ffd5b5060805f55611eaa806100205f395ff3fe6080604052600436106100f2575f3560e01c8063b5fe516311610087578063ce5494bb11610057578063ce5494bb14610302578063d69c3d3014610321578063ecec0dfd1461034d578063ffa1ad741461036c575f5ffd5b8063b5fe516314610269578063b6e404de14610298578063c4d66de8146102b7578063cb6367d1146102d6575f5ffd5b8063775a8f5e116100c2578063775a8f5e146101e75780637ca548c6146102065780637cedbb80146102335780638291286c14610255575f5ffd5b80630f43d678146101325780631068361f1461015357806348753d0014610172578063736c0d5b146101a7575f5ffd5b3661012e5760405134815233907f88a5966d370b9919b20f3e2c13ff65706f196a4e32cc2c12bf57088f885258749060200160405180910390a2005b5f5ffd5b34801561013d575f5ffd5b5061015161014c3660046116ec565b610380565b005b34801561015e575f5ffd5b5061015161016d36600461171d565b6103fb565b34801561017d575f5ffd5b5061019161018c3660046117df565b610447565b60405161019e91906118d5565b60405180910390f35b3480156101b2575f5ffd5b506101d56101c136600461190a565b60026020525f908152604090205460ff1681565b60405160ff909116815260200161019e565b3480156101f2575f5ffd5b50610191610201366004611923565b6105f6565b348015610211575f5ffd5b506003546102209061ffff1681565b60405161ffff909116815260200161019e565b34801561023e575f5ffd5b50610247606481565b60405190815260200161019e565b348015610260575f5ffd5b506101916106cb565b348015610274575f5ffd5b5061028861028336600461193a565b610757565b604051901515815260200161019e565b3480156102a3575f5ffd5b506101516102b2366004611953565b61078f565b3480156102c2575f5ffd5b506101516102d136600461190a565b610819565b3480156102e1575f5ffd5b506102f56102f03660046119a8565b61087f565b60405161019e9190611a90565b34801561030d575f5ffd5b5061015161031c36600461190a565b610a51565b34801561032c575f5ffd5b50610335610a5e565b6040516001600160801b03909116815260200161019e565b348015610358575f5ffd5b506102f56103673660046117df565b610a71565b348015610377575f5ffd5b506101d5600681565b3033148015906103a25750335f9081526002602052604090205460ff16600114155b156103c757604051639584e9d960e01b81523360048201526024015b60405180910390fd5b6103d18282610aa7565b60035461ffff165f036103f757604051632cfcf84f60e01b815260040160405180910390fd5b5050565b30331480159061041d5750335f9081526002602052604090205460ff16600114155b1561043d57604051639584e9d960e01b81523360048201526024016103be565b6103f78282610bec565b60605f6104e08d6004805461045b90611aa2565b80601f016020809104026020016040519081016040528092919081815260200182805461048790611aa2565b80156104d25780601f106104a9576101008083540402835291602001916104d2565b820191905f5260205f20905b8154815290600101906020018083116104b557829003601f168201915b50505050508e8e8e8e610c60565b90505f6104f2828a8a8a8a8a8a61087f565b90506104fd8e610f0a565b5f61054c8e8d8d8080601f0160208091040260200160405190810160405280939291908181526020018383808284375f81840152601f19601f820116905080830192505050505050508f611011565b90508d6001600160a01b03167f64ada3f9bcd41ebd407b399dc401184273a19bc294825172626af05a15c95d256105838e8e611103565b84604051610592929190611ada565b60405180910390a28c156105e4578d6001600160a01b03167fe520273e4aa4a339e37bc204a23e5b9efd94c81719a6a4aed539c0f769e0f4cb8e6040516105db91815260200190565b60405180910390a25b9e9d5050505050505050505050505050565b60605f82600160801b811061061a5760809390931c92610617601083611b17565b91505b68010000000000000000841061063f5760409390931c9261063c600883611b17565b91505b64010000000084106106605760209390931c9261065d600483611b17565b91505b62010000841061067f5760109390931c9261067c600283611b17565b91505b610100841061069d5760089390931c9261069a600183611b17565b91505b83156106b1576106ae600183611b17565b91505b604080518381016020810190925291905290815292915050565b600480546106d890611aa2565b80601f016020809104026020016040519081016040528092919081815260200182805461070490611aa2565b801561074f5780601f106107265761010080835404028352916020019161074f565b820191905f5260205f20905b81548152906001019060200180831161073257829003601f168201915b505050505081565b5f5f6107615f5490565b905061076d81846111bc565b806107885750610788816107825f5460801c90565b85611200565b9392505050565b6107d08483838080601f0160208091040260200160405190810160405280939291908181526020018383808284375f92019190915250889250611011915050565b5060405162461bcd60e51b815260206004820152601760248201527f54657374207061737365642e20526576657274696e672e00000000000000000060448201526064016103be565b60015460ff161561083d57604051630550a61760e31b815260040160405180910390fd5b61084c3063ffffffff166105f6565b6004906108599082611b8a565b506003805461ffff19169055610870816001610aa7565b506001805460ff191681179055565b60605f846001600160401b0381111561089a5761089a611b2a565b6040519080825280602002602001820160405280156108c3578160200160208202803683370190505b5090505f8590036108e757604051630955614d60e11b815260040160405180910390fd5b5f5b85811015610a3b575f60018b8b8b8581811061090757610907611c44565b905060200201602081019061091c9190611c58565b8a8a8681811061092e5761092e611c44565b9050602002013589898781811061094757610947611c44565b905060200201356040515f8152602001604052604051610983949392919093845260ff9290921660208401526040830152606082015260800190565b6020604051602081039080840390855afa1580156109a3573d5f5f3e3d5ffd5b505060408051601f1901516001600160a01b0381165f9081526002602052919091205490925060ff1690508015806109dd575060ff811688105b15610a065760405163c7a5f4cd60e01b81526001600160a01b03831660048201526024016103be565b81848481518110610a1957610a19611c44565b6001600160a01b039092166020928302919091019091015250506001016108e9565b50610a4581611253565b98975050505050505050565b610a5b3382610bec565b50565b5f8054610a6c906001611c71565b905090565b60605f610a858d6004805461045b90611aa2565b9050610a968189898989898961087f565b9d9c50505050505050505050505050565b6001600160a01b0382163b151580610ac657506001600160a01b038216155b15610aef576040516372156ebf60e01b81526001600160a01b03831660048201526024016103be565b6001600160a01b0382165f908152600260205260409020805460ff83811660ff19831617909255168015801590610b27575060ff8216155b15610b5f576003805461ffff16905f610b3f83611c90565b91906101000a81548161ffff021916908361ffff16021790555050610ba6565b60ff8116158015610b7257505f8260ff16115b15610ba6576003805461ffff16905f610b8a83611cac565b91906101000a81548161ffff021916908361ffff160217905550505b60405160ff831681526001600160a01b038416907f7f00bf87056fc9622b70d830cce34aa24d6c12881ebbc71d3bf22d0c5ae295b79060200160405180910390a2505050565b6001600160a01b0381165f9081526002602052604090205460ff1615610c30576040516303c25a2b60e31b81526001600160a01b03821660048201526024016103be565b6001600160a01b0382165f90815260026020526040902054610c5690829060ff16610aa7565b6103f7825f610aa7565b60408051600980825261014082019092525f91829190816020015b6060815260200190600190039081610c7b579050509050610ca4886001600160801b03166105f6565b815f81518110610cb657610cb6611c44565b60200260200101819052508681600181518110610cd557610cd5611c44565b602002602001018190525060405180604001604052806003815260200162104a4160eb1b81525081600281518110610d0f57610d0f611c44565b602090810291909101810191909152604051602560fa1b918101919091526bffffffffffffffffffffffff19606088901b16602182015260350160405160208183030381529060405281600381518110610d6b57610d6b611c44565b6020026020010181905250610d7f856105f6565b81600481518110610d9257610d92611c44565b602002602001018190525083838080601f0160208091040260200160405190810160405280939291908181526020018383808284375f92019190915250508351849250600591508110610de757610de7611c44565b6020026020010181905250610dfb466105f6565b81600681518110610e0e57610e0e611c44565b602090810291909101810191909152604080515f81529182019052815182906007908110610e3e57610e3e611c44565b60209081029190910101525f5b6008811015610eb35780600214158015610e66575080600314155b15610eab57610e8d828281518110610e8057610e80611c44565b6020026020010151611315565b828281518110610e9f57610e9f611c44565b60200260200101819052505b600101610e4b565b5080600781518110610ec757610ec7611c44565b602002602001015181600881518110610ee257610ee2611c44565b6020026020010181905250610ef681611383565b805190602001209150509695505050505050565b5f5480608081901c610f1c82856111bc565b15610f7857610f73846001610f318583611ccc565b610f3b9190611ccc565b6001600160801b0319600185811b6ffffffffffffffffffffffffffffffffe16176001600160801b039283161b60801b169116175f55565b61100b565b610f83828286611200565b15610fda57610f73826001610f988783611ccc565b610fa29190611ccc565b6001600160801b03166001901b836001600160801b0316176001600160801b031960809190911b166001600160801b03909116175f55565b60405162461bcd60e51b81526004016103be906020808252600490820152631d5cd95960e21b604082015260600190565b50505050565b606082515f1415801561102c57506001600160a01b0384163b155b1561105557604051639eb1341360e01b81526001600160a01b03851660048201526024016103be565b5f5f856001600160a01b031684866040516110709190611d02565b5f6040518083038185875af1925050503d805f81146110aa576040519150601f19603f3d011682016040523d82523d5f602084013e6110af565b606091505b509150915081156110c35791506107889050565b8051156110d257805160208201fd5b60405162461bcd60e51b815260206004820152600660248201526519985a5b195960d21b60448201526064016103be565b5f600482101561111457505f6111b6565b60188383600381811061112957611129611c44565b909101356001600160f81b03191690911c905060108484600281811061115157611151611c44565b909101356001600160f81b03191690911c905060088585600181811061117957611179611c44565b909101356001600160f81b03191690911c905085855f8161119c5761119c611c44565b9050013560f81c60f81b6001600160f81b03191617171790505b92915050565b5f826001600160801b0316826001600160801b031611801561078857506111ed60646001600160801b038516611b17565b826001600160801b031611159392505050565b5f8061120c8386611ccc565b6001600160801b031690505f81118015611227575060808111155b801561124a57506001600160801b038416611243600183611d0d565b6001901b16155b95945050505050565b5f5b81518110156103f7575f61126a826001611b17565b90505b825181101561130c5782818151811061128857611288611c44565b60200260200101516001600160a01b03168383815181106112ab576112ab611c44565b60200260200101516001600160a01b031603611304578282815181106112d3576112d3611c44565b602002602001015160405163ecf7e84160e01b81526004016103be91906001600160a01b0391909116815260200190565b60010161126d565b50600101611255565b6060808251600114801561134257506080835f8151811061133857611338611c44565b016020015160f81c105b1561134e5750816111b6565b61135a835160806113c6565b8360405160200161136c929190611d20565b604051602081830303815290604052905092915050565b60605f61138f83611562565b905061139d815160c06113c6565b816040516020016113af929190611d20565b604051602081830303815290604052915050919050565b606080603884101561142e57604080516001808252818301909252906020820181803683370190505090506113fb8385611b17565b601f1a60f81b815f8151811061141357611413611c44565b60200101906001600160f81b03191690815f1a905350610788565b5f60015b80861061144e578161144381611d34565b92505060081b611432565b611459826001611b17565b6001600160401b0381111561147057611470611b2a565b6040519080825280601f01601f19166020018201604052801561149a576020820181803683370190505b5092506114a78583611b17565b6114b2906037611b17565b601f1a60f81b835f815181106114ca576114ca611c44565b60200101906001600160f81b03191690815f1a905350600190505b818111611559576101006114f98284611d0d565b61150590610100611e2f565b61150f9088611e4e565b6115199190611e61565b601f1a60f81b83828151811061153157611531611c44565b60200101906001600160f81b03191690815f1a9053508061155181611d34565b9150506114e5565b50509392505050565b606081515f0361157f575050604080515f81526020810190915290565b5f805b83518110156115bb5783818151811061159d5761159d611c44565b602002602001015151826115b19190611b17565b9150600101611582565b5f826001600160401b038111156115d4576115d4611b2a565b6040519080825280601f01601f1916602001820160405280156115fe576020820181803683370190505b505f92509050602081015b855183101561165e575f86848151811061162557611625611c44565b602002602001015190505f60208201905061164283828451611667565b815161164e9084611b17565b6001909501949250611609915050565b50949350505050565b8282825b602081106116a35781518352611682602084611b17565b925061168f602083611b17565b915061169c602082611d0d565b905061166b565b905182515f1960039390931b9290921c918216911916179052505050565b80356001600160a01b03811681146116d7575f5ffd5b919050565b803560ff811681146116d7575f5ffd5b5f5f604083850312156116fd575f5ffd5b611706836116c1565b9150611714602084016116dc565b90509250929050565b5f5f6040838503121561172e575f5ffd5b611737836116c1565b9150611714602084016116c1565b80356001600160801b03811681146116d7575f5ffd5b5f5f83601f84011261176b575f5ffd5b5081356001600160401b03811115611781575f5ffd5b602083019150836020828501011115611798575f5ffd5b9250929050565b5f5f83601f8401126117af575f5ffd5b5081356001600160401b038111156117c5575f5ffd5b6020830191508360208260051b8501011115611798575f5ffd5b5f5f5f5f5f5f5f5f5f5f5f60e08c8e0312156117f9575f5ffd5b6118028c611745565b9a5061181060208d016116c1565b995060408c0135985060608c01356001600160401b03811115611831575f5ffd5b61183d8e828f0161175b565b90995097505060808c01356001600160401b0381111561185b575f5ffd5b6118678e828f0161179f565b90975095505060a08c01356001600160401b03811115611885575f5ffd5b6118918e828f0161179f565b90955093505060c08c01356001600160401b038111156118af575f5ffd5b6118bb8e828f0161179f565b915080935050809150509295989b509295989b9093969950565b602081525f82518060208401528060208501604085015e5f604082850101526040601f19601f83011684010191505092915050565b5f6020828403121561191a575f5ffd5b610788826116c1565b5f60208284031215611933575f5ffd5b5035919050565b5f6020828403121561194a575f5ffd5b61078882611745565b5f5f5f5f60608587031215611966575f5ffd5b61196f856116c1565b93506020850135925060408501356001600160401b03811115611990575f5ffd5b61199c8782880161175b565b95989497509550505050565b5f5f5f5f5f5f5f6080888a0312156119be575f5ffd5b8735965060208801356001600160401b038111156119da575f5ffd5b6119e68a828b0161179f565b90975095505060408801356001600160401b03811115611a04575f5ffd5b611a108a828b0161179f565b90955093505060608801356001600160401b03811115611a2e575f5ffd5b611a3a8a828b0161179f565b989b979a50959850939692959293505050565b5f8151808452602084019350602083015f5b82811015611a865781516001600160a01b0316865260209586019590910190600101611a5f565b5093949350505050565b602081525f6107886020830184611a4d565b600181811c90821680611ab657607f821691505b602082108103611ad457634e487b7160e01b5f52602260045260245ffd5b50919050565b63ffffffff60e01b83168152604060208201525f611afb6040830184611a4d565b949350505050565b634e487b7160e01b5f52601160045260245ffd5b808201808211156111b6576111b6611b03565b634e487b7160e01b5f52604160045260245ffd5b601f821115611b8557805f5260205f20601f840160051c81016020851015611b635750805b601f840160051c820191505b81811015611b82575f8155600101611b6f565b50505b505050565b81516001600160401b03811115611ba357611ba3611b2a565b611bb781611bb18454611aa2565b84611b3e565b6020601f821160018114611be9575f8315611bd25750848201515b5f19600385901b1c1916600184901b178455611b82565b5f84815260208120601f198516915b82811015611c185787850151825560209485019460019092019101611bf8565b5084821015611c3557868401515f19600387901b60f8161c191681555b50505050600190811b01905550565b634e487b7160e01b5f52603260045260245ffd5b5f60208284031215611c68575f5ffd5b610788826116dc565b6001600160801b0381811683821601908111156111b6576111b6611b03565b5f61ffff821680611ca357611ca3611b03565b5f190192915050565b5f61ffff821661ffff8103611cc357611cc3611b03565b60010192915050565b6001600160801b0382811682821603908111156111b6576111b6611b03565b5f81518060208401855e5f93019283525090919050565b5f6107888284611ceb565b818103818111156111b6576111b6611b03565b5f611afb611d2e8386611ceb565b84611ceb565b5f60018201611d4557611d45611b03565b5060010190565b6001815b6001841115611d8757808504811115611d6b57611d6b611b03565b6001841615611d7957908102905b60019390931c928002611d50565b935093915050565b5f82611d9d575060016111b6565b81611da957505f6111b6565b8160018114611dbf5760028114611dc957611de5565b60019150506111b6565b60ff841115611dda57611dda611b03565b50506001821b6111b6565b5060208310610133831016604e8410600b8410161715611e08575081810a6111b6565b611e145f198484611d4c565b805f1904821115611e2757611e27611b03565b029392505050565b5f6107888383611d8f565b634e487b7160e01b5f52601260045260245ffd5b5f82611e5c57611e5c611e3a565b500490565b5f82611e6f57611e6f611e3a565b50069056fea2646970667358221220d1888a57d722e02e568f47dff7fa7f95a713d5b0412debd5af35135171e362d464736f6c634300081d0033",
  "linkReferences": {},
  "deployedLinkReferences": {}
}