{
  "_format": "hh3-artifact-1",
  "contractName": "MultiSigCloneFactory",
  "sourceName": "contracts/multisig/MultiSigCloneFactory.sol",
  "abi": [
    {
      "inputs": [
        {
          "internalType": "address",
          "name": "master",
          "type": "address"
        }
      ],
      "stateMutability": "nonpayable",
      "type": "constructor"
    },
    {
      "inputs": [],
      "name": "FailedDeployment",
      "type": "error"
    },
    {
      "inputs": [
        {
          "internalType": "uint256",
          "name": "balance",
          "type": "uint256"
        },
        {
          "internalType": "uint256",
          "name": "needed",
          "type": "uint256"
        }
      ],
      "name": "InsufficientBalance",
      "type": "error"
    },
    {
      "anonymous": false,
      "inputs": [
        {
          "indexed": true,
          "internalType": "address",
          "name": "contractAddress",
          "type": "address"
        },
        {
          "indexed": true,
          "internalType": "string",
          "name": "typeName",
          "type": "string"
        },
        {
          "indexed": false,
          "internalType": "bytes32",
          "name": "salt",
          "type": "bytes32"
        }
      ],
      "name": "ContractCreated",
      "type": "event"
    },
    {
      "inputs": [],
      "name": "IMPLEMENTATION",
      "outputs": [
        {
          "internalType": "address",
          "name": "",
          "type": "address"
        }
      ],
      "stateMutability": "view",
      "type": "function"
    },
    {
      "inputs": [
        {
          "internalType": "address",
          "name": "owner",
          "type": "address"
        },
        {
          "internalType": "bytes32",
          "name": "salt",
          "type": "bytes32"
        }
      ],
      "name": "create",
      "outputs": [
        {
          "internalType": "address",
          "name": "",
          "type": "address"
        }
      ],
      "stateMutability": "nonpayable",
      "type": "function"
    },
    {
      "inputs": [
        {
          "internalType": "bytes32",
          "name": "salt",
          "type": "bytes32"
        }
      ],
      "name": "predict",
      "outputs": [
        {
          "internalType": "address",
          "name": "",
          "type": "address"
        }
      ],
      "stateMutability": "view",
      "type": "function"
    }
  ],
  "bytecode": "0x60a0604052348015600e575f5ffd5b506040516103d93803806103d9833981016040819052602b91603b565b6001600160a01b03166080526066565b5f60208284031215604a575f5ffd5b81516001600160a01b0381168114605f575f5ffd5b9392505050565b6080516103506100895f395f818160770152818160b2015260e401526103505ff3fe608060405234801561000f575f5ffd5b506004361061003f575f3560e01c80630e787cce146100435780633a4741bd14610072578063a3def92314610099575b5f5ffd5b6100566100513660046102ce565b6100ac565b6040516001600160a01b03909116815260200160405180910390f35b6100567f000000000000000000000000000000000000000000000000000000000000000081565b6100566100a73660046102e5565b6100dd565b5f6100d77f0000000000000000000000000000000000000000000000000000000000000000836101f1565b92915050565b5f5f6101097f00000000000000000000000000000000000000000000000000000000000000008461025c565b9050806001600160a01b031663c4d66de846600114610128575f61012a565b855b6040516001600160e01b031960e084901b1681526001600160a01b0390911660048201526024015f604051808303815f87803b158015610168575f5ffd5b505af115801561017a573d5f5f3e3d5ffd5b5050505060405161019f906d135d5b1d1a54da59d5d85b1b195d60921b8152600e0190565b6040518091039020816001600160a01b03167fc6e302c697af39bbfe24c113fb7456c4a0966ea9d53d59be816a30139494d809856040516101e291815260200190565b60405180910390a39392505050565b6040513060388201526f5af43d82803e903d91602b57fd5bf3ff602482015260148101839052733d602d80600a3d3981f3363d3d373d3d3d363d738152605881018290526037600c820120607882015260556043909101205f906001600160a01b03165b9392505050565b5f61025583838380763d602d80600a3d3981f3363d3d373d3d3d363d730000008460601b60e81c175f526e5af43d82803e903d91602b57fd5bf38460781b17602052826037600984f590506001600160a01b0381166102555760405163b06ebf3d60e01b815260040160405180910390fd5b5f602082840312156102de575f5ffd5b5035919050565b5f5f604083850312156102f6575f5ffd5b82356001600160a01b038116811461030c575f5ffd5b94602093909301359350505056fea2646970667358221220fa68a6ff97d0f1b3ef2a36608a42066163a7a042357edc399b9f35b83244443e64736f6c634300081e0033",
  "linkReferences": {},
  "deployedLinkReferences": {},
  "immutableReferences": {
    "524": [
      {
        "length": 32,
        "start": 119
      },
      {
        "length": 32,
        "start": 178
      },
      {
        "length": 32,
        "start": 228
      }
    ]
  },
  "inputSourceName": "project/contracts/multisig/MultiSigCloneFactory.sol",
  "buildInfoId": "solc-0_8_30-516b1eb78d9105cabf56fb5a8691e7743a985ea9"
}