{
  "address": "0xed149D0fE1Ffc414d648EE8EAFeA1b8D27ee2408",
  "abi": [
    {
      "inputs": [
        {
          "internalType": "string",
          "name": "_terms",
          "type": "string"
        },
        {
          "internalType": "contract IERC20",
          "name": "_wrappedToken",
          "type": "address"
        },
        {
          "internalType": "uint256",
          "name": "_quorum",
          "type": "uint256"
        },
        {
          "internalType": "uint256",
          "name": "_votePeriod",
          "type": "uint256"
        },
        {
          "internalType": "contract IRecoveryHub",
          "name": "_recoveryHub",
          "type": "address"
        },
        {
          "internalType": "contract IOfferFactory",
          "name": "_offerFactory",
          "type": "address"
        },
        {
          "internalType": "address",
          "name": "_oracle",
          "type": "address"
        },
        {
          "internalType": "address",
          "name": "_owner",
          "type": "address"
        }
      ],
      "stateMutability": "nonpayable",
      "type": "constructor"
    },
    {
      "anonymous": false,
      "inputs": [
        {
          "indexed": true,
          "internalType": "address",
          "name": "account",
          "type": "address"
        },
        {
          "indexed": false,
          "internalType": "uint8",
          "name": "addressType",
          "type": "uint8"
        }
      ],
      "name": "AddressTypeUpdate",
      "type": "event"
    },
    {
      "anonymous": false,
      "inputs": [
        {
          "indexed": true,
          "internalType": "address",
          "name": "owner",
          "type": "address"
        },
        {
          "indexed": true,
          "internalType": "address",
          "name": "spender",
          "type": "address"
        },
        {
          "indexed": false,
          "internalType": "uint256",
          "name": "value",
          "type": "uint256"
        }
      ],
      "name": "Approval",
      "type": "event"
    },
    {
      "anonymous": false,
      "inputs": [
        {
          "indexed": false,
          "internalType": "address",
          "name": "oracle",
          "type": "address"
        }
      ],
      "name": "ChangeOracle",
      "type": "event"
    },
    {
      "anonymous": false,
      "inputs": [
        {
          "indexed": false,
          "internalType": "address",
          "name": "newContractAddress",
          "type": "address"
        },
        {
          "indexed": false,
          "internalType": "uint256",
          "name": "yesVotes",
          "type": "uint256"
        },
        {
          "indexed": false,
          "internalType": "uint256",
          "name": "oracleVotes",
          "type": "uint256"
        },
        {
          "indexed": false,
          "internalType": "uint256",
          "name": "totalVotingPower",
          "type": "uint256"
        }
      ],
      "name": "MigrationSucceeded",
      "type": "event"
    },
    {
      "anonymous": false,
      "inputs": [
        {
          "indexed": false,
          "internalType": "string",
          "name": "name",
          "type": "string"
        },
        {
          "indexed": false,
          "internalType": "string",
          "name": "symbol",
          "type": "string"
        }
      ],
      "name": "NameChanged",
      "type": "event"
    },
    {
      "anonymous": false,
      "inputs": [
        {
          "indexed": true,
          "internalType": "address",
          "name": "previousOwner",
          "type": "address"
        },
        {
          "indexed": true,
          "internalType": "address",
          "name": "newOwner",
          "type": "address"
        }
      ],
      "name": "OwnershipTransferred",
      "type": "event"
    },
    {
      "anonymous": false,
      "inputs": [
        {
          "indexed": true,
          "internalType": "address",
          "name": "from",
          "type": "address"
        },
        {
          "indexed": true,
          "internalType": "address",
          "name": "to",
          "type": "address"
        },
        {
          "indexed": false,
          "internalType": "uint256",
          "name": "value",
          "type": "uint256"
        }
      ],
      "name": "Transfer",
      "type": "event"
    },
    {
      "inputs": [
        {
          "internalType": "address",
          "name": "owner",
          "type": "address"
        },
        {
          "internalType": "address",
          "name": "spender",
          "type": "address"
        }
      ],
      "name": "allowance",
      "outputs": [
        {
          "internalType": "uint256",
          "name": "",
          "type": "uint256"
        }
      ],
      "stateMutability": "view",
      "type": "function"
    },
    {
      "inputs": [
        {
          "internalType": "address",
          "name": "spender",
          "type": "address"
        },
        {
          "internalType": "uint256",
          "name": "value",
          "type": "uint256"
        }
      ],
      "name": "approve",
      "outputs": [
        {
          "internalType": "bool",
          "name": "",
          "type": "bool"
        }
      ],
      "stateMutability": "nonpayable",
      "type": "function"
    },
    {
      "inputs": [
        {
          "internalType": "address",
          "name": "account",
          "type": "address"
        }
      ],
      "name": "balanceOf",
      "outputs": [
        {
          "internalType": "uint256",
          "name": "",
          "type": "uint256"
        }
      ],
      "stateMutability": "view",
      "type": "function"
    },
    {
      "inputs": [
        {
          "internalType": "uint256",
          "name": "amount",
          "type": "uint256"
        }
      ],
      "name": "burn",
      "outputs": [],
      "stateMutability": "nonpayable",
      "type": "function"
    },
    {
      "inputs": [
        {
          "internalType": "address",
          "name": "account",
          "type": "address"
        }
      ],
      "name": "canReceiveFromAnyone",
      "outputs": [
        {
          "internalType": "bool",
          "name": "",
          "type": "bool"
        }
      ],
      "stateMutability": "view",
      "type": "function"
    },
    {
      "inputs": [],
      "name": "claimPeriod",
      "outputs": [
        {
          "internalType": "uint256",
          "name": "",
          "type": "uint256"
        }
      ],
      "stateMutability": "pure",
      "type": "function"
    },
    {
      "inputs": [],
      "name": "customCollateralAddress",
      "outputs": [
        {
          "internalType": "contract IERC20",
          "name": "",
          "type": "address"
        }
      ],
      "stateMutability": "view",
      "type": "function"
    },
    {
      "inputs": [],
      "name": "customCollateralRate",
      "outputs": [
        {
          "internalType": "uint256",
          "name": "",
          "type": "uint256"
        }
      ],
      "stateMutability": "view",
      "type": "function"
    },
    {
      "inputs": [],
      "name": "decimals",
      "outputs": [
        {
          "internalType": "uint8",
          "name": "",
          "type": "uint8"
        }
      ],
      "stateMutability": "view",
      "type": "function"
    },
    {
      "inputs": [
        {
          "internalType": "address",
          "name": "lostAddress",
          "type": "address"
        }
      ],
      "name": "deleteClaim",
      "outputs": [],
      "stateMutability": "nonpayable",
      "type": "function"
    },
    {
      "inputs": [
        {
          "internalType": "address",
          "name": "buyer",
          "type": "address"
        },
        {
          "internalType": "contract IERC20",
          "name": "currency",
          "type": "address"
        }
      ],
      "name": "drag",
      "outputs": [],
      "stateMutability": "nonpayable",
      "type": "function"
    },
    {
      "inputs": [],
      "name": "factory",
      "outputs": [
        {
          "internalType": "contract IOfferFactory",
          "name": "",
          "type": "address"
        }
      ],
      "stateMutability": "view",
      "type": "function"
    },
    {
      "inputs": [],
      "name": "getClaimDeleter",
      "outputs": [
        {
          "internalType": "address",
          "name": "",
          "type": "address"
        }
      ],
      "stateMutability": "view",
      "type": "function"
    },
    {
      "inputs": [
        {
          "internalType": "contract IERC20",
          "name": "collateralType",
          "type": "address"
        }
      ],
      "name": "getCollateralRate",
      "outputs": [
        {
          "internalType": "uint256",
          "name": "",
          "type": "uint256"
        }
      ],
      "stateMutability": "view",
      "type": "function"
    },
    {
      "inputs": [
        {
          "internalType": "address",
          "name": "account",
          "type": "address"
        },
        {
          "internalType": "uint8",
          "name": "number",
          "type": "uint8"
        }
      ],
      "name": "hasFlag",
      "outputs": [
        {
          "internalType": "bool",
          "name": "",
          "type": "bool"
        }
      ],
      "stateMutability": "view",
      "type": "function"
    },
    {
      "inputs": [],
      "name": "isBinding",
      "outputs": [
        {
          "internalType": "bool",
          "name": "",
          "type": "bool"
        }
      ],
      "stateMutability": "view",
      "type": "function"
    },
    {
      "inputs": [
        {
          "internalType": "address",
          "name": "account",
          "type": "address"
        }
      ],
      "name": "isForbidden",
      "outputs": [
        {
          "internalType": "bool",
          "name": "",
          "type": "bool"
        }
      ],
      "stateMutability": "view",
      "type": "function"
    },
    {
      "inputs": [
        {
          "internalType": "address",
          "name": "account",
          "type": "address"
        }
      ],
      "name": "isPowerlisted",
      "outputs": [
        {
          "internalType": "bool",
          "name": "",
          "type": "bool"
        }
      ],
      "stateMutability": "view",
      "type": "function"
    },
    {
      "inputs": [
        {
          "internalType": "bytes32",
          "name": "salt",
          "type": "bytes32"
        },
        {
          "internalType": "uint256",
          "name": "pricePerShare",
          "type": "uint256"
        },
        {
          "internalType": "contract IERC20",
          "name": "currency",
          "type": "address"
        }
      ],
      "name": "makeAcquisitionOffer",
      "outputs": [],
      "stateMutability": "payable",
      "type": "function"
    },
    {
      "inputs": [],
      "name": "migrate",
      "outputs": [],
      "stateMutability": "nonpayable",
      "type": "function"
    },
    {
      "inputs": [
        {
          "internalType": "address",
          "name": "successor",
          "type": "address"
        },
        {
          "internalType": "uint256",
          "name": "additionalVotes",
          "type": "uint256"
        }
      ],
      "name": "migrateWithExternalApproval",
      "outputs": [],
      "stateMutability": "nonpayable",
      "type": "function"
    },
    {
      "inputs": [],
      "name": "name",
      "outputs": [
        {
          "internalType": "string",
          "name": "",
          "type": "string"
        }
      ],
      "stateMutability": "view",
      "type": "function"
    },
    {
      "inputs": [
        {
          "internalType": "address",
          "name": "target",
          "type": "address"
        }
      ],
      "name": "notifyClaimDeleted",
      "outputs": [],
      "stateMutability": "nonpayable",
      "type": "function"
    },
    {
      "inputs": [
        {
          "internalType": "address",
          "name": "target",
          "type": "address"
        }
      ],
      "name": "notifyClaimMade",
      "outputs": [],
      "stateMutability": "nonpayable",
      "type": "function"
    },
    {
      "inputs": [],
      "name": "notifyOfferEnded",
      "outputs": [],
      "stateMutability": "nonpayable",
      "type": "function"
    },
    {
      "inputs": [
        {
          "internalType": "address",
          "name": "voter",
          "type": "address"
        }
      ],
      "name": "notifyVoted",
      "outputs": [],
      "stateMutability": "nonpayable",
      "type": "function"
    },
    {
      "inputs": [],
      "name": "offer",
      "outputs": [
        {
          "internalType": "contract IOffer",
          "name": "",
          "type": "address"
        }
      ],
      "stateMutability": "view",
      "type": "function"
    },
    {
      "inputs": [
        {
          "internalType": "address",
          "name": "from",
          "type": "address"
        },
        {
          "internalType": "uint256",
          "name": "amount",
          "type": "uint256"
        },
        {
          "internalType": "bytes",
          "name": "",
          "type": "bytes"
        }
      ],
      "name": "onTokenTransfer",
      "outputs": [
        {
          "internalType": "bool",
          "name": "",
          "type": "bool"
        }
      ],
      "stateMutability": "nonpayable",
      "type": "function"
    },
    {
      "inputs": [],
      "name": "oracle",
      "outputs": [
        {
          "internalType": "address",
          "name": "",
          "type": "address"
        }
      ],
      "stateMutability": "view",
      "type": "function"
    },
    {
      "inputs": [],
      "name": "owner",
      "outputs": [
        {
          "internalType": "address",
          "name": "",
          "type": "address"
        }
      ],
      "stateMutability": "view",
      "type": "function"
    },
    {
      "inputs": [],
      "name": "quorum",
      "outputs": [
        {
          "internalType": "uint256",
          "name": "",
          "type": "uint256"
        }
      ],
      "stateMutability": "view",
      "type": "function"
    },
    {
      "inputs": [
        {
          "internalType": "address",
          "name": "oldAddress",
          "type": "address"
        },
        {
          "internalType": "address",
          "name": "newAddress",
          "type": "address"
        }
      ],
      "name": "recover",
      "outputs": [],
      "stateMutability": "nonpayable",
      "type": "function"
    },
    {
      "inputs": [],
      "name": "recovery",
      "outputs": [
        {
          "internalType": "contract IRecoveryHub",
          "name": "",
          "type": "address"
        }
      ],
      "stateMutability": "view",
      "type": "function"
    },
    {
      "inputs": [],
      "name": "restrictTransfers",
      "outputs": [
        {
          "internalType": "bool",
          "name": "",
          "type": "bool"
        }
      ],
      "stateMutability": "view",
      "type": "function"
    },
    {
      "inputs": [
        {
          "internalType": "bool",
          "name": "transferRestrictionsApplicable",
          "type": "bool"
        }
      ],
      "name": "setApplicable",
      "outputs": [],
      "stateMutability": "nonpayable",
      "type": "function"
    },
    {
      "inputs": [
        {
          "internalType": "address",
          "name": "newOracle",
          "type": "address"
        }
      ],
      "name": "setOracle",
      "outputs": [],
      "stateMutability": "nonpayable",
      "type": "function"
    },
    {
      "inputs": [
        {
          "internalType": "address[]",
          "name": "addressesToAdd",
          "type": "address[]"
        },
        {
          "internalType": "uint8",
          "name": "value",
          "type": "uint8"
        }
      ],
      "name": "setType",
      "outputs": [],
      "stateMutability": "nonpayable",
      "type": "function"
    },
    {
      "inputs": [
        {
          "internalType": "address",
          "name": "account",
          "type": "address"
        },
        {
          "internalType": "uint8",
          "name": "typeNumber",
          "type": "uint8"
        }
      ],
      "name": "setType",
      "outputs": [],
      "stateMutability": "nonpayable",
      "type": "function"
    },
    {
      "inputs": [],
      "name": "symbol",
      "outputs": [
        {
          "internalType": "string",
          "name": "",
          "type": "string"
        }
      ],
      "stateMutability": "view",
      "type": "function"
    },
    {
      "inputs": [],
      "name": "terms",
      "outputs": [
        {
          "internalType": "string",
          "name": "",
          "type": "string"
        }
      ],
      "stateMutability": "view",
      "type": "function"
    },
    {
      "inputs": [],
      "name": "totalSupply",
      "outputs": [
        {
          "internalType": "uint256",
          "name": "",
          "type": "uint256"
        }
      ],
      "stateMutability": "view",
      "type": "function"
    },
    {
      "inputs": [],
      "name": "totalVotingTokens",
      "outputs": [
        {
          "internalType": "uint256",
          "name": "",
          "type": "uint256"
        }
      ],
      "stateMutability": "view",
      "type": "function"
    },
    {
      "inputs": [
        {
          "internalType": "address",
          "name": "to",
          "type": "address"
        },
        {
          "internalType": "uint256",
          "name": "value",
          "type": "uint256"
        }
      ],
      "name": "transfer",
      "outputs": [
        {
          "internalType": "bool",
          "name": "",
          "type": "bool"
        }
      ],
      "stateMutability": "nonpayable",
      "type": "function"
    },
    {
      "inputs": [
        {
          "internalType": "address",
          "name": "recipient",
          "type": "address"
        },
        {
          "internalType": "uint256",
          "name": "amount",
          "type": "uint256"
        },
        {
          "internalType": "bytes",
          "name": "data",
          "type": "bytes"
        }
      ],
      "name": "transferAndCall",
      "outputs": [
        {
          "internalType": "bool",
          "name": "",
          "type": "bool"
        }
      ],
      "stateMutability": "nonpayable",
      "type": "function"
    },
    {
      "inputs": [
        {
          "internalType": "address",
          "name": "sender",
          "type": "address"
        },
        {
          "internalType": "address",
          "name": "recipient",
          "type": "address"
        },
        {
          "internalType": "uint256",
          "name": "amount",
          "type": "uint256"
        }
      ],
      "name": "transferFrom",
      "outputs": [
        {
          "internalType": "bool",
          "name": "",
          "type": "bool"
        }
      ],
      "stateMutability": "nonpayable",
      "type": "function"
    },
    {
      "inputs": [
        {
          "internalType": "address",
          "name": "newOwner",
          "type": "address"
        }
      ],
      "name": "transferOwnership",
      "outputs": [],
      "stateMutability": "nonpayable",
      "type": "function"
    },
    {
      "inputs": [
        {
          "internalType": "uint256",
          "name": "amount",
          "type": "uint256"
        }
      ],
      "name": "unwrap",
      "outputs": [],
      "stateMutability": "nonpayable",
      "type": "function"
    },
    {
      "inputs": [],
      "name": "unwrapConversionFactor",
      "outputs": [
        {
          "internalType": "uint256",
          "name": "",
          "type": "uint256"
        }
      ],
      "stateMutability": "view",
      "type": "function"
    },
    {
      "inputs": [],
      "name": "votePeriod",
      "outputs": [
        {
          "internalType": "uint256",
          "name": "",
          "type": "uint256"
        }
      ],
      "stateMutability": "view",
      "type": "function"
    },
    {
      "inputs": [
        {
          "internalType": "address",
          "name": "voter",
          "type": "address"
        }
      ],
      "name": "votingPower",
      "outputs": [
        {
          "internalType": "uint256",
          "name": "",
          "type": "uint256"
        }
      ],
      "stateMutability": "view",
      "type": "function"
    },
    {
      "inputs": [
        {
          "internalType": "address",
          "name": "shareholder",
          "type": "address"
        },
        {
          "internalType": "uint256",
          "name": "amount",
          "type": "uint256"
        }
      ],
      "name": "wrap",
      "outputs": [],
      "stateMutability": "nonpayable",
      "type": "function"
    },
    {
      "inputs": [],
      "name": "wrapped",
      "outputs": [
        {
          "internalType": "contract IERC20",
          "name": "",
          "type": "address"
        }
      ],
      "stateMutability": "view",
      "type": "function"
    }
  ],
  "transactionHash": "0x073335899c1f767dc5109c8e2e20ded15b073588f11fa85978c13d02f430097f",
  "args": [
    "https://www.example.ch/investors",
    "0xb5632C6289d4caB83DC7C2D15222DF7b9D8F5DD6",
    7500,
    5184000,
    "0x33a999c27896e0b1d7B90554F05e7342cfc40BCb",
    "0x4B28071E90245DC4e13Aa495684fd4f3BA8B7cE2",
    "0xF92920DD102259eC4aa23eAF5Fd1cc2a7512ffF1",
    "0xF92920DD102259eC4aa23eAF5Fd1cc2a7512ffF1"
  ],
  "numDeployments": 1,
  "solcInputHash": "e476667e98ce13713b30f2824ceaba32",
  "bytecode": "0x61010060405260006005553480156200001757600080fd5b5060405162002fe638038062002fe68339810160408190526200003a91620003b7565b878787878787878286868685858d600080600360006101000a81548160ff021916908360ff1602179055505080600360016101000a8154816001600160a01b0302191690836001600160a01b03160217905550600360019054906101000a90046001600160a01b03166001600160a01b031660006001600160a01b03167f8be0079c531659141344cd1fd0a4f28419497f9722a3daafe3b4186f6b6457e060405160405180910390a350620000f06001620001b8565b600480546001600160a01b03199081166001600160a01b039788161790915560a09490945260c0929092528316608052600780549092169083161790551660e05286516200014690600a9060208a0190620002de565b50604051636427ed9760e01b8152600060048201526001600160a01b03841690636427ed9790602401600060405180830381600087803b1580156200018a57600080fd5b505af11580156200019f573d6000803e3d6000fd5b5050505050505050505050505050505050505062000577565b6003805482158015600160a81b0260ff60a81b1990921691909117909155620001ec57620001e960006004620001f4565b50565b620001e96000805b6200020882601460ff841660011462000275565b6200021c82601560ff841660021462000275565b6200023082601660ff841660041462000275565b60405160ff821681526001600160a01b038316907fe423d7d31023dbacefed7c937785d0012ad8f314381295efebfc0471d2c434549060200160405180910390a25050565b6000620002848360e062000506565b6001600160a01b038516600090815260208190526040902054600160ff929092169190911b9150808216821483151514620002d7576001600160a01b038516600090815260208190526040902081831890555b5050505050565b828054620002ec906200053a565b90600052602060002090601f0160209004810192826200031057600085556200035b565b82601f106200032b57805160ff19168380011785556200035b565b828001600101855582156200035b579182015b828111156200035b5782518255916020019190600101906200033e565b50620003699291506200036d565b5090565b5b808211156200036957600081556001016200036e565b634e487b7160e01b600052604160045260246000fd5b80516001600160a01b0381168114620003b257600080fd5b919050565b600080600080600080600080610100898b031215620003d557600080fd5b88516001600160401b0380821115620003ed57600080fd5b818b0191508b601f8301126200040257600080fd5b81518181111562000417576200041762000384565b604051601f8201601f19908116603f0116810190838211818310171562000442576200044262000384565b81604052828152602093508e848487010111156200045f57600080fd5b600091505b8282101562000483578482018401518183018501529083019062000464565b82821115620004955760008484830101525b9b50620004a79150508b82016200039a565b985050506040890151955060608901519450620004c760808a016200039a565b9350620004d760a08a016200039a565b9250620004e760c08a016200039a565b9150620004f760e08a016200039a565b90509295985092959890939650565b600060ff821660ff84168060ff038211156200053257634e487b7160e01b600052601160045260246000fd5b019392505050565b600181811c908216806200054f57607f821691505b602082108114156200057157634e487b7160e01b600052602260045260246000fd5b50919050565b60805160a05160c05160e0516129f6620005f0600039600081816108f401528181610cc601528181610f140152818161131801528181611612015261201201526000818161073d01526114690152600081816103e201528181611443015261184c015260008181610831015261149201526129f66000f3fe6080604052600436106102ff5760003560e01c80638da5cb5b11610190578063c18172c4116100dc578063ddceafa911610095578063e5b824ec1161006f578063e5b824ec14610956578063f2fde38b14610976578063f5c0b95f14610996578063fcb79a7e146109b657600080fd5b8063ddceafa9146108e2578063de0e9a3e14610916578063e445d70a1461093657600080fd5b8063c18172c4146107ff578063c45a01551461081f578063d37a9bb014610853578063d502562514610874578063dcc7d4ad14610889578063dd62ed3e1461089c57600080fd5b8063a4c0ed3611610149578063b1c8db6611610123578063b1c8db661461077f578063bf376c7a1461079f578063c028df06146107bf578063c07473f6146107df57600080fd5b8063a4c0ed361461070b578063a78135871461072b578063a9059cbb1461075f57600080fd5b80638da5cb5b146106665780638fd3ab801461068b57806395d89b41146106a05780639e37878c146106b55780639e4b5745146106d5578063a49a7cb1146106eb57600080fd5b806332bc320b1161024f578063609181171161020857806377e071ad116101e257806377e071ad146105f05780637adbf973146106105780637dc0d1d0146106305780637dc2cd981461065057600080fd5b8063609181171461059a578063648bf774146105b057806370a08231146105d057600080fd5b806332bc320b146104e55780634000aea0146104fa57806342966c681461051a578063429c66f01461053a57806345c8a62b1461055a57806350e70d481461057a57600080fd5b806318160ddd116102bc5780632a0a4ed5116102965780632a0a4ed51461045b5780632b34309914610479578063313ce5671461049957806332a7ae95146104c557600080fd5b806318160ddd14610404578063198453541461041957806323b872dd1461043b57600080fd5b806306fdde03146103045780630832e4701461032f578063095ea7b3146103535780630a81b2de146103835780630c6f0e5d146103985780631703a018146103d0575b600080fd5b34801561031057600080fd5b506103196109d6565b6040516103269190612326565b60405180910390f35b34801561033b57600080fd5b5061034560055481565b604051908152602001610326565b34801561035f57600080fd5b5061037361036e36600461234e565b610a8f565b6040519015158152602001610326565b34801561038f57600080fd5b50610345610aa5565b3480156103a457600080fd5b506008546103b8906001600160a01b031681565b6040516001600160a01b039091168152602001610326565b3480156103dc57600080fd5b506103457f000000000000000000000000000000000000000000000000000000000000000081565b34801561041057600080fd5b50600254610345565b34801561042557600080fd5b5061043961043436600461234e565b610b23565b005b34801561044757600080fd5b5061037361045636600461237a565b610bcf565b34801561046757600080fd5b506007546001600160a01b03166103b8565b34801561048557600080fd5b506103736104943660046123bb565b610c46565b3480156104a557600080fd5b506003546104b39060ff1681565b60405160ff9091168152602001610326565b3480156104d157600080fd5b506104396104e03660046123bb565b610c59565b3480156104f157600080fd5b50610439610d26565b34801561050657600080fd5b506103736105153660046123d8565b610d62565b34801561052657600080fd5b50610439610535366004612461565b610df3565b34801561054657600080fd5b5061043961055536600461248b565b610e4e565b34801561056657600080fd5b506104396105753660046123bb565b610ed0565b34801561058657600080fd5b506004546103b8906001600160a01b031681565b3480156105a657600080fd5b5061034560095481565b3480156105bc57600080fd5b506104396105cb36600461250f565b610f09565b3480156105dc57600080fd5b506103456105eb3660046123bb565b610f64565b3480156105fc57600080fd5b5061034561060b3660046123bb565b610f88565b34801561061c57600080fd5b5061043961062b3660046123bb565b611068565b34801561063c57600080fd5b506007546103b8906001600160a01b031681565b34801561065c57600080fd5b5062ed4e00610345565b34801561067257600080fd5b506003546103b89061010090046001600160a01b031681565b34801561069757600080fd5b50610439611104565b3480156106ac57600080fd5b50610319611111565b3480156106c157600080fd5b506103736106d03660046123bb565b6111b2565b3480156106e157600080fd5b5060055415610373565b3480156106f757600080fd5b50610439610706366004612548565b6111bf565b34801561071757600080fd5b506103736107263660046123d8565b6111f8565b34801561073757600080fd5b506103457f000000000000000000000000000000000000000000000000000000000000000081565b34801561076b57600080fd5b5061037361077a36600461234e565b61122f565b34801561078b57600080fd5b5061037361079a3660046123bb565b611242565b3480156107ab57600080fd5b506104396107ba36600461234e565b611260565b3480156107cb57600080fd5b506006546103b8906001600160a01b031681565b3480156107eb57600080fd5b506103456107fa3660046123bb565b611302565b34801561080b57600080fd5b5061043961081a3660046123bb565b61130d565b34801561082b57600080fd5b506103b87f000000000000000000000000000000000000000000000000000000000000000081565b34801561085f57600080fd5b5060035461037390600160a81b900460ff1681565b34801561088057600080fd5b50610319611362565b61043961089736600461257d565b6113f0565b3480156108a857600080fd5b506103456108b736600461250f565b6001600160a01b03918216600090815260016020908152604080832093909416825291909152205490565b3480156108ee57600080fd5b506103b87f000000000000000000000000000000000000000000000000000000000000000081565b34801561092257600080fd5b50610439610931366004612461565b6115a3565b34801561094257600080fd5b506104396109513660046125c4565b6115cf565b34801561096257600080fd5b506104396109713660046123bb565b611607565b34801561098257600080fd5b506104396109913660046123bb565b61165c565b3480156109a257600080fd5b506103736109b1366004612548565b6116f2565b3480156109c257600080fd5b506104396109d136600461250f565b6116fe565b60048054604080516306fdde0360e01b815290516060936000936001600160a01b0316926306fdde03928183019286928290030181865afa158015610a1f573d6000803e3d6000fd5b505050506040513d6000823e601f3d908101601f19168201604052610a4791908101906125f7565b9050610a536005541590565b15610a7e5780604051602001610a6991906126a4565b60405160208183030381529060405291505090565b80604051602001610a6991906126cc565b6000610a9c338484611746565b50600192915050565b6000600460009054906101000a90046001600160a01b03166001600160a01b0316633a98ef396040518163ffffffff1660e01b8152600401602060405180830381865afa158015610afa573d6000803e3d6000fd5b505050506040513d601f19601f82011682018060405250810190610b1e91906126fa565b905090565b6007546001600160a01b03163314610b6f5760405162461bcd60e51b815260206004820152600a6024820152696e6f74206f7261636c6560b01b60448201526064015b60405180910390fd5b610b77610aa5565b81610b8160025490565b610b8b9190612729565b1115610bc15760405162461bcd60e51b8152602060048201526005602482015264766f74657360d81b6044820152606401610b66565b610bcb82826117a8565b5050565b6000610bdc848484611915565b6001600160a01b0384166000908152600160209081526040808320338452909152902054600160ff1b811015610c3b57610c168382612741565b6001600160a01b03861660009081526001602090815260408083203384529091529020555b506001949350505050565b6000610c53826016611979565b92915050565b6007546001600160a01b03163314610ca75760405162461bcd60e51b81526020600482015260116024820152703737ba1031b630b4b6903232b632ba32b960791b6044820152606401610b66565b6040516332a7ae9560e01b81526001600160a01b0382811660048301527f000000000000000000000000000000000000000000000000000000000000000016906332a7ae95906024015b600060405180830381600087803b158015610d0b57600080fd5b505af1158015610d1f573d6000803e3d6000fd5b5050505050565b6006546001600160a01b03163314610d505760405162461bcd60e51b8152600401610b6690612758565b600680546001600160a01b0319169055565b6000610d6e858561122f565b8015610dea5750604051635260769b60e11b81526001600160a01b0386169063a4c0ed3690610da7903390889088908890600401612778565b6020604051808303816000875af1158015610dc6573d6000803e3d6000fd5b505050506040513d601f19601f82011682018060405250810190610dea91906127c0565b95945050505050565b610dfd33826119b9565b6004546001600160a01b03166342966c68610e186005541590565b610e2e57600554610e2990846127dd565b610e30565b825b6040518263ffffffff1660e01b8152600401610cf191815260200190565b60035461010090046001600160a01b03163314610e7d5760405162461bcd60e51b8152600401610b66906127fc565b60005b82811015610eca57610eb8848483818110610e9d57610e9d61281f565b9050602002016020810190610eb291906123bb565b836111bf565b80610ec281612835565b915050610e80565b50505050565b6006546001600160a01b03163314610efa5760405162461bcd60e51b8152600401610b6690612758565b610f0681600180611a2d565b50565b336001600160a01b037f00000000000000000000000000000000000000000000000000000000000000001614610f515760405162461bcd60e51b8152600401610b6690612850565b610bcb8282610f5f85610f64565b611915565b6001600160a01b03166000908152602081905260409020546001600160e01b031690565b600080610f9483611a91565b90508015610fa25792915050565b6000610fae6005541590565b610fba57600554610fbd565b60015b6004549091506001600160a01b0385811691161415610fdd579392505050565b600480546040516377e071ad60e01b81526001600160a01b03878116938201939093528392909116906377e071ad90602401602060405180830381865afa15801561102c573d6000803e3d6000fd5b505050506040513d601f19601f8201168201806040525081019061105091906126fa565b61105a91906127dd565b949350505050565b50919050565b6007546001600160a01b031633146110af5760405162461bcd60e51b815260206004820152600a6024820152696e6f74206f7261636c6560b01b6044820152606401610b66565b600780546001600160a01b0319166001600160a01b0383169081179091556040519081527fc3977c9522c218453912bcab15964a7788968fbf3fe4d4e2965252c9f07055de906020015b60405180910390a150565b61110f3360006117a8565b565b6060600460009054906101000a90046001600160a01b03166001600160a01b03166395d89b416040518163ffffffff1660e01b8152600401600060405180830381865afa158015611166573d6000803e3d6000fd5b505050506040513d6000823e601f3d908101601f1916820160405261118e91908101906125f7565b60405160200161119e9190612876565b604051602081830303815290604052905090565b6000610c53826015611979565b60035461010090046001600160a01b031633146111ee5760405162461bcd60e51b8152600401610b66906127fc565b610bcb8282611ad7565b6004546000906001600160a01b031633146112255760405162461bcd60e51b8152600401610b6690612758565b610c3b8585611b52565b600061123b8383611bbe565b9392505050565b600061124f826014611979565b80610c535750610c53826016611979565b600480546040516323b872dd60e01b81523392810192909252306024830152604482018390526001600160a01b0316906323b872dd906064016020604051808303816000875af11580156112b8573d6000803e3d6000fd5b505050506040513d601f19601f820116820180604052508101906112dc91906127c0565b6112f85760405162461bcd60e51b8152600401610b669061289b565b610bcb8282611b52565b6000610c5382610f64565b336001600160a01b037f000000000000000000000000000000000000000000000000000000000000000016146113555760405162461bcd60e51b8152600401610b6690612850565b610f0681600a6001611a2d565b600a805461136f906128bd565b80601f016020809104026020016040519081016040528092919081815260200182805461139b906128bd565b80156113e85780601f106113bd576101008083540402835291602001916113e8565b820191906000526020600020905b8154815290600101906020018083116113cb57829003601f168201915b505050505081565b600554156114105760405162461bcd60e51b8152600401610b66906128f2565b604051634dc5e43160e01b815260048101849052336024820152604481018390526001600160a01b0382811660648301527f000000000000000000000000000000000000000000000000000000000000000060848301527f000000000000000000000000000000000000000000000000000000000000000060a48301526000917f000000000000000000000000000000000000000000000000000000000000000090911690634dc5e43190349060c40160206040518083038185885af11580156114de573d6000803e3d6000fd5b50505050506040513d601f19601f820116820180604052508101906115039190612912565b90506115196006546001600160a01b0316151590565b1561157e57600654604051637b64620f60e11b81526001600160a01b0383811660048301529091169063f6c8c41e90602401600060405180830381600087803b15801561156557600080fd5b505af1158015611579573d6000803e3d6000fd5b505050505b600680546001600160a01b0319166001600160a01b0392909216919091179055505050565b6005546115c25760405162461bcd60e51b8152600401610b66906128f2565b610f063382600554611bca565b60035461010090046001600160a01b031633146115fe5760405162461bcd60e51b8152600401610b66906127fc565b610f0681611c80565b336001600160a01b037f0000000000000000000000000000000000000000000000000000000000000000161461164f5760405162461bcd60e51b8152600401610b6690612850565b610f0681600a6000611a2d565b60035461010090046001600160a01b0316331461168b5760405162461bcd60e51b8152600401610b66906127fc565b6003546040516001600160a01b0380841692610100900416907f8be0079c531659141344cd1fd0a4f28419497f9722a3daafe3b4186f6b6457e090600090a3600380546001600160a01b0390921661010002610100600160a81b0319909216919091179055565b600061123b8383611979565b6006546001600160a01b031633146117285760405162461bcd60e51b8152600401610b6690612758565b61173c8261173584610f64565b6001611bca565b610bcb8183611cb9565b6001600160a01b0383811660008181526001602090815260408083209487168084529482529182902085905590518481527f8c5be1e5ebec7d5bd14f71427d1e84f3dd0314c0f7b2291e5b200ac8c7c3b92591015b60405180910390a3505050565b60006117b383610f64565b6117bd9083612729565b905060006117c9610aa5565b9050808211156118035760405162461bcd60e51b8152602060048201526005602482015264766f74657360d81b6044820152606401610b66565b6006546001600160a01b0316156118475760405162461bcd60e51b815260206004820152600860248201526737379037b33332b960c11b6044820152606401610b66565b6118717f0000000000000000000000000000000000000000000000000000000000000000826127dd565b61187d612710846127dd565b10156118b45760405162461bcd60e51b815260206004820152600660248201526571756f72756d60d01b6044820152606401610b66565b6118be8485611cb9565b604080516001600160a01b038616815260208101849052908101849052606081018290527f85e5711a70a7d2bae18e1232af474d82c98600b0e62fe079a28208520b58568e9060800160405180910390a150505050565b611920838383611e74565b61192a8382611e7f565b6119348282611f15565b816001600160a01b0316836001600160a01b03167fddf252ad1be2c89b69c2b068fc378daa952ba7f163c4a11628f55a4df523b3ef8360405161179b91815260200190565b6000806119878360e061292f565b6001600160a01b038516600090815260208190526040902054600160ff929092169190911b9081161491505092915050565b6119c582600083611e74565b80600260008282546119d79190612741565b909155506119e790508282611e7f565b6040518181526000906001600160a01b038416907fddf252ad1be2c89b69c2b068fc378daa952ba7f163c4a11628f55a4df523b3ef906020015b60405180910390a35050565b6000611a3a8360e061292f565b6001600160a01b038516600090815260208190526040902054600160ff929092169190911b9150808216821483151514610d1f576001600160a01b0394909416600090815260208190526040902093189092555050565b60006001600160a01b038216301415611aac57506001919050565b6008546001600160a01b0383811691161415611aca57505060095490565b506000919050565b919050565b611ae982601460ff8416600114611a2d565b611afb82601560ff8416600214611a2d565b611b0d82601660ff8416600414611a2d565b60405160ff821681526001600160a01b038316907fe423d7d31023dbacefed7c937785d0012ad8f314381295efebfc0471d2c434549060200160405180910390a25050565b611b5e60008383611e74565b8060026000828254611b709190612729565b90915550611b8090508282611f15565b6040518181526001600160a01b038316906000907fddf252ad1be2c89b69c2b068fc378daa952ba7f163c4a11628f55a4df523b3ef90602001611a21565b600061123b8383611fc5565b611bd483836119b9565b6004546001600160a01b031663a9059cbb84611bf084866127dd565b6040516001600160e01b031960e085901b1681526001600160a01b03909216600483015260248201526044016020604051808303816000875af1158015611c3b573d6000803e3d6000fd5b505050506040513d601f19601f82011682018060405250810190611c5f91906127c0565b611c7b5760405162461bcd60e51b8152600401610b669061289b565b505050565b6003805482158015600160a81b0260ff60a81b1990921691909117909155611cae57610f0660006004611ad7565b610f06600080611ad7565b60055415611cd95760405162461bcd60e51b8152600401610b66906128f2565b600480546040516370a0823160e01b815230928101929092526001600160a01b03169063a9059cbb90839083906370a0823190602401602060405180830381865afa158015611d2c573d6000803e3d6000fd5b505050506040513d601f19601f82011682018060405250810190611d5091906126fa565b6040516001600160e01b031960e085901b1681526001600160a01b03909216600483015260248201526044016020604051808303816000875af1158015611d9b573d6000803e3d6000fd5b505050506040513d601f19601f82011682018060405250810190611dbf91906127c0565b611ddb5760405162461bcd60e51b8152600401610b669061289b565b600480546001600160a01b0319166001600160a01b038416179055600254610bcb906040516370a0823160e01b81523060048201526001600160a01b038516906370a0823190602401602060405180830381865afa158015611e41573d6000803e3d6000fd5b505050506040513d601f19601f82011682018060405250810190611e6591906126fa565b611e6f9190612954565b61207f565b611c7b8383836120e4565b6001600160a01b03821660009081526020819052604081205490611ea38383612741565b90506001600160e01b031981166001600160e01b0319831614611ef45760405162461bcd60e51b8152602060048201526009602482015268756e646572666c6f7760b81b6044820152606401610b66565b6001600160a01b039093166000908152602081905260409020929092555050565b6001600160a01b038216611f515760405162461bcd60e51b815260206004820152600360248201526203078360ec1b6044820152606401610b66565b6001600160a01b03821660009081526020819052604081205490611f758383612729565b90506001600160e01b031981166001600160e01b0319831614611ef45760405162461bcd60e51b81526020600482015260086024820152676f766572666c6f7760c01b6044820152606401610b66565b6000611fd183836120ef565b611fed5760405162461bcd60e51b8152600401610b669061289b565b611ff833600a611979565b15610a9c576040516304d301a360e41b81523360048201527f00000000000000000000000000000000000000000000000000000000000000006001600160a01b031690634d301a3090602401600060405180830381600087803b15801561205e57600080fd5b505af1158015612072573d6000803e3d6000fd5b5050505050600192915050565b60018110156120a05760405162461bcd60e51b8152600401610b66906128f2565b60058190557f6c20b91d1723b78732eba64ff11ebd7966a6e4af568a00fa4f6b72c20f58b02a6120ce6109d6565b6120d6611111565b6040516110f9929190612976565b611c7b8383836120fc565b6000610a9c338484611915565b612105836121c2565b806121145750612114826121c2565b156121b7576006546001600160a01b03161561219d5760065460405163e1a1810f60e01b81526001600160a01b0385811660048301528481166024830152604482018490529091169063e1a1810f90606401600060405180830381600087803b15801561218057600080fd5b505af1158015612194573d6000803e3d6000fd5b505050506121b7565b6121aa8360016000611a2d565b6121b78260016000611a2d565b611c7b8383836121cf565b6000610c53826001611979565b6121d882611242565b156121e257505050565b6121eb826111b2565b1561222757600354600160a81b900460ff161561221a5760405162461bcd60e51b8152600401610b669061299b565b611c7b8260156000611a2d565b61223083610c46565b1561224257611c7b8260146001611a2d565b61224d836014611979565b1561228957600354600160a81b900460ff161561227c5760405162461bcd60e51b8152600401610b669061299b565b611c7b8360146000611a2d565b612292836111b2565b15611c7b57600354600160a81b900460ff16156122c15760405162461bcd60e51b8152600401610b669061299b565b611c7b8360156000611a2d565b60005b838110156122e95781810151838201526020016122d1565b83811115610eca5750506000910152565b600081518084526123128160208601602086016122ce565b601f01601f19169290920160200192915050565b60208152600061123b60208301846122fa565b6001600160a01b0381168114610f0657600080fd5b6000806040838503121561236157600080fd5b823561236c81612339565b946020939093013593505050565b60008060006060848603121561238f57600080fd5b833561239a81612339565b925060208401356123aa81612339565b929592945050506040919091013590565b6000602082840312156123cd57600080fd5b813561123b81612339565b600080600080606085870312156123ee57600080fd5b84356123f981612339565b935060208501359250604085013567ffffffffffffffff8082111561241d57600080fd5b818701915087601f83011261243157600080fd5b81358181111561244057600080fd5b88602082850101111561245257600080fd5b95989497505060200194505050565b60006020828403121561247357600080fd5b5035919050565b803560ff81168114611ad257600080fd5b6000806000604084860312156124a057600080fd5b833567ffffffffffffffff808211156124b857600080fd5b818601915086601f8301126124cc57600080fd5b8135818111156124db57600080fd5b8760208260051b85010111156124f057600080fd5b602092830195509350612506918601905061247a565b90509250925092565b6000806040838503121561252257600080fd5b823561252d81612339565b9150602083013561253d81612339565b809150509250929050565b6000806040838503121561255b57600080fd5b823561256681612339565b91506125746020840161247a565b90509250929050565b60008060006060848603121561259257600080fd5b833592506020840135915060408401356125ab81612339565b809150509250925092565b8015158114610f0657600080fd5b6000602082840312156125d657600080fd5b813561123b816125b6565b634e487b7160e01b600052604160045260246000fd5b60006020828403121561260957600080fd5b815167ffffffffffffffff8082111561262157600080fd5b818401915084601f83011261263557600080fd5b815181811115612647576126476125e1565b604051601f8201601f19908116603f0116810190838211818310171561266f5761266f6125e1565b8160405282815287602084870101111561268857600080fd5b6126998360208301602088016122ce565b979650505050505050565b600082516126b68184602087016122ce565b632053484160e01b920191825250600401919050565b600082516126de8184602087016122ce565b692028577261707065642960b01b920191825250600a01919050565b60006020828403121561270c57600080fd5b5051919050565b634e487b7160e01b600052601160045260246000fd5b6000821982111561273c5761273c612713565b500190565b60008282101561275357612753612713565b500390565b60208082526006908201526539b2b73232b960d11b604082015260600190565b6001600160a01b0385168152602081018490526060604082018190528101829052818360808301376000818301608090810191909152601f909201601f191601019392505050565b6000602082840312156127d257600080fd5b815161123b816125b6565b60008160001904831182151516156127f7576127f7612713565b500290565b6020808252600990820152683737ba1037bbb732b960b91b604082015260600190565b634e487b7160e01b600052603260045260246000fd5b600060001982141561284957612849612713565b5060010190565b6020808252600c908201526b6e6f74207265636f7665727960a01b604082015260600190565b600082516128888184602087016122ce565b605360f81b920191825250600101919050565b6020808252600890820152673a3930b739b332b960c11b604082015260600190565b600181811c908216806128d157607f821691505b6020821081141561106257634e487b7160e01b600052602260045260246000fd5b6020808252600690820152653330b1ba37b960d11b604082015260600190565b60006020828403121561292457600080fd5b815161123b81612339565b600060ff821660ff84168060ff0382111561294c5761294c612713565b019392505050565b60008261297157634e487b7160e01b600052601260045260246000fd5b500490565b60408152600061298960408301856122fa565b8281036020840152610dea81856122fa565b6020808252600b908201526a1b9bdd08185b1b1bddd95960aa1b60408201526060019056fea26469706673582212203d865b8d52c624a23747239e130e941034cb0d18b29591a694e0fc7727e34c8b64736f6c634300080c0033",
  "devdoc": {
    "kind": "dev",
    "methods": {
      "allowance(address,address)": {
        "details": "See `IERC20.allowance`."
      },
      "approve(address,uint256)": {
        "details": "See `IERC20.approve`. Requirements: - `spender` cannot be the zero address."
      },
      "balanceOf(address)": {
        "details": "See `IERC20.balanceOf`."
      },
      "totalSupply()": {
        "details": "See `IERC20.totalSupply`."
      },
      "transferFrom(address,address,uint256)": {
        "details": "See `IERC20.transferFrom`. Emits an `Approval` event indicating the updated allowance. This is not required by the EIP. See the note at the beginning of `ERC20`; Requirements: - `sender` and `recipient` cannot be the zero address. - `sender` must have a balance of at least `value`. - the caller must have allowance for `sender`'s tokens of at least `amount`."
      },
      "transferOwnership(address)": {
        "details": "Transfers ownership of the contract to a new account (`newOwner`). Can only be called by the current owner."
      }
    },
    "version": 1
  },
  "userdoc": {
    "kind": "user",
    "methods": {
      "burn(uint256)": {
        "notice": "Burns both the token itself as well as the wrapped token! If you want to get out of the shareholder agreement, use unwrap after it has been deactivated by a majority vote or acquisition. Burning only works if wrapped token supports burning. Also, the exact meaning of this operation might depend on the circumstances. Burning and reussing the wrapped token does not free the sender from the legal obligations of the shareholder agreement."
      },
      "canReceiveFromAnyone(address)": {
        "notice": "If true, this address is allowlisted and can only transfer tokens to other allowlisted addresses."
      },
      "getClaimDeleter()": {
        "notice": "Let the oracle act as deleter of invalid claims. In earlier versions, this was referring to the claim deleter of the wrapped token. But that stops working after a successful acquisition as the acquisition currency most likely does not have a claim deleter."
      },
      "getCollateralRate(address)": {
        "notice": "Returns the collateral rate for the given collateral type and 0 if that type of collateral is not accepted. By default, only the token itself is accepted at a rate of 1:1. Subclasses should override this method if they want to add additional types of collateral."
      },
      "isBinding()": {
        "notice": "Indicates that the token holders are bound to the token terms and that: - Conversion back to the wrapped token (unwrap) is not allowed - A drag-along can be performed by making an according offer - They can be migrated to a new version of this contract in accordance with the terms"
      },
      "isForbidden(address)": {
        "notice": "If true, this address can only transfer tokens to allowlisted addresses and not receive from anyone."
      },
      "isPowerlisted(address)": {
        "notice": "If true, this address can automatically allowlist target addresses if necessary."
      },
      "name()": {
        "notice": "Current recommended naming convention is to add the postfix \"SHA\" to the plain shares in order to indicate that this token represents shares bound to a shareholder agreement."
      },
      "setApplicable(bool)": {
        "notice": "Configures whether the allowlisting is applied. Also sets the powerlist and allowlist flags on the null address accordingly. It is recommended to also deactivate the powerlist flag on other addresses."
      },
      "unwrap(uint256)": {
        "notice": "Decrease the number of drag-along tokens. The user gets back their shares in return "
      },
      "wrap(address,uint256)": {
        "notice": "Wraps additional tokens, thereby creating more ERC20Draggable tokens. "
      }
    },
    "version": 1
  },
  "storageLayout": {
    "storage": [
      {
        "astId": 1349,
        "contract": "src/shares/AllowlistDraggableShares.sol:AllowlistDraggableShares",
        "label": "_balances",
        "offset": 0,
        "slot": "0",
        "type": "t_mapping(t_address,t_uint256)"
      },
      {
        "astId": 1355,
        "contract": "src/shares/AllowlistDraggableShares.sol:AllowlistDraggableShares",
        "label": "_allowances",
        "offset": 0,
        "slot": "1",
        "type": "t_mapping(t_address,t_mapping(t_address,t_uint256))"
      },
      {
        "astId": 1357,
        "contract": "src/shares/AllowlistDraggableShares.sol:AllowlistDraggableShares",
        "label": "_totalSupply",
        "offset": 0,
        "slot": "2",
        "type": "t_uint256"
      },
      {
        "astId": 1360,
        "contract": "src/shares/AllowlistDraggableShares.sol:AllowlistDraggableShares",
        "label": "decimals",
        "offset": 0,
        "slot": "3",
        "type": "t_uint8"
      },
      {
        "astId": 7568,
        "contract": "src/shares/AllowlistDraggableShares.sol:AllowlistDraggableShares",
        "label": "owner",
        "offset": 1,
        "slot": "3",
        "type": "t_address"
      },
      {
        "astId": 1020,
        "contract": "src/shares/AllowlistDraggableShares.sol:AllowlistDraggableShares",
        "label": "restrictTransfers",
        "offset": 21,
        "slot": "3",
        "type": "t_bool"
      },
      {
        "astId": 3984,
        "contract": "src/shares/AllowlistDraggableShares.sol:AllowlistDraggableShares",
        "label": "wrapped",
        "offset": 0,
        "slot": "4",
        "type": "t_contract(IERC20)2015"
      },
      {
        "astId": 3990,
        "contract": "src/shares/AllowlistDraggableShares.sol:AllowlistDraggableShares",
        "label": "unwrapConversionFactor",
        "offset": 0,
        "slot": "5",
        "type": "t_uint256"
      },
      {
        "astId": 3993,
        "contract": "src/shares/AllowlistDraggableShares.sol:AllowlistDraggableShares",
        "label": "offer",
        "offset": 0,
        "slot": "6",
        "type": "t_contract(IOffer)4757"
      },
      {
        "astId": 4003,
        "contract": "src/shares/AllowlistDraggableShares.sol:AllowlistDraggableShares",
        "label": "oracle",
        "offset": 0,
        "slot": "7",
        "type": "t_address"
      },
      {
        "astId": 6014,
        "contract": "src/shares/AllowlistDraggableShares.sol:AllowlistDraggableShares",
        "label": "customCollateralAddress",
        "offset": 0,
        "slot": "8",
        "type": "t_contract(IERC20)2015"
      },
      {
        "astId": 6016,
        "contract": "src/shares/AllowlistDraggableShares.sol:AllowlistDraggableShares",
        "label": "customCollateralRate",
        "offset": 0,
        "slot": "9",
        "type": "t_uint256"
      },
      {
        "astId": 7069,
        "contract": "src/shares/AllowlistDraggableShares.sol:AllowlistDraggableShares",
        "label": "terms",
        "offset": 0,
        "slot": "10",
        "type": "t_string_storage"
      }
    ],
    "types": {
      "t_address": {
        "encoding": "inplace",
        "label": "address",
        "numberOfBytes": "20"
      },
      "t_bool": {
        "encoding": "inplace",
        "label": "bool",
        "numberOfBytes": "1"
      },
      "t_contract(IERC20)2015": {
        "encoding": "inplace",
        "label": "contract IERC20",
        "numberOfBytes": "20"
      },
      "t_contract(IOffer)4757": {
        "encoding": "inplace",
        "label": "contract IOffer",
        "numberOfBytes": "20"
      },
      "t_mapping(t_address,t_mapping(t_address,t_uint256))": {
        "encoding": "mapping",
        "key": "t_address",
        "label": "mapping(address => mapping(address => uint256))",
        "numberOfBytes": "32",
        "value": "t_mapping(t_address,t_uint256)"
      },
      "t_mapping(t_address,t_uint256)": {
        "encoding": "mapping",
        "key": "t_address",
        "label": "mapping(address => uint256)",
        "numberOfBytes": "32",
        "value": "t_uint256"
      },
      "t_string_storage": {
        "encoding": "bytes",
        "label": "string",
        "numberOfBytes": "32"
      },
      "t_uint256": {
        "encoding": "inplace",
        "label": "uint256",
        "numberOfBytes": "32"
      },
      "t_uint8": {
        "encoding": "inplace",
        "label": "uint8",
        "numberOfBytes": "1"
      }
    }
  }
}