{
  "address": "0xe759d6F9706E272c67cfd6AB0C9dd7A3523bF1eF",
  "abi": [
    {
      "inputs": [
        {
          "internalType": "address",
          "name": "_owner",
          "type": "address"
        }
      ],
      "stateMutability": "nonpayable",
      "type": "constructor"
    },
    {
      "anonymous": false,
      "inputs": [
        {
          "indexed": true,
          "internalType": "address",
          "name": "previousOwner",
          "type": "address"
        },
        {
          "indexed": true,
          "internalType": "address",
          "name": "newOwner",
          "type": "address"
        }
      ],
      "name": "OwnershipTransferred",
      "type": "event"
    },
    {
      "anonymous": false,
      "inputs": [
        {
          "indexed": false,
          "internalType": "contract IBrokerbot",
          "name": "brokerbot",
          "type": "address"
        },
        {
          "indexed": true,
          "internalType": "contract IERC20",
          "name": "base",
          "type": "address"
        },
        {
          "indexed": true,
          "internalType": "contract IERC20",
          "name": "token",
          "type": "address"
        }
      ],
      "name": "RegisterBrokerbot",
      "type": "event"
    },
    {
      "anonymous": false,
      "inputs": [
        {
          "indexed": true,
          "internalType": "contract IBrokerbot",
          "name": "brokerbot",
          "type": "address"
        }
      ],
      "name": "SyncBrokerbot",
      "type": "event"
    },
    {
      "inputs": [
        {
          "internalType": "contract IERC20",
          "name": "",
          "type": "address"
        },
        {
          "internalType": "contract IERC20",
          "name": "",
          "type": "address"
        }
      ],
      "name": "getBrokerbot",
      "outputs": [
        {
          "internalType": "contract IBrokerbot",
          "name": "",
          "type": "address"
        }
      ],
      "stateMutability": "view",
      "type": "function"
    },
    {
      "inputs": [],
      "name": "owner",
      "outputs": [
        {
          "internalType": "address",
          "name": "",
          "type": "address"
        }
      ],
      "stateMutability": "view",
      "type": "function"
    },
    {
      "inputs": [
        {
          "internalType": "contract IBrokerbot",
          "name": "_brokerbot",
          "type": "address"
        },
        {
          "internalType": "contract IERC20",
          "name": "_base",
          "type": "address"
        },
        {
          "internalType": "contract IERC20",
          "name": "_token",
          "type": "address"
        }
      ],
      "name": "registerBrokerbot",
      "outputs": [],
      "stateMutability": "nonpayable",
      "type": "function"
    },
    {
      "inputs": [
        {
          "internalType": "contract IBrokerbot",
          "name": "_brokerbot",
          "type": "address"
        }
      ],
      "name": "syncBrokerbot",
      "outputs": [],
      "stateMutability": "nonpayable",
      "type": "function"
    },
    {
      "inputs": [
        {
          "internalType": "address",
          "name": "newOwner",
          "type": "address"
        }
      ],
      "name": "transferOwnership",
      "outputs": [],
      "stateMutability": "nonpayable",
      "type": "function"
    }
  ],
  "transactionHash": "0x1de7d9d0f9ca92fa66c0e48b09067ebe5d9feb155cb923fcfb37974ff9be982c",
  "args": [
    "0xbB3c2C7D631E94bdf279302CEA8DBbE42fB23A74"
  ],
  "numDeployments": 1,
  "solcInputHash": "dc5bbe4f8dbb42a7d8a7cd6b64cc3d23",
  "bytecode": "0x608060405234801561001057600080fd5b5060405161044338038061044383398101604081905261002f9161007e565b600080546001600160a01b0319166001600160a01b03831690811782556040518392907f8be0079c531659141344cd1fd0a4f28419497f9722a3daafe3b4186f6b6457e0908290a350506100ae565b60006020828403121561009057600080fd5b81516001600160a01b03811681146100a757600080fd5b9392505050565b610386806100bd6000396000f3fe608060405234801561001057600080fd5b50600436106100575760003560e01c806309f793711461005c57806376abbf0a146100715780638da5cb5b146100c15780639abad75e146100d4578063f2fde38b146100e7575b600080fd5b61006f61006a3660046102a8565b6100fa565b005b6100a561007f3660046102f3565b60016020908152600092835260408084209091529082529020546001600160a01b031681565b6040516001600160a01b03909116815260200160405180910390f35b6000546100a5906001600160a01b031681565b61006f6100e236600461032c565b6101b8565b61006f6100f536600461032c565b6101ef565b6000546001600160a01b031633146101455760405162461bcd60e51b81526020600482015260096024820152683737ba1037bbb732b960b91b60448201526064015b60405180910390fd5b6001600160a01b0382811660008181526001602090815260408083208686168085529083529281902080546001600160a01b03191695891695861790555193845290927f3cc22fa2b08c920913fb7245fcc72114373ad796b1be5d44ee1ff6ad60b3a65a910160405180910390a3505050565b6040516001600160a01b038216907f8709efa7ee1ccd26c55d0d4770969d05389572dec0bc4e3b34acfdf89f1b64f990600090a250565b6000546001600160a01b031633146102355760405162461bcd60e51b81526020600482015260096024820152683737ba1037bbb732b960b91b604482015260640161013c565b600080546040516001600160a01b03808516939216917f8be0079c531659141344cd1fd0a4f28419497f9722a3daafe3b4186f6b6457e091a3600080546001600160a01b0319166001600160a01b0392909216919091179055565b6001600160a01b03811681146102a557600080fd5b50565b6000806000606084860312156102bd57600080fd5b83356102c881610290565b925060208401356102d881610290565b915060408401356102e881610290565b809150509250925092565b6000806040838503121561030657600080fd5b823561031181610290565b9150602083013561032181610290565b809150509250929050565b60006020828403121561033e57600080fd5b813561034981610290565b939250505056fea26469706673582212205ed12650a21da8d2e12c10f8a3eba2c74057053b41e9be3ad1d279dcbedfa2d864736f6c634300080c0033",
  "devdoc": {
    "events": {
      "RegisterBrokerbot(address,address,address)": {
        "params": {
          "base": "The address of the base currency",
          "brokerbot": "The address of the brokerbot",
          "token": "The address of the share token"
        }
      },
      "SyncBrokerbot(address)": {
        "params": {
          "brokerbot": "The brokerbot address that is synced"
        }
      }
    },
    "kind": "dev",
    "methods": {
      "registerBrokerbot(address,address,address)": {
        "params": {
          "_base": "The contract of the base currency of the brokerbot.",
          "_brokerbot": "The brokerbot contract that should be registered.",
          "_token": "The contract of the share token of the brokerbot."
        }
      },
      "syncBrokerbot(address)": {
        "params": {
          "_brokerbot": "The brokerbot that should be synced"
        }
      },
      "transferOwnership(address)": {
        "details": "Transfers ownership of the contract to a new account (`newOwner`). Can only be called by the current owner."
      }
    },
    "stateVariables": {
      "getBrokerbot": {
        "details": "mapping is [base][token] = brokerbotAddress",
        "return": "brokerbot The brokerbot address",
        "returns": {
          "_0": "brokerbot The brokerbot address"
        }
      }
    },
    "title": "Brokerbot Registry",
    "version": 1
  },
  "userdoc": {
    "events": {
      "RegisterBrokerbot(address,address,address)": {
        "notice": "Emitted when brokerbot is registered."
      },
      "SyncBrokerbot(address)": {
        "notice": "Emmitted when calling syncBrokerbot function"
      }
    },
    "kind": "user",
    "methods": {
      "getBrokerbot(address,address)": {
        "notice": "Returns the brokerbot address for a given pair base and share token, or address 0 if it does not exist"
      },
      "registerBrokerbot(address,address,address)": {
        "notice": "Per network only one active brokerbot should exist per base/share pair"
      },
      "syncBrokerbot(address)": {
        "notice": "This event is usful for indexers/subgraphs to update token balances which are not tracked with other events"
      }
    },
    "notice": "Holds a registry from all deployed active brokerbots",
    "version": 1
  },
  "storageLayout": {
    "storage": [
      {
        "astId": 7622,
        "contract": "src/brokerbot/BrokerbotRegistry.sol:BrokerbotRegistry",
        "label": "owner",
        "offset": 0,
        "slot": "0",
        "type": "t_address"
      },
      {
        "astId": 3231,
        "contract": "src/brokerbot/BrokerbotRegistry.sol:BrokerbotRegistry",
        "label": "getBrokerbot",
        "offset": 0,
        "slot": "1",
        "type": "t_mapping(t_contract(IERC20)1981,t_mapping(t_contract(IERC20)1981,t_contract(IBrokerbot)3330))"
      }
    ],
    "types": {
      "t_address": {
        "encoding": "inplace",
        "label": "address",
        "numberOfBytes": "20"
      },
      "t_contract(IBrokerbot)3330": {
        "encoding": "inplace",
        "label": "contract IBrokerbot",
        "numberOfBytes": "20"
      },
      "t_contract(IERC20)1981": {
        "encoding": "inplace",
        "label": "contract IERC20",
        "numberOfBytes": "20"
      },
      "t_mapping(t_contract(IERC20)1981,t_contract(IBrokerbot)3330)": {
        "encoding": "mapping",
        "key": "t_contract(IERC20)1981",
        "label": "mapping(contract IERC20 => contract IBrokerbot)",
        "numberOfBytes": "32",
        "value": "t_contract(IBrokerbot)3330"
      },
      "t_mapping(t_contract(IERC20)1981,t_mapping(t_contract(IERC20)1981,t_contract(IBrokerbot)3330))": {
        "encoding": "mapping",
        "key": "t_contract(IERC20)1981",
        "label": "mapping(contract IERC20 => mapping(contract IERC20 => contract IBrokerbot))",
        "numberOfBytes": "32",
        "value": "t_mapping(t_contract(IERC20)1981,t_contract(IBrokerbot)3330)"
      }
    }
  }
}