{
  "address": "0xCb1D5644297502812f9545e5C6d6C6479d0d1666",
  "abi": [
    {
      "inputs": [
        {
          "internalType": "address",
          "name": "_shareToken",
          "type": "address"
        },
        {
          "internalType": "uint256",
          "name": "_price",
          "type": "uint256"
        },
        {
          "internalType": "uint256",
          "name": "_increment",
          "type": "uint256"
        },
        {
          "internalType": "address",
          "name": "_baseCurrency",
          "type": "address"
        },
        {
          "internalType": "address",
          "name": "_owner",
          "type": "address"
        },
        {
          "internalType": "address",
          "name": "_paymentHub",
          "type": "address"
        }
      ],
      "stateMutability": "nonpayable",
      "type": "constructor"
    },
    {
      "anonymous": false,
      "inputs": [
        {
          "indexed": false,
          "internalType": "address",
          "name": "newPaymentHub",
          "type": "address"
        },
        {
          "indexed": false,
          "internalType": "address",
          "name": "who",
          "type": "address"
        }
      ],
      "name": "ChangePaymentHub",
      "type": "event"
    },
    {
      "anonymous": false,
      "inputs": [
        {
          "indexed": true,
          "internalType": "address",
          "name": "previousOwner",
          "type": "address"
        },
        {
          "indexed": true,
          "internalType": "address",
          "name": "newOwner",
          "type": "address"
        }
      ],
      "name": "OwnershipTransferred",
      "type": "event"
    },
    {
      "anonymous": false,
      "inputs": [
        {
          "indexed": true,
          "internalType": "address",
          "name": "token",
          "type": "address"
        },
        {
          "indexed": false,
          "internalType": "address",
          "name": "who",
          "type": "address"
        },
        {
          "indexed": false,
          "internalType": "bytes",
          "name": "ref",
          "type": "bytes"
        },
        {
          "indexed": false,
          "internalType": "int256",
          "name": "amount",
          "type": "int256"
        },
        {
          "indexed": false,
          "internalType": "address",
          "name": "base",
          "type": "address"
        },
        {
          "indexed": false,
          "internalType": "uint256",
          "name": "totPrice",
          "type": "uint256"
        },
        {
          "indexed": false,
          "internalType": "uint256",
          "name": "fee",
          "type": "uint256"
        },
        {
          "indexed": false,
          "internalType": "uint256",
          "name": "newprice",
          "type": "uint256"
        }
      ],
      "name": "Trade",
      "type": "event"
    },
    {
      "inputs": [],
      "name": "COPYRIGHT",
      "outputs": [
        {
          "internalType": "address",
          "name": "",
          "type": "address"
        }
      ],
      "stateMutability": "view",
      "type": "function"
    },
    {
      "inputs": [
        {
          "internalType": "address",
          "name": "erc20",
          "type": "address"
        },
        {
          "internalType": "address",
          "name": "who",
          "type": "address"
        },
        {
          "internalType": "uint256",
          "name": "amount",
          "type": "uint256"
        }
      ],
      "name": "approve",
      "outputs": [],
      "stateMutability": "nonpayable",
      "type": "function"
    },
    {
      "inputs": [],
      "name": "base",
      "outputs": [
        {
          "internalType": "address",
          "name": "",
          "type": "address"
        }
      ],
      "stateMutability": "view",
      "type": "function"
    },
    {
      "inputs": [],
      "name": "buyingEnabled",
      "outputs": [
        {
          "internalType": "bool",
          "name": "",
          "type": "bool"
        }
      ],
      "stateMutability": "view",
      "type": "function"
    },
    {
      "inputs": [],
      "name": "driftIncrement",
      "outputs": [
        {
          "internalType": "int256",
          "name": "",
          "type": "int256"
        }
      ],
      "stateMutability": "view",
      "type": "function"
    },
    {
      "inputs": [],
      "name": "driftStart",
      "outputs": [
        {
          "internalType": "uint256",
          "name": "",
          "type": "uint256"
        }
      ],
      "stateMutability": "view",
      "type": "function"
    },
    {
      "inputs": [
        {
          "internalType": "uint256",
          "name": "shares",
          "type": "uint256"
        }
      ],
      "name": "getBuyPrice",
      "outputs": [
        {
          "internalType": "uint256",
          "name": "",
          "type": "uint256"
        }
      ],
      "stateMutability": "view",
      "type": "function"
    },
    {
      "inputs": [
        {
          "internalType": "uint256",
          "name": "totPrice",
          "type": "uint256"
        }
      ],
      "name": "getLicenseFee",
      "outputs": [
        {
          "internalType": "uint256",
          "name": "",
          "type": "uint256"
        }
      ],
      "stateMutability": "pure",
      "type": "function"
    },
    {
      "inputs": [],
      "name": "getPrice",
      "outputs": [
        {
          "internalType": "uint256",
          "name": "",
          "type": "uint256"
        }
      ],
      "stateMutability": "view",
      "type": "function"
    },
    {
      "inputs": [
        {
          "internalType": "uint256",
          "name": "timestamp",
          "type": "uint256"
        }
      ],
      "name": "getPriceAtTime",
      "outputs": [
        {
          "internalType": "uint256",
          "name": "",
          "type": "uint256"
        }
      ],
      "stateMutability": "view",
      "type": "function"
    },
    {
      "inputs": [
        {
          "internalType": "uint256",
          "name": "shares",
          "type": "uint256"
        }
      ],
      "name": "getSellPrice",
      "outputs": [
        {
          "internalType": "uint256",
          "name": "",
          "type": "uint256"
        }
      ],
      "stateMutability": "view",
      "type": "function"
    },
    {
      "inputs": [
        {
          "internalType": "uint256",
          "name": "money",
          "type": "uint256"
        }
      ],
      "name": "getShares",
      "outputs": [
        {
          "internalType": "uint256",
          "name": "",
          "type": "uint256"
        }
      ],
      "stateMutability": "view",
      "type": "function"
    },
    {
      "inputs": [],
      "name": "hasDrift",
      "outputs": [
        {
          "internalType": "bool",
          "name": "",
          "type": "bool"
        }
      ],
      "stateMutability": "view",
      "type": "function"
    },
    {
      "inputs": [],
      "name": "increment",
      "outputs": [
        {
          "internalType": "uint256",
          "name": "",
          "type": "uint256"
        }
      ],
      "stateMutability": "view",
      "type": "function"
    },
    {
      "inputs": [
        {
          "internalType": "address",
          "name": "buyer",
          "type": "address"
        },
        {
          "internalType": "uint256",
          "name": "shares",
          "type": "uint256"
        },
        {
          "internalType": "bytes",
          "name": "ref",
          "type": "bytes"
        }
      ],
      "name": "notifyTrade",
      "outputs": [],
      "stateMutability": "nonpayable",
      "type": "function"
    },
    {
      "inputs": [
        {
          "internalType": "address",
          "name": "buyer",
          "type": "address"
        },
        {
          "internalType": "uint256",
          "name": "shares",
          "type": "uint256"
        },
        {
          "internalType": "bytes",
          "name": "ref",
          "type": "bytes"
        }
      ],
      "name": "notifyTradeAndTransfer",
      "outputs": [],
      "stateMutability": "nonpayable",
      "type": "function"
    },
    {
      "inputs": [
        {
          "internalType": "address[]",
          "name": "buyers",
          "type": "address[]"
        },
        {
          "internalType": "uint256[]",
          "name": "shares",
          "type": "uint256[]"
        },
        {
          "internalType": "bytes[]",
          "name": "ref",
          "type": "bytes[]"
        }
      ],
      "name": "notifyTrades",
      "outputs": [],
      "stateMutability": "nonpayable",
      "type": "function"
    },
    {
      "inputs": [
        {
          "internalType": "address[]",
          "name": "buyers",
          "type": "address[]"
        },
        {
          "internalType": "uint256[]",
          "name": "shares",
          "type": "uint256[]"
        },
        {
          "internalType": "bytes[]",
          "name": "ref",
          "type": "bytes[]"
        }
      ],
      "name": "notifyTradesAndTransfer",
      "outputs": [],
      "stateMutability": "nonpayable",
      "type": "function"
    },
    {
      "inputs": [
        {
          "internalType": "address",
          "name": "from",
          "type": "address"
        },
        {
          "internalType": "uint256",
          "name": "amount",
          "type": "uint256"
        },
        {
          "internalType": "bytes",
          "name": "ref",
          "type": "bytes"
        }
      ],
      "name": "onTokenTransfer",
      "outputs": [
        {
          "internalType": "bool",
          "name": "",
          "type": "bool"
        }
      ],
      "stateMutability": "nonpayable",
      "type": "function"
    },
    {
      "inputs": [
        {
          "internalType": "address",
          "name": "token_",
          "type": "address"
        },
        {
          "internalType": "address",
          "name": "from",
          "type": "address"
        },
        {
          "internalType": "uint256",
          "name": "amount",
          "type": "uint256"
        },
        {
          "internalType": "bytes",
          "name": "ref",
          "type": "bytes"
        }
      ],
      "name": "onTokenTransfer",
      "outputs": [],
      "stateMutability": "nonpayable",
      "type": "function"
    },
    {
      "inputs": [],
      "name": "owner",
      "outputs": [
        {
          "internalType": "address",
          "name": "",
          "type": "address"
        }
      ],
      "stateMutability": "view",
      "type": "function"
    },
    {
      "inputs": [],
      "name": "paymenthub",
      "outputs": [
        {
          "internalType": "address",
          "name": "",
          "type": "address"
        }
      ],
      "stateMutability": "view",
      "type": "function"
    },
    {
      "inputs": [
        {
          "internalType": "address",
          "name": "token_",
          "type": "address"
        },
        {
          "internalType": "address",
          "name": "from",
          "type": "address"
        },
        {
          "internalType": "uint256",
          "name": "amount",
          "type": "uint256"
        },
        {
          "internalType": "bytes",
          "name": "ref",
          "type": "bytes"
        }
      ],
      "name": "processIncoming",
      "outputs": [
        {
          "internalType": "uint256",
          "name": "",
          "type": "uint256"
        }
      ],
      "stateMutability": "payable",
      "type": "function"
    },
    {
      "inputs": [],
      "name": "sellingEnabled",
      "outputs": [
        {
          "internalType": "bool",
          "name": "",
          "type": "bool"
        }
      ],
      "stateMutability": "view",
      "type": "function"
    },
    {
      "inputs": [
        {
          "internalType": "uint256",
          "name": "secondsPerStep",
          "type": "uint256"
        },
        {
          "internalType": "int256",
          "name": "newDriftIncrement",
          "type": "int256"
        }
      ],
      "name": "setDrift",
      "outputs": [],
      "stateMutability": "nonpayable",
      "type": "function"
    },
    {
      "inputs": [
        {
          "internalType": "bool",
          "name": "newBuyingEnabled",
          "type": "bool"
        },
        {
          "internalType": "bool",
          "name": "newSellingEnabled",
          "type": "bool"
        }
      ],
      "name": "setEnabled",
      "outputs": [],
      "stateMutability": "nonpayable",
      "type": "function"
    },
    {
      "inputs": [
        {
          "internalType": "address",
          "name": "hub",
          "type": "address"
        }
      ],
      "name": "setPaymentHub",
      "outputs": [],
      "stateMutability": "nonpayable",
      "type": "function"
    },
    {
      "inputs": [
        {
          "internalType": "uint256",
          "name": "newPrice",
          "type": "uint256"
        },
        {
          "internalType": "uint256",
          "name": "newIncrement",
          "type": "uint256"
        }
      ],
      "name": "setPrice",
      "outputs": [],
      "stateMutability": "nonpayable",
      "type": "function"
    },
    {
      "inputs": [
        {
          "internalType": "uint256",
          "name": "settings_",
          "type": "uint256"
        }
      ],
      "name": "setSettings",
      "outputs": [],
      "stateMutability": "nonpayable",
      "type": "function"
    },
    {
      "inputs": [],
      "name": "settings",
      "outputs": [
        {
          "internalType": "uint256",
          "name": "",
          "type": "uint256"
        }
      ],
      "stateMutability": "view",
      "type": "function"
    },
    {
      "inputs": [],
      "name": "timeToDrift",
      "outputs": [
        {
          "internalType": "uint256",
          "name": "",
          "type": "uint256"
        }
      ],
      "stateMutability": "view",
      "type": "function"
    },
    {
      "inputs": [],
      "name": "token",
      "outputs": [
        {
          "internalType": "address",
          "name": "",
          "type": "address"
        }
      ],
      "stateMutability": "view",
      "type": "function"
    },
    {
      "inputs": [
        {
          "internalType": "address",
          "name": "newOwner",
          "type": "address"
        }
      ],
      "name": "transferOwnership",
      "outputs": [],
      "stateMutability": "nonpayable",
      "type": "function"
    },
    {
      "inputs": [
        {
          "internalType": "address",
          "name": "ercAddress",
          "type": "address"
        },
        {
          "internalType": "address",
          "name": "to",
          "type": "address"
        },
        {
          "internalType": "uint256",
          "name": "amount",
          "type": "uint256"
        }
      ],
      "name": "withdraw",
      "outputs": [],
      "stateMutability": "nonpayable",
      "type": "function"
    },
    {
      "inputs": [
        {
          "internalType": "uint256",
          "name": "amount",
          "type": "uint256"
        }
      ],
      "name": "withdrawEther",
      "outputs": [],
      "stateMutability": "nonpayable",
      "type": "function"
    }
  ],
  "transactionHash": "0x3b94afabcb29d564a1de9410a6a3f175551650cf8b53edc056be3cac67ac25f4",
  "args": [
    "0x08eB636BfC6d88D67320325Ac8714f1426D2093D",
    "1000000000000000000",
    10,
    "0xB4272071eCAdd69d933AdcD19cA99fe80664fc08",
    "0x6aF51f4631338D8B27b4aE19bf6Bc30E7d3Fa412",
    "0x12d57174b35D64Fc2798E7AA62F8379Bb49C2250"
  ],
  "numDeployments": 1,
  "solcInputHash": "3ca19f7d66431007cac514b8dc751877",
  "bytecode": "0x60c060405260036007553480156200001657600080fd5b5060405162001da538038062001da58339810160408190526200003991620000db565b600080546001600160a01b0319166001600160a01b03841690811782556040518492907f8be0079c531659141344cd1fd0a4f28419497f9722a3daafe3b4186f6b6457e0908290a3506001600160a01b0392831660805294821660a05250600292909255600355600180546001600160a01b031916929091169190911790556200014a565b80516001600160a01b0381168114620000d657600080fd5b919050565b60008060008060008060c08789031215620000f557600080fd5b6200010087620000be565b955060208701519450604087015193506200011e60608801620000be565b92506200012e60808801620000be565b91506200013e60a08801620000be565b90509295509295509295565b60805160a051611be8620001bd600039600081816106070152818161081a01528181610b6a01528181611222015281816113c801526114d30152600081816102d0015281816107a5015281816108670152818161108301528181611271015281816112f2015261151a0152611be86000f3fe6080604052600436106102045760003560e01c80639bb8c0fd11610118578063d9caed12116100a0578063f771cb651161006f578063f771cb65146105c0578063f7d97577146105d5578063fc0c546a146105f5578063fff4da1f14610629578063fff897451461064957600080fd5b8063d9caed121461054a578063e06174e41461056a578063e1f21c6714610580578063f2fde38b146105a057600080fd5b8063ba730e53116100e7578063ba730e53146104be578063bf13d438146104de578063c7780ab2146104fe578063d09de08a14610514578063d7e06ca81461052a57600080fd5b80639bb8c0fd1461043e578063a4c0ed361461045e578063afaefe9e1461047e578063b03a13fe1461049e57600080fd5b8063777adcf01161019b5780638a07d3d01161016a5780638a07d3d0146103b15780638da5cb5b146103d45780638ed2fe91146103f457806391be6ad51461040957806398d5fdca1461042957600080fd5b8063777adcf0146103455780637cd6a7fd146103655780637ff6c1911461038557806384b41fda1461039b57600080fd5b80635001f3b5116101d75780635001f3b5146102be5780635c627935146102f257806369365c52146103125780636f7267b71461032557600080fd5b806308d4db141461020957806321bea8581461023c578063289469901461025c5780633bed33ce1461029c575b600080fd5b34801561021557600080fd5b5061022961022436600461162b565b610669565b6040519081526020015b60405180910390f35b34801561024857600080fd5b5061022961025736600461162b565b610682565b34801561026857600080fd5b506102847329fe8914e76da5ce2d90de98a64d0055f199d06d81565b6040516001600160a01b039091168152602001610233565b3480156102a857600080fd5b506102bc6102b736600461162b565b61069c565b005b3480156102ca57600080fd5b506102847f000000000000000000000000000000000000000000000000000000000000000081565b3480156102fe57600080fd5b506102bc61030d366004611655565b610715565b6102296103203660046116ee565b610786565b34801561033157600080fd5b5061022961034036600461162b565b6108ec565b34801561035157600080fd5b50600154610284906001600160a01b031681565b34801561037157600080fd5b506102bc61038036600461162b565b610966565b34801561039157600080fd5b5061022960045481565b3480156103a757600080fd5b5061022960055481565b3480156103bd57600080fd5b5060055415155b6040519015158152602001610233565b3480156103e057600080fd5b50600054610284906001600160a01b031681565b34801561040057600080fd5b506103c4610995565b34801561041557600080fd5b506102bc6104243660046117a2565b6109aa565b34801561043557600080fd5b50610229610a61565b34801561044a57600080fd5b506102bc61045936600461183c565b610a6c565b34801561046a57600080fd5b506103c461047936600461183c565b610aa9565b34801561048a57600080fd5b506102bc610499366004611896565b610ac4565b3480156104aa57600080fd5b506102bc6104b936600461183c565b610b0d565b3480156104ca57600080fd5b506102296104d936600461162b565b610be6565b3480156104ea57600080fd5b506102296104f936600461162b565b610c0b565b34801561050a57600080fd5b5061022960065481565b34801561052057600080fd5b5061022960035481565b34801561053657600080fd5b506102bc6105453660046116ee565b610c89565b34801561055657600080fd5b506102bc6105653660046118b8565b610c9e565b34801561057657600080fd5b5061022960075481565b34801561058c57600080fd5b506102bc61059b3660046118b8565b610d66565b3480156105ac57600080fd5b506102bc6105bb3660046118f4565b610dc5565b3480156105cc57600080fd5b506103c4610e4a565b3480156105e157600080fd5b506102bc6105f0366004611896565b610e5a565b34801561060157600080fd5b506102847f000000000000000000000000000000000000000000000000000000000000000081565b34801561063557600080fd5b506102bc6106443660046118f4565b610e97565b34801561065557600080fd5b506102bc6106643660046117a2565b610f1a565b600061067c610676610a61565b83610fce565b92915050565b6000612710610692605a8461192c565b61067c919061194b565b6000546001600160a01b03163314806106bf57506001546001600160a01b031633145b6106e45760405162461bcd60e51b81526004016106db9061196d565b60405180910390fd5b604051339082156108fc029083906000818181858888f19350505050158015610711573d6000803e3d6000fd5b5050565b6000546001600160a01b0316331461073f5760405162461bcd60e51b81526004016106db9061196d565b61074d600160075481161490565b151582151514610761576007805460011890555b61076f600260075481161490565b151581151514610711576007805460021890555050565b6000336001600160a01b03871614806107c75750336001600160a01b037f000000000000000000000000000000000000000000000000000000000000000016145b806107dc57506001546001600160a01b031633145b6108185760405162461bcd60e51b815260206004820152600d60248201526c696e76616c69642063616c6c6560981b60448201526064016106db565b7f00000000000000000000000000000000000000000000000000000000000000006001600160a01b0316866001600160a01b031614156108655761085e85858585611025565b90506108e3565b7f00000000000000000000000000000000000000000000000000000000000000006001600160a01b0316866001600160a01b031614156108ab5761085e858585856112c2565b60405162461bcd60e51b815260206004820152600d60248201526c34b73b30b634b2103a37b5b2b760991b60448201526064016106db565b95945050505050565b6000806108f7610a61565b9050600080610906838661194b565b90505b8082101561095e576000600261091f8385611990565b610929919061194b565b905060006109378583610fce565b9050808711156109535761094c826001611990565b9350610957565b8192505b5050610909565b509392505050565b6000546001600160a01b031633146109905760405162461bcd60e51b81526004016106db9061196d565b600755565b60006109a5600160075481161490565b905090565b6000546001600160a01b031633146109d45760405162461bcd60e51b81526004016106db9061196d565b60005b85811015610a5857610a468787838181106109f4576109f46119a8565b9050602002016020810190610a0991906118f4565b868684818110610a1b57610a1b6119a8565b90506020020135858585818110610a3457610a346119a8565b90506020028101906104b991906119be565b80610a5081611a05565b9150506109d7565b50505050505050565b60006109a542610c0b565b6000546001600160a01b03163314610a965760405162461bcd60e51b81526004016106db9061196d565b610aa284848484611450565b5050505050565b6000610ab83386868686610786565b50600195945050505050565b6000546001600160a01b03163314610aee5760405162461bcd60e51b81526004016106db9061196d565b610b02610af9610a61565b60025542600455565b600591909155600655565b6000546001600160a01b03163314610b375760405162461bcd60e51b81526004016106db9061196d565b610b4384848484611450565b5060405163a9059cbb60e01b81526001600160a01b038581166004830152602482018590527f0000000000000000000000000000000000000000000000000000000000000000169063a9059cbb90604401602060405180830381600087803b158015610bae57600080fd5b505af1158015610bc2573d6000803e3d6000fd5b505050506040513d601f19601f82011682018060405250810190610aa29190611a20565b600061067c60035483610bf9919061192c565b610c01610a61565b6106769190611a3d565b6000610c18600554151590565b15610c7c57600060045483610c2d9190611a3d565b9050600060065460055483610c42919061194b565b610c4c9190611a54565b9050600081600254610c5e9190611ad9565b90506000811215610c7457506000949350505050565b949350505050565b505060025490565b919050565b610c968585858585610786565b505050505050565b6000546001600160a01b0316331480610cc157506001546001600160a01b031633145b610cdd5760405162461bcd60e51b81526004016106db9061196d565b60405163a9059cbb60e01b81526001600160a01b0383811660048301526024820183905284169063a9059cbb906044015b602060405180830381600087803b158015610d2857600080fd5b505af1158015610d3c573d6000803e3d6000fd5b505050506040513d601f19601f82011682018060405250810190610d609190611a20565b50505050565b6000546001600160a01b03163314610d905760405162461bcd60e51b81526004016106db9061196d565b60405163095ea7b360e01b81526001600160a01b0383811660048301526024820183905284169063095ea7b390604401610d0e565b6000546001600160a01b03163314610def5760405162461bcd60e51b81526004016106db9061196d565b600080546040516001600160a01b03808516939216917f8be0079c531659141344cd1fd0a4f28419497f9722a3daafe3b4186f6b6457e091a3600080546001600160a01b0319166001600160a01b0392909216919091179055565b60006109a5600260075481161490565b6000546001600160a01b03163314610e845760405162461bcd60e51b81526004016106db9061196d565b610e918260025542600455565b60035550565b6000546001600160a01b03163314610ec15760405162461bcd60e51b81526004016106db9061196d565b600180546001600160a01b0319166001600160a01b038316908117909155604080519182523360208301527f9dd461e0e3ea931454353c64df48625d3a1e4170d434479509d9a7f17cd070bf910160405180910390a150565b6000546001600160a01b03163314610f445760405162461bcd60e51b81526004016106db9061196d565b60005b85811015610a5857610fbb878783818110610f6457610f646119a8565b9050602002016020810190610f7991906118f4565b868684818110610f8b57610f8b6119a8565b90506020020135858585818110610fa457610fa46119a8565b9050602002810190610fb691906119be565b611450565b5080610fc681611a05565b915050610f47565b600081610fdd5750600061067c565b600354600090610fee600185611a3d565b610ff8919061192c565b6110029085611990565b90508260026110118387611990565b61101b919061194b565b610c74919061192c565b6000611035600260075481161490565b6110745760405162461bcd60e51b815260206004820152601060248201526f1cd95b1b1a5b99c8191a5cd8589b195960821b60448201526064016106db565b600061107f85610be6565b90507f000000000000000000000000000000000000000000000000000000000000000060006110ad83610682565b9050600354876110bd919061192c565b600260008282546110ce9190611a3d565b9091555050801561116f5760405163a9059cbb60e01b81527329fe8914e76da5ce2d90de98a64d0055f199d06d6004820152602481018290526001600160a01b0383169063a9059cbb90604401602060405180830381600087803b15801561113557600080fd5b505af1158015611149573d6000803e3d6000fd5b505050506040513d601f19601f8201168201806040525081019061116d9190611a20565b505b6111798686611569565b15611218576001600160a01b03821663a9059cbb896111988487611a3d565b6040516001600160e01b031960e085901b1681526001600160a01b0390921660048301526024820152604401602060405180830381600087803b1580156111de57600080fd5b505af11580156111f2573d6000803e3d6000fd5b505050506040513d601f19601f820116820180604052508101906112169190611a20565b505b6001600160a01b037f0000000000000000000000000000000000000000000000000000000000000000167f424641a08047715d4b70195e1d90818d302683d9f65f41910ca13f5a486d37cc89888861126f8c611b1a565b7f0000000000000000000000000000000000000000000000000000000000000000898861129a610a61565b6040516112ae989796959493929190611b60565b60405180910390a250909695505050505050565b6000806112ce856108ec565b905060006112de87838787611450565b9050858110156113a2576001600160a01b037f00000000000000000000000000000000000000000000000000000000000000001663a9059cbb88611322848a611a3d565b6040516001600160e01b031960e085901b1681526001600160a01b0390921660048301526024820152604401602060405180830381600087803b15801561136857600080fd5b505af115801561137c573d6000803e3d6000fd5b505050506040513d601f19601f820116820180604052508101906113a09190611a20565b505b60405163a9059cbb60e01b81526001600160a01b038881166004830152602482018490527f0000000000000000000000000000000000000000000000000000000000000000169063a9059cbb90604401602060405180830381600087803b15801561140c57600080fd5b505af1158015611420573d6000803e3d6000fd5b505050506040513d601f19601f820116820180604052508101906114449190611a20565b50909695505050505050565b6000611460600160075481161490565b61149e5760405162461bcd60e51b815260206004820152600f60248201526e189d5e5a5b99c8191a5cd8589b1959608a1b60448201526064016106db565b60006114a985610669565b9050600354856114b9919061192c565b6002546114c69190611990565b6002556001600160a01b037f0000000000000000000000000000000000000000000000000000000000000000167f424641a08047715d4b70195e1d90818d302683d9f65f41910ca13f5a486d37cc878686897f0000000000000000000000000000000000000000000000000000000000000000876000611544610a61565b604051611558989796959493929190611b60565b60405180910390a295945050505050565b60008115806115785750601482145b156115855750600161067c565b600160f81b838360008161159b5761159b6119a8565b9050013560f81c60f81b6001600160f81b03191614156115bd5750600161067c565b600160f91b83836000816115d3576115d36119a8565b9050013560f81c60f81b6001600160f81b03191614156115f55750600061067c565b60405162461bcd60e51b815260206004820152600b60248201526a3ab735b737bbb7103932b360a91b60448201526064016106db565b60006020828403121561163d57600080fd5b5035919050565b801515811461165257600080fd5b50565b6000806040838503121561166857600080fd5b823561167381611644565b9150602083013561168381611644565b809150509250929050565b80356001600160a01b0381168114610c8457600080fd5b60008083601f8401126116b757600080fd5b50813567ffffffffffffffff8111156116cf57600080fd5b6020830191508360208285010111156116e757600080fd5b9250929050565b60008060008060006080868803121561170657600080fd5b61170f8661168e565b945061171d6020870161168e565b935060408601359250606086013567ffffffffffffffff81111561174057600080fd5b61174c888289016116a5565b969995985093965092949392505050565b60008083601f84011261176f57600080fd5b50813567ffffffffffffffff81111561178757600080fd5b6020830191508360208260051b85010111156116e757600080fd5b600080600080600080606087890312156117bb57600080fd5b863567ffffffffffffffff808211156117d357600080fd5b6117df8a838b0161175d565b909850965060208901359150808211156117f857600080fd5b6118048a838b0161175d565b9096509450604089013591508082111561181d57600080fd5b5061182a89828a0161175d565b979a9699509497509295939492505050565b6000806000806060858703121561185257600080fd5b61185b8561168e565b935060208501359250604085013567ffffffffffffffff81111561187e57600080fd5b61188a878288016116a5565b95989497509550505050565b600080604083850312156118a957600080fd5b50508035926020909101359150565b6000806000606084860312156118cd57600080fd5b6118d68461168e565b92506118e46020850161168e565b9150604084013590509250925092565b60006020828403121561190657600080fd5b61190f8261168e565b9392505050565b634e487b7160e01b600052601160045260246000fd5b600081600019048311821515161561194657611946611916565b500290565b60008261196857634e487b7160e01b600052601260045260246000fd5b500490565b6020808252600990820152683737ba1037bbb732b960b91b604082015260600190565b600082198211156119a3576119a3611916565b500190565b634e487b7160e01b600052603260045260246000fd5b6000808335601e198436030181126119d557600080fd5b83018035915067ffffffffffffffff8211156119f057600080fd5b6020019150368190038213156116e757600080fd5b6000600019821415611a1957611a19611916565b5060010190565b600060208284031215611a3257600080fd5b815161190f81611644565b600082821015611a4f57611a4f611916565b500390565b60006001600160ff1b0381841382841380821686840486111615611a7a57611a7a611916565b600160ff1b6000871282811687830589121615611a9957611a99611916565b60008712925087820587128484161615611ab557611ab5611916565b87850587128184161615611acb57611acb611916565b505050929093029392505050565b600080821280156001600160ff1b0384900385131615611afb57611afb611916565b600160ff1b8390038412811615611b1457611b14611916565b50500190565b6000600160ff1b821415611b3057611b30611916565b5060000390565b81835281816020850137506000828201602090810191909152601f909101601f19169091010190565b600060018060a01b03808b16835260e06020840152611b8360e084018a8c611b37565b6040840198909852959095166060820152608081019390935260a083019190915260c09091015250939250505056fea26469706673582212200a4e0ab82d2a9b304f6271c5b47217fc9564da6f10e39b9ae51806b9988627c664736f6c63430008090033",
  "devdoc": {
    "kind": "dev",
    "methods": {
      "transferOwnership(address)": {
        "details": "Transfers ownership of the contract to a new account (`newOwner`). Can only be called by the current owner."
      }
    },
    "version": 1
  },
  "userdoc": {
    "kind": "user",
    "methods": {
      "processIncoming(address,address,uint256,bytes)": {
        "notice": "Payment hub might actually have sent another accepted token, including Ether."
      }
    },
    "version": 1
  },
  "storageLayout": {
    "storage": [
      {
        "astId": 6630,
        "contract": "src/brokerbot/Brokerbot.sol:Brokerbot",
        "label": "owner",
        "offset": 0,
        "slot": "0",
        "type": "t_address"
      },
      {
        "astId": 1304,
        "contract": "src/brokerbot/Brokerbot.sol:Brokerbot",
        "label": "paymenthub",
        "offset": 0,
        "slot": "1",
        "type": "t_address"
      },
      {
        "astId": 1313,
        "contract": "src/brokerbot/Brokerbot.sol:Brokerbot",
        "label": "price",
        "offset": 0,
        "slot": "2",
        "type": "t_uint256"
      },
      {
        "astId": 1315,
        "contract": "src/brokerbot/Brokerbot.sol:Brokerbot",
        "label": "increment",
        "offset": 0,
        "slot": "3",
        "type": "t_uint256"
      },
      {
        "astId": 1317,
        "contract": "src/brokerbot/Brokerbot.sol:Brokerbot",
        "label": "driftStart",
        "offset": 0,
        "slot": "4",
        "type": "t_uint256"
      },
      {
        "astId": 1319,
        "contract": "src/brokerbot/Brokerbot.sol:Brokerbot",
        "label": "timeToDrift",
        "offset": 0,
        "slot": "5",
        "type": "t_uint256"
      },
      {
        "astId": 1321,
        "contract": "src/brokerbot/Brokerbot.sol:Brokerbot",
        "label": "driftIncrement",
        "offset": 0,
        "slot": "6",
        "type": "t_int256"
      },
      {
        "astId": 1346,
        "contract": "src/brokerbot/Brokerbot.sol:Brokerbot",
        "label": "settings",
        "offset": 0,
        "slot": "7",
        "type": "t_uint256"
      }
    ],
    "types": {
      "t_address": {
        "encoding": "inplace",
        "label": "address",
        "numberOfBytes": "20"
      },
      "t_int256": {
        "encoding": "inplace",
        "label": "int256",
        "numberOfBytes": "32"
      },
      "t_uint256": {
        "encoding": "inplace",
        "label": "uint256",
        "numberOfBytes": "32"
      }
    }
  }
}