{
  "address": "0x08eB636BfC6d88D67320325Ac8714f1426D2093D",
  "abi": [
    {
      "inputs": [
        {
          "internalType": "address",
          "name": "_l2Bridge",
          "type": "address"
        },
        {
          "internalType": "address",
          "name": "_l1Token",
          "type": "address"
        },
        {
          "internalType": "string",
          "name": "_symbol",
          "type": "string"
        },
        {
          "internalType": "string",
          "name": "_name",
          "type": "string"
        },
        {
          "internalType": "string",
          "name": "_terms",
          "type": "string"
        },
        {
          "internalType": "uint256",
          "name": "_totalShares",
          "type": "uint256"
        },
        {
          "internalType": "address",
          "name": "_recoveryHub",
          "type": "address"
        },
        {
          "internalType": "address",
          "name": "_owner",
          "type": "address"
        }
      ],
      "stateMutability": "nonpayable",
      "type": "constructor"
    },
    {
      "anonymous": false,
      "inputs": [
        {
          "indexed": false,
          "internalType": "string",
          "name": "message",
          "type": "string"
        }
      ],
      "name": "Announcement",
      "type": "event"
    },
    {
      "anonymous": false,
      "inputs": [
        {
          "indexed": true,
          "internalType": "address",
          "name": "owner",
          "type": "address"
        },
        {
          "indexed": true,
          "internalType": "address",
          "name": "spender",
          "type": "address"
        },
        {
          "indexed": false,
          "internalType": "uint256",
          "name": "value",
          "type": "uint256"
        }
      ],
      "name": "Approval",
      "type": "event"
    },
    {
      "anonymous": false,
      "inputs": [
        {
          "indexed": true,
          "internalType": "address",
          "name": "_account",
          "type": "address"
        },
        {
          "indexed": false,
          "internalType": "uint256",
          "name": "_amount",
          "type": "uint256"
        }
      ],
      "name": "Burn",
      "type": "event"
    },
    {
      "anonymous": false,
      "inputs": [
        {
          "indexed": true,
          "internalType": "address",
          "name": "_account",
          "type": "address"
        },
        {
          "indexed": false,
          "internalType": "uint256",
          "name": "_amount",
          "type": "uint256"
        }
      ],
      "name": "Mint",
      "type": "event"
    },
    {
      "anonymous": false,
      "inputs": [
        {
          "indexed": false,
          "internalType": "string",
          "name": "name",
          "type": "string"
        },
        {
          "indexed": false,
          "internalType": "string",
          "name": "symbol",
          "type": "string"
        }
      ],
      "name": "NameChanged",
      "type": "event"
    },
    {
      "anonymous": false,
      "inputs": [
        {
          "indexed": true,
          "internalType": "address",
          "name": "previousOwner",
          "type": "address"
        },
        {
          "indexed": true,
          "internalType": "address",
          "name": "newOwner",
          "type": "address"
        }
      ],
      "name": "OwnershipTransferred",
      "type": "event"
    },
    {
      "anonymous": false,
      "inputs": [
        {
          "indexed": true,
          "internalType": "address",
          "name": "holder",
          "type": "address"
        },
        {
          "indexed": false,
          "internalType": "uint256",
          "name": "amount",
          "type": "uint256"
        },
        {
          "indexed": false,
          "internalType": "string",
          "name": "message",
          "type": "string"
        }
      ],
      "name": "TokensDeclaredInvalid",
      "type": "event"
    },
    {
      "anonymous": false,
      "inputs": [
        {
          "indexed": true,
          "internalType": "address",
          "name": "from",
          "type": "address"
        },
        {
          "indexed": true,
          "internalType": "address",
          "name": "to",
          "type": "address"
        },
        {
          "indexed": false,
          "internalType": "uint256",
          "name": "value",
          "type": "uint256"
        }
      ],
      "name": "Transfer",
      "type": "event"
    },
    {
      "inputs": [
        {
          "internalType": "address",
          "name": "owner",
          "type": "address"
        },
        {
          "internalType": "address",
          "name": "spender",
          "type": "address"
        }
      ],
      "name": "allowance",
      "outputs": [
        {
          "internalType": "uint256",
          "name": "",
          "type": "uint256"
        }
      ],
      "stateMutability": "view",
      "type": "function"
    },
    {
      "inputs": [
        {
          "internalType": "string",
          "name": "message",
          "type": "string"
        }
      ],
      "name": "announcement",
      "outputs": [],
      "stateMutability": "nonpayable",
      "type": "function"
    },
    {
      "inputs": [
        {
          "internalType": "address",
          "name": "spender",
          "type": "address"
        },
        {
          "internalType": "uint256",
          "name": "value",
          "type": "uint256"
        }
      ],
      "name": "approve",
      "outputs": [
        {
          "internalType": "bool",
          "name": "",
          "type": "bool"
        }
      ],
      "stateMutability": "nonpayable",
      "type": "function"
    },
    {
      "inputs": [
        {
          "internalType": "address",
          "name": "account",
          "type": "address"
        }
      ],
      "name": "balanceOf",
      "outputs": [
        {
          "internalType": "uint256",
          "name": "",
          "type": "uint256"
        }
      ],
      "stateMutability": "view",
      "type": "function"
    },
    {
      "inputs": [
        {
          "internalType": "uint256",
          "name": "_amount",
          "type": "uint256"
        }
      ],
      "name": "burn",
      "outputs": [],
      "stateMutability": "nonpayable",
      "type": "function"
    },
    {
      "inputs": [
        {
          "internalType": "address",
          "name": "_from",
          "type": "address"
        },
        {
          "internalType": "uint256",
          "name": "_amount",
          "type": "uint256"
        }
      ],
      "name": "burn",
      "outputs": [],
      "stateMutability": "nonpayable",
      "type": "function"
    },
    {
      "inputs": [],
      "name": "claimPeriod",
      "outputs": [
        {
          "internalType": "uint256",
          "name": "",
          "type": "uint256"
        }
      ],
      "stateMutability": "pure",
      "type": "function"
    },
    {
      "inputs": [],
      "name": "customCollateralAddress",
      "outputs": [
        {
          "internalType": "address",
          "name": "",
          "type": "address"
        }
      ],
      "stateMutability": "view",
      "type": "function"
    },
    {
      "inputs": [],
      "name": "customCollateralRate",
      "outputs": [
        {
          "internalType": "uint256",
          "name": "",
          "type": "uint256"
        }
      ],
      "stateMutability": "view",
      "type": "function"
    },
    {
      "inputs": [],
      "name": "decimals",
      "outputs": [
        {
          "internalType": "uint8",
          "name": "",
          "type": "uint8"
        }
      ],
      "stateMutability": "view",
      "type": "function"
    },
    {
      "inputs": [
        {
          "internalType": "address",
          "name": "holder",
          "type": "address"
        },
        {
          "internalType": "uint256",
          "name": "amount",
          "type": "uint256"
        },
        {
          "internalType": "string",
          "name": "message",
          "type": "string"
        }
      ],
      "name": "declareInvalid",
      "outputs": [],
      "stateMutability": "nonpayable",
      "type": "function"
    },
    {
      "inputs": [
        {
          "internalType": "address",
          "name": "lostAddress",
          "type": "address"
        }
      ],
      "name": "deleteClaim",
      "outputs": [],
      "stateMutability": "nonpayable",
      "type": "function"
    },
    {
      "inputs": [],
      "name": "getClaimDeleter",
      "outputs": [
        {
          "internalType": "address",
          "name": "",
          "type": "address"
        }
      ],
      "stateMutability": "view",
      "type": "function"
    },
    {
      "inputs": [
        {
          "internalType": "address",
          "name": "collateralType",
          "type": "address"
        }
      ],
      "name": "getCollateralRate",
      "outputs": [
        {
          "internalType": "uint256",
          "name": "",
          "type": "uint256"
        }
      ],
      "stateMutability": "view",
      "type": "function"
    },
    {
      "inputs": [
        {
          "internalType": "address",
          "name": "account",
          "type": "address"
        },
        {
          "internalType": "uint8",
          "name": "number",
          "type": "uint8"
        }
      ],
      "name": "hasFlag",
      "outputs": [
        {
          "internalType": "bool",
          "name": "",
          "type": "bool"
        }
      ],
      "stateMutability": "view",
      "type": "function"
    },
    {
      "inputs": [],
      "name": "invalidTokens",
      "outputs": [
        {
          "internalType": "uint256",
          "name": "",
          "type": "uint256"
        }
      ],
      "stateMutability": "view",
      "type": "function"
    },
    {
      "inputs": [],
      "name": "l1Token",
      "outputs": [
        {
          "internalType": "address",
          "name": "",
          "type": "address"
        }
      ],
      "stateMutability": "view",
      "type": "function"
    },
    {
      "inputs": [],
      "name": "l2Bridge",
      "outputs": [
        {
          "internalType": "address",
          "name": "",
          "type": "address"
        }
      ],
      "stateMutability": "view",
      "type": "function"
    },
    {
      "inputs": [
        {
          "internalType": "address",
          "name": "_to",
          "type": "address"
        },
        {
          "internalType": "uint256",
          "name": "_amount",
          "type": "uint256"
        }
      ],
      "name": "mint",
      "outputs": [],
      "stateMutability": "nonpayable",
      "type": "function"
    },
    {
      "inputs": [
        {
          "internalType": "address",
          "name": "shareholder",
          "type": "address"
        },
        {
          "internalType": "address",
          "name": "callee",
          "type": "address"
        },
        {
          "internalType": "uint256",
          "name": "amount",
          "type": "uint256"
        },
        {
          "internalType": "bytes",
          "name": "data",
          "type": "bytes"
        }
      ],
      "name": "mintAndCall",
      "outputs": [],
      "stateMutability": "nonpayable",
      "type": "function"
    },
    {
      "inputs": [],
      "name": "name",
      "outputs": [
        {
          "internalType": "string",
          "name": "",
          "type": "string"
        }
      ],
      "stateMutability": "view",
      "type": "function"
    },
    {
      "inputs": [
        {
          "internalType": "address",
          "name": "target",
          "type": "address"
        }
      ],
      "name": "notifyClaimDeleted",
      "outputs": [],
      "stateMutability": "nonpayable",
      "type": "function"
    },
    {
      "inputs": [
        {
          "internalType": "address",
          "name": "target",
          "type": "address"
        }
      ],
      "name": "notifyClaimMade",
      "outputs": [],
      "stateMutability": "nonpayable",
      "type": "function"
    },
    {
      "inputs": [],
      "name": "owner",
      "outputs": [
        {
          "internalType": "address",
          "name": "",
          "type": "address"
        }
      ],
      "stateMutability": "view",
      "type": "function"
    },
    {
      "inputs": [
        {
          "internalType": "address",
          "name": "oldAddress",
          "type": "address"
        },
        {
          "internalType": "address",
          "name": "newAddress",
          "type": "address"
        }
      ],
      "name": "recover",
      "outputs": [],
      "stateMutability": "nonpayable",
      "type": "function"
    },
    {
      "inputs": [],
      "name": "recovery",
      "outputs": [
        {
          "internalType": "contract IRecoveryHub",
          "name": "",
          "type": "address"
        }
      ],
      "stateMutability": "view",
      "type": "function"
    },
    {
      "inputs": [
        {
          "internalType": "address",
          "name": "collateral",
          "type": "address"
        },
        {
          "internalType": "uint256",
          "name": "rate",
          "type": "uint256"
        }
      ],
      "name": "setCustomClaimCollateral",
      "outputs": [],
      "stateMutability": "nonpayable",
      "type": "function"
    },
    {
      "inputs": [
        {
          "internalType": "string",
          "name": "_symbol",
          "type": "string"
        },
        {
          "internalType": "string",
          "name": "_name",
          "type": "string"
        }
      ],
      "name": "setName",
      "outputs": [],
      "stateMutability": "nonpayable",
      "type": "function"
    },
    {
      "inputs": [
        {
          "internalType": "string",
          "name": "_terms",
          "type": "string"
        }
      ],
      "name": "setTerms",
      "outputs": [],
      "stateMutability": "nonpayable",
      "type": "function"
    },
    {
      "inputs": [
        {
          "internalType": "uint256",
          "name": "_newTotalShares",
          "type": "uint256"
        }
      ],
      "name": "setTotalShares",
      "outputs": [],
      "stateMutability": "nonpayable",
      "type": "function"
    },
    {
      "inputs": [
        {
          "internalType": "bytes4",
          "name": "_interfaceId",
          "type": "bytes4"
        }
      ],
      "name": "supportsInterface",
      "outputs": [
        {
          "internalType": "bool",
          "name": "",
          "type": "bool"
        }
      ],
      "stateMutability": "pure",
      "type": "function"
    },
    {
      "inputs": [],
      "name": "symbol",
      "outputs": [
        {
          "internalType": "string",
          "name": "",
          "type": "string"
        }
      ],
      "stateMutability": "view",
      "type": "function"
    },
    {
      "inputs": [],
      "name": "terms",
      "outputs": [
        {
          "internalType": "string",
          "name": "",
          "type": "string"
        }
      ],
      "stateMutability": "view",
      "type": "function"
    },
    {
      "inputs": [],
      "name": "totalShares",
      "outputs": [
        {
          "internalType": "uint256",
          "name": "",
          "type": "uint256"
        }
      ],
      "stateMutability": "view",
      "type": "function"
    },
    {
      "inputs": [],
      "name": "totalSupply",
      "outputs": [
        {
          "internalType": "uint256",
          "name": "",
          "type": "uint256"
        }
      ],
      "stateMutability": "view",
      "type": "function"
    },
    {
      "inputs": [],
      "name": "totalValidSupply",
      "outputs": [
        {
          "internalType": "uint256",
          "name": "",
          "type": "uint256"
        }
      ],
      "stateMutability": "view",
      "type": "function"
    },
    {
      "inputs": [
        {
          "internalType": "address",
          "name": "to",
          "type": "address"
        },
        {
          "internalType": "uint256",
          "name": "value",
          "type": "uint256"
        }
      ],
      "name": "transfer",
      "outputs": [
        {
          "internalType": "bool",
          "name": "",
          "type": "bool"
        }
      ],
      "stateMutability": "nonpayable",
      "type": "function"
    },
    {
      "inputs": [
        {
          "internalType": "address",
          "name": "recipient",
          "type": "address"
        },
        {
          "internalType": "uint256",
          "name": "amount",
          "type": "uint256"
        },
        {
          "internalType": "bytes",
          "name": "data",
          "type": "bytes"
        }
      ],
      "name": "transferAndCall",
      "outputs": [
        {
          "internalType": "bool",
          "name": "",
          "type": "bool"
        }
      ],
      "stateMutability": "nonpayable",
      "type": "function"
    },
    {
      "inputs": [
        {
          "internalType": "address",
          "name": "sender",
          "type": "address"
        },
        {
          "internalType": "address",
          "name": "recipient",
          "type": "address"
        },
        {
          "internalType": "uint256",
          "name": "amount",
          "type": "uint256"
        }
      ],
      "name": "transferFrom",
      "outputs": [
        {
          "internalType": "bool",
          "name": "",
          "type": "bool"
        }
      ],
      "stateMutability": "nonpayable",
      "type": "function"
    },
    {
      "inputs": [
        {
          "internalType": "address",
          "name": "newOwner",
          "type": "address"
        }
      ],
      "name": "transferOwnership",
      "outputs": [],
      "stateMutability": "nonpayable",
      "type": "function"
    }
  ],
  "transactionHash": "0x1edea4a4691423360e90023eb3177dd64e3ea2505928678bd90e00ce984b9abb",
  "args": [
    "0x4200000000000000000000000000000000000010",
    "0xCb1D5644297502812f9545e5C6d6C6479d0d1666",
    "SHR",
    "Test Shares",
    "test.ch/terms",
    10000000,
    "0x6aF51f4631338D8B27b4aE19bf6Bc30E7d3Fa412",
    "0xDC6715b0d5ad3AdD9e9Bd4b2c49df2BB220AD44A"
  ],
  "numDeployments": 2,
  "solcInputHash": "3ca19f7d66431007cac514b8dc751877",
  "bytecode": "0x60a060405260006009556000600a553480156200001b57600080fd5b5060405162002010380380620020108339810160408190526200003e9162000325565b6003805460ff191690556001600160a01b03828116608052600580546001600160a01b031916918316918217905560405187918791879187918691889187918791600091869182919084907f8be0079c531659141344cd1fd0a4f28419497f9722a3daafe3b4186f6b6457e0908290a350620000bb84846200011d565b5050506009849055508351620000d990600890602087019062000188565b5050600c80546001600160a01b039e8f166001600160a01b031991821617909155600b80549d909e169c169b909b17909b5550620004a99950505050505050505050565b81516200013290600790602085019062000188565b5080516200014890600690602084019062000188565b507f6c20b91d1723b78732eba64ff11ebd7966a6e4af568a00fa4f6b72c20f58b02a81836040516200017c9291906200043a565b60405180910390a15050565b82805462000196906200046c565b90600052602060002090601f016020900481019282620001ba576000855562000205565b82601f10620001d557805160ff191683800117855562000205565b8280016001018555821562000205579182015b8281111562000205578251825591602001919060010190620001e8565b506200021392915062000217565b5090565b5b8082111562000213576000815560010162000218565b80516001600160a01b03811681146200024657600080fd5b919050565b634e487b7160e01b600052604160045260246000fd5b60005b838110156200027e57818101518382015260200162000264565b838111156200028e576000848401525b50505050565b600082601f830112620002a657600080fd5b81516001600160401b0380821115620002c357620002c36200024b565b604051601f8301601f19908116603f01168101908282118183101715620002ee57620002ee6200024b565b816040528381528660208588010111156200030857600080fd5b6200031b84602083016020890162000261565b9695505050505050565b600080600080600080600080610100898b0312156200034357600080fd5b6200034e896200022e565b97506200035e60208a016200022e565b60408a01519097506001600160401b03808211156200037c57600080fd5b6200038a8c838d0162000294565b975060608b0151915080821115620003a157600080fd5b620003af8c838d0162000294565b965060808b0151915080821115620003c657600080fd5b50620003d58b828c0162000294565b94505060a08901519250620003ed60c08a016200022e565b9150620003fd60e08a016200022e565b90509295985092959890939650565b600081518084526200042681602086016020860162000261565b601f01601f19169290920160200192915050565b6040815260006200044f60408301856200040c565b82810360208401526200046381856200040c565b95945050505050565b600181811c908216806200048157607f821691505b60208210811415620004a357634e487b7160e01b600052602260045260246000fd5b50919050565b608051611b28620004e8600039600081816105070152818161078e01528181610aec01528181610d3d01528181610d9f01526112080152611b286000f3fe608060405234801561001057600080fd5b50600436106102485760003560e01c806370a082311161013b578063b0d04c7a116100b8578063ddceafa91161007c578063ddceafa914610502578063e5b824ec14610529578063f2fde38b1461053c578063f54fc0601461054f578063f5c0b95f1461056257600080fd5b8063b0d04c7a14610493578063c01e1bd61461049b578063c18172c4146104ae578063d5025625146104c1578063dd62ed3e146104c957600080fd5b806395d89b41116100ff57806395d89b411461043f5780639dc29fac14610447578063a77384c11461045a578063a9059cbb1461046d578063ae1f6aaf1461048057600080fd5b806370a08231146103ea57806377e071ad146103fd57806378f86afc146104105780637dc2cd98146104235780638da5cb5b1461042c57600080fd5b806337a8129c116101c957806342966c681161018d57806342966c68146103955780635c707f07146103a85780635d6624b7146103bb57806360918117146103ce578063648bf774146103d757600080fd5b806337a8129c1461034a5780633a1cdf32146103535780633a98ef39146103665780634000aea01461036f57806340c10f191461038257600080fd5b80631f0f06aa116102105780631f0f06aa146102df57806323b872dd146102f45780632a0a4ed514610307578063313ce5671461031857806332a7ae951461033757600080fd5b806301ffc9a71461024d57806306fdde0314610275578063095ea7b31461028a5780630c6f0e5d1461029d57806318160ddd146102cd575b600080fd5b61026061025b3660046114ff565b610575565b60405190151581526020015b60405180910390f35b61027d6105d3565b60405161026c9190611576565b6102606102983660046115a0565b610661565b6003546102b59061010090046001600160a01b031681565b6040516001600160a01b03909116815260200161026c565b6002545b60405190815260200161026c565b6102f26102ed366004611613565b610677565b005b610260610302366004611655565b6106e7565b6005546001600160a01b03166102b5565b6003546103259060ff1681565b60405160ff909116815260200161026c565b6102f2610345366004611691565b610745565b6102d1600a5481565b6102f26103613660046115a0565b6107ed565b6102d160095481565b61026061037d3660046116ac565b610825565b6102f26103903660046115a0565b6108ca565b6102f26103a3366004611706565b610975565b6102f26103b63660046117c2565b6109cf565b6102f26103c93660046116ac565b610a03565b6102d160045481565b6102f26103e5366004611826565b610ae1565b6102d16103f8366004611691565b610b3c565b6102d161040b366004611691565b610b60565b6102f261041e366004611859565b610bab565b62ed4e006102d1565b6005546102b5906001600160a01b031681565b61027d610be8565b6102f26104553660046115a0565b610bf5565b6102f2610468366004611706565b610c94565b61026061047b3660046115a0565b610d09565b600c546102b5906001600160a01b031681565b6102d1610d15565b600b546102b5906001600160a01b031681565b6102f26104bc366004611691565b610d32565b61027d610d87565b6102d16104d7366004611826565b6001600160a01b03918216600090815260016020908152604080832093909416825291909152205490565b6102b57f000000000000000000000000000000000000000000000000000000000000000081565b6102f2610537366004611691565b610d94565b6102f261054a366004611691565b610de9565b6102f261055d36600461188e565b610e6f565b6102606105703660046118fd565b610f05565b60007f01ffc9a7a5cef8baa21ed3c5c0d7e23accb804b619e9333b597f47a0d84076e2631d1d8b6360e01b6001600160e01b031984166301ffc9a760e01b14806105cb57506001600160e01b0319848116908216145b949350505050565b600680546105e09061193a565b80601f016020809104026020016040519081016040528092919081815260200182805461060c9061193a565b80156106595780601f1061062e57610100808354040283529160200191610659565b820191906000526020600020905b81548152906001019060200180831161063c57829003601f168201915b505050505081565b600061066e338484610f11565b50600192915050565b6005546001600160a01b031633146106aa5760405162461bcd60e51b81526004016106a190611975565b60405180910390fd5b7f07ce702fc13ca0620c174dab22996a6d5fd9e7accb663555a4e85323692706ba82826040516106db9291906119c1565b60405180910390a15050565b60006106f4848484610f73565b6001600160a01b0384166000908152600160209081526040808320338452909152902054600160ff1b81101561073857610738853361073386856119eb565b610f11565b60019150505b9392505050565b6005546001600160a01b0316331461076f5760405162461bcd60e51b81526004016106a190611a02565b6040516332a7ae9560e01b81526001600160a01b0382811660048301527f000000000000000000000000000000000000000000000000000000000000000016906332a7ae9590602401600060405180830381600087803b1580156107d257600080fd5b505af11580156107e6573d6000803e3d6000fd5b5050505050565b6005546001600160a01b031633146108175760405162461bcd60e51b81526004016106a190611975565b6108218282610ff0565b5050565b6000806108328686610d09565b905080156108c157604051635260769b60e11b81526001600160a01b0387169063a4c0ed369061086c903390899089908990600401611a22565b602060405180830381600087803b15801561088657600080fd5b505af115801561089a573d6000803e3d6000fd5b505050506040513d601f19601f820116820180604052508101906108be9190611a54565b90505b95945050505050565b600c546001600160a01b031633146109245760405162461bcd60e51b815260206004820181905260248201527f4f6e6c79204c32204272696467652063616e206d696e7420616e64206275726e60448201526064016106a1565b61092e8282611067565b816001600160a01b03167f0f6798a560793a54c3bcfe86a93cde1e73087d944c0ea20544137d41213968858260405161096991815260200190565b60405180910390a25050565b61097e33610b3c565b8111156109b75760405162461bcd60e51b815260206004820152600760248201526662616c616e636560c81b60448201526064016106a1565b6109c2333083610f73565b6109cc30826110bd565b50565b6005546001600160a01b031633146109f95760405162461bcd60e51b81526004016106a190611975565b6108218282611147565b6005546001600160a01b03163314610a2d5760405162461bcd60e51b81526004016106a190611975565b6000610a3885610b3c565b905080841115610a7c5760405162461bcd60e51b815260206004820152600f60248201526e0c2dadeeadce840e8dede40d0d2ced608b1b60448201526064016106a1565b83600a6000828254610a8e9190611a76565b92505081905550846001600160a01b03167f0a605cd1294f60fa3b73548ac68428f33300a051f225afcdcc75e56083c96ee7858585604051610ad293929190611a8e565b60405180910390a25050505050565b336001600160a01b037f00000000000000000000000000000000000000000000000000000000000000001614610b295760405162461bcd60e51b81526004016106a190611a02565b6108218282610b3785610b3c565b610f73565b6001600160a01b03166000908152602081905260409020546001600160e01b031690565b60006001600160a01b038216301415610b7b57506001919050565b6003546001600160a01b03838116610100909204161415610b9e57505060045490565b506000919050565b919050565b6005546001600160a01b03163314610bd55760405162461bcd60e51b81526004016106a190611975565b8051610821906008906020840190611466565b600780546105e09061193a565b600c546001600160a01b03163314610c4f5760405162461bcd60e51b815260206004820181905260248201527f4f6e6c79204c32204272696467652063616e206d696e7420616e64206275726e60448201526064016106a1565b610c5982826110bd565b816001600160a01b03167fcc16f5dbb4873280815c1ee09dbd06736cffcc184412cf7a71a0fdb75d397ca58260405161096991815260200190565b6005546001600160a01b03163314610cbe5760405162461bcd60e51b81526004016106a190611975565b610cc6610d15565b811015610d045760405162461bcd60e51b815260206004820152600c60248201526b62656c6f7720737570706c7960a01b60448201526064016106a1565b600955565b600061073e83836111a0565b6000600a54610d2360025490565b610d2d91906119eb565b905090565b336001600160a01b037f00000000000000000000000000000000000000000000000000000000000000001614610d7a5760405162461bcd60e51b81526004016106a190611a02565b61082181600a6001611275565b600880546105e09061193a565b336001600160a01b037f00000000000000000000000000000000000000000000000000000000000000001614610ddc5760405162461bcd60e51b81526004016106a190611a02565b61082181600a6000611275565b6005546001600160a01b03163314610e135760405162461bcd60e51b81526004016106a190611975565b6005546040516001600160a01b038084169216907f8be0079c531659141344cd1fd0a4f28419497f9722a3daafe3b4186f6b6457e090600090a3600580546001600160a01b0319166001600160a01b0392909216919091179055565b610e7984846108ca565b604051635260769b60e11b81526001600160a01b0385169063a4c0ed3690610eab908890879087908790600401611a22565b602060405180830381600087803b158015610ec557600080fd5b505af1158015610ed9573d6000803e3d6000fd5b505050506040513d601f19601f82011682018060405250810190610efd9190611a54565b505050505050565b600061073e83836112a5565b6001600160a01b0383811660008181526001602090815260408083209487168084529482529182902085905590518481527f8c5be1e5ebec7d5bd14f71427d1e84f3dd0314c0f7b2291e5b200ac8c7c3b92591015b60405180910390a3505050565b6001600160a01b03831660009081526020819052604081208054839290610f9b9084906119eb565b90915550610fab905082826112e5565b816001600160a01b0316836001600160a01b03167fddf252ad1be2c89b69c2b068fc378daa952ba7f163c4a11628f55a4df523b3ef83604051610f6691815260200190565b60038054610100600160a81b0319166101006001600160a01b0385811682029290921792839055909104166110285760006004555050565b600081116110615760405162461bcd60e51b81526004016106a1906020808252600490820152637a65726f60e01b604082015260600190565b60045550565b60095481611073610d15565b61107d9190611a76565b11156110b35760405162461bcd60e51b81526020600482015260056024820152641d1bdd185b60da1b60448201526064016106a1565b61082182826113bb565b80600260008282546110cf91906119eb565b90915550506001600160a01b038216600090815260208190526040812080548392906110fc9084906119eb565b90915550506040518181526000906001600160a01b038416907fddf252ad1be2c89b69c2b068fc378daa952ba7f163c4a11628f55a4df523b3ef906020015b60405180910390a35050565b815161115a906007906020850190611466565b50805161116e906006906020840190611466565b507f6c20b91d1723b78732eba64ff11ebd7966a6e4af568a00fa4f6b72c20f58b02a81836040516106db929190611aa8565b60006111ac838361141b565b6111e35760405162461bcd60e51b81526020600482015260086024820152673a3930b739b332b960c11b60448201526064016106a1565b6111ee33600a6112a5565b1561066e576040516304d301a360e41b81523360048201527f00000000000000000000000000000000000000000000000000000000000000006001600160a01b031690634d301a3090602401600060405180830381600087803b15801561125457600080fd5b505af1158015611268573d6000803e3d6000fd5b5050505050600192915050565b600081151561128485856112a5565b15151461129d576112958484611428565b50600161073e565b50600061073e565b6000806112b38360e0611acd565b6001600160a01b038516600090815260208190526040902054600160ff929092169190911b9081161491505092915050565b6001600160a01b0382166113215760405162461bcd60e51b815260206004820152600360248201526203078360ec1b60448201526064016106a1565b6001600160a01b038216600090815260208190526040812054906001600160e01b03198216906113518484611a76565b90506001600160e01b031981168281146113985760405162461bcd60e51b81526020600482015260086024820152676f766572666c6f7760c01b60448201526064016106a1565b506001600160a01b03909416600090815260208190526040902093909355505050565b80600260008282546113cd9190611a76565b909155506113dd905082826112e5565b6040518181526001600160a01b038316906000907fddf252ad1be2c89b69c2b068fc378daa952ba7f163c4a11628f55a4df523b3ef9060200161113b565b600061066e338484610f73565b60006114358260e0611acd565b6001600160a01b039390931660009081526020819052604090208054600160ff9095169490941b9093189092555050565b8280546114729061193a565b90600052602060002090601f01602090048101928261149457600085556114da565b82601f106114ad57805160ff19168380011785556114da565b828001600101855582156114da579182015b828111156114da5782518255916020019190600101906114bf565b506114e69291506114ea565b5090565b5b808211156114e657600081556001016114eb565b60006020828403121561151157600080fd5b81356001600160e01b03198116811461073e57600080fd5b6000815180845260005b8181101561154f57602081850181015186830182015201611533565b81811115611561576000602083870101525b50601f01601f19169290920160200192915050565b60208152600061073e6020830184611529565b80356001600160a01b0381168114610ba657600080fd5b600080604083850312156115b357600080fd5b6115bc83611589565b946020939093013593505050565b60008083601f8401126115dc57600080fd5b50813567ffffffffffffffff8111156115f457600080fd5b60208301915083602082850101111561160c57600080fd5b9250929050565b6000806020838503121561162657600080fd5b823567ffffffffffffffff81111561163d57600080fd5b611649858286016115ca565b90969095509350505050565b60008060006060848603121561166a57600080fd5b61167384611589565b925061168160208501611589565b9150604084013590509250925092565b6000602082840312156116a357600080fd5b61073e82611589565b600080600080606085870312156116c257600080fd5b6116cb85611589565b935060208501359250604085013567ffffffffffffffff8111156116ee57600080fd5b6116fa878288016115ca565b95989497509550505050565b60006020828403121561171857600080fd5b5035919050565b634e487b7160e01b600052604160045260246000fd5b600082601f83011261174657600080fd5b813567ffffffffffffffff808211156117615761176161171f565b604051601f8301601f19908116603f011681019082821181831017156117895761178961171f565b816040528381528660208588010111156117a257600080fd5b836020870160208301376000602085830101528094505050505092915050565b600080604083850312156117d557600080fd5b823567ffffffffffffffff808211156117ed57600080fd5b6117f986838701611735565b9350602085013591508082111561180f57600080fd5b5061181c85828601611735565b9150509250929050565b6000806040838503121561183957600080fd5b61184283611589565b915061185060208401611589565b90509250929050565b60006020828403121561186b57600080fd5b813567ffffffffffffffff81111561188257600080fd5b6105cb84828501611735565b6000806000806000608086880312156118a657600080fd5b6118af86611589565b94506118bd60208701611589565b935060408601359250606086013567ffffffffffffffff8111156118e057600080fd5b6118ec888289016115ca565b969995985093965092949392505050565b6000806040838503121561191057600080fd5b61191983611589565b9150602083013560ff8116811461192f57600080fd5b809150509250929050565b600181811c9082168061194e57607f821691505b6020821081141561196f57634e487b7160e01b600052602260045260246000fd5b50919050565b6020808252600990820152683737ba1037bbb732b960b91b604082015260600190565b81835281816020850137506000828201602090810191909152601f909101601f19169091010190565b6020815260006105cb602083018486611998565b634e487b7160e01b600052601160045260246000fd5b6000828210156119fd576119fd6119d5565b500390565b60208082526006908201526539b2b73232b960d11b604082015260600190565b60018060a01b0385168152836020820152606060408201526000611a4a606083018486611998565b9695505050505050565b600060208284031215611a6657600080fd5b8151801515811461073e57600080fd5b60008219821115611a8957611a896119d5565b500190565b8381526040602082015260006108c1604083018486611998565b604081526000611abb6040830185611529565b82810360208401526108c18185611529565b600060ff821660ff84168060ff03821115611aea57611aea6119d5565b01939250505056fea2646970667358221220ca81586aeca3f1342c01a059b11a8e5350b77dcbab673c9afddc740f8edabdc364736f6c63430008090033",
  "devdoc": {
    "kind": "dev",
    "methods": {
      "allowance(address,address)": {
        "details": "See `IERC20.allowance`."
      },
      "approve(address,uint256)": {
        "details": "See `IERC20.approve`. Requirements: - `spender` cannot be the zero address."
      },
      "balanceOf(address)": {
        "details": "See `IERC20.balanceOf`."
      },
      "totalSupply()": {
        "details": "See `IERC20.totalSupply`."
      },
      "transferFrom(address,address,uint256)": {
        "details": "See `IERC20.transferFrom`. Emits an `Approval` event indicating the updated allowance. This is not required by the EIP. See the note at the beginning of `ERC20`; Requirements: - `sender` and `recipient` cannot be the zero address. - `sender` must have a balance of at least `value`. - the caller must have allowance for `sender`'s tokens of at least `amount`."
      },
      "transferOwnership(address)": {
        "details": "Transfers ownership of the contract to a new account (`newOwner`). Can only be called by the current owner."
      }
    },
    "version": 1
  },
  "userdoc": {
    "kind": "user",
    "methods": {
      "announcement(string)": {
        "notice": "Allows the issuer to make public announcements that are visible on the blockchain."
      },
      "burn(uint256)": {
        "notice": "Transfers _amount tokens to the company and burns them. The meaning of this operation depends on the circumstances and the fate of the shares does not necessarily follow the fate of the tokens. For example, the company itself might call this function to implement a formal decision to destroy some of the outstanding shares. Also, this function might be called by an owner to return the shares to the company and get them back in another form under an according agreement (e.g. printed certificates or tokens on a different blockchain). It is not recommended to call this function without having agreed with the company on the further fate of the shares in question."
      },
      "declareInvalid(address,uint256,string)": {
        "notice": "Signals that the indicated tokens have been declared invalid (e.g. by a court ruling in accordance with article 973g of the Swiss Code of Obligations) and got detached from the underlying shares. Invalid tokens do not carry any shareholder rights any more. This function is purely declarative. It does not technically immobilize the affected tokens as that would give the issuer too much power."
      },
      "getCollateralRate(address)": {
        "notice": "Returns the collateral rate for the given collateral type and 0 if that type of collateral is not accepted. By default, only the token itself is accepted at a rate of 1:1. Subclasses should override this method if they want to add additional types of collateral."
      },
      "mintAndCall(address,address,uint256,bytes)": {
        "notice": "Allows the company to tokenize shares and transfer them e.g to the draggable contract and wrap them. If these shares are newly created, setTotalShares must be called first in order to adjust the total number of shares."
      },
      "setCustomClaimCollateral(address,uint256)": {
        "notice": "See parent method for collateral requirements."
      },
      "setTotalShares(uint256)": {
        "notice": "Declares the number of total shares, including those that have not been tokenized and those that are held by the company itself. This number can be substiantially higher than totalSupply() in case not all shares have been tokenized. Also, it can be lower than totalSupply() in case some tokens have become invalid."
      },
      "totalValidSupply()": {
        "notice": "The total number of valid tokens in circulation. In case some tokens have been declared invalid, this number might be lower than totalSupply(). Also, it will always be lower than or equal to totalShares()."
      }
    },
    "version": 1
  },
  "storageLayout": {
    "storage": [
      {
        "astId": 407,
        "contract": "src/optimism/OptimismShares.sol:OptimismShares",
        "label": "_balances",
        "offset": 0,
        "slot": "0",
        "type": "t_mapping(t_address,t_uint256)"
      },
      {
        "astId": 413,
        "contract": "src/optimism/OptimismShares.sol:OptimismShares",
        "label": "_allowances",
        "offset": 0,
        "slot": "1",
        "type": "t_mapping(t_address,t_mapping(t_address,t_uint256))"
      },
      {
        "astId": 415,
        "contract": "src/optimism/OptimismShares.sol:OptimismShares",
        "label": "_totalSupply",
        "offset": 0,
        "slot": "2",
        "type": "t_uint256"
      },
      {
        "astId": 418,
        "contract": "src/optimism/OptimismShares.sol:OptimismShares",
        "label": "decimals",
        "offset": 0,
        "slot": "3",
        "type": "t_uint8"
      },
      {
        "astId": 4804,
        "contract": "src/optimism/OptimismShares.sol:OptimismShares",
        "label": "customCollateralAddress",
        "offset": 1,
        "slot": "3",
        "type": "t_address"
      },
      {
        "astId": 4806,
        "contract": "src/optimism/OptimismShares.sol:OptimismShares",
        "label": "customCollateralRate",
        "offset": 0,
        "slot": "4",
        "type": "t_uint256"
      },
      {
        "astId": 6630,
        "contract": "src/optimism/OptimismShares.sol:OptimismShares",
        "label": "owner",
        "offset": 0,
        "slot": "5",
        "type": "t_address"
      },
      {
        "astId": 903,
        "contract": "src/optimism/OptimismShares.sol:OptimismShares",
        "label": "name",
        "offset": 0,
        "slot": "6",
        "type": "t_string_storage"
      },
      {
        "astId": 906,
        "contract": "src/optimism/OptimismShares.sol:OptimismShares",
        "label": "symbol",
        "offset": 0,
        "slot": "7",
        "type": "t_string_storage"
      },
      {
        "astId": 6252,
        "contract": "src/optimism/OptimismShares.sol:OptimismShares",
        "label": "terms",
        "offset": 0,
        "slot": "8",
        "type": "t_string_storage"
      },
      {
        "astId": 6255,
        "contract": "src/optimism/OptimismShares.sol:OptimismShares",
        "label": "totalShares",
        "offset": 0,
        "slot": "9",
        "type": "t_uint256"
      },
      {
        "astId": 6258,
        "contract": "src/optimism/OptimismShares.sol:OptimismShares",
        "label": "invalidTokens",
        "offset": 0,
        "slot": "10",
        "type": "t_uint256"
      },
      {
        "astId": 4654,
        "contract": "src/optimism/OptimismShares.sol:OptimismShares",
        "label": "l1Token",
        "offset": 0,
        "slot": "11",
        "type": "t_address"
      },
      {
        "astId": 4656,
        "contract": "src/optimism/OptimismShares.sol:OptimismShares",
        "label": "l2Bridge",
        "offset": 0,
        "slot": "12",
        "type": "t_address"
      }
    ],
    "types": {
      "t_address": {
        "encoding": "inplace",
        "label": "address",
        "numberOfBytes": "20"
      },
      "t_mapping(t_address,t_mapping(t_address,t_uint256))": {
        "encoding": "mapping",
        "key": "t_address",
        "label": "mapping(address => mapping(address => uint256))",
        "numberOfBytes": "32",
        "value": "t_mapping(t_address,t_uint256)"
      },
      "t_mapping(t_address,t_uint256)": {
        "encoding": "mapping",
        "key": "t_address",
        "label": "mapping(address => uint256)",
        "numberOfBytes": "32",
        "value": "t_uint256"
      },
      "t_string_storage": {
        "encoding": "bytes",
        "label": "string",
        "numberOfBytes": "32"
      },
      "t_uint256": {
        "encoding": "inplace",
        "label": "uint256",
        "numberOfBytes": "32"
      },
      "t_uint8": {
        "encoding": "inplace",
        "label": "uint8",
        "numberOfBytes": "1"
      }
    }
  }
}