{
  "address": "0xFFD6F1b3bc223C6D3AB4AF32167B4A93a148CA39",
  "abi": [
    {
      "inputs": [
        {
          "internalType": "contract IQuoter",
          "name": "_quoter",
          "type": "address"
        },
        {
          "internalType": "contract ISwapRouter",
          "name": "swapRouter",
          "type": "address"
        }
      ],
      "stateMutability": "nonpayable",
      "type": "constructor"
    },
    {
      "inputs": [
        {
          "internalType": "address",
          "name": "erc20In",
          "type": "address"
        }
      ],
      "name": "approveERC20",
      "outputs": [],
      "stateMutability": "nonpayable",
      "type": "function"
    },
    {
      "inputs": [],
      "name": "getLatestPriceCHFUSD",
      "outputs": [
        {
          "internalType": "uint256",
          "name": "",
          "type": "uint256"
        }
      ],
      "stateMutability": "view",
      "type": "function"
    },
    {
      "inputs": [],
      "name": "getLatestPriceETHUSD",
      "outputs": [
        {
          "internalType": "uint256",
          "name": "",
          "type": "uint256"
        }
      ],
      "stateMutability": "view",
      "type": "function"
    },
    {
      "inputs": [],
      "name": "getMaxBlockTimestampDelay",
      "outputs": [
        {
          "internalType": "uint256",
          "name": "",
          "type": "uint256"
        }
      ],
      "stateMutability": "view",
      "type": "function"
    },
    {
      "inputs": [],
      "name": "getMaxDataTimestampDelay",
      "outputs": [
        {
          "internalType": "uint256",
          "name": "",
          "type": "uint256"
        }
      ],
      "stateMutability": "view",
      "type": "function"
    },
    {
      "inputs": [
        {
          "internalType": "uint256",
          "name": "amountInBase",
          "type": "uint256"
        },
        {
          "internalType": "bytes",
          "name": "path",
          "type": "bytes"
        }
      ],
      "name": "getPriceInERC20",
      "outputs": [
        {
          "internalType": "uint256",
          "name": "",
          "type": "uint256"
        }
      ],
      "stateMutability": "nonpayable",
      "type": "function"
    },
    {
      "inputs": [
        {
          "internalType": "uint256",
          "name": "amountInBase",
          "type": "uint256"
        },
        {
          "internalType": "contract IBrokerbot",
          "name": "brokerBot",
          "type": "address"
        }
      ],
      "name": "getPriceInEther",
      "outputs": [
        {
          "internalType": "uint256",
          "name": "",
          "type": "uint256"
        }
      ],
      "stateMutability": "nonpayable",
      "type": "function"
    },
    {
      "inputs": [
        {
          "internalType": "uint256",
          "name": "amountInBase",
          "type": "uint256"
        },
        {
          "internalType": "contract IERC20",
          "name": "base",
          "type": "address"
        }
      ],
      "name": "getPriceInEtherFromOracle",
      "outputs": [
        {
          "internalType": "uint256",
          "name": "",
          "type": "uint256"
        }
      ],
      "stateMutability": "view",
      "type": "function"
    },
    {
      "inputs": [
        {
          "internalType": "contract IBrokerbot",
          "name": "recipient",
          "type": "address"
        }
      ],
      "name": "hasSettingKeepEther",
      "outputs": [
        {
          "internalType": "bool",
          "name": "",
          "type": "bool"
        }
      ],
      "stateMutability": "view",
      "type": "function"
    },
    {
      "inputs": [
        {
          "internalType": "address",
          "name": "_receviedSigner",
          "type": "address"
        }
      ],
      "name": "isSignerAuthorized",
      "outputs": [
        {
          "internalType": "bool",
          "name": "",
          "type": "bool"
        }
      ],
      "stateMutability": "view",
      "type": "function"
    },
    {
      "inputs": [
        {
          "internalType": "uint256",
          "name": "_receivedTimestamp",
          "type": "uint256"
        }
      ],
      "name": "isTimestampValid",
      "outputs": [
        {
          "internalType": "bool",
          "name": "",
          "type": "bool"
        }
      ],
      "stateMutability": "view",
      "type": "function"
    },
    {
      "inputs": [
        {
          "internalType": "contract IERC20",
          "name": "token",
          "type": "address"
        },
        {
          "internalType": "address[]",
          "name": "recipients",
          "type": "address[]"
        },
        {
          "internalType": "uint256[]",
          "name": "amounts",
          "type": "uint256[]"
        }
      ],
      "name": "multiPay",
      "outputs": [],
      "stateMutability": "nonpayable",
      "type": "function"
    },
    {
      "inputs": [
        {
          "internalType": "contract IERC20",
          "name": "token",
          "type": "address"
        },
        {
          "internalType": "address[]",
          "name": "recipients",
          "type": "address[]"
        },
        {
          "internalType": "uint256[]",
          "name": "amounts",
          "type": "uint256[]"
        },
        {
          "internalType": "bytes",
          "name": "ref",
          "type": "bytes"
        }
      ],
      "name": "multiPayAndNotify",
      "outputs": [],
      "stateMutability": "nonpayable",
      "type": "function"
    },
    {
      "inputs": [
        {
          "internalType": "address",
          "name": "recipient",
          "type": "address"
        },
        {
          "internalType": "uint256",
          "name": "amountInBase",
          "type": "uint256"
        },
        {
          "internalType": "bytes",
          "name": "ref",
          "type": "bytes"
        }
      ],
      "name": "payAndNotify",
      "outputs": [],
      "stateMutability": "nonpayable",
      "type": "function"
    },
    {
      "inputs": [
        {
          "internalType": "contract IERC20",
          "name": "token",
          "type": "address"
        },
        {
          "internalType": "address",
          "name": "recipient",
          "type": "address"
        },
        {
          "internalType": "uint256",
          "name": "amount",
          "type": "uint256"
        },
        {
          "internalType": "bytes",
          "name": "ref",
          "type": "bytes"
        }
      ],
      "name": "payAndNotify",
      "outputs": [],
      "stateMutability": "nonpayable",
      "type": "function"
    },
    {
      "inputs": [
        {
          "internalType": "uint256",
          "name": "amountOut",
          "type": "uint256"
        },
        {
          "internalType": "uint256",
          "name": "amountInMaximum",
          "type": "uint256"
        },
        {
          "internalType": "address",
          "name": "erc20In",
          "type": "address"
        },
        {
          "internalType": "bytes",
          "name": "path",
          "type": "bytes"
        },
        {
          "internalType": "address",
          "name": "recipient",
          "type": "address"
        }
      ],
      "name": "payFromERC20",
      "outputs": [
        {
          "internalType": "uint256",
          "name": "amountIn",
          "type": "uint256"
        }
      ],
      "stateMutability": "nonpayable",
      "type": "function"
    },
    {
      "inputs": [
        {
          "internalType": "address",
          "name": "recipient",
          "type": "address"
        },
        {
          "internalType": "uint256",
          "name": "amountBase",
          "type": "uint256"
        },
        {
          "internalType": "address",
          "name": "erc20",
          "type": "address"
        },
        {
          "internalType": "uint256",
          "name": "amountInMaximum",
          "type": "uint256"
        },
        {
          "internalType": "bytes",
          "name": "path",
          "type": "bytes"
        },
        {
          "internalType": "bytes",
          "name": "ref",
          "type": "bytes"
        }
      ],
      "name": "payFromERC20AndNotify",
      "outputs": [],
      "stateMutability": "nonpayable",
      "type": "function"
    },
    {
      "inputs": [
        {
          "internalType": "address",
          "name": "recipient",
          "type": "address"
        },
        {
          "internalType": "uint256",
          "name": "amountInBase",
          "type": "uint256"
        },
        {
          "internalType": "contract IERC20",
          "name": "base",
          "type": "address"
        }
      ],
      "name": "payFromEther",
      "outputs": [],
      "stateMutability": "payable",
      "type": "function"
    },
    {
      "inputs": [
        {
          "internalType": "contract IBrokerbot",
          "name": "recipient",
          "type": "address"
        },
        {
          "internalType": "uint256",
          "name": "amountInBase",
          "type": "uint256"
        },
        {
          "internalType": "bytes",
          "name": "ref",
          "type": "bytes"
        }
      ],
      "name": "payFromEtherAndNotify",
      "outputs": [],
      "stateMutability": "payable",
      "type": "function"
    },
    {
      "inputs": [
        {
          "internalType": "contract IERC20",
          "name": "ercAddress",
          "type": "address"
        },
        {
          "internalType": "address",
          "name": "to",
          "type": "address"
        },
        {
          "internalType": "uint256",
          "name": "amount",
          "type": "uint256"
        }
      ],
      "name": "recover",
      "outputs": [],
      "stateMutability": "nonpayable",
      "type": "function"
    },
    {
      "stateMutability": "payable",
      "type": "receive"
    }
  ],
  "transactionHash": "0x7db60b22a41a0d09966bb45e6df5157b87498e5cb2032b32a27ec43a3c02a38b",
  "args": [
    "0xb27308f9F90D607463bb33eA1BeBb41C27CE5AB6",
    "0xE592427A0AEce92De3Edee1F18E0157C05861564"
  ],
  "numDeployments": 4,
  "solcInputHash": "ea160c29c5accc250732152b6aef9b56",
  "bytecode": "0x60c06040523480156200001157600080fd5b50604051620039c1380380620039c183398181016040528101906200003791906200016a565b8173ffffffffffffffffffffffffffffffffffffffff1660808173ffffffffffffffffffffffffffffffffffffffff16815250508073ffffffffffffffffffffffffffffffffffffffff1660a08173ffffffffffffffffffffffffffffffffffffffff16815250505050620001b1565b600080fd5b600073ffffffffffffffffffffffffffffffffffffffff82169050919050565b6000620000d982620000ac565b9050919050565b6000620000ed82620000cc565b9050919050565b620000ff81620000e0565b81146200010b57600080fd5b50565b6000815190506200011f81620000f4565b92915050565b60006200013282620000cc565b9050919050565b620001448162000125565b81146200015057600080fd5b50565b600081519050620001648162000139565b92915050565b60008060408385031215620001845762000183620000a7565b5b600062000194858286016200010e565b9250506020620001a78582860162000153565b9150509250929050565b60805160a0516137c7620001fa6000396000818161089201528181610fed015261140201526000818161078401528181610ecd015281816116ca015261170601526137c76000f3fe6080604052600436106101225760003560e01c8063568f3254116100a0578063c1d8e08a11610064578063c1d8e08a146103d1578063d3b3ca771461040e578063d64d4ba514610437578063e25b37c614610474578063f31a210a146104b157610129565b8063568f3254146102fb5780635daf206a146103245780636fb0c7dc1461034d578063750582051461036957806395fe863c146103a657610129565b806317f565d2116100e757806317f565d2146102185780631945b784146102415780631c9af2e31461027e5780631ec82cb8146102a75780635118af5a146102d057610129565b8062124e3d1461012e578063040c037a14610159578063078aa9641461017557806311c89b10146101b257806311e8701c146101ef57610129565b3661012957005b600080fd5b34801561013a57600080fd5b506101436104dc565b6040516101509190611f2b565b60405180910390f35b610173600480360381019061016e919061205b565b61050c565b005b34801561018157600080fd5b5061019c60048036038101906101979190612210565b610780565b6040516101a99190611f2b565b60405180910390f35b3480156101be57600080fd5b506101d960048036038101906101d49190612298565b610828565b6040516101e691906122e0565b60405180910390f35b3480156101fb57600080fd5b5061021660048036038101906102119190612298565b610874565b005b34801561022457600080fd5b5061023f600480360381019061023a91906122fb565b610936565b005b34801561024d57600080fd5b50610268600480360381019061026391906123ad565b6109b7565b6040516102759190611f2b565b60405180910390f35b34801561028a57600080fd5b506102a560048036038101906102a09190612499565b610a58565b005b3480156102b357600080fd5b506102ce60048036038101906102c9919061252e565b610b4a565b005b3480156102dc57600080fd5b506102e5610bd6565b6040516102f29190611f2b565b60405180910390f35b34801561030757600080fd5b50610322600480360381019061031d9190612581565b610bdf565b005b34801561033057600080fd5b5061034b6004803603810190610346919061264a565b610c57565b005b61036760048036038101906103629190612715565b610ebd565b005b34801561037557600080fd5b50610390600480360381019061038b9190612768565b6111b8565b60405161039d91906122e0565b60405180910390f35b3480156103b257600080fd5b506103bb611234565b6040516103c89190611f2b565b60405180910390f35b3480156103dd57600080fd5b506103f860048036038101906103f39190612795565b611264565b60405161040591906122e0565b60405180910390f35b34801561041a57600080fd5b50610435600480360381019061043091906127c2565b6112e8565b005b34801561044357600080fd5b5061045e6004803603810190610459919061284a565b6113fd565b60405161046b9190611f2b565b60405180910390f35b34801561048057600080fd5b5061049b600480360381019061049691906128e1565b611601565b6040516104a89190611f2b565b60405180910390f35b3480156104bd57600080fd5b506104c6611874565b6040516104d39190611f2b565b60405180910390f35b60006105077f434846000000000000000000000000000000000000000000000000000000000061187d565b905090565b60008473ffffffffffffffffffffffffffffffffffffffff16635001f3b56040518163ffffffff1660e01b8152600401602060405180830381865afa158015610559573d6000803e3d6000fd5b505050506040513d601f19601f8201168201806040525081019061057d9190612936565b905061058885611264565b156106e857600061059985836109b7565b90508573ffffffffffffffffffffffffffffffffffffffff166369365c528284338989896040518763ffffffff1660e01b81526004016105dd959493929190612a0f565b60206040518083038185885af11580156105fb573d6000803e3d6000fd5b50505050506040513d601f19601f820116820180604052508101906106209190612a72565b50348110156106e25760003373ffffffffffffffffffffffffffffffffffffffff16823461064e9190612ace565b60405161065a90612b33565b60006040518083038185875af1925050503d8060008114610697576040519150601f19603f3d011682016040523d82523d6000602084013e61069c565b606091505b50509050806106e0576040517f08c379a00000000000000000000000000000000000000000000000000000000081526004016106d790612ba5565b60405180910390fd5b505b50610779565b6106f3858583610ebd565b8473ffffffffffffffffffffffffffffffffffffffff166369365c5282338787876040518663ffffffff1660e01b8152600401610734959493929190612a0f565b6020604051808303816000875af1158015610753573d6000803e3d6000fd5b505050506040513d601f19601f820116820180604052508101906107779190612a72565b505b5050505050565b60007f000000000000000000000000000000000000000000000000000000000000000073ffffffffffffffffffffffffffffffffffffffff16632f80bb1d83856040518363ffffffff1660e01b81526004016107dd929190612c3c565b6020604051808303816000875af11580156107fc573d6000803e3d6000fd5b505050506040513d601f19601f820116820180604052508101906108209190612a72565b905092915050565b6000730c39486f770b26f5527bbbf942726537986cd7eb73ffffffffffffffffffffffffffffffffffffffff168273ffffffffffffffffffffffffffffffffffffffff16149050919050565b8073ffffffffffffffffffffffffffffffffffffffff1663095ea7b37f00000000000000000000000000000000000000000000000000000000000000007f80000000000000000000000000000000000000000000000000000000000000006040518363ffffffff1660e01b81526004016108ef929190612ca7565b6020604051808303816000875af115801561090e573d6000803e3d6000fd5b505050506040513d601f19601f820116820180604052508101906109329190612cfc565b5050565b6109b18473ffffffffffffffffffffffffffffffffffffffff16635001f3b56040518163ffffffff1660e01b8152600401602060405180830381865afa158015610984573d6000803e3d6000fd5b505050506040513d601f19601f820116820180604052508101906109a89190612936565b858585856112e8565b50505050565b600073b4272071ecadd69d933adcd19ca99fe80664fc0873ffffffffffffffffffffffffffffffffffffffff168273ffffffffffffffffffffffffffffffffffffffff161415610a2d57610a09611234565b83610a126104dc565b610a1c9190612d29565b610a269190612db2565b9050610a52565b610a35611234565b6305f5e10084610a459190612d29565b610a4f9190612db2565b90505b92915050565b60005b84849050811015610b42578573ffffffffffffffffffffffffffffffffffffffff166323b872dd33878785818110610a9657610a95612de3565b5b9050602002016020810190610aab9190612298565b868686818110610abe57610abd612de3565b5b905060200201356040518463ffffffff1660e01b8152600401610ae393929190612e12565b6020604051808303816000875af1158015610b02573d6000803e3d6000fd5b505050506040513d601f19601f82011682018060405250810190610b269190612cfc565b610b2f57600080fd5b8080610b3a90612e49565b915050610a5b565b505050505050565b8273ffffffffffffffffffffffffffffffffffffffff1663a9059cbb83836040518363ffffffff1660e01b8152600401610b85929190612e92565b6020604051808303816000875af1158015610ba4573d6000803e3d6000fd5b505050506040513d601f19601f82011682018060405250810190610bc89190612cfc565b610bd157600080fd5b505050565b6000600f905090565b60005b86869050811015610c4d57610c3a88888884818110610c0457610c03612de3565b5b9050602002016020810190610c199190612298565b878785818110610c2c57610c2b612de3565b5b9050602002013586866112e8565b8080610c4590612e49565b915050610be2565b5050505050505050565b60008773ffffffffffffffffffffffffffffffffffffffff16635001f3b56040518163ffffffff1660e01b8152600401602060405180830381865afa158015610ca4573d6000803e3d6000fd5b505050506040513d601f19601f82011682018060405250810190610cc89190612936565b905060008173ffffffffffffffffffffffffffffffffffffffff166370a082318a6040518263ffffffff1660e01b8152600401610d059190612ebb565b602060405180830381865afa158015610d22573d6000803e3d6000fd5b505050506040513d601f19601f82011682018060405250810190610d469190612a72565b9050610d55888789888d6113fd565b5060008273ffffffffffffffffffffffffffffffffffffffff166370a082318b6040518263ffffffff1660e01b8152600401610d919190612ebb565b602060405180830381865afa158015610dae573d6000803e3d6000fd5b505050506040513d601f19601f82011682018060405250810190610dd29190612a72565b90508181610de09190612ace565b8914610e21576040517f08c379a0000000000000000000000000000000000000000000000000000000008152600401610e1890612f22565b60405180910390fd5b8973ffffffffffffffffffffffffffffffffffffffff166369365c5284338585610e4b9190612ace565b89896040518663ffffffff1660e01b8152600401610e6d959493929190612a0f565b6020604051808303816000875af1158015610e8c573d6000803e3d6000fd5b505050506040513d601f19601f82011682018060405250810190610eb09190612a72565b5050505050505050505050565b60006040518061010001604052807f000000000000000000000000000000000000000000000000000000000000000073ffffffffffffffffffffffffffffffffffffffff16634aa4a4fc6040518163ffffffff1660e01b8152600401602060405180830381865afa158015610f36573d6000803e3d6000fd5b505050506040513d601f19601f82011682018060405250810190610f5a9190612f57565b73ffffffffffffffffffffffffffffffffffffffff1681526020018373ffffffffffffffffffffffffffffffffffffffff168152602001610bb862ffffff1681526020018573ffffffffffffffffffffffffffffffffffffffff168152602001428152602001848152602001348152602001600073ffffffffffffffffffffffffffffffffffffffff16815250905060007f0000000000000000000000000000000000000000000000000000000000000000905060008173ffffffffffffffffffffffffffffffffffffffff1663db3e219834856040518363ffffffff1660e01b815260040161104a9190613071565b60206040518083038185885af1158015611068573d6000803e3d6000fd5b50505050506040513d601f19601f8201168201806040525081019061108d9190612a72565b9050348110156111b0578173ffffffffffffffffffffffffffffffffffffffff166312210e8a6040518163ffffffff1660e01b8152600401600060405180830381600087803b1580156110df57600080fd5b505af11580156110f3573d6000803e3d6000fd5b5050505060003373ffffffffffffffffffffffffffffffffffffffff16823461111c9190612ace565b60405161112890612b33565b60006040518083038185875af1925050503d8060008114611165576040519150601f19603f3d011682016040523d82523d6000602084013e61116a565b606091505b50509050806111ae576040517f08c379a00000000000000000000000000000000000000000000000000000000081526004016111a590612ba5565b60405180910390fd5b505b505050505050565b6000816111c3610bd6565b426111ce919061308d565b1161120e576040517f08c379a000000000000000000000000000000000000000000000000000000000815260040161120590613155565b60405180910390fd5b8142108061122d575061121f611874565b824261122b9190612ace565b105b9050919050565b600061125f7f455448000000000000000000000000000000000000000000000000000000000061187d565b905090565b6000600460ff16600460ff168373ffffffffffffffffffffffffffffffffffffffff1663e06174e46040518163ffffffff1660e01b8152600401602060405180830381865afa1580156112bb573d6000803e3d6000fd5b505050506040513d601f19601f820116820180604052508101906112df9190612a72565b16149050919050565b8473ffffffffffffffffffffffffffffffffffffffff166323b872dd3386866040518463ffffffff1660e01b815260040161132593929190612e12565b6020604051808303816000875af1158015611344573d6000803e3d6000fd5b505050506040513d601f19601f820116820180604052508101906113689190612cfc565b61137157600080fd5b8373ffffffffffffffffffffffffffffffffffffffff166369365c5286338686866040518663ffffffff1660e01b81526004016113b2959493929190612a0f565b6020604051808303816000875af11580156113d1573d6000803e3d6000fd5b505050506040513d601f19601f820116820180604052508101906113f59190612a72565b505050505050565b6000807f000000000000000000000000000000000000000000000000000000000000000090508473ffffffffffffffffffffffffffffffffffffffff166323b872dd3330896040518463ffffffff1660e01b815260040161146093929190612e12565b6020604051808303816000875af115801561147f573d6000803e3d6000fd5b505050506040513d601f19601f820116820180604052508101906114a39190612cfc565b5060006040518060a001604052808681526020018573ffffffffffffffffffffffffffffffffffffffff1681526020014281526020018981526020018881525090508173ffffffffffffffffffffffffffffffffffffffff1663f28c0498826040518263ffffffff1660e01b815260040161151e9190613235565b6020604051808303816000875af115801561153d573d6000803e3d6000fd5b505050506040513d601f19601f820116820180604052508101906115619190612a72565b9250868310156115f6578573ffffffffffffffffffffffffffffffffffffffff1663a9059cbb33858a6115949190612ace565b6040518363ffffffff1660e01b81526004016115b1929190612e92565b6020604051808303816000875af11580156115d0573d6000803e3d6000fd5b505050506040513d601f19601f820116820180604052508101906115f49190612cfc565b505b505095945050505050565b60008073ffffffffffffffffffffffffffffffffffffffff168273ffffffffffffffffffffffffffffffffffffffff1614158015611644575061164382611264565b5b156116c8576116c1838373ffffffffffffffffffffffffffffffffffffffff16635001f3b56040518163ffffffff1660e01b8152600401602060405180830381865afa158015611698573d6000803e3d6000fd5b505050506040513d601f19601f820116820180604052508101906116bc9190612936565b6109b7565b905061186e565b7f000000000000000000000000000000000000000000000000000000000000000073ffffffffffffffffffffffffffffffffffffffff166330d07f217f000000000000000000000000000000000000000000000000000000000000000073ffffffffffffffffffffffffffffffffffffffff16634aa4a4fc6040518163ffffffff1660e01b8152600401602060405180830381865afa15801561176f573d6000803e3d6000fd5b505050506040513d601f19601f820116820180604052508101906117939190612f57565b8473ffffffffffffffffffffffffffffffffffffffff16635001f3b56040518163ffffffff1660e01b8152600401602060405180830381865afa1580156117de573d6000803e3d6000fd5b505050506040513d601f19601f820116820180604052508101906118029190612936565b610bb88760006040518663ffffffff1660e01b81526004016118289594939291906132a1565b6020604051808303816000875af1158015611847573d6000803e3d6000fd5b505050506040513d601f19601f8201168201806040525081019061186b9190612a72565b90505b92915050565b600060b4905090565b600080600167ffffffffffffffff81111561189b5761189a6120e5565b5b6040519080825280602002602001820160405280156118c95781602001602082028036833780820191505090505b50905082816000815181106118e1576118e0612de3565b5b6020026020010181815250506118f681611919565b60008151811061190957611908612de3565b5b6020026020010151915050919050565b60606000606136033590506000602060408360ff166119389190613302565b611942919061333e565b9050606060405190508181528160428301360360208301376020810160405260008180519060200120905060008160405160200161198091906133f8565b6040516020818303038152906040528051906020012090506060604051905060418152604180360360208301376020810160405260006119c98284611a8190919063ffffffff16565b90506119d481610828565b611a13576040517f08c379a0000000000000000000000000000000000000000000000000000000008152600401611a0a9061346a565b60405180910390fd5b600060623603359050611a25816111b8565b611a64576040517f08c379a0000000000000000000000000000000000000000000000000000000008152600401611a5b906134d6565b60405180910390fd5b611a728a8960ff1689611aa8565b98505050505050505050919050565b6000806000611a908585611b4e565b91509150611a9d81611bd1565b819250505092915050565b6060806000806000806042870136035995508951865260208a51026020870101604052600094505b88851015611b3e57604085028101359150600093505b8951841015611b3357816020850260208c0101511415611b1b5760206040860282010135602085026020880101526001830192505b8951831415611b28578894505b600184019350611ae6565b600185019450611ad0565b5084955050505050509392505050565b600080604183511415611b905760008060006020860151925060408601519150606086015160001a9050611b8487828585611da6565b94509450505050611bca565b604083511415611bc1576000806020850151915060408501519050611bb6868383611eb3565b935093505050611bca565b60006002915091505b9250929050565b60006004811115611be557611be46134f6565b5b816004811115611bf857611bf76134f6565b5b1415611c0357611da3565b60016004811115611c1757611c166134f6565b5b816004811115611c2a57611c296134f6565b5b1415611c6b576040517f08c379a0000000000000000000000000000000000000000000000000000000008152600401611c6290613571565b60405180910390fd5b60026004811115611c7f57611c7e6134f6565b5b816004811115611c9257611c916134f6565b5b1415611cd3576040517f08c379a0000000000000000000000000000000000000000000000000000000008152600401611cca906135dd565b60405180910390fd5b60036004811115611ce757611ce66134f6565b5b816004811115611cfa57611cf96134f6565b5b1415611d3b576040517f08c379a0000000000000000000000000000000000000000000000000000000008152600401611d329061366f565b60405180910390fd5b600480811115611d4e57611d4d6134f6565b5b816004811115611d6157611d606134f6565b5b1415611da2576040517f08c379a0000000000000000000000000000000000000000000000000000000008152600401611d9990613701565b60405180910390fd5b5b50565b6000807f7fffffffffffffffffffffffffffffff5d576e7357a4501ddfe92f46681b20a08360001c1115611de1576000600391509150611eaa565b601b8560ff1614158015611df95750601c8560ff1614155b15611e0b576000600491509150611eaa565b600060018787878760405160008152602001604052604051611e30949392919061374c565b6020604051602081039080840390855afa158015611e52573d6000803e3d6000fd5b505050602060405103519050600073ffffffffffffffffffffffffffffffffffffffff168173ffffffffffffffffffffffffffffffffffffffff161415611ea157600060019250925050611eaa565b80600092509250505b94509492505050565b60008060007f7fffffffffffffffffffffffffffffffffffffffffffffffffffffffffffffff60001b841690506000601b60ff8660001c901c611ef6919061308d565b9050611f0487828885611da6565b935093505050935093915050565b6000819050919050565b611f2581611f12565b82525050565b6000602082019050611f406000830184611f1c565b92915050565b6000604051905090565b600080fd5b600080fd5b600073ffffffffffffffffffffffffffffffffffffffff82169050919050565b6000611f8582611f5a565b9050919050565b6000611f9782611f7a565b9050919050565b611fa781611f8c565b8114611fb257600080fd5b50565b600081359050611fc481611f9e565b92915050565b611fd381611f12565b8114611fde57600080fd5b50565b600081359050611ff081611fca565b92915050565b600080fd5b600080fd5b600080fd5b60008083601f84011261201b5761201a611ff6565b5b8235905067ffffffffffffffff81111561203857612037611ffb565b5b60208301915083600182028301111561205457612053612000565b5b9250929050565b6000806000806060858703121561207557612074611f50565b5b600061208387828801611fb5565b945050602061209487828801611fe1565b935050604085013567ffffffffffffffff8111156120b5576120b4611f55565b5b6120c187828801612005565b925092505092959194509250565b600080fd5b6000601f19601f8301169050919050565b7f4e487b7100000000000000000000000000000000000000000000000000000000600052604160045260246000fd5b61211d826120d4565b810181811067ffffffffffffffff8211171561213c5761213b6120e5565b5b80604052505050565b600061214f611f46565b905061215b8282612114565b919050565b600067ffffffffffffffff82111561217b5761217a6120e5565b5b612184826120d4565b9050602081019050919050565b82818337600083830152505050565b60006121b36121ae84612160565b612145565b9050828152602081018484840111156121cf576121ce6120cf565b5b6121da848285612191565b509392505050565b600082601f8301126121f7576121f6611ff6565b5b81356122078482602086016121a0565b91505092915050565b6000806040838503121561222757612226611f50565b5b600061223585828601611fe1565b925050602083013567ffffffffffffffff81111561225657612255611f55565b5b612262858286016121e2565b9150509250929050565b61227581611f7a565b811461228057600080fd5b50565b6000813590506122928161226c565b92915050565b6000602082840312156122ae576122ad611f50565b5b60006122bc84828501612283565b91505092915050565b60008115159050919050565b6122da816122c5565b82525050565b60006020820190506122f560008301846122d1565b92915050565b6000806000806060858703121561231557612314611f50565b5b600061232387828801612283565b945050602061233487828801611fe1565b935050604085013567ffffffffffffffff81111561235557612354611f55565b5b61236187828801612005565b925092505092959194509250565b600061237a82611f7a565b9050919050565b61238a8161236f565b811461239557600080fd5b50565b6000813590506123a781612381565b92915050565b600080604083850312156123c4576123c3611f50565b5b60006123d285828601611fe1565b92505060206123e385828601612398565b9150509250929050565b60008083601f84011261240357612402611ff6565b5b8235905067ffffffffffffffff8111156124205761241f611ffb565b5b60208301915083602082028301111561243c5761243b612000565b5b9250929050565b60008083601f84011261245957612458611ff6565b5b8235905067ffffffffffffffff81111561247657612475611ffb565b5b60208301915083602082028301111561249257612491612000565b5b9250929050565b6000806000806000606086880312156124b5576124b4611f50565b5b60006124c388828901612398565b955050602086013567ffffffffffffffff8111156124e4576124e3611f55565b5b6124f0888289016123ed565b9450945050604086013567ffffffffffffffff81111561251357612512611f55565b5b61251f88828901612443565b92509250509295509295909350565b60008060006060848603121561254757612546611f50565b5b600061255586828701612398565b935050602061256686828701612283565b925050604061257786828701611fe1565b9150509250925092565b60008060008060008060006080888a0312156125a05761259f611f50565b5b60006125ae8a828b01612398565b975050602088013567ffffffffffffffff8111156125cf576125ce611f55565b5b6125db8a828b016123ed565b9650965050604088013567ffffffffffffffff8111156125fe576125fd611f55565b5b61260a8a828b01612443565b9450945050606088013567ffffffffffffffff81111561262d5761262c611f55565b5b6126398a828b01612005565b925092505092959891949750929550565b600080600080600080600060c0888a03121561266957612668611f50565b5b60006126778a828b01612283565b97505060206126888a828b01611fe1565b96505060406126998a828b01612283565b95505060606126aa8a828b01611fe1565b945050608088013567ffffffffffffffff8111156126cb576126ca611f55565b5b6126d78a828b016121e2565b93505060a088013567ffffffffffffffff8111156126f8576126f7611f55565b5b6127048a828b01612005565b925092505092959891949750929550565b60008060006060848603121561272e5761272d611f50565b5b600061273c86828701612283565b935050602061274d86828701611fe1565b925050604061275e86828701612398565b9150509250925092565b60006020828403121561277e5761277d611f50565b5b600061278c84828501611fe1565b91505092915050565b6000602082840312156127ab576127aa611f50565b5b60006127b984828501611fb5565b91505092915050565b6000806000806000608086880312156127de576127dd611f50565b5b60006127ec88828901612398565b95505060206127fd88828901612283565b945050604061280e88828901611fe1565b935050606086013567ffffffffffffffff81111561282f5761282e611f55565b5b61283b88828901612005565b92509250509295509295909350565b600080600080600060a0868803121561286657612865611f50565b5b600061287488828901611fe1565b955050602061288588828901611fe1565b945050604061289688828901612283565b935050606086013567ffffffffffffffff8111156128b7576128b6611f55565b5b6128c3888289016121e2565b92505060806128d488828901612283565b9150509295509295909350565b600080604083850312156128f8576128f7611f50565b5b600061290685828601611fe1565b925050602061291785828601611fb5565b9150509250929050565b60008151905061293081612381565b92915050565b60006020828403121561294c5761294b611f50565b5b600061295a84828501612921565b91505092915050565b6000819050919050565b600061298861298361297e84611f5a565b612963565b611f5a565b9050919050565b600061299a8261296d565b9050919050565b60006129ac8261298f565b9050919050565b6129bc816129a1565b82525050565b6129cb81611f7a565b82525050565b600082825260208201905092915050565b60006129ee83856129d1565b93506129fb838584612191565b612a04836120d4565b840190509392505050565b6000608082019050612a2460008301886129b3565b612a3160208301876129c2565b612a3e6040830186611f1c565b8181036060830152612a518184866129e2565b90509695505050505050565b600081519050612a6c81611fca565b92915050565b600060208284031215612a8857612a87611f50565b5b6000612a9684828501612a5d565b91505092915050565b7f4e487b7100000000000000000000000000000000000000000000000000000000600052601160045260246000fd5b6000612ad982611f12565b9150612ae483611f12565b925082821015612af757612af6612a9f565b5b828203905092915050565b600081905092915050565b50565b6000612b1d600083612b02565b9150612b2882612b0d565b600082019050919050565b6000612b3e82612b10565b9150819050919050565b600082825260208201905092915050565b7f5472616e73666572206661696c65642e00000000000000000000000000000000600082015250565b6000612b8f601083612b48565b9150612b9a82612b59565b602082019050919050565b60006020820190508181036000830152612bbe81612b82565b9050919050565b600081519050919050565b60005b83811015612bee578082015181840152602081019050612bd3565b83811115612bfd576000848401525b50505050565b6000612c0e82612bc5565b612c1881856129d1565b9350612c28818560208601612bd0565b612c31816120d4565b840191505092915050565b60006040820190508181036000830152612c568185612c03565b9050612c656020830184611f1c565b9392505050565b6000819050919050565b6000612c91612c8c612c8784612c6c565b612963565b611f12565b9050919050565b612ca181612c76565b82525050565b6000604082019050612cbc60008301856129c2565b612cc96020830184612c98565b9392505050565b612cd9816122c5565b8114612ce457600080fd5b50565b600081519050612cf681612cd0565b92915050565b600060208284031215612d1257612d11611f50565b5b6000612d2084828501612ce7565b91505092915050565b6000612d3482611f12565b9150612d3f83611f12565b9250817fffffffffffffffffffffffffffffffffffffffffffffffffffffffffffffffff0483118215151615612d7857612d77612a9f565b5b828202905092915050565b7f4e487b7100000000000000000000000000000000000000000000000000000000600052601260045260246000fd5b6000612dbd82611f12565b9150612dc883611f12565b925082612dd857612dd7612d83565b5b828204905092915050565b7f4e487b7100000000000000000000000000000000000000000000000000000000600052603260045260246000fd5b6000606082019050612e2760008301866129c2565b612e3460208301856129c2565b612e416040830184611f1c565b949350505050565b6000612e5482611f12565b91507fffffffffffffffffffffffffffffffffffffffffffffffffffffffffffffffff821415612e8757612e86612a9f565b5b600182019050919050565b6000604082019050612ea760008301856129c2565b612eb46020830184611f1c565b9392505050565b6000602082019050612ed060008301846129c2565b92915050565b7f73776170206572726f7200000000000000000000000000000000000000000000600082015250565b6000612f0c600a83612b48565b9150612f1782612ed6565b602082019050919050565b60006020820190508181036000830152612f3b81612eff565b9050919050565b600081519050612f518161226c565b92915050565b600060208284031215612f6d57612f6c611f50565b5b6000612f7b84828501612f42565b91505092915050565b612f8d81611f7a565b82525050565b600062ffffff82169050919050565b612fab81612f93565b82525050565b612fba81611f12565b82525050565b612fc981611f5a565b82525050565b61010082016000820151612fe66000850182612f84565b506020820151612ff96020850182612f84565b50604082015161300c6040850182612fa2565b50606082015161301f6060850182612f84565b5060808201516130326080850182612fb1565b5060a082015161304560a0850182612fb1565b5060c082015161305860c0850182612fb1565b5060e082015161306b60e0850182612fc0565b50505050565b6000610100820190506130876000830184612fcf565b92915050565b600061309882611f12565b91506130a383611f12565b9250827fffffffffffffffffffffffffffffffffffffffffffffffffffffffffffffffff038211156130d8576130d7612a9f565b5b828201905092915050565b7f446174612077697468206675747572652074696d657374616d7073206973206e60008201527f6f7420616c6c6f77656400000000000000000000000000000000000000000000602082015250565b600061313f602a83612b48565b915061314a826130e3565b604082019050919050565b6000602082019050818103600083015261316e81613132565b9050919050565b600082825260208201905092915050565b600061319182612bc5565b61319b8185613175565b93506131ab818560208601612bd0565b6131b4816120d4565b840191505092915050565b600060a08301600083015184820360008601526131dc8282613186565b91505060208301516131f16020860182612f84565b5060408301516132046040860182612fb1565b5060608301516132176060860182612fb1565b50608083015161322a6080860182612fb1565b508091505092915050565b6000602082019050818103600083015261324f81846131bf565b905092915050565b61326081612f93565b82525050565b6000819050919050565b600061328b61328661328184613266565b612963565b611f5a565b9050919050565b61329b81613270565b82525050565b600060a0820190506132b660008301886129c2565b6132c360208301876129c2565b6132d06040830186613257565b6132dd6060830185611f1c565b6132ea6080830184613292565b9695505050505050565b600061ffff82169050919050565b600061330d826132f4565b9150613318836132f4565b92508161ffff048311821515161561333357613332612a9f565b5b828202905092915050565b6000613349826132f4565b9150613354836132f4565b92508261ffff0382111561336b5761336a612a9f565b5b828201905092915050565b600081905092915050565b7f19457468657265756d205369676e6564204d6573736167653a0a333200000000600082015250565b60006133b7601c83613376565b91506133c282613381565b601c82019050919050565b6000819050919050565b6000819050919050565b6133f26133ed826133cd565b6133d7565b82525050565b6000613403826133aa565b915061340f82846133e1565b60208201915081905092915050565b7f5369676e6572206e6f7420617574686f72697a65640000000000000000000000600082015250565b6000613454601583612b48565b915061345f8261341e565b602082019050919050565b6000602082019050818103600083015261348381613447565b9050919050565b7f446174612074696d657374616d7020697320696e76616c696400000000000000600082015250565b60006134c0601983612b48565b91506134cb8261348a565b602082019050919050565b600060208201905081810360008301526134ef816134b3565b9050919050565b7f4e487b7100000000000000000000000000000000000000000000000000000000600052602160045260246000fd5b7f45434453413a20696e76616c6964207369676e61747572650000000000000000600082015250565b600061355b601883612b48565b915061356682613525565b602082019050919050565b6000602082019050818103600083015261358a8161354e565b9050919050565b7f45434453413a20696e76616c6964207369676e6174757265206c656e67746800600082015250565b60006135c7601f83612b48565b91506135d282613591565b602082019050919050565b600060208201905081810360008301526135f6816135ba565b9050919050565b7f45434453413a20696e76616c6964207369676e6174757265202773272076616c60008201527f7565000000000000000000000000000000000000000000000000000000000000602082015250565b6000613659602283612b48565b9150613664826135fd565b604082019050919050565b600060208201905081810360008301526136888161364c565b9050919050565b7f45434453413a20696e76616c6964207369676e6174757265202776272076616c60008201527f7565000000000000000000000000000000000000000000000000000000000000602082015250565b60006136eb602283612b48565b91506136f68261368f565b604082019050919050565b6000602082019050818103600083015261371a816136de565b9050919050565b61372a816133cd565b82525050565b600060ff82169050919050565b61374681613730565b82525050565b60006080820190506137616000830187613721565b61376e602083018661373d565b61377b6040830185613721565b6137886060830184613721565b9594505050505056fea2646970667358221220866005f4417b18d21f59992eeda1b0c815400a2d2cce1703e152223a9df9594364736f6c634300080c0033",
  "devdoc": {
    "kind": "dev",
    "methods": {
      "approveERC20(address)": {
        "details": "This function needs to be called before using the PaymentHub the first time with a new ERC20 token.",
        "params": {
          "erc20In": "The erc20 addresse to approve."
        }
      },
      "getPriceInEther(uint256,address)": {
        "returns": {
          "_0": "The price in wei."
        }
      },
      "payFromERC20(uint256,uint256,address,bytes,address)": {
        "details": "The calling address must approve this contract to spend its ERC20 for this function to succeed. As the amount of input ERC20 is variable, the calling address will need to approve for a slightly higher or infinit amount, anticipating some variance.",
        "params": {
          "amountInMaximum": "The maximum amount of ERC20 willing to be swapped for the specified amountOut of baseCurrency.",
          "amountOut": "The desired amount of baseCurrency.",
          "erc20In": "The address of the erc20 token to pay with.",
          "path": "The encoded path of the swap from erc20 to base.",
          "recipient": "The reciving address - brokerbot."
        },
        "returns": {
          "amountIn": "The amountIn of ERC20 actually spent to receive the desired amountOut."
        }
      }
    },
    "version": 1
  },
  "userdoc": {
    "kind": "user",
    "methods": {
      "approveERC20(address)": {
        "notice": "This function appoves infinite allowance for Uniswap, this is safe as the paymenthub should never hold any token (see also recover() )."
      },
      "getLatestPriceCHFUSD()": {
        "notice": "Returns the latest price of chf/usd pair from redstoneainlink with 8 decimals"
      },
      "getLatestPriceETHUSD()": {
        "notice": "Returns the latest price of eth/usd pair from chainlink with 8 decimals"
      },
      "getPriceInEther(uint256,address)": {
        "notice": "Get price in Ether depding on brokerbot setting. If keep ETH is set price is from oracle. This is the method that the Brokerbot widget should use to quote the price to the user."
      },
      "getPriceInEtherFromOracle(uint256,address)": {
        "notice": "Price in ETH with 18 decimals"
      },
      "hasSettingKeepEther(address)": {
        "notice": "Checks if the recipient(brokerbot) has setting enabled to keep ether"
      },
      "multiPayAndNotify(address,address[],uint256[],bytes)": {
        "notice": "Can (at least in theory) save some gas as the sender balance only is touched in one transaction."
      },
      "payFromEther(address,uint256,address)": {
        "notice": "Convenience method to swap ether into base and pay a target address"
      },
      "recover(address,address,uint256)": {
        "notice": "In case tokens have been accidentally sent directly to this contract. Make sure to be fast as anyone can call this!"
      }
    },
    "notice": "A hub for payments. This allows tokens that do not support ERC 677 to enjoy similar functionality, namely interacting with a token-handling smart contract in one transaction, without having to set an allowance first. Instead, an allowance needs to be set only once, namely for this contract. Further, it supports automatic conversion from Ether to the payment currency through Uniswap or the reception of Ether using the current exchange rate as found in the chainlink oracle.",
    "version": 1
  },
  "storageLayout": {
    "storage": [],
    "types": null
  }
}