{
    "contractName": "ERC20Basic",
    "abi": [
        {
            "inputs": [
                {
                    "internalType": "address",
                    "name": "_admin",
                    "type": "address"
                },
                {
                    "internalType": "string",
                    "name": "_name",
                    "type": "string"
                },
                {
                    "internalType": "string",
                    "name": "_symbol",
                    "type": "string"
                },
                {
                    "internalType": "uint8",
                    "name": "_decimals",
                    "type": "uint8"
                }
            ],
            "stateMutability": "nonpayable",
            "type": "constructor"
        },
        {
            "anonymous": false,
            "inputs": [
                {
                    "indexed": true,
                    "internalType": "address",
                    "name": "owner",
                    "type": "address"
                },
                {
                    "indexed": true,
                    "internalType": "address",
                    "name": "spender",
                    "type": "address"
                },
                {
                    "indexed": false,
                    "internalType": "uint256",
                    "name": "value",
                    "type": "uint256"
                }
            ],
            "name": "Approval",
            "type": "event"
        },
        {
            "anonymous": false,
            "inputs": [
                {
                    "indexed": false,
                    "internalType": "string",
                    "name": "name",
                    "type": "string"
                },
                {
                    "indexed": false,
                    "internalType": "string",
                    "name": "symbol",
                    "type": "string"
                }
            ],
            "name": "NameChanged",
            "type": "event"
        },
        {
            "anonymous": false,
            "inputs": [
                {
                    "indexed": true,
                    "internalType": "address",
                    "name": "previousOwner",
                    "type": "address"
                },
                {
                    "indexed": true,
                    "internalType": "address",
                    "name": "newOwner",
                    "type": "address"
                }
            ],
            "name": "OwnershipTransferred",
            "type": "event"
        },
        {
            "anonymous": false,
            "inputs": [
                {
                    "indexed": true,
                    "internalType": "address",
                    "name": "from",
                    "type": "address"
                },
                {
                    "indexed": true,
                    "internalType": "address",
                    "name": "to",
                    "type": "address"
                },
                {
                    "indexed": false,
                    "internalType": "uint256",
                    "name": "value",
                    "type": "uint256"
                }
            ],
            "name": "Transfer",
            "type": "event"
        },
        {
            "inputs": [
                {
                    "internalType": "address",
                    "name": "owner",
                    "type": "address"
                },
                {
                    "internalType": "address",
                    "name": "spender",
                    "type": "address"
                }
            ],
            "name": "allowance",
            "outputs": [
                {
                    "internalType": "uint256",
                    "name": "",
                    "type": "uint256"
                }
            ],
            "stateMutability": "view",
            "type": "function"
        },
        {
            "inputs": [
                {
                    "internalType": "address",
                    "name": "spender",
                    "type": "address"
                },
                {
                    "internalType": "uint256",
                    "name": "value",
                    "type": "uint256"
                }
            ],
            "name": "approve",
            "outputs": [
                {
                    "internalType": "bool",
                    "name": "",
                    "type": "bool"
                }
            ],
            "stateMutability": "nonpayable",
            "type": "function"
        },
        {
            "inputs": [
                {
                    "internalType": "address",
                    "name": "account",
                    "type": "address"
                }
            ],
            "name": "balanceOf",
            "outputs": [
                {
                    "internalType": "uint256",
                    "name": "",
                    "type": "uint256"
                }
            ],
            "stateMutability": "view",
            "type": "function"
        },
        {
            "inputs": [],
            "name": "decimals",
            "outputs": [
                {
                    "internalType": "uint8",
                    "name": "",
                    "type": "uint8"
                }
            ],
            "stateMutability": "view",
            "type": "function"
        },
        {
            "inputs": [
                {
                    "internalType": "address",
                    "name": "account",
                    "type": "address"
                },
                {
                    "internalType": "uint8",
                    "name": "number",
                    "type": "uint8"
                }
            ],
            "name": "hasFlag",
            "outputs": [
                {
                    "internalType": "bool",
                    "name": "",
                    "type": "bool"
                }
            ],
            "stateMutability": "view",
            "type": "function"
        },
        {
            "inputs": [
                {
                    "internalType": "address",
                    "name": "target",
                    "type": "address"
                },
                {
                    "internalType": "uint256",
                    "name": "amount",
                    "type": "uint256"
                }
            ],
            "name": "mint",
            "outputs": [],
            "stateMutability": "nonpayable",
            "type": "function"
        },
        {
            "inputs": [],
            "name": "name",
            "outputs": [
                {
                    "internalType": "string",
                    "name": "",
                    "type": "string"
                }
            ],
            "stateMutability": "view",
            "type": "function"
        },
        {
            "inputs": [],
            "name": "owner",
            "outputs": [
                {
                    "internalType": "address",
                    "name": "",
                    "type": "address"
                }
            ],
            "stateMutability": "view",
            "type": "function"
        },
        {
            "inputs": [
                {
                    "internalType": "string",
                    "name": "_symbol",
                    "type": "string"
                },
                {
                    "internalType": "string",
                    "name": "_name",
                    "type": "string"
                }
            ],
            "name": "setName",
            "outputs": [],
            "stateMutability": "nonpayable",
            "type": "function"
        },
        {
            "inputs": [],
            "name": "symbol",
            "outputs": [
                {
                    "internalType": "string",
                    "name": "",
                    "type": "string"
                }
            ],
            "stateMutability": "view",
            "type": "function"
        },
        {
            "inputs": [],
            "name": "totalSupply",
            "outputs": [
                {
                    "internalType": "uint256",
                    "name": "",
                    "type": "uint256"
                }
            ],
            "stateMutability": "view",
            "type": "function"
        },
        {
            "inputs": [
                {
                    "internalType": "address",
                    "name": "recipient",
                    "type": "address"
                },
                {
                    "internalType": "uint256",
                    "name": "amount",
                    "type": "uint256"
                }
            ],
            "name": "transfer",
            "outputs": [
                {
                    "internalType": "bool",
                    "name": "",
                    "type": "bool"
                }
            ],
            "stateMutability": "nonpayable",
            "type": "function"
        },
        {
            "inputs": [
                {
                    "internalType": "address",
                    "name": "recipient",
                    "type": "address"
                },
                {
                    "internalType": "uint256",
                    "name": "amount",
                    "type": "uint256"
                },
                {
                    "internalType": "bytes",
                    "name": "data",
                    "type": "bytes"
                }
            ],
            "name": "transferAndCall",
            "outputs": [
                {
                    "internalType": "bool",
                    "name": "",
                    "type": "bool"
                }
            ],
            "stateMutability": "nonpayable",
            "type": "function"
        },
        {
            "inputs": [
                {
                    "internalType": "address",
                    "name": "sender",
                    "type": "address"
                },
                {
                    "internalType": "address",
                    "name": "recipient",
                    "type": "address"
                },
                {
                    "internalType": "uint256",
                    "name": "amount",
                    "type": "uint256"
                }
            ],
            "name": "transferFrom",
            "outputs": [
                {
                    "internalType": "bool",
                    "name": "",
                    "type": "bool"
                }
            ],
            "stateMutability": "nonpayable",
            "type": "function"
        },
        {
            "inputs": [
                {
                    "internalType": "address",
                    "name": "newOwner",
                    "type": "address"
                }
            ],
            "name": "transferOwnership",
            "outputs": [],
            "stateMutability": "nonpayable",
            "type": "function"
        }
    ],
    "bytecode": "60806040523480156200001157600080fd5b50604051620011b7380380620011b78339810160408190526200003491620002e5565b6003805460ff191660ff831617905583838383836001600160a01b038116620000895760405162461bcd60e51b815260206004820152600360248201526203078360ec1b604482015260640160405180910390fd5b60038054610100600160a81b0319166101006001600160a01b0384811682029290921792839055604051920416906000907f8be0079c531659141344cd1fd0a4f28419497f9722a3daafe3b4186f6b6457e0908290a350620000ec8284620000fa565b505050505050505062000426565b81516200010f90600590602085019062000165565b5080516200012590600490602084019062000165565b507f6c20b91d1723b78732eba64ff11ebd7966a6e4af568a00fa4f6b72c20f58b02a818360405162000159929190620003b7565b60405180910390a15050565b8280546200017390620003e9565b90600052602060002090601f016020900481019282620001975760008555620001e2565b82601f10620001b257805160ff1916838001178555620001e2565b82800160010185558215620001e2579182015b82811115620001e2578251825591602001919060010190620001c5565b50620001f0929150620001f4565b5090565b5b80821115620001f05760008155600101620001f5565b634e487b7160e01b600052604160045260246000fd5b60005b838110156200023e57818101518382015260200162000224565b838111156200024e576000848401525b50505050565b600082601f8301126200026657600080fd5b81516001600160401b03808211156200028357620002836200020b565b604051601f8301601f19908116603f01168101908282118183101715620002ae57620002ae6200020b565b81604052838152866020858801011115620002c857600080fd5b620002db84602083016020890162000221565b9695505050505050565b60008060008060808587031215620002fc57600080fd5b84516001600160a01b03811681146200031457600080fd5b60208601519094506001600160401b03808211156200033257600080fd5b620003408883890162000254565b945060408701519150808211156200035757600080fd5b50620003668782880162000254565b925050606085015160ff811681146200037e57600080fd5b939692955090935050565b60008151808452620003a381602086016020860162000221565b601f01601f19169290920160200192915050565b604081526000620003cc604083018562000389565b8281036020840152620003e0818562000389565b95945050505050565b600181811c90821680620003fe57607f821691505b602082108114156200042057634e487b7160e01b600052602260045260246000fd5b50919050565b610d8180620004366000396000f3fe608060405234801561001057600080fd5b50600436106100f55760003560e01c80635c707f0711610097578063a9059cbb11610066578063a9059cbb14610224578063dd62ed3e14610237578063f2fde38b14610270578063f5c0b95f1461028357600080fd5b80635c707f07146101a757806370a08231146101ba5780638da5cb5b146101ec57806395d89b411461021c57600080fd5b806323b872dd116100d357806323b872dd1461014d578063313ce567146101605780634000aea01461017f57806340c10f191461019257600080fd5b806306fdde03146100fa578063095ea7b31461011857806318160ddd1461013b575b600080fd5b610102610296565b60405161010f9190610946565b60405180910390f35b61012b610126366004610975565b610324565b604051901515815260200161010f565b6002545b60405190815260200161010f565b61012b61015b36600461099f565b61033a565b60035461016d9060ff1681565b60405160ff909116815260200161010f565b61012b61018d3660046109db565b610396565b6101a56101a0366004610975565b61042c565b005b6101a56101b5366004610b05565b610472565b61013f6101c8366004610b69565b6001600160a01b03166000908152602081905260409020546001600160e01b031690565b6003546102049061010090046001600160a01b031681565b6040516001600160a01b03909116815260200161010f565b6101026104ab565b61012b610232366004610975565b6104b8565b61013f610245366004610b84565b6001600160a01b03918216600090815260016020908152604080832093909416825291909152205490565b6101a561027e366004610b69565b6104c5565b61012b610291366004610bb7565b61058c565b600480546102a390610bf4565b80601f01602080910402602001604051908101604052809291908181526020018280546102cf90610bf4565b801561031c5780601f106102f15761010080835404028352916020019161031c565b820191906000526020600020905b8154815290600101906020018083116102ff57829003601f168201915b505050505081565b600061033133848461059f565b50600192915050565b6000610347848484610601565b6001600160a01b0384166000908152600160209081526040808320338452909152902054600160ff1b81101561038b5761038b85336103868685610c45565b61059f565b506001949350505050565b6000806103a386866104b8565b9050801561042357604051635260769b60e11b81526001600160a01b0387169063a4c0ed36906103dd903390899089908990600401610c5c565b6020604051808303816000875af11580156103fc573d6000803e3d6000fd5b505050506040513d601f19601f820116820180604052508101906104209190610ca4565b90505b95945050505050565b60035461010090046001600160a01b031633146104645760405162461bcd60e51b815260040161045b90610cc6565b60405180910390fd5b61046e828261067e565b5050565b60035461010090046001600160a01b031633146104a15760405162461bcd60e51b815260040161045b90610cc6565b61046e82826106e5565b600580546102a390610bf4565b6000610331338484610601565b60035461010090046001600160a01b031633146104f45760405162461bcd60e51b815260040161045b90610cc6565b6001600160a01b0381166105305760405162461bcd60e51b815260206004820152600360248201526203078360ec1b604482015260640161045b565b60038054610100600160a81b0319166101006001600160a01b03848116828102939093179384905560405192939190910416907f8be0079c531659141344cd1fd0a4f28419497f9722a3daafe3b4186f6b6457e090600090a350565b6000610598838361074a565b9392505050565b6001600160a01b0383811660008181526001602090815260408083209487168084529482529182902085905590518481527f8c5be1e5ebec7d5bd14f71427d1e84f3dd0314c0f7b2291e5b200ac8c7c3b92591015b60405180910390a3505050565b6001600160a01b03831660009081526020819052604081208054839290610629908490610c45565b909155506106399050828261078a565b816001600160a01b0316836001600160a01b03167fddf252ad1be2c89b69c2b068fc378daa952ba7f163c4a11628f55a4df523b3ef836040516105f491815260200190565b80600260008282546106909190610ce9565b909155506106a09050828261078a565b6040518181526001600160a01b038316906000907fddf252ad1be2c89b69c2b068fc378daa952ba7f163c4a11628f55a4df523b3ef9060200160405180910390a35050565b81516106f8906005906020850190610860565b50805161070c906004906020840190610860565b507f6c20b91d1723b78732eba64ff11ebd7966a6e4af568a00fa4f6b72c20f58b02a818360405161073e929190610d01565b60405180910390a15050565b6000806107588360e0610d26565b6001600160a01b038516600090815260208190526040902054600160ff929092169190911b9081161491505092915050565b6001600160a01b0382166107c65760405162461bcd60e51b815260206004820152600360248201526203078360ec1b604482015260640161045b565b6001600160a01b038216600090815260208190526040812054906001600160e01b03198216906107f68484610ce9565b90506001600160e01b0319811682811461083d5760405162461bcd60e51b81526020600482015260086024820152676f766572666c6f7760c01b604482015260640161045b565b506001600160a01b03909416600090815260208190526040902093909355505050565b82805461086c90610bf4565b90600052602060002090601f01602090048101928261088e57600085556108d4565b82601f106108a757805160ff19168380011785556108d4565b828001600101855582156108d4579182015b828111156108d45782518255916020019190600101906108b9565b506108e09291506108e4565b5090565b5b808211156108e057600081556001016108e5565b6000815180845260005b8181101561091f57602081850181015186830182015201610903565b81811115610931576000602083870101525b50601f01601f19169290920160200192915050565b60208152600061059860208301846108f9565b80356001600160a01b038116811461097057600080fd5b919050565b6000806040838503121561098857600080fd5b61099183610959565b946020939093013593505050565b6000806000606084860312156109b457600080fd5b6109bd84610959565b92506109cb60208501610959565b9150604084013590509250925092565b600080600080606085870312156109f157600080fd5b6109fa85610959565b935060208501359250604085013567ffffffffffffffff80821115610a1e57600080fd5b818701915087601f830112610a3257600080fd5b813581811115610a4157600080fd5b886020828501011115610a5357600080fd5b95989497505060200194505050565b634e487b7160e01b600052604160045260246000fd5b600082601f830112610a8957600080fd5b813567ffffffffffffffff80821115610aa457610aa4610a62565b604051601f8301601f19908116603f01168101908282118183101715610acc57610acc610a62565b81604052838152866020858801011115610ae557600080fd5b836020870160208301376000602085830101528094505050505092915050565b60008060408385031215610b1857600080fd5b823567ffffffffffffffff80821115610b3057600080fd5b610b3c86838701610a78565b93506020850135915080821115610b5257600080fd5b50610b5f85828601610a78565b9150509250929050565b600060208284031215610b7b57600080fd5b61059882610959565b60008060408385031215610b9757600080fd5b610ba083610959565b9150610bae60208401610959565b90509250929050565b60008060408385031215610bca57600080fd5b610bd383610959565b9150602083013560ff81168114610be957600080fd5b809150509250929050565b600181811c90821680610c0857607f821691505b60208210811415610c2957634e487b7160e01b600052602260045260246000fd5b50919050565b634e487b7160e01b600052601160045260246000fd5b600082821015610c5757610c57610c2f565b500390565b6001600160a01b0385168152602081018490526060604082018190528101829052818360808301376000818301608090810191909152601f909201601f191601019392505050565b600060208284031215610cb657600080fd5b8151801515811461059857600080fd5b6020808252600990820152683737ba1037bbb732b960b91b604082015260600190565b60008219821115610cfc57610cfc610c2f565b500190565b604081526000610d1460408301856108f9565b828103602084015261042381856108f9565b600060ff821660ff84168060ff03821115610d4357610d43610c2f565b01939250505056fea264697066735822122077c26ae16a3c1739027b2a12b04ffc77450dac9a51bbc5e5e3f6993d9dc6d51f64736f6c634300080b0033",
    "sourcePath": "c:/Users/luziu/Documents/GitHub/contracts/src/ERC20/ERC20Basic.sol",
    "compiler": {
        "name": "solc",
        "version": "0.8.11+commit.d7f03943"
    },
    "functionHashes": {
        "allowance(address,address)": "dd62ed3e",
        "approve(address,uint256)": "095ea7b3",
        "balanceOf(address)": "70a08231",
        "decimals()": "313ce567",
        "hasFlag(address,uint8)": "f5c0b95f",
        "mint(address,uint256)": "40c10f19",
        "name()": "06fdde03",
        "owner()": "8da5cb5b",
        "setName(string,string)": "5c707f07",
        "symbol()": "95d89b41",
        "totalSupply()": "18160ddd",
        "transfer(address,uint256)": "a9059cbb",
        "transferAndCall(address,uint256,bytes)": "4000aea0",
        "transferFrom(address,address,uint256)": "23b872dd",
        "transferOwnership(address)": "f2fde38b"
    },
    "gasEstimates": {
        "creation": {
            "codeDepositCost": "691400",
            "executionCost": "infinite",
            "totalCost": "infinite"
        },
        "external": {
            "allowance(address,address)": "infinite",
            "approve(address,uint256)": "24573",
            "balanceOf(address)": "2603",
            "decimals()": "2358",
            "hasFlag(address,uint8)": "2914",
            "mint(address,uint256)": "infinite",
            "name()": "infinite",
            "owner()": "2415",
            "setName(string,string)": "infinite",
            "symbol()": "infinite",
            "totalSupply()": "2349",
            "transfer(address,uint256)": "51333",
            "transferAndCall(address,uint256,bytes)": "infinite",
            "transferFrom(address,address,uint256)": "infinite",
            "transferOwnership(address)": "28386"
        }
    }
}