{
  "address": "0x99D77d8FD7E78C3d4fCC85Dcca494B71ac42845E",
  "abi": [
    {
      "inputs": [
        {
          "internalType": "contract IERC20",
          "name": "_token",
          "type": "address"
        },
        {
          "internalType": "uint256",
          "name": "_price",
          "type": "uint256"
        },
        {
          "internalType": "uint256",
          "name": "_increment",
          "type": "uint256"
        },
        {
          "internalType": "contract IERC20",
          "name": "_base",
          "type": "address"
        },
        {
          "internalType": "address",
          "name": "_owner",
          "type": "address"
        },
        {
          "internalType": "address",
          "name": "_paymentHub",
          "type": "address"
        }
      ],
      "stateMutability": "nonpayable",
      "type": "constructor"
    },
    {
      "anonymous": false,
      "inputs": [
        {
          "indexed": false,
          "internalType": "uint256",
          "name": "timeToDrift",
          "type": "uint256"
        },
        {
          "indexed": false,
          "internalType": "int256",
          "name": "driftIncrement",
          "type": "int256"
        }
      ],
      "name": "DriftSet",
      "type": "event"
    },
    {
      "anonymous": false,
      "inputs": [
        {
          "indexed": true,
          "internalType": "address",
          "name": "previousOwner",
          "type": "address"
        },
        {
          "indexed": true,
          "internalType": "address",
          "name": "newOwner",
          "type": "address"
        }
      ],
      "name": "OwnershipTransferred",
      "type": "event"
    },
    {
      "anonymous": false,
      "inputs": [
        {
          "indexed": true,
          "internalType": "address",
          "name": "paymentHub",
          "type": "address"
        }
      ],
      "name": "PaymentHubUpdate",
      "type": "event"
    },
    {
      "anonymous": false,
      "inputs": [
        {
          "indexed": false,
          "internalType": "uint256",
          "name": "price",
          "type": "uint256"
        },
        {
          "indexed": false,
          "internalType": "uint256",
          "name": "increment",
          "type": "uint256"
        }
      ],
      "name": "PriceSet",
      "type": "event"
    },
    {
      "anonymous": false,
      "inputs": [
        {
          "indexed": false,
          "internalType": "uint256",
          "name": "setting",
          "type": "uint256"
        }
      ],
      "name": "SettingsChange",
      "type": "event"
    },
    {
      "anonymous": false,
      "inputs": [
        {
          "indexed": true,
          "internalType": "contract IERC20",
          "name": "token",
          "type": "address"
        },
        {
          "indexed": false,
          "internalType": "address",
          "name": "who",
          "type": "address"
        },
        {
          "indexed": false,
          "internalType": "bytes",
          "name": "ref",
          "type": "bytes"
        },
        {
          "indexed": false,
          "internalType": "int256",
          "name": "amount",
          "type": "int256"
        },
        {
          "indexed": false,
          "internalType": "contract IERC20",
          "name": "base",
          "type": "address"
        },
        {
          "indexed": false,
          "internalType": "uint256",
          "name": "totPrice",
          "type": "uint256"
        },
        {
          "indexed": false,
          "internalType": "uint256",
          "name": "fee",
          "type": "uint256"
        },
        {
          "indexed": false,
          "internalType": "uint256",
          "name": "newprice",
          "type": "uint256"
        }
      ],
      "name": "Trade",
      "type": "event"
    },
    {
      "inputs": [],
      "name": "VERSION",
      "outputs": [
        {
          "internalType": "uint8",
          "name": "",
          "type": "uint8"
        }
      ],
      "stateMutability": "view",
      "type": "function"
    },
    {
      "inputs": [
        {
          "internalType": "address",
          "name": "erc20",
          "type": "address"
        },
        {
          "internalType": "address",
          "name": "who",
          "type": "address"
        },
        {
          "internalType": "uint256",
          "name": "amount",
          "type": "uint256"
        }
      ],
      "name": "approve",
      "outputs": [],
      "stateMutability": "nonpayable",
      "type": "function"
    },
    {
      "inputs": [],
      "name": "base",
      "outputs": [
        {
          "internalType": "contract IERC20",
          "name": "",
          "type": "address"
        }
      ],
      "stateMutability": "view",
      "type": "function"
    },
    {
      "inputs": [],
      "name": "driftIncrement",
      "outputs": [
        {
          "internalType": "int256",
          "name": "",
          "type": "int256"
        }
      ],
      "stateMutability": "view",
      "type": "function"
    },
    {
      "inputs": [],
      "name": "driftStart",
      "outputs": [
        {
          "internalType": "uint256",
          "name": "",
          "type": "uint256"
        }
      ],
      "stateMutability": "view",
      "type": "function"
    },
    {
      "inputs": [
        {
          "internalType": "uint256",
          "name": "shares",
          "type": "uint256"
        }
      ],
      "name": "getBuyPrice",
      "outputs": [
        {
          "internalType": "uint256",
          "name": "",
          "type": "uint256"
        }
      ],
      "stateMutability": "view",
      "type": "function"
    },
    {
      "inputs": [],
      "name": "getPrice",
      "outputs": [
        {
          "internalType": "uint256",
          "name": "",
          "type": "uint256"
        }
      ],
      "stateMutability": "view",
      "type": "function"
    },
    {
      "inputs": [
        {
          "internalType": "uint256",
          "name": "timestamp",
          "type": "uint256"
        }
      ],
      "name": "getPriceAtTime",
      "outputs": [
        {
          "internalType": "uint256",
          "name": "",
          "type": "uint256"
        }
      ],
      "stateMutability": "view",
      "type": "function"
    },
    {
      "inputs": [
        {
          "internalType": "uint256",
          "name": "shares",
          "type": "uint256"
        }
      ],
      "name": "getSellPrice",
      "outputs": [
        {
          "internalType": "uint256",
          "name": "",
          "type": "uint256"
        }
      ],
      "stateMutability": "view",
      "type": "function"
    },
    {
      "inputs": [
        {
          "internalType": "uint256",
          "name": "money",
          "type": "uint256"
        }
      ],
      "name": "getShares",
      "outputs": [
        {
          "internalType": "uint256",
          "name": "",
          "type": "uint256"
        }
      ],
      "stateMutability": "view",
      "type": "function"
    },
    {
      "inputs": [],
      "name": "hasDrift",
      "outputs": [
        {
          "internalType": "bool",
          "name": "",
          "type": "bool"
        }
      ],
      "stateMutability": "view",
      "type": "function"
    },
    {
      "inputs": [],
      "name": "increment",
      "outputs": [
        {
          "internalType": "uint256",
          "name": "",
          "type": "uint256"
        }
      ],
      "stateMutability": "view",
      "type": "function"
    },
    {
      "inputs": [
        {
          "internalType": "address",
          "name": "buyer",
          "type": "address"
        },
        {
          "internalType": "uint256",
          "name": "shares",
          "type": "uint256"
        },
        {
          "internalType": "bytes",
          "name": "ref",
          "type": "bytes"
        }
      ],
      "name": "notifyTrade",
      "outputs": [],
      "stateMutability": "nonpayable",
      "type": "function"
    },
    {
      "inputs": [
        {
          "internalType": "address",
          "name": "buyer",
          "type": "address"
        },
        {
          "internalType": "uint256",
          "name": "shares",
          "type": "uint256"
        },
        {
          "internalType": "bytes",
          "name": "ref",
          "type": "bytes"
        }
      ],
      "name": "notifyTradeAndTransfer",
      "outputs": [],
      "stateMutability": "nonpayable",
      "type": "function"
    },
    {
      "inputs": [
        {
          "internalType": "address[]",
          "name": "buyers",
          "type": "address[]"
        },
        {
          "internalType": "uint256[]",
          "name": "shares",
          "type": "uint256[]"
        },
        {
          "internalType": "bytes[]",
          "name": "ref",
          "type": "bytes[]"
        }
      ],
      "name": "notifyTrades",
      "outputs": [],
      "stateMutability": "nonpayable",
      "type": "function"
    },
    {
      "inputs": [
        {
          "internalType": "address[]",
          "name": "buyers",
          "type": "address[]"
        },
        {
          "internalType": "uint256[]",
          "name": "shares",
          "type": "uint256[]"
        },
        {
          "internalType": "bytes[]",
          "name": "ref",
          "type": "bytes[]"
        }
      ],
      "name": "notifyTradesAndTransfer",
      "outputs": [],
      "stateMutability": "nonpayable",
      "type": "function"
    },
    {
      "inputs": [
        {
          "internalType": "address",
          "name": "from",
          "type": "address"
        },
        {
          "internalType": "uint256",
          "name": "amount",
          "type": "uint256"
        },
        {
          "internalType": "bytes",
          "name": "ref",
          "type": "bytes"
        }
      ],
      "name": "onTokenTransfer",
      "outputs": [
        {
          "internalType": "bool",
          "name": "",
          "type": "bool"
        }
      ],
      "stateMutability": "nonpayable",
      "type": "function"
    },
    {
      "inputs": [],
      "name": "owner",
      "outputs": [
        {
          "internalType": "address",
          "name": "",
          "type": "address"
        }
      ],
      "stateMutability": "view",
      "type": "function"
    },
    {
      "inputs": [],
      "name": "paymenthub",
      "outputs": [
        {
          "internalType": "address",
          "name": "",
          "type": "address"
        }
      ],
      "stateMutability": "view",
      "type": "function"
    },
    {
      "inputs": [
        {
          "internalType": "contract IERC20",
          "name": "incomingAsset",
          "type": "address"
        },
        {
          "internalType": "address",
          "name": "from",
          "type": "address"
        },
        {
          "internalType": "uint256",
          "name": "amount",
          "type": "uint256"
        },
        {
          "internalType": "bytes",
          "name": "ref",
          "type": "bytes"
        }
      ],
      "name": "processIncoming",
      "outputs": [
        {
          "internalType": "uint256",
          "name": "",
          "type": "uint256"
        }
      ],
      "stateMutability": "payable",
      "type": "function"
    },
    {
      "inputs": [
        {
          "internalType": "uint256",
          "name": "secondsPerStep",
          "type": "uint256"
        },
        {
          "internalType": "int256",
          "name": "_driftIncrement",
          "type": "int256"
        }
      ],
      "name": "setDrift",
      "outputs": [],
      "stateMutability": "nonpayable",
      "type": "function"
    },
    {
      "inputs": [
        {
          "internalType": "bool",
          "name": "_buyingEnabled",
          "type": "bool"
        },
        {
          "internalType": "bool",
          "name": "_sellingEnabled",
          "type": "bool"
        }
      ],
      "name": "setEnabled",
      "outputs": [],
      "stateMutability": "nonpayable",
      "type": "function"
    },
    {
      "inputs": [
        {
          "internalType": "address",
          "name": "hub",
          "type": "address"
        }
      ],
      "name": "setPaymentHub",
      "outputs": [],
      "stateMutability": "nonpayable",
      "type": "function"
    },
    {
      "inputs": [
        {
          "internalType": "uint256",
          "name": "_price",
          "type": "uint256"
        },
        {
          "internalType": "uint256",
          "name": "_increment",
          "type": "uint256"
        }
      ],
      "name": "setPrice",
      "outputs": [],
      "stateMutability": "nonpayable",
      "type": "function"
    },
    {
      "inputs": [
        {
          "internalType": "uint256",
          "name": "_settings",
          "type": "uint256"
        }
      ],
      "name": "setSettings",
      "outputs": [],
      "stateMutability": "nonpayable",
      "type": "function"
    },
    {
      "inputs": [],
      "name": "settings",
      "outputs": [
        {
          "internalType": "uint256",
          "name": "",
          "type": "uint256"
        }
      ],
      "stateMutability": "view",
      "type": "function"
    },
    {
      "inputs": [],
      "name": "timeToDrift",
      "outputs": [
        {
          "internalType": "uint256",
          "name": "",
          "type": "uint256"
        }
      ],
      "stateMutability": "view",
      "type": "function"
    },
    {
      "inputs": [],
      "name": "token",
      "outputs": [
        {
          "internalType": "contract IERC20",
          "name": "",
          "type": "address"
        }
      ],
      "stateMutability": "view",
      "type": "function"
    },
    {
      "inputs": [
        {
          "internalType": "address",
          "name": "newOwner",
          "type": "address"
        }
      ],
      "name": "transferOwnership",
      "outputs": [],
      "stateMutability": "nonpayable",
      "type": "function"
    },
    {
      "inputs": [
        {
          "internalType": "address",
          "name": "ercAddress",
          "type": "address"
        },
        {
          "internalType": "address",
          "name": "to",
          "type": "address"
        },
        {
          "internalType": "uint256",
          "name": "amount",
          "type": "uint256"
        }
      ],
      "name": "withdraw",
      "outputs": [],
      "stateMutability": "nonpayable",
      "type": "function"
    },
    {
      "inputs": [
        {
          "internalType": "uint256",
          "name": "amount",
          "type": "uint256"
        }
      ],
      "name": "withdrawEther",
      "outputs": [],
      "stateMutability": "nonpayable",
      "type": "function"
    }
  ],
  "transactionHash": "0xf821f65804483be3f29b1c96b8d229ad29f07423b6549c5f22f4cb674db1e169",
  "args": [
    "0x553C7f9C780316FC1D34b8e14ac2465Ab22a090B",
    "1150000000000000000",
    "0",
    "0xB4272071eCAdd69d933AdcD19cA99fe80664fc08",
    "0x3789B2436cF939AE4060127180dAf5aBa11174FE",
    "0xfb330379134EA1EfCE9Cf6F28E2CcB917899e007"
  ],
  "numDeployments": 1,
  "solcInputHash": "5770503049d638b83d185bcb77259292",
  "bytecode": "0x60c060405260036007553480156200001657600080fd5b5060405162001d1038038062001d108339810160408190526200003991620000cf565b600080546001600160a01b0319166001600160a01b03841690811782556040518492907f8be0079c531659141344cd1fd0a4f28419497f9722a3daafe3b4186f6b6457e0908290a350606092831b6001600160601b03199081166080529590921b90941660a052600292909255600355600180546001600160a01b0319166001600160a01b039092169190911790555062000165565b60008060008060008060c08789031215620000e957600080fd5b8651620000f6816200014c565b809650506020870151945060408701519350606087015162000118816200014c565b60808801519093506200012b816200014c565b60a08801519092506200013e816200014c565b809150509295509295509295565b6001600160a01b03811681146200016257600080fd5b50565b60805160601c60a05160601c611b39620001d760003960008181610549015281816107ad01528181610b600152818161117b0152818161136d015261142b015260008181610244015281816107fa0152818161109d015281816111ca0152818161129701526114720152611b396000f3fe6080604052600436106101d85760003560e01c8063a4c0ed3611610102578063e06174e411610095578063fc0c546a11610064578063fc0c546a14610537578063ffa1ad741461056b578063fff4da1f14610592578063fff89745146105b257600080fd5b8063e06174e4146104c1578063e1f21c67146104d7578063f2fde38b146104f7578063f7d975771461051757600080fd5b8063bf13d438116100d1578063bf13d43814610455578063c7780ab214610475578063d09de08a1461048b578063d9caed12146104a157600080fd5b8063a4c0ed36146103d5578063afaefe9e146103f5578063b03a13fe14610415578063ba730e531461043557600080fd5b80637cd6a7fd1161017a5780638da5cb5b116101495780638da5cb5b1461036057806391be6ad51461038057806398d5fdca146103a05780639bb8c0fd146103b557600080fd5b80637cd6a7fd146102f15780637ff6c1911461031157806384b41fda146103275780638a07d3d01461033d57600080fd5b80635c627935116101b65780635c6279351461027e57806369365c521461029e5780636f7267b7146102b1578063777adcf0146102d157600080fd5b806308d4db14146101dd5780633bed33ce146102105780635001f3b514610232575b600080fd5b3480156101e957600080fd5b506101fd6101f8366004611835565b6105d2565b6040519081526020015b60405180910390f35b34801561021c57600080fd5b5061023061022b366004611835565b6105eb565b005b34801561023e57600080fd5b506102667f000000000000000000000000000000000000000000000000000000000000000081565b6040516001600160a01b039091168152602001610207565b34801561028a57600080fd5b50610230610299366004611789565b6106e2565b6101fd6102ac3660046117c2565b61074b565b3480156102bd57600080fd5b506101fd6102cc366004611835565b61087f565b3480156102dd57600080fd5b50600154610266906001600160a01b031681565b3480156102fd57600080fd5b5061023061030c366004611835565b6108f9565b34801561031d57600080fd5b506101fd60045481565b34801561033357600080fd5b506101fd60055481565b34801561034957600080fd5b5060055415155b6040519015158152602001610207565b34801561036c57600080fd5b50600054610266906001600160a01b031681565b34801561038c57600080fd5b5061023061039b3660046116d2565b61095e565b3480156103ac57600080fd5b506101fd610a15565b3480156103c157600080fd5b506102306103d0366004611676565b610a25565b3480156103e157600080fd5b506103506103f0366004611676565b610a62565b34801561040157600080fd5b5061023061041036600461184e565b610a7d565b34801561042157600080fd5b50610230610430366004611676565b610b03565b34801561044157600080fd5b506101fd610450366004611835565b610bdc565b34801561046157600080fd5b506101fd610470366004611835565b610c01565b34801561048157600080fd5b506101fd60065481565b34801561049757600080fd5b506101fd60035481565b3480156104ad57600080fd5b506102306104bc366004611635565b610c7a565b3480156104cd57600080fd5b506101fd60075481565b3480156104e357600080fd5b506102306104f2366004611635565b610d66565b34801561050357600080fd5b50610230610512366004611611565b610dc5565b34801561052357600080fd5b5061023061053236600461184e565b610e4a565b34801561054357600080fd5b506102667f000000000000000000000000000000000000000000000000000000000000000081565b34801561057757600080fd5b50610580600481565b60405160ff9091168152602001610207565b34801561059e57600080fd5b506102306105ad366004611611565b610ebc565b3480156105be57600080fd5b506102306105cd3660046116d2565b610f30565b60006105e56105df610a15565b83610fe4565b92915050565b6000546001600160a01b031633148061060e57506001546001600160a01b031633145b6106535760405162461bcd60e51b81526020600482015260116024820152703737ba1037bbb732b9103737b910343ab160791b60448201526064015b60405180910390fd5b604051600090339083908381818185875af1925050503d8060008114610695576040519150601f19603f3d011682016040523d82523d6000602084013e61069a565b606091505b50509050806106de5760405162461bcd60e51b815260206004820152601060248201526f2a3930b739b332b9103330b4b632b21760811b604482015260640161064a565b5050565b6000546001600160a01b0316331461070c5760405162461bcd60e51b815260040161064a906118d9565b60075482151560018083161414610721576001185b61072f600260075481161490565b15158215151461073d576002185b610746816108f9565b505050565b6000336001600160a01b038716148061076e57506001546001600160a01b031633145b6107ab5760405162461bcd60e51b815260206004820152600e60248201526d34b73b30b634b21031b0b63632b960911b604482015260640161064a565b7f00000000000000000000000000000000000000000000000000000000000000006001600160a01b0316866001600160a01b031614156107f8576107f18585858561103b565b9050610876565b7f00000000000000000000000000000000000000000000000000000000000000006001600160a01b0316866001600160a01b0316141561083e576107f18585858561121a565b60405162461bcd60e51b815260206004820152600d60248201526c34b73b30b634b2103a37b5b2b760991b604482015260640161064a565b95945050505050565b60008061088a610a15565b9050600080610899838661199c565b90505b808210156108f157600060026108b28385611984565b6108bc919061199c565b905060006108ca8583610fe4565b9050808711156108e6576108df826001611984565b93506108ea565b8192505b505061089c565b509392505050565b6000546001600160a01b031633146109235760405162461bcd60e51b815260040161064a906118d9565b60078190556040518181527f73f575b434990a047744d035619e8cb101d71ae30e15cee70124fcfa992a4b479060200160405180910390a150565b6000546001600160a01b031633146109885760405162461bcd60e51b815260040161064a906118d9565b60005b85811015610a0c576109fa8787838181106109a8576109a8611ac7565b90506020020160208101906109bd9190611611565b8686848181106109cf576109cf611ac7565b905060200201358585858181106109e8576109e8611ac7565b905060200281019061043091906118fc565b80610a0481611a79565b91505061098b565b50505050505050565b6000610a2042610c01565b905090565b6000546001600160a01b03163314610a4f5760405162461bcd60e51b815260040161064a906118d9565b610a5b848484846113f5565b5050505050565b6000610a71338686868661074b565b50600195945050505050565b6000546001600160a01b03163314610aa75760405162461bcd60e51b815260040161064a906118d9565b610abb610ab2610a15565b60025542600455565b6005829055600681905560408051838152602081018390527f0c64990ff5fa601870b48aa83367706d39e6f55a0f73069c97c2f9c08241a17e91015b60405180910390a15050565b6000546001600160a01b03163314610b2d5760405162461bcd60e51b815260040161064a906118d9565b610b39848484846113f5565b5060405163a9059cbb60e01b81526001600160a01b038581166004830152602482018590527f0000000000000000000000000000000000000000000000000000000000000000169063a9059cbb90604401602060405180830381600087803b158015610ba457600080fd5b505af1158015610bb8573d6000803e3d6000fd5b505050506040513d601f19601f82011682018060405250810190610a5b919061176c565b60006105e560035483610bef9190611a43565b610bf7610a15565b6105df9190611a62565b6000610c0e600554151590565b15610c7257600060045483610c239190611a62565b9050600060065460055483610c38919061199c565b610c4291906119be565b9050600081600254610c549190611943565b90506000811215610c6a57506000949350505050565b949350505050565b505060025490565b6000546001600160a01b0316331480610c9d57506001546001600160a01b031633145b610cdd5760405162461bcd60e51b81526020600482015260116024820152703737ba1037bbb732b9103737b910343ab160791b604482015260640161064a565b60405163a9059cbb60e01b81526001600160a01b0383811660048301526024820183905284169063a9059cbb906044015b602060405180830381600087803b158015610d2857600080fd5b505af1158015610d3c573d6000803e3d6000fd5b505050506040513d601f19601f82011682018060405250810190610d60919061176c565b50505050565b6000546001600160a01b03163314610d905760405162461bcd60e51b815260040161064a906118d9565b60405163095ea7b360e01b81526001600160a01b0383811660048301526024820183905284169063095ea7b390604401610d0e565b6000546001600160a01b03163314610def5760405162461bcd60e51b815260040161064a906118d9565b600080546040516001600160a01b03808516939216917f8be0079c531659141344cd1fd0a4f28419497f9722a3daafe3b4186f6b6457e091a3600080546001600160a01b0319166001600160a01b0392909216919091179055565b6000546001600160a01b03163314610e745760405162461bcd60e51b815260040161064a906118d9565b610e818260025542600455565b600381905560408051838152602081018390527fa0f1665b7b659537b52deec61ea64d134a3bccda74c7f4e79f2246e7a8187a8a9101610af7565b6000546001600160a01b03163314610ee65760405162461bcd60e51b815260040161064a906118d9565b600180546001600160a01b0319166001600160a01b0383169081179091556040517f4a534dbb0a1201b9baddbb0018d195c269a25847c33b19c06d24309f20f84b3390600090a250565b6000546001600160a01b03163314610f5a5760405162461bcd60e51b815260040161064a906118d9565b60005b85811015610a0c57610fd1878783818110610f7a57610f7a611ac7565b9050602002016020810190610f8f9190611611565b868684818110610fa157610fa1611ac7565b90506020020135858585818110610fba57610fba611ac7565b9050602002810190610fcc91906118fc565b6113f5565b5080610fdc81611a79565b915050610f5d565b600081610ff3575060006105e5565b600354600090611004600185611a62565b61100e9190611a43565b6110189085611984565b90508260026110278387611984565b611031919061199c565b610c6a9190611a43565b600061104b600260075481161490565b61108a5760405162461bcd60e51b815260206004820152601060248201526f1cd95b1b1a5b99c8191a5cd8589b195960821b604482015260640161064a565b600061109585610bdc565b6003549091507f0000000000000000000000000000000000000000000000000000000000000000906110c79087611a43565b600260008282546110d89190611a62565b909155506110e8905085856114c1565b156111715760405163a9059cbb60e01b81526001600160a01b0388811660048301526024820184905282169063a9059cbb90604401602060405180830381600087803b15801561113757600080fd5b505af115801561114b573d6000803e3d6000fd5b505050506040513d601f19601f8201168201806040525081019061116f919061176c565b505b6001600160a01b037f0000000000000000000000000000000000000000000000000000000000000000167f424641a08047715d4b70195e1d90818d302683d9f65f41910ca13f5a486d37cc8887876111c88b611a94565b7f00000000000000000000000000000000000000000000000000000000000000008860006111f4610a15565b604051611208989796959493929190611870565b60405180910390a25095945050505050565b600061122a600160075481161490565b6112685760405162461bcd60e51b815260206004820152600f60248201526e189d5e5a5b99c8191a5cd8589b1959608a1b604482015260640161064a565b60006112738561087f565b90506000611283878387876113f5565b905085811015611347576001600160a01b037f00000000000000000000000000000000000000000000000000000000000000001663a9059cbb886112c7848a611a62565b6040516001600160e01b031960e085901b1681526001600160a01b0390921660048301526024820152604401602060405180830381600087803b15801561130d57600080fd5b505af1158015611321573d6000803e3d6000fd5b505050506040513d601f19601f82011682018060405250810190611345919061176c565b505b60405163a9059cbb60e01b81526001600160a01b038881166004830152602482018490527f0000000000000000000000000000000000000000000000000000000000000000169063a9059cbb90604401602060405180830381600087803b1580156113b157600080fd5b505af11580156113c5573d6000803e3d6000fd5b505050506040513d601f19601f820116820180604052508101906113e9919061176c565b50909695505050505050565b600080611401856105d2565b9050600354856114119190611a43565b60025461141e9190611984565b6002556001600160a01b037f0000000000000000000000000000000000000000000000000000000000000000167f424641a08047715d4b70195e1d90818d302683d9f65f41910ca13f5a486d37cc878686897f000000000000000000000000000000000000000000000000000000000000000087600061149c610a15565b6040516114b0989796959493929190611870565b60405180910390a295945050505050565b60008115806114d05750601482145b156114dd575060016105e5565b600160f81b83836000816114f3576114f3611ac7565b9050013560f81c60f81b6001600160f81b0319161415611515575060016105e5565b600160f91b838360008161152b5761152b611ac7565b9050013560f81c60f81b6001600160f81b031916141561154d575060006105e5565b60405162461bcd60e51b815260206004820152600b60248201526a3ab735b737bbb7103932b360a91b604482015260640161064a565b60008083601f84011261159557600080fd5b50813567ffffffffffffffff8111156115ad57600080fd5b6020830191508360208260051b85010111156115c857600080fd5b9250929050565b60008083601f8401126115e157600080fd5b50813567ffffffffffffffff8111156115f957600080fd5b6020830191508360208285010111156115c857600080fd5b60006020828403121561162357600080fd5b813561162e81611add565b9392505050565b60008060006060848603121561164a57600080fd5b833561165581611add565b9250602084013561166581611add565b929592945050506040919091013590565b6000806000806060858703121561168c57600080fd5b843561169781611add565b935060208501359250604085013567ffffffffffffffff8111156116ba57600080fd5b6116c6878288016115cf565b95989497509550505050565b600080600080600080606087890312156116eb57600080fd5b863567ffffffffffffffff8082111561170357600080fd5b61170f8a838b01611583565b9098509650602089013591508082111561172857600080fd5b6117348a838b01611583565b9096509450604089013591508082111561174d57600080fd5b5061175a89828a01611583565b979a9699509497509295939492505050565b60006020828403121561177e57600080fd5b815161162e81611af5565b6000806040838503121561179c57600080fd5b82356117a781611af5565b915060208301356117b781611af5565b809150509250929050565b6000806000806000608086880312156117da57600080fd5b85356117e581611add565b945060208601356117f581611add565b935060408601359250606086013567ffffffffffffffff81111561181857600080fd5b611824888289016115cf565b969995985093965092949392505050565b60006020828403121561184757600080fd5b5035919050565b6000806040838503121561186157600080fd5b50508035926020909101359150565b6001600160a01b03898116825260e0602083018190528201889052600090610100898b828601376000848b018201526040840198909852959095166060820152608081019390935260a083019190915260c0820152601f909301601f1916909201019392505050565b6020808252600990820152683737ba1037bbb732b960b91b604082015260600190565b6000808335601e1984360301811261191357600080fd5b83018035915067ffffffffffffffff82111561192e57600080fd5b6020019150368190038213156115c857600080fd5b600080821280156001600160ff1b038490038513161561196557611965611ab1565b600160ff1b839003841281161561197e5761197e611ab1565b50500190565b6000821982111561199757611997611ab1565b500190565b6000826119b957634e487b7160e01b600052601260045260246000fd5b500490565b60006001600160ff1b03818413828413808216868404861116156119e4576119e4611ab1565b600160ff1b6000871282811687830589121615611a0357611a03611ab1565b60008712925087820587128484161615611a1f57611a1f611ab1565b87850587128184161615611a3557611a35611ab1565b505050929093029392505050565b6000816000190483118215151615611a5d57611a5d611ab1565b500290565b600082821015611a7457611a74611ab1565b500390565b6000600019821415611a8d57611a8d611ab1565b5060010190565b6000600160ff1b821415611aaa57611aaa611ab1565b5060000390565b634e487b7160e01b600052601160045260246000fd5b634e487b7160e01b600052603260045260246000fd5b6001600160a01b0381168114611af257600080fd5b50565b8015158114611af257600080fdfea264697066735822122006d5c6c00b1c3d05855aa0620f0c9cd16318bd42138734e487e7314d4642865664736f6c63430008070033",
  "devdoc": {
    "kind": "dev",
    "methods": {
      "transferOwnership(address)": {
        "details": "Transfers ownership of the contract to a new account (`newOwner`). Can only be called by the current owner."
      }
    },
    "version": 1
  },
  "userdoc": {
    "kind": "user",
    "methods": {
      "processIncoming(address,address,uint256,bytes)": {
        "notice": "Payment hub might actually have sent another accepted token, including Ether."
      }
    },
    "version": 1
  },
  "storageLayout": {
    "storage": [
      {
        "astId": 8808,
        "contract": "src/brokerbot/Brokerbot.sol:Brokerbot",
        "label": "owner",
        "offset": 0,
        "slot": "0",
        "type": "t_address"
      },
      {
        "astId": 1402,
        "contract": "src/brokerbot/Brokerbot.sol:Brokerbot",
        "label": "paymenthub",
        "offset": 0,
        "slot": "1",
        "type": "t_address"
      },
      {
        "astId": 1411,
        "contract": "src/brokerbot/Brokerbot.sol:Brokerbot",
        "label": "price",
        "offset": 0,
        "slot": "2",
        "type": "t_uint256"
      },
      {
        "astId": 1413,
        "contract": "src/brokerbot/Brokerbot.sol:Brokerbot",
        "label": "increment",
        "offset": 0,
        "slot": "3",
        "type": "t_uint256"
      },
      {
        "astId": 1415,
        "contract": "src/brokerbot/Brokerbot.sol:Brokerbot",
        "label": "driftStart",
        "offset": 0,
        "slot": "4",
        "type": "t_uint256"
      },
      {
        "astId": 1417,
        "contract": "src/brokerbot/Brokerbot.sol:Brokerbot",
        "label": "timeToDrift",
        "offset": 0,
        "slot": "5",
        "type": "t_uint256"
      },
      {
        "astId": 1419,
        "contract": "src/brokerbot/Brokerbot.sol:Brokerbot",
        "label": "driftIncrement",
        "offset": 0,
        "slot": "6",
        "type": "t_int256"
      },
      {
        "astId": 1437,
        "contract": "src/brokerbot/Brokerbot.sol:Brokerbot",
        "label": "settings",
        "offset": 0,
        "slot": "7",
        "type": "t_uint256"
      }
    ],
    "types": {
      "t_address": {
        "encoding": "inplace",
        "label": "address",
        "numberOfBytes": "20"
      },
      "t_int256": {
        "encoding": "inplace",
        "label": "int256",
        "numberOfBytes": "32"
      },
      "t_uint256": {
        "encoding": "inplace",
        "label": "uint256",
        "numberOfBytes": "32"
      }
    }
  }
}