{
  "address": "0x48ce1476B47Bb4E2946839Ee624dEECC7DfEf16B",
  "abi": [
    {
      "inputs": [
        {
          "internalType": "string",
          "name": "_terms",
          "type": "string"
        },
        {
          "internalType": "contract IERC20",
          "name": "_wrappedToken",
          "type": "address"
        },
        {
          "internalType": "uint256",
          "name": "_quorum",
          "type": "uint256"
        },
        {
          "internalType": "uint256",
          "name": "_votePeriod",
          "type": "uint256"
        },
        {
          "internalType": "contract IRecoveryHub",
          "name": "_recoveryHub",
          "type": "address"
        },
        {
          "internalType": "contract IOfferFactory",
          "name": "_offerFactory",
          "type": "address"
        },
        {
          "internalType": "address",
          "name": "_oracle",
          "type": "address"
        },
        {
          "internalType": "address",
          "name": "_owner",
          "type": "address"
        }
      ],
      "stateMutability": "nonpayable",
      "type": "constructor"
    },
    {
      "anonymous": false,
      "inputs": [
        {
          "indexed": true,
          "internalType": "address",
          "name": "account",
          "type": "address"
        },
        {
          "indexed": false,
          "internalType": "uint8",
          "name": "addressType",
          "type": "uint8"
        }
      ],
      "name": "AddressTypeUpdate",
      "type": "event"
    },
    {
      "anonymous": false,
      "inputs": [
        {
          "indexed": true,
          "internalType": "address",
          "name": "owner",
          "type": "address"
        },
        {
          "indexed": true,
          "internalType": "address",
          "name": "spender",
          "type": "address"
        },
        {
          "indexed": false,
          "internalType": "uint256",
          "name": "value",
          "type": "uint256"
        }
      ],
      "name": "Approval",
      "type": "event"
    },
    {
      "anonymous": false,
      "inputs": [
        {
          "indexed": false,
          "internalType": "address",
          "name": "oracle",
          "type": "address"
        }
      ],
      "name": "ChangeOracle",
      "type": "event"
    },
    {
      "anonymous": false,
      "inputs": [
        {
          "indexed": false,
          "internalType": "address",
          "name": "newContractAddress",
          "type": "address"
        },
        {
          "indexed": false,
          "internalType": "uint256",
          "name": "yesVotes",
          "type": "uint256"
        },
        {
          "indexed": false,
          "internalType": "uint256",
          "name": "oracleVotes",
          "type": "uint256"
        },
        {
          "indexed": false,
          "internalType": "uint256",
          "name": "totalVotingPower",
          "type": "uint256"
        }
      ],
      "name": "MigrationSucceeded",
      "type": "event"
    },
    {
      "anonymous": false,
      "inputs": [
        {
          "indexed": false,
          "internalType": "string",
          "name": "name",
          "type": "string"
        },
        {
          "indexed": false,
          "internalType": "string",
          "name": "symbol",
          "type": "string"
        }
      ],
      "name": "NameChanged",
      "type": "event"
    },
    {
      "anonymous": false,
      "inputs": [
        {
          "indexed": true,
          "internalType": "address",
          "name": "previousOwner",
          "type": "address"
        },
        {
          "indexed": true,
          "internalType": "address",
          "name": "newOwner",
          "type": "address"
        }
      ],
      "name": "OwnershipTransferred",
      "type": "event"
    },
    {
      "anonymous": false,
      "inputs": [
        {
          "indexed": true,
          "internalType": "address",
          "name": "from",
          "type": "address"
        },
        {
          "indexed": true,
          "internalType": "address",
          "name": "to",
          "type": "address"
        },
        {
          "indexed": false,
          "internalType": "uint256",
          "name": "value",
          "type": "uint256"
        }
      ],
      "name": "Transfer",
      "type": "event"
    },
    {
      "inputs": [
        {
          "internalType": "address",
          "name": "owner",
          "type": "address"
        },
        {
          "internalType": "address",
          "name": "spender",
          "type": "address"
        }
      ],
      "name": "allowance",
      "outputs": [
        {
          "internalType": "uint256",
          "name": "",
          "type": "uint256"
        }
      ],
      "stateMutability": "view",
      "type": "function"
    },
    {
      "inputs": [
        {
          "internalType": "address",
          "name": "spender",
          "type": "address"
        },
        {
          "internalType": "uint256",
          "name": "value",
          "type": "uint256"
        }
      ],
      "name": "approve",
      "outputs": [
        {
          "internalType": "bool",
          "name": "",
          "type": "bool"
        }
      ],
      "stateMutability": "nonpayable",
      "type": "function"
    },
    {
      "inputs": [
        {
          "internalType": "address",
          "name": "account",
          "type": "address"
        }
      ],
      "name": "balanceOf",
      "outputs": [
        {
          "internalType": "uint256",
          "name": "",
          "type": "uint256"
        }
      ],
      "stateMutability": "view",
      "type": "function"
    },
    {
      "inputs": [
        {
          "internalType": "uint256",
          "name": "amount",
          "type": "uint256"
        }
      ],
      "name": "burn",
      "outputs": [],
      "stateMutability": "nonpayable",
      "type": "function"
    },
    {
      "inputs": [
        {
          "internalType": "address",
          "name": "account",
          "type": "address"
        }
      ],
      "name": "canReceiveFromAnyone",
      "outputs": [
        {
          "internalType": "bool",
          "name": "",
          "type": "bool"
        }
      ],
      "stateMutability": "view",
      "type": "function"
    },
    {
      "inputs": [],
      "name": "claimPeriod",
      "outputs": [
        {
          "internalType": "uint256",
          "name": "",
          "type": "uint256"
        }
      ],
      "stateMutability": "pure",
      "type": "function"
    },
    {
      "inputs": [],
      "name": "customCollateralAddress",
      "outputs": [
        {
          "internalType": "contract IERC20",
          "name": "",
          "type": "address"
        }
      ],
      "stateMutability": "view",
      "type": "function"
    },
    {
      "inputs": [],
      "name": "customCollateralRate",
      "outputs": [
        {
          "internalType": "uint256",
          "name": "",
          "type": "uint256"
        }
      ],
      "stateMutability": "view",
      "type": "function"
    },
    {
      "inputs": [],
      "name": "decimals",
      "outputs": [
        {
          "internalType": "uint8",
          "name": "",
          "type": "uint8"
        }
      ],
      "stateMutability": "view",
      "type": "function"
    },
    {
      "inputs": [
        {
          "internalType": "address",
          "name": "lostAddress",
          "type": "address"
        }
      ],
      "name": "deleteClaim",
      "outputs": [],
      "stateMutability": "nonpayable",
      "type": "function"
    },
    {
      "inputs": [
        {
          "internalType": "address",
          "name": "buyer",
          "type": "address"
        },
        {
          "internalType": "contract IERC20",
          "name": "currency",
          "type": "address"
        }
      ],
      "name": "drag",
      "outputs": [],
      "stateMutability": "nonpayable",
      "type": "function"
    },
    {
      "inputs": [],
      "name": "factory",
      "outputs": [
        {
          "internalType": "contract IOfferFactory",
          "name": "",
          "type": "address"
        }
      ],
      "stateMutability": "view",
      "type": "function"
    },
    {
      "inputs": [],
      "name": "getClaimDeleter",
      "outputs": [
        {
          "internalType": "address",
          "name": "",
          "type": "address"
        }
      ],
      "stateMutability": "view",
      "type": "function"
    },
    {
      "inputs": [
        {
          "internalType": "contract IERC20",
          "name": "collateralType",
          "type": "address"
        }
      ],
      "name": "getCollateralRate",
      "outputs": [
        {
          "internalType": "uint256",
          "name": "",
          "type": "uint256"
        }
      ],
      "stateMutability": "view",
      "type": "function"
    },
    {
      "inputs": [
        {
          "internalType": "address",
          "name": "account",
          "type": "address"
        },
        {
          "internalType": "uint8",
          "name": "number",
          "type": "uint8"
        }
      ],
      "name": "hasFlag",
      "outputs": [
        {
          "internalType": "bool",
          "name": "",
          "type": "bool"
        }
      ],
      "stateMutability": "view",
      "type": "function"
    },
    {
      "inputs": [],
      "name": "isBinding",
      "outputs": [
        {
          "internalType": "bool",
          "name": "",
          "type": "bool"
        }
      ],
      "stateMutability": "view",
      "type": "function"
    },
    {
      "inputs": [
        {
          "internalType": "address",
          "name": "account",
          "type": "address"
        }
      ],
      "name": "isForbidden",
      "outputs": [
        {
          "internalType": "bool",
          "name": "",
          "type": "bool"
        }
      ],
      "stateMutability": "view",
      "type": "function"
    },
    {
      "inputs": [
        {
          "internalType": "address",
          "name": "account",
          "type": "address"
        }
      ],
      "name": "isPowerlisted",
      "outputs": [
        {
          "internalType": "bool",
          "name": "",
          "type": "bool"
        }
      ],
      "stateMutability": "view",
      "type": "function"
    },
    {
      "inputs": [
        {
          "internalType": "bytes32",
          "name": "salt",
          "type": "bytes32"
        },
        {
          "internalType": "uint256",
          "name": "pricePerShare",
          "type": "uint256"
        },
        {
          "internalType": "contract IERC20",
          "name": "currency",
          "type": "address"
        }
      ],
      "name": "makeAcquisitionOffer",
      "outputs": [],
      "stateMutability": "payable",
      "type": "function"
    },
    {
      "inputs": [],
      "name": "migrate",
      "outputs": [],
      "stateMutability": "nonpayable",
      "type": "function"
    },
    {
      "inputs": [
        {
          "internalType": "address",
          "name": "successor",
          "type": "address"
        },
        {
          "internalType": "uint256",
          "name": "additionalVotes",
          "type": "uint256"
        }
      ],
      "name": "migrateWithExternalApproval",
      "outputs": [],
      "stateMutability": "nonpayable",
      "type": "function"
    },
    {
      "inputs": [],
      "name": "name",
      "outputs": [
        {
          "internalType": "string",
          "name": "",
          "type": "string"
        }
      ],
      "stateMutability": "view",
      "type": "function"
    },
    {
      "inputs": [
        {
          "internalType": "address",
          "name": "target",
          "type": "address"
        }
      ],
      "name": "notifyClaimDeleted",
      "outputs": [],
      "stateMutability": "nonpayable",
      "type": "function"
    },
    {
      "inputs": [
        {
          "internalType": "address",
          "name": "target",
          "type": "address"
        }
      ],
      "name": "notifyClaimMade",
      "outputs": [],
      "stateMutability": "nonpayable",
      "type": "function"
    },
    {
      "inputs": [],
      "name": "notifyOfferEnded",
      "outputs": [],
      "stateMutability": "nonpayable",
      "type": "function"
    },
    {
      "inputs": [
        {
          "internalType": "address",
          "name": "voter",
          "type": "address"
        }
      ],
      "name": "notifyVoted",
      "outputs": [],
      "stateMutability": "nonpayable",
      "type": "function"
    },
    {
      "inputs": [],
      "name": "offer",
      "outputs": [
        {
          "internalType": "contract IOffer",
          "name": "",
          "type": "address"
        }
      ],
      "stateMutability": "view",
      "type": "function"
    },
    {
      "inputs": [
        {
          "internalType": "address",
          "name": "from",
          "type": "address"
        },
        {
          "internalType": "uint256",
          "name": "amount",
          "type": "uint256"
        },
        {
          "internalType": "bytes",
          "name": "",
          "type": "bytes"
        }
      ],
      "name": "onTokenTransfer",
      "outputs": [
        {
          "internalType": "bool",
          "name": "",
          "type": "bool"
        }
      ],
      "stateMutability": "nonpayable",
      "type": "function"
    },
    {
      "inputs": [],
      "name": "oracle",
      "outputs": [
        {
          "internalType": "address",
          "name": "",
          "type": "address"
        }
      ],
      "stateMutability": "view",
      "type": "function"
    },
    {
      "inputs": [],
      "name": "owner",
      "outputs": [
        {
          "internalType": "address",
          "name": "",
          "type": "address"
        }
      ],
      "stateMutability": "view",
      "type": "function"
    },
    {
      "inputs": [],
      "name": "quorum",
      "outputs": [
        {
          "internalType": "uint256",
          "name": "",
          "type": "uint256"
        }
      ],
      "stateMutability": "view",
      "type": "function"
    },
    {
      "inputs": [
        {
          "internalType": "address",
          "name": "oldAddress",
          "type": "address"
        },
        {
          "internalType": "address",
          "name": "newAddress",
          "type": "address"
        }
      ],
      "name": "recover",
      "outputs": [],
      "stateMutability": "nonpayable",
      "type": "function"
    },
    {
      "inputs": [],
      "name": "recovery",
      "outputs": [
        {
          "internalType": "contract IRecoveryHub",
          "name": "",
          "type": "address"
        }
      ],
      "stateMutability": "view",
      "type": "function"
    },
    {
      "inputs": [],
      "name": "restrictTransfers",
      "outputs": [
        {
          "internalType": "bool",
          "name": "",
          "type": "bool"
        }
      ],
      "stateMutability": "view",
      "type": "function"
    },
    {
      "inputs": [
        {
          "internalType": "bool",
          "name": "transferRestrictionsApplicable",
          "type": "bool"
        }
      ],
      "name": "setApplicable",
      "outputs": [],
      "stateMutability": "nonpayable",
      "type": "function"
    },
    {
      "inputs": [
        {
          "internalType": "address",
          "name": "newOracle",
          "type": "address"
        }
      ],
      "name": "setOracle",
      "outputs": [],
      "stateMutability": "nonpayable",
      "type": "function"
    },
    {
      "inputs": [
        {
          "internalType": "address[]",
          "name": "addressesToAdd",
          "type": "address[]"
        },
        {
          "internalType": "uint8",
          "name": "value",
          "type": "uint8"
        }
      ],
      "name": "setType",
      "outputs": [],
      "stateMutability": "nonpayable",
      "type": "function"
    },
    {
      "inputs": [
        {
          "internalType": "address",
          "name": "account",
          "type": "address"
        },
        {
          "internalType": "uint8",
          "name": "typeNumber",
          "type": "uint8"
        }
      ],
      "name": "setType",
      "outputs": [],
      "stateMutability": "nonpayable",
      "type": "function"
    },
    {
      "inputs": [],
      "name": "symbol",
      "outputs": [
        {
          "internalType": "string",
          "name": "",
          "type": "string"
        }
      ],
      "stateMutability": "view",
      "type": "function"
    },
    {
      "inputs": [],
      "name": "terms",
      "outputs": [
        {
          "internalType": "string",
          "name": "",
          "type": "string"
        }
      ],
      "stateMutability": "view",
      "type": "function"
    },
    {
      "inputs": [],
      "name": "totalSupply",
      "outputs": [
        {
          "internalType": "uint256",
          "name": "",
          "type": "uint256"
        }
      ],
      "stateMutability": "view",
      "type": "function"
    },
    {
      "inputs": [],
      "name": "totalVotingTokens",
      "outputs": [
        {
          "internalType": "uint256",
          "name": "",
          "type": "uint256"
        }
      ],
      "stateMutability": "view",
      "type": "function"
    },
    {
      "inputs": [
        {
          "internalType": "address",
          "name": "to",
          "type": "address"
        },
        {
          "internalType": "uint256",
          "name": "value",
          "type": "uint256"
        }
      ],
      "name": "transfer",
      "outputs": [
        {
          "internalType": "bool",
          "name": "",
          "type": "bool"
        }
      ],
      "stateMutability": "nonpayable",
      "type": "function"
    },
    {
      "inputs": [
        {
          "internalType": "address",
          "name": "recipient",
          "type": "address"
        },
        {
          "internalType": "uint256",
          "name": "amount",
          "type": "uint256"
        },
        {
          "internalType": "bytes",
          "name": "data",
          "type": "bytes"
        }
      ],
      "name": "transferAndCall",
      "outputs": [
        {
          "internalType": "bool",
          "name": "",
          "type": "bool"
        }
      ],
      "stateMutability": "nonpayable",
      "type": "function"
    },
    {
      "inputs": [
        {
          "internalType": "address",
          "name": "sender",
          "type": "address"
        },
        {
          "internalType": "address",
          "name": "recipient",
          "type": "address"
        },
        {
          "internalType": "uint256",
          "name": "amount",
          "type": "uint256"
        }
      ],
      "name": "transferFrom",
      "outputs": [
        {
          "internalType": "bool",
          "name": "",
          "type": "bool"
        }
      ],
      "stateMutability": "nonpayable",
      "type": "function"
    },
    {
      "inputs": [
        {
          "internalType": "address",
          "name": "newOwner",
          "type": "address"
        }
      ],
      "name": "transferOwnership",
      "outputs": [],
      "stateMutability": "nonpayable",
      "type": "function"
    },
    {
      "inputs": [
        {
          "internalType": "uint256",
          "name": "amount",
          "type": "uint256"
        }
      ],
      "name": "unwrap",
      "outputs": [],
      "stateMutability": "nonpayable",
      "type": "function"
    },
    {
      "inputs": [],
      "name": "unwrapConversionFactor",
      "outputs": [
        {
          "internalType": "uint256",
          "name": "",
          "type": "uint256"
        }
      ],
      "stateMutability": "view",
      "type": "function"
    },
    {
      "inputs": [],
      "name": "votePeriod",
      "outputs": [
        {
          "internalType": "uint256",
          "name": "",
          "type": "uint256"
        }
      ],
      "stateMutability": "view",
      "type": "function"
    },
    {
      "inputs": [
        {
          "internalType": "address",
          "name": "voter",
          "type": "address"
        }
      ],
      "name": "votingPower",
      "outputs": [
        {
          "internalType": "uint256",
          "name": "",
          "type": "uint256"
        }
      ],
      "stateMutability": "view",
      "type": "function"
    },
    {
      "inputs": [
        {
          "internalType": "address",
          "name": "shareholder",
          "type": "address"
        },
        {
          "internalType": "uint256",
          "name": "amount",
          "type": "uint256"
        }
      ],
      "name": "wrap",
      "outputs": [],
      "stateMutability": "nonpayable",
      "type": "function"
    },
    {
      "inputs": [],
      "name": "wrapped",
      "outputs": [
        {
          "internalType": "contract IERC20",
          "name": "",
          "type": "address"
        }
      ],
      "stateMutability": "view",
      "type": "function"
    }
  ],
  "transactionHash": "0xcf91a0c9fccd52e7cd9d84b9161d47f6ba9269d5f7582eeabe9b852dec1b95ce",
  "args": [
    "www.c-am.ch/shares",
    "0x801bB49EfAdf9b8a9Ad7dC0B8275Ec94B92D2497",
    6600,
    5184000,
    "0x2b2B237d8f9a42706bdCD4083C20a2b799C8B45C",
    "0x2BC8102bC1EaB3689f0dAdB53071AB5965cEEfd4",
    "0x9BC2D8bb6Cf6Df1D79AE22aE796b1A697fA36d48",
    "0x9BC2D8bb6Cf6Df1D79AE22aE796b1A697fA36d48"
  ],
  "numDeployments": 1,
  "solcInputHash": "f1166007993d97aa07f30cdacc4b8413",
  "bytecode": "0x61010060405260006005553480156200001757600080fd5b50604051620030ec380380620030ec8339810160408190526200003a91620003b8565b878787878787878286868685858d600080600360006101000a81548160ff021916908360ff1602179055505080600360016101000a8154816001600160a01b0302191690836001600160a01b03160217905550600360019054906101000a90046001600160a01b03166001600160a01b031660006001600160a01b03167f8be0079c531659141344cd1fd0a4f28419497f9722a3daafe3b4186f6b6457e060405160405180910390a350620000f06001620001cf565b600480546001600160a01b039687166001600160a01b03199182161790915560a09490945260c0929092526001600160601b0319606091821b81166080526007805493909516929093169190911790925591901b1660e05286516200015d90600a9060208a0190620002f5565b50604051636427ed9760e01b8152600060048201526001600160a01b03841690636427ed9790602401600060405180830381600087803b158015620001a157600080fd5b505af1158015620001b6573d6000803e3d6000fd5b505050505050505050505050505050505050506200058e565b6003805482158015600160a81b0260ff60a81b1990921691909117909155620002035762000200600060046200020b565b50565b620002006000805b6200021f82601460ff84166001146200028c565b6200023382601560ff84166002146200028c565b6200024782601660ff84166004146200028c565b60405160ff821681526001600160a01b038316907fe423d7d31023dbacefed7c937785d0012ad8f314381295efebfc0471d2c434549060200160405180910390a25050565b60006200029b8360e062000507565b6001600160a01b038516600090815260208190526040902054600160ff929092169190911b9150808216821483151514620002ee576001600160a01b038516600090815260208190526040902081831890555b5050505050565b82805462000303906200053b565b90600052602060002090601f01602090048101928262000327576000855562000372565b82601f106200034257805160ff191683800117855562000372565b8280016001018555821562000372579182015b828111156200037257825182559160200191906001019062000355565b506200038092915062000384565b5090565b5b8082111562000380576000815560010162000385565b80516001600160a01b0381168114620003b357600080fd5b919050565b600080600080600080600080610100898b031215620003d657600080fd5b88516001600160401b0380821115620003ee57600080fd5b818b0191508b601f8301126200040357600080fd5b81518181111562000418576200041862000578565b604051601f8201601f19908116603f0116810190838211818310171562000443576200044362000578565b81604052828152602093508e848487010111156200046057600080fd5b600091505b8282101562000484578482018401518183018501529083019062000465565b82821115620004965760008484830101525b9b50620004a89150508b82016200039b565b985050506040890151955060608901519450620004c860808a016200039b565b9350620004d860a08a016200039b565b9250620004e860c08a016200039b565b9150620004f860e08a016200039b565b90509295985092959890939650565b600060ff821660ff84168060ff038211156200053357634e487b7160e01b600052601160045260246000fd5b019392505050565b600181811c908216806200055057607f821691505b602082108114156200057257634e487b7160e01b600052602260045260246000fd5b50919050565b634e487b7160e01b600052604160045260246000fd5b60805160601c60a05160c05160e05160601c612adf6200060d600039600081816108f401528181610ce401528181610f41015281816113720152818161167b01526120b701526000818161073d01526114c30152600081816103e20152818161149d01526118b501526000818161083101526114ec0152612adf6000f3fe6080604052600436106102ff5760003560e01c80638da5cb5b11610190578063c18172c4116100dc578063ddceafa911610095578063e5b824ec1161006f578063e5b824ec14610956578063f2fde38b14610976578063f5c0b95f14610996578063fcb79a7e146109b657600080fd5b8063ddceafa9146108e2578063de0e9a3e14610916578063e445d70a1461093657600080fd5b8063c18172c4146107ff578063c45a01551461081f578063d37a9bb014610853578063d502562514610874578063dcc7d4ad14610889578063dd62ed3e1461089c57600080fd5b8063a4c0ed3611610149578063b1c8db6611610123578063b1c8db661461077f578063bf376c7a1461079f578063c028df06146107bf578063c07473f6146107df57600080fd5b8063a4c0ed361461070b578063a78135871461072b578063a9059cbb1461075f57600080fd5b80638da5cb5b146106665780638fd3ab801461068b57806395d89b41146106a05780639e37878c146106b55780639e4b5745146106d5578063a49a7cb1146106eb57600080fd5b806332bc320b1161024f578063609181171161020857806377e071ad116101e257806377e071ad146105f05780637adbf973146106105780637dc0d1d0146106305780637dc2cd981461065057600080fd5b8063609181171461059a578063648bf774146105b057806370a08231146105d057600080fd5b806332bc320b146104e55780634000aea0146104fa57806342966c681461051a578063429c66f01461053a57806345c8a62b1461055a57806350e70d481461057a57600080fd5b806318160ddd116102bc5780632a0a4ed5116102965780632a0a4ed51461045b5780632b34309914610479578063313ce5671461049957806332a7ae95146104c557600080fd5b806318160ddd14610404578063198453541461041957806323b872dd1461043b57600080fd5b806306fdde03146103045780630832e4701461032f578063095ea7b3146103535780630a81b2de146103835780630c6f0e5d146103985780631703a018146103d0575b600080fd5b34801561031057600080fd5b506103196109d6565b604051610326919061282b565b60405180910390f35b34801561033b57600080fd5b5061034560055481565b604051908152602001610326565b34801561035f57600080fd5b5061037361036e36600461245f565b610a9e565b6040519015158152602001610326565b34801561038f57600080fd5b50610345610ab4565b3480156103a457600080fd5b506008546103b8906001600160a01b031681565b6040516001600160a01b039091168152602001610326565b3480156103dc57600080fd5b506103457f000000000000000000000000000000000000000000000000000000000000000081565b34801561041057600080fd5b50600254610345565b34801561042557600080fd5b5061043961043436600461245f565b610b41565b005b34801561044757600080fd5b5061037361045636600461241e565b610bed565b34801561046757600080fd5b506007546001600160a01b03166103b8565b34801561048557600080fd5b506103736104943660046123c8565b610c64565b3480156104a557600080fd5b506003546104b39060ff1681565b60405160ff9091168152602001610326565b3480156104d157600080fd5b506104396104e03660046123c8565b610c77565b3480156104f157600080fd5b50610439610d44565b34801561050657600080fd5b5061037361051536600461248b565b610d80565b34801561052657600080fd5b5061043961053536600461270a565b610e20565b34801561054657600080fd5b50610439610555366004612549565b610e7b565b34801561056657600080fd5b506104396105753660046123c8565b610efd565b34801561058657600080fd5b506004546103b8906001600160a01b031681565b3480156105a657600080fd5b5061034560095481565b3480156105bc57600080fd5b506104396105cb3660046123e5565b610f36565b3480156105dc57600080fd5b506103456105eb3660046123c8565b610f91565b3480156105fc57600080fd5b5061034561060b3660046123c8565b610fb5565b34801561061c57600080fd5b5061043961062b3660046123c8565b6110a4565b34801561063c57600080fd5b506007546103b8906001600160a01b031681565b34801561065c57600080fd5b5062ed4e00610345565b34801561067257600080fd5b506003546103b89061010090046001600160a01b031681565b34801561069757600080fd5b50610439611140565b3480156106ac57600080fd5b5061031961114d565b3480156106c157600080fd5b506103736106d03660046123c8565b6111fd565b3480156106e157600080fd5b5060055415610373565b3480156106f757600080fd5b50610439610706366004612514565b61120a565b34801561071757600080fd5b5061037361072636600461248b565b611243565b34801561073757600080fd5b506103457f000000000000000000000000000000000000000000000000000000000000000081565b34801561076b57600080fd5b5061037361077a36600461245f565b61127a565b34801561078b57600080fd5b5061037361079a3660046123c8565b61128d565b3480156107ab57600080fd5b506104396107ba36600461245f565b6112ab565b3480156107cb57600080fd5b506006546103b8906001600160a01b031681565b3480156107eb57600080fd5b506103456107fa3660046123c8565b61135c565b34801561080b57600080fd5b5061043961081a3660046123c8565b611367565b34801561082b57600080fd5b506103b87f000000000000000000000000000000000000000000000000000000000000000081565b34801561085f57600080fd5b5060035461037390600160a81b900460ff1681565b34801561088057600080fd5b506103196113bc565b610439610897366004612607565b61144a565b3480156108a857600080fd5b506103456108b73660046123e5565b6001600160a01b03918216600090815260016020908152604080832093909416825291909152205490565b3480156108ee57600080fd5b506103b87f000000000000000000000000000000000000000000000000000000000000000081565b34801561092257600080fd5b5061043961093136600461270a565b61160c565b34801561094257600080fd5b506104396109513660046125cd565b611638565b34801561096257600080fd5b506104396109713660046123c8565b611670565b34801561098257600080fd5b506104396109913660046123c8565b6116c5565b3480156109a257600080fd5b506103736109b1366004612514565b61175b565b3480156109c257600080fd5b506104396109d13660046123e5565b611767565b60048054604080516306fdde0360e01b815290516060936000936001600160a01b0316926306fdde0392818301928692829003018186803b158015610a1a57600080fd5b505afa158015610a2e573d6000803e3d6000fd5b505050506040513d6000823e601f3d908101601f19168201604052610a56919081019061265d565b9050610a626005541590565b15610a8d5780604051602001610a789190612796565b60405160208183030381529060405291505090565b80604051602001610a789190612768565b6000610aab3384846117af565b50600192915050565b6000600460009054906101000a90046001600160a01b03166001600160a01b0316633a98ef396040518163ffffffff1660e01b815260040160206040518083038186803b158015610b0457600080fd5b505afa158015610b18573d6000803e3d6000fd5b505050506040513d601f19601f82011682018060405250810190610b3c9190612723565b905090565b6007546001600160a01b03163314610b8d5760405162461bcd60e51b815260206004820152600a6024820152696e6f74206f7261636c6560b01b60448201526064015b60405180910390fd5b610b95610ab4565b81610b9f60025490565b610ba99190612933565b1115610bdf5760405162461bcd60e51b8152602060048201526005602482015264766f74657360d81b6044820152606401610b84565b610be98282611811565b5050565b6000610bfa84848461197e565b6001600160a01b0384166000908152600160209081526040808320338452909152902054600160ff1b811015610c5957610c3483826129b1565b6001600160a01b03861660009081526001602090815260408083203384529091529020555b506001949350505050565b6000610c718260166119e2565b92915050565b6007546001600160a01b03163314610cc55760405162461bcd60e51b81526020600482015260116024820152703737ba1031b630b4b6903232b632ba32b960791b6044820152606401610b84565b6040516332a7ae9560e01b81526001600160a01b0382811660048301527f000000000000000000000000000000000000000000000000000000000000000016906332a7ae95906024015b600060405180830381600087803b158015610d2957600080fd5b505af1158015610d3d573d6000803e3d6000fd5b5050505050565b6006546001600160a01b03163314610d6e5760405162461bcd60e51b8152600401610b8490612883565b600680546001600160a01b0319169055565b6000610d8c858561127a565b8015610e175750604051635260769b60e11b81526001600160a01b0386169063a4c0ed3690610dc59033908890889088906004016127e3565b602060405180830381600087803b158015610ddf57600080fd5b505af1158015610df3573d6000803e3d6000fd5b505050506040513d601f19601f82011682018060405250810190610e1791906125ea565b95945050505050565b610e2a3382611a22565b6004546001600160a01b03166342966c68610e456005541590565b610e5b57600554610e569084612992565b610e5d565b825b6040518263ffffffff1660e01b8152600401610d0f91815260200190565b60035461010090046001600160a01b03163314610eaa5760405162461bcd60e51b8152600401610b8490612910565b60005b82811015610ef757610ee5848483818110610eca57610eca612a5a565b9050602002016020810190610edf91906123c8565b8361120a565b80610eef81612a29565b915050610ead565b50505050565b6006546001600160a01b03163314610f275760405162461bcd60e51b8152600401610b8490612883565b610f3381600180611a96565b50565b336001600160a01b037f00000000000000000000000000000000000000000000000000000000000000001614610f7e5760405162461bcd60e51b8152600401610b84906128ea565b610be98282610f8c85610f91565b61197e565b6001600160a01b03166000908152602081905260409020546001600160e01b031690565b600080610fc183611afa565b90508015610fcf5792915050565b6000610fdb6005541590565b610fe757600554610fea565b60015b6004549091506001600160a01b038581169116141561100a579392505050565b600480546040516377e071ad60e01b81526001600160a01b03878116938201939093528392909116906377e071ad9060240160206040518083038186803b15801561105457600080fd5b505afa158015611068573d6000803e3d6000fd5b505050506040513d601f19601f8201168201806040525081019061108c9190612723565b6110969190612992565b949350505050565b50919050565b6007546001600160a01b031633146110eb5760405162461bcd60e51b815260206004820152600a6024820152696e6f74206f7261636c6560b01b6044820152606401610b84565b600780546001600160a01b0319166001600160a01b0383169081179091556040519081527fc3977c9522c218453912bcab15964a7788968fbf3fe4d4e2965252c9f07055de906020015b60405180910390a150565b61114b336000611811565b565b6060600460009054906101000a90046001600160a01b03166001600160a01b03166395d89b416040518163ffffffff1660e01b815260040160006040518083038186803b15801561119d57600080fd5b505afa1580156111b1573d6000803e3d6000fd5b505050506040513d6000823e601f3d908101601f191682016040526111d9919081019061265d565b6040516020016111e991906127be565b604051602081830303815290604052905090565b6000610c718260156119e2565b60035461010090046001600160a01b031633146112395760405162461bcd60e51b8152600401610b8490612910565b610be98282611b40565b6004546000906001600160a01b031633146112705760405162461bcd60e51b8152600401610b8490612883565b610c598585611bbb565b60006112868383611c27565b9392505050565b600061129a8260146119e2565b80610c715750610c718260166119e2565b600480546040516323b872dd60e01b81523392810192909252306024830152604482018390526001600160a01b0316906323b872dd90606401602060405180830381600087803b1580156112fe57600080fd5b505af1158015611312573d6000803e3d6000fd5b505050506040513d601f19601f8201168201806040525081019061133691906125ea565b6113525760405162461bcd60e51b8152600401610b84906128c8565b610be98282611bbb565b6000610c7182610f91565b336001600160a01b037f000000000000000000000000000000000000000000000000000000000000000016146113af5760405162461bcd60e51b8152600401610b84906128ea565b610f3381600a6001611a96565b600a80546113c9906129f4565b80601f01602080910402602001604051908101604052809291908181526020018280546113f5906129f4565b80156114425780601f1061141757610100808354040283529160200191611442565b820191906000526020600020905b81548152906001019060200180831161142557829003601f168201915b505050505081565b6005541561146a5760405162461bcd60e51b8152600401610b8490612863565b604051634dc5e43160e01b815260048101849052336024820152604481018390526001600160a01b0382811660648301527f000000000000000000000000000000000000000000000000000000000000000060848301527f000000000000000000000000000000000000000000000000000000000000000060a48301526000917f000000000000000000000000000000000000000000000000000000000000000090911690634dc5e43190349060c4016020604051808303818588803b15801561153357600080fd5b505af1158015611547573d6000803e3d6000fd5b50505050506040513d601f19601f8201168201806040525081019061156c9190612640565b90506115826006546001600160a01b0316151590565b156115e757600654604051637b64620f60e11b81526001600160a01b0383811660048301529091169063f6c8c41e90602401600060405180830381600087803b1580156115ce57600080fd5b505af11580156115e2573d6000803e3d6000fd5b505050505b600680546001600160a01b0319166001600160a01b0392909216919091179055505050565b60055461162b5760405162461bcd60e51b8152600401610b8490612863565b610f333382600554611c33565b60035461010090046001600160a01b031633146116675760405162461bcd60e51b8152600401610b8490612910565b610f3381611cf8565b336001600160a01b037f000000000000000000000000000000000000000000000000000000000000000016146116b85760405162461bcd60e51b8152600401610b84906128ea565b610f3381600a6000611a96565b60035461010090046001600160a01b031633146116f45760405162461bcd60e51b8152600401610b8490612910565b6003546040516001600160a01b0380841692610100900416907f8be0079c531659141344cd1fd0a4f28419497f9722a3daafe3b4186f6b6457e090600090a3600380546001600160a01b0390921661010002610100600160a81b0319909216919091179055565b600061128683836119e2565b6006546001600160a01b031633146117915760405162461bcd60e51b8152600401610b8490612883565b6117a58261179e84610f91565b6001611c33565b610be98183611d31565b6001600160a01b0383811660008181526001602090815260408083209487168084529482529182902085905590518481527f8c5be1e5ebec7d5bd14f71427d1e84f3dd0314c0f7b2291e5b200ac8c7c3b92591015b60405180910390a3505050565b600061181c83610f91565b6118269083612933565b90506000611832610ab4565b90508082111561186c5760405162461bcd60e51b8152602060048201526005602482015264766f74657360d81b6044820152606401610b84565b6006546001600160a01b0316156118b05760405162461bcd60e51b815260206004820152600860248201526737379037b33332b960c11b6044820152606401610b84565b6118da7f000000000000000000000000000000000000000000000000000000000000000082612992565b6118e661271084612992565b101561191d5760405162461bcd60e51b815260206004820152600660248201526571756f72756d60d01b6044820152606401610b84565b6119278485611d31565b604080516001600160a01b038616815260208101849052908101849052606081018290527f85e5711a70a7d2bae18e1232af474d82c98600b0e62fe079a28208520b58568e9060800160405180910390a150505050565b611989838383611f19565b6119938382611f24565b61199d8282611fba565b816001600160a01b0316836001600160a01b03167fddf252ad1be2c89b69c2b068fc378daa952ba7f163c4a11628f55a4df523b3ef8360405161180491815260200190565b6000806119f08360e061294b565b6001600160a01b038516600090815260208190526040902054600160ff929092169190911b9081161491505092915050565b611a2e82600083611f19565b8060026000828254611a4091906129b1565b90915550611a5090508282611f24565b6040518181526000906001600160a01b038416907fddf252ad1be2c89b69c2b068fc378daa952ba7f163c4a11628f55a4df523b3ef906020015b60405180910390a35050565b6000611aa38360e061294b565b6001600160a01b038516600090815260208190526040902054600160ff929092169190911b9150808216821483151514610d3d576001600160a01b0394909416600090815260208190526040902093189092555050565b60006001600160a01b038216301415611b1557506001919050565b6008546001600160a01b0383811691161415611b3357505060095490565b506000919050565b919050565b611b5282601460ff8416600114611a96565b611b6482601560ff8416600214611a96565b611b7682601660ff8416600414611a96565b60405160ff821681526001600160a01b038316907fe423d7d31023dbacefed7c937785d0012ad8f314381295efebfc0471d2c434549060200160405180910390a25050565b611bc760008383611f19565b8060026000828254611bd99190612933565b90915550611be990508282611fba565b6040518181526001600160a01b038316906000907fddf252ad1be2c89b69c2b068fc378daa952ba7f163c4a11628f55a4df523b3ef90602001611a8a565b6000611286838361206a565b611c3d8383611a22565b6004546001600160a01b031663a9059cbb84611c598486612992565b6040516001600160e01b031960e085901b1681526001600160a01b0390921660048301526024820152604401602060405180830381600087803b158015611c9f57600080fd5b505af1158015611cb3573d6000803e3d6000fd5b505050506040513d601f19601f82011682018060405250810190611cd791906125ea565b611cf35760405162461bcd60e51b8152600401610b84906128c8565b505050565b6003805482158015600160a81b0260ff60a81b1990921691909117909155611d2657610f3360006004611b40565b610f33600080611b40565b60055415611d515760405162461bcd60e51b8152600401610b8490612863565b600480546040516370a0823160e01b815230928101929092526001600160a01b03169063a9059cbb90839083906370a082319060240160206040518083038186803b158015611d9f57600080fd5b505afa158015611db3573d6000803e3d6000fd5b505050506040513d601f19601f82011682018060405250810190611dd79190612723565b6040516001600160e01b031960e085901b1681526001600160a01b0390921660048301526024820152604401602060405180830381600087803b158015611e1d57600080fd5b505af1158015611e31573d6000803e3d6000fd5b505050506040513d601f19601f82011682018060405250810190611e5591906125ea565b611e715760405162461bcd60e51b8152600401610b84906128c8565b600480546001600160a01b0319166001600160a01b038416179055600254610be9906040516370a0823160e01b81523060048201526001600160a01b038516906370a082319060240160206040518083038186803b158015611ed257600080fd5b505afa158015611ee6573d6000803e3d6000fd5b505050506040513d601f19601f82011682018060405250810190611f0a9190612723565b611f149190612970565b612124565b611cf3838383612189565b6001600160a01b03821660009081526020819052604081205490611f4883836129b1565b90506001600160e01b031981166001600160e01b0319831614611f995760405162461bcd60e51b8152602060048201526009602482015268756e646572666c6f7760b81b6044820152606401610b84565b6001600160a01b039093166000908152602081905260409020929092555050565b6001600160a01b038216611ff65760405162461bcd60e51b815260206004820152600360248201526203078360ec1b6044820152606401610b84565b6001600160a01b0382166000908152602081905260408120549061201a8383612933565b90506001600160e01b031981166001600160e01b0319831614611f995760405162461bcd60e51b81526020600482015260086024820152676f766572666c6f7760c01b6044820152606401610b84565b60006120768383612194565b6120925760405162461bcd60e51b8152600401610b84906128c8565b61209d33600a6119e2565b15610aab576040516304d301a360e41b81523360048201527f00000000000000000000000000000000000000000000000000000000000000006001600160a01b031690634d301a3090602401600060405180830381600087803b15801561210357600080fd5b505af1158015612117573d6000803e3d6000fd5b5050505050600192915050565b60018110156121455760405162461bcd60e51b8152600401610b8490612863565b60058190557f6c20b91d1723b78732eba64ff11ebd7966a6e4af568a00fa4f6b72c20f58b02a6121736109d6565b61217b61114d565b60405161113592919061283e565b611cf38383836121a1565b6000610aab33848461197e565b6121aa83612267565b806121b957506121b982612267565b1561225c576006546001600160a01b0316156122425760065460405163e1a1810f60e01b81526001600160a01b0385811660048301528481166024830152604482018490529091169063e1a1810f90606401600060405180830381600087803b15801561222557600080fd5b505af1158015612239573d6000803e3d6000fd5b5050505061225c565b61224f8360016000611a96565b61225c8260016000611a96565b611cf3838383612274565b6000610c718260016119e2565b61227d8261128d565b1561228757505050565b612290826111fd565b156122cc57600354600160a81b900460ff16156122bf5760405162461bcd60e51b8152600401610b84906128a3565b611cf38260156000611a96565b6122d583610c64565b1561232b576122e78260146001611a96565b604051600181526001600160a01b038316907fe423d7d31023dbacefed7c937785d0012ad8f314381295efebfc0471d2c434549060200160405180910390a2505050565b6123368360146119e2565b1561237257600354600160a81b900460ff16156123655760405162461bcd60e51b8152600401610b84906128a3565b611cf38360146000611a96565b61237b836111fd565b15611cf357600354600160a81b900460ff16156123aa5760405162461bcd60e51b8152600401610b84906128a3565b611cf38360156000611a96565b803560ff81168114611b3b57600080fd5b6000602082840312156123da57600080fd5b813561128681612a86565b600080604083850312156123f857600080fd5b823561240381612a86565b9150602083013561241381612a86565b809150509250929050565b60008060006060848603121561243357600080fd5b833561243e81612a86565b9250602084013561244e81612a86565b929592945050506040919091013590565b6000806040838503121561247257600080fd5b823561247d81612a86565b946020939093013593505050565b600080600080606085870312156124a157600080fd5b84356124ac81612a86565b935060208501359250604085013567ffffffffffffffff808211156124d057600080fd5b818701915087601f8301126124e457600080fd5b8135818111156124f357600080fd5b88602082850101111561250557600080fd5b95989497505060200194505050565b6000806040838503121561252757600080fd5b823561253281612a86565b9150612540602084016123b7565b90509250929050565b60008060006040848603121561255e57600080fd5b833567ffffffffffffffff8082111561257657600080fd5b818601915086601f83011261258a57600080fd5b81358181111561259957600080fd5b8760208260051b85010111156125ae57600080fd5b6020928301955093506125c491860190506123b7565b90509250925092565b6000602082840312156125df57600080fd5b813561128681612a9b565b6000602082840312156125fc57600080fd5b815161128681612a9b565b60008060006060848603121561261c57600080fd5b8335925060208401359150604084013561263581612a86565b809150509250925092565b60006020828403121561265257600080fd5b815161128681612a86565b60006020828403121561266f57600080fd5b815167ffffffffffffffff8082111561268757600080fd5b818401915084601f83011261269b57600080fd5b8151818111156126ad576126ad612a70565b604051601f8201601f19908116603f011681019083821181831017156126d5576126d5612a70565b816040528281528760208487010111156126ee57600080fd5b6126ff8360208301602088016129c8565b979650505050505050565b60006020828403121561271c57600080fd5b5035919050565b60006020828403121561273557600080fd5b5051919050565b600081518084526127548160208601602086016129c8565b601f01601f19169290920160200192915050565b6000825161277a8184602087016129c8565b692028577261707065642960b01b920191825250600a01919050565b600082516127a88184602087016129c8565b632053484160e01b920191825250600401919050565b600082516127d08184602087016129c8565b605360f81b920191825250600101919050565b6001600160a01b0385168152602081018490526060604082018190528101829052818360808301376000818301608090810191909152601f909201601f191601019392505050565b602081526000611286602083018461273c565b604081526000612851604083018561273c565b8281036020840152610e17818561273c565b6020808252600690820152653330b1ba37b960d11b604082015260600190565b60208082526006908201526539b2b73232b960d11b604082015260600190565b6020808252600b908201526a1b9bdd08185b1b1bddd95960aa1b604082015260600190565b6020808252600890820152673a3930b739b332b960c11b604082015260600190565b6020808252600c908201526b6e6f74207265636f7665727960a01b604082015260600190565b6020808252600990820152683737ba1037bbb732b960b91b604082015260600190565b6000821982111561294657612946612a44565b500190565b600060ff821660ff84168060ff0382111561296857612968612a44565b019392505050565b60008261298d57634e487b7160e01b600052601260045260246000fd5b500490565b60008160001904831182151516156129ac576129ac612a44565b500290565b6000828210156129c3576129c3612a44565b500390565b60005b838110156129e35781810151838201526020016129cb565b83811115610ef75750506000910152565b600181811c90821680612a0857607f821691505b6020821081141561109e57634e487b7160e01b600052602260045260246000fd5b6000600019821415612a3d57612a3d612a44565b5060010190565b634e487b7160e01b600052601160045260246000fd5b634e487b7160e01b600052603260045260246000fd5b634e487b7160e01b600052604160045260246000fd5b6001600160a01b0381168114610f3357600080fd5b8015158114610f3357600080fdfea26469706673582212202b286092cb420d6a43eecae0c759ab6da63f8588b8065fda766048f89dd7cb4e64736f6c63430008070033",
  "devdoc": {
    "kind": "dev",
    "methods": {
      "allowance(address,address)": {
        "details": "See `IERC20.allowance`."
      },
      "approve(address,uint256)": {
        "details": "See `IERC20.approve`. Requirements: - `spender` cannot be the zero address."
      },
      "balanceOf(address)": {
        "details": "See `IERC20.balanceOf`."
      },
      "totalSupply()": {
        "details": "See `IERC20.totalSupply`."
      },
      "transferFrom(address,address,uint256)": {
        "details": "See `IERC20.transferFrom`. Emits an `Approval` event indicating the updated allowance. This is not required by the EIP. See the note at the beginning of `ERC20`; Requirements: - `sender` and `recipient` cannot be the zero address. - `sender` must have a balance of at least `value`. - the caller must have allowance for `sender`'s tokens of at least `amount`."
      },
      "transferOwnership(address)": {
        "details": "Transfers ownership of the contract to a new account (`newOwner`). Can only be called by the current owner."
      }
    },
    "version": 1
  },
  "userdoc": {
    "kind": "user",
    "methods": {
      "burn(uint256)": {
        "notice": "Burns both the token itself as well as the wrapped token! If you want to get out of the shareholder agreement, use unwrap after it has been deactivated by a majority vote or acquisition. Burning only works if wrapped token supports burning. Also, the exact meaning of this operation might depend on the circumstances. Burning and reussing the wrapped token does not free the sender from the legal obligations of the shareholder agreement."
      },
      "canReceiveFromAnyone(address)": {
        "notice": "If true, this address is allowlisted and can only transfer tokens to other allowlisted addresses."
      },
      "getClaimDeleter()": {
        "notice": "Let the oracle act as deleter of invalid claims. In earlier versions, this was referring to the claim deleter of the wrapped token. But that stops working after a successful acquisition as the acquisition currency most likely does not have a claim deleter."
      },
      "getCollateralRate(address)": {
        "notice": "Returns the collateral rate for the given collateral type and 0 if that type of collateral is not accepted. By default, only the token itself is accepted at a rate of 1:1. Subclasses should override this method if they want to add additional types of collateral."
      },
      "isBinding()": {
        "notice": "Indicates that the token holders are bound to the token terms and that: - Conversion back to the wrapped token (unwrap) is not allowed - A drag-along can be performed by making an according offer - They can be migrated to a new version of this contract in accordance with the terms"
      },
      "isForbidden(address)": {
        "notice": "If true, this address can only transfer tokens to allowlisted addresses and not receive from anyone."
      },
      "isPowerlisted(address)": {
        "notice": "If true, this address can automatically allowlist target addresses if necessary."
      },
      "name()": {
        "notice": "Current recommended naming convention is to add the postfix \"SHA\" to the plain shares in order to indicate that this token represents shares bound to a shareholder agreement."
      },
      "setApplicable(bool)": {
        "notice": "Configures whether the allowlisting is applied. Also sets the powerlist and allowlist flags on the null address accordingly. It is recommended to also deactivate the powerlist flag on other addresses."
      },
      "unwrap(uint256)": {
        "notice": "Decrease the number of drag-along tokens. The user gets back their shares in return "
      },
      "wrap(address,uint256)": {
        "notice": "Wraps additional tokens, thereby creating more ERC20Draggable tokens. "
      }
    },
    "version": 1
  },
  "storageLayout": {
    "storage": [
      {
        "astId": 458,
        "contract": "src/shares/AllowlistDraggableShares.sol:AllowlistDraggableShares",
        "label": "_balances",
        "offset": 0,
        "slot": "0",
        "type": "t_mapping(t_address,t_uint256)"
      },
      {
        "astId": 464,
        "contract": "src/shares/AllowlistDraggableShares.sol:AllowlistDraggableShares",
        "label": "_allowances",
        "offset": 0,
        "slot": "1",
        "type": "t_mapping(t_address,t_mapping(t_address,t_uint256))"
      },
      {
        "astId": 466,
        "contract": "src/shares/AllowlistDraggableShares.sol:AllowlistDraggableShares",
        "label": "_totalSupply",
        "offset": 0,
        "slot": "2",
        "type": "t_uint256"
      },
      {
        "astId": 469,
        "contract": "src/shares/AllowlistDraggableShares.sol:AllowlistDraggableShares",
        "label": "decimals",
        "offset": 0,
        "slot": "3",
        "type": "t_uint8"
      },
      {
        "astId": 9830,
        "contract": "src/shares/AllowlistDraggableShares.sol:AllowlistDraggableShares",
        "label": "owner",
        "offset": 1,
        "slot": "3",
        "type": "t_address"
      },
      {
        "astId": 163,
        "contract": "src/shares/AllowlistDraggableShares.sol:AllowlistDraggableShares",
        "label": "restrictTransfers",
        "offset": 21,
        "slot": "3",
        "type": "t_bool"
      },
      {
        "astId": 3273,
        "contract": "src/shares/AllowlistDraggableShares.sol:AllowlistDraggableShares",
        "label": "wrapped",
        "offset": 0,
        "slot": "4",
        "type": "t_contract(IERC20)1124"
      },
      {
        "astId": 3279,
        "contract": "src/shares/AllowlistDraggableShares.sol:AllowlistDraggableShares",
        "label": "unwrapConversionFactor",
        "offset": 0,
        "slot": "5",
        "type": "t_uint256"
      },
      {
        "astId": 3283,
        "contract": "src/shares/AllowlistDraggableShares.sol:AllowlistDraggableShares",
        "label": "offer",
        "offset": 0,
        "slot": "6",
        "type": "t_contract(IOffer)4066"
      },
      {
        "astId": 3293,
        "contract": "src/shares/AllowlistDraggableShares.sol:AllowlistDraggableShares",
        "label": "oracle",
        "offset": 0,
        "slot": "7",
        "type": "t_address"
      },
      {
        "astId": 8048,
        "contract": "src/shares/AllowlistDraggableShares.sol:AllowlistDraggableShares",
        "label": "customCollateralAddress",
        "offset": 0,
        "slot": "8",
        "type": "t_contract(IERC20)1124"
      },
      {
        "astId": 8050,
        "contract": "src/shares/AllowlistDraggableShares.sol:AllowlistDraggableShares",
        "label": "customCollateralRate",
        "offset": 0,
        "slot": "9",
        "type": "t_uint256"
      },
      {
        "astId": 9111,
        "contract": "src/shares/AllowlistDraggableShares.sol:AllowlistDraggableShares",
        "label": "terms",
        "offset": 0,
        "slot": "10",
        "type": "t_string_storage"
      }
    ],
    "types": {
      "t_address": {
        "encoding": "inplace",
        "label": "address",
        "numberOfBytes": "20"
      },
      "t_bool": {
        "encoding": "inplace",
        "label": "bool",
        "numberOfBytes": "1"
      },
      "t_contract(IERC20)1124": {
        "encoding": "inplace",
        "label": "contract IERC20",
        "numberOfBytes": "20"
      },
      "t_contract(IOffer)4066": {
        "encoding": "inplace",
        "label": "contract IOffer",
        "numberOfBytes": "20"
      },
      "t_mapping(t_address,t_mapping(t_address,t_uint256))": {
        "encoding": "mapping",
        "key": "t_address",
        "label": "mapping(address => mapping(address => uint256))",
        "numberOfBytes": "32",
        "value": "t_mapping(t_address,t_uint256)"
      },
      "t_mapping(t_address,t_uint256)": {
        "encoding": "mapping",
        "key": "t_address",
        "label": "mapping(address => uint256)",
        "numberOfBytes": "32",
        "value": "t_uint256"
      },
      "t_string_storage": {
        "encoding": "bytes",
        "label": "string",
        "numberOfBytes": "32"
      },
      "t_uint256": {
        "encoding": "inplace",
        "label": "uint256",
        "numberOfBytes": "32"
      },
      "t_uint8": {
        "encoding": "inplace",
        "label": "uint8",
        "numberOfBytes": "1"
      }
    }
  }
}