{
  "address": "0xD151546e3315Bd3594F4C47DFf81E57Aa9945Ce8",
  "abi": [
    {
      "inputs": [
        {
          "internalType": "string",
          "name": "_symbol",
          "type": "string"
        },
        {
          "internalType": "string",
          "name": "_name",
          "type": "string"
        },
        {
          "internalType": "string",
          "name": "_terms",
          "type": "string"
        },
        {
          "internalType": "uint256",
          "name": "_totalShares",
          "type": "uint256"
        },
        {
          "internalType": "address",
          "name": "_owner",
          "type": "address"
        },
        {
          "internalType": "contract IRecoveryHub",
          "name": "_recoveryHub",
          "type": "address"
        }
      ],
      "stateMutability": "nonpayable",
      "type": "constructor"
    },
    {
      "anonymous": false,
      "inputs": [
        {
          "indexed": false,
          "internalType": "string",
          "name": "message",
          "type": "string"
        }
      ],
      "name": "Announcement",
      "type": "event"
    },
    {
      "anonymous": false,
      "inputs": [
        {
          "indexed": true,
          "internalType": "address",
          "name": "owner",
          "type": "address"
        },
        {
          "indexed": true,
          "internalType": "address",
          "name": "spender",
          "type": "address"
        },
        {
          "indexed": false,
          "internalType": "uint256",
          "name": "value",
          "type": "uint256"
        }
      ],
      "name": "Approval",
      "type": "event"
    },
    {
      "anonymous": false,
      "inputs": [
        {
          "indexed": false,
          "internalType": "string",
          "name": "terms",
          "type": "string"
        }
      ],
      "name": "ChangeTerms",
      "type": "event"
    },
    {
      "anonymous": false,
      "inputs": [
        {
          "indexed": false,
          "internalType": "uint256",
          "name": "total",
          "type": "uint256"
        }
      ],
      "name": "ChangeTotalShares",
      "type": "event"
    },
    {
      "anonymous": false,
      "inputs": [
        {
          "indexed": false,
          "internalType": "string",
          "name": "name",
          "type": "string"
        },
        {
          "indexed": false,
          "internalType": "string",
          "name": "symbol",
          "type": "string"
        }
      ],
      "name": "NameChanged",
      "type": "event"
    },
    {
      "anonymous": false,
      "inputs": [
        {
          "indexed": true,
          "internalType": "address",
          "name": "previousOwner",
          "type": "address"
        },
        {
          "indexed": true,
          "internalType": "address",
          "name": "newOwner",
          "type": "address"
        }
      ],
      "name": "OwnershipTransferred",
      "type": "event"
    },
    {
      "anonymous": false,
      "inputs": [
        {
          "indexed": true,
          "internalType": "address",
          "name": "holder",
          "type": "address"
        },
        {
          "indexed": false,
          "internalType": "uint256",
          "name": "amount",
          "type": "uint256"
        },
        {
          "indexed": false,
          "internalType": "string",
          "name": "message",
          "type": "string"
        }
      ],
      "name": "TokensDeclaredInvalid",
      "type": "event"
    },
    {
      "anonymous": false,
      "inputs": [
        {
          "indexed": true,
          "internalType": "address",
          "name": "from",
          "type": "address"
        },
        {
          "indexed": true,
          "internalType": "address",
          "name": "to",
          "type": "address"
        },
        {
          "indexed": false,
          "internalType": "uint256",
          "name": "value",
          "type": "uint256"
        }
      ],
      "name": "Transfer",
      "type": "event"
    },
    {
      "inputs": [],
      "name": "VERSION",
      "outputs": [
        {
          "internalType": "uint8",
          "name": "",
          "type": "uint8"
        }
      ],
      "stateMutability": "view",
      "type": "function"
    },
    {
      "inputs": [
        {
          "internalType": "address",
          "name": "owner",
          "type": "address"
        },
        {
          "internalType": "address",
          "name": "spender",
          "type": "address"
        }
      ],
      "name": "allowance",
      "outputs": [
        {
          "internalType": "uint256",
          "name": "",
          "type": "uint256"
        }
      ],
      "stateMutability": "view",
      "type": "function"
    },
    {
      "inputs": [
        {
          "internalType": "string",
          "name": "message",
          "type": "string"
        }
      ],
      "name": "announcement",
      "outputs": [],
      "stateMutability": "nonpayable",
      "type": "function"
    },
    {
      "inputs": [
        {
          "internalType": "address",
          "name": "spender",
          "type": "address"
        },
        {
          "internalType": "uint256",
          "name": "value",
          "type": "uint256"
        }
      ],
      "name": "approve",
      "outputs": [
        {
          "internalType": "bool",
          "name": "",
          "type": "bool"
        }
      ],
      "stateMutability": "nonpayable",
      "type": "function"
    },
    {
      "inputs": [
        {
          "internalType": "address",
          "name": "account",
          "type": "address"
        }
      ],
      "name": "balanceOf",
      "outputs": [
        {
          "internalType": "uint256",
          "name": "",
          "type": "uint256"
        }
      ],
      "stateMutability": "view",
      "type": "function"
    },
    {
      "inputs": [
        {
          "internalType": "uint256",
          "name": "_amount",
          "type": "uint256"
        }
      ],
      "name": "burn",
      "outputs": [],
      "stateMutability": "nonpayable",
      "type": "function"
    },
    {
      "inputs": [],
      "name": "claimPeriod",
      "outputs": [
        {
          "internalType": "uint256",
          "name": "",
          "type": "uint256"
        }
      ],
      "stateMutability": "pure",
      "type": "function"
    },
    {
      "inputs": [],
      "name": "customCollateralAddress",
      "outputs": [
        {
          "internalType": "contract IERC20",
          "name": "",
          "type": "address"
        }
      ],
      "stateMutability": "view",
      "type": "function"
    },
    {
      "inputs": [],
      "name": "customCollateralRate",
      "outputs": [
        {
          "internalType": "uint256",
          "name": "",
          "type": "uint256"
        }
      ],
      "stateMutability": "view",
      "type": "function"
    },
    {
      "inputs": [],
      "name": "decimals",
      "outputs": [
        {
          "internalType": "uint8",
          "name": "",
          "type": "uint8"
        }
      ],
      "stateMutability": "view",
      "type": "function"
    },
    {
      "inputs": [
        {
          "internalType": "address",
          "name": "holder",
          "type": "address"
        },
        {
          "internalType": "uint256",
          "name": "amount",
          "type": "uint256"
        },
        {
          "internalType": "string",
          "name": "message",
          "type": "string"
        }
      ],
      "name": "declareInvalid",
      "outputs": [],
      "stateMutability": "nonpayable",
      "type": "function"
    },
    {
      "inputs": [
        {
          "internalType": "address",
          "name": "lostAddress",
          "type": "address"
        }
      ],
      "name": "deleteClaim",
      "outputs": [],
      "stateMutability": "nonpayable",
      "type": "function"
    },
    {
      "inputs": [],
      "name": "getClaimDeleter",
      "outputs": [
        {
          "internalType": "address",
          "name": "",
          "type": "address"
        }
      ],
      "stateMutability": "view",
      "type": "function"
    },
    {
      "inputs": [
        {
          "internalType": "contract IERC20",
          "name": "collateralType",
          "type": "address"
        }
      ],
      "name": "getCollateralRate",
      "outputs": [
        {
          "internalType": "uint256",
          "name": "",
          "type": "uint256"
        }
      ],
      "stateMutability": "view",
      "type": "function"
    },
    {
      "inputs": [
        {
          "internalType": "address",
          "name": "account",
          "type": "address"
        },
        {
          "internalType": "uint8",
          "name": "number",
          "type": "uint8"
        }
      ],
      "name": "hasFlag",
      "outputs": [
        {
          "internalType": "bool",
          "name": "",
          "type": "bool"
        }
      ],
      "stateMutability": "view",
      "type": "function"
    },
    {
      "inputs": [],
      "name": "invalidTokens",
      "outputs": [
        {
          "internalType": "uint256",
          "name": "",
          "type": "uint256"
        }
      ],
      "stateMutability": "view",
      "type": "function"
    },
    {
      "inputs": [
        {
          "internalType": "address",
          "name": "target",
          "type": "address"
        },
        {
          "internalType": "uint256",
          "name": "amount",
          "type": "uint256"
        }
      ],
      "name": "mint",
      "outputs": [],
      "stateMutability": "nonpayable",
      "type": "function"
    },
    {
      "inputs": [
        {
          "internalType": "address",
          "name": "shareholder",
          "type": "address"
        },
        {
          "internalType": "address",
          "name": "callee",
          "type": "address"
        },
        {
          "internalType": "uint256",
          "name": "amount",
          "type": "uint256"
        },
        {
          "internalType": "bytes",
          "name": "data",
          "type": "bytes"
        }
      ],
      "name": "mintAndCall",
      "outputs": [],
      "stateMutability": "nonpayable",
      "type": "function"
    },
    {
      "inputs": [
        {
          "internalType": "address[]",
          "name": "target",
          "type": "address[]"
        },
        {
          "internalType": "uint256[]",
          "name": "amount",
          "type": "uint256[]"
        }
      ],
      "name": "mintMany",
      "outputs": [],
      "stateMutability": "nonpayable",
      "type": "function"
    },
    {
      "inputs": [
        {
          "internalType": "address[]",
          "name": "target",
          "type": "address[]"
        },
        {
          "internalType": "address",
          "name": "callee",
          "type": "address"
        },
        {
          "internalType": "uint256[]",
          "name": "amount",
          "type": "uint256[]"
        },
        {
          "internalType": "bytes",
          "name": "data",
          "type": "bytes"
        }
      ],
      "name": "mintManyAndCall",
      "outputs": [],
      "stateMutability": "nonpayable",
      "type": "function"
    },
    {
      "inputs": [],
      "name": "name",
      "outputs": [
        {
          "internalType": "string",
          "name": "",
          "type": "string"
        }
      ],
      "stateMutability": "view",
      "type": "function"
    },
    {
      "inputs": [
        {
          "internalType": "address",
          "name": "target",
          "type": "address"
        }
      ],
      "name": "notifyClaimDeleted",
      "outputs": [],
      "stateMutability": "nonpayable",
      "type": "function"
    },
    {
      "inputs": [
        {
          "internalType": "address",
          "name": "target",
          "type": "address"
        }
      ],
      "name": "notifyClaimMade",
      "outputs": [],
      "stateMutability": "nonpayable",
      "type": "function"
    },
    {
      "inputs": [],
      "name": "owner",
      "outputs": [
        {
          "internalType": "address",
          "name": "",
          "type": "address"
        }
      ],
      "stateMutability": "view",
      "type": "function"
    },
    {
      "inputs": [
        {
          "internalType": "address",
          "name": "oldAddress",
          "type": "address"
        },
        {
          "internalType": "address",
          "name": "newAddress",
          "type": "address"
        }
      ],
      "name": "recover",
      "outputs": [],
      "stateMutability": "nonpayable",
      "type": "function"
    },
    {
      "inputs": [],
      "name": "recovery",
      "outputs": [
        {
          "internalType": "contract IRecoveryHub",
          "name": "",
          "type": "address"
        }
      ],
      "stateMutability": "view",
      "type": "function"
    },
    {
      "inputs": [
        {
          "internalType": "contract IERC20",
          "name": "collateral",
          "type": "address"
        },
        {
          "internalType": "uint256",
          "name": "rate",
          "type": "uint256"
        }
      ],
      "name": "setCustomClaimCollateral",
      "outputs": [],
      "stateMutability": "nonpayable",
      "type": "function"
    },
    {
      "inputs": [
        {
          "internalType": "string",
          "name": "_symbol",
          "type": "string"
        },
        {
          "internalType": "string",
          "name": "_name",
          "type": "string"
        }
      ],
      "name": "setName",
      "outputs": [],
      "stateMutability": "nonpayable",
      "type": "function"
    },
    {
      "inputs": [
        {
          "internalType": "string",
          "name": "_terms",
          "type": "string"
        }
      ],
      "name": "setTerms",
      "outputs": [],
      "stateMutability": "nonpayable",
      "type": "function"
    },
    {
      "inputs": [
        {
          "internalType": "uint256",
          "name": "_newTotalShares",
          "type": "uint256"
        }
      ],
      "name": "setTotalShares",
      "outputs": [],
      "stateMutability": "nonpayable",
      "type": "function"
    },
    {
      "inputs": [],
      "name": "symbol",
      "outputs": [
        {
          "internalType": "string",
          "name": "",
          "type": "string"
        }
      ],
      "stateMutability": "view",
      "type": "function"
    },
    {
      "inputs": [],
      "name": "terms",
      "outputs": [
        {
          "internalType": "string",
          "name": "",
          "type": "string"
        }
      ],
      "stateMutability": "view",
      "type": "function"
    },
    {
      "inputs": [],
      "name": "totalShares",
      "outputs": [
        {
          "internalType": "uint256",
          "name": "",
          "type": "uint256"
        }
      ],
      "stateMutability": "view",
      "type": "function"
    },
    {
      "inputs": [],
      "name": "totalSupply",
      "outputs": [
        {
          "internalType": "uint256",
          "name": "",
          "type": "uint256"
        }
      ],
      "stateMutability": "view",
      "type": "function"
    },
    {
      "inputs": [],
      "name": "totalValidSupply",
      "outputs": [
        {
          "internalType": "uint256",
          "name": "",
          "type": "uint256"
        }
      ],
      "stateMutability": "view",
      "type": "function"
    },
    {
      "inputs": [
        {
          "internalType": "address",
          "name": "to",
          "type": "address"
        },
        {
          "internalType": "uint256",
          "name": "value",
          "type": "uint256"
        }
      ],
      "name": "transfer",
      "outputs": [
        {
          "internalType": "bool",
          "name": "",
          "type": "bool"
        }
      ],
      "stateMutability": "nonpayable",
      "type": "function"
    },
    {
      "inputs": [
        {
          "internalType": "address",
          "name": "recipient",
          "type": "address"
        },
        {
          "internalType": "uint256",
          "name": "amount",
          "type": "uint256"
        },
        {
          "internalType": "bytes",
          "name": "data",
          "type": "bytes"
        }
      ],
      "name": "transferAndCall",
      "outputs": [
        {
          "internalType": "bool",
          "name": "",
          "type": "bool"
        }
      ],
      "stateMutability": "nonpayable",
      "type": "function"
    },
    {
      "inputs": [
        {
          "internalType": "address",
          "name": "sender",
          "type": "address"
        },
        {
          "internalType": "address",
          "name": "recipient",
          "type": "address"
        },
        {
          "internalType": "uint256",
          "name": "amount",
          "type": "uint256"
        }
      ],
      "name": "transferFrom",
      "outputs": [
        {
          "internalType": "bool",
          "name": "",
          "type": "bool"
        }
      ],
      "stateMutability": "nonpayable",
      "type": "function"
    },
    {
      "inputs": [
        {
          "internalType": "address",
          "name": "newOwner",
          "type": "address"
        }
      ],
      "name": "transferOwnership",
      "outputs": [],
      "stateMutability": "nonpayable",
      "type": "function"
    }
  ],
  "transactionHash": "0x799463df8615bea6bb4e17e230e0be57e9056019cf1b8b61201cdb258026afe5",
  "args": [
    "DAXT",
    "Daxtro Swiss SA Shares",
    "https://www.daxtroswiss.ch/investors",
    "100000",
    "0xbadfF10E63d7Da5e86Dd7fbB5AE4611f0C535145",
    "0x2b2B237d8f9a42706bdCD4083C20a2b799C8B45C"
  ],
  "numDeployments": 1,
  "solcInputHash": "f0ebb86cb6b715445294d8c52eae0133",
  "bytecode": "0x60a06040523480156200001157600080fd5b5060405162002263380380620022638339810160408190526200003491620002e2565b6003805460ff19169055606081901b6001600160601b031916608052600580546001600160a01b0319166001600160a01b03841690811790915560405187918791600091869182919084907f8be0079c531659141344cd1fd0a4f28419497f9722a3daafe3b4186f6b6457e0908290a350620000b1848462000140565b5050506009849055508351620000cf906008906020870190620001ab565b506000600a819055604051636427ed9760e01b815260048101919091526001600160a01b03821690636427ed9790602401600060405180830381600087803b1580156200011b57600080fd5b505af115801562000130573d6000803e3d6000fd5b50505050505050505050620004a7565b815162000155906007906020850190620001ab565b5080516200016b906006906020840190620001ab565b507f6c20b91d1723b78732eba64ff11ebd7966a6e4af568a00fa4f6b72c20f58b02a81836040516200019f929190620003d6565b60405180910390a15050565b828054620001b9906200043b565b90600052602060002090601f016020900481019282620001dd576000855562000228565b82601f10620001f857805160ff191683800117855562000228565b8280016001018555821562000228579182015b82811115620002285782518255916020019190600101906200020b565b50620002369291506200023a565b5090565b5b808211156200023657600081556001016200023b565b600082601f8301126200026357600080fd5b81516001600160401b038082111562000280576200028062000478565b604051601f8301601f19908116603f01168101908282118183101715620002ab57620002ab62000478565b81604052838152866020858801011115620002c557600080fd5b620002d884602083016020890162000408565b9695505050505050565b60008060008060008060c08789031215620002fc57600080fd5b86516001600160401b03808211156200031457600080fd5b620003228a838b0162000251565b975060208901519150808211156200033957600080fd5b620003478a838b0162000251565b965060408901519150808211156200035e57600080fd5b506200036d89828a0162000251565b94505060608701519250608087015162000387816200048e565b60a08801519092506200039a816200048e565b809150509295509295509295565b60008151808452620003c281602086016020860162000408565b601f01601f19169290920160200192915050565b604081526000620003eb6040830185620003a8565b8281036020840152620003ff8185620003a8565b95945050505050565b60005b83811015620004255781810151838201526020016200040b565b8381111562000435576000848401525b50505050565b600181811c908216806200045057607f821691505b602082108114156200047257634e487b7160e01b600052602260045260246000fd5b50919050565b634e487b7160e01b600052604160045260246000fd5b6001600160a01b0381168114620004a457600080fd5b50565b60805160601c611d7a620004e9600039600081816104da0152818161074801528181610bdc01528181610dfb01528181610e5d01526112810152611d7a6000f3fe608060405234801561001057600080fd5b506004361061023d5760003560e01c8063609181171161013b578063b0d04c7a116100b8578063e5b824ec1161007c578063e5b824ec146104fc578063f2fde38b1461050f578063f54fc06014610522578063f5c0b95f14610535578063ffa1ad741461054857600080fd5b8063b0d04c7a14610479578063c18172c414610481578063d502562514610494578063dd62ed3e1461049c578063ddceafa9146104d557600080fd5b80637dc2cd98116100ff5780637dc2cd981461042f5780638da5cb5b1461043857806395d89b411461044b578063a77384c114610453578063a9059cbb1461046657600080fd5b806360918117146103da578063648bf774146103e357806370a08231146103f657806377e071ad1461040957806378f86afc1461041c57600080fd5b806337a8129c116101c957806340c10f191161018d57806340c10f191461037b57806342966c681461038e578063487346b2146103a15780635c707f07146103b45780635d6624b7146103c757600080fd5b806337a8129c146103305780633a1cdf32146103395780633a98ef391461034c5780634000aea0146103555780634029a3ce1461036857600080fd5b80631f0f06aa116102105780631f0f06aa146102c557806323b872dd146102da5780632a0a4ed5146102ed578063313ce567146102fe57806332a7ae951461031d57600080fd5b806306fdde0314610242578063095ea7b3146102605780630c6f0e5d1461028357806318160ddd146102b3575b600080fd5b61024a610550565b6040516102579190611ba8565b60405180910390f35b61027361026e366004611803565b6105de565b6040519015158152602001610257565b60035461029b9061010090046001600160a01b031681565b6040516001600160a01b039091168152602001610257565b6002545b604051908152602001610257565b6102d86102d33660046119f0565b6105f4565b005b6102736102e836600461174f565b610664565b6005546001600160a01b031661029b565b60035461030b9060ff1681565b60405160ff9091168152602001610257565b6102d861032b3660046116f9565b6106db565b6102b7600a5481565b6102d8610347366004611803565b6107a7565b6102b760095481565b61027361036336600461182f565b6107df565b6102d861037636600461196e565b61087f565b6102d8610389366004611803565b610923565b6102d861039c366004611ad3565b610957565b6102d86103af3660046118bf565b61096f565b6102d86103c2366004611a6f565b610abf565b6102d86103d536600461182f565b610af3565b6102b760045481565b6102d86103f1366004611716565b610bd1565b6102b76104043660046116f9565b610c2c565b6102b76104173660046116f9565b610c50565b6102d861042a366004611a32565b610c96565b62ed4e006102b7565b60055461029b906001600160a01b031681565b61024a610d0e565b6102d8610461366004611ad3565b610d1b565b610273610474366004611803565b610dc0565b6102b7610dd3565b6102d861048f3660046116f9565b610df0565b61024a610e45565b6102b76104aa366004611716565b6001600160a01b03918216600090815260016020908152604080832093909416825291909152205490565b61029b7f000000000000000000000000000000000000000000000000000000000000000081565b6102d861050a3660046116f9565b610e52565b6102d861051d3660046116f9565b610ea7565b6102d8610530366004611790565b610f2d565b61027361054336600461188b565b610fc4565b61030b600281565b6006805461055d90611c97565b80601f016020809104026020016040519081016040528092919081815260200182805461058990611c97565b80156105d65780601f106105ab576101008083540402835291602001916105d6565b820191906000526020600020905b8154815290600101906020018083116105b957829003601f168201915b505050505081565b60006105eb338484610fd0565b50600192915050565b6005546001600160a01b031633146106275760405162461bcd60e51b815260040161061e90611c06565b60405180910390fd5b7f07ce702fc13ca0620c174dab22996a6d5fd9e7accb663555a4e85323692706ba8282604051610658929190611b94565b60405180910390a15050565b6000610671848484611032565b6001600160a01b0384166000908152600160209081526040808320338452909152902054600160ff1b8110156106d0576106ab8382611c80565b6001600160a01b03861660009081526001602090815260408083203384529091529020555b506001949350505050565b6005546001600160a01b031633146107295760405162461bcd60e51b81526020600482015260116024820152703737ba1031b630b4b6903232b632ba32b960791b604482015260640161061e565b6040516332a7ae9560e01b81526001600160a01b0382811660048301527f000000000000000000000000000000000000000000000000000000000000000016906332a7ae9590602401600060405180830381600087803b15801561078c57600080fd5b505af11580156107a0573d6000803e3d6000fd5b5050505050565b6005546001600160a01b031633146107d15760405162461bcd60e51b815260040161061e90611c06565b6107db828261108b565b5050565b60006107eb8585610dc0565b80156108765750604051635260769b60e11b81526001600160a01b0386169063a4c0ed3690610824903390889088908890600401611b62565b602060405180830381600087803b15801561083e57600080fd5b505af1158015610852573d6000803e3d6000fd5b505050506040513d601f19601f8201168201806040525081019061087691906119ce565b95945050505050565b6005546001600160a01b031633146108a95760405162461bcd60e51b815260040161061e90611c06565b828181146108b657600080fd5b60005b8181101561091b576109098686838181106108d6576108d6611d03565b90506020020160208101906108eb91906116f9565b8585848181106108fd576108fd611d03565b90506020020135611102565b8061091381611cd2565b9150506108b9565b505050505050565b6005546001600160a01b0316331461094d5760405162461bcd60e51b815260040161061e90611c06565b6107db8282611102565b610962333083611032565b61096c3082611158565b50565b8583811461097c57600080fd5b6000805b828110156109c05786868281811061099a5761099a611d03565b90506020020135826109ac9190611c43565b9150806109b881611cd2565b915050610980565b506109cb8782610923565b60005b82811015610ab357876001600160a01b031663a4c0ed368b8b848181106109f7576109f7611d03565b9050602002016020810190610a0c91906116f9565b898985818110610a1e57610a1e611d03565b9050602002013588886040518563ffffffff1660e01b8152600401610a469493929190611b62565b602060405180830381600087803b158015610a6057600080fd5b505af1158015610a74573d6000803e3d6000fd5b505050506040513d601f19601f82011682018060405250810190610a9891906119ce565b610aa157600080fd5b80610aab81611cd2565b9150506109ce565b50505050505050505050565b6005546001600160a01b03163314610ae95760405162461bcd60e51b815260040161061e90611c06565b6107db82826111c0565b6005546001600160a01b03163314610b1d5760405162461bcd60e51b815260040161061e90611c06565b6000610b2885610c2c565b905080841115610b6c5760405162461bcd60e51b815260206004820152600f60248201526e0c2dadeeadce840e8dede40d0d2ced608b1b604482015260640161061e565b83600a6000828254610b7e9190611c43565b92505081905550846001600160a01b03167f0a605cd1294f60fa3b73548ac68428f33300a051f225afcdcc75e56083c96ee7858585604051610bc293929190611c29565b60405180910390a25050505050565b336001600160a01b037f00000000000000000000000000000000000000000000000000000000000000001614610c195760405162461bcd60e51b815260040161061e90611be0565b6107db8282610c2785610c2c565b611032565b6001600160a01b03166000908152602081905260409020546001600160e01b031690565b60006001600160a01b038216301415610c6b57506001919050565b6003546001600160a01b03838116610100909204161415610c8e57505060045490565b506000919050565b6005546001600160a01b03163314610cc05760405162461bcd60e51b815260040161061e90611c06565b8051610cd3906008906020840190611545565b507fe9f2468ecc8d3dff15a70a5909151e6297cee4cf05268eff3d7ef0c696ec50f281604051610d039190611ba8565b60405180910390a150565b6007805461055d90611c97565b6005546001600160a01b03163314610d455760405162461bcd60e51b815260040161061e90611c06565b610d4d610dd3565b811015610d8b5760405162461bcd60e51b815260206004820152600c60248201526b62656c6f7720737570706c7960a01b604482015260640161061e565b60098190556040518181527fdcbf73bf1e396dbe03ccbcd29c0aa52eb8028ae24726098296357286de4f5b2690602001610d03565b6000610dcc8383611219565b9392505050565b6000600a54610de160025490565b610deb9190611c80565b905090565b336001600160a01b037f00000000000000000000000000000000000000000000000000000000000000001614610e385760405162461bcd60e51b815260040161061e90611be0565b61096c81600a60016112ee565b6008805461055d90611c97565b336001600160a01b037f00000000000000000000000000000000000000000000000000000000000000001614610e9a5760405162461bcd60e51b815260040161061e90611be0565b61096c81600a60006112ee565b6005546001600160a01b03163314610ed15760405162461bcd60e51b815260040161061e90611c06565b6005546040516001600160a01b038084169216907f8be0079c531659141344cd1fd0a4f28419497f9722a3daafe3b4186f6b6457e090600090a3600580546001600160a01b0319166001600160a01b0392909216919091179055565b610f378484610923565b604051635260769b60e11b81526001600160a01b0385169063a4c0ed3690610f69908890879087908790600401611b62565b602060405180830381600087803b158015610f8357600080fd5b505af1158015610f97573d6000803e3d6000fd5b505050506040513d601f19601f82011682018060405250810190610fbb91906119ce565b6107a057600080fd5b6000610dcc8383611352565b6001600160a01b0383811660008181526001602090815260408083209487168084529482529182902085905590518481527f8c5be1e5ebec7d5bd14f71427d1e84f3dd0314c0f7b2291e5b200ac8c7c3b92591015b60405180910390a3505050565b61103c8382611392565b6110468282611428565b816001600160a01b0316836001600160a01b03167fddf252ad1be2c89b69c2b068fc378daa952ba7f163c4a11628f55a4df523b3ef8360405161102591815260200190565b60038054610100600160a81b0319166101006001600160a01b0385811682029290921792839055909104166110c35760006004555050565b600081116110fc5760405162461bcd60e51b815260040161061e906020808252600490820152637a65726f60e01b604082015260600190565b60045550565b6009548161110e610dd3565b6111189190611c43565b111561114e5760405162461bcd60e51b81526020600482015260056024820152641d1bdd185b60da1b604482015260640161061e565b6107db82826114d8565b806002600082825461116a9190611c80565b9091555061117a90508282611392565b6040518181526000906001600160a01b038416907fddf252ad1be2c89b69c2b068fc378daa952ba7f163c4a11628f55a4df523b3ef906020015b60405180910390a35050565b81516111d3906007906020850190611545565b5080516111e7906006906020840190611545565b507f6c20b91d1723b78732eba64ff11ebd7966a6e4af568a00fa4f6b72c20f58b02a8183604051610658929190611bbb565b60006112258383611538565b61125c5760405162461bcd60e51b81526020600482015260086024820152673a3930b739b332b960c11b604482015260640161061e565b61126733600a611352565b156105eb576040516304d301a360e41b81523360048201527f00000000000000000000000000000000000000000000000000000000000000006001600160a01b031690634d301a3090602401600060405180830381600087803b1580156112cd57600080fd5b505af11580156112e1573d6000803e3d6000fd5b5050505050600192915050565b60006112fb8360e0611c5b565b6001600160a01b038516600090815260208190526040902054600160ff929092169190911b91508082168214831515146107a0576001600160a01b0394909416600090815260208190526040902093189092555050565b6000806113608360e0611c5b565b6001600160a01b038516600090815260208190526040902054600160ff929092169190911b9081161491505092915050565b6001600160a01b038216600090815260208190526040812054906113b68383611c80565b90506001600160e01b031981166001600160e01b03198316146114075760405162461bcd60e51b8152602060048201526009602482015268756e646572666c6f7760b81b604482015260640161061e565b6001600160a01b039093166000908152602081905260409020929092555050565b6001600160a01b0382166114645760405162461bcd60e51b815260206004820152600360248201526203078360ec1b604482015260640161061e565b6001600160a01b038216600090815260208190526040812054906114888383611c43565b90506001600160e01b031981166001600160e01b03198316146114075760405162461bcd60e51b81526020600482015260086024820152676f766572666c6f7760c01b604482015260640161061e565b80600260008282546114ea9190611c43565b909155506114fa90508282611428565b6040518181526001600160a01b038316906000907fddf252ad1be2c89b69c2b068fc378daa952ba7f163c4a11628f55a4df523b3ef906020016111b4565b60006105eb338484611032565b82805461155190611c97565b90600052602060002090601f01602090048101928261157357600085556115b9565b82601f1061158c57805160ff19168380011785556115b9565b828001600101855582156115b9579182015b828111156115b957825182559160200191906001019061159e565b506115c59291506115c9565b5090565b5b808211156115c557600081556001016115ca565b60008083601f8401126115f057600080fd5b50813567ffffffffffffffff81111561160857600080fd5b6020830191508360208260051b850101111561162357600080fd5b9250929050565b60008083601f84011261163c57600080fd5b50813567ffffffffffffffff81111561165457600080fd5b60208301915083602082850101111561162357600080fd5b600082601f83011261167d57600080fd5b813567ffffffffffffffff8082111561169857611698611d19565b604051601f8301601f19908116603f011681019082821181831017156116c0576116c0611d19565b816040528381528660208588010111156116d957600080fd5b836020870160208301376000602085830101528094505050505092915050565b60006020828403121561170b57600080fd5b8135610dcc81611d2f565b6000806040838503121561172957600080fd5b823561173481611d2f565b9150602083013561174481611d2f565b809150509250929050565b60008060006060848603121561176457600080fd5b833561176f81611d2f565b9250602084013561177f81611d2f565b929592945050506040919091013590565b6000806000806000608086880312156117a857600080fd5b85356117b381611d2f565b945060208601356117c381611d2f565b935060408601359250606086013567ffffffffffffffff8111156117e657600080fd5b6117f28882890161162a565b969995985093965092949392505050565b6000806040838503121561181657600080fd5b823561182181611d2f565b946020939093013593505050565b6000806000806060858703121561184557600080fd5b843561185081611d2f565b935060208501359250604085013567ffffffffffffffff81111561187357600080fd5b61187f8782880161162a565b95989497509550505050565b6000806040838503121561189e57600080fd5b82356118a981611d2f565b9150602083013560ff8116811461174457600080fd5b60008060008060008060006080888a0312156118da57600080fd5b873567ffffffffffffffff808211156118f257600080fd5b6118fe8b838c016115de565b909950975060208a0135915061191382611d2f565b9095506040890135908082111561192957600080fd5b6119358b838c016115de565b909650945060608a013591508082111561194e57600080fd5b5061195b8a828b0161162a565b989b979a50959850939692959293505050565b6000806000806040858703121561198457600080fd5b843567ffffffffffffffff8082111561199c57600080fd5b6119a8888389016115de565b909650945060208701359150808211156119c157600080fd5b5061187f878288016115de565b6000602082840312156119e057600080fd5b81518015158114610dcc57600080fd5b60008060208385031215611a0357600080fd5b823567ffffffffffffffff811115611a1a57600080fd5b611a268582860161162a565b90969095509350505050565b600060208284031215611a4457600080fd5b813567ffffffffffffffff811115611a5b57600080fd5b611a678482850161166c565b949350505050565b60008060408385031215611a8257600080fd5b823567ffffffffffffffff80821115611a9a57600080fd5b611aa68683870161166c565b93506020850135915080821115611abc57600080fd5b50611ac98582860161166c565b9150509250929050565b600060208284031215611ae557600080fd5b5035919050565b81835281816020850137506000828201602090810191909152601f909101601f19169091010190565b6000815180845260005b81811015611b3b57602081850181015186830182015201611b1f565b81811115611b4d576000602083870101525b50601f01601f19169290920160200192915050565b60018060a01b0385168152836020820152606060408201526000611b8a606083018486611aec565b9695505050505050565b602081526000611a67602083018486611aec565b602081526000610dcc6020830184611b15565b604081526000611bce6040830185611b15565b82810360208401526108768185611b15565b6020808252600c908201526b6e6f74207265636f7665727960a01b604082015260600190565b6020808252600990820152683737ba1037bbb732b960b91b604082015260600190565b838152604060208201526000610876604083018486611aec565b60008219821115611c5657611c56611ced565b500190565b600060ff821660ff84168060ff03821115611c7857611c78611ced565b019392505050565b600082821015611c9257611c92611ced565b500390565b600181811c90821680611cab57607f821691505b60208210811415611ccc57634e487b7160e01b600052602260045260246000fd5b50919050565b6000600019821415611ce657611ce6611ced565b5060010190565b634e487b7160e01b600052601160045260246000fd5b634e487b7160e01b600052603260045260246000fd5b634e487b7160e01b600052604160045260246000fd5b6001600160a01b038116811461096c57600080fdfea264697066735822122055295ad2023012dcd598ec287fdc91f69a59b18e057ed94dd08368b28b65afe264736f6c63430008070033",
  "devdoc": {
    "author": "Luzius Meisser, luzius@aktionariat.com These tokens represent ledger-based securities according to article 973d of the Swiss Code of Obligations. This smart contract serves as an ownership registry, enabling the token holders to register them as shareholders in the issuer's shareholder registry. This is equivalent to the traditional system of having physical share certificates kept at home by the shareholders and a shareholder registry run by the company. Just like with physical certificates, the owners of the tokens are the owners of the shares. However, in order to exercise their rights (for example receive a dividend), shareholders must register themselves. For example, in case the company pays out a dividend to a previous shareholder because the current shareholder did not register, the company cannot be held liable for paying the dividend to the \"wrong\" shareholder. In relation to the company, only the registered shareholders count as such.",
    "kind": "dev",
    "methods": {
      "allowance(address,address)": {
        "details": "See `IERC20.allowance`."
      },
      "approve(address,uint256)": {
        "details": "See `IERC20.approve`. Requirements: - `spender` cannot be the zero address."
      },
      "balanceOf(address)": {
        "details": "See `IERC20.balanceOf`."
      },
      "totalSupply()": {
        "details": "See `IERC20.totalSupply`."
      },
      "transferFrom(address,address,uint256)": {
        "details": "See `IERC20.transferFrom`. Emits an `Approval` event indicating the updated allowance. This is not required by the EIP. See the note at the beginning of `ERC20`; Requirements: - `sender` and `recipient` cannot be the zero address. - `sender` must have a balance of at least `value`. - the caller must have allowance for `sender`'s tokens of at least `amount`."
      },
      "transferOwnership(address)": {
        "details": "Transfers ownership of the contract to a new account (`newOwner`). Can only be called by the current owner."
      }
    },
    "title": "CompanyName AG Shares",
    "version": 1
  },
  "userdoc": {
    "kind": "user",
    "methods": {
      "announcement(string)": {
        "notice": "Allows the issuer to make public announcements that are visible on the blockchain."
      },
      "burn(uint256)": {
        "notice": "Transfers _amount tokens to the company and burns them. The meaning of this operation depends on the circumstances and the fate of the shares does not necessarily follow the fate of the tokens. For example, the company itself might call this function to implement a formal decision to destroy some of the outstanding shares. Also, this function might be called by an owner to return the shares to the company and get them back in another form under an according agreement (e.g. printed certificates or tokens on a different blockchain). It is not recommended to call this function without having agreed with the company on the further fate of the shares in question."
      },
      "declareInvalid(address,uint256,string)": {
        "notice": "Signals that the indicated tokens have been declared invalid (e.g. by a court ruling in accordance with article 973g of the Swiss Code of Obligations) and got detached from the underlying shares. Invalid tokens do not carry any shareholder rights any more. This function is purely declarative. It does not technically immobilize the affected tokens as that would give the issuer too much power."
      },
      "getCollateralRate(address)": {
        "notice": "Returns the collateral rate for the given collateral type and 0 if that type of collateral is not accepted. By default, only the token itself is accepted at a rate of 1:1. Subclasses should override this method if they want to add additional types of collateral."
      },
      "mintAndCall(address,address,uint256,bytes)": {
        "notice": "Allows the company to tokenize shares and transfer them e.g to the draggable contract and wrap them. If these shares are newly created, setTotalShares must be called first in order to adjust the total number of shares."
      },
      "setCustomClaimCollateral(address,uint256)": {
        "notice": "See parent method for collateral requirements."
      },
      "setTotalShares(uint256)": {
        "notice": "Declares the number of total shares, including those that have not been tokenized and those that are held by the company itself. This number can be substiantially higher than totalSupply() in case not all shares have been tokenized. Also, it can be lower than totalSupply() in case some tokens have become invalid."
      },
      "totalValidSupply()": {
        "notice": "The total number of valid tokens in circulation. In case some tokens have been declared invalid, this number might be lower than totalSupply(). Also, it will always be lower than or equal to totalShares()."
      }
    },
    "version": 1
  },
  "storageLayout": {
    "storage": [
      {
        "astId": 332,
        "contract": "src/shares/Shares.sol:Shares",
        "label": "_balances",
        "offset": 0,
        "slot": "0",
        "type": "t_mapping(t_address,t_uint256)"
      },
      {
        "astId": 338,
        "contract": "src/shares/Shares.sol:Shares",
        "label": "_allowances",
        "offset": 0,
        "slot": "1",
        "type": "t_mapping(t_address,t_mapping(t_address,t_uint256))"
      },
      {
        "astId": 340,
        "contract": "src/shares/Shares.sol:Shares",
        "label": "_totalSupply",
        "offset": 0,
        "slot": "2",
        "type": "t_uint256"
      },
      {
        "astId": 343,
        "contract": "src/shares/Shares.sol:Shares",
        "label": "decimals",
        "offset": 0,
        "slot": "3",
        "type": "t_uint8"
      },
      {
        "astId": 3949,
        "contract": "src/shares/Shares.sol:Shares",
        "label": "customCollateralAddress",
        "offset": 1,
        "slot": "3",
        "type": "t_contract(IERC20)998"
      },
      {
        "astId": 3951,
        "contract": "src/shares/Shares.sol:Shares",
        "label": "customCollateralRate",
        "offset": 0,
        "slot": "4",
        "type": "t_uint256"
      },
      {
        "astId": 5639,
        "contract": "src/shares/Shares.sol:Shares",
        "label": "owner",
        "offset": 0,
        "slot": "5",
        "type": "t_address"
      },
      {
        "astId": 842,
        "contract": "src/shares/Shares.sol:Shares",
        "label": "name",
        "offset": 0,
        "slot": "6",
        "type": "t_string_storage"
      },
      {
        "astId": 845,
        "contract": "src/shares/Shares.sol:Shares",
        "label": "symbol",
        "offset": 0,
        "slot": "7",
        "type": "t_string_storage"
      },
      {
        "astId": 5194,
        "contract": "src/shares/Shares.sol:Shares",
        "label": "terms",
        "offset": 0,
        "slot": "8",
        "type": "t_string_storage"
      },
      {
        "astId": 5197,
        "contract": "src/shares/Shares.sol:Shares",
        "label": "totalShares",
        "offset": 0,
        "slot": "9",
        "type": "t_uint256"
      },
      {
        "astId": 5199,
        "contract": "src/shares/Shares.sol:Shares",
        "label": "invalidTokens",
        "offset": 0,
        "slot": "10",
        "type": "t_uint256"
      }
    ],
    "types": {
      "t_address": {
        "encoding": "inplace",
        "label": "address",
        "numberOfBytes": "20"
      },
      "t_contract(IERC20)998": {
        "encoding": "inplace",
        "label": "contract IERC20",
        "numberOfBytes": "20"
      },
      "t_mapping(t_address,t_mapping(t_address,t_uint256))": {
        "encoding": "mapping",
        "key": "t_address",
        "label": "mapping(address => mapping(address => uint256))",
        "numberOfBytes": "32",
        "value": "t_mapping(t_address,t_uint256)"
      },
      "t_mapping(t_address,t_uint256)": {
        "encoding": "mapping",
        "key": "t_address",
        "label": "mapping(address => uint256)",
        "numberOfBytes": "32",
        "value": "t_uint256"
      },
      "t_string_storage": {
        "encoding": "bytes",
        "label": "string",
        "numberOfBytes": "32"
      },
      "t_uint256": {
        "encoding": "inplace",
        "label": "uint256",
        "numberOfBytes": "32"
      },
      "t_uint8": {
        "encoding": "inplace",
        "label": "uint8",
        "numberOfBytes": "1"
      }
    }
  }
}