{
  "address": "0x555E7852d4ab6F8C557F9Bc6d17ADdb8c7911d78",
  "abi": [
    {
      "inputs": [
        {
          "internalType": "address",
          "name": "_owner",
          "type": "address"
        }
      ],
      "stateMutability": "nonpayable",
      "type": "constructor"
    },
    {
      "inputs": [
        {
          "internalType": "address",
          "name": "sender",
          "type": "address"
        }
      ],
      "name": "Ownable_NotOwner",
      "type": "error"
    },
    {
      "anonymous": false,
      "inputs": [
        {
          "indexed": true,
          "internalType": "contract MultiSigCloneFactory",
          "name": "MultiSigCloneFactory",
          "type": "address"
        }
      ],
      "name": "MultiSigCloneFactoryUpdated",
      "type": "event"
    },
    {
      "anonymous": false,
      "inputs": [
        {
          "indexed": true,
          "internalType": "contract IOfferFactory",
          "name": "offerFactory",
          "type": "address"
        }
      ],
      "name": "OfferFactoryUpdated",
      "type": "event"
    },
    {
      "anonymous": false,
      "inputs": [
        {
          "indexed": true,
          "internalType": "address",
          "name": "previousOwner",
          "type": "address"
        },
        {
          "indexed": true,
          "internalType": "address",
          "name": "newOwner",
          "type": "address"
        }
      ],
      "name": "OwnershipTransferred",
      "type": "event"
    },
    {
      "anonymous": false,
      "inputs": [
        {
          "indexed": true,
          "internalType": "contract PaymentHub",
          "name": "paymentHub",
          "type": "address"
        }
      ],
      "name": "PaymentHubUpdated",
      "type": "event"
    },
    {
      "anonymous": false,
      "inputs": [
        {
          "indexed": true,
          "internalType": "contract Permit2Hub",
          "name": "permit2Hub",
          "type": "address"
        }
      ],
      "name": "Permit2HubUpdated",
      "type": "event"
    },
    {
      "anonymous": false,
      "inputs": [
        {
          "indexed": true,
          "internalType": "contract RecoveryHub",
          "name": "recoveryHub",
          "type": "address"
        }
      ],
      "name": "RecoveryHubUpdated",
      "type": "event"
    },
    {
      "inputs": [],
      "name": "multisigFactory",
      "outputs": [
        {
          "internalType": "contract MultiSigCloneFactory",
          "name": "",
          "type": "address"
        }
      ],
      "stateMutability": "view",
      "type": "function"
    },
    {
      "inputs": [],
      "name": "offerFactory",
      "outputs": [
        {
          "internalType": "contract IOfferFactory",
          "name": "",
          "type": "address"
        }
      ],
      "stateMutability": "view",
      "type": "function"
    },
    {
      "inputs": [],
      "name": "owner",
      "outputs": [
        {
          "internalType": "address",
          "name": "",
          "type": "address"
        }
      ],
      "stateMutability": "view",
      "type": "function"
    },
    {
      "inputs": [],
      "name": "paymentHub",
      "outputs": [
        {
          "internalType": "contract PaymentHub",
          "name": "",
          "type": "address"
        }
      ],
      "stateMutability": "view",
      "type": "function"
    },
    {
      "inputs": [],
      "name": "permit2Hub",
      "outputs": [
        {
          "internalType": "contract Permit2Hub",
          "name": "",
          "type": "address"
        }
      ],
      "stateMutability": "view",
      "type": "function"
    },
    {
      "inputs": [],
      "name": "recoveryHub",
      "outputs": [
        {
          "internalType": "contract RecoveryHub",
          "name": "",
          "type": "address"
        }
      ],
      "stateMutability": "view",
      "type": "function"
    },
    {
      "inputs": [
        {
          "internalType": "contract MultiSigCloneFactory",
          "name": "_multsigFactory",
          "type": "address"
        }
      ],
      "name": "setMultiSigCloneFactory",
      "outputs": [],
      "stateMutability": "nonpayable",
      "type": "function"
    },
    {
      "inputs": [
        {
          "internalType": "contract IOfferFactory",
          "name": "_offerFactory",
          "type": "address"
        }
      ],
      "name": "setOfferFactory",
      "outputs": [],
      "stateMutability": "nonpayable",
      "type": "function"
    },
    {
      "inputs": [
        {
          "internalType": "contract PaymentHub",
          "name": "_paymentHub",
          "type": "address"
        }
      ],
      "name": "setPaymentHub",
      "outputs": [],
      "stateMutability": "nonpayable",
      "type": "function"
    },
    {
      "inputs": [
        {
          "internalType": "contract Permit2Hub",
          "name": "_permit2Hub",
          "type": "address"
        }
      ],
      "name": "setPermit2Hub",
      "outputs": [],
      "stateMutability": "nonpayable",
      "type": "function"
    },
    {
      "inputs": [
        {
          "internalType": "contract RecoveryHub",
          "name": "_recoveryHub",
          "type": "address"
        }
      ],
      "name": "setRecoveryHub",
      "outputs": [],
      "stateMutability": "nonpayable",
      "type": "function"
    },
    {
      "inputs": [
        {
          "internalType": "address",
          "name": "newOwner",
          "type": "address"
        }
      ],
      "name": "transferOwnership",
      "outputs": [],
      "stateMutability": "nonpayable",
      "type": "function"
    }
  ],
  "transactionHash": "0xe02fc0e5045aa6ff8cde9f8e1679f85cc2e331bf06733e8eb6992aad2b028817",
  "args": [
    "0x39E5351E6CE3c4B19B8b0a2F5C82c511782457BE"
  ],
  "numDeployments": 1,
  "solcInputHash": "fbfce4baef09e773f8a212fa825204ca",
  "bytecode": "0x6080604052348015600f57600080fd5b50604051610514380380610514833981016040819052602c91607a565b600080546001600160a01b0319166001600160a01b03831690811782556040518392907f8be0079c531659141344cd1fd0a4f28419497f9722a3daafe3b4186f6b6457e0908290a3505060a8565b600060208284031215608b57600080fd5b81516001600160a01b038116811460a157600080fd5b9392505050565b61045d806100b76000396000f3fe608060405234801561001057600080fd5b50600436106100b45760003560e01c80639b610c21116100715780639b610c2114610149578063c4e61be21461015c578063d0b031e51461016f578063ecd7cf7814610182578063f2fde38b14610195578063fff4da1f146101a857600080fd5b806318efcce5146100b9578063421b58d6146100e85780634f1a73db146100fb578063645beb0d146101105780638da5cb5b146101235780639220623b14610136575b600080fd5b6005546100cc906001600160a01b031681565b6040516001600160a01b03909116815260200160405180910390f35b6002546100cc906001600160a01b031681565b61010e610109366004610403565b6101bb565b005b61010e61011e366004610403565b61020d565b6000546100cc906001600160a01b031681565b6004546100cc906001600160a01b031681565b61010e610157366004610403565b61025f565b6003546100cc906001600160a01b031681565b61010e61017d366004610403565b6102b1565b6001546100cc906001600160a01b031681565b61010e6101a3366004610403565b610303565b61010e6101b6366004610403565b610366565b6101c36103b8565b600580546001600160a01b0319166001600160a01b0383169081179091556040517f90864ea4b001bddde3f867a70a90ac9379f6ba38b0663f685f30716f261300a390600090a250565b6102156103b8565b600280546001600160a01b0319166001600160a01b0383169081179091556040517fec3e4bd3c8d481920b54e812c0ddb28e0daa7c6b5250de3e4364c21a5249f3c390600090a250565b6102676103b8565b600180546001600160a01b0319166001600160a01b0383169081179091556040517f284989f10a03f8bcf05a3ff020487a642ff3360daeef38c5a5de081931cb566290600090a250565b6102b96103b8565b600480546001600160a01b0319166001600160a01b0383169081179091556040517f62b9668a4618e3853007ed5838d2ddcdf7581327fa1a82d6b29659c1d2149e4090600090a250565b61030b6103b8565b600080546040516001600160a01b03808516939216917f8be0079c531659141344cd1fd0a4f28419497f9722a3daafe3b4186f6b6457e091a3600080546001600160a01b0319166001600160a01b0392909216919091179055565b61036e6103b8565b600380546001600160a01b0319166001600160a01b0383169081179091556040517fe9074b903af6e04fa64fd837453b5fcca6585108a57c9e8098632d0beacbb9cc90600090a250565b6000546001600160a01b031633146103e9576040516396a19be960e01b815233600482015260240160405180910390fd5b565b6001600160a01b038116811461040057600080fd5b50565b60006020828403121561041557600080fd5b8135610420816103eb565b939250505056fea2646970667358221220e4641dc320b68506bec42438c921100854af3c7197eddfb4f6c8d6d839464a0964736f6c63430008190033",
  "devdoc": {
    "author": "rube ",
    "kind": "dev",
    "methods": {
      "transferOwnership(address)": {
        "details": "Transfers ownership of the contract to a new account (`newOwner`). Can only be called by the current owner."
      }
    },
    "title": "Factory Mangager for common contracts",
    "version": 1
  },
  "userdoc": {
    "kind": "user",
    "methods": {},
    "version": 1
  },
  "storageLayout": {
    "storage": [
      {
        "astId": 9406,
        "contract": "src/utils/factory/FactoryManager.sol:FactoryManager",
        "label": "owner",
        "offset": 0,
        "slot": "0",
        "type": "t_address"
      },
      {
        "astId": 10373,
        "contract": "src/utils/factory/FactoryManager.sol:FactoryManager",
        "label": "offerFactory",
        "offset": 0,
        "slot": "1",
        "type": "t_contract(IOfferFactory)5797"
      },
      {
        "astId": 10376,
        "contract": "src/utils/factory/FactoryManager.sol:FactoryManager",
        "label": "multisigFactory",
        "offset": 0,
        "slot": "2",
        "type": "t_contract(MultiSigCloneFactory)5872"
      },
      {
        "astId": 10379,
        "contract": "src/utils/factory/FactoryManager.sol:FactoryManager",
        "label": "paymentHub",
        "offset": 0,
        "slot": "3",
        "type": "t_contract(PaymentHub)4807"
      },
      {
        "astId": 10382,
        "contract": "src/utils/factory/FactoryManager.sol:FactoryManager",
        "label": "recoveryHub",
        "offset": 0,
        "slot": "4",
        "type": "t_contract(RecoveryHub)8280"
      },
      {
        "astId": 10385,
        "contract": "src/utils/factory/FactoryManager.sol:FactoryManager",
        "label": "permit2Hub",
        "offset": 0,
        "slot": "5",
        "type": "t_contract(Permit2Hub)9570"
      }
    ],
    "types": {
      "t_address": {
        "encoding": "inplace",
        "label": "address",
        "numberOfBytes": "20"
      },
      "t_contract(IOfferFactory)5797": {
        "encoding": "inplace",
        "label": "contract IOfferFactory",
        "numberOfBytes": "20"
      },
      "t_contract(MultiSigCloneFactory)5872": {
        "encoding": "inplace",
        "label": "contract MultiSigCloneFactory",
        "numberOfBytes": "20"
      },
      "t_contract(PaymentHub)4807": {
        "encoding": "inplace",
        "label": "contract PaymentHub",
        "numberOfBytes": "20"
      },
      "t_contract(Permit2Hub)9570": {
        "encoding": "inplace",
        "label": "contract Permit2Hub",
        "numberOfBytes": "20"
      },
      "t_contract(RecoveryHub)8280": {
        "encoding": "inplace",
        "label": "contract RecoveryHub",
        "numberOfBytes": "20"
      }
    }
  }
}