{
  "address": "0xa68Bf91161Bb2d8be367350b8f7c48Ef41b02813",
  "abi": [
    {
      "inputs": [
        {
          "internalType": "string",
          "name": "_symbol",
          "type": "string"
        },
        {
          "internalType": "string",
          "name": "_name",
          "type": "string"
        },
        {
          "internalType": "string",
          "name": "_terms",
          "type": "string"
        },
        {
          "internalType": "uint256",
          "name": "_totalShares",
          "type": "uint256"
        },
        {
          "internalType": "contract IRecoveryHub",
          "name": "_recoveryHub",
          "type": "address"
        },
        {
          "internalType": "address",
          "name": "_owner",
          "type": "address"
        }
      ],
      "stateMutability": "nonpayable",
      "type": "constructor"
    },
    {
      "anonymous": false,
      "inputs": [
        {
          "indexed": true,
          "internalType": "address",
          "name": "account",
          "type": "address"
        },
        {
          "indexed": false,
          "internalType": "uint8",
          "name": "addressType",
          "type": "uint8"
        }
      ],
      "name": "AddressTypeUpdate",
      "type": "event"
    },
    {
      "anonymous": false,
      "inputs": [
        {
          "indexed": false,
          "internalType": "string",
          "name": "message",
          "type": "string"
        }
      ],
      "name": "Announcement",
      "type": "event"
    },
    {
      "anonymous": false,
      "inputs": [
        {
          "indexed": true,
          "internalType": "address",
          "name": "owner",
          "type": "address"
        },
        {
          "indexed": true,
          "internalType": "address",
          "name": "spender",
          "type": "address"
        },
        {
          "indexed": false,
          "internalType": "uint256",
          "name": "value",
          "type": "uint256"
        }
      ],
      "name": "Approval",
      "type": "event"
    },
    {
      "anonymous": false,
      "inputs": [
        {
          "indexed": false,
          "internalType": "string",
          "name": "terms",
          "type": "string"
        }
      ],
      "name": "ChangeTerms",
      "type": "event"
    },
    {
      "anonymous": false,
      "inputs": [
        {
          "indexed": false,
          "internalType": "uint256",
          "name": "total",
          "type": "uint256"
        }
      ],
      "name": "ChangeTotalShares",
      "type": "event"
    },
    {
      "anonymous": false,
      "inputs": [
        {
          "indexed": false,
          "internalType": "string",
          "name": "name",
          "type": "string"
        },
        {
          "indexed": false,
          "internalType": "string",
          "name": "symbol",
          "type": "string"
        }
      ],
      "name": "NameChanged",
      "type": "event"
    },
    {
      "anonymous": false,
      "inputs": [
        {
          "indexed": true,
          "internalType": "address",
          "name": "previousOwner",
          "type": "address"
        },
        {
          "indexed": true,
          "internalType": "address",
          "name": "newOwner",
          "type": "address"
        }
      ],
      "name": "OwnershipTransferred",
      "type": "event"
    },
    {
      "anonymous": false,
      "inputs": [
        {
          "indexed": true,
          "internalType": "address",
          "name": "holder",
          "type": "address"
        },
        {
          "indexed": false,
          "internalType": "uint256",
          "name": "amount",
          "type": "uint256"
        },
        {
          "indexed": false,
          "internalType": "string",
          "name": "message",
          "type": "string"
        }
      ],
      "name": "TokensDeclaredInvalid",
      "type": "event"
    },
    {
      "anonymous": false,
      "inputs": [
        {
          "indexed": true,
          "internalType": "address",
          "name": "from",
          "type": "address"
        },
        {
          "indexed": true,
          "internalType": "address",
          "name": "to",
          "type": "address"
        },
        {
          "indexed": false,
          "internalType": "uint256",
          "name": "value",
          "type": "uint256"
        }
      ],
      "name": "Transfer",
      "type": "event"
    },
    {
      "inputs": [],
      "name": "VERSION",
      "outputs": [
        {
          "internalType": "uint8",
          "name": "",
          "type": "uint8"
        }
      ],
      "stateMutability": "view",
      "type": "function"
    },
    {
      "inputs": [
        {
          "internalType": "address",
          "name": "owner",
          "type": "address"
        },
        {
          "internalType": "address",
          "name": "spender",
          "type": "address"
        }
      ],
      "name": "allowance",
      "outputs": [
        {
          "internalType": "uint256",
          "name": "",
          "type": "uint256"
        }
      ],
      "stateMutability": "view",
      "type": "function"
    },
    {
      "inputs": [
        {
          "internalType": "string",
          "name": "message",
          "type": "string"
        }
      ],
      "name": "announcement",
      "outputs": [],
      "stateMutability": "nonpayable",
      "type": "function"
    },
    {
      "inputs": [
        {
          "internalType": "address",
          "name": "spender",
          "type": "address"
        },
        {
          "internalType": "uint256",
          "name": "value",
          "type": "uint256"
        }
      ],
      "name": "approve",
      "outputs": [
        {
          "internalType": "bool",
          "name": "",
          "type": "bool"
        }
      ],
      "stateMutability": "nonpayable",
      "type": "function"
    },
    {
      "inputs": [
        {
          "internalType": "address",
          "name": "account",
          "type": "address"
        }
      ],
      "name": "balanceOf",
      "outputs": [
        {
          "internalType": "uint256",
          "name": "",
          "type": "uint256"
        }
      ],
      "stateMutability": "view",
      "type": "function"
    },
    {
      "inputs": [
        {
          "internalType": "uint256",
          "name": "_amount",
          "type": "uint256"
        }
      ],
      "name": "burn",
      "outputs": [],
      "stateMutability": "nonpayable",
      "type": "function"
    },
    {
      "inputs": [
        {
          "internalType": "address",
          "name": "account",
          "type": "address"
        }
      ],
      "name": "canReceiveFromAnyone",
      "outputs": [
        {
          "internalType": "bool",
          "name": "",
          "type": "bool"
        }
      ],
      "stateMutability": "view",
      "type": "function"
    },
    {
      "inputs": [],
      "name": "claimPeriod",
      "outputs": [
        {
          "internalType": "uint256",
          "name": "",
          "type": "uint256"
        }
      ],
      "stateMutability": "pure",
      "type": "function"
    },
    {
      "inputs": [],
      "name": "customCollateralAddress",
      "outputs": [
        {
          "internalType": "contract IERC20",
          "name": "",
          "type": "address"
        }
      ],
      "stateMutability": "view",
      "type": "function"
    },
    {
      "inputs": [],
      "name": "customCollateralRate",
      "outputs": [
        {
          "internalType": "uint256",
          "name": "",
          "type": "uint256"
        }
      ],
      "stateMutability": "view",
      "type": "function"
    },
    {
      "inputs": [],
      "name": "decimals",
      "outputs": [
        {
          "internalType": "uint8",
          "name": "",
          "type": "uint8"
        }
      ],
      "stateMutability": "view",
      "type": "function"
    },
    {
      "inputs": [
        {
          "internalType": "address",
          "name": "holder",
          "type": "address"
        },
        {
          "internalType": "uint256",
          "name": "amount",
          "type": "uint256"
        },
        {
          "internalType": "string",
          "name": "message",
          "type": "string"
        }
      ],
      "name": "declareInvalid",
      "outputs": [],
      "stateMutability": "nonpayable",
      "type": "function"
    },
    {
      "inputs": [
        {
          "internalType": "address",
          "name": "lostAddress",
          "type": "address"
        }
      ],
      "name": "deleteClaim",
      "outputs": [],
      "stateMutability": "nonpayable",
      "type": "function"
    },
    {
      "inputs": [],
      "name": "getClaimDeleter",
      "outputs": [
        {
          "internalType": "address",
          "name": "",
          "type": "address"
        }
      ],
      "stateMutability": "view",
      "type": "function"
    },
    {
      "inputs": [
        {
          "internalType": "contract IERC20",
          "name": "collateralType",
          "type": "address"
        }
      ],
      "name": "getCollateralRate",
      "outputs": [
        {
          "internalType": "uint256",
          "name": "",
          "type": "uint256"
        }
      ],
      "stateMutability": "view",
      "type": "function"
    },
    {
      "inputs": [
        {
          "internalType": "address",
          "name": "account",
          "type": "address"
        },
        {
          "internalType": "uint8",
          "name": "number",
          "type": "uint8"
        }
      ],
      "name": "hasFlag",
      "outputs": [
        {
          "internalType": "bool",
          "name": "",
          "type": "bool"
        }
      ],
      "stateMutability": "view",
      "type": "function"
    },
    {
      "inputs": [],
      "name": "invalidTokens",
      "outputs": [
        {
          "internalType": "uint256",
          "name": "",
          "type": "uint256"
        }
      ],
      "stateMutability": "view",
      "type": "function"
    },
    {
      "inputs": [
        {
          "internalType": "address",
          "name": "account",
          "type": "address"
        }
      ],
      "name": "isForbidden",
      "outputs": [
        {
          "internalType": "bool",
          "name": "",
          "type": "bool"
        }
      ],
      "stateMutability": "view",
      "type": "function"
    },
    {
      "inputs": [
        {
          "internalType": "address",
          "name": "account",
          "type": "address"
        }
      ],
      "name": "isPowerlisted",
      "outputs": [
        {
          "internalType": "bool",
          "name": "",
          "type": "bool"
        }
      ],
      "stateMutability": "view",
      "type": "function"
    },
    {
      "inputs": [
        {
          "internalType": "address",
          "name": "target",
          "type": "address"
        },
        {
          "internalType": "uint256",
          "name": "amount",
          "type": "uint256"
        }
      ],
      "name": "mint",
      "outputs": [],
      "stateMutability": "nonpayable",
      "type": "function"
    },
    {
      "inputs": [
        {
          "internalType": "address",
          "name": "shareholder",
          "type": "address"
        },
        {
          "internalType": "address",
          "name": "callee",
          "type": "address"
        },
        {
          "internalType": "uint256",
          "name": "amount",
          "type": "uint256"
        },
        {
          "internalType": "bytes",
          "name": "data",
          "type": "bytes"
        }
      ],
      "name": "mintAndCall",
      "outputs": [],
      "stateMutability": "nonpayable",
      "type": "function"
    },
    {
      "inputs": [
        {
          "internalType": "address[]",
          "name": "target",
          "type": "address[]"
        },
        {
          "internalType": "uint256[]",
          "name": "amount",
          "type": "uint256[]"
        }
      ],
      "name": "mintMany",
      "outputs": [],
      "stateMutability": "nonpayable",
      "type": "function"
    },
    {
      "inputs": [
        {
          "internalType": "address[]",
          "name": "target",
          "type": "address[]"
        },
        {
          "internalType": "address",
          "name": "callee",
          "type": "address"
        },
        {
          "internalType": "uint256[]",
          "name": "amount",
          "type": "uint256[]"
        },
        {
          "internalType": "bytes",
          "name": "data",
          "type": "bytes"
        }
      ],
      "name": "mintManyAndCall",
      "outputs": [],
      "stateMutability": "nonpayable",
      "type": "function"
    },
    {
      "inputs": [],
      "name": "name",
      "outputs": [
        {
          "internalType": "string",
          "name": "",
          "type": "string"
        }
      ],
      "stateMutability": "view",
      "type": "function"
    },
    {
      "inputs": [
        {
          "internalType": "address",
          "name": "target",
          "type": "address"
        }
      ],
      "name": "notifyClaimDeleted",
      "outputs": [],
      "stateMutability": "nonpayable",
      "type": "function"
    },
    {
      "inputs": [
        {
          "internalType": "address",
          "name": "target",
          "type": "address"
        }
      ],
      "name": "notifyClaimMade",
      "outputs": [],
      "stateMutability": "nonpayable",
      "type": "function"
    },
    {
      "inputs": [],
      "name": "owner",
      "outputs": [
        {
          "internalType": "address",
          "name": "",
          "type": "address"
        }
      ],
      "stateMutability": "view",
      "type": "function"
    },
    {
      "inputs": [
        {
          "internalType": "address",
          "name": "oldAddress",
          "type": "address"
        },
        {
          "internalType": "address",
          "name": "newAddress",
          "type": "address"
        }
      ],
      "name": "recover",
      "outputs": [],
      "stateMutability": "nonpayable",
      "type": "function"
    },
    {
      "inputs": [],
      "name": "recovery",
      "outputs": [
        {
          "internalType": "contract IRecoveryHub",
          "name": "",
          "type": "address"
        }
      ],
      "stateMutability": "view",
      "type": "function"
    },
    {
      "inputs": [],
      "name": "restrictTransfers",
      "outputs": [
        {
          "internalType": "bool",
          "name": "",
          "type": "bool"
        }
      ],
      "stateMutability": "view",
      "type": "function"
    },
    {
      "inputs": [
        {
          "internalType": "bool",
          "name": "transferRestrictionsApplicable",
          "type": "bool"
        }
      ],
      "name": "setApplicable",
      "outputs": [],
      "stateMutability": "nonpayable",
      "type": "function"
    },
    {
      "inputs": [
        {
          "internalType": "contract IERC20",
          "name": "collateral",
          "type": "address"
        },
        {
          "internalType": "uint256",
          "name": "rate",
          "type": "uint256"
        }
      ],
      "name": "setCustomClaimCollateral",
      "outputs": [],
      "stateMutability": "nonpayable",
      "type": "function"
    },
    {
      "inputs": [
        {
          "internalType": "string",
          "name": "_symbol",
          "type": "string"
        },
        {
          "internalType": "string",
          "name": "_name",
          "type": "string"
        }
      ],
      "name": "setName",
      "outputs": [],
      "stateMutability": "nonpayable",
      "type": "function"
    },
    {
      "inputs": [
        {
          "internalType": "string",
          "name": "_terms",
          "type": "string"
        }
      ],
      "name": "setTerms",
      "outputs": [],
      "stateMutability": "nonpayable",
      "type": "function"
    },
    {
      "inputs": [
        {
          "internalType": "uint256",
          "name": "_newTotalShares",
          "type": "uint256"
        }
      ],
      "name": "setTotalShares",
      "outputs": [],
      "stateMutability": "nonpayable",
      "type": "function"
    },
    {
      "inputs": [
        {
          "internalType": "address[]",
          "name": "addressesToAdd",
          "type": "address[]"
        },
        {
          "internalType": "uint8",
          "name": "value",
          "type": "uint8"
        }
      ],
      "name": "setType",
      "outputs": [],
      "stateMutability": "nonpayable",
      "type": "function"
    },
    {
      "inputs": [
        {
          "internalType": "address",
          "name": "account",
          "type": "address"
        },
        {
          "internalType": "uint8",
          "name": "typeNumber",
          "type": "uint8"
        }
      ],
      "name": "setType",
      "outputs": [],
      "stateMutability": "nonpayable",
      "type": "function"
    },
    {
      "inputs": [],
      "name": "symbol",
      "outputs": [
        {
          "internalType": "string",
          "name": "",
          "type": "string"
        }
      ],
      "stateMutability": "view",
      "type": "function"
    },
    {
      "inputs": [],
      "name": "terms",
      "outputs": [
        {
          "internalType": "string",
          "name": "",
          "type": "string"
        }
      ],
      "stateMutability": "view",
      "type": "function"
    },
    {
      "inputs": [],
      "name": "totalShares",
      "outputs": [
        {
          "internalType": "uint256",
          "name": "",
          "type": "uint256"
        }
      ],
      "stateMutability": "view",
      "type": "function"
    },
    {
      "inputs": [],
      "name": "totalSupply",
      "outputs": [
        {
          "internalType": "uint256",
          "name": "",
          "type": "uint256"
        }
      ],
      "stateMutability": "view",
      "type": "function"
    },
    {
      "inputs": [],
      "name": "totalValidSupply",
      "outputs": [
        {
          "internalType": "uint256",
          "name": "",
          "type": "uint256"
        }
      ],
      "stateMutability": "view",
      "type": "function"
    },
    {
      "inputs": [
        {
          "internalType": "address",
          "name": "recipient",
          "type": "address"
        },
        {
          "internalType": "uint256",
          "name": "amount",
          "type": "uint256"
        }
      ],
      "name": "transfer",
      "outputs": [
        {
          "internalType": "bool",
          "name": "",
          "type": "bool"
        }
      ],
      "stateMutability": "nonpayable",
      "type": "function"
    },
    {
      "inputs": [
        {
          "internalType": "address",
          "name": "recipient",
          "type": "address"
        },
        {
          "internalType": "uint256",
          "name": "amount",
          "type": "uint256"
        },
        {
          "internalType": "bytes",
          "name": "data",
          "type": "bytes"
        }
      ],
      "name": "transferAndCall",
      "outputs": [
        {
          "internalType": "bool",
          "name": "",
          "type": "bool"
        }
      ],
      "stateMutability": "nonpayable",
      "type": "function"
    },
    {
      "inputs": [
        {
          "internalType": "address",
          "name": "sender",
          "type": "address"
        },
        {
          "internalType": "address",
          "name": "recipient",
          "type": "address"
        },
        {
          "internalType": "uint256",
          "name": "amount",
          "type": "uint256"
        }
      ],
      "name": "transferFrom",
      "outputs": [
        {
          "internalType": "bool",
          "name": "",
          "type": "bool"
        }
      ],
      "stateMutability": "nonpayable",
      "type": "function"
    },
    {
      "inputs": [
        {
          "internalType": "address",
          "name": "newOwner",
          "type": "address"
        }
      ],
      "name": "transferOwnership",
      "outputs": [],
      "stateMutability": "nonpayable",
      "type": "function"
    }
  ],
  "transactionHash": "0x940cd4e5a98bc4d1ed01089fb14ba35f346c654600b9fced92fccdb5ca7e1bd1",
  "args": [
    "FF",
    "FinanceFarm Shares",
    "https://financefarm.ch/invest",
    "1000000",
    "0x2b2B237d8f9a42706bdCD4083C20a2b799C8B45C",
    "0x8bAE8FC137FbD8DF4c3b2dEEF76dd4952ae83CcF"
  ],
  "numDeployments": 1,
  "solcInputHash": "f1166007993d97aa07f30cdacc4b8413",
  "bytecode": "0x60a06040523480156200001157600080fd5b506040516200289738038062002897833981016040819052620000349162000421565b6003805460ff19169055606082901b6001600160601b031916608052600580546001600160a01b0319166001600160a01b03831690811790915560405187918791879187918691889187918791600091869182919084907f8be0079c531659141344cd1fd0a4f28419497f9722a3daafe3b4186f6b6457e0908290a350620000bd848462000164565b5050506009849055508351620000db906008906020870190620002ea565b506000600a819055604051636427ed9760e01b815260048101919091526001600160a01b03821690636427ed9790602401600060405180830381600087803b1580156200012757600080fd5b505af11580156200013c573d6000803e3d6000fd5b50505050505050505050620001586001620001cf60201b60201c565b50505050505062000617565b815162000179906007906020850190620002ea565b5080516200018f906006906020840190620002ea565b507f6c20b91d1723b78732eba64ff11ebd7966a6e4af568a00fa4f6b72c20f58b02a8183604051620001c392919062000515565b60405180910390a15050565b600b805460ff19168215801591909117909155620001f857620001f56000600462000200565b50565b620001f56000805b6200021482601460ff841660011462000281565b6200022882601560ff841660021462000281565b6200023c82601660ff841660041462000281565b60405160ff821681526001600160a01b038316907fe423d7d31023dbacefed7c937785d0012ad8f314381295efebfc0471d2c434549060200160405180910390a25050565b6000620002908360e062000547565b6001600160a01b038516600090815260208190526040902054600160ff929092169190911b9150808216821483151514620002e3576001600160a01b038516600090815260208190526040902081831890555b5050505050565b828054620002f890620005ae565b90600052602060002090601f0160209004810192826200031c576000855562000367565b82601f106200033757805160ff191683800117855562000367565b8280016001018555821562000367579182015b82811115620003675782518255916020019190600101906200034a565b506200037592915062000379565b5090565b5b808211156200037557600081556001016200037a565b600082601f830112620003a257600080fd5b81516001600160401b0380821115620003bf57620003bf620005eb565b604051601f8301601f19908116603f01168101908282118183101715620003ea57620003ea620005eb565b816040528381528660208588010111156200040457600080fd5b620004178460208301602089016200057b565b9695505050505050565b60008060008060008060c087890312156200043b57600080fd5b86516001600160401b03808211156200045357600080fd5b620004618a838b0162000390565b975060208901519150808211156200047857600080fd5b620004868a838b0162000390565b965060408901519150808211156200049d57600080fd5b50620004ac89828a0162000390565b945050606087015192506080870151620004c68162000601565b60a0880151909250620004d98162000601565b809150509295509295509295565b60008151808452620005018160208601602086016200057b565b601f01601f19169290920160200192915050565b6040815260006200052a6040830185620004e7565b82810360208401526200053e8185620004e7565b95945050505050565b600060ff821660ff84168060ff038211156200057357634e487b7160e01b600052601160045260246000fd5b019392505050565b60005b83811015620005985781810151838201526020016200057e565b83811115620005a8576000848401525b50505050565b600181811c90821680620005c357607f821691505b60208210811415620005e557634e487b7160e01b600052602260045260246000fd5b50919050565b634e487b7160e01b600052604160045260246000fd5b6001600160a01b0381168114620001f557600080fd5b60805160601c61223e62000659600039600081816105930152818161082701528181610d3801528181610fbb015281816110500152611744015261223e6000f3fe608060405234801561001057600080fd5b506004361061028a5760003560e01c806370a082311161015c578063b1c8db66116100ce578063e445d70a11610087578063e445d70a146105b5578063e5b824ec146105c8578063f2fde38b146105db578063f54fc060146105ee578063f5c0b95f14610601578063ffa1ad741461061457600080fd5b8063b1c8db661461051a578063c18172c41461052d578063d37a9bb014610540578063d50256251461054d578063dd62ed3e14610555578063ddceafa91461058e57600080fd5b806395d89b411161012057806395d89b41146104be5780639e37878c146104c6578063a49a7cb1146104d9578063a77384c1146104ec578063a9059cbb146104ff578063b0d04c7a1461051257600080fd5b806370a082311461046957806377e071ad1461047c57806378f86afc1461048f5780637dc2cd98146104a25780638da5cb5b146104ab57600080fd5b80633a1cdf3211610200578063429c66f0116101b9578063429c66f014610401578063487346b2146104145780635c707f07146104275780635d6624b71461043a578063609181171461044d578063648bf7741461045657600080fd5b80633a1cdf32146103995780633a98ef39146103ac5780634000aea0146103b55780634029a3ce146103c857806340c10f19146103db57806342966c68146103ee57600080fd5b806323b872dd1161025257806323b872dd146103275780632a0a4ed51461033a5780632b3430991461034b578063313ce5671461035e57806332a7ae951461037d57806337a8129c1461039057600080fd5b806306fdde031461028f578063095ea7b3146102ad5780630c6f0e5d146102d057806318160ddd146103005780631f0f06aa14610312575b600080fd5b61029761061c565b6040516102a49190612039565b60405180910390f35b6102c06102bb366004611c27565b6106aa565b60405190151581526020016102a4565b6003546102e89061010090046001600160a01b031681565b6040516001600160a01b0390911681526020016102a4565b6002545b6040519081526020016102a4565b610325610320366004611e81565b6106c0565b005b6102c0610335366004611b73565b610730565b6005546001600160a01b03166102e8565b6102c0610359366004611b1d565b6107a7565b60035461036b9060ff1681565b60405160ff90911681526020016102a4565b61032561038b366004611b1d565b6107ba565b610304600a5481565b6103256103a7366004611c27565b610886565b61030460095481565b6102c06103c3366004611c53565b6108be565b6103256103d6366004611d93565b61095e565b6103256103e9366004611c27565b610a02565b6103256103fc366004611f64565b610a36565b61032561040f366004611df3565b610a4e565b610325610422366004611ce4565b610acb565b610325610435366004611f00565b610c1b565b610325610448366004611c53565b610c4f565b61030460045481565b610325610464366004611b3a565b610d2d565b610304610477366004611b1d565b610d88565b61030461048a366004611b1d565b610dac565b61032561049d366004611ec3565b610df7565b62ed4e00610304565b6005546102e8906001600160a01b031681565b610297610e6f565b6102c06104d4366004611b1d565b610e7c565b6103256104e7366004611caf565b610e89565b6103256104fa366004611f64565b610ebd565b6102c061050d366004611c27565b610f62565b610304610f75565b6102c0610528366004611b1d565b610f92565b61032561053b366004611b1d565b610fb0565b600b546102c09060ff1681565b610297611005565b610304610563366004611b3a565b6001600160a01b03918216600090815260016020908152604080832093909416825291909152205490565b6102e87f000000000000000000000000000000000000000000000000000000000000000081565b6103256105c3366004611e47565b611012565b6103256105d6366004611b1d565b611045565b6103256105e9366004611b1d565b61109a565b6103256105fc366004611bb4565b611120565b6102c061060f366004611caf565b6111b7565b61036b600281565b600680546106299061214d565b80601f01602080910402602001604051908101604052809291908181526020018280546106559061214d565b80156106a25780601f10610677576101008083540402835291602001916106a2565b820191906000526020600020905b81548152906001019060200180831161068557829003601f168201915b505050505081565b60006106b73384846111c3565b50600192915050565b6005546001600160a01b031633146106f35760405162461bcd60e51b81526004016106ea906120bc565b60405180910390fd5b7f07ce702fc13ca0620c174dab22996a6d5fd9e7accb663555a4e85323692706ba8282604051610724929190612025565b60405180910390a15050565b600061073d848484611225565b6001600160a01b0384166000908152600160209081526040808320338452909152902054600160ff1b81101561079c576107778382612136565b6001600160a01b03861660009081526001602090815260408083203384529091529020555b506001949350505050565b60006107b4826016611289565b92915050565b6005546001600160a01b031633146108085760405162461bcd60e51b81526020600482015260116024820152703737ba1031b630b4b6903232b632ba32b960791b60448201526064016106ea565b6040516332a7ae9560e01b81526001600160a01b0382811660048301527f000000000000000000000000000000000000000000000000000000000000000016906332a7ae9590602401600060405180830381600087803b15801561086b57600080fd5b505af115801561087f573d6000803e3d6000fd5b5050505050565b6005546001600160a01b031633146108b05760405162461bcd60e51b81526004016106ea906120bc565b6108ba82826112c9565b5050565b60006108ca8585610f62565b80156109555750604051635260769b60e11b81526001600160a01b0386169063a4c0ed3690610903903390889088908890600401611ff3565b602060405180830381600087803b15801561091d57600080fd5b505af1158015610931573d6000803e3d6000fd5b505050506040513d601f19601f820116820180604052508101906109559190611e64565b95945050505050565b6005546001600160a01b031633146109885760405162461bcd60e51b81526004016106ea906120bc565b8281811461099557600080fd5b60005b818110156109fa576109e88686838181106109b5576109b56121b9565b90506020020160208101906109ca9190611b1d565b8585848181106109dc576109dc6121b9565b90506020020135611340565b806109f281612188565b915050610998565b505050505050565b6005546001600160a01b03163314610a2c5760405162461bcd60e51b81526004016106ea906120bc565b6108ba8282611340565b610a41333083611225565b610a4b308261134a565b50565b6005546001600160a01b03163314610a785760405162461bcd60e51b81526004016106ea906120bc565b60005b82811015610ac557610ab3848483818110610a9857610a986121b9565b9050602002016020810190610aad9190611b1d565b83610e89565b80610abd81612188565b915050610a7b565b50505050565b85838114610ad857600080fd5b6000805b82811015610b1c57868682818110610af657610af66121b9565b9050602002013582610b0891906120f9565b915080610b1481612188565b915050610adc565b50610b278782610a02565b60005b82811015610c0f57876001600160a01b031663a4c0ed368b8b84818110610b5357610b536121b9565b9050602002016020810190610b689190611b1d565b898985818110610b7a57610b7a6121b9565b9050602002013588886040518563ffffffff1660e01b8152600401610ba29493929190611ff3565b602060405180830381600087803b158015610bbc57600080fd5b505af1158015610bd0573d6000803e3d6000fd5b505050506040513d601f19601f82011682018060405250810190610bf49190611e64565b610bfd57600080fd5b80610c0781612188565b915050610b2a565b50505050505050505050565b6005546001600160a01b03163314610c455760405162461bcd60e51b81526004016106ea906120bc565b6108ba82826113be565b6005546001600160a01b03163314610c795760405162461bcd60e51b81526004016106ea906120bc565b6000610c8485610d88565b905080841115610cc85760405162461bcd60e51b815260206004820152600f60248201526e0c2dadeeadce840e8dede40d0d2ced608b1b60448201526064016106ea565b83600a6000828254610cda91906120f9565b92505081905550846001600160a01b03167f0a605cd1294f60fa3b73548ac68428f33300a051f225afcdcc75e56083c96ee7858585604051610d1e939291906120df565b60405180910390a25050505050565b336001600160a01b037f00000000000000000000000000000000000000000000000000000000000000001614610d755760405162461bcd60e51b81526004016106ea90612096565b6108ba8282610d8385610d88565b611225565b6001600160a01b03166000908152602081905260409020546001600160e01b031690565b60006001600160a01b038216301415610dc757506001919050565b6003546001600160a01b03838116610100909204161415610dea57505060045490565b506000919050565b919050565b6005546001600160a01b03163314610e215760405162461bcd60e51b81526004016106ea906120bc565b8051610e34906008906020840190611958565b507fe9f2468ecc8d3dff15a70a5909151e6297cee4cf05268eff3d7ef0c696ec50f281604051610e649190612039565b60405180910390a150565b600780546106299061214d565b60006107b4826015611289565b6005546001600160a01b03163314610eb35760405162461bcd60e51b81526004016106ea906120bc565b6108ba8282611417565b6005546001600160a01b03163314610ee75760405162461bcd60e51b81526004016106ea906120bc565b610eef610f75565b811015610f2d5760405162461bcd60e51b815260206004820152600c60248201526b62656c6f7720737570706c7960a01b60448201526064016106ea565b60098190556040518181527fdcbf73bf1e396dbe03ccbcd29c0aa52eb8028ae24726098296357286de4f5b2690602001610e64565b6000610f6e8383611492565b9392505050565b6000600a54610f8360025490565b610f8d9190612136565b905090565b6000610f9f826014611289565b806107b457506107b4826016611289565b336001600160a01b037f00000000000000000000000000000000000000000000000000000000000000001614610ff85760405162461bcd60e51b81526004016106ea90612096565b610a4b81600a600161149e565b600880546106299061214d565b6005546001600160a01b0316331461103c5760405162461bcd60e51b81526004016106ea906120bc565b610a4b81611502565b336001600160a01b037f0000000000000000000000000000000000000000000000000000000000000000161461108d5760405162461bcd60e51b81526004016106ea90612096565b610a4b81600a600061149e565b6005546001600160a01b031633146110c45760405162461bcd60e51b81526004016106ea906120bc565b6005546040516001600160a01b038084169216907f8be0079c531659141344cd1fd0a4f28419497f9722a3daafe3b4186f6b6457e090600090a3600580546001600160a01b0319166001600160a01b0392909216919091179055565b61112a8484610a02565b604051635260769b60e11b81526001600160a01b0385169063a4c0ed369061115c908890879087908790600401611ff3565b602060405180830381600087803b15801561117657600080fd5b505af115801561118a573d6000803e3d6000fd5b505050506040513d601f19601f820116820180604052508101906111ae9190611e64565b61087f57600080fd5b6000610f6e8383611289565b6001600160a01b0383811660008181526001602090815260408083209487168084529482529182902085905590518481527f8c5be1e5ebec7d5bd14f71427d1e84f3dd0314c0f7b2291e5b200ac8c7c3b92591015b60405180910390a3505050565b611230838383611530565b61123a8382611540565b61124482826115d6565b816001600160a01b0316836001600160a01b03167fddf252ad1be2c89b69c2b068fc378daa952ba7f163c4a11628f55a4df523b3ef8360405161121891815260200190565b6000806112978360e0612111565b6001600160a01b038516600090815260208190526040902054600160ff929092169190911b9081161491505092915050565b60038054610100600160a81b0319166101006001600160a01b0385811682029290921792839055909104166113015760006004555050565b6000811161133a5760405162461bcd60e51b81526004016106ea906020808252600490820152637a65726f60e01b604082015260600190565b60045550565b6108ba8282611686565b61135682600083611530565b80600260008282546113689190612136565b9091555061137890508282611540565b6040518181526000906001600160a01b038416907fddf252ad1be2c89b69c2b068fc378daa952ba7f163c4a11628f55a4df523b3ef906020015b60405180910390a35050565b81516113d1906007906020850190611958565b5080516113e5906006906020840190611958565b507f6c20b91d1723b78732eba64ff11ebd7966a6e4af568a00fa4f6b72c20f58b02a818360405161072492919061204c565b61142982601460ff841660011461149e565b61143b82601560ff841660021461149e565b61144d82601660ff841660041461149e565b60405160ff821681526001600160a01b038316907fe423d7d31023dbacefed7c937785d0012ad8f314381295efebfc0471d2c434549060200160405180910390a25050565b6000610f6e83836116dc565b60006114ab8360e0612111565b6001600160a01b038516600090815260208190526040902054600160ff929092169190911b915080821682148315151461087f576001600160a01b0394909416600090815260208190526040902093189092555050565b600b805460ff1916821580159190911790915561152557610a4b60006004611417565b610a4b600080611417565b61153b8383836117b1565b505050565b6001600160a01b038216600090815260208190526040812054906115648383612136565b90506001600160e01b031981166001600160e01b03198316146115b55760405162461bcd60e51b8152602060048201526009602482015268756e646572666c6f7760b81b60448201526064016106ea565b6001600160a01b039093166000908152602081905260409020929092555050565b6001600160a01b0382166116125760405162461bcd60e51b815260206004820152600360248201526203078360ec1b60448201526064016106ea565b6001600160a01b0382166000908152602081905260408120549061163683836120f9565b90506001600160e01b031981166001600160e01b03198316146115b55760405162461bcd60e51b81526020600482015260086024820152676f766572666c6f7760c01b60448201526064016106ea565b60095481611692610f75565b61169c91906120f9565b11156116d25760405162461bcd60e51b81526020600482015260056024820152641d1bdd185b60da1b60448201526064016106ea565b6108ba82826118df565b60006116e8838361194b565b61171f5760405162461bcd60e51b81526020600482015260086024820152673a3930b739b332b960c11b60448201526064016106ea565b61172a33600a611289565b156106b7576040516304d301a360e41b81523360048201527f00000000000000000000000000000000000000000000000000000000000000006001600160a01b031690634d301a3090602401600060405180830381600087803b15801561179057600080fd5b505af11580156117a4573d6000803e3d6000fd5b5050505050600192915050565b6117ba82610f92565b156117c457505050565b6117cd82610e7c565b1561180257600b5460ff16156117f55760405162461bcd60e51b81526004016106ea90612071565b61153b826015600061149e565b61180b836107a7565b156118615761181d826014600161149e565b604051600181526001600160a01b038316907fe423d7d31023dbacefed7c937785d0012ad8f314381295efebfc0471d2c434549060200160405180910390a2505050565b61186c836014611289565b156118a157600b5460ff16156118945760405162461bcd60e51b81526004016106ea90612071565b61153b836014600061149e565b6118aa83610e7c565b1561153b57600b5460ff16156118d25760405162461bcd60e51b81526004016106ea90612071565b61153b836015600061149e565b6118eb60008383611530565b80600260008282546118fd91906120f9565b9091555061190d905082826115d6565b6040518181526001600160a01b038316906000907fddf252ad1be2c89b69c2b068fc378daa952ba7f163c4a11628f55a4df523b3ef906020016113b2565b60006106b7338484611225565b8280546119649061214d565b90600052602060002090601f01602090048101928261198657600085556119cc565b82601f1061199f57805160ff19168380011785556119cc565b828001600101855582156119cc579182015b828111156119cc5782518255916020019190600101906119b1565b506119d89291506119dc565b5090565b5b808211156119d857600081556001016119dd565b60008083601f840112611a0357600080fd5b50813567ffffffffffffffff811115611a1b57600080fd5b6020830191508360208260051b8501011115611a3657600080fd5b9250929050565b60008083601f840112611a4f57600080fd5b50813567ffffffffffffffff811115611a6757600080fd5b602083019150836020828501011115611a3657600080fd5b600082601f830112611a9057600080fd5b813567ffffffffffffffff80821115611aab57611aab6121cf565b604051601f8301601f19908116603f01168101908282118183101715611ad357611ad36121cf565b81604052838152866020858801011115611aec57600080fd5b836020870160208301376000602085830101528094505050505092915050565b803560ff81168114610df257600080fd5b600060208284031215611b2f57600080fd5b8135610f6e816121e5565b60008060408385031215611b4d57600080fd5b8235611b58816121e5565b91506020830135611b68816121e5565b809150509250929050565b600080600060608486031215611b8857600080fd5b8335611b93816121e5565b92506020840135611ba3816121e5565b929592945050506040919091013590565b600080600080600060808688031215611bcc57600080fd5b8535611bd7816121e5565b94506020860135611be7816121e5565b935060408601359250606086013567ffffffffffffffff811115611c0a57600080fd5b611c1688828901611a3d565b969995985093965092949392505050565b60008060408385031215611c3a57600080fd5b8235611c45816121e5565b946020939093013593505050565b60008060008060608587031215611c6957600080fd5b8435611c74816121e5565b935060208501359250604085013567ffffffffffffffff811115611c9757600080fd5b611ca387828801611a3d565b95989497509550505050565b60008060408385031215611cc257600080fd5b8235611ccd816121e5565b9150611cdb60208401611b0c565b90509250929050565b60008060008060008060006080888a031215611cff57600080fd5b873567ffffffffffffffff80821115611d1757600080fd5b611d238b838c016119f1565b909950975060208a01359150611d38826121e5565b90955060408901359080821115611d4e57600080fd5b611d5a8b838c016119f1565b909650945060608a0135915080821115611d7357600080fd5b50611d808a828b01611a3d565b989b979a50959850939692959293505050565b60008060008060408587031215611da957600080fd5b843567ffffffffffffffff80821115611dc157600080fd5b611dcd888389016119f1565b90965094506020870135915080821115611de657600080fd5b50611ca3878288016119f1565b600080600060408486031215611e0857600080fd5b833567ffffffffffffffff811115611e1f57600080fd5b611e2b868287016119f1565b9094509250611e3e905060208501611b0c565b90509250925092565b600060208284031215611e5957600080fd5b8135610f6e816121fa565b600060208284031215611e7657600080fd5b8151610f6e816121fa565b60008060208385031215611e9457600080fd5b823567ffffffffffffffff811115611eab57600080fd5b611eb785828601611a3d565b90969095509350505050565b600060208284031215611ed557600080fd5b813567ffffffffffffffff811115611eec57600080fd5b611ef884828501611a7f565b949350505050565b60008060408385031215611f1357600080fd5b823567ffffffffffffffff80821115611f2b57600080fd5b611f3786838701611a7f565b93506020850135915080821115611f4d57600080fd5b50611f5a85828601611a7f565b9150509250929050565b600060208284031215611f7657600080fd5b5035919050565b81835281816020850137506000828201602090810191909152601f909101601f19169091010190565b6000815180845260005b81811015611fcc57602081850181015186830182015201611fb0565b81811115611fde576000602083870101525b50601f01601f19169290920160200192915050565b60018060a01b038516815283602082015260606040820152600061201b606083018486611f7d565b9695505050505050565b602081526000611ef8602083018486611f7d565b602081526000610f6e6020830184611fa6565b60408152600061205f6040830185611fa6565b82810360208401526109558185611fa6565b6020808252600b908201526a1b9bdd08185b1b1bddd95960aa1b604082015260600190565b6020808252600c908201526b6e6f74207265636f7665727960a01b604082015260600190565b6020808252600990820152683737ba1037bbb732b960b91b604082015260600190565b838152604060208201526000610955604083018486611f7d565b6000821982111561210c5761210c6121a3565b500190565b600060ff821660ff84168060ff0382111561212e5761212e6121a3565b019392505050565b600082821015612148576121486121a3565b500390565b600181811c9082168061216157607f821691505b6020821081141561218257634e487b7160e01b600052602260045260246000fd5b50919050565b600060001982141561219c5761219c6121a3565b5060010190565b634e487b7160e01b600052601160045260246000fd5b634e487b7160e01b600052603260045260246000fd5b634e487b7160e01b600052604160045260246000fd5b6001600160a01b0381168114610a4b57600080fd5b8015158114610a4b57600080fdfea2646970667358221220e48c24799fccc7562027a42869fe7674372e24d595e53dd83aa2cabcbaaf558664736f6c63430008070033",
  "devdoc": {
    "kind": "dev",
    "methods": {
      "allowance(address,address)": {
        "details": "See `IERC20.allowance`."
      },
      "approve(address,uint256)": {
        "details": "See `IERC20.approve`. Requirements: - `spender` cannot be the zero address."
      },
      "balanceOf(address)": {
        "details": "See `IERC20.balanceOf`."
      },
      "totalSupply()": {
        "details": "See `IERC20.totalSupply`."
      },
      "transferFrom(address,address,uint256)": {
        "details": "See `IERC20.transferFrom`. Emits an `Approval` event indicating the updated allowance. This is not required by the EIP. See the note at the beginning of `ERC20`; Requirements: - `sender` and `recipient` cannot be the zero address. - `sender` must have a balance of at least `value`. - the caller must have allowance for `sender`'s tokens of at least `amount`."
      },
      "transferOwnership(address)": {
        "details": "Transfers ownership of the contract to a new account (`newOwner`). Can only be called by the current owner."
      }
    },
    "version": 1
  },
  "userdoc": {
    "kind": "user",
    "methods": {
      "announcement(string)": {
        "notice": "Allows the issuer to make public announcements that are visible on the blockchain."
      },
      "burn(uint256)": {
        "notice": "Transfers _amount tokens to the company and burns them. The meaning of this operation depends on the circumstances and the fate of the shares does not necessarily follow the fate of the tokens. For example, the company itself might call this function to implement a formal decision to destroy some of the outstanding shares. Also, this function might be called by an owner to return the shares to the company and get them back in another form under an according agreement (e.g. printed certificates or tokens on a different blockchain). It is not recommended to call this function without having agreed with the company on the further fate of the shares in question."
      },
      "canReceiveFromAnyone(address)": {
        "notice": "If true, this address is allowlisted and can only transfer tokens to other allowlisted addresses."
      },
      "declareInvalid(address,uint256,string)": {
        "notice": "Signals that the indicated tokens have been declared invalid (e.g. by a court ruling in accordance with article 973g of the Swiss Code of Obligations) and got detached from the underlying shares. Invalid tokens do not carry any shareholder rights any more. This function is purely declarative. It does not technically immobilize the affected tokens as that would give the issuer too much power."
      },
      "getCollateralRate(address)": {
        "notice": "Returns the collateral rate for the given collateral type and 0 if that type of collateral is not accepted. By default, only the token itself is accepted at a rate of 1:1. Subclasses should override this method if they want to add additional types of collateral."
      },
      "isForbidden(address)": {
        "notice": "If true, this address can only transfer tokens to allowlisted addresses and not receive from anyone."
      },
      "isPowerlisted(address)": {
        "notice": "If true, this address can automatically allowlist target addresses if necessary."
      },
      "mintAndCall(address,address,uint256,bytes)": {
        "notice": "Allows the company to tokenize shares and transfer them e.g to the draggable contract and wrap them. If these shares are newly created, setTotalShares must be called first in order to adjust the total number of shares."
      },
      "setApplicable(bool)": {
        "notice": "Configures whether the allowlisting is applied. Also sets the powerlist and allowlist flags on the null address accordingly. It is recommended to also deactivate the powerlist flag on other addresses."
      },
      "setCustomClaimCollateral(address,uint256)": {
        "notice": "See parent method for collateral requirements."
      },
      "setTotalShares(uint256)": {
        "notice": "Declares the number of total shares, including those that have not been tokenized and those that are held by the company itself. This number can be substiantially higher than totalSupply() in case not all shares have been tokenized. Also, it can be lower than totalSupply() in case some tokens have become invalid."
      },
      "totalValidSupply()": {
        "notice": "The total number of valid tokens in circulation. In case some tokens have been declared invalid, this number might be lower than totalSupply(). Also, it will always be lower than or equal to totalShares()."
      }
    },
    "version": 1
  },
  "storageLayout": {
    "storage": [
      {
        "astId": 458,
        "contract": "src/shares/AllowlistShares.sol:AllowlistShares",
        "label": "_balances",
        "offset": 0,
        "slot": "0",
        "type": "t_mapping(t_address,t_uint256)"
      },
      {
        "astId": 464,
        "contract": "src/shares/AllowlistShares.sol:AllowlistShares",
        "label": "_allowances",
        "offset": 0,
        "slot": "1",
        "type": "t_mapping(t_address,t_mapping(t_address,t_uint256))"
      },
      {
        "astId": 466,
        "contract": "src/shares/AllowlistShares.sol:AllowlistShares",
        "label": "_totalSupply",
        "offset": 0,
        "slot": "2",
        "type": "t_uint256"
      },
      {
        "astId": 469,
        "contract": "src/shares/AllowlistShares.sol:AllowlistShares",
        "label": "decimals",
        "offset": 0,
        "slot": "3",
        "type": "t_uint8"
      },
      {
        "astId": 8048,
        "contract": "src/shares/AllowlistShares.sol:AllowlistShares",
        "label": "customCollateralAddress",
        "offset": 1,
        "slot": "3",
        "type": "t_contract(IERC20)1124"
      },
      {
        "astId": 8050,
        "contract": "src/shares/AllowlistShares.sol:AllowlistShares",
        "label": "customCollateralRate",
        "offset": 0,
        "slot": "4",
        "type": "t_uint256"
      },
      {
        "astId": 9830,
        "contract": "src/shares/AllowlistShares.sol:AllowlistShares",
        "label": "owner",
        "offset": 0,
        "slot": "5",
        "type": "t_address"
      },
      {
        "astId": 968,
        "contract": "src/shares/AllowlistShares.sol:AllowlistShares",
        "label": "name",
        "offset": 0,
        "slot": "6",
        "type": "t_string_storage"
      },
      {
        "astId": 971,
        "contract": "src/shares/AllowlistShares.sol:AllowlistShares",
        "label": "symbol",
        "offset": 0,
        "slot": "7",
        "type": "t_string_storage"
      },
      {
        "astId": 9293,
        "contract": "src/shares/AllowlistShares.sol:AllowlistShares",
        "label": "terms",
        "offset": 0,
        "slot": "8",
        "type": "t_string_storage"
      },
      {
        "astId": 9296,
        "contract": "src/shares/AllowlistShares.sol:AllowlistShares",
        "label": "totalShares",
        "offset": 0,
        "slot": "9",
        "type": "t_uint256"
      },
      {
        "astId": 9298,
        "contract": "src/shares/AllowlistShares.sol:AllowlistShares",
        "label": "invalidTokens",
        "offset": 0,
        "slot": "10",
        "type": "t_uint256"
      },
      {
        "astId": 163,
        "contract": "src/shares/AllowlistShares.sol:AllowlistShares",
        "label": "restrictTransfers",
        "offset": 0,
        "slot": "11",
        "type": "t_bool"
      }
    ],
    "types": {
      "t_address": {
        "encoding": "inplace",
        "label": "address",
        "numberOfBytes": "20"
      },
      "t_bool": {
        "encoding": "inplace",
        "label": "bool",
        "numberOfBytes": "1"
      },
      "t_contract(IERC20)1124": {
        "encoding": "inplace",
        "label": "contract IERC20",
        "numberOfBytes": "20"
      },
      "t_mapping(t_address,t_mapping(t_address,t_uint256))": {
        "encoding": "mapping",
        "key": "t_address",
        "label": "mapping(address => mapping(address => uint256))",
        "numberOfBytes": "32",
        "value": "t_mapping(t_address,t_uint256)"
      },
      "t_mapping(t_address,t_uint256)": {
        "encoding": "mapping",
        "key": "t_address",
        "label": "mapping(address => uint256)",
        "numberOfBytes": "32",
        "value": "t_uint256"
      },
      "t_string_storage": {
        "encoding": "bytes",
        "label": "string",
        "numberOfBytes": "32"
      },
      "t_uint256": {
        "encoding": "inplace",
        "label": "uint256",
        "numberOfBytes": "32"
      },
      "t_uint8": {
        "encoding": "inplace",
        "label": "uint8",
        "numberOfBytes": "1"
      }
    }
  }
}