{
  "address": "0xA891de65bDd776168AD155943B6d731bdAaCb901",
  "abi": [
    {
      "inputs": [
        {
          "internalType": "string",
          "name": "_symbol",
          "type": "string"
        },
        {
          "internalType": "string",
          "name": "_name",
          "type": "string"
        },
        {
          "internalType": "string",
          "name": "_terms",
          "type": "string"
        },
        {
          "internalType": "uint256",
          "name": "_totalShares",
          "type": "uint256"
        },
        {
          "internalType": "address",
          "name": "_owner",
          "type": "address"
        },
        {
          "internalType": "contract IRecoveryHub",
          "name": "_recoveryHub",
          "type": "address"
        },
        {
          "internalType": "contract Permit2Hub",
          "name": "_permit2Hub",
          "type": "address"
        }
      ],
      "stateMutability": "nonpayable",
      "type": "constructor"
    },
    {
      "inputs": [
        {
          "internalType": "address",
          "name": "receiver",
          "type": "address"
        },
        {
          "internalType": "uint256",
          "name": "balance",
          "type": "uint256"
        },
        {
          "internalType": "uint256",
          "name": "amount",
          "type": "uint256"
        }
      ],
      "name": "ERC20BalanceOverflow",
      "type": "error"
    },
    {
      "inputs": [
        {
          "internalType": "address",
          "name": "spender",
          "type": "address"
        },
        {
          "internalType": "uint256",
          "name": "allowance",
          "type": "uint256"
        },
        {
          "internalType": "uint256",
          "name": "needed",
          "type": "uint256"
        }
      ],
      "name": "ERC20InsufficientAllowance",
      "type": "error"
    },
    {
      "inputs": [
        {
          "internalType": "address",
          "name": "sender",
          "type": "address"
        },
        {
          "internalType": "uint256",
          "name": "balance",
          "type": "uint256"
        },
        {
          "internalType": "uint256",
          "name": "needed",
          "type": "uint256"
        }
      ],
      "name": "ERC20InsufficientBalance",
      "type": "error"
    },
    {
      "inputs": [
        {
          "internalType": "address",
          "name": "approver",
          "type": "address"
        }
      ],
      "name": "ERC20InvalidApprover",
      "type": "error"
    },
    {
      "inputs": [
        {
          "internalType": "address",
          "name": "receiver",
          "type": "address"
        }
      ],
      "name": "ERC20InvalidReceiver",
      "type": "error"
    },
    {
      "inputs": [
        {
          "internalType": "address",
          "name": "sender",
          "type": "address"
        }
      ],
      "name": "ERC20InvalidSender",
      "type": "error"
    },
    {
      "inputs": [
        {
          "internalType": "address",
          "name": "spender",
          "type": "address"
        }
      ],
      "name": "ERC20InvalidSpender",
      "type": "error"
    },
    {
      "inputs": [],
      "name": "IERC677_OnTokenTransferFailed",
      "type": "error"
    },
    {
      "inputs": [
        {
          "internalType": "address",
          "name": "sender",
          "type": "address"
        }
      ],
      "name": "Ownable_NotOwner",
      "type": "error"
    },
    {
      "inputs": [
        {
          "internalType": "uint256",
          "name": "deadline",
          "type": "uint256"
        },
        {
          "internalType": "uint256",
          "name": "blockTimestamp",
          "type": "uint256"
        }
      ],
      "name": "Permit_DeadlineExpired",
      "type": "error"
    },
    {
      "inputs": [
        {
          "internalType": "address",
          "name": "signerAddress",
          "type": "address"
        }
      ],
      "name": "Permit_InvalidSigner",
      "type": "error"
    },
    {
      "inputs": [],
      "name": "Recoverable_RateZero",
      "type": "error"
    },
    {
      "inputs": [
        {
          "internalType": "uint256",
          "name": "totalShares",
          "type": "uint256"
        },
        {
          "internalType": "uint256",
          "name": "needed",
          "type": "uint256"
        }
      ],
      "name": "Shares_InsufficientTotalShares",
      "type": "error"
    },
    {
      "inputs": [
        {
          "internalType": "uint256",
          "name": "totalSupply",
          "type": "uint256"
        },
        {
          "internalType": "uint256",
          "name": "newTotalShares",
          "type": "uint256"
        }
      ],
      "name": "Shares_InvalidTotalShares",
      "type": "error"
    },
    {
      "inputs": [
        {
          "internalType": "uint256",
          "name": "targets",
          "type": "uint256"
        },
        {
          "internalType": "uint256",
          "name": "amount",
          "type": "uint256"
        }
      ],
      "name": "Shares_UnequalLength",
      "type": "error"
    },
    {
      "anonymous": false,
      "inputs": [
        {
          "indexed": false,
          "internalType": "string",
          "name": "message",
          "type": "string"
        }
      ],
      "name": "Announcement",
      "type": "event"
    },
    {
      "anonymous": false,
      "inputs": [
        {
          "indexed": true,
          "internalType": "address",
          "name": "owner",
          "type": "address"
        },
        {
          "indexed": true,
          "internalType": "address",
          "name": "spender",
          "type": "address"
        },
        {
          "indexed": false,
          "internalType": "uint256",
          "name": "value",
          "type": "uint256"
        }
      ],
      "name": "Approval",
      "type": "event"
    },
    {
      "anonymous": false,
      "inputs": [
        {
          "indexed": false,
          "internalType": "string",
          "name": "terms",
          "type": "string"
        }
      ],
      "name": "ChangeTerms",
      "type": "event"
    },
    {
      "anonymous": false,
      "inputs": [
        {
          "indexed": false,
          "internalType": "uint256",
          "name": "total",
          "type": "uint256"
        }
      ],
      "name": "ChangeTotalShares",
      "type": "event"
    },
    {
      "anonymous": false,
      "inputs": [
        {
          "indexed": false,
          "internalType": "string",
          "name": "name",
          "type": "string"
        },
        {
          "indexed": false,
          "internalType": "string",
          "name": "symbol",
          "type": "string"
        }
      ],
      "name": "NameChanged",
      "type": "event"
    },
    {
      "anonymous": false,
      "inputs": [
        {
          "indexed": true,
          "internalType": "address",
          "name": "previousOwner",
          "type": "address"
        },
        {
          "indexed": true,
          "internalType": "address",
          "name": "newOwner",
          "type": "address"
        }
      ],
      "name": "OwnershipTransferred",
      "type": "event"
    },
    {
      "anonymous": false,
      "inputs": [
        {
          "indexed": true,
          "internalType": "address",
          "name": "holder",
          "type": "address"
        },
        {
          "indexed": false,
          "internalType": "uint256",
          "name": "amount",
          "type": "uint256"
        },
        {
          "indexed": false,
          "internalType": "string",
          "name": "message",
          "type": "string"
        }
      ],
      "name": "TokensDeclaredInvalid",
      "type": "event"
    },
    {
      "anonymous": false,
      "inputs": [
        {
          "indexed": true,
          "internalType": "address",
          "name": "from",
          "type": "address"
        },
        {
          "indexed": true,
          "internalType": "address",
          "name": "to",
          "type": "address"
        },
        {
          "indexed": false,
          "internalType": "uint256",
          "name": "value",
          "type": "uint256"
        }
      ],
      "name": "Transfer",
      "type": "event"
    },
    {
      "inputs": [],
      "name": "DOMAIN_SEPARATOR",
      "outputs": [
        {
          "internalType": "bytes32",
          "name": "",
          "type": "bytes32"
        }
      ],
      "stateMutability": "view",
      "type": "function"
    },
    {
      "inputs": [],
      "name": "VERSION",
      "outputs": [
        {
          "internalType": "uint8",
          "name": "",
          "type": "uint8"
        }
      ],
      "stateMutability": "view",
      "type": "function"
    },
    {
      "inputs": [
        {
          "internalType": "address",
          "name": "owner",
          "type": "address"
        },
        {
          "internalType": "address",
          "name": "spender",
          "type": "address"
        }
      ],
      "name": "allowance",
      "outputs": [
        {
          "internalType": "uint256",
          "name": "",
          "type": "uint256"
        }
      ],
      "stateMutability": "view",
      "type": "function"
    },
    {
      "inputs": [
        {
          "internalType": "string",
          "name": "message",
          "type": "string"
        }
      ],
      "name": "announcement",
      "outputs": [],
      "stateMutability": "nonpayable",
      "type": "function"
    },
    {
      "inputs": [
        {
          "internalType": "address",
          "name": "spender",
          "type": "address"
        },
        {
          "internalType": "uint256",
          "name": "value",
          "type": "uint256"
        }
      ],
      "name": "approve",
      "outputs": [
        {
          "internalType": "bool",
          "name": "",
          "type": "bool"
        }
      ],
      "stateMutability": "nonpayable",
      "type": "function"
    },
    {
      "inputs": [
        {
          "internalType": "address",
          "name": "account",
          "type": "address"
        }
      ],
      "name": "balanceOf",
      "outputs": [
        {
          "internalType": "uint256",
          "name": "",
          "type": "uint256"
        }
      ],
      "stateMutability": "view",
      "type": "function"
    },
    {
      "inputs": [
        {
          "internalType": "uint256",
          "name": "_amount",
          "type": "uint256"
        }
      ],
      "name": "burn",
      "outputs": [],
      "stateMutability": "nonpayable",
      "type": "function"
    },
    {
      "inputs": [],
      "name": "claimPeriod",
      "outputs": [
        {
          "internalType": "uint256",
          "name": "",
          "type": "uint256"
        }
      ],
      "stateMutability": "pure",
      "type": "function"
    },
    {
      "inputs": [],
      "name": "customCollateralAddress",
      "outputs": [
        {
          "internalType": "contract IERC20",
          "name": "",
          "type": "address"
        }
      ],
      "stateMutability": "view",
      "type": "function"
    },
    {
      "inputs": [],
      "name": "customCollateralRate",
      "outputs": [
        {
          "internalType": "uint256",
          "name": "",
          "type": "uint256"
        }
      ],
      "stateMutability": "view",
      "type": "function"
    },
    {
      "inputs": [],
      "name": "decimals",
      "outputs": [
        {
          "internalType": "uint8",
          "name": "",
          "type": "uint8"
        }
      ],
      "stateMutability": "view",
      "type": "function"
    },
    {
      "inputs": [
        {
          "internalType": "address",
          "name": "holder",
          "type": "address"
        },
        {
          "internalType": "uint256",
          "name": "amount",
          "type": "uint256"
        },
        {
          "internalType": "string",
          "name": "message",
          "type": "string"
        }
      ],
      "name": "declareInvalid",
      "outputs": [],
      "stateMutability": "nonpayable",
      "type": "function"
    },
    {
      "inputs": [
        {
          "internalType": "address",
          "name": "lostAddress",
          "type": "address"
        }
      ],
      "name": "deleteClaim",
      "outputs": [],
      "stateMutability": "nonpayable",
      "type": "function"
    },
    {
      "inputs": [],
      "name": "getClaimDeleter",
      "outputs": [
        {
          "internalType": "address",
          "name": "",
          "type": "address"
        }
      ],
      "stateMutability": "view",
      "type": "function"
    },
    {
      "inputs": [
        {
          "internalType": "contract IERC20",
          "name": "collateralType",
          "type": "address"
        }
      ],
      "name": "getCollateralRate",
      "outputs": [
        {
          "internalType": "uint256",
          "name": "",
          "type": "uint256"
        }
      ],
      "stateMutability": "view",
      "type": "function"
    },
    {
      "inputs": [
        {
          "internalType": "address",
          "name": "account",
          "type": "address"
        },
        {
          "internalType": "uint8",
          "name": "number",
          "type": "uint8"
        }
      ],
      "name": "hasFlag",
      "outputs": [
        {
          "internalType": "bool",
          "name": "",
          "type": "bool"
        }
      ],
      "stateMutability": "view",
      "type": "function"
    },
    {
      "inputs": [],
      "name": "invalidTokens",
      "outputs": [
        {
          "internalType": "uint256",
          "name": "",
          "type": "uint256"
        }
      ],
      "stateMutability": "view",
      "type": "function"
    },
    {
      "inputs": [
        {
          "internalType": "address",
          "name": "target",
          "type": "address"
        },
        {
          "internalType": "uint256",
          "name": "amount",
          "type": "uint256"
        }
      ],
      "name": "mint",
      "outputs": [],
      "stateMutability": "nonpayable",
      "type": "function"
    },
    {
      "inputs": [
        {
          "internalType": "address",
          "name": "shareholder",
          "type": "address"
        },
        {
          "internalType": "address",
          "name": "callee",
          "type": "address"
        },
        {
          "internalType": "uint256",
          "name": "amount",
          "type": "uint256"
        },
        {
          "internalType": "bytes",
          "name": "data",
          "type": "bytes"
        }
      ],
      "name": "mintAndCall",
      "outputs": [],
      "stateMutability": "nonpayable",
      "type": "function"
    },
    {
      "inputs": [
        {
          "internalType": "address[]",
          "name": "target",
          "type": "address[]"
        },
        {
          "internalType": "uint256[]",
          "name": "amount",
          "type": "uint256[]"
        }
      ],
      "name": "mintMany",
      "outputs": [],
      "stateMutability": "nonpayable",
      "type": "function"
    },
    {
      "inputs": [
        {
          "internalType": "address[]",
          "name": "target",
          "type": "address[]"
        },
        {
          "internalType": "address",
          "name": "callee",
          "type": "address"
        },
        {
          "internalType": "uint256[]",
          "name": "amount",
          "type": "uint256[]"
        },
        {
          "internalType": "bytes",
          "name": "data",
          "type": "bytes"
        }
      ],
      "name": "mintManyAndCall",
      "outputs": [],
      "stateMutability": "nonpayable",
      "type": "function"
    },
    {
      "inputs": [],
      "name": "name",
      "outputs": [
        {
          "internalType": "string",
          "name": "",
          "type": "string"
        }
      ],
      "stateMutability": "view",
      "type": "function"
    },
    {
      "inputs": [
        {
          "internalType": "address",
          "name": "",
          "type": "address"
        }
      ],
      "name": "nonces",
      "outputs": [
        {
          "internalType": "uint256",
          "name": "",
          "type": "uint256"
        }
      ],
      "stateMutability": "view",
      "type": "function"
    },
    {
      "inputs": [
        {
          "internalType": "address",
          "name": "target",
          "type": "address"
        }
      ],
      "name": "notifyClaimDeleted",
      "outputs": [],
      "stateMutability": "nonpayable",
      "type": "function"
    },
    {
      "inputs": [
        {
          "internalType": "address",
          "name": "target",
          "type": "address"
        }
      ],
      "name": "notifyClaimMade",
      "outputs": [],
      "stateMutability": "nonpayable",
      "type": "function"
    },
    {
      "inputs": [],
      "name": "owner",
      "outputs": [
        {
          "internalType": "address",
          "name": "",
          "type": "address"
        }
      ],
      "stateMutability": "view",
      "type": "function"
    },
    {
      "inputs": [
        {
          "internalType": "address",
          "name": "owner",
          "type": "address"
        },
        {
          "internalType": "address",
          "name": "spender",
          "type": "address"
        },
        {
          "internalType": "uint256",
          "name": "value",
          "type": "uint256"
        },
        {
          "internalType": "uint256",
          "name": "deadline",
          "type": "uint256"
        },
        {
          "internalType": "uint8",
          "name": "v",
          "type": "uint8"
        },
        {
          "internalType": "bytes32",
          "name": "r",
          "type": "bytes32"
        },
        {
          "internalType": "bytes32",
          "name": "s",
          "type": "bytes32"
        }
      ],
      "name": "permit",
      "outputs": [],
      "stateMutability": "nonpayable",
      "type": "function"
    },
    {
      "inputs": [],
      "name": "permit2Hub",
      "outputs": [
        {
          "internalType": "contract Permit2Hub",
          "name": "",
          "type": "address"
        }
      ],
      "stateMutability": "view",
      "type": "function"
    },
    {
      "inputs": [
        {
          "internalType": "address",
          "name": "oldAddress",
          "type": "address"
        },
        {
          "internalType": "address",
          "name": "newAddress",
          "type": "address"
        }
      ],
      "name": "recover",
      "outputs": [],
      "stateMutability": "nonpayable",
      "type": "function"
    },
    {
      "inputs": [],
      "name": "recovery",
      "outputs": [
        {
          "internalType": "contract IRecoveryHub",
          "name": "",
          "type": "address"
        }
      ],
      "stateMutability": "view",
      "type": "function"
    },
    {
      "inputs": [
        {
          "internalType": "contract IERC20",
          "name": "collateral",
          "type": "address"
        },
        {
          "internalType": "uint256",
          "name": "rate",
          "type": "uint256"
        }
      ],
      "name": "setCustomClaimCollateral",
      "outputs": [],
      "stateMutability": "nonpayable",
      "type": "function"
    },
    {
      "inputs": [
        {
          "internalType": "string",
          "name": "_symbol",
          "type": "string"
        },
        {
          "internalType": "string",
          "name": "_name",
          "type": "string"
        }
      ],
      "name": "setName",
      "outputs": [],
      "stateMutability": "nonpayable",
      "type": "function"
    },
    {
      "inputs": [
        {
          "internalType": "string",
          "name": "_terms",
          "type": "string"
        }
      ],
      "name": "setTerms",
      "outputs": [],
      "stateMutability": "nonpayable",
      "type": "function"
    },
    {
      "inputs": [
        {
          "internalType": "uint256",
          "name": "_newTotalShares",
          "type": "uint256"
        }
      ],
      "name": "setTotalShares",
      "outputs": [],
      "stateMutability": "nonpayable",
      "type": "function"
    },
    {
      "inputs": [],
      "name": "symbol",
      "outputs": [
        {
          "internalType": "string",
          "name": "",
          "type": "string"
        }
      ],
      "stateMutability": "view",
      "type": "function"
    },
    {
      "inputs": [],
      "name": "terms",
      "outputs": [
        {
          "internalType": "string",
          "name": "",
          "type": "string"
        }
      ],
      "stateMutability": "view",
      "type": "function"
    },
    {
      "inputs": [],
      "name": "totalShares",
      "outputs": [
        {
          "internalType": "uint256",
          "name": "",
          "type": "uint256"
        }
      ],
      "stateMutability": "view",
      "type": "function"
    },
    {
      "inputs": [],
      "name": "totalSupply",
      "outputs": [
        {
          "internalType": "uint256",
          "name": "",
          "type": "uint256"
        }
      ],
      "stateMutability": "view",
      "type": "function"
    },
    {
      "inputs": [],
      "name": "totalValidSupply",
      "outputs": [
        {
          "internalType": "uint256",
          "name": "",
          "type": "uint256"
        }
      ],
      "stateMutability": "view",
      "type": "function"
    },
    {
      "inputs": [
        {
          "internalType": "address",
          "name": "to",
          "type": "address"
        },
        {
          "internalType": "uint256",
          "name": "value",
          "type": "uint256"
        }
      ],
      "name": "transfer",
      "outputs": [
        {
          "internalType": "bool",
          "name": "",
          "type": "bool"
        }
      ],
      "stateMutability": "nonpayable",
      "type": "function"
    },
    {
      "inputs": [
        {
          "internalType": "address",
          "name": "recipient",
          "type": "address"
        },
        {
          "internalType": "uint256",
          "name": "amount",
          "type": "uint256"
        },
        {
          "internalType": "bytes",
          "name": "data",
          "type": "bytes"
        }
      ],
      "name": "transferAndCall",
      "outputs": [
        {
          "internalType": "bool",
          "name": "",
          "type": "bool"
        }
      ],
      "stateMutability": "nonpayable",
      "type": "function"
    },
    {
      "inputs": [
        {
          "internalType": "address",
          "name": "sender",
          "type": "address"
        },
        {
          "internalType": "address",
          "name": "recipient",
          "type": "address"
        },
        {
          "internalType": "uint256",
          "name": "amount",
          "type": "uint256"
        }
      ],
      "name": "transferFrom",
      "outputs": [
        {
          "internalType": "bool",
          "name": "",
          "type": "bool"
        }
      ],
      "stateMutability": "nonpayable",
      "type": "function"
    },
    {
      "inputs": [
        {
          "internalType": "address",
          "name": "newOwner",
          "type": "address"
        }
      ],
      "name": "transferOwnership",
      "outputs": [],
      "stateMutability": "nonpayable",
      "type": "function"
    }
  ],
  "transactionHash": "0x0e516b75f9581b64e926f3ba66afe277ffd752cd70f47e313474511e88d6f556",
  "args": [
    "IFPS",
    "Innofactory AG Participation Certificates",
    "aktienbuch.innofactory.ch",
    "2000",
    "0xC0a1deaB3f49268b4Adb9c502559d1491b8Bf115",
    "0x5e200B3C6e9ce8280dbB14A0E5486895456136EF",
    "0xd3DE54d9e424BF27b8259E69B205127722c771Cb"
  ],
  "numDeployments": 1,
  "solcInputHash": "b9c6d8d4cc9ff5a6427c89998d224cfc",
  "bytecode": "0x60c060405234801561001057600080fd5b5060405161248438038061248483398101604081905261002f91610265565b6003805460ff191690556001600160a01b03828116608052600580546001600160a01b03191691851691821790556040518291899189916000918891829184907f8be0079c531659141344cd1fd0a4f28419497f9722a3daafe3b4186f6b6457e0908290a35061009f848461012f565b505050506001600160a01b031660a052600a84905560096100c086826103bf565b506000600b819055604051636427ed9760e01b815260048101919091526001600160a01b03831690636427ed9790602401600060405180830381600087803b15801561010b57600080fd5b505af115801561011f573d6000803e3d6000fd5b50505050505050505050506104d7565b600761013b83826103bf565b50600661014882826103bf565b507f6c20b91d1723b78732eba64ff11ebd7966a6e4af568a00fa4f6b72c20f58b02a818360405161017a9291906104a9565b60405180910390a15050565b634e487b7160e01b600052604160045260246000fd5b60005b838110156101b757818101518382015260200161019f565b50506000910152565b600082601f8301126101d157600080fd5b81516001600160401b038111156101ea576101ea610186565b604051601f8201601f19908116603f011681016001600160401b038111828210171561021857610218610186565b60405281815283820160200185101561023057600080fd5b61024182602083016020870161019c565b949350505050565b80516001600160a01b038116811461026057600080fd5b919050565b600080600080600080600060e0888a03121561028057600080fd5b87516001600160401b0381111561029657600080fd5b6102a28a828b016101c0565b60208a015190985090506001600160401b038111156102c057600080fd5b6102cc8a828b016101c0565b60408a015190975090506001600160401b038111156102ea57600080fd5b6102f68a828b016101c0565b9550506060880151935061030c60808901610249565b925061031a60a08901610249565b915061032860c08901610249565b905092959891949750929550565b600181811c9082168061034a57607f821691505b60208210810361036a57634e487b7160e01b600052602260045260246000fd5b50919050565b601f8211156103ba57806000526020600020601f840160051c810160208510156103975750805b601f840160051c820191505b818110156103b757600081556001016103a3565b50505b505050565b81516001600160401b038111156103d8576103d8610186565b6103ec816103e68454610336565b84610370565b6020601f82116001811461042057600083156104085750848201515b600019600385901b1c1916600184901b1784556103b7565b600084815260208120601f198516915b828110156104505787850151825560209485019460019092019101610430565b508482101561046e5786840151600019600387901b60f8161c191681555b50505050600190811b01905550565b6000815180845261049581602086016020860161019c565b601f01601f19169290920160200192915050565b6040815260006104bc604083018561047d565b82810360208401526104ce818561047d565b95945050505050565b60805160a051611f5e610526600039600081816102f601526114200152600081816105420152818161073c01528181610b8a01528181610d3401528181610f3801526113250152611f5e6000f3fe608060405234801561001057600080fd5b50600436106102695760003560e01c80636091811711610151578063b0d04c7a116100c3578063ddceafa911610087578063ddceafa91461053d578063e5b824ec14610564578063f2fde38b14610577578063f54fc0601461058a578063f5c0b95f1461059d578063ffa1ad74146105b057600080fd5b8063b0d04c7a146104f4578063c18172c4146104fc578063d50256251461050f578063d505accf14610517578063dd62ed3e1461052a57600080fd5b80637dc2cd98116101155780637dc2cd981461048a5780637ecebe00146104935780638da5cb5b146104b357806395d89b41146104c6578063a77384c1146104ce578063a9059cbb146104e157600080fd5b80636091811714610435578063648bf7741461043e57806370a082311461045157806377e071ad1461046457806378f86afc1461047757600080fd5b80633644e515116101ea5780634029a3ce116101ae5780634029a3ce146103c357806340c10f19146103d657806342966c68146103e9578063487346b2146103fc5780635c707f071461040f5780635d6624b71461042257600080fd5b80633644e5151461038357806337a8129c1461038b5780633a1cdf32146103945780633a98ef39146103a75780634000aea0146103b057600080fd5b80631f0f06aa116102315780631f0f06aa1461031857806323b872dd1461032d5780632a0a4ed514610340578063313ce5671461035157806332a7ae951461037057600080fd5b806306fdde031461026e578063095ea7b31461028c5780630c6f0e5d146102af57806318160ddd146102df57806318efcce5146102f1575b600080fd5b6102766105b8565b60405161028391906116fc565b60405180910390f35b61029f61029a366004611724565b610646565b6040519015158152602001610283565b6003546102c79061010090046001600160a01b031681565b6040516001600160a01b039091168152602001610283565b6002545b604051908152602001610283565b6102c77f000000000000000000000000000000000000000000000000000000000000000081565b61032b610326366004611798565b61065d565b005b61029f61033b3660046117d9565b6106a2565b6005546001600160a01b03166102c7565b60035461035e9060ff1681565b60405160ff9091168152602001610283565b61032b61037e36600461181a565b610703565b6102e361079b565b6102e3600b5481565b61032b6103a2366004611724565b6107f4565b6102e3600a5481565b61029f6103be366004611837565b61080a565b61032b6103d13660046118d6565b61089b565b61032b6103e4366004611724565b610936565b61032b6103f7366004611939565b610948565b61032b61040a366004611952565b610960565b61032b61041d366004611aab565b610abf565b61032b610430366004611837565b610ad1565b6102e360045481565b61032b61044c366004611b12565b610b85565b6102e361045f36600461181a565b610bc1565b6102e361047236600461181a565b610be5565b61032b610485366004611b4b565b610c2f565b62ed4e006102e3565b6102e36104a136600461181a565b60086020526000908152604090205481565b6005546102c7906001600160a01b031681565b610276610c7e565b61032b6104dc366004611939565b610c8b565b61029f6104ef366004611724565b610cff565b6102e3610d12565b61032b61050a36600461181a565b610d2f565b610276610d65565b61032b610525366004611b98565b610d72565b6102e3610538366004611b12565b610f27565b6102c77f000000000000000000000000000000000000000000000000000000000000000081565b61032b61057236600461181a565b610f33565b61032b61058536600461181a565b610f69565b61032b610598366004611c07565b610fcd565b61029f6105ab366004611c79565b611069565b61035e600481565b600680546105c590611cae565b80601f01602080910402602001604051908101604052809291908181526020018280546105f190611cae565b801561063e5780601f106106135761010080835404028352916020019161063e565b820191906000526020600020905b81548152906001019060200180831161062157829003601f168201915b505050505081565b6000610653338484611075565b5060015b92915050565b6106656110d7565b7f07ce702fc13ca0620c174dab22996a6d5fd9e7accb663555a4e85323692706ba8282604051610696929190611d11565b60405180910390a15050565b60006106af848484611106565b60006106bb8533610f27565b9050600160ff1b8110156106f8576106d38382611d3b565b6001600160a01b03861660009081526001602090815260408083203384529091529020555b506001949350505050565b61071d6107186005546001600160a01b031690565b61115f565b6040516332a7ae9560e01b81526001600160a01b0382811660048301527f000000000000000000000000000000000000000000000000000000000000000016906332a7ae9590602401600060405180830381600087803b15801561078057600080fd5b505af1158015610794573d6000803e3d6000fd5b5050505050565b604080517f47e79534a245952e8b16893a336b85a3d9ea9fa8c573f3d803afb92a794692186020820152469181019190915230606082015260009060800160405160208183030381529060405280519060200120905090565b6107fc6110d7565b610806828261118a565b5050565b60006108168585610cff565b80156108925750604051635260769b60e11b81526001600160a01b0386169063a4c0ed369061084f903390889088908890600401611d4e565b6020604051808303816000875af115801561086e573d6000803e3d6000fd5b505050506040513d601f19601f820116820180604052508101906108929190611d80565b95945050505050565b6108a36110d7565b828181146108d357604051634ee401dd60e11b815260048101829052602481018390526044015b60405180910390fd5b60005b8181101561092e576109268686838181106108f3576108f3611da2565b9050602002016020810190610908919061181a565b85858481811061091a5761091a611da2565b905060200201356111e9565b6001016108d6565b505050505050565b61093e6110d7565b61080682826111e9565b610953333083611106565b61095d3082611240565b50565b8583811461098b57604051634ee401dd60e11b815260048101829052602481018590526044016108ca565b6000805b828110156109c5578686828181106109a9576109a9611da2565b90506020020135826109bb9190611db8565b915060010161098f565b506109d08782610936565b60005b82811015610ab357876001600160a01b031663a4c0ed368b8b848181106109fc576109fc611da2565b9050602002016020810190610a11919061181a565b898985818110610a2357610a23611da2565b9050602002013588886040518563ffffffff1660e01b8152600401610a4b9493929190611d4e565b6020604051808303816000875af1158015610a6a573d6000803e3d6000fd5b505050506040513d601f19601f82011682018060405250810190610a8e9190611d80565b610aab57604051631956a44d60e31b815260040160405180910390fd5b6001016109d3565b50505050505050505050565b610ac76110d7565b61080682826112a8565b610ad96110d7565b6000610ae485610bc1565b905080841115610b205760405163391434e360e21b81526001600160a01b038616600482015260248101829052604481018590526064016108ca565b83600b6000828254610b329190611db8565b92505081905550846001600160a01b03167f0a605cd1294f60fa3b73548ac68428f33300a051f225afcdcc75e56083c96ee7858585604051610b7693929190611dcb565b60405180910390a25050505050565b610bae7f000000000000000000000000000000000000000000000000000000000000000061115f565b6108068282610bbc85610bc1565b611106565b6001600160a01b03166000908152602081905260409020546001600160e01b031690565b6000306001600160a01b03831603610bff57506001919050565b6003546001600160a01b03610100909104811690831603610c2257505060045490565b506000919050565b919050565b610c376110d7565b6009610c438282611e2c565b507fe9f2468ecc8d3dff15a70a5909151e6297cee4cf05268eff3d7ef0c696ec50f281604051610c7391906116fc565b60405180910390a150565b600780546105c590611cae565b610c936110d7565b6000610c9d610d12565b905080821015610cca5760405163e9ccb41b60e01b815260048101829052602481018390526044016108ca565b600a8290556040518281527fdcbf73bf1e396dbe03ccbcd29c0aa52eb8028ae24726098296357286de4f5b2690602001610696565b6000610d0b83836112f3565b9392505050565b6000600b54610d2060025490565b610d2a9190611d3b565b905090565b610d587f000000000000000000000000000000000000000000000000000000000000000061115f565b61095d81600a6001611392565b600980546105c590611cae565b42841015610d9c57604051630b99fc4b60e31b8152600481018590524260248201526044016108ca565b60006001610da861079b565b6001600160a01b038a811660008181526008602090815260409182902080546001810190915582517f6e71edae12b1b97f4d1f60370fef10105fa2faae0126114a169c64845d6126c98184015280840194909452938d166060840152608083018c905260a083019390935260c08083018b90528151808403909101815260e08301909152805192019190912061190160f01b6101008301526101028201929092526101228101919091526101420160408051601f198184030181528282528051602091820120600084529083018083525260ff871690820152606081018590526080810184905260a0016020604051602081039080840390855afa158015610eb4573d6000803e3d6000fd5b5050604051601f1901519150506001600160a01b0381161580610ee95750876001600160a01b0316816001600160a01b031614155b15610f1257604051632f52260d60e11b81526001600160a01b03821660048201526024016108ca565b610f1d818888611075565b5050505050505050565b6000610d0b83836113f6565b610f5c7f000000000000000000000000000000000000000000000000000000000000000061115f565b61095d81600a6000611392565b610f716110d7565b6005546040516001600160a01b038084169216907f8be0079c531659141344cd1fd0a4f28419497f9722a3daafe3b4186f6b6457e090600090a3600580546001600160a01b0319166001600160a01b0392909216919091179055565b610fd78484610936565b604051635260769b60e11b81526001600160a01b0385169063a4c0ed3690611009908890879087908790600401611d4e565b6020604051808303816000875af1158015611028573d6000803e3d6000fd5b505050506040513d601f19601f8201168201806040525081019061104c9190611d80565b61079457604051631956a44d60e31b815260040160405180910390fd5b6000610d0b83836114c7565b6001600160a01b0383811660008181526001602090815260408083209487168084529482529182902085905590518481527f8c5be1e5ebec7d5bd14f71427d1e84f3dd0314c0f7b2291e5b200ac8c7c3b92591015b60405180910390a3505050565b6005546001600160a01b03163314611104576040516396a19be960e01b81523360048201526024016108ca565b565b6111108382611507565b61111a82826115a4565b816001600160a01b0316836001600160a01b03167fddf252ad1be2c89b69c2b068fc378daa952ba7f163c4a11628f55a4df523b3ef836040516110ca91815260200190565b336001600160a01b0382161461095d57604051634b637e8f60e11b81523360048201526024016108ca565b60038054610100600160a81b0319166101006001600160a01b0385811682029290921792839055909104166111c25760006004555050565b806000036111e357604051630ece93db60e41b815260040160405180910390fd5b60045550565b6000816111f4610d12565b6111fe9190611db8565b9050600a5481111561123157600a546040516340a8005d60e11b81526004810191909152602481018290526044016108ca565b61123b8383611649565b505050565b80600260008282546112529190611d3b565b9091555061126290508282611507565b6040518181526000906001600160a01b038416907fddf252ad1be2c89b69c2b068fc378daa952ba7f163c4a11628f55a4df523b3ef906020015b60405180910390a35050565b60076112b48382611e2c565b5060066112c18282611e2c565b507f6c20b91d1723b78732eba64ff11ebd7966a6e4af568a00fa4f6b72c20f58b02a8183604051610696929190611eea565b60006112ff83836116a9565b5061130b33600a6114c7565b15610653576040516304d301a360e41b81523360048201527f00000000000000000000000000000000000000000000000000000000000000006001600160a01b031690634d301a3090602401600060405180830381600087803b15801561137157600080fd5b505af1158015611385573d6000803e3d6000fd5b5050505050600192915050565b600061139f8360e0611f0f565b6001600160a01b038516600090815260208190526040902054600160ff929092169190911b9150808216821483151514610794576001600160a01b0394909416600090815260208190526040902093189092555050565b604051632fb6b53160e11b81526001600160a01b03838116600483015282811660248301526000917f000000000000000000000000000000000000000000000000000000000000000090911690635f6d6a6290604401602060405180830381865afa158015611469573d6000803e3d6000fd5b505050506040513d601f19601f8201168201806040525081019061148d9190611d80565b1561149b5750600019610657565b506001600160a01b03828116600090815260016020908152604080832093851683529290522054610657565b6000806114d58360e0611f0f565b6001600160a01b038516600090815260208190526040902054600160ff929092169190911b9081161491505092915050565b6001600160a01b0382166000908152602081905260408120549061152b8383611d3b565b90506001600160e01b031981166001600160e01b0319831614611583578361155285610bc1565b60405163391434e360e21b81526001600160a01b0390921660048301526024820152604481018490526064016108ca565b6001600160a01b039093166000908152602081905260409020929092555050565b6001600160a01b0382166115d65760405163ec442f0560e01b81526001600160a01b03831660048201526024016108ca565b6001600160a01b038216600090815260208190526040812054906115fa8383611db8565b90506001600160e01b031981166001600160e01b031983161461158357604051634a2e08e560e01b81526001600160a01b038516600482015260248101839052604481018490526064016108ca565b806002600082825461165b9190611db8565b9091555061166b905082826115a4565b6040518181526001600160a01b038316906000907fddf252ad1be2c89b69c2b068fc378daa952ba7f163c4a11628f55a4df523b3ef9060200161129c565b6000610653338484611106565b6000815180845260005b818110156116dc576020818501810151868301820152016116c0565b506000602082860101526020601f19601f83011685010191505092915050565b602081526000610d0b60208301846116b6565b6001600160a01b038116811461095d57600080fd5b6000806040838503121561173757600080fd5b82356117428161170f565b946020939093013593505050565b60008083601f84011261176257600080fd5b5081356001600160401b0381111561177957600080fd5b60208301915083602082850101111561179157600080fd5b9250929050565b600080602083850312156117ab57600080fd5b82356001600160401b038111156117c157600080fd5b6117cd85828601611750565b90969095509350505050565b6000806000606084860312156117ee57600080fd5b83356117f98161170f565b925060208401356118098161170f565b929592945050506040919091013590565b60006020828403121561182c57600080fd5b8135610d0b8161170f565b6000806000806060858703121561184d57600080fd5b84356118588161170f565b93506020850135925060408501356001600160401b0381111561187a57600080fd5b61188687828801611750565b95989497509550505050565b60008083601f8401126118a457600080fd5b5081356001600160401b038111156118bb57600080fd5b6020830191508360208260051b850101111561179157600080fd5b600080600080604085870312156118ec57600080fd5b84356001600160401b0381111561190257600080fd5b61190e87828801611892565b90955093505060208501356001600160401b0381111561192d57600080fd5b61188687828801611892565b60006020828403121561194b57600080fd5b5035919050565b60008060008060008060006080888a03121561196d57600080fd5b87356001600160401b0381111561198357600080fd5b61198f8a828b01611892565b90985096505060208801356119a38161170f565b945060408801356001600160401b038111156119be57600080fd5b6119ca8a828b01611892565b90955093505060608801356001600160401b038111156119e957600080fd5b6119f58a828b01611750565b989b979a50959850939692959293505050565b634e487b7160e01b600052604160045260246000fd5b600082601f830112611a2f57600080fd5b81356001600160401b03811115611a4857611a48611a08565b604051601f8201601f19908116603f011681016001600160401b0381118282101715611a7657611a76611a08565b604052818152838201602001851015611a8e57600080fd5b816020850160208301376000918101602001919091529392505050565b60008060408385031215611abe57600080fd5b82356001600160401b03811115611ad457600080fd5b611ae085828601611a1e565b92505060208301356001600160401b03811115611afc57600080fd5b611b0885828601611a1e565b9150509250929050565b60008060408385031215611b2557600080fd5b8235611b308161170f565b91506020830135611b408161170f565b809150509250929050565b600060208284031215611b5d57600080fd5b81356001600160401b03811115611b7357600080fd5b611b7f84828501611a1e565b949350505050565b803560ff81168114610c2a57600080fd5b600080600080600080600060e0888a031215611bb357600080fd5b8735611bbe8161170f565b96506020880135611bce8161170f565b95506040880135945060608801359350611bea60808901611b87565b9699959850939692959460a0840135945060c09093013592915050565b600080600080600060808688031215611c1f57600080fd5b8535611c2a8161170f565b94506020860135611c3a8161170f565b93506040860135925060608601356001600160401b03811115611c5c57600080fd5b611c6888828901611750565b969995985093965092949392505050565b60008060408385031215611c8c57600080fd5b8235611c978161170f565b9150611ca560208401611b87565b90509250929050565b600181811c90821680611cc257607f821691505b602082108103611ce257634e487b7160e01b600052602260045260246000fd5b50919050565b81835281816020850137506000828201602090810191909152601f909101601f19169091010190565b602081526000611b7f602083018486611ce8565b634e487b7160e01b600052601160045260246000fd5b8181038181111561065757610657611d25565b60018060a01b0385168152836020820152606060408201526000611d76606083018486611ce8565b9695505050505050565b600060208284031215611d9257600080fd5b81518015158114610d0b57600080fd5b634e487b7160e01b600052603260045260246000fd5b8082018082111561065757610657611d25565b838152604060208201526000610892604083018486611ce8565b601f82111561123b57806000526020600020601f840160051c81016020851015611e0c5750805b601f840160051c820191505b818110156107945760008155600101611e18565b81516001600160401b03811115611e4557611e45611a08565b611e5981611e538454611cae565b84611de5565b6020601f821160018114611e8d5760008315611e755750848201515b600019600385901b1c1916600184901b178455610794565b600084815260208120601f198516915b82811015611ebd5787850151825560209485019460019092019101611e9d565b5084821015611edb5786840151600019600387901b60f8161c191681555b50505050600190811b01905550565b604081526000611efd60408301856116b6565b828103602084015261089281856116b6565b60ff818116838216019081111561065757610657611d2556fea2646970667358221220e55d5a28e34d2321f10d3baa0d1f6fde29c3c022c20a783dbf81881c47f718ed64736f6c634300081a0033",
  "devdoc": {
    "author": "Luzius Meisser, luzius@aktionariat.com These tokens represent ledger-based securities according to article 973d of the Swiss Code of Obligations. This smart contract serves as an ownership registry, enabling the token holders to register them as shareholders in the issuer's shareholder registry. This is equivalent to the traditional system of having physical share certificates kept at home by the shareholders and a shareholder registry run by the company. Just like with physical certificates, the owners of the tokens are the owners of the shares. However, in order to exercise their rights (for example receive a dividend), shareholders must register themselves. For example, in case the company pays out a dividend to a previous shareholder because the current shareholder did not register, the company cannot be held liable for paying the dividend to the \"wrong\" shareholder. In relation to the company, only the registered shareholders count as such.",
    "errors": {
      "ERC20BalanceOverflow(address,uint256,uint256)": [
        {
          "params": {
            "amount": "The amount added, which result in the overflow. ",
            "balance": "The current balance of the receiver. ",
            "receiver": "The address were the balance overflows. "
          }
        }
      ],
      "Permit_DeadlineExpired(uint256,uint256)": [
        {
          "params": {
            "blockTimestamp": "The timestamp of the execution block.",
            "deadline": "The deadline of the permit."
          }
        }
      ],
      "Permit_InvalidSigner(address)": [
        {
          "params": {
            "signerAddress": "The recovered signer address."
          }
        }
      ],
      "Shares_InsufficientTotalShares(uint256,uint256)": [
        {
          "params": {
            "needed": "The max amount of shares needed (current valid supply + new mint amount). ",
            "totalShares": "The max amount of shares. "
          }
        }
      ],
      "Shares_InvalidTotalShares(uint256,uint256)": [
        {
          "params": {
            "newTotalShares": "The new max shares. ",
            "totalSupply": "The current valid supply. "
          }
        }
      ],
      "Shares_UnequalLength(uint256,uint256)": [
        {
          "params": {
            "amount": "Array length of amounts. ",
            "targets": "Array length of targets. "
          }
        }
      ]
    },
    "events": {
      "Approval(address,address,uint256)": {
        "details": "Emitted when the allowance of a `spender` for an `owner` is set by a call to `approve`. `value` is the new allowance."
      },
      "Transfer(address,address,uint256)": {
        "details": "Emitted when `value` tokens are moved from one account (`from`) to another (`to`). Note that `value` may be zero."
      }
    },
    "kind": "dev",
    "methods": {
      "DOMAIN_SEPARATOR()": {
        "details": "Returns the domain separator used in the encoding of the signature for {permit}, as defined by {EIP712}."
      },
      "approve(address,uint256)": {
        "details": "See `IERC20.approve`. Requirements: - `spender` cannot be the zero address."
      },
      "balanceOf(address)": {
        "details": "See `IERC20.balanceOf`."
      },
      "permit(address,address,uint256,uint256,uint8,bytes32,bytes32)": {
        "details": "Sets `value` as the allowance of `spender` over ``owner``'s tokens, given ``owner``'s signed approval. IMPORTANT: The same issues {IERC20-approve} has related to transaction ordering also apply here. Emits an {Approval} event. Requirements: - `spender` cannot be the zero address. - `deadline` must be a timestamp in the future. - `v`, `r` and `s` must be a valid `secp256k1` signature from `owner` over the EIP712-formatted function arguments. - the signature must use ``owner``'s current nonce (see {nonces}). For more information on the signature format, see the https://eips.ethereum.org/EIPS/eip-2612#specification[relevant EIP section]."
      },
      "totalSupply()": {
        "details": "See `IERC20.totalSupply`."
      },
      "transferFrom(address,address,uint256)": {
        "details": "See `IERC20.transferFrom`. Emits an `Approval` event indicating the updated allowance. This is not required by the EIP. See the note at the beginning of `ERC20`; Requirements: - `sender` and `recipient` cannot be the zero address. - `sender` must have a balance of at least `value`. - the caller must have allowance for `sender`'s tokens of at least `amount`."
      },
      "transferOwnership(address)": {
        "details": "Transfers ownership of the contract to a new account (`newOwner`). Can only be called by the current owner."
      }
    },
    "title": "CompanyName AG Shares",
    "version": 1
  },
  "userdoc": {
    "errors": {
      "ERC20BalanceOverflow(address,uint256,uint256)": [
        {
          "notice": "Overflow on minting, transfer. "
        }
      ],
      "Permit_DeadlineExpired(uint256,uint256)": [
        {
          "notice": "Block timestamp must to be before deadline."
        }
      ],
      "Permit_InvalidSigner(address)": [
        {
          "notice": "Recovered address must be owner and not zero address."
        }
      ],
      "Recoverable_RateZero()": [
        {
          "notice": "The new custom claim collateral rate has to be always > 0. "
        }
      ],
      "Shares_InsufficientTotalShares(uint256,uint256)": [
        {
          "notice": "It isn't possible to mint more share token than max shares in existens. "
        }
      ],
      "Shares_InvalidTotalShares(uint256,uint256)": [
        {
          "notice": "New total shares can't be below current valid supply"
        }
      ],
      "Shares_UnequalLength(uint256,uint256)": [
        {
          "notice": "Array lengths have to be equal. "
        }
      ]
    },
    "kind": "user",
    "methods": {
      "announcement(string)": {
        "notice": "Allows the issuer to make public announcements that are visible on the blockchain."
      },
      "burn(uint256)": {
        "notice": "Transfers _amount tokens to the company and burns them. The meaning of this operation depends on the circumstances and the fate of the shares does not necessarily follow the fate of the tokens. For example, the company itself might call this function to implement a formal decision to destroy some of the outstanding shares. Also, this function might be called by an owner to return the shares to the company and get them back in another form under an according agreement (e.g. printed certificates or tokens on a different blockchain). It is not recommended to call this function without having agreed with the company on the further fate of the shares in question."
      },
      "declareInvalid(address,uint256,string)": {
        "notice": "Signals that the indicated tokens have been declared invalid (e.g. by a court ruling in accordance with article 973g of the Swiss Code of Obligations) and got detached from the underlying shares. Invalid tokens do not carry any shareholder rights any more. This function is purely declarative. It does not technically immobilize the affected tokens as that would give the issuer too much power."
      },
      "getCollateralRate(address)": {
        "notice": "Returns the collateral rate for the given collateral type and 0 if that type of collateral is not accepted. By default, only the token itself is accepted at a rate of 1:1. Subclasses should override this method if they want to add additional types of collateral."
      },
      "mintAndCall(address,address,uint256,bytes)": {
        "notice": "Allows the company to tokenize shares and transfer them e.g to the draggable contract and wrap them. If these shares are newly created, setTotalShares must be called first in order to adjust the total number of shares."
      },
      "setCustomClaimCollateral(address,uint256)": {
        "notice": "See parent method for collateral requirements."
      },
      "setTotalShares(uint256)": {
        "notice": "Declares the number of total shares, including those that have not been tokenized and those that are held by the company itself. This number can be substiantially higher than totalSupply() in case not all shares have been tokenized. Also, it can be lower than totalSupply() in case some tokens have become invalid."
      },
      "totalValidSupply()": {
        "notice": "The total number of valid tokens in circulation. In case some tokens have been declared invalid, this number might be lower than totalSupply(). Also, it will always be lower than or equal to totalShares()."
      }
    },
    "version": 1
  },
  "storageLayout": {
    "storage": [
      {
        "astId": 515,
        "contract": "src/shares/Shares.sol:Shares",
        "label": "_balances",
        "offset": 0,
        "slot": "0",
        "type": "t_mapping(t_address,t_uint256)"
      },
      {
        "astId": 521,
        "contract": "src/shares/Shares.sol:Shares",
        "label": "_allowances",
        "offset": 0,
        "slot": "1",
        "type": "t_mapping(t_address,t_mapping(t_address,t_uint256))"
      },
      {
        "astId": 523,
        "contract": "src/shares/Shares.sol:Shares",
        "label": "_totalSupply",
        "offset": 0,
        "slot": "2",
        "type": "t_uint256"
      },
      {
        "astId": 526,
        "contract": "src/shares/Shares.sol:Shares",
        "label": "decimals",
        "offset": 0,
        "slot": "3",
        "type": "t_uint8"
      },
      {
        "astId": 10418,
        "contract": "src/shares/Shares.sol:Shares",
        "label": "customCollateralAddress",
        "offset": 1,
        "slot": "3",
        "type": "t_contract(IERC20)1398"
      },
      {
        "astId": 10420,
        "contract": "src/shares/Shares.sol:Shares",
        "label": "customCollateralRate",
        "offset": 0,
        "slot": "4",
        "type": "t_uint256"
      },
      {
        "astId": 12876,
        "contract": "src/shares/Shares.sol:Shares",
        "label": "owner",
        "offset": 0,
        "slot": "5",
        "type": "t_address"
      },
      {
        "astId": 1063,
        "contract": "src/shares/Shares.sol:Shares",
        "label": "name",
        "offset": 0,
        "slot": "6",
        "type": "t_string_storage"
      },
      {
        "astId": 1066,
        "contract": "src/shares/Shares.sol:Shares",
        "label": "symbol",
        "offset": 0,
        "slot": "7",
        "type": "t_string_storage"
      },
      {
        "astId": 1194,
        "contract": "src/shares/Shares.sol:Shares",
        "label": "nonces",
        "offset": 0,
        "slot": "8",
        "type": "t_mapping(t_address,t_uint256)"
      },
      {
        "astId": 12084,
        "contract": "src/shares/Shares.sol:Shares",
        "label": "terms",
        "offset": 0,
        "slot": "9",
        "type": "t_string_storage"
      },
      {
        "astId": 12087,
        "contract": "src/shares/Shares.sol:Shares",
        "label": "totalShares",
        "offset": 0,
        "slot": "10",
        "type": "t_uint256"
      },
      {
        "astId": 12089,
        "contract": "src/shares/Shares.sol:Shares",
        "label": "invalidTokens",
        "offset": 0,
        "slot": "11",
        "type": "t_uint256"
      }
    ],
    "types": {
      "t_address": {
        "encoding": "inplace",
        "label": "address",
        "numberOfBytes": "20"
      },
      "t_contract(IERC20)1398": {
        "encoding": "inplace",
        "label": "contract IERC20",
        "numberOfBytes": "20"
      },
      "t_mapping(t_address,t_mapping(t_address,t_uint256))": {
        "encoding": "mapping",
        "key": "t_address",
        "label": "mapping(address => mapping(address => uint256))",
        "numberOfBytes": "32",
        "value": "t_mapping(t_address,t_uint256)"
      },
      "t_mapping(t_address,t_uint256)": {
        "encoding": "mapping",
        "key": "t_address",
        "label": "mapping(address => uint256)",
        "numberOfBytes": "32",
        "value": "t_uint256"
      },
      "t_string_storage": {
        "encoding": "bytes",
        "label": "string",
        "numberOfBytes": "32"
      },
      "t_uint256": {
        "encoding": "inplace",
        "label": "uint256",
        "numberOfBytes": "32"
      },
      "t_uint8": {
        "encoding": "inplace",
        "label": "uint8",
        "numberOfBytes": "1"
      }
    }
  }
}