{
  "address": "0x25F5119d4c9B599dBfc16e4445E16Ad3f1fdDF31",
  "abi": [
    {
      "inputs": [
        {
          "internalType": "string",
          "name": "_terms",
          "type": "string"
        },
        {
          "internalType": "contract IERC20",
          "name": "_wrappedToken",
          "type": "address"
        },
        {
          "internalType": "uint256",
          "name": "_quorumBps",
          "type": "uint256"
        },
        {
          "internalType": "uint256",
          "name": "_quorumMigration",
          "type": "uint256"
        },
        {
          "internalType": "uint256",
          "name": "_votePeriodSeconds",
          "type": "uint256"
        },
        {
          "internalType": "contract IRecoveryHub",
          "name": "_recoveryHub",
          "type": "address"
        },
        {
          "internalType": "contract IOfferFactory",
          "name": "_offerFactory",
          "type": "address"
        },
        {
          "internalType": "address",
          "name": "_oracle",
          "type": "address"
        }
      ],
      "stateMutability": "nonpayable",
      "type": "constructor"
    },
    {
      "anonymous": false,
      "inputs": [
        {
          "indexed": true,
          "internalType": "address",
          "name": "owner",
          "type": "address"
        },
        {
          "indexed": true,
          "internalType": "address",
          "name": "spender",
          "type": "address"
        },
        {
          "indexed": false,
          "internalType": "uint256",
          "name": "value",
          "type": "uint256"
        }
      ],
      "name": "Approval",
      "type": "event"
    },
    {
      "anonymous": false,
      "inputs": [
        {
          "indexed": false,
          "internalType": "address",
          "name": "oracle",
          "type": "address"
        }
      ],
      "name": "ChangeOracle",
      "type": "event"
    },
    {
      "anonymous": false,
      "inputs": [
        {
          "indexed": false,
          "internalType": "string",
          "name": "terms",
          "type": "string"
        }
      ],
      "name": "ChangeTerms",
      "type": "event"
    },
    {
      "anonymous": false,
      "inputs": [
        {
          "indexed": false,
          "internalType": "address",
          "name": "newContractAddress",
          "type": "address"
        },
        {
          "indexed": false,
          "internalType": "uint256",
          "name": "yesVotes",
          "type": "uint256"
        },
        {
          "indexed": false,
          "internalType": "uint256",
          "name": "oracleVotes",
          "type": "uint256"
        },
        {
          "indexed": false,
          "internalType": "uint256",
          "name": "totalVotingPower",
          "type": "uint256"
        }
      ],
      "name": "MigrationSucceeded",
      "type": "event"
    },
    {
      "anonymous": false,
      "inputs": [
        {
          "indexed": false,
          "internalType": "string",
          "name": "name",
          "type": "string"
        },
        {
          "indexed": false,
          "internalType": "string",
          "name": "symbol",
          "type": "string"
        }
      ],
      "name": "NameChanged",
      "type": "event"
    },
    {
      "anonymous": false,
      "inputs": [
        {
          "indexed": true,
          "internalType": "address",
          "name": "from",
          "type": "address"
        },
        {
          "indexed": true,
          "internalType": "address",
          "name": "to",
          "type": "address"
        },
        {
          "indexed": false,
          "internalType": "uint256",
          "name": "value",
          "type": "uint256"
        }
      ],
      "name": "Transfer",
      "type": "event"
    },
    {
      "inputs": [],
      "name": "DOMAIN_SEPARATOR",
      "outputs": [
        {
          "internalType": "bytes32",
          "name": "",
          "type": "bytes32"
        }
      ],
      "stateMutability": "view",
      "type": "function"
    },
    {
      "inputs": [
        {
          "internalType": "address",
          "name": "owner",
          "type": "address"
        },
        {
          "internalType": "address",
          "name": "spender",
          "type": "address"
        }
      ],
      "name": "allowance",
      "outputs": [
        {
          "internalType": "uint256",
          "name": "",
          "type": "uint256"
        }
      ],
      "stateMutability": "view",
      "type": "function"
    },
    {
      "inputs": [
        {
          "internalType": "address",
          "name": "spender",
          "type": "address"
        },
        {
          "internalType": "uint256",
          "name": "value",
          "type": "uint256"
        }
      ],
      "name": "approve",
      "outputs": [
        {
          "internalType": "bool",
          "name": "",
          "type": "bool"
        }
      ],
      "stateMutability": "nonpayable",
      "type": "function"
    },
    {
      "inputs": [
        {
          "internalType": "address",
          "name": "account",
          "type": "address"
        }
      ],
      "name": "balanceOf",
      "outputs": [
        {
          "internalType": "uint256",
          "name": "",
          "type": "uint256"
        }
      ],
      "stateMutability": "view",
      "type": "function"
    },
    {
      "inputs": [
        {
          "internalType": "uint256",
          "name": "amount",
          "type": "uint256"
        }
      ],
      "name": "burn",
      "outputs": [],
      "stateMutability": "nonpayable",
      "type": "function"
    },
    {
      "inputs": [],
      "name": "claimPeriod",
      "outputs": [
        {
          "internalType": "uint256",
          "name": "",
          "type": "uint256"
        }
      ],
      "stateMutability": "pure",
      "type": "function"
    },
    {
      "inputs": [],
      "name": "customCollateralAddress",
      "outputs": [
        {
          "internalType": "contract IERC20",
          "name": "",
          "type": "address"
        }
      ],
      "stateMutability": "view",
      "type": "function"
    },
    {
      "inputs": [],
      "name": "customCollateralRate",
      "outputs": [
        {
          "internalType": "uint256",
          "name": "",
          "type": "uint256"
        }
      ],
      "stateMutability": "view",
      "type": "function"
    },
    {
      "inputs": [],
      "name": "decimals",
      "outputs": [
        {
          "internalType": "uint8",
          "name": "",
          "type": "uint8"
        }
      ],
      "stateMutability": "view",
      "type": "function"
    },
    {
      "inputs": [
        {
          "internalType": "address",
          "name": "lostAddress",
          "type": "address"
        }
      ],
      "name": "deleteClaim",
      "outputs": [],
      "stateMutability": "nonpayable",
      "type": "function"
    },
    {
      "inputs": [
        {
          "internalType": "address",
          "name": "buyer",
          "type": "address"
        },
        {
          "internalType": "contract IERC20",
          "name": "currency",
          "type": "address"
        }
      ],
      "name": "drag",
      "outputs": [],
      "stateMutability": "nonpayable",
      "type": "function"
    },
    {
      "inputs": [],
      "name": "factory",
      "outputs": [
        {
          "internalType": "contract IOfferFactory",
          "name": "",
          "type": "address"
        }
      ],
      "stateMutability": "view",
      "type": "function"
    },
    {
      "inputs": [],
      "name": "getClaimDeleter",
      "outputs": [
        {
          "internalType": "address",
          "name": "",
          "type": "address"
        }
      ],
      "stateMutability": "view",
      "type": "function"
    },
    {
      "inputs": [
        {
          "internalType": "contract IERC20",
          "name": "collateralType",
          "type": "address"
        }
      ],
      "name": "getCollateralRate",
      "outputs": [
        {
          "internalType": "uint256",
          "name": "",
          "type": "uint256"
        }
      ],
      "stateMutability": "view",
      "type": "function"
    },
    {
      "inputs": [
        {
          "internalType": "address",
          "name": "account",
          "type": "address"
        },
        {
          "internalType": "uint8",
          "name": "number",
          "type": "uint8"
        }
      ],
      "name": "hasFlag",
      "outputs": [
        {
          "internalType": "bool",
          "name": "",
          "type": "bool"
        }
      ],
      "stateMutability": "view",
      "type": "function"
    },
    {
      "inputs": [],
      "name": "isBinding",
      "outputs": [
        {
          "internalType": "bool",
          "name": "",
          "type": "bool"
        }
      ],
      "stateMutability": "view",
      "type": "function"
    },
    {
      "inputs": [
        {
          "internalType": "bytes32",
          "name": "salt",
          "type": "bytes32"
        },
        {
          "internalType": "uint256",
          "name": "pricePerShare",
          "type": "uint256"
        },
        {
          "internalType": "contract IERC20",
          "name": "currency",
          "type": "address"
        }
      ],
      "name": "makeAcquisitionOffer",
      "outputs": [],
      "stateMutability": "payable",
      "type": "function"
    },
    {
      "inputs": [],
      "name": "migrate",
      "outputs": [],
      "stateMutability": "nonpayable",
      "type": "function"
    },
    {
      "inputs": [
        {
          "internalType": "address",
          "name": "successor",
          "type": "address"
        },
        {
          "internalType": "uint256",
          "name": "additionalVotes",
          "type": "uint256"
        }
      ],
      "name": "migrateWithExternalApproval",
      "outputs": [],
      "stateMutability": "nonpayable",
      "type": "function"
    },
    {
      "inputs": [],
      "name": "name",
      "outputs": [
        {
          "internalType": "string",
          "name": "",
          "type": "string"
        }
      ],
      "stateMutability": "view",
      "type": "function"
    },
    {
      "inputs": [
        {
          "internalType": "address",
          "name": "",
          "type": "address"
        }
      ],
      "name": "nonces",
      "outputs": [
        {
          "internalType": "uint256",
          "name": "",
          "type": "uint256"
        }
      ],
      "stateMutability": "view",
      "type": "function"
    },
    {
      "inputs": [
        {
          "internalType": "address",
          "name": "target",
          "type": "address"
        }
      ],
      "name": "notifyClaimDeleted",
      "outputs": [],
      "stateMutability": "nonpayable",
      "type": "function"
    },
    {
      "inputs": [
        {
          "internalType": "address",
          "name": "target",
          "type": "address"
        }
      ],
      "name": "notifyClaimMade",
      "outputs": [],
      "stateMutability": "nonpayable",
      "type": "function"
    },
    {
      "inputs": [],
      "name": "notifyOfferEnded",
      "outputs": [],
      "stateMutability": "nonpayable",
      "type": "function"
    },
    {
      "inputs": [
        {
          "internalType": "address",
          "name": "voter",
          "type": "address"
        }
      ],
      "name": "notifyVoted",
      "outputs": [],
      "stateMutability": "nonpayable",
      "type": "function"
    },
    {
      "inputs": [],
      "name": "offer",
      "outputs": [
        {
          "internalType": "contract IOffer",
          "name": "",
          "type": "address"
        }
      ],
      "stateMutability": "view",
      "type": "function"
    },
    {
      "inputs": [
        {
          "internalType": "address",
          "name": "from",
          "type": "address"
        },
        {
          "internalType": "uint256",
          "name": "amount",
          "type": "uint256"
        },
        {
          "internalType": "bytes",
          "name": "",
          "type": "bytes"
        }
      ],
      "name": "onTokenTransfer",
      "outputs": [
        {
          "internalType": "bool",
          "name": "",
          "type": "bool"
        }
      ],
      "stateMutability": "nonpayable",
      "type": "function"
    },
    {
      "inputs": [],
      "name": "oracle",
      "outputs": [
        {
          "internalType": "address",
          "name": "",
          "type": "address"
        }
      ],
      "stateMutability": "view",
      "type": "function"
    },
    {
      "inputs": [
        {
          "internalType": "address",
          "name": "owner",
          "type": "address"
        },
        {
          "internalType": "address",
          "name": "spender",
          "type": "address"
        },
        {
          "internalType": "uint256",
          "name": "value",
          "type": "uint256"
        },
        {
          "internalType": "uint256",
          "name": "deadline",
          "type": "uint256"
        },
        {
          "internalType": "uint8",
          "name": "v",
          "type": "uint8"
        },
        {
          "internalType": "bytes32",
          "name": "r",
          "type": "bytes32"
        },
        {
          "internalType": "bytes32",
          "name": "s",
          "type": "bytes32"
        }
      ],
      "name": "permit",
      "outputs": [],
      "stateMutability": "nonpayable",
      "type": "function"
    },
    {
      "inputs": [],
      "name": "quorum",
      "outputs": [
        {
          "internalType": "uint256",
          "name": "",
          "type": "uint256"
        }
      ],
      "stateMutability": "view",
      "type": "function"
    },
    {
      "inputs": [],
      "name": "quorumMigration",
      "outputs": [
        {
          "internalType": "uint256",
          "name": "",
          "type": "uint256"
        }
      ],
      "stateMutability": "view",
      "type": "function"
    },
    {
      "inputs": [
        {
          "internalType": "address",
          "name": "oldAddress",
          "type": "address"
        },
        {
          "internalType": "address",
          "name": "newAddress",
          "type": "address"
        }
      ],
      "name": "recover",
      "outputs": [],
      "stateMutability": "nonpayable",
      "type": "function"
    },
    {
      "inputs": [],
      "name": "recovery",
      "outputs": [
        {
          "internalType": "contract IRecoveryHub",
          "name": "",
          "type": "address"
        }
      ],
      "stateMutability": "view",
      "type": "function"
    },
    {
      "inputs": [
        {
          "internalType": "address",
          "name": "newOracle",
          "type": "address"
        }
      ],
      "name": "setOracle",
      "outputs": [],
      "stateMutability": "nonpayable",
      "type": "function"
    },
    {
      "inputs": [
        {
          "internalType": "string",
          "name": "_terms",
          "type": "string"
        }
      ],
      "name": "setTerms",
      "outputs": [],
      "stateMutability": "nonpayable",
      "type": "function"
    },
    {
      "inputs": [],
      "name": "symbol",
      "outputs": [
        {
          "internalType": "string",
          "name": "",
          "type": "string"
        }
      ],
      "stateMutability": "view",
      "type": "function"
    },
    {
      "inputs": [],
      "name": "terms",
      "outputs": [
        {
          "internalType": "string",
          "name": "",
          "type": "string"
        }
      ],
      "stateMutability": "view",
      "type": "function"
    },
    {
      "inputs": [],
      "name": "totalSupply",
      "outputs": [
        {
          "internalType": "uint256",
          "name": "",
          "type": "uint256"
        }
      ],
      "stateMutability": "view",
      "type": "function"
    },
    {
      "inputs": [],
      "name": "totalVotingTokens",
      "outputs": [
        {
          "internalType": "uint256",
          "name": "",
          "type": "uint256"
        }
      ],
      "stateMutability": "view",
      "type": "function"
    },
    {
      "inputs": [
        {
          "internalType": "address",
          "name": "to",
          "type": "address"
        },
        {
          "internalType": "uint256",
          "name": "value",
          "type": "uint256"
        }
      ],
      "name": "transfer",
      "outputs": [
        {
          "internalType": "bool",
          "name": "",
          "type": "bool"
        }
      ],
      "stateMutability": "nonpayable",
      "type": "function"
    },
    {
      "inputs": [
        {
          "internalType": "address",
          "name": "recipient",
          "type": "address"
        },
        {
          "internalType": "uint256",
          "name": "amount",
          "type": "uint256"
        },
        {
          "internalType": "bytes",
          "name": "data",
          "type": "bytes"
        }
      ],
      "name": "transferAndCall",
      "outputs": [
        {
          "internalType": "bool",
          "name": "",
          "type": "bool"
        }
      ],
      "stateMutability": "nonpayable",
      "type": "function"
    },
    {
      "inputs": [
        {
          "internalType": "address",
          "name": "sender",
          "type": "address"
        },
        {
          "internalType": "address",
          "name": "recipient",
          "type": "address"
        },
        {
          "internalType": "uint256",
          "name": "amount",
          "type": "uint256"
        }
      ],
      "name": "transferFrom",
      "outputs": [
        {
          "internalType": "bool",
          "name": "",
          "type": "bool"
        }
      ],
      "stateMutability": "nonpayable",
      "type": "function"
    },
    {
      "inputs": [
        {
          "internalType": "uint256",
          "name": "amount",
          "type": "uint256"
        }
      ],
      "name": "unwrap",
      "outputs": [],
      "stateMutability": "nonpayable",
      "type": "function"
    },
    {
      "inputs": [],
      "name": "unwrapConversionFactor",
      "outputs": [
        {
          "internalType": "uint256",
          "name": "",
          "type": "uint256"
        }
      ],
      "stateMutability": "view",
      "type": "function"
    },
    {
      "inputs": [],
      "name": "votePeriod",
      "outputs": [
        {
          "internalType": "uint256",
          "name": "",
          "type": "uint256"
        }
      ],
      "stateMutability": "view",
      "type": "function"
    },
    {
      "inputs": [
        {
          "internalType": "address",
          "name": "voter",
          "type": "address"
        }
      ],
      "name": "votingPower",
      "outputs": [
        {
          "internalType": "uint256",
          "name": "",
          "type": "uint256"
        }
      ],
      "stateMutability": "view",
      "type": "function"
    },
    {
      "inputs": [
        {
          "internalType": "address",
          "name": "shareholder",
          "type": "address"
        },
        {
          "internalType": "uint256",
          "name": "amount",
          "type": "uint256"
        }
      ],
      "name": "wrap",
      "outputs": [],
      "stateMutability": "nonpayable",
      "type": "function"
    },
    {
      "inputs": [],
      "name": "wrapped",
      "outputs": [
        {
          "internalType": "contract IERC20",
          "name": "",
          "type": "address"
        }
      ],
      "stateMutability": "view",
      "type": "function"
    }
  ],
  "transactionHash": "0x9ae57c775ac8d541ccb85451f1ebbb97ac39a9abcbe6d8570085c0018b1522e4",
  "args": [
    "https://www.aktionariat.com/terms-of-service",
    "0xD83e8CE48Cc68bf6337aa5709F8AddC282db21Bc",
    7500,
    7500,
    5184000,
    "0xc6AfD3b605957b9BA94143F59d451c657F507516",
    "0x7F34B9d2C3682B70ff6e8bc8fa2Ed69Def2F81Cd",
    "0xACe4EbC45aDd63aEE25098A2F611F82b3FF44787"
  ],
  "numDeployments": 1,
  "solcInputHash": "f5a08cc274953b2854c67d894fa76f29",
  "bytecode": "0x61012060405260006004553480156200001757600080fd5b5060405162002df538038062002df58339810160408190526200003a91620001e3565b600380546001600160a81b0319166101006001600160a01b038a811682029290921790925560c088905260a087905260e0869052606084811b6001600160601b0319908116608052600680546001600160a01b0319169386169390931790925585901b1690528751620000b590600a9060208b019062000120565b50604051636427ed9760e01b8152600060048201526001600160a01b03841690636427ed9790602401600060405180830381600087803b158015620000f957600080fd5b505af11580156200010e573d6000803e3d6000fd5b5050505050505050505050506200037c565b8280546200012e9062000329565b90600052602060002090601f0160209004810192826200015257600085556200019d565b82601f106200016d57805160ff19168380011785556200019d565b828001600101855582156200019d579182015b828111156200019d57825182559160200191906001019062000180565b50620001ab929150620001af565b5090565b5b80821115620001ab5760008155600101620001b0565b80516001600160a01b0381168114620001de57600080fd5b919050565b600080600080600080600080610100898b0312156200020157600080fd5b88516001600160401b03808211156200021957600080fd5b818b0191508b601f8301126200022e57600080fd5b81518181111562000243576200024362000366565b604051601f8201601f19908116603f011681019083821181831017156200026e576200026e62000366565b81604052828152602093508e848487010111156200028b57600080fd5b600091505b82821015620002af578482018401518183018501529083019062000290565b82821115620002c15760008484830101525b9b50620002d39150508b8201620001c6565b98505050604089015195506060890151945060808901519350620002fa60a08a01620001c6565b92506200030a60c08a01620001c6565b91506200031a60e08a01620001c6565b90509295985092959890939650565b600181811c908216806200033e57607f821691505b602082108114156200036057634e487b7160e01b600052602260045260246000fd5b50919050565b634e487b7160e01b600052604160045260246000fd5b60805160601c60a05160c05160e0516101005160601c6129ef620004066000396000818161082901528181610bf301528181610e2d01528181611263015281816117240152611bcc01526000818161069301526115a4015260008181610376015261157e01526000818161089d01526118c801526000818161076701526115cd01526129ef6000f3fe6080604052600436106102935760003560e01c80637dc0d1d01161015a578063c18172c4116100c1578063ddceafa91161007a578063ddceafa914610817578063de0e9a3e1461084b578063e5b824ec1461086b578063efa405121461088b578063f5c0b95f146108bf578063fcb79a7e146108df57600080fd5b8063c18172c414610735578063c45a015514610755578063d502562514610789578063d505accf1461079e578063dcc7d4ad146107be578063dd62ed3e146107d157600080fd5b8063a4c0ed3611610113578063a4c0ed3614610661578063a781358714610681578063a9059cbb146106b5578063bf376c7a146106d5578063c028df06146106f5578063c07473f61461071557600080fd5b80637dc0d1d0146105be5780637dc2cd98146105de5780637ecebe00146105f45780638fd3ab801461062157806395d89b41146106365780639e4b57451461064b57600080fd5b806332bc320b116101fe57806360918117116101b75780636091811714610508578063648bf7741461051e57806370a082311461053e57806377e071ad1461055e57806378f86afc1461057e5780637adbf9731461059e57600080fd5b806332bc320b146104595780633644e5151461046e5780634000aea01461048357806342966c68146104a357806345c8a62b146104c357806350e70d48146104e357600080fd5b806318160ddd1161025057806318160ddd1461039857806319845354146103ad57806323b872dd146103cf5780632a0a4ed5146103ef578063313ce5671461040d57806332a7ae951461043957600080fd5b806306fdde03146102985780630832e470146102c3578063095ea7b3146102e75780630a81b2de146103175780630c6f0e5d1461032c5780631703a01814610364575b600080fd5b3480156102a457600080fd5b506102ad6108ff565b6040516102ba91906126f2565b60405180910390f35b3480156102cf57600080fd5b506102d960045481565b6040519081526020016102ba565b3480156102f357600080fd5b506103076103023660046123ad565b6109d9565b60405190151581526020016102ba565b34801561032357600080fd5b506102d96109ef565b34801561033857600080fd5b5060075461034c906001600160a01b031681565b6040516001600160a01b0390911681526020016102ba565b34801561037057600080fd5b506102d97f000000000000000000000000000000000000000000000000000000000000000081565b3480156103a457600080fd5b506002546102d9565b3480156103b957600080fd5b506103cd6103c83660046123ad565b610a7c565b005b3480156103db57600080fd5b506103076103ea3660046122fe565b610b0f565b3480156103fb57600080fd5b506006546001600160a01b031661034c565b34801561041957600080fd5b506003546104279060ff1681565b60405160ff90911681526020016102ba565b34801561044557600080fd5b506103cd6104543660046122a8565b610b86565b34801561046557600080fd5b506103cd610c53565b34801561047a57600080fd5b506102d9610c8f565b34801561048f57600080fd5b5061030761049e3660046123d9565b610ce8565b3480156104af57600080fd5b506103cd6104be3660046125d1565b610d88565b3480156104cf57600080fd5b506103cd6104de3660046122a8565b610de9565b3480156104ef57600080fd5b5060035461034c9061010090046001600160a01b031681565b34801561051457600080fd5b506102d960085481565b34801561052a57600080fd5b506103cd6105393660046122c5565b610e22565b34801561054a57600080fd5b506102d96105593660046122a8565b610e7d565b34801561056a57600080fd5b506102d96105793660046122a8565b610ea1565b34801561058a57600080fd5b506103cd6105993660046124e2565b610f95565b3480156105aa57600080fd5b506103cd6105b93660046122a8565b611008565b3480156105ca57600080fd5b5060065461034c906001600160a01b031681565b3480156105ea57600080fd5b5062ed4e006102d9565b34801561060057600080fd5b506102d961060f3660046122a8565b60096020526000908152604090205481565b34801561062d57600080fd5b506103cd611087565b34801561064257600080fd5b506102ad611094565b34801561065757600080fd5b5060045415610307565b34801561066d57600080fd5b5061030761067c3660046123d9565b611144565b34801561068d57600080fd5b506102d97f000000000000000000000000000000000000000000000000000000000000000081565b3480156106c157600080fd5b506103076106d03660046123ad565b611180565b3480156106e157600080fd5b506103cd6106f03660046123ad565b611193565b34801561070157600080fd5b5060055461034c906001600160a01b031681565b34801561072157600080fd5b506102d96107303660046122a8565b611247565b34801561074157600080fd5b506103cd6107503660046122a8565b611258565b34801561076157600080fd5b5061034c7f000000000000000000000000000000000000000000000000000000000000000081565b34801561079557600080fd5b506102ad6112ad565b3480156107aa57600080fd5b506103cd6107b936600461233f565b61133b565b6103cd6107cc36600461248c565b61152b565b3480156107dd57600080fd5b506102d96107ec3660046122c5565b6001600160a01b03918216600090815260016020908152604080832093909416825291909152205490565b34801561082357600080fd5b5061034c7f000000000000000000000000000000000000000000000000000000000000000081565b34801561085757600080fd5b506103cd6108663660046125d1565b6116ed565b34801561087757600080fd5b506103cd6108863660046122a8565b611719565b34801561089757600080fd5b506102d97f000000000000000000000000000000000000000000000000000000000000000081565b3480156108cb57600080fd5b506103076108da366004612435565b61176e565b3480156108eb57600080fd5b506103cd6108fa3660046122c5565b61177a565b60606000600360019054906101000a90046001600160a01b03166001600160a01b03166306fdde036040518163ffffffff1660e01b815260040160006040518083038186803b15801561095157600080fd5b505afa158015610965573d6000803e3d6000fd5b505050506040513d6000823e601f3d908101601f1916820160405261098d9190810190612524565b90506109996004541590565b156109c457806040516020016109af919061265d565b60405160208183030381529060405291505090565b806040516020016109af919061262f565b5090565b60006109e63384846117c2565b50600192915050565b6000600360019054906101000a90046001600160a01b03166001600160a01b0316633a98ef396040518163ffffffff1660e01b815260040160206040518083038186803b158015610a3f57600080fd5b505afa158015610a53573d6000803e3d6000fd5b505050506040513d601f19601f82011682018060405250810190610a7791906125ea565b905090565b6006546001600160a01b03163314610aaf5760405162461bcd60e51b8152600401610aa690612812565b60405180910390fd5b610ab76109ef565b81610ac160025490565b610acb919061287e565b1115610b015760405162461bcd60e51b8152602060048201526005602482015264766f74657360d81b6044820152606401610aa6565b610b0b8282611824565b5050565b6000610b1c848484611991565b6001600160a01b0384166000908152600160209081526040808320338452909152902054600160ff1b811015610b7b57610b5683826128fc565b6001600160a01b03861660009081526001602090815260408083203384529091529020555b506001949350505050565b6006546001600160a01b03163314610bd45760405162461bcd60e51b81526020600482015260116024820152703737ba1031b630b4b6903232b632ba32b960791b6044820152606401610aa6565b6040516332a7ae9560e01b81526001600160a01b0382811660048301527f000000000000000000000000000000000000000000000000000000000000000016906332a7ae95906024015b600060405180830381600087803b158015610c3857600080fd5b505af1158015610c4c573d6000803e3d6000fd5b5050505050565b6005546001600160a01b03163314610c7d5760405162461bcd60e51b8152600401610aa6906127f2565b600580546001600160a01b0319169055565b604080517f47e79534a245952e8b16893a336b85a3d9ea9fa8c573f3d803afb92a794692186020820152469181019190915230606082015260009060800160405160208183030381529060405280519060200120905090565b6000610cf48585611180565b8015610d7f5750604051635260769b60e11b81526001600160a01b0386169063a4c0ed3690610d2d9033908890889088906004016126aa565b602060405180830381600087803b158015610d4757600080fd5b505af1158015610d5b573d6000803e3d6000fd5b505050506040513d601f19601f82011682018060405250810190610d7f919061246a565b95945050505050565b610d9233826119f5565b6003546001600160a01b03610100909104166342966c68610db36004541590565b610dc957600454610dc490846128dd565b610dcb565b825b6040518263ffffffff1660e01b8152600401610c1e91815260200190565b6005546001600160a01b03163314610e135760405162461bcd60e51b8152600401610aa6906127f2565b610e1f81600180611a69565b50565b336001600160a01b037f00000000000000000000000000000000000000000000000000000000000000001614610e6a5760405162461bcd60e51b8152600401610aa690612858565b610b0b8282610e7885610e7d565b611991565b6001600160a01b03166000908152602081905260409020546001600160e01b031690565b600080610ead83611acd565b90508015610ebb5792915050565b6000610ec76004541590565b610ed357600454610ed6565b60015b6003549091506001600160a01b03858116610100909204161415610efb579392505050565b6003546040516377e071ad60e01b81526001600160a01b0386811660048301528392610100900416906377e071ad9060240160206040518083038186803b158015610f4557600080fd5b505afa158015610f59573d6000803e3d6000fd5b505050506040513d601f19601f82011682018060405250810190610f7d91906125ea565b610f8791906128dd565b949350505050565b50919050565b6006546001600160a01b03163314610fbf5760405162461bcd60e51b8152600401610aa690612812565b610fcb600a83836121be565b507fe9f2468ecc8d3dff15a70a5909151e6297cee4cf05268eff3d7ef0c696ec50f2600a604051610ffc919061272a565b60405180910390a15050565b6006546001600160a01b031633146110325760405162461bcd60e51b8152600401610aa690612812565b600680546001600160a01b0319166001600160a01b0383169081179091556040519081527fc3977c9522c218453912bcab15964a7788968fbf3fe4d4e2965252c9f07055de906020015b60405180910390a150565b611092336000611824565b565b6060600360019054906101000a90046001600160a01b03166001600160a01b03166395d89b416040518163ffffffff1660e01b815260040160006040518083038186803b1580156110e457600080fd5b505afa1580156110f8573d6000803e3d6000fd5b505050506040513d6000823e601f3d908101601f191682016040526111209190810190612524565b6040516020016111309190612685565b604051602081830303815290604052905090565b60035460009061010090046001600160a01b031633146111765760405162461bcd60e51b8152600401610aa6906127f2565b610b7b8585611b13565b600061118c8383611b7f565b9392505050565b6003546040516323b872dd60e01b8152336004820152306024820152604481018390526101009091046001600160a01b0316906323b872dd90606401602060405180830381600087803b1580156111e957600080fd5b505af11580156111fd573d6000803e3d6000fd5b505050506040513d601f19601f82011682018060405250810190611221919061246a565b61123d5760405162461bcd60e51b8152600401610aa690612836565b610b0b8282611b13565b600061125282610e7d565b92915050565b336001600160a01b037f000000000000000000000000000000000000000000000000000000000000000016146112a05760405162461bcd60e51b8152600401610aa690612858565b610e1f81600a6001611a69565b600a80546112ba90612943565b80601f01602080910402602001604051908101604052809291908181526020018280546112e690612943565b80156113335780601f1061130857610100808354040283529160200191611333565b820191906000526020600020905b81548152906001019060200180831161131657829003601f168201915b505050505081565b4284101561138b5760405162461bcd60e51b815260206004820152601760248201527f5045524d49545f444541444c494e455f455850495245440000000000000000006044820152606401610aa6565b60006001611397610c8f565b6001600160a01b038a811660008181526009602090815260409182902080546001810190915582517f6e71edae12b1b97f4d1f60370fef10105fa2faae0126114a169c64845d6126c98184015280840194909452938d166060840152608083018c905260a083019390935260c08083018b90528151808403909101815260e08301909152805192019190912061190160f01b6101008301526101028201929092526101228101919091526101420160408051601f198184030181528282528051602091820120600084529083018083525260ff871690820152606081018590526080810184905260a0016020604051602081039080840390855afa1580156114a3573d6000803e3d6000fd5b5050604051601f1901519150506001600160a01b038116158015906114d95750876001600160a01b0316816001600160a01b0316145b6115165760405162461bcd60e51b815260206004820152600e60248201526d24a72b20a624a22fa9a4a3a722a960911b6044820152606401610aa6565b6115218188886117c2565b5050505050505050565b6004541561154b5760405162461bcd60e51b8152600401610aa6906127d2565b604051634dc5e43160e01b815260048101849052336024820152604481018390526001600160a01b0382811660648301527f000000000000000000000000000000000000000000000000000000000000000060848301527f000000000000000000000000000000000000000000000000000000000000000060a48301526000917f000000000000000000000000000000000000000000000000000000000000000090911690634dc5e43190349060c4016020604051808303818588803b15801561161457600080fd5b505af1158015611628573d6000803e3d6000fd5b50505050506040513d601f19601f8201168201806040525081019061164d91906124c5565b90506116636005546001600160a01b0316151590565b156116c857600554604051637b64620f60e11b81526001600160a01b0383811660048301529091169063f6c8c41e90602401600060405180830381600087803b1580156116af57600080fd5b505af11580156116c3573d6000803e3d6000fd5b505050505b600580546001600160a01b0319166001600160a01b0392909216919091179055505050565b60045461170c5760405162461bcd60e51b8152600401610aa6906127d2565b610e1f3382600454611c39565b336001600160a01b037f000000000000000000000000000000000000000000000000000000000000000016146117615760405162461bcd60e51b8152600401610aa690612858565b610e1f81600a6000611a69565b600061118c8383611d03565b6005546001600160a01b031633146117a45760405162461bcd60e51b8152600401610aa6906127f2565b6117b8826117b184610e7d565b6001611c39565b610b0b8183611d43565b6001600160a01b0383811660008181526001602090815260408083209487168084529482529182902085905590518481527f8c5be1e5ebec7d5bd14f71427d1e84f3dd0314c0f7b2291e5b200ac8c7c3b92591015b60405180910390a3505050565b600061182f83610e7d565b611839908361287e565b905060006118456109ef565b90508082111561187f5760405162461bcd60e51b8152602060048201526005602482015264766f74657360d81b6044820152606401610aa6565b6005546001600160a01b0316156118c35760405162461bcd60e51b815260206004820152600860248201526737379037b33332b960c11b6044820152606401610aa6565b6118ed7f0000000000000000000000000000000000000000000000000000000000000000826128dd565b6118f9612710846128dd565b10156119305760405162461bcd60e51b815260206004820152600660248201526571756f72756d60d01b6044820152606401610aa6565b61193a8485611d43565b604080516001600160a01b038616815260208101849052908101849052606081018290527f85e5711a70a7d2bae18e1232af474d82c98600b0e62fe079a28208520b58568e9060800160405180910390a150505050565b61199c838383611f33565b6119a68382611f3e565b6119b08282611fd4565b816001600160a01b0316836001600160a01b03167fddf252ad1be2c89b69c2b068fc378daa952ba7f163c4a11628f55a4df523b3ef8360405161181791815260200190565b611a0182600083611f33565b8060026000828254611a1391906128fc565b90915550611a2390508282611f3e565b6040518181526000906001600160a01b038416907fddf252ad1be2c89b69c2b068fc378daa952ba7f163c4a11628f55a4df523b3ef906020015b60405180910390a35050565b6000611a768360e0612896565b6001600160a01b038516600090815260208190526040902054600160ff929092169190911b9150808216821483151514610c4c576001600160a01b0394909416600090815260208190526040902093189092555050565b60006001600160a01b038216301415611ae857506001919050565b6007546001600160a01b0383811691161415611b0657505060085490565b506000919050565b919050565b611b1f60008383611f33565b8060026000828254611b31919061287e565b90915550611b4190508282611fd4565b6040518181526001600160a01b038316906000907fddf252ad1be2c89b69c2b068fc378daa952ba7f163c4a11628f55a4df523b3ef90602001611a5d565b6000611b8b8383612084565b611ba75760405162461bcd60e51b8152600401610aa690612836565b611bb233600a611d03565b156109e6576040516304d301a360e41b81523360048201527f00000000000000000000000000000000000000000000000000000000000000006001600160a01b031690634d301a3090602401600060405180830381600087803b158015611c1857600080fd5b505af1158015611c2c573d6000803e3d6000fd5b5050505050600192915050565b611c4383836119f5565b60035461010090046001600160a01b031663a9059cbb84611c6484866128dd565b6040516001600160e01b031960e085901b1681526001600160a01b0390921660048301526024820152604401602060405180830381600087803b158015611caa57600080fd5b505af1158015611cbe573d6000803e3d6000fd5b505050506040513d601f19601f82011682018060405250810190611ce2919061246a565b611cfe5760405162461bcd60e51b8152600401610aa690612836565b505050565b600080611d118360e0612896565b6001600160a01b038516600090815260208190526040902054600160ff929092169190911b9081161491505092915050565b60045415611d635760405162461bcd60e51b8152600401610aa6906127d2565b6003546040516370a0823160e01b81523060048201526101009091046001600160a01b03169063a9059cbb90839083906370a082319060240160206040518083038186803b158015611db457600080fd5b505afa158015611dc8573d6000803e3d6000fd5b505050506040513d601f19601f82011682018060405250810190611dec91906125ea565b6040516001600160e01b031960e085901b1681526001600160a01b0390921660048301526024820152604401602060405180830381600087803b158015611e3257600080fd5b505af1158015611e46573d6000803e3d6000fd5b505050506040513d601f19601f82011682018060405250810190611e6a919061246a565b611e865760405162461bcd60e51b8152600401610aa690612836565b60038054610100600160a81b0319166101006001600160a01b03851602179055600254610b0b906040516370a0823160e01b81523060048201526001600160a01b038516906370a082319060240160206040518083038186803b158015611eec57600080fd5b505afa158015611f00573d6000803e3d6000fd5b505050506040513d601f19601f82011682018060405250810190611f2491906125ea565b611f2e91906128bb565b612091565b611cfe8383836120f6565b6001600160a01b03821660009081526020819052604081205490611f6283836128fc565b90506001600160e01b031981166001600160e01b0319831614611fb35760405162461bcd60e51b8152602060048201526009602482015268756e646572666c6f7760b81b6044820152606401610aa6565b6001600160a01b039093166000908152602081905260409020929092555050565b6001600160a01b0382166120105760405162461bcd60e51b815260206004820152600360248201526203078360ec1b6044820152606401610aa6565b6001600160a01b03821660009081526020819052604081205490612034838361287e565b90506001600160e01b031981166001600160e01b0319831614611fb35760405162461bcd60e51b81526020600482015260086024820152676f766572666c6f7760c01b6044820152606401610aa6565b60006109e6338484611991565b60018110156120b25760405162461bcd60e51b8152600401610aa6906127d2565b60048190557f6c20b91d1723b78732eba64ff11ebd7966a6e4af568a00fa4f6b72c20f58b02a6120e06108ff565b6120e8611094565b60405161107c929190612705565b6120ff836121b1565b8061210e575061210e826121b1565b15611cfe576005546001600160a01b0316156121975760055460405163e1a1810f60e01b81526001600160a01b0385811660048301528481166024830152604482018490529091169063e1a1810f90606401600060405180830381600087803b15801561217a57600080fd5b505af115801561218e573d6000803e3d6000fd5b50505050505050565b6121a48360016000611a69565b611cfe8260016000611a69565b6000611252826001611d03565b8280546121ca90612943565b90600052602060002090601f0160209004810192826121ec5760008555612232565b82601f106122055782800160ff19823516178555612232565b82800160010185558215612232579182015b82811115612232578235825591602001919060010190612217565b506109d59291505b808211156109d5576000815560010161223a565b60008083601f84011261226057600080fd5b50813567ffffffffffffffff81111561227857600080fd5b60208301915083602082850101111561229057600080fd5b9250929050565b803560ff81168114611b0e57600080fd5b6000602082840312156122ba57600080fd5b813561118c816129a4565b600080604083850312156122d857600080fd5b82356122e3816129a4565b915060208301356122f3816129a4565b809150509250929050565b60008060006060848603121561231357600080fd5b833561231e816129a4565b9250602084013561232e816129a4565b929592945050506040919091013590565b600080600080600080600060e0888a03121561235a57600080fd5b8735612365816129a4565b96506020880135612375816129a4565b9550604088013594506060880135935061239160808901612297565b925060a0880135915060c0880135905092959891949750929550565b600080604083850312156123c057600080fd5b82356123cb816129a4565b946020939093013593505050565b600080600080606085870312156123ef57600080fd5b84356123fa816129a4565b935060208501359250604085013567ffffffffffffffff81111561241d57600080fd5b6124298782880161224e565b95989497509550505050565b6000806040838503121561244857600080fd5b8235612453816129a4565b915061246160208401612297565b90509250929050565b60006020828403121561247c57600080fd5b8151801515811461118c57600080fd5b6000806000606084860312156124a157600080fd5b833592506020840135915060408401356124ba816129a4565b809150509250925092565b6000602082840312156124d757600080fd5b815161118c816129a4565b600080602083850312156124f557600080fd5b823567ffffffffffffffff81111561250c57600080fd5b6125188582860161224e565b90969095509350505050565b60006020828403121561253657600080fd5b815167ffffffffffffffff8082111561254e57600080fd5b818401915084601f83011261256257600080fd5b8151818111156125745761257461298e565b604051601f8201601f19908116603f0116810190838211818310171561259c5761259c61298e565b816040528281528760208487010111156125b557600080fd5b6125c6836020830160208801612913565b979650505050505050565b6000602082840312156125e357600080fd5b5035919050565b6000602082840312156125fc57600080fd5b5051919050565b6000815180845261261b816020860160208601612913565b601f01601f19169290920160200192915050565b60008251612641818460208701612913565b692028577261707065642960b01b920191825250600a01919050565b6000825161266f818460208701612913565b632053484160e01b920191825250600401919050565b60008251612697818460208701612913565b605360f81b920191825250600101919050565b6001600160a01b0385168152602081018490526060604082018190528101829052818360808301376000818301608090810191909152601f909201601f191601019392505050565b60208152600061118c6020830184612603565b6040815260006127186040830185612603565b8281036020840152610d7f8185612603565b600060208083526000845481600182811c91508083168061274c57607f831692505b85831081141561276a57634e487b7160e01b85526022600452602485fd5b8786018381526020018180156127875760018114612798576127c3565b60ff198616825287820196506127c3565b60008b81526020902060005b868110156127bd578154848201529085019089016127a4565b83019750505b50949998505050505050505050565b6020808252600690820152653330b1ba37b960d11b604082015260600190565b60208082526006908201526539b2b73232b960d11b604082015260600190565b6020808252600a90820152696e6f74206f7261636c6560b01b604082015260600190565b6020808252600890820152673a3930b739b332b960c11b604082015260600190565b6020808252600c908201526b6e6f74207265636f7665727960a01b604082015260600190565b6000821982111561289157612891612978565b500190565b600060ff821660ff84168060ff038211156128b3576128b3612978565b019392505050565b6000826128d857634e487b7160e01b600052601260045260246000fd5b500490565b60008160001904831182151516156128f7576128f7612978565b500290565b60008282101561290e5761290e612978565b500390565b60005b8381101561292e578181015183820152602001612916565b8381111561293d576000848401525b50505050565b600181811c9082168061295757607f821691505b60208210811415610f8f57634e487b7160e01b600052602260045260246000fd5b634e487b7160e01b600052601160045260246000fd5b634e487b7160e01b600052604160045260246000fd5b6001600160a01b0381168114610e1f57600080fdfea2646970667358221220c2a6c3500aff5f406a8c8e0fa5b5477d308ca6d3c56aa7f5d0b2a5a1334d1c7164736f6c63430008070033",
  "devdoc": {
    "author": "Luzius Meisser, luzius@aktionariat.com This is an ERC-20 token representing share tokens of CompanyName AG that are bound to a shareholder agreement that can be found at the URL defined in the constant 'terms'.",
    "kind": "dev",
    "methods": {
      "DOMAIN_SEPARATOR()": {
        "details": "Returns the domain separator used in the encoding of the signature for {permit}, as defined by {EIP712}."
      },
      "allowance(address,address)": {
        "details": "See `IERC20.allowance`."
      },
      "approve(address,uint256)": {
        "details": "See `IERC20.approve`. Requirements: - `spender` cannot be the zero address."
      },
      "balanceOf(address)": {
        "details": "See `IERC20.balanceOf`."
      },
      "permit(address,address,uint256,uint256,uint8,bytes32,bytes32)": {
        "details": "Sets `value` as the allowance of `spender` over ``owner``'s tokens, given ``owner``'s signed approval. IMPORTANT: The same issues {IERC20-approve} has related to transaction ordering also apply here. Emits an {Approval} event. Requirements: - `spender` cannot be the zero address. - `deadline` must be a timestamp in the future. - `v`, `r` and `s` must be a valid `secp256k1` signature from `owner` over the EIP712-formatted function arguments. - the signature must use ``owner``'s current nonce (see {nonces}). For more information on the signature format, see the https://eips.ethereum.org/EIPS/eip-2612#specification[relevant EIP section]."
      },
      "totalSupply()": {
        "details": "See `IERC20.totalSupply`."
      },
      "transferFrom(address,address,uint256)": {
        "details": "See `IERC20.transferFrom`. Emits an `Approval` event indicating the updated allowance. This is not required by the EIP. See the note at the beginning of `ERC20`; Requirements: - `sender` and `recipient` cannot be the zero address. - `sender` must have a balance of at least `value`. - the caller must have allowance for `sender`'s tokens of at least `amount`."
      }
    },
    "title": "CompanyName AG Shares SHA",
    "version": 1
  },
  "userdoc": {
    "kind": "user",
    "methods": {
      "burn(uint256)": {
        "notice": "Burns both the token itself as well as the wrapped token! If you want to get out of the shareholder agreement, use unwrap after it has been deactivated by a majority vote or acquisition. Burning only works if wrapped token supports burning. Also, the exact meaning of this operation might depend on the circumstances. Burning and reussing the wrapped token does not free the sender from the legal obligations of the shareholder agreement."
      },
      "getClaimDeleter()": {
        "notice": "Let the oracle act as deleter of invalid claims. In earlier versions, this was referring to the claim deleter of the wrapped token. But that stops working after a successful acquisition as the acquisition currency most likely does not have a claim deleter."
      },
      "getCollateralRate(address)": {
        "notice": "Returns the collateral rate for the given collateral type and 0 if that type of collateral is not accepted. By default, only the token itself is accepted at a rate of 1:1. Subclasses should override this method if they want to add additional types of collateral."
      },
      "isBinding()": {
        "notice": "Indicates that the token holders are bound to the token terms and that: - Conversion back to the wrapped token (unwrap) is not allowed - A drag-along can be performed by making an according offer - They can be migrated to a new version of this contract in accordance with the terms"
      },
      "name()": {
        "notice": "Current recommended naming convention is to add the postfix \"SHA\" to the plain shares in order to indicate that this token represents shares bound to a shareholder agreement."
      },
      "unwrap(uint256)": {
        "notice": "Decrease the number of drag-along tokens. The user gets back their shares in return "
      },
      "wrap(address,uint256)": {
        "notice": "Wraps additional tokens, thereby creating more ERC20Draggable tokens. "
      }
    },
    "version": 1
  },
  "storageLayout": {
    "storage": [
      {
        "astId": 458,
        "contract": "src/shares/DraggableShares.sol:DraggableShares",
        "label": "_balances",
        "offset": 0,
        "slot": "0",
        "type": "t_mapping(t_address,t_uint256)"
      },
      {
        "astId": 464,
        "contract": "src/shares/DraggableShares.sol:DraggableShares",
        "label": "_allowances",
        "offset": 0,
        "slot": "1",
        "type": "t_mapping(t_address,t_mapping(t_address,t_uint256))"
      },
      {
        "astId": 466,
        "contract": "src/shares/DraggableShares.sol:DraggableShares",
        "label": "_totalSupply",
        "offset": 0,
        "slot": "2",
        "type": "t_uint256"
      },
      {
        "astId": 469,
        "contract": "src/shares/DraggableShares.sol:DraggableShares",
        "label": "decimals",
        "offset": 0,
        "slot": "3",
        "type": "t_uint8"
      },
      {
        "astId": 3682,
        "contract": "src/shares/DraggableShares.sol:DraggableShares",
        "label": "wrapped",
        "offset": 1,
        "slot": "3",
        "type": "t_contract(IERC20)1242"
      },
      {
        "astId": 3688,
        "contract": "src/shares/DraggableShares.sol:DraggableShares",
        "label": "unwrapConversionFactor",
        "offset": 0,
        "slot": "4",
        "type": "t_uint256"
      },
      {
        "astId": 3692,
        "contract": "src/shares/DraggableShares.sol:DraggableShares",
        "label": "offer",
        "offset": 0,
        "slot": "5",
        "type": "t_contract(IOffer)4494"
      },
      {
        "astId": 3704,
        "contract": "src/shares/DraggableShares.sol:DraggableShares",
        "label": "oracle",
        "offset": 0,
        "slot": "6",
        "type": "t_address"
      },
      {
        "astId": 8969,
        "contract": "src/shares/DraggableShares.sol:DraggableShares",
        "label": "customCollateralAddress",
        "offset": 0,
        "slot": "7",
        "type": "t_contract(IERC20)1242"
      },
      {
        "astId": 8971,
        "contract": "src/shares/DraggableShares.sol:DraggableShares",
        "label": "customCollateralRate",
        "offset": 0,
        "slot": "8",
        "type": "t_uint256"
      },
      {
        "astId": 1044,
        "contract": "src/shares/DraggableShares.sol:DraggableShares",
        "label": "nonces",
        "offset": 0,
        "slot": "9",
        "type": "t_mapping(t_address,t_uint256)"
      },
      {
        "astId": 10046,
        "contract": "src/shares/DraggableShares.sol:DraggableShares",
        "label": "terms",
        "offset": 0,
        "slot": "10",
        "type": "t_string_storage"
      }
    ],
    "types": {
      "t_address": {
        "encoding": "inplace",
        "label": "address",
        "numberOfBytes": "20"
      },
      "t_contract(IERC20)1242": {
        "encoding": "inplace",
        "label": "contract IERC20",
        "numberOfBytes": "20"
      },
      "t_contract(IOffer)4494": {
        "encoding": "inplace",
        "label": "contract IOffer",
        "numberOfBytes": "20"
      },
      "t_mapping(t_address,t_mapping(t_address,t_uint256))": {
        "encoding": "mapping",
        "key": "t_address",
        "label": "mapping(address => mapping(address => uint256))",
        "numberOfBytes": "32",
        "value": "t_mapping(t_address,t_uint256)"
      },
      "t_mapping(t_address,t_uint256)": {
        "encoding": "mapping",
        "key": "t_address",
        "label": "mapping(address => uint256)",
        "numberOfBytes": "32",
        "value": "t_uint256"
      },
      "t_string_storage": {
        "encoding": "bytes",
        "label": "string",
        "numberOfBytes": "32"
      },
      "t_uint256": {
        "encoding": "inplace",
        "label": "uint256",
        "numberOfBytes": "32"
      },
      "t_uint8": {
        "encoding": "inplace",
        "label": "uint8",
        "numberOfBytes": "1"
      }
    }
  }
}