{
  "address": "0x27A02627F4D683594984984f0fD2dE9Aa3C8B2f5",
  "abi": [
    {
      "inputs": [
        {
          "internalType": "address",
          "name": "_owner",
          "type": "address"
        },
        {
          "internalType": "contract IERC20",
          "name": "_base",
          "type": "address"
        },
        {
          "internalType": "contract IDraggable",
          "name": "_predecessor",
          "type": "address"
        },
        {
          "internalType": "string",
          "name": "_symbol",
          "type": "string"
        },
        {
          "internalType": "string",
          "name": "_name",
          "type": "string"
        }
      ],
      "stateMutability": "nonpayable",
      "type": "constructor"
    },
    {
      "inputs": [
        {
          "internalType": "address",
          "name": "receiver",
          "type": "address"
        },
        {
          "internalType": "uint256",
          "name": "balance",
          "type": "uint256"
        },
        {
          "internalType": "uint256",
          "name": "amount",
          "type": "uint256"
        }
      ],
      "name": "ERC20BalanceOverflow",
      "type": "error"
    },
    {
      "inputs": [
        {
          "internalType": "address",
          "name": "spender",
          "type": "address"
        },
        {
          "internalType": "uint256",
          "name": "allowance",
          "type": "uint256"
        },
        {
          "internalType": "uint256",
          "name": "needed",
          "type": "uint256"
        }
      ],
      "name": "ERC20InsufficientAllowance",
      "type": "error"
    },
    {
      "inputs": [
        {
          "internalType": "address",
          "name": "sender",
          "type": "address"
        },
        {
          "internalType": "uint256",
          "name": "balance",
          "type": "uint256"
        },
        {
          "internalType": "uint256",
          "name": "needed",
          "type": "uint256"
        }
      ],
      "name": "ERC20InsufficientBalance",
      "type": "error"
    },
    {
      "inputs": [
        {
          "internalType": "address",
          "name": "approver",
          "type": "address"
        }
      ],
      "name": "ERC20InvalidApprover",
      "type": "error"
    },
    {
      "inputs": [
        {
          "internalType": "address",
          "name": "receiver",
          "type": "address"
        }
      ],
      "name": "ERC20InvalidReceiver",
      "type": "error"
    },
    {
      "inputs": [
        {
          "internalType": "address",
          "name": "sender",
          "type": "address"
        }
      ],
      "name": "ERC20InvalidSender",
      "type": "error"
    },
    {
      "inputs": [
        {
          "internalType": "address",
          "name": "spender",
          "type": "address"
        }
      ],
      "name": "ERC20InvalidSpender",
      "type": "error"
    },
    {
      "inputs": [
        {
          "internalType": "address",
          "name": "sender",
          "type": "address"
        }
      ],
      "name": "Ownable_NotOwner",
      "type": "error"
    },
    {
      "anonymous": false,
      "inputs": [
        {
          "indexed": true,
          "internalType": "address",
          "name": "owner",
          "type": "address"
        },
        {
          "indexed": true,
          "internalType": "address",
          "name": "spender",
          "type": "address"
        },
        {
          "indexed": false,
          "internalType": "uint256",
          "name": "value",
          "type": "uint256"
        }
      ],
      "name": "Approval",
      "type": "event"
    },
    {
      "anonymous": false,
      "inputs": [
        {
          "indexed": false,
          "internalType": "string",
          "name": "name",
          "type": "string"
        },
        {
          "indexed": false,
          "internalType": "string",
          "name": "symbol",
          "type": "string"
        }
      ],
      "name": "NameChanged",
      "type": "event"
    },
    {
      "anonymous": false,
      "inputs": [
        {
          "indexed": true,
          "internalType": "address",
          "name": "previousOwner",
          "type": "address"
        },
        {
          "indexed": true,
          "internalType": "address",
          "name": "newOwner",
          "type": "address"
        }
      ],
      "name": "OwnershipTransferred",
      "type": "event"
    },
    {
      "anonymous": false,
      "inputs": [
        {
          "indexed": true,
          "internalType": "address",
          "name": "from",
          "type": "address"
        },
        {
          "indexed": true,
          "internalType": "address",
          "name": "to",
          "type": "address"
        },
        {
          "indexed": false,
          "internalType": "uint256",
          "name": "value",
          "type": "uint256"
        }
      ],
      "name": "Transfer",
      "type": "event"
    },
    {
      "inputs": [
        {
          "internalType": "address",
          "name": "owner",
          "type": "address"
        },
        {
          "internalType": "address",
          "name": "spender",
          "type": "address"
        }
      ],
      "name": "allowance",
      "outputs": [
        {
          "internalType": "uint256",
          "name": "",
          "type": "uint256"
        }
      ],
      "stateMutability": "view",
      "type": "function"
    },
    {
      "inputs": [
        {
          "internalType": "address",
          "name": "spender",
          "type": "address"
        },
        {
          "internalType": "uint256",
          "name": "value",
          "type": "uint256"
        }
      ],
      "name": "approve",
      "outputs": [
        {
          "internalType": "bool",
          "name": "",
          "type": "bool"
        }
      ],
      "stateMutability": "nonpayable",
      "type": "function"
    },
    {
      "inputs": [
        {
          "internalType": "address",
          "name": "account",
          "type": "address"
        }
      ],
      "name": "balanceOf",
      "outputs": [
        {
          "internalType": "uint256",
          "name": "",
          "type": "uint256"
        }
      ],
      "stateMutability": "view",
      "type": "function"
    },
    {
      "inputs": [
        {
          "internalType": "uint256",
          "name": "amount",
          "type": "uint256"
        }
      ],
      "name": "burn",
      "outputs": [],
      "stateMutability": "nonpayable",
      "type": "function"
    },
    {
      "inputs": [],
      "name": "decimals",
      "outputs": [
        {
          "internalType": "uint8",
          "name": "",
          "type": "uint8"
        }
      ],
      "stateMutability": "view",
      "type": "function"
    },
    {
      "inputs": [
        {
          "internalType": "address",
          "name": "account",
          "type": "address"
        },
        {
          "internalType": "uint8",
          "name": "number",
          "type": "uint8"
        }
      ],
      "name": "hasFlag",
      "outputs": [
        {
          "internalType": "bool",
          "name": "",
          "type": "bool"
        }
      ],
      "stateMutability": "view",
      "type": "function"
    },
    {
      "inputs": [],
      "name": "initiateMigration",
      "outputs": [],
      "stateMutability": "nonpayable",
      "type": "function"
    },
    {
      "inputs": [
        {
          "internalType": "uint256",
          "name": "additionalVotes",
          "type": "uint256"
        }
      ],
      "name": "initiateMigrationWithExternalApproval",
      "outputs": [],
      "stateMutability": "nonpayable",
      "type": "function"
    },
    {
      "inputs": [
        {
          "internalType": "address",
          "name": "recipient",
          "type": "address"
        },
        {
          "internalType": "uint256",
          "name": "amount",
          "type": "uint256"
        }
      ],
      "name": "mint",
      "outputs": [],
      "stateMutability": "nonpayable",
      "type": "function"
    },
    {
      "inputs": [],
      "name": "name",
      "outputs": [
        {
          "internalType": "string",
          "name": "",
          "type": "string"
        }
      ],
      "stateMutability": "view",
      "type": "function"
    },
    {
      "inputs": [],
      "name": "owner",
      "outputs": [
        {
          "internalType": "address",
          "name": "",
          "type": "address"
        }
      ],
      "stateMutability": "view",
      "type": "function"
    },
    {
      "inputs": [
        {
          "internalType": "string",
          "name": "_symbol",
          "type": "string"
        },
        {
          "internalType": "string",
          "name": "_name",
          "type": "string"
        }
      ],
      "name": "setName",
      "outputs": [],
      "stateMutability": "nonpayable",
      "type": "function"
    },
    {
      "inputs": [
        {
          "internalType": "address",
          "name": "oracle",
          "type": "address"
        }
      ],
      "name": "setPredecessorOracle",
      "outputs": [],
      "stateMutability": "nonpayable",
      "type": "function"
    },
    {
      "inputs": [],
      "name": "symbol",
      "outputs": [
        {
          "internalType": "string",
          "name": "",
          "type": "string"
        }
      ],
      "stateMutability": "view",
      "type": "function"
    },
    {
      "inputs": [],
      "name": "totalSupply",
      "outputs": [
        {
          "internalType": "uint256",
          "name": "",
          "type": "uint256"
        }
      ],
      "stateMutability": "view",
      "type": "function"
    },
    {
      "inputs": [
        {
          "internalType": "address",
          "name": "recipient",
          "type": "address"
        },
        {
          "internalType": "uint256",
          "name": "amount",
          "type": "uint256"
        }
      ],
      "name": "transfer",
      "outputs": [
        {
          "internalType": "bool",
          "name": "",
          "type": "bool"
        }
      ],
      "stateMutability": "nonpayable",
      "type": "function"
    },
    {
      "inputs": [
        {
          "internalType": "address",
          "name": "recipient",
          "type": "address"
        },
        {
          "internalType": "uint256",
          "name": "amount",
          "type": "uint256"
        },
        {
          "internalType": "bytes",
          "name": "data",
          "type": "bytes"
        }
      ],
      "name": "transferAndCall",
      "outputs": [
        {
          "internalType": "bool",
          "name": "",
          "type": "bool"
        }
      ],
      "stateMutability": "nonpayable",
      "type": "function"
    },
    {
      "inputs": [
        {
          "internalType": "address",
          "name": "sender",
          "type": "address"
        },
        {
          "internalType": "address",
          "name": "recipient",
          "type": "address"
        },
        {
          "internalType": "uint256",
          "name": "amount",
          "type": "uint256"
        }
      ],
      "name": "transferFrom",
      "outputs": [
        {
          "internalType": "bool",
          "name": "",
          "type": "bool"
        }
      ],
      "stateMutability": "nonpayable",
      "type": "function"
    },
    {
      "inputs": [
        {
          "internalType": "address",
          "name": "newOwner",
          "type": "address"
        }
      ],
      "name": "transferOwnership",
      "outputs": [],
      "stateMutability": "nonpayable",
      "type": "function"
    }
  ],
  "transactionHash": "0x414f8f6a046886b9c2f573be77c4a6016fbb1f216c222b0a638419d5eb06b59a",
  "args": [
    "0x39E5351E6CE3c4B19B8b0a2F5C82c511782457BE",
    "0x5a90E48b81Edf50813192E5F5Da0ED934Bf94c93",
    "0x453e384862245FAf4E021894d78BA8f6E51B8c19",
    "OLD",
    "Invalid Share"
  ],
  "numDeployments": 1,
  "solcInputHash": "8bee6fd352402dc83842d91bb55d0bb6",
  "bytecode": "0x60a06040523480156200001157600080fd5b5060405162001a3b38038062001a3b833981016040819052620000349162000286565b600380546001600160a81b0319166101006001600160a01b0388811682029290921792839055604051859385936000938b938493919091049091169084907f8be0079c531659141344cd1fd0a4f28419497f9722a3daafe3b4186f6b6457e0908290a350620000a48484620000e4565b505050505060609190911b6001600160601b03191660805250600680546001600160a01b0319166001600160a01b03929092169190911790555062000430565b8151620000f99060059060208501906200014f565b5080516200010f9060049060208401906200014f565b507f6c20b91d1723b78732eba64ff11ebd7966a6e4af568a00fa4f6b72c20f58b02a8183604051620001439291906200035f565b60405180910390a15050565b8280546200015d90620003c4565b90600052602060002090601f016020900481019282620001815760008555620001cc565b82601f106200019c57805160ff1916838001178555620001cc565b82800160010185558215620001cc579182015b82811115620001cc578251825591602001919060010190620001af565b50620001da929150620001de565b5090565b5b80821115620001da5760008155600101620001df565b600082601f8301126200020757600080fd5b81516001600160401b038082111562000224576200022462000401565b604051601f8301601f19908116603f011681019082821181831017156200024f576200024f62000401565b816040528381528660208588010111156200026957600080fd5b6200027c84602083016020890162000391565b9695505050505050565b600080600080600060a086880312156200029f57600080fd5b8551620002ac8162000417565b6020870151909550620002bf8162000417565b6040870151909450620002d28162000417565b60608701519093506001600160401b0380821115620002f057600080fd5b620002fe89838a01620001f5565b935060808801519150808211156200031557600080fd5b506200032488828901620001f5565b9150509295509295909350565b600081518084526200034b81602086016020860162000391565b601f01601f19169290920160200192915050565b60408152600062000374604083018562000331565b828103602084015262000388818562000331565b95945050505050565b60005b83811015620003ae57818101518382015260200162000394565b83811115620003be576000848401525b50505050565b600181811c90821680620003d957607f821691505b60208210811415620003fb57634e487b7160e01b600052602260045260246000fd5b50919050565b634e487b7160e01b600052604160045260246000fd5b6001600160a01b03811681146200042d57600080fd5b50565b60805160601c611598620004a3600039600081816103940152818161042a01528181610451015281816105180152818161058d0152818161062e01528181610861015281816108f70152818161091e015281816109d501528181610a5d01528181610af90152610c4c01526115986000f3fe608060405234801561001057600080fd5b50600436106101215760003560e01c80635c707f07116100ad578063a9059cbb11610071578063a9059cbb1461025f578063dd62ed3e14610272578063f2fde38b146102ab578063f4a50ce0146102be578063f5c0b95f146102d157600080fd5b80635c707f07146101f95780635f4d49071461020c57806370a08231146102145780638da5cb5b1461022757806395d89b411461025757600080fd5b806323b872dd116100f457806323b872dd1461018e578063313ce567146101a15780634000aea0146101c057806340c10f19146101d357806342966c68146101e657600080fd5b806306fdde0314610126578063095ea7b31461014457806312655be31461016757806318160ddd1461017c575b600080fd5b61012e6102e4565b60405161013b9190611441565b60405180910390f35b6101576101523660046111ee565b610372565b604051901515815260200161013b565b61017a61017536600461137a565b610388565b005b6002545b60405190815260200161013b565b61015761019c3660046111ad565b6106b2565b6003546101ae9060ff1681565b60405160ff909116815260200161013b565b6101576101ce36600461121a565b610729565b61017a6101e13660046111ee565b6107c9565b61017a6101f436600461137a565b6107df565b61017a610207366004611316565b61084b565b61017a61085d565b610180610222366004611157565b610b78565b60035461023f9061010090046001600160a01b031681565b6040516001600160a01b03909116815260200161013b565b61012e610b9c565b61015761026d3660046111ee565b610ba9565b610180610280366004611174565b6001600160a01b03918216600090815260016020908152604080832093909416825291909152205490565b61017a6102b9366004611157565b610bb6565b61017a6102cc366004611157565b610c25565b6101576102df3660046112a3565b610c7b565b600480546102f1906114cd565b80601f016020809104026020016040519081016040528092919081815260200182805461031d906114cd565b801561036a5780601f1061033f5761010080835404028352916020019161036a565b820191906000526020600020905b81548152906001019060200180831161034d57829003601f168201915b505050505081565b600061037f338484610c8e565b50600192915050565b610390610cf0565b60007f00000000000000000000000000000000000000000000000000000000000000006001600160a01b03166318160ddd6040518163ffffffff1660e01b815260040160206040518083038186803b1580156103eb57600080fd5b505afa1580156103ff573d6000803e3d6000fd5b505050506040513d601f19601f820116820180604052508101906104239190611393565b905061044f7f000000000000000000000000000000000000000000000000000000000000000082610d29565b7f00000000000000000000000000000000000000000000000000000000000000006001600160a01b03166350e70d486040518163ffffffff1660e01b815260040160206040518083038186803b1580156104a857600080fd5b505afa1580156104bc573d6000803e3d6000fd5b505050506040513d601f19601f820116820180604052508101906104e091906112f9565b600680546001600160a01b0319166001600160a01b0392831617905560405163066114d560e21b8152306004820152602481018490527f000000000000000000000000000000000000000000000000000000000000000090911690631984535490604401600060405180830381600087803b15801561055e57600080fd5b505af1158015610572573d6000803e3d6000fd5b50506040516370a0823160e01b8152306004820152600092507f00000000000000000000000000000000000000000000000000000000000000006001600160a01b031691506370a082319060240160206040518083038186803b1580156105d857600080fd5b505afa1580156105ec573d6000803e3d6000fd5b505050506040513d601f19601f820116820180604052508101906106109190611393565b9050801561069c57604051636f074d1f60e11b8152600481018290527f00000000000000000000000000000000000000000000000000000000000000006001600160a01b03169063de0e9a3e90602401600060405180830381600087803b15801561067a57600080fd5b505af115801561068e573d6000803e3d6000fd5b5050505061069c3082610d91565b60025482146106ad576106ad611508565b505050565b60006106bf848484610df1565b6001600160a01b0384166000908152600160209081526040808320338452909152902054600160ff1b81101561071e576106f983826114b6565b6001600160a01b03861660009081526001602090815260408083203384529091529020555b506001949350505050565b60006107358585610ba9565b80156107c05750604051635260769b60e11b81526001600160a01b0386169063a4c0ed369061076e9033908890889088906004016113f9565b602060405180830381600087803b15801561078857600080fd5b505af115801561079c573d6000803e3d6000fd5b505050506040513d601f19601f820116820180604052508101906107c091906112d7565b95945050505050565b6107d1610cf0565b6107db8282610d29565b5050565b6107e93382610d91565b600654604051630852cd8d60e31b8152600481018390526001600160a01b03909116906342966c68906024015b600060405180830381600087803b15801561083057600080fd5b505af1158015610844573d6000803e3d6000fd5b5050505050565b610853610cf0565b6107db8282610e4a565b60007f00000000000000000000000000000000000000000000000000000000000000006001600160a01b03166318160ddd6040518163ffffffff1660e01b815260040160206040518083038186803b1580156108b857600080fd5b505afa1580156108cc573d6000803e3d6000fd5b505050506040513d601f19601f820116820180604052508101906108f09190611393565b905061091c7f000000000000000000000000000000000000000000000000000000000000000082610d29565b7f00000000000000000000000000000000000000000000000000000000000000006001600160a01b03166350e70d486040518163ffffffff1660e01b815260040160206040518083038186803b15801561097557600080fd5b505afa158015610989573d6000803e3d6000fd5b505050506040513d601f19601f820116820180604052508101906109ad91906112f9565b600660006101000a8154816001600160a01b0302191690836001600160a01b031602179055507f00000000000000000000000000000000000000000000000000000000000000006001600160a01b0316638fd3ab806040518163ffffffff1660e01b8152600401600060405180830381600087803b158015610a2e57600080fd5b505af1158015610a42573d6000803e3d6000fd5b50506040516370a0823160e01b8152306004820152600092507f00000000000000000000000000000000000000000000000000000000000000006001600160a01b031691506370a082319060240160206040518083038186803b158015610aa857600080fd5b505afa158015610abc573d6000803e3d6000fd5b505050506040513d601f19601f82011682018060405250810190610ae09190611393565b604051636f074d1f60e11b8152600481018290529091507f00000000000000000000000000000000000000000000000000000000000000006001600160a01b03169063de0e9a3e90602401600060405180830381600087803b158015610b4557600080fd5b505af1158015610b59573d6000803e3d6000fd5b50505050610b673082610d91565b60025482146107db576107db611508565b6001600160a01b03166000908152602081905260409020546001600160e01b031690565b600580546102f1906114cd565b600061037f338484610df1565b610bbe610cf0565b6003546040516001600160a01b0380841692610100900416907f8be0079c531659141344cd1fd0a4f28419497f9722a3daafe3b4186f6b6457e090600090a3600380546001600160a01b0390921661010002610100600160a81b0319909216919091179055565b610c2d610cf0565b604051637adbf97360e01b81526001600160a01b0382811660048301527f00000000000000000000000000000000000000000000000000000000000000001690637adbf97390602401610816565b6000610c878383610eaf565b9392505050565b6001600160a01b0383811660008181526001602090815260408083209487168084529482529182902085905590518481527f8c5be1e5ebec7d5bd14f71427d1e84f3dd0314c0f7b2291e5b200ac8c7c3b92591015b60405180910390a3505050565b60035461010090046001600160a01b03163314610d27576040516396a19be960e01b81523360048201526024015b60405180910390fd5b565b8060026000828254610d3b9190611479565b90915550610d4b90508282610eef565b6040518181526001600160a01b038316906000907fddf252ad1be2c89b69c2b068fc378daa952ba7f163c4a11628f55a4df523b3ef906020015b60405180910390a35050565b8060026000828254610da391906114b6565b90915550610db390508282610fb5565b6040518181526000906001600160a01b038416907fddf252ad1be2c89b69c2b068fc378daa952ba7f163c4a11628f55a4df523b3ef90602001610d85565b610dfb8382610fb5565b610e058282610eef565b816001600160a01b0316836001600160a01b03167fddf252ad1be2c89b69c2b068fc378daa952ba7f163c4a11628f55a4df523b3ef83604051610ce391815260200190565b8151610e5d906005906020850190611031565b508051610e71906004906020840190611031565b507f6c20b91d1723b78732eba64ff11ebd7966a6e4af568a00fa4f6b72c20f58b02a8183604051610ea3929190611454565b60405180910390a15050565b600080610ebd8360e0611491565b6001600160a01b038516600090815260208190526040902054600160ff929092169190911b9081161491505092915050565b6001600160a01b038216610f215760405163ec442f0560e01b81526001600160a01b0383166004820152602401610d1e565b6001600160a01b03821660009081526020819052604081205490610f458383611479565b90506001600160e01b031981166001600160e01b0319831614610f9457604051634a2e08e560e01b81526001600160a01b03851660048201526024810183905260448101849052606401610d1e565b6001600160a01b039093166000908152602081905260409020929092555050565b6001600160a01b03821660009081526020819052604081205490610fd983836114b6565b90506001600160e01b031981166001600160e01b0319831614610f94578361100085610b78565b60405163391434e360e21b81526001600160a01b039092166004830152602482015260448101849052606401610d1e565b82805461103d906114cd565b90600052602060002090601f01602090048101928261105f57600085556110a5565b82601f1061107857805160ff19168380011785556110a5565b828001600101855582156110a5579182015b828111156110a557825182559160200191906001019061108a565b506110b19291506110b5565b5090565b5b808211156110b157600081556001016110b6565b600082601f8301126110db57600080fd5b813567ffffffffffffffff808211156110f6576110f6611534565b604051601f8301601f19908116603f0116810190828211818310171561111e5761111e611534565b8160405283815286602085880101111561113757600080fd5b836020870160208301376000602085830101528094505050505092915050565b60006020828403121561116957600080fd5b8135610c878161154a565b6000806040838503121561118757600080fd5b82356111928161154a565b915060208301356111a28161154a565b809150509250929050565b6000806000606084860312156111c257600080fd5b83356111cd8161154a565b925060208401356111dd8161154a565b929592945050506040919091013590565b6000806040838503121561120157600080fd5b823561120c8161154a565b946020939093013593505050565b6000806000806060858703121561123057600080fd5b843561123b8161154a565b935060208501359250604085013567ffffffffffffffff8082111561125f57600080fd5b818701915087601f83011261127357600080fd5b81358181111561128257600080fd5b88602082850101111561129457600080fd5b95989497505060200194505050565b600080604083850312156112b657600080fd5b82356112c18161154a565b9150602083013560ff811681146111a257600080fd5b6000602082840312156112e957600080fd5b81518015158114610c8757600080fd5b60006020828403121561130b57600080fd5b8151610c878161154a565b6000806040838503121561132957600080fd5b823567ffffffffffffffff8082111561134157600080fd5b61134d868387016110ca565b9350602085013591508082111561136357600080fd5b50611370858286016110ca565b9150509250929050565b60006020828403121561138c57600080fd5b5035919050565b6000602082840312156113a557600080fd5b5051919050565b6000815180845260005b818110156113d2576020818501810151868301820152016113b6565b818111156113e4576000602083870101525b50601f01601f19169290920160200192915050565b6001600160a01b0385168152602081018490526060604082018190528101829052818360808301376000818301608090810191909152601f909201601f191601019392505050565b602081526000610c8760208301846113ac565b60408152600061146760408301856113ac565b82810360208401526107c081856113ac565b6000821982111561148c5761148c61151e565b500190565b600060ff821660ff84168060ff038211156114ae576114ae61151e565b019392505050565b6000828210156114c8576114c861151e565b500390565b600181811c908216806114e157607f821691505b6020821081141561150257634e487b7160e01b600052602260045260246000fd5b50919050565b634e487b7160e01b600052600160045260246000fd5b634e487b7160e01b600052601160045260246000fd5b634e487b7160e01b600052604160045260246000fd5b6001600160a01b038116811461155f57600080fd5b5056fea2646970667358221220bee6922d9a42f8d813a826c74dbb2eb224a12494c2eb1e248492958abd47ea4c64736f6c63430008070033",
  "devdoc": {
    "details": "only one of the migration function should be needed.  ",
    "errors": {
      "ERC20BalanceOverflow(address,uint256,uint256)": [
        {
          "params": {
            "amount": "The amount added, which result in the overflow. ",
            "balance": "The current balance of the receiver. ",
            "receiver": "The address were the balance overflows. "
          }
        }
      ]
    },
    "kind": "dev",
    "methods": {
      "allowance(address,address)": {
        "details": "See `IERC20.allowance`."
      },
      "approve(address,uint256)": {
        "details": "See `IERC20.approve`. Requirements: - `spender` cannot be the zero address."
      },
      "balanceOf(address)": {
        "details": "See `IERC20.balanceOf`."
      },
      "totalSupply()": {
        "details": "See `IERC20.totalSupply`."
      },
      "transfer(address,uint256)": {
        "details": "See `IERC20.transfer`. Requirements: - `recipient` cannot be the zero address. - the caller must have a balance of at least `amount`."
      },
      "transferFrom(address,address,uint256)": {
        "details": "See `IERC20.transferFrom`. Emits an `Approval` event indicating the updated allowance. This is not required by the EIP. See the note at the beginning of `ERC20`; Requirements: - `sender` and `recipient` cannot be the zero address. - `sender` must have a balance of at least `value`. - the caller must have allowance for `sender`'s tokens of at least `amount`."
      },
      "transferOwnership(address)": {
        "details": "Transfers ownership of the contract to a new account (`newOwner`). Can only be called by the current owner."
      }
    },
    "version": 1
  },
  "userdoc": {
    "errors": {
      "ERC20BalanceOverflow(address,uint256,uint256)": [
        {
          "notice": "Overflow on minting, transfer. "
        }
      ]
    },
    "kind": "user",
    "methods": {
      "initiateMigration()": {
        "notice": "This contract needs to hold the majority of the predecessor tokens."
      },
      "initiateMigrationWithExternalApproval(uint256)": {
        "notice": "This contract needs to hold the majority of the predecessor tokens and the this contract needs to be the oracle of the predecessor. "
      }
    },
    "version": 1
  },
  "storageLayout": {
    "storage": [
      {
        "astId": 57,
        "contract": "src/shares/InvalidContract.sol:InvalidContract",
        "label": "_balances",
        "offset": 0,
        "slot": "0",
        "type": "t_mapping(t_address,t_uint256)"
      },
      {
        "astId": 63,
        "contract": "src/shares/InvalidContract.sol:InvalidContract",
        "label": "_allowances",
        "offset": 0,
        "slot": "1",
        "type": "t_mapping(t_address,t_mapping(t_address,t_uint256))"
      },
      {
        "astId": 65,
        "contract": "src/shares/InvalidContract.sol:InvalidContract",
        "label": "_totalSupply",
        "offset": 0,
        "slot": "2",
        "type": "t_uint256"
      },
      {
        "astId": 68,
        "contract": "src/shares/InvalidContract.sol:InvalidContract",
        "label": "decimals",
        "offset": 0,
        "slot": "3",
        "type": "t_uint8"
      },
      {
        "astId": 2739,
        "contract": "src/shares/InvalidContract.sol:InvalidContract",
        "label": "owner",
        "offset": 1,
        "slot": "3",
        "type": "t_address"
      },
      {
        "astId": 606,
        "contract": "src/shares/InvalidContract.sol:InvalidContract",
        "label": "name",
        "offset": 0,
        "slot": "4",
        "type": "t_string_storage"
      },
      {
        "astId": 609,
        "contract": "src/shares/InvalidContract.sol:InvalidContract",
        "label": "symbol",
        "offset": 0,
        "slot": "5",
        "type": "t_string_storage"
      },
      {
        "astId": 2516,
        "contract": "src/shares/InvalidContract.sol:InvalidContract",
        "label": "base",
        "offset": 0,
        "slot": "6",
        "type": "t_contract(IERC20)886"
      }
    ],
    "types": {
      "t_address": {
        "encoding": "inplace",
        "label": "address",
        "numberOfBytes": "20"
      },
      "t_contract(IERC20)886": {
        "encoding": "inplace",
        "label": "contract IERC20",
        "numberOfBytes": "20"
      },
      "t_mapping(t_address,t_mapping(t_address,t_uint256))": {
        "encoding": "mapping",
        "key": "t_address",
        "label": "mapping(address => mapping(address => uint256))",
        "numberOfBytes": "32",
        "value": "t_mapping(t_address,t_uint256)"
      },
      "t_mapping(t_address,t_uint256)": {
        "encoding": "mapping",
        "key": "t_address",
        "label": "mapping(address => uint256)",
        "numberOfBytes": "32",
        "value": "t_uint256"
      },
      "t_string_storage": {
        "encoding": "bytes",
        "label": "string",
        "numberOfBytes": "32"
      },
      "t_uint256": {
        "encoding": "inplace",
        "label": "uint256",
        "numberOfBytes": "32"
      },
      "t_uint8": {
        "encoding": "inplace",
        "label": "uint8",
        "numberOfBytes": "1"
      }
    }
  }
}