{
  "address": "0x972bFf8e5f0F97C880CCb92616C07dc78d4d89f8",
  "abi": [
    {
      "inputs": [
        {
          "internalType": "string",
          "name": "_terms",
          "type": "string"
        },
        {
          "internalType": "contract IERC20",
          "name": "_wrappedToken",
          "type": "address"
        },
        {
          "internalType": "uint256",
          "name": "_quorumBps",
          "type": "uint256"
        },
        {
          "internalType": "uint256",
          "name": "_quorumMigration",
          "type": "uint256"
        },
        {
          "internalType": "uint256",
          "name": "_votePeriodSeconds",
          "type": "uint256"
        },
        {
          "internalType": "contract IRecoveryHub",
          "name": "_recoveryHub",
          "type": "address"
        },
        {
          "internalType": "contract IOfferFactory",
          "name": "_offerFactory",
          "type": "address"
        },
        {
          "internalType": "address",
          "name": "_oracle",
          "type": "address"
        }
      ],
      "stateMutability": "nonpayable",
      "type": "constructor"
    },
    {
      "anonymous": false,
      "inputs": [
        {
          "indexed": true,
          "internalType": "address",
          "name": "owner",
          "type": "address"
        },
        {
          "indexed": true,
          "internalType": "address",
          "name": "spender",
          "type": "address"
        },
        {
          "indexed": false,
          "internalType": "uint256",
          "name": "value",
          "type": "uint256"
        }
      ],
      "name": "Approval",
      "type": "event"
    },
    {
      "anonymous": false,
      "inputs": [
        {
          "indexed": false,
          "internalType": "address",
          "name": "oracle",
          "type": "address"
        }
      ],
      "name": "ChangeOracle",
      "type": "event"
    },
    {
      "anonymous": false,
      "inputs": [
        {
          "indexed": false,
          "internalType": "address",
          "name": "newContractAddress",
          "type": "address"
        },
        {
          "indexed": false,
          "internalType": "uint256",
          "name": "yesVotes",
          "type": "uint256"
        },
        {
          "indexed": false,
          "internalType": "uint256",
          "name": "oracleVotes",
          "type": "uint256"
        },
        {
          "indexed": false,
          "internalType": "uint256",
          "name": "totalVotingPower",
          "type": "uint256"
        }
      ],
      "name": "MigrationSucceeded",
      "type": "event"
    },
    {
      "anonymous": false,
      "inputs": [
        {
          "indexed": false,
          "internalType": "string",
          "name": "name",
          "type": "string"
        },
        {
          "indexed": false,
          "internalType": "string",
          "name": "symbol",
          "type": "string"
        }
      ],
      "name": "NameChanged",
      "type": "event"
    },
    {
      "anonymous": false,
      "inputs": [
        {
          "indexed": true,
          "internalType": "address",
          "name": "from",
          "type": "address"
        },
        {
          "indexed": true,
          "internalType": "address",
          "name": "to",
          "type": "address"
        },
        {
          "indexed": false,
          "internalType": "uint256",
          "name": "value",
          "type": "uint256"
        }
      ],
      "name": "Transfer",
      "type": "event"
    },
    {
      "inputs": [],
      "name": "DOMAIN_SEPARATOR",
      "outputs": [
        {
          "internalType": "bytes32",
          "name": "",
          "type": "bytes32"
        }
      ],
      "stateMutability": "view",
      "type": "function"
    },
    {
      "inputs": [
        {
          "internalType": "address",
          "name": "owner",
          "type": "address"
        },
        {
          "internalType": "address",
          "name": "spender",
          "type": "address"
        }
      ],
      "name": "allowance",
      "outputs": [
        {
          "internalType": "uint256",
          "name": "",
          "type": "uint256"
        }
      ],
      "stateMutability": "view",
      "type": "function"
    },
    {
      "inputs": [
        {
          "internalType": "address",
          "name": "spender",
          "type": "address"
        },
        {
          "internalType": "uint256",
          "name": "value",
          "type": "uint256"
        }
      ],
      "name": "approve",
      "outputs": [
        {
          "internalType": "bool",
          "name": "",
          "type": "bool"
        }
      ],
      "stateMutability": "nonpayable",
      "type": "function"
    },
    {
      "inputs": [
        {
          "internalType": "address",
          "name": "account",
          "type": "address"
        }
      ],
      "name": "balanceOf",
      "outputs": [
        {
          "internalType": "uint256",
          "name": "",
          "type": "uint256"
        }
      ],
      "stateMutability": "view",
      "type": "function"
    },
    {
      "inputs": [
        {
          "internalType": "uint256",
          "name": "amount",
          "type": "uint256"
        }
      ],
      "name": "burn",
      "outputs": [],
      "stateMutability": "nonpayable",
      "type": "function"
    },
    {
      "inputs": [],
      "name": "claimPeriod",
      "outputs": [
        {
          "internalType": "uint256",
          "name": "",
          "type": "uint256"
        }
      ],
      "stateMutability": "pure",
      "type": "function"
    },
    {
      "inputs": [],
      "name": "customCollateralAddress",
      "outputs": [
        {
          "internalType": "contract IERC20",
          "name": "",
          "type": "address"
        }
      ],
      "stateMutability": "view",
      "type": "function"
    },
    {
      "inputs": [],
      "name": "customCollateralRate",
      "outputs": [
        {
          "internalType": "uint256",
          "name": "",
          "type": "uint256"
        }
      ],
      "stateMutability": "view",
      "type": "function"
    },
    {
      "inputs": [],
      "name": "decimals",
      "outputs": [
        {
          "internalType": "uint8",
          "name": "",
          "type": "uint8"
        }
      ],
      "stateMutability": "view",
      "type": "function"
    },
    {
      "inputs": [
        {
          "internalType": "address",
          "name": "lostAddress",
          "type": "address"
        }
      ],
      "name": "deleteClaim",
      "outputs": [],
      "stateMutability": "nonpayable",
      "type": "function"
    },
    {
      "inputs": [
        {
          "internalType": "address",
          "name": "buyer",
          "type": "address"
        },
        {
          "internalType": "contract IERC20",
          "name": "currency",
          "type": "address"
        }
      ],
      "name": "drag",
      "outputs": [],
      "stateMutability": "nonpayable",
      "type": "function"
    },
    {
      "inputs": [],
      "name": "factory",
      "outputs": [
        {
          "internalType": "contract IOfferFactory",
          "name": "",
          "type": "address"
        }
      ],
      "stateMutability": "view",
      "type": "function"
    },
    {
      "inputs": [],
      "name": "getClaimDeleter",
      "outputs": [
        {
          "internalType": "address",
          "name": "",
          "type": "address"
        }
      ],
      "stateMutability": "view",
      "type": "function"
    },
    {
      "inputs": [
        {
          "internalType": "contract IERC20",
          "name": "collateralType",
          "type": "address"
        }
      ],
      "name": "getCollateralRate",
      "outputs": [
        {
          "internalType": "uint256",
          "name": "",
          "type": "uint256"
        }
      ],
      "stateMutability": "view",
      "type": "function"
    },
    {
      "inputs": [
        {
          "internalType": "address",
          "name": "account",
          "type": "address"
        },
        {
          "internalType": "uint8",
          "name": "number",
          "type": "uint8"
        }
      ],
      "name": "hasFlag",
      "outputs": [
        {
          "internalType": "bool",
          "name": "",
          "type": "bool"
        }
      ],
      "stateMutability": "view",
      "type": "function"
    },
    {
      "inputs": [],
      "name": "isBinding",
      "outputs": [
        {
          "internalType": "bool",
          "name": "",
          "type": "bool"
        }
      ],
      "stateMutability": "view",
      "type": "function"
    },
    {
      "inputs": [
        {
          "internalType": "bytes32",
          "name": "salt",
          "type": "bytes32"
        },
        {
          "internalType": "uint256",
          "name": "pricePerShare",
          "type": "uint256"
        },
        {
          "internalType": "contract IERC20",
          "name": "currency",
          "type": "address"
        }
      ],
      "name": "makeAcquisitionOffer",
      "outputs": [],
      "stateMutability": "payable",
      "type": "function"
    },
    {
      "inputs": [],
      "name": "migrate",
      "outputs": [],
      "stateMutability": "nonpayable",
      "type": "function"
    },
    {
      "inputs": [
        {
          "internalType": "address",
          "name": "successor",
          "type": "address"
        },
        {
          "internalType": "uint256",
          "name": "additionalVotes",
          "type": "uint256"
        }
      ],
      "name": "migrateWithExternalApproval",
      "outputs": [],
      "stateMutability": "nonpayable",
      "type": "function"
    },
    {
      "inputs": [],
      "name": "name",
      "outputs": [
        {
          "internalType": "string",
          "name": "",
          "type": "string"
        }
      ],
      "stateMutability": "view",
      "type": "function"
    },
    {
      "inputs": [
        {
          "internalType": "address",
          "name": "",
          "type": "address"
        }
      ],
      "name": "nonces",
      "outputs": [
        {
          "internalType": "uint256",
          "name": "",
          "type": "uint256"
        }
      ],
      "stateMutability": "view",
      "type": "function"
    },
    {
      "inputs": [
        {
          "internalType": "address",
          "name": "target",
          "type": "address"
        }
      ],
      "name": "notifyClaimDeleted",
      "outputs": [],
      "stateMutability": "nonpayable",
      "type": "function"
    },
    {
      "inputs": [
        {
          "internalType": "address",
          "name": "target",
          "type": "address"
        }
      ],
      "name": "notifyClaimMade",
      "outputs": [],
      "stateMutability": "nonpayable",
      "type": "function"
    },
    {
      "inputs": [],
      "name": "notifyOfferEnded",
      "outputs": [],
      "stateMutability": "nonpayable",
      "type": "function"
    },
    {
      "inputs": [
        {
          "internalType": "address",
          "name": "voter",
          "type": "address"
        }
      ],
      "name": "notifyVoted",
      "outputs": [],
      "stateMutability": "nonpayable",
      "type": "function"
    },
    {
      "inputs": [],
      "name": "offer",
      "outputs": [
        {
          "internalType": "contract IOffer",
          "name": "",
          "type": "address"
        }
      ],
      "stateMutability": "view",
      "type": "function"
    },
    {
      "inputs": [
        {
          "internalType": "address",
          "name": "from",
          "type": "address"
        },
        {
          "internalType": "uint256",
          "name": "amount",
          "type": "uint256"
        },
        {
          "internalType": "bytes",
          "name": "",
          "type": "bytes"
        }
      ],
      "name": "onTokenTransfer",
      "outputs": [
        {
          "internalType": "bool",
          "name": "",
          "type": "bool"
        }
      ],
      "stateMutability": "nonpayable",
      "type": "function"
    },
    {
      "inputs": [],
      "name": "oracle",
      "outputs": [
        {
          "internalType": "address",
          "name": "",
          "type": "address"
        }
      ],
      "stateMutability": "view",
      "type": "function"
    },
    {
      "inputs": [
        {
          "internalType": "address",
          "name": "owner",
          "type": "address"
        },
        {
          "internalType": "address",
          "name": "spender",
          "type": "address"
        },
        {
          "internalType": "uint256",
          "name": "value",
          "type": "uint256"
        },
        {
          "internalType": "uint256",
          "name": "deadline",
          "type": "uint256"
        },
        {
          "internalType": "uint8",
          "name": "v",
          "type": "uint8"
        },
        {
          "internalType": "bytes32",
          "name": "r",
          "type": "bytes32"
        },
        {
          "internalType": "bytes32",
          "name": "s",
          "type": "bytes32"
        }
      ],
      "name": "permit",
      "outputs": [],
      "stateMutability": "nonpayable",
      "type": "function"
    },
    {
      "inputs": [],
      "name": "quorum",
      "outputs": [
        {
          "internalType": "uint256",
          "name": "",
          "type": "uint256"
        }
      ],
      "stateMutability": "view",
      "type": "function"
    },
    {
      "inputs": [],
      "name": "quorumMigration",
      "outputs": [
        {
          "internalType": "uint256",
          "name": "",
          "type": "uint256"
        }
      ],
      "stateMutability": "view",
      "type": "function"
    },
    {
      "inputs": [
        {
          "internalType": "address",
          "name": "oldAddress",
          "type": "address"
        },
        {
          "internalType": "address",
          "name": "newAddress",
          "type": "address"
        }
      ],
      "name": "recover",
      "outputs": [],
      "stateMutability": "nonpayable",
      "type": "function"
    },
    {
      "inputs": [],
      "name": "recovery",
      "outputs": [
        {
          "internalType": "contract IRecoveryHub",
          "name": "",
          "type": "address"
        }
      ],
      "stateMutability": "view",
      "type": "function"
    },
    {
      "inputs": [
        {
          "internalType": "address",
          "name": "newOracle",
          "type": "address"
        }
      ],
      "name": "setOracle",
      "outputs": [],
      "stateMutability": "nonpayable",
      "type": "function"
    },
    {
      "inputs": [],
      "name": "symbol",
      "outputs": [
        {
          "internalType": "string",
          "name": "",
          "type": "string"
        }
      ],
      "stateMutability": "view",
      "type": "function"
    },
    {
      "inputs": [],
      "name": "terms",
      "outputs": [
        {
          "internalType": "string",
          "name": "",
          "type": "string"
        }
      ],
      "stateMutability": "view",
      "type": "function"
    },
    {
      "inputs": [],
      "name": "totalSupply",
      "outputs": [
        {
          "internalType": "uint256",
          "name": "",
          "type": "uint256"
        }
      ],
      "stateMutability": "view",
      "type": "function"
    },
    {
      "inputs": [],
      "name": "totalVotingTokens",
      "outputs": [
        {
          "internalType": "uint256",
          "name": "",
          "type": "uint256"
        }
      ],
      "stateMutability": "view",
      "type": "function"
    },
    {
      "inputs": [
        {
          "internalType": "address",
          "name": "to",
          "type": "address"
        },
        {
          "internalType": "uint256",
          "name": "value",
          "type": "uint256"
        }
      ],
      "name": "transfer",
      "outputs": [
        {
          "internalType": "bool",
          "name": "",
          "type": "bool"
        }
      ],
      "stateMutability": "nonpayable",
      "type": "function"
    },
    {
      "inputs": [
        {
          "internalType": "address",
          "name": "recipient",
          "type": "address"
        },
        {
          "internalType": "uint256",
          "name": "amount",
          "type": "uint256"
        },
        {
          "internalType": "bytes",
          "name": "data",
          "type": "bytes"
        }
      ],
      "name": "transferAndCall",
      "outputs": [
        {
          "internalType": "bool",
          "name": "",
          "type": "bool"
        }
      ],
      "stateMutability": "nonpayable",
      "type": "function"
    },
    {
      "inputs": [
        {
          "internalType": "address",
          "name": "sender",
          "type": "address"
        },
        {
          "internalType": "address",
          "name": "recipient",
          "type": "address"
        },
        {
          "internalType": "uint256",
          "name": "amount",
          "type": "uint256"
        }
      ],
      "name": "transferFrom",
      "outputs": [
        {
          "internalType": "bool",
          "name": "",
          "type": "bool"
        }
      ],
      "stateMutability": "nonpayable",
      "type": "function"
    },
    {
      "inputs": [
        {
          "internalType": "uint256",
          "name": "amount",
          "type": "uint256"
        }
      ],
      "name": "unwrap",
      "outputs": [],
      "stateMutability": "nonpayable",
      "type": "function"
    },
    {
      "inputs": [],
      "name": "unwrapConversionFactor",
      "outputs": [
        {
          "internalType": "uint256",
          "name": "",
          "type": "uint256"
        }
      ],
      "stateMutability": "view",
      "type": "function"
    },
    {
      "inputs": [],
      "name": "votePeriod",
      "outputs": [
        {
          "internalType": "uint256",
          "name": "",
          "type": "uint256"
        }
      ],
      "stateMutability": "view",
      "type": "function"
    },
    {
      "inputs": [
        {
          "internalType": "address",
          "name": "voter",
          "type": "address"
        }
      ],
      "name": "votingPower",
      "outputs": [
        {
          "internalType": "uint256",
          "name": "",
          "type": "uint256"
        }
      ],
      "stateMutability": "view",
      "type": "function"
    },
    {
      "inputs": [
        {
          "internalType": "address",
          "name": "shareholder",
          "type": "address"
        },
        {
          "internalType": "uint256",
          "name": "amount",
          "type": "uint256"
        }
      ],
      "name": "wrap",
      "outputs": [],
      "stateMutability": "nonpayable",
      "type": "function"
    },
    {
      "inputs": [],
      "name": "wrapped",
      "outputs": [
        {
          "internalType": "contract IERC20",
          "name": "",
          "type": "address"
        }
      ],
      "stateMutability": "view",
      "type": "function"
    }
  ],
  "transactionHash": "0xbf32bb1135b9b73de15a767d732e33ad5a549400b9ebf9c71a067f29478d1392",
  "args": [
    "https://shareholders.nanimale.com",
    "0x2ffa1C52D0943A01d6f0a440BD77d26d44AD0E61",
    5000,
    5000,
    5184000,
    "0xc6AfD3b605957b9BA94143F59d451c657F507516",
    "0x1B8Bf880E17FE5D8B2432A102346424B3237b2A7",
    "0xB859a0b9B78a202d241895096F3455e9549896d8"
  ],
  "numDeployments": 1,
  "solcInputHash": "633932a829c4d68777c086c327364281",
  "bytecode": "0x61012060405260006004553480156200001757600080fd5b5060405162002bcf38038062002bcf8339810160408190526200003a91620001e3565b600380546001600160a81b0319166101006001600160a01b038a811682029290921790925560c088905260a087905260e0869052606084811b6001600160601b0319908116608052600680546001600160a01b0319169386169390931790925585901b1690528751620000b590600a9060208b019062000120565b50604051636427ed9760e01b8152600060048201526001600160a01b03841690636427ed9790602401600060405180830381600087803b158015620000f957600080fd5b505af11580156200010e573d6000803e3d6000fd5b5050505050505050505050506200037c565b8280546200012e9062000329565b90600052602060002090601f0160209004810192826200015257600085556200019d565b82601f106200016d57805160ff19168380011785556200019d565b828001600101855582156200019d579182015b828111156200019d57825182559160200191906001019062000180565b50620001ab929150620001af565b5090565b5b80821115620001ab5760008155600101620001b0565b80516001600160a01b0381168114620001de57600080fd5b919050565b600080600080600080600080610100898b0312156200020157600080fd5b88516001600160401b03808211156200021957600080fd5b818b0191508b601f8301126200022e57600080fd5b81518181111562000243576200024362000366565b604051601f8201601f19908116603f011681019083821181831017156200026e576200026e62000366565b81604052828152602093508e848487010111156200028b57600080fd5b600091505b82821015620002af578482018401518183018501529083019062000290565b82821115620002c15760008484830101525b9b50620002d39150508b8201620001c6565b98505050604089015195506060890151945060808901519350620002fa60a08a01620001c6565b92506200030a60c08a01620001c6565b91506200031a60e08a01620001c6565b90509295985092959890939650565b600181811c908216806200033e57607f821691505b602082108114156200036057634e487b7160e01b600052602260045260246000fd5b50919050565b634e487b7160e01b600052604160045260246000fd5b60805160601c60a05160c05160e0516101005160601c6127c962000406600039600081816107fe01528181610bdd01528181610e17015281816111f7015281816116b80152611b60015260008181610668015261153801526000818161036b0152611512015260008181610872015261185c01526000818161073c015261156101526127c96000f3fe6080604052600436106102885760003560e01c80637dc0d1d01161015a578063c18172c4116100c1578063ddceafa91161007a578063ddceafa9146107ec578063de0e9a3e14610820578063e5b824ec14610840578063efa4051214610860578063f5c0b95f14610894578063fcb79a7e146108b457600080fd5b8063c18172c41461070a578063c45a01551461072a578063d50256251461075e578063d505accf14610773578063dcc7d4ad14610793578063dd62ed3e146107a657600080fd5b8063a4c0ed3611610113578063a4c0ed3614610636578063a781358714610656578063a9059cbb1461068a578063bf376c7a146106aa578063c028df06146106ca578063c07473f6146106ea57600080fd5b80637dc0d1d0146105935780637dc2cd98146105b35780637ecebe00146105c95780638fd3ab80146105f657806395d89b411461060b5780639e4b57451461062057600080fd5b806332a7ae95116101fe57806350e70d48116101b757806350e70d48146104d857806360918117146104fd578063648bf7741461051357806370a082311461053357806377e071ad146105535780637adbf9731461057357600080fd5b806332a7ae951461042e57806332bc320b1461044e5780633644e515146104635780634000aea01461047857806342966c681461049857806345c8a62b146104b857600080fd5b80631703a018116102505780631703a0181461035957806318160ddd1461038d57806319845354146103a257806323b872dd146103c45780632a0a4ed5146103e4578063313ce5671461040257600080fd5b806306fdde031461028d5780630832e470146102b8578063095ea7b3146102dc5780630a81b2de1461030c5780630c6f0e5d14610321575b600080fd5b34801561029957600080fd5b506102a26108d4565b6040516102af9190612598565b60405180910390f35b3480156102c457600080fd5b506102ce60045481565b6040519081526020016102af565b3480156102e857600080fd5b506102fc6102f7366004612268565b6109aa565b60405190151581526020016102af565b34801561031857600080fd5b506102ce6109c0565b34801561032d57600080fd5b50600754610341906001600160a01b031681565b6040516001600160a01b0390911681526020016102af565b34801561036557600080fd5b506102ce7f000000000000000000000000000000000000000000000000000000000000000081565b34801561039957600080fd5b506002546102ce565b3480156103ae57600080fd5b506103c26103bd366004612268565b610a4d565b005b3480156103d057600080fd5b506102fc6103df3660046121b9565b610af9565b3480156103f057600080fd5b506006546001600160a01b0316610341565b34801561040e57600080fd5b5060035461041c9060ff1681565b60405160ff90911681526020016102af565b34801561043a57600080fd5b506103c2610449366004612163565b610b70565b34801561045a57600080fd5b506103c2610c3d565b34801561046f57600080fd5b506102ce610c79565b34801561048457600080fd5b506102fc610493366004612294565b610cd2565b3480156104a457600080fd5b506103c26104b3366004612477565b610d72565b3480156104c457600080fd5b506103c26104d3366004612163565b610dd3565b3480156104e457600080fd5b506003546103419061010090046001600160a01b031681565b34801561050957600080fd5b506102ce60085481565b34801561051f57600080fd5b506103c261052e366004612180565b610e0c565b34801561053f57600080fd5b506102ce61054e366004612163565b610e67565b34801561055f57600080fd5b506102ce61056e366004612163565b610e8b565b34801561057f57600080fd5b506103c261058e366004612163565b610f7f565b34801561059f57600080fd5b50600654610341906001600160a01b031681565b3480156105bf57600080fd5b5062ed4e006102ce565b3480156105d557600080fd5b506102ce6105e4366004612163565b60096020526000908152604090205481565b34801561060257600080fd5b506103c261101b565b34801561061757600080fd5b506102a2611028565b34801561062c57600080fd5b50600454156102fc565b34801561064257600080fd5b506102fc610651366004612294565b6110d8565b34801561066257600080fd5b506102ce7f000000000000000000000000000000000000000000000000000000000000000081565b34801561069657600080fd5b506102fc6106a5366004612268565b611114565b3480156106b657600080fd5b506103c26106c5366004612268565b611127565b3480156106d657600080fd5b50600554610341906001600160a01b031681565b3480156106f657600080fd5b506102ce610705366004612163565b6111db565b34801561071657600080fd5b506103c2610725366004612163565b6111ec565b34801561073657600080fd5b506103417f000000000000000000000000000000000000000000000000000000000000000081565b34801561076a57600080fd5b506102a2611241565b34801561077f57600080fd5b506103c261078e3660046121fa565b6112cf565b6103c26107a1366004612374565b6114bf565b3480156107b257600080fd5b506102ce6107c1366004612180565b6001600160a01b03918216600090815260016020908152604080832093909416825291909152205490565b3480156107f857600080fd5b506103417f000000000000000000000000000000000000000000000000000000000000000081565b34801561082c57600080fd5b506103c261083b366004612477565b611681565b34801561084c57600080fd5b506103c261085b366004612163565b6116ad565b34801561086c57600080fd5b506102ce7f000000000000000000000000000000000000000000000000000000000000000081565b3480156108a057600080fd5b506102fc6108af36600461231d565b611702565b3480156108c057600080fd5b506103c26108cf366004612180565b61170e565b60606000600360019054906101000a90046001600160a01b03166001600160a01b03166306fdde036040518163ffffffff1660e01b815260040160006040518083038186803b15801561092657600080fd5b505afa15801561093a573d6000803e3d6000fd5b505050506040513d6000823e601f3d908101601f1916820160405261096291908101906123ca565b905061096e6004541590565b1561099957806040516020016109849190612503565b60405160208183030381529060405291505090565b8060405160200161098491906124d5565b60006109b7338484611756565b50600192915050565b6000600360019054906101000a90046001600160a01b03166001600160a01b0316633a98ef396040518163ffffffff1660e01b815260040160206040518083038186803b158015610a1057600080fd5b505afa158015610a24573d6000803e3d6000fd5b505050506040513d601f19601f82011682018060405250810190610a489190612490565b905090565b6006546001600160a01b03163314610a995760405162461bcd60e51b815260206004820152600a6024820152696e6f74206f7261636c6560b01b60448201526064015b60405180910390fd5b610aa16109c0565b81610aab60025490565b610ab59190612658565b1115610aeb5760405162461bcd60e51b8152602060048201526005602482015264766f74657360d81b6044820152606401610a90565b610af582826117b8565b5050565b6000610b06848484611925565b6001600160a01b0384166000908152600160209081526040808320338452909152902054600160ff1b811015610b6557610b4083826126d6565b6001600160a01b03861660009081526001602090815260408083203384529091529020555b506001949350505050565b6006546001600160a01b03163314610bbe5760405162461bcd60e51b81526020600482015260116024820152703737ba1031b630b4b6903232b632ba32b960791b6044820152606401610a90565b6040516332a7ae9560e01b81526001600160a01b0382811660048301527f000000000000000000000000000000000000000000000000000000000000000016906332a7ae95906024015b600060405180830381600087803b158015610c2257600080fd5b505af1158015610c36573d6000803e3d6000fd5b5050505050565b6005546001600160a01b03163314610c675760405162461bcd60e51b8152600401610a90906125f0565b600580546001600160a01b0319169055565b604080517f47e79534a245952e8b16893a336b85a3d9ea9fa8c573f3d803afb92a794692186020820152469181019190915230606082015260009060800160405160208183030381529060405280519060200120905090565b6000610cde8585611114565b8015610d695750604051635260769b60e11b81526001600160a01b0386169063a4c0ed3690610d17903390889088908890600401612550565b602060405180830381600087803b158015610d3157600080fd5b505af1158015610d45573d6000803e3d6000fd5b505050506040513d601f19601f82011682018060405250810190610d699190612352565b95945050505050565b610d7c3382611989565b6003546001600160a01b03610100909104166342966c68610d9d6004541590565b610db357600454610dae90846126b7565b610db5565b825b6040518263ffffffff1660e01b8152600401610c0891815260200190565b6005546001600160a01b03163314610dfd5760405162461bcd60e51b8152600401610a90906125f0565b610e09816001806119fd565b50565b336001600160a01b037f00000000000000000000000000000000000000000000000000000000000000001614610e545760405162461bcd60e51b8152600401610a9090612632565b610af58282610e6285610e67565b611925565b6001600160a01b03166000908152602081905260409020546001600160e01b031690565b600080610e9783611a61565b90508015610ea55792915050565b6000610eb16004541590565b610ebd57600454610ec0565b60015b6003549091506001600160a01b03858116610100909204161415610ee5579392505050565b6003546040516377e071ad60e01b81526001600160a01b0386811660048301528392610100900416906377e071ad9060240160206040518083038186803b158015610f2f57600080fd5b505afa158015610f43573d6000803e3d6000fd5b505050506040513d601f19601f82011682018060405250810190610f679190612490565b610f7191906126b7565b949350505050565b50919050565b6006546001600160a01b03163314610fc65760405162461bcd60e51b815260206004820152600a6024820152696e6f74206f7261636c6560b01b6044820152606401610a90565b600680546001600160a01b0319166001600160a01b0383169081179091556040519081527fc3977c9522c218453912bcab15964a7788968fbf3fe4d4e2965252c9f07055de906020015b60405180910390a150565b6110263360006117b8565b565b6060600360019054906101000a90046001600160a01b03166001600160a01b03166395d89b416040518163ffffffff1660e01b815260040160006040518083038186803b15801561107857600080fd5b505afa15801561108c573d6000803e3d6000fd5b505050506040513d6000823e601f3d908101601f191682016040526110b491908101906123ca565b6040516020016110c4919061252b565b604051602081830303815290604052905090565b60035460009061010090046001600160a01b0316331461110a5760405162461bcd60e51b8152600401610a90906125f0565b610b658585611aa7565b60006111208383611b13565b9392505050565b6003546040516323b872dd60e01b8152336004820152306024820152604481018390526101009091046001600160a01b0316906323b872dd90606401602060405180830381600087803b15801561117d57600080fd5b505af1158015611191573d6000803e3d6000fd5b505050506040513d601f19601f820116820180604052508101906111b59190612352565b6111d15760405162461bcd60e51b8152600401610a9090612610565b610af58282611aa7565b60006111e682610e67565b92915050565b336001600160a01b037f000000000000000000000000000000000000000000000000000000000000000016146112345760405162461bcd60e51b8152600401610a9090612632565b610e0981600a60016119fd565b600a805461124e9061271d565b80601f016020809104026020016040519081016040528092919081815260200182805461127a9061271d565b80156112c75780601f1061129c576101008083540402835291602001916112c7565b820191906000526020600020905b8154815290600101906020018083116112aa57829003601f168201915b505050505081565b4284101561131f5760405162461bcd60e51b815260206004820152601760248201527f5045524d49545f444541444c494e455f455850495245440000000000000000006044820152606401610a90565b6000600161132b610c79565b6001600160a01b038a811660008181526009602090815260409182902080546001810190915582517f6e71edae12b1b97f4d1f60370fef10105fa2faae0126114a169c64845d6126c98184015280840194909452938d166060840152608083018c905260a083019390935260c08083018b90528151808403909101815260e08301909152805192019190912061190160f01b6101008301526101028201929092526101228101919091526101420160408051601f198184030181528282528051602091820120600084529083018083525260ff871690820152606081018590526080810184905260a0016020604051602081039080840390855afa158015611437573d6000803e3d6000fd5b5050604051601f1901519150506001600160a01b0381161580159061146d5750876001600160a01b0316816001600160a01b0316145b6114aa5760405162461bcd60e51b815260206004820152600e60248201526d24a72b20a624a22fa9a4a3a722a960911b6044820152606401610a90565b6114b5818888611756565b5050505050505050565b600454156114df5760405162461bcd60e51b8152600401610a90906125d0565b604051634dc5e43160e01b815260048101849052336024820152604481018390526001600160a01b0382811660648301527f000000000000000000000000000000000000000000000000000000000000000060848301527f000000000000000000000000000000000000000000000000000000000000000060a48301526000917f000000000000000000000000000000000000000000000000000000000000000090911690634dc5e43190349060c4016020604051808303818588803b1580156115a857600080fd5b505af11580156115bc573d6000803e3d6000fd5b50505050506040513d601f19601f820116820180604052508101906115e191906123ad565b90506115f76005546001600160a01b0316151590565b1561165c57600554604051637b64620f60e11b81526001600160a01b0383811660048301529091169063f6c8c41e90602401600060405180830381600087803b15801561164357600080fd5b505af1158015611657573d6000803e3d6000fd5b505050505b600580546001600160a01b0319166001600160a01b0392909216919091179055505050565b6004546116a05760405162461bcd60e51b8152600401610a90906125d0565b610e093382600454611bcd565b336001600160a01b037f000000000000000000000000000000000000000000000000000000000000000016146116f55760405162461bcd60e51b8152600401610a9090612632565b610e0981600a60006119fd565b60006111208383611c97565b6005546001600160a01b031633146117385760405162461bcd60e51b8152600401610a90906125f0565b61174c8261174584610e67565b6001611bcd565b610af58183611cd7565b6001600160a01b0383811660008181526001602090815260408083209487168084529482529182902085905590518481527f8c5be1e5ebec7d5bd14f71427d1e84f3dd0314c0f7b2291e5b200ac8c7c3b92591015b60405180910390a3505050565b60006117c383610e67565b6117cd9083612658565b905060006117d96109c0565b9050808211156118135760405162461bcd60e51b8152602060048201526005602482015264766f74657360d81b6044820152606401610a90565b6005546001600160a01b0316156118575760405162461bcd60e51b815260206004820152600860248201526737379037b33332b960c11b6044820152606401610a90565b6118817f0000000000000000000000000000000000000000000000000000000000000000826126b7565b61188d612710846126b7565b10156118c45760405162461bcd60e51b815260206004820152600660248201526571756f72756d60d01b6044820152606401610a90565b6118ce8485611cd7565b604080516001600160a01b038616815260208101849052908101849052606081018290527f85e5711a70a7d2bae18e1232af474d82c98600b0e62fe079a28208520b58568e9060800160405180910390a150505050565b611930838383611ec7565b61193a8382611ed2565b6119448282611f68565b816001600160a01b0316836001600160a01b03167fddf252ad1be2c89b69c2b068fc378daa952ba7f163c4a11628f55a4df523b3ef836040516117ab91815260200190565b61199582600083611ec7565b80600260008282546119a791906126d6565b909155506119b790508282611ed2565b6040518181526000906001600160a01b038416907fddf252ad1be2c89b69c2b068fc378daa952ba7f163c4a11628f55a4df523b3ef906020015b60405180910390a35050565b6000611a0a8360e0612670565b6001600160a01b038516600090815260208190526040902054600160ff929092169190911b9150808216821483151514610c36576001600160a01b0394909416600090815260208190526040902093189092555050565b60006001600160a01b038216301415611a7c57506001919050565b6007546001600160a01b0383811691161415611a9a57505060085490565b506000919050565b919050565b611ab360008383611ec7565b8060026000828254611ac59190612658565b90915550611ad590508282611f68565b6040518181526001600160a01b038316906000907fddf252ad1be2c89b69c2b068fc378daa952ba7f163c4a11628f55a4df523b3ef906020016119f1565b6000611b1f8383612018565b611b3b5760405162461bcd60e51b8152600401610a9090612610565b611b4633600a611c97565b156109b7576040516304d301a360e41b81523360048201527f00000000000000000000000000000000000000000000000000000000000000006001600160a01b031690634d301a3090602401600060405180830381600087803b158015611bac57600080fd5b505af1158015611bc0573d6000803e3d6000fd5b5050505050600192915050565b611bd78383611989565b60035461010090046001600160a01b031663a9059cbb84611bf884866126b7565b6040516001600160e01b031960e085901b1681526001600160a01b0390921660048301526024820152604401602060405180830381600087803b158015611c3e57600080fd5b505af1158015611c52573d6000803e3d6000fd5b505050506040513d601f19601f82011682018060405250810190611c769190612352565b611c925760405162461bcd60e51b8152600401610a9090612610565b505050565b600080611ca58360e0612670565b6001600160a01b038516600090815260208190526040902054600160ff929092169190911b9081161491505092915050565b60045415611cf75760405162461bcd60e51b8152600401610a90906125d0565b6003546040516370a0823160e01b81523060048201526101009091046001600160a01b03169063a9059cbb90839083906370a082319060240160206040518083038186803b158015611d4857600080fd5b505afa158015611d5c573d6000803e3d6000fd5b505050506040513d601f19601f82011682018060405250810190611d809190612490565b6040516001600160e01b031960e085901b1681526001600160a01b0390921660048301526024820152604401602060405180830381600087803b158015611dc657600080fd5b505af1158015611dda573d6000803e3d6000fd5b505050506040513d601f19601f82011682018060405250810190611dfe9190612352565b611e1a5760405162461bcd60e51b8152600401610a9090612610565b60038054610100600160a81b0319166101006001600160a01b03851602179055600254610af5906040516370a0823160e01b81523060048201526001600160a01b038516906370a082319060240160206040518083038186803b158015611e8057600080fd5b505afa158015611e94573d6000803e3d6000fd5b505050506040513d601f19601f82011682018060405250810190611eb89190612490565b611ec29190612695565b612025565b611c9283838361208a565b6001600160a01b03821660009081526020819052604081205490611ef683836126d6565b90506001600160e01b031981166001600160e01b0319831614611f475760405162461bcd60e51b8152602060048201526009602482015268756e646572666c6f7760b81b6044820152606401610a90565b6001600160a01b039093166000908152602081905260409020929092555050565b6001600160a01b038216611fa45760405162461bcd60e51b815260206004820152600360248201526203078360ec1b6044820152606401610a90565b6001600160a01b03821660009081526020819052604081205490611fc88383612658565b90506001600160e01b031981166001600160e01b0319831614611f475760405162461bcd60e51b81526020600482015260086024820152676f766572666c6f7760c01b6044820152606401610a90565b60006109b7338484611925565b60018110156120465760405162461bcd60e51b8152600401610a90906125d0565b60048190557f6c20b91d1723b78732eba64ff11ebd7966a6e4af568a00fa4f6b72c20f58b02a6120746108d4565b61207c611028565b6040516110109291906125ab565b61209383612145565b806120a257506120a282612145565b15611c92576005546001600160a01b03161561212b5760055460405163e1a1810f60e01b81526001600160a01b0385811660048301528481166024830152604482018490529091169063e1a1810f90606401600060405180830381600087803b15801561210e57600080fd5b505af1158015612122573d6000803e3d6000fd5b50505050505050565b61213883600160006119fd565b611c9282600160006119fd565b60006111e6826001611c97565b803560ff81168114611aa257600080fd5b60006020828403121561217557600080fd5b81356111208161277e565b6000806040838503121561219357600080fd5b823561219e8161277e565b915060208301356121ae8161277e565b809150509250929050565b6000806000606084860312156121ce57600080fd5b83356121d98161277e565b925060208401356121e98161277e565b929592945050506040919091013590565b600080600080600080600060e0888a03121561221557600080fd5b87356122208161277e565b965060208801356122308161277e565b9550604088013594506060880135935061224c60808901612152565b925060a0880135915060c0880135905092959891949750929550565b6000806040838503121561227b57600080fd5b82356122868161277e565b946020939093013593505050565b600080600080606085870312156122aa57600080fd5b84356122b58161277e565b935060208501359250604085013567ffffffffffffffff808211156122d957600080fd5b818701915087601f8301126122ed57600080fd5b8135818111156122fc57600080fd5b88602082850101111561230e57600080fd5b95989497505060200194505050565b6000806040838503121561233057600080fd5b823561233b8161277e565b915061234960208401612152565b90509250929050565b60006020828403121561236457600080fd5b8151801515811461112057600080fd5b60008060006060848603121561238957600080fd5b833592506020840135915060408401356123a28161277e565b809150509250925092565b6000602082840312156123bf57600080fd5b81516111208161277e565b6000602082840312156123dc57600080fd5b815167ffffffffffffffff808211156123f457600080fd5b818401915084601f83011261240857600080fd5b81518181111561241a5761241a612768565b604051601f8201601f19908116603f0116810190838211818310171561244257612442612768565b8160405282815287602084870101111561245b57600080fd5b61246c8360208301602088016126ed565b979650505050505050565b60006020828403121561248957600080fd5b5035919050565b6000602082840312156124a257600080fd5b5051919050565b600081518084526124c18160208601602086016126ed565b601f01601f19169290920160200192915050565b600082516124e78184602087016126ed565b692028577261707065642960b01b920191825250600a01919050565b600082516125158184602087016126ed565b632053484160e01b920191825250600401919050565b6000825161253d8184602087016126ed565b605360f81b920191825250600101919050565b6001600160a01b0385168152602081018490526060604082018190528101829052818360808301376000818301608090810191909152601f909201601f191601019392505050565b60208152600061112060208301846124a9565b6040815260006125be60408301856124a9565b8281036020840152610d6981856124a9565b6020808252600690820152653330b1ba37b960d11b604082015260600190565b60208082526006908201526539b2b73232b960d11b604082015260600190565b6020808252600890820152673a3930b739b332b960c11b604082015260600190565b6020808252600c908201526b6e6f74207265636f7665727960a01b604082015260600190565b6000821982111561266b5761266b612752565b500190565b600060ff821660ff84168060ff0382111561268d5761268d612752565b019392505050565b6000826126b257634e487b7160e01b600052601260045260246000fd5b500490565b60008160001904831182151516156126d1576126d1612752565b500290565b6000828210156126e8576126e8612752565b500390565b60005b838110156127085781810151838201526020016126f0565b83811115612717576000848401525b50505050565b600181811c9082168061273157607f821691505b60208210811415610f7957634e487b7160e01b600052602260045260246000fd5b634e487b7160e01b600052601160045260246000fd5b634e487b7160e01b600052604160045260246000fd5b6001600160a01b0381168114610e0957600080fdfea2646970667358221220bff69d37a3acfc072cdd9e25f4b91dd5ef638d6fa9f7b4d800be3daf71619ecc64736f6c63430008070033",
  "devdoc": {
    "author": "Luzius Meisser, luzius@aktionariat.com This is an ERC-20 token representing share tokens of CompanyName AG that are bound to a shareholder agreement that can be found at the URL defined in the constant 'terms'.",
    "kind": "dev",
    "methods": {
      "DOMAIN_SEPARATOR()": {
        "details": "Returns the domain separator used in the encoding of the signature for {permit}, as defined by {EIP712}."
      },
      "allowance(address,address)": {
        "details": "See `IERC20.allowance`."
      },
      "approve(address,uint256)": {
        "details": "See `IERC20.approve`. Requirements: - `spender` cannot be the zero address."
      },
      "balanceOf(address)": {
        "details": "See `IERC20.balanceOf`."
      },
      "permit(address,address,uint256,uint256,uint8,bytes32,bytes32)": {
        "details": "Sets `value` as the allowance of `spender` over ``owner``'s tokens, given ``owner``'s signed approval. IMPORTANT: The same issues {IERC20-approve} has related to transaction ordering also apply here. Emits an {Approval} event. Requirements: - `spender` cannot be the zero address. - `deadline` must be a timestamp in the future. - `v`, `r` and `s` must be a valid `secp256k1` signature from `owner` over the EIP712-formatted function arguments. - the signature must use ``owner``'s current nonce (see {nonces}). For more information on the signature format, see the https://eips.ethereum.org/EIPS/eip-2612#specification[relevant EIP section]."
      },
      "totalSupply()": {
        "details": "See `IERC20.totalSupply`."
      },
      "transferFrom(address,address,uint256)": {
        "details": "See `IERC20.transferFrom`. Emits an `Approval` event indicating the updated allowance. This is not required by the EIP. See the note at the beginning of `ERC20`; Requirements: - `sender` and `recipient` cannot be the zero address. - `sender` must have a balance of at least `value`. - the caller must have allowance for `sender`'s tokens of at least `amount`."
      }
    },
    "title": "CompanyName AG Shares SHA",
    "version": 1
  },
  "userdoc": {
    "kind": "user",
    "methods": {
      "burn(uint256)": {
        "notice": "Burns both the token itself as well as the wrapped token! If you want to get out of the shareholder agreement, use unwrap after it has been deactivated by a majority vote or acquisition. Burning only works if wrapped token supports burning. Also, the exact meaning of this operation might depend on the circumstances. Burning and reussing the wrapped token does not free the sender from the legal obligations of the shareholder agreement."
      },
      "getClaimDeleter()": {
        "notice": "Let the oracle act as deleter of invalid claims. In earlier versions, this was referring to the claim deleter of the wrapped token. But that stops working after a successful acquisition as the acquisition currency most likely does not have a claim deleter."
      },
      "getCollateralRate(address)": {
        "notice": "Returns the collateral rate for the given collateral type and 0 if that type of collateral is not accepted. By default, only the token itself is accepted at a rate of 1:1. Subclasses should override this method if they want to add additional types of collateral."
      },
      "isBinding()": {
        "notice": "Indicates that the token holders are bound to the token terms and that: - Conversion back to the wrapped token (unwrap) is not allowed - A drag-along can be performed by making an according offer - They can be migrated to a new version of this contract in accordance with the terms"
      },
      "name()": {
        "notice": "Current recommended naming convention is to add the postfix \"SHA\" to the plain shares in order to indicate that this token represents shares bound to a shareholder agreement."
      },
      "unwrap(uint256)": {
        "notice": "Decrease the number of drag-along tokens. The user gets back their shares in return "
      },
      "wrap(address,uint256)": {
        "notice": "Wraps additional tokens, thereby creating more ERC20Draggable tokens. "
      }
    },
    "version": 1
  },
  "storageLayout": {
    "storage": [
      {
        "astId": 458,
        "contract": "src/shares/DraggableShares.sol:DraggableShares",
        "label": "_balances",
        "offset": 0,
        "slot": "0",
        "type": "t_mapping(t_address,t_uint256)"
      },
      {
        "astId": 464,
        "contract": "src/shares/DraggableShares.sol:DraggableShares",
        "label": "_allowances",
        "offset": 0,
        "slot": "1",
        "type": "t_mapping(t_address,t_mapping(t_address,t_uint256))"
      },
      {
        "astId": 466,
        "contract": "src/shares/DraggableShares.sol:DraggableShares",
        "label": "_totalSupply",
        "offset": 0,
        "slot": "2",
        "type": "t_uint256"
      },
      {
        "astId": 469,
        "contract": "src/shares/DraggableShares.sol:DraggableShares",
        "label": "decimals",
        "offset": 0,
        "slot": "3",
        "type": "t_uint8"
      },
      {
        "astId": 2611,
        "contract": "src/shares/DraggableShares.sol:DraggableShares",
        "label": "wrapped",
        "offset": 1,
        "slot": "3",
        "type": "t_contract(IERC20)1242"
      },
      {
        "astId": 2617,
        "contract": "src/shares/DraggableShares.sol:DraggableShares",
        "label": "unwrapConversionFactor",
        "offset": 0,
        "slot": "4",
        "type": "t_uint256"
      },
      {
        "astId": 2621,
        "contract": "src/shares/DraggableShares.sol:DraggableShares",
        "label": "offer",
        "offset": 0,
        "slot": "5",
        "type": "t_contract(IOffer)3418"
      },
      {
        "astId": 2633,
        "contract": "src/shares/DraggableShares.sol:DraggableShares",
        "label": "oracle",
        "offset": 0,
        "slot": "6",
        "type": "t_address"
      },
      {
        "astId": 7413,
        "contract": "src/shares/DraggableShares.sol:DraggableShares",
        "label": "customCollateralAddress",
        "offset": 0,
        "slot": "7",
        "type": "t_contract(IERC20)1242"
      },
      {
        "astId": 7415,
        "contract": "src/shares/DraggableShares.sol:DraggableShares",
        "label": "customCollateralRate",
        "offset": 0,
        "slot": "8",
        "type": "t_uint256"
      },
      {
        "astId": 1044,
        "contract": "src/shares/DraggableShares.sol:DraggableShares",
        "label": "nonces",
        "offset": 0,
        "slot": "9",
        "type": "t_mapping(t_address,t_uint256)"
      },
      {
        "astId": 8490,
        "contract": "src/shares/DraggableShares.sol:DraggableShares",
        "label": "terms",
        "offset": 0,
        "slot": "10",
        "type": "t_string_storage"
      }
    ],
    "types": {
      "t_address": {
        "encoding": "inplace",
        "label": "address",
        "numberOfBytes": "20"
      },
      "t_contract(IERC20)1242": {
        "encoding": "inplace",
        "label": "contract IERC20",
        "numberOfBytes": "20"
      },
      "t_contract(IOffer)3418": {
        "encoding": "inplace",
        "label": "contract IOffer",
        "numberOfBytes": "20"
      },
      "t_mapping(t_address,t_mapping(t_address,t_uint256))": {
        "encoding": "mapping",
        "key": "t_address",
        "label": "mapping(address => mapping(address => uint256))",
        "numberOfBytes": "32",
        "value": "t_mapping(t_address,t_uint256)"
      },
      "t_mapping(t_address,t_uint256)": {
        "encoding": "mapping",
        "key": "t_address",
        "label": "mapping(address => uint256)",
        "numberOfBytes": "32",
        "value": "t_uint256"
      },
      "t_string_storage": {
        "encoding": "bytes",
        "label": "string",
        "numberOfBytes": "32"
      },
      "t_uint256": {
        "encoding": "inplace",
        "label": "uint256",
        "numberOfBytes": "32"
      },
      "t_uint8": {
        "encoding": "inplace",
        "label": "uint8",
        "numberOfBytes": "1"
      }
    }
  }
}