{
  "address": "0xaf1A5a633A31f8659F06e32da7b41E207AdAd43C",
  "abi": [
    {
      "inputs": [
        {
          "internalType": "address",
          "name": "_trustedForwarder",
          "type": "address"
        },
        {
          "internalType": "contract IQuoter",
          "name": "_quoter",
          "type": "address"
        },
        {
          "internalType": "contract ISwapRouter",
          "name": "swapRouter",
          "type": "address"
        },
        {
          "internalType": "contract AggregatorV3Interface",
          "name": "_aggregatorCHFUSD",
          "type": "address"
        },
        {
          "internalType": "contract AggregatorV3Interface",
          "name": "_aggregatorETHUSD",
          "type": "address"
        }
      ],
      "stateMutability": "nonpayable",
      "type": "constructor"
    },
    {
      "inputs": [
        {
          "internalType": "address",
          "name": "target",
          "type": "address"
        }
      ],
      "name": "Address_NotTransferNorContract",
      "type": "error"
    },
    {
      "inputs": [
        {
          "internalType": "address",
          "name": "sender",
          "type": "address"
        }
      ],
      "name": "PaymentHub_InvalidSender",
      "type": "error"
    },
    {
      "inputs": [
        {
          "internalType": "uint256",
          "name": "amountBase",
          "type": "uint256"
        },
        {
          "internalType": "uint256",
          "name": "swappedAmount",
          "type": "uint256"
        }
      ],
      "name": "PaymentHub_SwapError",
      "type": "error"
    },
    {
      "inputs": [],
      "name": "PaymentHub_TransferFailed",
      "type": "error"
    },
    {
      "inputs": [
        {
          "internalType": "address",
          "name": "token",
          "type": "address"
        }
      ],
      "name": "SafeERC20FailedOperation",
      "type": "error"
    },
    {
      "anonymous": false,
      "inputs": [
        {
          "indexed": true,
          "internalType": "address",
          "name": "_oldForwarder",
          "type": "address"
        },
        {
          "indexed": true,
          "internalType": "address",
          "name": "_newForwarder",
          "type": "address"
        }
      ],
      "name": "ForwarderChanged",
      "type": "event"
    },
    {
      "inputs": [],
      "name": "VERSION",
      "outputs": [
        {
          "internalType": "uint8",
          "name": "",
          "type": "uint8"
        }
      ],
      "stateMutability": "view",
      "type": "function"
    },
    {
      "inputs": [
        {
          "internalType": "address",
          "name": "erc20In",
          "type": "address"
        }
      ],
      "name": "approveERC20",
      "outputs": [],
      "stateMutability": "nonpayable",
      "type": "function"
    },
    {
      "inputs": [
        {
          "internalType": "address",
          "name": "newForwarder",
          "type": "address"
        }
      ],
      "name": "changeForwarder",
      "outputs": [],
      "stateMutability": "nonpayable",
      "type": "function"
    },
    {
      "inputs": [],
      "name": "getLatestPriceCHFUSD",
      "outputs": [
        {
          "internalType": "uint256",
          "name": "",
          "type": "uint256"
        }
      ],
      "stateMutability": "view",
      "type": "function"
    },
    {
      "inputs": [],
      "name": "getLatestPriceETHUSD",
      "outputs": [
        {
          "internalType": "uint256",
          "name": "",
          "type": "uint256"
        }
      ],
      "stateMutability": "view",
      "type": "function"
    },
    {
      "inputs": [
        {
          "internalType": "uint256",
          "name": "amount",
          "type": "uint256"
        },
        {
          "internalType": "bytes",
          "name": "path",
          "type": "bytes"
        },
        {
          "internalType": "bool",
          "name": "exactOutput",
          "type": "bool"
        }
      ],
      "name": "getPriceERC20",
      "outputs": [
        {
          "internalType": "uint256",
          "name": "",
          "type": "uint256"
        }
      ],
      "stateMutability": "nonpayable",
      "type": "function"
    },
    {
      "inputs": [
        {
          "internalType": "uint256",
          "name": "amountInBase",
          "type": "uint256"
        },
        {
          "internalType": "bytes",
          "name": "path",
          "type": "bytes"
        }
      ],
      "name": "getPriceInERC20",
      "outputs": [
        {
          "internalType": "uint256",
          "name": "",
          "type": "uint256"
        }
      ],
      "stateMutability": "nonpayable",
      "type": "function"
    },
    {
      "inputs": [
        {
          "internalType": "uint256",
          "name": "amountInBase",
          "type": "uint256"
        },
        {
          "internalType": "contract IBrokerbot",
          "name": "brokerBot",
          "type": "address"
        }
      ],
      "name": "getPriceInEther",
      "outputs": [
        {
          "internalType": "uint256",
          "name": "",
          "type": "uint256"
        }
      ],
      "stateMutability": "nonpayable",
      "type": "function"
    },
    {
      "inputs": [
        {
          "internalType": "uint256",
          "name": "amountInBase",
          "type": "uint256"
        },
        {
          "internalType": "contract IERC20",
          "name": "base",
          "type": "address"
        }
      ],
      "name": "getPriceInEtherFromOracle",
      "outputs": [
        {
          "internalType": "uint256",
          "name": "",
          "type": "uint256"
        }
      ],
      "stateMutability": "view",
      "type": "function"
    },
    {
      "inputs": [
        {
          "internalType": "contract IBrokerbot",
          "name": "brokerbot",
          "type": "address"
        }
      ],
      "name": "hasSettingKeepEther",
      "outputs": [
        {
          "internalType": "bool",
          "name": "",
          "type": "bool"
        }
      ],
      "stateMutability": "view",
      "type": "function"
    },
    {
      "inputs": [
        {
          "internalType": "contract IERC20",
          "name": "token",
          "type": "address"
        },
        {
          "internalType": "address[]",
          "name": "recipients",
          "type": "address[]"
        },
        {
          "internalType": "uint256[]",
          "name": "amounts",
          "type": "uint256[]"
        }
      ],
      "name": "multiPay",
      "outputs": [],
      "stateMutability": "nonpayable",
      "type": "function"
    },
    {
      "inputs": [
        {
          "internalType": "contract IERC20",
          "name": "token",
          "type": "address"
        },
        {
          "internalType": "contract IBrokerbot[]",
          "name": "brokerbots",
          "type": "address[]"
        },
        {
          "internalType": "uint256[]",
          "name": "amounts",
          "type": "uint256[]"
        },
        {
          "internalType": "bytes",
          "name": "ref",
          "type": "bytes"
        }
      ],
      "name": "multiPayAndNotify",
      "outputs": [],
      "stateMutability": "nonpayable",
      "type": "function"
    },
    {
      "inputs": [
        {
          "internalType": "contract IBrokerbot",
          "name": "brokerbot",
          "type": "address"
        },
        {
          "internalType": "uint256",
          "name": "amountInBase",
          "type": "uint256"
        },
        {
          "internalType": "bytes",
          "name": "ref",
          "type": "bytes"
        }
      ],
      "name": "payAndNotify",
      "outputs": [
        {
          "internalType": "uint256",
          "name": "",
          "type": "uint256"
        }
      ],
      "stateMutability": "nonpayable",
      "type": "function"
    },
    {
      "inputs": [
        {
          "internalType": "contract IERC20",
          "name": "token",
          "type": "address"
        },
        {
          "internalType": "contract IBrokerbot",
          "name": "brokerbot",
          "type": "address"
        },
        {
          "internalType": "uint256",
          "name": "amount",
          "type": "uint256"
        },
        {
          "internalType": "bytes",
          "name": "ref",
          "type": "bytes"
        }
      ],
      "name": "payAndNotify",
      "outputs": [
        {
          "internalType": "uint256",
          "name": "",
          "type": "uint256"
        }
      ],
      "stateMutability": "nonpayable",
      "type": "function"
    },
    {
      "inputs": [
        {
          "internalType": "uint256",
          "name": "amountOut",
          "type": "uint256"
        },
        {
          "internalType": "uint256",
          "name": "amountInMaximum",
          "type": "uint256"
        },
        {
          "internalType": "address",
          "name": "erc20In",
          "type": "address"
        },
        {
          "internalType": "bytes",
          "name": "path",
          "type": "bytes"
        },
        {
          "internalType": "address",
          "name": "recipient",
          "type": "address"
        }
      ],
      "name": "payFromERC20",
      "outputs": [
        {
          "internalType": "uint256",
          "name": "amountIn",
          "type": "uint256"
        }
      ],
      "stateMutability": "nonpayable",
      "type": "function"
    },
    {
      "inputs": [
        {
          "internalType": "contract IBrokerbot",
          "name": "brokerbot",
          "type": "address"
        },
        {
          "internalType": "uint256",
          "name": "amountBase",
          "type": "uint256"
        },
        {
          "internalType": "address",
          "name": "erc20",
          "type": "address"
        },
        {
          "internalType": "uint256",
          "name": "amountInMaximum",
          "type": "uint256"
        },
        {
          "internalType": "bytes",
          "name": "path",
          "type": "bytes"
        },
        {
          "internalType": "bytes",
          "name": "ref",
          "type": "bytes"
        }
      ],
      "name": "payFromERC20AndNotify",
      "outputs": [
        {
          "internalType": "uint256",
          "name": "amountIn",
          "type": "uint256"
        },
        {
          "internalType": "uint256",
          "name": "amountOut",
          "type": "uint256"
        }
      ],
      "stateMutability": "nonpayable",
      "type": "function"
    },
    {
      "inputs": [
        {
          "internalType": "address",
          "name": "recipient",
          "type": "address"
        },
        {
          "internalType": "uint256",
          "name": "amountInBase",
          "type": "uint256"
        },
        {
          "internalType": "contract IERC20",
          "name": "base",
          "type": "address"
        }
      ],
      "name": "payFromEther",
      "outputs": [
        {
          "internalType": "uint256",
          "name": "amountIn",
          "type": "uint256"
        }
      ],
      "stateMutability": "payable",
      "type": "function"
    },
    {
      "inputs": [
        {
          "internalType": "contract IBrokerbot",
          "name": "brokerbot",
          "type": "address"
        },
        {
          "internalType": "uint256",
          "name": "amountInBase",
          "type": "uint256"
        },
        {
          "internalType": "bytes",
          "name": "ref",
          "type": "bytes"
        }
      ],
      "name": "payFromEtherAndNotify",
      "outputs": [
        {
          "internalType": "uint256",
          "name": "priceInEther",
          "type": "uint256"
        },
        {
          "internalType": "uint256",
          "name": "sharesOut",
          "type": "uint256"
        }
      ],
      "stateMutability": "payable",
      "type": "function"
    },
    {
      "inputs": [
        {
          "internalType": "contract IERC20",
          "name": "ercAddress",
          "type": "address"
        },
        {
          "internalType": "address",
          "name": "to",
          "type": "address"
        },
        {
          "internalType": "uint256",
          "name": "amount",
          "type": "uint256"
        }
      ],
      "name": "recover",
      "outputs": [],
      "stateMutability": "nonpayable",
      "type": "function"
    },
    {
      "inputs": [
        {
          "internalType": "contract IBrokerbot",
          "name": "brokerbot",
          "type": "address"
        },
        {
          "internalType": "contract IERC20",
          "name": "shares",
          "type": "address"
        },
        {
          "internalType": "uint256",
          "name": "amountToSell",
          "type": "uint256"
        },
        {
          "internalType": "bytes",
          "name": "ref",
          "type": "bytes"
        },
        {
          "components": [
            {
              "internalType": "bytes",
              "name": "path",
              "type": "bytes"
            },
            {
              "internalType": "address",
              "name": "recipient",
              "type": "address"
            },
            {
              "internalType": "uint256",
              "name": "deadline",
              "type": "uint256"
            },
            {
              "internalType": "uint256",
              "name": "amountIn",
              "type": "uint256"
            },
            {
              "internalType": "uint256",
              "name": "amountOutMinimum",
              "type": "uint256"
            }
          ],
          "internalType": "struct ISwapRouter.ExactInputParams",
          "name": "params",
          "type": "tuple"
        },
        {
          "internalType": "bool",
          "name": "unwrapWeth",
          "type": "bool"
        }
      ],
      "name": "sellSharesAndSwap",
      "outputs": [
        {
          "internalType": "uint256",
          "name": "",
          "type": "uint256"
        }
      ],
      "stateMutability": "nonpayable",
      "type": "function"
    },
    {
      "inputs": [
        {
          "internalType": "contract IBrokerbot",
          "name": "brokerbot",
          "type": "address"
        },
        {
          "internalType": "contract IERC20Permit",
          "name": "shares",
          "type": "address"
        },
        {
          "internalType": "address",
          "name": "seller",
          "type": "address"
        },
        {
          "internalType": "address",
          "name": "recipient",
          "type": "address"
        },
        {
          "internalType": "uint256",
          "name": "amountToSell",
          "type": "uint256"
        },
        {
          "internalType": "bytes",
          "name": "ref",
          "type": "bytes"
        },
        {
          "components": [
            {
              "internalType": "uint256",
              "name": "exFee",
              "type": "uint256"
            },
            {
              "internalType": "uint256",
              "name": "deadline",
              "type": "uint256"
            },
            {
              "internalType": "uint8",
              "name": "v",
              "type": "uint8"
            },
            {
              "internalType": "bytes32",
              "name": "r",
              "type": "bytes32"
            },
            {
              "internalType": "bytes32",
              "name": "s",
              "type": "bytes32"
            }
          ],
          "internalType": "struct PaymentHub.PermitInfo",
          "name": "permitInfo",
          "type": "tuple"
        }
      ],
      "name": "sellSharesWithPermit",
      "outputs": [
        {
          "internalType": "uint256",
          "name": "",
          "type": "uint256"
        }
      ],
      "stateMutability": "nonpayable",
      "type": "function"
    },
    {
      "inputs": [
        {
          "internalType": "contract IBrokerbot",
          "name": "brokerbot",
          "type": "address"
        },
        {
          "internalType": "contract IERC20Permit",
          "name": "shares",
          "type": "address"
        },
        {
          "internalType": "address",
          "name": "seller",
          "type": "address"
        },
        {
          "internalType": "uint256",
          "name": "amountToSell",
          "type": "uint256"
        },
        {
          "internalType": "bytes",
          "name": "ref",
          "type": "bytes"
        },
        {
          "components": [
            {
              "internalType": "uint256",
              "name": "exFee",
              "type": "uint256"
            },
            {
              "internalType": "uint256",
              "name": "deadline",
              "type": "uint256"
            },
            {
              "internalType": "uint8",
              "name": "v",
              "type": "uint8"
            },
            {
              "internalType": "bytes32",
              "name": "r",
              "type": "bytes32"
            },
            {
              "internalType": "bytes32",
              "name": "s",
              "type": "bytes32"
            }
          ],
          "internalType": "struct PaymentHub.PermitInfo",
          "name": "permitInfo",
          "type": "tuple"
        },
        {
          "components": [
            {
              "internalType": "bytes",
              "name": "path",
              "type": "bytes"
            },
            {
              "internalType": "address",
              "name": "recipient",
              "type": "address"
            },
            {
              "internalType": "uint256",
              "name": "deadline",
              "type": "uint256"
            },
            {
              "internalType": "uint256",
              "name": "amountIn",
              "type": "uint256"
            },
            {
              "internalType": "uint256",
              "name": "amountOutMinimum",
              "type": "uint256"
            }
          ],
          "internalType": "struct ISwapRouter.ExactInputParams",
          "name": "params",
          "type": "tuple"
        },
        {
          "internalType": "bool",
          "name": "unwrapWeth",
          "type": "bool"
        }
      ],
      "name": "sellSharesWithPermitAndSwap",
      "outputs": [
        {
          "internalType": "uint256",
          "name": "",
          "type": "uint256"
        }
      ],
      "stateMutability": "nonpayable",
      "type": "function"
    },
    {
      "inputs": [
        {
          "internalType": "address",
          "name": "to",
          "type": "address"
        }
      ],
      "name": "transferEther",
      "outputs": [],
      "stateMutability": "payable",
      "type": "function"
    },
    {
      "inputs": [],
      "name": "trustedForwarder",
      "outputs": [
        {
          "internalType": "address",
          "name": "",
          "type": "address"
        }
      ],
      "stateMutability": "view",
      "type": "function"
    },
    {
      "inputs": [
        {
          "internalType": "address",
          "name": "to",
          "type": "address"
        },
        {
          "internalType": "uint256",
          "name": "amount",
          "type": "uint256"
        }
      ],
      "name": "withdrawEther",
      "outputs": [],
      "stateMutability": "nonpayable",
      "type": "function"
    },
    {
      "stateMutability": "payable",
      "type": "receive"
    }
  ],
  "transactionHash": "0xd792237831e09e5e4a84aeed0adb1047df80a05242af818415128761e4ae808c",
  "args": [
    "0x59f0941e75f2F77cA4577E48c3c5333a3F8D277b",
    "0xb27308f9F90D607463bb33eA1BeBb41C27CE5AB6",
    "0xE592427A0AEce92De3Edee1F18E0157C05861564",
    "0x449d117117838fFA61263B61dA6301AA2a88B13A",
    "0x5f4eC3Df9cbd43714FE2740f5E3616155c5b8419"
  ],
  "numDeployments": 4,
  "solcInputHash": "ca421357317daac9803cb882a81e1683",
  "bytecode": "0x6101006040523480156200001257600080fd5b5060405162002a5a38038062002a5a833981016040819052620000359162000085565b600080546001600160a01b0319166001600160a01b0396871617905592841660805290831660a052821660c0521660e05262000105565b6001600160a01b03811681146200008257600080fd5b50565b600080600080600060a086880312156200009e57600080fd5b8551620000ab816200006c565b6020870151909550620000be816200006c565b6040870151909450620000d1816200006c565b6060870151909350620000e4816200006c565b6080870151909250620000f7816200006c565b809150509295509295909350565b60805160a05160c05160e0516128e36200017760003960006113b9015260006104b601526000818161077d015281816110fe015281816115530152611ba1015260008181610fc7015281816112de01528181611376015281816116de0152818161170d01526119c101526128e36000f3fe6080604052600436106101695760003560e01c80635daf206a116100d157806395fe863c1161008a578063d492714811610064578063d49271481461042a578063d64d4ba51461044a578063e25b37c61461046a578063ffa1ad741461048a57600080fd5b806395fe863c146103c5578063c1d8e08a146103da578063d3b3ca771461040a57600080fd5b80635daf206a146103075780636b55e991146103275780636fb0c7dc1461033a578063753f94471461034d5780637da0a8771461036d57806388e3b76a146103a557600080fd5b80631c9af2e3116101235780631c9af2e3146102475780631da5f315146102675780631ec82cb814610287578063415a2187146102a7578063522f6815146102c7578063568f3254146102e757600080fd5b8062124e3d14610175578063040c037a1461019d578063078aa964146101c557806311e8701c146101e557806317f565d2146102075780631945b7841461022757600080fd5b3661017057005b600080fd5b34801561018157600080fd5b5061018a6104b1565b6040519081526020015b60405180910390f35b6101b06101ab366004611db5565b610541565b60408051928352602083019190915201610194565b3480156101d157600080fd5b5061018a6101e0366004611eb2565b61074f565b3480156101f157600080fd5b50610205610200366004611ef8565b610766565b005b34801561021357600080fd5b5061018a610222366004611db5565b6107fe565b34801561023357600080fd5b5061018a610242366004611f15565b610877565b34801561025357600080fd5b50610205610262366004611f89565b6108e0565b34801561027357600080fd5b5061018a610282366004612023565b610963565b34801561029357600080fd5b506102056102a23660046120cc565b610b4a565b3480156102b357600080fd5b506102056102c2366004611ef8565b610b90565b3480156102d357600080fd5b506102056102e236600461210d565b610c08565b3480156102f357600080fd5b50610205610302366004612139565b610ca9565b34801561031357600080fd5b506101b06103223660046121e5565b610d1c565b610205610335366004611ef8565b610f42565b61018a610348366004612267565b610fb6565b34801561035957600080fd5b5061018a61036836600461234e565b61124a565b34801561037957600080fd5b5060005461038d906001600160a01b031681565b6040516001600160a01b039091168152602001610194565b3480156103b157600080fd5b5061018a6103c0366004612423565b6112bf565b3480156103d157600080fd5b5061018a6113b4565b3480156103e657600080fd5b506103fa6103f5366004611ef8565b611415565b6040519015158152602001610194565b34801561041657600080fd5b5061018a610425366004612472565b61148b565b34801561043657600080fd5b5061018a6104453660046124d3565b611523565b34801561045657600080fd5b5061018a61046536600461257f565b61154f565b34801561047657600080fd5b5061018a610485366004611f15565b611653565b34801561049657600080fd5b5061049f600881565b60405160ff9091168152602001610194565b6000807f00000000000000000000000000000000000000000000000000000000000000006001600160a01b031663feaf968c6040518163ffffffff1660e01b815260040160a060405180830381865afa158015610512573d6000803e3d6000fd5b505050506040513d601f19601f820116820180604052508101906105369190612610565b509195945050505050565b6000806000866001600160a01b0316635001f3b56040518163ffffffff1660e01b8152600401602060405180830381865afa158015610584573d6000803e3d6000fd5b505050506040513d601f19601f820116820180604052508101906105a89190612660565b90506105b387611415565b156106bd576105c28682610877565b9250866001600160a01b03166369365c528483338a8a8a6040518763ffffffff1660e01b81526004016105f995949392919061267d565b60206040518083038185885af1158015610617573d6000803e3d6000fd5b50505050506040513d601f19601f8201168201806040525081019061063c91906126d1565b9150348310156106b8576000336106538534612700565b604051600081818185875af1925050503d806000811461068f576040519150601f19603f3d011682016040523d82523d6000602084013e610694565b606091505b50509050806106b65760405163f82a0ab760e01b815260040160405180910390fd5b505b610745565b6106c8878783610fb6565b60405163349b2e2960e11b81529093506001600160a01b038816906369365c52906106ff90849033908b908b908b9060040161267d565b6020604051808303816000875af115801561071e573d6000803e3d6000fd5b505050506040513d601f19601f8201168201806040525081019061074291906126d1565b91505b5094509492505050565b600061075d838360016112bf565b90505b92915050565b60405163095ea7b360e01b81526001600160a01b037f000000000000000000000000000000000000000000000000000000000000000081166004830152600019602483015282169063095ea7b3906044016020604051808303816000875af11580156107d6573d6000803e3d6000fd5b505050506040513d601f19601f820116820180604052508101906107fa9190612713565b5050565b600061086e856001600160a01b0316635001f3b56040518163ffffffff1660e01b8152600401602060405180830381865afa158015610841573d6000803e3d6000fd5b505050506040513d601f19601f820116820180604052508101906108659190612660565b8686868661148b565b95945050505050565b600073b4272071ecadd69d933adcd19ca99fe80664fc07196001600160a01b038316016108ca576108a66113b4565b836108af6104b1565b6108b99190612730565b6108c39190612747565b9050610760565b6108d26113b4565b6108b96305f5e10085612730565b60005b8381101561095b576109493386868481811061090157610901612769565b90506020020160208101906109169190611ef8565b85858581811061092857610928612769565b90506020020135896001600160a01b0316611876909392919063ffffffff16565b806109538161277f565b9150506108e3565b505050505050565b6000805487906001600160a01b0316331480159061098a5750336001600160a01b03821614155b156109af576040516340b3b69360e11b81523360048201526024015b60405180910390fd5b6001600160a01b03891663d505accf89308960208801356109d660608a0160408b01612798565b6040516001600160e01b031960e088901b1681526001600160a01b0395861660048201529490931660248501526044840191909152606483015260ff166084820152606086013560a4820152608086013560c482015260e401600060405180830381600087803b158015610a4957600080fd5b505af1158015610a5d573d6000803e3d6000fd5b5050508335159050610b2b576000610a7a8b8b8b308b8b8b6118e3565b905060008b6001600160a01b0316635001f3b56040518163ffffffff1660e01b8152600401602060405180830381865afa158015610abc573d6000803e3d6000fd5b505050506040513d601f19601f82011682018060405250810190610ae09190612660565b9050610af76001600160a01b038216338735611971565b610b1789610b06873585612700565b6001600160a01b0384169190611971565b610b22853583612700565b93505050610b3d565b610b3a8a8a8a8a8a8a8a6118e3565b91505b5098975050505050505050565b6000546001600160a01b03163314610b77576040516340b3b69360e11b81523360048201526024016109a6565b610b8b6001600160a01b0384168383611971565b505050565b6000546001600160a01b03163314610bbd576040516340b3b69360e11b81523360048201526024016109a6565b600080546001600160a01b0319166001600160a01b0383169081178255604051909133917f6b1afd5bf12dcac0f44e8afd235c6681297d3124624a7a7a0d34abd84b7986259190a350565b6000546001600160a01b03163314610c35576040516340b3b69360e11b81523360048201526024016109a6565b6000826001600160a01b03168260405160006040518083038185875af1925050503d8060008114610c82576040519150601f19603f3d011682016040523d82523d6000602084013e610c87565b606091505b5050905080610b8b5760405163f82a0ab760e01b815260040160405180910390fd5b60005b85811015610d1257610cff88888884818110610cca57610cca612769565b9050602002016020810190610cdf9190611ef8565b878785818110610cf157610cf1612769565b90506020020135868661148b565b5080610d0a8161277f565b915050610cac565b5050505050505050565b6000806000896001600160a01b0316635001f3b56040518163ffffffff1660e01b8152600401602060405180830381865afa158015610d5f573d6000803e3d6000fd5b505050506040513d601f19601f82011682018060405250810190610d839190612660565b6040516370a0823160e01b81526001600160a01b038c811660048301529192506000918316906370a0823190602401602060405180830381865afa158015610dcf573d6000803e3d6000fd5b505050506040513d601f19601f82011682018060405250810190610df391906126d1565b9050610e028a898b8a8f61154f565b6040516370a0823160e01b81526001600160a01b038d811660048301529195506000918416906370a0823190602401602060405180830381865afa158015610e4e573d6000803e3d6000fd5b505050506040513d601f19601f82011682018060405250810190610e7291906126d1565b9050610e7e8282612700565b8b14610eb1578a610e8f8383612700565b604051630a720dfb60e01b8152600481019290925260248201526044016109a6565b6001600160a01b038c166369365c528433610ecc8686612700565b8b8b6040518663ffffffff1660e01b8152600401610eee95949392919061267d565b6020604051808303816000875af1158015610f0d573d6000803e3d6000fd5b505050506040513d601f19601f82011682018060405250810190610f3191906126d1565b935050505097509795505050505050565b6000816001600160a01b03163460405160006040518083038185875af1925050503d8060008114610f8f576040519150601f19603f3d011682016040523d82523d6000602084013e610f94565b606091505b50509050806107fa5760405163f82a0ab760e01b815260040160405180910390fd5b6000806040518061010001604052807f00000000000000000000000000000000000000000000000000000000000000006001600160a01b0316634aa4a4fc6040518163ffffffff1660e01b8152600401602060405180830381865afa158015611023573d6000803e3d6000fd5b505050506040513d601f19601f820116820180604052508101906110479190612660565b6001600160a01b039081168252858116602080840191909152610bb86040808501919091528983166060808601919091524260808087019190915260a08087018c90523460c0808901829052600060e0998a01528551631b67c43360e31b81528a5189166004820152968a0151881660248801529489015162ffffff166044870152928801518616606486015290870151608485015286015160a48401529085015160c483015292840151821660e48201529293507f0000000000000000000000000000000000000000000000000000000000000000929083169163db3e2198916101040160206040518083038185885af115801561114a573d6000803e3d6000fd5b50505050506040513d601f19601f8201168201806040525081019061116f91906126d1565b92503483101561124157806001600160a01b03166312210e8a6040518163ffffffff1660e01b8152600401600060405180830381600087803b1580156111b457600080fd5b505af11580156111c8573d6000803e3d6000fd5b50600092503391506111dc90508534612700565b604051600081818185875af1925050503d8060008114611218576040519150601f19603f3d011682016040523d82523d6000602084013e61121d565b606091505b505090508061123f5760405163f82a0ab760e01b815260040160405180910390fd5b505b50509392505050565b6000805488906001600160a01b031633148015906112715750336001600160a01b03821614155b15611291576040516340b3b69360e11b81523360048201526024016109a6565b6112a18b8b8b308c8c8c8c610963565b60608501526112b084846119a2565b9b9a5050505050505050505050565b6000811561135f57604051632f80bb1d60e01b81526001600160a01b037f00000000000000000000000000000000000000000000000000000000000000001690632f80bb1d90611315908690889060040161280b565b6020604051808303816000875af1158015611334573d6000803e3d6000fd5b505050506040513d601f19601f8201168201806040525081019061135891906126d1565b90506113ad565b60405163cdca175360e01b81526001600160a01b037f0000000000000000000000000000000000000000000000000000000000000000169063cdca175390611315908690889060040161280b565b9392505050565b6000807f00000000000000000000000000000000000000000000000000000000000000006001600160a01b031663feaf968c6040518163ffffffff1660e01b815260040160a060405180830381865afa158015610512573d6000803e3d6000fd5b6000600460ff16600460ff16836001600160a01b031663e06174e46040518163ffffffff1660e01b8152600401602060405180830381865afa15801561145f573d6000803e3d6000fd5b505050506040513d601f19601f8201168201806040525081019061148391906126d1565b161492915050565b60006114a26001600160a01b038716338787611876565b60405163349b2e2960e11b81526001600160a01b038616906369365c52906114d6908990339089908990899060040161267d565b6020604051808303816000875af11580156114f5573d6000803e3d6000fd5b505050506040513d601f19601f8201168201806040525081019061151991906126d1565b9695505050505050565b6000611534888833308a8a8a6118e3565b606084015261154383836119a2565b98975050505050505050565b60007f00000000000000000000000000000000000000000000000000000000000000006115876001600160a01b038616333089611876565b6040805160a0810182528581526001600160a01b0380861660208301524282840152606082018a9052608082018990529151631e51809360e31b8152909183169063f28c0498906115dc90849060040161287e565b6020604051808303816000875af11580156115fb573d6000803e3d6000fd5b505050506040513d601f19601f8201168201806040525081019061161f91906126d1565b9250868310156116485761164833611637858a612700565b6001600160a01b0389169190611971565b505095945050505050565b60006001600160a01b03821615801590611671575061167182611415565b156116dc576108c383836001600160a01b0316635001f3b56040518163ffffffff1660e01b8152600401602060405180830381865afa1580156116b8573d6000803e3d6000fd5b505050506040513d601f19601f820116820180604052508101906102429190612660565b7f00000000000000000000000000000000000000000000000000000000000000006001600160a01b03166330d07f217f00000000000000000000000000000000000000000000000000000000000000006001600160a01b0316634aa4a4fc6040518163ffffffff1660e01b8152600401602060405180830381865afa158015611769573d6000803e3d6000fd5b505050506040513d601f19601f8201168201806040525081019061178d9190612660565b846001600160a01b0316635001f3b56040518163ffffffff1660e01b8152600401602060405180830381865afa1580156117cb573d6000803e3d6000fd5b505050506040513d601f19601f820116820180604052508101906117ef9190612660565b6040516001600160e01b031960e085901b1681526001600160a01b03928316600482015291166024820152610bb86044820152606481018690526000608482015260a4016020604051808303816000875af1158015611852573d6000803e3d6000fd5b505050506040513d601f19601f820116820180604052508101906108c391906126d1565b6040516001600160a01b0384811660248301528381166044830152606482018390526118dd9186918216906323b872dd906084015b604051602081830303815290604052915060e01b6020820180516001600160e01b038381831617835250505050611b24565b50505050565b60006118fa6001600160a01b038816878a87611876565b60405163349b2e2960e11b81526001600160a01b038916906369365c529061192e908a90899089908990899060040161267d565b6020604051808303816000875af115801561194d573d6000803e3d6000fd5b505050506040513d601f19601f8201168201806040525081019061154391906126d1565b6040516001600160a01b03838116602483015260448201839052610b8b91859182169063a9059cbb906064016118ab565b60008115611b1b57602083018051309091526119bd84611b87565b91507f00000000000000000000000000000000000000000000000000000000000000006001600160a01b0316634aa4a4fc6040518163ffffffff1660e01b8152600401602060405180830381865afa158015611a1d573d6000803e3d6000fd5b505050506040513d601f19601f82011682018060405250810190611a419190612660565b6001600160a01b0316632e1a7d4d836040518263ffffffff1660e01b8152600401611a6e91815260200190565b600060405180830381600087803b158015611a8857600080fd5b505af1158015611a9c573d6000803e3d6000fd5b505050506000816001600160a01b03168360405160006040518083038185875af1925050503d8060008114611aed576040519150601f19603f3d011682016040523d82523d6000602084013e611af2565b606091505b5050905080611b145760405163f82a0ab760e01b815260040160405180910390fd5b5050610760565b61075d83611b87565b6000611b396001600160a01b03841683611c55565b90508051600014158015611b5e575080806020019051810190611b5c9190612713565b155b15610b8b57604051635274afe760e01b81526001600160a01b03841660048201526024016109a6565b60405163c04b8d5960e01b81526000906001600160a01b037f0000000000000000000000000000000000000000000000000000000000000000169063c04b8d5990611bd690859060040161287e565b6020604051808303816000875af1158015611bf5573d6000803e3d6000fd5b505050506040513d601f19601f82011682018060405250810190611c1991906126d1565b90508160800151811015611c50576080820151604051630a720dfb60e01b81526004810191909152602481018290526044016109a6565b919050565b606061075d8383600060608251600014158015611c7a57506001600160a01b0384163b155b15611ca357604051639eb1341360e01b81526001600160a01b03851660048201526024016109a6565b600080856001600160a01b03168486604051611cbf9190612891565b60006040518083038185875af1925050503d8060008114611cfc576040519150601f19603f3d011682016040523d82523d6000602084013e611d01565b606091505b50915091508115611d155791506113ad9050565b805115611d2457805160208201fd5b60405162461bcd60e51b815260206004820152600660248201526519985a5b195960d21b60448201526064016109a6565b6001600160a01b0381168114611d6a57600080fd5b50565b60008083601f840112611d7f57600080fd5b5081356001600160401b03811115611d9657600080fd5b602083019150836020828501011115611dae57600080fd5b9250929050565b60008060008060608587031215611dcb57600080fd5b8435611dd681611d55565b93506020850135925060408501356001600160401b03811115611df857600080fd5b611e0487828801611d6d565b95989497509550505050565b634e487b7160e01b600052604160045260246000fd5b600082601f830112611e3757600080fd5b81356001600160401b0380821115611e5157611e51611e10565b604051601f8301601f19908116603f01168101908282118183101715611e7957611e79611e10565b81604052838152866020858801011115611e9257600080fd5b836020870160208301376000602085830101528094505050505092915050565b60008060408385031215611ec557600080fd5b8235915060208301356001600160401b03811115611ee257600080fd5b611eee85828601611e26565b9150509250929050565b600060208284031215611f0a57600080fd5b81356113ad81611d55565b60008060408385031215611f2857600080fd5b823591506020830135611f3a81611d55565b809150509250929050565b60008083601f840112611f5757600080fd5b5081356001600160401b03811115611f6e57600080fd5b6020830191508360208260051b8501011115611dae57600080fd5b600080600080600060608688031215611fa157600080fd5b8535611fac81611d55565b945060208601356001600160401b0380821115611fc857600080fd5b611fd489838a01611f45565b90965094506040880135915080821115611fed57600080fd5b50611ffa88828901611f45565b969995985093965092949392505050565b600060a0828403121561201d57600080fd5b50919050565b600080600080600080600080610160898b03121561204057600080fd5b883561204b81611d55565b9750602089013561205b81611d55565b9650604089013561206b81611d55565b9550606089013561207b81611d55565b94506080890135935060a08901356001600160401b0381111561209d57600080fd5b6120a98b828c01611d6d565b90945092506120bd90508a60c08b0161200b565b90509295985092959890939650565b6000806000606084860312156120e157600080fd5b83356120ec81611d55565b925060208401356120fc81611d55565b929592945050506040919091013590565b6000806040838503121561212057600080fd5b823561212b81611d55565b946020939093013593505050565b60008060008060008060006080888a03121561215457600080fd5b873561215f81611d55565b965060208801356001600160401b038082111561217b57600080fd5b6121878b838c01611f45565b909850965060408a01359150808211156121a057600080fd5b6121ac8b838c01611f45565b909650945060608a01359150808211156121c557600080fd5b506121d28a828b01611d6d565b989b979a50959850939692959293505050565b600080600080600080600060c0888a03121561220057600080fd5b873561220b81611d55565b965060208801359550604088013561222281611d55565b94506060880135935060808801356001600160401b038082111561224557600080fd5b6122518b838c01611e26565b945060a08a01359150808211156121c557600080fd5b60008060006060848603121561227c57600080fd5b833561228781611d55565b925060208401359150604084013561229e81611d55565b809150509250925092565b600060a082840312156122bb57600080fd5b60405160a081016001600160401b0382821081831117156122de576122de611e10565b8160405282935084359150808211156122f657600080fd5b5061230385828601611e26565b825250602083013561231481611d55565b806020830152506040830135604082015260608301356060820152608083013560808201525092915050565b8015158114611d6a57600080fd5b60008060008060008060008060006101808a8c03121561236d57600080fd5b893561237881611d55565b985060208a013561238881611d55565b975060408a013561239881611d55565b965060608a0135955060808a01356001600160401b03808211156123bb57600080fd5b6123c78d838e01611d6d565b90975095508591506123dc8d60a08e0161200b565b94506101408c01359150808211156123f357600080fd5b506124008c828d016122a9565b9250506101608a013561241281612340565b809150509295985092959850929598565b60008060006060848603121561243857600080fd5b8335925060208401356001600160401b0381111561245557600080fd5b61246186828701611e26565b925050604084013561229e81612340565b60008060008060006080868803121561248a57600080fd5b853561249581611d55565b945060208601356124a581611d55565b93506040860135925060608601356001600160401b038111156124c757600080fd5b611ffa88828901611d6d565b600080600080600080600060c0888a0312156124ee57600080fd5b87356124f981611d55565b9650602088013561250981611d55565b95506040880135945060608801356001600160401b038082111561252c57600080fd5b6125388b838c01611d6d565b909650945060808a013591508082111561255157600080fd5b5061255e8a828b016122a9565b92505060a088013561256f81612340565b8091505092959891949750929550565b600080600080600060a0868803121561259757600080fd5b853594506020860135935060408601356125b081611d55565b925060608601356001600160401b038111156125cb57600080fd5b6125d788828901611e26565b92505060808601356125e881611d55565b809150509295509295909350565b805169ffffffffffffffffffff81168114611c5057600080fd5b600080600080600060a0868803121561262857600080fd5b612631866125f6565b9450602086015193506040860151925060608601519150612654608087016125f6565b90509295509295909350565b60006020828403121561267257600080fd5b81516113ad81611d55565b6001600160a01b038681168252851660208201526040810184905260806060820181905281018290526000828460a0840137600060a0848401015260a0601f19601f85011683010190509695505050505050565b6000602082840312156126e357600080fd5b5051919050565b634e487b7160e01b600052601160045260246000fd5b81810381811115610760576107606126ea565b60006020828403121561272557600080fd5b81516113ad81612340565b8082028115828204841417610760576107606126ea565b60008261276457634e487b7160e01b600052601260045260246000fd5b500490565b634e487b7160e01b600052603260045260246000fd5b600060018201612791576127916126ea565b5060010190565b6000602082840312156127aa57600080fd5b813560ff811681146113ad57600080fd5b60005b838110156127d65781810151838201526020016127be565b50506000910152565b600081518084526127f78160208601602086016127bb565b601f01601f19169290920160200192915050565b60408152600061281e60408301856127df565b90508260208301529392505050565b6000815160a0845261284260a08501826127df565b6020848101516001600160a01b031690860152604080850151908601526060808501519086015260809384015193909401929092525090919050565b60208152600061075d602083018461282d565b600082516128a38184602087016127bb565b919091019291505056fea26469706673582212209cb654d8fbe1b63b203db8431d84fd2e485a567a54307ea5fe4074a96e517f0764736f6c63430008150033",
  "devdoc": {
    "errors": {
      "Address_NotTransferNorContract(address)": [
        {
          "params": {
            "target": "Target address to call the function on."
          }
        }
      ],
      "PaymentHub_InvalidSender(address)": [
        {
          "params": {
            "sender": "The msg.sender of this transaction."
          }
        }
      ],
      "PaymentHub_SwapError(uint256,uint256)": [
        {
          "params": {
            "amountBase": "Required amount.",
            "swappedAmount": "Swapped amount."
          }
        }
      ],
      "SafeERC20FailedOperation(address)": [
        {
          "details": "An operation with an ERC20 token failed."
        }
      ]
    },
    "kind": "dev",
    "methods": {
      "approveERC20(address)": {
        "details": "This function needs to be called before using the PaymentHub the first time with a new ERC20 token.",
        "params": {
          "erc20In": "The erc20 addresse to approve."
        }
      },
      "changeForwarder(address)": {
        "params": {
          "newForwarder": "The new trusted forwarder."
        }
      },
      "getPriceERC20(uint256,bytes,bool)": {
        "params": {
          "amount": "The exact amount which you want get out (exactOutput) or you put in (exactInput).",
          "exactOutput": "True if exactOutput should be used or false if exactInput should be used.",
          "path": "The path of the swap (inreverse order for exactOutput)."
        }
      },
      "getPriceInERC20(uint256,bytes)": {
        "params": {
          "amountInBase": "The amount of the base currency for the exact output.",
          "path": "The encoded path of the swap from erc20 to base."
        },
        "returns": {
          "_0": "amount quoted to pay"
        }
      },
      "getPriceInEther(uint256,address)": {
        "returns": {
          "_0": "The price in wei."
        }
      },
      "payAndNotify(address,uint256,bytes)": {
        "details": "Equivalent to xchf.transferAndCall(brokerbot, amountInBase)",
        "params": {
          "amountInBase": "The amount of base currency used to buy shares.",
          "brokerbot": "The brokerbot to pay and receive the shares from.",
          "ref": "The reference data blob."
        },
        "returns": {
          "_0": "The amount of shares bought"
        }
      },
      "payFromERC20(uint256,uint256,address,bytes,address)": {
        "details": "The calling address must approve this contract to spend its ERC20 for this function to succeed. As the amount of input ERC20 is variable, the calling address will need to approve for a slightly higher or infinit amount, anticipating some variance.",
        "params": {
          "amountInMaximum": "The maximum amount of ERC20 willing to be swapped for the specified amountOut of baseCurrency.",
          "amountOut": "The desired amount of baseCurrency.",
          "erc20In": "The address of the erc20 token to pay with.",
          "path": "The encoded path of the swap from erc20 to base.",
          "recipient": "The reciving address - brokerbot."
        },
        "returns": {
          "amountIn": "The amountIn of ERC20 actually spent to receive the desired amountOut."
        }
      },
      "payFromEtherAndNotify(address,uint256,bytes)": {
        "params": {
          "amountInBase": "The amount of base currency used to buy shares.",
          "brokerbot": "The brokerbot to pay and receive the shares from.",
          "ref": "The reference data blob."
        },
        "returns": {
          "priceInEther": "The amount of Ether spent.",
          "sharesOut": "The amount of shares bought."
        }
      },
      "recover(address,address,uint256)": {
        "params": {
          "amount": "The amount of tokens to transfer.",
          "ercAddress": "The erc20 address.",
          "to": "The address to transfer tokens to."
        }
      },
      "sellSharesAndSwap(address,address,uint256,bytes,(bytes,address,uint256,uint256,uint256),bool)": {
        "params": {
          "amountToSell": "The amount of shares to sell.",
          "brokerbot": "The brokerbot of the shares to sell.",
          "params": "Information about the swap.",
          "ref": "Reference e.g. insider declaration and the type of sell.",
          "shares": "The (draggable)shares address."
        },
        "returns": {
          "_0": "The output amount of the swap to the desired token."
        }
      },
      "sellSharesWithPermit(address,address,address,address,uint256,bytes,(uint256,uint256,uint8,bytes32,bytes32))": {
        "params": {
          "amountToSell": "The amount the seller wants to sell.",
          "brokerbot": "The brokerbot to recive the shares.",
          "permitInfo": "Information about the permit.",
          "recipient": "The address of the recipient of the sell preceeds.",
          "ref": "Reference e.g. insider declaration and the type of sell.",
          "seller": "The address of the seller."
        },
        "returns": {
          "_0": "The base currency amount for the selling of the shares."
        }
      },
      "sellSharesWithPermitAndSwap(address,address,address,uint256,bytes,(uint256,uint256,uint8,bytes32,bytes32),(bytes,address,uint256,uint256,uint256),bool)": {
        "params": {
          "amountToSell": "The amount of shares to sell.",
          "brokerbot": "The brokerbot of the shares to sell.",
          "params": "Information about the swap.",
          "permitInfo": "Information about the permit.",
          "ref": "Reference e.g. insider declaration and the type of sell.",
          "seller": "The seller address.",
          "shares": "The (draggable)shares address."
        },
        "returns": {
          "_0": "The output amount of the swap to the desired token."
        }
      },
      "transferEther(address)": {
        "details": "Used with the mutlisigwallet.",
        "params": {
          "to": "The address to transfer ether to."
        }
      },
      "withdrawEther(address,uint256)": {
        "params": {
          "to": "The address to transfer ether to."
        }
      }
    },
    "version": 1
  },
  "userdoc": {
    "errors": {
      "PaymentHub_InvalidSender(address)": [
        {
          "notice": "Sender not trusted."
        }
      ],
      "PaymentHub_SwapError(uint256,uint256)": [
        {
          "notice": "swap with less base token as required."
        }
      ],
      "PaymentHub_TransferFailed()": [
        {
          "notice": "Failguard when an erc20 transfer returns false. "
        }
      ]
    },
    "kind": "user",
    "methods": {
      "approveERC20(address)": {
        "notice": "This function appoves infinite allowance for Uniswap, this is safe as the paymenthub should never hold any token (see also recover() )."
      },
      "changeForwarder(address)": {
        "notice": "Change the trusted forwarder."
      },
      "getLatestPriceCHFUSD()": {
        "notice": "Returns the latest price of chf/usd pair from chainlink with 8 decimals"
      },
      "getLatestPriceETHUSD()": {
        "notice": "Returns the latest price of eth/usd pair from chainlink with 8 decimals"
      },
      "getPriceERC20(uint256,bytes,bool)": {
        "notice": "Get price for given amount and path swapped via uniswap. "
      },
      "getPriceInERC20(uint256,bytes)": {
        "notice": "Get price in ERC20 This is the method that the Brokerbot widget should use to quote the price to the user."
      },
      "getPriceInEther(uint256,address)": {
        "notice": "Get price in Ether depding on brokerbot setting. If keep ETH is set price is from oracle. This is the method that the Brokerbot widget should use to quote the price to the user."
      },
      "getPriceInEtherFromOracle(uint256,address)": {
        "notice": "Price in ETH with 18 decimals"
      },
      "hasSettingKeepEther(address)": {
        "notice": "Checks if the brokerbot has setting enabled to keep ether"
      },
      "multiPayAndNotify(address,address[],uint256[],bytes)": {
        "notice": "Can (at least in theory) save some gas as the sender balance only is touched in one transaction."
      },
      "payAndNotify(address,uint256,bytes)": {
        "notice": "Allows to make a base currency payment from the sender to the brokerbot, given an allowance to this contract."
      },
      "payFromEther(address,uint256,address)": {
        "notice": "Convenience method to swap ether into base and pay a target address"
      },
      "payFromEtherAndNotify(address,uint256,bytes)": {
        "notice": "Pay with Ether to buy shares."
      },
      "recover(address,address,uint256)": {
        "notice": "In case tokens have been accidentally sent directly to this contract. Only Forwarder can withdraw, else a MEV bot will intercept it."
      },
      "sellSharesAndSwap(address,address,uint256,bytes,(bytes,address,uint256,uint256,uint256),bool)": {
        "notice": "With this function a user can sell shares and swap them to a desired token. The user has to approve the paymenthub before on the shares contract."
      },
      "sellSharesWithPermit(address,address,address,address,uint256,bytes,(uint256,uint256,uint8,bytes32,bytes32))": {
        "notice": "Sell shares with permit"
      },
      "sellSharesWithPermitAndSwap(address,address,address,uint256,bytes,(uint256,uint256,uint8,bytes32,bytes32),(bytes,address,uint256,uint256,uint256),bool)": {
        "notice": "With this function a user can sell shares with permit and swap them to a desired token."
      },
      "transferEther(address)": {
        "notice": "Transfer ether to a given address."
      },
      "withdrawEther(address,uint256)": {
        "notice": "Transfer ether to a given address. Only Forwarder can withdraw, else a MEV bot will intercept it."
      }
    },
    "notice": "A hub for payments. This allows tokens that do not support ERC 677 to enjoy similar functionality, namely interacting with a token-handling smart contract in one transaction, without having to set an allowance first. Instead, an allowance needs to be set only once, namely for this contract. Further, it supports automatic conversion from Ether to the payment currency through Uniswap or the reception of Ether using the current exchange rate as found in the chainlink oracle.",
    "version": 1
  },
  "storageLayout": {
    "storage": [
      {
        "astId": 3838,
        "contract": "src/brokerbot/PaymentHub.sol:PaymentHub",
        "label": "trustedForwarder",
        "offset": 0,
        "slot": "0",
        "type": "t_address"
      }
    ],
    "types": {
      "t_address": {
        "encoding": "inplace",
        "label": "address",
        "numberOfBytes": "20"
      }
    }
  }
}