{
  "address": "0xbB55b164b641cD0eC89E901884d79f920f310605",
  "abi": [
    {
      "inputs": [
        {
          "internalType": "address",
          "name": "_trustedForwarder",
          "type": "address"
        },
        {
          "internalType": "contract IQuoter",
          "name": "_quoter",
          "type": "address"
        },
        {
          "internalType": "contract ISwapRouter",
          "name": "swapRouter",
          "type": "address"
        },
        {
          "internalType": "contract AggregatorV3Interface",
          "name": "_aggregatorCHFUSD",
          "type": "address"
        },
        {
          "internalType": "contract AggregatorV3Interface",
          "name": "_aggregatorETHUSD",
          "type": "address"
        }
      ],
      "stateMutability": "nonpayable",
      "type": "constructor"
    },
    {
      "anonymous": false,
      "inputs": [
        {
          "indexed": false,
          "internalType": "address",
          "name": "_oldForwarder",
          "type": "address"
        },
        {
          "indexed": false,
          "internalType": "address",
          "name": "_newForwarder",
          "type": "address"
        }
      ],
      "name": "ForwarderChanged",
      "type": "event"
    },
    {
      "inputs": [
        {
          "internalType": "address",
          "name": "erc20In",
          "type": "address"
        }
      ],
      "name": "approveERC20",
      "outputs": [],
      "stateMutability": "nonpayable",
      "type": "function"
    },
    {
      "inputs": [
        {
          "internalType": "address",
          "name": "newForwarder",
          "type": "address"
        }
      ],
      "name": "changeForwarder",
      "outputs": [],
      "stateMutability": "nonpayable",
      "type": "function"
    },
    {
      "inputs": [],
      "name": "getLatestPriceCHFUSD",
      "outputs": [
        {
          "internalType": "uint256",
          "name": "",
          "type": "uint256"
        }
      ],
      "stateMutability": "view",
      "type": "function"
    },
    {
      "inputs": [],
      "name": "getLatestPriceETHUSD",
      "outputs": [
        {
          "internalType": "uint256",
          "name": "",
          "type": "uint256"
        }
      ],
      "stateMutability": "view",
      "type": "function"
    },
    {
      "inputs": [
        {
          "internalType": "uint256",
          "name": "amountInBase",
          "type": "uint256"
        },
        {
          "internalType": "bytes",
          "name": "path",
          "type": "bytes"
        }
      ],
      "name": "getPriceInERC20",
      "outputs": [
        {
          "internalType": "uint256",
          "name": "",
          "type": "uint256"
        }
      ],
      "stateMutability": "nonpayable",
      "type": "function"
    },
    {
      "inputs": [
        {
          "internalType": "uint256",
          "name": "amountInBase",
          "type": "uint256"
        },
        {
          "internalType": "contract IBrokerbot",
          "name": "brokerBot",
          "type": "address"
        }
      ],
      "name": "getPriceInEther",
      "outputs": [
        {
          "internalType": "uint256",
          "name": "",
          "type": "uint256"
        }
      ],
      "stateMutability": "nonpayable",
      "type": "function"
    },
    {
      "inputs": [
        {
          "internalType": "uint256",
          "name": "amountInBase",
          "type": "uint256"
        },
        {
          "internalType": "contract IERC20",
          "name": "base",
          "type": "address"
        }
      ],
      "name": "getPriceInEtherFromOracle",
      "outputs": [
        {
          "internalType": "uint256",
          "name": "",
          "type": "uint256"
        }
      ],
      "stateMutability": "view",
      "type": "function"
    },
    {
      "inputs": [
        {
          "internalType": "contract IBrokerbot",
          "name": "recipient",
          "type": "address"
        }
      ],
      "name": "hasSettingKeepEther",
      "outputs": [
        {
          "internalType": "bool",
          "name": "",
          "type": "bool"
        }
      ],
      "stateMutability": "view",
      "type": "function"
    },
    {
      "inputs": [
        {
          "internalType": "contract IERC20",
          "name": "token",
          "type": "address"
        },
        {
          "internalType": "address[]",
          "name": "recipients",
          "type": "address[]"
        },
        {
          "internalType": "uint256[]",
          "name": "amounts",
          "type": "uint256[]"
        }
      ],
      "name": "multiPay",
      "outputs": [],
      "stateMutability": "nonpayable",
      "type": "function"
    },
    {
      "inputs": [
        {
          "internalType": "contract IERC20",
          "name": "token",
          "type": "address"
        },
        {
          "internalType": "address[]",
          "name": "recipients",
          "type": "address[]"
        },
        {
          "internalType": "uint256[]",
          "name": "amounts",
          "type": "uint256[]"
        },
        {
          "internalType": "bytes",
          "name": "ref",
          "type": "bytes"
        }
      ],
      "name": "multiPayAndNotify",
      "outputs": [],
      "stateMutability": "nonpayable",
      "type": "function"
    },
    {
      "inputs": [
        {
          "internalType": "address",
          "name": "recipient",
          "type": "address"
        },
        {
          "internalType": "uint256",
          "name": "amountInBase",
          "type": "uint256"
        },
        {
          "internalType": "bytes",
          "name": "ref",
          "type": "bytes"
        }
      ],
      "name": "payAndNotify",
      "outputs": [],
      "stateMutability": "nonpayable",
      "type": "function"
    },
    {
      "inputs": [
        {
          "internalType": "contract IERC20",
          "name": "token",
          "type": "address"
        },
        {
          "internalType": "address",
          "name": "recipient",
          "type": "address"
        },
        {
          "internalType": "uint256",
          "name": "amount",
          "type": "uint256"
        },
        {
          "internalType": "bytes",
          "name": "ref",
          "type": "bytes"
        }
      ],
      "name": "payAndNotify",
      "outputs": [],
      "stateMutability": "nonpayable",
      "type": "function"
    },
    {
      "inputs": [
        {
          "internalType": "uint256",
          "name": "amountOut",
          "type": "uint256"
        },
        {
          "internalType": "uint256",
          "name": "amountInMaximum",
          "type": "uint256"
        },
        {
          "internalType": "address",
          "name": "erc20In",
          "type": "address"
        },
        {
          "internalType": "bytes",
          "name": "path",
          "type": "bytes"
        },
        {
          "internalType": "address",
          "name": "recipient",
          "type": "address"
        }
      ],
      "name": "payFromERC20",
      "outputs": [
        {
          "internalType": "uint256",
          "name": "amountIn",
          "type": "uint256"
        }
      ],
      "stateMutability": "nonpayable",
      "type": "function"
    },
    {
      "inputs": [
        {
          "internalType": "address",
          "name": "recipient",
          "type": "address"
        },
        {
          "internalType": "uint256",
          "name": "amountBase",
          "type": "uint256"
        },
        {
          "internalType": "address",
          "name": "erc20",
          "type": "address"
        },
        {
          "internalType": "uint256",
          "name": "amountInMaximum",
          "type": "uint256"
        },
        {
          "internalType": "bytes",
          "name": "path",
          "type": "bytes"
        },
        {
          "internalType": "bytes",
          "name": "ref",
          "type": "bytes"
        }
      ],
      "name": "payFromERC20AndNotify",
      "outputs": [],
      "stateMutability": "nonpayable",
      "type": "function"
    },
    {
      "inputs": [
        {
          "internalType": "address",
          "name": "recipient",
          "type": "address"
        },
        {
          "internalType": "uint256",
          "name": "amountInBase",
          "type": "uint256"
        },
        {
          "internalType": "contract IERC20",
          "name": "base",
          "type": "address"
        }
      ],
      "name": "payFromEther",
      "outputs": [],
      "stateMutability": "payable",
      "type": "function"
    },
    {
      "inputs": [
        {
          "internalType": "contract IBrokerbot",
          "name": "recipient",
          "type": "address"
        },
        {
          "internalType": "uint256",
          "name": "amountInBase",
          "type": "uint256"
        },
        {
          "internalType": "bytes",
          "name": "ref",
          "type": "bytes"
        }
      ],
      "name": "payFromEtherAndNotify",
      "outputs": [],
      "stateMutability": "payable",
      "type": "function"
    },
    {
      "inputs": [
        {
          "internalType": "contract IERC20",
          "name": "ercAddress",
          "type": "address"
        },
        {
          "internalType": "address",
          "name": "to",
          "type": "address"
        },
        {
          "internalType": "uint256",
          "name": "amount",
          "type": "uint256"
        }
      ],
      "name": "recover",
      "outputs": [],
      "stateMutability": "nonpayable",
      "type": "function"
    },
    {
      "inputs": [
        {
          "internalType": "address",
          "name": "recipient",
          "type": "address"
        },
        {
          "internalType": "address",
          "name": "seller",
          "type": "address"
        },
        {
          "internalType": "uint256",
          "name": "amountToSell",
          "type": "uint256"
        },
        {
          "internalType": "uint256",
          "name": "exFee",
          "type": "uint256"
        },
        {
          "internalType": "uint256",
          "name": "deadline",
          "type": "uint256"
        },
        {
          "internalType": "bytes",
          "name": "ref",
          "type": "bytes"
        },
        {
          "internalType": "uint8",
          "name": "v",
          "type": "uint8"
        },
        {
          "internalType": "bytes32",
          "name": "r",
          "type": "bytes32"
        },
        {
          "internalType": "bytes32",
          "name": "s",
          "type": "bytes32"
        }
      ],
      "name": "sellSharesWithPermit",
      "outputs": [],
      "stateMutability": "nonpayable",
      "type": "function"
    },
    {
      "inputs": [],
      "name": "trustedForwarder",
      "outputs": [
        {
          "internalType": "address",
          "name": "",
          "type": "address"
        }
      ],
      "stateMutability": "view",
      "type": "function"
    },
    {
      "stateMutability": "payable",
      "type": "receive"
    }
  ],
  "transactionHash": "0x083693291f25913045baa5557fc98d7fc0cb9a28b0233d1412e77f561045c7af",
  "args": [
    "0x59f0941e75f2F77cA4577E48c3c5333a3F8D277b",
    "0xb27308f9F90D607463bb33eA1BeBb41C27CE5AB6",
    "0xE592427A0AEce92De3Edee1F18E0157C05861564",
    "0x449d117117838fFA61263B61dA6301AA2a88B13A",
    "0x5f4eC3Df9cbd43714FE2740f5E3616155c5b8419"
  ],
  "numDeployments": 4,
  "solcInputHash": "651102e454f3bd52c9c08383bdab25be",
  "bytecode": "0x6101006040523480156200001257600080fd5b50604051620025b3380380620025b3833981016040819052620000359162000086565b600080546001600160a01b039096166001600160a01b0319909616959095179094556001600160601b0319606093841b811660805291831b821660a052821b811660c05291901b1660e0526200011f565b600080600080600060a086880312156200009f57600080fd5b8551620000ac8162000106565b6020870151909550620000bf8162000106565b6040870151909450620000d28162000106565b6060870151909350620000e58162000106565b6080870151909250620000f88162000106565b809150509295509295909350565b6001600160a01b03811681146200011c57600080fd5b50565b60805160601c60a05160601c60c05160601c60e05160601c61242b6200018860003960006110bd0152600061039501526000818161074c01528181610eb7015261126a0152600081816106a301528181610dc9015281816114f0015261151f015261242b6000f3fe6080604052600436106101175760003560e01c8063568f3254116100a0578063c1d8e08a11610064578063c1d8e08a146102e0578063d3b3ca7714610310578063d64d4ba514610330578063e25b37c614610350578063e347bb601461037057600080fd5b8063568f3254146102405780635daf206a146102605780636fb0c7dc146102805780637da0a8771461029357806395fe863c146102cb57600080fd5b806317f565d2116100e757806317f565d2146101a05780631945b784146101c05780631c9af2e3146101e05780631ec82cb814610200578063415a21871461022057600080fd5b8062124e3d14610123578063040c037a1461014b578063078aa9641461016057806311e8701c1461018057600080fd5b3661011e57005b600080fd5b34801561012f57600080fd5b50610138610390565b6040519081526020015b60405180910390f35b61015e610159366004611e1e565b61042f565b005b34801561016c57600080fd5b5061013861017b3660046120aa565b610689565b34801561018c57600080fd5b5061015e61019b366004611c86565b610735565b3480156101ac57600080fd5b5061015e6101bb366004611e1e565b6107de565b3480156101cc57600080fd5b506101386101db3660046120f1565b610861565b3480156101ec57600080fd5b5061015e6101fb366004611f92565b6108ca565b34801561020c57600080fd5b5061015e61021b366004611ede565b6109b0565b34801561022c57600080fd5b5061015e61023b366004611c86565b610a40565b34801561024c57600080fd5b5061015e61025b366004612004565b610ae5565b34801561026c57600080fd5b5061015e61027b366004611d7b565b610b57565b61015e61028e366004611e7a565b610db9565b34801561029f57600080fd5b506000546102b3906001600160a01b031681565b6040516001600160a01b039091168152602001610142565b3480156102d757600080fd5b506101386110b8565b3480156102ec57600080fd5b506103006102fb366004611c86565b611114565b6040519015158152602001610142565b34801561031c57600080fd5b5061015e61032b366004611f1f565b611199565b34801561033c57600080fd5b5061013861034b366004612121565b611258565b34801561035c57600080fd5b5061013861036b3660046120f1565b611456565b34801561037c57600080fd5b5061015e61038b366004611cc7565b6116b5565b6000807f00000000000000000000000000000000000000000000000000000000000000006001600160a01b031663feaf968c6040518163ffffffff1660e01b815260040160a06040518083038186803b1580156103ec57600080fd5b505afa158015610400573d6000803e3d6000fd5b505050506040513d601f19601f820116820180604052508101906104249190612199565b509195945050505050565b6000846001600160a01b0316635001f3b56040518163ffffffff1660e01b815260040160206040518083038186803b15801561046a57600080fd5b505afa15801561047e573d6000803e3d6000fd5b505050506040513d601f19601f820116820180604052508101906104a29190611caa565b90506104ad85611114565b156105ef5760006104be8583610861565b9050856001600160a01b03166369365c528284338989896040518763ffffffff1660e01b81526004016104f595949392919061227c565b6020604051808303818588803b15801561050e57600080fd5b505af1158015610522573d6000803e3d6000fd5b50505050506040513d601f19601f820116820180604052508101906105479190612091565b50348110156105e95760003361055d8334612369565b604051600081818185875af1925050503d8060008114610599576040519150601f19603f3d011682016040523d82523d6000602084013e61059e565b606091505b50509050806105e75760405162461bcd60e51b815260206004820152601060248201526f2a3930b739b332b9103330b4b632b21760811b60448201526064015b60405180910390fd5b505b50610682565b6105fa858583610db9565b60405163349b2e2960e11b81526001600160a01b038616906369365c529061062e908490339089908990899060040161227c565b602060405180830381600087803b15801561064857600080fd5b505af115801561065c573d6000803e3d6000fd5b505050506040513d601f19601f820116820180604052508101906106809190612091565b505b5050505050565b604051632f80bb1d60e01b81526000906001600160a01b037f00000000000000000000000000000000000000000000000000000000000000001690632f80bb1d906106da908590879060040161225a565b602060405180830381600087803b1580156106f457600080fd5b505af1158015610708573d6000803e3d6000fd5b505050506040513d601f19601f8201168201806040525081019061072c9190612091565b90505b92915050565b60405163095ea7b360e01b81526001600160a01b037f000000000000000000000000000000000000000000000000000000000000000081166004830152600160ff1b602483015282169063095ea7b390604401602060405180830381600087803b1580156107a257600080fd5b505af11580156107b6573d6000803e3d6000fd5b505050506040513d601f19601f820116820180604052508101906107da9190611ebc565b5050565b61085b846001600160a01b0316635001f3b56040518163ffffffff1660e01b815260040160206040518083038186803b15801561081a57600080fd5b505afa15801561082e573d6000803e3d6000fd5b505050506040513d601f19601f820116820180604052508101906108529190611caa565b85858585611199565b50505050565b60006001600160a01b03821673b4272071ecadd69d933adcd19ca99fe80664fc0814156108b4576108906110b8565b83610899610390565b6108a3919061234a565b6108ad9190612328565b905061072f565b6108bc6110b8565b6108a36305f5e1008561234a565b60005b8381101561068057856001600160a01b03166323b872dd338787858181106108f7576108f76123b1565b905060200201602081019061090c9190611c86565b86868681811061091e5761091e6123b1565b905060200201356040518463ffffffff1660e01b815260040161094393929190612236565b602060405180830381600087803b15801561095d57600080fd5b505af1158015610971573d6000803e3d6000fd5b505050506040513d601f19601f820116820180604052508101906109959190611ebc565b61099e57600080fd5b806109a881612380565b9150506108cd565b60405163a9059cbb60e01b81526001600160a01b0383811660048301526024820183905284169063a9059cbb90604401602060405180830381600087803b1580156109fa57600080fd5b505af1158015610a0e573d6000803e3d6000fd5b505050506040513d601f19601f82011682018060405250810190610a329190611ebc565b610a3b57600080fd5b505050565b6000546001600160a01b03163314610a8a5760405162461bcd60e51b815260206004820152600d60248201526c3737ba103337b93bb0b93232b960991b60448201526064016105de565b600080546001600160a01b0319166001600160a01b0383169081179091556040805133815260208101929092527f6b1afd5bf12dcac0f44e8afd235c6681297d3124624a7a7a0d34abd84b798625910160405180910390a150565b60005b85811015610b4d57610b3b88888884818110610b0657610b066123b1565b9050602002016020810190610b1b9190611c86565b878785818110610b2d57610b2d6123b1565b905060200201358686611199565b80610b4581612380565b915050610ae8565b5050505050505050565b6000876001600160a01b0316635001f3b56040518163ffffffff1660e01b815260040160206040518083038186803b158015610b9257600080fd5b505afa158015610ba6573d6000803e3d6000fd5b505050506040513d601f19601f82011682018060405250810190610bca9190611caa565b6040516370a0823160e01b81526001600160a01b038a811660048301529192506000918316906370a082319060240160206040518083038186803b158015610c1157600080fd5b505afa158015610c25573d6000803e3d6000fd5b505050506040513d601f19601f82011682018060405250810190610c499190612091565b9050610c58888789888d611258565b506040516370a0823160e01b81526001600160a01b038a81166004830152600091908416906370a082319060240160206040518083038186803b158015610c9e57600080fd5b505afa158015610cb2573d6000803e3d6000fd5b505050506040513d601f19601f82011682018060405250810190610cd69190612091565b9050610ce28282612369565b8914610d1d5760405162461bcd60e51b815260206004820152600a60248201526939bbb0b81032b93937b960b11b60448201526064016105de565b6001600160a01b038a166369365c528433610d388686612369565b89896040518663ffffffff1660e01b8152600401610d5a95949392919061227c565b602060405180830381600087803b158015610d7457600080fd5b505af1158015610d88573d6000803e3d6000fd5b505050506040513d601f19601f82011682018060405250810190610dac9190612091565b5050505050505050505050565b60006040518061010001604052807f00000000000000000000000000000000000000000000000000000000000000006001600160a01b0316634aa4a4fc6040518163ffffffff1660e01b815260040160206040518083038186803b158015610e2057600080fd5b505afa158015610e34573d6000803e3d6000fd5b505050506040513d601f19601f82011682018060405250810190610e589190611caa565b6001600160a01b03168152602001836001600160a01b03168152602001610bb862ffffff168152602001856001600160a01b0316815260200142815260200184815260200134815260200160006001600160a01b0316815250905060007f000000000000000000000000000000000000000000000000000000000000000090506000816001600160a01b031663db3e219834856040518363ffffffff1660e01b8152600401610f6b919081516001600160a01b03908116825260208084015182169083015260408084015162ffffff16908301526060808401518216908301526080808401519083015260a0838101519083015260c0808401519083015260e09283015116918101919091526101000190565b6020604051808303818588803b158015610f8457600080fd5b505af1158015610f98573d6000803e3d6000fd5b50505050506040513d601f19601f82011682018060405250810190610fbd9190612091565b90503481101561068057816001600160a01b03166312210e8a6040518163ffffffff1660e01b8152600401600060405180830381600087803b15801561100257600080fd5b505af1158015611016573d6000803e3d6000fd5b506000925033915061102a90508334612369565b604051600081818185875af1925050503d8060008114611066576040519150601f19603f3d011682016040523d82523d6000602084013e61106b565b606091505b50509050806110af5760405162461bcd60e51b815260206004820152601060248201526f2a3930b739b332b9103330b4b632b21760811b60448201526064016105de565b50505050505050565b6000807f00000000000000000000000000000000000000000000000000000000000000006001600160a01b031663feaf968c6040518163ffffffff1660e01b815260040160a06040518083038186803b1580156103ec57600080fd5b6000600460ff16600460ff16836001600160a01b031663e06174e46040518163ffffffff1660e01b815260040160206040518083038186803b15801561115957600080fd5b505afa15801561116d573d6000803e3d6000fd5b505050506040513d601f19601f820116820180604052508101906111919190612091565b161492915050565b6040516323b872dd60e01b81526001600160a01b038616906323b872dd906111c990339088908890600401612236565b602060405180830381600087803b1580156111e357600080fd5b505af11580156111f7573d6000803e3d6000fd5b505050506040513d601f19601f8201168201806040525081019061121b9190611ebc565b61122457600080fd5b60405163349b2e2960e11b81526001600160a01b038516906369365c529061062e908890339088908890889060040161227c565b6040516323b872dd60e01b81526000907f0000000000000000000000000000000000000000000000000000000000000000906001600160a01b038616906323b872dd906112ad90339030908b90600401612236565b602060405180830381600087803b1580156112c757600080fd5b505af11580156112db573d6000803e3d6000fd5b505050506040513d601f19601f820116820180604052508101906112ff9190611ebc565b506040805160a0810182528581526001600160a01b0380861660208301524282840152606082018a9052608082018990529151631e51809360e31b8152909183169063f28c0498906113559084906004016122d0565b602060405180830381600087803b15801561136f57600080fd5b505af1158015611383573d6000803e3d6000fd5b505050506040513d601f19601f820116820180604052508101906113a79190612091565b92508683101561144b576001600160a01b03861663a9059cbb336113cb868b612369565b6040516001600160e01b031960e085901b1681526001600160a01b0390921660048301526024820152604401602060405180830381600087803b15801561141157600080fd5b505af1158015611425573d6000803e3d6000fd5b505050506040513d601f19601f820116820180604052508101906114499190611ebc565b505b505095945050505050565b60006001600160a01b03821615801590611474575061147482611114565b156114ee576108ad83836001600160a01b0316635001f3b56040518163ffffffff1660e01b815260040160206040518083038186803b1580156114b657600080fd5b505afa1580156114ca573d6000803e3d6000fd5b505050506040513d601f19601f820116820180604052508101906101db9190611caa565b7f00000000000000000000000000000000000000000000000000000000000000006001600160a01b03166330d07f217f00000000000000000000000000000000000000000000000000000000000000006001600160a01b0316634aa4a4fc6040518163ffffffff1660e01b815260040160206040518083038186803b15801561157657600080fd5b505afa15801561158a573d6000803e3d6000fd5b505050506040513d601f19601f820116820180604052508101906115ae9190611caa565b846001600160a01b0316635001f3b56040518163ffffffff1660e01b815260040160206040518083038186803b1580156115e757600080fd5b505afa1580156115fb573d6000803e3d6000fd5b505050506040513d601f19601f8201168201806040525081019061161f9190611caa565b6040516001600160e01b031960e085901b1681526001600160a01b03928316600482015291166024820152610bb86044820152606481018690526000608482015260a401602060405180830381600087803b15801561167d57600080fd5b505af1158015611691573d6000803e3d6000fd5b505050506040513d601f19601f820116820180604052508101906108ad9190612091565b6000546001600160a01b03163314806116d65750336001600160a01b038a16145b6117105760405162461bcd60e51b815260206004820152600b60248201526a1b9bdd081d1c9d5cdd195960aa1b60448201526064016105de565b60008a6001600160a01b031663fc0c546a6040518163ffffffff1660e01b815260040160206040518083038186803b15801561174b57600080fd5b505afa15801561175f573d6000803e3d6000fd5b505050506040513d601f19601f820116820180604052508101906117839190611caa565b60405163d505accf60e01b81526001600160a01b038c81166004830152306024830152604482018c9052606482018a905260ff8716608483015260a4820186905260c482018590529192509082169063d505accf9060e401600060405180830381600087803b1580156117f557600080fd5b505af1158015611809573d6000803e3d6000fd5b50506040516323b872dd60e01b81526001600160a01b03841692506323b872dd915061183d908d908f908e90600401612236565b602060405180830381600087803b15801561185757600080fd5b505af115801561186b573d6000803e3d6000fd5b505050506040513d601f19601f8201168201806040525081019061188f9190611ebc565b508715611ab85760405163349b2e2960e11b81526000906001600160a01b038d16906369365c52906118cd90859030908f908d908d9060040161227c565b602060405180830381600087803b1580156118e757600080fd5b505af11580156118fb573d6000803e3d6000fd5b505050506040513d601f19601f8201168201806040525081019061191f9190612091565b905060008c6001600160a01b0316635001f3b56040518163ffffffff1660e01b815260040160206040518083038186803b15801561195c57600080fd5b505afa158015611970573d6000803e3d6000fd5b505050506040513d601f19601f820116820180604052508101906119949190611caa565b60405163a9059cbb60e01b8152336004820152602481018c90529091506001600160a01b0382169063a9059cbb90604401602060405180830381600087803b1580156119df57600080fd5b505af11580156119f3573d6000803e3d6000fd5b505050506040513d601f19601f82011682018060405250810190611a179190611ebc565b506001600160a01b03811663a9059cbb8d611a328d86612369565b6040516001600160e01b031960e085901b1681526001600160a01b0390921660048301526024820152604401602060405180830381600087803b158015611a7857600080fd5b505af1158015611a8c573d6000803e3d6000fd5b505050506040513d601f19601f82011682018060405250810190611ab09190611ebc565b505050610dac565b60405163349b2e2960e11b81526001600160a01b038c16906369365c5290611aec9084908e908e908c908c9060040161227c565b602060405180830381600087803b158015611b0657600080fd5b505af1158015611b1a573d6000803e3d6000fd5b505050506040513d601f19601f82011682018060405250810190611b3e9190612091565b505050505050505050505050565b60008083601f840112611b5e57600080fd5b50813567ffffffffffffffff811115611b7657600080fd5b6020830191508360208260051b8501011115611b9157600080fd5b9250929050565b60008083601f840112611baa57600080fd5b50813567ffffffffffffffff811115611bc257600080fd5b602083019150836020828501011115611b9157600080fd5b600082601f830112611beb57600080fd5b813567ffffffffffffffff80821115611c0657611c066123c7565b604051601f8301601f19908116603f01168101908282118183101715611c2e57611c2e6123c7565b81604052838152866020858801011115611c4757600080fd5b836020870160208301376000602085830101528094505050505092915050565b805169ffffffffffffffffffff81168114611c8157600080fd5b919050565b600060208284031215611c9857600080fd5b8135611ca3816123dd565b9392505050565b600060208284031215611cbc57600080fd5b8151611ca3816123dd565b6000806000806000806000806000806101208b8d031215611ce757600080fd5b8a35611cf2816123dd565b995060208b0135611d02816123dd565b985060408b0135975060608b0135965060808b0135955060a08b013567ffffffffffffffff811115611d3357600080fd5b611d3f8d828e01611b98565b90965094505060c08b013560ff81168114611d5957600080fd5b8093505060e08b013591506101008b013590509295989b9194979a5092959850565b600080600080600080600060c0888a031215611d9657600080fd5b8735611da1816123dd565b9650602088013595506040880135611db8816123dd565b945060608801359350608088013567ffffffffffffffff80821115611ddc57600080fd5b611de88b838c01611bda565b945060a08a0135915080821115611dfe57600080fd5b50611e0b8a828b01611b98565b989b979a50959850939692959293505050565b60008060008060608587031215611e3457600080fd5b8435611e3f816123dd565b935060208501359250604085013567ffffffffffffffff811115611e6257600080fd5b611e6e87828801611b98565b95989497509550505050565b600080600060608486031215611e8f57600080fd5b8335611e9a816123dd565b9250602084013591506040840135611eb1816123dd565b809150509250925092565b600060208284031215611ece57600080fd5b81518015158114611ca357600080fd5b600080600060608486031215611ef357600080fd5b8335611efe816123dd565b92506020840135611f0e816123dd565b929592945050506040919091013590565b600080600080600060808688031215611f3757600080fd5b8535611f42816123dd565b94506020860135611f52816123dd565b935060408601359250606086013567ffffffffffffffff811115611f7557600080fd5b611f8188828901611b98565b969995985093965092949392505050565b600080600080600060608688031215611faa57600080fd5b8535611fb5816123dd565b9450602086013567ffffffffffffffff80821115611fd257600080fd5b611fde89838a01611b4c565b90965094506040880135915080821115611ff757600080fd5b50611f8188828901611b4c565b60008060008060008060006080888a03121561201f57600080fd5b873561202a816123dd565b9650602088013567ffffffffffffffff8082111561204757600080fd5b6120538b838c01611b4c565b909850965060408a013591508082111561206c57600080fd5b6120788b838c01611b4c565b909650945060608a0135915080821115611dfe57600080fd5b6000602082840312156120a357600080fd5b5051919050565b600080604083850312156120bd57600080fd5b82359150602083013567ffffffffffffffff8111156120db57600080fd5b6120e785828601611bda565b9150509250929050565b6000806040838503121561210457600080fd5b823591506020830135612116816123dd565b809150509250929050565b600080600080600060a0868803121561213957600080fd5b85359450602086013593506040860135612152816123dd565b9250606086013567ffffffffffffffff81111561216e57600080fd5b61217a88828901611bda565b925050608086013561218b816123dd565b809150509295509295909350565b600080600080600060a086880312156121b157600080fd5b6121ba86611c67565b94506020860151935060408601519250606086015191506121dd60808701611c67565b90509295509295909350565b6000815180845260005b8181101561220f576020818501810151868301820152016121f3565b81811115612221576000602083870101525b50601f01601f19169290920160200192915050565b6001600160a01b039384168152919092166020820152604081019190915260600190565b60408152600061226d60408301856121e9565b90508260208301529392505050565b6001600160a01b038681168252851660208201526040810184905260806060820181905281018290526000828460a0840137600060a0848401015260a0601f19601f85011683010190509695505050505050565b602081526000825160a060208401526122ec60c08401826121e9565b905060018060a01b0360208501511660408401526040840151606084015260608401516080840152608084015160a08401528091505092915050565b60008261234557634e487b7160e01b600052601260045260246000fd5b500490565b60008160001904831182151516156123645761236461239b565b500290565b60008282101561237b5761237b61239b565b500390565b60006000198214156123945761239461239b565b5060010190565b634e487b7160e01b600052601160045260246000fd5b634e487b7160e01b600052603260045260246000fd5b634e487b7160e01b600052604160045260246000fd5b6001600160a01b03811681146123f257600080fd5b5056fea26469706673582212209c528e1856ffc4b54506d4b37f7a24c86dd955cc58161186376783ac371b306164736f6c63430008070033",
  "devdoc": {
    "kind": "dev",
    "methods": {
      "approveERC20(address)": {
        "details": "This function needs to be called before using the PaymentHub the first time with a new ERC20 token.",
        "params": {
          "erc20In": "The erc20 addresse to approve."
        }
      },
      "getPriceInEther(uint256,address)": {
        "returns": {
          "_0": "The price in wei."
        }
      },
      "payFromERC20(uint256,uint256,address,bytes,address)": {
        "details": "The calling address must approve this contract to spend its ERC20 for this function to succeed. As the amount of input ERC20 is variable, the calling address will need to approve for a slightly higher or infinit amount, anticipating some variance.",
        "params": {
          "amountInMaximum": "The maximum amount of ERC20 willing to be swapped for the specified amountOut of baseCurrency.",
          "amountOut": "The desired amount of baseCurrency.",
          "erc20In": "The address of the erc20 token to pay with.",
          "path": "The encoded path of the swap from erc20 to base.",
          "recipient": "The reciving address - brokerbot."
        },
        "returns": {
          "amountIn": "The amountIn of ERC20 actually spent to receive the desired amountOut."
        }
      },
      "sellSharesWithPermit(address,address,uint256,uint256,uint256,bytes,uint8,bytes32,bytes32)": {
        "params": {
          "amountToSell": "The amount the seller wants to sell.",
          "deadline": "The deadline of the permit.",
          "r": "Part of the permit signature.",
          "recipient": "The brokerbot to recive the shares.",
          "ref": "Reference of the insider declaration and the type of sell.",
          "s": "Part of the permit signature.",
          "seller": "The address of the seller.",
          "v": "Part of the permit signature."
        }
      }
    },
    "version": 1
  },
  "userdoc": {
    "kind": "user",
    "methods": {
      "approveERC20(address)": {
        "notice": "This function appoves infinite allowance for Uniswap, this is safe as the paymenthub should never hold any token (see also recover() )."
      },
      "getLatestPriceCHFUSD()": {
        "notice": "Returns the latest price of chf/usd pair from chainlink with 8 decimals"
      },
      "getLatestPriceETHUSD()": {
        "notice": "Returns the latest price of eth/usd pair from chainlink with 8 decimals"
      },
      "getPriceInEther(uint256,address)": {
        "notice": "Get price in Ether depding on brokerbot setting. If keep ETH is set price is from oracle. This is the method that the Brokerbot widget should use to quote the price to the user."
      },
      "getPriceInEtherFromOracle(uint256,address)": {
        "notice": "Price in ETH with 18 decimals"
      },
      "hasSettingKeepEther(address)": {
        "notice": "Checks if the recipient(brokerbot) has setting enabled to keep ether"
      },
      "multiPayAndNotify(address,address[],uint256[],bytes)": {
        "notice": "Can (at least in theory) save some gas as the sender balance only is touched in one transaction."
      },
      "payFromEther(address,uint256,address)": {
        "notice": "Convenience method to swap ether into base and pay a target address"
      },
      "recover(address,address,uint256)": {
        "notice": "In case tokens have been accidentally sent directly to this contract. Make sure to be fast as anyone can call this!"
      },
      "sellSharesWithPermit(address,address,uint256,uint256,uint256,bytes,uint8,bytes32,bytes32)": {
        "notice": "Sell shares with permit "
      }
    },
    "notice": "A hub for payments. This allows tokens that do not support ERC 677 to enjoy similar functionality, namely interacting with a token-handling smart contract in one transaction, without having to set an allowance first. Instead, an allowance needs to be set only once, namely for this contract. Further, it supports automatic conversion from Ether to the payment currency through Uniswap or the reception of Ether using the current exchange rate as found in the chainlink oracle.",
    "version": 1
  },
  "storageLayout": {
    "storage": [
      {
        "astId": 307,
        "contract": "src/brokerbot/PaymentHub.sol:PaymentHub",
        "label": "trustedForwarder",
        "offset": 0,
        "slot": "0",
        "type": "t_address"
      }
    ],
    "types": {
      "t_address": {
        "encoding": "inplace",
        "label": "address",
        "numberOfBytes": "20"
      }
    }
  }
}