{
  "address": "0x4fA0C488F321A1D089f7E5f951fe8C43F2064709",
  "abi": [
    {
      "inputs": [
        {
          "internalType": "address",
          "name": "_trustedForwarder",
          "type": "address"
        },
        {
          "internalType": "contract IQuoter",
          "name": "_quoter",
          "type": "address"
        },
        {
          "internalType": "contract ISwapRouter",
          "name": "swapRouter",
          "type": "address"
        },
        {
          "internalType": "contract AggregatorV3Interface",
          "name": "_aggregatorCHFUSD",
          "type": "address"
        },
        {
          "internalType": "contract AggregatorV3Interface",
          "name": "_aggregatorETHUSD",
          "type": "address"
        }
      ],
      "stateMutability": "nonpayable",
      "type": "constructor"
    },
    {
      "inputs": [
        {
          "internalType": "address",
          "name": "target",
          "type": "address"
        }
      ],
      "name": "Address_NotTransferNorContract",
      "type": "error"
    },
    {
      "inputs": [
        {
          "internalType": "address",
          "name": "sender",
          "type": "address"
        }
      ],
      "name": "PaymentHub_InvalidSender",
      "type": "error"
    },
    {
      "inputs": [
        {
          "internalType": "uint256",
          "name": "amountBase",
          "type": "uint256"
        },
        {
          "internalType": "uint256",
          "name": "swappedAmount",
          "type": "uint256"
        }
      ],
      "name": "PaymentHub_SwapError",
      "type": "error"
    },
    {
      "inputs": [],
      "name": "PaymentHub_TransferFailed",
      "type": "error"
    },
    {
      "inputs": [
        {
          "internalType": "address",
          "name": "token",
          "type": "address"
        }
      ],
      "name": "SafeERC20FailedOperation",
      "type": "error"
    },
    {
      "anonymous": false,
      "inputs": [
        {
          "indexed": true,
          "internalType": "address",
          "name": "_oldForwarder",
          "type": "address"
        },
        {
          "indexed": true,
          "internalType": "address",
          "name": "_newForwarder",
          "type": "address"
        }
      ],
      "name": "ForwarderChanged",
      "type": "event"
    },
    {
      "inputs": [],
      "name": "VERSION",
      "outputs": [
        {
          "internalType": "uint256",
          "name": "",
          "type": "uint256"
        }
      ],
      "stateMutability": "view",
      "type": "function"
    },
    {
      "inputs": [
        {
          "internalType": "address",
          "name": "erc20In",
          "type": "address"
        }
      ],
      "name": "approveERC20",
      "outputs": [],
      "stateMutability": "nonpayable",
      "type": "function"
    },
    {
      "inputs": [],
      "name": "getLatestPriceCHFUSD",
      "outputs": [
        {
          "internalType": "uint256",
          "name": "",
          "type": "uint256"
        }
      ],
      "stateMutability": "view",
      "type": "function"
    },
    {
      "inputs": [],
      "name": "getLatestPriceETHUSD",
      "outputs": [
        {
          "internalType": "uint256",
          "name": "",
          "type": "uint256"
        }
      ],
      "stateMutability": "view",
      "type": "function"
    },
    {
      "inputs": [
        {
          "internalType": "uint256",
          "name": "amount",
          "type": "uint256"
        },
        {
          "internalType": "bytes",
          "name": "path",
          "type": "bytes"
        },
        {
          "internalType": "bool",
          "name": "exactOutput",
          "type": "bool"
        }
      ],
      "name": "getPriceERC20",
      "outputs": [
        {
          "internalType": "uint256",
          "name": "",
          "type": "uint256"
        }
      ],
      "stateMutability": "nonpayable",
      "type": "function"
    },
    {
      "inputs": [
        {
          "internalType": "uint256",
          "name": "amountInBase",
          "type": "uint256"
        },
        {
          "internalType": "bytes",
          "name": "path",
          "type": "bytes"
        }
      ],
      "name": "getPriceInERC20",
      "outputs": [
        {
          "internalType": "uint256",
          "name": "",
          "type": "uint256"
        }
      ],
      "stateMutability": "nonpayable",
      "type": "function"
    },
    {
      "inputs": [
        {
          "internalType": "uint256",
          "name": "amountInBase",
          "type": "uint256"
        },
        {
          "internalType": "contract IBrokerbot",
          "name": "brokerBot",
          "type": "address"
        },
        {
          "internalType": "bytes",
          "name": "path",
          "type": "bytes"
        }
      ],
      "name": "getPriceInEther",
      "outputs": [
        {
          "internalType": "uint256",
          "name": "",
          "type": "uint256"
        }
      ],
      "stateMutability": "nonpayable",
      "type": "function"
    },
    {
      "inputs": [
        {
          "internalType": "uint256",
          "name": "amountInBase",
          "type": "uint256"
        },
        {
          "internalType": "contract IERC20",
          "name": "base",
          "type": "address"
        }
      ],
      "name": "getPriceInEtherFromOracle",
      "outputs": [
        {
          "internalType": "uint256",
          "name": "",
          "type": "uint256"
        }
      ],
      "stateMutability": "view",
      "type": "function"
    },
    {
      "inputs": [
        {
          "internalType": "contract IBrokerbot",
          "name": "brokerbot",
          "type": "address"
        }
      ],
      "name": "hasSettingKeepEther",
      "outputs": [
        {
          "internalType": "bool",
          "name": "",
          "type": "bool"
        }
      ],
      "stateMutability": "view",
      "type": "function"
    },
    {
      "inputs": [
        {
          "internalType": "contract IERC20",
          "name": "token",
          "type": "address"
        },
        {
          "internalType": "address[]",
          "name": "recipients",
          "type": "address[]"
        },
        {
          "internalType": "uint256[]",
          "name": "amounts",
          "type": "uint256[]"
        }
      ],
      "name": "multiPay",
      "outputs": [],
      "stateMutability": "nonpayable",
      "type": "function"
    },
    {
      "inputs": [
        {
          "internalType": "contract IERC20",
          "name": "token",
          "type": "address"
        },
        {
          "internalType": "contract IBrokerbot[]",
          "name": "brokerbots",
          "type": "address[]"
        },
        {
          "internalType": "uint256[]",
          "name": "amounts",
          "type": "uint256[]"
        },
        {
          "internalType": "bytes",
          "name": "ref",
          "type": "bytes"
        }
      ],
      "name": "multiPayAndNotify",
      "outputs": [],
      "stateMutability": "nonpayable",
      "type": "function"
    },
    {
      "inputs": [
        {
          "internalType": "contract IBrokerbot",
          "name": "brokerbot",
          "type": "address"
        },
        {
          "internalType": "uint256",
          "name": "amountInBase",
          "type": "uint256"
        },
        {
          "internalType": "bytes",
          "name": "ref",
          "type": "bytes"
        }
      ],
      "name": "payAndNotify",
      "outputs": [
        {
          "internalType": "uint256",
          "name": "",
          "type": "uint256"
        }
      ],
      "stateMutability": "nonpayable",
      "type": "function"
    },
    {
      "inputs": [
        {
          "internalType": "contract IERC20",
          "name": "token",
          "type": "address"
        },
        {
          "internalType": "contract IBrokerbot",
          "name": "brokerbot",
          "type": "address"
        },
        {
          "internalType": "uint256",
          "name": "amount",
          "type": "uint256"
        },
        {
          "internalType": "bytes",
          "name": "ref",
          "type": "bytes"
        }
      ],
      "name": "payAndNotify",
      "outputs": [
        {
          "internalType": "uint256",
          "name": "",
          "type": "uint256"
        }
      ],
      "stateMutability": "nonpayable",
      "type": "function"
    },
    {
      "inputs": [
        {
          "internalType": "uint256",
          "name": "amountOut",
          "type": "uint256"
        },
        {
          "internalType": "uint256",
          "name": "amountInMaximum",
          "type": "uint256"
        },
        {
          "internalType": "address",
          "name": "erc20In",
          "type": "address"
        },
        {
          "internalType": "bytes",
          "name": "path",
          "type": "bytes"
        },
        {
          "internalType": "address",
          "name": "recipient",
          "type": "address"
        }
      ],
      "name": "payFromERC20",
      "outputs": [
        {
          "internalType": "uint256",
          "name": "amountIn",
          "type": "uint256"
        }
      ],
      "stateMutability": "nonpayable",
      "type": "function"
    },
    {
      "inputs": [
        {
          "internalType": "contract IBrokerbot",
          "name": "brokerbot",
          "type": "address"
        },
        {
          "internalType": "uint256",
          "name": "amountBase",
          "type": "uint256"
        },
        {
          "internalType": "address",
          "name": "erc20",
          "type": "address"
        },
        {
          "internalType": "uint256",
          "name": "amountInMaximum",
          "type": "uint256"
        },
        {
          "internalType": "bytes",
          "name": "path",
          "type": "bytes"
        },
        {
          "internalType": "bytes",
          "name": "ref",
          "type": "bytes"
        }
      ],
      "name": "payFromERC20AndNotify",
      "outputs": [
        {
          "internalType": "uint256",
          "name": "amountIn",
          "type": "uint256"
        },
        {
          "internalType": "uint256",
          "name": "amountOut",
          "type": "uint256"
        }
      ],
      "stateMutability": "nonpayable",
      "type": "function"
    },
    {
      "inputs": [
        {
          "internalType": "address",
          "name": "recipient",
          "type": "address"
        },
        {
          "internalType": "uint256",
          "name": "amountInBase",
          "type": "uint256"
        },
        {
          "internalType": "bytes",
          "name": "path",
          "type": "bytes"
        }
      ],
      "name": "payFromEther",
      "outputs": [
        {
          "internalType": "uint256",
          "name": "amountIn",
          "type": "uint256"
        }
      ],
      "stateMutability": "payable",
      "type": "function"
    },
    {
      "inputs": [
        {
          "internalType": "contract IBrokerbot",
          "name": "brokerbot",
          "type": "address"
        },
        {
          "internalType": "uint256",
          "name": "amountBase",
          "type": "uint256"
        },
        {
          "internalType": "bytes",
          "name": "ref",
          "type": "bytes"
        },
        {
          "internalType": "bytes",
          "name": "path",
          "type": "bytes"
        }
      ],
      "name": "payFromEtherAndNotify",
      "outputs": [
        {
          "internalType": "uint256",
          "name": "priceInEther",
          "type": "uint256"
        },
        {
          "internalType": "uint256",
          "name": "sharesOut",
          "type": "uint256"
        }
      ],
      "stateMutability": "payable",
      "type": "function"
    },
    {
      "inputs": [
        {
          "internalType": "contract IERC20",
          "name": "ercAddress",
          "type": "address"
        },
        {
          "internalType": "address",
          "name": "to",
          "type": "address"
        },
        {
          "internalType": "uint256",
          "name": "amount",
          "type": "uint256"
        }
      ],
      "name": "recover",
      "outputs": [],
      "stateMutability": "nonpayable",
      "type": "function"
    },
    {
      "inputs": [
        {
          "internalType": "contract IBrokerbot",
          "name": "brokerbot",
          "type": "address"
        },
        {
          "internalType": "contract IERC20",
          "name": "shares",
          "type": "address"
        },
        {
          "internalType": "uint256",
          "name": "amountToSell",
          "type": "uint256"
        },
        {
          "internalType": "bytes",
          "name": "ref",
          "type": "bytes"
        },
        {
          "components": [
            {
              "internalType": "bytes",
              "name": "path",
              "type": "bytes"
            },
            {
              "internalType": "address",
              "name": "recipient",
              "type": "address"
            },
            {
              "internalType": "uint256",
              "name": "deadline",
              "type": "uint256"
            },
            {
              "internalType": "uint256",
              "name": "amountIn",
              "type": "uint256"
            },
            {
              "internalType": "uint256",
              "name": "amountOutMinimum",
              "type": "uint256"
            }
          ],
          "internalType": "struct ISwapRouter.ExactInputParams",
          "name": "params",
          "type": "tuple"
        },
        {
          "internalType": "bool",
          "name": "unwrapWeth",
          "type": "bool"
        }
      ],
      "name": "sellSharesAndSwap",
      "outputs": [
        {
          "internalType": "uint256",
          "name": "",
          "type": "uint256"
        }
      ],
      "stateMutability": "nonpayable",
      "type": "function"
    },
    {
      "inputs": [
        {
          "internalType": "contract IBrokerbot",
          "name": "brokerbot",
          "type": "address"
        },
        {
          "internalType": "contract IERC20Permit",
          "name": "shares",
          "type": "address"
        },
        {
          "internalType": "address",
          "name": "seller",
          "type": "address"
        },
        {
          "internalType": "address",
          "name": "recipient",
          "type": "address"
        },
        {
          "internalType": "uint256",
          "name": "amountToSell",
          "type": "uint256"
        },
        {
          "internalType": "bytes",
          "name": "ref",
          "type": "bytes"
        },
        {
          "components": [
            {
              "internalType": "uint256",
              "name": "exFee",
              "type": "uint256"
            },
            {
              "internalType": "uint256",
              "name": "deadline",
              "type": "uint256"
            },
            {
              "internalType": "uint8",
              "name": "v",
              "type": "uint8"
            },
            {
              "internalType": "bytes32",
              "name": "r",
              "type": "bytes32"
            },
            {
              "internalType": "bytes32",
              "name": "s",
              "type": "bytes32"
            }
          ],
          "internalType": "struct PaymentHub.PermitInfo",
          "name": "permitInfo",
          "type": "tuple"
        }
      ],
      "name": "sellSharesWithPermit",
      "outputs": [
        {
          "internalType": "uint256",
          "name": "",
          "type": "uint256"
        }
      ],
      "stateMutability": "nonpayable",
      "type": "function"
    },
    {
      "inputs": [
        {
          "internalType": "contract IBrokerbot",
          "name": "brokerbot",
          "type": "address"
        },
        {
          "internalType": "contract IERC20Permit",
          "name": "shares",
          "type": "address"
        },
        {
          "internalType": "address",
          "name": "seller",
          "type": "address"
        },
        {
          "internalType": "uint256",
          "name": "amountToSell",
          "type": "uint256"
        },
        {
          "internalType": "bytes",
          "name": "ref",
          "type": "bytes"
        },
        {
          "components": [
            {
              "internalType": "uint256",
              "name": "exFee",
              "type": "uint256"
            },
            {
              "internalType": "uint256",
              "name": "deadline",
              "type": "uint256"
            },
            {
              "internalType": "uint8",
              "name": "v",
              "type": "uint8"
            },
            {
              "internalType": "bytes32",
              "name": "r",
              "type": "bytes32"
            },
            {
              "internalType": "bytes32",
              "name": "s",
              "type": "bytes32"
            }
          ],
          "internalType": "struct PaymentHub.PermitInfo",
          "name": "permitInfo",
          "type": "tuple"
        },
        {
          "components": [
            {
              "internalType": "bytes",
              "name": "path",
              "type": "bytes"
            },
            {
              "internalType": "address",
              "name": "recipient",
              "type": "address"
            },
            {
              "internalType": "uint256",
              "name": "deadline",
              "type": "uint256"
            },
            {
              "internalType": "uint256",
              "name": "amountIn",
              "type": "uint256"
            },
            {
              "internalType": "uint256",
              "name": "amountOutMinimum",
              "type": "uint256"
            }
          ],
          "internalType": "struct ISwapRouter.ExactInputParams",
          "name": "params",
          "type": "tuple"
        },
        {
          "internalType": "bool",
          "name": "unwrapWeth",
          "type": "bool"
        }
      ],
      "name": "sellSharesWithPermitAndSwap",
      "outputs": [
        {
          "internalType": "uint256",
          "name": "",
          "type": "uint256"
        }
      ],
      "stateMutability": "nonpayable",
      "type": "function"
    },
    {
      "inputs": [
        {
          "internalType": "address",
          "name": "to",
          "type": "address"
        }
      ],
      "name": "transferEther",
      "outputs": [],
      "stateMutability": "payable",
      "type": "function"
    },
    {
      "inputs": [],
      "name": "trustedForwarder",
      "outputs": [
        {
          "internalType": "address",
          "name": "",
          "type": "address"
        }
      ],
      "stateMutability": "view",
      "type": "function"
    },
    {
      "inputs": [
        {
          "internalType": "address",
          "name": "to",
          "type": "address"
        },
        {
          "internalType": "uint256",
          "name": "amount",
          "type": "uint256"
        }
      ],
      "name": "withdrawEther",
      "outputs": [],
      "stateMutability": "nonpayable",
      "type": "function"
    },
    {
      "stateMutability": "payable",
      "type": "receive"
    }
  ],
  "transactionHash": "0x1f5bf3ddadfbf408422a3c1bcad1941b9b9a96a19f4493c8c76cd02e7fa3a14f",
  "args": [
    "0x59f0941e75f2F77cA4577E48c3c5333a3F8D277b",
    "0xb27308f9F90D607463bb33eA1BeBb41C27CE5AB6",
    "0xE592427A0AEce92De3Edee1F18E0157C05861564",
    "0x449d117117838fFA61263B61dA6301AA2a88B13A",
    "0x5f4eC3Df9cbd43714FE2740f5E3616155c5b8419"
  ],
  "numDeployments": 5,
  "solcInputHash": "508bee40d2ebd1878279f7d9f2dcb05f",
  "bytecode": "0x61010060405234801561001157600080fd5b506040516129b03803806129b08339810160408190526100309161007e565b600080546001600160a01b0319166001600160a01b0396871617905592841660805290831660a052821660c0521660e0526100f3565b6001600160a01b038116811461007b57600080fd5b50565b600080600080600060a0868803121561009657600080fd5b85516100a181610066565b60208701519095506100b281610066565b60408701519094506100c381610066565b60608701519093506100d481610066565b60808701519092506100e581610066565b809150509295509295909350565b60805160a05160c05160e05161286161014f60003960006112f8015260006104a401526000818161055d0152818161148b015281816115cd0152611a4f01526000818161121d015281816112b5015261186f01526128616000f3fe6080604052600436106101695760003560e01c806359c57ee2116100d157806395fe863c1161008a578063d492714811610064578063d492714814610437578063d64d4ba514610457578063fb4daeec14610477578063ffa1ad741461048a57600080fd5b806395fe863c146103d2578063c1d8e08a146103e7578063d3b3ca771461041757600080fd5b806359c57ee2146103075780635daf206a146103275780636b55e99114610347578063753f94471461035a5780637da0a8771461037a57806388e3b76a146103b257600080fd5b80631da5f315116101235780631da5f3151461023f5780631ec82cb81461025f578063415a21871461027f578063435fd56d1461029f578063522f6815146102c7578063568f3254146102e757600080fd5b8062124e3d14610175578063078aa9641461019d57806311e8701c146101bd57806317f565d2146101df5780631945b784146101ff5780631c9af2e31461021f57600080fd5b3661017057005b600080fd5b34801561018157600080fd5b5061018a61049f565b6040519081526020015b60405180910390f35b3480156101a957600080fd5b5061018a6101b8366004611ca5565b61052f565b3480156101c957600080fd5b506101dd6101d8366004611d03565b610546565b005b3480156101eb57600080fd5b5061018a6101fa366004611d68565b6105de565b34801561020b57600080fd5b5061018a61021a366004611dc3565b610659565b34801561022b57600080fd5b506101dd61023a366004611e37565b6106e9565b34801561024b57600080fd5b5061018a61025a366004611ed1565b610762565b34801561026b57600080fd5b506101dd61027a366004611f7a565b610949565b34801561028b57600080fd5b506101dd61029a366004611d03565b61098f565b6102b26102ad366004611fbb565b610a07565b60408051928352602083019190915201610194565b3480156102d357600080fd5b506101dd6102e2366004612040565b610d34565b3480156102f357600080fd5b506101dd61030236600461206c565b610dd5565b34801561031357600080fd5b5061018a610322366004612118565b610e3e565b34801561033357600080fd5b506102b261034236600461215b565b610f11565b6101dd610355366004611d03565b611115565b34801561036657600080fd5b5061018a610375366004612282565b611189565b34801561038657600080fd5b5060005461039a906001600160a01b031681565b6040516001600160a01b039091168152602001610194565b3480156103be57600080fd5b5061018a6103cd366004612357565b6111fe565b3480156103de57600080fd5b5061018a6112f3565b3480156103f357600080fd5b50610407610402366004611d03565b611354565b6040519015158152602001610194565b34801561042357600080fd5b5061018a6104323660046123b1565b6113c3565b34801561044357600080fd5b5061018a610452366004612412565b61145b565b34801561046357600080fd5b5061018a6104723660046124be565b611487565b61018a610485366004612535565b61158b565b34801561049657600080fd5b5061018a600981565b6000807f00000000000000000000000000000000000000000000000000000000000000006001600160a01b031663feaf968c6040518163ffffffff1660e01b815260040160a060405180830381865afa158015610500573d6000803e3d6000fd5b505050506040513d601f19601f8201168201806040525081019061052491906125a7565b509195945050505050565b600061053d838360016111fe565b90505b92915050565b60405163095ea7b360e01b81526001600160a01b037f000000000000000000000000000000000000000000000000000000000000000081166004830152600019602483015282169063095ea7b3906044016020604051808303816000875af11580156105b6573d6000803e3d6000fd5b505050506040513d601f19601f820116820180604052508101906105da91906125f7565b5050565b600061064e856001600160a01b0316635001f3b56040518163ffffffff1660e01b8152600401602060405180830381865afa158015610621573d6000803e3d6000fd5b505050506040513d601f19601f820116820180604052508101906106459190612614565b868686866113c3565b90505b949350505050565b60006001600160a01b03821673b4272071ecadd69d933adcd19ca99fe80664fc0814806106a257506001600160a01b03821673b58e61c3098d85632df34eecfb899a1ed80921cb145b156106d3576106af6112f3565b836106b861049f565b6106c29190612647565b6106cc919061265e565b9050610540565b6106db6112f3565b6106c26305f5e10085612647565b60005b8381101561075a576107523386868481811061070a5761070a612680565b905060200201602081019061071f9190611d03565b85858581811061073157610731612680565b90506020020135896001600160a01b0316611724909392919063ffffffff16565b6001016106ec565b505050505050565b6000805487906001600160a01b031633148015906107895750336001600160a01b03821614155b156107ae576040516340b3b69360e11b81523360048201526024015b60405180910390fd5b6001600160a01b03891663d505accf89308960208801356107d560608a0160408b01612696565b6040516001600160e01b031960e088901b1681526001600160a01b0395861660048201529490931660248501526044840191909152606483015260ff166084820152606086013560a4820152608086013560c482015260e401600060405180830381600087803b15801561084857600080fd5b505af115801561085c573d6000803e3d6000fd5b505050833515905061092a5760006108798b8b8b308b8b8b611791565b905060008b6001600160a01b0316635001f3b56040518163ffffffff1660e01b8152600401602060405180830381865afa1580156108bb573d6000803e3d6000fd5b505050506040513d601f19601f820116820180604052508101906108df9190612614565b90506108f66001600160a01b03821633873561181f565b610916896109058735856126b9565b6001600160a01b038416919061181f565b6109218535836126b9565b9350505061093c565b6109398a8a8a8a8a8a8a611791565b91505b5098975050505050505050565b6000546001600160a01b03163314610976576040516340b3b69360e11b81523360048201526024016107a5565b61098a6001600160a01b038416838361181f565b505050565b6000546001600160a01b031633146109bc576040516340b3b69360e11b81523360048201526024016107a5565b600080546001600160a01b0319166001600160a01b0383169081178255604051909133917f6b1afd5bf12dcac0f44e8afd235c6681297d3124624a7a7a0d34abd84b7986259190a350565b6000806000876001600160a01b0316635001f3b56040518163ffffffff1660e01b8152600401602060405180830381865afa158015610a4a573d6000803e3d6000fd5b505050506040513d601f19601f82011682018060405250810190610a6e9190612614565b9050610a7988611354565b15610b8357610a888782610659565b9250876001600160a01b03166369365c528483338b8b8b6040518763ffffffff1660e01b8152600401610abf9594939291906126cc565b60206040518083038185885af1158015610add573d6000803e3d6000fd5b50505050506040513d601f19601f82011682018060405250810190610b029190612720565b915034831015610b7e57600033610b1985346126b9565b604051600081818185875af1925050503d8060008114610b55576040519150601f19603f3d011682016040523d82523d6000602084013e610b5a565b606091505b5050905080610b7c5760405163f82a0ab760e01b815260040160405180910390fd5b505b610d29565b6040516370a0823160e01b81526001600160a01b038981166004830152600091908316906370a0823190602401602060405180830381865afa158015610bcd573d6000803e3d6000fd5b505050506040513d601f19601f82011682018060405250810190610bf19190612720565b9050610bfe89898761158b565b6040516370a0823160e01b81526001600160a01b038b811660048301529195506000918416906370a0823190602401602060405180830381865afa158015610c4a573d6000803e3d6000fd5b505050506040513d601f19601f82011682018060405250810190610c6e9190612720565b9050610c7a82826126b9565b8914610cad5788610c8b83836126b9565b604051630a720dfb60e01b8152600481019290925260248201526044016107a5565b60405163349b2e2960e11b81526001600160a01b038b16906369365c5290610ce190869033908e908e908e906004016126cc565b6020604051808303816000875af1158015610d00573d6000803e3d6000fd5b505050506040513d601f19601f82011682018060405250810190610d249190612720565b935050505b509550959350505050565b6000546001600160a01b03163314610d61576040516340b3b69360e11b81523360048201526024016107a5565b6000826001600160a01b03168260405160006040518083038185875af1925050503d8060008114610dae576040519150601f19603f3d011682016040523d82523d6000602084013e610db3565b606091505b505090508061098a5760405163f82a0ab760e01b815260040160405180910390fd5b60005b85811015610e3457610e2b88888884818110610df657610df6612680565b9050602002016020810190610e0b9190611d03565b878785818110610e1d57610e1d612680565b9050602002013586866113c3565b50600101610dd8565b5050505050505050565b60006001600160a01b03841615801590610e5c5750610e5c84611354565b15610ece57610ec785856001600160a01b0316635001f3b56040518163ffffffff1660e01b8152600401602060405180830381865afa158015610ea3573d6000803e3d6000fd5b505050506040513d601f19601f8201168201806040525081019061021a9190612614565b9050610651565b610ec78584848080601f016020809104026020016040519081016040528093929190818152602001838380828437600092019190915250600192506111fe915050565b6000806000896001600160a01b0316635001f3b56040518163ffffffff1660e01b8152600401602060405180830381865afa158015610f54573d6000803e3d6000fd5b505050506040513d601f19601f82011682018060405250810190610f789190612614565b6040516370a0823160e01b81526001600160a01b038c811660048301529192506000918316906370a0823190602401602060405180830381865afa158015610fc4573d6000803e3d6000fd5b505050506040513d601f19601f82011682018060405250810190610fe89190612720565b9050610ff78a898b8a8f611487565b6040516370a0823160e01b81526001600160a01b038d811660048301529195506000918416906370a0823190602401602060405180830381865afa158015611043573d6000803e3d6000fd5b505050506040513d601f19601f820116820180604052508101906110679190612720565b905061107382826126b9565b8b14611084578a610c8b83836126b9565b6001600160a01b038c166369365c52843361109f86866126b9565b8b8b6040518663ffffffff1660e01b81526004016110c19594939291906126cc565b6020604051808303816000875af11580156110e0573d6000803e3d6000fd5b505050506040513d601f19601f820116820180604052508101906111049190612720565b935050505097509795505050505050565b6000816001600160a01b03163460405160006040518083038185875af1925050503d8060008114611162576040519150601f19603f3d011682016040523d82523d6000602084013e611167565b606091505b50509050806105da5760405163f82a0ab760e01b815260040160405180910390fd5b6000805488906001600160a01b031633148015906111b05750336001600160a01b03821614155b156111d0576040516340b3b69360e11b81523360048201526024016107a5565b6111e08b8b8b308c8c8c8c610762565b60608501526111ef8484611850565b9b9a5050505050505050505050565b6000811561129e57604051632f80bb1d60e01b81526001600160a01b037f00000000000000000000000000000000000000000000000000000000000000001690632f80bb1d906112549086908890600401612789565b6020604051808303816000875af1158015611273573d6000803e3d6000fd5b505050506040513d601f19601f820116820180604052508101906112979190612720565b90506112ec565b60405163cdca175360e01b81526001600160a01b037f0000000000000000000000000000000000000000000000000000000000000000169063cdca1753906112549086908890600401612789565b9392505050565b6000807f00000000000000000000000000000000000000000000000000000000000000006001600160a01b031663feaf968c6040518163ffffffff1660e01b815260040160a060405180830381865afa158015610500573d6000803e3d6000fd5b6000600480836001600160a01b031663e06174e46040518163ffffffff1660e01b8152600401602060405180830381865afa158015611397573d6000803e3d6000fd5b505050506040513d601f19601f820116820180604052508101906113bb9190612720565b161492915050565b60006113da6001600160a01b038716338787611724565b60405163349b2e2960e11b81526001600160a01b038616906369365c529061140e90899033908990899089906004016126cc565b6020604051808303816000875af115801561142d573d6000803e3d6000fd5b505050506040513d601f19601f820116820180604052508101906114519190612720565b9695505050505050565b600061146c888833308a8a8a611791565b606084015261147b8383611850565b98975050505050505050565b60007f00000000000000000000000000000000000000000000000000000000000000006114bf6001600160a01b038616333089611724565b6040805160a0810182528581526001600160a01b0380861660208301524282840152606082018a9052608082018990529151631e51809360e31b8152909183169063f28c0498906115149084906004016127fc565b6020604051808303816000875af1158015611533573d6000803e3d6000fd5b505050506040513d601f19601f820116820180604052508101906115579190612720565b925086831015611580576115803361156f858a6126b9565b6001600160a01b038916919061181f565b505095945050505050565b6040805160a0810182528281526001600160a01b03808616602083015242828401526060820185905234608083018190529251631e51809360e31b81526000937f0000000000000000000000000000000000000000000000000000000000000000939284169163f28c049891906116069085906004016127fc565b60206040518083038185885af1158015611624573d6000803e3d6000fd5b50505050506040513d601f19601f820116820180604052508101906116499190612720565b92503483101561171b57816001600160a01b03166312210e8a6040518163ffffffff1660e01b8152600401600060405180830381600087803b15801561168e57600080fd5b505af11580156116a2573d6000803e3d6000fd5b50600092503391506116b6905085346126b9565b604051600081818185875af1925050503d80600081146116f2576040519150601f19603f3d011682016040523d82523d6000602084013e6116f7565b606091505b50509050806117195760405163f82a0ab760e01b815260040160405180910390fd5b505b50509392505050565b6040516001600160a01b03848116602483015283811660448301526064820183905261178b9186918216906323b872dd906084015b604051602081830303815290604052915060e01b6020820180516001600160e01b0383818316178352505050506119d2565b50505050565b60006117a86001600160a01b038816878a87611724565b60405163349b2e2960e11b81526001600160a01b038916906369365c52906117dc908a9089908990899089906004016126cc565b6020604051808303816000875af11580156117fb573d6000803e3d6000fd5b505050506040513d601f19601f8201168201806040525081019061147b9190612720565b6040516001600160a01b0383811660248301526044820183905261098a91859182169063a9059cbb90606401611759565b600081156119c9576020830180513090915261186b84611a35565b91507f00000000000000000000000000000000000000000000000000000000000000006001600160a01b0316634aa4a4fc6040518163ffffffff1660e01b8152600401602060405180830381865afa1580156118cb573d6000803e3d6000fd5b505050506040513d601f19601f820116820180604052508101906118ef9190612614565b6001600160a01b0316632e1a7d4d836040518263ffffffff1660e01b815260040161191c91815260200190565b600060405180830381600087803b15801561193657600080fd5b505af115801561194a573d6000803e3d6000fd5b505050506000816001600160a01b03168360405160006040518083038185875af1925050503d806000811461199b576040519150601f19603f3d011682016040523d82523d6000602084013e6119a0565b606091505b50509050806119c25760405163f82a0ab760e01b815260040160405180910390fd5b5050610540565b61053d83611a35565b60006119e76001600160a01b03841683611b03565b90508051600014158015611a0c575080806020019051810190611a0a91906125f7565b155b1561098a57604051635274afe760e01b81526001600160a01b03841660048201526024016107a5565b60405163c04b8d5960e01b81526000906001600160a01b037f0000000000000000000000000000000000000000000000000000000000000000169063c04b8d5990611a849085906004016127fc565b6020604051808303816000875af1158015611aa3573d6000803e3d6000fd5b505050506040513d601f19601f82011682018060405250810190611ac79190612720565b90508160800151811015611afe576080820151604051630a720dfb60e01b81526004810191909152602481018290526044016107a5565b919050565b606061053d8383600060608251600014158015611b2857506001600160a01b0384163b155b15611b5157604051639eb1341360e01b81526001600160a01b03851660048201526024016107a5565b600080856001600160a01b03168486604051611b6d919061280f565b60006040518083038185875af1925050503d8060008114611baa576040519150601f19603f3d011682016040523d82523d6000602084013e611baf565b606091505b50915091508115611bc35791506112ec9050565b805115611bd257805160208201fd5b60405162461bcd60e51b815260206004820152600660248201526519985a5b195960d21b60448201526064016107a5565b634e487b7160e01b600052604160045260246000fd5b600082601f830112611c2a57600080fd5b81356001600160401b0380821115611c4457611c44611c03565b604051601f8301601f19908116603f01168101908282118183101715611c6c57611c6c611c03565b81604052838152866020858801011115611c8557600080fd5b836020870160208301376000602085830101528094505050505092915050565b60008060408385031215611cb857600080fd5b8235915060208301356001600160401b03811115611cd557600080fd5b611ce185828601611c19565b9150509250929050565b6001600160a01b0381168114611d0057600080fd5b50565b600060208284031215611d1557600080fd5b81356112ec81611ceb565b60008083601f840112611d3257600080fd5b5081356001600160401b03811115611d4957600080fd5b602083019150836020828501011115611d6157600080fd5b9250929050565b60008060008060608587031215611d7e57600080fd5b8435611d8981611ceb565b93506020850135925060408501356001600160401b03811115611dab57600080fd5b611db787828801611d20565b95989497509550505050565b60008060408385031215611dd657600080fd5b823591506020830135611de881611ceb565b809150509250929050565b60008083601f840112611e0557600080fd5b5081356001600160401b03811115611e1c57600080fd5b6020830191508360208260051b8501011115611d6157600080fd5b600080600080600060608688031215611e4f57600080fd5b8535611e5a81611ceb565b945060208601356001600160401b0380821115611e7657600080fd5b611e8289838a01611df3565b90965094506040880135915080821115611e9b57600080fd5b50611ea888828901611df3565b969995985093965092949392505050565b600060a08284031215611ecb57600080fd5b50919050565b600080600080600080600080610160898b031215611eee57600080fd5b8835611ef981611ceb565b97506020890135611f0981611ceb565b96506040890135611f1981611ceb565b95506060890135611f2981611ceb565b94506080890135935060a08901356001600160401b03811115611f4b57600080fd5b611f578b828c01611d20565b9094509250611f6b90508a60c08b01611eb9565b90509295985092959890939650565b600080600060608486031215611f8f57600080fd5b8335611f9a81611ceb565b92506020840135611faa81611ceb565b929592945050506040919091013590565b600080600080600060808688031215611fd357600080fd5b8535611fde81611ceb565b94506020860135935060408601356001600160401b038082111561200157600080fd5b61200d89838a01611d20565b9095509350606088013591508082111561202657600080fd5b5061203388828901611c19565b9150509295509295909350565b6000806040838503121561205357600080fd5b823561205e81611ceb565b946020939093013593505050565b60008060008060008060006080888a03121561208757600080fd5b873561209281611ceb565b965060208801356001600160401b03808211156120ae57600080fd5b6120ba8b838c01611df3565b909850965060408a01359150808211156120d357600080fd5b6120df8b838c01611df3565b909650945060608a01359150808211156120f857600080fd5b506121058a828b01611d20565b989b979a50959850939692959293505050565b6000806000806060858703121561212e57600080fd5b84359350602085013561214081611ceb565b925060408501356001600160401b03811115611dab57600080fd5b600080600080600080600060c0888a03121561217657600080fd5b873561218181611ceb565b965060208801359550604088013561219881611ceb565b94506060880135935060808801356001600160401b03808211156121bb57600080fd5b6121c78b838c01611c19565b945060a08a01359150808211156120f857600080fd5b600060a082840312156121ef57600080fd5b60405160a081016001600160401b03828210818311171561221257612212611c03565b81604052829350843591508082111561222a57600080fd5b5061223785828601611c19565b825250602083013561224881611ceb565b806020830152506040830135604082015260608301356060820152608083013560808201525092915050565b8015158114611d0057600080fd5b60008060008060008060008060006101808a8c0312156122a157600080fd5b89356122ac81611ceb565b985060208a01356122bc81611ceb565b975060408a01356122cc81611ceb565b965060608a0135955060808a01356001600160401b03808211156122ef57600080fd5b6122fb8d838e01611d20565b90975095508591506123108d60a08e01611eb9565b94506101408c013591508082111561232757600080fd5b506123348c828d016121dd565b9250506101608a013561234681612274565b809150509295985092959850929598565b60008060006060848603121561236c57600080fd5b8335925060208401356001600160401b0381111561238957600080fd5b61239586828701611c19565b92505060408401356123a681612274565b809150509250925092565b6000806000806000608086880312156123c957600080fd5b85356123d481611ceb565b945060208601356123e481611ceb565b93506040860135925060608601356001600160401b0381111561240657600080fd5b611ea888828901611d20565b600080600080600080600060c0888a03121561242d57600080fd5b873561243881611ceb565b9650602088013561244881611ceb565b95506040880135945060608801356001600160401b038082111561246b57600080fd5b6124778b838c01611d20565b909650945060808a013591508082111561249057600080fd5b5061249d8a828b016121dd565b92505060a08801356124ae81612274565b8091505092959891949750929550565b600080600080600060a086880312156124d657600080fd5b853594506020860135935060408601356124ef81611ceb565b925060608601356001600160401b0381111561250a57600080fd5b61251688828901611c19565b925050608086013561252781611ceb565b809150509295509295909350565b60008060006060848603121561254a57600080fd5b833561255581611ceb565b92506020840135915060408401356001600160401b0381111561257757600080fd5b61258386828701611c19565b9150509250925092565b805169ffffffffffffffffffff81168114611afe57600080fd5b600080600080600060a086880312156125bf57600080fd5b6125c88661258d565b94506020860151935060408601519250606086015191506125eb6080870161258d565b90509295509295909350565b60006020828403121561260957600080fd5b81516112ec81612274565b60006020828403121561262657600080fd5b81516112ec81611ceb565b634e487b7160e01b600052601160045260246000fd5b808202811582820484141761054057610540612631565b60008261267b57634e487b7160e01b600052601260045260246000fd5b500490565b634e487b7160e01b600052603260045260246000fd5b6000602082840312156126a857600080fd5b813560ff811681146112ec57600080fd5b8181038181111561054057610540612631565b6001600160a01b038681168252851660208201526040810184905260806060820181905281018290526000828460a0840137600060a0848401015260a0601f19601f85011683010190509695505050505050565b60006020828403121561273257600080fd5b5051919050565b60005b8381101561275457818101518382015260200161273c565b50506000910152565b60008151808452612775816020860160208601612739565b601f01601f19169290920160200192915050565b60408152600061279c604083018561275d565b90508260208301529392505050565b6000815160a084526127c060a085018261275d565b6020848101516001600160a01b031690860152604080850151908601526060808501519086015260809384015193909401929092525090919050565b60208152600061053d60208301846127ab565b60008251612821818460208701612739565b919091019291505056fea26469706673582212200ab5567e117c74bef75a597d9c93f4b94adc519b838070110a61fb2923d9a29764736f6c63430008190033",
  "devdoc": {
    "errors": {
      "Address_NotTransferNorContract(address)": [
        {
          "params": {
            "target": "Target address to call the function on."
          }
        }
      ],
      "PaymentHub_InvalidSender(address)": [
        {
          "params": {
            "sender": "The msg.sender of this transaction."
          }
        }
      ],
      "PaymentHub_SwapError(uint256,uint256)": [
        {
          "params": {
            "amountBase": "Required amount.",
            "swappedAmount": "Swapped amount."
          }
        }
      ],
      "SafeERC20FailedOperation(address)": [
        {
          "details": "An operation with an ERC20 token failed."
        }
      ]
    },
    "kind": "dev",
    "methods": {
      "approveERC20(address)": {
        "details": "This function needs to be called before using the PaymentHub the first time with a new ERC20 token.",
        "params": {
          "erc20In": "The erc20 addresse to approve."
        }
      },
      "changeForwarder(address)": {
        "params": {
          "newForwarder": "The new trusted forwarder."
        }
      },
      "getPriceERC20(uint256,bytes,bool)": {
        "params": {
          "amount": "The exact amount which you want get out (exactOutput) or you put in (exactInput).",
          "exactOutput": "True if exactOutput should be used or false if exactInput should be used.",
          "path": "The path of the swap (inreverse order for exactOutput)."
        }
      },
      "getPriceInERC20(uint256,bytes)": {
        "params": {
          "amountInBase": "The amount of the base currency for the exact output.",
          "path": "The encoded path of the swap from erc20 to base."
        },
        "returns": {
          "_0": "amount quoted to pay"
        }
      },
      "getPriceInEther(uint256,address,bytes)": {
        "returns": {
          "_0": "The price in wei."
        }
      },
      "payAndNotify(address,uint256,bytes)": {
        "details": "Equivalent to xchf.transferAndCall(brokerbot, amountInBase)",
        "params": {
          "amountInBase": "The amount of base currency used to buy shares.",
          "brokerbot": "The brokerbot to pay and receive the shares from.",
          "ref": "The reference data blob."
        },
        "returns": {
          "_0": "The amount of shares bought"
        }
      },
      "payFromERC20(uint256,uint256,address,bytes,address)": {
        "details": "The calling address must approve this contract to spend its ERC20 for this function to succeed. As the amount of input ERC20 is variable, the calling address will need to approve for a slightly higher or infinit amount, anticipating some variance.",
        "params": {
          "amountInMaximum": "The maximum amount of ERC20 willing to be swapped for the specified amountOut of baseCurrency.",
          "amountOut": "The desired amount of baseCurrency.",
          "erc20In": "The address of the erc20 token to pay with.",
          "path": "The encoded path of the swap from erc20 to base.",
          "recipient": "The reciving address - brokerbot."
        },
        "returns": {
          "amountIn": "The amountIn of ERC20 actually spent to receive the desired amountOut."
        }
      },
      "payFromEtherAndNotify(address,uint256,bytes,bytes)": {
        "params": {
          "amountBase": "The amount of base currency used to buy shares.",
          "brokerbot": "The brokerbot to pay and receive the shares from.",
          "path": "The Uniswap path from ETH to base currency (uses exactOuput => reverse order)",
          "ref": "The reference data blob."
        },
        "returns": {
          "priceInEther": "The amount of Ether spent.",
          "sharesOut": "The amount of shares bought."
        }
      },
      "recover(address,address,uint256)": {
        "params": {
          "amount": "The amount of tokens to transfer.",
          "ercAddress": "The erc20 address.",
          "to": "The address to transfer tokens to."
        }
      },
      "sellSharesAndSwap(address,address,uint256,bytes,(bytes,address,uint256,uint256,uint256),bool)": {
        "params": {
          "amountToSell": "The amount of shares to sell.",
          "brokerbot": "The brokerbot of the shares to sell.",
          "params": "Information about the swap.",
          "ref": "Reference e.g. insider declaration and the type of sell.",
          "shares": "The (draggable)shares address."
        },
        "returns": {
          "_0": "The output amount of the swap to the desired token."
        }
      },
      "sellSharesWithPermit(address,address,address,address,uint256,bytes,(uint256,uint256,uint8,bytes32,bytes32))": {
        "params": {
          "amountToSell": "The amount the seller wants to sell.",
          "brokerbot": "The brokerbot to recive the shares.",
          "permitInfo": "Information about the permit.",
          "recipient": "The address of the recipient of the sell preceeds.",
          "ref": "Reference e.g. insider declaration and the type of sell.",
          "seller": "The address of the seller."
        },
        "returns": {
          "_0": "The base currency amount for the selling of the shares."
        }
      },
      "sellSharesWithPermitAndSwap(address,address,address,uint256,bytes,(uint256,uint256,uint8,bytes32,bytes32),(bytes,address,uint256,uint256,uint256),bool)": {
        "params": {
          "amountToSell": "The amount of shares to sell.",
          "brokerbot": "The brokerbot of the shares to sell.",
          "params": "Information about the swap.",
          "permitInfo": "Information about the permit.",
          "ref": "Reference e.g. insider declaration and the type of sell.",
          "seller": "The seller address.",
          "shares": "The (draggable)shares address."
        },
        "returns": {
          "_0": "The output amount of the swap to the desired token."
        }
      },
      "transferEther(address)": {
        "details": "Used with the mutlisigwallet.",
        "params": {
          "to": "The address to transfer ether to."
        }
      },
      "withdrawEther(address,uint256)": {
        "params": {
          "to": "The address to transfer ether to."
        }
      }
    },
    "version": 1
  },
  "userdoc": {
    "errors": {
      "PaymentHub_InvalidSender(address)": [
        {
          "notice": "Sender not trusted."
        }
      ],
      "PaymentHub_SwapError(uint256,uint256)": [
        {
          "notice": "swap with less base token as required."
        }
      ],
      "PaymentHub_TransferFailed()": [
        {
          "notice": "Failguard when an erc20 transfer returns false. "
        }
      ]
    },
    "kind": "user",
    "methods": {
      "approveERC20(address)": {
        "notice": "This function appoves infinite allowance for Uniswap, this is safe as the paymenthub should never hold any token (see also recover() )."
      },
      "changeForwarder(address)": {
        "notice": "Change the trusted forwarder."
      },
      "getLatestPriceCHFUSD()": {
        "notice": "Returns the latest price of chf/usd pair from chainlink with 8 decimals"
      },
      "getLatestPriceETHUSD()": {
        "notice": "Returns the latest price of eth/usd pair from chainlink with 8 decimals"
      },
      "getPriceERC20(uint256,bytes,bool)": {
        "notice": "Get price for given amount and path swapped via uniswap. "
      },
      "getPriceInERC20(uint256,bytes)": {
        "notice": "Get price in ERC20 This is the method that the Brokerbot widget should use to quote the price to the user."
      },
      "getPriceInEther(uint256,address,bytes)": {
        "notice": "Get price in Ether depding on brokerbot setting. If keep ETH is set price is from oracle. This is the method that the Brokerbot widget should use to quote the price to the user."
      },
      "getPriceInEtherFromOracle(uint256,address)": {
        "notice": "Price in ETH with 18 decimals"
      },
      "hasSettingKeepEther(address)": {
        "notice": "Checks if the brokerbot has setting enabled to keep ether"
      },
      "multiPayAndNotify(address,address[],uint256[],bytes)": {
        "notice": "Can (at least in theory) save some gas as the sender balance only is touched in one transaction."
      },
      "payAndNotify(address,uint256,bytes)": {
        "notice": "Allows to make a base currency payment from the sender to the brokerbot, given an allowance to this contract."
      },
      "payFromEther(address,uint256,bytes)": {
        "notice": "Convenience method to swap ether into base and pay a target address"
      },
      "payFromEtherAndNotify(address,uint256,bytes,bytes)": {
        "notice": "Pay with Ether to buy shares."
      },
      "recover(address,address,uint256)": {
        "notice": "In case tokens have been accidentally sent directly to this contract. Only Forwarder can withdraw, else a MEV bot will intercept it."
      },
      "sellSharesAndSwap(address,address,uint256,bytes,(bytes,address,uint256,uint256,uint256),bool)": {
        "notice": "With this function a user can sell shares and swap them to a desired token. The user has to approve the paymenthub before on the shares contract."
      },
      "sellSharesWithPermit(address,address,address,address,uint256,bytes,(uint256,uint256,uint8,bytes32,bytes32))": {
        "notice": "Sell shares with permit"
      },
      "sellSharesWithPermitAndSwap(address,address,address,uint256,bytes,(uint256,uint256,uint8,bytes32,bytes32),(bytes,address,uint256,uint256,uint256),bool)": {
        "notice": "With this function a user can sell shares with permit and swap them to a desired token."
      },
      "transferEther(address)": {
        "notice": "Transfer ether to a given address."
      },
      "withdrawEther(address,uint256)": {
        "notice": "Transfer ether to a given address. Only Forwarder can withdraw, else a MEV bot will intercept it."
      }
    },
    "notice": "A hub for payments. This allows tokens that do not support ERC 677 to enjoy similar functionality, namely interacting with a token-handling smart contract in one transaction, without having to set an allowance first. Instead, an allowance needs to be set only once, namely for this contract. Further, it supports automatic conversion from Ether to the payment currency through Uniswap or the reception of Ether using the current exchange rate as found in the chainlink oracle.",
    "version": 1
  },
  "storageLayout": {
    "storage": [
      {
        "astId": 3951,
        "contract": "src/brokerbot/PaymentHub.sol:PaymentHub",
        "label": "trustedForwarder",
        "offset": 0,
        "slot": "0",
        "type": "t_address"
      }
    ],
    "types": {
      "t_address": {
        "encoding": "inplace",
        "label": "address",
        "numberOfBytes": "20"
      }
    }
  }
}