{
  "address": "0x931dD6e2b3a1893645D920C2b5A6E837a9b7879e",
  "abi": [
    {
      "inputs": [
        {
          "internalType": "address",
          "name": "_trustedForwarder",
          "type": "address"
        },
        {
          "internalType": "contract IQuoter",
          "name": "_quoter",
          "type": "address"
        },
        {
          "internalType": "contract ISwapRouter",
          "name": "swapRouter",
          "type": "address"
        },
        {
          "internalType": "contract AggregatorV3Interface",
          "name": "_aggregatorCHFUSD",
          "type": "address"
        },
        {
          "internalType": "contract AggregatorV3Interface",
          "name": "_aggregatorETHUSD",
          "type": "address"
        }
      ],
      "stateMutability": "nonpayable",
      "type": "constructor"
    },
    {
      "anonymous": false,
      "inputs": [
        {
          "indexed": false,
          "internalType": "address",
          "name": "_oldForwarder",
          "type": "address"
        },
        {
          "indexed": false,
          "internalType": "address",
          "name": "_newForwarder",
          "type": "address"
        }
      ],
      "name": "ForwarderChanged",
      "type": "event"
    },
    {
      "inputs": [
        {
          "internalType": "address",
          "name": "erc20In",
          "type": "address"
        }
      ],
      "name": "approveERC20",
      "outputs": [],
      "stateMutability": "nonpayable",
      "type": "function"
    },
    {
      "inputs": [
        {
          "internalType": "address",
          "name": "newForwarder",
          "type": "address"
        }
      ],
      "name": "changeForwarder",
      "outputs": [],
      "stateMutability": "nonpayable",
      "type": "function"
    },
    {
      "inputs": [],
      "name": "getLatestPriceCHFUSD",
      "outputs": [
        {
          "internalType": "uint256",
          "name": "",
          "type": "uint256"
        }
      ],
      "stateMutability": "view",
      "type": "function"
    },
    {
      "inputs": [],
      "name": "getLatestPriceETHUSD",
      "outputs": [
        {
          "internalType": "uint256",
          "name": "",
          "type": "uint256"
        }
      ],
      "stateMutability": "view",
      "type": "function"
    },
    {
      "inputs": [
        {
          "internalType": "uint256",
          "name": "amountInBase",
          "type": "uint256"
        },
        {
          "internalType": "bytes",
          "name": "path",
          "type": "bytes"
        }
      ],
      "name": "getPriceInERC20",
      "outputs": [
        {
          "internalType": "uint256",
          "name": "",
          "type": "uint256"
        }
      ],
      "stateMutability": "nonpayable",
      "type": "function"
    },
    {
      "inputs": [
        {
          "internalType": "uint256",
          "name": "amountInBase",
          "type": "uint256"
        },
        {
          "internalType": "contract IBrokerbot",
          "name": "brokerBot",
          "type": "address"
        }
      ],
      "name": "getPriceInEther",
      "outputs": [
        {
          "internalType": "uint256",
          "name": "",
          "type": "uint256"
        }
      ],
      "stateMutability": "nonpayable",
      "type": "function"
    },
    {
      "inputs": [
        {
          "internalType": "uint256",
          "name": "amountInBase",
          "type": "uint256"
        },
        {
          "internalType": "contract IERC20",
          "name": "base",
          "type": "address"
        }
      ],
      "name": "getPriceInEtherFromOracle",
      "outputs": [
        {
          "internalType": "uint256",
          "name": "",
          "type": "uint256"
        }
      ],
      "stateMutability": "view",
      "type": "function"
    },
    {
      "inputs": [
        {
          "internalType": "contract IBrokerbot",
          "name": "recipient",
          "type": "address"
        }
      ],
      "name": "hasSettingKeepEther",
      "outputs": [
        {
          "internalType": "bool",
          "name": "",
          "type": "bool"
        }
      ],
      "stateMutability": "view",
      "type": "function"
    },
    {
      "inputs": [
        {
          "internalType": "contract IERC20",
          "name": "token",
          "type": "address"
        },
        {
          "internalType": "address[]",
          "name": "recipients",
          "type": "address[]"
        },
        {
          "internalType": "uint256[]",
          "name": "amounts",
          "type": "uint256[]"
        }
      ],
      "name": "multiPay",
      "outputs": [],
      "stateMutability": "nonpayable",
      "type": "function"
    },
    {
      "inputs": [
        {
          "internalType": "contract IERC20",
          "name": "token",
          "type": "address"
        },
        {
          "internalType": "address[]",
          "name": "recipients",
          "type": "address[]"
        },
        {
          "internalType": "uint256[]",
          "name": "amounts",
          "type": "uint256[]"
        },
        {
          "internalType": "bytes",
          "name": "ref",
          "type": "bytes"
        }
      ],
      "name": "multiPayAndNotify",
      "outputs": [],
      "stateMutability": "nonpayable",
      "type": "function"
    },
    {
      "inputs": [
        {
          "internalType": "address",
          "name": "recipient",
          "type": "address"
        },
        {
          "internalType": "uint256",
          "name": "amountInBase",
          "type": "uint256"
        },
        {
          "internalType": "bytes",
          "name": "ref",
          "type": "bytes"
        }
      ],
      "name": "payAndNotify",
      "outputs": [],
      "stateMutability": "nonpayable",
      "type": "function"
    },
    {
      "inputs": [
        {
          "internalType": "contract IERC20",
          "name": "token",
          "type": "address"
        },
        {
          "internalType": "address",
          "name": "recipient",
          "type": "address"
        },
        {
          "internalType": "uint256",
          "name": "amount",
          "type": "uint256"
        },
        {
          "internalType": "bytes",
          "name": "ref",
          "type": "bytes"
        }
      ],
      "name": "payAndNotify",
      "outputs": [],
      "stateMutability": "nonpayable",
      "type": "function"
    },
    {
      "inputs": [
        {
          "internalType": "uint256",
          "name": "amountOut",
          "type": "uint256"
        },
        {
          "internalType": "uint256",
          "name": "amountInMaximum",
          "type": "uint256"
        },
        {
          "internalType": "address",
          "name": "erc20In",
          "type": "address"
        },
        {
          "internalType": "bytes",
          "name": "path",
          "type": "bytes"
        },
        {
          "internalType": "address",
          "name": "recipient",
          "type": "address"
        }
      ],
      "name": "payFromERC20",
      "outputs": [
        {
          "internalType": "uint256",
          "name": "amountIn",
          "type": "uint256"
        }
      ],
      "stateMutability": "nonpayable",
      "type": "function"
    },
    {
      "inputs": [
        {
          "internalType": "address",
          "name": "recipient",
          "type": "address"
        },
        {
          "internalType": "uint256",
          "name": "amountBase",
          "type": "uint256"
        },
        {
          "internalType": "address",
          "name": "erc20",
          "type": "address"
        },
        {
          "internalType": "uint256",
          "name": "amountInMaximum",
          "type": "uint256"
        },
        {
          "internalType": "bytes",
          "name": "path",
          "type": "bytes"
        },
        {
          "internalType": "bytes",
          "name": "ref",
          "type": "bytes"
        }
      ],
      "name": "payFromERC20AndNotify",
      "outputs": [],
      "stateMutability": "nonpayable",
      "type": "function"
    },
    {
      "inputs": [
        {
          "internalType": "address",
          "name": "recipient",
          "type": "address"
        },
        {
          "internalType": "uint256",
          "name": "amountInBase",
          "type": "uint256"
        },
        {
          "internalType": "contract IERC20",
          "name": "base",
          "type": "address"
        }
      ],
      "name": "payFromEther",
      "outputs": [],
      "stateMutability": "payable",
      "type": "function"
    },
    {
      "inputs": [
        {
          "internalType": "contract IBrokerbot",
          "name": "recipient",
          "type": "address"
        },
        {
          "internalType": "uint256",
          "name": "amountInBase",
          "type": "uint256"
        },
        {
          "internalType": "bytes",
          "name": "ref",
          "type": "bytes"
        }
      ],
      "name": "payFromEtherAndNotify",
      "outputs": [],
      "stateMutability": "payable",
      "type": "function"
    },
    {
      "inputs": [
        {
          "internalType": "contract IERC20",
          "name": "ercAddress",
          "type": "address"
        },
        {
          "internalType": "address",
          "name": "to",
          "type": "address"
        },
        {
          "internalType": "uint256",
          "name": "amount",
          "type": "uint256"
        }
      ],
      "name": "recover",
      "outputs": [],
      "stateMutability": "nonpayable",
      "type": "function"
    },
    {
      "inputs": [
        {
          "internalType": "address",
          "name": "recipient",
          "type": "address"
        },
        {
          "internalType": "address",
          "name": "seller",
          "type": "address"
        },
        {
          "internalType": "uint256",
          "name": "amountToSell",
          "type": "uint256"
        },
        {
          "internalType": "uint256",
          "name": "exFee",
          "type": "uint256"
        },
        {
          "internalType": "uint256",
          "name": "deadline",
          "type": "uint256"
        },
        {
          "internalType": "bytes",
          "name": "ref",
          "type": "bytes"
        },
        {
          "internalType": "uint8",
          "name": "v",
          "type": "uint8"
        },
        {
          "internalType": "bytes32",
          "name": "r",
          "type": "bytes32"
        },
        {
          "internalType": "bytes32",
          "name": "s",
          "type": "bytes32"
        }
      ],
      "name": "sellSharesWithPermit",
      "outputs": [],
      "stateMutability": "nonpayable",
      "type": "function"
    },
    {
      "inputs": [
        {
          "internalType": "address",
          "name": "to",
          "type": "address"
        }
      ],
      "name": "transferEther",
      "outputs": [],
      "stateMutability": "payable",
      "type": "function"
    },
    {
      "inputs": [],
      "name": "trustedForwarder",
      "outputs": [
        {
          "internalType": "address",
          "name": "",
          "type": "address"
        }
      ],
      "stateMutability": "view",
      "type": "function"
    },
    {
      "stateMutability": "payable",
      "type": "receive"
    }
  ],
  "transactionHash": "0x280efd29c9faf765fa4e9e50dea72b96bf7bf023f31d09db4e6d9cc212dc36ea",
  "args": [
    "0x59f0941e75f2F77cA4577E48c3c5333a3F8D277b",
    "0xb27308f9F90D607463bb33eA1BeBb41C27CE5AB6",
    "0xE592427A0AEce92De3Edee1F18E0157C05861564",
    "0x449d117117838fFA61263B61dA6301AA2a88B13A",
    "0x5f4eC3Df9cbd43714FE2740f5E3616155c5b8419"
  ],
  "numDeployments": 5,
  "solcInputHash": "636588dc7e76b0f7a87daa807c0502a7",
  "bytecode": "0x6101006040523480156200001257600080fd5b506040516200266638038062002666833981016040819052620000359162000086565b600080546001600160a01b039096166001600160a01b0319909616959095179094556001600160601b0319606093841b811660805291831b821660a052821b811660c05291901b1660e0526200011f565b600080600080600060a086880312156200009f57600080fd5b8551620000ac8162000106565b6020870151909550620000bf8162000106565b6040870151909450620000d28162000106565b6060870151909350620000e58162000106565b6080870151909250620000f88162000106565b809150509295509295909350565b6001600160a01b03811681146200011c57600080fd5b50565b60805160601c60a05160601c60c05160601c60e05160601c6124de620001886000396000611170015260006103b301526000818161076a01528181610f6a015261131d0152600081816106c101528181610e7c015281816115a301526115d201526124de6000f3fe6080604052600436106101225760003560e01c80635daf206a116100a0578063c1d8e08a11610064578063c1d8e08a146102fe578063d3b3ca771461032e578063d64d4ba51461034e578063e25b37c61461036e578063e347bb601461038e57600080fd5b80635daf206a1461026b5780636b55e9911461028b5780636fb0c7dc1461029e5780637da0a877146102b157806395fe863c146102e957600080fd5b80631945b784116100e75780631945b784146101cb5780631c9af2e3146101eb5780631ec82cb81461020b578063415a21871461022b578063568f32541461024b57600080fd5b8062124e3d1461012e578063040c037a14610156578063078aa9641461016b57806311e8701c1461018b57806317f565d2146101ab57600080fd5b3661012957005b600080fd5b34801561013a57600080fd5b506101436103ae565b6040519081526020015b60405180910390f35b610169610164366004611ed1565b61044d565b005b34801561017757600080fd5b5061014361018636600461215d565b6106a7565b34801561019757600080fd5b506101696101a6366004611d39565b610753565b3480156101b757600080fd5b506101696101c6366004611ed1565b6107fc565b3480156101d757600080fd5b506101436101e63660046121a4565b61087f565b3480156101f757600080fd5b50610169610206366004612045565b6108e8565b34801561021757600080fd5b50610169610226366004611f91565b6109ce565b34801561023757600080fd5b50610169610246366004611d39565b610a5e565b34801561025757600080fd5b506101696102663660046120b7565b610b03565b34801561027757600080fd5b50610169610286366004611e2e565b610b75565b610169610299366004611d39565b610dd7565b6101696102ac366004611f2d565b610e6c565b3480156102bd57600080fd5b506000546102d1906001600160a01b031681565b6040516001600160a01b03909116815260200161014d565b3480156102f557600080fd5b5061014361116b565b34801561030a57600080fd5b5061031e610319366004611d39565b6111c7565b604051901515815260200161014d565b34801561033a57600080fd5b50610169610349366004611fd2565b61124c565b34801561035a57600080fd5b506101436103693660046121d4565b61130b565b34801561037a57600080fd5b506101436103893660046121a4565b611509565b34801561039a57600080fd5b506101696103a9366004611d7a565b611768565b6000807f00000000000000000000000000000000000000000000000000000000000000006001600160a01b031663feaf968c6040518163ffffffff1660e01b815260040160a06040518083038186803b15801561040a57600080fd5b505afa15801561041e573d6000803e3d6000fd5b505050506040513d601f19601f82011682018060405250810190610442919061224c565b509195945050505050565b6000846001600160a01b0316635001f3b56040518163ffffffff1660e01b815260040160206040518083038186803b15801561048857600080fd5b505afa15801561049c573d6000803e3d6000fd5b505050506040513d601f19601f820116820180604052508101906104c09190611d5d565b90506104cb856111c7565b1561060d5760006104dc858361087f565b9050856001600160a01b03166369365c528284338989896040518763ffffffff1660e01b815260040161051395949392919061232f565b6020604051808303818588803b15801561052c57600080fd5b505af1158015610540573d6000803e3d6000fd5b50505050506040513d601f19601f820116820180604052508101906105659190612144565b50348110156106075760003361057b833461241c565b604051600081818185875af1925050503d80600081146105b7576040519150601f19603f3d011682016040523d82523d6000602084013e6105bc565b606091505b50509050806106055760405162461bcd60e51b815260206004820152601060248201526f2a3930b739b332b9103330b4b632b21760811b60448201526064015b60405180910390fd5b505b506106a0565b610618858583610e6c565b60405163349b2e2960e11b81526001600160a01b038616906369365c529061064c908490339089908990899060040161232f565b602060405180830381600087803b15801561066657600080fd5b505af115801561067a573d6000803e3d6000fd5b505050506040513d601f19601f8201168201806040525081019061069e9190612144565b505b5050505050565b604051632f80bb1d60e01b81526000906001600160a01b037f00000000000000000000000000000000000000000000000000000000000000001690632f80bb1d906106f8908590879060040161230d565b602060405180830381600087803b15801561071257600080fd5b505af1158015610726573d6000803e3d6000fd5b505050506040513d601f19601f8201168201806040525081019061074a9190612144565b90505b92915050565b60405163095ea7b360e01b81526001600160a01b037f000000000000000000000000000000000000000000000000000000000000000081166004830152600160ff1b602483015282169063095ea7b390604401602060405180830381600087803b1580156107c057600080fd5b505af11580156107d4573d6000803e3d6000fd5b505050506040513d601f19601f820116820180604052508101906107f89190611f6f565b5050565b610879846001600160a01b0316635001f3b56040518163ffffffff1660e01b815260040160206040518083038186803b15801561083857600080fd5b505afa15801561084c573d6000803e3d6000fd5b505050506040513d601f19601f820116820180604052508101906108709190611d5d565b8585858561124c565b50505050565b60006001600160a01b03821673b4272071ecadd69d933adcd19ca99fe80664fc0814156108d2576108ae61116b565b836108b76103ae565b6108c191906123fd565b6108cb91906123db565b905061074d565b6108da61116b565b6108c16305f5e100856123fd565b60005b8381101561069e57856001600160a01b03166323b872dd3387878581811061091557610915612464565b905060200201602081019061092a9190611d39565b86868681811061093c5761093c612464565b905060200201356040518463ffffffff1660e01b8152600401610961939291906122e9565b602060405180830381600087803b15801561097b57600080fd5b505af115801561098f573d6000803e3d6000fd5b505050506040513d601f19601f820116820180604052508101906109b39190611f6f565b6109bc57600080fd5b806109c681612433565b9150506108eb565b60405163a9059cbb60e01b81526001600160a01b0383811660048301526024820183905284169063a9059cbb90604401602060405180830381600087803b158015610a1857600080fd5b505af1158015610a2c573d6000803e3d6000fd5b505050506040513d601f19601f82011682018060405250810190610a509190611f6f565b610a5957600080fd5b505050565b6000546001600160a01b03163314610aa85760405162461bcd60e51b815260206004820152600d60248201526c3737ba103337b93bb0b93232b960991b60448201526064016105fc565b600080546001600160a01b0319166001600160a01b0383169081179091556040805133815260208101929092527f6b1afd5bf12dcac0f44e8afd235c6681297d3124624a7a7a0d34abd84b798625910160405180910390a150565b60005b85811015610b6b57610b5988888884818110610b2457610b24612464565b9050602002016020810190610b399190611d39565b878785818110610b4b57610b4b612464565b90506020020135868661124c565b80610b6381612433565b915050610b06565b5050505050505050565b6000876001600160a01b0316635001f3b56040518163ffffffff1660e01b815260040160206040518083038186803b158015610bb057600080fd5b505afa158015610bc4573d6000803e3d6000fd5b505050506040513d601f19601f82011682018060405250810190610be89190611d5d565b6040516370a0823160e01b81526001600160a01b038a811660048301529192506000918316906370a082319060240160206040518083038186803b158015610c2f57600080fd5b505afa158015610c43573d6000803e3d6000fd5b505050506040513d601f19601f82011682018060405250810190610c679190612144565b9050610c76888789888d61130b565b506040516370a0823160e01b81526001600160a01b038a81166004830152600091908416906370a082319060240160206040518083038186803b158015610cbc57600080fd5b505afa158015610cd0573d6000803e3d6000fd5b505050506040513d601f19601f82011682018060405250810190610cf49190612144565b9050610d00828261241c565b8914610d3b5760405162461bcd60e51b815260206004820152600a60248201526939bbb0b81032b93937b960b11b60448201526064016105fc565b6001600160a01b038a166369365c528433610d56868661241c565b89896040518663ffffffff1660e01b8152600401610d7895949392919061232f565b602060405180830381600087803b158015610d9257600080fd5b505af1158015610da6573d6000803e3d6000fd5b505050506040513d601f19601f82011682018060405250810190610dca9190612144565b5050505050505050505050565b6000816001600160a01b03163460405160006040518083038185875af1925050503d8060008114610e24576040519150601f19603f3d011682016040523d82523d6000602084013e610e29565b606091505b50509050806107f85760405162461bcd60e51b815260206004820152600f60248201526e151c985b9cd9995c8819985a5b1959608a1b60448201526064016105fc565b60006040518061010001604052807f00000000000000000000000000000000000000000000000000000000000000006001600160a01b0316634aa4a4fc6040518163ffffffff1660e01b815260040160206040518083038186803b158015610ed357600080fd5b505afa158015610ee7573d6000803e3d6000fd5b505050506040513d601f19601f82011682018060405250810190610f0b9190611d5d565b6001600160a01b03168152602001836001600160a01b03168152602001610bb862ffffff168152602001856001600160a01b0316815260200142815260200184815260200134815260200160006001600160a01b0316815250905060007f000000000000000000000000000000000000000000000000000000000000000090506000816001600160a01b031663db3e219834856040518363ffffffff1660e01b815260040161101e919081516001600160a01b03908116825260208084015182169083015260408084015162ffffff16908301526060808401518216908301526080808401519083015260a0838101519083015260c0808401519083015260e09283015116918101919091526101000190565b6020604051808303818588803b15801561103757600080fd5b505af115801561104b573d6000803e3d6000fd5b50505050506040513d601f19601f820116820180604052508101906110709190612144565b90503481101561069e57816001600160a01b03166312210e8a6040518163ffffffff1660e01b8152600401600060405180830381600087803b1580156110b557600080fd5b505af11580156110c9573d6000803e3d6000fd5b50600092503391506110dd9050833461241c565b604051600081818185875af1925050503d8060008114611119576040519150601f19603f3d011682016040523d82523d6000602084013e61111e565b606091505b50509050806111625760405162461bcd60e51b815260206004820152601060248201526f2a3930b739b332b9103330b4b632b21760811b60448201526064016105fc565b50505050505050565b6000807f00000000000000000000000000000000000000000000000000000000000000006001600160a01b031663feaf968c6040518163ffffffff1660e01b815260040160a06040518083038186803b15801561040a57600080fd5b6000600460ff16600460ff16836001600160a01b031663e06174e46040518163ffffffff1660e01b815260040160206040518083038186803b15801561120c57600080fd5b505afa158015611220573d6000803e3d6000fd5b505050506040513d601f19601f820116820180604052508101906112449190612144565b161492915050565b6040516323b872dd60e01b81526001600160a01b038616906323b872dd9061127c903390889088906004016122e9565b602060405180830381600087803b15801561129657600080fd5b505af11580156112aa573d6000803e3d6000fd5b505050506040513d601f19601f820116820180604052508101906112ce9190611f6f565b6112d757600080fd5b60405163349b2e2960e11b81526001600160a01b038516906369365c529061064c908890339088908890889060040161232f565b6040516323b872dd60e01b81526000907f0000000000000000000000000000000000000000000000000000000000000000906001600160a01b038616906323b872dd9061136090339030908b906004016122e9565b602060405180830381600087803b15801561137a57600080fd5b505af115801561138e573d6000803e3d6000fd5b505050506040513d601f19601f820116820180604052508101906113b29190611f6f565b506040805160a0810182528581526001600160a01b0380861660208301524282840152606082018a9052608082018990529151631e51809360e31b8152909183169063f28c049890611408908490600401612383565b602060405180830381600087803b15801561142257600080fd5b505af1158015611436573d6000803e3d6000fd5b505050506040513d601f19601f8201168201806040525081019061145a9190612144565b9250868310156114fe576001600160a01b03861663a9059cbb3361147e868b61241c565b6040516001600160e01b031960e085901b1681526001600160a01b0390921660048301526024820152604401602060405180830381600087803b1580156114c457600080fd5b505af11580156114d8573d6000803e3d6000fd5b505050506040513d601f19601f820116820180604052508101906114fc9190611f6f565b505b505095945050505050565b60006001600160a01b038216158015906115275750611527826111c7565b156115a1576108cb83836001600160a01b0316635001f3b56040518163ffffffff1660e01b815260040160206040518083038186803b15801561156957600080fd5b505afa15801561157d573d6000803e3d6000fd5b505050506040513d601f19601f820116820180604052508101906101e69190611d5d565b7f00000000000000000000000000000000000000000000000000000000000000006001600160a01b03166330d07f217f00000000000000000000000000000000000000000000000000000000000000006001600160a01b0316634aa4a4fc6040518163ffffffff1660e01b815260040160206040518083038186803b15801561162957600080fd5b505afa15801561163d573d6000803e3d6000fd5b505050506040513d601f19601f820116820180604052508101906116619190611d5d565b846001600160a01b0316635001f3b56040518163ffffffff1660e01b815260040160206040518083038186803b15801561169a57600080fd5b505afa1580156116ae573d6000803e3d6000fd5b505050506040513d601f19601f820116820180604052508101906116d29190611d5d565b6040516001600160e01b031960e085901b1681526001600160a01b03928316600482015291166024820152610bb86044820152606481018690526000608482015260a401602060405180830381600087803b15801561173057600080fd5b505af1158015611744573d6000803e3d6000fd5b505050506040513d601f19601f820116820180604052508101906108cb9190612144565b6000546001600160a01b03163314806117895750336001600160a01b038a16145b6117c35760405162461bcd60e51b815260206004820152600b60248201526a1b9bdd081d1c9d5cdd195960aa1b60448201526064016105fc565b60008a6001600160a01b031663fc0c546a6040518163ffffffff1660e01b815260040160206040518083038186803b1580156117fe57600080fd5b505afa158015611812573d6000803e3d6000fd5b505050506040513d601f19601f820116820180604052508101906118369190611d5d565b60405163d505accf60e01b81526001600160a01b038c81166004830152306024830152604482018c9052606482018a905260ff8716608483015260a4820186905260c482018590529192509082169063d505accf9060e401600060405180830381600087803b1580156118a857600080fd5b505af11580156118bc573d6000803e3d6000fd5b50506040516323b872dd60e01b81526001600160a01b03841692506323b872dd91506118f0908d908f908e906004016122e9565b602060405180830381600087803b15801561190a57600080fd5b505af115801561191e573d6000803e3d6000fd5b505050506040513d601f19601f820116820180604052508101906119429190611f6f565b508715611b6b5760405163349b2e2960e11b81526000906001600160a01b038d16906369365c529061198090859030908f908d908d9060040161232f565b602060405180830381600087803b15801561199a57600080fd5b505af11580156119ae573d6000803e3d6000fd5b505050506040513d601f19601f820116820180604052508101906119d29190612144565b905060008c6001600160a01b0316635001f3b56040518163ffffffff1660e01b815260040160206040518083038186803b158015611a0f57600080fd5b505afa158015611a23573d6000803e3d6000fd5b505050506040513d601f19601f82011682018060405250810190611a479190611d5d565b60405163a9059cbb60e01b8152336004820152602481018c90529091506001600160a01b0382169063a9059cbb90604401602060405180830381600087803b158015611a9257600080fd5b505af1158015611aa6573d6000803e3d6000fd5b505050506040513d601f19601f82011682018060405250810190611aca9190611f6f565b506001600160a01b03811663a9059cbb8d611ae58d8661241c565b6040516001600160e01b031960e085901b1681526001600160a01b0390921660048301526024820152604401602060405180830381600087803b158015611b2b57600080fd5b505af1158015611b3f573d6000803e3d6000fd5b505050506040513d601f19601f82011682018060405250810190611b639190611f6f565b505050610dca565b60405163349b2e2960e11b81526001600160a01b038c16906369365c5290611b9f9084908e908e908c908c9060040161232f565b602060405180830381600087803b158015611bb957600080fd5b505af1158015611bcd573d6000803e3d6000fd5b505050506040513d601f19601f82011682018060405250810190611bf19190612144565b505050505050505050505050565b60008083601f840112611c1157600080fd5b50813567ffffffffffffffff811115611c2957600080fd5b6020830191508360208260051b8501011115611c4457600080fd5b9250929050565b60008083601f840112611c5d57600080fd5b50813567ffffffffffffffff811115611c7557600080fd5b602083019150836020828501011115611c4457600080fd5b600082601f830112611c9e57600080fd5b813567ffffffffffffffff80821115611cb957611cb961247a565b604051601f8301601f19908116603f01168101908282118183101715611ce157611ce161247a565b81604052838152866020858801011115611cfa57600080fd5b836020870160208301376000602085830101528094505050505092915050565b805169ffffffffffffffffffff81168114611d3457600080fd5b919050565b600060208284031215611d4b57600080fd5b8135611d5681612490565b9392505050565b600060208284031215611d6f57600080fd5b8151611d5681612490565b6000806000806000806000806000806101208b8d031215611d9a57600080fd5b8a35611da581612490565b995060208b0135611db581612490565b985060408b0135975060608b0135965060808b0135955060a08b013567ffffffffffffffff811115611de657600080fd5b611df28d828e01611c4b565b90965094505060c08b013560ff81168114611e0c57600080fd5b8093505060e08b013591506101008b013590509295989b9194979a5092959850565b600080600080600080600060c0888a031215611e4957600080fd5b8735611e5481612490565b9650602088013595506040880135611e6b81612490565b945060608801359350608088013567ffffffffffffffff80821115611e8f57600080fd5b611e9b8b838c01611c8d565b945060a08a0135915080821115611eb157600080fd5b50611ebe8a828b01611c4b565b989b979a50959850939692959293505050565b60008060008060608587031215611ee757600080fd5b8435611ef281612490565b935060208501359250604085013567ffffffffffffffff811115611f1557600080fd5b611f2187828801611c4b565b95989497509550505050565b600080600060608486031215611f4257600080fd5b8335611f4d81612490565b9250602084013591506040840135611f6481612490565b809150509250925092565b600060208284031215611f8157600080fd5b81518015158114611d5657600080fd5b600080600060608486031215611fa657600080fd5b8335611fb181612490565b92506020840135611fc181612490565b929592945050506040919091013590565b600080600080600060808688031215611fea57600080fd5b8535611ff581612490565b9450602086013561200581612490565b935060408601359250606086013567ffffffffffffffff81111561202857600080fd5b61203488828901611c4b565b969995985093965092949392505050565b60008060008060006060868803121561205d57600080fd5b853561206881612490565b9450602086013567ffffffffffffffff8082111561208557600080fd5b61209189838a01611bff565b909650945060408801359150808211156120aa57600080fd5b5061203488828901611bff565b60008060008060008060006080888a0312156120d257600080fd5b87356120dd81612490565b9650602088013567ffffffffffffffff808211156120fa57600080fd5b6121068b838c01611bff565b909850965060408a013591508082111561211f57600080fd5b61212b8b838c01611bff565b909650945060608a0135915080821115611eb157600080fd5b60006020828403121561215657600080fd5b5051919050565b6000806040838503121561217057600080fd5b82359150602083013567ffffffffffffffff81111561218e57600080fd5b61219a85828601611c8d565b9150509250929050565b600080604083850312156121b757600080fd5b8235915060208301356121c981612490565b809150509250929050565b600080600080600060a086880312156121ec57600080fd5b8535945060208601359350604086013561220581612490565b9250606086013567ffffffffffffffff81111561222157600080fd5b61222d88828901611c8d565b925050608086013561223e81612490565b809150509295509295909350565b600080600080600060a0868803121561226457600080fd5b61226d86611d1a565b945060208601519350604086015192506060860151915061229060808701611d1a565b90509295509295909350565b6000815180845260005b818110156122c2576020818501810151868301820152016122a6565b818111156122d4576000602083870101525b50601f01601f19169290920160200192915050565b6001600160a01b039384168152919092166020820152604081019190915260600190565b604081526000612320604083018561229c565b90508260208301529392505050565b6001600160a01b038681168252851660208201526040810184905260806060820181905281018290526000828460a0840137600060a0848401015260a0601f19601f85011683010190509695505050505050565b602081526000825160a0602084015261239f60c084018261229c565b905060018060a01b0360208501511660408401526040840151606084015260608401516080840152608084015160a08401528091505092915050565b6000826123f857634e487b7160e01b600052601260045260246000fd5b500490565b60008160001904831182151516156124175761241761244e565b500290565b60008282101561242e5761242e61244e565b500390565b60006000198214156124475761244761244e565b5060010190565b634e487b7160e01b600052601160045260246000fd5b634e487b7160e01b600052603260045260246000fd5b634e487b7160e01b600052604160045260246000fd5b6001600160a01b03811681146124a557600080fd5b5056fea264697066735822122024d5ef6e6b2019728db4baf7d407461fd6926062b3282c5ef73f5e8a72e6d10564736f6c63430008070033",
  "devdoc": {
    "kind": "dev",
    "methods": {
      "approveERC20(address)": {
        "details": "This function needs to be called before using the PaymentHub the first time with a new ERC20 token.",
        "params": {
          "erc20In": "The erc20 addresse to approve."
        }
      },
      "getPriceInEther(uint256,address)": {
        "returns": {
          "_0": "The price in wei."
        }
      },
      "payFromERC20(uint256,uint256,address,bytes,address)": {
        "details": "The calling address must approve this contract to spend its ERC20 for this function to succeed. As the amount of input ERC20 is variable, the calling address will need to approve for a slightly higher or infinit amount, anticipating some variance.",
        "params": {
          "amountInMaximum": "The maximum amount of ERC20 willing to be swapped for the specified amountOut of baseCurrency.",
          "amountOut": "The desired amount of baseCurrency.",
          "erc20In": "The address of the erc20 token to pay with.",
          "path": "The encoded path of the swap from erc20 to base.",
          "recipient": "The reciving address - brokerbot."
        },
        "returns": {
          "amountIn": "The amountIn of ERC20 actually spent to receive the desired amountOut."
        }
      },
      "sellSharesWithPermit(address,address,uint256,uint256,uint256,bytes,uint8,bytes32,bytes32)": {
        "params": {
          "amountToSell": "The amount the seller wants to sell.",
          "deadline": "The deadline of the permit.",
          "r": "Part of the permit signature.",
          "recipient": "The brokerbot to recive the shares.",
          "ref": "Reference of the insider declaration and the type of sell.",
          "s": "Part of the permit signature.",
          "seller": "The address of the seller.",
          "v": "Part of the permit signature."
        }
      }
    },
    "version": 1
  },
  "userdoc": {
    "kind": "user",
    "methods": {
      "approveERC20(address)": {
        "notice": "This function appoves infinite allowance for Uniswap, this is safe as the paymenthub should never hold any token (see also recover() )."
      },
      "getLatestPriceCHFUSD()": {
        "notice": "Returns the latest price of chf/usd pair from chainlink with 8 decimals"
      },
      "getLatestPriceETHUSD()": {
        "notice": "Returns the latest price of eth/usd pair from chainlink with 8 decimals"
      },
      "getPriceInEther(uint256,address)": {
        "notice": "Get price in Ether depding on brokerbot setting. If keep ETH is set price is from oracle. This is the method that the Brokerbot widget should use to quote the price to the user."
      },
      "getPriceInEtherFromOracle(uint256,address)": {
        "notice": "Price in ETH with 18 decimals"
      },
      "hasSettingKeepEther(address)": {
        "notice": "Checks if the recipient(brokerbot) has setting enabled to keep ether"
      },
      "multiPayAndNotify(address,address[],uint256[],bytes)": {
        "notice": "Can (at least in theory) save some gas as the sender balance only is touched in one transaction."
      },
      "payFromEther(address,uint256,address)": {
        "notice": "Convenience method to swap ether into base and pay a target address"
      },
      "recover(address,address,uint256)": {
        "notice": "In case tokens have been accidentally sent directly to this contract. Make sure to be fast as anyone can call this!"
      },
      "sellSharesWithPermit(address,address,uint256,uint256,uint256,bytes,uint8,bytes32,bytes32)": {
        "notice": "Sell shares with permit "
      }
    },
    "notice": "A hub for payments. This allows tokens that do not support ERC 677 to enjoy similar functionality, namely interacting with a token-handling smart contract in one transaction, without having to set an allowance first. Instead, an allowance needs to be set only once, namely for this contract. Further, it supports automatic conversion from Ether to the payment currency through Uniswap or the reception of Ether using the current exchange rate as found in the chainlink oracle.",
    "version": 1
  },
  "storageLayout": {
    "storage": [
      {
        "astId": 387,
        "contract": "src/brokerbot/PaymentHub.sol:PaymentHub",
        "label": "trustedForwarder",
        "offset": 0,
        "slot": "0",
        "type": "t_address"
      }
    ],
    "types": {
      "t_address": {
        "encoding": "inplace",
        "label": "address",
        "numberOfBytes": "20"
      }
    }
  }
}