{
  "address": "0xE1D8593882fa4700efDF446B9E4855D5CCccDe8C",
  "abi": [
    {
      "inputs": [
        {
          "internalType": "string",
          "name": "_terms",
          "type": "string"
        },
        {
          "internalType": "contract IERC20",
          "name": "_wrappedToken",
          "type": "address"
        },
        {
          "internalType": "uint256",
          "name": "_quorumBps",
          "type": "uint256"
        },
        {
          "internalType": "uint256",
          "name": "_votePeriodSeconds",
          "type": "uint256"
        },
        {
          "internalType": "contract IRecoveryHub",
          "name": "_recoveryHub",
          "type": "address"
        },
        {
          "internalType": "contract IOfferFactory",
          "name": "_offerFactory",
          "type": "address"
        },
        {
          "internalType": "address",
          "name": "_oracle",
          "type": "address"
        }
      ],
      "stateMutability": "nonpayable",
      "type": "constructor"
    },
    {
      "anonymous": false,
      "inputs": [
        {
          "indexed": true,
          "internalType": "address",
          "name": "owner",
          "type": "address"
        },
        {
          "indexed": true,
          "internalType": "address",
          "name": "spender",
          "type": "address"
        },
        {
          "indexed": false,
          "internalType": "uint256",
          "name": "value",
          "type": "uint256"
        }
      ],
      "name": "Approval",
      "type": "event"
    },
    {
      "anonymous": false,
      "inputs": [
        {
          "indexed": false,
          "internalType": "address",
          "name": "oracle",
          "type": "address"
        }
      ],
      "name": "ChangeOracle",
      "type": "event"
    },
    {
      "anonymous": false,
      "inputs": [
        {
          "indexed": false,
          "internalType": "address",
          "name": "newContractAddress",
          "type": "address"
        },
        {
          "indexed": false,
          "internalType": "uint256",
          "name": "yesVotes",
          "type": "uint256"
        },
        {
          "indexed": false,
          "internalType": "uint256",
          "name": "oracleVotes",
          "type": "uint256"
        },
        {
          "indexed": false,
          "internalType": "uint256",
          "name": "totalVotingPower",
          "type": "uint256"
        }
      ],
      "name": "MigrationSucceeded",
      "type": "event"
    },
    {
      "anonymous": false,
      "inputs": [
        {
          "indexed": false,
          "internalType": "string",
          "name": "name",
          "type": "string"
        },
        {
          "indexed": false,
          "internalType": "string",
          "name": "symbol",
          "type": "string"
        }
      ],
      "name": "NameChanged",
      "type": "event"
    },
    {
      "anonymous": false,
      "inputs": [
        {
          "indexed": true,
          "internalType": "address",
          "name": "from",
          "type": "address"
        },
        {
          "indexed": true,
          "internalType": "address",
          "name": "to",
          "type": "address"
        },
        {
          "indexed": false,
          "internalType": "uint256",
          "name": "value",
          "type": "uint256"
        }
      ],
      "name": "Transfer",
      "type": "event"
    },
    {
      "inputs": [],
      "name": "DOMAIN_SEPARATOR",
      "outputs": [
        {
          "internalType": "bytes32",
          "name": "",
          "type": "bytes32"
        }
      ],
      "stateMutability": "view",
      "type": "function"
    },
    {
      "inputs": [
        {
          "internalType": "address",
          "name": "owner",
          "type": "address"
        },
        {
          "internalType": "address",
          "name": "spender",
          "type": "address"
        }
      ],
      "name": "allowance",
      "outputs": [
        {
          "internalType": "uint256",
          "name": "",
          "type": "uint256"
        }
      ],
      "stateMutability": "view",
      "type": "function"
    },
    {
      "inputs": [
        {
          "internalType": "address",
          "name": "spender",
          "type": "address"
        },
        {
          "internalType": "uint256",
          "name": "value",
          "type": "uint256"
        }
      ],
      "name": "approve",
      "outputs": [
        {
          "internalType": "bool",
          "name": "",
          "type": "bool"
        }
      ],
      "stateMutability": "nonpayable",
      "type": "function"
    },
    {
      "inputs": [
        {
          "internalType": "address",
          "name": "account",
          "type": "address"
        }
      ],
      "name": "balanceOf",
      "outputs": [
        {
          "internalType": "uint256",
          "name": "",
          "type": "uint256"
        }
      ],
      "stateMutability": "view",
      "type": "function"
    },
    {
      "inputs": [
        {
          "internalType": "uint256",
          "name": "amount",
          "type": "uint256"
        }
      ],
      "name": "burn",
      "outputs": [],
      "stateMutability": "nonpayable",
      "type": "function"
    },
    {
      "inputs": [],
      "name": "claimPeriod",
      "outputs": [
        {
          "internalType": "uint256",
          "name": "",
          "type": "uint256"
        }
      ],
      "stateMutability": "pure",
      "type": "function"
    },
    {
      "inputs": [],
      "name": "customCollateralAddress",
      "outputs": [
        {
          "internalType": "contract IERC20",
          "name": "",
          "type": "address"
        }
      ],
      "stateMutability": "view",
      "type": "function"
    },
    {
      "inputs": [],
      "name": "customCollateralRate",
      "outputs": [
        {
          "internalType": "uint256",
          "name": "",
          "type": "uint256"
        }
      ],
      "stateMutability": "view",
      "type": "function"
    },
    {
      "inputs": [],
      "name": "decimals",
      "outputs": [
        {
          "internalType": "uint8",
          "name": "",
          "type": "uint8"
        }
      ],
      "stateMutability": "view",
      "type": "function"
    },
    {
      "inputs": [
        {
          "internalType": "address",
          "name": "lostAddress",
          "type": "address"
        }
      ],
      "name": "deleteClaim",
      "outputs": [],
      "stateMutability": "nonpayable",
      "type": "function"
    },
    {
      "inputs": [
        {
          "internalType": "address",
          "name": "buyer",
          "type": "address"
        },
        {
          "internalType": "contract IERC20",
          "name": "currency",
          "type": "address"
        }
      ],
      "name": "drag",
      "outputs": [],
      "stateMutability": "nonpayable",
      "type": "function"
    },
    {
      "inputs": [],
      "name": "factory",
      "outputs": [
        {
          "internalType": "contract IOfferFactory",
          "name": "",
          "type": "address"
        }
      ],
      "stateMutability": "view",
      "type": "function"
    },
    {
      "inputs": [],
      "name": "getClaimDeleter",
      "outputs": [
        {
          "internalType": "address",
          "name": "",
          "type": "address"
        }
      ],
      "stateMutability": "view",
      "type": "function"
    },
    {
      "inputs": [
        {
          "internalType": "contract IERC20",
          "name": "collateralType",
          "type": "address"
        }
      ],
      "name": "getCollateralRate",
      "outputs": [
        {
          "internalType": "uint256",
          "name": "",
          "type": "uint256"
        }
      ],
      "stateMutability": "view",
      "type": "function"
    },
    {
      "inputs": [
        {
          "internalType": "address",
          "name": "account",
          "type": "address"
        },
        {
          "internalType": "uint8",
          "name": "number",
          "type": "uint8"
        }
      ],
      "name": "hasFlag",
      "outputs": [
        {
          "internalType": "bool",
          "name": "",
          "type": "bool"
        }
      ],
      "stateMutability": "view",
      "type": "function"
    },
    {
      "inputs": [],
      "name": "isBinding",
      "outputs": [
        {
          "internalType": "bool",
          "name": "",
          "type": "bool"
        }
      ],
      "stateMutability": "view",
      "type": "function"
    },
    {
      "inputs": [
        {
          "internalType": "bytes32",
          "name": "salt",
          "type": "bytes32"
        },
        {
          "internalType": "uint256",
          "name": "pricePerShare",
          "type": "uint256"
        },
        {
          "internalType": "contract IERC20",
          "name": "currency",
          "type": "address"
        }
      ],
      "name": "makeAcquisitionOffer",
      "outputs": [],
      "stateMutability": "payable",
      "type": "function"
    },
    {
      "inputs": [],
      "name": "migrate",
      "outputs": [],
      "stateMutability": "nonpayable",
      "type": "function"
    },
    {
      "inputs": [
        {
          "internalType": "address",
          "name": "successor",
          "type": "address"
        },
        {
          "internalType": "uint256",
          "name": "additionalVotes",
          "type": "uint256"
        }
      ],
      "name": "migrateWithExternalApproval",
      "outputs": [],
      "stateMutability": "nonpayable",
      "type": "function"
    },
    {
      "inputs": [],
      "name": "name",
      "outputs": [
        {
          "internalType": "string",
          "name": "",
          "type": "string"
        }
      ],
      "stateMutability": "view",
      "type": "function"
    },
    {
      "inputs": [
        {
          "internalType": "address",
          "name": "",
          "type": "address"
        }
      ],
      "name": "nonces",
      "outputs": [
        {
          "internalType": "uint256",
          "name": "",
          "type": "uint256"
        }
      ],
      "stateMutability": "view",
      "type": "function"
    },
    {
      "inputs": [
        {
          "internalType": "address",
          "name": "target",
          "type": "address"
        }
      ],
      "name": "notifyClaimDeleted",
      "outputs": [],
      "stateMutability": "nonpayable",
      "type": "function"
    },
    {
      "inputs": [
        {
          "internalType": "address",
          "name": "target",
          "type": "address"
        }
      ],
      "name": "notifyClaimMade",
      "outputs": [],
      "stateMutability": "nonpayable",
      "type": "function"
    },
    {
      "inputs": [],
      "name": "notifyOfferEnded",
      "outputs": [],
      "stateMutability": "nonpayable",
      "type": "function"
    },
    {
      "inputs": [
        {
          "internalType": "address",
          "name": "voter",
          "type": "address"
        }
      ],
      "name": "notifyVoted",
      "outputs": [],
      "stateMutability": "nonpayable",
      "type": "function"
    },
    {
      "inputs": [],
      "name": "offer",
      "outputs": [
        {
          "internalType": "contract IOffer",
          "name": "",
          "type": "address"
        }
      ],
      "stateMutability": "view",
      "type": "function"
    },
    {
      "inputs": [
        {
          "internalType": "address",
          "name": "from",
          "type": "address"
        },
        {
          "internalType": "uint256",
          "name": "amount",
          "type": "uint256"
        },
        {
          "internalType": "bytes",
          "name": "",
          "type": "bytes"
        }
      ],
      "name": "onTokenTransfer",
      "outputs": [
        {
          "internalType": "bool",
          "name": "",
          "type": "bool"
        }
      ],
      "stateMutability": "nonpayable",
      "type": "function"
    },
    {
      "inputs": [],
      "name": "oracle",
      "outputs": [
        {
          "internalType": "address",
          "name": "",
          "type": "address"
        }
      ],
      "stateMutability": "view",
      "type": "function"
    },
    {
      "inputs": [
        {
          "internalType": "address",
          "name": "owner",
          "type": "address"
        },
        {
          "internalType": "address",
          "name": "spender",
          "type": "address"
        },
        {
          "internalType": "uint256",
          "name": "value",
          "type": "uint256"
        },
        {
          "internalType": "uint256",
          "name": "deadline",
          "type": "uint256"
        },
        {
          "internalType": "uint8",
          "name": "v",
          "type": "uint8"
        },
        {
          "internalType": "bytes32",
          "name": "r",
          "type": "bytes32"
        },
        {
          "internalType": "bytes32",
          "name": "s",
          "type": "bytes32"
        }
      ],
      "name": "permit",
      "outputs": [],
      "stateMutability": "nonpayable",
      "type": "function"
    },
    {
      "inputs": [],
      "name": "quorum",
      "outputs": [
        {
          "internalType": "uint256",
          "name": "",
          "type": "uint256"
        }
      ],
      "stateMutability": "view",
      "type": "function"
    },
    {
      "inputs": [
        {
          "internalType": "address",
          "name": "oldAddress",
          "type": "address"
        },
        {
          "internalType": "address",
          "name": "newAddress",
          "type": "address"
        }
      ],
      "name": "recover",
      "outputs": [],
      "stateMutability": "nonpayable",
      "type": "function"
    },
    {
      "inputs": [],
      "name": "recovery",
      "outputs": [
        {
          "internalType": "contract IRecoveryHub",
          "name": "",
          "type": "address"
        }
      ],
      "stateMutability": "view",
      "type": "function"
    },
    {
      "inputs": [
        {
          "internalType": "address",
          "name": "newOracle",
          "type": "address"
        }
      ],
      "name": "setOracle",
      "outputs": [],
      "stateMutability": "nonpayable",
      "type": "function"
    },
    {
      "inputs": [],
      "name": "symbol",
      "outputs": [
        {
          "internalType": "string",
          "name": "",
          "type": "string"
        }
      ],
      "stateMutability": "view",
      "type": "function"
    },
    {
      "inputs": [],
      "name": "terms",
      "outputs": [
        {
          "internalType": "string",
          "name": "",
          "type": "string"
        }
      ],
      "stateMutability": "view",
      "type": "function"
    },
    {
      "inputs": [],
      "name": "totalSupply",
      "outputs": [
        {
          "internalType": "uint256",
          "name": "",
          "type": "uint256"
        }
      ],
      "stateMutability": "view",
      "type": "function"
    },
    {
      "inputs": [],
      "name": "totalVotingTokens",
      "outputs": [
        {
          "internalType": "uint256",
          "name": "",
          "type": "uint256"
        }
      ],
      "stateMutability": "view",
      "type": "function"
    },
    {
      "inputs": [
        {
          "internalType": "address",
          "name": "to",
          "type": "address"
        },
        {
          "internalType": "uint256",
          "name": "value",
          "type": "uint256"
        }
      ],
      "name": "transfer",
      "outputs": [
        {
          "internalType": "bool",
          "name": "",
          "type": "bool"
        }
      ],
      "stateMutability": "nonpayable",
      "type": "function"
    },
    {
      "inputs": [
        {
          "internalType": "address",
          "name": "recipient",
          "type": "address"
        },
        {
          "internalType": "uint256",
          "name": "amount",
          "type": "uint256"
        },
        {
          "internalType": "bytes",
          "name": "data",
          "type": "bytes"
        }
      ],
      "name": "transferAndCall",
      "outputs": [
        {
          "internalType": "bool",
          "name": "",
          "type": "bool"
        }
      ],
      "stateMutability": "nonpayable",
      "type": "function"
    },
    {
      "inputs": [
        {
          "internalType": "address",
          "name": "sender",
          "type": "address"
        },
        {
          "internalType": "address",
          "name": "recipient",
          "type": "address"
        },
        {
          "internalType": "uint256",
          "name": "amount",
          "type": "uint256"
        }
      ],
      "name": "transferFrom",
      "outputs": [
        {
          "internalType": "bool",
          "name": "",
          "type": "bool"
        }
      ],
      "stateMutability": "nonpayable",
      "type": "function"
    },
    {
      "inputs": [
        {
          "internalType": "uint256",
          "name": "amount",
          "type": "uint256"
        }
      ],
      "name": "unwrap",
      "outputs": [],
      "stateMutability": "nonpayable",
      "type": "function"
    },
    {
      "inputs": [],
      "name": "unwrapConversionFactor",
      "outputs": [
        {
          "internalType": "uint256",
          "name": "",
          "type": "uint256"
        }
      ],
      "stateMutability": "view",
      "type": "function"
    },
    {
      "inputs": [],
      "name": "votePeriod",
      "outputs": [
        {
          "internalType": "uint256",
          "name": "",
          "type": "uint256"
        }
      ],
      "stateMutability": "view",
      "type": "function"
    },
    {
      "inputs": [
        {
          "internalType": "address",
          "name": "voter",
          "type": "address"
        }
      ],
      "name": "votingPower",
      "outputs": [
        {
          "internalType": "uint256",
          "name": "",
          "type": "uint256"
        }
      ],
      "stateMutability": "view",
      "type": "function"
    },
    {
      "inputs": [
        {
          "internalType": "address",
          "name": "shareholder",
          "type": "address"
        },
        {
          "internalType": "uint256",
          "name": "amount",
          "type": "uint256"
        }
      ],
      "name": "wrap",
      "outputs": [],
      "stateMutability": "nonpayable",
      "type": "function"
    },
    {
      "inputs": [],
      "name": "wrapped",
      "outputs": [
        {
          "internalType": "contract IERC20",
          "name": "",
          "type": "address"
        }
      ],
      "stateMutability": "view",
      "type": "function"
    }
  ],
  "transactionHash": "0x94690b4874a74d1923af5e032ce3a436d78963029a25c2f6dcdd27f1903ac61c",
  "args": [
    "https://www.sdx.com/",
    "0xF561c6E3e31E98Eba8a110c243D70119B43A394f",
    7500,
    5184000,
    "0xc6AfD3b605957b9BA94143F59d451c657F507516",
    "0x1B8Bf880E17FE5D8B2432A102346424B3237b2A7",
    "0x13Fed16501AA797768A13CB14dBdB4e24c12553C"
  ],
  "numDeployments": 1,
  "solcInputHash": "14a4c6bc15bb6e7152c3b1e01827d7f6",
  "bytecode": "0x61010060405260006004553480156200001757600080fd5b5060405162002b7838038062002b788339810160408190526200003a91620001e0565b600380546001600160a81b0319166101006001600160a01b03898116919091029190911790915560a086905260c0859052606083811b6001600160601b0319908116608052600680546001600160a01b0319169385169390931790925584901b1660e0528651620000b390600a9060208a01906200011d565b50604051636427ed9760e01b8152600060048201526001600160a01b03841690636427ed9790602401600060405180830381600087803b158015620000f757600080fd5b505af11580156200010c573d6000803e3d6000fd5b50505050505050505050506200036f565b8280546200012b906200031c565b90600052602060002090601f0160209004810192826200014f57600085556200019a565b82601f106200016a57805160ff19168380011785556200019a565b828001600101855582156200019a579182015b828111156200019a5782518255916020019190600101906200017d565b50620001a8929150620001ac565b5090565b5b80821115620001a85760008155600101620001ad565b80516001600160a01b0381168114620001db57600080fd5b919050565b600080600080600080600060e0888a031215620001fc57600080fd5b87516001600160401b03808211156200021457600080fd5b818a0191508a601f8301126200022957600080fd5b8151818111156200023e576200023e62000359565b604051601f8201601f19908116603f0116810190838211818310171562000269576200026962000359565b81604052828152602093508d848487010111156200028657600080fd5b600091505b82821015620002aa57848201840151818301850152908301906200028b565b82821115620002bc5760008484830101525b9a50620002ce9150508a8201620001c3565b975050506040880151945060608801519350620002ee60808901620001c3565b9250620002fe60a08901620001c3565b91506200030e60c08901620001c3565b905092959891949750929550565b600181811c908216806200033157607f821691505b602082108114156200035357634e487b7160e01b600052602260045260246000fd5b50919050565b634e487b7160e01b600052604160045260246000fd5b60805160601c60a05160c05160e05160601c61278a620003ee600039600081816107f301528181610b9e01528181610dd8015281816111b8015281816116790152611b2101526000818161065d01526114f9015260008181610360015281816114d3015261181d0152600081816107310152611522015261278a6000f3fe60806040526004361061027d5760003560e01c80637dc0d1d01161014f578063c07473f6116100c1578063dd62ed3e1161007a578063dd62ed3e1461079b578063ddceafa9146107e1578063de0e9a3e14610815578063e5b824ec14610835578063f5c0b95f14610855578063fcb79a7e1461087557600080fd5b8063c07473f6146106df578063c18172c4146106ff578063c45a01551461071f578063d502562514610753578063d505accf14610768578063dcc7d4ad1461078857600080fd5b80639e4b5745116101135780639e4b574514610615578063a4c0ed361461062b578063a78135871461064b578063a9059cbb1461067f578063bf376c7a1461069f578063c028df06146106bf57600080fd5b80637dc0d1d0146105885780637dc2cd98146105a85780637ecebe00146105be5780638fd3ab80146105eb57806395d89b411461060057600080fd5b806332a7ae95116101f357806350e70d48116101ac57806350e70d48146104cd57806360918117146104f2578063648bf7741461050857806370a082311461052857806377e071ad146105485780637adbf9731461056857600080fd5b806332a7ae951461042357806332bc320b146104435780633644e515146104585780634000aea01461046d57806342966c681461048d57806345c8a62b146104ad57600080fd5b80631703a018116102455780631703a0181461034e57806318160ddd14610382578063198453541461039757806323b872dd146103b95780632a0a4ed5146103d9578063313ce567146103f757600080fd5b806306fdde03146102825780630832e470146102ad578063095ea7b3146102d15780630a81b2de146103015780630c6f0e5d14610316575b600080fd5b34801561028e57600080fd5b50610297610895565b6040516102a49190612559565b60405180910390f35b3480156102b957600080fd5b506102c360045481565b6040519081526020016102a4565b3480156102dd57600080fd5b506102f16102ec366004612229565b61096b565b60405190151581526020016102a4565b34801561030d57600080fd5b506102c3610981565b34801561032257600080fd5b50600754610336906001600160a01b031681565b6040516001600160a01b0390911681526020016102a4565b34801561035a57600080fd5b506102c37f000000000000000000000000000000000000000000000000000000000000000081565b34801561038e57600080fd5b506002546102c3565b3480156103a357600080fd5b506103b76103b2366004612229565b610a0e565b005b3480156103c557600080fd5b506102f16103d436600461217a565b610aba565b3480156103e557600080fd5b506006546001600160a01b0316610336565b34801561040357600080fd5b506003546104119060ff1681565b60405160ff90911681526020016102a4565b34801561042f57600080fd5b506103b761043e366004612124565b610b31565b34801561044f57600080fd5b506103b7610bfe565b34801561046457600080fd5b506102c3610c3a565b34801561047957600080fd5b506102f1610488366004612255565b610c93565b34801561049957600080fd5b506103b76104a8366004612438565b610d33565b3480156104b957600080fd5b506103b76104c8366004612124565b610d94565b3480156104d957600080fd5b506003546103369061010090046001600160a01b031681565b3480156104fe57600080fd5b506102c360085481565b34801561051457600080fd5b506103b7610523366004612141565b610dcd565b34801561053457600080fd5b506102c3610543366004612124565b610e28565b34801561055457600080fd5b506102c3610563366004612124565b610e4c565b34801561057457600080fd5b506103b7610583366004612124565b610f40565b34801561059457600080fd5b50600654610336906001600160a01b031681565b3480156105b457600080fd5b5062ed4e006102c3565b3480156105ca57600080fd5b506102c36105d9366004612124565b60096020526000908152604090205481565b3480156105f757600080fd5b506103b7610fdc565b34801561060c57600080fd5b50610297610fe9565b34801561062157600080fd5b50600454156102f1565b34801561063757600080fd5b506102f1610646366004612255565b611099565b34801561065757600080fd5b506102c37f000000000000000000000000000000000000000000000000000000000000000081565b34801561068b57600080fd5b506102f161069a366004612229565b6110d5565b3480156106ab57600080fd5b506103b76106ba366004612229565b6110e8565b3480156106cb57600080fd5b50600554610336906001600160a01b031681565b3480156106eb57600080fd5b506102c36106fa366004612124565b61119c565b34801561070b57600080fd5b506103b761071a366004612124565b6111ad565b34801561072b57600080fd5b506103367f000000000000000000000000000000000000000000000000000000000000000081565b34801561075f57600080fd5b50610297611202565b34801561077457600080fd5b506103b76107833660046121bb565b611290565b6103b7610796366004612335565b611480565b3480156107a757600080fd5b506102c36107b6366004612141565b6001600160a01b03918216600090815260016020908152604080832093909416825291909152205490565b3480156107ed57600080fd5b506103367f000000000000000000000000000000000000000000000000000000000000000081565b34801561082157600080fd5b506103b7610830366004612438565b611642565b34801561084157600080fd5b506103b7610850366004612124565b61166e565b34801561086157600080fd5b506102f16108703660046122de565b6116c3565b34801561088157600080fd5b506103b7610890366004612141565b6116cf565b60606000600360019054906101000a90046001600160a01b03166001600160a01b03166306fdde036040518163ffffffff1660e01b815260040160006040518083038186803b1580156108e757600080fd5b505afa1580156108fb573d6000803e3d6000fd5b505050506040513d6000823e601f3d908101601f19168201604052610923919081019061238b565b905061092f6004541590565b1561095a578060405160200161094591906124c4565b60405160208183030381529060405291505090565b806040516020016109459190612496565b6000610978338484611717565b50600192915050565b6000600360019054906101000a90046001600160a01b03166001600160a01b0316633a98ef396040518163ffffffff1660e01b815260040160206040518083038186803b1580156109d157600080fd5b505afa1580156109e5573d6000803e3d6000fd5b505050506040513d601f19601f82011682018060405250810190610a099190612451565b905090565b6006546001600160a01b03163314610a5a5760405162461bcd60e51b815260206004820152600a6024820152696e6f74206f7261636c6560b01b60448201526064015b60405180910390fd5b610a62610981565b81610a6c60025490565b610a769190612619565b1115610aac5760405162461bcd60e51b8152602060048201526005602482015264766f74657360d81b6044820152606401610a51565b610ab68282611779565b5050565b6000610ac78484846118e6565b6001600160a01b0384166000908152600160209081526040808320338452909152902054600160ff1b811015610b2657610b018382612697565b6001600160a01b03861660009081526001602090815260408083203384529091529020555b506001949350505050565b6006546001600160a01b03163314610b7f5760405162461bcd60e51b81526020600482015260116024820152703737ba1031b630b4b6903232b632ba32b960791b6044820152606401610a51565b6040516332a7ae9560e01b81526001600160a01b0382811660048301527f000000000000000000000000000000000000000000000000000000000000000016906332a7ae95906024015b600060405180830381600087803b158015610be357600080fd5b505af1158015610bf7573d6000803e3d6000fd5b5050505050565b6005546001600160a01b03163314610c285760405162461bcd60e51b8152600401610a51906125b1565b600580546001600160a01b0319169055565b604080517f47e79534a245952e8b16893a336b85a3d9ea9fa8c573f3d803afb92a794692186020820152469181019190915230606082015260009060800160405160208183030381529060405280519060200120905090565b6000610c9f85856110d5565b8015610d2a5750604051635260769b60e11b81526001600160a01b0386169063a4c0ed3690610cd8903390889088908890600401612511565b602060405180830381600087803b158015610cf257600080fd5b505af1158015610d06573d6000803e3d6000fd5b505050506040513d601f19601f82011682018060405250810190610d2a9190612313565b95945050505050565b610d3d338261194a565b6003546001600160a01b03610100909104166342966c68610d5e6004541590565b610d7457600454610d6f9084612678565b610d76565b825b6040518263ffffffff1660e01b8152600401610bc991815260200190565b6005546001600160a01b03163314610dbe5760405162461bcd60e51b8152600401610a51906125b1565b610dca816001806119be565b50565b336001600160a01b037f00000000000000000000000000000000000000000000000000000000000000001614610e155760405162461bcd60e51b8152600401610a51906125f3565b610ab68282610e2385610e28565b6118e6565b6001600160a01b03166000908152602081905260409020546001600160e01b031690565b600080610e5883611a22565b90508015610e665792915050565b6000610e726004541590565b610e7e57600454610e81565b60015b6003549091506001600160a01b03858116610100909204161415610ea6579392505050565b6003546040516377e071ad60e01b81526001600160a01b0386811660048301528392610100900416906377e071ad9060240160206040518083038186803b158015610ef057600080fd5b505afa158015610f04573d6000803e3d6000fd5b505050506040513d601f19601f82011682018060405250810190610f289190612451565b610f329190612678565b949350505050565b50919050565b6006546001600160a01b03163314610f875760405162461bcd60e51b815260206004820152600a6024820152696e6f74206f7261636c6560b01b6044820152606401610a51565b600680546001600160a01b0319166001600160a01b0383169081179091556040519081527fc3977c9522c218453912bcab15964a7788968fbf3fe4d4e2965252c9f07055de906020015b60405180910390a150565b610fe7336000611779565b565b6060600360019054906101000a90046001600160a01b03166001600160a01b03166395d89b416040518163ffffffff1660e01b815260040160006040518083038186803b15801561103957600080fd5b505afa15801561104d573d6000803e3d6000fd5b505050506040513d6000823e601f3d908101601f19168201604052611075919081019061238b565b60405160200161108591906124ec565b604051602081830303815290604052905090565b60035460009061010090046001600160a01b031633146110cb5760405162461bcd60e51b8152600401610a51906125b1565b610b268585611a68565b60006110e18383611ad4565b9392505050565b6003546040516323b872dd60e01b8152336004820152306024820152604481018390526101009091046001600160a01b0316906323b872dd90606401602060405180830381600087803b15801561113e57600080fd5b505af1158015611152573d6000803e3d6000fd5b505050506040513d601f19601f820116820180604052508101906111769190612313565b6111925760405162461bcd60e51b8152600401610a51906125d1565b610ab68282611a68565b60006111a782610e28565b92915050565b336001600160a01b037f000000000000000000000000000000000000000000000000000000000000000016146111f55760405162461bcd60e51b8152600401610a51906125f3565b610dca81600a60016119be565b600a805461120f906126de565b80601f016020809104026020016040519081016040528092919081815260200182805461123b906126de565b80156112885780601f1061125d57610100808354040283529160200191611288565b820191906000526020600020905b81548152906001019060200180831161126b57829003601f168201915b505050505081565b428410156112e05760405162461bcd60e51b815260206004820152601760248201527f5045524d49545f444541444c494e455f455850495245440000000000000000006044820152606401610a51565b600060016112ec610c3a565b6001600160a01b038a811660008181526009602090815260409182902080546001810190915582517f6e71edae12b1b97f4d1f60370fef10105fa2faae0126114a169c64845d6126c98184015280840194909452938d166060840152608083018c905260a083019390935260c08083018b90528151808403909101815260e08301909152805192019190912061190160f01b6101008301526101028201929092526101228101919091526101420160408051601f198184030181528282528051602091820120600084529083018083525260ff871690820152606081018590526080810184905260a0016020604051602081039080840390855afa1580156113f8573d6000803e3d6000fd5b5050604051601f1901519150506001600160a01b0381161580159061142e5750876001600160a01b0316816001600160a01b0316145b61146b5760405162461bcd60e51b815260206004820152600e60248201526d24a72b20a624a22fa9a4a3a722a960911b6044820152606401610a51565b611476818888611717565b5050505050505050565b600454156114a05760405162461bcd60e51b8152600401610a5190612591565b604051634dc5e43160e01b815260048101849052336024820152604481018390526001600160a01b0382811660648301527f000000000000000000000000000000000000000000000000000000000000000060848301527f000000000000000000000000000000000000000000000000000000000000000060a48301526000917f000000000000000000000000000000000000000000000000000000000000000090911690634dc5e43190349060c4016020604051808303818588803b15801561156957600080fd5b505af115801561157d573d6000803e3d6000fd5b50505050506040513d601f19601f820116820180604052508101906115a2919061236e565b90506115b86005546001600160a01b0316151590565b1561161d57600554604051637b64620f60e11b81526001600160a01b0383811660048301529091169063f6c8c41e90602401600060405180830381600087803b15801561160457600080fd5b505af1158015611618573d6000803e3d6000fd5b505050505b600580546001600160a01b0319166001600160a01b0392909216919091179055505050565b6004546116615760405162461bcd60e51b8152600401610a5190612591565b610dca3382600454611b8e565b336001600160a01b037f000000000000000000000000000000000000000000000000000000000000000016146116b65760405162461bcd60e51b8152600401610a51906125f3565b610dca81600a60006119be565b60006110e18383611c58565b6005546001600160a01b031633146116f95760405162461bcd60e51b8152600401610a51906125b1565b61170d8261170684610e28565b6001611b8e565b610ab68183611c98565b6001600160a01b0383811660008181526001602090815260408083209487168084529482529182902085905590518481527f8c5be1e5ebec7d5bd14f71427d1e84f3dd0314c0f7b2291e5b200ac8c7c3b92591015b60405180910390a3505050565b600061178483610e28565b61178e9083612619565b9050600061179a610981565b9050808211156117d45760405162461bcd60e51b8152602060048201526005602482015264766f74657360d81b6044820152606401610a51565b6005546001600160a01b0316156118185760405162461bcd60e51b815260206004820152600860248201526737379037b33332b960c11b6044820152606401610a51565b6118427f000000000000000000000000000000000000000000000000000000000000000082612678565b61184e61271084612678565b10156118855760405162461bcd60e51b815260206004820152600660248201526571756f72756d60d01b6044820152606401610a51565b61188f8485611c98565b604080516001600160a01b038616815260208101849052908101849052606081018290527f85e5711a70a7d2bae18e1232af474d82c98600b0e62fe079a28208520b58568e9060800160405180910390a150505050565b6118f1838383611e88565b6118fb8382611e93565b6119058282611f29565b816001600160a01b0316836001600160a01b03167fddf252ad1be2c89b69c2b068fc378daa952ba7f163c4a11628f55a4df523b3ef8360405161176c91815260200190565b61195682600083611e88565b80600260008282546119689190612697565b9091555061197890508282611e93565b6040518181526000906001600160a01b038416907fddf252ad1be2c89b69c2b068fc378daa952ba7f163c4a11628f55a4df523b3ef906020015b60405180910390a35050565b60006119cb8360e0612631565b6001600160a01b038516600090815260208190526040902054600160ff929092169190911b9150808216821483151514610bf7576001600160a01b0394909416600090815260208190526040902093189092555050565b60006001600160a01b038216301415611a3d57506001919050565b6007546001600160a01b0383811691161415611a5b57505060085490565b506000919050565b919050565b611a7460008383611e88565b8060026000828254611a869190612619565b90915550611a9690508282611f29565b6040518181526001600160a01b038316906000907fddf252ad1be2c89b69c2b068fc378daa952ba7f163c4a11628f55a4df523b3ef906020016119b2565b6000611ae08383611fd9565b611afc5760405162461bcd60e51b8152600401610a51906125d1565b611b0733600a611c58565b15610978576040516304d301a360e41b81523360048201527f00000000000000000000000000000000000000000000000000000000000000006001600160a01b031690634d301a3090602401600060405180830381600087803b158015611b6d57600080fd5b505af1158015611b81573d6000803e3d6000fd5b5050505050600192915050565b611b98838361194a565b60035461010090046001600160a01b031663a9059cbb84611bb98486612678565b6040516001600160e01b031960e085901b1681526001600160a01b0390921660048301526024820152604401602060405180830381600087803b158015611bff57600080fd5b505af1158015611c13573d6000803e3d6000fd5b505050506040513d601f19601f82011682018060405250810190611c379190612313565b611c535760405162461bcd60e51b8152600401610a51906125d1565b505050565b600080611c668360e0612631565b6001600160a01b038516600090815260208190526040902054600160ff929092169190911b9081161491505092915050565b60045415611cb85760405162461bcd60e51b8152600401610a5190612591565b6003546040516370a0823160e01b81523060048201526101009091046001600160a01b03169063a9059cbb90839083906370a082319060240160206040518083038186803b158015611d0957600080fd5b505afa158015611d1d573d6000803e3d6000fd5b505050506040513d601f19601f82011682018060405250810190611d419190612451565b6040516001600160e01b031960e085901b1681526001600160a01b0390921660048301526024820152604401602060405180830381600087803b158015611d8757600080fd5b505af1158015611d9b573d6000803e3d6000fd5b505050506040513d601f19601f82011682018060405250810190611dbf9190612313565b611ddb5760405162461bcd60e51b8152600401610a51906125d1565b60038054610100600160a81b0319166101006001600160a01b03851602179055600254610ab6906040516370a0823160e01b81523060048201526001600160a01b038516906370a082319060240160206040518083038186803b158015611e4157600080fd5b505afa158015611e55573d6000803e3d6000fd5b505050506040513d601f19601f82011682018060405250810190611e799190612451565b611e839190612656565b611fe6565b611c5383838361204b565b6001600160a01b03821660009081526020819052604081205490611eb78383612697565b90506001600160e01b031981166001600160e01b0319831614611f085760405162461bcd60e51b8152602060048201526009602482015268756e646572666c6f7760b81b6044820152606401610a51565b6001600160a01b039093166000908152602081905260409020929092555050565b6001600160a01b038216611f655760405162461bcd60e51b815260206004820152600360248201526203078360ec1b6044820152606401610a51565b6001600160a01b03821660009081526020819052604081205490611f898383612619565b90506001600160e01b031981166001600160e01b0319831614611f085760405162461bcd60e51b81526020600482015260086024820152676f766572666c6f7760c01b6044820152606401610a51565b60006109783384846118e6565b60018110156120075760405162461bcd60e51b8152600401610a5190612591565b60048190557f6c20b91d1723b78732eba64ff11ebd7966a6e4af568a00fa4f6b72c20f58b02a612035610895565b61203d610fe9565b604051610fd192919061256c565b61205483612106565b80612063575061206382612106565b15611c53576005546001600160a01b0316156120ec5760055460405163e1a1810f60e01b81526001600160a01b0385811660048301528481166024830152604482018490529091169063e1a1810f90606401600060405180830381600087803b1580156120cf57600080fd5b505af11580156120e3573d6000803e3d6000fd5b50505050505050565b6120f983600160006119be565b611c5382600160006119be565b60006111a7826001611c58565b803560ff81168114611a6357600080fd5b60006020828403121561213657600080fd5b81356110e18161273f565b6000806040838503121561215457600080fd5b823561215f8161273f565b9150602083013561216f8161273f565b809150509250929050565b60008060006060848603121561218f57600080fd5b833561219a8161273f565b925060208401356121aa8161273f565b929592945050506040919091013590565b600080600080600080600060e0888a0312156121d657600080fd5b87356121e18161273f565b965060208801356121f18161273f565b9550604088013594506060880135935061220d60808901612113565b925060a0880135915060c0880135905092959891949750929550565b6000806040838503121561223c57600080fd5b82356122478161273f565b946020939093013593505050565b6000806000806060858703121561226b57600080fd5b84356122768161273f565b935060208501359250604085013567ffffffffffffffff8082111561229a57600080fd5b818701915087601f8301126122ae57600080fd5b8135818111156122bd57600080fd5b8860208285010111156122cf57600080fd5b95989497505060200194505050565b600080604083850312156122f157600080fd5b82356122fc8161273f565b915061230a60208401612113565b90509250929050565b60006020828403121561232557600080fd5b815180151581146110e157600080fd5b60008060006060848603121561234a57600080fd5b833592506020840135915060408401356123638161273f565b809150509250925092565b60006020828403121561238057600080fd5b81516110e18161273f565b60006020828403121561239d57600080fd5b815167ffffffffffffffff808211156123b557600080fd5b818401915084601f8301126123c957600080fd5b8151818111156123db576123db612729565b604051601f8201601f19908116603f0116810190838211818310171561240357612403612729565b8160405282815287602084870101111561241c57600080fd5b61242d8360208301602088016126ae565b979650505050505050565b60006020828403121561244a57600080fd5b5035919050565b60006020828403121561246357600080fd5b5051919050565b600081518084526124828160208601602086016126ae565b601f01601f19169290920160200192915050565b600082516124a88184602087016126ae565b692028577261707065642960b01b920191825250600a01919050565b600082516124d68184602087016126ae565b632053484160e01b920191825250600401919050565b600082516124fe8184602087016126ae565b605360f81b920191825250600101919050565b6001600160a01b0385168152602081018490526060604082018190528101829052818360808301376000818301608090810191909152601f909201601f191601019392505050565b6020815260006110e1602083018461246a565b60408152600061257f604083018561246a565b8281036020840152610d2a818561246a565b6020808252600690820152653330b1ba37b960d11b604082015260600190565b60208082526006908201526539b2b73232b960d11b604082015260600190565b6020808252600890820152673a3930b739b332b960c11b604082015260600190565b6020808252600c908201526b6e6f74207265636f7665727960a01b604082015260600190565b6000821982111561262c5761262c612713565b500190565b600060ff821660ff84168060ff0382111561264e5761264e612713565b019392505050565b60008261267357634e487b7160e01b600052601260045260246000fd5b500490565b600081600019048311821515161561269257612692612713565b500290565b6000828210156126a9576126a9612713565b500390565b60005b838110156126c95781810151838201526020016126b1565b838111156126d8576000848401525b50505050565b600181811c908216806126f257607f821691505b60208210811415610f3a57634e487b7160e01b600052602260045260246000fd5b634e487b7160e01b600052601160045260246000fd5b634e487b7160e01b600052604160045260246000fd5b6001600160a01b0381168114610dca57600080fdfea2646970667358221220cddaf71bca14d67e41be2ddb680e3581aa068c81ff5b01480eb8dbc729f96c8c64736f6c63430008070033",
  "devdoc": {
    "author": "Luzius Meisser, luzius@aktionariat.com This is an ERC-20 token representing share tokens of CompanyName AG that are bound to a shareholder agreement that can be found at the URL defined in the constant 'terms'.",
    "kind": "dev",
    "methods": {
      "DOMAIN_SEPARATOR()": {
        "details": "Returns the domain separator used in the encoding of the signature for {permit}, as defined by {EIP712}."
      },
      "allowance(address,address)": {
        "details": "See `IERC20.allowance`."
      },
      "approve(address,uint256)": {
        "details": "See `IERC20.approve`. Requirements: - `spender` cannot be the zero address."
      },
      "balanceOf(address)": {
        "details": "See `IERC20.balanceOf`."
      },
      "permit(address,address,uint256,uint256,uint8,bytes32,bytes32)": {
        "details": "Sets `value` as the allowance of `spender` over ``owner``'s tokens, given ``owner``'s signed approval. IMPORTANT: The same issues {IERC20-approve} has related to transaction ordering also apply here. Emits an {Approval} event. Requirements: - `spender` cannot be the zero address. - `deadline` must be a timestamp in the future. - `v`, `r` and `s` must be a valid `secp256k1` signature from `owner` over the EIP712-formatted function arguments. - the signature must use ``owner``'s current nonce (see {nonces}). For more information on the signature format, see the https://eips.ethereum.org/EIPS/eip-2612#specification[relevant EIP section]."
      },
      "totalSupply()": {
        "details": "See `IERC20.totalSupply`."
      },
      "transferFrom(address,address,uint256)": {
        "details": "See `IERC20.transferFrom`. Emits an `Approval` event indicating the updated allowance. This is not required by the EIP. See the note at the beginning of `ERC20`; Requirements: - `sender` and `recipient` cannot be the zero address. - `sender` must have a balance of at least `value`. - the caller must have allowance for `sender`'s tokens of at least `amount`."
      }
    },
    "title": "CompanyName AG Shares SHA",
    "version": 1
  },
  "userdoc": {
    "kind": "user",
    "methods": {
      "burn(uint256)": {
        "notice": "Burns both the token itself as well as the wrapped token! If you want to get out of the shareholder agreement, use unwrap after it has been deactivated by a majority vote or acquisition. Burning only works if wrapped token supports burning. Also, the exact meaning of this operation might depend on the circumstances. Burning and reussing the wrapped token does not free the sender from the legal obligations of the shareholder agreement."
      },
      "getClaimDeleter()": {
        "notice": "Let the oracle act as deleter of invalid claims. In earlier versions, this was referring to the claim deleter of the wrapped token. But that stops working after a successful acquisition as the acquisition currency most likely does not have a claim deleter."
      },
      "getCollateralRate(address)": {
        "notice": "Returns the collateral rate for the given collateral type and 0 if that type of collateral is not accepted. By default, only the token itself is accepted at a rate of 1:1. Subclasses should override this method if they want to add additional types of collateral."
      },
      "isBinding()": {
        "notice": "Indicates that the token holders are bound to the token terms and that: - Conversion back to the wrapped token (unwrap) is not allowed - A drag-along can be performed by making an according offer - They can be migrated to a new version of this contract in accordance with the terms"
      },
      "name()": {
        "notice": "Current recommended naming convention is to add the postfix \"SHA\" to the plain shares in order to indicate that this token represents shares bound to a shareholder agreement."
      },
      "unwrap(uint256)": {
        "notice": "Decrease the number of drag-along tokens. The user gets back their shares in return "
      },
      "wrap(address,uint256)": {
        "notice": "Wraps additional tokens, thereby creating more ERC20Draggable tokens. "
      }
    },
    "version": 1
  },
  "storageLayout": {
    "storage": [
      {
        "astId": 458,
        "contract": "src/shares/DraggableShares.sol:DraggableShares",
        "label": "_balances",
        "offset": 0,
        "slot": "0",
        "type": "t_mapping(t_address,t_uint256)"
      },
      {
        "astId": 464,
        "contract": "src/shares/DraggableShares.sol:DraggableShares",
        "label": "_allowances",
        "offset": 0,
        "slot": "1",
        "type": "t_mapping(t_address,t_mapping(t_address,t_uint256))"
      },
      {
        "astId": 466,
        "contract": "src/shares/DraggableShares.sol:DraggableShares",
        "label": "_totalSupply",
        "offset": 0,
        "slot": "2",
        "type": "t_uint256"
      },
      {
        "astId": 469,
        "contract": "src/shares/DraggableShares.sol:DraggableShares",
        "label": "decimals",
        "offset": 0,
        "slot": "3",
        "type": "t_uint8"
      },
      {
        "astId": 3658,
        "contract": "src/shares/DraggableShares.sol:DraggableShares",
        "label": "wrapped",
        "offset": 1,
        "slot": "3",
        "type": "t_contract(IERC20)1242"
      },
      {
        "astId": 3664,
        "contract": "src/shares/DraggableShares.sol:DraggableShares",
        "label": "unwrapConversionFactor",
        "offset": 0,
        "slot": "4",
        "type": "t_uint256"
      },
      {
        "astId": 3668,
        "contract": "src/shares/DraggableShares.sol:DraggableShares",
        "label": "offer",
        "offset": 0,
        "slot": "5",
        "type": "t_contract(IOffer)4457"
      },
      {
        "astId": 3678,
        "contract": "src/shares/DraggableShares.sol:DraggableShares",
        "label": "oracle",
        "offset": 0,
        "slot": "6",
        "type": "t_address"
      },
      {
        "astId": 8932,
        "contract": "src/shares/DraggableShares.sol:DraggableShares",
        "label": "customCollateralAddress",
        "offset": 0,
        "slot": "7",
        "type": "t_contract(IERC20)1242"
      },
      {
        "astId": 8934,
        "contract": "src/shares/DraggableShares.sol:DraggableShares",
        "label": "customCollateralRate",
        "offset": 0,
        "slot": "8",
        "type": "t_uint256"
      },
      {
        "astId": 1044,
        "contract": "src/shares/DraggableShares.sol:DraggableShares",
        "label": "nonces",
        "offset": 0,
        "slot": "9",
        "type": "t_mapping(t_address,t_uint256)"
      },
      {
        "astId": 10006,
        "contract": "src/shares/DraggableShares.sol:DraggableShares",
        "label": "terms",
        "offset": 0,
        "slot": "10",
        "type": "t_string_storage"
      }
    ],
    "types": {
      "t_address": {
        "encoding": "inplace",
        "label": "address",
        "numberOfBytes": "20"
      },
      "t_contract(IERC20)1242": {
        "encoding": "inplace",
        "label": "contract IERC20",
        "numberOfBytes": "20"
      },
      "t_contract(IOffer)4457": {
        "encoding": "inplace",
        "label": "contract IOffer",
        "numberOfBytes": "20"
      },
      "t_mapping(t_address,t_mapping(t_address,t_uint256))": {
        "encoding": "mapping",
        "key": "t_address",
        "label": "mapping(address => mapping(address => uint256))",
        "numberOfBytes": "32",
        "value": "t_mapping(t_address,t_uint256)"
      },
      "t_mapping(t_address,t_uint256)": {
        "encoding": "mapping",
        "key": "t_address",
        "label": "mapping(address => uint256)",
        "numberOfBytes": "32",
        "value": "t_uint256"
      },
      "t_string_storage": {
        "encoding": "bytes",
        "label": "string",
        "numberOfBytes": "32"
      },
      "t_uint256": {
        "encoding": "inplace",
        "label": "uint256",
        "numberOfBytes": "32"
      },
      "t_uint8": {
        "encoding": "inplace",
        "label": "uint8",
        "numberOfBytes": "1"
      }
    }
  }
}