{
  "address": "0x331e15Ea9304c2B2A1A8f9f3d56047a8895DeCb0",
  "abi": [
    {
      "inputs": [
        {
          "internalType": "address",
          "name": "_owner",
          "type": "address"
        },
        {
          "internalType": "contract DraggableTokenFactory",
          "name": "_draggableFactory",
          "type": "address"
        },
        {
          "internalType": "contract AllowlistDraggableFactory",
          "name": "_allowlistDraggableFactory",
          "type": "address"
        }
      ],
      "stateMutability": "nonpayable",
      "type": "constructor"
    },
    {
      "inputs": [],
      "name": "InvalidOwner",
      "type": "error"
    },
    {
      "inputs": [
        {
          "internalType": "address",
          "name": "sender",
          "type": "address"
        }
      ],
      "name": "Ownable_NotOwner",
      "type": "error"
    },
    {
      "anonymous": false,
      "inputs": [
        {
          "indexed": false,
          "internalType": "contract AllowlistDraggableFactory",
          "name": "factory",
          "type": "address"
        }
      ],
      "name": "AllowlistDraggableFactoryUpdated",
      "type": "event"
    },
    {
      "anonymous": false,
      "inputs": [
        {
          "indexed": true,
          "internalType": "contract IERC20Permit",
          "name": "token",
          "type": "address"
        },
        {
          "indexed": true,
          "internalType": "address",
          "name": "owner",
          "type": "address"
        },
        {
          "indexed": false,
          "internalType": "bool",
          "name": "allowlist",
          "type": "bool"
        }
      ],
      "name": "BaseTokenCreated",
      "type": "event"
    },
    {
      "anonymous": false,
      "inputs": [
        {
          "indexed": true,
          "internalType": "contract IERC20Permit",
          "name": "draggable",
          "type": "address"
        },
        {
          "indexed": true,
          "internalType": "contract IERC20Permit",
          "name": "baseToken",
          "type": "address"
        },
        {
          "indexed": true,
          "internalType": "address",
          "name": "owner",
          "type": "address"
        },
        {
          "indexed": false,
          "internalType": "bool",
          "name": "allowlist",
          "type": "bool"
        }
      ],
      "name": "DraggableTokenCreated",
      "type": "event"
    },
    {
      "anonymous": false,
      "inputs": [
        {
          "indexed": false,
          "internalType": "contract DraggableTokenFactory",
          "name": "factory",
          "type": "address"
        }
      ],
      "name": "DraggableTokenFactoryUpdated",
      "type": "event"
    },
    {
      "anonymous": false,
      "inputs": [
        {
          "indexed": false,
          "internalType": "address",
          "name": "manager",
          "type": "address"
        }
      ],
      "name": "FactoryManagerUpdated",
      "type": "event"
    },
    {
      "anonymous": false,
      "inputs": [
        {
          "indexed": true,
          "internalType": "address",
          "name": "previousOwner",
          "type": "address"
        },
        {
          "indexed": true,
          "internalType": "address",
          "name": "newOwner",
          "type": "address"
        }
      ],
      "name": "OwnershipTransferred",
      "type": "event"
    },
    {
      "inputs": [],
      "name": "allowlistDraggableFactory",
      "outputs": [
        {
          "internalType": "contract AllowlistDraggableFactory",
          "name": "",
          "type": "address"
        }
      ],
      "stateMutability": "view",
      "type": "function"
    },
    {
      "inputs": [
        {
          "components": [
            {
              "internalType": "string",
              "name": "name",
              "type": "string"
            },
            {
              "internalType": "string",
              "name": "symbol",
              "type": "string"
            },
            {
              "internalType": "string",
              "name": "terms",
              "type": "string"
            },
            {
              "internalType": "bool",
              "name": "allowlist",
              "type": "bool"
            },
            {
              "internalType": "bool",
              "name": "draggable",
              "type": "bool"
            },
            {
              "internalType": "uint256",
              "name": "numberOfShares",
              "type": "uint256"
            },
            {
              "internalType": "uint256",
              "name": "quorumDrag",
              "type": "uint256"
            },
            {
              "internalType": "uint256",
              "name": "quorumMigration",
              "type": "uint256"
            },
            {
              "internalType": "uint256",
              "name": "votePeriod",
              "type": "uint256"
            }
          ],
          "internalType": "struct TokenConfig",
          "name": "tokenConfig",
          "type": "tuple"
        },
        {
          "internalType": "address",
          "name": "tokenOwner",
          "type": "address"
        },
        {
          "internalType": "string",
          "name": "salt",
          "type": "string"
        }
      ],
      "name": "createToken",
      "outputs": [
        {
          "internalType": "contract IERC20Permit",
          "name": "",
          "type": "address"
        }
      ],
      "stateMutability": "nonpayable",
      "type": "function"
    },
    {
      "inputs": [],
      "name": "draggableFactory",
      "outputs": [
        {
          "internalType": "contract DraggableTokenFactory",
          "name": "",
          "type": "address"
        }
      ],
      "stateMutability": "view",
      "type": "function"
    },
    {
      "inputs": [],
      "name": "getAllDraggableShares",
      "outputs": [
        {
          "internalType": "address[]",
          "name": "",
          "type": "address[]"
        }
      ],
      "stateMutability": "view",
      "type": "function"
    },
    {
      "inputs": [],
      "name": "getAllShares",
      "outputs": [
        {
          "internalType": "address[]",
          "name": "",
          "type": "address[]"
        }
      ],
      "stateMutability": "view",
      "type": "function"
    },
    {
      "inputs": [],
      "name": "manager",
      "outputs": [
        {
          "internalType": "contract FactoryManager",
          "name": "",
          "type": "address"
        }
      ],
      "stateMutability": "view",
      "type": "function"
    },
    {
      "inputs": [],
      "name": "owner",
      "outputs": [
        {
          "internalType": "address",
          "name": "",
          "type": "address"
        }
      ],
      "stateMutability": "view",
      "type": "function"
    },
    {
      "inputs": [
        {
          "internalType": "contract AllowlistDraggableFactory",
          "name": "_allowlistDraggableFactory",
          "type": "address"
        }
      ],
      "name": "setAllowlistDraggableFactory",
      "outputs": [],
      "stateMutability": "nonpayable",
      "type": "function"
    },
    {
      "inputs": [
        {
          "internalType": "contract DraggableTokenFactory",
          "name": "_draggableFactory",
          "type": "address"
        }
      ],
      "name": "setDraggableTokenFactory",
      "outputs": [],
      "stateMutability": "nonpayable",
      "type": "function"
    },
    {
      "inputs": [
        {
          "internalType": "contract FactoryManager",
          "name": "_manager",
          "type": "address"
        }
      ],
      "name": "setManager",
      "outputs": [],
      "stateMutability": "nonpayable",
      "type": "function"
    },
    {
      "inputs": [
        {
          "internalType": "address",
          "name": "newOwner",
          "type": "address"
        }
      ],
      "name": "transferOwnership",
      "outputs": [],
      "stateMutability": "nonpayable",
      "type": "function"
    }
  ],
  "transactionHash": "0x255224826fe3e816490c2e9b6604a716fad1bd53b3c792d12156b9f5a711399b",
  "args": [
    "0x39E5351E6CE3c4B19B8b0a2F5C82c511782457BE",
    "0x312E5D57c05604726107369D9AA9a6e00836DF59",
    "0x8fb463D5a601b02Ce3Fb4B93253a10fe6f9105A3"
  ],
  "numDeployments": 2,
  "solcInputHash": "84fcf43a3cf19c826709a737ca49661c",
  "bytecode": "0x608060405234801561001057600080fd5b50604051615daa380380615daa83398101604081905261002f916100c2565b600080546001600160a01b0319166001600160a01b03851690811782556040518592907f8be0079c531659141344cd1fd0a4f28419497f9722a3daafe3b4186f6b6457e0908290a350600280546001600160a01b039384166001600160a01b031991821617909155600380549290931691161790555061010f565b6001600160a01b03811681146100bf57600080fd5b50565b6000806000606084860312156100d757600080fd5b83516100e2816100aa565b60208501519093506100f3816100aa565b6040850151909250610104816100aa565b809150509250925092565b615c8c8061011e6000396000f3fe608060405234801561001057600080fd5b50600436106100a95760003560e01c8063bfd6be1311610071578063bfd6be131461012e578063c421612d14610136578063cb07ea9f14610149578063d0ebdbe71461015c578063e9c2feee1461016f578063f2fde38b1461018257600080fd5b8063481c6a75146100ae5780636415f8eb146100de5780636d23e504146100f35780637c9f986b146101065780638da5cb5b1461011b575b600080fd5b6001546100c1906001600160a01b031681565b6040516001600160a01b0390911681526020015b60405180910390f35b6100e6610195565b6040516100d591906109b3565b6003546100c1906001600160a01b031681565b610119610114366004610a18565b6101a6565b005b6000546100c1906001600160a01b031681565b6100e6610203565b610119610144366004610a18565b61020f565b6100c1610157366004610a35565b610265565b61011961016a366004610a18565b6102d7565b6002546100c1906001600160a01b031681565b610119610190366004610a18565b61032d565b60606101a16006610390565b905090565b6101ae6103a4565b600380546001600160a01b0319166001600160a01b0383169081179091556040519081527fac4b129bd7633bbd7c08aa97a9113f852732d7684338963dd51836030ca4e1ac906020015b60405180910390a150565b60606101a16004610390565b6102176103a4565b600280546001600160a01b0319166001600160a01b0383169081179091556040519081527f1f7facc5d00af6c7b050a8cc277b0535078dc61c46f3431bd9308aaf704f814e906020016101f8565b60006001600160a01b03841661028e576040516349e27cff60e01b815260040160405180910390fd5b600061029c868686866103d7565b90506102ae60a0870160808801610af9565b156102cc5760006102c2878784888861074e565b92506102cf915050565b90505b949350505050565b6102df6103a4565b600180546001600160a01b0319166001600160a01b0383169081179091556040519081527f7374c03893422e168ea189118b40932f7c665b7dbcd921b4d7580ca758cc1e40906020016101f8565b6103356103a4565b600080546040516001600160a01b03808516939216917f8be0079c531659141344cd1fd0a4f28419497f9722a3daafe3b4186f6b6457e091a3600080546001600160a01b0319166001600160a01b0392909216919091179055565b6060600061039d836108d0565b9392505050565b6000546001600160a01b031633146103d5576040516396a19be960e01b815233600482015260240160405180910390fd5b565b6000806103e76020870187610b14565b85856040516020016103fc9493929190610b62565b60408051601f19818403018152919052805160209091012090506104266080870160608801610af9565b1561058b57806104396020880188610b14565b6104438980610b14565b61045060408c018c610b14565b8c60a00135600160009054906101000a90046001600160a01b03166001600160a01b0316639220623b6040518163ffffffff1660e01b8152600401602060405180830381865afa1580156104a8573d6000803e3d6000fd5b505050506040513d601f19601f820116820180604052508101906104cc9190610b84565b8d600160009054906101000a90046001600160a01b03166001600160a01b03166318efcce56040518163ffffffff1660e01b8152600401602060405180830381865afa158015610520573d6000803e3d6000fd5b505050506040513d601f19601f820116820180604052508101906105449190610b84565b60405161055090610999565b6105639a99989796959493929190610bca565b8190604051809103906000f5905080158015610583573d6000803e3d6000fd5b5091506106e7565b806105996020880188610b14565b6105a38980610b14565b6105b060408c018c610b14565b8c60a001358c600160009054906101000a90046001600160a01b03166001600160a01b0316639220623b6040518163ffffffff1660e01b8152600401602060405180830381865afa158015610609573d6000803e3d6000fd5b505050506040513d601f19601f8201168201806040525081019061062d9190610b84565b600160009054906101000a90046001600160a01b03166001600160a01b03166318efcce56040518163ffffffff1660e01b8152600401602060405180830381865afa158015610680573d6000803e3d6000fd5b505050506040513d601f19601f820116820180604052508101906106a49190610b84565b6040516106b0906109a6565b6106c39a99989796959493929190610bca565b8190604051809103906000f59050801580156106e3573d6000803e3d6000fd5b5091505b6106f260048361092c565b506001600160a01b038086169083167fab0065b350a39635c2edc016f65cc72b6ca6e2ddd0275013f7c922a3469bbfd861073260808a0160608b01610af9565b604051901515815260200160405180910390a350949350505050565b60006107606080870160608801610af9565b156107e7576003546040516326ff226960e11b81526001600160a01b0390911690634dfe44d29061079d9089908990899089908990600401610c81565b6020604051808303816000875af11580156107bc573d6000803e3d6000fd5b505050506040513d601f19601f820116820180604052508101906107e09190610b84565b9050610865565b6002546040516329d97d1760e21b81526001600160a01b039091169063a765f45c9061081f9089908990899089908990600401610c81565b6020604051808303816000875af115801561083e573d6000803e3d6000fd5b505050506040513d601f19601f820116820180604052508101906108629190610b84565b90505b61087060068261092c565b506001600160a01b03808616908581169083167fb115cb2bd1e10e7f14236a88f05ede66f4058b4efb64df341224dd1c13c402106108b460808b0160608c01610af9565b604051901515815260200160405180910390a495945050505050565b60608160000180548060200260200160405190810160405280929190818152602001828054801561092057602002820191906000526020600020905b81548152602001906001019080831161090c575b50505050509050919050565b6000610941836001600160a01b03841661094a565b90505b92915050565b600081815260018301602052604081205461099157508154600181810184556000848152602080822090930184905584548482528286019093526040902091909155610944565b506000610944565b612a3880610d9c83390190565b612483806137d483390190565b6020808252825182820181905260009190848201906040850190845b818110156109f45783516001600160a01b0316835292840192918401916001016109cf565b50909695505050505050565b6001600160a01b0381168114610a1557600080fd5b50565b600060208284031215610a2a57600080fd5b813561039d81610a00565b60008060008060608587031215610a4b57600080fd5b843567ffffffffffffffff80821115610a6357600080fd5b908601906101208289031215610a7857600080fd5b909450602086013590610a8a82610a00565b90935060408601359080821115610aa057600080fd5b818701915087601f830112610ab457600080fd5b813581811115610ac357600080fd5b886020828501011115610ad557600080fd5b95989497505060200194505050565b80358015158114610af457600080fd5b919050565b600060208284031215610b0b57600080fd5b61094182610ae4565b6000808335601e19843603018112610b2b57600080fd5b83018035915067ffffffffffffffff821115610b4657600080fd5b602001915036819003821315610b5b57600080fd5b9250929050565b8385823760008482016000815283858237600093019283525090949350505050565b600060208284031215610b9657600080fd5b815161039d81610a00565b81835281816020850137506000828201602090810191909152601f909101601f19169091010190565b60e081526000610bde60e083018c8e610ba1565b8281036020840152610bf1818b8d610ba1565b90508281036040840152610c0681898b610ba1565b606084019790975250506001600160a01b03938416608082015291831660a083015290911660c0909101529695505050505050565b6000808335601e19843603018112610c5257600080fd5b830160208101925035905067ffffffffffffffff811115610c7257600080fd5b803603821315610b5b57600080fd5b608081526000610c918788610c3b565b610120806080860152610ca96101a086018385610ba1565b9250610cb860208b018b610c3b565b9250607f19808786030160a0880152610cd2858584610ba1565b9450610ce160408d018d610c3b565b94509150808786030160c088015250610cfb848483610ba1565b935050610d0a60608b01610ae4565b80151560e08701529150610d2060808b01610ae4565b9150610100610d328187018415159052565b60a08b01359186019190915260c08a013561014086015260e08a0135610160860152890135610180850152506001600160a01b03871660208401526001600160a01b03861660408401528281036060840152610d8f818587610ba1565b9897505050505050505056fe60c060405234801561001057600080fd5b50604051612a38380380612a3883398101604081905261002f916103a0565b6003805460ff191690556001600160a01b03838116608052600580546001600160a01b03191691841691821790556040518891889188918891879189918891829189918991600091889182919084907f8be0079c531659141344cd1fd0a4f28419497f9722a3daafe3b4186f6b6457e0908290a3506100ae8484610155565b505050506001600160a01b031660a052600a84905560096100cf86826104f3565b506000600b819055604051636427ed9760e01b815260048101919091526001600160a01b03831690636427ed9790602401600060405180830381600087803b15801561011a57600080fd5b505af115801561012e573d6000803e3d6000fd5b505050505050505050505061014960016101ac60201b60201c565b50505050505050610639565b600761016183826104f3565b50600661016e82826104f3565b507f6c20b91d1723b78732eba64ff11ebd7966a6e4af568a00fa4f6b72c20f58b02a81836040516101a09291906105de565b60405180910390a15050565b600c805460ff191682158015919091179091556101d2576101cf600060046101d9565b50565b6101cf6000805b6101eb82601460ff8416600114610254565b6101fd82601560ff8416600214610254565b61020f82601660ff8416600414610254565b60405160ff821681526001600160a01b038316907fe423d7d31023dbacefed7c937785d0012ad8f314381295efebfc0471d2c434549060200160405180910390a25050565b60006102618360e061060c565b6001600160a01b038516600090815260208190526040902054600160ff929092169190911b91508082168214831515146102b3576001600160a01b038516600090815260208190526040902081831890555b5050505050565b634e487b7160e01b600052604160045260246000fd5b60005b838110156102eb5781810151838201526020016102d3565b50506000910152565b600082601f83011261030557600080fd5b81516001600160401b038082111561031f5761031f6102ba565b604051601f8301601f19908116603f01168101908282118183101715610347576103476102ba565b8160405283815286602085880101111561036057600080fd5b6103718460208301602089016102d0565b9695505050505050565b6001600160a01b03811681146101cf57600080fd5b805161039b8161037b565b919050565b600080600080600080600060e0888a0312156103bb57600080fd5b87516001600160401b03808211156103d257600080fd5b6103de8b838c016102f4565b985060208a01519150808211156103f457600080fd5b6104008b838c016102f4565b975060408a015191508082111561041657600080fd5b506104238a828b016102f4565b95505060608801519350608088015161043b8161037b565b60a089015190935061044c8161037b565b915061045a60c08901610390565b905092959891949750929550565b600181811c9082168061047c57607f821691505b60208210810361049c57634e487b7160e01b600052602260045260246000fd5b50919050565b601f8211156104ee576000816000526020600020601f850160051c810160208610156104cb5750805b601f850160051c820191505b818110156104ea578281556001016104d7565b5050505b505050565b81516001600160401b0381111561050c5761050c6102ba565b6105208161051a8454610468565b846104a2565b602080601f831160018114610555576000841561053d5750858301515b600019600386901b1c1916600185901b1785556104ea565b600085815260208120601f198616915b8281101561058457888601518255948401946001909101908401610565565b50858210156105a25787850151600019600388901b60f8161c191681555b5050505050600190811b01905550565b600081518084526105ca8160208601602086016102d0565b601f01601f19169290920160200192915050565b6040815260006105f160408301856105b2565b828103602084015261060381856105b2565b95945050505050565b60ff818116838216019081111561063357634e487b7160e01b600052601160045260246000fd5b92915050565b60805160a0516123b061068860003960008181610363015261182701526000818161061b0152818161083501528181610cd401528181610ebb015281816110d0015261179001526123b06000f3fe608060405234801561001057600080fd5b50600436106102d65760003560e01c806370a0823111610182578063b1c8db66116100e9578063ddceafa9116100a2578063f2fde38b1161007c578063f2fde38b14610663578063f54fc06014610676578063f5c0b95f14610689578063ffa1ad741461069c57600080fd5b8063ddceafa914610616578063e445d70a1461063d578063e5b824ec1461065057600080fd5b8063b1c8db66146105b5578063c18172c4146105c8578063d37a9bb0146105db578063d5025625146105e8578063d505accf146105f0578063dd62ed3e1461060357600080fd5b806395d89b411161013b57806395d89b41146105595780639e37878c14610561578063a49a7cb114610574578063a77384c114610587578063a9059cbb1461059a578063b0d04c7a146105ad57600080fd5b806370a08231146104e457806377e071ad146104f757806378f86afc1461050a5780637dc2cd981461051d5780637ecebe00146105265780638da5cb5b1461054657600080fd5b806337a8129c1161024157806342966c68116101fa5780635c707f07116101d45780635c707f07146104a25780635d6624b7146104b557806360918117146104c8578063648bf774146104d157600080fd5b806342966c6814610469578063429c66f01461047c578063487346b21461048f57600080fd5b806337a8129c1461040b5780633a1cdf32146104145780633a98ef39146104275780634000aea0146104305780634029a3ce1461044357806340c10f191461045657600080fd5b806323b872dd1161029357806323b872dd1461039a5780632a0a4ed5146103ad5780632b343099146103be578063313ce567146103d157806332a7ae95146103f05780633644e5151461040357600080fd5b806306fdde03146102db578063095ea7b3146102f95780630c6f0e5d1461031c57806318160ddd1461034c57806318efcce51461035e5780631f0f06aa14610385575b600080fd5b6102e36106a4565b6040516102f09190611ad9565b60405180910390f35b61030c610307366004611b01565b610732565b60405190151581526020016102f0565b6003546103349061010090046001600160a01b031681565b6040516001600160a01b0390911681526020016102f0565b6002545b6040519081526020016102f0565b6103347f000000000000000000000000000000000000000000000000000000000000000081565b610398610393366004611b76565b610749565b005b61030c6103a8366004611bb8565b61078e565b6005546001600160a01b0316610334565b61030c6103cc366004611bf9565b6107ef565b6003546103de9060ff1681565b60405160ff90911681526020016102f0565b6103986103fe366004611bf9565b6107fc565b610350610894565b610350600b5481565b610398610422366004611b01565b6108ed565b610350600a5481565b61030c61043e366004611c16565b610903565b610398610451366004611cb7565b610994565b610398610464366004611b01565b610a2f565b610398610477366004611d17565b610a41565b61039861048a366004611d41565b610a59565b61039861049d366004611d95565b610aaa565b6103986104b0366004611ee7565b610c09565b6103986104c3366004611c16565b610c1b565b61035060045481565b6103986104df366004611f4b565b610ccf565b6103506104f2366004611bf9565b610d0b565b610350610505366004611bf9565b610d2f565b610398610518366004611f84565b610d79565b62ed4e00610350565b610350610534366004611bf9565b60086020526000908152604090205481565b600554610334906001600160a01b031681565b6102e3610dc8565b61030c61056f366004611bf9565b610dd5565b610398610582366004611fc1565b610de2565b610398610595366004611d17565b610df4565b61030c6105a8366004611b01565b610e68565b610350610e7b565b61030c6105c3366004611bf9565b610e98565b6103986105d6366004611bf9565b610eb6565b600c5461030c9060ff1681565b6102e3610eec565b6103986105fe366004611ff6565b610ef9565b610350610611366004611f4b565b6110ae565b6103347f000000000000000000000000000000000000000000000000000000000000000081565b61039861064b366004612072565b6110ba565b61039861065e366004611bf9565b6110cb565b610398610671366004611bf9565b611101565b61039861068436600461208f565b611165565b61030c610697366004611fc1565b611201565b6103de600481565b600680546106b190612102565b80601f01602080910402602001604051908101604052809291908181526020018280546106dd90612102565b801561072a5780601f106106ff5761010080835404028352916020019161072a565b820191906000526020600020905b81548152906001019060200180831161070d57829003601f168201915b505050505081565b600061073f33848461120d565b5060015b92915050565b61075161126f565b7f07ce702fc13ca0620c174dab22996a6d5fd9e7accb663555a4e85323692706ba8282604051610782929190612165565b60405180910390a15050565b600061079b84848461129e565b60006107a785336110ae565b9050600160ff1b8110156107e4576107bf838261218f565b6001600160a01b03861660009081526001602090815260408083203384529091529020555b506001949350505050565b6000610743826016611302565b6108166108116005546001600160a01b031690565b611342565b6040516332a7ae9560e01b81526001600160a01b0382811660048301527f000000000000000000000000000000000000000000000000000000000000000016906332a7ae9590602401600060405180830381600087803b15801561087957600080fd5b505af115801561088d573d6000803e3d6000fd5b5050505050565b604080517f47e79534a245952e8b16893a336b85a3d9ea9fa8c573f3d803afb92a794692186020820152469181019190915230606082015260009060800160405160208183030381529060405280519060200120905090565b6108f561126f565b6108ff828261136d565b5050565b600061090f8585610e68565b801561098b5750604051635260769b60e11b81526001600160a01b0386169063a4c0ed36906109489033908890889088906004016121a2565b6020604051808303816000875af1158015610967573d6000803e3d6000fd5b505050506040513d601f19601f8201168201806040525081019061098b91906121d4565b95945050505050565b61099c61126f565b828181146109cc57604051634ee401dd60e11b815260048101829052602481018390526044015b60405180910390fd5b60005b81811015610a2757610a1f8686838181106109ec576109ec6121f1565b9050602002016020810190610a019190611bf9565b858584818110610a1357610a136121f1565b905060200201356113cc565b6001016109cf565b505050505050565b610a3761126f565b6108ff82826113cc565b610a4c33308361129e565b610a5630826113d6565b50565b610a6161126f565b60005b82811015610aa457610a9c848483818110610a8157610a816121f1565b9050602002016020810190610a969190611bf9565b83610de2565b600101610a64565b50505050565b85838114610ad557604051634ee401dd60e11b815260048101829052602481018590526044016109c3565b6000805b82811015610b0f57868682818110610af357610af36121f1565b9050602002013582610b059190612207565b9150600101610ad9565b50610b1a8782610a2f565b60005b82811015610bfd57876001600160a01b031663a4c0ed368b8b84818110610b4657610b466121f1565b9050602002016020810190610b5b9190611bf9565b898985818110610b6d57610b6d6121f1565b9050602002013588886040518563ffffffff1660e01b8152600401610b9594939291906121a2565b6020604051808303816000875af1158015610bb4573d6000803e3d6000fd5b505050506040513d601f19601f82011682018060405250810190610bd891906121d4565b610bf557604051631956a44d60e31b815260040160405180910390fd5b600101610b1d565b50505050505050505050565b610c1161126f565b6108ff828261144a565b610c2361126f565b6000610c2e85610d0b565b905080841115610c6a5760405163391434e360e21b81526001600160a01b038616600482015260248101829052604481018590526064016109c3565b83600b6000828254610c7c9190612207565b92505081905550846001600160a01b03167f0a605cd1294f60fa3b73548ac68428f33300a051f225afcdcc75e56083c96ee7858585604051610cc09392919061221a565b60405180910390a25050505050565b610cf87f0000000000000000000000000000000000000000000000000000000000000000611342565b6108ff8282610d0685610d0b565b61129e565b6001600160a01b03166000908152602081905260409020546001600160e01b031690565b6000306001600160a01b03831603610d4957506001919050565b6003546001600160a01b03610100909104811690831603610d6c57505060045490565b506000919050565b919050565b610d8161126f565b6009610d8d828261227c565b507fe9f2468ecc8d3dff15a70a5909151e6297cee4cf05268eff3d7ef0c696ec50f281604051610dbd9190611ad9565b60405180910390a150565b600780546106b190612102565b6000610743826015611302565b610dea61126f565b6108ff8282611495565b610dfc61126f565b6000610e06610e7b565b905080821015610e335760405163e9ccb41b60e01b815260048101829052602481018390526044016109c3565b600a8290556040518281527fdcbf73bf1e396dbe03ccbcd29c0aa52eb8028ae24726098296357286de4f5b2690602001610782565b6000610e748383611510565b9392505050565b6000600b54610e8960025490565b610e93919061218f565b905090565b6000610ea5826014611302565b806107435750610743826016611302565b610edf7f0000000000000000000000000000000000000000000000000000000000000000611342565b610a5681600a600161151c565b600980546106b190612102565b42841015610f2357604051630b99fc4b60e31b8152600481018590524260248201526044016109c3565b60006001610f2f610894565b6001600160a01b038a811660008181526008602090815260409182902080546001810190915582517f6e71edae12b1b97f4d1f60370fef10105fa2faae0126114a169c64845d6126c98184015280840194909452938d166060840152608083018c905260a083019390935260c08083018b90528151808403909101815260e08301909152805192019190912061190160f01b6101008301526101028201929092526101228101919091526101420160408051601f198184030181528282528051602091820120600084529083018083525260ff871690820152606081018590526080810184905260a0016020604051602081039080840390855afa15801561103b573d6000803e3d6000fd5b5050604051601f1901519150506001600160a01b03811615806110705750876001600160a01b0316816001600160a01b031614155b1561109957604051632f52260d60e11b81526001600160a01b03821660048201526024016109c3565b6110a481888861120d565b5050505050505050565b6000610e748383611580565b6110c261126f565b610a568161158c565b6110f47f0000000000000000000000000000000000000000000000000000000000000000611342565b610a5681600a600061151c565b61110961126f565b6005546040516001600160a01b038084169216907f8be0079c531659141344cd1fd0a4f28419497f9722a3daafe3b4186f6b6457e090600090a3600580546001600160a01b0319166001600160a01b0392909216919091179055565b61116f8484610a2f565b604051635260769b60e11b81526001600160a01b0385169063a4c0ed36906111a19088908790879087906004016121a2565b6020604051808303816000875af11580156111c0573d6000803e3d6000fd5b505050506040513d601f19601f820116820180604052508101906111e491906121d4565b61088d57604051631956a44d60e31b815260040160405180910390fd5b6000610e748383611302565b6001600160a01b0383811660008181526001602090815260408083209487168084529482529182902085905590518481527f8c5be1e5ebec7d5bd14f71427d1e84f3dd0314c0f7b2291e5b200ac8c7c3b92591015b60405180910390a3505050565b6005546001600160a01b0316331461129c576040516396a19be960e01b81523360048201526024016109c3565b565b6112a98383836115ba565b6112b383826115ca565b6112bd8282611667565b816001600160a01b0316836001600160a01b03167fddf252ad1be2c89b69c2b068fc378daa952ba7f163c4a11628f55a4df523b3ef8360405161126291815260200190565b6000806113108360e061233c565b6001600160a01b038516600090815260208190526040902054600160ff929092169190911b9081161491505092915050565b336001600160a01b03821614610a5657604051634b637e8f60e11b81523360048201526024016109c3565b60038054610100600160a81b0319166101006001600160a01b0385811682029290921792839055909104166113a55760006004555050565b806000036113c657604051630ece93db60e41b815260040160405180910390fd5b60045550565b6108ff828261170c565b6113e2826000836115ba565b80600260008282546113f4919061218f565b90915550611404905082826115ca565b6040518181526000906001600160a01b038416907fddf252ad1be2c89b69c2b068fc378daa952ba7f163c4a11628f55a4df523b3ef906020015b60405180910390a35050565b6007611456838261227c565b506006611463828261227c565b507f6c20b91d1723b78732eba64ff11ebd7966a6e4af568a00fa4f6b72c20f58b02a8183604051610782929190612355565b6114a782601460ff841660011461151c565b6114b982601560ff841660021461151c565b6114cb82601660ff841660041461151c565b60405160ff821681526001600160a01b038316907fe423d7d31023dbacefed7c937785d0012ad8f314381295efebfc0471d2c434549060200160405180910390a25050565b6000610e74838361175e565b60006115298360e061233c565b6001600160a01b038516600090815260208190526040902054600160ff929092169190911b915080821682148315151461088d576001600160a01b0394909416600090815260208190526040902093189092555050565b6000610e7483836117fd565b600c805460ff191682158015919091179091556115af57610a5660006004611495565b610a56600080611495565b6115c58383836118ce565b505050565b6001600160a01b038216600090815260208190526040812054906115ee838361218f565b90506001600160e01b031981166001600160e01b0319831614611646578361161585610d0b565b60405163391434e360e21b81526001600160a01b0390921660048301526024820152604481018490526064016109c3565b6001600160a01b039093166000908152602081905260409020929092555050565b6001600160a01b0382166116995760405163ec442f0560e01b81526001600160a01b03831660048201526024016109c3565b6001600160a01b038216600090815260208190526040812054906116bd8383612207565b90506001600160e01b031981166001600160e01b031983161461164657604051634a2e08e560e01b81526001600160a01b038516600482015260248101839052604481018490526064016109c3565b600081611717610e7b565b6117219190612207565b9050600a5481111561175457600a546040516340a8005d60e11b81526004810191909152602481018290526044016109c3565b6115c58383611a1a565b600061176a8383611a86565b5061177633600a611302565b1561073f576040516304d301a360e41b81523360048201527f00000000000000000000000000000000000000000000000000000000000000006001600160a01b031690634d301a3090602401600060405180830381600087803b1580156117dc57600080fd5b505af11580156117f0573d6000803e3d6000fd5b5050505050600192915050565b604051632fb6b53160e11b81526001600160a01b03838116600483015282811660248301526000917f000000000000000000000000000000000000000000000000000000000000000090911690635f6d6a6290604401602060405180830381865afa158015611870573d6000803e3d6000fd5b505050506040513d601f19601f8201168201806040525081019061189491906121d4565b156118a25750600019610743565b506001600160a01b03828116600090815260016020908152604080832093851683529290522054610743565b6118d782610e98565b6115c5576118e482610dd5565b1561192557600c5460ff161561191857604051630329a43160e51b81526001600160a01b03831660048201526024016109c3565b6115c5826015600061151c565b61192e836107ef565b1561198457611940826014600161151c565b604051600181526001600160a01b038316907fe423d7d31023dbacefed7c937785d0012ad8f314381295efebfc0471d2c434549060200160405180910390a2505050565b61198f836014611302565b156119d057600c5460ff16156119c35760405163dd1aceed60e01b81526001600160a01b03831660048201526024016109c3565b6115c5836014600061151c565b6119d983610dd5565b156115c557600c5460ff1615611a0d57604051637882255360e11b81526001600160a01b03841660048201526024016109c3565b6115c5836015600061151c565b611a26600083836115ba565b8060026000828254611a389190612207565b90915550611a4890508282611667565b6040518181526001600160a01b038316906000907fddf252ad1be2c89b69c2b068fc378daa952ba7f163c4a11628f55a4df523b3ef9060200161143e565b600061073f33848461129e565b6000815180845260005b81811015611ab957602081850181015186830182015201611a9d565b506000602082860101526020601f19601f83011685010191505092915050565b602081526000610e746020830184611a93565b6001600160a01b0381168114610a5657600080fd5b60008060408385031215611b1457600080fd5b8235611b1f81611aec565b946020939093013593505050565b60008083601f840112611b3f57600080fd5b50813567ffffffffffffffff811115611b5757600080fd5b602083019150836020828501011115611b6f57600080fd5b9250929050565b60008060208385031215611b8957600080fd5b823567ffffffffffffffff811115611ba057600080fd5b611bac85828601611b2d565b90969095509350505050565b600080600060608486031215611bcd57600080fd5b8335611bd881611aec565b92506020840135611be881611aec565b929592945050506040919091013590565b600060208284031215611c0b57600080fd5b8135610e7481611aec565b60008060008060608587031215611c2c57600080fd5b8435611c3781611aec565b935060208501359250604085013567ffffffffffffffff811115611c5a57600080fd5b611c6687828801611b2d565b95989497509550505050565b60008083601f840112611c8457600080fd5b50813567ffffffffffffffff811115611c9c57600080fd5b6020830191508360208260051b8501011115611b6f57600080fd5b60008060008060408587031215611ccd57600080fd5b843567ffffffffffffffff80821115611ce557600080fd5b611cf188838901611c72565b90965094506020870135915080821115611d0a57600080fd5b50611c6687828801611c72565b600060208284031215611d2957600080fd5b5035919050565b803560ff81168114610d7457600080fd5b600080600060408486031215611d5657600080fd5b833567ffffffffffffffff811115611d6d57600080fd5b611d7986828701611c72565b9094509250611d8c905060208501611d30565b90509250925092565b60008060008060008060006080888a031215611db057600080fd5b873567ffffffffffffffff80821115611dc857600080fd5b611dd48b838c01611c72565b909950975060208a01359150611de982611aec565b90955060408901359080821115611dff57600080fd5b611e0b8b838c01611c72565b909650945060608a0135915080821115611e2457600080fd5b50611e318a828b01611b2d565b989b979a50959850939692959293505050565b634e487b7160e01b600052604160045260246000fd5b600082601f830112611e6b57600080fd5b813567ffffffffffffffff80821115611e8657611e86611e44565b604051601f8301601f19908116603f01168101908282118183101715611eae57611eae611e44565b81604052838152866020858801011115611ec757600080fd5b836020870160208301376000602085830101528094505050505092915050565b60008060408385031215611efa57600080fd5b823567ffffffffffffffff80821115611f1257600080fd5b611f1e86838701611e5a565b93506020850135915080821115611f3457600080fd5b50611f4185828601611e5a565b9150509250929050565b60008060408385031215611f5e57600080fd5b8235611f6981611aec565b91506020830135611f7981611aec565b809150509250929050565b600060208284031215611f9657600080fd5b813567ffffffffffffffff811115611fad57600080fd5b611fb984828501611e5a565b949350505050565b60008060408385031215611fd457600080fd5b8235611fdf81611aec565b9150611fed60208401611d30565b90509250929050565b600080600080600080600060e0888a03121561201157600080fd5b873561201c81611aec565b9650602088013561202c81611aec565b9550604088013594506060880135935061204860808901611d30565b925060a0880135915060c0880135905092959891949750929550565b8015158114610a5657600080fd5b60006020828403121561208457600080fd5b8135610e7481612064565b6000806000806000608086880312156120a757600080fd5b85356120b281611aec565b945060208601356120c281611aec565b935060408601359250606086013567ffffffffffffffff8111156120e557600080fd5b6120f188828901611b2d565b969995985093965092949392505050565b600181811c9082168061211657607f821691505b60208210810361213657634e487b7160e01b600052602260045260246000fd5b50919050565b81835281816020850137506000828201602090810191909152601f909101601f19169091010190565b602081526000611fb960208301848661213c565b634e487b7160e01b600052601160045260246000fd5b8181038181111561074357610743612179565b60018060a01b03851681528360208201526060604082015260006121ca60608301848661213c565b9695505050505050565b6000602082840312156121e657600080fd5b8151610e7481612064565b634e487b7160e01b600052603260045260246000fd5b8082018082111561074357610743612179565b83815260406020820152600061098b60408301848661213c565b601f8211156115c5576000816000526020600020601f850160051c8101602086101561225d5750805b601f850160051c820191505b81811015610a2757828155600101612269565b815167ffffffffffffffff81111561229657612296611e44565b6122aa816122a48454612102565b84612234565b602080601f8311600181146122df57600084156122c75750858301515b600019600386901b1c1916600185901b178555610a27565b600085815260208120601f198616915b8281101561230e578886015182559484019460019091019084016122ef565b508582101561232c5787850151600019600388901b60f8161c191681555b5050505050600190811b01905550565b60ff818116838216019081111561074357610743612179565b6040815260006123686040830185611a93565b828103602084015261098b8185611a9356fea2646970667358221220bee7b6b8a910bcecb1e838fde4f95495b5500ed45c883cd9639983d4dbc470f064736f6c6343000819003360c060405234801561001057600080fd5b5060405161248338038061248383398101604081905261002f9161026f565b6003805460ff191690556001600160a01b03828116608052600580546001600160a01b03191691851691821790556040518291899189916000918891829184907f8be0079c531659141344cd1fd0a4f28419497f9722a3daafe3b4186f6b6457e0908290a35061009f848461012f565b505050506001600160a01b031660a052600a84905560096100c086826103c2565b506000600b819055604051636427ed9760e01b815260048101919091526001600160a01b03831690636427ed9790602401600060405180830381600087803b15801561010b57600080fd5b505af115801561011f573d6000803e3d6000fd5b50505050505050505050506104db565b600761013b83826103c2565b50600661014882826103c2565b507f6c20b91d1723b78732eba64ff11ebd7966a6e4af568a00fa4f6b72c20f58b02a818360405161017a9291906104ad565b60405180910390a15050565b634e487b7160e01b600052604160045260246000fd5b60005b838110156101b757818101518382015260200161019f565b50506000910152565b600082601f8301126101d157600080fd5b81516001600160401b03808211156101eb576101eb610186565b604051601f8301601f19908116603f0116810190828211818310171561021357610213610186565b8160405283815286602085880101111561022c57600080fd5b61023d84602083016020890161019c565b9695505050505050565b6001600160a01b038116811461025c57600080fd5b50565b805161026a81610247565b919050565b600080600080600080600060e0888a03121561028a57600080fd5b87516001600160401b03808211156102a157600080fd5b6102ad8b838c016101c0565b985060208a01519150808211156102c357600080fd5b6102cf8b838c016101c0565b975060408a01519150808211156102e557600080fd5b506102f28a828b016101c0565b95505060608801519350608088015161030a81610247565b60a089015190935061031b81610247565b915061032960c0890161025f565b905092959891949750929550565b600181811c9082168061034b57607f821691505b60208210810361036b57634e487b7160e01b600052602260045260246000fd5b50919050565b601f8211156103bd576000816000526020600020601f850160051c8101602086101561039a5750805b601f850160051c820191505b818110156103b9578281556001016103a6565b5050505b505050565b81516001600160401b038111156103db576103db610186565b6103ef816103e98454610337565b84610371565b602080601f831160018114610424576000841561040c5750858301515b600019600386901b1c1916600185901b1785556103b9565b600085815260208120601f198616915b8281101561045357888601518255948401946001909101908401610434565b50858210156104715787850151600019600388901b60f8161c191681555b5050505050600190811b01905550565b6000815180845261049981602086016020860161019c565b601f01601f19169290920160200192915050565b6040815260006104c06040830185610481565b82810360208401526104d28185610481565b95945050505050565b60805160a051611f5961052a600039600081816102f601526114200152600081816105420152818161073c01528181610b8a01528181610d3401528181610f3801526113250152611f596000f3fe608060405234801561001057600080fd5b50600436106102695760003560e01c80636091811711610151578063b0d04c7a116100c3578063ddceafa911610087578063ddceafa91461053d578063e5b824ec14610564578063f2fde38b14610577578063f54fc0601461058a578063f5c0b95f1461059d578063ffa1ad74146105b057600080fd5b8063b0d04c7a146104f4578063c18172c4146104fc578063d50256251461050f578063d505accf14610517578063dd62ed3e1461052a57600080fd5b80637dc2cd98116101155780637dc2cd981461048a5780637ecebe00146104935780638da5cb5b146104b357806395d89b41146104c6578063a77384c1146104ce578063a9059cbb146104e157600080fd5b80636091811714610435578063648bf7741461043e57806370a082311461045157806377e071ad1461046457806378f86afc1461047757600080fd5b80633644e515116101ea5780634029a3ce116101ae5780634029a3ce146103c357806340c10f19146103d657806342966c68146103e9578063487346b2146103fc5780635c707f071461040f5780635d6624b71461042257600080fd5b80633644e5151461038357806337a8129c1461038b5780633a1cdf32146103945780633a98ef39146103a75780634000aea0146103b057600080fd5b80631f0f06aa116102315780631f0f06aa1461031857806323b872dd1461032d5780632a0a4ed514610340578063313ce5671461035157806332a7ae951461037057600080fd5b806306fdde031461026e578063095ea7b31461028c5780630c6f0e5d146102af57806318160ddd146102df57806318efcce5146102f1575b600080fd5b6102766105b8565b60405161028391906116fc565b60405180910390f35b61029f61029a366004611724565b610646565b6040519015158152602001610283565b6003546102c79061010090046001600160a01b031681565b6040516001600160a01b039091168152602001610283565b6002545b604051908152602001610283565b6102c77f000000000000000000000000000000000000000000000000000000000000000081565b61032b610326366004611799565b61065d565b005b61029f61033b3660046117db565b6106a2565b6005546001600160a01b03166102c7565b60035461035e9060ff1681565b60405160ff9091168152602001610283565b61032b61037e36600461181c565b610703565b6102e361079b565b6102e3600b5481565b61032b6103a2366004611724565b6107f4565b6102e3600a5481565b61029f6103be366004611839565b61080a565b61032b6103d13660046118da565b61089b565b61032b6103e4366004611724565b610936565b61032b6103f736600461193a565b610948565b61032b61040a366004611953565b610960565b61032b61041d366004611aa5565b610abf565b61032b610430366004611839565b610ad1565b6102e360045481565b61032b61044c366004611b09565b610b85565b6102e361045f36600461181c565b610bc1565b6102e361047236600461181c565b610be5565b61032b610485366004611b42565b610c2f565b62ed4e006102e3565b6102e36104a136600461181c565b60086020526000908152604090205481565b6005546102c7906001600160a01b031681565b610276610c7e565b61032b6104dc36600461193a565b610c8b565b61029f6104ef366004611724565b610cff565b6102e3610d12565b61032b61050a36600461181c565b610d2f565b610276610d65565b61032b610525366004611b90565b610d72565b6102e3610538366004611b09565b610f27565b6102c77f000000000000000000000000000000000000000000000000000000000000000081565b61032b61057236600461181c565b610f33565b61032b61058536600461181c565b610f69565b61032b610598366004611bfe565b610fcd565b61029f6105ab366004611c71565b611069565b61035e600481565b600680546105c590611ca6565b80601f01602080910402602001604051908101604052809291908181526020018280546105f190611ca6565b801561063e5780601f106106135761010080835404028352916020019161063e565b820191906000526020600020905b81548152906001019060200180831161062157829003601f168201915b505050505081565b6000610653338484611075565b5060015b92915050565b6106656110d7565b7f07ce702fc13ca0620c174dab22996a6d5fd9e7accb663555a4e85323692706ba8282604051610696929190611d09565b60405180910390a15050565b60006106af848484611106565b60006106bb8533610f27565b9050600160ff1b8110156106f8576106d38382611d33565b6001600160a01b03861660009081526001602090815260408083203384529091529020555b506001949350505050565b61071d6107186005546001600160a01b031690565b61115f565b6040516332a7ae9560e01b81526001600160a01b0382811660048301527f000000000000000000000000000000000000000000000000000000000000000016906332a7ae9590602401600060405180830381600087803b15801561078057600080fd5b505af1158015610794573d6000803e3d6000fd5b5050505050565b604080517f47e79534a245952e8b16893a336b85a3d9ea9fa8c573f3d803afb92a794692186020820152469181019190915230606082015260009060800160405160208183030381529060405280519060200120905090565b6107fc6110d7565b610806828261118a565b5050565b60006108168585610cff565b80156108925750604051635260769b60e11b81526001600160a01b0386169063a4c0ed369061084f903390889088908890600401611d46565b6020604051808303816000875af115801561086e573d6000803e3d6000fd5b505050506040513d601f19601f820116820180604052508101906108929190611d78565b95945050505050565b6108a36110d7565b828181146108d357604051634ee401dd60e11b815260048101829052602481018390526044015b60405180910390fd5b60005b8181101561092e576109268686838181106108f3576108f3611d9a565b9050602002016020810190610908919061181c565b85858481811061091a5761091a611d9a565b905060200201356111e9565b6001016108d6565b505050505050565b61093e6110d7565b61080682826111e9565b610953333083611106565b61095d3082611240565b50565b8583811461098b57604051634ee401dd60e11b815260048101829052602481018590526044016108ca565b6000805b828110156109c5578686828181106109a9576109a9611d9a565b90506020020135826109bb9190611db0565b915060010161098f565b506109d08782610936565b60005b82811015610ab357876001600160a01b031663a4c0ed368b8b848181106109fc576109fc611d9a565b9050602002016020810190610a11919061181c565b898985818110610a2357610a23611d9a565b9050602002013588886040518563ffffffff1660e01b8152600401610a4b9493929190611d46565b6020604051808303816000875af1158015610a6a573d6000803e3d6000fd5b505050506040513d601f19601f82011682018060405250810190610a8e9190611d78565b610aab57604051631956a44d60e31b815260040160405180910390fd5b6001016109d3565b50505050505050505050565b610ac76110d7565b61080682826112a8565b610ad96110d7565b6000610ae485610bc1565b905080841115610b205760405163391434e360e21b81526001600160a01b038616600482015260248101829052604481018590526064016108ca565b83600b6000828254610b329190611db0565b92505081905550846001600160a01b03167f0a605cd1294f60fa3b73548ac68428f33300a051f225afcdcc75e56083c96ee7858585604051610b7693929190611dc3565b60405180910390a25050505050565b610bae7f000000000000000000000000000000000000000000000000000000000000000061115f565b6108068282610bbc85610bc1565b611106565b6001600160a01b03166000908152602081905260409020546001600160e01b031690565b6000306001600160a01b03831603610bff57506001919050565b6003546001600160a01b03610100909104811690831603610c2257505060045490565b506000919050565b919050565b610c376110d7565b6009610c438282611e25565b507fe9f2468ecc8d3dff15a70a5909151e6297cee4cf05268eff3d7ef0c696ec50f281604051610c7391906116fc565b60405180910390a150565b600780546105c590611ca6565b610c936110d7565b6000610c9d610d12565b905080821015610cca5760405163e9ccb41b60e01b815260048101829052602481018390526044016108ca565b600a8290556040518281527fdcbf73bf1e396dbe03ccbcd29c0aa52eb8028ae24726098296357286de4f5b2690602001610696565b6000610d0b83836112f3565b9392505050565b6000600b54610d2060025490565b610d2a9190611d33565b905090565b610d587f000000000000000000000000000000000000000000000000000000000000000061115f565b61095d81600a6001611392565b600980546105c590611ca6565b42841015610d9c57604051630b99fc4b60e31b8152600481018590524260248201526044016108ca565b60006001610da861079b565b6001600160a01b038a811660008181526008602090815260409182902080546001810190915582517f6e71edae12b1b97f4d1f60370fef10105fa2faae0126114a169c64845d6126c98184015280840194909452938d166060840152608083018c905260a083019390935260c08083018b90528151808403909101815260e08301909152805192019190912061190160f01b6101008301526101028201929092526101228101919091526101420160408051601f198184030181528282528051602091820120600084529083018083525260ff871690820152606081018590526080810184905260a0016020604051602081039080840390855afa158015610eb4573d6000803e3d6000fd5b5050604051601f1901519150506001600160a01b0381161580610ee95750876001600160a01b0316816001600160a01b031614155b15610f1257604051632f52260d60e11b81526001600160a01b03821660048201526024016108ca565b610f1d818888611075565b5050505050505050565b6000610d0b83836113f6565b610f5c7f000000000000000000000000000000000000000000000000000000000000000061115f565b61095d81600a6000611392565b610f716110d7565b6005546040516001600160a01b038084169216907f8be0079c531659141344cd1fd0a4f28419497f9722a3daafe3b4186f6b6457e090600090a3600580546001600160a01b0319166001600160a01b0392909216919091179055565b610fd78484610936565b604051635260769b60e11b81526001600160a01b0385169063a4c0ed3690611009908890879087908790600401611d46565b6020604051808303816000875af1158015611028573d6000803e3d6000fd5b505050506040513d601f19601f8201168201806040525081019061104c9190611d78565b61079457604051631956a44d60e31b815260040160405180910390fd5b6000610d0b83836114c7565b6001600160a01b0383811660008181526001602090815260408083209487168084529482529182902085905590518481527f8c5be1e5ebec7d5bd14f71427d1e84f3dd0314c0f7b2291e5b200ac8c7c3b92591015b60405180910390a3505050565b6005546001600160a01b03163314611104576040516396a19be960e01b81523360048201526024016108ca565b565b6111108382611507565b61111a82826115a4565b816001600160a01b0316836001600160a01b03167fddf252ad1be2c89b69c2b068fc378daa952ba7f163c4a11628f55a4df523b3ef836040516110ca91815260200190565b336001600160a01b0382161461095d57604051634b637e8f60e11b81523360048201526024016108ca565b60038054610100600160a81b0319166101006001600160a01b0385811682029290921792839055909104166111c25760006004555050565b806000036111e357604051630ece93db60e41b815260040160405180910390fd5b60045550565b6000816111f4610d12565b6111fe9190611db0565b9050600a5481111561123157600a546040516340a8005d60e11b81526004810191909152602481018290526044016108ca565b61123b8383611649565b505050565b80600260008282546112529190611d33565b9091555061126290508282611507565b6040518181526000906001600160a01b038416907fddf252ad1be2c89b69c2b068fc378daa952ba7f163c4a11628f55a4df523b3ef906020015b60405180910390a35050565b60076112b48382611e25565b5060066112c18282611e25565b507f6c20b91d1723b78732eba64ff11ebd7966a6e4af568a00fa4f6b72c20f58b02a8183604051610696929190611ee5565b60006112ff83836116a9565b5061130b33600a6114c7565b15610653576040516304d301a360e41b81523360048201527f00000000000000000000000000000000000000000000000000000000000000006001600160a01b031690634d301a3090602401600060405180830381600087803b15801561137157600080fd5b505af1158015611385573d6000803e3d6000fd5b5050505050600192915050565b600061139f8360e0611f0a565b6001600160a01b038516600090815260208190526040902054600160ff929092169190911b9150808216821483151514610794576001600160a01b0394909416600090815260208190526040902093189092555050565b604051632fb6b53160e11b81526001600160a01b03838116600483015282811660248301526000917f000000000000000000000000000000000000000000000000000000000000000090911690635f6d6a6290604401602060405180830381865afa158015611469573d6000803e3d6000fd5b505050506040513d601f19601f8201168201806040525081019061148d9190611d78565b1561149b5750600019610657565b506001600160a01b03828116600090815260016020908152604080832093851683529290522054610657565b6000806114d58360e0611f0a565b6001600160a01b038516600090815260208190526040902054600160ff929092169190911b9081161491505092915050565b6001600160a01b0382166000908152602081905260408120549061152b8383611d33565b90506001600160e01b031981166001600160e01b0319831614611583578361155285610bc1565b60405163391434e360e21b81526001600160a01b0390921660048301526024820152604481018490526064016108ca565b6001600160a01b039093166000908152602081905260409020929092555050565b6001600160a01b0382166115d65760405163ec442f0560e01b81526001600160a01b03831660048201526024016108ca565b6001600160a01b038216600090815260208190526040812054906115fa8383611db0565b90506001600160e01b031981166001600160e01b031983161461158357604051634a2e08e560e01b81526001600160a01b038516600482015260248101839052604481018490526064016108ca565b806002600082825461165b9190611db0565b9091555061166b905082826115a4565b6040518181526001600160a01b038316906000907fddf252ad1be2c89b69c2b068fc378daa952ba7f163c4a11628f55a4df523b3ef9060200161129c565b6000610653338484611106565b6000815180845260005b818110156116dc576020818501810151868301820152016116c0565b506000602082860101526020601f19601f83011685010191505092915050565b602081526000610d0b60208301846116b6565b6001600160a01b038116811461095d57600080fd5b6000806040838503121561173757600080fd5b82356117428161170f565b946020939093013593505050565b60008083601f84011261176257600080fd5b50813567ffffffffffffffff81111561177a57600080fd5b60208301915083602082850101111561179257600080fd5b9250929050565b600080602083850312156117ac57600080fd5b823567ffffffffffffffff8111156117c357600080fd5b6117cf85828601611750565b90969095509350505050565b6000806000606084860312156117f057600080fd5b83356117fb8161170f565b9250602084013561180b8161170f565b929592945050506040919091013590565b60006020828403121561182e57600080fd5b8135610d0b8161170f565b6000806000806060858703121561184f57600080fd5b843561185a8161170f565b935060208501359250604085013567ffffffffffffffff81111561187d57600080fd5b61188987828801611750565b95989497509550505050565b60008083601f8401126118a757600080fd5b50813567ffffffffffffffff8111156118bf57600080fd5b6020830191508360208260051b850101111561179257600080fd5b600080600080604085870312156118f057600080fd5b843567ffffffffffffffff8082111561190857600080fd5b61191488838901611895565b9096509450602087013591508082111561192d57600080fd5b5061188987828801611895565b60006020828403121561194c57600080fd5b5035919050565b60008060008060008060006080888a03121561196e57600080fd5b873567ffffffffffffffff8082111561198657600080fd5b6119928b838c01611895565b909950975060208a013591506119a78261170f565b909550604089013590808211156119bd57600080fd5b6119c98b838c01611895565b909650945060608a01359150808211156119e257600080fd5b506119ef8a828b01611750565b989b979a50959850939692959293505050565b634e487b7160e01b600052604160045260246000fd5b600082601f830112611a2957600080fd5b813567ffffffffffffffff80821115611a4457611a44611a02565b604051601f8301601f19908116603f01168101908282118183101715611a6c57611a6c611a02565b81604052838152866020858801011115611a8557600080fd5b836020870160208301376000602085830101528094505050505092915050565b60008060408385031215611ab857600080fd5b823567ffffffffffffffff80821115611ad057600080fd5b611adc86838701611a18565b93506020850135915080821115611af257600080fd5b50611aff85828601611a18565b9150509250929050565b60008060408385031215611b1c57600080fd5b8235611b278161170f565b91506020830135611b378161170f565b809150509250929050565b600060208284031215611b5457600080fd5b813567ffffffffffffffff811115611b6b57600080fd5b611b7784828501611a18565b949350505050565b803560ff81168114610c2a57600080fd5b600080600080600080600060e0888a031215611bab57600080fd5b8735611bb68161170f565b96506020880135611bc68161170f565b95506040880135945060608801359350611be260808901611b7f565b925060a0880135915060c0880135905092959891949750929550565b600080600080600060808688031215611c1657600080fd5b8535611c218161170f565b94506020860135611c318161170f565b935060408601359250606086013567ffffffffffffffff811115611c5457600080fd5b611c6088828901611750565b969995985093965092949392505050565b60008060408385031215611c8457600080fd5b8235611c8f8161170f565b9150611c9d60208401611b7f565b90509250929050565b600181811c90821680611cba57607f821691505b602082108103611cda57634e487b7160e01b600052602260045260246000fd5b50919050565b81835281816020850137506000828201602090810191909152601f909101601f19169091010190565b602081526000611b77602083018486611ce0565b634e487b7160e01b600052601160045260246000fd5b8181038181111561065757610657611d1d565b60018060a01b0385168152836020820152606060408201526000611d6e606083018486611ce0565b9695505050505050565b600060208284031215611d8a57600080fd5b81518015158114610d0b57600080fd5b634e487b7160e01b600052603260045260246000fd5b8082018082111561065757610657611d1d565b838152604060208201526000610892604083018486611ce0565b601f82111561123b576000816000526020600020601f850160051c81016020861015611e065750805b601f850160051c820191505b8181101561092e57828155600101611e12565b815167ffffffffffffffff811115611e3f57611e3f611a02565b611e5381611e4d8454611ca6565b84611ddd565b602080601f831160018114611e885760008415611e705750858301515b600019600386901b1c1916600185901b17855561092e565b600085815260208120601f198616915b82811015611eb757888601518255948401946001909101908401611e98565b5085821015611ed55787850151600019600388901b60f8161c191681555b5050505050600190811b01905550565b604081526000611ef860408301856116b6565b828103602084015261089281856116b6565b60ff818116838216019081111561065757610657611d1d56fea264697066735822122046e6f80fc771f9b49ec51675a413472d6b88dacff8307eee0a52bb7786c4231d64736f6c63430008190033a2646970667358221220735e26352bd8c21cec0d0e2df1ae9810428fa6d3528c6041b350e2143feb7fe364736f6c63430008190033",
  "devdoc": {
    "author": "rube ",
    "details": "Factory to deploy shares contracts",
    "events": {
      "AllowlistDraggableFactoryUpdated(address)": {
        "params": {
          "factory": "The new allowlist draggable token factory"
        }
      },
      "BaseTokenCreated(address,address,bool)": {
        "params": {
          "allowlist": "Indicates if the token has an allowlist",
          "owner": "The owner of the token",
          "token": "The created token"
        }
      },
      "DraggableTokenCreated(address,address,address,bool)": {
        "params": {
          "allowlist": "Indicates if the token has an allowlist",
          "baseToken": "The base token associated with the draggable token",
          "draggable": "The created draggable token",
          "owner": "The owner of the draggable token"
        }
      },
      "DraggableTokenFactoryUpdated(address)": {
        "params": {
          "factory": "The new draggable token factory"
        }
      },
      "FactoryManagerUpdated(address)": {
        "params": {
          "manager": "The new factory manager"
        }
      }
    },
    "kind": "dev",
    "methods": {
      "constructor": {
        "params": {
          "_allowlistDraggableFactory": "The address of the allowlist draggable token factory",
          "_draggableFactory": "The address of the draggable token factory",
          "_owner": "The address of the contract owner"
        }
      },
      "createToken((string,string,string,bool,bool,uint256,uint256,uint256,uint256),address,string)": {
        "params": {
          "tokenConfig": "Configuration of the token to be created",
          "tokenOwner": "The owner of the new token"
        },
        "returns": {
          "_0": "The address of the created token"
        }
      },
      "getAllDraggableShares()": {
        "returns": {
          "_0": "An array of addresses of created draggable share tokens"
        }
      },
      "getAllShares()": {
        "returns": {
          "_0": "An array of addresses of created share tokens"
        }
      },
      "setAllowlistDraggableFactory(address)": {
        "params": {
          "_allowlistDraggableFactory": "The new allowlist draggable token factory"
        }
      },
      "setDraggableTokenFactory(address)": {
        "params": {
          "_draggableFactory": "The new draggable token factory"
        }
      },
      "setManager(address)": {
        "params": {
          "_manager": "The new factory manager"
        }
      },
      "transferOwnership(address)": {
        "details": "Transfers ownership of the contract to a new account (`newOwner`). Can only be called by the current owner."
      }
    },
    "stateVariables": {
      "_draggableSet": {
        "details": "Set of addresses for created draggable tokens"
      },
      "_sharesSet": {
        "details": "Set of addresses for created share tokens"
      }
    },
    "title": "TokenFactory",
    "version": 1
  },
  "userdoc": {
    "errors": {
      "InvalidOwner()": [
        {
          "notice": "Error for invalid owner address"
        }
      ]
    },
    "events": {
      "AllowlistDraggableFactoryUpdated(address)": {
        "notice": "Emitted when the allowlist draggable token factory is updated"
      },
      "BaseTokenCreated(address,address,bool)": {
        "notice": "Emitted when a base token is created"
      },
      "DraggableTokenCreated(address,address,address,bool)": {
        "notice": "Emitted when a draggable token is created"
      },
      "DraggableTokenFactoryUpdated(address)": {
        "notice": "Emitted when the draggable token factory is updated"
      },
      "FactoryManagerUpdated(address)": {
        "notice": "Emitted when the factory manager is updated"
      }
    },
    "kind": "user",
    "methods": {
      "allowlistDraggableFactory()": {
        "notice": "Allowlist draggable token factory contract"
      },
      "constructor": {
        "notice": "Constructor for TokenFactory"
      },
      "createToken((string,string,string,bool,bool,uint256,uint256,uint256,uint256),address,string)": {
        "notice": "Creates a new token"
      },
      "draggableFactory()": {
        "notice": "Draggable token factory contract"
      },
      "getAllDraggableShares()": {
        "notice": "Gets all created draggable share tokens"
      },
      "getAllShares()": {
        "notice": "Gets all created share tokens"
      },
      "manager()": {
        "notice": "Factory manager contract"
      },
      "setAllowlistDraggableFactory(address)": {
        "notice": "Sets the allowlist draggable token factory"
      },
      "setDraggableTokenFactory(address)": {
        "notice": "Sets the draggable token factory"
      },
      "setManager(address)": {
        "notice": "Sets the factory manager"
      }
    },
    "notice": "This contract allows the creation of share tokens with optional draggable functionality and allowlist features.",
    "version": 1
  },
  "storageLayout": {
    "storage": [
      {
        "astId": 9406,
        "contract": "src/utils/factory/TokenFactory.sol:TokenFactory",
        "label": "owner",
        "offset": 0,
        "slot": "0",
        "type": "t_address"
      },
      {
        "astId": 10676,
        "contract": "src/utils/factory/TokenFactory.sol:TokenFactory",
        "label": "manager",
        "offset": 0,
        "slot": "1",
        "type": "t_contract(FactoryManager)10615"
      },
      {
        "astId": 10680,
        "contract": "src/utils/factory/TokenFactory.sol:TokenFactory",
        "label": "draggableFactory",
        "offset": 0,
        "slot": "2",
        "type": "t_contract(DraggableTokenFactory)10463"
      },
      {
        "astId": 10684,
        "contract": "src/utils/factory/TokenFactory.sol:TokenFactory",
        "label": "allowlistDraggableFactory",
        "offset": 0,
        "slot": "3",
        "type": "t_contract(AllowlistDraggableFactory)10161"
      },
      {
        "astId": 10688,
        "contract": "src/utils/factory/TokenFactory.sol:TokenFactory",
        "label": "_sharesSet",
        "offset": 0,
        "slot": "4",
        "type": "t_struct(AddressSet)437_storage"
      },
      {
        "astId": 10692,
        "contract": "src/utils/factory/TokenFactory.sol:TokenFactory",
        "label": "_draggableSet",
        "offset": 0,
        "slot": "6",
        "type": "t_struct(AddressSet)437_storage"
      }
    ],
    "types": {
      "t_address": {
        "encoding": "inplace",
        "label": "address",
        "numberOfBytes": "20"
      },
      "t_array(t_bytes32)dyn_storage": {
        "base": "t_bytes32",
        "encoding": "dynamic_array",
        "label": "bytes32[]",
        "numberOfBytes": "32"
      },
      "t_bytes32": {
        "encoding": "inplace",
        "label": "bytes32",
        "numberOfBytes": "32"
      },
      "t_contract(AllowlistDraggableFactory)10161": {
        "encoding": "inplace",
        "label": "contract AllowlistDraggableFactory",
        "numberOfBytes": "20"
      },
      "t_contract(DraggableTokenFactory)10463": {
        "encoding": "inplace",
        "label": "contract DraggableTokenFactory",
        "numberOfBytes": "20"
      },
      "t_contract(FactoryManager)10615": {
        "encoding": "inplace",
        "label": "contract FactoryManager",
        "numberOfBytes": "20"
      },
      "t_mapping(t_bytes32,t_uint256)": {
        "encoding": "mapping",
        "key": "t_bytes32",
        "label": "mapping(bytes32 => uint256)",
        "numberOfBytes": "32",
        "value": "t_uint256"
      },
      "t_struct(AddressSet)437_storage": {
        "encoding": "inplace",
        "label": "struct EnumerableSet.AddressSet",
        "members": [
          {
            "astId": 436,
            "contract": "src/utils/factory/TokenFactory.sol:TokenFactory",
            "label": "_inner",
            "offset": 0,
            "slot": "0",
            "type": "t_struct(Set)136_storage"
          }
        ],
        "numberOfBytes": "64"
      },
      "t_struct(Set)136_storage": {
        "encoding": "inplace",
        "label": "struct EnumerableSet.Set",
        "members": [
          {
            "astId": 131,
            "contract": "src/utils/factory/TokenFactory.sol:TokenFactory",
            "label": "_values",
            "offset": 0,
            "slot": "0",
            "type": "t_array(t_bytes32)dyn_storage"
          },
          {
            "astId": 135,
            "contract": "src/utils/factory/TokenFactory.sol:TokenFactory",
            "label": "_indexes",
            "offset": 0,
            "slot": "1",
            "type": "t_mapping(t_bytes32,t_uint256)"
          }
        ],
        "numberOfBytes": "64"
      },
      "t_uint256": {
        "encoding": "inplace",
        "label": "uint256",
        "numberOfBytes": "32"
      }
    }
  }
}