{
  "address": "0xFFD6F1b3bc223C6D3AB4AF32167B4A93a148CA39",
  "abi": [
    {
      "anonymous": false,
      "inputs": [
        {
          "indexed": true,
          "internalType": "address",
          "name": "sender",
          "type": "address"
        },
        {
          "indexed": false,
          "internalType": "uint256",
          "name": "amount",
          "type": "uint256"
        }
      ],
      "name": "Received",
      "type": "event"
    },
    {
      "anonymous": false,
      "inputs": [
        {
          "indexed": true,
          "internalType": "address",
          "name": "signer",
          "type": "address"
        },
        {
          "indexed": false,
          "internalType": "uint8",
          "name": "signaturesNeeded",
          "type": "uint8"
        }
      ],
      "name": "SignerChange",
      "type": "event"
    },
    {
      "anonymous": false,
      "inputs": [
        {
          "indexed": true,
          "internalType": "address",
          "name": "toAddress",
          "type": "address"
        },
        {
          "indexed": false,
          "internalType": "bytes4",
          "name": "selector",
          "type": "bytes4"
        },
        {
          "indexed": false,
          "internalType": "address[]",
          "name": "signers",
          "type": "address[]"
        }
      ],
      "name": "Transacted",
      "type": "event"
    },
    {
      "inputs": [],
      "name": "MAX_INCREASE",
      "outputs": [
        {
          "internalType": "uint256",
          "name": "",
          "type": "uint256"
        }
      ],
      "stateMutability": "view",
      "type": "function"
    },
    {
      "inputs": [
        {
          "internalType": "address",
          "name": "to",
          "type": "address"
        },
        {
          "internalType": "uint256",
          "name": "value",
          "type": "uint256"
        },
        {
          "internalType": "bytes",
          "name": "data",
          "type": "bytes"
        }
      ],
      "name": "checkExecution",
      "outputs": [],
      "stateMutability": "nonpayable",
      "type": "function"
    },
    {
      "inputs": [
        {
          "internalType": "uint128",
          "name": "nonce",
          "type": "uint128"
        },
        {
          "internalType": "address",
          "name": "to",
          "type": "address"
        },
        {
          "internalType": "uint256",
          "name": "value",
          "type": "uint256"
        },
        {
          "internalType": "bytes",
          "name": "data",
          "type": "bytes"
        },
        {
          "internalType": "uint8[]",
          "name": "v",
          "type": "uint8[]"
        },
        {
          "internalType": "bytes32[]",
          "name": "r",
          "type": "bytes32[]"
        },
        {
          "internalType": "bytes32[]",
          "name": "s",
          "type": "bytes32[]"
        }
      ],
      "name": "checkSignatures",
      "outputs": [
        {
          "internalType": "address[]",
          "name": "",
          "type": "address[]"
        }
      ],
      "stateMutability": "view",
      "type": "function"
    },
    {
      "inputs": [],
      "name": "contractId",
      "outputs": [
        {
          "internalType": "bytes",
          "name": "",
          "type": "bytes"
        }
      ],
      "stateMutability": "view",
      "type": "function"
    },
    {
      "inputs": [
        {
          "internalType": "uint128",
          "name": "nonce",
          "type": "uint128"
        },
        {
          "internalType": "address",
          "name": "to",
          "type": "address"
        },
        {
          "internalType": "uint256",
          "name": "value",
          "type": "uint256"
        },
        {
          "internalType": "bytes",
          "name": "data",
          "type": "bytes"
        },
        {
          "internalType": "uint8[]",
          "name": "v",
          "type": "uint8[]"
        },
        {
          "internalType": "bytes32[]",
          "name": "r",
          "type": "bytes32[]"
        },
        {
          "internalType": "bytes32[]",
          "name": "s",
          "type": "bytes32[]"
        }
      ],
      "name": "execute",
      "outputs": [
        {
          "internalType": "bytes",
          "name": "",
          "type": "bytes"
        }
      ],
      "stateMutability": "nonpayable",
      "type": "function"
    },
    {
      "inputs": [
        {
          "internalType": "address",
          "name": "owner",
          "type": "address"
        }
      ],
      "name": "initialize",
      "outputs": [],
      "stateMutability": "nonpayable",
      "type": "function"
    },
    {
      "inputs": [
        {
          "internalType": "uint128",
          "name": "nonce",
          "type": "uint128"
        }
      ],
      "name": "isFree",
      "outputs": [
        {
          "internalType": "bool",
          "name": "",
          "type": "bool"
        }
      ],
      "stateMutability": "view",
      "type": "function"
    },
    {
      "inputs": [
        {
          "internalType": "address",
          "name": "source",
          "type": "address"
        },
        {
          "internalType": "address",
          "name": "destination",
          "type": "address"
        }
      ],
      "name": "migrate",
      "outputs": [],
      "stateMutability": "nonpayable",
      "type": "function"
    },
    {
      "inputs": [
        {
          "internalType": "address",
          "name": "destination",
          "type": "address"
        }
      ],
      "name": "migrate",
      "outputs": [],
      "stateMutability": "nonpayable",
      "type": "function"
    },
    {
      "inputs": [],
      "name": "nextNonce",
      "outputs": [
        {
          "internalType": "uint128",
          "name": "",
          "type": "uint128"
        }
      ],
      "stateMutability": "view",
      "type": "function"
    },
    {
      "inputs": [
        {
          "internalType": "address",
          "name": "signer",
          "type": "address"
        },
        {
          "internalType": "uint8",
          "name": "signaturesNeeded",
          "type": "uint8"
        }
      ],
      "name": "setSigner",
      "outputs": [],
      "stateMutability": "nonpayable",
      "type": "function"
    },
    {
      "inputs": [],
      "name": "signerCount",
      "outputs": [
        {
          "internalType": "uint16",
          "name": "",
          "type": "uint16"
        }
      ],
      "stateMutability": "view",
      "type": "function"
    },
    {
      "inputs": [
        {
          "internalType": "address",
          "name": "",
          "type": "address"
        }
      ],
      "name": "signers",
      "outputs": [
        {
          "internalType": "uint8",
          "name": "",
          "type": "uint8"
        }
      ],
      "stateMutability": "view",
      "type": "function"
    },
    {
      "inputs": [
        {
          "internalType": "uint256",
          "name": "x",
          "type": "uint256"
        }
      ],
      "name": "toBytes",
      "outputs": [
        {
          "internalType": "bytes",
          "name": "result",
          "type": "bytes"
        }
      ],
      "stateMutability": "pure",
      "type": "function"
    },
    {
      "inputs": [
        {
          "internalType": "bytes32",
          "name": "transactionHash",
          "type": "bytes32"
        },
        {
          "internalType": "uint8[]",
          "name": "v",
          "type": "uint8[]"
        },
        {
          "internalType": "bytes32[]",
          "name": "r",
          "type": "bytes32[]"
        },
        {
          "internalType": "bytes32[]",
          "name": "s",
          "type": "bytes32[]"
        }
      ],
      "name": "verifySignatures",
      "outputs": [
        {
          "internalType": "address[]",
          "name": "",
          "type": "address[]"
        }
      ],
      "stateMutability": "view",
      "type": "function"
    },
    {
      "stateMutability": "payable",
      "type": "receive"
    }
  ],
  "transactionHash": "0xbc66e313c62f4c71819fd8fa89cb3d909256f2612f14aac10038621e5977491e",
  "args": [],
  "numDeployments": 1,
  "solcInputHash": "40d3248cd6987c7e0cb26fe166a3e77f",
  "bytecode": "0x608060405234801561001057600080fd5b50608060005561204b806100256000396000f3fe6080604052600436106100ec5760003560e01c80638291286c1161008a578063cb6367d111610059578063cb6367d1146102dd578063ce5494bb1461030a578063d69c3d301461032a578063ecec0dfd1461035757600080fd5b80638291286c14610258578063b5fe51631461026d578063b6e404de1461029d578063c4d66de8146102bd57600080fd5b8063736c0d5b116100c6578063736c0d5b146101a5578063775a8f5e146101e75780637ca548c6146102075780637cedbb801461023557600080fd5b80630f43d6781461012d5780631068361f1461014f57806348753d001461016f57600080fd5b366101285760405134815233907f88a5966d370b9919b20f3e2c13ff65706f196a4e32cc2c12bf57088f885258749060200160405180910390a2005b600080fd5b34801561013957600080fd5b5061014d610148366004611a5d565b610377565b005b34801561015b57600080fd5b5061014d61016a3660046119d0565b61042b565b34801561017b57600080fd5b5061018f61018a366004611b46565b610492565b60405161019c9190611d3c565b60405180910390f35b3480156101b157600080fd5b506101d56101c03660046119b5565b60026020526000908152604090205460ff1681565b60405160ff909116815260200161019c565b3480156101f357600080fd5b5061018f610202366004611c3c565b6105fd565b34801561021357600080fd5b506003546102229061ffff1681565b60405161ffff909116815260200161019c565b34801561024157600080fd5b5061024a606481565b60405190815260200161019c565b34801561026457600080fd5b5061018f6106d3565b34801561027957600080fd5b5061028d610288366004611b2b565b610761565b604051901515815260200161019c565b3480156102a957600080fd5b5061014d6102b8366004611a03565b61079c565b3480156102c957600080fd5b5061014d6102d83660046119b5565b610827565b3480156102e957600080fd5b506102fd6102f8366004611a87565b610914565b60405161019c9190611cff565b34801561031657600080fd5b5061014d6103253660046119b5565b610af7565b34801561033657600080fd5b5061033f610b04565b6040516001600160801b03909116815260200161019c565b34801561036357600080fd5b506102fd610372366004611b46565b610b18565b3033148061039757503360009081526002602052604090205460ff166001145b6103d95760405162461bcd60e51b815260206004820152600e60248201526d1b9bdd08185d5d1a1bdc9a5e995960921b60448201526064015b60405180910390fd5b6103e38282610b4f565b60035461ffff166104275760405162461bcd60e51b815260206004820152600e60248201526d07369676e657220636f756e7420360941b60448201526064016103d0565b5050565b3033148061044b57503360009081526002602052604090205460ff166001145b6104885760405162461bcd60e51b815260206004820152600e60248201526d1b9bdd08185d5d1a1bdc9a5e995960921b60448201526064016103d0565b6104278282610ceb565b6060600061052e8d600480546104a790611f31565b80601f01602080910402602001604051908101604052809291908181526020018280546104d390611f31565b80156105205780601f106104f557610100808354040283529160200191610520565b820191906000526020600020905b81548152906001019060200180831161050357829003601f168201915b50505050508e8e8e8e610d7c565b90506000610541828a8a8a8a8a8a610914565b905060006105948e8d8d8080601f016020809104026020016040519081016040528093929190818152602001838380828437600081840152601f19601f820116905080830192505050505050508f611035565b905061059f8f611145565b8d6001600160a01b03167f64ada3f9bcd41ebd407b399dc401184273a19bc294825172626af05a15c95d256105d48e8e61124f565b846040516105e3929190611d12565b60405180910390a29e9d5050505050505050505050505050565b6060600082600160801b81106106225760809390931c9261061f601083611d91565b91505b6801000000000000000084106106475760409390931c92610644600883611d91565b91505b64010000000084106106685760209390931c92610665600483611d91565b91505b6201000084106106875760109390931c92610684600283611d91565b91505b61010084106106a55760089390931c926106a2600183611d91565b91505b83156106b9576106b6600183611d91565b91505b604080518381016020810190925291905290815292915050565b600480546106e090611f31565b80601f016020809104026020016040519081016040528092919081815260200182805461070c90611f31565b80156107595780601f1061072e57610100808354040283529160200191610759565b820191906000526020600020905b81548152906001019060200180831161073c57829003601f168201915b505050505081565b60008061076d60005490565b9050610779818461130b565b8061079557506107958161078f60005460801c90565b85611350565b9392505050565b6107de8483838080601f016020809104026020016040519081016040528093929190818152602001838380828437600092019190915250889250611035915050565b5060405162461bcd60e51b815260206004820152601760248201527f54657374207061737365642e20526576657274696e672e00000000000000000060448201526064016103d0565b600154610100900460ff1680610840575060015460ff16155b6108a35760405162461bcd60e51b815260206004820152602e60248201527f496e697469616c697a61626c653a20636f6e747261637420697320616c72656160448201526d191e481a5b9a5d1a585b1a5e995960921b60648201526084016103d0565b600154610100900460ff161580156108c5576001805461ffff19166101011790555b6108d43063ffffffff166105fd565b80516108e89160049160209091019061184a565b506003805461ffff191690556108ff826001610b4f565b8015610427576001805461ff00191690555050565b606060008467ffffffffffffffff81111561093157610931611fff565b60405190808252806020026020018201604052801561095a578160200160208202803683370190505b50905060005b85811015610ae157600060018b8b8b8581811061097f5761097f611fe9565b90506020020160208101906109949190611c55565b8a8a868181106109a6576109a6611fe9565b905060200201358989878181106109bf576109bf611fe9565b90506020020135604051600081526020016040526040516109fc949392919093845260ff9290921660208401526040830152606082015260800190565b6020604051602081039080840390855afa158015610a1e573d6000803e3d6000fd5b505060408051601f1901516001600160a01b03811660009081526002602052919091205490925060ff1690508015801590610a5c575060ff81168810155b610a995760405162461bcd60e51b815260206004820152600e60248201526d31b7b9b4b3b732b91032b93937b960911b60448201526064016103d0565b81848481518110610aac57610aac611fe9565b60200260200101906001600160a01b031690816001600160a01b03168152505050508080610ad990611f8e565b915050610960565b50610aeb816113a5565b98975050505050505050565b610b013382610ceb565b50565b60008054610b13906001611d6f565b905090565b60606000610b2d8d600480546104a790611f31565b9050610b3e81898989898989610914565b9d9c50505050505050505050505050565b6001600160a01b0382163b15610ba75760405162461bcd60e51b815260206004820152601b60248201527f7369676e65722063616e6e6f74206265206120636f6e7472616374000000000060448201526064016103d0565b6001600160a01b038216610bea5760405162461bcd60e51b815260206004820152600a602482015269183c181039b4b3b732b960b11b60448201526064016103d0565b6001600160a01b0382166000908152600260205260409020805460ff83811660ff19831617909255168015801590610c23575060ff8216155b15610c5c576003805461ffff16906000610c3c83611f13565b91906101000a81548161ffff021916908361ffff16021790555050610ca5565b60ff8116158015610c70575060008260ff16115b15610ca5576003805461ffff16906000610c8983611f6c565b91906101000a81548161ffff021916908361ffff160217905550505b60405160ff831681526001600160a01b038416907f7f00bf87056fc9622b70d830cce34aa24d6c12881ebbc71d3bf22d0c5ae295b79060200160405180910390a2505050565b6001600160a01b03811660009081526002602052604090205460ff1615610d4a5760405162461bcd60e51b815260206004820152601360248201527264657374696e6174696f6e206e6f74206e657760681b60448201526064016103d0565b6001600160a01b038216600090815260026020526040902054610d7190829060ff16610b4f565b610427826000610b4f565b6040805160098082526101408201909252600091829190816020015b6060815260200190600190039081610d98579050509050610dc1886001600160801b03166105fd565b81600081518110610dd457610dd4611fe9565b60200260200101819052508681600181518110610df357610df3611fe9565b602002602001018190525060405180604001604052806003815260200162104a4160eb1b81525081600281518110610e2d57610e2d611fe9565b602090810291909101810191909152604051602560fa1b918101919091526bffffffffffffffffffffffff19606088901b16602182015260350160405160208183030381529060405281600381518110610e8957610e89611fe9565b6020026020010181905250610e9d856105fd565b81600481518110610eb057610eb0611fe9565b602002602001018190525083838080601f016020809104026020016040519081016040528093929190818152602001838380828437600092019190915250508351849250600591508110610f0657610f06611fe9565b6020026020010181905250610f1a466105fd565b81600681518110610f2d57610f2d611fe9565b60209081029190910181019190915260408051600081529182019052815182906007908110610f5e57610f5e611fe9565b602002602001018190525060005b6008811015610fde5780600214158015610f87575080600314155b15610fcc57610fae828281518110610fa157610fa1611fe9565b6020026020010151611479565b828281518110610fc057610fc0611fe9565b60200260200101819052505b80610fd681611f8e565b915050610f6c565b5080600781518110610ff257610ff2611fe9565b60200260200101518160088151811061100d5761100d611fe9565b6020026020010181905250611021816114e9565b805190602001209150509695505050505050565b606082516000148061105057506001600160a01b0384163b15155b6110935760405162461bcd60e51b81526020600482015260146024820152731d1c985b9cd9995c881bdc8818dbdb9d1c9858dd60621b60448201526064016103d0565b600080856001600160a01b031684866040516110af9190611cb4565b60006040518083038185875af1925050503d80600081146110ec576040519150601f19603f3d011682016040523d82523d6000602084013e6110f1565b606091505b509150915081156111055791506107959050565b80511561111457805160208201fd5b60405162461bcd60e51b815260206004820152600660248201526519985a5b195960d21b60448201526064016103d0565b60005480608081901c611158828561130b565b156111b5576111b084600161116d8583611ea8565b6111779190611ea8565b6001600160801b0319600185811b6ffffffffffffffffffffffffffffffffe16176001600160801b039283161b60801b16911617600055565b611249565b6111c0828286611350565b15611218576111b08260016111d58783611ea8565b6111df9190611ea8565b6001600160801b03166001901b836001600160801b0316176001600160801b031960809190911b166001600160801b0390911617600055565b60405162461bcd60e51b81526004016103d0906020808252600490820152631d5cd95960e21b604082015260600190565b50505050565b6000600482101561126257506000611305565b60188383600381811061127757611277611fe9565b909101356001600160f81b03191690911c905060108484600281811061129f5761129f611fe9565b909101356001600160f81b03191690911c90506008858560018181106112c7576112c7611fe9565b909101356001600160f81b03191690911c905085856000816112eb576112eb611fe9565b9050013560f81c60f81b6001600160f81b03191617171790505b92915050565b6000826001600160801b0316826001600160801b0316118015610795575061133d60646001600160801b038516611d91565b826001600160801b031611159392505050565b60008061135d8386611ea8565b6001600160801b03169050600081118015611379575060808111155b801561139c57506001600160801b038416611395600183611ed0565b6001901b16155b95945050505050565b60005b81518110156104275760006113be826001611d91565b90505b8251811015611466578281815181106113dc576113dc611fe9565b60200260200101516001600160a01b03168383815181106113ff576113ff611fe9565b60200260200101516001600160a01b031614156114545760405162461bcd60e51b81526020600482015260136024820152726475706c6963617465207369676e617475726560681b60448201526064016103d0565b8061145e81611f8e565b9150506113c1565b508061147181611f8e565b9150506113a8565b606080825160011480156114a8575060808360008151811061149d5761149d611fe9565b016020015160f81c11155b156114b4575081611305565b6114c08351608061152d565b836040516020016114d2929190611cd0565b604051602081830303815290604052905092915050565b606060006114f6836116d0565b9050611504815160c061152d565b81604051602001611516929190611cd0565b604051602081830303815290604052915050919050565b606080603884101561159757604080516001808252818301909252906020820181803683370190505090506115628385611d91565b601f1a60f81b8160008151811061157b5761157b611fe9565b60200101906001600160f81b031916908160001a905350610795565b600060015b8086106115b857816115ad81611f8e565b92505060081b61159c565b6115c3826001611d91565b67ffffffffffffffff8111156115db576115db611fff565b6040519080825280601f01601f191660200182016040528015611605576020820181803683370190505b5092506116128583611d91565b61161d906037611d91565b601f1a60f81b8360008151811061163657611636611fe9565b60200101906001600160f81b031916908160001a905350600190505b8181116116c7576101006116668284611ed0565b61167290610100611e00565b61167c9088611da9565b6116869190611fa9565b601f1a60f81b83828151811061169e5761169e611fe9565b60200101906001600160f81b031916908160001a905350806116bf81611f8e565b915050611652565b50509392505050565b60608151600014156116f057505060408051600081526020810190915290565b6000805b83518110156117375783818151811061170f5761170f611fe9565b602002602001015151826117239190611d91565b91508061172f81611f8e565b9150506116f4565b60008267ffffffffffffffff81111561175257611752611fff565b6040519080825280601f01601f19166020018201604052801561177c576020820181803683370190505b50600092509050602081015b85518310156117e65760008684815181106117a5576117a5611fe9565b6020026020010151905060006020820190506117c3838284516117ef565b81516117cf9084611d91565b9250505082806117de90611f8e565b935050611788565b50949350505050565b8282825b6020811061182b578151835261180a602084611d91565b9250611817602083611d91565b9150611824602082611ed0565b90506117f3565b9051825160001960039390931b9290921c918216911916179052505050565b82805461185690611f31565b90600052602060002090601f01602090048101928261187857600085556118be565b82601f1061189157805160ff19168380011785556118be565b828001600101855582156118be579182015b828111156118be5782518255916020019190600101906118a3565b506118ca9291506118ce565b5090565b5b808211156118ca57600081556001016118cf565b80356001600160a01b03811681146118fa57600080fd5b919050565b60008083601f84011261191157600080fd5b50813567ffffffffffffffff81111561192957600080fd5b6020830191508360208260051b850101111561194457600080fd5b9250929050565b60008083601f84011261195d57600080fd5b50813567ffffffffffffffff81111561197557600080fd5b60208301915083602082850101111561194457600080fd5b80356001600160801b03811681146118fa57600080fd5b803560ff811681146118fa57600080fd5b6000602082840312156119c757600080fd5b610795826118e3565b600080604083850312156119e357600080fd5b6119ec836118e3565b91506119fa602084016118e3565b90509250929050565b60008060008060608587031215611a1957600080fd5b611a22856118e3565b935060208501359250604085013567ffffffffffffffff811115611a4557600080fd5b611a518782880161194b565b95989497509550505050565b60008060408385031215611a7057600080fd5b611a79836118e3565b91506119fa602084016119a4565b60008060008060008060006080888a031215611aa257600080fd5b87359650602088013567ffffffffffffffff80821115611ac157600080fd5b611acd8b838c016118ff565b909850965060408a0135915080821115611ae657600080fd5b611af28b838c016118ff565b909650945060608a0135915080821115611b0b57600080fd5b50611b188a828b016118ff565b989b979a50959850939692959293505050565b600060208284031215611b3d57600080fd5b6107958261198d565b600080600080600080600080600080600060e08c8e031215611b6757600080fd5b611b708c61198d565b9a50611b7e60208d016118e3565b995060408c0135985067ffffffffffffffff8060608e01351115611ba157600080fd5b611bb18e60608f01358f0161194b565b909950975060808d0135811015611bc757600080fd5b611bd78e60808f01358f016118ff565b909750955060a08d0135811015611bed57600080fd5b611bfd8e60a08f01358f016118ff565b909550935060c08d0135811015611c1357600080fd5b50611c248d60c08e01358e016118ff565b81935080925050509295989b509295989b9093969950565b600060208284031215611c4e57600080fd5b5035919050565b600060208284031215611c6757600080fd5b610795826119a4565b600081518084526020808501945080840160005b83811015611ca95781516001600160a01b031687529582019590820190600101611c84565b509495945050505050565b60008251611cc6818460208701611ee7565b9190910192915050565b60008351611ce2818460208801611ee7565b835190830190611cf6818360208801611ee7565b01949350505050565b6020815260006107956020830184611c70565b63ffffffff60e01b83168152604060208201526000611d346040830184611c70565b949350505050565b6020815260008251806020840152611d5b816040850160208701611ee7565b601f01601f19169190910160400192915050565b60006001600160801b03808316818516808303821115611cf657611cf6611fbd565b60008219821115611da457611da4611fbd565b500190565b600082611db857611db8611fd3565b500490565b600181815b80851115611df8578160001904821115611dde57611dde611fbd565b80851615611deb57918102915b93841c9390800290611dc2565b509250929050565b60006107958383600082611e1657506001611305565b81611e2357506000611305565b8160018114611e395760028114611e4357611e5f565b6001915050611305565b60ff841115611e5457611e54611fbd565b50506001821b611305565b5060208310610133831016604e8410600b8410161715611e82575081810a611305565b611e8c8383611dbd565b8060001904821115611ea057611ea0611fbd565b029392505050565b60006001600160801b0383811690831681811015611ec857611ec8611fbd565b039392505050565b600082821015611ee257611ee2611fbd565b500390565b60005b83811015611f02578181015183820152602001611eea565b838111156112495750506000910152565b600061ffff821680611f2757611f27611fbd565b6000190192915050565b600181811c90821680611f4557607f821691505b60208210811415611f6657634e487b7160e01b600052602260045260246000fd5b50919050565b600061ffff80831681811415611f8457611f84611fbd565b6001019392505050565b6000600019821415611fa257611fa2611fbd565b5060010190565b600082611fb857611fb8611fd3565b500690565b634e487b7160e01b600052601160045260246000fd5b634e487b7160e01b600052601260045260246000fd5b634e487b7160e01b600052603260045260246000fd5b634e487b7160e01b600052604160045260246000fdfea26469706673582212209e470d4f343bf5104d5551ce859118b05960adb8f3d83c1a9106968a5eceab1464736f6c63430008070033",
  "devdoc": {
    "kind": "dev",
    "methods": {},
    "version": 1
  },
  "userdoc": {
    "kind": "user",
    "methods": {
      "checkExecution(address,uint256,bytes)": {
        "notice": "Checks if the execution of a transaction would succeed if it was properly signed."
      },
      "checkSignatures(uint128,address,uint256,bytes,uint8[],bytes32[],bytes32[])": {
        "notice": "Checks if the provided signatures suffice to sign the transaction and if the nonce is correct."
      },
      "isFree(uint128)": {
        "notice": "Returns whether the provided nonce can be used. For the 100 nonces in the interval [nextNonce(), nextNonce + 99], this is always true. For the nonces in the interval [nextNonce() - 129, nextNonce() - 1], this is true for the nonces that have not been used yet."
      },
      "nextNonce()": {
        "notice": "The next recommended nonce, which is the highest nonce ever used plus one. The initial nonce is 129."
      },
      "setSigner(address,uint8)": {
        "notice": "Call this method through execute"
      }
    },
    "notice": "Documented in ../../doc/multisig.md",
    "version": 1
  },
  "storageLayout": {
    "storage": [
      {
        "astId": 6578,
        "contract": "src/multisig/MultiSigWalletV2.sol:MultiSigWalletV2",
        "label": "compound",
        "offset": 0,
        "slot": "0",
        "type": "t_uint256"
      },
      {
        "astId": 131,
        "contract": "src/multisig/MultiSigWalletV2.sol:MultiSigWalletV2",
        "label": "_initialized",
        "offset": 0,
        "slot": "1",
        "type": "t_bool"
      },
      {
        "astId": 134,
        "contract": "src/multisig/MultiSigWalletV2.sol:MultiSigWalletV2",
        "label": "_initializing",
        "offset": 1,
        "slot": "1",
        "type": "t_bool"
      },
      {
        "astId": 5775,
        "contract": "src/multisig/MultiSigWalletV2.sol:MultiSigWalletV2",
        "label": "signers",
        "offset": 0,
        "slot": "2",
        "type": "t_mapping(t_address,t_uint8)"
      },
      {
        "astId": 5777,
        "contract": "src/multisig/MultiSigWalletV2.sol:MultiSigWalletV2",
        "label": "signerCount",
        "offset": 0,
        "slot": "3",
        "type": "t_uint16"
      },
      {
        "astId": 5779,
        "contract": "src/multisig/MultiSigWalletV2.sol:MultiSigWalletV2",
        "label": "contractId",
        "offset": 0,
        "slot": "4",
        "type": "t_bytes_storage"
      }
    ],
    "types": {
      "t_address": {
        "encoding": "inplace",
        "label": "address",
        "numberOfBytes": "20"
      },
      "t_bool": {
        "encoding": "inplace",
        "label": "bool",
        "numberOfBytes": "1"
      },
      "t_bytes_storage": {
        "encoding": "bytes",
        "label": "bytes",
        "numberOfBytes": "32"
      },
      "t_mapping(t_address,t_uint8)": {
        "encoding": "mapping",
        "key": "t_address",
        "label": "mapping(address => uint8)",
        "numberOfBytes": "32",
        "value": "t_uint8"
      },
      "t_uint16": {
        "encoding": "inplace",
        "label": "uint16",
        "numberOfBytes": "2"
      },
      "t_uint256": {
        "encoding": "inplace",
        "label": "uint256",
        "numberOfBytes": "32"
      },
      "t_uint8": {
        "encoding": "inplace",
        "label": "uint8",
        "numberOfBytes": "1"
      }
    }
  }
}