{
  "address": "0xCE10cE11e5001Dde681A6a986664143545845D45",
  "abi": [
    {
      "inputs": [
        {
          "internalType": "contract IQuoter",
          "name": "_quoter",
          "type": "address"
        },
        {
          "internalType": "contract ISwapRouter",
          "name": "swapRouter",
          "type": "address"
        },
        {
          "internalType": "contract AggregatorV3Interface",
          "name": "_aggregatorCHFUSD",
          "type": "address"
        },
        {
          "internalType": "contract AggregatorV3Interface",
          "name": "_aggregatorETHUSD",
          "type": "address"
        }
      ],
      "stateMutability": "nonpayable",
      "type": "constructor"
    },
    {
      "inputs": [
        {
          "internalType": "address",
          "name": "erc20In",
          "type": "address"
        }
      ],
      "name": "approveERC20",
      "outputs": [],
      "stateMutability": "nonpayable",
      "type": "function"
    },
    {
      "inputs": [],
      "name": "getLatestPriceCHFUSD",
      "outputs": [
        {
          "internalType": "uint256",
          "name": "",
          "type": "uint256"
        }
      ],
      "stateMutability": "view",
      "type": "function"
    },
    {
      "inputs": [],
      "name": "getLatestPriceETHUSD",
      "outputs": [
        {
          "internalType": "uint256",
          "name": "",
          "type": "uint256"
        }
      ],
      "stateMutability": "view",
      "type": "function"
    },
    {
      "inputs": [
        {
          "internalType": "uint256",
          "name": "amountInBase",
          "type": "uint256"
        },
        {
          "internalType": "bytes",
          "name": "path",
          "type": "bytes"
        }
      ],
      "name": "getPriceInERC20",
      "outputs": [
        {
          "internalType": "uint256",
          "name": "",
          "type": "uint256"
        }
      ],
      "stateMutability": "nonpayable",
      "type": "function"
    },
    {
      "inputs": [
        {
          "internalType": "uint256",
          "name": "amountInBase",
          "type": "uint256"
        },
        {
          "internalType": "contract IBrokerbot",
          "name": "brokerBot",
          "type": "address"
        }
      ],
      "name": "getPriceInEther",
      "outputs": [
        {
          "internalType": "uint256",
          "name": "",
          "type": "uint256"
        }
      ],
      "stateMutability": "nonpayable",
      "type": "function"
    },
    {
      "inputs": [
        {
          "internalType": "uint256",
          "name": "amountInBase",
          "type": "uint256"
        },
        {
          "internalType": "contract IERC20",
          "name": "base",
          "type": "address"
        }
      ],
      "name": "getPriceInEtherFromOracle",
      "outputs": [
        {
          "internalType": "uint256",
          "name": "",
          "type": "uint256"
        }
      ],
      "stateMutability": "view",
      "type": "function"
    },
    {
      "inputs": [
        {
          "internalType": "contract IBrokerbot",
          "name": "recipient",
          "type": "address"
        }
      ],
      "name": "hasSettingKeepEther",
      "outputs": [
        {
          "internalType": "bool",
          "name": "",
          "type": "bool"
        }
      ],
      "stateMutability": "view",
      "type": "function"
    },
    {
      "inputs": [
        {
          "internalType": "contract IERC20",
          "name": "token",
          "type": "address"
        },
        {
          "internalType": "address[]",
          "name": "recipients",
          "type": "address[]"
        },
        {
          "internalType": "uint256[]",
          "name": "amounts",
          "type": "uint256[]"
        }
      ],
      "name": "multiPay",
      "outputs": [],
      "stateMutability": "nonpayable",
      "type": "function"
    },
    {
      "inputs": [
        {
          "internalType": "contract IERC20",
          "name": "token",
          "type": "address"
        },
        {
          "internalType": "address[]",
          "name": "recipients",
          "type": "address[]"
        },
        {
          "internalType": "uint256[]",
          "name": "amounts",
          "type": "uint256[]"
        },
        {
          "internalType": "bytes",
          "name": "ref",
          "type": "bytes"
        }
      ],
      "name": "multiPayAndNotify",
      "outputs": [],
      "stateMutability": "nonpayable",
      "type": "function"
    },
    {
      "inputs": [
        {
          "internalType": "address",
          "name": "recipient",
          "type": "address"
        },
        {
          "internalType": "uint256",
          "name": "amountInBase",
          "type": "uint256"
        },
        {
          "internalType": "bytes",
          "name": "ref",
          "type": "bytes"
        }
      ],
      "name": "payAndNotify",
      "outputs": [],
      "stateMutability": "nonpayable",
      "type": "function"
    },
    {
      "inputs": [
        {
          "internalType": "contract IERC20",
          "name": "token",
          "type": "address"
        },
        {
          "internalType": "address",
          "name": "recipient",
          "type": "address"
        },
        {
          "internalType": "uint256",
          "name": "amount",
          "type": "uint256"
        },
        {
          "internalType": "bytes",
          "name": "ref",
          "type": "bytes"
        }
      ],
      "name": "payAndNotify",
      "outputs": [],
      "stateMutability": "nonpayable",
      "type": "function"
    },
    {
      "inputs": [
        {
          "internalType": "uint256",
          "name": "amountOut",
          "type": "uint256"
        },
        {
          "internalType": "uint256",
          "name": "amountInMaximum",
          "type": "uint256"
        },
        {
          "internalType": "address",
          "name": "erc20In",
          "type": "address"
        },
        {
          "internalType": "bytes",
          "name": "path",
          "type": "bytes"
        },
        {
          "internalType": "address",
          "name": "recipient",
          "type": "address"
        }
      ],
      "name": "payFromERC20",
      "outputs": [
        {
          "internalType": "uint256",
          "name": "amountIn",
          "type": "uint256"
        }
      ],
      "stateMutability": "nonpayable",
      "type": "function"
    },
    {
      "inputs": [
        {
          "internalType": "address",
          "name": "recipient",
          "type": "address"
        },
        {
          "internalType": "uint256",
          "name": "amountBase",
          "type": "uint256"
        },
        {
          "internalType": "address",
          "name": "erc20",
          "type": "address"
        },
        {
          "internalType": "uint256",
          "name": "amountInMaximum",
          "type": "uint256"
        },
        {
          "internalType": "bytes",
          "name": "path",
          "type": "bytes"
        },
        {
          "internalType": "bytes",
          "name": "ref",
          "type": "bytes"
        }
      ],
      "name": "payFromERC20AndNotify",
      "outputs": [],
      "stateMutability": "nonpayable",
      "type": "function"
    },
    {
      "inputs": [
        {
          "internalType": "address",
          "name": "recipient",
          "type": "address"
        },
        {
          "internalType": "uint256",
          "name": "amountInBase",
          "type": "uint256"
        },
        {
          "internalType": "contract IERC20",
          "name": "base",
          "type": "address"
        }
      ],
      "name": "payFromEther",
      "outputs": [],
      "stateMutability": "payable",
      "type": "function"
    },
    {
      "inputs": [
        {
          "internalType": "contract IBrokerbot",
          "name": "recipient",
          "type": "address"
        },
        {
          "internalType": "uint256",
          "name": "amountInBase",
          "type": "uint256"
        },
        {
          "internalType": "bytes",
          "name": "ref",
          "type": "bytes"
        }
      ],
      "name": "payFromEtherAndNotify",
      "outputs": [],
      "stateMutability": "payable",
      "type": "function"
    },
    {
      "inputs": [
        {
          "internalType": "contract IERC20",
          "name": "ercAddress",
          "type": "address"
        },
        {
          "internalType": "address",
          "name": "to",
          "type": "address"
        },
        {
          "internalType": "uint256",
          "name": "amount",
          "type": "uint256"
        }
      ],
      "name": "recover",
      "outputs": [],
      "stateMutability": "nonpayable",
      "type": "function"
    },
    {
      "stateMutability": "payable",
      "type": "receive"
    }
  ],
  "transactionHash": "0x669789b0da236f92e18b7c3ab4b871f376b073ff470a8663569532cc049b5b4a",
  "args": [
    "0xb27308f9F90D607463bb33eA1BeBb41C27CE5AB6",
    "0xE592427A0AEce92De3Edee1F18E0157C05861564",
    "0x449d117117838fFA61263B61dA6301AA2a88B13A",
    "0x5f4eC3Df9cbd43714FE2740f5E3616155c5b8419"
  ],
  "numDeployments": 3,
  "solcInputHash": "5770503049d638b83d185bcb77259292",
  "bytecode": "0x6101006040523480156200001257600080fd5b5060405162001d7138038062001d71833981016040819052620000359162000071565b6001600160a01b0393841660805291831660a052821660c0521660e052620000d9565b6001600160a01b03811681146200006e57600080fd5b50565b600080600080608085870312156200008857600080fd5b8451620000958162000058565b6020860151909450620000a88162000058565b6040860151909350620000bb8162000058565b6060860151909250620000ce8162000058565b939692955090935050565b60805160a05160c05160e051611c3b620001366000396000610eb6015260006102fc01526000818161066801528181610cbf01526110630152600081816105ce01528181610be00152818161129e01526112cd0152611c3b6000f3fe6080604052600436106100f65760003560e01c8063568f32541161008a578063c1d8e08a11610059578063c1d8e08a14610267578063d3b3ca7714610297578063d64d4ba5146102b7578063e25b37c6146102d757600080fd5b8063568f3254146101ff5780635daf206a1461021f5780636fb0c7dc1461023f57806395fe863c1461025257600080fd5b806317f565d2116100c657806317f565d21461017f5780631945b7841461019f5780631c9af2e3146101bf5780631ec82cb8146101df57600080fd5b8062124e3d14610102578063040c037a1461012a578063078aa9641461013f57806311e8701c1461015f57600080fd5b366100fd57005b600080fd5b34801561010e57600080fd5b506101176102f7565b6040519081526020015b60405180910390f35b61013d610138366004611497565b610387565b005b34801561014b57600080fd5b5061011761015a366004611596565b6105b4565b34801561016b57600080fd5b5061013d61017a3660046115dd565b610651565b34801561018b57600080fd5b5061013d61019a366004611497565b6106eb565b3480156101ab57600080fd5b506101176101ba366004611601565b61075f565b3480156101cb57600080fd5b5061013d6101da366004611676565b6107c8565b3480156101eb57600080fd5b5061013d6101fa3660046116f9565b6108b7565b34801561020b57600080fd5b5061013d61021a36600461173a565b610938565b34801561022b57600080fd5b5061013d61023a3660046117e7565b6109aa565b61013d61024d36600461186a565b610bd0565b34801561025e57600080fd5b50610117610eb1565b34801561027357600080fd5b506102876102823660046115dd565b610f12565b6040519015158152602001610121565b3480156102a357600080fd5b5061013d6102b23660046118ac565b610f88565b3480156102c357600080fd5b506101176102d236600461190e565b61103e565b3480156102e357600080fd5b506101176102f2366004611601565b611213565b6000807f00000000000000000000000000000000000000000000000000000000000000006001600160a01b031663feaf968c6040518163ffffffff1660e01b815260040160a060405180830381865afa158015610358573d6000803e3d6000fd5b505050506040513d601f19601f8201168201806040525081019061037c91906119a5565b509195945050505050565b6000846001600160a01b0316635001f3b56040518163ffffffff1660e01b8152600401602060405180830381865afa1580156103c7573d6000803e3d6000fd5b505050506040513d601f19601f820116820180604052508101906103eb91906119f5565b90506103f685610f12565b15610529576000610407858361075f565b9050856001600160a01b03166369365c528284338989896040518763ffffffff1660e01b815260040161043e959493929190611a12565b60206040518083038185885af115801561045c573d6000803e3d6000fd5b50505050506040513d601f19601f820116820180604052508101906104819190611a66565b5034811015610523576000336104978334611a95565b604051600081818185875af1925050503d80600081146104d3576040519150601f19603f3d011682016040523d82523d6000602084013e6104d8565b606091505b50509050806105215760405162461bcd60e51b815260206004820152601060248201526f2a3930b739b332b9103330b4b632b21760811b60448201526064015b60405180910390fd5b505b506105ad565b610534858583610bd0565b60405163349b2e2960e11b81526001600160a01b038616906369365c52906105689084903390899089908990600401611a12565b6020604051808303816000875af1158015610587573d6000803e3d6000fd5b505050506040513d601f19601f820116820180604052508101906105ab9190611a66565b505b5050505050565b604051632f80bb1d60e01b81526000906001600160a01b037f00000000000000000000000000000000000000000000000000000000000000001690632f80bb1d906106059085908790600401611af9565b6020604051808303816000875af1158015610624573d6000803e3d6000fd5b505050506040513d601f19601f820116820180604052508101906106489190611a66565b90505b92915050565b60405163095ea7b360e01b81526001600160a01b037f000000000000000000000000000000000000000000000000000000000000000081166004830152600160ff1b602483015282169063095ea7b3906044016020604051808303816000875af11580156106c3573d6000803e3d6000fd5b505050506040513d601f19601f820116820180604052508101906106e79190611b1b565b5050565b610759846001600160a01b0316635001f3b56040518163ffffffff1660e01b8152600401602060405180830381865afa15801561072c573d6000803e3d6000fd5b505050506040513d601f19601f8201168201806040525081019061075091906119f5565b85858585610f88565b50505050565b600073b4272071ecadd69d933adcd19ca99fe80664fc07196001600160a01b038316016107b25761078e610eb1565b836107976102f7565b6107a19190611b3d565b6107ab9190611b5c565b905061064b565b6107ba610eb1565b6107a16305f5e10085611b3d565b60005b838110156105ab57856001600160a01b03166323b872dd338787858181106107f5576107f5611b7e565b905060200201602081019061080a91906115dd565b86868681811061081c5761081c611b7e565b6040516001600160e01b031960e088901b1681526001600160a01b039586166004820152949093166024850152506020909102013560448201526064016020604051808303816000875af1158015610878573d6000803e3d6000fd5b505050506040513d601f19601f8201168201806040525081019061089c9190611b1b565b6108a557600080fd5b806108af81611b94565b9150506107cb565b60405163a9059cbb60e01b81526001600160a01b0383811660048301526024820183905284169063a9059cbb906044016020604051808303816000875af1158015610906573d6000803e3d6000fd5b505050506040513d601f19601f8201168201806040525081019061092a9190611b1b565b61093357600080fd5b505050565b60005b858110156109a05761098e8888888481811061095957610959611b7e565b905060200201602081019061096e91906115dd565b87878581811061098057610980611b7e565b905060200201358686610f88565b8061099881611b94565b91505061093b565b5050505050505050565b6000876001600160a01b0316635001f3b56040518163ffffffff1660e01b8152600401602060405180830381865afa1580156109ea573d6000803e3d6000fd5b505050506040513d601f19601f82011682018060405250810190610a0e91906119f5565b6040516370a0823160e01b81526001600160a01b038a811660048301529192506000918316906370a0823190602401602060405180830381865afa158015610a5a573d6000803e3d6000fd5b505050506040513d601f19601f82011682018060405250810190610a7e9190611a66565b9050610a8d888789888d61103e565b506040516370a0823160e01b81526001600160a01b038a81166004830152600091908416906370a0823190602401602060405180830381865afa158015610ad8573d6000803e3d6000fd5b505050506040513d601f19601f82011682018060405250810190610afc9190611a66565b9050610b088282611a95565b8914610b435760405162461bcd60e51b815260206004820152600a60248201526939bbb0b81032b93937b960b11b6044820152606401610518565b6001600160a01b038a166369365c528433610b5e8686611a95565b89896040518663ffffffff1660e01b8152600401610b80959493929190611a12565b6020604051808303816000875af1158015610b9f573d6000803e3d6000fd5b505050506040513d601f19601f82011682018060405250810190610bc39190611a66565b5050505050505050505050565b60006040518061010001604052807f00000000000000000000000000000000000000000000000000000000000000006001600160a01b0316634aa4a4fc6040518163ffffffff1660e01b8152600401602060405180830381865afa158015610c3c573d6000803e3d6000fd5b505050506040513d601f19601f82011682018060405250810190610c6091906119f5565b6001600160a01b03168152602001836001600160a01b03168152602001610bb862ffffff168152602001856001600160a01b0316815260200142815260200184815260200134815260200160006001600160a01b0316815250905060007f000000000000000000000000000000000000000000000000000000000000000090506000816001600160a01b031663db3e219834856040518363ffffffff1660e01b8152600401610d73919081516001600160a01b03908116825260208084015182169083015260408084015162ffffff16908301526060808401518216908301526080808401519083015260a0838101519083015260c0808401519083015260e09283015116918101919091526101000190565b60206040518083038185885af1158015610d91573d6000803e3d6000fd5b50505050506040513d601f19601f82011682018060405250810190610db69190611a66565b9050348110156105ab57816001600160a01b03166312210e8a6040518163ffffffff1660e01b8152600401600060405180830381600087803b158015610dfb57600080fd5b505af1158015610e0f573d6000803e3d6000fd5b5060009250339150610e2390508334611a95565b604051600081818185875af1925050503d8060008114610e5f576040519150601f19603f3d011682016040523d82523d6000602084013e610e64565b606091505b5050905080610ea85760405162461bcd60e51b815260206004820152601060248201526f2a3930b739b332b9103330b4b632b21760811b6044820152606401610518565b50505050505050565b6000807f00000000000000000000000000000000000000000000000000000000000000006001600160a01b031663feaf968c6040518163ffffffff1660e01b815260040160a060405180830381865afa158015610358573d6000803e3d6000fd5b6000600460ff16600460ff16836001600160a01b031663e06174e46040518163ffffffff1660e01b8152600401602060405180830381865afa158015610f5c573d6000803e3d6000fd5b505050506040513d601f19601f82011682018060405250810190610f809190611a66565b161492915050565b6040516323b872dd60e01b81523360048201526001600160a01b038581166024830152604482018590528616906323b872dd906064016020604051808303816000875af1158015610fdd573d6000803e3d6000fd5b505050506040513d601f19601f820116820180604052508101906110019190611b1b565b61100a57600080fd5b60405163349b2e2960e11b81526001600160a01b038516906369365c52906105689088903390889088908890600401611a12565b6040516323b872dd60e01b8152336004820152306024820152604481018590526000907f0000000000000000000000000000000000000000000000000000000000000000906001600160a01b038616906323b872dd906064016020604051808303816000875af11580156110b6573d6000803e3d6000fd5b505050506040513d601f19601f820116820180604052508101906110da9190611b1b565b506040805160a0810182528581526001600160a01b0380861660208301524282840152606082018a9052608082018990529151631e51809360e31b8152909183169063f28c049890611130908490600401611bad565b6020604051808303816000875af115801561114f573d6000803e3d6000fd5b505050506040513d601f19601f820116820180604052508101906111739190611a66565b925086831015611208576001600160a01b03861663a9059cbb33611197868b611a95565b6040516001600160e01b031960e085901b1681526001600160a01b03909216600483015260248201526044016020604051808303816000875af11580156111e2573d6000803e3d6000fd5b505050506040513d601f19601f820116820180604052508101906112069190611b1b565b505b505095945050505050565b60006001600160a01b03821615801590611231575061123182610f12565b1561129c576107ab83836001600160a01b0316635001f3b56040518163ffffffff1660e01b8152600401602060405180830381865afa158015611278573d6000803e3d6000fd5b505050506040513d601f19601f820116820180604052508101906101ba91906119f5565b7f00000000000000000000000000000000000000000000000000000000000000006001600160a01b03166330d07f217f00000000000000000000000000000000000000000000000000000000000000006001600160a01b0316634aa4a4fc6040518163ffffffff1660e01b8152600401602060405180830381865afa158015611329573d6000803e3d6000fd5b505050506040513d601f19601f8201168201806040525081019061134d91906119f5565b846001600160a01b0316635001f3b56040518163ffffffff1660e01b8152600401602060405180830381865afa15801561138b573d6000803e3d6000fd5b505050506040513d601f19601f820116820180604052508101906113af91906119f5565b6040516001600160e01b031960e085901b1681526001600160a01b03928316600482015291166024820152610bb86044820152606481018690526000608482015260a4016020604051808303816000875af1158015611412573d6000803e3d6000fd5b505050506040513d601f19601f820116820180604052508101906107ab9190611a66565b6001600160a01b038116811461144b57600080fd5b50565b60008083601f84011261146057600080fd5b50813567ffffffffffffffff81111561147857600080fd5b60208301915083602082850101111561149057600080fd5b9250929050565b600080600080606085870312156114ad57600080fd5b84356114b881611436565b935060208501359250604085013567ffffffffffffffff8111156114db57600080fd5b6114e78782880161144e565b95989497509550505050565b634e487b7160e01b600052604160045260246000fd5b600082601f83011261151a57600080fd5b813567ffffffffffffffff80821115611535576115356114f3565b604051601f8301601f19908116603f0116810190828211818310171561155d5761155d6114f3565b8160405283815286602085880101111561157657600080fd5b836020870160208301376000602085830101528094505050505092915050565b600080604083850312156115a957600080fd5b82359150602083013567ffffffffffffffff8111156115c757600080fd5b6115d385828601611509565b9150509250929050565b6000602082840312156115ef57600080fd5b81356115fa81611436565b9392505050565b6000806040838503121561161457600080fd5b82359150602083013561162681611436565b809150509250929050565b60008083601f84011261164357600080fd5b50813567ffffffffffffffff81111561165b57600080fd5b6020830191508360208260051b850101111561149057600080fd5b60008060008060006060868803121561168e57600080fd5b853561169981611436565b9450602086013567ffffffffffffffff808211156116b657600080fd5b6116c289838a01611631565b909650945060408801359150808211156116db57600080fd5b506116e888828901611631565b969995985093965092949392505050565b60008060006060848603121561170e57600080fd5b833561171981611436565b9250602084013561172981611436565b929592945050506040919091013590565b60008060008060008060006080888a03121561175557600080fd5b873561176081611436565b9650602088013567ffffffffffffffff8082111561177d57600080fd5b6117898b838c01611631565b909850965060408a01359150808211156117a257600080fd5b6117ae8b838c01611631565b909650945060608a01359150808211156117c757600080fd5b506117d48a828b0161144e565b989b979a50959850939692959293505050565b600080600080600080600060c0888a03121561180257600080fd5b873561180d81611436565b965060208801359550604088013561182481611436565b945060608801359350608088013567ffffffffffffffff8082111561184857600080fd5b6118548b838c01611509565b945060a08a01359150808211156117c757600080fd5b60008060006060848603121561187f57600080fd5b833561188a81611436565b92506020840135915060408401356118a181611436565b809150509250925092565b6000806000806000608086880312156118c457600080fd5b85356118cf81611436565b945060208601356118df81611436565b935060408601359250606086013567ffffffffffffffff81111561190257600080fd5b6116e88882890161144e565b600080600080600060a0868803121561192657600080fd5b8535945060208601359350604086013561193f81611436565b9250606086013567ffffffffffffffff81111561195b57600080fd5b61196788828901611509565b925050608086013561197881611436565b809150509295509295909350565b805169ffffffffffffffffffff811681146119a057600080fd5b919050565b600080600080600060a086880312156119bd57600080fd5b6119c686611986565b94506020860151935060408601519250606086015191506119e960808701611986565b90509295509295909350565b600060208284031215611a0757600080fd5b81516115fa81611436565b6001600160a01b038681168252851660208201526040810184905260806060820181905281018290526000828460a0840137600060a0848401015260a0601f19601f85011683010190509695505050505050565b600060208284031215611a7857600080fd5b5051919050565b634e487b7160e01b600052601160045260246000fd5b600082821015611aa757611aa7611a7f565b500390565b6000815180845260005b81811015611ad257602081850181015186830182015201611ab6565b81811115611ae4576000602083870101525b50601f01601f19169290920160200192915050565b604081526000611b0c6040830185611aac565b90508260208301529392505050565b600060208284031215611b2d57600080fd5b815180151581146115fa57600080fd5b6000816000190483118215151615611b5757611b57611a7f565b500290565b600082611b7957634e487b7160e01b600052601260045260246000fd5b500490565b634e487b7160e01b600052603260045260246000fd5b600060018201611ba657611ba6611a7f565b5060010190565b602081526000825160a06020840152611bc960c0840182611aac565b905060018060a01b0360208501511660408401526040840151606084015260608401516080840152608084015160a0840152809150509291505056fea26469706673582212202599cc89662f22c557340ef45d7d9c446e44311dfe7aef23f18f36784ce296fa64736f6c634300080d0033",
  "devdoc": {
    "kind": "dev",
    "methods": {
      "approveERC20(address)": {
        "details": "This function needs to be called before using the PaymentHub the first time with a new ERC20 token.",
        "params": {
          "erc20In": "The erc20 addresse to approve."
        }
      },
      "getPriceInEther(uint256,address)": {
        "returns": {
          "_0": "The price in wei."
        }
      },
      "payFromERC20(uint256,uint256,address,bytes,address)": {
        "details": "The calling address must approve this contract to spend its ERC20 for this function to succeed. As the amount of input ERC20 is variable, the calling address will need to approve for a slightly higher or infinit amount, anticipating some variance.",
        "params": {
          "amountInMaximum": "The maximum amount of ERC20 willing to be swapped for the specified amountOut of baseCurrency.",
          "amountOut": "The desired amount of baseCurrency.",
          "erc20In": "The address of the erc20 token to pay with.",
          "path": "The encoded path of the swap from erc20 to base.",
          "recipient": "The reciving address - brokerbot."
        },
        "returns": {
          "amountIn": "The amountIn of ERC20 actually spent to receive the desired amountOut."
        }
      }
    },
    "version": 1
  },
  "userdoc": {
    "kind": "user",
    "methods": {
      "approveERC20(address)": {
        "notice": "This function appoves infinite allowance for Uniswap, this is safe as the paymenthub should never hold any token (see also recover() )."
      },
      "getLatestPriceCHFUSD()": {
        "notice": "Returns the latest price of chf/usd pair from chainlink with 8 decimals"
      },
      "getLatestPriceETHUSD()": {
        "notice": "Returns the latest price of eth/usd pair from chainlink with 8 decimals"
      },
      "getPriceInEther(uint256,address)": {
        "notice": "Get price in Ether depding on brokerbot setting. If keep ETH is set price is from oracle. This is the method that the Brokerbot widget should use to quote the price to the user."
      },
      "getPriceInEtherFromOracle(uint256,address)": {
        "notice": "Price in ETH with 18 decimals"
      },
      "hasSettingKeepEther(address)": {
        "notice": "Checks if the recipient(brokerbot) has setting enabled to keep ether"
      },
      "multiPayAndNotify(address,address[],uint256[],bytes)": {
        "notice": "Can (at least in theory) save some gas as the sender balance only is touched in one transaction."
      },
      "payFromEther(address,uint256,address)": {
        "notice": "Convenience method to swap ether into base and pay a target address"
      },
      "recover(address,address,uint256)": {
        "notice": "In case tokens have been accidentally sent directly to this contract. Make sure to be fast as anyone can call this!"
      }
    },
    "notice": "A hub for payments. This allows tokens that do not support ERC 677 to enjoy similar functionality, namely interacting with a token-handling smart contract in one transaction, without having to set an allowance first. Instead, an allowance needs to be set only once, namely for this contract. Further, it supports automatic conversion from Ether to the payment currency through Uniswap or the reception of Ether using the current exchange rate as found in the chainlink oracle.",
    "version": 1
  },
  "storageLayout": {
    "storage": [],
    "types": null
  }
}