{
  "address": "0xCb1D5644297502812f9545e5C6d6C6479d0d1666",
  "abi": [
    {
      "inputs": [
        {
          "internalType": "string",
          "name": "_symbol",
          "type": "string"
        },
        {
          "internalType": "string",
          "name": "_name",
          "type": "string"
        },
        {
          "internalType": "string",
          "name": "_terms",
          "type": "string"
        },
        {
          "internalType": "uint256",
          "name": "_totalShares",
          "type": "uint256"
        },
        {
          "internalType": "address",
          "name": "_owner",
          "type": "address"
        },
        {
          "internalType": "address",
          "name": "_recoveryHub",
          "type": "address"
        }
      ],
      "stateMutability": "nonpayable",
      "type": "constructor"
    },
    {
      "anonymous": false,
      "inputs": [
        {
          "indexed": false,
          "internalType": "string",
          "name": "message",
          "type": "string"
        }
      ],
      "name": "Announcement",
      "type": "event"
    },
    {
      "anonymous": false,
      "inputs": [
        {
          "indexed": true,
          "internalType": "address",
          "name": "owner",
          "type": "address"
        },
        {
          "indexed": true,
          "internalType": "address",
          "name": "spender",
          "type": "address"
        },
        {
          "indexed": false,
          "internalType": "uint256",
          "name": "value",
          "type": "uint256"
        }
      ],
      "name": "Approval",
      "type": "event"
    },
    {
      "anonymous": false,
      "inputs": [
        {
          "indexed": false,
          "internalType": "string",
          "name": "name",
          "type": "string"
        },
        {
          "indexed": false,
          "internalType": "string",
          "name": "symbol",
          "type": "string"
        }
      ],
      "name": "NameChanged",
      "type": "event"
    },
    {
      "anonymous": false,
      "inputs": [
        {
          "indexed": true,
          "internalType": "address",
          "name": "previousOwner",
          "type": "address"
        },
        {
          "indexed": true,
          "internalType": "address",
          "name": "newOwner",
          "type": "address"
        }
      ],
      "name": "OwnershipTransferred",
      "type": "event"
    },
    {
      "anonymous": false,
      "inputs": [
        {
          "indexed": true,
          "internalType": "address",
          "name": "holder",
          "type": "address"
        },
        {
          "indexed": false,
          "internalType": "uint256",
          "name": "amount",
          "type": "uint256"
        },
        {
          "indexed": false,
          "internalType": "string",
          "name": "message",
          "type": "string"
        }
      ],
      "name": "TokensDeclaredInvalid",
      "type": "event"
    },
    {
      "anonymous": false,
      "inputs": [
        {
          "indexed": true,
          "internalType": "address",
          "name": "from",
          "type": "address"
        },
        {
          "indexed": true,
          "internalType": "address",
          "name": "to",
          "type": "address"
        },
        {
          "indexed": false,
          "internalType": "uint256",
          "name": "value",
          "type": "uint256"
        }
      ],
      "name": "Transfer",
      "type": "event"
    },
    {
      "inputs": [
        {
          "internalType": "address",
          "name": "owner",
          "type": "address"
        },
        {
          "internalType": "address",
          "name": "spender",
          "type": "address"
        }
      ],
      "name": "allowance",
      "outputs": [
        {
          "internalType": "uint256",
          "name": "",
          "type": "uint256"
        }
      ],
      "stateMutability": "view",
      "type": "function"
    },
    {
      "inputs": [
        {
          "internalType": "string",
          "name": "message",
          "type": "string"
        }
      ],
      "name": "announcement",
      "outputs": [],
      "stateMutability": "nonpayable",
      "type": "function"
    },
    {
      "inputs": [
        {
          "internalType": "address",
          "name": "spender",
          "type": "address"
        },
        {
          "internalType": "uint256",
          "name": "value",
          "type": "uint256"
        }
      ],
      "name": "approve",
      "outputs": [
        {
          "internalType": "bool",
          "name": "",
          "type": "bool"
        }
      ],
      "stateMutability": "nonpayable",
      "type": "function"
    },
    {
      "inputs": [
        {
          "internalType": "address",
          "name": "account",
          "type": "address"
        }
      ],
      "name": "balanceOf",
      "outputs": [
        {
          "internalType": "uint256",
          "name": "",
          "type": "uint256"
        }
      ],
      "stateMutability": "view",
      "type": "function"
    },
    {
      "inputs": [
        {
          "internalType": "uint256",
          "name": "_amount",
          "type": "uint256"
        }
      ],
      "name": "burn",
      "outputs": [],
      "stateMutability": "nonpayable",
      "type": "function"
    },
    {
      "inputs": [],
      "name": "claimPeriod",
      "outputs": [
        {
          "internalType": "uint256",
          "name": "",
          "type": "uint256"
        }
      ],
      "stateMutability": "pure",
      "type": "function"
    },
    {
      "inputs": [],
      "name": "customCollateralAddress",
      "outputs": [
        {
          "internalType": "address",
          "name": "",
          "type": "address"
        }
      ],
      "stateMutability": "view",
      "type": "function"
    },
    {
      "inputs": [],
      "name": "customCollateralRate",
      "outputs": [
        {
          "internalType": "uint256",
          "name": "",
          "type": "uint256"
        }
      ],
      "stateMutability": "view",
      "type": "function"
    },
    {
      "inputs": [],
      "name": "decimals",
      "outputs": [
        {
          "internalType": "uint8",
          "name": "",
          "type": "uint8"
        }
      ],
      "stateMutability": "view",
      "type": "function"
    },
    {
      "inputs": [
        {
          "internalType": "address",
          "name": "holder",
          "type": "address"
        },
        {
          "internalType": "uint256",
          "name": "amount",
          "type": "uint256"
        },
        {
          "internalType": "string",
          "name": "message",
          "type": "string"
        }
      ],
      "name": "declareInvalid",
      "outputs": [],
      "stateMutability": "nonpayable",
      "type": "function"
    },
    {
      "inputs": [
        {
          "internalType": "address",
          "name": "lostAddress",
          "type": "address"
        }
      ],
      "name": "deleteClaim",
      "outputs": [],
      "stateMutability": "nonpayable",
      "type": "function"
    },
    {
      "inputs": [],
      "name": "getClaimDeleter",
      "outputs": [
        {
          "internalType": "address",
          "name": "",
          "type": "address"
        }
      ],
      "stateMutability": "view",
      "type": "function"
    },
    {
      "inputs": [
        {
          "internalType": "address",
          "name": "collateralType",
          "type": "address"
        }
      ],
      "name": "getCollateralRate",
      "outputs": [
        {
          "internalType": "uint256",
          "name": "",
          "type": "uint256"
        }
      ],
      "stateMutability": "view",
      "type": "function"
    },
    {
      "inputs": [
        {
          "internalType": "address",
          "name": "account",
          "type": "address"
        },
        {
          "internalType": "uint8",
          "name": "number",
          "type": "uint8"
        }
      ],
      "name": "hasFlag",
      "outputs": [
        {
          "internalType": "bool",
          "name": "",
          "type": "bool"
        }
      ],
      "stateMutability": "view",
      "type": "function"
    },
    {
      "inputs": [],
      "name": "invalidTokens",
      "outputs": [
        {
          "internalType": "uint256",
          "name": "",
          "type": "uint256"
        }
      ],
      "stateMutability": "view",
      "type": "function"
    },
    {
      "inputs": [
        {
          "internalType": "address",
          "name": "target",
          "type": "address"
        },
        {
          "internalType": "uint256",
          "name": "amount",
          "type": "uint256"
        }
      ],
      "name": "mint",
      "outputs": [],
      "stateMutability": "nonpayable",
      "type": "function"
    },
    {
      "inputs": [
        {
          "internalType": "address",
          "name": "shareholder",
          "type": "address"
        },
        {
          "internalType": "address",
          "name": "callee",
          "type": "address"
        },
        {
          "internalType": "uint256",
          "name": "amount",
          "type": "uint256"
        },
        {
          "internalType": "bytes",
          "name": "data",
          "type": "bytes"
        }
      ],
      "name": "mintAndCall",
      "outputs": [],
      "stateMutability": "nonpayable",
      "type": "function"
    },
    {
      "inputs": [],
      "name": "name",
      "outputs": [
        {
          "internalType": "string",
          "name": "",
          "type": "string"
        }
      ],
      "stateMutability": "view",
      "type": "function"
    },
    {
      "inputs": [
        {
          "internalType": "address",
          "name": "target",
          "type": "address"
        }
      ],
      "name": "notifyClaimDeleted",
      "outputs": [],
      "stateMutability": "nonpayable",
      "type": "function"
    },
    {
      "inputs": [
        {
          "internalType": "address",
          "name": "target",
          "type": "address"
        }
      ],
      "name": "notifyClaimMade",
      "outputs": [],
      "stateMutability": "nonpayable",
      "type": "function"
    },
    {
      "inputs": [],
      "name": "owner",
      "outputs": [
        {
          "internalType": "address",
          "name": "",
          "type": "address"
        }
      ],
      "stateMutability": "view",
      "type": "function"
    },
    {
      "inputs": [
        {
          "internalType": "address",
          "name": "oldAddress",
          "type": "address"
        },
        {
          "internalType": "address",
          "name": "newAddress",
          "type": "address"
        }
      ],
      "name": "recover",
      "outputs": [],
      "stateMutability": "nonpayable",
      "type": "function"
    },
    {
      "inputs": [],
      "name": "recovery",
      "outputs": [
        {
          "internalType": "contract IRecoveryHub",
          "name": "",
          "type": "address"
        }
      ],
      "stateMutability": "view",
      "type": "function"
    },
    {
      "inputs": [
        {
          "internalType": "address",
          "name": "collateral",
          "type": "address"
        },
        {
          "internalType": "uint256",
          "name": "rate",
          "type": "uint256"
        }
      ],
      "name": "setCustomClaimCollateral",
      "outputs": [],
      "stateMutability": "nonpayable",
      "type": "function"
    },
    {
      "inputs": [
        {
          "internalType": "string",
          "name": "_symbol",
          "type": "string"
        },
        {
          "internalType": "string",
          "name": "_name",
          "type": "string"
        }
      ],
      "name": "setName",
      "outputs": [],
      "stateMutability": "nonpayable",
      "type": "function"
    },
    {
      "inputs": [
        {
          "internalType": "string",
          "name": "_terms",
          "type": "string"
        }
      ],
      "name": "setTerms",
      "outputs": [],
      "stateMutability": "nonpayable",
      "type": "function"
    },
    {
      "inputs": [
        {
          "internalType": "uint256",
          "name": "_newTotalShares",
          "type": "uint256"
        }
      ],
      "name": "setTotalShares",
      "outputs": [],
      "stateMutability": "nonpayable",
      "type": "function"
    },
    {
      "inputs": [],
      "name": "symbol",
      "outputs": [
        {
          "internalType": "string",
          "name": "",
          "type": "string"
        }
      ],
      "stateMutability": "view",
      "type": "function"
    },
    {
      "inputs": [],
      "name": "terms",
      "outputs": [
        {
          "internalType": "string",
          "name": "",
          "type": "string"
        }
      ],
      "stateMutability": "view",
      "type": "function"
    },
    {
      "inputs": [],
      "name": "totalShares",
      "outputs": [
        {
          "internalType": "uint256",
          "name": "",
          "type": "uint256"
        }
      ],
      "stateMutability": "view",
      "type": "function"
    },
    {
      "inputs": [],
      "name": "totalSupply",
      "outputs": [
        {
          "internalType": "uint256",
          "name": "",
          "type": "uint256"
        }
      ],
      "stateMutability": "view",
      "type": "function"
    },
    {
      "inputs": [],
      "name": "totalValidSupply",
      "outputs": [
        {
          "internalType": "uint256",
          "name": "",
          "type": "uint256"
        }
      ],
      "stateMutability": "view",
      "type": "function"
    },
    {
      "inputs": [
        {
          "internalType": "address",
          "name": "to",
          "type": "address"
        },
        {
          "internalType": "uint256",
          "name": "value",
          "type": "uint256"
        }
      ],
      "name": "transfer",
      "outputs": [
        {
          "internalType": "bool",
          "name": "",
          "type": "bool"
        }
      ],
      "stateMutability": "nonpayable",
      "type": "function"
    },
    {
      "inputs": [
        {
          "internalType": "address",
          "name": "recipient",
          "type": "address"
        },
        {
          "internalType": "uint256",
          "name": "amount",
          "type": "uint256"
        },
        {
          "internalType": "bytes",
          "name": "data",
          "type": "bytes"
        }
      ],
      "name": "transferAndCall",
      "outputs": [
        {
          "internalType": "bool",
          "name": "",
          "type": "bool"
        }
      ],
      "stateMutability": "nonpayable",
      "type": "function"
    },
    {
      "inputs": [
        {
          "internalType": "address",
          "name": "sender",
          "type": "address"
        },
        {
          "internalType": "address",
          "name": "recipient",
          "type": "address"
        },
        {
          "internalType": "uint256",
          "name": "amount",
          "type": "uint256"
        }
      ],
      "name": "transferFrom",
      "outputs": [
        {
          "internalType": "bool",
          "name": "",
          "type": "bool"
        }
      ],
      "stateMutability": "nonpayable",
      "type": "function"
    },
    {
      "inputs": [
        {
          "internalType": "address",
          "name": "newOwner",
          "type": "address"
        }
      ],
      "name": "transferOwnership",
      "outputs": [],
      "stateMutability": "nonpayable",
      "type": "function"
    }
  ],
  "transactionHash": "0xea20be459798457b489bcaf59dc71138c4deea22b621ee1e1f079706a663ff58",
  "args": [
    "SHR",
    "Test Shares",
    "test.ch/terms",
    10000000,
    "0x39E5351E6CE3c4B19B8b0a2F5C82c511782457BE",
    "0x08eB636BfC6d88D67320325Ac8714f1426D2093D"
  ],
  "numDeployments": 1,
  "solcInputHash": "d72d9dda0d2d4544b17e6eb890f1b786",
  "bytecode": "0x60a060405260006009556000600a553480156200001b57600080fd5b5060405162001d9b38038062001d9b8339810160408190526200003e91620002e2565b6003805460ff191690556001600160a01b03818116608052600580546001600160a01b031916918416918217905560405187918791600091869182919084907f8be0079c531659141344cd1fd0a4f28419497f9722a3daafe3b4186f6b6457e0908290a350620000af8484620000da565b5050506009849055508351620000cd90600890602087019062000145565b505050505050506200043e565b8151620000ef90600790602085019062000145565b5080516200010590600690602084019062000145565b507f6c20b91d1723b78732eba64ff11ebd7966a6e4af568a00fa4f6b72c20f58b02a818360405162000139929190620003cf565b60405180910390a15050565b828054620001539062000401565b90600052602060002090601f016020900481019282620001775760008555620001c2565b82601f106200019257805160ff1916838001178555620001c2565b82800160010185558215620001c2579182015b82811115620001c2578251825591602001919060010190620001a5565b50620001d0929150620001d4565b5090565b5b80821115620001d05760008155600101620001d5565b634e487b7160e01b600052604160045260246000fd5b60005b838110156200021e57818101518382015260200162000204565b838111156200022e576000848401525b50505050565b600082601f8301126200024657600080fd5b81516001600160401b0380821115620002635762000263620001eb565b604051601f8301601f19908116603f011681019082821181831017156200028e576200028e620001eb565b81604052838152866020858801011115620002a857600080fd5b620002bb84602083016020890162000201565b9695505050505050565b80516001600160a01b0381168114620002dd57600080fd5b919050565b60008060008060008060c08789031215620002fc57600080fd5b86516001600160401b03808211156200031457600080fd5b620003228a838b0162000234565b975060208901519150808211156200033957600080fd5b620003478a838b0162000234565b965060408901519150808211156200035e57600080fd5b506200036d89828a0162000234565b945050606087015192506200038560808801620002c5565b91506200039560a08801620002c5565b90509295509295509295565b60008151808452620003bb81602086016020860162000201565b601f01601f19169290920160200192915050565b604081526000620003e46040830185620003a1565b8281036020840152620003f88185620003a1565b95945050505050565b600181811c908216806200041657607f821691505b602082108114156200043857634e487b7160e01b600052602260045260246000fd5b50919050565b60805161191e6200047d60003960008181610493015281816106bc015281816109a301528181610b5501528181610bb70152611020015261191e6000f3fe608060405234801561001057600080fd5b506004361061021c5760003560e01c8063648bf77411610125578063b0d04c7a116100ad578063ddceafa91161007c578063ddceafa91461048e578063e5b824ec146104b5578063f2fde38b146104c8578063f54fc060146104db578063f5c0b95f146104ee57600080fd5b8063b0d04c7a14610432578063c18172c41461043a578063d50256251461044d578063dd62ed3e1461045557600080fd5b80637dc2cd98116100f45780637dc2cd98146103e85780638da5cb5b146103f157806395d89b4114610404578063a77384c11461040c578063a9059cbb1461041f57600080fd5b8063648bf7741461039c57806370a08231146103af57806377e071ad146103c257806378f86afc146103d557600080fd5b806337a8129c116101a857806340c10f191161017757806340c10f191461034757806342966c681461035a5780635c707f071461036d5780635d6624b714610380578063609181171461039357600080fd5b806337a8129c1461030f5780633a1cdf32146103185780633a98ef391461032b5780634000aea01461033457600080fd5b80631f0f06aa116101ef5780631f0f06aa146102a457806323b872dd146102b95780632a0a4ed5146102cc578063313ce567146102dd57806332a7ae95146102fc57600080fd5b806306fdde0314610221578063095ea7b31461023f5780630c6f0e5d1461026257806318160ddd14610292575b600080fd5b610229610501565b6040516102369190611364565b60405180910390f35b61025261024d36600461138e565b61058f565b6040519015158152602001610236565b60035461027a9061010090046001600160a01b031681565b6040516001600160a01b039091168152602001610236565b6002545b604051908152602001610236565b6102b76102b2366004611401565b6105a5565b005b6102526102c7366004611443565b610615565b6005546001600160a01b031661027a565b6003546102ea9060ff1681565b60405160ff9091168152602001610236565b6102b761030a36600461147f565b610673565b610296600a5481565b6102b761032636600461138e565b61071b565b61029660095481565b61025261034236600461149a565b610753565b6102b761035536600461138e565b6107f8565b6102b76103683660046114f4565b61082c565b6102b761037b3660046115b0565b610886565b6102b761038e36600461149a565b6108ba565b61029660045481565b6102b76103aa366004611614565b610998565b6102966103bd36600461147f565b6109f3565b6102966103d036600461147f565b610a17565b6102b76103e3366004611647565b610a62565b62ed4e00610296565b60055461027a906001600160a01b031681565b610229610a9f565b6102b761041a3660046114f4565b610aac565b61025261042d36600461138e565b610b21565b610296610b2d565b6102b761044836600461147f565b610b4a565b610229610b9f565b610296610463366004611614565b6001600160a01b03918216600090815260016020908152604080832093909416825291909152205490565b61027a7f000000000000000000000000000000000000000000000000000000000000000081565b6102b76104c336600461147f565b610bac565b6102b76104d636600461147f565b610c01565b6102b76104e9366004611684565b610c87565b6102526104fc3660046116f3565b610d1d565b6006805461050e90611730565b80601f016020809104026020016040519081016040528092919081815260200182805461053a90611730565b80156105875780601f1061055c57610100808354040283529160200191610587565b820191906000526020600020905b81548152906001019060200180831161056a57829003601f168201915b505050505081565b600061059c338484610d29565b50600192915050565b6005546001600160a01b031633146105d85760405162461bcd60e51b81526004016105cf9061176b565b60405180910390fd5b7f07ce702fc13ca0620c174dab22996a6d5fd9e7accb663555a4e85323692706ba82826040516106099291906117b7565b60405180910390a15050565b6000610622848484610d8b565b6001600160a01b0384166000908152600160209081526040808320338452909152902054600160ff1b81101561066657610666853361066186856117e1565b610d29565b60019150505b9392505050565b6005546001600160a01b0316331461069d5760405162461bcd60e51b81526004016105cf906117f8565b6040516332a7ae9560e01b81526001600160a01b0382811660048301527f000000000000000000000000000000000000000000000000000000000000000016906332a7ae9590602401600060405180830381600087803b15801561070057600080fd5b505af1158015610714573d6000803e3d6000fd5b5050505050565b6005546001600160a01b031633146107455760405162461bcd60e51b81526004016105cf9061176b565b61074f8282610e08565b5050565b6000806107608686610b21565b905080156107ef57604051635260769b60e11b81526001600160a01b0387169063a4c0ed369061079a903390899089908990600401611818565b602060405180830381600087803b1580156107b457600080fd5b505af11580156107c8573d6000803e3d6000fd5b505050506040513d601f19601f820116820180604052508101906107ec919061184a565b90505b95945050505050565b6005546001600160a01b031633146108225760405162461bcd60e51b81526004016105cf9061176b565b61074f8282610e7f565b610835336109f3565b81111561086e5760405162461bcd60e51b815260206004820152600760248201526662616c616e636560c81b60448201526064016105cf565b610879333083610d8b565b6108833082610ed5565b50565b6005546001600160a01b031633146108b05760405162461bcd60e51b81526004016105cf9061176b565b61074f8282610f5f565b6005546001600160a01b031633146108e45760405162461bcd60e51b81526004016105cf9061176b565b60006108ef856109f3565b9050808411156109335760405162461bcd60e51b815260206004820152600f60248201526e0c2dadeeadce840e8dede40d0d2ced608b1b60448201526064016105cf565b83600a6000828254610945919061186c565b92505081905550846001600160a01b03167f0a605cd1294f60fa3b73548ac68428f33300a051f225afcdcc75e56083c96ee785858560405161098993929190611884565b60405180910390a25050505050565b336001600160a01b037f000000000000000000000000000000000000000000000000000000000000000016146109e05760405162461bcd60e51b81526004016105cf906117f8565b61074f82826109ee856109f3565b610d8b565b6001600160a01b03166000908152602081905260409020546001600160e01b031690565b60006001600160a01b038216301415610a3257506001919050565b6003546001600160a01b03838116610100909204161415610a5557505060045490565b506000919050565b919050565b6005546001600160a01b03163314610a8c5760405162461bcd60e51b81526004016105cf9061176b565b805161074f90600890602084019061127e565b6007805461050e90611730565b6005546001600160a01b03163314610ad65760405162461bcd60e51b81526004016105cf9061176b565b610ade610b2d565b811015610b1c5760405162461bcd60e51b815260206004820152600c60248201526b62656c6f7720737570706c7960a01b60448201526064016105cf565b600955565b600061066c8383610fb8565b6000600a54610b3b60025490565b610b4591906117e1565b905090565b336001600160a01b037f00000000000000000000000000000000000000000000000000000000000000001614610b925760405162461bcd60e51b81526004016105cf906117f8565b61074f81600a600161108d565b6008805461050e90611730565b336001600160a01b037f00000000000000000000000000000000000000000000000000000000000000001614610bf45760405162461bcd60e51b81526004016105cf906117f8565b61074f81600a600061108d565b6005546001600160a01b03163314610c2b5760405162461bcd60e51b81526004016105cf9061176b565b6005546040516001600160a01b038084169216907f8be0079c531659141344cd1fd0a4f28419497f9722a3daafe3b4186f6b6457e090600090a3600580546001600160a01b0319166001600160a01b0392909216919091179055565b610c9184846107f8565b604051635260769b60e11b81526001600160a01b0385169063a4c0ed3690610cc3908890879087908790600401611818565b602060405180830381600087803b158015610cdd57600080fd5b505af1158015610cf1573d6000803e3d6000fd5b505050506040513d601f19601f82011682018060405250810190610d15919061184a565b505050505050565b600061066c83836110bd565b6001600160a01b0383811660008181526001602090815260408083209487168084529482529182902085905590518481527f8c5be1e5ebec7d5bd14f71427d1e84f3dd0314c0f7b2291e5b200ac8c7c3b92591015b60405180910390a3505050565b6001600160a01b03831660009081526020819052604081208054839290610db39084906117e1565b90915550610dc3905082826110fd565b816001600160a01b0316836001600160a01b03167fddf252ad1be2c89b69c2b068fc378daa952ba7f163c4a11628f55a4df523b3ef83604051610d7e91815260200190565b60038054610100600160a81b0319166101006001600160a01b038581168202929092179283905590910416610e405760006004555050565b60008111610e795760405162461bcd60e51b81526004016105cf906020808252600490820152637a65726f60e01b604082015260600190565b60045550565b60095481610e8b610b2d565b610e95919061186c565b1115610ecb5760405162461bcd60e51b81526020600482015260056024820152641d1bdd185b60da1b60448201526064016105cf565b61074f82826111d3565b8060026000828254610ee791906117e1565b90915550506001600160a01b03821660009081526020819052604081208054839290610f149084906117e1565b90915550506040518181526000906001600160a01b038416907fddf252ad1be2c89b69c2b068fc378daa952ba7f163c4a11628f55a4df523b3ef906020015b60405180910390a35050565b8151610f7290600790602085019061127e565b508051610f8690600690602084019061127e565b507f6c20b91d1723b78732eba64ff11ebd7966a6e4af568a00fa4f6b72c20f58b02a818360405161060992919061189e565b6000610fc48383611233565b610ffb5760405162461bcd60e51b81526020600482015260086024820152673a3930b739b332b960c11b60448201526064016105cf565b61100633600a6110bd565b1561059c576040516304d301a360e41b81523360048201527f00000000000000000000000000000000000000000000000000000000000000006001600160a01b031690634d301a3090602401600060405180830381600087803b15801561106c57600080fd5b505af1158015611080573d6000803e3d6000fd5b5050505050600192915050565b600081151561109c85856110bd565b1515146110b5576110ad8484611240565b50600161066c565b50600061066c565b6000806110cb8360e06118c3565b6001600160a01b038516600090815260208190526040902054600160ff929092169190911b9081161491505092915050565b6001600160a01b0382166111395760405162461bcd60e51b815260206004820152600360248201526203078360ec1b60448201526064016105cf565b6001600160a01b038216600090815260208190526040812054906001600160e01b0319821690611169848461186c565b90506001600160e01b031981168281146111b05760405162461bcd60e51b81526020600482015260086024820152676f766572666c6f7760c01b60448201526064016105cf565b506001600160a01b03909416600090815260208190526040902093909355505050565b80600260008282546111e5919061186c565b909155506111f5905082826110fd565b6040518181526001600160a01b038316906000907fddf252ad1be2c89b69c2b068fc378daa952ba7f163c4a11628f55a4df523b3ef90602001610f53565b600061059c338484610d8b565b600061124d8260e06118c3565b6001600160a01b039390931660009081526020819052604090208054600160ff9095169490941b9093189092555050565b82805461128a90611730565b90600052602060002090601f0160209004810192826112ac57600085556112f2565b82601f106112c557805160ff19168380011785556112f2565b828001600101855582156112f2579182015b828111156112f25782518255916020019190600101906112d7565b506112fe929150611302565b5090565b5b808211156112fe5760008155600101611303565b6000815180845260005b8181101561133d57602081850181015186830182015201611321565b8181111561134f576000602083870101525b50601f01601f19169290920160200192915050565b60208152600061066c6020830184611317565b80356001600160a01b0381168114610a5d57600080fd5b600080604083850312156113a157600080fd5b6113aa83611377565b946020939093013593505050565b60008083601f8401126113ca57600080fd5b50813567ffffffffffffffff8111156113e257600080fd5b6020830191508360208285010111156113fa57600080fd5b9250929050565b6000806020838503121561141457600080fd5b823567ffffffffffffffff81111561142b57600080fd5b611437858286016113b8565b90969095509350505050565b60008060006060848603121561145857600080fd5b61146184611377565b925061146f60208501611377565b9150604084013590509250925092565b60006020828403121561149157600080fd5b61066c82611377565b600080600080606085870312156114b057600080fd5b6114b985611377565b935060208501359250604085013567ffffffffffffffff8111156114dc57600080fd5b6114e8878288016113b8565b95989497509550505050565b60006020828403121561150657600080fd5b5035919050565b634e487b7160e01b600052604160045260246000fd5b600082601f83011261153457600080fd5b813567ffffffffffffffff8082111561154f5761154f61150d565b604051601f8301601f19908116603f011681019082821181831017156115775761157761150d565b8160405283815286602085880101111561159057600080fd5b836020870160208301376000602085830101528094505050505092915050565b600080604083850312156115c357600080fd5b823567ffffffffffffffff808211156115db57600080fd5b6115e786838701611523565b935060208501359150808211156115fd57600080fd5b5061160a85828601611523565b9150509250929050565b6000806040838503121561162757600080fd5b61163083611377565b915061163e60208401611377565b90509250929050565b60006020828403121561165957600080fd5b813567ffffffffffffffff81111561167057600080fd5b61167c84828501611523565b949350505050565b60008060008060006080868803121561169c57600080fd5b6116a586611377565b94506116b360208701611377565b935060408601359250606086013567ffffffffffffffff8111156116d657600080fd5b6116e2888289016113b8565b969995985093965092949392505050565b6000806040838503121561170657600080fd5b61170f83611377565b9150602083013560ff8116811461172557600080fd5b809150509250929050565b600181811c9082168061174457607f821691505b6020821081141561176557634e487b7160e01b600052602260045260246000fd5b50919050565b6020808252600990820152683737ba1037bbb732b960b91b604082015260600190565b81835281816020850137506000828201602090810191909152601f909101601f19169091010190565b60208152600061167c60208301848661178e565b634e487b7160e01b600052601160045260246000fd5b6000828210156117f3576117f36117cb565b500390565b60208082526006908201526539b2b73232b960d11b604082015260600190565b60018060a01b038516815283602082015260606040820152600061184060608301848661178e565b9695505050505050565b60006020828403121561185c57600080fd5b8151801515811461066c57600080fd5b6000821982111561187f5761187f6117cb565b500190565b8381526040602082015260006107ef60408301848661178e565b6040815260006118b16040830185611317565b82810360208401526107ef8185611317565b600060ff821660ff84168060ff038211156118e0576118e06117cb565b01939250505056fea264697066735822122062af11448f2aad6dd80e4a2c4f47ae427c1e4d9716c3e71599c4a203fbc52dd164736f6c63430008090033",
  "devdoc": {
    "author": "Luzius Meisser, luzius@aktionariat.com These tokens represent ledger-based securities according to article 973d of the Swiss Code of Obligations. This smart contract serves as an ownership registry, enabling the token holders to register them as shareholders in the issuer's shareholder registry. This is equivalent to the traditional system of having physical share certificates kept at home by the shareholders and a shareholder registry run by the company. Just like with physical certificates, the owners of the tokens are the owners of the shares. However, in order to exercise their rights (for example receive a dividend), shareholders must register themselves. For example, in case the company pays out a dividend to a previous shareholder because the current shareholder did not register, the company cannot be held liable for paying the dividend to the \"wrong\" shareholder. In relation to the company, only the registered shareholders count as such.",
    "kind": "dev",
    "methods": {
      "allowance(address,address)": {
        "details": "See `IERC20.allowance`."
      },
      "approve(address,uint256)": {
        "details": "See `IERC20.approve`. Requirements: - `spender` cannot be the zero address."
      },
      "balanceOf(address)": {
        "details": "See `IERC20.balanceOf`."
      },
      "totalSupply()": {
        "details": "See `IERC20.totalSupply`."
      },
      "transferFrom(address,address,uint256)": {
        "details": "See `IERC20.transferFrom`. Emits an `Approval` event indicating the updated allowance. This is not required by the EIP. See the note at the beginning of `ERC20`; Requirements: - `sender` and `recipient` cannot be the zero address. - `sender` must have a balance of at least `value`. - the caller must have allowance for `sender`'s tokens of at least `amount`."
      },
      "transferOwnership(address)": {
        "details": "Transfers ownership of the contract to a new account (`newOwner`). Can only be called by the current owner."
      }
    },
    "title": "CompanyName AG Shares",
    "version": 1
  },
  "userdoc": {
    "kind": "user",
    "methods": {
      "announcement(string)": {
        "notice": "Allows the issuer to make public announcements that are visible on the blockchain."
      },
      "burn(uint256)": {
        "notice": "Transfers _amount tokens to the company and burns them. The meaning of this operation depends on the circumstances and the fate of the shares does not necessarily follow the fate of the tokens. For example, the company itself might call this function to implement a formal decision to destroy some of the outstanding shares. Also, this function might be called by an owner to return the shares to the company and get them back in another form under an according agreement (e.g. printed certificates or tokens on a different blockchain). It is not recommended to call this function without having agreed with the company on the further fate of the shares in question."
      },
      "declareInvalid(address,uint256,string)": {
        "notice": "Signals that the indicated tokens have been declared invalid (e.g. by a court ruling in accordance with article 973g of the Swiss Code of Obligations) and got detached from the underlying shares. Invalid tokens do not carry any shareholder rights any more. This function is purely declarative. It does not technically immobilize the affected tokens as that would give the issuer too much power."
      },
      "getCollateralRate(address)": {
        "notice": "Returns the collateral rate for the given collateral type and 0 if that type of collateral is not accepted. By default, only the token itself is accepted at a rate of 1:1. Subclasses should override this method if they want to add additional types of collateral."
      },
      "mintAndCall(address,address,uint256,bytes)": {
        "notice": "Allows the company to tokenize shares and transfer them e.g to the draggable contract and wrap them. If these shares are newly created, setTotalShares must be called first in order to adjust the total number of shares."
      },
      "setCustomClaimCollateral(address,uint256)": {
        "notice": "See parent method for collateral requirements."
      },
      "setTotalShares(uint256)": {
        "notice": "Declares the number of total shares, including those that have not been tokenized and those that are held by the company itself. This number can be substiantially higher than totalSupply() in case not all shares have been tokenized. Also, it can be lower than totalSupply() in case some tokens have become invalid."
      },
      "totalValidSupply()": {
        "notice": "The total number of valid tokens in circulation. In case some tokens have been declared invalid, this number might be lower than totalSupply(). Also, it will always be lower than or equal to totalShares()."
      }
    },
    "version": 1
  },
  "storageLayout": {
    "storage": [
      {
        "astId": 533,
        "contract": "src/shares/Shares.sol:Shares",
        "label": "_balances",
        "offset": 0,
        "slot": "0",
        "type": "t_mapping(t_address,t_uint256)"
      },
      {
        "astId": 539,
        "contract": "src/shares/Shares.sol:Shares",
        "label": "_allowances",
        "offset": 0,
        "slot": "1",
        "type": "t_mapping(t_address,t_mapping(t_address,t_uint256))"
      },
      {
        "astId": 541,
        "contract": "src/shares/Shares.sol:Shares",
        "label": "_totalSupply",
        "offset": 0,
        "slot": "2",
        "type": "t_uint256"
      },
      {
        "astId": 544,
        "contract": "src/shares/Shares.sol:Shares",
        "label": "decimals",
        "offset": 0,
        "slot": "3",
        "type": "t_uint8"
      },
      {
        "astId": 6528,
        "contract": "src/shares/Shares.sol:Shares",
        "label": "customCollateralAddress",
        "offset": 1,
        "slot": "3",
        "type": "t_address"
      },
      {
        "astId": 6530,
        "contract": "src/shares/Shares.sol:Shares",
        "label": "customCollateralRate",
        "offset": 0,
        "slot": "4",
        "type": "t_uint256"
      },
      {
        "astId": 8431,
        "contract": "src/shares/Shares.sol:Shares",
        "label": "owner",
        "offset": 0,
        "slot": "5",
        "type": "t_address"
      },
      {
        "astId": 1029,
        "contract": "src/shares/Shares.sol:Shares",
        "label": "name",
        "offset": 0,
        "slot": "6",
        "type": "t_string_storage"
      },
      {
        "astId": 1032,
        "contract": "src/shares/Shares.sol:Shares",
        "label": "symbol",
        "offset": 0,
        "slot": "7",
        "type": "t_string_storage"
      },
      {
        "astId": 7976,
        "contract": "src/shares/Shares.sol:Shares",
        "label": "terms",
        "offset": 0,
        "slot": "8",
        "type": "t_string_storage"
      },
      {
        "astId": 7979,
        "contract": "src/shares/Shares.sol:Shares",
        "label": "totalShares",
        "offset": 0,
        "slot": "9",
        "type": "t_uint256"
      },
      {
        "astId": 7982,
        "contract": "src/shares/Shares.sol:Shares",
        "label": "invalidTokens",
        "offset": 0,
        "slot": "10",
        "type": "t_uint256"
      }
    ],
    "types": {
      "t_address": {
        "encoding": "inplace",
        "label": "address",
        "numberOfBytes": "20"
      },
      "t_mapping(t_address,t_mapping(t_address,t_uint256))": {
        "encoding": "mapping",
        "key": "t_address",
        "label": "mapping(address => mapping(address => uint256))",
        "numberOfBytes": "32",
        "value": "t_mapping(t_address,t_uint256)"
      },
      "t_mapping(t_address,t_uint256)": {
        "encoding": "mapping",
        "key": "t_address",
        "label": "mapping(address => uint256)",
        "numberOfBytes": "32",
        "value": "t_uint256"
      },
      "t_string_storage": {
        "encoding": "bytes",
        "label": "string",
        "numberOfBytes": "32"
      },
      "t_uint256": {
        "encoding": "inplace",
        "label": "uint256",
        "numberOfBytes": "32"
      },
      "t_uint8": {
        "encoding": "inplace",
        "label": "uint8",
        "numberOfBytes": "1"
      }
    }
  }
}